{
  "contractName": "AgreementContract",
  "abi": [
    {
      "inputs": [
        {
          "internalType": "uint8",
          "name": "votingInterval",
          "type": "uint8"
        }
      ],
      "stateMutability": "nonpayable",
      "type": "constructor"
    },
    {
      "anonymous": false,
      "inputs": [
        {
          "indexed": false,
          "internalType": "address",
          "name": "requester",
          "type": "address"
        },
        {
          "indexed": false,
          "internalType": "uint256",
          "name": "recordId",
          "type": "uint256"
        },
        {
          "indexed": false,
          "internalType": "uint256",
          "name": "ballotId",
          "type": "uint256"
        },
        {
          "indexed": false,
          "internalType": "uint256",
          "name": "tokenId",
          "type": "uint256"
        },
        {
          "indexed": false,
          "internalType": "string",
          "name": "contractLink",
          "type": "string"
        },
        {
          "indexed": false,
          "internalType": "string",
          "name": "contractHash",
          "type": "string"
        },
        {
          "indexed": false,
          "internalType": "uint256",
          "name": "creationTime",
          "type": "uint256"
        },
        {
          "indexed": false,
          "internalType": "bool",
          "name": "isPresent",
          "type": "bool"
        }
      ],
      "name": "AgreementCreated",
      "type": "event"
    },
    {
      "anonymous": false,
      "inputs": [
        {
          "indexed": false,
          "internalType": "address",
          "name": "voter",
          "type": "address"
        },
        {
          "indexed": false,
          "internalType": "uint256",
          "name": "agreementId",
          "type": "uint256"
        },
        {
          "indexed": false,
          "internalType": "uint256",
          "name": "ballotId",
          "type": "uint256"
        },
        {
          "indexed": false,
          "internalType": "bool",
          "name": "vote",
          "type": "bool"
        }
      ],
      "name": "AgreementVoting",
      "type": "event"
    },
    {
      "anonymous": false,
      "inputs": [
        {
          "indexed": false,
          "internalType": "uint256",
          "name": "agreementId",
          "type": "uint256"
        },
        {
          "indexed": false,
          "internalType": "uint256",
          "name": "ballotId",
          "type": "uint256"
        },
        {
          "indexed": false,
          "internalType": "bool",
          "name": "result",
          "type": "bool"
        }
      ],
      "name": "BallotResult",
      "type": "event"
    },
    {
      "anonymous": false,
      "inputs": [
        {
          "indexed": false,
          "internalType": "uint256",
          "name": "recordId",
          "type": "uint256"
        },
        {
          "indexed": false,
          "internalType": "uint256",
          "name": "totalSupplyEther",
          "type": "uint256"
        },
        {
          "indexed": false,
          "internalType": "uint256",
          "name": "dividendAmountEther",
          "type": "uint256"
        },
        {
          "indexed": false,
          "internalType": "uint256",
          "name": "dividendId",
          "type": "uint256"
        },
        {
          "indexed": false,
          "internalType": "uint256",
          "name": "tokenId",
          "type": "uint256"
        },
        {
          "indexed": false,
          "internalType": "uint256",
          "name": "dividendPerTokenWei",
          "type": "uint256"
        },
        {
          "indexed": false,
          "internalType": "uint256",
          "name": "snapshotId",
          "type": "uint256"
        }
      ],
      "name": "RoyaltyPayment",
      "type": "event"
    },
    {
      "anonymous": false,
      "inputs": [
        {
          "indexed": false,
          "internalType": "uint256",
          "name": "dividendId",
          "type": "uint256"
        },
        {
          "indexed": false,
          "internalType": "uint256",
          "name": "recordId",
          "type": "uint256"
        },
        {
          "indexed": false,
          "internalType": "uint256",
          "name": "rewardAmount",
          "type": "uint256"
        },
        {
          "indexed": false,
          "internalType": "address",
          "name": "userAddress",
          "type": "address"
        }
      ],
      "name": "RoyaltyPaymentClaimed",
      "type": "event"
    },
    {
      "inputs": [],
      "name": "ORDER_CONTRACT_ADDRESS",
      "outputs": [
        {
          "internalType": "address",
          "name": "",
          "type": "address"
        }
      ],
      "stateMutability": "view",
      "type": "function"
    },
    {
      "inputs": [],
      "name": "TREASURY_CONTRACT_ADDRESS",
      "outputs": [
        {
          "internalType": "address",
          "name": "",
          "type": "address"
        }
      ],
      "stateMutability": "view",
      "type": "function"
    },
    {
      "inputs": [],
      "name": "agreementCurrentId",
      "outputs": [
        {
          "internalType": "uint256",
          "name": "",
          "type": "uint256"
        }
      ],
      "stateMutability": "view",
      "type": "function"
    },
    {
      "inputs": [
        {
          "internalType": "address",
          "name": "newTreasuryContractAddress",
          "type": "address"
        }
      ],
      "name": "setTreasuryContractAddress",
      "outputs": [],
      "stateMutability": "nonpayable",
      "type": "function"
    },
    {
      "inputs": [
        {
          "internalType": "address",
          "name": "newOrderContractAddress",
          "type": "address"
        }
      ],
      "name": "setOrderContractAddress",
      "outputs": [],
      "stateMutability": "nonpayable",
      "type": "function"
    },
    {
      "inputs": [
        {
          "internalType": "uint256",
          "name": "recordId",
          "type": "uint256"
        },
        {
          "internalType": "string",
          "name": "contractLink",
          "type": "string"
        },
        {
          "internalType": "string",
          "name": "contractHash",
          "type": "string"
        }
      ],
      "name": "createAgreement",
      "outputs": [
        {
          "internalType": "uint256",
          "name": "",
          "type": "uint256"
        }
      ],
      "stateMutability": "nonpayable",
      "type": "function"
    },
    {
      "inputs": [
        {
          "internalType": "uint256",
          "name": "agreementId",
          "type": "uint256"
        },
        {
          "internalType": "bool",
          "name": "vote",
          "type": "bool"
        }
      ],
      "name": "castVoteForAgreement",
      "outputs": [],
      "stateMutability": "nonpayable",
      "type": "function"
    },
    {
      "inputs": [
        {
          "internalType": "uint256",
          "name": "agreementId",
          "type": "uint256"
        }
      ],
      "name": "declareWinner",
      "outputs": [],
      "stateMutability": "nonpayable",
      "type": "function"
    },
    {
      "inputs": [
        {
          "internalType": "uint256",
          "name": "agreementId",
          "type": "uint256"
        }
      ],
      "name": "transferRoyaltyPayment",
      "outputs": [],
      "stateMutability": "nonpayable",
      "type": "function"
    },
    {
      "inputs": [
        {
          "internalType": "uint256",
          "name": "recordId",
          "type": "uint256"
        },
        {
          "internalType": "uint256",
          "name": "amount",
          "type": "uint256"
        }
      ],
      "name": "payRoyaltyAmount",
      "outputs": [],
      "stateMutability": "nonpayable",
      "type": "function"
    },
    {
      "inputs": [
        {
          "internalType": "uint256",
          "name": "recordId",
          "type": "uint256"
        }
      ],
      "name": "claimRoyaltyAmount",
      "outputs": [],
      "stateMutability": "nonpayable",
      "type": "function"
    },
    {
      "inputs": [
        {
          "internalType": "uint256[]",
          "name": "dividendIdArray",
          "type": "uint256[]"
        },
        {
          "internalType": "address",
          "name": "user",
          "type": "address"
        }
      ],
      "name": "_getNewClaimIndex",
      "outputs": [
        {
          "internalType": "uint256",
          "name": "",
          "type": "uint256"
        }
      ],
      "stateMutability": "view",
      "type": "function"
    },
    {
      "inputs": [
        {
          "internalType": "address",
          "name": "operator",
          "type": "address"
        },
        {
          "internalType": "address",
          "name": "from",
          "type": "address"
        },
        {
          "internalType": "uint256",
          "name": "id",
          "type": "uint256"
        },
        {
          "internalType": "uint256",
          "name": "value",
          "type": "uint256"
        },
        {
          "internalType": "bytes",
          "name": "data",
          "type": "bytes"
        }
      ],
      "name": "onERC1155Received",
      "outputs": [
        {
          "internalType": "bytes4",
          "name": "",
          "type": "bytes4"
        }
      ],
      "stateMutability": "nonpayable",
      "type": "function"
    },
    {
      "inputs": [
        {
          "internalType": "address",
          "name": "operator",
          "type": "address"
        },
        {
          "internalType": "address",
          "name": "from",
          "type": "address"
        },
        {
          "internalType": "uint256[]",
          "name": "ids",
          "type": "uint256[]"
        },
        {
          "internalType": "uint256[]",
          "name": "values",
          "type": "uint256[]"
        },
        {
          "internalType": "bytes",
          "name": "data",
          "type": "bytes"
        }
      ],
      "name": "onERC1155BatchReceived",
      "outputs": [
        {
          "internalType": "bytes4",
          "name": "",
          "type": "bytes4"
        }
      ],
      "stateMutability": "nonpayable",
      "type": "function"
    }
  ],
  "bytecode": "0x60806040526019600055600060045560006007556000600a553480156200002557600080fd5b5060405162003c4738038062003c4783398181016040528101906200004b9190620000e0565b33600360006101000a81548173ffffffffffffffffffffffffffffffffffffffff021916908373ffffffffffffffffffffffffffffffffffffffff1602179055508060ff166000819055505062000112565b600080fd5b600060ff82169050919050565b620000ba81620000a2565b8114620000c657600080fd5b50565b600081519050620000da81620000af565b92915050565b600060208284031215620000f957620000f86200009d565b5b60006200010984828501620000c9565b91505092915050565b613b2580620001226000396000f3fe608060405234801561001057600080fd5b50600436106100e95760003560e01c8063acb314931161008c578063d188527811610066578063d188527814610230578063def5131c1461024e578063f23a6e611461027e578063f765c740146102ae576100e9565b8063acb31493146101c6578063bacad8e1146101e4578063bc197c8114610200576100e9565b80634f2941b4116100c85780634f2941b414610142578063567254491461015e5780636dbf4d711461018e5780639c2ed8d5146101aa576100e9565b8062c2943c146100ee5780634bb066971461010a5780634cf2d48f14610126575b600080fd5b61010860048036038101906101039190612536565b6102cc565b005b610124600480360381019061011f919061259b565b6103c5565b005b610140600480360381019061013b9190612639565b61043c565b005b61015c60048036038101906101579190612536565b6104d8565b005b610178600480360381019061017391906127ac565b610a6d565b6040516101859190612846565b60405180910390f35b6101a860048036038101906101a39190612861565b610d31565b005b6101c460048036038101906101bf9190612639565b611115565b005b6101ce6111b1565b6040516101db91906128b0565b60405180910390f35b6101fe60048036038101906101f99190612536565b6111d7565b005b61021a60048036038101906102159190612981565b611266565b6040516102279190612a98565b60405180910390f35b610238611297565b60405161024591906128b0565b60405180910390f35b61026860048036038101906102639190612b76565b6112bd565b6040516102759190612846565b60405180910390f35b61029860048036038101906102939190612bd2565b6114fd565b6040516102a59190612a98565b60405180910390f35b6102b661152c565b6040516102c39190612846565b60405180910390f35b600061030460086000848152602001908152602001600020600201546008600085815260200190815260200160002060030154611532565b90507fb8a8a92b56f183482e31ed93ed60da7274c03a6bc11b2c0e75cec8ff5a8058f28260086000858152602001908152602001600020600201548360405161034f93929190612c7b565b60405180910390a180156103915760016008600084815260200190815260200160002060040160006101000a81548160ff0219169083151502179055506103c1565b60006008600084815260200190815260200160002060040160006101000a81548160ff0219169083151502179055505b5050565b6103e5600860008481526020019081526020016000206002015482611a54565b7f58c55264235888a4eedc6caf417ce400bc31fd1bc88d383c1e66eed7c7ba10e832836008600086815260200190815260200160002060020154846040516104309493929190612cb2565b60405180910390a15050565b600360009054906101000a900473ffffffffffffffffffffffffffffffffffffffff1673ffffffffffffffffffffffffffffffffffffffff163373ffffffffffffffffffffffffffffffffffffffff16146104cc576040517f08c379a00000000000000000000000000000000000000000000000000000000081526004016104c390612d7a565b60405180910390fd5b6104d581611d45565b50565b6000600b600083815260200190815260200160002080548060200260200160405190810160405280929190818152602001828054801561053757602002820191906000526020600020905b815481526020019060010190808311610523575b505050505090506000815111610582576040517f08c379a000000000000000000000000000000000000000000000000000000000815260040161057990612de6565b60405180910390fd5b600061058e82336112bd565b9050600081101580156105a15750815181105b6105e0576040517f08c379a00000000000000000000000000000000000000000000000000000000081526004016105d790612e52565b60405180910390fd5b6000600160009054906101000a900473ffffffffffffffffffffffffffffffffffffffff16905060008173ffffffffffffffffffffffffffffffffffffffff16632d4a0382866040518263ffffffff1660e01b81526004016106429190612846565b602060405180830381865afa15801561065f573d6000803e3d6000fd5b505050506040513d601f19601f820116820180604052508101906106839190612e87565b90506000801515600d60008787815181106106a1576106a0612eb4565b5b6020026020010151815260200190815260200160002060003373ffffffffffffffffffffffffffffffffffffffff1673ffffffffffffffffffffffffffffffffffffffff16815260200190815260200160002060009054906101000a900460ff16151514610744576040517f08c379a000000000000000000000000000000000000000000000000000000000815260040161073b90612f2f565b60405180910390fd5b5b845184101561094357600061077486868151811061076657610765612eb4565b5b602002602001015184611e19565b90507ffd1ee98f72b76bef90cc4d88966f6bbf47f9ef1a395f26825bfa76b208f9b3248686815181106107aa576107a9612eb4565b5b60200260200101518883336040516107c59493929190612f4f565b60405180910390a16001600d60008888815181106107e6576107e5612eb4565b5b6020026020010151815260200190815260200160002060003373ffffffffffffffffffffffffffffffffffffffff1673ffffffffffffffffffffffffffffffffffffffff16815260200190815260200160002060006101000a81548160ff0219169083151502179055508373ffffffffffffffffffffffffffffffffffffffff1663f242432a30338773ffffffffffffffffffffffffffffffffffffffff1663e6acd9b86040518163ffffffff1660e01b8152600401602060405180830381865afa1580156108b9573d6000803e3d6000fd5b505050506040513d601f19601f820116820180604052508101906108dd9190612e87565b856040518563ffffffff1660e01b81526004016108fd9493929190612ff1565b600060405180830381600087803b15801561091757600080fd5b505af115801561092b573d6000803e3d6000fd5b50505050848061093a90613078565b95505050610745565b60008111610986576040517f08c379a000000000000000000000000000000000000000000000000000000000815260040161097d90613133565b60405180910390fd5b8273ffffffffffffffffffffffffffffffffffffffff1663f242432a30338673ffffffffffffffffffffffffffffffffffffffff1663e6acd9b86040518163ffffffff1660e01b8152600401602060405180830381865afa1580156109ef573d6000803e3d6000fd5b505050506040513d601f19601f82011682018060405250810190610a139190612e87565b856040518563ffffffff1660e01b8152600401610a339493929190612ff1565b600060405180830381600087803b158015610a4d57600080fd5b505af1158015610a61573d6000803e3d6000fd5b50505050505050505050565b600060076000815480929190610a8290613078565b9190505550600060075490506000610a9a6001611f40565b90506000600160009054906101000a900473ffffffffffffffffffffffffffffffffffffffff16905060008173ffffffffffffffffffffffffffffffffffffffff1663d6ca40a7896040518263ffffffff1660e01b8152600401610afe9190612846565b602060405180830381865afa158015610b1b573d6000803e3d6000fd5b505050506040513d601f19601f82011682018060405250810190610b3f9190612e87565b905060006040518061012001604052803273ffffffffffffffffffffffffffffffffffffffff1681526020018a81526020018581526020018381526020016000151581526020018981526020018881526020014281526020016001151581525090507f57dc24a7c2286cd9cb4d5bd53ac7c0c46911201f73115b62a44501fe5e5c9290328a86858c8c426001604051610bdf9897969594939291906131ca565b60405180910390a1806008600086815260200190815260200160002060008201518160000160006101000a81548173ffffffffffffffffffffffffffffffffffffffff021916908373ffffffffffffffffffffffffffffffffffffffff16021790555060208201518160010155604082015181600201556060820151816003015560808201518160040160006101000a81548160ff02191690831515021790555060a0820151816005019080519060200190610c9c9291906123bf565b5060c0820151816006019080519060200190610cb99291906123bf565b5060e082015181600701556101008201518160080160006101000a81548160ff021916908315150217905550905050600960008a815260200190815260200160002085908060018154018082558091505060019003906000526020600020016000909190919091505584955050505050509392505050565b6001600a6000828254610d449190613256565b925050819055506000600160009054906101000a900473ffffffffffffffffffffffffffffffffffffffff16905060008173ffffffffffffffffffffffffffffffffffffffff16632d4a0382856040518263ffffffff1660e01b8152600401610dad9190612846565b602060405180830381865afa158015610dca573d6000803e3d6000fd5b505050506040513d601f19601f82011682018060405250810190610dee9190612e87565b905060008273ffffffffffffffffffffffffffffffffffffffff1663036c22ad836040518263ffffffff1660e01b8152600401610e2b9190612846565b602060405180830381865afa158015610e48573d6000803e3d6000fd5b505050506040513d601f19601f82011682018060405250810190610e6c9190612e87565b90508273ffffffffffffffffffffffffffffffffffffffff1663f242432a33308673ffffffffffffffffffffffffffffffffffffffff1663e6acd9b86040518163ffffffff1660e01b8152600401602060405180830381865afa158015610ed7573d6000803e3d6000fd5b505050506040513d601f19601f82011682018060405250810190610efb9190612e87565b886040518563ffffffff1660e01b8152600401610f1b94939291906132f8565b600060405180830381600087803b158015610f3557600080fd5b505af1158015610f49573d6000803e3d6000fd5b5050505060006040518060c00160405280670de0b6b3a764000084610f6e919061337f565b8152602001868152602001600a548152602001848152602001670de0b6b3a764000084610f9b919061337f565b87610fa6919061337f565b81526020018573ffffffffffffffffffffffffffffffffffffffff16639711715a6040518163ffffffff1660e01b81526004016020604051808303816000875af1158015610ff8573d6000803e3d6000fd5b505050506040513d601f19601f8201168201806040525081019061101c9190612e87565b81525090507fd059c53f6b0f9d91e0b310c8e42f342d032a037c7ce537d6d8af6111d168304286826000015183602001518460400151856060015186608001518760a0015160405161107497969594939291906133b0565b60405180910390a1600b6000878152602001908152602001600020600a54908060018154018082558091505060019003906000526020600020016000909190919091505580600c6000600a548152602001908152602001600020600082015181600001556020820151816001015560408201518160020155606082015181600301556080820151816004015560a08201518160050155905050505050505050565b600360009054906101000a900473ffffffffffffffffffffffffffffffffffffffff1673ffffffffffffffffffffffffffffffffffffffff163373ffffffffffffffffffffffffffffffffffffffff16146111a5576040517f08c379a000000000000000000000000000000000000000000000000000000000815260040161119c90612d7a565b60405180910390fd5b6111ae8161215d565b50565b600160009054906101000a900473ffffffffffffffffffffffffffffffffffffffff1681565b600061120f60086000848152602001908152602001600020600201546008600085815260200190815260200160002060030154611532565b90507fb8a8a92b56f183482e31ed93ed60da7274c03a6bc11b2c0e75cec8ff5a8058f28260086000858152602001908152602001600020600201548360405161125a93929190612c7b565b60405180910390a15050565b60007fbc197c819b3e337a6f9652dd10becd7eef83032af3b9d958d3d42f6694146621905098975050505050505050565b600260009054906101000a900473ffffffffffffffffffffffffffffffffffffffff1681565b600080835114156112d157600090506114f7565b6000808451905060005b818310156113a25760006112ef8484612231565b905086818151811061130457611303612eb4565b5b602002602001015191506000600d600084815260200190815260200160002060008873ffffffffffffffffffffffffffffffffffffffff1673ffffffffffffffffffffffffffffffffffffffff16815260200190815260200160002060009054906101000a900460ff1690508015801561137e5750818414155b1561138b5781935061139b565b6001826113989190613256565b94505b50506112db565b600083118015611439575060001515600d6000886001876113c3919061341f565b815181106113d4576113d3612eb4565b5b6020026020010151815260200190815260200160002060008773ffffffffffffffffffffffffffffffffffffffff1673ffffffffffffffffffffffffffffffffffffffff16815260200190815260200160002060009054906101000a900460ff161515145b156114555760018361144b919061341f565b93505050506114f7565b60011515600d60008886815181106114705761146f612eb4565b5b6020026020010151815260200190815260200160002060008773ffffffffffffffffffffffffffffffffffffffff1673ffffffffffffffffffffffffffffffffffffffff16815260200190815260200160002060009054906101000a900460ff16151514156114f0576001836114e69190613256565b93505050506114f7565b8293505050505b92915050565b60007ff23a6e612e1ff4830e658fe43f4e3cb4a5f8170bd5d9e69fb5d7a7fa9e4fdf9790509695505050505050565b60075481565b6000600115156005600085815260200190815260200160002060040160029054906101000a900460ff1615151461159e576040517f08c379a00000000000000000000000000000000000000000000000000000000081526004016115959061349f565b60405180910390fd5b436005600085815260200190815260200160002060030154106115f6576040517f08c379a00000000000000000000000000000000000000000000000000000000081526004016115ed9061350b565b60405180910390fd5b600015156005600085815260200190815260200160002060040160009054906101000a900460ff16151514611660576040517f08c379a000000000000000000000000000000000000000000000000000000000815260040161165790613577565b60405180910390fd5b6000600560008581526020019081526020016000206001018054806020026020016040519081016040528092919081815260200182805480156116f857602002820191906000526020600020905b8160009054906101000a900473ffffffffffffffffffffffffffffffffffffffff1673ffffffffffffffffffffffffffffffffffffffff16815260200190600101908083116116ae575b505050505090506000815167ffffffffffffffff81111561171c5761171b612681565b5b60405190808252806020026020018201604052801561174a5781602001602082028036833780820191505090505b50905060005b825181101561178c578482828151811061176d5761176c612eb4565b5b602002602001018181525050808061178490613078565b915050611750565b506000600160009054906101000a900473ffffffffffffffffffffffffffffffffffffffff16905060008173ffffffffffffffffffffffffffffffffffffffff1662fdd58e600260009054906101000a900473ffffffffffffffffffffffffffffffffffffffff16886040518363ffffffff1660e01b8152600401611812929190613597565b602060405180830381865afa15801561182f573d6000803e3d6000fd5b505050506040513d601f19601f820116820180604052508101906118539190612e87565b905060008273ffffffffffffffffffffffffffffffffffffffff16634e1273f4600560008b8152602001908152602001600020600101866040518363ffffffff1660e01b81526004016118a79291906137a2565b600060405180830381865afa1580156118c4573d6000803e3d6000fd5b505050506040513d6000823e3d601f19601f820116820180604052508101906118ed9190613870565b90506000805b86518110156119375782818151811061190f5761190e612eb4565b5b6020026020010151826119229190613256565b9150808061192f90613078565b9150506118f3565b506001600560008b815260200190815260200160002060040160006101000a81548160ff0219169083151502179055506000811115611a435760008473ffffffffffffffffffffffffffffffffffffffff1663036c22ad8a6040518263ffffffff1660e01b81526004016119ab9190612846565b602060405180830381865afa1580156119c8573d6000803e3d6000fd5b505050506040513d601f19601f820116820180604052508101906119ec9190612e87565b905083816119fa919061341f565b9050600081606484611a0c91906138b9565b611a16919061337f565b90506042811115611a3257600198505050505050505050611a4e565b600098505050505050505050611a4e565b600096505050505050505b92915050565b81600115156005600083815260200190815260200160002060040160029054906101000a900460ff16151514611abf576040517f08c379a0000000000000000000000000000000000000000000000000000000008152600401611ab69061349f565b60405180910390fd5b43600560008381526020019081526020016000206003015411611b17576040517f08c379a0000000000000000000000000000000000000000000000000000000008152600401611b0e9061395f565b60405180910390fd5b600015156006600083815260200190815260200160002060003373ffffffffffffffffffffffffffffffffffffffff1673ffffffffffffffffffffffffffffffffffffffff16815260200190815260200160002060009054906101000a900460ff16151514611bbb576040517f08c379a0000000000000000000000000000000000000000000000000000000008152600401611bb2906139cb565b60405180910390fd5b826005600082815260200190815260200160002060040160019054906101000a900460ff1615611c8e57600015156006600083815260200190815260200160002060003273ffffffffffffffffffffffffffffffffffffffff1673ffffffffffffffffffffffffffffffffffffffff16815260200190815260200160002060009054906101000a900460ff16151514611c89576040517f08c379a0000000000000000000000000000000000000000000000000000000008152600401611c80906139cb565b60405180910390fd5b611d34565b6005600082815260200190815260200160002060000160009054906101000a900473ffffffffffffffffffffffffffffffffffffffff1673ffffffffffffffffffffffffffffffffffffffff163273ffffffffffffffffffffffffffffffffffffffff161415611d33576040517f08c379a0000000000000000000000000000000000000000000000000000000008152600401611d2a90613a37565b60405180910390fd5b5b611d3f848432612257565b50505050565b600360009054906101000a900473ffffffffffffffffffffffffffffffffffffffff1673ffffffffffffffffffffffffffffffffffffffff163373ffffffffffffffffffffffffffffffffffffffff1614611dd5576040517f08c379a0000000000000000000000000000000000000000000000000000000008152600401611dcc90612d7a565b60405180910390fd5b80600160006101000a81548173ffffffffffffffffffffffffffffffffffffffff021916908373ffffffffffffffffffffffffffffffffffffffff16021790555050565b600080600c60008581526020019081526020016000206040518060c0016040529081600082015481526020016001820154815260200160028201548152602001600382015481526020016004820154815260200160058201548152505090506000600160009054906101000a900473ffffffffffffffffffffffffffffffffffffffff16905060008173ffffffffffffffffffffffffffffffffffffffff1663626da068338560a00151886040518463ffffffff1660e01b8152600401611ee293929190613a57565b602060405180830381865afa158015611eff573d6000803e3d6000fd5b505050506040513d601f19601f82011682018060405250810190611f239190612e87565b9050808360800151611f3591906138b9565b935050505092915050565b600060046000815480929190611f5590613078565b919050555060006040518060e001604052803273ffffffffffffffffffffffffffffffffffffffff168152602001600067ffffffffffffffff811115611f9e57611f9d612681565b5b604051908082528060200260200182016040528015611fcc5781602001602082028036833780820191505090505b508152602001600067ffffffffffffffff811115611fed57611fec612681565b5b60405190808252806020026020018201604052801561201b5781602001602082028036833780820191505090505b5081526020016000544361202f9190613256565b815260200160001515815260200184151581526020016001151581525090508060056000600454815260200190815260200160002060008201518160000160006101000a81548173ffffffffffffffffffffffffffffffffffffffff021916908373ffffffffffffffffffffffffffffffffffffffff16021790555060208201518160010190805190602001906120c7929190612445565b5060408201518160020190805190602001906120e4929190612445565b506060820151816003015560808201518160040160006101000a81548160ff02191690831515021790555060a08201518160040160016101000a81548160ff02191690831515021790555060c08201518160040160026101000a81548160ff021916908315150217905550905050600454915050919050565b600360009054906101000a900473ffffffffffffffffffffffffffffffffffffffff1673ffffffffffffffffffffffffffffffffffffffff163373ffffffffffffffffffffffffffffffffffffffff16146121ed576040517f08c379a00000000000000000000000000000000000000000000000000000000081526004016121e490612d7a565b60405180910390fd5b80600260006101000a81548173ffffffffffffffffffffffffffffffffffffffff021916908373ffffffffffffffffffffffffffffffffffffffff16021790555050565b60006002828418612242919061337f565b82841661224f9190613256565b905092915050565b81156122d95760056000848152602001908152602001600020600101329080600181540180825580915050600190039060005260206000200160009091909190916101000a81548173ffffffffffffffffffffffffffffffffffffffff021916908373ffffffffffffffffffffffffffffffffffffffff160217905550612351565b60056000848152602001908152602001600020600201329080600181540180825580915050600190039060005260206000200160009091909190916101000a81548173ffffffffffffffffffffffffffffffffffffffff021916908373ffffffffffffffffffffffffffffffffffffffff1602179055505b60016006600085815260200190815260200160002060003273ffffffffffffffffffffffffffffffffffffffff1673ffffffffffffffffffffffffffffffffffffffff16815260200190815260200160002060006101000a81548160ff021916908315150217905550505050565b8280546123cb90613abd565b90600052602060002090601f0160209004810192826123ed5760008555612434565b82601f1061240657805160ff1916838001178555612434565b82800160010185558215612434579182015b82811115612433578251825591602001919060010190612418565b5b50905061244191906124cf565b5090565b8280548282559060005260206000209081019282156124be579160200282015b828111156124bd5782518260006101000a81548173ffffffffffffffffffffffffffffffffffffffff021916908373ffffffffffffffffffffffffffffffffffffffff16021790555091602001919060010190612465565b5b5090506124cb91906124cf565b5090565b5b808211156124e85760008160009055506001016124d0565b5090565b6000604051905090565b600080fd5b600080fd5b6000819050919050565b61251381612500565b811461251e57600080fd5b50565b6000813590506125308161250a565b92915050565b60006020828403121561254c5761254b6124f6565b5b600061255a84828501612521565b91505092915050565b60008115159050919050565b61257881612563565b811461258357600080fd5b50565b6000813590506125958161256f565b92915050565b600080604083850312156125b2576125b16124f6565b5b60006125c085828601612521565b92505060206125d185828601612586565b9150509250929050565b600073ffffffffffffffffffffffffffffffffffffffff82169050919050565b6000612606826125db565b9050919050565b612616816125fb565b811461262157600080fd5b50565b6000813590506126338161260d565b92915050565b60006020828403121561264f5761264e6124f6565b5b600061265d84828501612624565b91505092915050565b600080fd5b600080fd5b6000601f19601f8301169050919050565b7f4e487b7100000000000000000000000000000000000000000000000000000000600052604160045260246000fd5b6126b982612670565b810181811067ffffffffffffffff821117156126d8576126d7612681565b5b80604052505050565b60006126eb6124ec565b90506126f782826126b0565b919050565b600067ffffffffffffffff82111561271757612716612681565b5b61272082612670565b9050602081019050919050565b82818337600083830152505050565b600061274f61274a846126fc565b6126e1565b90508281526020810184848401111561276b5761276a61266b565b5b61277684828561272d565b509392505050565b600082601f83011261279357612792612666565b5b81356127a384826020860161273c565b91505092915050565b6000806000606084860312156127c5576127c46124f6565b5b60006127d386828701612521565b935050602084013567ffffffffffffffff8111156127f4576127f36124fb565b5b6128008682870161277e565b925050604084013567ffffffffffffffff811115612821576128206124fb565b5b61282d8682870161277e565b9150509250925092565b61284081612500565b82525050565b600060208201905061285b6000830184612837565b92915050565b60008060408385031215612878576128776124f6565b5b600061288685828601612521565b925050602061289785828601612521565b9150509250929050565b6128aa816125fb565b82525050565b60006020820190506128c560008301846128a1565b92915050565b600080fd5b600080fd5b60008083601f8401126128eb576128ea612666565b5b8235905067ffffffffffffffff811115612908576129076128cb565b5b602083019150836020820283011115612924576129236128d0565b5b9250929050565b60008083601f84011261294157612940612666565b5b8235905067ffffffffffffffff81111561295e5761295d6128cb565b5b60208301915083600182028301111561297a576129796128d0565b5b9250929050565b60008060008060008060008060a0898b0312156129a1576129a06124f6565b5b60006129af8b828c01612624565b98505060206129c08b828c01612624565b975050604089013567ffffffffffffffff8111156129e1576129e06124fb565b5b6129ed8b828c016128d5565b9650965050606089013567ffffffffffffffff811115612a1057612a0f6124fb565b5b612a1c8b828c016128d5565b9450945050608089013567ffffffffffffffff811115612a3f57612a3e6124fb565b5b612a4b8b828c0161292b565b92509250509295985092959890939650565b60007fffffffff0000000000000000000000000000000000000000000000000000000082169050919050565b612a9281612a5d565b82525050565b6000602082019050612aad6000830184612a89565b92915050565b600067ffffffffffffffff821115612ace57612acd612681565b5b602082029050602081019050919050565b6000612af2612aed84612ab3565b6126e1565b90508083825260208201905060208402830185811115612b1557612b146128d0565b5b835b81811015612b3e5780612b2a8882612521565b845260208401935050602081019050612b17565b5050509392505050565b600082601f830112612b5d57612b5c612666565b5b8135612b6d848260208601612adf565b91505092915050565b60008060408385031215612b8d57612b8c6124f6565b5b600083013567ffffffffffffffff811115612bab57612baa6124fb565b5b612bb785828601612b48565b9250506020612bc885828601612624565b9150509250929050565b60008060008060008060a08789031215612bef57612bee6124f6565b5b6000612bfd89828a01612624565b9650506020612c0e89828a01612624565b9550506040612c1f89828a01612521565b9450506060612c3089828a01612521565b935050608087013567ffffffffffffffff811115612c5157612c506124fb565b5b612c5d89828a0161292b565b92509250509295509295509295565b612c7581612563565b82525050565b6000606082019050612c906000830186612837565b612c9d6020830185612837565b612caa6040830184612c6c565b949350505050565b6000608082019050612cc760008301876128a1565b612cd46020830186612837565b612ce16040830185612837565b612cee6060830184612c6c565b95945050505050565b600082825260208201905092915050565b7f596f7520617265206e6f7420617574686f72697a656420666f7220746869732060008201527f616374696f6e0000000000000000000000000000000000000000000000000000602082015250565b6000612d64602683612cf7565b9150612d6f82612d08565b604082019050919050565b60006020820190508181036000830152612d9381612d57565b9050919050565b7f4e6f20726f79616c7479207061796d656e747320637265617465642079657400600082015250565b6000612dd0601f83612cf7565b9150612ddb82612d9a565b602082019050919050565b60006020820190508181036000830152612dff81612dc3565b9050919050565b7f596f752068617665206e6f2070656e64696e6720636c61696d73000000000000600082015250565b6000612e3c601a83612cf7565b9150612e4782612e06565b602082019050919050565b60006020820190508181036000830152612e6b81612e2f565b9050919050565b600081519050612e818161250a565b92915050565b600060208284031215612e9d57612e9c6124f6565b5b6000612eab84828501612e72565b91505092915050565b7f4e487b7100000000000000000000000000000000000000000000000000000000600052603260045260246000fd5b7f43616e206f6e6c7920636c61696d206f6e636500000000000000000000000000600082015250565b6000612f19601383612cf7565b9150612f2482612ee3565b602082019050919050565b60006020820190508181036000830152612f4881612f0c565b9050919050565b6000608082019050612f646000830187612837565b612f716020830186612837565b612f7e6040830185612837565b612f8b60608301846128a1565b95945050505050565b600082825260208201905092915050565b7f526f79616c7479207061796d656e7420636c61696d0000000000000000000000600082015250565b6000612fdb601583612f94565b9150612fe682612fa5565b602082019050919050565b600060a08201905061300660008301876128a1565b61301360208301866128a1565b6130206040830185612837565b61302d6060830184612837565b818103608083015261303e81612fce565b905095945050505050565b7f4e487b7100000000000000000000000000000000000000000000000000000000600052601160045260246000fd5b600061308382612500565b91507fffffffffffffffffffffffffffffffffffffffffffffffffffffffffffffffff8214156130b6576130b5613049565b5b600182019050919050565b7f526577617264206e6565647320746f2062652067726561746572207468616e2060008201527f3000000000000000000000000000000000000000000000000000000000000000602082015250565b600061311d602183612cf7565b9150613128826130c1565b604082019050919050565b6000602082019050818103600083015261314c81613110565b9050919050565b600081519050919050565b60005b8381101561317c578082015181840152602081019050613161565b8381111561318b576000848401525b50505050565b600061319c82613153565b6131a68185612cf7565b93506131b681856020860161315e565b6131bf81612670565b840191505092915050565b6000610100820190506131e0600083018b6128a1565b6131ed602083018a612837565b6131fa6040830189612837565b6132076060830188612837565b81810360808301526132198187613191565b905081810360a083015261322d8186613191565b905061323c60c0830185612837565b61324960e0830184612c6c565b9998505050505050505050565b600061326182612500565b915061326c83612500565b9250827fffffffffffffffffffffffffffffffffffffffffffffffffffffffffffffffff038211156132a1576132a0613049565b5b828201905092915050565b7f526f79616c7479207061796d656e74207472616e736665720000000000000000600082015250565b60006132e2601883612f94565b91506132ed826132ac565b602082019050919050565b600060a08201905061330d60008301876128a1565b61331a60208301866128a1565b6133276040830185612837565b6133346060830184612837565b8181036080830152613345816132d5565b905095945050505050565b7f4e487b7100000000000000000000000000000000000000000000000000000000600052601260045260246000fd5b600061338a82612500565b915061339583612500565b9250826133a5576133a4613350565b5b828204905092915050565b600060e0820190506133c5600083018a612837565b6133d26020830189612837565b6133df6040830188612837565b6133ec6060830187612837565b6133f96080830186612837565b61340660a0830185612837565b61341360c0830184612837565b98975050505050505050565b600061342a82612500565b915061343583612500565b92508282101561344857613447613049565b5b828203905092915050565b7f4e6f2062616c6c6f74207769746820796f757220696420697320666f756e6400600082015250565b6000613489601f83612cf7565b915061349482613453565b602082019050919050565b600060208201905081810360008301526134b88161347c565b9050919050565b7f566f74696e672074696d65206973206e6f74206f766572207965740000000000600082015250565b60006134f5601b83612cf7565b9150613500826134bf565b602082019050919050565b60006020820190508181036000830152613524816134e8565b9050919050565b7f526573756c7420616c7265616479206465636c61726564000000000000000000600082015250565b6000613561601783612cf7565b915061356c8261352b565b602082019050919050565b6000602082019050818103600083015261359081613554565b9050919050565b60006040820190506135ac60008301856128a1565b6135b96020830184612837565b9392505050565b600081549050919050565b600082825260208201905092915050565b60008190508160005260206000209050919050565b6135fa816125fb565b82525050565b600061360c83836135f1565b60208301905092915050565b60008160001c9050919050565b600073ffffffffffffffffffffffffffffffffffffffff82169050919050565b600061365861365383613618565b613625565b9050919050565b600061366b8254613645565b9050919050565b6000600182019050919050565b600061368a826135c0565b61369481856135cb565b935061369f836135dc565b8060005b838110156136d7576136b48261365f565b6136be8882613600565b97506136c983613672565b9250506001810190506136a3565b5085935050505092915050565b600081519050919050565b600082825260208201905092915050565b6000819050602082019050919050565b61371981612500565b82525050565b600061372b8383613710565b60208301905092915050565b6000602082019050919050565b600061374f826136e4565b61375981856136ef565b935061376483613700565b8060005b8381101561379557815161377c888261371f565b975061378783613737565b925050600181019050613768565b5085935050505092915050565b600060408201905081810360008301526137bc818561367f565b905081810360208301526137d08184613744565b90509392505050565b60006137ec6137e784612ab3565b6126e1565b9050808382526020820190506020840283018581111561380f5761380e6128d0565b5b835b8181101561383857806138248882612e72565b845260208401935050602081019050613811565b5050509392505050565b600082601f83011261385757613856612666565b5b81516138678482602086016137d9565b91505092915050565b600060208284031215613886576138856124f6565b5b600082015167ffffffffffffffff8111156138a4576138a36124fb565b5b6138b084828501613842565b91505092915050565b60006138c482612500565b91506138cf83612500565b9250817fffffffffffffffffffffffffffffffffffffffffffffffffffffffffffffffff048311821515161561390857613907613049565b5b828202905092915050565b7f566f74696e672074696d65206973206f76657200000000000000000000000000600082015250565b6000613949601383612cf7565b915061395482613913565b602082019050919050565b600060208201905081810360008301526139788161393c565b9050919050565b7f596f75206861766520616c726561647920766f74656400000000000000000000600082015250565b60006139b5601683612cf7565b91506139c08261397f565b602082019050919050565b600060208201905081810360008301526139e4816139a8565b9050919050565b7f4f776e65722063616e6e6f7420766f7465000000000000000000000000000000600082015250565b6000613a21601183612cf7565b9150613a2c826139eb565b602082019050919050565b60006020820190508181036000830152613a5081613a14565b9050919050565b6000606082019050613a6c60008301866128a1565b613a796020830185612837565b613a866040830184612837565b949350505050565b7f4e487b7100000000000000000000000000000000000000000000000000000000600052602260045260246000fd5b60006002820490506001821680613ad557607f821691505b60208210811415613ae957613ae8613a8e565b5b5091905056fea26469706673582212207ef00dd41ae749ef3386ddd2f104ad2aa949d99de56c621b66822f8ba74bf61664736f6c634300080c0033",
  "immutableReferences": {},
  "source": "// SPDX-License-Identifier: MIT\npragma solidity ^0.8.0;\n\nimport \"./voting/BaseVotingContract.sol\";\nimport \"./TreasuryContract.sol\";\n\ncontract AgreementContract is BaseVotingContract {\n    //This is the struct that contains the publishing agreement data\n    struct Agreement {\n        address requester;\n        uint256 recordId;\n        uint256 ballotId;\n        uint256 tokenId;\n        bool isActive;\n        string contractLink;\n        string contractHash;\n        uint256 creationTime;\n        bool isPresent;\n    }\n\n    event AgreementCreated(\n        address requester,\n        uint256 recordId,\n        uint256 ballotId,\n        uint256 tokenId,\n        string contractLink,\n        string contractHash,\n        uint256 creationTime,\n        bool isPresent\n    );\n\n    event RoyaltyPayment(\n        uint256 recordId,\n        uint256 totalSupplyEther,\n        uint256 dividendAmountEther,\n        uint256 dividendId,\n        uint256 tokenId,\n        uint256 dividendPerTokenWei,\n        uint256 snapshotId\n    );\n\n    event RoyaltyPaymentClaimed(\n        uint256 dividendId,\n        uint256 recordId,\n        uint256 rewardAmount,\n        address userAddress\n    );\n\n    struct DividendData {\n        uint256 totalSupplyEther;\n        uint256 dividendAmountEther;\n        uint256 dividendId;\n        uint256 tokenId;\n        uint256 dividendPerTokenWei;\n        uint256 snapshotId;\n    }\n\n    /**\n        @dev This is when a user votes for a publishing agreement\n        @param voter Address of the voter\n        @param agreementId This is the id of the publishing agreement that is linked to this ballot \n        @param ballotId Id of the ballot where voting is stored\n        @param vote State of vote : true for yes and false for No\n     */\n    event AgreementVoting(\n        address voter,\n        uint256 agreementId,\n        uint256 ballotId,\n        bool vote\n    );\n\n    /**\n        @dev this event is generated when result of a ballot is declared\n        @param agreementId This is the id of the agreement that is linked to this ballot \n        @param ballotId this is the ballot Id for which result is declared \n        @param result this is the status of the result //either true if user won that is he received more than 66% of votes or false if user lost \n     */\n    event BallotResult(uint256 agreementId, uint256 ballotId, bool result);\n\n    uint256 public agreementCurrentId = 0;\n    mapping(uint256 => Agreement) agreementMap;\n    //The below mapping contains the list of agreementId\n    // mapping works as (recordId => [agreementId])\n    mapping(uint256 => uint256[]) recordAgreementList;\n\n    uint256 dividendId = 0;\n    //RecordId => array of dividends\n    mapping(uint256 => uint256[]) dividendListMapping;\n    //Dividend id => dividend data\n    mapping(uint256 => DividendData) dividendDataMapping;\n    //dividendId => userAddress => bool\n    mapping(uint256 => mapping(address => bool)) dividendClaimMapping;\n\n    constructor(uint8 votingInterval) BaseVotingContract() {\n        VOTING_BLOCK_PERIOD = votingInterval;\n    }\n\n    /**\n     * @dev This function sets the treasury Contract address\n     */\n    function setTreasuryContractAddress(address newTreasuryContractAddress)\n        external\n        _ownerOnly\n    {\n        _setTreasuryContractAddress(newTreasuryContractAddress);\n    }\n\n    /**\n     * @dev This function sets the treasury Contract address\n     */\n    function setOrderContractAddress(address newOrderContractAddress)\n        external\n        _ownerOnly\n    {\n        _setOrderContractAddress(newOrderContractAddress);\n    }\n\n    /**\n     * @dev This function will create a new agreement voting ballot\n     */\n    function createAgreement(\n        uint256 recordId,\n        string memory contractLink,\n        string memory contractHash\n    ) public returns (uint256) {\n        //Check if valid record id\n        agreementCurrentId++;\n        uint256 agreeId = agreementCurrentId;\n\n        uint256 ballotId = _createVoting(true);\n\n        TreasuryContract treasuryContract = TreasuryContract(\n            TREASURY_CONTRACT_ADDRESS\n        );\n        uint256 tokenId = treasuryContract.getGovernanceTokenId(recordId);\n\n        Agreement memory agreement = Agreement({\n            requester: tx.origin,\n            recordId: recordId,\n            ballotId: ballotId,\n            tokenId: tokenId,\n            isActive: false,\n            contractLink: contractLink,\n            contractHash: contractHash,\n            creationTime: block.timestamp,\n            isPresent: true\n        });\n\n        emit AgreementCreated({\n            requester: tx.origin,\n            recordId: recordId,\n            ballotId: ballotId,\n            tokenId: tokenId,\n            contractLink: contractLink,\n            contractHash: contractHash,\n            creationTime: block.timestamp,\n            isPresent: true\n        });\n\n        agreementMap[ballotId] = agreement;\n\n        recordAgreementList[recordId].push(agreeId);\n\n        return agreeId;\n    }\n\n    /**\n     * @dev This function is called by any user to cast vote\n     * @param agreementId this is the id of the agreement for which user is voting\n     * @param vote this is the state of the vote, if true than it means the vote is in favour of the ballot\n     */\n    function castVoteForAgreement(uint256 agreementId, bool vote) public {\n        super._castVote(agreementMap[agreementId].ballotId, vote);\n\n        emit AgreementVoting({\n            agreementId: agreementId,\n            ballotId: agreementMap[agreementId].ballotId,\n            voter: tx.origin,\n            vote: vote\n        });\n    }\n\n    //Deciding the winner\n\n    /**\n     * @dev This function can be called from external source and also from within the contract\n     * @param agreementId this is the id of the agreement of which the winner is to be decleared\n     */\n    function declareWinner(uint256 agreementId) external {\n        bool result = _declareWinner(\n            agreementMap[agreementId].ballotId,\n            agreementMap[agreementId].tokenId\n        );\n\n        emit BallotResult(\n            agreementId,\n            agreementMap[agreementId].ballotId,\n            result\n        );\n\n        if (result) {\n            agreementMap[agreementId].isActive = true;\n        } else {\n            agreementMap[agreementId].isActive = false;\n        }\n    }\n\n    /**\n     * @dev This function can be called from external source and also from within the contract\n     * @param agreementId this is the id of the agreement of which the winner is to be declared\n     */\n    function transferRoyaltyPayment(uint256 agreementId) external {\n        bool result = _declareWinner(\n            agreementMap[agreementId].ballotId,\n            agreementMap[agreementId].tokenId\n        );\n\n        emit BallotResult(\n            agreementId,\n            agreementMap[agreementId].ballotId,\n            result\n        );\n\n        if (result) {\n            // activate the reward payment.\n        }\n    }\n\n    //-------------------------TEST----------------------------//\n\n    /**\n     * @dev This function is for testing purpose for distributing the royalty payment\n     */\n    function payRoyaltyAmount(uint256 recordId, uint256 amount) public {\n        dividendId += 1;\n        TreasuryContract treasuryContract = TreasuryContract(\n            TREASURY_CONTRACT_ADDRESS\n        );\n        uint256 tokenId = treasuryContract.getCommunityTokenId(recordId);\n        uint256 totalSupply = treasuryContract.totalCirculatingSupply(tokenId);\n\n        treasuryContract.safeTransferFrom(\n            msg.sender,\n            address(this),\n            treasuryContract.CRD(),\n            amount,\n            \"Royalty payment transfer\"\n        );\n\n        DividendData memory dividend = DividendData({\n            totalSupplyEther: totalSupply / 1 ether,\n            dividendAmountEther: amount,\n            dividendId: dividendId,\n            dividendPerTokenWei: amount / (totalSupply / 1 ether),\n            tokenId: tokenId,\n            snapshotId: treasuryContract.snapshot()\n        });\n\n        emit RoyaltyPayment({\n            recordId: recordId,\n            totalSupplyEther: dividend.totalSupplyEther,\n            dividendAmountEther: dividend.dividendAmountEther,\n            dividendId: dividend.dividendId,\n            tokenId: dividend.tokenId,\n            dividendPerTokenWei: dividend.dividendPerTokenWei,\n            snapshotId: dividend.snapshotId\n        });\n\n        dividendListMapping[recordId].push(dividendId);\n        dividendDataMapping[dividendId] = dividend;\n    }\n\n    /**\n     * @dev This function is for testing purpose for distributing the royalty payment\n     */\n    function claimRoyaltyAmount(uint256 recordId) public {\n        uint256[] memory dividendIdArray = dividendListMapping[recordId];\n\n        require(dividendIdArray.length > 0, \"No royalty payments created yet\");\n\n        uint256 newClaimIndex = _getNewClaimIndex(dividendIdArray, msg.sender);\n        require(\n            newClaimIndex >= 0 && newClaimIndex < dividendIdArray.length,\n            \"You have no pending claims\"\n        );\n\n        TreasuryContract treasuryContract = TreasuryContract(\n            TREASURY_CONTRACT_ADDRESS\n        );\n\n        uint256 tokenId = treasuryContract.getCommunityTokenId(recordId);\n        uint256 totalReward = 0;\n\n        require(\n            dividendClaimMapping[dividendIdArray[newClaimIndex]][msg.sender] ==\n                false,\n            \"Can only claim once\"\n        );\n\n        while (newClaimIndex < dividendIdArray.length) {\n            uint256 rewardAmount = _calculateSingleRoyaltyAmount(\n                dividendIdArray[newClaimIndex],\n                tokenId\n            );\n\n            emit RoyaltyPaymentClaimed({\n                dividendId: dividendIdArray[newClaimIndex],\n                recordId: recordId,\n                rewardAmount: rewardAmount,\n                userAddress: msg.sender\n            });\n\n            dividendClaimMapping[dividendIdArray[newClaimIndex]][\n                msg.sender\n            ] = true;\n\n            treasuryContract.safeTransferFrom(\n                address(this),\n                msg.sender,\n                treasuryContract.CRD(),\n                rewardAmount,\n                \"Royalty payment claim\"\n            );\n            // totalReward = rewardAmount + totalReward;\n            newClaimIndex++;\n        }\n        require(totalReward > 0, \"Reward needs to be greater than 0\");\n\n        treasuryContract.safeTransferFrom(\n            address(this),\n            msg.sender,\n            treasuryContract.CRD(),\n            totalReward,\n            \"Royalty payment claim\"\n        );\n    }\n\n    /**\n     * @dev This function is for testing purpose for distributing the royalty payment\n     */\n    function _calculateSingleRoyaltyAmount(uint256 diviId, uint256 tokenId)\n        internal\n        view\n        returns (uint256)\n    {\n        DividendData memory dividend = dividendDataMapping[diviId];\n        TreasuryContract treasuryContract = TreasuryContract(\n            TREASURY_CONTRACT_ADDRESS\n        );\n\n        uint256 tokenBal = treasuryContract.balanceOfAt(\n            msg.sender,\n            dividend.snapshotId,\n            tokenId\n        );\n\n        return dividend.dividendPerTokenWei * tokenBal;\n    }\n\n    /**\n     * @dev\n     */\n    function _getNewClaimIndex(uint256[] memory dividendIdArray, address user)\n        public\n        view\n        returns (uint256)\n    {\n        if (dividendIdArray.length == 0) {\n            return 0;\n        }\n\n        uint256 low = 0;\n        uint256 high = dividendIdArray.length;\n        uint256 lastClaimedDividendId = 0;\n        while (low < high) {\n            uint256 mid = Math.average(low, high);\n            lastClaimedDividendId = dividendIdArray[mid];\n            bool claimStatus = dividendClaimMapping[lastClaimedDividendId][\n                user\n            ];\n\n            //If claimStatus is false then it means that there are some elements that are yet to be claimed so we will go\n            //down and search there\n            if (!claimStatus && high != mid) {\n                high = mid;\n            } else {\n                low = mid + 1;\n            }\n        }\n\n        if (\n            low > 0 &&\n            dividendClaimMapping[dividendIdArray[low - 1]][user] == false\n        ) return low - 1;\n        else if (dividendClaimMapping[dividendIdArray[low]][user] == true)\n            return low + 1;\n        else return low;\n    }\n\n    // // This is map based on recordId => user address => Divided Amount to claim\n    // mapping(uint256 => mapping(address => uint256)) divedendMapping;\n\n    // // 1 => usera add => 0\n\n    // /**\n    //  * @dev This function is for testing purpose for distributing the royalty payment\n    //  */\n    // function payAmount(\n    //     address[] calldata addressArray,\n    //     uint256 amount,\n    //     uint256 tokenId\n    // ) public returns (uint256) {\n    //     TreasuryContract treasuryContract = TreasuryContract(\n    //         TREASURY_CONTRACT_ADDRESS\n    //     );\n    //     uint256 totalSupply = treasuryContract.totalCirculatingSupply(tokenId);\n    //     uint256 perUser = amount / totalSupply;\n    //     // uint256 totalWIthUsers = 0;\n    //     for (uint256 i = 0; i < addressArray.length; i++) {\n    //         treasuryContract.safeTransferFrom(\n    //             msg.sender,\n    //             addressArray[i],\n    //             tokenId,\n    //             perUser,\n    //             \"Reward\"\n    //         );\n    //         // totalWIthUsers += treasuryContract.balanceOf(\n    //         //     addressArray[i],\n    //         //     tokenId\n    //         // );\n    //     }\n    //     // require(\n    //     //     totalSupply == totalWIthUsers,\n    //     //     \"The user address array is not comprehensive\"\n    //     // );\n    // }\n\n    function onERC1155Received(\n        address operator,\n        address from,\n        uint256 id,\n        uint256 value,\n        bytes calldata data\n    ) external virtual returns (bytes4) {\n        return\n            bytes4(\n                keccak256(\n                    \"onERC1155Received(address,address,uint256,uint256,bytes)\"\n                )\n            );\n    }\n\n    function onERC1155BatchReceived(\n        address operator,\n        address from,\n        uint256[] calldata ids,\n        uint256[] calldata values,\n        bytes calldata data\n    ) external virtual returns (bytes4) {\n        return\n            bytes4(\n                keccak256(\n                    \"onERC1155BatchReceived(address,address,uint256[],uint256[],bytes)\"\n                )\n            );\n    }\n}\n",
  "sourcePath": "/Users/a1/Desktop/Office/projects/CrowdRecords/Contracts/contracts/AgreementContract.sol",
  "compiler": {
    "name": "solc",
    "version": "0.8.12+commit.f00d7308.Emscripten.clang"
  },
  "schemaVersion": "3.4.6",
  "updatedAt": "2022-06-23T08:30:38.141Z",
  "devdoc": {
    "events": {
      "AgreementVoting(address,uint256,uint256,bool)": {
        "details": "This is when a user votes for a publishing agreement",
        "params": {
          "agreementId": "This is the id of the publishing agreement that is linked to this ballot ",
          "ballotId": "Id of the ballot where voting is stored",
          "vote": "State of vote : true for yes and false for No",
          "voter": "Address of the voter"
        }
      },
      "BallotResult(uint256,uint256,bool)": {
        "details": "this event is generated when result of a ballot is declared",
        "params": {
          "agreementId": "This is the id of the agreement that is linked to this ballot ",
          "ballotId": "this is the ballot Id for which result is declared ",
          "result": "this is the status of the result //either true if user won that is he received more than 66% of votes or false if user lost "
        }
      }
    },
    "kind": "dev",
    "methods": {
      "castVoteForAgreement(uint256,bool)": {
        "details": "This function is called by any user to cast vote",
        "params": {
          "agreementId": "this is the id of the agreement for which user is voting",
          "vote": "this is the state of the vote, if true than it means the vote is in favour of the ballot"
        }
      },
      "claimRoyaltyAmount(uint256)": {
        "details": "This function is for testing purpose for distributing the royalty payment"
      },
      "createAgreement(uint256,string,string)": {
        "details": "This function will create a new agreement voting ballot"
      },
      "declareWinner(uint256)": {
        "details": "This function can be called from external source and also from within the contract",
        "params": {
          "agreementId": "this is the id of the agreement of which the winner is to be decleared"
        }
      },
      "payRoyaltyAmount(uint256,uint256)": {
        "details": "This function is for testing purpose for distributing the royalty payment"
      },
      "setOrderContractAddress(address)": {
        "details": "This function sets the treasury Contract address"
      },
      "setTreasuryContractAddress(address)": {
        "details": "This function sets the treasury Contract address"
      },
      "transferRoyaltyPayment(uint256)": {
        "details": "This function can be called from external source and also from within the contract",
        "params": {
          "agreementId": "this is the id of the agreement of which the winner is to be declared"
        }
      }
    },
    "version": 1
  },
  "userdoc": {
    "kind": "user",
    "methods": {},
    "version": 1
  }
}