{
  "contractName": "AgreementContract",
  "abi": [
    {
      "inputs": [
        {
          "internalType": "uint8",
          "name": "votingInterval",
          "type": "uint8"
        },
        {
          "internalType": "address",
          "name": "owner",
          "type": "address"
        }
      ],
      "stateMutability": "nonpayable",
      "type": "constructor"
    },
    {
      "anonymous": false,
      "inputs": [
        {
          "indexed": false,
          "internalType": "uint256",
          "name": "agreementId",
          "type": "uint256"
        },
        {
          "indexed": false,
          "internalType": "uint256",
          "name": "ballotId",
          "type": "uint256"
        },
        {
          "indexed": false,
          "internalType": "bool",
          "name": "result",
          "type": "bool"
        },
        {
          "indexed": false,
          "internalType": "bool",
          "name": "minTurnOut",
          "type": "bool"
        }
      ],
      "name": "AgreementBallotResult",
      "type": "event"
    },
    {
      "anonymous": false,
      "inputs": [
        {
          "indexed": false,
          "internalType": "address",
          "name": "requester",
          "type": "address"
        },
        {
          "indexed": false,
          "internalType": "string",
          "name": "title",
          "type": "string"
        },
        {
          "indexed": false,
          "internalType": "uint256",
          "name": "recordId",
          "type": "uint256"
        },
        {
          "indexed": false,
          "internalType": "uint256",
          "name": "agreementId",
          "type": "uint256"
        },
        {
          "indexed": false,
          "internalType": "uint256",
          "name": "ballotId",
          "type": "uint256"
        },
        {
          "indexed": false,
          "internalType": "uint256",
          "name": "tokenId",
          "type": "uint256"
        },
        {
          "indexed": false,
          "internalType": "string",
          "name": "contractLink",
          "type": "string"
        },
        {
          "indexed": false,
          "internalType": "string",
          "name": "contractHash",
          "type": "string"
        },
        {
          "indexed": false,
          "internalType": "uint256",
          "name": "creationTime",
          "type": "uint256"
        },
        {
          "indexed": false,
          "internalType": "bool",
          "name": "isPresent",
          "type": "bool"
        },
        {
          "indexed": false,
          "internalType": "uint256",
          "name": "depositAmount",
          "type": "uint256"
        },
        {
          "indexed": false,
          "internalType": "uint256",
          "name": "votingEndBlock",
          "type": "uint256"
        }
      ],
      "name": "AgreementCreated",
      "type": "event"
    },
    {
      "anonymous": false,
      "inputs": [
        {
          "indexed": false,
          "internalType": "address",
          "name": "voter",
          "type": "address"
        },
        {
          "indexed": false,
          "internalType": "uint256",
          "name": "agreementId",
          "type": "uint256"
        },
        {
          "indexed": false,
          "internalType": "uint256",
          "name": "ballotId",
          "type": "uint256"
        },
        {
          "indexed": false,
          "internalType": "bool",
          "name": "vote",
          "type": "bool"
        }
      ],
      "name": "AgreementVoting",
      "type": "event"
    },
    {
      "anonymous": false,
      "inputs": [
        {
          "indexed": false,
          "internalType": "uint8",
          "name": "version",
          "type": "uint8"
        }
      ],
      "name": "Initialized",
      "type": "event"
    },
    {
      "anonymous": false,
      "inputs": [
        {
          "indexed": false,
          "internalType": "uint256",
          "name": "agreementId",
          "type": "uint256"
        },
        {
          "indexed": false,
          "internalType": "uint256",
          "name": "recordId",
          "type": "uint256"
        },
        {
          "indexed": false,
          "internalType": "uint256",
          "name": "totalSupplyWei",
          "type": "uint256"
        },
        {
          "indexed": false,
          "internalType": "uint256",
          "name": "royaltyAmountWei",
          "type": "uint256"
        },
        {
          "indexed": false,
          "internalType": "uint256",
          "name": "royaltyId",
          "type": "uint256"
        },
        {
          "indexed": false,
          "internalType": "uint256",
          "name": "tokenId",
          "type": "uint256"
        },
        {
          "indexed": false,
          "internalType": "uint256",
          "name": "royaltyPerTokenWei",
          "type": "uint256"
        },
        {
          "indexed": false,
          "internalType": "uint256",
          "name": "snapshotId",
          "type": "uint256"
        }
      ],
      "name": "RoyaltyPayment",
      "type": "event"
    },
    {
      "anonymous": false,
      "inputs": [
        {
          "indexed": false,
          "internalType": "uint256",
          "name": "agreementId",
          "type": "uint256"
        },
        {
          "indexed": false,
          "internalType": "uint256",
          "name": "royaltyId",
          "type": "uint256"
        },
        {
          "indexed": false,
          "internalType": "uint256",
          "name": "recordId",
          "type": "uint256"
        },
        {
          "indexed": false,
          "internalType": "uint256",
          "name": "rewardAmount",
          "type": "uint256"
        },
        {
          "indexed": false,
          "internalType": "address",
          "name": "userAddress",
          "type": "address"
        }
      ],
      "name": "RoyaltyPaymentClaimed",
      "type": "event"
    },
    {
      "inputs": [],
      "name": "GOVERNANCE",
      "outputs": [
        {
          "internalType": "address",
          "name": "",
          "type": "address"
        }
      ],
      "stateMutability": "view",
      "type": "function",
      "constant": true
    },
    {
      "inputs": [],
      "name": "MIN_TURNOUT_PERCENT",
      "outputs": [
        {
          "internalType": "uint256",
          "name": "",
          "type": "uint256"
        }
      ],
      "stateMutability": "view",
      "type": "function",
      "constant": true
    },
    {
      "inputs": [],
      "name": "OWNER",
      "outputs": [
        {
          "internalType": "address",
          "name": "",
          "type": "address"
        }
      ],
      "stateMutability": "view",
      "type": "function",
      "constant": true
    },
    {
      "inputs": [],
      "name": "TREASURY_CONTRACT_ADDRESS",
      "outputs": [
        {
          "internalType": "address",
          "name": "",
          "type": "address"
        }
      ],
      "stateMutability": "view",
      "type": "function",
      "constant": true
    },
    {
      "inputs": [],
      "name": "TREASURY_CORE_CONTRACT_ADDRESS",
      "outputs": [
        {
          "internalType": "address",
          "name": "",
          "type": "address"
        }
      ],
      "stateMutability": "view",
      "type": "function",
      "constant": true
    },
    {
      "inputs": [],
      "name": "TREASURY_HUB_ADDRESS",
      "outputs": [
        {
          "internalType": "address",
          "name": "",
          "type": "address"
        }
      ],
      "stateMutability": "view",
      "type": "function",
      "constant": true
    },
    {
      "inputs": [],
      "name": "VOTING_BLOCK_PERIOD",
      "outputs": [
        {
          "internalType": "uint256",
          "name": "",
          "type": "uint256"
        }
      ],
      "stateMutability": "view",
      "type": "function",
      "constant": true
    },
    {
      "inputs": [],
      "name": "VOTING_DEPOSIT",
      "outputs": [
        {
          "internalType": "uint256",
          "name": "",
          "type": "uint256"
        }
      ],
      "stateMutability": "view",
      "type": "function",
      "constant": true
    },
    {
      "inputs": [
        {
          "internalType": "address",
          "name": "user",
          "type": "address"
        },
        {
          "internalType": "uint256",
          "name": "tokenId",
          "type": "uint256"
        },
        {
          "internalType": "uint256",
          "name": "previousBalance",
          "type": "uint256"
        },
        {
          "internalType": "uint256",
          "name": "newBalance",
          "type": "uint256"
        }
      ],
      "name": "_handleUserTokenTransfers",
      "outputs": [],
      "stateMutability": "nonpayable",
      "type": "function"
    },
    {
      "inputs": [],
      "name": "agreementCurrentId",
      "outputs": [
        {
          "internalType": "uint256",
          "name": "",
          "type": "uint256"
        }
      ],
      "stateMutability": "view",
      "type": "function",
      "constant": true
    },
    {
      "inputs": [
        {
          "internalType": "uint256",
          "name": "",
          "type": "uint256"
        }
      ],
      "name": "agreementMap",
      "outputs": [
        {
          "internalType": "address",
          "name": "requester",
          "type": "address"
        },
        {
          "internalType": "string",
          "name": "title",
          "type": "string"
        },
        {
          "internalType": "uint256",
          "name": "recordId",
          "type": "uint256"
        },
        {
          "internalType": "uint256",
          "name": "ballotId",
          "type": "uint256"
        },
        {
          "internalType": "uint256",
          "name": "tokenId",
          "type": "uint256"
        },
        {
          "internalType": "bool",
          "name": "isActive",
          "type": "bool"
        },
        {
          "internalType": "string",
          "name": "contractLink",
          "type": "string"
        },
        {
          "internalType": "string",
          "name": "contractHash",
          "type": "string"
        },
        {
          "internalType": "uint256",
          "name": "creationTime",
          "type": "uint256"
        },
        {
          "internalType": "bool",
          "name": "isPresent",
          "type": "bool"
        }
      ],
      "stateMutability": "view",
      "type": "function",
      "constant": true
    },
    {
      "inputs": [],
      "name": "crdTokenContract",
      "outputs": [
        {
          "internalType": "contract IERC20",
          "name": "",
          "type": "address"
        }
      ],
      "stateMutability": "view",
      "type": "function",
      "constant": true
    },
    {
      "inputs": [
        {
          "internalType": "uint256",
          "name": "",
          "type": "uint256"
        }
      ],
      "name": "depositMap",
      "outputs": [
        {
          "internalType": "address",
          "name": "owner",
          "type": "address"
        },
        {
          "internalType": "uint256",
          "name": "ballotId",
          "type": "uint256"
        },
        {
          "internalType": "uint256",
          "name": "depositAmount",
          "type": "uint256"
        },
        {
          "internalType": "bool",
          "name": "isClaimed",
          "type": "bool"
        },
        {
          "internalType": "bool",
          "name": "isPresent",
          "type": "bool"
        }
      ],
      "stateMutability": "view",
      "type": "function",
      "constant": true
    },
    {
      "inputs": [
        {
          "internalType": "uint256",
          "name": "",
          "type": "uint256"
        },
        {
          "internalType": "uint256",
          "name": "",
          "type": "uint256"
        }
      ],
      "name": "recordAgreementList",
      "outputs": [
        {
          "internalType": "uint256",
          "name": "",
          "type": "uint256"
        }
      ],
      "stateMutability": "view",
      "type": "function",
      "constant": true
    },
    {
      "inputs": [
        {
          "internalType": "uint256",
          "name": "",
          "type": "uint256"
        },
        {
          "internalType": "address",
          "name": "",
          "type": "address"
        }
      ],
      "name": "royaltyClaimMapping",
      "outputs": [
        {
          "internalType": "bool",
          "name": "",
          "type": "bool"
        }
      ],
      "stateMutability": "view",
      "type": "function",
      "constant": true
    },
    {
      "inputs": [
        {
          "internalType": "uint256",
          "name": "",
          "type": "uint256"
        }
      ],
      "name": "royaltyDataMapping",
      "outputs": [
        {
          "internalType": "uint256",
          "name": "totalSupplyWei",
          "type": "uint256"
        },
        {
          "internalType": "uint256",
          "name": "royaltyAmountWei",
          "type": "uint256"
        },
        {
          "internalType": "uint256",
          "name": "royaltyId",
          "type": "uint256"
        },
        {
          "internalType": "uint256",
          "name": "tokenId",
          "type": "uint256"
        },
        {
          "internalType": "uint256",
          "name": "royaltyPerTokenWei",
          "type": "uint256"
        },
        {
          "internalType": "uint256",
          "name": "snapshotId",
          "type": "uint256"
        }
      ],
      "stateMutability": "view",
      "type": "function",
      "constant": true
    },
    {
      "inputs": [
        {
          "internalType": "uint256",
          "name": "",
          "type": "uint256"
        },
        {
          "internalType": "uint256",
          "name": "",
          "type": "uint256"
        }
      ],
      "name": "royaltyListMapping",
      "outputs": [
        {
          "internalType": "uint256",
          "name": "",
          "type": "uint256"
        }
      ],
      "stateMutability": "view",
      "type": "function",
      "constant": true
    },
    {
      "inputs": [
        {
          "internalType": "uint256",
          "name": "depositAmount",
          "type": "uint256"
        }
      ],
      "name": "setDepositAmount",
      "outputs": [],
      "stateMutability": "nonpayable",
      "type": "function"
    },
    {
      "inputs": [
        {
          "internalType": "uint256",
          "name": "minTurnOut",
          "type": "uint256"
        }
      ],
      "name": "setMinTurnOut",
      "outputs": [],
      "stateMutability": "nonpayable",
      "type": "function"
    },
    {
      "inputs": [
        {
          "internalType": "address",
          "name": "ownerAddress",
          "type": "address"
        }
      ],
      "name": "setOwnerAddress",
      "outputs": [],
      "stateMutability": "nonpayable",
      "type": "function"
    },
    {
      "inputs": [
        {
          "internalType": "uint256",
          "name": "votingPeriod",
          "type": "uint256"
        }
      ],
      "name": "setVotingPeriod",
      "outputs": [],
      "stateMutability": "nonpayable",
      "type": "function"
    },
    {
      "inputs": [],
      "name": "treasuryContract",
      "outputs": [
        {
          "internalType": "contract ITreasury",
          "name": "",
          "type": "address"
        }
      ],
      "stateMutability": "view",
      "type": "function",
      "constant": true
    },
    {
      "inputs": [],
      "name": "treasuryCoreContract",
      "outputs": [
        {
          "internalType": "contract ITreasuryCore",
          "name": "",
          "type": "address"
        }
      ],
      "stateMutability": "view",
      "type": "function",
      "constant": true
    },
    {
      "inputs": [
        {
          "internalType": "uint256",
          "name": "",
          "type": "uint256"
        }
      ],
      "name": "votingMap",
      "outputs": [
        {
          "internalType": "address",
          "name": "owner",
          "type": "address"
        },
        {
          "internalType": "uint256",
          "name": "yesWeight",
          "type": "uint256"
        },
        {
          "internalType": "uint256",
          "name": "yesCount",
          "type": "uint256"
        },
        {
          "internalType": "uint256",
          "name": "noWeight",
          "type": "uint256"
        },
        {
          "internalType": "uint256",
          "name": "noCount",
          "type": "uint256"
        },
        {
          "internalType": "uint256",
          "name": "tokenId",
          "type": "uint256"
        },
        {
          "internalType": "uint256",
          "name": "votingEndBlock",
          "type": "uint256"
        },
        {
          "internalType": "bool",
          "name": "isResultDeclared",
          "type": "bool"
        },
        {
          "internalType": "bool",
          "name": "canOwnerVote",
          "type": "bool"
        },
        {
          "internalType": "bool",
          "name": "isPresent",
          "type": "bool"
        }
      ],
      "stateMutability": "view",
      "type": "function",
      "constant": true
    },
    {
      "inputs": [
        {
          "internalType": "address",
          "name": "newTreasuryContractAddress",
          "type": "address"
        },
        {
          "internalType": "address",
          "name": "newGovernanceContractAddress",
          "type": "address"
        }
      ],
      "name": "initialize",
      "outputs": [],
      "stateMutability": "nonpayable",
      "type": "function"
    },
    {
      "inputs": [
        {
          "internalType": "address",
          "name": "newTreasuryContractAddress",
          "type": "address"
        },
        {
          "internalType": "address",
          "name": "newTreasuryCoreContractAddress",
          "type": "address"
        },
        {
          "internalType": "address",
          "name": "newCrdTokenContractAddress",
          "type": "address"
        },
        {
          "internalType": "address",
          "name": "newGovernanceContractAddress",
          "type": "address"
        }
      ],
      "name": "initialize",
      "outputs": [],
      "stateMutability": "nonpayable",
      "type": "function"
    },
    {
      "inputs": [
        {
          "internalType": "uint256",
          "name": "recordId",
          "type": "uint256"
        },
        {
          "internalType": "string",
          "name": "title",
          "type": "string"
        },
        {
          "internalType": "string",
          "name": "contractLink",
          "type": "string"
        },
        {
          "internalType": "string",
          "name": "contractHash",
          "type": "string"
        },
        {
          "internalType": "address payable",
          "name": "platformWallet",
          "type": "address"
        },
        {
          "internalType": "uint256",
          "name": "platformFee",
          "type": "uint256"
        }
      ],
      "name": "createAgreement",
      "outputs": [
        {
          "internalType": "uint256",
          "name": "",
          "type": "uint256"
        }
      ],
      "stateMutability": "payable",
      "type": "function",
      "payable": true
    },
    {
      "inputs": [
        {
          "internalType": "uint256",
          "name": "agreementId",
          "type": "uint256"
        },
        {
          "internalType": "bool",
          "name": "vote",
          "type": "bool"
        }
      ],
      "name": "castVoteForAgreement",
      "outputs": [],
      "stateMutability": "nonpayable",
      "type": "function"
    },
    {
      "inputs": [
        {
          "internalType": "uint256",
          "name": "agreementId",
          "type": "uint256"
        }
      ],
      "name": "declareWinner",
      "outputs": [],
      "stateMutability": "nonpayable",
      "type": "function"
    },
    {
      "inputs": [
        {
          "internalType": "uint256",
          "name": "agreementId",
          "type": "uint256"
        },
        {
          "internalType": "uint256",
          "name": "amount",
          "type": "uint256"
        }
      ],
      "name": "payRoyaltyAmount",
      "outputs": [],
      "stateMutability": "nonpayable",
      "type": "function"
    },
    {
      "inputs": [
        {
          "internalType": "uint256",
          "name": "agreementId",
          "type": "uint256"
        }
      ],
      "name": "claimRoyaltyAmount",
      "outputs": [],
      "stateMutability": "nonpayable",
      "type": "function"
    },
    {
      "inputs": [
        {
          "internalType": "address",
          "name": "operator",
          "type": "address"
        },
        {
          "internalType": "address",
          "name": "from",
          "type": "address"
        },
        {
          "internalType": "uint256",
          "name": "id",
          "type": "uint256"
        },
        {
          "internalType": "uint256",
          "name": "value",
          "type": "uint256"
        },
        {
          "internalType": "bytes",
          "name": "data",
          "type": "bytes"
        }
      ],
      "name": "onERC1155Received",
      "outputs": [
        {
          "internalType": "bytes4",
          "name": "",
          "type": "bytes4"
        }
      ],
      "stateMutability": "nonpayable",
      "type": "function"
    },
    {
      "inputs": [
        {
          "internalType": "address",
          "name": "operator",
          "type": "address"
        },
        {
          "internalType": "address",
          "name": "from",
          "type": "address"
        },
        {
          "internalType": "uint256[]",
          "name": "ids",
          "type": "uint256[]"
        },
        {
          "internalType": "uint256[]",
          "name": "values",
          "type": "uint256[]"
        },
        {
          "internalType": "bytes",
          "name": "data",
          "type": "bytes"
        }
      ],
      "name": "onERC1155BatchReceived",
      "outputs": [
        {
          "internalType": "bytes4",
          "name": "",
          "type": "bytes4"
        }
      ],
      "stateMutability": "nonpayable",
      "type": "function"
    }
  ],
  "bytecode": "0x6080604052662386f26fc1000060015560196002556101f460035560006009556000600f5560006012553480156200003657600080fd5b506040516200412c3803806200412c833981016040819052620000599162000085565b600780546001600160a01b0319166001600160a01b039290921691909117905560ff16600255620000d4565b600080604083850312156200009957600080fd5b825160ff81168114620000ab57600080fd5b60208401519092506001600160a01b0381168114620000c957600080fd5b809150509250929050565b61404880620000e46000396000f3fe6080604052600436106101fd5760003560e01c80637cdef9ed1161011d578063bc197c81116100b0578063f765c7401161007f578063fac2eb3811610064578063fac2eb381461087b578063fcd2d3f71461088e578063ffad66b0146108bb57600080fd5b8063f765c74014610845578063f8c8765e1461085b57600080fd5b8063bc197c8114610746578063e1f2e084146107bf578063ea0217cf146107df578063f23a6e61146107ff57600080fd5b8063abb7ed7f116100ec578063abb7ed7f146106a3578063acb31493146106c3578063af59dc4b146106f0578063bac613551461071057600080fd5b80637cdef9ed1461058b57806383b0b071146105b8578063879253a3146106605780638d2ae1f71461067657600080fd5b80634bb06697116101955780636c83244a116101645780636c83244a146104b85780636d8cee56146104ce5780636dbf4d71146104ee578063787344201461050e57600080fd5b80634bb06697146103595780634f2941b414610379578063556bed3a1461039957806363e249c1146103c657600080fd5b806328ce4073116101d157806328ce4073146102d5578063331a6bf51461030357806333e0ea2e14610323578063485cc9551461033957600080fd5b8062c2943c14610202578063117803e314610224578063146278341461027b57806318da0011146102a8575b600080fd5b34801561020e57600080fd5b5061022261021d36600461374a565b610906565b005b34801561023057600080fd5b506007546102519073ffffffffffffffffffffffffffffffffffffffff1681565b60405173ffffffffffffffffffffffffffffffffffffffff90911681526020015b60405180910390f35b34801561028757600080fd5b506008546102519073ffffffffffffffffffffffffffffffffffffffff1681565b3480156102b457600080fd5b506005546102519073ffffffffffffffffffffffffffffffffffffffff1681565b3480156102e157600080fd5b506102f56102f0366004613763565b610a1d565b604051908152602001610272565b34801561030f57600080fd5b5061022261031e3660046137aa565b610a4e565b34801561032f57600080fd5b506102f560035481565b34801561034557600080fd5b506102226103543660046137ce565b610b41565b34801561036557600080fd5b50610222610374366004613815565b610c38565b34801561038557600080fd5b5061022261039436600461374a565b610cb1565b3480156103a557600080fd5b506016546102519073ffffffffffffffffffffffffffffffffffffffff1681565b3480156103d257600080fd5b506104516103e136600461374a565b600a602052600090815260409020805460018201546002830154600384015460048501546005860154600687015460079097015473ffffffffffffffffffffffffffffffffffffffff909616969495939492939192909160ff80821691610100810482169162010000909104168a565b6040805173ffffffffffffffffffffffffffffffffffffffff909b168b5260208b0199909952978901969096526060880194909452608087019290925260a086015260c0850152151560e08401521515610100830152151561012082015261014001610272565b3480156104c457600080fd5b506102f560025481565b3480156104da57600080fd5b506102226104e936600461374a565b6111d6565b3480156104fa57600080fd5b50610222610509366004613763565b61125c565b34801561051a57600080fd5b5061055e61052936600461374a565b601460205260009081526040902080546001820154600283015460038401546004850154600590950154939492939192909186565b604080519687526020870195909552938501929092526060840152608083015260a082015260c001610272565b34801561059757600080fd5b506018546102519073ffffffffffffffffffffffffffffffffffffffff1681565b3480156105c457600080fd5b5061061d6105d336600461374a565b600d60205260009081526040902080546001820154600283015460039093015473ffffffffffffffffffffffffffffffffffffffff90921692909160ff8082169161010090041685565b6040805173ffffffffffffffffffffffffffffffffffffffff9096168652602086019490945292840191909152151560608301521515608082015260a001610272565b34801561066c57600080fd5b506102f560015481565b34801561068257600080fd5b506006546102519073ffffffffffffffffffffffffffffffffffffffff1681565b3480156106af57600080fd5b506102226106be36600461383a565b611877565b3480156106cf57600080fd5b506004546102519073ffffffffffffffffffffffffffffffffffffffff1681565b3480156106fc57600080fd5b506102f561070b366004613763565b611a35565b34801561071c57600080fd5b5061073061072b36600461374a565b611a51565b6040516102729a999897969594939291906138e0565b34801561075257600080fd5b5061078e610761366004613a01565b7fbc197c819b3e337a6f9652dd10becd7eef83032af3b9d958d3d42f669414662198975050505050505050565b6040517fffffffff000000000000000000000000000000000000000000000000000000009091168152602001610272565b3480156107cb57600080fd5b506102226107da36600461374a565b611c59565b3480156107eb57600080fd5b506102226107fa36600461374a565b611cdf565b34801561080b57600080fd5b5061078e61081a366004613ac0565b7ff23a6e612e1ff4830e658fe43f4e3cb4a5f8170bd5d9e69fb5d7a7fa9e4fdf979695505050505050565b34801561085157600080fd5b506102f5600f5481565b34801561086757600080fd5b50610222610876366004613b3c565b611d65565b6102f5610889366004613c72565b6120a5565b34801561089a57600080fd5b506017546102519073ffffffffffffffffffffffffffffffffffffffff1681565b3480156108c757600080fd5b506108f66108d6366004613d21565b601560209081526000928352604080842090915290825290205460ff1681565b6040519015158152602001610272565b600081815260106020526040812060030154819061092390612481565b60008581526010602052604090206003015491935091506109439061279f565b6000838152601060209081526040918290206003015482518681529182015283151581830152821515606082015290517f7aafea4a4f6a4f9f9ad7a354b04810b2f69a8c3bbcc64445d7db721cb1dd4a799181900360800190a181156109e257600083815260106020526040902060050180547fffffffffffffffffffffffffffffffffffffffffffffffffffffffffffffff00166001179055505050565b5050600090815260106020526040902060050180547fffffffffffffffffffffffffffffffffffffffffffffffffffffffffffffff00169055565b60136020528160005260406000208181548110610a3957600080fd5b90600052602060002001600091509150505481565b60075473ffffffffffffffffffffffffffffffffffffffff163314610afa576040517f08c379a000000000000000000000000000000000000000000000000000000000815260206004820152602360248201527f554e415554484f52495a45443a2043414e4e4f545f504552464f524d5f41435460448201527f494f4e000000000000000000000000000000000000000000000000000000000060648201526084015b60405180910390fd5b600780547fffffffffffffffffffffffff00000000000000000000000000000000000000001673ffffffffffffffffffffffffffffffffffffffff92909216919091179055565b600054610100900460ff16610bd8576040517f08c379a000000000000000000000000000000000000000000000000000000000815260206004820152602b60248201527f496e697469616c697a61626c653a20636f6e7472616374206973206e6f74206960448201527f6e697469616c697a696e670000000000000000000000000000000000000000006064820152608401610af1565b6004805473ffffffffffffffffffffffffffffffffffffffff9384167fffffffffffffffffffffffff0000000000000000000000000000000000000000918216811790925560058054821690921790915560088054929093169116179055565b600082815260106020526040902060030154610c549082612980565b60008281526010602090815260409182902060030154825132815291820185905281830152821515606082015290517f58c55264235888a4eedc6caf417ce400bc31fd1bc88d383c1e66eed7c7ba10e89181900360800190a15050565b600081815260136020908152604080832080548251818502810185019093528083529192909190830182828015610d0757602002820191906000526020600020905b815481526020019060010190808311610cf3575b50505060008581526010602052604090206002015483519394509215159150610d8e9050576040517f08c379a000000000000000000000000000000000000000000000000000000000815260206004820152601360248201527f4e4f5f524f59414c54595f5041594d454e5453000000000000000000000000006044820152606401610af1565b6000610d9a8333612c61565b905082518110610e06576040517f08c379a000000000000000000000000000000000000000000000000000000000815260206004820152601160248201527f4e4f5f50454e44494e475f434c41494d530000000000000000000000000000006044820152606401610af1565b6005546040517f2d4a03820000000000000000000000000000000000000000000000000000000081526004810184905260009173ffffffffffffffffffffffffffffffffffffffff1690632d4a038290602401602060405180830381865afa158015610e76573d6000803e3d6000fd5b505050506040513d601f19601f82011682018060405250810190610e9a9190613d46565b9050600060156000868581518110610eb457610eb4613d5f565b6020908102919091018101518252818101929092526040908101600090812033825290925290205460ff1615610f46576040517f08c379a000000000000000000000000000000000000000000000000000000000815260206004820152601c60248201527f494e56414c49443a2043414e5f4f4e4c595f434c41494d5f4f4e4345000000006044820152606401610af1565b8451831015611062576000610f74868581518110610f6657610f66613d5f565b602002602001015184612e2d565b90507f1d67da1c3ada568cf614ff7e83491fefffc26ad6fea8d77eadf2bf63b980537687878681518110610faa57610faa613d5f565b602090810291909101810151604080519384529183015281018790526060810183905233608082015260a00160405180910390a16000868581518110610ff257610ff2613d5f565b60209081029190910181015160008181526015835260408082203383529093529190912080547fffffffffffffffffffffffffffffffffffffffffffffffffffffffffffffff00166001179055905061104b8383613dbd565b92505050828061105a90613dd5565b935050610f46565b601754600554604080517fe6acd9b8000000000000000000000000000000000000000000000000000000008152905173ffffffffffffffffffffffffffffffffffffffff9384169363f242432a9330933393919092169163e6acd9b89160048083019260209291908290030181865afa1580156110e3573d6000803e3d6000fd5b505050506040513d601f19601f820116820180604052508101906111079190613d46565b6040517fffffffff0000000000000000000000000000000000000000000000000000000060e086901b16815273ffffffffffffffffffffffffffffffffffffffff938416600482015292909116602483015260448201526064810184905260a06084820152602060a48201527f494e56414c49443a20524f59414c54595f414c52454144595f434c41494d454460c482015260e401600060405180830381600087803b1580156111b657600080fd5b505af11580156111ca573d6000803e3d6000fd5b50505050505050505050565b60085473ffffffffffffffffffffffffffffffffffffffff163314611257576040517f08c379a000000000000000000000000000000000000000000000000000000000815260206004820152601d60248201527f554e415554484f52495a45443a204f4e4c595f474f5645524e414e43450000006044820152606401610af1565b600155565b60008281526010602052604090206005015460ff166112d7576040517f08c379a000000000000000000000000000000000000000000000000000000000815260206004820152601560248201527f494e56414c49443a2041475245454d454e545f494400000000000000000000006044820152606401610af1565b60008111611341576040517f08c379a000000000000000000000000000000000000000000000000000000000815260206004820152601460248201527f494e56414c49443a20414d4f554e545f5a45524f0000000000000000000000006044820152606401610af1565b600082815260106020526040812060020154601280549192600192611367908490613dbd565b90915550506005546040517f2d4a03820000000000000000000000000000000000000000000000000000000081526004810183905260009173ffffffffffffffffffffffffffffffffffffffff1690632d4a038290602401602060405180830381865afa1580156113dc573d6000803e3d6000fd5b505050506040513d601f19601f820116820180604052508101906114009190613d46565b6005546040517f036c22ad0000000000000000000000000000000000000000000000000000000081526004810183905291925060009173ffffffffffffffffffffffffffffffffffffffff9091169063036c22ad90602401602060405180830381865afa158015611475573d6000803e3d6000fd5b505050506040513d601f19601f820116820180604052508101906114999190613d46565b90506000816114b086670de0b6b3a7640000613e0e565b6114ba9190613e4b565b90506000811161154c576040517f08c379a000000000000000000000000000000000000000000000000000000000815260206004820152602860248201527f494e53554646494349454e545f414d4f554e543a204e4545445f47524541544560448201527f525f414d4f554e540000000000000000000000000000000000000000000000006064820152608401610af1565b60006040518060c001604052808481526020018781526020016012548152602001858152602001838152602001600560009054906101000a900473ffffffffffffffffffffffffffffffffffffffff1673ffffffffffffffffffffffffffffffffffffffff16639711715a6040518163ffffffff1660e01b81526004016020604051808303816000875af11580156115e8573d6000803e3d6000fd5b505050506040513d601f19601f8201168201806040525081019061160c9190613d46565b9052601754604080517fe6acd9b8000000000000000000000000000000000000000000000000000000008152905192935073ffffffffffffffffffffffffffffffffffffffff9091169163f242432a9133913091859163e6acd9b8916004808201926020929091908290030181865afa15801561168d573d6000803e3d6000fd5b505050506040513d601f19601f820116820180604052508101906116b19190613d46565b6040517fffffffff0000000000000000000000000000000000000000000000000000000060e086901b16815273ffffffffffffffffffffffffffffffffffffffff938416600482015292909116602483015260448201526064810189905260a06084820152601860a48201527f524f59414c54595f5041594d454e545f5452414e53464552000000000000000060c482015260e401600060405180830381600087803b15801561176057600080fd5b505af1158015611774573d6000803e3d6000fd5b505050507f3b1f5dd3f8c1246a4e45be7552457d70b4c9396a0d55937e01ee864eda6b7d2c8786836000015184602001518560400151866060015187608001518860a001516040516117fe989796959493929190978852602088019690965260408701949094526060860192909252608085015260a084015260c083015260e08201526101000190565b60405180910390a1600096875260136020908152604080892060128054825460018181018555938d52858d200155548a526014835298819020835181559183015198820198909855968101516002880155606081015160038801556080810151600488015560a001516005909601959095555050505050565b73ffffffffffffffffffffffffffffffffffffffff84166000908152600e60205260408120905b8154811015611a2d57600a60008383815481106118bd576118bd613d5f565b6000918252602080832090910154835282019290925260400190206007015460ff16151560011480611920575043600a600084848154811061190157611901613d5f565b9060005260206000200154815260200190815260200160002060060154105b156119b9578154829061193590600190613e86565b8154811061194557611945613d5f565b906000526020600020015482828154811061196257611962613d5f565b90600052602060002001819055508180548061198057611980613e9d565b6001900381819060005260206000200160009055905580600014156119a757506000611a1b565b806119b181613ecc565b915050611a1b565b600a60008383815481106119cf576119cf613d5f565b9060005260206000200154815260200190815260200160002060050154851415611a1b57611a1b828281548110611a0857611a08613d5f565b9060005260206000200154878686612f5e565b80611a2581613dd5565b91505061189e565b505050505050565b60116020528160005260406000208181548110610a3957600080fd5b6010602052600090815260409020805460018201805473ffffffffffffffffffffffffffffffffffffffff9092169291611a8a90613f01565b80601f0160208091040260200160405190810160405280929190818152602001828054611ab690613f01565b8015611b035780601f10611ad857610100808354040283529160200191611b03565b820191906000526020600020905b815481529060010190602001808311611ae657829003601f168201915b50505060028401546003850154600486015460058701546006880180549798949793965091945060ff169291611b3890613f01565b80601f0160208091040260200160405190810160405280929190818152602001828054611b6490613f01565b8015611bb15780601f10611b8657610100808354040283529160200191611bb1565b820191906000526020600020905b815481529060010190602001808311611b9457829003601f168201915b505050505090806007018054611bc690613f01565b80601f0160208091040260200160405190810160405280929190818152602001828054611bf290613f01565b8015611c3f5780601f10611c1457610100808354040283529160200191611c3f565b820191906000526020600020905b815481529060010190602001808311611c2257829003601f168201915b50505050600883015460099093015491929160ff1690508a565b60085473ffffffffffffffffffffffffffffffffffffffff163314611cda576040517f08c379a000000000000000000000000000000000000000000000000000000000815260206004820152601d60248201527f554e415554484f52495a45443a204f4e4c595f474f5645524e414e43450000006044820152606401610af1565b600355565b60085473ffffffffffffffffffffffffffffffffffffffff163314611d60576040517f08c379a000000000000000000000000000000000000000000000000000000000815260206004820152601d60248201527f554e415554484f52495a45443a204f4e4c595f474f5645524e414e43450000006044820152606401610af1565b600255565b600054610100900460ff1615808015611d855750600054600160ff909116105b80611d9f5750303b158015611d9f575060005460ff166001145b611e2b576040517f08c379a000000000000000000000000000000000000000000000000000000000815260206004820152602e60248201527f496e697469616c697a61626c653a20636f6e747261637420697320616c72656160448201527f647920696e697469616c697a65640000000000000000000000000000000000006064820152608401610af1565b600080547fffffffffffffffffffffffffffffffffffffffffffffffffffffffffffffff001660011790558015611e8957600080547fffffffffffffffffffffffffffffffffffffffffffffffffffffffffffff00ff166101001790555b60075473ffffffffffffffffffffffffffffffffffffffff163314611f30576040517f08c379a000000000000000000000000000000000000000000000000000000000815260206004820152602360248201527f554e415554484f52495a45443a2043414e4e4f545f504552464f524d5f41435460448201527f494f4e00000000000000000000000000000000000000000000000000000000006064820152608401610af1565b611f3a8583610b41565b601680547fffffffffffffffffffffffff000000000000000000000000000000000000000090811673ffffffffffffffffffffffffffffffffffffffff87811691821790935560178054831682179055601880549092169286169283179091556040517f095ea7b300000000000000000000000000000000000000000000000000000000815260048101919091527fffffffffffffffffffffffffffffffffffffffffffffffffffffffffffffffff602482015263095ea7b3906044016020604051808303816000875af1158015612016573d6000803e3d6000fd5b505050506040513d601f19601f8201168201806040525081019061203a9190613f55565b50801561209e57600080547fffffffffffffffffffffffffffffffffffffffffffffffffffffffffffff00ff169055604051600181527f7f26b83ff96e1f2b6a682f133852f6798a09c465da95921460cefb38474024989060200160405180910390a15b5050505050565b600081341015612111576040517f08c379a000000000000000000000000000000000000000000000000000000000815260206004820152601e60248201527f494e563a20494e53554646494349454e545f504c4154464f524d5f46454500006044820152606401610af1565b34156121765760405173ffffffffffffffffffffffffffffffffffffffff8416908390600081818185875af1925050503d806000811461216d576040519150601f19603f3d011682016040523d82523d6000602084013e612172565b606091505b5050505b600f805490600061218683613dd5565b90915550506005546040517fd6ca40a70000000000000000000000000000000000000000000000000000000081526004810189905260009173ffffffffffffffffffffffffffffffffffffffff169063d6ca40a790602401602060405180830381865afa1580156121fb573d6000803e3d6000fd5b505050506040513d601f19601f8201168201806040525081019061221f9190613d46565b9050600061222e600183613100565b90506122443361223e8634613e86565b836132c5565b60006040518061014001604052803373ffffffffffffffffffffffffffffffffffffffff1681526020018a81526020018b81526020018381526020018481526020016000151581526020018981526020018881526020014281526020016001151581525090507ffdcc2cd9daa228f2fbec3c8d7b0f42dbaa51a75f6ee272e6118079d7f47d14c0328a8c600f5486888e8e4260018054600a60008f8152602001908152602001600020600601546040516123099c9b9a99989796959493929190613f72565b60405180910390a16000828152601060209081526040909120825181547fffffffffffffffffffffffff00000000000000000000000000000000000000001673ffffffffffffffffffffffffffffffffffffffff909116178155828201518051849361237c9260018501929101906136b1565b5060408201516002820155606082015160038201556080820151600482015560a08201516005820180547fffffffffffffffffffffffffffffffffffffffffffffffffffffffffffffff001691151591909117905560c082015180516123ec9160068401916020909101906136b1565b5060e082015180516124089160078401916020909101906136b1565b50610100820151600882015561012090910151600990910180547fffffffffffffffffffffffffffffffffffffffffffffffffffffffffffffff0016911515919091179055505050600096875250506011602090815260408620600f805482546001810184559289529290972001555050915492915050565b6000818152600a6020526040812060070154819062010000900460ff161515600114612509576040517f08c379a000000000000000000000000000000000000000000000000000000000815260206004820152601960248201527f494e56414c49443a2042414c4c4f545f4e4f545f464f554e44000000000000006044820152606401610af1565b6000838152600a60205260409020600601544311612583576040517f08c379a000000000000000000000000000000000000000000000000000000000815260206004820152601d60248201527f494e56414c49443a20564f54494e475f54494d455f4e4f545f4f5645520000006044820152606401610af1565b6000838152600a602052604090206007015460ff16156125ff576040517f08c379a000000000000000000000000000000000000000000000000000000000815260206004820181905260248201527f494e56414c49443a20524553554c545f414c52454144595f4445434c415245446044820152606401610af1565b6000838152600a602052604080822060018082015460038301546007840180547fffffffffffffffffffffffffffffffffffffffffffffffffffffffffffffff0016909317909255600580549084015494517f036c22ad000000000000000000000000000000000000000000000000000000008152939591949293919273ffffffffffffffffffffffffffffffffffffffff9091169163036c22ad916126ab9160040190815260200190565b602060405180830381865afa1580156126c8573d6000803e3d6000fd5b505050506040513d601f19601f820116820180604052508101906126ec9190613d46565b90506000606480600354846127019190613e0e565b61270b9190613e4b565b6127159190613e4b565b9050806127228585613dbd565b111561278f57831561277e576000606461273c8587613dbd565b612747906042613e0e565b6127519190613e4b565b90508085111561276c57506001988998509650505050505050565b50600098600198509650505050505050565b506000976001975095505050505050565b5060009788975095505050505050565b6000818152600d602052604090206003015460ff610100909104161515600114612825576040517f08c379a000000000000000000000000000000000000000000000000000000000815260206004820152600d60248201527f4445505f4e4f545f4558495354000000000000000000000000000000000000006044820152606401610af1565b6000818152600d602052604090206003015460ff16156128a1576040517f08c379a000000000000000000000000000000000000000000000000000000000815260206004820152601360248201527f4445505f414c52454144595f434c41494d4544000000000000000000000000006044820152606401610af1565b6000818152600d60205260408082208054600290910154915173ffffffffffffffffffffffffffffffffffffffff90911691908381818185875af1925050503d806000811461290c576040519150601f19603f3d011682016040523d82523d6000602084013e612911565b606091505b505090508061297c576040517f08c379a000000000000000000000000000000000000000000000000000000000815260206004820152600d60248201527f494e565f4445505f434c41494d000000000000000000000000000000000000006044820152606401610af1565b5050565b6000828152600a60205260409020600701548290339062010000900460ff161515600114612a0a576040517f08c379a000000000000000000000000000000000000000000000000000000000815260206004820152601960248201527f494e56414c49443a2042414c4c4f545f4e4f545f464f554e44000000000000006044820152606401610af1565b6000828152600a60205260409020600601544310612a84576040517f08c379a000000000000000000000000000000000000000000000000000000000815260206004820152601960248201527f494e56414c49443a20564f54494e475f54494d455f4f564552000000000000006044820152606401610af1565b6000828152600b6020908152604080832073ffffffffffffffffffffffffffffffffffffffff8516845290915290205460ff1615612b1e576040517f08c379a000000000000000000000000000000000000000000000000000000000815260206004820152601660248201527f494e56414c49443a20414c52454144595f564f544544000000000000000000006044820152606401610af1565b6000848152600a60205260409020600701548490610100900460ff1615612bc8576000818152600b6020908152604080832032845290915290205460ff1615612bc3576040517f08c379a000000000000000000000000000000000000000000000000000000000815260206004820152601660248201527f494e56414c49443a20414c52454144595f564f544544000000000000000000006044820152606401610af1565b612c56565b6000818152600a602052604090205473ffffffffffffffffffffffffffffffffffffffff16321415612c56576040517f08c379a000000000000000000000000000000000000000000000000000000000815260206004820152601f60248201527f554e415554484f52495a45443a204f574e45525f43414e4e4f545f564f5445006044820152606401610af1565b61209e858532613428565b6000825160001415612c7557506000612e27565b8251600090815b81831015612d215760006002612c928486613dbd565b612c9c9190613e4b565b9050868181518110612cb057612cb0613d5f565b602090810291909101810151600081815260158352604080822073ffffffffffffffffffffffffffffffffffffffff8b168352909352919091205490925060ff1680158015612cff5750818414155b15612d0c57819350612d1a565b612d17826001613dbd565b94505b5050612c7c565b600083118015612d8f57506015600087612d3c600187613e86565b81518110612d4c57612d4c613d5f565b6020908102919091018101518252818101929092526040908101600090812073ffffffffffffffffffffffffffffffffffffffff8916825290925290205460ff16155b15612da957612d9f600184613e86565b9350505050612e27565b855183108015612e11575060156000878581518110612dca57612dca613d5f565b6020908102919091018101518252818101929092526040908101600090812073ffffffffffffffffffffffffffffffffffffffff8916825290925290205460ff1615156001145b15612e2157612d9f836001613dbd565b50909150505b92915050565b6000828152601460209081526040808320815160c0810183528154815260018201549381019390935260028101548383015260038101546060840152600480820154608085015260059091015460a0840181905260175492517f626da0680000000000000000000000000000000000000000000000000000000081523392810192909252602482015260448101859052839173ffffffffffffffffffffffffffffffffffffffff169063626da06890606401602060405180830381865afa158015612efc573d6000803e3d6000fd5b505050506040513d601f19601f82011682018060405250810190612f209190613d46565b905080612f3257600092505050612e27565b670de0b6b3a7640000818360800151612f4b9190613e0e565b612f559190613e4b565b95945050505050565b6000848152600b6020908152604080832073ffffffffffffffffffffffffffffffffffffffff8716845290915290205460ff161515600114613022576040517f08c379a000000000000000000000000000000000000000000000000000000000815260206004820152602560248201527f494e56414c49443a20494e5445524e414c3a20555345525f4841535f4e4f545f60448201527f564f5445440000000000000000000000000000000000000000000000000000006064820152608401610af1565b6000848152600c6020908152604080832073ffffffffffffffffffffffffffffffffffffffff8716845290915290205460ff1680156130ad576000858152600a60205260408120600101805485929061307c908490613e86565b90915550506000858152600a6020526040812060010180548492906130a2908490613dbd565b9091555061209e9050565b6000858152600a6020526040812060030180548592906130ce908490613e86565b90915550506000858152600a6020526040812060030180548492906130f4908490613dbd565b90915550505050505050565b600980546000918261311183613dd5565b919050555060006040518061014001604052803273ffffffffffffffffffffffffffffffffffffffff16815260200160008152602001600081526020016000815260200160008152602001848152602001600254436131709190613dbd565b81526000602080830182905296151560408084019190915260016060938401819052600980548452600a8a5292829020855181547fffffffffffffffffffffffff00000000000000000000000000000000000000001673ffffffffffffffffffffffffffffffffffffffff909116178155988501519089015583015160028801559082015160038701556080820151600487015560a0820151600587015560c0820151600687015560e08201516007909601805461010080850151610120909501517fffffffffffffffffffffffffffffffffffffffffffffffffffffffffffff00009092169815157fffffffffffffffffffffffffffffffffffffffffffffffffffffffffffff00ff1698909817931515909702929092177fffffffffffffffffffffffffffffffffffffffffffffffffffffffffff00ffff16620100009615159690960295909517905550509054919050565b8160015414613330576040517f08c379a000000000000000000000000000000000000000000000000000000000815260206004820152600760248201527f494e565f444550000000000000000000000000000000000000000000000000006044820152606401610af1565b6040805160a08101825273ffffffffffffffffffffffffffffffffffffffff948516815260208082018481526001805484860190815260006060860181815260808701848152988252600d90955295909520935184547fffffffffffffffffffffffff000000000000000000000000000000000000000016981697909717835551958201959095559051600282015592516003909301805491517fffffffffffffffffffffffffffffffffffffffffffffffffffffffffffff00009092169315157fffffffffffffffffffffffffffffffffffffffffffffffffffffffffffff00ff1693909317610100911515919091021790915550565b6000838152600a60209081526040808320815161014081018352815473ffffffffffffffffffffffffffffffffffffffff908116825260018301549482019490945260028201548184015260038201546060820152600480830154608083015260058084015460a08401819052600685015460c085015260079094015460ff808216151560e08601526101008083048216151590860152620100009091041615156101208401525493517efdd58e000000000000000000000000000000000000000000000000000000008152919594939093169262fdd58e9261352e9288920173ffffffffffffffffffffffffffffffffffffffff929092168252602082015260400190565b602060405180830381865afa15801561354b573d6000803e3d6000fd5b505050506040513d601f19601f8201168201806040525081019061356f9190613d46565b905083156135ca576000858152600a602052604081206001018054839290613598908490613dbd565b90915550506000858152600a602052604081206002018054600192906135bf908490613dbd565b909155506136189050565b6000858152600a6020526040812060030180548392906135eb908490613dbd565b90915550506000858152600a60205260408120600401805460019290613612908490613dbd565b90915550505b50506000838152600b6020908152604080832073ffffffffffffffffffffffffffffffffffffffff94909416808452938252808320805460017fffffffffffffffffffffffffffffffffffffffffffffffffffffffffffffff009182168117909255878552600c8452828520958552948352818420805490951695151595909517909355600e8152918120805493840181558152200155565b8280546136bd90613f01565b90600052602060002090601f0160209004810192826136df5760008555613725565b82601f106136f857805160ff1916838001178555613725565b82800160010185558215613725579182015b8281111561372557825182559160200191906001019061370a565b50613731929150613735565b5090565b5b808211156137315760008155600101613736565b60006020828403121561375c57600080fd5b5035919050565b6000806040838503121561377657600080fd5b50508035926020909101359150565b73ffffffffffffffffffffffffffffffffffffffff811681146137a757600080fd5b50565b6000602082840312156137bc57600080fd5b81356137c781613785565b9392505050565b600080604083850312156137e157600080fd5b82356137ec81613785565b915060208301356137fc81613785565b809150509250929050565b80151581146137a757600080fd5b6000806040838503121561382857600080fd5b8235915060208301356137fc81613807565b6000806000806080858703121561385057600080fd5b843561385b81613785565b966020860135965060408601359560600135945092505050565b6000815180845260005b8181101561389b5760208185018101518683018201520161387f565b818111156138ad576000602083870101525b50601f017fffffffffffffffffffffffffffffffffffffffffffffffffffffffffffffffe0169290920160200192915050565b600061014073ffffffffffffffffffffffffffffffffffffffff8d1683528060208401526139108184018d613875565b90508a604084015289606084015288608084015287151560a084015282810360c084015261393e8188613875565b905082810360e08401526139528187613875565b61010084019590955250509015156101209091015298975050505050505050565b60008083601f84011261398557600080fd5b50813567ffffffffffffffff81111561399d57600080fd5b6020830191508360208260051b85010111156139b857600080fd5b9250929050565b60008083601f8401126139d157600080fd5b50813567ffffffffffffffff8111156139e957600080fd5b6020830191508360208285010111156139b857600080fd5b60008060008060008060008060a0898b031215613a1d57600080fd5b8835613a2881613785565b97506020890135613a3881613785565b9650604089013567ffffffffffffffff80821115613a5557600080fd5b613a618c838d01613973565b909850965060608b0135915080821115613a7a57600080fd5b613a868c838d01613973565b909650945060808b0135915080821115613a9f57600080fd5b50613aac8b828c016139bf565b999c989b5096995094979396929594505050565b60008060008060008060a08789031215613ad957600080fd5b8635613ae481613785565b95506020870135613af481613785565b94506040870135935060608701359250608087013567ffffffffffffffff811115613b1e57600080fd5b613b2a89828a016139bf565b979a9699509497509295939492505050565b60008060008060808587031215613b5257600080fd5b8435613b5d81613785565b93506020850135613b6d81613785565b92506040850135613b7d81613785565b91506060850135613b8d81613785565b939692955090935050565b7f4e487b7100000000000000000000000000000000000000000000000000000000600052604160045260246000fd5b600082601f830112613bd857600080fd5b813567ffffffffffffffff80821115613bf357613bf3613b98565b604051601f83017fffffffffffffffffffffffffffffffffffffffffffffffffffffffffffffffe0908116603f01168101908282118183101715613c3957613c39613b98565b81604052838152866020858801011115613c5257600080fd5b836020870160208301376000602085830101528094505050505092915050565b60008060008060008060c08789031215613c8b57600080fd5b86359550602087013567ffffffffffffffff80821115613caa57600080fd5b613cb68a838b01613bc7565b96506040890135915080821115613ccc57600080fd5b613cd88a838b01613bc7565b95506060890135915080821115613cee57600080fd5b50613cfb89828a01613bc7565b9350506080870135613d0c81613785565b8092505060a087013590509295509295509295565b60008060408385031215613d3457600080fd5b8235915060208301356137fc81613785565b600060208284031215613d5857600080fd5b5051919050565b7f4e487b7100000000000000000000000000000000000000000000000000000000600052603260045260246000fd5b7f4e487b7100000000000000000000000000000000000000000000000000000000600052601160045260246000fd5b60008219821115613dd057613dd0613d8e565b500190565b60007fffffffffffffffffffffffffffffffffffffffffffffffffffffffffffffffff821415613e0757613e07613d8e565b5060010190565b6000817fffffffffffffffffffffffffffffffffffffffffffffffffffffffffffffffff0483118215151615613e4657613e46613d8e565b500290565b600082613e81577f4e487b7100000000000000000000000000000000000000000000000000000000600052601260045260246000fd5b500490565b600082821015613e9857613e98613d8e565b500390565b7f4e487b7100000000000000000000000000000000000000000000000000000000600052603160045260246000fd5b600081613edb57613edb613d8e565b507fffffffffffffffffffffffffffffffffffffffffffffffffffffffffffffffff0190565b600181811c90821680613f1557607f821691505b60208210811415613f4f577f4e487b7100000000000000000000000000000000000000000000000000000000600052602260045260246000fd5b50919050565b600060208284031215613f6757600080fd5b81516137c781613807565b600061018073ffffffffffffffffffffffffffffffffffffffff8f168352806020840152613fa28184018f613875565b90508c60408401528b60608401528a60808401528960a084015282810360c0840152613fce818a613875565b905082810360e0840152613fe28189613875565b6101008401979097525050921515610120840152610140830191909152610160909101529897505050505050505056fea26469706673582212202fe7c5d96e35478d7dad69a8548e572e91d066760cddfae169ea5e07d66e2b7164736f6c634300080c0033",
  "immutableReferences": {},
  "source": "// SPDX-License-Identifier: MIT\npragma solidity ^0.8.0;\n\nimport \"./voting/BaseVotingContract.sol\";\nimport \"./interface/ITreasury.sol\";\nimport \"./interface/ITreasuryCore.sol\";\nimport \"./interface/IERC20.sol\";\n\ncontract AgreementContract is BaseVotingContract {\n    /// @dev This structure will hold the data for agreements\n    /// @param requester This is the person who has requested for the agreement\n    /// @param title This is the agreement title\n    /// @param recordId This is the record id to which the agreement belongs to\n    /// @param ballotId This is the ballot id of the agreement\n    /// @param tokenId This is the id of token using which user can vote\n    /// @param isActive This is to check if a agreement is active or not\n    /// @param contractLink This is the link of the contract file\n    /// @param contractHash This is the hash of the contract file\n    /// @param creationTime This is the creation time of the contract\n    /// @param isPresent This is to check if agreement is present or not\n    struct Agreement {\n        address requester;\n        string title;\n        uint256 recordId;\n        uint256 ballotId;\n        uint256 tokenId;\n        bool isActive;\n        string contractLink;\n        string contractHash;\n        uint256 creationTime;\n        bool isPresent;\n    }\n\n    /// @dev This event is emmited when a agreement is created.\n    /// @param requester This is the person who has requested for the agreement\n    /// @param title This is the agreement title\n    /// @param recordId This is the record id to which the agreement belongs to\n    /// @param agreementId This is the id of the agreement that was created\n    /// @param ballotId This is the ballot id of the agreement\n    /// @param tokenId This is the id of token using which user can vote\n    /// @param contractLink This is the link of the contract file\n    /// @param contractHash This is the hash of the contract file\n    /// @param creationTime This is the creation time of the contract\n    /// @param isPresent This is to check if agreement is present or not\n    /// @param depositAmount this is the amount of tokens deposited by user in order to create voting\n    /// @param votingEndBlock this is the block when the voting will end for the ballot\n    event AgreementCreated(\n        address requester,\n        string title,\n        uint256 recordId,\n        uint256 agreementId,\n        uint256 ballotId,\n        uint256 tokenId,\n        string contractLink,\n        string contractHash,\n        uint256 creationTime,\n        bool isPresent,\n        uint256 depositAmount,\n        uint256 votingEndBlock\n    );\n\n    /// @dev This evet is emitted when as royalty payment is done by a user for a royalty agreement.\n    /// @param agreementId This is the id of the agreement that was created\n    /// @param recordId This is the record id to which the agreement belongs to\n    /// @param totalSupplyWei This is the total amount of tokens that are in circulation in wei value\n    /// during the distribution was made\n    /// @param royaltyAmountWei This is the amount of royalty that has been paid by user in wei amount\n    /// @param royaltyId This is the id of royalty that has been paid\n    /// @param tokenId This is the id of tokens that will used to determine the royalty ratio (it is holding tokenid)\n    /// @param royaltyPerTokenWei This is how many wei each user will get for each token (token of \"tokenId\") he holds.\n    /// @param snapshotId This is the snapshot id when the user distributed the reward\n    event RoyaltyPayment(\n        uint256 agreementId,\n        uint256 recordId,\n        uint256 totalSupplyWei,\n        uint256 royaltyAmountWei,\n        uint256 royaltyId,\n        uint256 tokenId,\n        uint256 royaltyPerTokenWei,\n        uint256 snapshotId\n    );\n\n    /// @dev This event is emitted when a royalty payment is claimed\n    /// @param agreementId This is the id of the agreement that was created\n    /// @param royaltyId This is the id of royalty that has been paid\n    /// @param recordId This is the record id to which the agreement belongs to\n    /// @param rewardAmount This is the amount of reward that user claimed\n    /// @param userAddress Address of user who claimed the royalty payment\n    event RoyaltyPaymentClaimed(\n        uint256 agreementId,\n        uint256 royaltyId,\n        uint256 recordId,\n        uint256 rewardAmount,\n        address userAddress\n    );\n\n    /// @dev This structure holds data of each royalty payment made by user\n    /// @param totalSupplyWei This is the total amount of tokens that are in circulation in wei value\n    /// @param royaltyAmountWei This is the amount of royalty that has been paid by user in wei amount\n    /// @param royaltyId This is the id of royalty that has been paid\n    /// @param tokenId This is the id of tokens that will used to determine the royalty ratio (it is holding tokenid)\n    /// @param royaltyPerTokenWei This is how many wei each user will get for each token (token of \"tokenId\") he holds.\n    /// @param snapshotId This is the snapshot id when the user distributed the reward\n    struct RoyaltyData {\n        uint256 totalSupplyWei;\n        uint256 royaltyAmountWei;\n        uint256 royaltyId;\n        uint256 tokenId;\n        uint256 royaltyPerTokenWei;\n        uint256 snapshotId;\n    }\n\n    /// @dev This is when a user votes for a publishing agreement\n    /// @param voter Address of the voter\n    /// @param agreementId This is the id of the publishing agreement that is linked to this ballot\n    /// @param ballotId Id of the ballot where voting is stored\n    /// @param vote State of vote : true for yes and false for No\n    event AgreementVoting(\n        address voter,\n        uint256 agreementId,\n        uint256 ballotId,\n        bool vote\n    );\n\n    /// @dev this event is generated when result of a ballot is declared\n    /// @param agreementId This is the id of the agreement that is linked to this ballot\n    /// @param ballotId this is the ballot Id for which result is declared\n    /// @param result this is the status of the result either true if user won that is he received\n    /// @param minTurnOut this status indicates if minimum amount of user showed up for voting\n    ///  more than 66% of votes or false if user lost\n    event AgreementBallotResult(\n        uint256 agreementId,\n        uint256 ballotId,\n        bool result,\n        bool minTurnOut\n    );\n\n    uint256 public agreementCurrentId = 0;\n    mapping(uint256 => Agreement) public agreementMap;\n    //The below mapping contains the list of agreementId\n    // mapping works as (recordId => [agreementId])\n    mapping(uint256 => uint256[]) public recordAgreementList;\n\n    uint256 royaltyId = 0;\n    //agreementId => array of royalties\n    mapping(uint256 => uint256[]) public royaltyListMapping;\n    //Dividend id => dividend data\n    mapping(uint256 => RoyaltyData) public royaltyDataMapping;\n    //royaltyId => userAddress => bool\n    mapping(uint256 => mapping(address => bool)) public royaltyClaimMapping;\n\n    //This is for the token transfer and other core functions\n    address public TREASURY_CORE_CONTRACT_ADDRESS;\n    ITreasuryCore public treasuryCoreContract;\n\n    IERC20 public crdTokenContract;\n\n    constructor(uint8 votingInterval, address owner) BaseVotingContract(owner) {\n        VOTING_BLOCK_PERIOD = votingInterval;\n    }\n\n    /// @dev This is to set the address of the contracts\n    /// @param newTreasuryContractAddress This is the address of new treasury contract\n    /// @param newTreasuryCoreContractAddress This is the new address of treasury core contract\n    /// @param newCrdTokenContractAddress This is the new address of crd token contract\n    /// @param newGovernanceContractAddress This is the address for the governance contract\n    function initialize(\n        address newTreasuryContractAddress,\n        address newTreasuryCoreContractAddress,\n        address newCrdTokenContractAddress,\n        address newGovernanceContractAddress\n    ) public initializer _ownerOnly {\n        BaseVotingContract.initialize(\n            newTreasuryContractAddress,\n            newGovernanceContractAddress\n        );\n        TREASURY_CORE_CONTRACT_ADDRESS = newTreasuryCoreContractAddress;\n        treasuryCoreContract = ITreasuryCore(TREASURY_CORE_CONTRACT_ADDRESS);\n\n        crdTokenContract = IERC20(newCrdTokenContractAddress);\n        crdTokenContract.approve(\n            TREASURY_CORE_CONTRACT_ADDRESS,\n            0xFFFFFFFFFFFFFFFFFFFFFFFFFFFFFFFFFFFFFFFFFFFFFFFFFFFFFFFFFFFFFFFF\n        );\n    }\n\n    /// @dev This function will create a new agreement voting ballot\n    /// @param recordId this is the id of record of which we need to create agreement of\n    /// @param title This is the agreement title\n    /// @param contractLink this is the link of the agreement contract\n    /// @param contractHash this is the hash of the agreement contract file\n    /// @param platformWallet this is the UI providers wallet\n    /// @param platformFee this is the incentive amount for the UI maintainer\n    function createAgreement(\n        uint256 recordId,\n        string memory title,\n        string memory contractLink,\n        string memory contractHash,\n        address payable platformWallet,\n        uint256 platformFee\n    ) public payable returns (uint256) {\n        require(msg.value >= platformFee, \"INV: INSUFFICIENT_PLATFORM_FEE\");\n        if (msg.value > 0) {\n            platformWallet.call{value: platformFee}(\"\");\n        }\n        //Check if valid record id\n        agreementCurrentId++;\n        uint256 tokenId = treasuryContract.getGovernanceTokenId(recordId);\n\n        uint256 ballotId = _createVoting(true, tokenId);\n\n        _createDeposit(msg.sender, msg.value - platformFee, ballotId);\n\n        Agreement memory agreement = Agreement({\n            requester: msg.sender,\n            title: title,\n            recordId: recordId,\n            ballotId: ballotId,\n            tokenId: tokenId,\n            isActive: false,\n            contractLink: contractLink,\n            contractHash: contractHash,\n            creationTime: block.timestamp,\n            isPresent: true\n        });\n\n        emit AgreementCreated({\n            requester: tx.origin,\n            title: title,\n            recordId: recordId,\n            ballotId: ballotId,\n            agreementId: agreementCurrentId,\n            tokenId: tokenId,\n            contractLink: contractLink,\n            contractHash: contractHash,\n            creationTime: block.timestamp,\n            isPresent: true,\n            depositAmount: VOTING_DEPOSIT,\n            votingEndBlock: votingMap[ballotId].votingEndBlock\n        });\n\n        agreementMap[ballotId] = agreement;\n\n        recordAgreementList[recordId].push(agreementCurrentId);\n\n        return agreementCurrentId;\n    }\n\n    /// @dev This function is called by any user to cast vote\n    /// @param agreementId this is the id of the agreement for which user is voting\n    /// @param vote this is the state of the vote, if true than it means the vote is in favour of the ballot\n\n    function castVoteForAgreement(uint256 agreementId, bool vote) public {\n        super._castVote(agreementMap[agreementId].ballotId, vote);\n\n        emit AgreementVoting({\n            agreementId: agreementId,\n            ballotId: agreementMap[agreementId].ballotId,\n            voter: tx.origin,\n            vote: vote\n        });\n    }\n\n    /// @dev This function can be called from external source and also from within the contract\n    /// @param agreementId this is the id of the agreement of which the winner is to be decleared\n    function declareWinner(uint256 agreementId) external {\n        (bool result, bool minTurnOut) = _declareWinner(\n            agreementMap[agreementId].ballotId\n        );\n\n        _releaseDeposit(agreementMap[agreementId].ballotId);\n\n        emit AgreementBallotResult(\n            agreementId,\n            agreementMap[agreementId].ballotId,\n            result,\n            minTurnOut\n        );\n\n        if (result) {\n            agreementMap[agreementId].isActive = true;\n        } else {\n            agreementMap[agreementId].isActive = false;\n        }\n    }\n\n    /// @dev This function is for distributing the royalty payment\n    /// @param agreementId this is the id of the agreement of which the royalty is paid for\n    /// @param amount this is the amount of royalty is being\n    function payRoyaltyAmount(uint256 agreementId, uint256 amount) public {\n        require(agreementMap[agreementId].isActive, \"INVALID: AGREEMENT_ID\");\n        require(amount > 0, \"INVALID: AMOUNT_ZERO\");\n        uint256 recordId = agreementMap[agreementId].recordId;\n        royaltyId += 1;\n        uint256 tokenId = treasuryContract.getCommunityTokenId(recordId);\n        uint256 totalSupply = treasuryContract.totalCirculatingSupply(tokenId);\n\n        // uint256 totalSupplyEther = totalSupply / 1 ether;\n        uint256 royaltyPerTokenWei = (amount * 1 ether) / totalSupply;\n        require(\n            royaltyPerTokenWei > 0,\n            \"INSUFFICIENT_AMOUNT: NEED_GREATER_AMOUNT\"\n        );\n\n        RoyaltyData memory dividend = RoyaltyData({\n            totalSupplyWei: totalSupply,\n            royaltyAmountWei: amount,\n            royaltyId: royaltyId,\n            royaltyPerTokenWei: royaltyPerTokenWei,\n            tokenId: tokenId,\n            snapshotId: treasuryContract.snapshot()\n        });\n\n        treasuryCoreContract.safeTransferFrom(\n            msg.sender,\n            address(this),\n            treasuryCoreContract.CRD(),\n            amount,\n            \"ROYALTY_PAYMENT_TRANSFER\"\n        );\n\n        emit RoyaltyPayment({\n            agreementId: agreementId,\n            recordId: recordId,\n            totalSupplyWei: dividend.totalSupplyWei,\n            royaltyAmountWei: dividend.royaltyAmountWei,\n            royaltyId: dividend.royaltyId,\n            tokenId: dividend.tokenId,\n            royaltyPerTokenWei: dividend.royaltyPerTokenWei,\n            snapshotId: dividend.snapshotId\n        });\n\n        royaltyListMapping[agreementId].push(royaltyId);\n        royaltyDataMapping[royaltyId] = dividend;\n    }\n\n    /// @dev This function is for distributing the royalty payment\n    /// @param agreementId this is the agreement Id of which royalty is to be claimed\n    function claimRoyaltyAmount(uint256 agreementId) public {\n        uint256[] memory dividendIdArray = royaltyListMapping[agreementId];\n        uint256 recordId = agreementMap[agreementId].recordId;\n\n        require(dividendIdArray.length > 0, \"NO_ROYALTY_PAYMENTS\");\n\n        uint256 newClaimIndex = _getNewClaimIndex(dividendIdArray, msg.sender);\n        require(\n            newClaimIndex >= 0 && newClaimIndex < dividendIdArray.length,\n            \"NO_PENDING_CLAIMS\"\n        );\n\n        uint256 tokenId = treasuryContract.getCommunityTokenId(recordId);\n        uint256 totalReward = 0;\n\n        require(\n            royaltyClaimMapping[dividendIdArray[newClaimIndex]][msg.sender] ==\n                false,\n            \"INVALID: CAN_ONLY_CLAIM_ONCE\"\n        );\n\n        for (; newClaimIndex < dividendIdArray.length; newClaimIndex++) {\n            uint256 rewardAmount = _calculateSingleRoyaltyAmount(\n                dividendIdArray[newClaimIndex],\n                tokenId\n            );\n\n            emit RoyaltyPaymentClaimed({\n                royaltyId: dividendIdArray[newClaimIndex],\n                recordId: recordId,\n                agreementId: agreementId,\n                rewardAmount: rewardAmount,\n                userAddress: msg.sender\n            });\n\n            uint256 index = dividendIdArray[newClaimIndex];\n            royaltyClaimMapping[index][msg.sender] = true;\n\n            totalReward = rewardAmount + totalReward;\n        }\n\n        //If the total is not bigger then 0 then it means that user doesn't have any pending claim\n        // require(totalReward > 0, \"NO_PENDING_CLAIMS\");\n\n        /**\n            //! When you uncomment the below code then it just causes the crash without a proper reason, here we expect crash to return \"NO_PENDING_CLAIMS\" but instead it just throws error with\n            -Transaction: 0x5896b98d557a472e4f0063783b9e8bcf8ce7982de710c1c3c69c727e9989066a exited with an error (status 0) after consuming all gas.\n            -     Please check that the transaction:\n            -     - satisfies all conditions set by Solidity `assert` statements.\n            -     - has enough gas to execute the full transaction.\n            -     - does not trigger an invalid opcode by other means (ex: accessing an array out of bounds).\n       */\n        // require(false, \"NO_PENDING_CLAIMS\");\n\n        treasuryCoreContract.safeTransferFrom(\n            address(this),\n            msg.sender,\n            treasuryContract.CRD(),\n            totalReward,\n            \"INVALID: ROYALTY_ALREADY_CLAIMED\"\n        );\n    }\n\n    /// @dev This function is for testing purpose for distributing the royalty payment\n    /// @param royaltyIdParam This is the id of royalty that user wants to claim\n    /// @param tokenId this is the id of token that determines the royalty amount\n    function _calculateSingleRoyaltyAmount(\n        uint256 royaltyIdParam,\n        uint256 tokenId\n    ) internal view returns (uint256) {\n        RoyaltyData memory dividend = royaltyDataMapping[royaltyIdParam];\n\n        uint256 tokenBal = treasuryCoreContract.balanceOfAt(\n            msg.sender,\n            dividend.snapshotId,\n            tokenId\n        );\n\n        if (tokenBal == 0) {\n            return 0;\n        }\n\n        return (dividend.royaltyPerTokenWei * tokenBal) / 1 ether;\n    }\n\n    /// @dev This function calculates the royalty claim index\n    /// @param dividendIdArray This is the array of royalties for a single user\n    /// @param user this address of user whose royalty claim index needs to be identified\n    function _getNewClaimIndex(\n        uint256[] memory dividendIdArray,\n        address user\n    ) internal view returns (uint256) {\n        if (dividendIdArray.length == 0) {\n            return 0;\n        }\n\n        uint256 low = 0;\n        uint256 high = dividendIdArray.length;\n        uint256 lastClaimedDividendId = 0;\n        while (low < high) {\n            uint256 mid = (low + high) / 2;\n            lastClaimedDividendId = dividendIdArray[mid];\n            bool claimStatus = royaltyClaimMapping[lastClaimedDividendId][user];\n\n            //If claimStatus is false then it means that there are some elements that are yet to be claimed\n            //so we will go down and search there\n            if (!claimStatus && high != mid) {\n                high = mid;\n            } else {\n                low = mid + 1;\n            }\n        }\n\n        if (\n            low > 0 &&\n            royaltyClaimMapping[dividendIdArray[low - 1]][user] == false\n        ) return low - 1;\n        else if (\n            low < dividendIdArray.length &&\n            royaltyClaimMapping[dividendIdArray[low]][user] == true\n        ) return low + 1;\n        else return low;\n    }\n\n    function onERC1155Received(\n        address operator,\n        address from,\n        uint256 id,\n        uint256 value,\n        bytes calldata data\n    ) external virtual returns (bytes4) {\n        return\n            bytes4(\n                keccak256(\n                    \"onERC1155Received(address,address,uint256,uint256,bytes)\"\n                )\n            );\n    }\n\n    function onERC1155BatchReceived(\n        address operator,\n        address from,\n        uint256[] calldata ids,\n        uint256[] calldata values,\n        bytes calldata data\n    ) external virtual returns (bytes4) {\n        return\n            bytes4(\n                keccak256(\n                    \"onERC1155BatchReceived(address,address,uint256[],uint256[],bytes)\"\n                )\n            );\n    }\n}\n",
  "sourcePath": "/Users/a1/Desktop/Office/projects/CrowdRecords/Contracts/contracts/AgreementContract.sol",
  "compiler": {
    "name": "solc",
    "version": "0.8.12+commit.f00d7308.Emscripten.clang"
  },
  "schemaVersion": "3.4.6",
  "updatedAt": "2023-09-04T11:48:55.334Z",
  "networkType": "ethereum",
  "devdoc": {
    "events": {
      "AgreementBallotResult(uint256,uint256,bool,bool)": {
        "details": "this event is generated when result of a ballot is declared",
        "params": {
          "agreementId": "This is the id of the agreement that is linked to this ballot",
          "ballotId": "this is the ballot Id for which result is declared",
          "minTurnOut": "this status indicates if minimum amount of user showed up for voting  more than 66% of votes or false if user lost",
          "result": "this is the status of the result either true if user won that is he received"
        }
      },
      "AgreementCreated(address,string,uint256,uint256,uint256,uint256,string,string,uint256,bool,uint256,uint256)": {
        "details": "This event is emmited when a agreement is created.",
        "params": {
          "agreementId": "This is the id of the agreement that was created",
          "ballotId": "This is the ballot id of the agreement",
          "contractHash": "This is the hash of the contract file",
          "contractLink": "This is the link of the contract file",
          "creationTime": "This is the creation time of the contract",
          "depositAmount": "this is the amount of tokens deposited by user in order to create voting",
          "isPresent": "This is to check if agreement is present or not",
          "recordId": "This is the record id to which the agreement belongs to",
          "requester": "This is the person who has requested for the agreement",
          "title": "This is the agreement title",
          "tokenId": "This is the id of token using which user can vote",
          "votingEndBlock": "this is the block when the voting will end for the ballot"
        }
      },
      "AgreementVoting(address,uint256,uint256,bool)": {
        "details": "This is when a user votes for a publishing agreement",
        "params": {
          "agreementId": "This is the id of the publishing agreement that is linked to this ballot",
          "ballotId": "Id of the ballot where voting is stored",
          "vote": "State of vote : true for yes and false for No",
          "voter": "Address of the voter"
        }
      },
      "RoyaltyPayment(uint256,uint256,uint256,uint256,uint256,uint256,uint256,uint256)": {
        "details": "This evet is emitted when as royalty payment is done by a user for a royalty agreement.",
        "params": {
          "agreementId": "This is the id of the agreement that was created",
          "recordId": "This is the record id to which the agreement belongs to",
          "royaltyAmountWei": "This is the amount of royalty that has been paid by user in wei amount",
          "royaltyId": "This is the id of royalty that has been paid",
          "royaltyPerTokenWei": "This is how many wei each user will get for each token (token of \"tokenId\") he holds.",
          "snapshotId": "This is the snapshot id when the user distributed the reward",
          "tokenId": "This is the id of tokens that will used to determine the royalty ratio (it is holding tokenid)",
          "totalSupplyWei": "This is the total amount of tokens that are in circulation in wei value during the distribution was made"
        }
      },
      "RoyaltyPaymentClaimed(uint256,uint256,uint256,uint256,address)": {
        "details": "This event is emitted when a royalty payment is claimed",
        "params": {
          "agreementId": "This is the id of the agreement that was created",
          "recordId": "This is the record id to which the agreement belongs to",
          "rewardAmount": "This is the amount of reward that user claimed",
          "royaltyId": "This is the id of royalty that has been paid",
          "userAddress": "Address of user who claimed the royalty payment"
        }
      }
    },
    "kind": "dev",
    "methods": {
      "_handleUserTokenTransfers(address,uint256,uint256,uint256)": {
        "details": "This function will be called when either user is transferring the tokens to other account, or is receiving tokens from other tokens.",
        "params": {
          "newBalance": "this is the new balance of the user that is after the transfer",
          "previousBalance": "this is the old balance of the user",
          "user": "address of the user whose balance is being changed"
        }
      },
      "castVoteForAgreement(uint256,bool)": {
        "details": "This function is called by any user to cast vote",
        "params": {
          "agreementId": "this is the id of the agreement for which user is voting",
          "vote": "this is the state of the vote, if true than it means the vote is in favour of the ballot"
        }
      },
      "claimRoyaltyAmount(uint256)": {
        "details": "This function is for distributing the royalty payment",
        "params": {
          "agreementId": "this is the agreement Id of which royalty is to be claimed"
        }
      },
      "createAgreement(uint256,string,string,string,address,uint256)": {
        "details": "This function will create a new agreement voting ballot",
        "params": {
          "contractHash": "this is the hash of the agreement contract file",
          "contractLink": "this is the link of the agreement contract",
          "platformFee": "this is the incentive amount for the UI maintainer",
          "platformWallet": "this is the UI providers wallet",
          "recordId": "this is the id of record of which we need to create agreement of",
          "title": "This is the agreement title"
        }
      },
      "declareWinner(uint256)": {
        "details": "This function can be called from external source and also from within the contract",
        "params": {
          "agreementId": "this is the id of the agreement of which the winner is to be decleared"
        }
      },
      "initialize(address,address)": {
        "details": "This function sets the treasury Contract address and the governance address",
        "params": {
          "newGovernanceContractAddress": "This is the address for the governance contract",
          "newTreasuryContractAddress": "This is the new address of treasury contract"
        }
      },
      "initialize(address,address,address,address)": {
        "details": "This is to set the address of the contracts",
        "params": {
          "newCrdTokenContractAddress": "This is the new address of crd token contract",
          "newGovernanceContractAddress": "This is the address for the governance contract",
          "newTreasuryContractAddress": "This is the address of new treasury contract",
          "newTreasuryCoreContractAddress": "This is the new address of treasury core contract"
        }
      },
      "payRoyaltyAmount(uint256,uint256)": {
        "details": "This function is for distributing the royalty payment",
        "params": {
          "agreementId": "this is the id of the agreement of which the royalty is paid for",
          "amount": "this is the amount of royalty is being"
        }
      },
      "setDepositAmount(uint256)": {
        "details": "This function sets the VOTING_DEPOSIT percentage",
        "params": {
          "depositAmount": "This is the new deposit amount needed for creating ballot"
        }
      },
      "setMinTurnOut(uint256)": {
        "details": "This function sets the MIN_TURN_OUT percentage",
        "params": {
          "minTurnOut": "This is the new turnout percentage value"
        }
      },
      "setOwnerAddress(address)": {
        "details": "This function sets the owner address",
        "params": {
          "ownerAddress": "This is the address of the owner"
        }
      },
      "setVotingPeriod(uint256)": {
        "details": "This function sets the VOTING_BLOCK_PERIOD percentage",
        "params": {
          "votingPeriod": "This is the voting period"
        }
      }
    },
    "version": 1
  },
  "userdoc": {
    "kind": "user",
    "methods": {},
    "version": 1
  }
}