{
  "contractName": "AgreementContract",
  "abi": [
    {
      "inputs": [
        {
          "internalType": "uint8",
          "name": "votingInterval",
          "type": "uint8"
        }
      ],
      "stateMutability": "nonpayable",
      "type": "constructor"
    },
    {
      "anonymous": false,
      "inputs": [
        {
          "indexed": false,
          "internalType": "address",
          "name": "requester",
          "type": "address"
        },
        {
          "indexed": false,
          "internalType": "uint256",
          "name": "recordId",
          "type": "uint256"
        },
        {
          "indexed": false,
          "internalType": "uint256",
          "name": "agreementId",
          "type": "uint256"
        },
        {
          "indexed": false,
          "internalType": "uint256",
          "name": "ballotId",
          "type": "uint256"
        },
        {
          "indexed": false,
          "internalType": "uint256",
          "name": "tokenId",
          "type": "uint256"
        },
        {
          "indexed": false,
          "internalType": "string",
          "name": "contractLink",
          "type": "string"
        },
        {
          "indexed": false,
          "internalType": "string",
          "name": "contractHash",
          "type": "string"
        },
        {
          "indexed": false,
          "internalType": "uint256",
          "name": "creationTime",
          "type": "uint256"
        },
        {
          "indexed": false,
          "internalType": "bool",
          "name": "isPresent",
          "type": "bool"
        }
      ],
      "name": "AgreementCreated",
      "type": "event"
    },
    {
      "anonymous": false,
      "inputs": [
        {
          "indexed": false,
          "internalType": "address",
          "name": "voter",
          "type": "address"
        },
        {
          "indexed": false,
          "internalType": "uint256",
          "name": "agreementId",
          "type": "uint256"
        },
        {
          "indexed": false,
          "internalType": "uint256",
          "name": "ballotId",
          "type": "uint256"
        },
        {
          "indexed": false,
          "internalType": "bool",
          "name": "vote",
          "type": "bool"
        }
      ],
      "name": "AgreementVoting",
      "type": "event"
    },
    {
      "anonymous": false,
      "inputs": [
        {
          "indexed": false,
          "internalType": "uint256",
          "name": "agreementId",
          "type": "uint256"
        },
        {
          "indexed": false,
          "internalType": "uint256",
          "name": "ballotId",
          "type": "uint256"
        },
        {
          "indexed": false,
          "internalType": "bool",
          "name": "result",
          "type": "bool"
        }
      ],
      "name": "BallotResult",
      "type": "event"
    },
    {
      "anonymous": false,
      "inputs": [
        {
          "indexed": false,
          "internalType": "address",
          "name": "contractAddress",
          "type": "address"
        },
        {
          "indexed": false,
          "internalType": "uint256",
          "name": "previousBal",
          "type": "uint256"
        },
        {
          "indexed": false,
          "internalType": "uint256",
          "name": "nextBal",
          "type": "uint256"
        }
      ],
      "name": "DEBUG2",
      "type": "event"
    },
    {
      "anonymous": false,
      "inputs": [
        {
          "indexed": false,
          "internalType": "uint256",
          "name": "agreementId",
          "type": "uint256"
        },
        {
          "indexed": false,
          "internalType": "uint256",
          "name": "recordId",
          "type": "uint256"
        },
        {
          "indexed": false,
          "internalType": "uint256",
          "name": "totalSupplyEther",
          "type": "uint256"
        },
        {
          "indexed": false,
          "internalType": "uint256",
          "name": "dividendAmountWei",
          "type": "uint256"
        },
        {
          "indexed": false,
          "internalType": "uint256",
          "name": "dividendId",
          "type": "uint256"
        },
        {
          "indexed": false,
          "internalType": "uint256",
          "name": "tokenId",
          "type": "uint256"
        },
        {
          "indexed": false,
          "internalType": "uint256",
          "name": "dividendPerTokenWei",
          "type": "uint256"
        },
        {
          "indexed": false,
          "internalType": "uint256",
          "name": "snapshotId",
          "type": "uint256"
        }
      ],
      "name": "RoyaltyPayment",
      "type": "event"
    },
    {
      "anonymous": false,
      "inputs": [
        {
          "indexed": false,
          "internalType": "uint256",
          "name": "agreementId",
          "type": "uint256"
        },
        {
          "indexed": false,
          "internalType": "uint256",
          "name": "dividendId",
          "type": "uint256"
        },
        {
          "indexed": false,
          "internalType": "uint256",
          "name": "recordId",
          "type": "uint256"
        },
        {
          "indexed": false,
          "internalType": "uint256",
          "name": "rewardAmount",
          "type": "uint256"
        },
        {
          "indexed": false,
          "internalType": "address",
          "name": "userAddress",
          "type": "address"
        }
      ],
      "name": "RoyaltyPaymentClaimed",
      "type": "event"
    },
    {
      "inputs": [],
      "name": "TREASURY_CONTRACT_ADDRESS",
      "outputs": [
        {
          "internalType": "address",
          "name": "",
          "type": "address"
        }
      ],
      "stateMutability": "view",
      "type": "function"
    },
    {
      "inputs": [],
      "name": "TREASURY_HUB_ADDRESS",
      "outputs": [
        {
          "internalType": "address",
          "name": "",
          "type": "address"
        }
      ],
      "stateMutability": "view",
      "type": "function"
    },
    {
      "inputs": [
        {
          "internalType": "address",
          "name": "user",
          "type": "address"
        },
        {
          "internalType": "uint256",
          "name": "tokenId",
          "type": "uint256"
        },
        {
          "internalType": "uint256",
          "name": "previousBalance",
          "type": "uint256"
        },
        {
          "internalType": "uint256",
          "name": "newBalance",
          "type": "uint256"
        }
      ],
      "name": "_handleUserTokenTransfers",
      "outputs": [],
      "stateMutability": "nonpayable",
      "type": "function"
    },
    {
      "inputs": [],
      "name": "agreementCurrentId",
      "outputs": [
        {
          "internalType": "uint256",
          "name": "",
          "type": "uint256"
        }
      ],
      "stateMutability": "view",
      "type": "function"
    },
    {
      "inputs": [
        {
          "internalType": "address",
          "name": "newTreasuryContractAddress",
          "type": "address"
        }
      ],
      "name": "setTreasuryContractAddress",
      "outputs": [],
      "stateMutability": "nonpayable",
      "type": "function"
    },
    {
      "inputs": [
        {
          "internalType": "uint256",
          "name": "recordId",
          "type": "uint256"
        },
        {
          "internalType": "string",
          "name": "contractLink",
          "type": "string"
        },
        {
          "internalType": "string",
          "name": "contractHash",
          "type": "string"
        }
      ],
      "name": "createAgreement",
      "outputs": [
        {
          "internalType": "uint256",
          "name": "",
          "type": "uint256"
        }
      ],
      "stateMutability": "nonpayable",
      "type": "function"
    },
    {
      "inputs": [
        {
          "internalType": "uint256",
          "name": "agreementId",
          "type": "uint256"
        },
        {
          "internalType": "bool",
          "name": "vote",
          "type": "bool"
        }
      ],
      "name": "castVoteForAgreement",
      "outputs": [],
      "stateMutability": "nonpayable",
      "type": "function"
    },
    {
      "inputs": [
        {
          "internalType": "uint256",
          "name": "agreementId",
          "type": "uint256"
        }
      ],
      "name": "declareWinner",
      "outputs": [],
      "stateMutability": "nonpayable",
      "type": "function"
    },
    {
      "inputs": [
        {
          "internalType": "uint256",
          "name": "agreementId",
          "type": "uint256"
        },
        {
          "internalType": "uint256",
          "name": "amount",
          "type": "uint256"
        }
      ],
      "name": "payRoyaltyAmount",
      "outputs": [],
      "stateMutability": "nonpayable",
      "type": "function"
    },
    {
      "inputs": [
        {
          "internalType": "uint256",
          "name": "agreementId",
          "type": "uint256"
        }
      ],
      "name": "claimRoyaltyAmount",
      "outputs": [],
      "stateMutability": "nonpayable",
      "type": "function"
    },
    {
      "inputs": [
        {
          "internalType": "address",
          "name": "operator",
          "type": "address"
        },
        {
          "internalType": "address",
          "name": "from",
          "type": "address"
        },
        {
          "internalType": "uint256",
          "name": "id",
          "type": "uint256"
        },
        {
          "internalType": "uint256",
          "name": "value",
          "type": "uint256"
        },
        {
          "internalType": "bytes",
          "name": "data",
          "type": "bytes"
        }
      ],
      "name": "onERC1155Received",
      "outputs": [
        {
          "internalType": "bytes4",
          "name": "",
          "type": "bytes4"
        }
      ],
      "stateMutability": "nonpayable",
      "type": "function"
    },
    {
      "inputs": [
        {
          "internalType": "address",
          "name": "operator",
          "type": "address"
        },
        {
          "internalType": "address",
          "name": "from",
          "type": "address"
        },
        {
          "internalType": "uint256[]",
          "name": "ids",
          "type": "uint256[]"
        },
        {
          "internalType": "uint256[]",
          "name": "values",
          "type": "uint256[]"
        },
        {
          "internalType": "bytes",
          "name": "data",
          "type": "bytes"
        }
      ],
      "name": "onERC1155BatchReceived",
      "outputs": [
        {
          "internalType": "bytes4",
          "name": "",
          "type": "bytes4"
        }
      ],
      "stateMutability": "nonpayable",
      "type": "function"
    }
  ],
  "bytecode": "0x60806040526019600055600060045560006009556000600c553480156200002557600080fd5b5060405162003a0e38038062003a0e83398181016040528101906200004b9190620000e0565b33600360006101000a81548173ffffffffffffffffffffffffffffffffffffffff021916908373ffffffffffffffffffffffffffffffffffffffff1602179055508060ff166000819055505062000112565b600080fd5b600060ff82169050919050565b620000ba81620000a2565b8114620000c657600080fd5b50565b600081519050620000da81620000af565b92915050565b600060208284031215620000f957620000f86200009d565b5b60006200010984828501620000c9565b91505092915050565b6138ec80620001226000396000f3fe608060405234801561001057600080fd5b50600436106100b35760003560e01c80638d2ae1f7116100715780638d2ae1f714610174578063abb7ed7f14610192578063acb31493146101ae578063bc197c81146101cc578063f23a6e61146101fc578063f765c7401461022c576100b3565b8062c2943c146100b85780634bb06697146100d45780634cf2d48f146100f05780634f2941b41461010c57806356725449146101285780636dbf4d7114610158575b600080fd5b6100d260048036038101906100cd9190612551565b61024a565b005b6100ee60048036038101906100e991906125b6565b61032c565b005b61010a60048036038101906101059190612654565b6103a3565b005b61012660048036038101906101219190612551565b61043f565b005b610142600480360381019061013d91906127c7565b6108e4565b60405161014f9190612861565b60405180910390f35b610172600480360381019061016d919061287c565b610bab565b005b61017c611057565b60405161018991906128cb565b60405180910390f35b6101ac60048036038101906101a791906128e6565b61107d565b005b6101b66112b1565b6040516101c391906128cb565b60405180910390f35b6101e660048036038101906101e19190612a03565b6112d7565b6040516101f39190612b1a565b60405180910390f35b61021660048036038101906102119190612b35565b611308565b6040516102239190612b1a565b60405180910390f35b610234611337565b6040516102419190612861565b60405180910390f35b600061026b600a60008481526020019081526020016000206002015461133d565b90507fb8a8a92b56f183482e31ed93ed60da7274c03a6bc11b2c0e75cec8ff5a8058f282600a600085815260200190815260200160002060020154836040516102b693929190612bde565b60405180910390a180156102f8576001600a600084815260200190815260200160002060040160006101000a81548160ff021916908315150217905550610328565b6000600a600084815260200190815260200160002060040160006101000a81548160ff0219169083151502179055505b5050565b61034c600a600084815260200190815260200160002060020154826115ba565b7f58c55264235888a4eedc6caf417ce400bc31fd1bc88d383c1e66eed7c7ba10e83283600a600086815260200190815260200160002060020154846040516103979493929190612c15565b60405180910390a15050565b600360009054906101000a900473ffffffffffffffffffffffffffffffffffffffff1673ffffffffffffffffffffffffffffffffffffffff163373ffffffffffffffffffffffffffffffffffffffff1614610433576040517f08c379a000000000000000000000000000000000000000000000000000000000815260040161042a90612cdd565b60405180910390fd5b61043c816118ad565b50565b6000600d600083815260200190815260200160002080548060200260200160405190810160405280929190818152602001828054801561049e57602002820191906000526020600020905b81548152602001906001019080831161048a575b505050505090506000600a60008481526020019081526020016000206001015490506000825111610504576040517f08c379a00000000000000000000000000000000000000000000000000000000081526004016104fb90612d49565b60405180910390fd5b60006105108333611981565b9050600081101580156105235750825181105b610562576040517f08c379a000000000000000000000000000000000000000000000000000000000815260040161055990612db5565b60405180910390fd5b6000600160009054906101000a900473ffffffffffffffffffffffffffffffffffffffff16905060008173ffffffffffffffffffffffffffffffffffffffff16632d4a0382856040518263ffffffff1660e01b81526004016105c49190612861565b602060405180830381865afa1580156105e1573d6000803e3d6000fd5b505050506040513d601f19601f820116820180604052508101906106059190612dea565b90506000801515600f600088878151811061062357610622612e17565b5b6020026020010151815260200190815260200160002060003373ffffffffffffffffffffffffffffffffffffffff1673ffffffffffffffffffffffffffffffffffffffff16815260200190815260200160002060009054906101000a900460ff161515146106c6576040517f08c379a00000000000000000000000000000000000000000000000000000000081526004016106bd90612e92565b60405180910390fd5b5b85518410156107fc5760006106f68786815181106106e8576106e7612e17565b5b602002602001015184611bcd565b90507f1d67da1c3ada568cf614ff7e83491fefffc26ad6fea8d77eadf2bf63b98053768888878151811061072d5761072c612e17565b5b6020026020010151888433604051610749959493929190612eb2565b60405180910390a1600087868151811061076657610765612e17565b5b602002602001015190506001600f600083815260200190815260200160002060003373ffffffffffffffffffffffffffffffffffffffff1673ffffffffffffffffffffffffffffffffffffffff16815260200190815260200160002060006101000a81548160ff02191690831515021790555082826107e59190612f34565b9250505083806107f490612f8a565b9450506106c7565b8273ffffffffffffffffffffffffffffffffffffffff1663f242432a30338673ffffffffffffffffffffffffffffffffffffffff1663e6acd9b86040518163ffffffff1660e01b8152600401602060405180830381865afa158015610865573d6000803e3d6000fd5b505050506040513d601f19601f820116820180604052508101906108899190612dea565b856040518563ffffffff1660e01b81526004016108a99493929190613030565b600060405180830381600087803b1580156108c357600080fd5b505af11580156108d7573d6000803e3d6000fd5b5050505050505050505050565b6000600960008154809291906108f990612f8a565b9190505550600060095490506000600160009054906101000a900473ffffffffffffffffffffffffffffffffffffffff16905060008173ffffffffffffffffffffffffffffffffffffffff1663d6ca40a7886040518263ffffffff1660e01b81526004016109679190612861565b602060405180830381865afa158015610984573d6000803e3d6000fd5b505050506040513d601f19601f820116820180604052508101906109a89190612dea565b905060006109b7600183611d1d565b905060006040518061012001604052803273ffffffffffffffffffffffffffffffffffffffff1681526020018a81526020018381526020018481526020016000151581526020018981526020018881526020014281526020016001151581525090507f57d13d9edad9c4b3d196ecf74d48472a6aee66860677e6af4039187ea280d22b328a8785878d8d426001604051610a59999897969594939291906130ff565b60405180910390a180600a600084815260200190815260200160002060008201518160000160006101000a81548173ffffffffffffffffffffffffffffffffffffffff021916908373ffffffffffffffffffffffffffffffffffffffff16021790555060208201518160010155604082015181600201556060820151816003015560808201518160040160006101000a81548160ff02191690831515021790555060a0820151816005019080519060200190610b16929190612464565b5060c0820151816006019080519060200190610b33929190612464565b5060e082015181600701556101008201518160080160006101000a81548160ff021916908315150217905550905050600b60008a815260200190815260200160002085908060018154018082558091505060019003906000526020600020016000909190919091505584955050505050509392505050565b600a600083815260200190815260200160002060040160009054906101000a900460ff16610c0e576040517f08c379a0000000000000000000000000000000000000000000000000000000008152600401610c05906131e6565b60405180910390fd5b6000600a60008481526020019081526020016000206001015490506001600c6000828254610c3c9190612f34565b925050819055506000600160009054906101000a900473ffffffffffffffffffffffffffffffffffffffff16905060008173ffffffffffffffffffffffffffffffffffffffff16632d4a0382846040518263ffffffff1660e01b8152600401610ca59190612861565b602060405180830381865afa158015610cc2573d6000803e3d6000fd5b505050506040513d601f19601f82011682018060405250810190610ce69190612dea565b905060008273ffffffffffffffffffffffffffffffffffffffff1663036c22ad836040518263ffffffff1660e01b8152600401610d239190612861565b602060405180830381865afa158015610d40573d6000803e3d6000fd5b505050506040513d601f19601f82011682018060405250810190610d649190612dea565b90508273ffffffffffffffffffffffffffffffffffffffff1663f242432a33308673ffffffffffffffffffffffffffffffffffffffff1663e6acd9b86040518163ffffffff1660e01b8152600401602060405180830381865afa158015610dcf573d6000803e3d6000fd5b505050506040513d601f19601f82011682018060405250810190610df39190612dea565b896040518563ffffffff1660e01b8152600401610e139493929190613252565b600060405180830381600087803b158015610e2d57600080fd5b505af1158015610e41573d6000803e3d6000fd5b5050505060006040518060c00160405280670de0b6b3a764000084610e6691906132d9565b8152602001878152602001600c548152602001848152602001670de0b6b3a764000084610e9391906132d9565b88610e9e91906132d9565b81526020018573ffffffffffffffffffffffffffffffffffffffff16639711715a6040518163ffffffff1660e01b81526004016020604051808303816000875af1158015610ef0573d6000803e3d6000fd5b505050506040513d601f19601f82011682018060405250810190610f149190612dea565b81525090506000816080015111610f60576040517f08c379a0000000000000000000000000000000000000000000000000000000008152600401610f579061337c565b60405180910390fd5b7f3b1f5dd3f8c1246a4e45be7552457d70b4c9396a0d55937e01ee864eda6b7d2c8786836000015184602001518560400151866060015187608001518860a00151604051610fb598979695949392919061339c565b60405180910390a1600d6000888152602001908152602001600020600c54908060018154018082558091505060019003906000526020600020016000909190919091505580600e6000600c548152602001908152602001600020600082015181600001556020820151816001015560408201518160020155606082015181600301556080820151816004015560a0820151816005015590505050505050505050565b600260009054906101000a900473ffffffffffffffffffffffffffffffffffffffff1681565b7fce745f624257e308d136e6727da2d12784ad0063921f5d7c5f379685d6c63e363083836040516110b09392919061341a565b60405180910390a16000600860008673ffffffffffffffffffffffffffffffffffffffff1673ffffffffffffffffffffffffffffffffffffffff168152602001908152602001600020905060005b81805490508110156112a957600115156005600084848154811061112557611124612e17565b5b9060005260206000200154815260200190815260200160002060070160009054906101000a900460ff161515148061118f575043600560008484815481106111705761116f612e17565b5b9060005260206000200154815260200190815260200160002060060154105b156112305781600183805490506111a69190613451565b815481106111b7576111b6612e17565b5b90600052602060002001548282815481106111d5576111d4612e17565b5b9060005260206000200181905550818054806111f4576111f3613485565b5b60019003818190600052602060002001600090559055600081141561121c576000905061122b565b8080611227906134b4565b9150505b611296565b6005600083838154811061124757611246612e17565b5b90600052602060002001548152602001908152602001600020600501548514156112955761129482828154811061128157611280612e17565b5b9060005260206000200154878686611eba565b5b5b80806112a190612f8a565b9150506110fe565b505050505050565b600160009054906101000a900473ffffffffffffffffffffffffffffffffffffffff1681565b60007fbc197c819b3e337a6f9652dd10becd7eef83032af3b9d958d3d42f6694146621905098975050505050505050565b60007ff23a6e612e1ff4830e658fe43f4e3cb4a5f8170bd5d9e69fb5d7a7fa9e4fdf9790509695505050505050565b60095481565b6000600115156005600084815260200190815260200160002060070160029054906101000a900460ff161515146113a9576040517f08c379a00000000000000000000000000000000000000000000000000000000081526004016113a09061352a565b60405180910390fd5b43600560008481526020019081526020016000206006015410611401576040517f08c379a00000000000000000000000000000000000000000000000000000000081526004016113f890613596565b60405180910390fd5b600015156005600084815260200190815260200160002060070160009054906101000a900460ff1615151461146b576040517f08c379a000000000000000000000000000000000000000000000000000000000815260040161146290613602565b60405180910390fd5b60006005600084815260200190815260200160002090506000816001015490506000600160009054906101000a900473ffffffffffffffffffffffffffffffffffffffff16905060016005600087815260200190815260200160002060070160006101000a81548160ff02191690831515021790555060008211156115ad5760008173ffffffffffffffffffffffffffffffffffffffff1663036c22ad85600501546040518263ffffffff1660e01b81526004016115299190612861565b602060405180830381865afa158015611546573d6000803e3d6000fd5b505050506040513d601f19601f8201168201806040525081019061156a9190612dea565b90506000606460428361157d9190613622565b61158791906132d9565b90508084111561159f576001955050505050506115b5565b6000955050505050506115b5565b600093505050505b919050565b8133600115156005600084815260200190815260200160002060070160029054906101000a900460ff16151514611626576040517f08c379a000000000000000000000000000000000000000000000000000000000815260040161161d9061352a565b60405180910390fd5b4360056000848152602001908152602001600020600601541161167e576040517f08c379a0000000000000000000000000000000000000000000000000000000008152600401611675906136c8565b60405180910390fd5b600015156006600084815260200190815260200160002060008373ffffffffffffffffffffffffffffffffffffffff1673ffffffffffffffffffffffffffffffffffffffff16815260200190815260200160002060009054906101000a900460ff16151514611722576040517f08c379a000000000000000000000000000000000000000000000000000000000815260040161171990613734565b60405180910390fd5b836005600082815260200190815260200160002060070160019054906101000a900460ff16156117f557600015156006600083815260200190815260200160002060003273ffffffffffffffffffffffffffffffffffffffff1673ffffffffffffffffffffffffffffffffffffffff16815260200190815260200160002060009054906101000a900460ff161515146117f0576040517f08c379a00000000000000000000000000000000000000000000000000000000081526004016117e790613734565b60405180910390fd5b61189b565b6005600082815260200190815260200160002060000160009054906101000a900473ffffffffffffffffffffffffffffffffffffffff1673ffffffffffffffffffffffffffffffffffffffff163273ffffffffffffffffffffffffffffffffffffffff16141561189a576040517f08c379a0000000000000000000000000000000000000000000000000000000008152600401611891906137a0565b60405180910390fd5b5b6118a6858532612087565b5050505050565b600360009054906101000a900473ffffffffffffffffffffffffffffffffffffffff1673ffffffffffffffffffffffffffffffffffffffff163373ffffffffffffffffffffffffffffffffffffffff161461193d576040517f08c379a000000000000000000000000000000000000000000000000000000000815260040161193490612cdd565b60405180910390fd5b80600160006101000a81548173ffffffffffffffffffffffffffffffffffffffff021916908373ffffffffffffffffffffffffffffffffffffffff16021790555050565b600080835114156119955760009050611bc7565b6000808451905060005b81831015611a665760006119b3848461243e565b90508681815181106119c8576119c7612e17565b5b602002602001015191506000600f600084815260200190815260200160002060008873ffffffffffffffffffffffffffffffffffffffff1673ffffffffffffffffffffffffffffffffffffffff16815260200190815260200160002060009054906101000a900460ff16905080158015611a425750818414155b15611a4f57819350611a5f565b600182611a5c9190612f34565b94505b505061199f565b600083118015611afd575060001515600f600088600187611a879190613451565b81518110611a9857611a97612e17565b5b6020026020010151815260200190815260200160002060008773ffffffffffffffffffffffffffffffffffffffff1673ffffffffffffffffffffffffffffffffffffffff16815260200190815260200160002060009054906101000a900460ff161515145b15611b1957600183611b0f9190613451565b9350505050611bc7565b855183108015611ba4575060011515600f6000888681518110611b3f57611b3e612e17565b5b6020026020010151815260200190815260200160002060008773ffffffffffffffffffffffffffffffffffffffff1673ffffffffffffffffffffffffffffffffffffffff16815260200190815260200160002060009054906101000a900460ff161515145b15611bc057600183611bb69190612f34565b9350505050611bc7565b8293505050505b92915050565b600080600e60008581526020019081526020016000206040518060c0016040529081600082015481526020016001820154815260200160028201548152602001600382015481526020016004820154815260200160058201548152505090506000600160009054906101000a900473ffffffffffffffffffffffffffffffffffffffff16905060008173ffffffffffffffffffffffffffffffffffffffff1663626da068338560a00151886040518463ffffffff1660e01b8152600401611c969392919061341a565b602060405180830381865afa158015611cb3573d6000803e3d6000fd5b505050506040513d601f19601f82011682018060405250810190611cd79190612dea565b90506000811415611cee5760009350505050611d17565b670de0b6b3a764000081611d0291906132d9565b8360800151611d119190613622565b93505050505b92915050565b600060046000815480929190611d3290612f8a565b919050555060006040518061014001604052803273ffffffffffffffffffffffffffffffffffffffff1681526020016000815260200160008152602001600081526020016000815260200184815260200160005443611d919190612f34565b815260200160001515815260200185151581526020016001151581525090508060056000600454815260200190815260200160002060008201518160000160006101000a81548173ffffffffffffffffffffffffffffffffffffffff021916908373ffffffffffffffffffffffffffffffffffffffff1602179055506020820151816001015560408201518160020155606082015181600301556080820151816004015560a0820151816005015560c0820151816006015560e08201518160070160006101000a81548160ff0219169083151502179055506101008201518160070160016101000a81548160ff0219169083151502179055506101208201518160070160026101000a81548160ff02191690831515021790555090505060045491505092915050565b600115156006600086815260200190815260200160002060008573ffffffffffffffffffffffffffffffffffffffff1673ffffffffffffffffffffffffffffffffffffffff16815260200190815260200160002060009054906101000a900460ff16151514611f5e576040517f08c379a0000000000000000000000000000000000000000000000000000000008152600401611f559061380c565b60405180910390fd5b60006007600086815260200190815260200160002060008573ffffffffffffffffffffffffffffffffffffffff1673ffffffffffffffffffffffffffffffffffffffff16815260200190815260200160002060009054906101000a900460ff16905080156120255782600560008781526020019081526020016000206001016000828254611fec9190613451565b92505081905550816005600087815260200190815260200160002060010160008282546120199190612f34565b92505081905550612080565b8260056000878152602001908152602001600020600301600082825461204b9190613451565b92505081905550816005600087815260200190815260200160002060030160008282546120789190612f34565b925050819055505b5050505050565b6000600160009054906101000a900473ffffffffffffffffffffffffffffffffffffffff169050600060056000868152602001908152602001600020604051806101400160405290816000820160009054906101000a900473ffffffffffffffffffffffffffffffffffffffff1673ffffffffffffffffffffffffffffffffffffffff1673ffffffffffffffffffffffffffffffffffffffff1681526020016001820154815260200160028201548152602001600382015481526020016004820154815260200160058201548152602001600682015481526020016007820160009054906101000a900460ff161515151581526020016007820160019054906101000a900460ff161515151581526020016007820160029054906101000a900460ff161515151581525050905060008273ffffffffffffffffffffffffffffffffffffffff1662fdd58e858460a001516040518363ffffffff1660e01b81526004016121f492919061382c565b602060405180830381865afa158015612211573d6000803e3d6000fd5b505050506040513d601f19601f820116820180604052508101906122359190612dea565b9050841561229d57806005600088815260200190815260200160002060010160008282546122639190612f34565b9250508190555060016005600088815260200190815260200160002060020160008282546122919190612f34565b925050819055506122f9565b806005600088815260200190815260200160002060030160008282546122c39190612f34565b9250508190555060016005600088815260200190815260200160002060040160008282546122f19190612f34565b925050819055505b60016006600088815260200190815260200160002060008673ffffffffffffffffffffffffffffffffffffffff1673ffffffffffffffffffffffffffffffffffffffff16815260200190815260200160002060006101000a81548160ff021916908315150217905550846007600088815260200190815260200160002060008673ffffffffffffffffffffffffffffffffffffffff1673ffffffffffffffffffffffffffffffffffffffff16815260200190815260200160002060006101000a81548160ff0219169083151502179055506000600860008673ffffffffffffffffffffffffffffffffffffffff1673ffffffffffffffffffffffffffffffffffffffff16815260200190815260200160002090508087908060018154018082558091505060019003906000526020600020016000909190919091505550505050505050565b6000600282841861244f91906132d9565b82841661245c9190612f34565b905092915050565b82805461247090613884565b90600052602060002090601f01602090048101928261249257600085556124d9565b82601f106124ab57805160ff19168380011785556124d9565b828001600101855582156124d9579182015b828111156124d85782518255916020019190600101906124bd565b5b5090506124e691906124ea565b5090565b5b808211156125035760008160009055506001016124eb565b5090565b6000604051905090565b600080fd5b600080fd5b6000819050919050565b61252e8161251b565b811461253957600080fd5b50565b60008135905061254b81612525565b92915050565b60006020828403121561256757612566612511565b5b60006125758482850161253c565b91505092915050565b60008115159050919050565b6125938161257e565b811461259e57600080fd5b50565b6000813590506125b08161258a565b92915050565b600080604083850312156125cd576125cc612511565b5b60006125db8582860161253c565b92505060206125ec858286016125a1565b9150509250929050565b600073ffffffffffffffffffffffffffffffffffffffff82169050919050565b6000612621826125f6565b9050919050565b61263181612616565b811461263c57600080fd5b50565b60008135905061264e81612628565b92915050565b60006020828403121561266a57612669612511565b5b60006126788482850161263f565b91505092915050565b600080fd5b600080fd5b6000601f19601f8301169050919050565b7f4e487b7100000000000000000000000000000000000000000000000000000000600052604160045260246000fd5b6126d48261268b565b810181811067ffffffffffffffff821117156126f3576126f261269c565b5b80604052505050565b6000612706612507565b905061271282826126cb565b919050565b600067ffffffffffffffff8211156127325761273161269c565b5b61273b8261268b565b9050602081019050919050565b82818337600083830152505050565b600061276a61276584612717565b6126fc565b90508281526020810184848401111561278657612785612686565b5b612791848285612748565b509392505050565b600082601f8301126127ae576127ad612681565b5b81356127be848260208601612757565b91505092915050565b6000806000606084860312156127e0576127df612511565b5b60006127ee8682870161253c565b935050602084013567ffffffffffffffff81111561280f5761280e612516565b5b61281b86828701612799565b925050604084013567ffffffffffffffff81111561283c5761283b612516565b5b61284886828701612799565b9150509250925092565b61285b8161251b565b82525050565b60006020820190506128766000830184612852565b92915050565b6000806040838503121561289357612892612511565b5b60006128a18582860161253c565b92505060206128b28582860161253c565b9150509250929050565b6128c581612616565b82525050565b60006020820190506128e060008301846128bc565b92915050565b60008060008060808587031215612900576128ff612511565b5b600061290e8782880161263f565b945050602061291f8782880161253c565b93505060406129308782880161253c565b92505060606129418782880161253c565b91505092959194509250565b600080fd5b600080fd5b60008083601f84011261296d5761296c612681565b5b8235905067ffffffffffffffff81111561298a5761298961294d565b5b6020830191508360208202830111156129a6576129a5612952565b5b9250929050565b60008083601f8401126129c3576129c2612681565b5b8235905067ffffffffffffffff8111156129e0576129df61294d565b5b6020830191508360018202830111156129fc576129fb612952565b5b9250929050565b60008060008060008060008060a0898b031215612a2357612a22612511565b5b6000612a318b828c0161263f565b9850506020612a428b828c0161263f565b975050604089013567ffffffffffffffff811115612a6357612a62612516565b5b612a6f8b828c01612957565b9650965050606089013567ffffffffffffffff811115612a9257612a91612516565b5b612a9e8b828c01612957565b9450945050608089013567ffffffffffffffff811115612ac157612ac0612516565b5b612acd8b828c016129ad565b92509250509295985092959890939650565b60007fffffffff0000000000000000000000000000000000000000000000000000000082169050919050565b612b1481612adf565b82525050565b6000602082019050612b2f6000830184612b0b565b92915050565b60008060008060008060a08789031215612b5257612b51612511565b5b6000612b6089828a0161263f565b9650506020612b7189828a0161263f565b9550506040612b8289828a0161253c565b9450506060612b9389828a0161253c565b935050608087013567ffffffffffffffff811115612bb457612bb3612516565b5b612bc089828a016129ad565b92509250509295509295509295565b612bd88161257e565b82525050565b6000606082019050612bf36000830186612852565b612c006020830185612852565b612c0d6040830184612bcf565b949350505050565b6000608082019050612c2a60008301876128bc565b612c376020830186612852565b612c446040830185612852565b612c516060830184612bcf565b95945050505050565b600082825260208201905092915050565b7f596f7520617265206e6f7420617574686f72697a656420666f7220746869732060008201527f616374696f6e0000000000000000000000000000000000000000000000000000602082015250565b6000612cc7602683612c5a565b9150612cd282612c6b565b604082019050919050565b60006020820190508181036000830152612cf681612cba565b9050919050565b7f4e6f20726f79616c7479207061796d656e747320637265617465642079657400600082015250565b6000612d33601f83612c5a565b9150612d3e82612cfd565b602082019050919050565b60006020820190508181036000830152612d6281612d26565b9050919050565b7f596f752068617665206e6f2070656e64696e6720636c61696d73000000000000600082015250565b6000612d9f601a83612c5a565b9150612daa82612d69565b602082019050919050565b60006020820190508181036000830152612dce81612d92565b9050919050565b600081519050612de481612525565b92915050565b600060208284031215612e0057612dff612511565b5b6000612e0e84828501612dd5565b91505092915050565b7f4e487b7100000000000000000000000000000000000000000000000000000000600052603260045260246000fd5b7f43616e206f6e6c7920636c61696d206f6e636500000000000000000000000000600082015250565b6000612e7c601383612c5a565b9150612e8782612e46565b602082019050919050565b60006020820190508181036000830152612eab81612e6f565b9050919050565b600060a082019050612ec76000830188612852565b612ed46020830187612852565b612ee16040830186612852565b612eee6060830185612852565b612efb60808301846128bc565b9695505050505050565b7f4e487b7100000000000000000000000000000000000000000000000000000000600052601160045260246000fd5b6000612f3f8261251b565b9150612f4a8361251b565b9250827fffffffffffffffffffffffffffffffffffffffffffffffffffffffffffffffff03821115612f7f57612f7e612f05565b5b828201905092915050565b6000612f958261251b565b91507fffffffffffffffffffffffffffffffffffffffffffffffffffffffffffffffff821415612fc857612fc7612f05565b5b600182019050919050565b600082825260208201905092915050565b7f526f79616c7479207061796d656e7420636c61696d0000000000000000000000600082015250565b600061301a601583612fd3565b915061302582612fe4565b602082019050919050565b600060a08201905061304560008301876128bc565b61305260208301866128bc565b61305f6040830185612852565b61306c6060830184612852565b818103608083015261307d8161300d565b905095945050505050565b600081519050919050565b60005b838110156130b1578082015181840152602081019050613096565b838111156130c0576000848401525b50505050565b60006130d182613088565b6130db8185612c5a565b93506130eb818560208601613093565b6130f48161268b565b840191505092915050565b600061012082019050613115600083018c6128bc565b613122602083018b612852565b61312f604083018a612852565b61313c6060830189612852565b6131496080830188612852565b81810360a083015261315b81876130c6565b905081810360c083015261316f81866130c6565b905061317e60e0830185612852565b61318c610100830184612bcf565b9a9950505050505050505050565b7f496e76616c69642061677265656d656e74206964000000000000000000000000600082015250565b60006131d0601483612c5a565b91506131db8261319a565b602082019050919050565b600060208201905081810360008301526131ff816131c3565b9050919050565b7f526f79616c7479207061796d656e74207472616e736665720000000000000000600082015250565b600061323c601883612fd3565b915061324782613206565b602082019050919050565b600060a08201905061326760008301876128bc565b61327460208301866128bc565b6132816040830185612852565b61328e6060830184612852565b818103608083015261329f8161322f565b905095945050505050565b7f4e487b7100000000000000000000000000000000000000000000000000000000600052601260045260246000fd5b60006132e48261251b565b91506132ef8361251b565b9250826132ff576132fe6132aa565b5b828204905092915050565b7f496e73756666696369656e7420616d6f756e742c20706c65617365207472792060008201527f616761696e2077697468206772656174657220616d6f756e7400000000000000602082015250565b6000613366603983612c5a565b91506133718261330a565b604082019050919050565b6000602082019050818103600083015261339581613359565b9050919050565b6000610100820190506133b2600083018b612852565b6133bf602083018a612852565b6133cc6040830189612852565b6133d96060830188612852565b6133e66080830187612852565b6133f360a0830186612852565b61340060c0830185612852565b61340d60e0830184612852565b9998505050505050505050565b600060608201905061342f60008301866128bc565b61343c6020830185612852565b6134496040830184612852565b949350505050565b600061345c8261251b565b91506134678361251b565b92508282101561347a57613479612f05565b5b828203905092915050565b7f4e487b7100000000000000000000000000000000000000000000000000000000600052603160045260246000fd5b60006134bf8261251b565b915060008214156134d3576134d2612f05565b5b600182039050919050565b7f4e6f2062616c6c6f74207769746820796f757220696420697320666f756e6400600082015250565b6000613514601f83612c5a565b915061351f826134de565b602082019050919050565b6000602082019050818103600083015261354381613507565b9050919050565b7f566f74696e672074696d65206973206e6f74206f766572207965740000000000600082015250565b6000613580601b83612c5a565b915061358b8261354a565b602082019050919050565b600060208201905081810360008301526135af81613573565b9050919050565b7f526573756c7420616c7265616479206465636c61726564000000000000000000600082015250565b60006135ec601783612c5a565b91506135f7826135b6565b602082019050919050565b6000602082019050818103600083015261361b816135df565b9050919050565b600061362d8261251b565b91506136388361251b565b9250817fffffffffffffffffffffffffffffffffffffffffffffffffffffffffffffffff048311821515161561367157613670612f05565b5b828202905092915050565b7f566f74696e672074696d65206973206f76657200000000000000000000000000600082015250565b60006136b2601383612c5a565b91506136bd8261367c565b602082019050919050565b600060208201905081810360008301526136e1816136a5565b9050919050565b7f596f75206861766520616c726561647920766f74656400000000000000000000600082015250565b600061371e601683612c5a565b9150613729826136e8565b602082019050919050565b6000602082019050818103600083015261374d81613711565b9050919050565b7f4f776e65722063616e6e6f7420766f7465000000000000000000000000000000600082015250565b600061378a601183612c5a565b915061379582613754565b602082019050919050565b600060208201905081810360008301526137b98161377d565b9050919050565b7f5573657220686173206e6f7420766f7465642079657400000000000000000000600082015250565b60006137f6601683612c5a565b9150613801826137c0565b602082019050919050565b60006020820190508181036000830152613825816137e9565b9050919050565b600060408201905061384160008301856128bc565b61384e6020830184612852565b9392505050565b7f4e487b7100000000000000000000000000000000000000000000000000000000600052602260045260246000fd5b6000600282049050600182168061389c57607f821691505b602082108114156138b0576138af613855565b5b5091905056fea264697066735822122084bacf6e8f1b9dad0fab7493c49b7df31d9415fcc4ee94a95d5c3c79e95c7a1564736f6c634300080c0033",
  "immutableReferences": {},
  "source": "// SPDX-License-Identifier: MIT\npragma solidity ^0.8.0;\n\nimport \"./voting/BaseVotingContract.sol\";\nimport \"./TreasuryContract.sol\";\n\ncontract AgreementContract is BaseVotingContract {\n    //This is the struct that contains the publishing agreement data\n    struct Agreement {\n        address requester;\n        uint256 recordId;\n        uint256 ballotId;\n        uint256 tokenId;\n        bool isActive;\n        string contractLink;\n        string contractHash;\n        uint256 creationTime;\n        bool isPresent;\n    }\n\n    event AgreementCreated(\n        address requester,\n        uint256 recordId,\n        uint256 agreementId,\n        uint256 ballotId,\n        uint256 tokenId,\n        string contractLink,\n        string contractHash,\n        uint256 creationTime,\n        bool isPresent\n    );\n\n    event RoyaltyPayment(\n        uint256 agreementId,\n        uint256 recordId,\n        uint256 totalSupplyEther,\n        uint256 dividendAmountWei,\n        uint256 dividendId,\n        uint256 tokenId,\n        uint256 dividendPerTokenWei,\n        uint256 snapshotId\n    );\n\n    event RoyaltyPaymentClaimed(\n        uint256 agreementId,\n        uint256 dividendId,\n        uint256 recordId,\n        uint256 rewardAmount,\n        address userAddress\n    );\n\n    struct DividendData {\n        uint256 totalSupplyEther;\n        uint256 dividendAmountWei;\n        uint256 dividendId;\n        uint256 tokenId;\n        uint256 dividendPerTokenWei;\n        uint256 snapshotId;\n    }\n\n    /**\n        @dev This is when a user votes for a publishing agreement\n        @param voter Address of the voter\n        @param agreementId This is the id of the publishing agreement that is linked to this ballot \n        @param ballotId Id of the ballot where voting is stored\n        @param vote State of vote : true for yes and false for No\n     */\n    event AgreementVoting(\n        address voter,\n        uint256 agreementId,\n        uint256 ballotId,\n        bool vote\n    );\n\n    /**\n        @dev this event is generated when result of a ballot is declared\n        @param agreementId This is the id of the agreement that is linked to this ballot \n        @param ballotId this is the ballot Id for which result is declared \n        @param result this is the status of the result //either true if user won that is he received more than 66% of votes or false if user lost \n     */\n    event BallotResult(uint256 agreementId, uint256 ballotId, bool result);\n\n    uint256 public agreementCurrentId = 0;\n    mapping(uint256 => Agreement) agreementMap;\n    //The below mapping contains the list of agreementId\n    // mapping works as (recordId => [agreementId])\n    mapping(uint256 => uint256[]) recordAgreementList;\n\n    uint256 dividendId = 0;\n    //agreementId => array of dividends\n    mapping(uint256 => uint256[]) dividendListMapping;\n    //Dividend id => dividend data\n    mapping(uint256 => DividendData) dividendDataMapping;\n    //dividendId => userAddress => bool\n    mapping(uint256 => mapping(address => bool)) dividendClaimMapping;\n\n    constructor(uint8 votingInterval) BaseVotingContract() {\n        VOTING_BLOCK_PERIOD = votingInterval;\n    }\n\n    /**\n     * @dev This function sets the treasury Contract address\n     */\n    function setTreasuryContractAddress(address newTreasuryContractAddress)\n        external\n        _ownerOnly\n    {\n        _setTreasuryContractAddress(newTreasuryContractAddress);\n    }\n\n    /**\n     * @dev This function sets the treasury Contract address\n     */\n    // function setOrderContractAddress(address newOrderContractAddress)\n    //     external\n    //     _ownerOnly\n    // {\n    //     _setOrderContractAddress(newOrderContractAddress);\n    // }\n\n    /**\n     * @dev This function will create a new agreement voting ballot\n     */\n    function createAgreement(\n        uint256 recordId,\n        string memory contractLink,\n        string memory contractHash\n    ) public returns (uint256) {\n        //Check if valid record id\n        agreementCurrentId++;\n        uint256 agreeId = agreementCurrentId;\n\n        TreasuryContract treasuryContract = TreasuryContract(\n            TREASURY_CONTRACT_ADDRESS\n        );\n\n        uint256 tokenId = treasuryContract.getGovernanceTokenId(recordId);\n\n        uint256 ballotId = _createVoting(true, tokenId);\n\n        Agreement memory agreement = Agreement({\n            requester: tx.origin,\n            recordId: recordId,\n            ballotId: ballotId,\n            tokenId: tokenId,\n            isActive: false,\n            contractLink: contractLink,\n            contractHash: contractHash,\n            creationTime: block.timestamp,\n            isPresent: true\n        });\n\n        emit AgreementCreated({\n            requester: tx.origin,\n            recordId: recordId,\n            ballotId: ballotId,\n            agreementId: agreeId,\n            tokenId: tokenId,\n            contractLink: contractLink,\n            contractHash: contractHash,\n            creationTime: block.timestamp,\n            isPresent: true\n        });\n\n        agreementMap[ballotId] = agreement;\n\n        recordAgreementList[recordId].push(agreeId);\n\n        return agreeId;\n    }\n\n    /**\n     * @dev This function is called by any user to cast vote\n     * @param agreementId this is the id of the agreement for which user is voting\n     * @param vote this is the state of the vote, if true than it means the vote is in favour of the ballot\n     */\n    function castVoteForAgreement(uint256 agreementId, bool vote) public {\n        super._castVote(agreementMap[agreementId].ballotId, vote);\n\n        emit AgreementVoting({\n            agreementId: agreementId,\n            ballotId: agreementMap[agreementId].ballotId,\n            voter: tx.origin,\n            vote: vote\n        });\n    }\n\n    //Deciding the winner\n\n    /**\n     * @dev This function can be called from external source and also from within the contract\n     * @param agreementId this is the id of the agreement of which the winner is to be decleared\n     */\n    function declareWinner(uint256 agreementId) external {\n        bool result = _declareWinner(agreementMap[agreementId].ballotId);\n\n        emit BallotResult(\n            agreementId,\n            agreementMap[agreementId].ballotId,\n            result\n        );\n\n        if (result) {\n            agreementMap[agreementId].isActive = true;\n        } else {\n            agreementMap[agreementId].isActive = false;\n        }\n    }\n\n    //-------------------------TEST----------------------------//\n\n    /**\n     * @dev This function is for testing purpose for distributing the royalty payment\n     */\n    function payRoyaltyAmount(\n        /* uint256 recordId, */\n        uint256 agreementId,\n        uint256 amount\n    ) public {\n        require(agreementMap[agreementId].isActive, \"Invalid agreement id\");\n        uint256 recordId = agreementMap[agreementId].recordId;\n        dividendId += 1;\n        TreasuryContract treasuryContract = TreasuryContract(\n            TREASURY_CONTRACT_ADDRESS\n        );\n        uint256 tokenId = treasuryContract.getCommunityTokenId(recordId);\n        uint256 totalSupply = treasuryContract.totalCirculatingSupply(tokenId);\n\n        treasuryContract.safeTransferFrom(\n            msg.sender,\n            address(this),\n            treasuryContract.CRD(),\n            amount,\n            \"Royalty payment transfer\"\n        );\n\n        DividendData memory dividend = DividendData({\n            totalSupplyEther: totalSupply / 1 ether,\n            dividendAmountWei: amount,\n            dividendId: dividendId,\n            dividendPerTokenWei: amount / (totalSupply / 1 ether),\n            tokenId: tokenId,\n            snapshotId: treasuryContract.snapshot()\n        });\n\n        require(\n            dividend.dividendPerTokenWei > 0,\n            \"Insufficient amount, please try again with greater amount\"\n        );\n\n        emit RoyaltyPayment({\n            agreementId: agreementId,\n            recordId: recordId,\n            totalSupplyEther: dividend.totalSupplyEther,\n            dividendAmountWei: dividend.dividendAmountWei,\n            dividendId: dividend.dividendId,\n            tokenId: dividend.tokenId,\n            dividendPerTokenWei: dividend.dividendPerTokenWei,\n            snapshotId: dividend.snapshotId\n        });\n\n        dividendListMapping[agreementId].push(dividendId);\n        dividendDataMapping[dividendId] = dividend;\n    }\n\n    /**\n     * @dev This function is for testing purpose for distributing the royalty payment\n     */\n    function claimRoyaltyAmount(uint256 agreementId) public {\n        uint256[] memory dividendIdArray = dividendListMapping[agreementId];\n        uint256 recordId = agreementMap[agreementId].recordId;\n\n        require(dividendIdArray.length > 0, \"No royalty payments created yet\");\n\n        uint256 newClaimIndex = _getNewClaimIndex(dividendIdArray, msg.sender);\n        require(\n            newClaimIndex >= 0 && newClaimIndex < dividendIdArray.length,\n            \"You have no pending claims\"\n        );\n\n        TreasuryContract treasuryContract = TreasuryContract(\n            TREASURY_CONTRACT_ADDRESS\n        );\n\n        uint256 tokenId = treasuryContract.getCommunityTokenId(recordId);\n        uint256 totalReward = 0;\n\n        require(\n            dividendClaimMapping[dividendIdArray[newClaimIndex]][msg.sender] ==\n                false,\n            \"Can only claim once\"\n        );\n\n        for (; newClaimIndex < dividendIdArray.length; newClaimIndex++) {\n            uint256 rewardAmount = _calculateSingleRoyaltyAmount(\n                dividendIdArray[newClaimIndex],\n                tokenId\n            );\n\n            emit RoyaltyPaymentClaimed({\n                dividendId: dividendIdArray[newClaimIndex],\n                recordId: recordId,\n                agreementId: agreementId,\n                rewardAmount: rewardAmount,\n                userAddress: msg.sender\n            });\n\n            uint256 index = dividendIdArray[newClaimIndex];\n            dividendClaimMapping[index][msg.sender] = true;\n\n            totalReward = rewardAmount + totalReward;\n        }\n\n        //If the total is not bigger then 0 then it means that user doesn't have any pending claim\n        // require(totalReward > 0, \"You have no pending claims\");\n\n        /**\n            //! When you uncomment the below code then it just causes the crash without a proper reason, here we expect crash to return \"You have no pending claims\" but instead it just throws error with\n            -Transaction: 0x5896b98d557a472e4f0063783b9e8bcf8ce7982de710c1c3c69c727e9989066a exited with an error (status 0) after consuming all gas.\n            -     Please check that the transaction:\n            -     - satisfies all conditions set by Solidity `assert` statements.\n            -     - has enough gas to execute the full transaction.\n            -     - does not trigger an invalid opcode by other means (ex: accessing an array out of bounds).\n       */\n        // require(false, \"You have no pending claims\");\n\n        treasuryContract.safeTransferFrom(\n            address(this),\n            msg.sender,\n            treasuryContract.CRD(),\n            totalReward,\n            \"Royalty payment claim\"\n        );\n    }\n\n    /**\n     * @dev This function is for testing purpose for distributing the royalty payment\n     */\n    function _calculateSingleRoyaltyAmount(uint256 diviId, uint256 tokenId)\n        internal\n        view\n        returns (uint256)\n    {\n        DividendData memory dividend = dividendDataMapping[diviId];\n        TreasuryContract treasuryContract = TreasuryContract(\n            TREASURY_CONTRACT_ADDRESS\n        );\n\n        uint256 tokenBal = treasuryContract.balanceOfAt(\n            msg.sender,\n            dividend.snapshotId,\n            tokenId\n        );\n\n        if (tokenBal == 0) {\n            return 0;\n        }\n\n        return dividend.dividendPerTokenWei * (tokenBal / 1 ether);\n    }\n\n    /**\n     * @dev\n     */\n    function _getNewClaimIndex(uint256[] memory dividendIdArray, address user)\n        internal\n        view\n        returns (uint256)\n    {\n        if (dividendIdArray.length == 0) {\n            return 0;\n        }\n\n        uint256 low = 0;\n        uint256 high = dividendIdArray.length;\n        uint256 lastClaimedDividendId = 0;\n        while (low < high) {\n            uint256 mid = Math.average(low, high);\n            lastClaimedDividendId = dividendIdArray[mid];\n            bool claimStatus = dividendClaimMapping[lastClaimedDividendId][\n                user\n            ];\n\n            //If claimStatus is false then it means that there are some elements that are yet to be claimed\n            //so we will go down and search there\n            if (!claimStatus && high != mid) {\n                high = mid;\n            } else {\n                low = mid + 1;\n            }\n        }\n\n        if (\n            low > 0 &&\n            dividendClaimMapping[dividendIdArray[low - 1]][user] == false\n        ) return low - 1;\n        else if (\n            low < dividendIdArray.length &&\n            dividendClaimMapping[dividendIdArray[low]][user] == true\n        ) return low + 1;\n        else return low;\n    }\n\n    function onERC1155Received(\n        address operator,\n        address from,\n        uint256 id,\n        uint256 value,\n        bytes calldata data\n    ) external virtual returns (bytes4) {\n        return\n            bytes4(\n                keccak256(\n                    \"onERC1155Received(address,address,uint256,uint256,bytes)\"\n                )\n            );\n    }\n\n    function onERC1155BatchReceived(\n        address operator,\n        address from,\n        uint256[] calldata ids,\n        uint256[] calldata values,\n        bytes calldata data\n    ) external virtual returns (bytes4) {\n        return\n            bytes4(\n                keccak256(\n                    \"onERC1155BatchReceived(address,address,uint256[],uint256[],bytes)\"\n                )\n            );\n    }\n}\n",
  "sourcePath": "/Users/a1/Desktop/Office/projects/CrowdRecords/Contracts/contracts/AgreementContract.sol",
  "compiler": {
    "name": "solc",
    "version": "0.8.12+commit.f00d7308.Emscripten.clang"
  },
  "schemaVersion": "3.4.6",
  "updatedAt": "2022-08-08T09:14:59.882Z",
  "devdoc": {
    "events": {
      "AgreementVoting(address,uint256,uint256,bool)": {
        "details": "This is when a user votes for a publishing agreement",
        "params": {
          "agreementId": "This is the id of the publishing agreement that is linked to this ballot ",
          "ballotId": "Id of the ballot where voting is stored",
          "vote": "State of vote : true for yes and false for No",
          "voter": "Address of the voter"
        }
      },
      "BallotResult(uint256,uint256,bool)": {
        "details": "this event is generated when result of a ballot is declared",
        "params": {
          "agreementId": "This is the id of the agreement that is linked to this ballot ",
          "ballotId": "this is the ballot Id for which result is declared ",
          "result": "this is the status of the result //either true if user won that is he received more than 66% of votes or false if user lost "
        }
      }
    },
    "kind": "dev",
    "methods": {
      "_handleUserTokenTransfers(address,uint256,uint256,uint256)": {
        "details": "This function will be called when either user is transferring the tokens to other account, or is receiving tokens from other tokens.",
        "params": {
          "newBalance": "this is the new balance of the user that is after the transfer",
          "previousBalance": "this is the old balance of the user",
          "user": "address of the user whose balance is being changed"
        }
      },
      "castVoteForAgreement(uint256,bool)": {
        "details": "This function is called by any user to cast vote",
        "params": {
          "agreementId": "this is the id of the agreement for which user is voting",
          "vote": "this is the state of the vote, if true than it means the vote is in favour of the ballot"
        }
      },
      "claimRoyaltyAmount(uint256)": {
        "details": "This function is for testing purpose for distributing the royalty payment"
      },
      "createAgreement(uint256,string,string)": {
        "details": "This function will create a new agreement voting ballot"
      },
      "declareWinner(uint256)": {
        "details": "This function can be called from external source and also from within the contract",
        "params": {
          "agreementId": "this is the id of the agreement of which the winner is to be decleared"
        }
      },
      "payRoyaltyAmount(uint256,uint256)": {
        "details": "This function is for testing purpose for distributing the royalty payment"
      },
      "setTreasuryContractAddress(address)": {
        "details": "This function sets the treasury Contract address"
      }
    },
    "version": 1
  },
  "userdoc": {
    "kind": "user",
    "methods": {},
    "version": 1
  }
}