{
  "contractName": "AgreementContract",
  "abi": [
    {
      "inputs": [
        {
          "internalType": "uint8",
          "name": "votingInterval",
          "type": "uint8"
        }
      ],
      "stateMutability": "nonpayable",
      "type": "constructor"
    },
    {
      "anonymous": false,
      "inputs": [
        {
          "indexed": false,
          "internalType": "address",
          "name": "requester",
          "type": "address"
        },
        {
          "indexed": false,
          "internalType": "uint256",
          "name": "recordId",
          "type": "uint256"
        },
        {
          "indexed": false,
          "internalType": "uint256",
          "name": "agreementId",
          "type": "uint256"
        },
        {
          "indexed": false,
          "internalType": "uint256",
          "name": "ballotId",
          "type": "uint256"
        },
        {
          "indexed": false,
          "internalType": "uint256",
          "name": "tokenId",
          "type": "uint256"
        },
        {
          "indexed": false,
          "internalType": "string",
          "name": "contractLink",
          "type": "string"
        },
        {
          "indexed": false,
          "internalType": "string",
          "name": "contractHash",
          "type": "string"
        },
        {
          "indexed": false,
          "internalType": "uint256",
          "name": "creationTime",
          "type": "uint256"
        },
        {
          "indexed": false,
          "internalType": "bool",
          "name": "isPresent",
          "type": "bool"
        }
      ],
      "name": "AgreementCreated",
      "type": "event"
    },
    {
      "anonymous": false,
      "inputs": [
        {
          "indexed": false,
          "internalType": "address",
          "name": "voter",
          "type": "address"
        },
        {
          "indexed": false,
          "internalType": "uint256",
          "name": "agreementId",
          "type": "uint256"
        },
        {
          "indexed": false,
          "internalType": "uint256",
          "name": "ballotId",
          "type": "uint256"
        },
        {
          "indexed": false,
          "internalType": "bool",
          "name": "vote",
          "type": "bool"
        }
      ],
      "name": "AgreementVoting",
      "type": "event"
    },
    {
      "anonymous": false,
      "inputs": [
        {
          "indexed": false,
          "internalType": "uint256",
          "name": "agreementId",
          "type": "uint256"
        },
        {
          "indexed": false,
          "internalType": "uint256",
          "name": "ballotId",
          "type": "uint256"
        },
        {
          "indexed": false,
          "internalType": "bool",
          "name": "result",
          "type": "bool"
        }
      ],
      "name": "BallotResult",
      "type": "event"
    },
    {
      "anonymous": false,
      "inputs": [
        {
          "indexed": false,
          "internalType": "uint256",
          "name": "agreementId",
          "type": "uint256"
        },
        {
          "indexed": false,
          "internalType": "uint256",
          "name": "recordId",
          "type": "uint256"
        },
        {
          "indexed": false,
          "internalType": "uint256",
          "name": "totalSupplyEther",
          "type": "uint256"
        },
        {
          "indexed": false,
          "internalType": "uint256",
          "name": "dividendAmountWei",
          "type": "uint256"
        },
        {
          "indexed": false,
          "internalType": "uint256",
          "name": "dividendId",
          "type": "uint256"
        },
        {
          "indexed": false,
          "internalType": "uint256",
          "name": "tokenId",
          "type": "uint256"
        },
        {
          "indexed": false,
          "internalType": "uint256",
          "name": "dividendPerTokenWei",
          "type": "uint256"
        },
        {
          "indexed": false,
          "internalType": "uint256",
          "name": "snapshotId",
          "type": "uint256"
        }
      ],
      "name": "RoyaltyPayment",
      "type": "event"
    },
    {
      "anonymous": false,
      "inputs": [
        {
          "indexed": false,
          "internalType": "uint256",
          "name": "agreementId",
          "type": "uint256"
        },
        {
          "indexed": false,
          "internalType": "uint256",
          "name": "dividendId",
          "type": "uint256"
        },
        {
          "indexed": false,
          "internalType": "uint256",
          "name": "recordId",
          "type": "uint256"
        },
        {
          "indexed": false,
          "internalType": "uint256",
          "name": "rewardAmount",
          "type": "uint256"
        },
        {
          "indexed": false,
          "internalType": "address",
          "name": "userAddress",
          "type": "address"
        }
      ],
      "name": "RoyaltyPaymentClaimed",
      "type": "event"
    },
    {
      "inputs": [],
      "name": "TREASURY_CONTRACT_ADDRESS",
      "outputs": [
        {
          "internalType": "address",
          "name": "",
          "type": "address"
        }
      ],
      "stateMutability": "view",
      "type": "function"
    },
    {
      "inputs": [],
      "name": "agreementCurrentId",
      "outputs": [
        {
          "internalType": "uint256",
          "name": "",
          "type": "uint256"
        }
      ],
      "stateMutability": "view",
      "type": "function"
    },
    {
      "inputs": [
        {
          "internalType": "address",
          "name": "newTreasuryContractAddress",
          "type": "address"
        }
      ],
      "name": "setTreasuryContractAddress",
      "outputs": [],
      "stateMutability": "nonpayable",
      "type": "function"
    },
    {
      "inputs": [
        {
          "internalType": "uint256",
          "name": "recordId",
          "type": "uint256"
        },
        {
          "internalType": "string",
          "name": "contractLink",
          "type": "string"
        },
        {
          "internalType": "string",
          "name": "contractHash",
          "type": "string"
        }
      ],
      "name": "createAgreement",
      "outputs": [
        {
          "internalType": "uint256",
          "name": "",
          "type": "uint256"
        }
      ],
      "stateMutability": "nonpayable",
      "type": "function"
    },
    {
      "inputs": [
        {
          "internalType": "uint256",
          "name": "agreementId",
          "type": "uint256"
        },
        {
          "internalType": "bool",
          "name": "vote",
          "type": "bool"
        }
      ],
      "name": "castVoteForAgreement",
      "outputs": [],
      "stateMutability": "nonpayable",
      "type": "function"
    },
    {
      "inputs": [
        {
          "internalType": "uint256",
          "name": "agreementId",
          "type": "uint256"
        }
      ],
      "name": "declareWinner",
      "outputs": [],
      "stateMutability": "nonpayable",
      "type": "function"
    },
    {
      "inputs": [
        {
          "internalType": "uint256",
          "name": "agreementId",
          "type": "uint256"
        },
        {
          "internalType": "uint256",
          "name": "amount",
          "type": "uint256"
        }
      ],
      "name": "payRoyaltyAmount",
      "outputs": [],
      "stateMutability": "nonpayable",
      "type": "function"
    },
    {
      "inputs": [
        {
          "internalType": "uint256",
          "name": "agreementId",
          "type": "uint256"
        }
      ],
      "name": "claimRoyaltyAmount",
      "outputs": [],
      "stateMutability": "nonpayable",
      "type": "function"
    },
    {
      "inputs": [
        {
          "internalType": "address",
          "name": "operator",
          "type": "address"
        },
        {
          "internalType": "address",
          "name": "from",
          "type": "address"
        },
        {
          "internalType": "uint256",
          "name": "id",
          "type": "uint256"
        },
        {
          "internalType": "uint256",
          "name": "value",
          "type": "uint256"
        },
        {
          "internalType": "bytes",
          "name": "data",
          "type": "bytes"
        }
      ],
      "name": "onERC1155Received",
      "outputs": [
        {
          "internalType": "bytes4",
          "name": "",
          "type": "bytes4"
        }
      ],
      "stateMutability": "nonpayable",
      "type": "function"
    },
    {
      "inputs": [
        {
          "internalType": "address",
          "name": "operator",
          "type": "address"
        },
        {
          "internalType": "address",
          "name": "from",
          "type": "address"
        },
        {
          "internalType": "uint256[]",
          "name": "ids",
          "type": "uint256[]"
        },
        {
          "internalType": "uint256[]",
          "name": "values",
          "type": "uint256[]"
        },
        {
          "internalType": "bytes",
          "name": "data",
          "type": "bytes"
        }
      ],
      "name": "onERC1155BatchReceived",
      "outputs": [
        {
          "internalType": "bytes4",
          "name": "",
          "type": "bytes4"
        }
      ],
      "stateMutability": "nonpayable",
      "type": "function"
    }
  ],
  "bytecode": "0x608060405260196000556000600355600060065560006009553480156200002557600080fd5b506040516200382b3803806200382b83398181016040528101906200004b9190620000e0565b33600260006101000a81548173ffffffffffffffffffffffffffffffffffffffff021916908373ffffffffffffffffffffffffffffffffffffffff1602179055508060ff166000819055505062000112565b600080fd5b600060ff82169050919050565b620000ba81620000a2565b8114620000c657600080fd5b50565b600081519050620000da81620000af565b92915050565b600060208284031215620000f957620000f86200009d565b5b60006200010984828501620000c9565b91505092915050565b61370980620001226000396000f3fe608060405234801561001057600080fd5b506004361061009d5760003560e01c80636dbf4d71116100665780636dbf4d7114610142578063acb314931461015e578063bc197c811461017c578063f23a6e61146101ac578063f765c740146101dc5761009d565b8062c2943c146100a25780634bb06697146100be5780634cf2d48f146100da5780634f2941b4146100f65780635672544914610112575b600080fd5b6100bc60048036038101906100b7919061219e565b6101fa565b005b6100d860048036038101906100d39190612203565b6102f3565b005b6100f460048036038101906100ef91906122a1565b61036a565b005b610110600480360381019061010b919061219e565b610406565b005b61012c60048036038101906101279190612414565b6108ab565b60405161013991906124ae565b60405180910390f35b61015c600480360381019061015791906124c9565b610b71565b005b61016661101d565b6040516101739190612518565b60405180910390f35b610196600480360381019061019191906125e9565b611043565b6040516101a39190612700565b60405180910390f35b6101c660048036038101906101c1919061271b565b611074565b6040516101d39190612700565b60405180910390f35b6101e46110a3565b6040516101f191906124ae565b60405180910390f35b6000610232600760008481526020019081526020016000206002015460076000858152602001908152602001600020600301546110a9565b90507fb8a8a92b56f183482e31ed93ed60da7274c03a6bc11b2c0e75cec8ff5a8058f28260076000858152602001908152602001600020600201548360405161027d939291906127c4565b60405180910390a180156102bf5760016007600084815260200190815260200160002060040160006101000a81548160ff0219169083151502179055506102ef565b60006007600084815260200190815260200160002060040160006101000a81548160ff0219169083151502179055505b5050565b610313600760008481526020019081526020016000206002015482611519565b7f58c55264235888a4eedc6caf417ce400bc31fd1bc88d383c1e66eed7c7ba10e8328360076000868152602001908152602001600020600201548460405161035e94939291906127fb565b60405180910390a15050565b600260009054906101000a900473ffffffffffffffffffffffffffffffffffffffff1673ffffffffffffffffffffffffffffffffffffffff163373ffffffffffffffffffffffffffffffffffffffff16146103fa576040517f08c379a00000000000000000000000000000000000000000000000000000000081526004016103f1906128c3565b60405180910390fd5b6104038161180c565b50565b6000600a600083815260200190815260200160002080548060200260200160405190810160405280929190818152602001828054801561046557602002820191906000526020600020905b815481526020019060010190808311610451575b5050505050905060006007600084815260200190815260200160002060010154905060008251116104cb576040517f08c379a00000000000000000000000000000000000000000000000000000000081526004016104c29061292f565b60405180910390fd5b60006104d783336118e0565b9050600081101580156104ea5750825181105b610529576040517f08c379a00000000000000000000000000000000000000000000000000000000081526004016105209061299b565b60405180910390fd5b6000600160009054906101000a900473ffffffffffffffffffffffffffffffffffffffff16905060008173ffffffffffffffffffffffffffffffffffffffff16632d4a0382856040518263ffffffff1660e01b815260040161058b91906124ae565b602060405180830381865afa1580156105a8573d6000803e3d6000fd5b505050506040513d601f19601f820116820180604052508101906105cc91906129d0565b90506000801515600c60008887815181106105ea576105e96129fd565b5b6020026020010151815260200190815260200160002060003373ffffffffffffffffffffffffffffffffffffffff1673ffffffffffffffffffffffffffffffffffffffff16815260200190815260200160002060009054906101000a900460ff1615151461068d576040517f08c379a000000000000000000000000000000000000000000000000000000000815260040161068490612a78565b60405180910390fd5b5b85518410156107c35760006106bd8786815181106106af576106ae6129fd565b5b602002602001015184611b2c565b90507f1d67da1c3ada568cf614ff7e83491fefffc26ad6fea8d77eadf2bf63b9805376888887815181106106f4576106f36129fd565b5b6020026020010151888433604051610710959493929190612a98565b60405180910390a1600087868151811061072d5761072c6129fd565b5b602002602001015190506001600c600083815260200190815260200160002060003373ffffffffffffffffffffffffffffffffffffffff1673ffffffffffffffffffffffffffffffffffffffff16815260200190815260200160002060006101000a81548160ff02191690831515021790555082826107ac9190612b1a565b9250505083806107bb90612b70565b94505061068e565b8273ffffffffffffffffffffffffffffffffffffffff1663f242432a30338673ffffffffffffffffffffffffffffffffffffffff1663e6acd9b86040518163ffffffff1660e01b8152600401602060405180830381865afa15801561082c573d6000803e3d6000fd5b505050506040513d601f19601f8201168201806040525081019061085091906129d0565b856040518563ffffffff1660e01b81526004016108709493929190612c16565b600060405180830381600087803b15801561088a57600080fd5b505af115801561089e573d6000803e3d6000fd5b5050505050505050505050565b6000600660008154809291906108c090612b70565b91905055506000600654905060006108d86001611c7c565b90506000600160009054906101000a900473ffffffffffffffffffffffffffffffffffffffff16905060008173ffffffffffffffffffffffffffffffffffffffff1663d6ca40a7896040518263ffffffff1660e01b815260040161093c91906124ae565b602060405180830381865afa158015610959573d6000803e3d6000fd5b505050506040513d601f19601f8201168201806040525081019061097d91906129d0565b905060006040518061012001604052803273ffffffffffffffffffffffffffffffffffffffff1681526020018a81526020018581526020018381526020016000151581526020018981526020018881526020014281526020016001151581525090507f57d13d9edad9c4b3d196ecf74d48472a6aee66860677e6af4039187ea280d22b328a8787868d8d426001604051610a1f99989796959493929190612ce5565b60405180910390a1806007600086815260200190815260200160002060008201518160000160006101000a81548173ffffffffffffffffffffffffffffffffffffffff021916908373ffffffffffffffffffffffffffffffffffffffff16021790555060208201518160010155604082015181600201556060820151816003015560808201518160040160006101000a81548160ff02191690831515021790555060a0820151816005019080519060200190610adc929190612027565b5060c0820151816006019080519060200190610af9929190612027565b5060e082015181600701556101008201518160080160006101000a81548160ff021916908315150217905550905050600860008a815260200190815260200160002085908060018154018082558091505060019003906000526020600020016000909190919091505584955050505050509392505050565b6007600083815260200190815260200160002060040160009054906101000a900460ff16610bd4576040517f08c379a0000000000000000000000000000000000000000000000000000000008152600401610bcb90612dcc565b60405180910390fd5b600060076000848152602001908152602001600020600101549050600160096000828254610c029190612b1a565b925050819055506000600160009054906101000a900473ffffffffffffffffffffffffffffffffffffffff16905060008173ffffffffffffffffffffffffffffffffffffffff16632d4a0382846040518263ffffffff1660e01b8152600401610c6b91906124ae565b602060405180830381865afa158015610c88573d6000803e3d6000fd5b505050506040513d601f19601f82011682018060405250810190610cac91906129d0565b905060008273ffffffffffffffffffffffffffffffffffffffff1663036c22ad836040518263ffffffff1660e01b8152600401610ce991906124ae565b602060405180830381865afa158015610d06573d6000803e3d6000fd5b505050506040513d601f19601f82011682018060405250810190610d2a91906129d0565b90508273ffffffffffffffffffffffffffffffffffffffff1663f242432a33308673ffffffffffffffffffffffffffffffffffffffff1663e6acd9b86040518163ffffffff1660e01b8152600401602060405180830381865afa158015610d95573d6000803e3d6000fd5b505050506040513d601f19601f82011682018060405250810190610db991906129d0565b896040518563ffffffff1660e01b8152600401610dd99493929190612e38565b600060405180830381600087803b158015610df357600080fd5b505af1158015610e07573d6000803e3d6000fd5b5050505060006040518060c00160405280670de0b6b3a764000084610e2c9190612ebf565b81526020018781526020016009548152602001848152602001670de0b6b3a764000084610e599190612ebf565b88610e649190612ebf565b81526020018573ffffffffffffffffffffffffffffffffffffffff16639711715a6040518163ffffffff1660e01b81526004016020604051808303816000875af1158015610eb6573d6000803e3d6000fd5b505050506040513d601f19601f82011682018060405250810190610eda91906129d0565b81525090506000816080015111610f26576040517f08c379a0000000000000000000000000000000000000000000000000000000008152600401610f1d90612f62565b60405180910390fd5b7f3b1f5dd3f8c1246a4e45be7552457d70b4c9396a0d55937e01ee864eda6b7d2c8786836000015184602001518560400151866060015187608001518860a00151604051610f7b989796959493929190612f82565b60405180910390a1600a6000888152602001908152602001600020600954908060018154018082558091505060019003906000526020600020016000909190919091505580600b60006009548152602001908152602001600020600082015181600001556020820151816001015560408201518160020155606082015181600301556080820151816004015560a0820151816005015590505050505050505050565b600160009054906101000a900473ffffffffffffffffffffffffffffffffffffffff1681565b60007fbc197c819b3e337a6f9652dd10becd7eef83032af3b9d958d3d42f6694146621905098975050505050505050565b60007ff23a6e612e1ff4830e658fe43f4e3cb4a5f8170bd5d9e69fb5d7a7fa9e4fdf9790509695505050505050565b60065481565b6000600115156004600085815260200190815260200160002060040160029054906101000a900460ff16151514611115576040517f08c379a000000000000000000000000000000000000000000000000000000000815260040161110c9061304c565b60405180910390fd5b4360046000858152602001908152602001600020600301541061116d576040517f08c379a0000000000000000000000000000000000000000000000000000000008152600401611164906130b8565b60405180910390fd5b600015156004600085815260200190815260200160002060040160009054906101000a900460ff161515146111d7576040517f08c379a00000000000000000000000000000000000000000000000000000000081526004016111ce90613124565b60405180910390fd5b60006004600085815260200190815260200160002060010180548060200260200160405190810160405280929190818152602001828054801561126f57602002820191906000526020600020905b8160009054906101000a900473ffffffffffffffffffffffffffffffffffffffff1673ffffffffffffffffffffffffffffffffffffffff1681526020019060010190808311611225575b505050505090506000815167ffffffffffffffff811115611293576112926122e9565b5b6040519080825280602002602001820160405280156112c15781602001602082028036833780820191505090505b50905060005b825181101561130357848282815181106112e4576112e36129fd565b5b60200260200101818152505080806112fb90612b70565b9150506112c7565b506000600160009054906101000a900473ffffffffffffffffffffffffffffffffffffffff16905060008173ffffffffffffffffffffffffffffffffffffffff16634e1273f4600460008a8152602001908152602001600020600101856040518363ffffffff1660e01b815260040161137d929190613326565b600060405180830381865afa15801561139a573d6000803e3d6000fd5b505050506040513d6000823e3d601f19601f820116820180604052508101906113c39190613420565b90506000805b855181101561140d578281815181106113e5576113e46129fd565b5b6020026020010151826113f89190612b1a565b9150808061140590612b70565b9150506113c9565b506001600460008a815260200190815260200160002060040160006101000a81548160ff02191690831515021790555060008111156115095760008373ffffffffffffffffffffffffffffffffffffffff1663036c22ad896040518263ffffffff1660e01b815260040161148191906124ae565b602060405180830381865afa15801561149e573d6000803e3d6000fd5b505050506040513d601f19601f820116820180604052508101906114c291906129d0565b90506000816064846114d49190613469565b6114de9190612ebf565b905060428111156114f9576001975050505050505050611513565b6000975050505050505050611513565b6000955050505050505b92915050565b8133600115156004600084815260200190815260200160002060040160029054906101000a900460ff16151514611585576040517f08c379a000000000000000000000000000000000000000000000000000000000815260040161157c9061304c565b60405180910390fd5b436004600084815260200190815260200160002060030154116115dd576040517f08c379a00000000000000000000000000000000000000000000000000000000081526004016115d49061350f565b60405180910390fd5b600015156005600084815260200190815260200160002060008373ffffffffffffffffffffffffffffffffffffffff1673ffffffffffffffffffffffffffffffffffffffff16815260200190815260200160002060009054906101000a900460ff16151514611681576040517f08c379a00000000000000000000000000000000000000000000000000000000081526004016116789061357b565b60405180910390fd5b836004600082815260200190815260200160002060040160019054906101000a900460ff161561175457600015156005600083815260200190815260200160002060003273ffffffffffffffffffffffffffffffffffffffff1673ffffffffffffffffffffffffffffffffffffffff16815260200190815260200160002060009054906101000a900460ff1615151461174f576040517f08c379a00000000000000000000000000000000000000000000000000000000081526004016117469061357b565b60405180910390fd5b6117fa565b6004600082815260200190815260200160002060000160009054906101000a900473ffffffffffffffffffffffffffffffffffffffff1673ffffffffffffffffffffffffffffffffffffffff163273ffffffffffffffffffffffffffffffffffffffff1614156117f9576040517f08c379a00000000000000000000000000000000000000000000000000000000081526004016117f0906135e7565b60405180910390fd5b5b611805858532611e99565b5050505050565b600260009054906101000a900473ffffffffffffffffffffffffffffffffffffffff1673ffffffffffffffffffffffffffffffffffffffff163373ffffffffffffffffffffffffffffffffffffffff161461189c576040517f08c379a0000000000000000000000000000000000000000000000000000000008152600401611893906128c3565b60405180910390fd5b80600160006101000a81548173ffffffffffffffffffffffffffffffffffffffff021916908373ffffffffffffffffffffffffffffffffffffffff16021790555050565b600080835114156118f45760009050611b26565b6000808451905060005b818310156119c55760006119128484612001565b9050868181518110611927576119266129fd565b5b602002602001015191506000600c600084815260200190815260200160002060008873ffffffffffffffffffffffffffffffffffffffff1673ffffffffffffffffffffffffffffffffffffffff16815260200190815260200160002060009054906101000a900460ff169050801580156119a15750818414155b156119ae578193506119be565b6001826119bb9190612b1a565b94505b50506118fe565b600083118015611a5c575060001515600c6000886001876119e69190613607565b815181106119f7576119f66129fd565b5b6020026020010151815260200190815260200160002060008773ffffffffffffffffffffffffffffffffffffffff1673ffffffffffffffffffffffffffffffffffffffff16815260200190815260200160002060009054906101000a900460ff161515145b15611a7857600183611a6e9190613607565b9350505050611b26565b855183108015611b03575060011515600c6000888681518110611a9e57611a9d6129fd565b5b6020026020010151815260200190815260200160002060008773ffffffffffffffffffffffffffffffffffffffff1673ffffffffffffffffffffffffffffffffffffffff16815260200190815260200160002060009054906101000a900460ff161515145b15611b1f57600183611b159190612b1a565b9350505050611b26565b8293505050505b92915050565b600080600b60008581526020019081526020016000206040518060c0016040529081600082015481526020016001820154815260200160028201548152602001600382015481526020016004820154815260200160058201548152505090506000600160009054906101000a900473ffffffffffffffffffffffffffffffffffffffff16905060008173ffffffffffffffffffffffffffffffffffffffff1663626da068338560a00151886040518463ffffffff1660e01b8152600401611bf59392919061363b565b602060405180830381865afa158015611c12573d6000803e3d6000fd5b505050506040513d601f19601f82011682018060405250810190611c3691906129d0565b90506000811415611c4d5760009350505050611c76565b670de0b6b3a764000081611c619190612ebf565b8360800151611c709190613469565b93505050505b92915050565b600060036000815480929190611c9190612b70565b919050555060006040518060e001604052803273ffffffffffffffffffffffffffffffffffffffff168152602001600067ffffffffffffffff811115611cda57611cd96122e9565b5b604051908082528060200260200182016040528015611d085781602001602082028036833780820191505090505b508152602001600067ffffffffffffffff811115611d2957611d286122e9565b5b604051908082528060200260200182016040528015611d575781602001602082028036833780820191505090505b50815260200160005443611d6b9190612b1a565b815260200160001515815260200184151581526020016001151581525090508060046000600354815260200190815260200160002060008201518160000160006101000a81548173ffffffffffffffffffffffffffffffffffffffff021916908373ffffffffffffffffffffffffffffffffffffffff1602179055506020820151816001019080519060200190611e039291906120ad565b506040820151816002019080519060200190611e209291906120ad565b506060820151816003015560808201518160040160006101000a81548160ff02191690831515021790555060a08201518160040160016101000a81548160ff02191690831515021790555060c08201518160040160026101000a81548160ff021916908315150217905550905050600354915050919050565b8115611f1b5760046000848152602001908152602001600020600101819080600181540180825580915050600190039060005260206000200160009091909190916101000a81548173ffffffffffffffffffffffffffffffffffffffff021916908373ffffffffffffffffffffffffffffffffffffffff160217905550611f93565b60046000848152602001908152602001600020600201819080600181540180825580915050600190039060005260206000200160009091909190916101000a81548173ffffffffffffffffffffffffffffffffffffffff021916908373ffffffffffffffffffffffffffffffffffffffff1602179055505b60016005600085815260200190815260200160002060008373ffffffffffffffffffffffffffffffffffffffff1673ffffffffffffffffffffffffffffffffffffffff16815260200190815260200160002060006101000a81548160ff021916908315150217905550505050565b600060028284186120129190612ebf565b82841661201f9190612b1a565b905092915050565b828054612033906136a1565b90600052602060002090601f016020900481019282612055576000855561209c565b82601f1061206e57805160ff191683800117855561209c565b8280016001018555821561209c579182015b8281111561209b578251825591602001919060010190612080565b5b5090506120a99190612137565b5090565b828054828255906000526020600020908101928215612126579160200282015b828111156121255782518260006101000a81548173ffffffffffffffffffffffffffffffffffffffff021916908373ffffffffffffffffffffffffffffffffffffffff160217905550916020019190600101906120cd565b5b5090506121339190612137565b5090565b5b80821115612150576000816000905550600101612138565b5090565b6000604051905090565b600080fd5b600080fd5b6000819050919050565b61217b81612168565b811461218657600080fd5b50565b60008135905061219881612172565b92915050565b6000602082840312156121b4576121b361215e565b5b60006121c284828501612189565b91505092915050565b60008115159050919050565b6121e0816121cb565b81146121eb57600080fd5b50565b6000813590506121fd816121d7565b92915050565b6000806040838503121561221a5761221961215e565b5b600061222885828601612189565b9250506020612239858286016121ee565b9150509250929050565b600073ffffffffffffffffffffffffffffffffffffffff82169050919050565b600061226e82612243565b9050919050565b61227e81612263565b811461228957600080fd5b50565b60008135905061229b81612275565b92915050565b6000602082840312156122b7576122b661215e565b5b60006122c58482850161228c565b91505092915050565b600080fd5b600080fd5b6000601f19601f8301169050919050565b7f4e487b7100000000000000000000000000000000000000000000000000000000600052604160045260246000fd5b612321826122d8565b810181811067ffffffffffffffff821117156123405761233f6122e9565b5b80604052505050565b6000612353612154565b905061235f8282612318565b919050565b600067ffffffffffffffff82111561237f5761237e6122e9565b5b612388826122d8565b9050602081019050919050565b82818337600083830152505050565b60006123b76123b284612364565b612349565b9050828152602081018484840111156123d3576123d26122d3565b5b6123de848285612395565b509392505050565b600082601f8301126123fb576123fa6122ce565b5b813561240b8482602086016123a4565b91505092915050565b60008060006060848603121561242d5761242c61215e565b5b600061243b86828701612189565b935050602084013567ffffffffffffffff81111561245c5761245b612163565b5b612468868287016123e6565b925050604084013567ffffffffffffffff81111561248957612488612163565b5b612495868287016123e6565b9150509250925092565b6124a881612168565b82525050565b60006020820190506124c3600083018461249f565b92915050565b600080604083850312156124e0576124df61215e565b5b60006124ee85828601612189565b92505060206124ff85828601612189565b9150509250929050565b61251281612263565b82525050565b600060208201905061252d6000830184612509565b92915050565b600080fd5b600080fd5b60008083601f840112612553576125526122ce565b5b8235905067ffffffffffffffff8111156125705761256f612533565b5b60208301915083602082028301111561258c5761258b612538565b5b9250929050565b60008083601f8401126125a9576125a86122ce565b5b8235905067ffffffffffffffff8111156125c6576125c5612533565b5b6020830191508360018202830111156125e2576125e1612538565b5b9250929050565b60008060008060008060008060a0898b0312156126095761260861215e565b5b60006126178b828c0161228c565b98505060206126288b828c0161228c565b975050604089013567ffffffffffffffff81111561264957612648612163565b5b6126558b828c0161253d565b9650965050606089013567ffffffffffffffff81111561267857612677612163565b5b6126848b828c0161253d565b9450945050608089013567ffffffffffffffff8111156126a7576126a6612163565b5b6126b38b828c01612593565b92509250509295985092959890939650565b60007fffffffff0000000000000000000000000000000000000000000000000000000082169050919050565b6126fa816126c5565b82525050565b600060208201905061271560008301846126f1565b92915050565b60008060008060008060a087890312156127385761273761215e565b5b600061274689828a0161228c565b965050602061275789828a0161228c565b955050604061276889828a01612189565b945050606061277989828a01612189565b935050608087013567ffffffffffffffff81111561279a57612799612163565b5b6127a689828a01612593565b92509250509295509295509295565b6127be816121cb565b82525050565b60006060820190506127d9600083018661249f565b6127e6602083018561249f565b6127f360408301846127b5565b949350505050565b60006080820190506128106000830187612509565b61281d602083018661249f565b61282a604083018561249f565b61283760608301846127b5565b95945050505050565b600082825260208201905092915050565b7f596f7520617265206e6f7420617574686f72697a656420666f7220746869732060008201527f616374696f6e0000000000000000000000000000000000000000000000000000602082015250565b60006128ad602683612840565b91506128b882612851565b604082019050919050565b600060208201905081810360008301526128dc816128a0565b9050919050565b7f4e6f20726f79616c7479207061796d656e747320637265617465642079657400600082015250565b6000612919601f83612840565b9150612924826128e3565b602082019050919050565b600060208201905081810360008301526129488161290c565b9050919050565b7f596f752068617665206e6f2070656e64696e6720636c61696d73000000000000600082015250565b6000612985601a83612840565b91506129908261294f565b602082019050919050565b600060208201905081810360008301526129b481612978565b9050919050565b6000815190506129ca81612172565b92915050565b6000602082840312156129e6576129e561215e565b5b60006129f4848285016129bb565b91505092915050565b7f4e487b7100000000000000000000000000000000000000000000000000000000600052603260045260246000fd5b7f43616e206f6e6c7920636c61696d206f6e636500000000000000000000000000600082015250565b6000612a62601383612840565b9150612a6d82612a2c565b602082019050919050565b60006020820190508181036000830152612a9181612a55565b9050919050565b600060a082019050612aad600083018861249f565b612aba602083018761249f565b612ac7604083018661249f565b612ad4606083018561249f565b612ae16080830184612509565b9695505050505050565b7f4e487b7100000000000000000000000000000000000000000000000000000000600052601160045260246000fd5b6000612b2582612168565b9150612b3083612168565b9250827fffffffffffffffffffffffffffffffffffffffffffffffffffffffffffffffff03821115612b6557612b64612aeb565b5b828201905092915050565b6000612b7b82612168565b91507fffffffffffffffffffffffffffffffffffffffffffffffffffffffffffffffff821415612bae57612bad612aeb565b5b600182019050919050565b600082825260208201905092915050565b7f526f79616c7479207061796d656e7420636c61696d0000000000000000000000600082015250565b6000612c00601583612bb9565b9150612c0b82612bca565b602082019050919050565b600060a082019050612c2b6000830187612509565b612c386020830186612509565b612c45604083018561249f565b612c52606083018461249f565b8181036080830152612c6381612bf3565b905095945050505050565b600081519050919050565b60005b83811015612c97578082015181840152602081019050612c7c565b83811115612ca6576000848401525b50505050565b6000612cb782612c6e565b612cc18185612840565b9350612cd1818560208601612c79565b612cda816122d8565b840191505092915050565b600061012082019050612cfb600083018c612509565b612d08602083018b61249f565b612d15604083018a61249f565b612d22606083018961249f565b612d2f608083018861249f565b81810360a0830152612d418187612cac565b905081810360c0830152612d558186612cac565b9050612d6460e083018561249f565b612d726101008301846127b5565b9a9950505050505050505050565b7f496e76616c69642061677265656d656e74206964000000000000000000000000600082015250565b6000612db6601483612840565b9150612dc182612d80565b602082019050919050565b60006020820190508181036000830152612de581612da9565b9050919050565b7f526f79616c7479207061796d656e74207472616e736665720000000000000000600082015250565b6000612e22601883612bb9565b9150612e2d82612dec565b602082019050919050565b600060a082019050612e4d6000830187612509565b612e5a6020830186612509565b612e67604083018561249f565b612e74606083018461249f565b8181036080830152612e8581612e15565b905095945050505050565b7f4e487b7100000000000000000000000000000000000000000000000000000000600052601260045260246000fd5b6000612eca82612168565b9150612ed583612168565b925082612ee557612ee4612e90565b5b828204905092915050565b7f496e73756666696369656e7420616d6f756e742c20706c65617365207472792060008201527f616761696e2077697468206772656174657220616d6f756e7400000000000000602082015250565b6000612f4c603983612840565b9150612f5782612ef0565b604082019050919050565b60006020820190508181036000830152612f7b81612f3f565b9050919050565b600061010082019050612f98600083018b61249f565b612fa5602083018a61249f565b612fb2604083018961249f565b612fbf606083018861249f565b612fcc608083018761249f565b612fd960a083018661249f565b612fe660c083018561249f565b612ff360e083018461249f565b9998505050505050505050565b7f4e6f2062616c6c6f74207769746820796f757220696420697320666f756e6400600082015250565b6000613036601f83612840565b915061304182613000565b602082019050919050565b6000602082019050818103600083015261306581613029565b9050919050565b7f566f74696e672074696d65206973206e6f74206f766572207965740000000000600082015250565b60006130a2601b83612840565b91506130ad8261306c565b602082019050919050565b600060208201905081810360008301526130d181613095565b9050919050565b7f526573756c7420616c7265616479206465636c61726564000000000000000000600082015250565b600061310e601783612840565b9150613119826130d8565b602082019050919050565b6000602082019050818103600083015261313d81613101565b9050919050565b600081549050919050565b600082825260208201905092915050565b60008190508160005260206000209050919050565b61317e81612263565b82525050565b60006131908383613175565b60208301905092915050565b60008160001c9050919050565b600073ffffffffffffffffffffffffffffffffffffffff82169050919050565b60006131dc6131d78361319c565b6131a9565b9050919050565b60006131ef82546131c9565b9050919050565b6000600182019050919050565b600061320e82613144565b613218818561314f565b935061322383613160565b8060005b8381101561325b57613238826131e3565b6132428882613184565b975061324d836131f6565b925050600181019050613227565b5085935050505092915050565b600081519050919050565b600082825260208201905092915050565b6000819050602082019050919050565b61329d81612168565b82525050565b60006132af8383613294565b60208301905092915050565b6000602082019050919050565b60006132d382613268565b6132dd8185613273565b93506132e883613284565b8060005b8381101561331957815161330088826132a3565b975061330b836132bb565b9250506001810190506132ec565b5085935050505092915050565b600060408201905081810360008301526133408185613203565b9050818103602083015261335481846132c8565b90509392505050565b600067ffffffffffffffff821115613378576133776122e9565b5b602082029050602081019050919050565b600061339c6133978461335d565b612349565b905080838252602082019050602084028301858111156133bf576133be612538565b5b835b818110156133e857806133d488826129bb565b8452602084019350506020810190506133c1565b5050509392505050565b600082601f830112613407576134066122ce565b5b8151613417848260208601613389565b91505092915050565b6000602082840312156134365761343561215e565b5b600082015167ffffffffffffffff81111561345457613453612163565b5b613460848285016133f2565b91505092915050565b600061347482612168565b915061347f83612168565b9250817fffffffffffffffffffffffffffffffffffffffffffffffffffffffffffffffff04831182151516156134b8576134b7612aeb565b5b828202905092915050565b7f566f74696e672074696d65206973206f76657200000000000000000000000000600082015250565b60006134f9601383612840565b9150613504826134c3565b602082019050919050565b60006020820190508181036000830152613528816134ec565b9050919050565b7f596f75206861766520616c726561647920766f74656400000000000000000000600082015250565b6000613565601683612840565b91506135708261352f565b602082019050919050565b6000602082019050818103600083015261359481613558565b9050919050565b7f4f776e65722063616e6e6f7420766f7465000000000000000000000000000000600082015250565b60006135d1601183612840565b91506135dc8261359b565b602082019050919050565b60006020820190508181036000830152613600816135c4565b9050919050565b600061361282612168565b915061361d83612168565b9250828210156136305761362f612aeb565b5b828203905092915050565b60006060820190506136506000830186612509565b61365d602083018561249f565b61366a604083018461249f565b949350505050565b7f4e487b7100000000000000000000000000000000000000000000000000000000600052602260045260246000fd5b600060028204905060018216806136b957607f821691505b602082108114156136cd576136cc613672565b5b5091905056fea2646970667358221220ec890c25b4a0687b358657340a74b1ad4cd6603ece2061bcee84f5dd7538208c64736f6c634300080c0033",
  "immutableReferences": {},
  "source": "// SPDX-License-Identifier: MIT\npragma solidity ^0.8.0;\n\nimport \"./voting/BaseVotingContract.sol\";\nimport \"./TreasuryContract.sol\";\n\ncontract AgreementContract is BaseVotingContract {\n    //This is the struct that contains the publishing agreement data\n    struct Agreement {\n        address requester;\n        uint256 recordId;\n        uint256 ballotId;\n        uint256 tokenId;\n        bool isActive;\n        string contractLink;\n        string contractHash;\n        uint256 creationTime;\n        bool isPresent;\n    }\n\n    event AgreementCreated(\n        address requester,\n        uint256 recordId,\n        uint256 agreementId,\n        uint256 ballotId,\n        uint256 tokenId,\n        string contractLink,\n        string contractHash,\n        uint256 creationTime,\n        bool isPresent\n    );\n\n    event RoyaltyPayment(\n        uint256 agreementId,\n        uint256 recordId,\n        uint256 totalSupplyEther,\n        uint256 dividendAmountWei,\n        uint256 dividendId,\n        uint256 tokenId,\n        uint256 dividendPerTokenWei,\n        uint256 snapshotId\n    );\n\n    event RoyaltyPaymentClaimed(\n        uint256 agreementId,\n        uint256 dividendId,\n        uint256 recordId,\n        uint256 rewardAmount,\n        address userAddress\n    );\n\n    struct DividendData {\n        uint256 totalSupplyEther;\n        uint256 dividendAmountWei;\n        uint256 dividendId;\n        uint256 tokenId;\n        uint256 dividendPerTokenWei;\n        uint256 snapshotId;\n    }\n\n    /**\n        @dev This is when a user votes for a publishing agreement\n        @param voter Address of the voter\n        @param agreementId This is the id of the publishing agreement that is linked to this ballot \n        @param ballotId Id of the ballot where voting is stored\n        @param vote State of vote : true for yes and false for No\n     */\n    event AgreementVoting(\n        address voter,\n        uint256 agreementId,\n        uint256 ballotId,\n        bool vote\n    );\n\n    /**\n        @dev this event is generated when result of a ballot is declared\n        @param agreementId This is the id of the agreement that is linked to this ballot \n        @param ballotId this is the ballot Id for which result is declared \n        @param result this is the status of the result //either true if user won that is he received more than 66% of votes or false if user lost \n     */\n    event BallotResult(uint256 agreementId, uint256 ballotId, bool result);\n\n    uint256 public agreementCurrentId = 0;\n    mapping(uint256 => Agreement) agreementMap;\n    //The below mapping contains the list of agreementId\n    // mapping works as (recordId => [agreementId])\n    mapping(uint256 => uint256[]) recordAgreementList;\n\n    uint256 dividendId = 0;\n    //agreementId => array of dividends\n    mapping(uint256 => uint256[]) dividendListMapping;\n    //Dividend id => dividend data\n    mapping(uint256 => DividendData) dividendDataMapping;\n    //dividendId => userAddress => bool\n    mapping(uint256 => mapping(address => bool)) dividendClaimMapping;\n\n    constructor(uint8 votingInterval) BaseVotingContract() {\n        VOTING_BLOCK_PERIOD = votingInterval;\n    }\n\n    /**\n     * @dev This function sets the treasury Contract address\n     */\n    function setTreasuryContractAddress(address newTreasuryContractAddress)\n        external\n        _ownerOnly\n    {\n        _setTreasuryContractAddress(newTreasuryContractAddress);\n    }\n\n    /**\n     * @dev This function sets the treasury Contract address\n     */\n    // function setOrderContractAddress(address newOrderContractAddress)\n    //     external\n    //     _ownerOnly\n    // {\n    //     _setOrderContractAddress(newOrderContractAddress);\n    // }\n\n    /**\n     * @dev This function will create a new agreement voting ballot\n     */\n    function createAgreement(\n        uint256 recordId,\n        string memory contractLink,\n        string memory contractHash\n    ) public returns (uint256) {\n        //Check if valid record id\n        agreementCurrentId++;\n        uint256 agreeId = agreementCurrentId;\n\n        uint256 ballotId = _createVoting(true);\n\n        TreasuryContract treasuryContract = TreasuryContract(\n            TREASURY_CONTRACT_ADDRESS\n        );\n        uint256 tokenId = treasuryContract.getGovernanceTokenId(recordId);\n\n        Agreement memory agreement = Agreement({\n            requester: tx.origin,\n            recordId: recordId,\n            ballotId: ballotId,\n            tokenId: tokenId,\n            isActive: false,\n            contractLink: contractLink,\n            contractHash: contractHash,\n            creationTime: block.timestamp,\n            isPresent: true\n        });\n\n        emit AgreementCreated({\n            requester: tx.origin,\n            recordId: recordId,\n            ballotId: ballotId,\n            agreementId: agreeId,\n            tokenId: tokenId,\n            contractLink: contractLink,\n            contractHash: contractHash,\n            creationTime: block.timestamp,\n            isPresent: true\n        });\n\n        agreementMap[ballotId] = agreement;\n\n        recordAgreementList[recordId].push(agreeId);\n\n        return agreeId;\n    }\n\n    /**\n     * @dev This function is called by any user to cast vote\n     * @param agreementId this is the id of the agreement for which user is voting\n     * @param vote this is the state of the vote, if true than it means the vote is in favour of the ballot\n     */\n    function castVoteForAgreement(uint256 agreementId, bool vote) public {\n        super._castVote(agreementMap[agreementId].ballotId, vote);\n\n        emit AgreementVoting({\n            agreementId: agreementId,\n            ballotId: agreementMap[agreementId].ballotId,\n            voter: tx.origin,\n            vote: vote\n        });\n    }\n\n    //Deciding the winner\n\n    /**\n     * @dev This function can be called from external source and also from within the contract\n     * @param agreementId this is the id of the agreement of which the winner is to be decleared\n     */\n    function declareWinner(uint256 agreementId) external {\n        bool result = _declareWinner(\n            agreementMap[agreementId].ballotId,\n            agreementMap[agreementId].tokenId\n        );\n\n        emit BallotResult(\n            agreementId,\n            agreementMap[agreementId].ballotId,\n            result\n        );\n\n        if (result) {\n            agreementMap[agreementId].isActive = true;\n        } else {\n            agreementMap[agreementId].isActive = false;\n        }\n    }\n\n    //-------------------------TEST----------------------------//\n\n    /**\n     * @dev This function is for testing purpose for distributing the royalty payment\n     */\n    function payRoyaltyAmount(\n        /* uint256 recordId, */\n        uint256 agreementId,\n        uint256 amount\n    ) public {\n        require(agreementMap[agreementId].isActive, \"Invalid agreement id\");\n        uint256 recordId = agreementMap[agreementId].recordId;\n        dividendId += 1;\n        TreasuryContract treasuryContract = TreasuryContract(\n            TREASURY_CONTRACT_ADDRESS\n        );\n        uint256 tokenId = treasuryContract.getCommunityTokenId(recordId);\n        uint256 totalSupply = treasuryContract.totalCirculatingSupply(tokenId);\n\n        treasuryContract.safeTransferFrom(\n            msg.sender,\n            address(this),\n            treasuryContract.CRD(),\n            amount,\n            \"Royalty payment transfer\"\n        );\n\n        DividendData memory dividend = DividendData({\n            totalSupplyEther: totalSupply / 1 ether,\n            dividendAmountWei: amount,\n            dividendId: dividendId,\n            dividendPerTokenWei: amount / (totalSupply / 1 ether),\n            tokenId: tokenId,\n            snapshotId: treasuryContract.snapshot()\n        });\n\n        require(\n            dividend.dividendPerTokenWei > 0,\n            \"Insufficient amount, please try again with greater amount\"\n        );\n\n        emit RoyaltyPayment({\n            agreementId: agreementId,\n            recordId: recordId,\n            totalSupplyEther: dividend.totalSupplyEther,\n            dividendAmountWei: dividend.dividendAmountWei,\n            dividendId: dividend.dividendId,\n            tokenId: dividend.tokenId,\n            dividendPerTokenWei: dividend.dividendPerTokenWei,\n            snapshotId: dividend.snapshotId\n        });\n\n        dividendListMapping[agreementId].push(dividendId);\n        dividendDataMapping[dividendId] = dividend;\n    }\n\n    /**\n     * @dev This function is for testing purpose for distributing the royalty payment\n     */\n    function claimRoyaltyAmount(uint256 agreementId) public {\n        uint256[] memory dividendIdArray = dividendListMapping[agreementId];\n        uint256 recordId = agreementMap[agreementId].recordId;\n\n        require(dividendIdArray.length > 0, \"No royalty payments created yet\");\n\n        uint256 newClaimIndex = _getNewClaimIndex(dividendIdArray, msg.sender);\n        require(\n            newClaimIndex >= 0 && newClaimIndex < dividendIdArray.length,\n            \"You have no pending claims\"\n        );\n\n        TreasuryContract treasuryContract = TreasuryContract(\n            TREASURY_CONTRACT_ADDRESS\n        );\n\n        uint256 tokenId = treasuryContract.getCommunityTokenId(recordId);\n        uint256 totalReward = 0;\n\n        require(\n            dividendClaimMapping[dividendIdArray[newClaimIndex]][msg.sender] ==\n                false,\n            \"Can only claim once\"\n        );\n\n        for (; newClaimIndex < dividendIdArray.length; newClaimIndex++) {\n            uint256 rewardAmount = _calculateSingleRoyaltyAmount(\n                dividendIdArray[newClaimIndex],\n                tokenId\n            );\n\n            emit RoyaltyPaymentClaimed({\n                dividendId: dividendIdArray[newClaimIndex],\n                recordId: recordId,\n                agreementId: agreementId,\n                rewardAmount: rewardAmount,\n                userAddress: msg.sender\n            });\n\n            uint256 index = dividendIdArray[newClaimIndex];\n            dividendClaimMapping[index][msg.sender] = true;\n\n            totalReward = rewardAmount + totalReward;\n        }\n\n        //If the total is not bigger then 0 then it means that user doesn't have any pending claim\n        // require(totalReward > 0, \"You have no pending claims\");\n\n        /**\n            //! When you uncomment the below code then it just causes the crash without a proper reason, here we expect crash to return \"You have no pending claims\" but instead it just throws error with\n            -Transaction: 0x5896b98d557a472e4f0063783b9e8bcf8ce7982de710c1c3c69c727e9989066a exited with an error (status 0) after consuming all gas.\n            -     Please check that the transaction:\n            -     - satisfies all conditions set by Solidity `assert` statements.\n            -     - has enough gas to execute the full transaction.\n            -     - does not trigger an invalid opcode by other means (ex: accessing an array out of bounds).\n       */\n        // require(false, \"You have no pending claims\");\n\n        treasuryContract.safeTransferFrom(\n            address(this),\n            msg.sender,\n            treasuryContract.CRD(),\n            totalReward,\n            \"Royalty payment claim\"\n        );\n    }\n\n    /**\n     * @dev This function is for testing purpose for distributing the royalty payment\n     */\n    function _calculateSingleRoyaltyAmount(uint256 diviId, uint256 tokenId)\n        internal\n        view\n        returns (uint256)\n    {\n        DividendData memory dividend = dividendDataMapping[diviId];\n        TreasuryContract treasuryContract = TreasuryContract(\n            TREASURY_CONTRACT_ADDRESS\n        );\n\n        uint256 tokenBal = treasuryContract.balanceOfAt(\n            msg.sender,\n            dividend.snapshotId,\n            tokenId\n        );\n\n        if (tokenBal == 0) {\n            return 0;\n        }\n\n        return dividend.dividendPerTokenWei * (tokenBal / 1 ether);\n    }\n\n    /**\n     * @dev\n     */\n    function _getNewClaimIndex(uint256[] memory dividendIdArray, address user)\n        internal\n        view\n        returns (uint256)\n    {\n        if (dividendIdArray.length == 0) {\n            return 0;\n        }\n\n        uint256 low = 0;\n        uint256 high = dividendIdArray.length;\n        uint256 lastClaimedDividendId = 0;\n        while (low < high) {\n            uint256 mid = Math.average(low, high);\n            lastClaimedDividendId = dividendIdArray[mid];\n            bool claimStatus = dividendClaimMapping[lastClaimedDividendId][\n                user\n            ];\n\n            //If claimStatus is false then it means that there are some elements that are yet to be claimed so we will go\n            //down and search there\n            if (!claimStatus && high != mid) {\n                high = mid;\n            } else {\n                low = mid + 1;\n            }\n        }\n\n        if (\n            low > 0 &&\n            dividendClaimMapping[dividendIdArray[low - 1]][user] == false\n        ) return low - 1;\n        else if (\n            low < dividendIdArray.length &&\n            dividendClaimMapping[dividendIdArray[low]][user] == true\n        ) return low + 1;\n        else return low;\n    }\n\n    function onERC1155Received(\n        address operator,\n        address from,\n        uint256 id,\n        uint256 value,\n        bytes calldata data\n    ) external virtual returns (bytes4) {\n        return\n            bytes4(\n                keccak256(\n                    \"onERC1155Received(address,address,uint256,uint256,bytes)\"\n                )\n            );\n    }\n\n    function onERC1155BatchReceived(\n        address operator,\n        address from,\n        uint256[] calldata ids,\n        uint256[] calldata values,\n        bytes calldata data\n    ) external virtual returns (bytes4) {\n        return\n            bytes4(\n                keccak256(\n                    \"onERC1155BatchReceived(address,address,uint256[],uint256[],bytes)\"\n                )\n            );\n    }\n}\n",
  "sourcePath": "/Users/a1/Desktop/Office/projects/CrowdRecords/Contracts/contracts/AgreementContract.sol",
  "compiler": {
    "name": "solc",
    "version": "0.8.12+commit.f00d7308.Emscripten.clang"
  },
  "schemaVersion": "3.4.6",
  "updatedAt": "2022-07-17T12:21:35.041Z",
  "devdoc": {
    "events": {
      "AgreementVoting(address,uint256,uint256,bool)": {
        "details": "This is when a user votes for a publishing agreement",
        "params": {
          "agreementId": "This is the id of the publishing agreement that is linked to this ballot ",
          "ballotId": "Id of the ballot where voting is stored",
          "vote": "State of vote : true for yes and false for No",
          "voter": "Address of the voter"
        }
      },
      "BallotResult(uint256,uint256,bool)": {
        "details": "this event is generated when result of a ballot is declared",
        "params": {
          "agreementId": "This is the id of the agreement that is linked to this ballot ",
          "ballotId": "this is the ballot Id for which result is declared ",
          "result": "this is the status of the result //either true if user won that is he received more than 66% of votes or false if user lost "
        }
      }
    },
    "kind": "dev",
    "methods": {
      "castVoteForAgreement(uint256,bool)": {
        "details": "This function is called by any user to cast vote",
        "params": {
          "agreementId": "this is the id of the agreement for which user is voting",
          "vote": "this is the state of the vote, if true than it means the vote is in favour of the ballot"
        }
      },
      "claimRoyaltyAmount(uint256)": {
        "details": "This function is for testing purpose for distributing the royalty payment"
      },
      "createAgreement(uint256,string,string)": {
        "details": "This function will create a new agreement voting ballot"
      },
      "declareWinner(uint256)": {
        "details": "This function can be called from external source and also from within the contract",
        "params": {
          "agreementId": "this is the id of the agreement of which the winner is to be decleared"
        }
      },
      "payRoyaltyAmount(uint256,uint256)": {
        "details": "This function is for testing purpose for distributing the royalty payment"
      },
      "setTreasuryContractAddress(address)": {
        "details": "This function sets the treasury Contract address"
      }
    },
    "version": 1
  },
  "userdoc": {
    "kind": "user",
    "methods": {},
    "version": 1
  }
}