{
  "contractName": "BaseVotingContractMock",
  "abi": [
    {
      "inputs": [
        {
          "internalType": "uint8",
          "name": "votingInterval",
          "type": "uint8"
        }
      ],
      "stateMutability": "nonpayable",
      "type": "constructor"
    },
    {
      "anonymous": false,
      "inputs": [
        {
          "indexed": false,
          "internalType": "uint256",
          "name": "ballotId",
          "type": "uint256"
        },
        {
          "indexed": false,
          "internalType": "bool",
          "name": "result",
          "type": "bool"
        }
      ],
      "name": "BallotResult",
      "type": "event"
    },
    {
      "inputs": [],
      "name": "TREASURY_CONTRACT_ADDRESS",
      "outputs": [
        {
          "internalType": "address",
          "name": "",
          "type": "address"
        }
      ],
      "stateMutability": "view",
      "type": "function",
      "constant": true
    },
    {
      "inputs": [],
      "name": "TREASURY_HUB_ADDRESS",
      "outputs": [
        {
          "internalType": "address",
          "name": "",
          "type": "address"
        }
      ],
      "stateMutability": "view",
      "type": "function",
      "constant": true
    },
    {
      "inputs": [
        {
          "internalType": "address",
          "name": "user",
          "type": "address"
        },
        {
          "internalType": "uint256",
          "name": "tokenId",
          "type": "uint256"
        },
        {
          "internalType": "uint256",
          "name": "previousBalance",
          "type": "uint256"
        },
        {
          "internalType": "uint256",
          "name": "newBalance",
          "type": "uint256"
        }
      ],
      "name": "_handleUserTokenTransfers",
      "outputs": [],
      "stateMutability": "nonpayable",
      "type": "function"
    },
    {
      "inputs": [
        {
          "internalType": "address",
          "name": "newTreasuryContractAddress",
          "type": "address"
        }
      ],
      "name": "setTreasuryContractAddress",
      "outputs": [],
      "stateMutability": "nonpayable",
      "type": "function"
    },
    {
      "inputs": [
        {
          "internalType": "bool",
          "name": "canOwnerVote",
          "type": "bool"
        },
        {
          "internalType": "uint256",
          "name": "tokenId",
          "type": "uint256"
        }
      ],
      "name": "createBallot",
      "outputs": [],
      "stateMutability": "nonpayable",
      "type": "function"
    },
    {
      "inputs": [
        {
          "internalType": "uint256",
          "name": "ballotId",
          "type": "uint256"
        },
        {
          "internalType": "bool",
          "name": "vote",
          "type": "bool"
        }
      ],
      "name": "castVote",
      "outputs": [],
      "stateMutability": "nonpayable",
      "type": "function"
    },
    {
      "inputs": [
        {
          "internalType": "uint256",
          "name": "ballotId",
          "type": "uint256"
        },
        {
          "internalType": "bool",
          "name": "vote",
          "type": "bool"
        },
        {
          "internalType": "address",
          "name": "voter",
          "type": "address"
        }
      ],
      "name": "castVoteForOther",
      "outputs": [],
      "stateMutability": "nonpayable",
      "type": "function"
    },
    {
      "inputs": [
        {
          "internalType": "uint256",
          "name": "ballotId",
          "type": "uint256"
        }
      ],
      "name": "declareWinner",
      "outputs": [],
      "stateMutability": "nonpayable",
      "type": "function"
    }
  ],
  "bytecode": "0x60806040526019600055600060045560016009553480156200002057600080fd5b5060405162001e3138038062001e318339818101604052810190620000469190620000db565b33600360006101000a81548173ffffffffffffffffffffffffffffffffffffffff021916908373ffffffffffffffffffffffffffffffffffffffff1602179055508060ff16600081905550506200010d565b600080fd5b600060ff82169050919050565b620000b5816200009d565b8114620000c157600080fd5b50565b600081519050620000d581620000aa565b92915050565b600060208284031215620000f457620000f362000098565b5b60006200010484828501620000c4565b91505092915050565b611d14806200011d6000396000f3fe608060405234801561001057600080fd5b50600436106100875760003560e01c806382f61de51161005b57806382f61de5146100fc5780638d2ae1f714610118578063abb7ed7f14610136578063acb314931461015257610087565b8062c2943c1461008c57806315373e3d146100a85780634cf2d48f146100c45780636dce8664146100e0575b600080fd5b6100a660048036038101906100a191906113e2565b610170565b005b6100c260048036038101906100bd9190611447565b6101ba565b005b6100de60048036038101906100d991906114e5565b6101c8565b005b6100fa60048036038101906100f59190611512565b610264565b005b61011660048036038101906101119190611552565b610273565b005b610120610283565b60405161012d91906115b4565b60405180910390f35b610150600480360381019061014b91906115cf565b6102a9565b005b61015a6104a2565b60405161016791906115b4565b60405180910390f35b600061017b826104c8565b90507f53d10fab88267d8231908eb87e8f64a19ceecd01180ef034a610f9b35783ba5382826040516101ae929190611654565b60405180910390a15050565b6101c48282610745565b5050565b600360009054906101000a900473ffffffffffffffffffffffffffffffffffffffff1673ffffffffffffffffffffffffffffffffffffffff163373ffffffffffffffffffffffffffffffffffffffff1614610258576040517f08c379a000000000000000000000000000000000000000000000000000000000815260040161024f90611700565b60405180910390fd5b61026181610a38565b50565b61026e8282610b0c565b505050565b61027e838383610ca9565b505050565b600260009054906101000a900473ffffffffffffffffffffffffffffffffffffffff1681565b6000600860008673ffffffffffffffffffffffffffffffffffffffff1673ffffffffffffffffffffffffffffffffffffffff168152602001908152602001600020905060005b818054905081101561049a57600115156005600084848154811061031657610315611720565b5b9060005260206000200154815260200190815260200160002060070160009054906101000a900460ff16151514806103805750436005600084848154811061036157610360611720565b5b9060005260206000200154815260200190815260200160002060060154105b15610421578160018380549050610397919061177e565b815481106103a8576103a7611720565b5b90600052602060002001548282815481106103c6576103c5611720565b5b9060005260206000200181905550818054806103e5576103e46117b2565b5b60019003818190600052602060002001600090559055600081141561040d576000905061041c565b8080610418906117e1565b9150505b610487565b6005600083838154811061043857610437611720565b5b90600052602060002001548152602001908152602001600020600501548514156104865761048582828154811061047257610471611720565b5b9060005260206000200154878686610e23565b5b5b80806104929061180b565b9150506102ef565b505050505050565b600160009054906101000a900473ffffffffffffffffffffffffffffffffffffffff1681565b6000600115156005600084815260200190815260200160002060070160029054906101000a900460ff16151514610534576040517f08c379a000000000000000000000000000000000000000000000000000000000815260040161052b906118a0565b60405180910390fd5b4360056000848152602001908152602001600020600601541061058c576040517f08c379a00000000000000000000000000000000000000000000000000000000081526004016105839061190c565b60405180910390fd5b600015156005600084815260200190815260200160002060070160009054906101000a900460ff161515146105f6576040517f08c379a00000000000000000000000000000000000000000000000000000000081526004016105ed90611978565b60405180910390fd5b60006005600084815260200190815260200160002090506000816001015490506000600160009054906101000a900473ffffffffffffffffffffffffffffffffffffffff16905060016005600087815260200190815260200160002060070160006101000a81548160ff02191690831515021790555060008211156107385760008173ffffffffffffffffffffffffffffffffffffffff1663036c22ad85600501546040518263ffffffff1660e01b81526004016106b49190611998565b602060405180830381865afa1580156106d1573d6000803e3d6000fd5b505050506040513d601f19601f820116820180604052508101906106f591906119c8565b90506000606460428361070891906119f5565b6107129190611a7e565b90508084111561072a57600195505050505050610740565b600095505050505050610740565b600093505050505b919050565b8133600115156005600084815260200190815260200160002060070160029054906101000a900460ff161515146107b1576040517f08c379a00000000000000000000000000000000000000000000000000000000081526004016107a8906118a0565b60405180910390fd5b43600560008481526020019081526020016000206006015411610809576040517f08c379a000000000000000000000000000000000000000000000000000000000815260040161080090611afb565b60405180910390fd5b600015156006600084815260200190815260200160002060008373ffffffffffffffffffffffffffffffffffffffff1673ffffffffffffffffffffffffffffffffffffffff16815260200190815260200160002060009054906101000a900460ff161515146108ad576040517f08c379a00000000000000000000000000000000000000000000000000000000081526004016108a490611b67565b60405180910390fd5b836005600082815260200190815260200160002060070160019054906101000a900460ff161561098057600015156006600083815260200190815260200160002060003273ffffffffffffffffffffffffffffffffffffffff1673ffffffffffffffffffffffffffffffffffffffff16815260200190815260200160002060009054906101000a900460ff1615151461097b576040517f08c379a000000000000000000000000000000000000000000000000000000000815260040161097290611b67565b60405180910390fd5b610a26565b6005600082815260200190815260200160002060000160009054906101000a900473ffffffffffffffffffffffffffffffffffffffff1673ffffffffffffffffffffffffffffffffffffffff163273ffffffffffffffffffffffffffffffffffffffff161415610a25576040517f08c379a0000000000000000000000000000000000000000000000000000000008152600401610a1c90611bd3565b60405180910390fd5b5b610a31858532610ff0565b5050505050565b600360009054906101000a900473ffffffffffffffffffffffffffffffffffffffff1673ffffffffffffffffffffffffffffffffffffffff163373ffffffffffffffffffffffffffffffffffffffff1614610ac8576040517f08c379a0000000000000000000000000000000000000000000000000000000008152600401610abf90611700565b60405180910390fd5b80600160006101000a81548173ffffffffffffffffffffffffffffffffffffffff021916908373ffffffffffffffffffffffffffffffffffffffff16021790555050565b600060046000815480929190610b219061180b565b919050555060006040518061014001604052803273ffffffffffffffffffffffffffffffffffffffff1681526020016000815260200160008152602001600081526020016000815260200184815260200160005443610b809190611bf3565b815260200160001515815260200185151581526020016001151581525090508060056000600454815260200190815260200160002060008201518160000160006101000a81548173ffffffffffffffffffffffffffffffffffffffff021916908373ffffffffffffffffffffffffffffffffffffffff1602179055506020820151816001015560408201518160020155606082015181600301556080820151816004015560a0820151816005015560c0820151816006015560e08201518160070160006101000a81548160ff0219169083151502179055506101008201518160070160016101000a81548160ff0219169083151502179055506101208201518160070160026101000a81548160ff02191690831515021790555090505060045491505092915050565b8281600115156005600084815260200190815260200160002060070160029054906101000a900460ff16151514610d15576040517f08c379a0000000000000000000000000000000000000000000000000000000008152600401610d0c906118a0565b60405180910390fd5b43600560008481526020019081526020016000206006015411610d6d576040517f08c379a0000000000000000000000000000000000000000000000000000000008152600401610d6490611afb565b60405180910390fd5b600015156006600084815260200190815260200160002060008373ffffffffffffffffffffffffffffffffffffffff1673ffffffffffffffffffffffffffffffffffffffff16815260200190815260200160002060009054906101000a900460ff16151514610e11576040517f08c379a0000000000000000000000000000000000000000000000000000000008152600401610e0890611b67565b60405180910390fd5b610e1c858585610ff0565b5050505050565b600115156006600086815260200190815260200160002060008573ffffffffffffffffffffffffffffffffffffffff1673ffffffffffffffffffffffffffffffffffffffff16815260200190815260200160002060009054906101000a900460ff16151514610ec7576040517f08c379a0000000000000000000000000000000000000000000000000000000008152600401610ebe90611c95565b60405180910390fd5b60006007600086815260200190815260200160002060008573ffffffffffffffffffffffffffffffffffffffff1673ffffffffffffffffffffffffffffffffffffffff16815260200190815260200160002060009054906101000a900460ff1690508015610f8e5782600560008781526020019081526020016000206001016000828254610f55919061177e565b9250508190555081600560008781526020019081526020016000206001016000828254610f829190611bf3565b92505081905550610fe9565b82600560008781526020019081526020016000206003016000828254610fb4919061177e565b9250508190555081600560008781526020019081526020016000206003016000828254610fe19190611bf3565b925050819055505b5050505050565b6000600160009054906101000a900473ffffffffffffffffffffffffffffffffffffffff169050600060056000868152602001908152602001600020604051806101400160405290816000820160009054906101000a900473ffffffffffffffffffffffffffffffffffffffff1673ffffffffffffffffffffffffffffffffffffffff1673ffffffffffffffffffffffffffffffffffffffff1681526020016001820154815260200160028201548152602001600382015481526020016004820154815260200160058201548152602001600682015481526020016007820160009054906101000a900460ff161515151581526020016007820160019054906101000a900460ff161515151581526020016007820160029054906101000a900460ff161515151581525050905060008273ffffffffffffffffffffffffffffffffffffffff1662fdd58e858460a001516040518363ffffffff1660e01b815260040161115d929190611cb5565b602060405180830381865afa15801561117a573d6000803e3d6000fd5b505050506040513d601f19601f8201168201806040525081019061119e91906119c8565b9050841561120657806005600088815260200190815260200160002060010160008282546111cc9190611bf3565b9250508190555060016005600088815260200190815260200160002060020160008282546111fa9190611bf3565b92505081905550611262565b8060056000888152602001908152602001600020600301600082825461122c9190611bf3565b92505081905550600160056000888152602001908152602001600020600401600082825461125a9190611bf3565b925050819055505b60016006600088815260200190815260200160002060008673ffffffffffffffffffffffffffffffffffffffff1673ffffffffffffffffffffffffffffffffffffffff16815260200190815260200160002060006101000a81548160ff021916908315150217905550846007600088815260200190815260200160002060008673ffffffffffffffffffffffffffffffffffffffff1673ffffffffffffffffffffffffffffffffffffffff16815260200190815260200160002060006101000a81548160ff0219169083151502179055506000600860008673ffffffffffffffffffffffffffffffffffffffff1673ffffffffffffffffffffffffffffffffffffffff16815260200190815260200160002090508087908060018154018082558091505060019003906000526020600020016000909190919091505550505050505050565b600080fd5b6000819050919050565b6113bf816113ac565b81146113ca57600080fd5b50565b6000813590506113dc816113b6565b92915050565b6000602082840312156113f8576113f76113a7565b5b6000611406848285016113cd565b91505092915050565b60008115159050919050565b6114248161140f565b811461142f57600080fd5b50565b6000813590506114418161141b565b92915050565b6000806040838503121561145e5761145d6113a7565b5b600061146c858286016113cd565b925050602061147d85828601611432565b9150509250929050565b600073ffffffffffffffffffffffffffffffffffffffff82169050919050565b60006114b282611487565b9050919050565b6114c2816114a7565b81146114cd57600080fd5b50565b6000813590506114df816114b9565b92915050565b6000602082840312156114fb576114fa6113a7565b5b6000611509848285016114d0565b91505092915050565b60008060408385031215611529576115286113a7565b5b600061153785828601611432565b9250506020611548858286016113cd565b9150509250929050565b60008060006060848603121561156b5761156a6113a7565b5b6000611579868287016113cd565b935050602061158a86828701611432565b925050604061159b868287016114d0565b9150509250925092565b6115ae816114a7565b82525050565b60006020820190506115c960008301846115a5565b92915050565b600080600080608085870312156115e9576115e86113a7565b5b60006115f7878288016114d0565b9450506020611608878288016113cd565b9350506040611619878288016113cd565b925050606061162a878288016113cd565b91505092959194509250565b61163f816113ac565b82525050565b61164e8161140f565b82525050565b60006040820190506116696000830185611636565b6116766020830184611645565b9392505050565b600082825260208201905092915050565b7f596f7520617265206e6f7420617574686f72697a656420666f7220746869732060008201527f616374696f6e0000000000000000000000000000000000000000000000000000602082015250565b60006116ea60268361167d565b91506116f58261168e565b604082019050919050565b60006020820190508181036000830152611719816116dd565b9050919050565b7f4e487b7100000000000000000000000000000000000000000000000000000000600052603260045260246000fd5b7f4e487b7100000000000000000000000000000000000000000000000000000000600052601160045260246000fd5b6000611789826113ac565b9150611794836113ac565b9250828210156117a7576117a661174f565b5b828203905092915050565b7f4e487b7100000000000000000000000000000000000000000000000000000000600052603160045260246000fd5b60006117ec826113ac565b91506000821415611800576117ff61174f565b5b600182039050919050565b6000611816826113ac565b91507fffffffffffffffffffffffffffffffffffffffffffffffffffffffffffffffff8214156118495761184861174f565b5b600182019050919050565b7f4e6f2062616c6c6f74207769746820796f757220696420697320666f756e6400600082015250565b600061188a601f8361167d565b915061189582611854565b602082019050919050565b600060208201905081810360008301526118b98161187d565b9050919050565b7f566f74696e672074696d65206973206e6f74206f766572207965740000000000600082015250565b60006118f6601b8361167d565b9150611901826118c0565b602082019050919050565b60006020820190508181036000830152611925816118e9565b9050919050565b7f526573756c7420616c7265616479206465636c61726564000000000000000000600082015250565b600061196260178361167d565b915061196d8261192c565b602082019050919050565b6000602082019050818103600083015261199181611955565b9050919050565b60006020820190506119ad6000830184611636565b92915050565b6000815190506119c2816113b6565b92915050565b6000602082840312156119de576119dd6113a7565b5b60006119ec848285016119b3565b91505092915050565b6000611a00826113ac565b9150611a0b836113ac565b9250817fffffffffffffffffffffffffffffffffffffffffffffffffffffffffffffffff0483118215151615611a4457611a4361174f565b5b828202905092915050565b7f4e487b7100000000000000000000000000000000000000000000000000000000600052601260045260246000fd5b6000611a89826113ac565b9150611a94836113ac565b925082611aa457611aa3611a4f565b5b828204905092915050565b7f566f74696e672074696d65206973206f76657200000000000000000000000000600082015250565b6000611ae560138361167d565b9150611af082611aaf565b602082019050919050565b60006020820190508181036000830152611b1481611ad8565b9050919050565b7f596f75206861766520616c726561647920766f74656400000000000000000000600082015250565b6000611b5160168361167d565b9150611b5c82611b1b565b602082019050919050565b60006020820190508181036000830152611b8081611b44565b9050919050565b7f4f776e65722063616e6e6f7420766f7465000000000000000000000000000000600082015250565b6000611bbd60118361167d565b9150611bc882611b87565b602082019050919050565b60006020820190508181036000830152611bec81611bb0565b9050919050565b6000611bfe826113ac565b9150611c09836113ac565b9250827fffffffffffffffffffffffffffffffffffffffffffffffffffffffffffffffff03821115611c3e57611c3d61174f565b5b828201905092915050565b7f5573657220686173206e6f7420766f7465642079657400000000000000000000600082015250565b6000611c7f60168361167d565b9150611c8a82611c49565b602082019050919050565b60006020820190508181036000830152611cae81611c72565b9050919050565b6000604082019050611cca60008301856115a5565b611cd76020830184611636565b939250505056fea264697066735822122041273a28d3674b98d56f7ff3e83473b42655d014b4a2958732976573d00a9a4b64736f6c634300080c0033",
  "immutableReferences": {},
  "source": "// SPDX-License-Identifier: MIT\n\npragma solidity ^0.8.0;\n\nimport \"../voting/BaseVotingContract.sol\";\n\ncontract BaseVotingContractMock is BaseVotingContract {\n    uint256 private LastTokenId = 1;\n    /**\n        @dev this event is genrated when result of a ballot is declared\n        @param ballotId this is the ballot Id for which result is declared \n        @param result this is the status of the result //either true if user won that is he recived more than 66% of votes or false if user lost \n     */\n    event BallotResult(uint256 ballotId, bool result);\n\n    constructor(uint8 votingInterval) {\n        VOTING_BLOCK_PERIOD = votingInterval;\n    }\n\n    /**\n     * @dev This function sets the treasury Contract address\n     */\n    function setTreasuryContractAddress(address newTreasuryContractAddress)\n        external\n        _ownerOnly\n    {\n        _setTreasuryContractAddress(newTreasuryContractAddress);\n    }\n\n    function createBallot(bool canOwnerVote, uint256 tokenId) public {\n        _createVoting(canOwnerVote, tokenId);\n    }\n\n    function castVote(uint256 ballotId, bool vote) public {\n        _castVote(ballotId, vote);\n    }\n\n    function castVoteForOther(\n        uint256 ballotId,\n        bool vote,\n        address voter\n    ) public {\n        _castVoteForOther(ballotId, vote, voter);\n    }\n\n    function declareWinner(uint256 ballotId) public {\n        bool result = _declareWinner(ballotId);\n        emit BallotResult(ballotId, result);\n    }\n}\n",
  "sourcePath": "/Users/a1/Desktop/Office/projects/CrowdRecords/Contracts/contracts/Mocks/BaseVotingContractMock.sol",
  "compiler": {
    "name": "solc",
    "version": "0.8.12+commit.f00d7308.Emscripten.clang"
  },
  "schemaVersion": "3.4.6",
  "updatedAt": "2022-07-28T07:30:31.873Z",
  "networkType": "ethereum",
  "devdoc": {
    "events": {
      "BallotResult(uint256,bool)": {
        "details": "this event is genrated when result of a ballot is declared",
        "params": {
          "ballotId": "this is the ballot Id for which result is declared ",
          "result": "this is the status of the result //either true if user won that is he recived more than 66% of votes or false if user lost "
        }
      }
    },
    "kind": "dev",
    "methods": {
      "_handleUserTokenTransfers(address,uint256,uint256,uint256)": {
        "details": "This function will be called when either user is transferring the tokens to other account, or is receiving tokens from other tokens.",
        "params": {
          "newBalance": "this is the new balance of the user that is after the transfer",
          "previousBalance": "this is the old balance of the user",
          "user": "address of the user whose balance is being changed"
        }
      },
      "setTreasuryContractAddress(address)": {
        "details": "This function sets the treasury Contract address"
      }
    },
    "version": 1
  },
  "userdoc": {
    "kind": "user",
    "methods": {},
    "version": 1
  }
}