{
  "contractName": "BaseVotingCounterOfferContract",
  "abi": [
    {
      "inputs": [],
      "name": "ORDER_CONTRACT_ADDRESS",
      "outputs": [
        {
          "internalType": "address",
          "name": "",
          "type": "address"
        }
      ],
      "stateMutability": "view",
      "type": "function"
    },
    {
      "inputs": [],
      "name": "TREASURY_CONTRACT_ADDRESS",
      "outputs": [
        {
          "internalType": "address",
          "name": "",
          "type": "address"
        }
      ],
      "stateMutability": "view",
      "type": "function"
    }
  ],
  "bytecode": "0x60806040526019600055600060045534801561001a57600080fd5b5033600360006101000a81548173ffffffffffffffffffffffffffffffffffffffff021916908373ffffffffffffffffffffffffffffffffffffffff1602179055506101558061006b6000396000f3fe608060405234801561001057600080fd5b50600436106100365760003560e01c8063acb314931461003b578063d188527814610059575b600080fd5b610043610077565b6040516100509190610104565b60405180910390f35b61006161009d565b60405161006e9190610104565b60405180910390f35b600160009054906101000a900473ffffffffffffffffffffffffffffffffffffffff1681565b600260009054906101000a900473ffffffffffffffffffffffffffffffffffffffff1681565b600073ffffffffffffffffffffffffffffffffffffffff82169050919050565b60006100ee826100c3565b9050919050565b6100fe816100e3565b82525050565b600060208201905061011960008301846100f5565b9291505056fea26469706673582212206c3e362932b8596e87fee1cc4584b07ef52ae1012ea6f06b529b30822fff3f9964736f6c634300080c0033",
  "immutableReferences": {},
  "source": "// SPDX-License-Identifier: MIT\npragma solidity ^0.8.0;\n\nimport \"../TreasuryContract.sol\";\nimport \"@openzeppelin/contracts/utils/math/SafeMath.sol\";\nimport \"./BaseVotingContract.sol\";\n\ncontract BaseVotingCounterOfferContract is BaseVotingContract {\n    mapping(uint256 => mapping(address => bool)) counterOffered;\n\n    /**\n     * @dev This function check if the user has created the counter offer or not, if it is created it will revert the transaction\n     */\n    modifier _shouldNotHaveCreatedCounterOffer(uint256 votingBallotId) {\n        require(\n            counterOffered[votingBallotId][msg.sender] == false,\n            \"You have already given a counter offer\"\n        );\n        _;\n    }\n\n    /**\n     * @dev reverts transaction if the user has not created a counter offer\n     */\n    modifier _shouldHaveCreatedCounterOffer(uint256 votingBallotId) {\n        require(\n            counterOffered[votingBallotId][msg.sender] == true,\n            \"You have already given a counter offer\"\n        );\n        _;\n    }\n\n    /**\n     * @dev This modifier checks if a ballot is open for voting or has the time expired\n     */\n    modifier _checkIfCounterOffered(uint256 votingBallotId) {\n        require(\n            counterOffered[votingBallotId][msg.sender] == false,\n            \"You have already given a counter offer\"\n        );\n        _;\n    }\n\n    /**\n     * @dev This function is called by any user to cast vote\n     * @param votingBallotId this is the id of the ballot for which user is voting\n     * @param vote this is the state of the vote, if true than it means the vote is in favour of the ballot\n     */\n    function _castVote(uint256 votingBallotId, bool vote)\n        internal\n        override\n        _shouldNotHaveCreatedCounterOffer(votingBallotId)\n    {\n        super._castVote(votingBallotId, vote);\n    }\n\n    /**\n     * @dev This function is called when you create a counter offer\n     * @param votingBallotId this is the id of the ballot for which user is voting\n     */\n    function _createCounterOffer(uint256 votingBallotId)\n        internal\n        _shouldNotHaveCreatedCounterOffer(votingBallotId)\n    {\n        alreadyVoted[votingBallotId][msg.sender] = true;\n    }\n\n    /**\n     * @notice THIS IS ONLY FOR THE USERS WHO HAS APPLIED A CONTER OFFER\n     * @dev This function is called by any user to cast vote\n     * @param votingBallotId this is the id of the ballot for which user is voting\n     */\n    function _counterOfferAction(\n        uint256 votingBallotId,\n        address user,\n        bool vote\n    ) internal _shouldHaveCreatedCounterOffer(votingBallotId) {\n        super._castVoteForOther(votingBallotId, vote, user);\n    }\n}\n",
  "sourcePath": "/Users/a1/Desktop/Office/projects/CrowdRecords/Contracts/contracts/voting/BaseVotingCounterOfferContract.sol",
  "compiler": {
    "name": "solc",
    "version": "0.8.12+commit.f00d7308.Emscripten.clang"
  },
  "schemaVersion": "3.4.6",
  "updatedAt": "2022-06-23T08:30:38.355Z",
  "devdoc": {
    "kind": "dev",
    "methods": {},
    "version": 1
  },
  "userdoc": {
    "kind": "user",
    "methods": {},
    "version": 1
  }
}