{
  "contractName": "BaseVotingContract",
  "abi": [
    {
      "inputs": [
        {
          "internalType": "address",
          "name": "owner",
          "type": "address"
        }
      ],
      "stateMutability": "nonpayable",
      "type": "constructor"
    },
    {
      "anonymous": false,
      "inputs": [
        {
          "indexed": false,
          "internalType": "uint256",
          "name": "value",
          "type": "uint256"
        }
      ],
      "name": "DEBUG",
      "type": "event"
    },
    {
      "anonymous": false,
      "inputs": [
        {
          "indexed": false,
          "internalType": "address",
          "name": "owner",
          "type": "address"
        },
        {
          "indexed": false,
          "internalType": "uint256",
          "name": "ballotId",
          "type": "uint256"
        },
        {
          "indexed": false,
          "internalType": "uint256",
          "name": "depositAmount",
          "type": "uint256"
        }
      ],
      "name": "DepositClaimed",
      "type": "event"
    },
    {
      "anonymous": false,
      "inputs": [
        {
          "indexed": false,
          "internalType": "address",
          "name": "owner",
          "type": "address"
        },
        {
          "indexed": false,
          "internalType": "uint256",
          "name": "ballotId",
          "type": "uint256"
        },
        {
          "indexed": false,
          "internalType": "uint256",
          "name": "depositAmount",
          "type": "uint256"
        },
        {
          "indexed": false,
          "internalType": "bool",
          "name": "isClaimed",
          "type": "bool"
        },
        {
          "indexed": false,
          "internalType": "bool",
          "name": "isPresent",
          "type": "bool"
        }
      ],
      "name": "DepositCreated",
      "type": "event"
    },
    {
      "anonymous": false,
      "inputs": [
        {
          "indexed": false,
          "internalType": "uint8",
          "name": "version",
          "type": "uint8"
        }
      ],
      "name": "Initialized",
      "type": "event"
    },
    {
      "inputs": [],
      "name": "GOVERNANCE",
      "outputs": [
        {
          "internalType": "address",
          "name": "",
          "type": "address"
        }
      ],
      "stateMutability": "view",
      "type": "function"
    },
    {
      "inputs": [],
      "name": "MIN_TURNOUT_PERCENT",
      "outputs": [
        {
          "internalType": "uint256",
          "name": "",
          "type": "uint256"
        }
      ],
      "stateMutability": "view",
      "type": "function"
    },
    {
      "inputs": [],
      "name": "OWNER",
      "outputs": [
        {
          "internalType": "address",
          "name": "",
          "type": "address"
        }
      ],
      "stateMutability": "view",
      "type": "function"
    },
    {
      "inputs": [],
      "name": "TREASURY_CONTRACT_ADDRESS",
      "outputs": [
        {
          "internalType": "address",
          "name": "",
          "type": "address"
        }
      ],
      "stateMutability": "view",
      "type": "function"
    },
    {
      "inputs": [],
      "name": "TREASURY_HUB_ADDRESS",
      "outputs": [
        {
          "internalType": "address",
          "name": "",
          "type": "address"
        }
      ],
      "stateMutability": "view",
      "type": "function"
    },
    {
      "inputs": [],
      "name": "VOTING_BLOCK_PERIOD",
      "outputs": [
        {
          "internalType": "uint256",
          "name": "",
          "type": "uint256"
        }
      ],
      "stateMutability": "view",
      "type": "function"
    },
    {
      "inputs": [],
      "name": "VOTING_DEPOSIT",
      "outputs": [
        {
          "internalType": "uint256",
          "name": "",
          "type": "uint256"
        }
      ],
      "stateMutability": "view",
      "type": "function"
    },
    {
      "inputs": [
        {
          "internalType": "uint256",
          "name": "",
          "type": "uint256"
        }
      ],
      "name": "depositMap",
      "outputs": [
        {
          "internalType": "address",
          "name": "owner",
          "type": "address"
        },
        {
          "internalType": "uint256",
          "name": "ballotId",
          "type": "uint256"
        },
        {
          "internalType": "uint256",
          "name": "depositAmount",
          "type": "uint256"
        },
        {
          "internalType": "bool",
          "name": "isClaimed",
          "type": "bool"
        },
        {
          "internalType": "bool",
          "name": "isPresent",
          "type": "bool"
        }
      ],
      "stateMutability": "view",
      "type": "function"
    },
    {
      "inputs": [
        {
          "internalType": "uint256",
          "name": "",
          "type": "uint256"
        }
      ],
      "name": "votingMap",
      "outputs": [
        {
          "internalType": "address",
          "name": "owner",
          "type": "address"
        },
        {
          "internalType": "uint256",
          "name": "yesWeight",
          "type": "uint256"
        },
        {
          "internalType": "uint256",
          "name": "yesCount",
          "type": "uint256"
        },
        {
          "internalType": "uint256",
          "name": "noWeight",
          "type": "uint256"
        },
        {
          "internalType": "uint256",
          "name": "noCount",
          "type": "uint256"
        },
        {
          "internalType": "uint256",
          "name": "tokenId",
          "type": "uint256"
        },
        {
          "internalType": "uint256",
          "name": "votingEndBlock",
          "type": "uint256"
        },
        {
          "internalType": "bool",
          "name": "isResultDeclared",
          "type": "bool"
        },
        {
          "internalType": "bool",
          "name": "canOwnerVote",
          "type": "bool"
        },
        {
          "internalType": "bool",
          "name": "isPresent",
          "type": "bool"
        }
      ],
      "stateMutability": "view",
      "type": "function"
    },
    {
      "inputs": [
        {
          "internalType": "address",
          "name": "ownerAddress",
          "type": "address"
        }
      ],
      "name": "setOwnerAddress",
      "outputs": [],
      "stateMutability": "nonpayable",
      "type": "function"
    },
    {
      "inputs": [
        {
          "internalType": "uint256",
          "name": "minTurnOut",
          "type": "uint256"
        }
      ],
      "name": "setMinTurnOut",
      "outputs": [],
      "stateMutability": "nonpayable",
      "type": "function"
    },
    {
      "inputs": [
        {
          "internalType": "uint256",
          "name": "depositAmount",
          "type": "uint256"
        }
      ],
      "name": "setDepositAmount",
      "outputs": [],
      "stateMutability": "nonpayable",
      "type": "function"
    },
    {
      "inputs": [
        {
          "internalType": "uint256",
          "name": "votingPeriod",
          "type": "uint256"
        }
      ],
      "name": "setVotingPeriod",
      "outputs": [],
      "stateMutability": "nonpayable",
      "type": "function"
    },
    {
      "inputs": [
        {
          "internalType": "address",
          "name": "newTreasuryContractAddress",
          "type": "address"
        },
        {
          "internalType": "address",
          "name": "newGovernanceContractAddress",
          "type": "address"
        }
      ],
      "name": "initialize",
      "outputs": [],
      "stateMutability": "nonpayable",
      "type": "function"
    },
    {
      "inputs": [
        {
          "internalType": "address",
          "name": "user",
          "type": "address"
        },
        {
          "internalType": "uint256",
          "name": "tokenId",
          "type": "uint256"
        },
        {
          "internalType": "uint256",
          "name": "previousBalance",
          "type": "uint256"
        },
        {
          "internalType": "uint256",
          "name": "newBalance",
          "type": "uint256"
        }
      ],
      "name": "_handleUserTokenTransfers",
      "outputs": [],
      "stateMutability": "nonpayable",
      "type": "function"
    }
  ],
  "bytecode": "0x6080604052670de0b6b3a764000060015560196002556101f4600355600060085534801561002c57600080fd5b50604051610d70380380610d7083398101604081905261004b91610070565b600680546001600160a01b0319166001600160a01b03929092169190911790556100a0565b60006020828403121561008257600080fd5b81516001600160a01b038116811461009957600080fd5b9392505050565b610cc1806100af6000396000f3fe608060405234801561001057600080fd5b50600436106100f55760003560e01c80636d8cee5611610097578063abb7ed7f11610066578063abb7ed7f14610368578063acb314931461037b578063e1f2e0841461039b578063ea0217cf146103ae57600080fd5b80636d8cee561461029157806383b0b071146102a4578063879253a31461033f5780638d2ae1f71461034857600080fd5b806333e0ea2e116100d357806333e0ea2e14610179578063485cc9551461019057806363e249c1146101a35780636c83244a1461028857600080fd5b8063117803e3146100fa5780631462783414610144578063331a6bf514610164575b600080fd5b60065461011a9073ffffffffffffffffffffffffffffffffffffffff1681565b60405173ffffffffffffffffffffffffffffffffffffffff90911681526020015b60405180910390f35b60075461011a9073ffffffffffffffffffffffffffffffffffffffff1681565b610177610172366004610aba565b6103c1565b005b61018260035481565b60405190815260200161013b565b61017761019e366004610adc565b6104b4565b6102216101b1366004610b0f565b6009602052600090815260409020805460018201546002830154600384015460048501546005860154600687015460079097015473ffffffffffffffffffffffffffffffffffffffff909616969495939492939192909160ff80821691610100810482169162010000909104168a565b6040805173ffffffffffffffffffffffffffffffffffffffff909b168b5260208b0199909952978901969096526060880194909452608087019290925260a086015260c0850152151560e0840152151561010083015215156101208201526101400161013b565b61018260025481565b61017761029f366004610b0f565b61059e565b6102fc6102b2366004610b0f565b600c60205260009081526040902080546001820154600283015460039093015473ffffffffffffffffffffffffffffffffffffffff90921692909160ff8082169161010090041685565b6040805173ffffffffffffffffffffffffffffffffffffffff9096168652602086019490945292840191909152151560608301521515608082015260a00161013b565b61018260015481565b60055461011a9073ffffffffffffffffffffffffffffffffffffffff1681565b610177610376366004610b28565b610624565b60045461011a9073ffffffffffffffffffffffffffffffffffffffff1681565b6101776103a9366004610b0f565b6107e2565b6101776103bc366004610b0f565b610868565b60065473ffffffffffffffffffffffffffffffffffffffff16331461046d576040517f08c379a000000000000000000000000000000000000000000000000000000000815260206004820152602360248201527f554e415554484f52495a45443a2043414e4e4f545f504552464f524d5f41435460448201527f494f4e000000000000000000000000000000000000000000000000000000000060648201526084015b60405180910390fd5b600680547fffffffffffffffffffffffff00000000000000000000000000000000000000001673ffffffffffffffffffffffffffffffffffffffff92909216919091179055565b600054610100900460ff1661054b576040517f08c379a000000000000000000000000000000000000000000000000000000000815260206004820152602b60248201527f496e697469616c697a61626c653a20636f6e7472616374206973206e6f74206960448201527f6e697469616c697a696e670000000000000000000000000000000000000000006064820152608401610464565b6004805473ffffffffffffffffffffffffffffffffffffffff9384167fffffffffffffffffffffffff00000000000000000000000000000000000000009182161790915560078054929093169116179055565b60075473ffffffffffffffffffffffffffffffffffffffff16331461061f576040517f08c379a000000000000000000000000000000000000000000000000000000000815260206004820152601d60248201527f554e415554484f52495a45443a204f4e4c595f474f5645524e414e43450000006044820152606401610464565b600155565b73ffffffffffffffffffffffffffffffffffffffff84166000908152600d60205260408120905b81548110156107da576009600083838154811061066a5761066a610b61565b6000918252602080832090910154835282019290925260400190206007015460ff161515600114806106cd575043600960008484815481106106ae576106ae610b61565b9060005260206000200154815260200190815260200160002060060154105b1561076657815482906106e290600190610bbf565b815481106106f2576106f2610b61565b906000526020600020015482828154811061070f5761070f610b61565b90600052602060002001819055508180548061072d5761072d610bd6565b600190038181906000526020600020016000905590558060001415610754575060006107c8565b8061075e81610c05565b9150506107c8565b6009600083838154811061077c5761077c610b61565b90600052602060002001548152602001908152602001600020600501548514156107c8576107c88282815481106107b5576107b5610b61565b90600052602060002001548786866108ee565b806107d281610c3a565b91505061064b565b505050505050565b60075473ffffffffffffffffffffffffffffffffffffffff163314610863576040517f08c379a000000000000000000000000000000000000000000000000000000000815260206004820152601d60248201527f554e415554484f52495a45443a204f4e4c595f474f5645524e414e43450000006044820152606401610464565b600355565b60075473ffffffffffffffffffffffffffffffffffffffff1633146108e9576040517f08c379a000000000000000000000000000000000000000000000000000000000815260206004820152601d60248201527f554e415554484f52495a45443a204f4e4c595f474f5645524e414e43450000006044820152606401610464565b600255565b6000848152600a6020908152604080832073ffffffffffffffffffffffffffffffffffffffff8716845290915290205460ff1615156001146109b2576040517f08c379a000000000000000000000000000000000000000000000000000000000815260206004820152602560248201527f494e56414c49443a20494e5445524e414c3a20555345525f4841535f4e4f545f60448201527f564f5445440000000000000000000000000000000000000000000000000000006064820152608401610464565b6000848152600b6020908152604080832073ffffffffffffffffffffffffffffffffffffffff8716845290915290205460ff168015610a3d5760008581526009602052604081206001018054859290610a0c908490610bbf565b909155505060008581526009602052604081206001018054849290610a32908490610c73565b90915550610a8a9050565b60008581526009602052604081206003018054859290610a5e908490610bbf565b909155505060008581526009602052604081206003018054849290610a84908490610c73565b90915550505b5050505050565b803573ffffffffffffffffffffffffffffffffffffffff81168114610ab557600080fd5b919050565b600060208284031215610acc57600080fd5b610ad582610a91565b9392505050565b60008060408385031215610aef57600080fd5b610af883610a91565b9150610b0660208401610a91565b90509250929050565b600060208284031215610b2157600080fd5b5035919050565b60008060008060808587031215610b3e57600080fd5b610b4785610a91565b966020860135965060408601359560600135945092505050565b7f4e487b7100000000000000000000000000000000000000000000000000000000600052603260045260246000fd5b7f4e487b7100000000000000000000000000000000000000000000000000000000600052601160045260246000fd5b600082821015610bd157610bd1610b90565b500390565b7f4e487b7100000000000000000000000000000000000000000000000000000000600052603160045260246000fd5b600081610c1457610c14610b90565b507fffffffffffffffffffffffffffffffffffffffffffffffffffffffffffffffff0190565b60007fffffffffffffffffffffffffffffffffffffffffffffffffffffffffffffffff821415610c6c57610c6c610b90565b5060010190565b60008219821115610c8657610c86610b90565b50019056fea264697066735822122093b5c2921831e1f2790ca6799623d14dc85787276f63318bb3098ce45880cd0264736f6c634300080c0033",
  "immutableReferences": {},
  "source": "// SPDX-License-Identifier: MIT\npragma solidity ^0.8.0;\n\nimport \"@openzeppelin/contracts/utils/math/SafeMath.sol\";\nimport \"@openzeppelin/contracts-upgradeable/proxy/utils/Initializable.sol\";\nimport \"../interface/ITreasury.sol\";\nimport \"../OrdersContract.sol\";\n\ncontract BaseVotingContract is Initializable {\n    /// @dev this is Contribution Create event this event will be emited when a new contribution is created.\n    /// @param owner This is the owner of the voting ballot\n    /// @param yesWeight This is the weightage of yes in the ballot\n    /// @param yesCount This is the count of yes in the ballot\n    /// @param noWeight This is the weightage of no in the ballot\n    /// @param noCount This is the count of no in the ballot\n    /// @param tokenId This is the token id using which the voting is done\n    /// @param votingEndBlock This is the block number till which the voting can be done for specific ballot\n    /// @param isResultDeclared This specifies if result is declared\n    /// @param canOwnerVote This specifies if a owner can vote or not\n    /// @param isPresent This is to check if a ballot of specific id is present or not\n    struct VotingBallot {\n        address owner;\n        uint256 yesWeight;\n        uint256 yesCount;\n        uint256 noWeight;\n        uint256 noCount;\n        uint256 tokenId;\n        uint256 votingEndBlock;\n        bool isResultDeclared;\n        bool canOwnerVote;\n        bool isPresent;\n    }\n\n    /// @dev this is the voting deposit struct that maintains the record for the deposit made by user for voting\n    /// @param owner This is the owner of the voting deposit\n    /// @param ballotId This is the id of the voting ballot\n    /// @param depositAmount This is the amount of token that are deposited by the user\n    /// @param isClaimed This represents if a deposit has been claimed or not\n    /// @param isPresent This represents if a deposit has been actually created or not\n    struct VotingDeposit {\n        address owner;\n        uint256 ballotId;\n        uint256 depositAmount;\n        bool isClaimed;\n        bool isPresent;\n    }\n\n    /// @dev this will be emitted when a deposit is made\n    /// @param owner This is the owner of the voting deposit\n    /// @param ballotId This is the id of the voting ballot\n    /// @param depositAmount This is the amount of token that are deposited by the user\n    /// @param isClaimed This represents if a deposit has been claimed or not\n    /// @param isPresent This represents if a deposit has been actually created or not\n    event DepositCreated(\n        address owner,\n        uint256 ballotId,\n        uint256 depositAmount,\n        bool isClaimed,\n        bool isPresent\n    );\n\n    /// @dev this will be emitted when the user makes claim\n    /// @param owner This is the owner of the voting deposit\n    /// @param ballotId This is the id of the voting ballot\n    /// @param depositAmount This is the amount of token that are deposited by the user\n    event DepositClaimed(\n        address owner,\n        uint256 ballotId,\n        uint256 depositAmount\n    );\n\n    uint256 public VOTING_DEPOSIT = 1 ether;\n    uint256 public VOTING_BLOCK_PERIOD = 25;\n    uint256 public MIN_TURNOUT_PERCENT = 500;\n    address public TREASURY_CONTRACT_ADDRESS;\n    address public TREASURY_HUB_ADDRESS;\n    address public OWNER;\n    address public GOVERNANCE;\n\n    uint256 votingId = 0;\n    mapping(uint256 => VotingBallot) public votingMap;\n    //This mapping tracks the state of user, that is if they have voted already or not.\n    // Ballot id => user address => bool\n    mapping(uint256 => mapping(address => bool)) alreadyVoted;\n    //This mapping is useful if the user has voted, as this hold if user voted yes or no for a specific ballot,\n    mapping(uint256 => mapping(address => bool)) userVotes;\n\n    //This mapping keeps the record for the deposit for the voting ballot\n    mapping(uint256 => VotingDeposit) public depositMap;\n\n    //Active ballot list in which user have voted\n    // user address => List of ballot in which user has voted\n    mapping(address => uint256[]) userActiveVotedBallots;\n\n    constructor(address owner) {\n        OWNER = owner;\n    }\n\n    /// @dev This modifier checks if a ballot is open for voting or has the time expired\n    /// @param votingBallotId This is the id of the ballot which we are checking\n    /// @param voter This is the address of the voter for whom we are checking voting rights\n    modifier _checkIfBallotIsOpen(uint256 votingBallotId, address voter) {\n        require(\n            votingMap[votingBallotId].isPresent == true,\n            \"INVALID: BALLOT_NOT_FOUND\"\n        );\n\n        require(\n            votingMap[votingBallotId].votingEndBlock > block.number,\n            \"INVALID: VOTING_TIME_OVER\"\n        );\n\n        require(\n            alreadyVoted[votingBallotId][voter] == false,\n            \"INVALID: ALREADY_VOTED\"\n        );\n\n        _;\n    }\n\n    /// @dev Modifier to check that the person who accesses a specific function is the owner himself.\n    modifier _ownerOnly() {\n        require(msg.sender == OWNER, \"UNAUTHORIZED: CANNOT_PERFORM_ACTION\");\n        _;\n    }\n\n    /// @dev Modifier to check that the function is only accessible by governance.\n    modifier _governanceOnly() {\n        require(msg.sender == GOVERNANCE, \"UNAUTHORIZED: ONLY_GOVERNANCE\");\n        _;\n    }\n\n    /// @dev This modifier checks if a ballot is open for voting or has the time expired\n    /// @param votingBallotId This is the id of the ballot which we are checking\n    modifier _checkIfOwnerAllowed(uint256 votingBallotId) {\n        if (votingMap[votingBallotId].canOwnerVote) {\n            require(\n                alreadyVoted[votingBallotId][tx.origin] == false,\n                \"INVALID: ALREADY_VOTED\"\n            );\n        } else if (tx.origin == votingMap[votingBallotId].owner) {\n            revert(\"UNAUTHORIZED: OWNER_CANNOT_VOTE\");\n        }\n        _;\n    }\n\n    /// @dev This function sets the owner address\n    /// @param ownerAddress This is the address of the owner\n    function setOwnerAddress(address ownerAddress) public _ownerOnly {\n        OWNER = ownerAddress;\n    }\n\n    /// @dev This function sets the MIN_TURN_OUT percentage\n    /// @param minTurnOut This is the new turnout percentage value\n    function setMinTurnOut(uint minTurnOut) public _governanceOnly {\n        MIN_TURNOUT_PERCENT = minTurnOut;\n    }\n\n    /// @dev This function sets the VOTING_DEPOSIT percentage\n    /// @param depositAmount This is the new deposit amount needed for creating ballot\n    function setDepositAmount(uint depositAmount) public _governanceOnly {\n        VOTING_DEPOSIT = depositAmount;\n    }\n\n    /// @dev This function sets the VOTING_BLOCK_PERIOD percentage\n    /// @param votingPeriod This is the voting period\n    function setVotingPeriod(uint votingPeriod) public _governanceOnly {\n        VOTING_BLOCK_PERIOD = votingPeriod;\n    }\n\n    /// @dev This function is called by user to creata a new voting\n    /// @param canOwnerVote this is if a user can vote in a voting which he created\n    /// @param tokenId This is the id of the token using which voting can be done\n    function _createVoting(\n        bool canOwnerVote,\n        uint256 tokenId\n    ) internal returns (uint256) {\n        votingId++;\n\n        VotingBallot memory voting = VotingBallot({\n            owner: tx.origin,\n            yesWeight: 0,\n            yesCount: 0,\n            noWeight: 0,\n            noCount: 0,\n            tokenId: tokenId,\n            votingEndBlock: block.number + VOTING_BLOCK_PERIOD,\n            isResultDeclared: false,\n            canOwnerVote: canOwnerVote,\n            isPresent: true\n        });\n\n        votingMap[votingId] = voting;\n        return votingId;\n    }\n\n    /// @dev This function sets the treasury Contract address and the governance address\n    /// @param newTreasuryContractAddress This is the new address of treasury contract\n    /// @param newGovernanceContractAddress This is the address for the governance contract\n    function initialize(\n        address newTreasuryContractAddress,\n        address newGovernanceContractAddress\n    ) public virtual onlyInitializing {\n        TREASURY_CONTRACT_ADDRESS = newTreasuryContractAddress;\n        GOVERNANCE = newGovernanceContractAddress;\n    }\n\n    /// @dev This function is called by any user to cast vote\n    /// @param votingBallotId this is the id of the ballot for which user is voting\n    /// @param vote this is the state of the vote, if true than it means the vote is in favour of the ballot\n    function _castVote(\n        uint256 votingBallotId,\n        bool vote\n    )\n        internal\n        virtual\n        _checkIfBallotIsOpen(votingBallotId, msg.sender)\n        _checkIfOwnerAllowed(votingBallotId)\n    {\n        _castVotePrivate(votingBallotId, vote, tx.origin);\n    }\n\n    /// @dev This function is called when the vote is casted on later stages such as in counter offer where the vote is\n    /// reviewed before hand by the user and then it is accepted by the user.\n    /// @param votingBallotId this is the id of the ballot for which user is voting\n    /// @param vote this is the state of the vote, if true than it means the vote is in favour of the ballot\n    function _castVoteForOther(\n        uint256 votingBallotId,\n        bool vote,\n        address voter\n    ) internal _checkIfBallotIsOpen(votingBallotId, voter) {\n        _castVotePrivate(votingBallotId, vote, voter);\n    }\n\n    /// @dev core logic for voting\n    /// @param votingBallotId this is the id of the ballot for which user is voting\n    /// @param vote this is the state of the vote, if true than it means the vote is in favour of the ballot\n    /// @param voter Voter's address\n    function _castVotePrivate(\n        uint256 votingBallotId,\n        bool vote,\n        address voter\n    ) private {\n        ITreasury treasuryContract = ITreasury(TREASURY_CONTRACT_ADDRESS);\n        VotingBallot memory votingBallot = votingMap[votingBallotId];\n        uint256 bal = treasuryContract.balanceOf(voter, votingBallot.tokenId);\n\n        if (vote) {\n            votingMap[votingBallotId].yesWeight += bal;\n            votingMap[votingBallotId].yesCount += 1;\n        } else {\n            votingMap[votingBallotId].noWeight += bal;\n            votingMap[votingBallotId].noCount += 1;\n        }\n\n        alreadyVoted[votingBallotId][voter] = true;\n        userVotes[votingBallotId][voter] = vote;\n        uint256[] storage list = userActiveVotedBallots[voter];\n        list.push(votingBallotId);\n    }\n\n    /// @dev core logic for voting\n    /// @param votingBallotId this is the id of the ballot for which user is voting\n    /// @param voter Voter's address\n    /// @param oldWeight Old weight of the voter\n    /// @param newWeight New weight of the voter\n    function _changeVoteWeight(\n        uint256 votingBallotId,\n        address voter,\n        uint256 oldWeight,\n        uint256 newWeight\n    ) private {\n        require(\n            alreadyVoted[votingBallotId][voter] == true,\n            \"INVALID: INTERNAL: USER_HAS_NOT_VOTED\"\n        );\n        bool vote = userVotes[votingBallotId][voter];\n        if (vote) {\n            votingMap[votingBallotId].yesWeight -= oldWeight;\n            votingMap[votingBallotId].yesWeight += newWeight;\n        } else {\n            votingMap[votingBallotId].noWeight -= oldWeight;\n            votingMap[votingBallotId].noWeight += newWeight;\n        }\n    }\n\n    /// @dev This function will be called when either user is transferring the tokens to other account,\n    /// or is receiving tokens from other tokens.\n    /// @param user address of the user whose balance is being changed\n    /// @param previousBalance this is the old balance of the user\n    /// @param newBalance this is the new balance of the user that is after the transfer\n    function _handleUserTokenTransfers(\n        address user,\n        uint256 tokenId,\n        uint256 previousBalance,\n        uint256 newBalance\n    ) public virtual {\n        uint256[] storage ballotList = userActiveVotedBallots[user];\n        for (uint256 i = 0; i < ballotList.length; i++) {\n            if (\n                votingMap[ballotList[i]].isResultDeclared == true ||\n                votingMap[ballotList[i]].votingEndBlock < block.number\n            ) {\n                // Deleting the ballot if result is declared\n                ballotList[i] = ballotList[ballotList.length - 1];\n                ballotList.pop();\n                if (i == 0) {\n                    i = 0;\n                } else {\n                    i--;\n                }\n            } else if (tokenId == votingMap[ballotList[i]].tokenId) {\n                // Changing the weighage of the votes of user\n                _changeVoteWeight(\n                    ballotList[i],\n                    user,\n                    previousBalance,\n                    newBalance\n                );\n            }\n        }\n    }\n\n    /// @dev This function is called by any user to cast vote\n    /// @param votingBallotId this is the id of the ballot for which we need to find the winner\n    function _declareWinner(\n        uint256 votingBallotId\n    ) internal returns (bool isWinner, bool minTurnOut) {\n        require(\n            votingMap[votingBallotId].isPresent == true,\n            \"INVALID: BALLOT_NOT_FOUND\"\n        );\n\n        require(\n            votingMap[votingBallotId].votingEndBlock < block.number,\n            \"INVALID: VOTING_TIME_NOT_OVER\"\n        );\n\n        require(\n            votingMap[votingBallotId].isResultDeclared == false,\n            \"INVALID: RESULT_ALREADY_DECLARED\"\n        );\n\n        VotingBallot storage votingBallot = votingMap[votingBallotId];\n        uint256 totalYes = votingBallot.yesWeight;\n        uint256 totalNo = votingBallot.noWeight;\n\n        // Currently to win you would need to around 66% of votes to be yes\n        ITreasury treasuryContract = ITreasury(TREASURY_CONTRACT_ADDRESS);\n\n        votingMap[votingBallotId].isResultDeclared = true;\n\n        uint256 totalCirculatingSupply = treasuryContract\n            .totalCirculatingSupply(votingBallot.tokenId);\n\n        uint256 minimumTurnOutAmount = ((totalCirculatingSupply *\n            MIN_TURNOUT_PERCENT) / 100) / 100;\n        if (totalNo + totalYes > minimumTurnOutAmount) {\n            if (totalYes > 0) {\n                //calculating the 2/3rd value of the votes that were casted to identify how much we will need to win\n                uint256 winAmount = ((totalYes + totalNo) * 66) / 100;\n\n                //This will check for 2 / 3 ratio for yes votes\n                if (totalYes > winAmount) {\n                    return (true, true);\n                } else {\n                    return (false, true);\n                }\n            } else {\n                return (false, true);\n            }\n        } else {\n            return (false, false);\n        }\n    }\n\n    /// @dev This function is responsible for transfer of the ether balance\n    /// @param owner The owner who is depositing\n    /// @param ballotId The id of the ballot for which the deposit is made\n    function _createDeposit(address owner, uint256 ballotId) internal {\n        require(VOTING_DEPOSIT == msg.value, \"INV_DEP\");\n        VotingDeposit memory votingDeposit = VotingDeposit({\n            owner: owner,\n            ballotId: ballotId,\n            depositAmount: VOTING_DEPOSIT,\n            isClaimed: false,\n            isPresent: true\n        });\n        emit DepositCreated(\n            votingDeposit.owner,\n            votingDeposit.ballotId,\n            votingDeposit.depositAmount,\n            votingDeposit.isClaimed,\n            votingDeposit.isPresent\n        );\n        depositMap[ballotId] = votingDeposit;\n    }\n\n    event DEBUG(uint value);\n\n    /// @dev This function is responsible releasing the ether balance that was taken as deposit\n    /// @param ballotId The id of the ballot for which the deposit is made\n    function _releaseDeposit(uint256 ballotId) internal {\n        require(depositMap[ballotId].isPresent == true, \"DEP_NOT_EXIST\");\n        require(depositMap[ballotId].isClaimed == false, \"DEP_ALREADY_CLAIMED\");\n\n        (bool sent, ) = payable(depositMap[ballotId].owner).call{\n            value: depositMap[ballotId].depositAmount\n        }(\"\");\n\n        require(sent, \"INV_DEP_CLAIM\");\n\n        emit DepositClaimed(\n            depositMap[ballotId].owner,\n            ballotId,\n            depositMap[ballotId].depositAmount\n        );\n    }\n}\n",
  "sourcePath": "/Users/a1/Desktop/Office/projects/CrowdRecords/Contracts/contracts/voting/BaseVotingContract.sol",
  "compiler": {
    "name": "solc",
    "version": "0.8.12+commit.f00d7308.Emscripten.clang"
  },
  "schemaVersion": "3.4.6",
  "updatedAt": "2023-04-12T13:19:26.652Z",
  "devdoc": {
    "events": {
      "DepositClaimed(address,uint256,uint256)": {
        "details": "this will be emitted when the user makes claim",
        "params": {
          "ballotId": "This is the id of the voting ballot",
          "depositAmount": "This is the amount of token that are deposited by the user",
          "owner": "This is the owner of the voting deposit"
        }
      },
      "DepositCreated(address,uint256,uint256,bool,bool)": {
        "details": "this will be emitted when a deposit is made",
        "params": {
          "ballotId": "This is the id of the voting ballot",
          "depositAmount": "This is the amount of token that are deposited by the user",
          "isClaimed": "This represents if a deposit has been claimed or not",
          "isPresent": "This represents if a deposit has been actually created or not",
          "owner": "This is the owner of the voting deposit"
        }
      }
    },
    "kind": "dev",
    "methods": {
      "_handleUserTokenTransfers(address,uint256,uint256,uint256)": {
        "details": "This function will be called when either user is transferring the tokens to other account, or is receiving tokens from other tokens.",
        "params": {
          "newBalance": "this is the new balance of the user that is after the transfer",
          "previousBalance": "this is the old balance of the user",
          "user": "address of the user whose balance is being changed"
        }
      },
      "initialize(address,address)": {
        "details": "This function sets the treasury Contract address and the governance address",
        "params": {
          "newGovernanceContractAddress": "This is the address for the governance contract",
          "newTreasuryContractAddress": "This is the new address of treasury contract"
        }
      },
      "setDepositAmount(uint256)": {
        "details": "This function sets the VOTING_DEPOSIT percentage",
        "params": {
          "depositAmount": "This is the new deposit amount needed for creating ballot"
        }
      },
      "setMinTurnOut(uint256)": {
        "details": "This function sets the MIN_TURN_OUT percentage",
        "params": {
          "minTurnOut": "This is the new turnout percentage value"
        }
      },
      "setOwnerAddress(address)": {
        "details": "This function sets the owner address",
        "params": {
          "ownerAddress": "This is the address of the owner"
        }
      },
      "setVotingPeriod(uint256)": {
        "details": "This function sets the VOTING_BLOCK_PERIOD percentage",
        "params": {
          "votingPeriod": "This is the voting period"
        }
      }
    },
    "version": 1
  },
  "userdoc": {
    "kind": "user",
    "methods": {},
    "version": 1
  }
}