{
  "contractName": "BaseVotingContract",
  "abi": [
    {
      "inputs": [],
      "stateMutability": "nonpayable",
      "type": "constructor"
    },
    {
      "inputs": [],
      "name": "TREASURY_CONTRACT_ADDRESS",
      "outputs": [
        {
          "internalType": "address",
          "name": "",
          "type": "address"
        }
      ],
      "stateMutability": "view",
      "type": "function"
    }
  ],
  "bytecode": "0x60806040526019600055600060035534801561001a57600080fd5b5033600260006101000a81548173ffffffffffffffffffffffffffffffffffffffff021916908373ffffffffffffffffffffffffffffffffffffffff16021790555060f98061006a6000396000f3fe6080604052348015600f57600080fd5b506004361060285760003560e01c8063acb3149314602d575b600080fd5b60336047565b604051603e919060aa565b60405180910390f35b600160009054906101000a900473ffffffffffffffffffffffffffffffffffffffff1681565b600073ffffffffffffffffffffffffffffffffffffffff82169050919050565b6000609682606d565b9050919050565b60a481608d565b82525050565b600060208201905060bd6000830184609d565b9291505056fea2646970667358221220e253a46842b1a74f2ef5c04563f34571a8bb4697857ff29eebbc51010ed63de864736f6c634300080c0033",
  "immutableReferences": {},
  "source": "// SPDX-License-Identifier: MIT\npragma solidity ^0.8.0;\n\nimport \"../TreasuryContract.sol\";\nimport \"@openzeppelin/contracts/utils/math/SafeMath.sol\";\n\ncontract BaseVotingContract {\n    struct VotingBallot {\n        address owner;\n        address[] yes;\n        address[] no;\n        uint256 votingEndBlock;\n        bool isResultDeclared;\n        bool canOwnerVote;\n        bool isPresent;\n    }\n\n    uint256 VOTING_BLOCK_PERIOD = 25;\n    address public TREASURY_CONTRACT_ADDRESS;\n    address OWNER;\n\n    uint256 votingId = 0;\n    mapping(uint256 => VotingBallot) votingMap;\n    mapping(uint256 => mapping(address => bool)) alreadyVoted;\n\n    constructor() {\n        OWNER = msg.sender;\n    }\n\n    /**\n     * @dev This modifier checks if a ballot is open for voting or has the time expired\n     */\n    modifier _checkIfBallotIsOpen(uint256 votingBallotId) {\n        require(\n            votingMap[votingBallotId].isPresent == true,\n            \"No ballot with your id is found\"\n        );\n\n        require(\n            votingMap[votingBallotId].votingEndBlock > block.number,\n            \"Voting time is over\"\n        );\n\n        require(\n            alreadyVoted[votingBallotId][msg.sender] == false,\n            \"You have already voted\"\n        );\n\n        _;\n    }\n\n    /**\n     * @dev Modifier to check that the person who accesses a specific function is the owner himself.\n     */\n    modifier _ownerOnly() {\n        require(msg.sender == OWNER, \"You are not authorized for this action\");\n        _;\n    }\n\n    /**\n     * @dev This modifier checks if a ballot is open for voting or has the time expired\n     */\n    modifier _checkIfOwnerAllowed(uint256 votingBallotId) {\n        if (votingMap[votingBallotId].canOwnerVote) {\n            require(\n                alreadyVoted[votingBallotId][msg.sender] == false,\n                \"You have already voted\"\n            );\n        } else if (msg.sender == votingMap[votingBallotId].owner) {\n            revert(\"Owner cannot vote\");\n        }\n        _;\n    }\n\n    /**\n     * @dev This function is called by user to creata a new voting\n     * @param canOwnerVote this is if a user can vote in a voting which he created\n     */\n    function _createVoting(bool canOwnerVote) internal returns (uint256) {\n        votingId++;\n\n        VotingBallot memory voting = VotingBallot({\n            owner: msg.sender,\n            yes: new address[](0),\n            no: new address[](0),\n            votingEndBlock: block.number + VOTING_BLOCK_PERIOD,\n            isResultDeclared: false,\n            canOwnerVote: canOwnerVote,\n            isPresent: true\n        });\n\n        votingMap[votingId] = voting;\n        return votingId;\n    }\n\n    /**\n     * @dev This function sets the treasury Contract address\n     */\n    function _setTreasuryContractAddress(address newTreasuryContractAddress)\n        internal\n        virtual\n        _ownerOnly\n    {\n        TREASURY_CONTRACT_ADDRESS = newTreasuryContractAddress;\n    }\n\n    /**\n     * @dev This function is called by any user to cast vote\n     * @param votingBallotId this is the id of the ballot for which user is voting\n     * @param vote this is the state of the vote, if true than it means the vote is in favour of the ballot\n     */\n    function _castVote(uint256 votingBallotId, bool vote)\n        internal\n        virtual\n        _checkIfBallotIsOpen(votingBallotId)\n        _checkIfOwnerAllowed(votingBallotId)\n    {\n        _castVotePrivate(votingBallotId, vote, msg.sender);\n    }\n\n    /**\n     * @dev This function is called when the vote is casted on later stages such as in counter offer where the vote is reviewd before hand by the user and then it is accepted by the user.\n     * @param votingBallotId this is the id of the ballot for which user is voting\n     * @param vote this is the state of the vote, if true than it means the vote is in favour of the ballot\n     */\n    function _castVoteForOther(\n        uint256 votingBallotId,\n        bool vote,\n        address voter\n    ) internal _checkIfBallotIsOpen(votingBallotId) {\n        _castVotePrivate(votingBallotId, vote, voter);\n    }\n\n    /**\n     * @dev core logic for voting\n     * @param votingBallotId this is the id of the ballot for which user is voting\n     * @param vote this is the state of the vote, if true than it means the vote is in favour of the ballot\n     * @param voter Voter's address\n     */\n    function _castVotePrivate(\n        uint256 votingBallotId,\n        bool vote,\n        address voter\n    ) private {\n        if (vote) {\n            votingMap[votingBallotId].yes.push(msg.sender);\n        } else {\n            votingMap[votingBallotId].no.push(msg.sender);\n        }\n\n        alreadyVoted[votingBallotId][msg.sender] = true;\n    }\n\n    /**\n     * @dev This function is called by any user to cast vote\n     * @param votingBallotId this is the id of the ballot for which we need to find the winner\n     */\n    function _declareWinner(uint256 votingBallotId, uint256 tokenId)\n        internal\n        returns (bool isWinner)\n    {\n        require(\n            votingMap[votingBallotId].isPresent == true,\n            \"No ballot with your id is found\"\n        );\n\n        require(\n            votingMap[votingBallotId].votingEndBlock < block.number,\n            \"Voting time is not over yet\"\n        );\n\n        require(\n            votingMap[votingBallotId].isResultDeclared == false,\n            \"Result already declared\"\n        );\n\n        address[] memory yesList = votingMap[votingBallotId].yes;\n        uint256[] memory idList = new uint256[](yesList.length);\n        for (uint256 i = 0; i < yesList.length; i++) {\n            idList[i] = tokenId;\n        }\n\n        // Currently to win you would need to around 66% of votes to be yes\n        TreasuryContract treasuryContract = TreasuryContract(\n            TREASURY_CONTRACT_ADDRESS\n        );\n\n        uint256[] memory yesBalanceList = treasuryContract.balanceOfBatch(\n            votingMap[votingBallotId].yes,\n            idList\n        );\n\n        uint256 totalYes = 0;\n        for (uint256 i = 0; i < yesList.length; i++) {\n            totalYes += yesBalanceList[i];\n        }\n\n        // uint256[] memory noBalanceList = treasuryContract.balanceOfBatch(\n        //     votingMap[votingBallotId].no,\n        //     idList\n        // );\n\n        // uint256 totalNo = 0;\n\n        // for (uint256 i = 0; i < yesList.length; i++) {\n        //     totalNo += noBalanceList[i];\n        // }\n\n        votingMap[votingBallotId].isResultDeclared = true;\n\n        if (totalYes > 0) {\n            uint256 totalCirculatingSupply = treasuryContract\n                .totalCicultingSupply(tokenId);\n\n            uint256 winRatio = SafeMath.div(\n                totalYes,\n                totalCirculatingSupply,\n                \"Some problem with circulating supply\"\n            );\n\n            if (winRatio > SafeMath.div(33, 55)) {\n                return true;\n            } else {\n                return false;\n            }\n        } else {\n            return false;\n        }\n    }\n}\n",
  "sourcePath": "/Users/a1/Desktop/Office/projects/CrowdRecords/Contracts/contracts/voting/BaseVotingContract.sol",
  "compiler": {
    "name": "solc",
    "version": "0.8.12+commit.f00d7308.Emscripten.clang"
  },
  "schemaVersion": "3.4.6",
  "updatedAt": "2022-05-04T09:19:19.333Z",
  "devdoc": {
    "kind": "dev",
    "methods": {},
    "version": 1
  },
  "userdoc": {
    "kind": "user",
    "methods": {},
    "version": 1
  }
}