{
  "contractName": "BaseVotingCounterOfferContractMock",
  "abi": [
    {
      "inputs": [
        {
          "internalType": "uint8",
          "name": "votingInterval",
          "type": "uint8"
        },
        {
          "internalType": "address",
          "name": "owner",
          "type": "address"
        }
      ],
      "stateMutability": "nonpayable",
      "type": "constructor"
    },
    {
      "anonymous": false,
      "inputs": [
        {
          "indexed": false,
          "internalType": "uint256",
          "name": "ballotId",
          "type": "uint256"
        },
        {
          "indexed": false,
          "internalType": "bool",
          "name": "result",
          "type": "bool"
        },
        {
          "indexed": false,
          "internalType": "bool",
          "name": "minTurnOut",
          "type": "bool"
        }
      ],
      "name": "BallotResult",
      "type": "event"
    },
    {
      "anonymous": false,
      "inputs": [
        {
          "indexed": false,
          "internalType": "uint8",
          "name": "version",
          "type": "uint8"
        }
      ],
      "name": "Initialized",
      "type": "event"
    },
    {
      "inputs": [],
      "name": "MIN_TURNOUT_PERCENT",
      "outputs": [
        {
          "internalType": "uint256",
          "name": "",
          "type": "uint256"
        }
      ],
      "stateMutability": "view",
      "type": "function"
    },
    {
      "inputs": [],
      "name": "OWNER",
      "outputs": [
        {
          "internalType": "address",
          "name": "",
          "type": "address"
        }
      ],
      "stateMutability": "view",
      "type": "function"
    },
    {
      "inputs": [],
      "name": "TREASURY_CONTRACT_ADDRESS",
      "outputs": [
        {
          "internalType": "address",
          "name": "",
          "type": "address"
        }
      ],
      "stateMutability": "view",
      "type": "function"
    },
    {
      "inputs": [],
      "name": "TREASURY_HUB_ADDRESS",
      "outputs": [
        {
          "internalType": "address",
          "name": "",
          "type": "address"
        }
      ],
      "stateMutability": "view",
      "type": "function"
    },
    {
      "inputs": [
        {
          "internalType": "address",
          "name": "user",
          "type": "address"
        },
        {
          "internalType": "uint256",
          "name": "tokenId",
          "type": "uint256"
        },
        {
          "internalType": "uint256",
          "name": "previousBalance",
          "type": "uint256"
        },
        {
          "internalType": "uint256",
          "name": "newBalance",
          "type": "uint256"
        }
      ],
      "name": "_handleUserTokenTransfers",
      "outputs": [],
      "stateMutability": "nonpayable",
      "type": "function"
    },
    {
      "inputs": [
        {
          "internalType": "address",
          "name": "ownerAddress",
          "type": "address"
        }
      ],
      "name": "setOwnerAddress",
      "outputs": [],
      "stateMutability": "nonpayable",
      "type": "function"
    },
    {
      "inputs": [
        {
          "internalType": "uint256",
          "name": "",
          "type": "uint256"
        }
      ],
      "name": "votingMap",
      "outputs": [
        {
          "internalType": "address",
          "name": "owner",
          "type": "address"
        },
        {
          "internalType": "uint256",
          "name": "yesWeight",
          "type": "uint256"
        },
        {
          "internalType": "uint256",
          "name": "yesCount",
          "type": "uint256"
        },
        {
          "internalType": "uint256",
          "name": "noWeight",
          "type": "uint256"
        },
        {
          "internalType": "uint256",
          "name": "noCount",
          "type": "uint256"
        },
        {
          "internalType": "uint256",
          "name": "tokenId",
          "type": "uint256"
        },
        {
          "internalType": "uint256",
          "name": "votingEndBlock",
          "type": "uint256"
        },
        {
          "internalType": "bool",
          "name": "isResultDeclared",
          "type": "bool"
        },
        {
          "internalType": "bool",
          "name": "canOwnerVote",
          "type": "bool"
        },
        {
          "internalType": "bool",
          "name": "isPresent",
          "type": "bool"
        },
        {
          "internalType": "bool",
          "name": "minTurnOut",
          "type": "bool"
        },
        {
          "internalType": "bool",
          "name": "result",
          "type": "bool"
        }
      ],
      "stateMutability": "view",
      "type": "function"
    },
    {
      "inputs": [
        {
          "internalType": "address",
          "name": "newTreasuryContractAddress",
          "type": "address"
        }
      ],
      "name": "initialize",
      "outputs": [],
      "stateMutability": "nonpayable",
      "type": "function"
    },
    {
      "inputs": [
        {
          "internalType": "bool",
          "name": "canOwnerVote",
          "type": "bool"
        },
        {
          "internalType": "uint256",
          "name": "tokenId",
          "type": "uint256"
        }
      ],
      "name": "createBallot",
      "outputs": [],
      "stateMutability": "nonpayable",
      "type": "function"
    },
    {
      "inputs": [
        {
          "internalType": "uint256",
          "name": "ballotId",
          "type": "uint256"
        },
        {
          "internalType": "bool",
          "name": "vote",
          "type": "bool"
        }
      ],
      "name": "castVote",
      "outputs": [],
      "stateMutability": "nonpayable",
      "type": "function"
    },
    {
      "inputs": [
        {
          "internalType": "uint256",
          "name": "ballotId",
          "type": "uint256"
        }
      ],
      "name": "createCounterOffer",
      "outputs": [],
      "stateMutability": "nonpayable",
      "type": "function"
    },
    {
      "inputs": [
        {
          "internalType": "uint256",
          "name": "votingBallotId",
          "type": "uint256"
        },
        {
          "internalType": "address",
          "name": "user",
          "type": "address"
        },
        {
          "internalType": "bool",
          "name": "vote",
          "type": "bool"
        }
      ],
      "name": "counterOfferAction",
      "outputs": [],
      "stateMutability": "nonpayable",
      "type": "function"
    },
    {
      "inputs": [
        {
          "internalType": "uint256",
          "name": "ballotId",
          "type": "uint256"
        }
      ],
      "name": "declareWinner",
      "outputs": [],
      "stateMutability": "nonpayable",
      "type": "function"
    }
  ],
  "bytecode": "0x608060405260196001556101f460025560006006556001600c553480156200002657600080fd5b5060405162002c0238038062002c0283398181016040528101906200004c91906200014b565b808080600560006101000a81548173ffffffffffffffffffffffffffffffffffffffff021916908373ffffffffffffffffffffffffffffffffffffffff16021790555050508160ff16600181905550505062000192565b600080fd5b600060ff82169050919050565b620000c081620000a8565b8114620000cc57600080fd5b50565b600081519050620000e081620000b5565b92915050565b600073ffffffffffffffffffffffffffffffffffffffff82169050919050565b60006200011382620000e6565b9050919050565b620001258162000106565b81146200013157600080fd5b50565b60008151905062000145816200011a565b92915050565b60008060408385031215620001655762000164620000a3565b5b60006200017585828601620000cf565b9250506020620001888582860162000134565b9150509250929050565b612a6080620001a26000396000f3fe608060405234801561001057600080fd5b50600436106100ce5760003560e01c80636dce86641161008c578063abb7ed7f11610066578063abb7ed7f146101f4578063acb3149314610210578063c4d66de81461022e578063db15ef5f1461024a576100ce565b80636dce86641461019e578063716085f6146101ba5780638d2ae1f7146101d6576100ce565b8062c2943c146100d3578063117803e3146100ef57806315373e3d1461010d578063331a6bf51461012957806333e0ea2e1461014557806363e249c114610163575b600080fd5b6100ed60048036038101906100e89190611e1d565b610266565b005b6100f76102b6565b6040516101049190611e8b565b60405180910390f35b61012760048036038101906101229190611ede565b6102dc565b005b610143600480360381019061013e9190611f4a565b6102ea565b005b61014d6103be565b60405161015a9190611f86565b60405180910390f35b61017d60048036038101906101789190611e1d565b6103c4565b6040516101959c9b9a99989796959493929190611fb0565b60405180910390f35b6101b860048036038101906101b3919061206a565b610485565b005b6101d460048036038101906101cf9190611e1d565b610494565b005b6101de6104a0565b6040516101eb9190611e8b565b60405180910390f35b61020e600480360381019061020991906120aa565b6104c6565b005b6102186106bf565b6040516102259190611e8b565b60405180910390f35b61024860048036038101906102439190611f4a565b6106e5565b005b610264600480360381019061025f9190612111565b6108b5565b005b600080610272836108c5565b915091507f1f6972cf5ca4c61f97e167c7304bc893a078a7ae23020018f03bfcdd947e755e8383836040516102a993929190612164565b60405180910390a1505050565b600560009054906101000a900473ffffffffffffffffffffffffffffffffffffffff1681565b6102e68282610cd1565b5050565b600560009054906101000a900473ffffffffffffffffffffffffffffffffffffffff1673ffffffffffffffffffffffffffffffffffffffff163373ffffffffffffffffffffffffffffffffffffffff161461037a576040517f08c379a00000000000000000000000000000000000000000000000000000000081526004016103719061221e565b60405180910390fd5b80600560006101000a81548173ffffffffffffffffffffffffffffffffffffffff021916908373ffffffffffffffffffffffffffffffffffffffff16021790555050565b60025481565b60076020528060005260406000206000915090508060000160009054906101000a900473ffffffffffffffffffffffffffffffffffffffff16908060010154908060020154908060030154908060040154908060050154908060060154908060070160009054906101000a900460ff16908060070160019054906101000a900460ff16908060070160029054906101000a900460ff16908060070160039054906101000a900460ff16908060070160049054906101000a900460ff1690508c565b61048f8282610d85565b505050565b61049d81610f76565b50565b600460009054906101000a900473ffffffffffffffffffffffffffffffffffffffff1681565b6000600a60008673ffffffffffffffffffffffffffffffffffffffff1673ffffffffffffffffffffffffffffffffffffffff168152602001908152602001600020905060005b81805490508110156106b75760011515600760008484815481106105335761053261223e565b5b9060005260206000200154815260200190815260200160002060070160009054906101000a900460ff161515148061059d5750436007600084848154811061057e5761057d61223e565b5b9060005260206000200154815260200190815260200160002060060154105b1561063e5781600183805490506105b4919061229c565b815481106105c5576105c461223e565b5b90600052602060002001548282815481106105e3576105e261223e565b5b906000526020600020018190555081805480610602576106016122d0565b5b60019003818190600052602060002001600090559055600081141561062a5760009050610639565b8080610635906122ff565b9150505b6106a4565b600760008383815481106106555761065461223e565b5b90600052602060002001548152602001908152602001600020600501548514156106a3576106a282828154811061068f5761068e61223e565b5b90600052602060002001548786866111f2565b5b5b80806106af90612329565b91505061050c565b505050505050565b600360009054906101000a900473ffffffffffffffffffffffffffffffffffffffff1681565b60008060019054906101000a900460ff161590508080156107165750600160008054906101000a900460ff1660ff16105b806107435750610725306113bf565b1580156107425750600160008054906101000a900460ff1660ff16145b5b610782576040517f08c379a0000000000000000000000000000000000000000000000000000000008152600401610779906123e4565b60405180910390fd5b60016000806101000a81548160ff021916908360ff16021790555080156107bf576001600060016101000a81548160ff0219169083151502179055505b600560009054906101000a900473ffffffffffffffffffffffffffffffffffffffff1673ffffffffffffffffffffffffffffffffffffffff163373ffffffffffffffffffffffffffffffffffffffff161461084f576040517f08c379a00000000000000000000000000000000000000000000000000000000081526004016108469061221e565b60405180910390fd5b610858826113e2565b80156108b15760008060016101000a81548160ff0219169083151502179055507f7f26b83ff96e1f2b6a682f133852f6798a09c465da95921460cefb384740249860016040516108a89190612456565b60405180910390a15b5050565b6108c083838361143d565b505050565b600080600115156007600085815260200190815260200160002060070160029054906101000a900460ff16151514610932576040517f08c379a0000000000000000000000000000000000000000000000000000000008152600401610929906124bd565b60405180910390fd5b4360076000858152602001908152602001600020600601541061098a576040517f08c379a000000000000000000000000000000000000000000000000000000000815260040161098190612529565b60405180910390fd5b600015156007600085815260200190815260200160002060070160009054906101000a900460ff161515146109f4576040517f08c379a00000000000000000000000000000000000000000000000000000000081526004016109eb90612595565b60405180910390fd5b60006007600085815260200190815260200160002090506000816001015490506000826003015490506000600360009054906101000a900473ffffffffffffffffffffffffffffffffffffffff16905060016007600089815260200190815260200160002060070160006101000a81548160ff02191690831515021790555060008173ffffffffffffffffffffffffffffffffffffffff1663036c22ad86600501546040518263ffffffff1660e01b8152600401610ab29190611f86565b602060405180830381865afa158015610acf573d6000803e3d6000fd5b505050506040513d601f19601f82011682018060405250810190610af391906125ca565b9050600060648060025484610b0891906125f7565b610b129190612680565b610b1c9190612680565b9050808585610b2b91906126b1565b1115610c60576000851115610c1e576000606460428688610b4c91906126b1565b610b5691906125f7565b610b609190612680565b90506001600760008c815260200190815260200160002060070160036101000a81548160ff02191690831515021790555080861115610bdb576000600760008c815260200190815260200160002060070160046101000a81548160ff0219169083151502179055506001809850985050505050505050610ccc565b6000600760008c815260200190815260200160002060070160046101000a81548160ff021916908315150217905550600060019850985050505050505050610ccc565b6000600760008b815260200190815260200160002060070160046101000a81548160ff0219169083151502179055506000600197509750505050505050610ccc565b6000600760008b815260200190815260200160002060070160036101000a81548160ff0219169083151502179055506000600760008b815260200190815260200160002060070160046101000a81548160ff021916908315150217905550600080975097505050505050505b915091565b8160001515600b600083815260200190815260200160002060003373ffffffffffffffffffffffffffffffffffffffff1673ffffffffffffffffffffffffffffffffffffffff16815260200190815260200160002060009054906101000a900460ff16151514610d76576040517f08c379a0000000000000000000000000000000000000000000000000000000008152600401610d6d90612753565b60405180910390fd5b610d8083836114f5565b505050565b600060066000815480929190610d9a90612329565b919050555060006040518061018001604052803273ffffffffffffffffffffffffffffffffffffffff1681526020016000815260200160008152602001600081526020016000815260200184815260200160015443610df991906126b1565b815260200160001515815260200185151581526020016001151581526020016000151581526020016000151581525090508060076000600654815260200190815260200160002060008201518160000160006101000a81548173ffffffffffffffffffffffffffffffffffffffff021916908373ffffffffffffffffffffffffffffffffffffffff1602179055506020820151816001015560408201518160020155606082015181600301556080820151816004015560a0820151816005015560c0820151816006015560e08201518160070160006101000a81548160ff0219169083151502179055506101008201518160070160016101000a81548160ff0219169083151502179055506101208201518160070160026101000a81548160ff0219169083151502179055506101408201518160070160036101000a81548160ff0219169083151502179055506101608201518160070160046101000a81548160ff02191690831515021790555090505060065491505092915050565b8060001515600b600083815260200190815260200160002060003373ffffffffffffffffffffffffffffffffffffffff1673ffffffffffffffffffffffffffffffffffffffff16815260200190815260200160002060009054906101000a900460ff1615151461101b576040517f08c379a000000000000000000000000000000000000000000000000000000000815260040161101290612753565b60405180910390fd5b8133600115156007600084815260200190815260200160002060070160029054906101000a900460ff16151514611087576040517f08c379a000000000000000000000000000000000000000000000000000000000815260040161107e906124bd565b60405180910390fd5b436007600084815260200190815260200160002060060154116110df576040517f08c379a00000000000000000000000000000000000000000000000000000000081526004016110d690612529565b60405180910390fd5b600015156008600084815260200190815260200160002060008373ffffffffffffffffffffffffffffffffffffffff1673ffffffffffffffffffffffffffffffffffffffff16815260200190815260200160002060009054906101000a900460ff16151514611183576040517f08c379a000000000000000000000000000000000000000000000000000000000815260040161117a906127bf565b60405180910390fd5b6001600b600086815260200190815260200160002060003373ffffffffffffffffffffffffffffffffffffffff1673ffffffffffffffffffffffffffffffffffffffff16815260200190815260200160002060006101000a81548160ff02191690831515021790555050505050565b600115156008600086815260200190815260200160002060008573ffffffffffffffffffffffffffffffffffffffff1673ffffffffffffffffffffffffffffffffffffffff16815260200190815260200160002060009054906101000a900460ff16151514611296576040517f08c379a000000000000000000000000000000000000000000000000000000000815260040161128d90612851565b60405180910390fd5b60006009600086815260200190815260200160002060008573ffffffffffffffffffffffffffffffffffffffff1673ffffffffffffffffffffffffffffffffffffffff16815260200190815260200160002060009054906101000a900460ff169050801561135d5782600760008781526020019081526020016000206001016000828254611324919061229c565b925050819055508160076000878152602001908152602001600020600101600082825461135191906126b1565b925050819055506113b8565b82600760008781526020019081526020016000206003016000828254611383919061229c565b92505081905550816007600087815260200190815260200160002060030160008282546113b091906126b1565b925050819055505b5050505050565b6000808273ffffffffffffffffffffffffffffffffffffffff163b119050919050565b600060019054906101000a900460ff16611431576040517f08c379a0000000000000000000000000000000000000000000000000000000008152600401611428906128e3565b60405180910390fd5b61143a816117e8565b50565b828260011515600b600084815260200190815260200160002060008373ffffffffffffffffffffffffffffffffffffffff1673ffffffffffffffffffffffffffffffffffffffff16815260200190815260200160002060009054906101000a900460ff161515146114e3576040517f08c379a00000000000000000000000000000000000000000000000000000000081526004016114da90612975565b60405180910390fd5b6114ee85848661187b565b5050505050565b8133600115156007600084815260200190815260200160002060070160029054906101000a900460ff16151514611561576040517f08c379a0000000000000000000000000000000000000000000000000000000008152600401611558906124bd565b60405180910390fd5b436007600084815260200190815260200160002060060154116115b9576040517f08c379a00000000000000000000000000000000000000000000000000000000081526004016115b090612529565b60405180910390fd5b600015156008600084815260200190815260200160002060008373ffffffffffffffffffffffffffffffffffffffff1673ffffffffffffffffffffffffffffffffffffffff16815260200190815260200160002060009054906101000a900460ff1615151461165d576040517f08c379a0000000000000000000000000000000000000000000000000000000008152600401611654906127bf565b60405180910390fd5b836007600082815260200190815260200160002060070160019054906101000a900460ff161561173057600015156008600083815260200190815260200160002060003273ffffffffffffffffffffffffffffffffffffffff1673ffffffffffffffffffffffffffffffffffffffff16815260200190815260200160002060009054906101000a900460ff1615151461172b576040517f08c379a0000000000000000000000000000000000000000000000000000000008152600401611722906127bf565b60405180910390fd5b6117d6565b6007600082815260200190815260200160002060000160009054906101000a900473ffffffffffffffffffffffffffffffffffffffff1673ffffffffffffffffffffffffffffffffffffffff163273ffffffffffffffffffffffffffffffffffffffff1614156117d5576040517f08c379a00000000000000000000000000000000000000000000000000000000081526004016117cc906129e1565b60405180910390fd5b5b6117e18585326119f5565b5050505050565b600060019054906101000a900460ff16611837576040517f08c379a000000000000000000000000000000000000000000000000000000000815260040161182e906128e3565b60405180910390fd5b80600360006101000a81548173ffffffffffffffffffffffffffffffffffffffff021916908373ffffffffffffffffffffffffffffffffffffffff16021790555050565b8281600115156007600084815260200190815260200160002060070160029054906101000a900460ff161515146118e7576040517f08c379a00000000000000000000000000000000000000000000000000000000081526004016118de906124bd565b60405180910390fd5b4360076000848152602001908152602001600020600601541161193f576040517f08c379a000000000000000000000000000000000000000000000000000000000815260040161193690612529565b60405180910390fd5b600015156008600084815260200190815260200160002060008373ffffffffffffffffffffffffffffffffffffffff1673ffffffffffffffffffffffffffffffffffffffff16815260200190815260200160002060009054906101000a900460ff161515146119e3576040517f08c379a00000000000000000000000000000000000000000000000000000000081526004016119da906127bf565b60405180910390fd5b6119ee8585856119f5565b5050505050565b6000600360009054906101000a900473ffffffffffffffffffffffffffffffffffffffff169050600060076000868152602001908152602001600020604051806101800160405290816000820160009054906101000a900473ffffffffffffffffffffffffffffffffffffffff1673ffffffffffffffffffffffffffffffffffffffff1673ffffffffffffffffffffffffffffffffffffffff1681526020016001820154815260200160028201548152602001600382015481526020016004820154815260200160058201548152602001600682015481526020016007820160009054906101000a900460ff161515151581526020016007820160019054906101000a900460ff161515151581526020016007820160029054906101000a900460ff161515151581526020016007820160039054906101000a900460ff161515151581526020016007820160049054906101000a900460ff161515151581525050905060008273ffffffffffffffffffffffffffffffffffffffff1662fdd58e858460a001516040518363ffffffff1660e01b8152600401611b98929190612a01565b602060405180830381865afa158015611bb5573d6000803e3d6000fd5b505050506040513d601f19601f82011682018060405250810190611bd991906125ca565b90508415611c415780600760008881526020019081526020016000206001016000828254611c0791906126b1565b925050819055506001600760008881526020019081526020016000206002016000828254611c3591906126b1565b92505081905550611c9d565b80600760008881526020019081526020016000206003016000828254611c6791906126b1565b925050819055506001600760008881526020019081526020016000206004016000828254611c9591906126b1565b925050819055505b60016008600088815260200190815260200160002060008673ffffffffffffffffffffffffffffffffffffffff1673ffffffffffffffffffffffffffffffffffffffff16815260200190815260200160002060006101000a81548160ff021916908315150217905550846009600088815260200190815260200160002060008673ffffffffffffffffffffffffffffffffffffffff1673ffffffffffffffffffffffffffffffffffffffff16815260200190815260200160002060006101000a81548160ff0219169083151502179055506000600a60008673ffffffffffffffffffffffffffffffffffffffff1673ffffffffffffffffffffffffffffffffffffffff16815260200190815260200160002090508087908060018154018082558091505060019003906000526020600020016000909190919091505550505050505050565b600080fd5b6000819050919050565b611dfa81611de7565b8114611e0557600080fd5b50565b600081359050611e1781611df1565b92915050565b600060208284031215611e3357611e32611de2565b5b6000611e4184828501611e08565b91505092915050565b600073ffffffffffffffffffffffffffffffffffffffff82169050919050565b6000611e7582611e4a565b9050919050565b611e8581611e6a565b82525050565b6000602082019050611ea06000830184611e7c565b92915050565b60008115159050919050565b611ebb81611ea6565b8114611ec657600080fd5b50565b600081359050611ed881611eb2565b92915050565b60008060408385031215611ef557611ef4611de2565b5b6000611f0385828601611e08565b9250506020611f1485828601611ec9565b9150509250929050565b611f2781611e6a565b8114611f3257600080fd5b50565b600081359050611f4481611f1e565b92915050565b600060208284031215611f6057611f5f611de2565b5b6000611f6e84828501611f35565b91505092915050565b611f8081611de7565b82525050565b6000602082019050611f9b6000830184611f77565b92915050565b611faa81611ea6565b82525050565b600061018082019050611fc6600083018f611e7c565b611fd3602083018e611f77565b611fe0604083018d611f77565b611fed606083018c611f77565b611ffa608083018b611f77565b61200760a083018a611f77565b61201460c0830189611f77565b61202160e0830188611fa1565b61202f610100830187611fa1565b61203d610120830186611fa1565b61204b610140830185611fa1565b612059610160830184611fa1565b9d9c50505050505050505050505050565b6000806040838503121561208157612080611de2565b5b600061208f85828601611ec9565b92505060206120a085828601611e08565b9150509250929050565b600080600080608085870312156120c4576120c3611de2565b5b60006120d287828801611f35565b94505060206120e387828801611e08565b93505060406120f487828801611e08565b925050606061210587828801611e08565b91505092959194509250565b60008060006060848603121561212a57612129611de2565b5b600061213886828701611e08565b935050602061214986828701611f35565b925050604061215a86828701611ec9565b9150509250925092565b60006060820190506121796000830186611f77565b6121866020830185611fa1565b6121936040830184611fa1565b949350505050565b600082825260208201905092915050565b7f554e415554484f52495a45443a2043414e4e4f545f504552464f524d5f41435460008201527f494f4e0000000000000000000000000000000000000000000000000000000000602082015250565b600061220860238361219b565b9150612213826121ac565b604082019050919050565b60006020820190508181036000830152612237816121fb565b9050919050565b7f4e487b7100000000000000000000000000000000000000000000000000000000600052603260045260246000fd5b7f4e487b7100000000000000000000000000000000000000000000000000000000600052601160045260246000fd5b60006122a782611de7565b91506122b283611de7565b9250828210156122c5576122c461226d565b5b828203905092915050565b7f4e487b7100000000000000000000000000000000000000000000000000000000600052603160045260246000fd5b600061230a82611de7565b9150600082141561231e5761231d61226d565b5b600182039050919050565b600061233482611de7565b91507fffffffffffffffffffffffffffffffffffffffffffffffffffffffffffffffff8214156123675761236661226d565b5b600182019050919050565b7f496e697469616c697a61626c653a20636f6e747261637420697320616c72656160008201527f647920696e697469616c697a6564000000000000000000000000000000000000602082015250565b60006123ce602e8361219b565b91506123d982612372565b604082019050919050565b600060208201905081810360008301526123fd816123c1565b9050919050565b6000819050919050565b600060ff82169050919050565b6000819050919050565b600061244061243b61243684612404565b61241b565b61240e565b9050919050565b61245081612425565b82525050565b600060208201905061246b6000830184612447565b92915050565b7f494e56414c49443a2042414c4c4f545f4e4f545f464f554e4400000000000000600082015250565b60006124a760198361219b565b91506124b282612471565b602082019050919050565b600060208201905081810360008301526124d68161249a565b9050919050565b7f494e56414c49443a20564f54494e475f54494d455f4f56455200000000000000600082015250565b600061251360198361219b565b915061251e826124dd565b602082019050919050565b6000602082019050818103600083015261254281612506565b9050919050565b7f494e56414c49443a20524553554c545f414c52454144595f4445434c41524544600082015250565b600061257f60208361219b565b915061258a82612549565b602082019050919050565b600060208201905081810360008301526125ae81612572565b9050919050565b6000815190506125c481611df1565b92915050565b6000602082840312156125e0576125df611de2565b5b60006125ee848285016125b5565b91505092915050565b600061260282611de7565b915061260d83611de7565b9250817fffffffffffffffffffffffffffffffffffffffffffffffffffffffffffffffff04831182151516156126465761264561226d565b5b828202905092915050565b7f4e487b7100000000000000000000000000000000000000000000000000000000600052601260045260246000fd5b600061268b82611de7565b915061269683611de7565b9250826126a6576126a5612651565b5b828204905092915050565b60006126bc82611de7565b91506126c783611de7565b9250827fffffffffffffffffffffffffffffffffffffffffffffffffffffffffffffffff038211156126fc576126fb61226d565b5b828201905092915050565b7f494e56414c49443a20414c52454144595f434f554e5445525f4f464645524544600082015250565b600061273d60208361219b565b915061274882612707565b602082019050919050565b6000602082019050818103600083015261276c81612730565b9050919050565b7f494e56414c49443a20414c52454144595f564f54454400000000000000000000600082015250565b60006127a960168361219b565b91506127b482612773565b602082019050919050565b600060208201905081810360008301526127d88161279c565b9050919050565b7f494e56414c49443a20494e5445524e414c3a20555345525f4841535f4e4f545f60008201527f564f544544000000000000000000000000000000000000000000000000000000602082015250565b600061283b60258361219b565b9150612846826127df565b604082019050919050565b6000602082019050818103600083015261286a8161282e565b9050919050565b7f496e697469616c697a61626c653a20636f6e7472616374206973206e6f74206960008201527f6e697469616c697a696e67000000000000000000000000000000000000000000602082015250565b60006128cd602b8361219b565b91506128d882612871565b604082019050919050565b600060208201905081810360008301526128fc816128c0565b9050919050565b7f494e56414c49443a20434f554e5445525f4f464645525f4e4f545f455849535460008201527f5300000000000000000000000000000000000000000000000000000000000000602082015250565b600061295f60218361219b565b915061296a82612903565b604082019050919050565b6000602082019050818103600083015261298e81612952565b9050919050565b7f554e415554484f52495a45443a204f574e45525f43414e4e4f545f564f544500600082015250565b60006129cb601f8361219b565b91506129d682612995565b602082019050919050565b600060208201905081810360008301526129fa816129be565b9050919050565b6000604082019050612a166000830185611e7c565b612a236020830184611f77565b939250505056fea264697066735822122096d903f7b8823d82b3e23fabeb1e0c099e86529b9a06702806202d83ff06922964736f6c634300080c0033",
  "immutableReferences": {},
  "source": "// SPDX-License-Identifier: MIT\n\npragma solidity ^0.8.0;\n\nimport \"../voting/BaseVotingCounterOfferContract.sol\";\n\ncontract BaseVotingCounterOfferContractMock is BaseVotingCounterOfferContract {\n    uint256 private LastTokenId = 1;\n\n    /// @dev this event is generated when result of a ballot is declared\n    /// @param ballotId this is the ballot Id for which result is declared\n    /// @param result this is the status of the result //either true if user won that is he received more than 66% of votes or false if user lost\n    /// @param minTurnOut this status indicates if minimum amount of user showed up for voting\n    event BallotResult(uint256 ballotId, bool result, bool minTurnOut);\n\n    constructor(uint8 votingInterval, address owner)\n        BaseVotingCounterOfferContract(owner)\n    {\n        VOTING_BLOCK_PERIOD = votingInterval;\n    }\n\n    /// @dev This is to set the address of the contracts\n    /// @param newTreasuryContractAddress This is the address of new treasury contract\n    function initialize(address newTreasuryContractAddress)\n        public\n        override\n        initializer\n        _ownerOnly\n    {\n        BaseVotingCounterOfferContract.initialize(newTreasuryContractAddress);\n    }\n\n    function createBallot(bool canOwnerVote, uint256 tokenId) public {\n        _createVoting(canOwnerVote, tokenId);\n    }\n\n    function castVote(uint256 ballotId, bool vote) public {\n        _castVote(ballotId, vote);\n    }\n\n    function createCounterOffer(uint256 ballotId) public {\n        _createCounterOffer(ballotId);\n    }\n\n    function counterOfferAction(\n        uint256 votingBallotId,\n        address user,\n        bool vote\n    ) public {\n        _counterOfferAction(votingBallotId, user, vote);\n    }\n\n    function declareWinner(uint256 ballotId) public {\n        (bool result, bool minTurnOut) = _declareWinner(ballotId);\n        emit BallotResult(ballotId, result, minTurnOut);\n    }\n}\n",
  "sourcePath": "/Users/a1/Desktop/Office/projects/CrowdRecords/Contracts/contracts/Mocks/BaseVotingCounterOfferContractMock.sol",
  "compiler": {
    "name": "solc",
    "version": "0.8.12+commit.f00d7308.Emscripten.clang"
  },
  "schemaVersion": "3.4.6",
  "updatedAt": "2022-10-19T09:06:06.720Z",
  "devdoc": {
    "events": {
      "BallotResult(uint256,bool,bool)": {
        "details": "this event is generated when result of a ballot is declared",
        "params": {
          "ballotId": "this is the ballot Id for which result is declared",
          "minTurnOut": "this status indicates if minimum amount of user showed up for voting",
          "result": "this is the status of the result //either true if user won that is he received more than 66% of votes or false if user lost"
        }
      }
    },
    "kind": "dev",
    "methods": {
      "_handleUserTokenTransfers(address,uint256,uint256,uint256)": {
        "details": "This function will be called when either user is transferring the tokens to other account, or is receiving tokens from other tokens.",
        "params": {
          "newBalance": "this is the new balance of the user that is after the transfer",
          "previousBalance": "this is the old balance of the user",
          "user": "address of the user whose balance is being changed"
        }
      },
      "initialize(address)": {
        "details": "This is to set the address of the contracts",
        "params": {
          "newTreasuryContractAddress": "This is the address of new treasury contract"
        }
      },
      "setOwnerAddress(address)": {
        "details": "This function sets the owner address",
        "params": {
          "ownerAddress": "This is the address of the owner"
        }
      }
    },
    "version": 1
  },
  "userdoc": {
    "kind": "user",
    "methods": {},
    "version": 1
  }
}