{
  "contractName": "BaseVotingCounterOfferContract",
  "abi": [
    {
      "inputs": [],
      "name": "TREASURY_CONTRACT_ADDRESS",
      "outputs": [
        {
          "internalType": "address",
          "name": "",
          "type": "address"
        }
      ],
      "stateMutability": "view",
      "type": "function"
    },
    {
      "inputs": [],
      "name": "TREASURY_HUB_ADDRESS",
      "outputs": [
        {
          "internalType": "address",
          "name": "",
          "type": "address"
        }
      ],
      "stateMutability": "view",
      "type": "function"
    },
    {
      "inputs": [
        {
          "internalType": "address",
          "name": "user",
          "type": "address"
        },
        {
          "internalType": "uint256",
          "name": "tokenId",
          "type": "uint256"
        },
        {
          "internalType": "uint256",
          "name": "previousBalance",
          "type": "uint256"
        },
        {
          "internalType": "uint256",
          "name": "newBalance",
          "type": "uint256"
        }
      ],
      "name": "_handleUserTokenTransfers",
      "outputs": [],
      "stateMutability": "nonpayable",
      "type": "function"
    }
  ],
  "bytecode": "0x60806040526019600055600060045534801561001a57600080fd5b5033600360006101000a81548173ffffffffffffffffffffffffffffffffffffffff021916908373ffffffffffffffffffffffffffffffffffffffff1602179055506108178061006b6000396000f3fe608060405234801561001057600080fd5b50600436106100415760003560e01c80638d2ae1f714610046578063abb7ed7f14610064578063acb3149314610080575b600080fd5b61004e61009e565b60405161005b91906104f1565b60405180910390f35b61007e60048036038101906100799190610573565b6100c4565b005b6100886102bd565b60405161009591906104f1565b60405180910390f35b600260009054906101000a900473ffffffffffffffffffffffffffffffffffffffff1681565b6000600860008673ffffffffffffffffffffffffffffffffffffffff1673ffffffffffffffffffffffffffffffffffffffff168152602001908152602001600020905060005b81805490508110156102b5576001151560056000848481548110610131576101306105da565b5b9060005260206000200154815260200190815260200160002060070160009054906101000a900460ff161515148061019b5750436005600084848154811061017c5761017b6105da565b5b9060005260206000200154815260200190815260200160002060060154105b1561023c5781600183805490506101b29190610638565b815481106101c3576101c26105da565b5b90600052602060002001548282815481106101e1576101e06105da565b5b906000526020600020018190555081805480610200576101ff61066c565b5b6001900381819060005260206000200160009055905560008114156102285760009050610237565b80806102339061069b565b9150505b6102a2565b60056000838381548110610253576102526105da565b5b90600052602060002001548152602001908152602001600020600501548514156102a1576102a082828154811061028d5761028c6105da565b5b90600052602060002001548786866102e3565b5b5b80806102ad906106c5565b91505061010a565b505050505050565b600160009054906101000a900473ffffffffffffffffffffffffffffffffffffffff1681565b600115156006600086815260200190815260200160002060008573ffffffffffffffffffffffffffffffffffffffff1673ffffffffffffffffffffffffffffffffffffffff16815260200190815260200160002060009054906101000a900460ff16151514610387576040517f08c379a000000000000000000000000000000000000000000000000000000000815260040161037e9061076b565b60405180910390fd5b60006007600086815260200190815260200160002060008573ffffffffffffffffffffffffffffffffffffffff1673ffffffffffffffffffffffffffffffffffffffff16815260200190815260200160002060009054906101000a900460ff169050801561044e57826005600087815260200190815260200160002060010160008282546104159190610638565b9250508190555081600560008781526020019081526020016000206001016000828254610442919061078b565b925050819055506104a9565b826005600087815260200190815260200160002060030160008282546104749190610638565b92505081905550816005600087815260200190815260200160002060030160008282546104a1919061078b565b925050819055505b5050505050565b600073ffffffffffffffffffffffffffffffffffffffff82169050919050565b60006104db826104b0565b9050919050565b6104eb816104d0565b82525050565b600060208201905061050660008301846104e2565b92915050565b600080fd5b61051a816104d0565b811461052557600080fd5b50565b60008135905061053781610511565b92915050565b6000819050919050565b6105508161053d565b811461055b57600080fd5b50565b60008135905061056d81610547565b92915050565b6000806000806080858703121561058d5761058c61050c565b5b600061059b87828801610528565b94505060206105ac8782880161055e565b93505060406105bd8782880161055e565b92505060606105ce8782880161055e565b91505092959194509250565b7f4e487b7100000000000000000000000000000000000000000000000000000000600052603260045260246000fd5b7f4e487b7100000000000000000000000000000000000000000000000000000000600052601160045260246000fd5b60006106438261053d565b915061064e8361053d565b92508282101561066157610660610609565b5b828203905092915050565b7f4e487b7100000000000000000000000000000000000000000000000000000000600052603160045260246000fd5b60006106a68261053d565b915060008214156106ba576106b9610609565b5b600182039050919050565b60006106d08261053d565b91507fffffffffffffffffffffffffffffffffffffffffffffffffffffffffffffffff82141561070357610702610609565b5b600182019050919050565b600082825260208201905092915050565b7f5573657220686173206e6f7420766f7465642079657400000000000000000000600082015250565b600061075560168361070e565b91506107608261071f565b602082019050919050565b6000602082019050818103600083015261078481610748565b9050919050565b60006107968261053d565b91506107a18361053d565b9250827fffffffffffffffffffffffffffffffffffffffffffffffffffffffffffffffff038211156107d6576107d5610609565b5b82820190509291505056fea264697066735822122022fbe1b2d410c11b2cb622dd5e652af0414c67dd22992d037830451ffe29e0a364736f6c634300080c0033",
  "immutableReferences": {},
  "source": "// SPDX-License-Identifier: MIT\npragma solidity ^0.8.0;\n\nimport \"../TreasuryContract.sol\";\nimport \"@openzeppelin/contracts/utils/math/SafeMath.sol\";\nimport \"./BaseVotingContract.sol\";\n\ncontract BaseVotingCounterOfferContract is BaseVotingContract {\n    mapping(uint256 => mapping(address => bool)) counterOffered;\n\n    /**\n     * @dev This function check if the user has created the counter offer or not,\n       if it is created it will revert the transaction\n     */\n    modifier _shouldNotHaveCreatedCounterOffer(uint256 votingBallotId) {\n        require(\n            counterOffered[votingBallotId][msg.sender] == false,\n            \"You have already given a counter offer\"\n        );\n        _;\n    }\n\n    /**\n     * @dev reverts transaction if the user has not created a counter offer\n     */\n    modifier _shouldHaveCreatedCounterOffer(\n        uint256 votingBallotId,\n        address counterOfferUser\n    ) {\n        require(\n            counterOffered[votingBallotId][counterOfferUser] == true,\n            \"Counter offer doesn't exists\"\n        );\n        _;\n    }\n\n    /**\n     * @dev This function is called by any user to cast vote\n     * @param votingBallotId this is the id of the ballot for which user is voting\n     * @param vote this is the state of the vote, if true than it means the vote is in favour of the ballot\n     */\n    function _castVote(uint256 votingBallotId, bool vote)\n        internal\n        override\n        _shouldNotHaveCreatedCounterOffer(votingBallotId)\n    {\n        super._castVote(votingBallotId, vote);\n    }\n\n    /**\n     * @dev This function is called when you create a counter offer\n     * @param votingBallotId this is the id of the ballot for which user is voting\n     */\n    function _createCounterOffer(uint256 votingBallotId)\n        internal\n        _shouldNotHaveCreatedCounterOffer(votingBallotId)\n        _checkIfBallotIsOpen(votingBallotId, msg.sender)\n    {\n        counterOffered[votingBallotId][msg.sender] = true;\n    }\n\n    /**\n     * @notice THIS IS ONLY FOR THE USERS WHO HAS APPLIED A COUNTER OFFER\n     * @dev This function is called by the owner of the ballot when deciding to accept or reject user's proposed offer\n     * @param votingBallotId this is the id of the ballot for which user is voting\n     * @param user address of the user who has proposed counter offer\n     * @param vote action/vote taken by owner to accept or reject counter offer\n     */\n    function _counterOfferAction(\n        uint256 votingBallotId,\n        address user,\n        bool vote\n    ) internal _shouldHaveCreatedCounterOffer(votingBallotId, user) {\n        super._castVoteForOther(votingBallotId, vote, user);\n    }\n}\n",
  "sourcePath": "/Users/a1/Desktop/Office/projects/CrowdRecords/Contracts/contracts/voting/BaseVotingCounterOfferContract.sol",
  "compiler": {
    "name": "solc",
    "version": "0.8.12+commit.f00d7308.Emscripten.clang"
  },
  "schemaVersion": "3.4.6",
  "updatedAt": "2022-07-28T07:26:21.863Z",
  "devdoc": {
    "kind": "dev",
    "methods": {
      "_handleUserTokenTransfers(address,uint256,uint256,uint256)": {
        "details": "This function will be called when either user is transferring the tokens to other account, or is receiving tokens from other tokens.",
        "params": {
          "newBalance": "this is the new balance of the user that is after the transfer",
          "previousBalance": "this is the old balance of the user",
          "user": "address of the user whose balance is being changed"
        }
      }
    },
    "version": 1
  },
  "userdoc": {
    "kind": "user",
    "methods": {},
    "version": 1
  }
}