{
  "contractName": "BaseVotingCounterOfferContract",
  "abi": [
    {
      "inputs": [],
      "name": "TREASURY_CONTRACT_ADDRESS",
      "outputs": [
        {
          "internalType": "address",
          "name": "",
          "type": "address"
        }
      ],
      "stateMutability": "view",
      "type": "function"
    }
  ],
  "bytecode": "0x60806040526019600055600060035534801561001a57600080fd5b5033600260006101000a81548173ffffffffffffffffffffffffffffffffffffffff021916908373ffffffffffffffffffffffffffffffffffffffff16021790555060f98061006a6000396000f3fe6080604052348015600f57600080fd5b506004361060285760003560e01c8063acb3149314602d575b600080fd5b60336047565b604051603e919060aa565b60405180910390f35b600160009054906101000a900473ffffffffffffffffffffffffffffffffffffffff1681565b600073ffffffffffffffffffffffffffffffffffffffff82169050919050565b6000609682606d565b9050919050565b60a481608d565b82525050565b600060208201905060bd6000830184609d565b9291505056fea2646970667358221220b9b2a235ba223e0d433c01508715f17bc120e4ca416fcb362b11e758c4ab2dcd64736f6c634300080c0033",
  "immutableReferences": {},
  "source": "// SPDX-License-Identifier: MIT\npragma solidity ^0.8.0;\n\nimport \"../TreasuryContract.sol\";\nimport \"@openzeppelin/contracts/utils/math/SafeMath.sol\";\nimport \"./BaseVotingContract.sol\";\n\ncontract BaseVotingCounterOfferContract is BaseVotingContract {\n    mapping(uint256 => mapping(address => bool)) counterOffered;\n\n    /**\n     * @dev This function check if the user has created the counter offer or not, if it is created it will revert the transaction\n     */\n    modifier _shouldNotHaveCreatedCounterOffer(uint256 votingBallotId) {\n        require(\n            counterOffered[votingBallotId][msg.sender] == false,\n            \"You have already given a counter offer\"\n        );\n        _;\n    }\n\n    /**\n     * @dev reverts transaction if the user has not created a counter offer\n     */\n    modifier _shouldHaveCreatedCounterOffer(\n        uint256 votingBallotId,\n        address counterOfferUser\n    ) {\n        require(\n            counterOffered[votingBallotId][counterOfferUser] == true,\n            \"Counter offer doesn't exists\"\n        );\n        _;\n    }\n\n    /**\n     * @dev This function is called by any user to cast vote\n     * @param votingBallotId this is the id of the ballot for which user is voting\n     * @param vote this is the state of the vote, if true than it means the vote is in favour of the ballot\n     */\n    function _castVote(uint256 votingBallotId, bool vote)\n        internal\n        override\n        _shouldNotHaveCreatedCounterOffer(votingBallotId)\n    {\n        super._castVote(votingBallotId, vote);\n    }\n\n    /**\n     * @dev This function is called when you create a counter offer\n     * @param votingBallotId this is the id of the ballot for which user is voting\n     */\n    function _createCounterOffer(uint256 votingBallotId)\n        internal\n        _shouldNotHaveCreatedCounterOffer(votingBallotId)\n        _checkIfBallotIsOpen(votingBallotId, msg.sender)\n    {\n        counterOffered[votingBallotId][msg.sender] = true;\n    }\n\n    /**\n     * @notice THIS IS ONLY FOR THE USERS WHO HAS APPLIED A COUNTER OFFER\n     * @dev This function is called by the owner of the ballot when deciding to accept or reject user's proposed offer\n     * @param votingBallotId this is the id of the ballot for which user is voting\n     * @param user address of the user who has proposed counter offer\n     * @param vote action/vote taken by owner to accept or reject counter offer\n     */\n    function _counterOfferAction(\n        uint256 votingBallotId,\n        address user,\n        bool vote\n    ) internal _shouldHaveCreatedCounterOffer(votingBallotId, user) {\n        super._castVoteForOther(votingBallotId, vote, user);\n    }\n}\n",
  "sourcePath": "/Users/a1/Desktop/Office/projects/CrowdRecords/Contracts/contracts/voting/BaseVotingCounterOfferContract.sol",
  "compiler": {
    "name": "solc",
    "version": "0.8.12+commit.f00d7308.Emscripten.clang"
  },
  "schemaVersion": "3.4.6",
  "updatedAt": "2022-07-17T12:21:35.177Z",
  "devdoc": {
    "kind": "dev",
    "methods": {},
    "version": 1
  },
  "userdoc": {
    "kind": "user",
    "methods": {},
    "version": 1
  }
}