{
  "contractName": "BaseVotingContractMock",
  "abi": [
    {
      "inputs": [
        {
          "internalType": "uint8",
          "name": "votingInterval",
          "type": "uint8"
        },
        {
          "internalType": "address",
          "name": "owner",
          "type": "address"
        }
      ],
      "stateMutability": "nonpayable",
      "type": "constructor"
    },
    {
      "anonymous": false,
      "inputs": [
        {
          "indexed": false,
          "internalType": "uint256",
          "name": "ballotId",
          "type": "uint256"
        },
        {
          "indexed": false,
          "internalType": "bool",
          "name": "result",
          "type": "bool"
        }
      ],
      "name": "BallotResult",
      "type": "event"
    },
    {
      "anonymous": false,
      "inputs": [
        {
          "indexed": false,
          "internalType": "uint8",
          "name": "version",
          "type": "uint8"
        }
      ],
      "name": "Initialized",
      "type": "event"
    },
    {
      "inputs": [],
      "name": "OWNER",
      "outputs": [
        {
          "internalType": "address",
          "name": "",
          "type": "address"
        }
      ],
      "stateMutability": "view",
      "type": "function"
    },
    {
      "inputs": [],
      "name": "TREASURY_CONTRACT_ADDRESS",
      "outputs": [
        {
          "internalType": "address",
          "name": "",
          "type": "address"
        }
      ],
      "stateMutability": "view",
      "type": "function"
    },
    {
      "inputs": [],
      "name": "TREASURY_HUB_ADDRESS",
      "outputs": [
        {
          "internalType": "address",
          "name": "",
          "type": "address"
        }
      ],
      "stateMutability": "view",
      "type": "function"
    },
    {
      "inputs": [
        {
          "internalType": "address",
          "name": "user",
          "type": "address"
        },
        {
          "internalType": "uint256",
          "name": "tokenId",
          "type": "uint256"
        },
        {
          "internalType": "uint256",
          "name": "previousBalance",
          "type": "uint256"
        },
        {
          "internalType": "uint256",
          "name": "newBalance",
          "type": "uint256"
        }
      ],
      "name": "_handleUserTokenTransfers",
      "outputs": [],
      "stateMutability": "nonpayable",
      "type": "function"
    },
    {
      "inputs": [
        {
          "internalType": "address",
          "name": "ownerAddress",
          "type": "address"
        }
      ],
      "name": "setOwnerAddress",
      "outputs": [],
      "stateMutability": "nonpayable",
      "type": "function"
    },
    {
      "inputs": [
        {
          "internalType": "address",
          "name": "newTreasuryContractAddress",
          "type": "address"
        }
      ],
      "name": "initialize",
      "outputs": [],
      "stateMutability": "nonpayable",
      "type": "function"
    },
    {
      "inputs": [
        {
          "internalType": "bool",
          "name": "canOwnerVote",
          "type": "bool"
        },
        {
          "internalType": "uint256",
          "name": "tokenId",
          "type": "uint256"
        }
      ],
      "name": "createBallot",
      "outputs": [],
      "stateMutability": "nonpayable",
      "type": "function"
    },
    {
      "inputs": [
        {
          "internalType": "uint256",
          "name": "ballotId",
          "type": "uint256"
        },
        {
          "internalType": "bool",
          "name": "vote",
          "type": "bool"
        }
      ],
      "name": "castVote",
      "outputs": [],
      "stateMutability": "nonpayable",
      "type": "function"
    },
    {
      "inputs": [
        {
          "internalType": "uint256",
          "name": "ballotId",
          "type": "uint256"
        },
        {
          "internalType": "bool",
          "name": "vote",
          "type": "bool"
        },
        {
          "internalType": "address",
          "name": "voter",
          "type": "address"
        }
      ],
      "name": "castVoteForOther",
      "outputs": [],
      "stateMutability": "nonpayable",
      "type": "function"
    },
    {
      "inputs": [
        {
          "internalType": "uint256",
          "name": "ballotId",
          "type": "uint256"
        }
      ],
      "name": "declareWinner",
      "outputs": [],
      "stateMutability": "nonpayable",
      "type": "function"
    }
  ],
  "bytecode": "0x6080604052601960015560006005556001600a553480156200002057600080fd5b506040516200225938038062002259833981810160405281019062000046919062000143565b8080600460006101000a81548173ffffffffffffffffffffffffffffffffffffffff021916908373ffffffffffffffffffffffffffffffffffffffff160217905550508160ff1660018190555050506200018a565b600080fd5b600060ff82169050919050565b620000b881620000a0565b8114620000c457600080fd5b50565b600081519050620000d881620000ad565b92915050565b600073ffffffffffffffffffffffffffffffffffffffff82169050919050565b60006200010b82620000de565b9050919050565b6200011d81620000fe565b81146200012957600080fd5b50565b6000815190506200013d8162000112565b92915050565b600080604083850312156200015d576200015c6200009b565b5b60006200016d85828601620000c7565b925050602062000180858286016200012c565b9150509250929050565b6120bf806200019a6000396000f3fe608060405234801561001057600080fd5b506004361061009d5760003560e01c806382f61de51161006657806382f61de5146101305780638d2ae1f71461014c578063abb7ed7f1461016a578063acb3149314610186578063c4d66de8146101a45761009d565b8062c2943c146100a2578063117803e3146100be57806315373e3d146100dc578063331a6bf5146100f85780636dce866414610114575b600080fd5b6100bc60048036038101906100b79190611642565b6101c0565b005b6100c661020a565b6040516100d391906116b0565b60405180910390f35b6100f660048036038101906100f19190611703565b610230565b005b610112600480360381019061010d919061176f565b61023e565b005b61012e6004803603810190610129919061179c565b610312565b005b61014a600480360381019061014591906117dc565b610321565b005b610154610331565b60405161016191906116b0565b60405180910390f35b610184600480360381019061017f919061182f565b610357565b005b61018e610550565b60405161019b91906116b0565b60405180910390f35b6101be60048036038101906101b9919061176f565b610576565b005b60006101cb82610746565b90507f53d10fab88267d8231908eb87e8f64a19ceecd01180ef034a610f9b35783ba5382826040516101fe9291906118b4565b60405180910390a15050565b600460009054906101000a900473ffffffffffffffffffffffffffffffffffffffff1681565b61023a82826109c3565b5050565b600460009054906101000a900473ffffffffffffffffffffffffffffffffffffffff1673ffffffffffffffffffffffffffffffffffffffff163373ffffffffffffffffffffffffffffffffffffffff16146102ce576040517f08c379a00000000000000000000000000000000000000000000000000000000081526004016102c590611960565b60405180910390fd5b80600460006101000a81548173ffffffffffffffffffffffffffffffffffffffff021916908373ffffffffffffffffffffffffffffffffffffffff16021790555050565b61031c8282610cb6565b505050565b61032c838383610e53565b505050565b600360009054906101000a900473ffffffffffffffffffffffffffffffffffffffff1681565b6000600960008673ffffffffffffffffffffffffffffffffffffffff1673ffffffffffffffffffffffffffffffffffffffff168152602001908152602001600020905060005b81805490508110156105485760011515600660008484815481106103c4576103c3611980565b5b9060005260206000200154815260200190815260200160002060070160009054906101000a900460ff161515148061042e5750436006600084848154811061040f5761040e611980565b5b9060005260206000200154815260200190815260200160002060060154105b156104cf57816001838054905061044591906119de565b8154811061045657610455611980565b5b906000526020600020015482828154811061047457610473611980565b5b90600052602060002001819055508180548061049357610492611a12565b5b6001900381819060005260206000200160009055905560008114156104bb57600090506104ca565b80806104c690611a41565b9150505b610535565b600660008383815481106104e6576104e5611980565b5b9060005260206000200154815260200190815260200160002060050154851415610534576105338282815481106105205761051f611980565b5b9060005260206000200154878686610fcd565b5b5b808061054090611a6b565b91505061039d565b505050505050565b600260009054906101000a900473ffffffffffffffffffffffffffffffffffffffff1681565b60008060019054906101000a900460ff161590508080156105a75750600160008054906101000a900460ff1660ff16105b806105d457506105b63061119a565b1580156105d35750600160008054906101000a900460ff1660ff16145b5b610613576040517f08c379a000000000000000000000000000000000000000000000000000000000815260040161060a90611b26565b60405180910390fd5b60016000806101000a81548160ff021916908360ff1602179055508015610650576001600060016101000a81548160ff0219169083151502179055505b600460009054906101000a900473ffffffffffffffffffffffffffffffffffffffff1673ffffffffffffffffffffffffffffffffffffffff163373ffffffffffffffffffffffffffffffffffffffff16146106e0576040517f08c379a00000000000000000000000000000000000000000000000000000000081526004016106d790611960565b60405180910390fd5b6106e9826111bd565b80156107425760008060016101000a81548160ff0219169083151502179055507f7f26b83ff96e1f2b6a682f133852f6798a09c465da95921460cefb384740249860016040516107399190611b98565b60405180910390a15b5050565b6000600115156006600084815260200190815260200160002060070160029054906101000a900460ff161515146107b2576040517f08c379a00000000000000000000000000000000000000000000000000000000081526004016107a990611bff565b60405180910390fd5b4360066000848152602001908152602001600020600601541061080a576040517f08c379a000000000000000000000000000000000000000000000000000000000815260040161080190611c6b565b60405180910390fd5b600015156006600084815260200190815260200160002060070160009054906101000a900460ff16151514610874576040517f08c379a000000000000000000000000000000000000000000000000000000000815260040161086b90611cd7565b60405180910390fd5b60006006600084815260200190815260200160002090506000816001015490506000600260009054906101000a900473ffffffffffffffffffffffffffffffffffffffff16905060016006600087815260200190815260200160002060070160006101000a81548160ff02191690831515021790555060008211156109b65760008173ffffffffffffffffffffffffffffffffffffffff1663036c22ad85600501546040518263ffffffff1660e01b81526004016109329190611cf7565b602060405180830381865afa15801561094f573d6000803e3d6000fd5b505050506040513d601f19601f820116820180604052508101906109739190611d27565b9050600060646042836109869190611d54565b6109909190611ddd565b9050808411156109a8576001955050505050506109be565b6000955050505050506109be565b600093505050505b919050565b8133600115156006600084815260200190815260200160002060070160029054906101000a900460ff16151514610a2f576040517f08c379a0000000000000000000000000000000000000000000000000000000008152600401610a2690611bff565b60405180910390fd5b43600660008481526020019081526020016000206006015411610a87576040517f08c379a0000000000000000000000000000000000000000000000000000000008152600401610a7e90611c6b565b60405180910390fd5b600015156007600084815260200190815260200160002060008373ffffffffffffffffffffffffffffffffffffffff1673ffffffffffffffffffffffffffffffffffffffff16815260200190815260200160002060009054906101000a900460ff16151514610b2b576040517f08c379a0000000000000000000000000000000000000000000000000000000008152600401610b2290611e5a565b60405180910390fd5b836006600082815260200190815260200160002060070160019054906101000a900460ff1615610bfe57600015156007600083815260200190815260200160002060003273ffffffffffffffffffffffffffffffffffffffff1673ffffffffffffffffffffffffffffffffffffffff16815260200190815260200160002060009054906101000a900460ff16151514610bf9576040517f08c379a0000000000000000000000000000000000000000000000000000000008152600401610bf090611e5a565b60405180910390fd5b610ca4565b6006600082815260200190815260200160002060000160009054906101000a900473ffffffffffffffffffffffffffffffffffffffff1673ffffffffffffffffffffffffffffffffffffffff163273ffffffffffffffffffffffffffffffffffffffff161415610ca3576040517f08c379a0000000000000000000000000000000000000000000000000000000008152600401610c9a90611ec6565b60405180910390fd5b5b610caf858532611250565b5050505050565b600060056000815480929190610ccb90611a6b565b919050555060006040518061014001604052803273ffffffffffffffffffffffffffffffffffffffff1681526020016000815260200160008152602001600081526020016000815260200184815260200160015443610d2a9190611ee6565b815260200160001515815260200185151581526020016001151581525090508060066000600554815260200190815260200160002060008201518160000160006101000a81548173ffffffffffffffffffffffffffffffffffffffff021916908373ffffffffffffffffffffffffffffffffffffffff1602179055506020820151816001015560408201518160020155606082015181600301556080820151816004015560a0820151816005015560c0820151816006015560e08201518160070160006101000a81548160ff0219169083151502179055506101008201518160070160016101000a81548160ff0219169083151502179055506101208201518160070160026101000a81548160ff02191690831515021790555090505060055491505092915050565b8281600115156006600084815260200190815260200160002060070160029054906101000a900460ff16151514610ebf576040517f08c379a0000000000000000000000000000000000000000000000000000000008152600401610eb690611bff565b60405180910390fd5b43600660008481526020019081526020016000206006015411610f17576040517f08c379a0000000000000000000000000000000000000000000000000000000008152600401610f0e90611c6b565b60405180910390fd5b600015156007600084815260200190815260200160002060008373ffffffffffffffffffffffffffffffffffffffff1673ffffffffffffffffffffffffffffffffffffffff16815260200190815260200160002060009054906101000a900460ff16151514610fbb576040517f08c379a0000000000000000000000000000000000000000000000000000000008152600401610fb290611e5a565b60405180910390fd5b610fc6858585611250565b5050505050565b600115156007600086815260200190815260200160002060008573ffffffffffffffffffffffffffffffffffffffff1673ffffffffffffffffffffffffffffffffffffffff16815260200190815260200160002060009054906101000a900460ff16151514611071576040517f08c379a000000000000000000000000000000000000000000000000000000000815260040161106890611fae565b60405180910390fd5b60006008600086815260200190815260200160002060008573ffffffffffffffffffffffffffffffffffffffff1673ffffffffffffffffffffffffffffffffffffffff16815260200190815260200160002060009054906101000a900460ff169050801561113857826006600087815260200190815260200160002060010160008282546110ff91906119de565b925050819055508160066000878152602001908152602001600020600101600082825461112c9190611ee6565b92505081905550611193565b8260066000878152602001908152602001600020600301600082825461115e91906119de565b925050819055508160066000878152602001908152602001600020600301600082825461118b9190611ee6565b925050819055505b5050505050565b6000808273ffffffffffffffffffffffffffffffffffffffff163b119050919050565b600060019054906101000a900460ff1661120c576040517f08c379a000000000000000000000000000000000000000000000000000000000815260040161120390612040565b60405180910390fd5b80600260006101000a81548173ffffffffffffffffffffffffffffffffffffffff021916908373ffffffffffffffffffffffffffffffffffffffff16021790555050565b6000600260009054906101000a900473ffffffffffffffffffffffffffffffffffffffff169050600060066000868152602001908152602001600020604051806101400160405290816000820160009054906101000a900473ffffffffffffffffffffffffffffffffffffffff1673ffffffffffffffffffffffffffffffffffffffff1673ffffffffffffffffffffffffffffffffffffffff1681526020016001820154815260200160028201548152602001600382015481526020016004820154815260200160058201548152602001600682015481526020016007820160009054906101000a900460ff161515151581526020016007820160019054906101000a900460ff161515151581526020016007820160029054906101000a900460ff161515151581525050905060008273ffffffffffffffffffffffffffffffffffffffff1662fdd58e858460a001516040518363ffffffff1660e01b81526004016113bd929190612060565b602060405180830381865afa1580156113da573d6000803e3d6000fd5b505050506040513d601f19601f820116820180604052508101906113fe9190611d27565b90508415611466578060066000888152602001908152602001600020600101600082825461142c9190611ee6565b92505081905550600160066000888152602001908152602001600020600201600082825461145a9190611ee6565b925050819055506114c2565b8060066000888152602001908152602001600020600301600082825461148c9190611ee6565b9250508190555060016006600088815260200190815260200160002060040160008282546114ba9190611ee6565b925050819055505b60016007600088815260200190815260200160002060008673ffffffffffffffffffffffffffffffffffffffff1673ffffffffffffffffffffffffffffffffffffffff16815260200190815260200160002060006101000a81548160ff021916908315150217905550846008600088815260200190815260200160002060008673ffffffffffffffffffffffffffffffffffffffff1673ffffffffffffffffffffffffffffffffffffffff16815260200190815260200160002060006101000a81548160ff0219169083151502179055506000600960008673ffffffffffffffffffffffffffffffffffffffff1673ffffffffffffffffffffffffffffffffffffffff16815260200190815260200160002090508087908060018154018082558091505060019003906000526020600020016000909190919091505550505050505050565b600080fd5b6000819050919050565b61161f8161160c565b811461162a57600080fd5b50565b60008135905061163c81611616565b92915050565b60006020828403121561165857611657611607565b5b60006116668482850161162d565b91505092915050565b600073ffffffffffffffffffffffffffffffffffffffff82169050919050565b600061169a8261166f565b9050919050565b6116aa8161168f565b82525050565b60006020820190506116c560008301846116a1565b92915050565b60008115159050919050565b6116e0816116cb565b81146116eb57600080fd5b50565b6000813590506116fd816116d7565b92915050565b6000806040838503121561171a57611719611607565b5b60006117288582860161162d565b9250506020611739858286016116ee565b9150509250929050565b61174c8161168f565b811461175757600080fd5b50565b60008135905061176981611743565b92915050565b60006020828403121561178557611784611607565b5b60006117938482850161175a565b91505092915050565b600080604083850312156117b3576117b2611607565b5b60006117c1858286016116ee565b92505060206117d28582860161162d565b9150509250929050565b6000806000606084860312156117f5576117f4611607565b5b60006118038682870161162d565b9350506020611814868287016116ee565b92505060406118258682870161175a565b9150509250925092565b6000806000806080858703121561184957611848611607565b5b60006118578782880161175a565b94505060206118688782880161162d565b93505060406118798782880161162d565b925050606061188a8782880161162d565b91505092959194509250565b61189f8161160c565b82525050565b6118ae816116cb565b82525050565b60006040820190506118c96000830185611896565b6118d660208301846118a5565b9392505050565b600082825260208201905092915050565b7f554e415554484f52495a45443a2043414e4e4f545f504552464f524d5f41435460008201527f494f4e0000000000000000000000000000000000000000000000000000000000602082015250565b600061194a6023836118dd565b9150611955826118ee565b604082019050919050565b600060208201905081810360008301526119798161193d565b9050919050565b7f4e487b7100000000000000000000000000000000000000000000000000000000600052603260045260246000fd5b7f4e487b7100000000000000000000000000000000000000000000000000000000600052601160045260246000fd5b60006119e98261160c565b91506119f48361160c565b925082821015611a0757611a066119af565b5b828203905092915050565b7f4e487b7100000000000000000000000000000000000000000000000000000000600052603160045260246000fd5b6000611a4c8261160c565b91506000821415611a6057611a5f6119af565b5b600182039050919050565b6000611a768261160c565b91507fffffffffffffffffffffffffffffffffffffffffffffffffffffffffffffffff821415611aa957611aa86119af565b5b600182019050919050565b7f496e697469616c697a61626c653a20636f6e747261637420697320616c72656160008201527f647920696e697469616c697a6564000000000000000000000000000000000000602082015250565b6000611b10602e836118dd565b9150611b1b82611ab4565b604082019050919050565b60006020820190508181036000830152611b3f81611b03565b9050919050565b6000819050919050565b600060ff82169050919050565b6000819050919050565b6000611b82611b7d611b7884611b46565b611b5d565b611b50565b9050919050565b611b9281611b67565b82525050565b6000602082019050611bad6000830184611b89565b92915050565b7f494e56414c49443a2042414c4c4f545f4e4f545f464f554e4400000000000000600082015250565b6000611be96019836118dd565b9150611bf482611bb3565b602082019050919050565b60006020820190508181036000830152611c1881611bdc565b9050919050565b7f494e56414c49443a20564f54494e475f54494d455f4f56455200000000000000600082015250565b6000611c556019836118dd565b9150611c6082611c1f565b602082019050919050565b60006020820190508181036000830152611c8481611c48565b9050919050565b7f494e56414c49443a20524553554c545f414c52454144595f4445434c41524544600082015250565b6000611cc16020836118dd565b9150611ccc82611c8b565b602082019050919050565b60006020820190508181036000830152611cf081611cb4565b9050919050565b6000602082019050611d0c6000830184611896565b92915050565b600081519050611d2181611616565b92915050565b600060208284031215611d3d57611d3c611607565b5b6000611d4b84828501611d12565b91505092915050565b6000611d5f8261160c565b9150611d6a8361160c565b9250817fffffffffffffffffffffffffffffffffffffffffffffffffffffffffffffffff0483118215151615611da357611da26119af565b5b828202905092915050565b7f4e487b7100000000000000000000000000000000000000000000000000000000600052601260045260246000fd5b6000611de88261160c565b9150611df38361160c565b925082611e0357611e02611dae565b5b828204905092915050565b7f494e56414c49443a20414c52454144595f564f54454400000000000000000000600082015250565b6000611e446016836118dd565b9150611e4f82611e0e565b602082019050919050565b60006020820190508181036000830152611e7381611e37565b9050919050565b7f554e415554484f52495a45443a204f574e45525f43414e4e4f545f564f544500600082015250565b6000611eb0601f836118dd565b9150611ebb82611e7a565b602082019050919050565b60006020820190508181036000830152611edf81611ea3565b9050919050565b6000611ef18261160c565b9150611efc8361160c565b9250827fffffffffffffffffffffffffffffffffffffffffffffffffffffffffffffffff03821115611f3157611f306119af565b5b828201905092915050565b7f494e56414c49443a20494e5445524e414c3a20555345525f4841535f4e4f545f60008201527f564f544544000000000000000000000000000000000000000000000000000000602082015250565b6000611f986025836118dd565b9150611fa382611f3c565b604082019050919050565b60006020820190508181036000830152611fc781611f8b565b9050919050565b7f496e697469616c697a61626c653a20636f6e7472616374206973206e6f74206960008201527f6e697469616c697a696e67000000000000000000000000000000000000000000602082015250565b600061202a602b836118dd565b915061203582611fce565b604082019050919050565b600060208201905081810360008301526120598161201d565b9050919050565b600060408201905061207560008301856116a1565b6120826020830184611896565b939250505056fea26469706673582212209e77e1ca39a752c69e01f9e98dfa11befff81b312db2b3c3832ba9565922ec0f64736f6c634300080c0033",
  "immutableReferences": {},
  "source": "// SPDX-License-Identifier: MIT\n\npragma solidity ^0.8.0;\n\nimport \"../voting/BaseVotingContract.sol\";\n\ncontract BaseVotingContractMock is BaseVotingContract {\n    uint256 private LastTokenId = 1;\n\n    /// @dev this event is generated when result of a ballot is declared\n    /// @param ballotId this is the ballot Id for which result is declared\n    /// @param result this is the status of the result either true if user won that is he received\n    /// more than 66% of votes or false if user lost\n    event BallotResult(uint256 ballotId, bool result);\n\n    constructor(uint8 votingInterval, address owner) BaseVotingContract(owner) {\n        VOTING_BLOCK_PERIOD = votingInterval;\n    }\n\n    // /// @dev This function sets the treasury Contract address\n    // /// @param newTreasuryContractAddress this is the new address of the treasury contract\n    // function setTreasuryContractAddress(address newTreasuryContractAddress)\n    //     external\n    //     _ownerOnly\n    // {\n    //     _setTreasuryContractAddress(newTreasuryContractAddress);\n    // }\n\n    /// @dev This is to set the address of the contracts\n    /// @param newTreasuryContractAddress This is the address of new treasury contract\n    function initialize(address newTreasuryContractAddress)\n        public\n        override\n        initializer\n        _ownerOnly\n    {\n        BaseVotingContract.initialize(newTreasuryContractAddress);\n    }\n\n    function createBallot(bool canOwnerVote, uint256 tokenId) public {\n        _createVoting(canOwnerVote, tokenId);\n    }\n\n    function castVote(uint256 ballotId, bool vote) public {\n        _castVote(ballotId, vote);\n    }\n\n    function castVoteForOther(\n        uint256 ballotId,\n        bool vote,\n        address voter\n    ) public {\n        _castVoteForOther(ballotId, vote, voter);\n    }\n\n    function declareWinner(uint256 ballotId) public {\n        bool result = _declareWinner(ballotId);\n        emit BallotResult(ballotId, result);\n    }\n}\n",
  "sourcePath": "/Users/a1/Desktop/Office/projects/CrowdRecords/Contracts/contracts/Mocks/BaseVotingContractMock.sol",
  "compiler": {
    "name": "solc",
    "version": "0.8.12+commit.f00d7308.Emscripten.clang"
  },
  "schemaVersion": "3.4.6",
  "updatedAt": "2022-10-13T11:10:29.419Z",
  "devdoc": {
    "events": {
      "BallotResult(uint256,bool)": {
        "details": "this event is generated when result of a ballot is declared",
        "params": {
          "ballotId": "this is the ballot Id for which result is declared",
          "result": "this is the status of the result either true if user won that is he received more than 66% of votes or false if user lost"
        }
      }
    },
    "kind": "dev",
    "methods": {
      "_handleUserTokenTransfers(address,uint256,uint256,uint256)": {
        "details": "This function will be called when either user is transferring the tokens to other account, or is receiving tokens from other tokens.",
        "params": {
          "newBalance": "this is the new balance of the user that is after the transfer",
          "previousBalance": "this is the old balance of the user",
          "user": "address of the user whose balance is being changed"
        }
      },
      "initialize(address)": {
        "details": "This is to set the address of the contracts",
        "params": {
          "newTreasuryContractAddress": "This is the address of new treasury contract"
        }
      },
      "setOwnerAddress(address)": {
        "details": "This function sets the owner address",
        "params": {
          "ownerAddress": "This is the address of the owner"
        }
      }
    },
    "version": 1
  },
  "userdoc": {
    "kind": "user",
    "methods": {},
    "version": 1
  }
}