{
  "contractName": "BaseVotingCounterOfferContractMock",
  "abi": [
    {
      "inputs": [
        {
          "internalType": "uint8",
          "name": "votingInterval",
          "type": "uint8"
        },
        {
          "internalType": "address",
          "name": "owner",
          "type": "address"
        }
      ],
      "stateMutability": "nonpayable",
      "type": "constructor"
    },
    {
      "anonymous": false,
      "inputs": [
        {
          "indexed": false,
          "internalType": "uint256",
          "name": "ballotId",
          "type": "uint256"
        },
        {
          "indexed": false,
          "internalType": "bool",
          "name": "result",
          "type": "bool"
        },
        {
          "indexed": false,
          "internalType": "bool",
          "name": "minTurnOut",
          "type": "bool"
        }
      ],
      "name": "BallotResult",
      "type": "event"
    },
    {
      "anonymous": false,
      "inputs": [
        {
          "indexed": false,
          "internalType": "uint256",
          "name": "ballotId",
          "type": "uint256"
        },
        {
          "indexed": false,
          "internalType": "address",
          "name": "creator",
          "type": "address"
        }
      ],
      "name": "CounterOfferCreated",
      "type": "event"
    },
    {
      "anonymous": false,
      "inputs": [
        {
          "indexed": false,
          "internalType": "uint256",
          "name": "ballotId",
          "type": "uint256"
        },
        {
          "indexed": false,
          "internalType": "address",
          "name": "creator",
          "type": "address"
        },
        {
          "indexed": false,
          "internalType": "bool",
          "name": "result",
          "type": "bool"
        }
      ],
      "name": "CounterOfferResult",
      "type": "event"
    },
    {
      "anonymous": false,
      "inputs": [
        {
          "indexed": false,
          "internalType": "uint256",
          "name": "value",
          "type": "uint256"
        }
      ],
      "name": "DEBUG",
      "type": "event"
    },
    {
      "anonymous": false,
      "inputs": [
        {
          "indexed": false,
          "internalType": "address",
          "name": "owner",
          "type": "address"
        },
        {
          "indexed": false,
          "internalType": "uint256",
          "name": "ballotId",
          "type": "uint256"
        },
        {
          "indexed": false,
          "internalType": "uint256",
          "name": "depositAmount",
          "type": "uint256"
        }
      ],
      "name": "DepositClaimed",
      "type": "event"
    },
    {
      "anonymous": false,
      "inputs": [
        {
          "indexed": false,
          "internalType": "address",
          "name": "owner",
          "type": "address"
        },
        {
          "indexed": false,
          "internalType": "uint256",
          "name": "ballotId",
          "type": "uint256"
        },
        {
          "indexed": false,
          "internalType": "uint256",
          "name": "depositAmount",
          "type": "uint256"
        },
        {
          "indexed": false,
          "internalType": "bool",
          "name": "isClaimed",
          "type": "bool"
        },
        {
          "indexed": false,
          "internalType": "bool",
          "name": "isPresent",
          "type": "bool"
        }
      ],
      "name": "DepositCreated",
      "type": "event"
    },
    {
      "anonymous": false,
      "inputs": [
        {
          "indexed": false,
          "internalType": "uint8",
          "name": "version",
          "type": "uint8"
        }
      ],
      "name": "Initialized",
      "type": "event"
    },
    {
      "inputs": [],
      "name": "GOVERNANCE",
      "outputs": [
        {
          "internalType": "address",
          "name": "",
          "type": "address"
        }
      ],
      "stateMutability": "view",
      "type": "function"
    },
    {
      "inputs": [],
      "name": "MIN_TURNOUT_PERCENT",
      "outputs": [
        {
          "internalType": "uint256",
          "name": "",
          "type": "uint256"
        }
      ],
      "stateMutability": "view",
      "type": "function"
    },
    {
      "inputs": [],
      "name": "OWNER",
      "outputs": [
        {
          "internalType": "address",
          "name": "",
          "type": "address"
        }
      ],
      "stateMutability": "view",
      "type": "function"
    },
    {
      "inputs": [],
      "name": "TREASURY_CONTRACT_ADDRESS",
      "outputs": [
        {
          "internalType": "address",
          "name": "",
          "type": "address"
        }
      ],
      "stateMutability": "view",
      "type": "function"
    },
    {
      "inputs": [],
      "name": "TREASURY_HUB_ADDRESS",
      "outputs": [
        {
          "internalType": "address",
          "name": "",
          "type": "address"
        }
      ],
      "stateMutability": "view",
      "type": "function"
    },
    {
      "inputs": [],
      "name": "VOTING_BLOCK_PERIOD",
      "outputs": [
        {
          "internalType": "uint256",
          "name": "",
          "type": "uint256"
        }
      ],
      "stateMutability": "view",
      "type": "function"
    },
    {
      "inputs": [],
      "name": "VOTING_DEPOSIT",
      "outputs": [
        {
          "internalType": "uint256",
          "name": "",
          "type": "uint256"
        }
      ],
      "stateMutability": "view",
      "type": "function"
    },
    {
      "inputs": [
        {
          "internalType": "address",
          "name": "user",
          "type": "address"
        },
        {
          "internalType": "uint256",
          "name": "tokenId",
          "type": "uint256"
        },
        {
          "internalType": "uint256",
          "name": "previousBalance",
          "type": "uint256"
        },
        {
          "internalType": "uint256",
          "name": "newBalance",
          "type": "uint256"
        }
      ],
      "name": "_handleUserTokenTransfers",
      "outputs": [],
      "stateMutability": "nonpayable",
      "type": "function"
    },
    {
      "inputs": [
        {
          "internalType": "uint256",
          "name": "",
          "type": "uint256"
        }
      ],
      "name": "depositMap",
      "outputs": [
        {
          "internalType": "address",
          "name": "owner",
          "type": "address"
        },
        {
          "internalType": "uint256",
          "name": "ballotId",
          "type": "uint256"
        },
        {
          "internalType": "uint256",
          "name": "depositAmount",
          "type": "uint256"
        },
        {
          "internalType": "bool",
          "name": "isClaimed",
          "type": "bool"
        },
        {
          "internalType": "bool",
          "name": "isPresent",
          "type": "bool"
        }
      ],
      "stateMutability": "view",
      "type": "function"
    },
    {
      "inputs": [
        {
          "internalType": "uint256",
          "name": "depositAmount",
          "type": "uint256"
        }
      ],
      "name": "setDepositAmount",
      "outputs": [],
      "stateMutability": "nonpayable",
      "type": "function"
    },
    {
      "inputs": [
        {
          "internalType": "uint256",
          "name": "minTurnOut",
          "type": "uint256"
        }
      ],
      "name": "setMinTurnOut",
      "outputs": [],
      "stateMutability": "nonpayable",
      "type": "function"
    },
    {
      "inputs": [
        {
          "internalType": "address",
          "name": "ownerAddress",
          "type": "address"
        }
      ],
      "name": "setOwnerAddress",
      "outputs": [],
      "stateMutability": "nonpayable",
      "type": "function"
    },
    {
      "inputs": [
        {
          "internalType": "uint256",
          "name": "votingPeriod",
          "type": "uint256"
        }
      ],
      "name": "setVotingPeriod",
      "outputs": [],
      "stateMutability": "nonpayable",
      "type": "function"
    },
    {
      "inputs": [
        {
          "internalType": "uint256",
          "name": "",
          "type": "uint256"
        }
      ],
      "name": "votingMap",
      "outputs": [
        {
          "internalType": "address",
          "name": "owner",
          "type": "address"
        },
        {
          "internalType": "uint256",
          "name": "yesWeight",
          "type": "uint256"
        },
        {
          "internalType": "uint256",
          "name": "yesCount",
          "type": "uint256"
        },
        {
          "internalType": "uint256",
          "name": "noWeight",
          "type": "uint256"
        },
        {
          "internalType": "uint256",
          "name": "noCount",
          "type": "uint256"
        },
        {
          "internalType": "uint256",
          "name": "tokenId",
          "type": "uint256"
        },
        {
          "internalType": "uint256",
          "name": "votingEndBlock",
          "type": "uint256"
        },
        {
          "internalType": "bool",
          "name": "isResultDeclared",
          "type": "bool"
        },
        {
          "internalType": "bool",
          "name": "canOwnerVote",
          "type": "bool"
        },
        {
          "internalType": "bool",
          "name": "isPresent",
          "type": "bool"
        }
      ],
      "stateMutability": "view",
      "type": "function"
    },
    {
      "inputs": [
        {
          "internalType": "address",
          "name": "newTreasuryContractAddress",
          "type": "address"
        },
        {
          "internalType": "address",
          "name": "newGovernanceContractAddress",
          "type": "address"
        }
      ],
      "name": "initialize",
      "outputs": [],
      "stateMutability": "nonpayable",
      "type": "function"
    },
    {
      "inputs": [
        {
          "internalType": "bool",
          "name": "canOwnerVote",
          "type": "bool"
        },
        {
          "internalType": "uint256",
          "name": "tokenId",
          "type": "uint256"
        }
      ],
      "name": "createBallot",
      "outputs": [],
      "stateMutability": "payable",
      "type": "function"
    },
    {
      "inputs": [
        {
          "internalType": "uint256",
          "name": "ballotId",
          "type": "uint256"
        },
        {
          "internalType": "bool",
          "name": "vote",
          "type": "bool"
        }
      ],
      "name": "castVote",
      "outputs": [],
      "stateMutability": "nonpayable",
      "type": "function"
    },
    {
      "inputs": [
        {
          "internalType": "uint256",
          "name": "ballotId",
          "type": "uint256"
        }
      ],
      "name": "createCounterOffer",
      "outputs": [],
      "stateMutability": "nonpayable",
      "type": "function"
    },
    {
      "inputs": [
        {
          "internalType": "uint256",
          "name": "votingBallotId",
          "type": "uint256"
        },
        {
          "internalType": "address",
          "name": "user",
          "type": "address"
        },
        {
          "internalType": "bool",
          "name": "vote",
          "type": "bool"
        }
      ],
      "name": "counterOfferAction",
      "outputs": [],
      "stateMutability": "nonpayable",
      "type": "function"
    },
    {
      "inputs": [
        {
          "internalType": "uint256",
          "name": "ballotId",
          "type": "uint256"
        }
      ],
      "name": "declareWinner",
      "outputs": [],
      "stateMutability": "nonpayable",
      "type": "function"
    }
  ],
  "bytecode": "0x6080604052670de0b6b3a764000060015560196002556101f460035560006008556001600f553480156200003257600080fd5b50604051620028e5380380620028e5833981016040819052620000559162000081565b600680546001600160a01b0319166001600160a01b039290921691909117905560ff16600255620000d0565b600080604083850312156200009557600080fd5b825160ff81168114620000a757600080fd5b60208401519092506001600160a01b0381168114620000c557600080fd5b809150509250929050565b61280580620000e06000396000f3fe60806040526004361061015e5760003560e01c80636dce8664116100c0578063abb7ed7f11610074578063db15ef5f11610059578063db15ef5f14610520578063e1f2e08414610540578063ea0217cf1461056057600080fd5b8063abb7ed7f146104d3578063acb31493146104f357600080fd5b806383b0b071116100a557806383b0b071146103e8578063879253a3146104905780638d2ae1f7146104a657600080fd5b80636dce8664146103b5578063716085f6146103c857600080fd5b806333e0ea2e1161011757806363e249c1116100fc57806363e249c11461028d5780636c83244a1461037f5780636d8cee561461039557600080fd5b806333e0ea2e14610249578063485cc9551461026d57600080fd5b8063146278341161014857806314627834146101dc57806315373e3d14610209578063331a6bf51461022957600080fd5b8062c2943c14610163578063117803e314610185575b600080fd5b34801561016f57600080fd5b5061018361017e3660046124ab565b610580565b005b34801561019157600080fd5b506006546101b29073ffffffffffffffffffffffffffffffffffffffff1681565b60405173ffffffffffffffffffffffffffffffffffffffff90911681526020015b60405180910390f35b3480156101e857600080fd5b506007546101b29073ffffffffffffffffffffffffffffffffffffffff1681565b34801561021557600080fd5b506101836102243660046124d9565b6105e3565b34801561023557600080fd5b50610183610244366004612529565b6105f1565b34801561025557600080fd5b5061025f60035481565b6040519081526020016101d3565b34801561027957600080fd5b5061018361028836600461254b565b6106e4565b34801561029957600080fd5b506103186102a83660046124ab565b6009602052600090815260409020805460018201546002830154600384015460048501546005860154600687015460079097015473ffffffffffffffffffffffffffffffffffffffff909616969495939492939192909160ff80821691610100810482169162010000909104168a565b6040805173ffffffffffffffffffffffffffffffffffffffff909b168b5260208b0199909952978901969096526060880194909452608087019290925260a086015260c0850152151560e084015215156101008301521515610120820152610140016101d3565b34801561038b57600080fd5b5061025f60025481565b3480156103a157600080fd5b506101836103b03660046124ab565b610921565b6101836103c3366004612575565b6109a7565b3480156103d457600080fd5b506101836103e33660046124ab565b6109bf565b3480156103f457600080fd5b5061044d6104033660046124ab565b600c60205260009081526040902080546001820154600283015460039093015473ffffffffffffffffffffffffffffffffffffffff90921692909160ff8082169161010090041685565b6040805173ffffffffffffffffffffffffffffffffffffffff9096168652602086019490945292840191909152151560608301521515608082015260a0016101d3565b34801561049c57600080fd5b5061025f60015481565b3480156104b257600080fd5b506005546101b29073ffffffffffffffffffffffffffffffffffffffff1681565b3480156104df57600080fd5b506101836104ee36600461259f565b610a03565b3480156104ff57600080fd5b506004546101b29073ffffffffffffffffffffffffffffffffffffffff1681565b34801561052c57600080fd5b5061018361053b3660046125d8565b610bc1565b34801561054c57600080fd5b5061018361055b3660046124ab565b610c23565b34801561056c57600080fd5b5061018361057b3660046124ab565b610ca9565b60008061058c83610d2f565b6040805186815283151560208201528215158183015290519294509092507f1f6972cf5ca4c61f97e167c7304bc893a078a7ae23020018f03bfcdd947e755e919081900360600190a16105de8361104a565b505050565b6105ed8282611298565b5050565b60065473ffffffffffffffffffffffffffffffffffffffff16331461069d576040517f08c379a000000000000000000000000000000000000000000000000000000000815260206004820152602360248201527f554e415554484f52495a45443a2043414e4e4f545f504552464f524d5f41435460448201527f494f4e000000000000000000000000000000000000000000000000000000000060648201526084015b60405180910390fd5b600680547fffffffffffffffffffffffff00000000000000000000000000000000000000001673ffffffffffffffffffffffffffffffffffffffff92909216919091179055565b600054610100900460ff16158080156107045750600054600160ff909116105b8061071e5750303b15801561071e575060005460ff166001145b6107aa576040517f08c379a000000000000000000000000000000000000000000000000000000000815260206004820152602e60248201527f496e697469616c697a61626c653a20636f6e747261637420697320616c72656160448201527f647920696e697469616c697a65640000000000000000000000000000000000006064820152608401610694565b600080547fffffffffffffffffffffffffffffffffffffffffffffffffffffffffffffff00166001179055801561080857600080547fffffffffffffffffffffffffffffffffffffffffffffffffffffffffffff00ff166101001790555b60065473ffffffffffffffffffffffffffffffffffffffff1633146108af576040517f08c379a000000000000000000000000000000000000000000000000000000000815260206004820152602360248201527f554e415554484f52495a45443a2043414e4e4f545f504552464f524d5f41435460448201527f494f4e00000000000000000000000000000000000000000000000000000000006064820152608401610694565b6108b98383611328565b80156105de57600080547fffffffffffffffffffffffffffffffffffffffffffffffffffffffffffff00ff169055604051600181527f7f26b83ff96e1f2b6a682f133852f6798a09c465da95921460cefb3847402498906020015b60405180910390a1505050565b60075473ffffffffffffffffffffffffffffffffffffffff1633146109a2576040517f08c379a000000000000000000000000000000000000000000000000000000000815260206004820152601d60248201527f554e415554484f52495a45443a204f4e4c595f474f5645524e414e43450000006044820152606401610694565b600155565b60006109b383836113c9565b90506105de338261158e565b6109c88161175f565b604080518281523360208201527f7b2a9740890b2b2ca53bf31053b40721fdb1197d06ca76b25a92a30366bcb168910160405180910390a150565b73ffffffffffffffffffffffffffffffffffffffff84166000908152600d60205260408120905b8154811015610bb95760096000838381548110610a4957610a49612614565b6000918252602080832090910154835282019290925260400190206007015460ff16151560011480610aac57504360096000848481548110610a8d57610a8d612614565b9060005260206000200154815260200190815260200160002060060154105b15610b455781548290610ac190600190612672565b81548110610ad157610ad1612614565b9060005260206000200154828281548110610aee57610aee612614565b906000526020600020018190555081805480610b0c57610b0c612689565b600190038181906000526020600020016000905590558060001415610b3357506000610ba7565b80610b3d816126b8565b915050610ba7565b60096000838381548110610b5b57610b5b612614565b9060005260206000200154815260200190815260200160002060050154851415610ba757610ba7828281548110610b9457610b94612614565b90600052602060002001548786866119ca565b80610bb1816126ed565b915050610a2a565b505050505050565b610bcc838383611b6d565b6040805184815273ffffffffffffffffffffffffffffffffffffffff84166020820152821515918101919091527f8b95fafecc76617ca8d9d71a15a8d93fbd9ee1700149fd39bbb4ccd29465b45d90606001610914565b60075473ffffffffffffffffffffffffffffffffffffffff163314610ca4576040517f08c379a000000000000000000000000000000000000000000000000000000000815260206004820152601d60248201527f554e415554484f52495a45443a204f4e4c595f474f5645524e414e43450000006044820152606401610694565b600355565b60075473ffffffffffffffffffffffffffffffffffffffff163314610d2a576040517f08c379a000000000000000000000000000000000000000000000000000000000815260206004820152601d60248201527f554e415554484f52495a45443a204f4e4c595f474f5645524e414e43450000006044820152606401610694565b600255565b600081815260096020526040812060070154819062010000900460ff161515600114610db7576040517f08c379a000000000000000000000000000000000000000000000000000000000815260206004820152601960248201527f494e56414c49443a2042414c4c4f545f4e4f545f464f554e44000000000000006044820152606401610694565b6000838152600960205260409020600601544311610e31576040517f08c379a000000000000000000000000000000000000000000000000000000000815260206004820152601d60248201527f494e56414c49443a20564f54494e475f54494d455f4e4f545f4f5645520000006044820152606401610694565b60008381526009602052604090206007015460ff1615610ead576040517f08c379a000000000000000000000000000000000000000000000000000000000815260206004820181905260248201527f494e56414c49443a20524553554c545f414c52454144595f4445434c415245446044820152606401610694565b6000838152600960205260408082206001808201546003830154600480546007860180547fffffffffffffffffffffffffffffffffffffffffffffffffffffffffffffff0016909517909455600585015495517f036c22ad000000000000000000000000000000000000000000000000000000008152908101959095529294909373ffffffffffffffffffffffffffffffffffffffff90921691829063036c22ad90602401602060405180830381865afa158015610f6f573d6000803e3d6000fd5b505050506040513d601f19601f82011682018060405250810190610f939190612726565b9050600060648060035484610fa8919061273f565b610fb2919061277c565b610fbc919061277c565b905080610fc986866127b7565b11156110395784156110275760006064610fe386886127b7565b610fee90604261273f565b610ff8919061277c565b90508086111561101457506001998a9950975050505050505050565b5060009960019950975050505050505050565b50600098600198509650505050505050565b506000988998509650505050505050565b6000818152600c602052604090206003015460ff6101009091041615156001146110d0576040517f08c379a000000000000000000000000000000000000000000000000000000000815260206004820152600d60248201527f4445505f4e4f545f4558495354000000000000000000000000000000000000006044820152606401610694565b6000818152600c602052604090206003015460ff161561114c576040517f08c379a000000000000000000000000000000000000000000000000000000000815260206004820152601360248201527f4445505f414c52454144595f434c41494d4544000000000000000000000000006044820152606401610694565b6000818152600c60205260408082208054600290910154915173ffffffffffffffffffffffffffffffffffffffff90911691908381818185875af1925050503d80600081146111b7576040519150601f19603f3d011682016040523d82523d6000602084013e6111bc565b606091505b5050905080611227576040517f08c379a000000000000000000000000000000000000000000000000000000000815260206004820152600d60248201527f494e565f4445505f434c41494d000000000000000000000000000000000000006044820152606401610694565b6000828152600c60209081526040918290208054600290910154835173ffffffffffffffffffffffffffffffffffffffff9092168252918101859052918201527f6b1069552f63b401b74bc71e75594d0a8bc61f7a42998e0f201b78f9aa600d329060600160405180910390a15050565b6000828152600e60209081526040808320338452909152902054829060ff161561131e576040517f08c379a000000000000000000000000000000000000000000000000000000000815260206004820181905260248201527f494e56414c49443a20414c52454144595f434f554e5445525f4f4646455245446044820152606401610694565b6105de8383611ccf565b600054610100900460ff166113bf576040517f08c379a000000000000000000000000000000000000000000000000000000000815260206004820152602b60248201527f496e697469616c697a61626c653a20636f6e7472616374206973206e6f74206960448201527f6e697469616c697a696e670000000000000000000000000000000000000000006064820152608401610694565b6105ed8282611fb0565b60088054600091826113da836126ed565b919050555060006040518061014001604052803273ffffffffffffffffffffffffffffffffffffffff168152602001600081526020016000815260200160008152602001600081526020018481526020016002544361143991906127b7565b8152600060208083018290529615156040808401919091526001606093840181905260088054845260098a5292829020855181547fffffffffffffffffffffffff00000000000000000000000000000000000000001673ffffffffffffffffffffffffffffffffffffffff909116178155988501519089015583015160028801559082015160038701556080820151600487015560a0820151600587015560c0820151600687015560e08201516007909601805461010080850151610120909501517fffffffffffffffffffffffffffffffffffffffffffffffffffffffffffff00009092169815157fffffffffffffffffffffffffffffffffffffffffffffffffffffffffffff00ff1698909817931515909702929092177fffffffffffffffffffffffffffffffffffffffffffffffffffffffffff00ffff16620100009615159690960295909517905550509054919050565b34600154146115f9576040517f08c379a000000000000000000000000000000000000000000000000000000000815260206004820152600760248201527f494e565f444550000000000000000000000000000000000000000000000000006044820152606401610694565b6040805160a0808201835273ffffffffffffffffffffffffffffffffffffffff851680835260208084018690526001805485870181905260006060808801829052608080890185905289519687529486018a9052858901929092529084015290820152925191927f58ac581930e3170185d9c86e70eceabd7254c9eee2c1df3b76e38f030645ec3d929081900390910190a16000918252600c6020908152604092839020825181547fffffffffffffffffffffffff00000000000000000000000000000000000000001673ffffffffffffffffffffffffffffffffffffffff9091161781559082015160018201559181015160028301556060810151600390920180546080909201517fffffffffffffffffffffffffffffffffffffffffffffffffffffffffffff00009092169215157fffffffffffffffffffffffffffffffffffffffffffffffffffffffffffff00ff16929092176101009115159190910217905550565b6000818152600e60209081526040808320338452909152902054819060ff16156117e5576040517f08c379a000000000000000000000000000000000000000000000000000000000815260206004820181905260248201527f494e56414c49443a20414c52454144595f434f554e5445525f4f4646455245446044820152606401610694565b6000828152600960205260409020600701548290339062010000900460ff16151560011461186f576040517f08c379a000000000000000000000000000000000000000000000000000000000815260206004820152601960248201527f494e56414c49443a2042414c4c4f545f4e4f545f464f554e44000000000000006044820152606401610694565b60008281526009602052604090206006015443106118e9576040517f08c379a000000000000000000000000000000000000000000000000000000000815260206004820152601960248201527f494e56414c49443a20564f54494e475f54494d455f4f564552000000000000006044820152606401610694565b6000828152600a6020908152604080832073ffffffffffffffffffffffffffffffffffffffff8516845290915290205460ff1615611983576040517f08c379a000000000000000000000000000000000000000000000000000000000815260206004820152601660248201527f494e56414c49443a20414c52454144595f564f544544000000000000000000006044820152606401610694565b5050506000908152600e60209081526040808320338452909152902080547fffffffffffffffffffffffffffffffffffffffffffffffffffffffffffffff00166001179055565b6000848152600a6020908152604080832073ffffffffffffffffffffffffffffffffffffffff8716845290915290205460ff161515600114611a8e576040517f08c379a000000000000000000000000000000000000000000000000000000000815260206004820152602560248201527f494e56414c49443a20494e5445524e414c3a20555345525f4841535f4e4f545f60448201527f564f5445440000000000000000000000000000000000000000000000000000006064820152608401610694565b6000848152600b6020908152604080832073ffffffffffffffffffffffffffffffffffffffff8716845290915290205460ff168015611b195760008581526009602052604081206001018054859290611ae8908490612672565b909155505060008581526009602052604081206001018054849290611b0e9084906127b7565b90915550611b669050565b60008581526009602052604081206003018054859290611b3a908490612672565b909155505060008581526009602052604081206003018054849290611b609084906127b7565b90915550505b5050505050565b6000838152600e6020908152604080832073ffffffffffffffffffffffffffffffffffffffff861684529091529020548390839060ff161515600114611c35576040517f08c379a000000000000000000000000000000000000000000000000000000000815260206004820152602160248201527f494e56414c49443a20434f554e5445525f4f464645525f4e4f545f455849535460448201527f53000000000000000000000000000000000000000000000000000000000000006064820152608401610694565b600085815260096020526040902054859073ffffffffffffffffffffffffffffffffffffffff163314611cc4576040517f08c379a000000000000000000000000000000000000000000000000000000000815260206004820152601a60248201527f494e56414c49443a204f4e4c595f42414c4c4f545f4f574e45520000000000006044820152606401610694565b610bb986858761209a565b6000828152600960205260409020600701548290339062010000900460ff161515600114611d59576040517f08c379a000000000000000000000000000000000000000000000000000000000815260206004820152601960248201527f494e56414c49443a2042414c4c4f545f4e4f545f464f554e44000000000000006044820152606401610694565b6000828152600960205260409020600601544310611dd3576040517f08c379a000000000000000000000000000000000000000000000000000000000815260206004820152601960248201527f494e56414c49443a20564f54494e475f54494d455f4f564552000000000000006044820152606401610694565b6000828152600a6020908152604080832073ffffffffffffffffffffffffffffffffffffffff8516845290915290205460ff1615611e6d576040517f08c379a000000000000000000000000000000000000000000000000000000000815260206004820152601660248201527f494e56414c49443a20414c52454144595f564f544544000000000000000000006044820152606401610694565b6000848152600960205260409020600701548490610100900460ff1615611f17576000818152600a6020908152604080832032845290915290205460ff1615611f12576040517f08c379a000000000000000000000000000000000000000000000000000000000815260206004820152601660248201527f494e56414c49443a20414c52454144595f564f544544000000000000000000006044820152606401610694565b611fa5565b60008181526009602052604090205473ffffffffffffffffffffffffffffffffffffffff16321415611fa5576040517f08c379a000000000000000000000000000000000000000000000000000000000815260206004820152601f60248201527f554e415554484f52495a45443a204f574e45525f43414e4e4f545f564f5445006044820152606401610694565b611b6685853261223f565b600054610100900460ff16612047576040517f08c379a000000000000000000000000000000000000000000000000000000000815260206004820152602b60248201527f496e697469616c697a61626c653a20636f6e7472616374206973206e6f74206960448201527f6e697469616c697a696e670000000000000000000000000000000000000000006064820152608401610694565b6004805473ffffffffffffffffffffffffffffffffffffffff9384167fffffffffffffffffffffffff00000000000000000000000000000000000000009182161790915560078054929093169116179055565b6000838152600960205260409020600701548390829062010000900460ff161515600114612124576040517f08c379a000000000000000000000000000000000000000000000000000000000815260206004820152601960248201527f494e56414c49443a2042414c4c4f545f4e4f545f464f554e44000000000000006044820152606401610694565b600082815260096020526040902060060154431061219e576040517f08c379a000000000000000000000000000000000000000000000000000000000815260206004820152601960248201527f494e56414c49443a20564f54494e475f54494d455f4f564552000000000000006044820152606401610694565b6000828152600a6020908152604080832073ffffffffffffffffffffffffffffffffffffffff8516845290915290205460ff1615612238576040517f08c379a000000000000000000000000000000000000000000000000000000000815260206004820152601660248201527f494e56414c49443a20414c52454144595f564f544544000000000000000000006044820152606401610694565b611b668585855b600480546000858152600960209081526040808320815161014081018352815473ffffffffffffffffffffffffffffffffffffffff908116825260018301549482019490945260028201548184015260038201546060820152818701546080820152600582015460a08201819052600683015460c083015260079092015460ff808216151560e084015261010080830482161515908401526201000090910416151561012082015291517efdd58e000000000000000000000000000000000000000000000000000000008152878416968101969096526024860152921692839062fdd58e90604401602060405180830381865afa158015612344573d6000803e3d6000fd5b505050506040513d601f19601f820116820180604052508101906123689190612726565b905084156123c357600086815260096020526040812060010180548392906123919084906127b7565b909155505060008681526009602052604081206002018054600192906123b89084906127b7565b909155506124119050565b600086815260096020526040812060030180548392906123e49084906127b7565b9091555050600086815260096020526040812060040180546001929061240b9084906127b7565b90915550505b5050506000838152600a6020908152604080832073ffffffffffffffffffffffffffffffffffffffff94909416808452938252808320805460017fffffffffffffffffffffffffffffffffffffffffffffffffffffffffffffff009182168117909255878552600b8452828520958552948352818420805490951695151595909517909355600d8152918120805493840181558152200155565b6000602082840312156124bd57600080fd5b5035919050565b803580151581146124d457600080fd5b919050565b600080604083850312156124ec57600080fd5b823591506124fc602084016124c4565b90509250929050565b803573ffffffffffffffffffffffffffffffffffffffff811681146124d457600080fd5b60006020828403121561253b57600080fd5b61254482612505565b9392505050565b6000806040838503121561255e57600080fd5b61256783612505565b91506124fc60208401612505565b6000806040838503121561258857600080fd5b612591836124c4565b946020939093013593505050565b600080600080608085870312156125b557600080fd5b6125be85612505565b966020860135965060408601359560600135945092505050565b6000806000606084860312156125ed57600080fd5b833592506125fd60208501612505565b915061260b604085016124c4565b90509250925092565b7f4e487b7100000000000000000000000000000000000000000000000000000000600052603260045260246000fd5b7f4e487b7100000000000000000000000000000000000000000000000000000000600052601160045260246000fd5b60008282101561268457612684612643565b500390565b7f4e487b7100000000000000000000000000000000000000000000000000000000600052603160045260246000fd5b6000816126c7576126c7612643565b507fffffffffffffffffffffffffffffffffffffffffffffffffffffffffffffffff0190565b60007fffffffffffffffffffffffffffffffffffffffffffffffffffffffffffffffff82141561271f5761271f612643565b5060010190565b60006020828403121561273857600080fd5b5051919050565b6000817fffffffffffffffffffffffffffffffffffffffffffffffffffffffffffffffff048311821515161561277757612777612643565b500290565b6000826127b2577f4e487b7100000000000000000000000000000000000000000000000000000000600052601260045260246000fd5b500490565b600082198211156127ca576127ca612643565b50019056fea2646970667358221220f8d6baaefe1df7599f6034c6b307d4104d4c7f4441345df8a0c15cb322f5095864736f6c634300080c0033",
  "immutableReferences": {},
  "source": "// SPDX-License-Identifier: MIT\n\npragma solidity ^0.8.0;\n\nimport \"../voting/BaseVotingCounterOfferContract.sol\";\n\ncontract BaseVotingCounterOfferContractMock is BaseVotingCounterOfferContract {\n    uint256 private LastTokenId = 1;\n\n    /// @dev this event is generated when result of a ballot is declared\n    /// @param ballotId this is the ballot Id for which result is declared\n    /// @param result this is the status of the result //either true if user won that is he received more than 66% of votes or false if user lost\n    /// @param minTurnOut this status indicates if minimum amount of user showed up for voting\n    event BallotResult(uint256 ballotId, bool result, bool minTurnOut);\n\n    /// @dev this event is generated when a counter offer is created\n    /// @param ballotId this is the ballot Id for which result is declared\n    /// @param creator this is the address of the creator of counter offer\n    event CounterOfferCreated(uint256 ballotId, address creator);\n\n    /// @dev this event is generated when a counter offer is either accepted or rejected\n    /// @param ballotId this is the ballot Id for which result is declared\n    /// @param creator this is the address of the creator of counter offer\n    /// @param result this is the result of the counter offer that is true for accepted and false for rejected\n    event CounterOfferResult(uint256 ballotId, address creator, bool result);\n\n    constructor(\n        uint8 votingInterval,\n        address owner\n    ) BaseVotingCounterOfferContract(owner) {\n        VOTING_BLOCK_PERIOD = votingInterval;\n    }\n\n    /// @dev This is to set the address of the contracts\n    /// @param newTreasuryContractAddress This is the address of new treasury contract\n    /// @param newGovernanceContractAddress This is the address for the governance contract\n    function initialize(\n        address newTreasuryContractAddress,\n        address newGovernanceContractAddress\n    ) public override initializer _ownerOnly {\n        BaseVotingCounterOfferContract.initialize(\n            newTreasuryContractAddress,\n            newGovernanceContractAddress\n        );\n    }\n\n    function createBallot(bool canOwnerVote, uint256 tokenId) public payable {\n        uint256 ballotId = _createVoting(canOwnerVote, tokenId);\n        _createDeposit(msg.sender, ballotId);\n    }\n\n    function castVote(uint256 ballotId, bool vote) public {\n        _castVote(ballotId, vote);\n    }\n\n    function createCounterOffer(uint256 ballotId) public {\n        _createCounterOffer(ballotId);\n        emit CounterOfferCreated(ballotId, msg.sender);\n    }\n\n    function counterOfferAction(\n        uint256 votingBallotId,\n        address user,\n        bool vote\n    ) public {\n        _counterOfferAction(votingBallotId, user, vote);\n        emit CounterOfferResult(votingBallotId, user, vote);\n    }\n\n    function declareWinner(uint256 ballotId) public {\n        (bool result, bool minTurnOut) = _declareWinner(ballotId);\n        emit BallotResult(ballotId, result, minTurnOut);\n        _releaseDeposit(ballotId);\n    }\n}\n",
  "sourcePath": "/Users/a1/Desktop/Office/projects/CrowdRecords/Contracts/contracts/Mocks/BaseVotingCounterOfferContractMock.sol",
  "compiler": {
    "name": "solc",
    "version": "0.8.12+commit.f00d7308.Emscripten.clang"
  },
  "schemaVersion": "3.4.6",
  "updatedAt": "2023-04-11T15:44:43.660Z",
  "devdoc": {
    "events": {
      "BallotResult(uint256,bool,bool)": {
        "details": "this event is generated when result of a ballot is declared",
        "params": {
          "ballotId": "this is the ballot Id for which result is declared",
          "minTurnOut": "this status indicates if minimum amount of user showed up for voting",
          "result": "this is the status of the result //either true if user won that is he received more than 66% of votes or false if user lost"
        }
      },
      "CounterOfferCreated(uint256,address)": {
        "details": "this event is generated when a counter offer is created",
        "params": {
          "ballotId": "this is the ballot Id for which result is declared",
          "creator": "this is the address of the creator of counter offer"
        }
      },
      "CounterOfferResult(uint256,address,bool)": {
        "details": "this event is generated when a counter offer is either accepted or rejected",
        "params": {
          "ballotId": "this is the ballot Id for which result is declared",
          "creator": "this is the address of the creator of counter offer",
          "result": "this is the result of the counter offer that is true for accepted and false for rejected"
        }
      }
    },
    "kind": "dev",
    "methods": {
      "_handleUserTokenTransfers(address,uint256,uint256,uint256)": {
        "details": "This function will be called when either user is transferring the tokens to other account, or is receiving tokens from other tokens.",
        "params": {
          "newBalance": "this is the new balance of the user that is after the transfer",
          "previousBalance": "this is the old balance of the user",
          "user": "address of the user whose balance is being changed"
        }
      },
      "initialize(address,address)": {
        "details": "This is to set the address of the contracts",
        "params": {
          "newGovernanceContractAddress": "This is the address for the governance contract",
          "newTreasuryContractAddress": "This is the address of new treasury contract"
        }
      },
      "setDepositAmount(uint256)": {
        "details": "This function sets the VOTING_DEPOSIT percentage",
        "params": {
          "depositAmount": "This is the new deposit amount needed for creating ballot"
        }
      },
      "setMinTurnOut(uint256)": {
        "details": "This function sets the MIN_TURN_OUT percentage",
        "params": {
          "minTurnOut": "This is the new turnout percentage value"
        }
      },
      "setOwnerAddress(address)": {
        "details": "This function sets the owner address",
        "params": {
          "ownerAddress": "This is the address of the owner"
        }
      },
      "setVotingPeriod(uint256)": {
        "details": "This function sets the VOTING_BLOCK_PERIOD percentage",
        "params": {
          "votingPeriod": "This is the voting period"
        }
      }
    },
    "version": 1
  },
  "userdoc": {
    "kind": "user",
    "methods": {},
    "version": 1
  }
}