{
  "contractName": "BaseVotingCounterOfferContractMock",
  "abi": [
    {
      "inputs": [
        {
          "internalType": "uint8",
          "name": "votingInterval",
          "type": "uint8"
        },
        {
          "internalType": "address",
          "name": "owner",
          "type": "address"
        }
      ],
      "stateMutability": "nonpayable",
      "type": "constructor"
    },
    {
      "anonymous": false,
      "inputs": [
        {
          "indexed": false,
          "internalType": "uint256",
          "name": "ballotId",
          "type": "uint256"
        },
        {
          "indexed": false,
          "internalType": "bool",
          "name": "result",
          "type": "bool"
        }
      ],
      "name": "BallotResult",
      "type": "event"
    },
    {
      "inputs": [],
      "name": "OWNER",
      "outputs": [
        {
          "internalType": "address",
          "name": "",
          "type": "address"
        }
      ],
      "stateMutability": "view",
      "type": "function",
      "constant": true
    },
    {
      "inputs": [],
      "name": "TREASURY_CONTRACT_ADDRESS",
      "outputs": [
        {
          "internalType": "address",
          "name": "",
          "type": "address"
        }
      ],
      "stateMutability": "view",
      "type": "function",
      "constant": true
    },
    {
      "inputs": [],
      "name": "TREASURY_HUB_ADDRESS",
      "outputs": [
        {
          "internalType": "address",
          "name": "",
          "type": "address"
        }
      ],
      "stateMutability": "view",
      "type": "function",
      "constant": true
    },
    {
      "inputs": [
        {
          "internalType": "address",
          "name": "user",
          "type": "address"
        },
        {
          "internalType": "uint256",
          "name": "tokenId",
          "type": "uint256"
        },
        {
          "internalType": "uint256",
          "name": "previousBalance",
          "type": "uint256"
        },
        {
          "internalType": "uint256",
          "name": "newBalance",
          "type": "uint256"
        }
      ],
      "name": "_handleUserTokenTransfers",
      "outputs": [],
      "stateMutability": "nonpayable",
      "type": "function"
    },
    {
      "inputs": [
        {
          "internalType": "address",
          "name": "ownerAddress",
          "type": "address"
        }
      ],
      "name": "setOwnerAddress",
      "outputs": [],
      "stateMutability": "nonpayable",
      "type": "function"
    },
    {
      "inputs": [
        {
          "internalType": "address",
          "name": "newTreasuryContractAddress",
          "type": "address"
        }
      ],
      "name": "setTreasuryContractAddress",
      "outputs": [],
      "stateMutability": "nonpayable",
      "type": "function"
    },
    {
      "inputs": [
        {
          "internalType": "bool",
          "name": "canOwnerVote",
          "type": "bool"
        },
        {
          "internalType": "uint256",
          "name": "tokenId",
          "type": "uint256"
        }
      ],
      "name": "createBallot",
      "outputs": [],
      "stateMutability": "nonpayable",
      "type": "function"
    },
    {
      "inputs": [
        {
          "internalType": "uint256",
          "name": "ballotId",
          "type": "uint256"
        },
        {
          "internalType": "bool",
          "name": "vote",
          "type": "bool"
        }
      ],
      "name": "castVote",
      "outputs": [],
      "stateMutability": "nonpayable",
      "type": "function"
    },
    {
      "inputs": [
        {
          "internalType": "uint256",
          "name": "ballotId",
          "type": "uint256"
        }
      ],
      "name": "createCounterOffer",
      "outputs": [],
      "stateMutability": "nonpayable",
      "type": "function"
    },
    {
      "inputs": [
        {
          "internalType": "uint256",
          "name": "votingBallotId",
          "type": "uint256"
        },
        {
          "internalType": "address",
          "name": "user",
          "type": "address"
        },
        {
          "internalType": "bool",
          "name": "vote",
          "type": "bool"
        }
      ],
      "name": "counterOfferAction",
      "outputs": [],
      "stateMutability": "nonpayable",
      "type": "function"
    },
    {
      "inputs": [
        {
          "internalType": "uint256",
          "name": "ballotId",
          "type": "uint256"
        }
      ],
      "name": "declareWinner",
      "outputs": [],
      "stateMutability": "nonpayable",
      "type": "function"
    }
  ],
  "bytecode": "0x6080604052601960005560006004556001600a553480156200002057600080fd5b50604051620024cd380380620024cd833981810160405281019062000046919062000145565b808080600360006101000a81548173ffffffffffffffffffffffffffffffffffffffff021916908373ffffffffffffffffffffffffffffffffffffffff16021790555050508160ff1660008190555050506200018c565b600080fd5b600060ff82169050919050565b620000ba81620000a2565b8114620000c657600080fd5b50565b600081519050620000da81620000af565b92915050565b600073ffffffffffffffffffffffffffffffffffffffff82169050919050565b60006200010d82620000e0565b9050919050565b6200011f8162000100565b81146200012b57600080fd5b50565b6000815190506200013f8162000114565b92915050565b600080604083850312156200015f576200015e6200009d565b5b60006200016f85828601620000c9565b925050602062000182858286016200012e565b9150509250929050565b612331806200019c6000396000f3fe608060405234801561001057600080fd5b50600436106100a85760003560e01c80636dce8664116100715780636dce86641461013b578063716085f6146101575780638d2ae1f714610173578063abb7ed7f14610191578063acb31493146101ad578063db15ef5f146101cb576100a8565b8062c2943c146100ad578063117803e3146100c957806315373e3d146100e7578063331a6bf5146101035780634cf2d48f1461011f575b600080fd5b6100c760048036038101906100c29190611947565b6101e7565b005b6100d1610231565b6040516100de91906119b5565b60405180910390f35b61010160048036038101906100fc9190611a08565b610257565b005b61011d60048036038101906101189190611a74565b610265565b005b61013960048036038101906101349190611a74565b610339565b005b61015560048036038101906101509190611aa1565b6103d5565b005b610171600480360381019061016c9190611947565b6103e4565b005b61017b6103f0565b60405161018891906119b5565b60405180910390f35b6101ab60048036038101906101a69190611ae1565b610416565b005b6101b561060f565b6040516101c291906119b5565b60405180910390f35b6101e560048036038101906101e09190611b48565b610635565b005b60006101f282610645565b90507f53d10fab88267d8231908eb87e8f64a19ceecd01180ef034a610f9b35783ba538282604051610225929190611bb9565b60405180910390a15050565b600360009054906101000a900473ffffffffffffffffffffffffffffffffffffffff1681565b61026182826108c2565b5050565b600360009054906101000a900473ffffffffffffffffffffffffffffffffffffffff1673ffffffffffffffffffffffffffffffffffffffff163373ffffffffffffffffffffffffffffffffffffffff16146102f5576040517f08c379a00000000000000000000000000000000000000000000000000000000081526004016102ec90611c65565b60405180910390fd5b80600360006101000a81548173ffffffffffffffffffffffffffffffffffffffff021916908373ffffffffffffffffffffffffffffffffffffffff16021790555050565b600360009054906101000a900473ffffffffffffffffffffffffffffffffffffffff1673ffffffffffffffffffffffffffffffffffffffff163373ffffffffffffffffffffffffffffffffffffffff16146103c9576040517f08c379a00000000000000000000000000000000000000000000000000000000081526004016103c090611c65565b60405180910390fd5b6103d281610976565b50565b6103df8282610a4a565b505050565b6103ed81610be7565b50565b600260009054906101000a900473ffffffffffffffffffffffffffffffffffffffff1681565b6000600860008673ffffffffffffffffffffffffffffffffffffffff1673ffffffffffffffffffffffffffffffffffffffff168152602001908152602001600020905060005b818054905081101561060757600115156005600084848154811061048357610482611c85565b5b9060005260206000200154815260200190815260200160002060070160009054906101000a900460ff16151514806104ed575043600560008484815481106104ce576104cd611c85565b5b9060005260206000200154815260200190815260200160002060060154105b1561058e5781600183805490506105049190611ce3565b8154811061051557610514611c85565b5b906000526020600020015482828154811061053357610532611c85565b5b90600052602060002001819055508180548061055257610551611d17565b5b60019003818190600052602060002001600090559055600081141561057a5760009050610589565b808061058590611d46565b9150505b6105f4565b600560008383815481106105a5576105a4611c85565b5b90600052602060002001548152602001908152602001600020600501548514156105f3576105f28282815481106105df576105de611c85565b5b9060005260206000200154878686610e63565b5b5b80806105ff90611d70565b91505061045c565b505050505050565b600160009054906101000a900473ffffffffffffffffffffffffffffffffffffffff1681565b610640838383611030565b505050565b6000600115156005600084815260200190815260200160002060070160029054906101000a900460ff161515146106b1576040517f08c379a00000000000000000000000000000000000000000000000000000000081526004016106a890611e05565b60405180910390fd5b43600560008481526020019081526020016000206006015410610709576040517f08c379a000000000000000000000000000000000000000000000000000000000815260040161070090611e71565b60405180910390fd5b600015156005600084815260200190815260200160002060070160009054906101000a900460ff16151514610773576040517f08c379a000000000000000000000000000000000000000000000000000000000815260040161076a90611edd565b60405180910390fd5b60006005600084815260200190815260200160002090506000816001015490506000600160009054906101000a900473ffffffffffffffffffffffffffffffffffffffff16905060016005600087815260200190815260200160002060070160006101000a81548160ff02191690831515021790555060008211156108b55760008173ffffffffffffffffffffffffffffffffffffffff1663036c22ad85600501546040518263ffffffff1660e01b81526004016108319190611efd565b602060405180830381865afa15801561084e573d6000803e3d6000fd5b505050506040513d601f19601f820116820180604052508101906108729190611f2d565b9050600060646042836108859190611f5a565b61088f9190611fe3565b9050808411156108a7576001955050505050506108bd565b6000955050505050506108bd565b600093505050505b919050565b81600015156009600083815260200190815260200160002060003373ffffffffffffffffffffffffffffffffffffffff1673ffffffffffffffffffffffffffffffffffffffff16815260200190815260200160002060009054906101000a900460ff16151514610967576040517f08c379a000000000000000000000000000000000000000000000000000000000815260040161095e90612060565b60405180910390fd5b61097183836110e8565b505050565b600360009054906101000a900473ffffffffffffffffffffffffffffffffffffffff1673ffffffffffffffffffffffffffffffffffffffff163373ffffffffffffffffffffffffffffffffffffffff1614610a06576040517f08c379a00000000000000000000000000000000000000000000000000000000081526004016109fd90611c65565b60405180910390fd5b80600160006101000a81548173ffffffffffffffffffffffffffffffffffffffff021916908373ffffffffffffffffffffffffffffffffffffffff16021790555050565b600060046000815480929190610a5f90611d70565b919050555060006040518061014001604052803273ffffffffffffffffffffffffffffffffffffffff1681526020016000815260200160008152602001600081526020016000815260200184815260200160005443610abe9190612080565b815260200160001515815260200185151581526020016001151581525090508060056000600454815260200190815260200160002060008201518160000160006101000a81548173ffffffffffffffffffffffffffffffffffffffff021916908373ffffffffffffffffffffffffffffffffffffffff1602179055506020820151816001015560408201518160020155606082015181600301556080820151816004015560a0820151816005015560c0820151816006015560e08201518160070160006101000a81548160ff0219169083151502179055506101008201518160070160016101000a81548160ff0219169083151502179055506101208201518160070160026101000a81548160ff02191690831515021790555090505060045491505092915050565b80600015156009600083815260200190815260200160002060003373ffffffffffffffffffffffffffffffffffffffff1673ffffffffffffffffffffffffffffffffffffffff16815260200190815260200160002060009054906101000a900460ff16151514610c8c576040517f08c379a0000000000000000000000000000000000000000000000000000000008152600401610c8390612060565b60405180910390fd5b8133600115156005600084815260200190815260200160002060070160029054906101000a900460ff16151514610cf8576040517f08c379a0000000000000000000000000000000000000000000000000000000008152600401610cef90611e05565b60405180910390fd5b43600560008481526020019081526020016000206006015411610d50576040517f08c379a0000000000000000000000000000000000000000000000000000000008152600401610d4790611e71565b60405180910390fd5b600015156006600084815260200190815260200160002060008373ffffffffffffffffffffffffffffffffffffffff1673ffffffffffffffffffffffffffffffffffffffff16815260200190815260200160002060009054906101000a900460ff16151514610df4576040517f08c379a0000000000000000000000000000000000000000000000000000000008152600401610deb90612122565b60405180910390fd5b60016009600086815260200190815260200160002060003373ffffffffffffffffffffffffffffffffffffffff1673ffffffffffffffffffffffffffffffffffffffff16815260200190815260200160002060006101000a81548160ff02191690831515021790555050505050565b600115156006600086815260200190815260200160002060008573ffffffffffffffffffffffffffffffffffffffff1673ffffffffffffffffffffffffffffffffffffffff16815260200190815260200160002060009054906101000a900460ff16151514610f07576040517f08c379a0000000000000000000000000000000000000000000000000000000008152600401610efe906121b4565b60405180910390fd5b60006007600086815260200190815260200160002060008573ffffffffffffffffffffffffffffffffffffffff1673ffffffffffffffffffffffffffffffffffffffff16815260200190815260200160002060009054906101000a900460ff1690508015610fce5782600560008781526020019081526020016000206001016000828254610f959190611ce3565b9250508190555081600560008781526020019081526020016000206001016000828254610fc29190612080565b92505081905550611029565b82600560008781526020019081526020016000206003016000828254610ff49190611ce3565b92505081905550816005600087815260200190815260200160002060030160008282546110219190612080565b925050819055505b5050505050565b8282600115156009600084815260200190815260200160002060008373ffffffffffffffffffffffffffffffffffffffff1673ffffffffffffffffffffffffffffffffffffffff16815260200190815260200160002060009054906101000a900460ff161515146110d6576040517f08c379a00000000000000000000000000000000000000000000000000000000081526004016110cd90612246565b60405180910390fd5b6110e18584866113db565b5050505050565b8133600115156005600084815260200190815260200160002060070160029054906101000a900460ff16151514611154576040517f08c379a000000000000000000000000000000000000000000000000000000000815260040161114b90611e05565b60405180910390fd5b436005600084815260200190815260200160002060060154116111ac576040517f08c379a00000000000000000000000000000000000000000000000000000000081526004016111a390611e71565b60405180910390fd5b600015156006600084815260200190815260200160002060008373ffffffffffffffffffffffffffffffffffffffff1673ffffffffffffffffffffffffffffffffffffffff16815260200190815260200160002060009054906101000a900460ff16151514611250576040517f08c379a000000000000000000000000000000000000000000000000000000000815260040161124790612122565b60405180910390fd5b836005600082815260200190815260200160002060070160019054906101000a900460ff161561132357600015156006600083815260200190815260200160002060003273ffffffffffffffffffffffffffffffffffffffff1673ffffffffffffffffffffffffffffffffffffffff16815260200190815260200160002060009054906101000a900460ff1615151461131e576040517f08c379a000000000000000000000000000000000000000000000000000000000815260040161131590612122565b60405180910390fd5b6113c9565b6005600082815260200190815260200160002060000160009054906101000a900473ffffffffffffffffffffffffffffffffffffffff1673ffffffffffffffffffffffffffffffffffffffff163273ffffffffffffffffffffffffffffffffffffffff1614156113c8576040517f08c379a00000000000000000000000000000000000000000000000000000000081526004016113bf906122b2565b60405180910390fd5b5b6113d4858532611555565b5050505050565b8281600115156005600084815260200190815260200160002060070160029054906101000a900460ff16151514611447576040517f08c379a000000000000000000000000000000000000000000000000000000000815260040161143e90611e05565b60405180910390fd5b4360056000848152602001908152602001600020600601541161149f576040517f08c379a000000000000000000000000000000000000000000000000000000000815260040161149690611e71565b60405180910390fd5b600015156006600084815260200190815260200160002060008373ffffffffffffffffffffffffffffffffffffffff1673ffffffffffffffffffffffffffffffffffffffff16815260200190815260200160002060009054906101000a900460ff16151514611543576040517f08c379a000000000000000000000000000000000000000000000000000000000815260040161153a90612122565b60405180910390fd5b61154e858585611555565b5050505050565b6000600160009054906101000a900473ffffffffffffffffffffffffffffffffffffffff169050600060056000868152602001908152602001600020604051806101400160405290816000820160009054906101000a900473ffffffffffffffffffffffffffffffffffffffff1673ffffffffffffffffffffffffffffffffffffffff1673ffffffffffffffffffffffffffffffffffffffff1681526020016001820154815260200160028201548152602001600382015481526020016004820154815260200160058201548152602001600682015481526020016007820160009054906101000a900460ff161515151581526020016007820160019054906101000a900460ff161515151581526020016007820160029054906101000a900460ff161515151581525050905060008273ffffffffffffffffffffffffffffffffffffffff1662fdd58e858460a001516040518363ffffffff1660e01b81526004016116c29291906122d2565b602060405180830381865afa1580156116df573d6000803e3d6000fd5b505050506040513d601f19601f820116820180604052508101906117039190611f2d565b9050841561176b57806005600088815260200190815260200160002060010160008282546117319190612080565b92505081905550600160056000888152602001908152602001600020600201600082825461175f9190612080565b925050819055506117c7565b806005600088815260200190815260200160002060030160008282546117919190612080565b9250508190555060016005600088815260200190815260200160002060040160008282546117bf9190612080565b925050819055505b60016006600088815260200190815260200160002060008673ffffffffffffffffffffffffffffffffffffffff1673ffffffffffffffffffffffffffffffffffffffff16815260200190815260200160002060006101000a81548160ff021916908315150217905550846007600088815260200190815260200160002060008673ffffffffffffffffffffffffffffffffffffffff1673ffffffffffffffffffffffffffffffffffffffff16815260200190815260200160002060006101000a81548160ff0219169083151502179055506000600860008673ffffffffffffffffffffffffffffffffffffffff1673ffffffffffffffffffffffffffffffffffffffff16815260200190815260200160002090508087908060018154018082558091505060019003906000526020600020016000909190919091505550505050505050565b600080fd5b6000819050919050565b61192481611911565b811461192f57600080fd5b50565b6000813590506119418161191b565b92915050565b60006020828403121561195d5761195c61190c565b5b600061196b84828501611932565b91505092915050565b600073ffffffffffffffffffffffffffffffffffffffff82169050919050565b600061199f82611974565b9050919050565b6119af81611994565b82525050565b60006020820190506119ca60008301846119a6565b92915050565b60008115159050919050565b6119e5816119d0565b81146119f057600080fd5b50565b600081359050611a02816119dc565b92915050565b60008060408385031215611a1f57611a1e61190c565b5b6000611a2d85828601611932565b9250506020611a3e858286016119f3565b9150509250929050565b611a5181611994565b8114611a5c57600080fd5b50565b600081359050611a6e81611a48565b92915050565b600060208284031215611a8a57611a8961190c565b5b6000611a9884828501611a5f565b91505092915050565b60008060408385031215611ab857611ab761190c565b5b6000611ac6858286016119f3565b9250506020611ad785828601611932565b9150509250929050565b60008060008060808587031215611afb57611afa61190c565b5b6000611b0987828801611a5f565b9450506020611b1a87828801611932565b9350506040611b2b87828801611932565b9250506060611b3c87828801611932565b91505092959194509250565b600080600060608486031215611b6157611b6061190c565b5b6000611b6f86828701611932565b9350506020611b8086828701611a5f565b9250506040611b91868287016119f3565b9150509250925092565b611ba481611911565b82525050565b611bb3816119d0565b82525050565b6000604082019050611bce6000830185611b9b565b611bdb6020830184611baa565b9392505050565b600082825260208201905092915050565b7f554e415554484f52495a45443a2043414e4e4f545f504552464f524d5f41435460008201527f494f4e0000000000000000000000000000000000000000000000000000000000602082015250565b6000611c4f602383611be2565b9150611c5a82611bf3565b604082019050919050565b60006020820190508181036000830152611c7e81611c42565b9050919050565b7f4e487b7100000000000000000000000000000000000000000000000000000000600052603260045260246000fd5b7f4e487b7100000000000000000000000000000000000000000000000000000000600052601160045260246000fd5b6000611cee82611911565b9150611cf983611911565b925082821015611d0c57611d0b611cb4565b5b828203905092915050565b7f4e487b7100000000000000000000000000000000000000000000000000000000600052603160045260246000fd5b6000611d5182611911565b91506000821415611d6557611d64611cb4565b5b600182039050919050565b6000611d7b82611911565b91507fffffffffffffffffffffffffffffffffffffffffffffffffffffffffffffffff821415611dae57611dad611cb4565b5b600182019050919050565b7f494e56414c49443a2042414c4c4f545f4e4f545f464f554e4400000000000000600082015250565b6000611def601983611be2565b9150611dfa82611db9565b602082019050919050565b60006020820190508181036000830152611e1e81611de2565b9050919050565b7f494e56414c49443a20564f54494e475f54494d455f4f56455200000000000000600082015250565b6000611e5b601983611be2565b9150611e6682611e25565b602082019050919050565b60006020820190508181036000830152611e8a81611e4e565b9050919050565b7f494e56414c49443a20524553554c545f414c52454144595f4445434c41524544600082015250565b6000611ec7602083611be2565b9150611ed282611e91565b602082019050919050565b60006020820190508181036000830152611ef681611eba565b9050919050565b6000602082019050611f126000830184611b9b565b92915050565b600081519050611f278161191b565b92915050565b600060208284031215611f4357611f4261190c565b5b6000611f5184828501611f18565b91505092915050565b6000611f6582611911565b9150611f7083611911565b9250817fffffffffffffffffffffffffffffffffffffffffffffffffffffffffffffffff0483118215151615611fa957611fa8611cb4565b5b828202905092915050565b7f4e487b7100000000000000000000000000000000000000000000000000000000600052601260045260246000fd5b6000611fee82611911565b9150611ff983611911565b92508261200957612008611fb4565b5b828204905092915050565b7f494e56414c49443a20414c52454144595f434f554e5445525f4f464645524544600082015250565b600061204a602083611be2565b915061205582612014565b602082019050919050565b600060208201905081810360008301526120798161203d565b9050919050565b600061208b82611911565b915061209683611911565b9250827fffffffffffffffffffffffffffffffffffffffffffffffffffffffffffffffff038211156120cb576120ca611cb4565b5b828201905092915050565b7f494e56414c49443a20414c52454144595f564f54454400000000000000000000600082015250565b600061210c601683611be2565b9150612117826120d6565b602082019050919050565b6000602082019050818103600083015261213b816120ff565b9050919050565b7f494e56414c49443a20494e5445524e414c3a20555345525f4841535f4e4f545f60008201527f564f544544000000000000000000000000000000000000000000000000000000602082015250565b600061219e602583611be2565b91506121a982612142565b604082019050919050565b600060208201905081810360008301526121cd81612191565b9050919050565b7f494e56414c49443a20434f554e5445525f4f464645525f4e4f545f455849535460008201527f5300000000000000000000000000000000000000000000000000000000000000602082015250565b6000612230602183611be2565b915061223b826121d4565b604082019050919050565b6000602082019050818103600083015261225f81612223565b9050919050565b7f554e415554484f52495a45443a204f574e45525f43414e4e4f545f564f544500600082015250565b600061229c601f83611be2565b91506122a782612266565b602082019050919050565b600060208201905081810360008301526122cb8161228f565b9050919050565b60006040820190506122e760008301856119a6565b6122f46020830184611b9b565b939250505056fea264697066735822122074b52446401e6e2a28a84234401b11aa435433f9ba58d7a17c07c92de09f2dc864736f6c634300080c0033",
  "immutableReferences": {},
  "source": "// SPDX-License-Identifier: MIT\n\npragma solidity ^0.8.0;\n\nimport \"../voting/BaseVotingCounterOfferContract.sol\";\n\ncontract BaseVotingCounterOfferContractMock is BaseVotingCounterOfferContract {\n    uint256 private LastTokenId = 1;\n\n    /// @dev this event is generated when result of a ballot is declared\n    /// @param ballotId this is the ballot Id for which result is declared \n    /// @param result this is the status of the result //either true if user won that is he received more than 66% of votes or false if user lost \n    event BallotResult(uint256 ballotId, bool result);\n\n    constructor(uint8 votingInterval,address owner) BaseVotingCounterOfferContract(owner){\n        VOTING_BLOCK_PERIOD = votingInterval;\n    }\n\n    /// @dev This function sets the treasury Contract address\n    /// @param newTreasuryContractAddress this is the new address of the treasury contract\n    function setTreasuryContractAddress(address newTreasuryContractAddress)\n        external\n        _ownerOnly\n    {\n        _setTreasuryContractAddress(newTreasuryContractAddress);\n    }\n\n    function createBallot(bool canOwnerVote, uint256 tokenId) public {\n        _createVoting(canOwnerVote, tokenId);\n    }\n\n    function castVote(uint256 ballotId, bool vote) public {\n        _castVote(ballotId, vote);\n    }\n\n    function createCounterOffer(uint256 ballotId) public {\n        _createCounterOffer(ballotId);\n    }\n\n    function counterOfferAction(\n        uint256 votingBallotId,\n        address user,\n        bool vote\n    ) public {\n        _counterOfferAction(votingBallotId, user, vote);\n    }\n\n    function declareWinner(uint256 ballotId) public {\n        bool result = _declareWinner(ballotId);\n        emit BallotResult(ballotId, result);\n    }\n}\n",
  "sourcePath": "/Users/a1/Desktop/Office/projects/CrowdRecords/Contracts/contracts/Mocks/BaseVotingCounterOfferContractMock.sol",
  "compiler": {
    "name": "solc",
    "version": "0.8.12+commit.f00d7308.Emscripten.clang"
  },
  "schemaVersion": "3.4.6",
  "updatedAt": "2022-09-19T09:06:35.082Z",
  "networkType": "ethereum",
  "devdoc": {
    "events": {
      "BallotResult(uint256,bool)": {
        "details": "this event is generated when result of a ballot is declared",
        "params": {
          "ballotId": "this is the ballot Id for which result is declared ",
          "result": "this is the status of the result //either true if user won that is he received more than 66% of votes or false if user lost "
        }
      }
    },
    "kind": "dev",
    "methods": {
      "_handleUserTokenTransfers(address,uint256,uint256,uint256)": {
        "details": "This function will be called when either user is transferring the tokens to other account, or is receiving tokens from other tokens.",
        "params": {
          "newBalance": "this is the new balance of the user that is after the transfer",
          "previousBalance": "this is the old balance of the user",
          "user": "address of the user whose balance is being changed"
        }
      },
      "setOwnerAddress(address)": {
        "details": "This function sets the owner address",
        "params": {
          "ownerAddress": "This is the address of the owner"
        }
      },
      "setTreasuryContractAddress(address)": {
        "details": "This function sets the treasury Contract address",
        "params": {
          "newTreasuryContractAddress": "this is the new address of the treasury contract"
        }
      }
    },
    "version": 1
  },
  "userdoc": {
    "kind": "user",
    "methods": {},
    "version": 1
  }
}