{
  "contractName": "BaseVotingCounterOfferContractMock",
  "abi": [
    {
      "inputs": [
        {
          "internalType": "uint8",
          "name": "votingInterval",
          "type": "uint8"
        }
      ],
      "stateMutability": "nonpayable",
      "type": "constructor"
    },
    {
      "anonymous": false,
      "inputs": [
        {
          "indexed": false,
          "internalType": "uint256",
          "name": "ballotId",
          "type": "uint256"
        },
        {
          "indexed": false,
          "internalType": "bool",
          "name": "result",
          "type": "bool"
        }
      ],
      "name": "BallotResult",
      "type": "event"
    },
    {
      "inputs": [],
      "name": "TREASURY_CONTRACT_ADDRESS",
      "outputs": [
        {
          "internalType": "address",
          "name": "",
          "type": "address"
        }
      ],
      "stateMutability": "view",
      "type": "function"
    },
    {
      "inputs": [
        {
          "internalType": "address",
          "name": "newTreasuryContractAddress",
          "type": "address"
        }
      ],
      "name": "setTreasuryContractAddress",
      "outputs": [],
      "stateMutability": "nonpayable",
      "type": "function"
    },
    {
      "inputs": [
        {
          "internalType": "bool",
          "name": "canOwnerVote",
          "type": "bool"
        }
      ],
      "name": "createBallot",
      "outputs": [],
      "stateMutability": "nonpayable",
      "type": "function"
    },
    {
      "inputs": [
        {
          "internalType": "uint256",
          "name": "ballotId",
          "type": "uint256"
        },
        {
          "internalType": "bool",
          "name": "vote",
          "type": "bool"
        }
      ],
      "name": "castVote",
      "outputs": [],
      "stateMutability": "nonpayable",
      "type": "function"
    },
    {
      "inputs": [
        {
          "internalType": "uint256",
          "name": "ballotId",
          "type": "uint256"
        }
      ],
      "name": "createCounterOffer",
      "outputs": [],
      "stateMutability": "nonpayable",
      "type": "function"
    },
    {
      "inputs": [
        {
          "internalType": "uint256",
          "name": "votingBallotId",
          "type": "uint256"
        },
        {
          "internalType": "address",
          "name": "user",
          "type": "address"
        },
        {
          "internalType": "bool",
          "name": "vote",
          "type": "bool"
        }
      ],
      "name": "counterOfferAction",
      "outputs": [],
      "stateMutability": "nonpayable",
      "type": "function"
    },
    {
      "inputs": [
        {
          "internalType": "uint256",
          "name": "ballotId",
          "type": "uint256"
        },
        {
          "internalType": "uint256",
          "name": "tokenId",
          "type": "uint256"
        }
      ],
      "name": "declareWinner",
      "outputs": [],
      "stateMutability": "nonpayable",
      "type": "function"
    }
  ],
  "bytecode": "0x60806040526019600055600060035560016007553480156200002057600080fd5b5060405162002248380380620022488339818101604052810190620000469190620000db565b33600260006101000a81548173ffffffffffffffffffffffffffffffffffffffff021916908373ffffffffffffffffffffffffffffffffffffffff1602179055508060ff16600081905550506200010d565b600080fd5b600060ff82169050919050565b620000b5816200009d565b8114620000c157600080fd5b50565b600081519050620000d581620000aa565b92915050565b600060208284031215620000f457620000f362000098565b5b60006200010484828501620000c4565b91505092915050565b61212b806200011d6000396000f3fe608060405234801561001057600080fd5b506004361061007d5760003560e01c8063716085f61161005b578063716085f6146100d6578063acb31493146100f2578063ad48ac7614610110578063db15ef5f1461012c5761007d565b806315373e3d146100825780631643c8c41461009e5780634cf2d48f146100ba575b600080fd5b61009c600480360381019061009791906114d4565b610148565b005b6100b860048036038101906100b39190611514565b610156565b005b6100d460048036038101906100cf91906115b2565b6101a2565b005b6100f060048036038101906100eb91906115df565b61023e565b005b6100fa61024a565b604051610107919061161b565b60405180910390f35b61012a60048036038101906101259190611636565b610270565b005b61014660048036038101906101419190611663565b61027d565b005b610152828261028d565b5050565b60006101628383610341565b90507f53d10fab88267d8231908eb87e8f64a19ceecd01180ef034a610f9b35783ba5383826040516101959291906116d4565b60405180910390a1505050565b600260009054906101000a900473ffffffffffffffffffffffffffffffffffffffff1673ffffffffffffffffffffffffffffffffffffffff163373ffffffffffffffffffffffffffffffffffffffff1614610232576040517f08c379a000000000000000000000000000000000000000000000000000000000815260040161022990611780565b60405180910390fd5b61023b816107b1565b50565b61024781610885565b50565b600160009054906101000a900473ffffffffffffffffffffffffffffffffffffffff1681565b61027981610b01565b5050565b610288838383610d1e565b505050565b81600015156006600083815260200190815260200160002060003373ffffffffffffffffffffffffffffffffffffffff1673ffffffffffffffffffffffffffffffffffffffff16815260200190815260200160002060009054906101000a900460ff16151514610332576040517f08c379a000000000000000000000000000000000000000000000000000000000815260040161032990611812565b60405180910390fd5b61033c8383610dd6565b505050565b6000600115156004600085815260200190815260200160002060040160029054906101000a900460ff161515146103ad576040517f08c379a00000000000000000000000000000000000000000000000000000000081526004016103a49061187e565b60405180910390fd5b43600460008581526020019081526020016000206003015410610405576040517f08c379a00000000000000000000000000000000000000000000000000000000081526004016103fc906118ea565b60405180910390fd5b600015156004600085815260200190815260200160002060040160009054906101000a900460ff1615151461046f576040517f08c379a000000000000000000000000000000000000000000000000000000000815260040161046690611956565b60405180910390fd5b60006004600085815260200190815260200160002060010180548060200260200160405190810160405280929190818152602001828054801561050757602002820191906000526020600020905b8160009054906101000a900473ffffffffffffffffffffffffffffffffffffffff1673ffffffffffffffffffffffffffffffffffffffff16815260200190600101908083116104bd575b505050505090506000815167ffffffffffffffff81111561052b5761052a611976565b5b6040519080825280602002602001820160405280156105595781602001602082028036833780820191505090505b50905060005b825181101561059b578482828151811061057c5761057b6119a5565b5b602002602001018181525050808061059390611a03565b91505061055f565b506000600160009054906101000a900473ffffffffffffffffffffffffffffffffffffffff16905060008173ffffffffffffffffffffffffffffffffffffffff16634e1273f4600460008a8152602001908152602001600020600101856040518363ffffffff1660e01b8152600401610615929190611c2e565b600060405180830381865afa158015610632573d6000803e3d6000fd5b505050506040513d6000823e3d601f19601f8201168201806040525081019061065b9190611da4565b90506000805b85518110156106a55782818151811061067d5761067c6119a5565b5b6020026020010151826106909190611ded565b9150808061069d90611a03565b915050610661565b506001600460008a815260200190815260200160002060040160006101000a81548160ff02191690831515021790555060008111156107a15760008373ffffffffffffffffffffffffffffffffffffffff1663036c22ad896040518263ffffffff1660e01b81526004016107199190611e43565b602060405180830381865afa158015610736573d6000803e3d6000fd5b505050506040513d601f19601f8201168201806040525081019061075a9190611e5e565b905060008160648461076c9190611e8b565b6107769190611f14565b905060428111156107915760019750505050505050506107ab565b60009750505050505050506107ab565b6000955050505050505b92915050565b600260009054906101000a900473ffffffffffffffffffffffffffffffffffffffff1673ffffffffffffffffffffffffffffffffffffffff163373ffffffffffffffffffffffffffffffffffffffff1614610841576040517f08c379a000000000000000000000000000000000000000000000000000000000815260040161083890611780565b60405180910390fd5b80600160006101000a81548173ffffffffffffffffffffffffffffffffffffffff021916908373ffffffffffffffffffffffffffffffffffffffff16021790555050565b80600015156006600083815260200190815260200160002060003373ffffffffffffffffffffffffffffffffffffffff1673ffffffffffffffffffffffffffffffffffffffff16815260200190815260200160002060009054906101000a900460ff1615151461092a576040517f08c379a000000000000000000000000000000000000000000000000000000000815260040161092190611812565b60405180910390fd5b8133600115156004600084815260200190815260200160002060040160029054906101000a900460ff16151514610996576040517f08c379a000000000000000000000000000000000000000000000000000000000815260040161098d9061187e565b60405180910390fd5b436004600084815260200190815260200160002060030154116109ee576040517f08c379a00000000000000000000000000000000000000000000000000000000081526004016109e590611f91565b60405180910390fd5b600015156005600084815260200190815260200160002060008373ffffffffffffffffffffffffffffffffffffffff1673ffffffffffffffffffffffffffffffffffffffff16815260200190815260200160002060009054906101000a900460ff16151514610a92576040517f08c379a0000000000000000000000000000000000000000000000000000000008152600401610a8990611ffd565b60405180910390fd5b60016006600086815260200190815260200160002060003373ffffffffffffffffffffffffffffffffffffffff1673ffffffffffffffffffffffffffffffffffffffff16815260200190815260200160002060006101000a81548160ff02191690831515021790555050505050565b600060036000815480929190610b1690611a03565b919050555060006040518060e001604052803273ffffffffffffffffffffffffffffffffffffffff168152602001600067ffffffffffffffff811115610b5f57610b5e611976565b5b604051908082528060200260200182016040528015610b8d5781602001602082028036833780820191505090505b508152602001600067ffffffffffffffff811115610bae57610bad611976565b5b604051908082528060200260200182016040528015610bdc5781602001602082028036833780820191505090505b50815260200160005443610bf09190611ded565b815260200160001515815260200184151581526020016001151581525090508060046000600354815260200190815260200160002060008201518160000160006101000a81548173ffffffffffffffffffffffffffffffffffffffff021916908373ffffffffffffffffffffffffffffffffffffffff1602179055506020820151816001019080519060200190610c889291906113ab565b506040820151816002019080519060200190610ca59291906113ab565b506060820151816003015560808201518160040160006101000a81548160ff02191690831515021790555060a08201518160040160016101000a81548160ff02191690831515021790555060c08201518160040160026101000a81548160ff021916908315150217905550905050600354915050919050565b8282600115156006600084815260200190815260200160002060008373ffffffffffffffffffffffffffffffffffffffff1673ffffffffffffffffffffffffffffffffffffffff16815260200190815260200160002060009054906101000a900460ff16151514610dc4576040517f08c379a0000000000000000000000000000000000000000000000000000000008152600401610dbb90612069565b60405180910390fd5b610dcf8584866110c9565b5050505050565b8133600115156004600084815260200190815260200160002060040160029054906101000a900460ff16151514610e42576040517f08c379a0000000000000000000000000000000000000000000000000000000008152600401610e399061187e565b60405180910390fd5b43600460008481526020019081526020016000206003015411610e9a576040517f08c379a0000000000000000000000000000000000000000000000000000000008152600401610e9190611f91565b60405180910390fd5b600015156005600084815260200190815260200160002060008373ffffffffffffffffffffffffffffffffffffffff1673ffffffffffffffffffffffffffffffffffffffff16815260200190815260200160002060009054906101000a900460ff16151514610f3e576040517f08c379a0000000000000000000000000000000000000000000000000000000008152600401610f3590611ffd565b60405180910390fd5b836004600082815260200190815260200160002060040160019054906101000a900460ff161561101157600015156005600083815260200190815260200160002060003273ffffffffffffffffffffffffffffffffffffffff1673ffffffffffffffffffffffffffffffffffffffff16815260200190815260200160002060009054906101000a900460ff1615151461100c576040517f08c379a000000000000000000000000000000000000000000000000000000000815260040161100390611ffd565b60405180910390fd5b6110b7565b6004600082815260200190815260200160002060000160009054906101000a900473ffffffffffffffffffffffffffffffffffffffff1673ffffffffffffffffffffffffffffffffffffffff163273ffffffffffffffffffffffffffffffffffffffff1614156110b6576040517f08c379a00000000000000000000000000000000000000000000000000000000081526004016110ad906120d5565b60405180910390fd5b5b6110c2858532611243565b5050505050565b8281600115156004600084815260200190815260200160002060040160029054906101000a900460ff16151514611135576040517f08c379a000000000000000000000000000000000000000000000000000000000815260040161112c9061187e565b60405180910390fd5b4360046000848152602001908152602001600020600301541161118d576040517f08c379a000000000000000000000000000000000000000000000000000000000815260040161118490611f91565b60405180910390fd5b600015156005600084815260200190815260200160002060008373ffffffffffffffffffffffffffffffffffffffff1673ffffffffffffffffffffffffffffffffffffffff16815260200190815260200160002060009054906101000a900460ff16151514611231576040517f08c379a000000000000000000000000000000000000000000000000000000000815260040161122890611ffd565b60405180910390fd5b61123c858585611243565b5050505050565b81156112c55760046000848152602001908152602001600020600101819080600181540180825580915050600190039060005260206000200160009091909190916101000a81548173ffffffffffffffffffffffffffffffffffffffff021916908373ffffffffffffffffffffffffffffffffffffffff16021790555061133d565b60046000848152602001908152602001600020600201819080600181540180825580915050600190039060005260206000200160009091909190916101000a81548173ffffffffffffffffffffffffffffffffffffffff021916908373ffffffffffffffffffffffffffffffffffffffff1602179055505b60016005600085815260200190815260200160002060008373ffffffffffffffffffffffffffffffffffffffff1673ffffffffffffffffffffffffffffffffffffffff16815260200190815260200160002060006101000a81548160ff021916908315150217905550505050565b828054828255906000526020600020908101928215611424579160200282015b828111156114235782518260006101000a81548173ffffffffffffffffffffffffffffffffffffffff021916908373ffffffffffffffffffffffffffffffffffffffff160217905550916020019190600101906113cb565b5b5090506114319190611435565b5090565b5b8082111561144e576000816000905550600101611436565b5090565b6000604051905090565b600080fd5b600080fd5b6000819050919050565b61147981611466565b811461148457600080fd5b50565b60008135905061149681611470565b92915050565b60008115159050919050565b6114b18161149c565b81146114bc57600080fd5b50565b6000813590506114ce816114a8565b92915050565b600080604083850312156114eb576114ea61145c565b5b60006114f985828601611487565b925050602061150a858286016114bf565b9150509250929050565b6000806040838503121561152b5761152a61145c565b5b600061153985828601611487565b925050602061154a85828601611487565b9150509250929050565b600073ffffffffffffffffffffffffffffffffffffffff82169050919050565b600061157f82611554565b9050919050565b61158f81611574565b811461159a57600080fd5b50565b6000813590506115ac81611586565b92915050565b6000602082840312156115c8576115c761145c565b5b60006115d68482850161159d565b91505092915050565b6000602082840312156115f5576115f461145c565b5b600061160384828501611487565b91505092915050565b61161581611574565b82525050565b6000602082019050611630600083018461160c565b92915050565b60006020828403121561164c5761164b61145c565b5b600061165a848285016114bf565b91505092915050565b60008060006060848603121561167c5761167b61145c565b5b600061168a86828701611487565b935050602061169b8682870161159d565b92505060406116ac868287016114bf565b9150509250925092565b6116bf81611466565b82525050565b6116ce8161149c565b82525050565b60006040820190506116e960008301856116b6565b6116f660208301846116c5565b9392505050565b600082825260208201905092915050565b7f596f7520617265206e6f7420617574686f72697a656420666f7220746869732060008201527f616374696f6e0000000000000000000000000000000000000000000000000000602082015250565b600061176a6026836116fd565b91506117758261170e565b604082019050919050565b600060208201905081810360008301526117998161175d565b9050919050565b7f596f75206861766520616c726561647920676976656e206120636f756e74657260008201527f206f666665720000000000000000000000000000000000000000000000000000602082015250565b60006117fc6026836116fd565b9150611807826117a0565b604082019050919050565b6000602082019050818103600083015261182b816117ef565b9050919050565b7f4e6f2062616c6c6f74207769746820796f757220696420697320666f756e6400600082015250565b6000611868601f836116fd565b915061187382611832565b602082019050919050565b600060208201905081810360008301526118978161185b565b9050919050565b7f566f74696e672074696d65206973206e6f74206f766572207965740000000000600082015250565b60006118d4601b836116fd565b91506118df8261189e565b602082019050919050565b60006020820190508181036000830152611903816118c7565b9050919050565b7f526573756c7420616c7265616479206465636c61726564000000000000000000600082015250565b60006119406017836116fd565b915061194b8261190a565b602082019050919050565b6000602082019050818103600083015261196f81611933565b9050919050565b7f4e487b7100000000000000000000000000000000000000000000000000000000600052604160045260246000fd5b7f4e487b7100000000000000000000000000000000000000000000000000000000600052603260045260246000fd5b7f4e487b7100000000000000000000000000000000000000000000000000000000600052601160045260246000fd5b6000611a0e82611466565b91507fffffffffffffffffffffffffffffffffffffffffffffffffffffffffffffffff821415611a4157611a406119d4565b5b600182019050919050565b600081549050919050565b600082825260208201905092915050565b60008190508160005260206000209050919050565b611a8681611574565b82525050565b6000611a988383611a7d565b60208301905092915050565b60008160001c9050919050565b600073ffffffffffffffffffffffffffffffffffffffff82169050919050565b6000611ae4611adf83611aa4565b611ab1565b9050919050565b6000611af78254611ad1565b9050919050565b6000600182019050919050565b6000611b1682611a4c565b611b208185611a57565b9350611b2b83611a68565b8060005b83811015611b6357611b4082611aeb565b611b4a8882611a8c565b9750611b5583611afe565b925050600181019050611b2f565b5085935050505092915050565b600081519050919050565b600082825260208201905092915050565b6000819050602082019050919050565b611ba581611466565b82525050565b6000611bb78383611b9c565b60208301905092915050565b6000602082019050919050565b6000611bdb82611b70565b611be58185611b7b565b9350611bf083611b8c565b8060005b83811015611c21578151611c088882611bab565b9750611c1383611bc3565b925050600181019050611bf4565b5085935050505092915050565b60006040820190508181036000830152611c488185611b0b565b90508181036020830152611c5c8184611bd0565b90509392505050565b600080fd5b6000601f19601f8301169050919050565b611c8482611c6a565b810181811067ffffffffffffffff82111715611ca357611ca2611976565b5b80604052505050565b6000611cb6611452565b9050611cc28282611c7b565b919050565b600067ffffffffffffffff821115611ce257611ce1611976565b5b602082029050602081019050919050565b600080fd5b600081519050611d0781611470565b92915050565b6000611d20611d1b84611cc7565b611cac565b90508083825260208201905060208402830185811115611d4357611d42611cf3565b5b835b81811015611d6c5780611d588882611cf8565b845260208401935050602081019050611d45565b5050509392505050565b600082601f830112611d8b57611d8a611c65565b5b8151611d9b848260208601611d0d565b91505092915050565b600060208284031215611dba57611db961145c565b5b600082015167ffffffffffffffff811115611dd857611dd7611461565b5b611de484828501611d76565b91505092915050565b6000611df882611466565b9150611e0383611466565b9250827fffffffffffffffffffffffffffffffffffffffffffffffffffffffffffffffff03821115611e3857611e376119d4565b5b828201905092915050565b6000602082019050611e5860008301846116b6565b92915050565b600060208284031215611e7457611e7361145c565b5b6000611e8284828501611cf8565b91505092915050565b6000611e9682611466565b9150611ea183611466565b9250817fffffffffffffffffffffffffffffffffffffffffffffffffffffffffffffffff0483118215151615611eda57611ed96119d4565b5b828202905092915050565b7f4e487b7100000000000000000000000000000000000000000000000000000000600052601260045260246000fd5b6000611f1f82611466565b9150611f2a83611466565b925082611f3a57611f39611ee5565b5b828204905092915050565b7f566f74696e672074696d65206973206f76657200000000000000000000000000600082015250565b6000611f7b6013836116fd565b9150611f8682611f45565b602082019050919050565b60006020820190508181036000830152611faa81611f6e565b9050919050565b7f596f75206861766520616c726561647920766f74656400000000000000000000600082015250565b6000611fe76016836116fd565b9150611ff282611fb1565b602082019050919050565b6000602082019050818103600083015261201681611fda565b9050919050565b7f436f756e746572206f6666657220646f65736e27742065786973747300000000600082015250565b6000612053601c836116fd565b915061205e8261201d565b602082019050919050565b6000602082019050818103600083015261208281612046565b9050919050565b7f4f776e65722063616e6e6f7420766f7465000000000000000000000000000000600082015250565b60006120bf6011836116fd565b91506120ca82612089565b602082019050919050565b600060208201905081810360008301526120ee816120b2565b905091905056fea264697066735822122075b7bedb8d68c6d0bde9dd1c4b4503e876a01b040850632b151e11131159d7df64736f6c634300080c0033",
  "immutableReferences": {},
  "source": "// SPDX-License-Identifier: MIT\n\npragma solidity ^0.8.0;\n\nimport \"../voting/BaseVotingCounterOfferContract.sol\";\n\ncontract BaseVotingCounterOfferContractMock is BaseVotingCounterOfferContract {\n    uint256 private LastTokenId = 1;\n\n    /**\n        @dev this event is genrated when result of a ballot is declared\n        @param ballotId this is the ballot Id for which result is declared \n        @param result this is the status of the result //either true if user won that is he recived more than 66% of votes or false if user lost \n     */\n    event BallotResult(uint256 ballotId, bool result);\n\n    constructor(uint8 votingInterval) {\n        VOTING_BLOCK_PERIOD = votingInterval;\n    }\n\n    /**\n     * @dev This function sets the treasury Contract address\n     */\n    function setTreasuryContractAddress(address newTreasuryContractAddress)\n        external\n        _ownerOnly\n    {\n        _setTreasuryContractAddress(newTreasuryContractAddress);\n    }\n\n    function createBallot(bool canOwnerVote) public {\n        _createVoting(canOwnerVote);\n    }\n\n    function castVote(uint256 ballotId, bool vote) public {\n        _castVote(ballotId, vote);\n    }\n\n    function createCounterOffer(uint256 ballotId) public {\n        _createCounterOffer(ballotId);\n    }\n\n    function counterOfferAction(\n        uint256 votingBallotId,\n        address user,\n        bool vote\n    ) public {\n        _counterOfferAction(votingBallotId, user, vote);\n    }\n\n    function declareWinner(uint256 ballotId, uint256 tokenId) public {\n        bool result = _declareWinner(ballotId, tokenId);\n        emit BallotResult(ballotId, result);\n    }\n}\n",
  "sourcePath": "/Users/a1/Desktop/Office/projects/CrowdRecords/Contracts/contracts/Mocks/BaseVotingCounterOfferContractMock.sol",
  "compiler": {
    "name": "solc",
    "version": "0.8.12+commit.f00d7308.Emscripten.clang"
  },
  "schemaVersion": "3.4.6",
  "updatedAt": "2022-07-17T12:21:35.116Z",
  "devdoc": {
    "events": {
      "BallotResult(uint256,bool)": {
        "details": "this event is genrated when result of a ballot is declared",
        "params": {
          "ballotId": "this is the ballot Id for which result is declared ",
          "result": "this is the status of the result //either true if user won that is he recived more than 66% of votes or false if user lost "
        }
      }
    },
    "kind": "dev",
    "methods": {
      "setTreasuryContractAddress(address)": {
        "details": "This function sets the treasury Contract address"
      }
    },
    "version": 1
  },
  "userdoc": {
    "kind": "user",
    "methods": {},
    "version": 1
  }
}