{
  "contractName": "BaseVotingContractMock",
  "abi": [
    {
      "inputs": [
        {
          "internalType": "uint8",
          "name": "votingInterval",
          "type": "uint8"
        },
        {
          "internalType": "address",
          "name": "owner",
          "type": "address"
        }
      ],
      "stateMutability": "nonpayable",
      "type": "constructor"
    },
    {
      "anonymous": false,
      "inputs": [
        {
          "indexed": false,
          "internalType": "uint256",
          "name": "ballotId",
          "type": "uint256"
        },
        {
          "indexed": false,
          "internalType": "bool",
          "name": "result",
          "type": "bool"
        },
        {
          "indexed": false,
          "internalType": "bool",
          "name": "minTurnOut",
          "type": "bool"
        }
      ],
      "name": "BallotResult",
      "type": "event"
    },
    {
      "anonymous": false,
      "inputs": [
        {
          "indexed": false,
          "internalType": "uint256",
          "name": "value",
          "type": "uint256"
        }
      ],
      "name": "DEBUG",
      "type": "event"
    },
    {
      "anonymous": false,
      "inputs": [
        {
          "indexed": false,
          "internalType": "uint256",
          "name": "amount",
          "type": "uint256"
        }
      ],
      "name": "Debug",
      "type": "event"
    },
    {
      "anonymous": false,
      "inputs": [
        {
          "indexed": false,
          "internalType": "address",
          "name": "owner",
          "type": "address"
        },
        {
          "indexed": false,
          "internalType": "uint256",
          "name": "ballotId",
          "type": "uint256"
        },
        {
          "indexed": false,
          "internalType": "uint256",
          "name": "depositAmount",
          "type": "uint256"
        }
      ],
      "name": "DepositClaimed",
      "type": "event"
    },
    {
      "anonymous": false,
      "inputs": [
        {
          "indexed": false,
          "internalType": "address",
          "name": "owner",
          "type": "address"
        },
        {
          "indexed": false,
          "internalType": "uint256",
          "name": "ballotId",
          "type": "uint256"
        },
        {
          "indexed": false,
          "internalType": "uint256",
          "name": "depositAmount",
          "type": "uint256"
        },
        {
          "indexed": false,
          "internalType": "bool",
          "name": "isClaimed",
          "type": "bool"
        },
        {
          "indexed": false,
          "internalType": "bool",
          "name": "isPresent",
          "type": "bool"
        }
      ],
      "name": "DepositCreated",
      "type": "event"
    },
    {
      "anonymous": false,
      "inputs": [
        {
          "indexed": false,
          "internalType": "uint8",
          "name": "version",
          "type": "uint8"
        }
      ],
      "name": "Initialized",
      "type": "event"
    },
    {
      "inputs": [],
      "name": "GOVERNANCE",
      "outputs": [
        {
          "internalType": "address",
          "name": "",
          "type": "address"
        }
      ],
      "stateMutability": "view",
      "type": "function"
    },
    {
      "inputs": [],
      "name": "MIN_TURNOUT_PERCENT",
      "outputs": [
        {
          "internalType": "uint256",
          "name": "",
          "type": "uint256"
        }
      ],
      "stateMutability": "view",
      "type": "function"
    },
    {
      "inputs": [],
      "name": "OWNER",
      "outputs": [
        {
          "internalType": "address",
          "name": "",
          "type": "address"
        }
      ],
      "stateMutability": "view",
      "type": "function"
    },
    {
      "inputs": [],
      "name": "TREASURY_CONTRACT_ADDRESS",
      "outputs": [
        {
          "internalType": "address",
          "name": "",
          "type": "address"
        }
      ],
      "stateMutability": "view",
      "type": "function"
    },
    {
      "inputs": [],
      "name": "TREASURY_HUB_ADDRESS",
      "outputs": [
        {
          "internalType": "address",
          "name": "",
          "type": "address"
        }
      ],
      "stateMutability": "view",
      "type": "function"
    },
    {
      "inputs": [],
      "name": "VOTING_BLOCK_PERIOD",
      "outputs": [
        {
          "internalType": "uint256",
          "name": "",
          "type": "uint256"
        }
      ],
      "stateMutability": "view",
      "type": "function"
    },
    {
      "inputs": [],
      "name": "VOTING_DEPOSIT",
      "outputs": [
        {
          "internalType": "uint256",
          "name": "",
          "type": "uint256"
        }
      ],
      "stateMutability": "view",
      "type": "function"
    },
    {
      "inputs": [
        {
          "internalType": "address",
          "name": "user",
          "type": "address"
        },
        {
          "internalType": "uint256",
          "name": "tokenId",
          "type": "uint256"
        },
        {
          "internalType": "uint256",
          "name": "previousBalance",
          "type": "uint256"
        },
        {
          "internalType": "uint256",
          "name": "newBalance",
          "type": "uint256"
        }
      ],
      "name": "_handleUserTokenTransfers",
      "outputs": [],
      "stateMutability": "nonpayable",
      "type": "function"
    },
    {
      "inputs": [
        {
          "internalType": "uint256",
          "name": "",
          "type": "uint256"
        }
      ],
      "name": "depositMap",
      "outputs": [
        {
          "internalType": "address",
          "name": "owner",
          "type": "address"
        },
        {
          "internalType": "uint256",
          "name": "ballotId",
          "type": "uint256"
        },
        {
          "internalType": "uint256",
          "name": "depositAmount",
          "type": "uint256"
        },
        {
          "internalType": "bool",
          "name": "isClaimed",
          "type": "bool"
        },
        {
          "internalType": "bool",
          "name": "isPresent",
          "type": "bool"
        }
      ],
      "stateMutability": "view",
      "type": "function"
    },
    {
      "inputs": [
        {
          "internalType": "uint256",
          "name": "depositAmount",
          "type": "uint256"
        }
      ],
      "name": "setDepositAmount",
      "outputs": [],
      "stateMutability": "nonpayable",
      "type": "function"
    },
    {
      "inputs": [
        {
          "internalType": "uint256",
          "name": "minTurnOut",
          "type": "uint256"
        }
      ],
      "name": "setMinTurnOut",
      "outputs": [],
      "stateMutability": "nonpayable",
      "type": "function"
    },
    {
      "inputs": [
        {
          "internalType": "address",
          "name": "ownerAddress",
          "type": "address"
        }
      ],
      "name": "setOwnerAddress",
      "outputs": [],
      "stateMutability": "nonpayable",
      "type": "function"
    },
    {
      "inputs": [
        {
          "internalType": "uint256",
          "name": "votingPeriod",
          "type": "uint256"
        }
      ],
      "name": "setVotingPeriod",
      "outputs": [],
      "stateMutability": "nonpayable",
      "type": "function"
    },
    {
      "inputs": [
        {
          "internalType": "uint256",
          "name": "",
          "type": "uint256"
        }
      ],
      "name": "votingMap",
      "outputs": [
        {
          "internalType": "address",
          "name": "owner",
          "type": "address"
        },
        {
          "internalType": "uint256",
          "name": "yesWeight",
          "type": "uint256"
        },
        {
          "internalType": "uint256",
          "name": "yesCount",
          "type": "uint256"
        },
        {
          "internalType": "uint256",
          "name": "noWeight",
          "type": "uint256"
        },
        {
          "internalType": "uint256",
          "name": "noCount",
          "type": "uint256"
        },
        {
          "internalType": "uint256",
          "name": "tokenId",
          "type": "uint256"
        },
        {
          "internalType": "uint256",
          "name": "votingEndBlock",
          "type": "uint256"
        },
        {
          "internalType": "bool",
          "name": "isResultDeclared",
          "type": "bool"
        },
        {
          "internalType": "bool",
          "name": "canOwnerVote",
          "type": "bool"
        },
        {
          "internalType": "bool",
          "name": "isPresent",
          "type": "bool"
        }
      ],
      "stateMutability": "view",
      "type": "function"
    },
    {
      "inputs": [
        {
          "internalType": "address",
          "name": "newTreasuryContractAddress",
          "type": "address"
        },
        {
          "internalType": "address",
          "name": "newGovernanceContractAddress",
          "type": "address"
        }
      ],
      "name": "initialize",
      "outputs": [],
      "stateMutability": "nonpayable",
      "type": "function"
    },
    {
      "inputs": [
        {
          "internalType": "bool",
          "name": "canOwnerVote",
          "type": "bool"
        },
        {
          "internalType": "uint256",
          "name": "tokenId",
          "type": "uint256"
        }
      ],
      "name": "createBallot",
      "outputs": [],
      "stateMutability": "payable",
      "type": "function"
    },
    {
      "inputs": [
        {
          "internalType": "uint256",
          "name": "ballotId",
          "type": "uint256"
        },
        {
          "internalType": "bool",
          "name": "vote",
          "type": "bool"
        }
      ],
      "name": "castVote",
      "outputs": [],
      "stateMutability": "nonpayable",
      "type": "function"
    },
    {
      "inputs": [
        {
          "internalType": "uint256",
          "name": "ballotId",
          "type": "uint256"
        },
        {
          "internalType": "bool",
          "name": "vote",
          "type": "bool"
        },
        {
          "internalType": "address",
          "name": "voter",
          "type": "address"
        }
      ],
      "name": "castVoteForOther",
      "outputs": [],
      "stateMutability": "nonpayable",
      "type": "function"
    },
    {
      "inputs": [
        {
          "internalType": "uint256",
          "name": "ballotId",
          "type": "uint256"
        }
      ],
      "name": "declareWinner",
      "outputs": [],
      "stateMutability": "nonpayable",
      "type": "function"
    }
  ],
  "bytecode": "0x6080604052670de0b6b3a764000060015560196002556101f460035560006008556001600e553480156200003257600080fd5b506040516200231938038062002319833981016040819052620000559162000081565b600680546001600160a01b0319166001600160a01b039290921691909117905560ff16600255620000d0565b600080604083850312156200009557600080fd5b825160ff81168114620000a757600080fd5b60208401519092506001600160a01b0381168114620000c557600080fd5b809150509250929050565b61223980620000e06000396000f3fe6080604052600436106101435760003560e01c80636d8cee56116100c05780638d2ae1f711610074578063acb3149311610059578063acb31493146104d8578063e1f2e08414610505578063ea0217cf1461052557600080fd5b80638d2ae1f71461048b578063abb7ed7f146104b857600080fd5b806382f61de5116100a557806382f61de5146103ad57806383b0b071146103cd578063879253a31461047557600080fd5b80636d8cee561461037a5780636dce86641461039a57600080fd5b8063331a6bf511610117578063485cc955116100fc578063485cc9551461025257806363e249c1146102725780636c83244a1461036457600080fd5b8063331a6bf51461020e57806333e0ea2e1461022e57600080fd5b8062c2943c14610148578063117803e31461016a57806314627834146101c157806315373e3d146101ee575b600080fd5b34801561015457600080fd5b50610168610163366004611edf565b610545565b005b34801561017657600080fd5b506006546101979073ffffffffffffffffffffffffffffffffffffffff1681565b60405173ffffffffffffffffffffffffffffffffffffffff90911681526020015b60405180910390f35b3480156101cd57600080fd5b506007546101979073ffffffffffffffffffffffffffffffffffffffff1681565b3480156101fa57600080fd5b50610168610209366004611f0d565b6105aa565b34801561021a57600080fd5b50610168610229366004611f5d565b6105b8565b34801561023a57600080fd5b5061024460035481565b6040519081526020016101b8565b34801561025e57600080fd5b5061016861026d366004611f7f565b6106ab565b34801561027e57600080fd5b506102fd61028d366004611edf565b6009602052600090815260409020805460018201546002830154600384015460048501546005860154600687015460079097015473ffffffffffffffffffffffffffffffffffffffff909616969495939492939192909160ff80821691610100810482169162010000909104168a565b6040805173ffffffffffffffffffffffffffffffffffffffff909b168b5260208b0199909952978901969096526060880194909452608087019290925260a086015260c0850152151560e084015215156101008301521515610120820152610140016101b8565b34801561037057600080fd5b5061024460025481565b34801561038657600080fd5b50610168610395366004611edf565b6108e4565b6101686103a8366004611fa9565b61096a565b3480156103b957600080fd5b506101686103c8366004611fd3565b610982565b3480156103d957600080fd5b506104326103e8366004611edf565b600c60205260009081526040902080546001820154600283015460039093015473ffffffffffffffffffffffffffffffffffffffff90921692909160ff8082169161010090041685565b6040805173ffffffffffffffffffffffffffffffffffffffff9096168652602086019490945292840191909152151560608301521515608082015260a0016101b8565b34801561048157600080fd5b5061024460015481565b34801561049757600080fd5b506005546101979073ffffffffffffffffffffffffffffffffffffffff1681565b3480156104c457600080fd5b506101686104d336600461200f565b61098d565b3480156104e457600080fd5b506004546101979073ffffffffffffffffffffffffffffffffffffffff1681565b34801561051157600080fd5b50610168610520366004611edf565b610b4b565b34801561053157600080fd5b50610168610540366004611edf565b610bd1565b60008061055183610c57565b9150915061055e83610f72565b604080518481528315156020820152821515918101919091527f1f6972cf5ca4c61f97e167c7304bc893a078a7ae23020018f03bfcdd947e755e906060015b60405180910390a1505050565b6105b482826111c0565b5050565b60065473ffffffffffffffffffffffffffffffffffffffff163314610664576040517f08c379a000000000000000000000000000000000000000000000000000000000815260206004820152602360248201527f554e415554484f52495a45443a2043414e4e4f545f504552464f524d5f41435460448201527f494f4e000000000000000000000000000000000000000000000000000000000060648201526084015b60405180910390fd5b600680547fffffffffffffffffffffffff00000000000000000000000000000000000000001673ffffffffffffffffffffffffffffffffffffffff92909216919091179055565b600054610100900460ff16158080156106cb5750600054600160ff909116105b806106e55750303b1580156106e5575060005460ff166001145b610771576040517f08c379a000000000000000000000000000000000000000000000000000000000815260206004820152602e60248201527f496e697469616c697a61626c653a20636f6e747261637420697320616c72656160448201527f647920696e697469616c697a6564000000000000000000000000000000000000606482015260840161065b565b600080547fffffffffffffffffffffffffffffffffffffffffffffffffffffffffffffff0016600117905580156107cf57600080547fffffffffffffffffffffffffffffffffffffffffffffffffffffffffffff00ff166101001790555b60065473ffffffffffffffffffffffffffffffffffffffff163314610876576040517f08c379a000000000000000000000000000000000000000000000000000000000815260206004820152602360248201527f554e415554484f52495a45443a2043414e4e4f545f504552464f524d5f41435460448201527f494f4e0000000000000000000000000000000000000000000000000000000000606482015260840161065b565b61088083836114a8565b80156108df57600080547fffffffffffffffffffffffffffffffffffffffffffffffffffffffffffff00ff169055604051600181527f7f26b83ff96e1f2b6a682f133852f6798a09c465da95921460cefb38474024989060200161059d565b505050565b60075473ffffffffffffffffffffffffffffffffffffffff163314610965576040517f08c379a000000000000000000000000000000000000000000000000000000000815260206004820152601d60248201527f554e415554484f52495a45443a204f4e4c595f474f5645524e414e4345000000604482015260640161065b565b600155565b60006109768383611592565b90506108df3382611757565b6108df838383611928565b73ffffffffffffffffffffffffffffffffffffffff84166000908152600d60205260408120905b8154811015610b4357600960008383815481106109d3576109d3612048565b6000918252602080832090910154835282019290925260400190206007015460ff16151560011480610a3657504360096000848481548110610a1757610a17612048565b9060005260206000200154815260200190815260200160002060060154105b15610acf5781548290610a4b906001906120a6565b81548110610a5b57610a5b612048565b9060005260206000200154828281548110610a7857610a78612048565b906000526020600020018190555081805480610a9657610a966120bd565b600190038181906000526020600020016000905590558060001415610abd57506000610b31565b80610ac7816120ec565b915050610b31565b60096000838381548110610ae557610ae5612048565b9060005260206000200154815260200190815260200160002060050154851415610b3157610b31828281548110610b1e57610b1e612048565b9060005260206000200154878686611ad1565b80610b3b81612121565b9150506109b4565b505050505050565b60075473ffffffffffffffffffffffffffffffffffffffff163314610bcc576040517f08c379a000000000000000000000000000000000000000000000000000000000815260206004820152601d60248201527f554e415554484f52495a45443a204f4e4c595f474f5645524e414e4345000000604482015260640161065b565b600355565b60075473ffffffffffffffffffffffffffffffffffffffff163314610c52576040517f08c379a000000000000000000000000000000000000000000000000000000000815260206004820152601d60248201527f554e415554484f52495a45443a204f4e4c595f474f5645524e414e4345000000604482015260640161065b565b600255565b600081815260096020526040812060070154819062010000900460ff161515600114610cdf576040517f08c379a000000000000000000000000000000000000000000000000000000000815260206004820152601960248201527f494e56414c49443a2042414c4c4f545f4e4f545f464f554e4400000000000000604482015260640161065b565b6000838152600960205260409020600601544311610d59576040517f08c379a000000000000000000000000000000000000000000000000000000000815260206004820152601d60248201527f494e56414c49443a20564f54494e475f54494d455f4e4f545f4f564552000000604482015260640161065b565b60008381526009602052604090206007015460ff1615610dd5576040517f08c379a000000000000000000000000000000000000000000000000000000000815260206004820181905260248201527f494e56414c49443a20524553554c545f414c52454144595f4445434c41524544604482015260640161065b565b6000838152600960205260408082206001808201546003830154600480546007860180547fffffffffffffffffffffffffffffffffffffffffffffffffffffffffffffff0016909517909455600585015495517f036c22ad000000000000000000000000000000000000000000000000000000008152908101959095529294909373ffffffffffffffffffffffffffffffffffffffff90921691829063036c22ad90602401602060405180830381865afa158015610e97573d6000803e3d6000fd5b505050506040513d601f19601f82011682018060405250810190610ebb919061215a565b9050600060648060035484610ed09190612173565b610eda91906121b0565b610ee491906121b0565b905080610ef186866121eb565b1115610f61578415610f4f5760006064610f0b86886121eb565b610f16906042612173565b610f2091906121b0565b905080861115610f3c57506001998a9950975050505050505050565b5060009960019950975050505050505050565b50600098600198509650505050505050565b506000988998509650505050505050565b6000818152600c602052604090206003015460ff610100909104161515600114610ff8576040517f08c379a000000000000000000000000000000000000000000000000000000000815260206004820152600d60248201527f4445505f4e4f545f455849535400000000000000000000000000000000000000604482015260640161065b565b6000818152600c602052604090206003015460ff1615611074576040517f08c379a000000000000000000000000000000000000000000000000000000000815260206004820152601360248201527f4445505f414c52454144595f434c41494d454400000000000000000000000000604482015260640161065b565b6000818152600c60205260408082208054600290910154915173ffffffffffffffffffffffffffffffffffffffff90911691908381818185875af1925050503d80600081146110df576040519150601f19603f3d011682016040523d82523d6000602084013e6110e4565b606091505b505090508061114f576040517f08c379a000000000000000000000000000000000000000000000000000000000815260206004820152600d60248201527f494e565f4445505f434c41494d00000000000000000000000000000000000000604482015260640161065b565b6000828152600c60209081526040918290208054600290910154835173ffffffffffffffffffffffffffffffffffffffff9092168252918101859052918201527f6b1069552f63b401b74bc71e75594d0a8bc61f7a42998e0f201b78f9aa600d329060600160405180910390a15050565b6000828152600960205260409020600701548290339062010000900460ff16151560011461124a576040517f08c379a000000000000000000000000000000000000000000000000000000000815260206004820152601960248201527f494e56414c49443a2042414c4c4f545f4e4f545f464f554e4400000000000000604482015260640161065b565b60008281526009602052604090206006015443106112c4576040517f08c379a000000000000000000000000000000000000000000000000000000000815260206004820152601960248201527f494e56414c49443a20564f54494e475f54494d455f4f56455200000000000000604482015260640161065b565b6000828152600a6020908152604080832073ffffffffffffffffffffffffffffffffffffffff8516845290915290205460ff161561135e576040517f08c379a000000000000000000000000000000000000000000000000000000000815260206004820152601660248201527f494e56414c49443a20414c52454144595f564f54454400000000000000000000604482015260640161065b565b6000848152600960205260409020600701548490610100900460ff1615611408576000818152600a6020908152604080832032845290915290205460ff1615611403576040517f08c379a000000000000000000000000000000000000000000000000000000000815260206004820152601660248201527f494e56414c49443a20414c52454144595f564f54454400000000000000000000604482015260640161065b565b611496565b60008181526009602052604090205473ffffffffffffffffffffffffffffffffffffffff16321415611496576040517f08c379a000000000000000000000000000000000000000000000000000000000815260206004820152601f60248201527f554e415554484f52495a45443a204f574e45525f43414e4e4f545f564f544500604482015260640161065b565b6114a1858532611c73565b5050505050565b600054610100900460ff1661153f576040517f08c379a000000000000000000000000000000000000000000000000000000000815260206004820152602b60248201527f496e697469616c697a61626c653a20636f6e7472616374206973206e6f74206960448201527f6e697469616c697a696e67000000000000000000000000000000000000000000606482015260840161065b565b6004805473ffffffffffffffffffffffffffffffffffffffff9384167fffffffffffffffffffffffff00000000000000000000000000000000000000009182161790915560078054929093169116179055565b60088054600091826115a383612121565b919050555060006040518061014001604052803273ffffffffffffffffffffffffffffffffffffffff168152602001600081526020016000815260200160008152602001600081526020018481526020016002544361160291906121eb565b8152600060208083018290529615156040808401919091526001606093840181905260088054845260098a5292829020855181547fffffffffffffffffffffffff00000000000000000000000000000000000000001673ffffffffffffffffffffffffffffffffffffffff909116178155988501519089015583015160028801559082015160038701556080820151600487015560a0820151600587015560c0820151600687015560e08201516007909601805461010080850151610120909501517fffffffffffffffffffffffffffffffffffffffffffffffffffffffffffff00009092169815157fffffffffffffffffffffffffffffffffffffffffffffffffffffffffffff00ff1698909817931515909702929092177fffffffffffffffffffffffffffffffffffffffffffffffffffffffffff00ffff16620100009615159690960295909517905550509054919050565b34600154146117c2576040517f08c379a000000000000000000000000000000000000000000000000000000000815260206004820152600760248201527f494e565f44455000000000000000000000000000000000000000000000000000604482015260640161065b565b6040805160a0808201835273ffffffffffffffffffffffffffffffffffffffff851680835260208084018690526001805485870181905260006060808801829052608080890185905289519687529486018a9052858901929092529084015290820152925191927f58ac581930e3170185d9c86e70eceabd7254c9eee2c1df3b76e38f030645ec3d929081900390910190a16000918252600c6020908152604092839020825181547fffffffffffffffffffffffff00000000000000000000000000000000000000001673ffffffffffffffffffffffffffffffffffffffff9091161781559082015160018201559181015160028301556060810151600390920180546080909201517fffffffffffffffffffffffffffffffffffffffffffffffffffffffffffff00009092169215157fffffffffffffffffffffffffffffffffffffffffffffffffffffffffffff00ff16929092176101009115159190910217905550565b6000838152600960205260409020600701548390829062010000900460ff1615156001146119b2576040517f08c379a000000000000000000000000000000000000000000000000000000000815260206004820152601960248201527f494e56414c49443a2042414c4c4f545f4e4f545f464f554e4400000000000000604482015260640161065b565b6000828152600960205260409020600601544310611a2c576040517f08c379a000000000000000000000000000000000000000000000000000000000815260206004820152601960248201527f494e56414c49443a20564f54494e475f54494d455f4f56455200000000000000604482015260640161065b565b6000828152600a6020908152604080832073ffffffffffffffffffffffffffffffffffffffff8516845290915290205460ff1615611ac6576040517f08c379a000000000000000000000000000000000000000000000000000000000815260206004820152601660248201527f494e56414c49443a20414c52454144595f564f54454400000000000000000000604482015260640161065b565b6114a1858585611c73565b6000848152600a6020908152604080832073ffffffffffffffffffffffffffffffffffffffff8716845290915290205460ff161515600114611b95576040517f08c379a000000000000000000000000000000000000000000000000000000000815260206004820152602560248201527f494e56414c49443a20494e5445524e414c3a20555345525f4841535f4e4f545f60448201527f564f544544000000000000000000000000000000000000000000000000000000606482015260840161065b565b6000848152600b6020908152604080832073ffffffffffffffffffffffffffffffffffffffff8716845290915290205460ff168015611c205760008581526009602052604081206001018054859290611bef9084906120a6565b909155505060008581526009602052604081206001018054849290611c159084906121eb565b909155506114a19050565b60008581526009602052604081206003018054859290611c419084906120a6565b909155505060008581526009602052604081206003018054849290611c679084906121eb565b90915550505050505050565b600480546000858152600960209081526040808320815161014081018352815473ffffffffffffffffffffffffffffffffffffffff908116825260018301549482019490945260028201548184015260038201546060820152818701546080820152600582015460a08201819052600683015460c083015260079092015460ff808216151560e084015261010080830482161515908401526201000090910416151561012082015291517efdd58e000000000000000000000000000000000000000000000000000000008152878416968101969096526024860152921692839062fdd58e90604401602060405180830381865afa158015611d78573d6000803e3d6000fd5b505050506040513d601f19601f82011682018060405250810190611d9c919061215a565b90508415611df75760008681526009602052604081206001018054839290611dc59084906121eb565b90915550506000868152600960205260408120600201805460019290611dec9084906121eb565b90915550611e459050565b60008681526009602052604081206003018054839290611e189084906121eb565b90915550506000868152600960205260408120600401805460019290611e3f9084906121eb565b90915550505b5050506000838152600a6020908152604080832073ffffffffffffffffffffffffffffffffffffffff94909416808452938252808320805460017fffffffffffffffffffffffffffffffffffffffffffffffffffffffffffffff009182168117909255878552600b8452828520958552948352818420805490951695151595909517909355600d8152918120805493840181558152200155565b600060208284031215611ef157600080fd5b5035919050565b80358015158114611f0857600080fd5b919050565b60008060408385031215611f2057600080fd5b82359150611f3060208401611ef8565b90509250929050565b803573ffffffffffffffffffffffffffffffffffffffff81168114611f0857600080fd5b600060208284031215611f6f57600080fd5b611f7882611f39565b9392505050565b60008060408385031215611f9257600080fd5b611f9b83611f39565b9150611f3060208401611f39565b60008060408385031215611fbc57600080fd5b611fc583611ef8565b946020939093013593505050565b600080600060608486031215611fe857600080fd5b83359250611ff860208501611ef8565b915061200660408501611f39565b90509250925092565b6000806000806080858703121561202557600080fd5b61202e85611f39565b966020860135965060408601359560600135945092505050565b7f4e487b7100000000000000000000000000000000000000000000000000000000600052603260045260246000fd5b7f4e487b7100000000000000000000000000000000000000000000000000000000600052601160045260246000fd5b6000828210156120b8576120b8612077565b500390565b7f4e487b7100000000000000000000000000000000000000000000000000000000600052603160045260246000fd5b6000816120fb576120fb612077565b507fffffffffffffffffffffffffffffffffffffffffffffffffffffffffffffffff0190565b60007fffffffffffffffffffffffffffffffffffffffffffffffffffffffffffffffff82141561215357612153612077565b5060010190565b60006020828403121561216c57600080fd5b5051919050565b6000817fffffffffffffffffffffffffffffffffffffffffffffffffffffffffffffffff04831182151516156121ab576121ab612077565b500290565b6000826121e6577f4e487b7100000000000000000000000000000000000000000000000000000000600052601260045260246000fd5b500490565b600082198211156121fe576121fe612077565b50019056fea264697066735822122017c1fd9ed028492d5d6d7ec5f8f9c6363d357106bdc63cb63f47f0d0268291fd64736f6c634300080c0033",
  "immutableReferences": {},
  "source": "// SPDX-License-Identifier: MIT\n\npragma solidity ^0.8.0;\n\nimport \"../voting/BaseVotingContract.sol\";\n\ncontract BaseVotingContractMock is BaseVotingContract {\n    uint256 private LastTokenId = 1;\n\n    /// @dev this event is generated when result of a ballot is declared\n    /// @param ballotId this is the ballot Id for which result is declared\n    /// @param result this is the status of the result either true if user won that is he received\n    /// @param minTurnOut this status indicates if minimum amount of user showed up for voting\n    /// more than 66% of votes or false if user lost\n    event BallotResult(uint256 ballotId, bool result, bool minTurnOut);\n\n    constructor(uint8 votingInterval, address owner) BaseVotingContract(owner) {\n        VOTING_BLOCK_PERIOD = votingInterval;\n    }\n\n    /// @dev This is to set the address of the contracts\n    /// @param newTreasuryContractAddress This is the address of new treasury contract\n    /// @param newGovernanceContractAddress This is the address for the governance contract\n    function initialize(\n        address newTreasuryContractAddress,\n        address newGovernanceContractAddress\n    ) public override initializer _ownerOnly {\n        BaseVotingContract.initialize(\n            newTreasuryContractAddress,\n            newGovernanceContractAddress\n        );\n    }\n\n    event Debug(uint256 amount);\n\n    function createBallot(bool canOwnerVote, uint256 tokenId) public payable {\n        uint256 ballotId = _createVoting(canOwnerVote, tokenId);\n        _createDeposit(msg.sender, ballotId);\n    }\n\n    function castVote(uint256 ballotId, bool vote) public {\n        _castVote(ballotId, vote);\n    }\n\n    function castVoteForOther(\n        uint256 ballotId,\n        bool vote,\n        address voter\n    ) public {\n        _castVoteForOther(ballotId, vote, voter);\n    }\n\n    function declareWinner(uint256 ballotId) public {\n        (bool result, bool minTurnOut) = _declareWinner(ballotId);\n        _releaseDeposit(ballotId);\n        emit BallotResult(ballotId, result, minTurnOut);\n    }\n}\n",
  "sourcePath": "/Users/a1/Desktop/Office/projects/CrowdRecords/Contracts/contracts/Mocks/BaseVotingContractMock.sol",
  "compiler": {
    "name": "solc",
    "version": "0.8.12+commit.f00d7308.Emscripten.clang"
  },
  "schemaVersion": "3.4.6",
  "updatedAt": "2023-04-11T15:44:43.653Z",
  "devdoc": {
    "events": {
      "BallotResult(uint256,bool,bool)": {
        "details": "this event is generated when result of a ballot is declared",
        "params": {
          "ballotId": "this is the ballot Id for which result is declared",
          "minTurnOut": "this status indicates if minimum amount of user showed up for voting more than 66% of votes or false if user lost",
          "result": "this is the status of the result either true if user won that is he received"
        }
      }
    },
    "kind": "dev",
    "methods": {
      "_handleUserTokenTransfers(address,uint256,uint256,uint256)": {
        "details": "This function will be called when either user is transferring the tokens to other account, or is receiving tokens from other tokens.",
        "params": {
          "newBalance": "this is the new balance of the user that is after the transfer",
          "previousBalance": "this is the old balance of the user",
          "user": "address of the user whose balance is being changed"
        }
      },
      "initialize(address,address)": {
        "details": "This is to set the address of the contracts",
        "params": {
          "newGovernanceContractAddress": "This is the address for the governance contract",
          "newTreasuryContractAddress": "This is the address of new treasury contract"
        }
      },
      "setDepositAmount(uint256)": {
        "details": "This function sets the VOTING_DEPOSIT percentage",
        "params": {
          "depositAmount": "This is the new deposit amount needed for creating ballot"
        }
      },
      "setMinTurnOut(uint256)": {
        "details": "This function sets the MIN_TURN_OUT percentage",
        "params": {
          "minTurnOut": "This is the new turnout percentage value"
        }
      },
      "setOwnerAddress(address)": {
        "details": "This function sets the owner address",
        "params": {
          "ownerAddress": "This is the address of the owner"
        }
      },
      "setVotingPeriod(uint256)": {
        "details": "This function sets the VOTING_BLOCK_PERIOD percentage",
        "params": {
          "votingPeriod": "This is the voting period"
        }
      }
    },
    "version": 1
  },
  "userdoc": {
    "kind": "user",
    "methods": {},
    "version": 1
  }
}