{
  "contractName": "BaseVotingContract",
  "abi": [
    {
      "inputs": [],
      "stateMutability": "nonpayable",
      "type": "constructor"
    },
    {
      "inputs": [],
      "name": "TREASURY_CONTRACT_ADDRESS",
      "outputs": [
        {
          "internalType": "address",
          "name": "",
          "type": "address"
        }
      ],
      "stateMutability": "view",
      "type": "function"
    },
    {
      "inputs": [],
      "name": "TREASURY_HUB_ADDRESS",
      "outputs": [
        {
          "internalType": "address",
          "name": "",
          "type": "address"
        }
      ],
      "stateMutability": "view",
      "type": "function"
    },
    {
      "inputs": [
        {
          "internalType": "address",
          "name": "user",
          "type": "address"
        },
        {
          "internalType": "uint256",
          "name": "tokenId",
          "type": "uint256"
        },
        {
          "internalType": "uint256",
          "name": "previousBalance",
          "type": "uint256"
        },
        {
          "internalType": "uint256",
          "name": "newBalance",
          "type": "uint256"
        }
      ],
      "name": "_handleUserTokenTransfers",
      "outputs": [],
      "stateMutability": "nonpayable",
      "type": "function"
    }
  ],
  "bytecode": "0x60806040526019600055600060045534801561001a57600080fd5b5033600360006101000a81548173ffffffffffffffffffffffffffffffffffffffff021916908373ffffffffffffffffffffffffffffffffffffffff1602179055506108178061006b6000396000f3fe608060405234801561001057600080fd5b50600436106100415760003560e01c80638d2ae1f714610046578063abb7ed7f14610064578063acb3149314610080575b600080fd5b61004e61009e565b60405161005b91906104f1565b60405180910390f35b61007e60048036038101906100799190610573565b6100c4565b005b6100886102bd565b60405161009591906104f1565b60405180910390f35b600260009054906101000a900473ffffffffffffffffffffffffffffffffffffffff1681565b6000600860008673ffffffffffffffffffffffffffffffffffffffff1673ffffffffffffffffffffffffffffffffffffffff168152602001908152602001600020905060005b81805490508110156102b5576001151560056000848481548110610131576101306105da565b5b9060005260206000200154815260200190815260200160002060070160009054906101000a900460ff161515148061019b5750436005600084848154811061017c5761017b6105da565b5b9060005260206000200154815260200190815260200160002060060154105b1561023c5781600183805490506101b29190610638565b815481106101c3576101c26105da565b5b90600052602060002001548282815481106101e1576101e06105da565b5b906000526020600020018190555081805480610200576101ff61066c565b5b6001900381819060005260206000200160009055905560008114156102285760009050610237565b80806102339061069b565b9150505b6102a2565b60056000838381548110610253576102526105da565b5b90600052602060002001548152602001908152602001600020600501548514156102a1576102a082828154811061028d5761028c6105da565b5b90600052602060002001548786866102e3565b5b5b80806102ad906106c5565b91505061010a565b505050505050565b600160009054906101000a900473ffffffffffffffffffffffffffffffffffffffff1681565b600115156006600086815260200190815260200160002060008573ffffffffffffffffffffffffffffffffffffffff1673ffffffffffffffffffffffffffffffffffffffff16815260200190815260200160002060009054906101000a900460ff16151514610387576040517f08c379a000000000000000000000000000000000000000000000000000000000815260040161037e9061076b565b60405180910390fd5b60006007600086815260200190815260200160002060008573ffffffffffffffffffffffffffffffffffffffff1673ffffffffffffffffffffffffffffffffffffffff16815260200190815260200160002060009054906101000a900460ff169050801561044e57826005600087815260200190815260200160002060010160008282546104159190610638565b9250508190555081600560008781526020019081526020016000206001016000828254610442919061078b565b925050819055506104a9565b826005600087815260200190815260200160002060030160008282546104749190610638565b92505081905550816005600087815260200190815260200160002060030160008282546104a1919061078b565b925050819055505b5050505050565b600073ffffffffffffffffffffffffffffffffffffffff82169050919050565b60006104db826104b0565b9050919050565b6104eb816104d0565b82525050565b600060208201905061050660008301846104e2565b92915050565b600080fd5b61051a816104d0565b811461052557600080fd5b50565b60008135905061053781610511565b92915050565b6000819050919050565b6105508161053d565b811461055b57600080fd5b50565b60008135905061056d81610547565b92915050565b6000806000806080858703121561058d5761058c61050c565b5b600061059b87828801610528565b94505060206105ac8782880161055e565b93505060406105bd8782880161055e565b92505060606105ce8782880161055e565b91505092959194509250565b7f4e487b7100000000000000000000000000000000000000000000000000000000600052603260045260246000fd5b7f4e487b7100000000000000000000000000000000000000000000000000000000600052601160045260246000fd5b60006106438261053d565b915061064e8361053d565b92508282101561066157610660610609565b5b828203905092915050565b7f4e487b7100000000000000000000000000000000000000000000000000000000600052603160045260246000fd5b60006106a68261053d565b915060008214156106ba576106b9610609565b5b600182039050919050565b60006106d08261053d565b91507fffffffffffffffffffffffffffffffffffffffffffffffffffffffffffffffff82141561070357610702610609565b5b600182019050919050565b600082825260208201905092915050565b7f5573657220686173206e6f7420766f7465642079657400000000000000000000600082015250565b600061075560168361070e565b91506107608261071f565b602082019050919050565b6000602082019050818103600083015261078481610748565b9050919050565b60006107968261053d565b91506107a18361053d565b9250827fffffffffffffffffffffffffffffffffffffffffffffffffffffffffffffffff038211156107d6576107d5610609565b5b82820190509291505056fea2646970667358221220a2b0a9ba3798c6dbb854817f54092b64313add73acea8be92f008db7b1d5644764736f6c634300080c0033",
  "immutableReferences": {},
  "source": "// SPDX-License-Identifier: MIT\npragma solidity ^0.8.0;\n\nimport \"../TreasuryContract.sol\";\nimport \"@openzeppelin/contracts/utils/math/SafeMath.sol\";\nimport \"../OrdersContract.sol\";\n\ncontract BaseVotingContract {\n    struct VotingBallot {\n        address owner;\n        uint256 yesWeight;\n        uint256 yesCount;\n        uint256 noWeight;\n        uint256 noCount;\n        uint256 tokenId;\n        uint256 votingEndBlock;\n        bool isResultDeclared;\n        bool canOwnerVote;\n        bool isPresent;\n    }\n\n    uint256 VOTING_BLOCK_PERIOD = 25;\n    address public TREASURY_CONTRACT_ADDRESS;\n    address public TREASURY_HUB_ADDRESS;\n    address OWNER;\n\n    uint256 votingId = 0;\n    mapping(uint256 => VotingBallot) votingMap;\n    //This mapping tracks the state of user, that is if they have voted already or not.\n    mapping(uint256 => mapping(address => bool)) alreadyVoted;\n    //This mapping is useful if the user has voted, as this hold if user voted yes or no for a specific ballot,\n    mapping(uint256 => mapping(address => bool)) userVotes;\n\n    //Active ballot list in which user have voted\n    // user address => List of ballot in which user has voted\n    mapping(address => uint256[]) userActiveVotedBallots;\n\n    constructor() {\n        OWNER = msg.sender;\n    }\n\n    /**\n     * @dev This modifier checks if a ballot is open for voting or has the time expired\n     */\n    modifier _checkIfBallotIsOpen(uint256 votingBallotId, address voter) {\n        require(\n            votingMap[votingBallotId].isPresent == true,\n            \"No ballot with your id is found\"\n        );\n\n        require(\n            votingMap[votingBallotId].votingEndBlock > block.number,\n            \"Voting time is over\"\n        );\n\n        require(\n            alreadyVoted[votingBallotId][voter] == false,\n            \"You have already voted\"\n        );\n\n        _;\n    }\n\n    /**\n     * @dev Modifier to check that the person who accesses a specific function is the owner himself.\n     */\n    modifier _ownerOnly() {\n        require(msg.sender == OWNER, \"You are not authorized for this action\");\n        _;\n    }\n\n    /**\n     * @dev This modifier checks if a ballot is open for voting or has the time expired\n     */\n    modifier _checkIfOwnerAllowed(uint256 votingBallotId) {\n        if (votingMap[votingBallotId].canOwnerVote) {\n            require(\n                alreadyVoted[votingBallotId][tx.origin] == false,\n                \"You have already voted\"\n            );\n        } else if (tx.origin == votingMap[votingBallotId].owner) {\n            revert(\"Owner cannot vote\");\n        }\n        _;\n    }\n\n    /**\n     * @dev This function is called by user to creata a new voting\n     * @param canOwnerVote this is if a user can vote in a voting which he created\n     */\n    function _createVoting(bool canOwnerVote, uint256 tokenId)\n        internal\n        returns (uint256)\n    {\n        votingId++;\n\n        VotingBallot memory voting = VotingBallot({\n            owner: tx.origin,\n            yesWeight: 0,\n            yesCount: 0,\n            noWeight: 0,\n            noCount: 0,\n            tokenId: tokenId,\n            votingEndBlock: block.number + VOTING_BLOCK_PERIOD,\n            isResultDeclared: false,\n            canOwnerVote: canOwnerVote,\n            isPresent: true\n        });\n\n        votingMap[votingId] = voting;\n        return votingId;\n    }\n\n    /**\n     * @dev This function sets the treasury Contract address\n     */\n    function _setTreasuryContractAddress(address newTreasuryContractAddress)\n        internal\n        virtual\n        _ownerOnly\n    {\n        TREASURY_CONTRACT_ADDRESS = newTreasuryContractAddress;\n    }\n\n    /**\n     * @dev This function is called by any user to cast vote\n     * @param votingBallotId this is the id of the ballot for which user is voting\n     * @param vote this is the state of the vote, if true than it means the vote is in favour of the ballot\n     */\n    function _castVote(uint256 votingBallotId, bool vote)\n        internal\n        virtual\n        _checkIfBallotIsOpen(votingBallotId, msg.sender)\n        _checkIfOwnerAllowed(votingBallotId)\n    {\n        _castVotePrivate(votingBallotId, vote, tx.origin);\n    }\n\n    /**\n     * @dev This function is called when the vote is casted on later stages such as in counter offer where the vote is \n       reviewed before hand by the user and then it is accepted by the user.\n     * @param votingBallotId this is the id of the ballot for which user is voting\n     * @param vote this is the state of the vote, if true than it means the vote is in favour of the ballot\n     */\n    function _castVoteForOther(\n        uint256 votingBallotId,\n        bool vote,\n        address voter\n    ) internal _checkIfBallotIsOpen(votingBallotId, voter) {\n        _castVotePrivate(votingBallotId, vote, voter);\n    }\n\n    /**\n     * @dev core logic for voting\n     * @param votingBallotId this is the id of the ballot for which user is voting\n     * @param vote this is the state of the vote, if true than it means the vote is in favour of the ballot\n     * @param voter Voter's address\n     */\n    function _castVotePrivate(\n        uint256 votingBallotId,\n        bool vote,\n        address voter\n    ) private {\n        TreasuryContract treasuryContract = TreasuryContract(\n            TREASURY_CONTRACT_ADDRESS\n        );\n        VotingBallot memory votingBallot = votingMap[votingBallotId];\n        uint256 bal = treasuryContract.balanceOf(voter, votingBallot.tokenId);\n\n        if (vote) {\n            votingMap[votingBallotId].yesWeight += bal;\n            votingMap[votingBallotId].yesCount += 1;\n        } else {\n            votingMap[votingBallotId].noWeight += bal;\n            votingMap[votingBallotId].noCount += 1;\n        }\n\n        alreadyVoted[votingBallotId][voter] = true;\n        userVotes[votingBallotId][voter] = vote;\n        uint256[] storage list = userActiveVotedBallots[voter];\n        list.push(votingBallotId);\n    }\n\n    /**\n     * @dev core logic for voting\n     * @param votingBallotId this is the id of the ballot for which user is voting\n     * @param voter Voter's address\n     * @param oldWeight Old weight of the voter\n     * @param newWeight New weight of the voter\n     */\n    function _changeVoteWeight(\n        uint256 votingBallotId,\n        address voter,\n        uint256 oldWeight,\n        uint256 newWeight\n    ) private {\n        require(\n            alreadyVoted[votingBallotId][voter] == true,\n            \"User has not voted yet\"\n        );\n        bool vote = userVotes[votingBallotId][voter];\n        if (vote) {\n            votingMap[votingBallotId].yesWeight -= oldWeight;\n            votingMap[votingBallotId].yesWeight += newWeight;\n        } else {\n            votingMap[votingBallotId].noWeight -= oldWeight;\n            votingMap[votingBallotId].noWeight += newWeight;\n        }\n    }\n\n    /**\n     * @dev This function will be called when either user is transferring the tokens to other account,\n     or is receiving tokens from other tokens.\n     * @param user address of the user whose balance is being changed\n     * @param previousBalance this is the old balance of the user\n     * @param newBalance this is the new balance of the user that is after the transfer\n     */\n    function _handleUserTokenTransfers(\n        address user,\n        uint256 tokenId,\n        uint256 previousBalance,\n        uint256 newBalance\n    ) public virtual {\n        uint256[] storage ballotList = userActiveVotedBallots[user];\n        for (uint256 i = 0; i < ballotList.length; i++) {\n            if (\n                votingMap[ballotList[i]].isResultDeclared == true ||\n                votingMap[ballotList[i]].votingEndBlock < block.number\n            ) {\n                // Deleting the ballot if result is declared\n                ballotList[i] = ballotList[ballotList.length - 1];\n                ballotList.pop();\n                if (i == 0) {\n                    i = 0;\n                } else {\n                    i--;\n                }\n            } else if (tokenId == votingMap[ballotList[i]].tokenId) {\n                // Changing the weighage of the votes of user\n                _changeVoteWeight(\n                    ballotList[i],\n                    user,\n                    previousBalance,\n                    newBalance\n                );\n            }\n        }\n    }\n\n    /**\n     * @dev This function is called by any user to cast vote\n     * @param votingBallotId this is the id of the ballot for which we need to find the winner\n     */\n    function _declareWinner(uint256 votingBallotId)\n        internal\n        returns (bool isWinner)\n    {\n        require(\n            votingMap[votingBallotId].isPresent == true,\n            \"No ballot with your id is found\"\n        );\n\n        require(\n            votingMap[votingBallotId].votingEndBlock < block.number,\n            \"Voting time is not over yet\"\n        );\n\n        require(\n            votingMap[votingBallotId].isResultDeclared == false,\n            \"Result already declared\"\n        );\n\n        VotingBallot storage votingBallot = votingMap[votingBallotId];\n        uint256 totalYes = votingBallot.yesWeight;\n\n        // Currently to win you would need to around 66% of votes to be yes\n        TreasuryContract treasuryContract = TreasuryContract(\n            TREASURY_CONTRACT_ADDRESS\n        );\n\n        votingMap[votingBallotId].isResultDeclared = true;\n\n        if (totalYes > 0) {\n            uint256 totalCirculatingSupply = treasuryContract\n                .totalCirculatingSupply(votingBallot.tokenId);\n\n            //calculating the 2/3rd value of totalCirculatingSupply to identify how much we will need to win\n            uint256 winAmount = (totalCirculatingSupply * 66) / 100;\n\n            //This will check for 2 / 3 ratio for yes votes\n            if (totalYes > winAmount) {\n                return true;\n            } else {\n                return false;\n            }\n        } else {\n            return false;\n        }\n    }\n}\n",
  "sourcePath": "/Users/a1/Desktop/Office/projects/CrowdRecords/Contracts/contracts/voting/BaseVotingContract.sol",
  "compiler": {
    "name": "solc",
    "version": "0.8.12+commit.f00d7308.Emscripten.clang"
  },
  "schemaVersion": "3.4.6",
  "updatedAt": "2022-07-28T07:26:21.839Z",
  "devdoc": {
    "kind": "dev",
    "methods": {
      "_handleUserTokenTransfers(address,uint256,uint256,uint256)": {
        "details": "This function will be called when either user is transferring the tokens to other account, or is receiving tokens from other tokens.",
        "params": {
          "newBalance": "this is the new balance of the user that is after the transfer",
          "previousBalance": "this is the old balance of the user",
          "user": "address of the user whose balance is being changed"
        }
      }
    },
    "version": 1
  },
  "userdoc": {
    "kind": "user",
    "methods": {},
    "version": 1
  }
}