{
  "contractName": "BaseVotingContract",
  "abi": [
    {
      "inputs": [
        {
          "internalType": "address",
          "name": "owner",
          "type": "address"
        }
      ],
      "stateMutability": "nonpayable",
      "type": "constructor"
    },
    {
      "anonymous": false,
      "inputs": [
        {
          "indexed": false,
          "internalType": "uint8",
          "name": "version",
          "type": "uint8"
        }
      ],
      "name": "Initialized",
      "type": "event"
    },
    {
      "inputs": [],
      "name": "MIN_TURNOUT_PERCENT",
      "outputs": [
        {
          "internalType": "uint256",
          "name": "",
          "type": "uint256"
        }
      ],
      "stateMutability": "view",
      "type": "function"
    },
    {
      "inputs": [],
      "name": "OWNER",
      "outputs": [
        {
          "internalType": "address",
          "name": "",
          "type": "address"
        }
      ],
      "stateMutability": "view",
      "type": "function"
    },
    {
      "inputs": [],
      "name": "TREASURY_CONTRACT_ADDRESS",
      "outputs": [
        {
          "internalType": "address",
          "name": "",
          "type": "address"
        }
      ],
      "stateMutability": "view",
      "type": "function"
    },
    {
      "inputs": [],
      "name": "TREASURY_HUB_ADDRESS",
      "outputs": [
        {
          "internalType": "address",
          "name": "",
          "type": "address"
        }
      ],
      "stateMutability": "view",
      "type": "function"
    },
    {
      "inputs": [
        {
          "internalType": "uint256",
          "name": "",
          "type": "uint256"
        }
      ],
      "name": "votingMap",
      "outputs": [
        {
          "internalType": "address",
          "name": "owner",
          "type": "address"
        },
        {
          "internalType": "uint256",
          "name": "yesWeight",
          "type": "uint256"
        },
        {
          "internalType": "uint256",
          "name": "yesCount",
          "type": "uint256"
        },
        {
          "internalType": "uint256",
          "name": "noWeight",
          "type": "uint256"
        },
        {
          "internalType": "uint256",
          "name": "noCount",
          "type": "uint256"
        },
        {
          "internalType": "uint256",
          "name": "tokenId",
          "type": "uint256"
        },
        {
          "internalType": "uint256",
          "name": "votingEndBlock",
          "type": "uint256"
        },
        {
          "internalType": "bool",
          "name": "isResultDeclared",
          "type": "bool"
        },
        {
          "internalType": "bool",
          "name": "canOwnerVote",
          "type": "bool"
        },
        {
          "internalType": "bool",
          "name": "isPresent",
          "type": "bool"
        },
        {
          "internalType": "bool",
          "name": "minTurnOut",
          "type": "bool"
        },
        {
          "internalType": "bool",
          "name": "result",
          "type": "bool"
        }
      ],
      "stateMutability": "view",
      "type": "function"
    },
    {
      "inputs": [
        {
          "internalType": "address",
          "name": "ownerAddress",
          "type": "address"
        }
      ],
      "name": "setOwnerAddress",
      "outputs": [],
      "stateMutability": "nonpayable",
      "type": "function"
    },
    {
      "inputs": [
        {
          "internalType": "address",
          "name": "newTreasuryContractAddress",
          "type": "address"
        }
      ],
      "name": "initialize",
      "outputs": [],
      "stateMutability": "nonpayable",
      "type": "function"
    },
    {
      "inputs": [
        {
          "internalType": "address",
          "name": "user",
          "type": "address"
        },
        {
          "internalType": "uint256",
          "name": "tokenId",
          "type": "uint256"
        },
        {
          "internalType": "uint256",
          "name": "previousBalance",
          "type": "uint256"
        },
        {
          "internalType": "uint256",
          "name": "newBalance",
          "type": "uint256"
        }
      ],
      "name": "_handleUserTokenTransfers",
      "outputs": [],
      "stateMutability": "nonpayable",
      "type": "function"
    }
  ],
  "bytecode": "0x608060405260196001556101f4600255600060065534801561002057600080fd5b50604051610f2c380380610f2c833981810160405281019061004291906100ec565b80600560006101000a81548173ffffffffffffffffffffffffffffffffffffffff021916908373ffffffffffffffffffffffffffffffffffffffff16021790555050610119565b600080fd5b600073ffffffffffffffffffffffffffffffffffffffff82169050919050565b60006100b98261008e565b9050919050565b6100c9816100ae565b81146100d457600080fd5b50565b6000815190506100e6816100c0565b92915050565b60006020828403121561010257610101610089565b5b6000610110848285016100d7565b91505092915050565b610e04806101286000396000f3fe608060405234801561001057600080fd5b50600436106100885760003560e01c80638d2ae1f71161005b5780638d2ae1f714610120578063abb7ed7f1461013e578063acb314931461015a578063c4d66de81461017857610088565b8063117803e31461008d578063331a6bf5146100ab57806333e0ea2e146100c757806363e249c1146100e5575b600080fd5b610095610194565b6040516100a2919061083b565b60405180910390f35b6100c560048036038101906100c09190610887565b6101ba565b005b6100cf61028e565b6040516100dc91906108cd565b60405180910390f35b6100ff60048036038101906100fa9190610914565b610294565b6040516101179c9b9a9998979695949392919061095c565b60405180910390f35b610128610355565b604051610135919061083b565b60405180910390f35b61015860048036038101906101539190610a16565b61037b565b005b610162610574565b60405161016f919061083b565b60405180910390f35b610192600480360381019061018d9190610887565b61059a565b005b600560009054906101000a900473ffffffffffffffffffffffffffffffffffffffff1681565b600560009054906101000a900473ffffffffffffffffffffffffffffffffffffffff1673ffffffffffffffffffffffffffffffffffffffff163373ffffffffffffffffffffffffffffffffffffffff161461024a576040517f08c379a000000000000000000000000000000000000000000000000000000000815260040161024190610b00565b60405180910390fd5b80600560006101000a81548173ffffffffffffffffffffffffffffffffffffffff021916908373ffffffffffffffffffffffffffffffffffffffff16021790555050565b60025481565b60076020528060005260406000206000915090508060000160009054906101000a900473ffffffffffffffffffffffffffffffffffffffff16908060010154908060020154908060030154908060040154908060050154908060060154908060070160009054906101000a900460ff16908060070160019054906101000a900460ff16908060070160029054906101000a900460ff16908060070160039054906101000a900460ff16908060070160049054906101000a900460ff1690508c565b600460009054906101000a900473ffffffffffffffffffffffffffffffffffffffff1681565b6000600a60008673ffffffffffffffffffffffffffffffffffffffff1673ffffffffffffffffffffffffffffffffffffffff168152602001908152602001600020905060005b818054905081101561056c5760011515600760008484815481106103e8576103e7610b20565b5b9060005260206000200154815260200190815260200160002060070160009054906101000a900460ff16151514806104525750436007600084848154811061043357610432610b20565b5b9060005260206000200154815260200190815260200160002060060154105b156104f35781600183805490506104699190610b7e565b8154811061047a57610479610b20565b5b906000526020600020015482828154811061049857610497610b20565b5b9060005260206000200181905550818054806104b7576104b6610bb2565b5b6001900381819060005260206000200160009055905560008114156104df57600090506104ee565b80806104ea90610be1565b9150505b610559565b6007600083838154811061050a57610509610b20565b5b90600052602060002001548152602001908152602001600020600501548514156105585761055782828154811061054457610543610b20565b5b906000526020600020015487868661062d565b5b5b808061056490610c0b565b9150506103c1565b505050505050565b600360009054906101000a900473ffffffffffffffffffffffffffffffffffffffff1681565b600060019054906101000a900460ff166105e9576040517f08c379a00000000000000000000000000000000000000000000000000000000081526004016105e090610cc6565b60405180910390fd5b80600360006101000a81548173ffffffffffffffffffffffffffffffffffffffff021916908373ffffffffffffffffffffffffffffffffffffffff16021790555050565b600115156008600086815260200190815260200160002060008573ffffffffffffffffffffffffffffffffffffffff1673ffffffffffffffffffffffffffffffffffffffff16815260200190815260200160002060009054906101000a900460ff161515146106d1576040517f08c379a00000000000000000000000000000000000000000000000000000000081526004016106c890610d58565b60405180910390fd5b60006009600086815260200190815260200160002060008573ffffffffffffffffffffffffffffffffffffffff1673ffffffffffffffffffffffffffffffffffffffff16815260200190815260200160002060009054906101000a900460ff1690508015610798578260076000878152602001908152602001600020600101600082825461075f9190610b7e565b925050819055508160076000878152602001908152602001600020600101600082825461078c9190610d78565b925050819055506107f3565b826007600087815260200190815260200160002060030160008282546107be9190610b7e565b92505081905550816007600087815260200190815260200160002060030160008282546107eb9190610d78565b925050819055505b5050505050565b600073ffffffffffffffffffffffffffffffffffffffff82169050919050565b6000610825826107fa565b9050919050565b6108358161081a565b82525050565b6000602082019050610850600083018461082c565b92915050565b600080fd5b6108648161081a565b811461086f57600080fd5b50565b6000813590506108818161085b565b92915050565b60006020828403121561089d5761089c610856565b5b60006108ab84828501610872565b91505092915050565b6000819050919050565b6108c7816108b4565b82525050565b60006020820190506108e260008301846108be565b92915050565b6108f1816108b4565b81146108fc57600080fd5b50565b60008135905061090e816108e8565b92915050565b60006020828403121561092a57610929610856565b5b6000610938848285016108ff565b91505092915050565b60008115159050919050565b61095681610941565b82525050565b600061018082019050610972600083018f61082c565b61097f602083018e6108be565b61098c604083018d6108be565b610999606083018c6108be565b6109a6608083018b6108be565b6109b360a083018a6108be565b6109c060c08301896108be565b6109cd60e083018861094d565b6109db61010083018761094d565b6109e961012083018661094d565b6109f761014083018561094d565b610a0561016083018461094d565b9d9c50505050505050505050505050565b60008060008060808587031215610a3057610a2f610856565b5b6000610a3e87828801610872565b9450506020610a4f878288016108ff565b9350506040610a60878288016108ff565b9250506060610a71878288016108ff565b91505092959194509250565b600082825260208201905092915050565b7f554e415554484f52495a45443a2043414e4e4f545f504552464f524d5f41435460008201527f494f4e0000000000000000000000000000000000000000000000000000000000602082015250565b6000610aea602383610a7d565b9150610af582610a8e565b604082019050919050565b60006020820190508181036000830152610b1981610add565b9050919050565b7f4e487b7100000000000000000000000000000000000000000000000000000000600052603260045260246000fd5b7f4e487b7100000000000000000000000000000000000000000000000000000000600052601160045260246000fd5b6000610b89826108b4565b9150610b94836108b4565b925082821015610ba757610ba6610b4f565b5b828203905092915050565b7f4e487b7100000000000000000000000000000000000000000000000000000000600052603160045260246000fd5b6000610bec826108b4565b91506000821415610c0057610bff610b4f565b5b600182039050919050565b6000610c16826108b4565b91507fffffffffffffffffffffffffffffffffffffffffffffffffffffffffffffffff821415610c4957610c48610b4f565b5b600182019050919050565b7f496e697469616c697a61626c653a20636f6e7472616374206973206e6f74206960008201527f6e697469616c697a696e67000000000000000000000000000000000000000000602082015250565b6000610cb0602b83610a7d565b9150610cbb82610c54565b604082019050919050565b60006020820190508181036000830152610cdf81610ca3565b9050919050565b7f494e56414c49443a20494e5445524e414c3a20555345525f4841535f4e4f545f60008201527f564f544544000000000000000000000000000000000000000000000000000000602082015250565b6000610d42602583610a7d565b9150610d4d82610ce6565b604082019050919050565b60006020820190508181036000830152610d7181610d35565b9050919050565b6000610d83826108b4565b9150610d8e836108b4565b9250827fffffffffffffffffffffffffffffffffffffffffffffffffffffffffffffffff03821115610dc357610dc2610b4f565b5b82820190509291505056fea26469706673582212205a468f9ccb57a6b0259f4b2fc4a2608e6137a2265d35c52bc92d5dc35a1274ed64736f6c634300080c0033",
  "immutableReferences": {},
  "source": "// SPDX-License-Identifier: MIT\npragma solidity ^0.8.0;\n\nimport \"@openzeppelin/contracts/utils/math/SafeMath.sol\";\nimport \"@openzeppelin/contracts-upgradeable/proxy/utils/Initializable.sol\";\nimport \"../interface/ITreasury.sol\";\nimport \"../OrdersContract.sol\";\n\ncontract BaseVotingContract is Initializable {\n    /// @dev this is Contribution Create event this event will be emited when a new contribution is created.\n    /// @param owner This is the owner of the voting ballot\n    /// @param yesWeight This is the weightage of yes in the ballot\n    /// @param yesCount This is the count of yes in the ballot\n    /// @param noWeight This is the weightage of no in the ballot\n    /// @param noCount This is the count of no in the ballot\n    /// @param tokenId This is the token id using which the voting is done\n    /// @param votingEndBlock This is the block number till which the voting can be done for specific ballot\n    /// @param isResultDeclared This specifies if result is declared\n    /// @param canOwnerVote This specifies if a owner can vote or not\n    /// @param isPresent This is to check if a ballot of specific id is present or not\n    struct VotingBallot {\n        address owner;\n        uint256 yesWeight;\n        uint256 yesCount;\n        uint256 noWeight;\n        uint256 noCount;\n        uint256 tokenId;\n        uint256 votingEndBlock;\n        bool isResultDeclared;\n        bool canOwnerVote;\n        bool isPresent;\n        bool minTurnOut;\n        bool result;\n    }\n\n    uint256 VOTING_BLOCK_PERIOD = 25;\n    uint256 public MIN_TURNOUT_PERCENT = 500;\n    address public TREASURY_CONTRACT_ADDRESS;\n    address public TREASURY_HUB_ADDRESS;\n    address public OWNER;\n\n    uint256 votingId = 0;\n    mapping(uint256 => VotingBallot) public votingMap;\n    //This mapping tracks the state of user, that is if they have voted already or not.\n    // Ballot id => user address => bool\n    mapping(uint256 => mapping(address => bool)) alreadyVoted;\n    //This mapping is useful if the user has voted, as this hold if user voted yes or no for a specific ballot,\n    mapping(uint256 => mapping(address => bool)) userVotes;\n\n    //Active ballot list in which user have voted\n    // user address => List of ballot in which user has voted\n    mapping(address => uint256[]) userActiveVotedBallots;\n\n    constructor(address owner) {\n        OWNER = owner;\n    }\n\n    /// @dev This modifier checks if a ballot is open for voting or has the time expired\n    /// @param votingBallotId This is the id of the ballot which we are checking\n    /// @param voter This is the address of the voter for whom we are checking voting rights\n    modifier _checkIfBallotIsOpen(uint256 votingBallotId, address voter) {\n        require(\n            votingMap[votingBallotId].isPresent == true,\n            \"INVALID: BALLOT_NOT_FOUND\"\n        );\n\n        require(\n            votingMap[votingBallotId].votingEndBlock > block.number,\n            \"INVALID: VOTING_TIME_OVER\"\n        );\n\n        require(\n            alreadyVoted[votingBallotId][voter] == false,\n            \"INVALID: ALREADY_VOTED\"\n        );\n\n        _;\n    }\n\n    /// @dev Modifier to check that the person who accesses a specific function is the owner himself.\n    modifier _ownerOnly() {\n        require(msg.sender == OWNER, \"UNAUTHORIZED: CANNOT_PERFORM_ACTION\");\n        _;\n    }\n\n    /// @dev This modifier checks if a ballot is open for voting or has the time expired\n    /// @param votingBallotId This is the id of the ballot which we are checking\n    modifier _checkIfOwnerAllowed(uint256 votingBallotId) {\n        if (votingMap[votingBallotId].canOwnerVote) {\n            require(\n                alreadyVoted[votingBallotId][tx.origin] == false,\n                \"INVALID: ALREADY_VOTED\"\n            );\n        } else if (tx.origin == votingMap[votingBallotId].owner) {\n            revert(\"UNAUTHORIZED: OWNER_CANNOT_VOTE\");\n        }\n        _;\n    }\n\n    /// @dev This function sets the owner address\n    /// @param ownerAddress This is the address of the owner\n    function setOwnerAddress(address ownerAddress) public _ownerOnly {\n        OWNER = ownerAddress;\n    }\n\n    /// @dev This function is called by user to creata a new voting\n    /// @param canOwnerVote this is if a user can vote in a voting which he created\n    /// @param tokenId This is the id of the token using which voting can be done\n    function _createVoting(bool canOwnerVote, uint256 tokenId)\n        internal\n        returns (uint256)\n    {\n        votingId++;\n\n        VotingBallot memory voting = VotingBallot({\n            owner: tx.origin,\n            yesWeight: 0,\n            yesCount: 0,\n            noWeight: 0,\n            noCount: 0,\n            tokenId: tokenId,\n            votingEndBlock: block.number + VOTING_BLOCK_PERIOD,\n            isResultDeclared: false,\n            canOwnerVote: canOwnerVote,\n            isPresent: true,\n            minTurnOut: false,\n            result: false\n        });\n\n        votingMap[votingId] = voting;\n        return votingId;\n    }\n\n    /// @dev This function sets the treasury Contract address\n    /// @param newTreasuryContractAddress This is the new address of treasury contract\n    function initialize(address newTreasuryContractAddress)\n        public\n        virtual\n        onlyInitializing\n    {\n        TREASURY_CONTRACT_ADDRESS = newTreasuryContractAddress;\n    }\n\n    /// @dev This function sets the treasury Contract address\n    /// @param newOwnerAddress This is the address of new owner\n    function _setOwnerAddress(address newOwnerAddress)\n        internal\n        virtual\n        _ownerOnly\n    {\n        TREASURY_CONTRACT_ADDRESS = newOwnerAddress;\n    }\n\n    /// @dev This function is called by any user to cast vote\n    /// @param votingBallotId this is the id of the ballot for which user is voting\n    /// @param vote this is the state of the vote, if true than it means the vote is in favour of the ballot\n    function _castVote(uint256 votingBallotId, bool vote)\n        internal\n        virtual\n        _checkIfBallotIsOpen(votingBallotId, msg.sender)\n        _checkIfOwnerAllowed(votingBallotId)\n    {\n        _castVotePrivate(votingBallotId, vote, tx.origin);\n    }\n\n    /// @dev This function is called when the vote is casted on later stages such as in counter offer where the vote is\n    /// reviewed before hand by the user and then it is accepted by the user.\n    /// @param votingBallotId this is the id of the ballot for which user is voting\n    /// @param vote this is the state of the vote, if true than it means the vote is in favour of the ballot\n    function _castVoteForOther(\n        uint256 votingBallotId,\n        bool vote,\n        address voter\n    ) internal _checkIfBallotIsOpen(votingBallotId, voter) {\n        _castVotePrivate(votingBallotId, vote, voter);\n    }\n\n    /// @dev core logic for voting\n    /// @param votingBallotId this is the id of the ballot for which user is voting\n    /// @param vote this is the state of the vote, if true than it means the vote is in favour of the ballot\n    /// @param voter Voter's address\n    function _castVotePrivate(\n        uint256 votingBallotId,\n        bool vote,\n        address voter\n    ) private {\n        ITreasury treasuryContract = ITreasury(TREASURY_CONTRACT_ADDRESS);\n        VotingBallot memory votingBallot = votingMap[votingBallotId];\n        uint256 bal = treasuryContract.balanceOf(voter, votingBallot.tokenId);\n\n        if (vote) {\n            votingMap[votingBallotId].yesWeight += bal;\n            votingMap[votingBallotId].yesCount += 1;\n        } else {\n            votingMap[votingBallotId].noWeight += bal;\n            votingMap[votingBallotId].noCount += 1;\n        }\n\n        alreadyVoted[votingBallotId][voter] = true;\n        userVotes[votingBallotId][voter] = vote;\n        uint256[] storage list = userActiveVotedBallots[voter];\n        list.push(votingBallotId);\n    }\n\n    /// @dev core logic for voting\n    /// @param votingBallotId this is the id of the ballot for which user is voting\n    /// @param voter Voter's address\n    /// @param oldWeight Old weight of the voter\n    /// @param newWeight New weight of the voter\n    function _changeVoteWeight(\n        uint256 votingBallotId,\n        address voter,\n        uint256 oldWeight,\n        uint256 newWeight\n    ) private {\n        require(\n            alreadyVoted[votingBallotId][voter] == true,\n            \"INVALID: INTERNAL: USER_HAS_NOT_VOTED\"\n        );\n        bool vote = userVotes[votingBallotId][voter];\n        if (vote) {\n            votingMap[votingBallotId].yesWeight -= oldWeight;\n            votingMap[votingBallotId].yesWeight += newWeight;\n        } else {\n            votingMap[votingBallotId].noWeight -= oldWeight;\n            votingMap[votingBallotId].noWeight += newWeight;\n        }\n    }\n\n    /// @dev This function will be called when either user is transferring the tokens to other account,\n    /// or is receiving tokens from other tokens.\n    /// @param user address of the user whose balance is being changed\n    /// @param previousBalance this is the old balance of the user\n    /// @param newBalance this is the new balance of the user that is after the transfer\n    function _handleUserTokenTransfers(\n        address user,\n        uint256 tokenId,\n        uint256 previousBalance,\n        uint256 newBalance\n    ) public virtual {\n        uint256[] storage ballotList = userActiveVotedBallots[user];\n        for (uint256 i = 0; i < ballotList.length; i++) {\n            if (\n                votingMap[ballotList[i]].isResultDeclared == true ||\n                votingMap[ballotList[i]].votingEndBlock < block.number\n            ) {\n                // Deleting the ballot if result is declared\n                ballotList[i] = ballotList[ballotList.length - 1];\n                ballotList.pop();\n                if (i == 0) {\n                    i = 0;\n                } else {\n                    i--;\n                }\n            } else if (tokenId == votingMap[ballotList[i]].tokenId) {\n                // Changing the weighage of the votes of user\n                _changeVoteWeight(\n                    ballotList[i],\n                    user,\n                    previousBalance,\n                    newBalance\n                );\n            }\n        }\n    }\n\n    /// @dev This function is called by any user to cast vote\n    /// @param votingBallotId this is the id of the ballot for which we need to find the winner\n    function _declareWinner(uint256 votingBallotId)\n        internal\n        returns (bool isWinner, bool minTurnOut)\n    {\n        require(\n            votingMap[votingBallotId].isPresent == true,\n            \"INVALID: BALLOT_NOT_FOUND\"\n        );\n\n        require(\n            votingMap[votingBallotId].votingEndBlock < block.number,\n            \"INVALID: VOTING_TIME_OVER\"\n        );\n\n        require(\n            votingMap[votingBallotId].isResultDeclared == false,\n            \"INVALID: RESULT_ALREADY_DECLARED\"\n        );\n\n        VotingBallot storage votingBallot = votingMap[votingBallotId];\n        uint256 totalYes = votingBallot.yesWeight;\n        uint256 totalNo = votingBallot.noWeight;\n\n        // Currently to win you would need to around 66% of votes to be yes\n        ITreasury treasuryContract = ITreasury(TREASURY_CONTRACT_ADDRESS);\n\n        votingMap[votingBallotId].isResultDeclared = true;\n\n        uint256 totalCirculatingSupply = treasuryContract\n            .totalCirculatingSupply(votingBallot.tokenId);\n\n        uint256 minimumTurnOutAmount = ((totalCirculatingSupply *\n            MIN_TURNOUT_PERCENT) / 100) / 100;\n\n        if (totalNo + totalYes > minimumTurnOutAmount) {\n            if (totalYes > 0) {\n                //calculating the 2/3rd value of the votes that were casted to identify how much we will need to win\n                uint256 winAmount = ((totalYes + totalNo) * 66) / 100;\n                votingMap[votingBallotId].minTurnOut = true;\n\n                //This will check for 2 / 3 ratio for yes votes\n                if (totalYes > winAmount) {\n                    votingMap[votingBallotId].result = false;\n                    return (true, true);\n                } else {\n                    votingMap[votingBallotId].result = false;\n                    return (false, true);\n                }\n            } else {\n                votingMap[votingBallotId].result = false;\n                return (false, true);\n            }\n        } else {\n            votingMap[votingBallotId].minTurnOut = false;\n            votingMap[votingBallotId].result = false;\n            return (false, false);\n        }\n    }\n}\n",
  "sourcePath": "/Users/a1/Desktop/Office/projects/CrowdRecords/Contracts/contracts/voting/BaseVotingContract.sol",
  "compiler": {
    "name": "solc",
    "version": "0.8.12+commit.f00d7308.Emscripten.clang"
  },
  "schemaVersion": "3.4.6",
  "updatedAt": "2022-10-19T09:06:07.043Z",
  "devdoc": {
    "kind": "dev",
    "methods": {
      "_handleUserTokenTransfers(address,uint256,uint256,uint256)": {
        "details": "This function will be called when either user is transferring the tokens to other account, or is receiving tokens from other tokens.",
        "params": {
          "newBalance": "this is the new balance of the user that is after the transfer",
          "previousBalance": "this is the old balance of the user",
          "user": "address of the user whose balance is being changed"
        }
      },
      "initialize(address)": {
        "details": "This function sets the treasury Contract address",
        "params": {
          "newTreasuryContractAddress": "This is the new address of treasury contract"
        }
      },
      "setOwnerAddress(address)": {
        "details": "This function sets the owner address",
        "params": {
          "ownerAddress": "This is the address of the owner"
        }
      }
    },
    "version": 1
  },
  "userdoc": {
    "kind": "user",
    "methods": {},
    "version": 1
  }
}