{
  "contractName": "BaseVotingContractMock",
  "abi": [
    {
      "inputs": [
        {
          "internalType": "uint8",
          "name": "votingInterval",
          "type": "uint8"
        },
        {
          "internalType": "address",
          "name": "owner",
          "type": "address"
        }
      ],
      "stateMutability": "nonpayable",
      "type": "constructor"
    },
    {
      "anonymous": false,
      "inputs": [
        {
          "indexed": false,
          "internalType": "uint256",
          "name": "ballotId",
          "type": "uint256"
        },
        {
          "indexed": false,
          "internalType": "bool",
          "name": "result",
          "type": "bool"
        },
        {
          "indexed": false,
          "internalType": "bool",
          "name": "minTurnOut",
          "type": "bool"
        }
      ],
      "name": "BallotResult",
      "type": "event"
    },
    {
      "anonymous": false,
      "inputs": [
        {
          "indexed": false,
          "internalType": "uint8",
          "name": "version",
          "type": "uint8"
        }
      ],
      "name": "Initialized",
      "type": "event"
    },
    {
      "inputs": [],
      "name": "MIN_TURNOUT_PERCENT",
      "outputs": [
        {
          "internalType": "uint256",
          "name": "",
          "type": "uint256"
        }
      ],
      "stateMutability": "view",
      "type": "function"
    },
    {
      "inputs": [],
      "name": "OWNER",
      "outputs": [
        {
          "internalType": "address",
          "name": "",
          "type": "address"
        }
      ],
      "stateMutability": "view",
      "type": "function"
    },
    {
      "inputs": [],
      "name": "TREASURY_CONTRACT_ADDRESS",
      "outputs": [
        {
          "internalType": "address",
          "name": "",
          "type": "address"
        }
      ],
      "stateMutability": "view",
      "type": "function"
    },
    {
      "inputs": [],
      "name": "TREASURY_HUB_ADDRESS",
      "outputs": [
        {
          "internalType": "address",
          "name": "",
          "type": "address"
        }
      ],
      "stateMutability": "view",
      "type": "function"
    },
    {
      "inputs": [
        {
          "internalType": "address",
          "name": "user",
          "type": "address"
        },
        {
          "internalType": "uint256",
          "name": "tokenId",
          "type": "uint256"
        },
        {
          "internalType": "uint256",
          "name": "previousBalance",
          "type": "uint256"
        },
        {
          "internalType": "uint256",
          "name": "newBalance",
          "type": "uint256"
        }
      ],
      "name": "_handleUserTokenTransfers",
      "outputs": [],
      "stateMutability": "nonpayable",
      "type": "function"
    },
    {
      "inputs": [
        {
          "internalType": "address",
          "name": "ownerAddress",
          "type": "address"
        }
      ],
      "name": "setOwnerAddress",
      "outputs": [],
      "stateMutability": "nonpayable",
      "type": "function"
    },
    {
      "inputs": [
        {
          "internalType": "uint256",
          "name": "",
          "type": "uint256"
        }
      ],
      "name": "votingMap",
      "outputs": [
        {
          "internalType": "address",
          "name": "owner",
          "type": "address"
        },
        {
          "internalType": "uint256",
          "name": "yesWeight",
          "type": "uint256"
        },
        {
          "internalType": "uint256",
          "name": "yesCount",
          "type": "uint256"
        },
        {
          "internalType": "uint256",
          "name": "noWeight",
          "type": "uint256"
        },
        {
          "internalType": "uint256",
          "name": "noCount",
          "type": "uint256"
        },
        {
          "internalType": "uint256",
          "name": "tokenId",
          "type": "uint256"
        },
        {
          "internalType": "uint256",
          "name": "votingEndBlock",
          "type": "uint256"
        },
        {
          "internalType": "bool",
          "name": "isResultDeclared",
          "type": "bool"
        },
        {
          "internalType": "bool",
          "name": "canOwnerVote",
          "type": "bool"
        },
        {
          "internalType": "bool",
          "name": "isPresent",
          "type": "bool"
        },
        {
          "internalType": "bool",
          "name": "minTurnOut",
          "type": "bool"
        },
        {
          "internalType": "bool",
          "name": "result",
          "type": "bool"
        }
      ],
      "stateMutability": "view",
      "type": "function"
    },
    {
      "inputs": [
        {
          "internalType": "address",
          "name": "newTreasuryContractAddress",
          "type": "address"
        }
      ],
      "name": "initialize",
      "outputs": [],
      "stateMutability": "nonpayable",
      "type": "function"
    },
    {
      "inputs": [
        {
          "internalType": "bool",
          "name": "canOwnerVote",
          "type": "bool"
        },
        {
          "internalType": "uint256",
          "name": "tokenId",
          "type": "uint256"
        }
      ],
      "name": "createBallot",
      "outputs": [],
      "stateMutability": "nonpayable",
      "type": "function"
    },
    {
      "inputs": [
        {
          "internalType": "uint256",
          "name": "ballotId",
          "type": "uint256"
        },
        {
          "internalType": "bool",
          "name": "vote",
          "type": "bool"
        }
      ],
      "name": "castVote",
      "outputs": [],
      "stateMutability": "nonpayable",
      "type": "function"
    },
    {
      "inputs": [
        {
          "internalType": "uint256",
          "name": "ballotId",
          "type": "uint256"
        },
        {
          "internalType": "bool",
          "name": "vote",
          "type": "bool"
        },
        {
          "internalType": "address",
          "name": "voter",
          "type": "address"
        }
      ],
      "name": "castVoteForOther",
      "outputs": [],
      "stateMutability": "nonpayable",
      "type": "function"
    },
    {
      "inputs": [
        {
          "internalType": "uint256",
          "name": "ballotId",
          "type": "uint256"
        }
      ],
      "name": "declareWinner",
      "outputs": [],
      "stateMutability": "nonpayable",
      "type": "function"
    }
  ],
  "bytecode": "0x608060405260196001556101f460025560006006556001600b553480156200002657600080fd5b506040516200267c3803806200267c83398181016040528101906200004c919062000149565b8080600560006101000a81548173ffffffffffffffffffffffffffffffffffffffff021916908373ffffffffffffffffffffffffffffffffffffffff160217905550508160ff16600181905550505062000190565b600080fd5b600060ff82169050919050565b620000be81620000a6565b8114620000ca57600080fd5b50565b600081519050620000de81620000b3565b92915050565b600073ffffffffffffffffffffffffffffffffffffffff82169050919050565b60006200011182620000e4565b9050919050565b620001238162000104565b81146200012f57600080fd5b50565b600081519050620001438162000118565b92915050565b60008060408385031215620001635762000162620000a1565b5b60006200017385828601620000cd565b9250506020620001868582860162000132565b9150509250929050565b6124dc80620001a06000396000f3fe608060405234801561001057600080fd5b50600436106100b35760003560e01c80636dce8664116100715780636dce86641461018357806382f61de51461019f5780638d2ae1f7146101bb578063abb7ed7f146101d9578063acb31493146101f5578063c4d66de814610213576100b3565b8062c2943c146100b8578063117803e3146100d457806315373e3d146100f2578063331a6bf51461010e57806333e0ea2e1461012a57806363e249c114610148575b600080fd5b6100d260048036038101906100cd9190611997565b61022f565b005b6100dc61027f565b6040516100e99190611a05565b60405180910390f35b61010c60048036038101906101079190611a58565b6102a5565b005b61012860048036038101906101239190611ac4565b6102b3565b005b610132610387565b60405161013f9190611b00565b60405180910390f35b610162600480360381019061015d9190611997565b61038d565b60405161017a9c9b9a99989796959493929190611b2a565b60405180910390f35b61019d60048036038101906101989190611be4565b61044e565b005b6101b960048036038101906101b49190611c24565b61045d565b005b6101c361046d565b6040516101d09190611a05565b60405180910390f35b6101f360048036038101906101ee9190611c77565b610493565b005b6101fd61068c565b60405161020a9190611a05565b60405180910390f35b61022d60048036038101906102289190611ac4565b6106b2565b005b60008061023b83610882565b915091507f1f6972cf5ca4c61f97e167c7304bc893a078a7ae23020018f03bfcdd947e755e83838360405161027293929190611cde565b60405180910390a1505050565b600560009054906101000a900473ffffffffffffffffffffffffffffffffffffffff1681565b6102af8282610c8e565b5050565b600560009054906101000a900473ffffffffffffffffffffffffffffffffffffffff1673ffffffffffffffffffffffffffffffffffffffff163373ffffffffffffffffffffffffffffffffffffffff1614610343576040517f08c379a000000000000000000000000000000000000000000000000000000000815260040161033a90611d98565b60405180910390fd5b80600560006101000a81548173ffffffffffffffffffffffffffffffffffffffff021916908373ffffffffffffffffffffffffffffffffffffffff16021790555050565b60025481565b60076020528060005260406000206000915090508060000160009054906101000a900473ffffffffffffffffffffffffffffffffffffffff16908060010154908060020154908060030154908060040154908060050154908060060154908060070160009054906101000a900460ff16908060070160019054906101000a900460ff16908060070160029054906101000a900460ff16908060070160039054906101000a900460ff16908060070160049054906101000a900460ff1690508c565b6104588282610f81565b505050565b610468838383611172565b505050565b600460009054906101000a900473ffffffffffffffffffffffffffffffffffffffff1681565b6000600a60008673ffffffffffffffffffffffffffffffffffffffff1673ffffffffffffffffffffffffffffffffffffffff168152602001908152602001600020905060005b8180549050811015610684576001151560076000848481548110610500576104ff611db8565b5b9060005260206000200154815260200190815260200160002060070160009054906101000a900460ff161515148061056a5750436007600084848154811061054b5761054a611db8565b5b9060005260206000200154815260200190815260200160002060060154105b1561060b5781600183805490506105819190611e16565b8154811061059257610591611db8565b5b90600052602060002001548282815481106105b0576105af611db8565b5b9060005260206000200181905550818054806105cf576105ce611e4a565b5b6001900381819060005260206000200160009055905560008114156105f75760009050610606565b808061060290611e79565b9150505b610671565b6007600083838154811061062257610621611db8565b5b90600052602060002001548152602001908152602001600020600501548514156106705761066f82828154811061065c5761065b611db8565b5b90600052602060002001548786866112ec565b5b5b808061067c90611ea3565b9150506104d9565b505050505050565b600360009054906101000a900473ffffffffffffffffffffffffffffffffffffffff1681565b60008060019054906101000a900460ff161590508080156106e35750600160008054906101000a900460ff1660ff16105b8061071057506106f2306114b9565b15801561070f5750600160008054906101000a900460ff1660ff16145b5b61074f576040517f08c379a000000000000000000000000000000000000000000000000000000000815260040161074690611f5e565b60405180910390fd5b60016000806101000a81548160ff021916908360ff160217905550801561078c576001600060016101000a81548160ff0219169083151502179055505b600560009054906101000a900473ffffffffffffffffffffffffffffffffffffffff1673ffffffffffffffffffffffffffffffffffffffff163373ffffffffffffffffffffffffffffffffffffffff161461081c576040517f08c379a000000000000000000000000000000000000000000000000000000000815260040161081390611d98565b60405180910390fd5b610825826114dc565b801561087e5760008060016101000a81548160ff0219169083151502179055507f7f26b83ff96e1f2b6a682f133852f6798a09c465da95921460cefb384740249860016040516108759190611fd0565b60405180910390a15b5050565b600080600115156007600085815260200190815260200160002060070160029054906101000a900460ff161515146108ef576040517f08c379a00000000000000000000000000000000000000000000000000000000081526004016108e690612037565b60405180910390fd5b43600760008581526020019081526020016000206006015410610947576040517f08c379a000000000000000000000000000000000000000000000000000000000815260040161093e906120a3565b60405180910390fd5b600015156007600085815260200190815260200160002060070160009054906101000a900460ff161515146109b1576040517f08c379a00000000000000000000000000000000000000000000000000000000081526004016109a89061210f565b60405180910390fd5b60006007600085815260200190815260200160002090506000816001015490506000826003015490506000600360009054906101000a900473ffffffffffffffffffffffffffffffffffffffff16905060016007600089815260200190815260200160002060070160006101000a81548160ff02191690831515021790555060008173ffffffffffffffffffffffffffffffffffffffff1663036c22ad86600501546040518263ffffffff1660e01b8152600401610a6f9190611b00565b602060405180830381865afa158015610a8c573d6000803e3d6000fd5b505050506040513d601f19601f82011682018060405250810190610ab09190612144565b9050600060648060025484610ac59190612171565b610acf91906121fa565b610ad991906121fa565b9050808585610ae8919061222b565b1115610c1d576000851115610bdb576000606460428688610b09919061222b565b610b139190612171565b610b1d91906121fa565b90506001600760008c815260200190815260200160002060070160036101000a81548160ff02191690831515021790555080861115610b98576000600760008c815260200190815260200160002060070160046101000a81548160ff0219169083151502179055506001809850985050505050505050610c89565b6000600760008c815260200190815260200160002060070160046101000a81548160ff021916908315150217905550600060019850985050505050505050610c89565b6000600760008b815260200190815260200160002060070160046101000a81548160ff0219169083151502179055506000600197509750505050505050610c89565b6000600760008b815260200190815260200160002060070160036101000a81548160ff0219169083151502179055506000600760008b815260200190815260200160002060070160046101000a81548160ff021916908315150217905550600080975097505050505050505b915091565b8133600115156007600084815260200190815260200160002060070160029054906101000a900460ff16151514610cfa576040517f08c379a0000000000000000000000000000000000000000000000000000000008152600401610cf190612037565b60405180910390fd5b43600760008481526020019081526020016000206006015411610d52576040517f08c379a0000000000000000000000000000000000000000000000000000000008152600401610d49906120a3565b60405180910390fd5b600015156008600084815260200190815260200160002060008373ffffffffffffffffffffffffffffffffffffffff1673ffffffffffffffffffffffffffffffffffffffff16815260200190815260200160002060009054906101000a900460ff16151514610df6576040517f08c379a0000000000000000000000000000000000000000000000000000000008152600401610ded906122cd565b60405180910390fd5b836007600082815260200190815260200160002060070160019054906101000a900460ff1615610ec957600015156008600083815260200190815260200160002060003273ffffffffffffffffffffffffffffffffffffffff1673ffffffffffffffffffffffffffffffffffffffff16815260200190815260200160002060009054906101000a900460ff16151514610ec4576040517f08c379a0000000000000000000000000000000000000000000000000000000008152600401610ebb906122cd565b60405180910390fd5b610f6f565b6007600082815260200190815260200160002060000160009054906101000a900473ffffffffffffffffffffffffffffffffffffffff1673ffffffffffffffffffffffffffffffffffffffff163273ffffffffffffffffffffffffffffffffffffffff161415610f6e576040517f08c379a0000000000000000000000000000000000000000000000000000000008152600401610f6590612339565b60405180910390fd5b5b610f7a85853261156f565b5050505050565b600060066000815480929190610f9690611ea3565b919050555060006040518061018001604052803273ffffffffffffffffffffffffffffffffffffffff1681526020016000815260200160008152602001600081526020016000815260200184815260200160015443610ff5919061222b565b815260200160001515815260200185151581526020016001151581526020016000151581526020016000151581525090508060076000600654815260200190815260200160002060008201518160000160006101000a81548173ffffffffffffffffffffffffffffffffffffffff021916908373ffffffffffffffffffffffffffffffffffffffff1602179055506020820151816001015560408201518160020155606082015181600301556080820151816004015560a0820151816005015560c0820151816006015560e08201518160070160006101000a81548160ff0219169083151502179055506101008201518160070160016101000a81548160ff0219169083151502179055506101208201518160070160026101000a81548160ff0219169083151502179055506101408201518160070160036101000a81548160ff0219169083151502179055506101608201518160070160046101000a81548160ff02191690831515021790555090505060065491505092915050565b8281600115156007600084815260200190815260200160002060070160029054906101000a900460ff161515146111de576040517f08c379a00000000000000000000000000000000000000000000000000000000081526004016111d590612037565b60405180910390fd5b43600760008481526020019081526020016000206006015411611236576040517f08c379a000000000000000000000000000000000000000000000000000000000815260040161122d906120a3565b60405180910390fd5b600015156008600084815260200190815260200160002060008373ffffffffffffffffffffffffffffffffffffffff1673ffffffffffffffffffffffffffffffffffffffff16815260200190815260200160002060009054906101000a900460ff161515146112da576040517f08c379a00000000000000000000000000000000000000000000000000000000081526004016112d1906122cd565b60405180910390fd5b6112e585858561156f565b5050505050565b600115156008600086815260200190815260200160002060008573ffffffffffffffffffffffffffffffffffffffff1673ffffffffffffffffffffffffffffffffffffffff16815260200190815260200160002060009054906101000a900460ff16151514611390576040517f08c379a0000000000000000000000000000000000000000000000000000000008152600401611387906123cb565b60405180910390fd5b60006009600086815260200190815260200160002060008573ffffffffffffffffffffffffffffffffffffffff1673ffffffffffffffffffffffffffffffffffffffff16815260200190815260200160002060009054906101000a900460ff1690508015611457578260076000878152602001908152602001600020600101600082825461141e9190611e16565b925050819055508160076000878152602001908152602001600020600101600082825461144b919061222b565b925050819055506114b2565b8260076000878152602001908152602001600020600301600082825461147d9190611e16565b92505081905550816007600087815260200190815260200160002060030160008282546114aa919061222b565b925050819055505b5050505050565b6000808273ffffffffffffffffffffffffffffffffffffffff163b119050919050565b600060019054906101000a900460ff1661152b576040517f08c379a00000000000000000000000000000000000000000000000000000000081526004016115229061245d565b60405180910390fd5b80600360006101000a81548173ffffffffffffffffffffffffffffffffffffffff021916908373ffffffffffffffffffffffffffffffffffffffff16021790555050565b6000600360009054906101000a900473ffffffffffffffffffffffffffffffffffffffff169050600060076000868152602001908152602001600020604051806101800160405290816000820160009054906101000a900473ffffffffffffffffffffffffffffffffffffffff1673ffffffffffffffffffffffffffffffffffffffff1673ffffffffffffffffffffffffffffffffffffffff1681526020016001820154815260200160028201548152602001600382015481526020016004820154815260200160058201548152602001600682015481526020016007820160009054906101000a900460ff161515151581526020016007820160019054906101000a900460ff161515151581526020016007820160029054906101000a900460ff161515151581526020016007820160039054906101000a900460ff161515151581526020016007820160049054906101000a900460ff161515151581525050905060008273ffffffffffffffffffffffffffffffffffffffff1662fdd58e858460a001516040518363ffffffff1660e01b815260040161171292919061247d565b602060405180830381865afa15801561172f573d6000803e3d6000fd5b505050506040513d601f19601f820116820180604052508101906117539190612144565b905084156117bb5780600760008881526020019081526020016000206001016000828254611781919061222b565b9250508190555060016007600088815260200190815260200160002060020160008282546117af919061222b565b92505081905550611817565b806007600088815260200190815260200160002060030160008282546117e1919061222b565b92505081905550600160076000888152602001908152602001600020600401600082825461180f919061222b565b925050819055505b60016008600088815260200190815260200160002060008673ffffffffffffffffffffffffffffffffffffffff1673ffffffffffffffffffffffffffffffffffffffff16815260200190815260200160002060006101000a81548160ff021916908315150217905550846009600088815260200190815260200160002060008673ffffffffffffffffffffffffffffffffffffffff1673ffffffffffffffffffffffffffffffffffffffff16815260200190815260200160002060006101000a81548160ff0219169083151502179055506000600a60008673ffffffffffffffffffffffffffffffffffffffff1673ffffffffffffffffffffffffffffffffffffffff16815260200190815260200160002090508087908060018154018082558091505060019003906000526020600020016000909190919091505550505050505050565b600080fd5b6000819050919050565b61197481611961565b811461197f57600080fd5b50565b6000813590506119918161196b565b92915050565b6000602082840312156119ad576119ac61195c565b5b60006119bb84828501611982565b91505092915050565b600073ffffffffffffffffffffffffffffffffffffffff82169050919050565b60006119ef826119c4565b9050919050565b6119ff816119e4565b82525050565b6000602082019050611a1a60008301846119f6565b92915050565b60008115159050919050565b611a3581611a20565b8114611a4057600080fd5b50565b600081359050611a5281611a2c565b92915050565b60008060408385031215611a6f57611a6e61195c565b5b6000611a7d85828601611982565b9250506020611a8e85828601611a43565b9150509250929050565b611aa1816119e4565b8114611aac57600080fd5b50565b600081359050611abe81611a98565b92915050565b600060208284031215611ada57611ad961195c565b5b6000611ae884828501611aaf565b91505092915050565b611afa81611961565b82525050565b6000602082019050611b156000830184611af1565b92915050565b611b2481611a20565b82525050565b600061018082019050611b40600083018f6119f6565b611b4d602083018e611af1565b611b5a604083018d611af1565b611b67606083018c611af1565b611b74608083018b611af1565b611b8160a083018a611af1565b611b8e60c0830189611af1565b611b9b60e0830188611b1b565b611ba9610100830187611b1b565b611bb7610120830186611b1b565b611bc5610140830185611b1b565b611bd3610160830184611b1b565b9d9c50505050505050505050505050565b60008060408385031215611bfb57611bfa61195c565b5b6000611c0985828601611a43565b9250506020611c1a85828601611982565b9150509250929050565b600080600060608486031215611c3d57611c3c61195c565b5b6000611c4b86828701611982565b9350506020611c5c86828701611a43565b9250506040611c6d86828701611aaf565b9150509250925092565b60008060008060808587031215611c9157611c9061195c565b5b6000611c9f87828801611aaf565b9450506020611cb087828801611982565b9350506040611cc187828801611982565b9250506060611cd287828801611982565b91505092959194509250565b6000606082019050611cf36000830186611af1565b611d006020830185611b1b565b611d0d6040830184611b1b565b949350505050565b600082825260208201905092915050565b7f554e415554484f52495a45443a2043414e4e4f545f504552464f524d5f41435460008201527f494f4e0000000000000000000000000000000000000000000000000000000000602082015250565b6000611d82602383611d15565b9150611d8d82611d26565b604082019050919050565b60006020820190508181036000830152611db181611d75565b9050919050565b7f4e487b7100000000000000000000000000000000000000000000000000000000600052603260045260246000fd5b7f4e487b7100000000000000000000000000000000000000000000000000000000600052601160045260246000fd5b6000611e2182611961565b9150611e2c83611961565b925082821015611e3f57611e3e611de7565b5b828203905092915050565b7f4e487b7100000000000000000000000000000000000000000000000000000000600052603160045260246000fd5b6000611e8482611961565b91506000821415611e9857611e97611de7565b5b600182039050919050565b6000611eae82611961565b91507fffffffffffffffffffffffffffffffffffffffffffffffffffffffffffffffff821415611ee157611ee0611de7565b5b600182019050919050565b7f496e697469616c697a61626c653a20636f6e747261637420697320616c72656160008201527f647920696e697469616c697a6564000000000000000000000000000000000000602082015250565b6000611f48602e83611d15565b9150611f5382611eec565b604082019050919050565b60006020820190508181036000830152611f7781611f3b565b9050919050565b6000819050919050565b600060ff82169050919050565b6000819050919050565b6000611fba611fb5611fb084611f7e565b611f95565b611f88565b9050919050565b611fca81611f9f565b82525050565b6000602082019050611fe56000830184611fc1565b92915050565b7f494e56414c49443a2042414c4c4f545f4e4f545f464f554e4400000000000000600082015250565b6000612021601983611d15565b915061202c82611feb565b602082019050919050565b6000602082019050818103600083015261205081612014565b9050919050565b7f494e56414c49443a20564f54494e475f54494d455f4f56455200000000000000600082015250565b600061208d601983611d15565b915061209882612057565b602082019050919050565b600060208201905081810360008301526120bc81612080565b9050919050565b7f494e56414c49443a20524553554c545f414c52454144595f4445434c41524544600082015250565b60006120f9602083611d15565b9150612104826120c3565b602082019050919050565b60006020820190508181036000830152612128816120ec565b9050919050565b60008151905061213e8161196b565b92915050565b60006020828403121561215a5761215961195c565b5b60006121688482850161212f565b91505092915050565b600061217c82611961565b915061218783611961565b9250817fffffffffffffffffffffffffffffffffffffffffffffffffffffffffffffffff04831182151516156121c0576121bf611de7565b5b828202905092915050565b7f4e487b7100000000000000000000000000000000000000000000000000000000600052601260045260246000fd5b600061220582611961565b915061221083611961565b9250826122205761221f6121cb565b5b828204905092915050565b600061223682611961565b915061224183611961565b9250827fffffffffffffffffffffffffffffffffffffffffffffffffffffffffffffffff0382111561227657612275611de7565b5b828201905092915050565b7f494e56414c49443a20414c52454144595f564f54454400000000000000000000600082015250565b60006122b7601683611d15565b91506122c282612281565b602082019050919050565b600060208201905081810360008301526122e6816122aa565b9050919050565b7f554e415554484f52495a45443a204f574e45525f43414e4e4f545f564f544500600082015250565b6000612323601f83611d15565b915061232e826122ed565b602082019050919050565b6000602082019050818103600083015261235281612316565b9050919050565b7f494e56414c49443a20494e5445524e414c3a20555345525f4841535f4e4f545f60008201527f564f544544000000000000000000000000000000000000000000000000000000602082015250565b60006123b5602583611d15565b91506123c082612359565b604082019050919050565b600060208201905081810360008301526123e4816123a8565b9050919050565b7f496e697469616c697a61626c653a20636f6e7472616374206973206e6f74206960008201527f6e697469616c697a696e67000000000000000000000000000000000000000000602082015250565b6000612447602b83611d15565b9150612452826123eb565b604082019050919050565b600060208201905081810360008301526124768161243a565b9050919050565b600060408201905061249260008301856119f6565b61249f6020830184611af1565b939250505056fea2646970667358221220c97bc8a95e55f1f2dfb16cfeb1e15100916f9c83700edc05c5df3621afb3b6e164736f6c634300080c0033",
  "immutableReferences": {},
  "source": "// SPDX-License-Identifier: MIT\n\npragma solidity ^0.8.0;\n\nimport \"../voting/BaseVotingContract.sol\";\n\ncontract BaseVotingContractMock is BaseVotingContract {\n    uint256 private LastTokenId = 1;\n\n    /// @dev this event is generated when result of a ballot is declared\n    /// @param ballotId this is the ballot Id for which result is declared\n    /// @param result this is the status of the result either true if user won that is he received\n    /// @param minTurnOut this status indicates if minimum amount of user showed up for voting\n    /// more than 66% of votes or false if user lost\n    event BallotResult(uint256 ballotId, bool result, bool minTurnOut);\n\n    constructor(uint8 votingInterval, address owner) BaseVotingContract(owner) {\n        VOTING_BLOCK_PERIOD = votingInterval;\n    }\n\n    /// @dev This is to set the address of the contracts\n    /// @param newTreasuryContractAddress This is the address of new treasury contract\n    function initialize(address newTreasuryContractAddress)\n        public\n        override\n        initializer\n        _ownerOnly\n    {\n        BaseVotingContract.initialize(newTreasuryContractAddress);\n    }\n\n    function createBallot(bool canOwnerVote, uint256 tokenId) public {\n        _createVoting(canOwnerVote, tokenId);\n    }\n\n    function castVote(uint256 ballotId, bool vote) public {\n        _castVote(ballotId, vote);\n    }\n\n    function castVoteForOther(\n        uint256 ballotId,\n        bool vote,\n        address voter\n    ) public {\n        _castVoteForOther(ballotId, vote, voter);\n    }\n\n    function declareWinner(uint256 ballotId) public {\n        (bool result, bool minTurnOut) = _declareWinner(ballotId);\n        emit BallotResult(ballotId, result, minTurnOut);\n    }\n}\n",
  "sourcePath": "/Users/a1/Desktop/Office/projects/CrowdRecords/Contracts/contracts/Mocks/BaseVotingContractMock.sol",
  "compiler": {
    "name": "solc",
    "version": "0.8.12+commit.f00d7308.Emscripten.clang"
  },
  "schemaVersion": "3.4.6",
  "updatedAt": "2022-10-19T09:06:06.706Z",
  "devdoc": {
    "events": {
      "BallotResult(uint256,bool,bool)": {
        "details": "this event is generated when result of a ballot is declared",
        "params": {
          "ballotId": "this is the ballot Id for which result is declared",
          "minTurnOut": "this status indicates if minimum amount of user showed up for voting more than 66% of votes or false if user lost",
          "result": "this is the status of the result either true if user won that is he received"
        }
      }
    },
    "kind": "dev",
    "methods": {
      "_handleUserTokenTransfers(address,uint256,uint256,uint256)": {
        "details": "This function will be called when either user is transferring the tokens to other account, or is receiving tokens from other tokens.",
        "params": {
          "newBalance": "this is the new balance of the user that is after the transfer",
          "previousBalance": "this is the old balance of the user",
          "user": "address of the user whose balance is being changed"
        }
      },
      "initialize(address)": {
        "details": "This is to set the address of the contracts",
        "params": {
          "newTreasuryContractAddress": "This is the address of new treasury contract"
        }
      },
      "setOwnerAddress(address)": {
        "details": "This function sets the owner address",
        "params": {
          "ownerAddress": "This is the address of the owner"
        }
      }
    },
    "version": 1
  },
  "userdoc": {
    "kind": "user",
    "methods": {},
    "version": 1
  }
}