{
  "contractName": "BaseVotingContractMock",
  "abi": [
    {
      "inputs": [
        {
          "internalType": "uint8",
          "name": "votingInterval",
          "type": "uint8"
        },
        {
          "internalType": "address",
          "name": "owner",
          "type": "address"
        }
      ],
      "stateMutability": "nonpayable",
      "type": "constructor"
    },
    {
      "anonymous": false,
      "inputs": [
        {
          "indexed": false,
          "internalType": "uint256",
          "name": "ballotId",
          "type": "uint256"
        },
        {
          "indexed": false,
          "internalType": "bool",
          "name": "result",
          "type": "bool"
        }
      ],
      "name": "BallotResult",
      "type": "event"
    },
    {
      "inputs": [],
      "name": "OWNER",
      "outputs": [
        {
          "internalType": "address",
          "name": "",
          "type": "address"
        }
      ],
      "stateMutability": "view",
      "type": "function",
      "constant": true
    },
    {
      "inputs": [],
      "name": "TREASURY_CONTRACT_ADDRESS",
      "outputs": [
        {
          "internalType": "address",
          "name": "",
          "type": "address"
        }
      ],
      "stateMutability": "view",
      "type": "function",
      "constant": true
    },
    {
      "inputs": [],
      "name": "TREASURY_HUB_ADDRESS",
      "outputs": [
        {
          "internalType": "address",
          "name": "",
          "type": "address"
        }
      ],
      "stateMutability": "view",
      "type": "function",
      "constant": true
    },
    {
      "inputs": [
        {
          "internalType": "address",
          "name": "user",
          "type": "address"
        },
        {
          "internalType": "uint256",
          "name": "tokenId",
          "type": "uint256"
        },
        {
          "internalType": "uint256",
          "name": "previousBalance",
          "type": "uint256"
        },
        {
          "internalType": "uint256",
          "name": "newBalance",
          "type": "uint256"
        }
      ],
      "name": "_handleUserTokenTransfers",
      "outputs": [],
      "stateMutability": "nonpayable",
      "type": "function"
    },
    {
      "inputs": [
        {
          "internalType": "address",
          "name": "ownerAddress",
          "type": "address"
        }
      ],
      "name": "setOwnerAddress",
      "outputs": [],
      "stateMutability": "nonpayable",
      "type": "function"
    },
    {
      "inputs": [
        {
          "internalType": "address",
          "name": "newTreasuryContractAddress",
          "type": "address"
        }
      ],
      "name": "setTreasuryContractAddress",
      "outputs": [],
      "stateMutability": "nonpayable",
      "type": "function"
    },
    {
      "inputs": [
        {
          "internalType": "bool",
          "name": "canOwnerVote",
          "type": "bool"
        },
        {
          "internalType": "uint256",
          "name": "tokenId",
          "type": "uint256"
        }
      ],
      "name": "createBallot",
      "outputs": [],
      "stateMutability": "nonpayable",
      "type": "function"
    },
    {
      "inputs": [
        {
          "internalType": "uint256",
          "name": "ballotId",
          "type": "uint256"
        },
        {
          "internalType": "bool",
          "name": "vote",
          "type": "bool"
        }
      ],
      "name": "castVote",
      "outputs": [],
      "stateMutability": "nonpayable",
      "type": "function"
    },
    {
      "inputs": [
        {
          "internalType": "uint256",
          "name": "ballotId",
          "type": "uint256"
        },
        {
          "internalType": "bool",
          "name": "vote",
          "type": "bool"
        },
        {
          "internalType": "address",
          "name": "voter",
          "type": "address"
        }
      ],
      "name": "castVoteForOther",
      "outputs": [],
      "stateMutability": "nonpayable",
      "type": "function"
    },
    {
      "inputs": [
        {
          "internalType": "uint256",
          "name": "ballotId",
          "type": "uint256"
        }
      ],
      "name": "declareWinner",
      "outputs": [],
      "stateMutability": "nonpayable",
      "type": "function"
    }
  ],
  "bytecode": "0x60806040526019600055600060045560016009553480156200002057600080fd5b5060405162001fb238038062001fb2833981810160405281019062000046919062000143565b8080600360006101000a81548173ffffffffffffffffffffffffffffffffffffffff021916908373ffffffffffffffffffffffffffffffffffffffff160217905550508160ff1660008190555050506200018a565b600080fd5b600060ff82169050919050565b620000b881620000a0565b8114620000c457600080fd5b50565b600081519050620000d881620000ad565b92915050565b600073ffffffffffffffffffffffffffffffffffffffff82169050919050565b60006200010b82620000de565b9050919050565b6200011d81620000fe565b81146200012957600080fd5b50565b6000815190506200013d8162000112565b92915050565b600080604083850312156200015d576200015c6200009b565b5b60006200016d85828601620000c7565b925050602062000180858286016200012c565b9150509250929050565b611e18806200019a6000396000f3fe608060405234801561001057600080fd5b506004361061009d5760003560e01c80636dce8664116100665780636dce86641461013057806382f61de51461014c5780638d2ae1f714610168578063abb7ed7f14610186578063acb31493146101a25761009d565b8062c2943c146100a2578063117803e3146100be57806315373e3d146100dc578063331a6bf5146100f85780634cf2d48f14610114575b600080fd5b6100bc60048036038101906100b7919061152c565b6101c0565b005b6100c661020a565b6040516100d3919061159a565b60405180910390f35b6100f660048036038101906100f191906115ed565b610230565b005b610112600480360381019061010d9190611659565b61023e565b005b61012e60048036038101906101299190611659565b610312565b005b61014a60048036038101906101459190611686565b6103ae565b005b610166600480360381019061016191906116c6565b6103bd565b005b6101706103cd565b60405161017d919061159a565b60405180910390f35b6101a0600480360381019061019b9190611719565b6103f3565b005b6101aa6105ec565b6040516101b7919061159a565b60405180910390f35b60006101cb82610612565b90507f53d10fab88267d8231908eb87e8f64a19ceecd01180ef034a610f9b35783ba5382826040516101fe92919061179e565b60405180910390a15050565b600360009054906101000a900473ffffffffffffffffffffffffffffffffffffffff1681565b61023a828261088f565b5050565b600360009054906101000a900473ffffffffffffffffffffffffffffffffffffffff1673ffffffffffffffffffffffffffffffffffffffff163373ffffffffffffffffffffffffffffffffffffffff16146102ce576040517f08c379a00000000000000000000000000000000000000000000000000000000081526004016102c59061184a565b60405180910390fd5b80600360006101000a81548173ffffffffffffffffffffffffffffffffffffffff021916908373ffffffffffffffffffffffffffffffffffffffff16021790555050565b600360009054906101000a900473ffffffffffffffffffffffffffffffffffffffff1673ffffffffffffffffffffffffffffffffffffffff163373ffffffffffffffffffffffffffffffffffffffff16146103a2576040517f08c379a00000000000000000000000000000000000000000000000000000000081526004016103999061184a565b60405180910390fd5b6103ab81610b82565b50565b6103b88282610c56565b505050565b6103c8838383610df3565b505050565b600260009054906101000a900473ffffffffffffffffffffffffffffffffffffffff1681565b6000600860008673ffffffffffffffffffffffffffffffffffffffff1673ffffffffffffffffffffffffffffffffffffffff168152602001908152602001600020905060005b81805490508110156105e45760011515600560008484815481106104605761045f61186a565b5b9060005260206000200154815260200190815260200160002060070160009054906101000a900460ff16151514806104ca575043600560008484815481106104ab576104aa61186a565b5b9060005260206000200154815260200190815260200160002060060154105b1561056b5781600183805490506104e191906118c8565b815481106104f2576104f161186a565b5b90600052602060002001548282815481106105105761050f61186a565b5b90600052602060002001819055508180548061052f5761052e6118fc565b5b6001900381819060005260206000200160009055905560008114156105575760009050610566565b80806105629061192b565b9150505b6105d1565b600560008383815481106105825761058161186a565b5b90600052602060002001548152602001908152602001600020600501548514156105d0576105cf8282815481106105bc576105bb61186a565b5b9060005260206000200154878686610f6d565b5b5b80806105dc90611955565b915050610439565b505050505050565b600160009054906101000a900473ffffffffffffffffffffffffffffffffffffffff1681565b6000600115156005600084815260200190815260200160002060070160029054906101000a900460ff1615151461067e576040517f08c379a0000000000000000000000000000000000000000000000000000000008152600401610675906119ea565b60405180910390fd5b436005600084815260200190815260200160002060060154106106d6576040517f08c379a00000000000000000000000000000000000000000000000000000000081526004016106cd90611a56565b60405180910390fd5b600015156005600084815260200190815260200160002060070160009054906101000a900460ff16151514610740576040517f08c379a000000000000000000000000000000000000000000000000000000000815260040161073790611ac2565b60405180910390fd5b60006005600084815260200190815260200160002090506000816001015490506000600160009054906101000a900473ffffffffffffffffffffffffffffffffffffffff16905060016005600087815260200190815260200160002060070160006101000a81548160ff02191690831515021790555060008211156108825760008173ffffffffffffffffffffffffffffffffffffffff1663036c22ad85600501546040518263ffffffff1660e01b81526004016107fe9190611ae2565b602060405180830381865afa15801561081b573d6000803e3d6000fd5b505050506040513d601f19601f8201168201806040525081019061083f9190611b12565b9050600060646042836108529190611b3f565b61085c9190611bc8565b9050808411156108745760019550505050505061088a565b60009550505050505061088a565b600093505050505b919050565b8133600115156005600084815260200190815260200160002060070160029054906101000a900460ff161515146108fb576040517f08c379a00000000000000000000000000000000000000000000000000000000081526004016108f2906119ea565b60405180910390fd5b43600560008481526020019081526020016000206006015411610953576040517f08c379a000000000000000000000000000000000000000000000000000000000815260040161094a90611a56565b60405180910390fd5b600015156006600084815260200190815260200160002060008373ffffffffffffffffffffffffffffffffffffffff1673ffffffffffffffffffffffffffffffffffffffff16815260200190815260200160002060009054906101000a900460ff161515146109f7576040517f08c379a00000000000000000000000000000000000000000000000000000000081526004016109ee90611c45565b60405180910390fd5b836005600082815260200190815260200160002060070160019054906101000a900460ff1615610aca57600015156006600083815260200190815260200160002060003273ffffffffffffffffffffffffffffffffffffffff1673ffffffffffffffffffffffffffffffffffffffff16815260200190815260200160002060009054906101000a900460ff16151514610ac5576040517f08c379a0000000000000000000000000000000000000000000000000000000008152600401610abc90611c45565b60405180910390fd5b610b70565b6005600082815260200190815260200160002060000160009054906101000a900473ffffffffffffffffffffffffffffffffffffffff1673ffffffffffffffffffffffffffffffffffffffff163273ffffffffffffffffffffffffffffffffffffffff161415610b6f576040517f08c379a0000000000000000000000000000000000000000000000000000000008152600401610b6690611cb1565b60405180910390fd5b5b610b7b85853261113a565b5050505050565b600360009054906101000a900473ffffffffffffffffffffffffffffffffffffffff1673ffffffffffffffffffffffffffffffffffffffff163373ffffffffffffffffffffffffffffffffffffffff1614610c12576040517f08c379a0000000000000000000000000000000000000000000000000000000008152600401610c099061184a565b60405180910390fd5b80600160006101000a81548173ffffffffffffffffffffffffffffffffffffffff021916908373ffffffffffffffffffffffffffffffffffffffff16021790555050565b600060046000815480929190610c6b90611955565b919050555060006040518061014001604052803273ffffffffffffffffffffffffffffffffffffffff1681526020016000815260200160008152602001600081526020016000815260200184815260200160005443610cca9190611cd1565b815260200160001515815260200185151581526020016001151581525090508060056000600454815260200190815260200160002060008201518160000160006101000a81548173ffffffffffffffffffffffffffffffffffffffff021916908373ffffffffffffffffffffffffffffffffffffffff1602179055506020820151816001015560408201518160020155606082015181600301556080820151816004015560a0820151816005015560c0820151816006015560e08201518160070160006101000a81548160ff0219169083151502179055506101008201518160070160016101000a81548160ff0219169083151502179055506101208201518160070160026101000a81548160ff02191690831515021790555090505060045491505092915050565b8281600115156005600084815260200190815260200160002060070160029054906101000a900460ff16151514610e5f576040517f08c379a0000000000000000000000000000000000000000000000000000000008152600401610e56906119ea565b60405180910390fd5b43600560008481526020019081526020016000206006015411610eb7576040517f08c379a0000000000000000000000000000000000000000000000000000000008152600401610eae90611a56565b60405180910390fd5b600015156006600084815260200190815260200160002060008373ffffffffffffffffffffffffffffffffffffffff1673ffffffffffffffffffffffffffffffffffffffff16815260200190815260200160002060009054906101000a900460ff16151514610f5b576040517f08c379a0000000000000000000000000000000000000000000000000000000008152600401610f5290611c45565b60405180910390fd5b610f6685858561113a565b5050505050565b600115156006600086815260200190815260200160002060008573ffffffffffffffffffffffffffffffffffffffff1673ffffffffffffffffffffffffffffffffffffffff16815260200190815260200160002060009054906101000a900460ff16151514611011576040517f08c379a000000000000000000000000000000000000000000000000000000000815260040161100890611d99565b60405180910390fd5b60006007600086815260200190815260200160002060008573ffffffffffffffffffffffffffffffffffffffff1673ffffffffffffffffffffffffffffffffffffffff16815260200190815260200160002060009054906101000a900460ff16905080156110d8578260056000878152602001908152602001600020600101600082825461109f91906118c8565b92505081905550816005600087815260200190815260200160002060010160008282546110cc9190611cd1565b92505081905550611133565b826005600087815260200190815260200160002060030160008282546110fe91906118c8565b925050819055508160056000878152602001908152602001600020600301600082825461112b9190611cd1565b925050819055505b5050505050565b6000600160009054906101000a900473ffffffffffffffffffffffffffffffffffffffff169050600060056000868152602001908152602001600020604051806101400160405290816000820160009054906101000a900473ffffffffffffffffffffffffffffffffffffffff1673ffffffffffffffffffffffffffffffffffffffff1673ffffffffffffffffffffffffffffffffffffffff1681526020016001820154815260200160028201548152602001600382015481526020016004820154815260200160058201548152602001600682015481526020016007820160009054906101000a900460ff161515151581526020016007820160019054906101000a900460ff161515151581526020016007820160029054906101000a900460ff161515151581525050905060008273ffffffffffffffffffffffffffffffffffffffff1662fdd58e858460a001516040518363ffffffff1660e01b81526004016112a7929190611db9565b602060405180830381865afa1580156112c4573d6000803e3d6000fd5b505050506040513d601f19601f820116820180604052508101906112e89190611b12565b9050841561135057806005600088815260200190815260200160002060010160008282546113169190611cd1565b9250508190555060016005600088815260200190815260200160002060020160008282546113449190611cd1565b925050819055506113ac565b806005600088815260200190815260200160002060030160008282546113769190611cd1565b9250508190555060016005600088815260200190815260200160002060040160008282546113a49190611cd1565b925050819055505b60016006600088815260200190815260200160002060008673ffffffffffffffffffffffffffffffffffffffff1673ffffffffffffffffffffffffffffffffffffffff16815260200190815260200160002060006101000a81548160ff021916908315150217905550846007600088815260200190815260200160002060008673ffffffffffffffffffffffffffffffffffffffff1673ffffffffffffffffffffffffffffffffffffffff16815260200190815260200160002060006101000a81548160ff0219169083151502179055506000600860008673ffffffffffffffffffffffffffffffffffffffff1673ffffffffffffffffffffffffffffffffffffffff16815260200190815260200160002090508087908060018154018082558091505060019003906000526020600020016000909190919091505550505050505050565b600080fd5b6000819050919050565b611509816114f6565b811461151457600080fd5b50565b60008135905061152681611500565b92915050565b600060208284031215611542576115416114f1565b5b600061155084828501611517565b91505092915050565b600073ffffffffffffffffffffffffffffffffffffffff82169050919050565b600061158482611559565b9050919050565b61159481611579565b82525050565b60006020820190506115af600083018461158b565b92915050565b60008115159050919050565b6115ca816115b5565b81146115d557600080fd5b50565b6000813590506115e7816115c1565b92915050565b60008060408385031215611604576116036114f1565b5b600061161285828601611517565b9250506020611623858286016115d8565b9150509250929050565b61163681611579565b811461164157600080fd5b50565b6000813590506116538161162d565b92915050565b60006020828403121561166f5761166e6114f1565b5b600061167d84828501611644565b91505092915050565b6000806040838503121561169d5761169c6114f1565b5b60006116ab858286016115d8565b92505060206116bc85828601611517565b9150509250929050565b6000806000606084860312156116df576116de6114f1565b5b60006116ed86828701611517565b93505060206116fe868287016115d8565b925050604061170f86828701611644565b9150509250925092565b60008060008060808587031215611733576117326114f1565b5b600061174187828801611644565b945050602061175287828801611517565b935050604061176387828801611517565b925050606061177487828801611517565b91505092959194509250565b611789816114f6565b82525050565b611798816115b5565b82525050565b60006040820190506117b36000830185611780565b6117c0602083018461178f565b9392505050565b600082825260208201905092915050565b7f554e415554484f52495a45443a2043414e4e4f545f504552464f524d5f41435460008201527f494f4e0000000000000000000000000000000000000000000000000000000000602082015250565b60006118346023836117c7565b915061183f826117d8565b604082019050919050565b6000602082019050818103600083015261186381611827565b9050919050565b7f4e487b7100000000000000000000000000000000000000000000000000000000600052603260045260246000fd5b7f4e487b7100000000000000000000000000000000000000000000000000000000600052601160045260246000fd5b60006118d3826114f6565b91506118de836114f6565b9250828210156118f1576118f0611899565b5b828203905092915050565b7f4e487b7100000000000000000000000000000000000000000000000000000000600052603160045260246000fd5b6000611936826114f6565b9150600082141561194a57611949611899565b5b600182039050919050565b6000611960826114f6565b91507fffffffffffffffffffffffffffffffffffffffffffffffffffffffffffffffff82141561199357611992611899565b5b600182019050919050565b7f494e56414c49443a2042414c4c4f545f4e4f545f464f554e4400000000000000600082015250565b60006119d46019836117c7565b91506119df8261199e565b602082019050919050565b60006020820190508181036000830152611a03816119c7565b9050919050565b7f494e56414c49443a20564f54494e475f54494d455f4f56455200000000000000600082015250565b6000611a406019836117c7565b9150611a4b82611a0a565b602082019050919050565b60006020820190508181036000830152611a6f81611a33565b9050919050565b7f494e56414c49443a20524553554c545f414c52454144595f4445434c41524544600082015250565b6000611aac6020836117c7565b9150611ab782611a76565b602082019050919050565b60006020820190508181036000830152611adb81611a9f565b9050919050565b6000602082019050611af76000830184611780565b92915050565b600081519050611b0c81611500565b92915050565b600060208284031215611b2857611b276114f1565b5b6000611b3684828501611afd565b91505092915050565b6000611b4a826114f6565b9150611b55836114f6565b9250817fffffffffffffffffffffffffffffffffffffffffffffffffffffffffffffffff0483118215151615611b8e57611b8d611899565b5b828202905092915050565b7f4e487b7100000000000000000000000000000000000000000000000000000000600052601260045260246000fd5b6000611bd3826114f6565b9150611bde836114f6565b925082611bee57611bed611b99565b5b828204905092915050565b7f494e56414c49443a20414c52454144595f564f54454400000000000000000000600082015250565b6000611c2f6016836117c7565b9150611c3a82611bf9565b602082019050919050565b60006020820190508181036000830152611c5e81611c22565b9050919050565b7f554e415554484f52495a45443a204f574e45525f43414e4e4f545f564f544500600082015250565b6000611c9b601f836117c7565b9150611ca682611c65565b602082019050919050565b60006020820190508181036000830152611cca81611c8e565b9050919050565b6000611cdc826114f6565b9150611ce7836114f6565b9250827fffffffffffffffffffffffffffffffffffffffffffffffffffffffffffffffff03821115611d1c57611d1b611899565b5b828201905092915050565b7f494e56414c49443a20494e5445524e414c3a20555345525f4841535f4e4f545f60008201527f564f544544000000000000000000000000000000000000000000000000000000602082015250565b6000611d836025836117c7565b9150611d8e82611d27565b604082019050919050565b60006020820190508181036000830152611db281611d76565b9050919050565b6000604082019050611dce600083018561158b565b611ddb6020830184611780565b939250505056fea26469706673582212202ad3f5551baa24549aae3b2fee8c0ac9718669017dc8df5f6651607c84101bad64736f6c634300080c0033",
  "immutableReferences": {},
  "source": "// SPDX-License-Identifier: MIT\n\npragma solidity ^0.8.0;\n\nimport \"../voting/BaseVotingContract.sol\";\n\ncontract BaseVotingContractMock is BaseVotingContract {\n    uint256 private LastTokenId = 1;\n    \n    /// @dev this event is generated when result of a ballot is declared\n    /// @param ballotId this is the ballot Id for which result is declared \n    /// @param result this is the status of the result either true if user won that is he received \n    /// more than 66% of votes or false if user lost \n    event BallotResult(uint256 ballotId, bool result);\n\n    constructor(uint8 votingInterval,address owner) BaseVotingContract(owner) {\n        VOTING_BLOCK_PERIOD = votingInterval;\n    }\n\n    \n    /// @dev This function sets the treasury Contract address\n    /// @param newTreasuryContractAddress this is the new address of the treasury contract\n    function setTreasuryContractAddress(address newTreasuryContractAddress)\n        external\n        _ownerOnly\n    {\n        _setTreasuryContractAddress(newTreasuryContractAddress);\n    }\n\n    function createBallot(bool canOwnerVote, uint256 tokenId) public {\n        _createVoting(canOwnerVote, tokenId);\n    }\n\n    function castVote(uint256 ballotId, bool vote) public {\n        _castVote(ballotId, vote);\n    }\n\n    function castVoteForOther(\n        uint256 ballotId,\n        bool vote,\n        address voter\n    ) public {\n        _castVoteForOther(ballotId, vote, voter);\n    }\n\n    function declareWinner(uint256 ballotId) public {\n        bool result = _declareWinner(ballotId);\n        emit BallotResult(ballotId, result);\n    }\n}\n",
  "sourcePath": "/Users/a1/Desktop/Office/projects/CrowdRecords/Contracts/contracts/Mocks/BaseVotingContractMock.sol",
  "compiler": {
    "name": "solc",
    "version": "0.8.12+commit.f00d7308.Emscripten.clang"
  },
  "schemaVersion": "3.4.6",
  "updatedAt": "2022-09-19T09:06:35.045Z",
  "networkType": "ethereum",
  "devdoc": {
    "events": {
      "BallotResult(uint256,bool)": {
        "details": "this event is generated when result of a ballot is declared",
        "params": {
          "ballotId": "this is the ballot Id for which result is declared ",
          "result": "this is the status of the result either true if user won that is he received  more than 66% of votes or false if user lost "
        }
      }
    },
    "kind": "dev",
    "methods": {
      "_handleUserTokenTransfers(address,uint256,uint256,uint256)": {
        "details": "This function will be called when either user is transferring the tokens to other account, or is receiving tokens from other tokens.",
        "params": {
          "newBalance": "this is the new balance of the user that is after the transfer",
          "previousBalance": "this is the old balance of the user",
          "user": "address of the user whose balance is being changed"
        }
      },
      "setOwnerAddress(address)": {
        "details": "This function sets the owner address",
        "params": {
          "ownerAddress": "This is the address of the owner"
        }
      },
      "setTreasuryContractAddress(address)": {
        "details": "This function sets the treasury Contract address",
        "params": {
          "newTreasuryContractAddress": "this is the new address of the treasury contract"
        }
      }
    },
    "version": 1
  },
  "userdoc": {
    "kind": "user",
    "methods": {},
    "version": 1
  }
}