{
  "contractName": "BaseVotingContract",
  "abi": [
    {
      "inputs": [
        {
          "internalType": "address",
          "name": "owner",
          "type": "address"
        }
      ],
      "stateMutability": "nonpayable",
      "type": "constructor"
    },
    {
      "inputs": [],
      "name": "OWNER",
      "outputs": [
        {
          "internalType": "address",
          "name": "",
          "type": "address"
        }
      ],
      "stateMutability": "view",
      "type": "function"
    },
    {
      "inputs": [],
      "name": "TREASURY_CONTRACT_ADDRESS",
      "outputs": [
        {
          "internalType": "address",
          "name": "",
          "type": "address"
        }
      ],
      "stateMutability": "view",
      "type": "function"
    },
    {
      "inputs": [],
      "name": "TREASURY_HUB_ADDRESS",
      "outputs": [
        {
          "internalType": "address",
          "name": "",
          "type": "address"
        }
      ],
      "stateMutability": "view",
      "type": "function"
    },
    {
      "inputs": [
        {
          "internalType": "address",
          "name": "ownerAddress",
          "type": "address"
        }
      ],
      "name": "setOwnerAddress",
      "outputs": [],
      "stateMutability": "nonpayable",
      "type": "function"
    },
    {
      "inputs": [
        {
          "internalType": "address",
          "name": "user",
          "type": "address"
        },
        {
          "internalType": "uint256",
          "name": "tokenId",
          "type": "uint256"
        },
        {
          "internalType": "uint256",
          "name": "previousBalance",
          "type": "uint256"
        },
        {
          "internalType": "uint256",
          "name": "newBalance",
          "type": "uint256"
        }
      ],
      "name": "_handleUserTokenTransfers",
      "outputs": [],
      "stateMutability": "nonpayable",
      "type": "function"
    }
  ],
  "bytecode": "0x60806040526019600055600060045534801561001a57600080fd5b50604051610b68380380610b68833981810160405281019061003c91906100e6565b80600360006101000a81548173ffffffffffffffffffffffffffffffffffffffff021916908373ffffffffffffffffffffffffffffffffffffffff16021790555050610113565b600080fd5b600073ffffffffffffffffffffffffffffffffffffffff82169050919050565b60006100b382610088565b9050919050565b6100c3816100a8565b81146100ce57600080fd5b50565b6000815190506100e0816100ba565b92915050565b6000602082840312156100fc576100fb610083565b5b600061010a848285016100d1565b91505092915050565b610a46806101226000396000f3fe608060405234801561001057600080fd5b50600436106100575760003560e01c8063117803e31461005c578063331a6bf51461007a5780638d2ae1f714610096578063abb7ed7f146100b4578063acb31493146100d0575b600080fd5b6100646100ee565b604051610071919061063b565b60405180910390f35b610094600480360381019061008f9190610687565b610114565b005b61009e6101e8565b6040516100ab919061063b565b60405180910390f35b6100ce60048036038101906100c991906106ea565b61020e565b005b6100d8610407565b6040516100e5919061063b565b60405180910390f35b600360009054906101000a900473ffffffffffffffffffffffffffffffffffffffff1681565b600360009054906101000a900473ffffffffffffffffffffffffffffffffffffffff1673ffffffffffffffffffffffffffffffffffffffff163373ffffffffffffffffffffffffffffffffffffffff16146101a4576040517f08c379a000000000000000000000000000000000000000000000000000000000815260040161019b906107d4565b60405180910390fd5b80600360006101000a81548173ffffffffffffffffffffffffffffffffffffffff021916908373ffffffffffffffffffffffffffffffffffffffff16021790555050565b600260009054906101000a900473ffffffffffffffffffffffffffffffffffffffff1681565b6000600860008673ffffffffffffffffffffffffffffffffffffffff1673ffffffffffffffffffffffffffffffffffffffff168152602001908152602001600020905060005b81805490508110156103ff57600115156005600084848154811061027b5761027a6107f4565b5b9060005260206000200154815260200190815260200160002060070160009054906101000a900460ff16151514806102e5575043600560008484815481106102c6576102c56107f4565b5b9060005260206000200154815260200190815260200160002060060154105b156103865781600183805490506102fc9190610852565b8154811061030d5761030c6107f4565b5b906000526020600020015482828154811061032b5761032a6107f4565b5b90600052602060002001819055508180548061034a57610349610886565b5b6001900381819060005260206000200160009055905560008114156103725760009050610381565b808061037d906108b5565b9150505b6103ec565b6005600083838154811061039d5761039c6107f4565b5b90600052602060002001548152602001908152602001600020600501548514156103eb576103ea8282815481106103d7576103d66107f4565b5b906000526020600020015487868661042d565b5b5b80806103f7906108df565b915050610254565b505050505050565b600160009054906101000a900473ffffffffffffffffffffffffffffffffffffffff1681565b600115156006600086815260200190815260200160002060008573ffffffffffffffffffffffffffffffffffffffff1673ffffffffffffffffffffffffffffffffffffffff16815260200190815260200160002060009054906101000a900460ff161515146104d1576040517f08c379a00000000000000000000000000000000000000000000000000000000081526004016104c89061099a565b60405180910390fd5b60006007600086815260200190815260200160002060008573ffffffffffffffffffffffffffffffffffffffff1673ffffffffffffffffffffffffffffffffffffffff16815260200190815260200160002060009054906101000a900460ff1690508015610598578260056000878152602001908152602001600020600101600082825461055f9190610852565b925050819055508160056000878152602001908152602001600020600101600082825461058c91906109ba565b925050819055506105f3565b826005600087815260200190815260200160002060030160008282546105be9190610852565b92505081905550816005600087815260200190815260200160002060030160008282546105eb91906109ba565b925050819055505b5050505050565b600073ffffffffffffffffffffffffffffffffffffffff82169050919050565b6000610625826105fa565b9050919050565b6106358161061a565b82525050565b6000602082019050610650600083018461062c565b92915050565b600080fd5b6106648161061a565b811461066f57600080fd5b50565b6000813590506106818161065b565b92915050565b60006020828403121561069d5761069c610656565b5b60006106ab84828501610672565b91505092915050565b6000819050919050565b6106c7816106b4565b81146106d257600080fd5b50565b6000813590506106e4816106be565b92915050565b6000806000806080858703121561070457610703610656565b5b600061071287828801610672565b9450506020610723878288016106d5565b9350506040610734878288016106d5565b9250506060610745878288016106d5565b91505092959194509250565b600082825260208201905092915050565b7f554e415554484f52495a45443a2043414e4e4f545f504552464f524d5f41435460008201527f494f4e0000000000000000000000000000000000000000000000000000000000602082015250565b60006107be602383610751565b91506107c982610762565b604082019050919050565b600060208201905081810360008301526107ed816107b1565b9050919050565b7f4e487b7100000000000000000000000000000000000000000000000000000000600052603260045260246000fd5b7f4e487b7100000000000000000000000000000000000000000000000000000000600052601160045260246000fd5b600061085d826106b4565b9150610868836106b4565b92508282101561087b5761087a610823565b5b828203905092915050565b7f4e487b7100000000000000000000000000000000000000000000000000000000600052603160045260246000fd5b60006108c0826106b4565b915060008214156108d4576108d3610823565b5b600182039050919050565b60006108ea826106b4565b91507fffffffffffffffffffffffffffffffffffffffffffffffffffffffffffffffff82141561091d5761091c610823565b5b600182019050919050565b7f494e56414c49443a20494e5445524e414c3a20555345525f4841535f4e4f545f60008201527f564f544544000000000000000000000000000000000000000000000000000000602082015250565b6000610984602583610751565b915061098f82610928565b604082019050919050565b600060208201905081810360008301526109b381610977565b9050919050565b60006109c5826106b4565b91506109d0836106b4565b9250827fffffffffffffffffffffffffffffffffffffffffffffffffffffffffffffffff03821115610a0557610a04610823565b5b82820190509291505056fea26469706673582212201e58e128e8f8210e66d735fd3131672b4422d50378fc872a781c4075bccacb8d64736f6c634300080c0033",
  "immutableReferences": {},
  "source": "// SPDX-License-Identifier: MIT\npragma solidity ^0.8.0;\n\nimport \"../interface/ITreasury.sol\";\nimport \"@openzeppelin/contracts/utils/math/SafeMath.sol\";\nimport \"../OrdersContract.sol\";\n\ncontract BaseVotingContract {\n    /// @dev this is Contribution Create event this event will be emited when a new contribution is created.\n    /// @param owner This is the owner of the voting ballot\n    /// @param yesWeight This is the weightage of yes in the ballot\n    /// @param yesCount This is the count of yes in the ballot\n    /// @param noWeight This is the weightage of no in the ballot\n    /// @param noCount This is the count of no in the ballot\n    /// @param tokenId This is the token id using which the voting is done\n    /// @param votingEndBlock This is the block number till which the voting can be done for specific ballot\n    /// @param isResultDeclared This specifies if result is declared\n    /// @param canOwnerVote This specifies if a owner can vote or not\n    /// @param isPresent This is to check if a ballot of specific id is present or not\n    struct VotingBallot {\n        address owner;\n        uint256 yesWeight;\n        uint256 yesCount;\n        uint256 noWeight;\n        uint256 noCount;\n        uint256 tokenId;\n        uint256 votingEndBlock;\n        bool isResultDeclared;\n        bool canOwnerVote;\n        bool isPresent;\n    }\n\n    uint256 VOTING_BLOCK_PERIOD = 25;\n    address public TREASURY_CONTRACT_ADDRESS;\n    address public TREASURY_HUB_ADDRESS;\n    address public OWNER;\n\n    uint256 votingId = 0;\n    mapping(uint256 => VotingBallot) votingMap;\n    //This mapping tracks the state of user, that is if they have voted already or not.\n    // Ballot id => user address => bool\n    mapping(uint256 => mapping(address => bool)) alreadyVoted;\n    //This mapping is useful if the user has voted, as this hold if user voted yes or no for a specific ballot,\n    mapping(uint256 => mapping(address => bool)) userVotes;\n\n    //Active ballot list in which user have voted\n    // user address => List of ballot in which user has voted\n    mapping(address => uint256[]) userActiveVotedBallots;\n\n    constructor(address owner) {\n        OWNER = owner;\n    }\n\n    /// @dev This modifier checks if a ballot is open for voting or has the time expired\n    /// @param votingBallotId This is the id of the ballot which we are checking\n    /// @param voter This is the address of the voter for whom we are checking voting rights\n    modifier _checkIfBallotIsOpen(uint256 votingBallotId, address voter) {\n        require(\n            votingMap[votingBallotId].isPresent == true,\n            \"INVALID: BALLOT_NOT_FOUND\"\n        );\n\n        require(\n            votingMap[votingBallotId].votingEndBlock > block.number,\n            \"INVALID: VOTING_TIME_OVER\"\n        );\n\n        require(\n            alreadyVoted[votingBallotId][voter] == false,\n            \"INVALID: ALREADY_VOTED\"\n        );\n\n        _;\n    }\n\n    /// @dev Modifier to check that the person who accesses a specific function is the owner himself.\n    modifier _ownerOnly() {\n        require(msg.sender == OWNER, \"UNAUTHORIZED: CANNOT_PERFORM_ACTION\");\n        _;\n    }\n\n    /// @dev This modifier checks if a ballot is open for voting or has the time expired\n    /// @param votingBallotId This is the id of the ballot which we are checking\n    modifier _checkIfOwnerAllowed(uint256 votingBallotId) {\n        if (votingMap[votingBallotId].canOwnerVote) {\n            require(\n                alreadyVoted[votingBallotId][tx.origin] == false,\n                \"INVALID: ALREADY_VOTED\"\n            );\n        } else if (tx.origin == votingMap[votingBallotId].owner) {\n            revert(\"UNAUTHORIZED: OWNER_CANNOT_VOTE\");\n        }\n        _;\n    }\n\n    /// @dev This function sets the owner address\n    /// @param ownerAddress This is the address of the owner\n    function setOwnerAddress(address ownerAddress) public _ownerOnly {\n        OWNER = ownerAddress;\n    }\n\n    /// @dev This function is called by user to creata a new voting\n    /// @param canOwnerVote this is if a user can vote in a voting which he created\n    /// @param tokenId This is the id of the token using which voting can be done\n    function _createVoting(bool canOwnerVote, uint256 tokenId)\n        internal\n        returns (uint256)\n    {\n        votingId++;\n\n        VotingBallot memory voting = VotingBallot({\n            owner: tx.origin,\n            yesWeight: 0,\n            yesCount: 0,\n            noWeight: 0,\n            noCount: 0,\n            tokenId: tokenId,\n            votingEndBlock: block.number + VOTING_BLOCK_PERIOD,\n            isResultDeclared: false,\n            canOwnerVote: canOwnerVote,\n            isPresent: true\n        });\n\n        votingMap[votingId] = voting;\n        return votingId;\n    }\n\n    /// @dev This function sets the treasury Contract address\n    /// @param newTreasuryContractAddress This is the new address of treasury contract\n    function _setTreasuryContractAddress(address newTreasuryContractAddress)\n        internal\n        virtual\n        _ownerOnly\n    {\n        TREASURY_CONTRACT_ADDRESS = newTreasuryContractAddress;\n    }\n\n    /// @dev This function sets the treasury Contract address\n    /// @param newOwnerAddress This is the address of new owner\n    function _setOwnerAddress(address newOwnerAddress)\n        internal\n        virtual\n        _ownerOnly\n    {\n        TREASURY_CONTRACT_ADDRESS = newOwnerAddress;\n    }\n\n    /// @dev This function is called by any user to cast vote\n    /// @param votingBallotId this is the id of the ballot for which user is voting\n    /// @param vote this is the state of the vote, if true than it means the vote is in favour of the ballot\n    function _castVote(uint256 votingBallotId, bool vote)\n        internal\n        virtual\n        _checkIfBallotIsOpen(votingBallotId, msg.sender)\n        _checkIfOwnerAllowed(votingBallotId)\n    {\n        _castVotePrivate(votingBallotId, vote, tx.origin);\n    }\n\n    /// @dev This function is called when the vote is casted on later stages such as in counter offer where the vote is\n    /// reviewed before hand by the user and then it is accepted by the user.\n    /// @param votingBallotId this is the id of the ballot for which user is voting\n    /// @param vote this is the state of the vote, if true than it means the vote is in favour of the ballot\n    function _castVoteForOther(\n        uint256 votingBallotId,\n        bool vote,\n        address voter\n    ) internal _checkIfBallotIsOpen(votingBallotId, voter) {\n        _castVotePrivate(votingBallotId, vote, voter);\n    }\n\n    /// @dev core logic for voting\n    /// @param votingBallotId this is the id of the ballot for which user is voting\n    /// @param vote this is the state of the vote, if true than it means the vote is in favour of the ballot\n    /// @param voter Voter's address\n    function _castVotePrivate(\n        uint256 votingBallotId,\n        bool vote,\n        address voter\n    ) private {\n        ITreasury treasuryContract = ITreasury(TREASURY_CONTRACT_ADDRESS);\n        VotingBallot memory votingBallot = votingMap[votingBallotId];\n        uint256 bal = treasuryContract.balanceOf(voter, votingBallot.tokenId);\n\n        if (vote) {\n            votingMap[votingBallotId].yesWeight += bal;\n            votingMap[votingBallotId].yesCount += 1;\n        } else {\n            votingMap[votingBallotId].noWeight += bal;\n            votingMap[votingBallotId].noCount += 1;\n        }\n\n        alreadyVoted[votingBallotId][voter] = true;\n        userVotes[votingBallotId][voter] = vote;\n        uint256[] storage list = userActiveVotedBallots[voter];\n        list.push(votingBallotId);\n    }\n\n    /// @dev core logic for voting\n    /// @param votingBallotId this is the id of the ballot for which user is voting\n    /// @param voter Voter's address\n    /// @param oldWeight Old weight of the voter\n    /// @param newWeight New weight of the voter\n    function _changeVoteWeight(\n        uint256 votingBallotId,\n        address voter,\n        uint256 oldWeight,\n        uint256 newWeight\n    ) private {\n        require(\n            alreadyVoted[votingBallotId][voter] == true,\n            \"INVALID: INTERNAL: USER_HAS_NOT_VOTED\"\n        );\n        bool vote = userVotes[votingBallotId][voter];\n        if (vote) {\n            votingMap[votingBallotId].yesWeight -= oldWeight;\n            votingMap[votingBallotId].yesWeight += newWeight;\n        } else {\n            votingMap[votingBallotId].noWeight -= oldWeight;\n            votingMap[votingBallotId].noWeight += newWeight;\n        }\n    }\n\n    /// @dev This function will be called when either user is transferring the tokens to other account,\n    /// or is receiving tokens from other tokens.\n    /// @param user address of the user whose balance is being changed\n    /// @param previousBalance this is the old balance of the user\n    /// @param newBalance this is the new balance of the user that is after the transfer\n    function _handleUserTokenTransfers(\n        address user,\n        uint256 tokenId,\n        uint256 previousBalance,\n        uint256 newBalance\n    ) public virtual {\n        uint256[] storage ballotList = userActiveVotedBallots[user];\n        for (uint256 i = 0; i < ballotList.length; i++) {\n            if (\n                votingMap[ballotList[i]].isResultDeclared == true ||\n                votingMap[ballotList[i]].votingEndBlock < block.number\n            ) {\n                // Deleting the ballot if result is declared\n                ballotList[i] = ballotList[ballotList.length - 1];\n                ballotList.pop();\n                if (i == 0) {\n                    i = 0;\n                } else {\n                    i--;\n                }\n            } else if (tokenId == votingMap[ballotList[i]].tokenId) {\n                // Changing the weighage of the votes of user\n                _changeVoteWeight(\n                    ballotList[i],\n                    user,\n                    previousBalance,\n                    newBalance\n                );\n            }\n        }\n    }\n\n    /// @dev This function is called by any user to cast vote\n    /// @param votingBallotId this is the id of the ballot for which we need to find the winner\n    function _declareWinner(uint256 votingBallotId)\n        internal\n        returns (bool isWinner)\n    {\n        require(\n            votingMap[votingBallotId].isPresent == true,\n            \"INVALID: BALLOT_NOT_FOUND\"\n        );\n\n        require(\n            votingMap[votingBallotId].votingEndBlock < block.number,\n            \"INVALID: VOTING_TIME_OVER\"\n        );\n\n        require(\n            votingMap[votingBallotId].isResultDeclared == false,\n            \"INVALID: RESULT_ALREADY_DECLARED\"\n        );\n\n        VotingBallot storage votingBallot = votingMap[votingBallotId];\n        uint256 totalYes = votingBallot.yesWeight;\n\n        // Currently to win you would need to around 66% of votes to be yes\n        ITreasury treasuryContract = ITreasury(TREASURY_CONTRACT_ADDRESS);\n\n        votingMap[votingBallotId].isResultDeclared = true;\n\n        if (totalYes > 0) {\n            uint256 totalCirculatingSupply = treasuryContract\n                .totalCirculatingSupply(votingBallot.tokenId);\n\n            //calculating the 2/3rd value of totalCirculatingSupply to identify how much we will need to win\n            uint256 winAmount = (totalCirculatingSupply * 66) / 100;\n\n            //This will check for 2 / 3 ratio for yes votes\n            if (totalYes > winAmount) {\n                return true;\n            } else {\n                return false;\n            }\n        } else {\n            return false;\n        }\n    }\n}\n",
  "sourcePath": "/Users/a1/Desktop/Office/projects/CrowdRecords/Contracts/contracts/voting/BaseVotingContract.sol",
  "compiler": {
    "name": "solc",
    "version": "0.8.12+commit.f00d7308.Emscripten.clang"
  },
  "schemaVersion": "3.4.6",
  "updatedAt": "2022-10-05T14:07:55.917Z",
  "devdoc": {
    "kind": "dev",
    "methods": {
      "_handleUserTokenTransfers(address,uint256,uint256,uint256)": {
        "details": "This function will be called when either user is transferring the tokens to other account, or is receiving tokens from other tokens.",
        "params": {
          "newBalance": "this is the new balance of the user that is after the transfer",
          "previousBalance": "this is the old balance of the user",
          "user": "address of the user whose balance is being changed"
        }
      },
      "setOwnerAddress(address)": {
        "details": "This function sets the owner address",
        "params": {
          "ownerAddress": "This is the address of the owner"
        }
      }
    },
    "version": 1
  },
  "userdoc": {
    "kind": "user",
    "methods": {},
    "version": 1
  }
}