{
  "contractName": "BaseVotingContractMock",
  "abi": [
    {
      "inputs": [
        {
          "internalType": "uint8",
          "name": "votingInterval",
          "type": "uint8"
        },
        {
          "internalType": "address",
          "name": "owner",
          "type": "address"
        }
      ],
      "stateMutability": "nonpayable",
      "type": "constructor"
    },
    {
      "anonymous": false,
      "inputs": [
        {
          "indexed": false,
          "internalType": "uint256",
          "name": "ballotId",
          "type": "uint256"
        }
      ],
      "name": "BallotCreated",
      "type": "event"
    },
    {
      "anonymous": false,
      "inputs": [
        {
          "indexed": false,
          "internalType": "uint256",
          "name": "ballotId",
          "type": "uint256"
        },
        {
          "indexed": false,
          "internalType": "bool",
          "name": "result",
          "type": "bool"
        },
        {
          "indexed": false,
          "internalType": "bool",
          "name": "minTurnOut",
          "type": "bool"
        }
      ],
      "name": "BallotResult",
      "type": "event"
    },
    {
      "anonymous": false,
      "inputs": [
        {
          "indexed": false,
          "internalType": "uint8",
          "name": "version",
          "type": "uint8"
        }
      ],
      "name": "Initialized",
      "type": "event"
    },
    {
      "inputs": [],
      "name": "GOVERNANCE",
      "outputs": [
        {
          "internalType": "address",
          "name": "",
          "type": "address"
        }
      ],
      "stateMutability": "view",
      "type": "function"
    },
    {
      "inputs": [],
      "name": "MIN_TURNOUT_PERCENT",
      "outputs": [
        {
          "internalType": "uint256",
          "name": "",
          "type": "uint256"
        }
      ],
      "stateMutability": "view",
      "type": "function"
    },
    {
      "inputs": [],
      "name": "OWNER",
      "outputs": [
        {
          "internalType": "address",
          "name": "",
          "type": "address"
        }
      ],
      "stateMutability": "view",
      "type": "function"
    },
    {
      "inputs": [],
      "name": "TREASURY_CONTRACT_ADDRESS",
      "outputs": [
        {
          "internalType": "address",
          "name": "",
          "type": "address"
        }
      ],
      "stateMutability": "view",
      "type": "function"
    },
    {
      "inputs": [],
      "name": "TREASURY_HUB_ADDRESS",
      "outputs": [
        {
          "internalType": "address",
          "name": "",
          "type": "address"
        }
      ],
      "stateMutability": "view",
      "type": "function"
    },
    {
      "inputs": [],
      "name": "VOTING_BLOCK_PERIOD",
      "outputs": [
        {
          "internalType": "uint256",
          "name": "",
          "type": "uint256"
        }
      ],
      "stateMutability": "view",
      "type": "function"
    },
    {
      "inputs": [],
      "name": "VOTING_DEPOSIT",
      "outputs": [
        {
          "internalType": "uint256",
          "name": "",
          "type": "uint256"
        }
      ],
      "stateMutability": "view",
      "type": "function"
    },
    {
      "inputs": [
        {
          "internalType": "address",
          "name": "user",
          "type": "address"
        },
        {
          "internalType": "uint256",
          "name": "tokenId",
          "type": "uint256"
        },
        {
          "internalType": "uint256",
          "name": "previousBalance",
          "type": "uint256"
        },
        {
          "internalType": "uint256",
          "name": "newBalance",
          "type": "uint256"
        }
      ],
      "name": "_handleUserTokenTransfers",
      "outputs": [],
      "stateMutability": "nonpayable",
      "type": "function"
    },
    {
      "inputs": [
        {
          "internalType": "uint256",
          "name": "",
          "type": "uint256"
        }
      ],
      "name": "depositMap",
      "outputs": [
        {
          "internalType": "address",
          "name": "owner",
          "type": "address"
        },
        {
          "internalType": "uint256",
          "name": "ballotId",
          "type": "uint256"
        },
        {
          "internalType": "uint256",
          "name": "depositAmount",
          "type": "uint256"
        },
        {
          "internalType": "bool",
          "name": "isClaimed",
          "type": "bool"
        },
        {
          "internalType": "bool",
          "name": "isPresent",
          "type": "bool"
        }
      ],
      "stateMutability": "view",
      "type": "function"
    },
    {
      "inputs": [
        {
          "internalType": "uint256",
          "name": "depositAmount",
          "type": "uint256"
        }
      ],
      "name": "setDepositAmount",
      "outputs": [],
      "stateMutability": "nonpayable",
      "type": "function"
    },
    {
      "inputs": [
        {
          "internalType": "uint256",
          "name": "minTurnOut",
          "type": "uint256"
        }
      ],
      "name": "setMinTurnOut",
      "outputs": [],
      "stateMutability": "nonpayable",
      "type": "function"
    },
    {
      "inputs": [
        {
          "internalType": "address",
          "name": "ownerAddress",
          "type": "address"
        }
      ],
      "name": "setOwnerAddress",
      "outputs": [],
      "stateMutability": "nonpayable",
      "type": "function"
    },
    {
      "inputs": [
        {
          "internalType": "uint256",
          "name": "votingPeriod",
          "type": "uint256"
        }
      ],
      "name": "setVotingPeriod",
      "outputs": [],
      "stateMutability": "nonpayable",
      "type": "function"
    },
    {
      "inputs": [],
      "name": "treasuryContract",
      "outputs": [
        {
          "internalType": "contract ITreasury",
          "name": "",
          "type": "address"
        }
      ],
      "stateMutability": "view",
      "type": "function"
    },
    {
      "inputs": [
        {
          "internalType": "uint256",
          "name": "",
          "type": "uint256"
        }
      ],
      "name": "votingMap",
      "outputs": [
        {
          "internalType": "address",
          "name": "owner",
          "type": "address"
        },
        {
          "internalType": "uint256",
          "name": "yesWeight",
          "type": "uint256"
        },
        {
          "internalType": "uint256",
          "name": "yesCount",
          "type": "uint256"
        },
        {
          "internalType": "uint256",
          "name": "noWeight",
          "type": "uint256"
        },
        {
          "internalType": "uint256",
          "name": "noCount",
          "type": "uint256"
        },
        {
          "internalType": "uint256",
          "name": "tokenId",
          "type": "uint256"
        },
        {
          "internalType": "uint256",
          "name": "votingEndBlock",
          "type": "uint256"
        },
        {
          "internalType": "bool",
          "name": "isResultDeclared",
          "type": "bool"
        },
        {
          "internalType": "bool",
          "name": "canOwnerVote",
          "type": "bool"
        },
        {
          "internalType": "bool",
          "name": "isPresent",
          "type": "bool"
        }
      ],
      "stateMutability": "view",
      "type": "function"
    },
    {
      "inputs": [
        {
          "internalType": "address",
          "name": "newTreasuryContractAddress",
          "type": "address"
        },
        {
          "internalType": "address",
          "name": "newGovernanceContractAddress",
          "type": "address"
        }
      ],
      "name": "initialize",
      "outputs": [],
      "stateMutability": "nonpayable",
      "type": "function"
    },
    {
      "inputs": [
        {
          "internalType": "bool",
          "name": "canOwnerVote",
          "type": "bool"
        },
        {
          "internalType": "uint256",
          "name": "tokenId",
          "type": "uint256"
        }
      ],
      "name": "createBallot",
      "outputs": [],
      "stateMutability": "payable",
      "type": "function"
    },
    {
      "inputs": [
        {
          "internalType": "uint256",
          "name": "ballotId",
          "type": "uint256"
        },
        {
          "internalType": "bool",
          "name": "vote",
          "type": "bool"
        }
      ],
      "name": "castVote",
      "outputs": [],
      "stateMutability": "nonpayable",
      "type": "function"
    },
    {
      "inputs": [
        {
          "internalType": "uint256",
          "name": "ballotId",
          "type": "uint256"
        },
        {
          "internalType": "bool",
          "name": "vote",
          "type": "bool"
        },
        {
          "internalType": "address",
          "name": "voter",
          "type": "address"
        }
      ],
      "name": "castVoteForOther",
      "outputs": [],
      "stateMutability": "nonpayable",
      "type": "function"
    },
    {
      "inputs": [
        {
          "internalType": "uint256",
          "name": "ballotId",
          "type": "uint256"
        }
      ],
      "name": "declareWinner",
      "outputs": [],
      "stateMutability": "nonpayable",
      "type": "function"
    }
  ],
  "bytecode": "0x6080604052662386f26fc1000060015560196002556101f460035560006009556001600f553480156200003157600080fd5b50604051620022df380380620022df833981016040819052620000549162000080565b600780546001600160a01b0319166001600160a01b039290921691909117905560ff16600255620000cf565b600080604083850312156200009457600080fd5b825160ff81168114620000a657600080fd5b60208401519092506001600160a01b0381168114620000c457600080fd5b809150509250929050565b61220080620000df6000396000f3fe60806040526004361061015e5760003560e01c80636d8cee56116100c05780638d2ae1f711610074578063acb3149311610059578063acb3149314610520578063e1f2e0841461054d578063ea0217cf1461056d57600080fd5b80638d2ae1f7146104d3578063abb7ed7f1461050057600080fd5b806382f61de5116100a557806382f61de5146103f557806383b0b07114610415578063879253a3146104bd57600080fd5b80636d8cee56146103c25780636dce8664146103e257600080fd5b8063331a6bf511610117578063485cc955116100fc578063485cc9551461029a57806363e249c1146102ba5780636c83244a146103ac57600080fd5b8063331a6bf51461025657806333e0ea2e1461027657600080fd5b8063146278341161014857806314627834146101dc57806315373e3d1461020957806318da00111461022957600080fd5b8062c2943c14610163578063117803e314610185575b600080fd5b34801561016f57600080fd5b5061018361017e366004611ea6565b61058d565b005b34801561019157600080fd5b506007546101b29073ffffffffffffffffffffffffffffffffffffffff1681565b60405173ffffffffffffffffffffffffffffffffffffffff90911681526020015b60405180910390f35b3480156101e857600080fd5b506008546101b29073ffffffffffffffffffffffffffffffffffffffff1681565b34801561021557600080fd5b50610183610224366004611ed4565b6105f2565b34801561023557600080fd5b506005546101b29073ffffffffffffffffffffffffffffffffffffffff1681565b34801561026257600080fd5b50610183610271366004611f24565b610600565b34801561028257600080fd5b5061028c60035481565b6040519081526020016101d3565b3480156102a657600080fd5b506101836102b5366004611f46565b6106f3565b3480156102c657600080fd5b506103456102d5366004611ea6565b600a602052600090815260409020805460018201546002830154600384015460048501546005860154600687015460079097015473ffffffffffffffffffffffffffffffffffffffff909616969495939492939192909160ff80821691610100810482169162010000909104168a565b6040805173ffffffffffffffffffffffffffffffffffffffff909b168b5260208b0199909952978901969096526060880194909452608087019290925260a086015260c0850152151560e084015215156101008301521515610120820152610140016101d3565b3480156103b857600080fd5b5061028c60025481565b3480156103ce57600080fd5b506101836103dd366004611ea6565b61092c565b6101836103f0366004611f70565b6109b2565b34801561040157600080fd5b50610183610410366004611f9a565b6109fb565b34801561042157600080fd5b5061047a610430366004611ea6565b600d60205260009081526040902080546001820154600283015460039093015473ffffffffffffffffffffffffffffffffffffffff90921692909160ff8082169161010090041685565b6040805173ffffffffffffffffffffffffffffffffffffffff9096168652602086019490945292840191909152151560608301521515608082015260a0016101d3565b3480156104c957600080fd5b5061028c60015481565b3480156104df57600080fd5b506006546101b29073ffffffffffffffffffffffffffffffffffffffff1681565b34801561050c57600080fd5b5061018361051b366004611fd6565b610a06565b34801561052c57600080fd5b506004546101b29073ffffffffffffffffffffffffffffffffffffffff1681565b34801561055957600080fd5b50610183610568366004611ea6565b610bc4565b34801561057957600080fd5b50610183610588366004611ea6565b610c4a565b60008061059983610cd0565b915091506105a683610fee565b604080518481528315156020820152821515918101919091527f1f6972cf5ca4c61f97e167c7304bc893a078a7ae23020018f03bfcdd947e755e906060015b60405180910390a1505050565b6105fc82826111cb565b5050565b60075473ffffffffffffffffffffffffffffffffffffffff1633146106ac576040517f08c379a000000000000000000000000000000000000000000000000000000000815260206004820152602360248201527f554e415554484f52495a45443a2043414e4e4f545f504552464f524d5f41435460448201527f494f4e000000000000000000000000000000000000000000000000000000000060648201526084015b60405180910390fd5b600780547fffffffffffffffffffffffff00000000000000000000000000000000000000001673ffffffffffffffffffffffffffffffffffffffff92909216919091179055565b600054610100900460ff16158080156107135750600054600160ff909116105b8061072d5750303b15801561072d575060005460ff166001145b6107b9576040517f08c379a000000000000000000000000000000000000000000000000000000000815260206004820152602e60248201527f496e697469616c697a61626c653a20636f6e747261637420697320616c72656160448201527f647920696e697469616c697a656400000000000000000000000000000000000060648201526084016106a3565b600080547fffffffffffffffffffffffffffffffffffffffffffffffffffffffffffffff00166001179055801561081757600080547fffffffffffffffffffffffffffffffffffffffffffffffffffffffffffff00ff166101001790555b60075473ffffffffffffffffffffffffffffffffffffffff1633146108be576040517f08c379a000000000000000000000000000000000000000000000000000000000815260206004820152602360248201527f554e415554484f52495a45443a2043414e4e4f545f504552464f524d5f41435460448201527f494f4e000000000000000000000000000000000000000000000000000000000060648201526084016106a3565b6108c883836114b3565b801561092757600080547fffffffffffffffffffffffffffffffffffffffffffffffffffffffffffff00ff169055604051600181527f7f26b83ff96e1f2b6a682f133852f6798a09c465da95921460cefb3847402498906020016105e5565b505050565b60085473ffffffffffffffffffffffffffffffffffffffff1633146109ad576040517f08c379a000000000000000000000000000000000000000000000000000000000815260206004820152601d60248201527f554e415554484f52495a45443a204f4e4c595f474f5645524e414e434500000060448201526064016106a3565b600155565b60006109be83836115aa565b90506109cb33348361176f565b6040518181527f8240970fe48e7326c1988bac710fa94e48ffac4c80da6f31d40e52fc71df1059906020016105e5565b6109278383836118d2565b73ffffffffffffffffffffffffffffffffffffffff84166000908152600e60205260408120905b8154811015610bbc57600a6000838381548110610a4c57610a4c61200f565b6000918252602080832090910154835282019290925260400190206007015460ff16151560011480610aaf575043600a6000848481548110610a9057610a9061200f565b9060005260206000200154815260200190815260200160002060060154105b15610b485781548290610ac49060019061206d565b81548110610ad457610ad461200f565b9060005260206000200154828281548110610af157610af161200f565b906000526020600020018190555081805480610b0f57610b0f612084565b600190038181906000526020600020016000905590558060001415610b3657506000610baa565b80610b40816120b3565b915050610baa565b600a6000838381548110610b5e57610b5e61200f565b9060005260206000200154815260200190815260200160002060050154851415610baa57610baa828281548110610b9757610b9761200f565b9060005260206000200154878686611a7b565b80610bb4816120e8565b915050610a2d565b505050505050565b60085473ffffffffffffffffffffffffffffffffffffffff163314610c45576040517f08c379a000000000000000000000000000000000000000000000000000000000815260206004820152601d60248201527f554e415554484f52495a45443a204f4e4c595f474f5645524e414e434500000060448201526064016106a3565b600355565b60085473ffffffffffffffffffffffffffffffffffffffff163314610ccb576040517f08c379a000000000000000000000000000000000000000000000000000000000815260206004820152601d60248201527f554e415554484f52495a45443a204f4e4c595f474f5645524e414e434500000060448201526064016106a3565b600255565b6000818152600a6020526040812060070154819062010000900460ff161515600114610d58576040517f08c379a000000000000000000000000000000000000000000000000000000000815260206004820152601960248201527f494e56414c49443a2042414c4c4f545f4e4f545f464f554e440000000000000060448201526064016106a3565b6000838152600a60205260409020600601544311610dd2576040517f08c379a000000000000000000000000000000000000000000000000000000000815260206004820152601d60248201527f494e56414c49443a20564f54494e475f54494d455f4e4f545f4f56455200000060448201526064016106a3565b6000838152600a602052604090206007015460ff1615610e4e576040517f08c379a000000000000000000000000000000000000000000000000000000000815260206004820181905260248201527f494e56414c49443a20524553554c545f414c52454144595f4445434c4152454460448201526064016106a3565b6000838152600a602052604080822060018082015460038301546007840180547fffffffffffffffffffffffffffffffffffffffffffffffffffffffffffffff0016909317909255600580549084015494517f036c22ad000000000000000000000000000000000000000000000000000000008152939591949293919273ffffffffffffffffffffffffffffffffffffffff9091169163036c22ad91610efa9160040190815260200190565b602060405180830381865afa158015610f17573d6000803e3d6000fd5b505050506040513d601f19601f82011682018060405250810190610f3b9190612121565b9050600060648060035484610f50919061213a565b610f5a9190612177565b610f649190612177565b905080610f7185856121b2565b1115610fde578315610fcd5760006064610f8b85876121b2565b610f9690604261213a565b610fa09190612177565b905080851115610fbb57506001988998509650505050505050565b50600098600198509650505050505050565b506000976001975095505050505050565b5060009788975095505050505050565b6000818152600d602052604090206003015460ff610100909104161515600114611074576040517f08c379a000000000000000000000000000000000000000000000000000000000815260206004820152600d60248201527f4445505f4e4f545f45584953540000000000000000000000000000000000000060448201526064016106a3565b6000818152600d602052604090206003015460ff16156110f0576040517f08c379a000000000000000000000000000000000000000000000000000000000815260206004820152601360248201527f4445505f414c52454144595f434c41494d45440000000000000000000000000060448201526064016106a3565b6000818152600d60205260408082208054600290910154915173ffffffffffffffffffffffffffffffffffffffff90911691908381818185875af1925050503d806000811461115b576040519150601f19603f3d011682016040523d82523d6000602084013e611160565b606091505b50509050806105fc576040517f08c379a000000000000000000000000000000000000000000000000000000000815260206004820152600d60248201527f494e565f4445505f434c41494d0000000000000000000000000000000000000060448201526064016106a3565b6000828152600a60205260409020600701548290339062010000900460ff161515600114611255576040517f08c379a000000000000000000000000000000000000000000000000000000000815260206004820152601960248201527f494e56414c49443a2042414c4c4f545f4e4f545f464f554e440000000000000060448201526064016106a3565b6000828152600a602052604090206006015443106112cf576040517f08c379a000000000000000000000000000000000000000000000000000000000815260206004820152601960248201527f494e56414c49443a20564f54494e475f54494d455f4f5645520000000000000060448201526064016106a3565b6000828152600b6020908152604080832073ffffffffffffffffffffffffffffffffffffffff8516845290915290205460ff1615611369576040517f08c379a000000000000000000000000000000000000000000000000000000000815260206004820152601660248201527f494e56414c49443a20414c52454144595f564f5445440000000000000000000060448201526064016106a3565b6000848152600a60205260409020600701548490610100900460ff1615611413576000818152600b6020908152604080832032845290915290205460ff161561140e576040517f08c379a000000000000000000000000000000000000000000000000000000000815260206004820152601660248201527f494e56414c49443a20414c52454144595f564f5445440000000000000000000060448201526064016106a3565b6114a1565b6000818152600a602052604090205473ffffffffffffffffffffffffffffffffffffffff163214156114a1576040517f08c379a000000000000000000000000000000000000000000000000000000000815260206004820152601f60248201527f554e415554484f52495a45443a204f574e45525f43414e4e4f545f564f54450060448201526064016106a3565b6114ac858532611c1d565b5050505050565b600054610100900460ff1661154a576040517f08c379a000000000000000000000000000000000000000000000000000000000815260206004820152602b60248201527f496e697469616c697a61626c653a20636f6e7472616374206973206e6f74206960448201527f6e697469616c697a696e6700000000000000000000000000000000000000000060648201526084016106a3565b6004805473ffffffffffffffffffffffffffffffffffffffff9384167fffffffffffffffffffffffff0000000000000000000000000000000000000000918216811790925560058054821690921790915560088054929093169116179055565b60098054600091826115bb836120e8565b919050555060006040518061014001604052803273ffffffffffffffffffffffffffffffffffffffff168152602001600081526020016000815260200160008152602001600081526020018481526020016002544361161a91906121b2565b81526000602080830182905296151560408084019190915260016060938401819052600980548452600a8a5292829020855181547fffffffffffffffffffffffff00000000000000000000000000000000000000001673ffffffffffffffffffffffffffffffffffffffff909116178155988501519089015583015160028801559082015160038701556080820151600487015560a0820151600587015560c0820151600687015560e08201516007909601805461010080850151610120909501517fffffffffffffffffffffffffffffffffffffffffffffffffffffffffffff00009092169815157fffffffffffffffffffffffffffffffffffffffffffffffffffffffffffff00ff1698909817931515909702929092177fffffffffffffffffffffffffffffffffffffffffffffffffffffffffff00ffff16620100009615159690960295909517905550509054919050565b81600154146117da576040517f08c379a000000000000000000000000000000000000000000000000000000000815260206004820152600760248201527f494e565f4445500000000000000000000000000000000000000000000000000060448201526064016106a3565b6040805160a08101825273ffffffffffffffffffffffffffffffffffffffff948516815260208082018481526001805484860190815260006060860181815260808701848152988252600d90955295909520935184547fffffffffffffffffffffffff000000000000000000000000000000000000000016981697909717835551958201959095559051600282015592516003909301805491517fffffffffffffffffffffffffffffffffffffffffffffffffffffffffffff00009092169315157fffffffffffffffffffffffffffffffffffffffffffffffffffffffffffff00ff1693909317610100911515919091021790915550565b6000838152600a60205260409020600701548390829062010000900460ff16151560011461195c576040517f08c379a000000000000000000000000000000000000000000000000000000000815260206004820152601960248201527f494e56414c49443a2042414c4c4f545f4e4f545f464f554e440000000000000060448201526064016106a3565b6000828152600a602052604090206006015443106119d6576040517f08c379a000000000000000000000000000000000000000000000000000000000815260206004820152601960248201527f494e56414c49443a20564f54494e475f54494d455f4f5645520000000000000060448201526064016106a3565b6000828152600b6020908152604080832073ffffffffffffffffffffffffffffffffffffffff8516845290915290205460ff1615611a70576040517f08c379a000000000000000000000000000000000000000000000000000000000815260206004820152601660248201527f494e56414c49443a20414c52454144595f564f5445440000000000000000000060448201526064016106a3565b6114ac858585611c1d565b6000848152600b6020908152604080832073ffffffffffffffffffffffffffffffffffffffff8716845290915290205460ff161515600114611b3f576040517f08c379a000000000000000000000000000000000000000000000000000000000815260206004820152602560248201527f494e56414c49443a20494e5445524e414c3a20555345525f4841535f4e4f545f60448201527f564f54454400000000000000000000000000000000000000000000000000000060648201526084016106a3565b6000848152600c6020908152604080832073ffffffffffffffffffffffffffffffffffffffff8716845290915290205460ff168015611bca576000858152600a602052604081206001018054859290611b9990849061206d565b90915550506000858152600a602052604081206001018054849290611bbf9084906121b2565b909155506114ac9050565b6000858152600a602052604081206003018054859290611beb90849061206d565b90915550506000858152600a602052604081206003018054849290611c119084906121b2565b90915550505050505050565b6000838152600a60209081526040808320815161014081018352815473ffffffffffffffffffffffffffffffffffffffff908116825260018301549482019490945260028201548184015260038201546060820152600480830154608083015260058084015460a08401819052600685015460c085015260079094015460ff808216151560e08601526101008083048216151590860152620100009091041615156101208401525493517efdd58e000000000000000000000000000000000000000000000000000000008152919594939093169262fdd58e92611d239288920173ffffffffffffffffffffffffffffffffffffffff929092168252602082015260400190565b602060405180830381865afa158015611d40573d6000803e3d6000fd5b505050506040513d601f19601f82011682018060405250810190611d649190612121565b90508315611dbf576000858152600a602052604081206001018054839290611d8d9084906121b2565b90915550506000858152600a60205260408120600201805460019290611db49084906121b2565b90915550611e0d9050565b6000858152600a602052604081206003018054839290611de09084906121b2565b90915550506000858152600a60205260408120600401805460019290611e079084906121b2565b90915550505b50506000838152600b6020908152604080832073ffffffffffffffffffffffffffffffffffffffff94909416808452938252808320805460017fffffffffffffffffffffffffffffffffffffffffffffffffffffffffffffff009182168117909255878552600c8452828520958552948352818420805490951695151595909517909355600e8152918120805493840181558152200155565b600060208284031215611eb857600080fd5b5035919050565b80358015158114611ecf57600080fd5b919050565b60008060408385031215611ee757600080fd5b82359150611ef760208401611ebf565b90509250929050565b803573ffffffffffffffffffffffffffffffffffffffff81168114611ecf57600080fd5b600060208284031215611f3657600080fd5b611f3f82611f00565b9392505050565b60008060408385031215611f5957600080fd5b611f6283611f00565b9150611ef760208401611f00565b60008060408385031215611f8357600080fd5b611f8c83611ebf565b946020939093013593505050565b600080600060608486031215611faf57600080fd5b83359250611fbf60208501611ebf565b9150611fcd60408501611f00565b90509250925092565b60008060008060808587031215611fec57600080fd5b611ff585611f00565b966020860135965060408601359560600135945092505050565b7f4e487b7100000000000000000000000000000000000000000000000000000000600052603260045260246000fd5b7f4e487b7100000000000000000000000000000000000000000000000000000000600052601160045260246000fd5b60008282101561207f5761207f61203e565b500390565b7f4e487b7100000000000000000000000000000000000000000000000000000000600052603160045260246000fd5b6000816120c2576120c261203e565b507fffffffffffffffffffffffffffffffffffffffffffffffffffffffffffffffff0190565b60007fffffffffffffffffffffffffffffffffffffffffffffffffffffffffffffffff82141561211a5761211a61203e565b5060010190565b60006020828403121561213357600080fd5b5051919050565b6000817fffffffffffffffffffffffffffffffffffffffffffffffffffffffffffffffff04831182151516156121725761217261203e565b500290565b6000826121ad577f4e487b7100000000000000000000000000000000000000000000000000000000600052601260045260246000fd5b500490565b600082198211156121c5576121c561203e565b50019056fea2646970667358221220bc563cd6ace4979505670cb4d5b50b3b61ef61c4857602529baae524934cfd4d64736f6c634300080c0033",
  "immutableReferences": {},
  "source": "// SPDX-License-Identifier: MIT\n\npragma solidity ^0.8.0;\n\nimport \"../voting/BaseVotingContract.sol\";\n\ncontract BaseVotingContractMock is BaseVotingContract {\n    uint256 private LastTokenId = 1;\n\n    /// @dev this event is generated when result of a ballot is declared\n    /// @param ballotId this is the ballot Id for which result is declared\n    /// @param result this is the status of the result either true if user won that is he received\n    /// @param minTurnOut this status indicates if minimum amount of user showed up for voting\n    /// more than 66% of votes or false if user lost\n    event BallotResult(uint256 ballotId, bool result, bool minTurnOut);\n\n    /// @dev this event is generated when result of a ballot is declared\n    /// @param ballotId this is the ballot Id which is generated\n    event BallotCreated(uint256 ballotId);\n\n    constructor(uint8 votingInterval, address owner) BaseVotingContract(owner) {\n        VOTING_BLOCK_PERIOD = votingInterval;\n    }\n\n    /// @dev This is to set the address of the contracts\n    /// @param newTreasuryContractAddress This is the address of new treasury contract\n    /// @param newGovernanceContractAddress This is the address for the governance contract\n    function initialize(\n        address newTreasuryContractAddress,\n        address newGovernanceContractAddress\n    ) public override initializer _ownerOnly {\n        BaseVotingContract.initialize(\n            newTreasuryContractAddress,\n            newGovernanceContractAddress\n        );\n    }\n\n    function createBallot(bool canOwnerVote, uint256 tokenId) public payable {\n        uint256 ballotId = _createVoting(canOwnerVote, tokenId);\n        _createDeposit(msg.sender, msg.value, ballotId);\n        emit BallotCreated(ballotId);\n    }\n\n    function castVote(uint256 ballotId, bool vote) public {\n        _castVote(ballotId, vote);\n    }\n\n    function castVoteForOther(\n        uint256 ballotId,\n        bool vote,\n        address voter\n    ) public {\n        _castVoteForOther(ballotId, vote, voter);\n    }\n\n    function declareWinner(uint256 ballotId) public {\n        (bool result, bool minTurnOut) = _declareWinner(ballotId);\n        _releaseDeposit(ballotId);\n        emit BallotResult(ballotId, result, minTurnOut);\n    }\n}\n",
  "sourcePath": "/Users/a1/Desktop/Office/projects/CrowdRecords/Contracts/contracts/Mocks/BaseVotingContractMock.sol",
  "compiler": {
    "name": "solc",
    "version": "0.8.12+commit.f00d7308.Emscripten.clang"
  },
  "schemaVersion": "3.4.6",
  "updatedAt": "2023-07-30T18:56:00.925Z",
  "devdoc": {
    "events": {
      "BallotCreated(uint256)": {
        "details": "this event is generated when result of a ballot is declared",
        "params": {
          "ballotId": "this is the ballot Id which is generated"
        }
      },
      "BallotResult(uint256,bool,bool)": {
        "details": "this event is generated when result of a ballot is declared",
        "params": {
          "ballotId": "this is the ballot Id for which result is declared",
          "minTurnOut": "this status indicates if minimum amount of user showed up for voting more than 66% of votes or false if user lost",
          "result": "this is the status of the result either true if user won that is he received"
        }
      }
    },
    "kind": "dev",
    "methods": {
      "_handleUserTokenTransfers(address,uint256,uint256,uint256)": {
        "details": "This function will be called when either user is transferring the tokens to other account, or is receiving tokens from other tokens.",
        "params": {
          "newBalance": "this is the new balance of the user that is after the transfer",
          "previousBalance": "this is the old balance of the user",
          "user": "address of the user whose balance is being changed"
        }
      },
      "initialize(address,address)": {
        "details": "This is to set the address of the contracts",
        "params": {
          "newGovernanceContractAddress": "This is the address for the governance contract",
          "newTreasuryContractAddress": "This is the address of new treasury contract"
        }
      },
      "setDepositAmount(uint256)": {
        "details": "This function sets the VOTING_DEPOSIT percentage",
        "params": {
          "depositAmount": "This is the new deposit amount needed for creating ballot"
        }
      },
      "setMinTurnOut(uint256)": {
        "details": "This function sets the MIN_TURN_OUT percentage",
        "params": {
          "minTurnOut": "This is the new turnout percentage value"
        }
      },
      "setOwnerAddress(address)": {
        "details": "This function sets the owner address",
        "params": {
          "ownerAddress": "This is the address of the owner"
        }
      },
      "setVotingPeriod(uint256)": {
        "details": "This function sets the VOTING_BLOCK_PERIOD percentage",
        "params": {
          "votingPeriod": "This is the voting period"
        }
      }
    },
    "version": 1
  },
  "userdoc": {
    "kind": "user",
    "methods": {},
    "version": 1
  }
}