{
  "contractName": "BaseVotingCounterOfferContractMock",
  "abi": [
    {
      "inputs": [
        {
          "internalType": "uint8",
          "name": "votingInterval",
          "type": "uint8"
        }
      ],
      "stateMutability": "nonpayable",
      "type": "constructor"
    },
    {
      "anonymous": false,
      "inputs": [
        {
          "indexed": false,
          "internalType": "uint256",
          "name": "ballotId",
          "type": "uint256"
        },
        {
          "indexed": false,
          "internalType": "bool",
          "name": "result",
          "type": "bool"
        }
      ],
      "name": "BallotResult",
      "type": "event"
    },
    {
      "anonymous": false,
      "inputs": [
        {
          "indexed": false,
          "internalType": "address",
          "name": "contractAddress",
          "type": "address"
        },
        {
          "indexed": false,
          "internalType": "uint256",
          "name": "previousBal",
          "type": "uint256"
        },
        {
          "indexed": false,
          "internalType": "uint256",
          "name": "nextBal",
          "type": "uint256"
        }
      ],
      "name": "DEBUG2",
      "type": "event"
    },
    {
      "inputs": [],
      "name": "TREASURY_CONTRACT_ADDRESS",
      "outputs": [
        {
          "internalType": "address",
          "name": "",
          "type": "address"
        }
      ],
      "stateMutability": "view",
      "type": "function"
    },
    {
      "inputs": [],
      "name": "TREASURY_HUB_ADDRESS",
      "outputs": [
        {
          "internalType": "address",
          "name": "",
          "type": "address"
        }
      ],
      "stateMutability": "view",
      "type": "function"
    },
    {
      "inputs": [
        {
          "internalType": "address",
          "name": "user",
          "type": "address"
        },
        {
          "internalType": "uint256",
          "name": "tokenId",
          "type": "uint256"
        },
        {
          "internalType": "uint256",
          "name": "previousBalance",
          "type": "uint256"
        },
        {
          "internalType": "uint256",
          "name": "newBalance",
          "type": "uint256"
        }
      ],
      "name": "_handleUserTokenTransfers",
      "outputs": [],
      "stateMutability": "nonpayable",
      "type": "function"
    },
    {
      "inputs": [
        {
          "internalType": "address",
          "name": "newTreasuryContractAddress",
          "type": "address"
        }
      ],
      "name": "setTreasuryContractAddress",
      "outputs": [],
      "stateMutability": "nonpayable",
      "type": "function"
    },
    {
      "inputs": [
        {
          "internalType": "bool",
          "name": "canOwnerVote",
          "type": "bool"
        },
        {
          "internalType": "uint256",
          "name": "tokenId",
          "type": "uint256"
        }
      ],
      "name": "createBallot",
      "outputs": [],
      "stateMutability": "nonpayable",
      "type": "function"
    },
    {
      "inputs": [
        {
          "internalType": "uint256",
          "name": "ballotId",
          "type": "uint256"
        },
        {
          "internalType": "bool",
          "name": "vote",
          "type": "bool"
        }
      ],
      "name": "castVote",
      "outputs": [],
      "stateMutability": "nonpayable",
      "type": "function"
    },
    {
      "inputs": [
        {
          "internalType": "uint256",
          "name": "ballotId",
          "type": "uint256"
        }
      ],
      "name": "createCounterOffer",
      "outputs": [],
      "stateMutability": "nonpayable",
      "type": "function"
    },
    {
      "inputs": [
        {
          "internalType": "uint256",
          "name": "votingBallotId",
          "type": "uint256"
        },
        {
          "internalType": "address",
          "name": "user",
          "type": "address"
        },
        {
          "internalType": "bool",
          "name": "vote",
          "type": "bool"
        }
      ],
      "name": "counterOfferAction",
      "outputs": [],
      "stateMutability": "nonpayable",
      "type": "function"
    },
    {
      "inputs": [
        {
          "internalType": "uint256",
          "name": "ballotId",
          "type": "uint256"
        }
      ],
      "name": "declareWinner",
      "outputs": [],
      "stateMutability": "nonpayable",
      "type": "function"
    }
  ],
  "bytecode": "0x6080604052601960005560006004556001600a553480156200002057600080fd5b50604051620023bc380380620023bc8339818101604052810190620000469190620000db565b33600360006101000a81548173ffffffffffffffffffffffffffffffffffffffff021916908373ffffffffffffffffffffffffffffffffffffffff1602179055508060ff16600081905550506200010d565b600080fd5b600060ff82169050919050565b620000b5816200009d565b8114620000c157600080fd5b50565b600081519050620000d581620000aa565b92915050565b600060208284031215620000f457620000f362000098565b5b60006200010484828501620000c4565b91505092915050565b61229f806200011d6000396000f3fe608060405234801561001057600080fd5b50600436106100925760003560e01c8063716085f611610066578063716085f6146101075780638d2ae1f714610123578063abb7ed7f14610141578063acb314931461015d578063db15ef5f1461017b57610092565b8062c2943c1461009757806315373e3d146100b35780634cf2d48f146100cf5780636dce8664146100eb575b600080fd5b6100b160048036038101906100ac9190611838565b610197565b005b6100cd60048036038101906100c8919061189d565b6101e1565b005b6100e960048036038101906100e4919061193b565b6101ef565b005b61010560048036038101906101009190611968565b61028b565b005b610121600480360381019061011c9190611838565b61029a565b005b61012b6102a6565b60405161013891906119b7565b60405180910390f35b61015b600480360381019061015691906119d2565b6102cc565b005b610165610500565b60405161017291906119b7565b60405180910390f35b61019560048036038101906101909190611a39565b610526565b005b60006101a282610536565b90507f53d10fab88267d8231908eb87e8f64a19ceecd01180ef034a610f9b35783ba5382826040516101d5929190611aaa565b60405180910390a15050565b6101eb82826107b3565b5050565b600360009054906101000a900473ffffffffffffffffffffffffffffffffffffffff1673ffffffffffffffffffffffffffffffffffffffff163373ffffffffffffffffffffffffffffffffffffffff161461027f576040517f08c379a000000000000000000000000000000000000000000000000000000000815260040161027690611b56565b60405180910390fd5b61028881610867565b50565b610295828261093b565b505050565b6102a381610ad8565b50565b600260009054906101000a900473ffffffffffffffffffffffffffffffffffffffff1681565b7fce745f624257e308d136e6727da2d12784ad0063921f5d7c5f379685d6c63e363083836040516102ff93929190611b76565b60405180910390a16000600860008673ffffffffffffffffffffffffffffffffffffffff1673ffffffffffffffffffffffffffffffffffffffff168152602001908152602001600020905060005b81805490508110156104f857600115156005600084848154811061037457610373611bad565b5b9060005260206000200154815260200190815260200160002060070160009054906101000a900460ff16151514806103de575043600560008484815481106103bf576103be611bad565b5b9060005260206000200154815260200190815260200160002060060154105b1561047f5781600183805490506103f59190611c0b565b8154811061040657610405611bad565b5b906000526020600020015482828154811061042457610423611bad565b5b90600052602060002001819055508180548061044357610442611c3f565b5b60019003818190600052602060002001600090559055600081141561046b576000905061047a565b808061047690611c6e565b9150505b6104e5565b6005600083838154811061049657610495611bad565b5b90600052602060002001548152602001908152602001600020600501548514156104e4576104e38282815481106104d0576104cf611bad565b5b9060005260206000200154878686610d54565b5b5b80806104f090611c98565b91505061034d565b505050505050565b600160009054906101000a900473ffffffffffffffffffffffffffffffffffffffff1681565b610531838383610f21565b505050565b6000600115156005600084815260200190815260200160002060070160029054906101000a900460ff161515146105a2576040517f08c379a000000000000000000000000000000000000000000000000000000000815260040161059990611d2d565b60405180910390fd5b436005600084815260200190815260200160002060060154106105fa576040517f08c379a00000000000000000000000000000000000000000000000000000000081526004016105f190611d99565b60405180910390fd5b600015156005600084815260200190815260200160002060070160009054906101000a900460ff16151514610664576040517f08c379a000000000000000000000000000000000000000000000000000000000815260040161065b90611e05565b60405180910390fd5b60006005600084815260200190815260200160002090506000816001015490506000600160009054906101000a900473ffffffffffffffffffffffffffffffffffffffff16905060016005600087815260200190815260200160002060070160006101000a81548160ff02191690831515021790555060008211156107a65760008173ffffffffffffffffffffffffffffffffffffffff1663036c22ad85600501546040518263ffffffff1660e01b81526004016107229190611e25565b602060405180830381865afa15801561073f573d6000803e3d6000fd5b505050506040513d601f19601f820116820180604052508101906107639190611e55565b9050600060646042836107769190611e82565b6107809190611f0b565b905080841115610798576001955050505050506107ae565b6000955050505050506107ae565b600093505050505b919050565b81600015156009600083815260200190815260200160002060003373ffffffffffffffffffffffffffffffffffffffff1673ffffffffffffffffffffffffffffffffffffffff16815260200190815260200160002060009054906101000a900460ff16151514610858576040517f08c379a000000000000000000000000000000000000000000000000000000000815260040161084f90611fae565b60405180910390fd5b6108628383610fd9565b505050565b600360009054906101000a900473ffffffffffffffffffffffffffffffffffffffff1673ffffffffffffffffffffffffffffffffffffffff163373ffffffffffffffffffffffffffffffffffffffff16146108f7576040517f08c379a00000000000000000000000000000000000000000000000000000000081526004016108ee90611b56565b60405180910390fd5b80600160006101000a81548173ffffffffffffffffffffffffffffffffffffffff021916908373ffffffffffffffffffffffffffffffffffffffff16021790555050565b60006004600081548092919061095090611c98565b919050555060006040518061014001604052803273ffffffffffffffffffffffffffffffffffffffff16815260200160008152602001600081526020016000815260200160008152602001848152602001600054436109af9190611fce565b815260200160001515815260200185151581526020016001151581525090508060056000600454815260200190815260200160002060008201518160000160006101000a81548173ffffffffffffffffffffffffffffffffffffffff021916908373ffffffffffffffffffffffffffffffffffffffff1602179055506020820151816001015560408201518160020155606082015181600301556080820151816004015560a0820151816005015560c0820151816006015560e08201518160070160006101000a81548160ff0219169083151502179055506101008201518160070160016101000a81548160ff0219169083151502179055506101208201518160070160026101000a81548160ff02191690831515021790555090505060045491505092915050565b80600015156009600083815260200190815260200160002060003373ffffffffffffffffffffffffffffffffffffffff1673ffffffffffffffffffffffffffffffffffffffff16815260200190815260200160002060009054906101000a900460ff16151514610b7d576040517f08c379a0000000000000000000000000000000000000000000000000000000008152600401610b7490611fae565b60405180910390fd5b8133600115156005600084815260200190815260200160002060070160029054906101000a900460ff16151514610be9576040517f08c379a0000000000000000000000000000000000000000000000000000000008152600401610be090611d2d565b60405180910390fd5b43600560008481526020019081526020016000206006015411610c41576040517f08c379a0000000000000000000000000000000000000000000000000000000008152600401610c3890612070565b60405180910390fd5b600015156006600084815260200190815260200160002060008373ffffffffffffffffffffffffffffffffffffffff1673ffffffffffffffffffffffffffffffffffffffff16815260200190815260200160002060009054906101000a900460ff16151514610ce5576040517f08c379a0000000000000000000000000000000000000000000000000000000008152600401610cdc906120dc565b60405180910390fd5b60016009600086815260200190815260200160002060003373ffffffffffffffffffffffffffffffffffffffff1673ffffffffffffffffffffffffffffffffffffffff16815260200190815260200160002060006101000a81548160ff02191690831515021790555050505050565b600115156006600086815260200190815260200160002060008573ffffffffffffffffffffffffffffffffffffffff1673ffffffffffffffffffffffffffffffffffffffff16815260200190815260200160002060009054906101000a900460ff16151514610df8576040517f08c379a0000000000000000000000000000000000000000000000000000000008152600401610def90612148565b60405180910390fd5b60006007600086815260200190815260200160002060008573ffffffffffffffffffffffffffffffffffffffff1673ffffffffffffffffffffffffffffffffffffffff16815260200190815260200160002060009054906101000a900460ff1690508015610ebf5782600560008781526020019081526020016000206001016000828254610e869190611c0b565b9250508190555081600560008781526020019081526020016000206001016000828254610eb39190611fce565b92505081905550610f1a565b82600560008781526020019081526020016000206003016000828254610ee59190611c0b565b9250508190555081600560008781526020019081526020016000206003016000828254610f129190611fce565b925050819055505b5050505050565b8282600115156009600084815260200190815260200160002060008373ffffffffffffffffffffffffffffffffffffffff1673ffffffffffffffffffffffffffffffffffffffff16815260200190815260200160002060009054906101000a900460ff16151514610fc7576040517f08c379a0000000000000000000000000000000000000000000000000000000008152600401610fbe906121b4565b60405180910390fd5b610fd28584866112cc565b5050505050565b8133600115156005600084815260200190815260200160002060070160029054906101000a900460ff16151514611045576040517f08c379a000000000000000000000000000000000000000000000000000000000815260040161103c90611d2d565b60405180910390fd5b4360056000848152602001908152602001600020600601541161109d576040517f08c379a000000000000000000000000000000000000000000000000000000000815260040161109490612070565b60405180910390fd5b600015156006600084815260200190815260200160002060008373ffffffffffffffffffffffffffffffffffffffff1673ffffffffffffffffffffffffffffffffffffffff16815260200190815260200160002060009054906101000a900460ff16151514611141576040517f08c379a0000000000000000000000000000000000000000000000000000000008152600401611138906120dc565b60405180910390fd5b836005600082815260200190815260200160002060070160019054906101000a900460ff161561121457600015156006600083815260200190815260200160002060003273ffffffffffffffffffffffffffffffffffffffff1673ffffffffffffffffffffffffffffffffffffffff16815260200190815260200160002060009054906101000a900460ff1615151461120f576040517f08c379a0000000000000000000000000000000000000000000000000000000008152600401611206906120dc565b60405180910390fd5b6112ba565b6005600082815260200190815260200160002060000160009054906101000a900473ffffffffffffffffffffffffffffffffffffffff1673ffffffffffffffffffffffffffffffffffffffff163273ffffffffffffffffffffffffffffffffffffffff1614156112b9576040517f08c379a00000000000000000000000000000000000000000000000000000000081526004016112b090612220565b60405180910390fd5b5b6112c5858532611446565b5050505050565b8281600115156005600084815260200190815260200160002060070160029054906101000a900460ff16151514611338576040517f08c379a000000000000000000000000000000000000000000000000000000000815260040161132f90611d2d565b60405180910390fd5b43600560008481526020019081526020016000206006015411611390576040517f08c379a000000000000000000000000000000000000000000000000000000000815260040161138790612070565b60405180910390fd5b600015156006600084815260200190815260200160002060008373ffffffffffffffffffffffffffffffffffffffff1673ffffffffffffffffffffffffffffffffffffffff16815260200190815260200160002060009054906101000a900460ff16151514611434576040517f08c379a000000000000000000000000000000000000000000000000000000000815260040161142b906120dc565b60405180910390fd5b61143f858585611446565b5050505050565b6000600160009054906101000a900473ffffffffffffffffffffffffffffffffffffffff169050600060056000868152602001908152602001600020604051806101400160405290816000820160009054906101000a900473ffffffffffffffffffffffffffffffffffffffff1673ffffffffffffffffffffffffffffffffffffffff1673ffffffffffffffffffffffffffffffffffffffff1681526020016001820154815260200160028201548152602001600382015481526020016004820154815260200160058201548152602001600682015481526020016007820160009054906101000a900460ff161515151581526020016007820160019054906101000a900460ff161515151581526020016007820160029054906101000a900460ff161515151581525050905060008273ffffffffffffffffffffffffffffffffffffffff1662fdd58e858460a001516040518363ffffffff1660e01b81526004016115b3929190612240565b602060405180830381865afa1580156115d0573d6000803e3d6000fd5b505050506040513d601f19601f820116820180604052508101906115f49190611e55565b9050841561165c57806005600088815260200190815260200160002060010160008282546116229190611fce565b9250508190555060016005600088815260200190815260200160002060020160008282546116509190611fce565b925050819055506116b8565b806005600088815260200190815260200160002060030160008282546116829190611fce565b9250508190555060016005600088815260200190815260200160002060040160008282546116b09190611fce565b925050819055505b60016006600088815260200190815260200160002060008673ffffffffffffffffffffffffffffffffffffffff1673ffffffffffffffffffffffffffffffffffffffff16815260200190815260200160002060006101000a81548160ff021916908315150217905550846007600088815260200190815260200160002060008673ffffffffffffffffffffffffffffffffffffffff1673ffffffffffffffffffffffffffffffffffffffff16815260200190815260200160002060006101000a81548160ff0219169083151502179055506000600860008673ffffffffffffffffffffffffffffffffffffffff1673ffffffffffffffffffffffffffffffffffffffff16815260200190815260200160002090508087908060018154018082558091505060019003906000526020600020016000909190919091505550505050505050565b600080fd5b6000819050919050565b61181581611802565b811461182057600080fd5b50565b6000813590506118328161180c565b92915050565b60006020828403121561184e5761184d6117fd565b5b600061185c84828501611823565b91505092915050565b60008115159050919050565b61187a81611865565b811461188557600080fd5b50565b60008135905061189781611871565b92915050565b600080604083850312156118b4576118b36117fd565b5b60006118c285828601611823565b92505060206118d385828601611888565b9150509250929050565b600073ffffffffffffffffffffffffffffffffffffffff82169050919050565b6000611908826118dd565b9050919050565b611918816118fd565b811461192357600080fd5b50565b6000813590506119358161190f565b92915050565b600060208284031215611951576119506117fd565b5b600061195f84828501611926565b91505092915050565b6000806040838503121561197f5761197e6117fd565b5b600061198d85828601611888565b925050602061199e85828601611823565b9150509250929050565b6119b1816118fd565b82525050565b60006020820190506119cc60008301846119a8565b92915050565b600080600080608085870312156119ec576119eb6117fd565b5b60006119fa87828801611926565b9450506020611a0b87828801611823565b9350506040611a1c87828801611823565b9250506060611a2d87828801611823565b91505092959194509250565b600080600060608486031215611a5257611a516117fd565b5b6000611a6086828701611823565b9350506020611a7186828701611926565b9250506040611a8286828701611888565b9150509250925092565b611a9581611802565b82525050565b611aa481611865565b82525050565b6000604082019050611abf6000830185611a8c565b611acc6020830184611a9b565b9392505050565b600082825260208201905092915050565b7f596f7520617265206e6f7420617574686f72697a656420666f7220746869732060008201527f616374696f6e0000000000000000000000000000000000000000000000000000602082015250565b6000611b40602683611ad3565b9150611b4b82611ae4565b604082019050919050565b60006020820190508181036000830152611b6f81611b33565b9050919050565b6000606082019050611b8b60008301866119a8565b611b986020830185611a8c565b611ba56040830184611a8c565b949350505050565b7f4e487b7100000000000000000000000000000000000000000000000000000000600052603260045260246000fd5b7f4e487b7100000000000000000000000000000000000000000000000000000000600052601160045260246000fd5b6000611c1682611802565b9150611c2183611802565b925082821015611c3457611c33611bdc565b5b828203905092915050565b7f4e487b7100000000000000000000000000000000000000000000000000000000600052603160045260246000fd5b6000611c7982611802565b91506000821415611c8d57611c8c611bdc565b5b600182039050919050565b6000611ca382611802565b91507fffffffffffffffffffffffffffffffffffffffffffffffffffffffffffffffff821415611cd657611cd5611bdc565b5b600182019050919050565b7f4e6f2062616c6c6f74207769746820796f757220696420697320666f756e6400600082015250565b6000611d17601f83611ad3565b9150611d2282611ce1565b602082019050919050565b60006020820190508181036000830152611d4681611d0a565b9050919050565b7f566f74696e672074696d65206973206e6f74206f766572207965740000000000600082015250565b6000611d83601b83611ad3565b9150611d8e82611d4d565b602082019050919050565b60006020820190508181036000830152611db281611d76565b9050919050565b7f526573756c7420616c7265616479206465636c61726564000000000000000000600082015250565b6000611def601783611ad3565b9150611dfa82611db9565b602082019050919050565b60006020820190508181036000830152611e1e81611de2565b9050919050565b6000602082019050611e3a6000830184611a8c565b92915050565b600081519050611e4f8161180c565b92915050565b600060208284031215611e6b57611e6a6117fd565b5b6000611e7984828501611e40565b91505092915050565b6000611e8d82611802565b9150611e9883611802565b9250817fffffffffffffffffffffffffffffffffffffffffffffffffffffffffffffffff0483118215151615611ed157611ed0611bdc565b5b828202905092915050565b7f4e487b7100000000000000000000000000000000000000000000000000000000600052601260045260246000fd5b6000611f1682611802565b9150611f2183611802565b925082611f3157611f30611edc565b5b828204905092915050565b7f596f75206861766520616c726561647920676976656e206120636f756e74657260008201527f206f666665720000000000000000000000000000000000000000000000000000602082015250565b6000611f98602683611ad3565b9150611fa382611f3c565b604082019050919050565b60006020820190508181036000830152611fc781611f8b565b9050919050565b6000611fd982611802565b9150611fe483611802565b9250827fffffffffffffffffffffffffffffffffffffffffffffffffffffffffffffffff0382111561201957612018611bdc565b5b828201905092915050565b7f566f74696e672074696d65206973206f76657200000000000000000000000000600082015250565b600061205a601383611ad3565b915061206582612024565b602082019050919050565b600060208201905081810360008301526120898161204d565b9050919050565b7f596f75206861766520616c726561647920766f74656400000000000000000000600082015250565b60006120c6601683611ad3565b91506120d182612090565b602082019050919050565b600060208201905081810360008301526120f5816120b9565b9050919050565b7f5573657220686173206e6f7420766f7465642079657400000000000000000000600082015250565b6000612132601683611ad3565b915061213d826120fc565b602082019050919050565b6000602082019050818103600083015261216181612125565b9050919050565b7f436f756e746572206f6666657220646f65736e27742065786973747300000000600082015250565b600061219e601c83611ad3565b91506121a982612168565b602082019050919050565b600060208201905081810360008301526121cd81612191565b9050919050565b7f4f776e65722063616e6e6f7420766f7465000000000000000000000000000000600082015250565b600061220a601183611ad3565b9150612215826121d4565b602082019050919050565b60006020820190508181036000830152612239816121fd565b9050919050565b600060408201905061225560008301856119a8565b6122626020830184611a8c565b939250505056fea2646970667358221220cac7b974b154ddd37fc4b0c621d85b72c18fe7118a3c363cc3d2ecd76007d43964736f6c634300080c0033",
  "immutableReferences": {},
  "source": "// SPDX-License-Identifier: MIT\n\npragma solidity ^0.8.0;\n\nimport \"../voting/BaseVotingCounterOfferContract.sol\";\n\ncontract BaseVotingCounterOfferContractMock is BaseVotingCounterOfferContract {\n    uint256 private LastTokenId = 1;\n\n    /**\n        @dev this event is genrated when result of a ballot is declared\n        @param ballotId this is the ballot Id for which result is declared \n        @param result this is the status of the result //either true if user won that is he recived more than 66% of votes or false if user lost \n     */\n    event BallotResult(uint256 ballotId, bool result);\n\n    constructor(uint8 votingInterval) {\n        VOTING_BLOCK_PERIOD = votingInterval;\n    }\n\n    /**\n     * @dev This function sets the treasury Contract address\n     */\n    function setTreasuryContractAddress(address newTreasuryContractAddress)\n        external\n        _ownerOnly\n    {\n        _setTreasuryContractAddress(newTreasuryContractAddress);\n    }\n\n    function createBallot(bool canOwnerVote, uint256 tokenId) public {\n        _createVoting(canOwnerVote, tokenId);\n    }\n\n    function castVote(uint256 ballotId, bool vote) public {\n        _castVote(ballotId, vote);\n    }\n\n    function createCounterOffer(uint256 ballotId) public {\n        _createCounterOffer(ballotId);\n    }\n\n    function counterOfferAction(\n        uint256 votingBallotId,\n        address user,\n        bool vote\n    ) public {\n        _counterOfferAction(votingBallotId, user, vote);\n    }\n\n    function declareWinner(uint256 ballotId) public {\n        bool result = _declareWinner(ballotId);\n        emit BallotResult(ballotId, result);\n    }\n}\n",
  "sourcePath": "/Users/a1/Desktop/Office/projects/CrowdRecords/Contracts/contracts/Mocks/BaseVotingCounterOfferContractMock.sol",
  "compiler": {
    "name": "solc",
    "version": "0.8.12+commit.f00d7308.Emscripten.clang"
  },
  "schemaVersion": "3.4.6",
  "updatedAt": "2022-08-08T09:14:59.954Z",
  "devdoc": {
    "events": {
      "BallotResult(uint256,bool)": {
        "details": "this event is genrated when result of a ballot is declared",
        "params": {
          "ballotId": "this is the ballot Id for which result is declared ",
          "result": "this is the status of the result //either true if user won that is he recived more than 66% of votes or false if user lost "
        }
      }
    },
    "kind": "dev",
    "methods": {
      "_handleUserTokenTransfers(address,uint256,uint256,uint256)": {
        "details": "This function will be called when either user is transferring the tokens to other account, or is receiving tokens from other tokens.",
        "params": {
          "newBalance": "this is the new balance of the user that is after the transfer",
          "previousBalance": "this is the old balance of the user",
          "user": "address of the user whose balance is being changed"
        }
      },
      "setTreasuryContractAddress(address)": {
        "details": "This function sets the treasury Contract address"
      }
    },
    "version": 1
  },
  "userdoc": {
    "kind": "user",
    "methods": {},
    "version": 1
  }
}