{
  "contractName": "BaseVotingCounterOfferContractMock",
  "abi": [
    {
      "inputs": [
        {
          "internalType": "uint8",
          "name": "votingInterval",
          "type": "uint8"
        }
      ],
      "stateMutability": "nonpayable",
      "type": "constructor"
    },
    {
      "anonymous": false,
      "inputs": [
        {
          "indexed": false,
          "internalType": "uint256",
          "name": "ballotId",
          "type": "uint256"
        },
        {
          "indexed": false,
          "internalType": "bool",
          "name": "result",
          "type": "bool"
        }
      ],
      "name": "BallotResult",
      "type": "event"
    },
    {
      "inputs": [],
      "name": "TREASURY_CONTRACT_ADDRESS",
      "outputs": [
        {
          "internalType": "address",
          "name": "",
          "type": "address"
        }
      ],
      "stateMutability": "view",
      "type": "function",
      "constant": true
    },
    {
      "inputs": [],
      "name": "TREASURY_HUB_ADDRESS",
      "outputs": [
        {
          "internalType": "address",
          "name": "",
          "type": "address"
        }
      ],
      "stateMutability": "view",
      "type": "function",
      "constant": true
    },
    {
      "inputs": [
        {
          "internalType": "address",
          "name": "user",
          "type": "address"
        },
        {
          "internalType": "uint256",
          "name": "tokenId",
          "type": "uint256"
        },
        {
          "internalType": "uint256",
          "name": "previousBalance",
          "type": "uint256"
        },
        {
          "internalType": "uint256",
          "name": "newBalance",
          "type": "uint256"
        }
      ],
      "name": "_handleUserTokenTransfers",
      "outputs": [],
      "stateMutability": "nonpayable",
      "type": "function"
    },
    {
      "inputs": [
        {
          "internalType": "address",
          "name": "newTreasuryContractAddress",
          "type": "address"
        }
      ],
      "name": "setTreasuryContractAddress",
      "outputs": [],
      "stateMutability": "nonpayable",
      "type": "function"
    },
    {
      "inputs": [
        {
          "internalType": "bool",
          "name": "canOwnerVote",
          "type": "bool"
        },
        {
          "internalType": "uint256",
          "name": "tokenId",
          "type": "uint256"
        }
      ],
      "name": "createBallot",
      "outputs": [],
      "stateMutability": "nonpayable",
      "type": "function"
    },
    {
      "inputs": [
        {
          "internalType": "uint256",
          "name": "ballotId",
          "type": "uint256"
        },
        {
          "internalType": "bool",
          "name": "vote",
          "type": "bool"
        }
      ],
      "name": "castVote",
      "outputs": [],
      "stateMutability": "nonpayable",
      "type": "function"
    },
    {
      "inputs": [
        {
          "internalType": "uint256",
          "name": "ballotId",
          "type": "uint256"
        }
      ],
      "name": "createCounterOffer",
      "outputs": [],
      "stateMutability": "nonpayable",
      "type": "function"
    },
    {
      "inputs": [
        {
          "internalType": "uint256",
          "name": "votingBallotId",
          "type": "uint256"
        },
        {
          "internalType": "address",
          "name": "user",
          "type": "address"
        },
        {
          "internalType": "bool",
          "name": "vote",
          "type": "bool"
        }
      ],
      "name": "counterOfferAction",
      "outputs": [],
      "stateMutability": "nonpayable",
      "type": "function"
    },
    {
      "inputs": [
        {
          "internalType": "uint256",
          "name": "ballotId",
          "type": "uint256"
        }
      ],
      "name": "declareWinner",
      "outputs": [],
      "stateMutability": "nonpayable",
      "type": "function"
    }
  ],
  "bytecode": "0x6080604052601960005560006004556001600a553480156200002057600080fd5b506040516200234a3803806200234a8339818101604052810190620000469190620000db565b33600360006101000a81548173ffffffffffffffffffffffffffffffffffffffff021916908373ffffffffffffffffffffffffffffffffffffffff1602179055508060ff16600081905550506200010d565b600080fd5b600060ff82169050919050565b620000b5816200009d565b8114620000c157600080fd5b50565b600081519050620000d581620000aa565b92915050565b600060208284031215620000f457620000f362000098565b5b60006200010484828501620000c4565b91505092915050565b61222d806200011d6000396000f3fe608060405234801561001057600080fd5b50600436106100925760003560e01c8063716085f611610066578063716085f6146101075780638d2ae1f714610123578063abb7ed7f14610141578063acb314931461015d578063db15ef5f1461017b57610092565b8062c2943c1461009757806315373e3d146100b35780634cf2d48f146100cf5780636dce8664146100eb575b600080fd5b6100b160048036038101906100ac91906117fd565b610197565b005b6100cd60048036038101906100c89190611862565b6101e1565b005b6100e960048036038101906100e49190611900565b6101ef565b005b6101056004803603810190610100919061192d565b61028b565b005b610121600480360381019061011c91906117fd565b61029a565b005b61012b6102a6565b604051610138919061197c565b60405180910390f35b61015b60048036038101906101569190611997565b6102cc565b005b6101656104c5565b604051610172919061197c565b60405180910390f35b610195600480360381019061019091906119fe565b6104eb565b005b60006101a2826104fb565b90507f53d10fab88267d8231908eb87e8f64a19ceecd01180ef034a610f9b35783ba5382826040516101d5929190611a6f565b60405180910390a15050565b6101eb8282610778565b5050565b600360009054906101000a900473ffffffffffffffffffffffffffffffffffffffff1673ffffffffffffffffffffffffffffffffffffffff163373ffffffffffffffffffffffffffffffffffffffff161461027f576040517f08c379a000000000000000000000000000000000000000000000000000000000815260040161027690611b1b565b60405180910390fd5b6102888161082c565b50565b6102958282610900565b505050565b6102a381610a9d565b50565b600260009054906101000a900473ffffffffffffffffffffffffffffffffffffffff1681565b6000600860008673ffffffffffffffffffffffffffffffffffffffff1673ffffffffffffffffffffffffffffffffffffffff168152602001908152602001600020905060005b81805490508110156104bd57600115156005600084848154811061033957610338611b3b565b5b9060005260206000200154815260200190815260200160002060070160009054906101000a900460ff16151514806103a35750436005600084848154811061038457610383611b3b565b5b9060005260206000200154815260200190815260200160002060060154105b156104445781600183805490506103ba9190611b99565b815481106103cb576103ca611b3b565b5b90600052602060002001548282815481106103e9576103e8611b3b565b5b90600052602060002001819055508180548061040857610407611bcd565b5b600190038181906000526020600020016000905590556000811415610430576000905061043f565b808061043b90611bfc565b9150505b6104aa565b6005600083838154811061045b5761045a611b3b565b5b90600052602060002001548152602001908152602001600020600501548514156104a9576104a882828154811061049557610494611b3b565b5b9060005260206000200154878686610d19565b5b5b80806104b590611c26565b915050610312565b505050505050565b600160009054906101000a900473ffffffffffffffffffffffffffffffffffffffff1681565b6104f6838383610ee6565b505050565b6000600115156005600084815260200190815260200160002060070160029054906101000a900460ff16151514610567576040517f08c379a000000000000000000000000000000000000000000000000000000000815260040161055e90611cbb565b60405180910390fd5b436005600084815260200190815260200160002060060154106105bf576040517f08c379a00000000000000000000000000000000000000000000000000000000081526004016105b690611d27565b60405180910390fd5b600015156005600084815260200190815260200160002060070160009054906101000a900460ff16151514610629576040517f08c379a000000000000000000000000000000000000000000000000000000000815260040161062090611d93565b60405180910390fd5b60006005600084815260200190815260200160002090506000816001015490506000600160009054906101000a900473ffffffffffffffffffffffffffffffffffffffff16905060016005600087815260200190815260200160002060070160006101000a81548160ff021916908315150217905550600082111561076b5760008173ffffffffffffffffffffffffffffffffffffffff1663036c22ad85600501546040518263ffffffff1660e01b81526004016106e79190611db3565b602060405180830381865afa158015610704573d6000803e3d6000fd5b505050506040513d601f19601f820116820180604052508101906107289190611de3565b90506000606460428361073b9190611e10565b6107459190611e99565b90508084111561075d57600195505050505050610773565b600095505050505050610773565b600093505050505b919050565b81600015156009600083815260200190815260200160002060003373ffffffffffffffffffffffffffffffffffffffff1673ffffffffffffffffffffffffffffffffffffffff16815260200190815260200160002060009054906101000a900460ff1615151461081d576040517f08c379a000000000000000000000000000000000000000000000000000000000815260040161081490611f3c565b60405180910390fd5b6108278383610f9e565b505050565b600360009054906101000a900473ffffffffffffffffffffffffffffffffffffffff1673ffffffffffffffffffffffffffffffffffffffff163373ffffffffffffffffffffffffffffffffffffffff16146108bc576040517f08c379a00000000000000000000000000000000000000000000000000000000081526004016108b390611b1b565b60405180910390fd5b80600160006101000a81548173ffffffffffffffffffffffffffffffffffffffff021916908373ffffffffffffffffffffffffffffffffffffffff16021790555050565b60006004600081548092919061091590611c26565b919050555060006040518061014001604052803273ffffffffffffffffffffffffffffffffffffffff16815260200160008152602001600081526020016000815260200160008152602001848152602001600054436109749190611f5c565b815260200160001515815260200185151581526020016001151581525090508060056000600454815260200190815260200160002060008201518160000160006101000a81548173ffffffffffffffffffffffffffffffffffffffff021916908373ffffffffffffffffffffffffffffffffffffffff1602179055506020820151816001015560408201518160020155606082015181600301556080820151816004015560a0820151816005015560c0820151816006015560e08201518160070160006101000a81548160ff0219169083151502179055506101008201518160070160016101000a81548160ff0219169083151502179055506101208201518160070160026101000a81548160ff02191690831515021790555090505060045491505092915050565b80600015156009600083815260200190815260200160002060003373ffffffffffffffffffffffffffffffffffffffff1673ffffffffffffffffffffffffffffffffffffffff16815260200190815260200160002060009054906101000a900460ff16151514610b42576040517f08c379a0000000000000000000000000000000000000000000000000000000008152600401610b3990611f3c565b60405180910390fd5b8133600115156005600084815260200190815260200160002060070160029054906101000a900460ff16151514610bae576040517f08c379a0000000000000000000000000000000000000000000000000000000008152600401610ba590611cbb565b60405180910390fd5b43600560008481526020019081526020016000206006015411610c06576040517f08c379a0000000000000000000000000000000000000000000000000000000008152600401610bfd90611ffe565b60405180910390fd5b600015156006600084815260200190815260200160002060008373ffffffffffffffffffffffffffffffffffffffff1673ffffffffffffffffffffffffffffffffffffffff16815260200190815260200160002060009054906101000a900460ff16151514610caa576040517f08c379a0000000000000000000000000000000000000000000000000000000008152600401610ca19061206a565b60405180910390fd5b60016009600086815260200190815260200160002060003373ffffffffffffffffffffffffffffffffffffffff1673ffffffffffffffffffffffffffffffffffffffff16815260200190815260200160002060006101000a81548160ff02191690831515021790555050505050565b600115156006600086815260200190815260200160002060008573ffffffffffffffffffffffffffffffffffffffff1673ffffffffffffffffffffffffffffffffffffffff16815260200190815260200160002060009054906101000a900460ff16151514610dbd576040517f08c379a0000000000000000000000000000000000000000000000000000000008152600401610db4906120d6565b60405180910390fd5b60006007600086815260200190815260200160002060008573ffffffffffffffffffffffffffffffffffffffff1673ffffffffffffffffffffffffffffffffffffffff16815260200190815260200160002060009054906101000a900460ff1690508015610e845782600560008781526020019081526020016000206001016000828254610e4b9190611b99565b9250508190555081600560008781526020019081526020016000206001016000828254610e789190611f5c565b92505081905550610edf565b82600560008781526020019081526020016000206003016000828254610eaa9190611b99565b9250508190555081600560008781526020019081526020016000206003016000828254610ed79190611f5c565b925050819055505b5050505050565b8282600115156009600084815260200190815260200160002060008373ffffffffffffffffffffffffffffffffffffffff1673ffffffffffffffffffffffffffffffffffffffff16815260200190815260200160002060009054906101000a900460ff16151514610f8c576040517f08c379a0000000000000000000000000000000000000000000000000000000008152600401610f8390612142565b60405180910390fd5b610f97858486611291565b5050505050565b8133600115156005600084815260200190815260200160002060070160029054906101000a900460ff1615151461100a576040517f08c379a000000000000000000000000000000000000000000000000000000000815260040161100190611cbb565b60405180910390fd5b43600560008481526020019081526020016000206006015411611062576040517f08c379a000000000000000000000000000000000000000000000000000000000815260040161105990611ffe565b60405180910390fd5b600015156006600084815260200190815260200160002060008373ffffffffffffffffffffffffffffffffffffffff1673ffffffffffffffffffffffffffffffffffffffff16815260200190815260200160002060009054906101000a900460ff16151514611106576040517f08c379a00000000000000000000000000000000000000000000000000000000081526004016110fd9061206a565b60405180910390fd5b836005600082815260200190815260200160002060070160019054906101000a900460ff16156111d957600015156006600083815260200190815260200160002060003273ffffffffffffffffffffffffffffffffffffffff1673ffffffffffffffffffffffffffffffffffffffff16815260200190815260200160002060009054906101000a900460ff161515146111d4576040517f08c379a00000000000000000000000000000000000000000000000000000000081526004016111cb9061206a565b60405180910390fd5b61127f565b6005600082815260200190815260200160002060000160009054906101000a900473ffffffffffffffffffffffffffffffffffffffff1673ffffffffffffffffffffffffffffffffffffffff163273ffffffffffffffffffffffffffffffffffffffff16141561127e576040517f08c379a0000000000000000000000000000000000000000000000000000000008152600401611275906121ae565b60405180910390fd5b5b61128a85853261140b565b5050505050565b8281600115156005600084815260200190815260200160002060070160029054906101000a900460ff161515146112fd576040517f08c379a00000000000000000000000000000000000000000000000000000000081526004016112f490611cbb565b60405180910390fd5b43600560008481526020019081526020016000206006015411611355576040517f08c379a000000000000000000000000000000000000000000000000000000000815260040161134c90611ffe565b60405180910390fd5b600015156006600084815260200190815260200160002060008373ffffffffffffffffffffffffffffffffffffffff1673ffffffffffffffffffffffffffffffffffffffff16815260200190815260200160002060009054906101000a900460ff161515146113f9576040517f08c379a00000000000000000000000000000000000000000000000000000000081526004016113f09061206a565b60405180910390fd5b61140485858561140b565b5050505050565b6000600160009054906101000a900473ffffffffffffffffffffffffffffffffffffffff169050600060056000868152602001908152602001600020604051806101400160405290816000820160009054906101000a900473ffffffffffffffffffffffffffffffffffffffff1673ffffffffffffffffffffffffffffffffffffffff1673ffffffffffffffffffffffffffffffffffffffff1681526020016001820154815260200160028201548152602001600382015481526020016004820154815260200160058201548152602001600682015481526020016007820160009054906101000a900460ff161515151581526020016007820160019054906101000a900460ff161515151581526020016007820160029054906101000a900460ff161515151581525050905060008273ffffffffffffffffffffffffffffffffffffffff1662fdd58e858460a001516040518363ffffffff1660e01b81526004016115789291906121ce565b602060405180830381865afa158015611595573d6000803e3d6000fd5b505050506040513d601f19601f820116820180604052508101906115b99190611de3565b9050841561162157806005600088815260200190815260200160002060010160008282546115e79190611f5c565b9250508190555060016005600088815260200190815260200160002060020160008282546116159190611f5c565b9250508190555061167d565b806005600088815260200190815260200160002060030160008282546116479190611f5c565b9250508190555060016005600088815260200190815260200160002060040160008282546116759190611f5c565b925050819055505b60016006600088815260200190815260200160002060008673ffffffffffffffffffffffffffffffffffffffff1673ffffffffffffffffffffffffffffffffffffffff16815260200190815260200160002060006101000a81548160ff021916908315150217905550846007600088815260200190815260200160002060008673ffffffffffffffffffffffffffffffffffffffff1673ffffffffffffffffffffffffffffffffffffffff16815260200190815260200160002060006101000a81548160ff0219169083151502179055506000600860008673ffffffffffffffffffffffffffffffffffffffff1673ffffffffffffffffffffffffffffffffffffffff16815260200190815260200160002090508087908060018154018082558091505060019003906000526020600020016000909190919091505550505050505050565b600080fd5b6000819050919050565b6117da816117c7565b81146117e557600080fd5b50565b6000813590506117f7816117d1565b92915050565b600060208284031215611813576118126117c2565b5b6000611821848285016117e8565b91505092915050565b60008115159050919050565b61183f8161182a565b811461184a57600080fd5b50565b60008135905061185c81611836565b92915050565b60008060408385031215611879576118786117c2565b5b6000611887858286016117e8565b92505060206118988582860161184d565b9150509250929050565b600073ffffffffffffffffffffffffffffffffffffffff82169050919050565b60006118cd826118a2565b9050919050565b6118dd816118c2565b81146118e857600080fd5b50565b6000813590506118fa816118d4565b92915050565b600060208284031215611916576119156117c2565b5b6000611924848285016118eb565b91505092915050565b60008060408385031215611944576119436117c2565b5b60006119528582860161184d565b9250506020611963858286016117e8565b9150509250929050565b611976816118c2565b82525050565b6000602082019050611991600083018461196d565b92915050565b600080600080608085870312156119b1576119b06117c2565b5b60006119bf878288016118eb565b94505060206119d0878288016117e8565b93505060406119e1878288016117e8565b92505060606119f2878288016117e8565b91505092959194509250565b600080600060608486031215611a1757611a166117c2565b5b6000611a25868287016117e8565b9350506020611a36868287016118eb565b9250506040611a478682870161184d565b9150509250925092565b611a5a816117c7565b82525050565b611a698161182a565b82525050565b6000604082019050611a846000830185611a51565b611a916020830184611a60565b9392505050565b600082825260208201905092915050565b7f596f7520617265206e6f7420617574686f72697a656420666f7220746869732060008201527f616374696f6e0000000000000000000000000000000000000000000000000000602082015250565b6000611b05602683611a98565b9150611b1082611aa9565b604082019050919050565b60006020820190508181036000830152611b3481611af8565b9050919050565b7f4e487b7100000000000000000000000000000000000000000000000000000000600052603260045260246000fd5b7f4e487b7100000000000000000000000000000000000000000000000000000000600052601160045260246000fd5b6000611ba4826117c7565b9150611baf836117c7565b925082821015611bc257611bc1611b6a565b5b828203905092915050565b7f4e487b7100000000000000000000000000000000000000000000000000000000600052603160045260246000fd5b6000611c07826117c7565b91506000821415611c1b57611c1a611b6a565b5b600182039050919050565b6000611c31826117c7565b91507fffffffffffffffffffffffffffffffffffffffffffffffffffffffffffffffff821415611c6457611c63611b6a565b5b600182019050919050565b7f4e6f2062616c6c6f74207769746820796f757220696420697320666f756e6400600082015250565b6000611ca5601f83611a98565b9150611cb082611c6f565b602082019050919050565b60006020820190508181036000830152611cd481611c98565b9050919050565b7f566f74696e672074696d65206973206e6f74206f766572207965740000000000600082015250565b6000611d11601b83611a98565b9150611d1c82611cdb565b602082019050919050565b60006020820190508181036000830152611d4081611d04565b9050919050565b7f526573756c7420616c7265616479206465636c61726564000000000000000000600082015250565b6000611d7d601783611a98565b9150611d8882611d47565b602082019050919050565b60006020820190508181036000830152611dac81611d70565b9050919050565b6000602082019050611dc86000830184611a51565b92915050565b600081519050611ddd816117d1565b92915050565b600060208284031215611df957611df86117c2565b5b6000611e0784828501611dce565b91505092915050565b6000611e1b826117c7565b9150611e26836117c7565b9250817fffffffffffffffffffffffffffffffffffffffffffffffffffffffffffffffff0483118215151615611e5f57611e5e611b6a565b5b828202905092915050565b7f4e487b7100000000000000000000000000000000000000000000000000000000600052601260045260246000fd5b6000611ea4826117c7565b9150611eaf836117c7565b925082611ebf57611ebe611e6a565b5b828204905092915050565b7f596f75206861766520616c726561647920676976656e206120636f756e74657260008201527f206f666665720000000000000000000000000000000000000000000000000000602082015250565b6000611f26602683611a98565b9150611f3182611eca565b604082019050919050565b60006020820190508181036000830152611f5581611f19565b9050919050565b6000611f67826117c7565b9150611f72836117c7565b9250827fffffffffffffffffffffffffffffffffffffffffffffffffffffffffffffffff03821115611fa757611fa6611b6a565b5b828201905092915050565b7f566f74696e672074696d65206973206f76657200000000000000000000000000600082015250565b6000611fe8601383611a98565b9150611ff382611fb2565b602082019050919050565b6000602082019050818103600083015261201781611fdb565b9050919050565b7f596f75206861766520616c726561647920766f74656400000000000000000000600082015250565b6000612054601683611a98565b915061205f8261201e565b602082019050919050565b6000602082019050818103600083015261208381612047565b9050919050565b7f5573657220686173206e6f7420766f7465642079657400000000000000000000600082015250565b60006120c0601683611a98565b91506120cb8261208a565b602082019050919050565b600060208201905081810360008301526120ef816120b3565b9050919050565b7f436f756e746572206f6666657220646f65736e27742065786973747300000000600082015250565b600061212c601c83611a98565b9150612137826120f6565b602082019050919050565b6000602082019050818103600083015261215b8161211f565b9050919050565b7f4f776e65722063616e6e6f7420766f7465000000000000000000000000000000600082015250565b6000612198601183611a98565b91506121a382612162565b602082019050919050565b600060208201905081810360008301526121c78161218b565b9050919050565b60006040820190506121e3600083018561196d565b6121f06020830184611a51565b939250505056fea2646970667358221220a6728e264c554a5c97b74c2769c695275d3f246aa764151cde958add80fe5b6f64736f6c634300080c0033",
  "immutableReferences": {},
  "source": "// SPDX-License-Identifier: MIT\n\npragma solidity ^0.8.0;\n\nimport \"../voting/BaseVotingCounterOfferContract.sol\";\n\ncontract BaseVotingCounterOfferContractMock is BaseVotingCounterOfferContract {\n    uint256 private LastTokenId = 1;\n\n    /**\n        @dev this event is genrated when result of a ballot is declared\n        @param ballotId this is the ballot Id for which result is declared \n        @param result this is the status of the result //either true if user won that is he recived more than 66% of votes or false if user lost \n     */\n    event BallotResult(uint256 ballotId, bool result);\n\n    constructor(uint8 votingInterval) {\n        VOTING_BLOCK_PERIOD = votingInterval;\n    }\n\n    /**\n     * @dev This function sets the treasury Contract address\n     */\n    function setTreasuryContractAddress(address newTreasuryContractAddress)\n        external\n        _ownerOnly\n    {\n        _setTreasuryContractAddress(newTreasuryContractAddress);\n    }\n\n    function createBallot(bool canOwnerVote, uint256 tokenId) public {\n        _createVoting(canOwnerVote, tokenId);\n    }\n\n    function castVote(uint256 ballotId, bool vote) public {\n        _castVote(ballotId, vote);\n    }\n\n    function createCounterOffer(uint256 ballotId) public {\n        _createCounterOffer(ballotId);\n    }\n\n    function counterOfferAction(\n        uint256 votingBallotId,\n        address user,\n        bool vote\n    ) public {\n        _counterOfferAction(votingBallotId, user, vote);\n    }\n\n    function declareWinner(uint256 ballotId) public {\n        bool result = _declareWinner(ballotId);\n        emit BallotResult(ballotId, result);\n    }\n}\n",
  "sourcePath": "/Users/a1/Desktop/Office/projects/CrowdRecords/Contracts/contracts/Mocks/BaseVotingCounterOfferContractMock.sol",
  "compiler": {
    "name": "solc",
    "version": "0.8.12+commit.f00d7308.Emscripten.clang"
  },
  "schemaVersion": "3.4.6",
  "updatedAt": "2022-07-28T07:30:31.881Z",
  "networkType": "ethereum",
  "devdoc": {
    "events": {
      "BallotResult(uint256,bool)": {
        "details": "this event is genrated when result of a ballot is declared",
        "params": {
          "ballotId": "this is the ballot Id for which result is declared ",
          "result": "this is the status of the result //either true if user won that is he recived more than 66% of votes or false if user lost "
        }
      }
    },
    "kind": "dev",
    "methods": {
      "_handleUserTokenTransfers(address,uint256,uint256,uint256)": {
        "details": "This function will be called when either user is transferring the tokens to other account, or is receiving tokens from other tokens.",
        "params": {
          "newBalance": "this is the new balance of the user that is after the transfer",
          "previousBalance": "this is the old balance of the user",
          "user": "address of the user whose balance is being changed"
        }
      },
      "setTreasuryContractAddress(address)": {
        "details": "This function sets the treasury Contract address"
      }
    },
    "version": 1
  },
  "userdoc": {
    "kind": "user",
    "methods": {},
    "version": 1
  }
}