{
  "contractName": "BaseVotingCounterOfferContractMock",
  "abi": [
    {
      "inputs": [
        {
          "internalType": "uint8",
          "name": "votingInterval",
          "type": "uint8"
        },
        {
          "internalType": "address",
          "name": "owner",
          "type": "address"
        }
      ],
      "stateMutability": "nonpayable",
      "type": "constructor"
    },
    {
      "anonymous": false,
      "inputs": [
        {
          "indexed": false,
          "internalType": "uint256",
          "name": "ballotId",
          "type": "uint256"
        },
        {
          "indexed": false,
          "internalType": "bool",
          "name": "result",
          "type": "bool"
        },
        {
          "indexed": false,
          "internalType": "bool",
          "name": "minTurnOut",
          "type": "bool"
        }
      ],
      "name": "BallotResult",
      "type": "event"
    },
    {
      "anonymous": false,
      "inputs": [
        {
          "indexed": false,
          "internalType": "uint256",
          "name": "ballotId",
          "type": "uint256"
        },
        {
          "indexed": false,
          "internalType": "address",
          "name": "creator",
          "type": "address"
        }
      ],
      "name": "CounterOfferCreated",
      "type": "event"
    },
    {
      "anonymous": false,
      "inputs": [
        {
          "indexed": false,
          "internalType": "uint256",
          "name": "ballotId",
          "type": "uint256"
        },
        {
          "indexed": false,
          "internalType": "address",
          "name": "creator",
          "type": "address"
        },
        {
          "indexed": false,
          "internalType": "bool",
          "name": "result",
          "type": "bool"
        }
      ],
      "name": "CounterOfferResult",
      "type": "event"
    },
    {
      "anonymous": false,
      "inputs": [
        {
          "indexed": false,
          "internalType": "uint256",
          "name": "value",
          "type": "uint256"
        }
      ],
      "name": "DEBUG",
      "type": "event"
    },
    {
      "anonymous": false,
      "inputs": [
        {
          "indexed": false,
          "internalType": "address",
          "name": "owner",
          "type": "address"
        },
        {
          "indexed": false,
          "internalType": "uint256",
          "name": "ballotId",
          "type": "uint256"
        },
        {
          "indexed": false,
          "internalType": "uint256",
          "name": "depositAmount",
          "type": "uint256"
        }
      ],
      "name": "DepositClaimed",
      "type": "event"
    },
    {
      "anonymous": false,
      "inputs": [
        {
          "indexed": false,
          "internalType": "address",
          "name": "owner",
          "type": "address"
        },
        {
          "indexed": false,
          "internalType": "uint256",
          "name": "ballotId",
          "type": "uint256"
        },
        {
          "indexed": false,
          "internalType": "uint256",
          "name": "depositAmount",
          "type": "uint256"
        },
        {
          "indexed": false,
          "internalType": "bool",
          "name": "isClaimed",
          "type": "bool"
        },
        {
          "indexed": false,
          "internalType": "bool",
          "name": "isPresent",
          "type": "bool"
        }
      ],
      "name": "DepositCreated",
      "type": "event"
    },
    {
      "anonymous": false,
      "inputs": [
        {
          "indexed": false,
          "internalType": "uint8",
          "name": "version",
          "type": "uint8"
        }
      ],
      "name": "Initialized",
      "type": "event"
    },
    {
      "inputs": [],
      "name": "GOVERNANCE",
      "outputs": [
        {
          "internalType": "address",
          "name": "",
          "type": "address"
        }
      ],
      "stateMutability": "view",
      "type": "function"
    },
    {
      "inputs": [],
      "name": "MIN_TURNOUT_PERCENT",
      "outputs": [
        {
          "internalType": "uint256",
          "name": "",
          "type": "uint256"
        }
      ],
      "stateMutability": "view",
      "type": "function"
    },
    {
      "inputs": [],
      "name": "OWNER",
      "outputs": [
        {
          "internalType": "address",
          "name": "",
          "type": "address"
        }
      ],
      "stateMutability": "view",
      "type": "function"
    },
    {
      "inputs": [],
      "name": "TREASURY_CONTRACT_ADDRESS",
      "outputs": [
        {
          "internalType": "address",
          "name": "",
          "type": "address"
        }
      ],
      "stateMutability": "view",
      "type": "function"
    },
    {
      "inputs": [],
      "name": "TREASURY_HUB_ADDRESS",
      "outputs": [
        {
          "internalType": "address",
          "name": "",
          "type": "address"
        }
      ],
      "stateMutability": "view",
      "type": "function"
    },
    {
      "inputs": [],
      "name": "VOTING_BLOCK_PERIOD",
      "outputs": [
        {
          "internalType": "uint256",
          "name": "",
          "type": "uint256"
        }
      ],
      "stateMutability": "view",
      "type": "function"
    },
    {
      "inputs": [],
      "name": "VOTING_DEPOSIT",
      "outputs": [
        {
          "internalType": "uint256",
          "name": "",
          "type": "uint256"
        }
      ],
      "stateMutability": "view",
      "type": "function"
    },
    {
      "inputs": [
        {
          "internalType": "address",
          "name": "user",
          "type": "address"
        },
        {
          "internalType": "uint256",
          "name": "tokenId",
          "type": "uint256"
        },
        {
          "internalType": "uint256",
          "name": "previousBalance",
          "type": "uint256"
        },
        {
          "internalType": "uint256",
          "name": "newBalance",
          "type": "uint256"
        }
      ],
      "name": "_handleUserTokenTransfers",
      "outputs": [],
      "stateMutability": "nonpayable",
      "type": "function"
    },
    {
      "inputs": [
        {
          "internalType": "uint256",
          "name": "",
          "type": "uint256"
        }
      ],
      "name": "depositMap",
      "outputs": [
        {
          "internalType": "address",
          "name": "owner",
          "type": "address"
        },
        {
          "internalType": "uint256",
          "name": "ballotId",
          "type": "uint256"
        },
        {
          "internalType": "uint256",
          "name": "depositAmount",
          "type": "uint256"
        },
        {
          "internalType": "bool",
          "name": "isClaimed",
          "type": "bool"
        },
        {
          "internalType": "bool",
          "name": "isPresent",
          "type": "bool"
        }
      ],
      "stateMutability": "view",
      "type": "function"
    },
    {
      "inputs": [
        {
          "internalType": "uint256",
          "name": "depositAmount",
          "type": "uint256"
        }
      ],
      "name": "setDepositAmount",
      "outputs": [],
      "stateMutability": "nonpayable",
      "type": "function"
    },
    {
      "inputs": [
        {
          "internalType": "uint256",
          "name": "minTurnOut",
          "type": "uint256"
        }
      ],
      "name": "setMinTurnOut",
      "outputs": [],
      "stateMutability": "nonpayable",
      "type": "function"
    },
    {
      "inputs": [
        {
          "internalType": "address",
          "name": "ownerAddress",
          "type": "address"
        }
      ],
      "name": "setOwnerAddress",
      "outputs": [],
      "stateMutability": "nonpayable",
      "type": "function"
    },
    {
      "inputs": [
        {
          "internalType": "uint256",
          "name": "votingPeriod",
          "type": "uint256"
        }
      ],
      "name": "setVotingPeriod",
      "outputs": [],
      "stateMutability": "nonpayable",
      "type": "function"
    },
    {
      "inputs": [],
      "name": "treasuryContract",
      "outputs": [
        {
          "internalType": "contract ITreasury",
          "name": "",
          "type": "address"
        }
      ],
      "stateMutability": "view",
      "type": "function"
    },
    {
      "inputs": [
        {
          "internalType": "uint256",
          "name": "",
          "type": "uint256"
        }
      ],
      "name": "votingMap",
      "outputs": [
        {
          "internalType": "address",
          "name": "owner",
          "type": "address"
        },
        {
          "internalType": "uint256",
          "name": "yesWeight",
          "type": "uint256"
        },
        {
          "internalType": "uint256",
          "name": "yesCount",
          "type": "uint256"
        },
        {
          "internalType": "uint256",
          "name": "noWeight",
          "type": "uint256"
        },
        {
          "internalType": "uint256",
          "name": "noCount",
          "type": "uint256"
        },
        {
          "internalType": "uint256",
          "name": "tokenId",
          "type": "uint256"
        },
        {
          "internalType": "uint256",
          "name": "votingEndBlock",
          "type": "uint256"
        },
        {
          "internalType": "bool",
          "name": "isResultDeclared",
          "type": "bool"
        },
        {
          "internalType": "bool",
          "name": "canOwnerVote",
          "type": "bool"
        },
        {
          "internalType": "bool",
          "name": "isPresent",
          "type": "bool"
        }
      ],
      "stateMutability": "view",
      "type": "function"
    },
    {
      "inputs": [
        {
          "internalType": "address",
          "name": "newTreasuryContractAddress",
          "type": "address"
        },
        {
          "internalType": "address",
          "name": "newGovernanceContractAddress",
          "type": "address"
        }
      ],
      "name": "initialize",
      "outputs": [],
      "stateMutability": "nonpayable",
      "type": "function"
    },
    {
      "inputs": [
        {
          "internalType": "bool",
          "name": "canOwnerVote",
          "type": "bool"
        },
        {
          "internalType": "uint256",
          "name": "tokenId",
          "type": "uint256"
        }
      ],
      "name": "createBallot",
      "outputs": [],
      "stateMutability": "payable",
      "type": "function"
    },
    {
      "inputs": [
        {
          "internalType": "uint256",
          "name": "ballotId",
          "type": "uint256"
        },
        {
          "internalType": "bool",
          "name": "vote",
          "type": "bool"
        }
      ],
      "name": "castVote",
      "outputs": [],
      "stateMutability": "nonpayable",
      "type": "function"
    },
    {
      "inputs": [
        {
          "internalType": "uint256",
          "name": "ballotId",
          "type": "uint256"
        }
      ],
      "name": "createCounterOffer",
      "outputs": [],
      "stateMutability": "nonpayable",
      "type": "function"
    },
    {
      "inputs": [
        {
          "internalType": "uint256",
          "name": "votingBallotId",
          "type": "uint256"
        },
        {
          "internalType": "address",
          "name": "user",
          "type": "address"
        },
        {
          "internalType": "bool",
          "name": "vote",
          "type": "bool"
        }
      ],
      "name": "counterOfferAction",
      "outputs": [],
      "stateMutability": "nonpayable",
      "type": "function"
    },
    {
      "inputs": [
        {
          "internalType": "uint256",
          "name": "ballotId",
          "type": "uint256"
        }
      ],
      "name": "declareWinner",
      "outputs": [],
      "stateMutability": "nonpayable",
      "type": "function"
    }
  ],
  "bytecode": "0x6080604052670de0b6b3a764000060015560196002556101f4600355600060095560016010553480156200003257600080fd5b506040516200294c3803806200294c833981016040819052620000559162000081565b600780546001600160a01b0319166001600160a01b039290921691909117905560ff16600255620000d0565b600080604083850312156200009557600080fd5b825160ff81168114620000a757600080fd5b60208401519092506001600160a01b0381168114620000c557600080fd5b809150509250929050565b61286c80620000e06000396000f3fe6080604052600436106101695760003560e01c80636d8cee56116100cb5780638d2ae1f71161007f578063db15ef5f11610059578063db15ef5f14610558578063e1f2e08414610578578063ea0217cf1461059857600080fd5b80638d2ae1f7146104de578063abb7ed7f1461050b578063acb314931461052b57600080fd5b8063716085f6116100b0578063716085f61461040057806383b0b07114610420578063879253a3146104c857600080fd5b80636d8cee56146103cd5780636dce8664146103ed57600080fd5b8063331a6bf511610122578063485cc95511610107578063485cc955146102a557806363e249c1146102c55780636c83244a146103b757600080fd5b8063331a6bf51461026157806333e0ea2e1461028157600080fd5b8063146278341161015357806314627834146101e757806315373e3d1461021457806318da00111461023457600080fd5b8062c2943c1461016e578063117803e314610190575b600080fd5b34801561017a57600080fd5b5061018e610189366004612512565b6105b8565b005b34801561019c57600080fd5b506007546101bd9073ffffffffffffffffffffffffffffffffffffffff1681565b60405173ffffffffffffffffffffffffffffffffffffffff90911681526020015b60405180910390f35b3480156101f357600080fd5b506008546101bd9073ffffffffffffffffffffffffffffffffffffffff1681565b34801561022057600080fd5b5061018e61022f366004612540565b61061b565b34801561024057600080fd5b506005546101bd9073ffffffffffffffffffffffffffffffffffffffff1681565b34801561026d57600080fd5b5061018e61027c366004612590565b610629565b34801561028d57600080fd5b5061029760035481565b6040519081526020016101de565b3480156102b157600080fd5b5061018e6102c03660046125b2565b61071c565b3480156102d157600080fd5b506103506102e0366004612512565b600a602052600090815260409020805460018201546002830154600384015460048501546005860154600687015460079097015473ffffffffffffffffffffffffffffffffffffffff909616969495939492939192909160ff80821691610100810482169162010000909104168a565b6040805173ffffffffffffffffffffffffffffffffffffffff909b168b5260208b0199909952978901969096526060880194909452608087019290925260a086015260c0850152151560e084015215156101008301521515610120820152610140016101de565b3480156103c357600080fd5b5061029760025481565b3480156103d957600080fd5b5061018e6103e8366004612512565b610959565b61018e6103fb3660046125dc565b6109df565b34801561040c57600080fd5b5061018e61041b366004612512565b6109f8565b34801561042c57600080fd5b5061048561043b366004612512565b600d60205260009081526040902080546001820154600283015460039093015473ffffffffffffffffffffffffffffffffffffffff90921692909160ff8082169161010090041685565b6040805173ffffffffffffffffffffffffffffffffffffffff9096168652602086019490945292840191909152151560608301521515608082015260a0016101de565b3480156104d457600080fd5b5061029760015481565b3480156104ea57600080fd5b506006546101bd9073ffffffffffffffffffffffffffffffffffffffff1681565b34801561051757600080fd5b5061018e610526366004612606565b610a3c565b34801561053757600080fd5b506004546101bd9073ffffffffffffffffffffffffffffffffffffffff1681565b34801561056457600080fd5b5061018e61057336600461263f565b610bfa565b34801561058457600080fd5b5061018e610593366004612512565b610c5c565b3480156105a457600080fd5b5061018e6105b3366004612512565b610ce2565b6000806105c483610d68565b6040805186815283151560208201528215158183015290519294509092507f1f6972cf5ca4c61f97e167c7304bc893a078a7ae23020018f03bfcdd947e755e919081900360600190a161061683611086565b505050565b61062582826112d4565b5050565b60075473ffffffffffffffffffffffffffffffffffffffff1633146106d5576040517f08c379a000000000000000000000000000000000000000000000000000000000815260206004820152602360248201527f554e415554484f52495a45443a2043414e4e4f545f504552464f524d5f41435460448201527f494f4e000000000000000000000000000000000000000000000000000000000060648201526084015b60405180910390fd5b600780547fffffffffffffffffffffffff00000000000000000000000000000000000000001673ffffffffffffffffffffffffffffffffffffffff92909216919091179055565b600054610100900460ff161580801561073c5750600054600160ff909116105b806107565750303b158015610756575060005460ff166001145b6107e2576040517f08c379a000000000000000000000000000000000000000000000000000000000815260206004820152602e60248201527f496e697469616c697a61626c653a20636f6e747261637420697320616c72656160448201527f647920696e697469616c697a656400000000000000000000000000000000000060648201526084016106cc565b600080547fffffffffffffffffffffffffffffffffffffffffffffffffffffffffffffff00166001179055801561084057600080547fffffffffffffffffffffffffffffffffffffffffffffffffffffffffffff00ff166101001790555b60075473ffffffffffffffffffffffffffffffffffffffff1633146108e7576040517f08c379a000000000000000000000000000000000000000000000000000000000815260206004820152602360248201527f554e415554484f52495a45443a2043414e4e4f545f504552464f524d5f41435460448201527f494f4e000000000000000000000000000000000000000000000000000000000060648201526084016106cc565b6108f18383611364565b801561061657600080547fffffffffffffffffffffffffffffffffffffffffffffffffffffffffffff00ff169055604051600181527f7f26b83ff96e1f2b6a682f133852f6798a09c465da95921460cefb3847402498906020015b60405180910390a1505050565b60085473ffffffffffffffffffffffffffffffffffffffff1633146109da576040517f08c379a000000000000000000000000000000000000000000000000000000000815260206004820152601d60248201527f554e415554484f52495a45443a204f4e4c595f474f5645524e414e434500000060448201526064016106cc565b600155565b60006109eb8383611405565b90506106163334836115ca565b610a018161179c565b604080518281523360208201527f7b2a9740890b2b2ca53bf31053b40721fdb1197d06ca76b25a92a30366bcb168910160405180910390a150565b73ffffffffffffffffffffffffffffffffffffffff84166000908152600e60205260408120905b8154811015610bf257600a6000838381548110610a8257610a8261267b565b6000918252602080832090910154835282019290925260400190206007015460ff16151560011480610ae5575043600a6000848481548110610ac657610ac661267b565b9060005260206000200154815260200190815260200160002060060154105b15610b7e5781548290610afa906001906126d9565b81548110610b0a57610b0a61267b565b9060005260206000200154828281548110610b2757610b2761267b565b906000526020600020018190555081805480610b4557610b456126f0565b600190038181906000526020600020016000905590558060001415610b6c57506000610be0565b80610b768161271f565b915050610be0565b600a6000838381548110610b9457610b9461267b565b9060005260206000200154815260200190815260200160002060050154851415610be057610be0828281548110610bcd57610bcd61267b565b9060005260206000200154878686611a07565b80610bea81612754565b915050610a63565b505050505050565b610c05838383611baa565b6040805184815273ffffffffffffffffffffffffffffffffffffffff84166020820152821515918101919091527f8b95fafecc76617ca8d9d71a15a8d93fbd9ee1700149fd39bbb4ccd29465b45d9060600161094c565b60085473ffffffffffffffffffffffffffffffffffffffff163314610cdd576040517f08c379a000000000000000000000000000000000000000000000000000000000815260206004820152601d60248201527f554e415554484f52495a45443a204f4e4c595f474f5645524e414e434500000060448201526064016106cc565b600355565b60085473ffffffffffffffffffffffffffffffffffffffff163314610d63576040517f08c379a000000000000000000000000000000000000000000000000000000000815260206004820152601d60248201527f554e415554484f52495a45443a204f4e4c595f474f5645524e414e434500000060448201526064016106cc565b600255565b6000818152600a6020526040812060070154819062010000900460ff161515600114610df0576040517f08c379a000000000000000000000000000000000000000000000000000000000815260206004820152601960248201527f494e56414c49443a2042414c4c4f545f4e4f545f464f554e440000000000000060448201526064016106cc565b6000838152600a60205260409020600601544311610e6a576040517f08c379a000000000000000000000000000000000000000000000000000000000815260206004820152601d60248201527f494e56414c49443a20564f54494e475f54494d455f4e4f545f4f56455200000060448201526064016106cc565b6000838152600a602052604090206007015460ff1615610ee6576040517f08c379a000000000000000000000000000000000000000000000000000000000815260206004820181905260248201527f494e56414c49443a20524553554c545f414c52454144595f4445434c4152454460448201526064016106cc565b6000838152600a602052604080822060018082015460038301546007840180547fffffffffffffffffffffffffffffffffffffffffffffffffffffffffffffff0016909317909255600580549084015494517f036c22ad000000000000000000000000000000000000000000000000000000008152939591949293919273ffffffffffffffffffffffffffffffffffffffff9091169163036c22ad91610f929160040190815260200190565b602060405180830381865afa158015610faf573d6000803e3d6000fd5b505050506040513d601f19601f82011682018060405250810190610fd3919061278d565b9050600060648060035484610fe891906127a6565b610ff291906127e3565b610ffc91906127e3565b905080611009858561281e565b11156110765783156110655760006064611023858761281e565b61102e9060426127a6565b61103891906127e3565b90508085111561105357506001988998509650505050505050565b50600098600198509650505050505050565b506000976001975095505050505050565b5060009788975095505050505050565b6000818152600d602052604090206003015460ff61010090910416151560011461110c576040517f08c379a000000000000000000000000000000000000000000000000000000000815260206004820152600d60248201527f4445505f4e4f545f45584953540000000000000000000000000000000000000060448201526064016106cc565b6000818152600d602052604090206003015460ff1615611188576040517f08c379a000000000000000000000000000000000000000000000000000000000815260206004820152601360248201527f4445505f414c52454144595f434c41494d45440000000000000000000000000060448201526064016106cc565b6000818152600d60205260408082208054600290910154915173ffffffffffffffffffffffffffffffffffffffff90911691908381818185875af1925050503d80600081146111f3576040519150601f19603f3d011682016040523d82523d6000602084013e6111f8565b606091505b5050905080611263576040517f08c379a000000000000000000000000000000000000000000000000000000000815260206004820152600d60248201527f494e565f4445505f434c41494d0000000000000000000000000000000000000060448201526064016106cc565b6000828152600d60209081526040918290208054600290910154835173ffffffffffffffffffffffffffffffffffffffff9092168252918101859052918201527f6b1069552f63b401b74bc71e75594d0a8bc61f7a42998e0f201b78f9aa600d329060600160405180910390a15050565b6000828152600f60209081526040808320338452909152902054829060ff161561135a576040517f08c379a000000000000000000000000000000000000000000000000000000000815260206004820181905260248201527f494e56414c49443a20414c52454144595f434f554e5445525f4f46464552454460448201526064016106cc565b6106168383611d0c565b600054610100900460ff166113fb576040517f08c379a000000000000000000000000000000000000000000000000000000000815260206004820152602b60248201527f496e697469616c697a61626c653a20636f6e7472616374206973206e6f74206960448201527f6e697469616c697a696e6700000000000000000000000000000000000000000060648201526084016106cc565b6106258282611fed565b600980546000918261141683612754565b919050555060006040518061014001604052803273ffffffffffffffffffffffffffffffffffffffff1681526020016000815260200160008152602001600081526020016000815260200184815260200160025443611475919061281e565b81526000602080830182905296151560408084019190915260016060938401819052600980548452600a8a5292829020855181547fffffffffffffffffffffffff00000000000000000000000000000000000000001673ffffffffffffffffffffffffffffffffffffffff909116178155988501519089015583015160028801559082015160038701556080820151600487015560a0820151600587015560c0820151600687015560e08201516007909601805461010080850151610120909501517fffffffffffffffffffffffffffffffffffffffffffffffffffffffffffff00009092169815157fffffffffffffffffffffffffffffffffffffffffffffffffffffffffffff00ff1698909817931515909702929092177fffffffffffffffffffffffffffffffffffffffffffffffffffffffffff00ffff16620100009615159690960295909517905550509054919050565b8160015414611635576040517f08c379a000000000000000000000000000000000000000000000000000000000815260206004820152600760248201527f494e565f4445500000000000000000000000000000000000000000000000000060448201526064016106cc565b6040805160a0808201835273ffffffffffffffffffffffffffffffffffffffff861680835260208084018690526001805485870181905260006060808801829052608080890185905289519687529486018a9052858901929092529084015290820152925191927f58ac581930e3170185d9c86e70eceabd7254c9eee2c1df3b76e38f030645ec3d929081900390910190a16000918252600d6020908152604092839020825181547fffffffffffffffffffffffff00000000000000000000000000000000000000001673ffffffffffffffffffffffffffffffffffffffff9091161781559082015160018201559181015160028301556060810151600390920180546080909201517fffffffffffffffffffffffffffffffffffffffffffffffffffffffffffff00009092169215157fffffffffffffffffffffffffffffffffffffffffffffffffffffffffffff00ff1692909217610100911515919091021790555050565b6000818152600f60209081526040808320338452909152902054819060ff1615611822576040517f08c379a000000000000000000000000000000000000000000000000000000000815260206004820181905260248201527f494e56414c49443a20414c52454144595f434f554e5445525f4f46464552454460448201526064016106cc565b6000828152600a60205260409020600701548290339062010000900460ff1615156001146118ac576040517f08c379a000000000000000000000000000000000000000000000000000000000815260206004820152601960248201527f494e56414c49443a2042414c4c4f545f4e4f545f464f554e440000000000000060448201526064016106cc565b6000828152600a60205260409020600601544310611926576040517f08c379a000000000000000000000000000000000000000000000000000000000815260206004820152601960248201527f494e56414c49443a20564f54494e475f54494d455f4f5645520000000000000060448201526064016106cc565b6000828152600b6020908152604080832073ffffffffffffffffffffffffffffffffffffffff8516845290915290205460ff16156119c0576040517f08c379a000000000000000000000000000000000000000000000000000000000815260206004820152601660248201527f494e56414c49443a20414c52454144595f564f5445440000000000000000000060448201526064016106cc565b5050506000908152600f60209081526040808320338452909152902080547fffffffffffffffffffffffffffffffffffffffffffffffffffffffffffffff00166001179055565b6000848152600b6020908152604080832073ffffffffffffffffffffffffffffffffffffffff8716845290915290205460ff161515600114611acb576040517f08c379a000000000000000000000000000000000000000000000000000000000815260206004820152602560248201527f494e56414c49443a20494e5445524e414c3a20555345525f4841535f4e4f545f60448201527f564f54454400000000000000000000000000000000000000000000000000000060648201526084016106cc565b6000848152600c6020908152604080832073ffffffffffffffffffffffffffffffffffffffff8716845290915290205460ff168015611b56576000858152600a602052604081206001018054859290611b259084906126d9565b90915550506000858152600a602052604081206001018054849290611b4b90849061281e565b90915550611ba39050565b6000858152600a602052604081206003018054859290611b779084906126d9565b90915550506000858152600a602052604081206003018054849290611b9d90849061281e565b90915550505b5050505050565b6000838152600f6020908152604080832073ffffffffffffffffffffffffffffffffffffffff861684529091529020548390839060ff161515600114611c72576040517f08c379a000000000000000000000000000000000000000000000000000000000815260206004820152602160248201527f494e56414c49443a20434f554e5445525f4f464645525f4e4f545f455849535460448201527f530000000000000000000000000000000000000000000000000000000000000060648201526084016106cc565b6000858152600a6020526040902054859073ffffffffffffffffffffffffffffffffffffffff163314611d01576040517f08c379a000000000000000000000000000000000000000000000000000000000815260206004820152601a60248201527f494e56414c49443a204f4e4c595f42414c4c4f545f4f574e455200000000000060448201526064016106cc565b610bf28685876120e4565b6000828152600a60205260409020600701548290339062010000900460ff161515600114611d96576040517f08c379a000000000000000000000000000000000000000000000000000000000815260206004820152601960248201527f494e56414c49443a2042414c4c4f545f4e4f545f464f554e440000000000000060448201526064016106cc565b6000828152600a60205260409020600601544310611e10576040517f08c379a000000000000000000000000000000000000000000000000000000000815260206004820152601960248201527f494e56414c49443a20564f54494e475f54494d455f4f5645520000000000000060448201526064016106cc565b6000828152600b6020908152604080832073ffffffffffffffffffffffffffffffffffffffff8516845290915290205460ff1615611eaa576040517f08c379a000000000000000000000000000000000000000000000000000000000815260206004820152601660248201527f494e56414c49443a20414c52454144595f564f5445440000000000000000000060448201526064016106cc565b6000848152600a60205260409020600701548490610100900460ff1615611f54576000818152600b6020908152604080832032845290915290205460ff1615611f4f576040517f08c379a000000000000000000000000000000000000000000000000000000000815260206004820152601660248201527f494e56414c49443a20414c52454144595f564f5445440000000000000000000060448201526064016106cc565b611fe2565b6000818152600a602052604090205473ffffffffffffffffffffffffffffffffffffffff16321415611fe2576040517f08c379a000000000000000000000000000000000000000000000000000000000815260206004820152601f60248201527f554e415554484f52495a45443a204f574e45525f43414e4e4f545f564f54450060448201526064016106cc565b611ba3858532612289565b600054610100900460ff16612084576040517f08c379a000000000000000000000000000000000000000000000000000000000815260206004820152602b60248201527f496e697469616c697a61626c653a20636f6e7472616374206973206e6f74206960448201527f6e697469616c697a696e6700000000000000000000000000000000000000000060648201526084016106cc565b6004805473ffffffffffffffffffffffffffffffffffffffff9384167fffffffffffffffffffffffff0000000000000000000000000000000000000000918216811790925560058054821690921790915560088054929093169116179055565b6000838152600a60205260409020600701548390829062010000900460ff16151560011461216e576040517f08c379a000000000000000000000000000000000000000000000000000000000815260206004820152601960248201527f494e56414c49443a2042414c4c4f545f4e4f545f464f554e440000000000000060448201526064016106cc565b6000828152600a602052604090206006015443106121e8576040517f08c379a000000000000000000000000000000000000000000000000000000000815260206004820152601960248201527f494e56414c49443a20564f54494e475f54494d455f4f5645520000000000000060448201526064016106cc565b6000828152600b6020908152604080832073ffffffffffffffffffffffffffffffffffffffff8516845290915290205460ff1615612282576040517f08c379a000000000000000000000000000000000000000000000000000000000815260206004820152601660248201527f494e56414c49443a20414c52454144595f564f5445440000000000000000000060448201526064016106cc565b611ba38585855b6000838152600a60209081526040808320815161014081018352815473ffffffffffffffffffffffffffffffffffffffff908116825260018301549482019490945260028201548184015260038201546060820152600480830154608083015260058084015460a08401819052600685015460c085015260079094015460ff808216151560e08601526101008083048216151590860152620100009091041615156101208401525493517efdd58e000000000000000000000000000000000000000000000000000000008152919594939093169262fdd58e9261238f9288920173ffffffffffffffffffffffffffffffffffffffff929092168252602082015260400190565b602060405180830381865afa1580156123ac573d6000803e3d6000fd5b505050506040513d601f19601f820116820180604052508101906123d0919061278d565b9050831561242b576000858152600a6020526040812060010180548392906123f990849061281e565b90915550506000858152600a6020526040812060020180546001929061242090849061281e565b909155506124799050565b6000858152600a60205260408120600301805483929061244c90849061281e565b90915550506000858152600a6020526040812060040180546001929061247390849061281e565b90915550505b50506000838152600b6020908152604080832073ffffffffffffffffffffffffffffffffffffffff94909416808452938252808320805460017fffffffffffffffffffffffffffffffffffffffffffffffffffffffffffffff009182168117909255878552600c8452828520958552948352818420805490951695151595909517909355600e8152918120805493840181558152200155565b60006020828403121561252457600080fd5b5035919050565b8035801515811461253b57600080fd5b919050565b6000806040838503121561255357600080fd5b823591506125636020840161252b565b90509250929050565b803573ffffffffffffffffffffffffffffffffffffffff8116811461253b57600080fd5b6000602082840312156125a257600080fd5b6125ab8261256c565b9392505050565b600080604083850312156125c557600080fd5b6125ce8361256c565b91506125636020840161256c565b600080604083850312156125ef57600080fd5b6125f88361252b565b946020939093013593505050565b6000806000806080858703121561261c57600080fd5b6126258561256c565b966020860135965060408601359560600135945092505050565b60008060006060848603121561265457600080fd5b833592506126646020850161256c565b91506126726040850161252b565b90509250925092565b7f4e487b7100000000000000000000000000000000000000000000000000000000600052603260045260246000fd5b7f4e487b7100000000000000000000000000000000000000000000000000000000600052601160045260246000fd5b6000828210156126eb576126eb6126aa565b500390565b7f4e487b7100000000000000000000000000000000000000000000000000000000600052603160045260246000fd5b60008161272e5761272e6126aa565b507fffffffffffffffffffffffffffffffffffffffffffffffffffffffffffffffff0190565b60007fffffffffffffffffffffffffffffffffffffffffffffffffffffffffffffffff821415612786576127866126aa565b5060010190565b60006020828403121561279f57600080fd5b5051919050565b6000817fffffffffffffffffffffffffffffffffffffffffffffffffffffffffffffffff04831182151516156127de576127de6126aa565b500290565b600082612819577f4e487b7100000000000000000000000000000000000000000000000000000000600052601260045260246000fd5b500490565b60008219821115612831576128316126aa565b50019056fea26469706673582212202baa99a4e2d1d9386844b3494c1891c6636e6123268c87f81da2d05c6bfad3fc64736f6c634300080c0033",
  "immutableReferences": {},
  "source": "// SPDX-License-Identifier: MIT\n\npragma solidity ^0.8.0;\n\nimport \"../voting/BaseVotingCounterOfferContract.sol\";\n\ncontract BaseVotingCounterOfferContractMock is BaseVotingCounterOfferContract {\n    uint256 private LastTokenId = 1;\n\n    /// @dev this event is generated when result of a ballot is declared\n    /// @param ballotId this is the ballot Id for which result is declared\n    /// @param result this is the status of the result //either true if user won that is he received more than 66% of votes or false if user lost\n    /// @param minTurnOut this status indicates if minimum amount of user showed up for voting\n    event BallotResult(uint256 ballotId, bool result, bool minTurnOut);\n\n    /// @dev this event is generated when a counter offer is created\n    /// @param ballotId this is the ballot Id for which result is declared\n    /// @param creator this is the address of the creator of counter offer\n    event CounterOfferCreated(uint256 ballotId, address creator);\n\n    /// @dev this event is generated when a counter offer is either accepted or rejected\n    /// @param ballotId this is the ballot Id for which result is declared\n    /// @param creator this is the address of the creator of counter offer\n    /// @param result this is the result of the counter offer that is true for accepted and false for rejected\n    event CounterOfferResult(uint256 ballotId, address creator, bool result);\n\n    constructor(\n        uint8 votingInterval,\n        address owner\n    ) BaseVotingCounterOfferContract(owner) {\n        VOTING_BLOCK_PERIOD = votingInterval;\n    }\n\n    /// @dev This is to set the address of the contracts\n    /// @param newTreasuryContractAddress This is the address of new treasury contract\n    /// @param newGovernanceContractAddress This is the address for the governance contract\n    function initialize(\n        address newTreasuryContractAddress,\n        address newGovernanceContractAddress\n    ) public override initializer _ownerOnly {\n        BaseVotingCounterOfferContract.initialize(\n            newTreasuryContractAddress,\n            newGovernanceContractAddress\n        );\n    }\n\n    function createBallot(bool canOwnerVote, uint256 tokenId) public payable {\n        uint256 ballotId = _createVoting(canOwnerVote, tokenId);\n        _createDeposit(msg.sender, msg.value, ballotId);\n    }\n\n    function castVote(uint256 ballotId, bool vote) public {\n        _castVote(ballotId, vote);\n    }\n\n    function createCounterOffer(uint256 ballotId) public {\n        _createCounterOffer(ballotId);\n        emit CounterOfferCreated(ballotId, msg.sender);\n    }\n\n    function counterOfferAction(\n        uint256 votingBallotId,\n        address user,\n        bool vote\n    ) public {\n        _counterOfferAction(votingBallotId, user, vote);\n        emit CounterOfferResult(votingBallotId, user, vote);\n    }\n\n    function declareWinner(uint256 ballotId) public {\n        (bool result, bool minTurnOut) = _declareWinner(ballotId);\n        emit BallotResult(ballotId, result, minTurnOut);\n        _releaseDeposit(ballotId);\n    }\n}\n",
  "sourcePath": "/Users/a1/Desktop/Office/projects/CrowdRecords/Contracts/contracts/Mocks/BaseVotingCounterOfferContractMock.sol",
  "compiler": {
    "name": "solc",
    "version": "0.8.12+commit.f00d7308.Emscripten.clang"
  },
  "schemaVersion": "3.4.6",
  "updatedAt": "2023-05-17T05:46:17.108Z",
  "networkType": "ethereum",
  "devdoc": {
    "events": {
      "BallotResult(uint256,bool,bool)": {
        "details": "this event is generated when result of a ballot is declared",
        "params": {
          "ballotId": "this is the ballot Id for which result is declared",
          "minTurnOut": "this status indicates if minimum amount of user showed up for voting",
          "result": "this is the status of the result //either true if user won that is he received more than 66% of votes or false if user lost"
        }
      },
      "CounterOfferCreated(uint256,address)": {
        "details": "this event is generated when a counter offer is created",
        "params": {
          "ballotId": "this is the ballot Id for which result is declared",
          "creator": "this is the address of the creator of counter offer"
        }
      },
      "CounterOfferResult(uint256,address,bool)": {
        "details": "this event is generated when a counter offer is either accepted or rejected",
        "params": {
          "ballotId": "this is the ballot Id for which result is declared",
          "creator": "this is the address of the creator of counter offer",
          "result": "this is the result of the counter offer that is true for accepted and false for rejected"
        }
      }
    },
    "kind": "dev",
    "methods": {
      "_handleUserTokenTransfers(address,uint256,uint256,uint256)": {
        "details": "This function will be called when either user is transferring the tokens to other account, or is receiving tokens from other tokens.",
        "params": {
          "newBalance": "this is the new balance of the user that is after the transfer",
          "previousBalance": "this is the old balance of the user",
          "user": "address of the user whose balance is being changed"
        }
      },
      "initialize(address,address)": {
        "details": "This is to set the address of the contracts",
        "params": {
          "newGovernanceContractAddress": "This is the address for the governance contract",
          "newTreasuryContractAddress": "This is the address of new treasury contract"
        }
      },
      "setDepositAmount(uint256)": {
        "details": "This function sets the VOTING_DEPOSIT percentage",
        "params": {
          "depositAmount": "This is the new deposit amount needed for creating ballot"
        }
      },
      "setMinTurnOut(uint256)": {
        "details": "This function sets the MIN_TURN_OUT percentage",
        "params": {
          "minTurnOut": "This is the new turnout percentage value"
        }
      },
      "setOwnerAddress(address)": {
        "details": "This function sets the owner address",
        "params": {
          "ownerAddress": "This is the address of the owner"
        }
      },
      "setVotingPeriod(uint256)": {
        "details": "This function sets the VOTING_BLOCK_PERIOD percentage",
        "params": {
          "votingPeriod": "This is the voting period"
        }
      }
    },
    "version": 1
  },
  "userdoc": {
    "kind": "user",
    "methods": {},
    "version": 1
  }
}