{
  "contractName": "BaseVotingContractMock",
  "abi": [
    {
      "inputs": [
        {
          "internalType": "uint8",
          "name": "votingInterval",
          "type": "uint8"
        }
      ],
      "stateMutability": "nonpayable",
      "type": "constructor"
    },
    {
      "anonymous": false,
      "inputs": [
        {
          "indexed": false,
          "internalType": "uint256",
          "name": "ballotId",
          "type": "uint256"
        },
        {
          "indexed": false,
          "internalType": "bool",
          "name": "result",
          "type": "bool"
        }
      ],
      "name": "BallotResult",
      "type": "event"
    },
    {
      "anonymous": false,
      "inputs": [
        {
          "indexed": false,
          "internalType": "address",
          "name": "contractAddress",
          "type": "address"
        },
        {
          "indexed": false,
          "internalType": "uint256",
          "name": "previousBal",
          "type": "uint256"
        },
        {
          "indexed": false,
          "internalType": "uint256",
          "name": "nextBal",
          "type": "uint256"
        }
      ],
      "name": "DEBUG2",
      "type": "event"
    },
    {
      "inputs": [],
      "name": "TREASURY_CONTRACT_ADDRESS",
      "outputs": [
        {
          "internalType": "address",
          "name": "",
          "type": "address"
        }
      ],
      "stateMutability": "view",
      "type": "function"
    },
    {
      "inputs": [],
      "name": "TREASURY_HUB_ADDRESS",
      "outputs": [
        {
          "internalType": "address",
          "name": "",
          "type": "address"
        }
      ],
      "stateMutability": "view",
      "type": "function"
    },
    {
      "inputs": [
        {
          "internalType": "address",
          "name": "user",
          "type": "address"
        },
        {
          "internalType": "uint256",
          "name": "tokenId",
          "type": "uint256"
        },
        {
          "internalType": "uint256",
          "name": "previousBalance",
          "type": "uint256"
        },
        {
          "internalType": "uint256",
          "name": "newBalance",
          "type": "uint256"
        }
      ],
      "name": "_handleUserTokenTransfers",
      "outputs": [],
      "stateMutability": "nonpayable",
      "type": "function"
    },
    {
      "inputs": [
        {
          "internalType": "address",
          "name": "newTreasuryContractAddress",
          "type": "address"
        }
      ],
      "name": "setTreasuryContractAddress",
      "outputs": [],
      "stateMutability": "nonpayable",
      "type": "function"
    },
    {
      "inputs": [
        {
          "internalType": "bool",
          "name": "canOwnerVote",
          "type": "bool"
        },
        {
          "internalType": "uint256",
          "name": "tokenId",
          "type": "uint256"
        }
      ],
      "name": "createBallot",
      "outputs": [],
      "stateMutability": "nonpayable",
      "type": "function"
    },
    {
      "inputs": [
        {
          "internalType": "uint256",
          "name": "ballotId",
          "type": "uint256"
        },
        {
          "internalType": "bool",
          "name": "vote",
          "type": "bool"
        }
      ],
      "name": "castVote",
      "outputs": [],
      "stateMutability": "nonpayable",
      "type": "function"
    },
    {
      "inputs": [
        {
          "internalType": "uint256",
          "name": "ballotId",
          "type": "uint256"
        },
        {
          "internalType": "bool",
          "name": "vote",
          "type": "bool"
        },
        {
          "internalType": "address",
          "name": "voter",
          "type": "address"
        }
      ],
      "name": "castVoteForOther",
      "outputs": [],
      "stateMutability": "nonpayable",
      "type": "function"
    },
    {
      "inputs": [
        {
          "internalType": "uint256",
          "name": "ballotId",
          "type": "uint256"
        }
      ],
      "name": "declareWinner",
      "outputs": [],
      "stateMutability": "nonpayable",
      "type": "function"
    }
  ],
  "bytecode": "0x60806040526019600055600060045560016009553480156200002057600080fd5b5060405162001ea338038062001ea38339818101604052810190620000469190620000db565b33600360006101000a81548173ffffffffffffffffffffffffffffffffffffffff021916908373ffffffffffffffffffffffffffffffffffffffff1602179055508060ff16600081905550506200010d565b600080fd5b600060ff82169050919050565b620000b5816200009d565b8114620000c157600080fd5b50565b600081519050620000d581620000aa565b92915050565b600060208284031215620000f457620000f362000098565b5b60006200010484828501620000c4565b91505092915050565b611d86806200011d6000396000f3fe608060405234801561001057600080fd5b50600436106100875760003560e01c806382f61de51161005b57806382f61de5146100fc5780638d2ae1f714610118578063abb7ed7f14610136578063acb314931461015257610087565b8062c2943c1461008c57806315373e3d146100a85780634cf2d48f146100c45780636dce8664146100e0575b600080fd5b6100a660048036038101906100a1919061141d565b610170565b005b6100c260048036038101906100bd9190611482565b6101ba565b005b6100de60048036038101906100d99190611520565b6101c8565b005b6100fa60048036038101906100f5919061154d565b610264565b005b6101166004803603810190610111919061158d565b610273565b005b610120610283565b60405161012d91906115ef565b60405180910390f35b610150600480360381019061014b919061160a565b6102a9565b005b61015a6104dd565b60405161016791906115ef565b60405180910390f35b600061017b82610503565b90507f53d10fab88267d8231908eb87e8f64a19ceecd01180ef034a610f9b35783ba5382826040516101ae92919061168f565b60405180910390a15050565b6101c48282610780565b5050565b600360009054906101000a900473ffffffffffffffffffffffffffffffffffffffff1673ffffffffffffffffffffffffffffffffffffffff163373ffffffffffffffffffffffffffffffffffffffff1614610258576040517f08c379a000000000000000000000000000000000000000000000000000000000815260040161024f9061173b565b60405180910390fd5b61026181610a73565b50565b61026e8282610b47565b505050565b61027e838383610ce4565b505050565b600260009054906101000a900473ffffffffffffffffffffffffffffffffffffffff1681565b7fce745f624257e308d136e6727da2d12784ad0063921f5d7c5f379685d6c63e363083836040516102dc9392919061175b565b60405180910390a16000600860008673ffffffffffffffffffffffffffffffffffffffff1673ffffffffffffffffffffffffffffffffffffffff168152602001908152602001600020905060005b81805490508110156104d557600115156005600084848154811061035157610350611792565b5b9060005260206000200154815260200190815260200160002060070160009054906101000a900460ff16151514806103bb5750436005600084848154811061039c5761039b611792565b5b9060005260206000200154815260200190815260200160002060060154105b1561045c5781600183805490506103d291906117f0565b815481106103e3576103e2611792565b5b906000526020600020015482828154811061040157610400611792565b5b9060005260206000200181905550818054806104205761041f611824565b5b6001900381819060005260206000200160009055905560008114156104485760009050610457565b808061045390611853565b9150505b6104c2565b6005600083838154811061047357610472611792565b5b90600052602060002001548152602001908152602001600020600501548514156104c1576104c08282815481106104ad576104ac611792565b5b9060005260206000200154878686610e5e565b5b5b80806104cd9061187d565b91505061032a565b505050505050565b600160009054906101000a900473ffffffffffffffffffffffffffffffffffffffff1681565b6000600115156005600084815260200190815260200160002060070160029054906101000a900460ff1615151461056f576040517f08c379a000000000000000000000000000000000000000000000000000000000815260040161056690611912565b60405180910390fd5b436005600084815260200190815260200160002060060154106105c7576040517f08c379a00000000000000000000000000000000000000000000000000000000081526004016105be9061197e565b60405180910390fd5b600015156005600084815260200190815260200160002060070160009054906101000a900460ff16151514610631576040517f08c379a0000000000000000000000000000000000000000000000000000000008152600401610628906119ea565b60405180910390fd5b60006005600084815260200190815260200160002090506000816001015490506000600160009054906101000a900473ffffffffffffffffffffffffffffffffffffffff16905060016005600087815260200190815260200160002060070160006101000a81548160ff02191690831515021790555060008211156107735760008173ffffffffffffffffffffffffffffffffffffffff1663036c22ad85600501546040518263ffffffff1660e01b81526004016106ef9190611a0a565b602060405180830381865afa15801561070c573d6000803e3d6000fd5b505050506040513d601f19601f820116820180604052508101906107309190611a3a565b9050600060646042836107439190611a67565b61074d9190611af0565b9050808411156107655760019550505050505061077b565b60009550505050505061077b565b600093505050505b919050565b8133600115156005600084815260200190815260200160002060070160029054906101000a900460ff161515146107ec576040517f08c379a00000000000000000000000000000000000000000000000000000000081526004016107e390611912565b60405180910390fd5b43600560008481526020019081526020016000206006015411610844576040517f08c379a000000000000000000000000000000000000000000000000000000000815260040161083b90611b6d565b60405180910390fd5b600015156006600084815260200190815260200160002060008373ffffffffffffffffffffffffffffffffffffffff1673ffffffffffffffffffffffffffffffffffffffff16815260200190815260200160002060009054906101000a900460ff161515146108e8576040517f08c379a00000000000000000000000000000000000000000000000000000000081526004016108df90611bd9565b60405180910390fd5b836005600082815260200190815260200160002060070160019054906101000a900460ff16156109bb57600015156006600083815260200190815260200160002060003273ffffffffffffffffffffffffffffffffffffffff1673ffffffffffffffffffffffffffffffffffffffff16815260200190815260200160002060009054906101000a900460ff161515146109b6576040517f08c379a00000000000000000000000000000000000000000000000000000000081526004016109ad90611bd9565b60405180910390fd5b610a61565b6005600082815260200190815260200160002060000160009054906101000a900473ffffffffffffffffffffffffffffffffffffffff1673ffffffffffffffffffffffffffffffffffffffff163273ffffffffffffffffffffffffffffffffffffffff161415610a60576040517f08c379a0000000000000000000000000000000000000000000000000000000008152600401610a5790611c45565b60405180910390fd5b5b610a6c85853261102b565b5050505050565b600360009054906101000a900473ffffffffffffffffffffffffffffffffffffffff1673ffffffffffffffffffffffffffffffffffffffff163373ffffffffffffffffffffffffffffffffffffffff1614610b03576040517f08c379a0000000000000000000000000000000000000000000000000000000008152600401610afa9061173b565b60405180910390fd5b80600160006101000a81548173ffffffffffffffffffffffffffffffffffffffff021916908373ffffffffffffffffffffffffffffffffffffffff16021790555050565b600060046000815480929190610b5c9061187d565b919050555060006040518061014001604052803273ffffffffffffffffffffffffffffffffffffffff1681526020016000815260200160008152602001600081526020016000815260200184815260200160005443610bbb9190611c65565b815260200160001515815260200185151581526020016001151581525090508060056000600454815260200190815260200160002060008201518160000160006101000a81548173ffffffffffffffffffffffffffffffffffffffff021916908373ffffffffffffffffffffffffffffffffffffffff1602179055506020820151816001015560408201518160020155606082015181600301556080820151816004015560a0820151816005015560c0820151816006015560e08201518160070160006101000a81548160ff0219169083151502179055506101008201518160070160016101000a81548160ff0219169083151502179055506101208201518160070160026101000a81548160ff02191690831515021790555090505060045491505092915050565b8281600115156005600084815260200190815260200160002060070160029054906101000a900460ff16151514610d50576040517f08c379a0000000000000000000000000000000000000000000000000000000008152600401610d4790611912565b60405180910390fd5b43600560008481526020019081526020016000206006015411610da8576040517f08c379a0000000000000000000000000000000000000000000000000000000008152600401610d9f90611b6d565b60405180910390fd5b600015156006600084815260200190815260200160002060008373ffffffffffffffffffffffffffffffffffffffff1673ffffffffffffffffffffffffffffffffffffffff16815260200190815260200160002060009054906101000a900460ff16151514610e4c576040517f08c379a0000000000000000000000000000000000000000000000000000000008152600401610e4390611bd9565b60405180910390fd5b610e5785858561102b565b5050505050565b600115156006600086815260200190815260200160002060008573ffffffffffffffffffffffffffffffffffffffff1673ffffffffffffffffffffffffffffffffffffffff16815260200190815260200160002060009054906101000a900460ff16151514610f02576040517f08c379a0000000000000000000000000000000000000000000000000000000008152600401610ef990611d07565b60405180910390fd5b60006007600086815260200190815260200160002060008573ffffffffffffffffffffffffffffffffffffffff1673ffffffffffffffffffffffffffffffffffffffff16815260200190815260200160002060009054906101000a900460ff1690508015610fc95782600560008781526020019081526020016000206001016000828254610f9091906117f0565b9250508190555081600560008781526020019081526020016000206001016000828254610fbd9190611c65565b92505081905550611024565b82600560008781526020019081526020016000206003016000828254610fef91906117f0565b925050819055508160056000878152602001908152602001600020600301600082825461101c9190611c65565b925050819055505b5050505050565b6000600160009054906101000a900473ffffffffffffffffffffffffffffffffffffffff169050600060056000868152602001908152602001600020604051806101400160405290816000820160009054906101000a900473ffffffffffffffffffffffffffffffffffffffff1673ffffffffffffffffffffffffffffffffffffffff1673ffffffffffffffffffffffffffffffffffffffff1681526020016001820154815260200160028201548152602001600382015481526020016004820154815260200160058201548152602001600682015481526020016007820160009054906101000a900460ff161515151581526020016007820160019054906101000a900460ff161515151581526020016007820160029054906101000a900460ff161515151581525050905060008273ffffffffffffffffffffffffffffffffffffffff1662fdd58e858460a001516040518363ffffffff1660e01b8152600401611198929190611d27565b602060405180830381865afa1580156111b5573d6000803e3d6000fd5b505050506040513d601f19601f820116820180604052508101906111d99190611a3a565b9050841561124157806005600088815260200190815260200160002060010160008282546112079190611c65565b9250508190555060016005600088815260200190815260200160002060020160008282546112359190611c65565b9250508190555061129d565b806005600088815260200190815260200160002060030160008282546112679190611c65565b9250508190555060016005600088815260200190815260200160002060040160008282546112959190611c65565b925050819055505b60016006600088815260200190815260200160002060008673ffffffffffffffffffffffffffffffffffffffff1673ffffffffffffffffffffffffffffffffffffffff16815260200190815260200160002060006101000a81548160ff021916908315150217905550846007600088815260200190815260200160002060008673ffffffffffffffffffffffffffffffffffffffff1673ffffffffffffffffffffffffffffffffffffffff16815260200190815260200160002060006101000a81548160ff0219169083151502179055506000600860008673ffffffffffffffffffffffffffffffffffffffff1673ffffffffffffffffffffffffffffffffffffffff16815260200190815260200160002090508087908060018154018082558091505060019003906000526020600020016000909190919091505550505050505050565b600080fd5b6000819050919050565b6113fa816113e7565b811461140557600080fd5b50565b600081359050611417816113f1565b92915050565b600060208284031215611433576114326113e2565b5b600061144184828501611408565b91505092915050565b60008115159050919050565b61145f8161144a565b811461146a57600080fd5b50565b60008135905061147c81611456565b92915050565b60008060408385031215611499576114986113e2565b5b60006114a785828601611408565b92505060206114b88582860161146d565b9150509250929050565b600073ffffffffffffffffffffffffffffffffffffffff82169050919050565b60006114ed826114c2565b9050919050565b6114fd816114e2565b811461150857600080fd5b50565b60008135905061151a816114f4565b92915050565b600060208284031215611536576115356113e2565b5b60006115448482850161150b565b91505092915050565b60008060408385031215611564576115636113e2565b5b60006115728582860161146d565b925050602061158385828601611408565b9150509250929050565b6000806000606084860312156115a6576115a56113e2565b5b60006115b486828701611408565b93505060206115c58682870161146d565b92505060406115d68682870161150b565b9150509250925092565b6115e9816114e2565b82525050565b600060208201905061160460008301846115e0565b92915050565b60008060008060808587031215611624576116236113e2565b5b60006116328782880161150b565b945050602061164387828801611408565b935050604061165487828801611408565b925050606061166587828801611408565b91505092959194509250565b61167a816113e7565b82525050565b6116898161144a565b82525050565b60006040820190506116a46000830185611671565b6116b16020830184611680565b9392505050565b600082825260208201905092915050565b7f596f7520617265206e6f7420617574686f72697a656420666f7220746869732060008201527f616374696f6e0000000000000000000000000000000000000000000000000000602082015250565b60006117256026836116b8565b9150611730826116c9565b604082019050919050565b6000602082019050818103600083015261175481611718565b9050919050565b600060608201905061177060008301866115e0565b61177d6020830185611671565b61178a6040830184611671565b949350505050565b7f4e487b7100000000000000000000000000000000000000000000000000000000600052603260045260246000fd5b7f4e487b7100000000000000000000000000000000000000000000000000000000600052601160045260246000fd5b60006117fb826113e7565b9150611806836113e7565b925082821015611819576118186117c1565b5b828203905092915050565b7f4e487b7100000000000000000000000000000000000000000000000000000000600052603160045260246000fd5b600061185e826113e7565b91506000821415611872576118716117c1565b5b600182039050919050565b6000611888826113e7565b91507fffffffffffffffffffffffffffffffffffffffffffffffffffffffffffffffff8214156118bb576118ba6117c1565b5b600182019050919050565b7f4e6f2062616c6c6f74207769746820796f757220696420697320666f756e6400600082015250565b60006118fc601f836116b8565b9150611907826118c6565b602082019050919050565b6000602082019050818103600083015261192b816118ef565b9050919050565b7f566f74696e672074696d65206973206e6f74206f766572207965740000000000600082015250565b6000611968601b836116b8565b915061197382611932565b602082019050919050565b600060208201905081810360008301526119978161195b565b9050919050565b7f526573756c7420616c7265616479206465636c61726564000000000000000000600082015250565b60006119d46017836116b8565b91506119df8261199e565b602082019050919050565b60006020820190508181036000830152611a03816119c7565b9050919050565b6000602082019050611a1f6000830184611671565b92915050565b600081519050611a34816113f1565b92915050565b600060208284031215611a5057611a4f6113e2565b5b6000611a5e84828501611a25565b91505092915050565b6000611a72826113e7565b9150611a7d836113e7565b9250817fffffffffffffffffffffffffffffffffffffffffffffffffffffffffffffffff0483118215151615611ab657611ab56117c1565b5b828202905092915050565b7f4e487b7100000000000000000000000000000000000000000000000000000000600052601260045260246000fd5b6000611afb826113e7565b9150611b06836113e7565b925082611b1657611b15611ac1565b5b828204905092915050565b7f566f74696e672074696d65206973206f76657200000000000000000000000000600082015250565b6000611b576013836116b8565b9150611b6282611b21565b602082019050919050565b60006020820190508181036000830152611b8681611b4a565b9050919050565b7f596f75206861766520616c726561647920766f74656400000000000000000000600082015250565b6000611bc36016836116b8565b9150611bce82611b8d565b602082019050919050565b60006020820190508181036000830152611bf281611bb6565b9050919050565b7f4f776e65722063616e6e6f7420766f7465000000000000000000000000000000600082015250565b6000611c2f6011836116b8565b9150611c3a82611bf9565b602082019050919050565b60006020820190508181036000830152611c5e81611c22565b9050919050565b6000611c70826113e7565b9150611c7b836113e7565b9250827fffffffffffffffffffffffffffffffffffffffffffffffffffffffffffffffff03821115611cb057611caf6117c1565b5b828201905092915050565b7f5573657220686173206e6f7420766f7465642079657400000000000000000000600082015250565b6000611cf16016836116b8565b9150611cfc82611cbb565b602082019050919050565b60006020820190508181036000830152611d2081611ce4565b9050919050565b6000604082019050611d3c60008301856115e0565b611d496020830184611671565b939250505056fea2646970667358221220bf3f55b4bc7d3430ab77f972eb8aa1a0556efc63449f9427ce632af8ed127a8764736f6c634300080c0033",
  "immutableReferences": {},
  "source": "// SPDX-License-Identifier: MIT\n\npragma solidity ^0.8.0;\n\nimport \"../voting/BaseVotingContract.sol\";\n\ncontract BaseVotingContractMock is BaseVotingContract {\n    uint256 private LastTokenId = 1;\n    /**\n        @dev this event is genrated when result of a ballot is declared\n        @param ballotId this is the ballot Id for which result is declared \n        @param result this is the status of the result //either true if user won that is he recived more than 66% of votes or false if user lost \n     */\n    event BallotResult(uint256 ballotId, bool result);\n\n    constructor(uint8 votingInterval) {\n        VOTING_BLOCK_PERIOD = votingInterval;\n    }\n\n    /**\n     * @dev This function sets the treasury Contract address\n     */\n    function setTreasuryContractAddress(address newTreasuryContractAddress)\n        external\n        _ownerOnly\n    {\n        _setTreasuryContractAddress(newTreasuryContractAddress);\n    }\n\n    function createBallot(bool canOwnerVote, uint256 tokenId) public {\n        _createVoting(canOwnerVote, tokenId);\n    }\n\n    function castVote(uint256 ballotId, bool vote) public {\n        _castVote(ballotId, vote);\n    }\n\n    function castVoteForOther(\n        uint256 ballotId,\n        bool vote,\n        address voter\n    ) public {\n        _castVoteForOther(ballotId, vote, voter);\n    }\n\n    function declareWinner(uint256 ballotId) public {\n        bool result = _declareWinner(ballotId);\n        emit BallotResult(ballotId, result);\n    }\n}\n",
  "sourcePath": "/Users/a1/Desktop/Office/projects/CrowdRecords/Contracts/contracts/Mocks/BaseVotingContractMock.sol",
  "compiler": {
    "name": "solc",
    "version": "0.8.12+commit.f00d7308.Emscripten.clang"
  },
  "schemaVersion": "3.4.6",
  "updatedAt": "2022-08-08T09:14:59.944Z",
  "devdoc": {
    "events": {
      "BallotResult(uint256,bool)": {
        "details": "this event is genrated when result of a ballot is declared",
        "params": {
          "ballotId": "this is the ballot Id for which result is declared ",
          "result": "this is the status of the result //either true if user won that is he recived more than 66% of votes or false if user lost "
        }
      }
    },
    "kind": "dev",
    "methods": {
      "_handleUserTokenTransfers(address,uint256,uint256,uint256)": {
        "details": "This function will be called when either user is transferring the tokens to other account, or is receiving tokens from other tokens.",
        "params": {
          "newBalance": "this is the new balance of the user that is after the transfer",
          "previousBalance": "this is the old balance of the user",
          "user": "address of the user whose balance is being changed"
        }
      },
      "setTreasuryContractAddress(address)": {
        "details": "This function sets the treasury Contract address"
      }
    },
    "version": 1
  },
  "userdoc": {
    "kind": "user",
    "methods": {},
    "version": 1
  }
}