{
  "contractName": "BaseVotingContractMock",
  "abi": [
    {
      "inputs": [
        {
          "internalType": "uint8",
          "name": "votingInterval",
          "type": "uint8"
        }
      ],
      "stateMutability": "nonpayable",
      "type": "constructor"
    },
    {
      "anonymous": false,
      "inputs": [
        {
          "indexed": false,
          "internalType": "uint256",
          "name": "ballotId",
          "type": "uint256"
        },
        {
          "indexed": false,
          "internalType": "bool",
          "name": "result",
          "type": "bool"
        }
      ],
      "name": "BallotResult",
      "type": "event"
    },
    {
      "inputs": [],
      "name": "TREASURY_CONTRACT_ADDRESS",
      "outputs": [
        {
          "internalType": "address",
          "name": "",
          "type": "address"
        }
      ],
      "stateMutability": "view",
      "type": "function"
    },
    {
      "inputs": [
        {
          "internalType": "address",
          "name": "newTreasuryContractAddress",
          "type": "address"
        }
      ],
      "name": "setTreasuryContractAddress",
      "outputs": [],
      "stateMutability": "nonpayable",
      "type": "function"
    },
    {
      "inputs": [
        {
          "internalType": "bool",
          "name": "canOwnerVote",
          "type": "bool"
        }
      ],
      "name": "createBallot",
      "outputs": [],
      "stateMutability": "nonpayable",
      "type": "function"
    },
    {
      "inputs": [
        {
          "internalType": "uint256",
          "name": "ballotId",
          "type": "uint256"
        },
        {
          "internalType": "bool",
          "name": "vote",
          "type": "bool"
        }
      ],
      "name": "castVote",
      "outputs": [],
      "stateMutability": "nonpayable",
      "type": "function"
    },
    {
      "inputs": [
        {
          "internalType": "uint256",
          "name": "ballotId",
          "type": "uint256"
        },
        {
          "internalType": "bool",
          "name": "vote",
          "type": "bool"
        },
        {
          "internalType": "address",
          "name": "voter",
          "type": "address"
        }
      ],
      "name": "castVoteForOther",
      "outputs": [],
      "stateMutability": "nonpayable",
      "type": "function"
    },
    {
      "inputs": [
        {
          "internalType": "uint256",
          "name": "ballotId",
          "type": "uint256"
        },
        {
          "internalType": "uint256",
          "name": "tokenId",
          "type": "uint256"
        }
      ],
      "name": "declareWinner",
      "outputs": [],
      "stateMutability": "nonpayable",
      "type": "function"
    }
  ],
  "bytecode": "0x60806040526019600055600060035560016006553480156200002057600080fd5b5060405162001cf238038062001cf28339818101604052810190620000469190620000db565b33600260006101000a81548173ffffffffffffffffffffffffffffffffffffffff021916908373ffffffffffffffffffffffffffffffffffffffff1602179055508060ff16600081905550506200010d565b600080fd5b600060ff82169050919050565b620000b5816200009d565b8114620000c157600080fd5b50565b600081519050620000d581620000aa565b92915050565b600060208284031215620000f457620000f362000098565b5b60006200010484828501620000c4565b91505092915050565b611bd5806200011d6000396000f3fe608060405234801561001057600080fd5b50600436106100625760003560e01c806315373e3d146100675780631643c8c4146100835780634cf2d48f1461009f57806382f61de5146100bb578063acb31493146100d7578063ad48ac76146100f5575b600080fd5b610081600480360381019061007c91906110a9565b610111565b005b61009d600480360381019061009891906110e9565b61011f565b005b6100b960048036038101906100b49190611187565b61016b565b005b6100d560048036038101906100d091906111b4565b610207565b005b6100df610217565b6040516100ec9190611216565b60405180910390f35b61010f600480360381019061010a9190611231565b61023d565b005b61011b828261024a565b5050565b600061012b838361053d565b90507f53d10fab88267d8231908eb87e8f64a19ceecd01180ef034a610f9b35783ba53838260405161015e92919061127c565b60405180910390a1505050565b600260009054906101000a900473ffffffffffffffffffffffffffffffffffffffff1673ffffffffffffffffffffffffffffffffffffffff163373ffffffffffffffffffffffffffffffffffffffff16146101fb576040517f08c379a00000000000000000000000000000000000000000000000000000000081526004016101f290611328565b60405180910390fd5b610204816109ad565b50565b610212838383610a81565b505050565b600160009054906101000a900473ffffffffffffffffffffffffffffffffffffffff1681565b61024681610bfb565b5050565b8133600115156004600084815260200190815260200160002060040160029054906101000a900460ff161515146102b6576040517f08c379a00000000000000000000000000000000000000000000000000000000081526004016102ad90611394565b60405180910390fd5b4360046000848152602001908152602001600020600301541161030e576040517f08c379a000000000000000000000000000000000000000000000000000000000815260040161030590611400565b60405180910390fd5b600015156005600084815260200190815260200160002060008373ffffffffffffffffffffffffffffffffffffffff1673ffffffffffffffffffffffffffffffffffffffff16815260200190815260200160002060009054906101000a900460ff161515146103b2576040517f08c379a00000000000000000000000000000000000000000000000000000000081526004016103a99061146c565b60405180910390fd5b836004600082815260200190815260200160002060040160019054906101000a900460ff161561048557600015156005600083815260200190815260200160002060003273ffffffffffffffffffffffffffffffffffffffff1673ffffffffffffffffffffffffffffffffffffffff16815260200190815260200160002060009054906101000a900460ff16151514610480576040517f08c379a00000000000000000000000000000000000000000000000000000000081526004016104779061146c565b60405180910390fd5b61052b565b6004600082815260200190815260200160002060000160009054906101000a900473ffffffffffffffffffffffffffffffffffffffff1673ffffffffffffffffffffffffffffffffffffffff163273ffffffffffffffffffffffffffffffffffffffff16141561052a576040517f08c379a0000000000000000000000000000000000000000000000000000000008152600401610521906114d8565b60405180910390fd5b5b610536858532610e18565b5050505050565b6000600115156004600085815260200190815260200160002060040160029054906101000a900460ff161515146105a9576040517f08c379a00000000000000000000000000000000000000000000000000000000081526004016105a090611394565b60405180910390fd5b43600460008581526020019081526020016000206003015410610601576040517f08c379a00000000000000000000000000000000000000000000000000000000081526004016105f890611544565b60405180910390fd5b600015156004600085815260200190815260200160002060040160009054906101000a900460ff1615151461066b576040517f08c379a0000000000000000000000000000000000000000000000000000000008152600401610662906115b0565b60405180910390fd5b60006004600085815260200190815260200160002060010180548060200260200160405190810160405280929190818152602001828054801561070357602002820191906000526020600020905b8160009054906101000a900473ffffffffffffffffffffffffffffffffffffffff1673ffffffffffffffffffffffffffffffffffffffff16815260200190600101908083116106b9575b505050505090506000815167ffffffffffffffff811115610727576107266115d0565b5b6040519080825280602002602001820160405280156107555781602001602082028036833780820191505090505b50905060005b82518110156107975784828281518110610778576107776115ff565b5b602002602001018181525050808061078f9061165d565b91505061075b565b506000600160009054906101000a900473ffffffffffffffffffffffffffffffffffffffff16905060008173ffffffffffffffffffffffffffffffffffffffff16634e1273f4600460008a8152602001908152602001600020600101856040518363ffffffff1660e01b8152600401610811929190611888565b600060405180830381865afa15801561082e573d6000803e3d6000fd5b505050506040513d6000823e3d601f19601f8201168201806040525081019061085791906119fe565b90506000805b85518110156108a157828181518110610879576108786115ff565b5b60200260200101518261088c9190611a47565b915080806108999061165d565b91505061085d565b506001600460008a815260200190815260200160002060040160006101000a81548160ff021916908315150217905550600081111561099d5760008373ffffffffffffffffffffffffffffffffffffffff1663036c22ad896040518263ffffffff1660e01b81526004016109159190611a9d565b602060405180830381865afa158015610932573d6000803e3d6000fd5b505050506040513d601f19601f820116820180604052508101906109569190611ab8565b90506000816064846109689190611ae5565b6109729190611b6e565b9050604281111561098d5760019750505050505050506109a7565b60009750505050505050506109a7565b6000955050505050505b92915050565b600260009054906101000a900473ffffffffffffffffffffffffffffffffffffffff1673ffffffffffffffffffffffffffffffffffffffff163373ffffffffffffffffffffffffffffffffffffffff1614610a3d576040517f08c379a0000000000000000000000000000000000000000000000000000000008152600401610a3490611328565b60405180910390fd5b80600160006101000a81548173ffffffffffffffffffffffffffffffffffffffff021916908373ffffffffffffffffffffffffffffffffffffffff16021790555050565b8281600115156004600084815260200190815260200160002060040160029054906101000a900460ff16151514610aed576040517f08c379a0000000000000000000000000000000000000000000000000000000008152600401610ae490611394565b60405180910390fd5b43600460008481526020019081526020016000206003015411610b45576040517f08c379a0000000000000000000000000000000000000000000000000000000008152600401610b3c90611400565b60405180910390fd5b600015156005600084815260200190815260200160002060008373ffffffffffffffffffffffffffffffffffffffff1673ffffffffffffffffffffffffffffffffffffffff16815260200190815260200160002060009054906101000a900460ff16151514610be9576040517f08c379a0000000000000000000000000000000000000000000000000000000008152600401610be09061146c565b60405180910390fd5b610bf4858585610e18565b5050505050565b600060036000815480929190610c109061165d565b919050555060006040518060e001604052803273ffffffffffffffffffffffffffffffffffffffff168152602001600067ffffffffffffffff811115610c5957610c586115d0565b5b604051908082528060200260200182016040528015610c875781602001602082028036833780820191505090505b508152602001600067ffffffffffffffff811115610ca857610ca76115d0565b5b604051908082528060200260200182016040528015610cd65781602001602082028036833780820191505090505b50815260200160005443610cea9190611a47565b815260200160001515815260200184151581526020016001151581525090508060046000600354815260200190815260200160002060008201518160000160006101000a81548173ffffffffffffffffffffffffffffffffffffffff021916908373ffffffffffffffffffffffffffffffffffffffff1602179055506020820151816001019080519060200190610d82929190610f80565b506040820151816002019080519060200190610d9f929190610f80565b506060820151816003015560808201518160040160006101000a81548160ff02191690831515021790555060a08201518160040160016101000a81548160ff02191690831515021790555060c08201518160040160026101000a81548160ff021916908315150217905550905050600354915050919050565b8115610e9a5760046000848152602001908152602001600020600101819080600181540180825580915050600190039060005260206000200160009091909190916101000a81548173ffffffffffffffffffffffffffffffffffffffff021916908373ffffffffffffffffffffffffffffffffffffffff160217905550610f12565b60046000848152602001908152602001600020600201819080600181540180825580915050600190039060005260206000200160009091909190916101000a81548173ffffffffffffffffffffffffffffffffffffffff021916908373ffffffffffffffffffffffffffffffffffffffff1602179055505b60016005600085815260200190815260200160002060008373ffffffffffffffffffffffffffffffffffffffff1673ffffffffffffffffffffffffffffffffffffffff16815260200190815260200160002060006101000a81548160ff021916908315150217905550505050565b828054828255906000526020600020908101928215610ff9579160200282015b82811115610ff85782518260006101000a81548173ffffffffffffffffffffffffffffffffffffffff021916908373ffffffffffffffffffffffffffffffffffffffff16021790555091602001919060010190610fa0565b5b509050611006919061100a565b5090565b5b8082111561102357600081600090555060010161100b565b5090565b6000604051905090565b600080fd5b600080fd5b6000819050919050565b61104e8161103b565b811461105957600080fd5b50565b60008135905061106b81611045565b92915050565b60008115159050919050565b61108681611071565b811461109157600080fd5b50565b6000813590506110a38161107d565b92915050565b600080604083850312156110c0576110bf611031565b5b60006110ce8582860161105c565b92505060206110df85828601611094565b9150509250929050565b60008060408385031215611100576110ff611031565b5b600061110e8582860161105c565b925050602061111f8582860161105c565b9150509250929050565b600073ffffffffffffffffffffffffffffffffffffffff82169050919050565b600061115482611129565b9050919050565b61116481611149565b811461116f57600080fd5b50565b6000813590506111818161115b565b92915050565b60006020828403121561119d5761119c611031565b5b60006111ab84828501611172565b91505092915050565b6000806000606084860312156111cd576111cc611031565b5b60006111db8682870161105c565b93505060206111ec86828701611094565b92505060406111fd86828701611172565b9150509250925092565b61121081611149565b82525050565b600060208201905061122b6000830184611207565b92915050565b60006020828403121561124757611246611031565b5b600061125584828501611094565b91505092915050565b6112678161103b565b82525050565b61127681611071565b82525050565b6000604082019050611291600083018561125e565b61129e602083018461126d565b9392505050565b600082825260208201905092915050565b7f596f7520617265206e6f7420617574686f72697a656420666f7220746869732060008201527f616374696f6e0000000000000000000000000000000000000000000000000000602082015250565b60006113126026836112a5565b915061131d826112b6565b604082019050919050565b6000602082019050818103600083015261134181611305565b9050919050565b7f4e6f2062616c6c6f74207769746820796f757220696420697320666f756e6400600082015250565b600061137e601f836112a5565b915061138982611348565b602082019050919050565b600060208201905081810360008301526113ad81611371565b9050919050565b7f566f74696e672074696d65206973206f76657200000000000000000000000000600082015250565b60006113ea6013836112a5565b91506113f5826113b4565b602082019050919050565b60006020820190508181036000830152611419816113dd565b9050919050565b7f596f75206861766520616c726561647920766f74656400000000000000000000600082015250565b60006114566016836112a5565b915061146182611420565b602082019050919050565b6000602082019050818103600083015261148581611449565b9050919050565b7f4f776e65722063616e6e6f7420766f7465000000000000000000000000000000600082015250565b60006114c26011836112a5565b91506114cd8261148c565b602082019050919050565b600060208201905081810360008301526114f1816114b5565b9050919050565b7f566f74696e672074696d65206973206e6f74206f766572207965740000000000600082015250565b600061152e601b836112a5565b9150611539826114f8565b602082019050919050565b6000602082019050818103600083015261155d81611521565b9050919050565b7f526573756c7420616c7265616479206465636c61726564000000000000000000600082015250565b600061159a6017836112a5565b91506115a582611564565b602082019050919050565b600060208201905081810360008301526115c98161158d565b9050919050565b7f4e487b7100000000000000000000000000000000000000000000000000000000600052604160045260246000fd5b7f4e487b7100000000000000000000000000000000000000000000000000000000600052603260045260246000fd5b7f4e487b7100000000000000000000000000000000000000000000000000000000600052601160045260246000fd5b60006116688261103b565b91507fffffffffffffffffffffffffffffffffffffffffffffffffffffffffffffffff82141561169b5761169a61162e565b5b600182019050919050565b600081549050919050565b600082825260208201905092915050565b60008190508160005260206000209050919050565b6116e081611149565b82525050565b60006116f283836116d7565b60208301905092915050565b60008160001c9050919050565b600073ffffffffffffffffffffffffffffffffffffffff82169050919050565b600061173e611739836116fe565b61170b565b9050919050565b6000611751825461172b565b9050919050565b6000600182019050919050565b6000611770826116a6565b61177a81856116b1565b9350611785836116c2565b8060005b838110156117bd5761179a82611745565b6117a488826116e6565b97506117af83611758565b925050600181019050611789565b5085935050505092915050565b600081519050919050565b600082825260208201905092915050565b6000819050602082019050919050565b6117ff8161103b565b82525050565b600061181183836117f6565b60208301905092915050565b6000602082019050919050565b6000611835826117ca565b61183f81856117d5565b935061184a836117e6565b8060005b8381101561187b5781516118628882611805565b975061186d8361181d565b92505060018101905061184e565b5085935050505092915050565b600060408201905081810360008301526118a28185611765565b905081810360208301526118b6818461182a565b90509392505050565b600080fd5b6000601f19601f8301169050919050565b6118de826118c4565b810181811067ffffffffffffffff821117156118fd576118fc6115d0565b5b80604052505050565b6000611910611027565b905061191c82826118d5565b919050565b600067ffffffffffffffff82111561193c5761193b6115d0565b5b602082029050602081019050919050565b600080fd5b60008151905061196181611045565b92915050565b600061197a61197584611921565b611906565b9050808382526020820190506020840283018581111561199d5761199c61194d565b5b835b818110156119c657806119b28882611952565b84526020840193505060208101905061199f565b5050509392505050565b600082601f8301126119e5576119e46118bf565b5b81516119f5848260208601611967565b91505092915050565b600060208284031215611a1457611a13611031565b5b600082015167ffffffffffffffff811115611a3257611a31611036565b5b611a3e848285016119d0565b91505092915050565b6000611a528261103b565b9150611a5d8361103b565b9250827fffffffffffffffffffffffffffffffffffffffffffffffffffffffffffffffff03821115611a9257611a9161162e565b5b828201905092915050565b6000602082019050611ab2600083018461125e565b92915050565b600060208284031215611ace57611acd611031565b5b6000611adc84828501611952565b91505092915050565b6000611af08261103b565b9150611afb8361103b565b9250817fffffffffffffffffffffffffffffffffffffffffffffffffffffffffffffffff0483118215151615611b3457611b3361162e565b5b828202905092915050565b7f4e487b7100000000000000000000000000000000000000000000000000000000600052601260045260246000fd5b6000611b798261103b565b9150611b848361103b565b925082611b9457611b93611b3f565b5b82820490509291505056fea26469706673582212200f38121e541b32d8cecdf219910b1213b9047c685bf00f4087195a39f11a950e64736f6c634300080c0033",
  "immutableReferences": {},
  "source": "// SPDX-License-Identifier: MIT\n\npragma solidity ^0.8.0;\n\nimport \"../voting/BaseVotingContract.sol\";\n\ncontract BaseVotingContractMock is BaseVotingContract {\n    uint256 private LastTokenId = 1;\n    /**\n        @dev this event is genrated when result of a ballot is declared\n        @param ballotId this is the ballot Id for which result is declared \n        @param result this is the status of the result //either true if user won that is he recived more than 66% of votes or false if user lost \n     */\n    event BallotResult(uint256 ballotId, bool result);\n\n    constructor(uint8 votingInterval) {\n        VOTING_BLOCK_PERIOD = votingInterval;\n    }\n\n    /**\n     * @dev This function sets the treasury Contract address\n     */\n    function setTreasuryContractAddress(address newTreasuryContractAddress)\n        external\n        _ownerOnly\n    {\n        _setTreasuryContractAddress(newTreasuryContractAddress);\n    }\n\n    function createBallot(bool canOwnerVote) public {\n        _createVoting(canOwnerVote);\n    }\n\n    function castVote(uint256 ballotId, bool vote) public {\n        _castVote(ballotId, vote);\n    }\n\n    function castVoteForOther(\n        uint256 ballotId,\n        bool vote,\n        address voter\n    ) public {\n        _castVoteForOther(ballotId, vote, voter);\n    }\n\n    function declareWinner(uint256 ballotId, uint256 tokenId) public {\n        bool result = _declareWinner(ballotId, tokenId);\n        emit BallotResult(ballotId, result);\n    }\n}\n",
  "sourcePath": "/Users/a1/Desktop/Office/projects/CrowdRecords/Contracts/contracts/Mocks/BaseVotingContractMock.sol",
  "compiler": {
    "name": "solc",
    "version": "0.8.12+commit.f00d7308.Emscripten.clang"
  },
  "schemaVersion": "3.4.6",
  "updatedAt": "2022-07-17T12:21:35.104Z",
  "devdoc": {
    "events": {
      "BallotResult(uint256,bool)": {
        "details": "this event is genrated when result of a ballot is declared",
        "params": {
          "ballotId": "this is the ballot Id for which result is declared ",
          "result": "this is the status of the result //either true if user won that is he recived more than 66% of votes or false if user lost "
        }
      }
    },
    "kind": "dev",
    "methods": {
      "setTreasuryContractAddress(address)": {
        "details": "This function sets the treasury Contract address"
      }
    },
    "version": 1
  },
  "userdoc": {
    "kind": "user",
    "methods": {},
    "version": 1
  }
}