{
  "contractName": "BaseVotingCounterOfferContractMock",
  "abi": [
    {
      "inputs": [
        {
          "internalType": "uint8",
          "name": "votingInterval",
          "type": "uint8"
        },
        {
          "internalType": "address",
          "name": "owner",
          "type": "address"
        }
      ],
      "stateMutability": "nonpayable",
      "type": "constructor"
    },
    {
      "anonymous": false,
      "inputs": [
        {
          "indexed": false,
          "internalType": "uint256",
          "name": "ballotId",
          "type": "uint256"
        },
        {
          "indexed": false,
          "internalType": "bool",
          "name": "result",
          "type": "bool"
        }
      ],
      "name": "BallotResult",
      "type": "event"
    },
    {
      "anonymous": false,
      "inputs": [
        {
          "indexed": false,
          "internalType": "uint8",
          "name": "version",
          "type": "uint8"
        }
      ],
      "name": "Initialized",
      "type": "event"
    },
    {
      "inputs": [],
      "name": "OWNER",
      "outputs": [
        {
          "internalType": "address",
          "name": "",
          "type": "address"
        }
      ],
      "stateMutability": "view",
      "type": "function"
    },
    {
      "inputs": [],
      "name": "TREASURY_CONTRACT_ADDRESS",
      "outputs": [
        {
          "internalType": "address",
          "name": "",
          "type": "address"
        }
      ],
      "stateMutability": "view",
      "type": "function"
    },
    {
      "inputs": [],
      "name": "TREASURY_HUB_ADDRESS",
      "outputs": [
        {
          "internalType": "address",
          "name": "",
          "type": "address"
        }
      ],
      "stateMutability": "view",
      "type": "function"
    },
    {
      "inputs": [
        {
          "internalType": "address",
          "name": "user",
          "type": "address"
        },
        {
          "internalType": "uint256",
          "name": "tokenId",
          "type": "uint256"
        },
        {
          "internalType": "uint256",
          "name": "previousBalance",
          "type": "uint256"
        },
        {
          "internalType": "uint256",
          "name": "newBalance",
          "type": "uint256"
        }
      ],
      "name": "_handleUserTokenTransfers",
      "outputs": [],
      "stateMutability": "nonpayable",
      "type": "function"
    },
    {
      "inputs": [
        {
          "internalType": "address",
          "name": "ownerAddress",
          "type": "address"
        }
      ],
      "name": "setOwnerAddress",
      "outputs": [],
      "stateMutability": "nonpayable",
      "type": "function"
    },
    {
      "inputs": [
        {
          "internalType": "address",
          "name": "newTreasuryContractAddress",
          "type": "address"
        }
      ],
      "name": "initialize",
      "outputs": [],
      "stateMutability": "nonpayable",
      "type": "function"
    },
    {
      "inputs": [
        {
          "internalType": "bool",
          "name": "canOwnerVote",
          "type": "bool"
        },
        {
          "internalType": "uint256",
          "name": "tokenId",
          "type": "uint256"
        }
      ],
      "name": "createBallot",
      "outputs": [],
      "stateMutability": "nonpayable",
      "type": "function"
    },
    {
      "inputs": [
        {
          "internalType": "uint256",
          "name": "ballotId",
          "type": "uint256"
        },
        {
          "internalType": "bool",
          "name": "vote",
          "type": "bool"
        }
      ],
      "name": "castVote",
      "outputs": [],
      "stateMutability": "nonpayable",
      "type": "function"
    },
    {
      "inputs": [
        {
          "internalType": "uint256",
          "name": "ballotId",
          "type": "uint256"
        }
      ],
      "name": "createCounterOffer",
      "outputs": [],
      "stateMutability": "nonpayable",
      "type": "function"
    },
    {
      "inputs": [
        {
          "internalType": "uint256",
          "name": "votingBallotId",
          "type": "uint256"
        },
        {
          "internalType": "address",
          "name": "user",
          "type": "address"
        },
        {
          "internalType": "bool",
          "name": "vote",
          "type": "bool"
        }
      ],
      "name": "counterOfferAction",
      "outputs": [],
      "stateMutability": "nonpayable",
      "type": "function"
    },
    {
      "inputs": [
        {
          "internalType": "uint256",
          "name": "ballotId",
          "type": "uint256"
        }
      ],
      "name": "declareWinner",
      "outputs": [],
      "stateMutability": "nonpayable",
      "type": "function"
    }
  ],
  "bytecode": "0x6080604052601960015560006005556001600b553480156200002057600080fd5b50604051620027cf380380620027cf833981810160405281019062000046919062000145565b808080600460006101000a81548173ffffffffffffffffffffffffffffffffffffffff021916908373ffffffffffffffffffffffffffffffffffffffff16021790555050508160ff1660018190555050506200018c565b600080fd5b600060ff82169050919050565b620000ba81620000a2565b8114620000c657600080fd5b50565b600081519050620000da81620000af565b92915050565b600073ffffffffffffffffffffffffffffffffffffffff82169050919050565b60006200010d82620000e0565b9050919050565b6200011f8162000100565b81146200012b57600080fd5b50565b6000815190506200013f8162000114565b92915050565b600080604083850312156200015f576200015e6200009d565b5b60006200016f85828601620000c9565b925050602062000182858286016200012e565b9150509250929050565b612633806200019c6000396000f3fe608060405234801561001057600080fd5b50600436106100a85760003560e01c8063716085f611610071578063716085f61461013b5780638d2ae1f714610157578063abb7ed7f14610175578063acb3149314610191578063c4d66de8146101af578063db15ef5f146101cb576100a8565b8062c2943c146100ad578063117803e3146100c957806315373e3d146100e7578063331a6bf5146101035780636dce86641461011f575b600080fd5b6100c760048036038101906100c29190611ab8565b6101e7565b005b6100d1610231565b6040516100de9190611b26565b60405180910390f35b61010160048036038101906100fc9190611b79565b610257565b005b61011d60048036038101906101189190611be5565b610265565b005b61013960048036038101906101349190611c12565b610339565b005b61015560048036038101906101509190611ab8565b610348565b005b61015f610354565b60405161016c9190611b26565b60405180910390f35b61018f600480360381019061018a9190611c52565b61037a565b005b610199610573565b6040516101a69190611b26565b60405180910390f35b6101c960048036038101906101c49190611be5565b610599565b005b6101e560048036038101906101e09190611cb9565b610769565b005b60006101f282610779565b90507f53d10fab88267d8231908eb87e8f64a19ceecd01180ef034a610f9b35783ba538282604051610225929190611d2a565b60405180910390a15050565b600460009054906101000a900473ffffffffffffffffffffffffffffffffffffffff1681565b61026182826109f6565b5050565b600460009054906101000a900473ffffffffffffffffffffffffffffffffffffffff1673ffffffffffffffffffffffffffffffffffffffff163373ffffffffffffffffffffffffffffffffffffffff16146102f5576040517f08c379a00000000000000000000000000000000000000000000000000000000081526004016102ec90611dd6565b60405180910390fd5b80600460006101000a81548173ffffffffffffffffffffffffffffffffffffffff021916908373ffffffffffffffffffffffffffffffffffffffff16021790555050565b6103438282610aaa565b505050565b61035181610c47565b50565b600360009054906101000a900473ffffffffffffffffffffffffffffffffffffffff1681565b6000600960008673ffffffffffffffffffffffffffffffffffffffff1673ffffffffffffffffffffffffffffffffffffffff168152602001908152602001600020905060005b818054905081101561056b5760011515600660008484815481106103e7576103e6611df6565b5b9060005260206000200154815260200190815260200160002060070160009054906101000a900460ff16151514806104515750436006600084848154811061043257610431611df6565b5b9060005260206000200154815260200190815260200160002060060154105b156104f25781600183805490506104689190611e54565b8154811061047957610478611df6565b5b906000526020600020015482828154811061049757610496611df6565b5b9060005260206000200181905550818054806104b6576104b5611e88565b5b6001900381819060005260206000200160009055905560008114156104de57600090506104ed565b80806104e990611eb7565b9150505b610558565b6006600083838154811061050957610508611df6565b5b90600052602060002001548152602001908152602001600020600501548514156105575761055682828154811061054357610542611df6565b5b9060005260206000200154878686610ec3565b5b5b808061056390611ee1565b9150506103c0565b505050505050565b600260009054906101000a900473ffffffffffffffffffffffffffffffffffffffff1681565b60008060019054906101000a900460ff161590508080156105ca5750600160008054906101000a900460ff1660ff16105b806105f757506105d930611090565b1580156105f65750600160008054906101000a900460ff1660ff16145b5b610636576040517f08c379a000000000000000000000000000000000000000000000000000000000815260040161062d90611f9c565b60405180910390fd5b60016000806101000a81548160ff021916908360ff1602179055508015610673576001600060016101000a81548160ff0219169083151502179055505b600460009054906101000a900473ffffffffffffffffffffffffffffffffffffffff1673ffffffffffffffffffffffffffffffffffffffff163373ffffffffffffffffffffffffffffffffffffffff1614610703576040517f08c379a00000000000000000000000000000000000000000000000000000000081526004016106fa90611dd6565b60405180910390fd5b61070c826110b3565b80156107655760008060016101000a81548160ff0219169083151502179055507f7f26b83ff96e1f2b6a682f133852f6798a09c465da95921460cefb3847402498600160405161075c919061200e565b60405180910390a15b5050565b61077483838361110e565b505050565b6000600115156006600084815260200190815260200160002060070160029054906101000a900460ff161515146107e5576040517f08c379a00000000000000000000000000000000000000000000000000000000081526004016107dc90612075565b60405180910390fd5b4360066000848152602001908152602001600020600601541061083d576040517f08c379a0000000000000000000000000000000000000000000000000000000008152600401610834906120e1565b60405180910390fd5b600015156006600084815260200190815260200160002060070160009054906101000a900460ff161515146108a7576040517f08c379a000000000000000000000000000000000000000000000000000000000815260040161089e9061214d565b60405180910390fd5b60006006600084815260200190815260200160002090506000816001015490506000600260009054906101000a900473ffffffffffffffffffffffffffffffffffffffff16905060016006600087815260200190815260200160002060070160006101000a81548160ff02191690831515021790555060008211156109e95760008173ffffffffffffffffffffffffffffffffffffffff1663036c22ad85600501546040518263ffffffff1660e01b8152600401610965919061216d565b602060405180830381865afa158015610982573d6000803e3d6000fd5b505050506040513d601f19601f820116820180604052508101906109a6919061219d565b9050600060646042836109b991906121ca565b6109c39190612253565b9050808411156109db576001955050505050506109f1565b6000955050505050506109f1565b600093505050505b919050565b8160001515600a600083815260200190815260200160002060003373ffffffffffffffffffffffffffffffffffffffff1673ffffffffffffffffffffffffffffffffffffffff16815260200190815260200160002060009054906101000a900460ff16151514610a9b576040517f08c379a0000000000000000000000000000000000000000000000000000000008152600401610a92906122d0565b60405180910390fd5b610aa583836111c6565b505050565b600060056000815480929190610abf90611ee1565b919050555060006040518061014001604052803273ffffffffffffffffffffffffffffffffffffffff1681526020016000815260200160008152602001600081526020016000815260200184815260200160015443610b1e91906122f0565b815260200160001515815260200185151581526020016001151581525090508060066000600554815260200190815260200160002060008201518160000160006101000a81548173ffffffffffffffffffffffffffffffffffffffff021916908373ffffffffffffffffffffffffffffffffffffffff1602179055506020820151816001015560408201518160020155606082015181600301556080820151816004015560a0820151816005015560c0820151816006015560e08201518160070160006101000a81548160ff0219169083151502179055506101008201518160070160016101000a81548160ff0219169083151502179055506101208201518160070160026101000a81548160ff02191690831515021790555090505060055491505092915050565b8060001515600a600083815260200190815260200160002060003373ffffffffffffffffffffffffffffffffffffffff1673ffffffffffffffffffffffffffffffffffffffff16815260200190815260200160002060009054906101000a900460ff16151514610cec576040517f08c379a0000000000000000000000000000000000000000000000000000000008152600401610ce3906122d0565b60405180910390fd5b8133600115156006600084815260200190815260200160002060070160029054906101000a900460ff16151514610d58576040517f08c379a0000000000000000000000000000000000000000000000000000000008152600401610d4f90612075565b60405180910390fd5b43600660008481526020019081526020016000206006015411610db0576040517f08c379a0000000000000000000000000000000000000000000000000000000008152600401610da7906120e1565b60405180910390fd5b600015156007600084815260200190815260200160002060008373ffffffffffffffffffffffffffffffffffffffff1673ffffffffffffffffffffffffffffffffffffffff16815260200190815260200160002060009054906101000a900460ff16151514610e54576040517f08c379a0000000000000000000000000000000000000000000000000000000008152600401610e4b90612392565b60405180910390fd5b6001600a600086815260200190815260200160002060003373ffffffffffffffffffffffffffffffffffffffff1673ffffffffffffffffffffffffffffffffffffffff16815260200190815260200160002060006101000a81548160ff02191690831515021790555050505050565b600115156007600086815260200190815260200160002060008573ffffffffffffffffffffffffffffffffffffffff1673ffffffffffffffffffffffffffffffffffffffff16815260200190815260200160002060009054906101000a900460ff16151514610f67576040517f08c379a0000000000000000000000000000000000000000000000000000000008152600401610f5e90612424565b60405180910390fd5b60006008600086815260200190815260200160002060008573ffffffffffffffffffffffffffffffffffffffff1673ffffffffffffffffffffffffffffffffffffffff16815260200190815260200160002060009054906101000a900460ff169050801561102e5782600660008781526020019081526020016000206001016000828254610ff59190611e54565b925050819055508160066000878152602001908152602001600020600101600082825461102291906122f0565b92505081905550611089565b826006600087815260200190815260200160002060030160008282546110549190611e54565b925050819055508160066000878152602001908152602001600020600301600082825461108191906122f0565b925050819055505b5050505050565b6000808273ffffffffffffffffffffffffffffffffffffffff163b119050919050565b600060019054906101000a900460ff16611102576040517f08c379a00000000000000000000000000000000000000000000000000000000081526004016110f9906124b6565b60405180910390fd5b61110b816114b9565b50565b828260011515600a600084815260200190815260200160002060008373ffffffffffffffffffffffffffffffffffffffff1673ffffffffffffffffffffffffffffffffffffffff16815260200190815260200160002060009054906101000a900460ff161515146111b4576040517f08c379a00000000000000000000000000000000000000000000000000000000081526004016111ab90612548565b60405180910390fd5b6111bf85848661154c565b5050505050565b8133600115156006600084815260200190815260200160002060070160029054906101000a900460ff16151514611232576040517f08c379a000000000000000000000000000000000000000000000000000000000815260040161122990612075565b60405180910390fd5b4360066000848152602001908152602001600020600601541161128a576040517f08c379a0000000000000000000000000000000000000000000000000000000008152600401611281906120e1565b60405180910390fd5b600015156007600084815260200190815260200160002060008373ffffffffffffffffffffffffffffffffffffffff1673ffffffffffffffffffffffffffffffffffffffff16815260200190815260200160002060009054906101000a900460ff1615151461132e576040517f08c379a000000000000000000000000000000000000000000000000000000000815260040161132590612392565b60405180910390fd5b836006600082815260200190815260200160002060070160019054906101000a900460ff161561140157600015156007600083815260200190815260200160002060003273ffffffffffffffffffffffffffffffffffffffff1673ffffffffffffffffffffffffffffffffffffffff16815260200190815260200160002060009054906101000a900460ff161515146113fc576040517f08c379a00000000000000000000000000000000000000000000000000000000081526004016113f390612392565b60405180910390fd5b6114a7565b6006600082815260200190815260200160002060000160009054906101000a900473ffffffffffffffffffffffffffffffffffffffff1673ffffffffffffffffffffffffffffffffffffffff163273ffffffffffffffffffffffffffffffffffffffff1614156114a6576040517f08c379a000000000000000000000000000000000000000000000000000000000815260040161149d906125b4565b60405180910390fd5b5b6114b28585326116c6565b5050505050565b600060019054906101000a900460ff16611508576040517f08c379a00000000000000000000000000000000000000000000000000000000081526004016114ff906124b6565b60405180910390fd5b80600260006101000a81548173ffffffffffffffffffffffffffffffffffffffff021916908373ffffffffffffffffffffffffffffffffffffffff16021790555050565b8281600115156006600084815260200190815260200160002060070160029054906101000a900460ff161515146115b8576040517f08c379a00000000000000000000000000000000000000000000000000000000081526004016115af90612075565b60405180910390fd5b43600660008481526020019081526020016000206006015411611610576040517f08c379a0000000000000000000000000000000000000000000000000000000008152600401611607906120e1565b60405180910390fd5b600015156007600084815260200190815260200160002060008373ffffffffffffffffffffffffffffffffffffffff1673ffffffffffffffffffffffffffffffffffffffff16815260200190815260200160002060009054906101000a900460ff161515146116b4576040517f08c379a00000000000000000000000000000000000000000000000000000000081526004016116ab90612392565b60405180910390fd5b6116bf8585856116c6565b5050505050565b6000600260009054906101000a900473ffffffffffffffffffffffffffffffffffffffff169050600060066000868152602001908152602001600020604051806101400160405290816000820160009054906101000a900473ffffffffffffffffffffffffffffffffffffffff1673ffffffffffffffffffffffffffffffffffffffff1673ffffffffffffffffffffffffffffffffffffffff1681526020016001820154815260200160028201548152602001600382015481526020016004820154815260200160058201548152602001600682015481526020016007820160009054906101000a900460ff161515151581526020016007820160019054906101000a900460ff161515151581526020016007820160029054906101000a900460ff161515151581525050905060008273ffffffffffffffffffffffffffffffffffffffff1662fdd58e858460a001516040518363ffffffff1660e01b81526004016118339291906125d4565b602060405180830381865afa158015611850573d6000803e3d6000fd5b505050506040513d601f19601f82011682018060405250810190611874919061219d565b905084156118dc57806006600088815260200190815260200160002060010160008282546118a291906122f0565b9250508190555060016006600088815260200190815260200160002060020160008282546118d091906122f0565b92505081905550611938565b8060066000888152602001908152602001600020600301600082825461190291906122f0565b92505081905550600160066000888152602001908152602001600020600401600082825461193091906122f0565b925050819055505b60016007600088815260200190815260200160002060008673ffffffffffffffffffffffffffffffffffffffff1673ffffffffffffffffffffffffffffffffffffffff16815260200190815260200160002060006101000a81548160ff021916908315150217905550846008600088815260200190815260200160002060008673ffffffffffffffffffffffffffffffffffffffff1673ffffffffffffffffffffffffffffffffffffffff16815260200190815260200160002060006101000a81548160ff0219169083151502179055506000600960008673ffffffffffffffffffffffffffffffffffffffff1673ffffffffffffffffffffffffffffffffffffffff16815260200190815260200160002090508087908060018154018082558091505060019003906000526020600020016000909190919091505550505050505050565b600080fd5b6000819050919050565b611a9581611a82565b8114611aa057600080fd5b50565b600081359050611ab281611a8c565b92915050565b600060208284031215611ace57611acd611a7d565b5b6000611adc84828501611aa3565b91505092915050565b600073ffffffffffffffffffffffffffffffffffffffff82169050919050565b6000611b1082611ae5565b9050919050565b611b2081611b05565b82525050565b6000602082019050611b3b6000830184611b17565b92915050565b60008115159050919050565b611b5681611b41565b8114611b6157600080fd5b50565b600081359050611b7381611b4d565b92915050565b60008060408385031215611b9057611b8f611a7d565b5b6000611b9e85828601611aa3565b9250506020611baf85828601611b64565b9150509250929050565b611bc281611b05565b8114611bcd57600080fd5b50565b600081359050611bdf81611bb9565b92915050565b600060208284031215611bfb57611bfa611a7d565b5b6000611c0984828501611bd0565b91505092915050565b60008060408385031215611c2957611c28611a7d565b5b6000611c3785828601611b64565b9250506020611c4885828601611aa3565b9150509250929050565b60008060008060808587031215611c6c57611c6b611a7d565b5b6000611c7a87828801611bd0565b9450506020611c8b87828801611aa3565b9350506040611c9c87828801611aa3565b9250506060611cad87828801611aa3565b91505092959194509250565b600080600060608486031215611cd257611cd1611a7d565b5b6000611ce086828701611aa3565b9350506020611cf186828701611bd0565b9250506040611d0286828701611b64565b9150509250925092565b611d1581611a82565b82525050565b611d2481611b41565b82525050565b6000604082019050611d3f6000830185611d0c565b611d4c6020830184611d1b565b9392505050565b600082825260208201905092915050565b7f554e415554484f52495a45443a2043414e4e4f545f504552464f524d5f41435460008201527f494f4e0000000000000000000000000000000000000000000000000000000000602082015250565b6000611dc0602383611d53565b9150611dcb82611d64565b604082019050919050565b60006020820190508181036000830152611def81611db3565b9050919050565b7f4e487b7100000000000000000000000000000000000000000000000000000000600052603260045260246000fd5b7f4e487b7100000000000000000000000000000000000000000000000000000000600052601160045260246000fd5b6000611e5f82611a82565b9150611e6a83611a82565b925082821015611e7d57611e7c611e25565b5b828203905092915050565b7f4e487b7100000000000000000000000000000000000000000000000000000000600052603160045260246000fd5b6000611ec282611a82565b91506000821415611ed657611ed5611e25565b5b600182039050919050565b6000611eec82611a82565b91507fffffffffffffffffffffffffffffffffffffffffffffffffffffffffffffffff821415611f1f57611f1e611e25565b5b600182019050919050565b7f496e697469616c697a61626c653a20636f6e747261637420697320616c72656160008201527f647920696e697469616c697a6564000000000000000000000000000000000000602082015250565b6000611f86602e83611d53565b9150611f9182611f2a565b604082019050919050565b60006020820190508181036000830152611fb581611f79565b9050919050565b6000819050919050565b600060ff82169050919050565b6000819050919050565b6000611ff8611ff3611fee84611fbc565b611fd3565b611fc6565b9050919050565b61200881611fdd565b82525050565b60006020820190506120236000830184611fff565b92915050565b7f494e56414c49443a2042414c4c4f545f4e4f545f464f554e4400000000000000600082015250565b600061205f601983611d53565b915061206a82612029565b602082019050919050565b6000602082019050818103600083015261208e81612052565b9050919050565b7f494e56414c49443a20564f54494e475f54494d455f4f56455200000000000000600082015250565b60006120cb601983611d53565b91506120d682612095565b602082019050919050565b600060208201905081810360008301526120fa816120be565b9050919050565b7f494e56414c49443a20524553554c545f414c52454144595f4445434c41524544600082015250565b6000612137602083611d53565b915061214282612101565b602082019050919050565b600060208201905081810360008301526121668161212a565b9050919050565b60006020820190506121826000830184611d0c565b92915050565b60008151905061219781611a8c565b92915050565b6000602082840312156121b3576121b2611a7d565b5b60006121c184828501612188565b91505092915050565b60006121d582611a82565b91506121e083611a82565b9250817fffffffffffffffffffffffffffffffffffffffffffffffffffffffffffffffff048311821515161561221957612218611e25565b5b828202905092915050565b7f4e487b7100000000000000000000000000000000000000000000000000000000600052601260045260246000fd5b600061225e82611a82565b915061226983611a82565b92508261227957612278612224565b5b828204905092915050565b7f494e56414c49443a20414c52454144595f434f554e5445525f4f464645524544600082015250565b60006122ba602083611d53565b91506122c582612284565b602082019050919050565b600060208201905081810360008301526122e9816122ad565b9050919050565b60006122fb82611a82565b915061230683611a82565b9250827fffffffffffffffffffffffffffffffffffffffffffffffffffffffffffffffff0382111561233b5761233a611e25565b5b828201905092915050565b7f494e56414c49443a20414c52454144595f564f54454400000000000000000000600082015250565b600061237c601683611d53565b915061238782612346565b602082019050919050565b600060208201905081810360008301526123ab8161236f565b9050919050565b7f494e56414c49443a20494e5445524e414c3a20555345525f4841535f4e4f545f60008201527f564f544544000000000000000000000000000000000000000000000000000000602082015250565b600061240e602583611d53565b9150612419826123b2565b604082019050919050565b6000602082019050818103600083015261243d81612401565b9050919050565b7f496e697469616c697a61626c653a20636f6e7472616374206973206e6f74206960008201527f6e697469616c697a696e67000000000000000000000000000000000000000000602082015250565b60006124a0602b83611d53565b91506124ab82612444565b604082019050919050565b600060208201905081810360008301526124cf81612493565b9050919050565b7f494e56414c49443a20434f554e5445525f4f464645525f4e4f545f455849535460008201527f5300000000000000000000000000000000000000000000000000000000000000602082015250565b6000612532602183611d53565b915061253d826124d6565b604082019050919050565b6000602082019050818103600083015261256181612525565b9050919050565b7f554e415554484f52495a45443a204f574e45525f43414e4e4f545f564f544500600082015250565b600061259e601f83611d53565b91506125a982612568565b602082019050919050565b600060208201905081810360008301526125cd81612591565b9050919050565b60006040820190506125e96000830185611b17565b6125f66020830184611d0c565b939250505056fea2646970667358221220ee9b67c232630e00ab64c7472521490e0948ff64dfd45b464be762ed44c7241264736f6c634300080c0033",
  "immutableReferences": {},
  "source": "// SPDX-License-Identifier: MIT\n\npragma solidity ^0.8.0;\n\nimport \"../voting/BaseVotingCounterOfferContract.sol\";\n\ncontract BaseVotingCounterOfferContractMock is BaseVotingCounterOfferContract {\n    uint256 private LastTokenId = 1;\n\n    /// @dev this event is generated when result of a ballot is declared\n    /// @param ballotId this is the ballot Id for which result is declared\n    /// @param result this is the status of the result //either true if user won that is he received more than 66% of votes or false if user lost\n    event BallotResult(uint256 ballotId, bool result);\n\n    constructor(uint8 votingInterval, address owner)\n        BaseVotingCounterOfferContract(owner)\n    {\n        VOTING_BLOCK_PERIOD = votingInterval;\n    }\n\n    // /// @dev This function sets the treasury Contract address\n    // /// @param newTreasuryContractAddress this is the new address of the treasury contract\n    // function setTreasuryContractAddress(address newTreasuryContractAddress)\n    //     external\n    //     _ownerOnly\n    // {\n    //     _setTreasuryContractAddress(newTreasuryContractAddress);\n    // }\n\n    /// @dev This is to set the address of the contracts\n    /// @param newTreasuryContractAddress This is the address of new treasury contract\n    function initialize(address newTreasuryContractAddress)\n        public\n        override\n        initializer\n        _ownerOnly\n    {\n        BaseVotingCounterOfferContract.initialize(newTreasuryContractAddress);\n    }\n\n    function createBallot(bool canOwnerVote, uint256 tokenId) public {\n        _createVoting(canOwnerVote, tokenId);\n    }\n\n    function castVote(uint256 ballotId, bool vote) public {\n        _castVote(ballotId, vote);\n    }\n\n    function createCounterOffer(uint256 ballotId) public {\n        _createCounterOffer(ballotId);\n    }\n\n    function counterOfferAction(\n        uint256 votingBallotId,\n        address user,\n        bool vote\n    ) public {\n        _counterOfferAction(votingBallotId, user, vote);\n    }\n\n    function declareWinner(uint256 ballotId) public {\n        bool result = _declareWinner(ballotId);\n        emit BallotResult(ballotId, result);\n    }\n}\n",
  "sourcePath": "/Users/a1/Desktop/Office/projects/CrowdRecords/Contracts/contracts/Mocks/BaseVotingCounterOfferContractMock.sol",
  "compiler": {
    "name": "solc",
    "version": "0.8.12+commit.f00d7308.Emscripten.clang"
  },
  "schemaVersion": "3.4.6",
  "updatedAt": "2022-10-13T11:10:29.429Z",
  "devdoc": {
    "events": {
      "BallotResult(uint256,bool)": {
        "details": "this event is generated when result of a ballot is declared",
        "params": {
          "ballotId": "this is the ballot Id for which result is declared",
          "result": "this is the status of the result //either true if user won that is he received more than 66% of votes or false if user lost"
        }
      }
    },
    "kind": "dev",
    "methods": {
      "_handleUserTokenTransfers(address,uint256,uint256,uint256)": {
        "details": "This function will be called when either user is transferring the tokens to other account, or is receiving tokens from other tokens.",
        "params": {
          "newBalance": "this is the new balance of the user that is after the transfer",
          "previousBalance": "this is the old balance of the user",
          "user": "address of the user whose balance is being changed"
        }
      },
      "initialize(address)": {
        "details": "This is to set the address of the contracts",
        "params": {
          "newTreasuryContractAddress": "This is the address of new treasury contract"
        }
      },
      "setOwnerAddress(address)": {
        "details": "This function sets the owner address",
        "params": {
          "ownerAddress": "This is the address of the owner"
        }
      }
    },
    "version": 1
  },
  "userdoc": {
    "kind": "user",
    "methods": {},
    "version": 1
  }
}