{
  "contractName": "BaseVotingContract",
  "abi": [
    {
      "inputs": [
        {
          "internalType": "address",
          "name": "owner",
          "type": "address"
        }
      ],
      "stateMutability": "nonpayable",
      "type": "constructor"
    },
    {
      "anonymous": false,
      "inputs": [
        {
          "indexed": false,
          "internalType": "uint8",
          "name": "version",
          "type": "uint8"
        }
      ],
      "name": "Initialized",
      "type": "event"
    },
    {
      "inputs": [],
      "name": "OWNER",
      "outputs": [
        {
          "internalType": "address",
          "name": "",
          "type": "address"
        }
      ],
      "stateMutability": "view",
      "type": "function"
    },
    {
      "inputs": [],
      "name": "TREASURY_CONTRACT_ADDRESS",
      "outputs": [
        {
          "internalType": "address",
          "name": "",
          "type": "address"
        }
      ],
      "stateMutability": "view",
      "type": "function"
    },
    {
      "inputs": [],
      "name": "TREASURY_HUB_ADDRESS",
      "outputs": [
        {
          "internalType": "address",
          "name": "",
          "type": "address"
        }
      ],
      "stateMutability": "view",
      "type": "function"
    },
    {
      "inputs": [
        {
          "internalType": "address",
          "name": "ownerAddress",
          "type": "address"
        }
      ],
      "name": "setOwnerAddress",
      "outputs": [],
      "stateMutability": "nonpayable",
      "type": "function"
    },
    {
      "inputs": [
        {
          "internalType": "address",
          "name": "newTreasuryContractAddress",
          "type": "address"
        }
      ],
      "name": "initialize",
      "outputs": [],
      "stateMutability": "nonpayable",
      "type": "function"
    },
    {
      "inputs": [
        {
          "internalType": "address",
          "name": "user",
          "type": "address"
        },
        {
          "internalType": "uint256",
          "name": "tokenId",
          "type": "uint256"
        },
        {
          "internalType": "uint256",
          "name": "previousBalance",
          "type": "uint256"
        },
        {
          "internalType": "uint256",
          "name": "newBalance",
          "type": "uint256"
        }
      ],
      "name": "_handleUserTokenTransfers",
      "outputs": [],
      "stateMutability": "nonpayable",
      "type": "function"
    }
  ],
  "bytecode": "0x60806040526019600155600060055534801561001a57600080fd5b50604051610cb4380380610cb4833981810160405281019061003c91906100e6565b80600460006101000a81548173ffffffffffffffffffffffffffffffffffffffff021916908373ffffffffffffffffffffffffffffffffffffffff16021790555050610113565b600080fd5b600073ffffffffffffffffffffffffffffffffffffffff82169050919050565b60006100b382610088565b9050919050565b6100c3816100a8565b81146100ce57600080fd5b50565b6000815190506100e0816100ba565b92915050565b6000602082840312156100fc576100fb610083565b5b600061010a848285016100d1565b91505092915050565b610b92806101226000396000f3fe608060405234801561001057600080fd5b50600436106100625760003560e01c8063117803e314610067578063331a6bf5146100855780638d2ae1f7146100a1578063abb7ed7f146100bf578063acb31493146100db578063c4d66de8146100f9575b600080fd5b61006f610115565b60405161007c91906106f5565b60405180910390f35b61009f600480360381019061009a9190610741565b61013b565b005b6100a961020f565b6040516100b691906106f5565b60405180910390f35b6100d960048036038101906100d491906107a4565b610235565b005b6100e361042e565b6040516100f091906106f5565b60405180910390f35b610113600480360381019061010e9190610741565b610454565b005b600460009054906101000a900473ffffffffffffffffffffffffffffffffffffffff1681565b600460009054906101000a900473ffffffffffffffffffffffffffffffffffffffff1673ffffffffffffffffffffffffffffffffffffffff163373ffffffffffffffffffffffffffffffffffffffff16146101cb576040517f08c379a00000000000000000000000000000000000000000000000000000000081526004016101c29061088e565b60405180910390fd5b80600460006101000a81548173ffffffffffffffffffffffffffffffffffffffff021916908373ffffffffffffffffffffffffffffffffffffffff16021790555050565b600360009054906101000a900473ffffffffffffffffffffffffffffffffffffffff1681565b6000600960008673ffffffffffffffffffffffffffffffffffffffff1673ffffffffffffffffffffffffffffffffffffffff168152602001908152602001600020905060005b81805490508110156104265760011515600660008484815481106102a2576102a16108ae565b5b9060005260206000200154815260200190815260200160002060070160009054906101000a900460ff161515148061030c575043600660008484815481106102ed576102ec6108ae565b5b9060005260206000200154815260200190815260200160002060060154105b156103ad578160018380549050610323919061090c565b81548110610334576103336108ae565b5b9060005260206000200154828281548110610352576103516108ae565b5b90600052602060002001819055508180548061037157610370610940565b5b60019003818190600052602060002001600090559055600081141561039957600090506103a8565b80806103a49061096f565b9150505b610413565b600660008383815481106103c4576103c36108ae565b5b9060005260206000200154815260200190815260200160002060050154851415610412576104118282815481106103fe576103fd6108ae565b5b90600052602060002001548786866104e7565b5b5b808061041e90610999565b91505061027b565b505050505050565b600260009054906101000a900473ffffffffffffffffffffffffffffffffffffffff1681565b600060019054906101000a900460ff166104a3576040517f08c379a000000000000000000000000000000000000000000000000000000000815260040161049a90610a54565b60405180910390fd5b80600260006101000a81548173ffffffffffffffffffffffffffffffffffffffff021916908373ffffffffffffffffffffffffffffffffffffffff16021790555050565b600115156007600086815260200190815260200160002060008573ffffffffffffffffffffffffffffffffffffffff1673ffffffffffffffffffffffffffffffffffffffff16815260200190815260200160002060009054906101000a900460ff1615151461058b576040517f08c379a000000000000000000000000000000000000000000000000000000000815260040161058290610ae6565b60405180910390fd5b60006008600086815260200190815260200160002060008573ffffffffffffffffffffffffffffffffffffffff1673ffffffffffffffffffffffffffffffffffffffff16815260200190815260200160002060009054906101000a900460ff16905080156106525782600660008781526020019081526020016000206001016000828254610619919061090c565b92505081905550816006600087815260200190815260200160002060010160008282546106469190610b06565b925050819055506106ad565b82600660008781526020019081526020016000206003016000828254610678919061090c565b92505081905550816006600087815260200190815260200160002060030160008282546106a59190610b06565b925050819055505b5050505050565b600073ffffffffffffffffffffffffffffffffffffffff82169050919050565b60006106df826106b4565b9050919050565b6106ef816106d4565b82525050565b600060208201905061070a60008301846106e6565b92915050565b600080fd5b61071e816106d4565b811461072957600080fd5b50565b60008135905061073b81610715565b92915050565b60006020828403121561075757610756610710565b5b60006107658482850161072c565b91505092915050565b6000819050919050565b6107818161076e565b811461078c57600080fd5b50565b60008135905061079e81610778565b92915050565b600080600080608085870312156107be576107bd610710565b5b60006107cc8782880161072c565b94505060206107dd8782880161078f565b93505060406107ee8782880161078f565b92505060606107ff8782880161078f565b91505092959194509250565b600082825260208201905092915050565b7f554e415554484f52495a45443a2043414e4e4f545f504552464f524d5f41435460008201527f494f4e0000000000000000000000000000000000000000000000000000000000602082015250565b600061087860238361080b565b91506108838261081c565b604082019050919050565b600060208201905081810360008301526108a78161086b565b9050919050565b7f4e487b7100000000000000000000000000000000000000000000000000000000600052603260045260246000fd5b7f4e487b7100000000000000000000000000000000000000000000000000000000600052601160045260246000fd5b60006109178261076e565b91506109228361076e565b925082821015610935576109346108dd565b5b828203905092915050565b7f4e487b7100000000000000000000000000000000000000000000000000000000600052603160045260246000fd5b600061097a8261076e565b9150600082141561098e5761098d6108dd565b5b600182039050919050565b60006109a48261076e565b91507fffffffffffffffffffffffffffffffffffffffffffffffffffffffffffffffff8214156109d7576109d66108dd565b5b600182019050919050565b7f496e697469616c697a61626c653a20636f6e7472616374206973206e6f74206960008201527f6e697469616c697a696e67000000000000000000000000000000000000000000602082015250565b6000610a3e602b8361080b565b9150610a49826109e2565b604082019050919050565b60006020820190508181036000830152610a6d81610a31565b9050919050565b7f494e56414c49443a20494e5445524e414c3a20555345525f4841535f4e4f545f60008201527f564f544544000000000000000000000000000000000000000000000000000000602082015250565b6000610ad060258361080b565b9150610adb82610a74565b604082019050919050565b60006020820190508181036000830152610aff81610ac3565b9050919050565b6000610b118261076e565b9150610b1c8361076e565b9250827fffffffffffffffffffffffffffffffffffffffffffffffffffffffffffffffff03821115610b5157610b506108dd565b5b82820190509291505056fea2646970667358221220b3ac146351b378f02670150b2cc4f5a9015ecfec32b83fda9b373be70d502bd264736f6c634300080c0033",
  "immutableReferences": {},
  "source": "// SPDX-License-Identifier: MIT\npragma solidity ^0.8.0;\n\nimport \"@openzeppelin/contracts/utils/math/SafeMath.sol\";\nimport \"@openzeppelin/contracts-upgradeable/proxy/utils/Initializable.sol\";\nimport \"../interface/ITreasury.sol\";\nimport \"../OrdersContract.sol\";\n\ncontract BaseVotingContract is Initializable {\n    /// @dev this is Contribution Create event this event will be emited when a new contribution is created.\n    /// @param owner This is the owner of the voting ballot\n    /// @param yesWeight This is the weightage of yes in the ballot\n    /// @param yesCount This is the count of yes in the ballot\n    /// @param noWeight This is the weightage of no in the ballot\n    /// @param noCount This is the count of no in the ballot\n    /// @param tokenId This is the token id using which the voting is done\n    /// @param votingEndBlock This is the block number till which the voting can be done for specific ballot\n    /// @param isResultDeclared This specifies if result is declared\n    /// @param canOwnerVote This specifies if a owner can vote or not\n    /// @param isPresent This is to check if a ballot of specific id is present or not\n    struct VotingBallot {\n        address owner;\n        uint256 yesWeight;\n        uint256 yesCount;\n        uint256 noWeight;\n        uint256 noCount;\n        uint256 tokenId;\n        uint256 votingEndBlock;\n        bool isResultDeclared;\n        bool canOwnerVote;\n        bool isPresent;\n    }\n\n    uint256 VOTING_BLOCK_PERIOD = 25;\n    address public TREASURY_CONTRACT_ADDRESS;\n    address public TREASURY_HUB_ADDRESS;\n    address public OWNER;\n\n    uint256 votingId = 0;\n    mapping(uint256 => VotingBallot) votingMap;\n    //This mapping tracks the state of user, that is if they have voted already or not.\n    // Ballot id => user address => bool\n    mapping(uint256 => mapping(address => bool)) alreadyVoted;\n    //This mapping is useful if the user has voted, as this hold if user voted yes or no for a specific ballot,\n    mapping(uint256 => mapping(address => bool)) userVotes;\n\n    //Active ballot list in which user have voted\n    // user address => List of ballot in which user has voted\n    mapping(address => uint256[]) userActiveVotedBallots;\n\n    constructor(address owner) {\n        OWNER = owner;\n    }\n\n    /// @dev This modifier checks if a ballot is open for voting or has the time expired\n    /// @param votingBallotId This is the id of the ballot which we are checking\n    /// @param voter This is the address of the voter for whom we are checking voting rights\n    modifier _checkIfBallotIsOpen(uint256 votingBallotId, address voter) {\n        require(\n            votingMap[votingBallotId].isPresent == true,\n            \"INVALID: BALLOT_NOT_FOUND\"\n        );\n\n        require(\n            votingMap[votingBallotId].votingEndBlock > block.number,\n            \"INVALID: VOTING_TIME_OVER\"\n        );\n\n        require(\n            alreadyVoted[votingBallotId][voter] == false,\n            \"INVALID: ALREADY_VOTED\"\n        );\n\n        _;\n    }\n\n    /// @dev Modifier to check that the person who accesses a specific function is the owner himself.\n    modifier _ownerOnly() {\n        require(msg.sender == OWNER, \"UNAUTHORIZED: CANNOT_PERFORM_ACTION\");\n        _;\n    }\n\n    /// @dev This modifier checks if a ballot is open for voting or has the time expired\n    /// @param votingBallotId This is the id of the ballot which we are checking\n    modifier _checkIfOwnerAllowed(uint256 votingBallotId) {\n        if (votingMap[votingBallotId].canOwnerVote) {\n            require(\n                alreadyVoted[votingBallotId][tx.origin] == false,\n                \"INVALID: ALREADY_VOTED\"\n            );\n        } else if (tx.origin == votingMap[votingBallotId].owner) {\n            revert(\"UNAUTHORIZED: OWNER_CANNOT_VOTE\");\n        }\n        _;\n    }\n\n    /// @dev This function sets the owner address\n    /// @param ownerAddress This is the address of the owner\n    function setOwnerAddress(address ownerAddress) public _ownerOnly {\n        OWNER = ownerAddress;\n    }\n\n    /// @dev This function is called by user to creata a new voting\n    /// @param canOwnerVote this is if a user can vote in a voting which he created\n    /// @param tokenId This is the id of the token using which voting can be done\n    function _createVoting(bool canOwnerVote, uint256 tokenId)\n        internal\n        returns (uint256)\n    {\n        votingId++;\n\n        VotingBallot memory voting = VotingBallot({\n            owner: tx.origin,\n            yesWeight: 0,\n            yesCount: 0,\n            noWeight: 0,\n            noCount: 0,\n            tokenId: tokenId,\n            votingEndBlock: block.number + VOTING_BLOCK_PERIOD,\n            isResultDeclared: false,\n            canOwnerVote: canOwnerVote,\n            isPresent: true\n        });\n\n        votingMap[votingId] = voting;\n        return votingId;\n    }\n\n    // function _setTreasuryContractAddress(address newTreasuryContractAddress)\n    //     internal\n    //     virtual\n    //     _ownerOnly\n    // {\n    //     TREASURY_CONTRACT_ADDRESS = newTreasuryContractAddress;\n    // }\n\n    /// @dev This function sets the treasury Contract address\n    /// @param newTreasuryContractAddress This is the new address of treasury contract\n    function initialize(address newTreasuryContractAddress)\n        public\n        virtual\n        onlyInitializing\n    {\n        TREASURY_CONTRACT_ADDRESS = newTreasuryContractAddress;\n    }\n\n    /// @dev This function sets the treasury Contract address\n    /// @param newOwnerAddress This is the address of new owner\n    function _setOwnerAddress(address newOwnerAddress)\n        internal\n        virtual\n        _ownerOnly\n    {\n        TREASURY_CONTRACT_ADDRESS = newOwnerAddress;\n    }\n\n    /// @dev This function is called by any user to cast vote\n    /// @param votingBallotId this is the id of the ballot for which user is voting\n    /// @param vote this is the state of the vote, if true than it means the vote is in favour of the ballot\n    function _castVote(uint256 votingBallotId, bool vote)\n        internal\n        virtual\n        _checkIfBallotIsOpen(votingBallotId, msg.sender)\n        _checkIfOwnerAllowed(votingBallotId)\n    {\n        _castVotePrivate(votingBallotId, vote, tx.origin);\n    }\n\n    /// @dev This function is called when the vote is casted on later stages such as in counter offer where the vote is\n    /// reviewed before hand by the user and then it is accepted by the user.\n    /// @param votingBallotId this is the id of the ballot for which user is voting\n    /// @param vote this is the state of the vote, if true than it means the vote is in favour of the ballot\n    function _castVoteForOther(\n        uint256 votingBallotId,\n        bool vote,\n        address voter\n    ) internal _checkIfBallotIsOpen(votingBallotId, voter) {\n        _castVotePrivate(votingBallotId, vote, voter);\n    }\n\n    /// @dev core logic for voting\n    /// @param votingBallotId this is the id of the ballot for which user is voting\n    /// @param vote this is the state of the vote, if true than it means the vote is in favour of the ballot\n    /// @param voter Voter's address\n    function _castVotePrivate(\n        uint256 votingBallotId,\n        bool vote,\n        address voter\n    ) private {\n        ITreasury treasuryContract = ITreasury(TREASURY_CONTRACT_ADDRESS);\n        VotingBallot memory votingBallot = votingMap[votingBallotId];\n        uint256 bal = treasuryContract.balanceOf(voter, votingBallot.tokenId);\n\n        if (vote) {\n            votingMap[votingBallotId].yesWeight += bal;\n            votingMap[votingBallotId].yesCount += 1;\n        } else {\n            votingMap[votingBallotId].noWeight += bal;\n            votingMap[votingBallotId].noCount += 1;\n        }\n\n        alreadyVoted[votingBallotId][voter] = true;\n        userVotes[votingBallotId][voter] = vote;\n        uint256[] storage list = userActiveVotedBallots[voter];\n        list.push(votingBallotId);\n    }\n\n    /// @dev core logic for voting\n    /// @param votingBallotId this is the id of the ballot for which user is voting\n    /// @param voter Voter's address\n    /// @param oldWeight Old weight of the voter\n    /// @param newWeight New weight of the voter\n    function _changeVoteWeight(\n        uint256 votingBallotId,\n        address voter,\n        uint256 oldWeight,\n        uint256 newWeight\n    ) private {\n        require(\n            alreadyVoted[votingBallotId][voter] == true,\n            \"INVALID: INTERNAL: USER_HAS_NOT_VOTED\"\n        );\n        bool vote = userVotes[votingBallotId][voter];\n        if (vote) {\n            votingMap[votingBallotId].yesWeight -= oldWeight;\n            votingMap[votingBallotId].yesWeight += newWeight;\n        } else {\n            votingMap[votingBallotId].noWeight -= oldWeight;\n            votingMap[votingBallotId].noWeight += newWeight;\n        }\n    }\n\n    /// @dev This function will be called when either user is transferring the tokens to other account,\n    /// or is receiving tokens from other tokens.\n    /// @param user address of the user whose balance is being changed\n    /// @param previousBalance this is the old balance of the user\n    /// @param newBalance this is the new balance of the user that is after the transfer\n    function _handleUserTokenTransfers(\n        address user,\n        uint256 tokenId,\n        uint256 previousBalance,\n        uint256 newBalance\n    ) public virtual {\n        uint256[] storage ballotList = userActiveVotedBallots[user];\n        for (uint256 i = 0; i < ballotList.length; i++) {\n            if (\n                votingMap[ballotList[i]].isResultDeclared == true ||\n                votingMap[ballotList[i]].votingEndBlock < block.number\n            ) {\n                // Deleting the ballot if result is declared\n                ballotList[i] = ballotList[ballotList.length - 1];\n                ballotList.pop();\n                if (i == 0) {\n                    i = 0;\n                } else {\n                    i--;\n                }\n            } else if (tokenId == votingMap[ballotList[i]].tokenId) {\n                // Changing the weighage of the votes of user\n                _changeVoteWeight(\n                    ballotList[i],\n                    user,\n                    previousBalance,\n                    newBalance\n                );\n            }\n        }\n    }\n\n    /// @dev This function is called by any user to cast vote\n    /// @param votingBallotId this is the id of the ballot for which we need to find the winner\n    function _declareWinner(uint256 votingBallotId)\n        internal\n        returns (bool isWinner)\n    {\n        require(\n            votingMap[votingBallotId].isPresent == true,\n            \"INVALID: BALLOT_NOT_FOUND\"\n        );\n\n        require(\n            votingMap[votingBallotId].votingEndBlock < block.number,\n            \"INVALID: VOTING_TIME_OVER\"\n        );\n\n        require(\n            votingMap[votingBallotId].isResultDeclared == false,\n            \"INVALID: RESULT_ALREADY_DECLARED\"\n        );\n\n        VotingBallot storage votingBallot = votingMap[votingBallotId];\n        uint256 totalYes = votingBallot.yesWeight;\n\n        // Currently to win you would need to around 66% of votes to be yes\n        ITreasury treasuryContract = ITreasury(TREASURY_CONTRACT_ADDRESS);\n\n        votingMap[votingBallotId].isResultDeclared = true;\n\n        if (totalYes > 0) {\n            uint256 totalCirculatingSupply = treasuryContract\n                .totalCirculatingSupply(votingBallot.tokenId);\n\n            //calculating the 2/3rd value of totalCirculatingSupply to identify how much we will need to win\n            uint256 winAmount = (totalCirculatingSupply * 66) / 100;\n\n            //This will check for 2 / 3 ratio for yes votes\n            if (totalYes > winAmount) {\n                return true;\n            } else {\n                return false;\n            }\n        } else {\n            return false;\n        }\n    }\n}\n",
  "sourcePath": "/Users/a1/Desktop/Office/projects/CrowdRecords/Contracts/contracts/voting/BaseVotingContract.sol",
  "compiler": {
    "name": "solc",
    "version": "0.8.12+commit.f00d7308.Emscripten.clang"
  },
  "schemaVersion": "3.4.6",
  "updatedAt": "2022-10-13T11:10:29.717Z",
  "devdoc": {
    "kind": "dev",
    "methods": {
      "_handleUserTokenTransfers(address,uint256,uint256,uint256)": {
        "details": "This function will be called when either user is transferring the tokens to other account, or is receiving tokens from other tokens.",
        "params": {
          "newBalance": "this is the new balance of the user that is after the transfer",
          "previousBalance": "this is the old balance of the user",
          "user": "address of the user whose balance is being changed"
        }
      },
      "initialize(address)": {
        "details": "This function sets the treasury Contract address",
        "params": {
          "newTreasuryContractAddress": "This is the new address of treasury contract"
        }
      },
      "setOwnerAddress(address)": {
        "details": "This function sets the owner address",
        "params": {
          "ownerAddress": "This is the address of the owner"
        }
      }
    },
    "version": 1
  },
  "userdoc": {
    "kind": "user",
    "methods": {},
    "version": 1
  }
}