{
  "contractName": "ContributionContract",
  "abi": [
    {
      "inputs": [
        {
          "internalType": "address",
          "name": "owner",
          "type": "address"
        }
      ],
      "stateMutability": "nonpayable",
      "type": "constructor"
    },
    {
      "anonymous": false,
      "inputs": [
        {
          "indexed": false,
          "internalType": "uint256",
          "name": "contributionId",
          "type": "uint256"
        },
        {
          "indexed": false,
          "internalType": "uint256[]",
          "name": "tracks",
          "type": "uint256[]"
        },
        {
          "indexed": false,
          "internalType": "string",
          "name": "title",
          "type": "string"
        },
        {
          "indexed": false,
          "internalType": "uint256",
          "name": "createdAt",
          "type": "uint256"
        },
        {
          "indexed": false,
          "internalType": "string",
          "name": "previewFile",
          "type": "string"
        },
        {
          "indexed": false,
          "internalType": "string",
          "name": "previewFileHash",
          "type": "string"
        },
        {
          "indexed": false,
          "internalType": "uint256",
          "name": "recordId",
          "type": "uint256"
        },
        {
          "indexed": false,
          "internalType": "bool",
          "name": "seedContribution",
          "type": "bool"
        },
        {
          "indexed": false,
          "internalType": "bool",
          "name": "roughMix",
          "type": "bool"
        },
        {
          "indexed": false,
          "internalType": "uint256",
          "name": "status",
          "type": "uint256"
        },
        {
          "indexed": false,
          "internalType": "string",
          "name": "description",
          "type": "string"
        }
      ],
      "name": "ContributionCreated",
      "type": "event"
    },
    {
      "anonymous": false,
      "inputs": [
        {
          "indexed": false,
          "internalType": "uint8",
          "name": "version",
          "type": "uint8"
        }
      ],
      "name": "Initialized",
      "type": "event"
    },
    {
      "inputs": [],
      "name": "ACCEPTED",
      "outputs": [
        {
          "internalType": "uint256",
          "name": "",
          "type": "uint256"
        }
      ],
      "stateMutability": "view",
      "type": "function"
    },
    {
      "inputs": [],
      "name": "CONTRIBUTION_VOTING_CONTRACT_ADDRESS",
      "outputs": [
        {
          "internalType": "address",
          "name": "",
          "type": "address"
        }
      ],
      "stateMutability": "view",
      "type": "function"
    },
    {
      "inputs": [],
      "name": "CONTROLLER_CONTRACT_ADDRESS",
      "outputs": [
        {
          "internalType": "address",
          "name": "",
          "type": "address"
        }
      ],
      "stateMutability": "view",
      "type": "function"
    },
    {
      "inputs": [],
      "name": "OWNER",
      "outputs": [
        {
          "internalType": "address",
          "name": "",
          "type": "address"
        }
      ],
      "stateMutability": "view",
      "type": "function"
    },
    {
      "inputs": [],
      "name": "PENDING",
      "outputs": [
        {
          "internalType": "uint256",
          "name": "",
          "type": "uint256"
        }
      ],
      "stateMutability": "view",
      "type": "function"
    },
    {
      "inputs": [],
      "name": "RECORD_CONTRACT_ADDRESS",
      "outputs": [
        {
          "internalType": "address",
          "name": "",
          "type": "address"
        }
      ],
      "stateMutability": "view",
      "type": "function"
    },
    {
      "inputs": [],
      "name": "REJECTED",
      "outputs": [
        {
          "internalType": "uint256",
          "name": "",
          "type": "uint256"
        }
      ],
      "stateMutability": "view",
      "type": "function"
    },
    {
      "inputs": [],
      "name": "TRACKS_CONTRACT_ADDRESS",
      "outputs": [
        {
          "internalType": "address",
          "name": "",
          "type": "address"
        }
      ],
      "stateMutability": "view",
      "type": "function"
    },
    {
      "inputs": [
        {
          "internalType": "uint256",
          "name": "",
          "type": "uint256"
        }
      ],
      "name": "contributionData",
      "outputs": [
        {
          "internalType": "string",
          "name": "title",
          "type": "string"
        },
        {
          "internalType": "uint256",
          "name": "createdAt",
          "type": "uint256"
        },
        {
          "internalType": "string",
          "name": "previewFile",
          "type": "string"
        },
        {
          "internalType": "string",
          "name": "previewFileHash",
          "type": "string"
        },
        {
          "internalType": "bool",
          "name": "seedContribution",
          "type": "bool"
        },
        {
          "internalType": "bool",
          "name": "roughMix",
          "type": "bool"
        },
        {
          "internalType": "uint256",
          "name": "status",
          "type": "uint256"
        },
        {
          "internalType": "string",
          "name": "description",
          "type": "string"
        },
        {
          "internalType": "address",
          "name": "owner",
          "type": "address"
        },
        {
          "internalType": "bool",
          "name": "isPresent",
          "type": "bool"
        }
      ],
      "stateMutability": "view",
      "type": "function"
    },
    {
      "inputs": [],
      "name": "recordsContract",
      "outputs": [
        {
          "internalType": "contract IRecords",
          "name": "",
          "type": "address"
        }
      ],
      "stateMutability": "view",
      "type": "function"
    },
    {
      "inputs": [],
      "name": "trackInterface",
      "outputs": [
        {
          "internalType": "contract ITracks",
          "name": "",
          "type": "address"
        }
      ],
      "stateMutability": "view",
      "type": "function"
    },
    {
      "inputs": [
        {
          "internalType": "address",
          "name": "newVotingContractAddress",
          "type": "address"
        },
        {
          "internalType": "address",
          "name": "newRecordsContractAddress",
          "type": "address"
        },
        {
          "internalType": "address",
          "name": "newTracksContractAddress",
          "type": "address"
        },
        {
          "internalType": "address",
          "name": "controllerContractAddress",
          "type": "address"
        }
      ],
      "name": "initialize",
      "outputs": [],
      "stateMutability": "nonpayable",
      "type": "function"
    },
    {
      "inputs": [
        {
          "internalType": "address",
          "name": "ownerAddress",
          "type": "address"
        }
      ],
      "name": "setOwnerAddress",
      "outputs": [],
      "stateMutability": "nonpayable",
      "type": "function"
    },
    {
      "inputs": [
        {
          "internalType": "uint256",
          "name": "contributionId",
          "type": "uint256"
        }
      ],
      "name": "getContributionData",
      "outputs": [
        {
          "components": [
            {
              "internalType": "uint256[]",
              "name": "tracks",
              "type": "uint256[]"
            },
            {
              "internalType": "string",
              "name": "title",
              "type": "string"
            },
            {
              "internalType": "uint256",
              "name": "createdAt",
              "type": "uint256"
            },
            {
              "internalType": "string",
              "name": "previewFile",
              "type": "string"
            },
            {
              "internalType": "string",
              "name": "previewFileHash",
              "type": "string"
            },
            {
              "internalType": "bool",
              "name": "seedContribution",
              "type": "bool"
            },
            {
              "internalType": "bool",
              "name": "roughMix",
              "type": "bool"
            },
            {
              "internalType": "uint256",
              "name": "status",
              "type": "uint256"
            },
            {
              "internalType": "string",
              "name": "description",
              "type": "string"
            },
            {
              "internalType": "address",
              "name": "owner",
              "type": "address"
            },
            {
              "internalType": "bool",
              "name": "isPresent",
              "type": "bool"
            }
          ],
          "internalType": "struct ContributionContract.Contribution",
          "name": "contribution",
          "type": "tuple"
        }
      ],
      "stateMutability": "view",
      "type": "function"
    },
    {
      "inputs": [
        {
          "components": [
            {
              "internalType": "uint256[]",
              "name": "tracks",
              "type": "uint256[]"
            },
            {
              "internalType": "string",
              "name": "title",
              "type": "string"
            },
            {
              "internalType": "string",
              "name": "previewFile",
              "type": "string"
            },
            {
              "internalType": "string",
              "name": "previewFileHash",
              "type": "string"
            },
            {
              "internalType": "uint256",
              "name": "recordId",
              "type": "uint256"
            },
            {
              "internalType": "bool",
              "name": "roughMix",
              "type": "bool"
            },
            {
              "internalType": "string",
              "name": "description",
              "type": "string"
            },
            {
              "internalType": "uint256",
              "name": "communityReward",
              "type": "uint256"
            },
            {
              "internalType": "uint256",
              "name": "governanceReward",
              "type": "uint256"
            }
          ],
          "internalType": "struct ContributionContract.NewContributionPayload",
          "name": "payload",
          "type": "tuple"
        },
        {
          "internalType": "address payable",
          "name": "platformWallet",
          "type": "address"
        },
        {
          "internalType": "uint256",
          "name": "platformFee",
          "type": "uint256"
        }
      ],
      "name": "createNewContribution",
      "outputs": [
        {
          "internalType": "uint256",
          "name": "",
          "type": "uint256"
        }
      ],
      "stateMutability": "payable",
      "type": "function"
    },
    {
      "inputs": [
        {
          "components": [
            {
              "internalType": "uint256[]",
              "name": "tracks",
              "type": "uint256[]"
            },
            {
              "internalType": "string",
              "name": "title",
              "type": "string"
            },
            {
              "internalType": "string",
              "name": "previewFile",
              "type": "string"
            },
            {
              "internalType": "string",
              "name": "previewFileHash",
              "type": "string"
            },
            {
              "internalType": "uint256",
              "name": "recordId",
              "type": "uint256"
            },
            {
              "internalType": "bool",
              "name": "roughMix",
              "type": "bool"
            },
            {
              "internalType": "string",
              "name": "description",
              "type": "string"
            },
            {
              "internalType": "uint256",
              "name": "communityReward",
              "type": "uint256"
            },
            {
              "internalType": "uint256",
              "name": "governanceReward",
              "type": "uint256"
            }
          ],
          "internalType": "struct ContributionContract.NewContributionPayload",
          "name": "payload",
          "type": "tuple"
        },
        {
          "internalType": "address",
          "name": "owner",
          "type": "address"
        }
      ],
      "name": "controllerCreateNewContribution",
      "outputs": [
        {
          "internalType": "uint256",
          "name": "",
          "type": "uint256"
        }
      ],
      "stateMutability": "payable",
      "type": "function"
    },
    {
      "inputs": [
        {
          "components": [
            {
              "internalType": "uint256[]",
              "name": "tracks",
              "type": "uint256[]"
            },
            {
              "internalType": "string",
              "name": "title",
              "type": "string"
            },
            {
              "internalType": "string",
              "name": "previewFile",
              "type": "string"
            },
            {
              "internalType": "string",
              "name": "previewFileHash",
              "type": "string"
            },
            {
              "internalType": "string",
              "name": "description",
              "type": "string"
            }
          ],
          "internalType": "struct ContributionContract.SeedContributionPayload",
          "name": "payload",
          "type": "tuple"
        },
        {
          "internalType": "address payable",
          "name": "platformWallet",
          "type": "address"
        },
        {
          "internalType": "uint256",
          "name": "platformFee",
          "type": "uint256"
        }
      ],
      "name": "createSeedContribution",
      "outputs": [
        {
          "internalType": "uint256",
          "name": "",
          "type": "uint256"
        }
      ],
      "stateMutability": "payable",
      "type": "function"
    },
    {
      "inputs": [
        {
          "components": [
            {
              "internalType": "uint256[]",
              "name": "tracks",
              "type": "uint256[]"
            },
            {
              "internalType": "string",
              "name": "title",
              "type": "string"
            },
            {
              "internalType": "string",
              "name": "previewFile",
              "type": "string"
            },
            {
              "internalType": "string",
              "name": "previewFileHash",
              "type": "string"
            },
            {
              "internalType": "string",
              "name": "description",
              "type": "string"
            }
          ],
          "internalType": "struct ContributionContract.SeedContributionPayload",
          "name": "payload",
          "type": "tuple"
        },
        {
          "internalType": "address",
          "name": "owner",
          "type": "address"
        }
      ],
      "name": "controllerCreateSeedContribution",
      "outputs": [
        {
          "internalType": "uint256",
          "name": "",
          "type": "uint256"
        }
      ],
      "stateMutability": "nonpayable",
      "type": "function"
    }
  ],
  "bytecode": "0x60806040526001600b556002600c556003600d5534801561001f57600080fd5b50604051620022243803806200222483398101604081905261004091610065565b600280546001600160a01b0319166001600160a01b0392909216919091179055610095565b60006020828403121561007757600080fd5b81516001600160a01b038116811461008e57600080fd5b9392505050565b61217f80620000a56000396000f3fe6080604052600436106101295760003560e01c80634eb45e62116100a5578063cb7390b711610074578063f0fda38611610059578063f0fda3861461036b578063f8c8765e14610398578063fc0d561e146103b857600080fd5b8063cb7390b714610328578063ec9a2c251461033e57600080fd5b80634eb45e62146102a857806357bded7f146102bb5780639b6a6f0d146102ce578063af670769146102fb57600080fd5b80632609e5f4116100fc578063419f782d116100e1578063419f782d1461025f5780634324efd71461027f57806348de5a7c1461029557600080fd5b80632609e5f414610219578063331a6bf51461023d57600080fd5b80630ade4dbd1461012e578063117803e31461016d57806319358160146101bf57806323374b9d146101ec575b600080fd5b34801561013a57600080fd5b5061014e610149366004611791565b6103e5565b6040516101649a99989796959493929190611815565b60405180910390f35b34801561017957600080fd5b5060025461019a9073ffffffffffffffffffffffffffffffffffffffff1681565b60405173ffffffffffffffffffffffffffffffffffffffff9091168152602001610164565b3480156101cb57600080fd5b5060075461019a9073ffffffffffffffffffffffffffffffffffffffff1681565b3480156101f857600080fd5b5061020c610207366004611791565b61068a565b60405161016491906118f3565b34801561022557600080fd5b5061022f600b5481565b604051908152602001610164565b34801561024957600080fd5b5061025d610258366004611a49565b610a38565b005b34801561026b57600080fd5b5061022f61027a366004611d1d565b610b2b565b34801561028b57600080fd5b5061022f600c5481565b61022f6102a3366004611d6f565b610c07565b61022f6102b6366004611ef7565b610da6565b61022f6102c9366004611f2d565b610e5b565b3480156102da57600080fd5b5060095461019a9073ffffffffffffffffffffffffffffffffffffffff1681565b34801561030757600080fd5b5060035461019a9073ffffffffffffffffffffffffffffffffffffffff1681565b34801561033457600080fd5b5061022f600d5481565b34801561034a57600080fd5b5060085461019a9073ffffffffffffffffffffffffffffffffffffffff1681565b34801561037757600080fd5b5060055461019a9073ffffffffffffffffffffffffffffffffffffffff1681565b3480156103a457600080fd5b5061025d6103b3366004611f65565b610fdb565b3480156103c457600080fd5b5060065461019a9073ffffffffffffffffffffffffffffffffffffffff1681565b600a60205260009081526040902060018101805461040290611fc1565b80601f016020809104026020016040519081016040528092919081815260200182805461042e90611fc1565b801561047b5780601f106104505761010080835404028352916020019161047b565b820191906000526020600020905b81548152906001019060200180831161045e57829003601f168201915b50505050509080600201549080600301805461049690611fc1565b80601f01602080910402602001604051908101604052809291908181526020018280546104c290611fc1565b801561050f5780601f106104e45761010080835404028352916020019161050f565b820191906000526020600020905b8154815290600101906020018083116104f257829003601f168201915b50505050509080600401805461052490611fc1565b80601f016020809104026020016040519081016040528092919081815260200182805461055090611fc1565b801561059d5780601f106105725761010080835404028352916020019161059d565b820191906000526020600020905b81548152906001019060200180831161058057829003601f168201915b5050505060058301546006840154600785018054949560ff8085169661010090950416945091926105cd90611fc1565b80601f01602080910402602001604051908101604052809291908181526020018280546105f990611fc1565b80156106465780601f1061061b57610100808354040283529160200191610646565b820191906000526020600020905b81548152906001019060200180831161062957829003601f168201915b5050506008909301549192505073ffffffffffffffffffffffffffffffffffffffff81169060ff74010000000000000000000000000000000000000000909104168a565b61070360405180610160016040528060608152602001606081526020016000815260200160608152602001606081526020016000151581526020016000151581526020016000815260200160608152602001600073ffffffffffffffffffffffffffffffffffffffff1681526020016000151581525090565b6000828152600a602090815260409182902082518154610180938102820184019094526101608101848152909391928492849184018282801561076557602002820191906000526020600020905b815481526020019060010190808311610751575b5050505050815260200160018201805461077e90611fc1565b80601f01602080910402602001604051908101604052809291908181526020018280546107aa90611fc1565b80156107f75780601f106107cc576101008083540402835291602001916107f7565b820191906000526020600020905b8154815290600101906020018083116107da57829003601f168201915b505050505081526020016002820154815260200160038201805461081a90611fc1565b80601f016020809104026020016040519081016040528092919081815260200182805461084690611fc1565b80156108935780601f1061086857610100808354040283529160200191610893565b820191906000526020600020905b81548152906001019060200180831161087657829003601f168201915b505050505081526020016004820180546108ac90611fc1565b80601f01602080910402602001604051908101604052809291908181526020018280546108d890611fc1565b80156109255780601f106108fa57610100808354040283529160200191610925565b820191906000526020600020905b81548152906001019060200180831161090857829003601f168201915b5050509183525050600582015460ff8082161515602084015261010090910416151560408201526006820154606082015260078201805460809092019161096b90611fc1565b80601f016020809104026020016040519081016040528092919081815260200182805461099790611fc1565b80156109e45780601f106109b9576101008083540402835291602001916109e4565b820191906000526020600020905b8154815290600101906020018083116109c757829003601f168201915b50505091835250506008919091015473ffffffffffffffffffffffffffffffffffffffff8116602083015274010000000000000000000000000000000000000000900460ff16151560409091015292915050565b60025473ffffffffffffffffffffffffffffffffffffffff163314610ae4576040517f08c379a000000000000000000000000000000000000000000000000000000000815260206004820152602360248201527f554e415554484f52495a45443a2043414e4e4f545f504552464f524d5f41435460448201527f494f4e000000000000000000000000000000000000000000000000000000000060648201526084015b60405180910390fd5b600280547fffffffffffffffffffffffff00000000000000000000000000000000000000001673ffffffffffffffffffffffffffffffffffffffff92909216919091179055565b60095460009073ffffffffffffffffffffffffffffffffffffffff163314610bd5576040517f08c379a000000000000000000000000000000000000000000000000000000000815260206004820152602360248201527f554e415554484f52495a45443a2043414e4e4f545f504552464f524d5f41435460448201527f494f4e00000000000000000000000000000000000000000000000000000000006064820152608401610adb565b610c00836000015184602001518560400151866060015187608001516000600c5460018a60006112a5565b9392505050565b60003415610c6e5760405173ffffffffffffffffffffffffffffffffffffffff8416908390600081818185875af1925050503d8060008114610c65576040519150601f19603f3d011682016040523d82523d6000602084013e610c6a565b606091505b5050505b60085484516040517fb260c8c300000000000000000000000000000000000000000000000000000000815260009273ffffffffffffffffffffffffffffffffffffffff169163b260c8c391610cc891903390600401612015565b602060405180830381865afa158015610ce5573d6000803e3d6000fd5b505050506040513d601f19601f82011682018060405250810190610d09919061204d565b905080610d72576040517f08c379a000000000000000000000000000000000000000000000000000000000815260206004820152601a60248201527f494e56414c49443a204e4f545f415f545241434b5f4f574e45520000000000006044820152606401610adb565b50610d9e846000015185602001518660400151876060015188608001516000600c5460013360006112a5565b949350505050565b60095460009073ffffffffffffffffffffffffffffffffffffffff163314610e50576040517f08c379a000000000000000000000000000000000000000000000000000000000815260206004820152602360248201527f554e415554484f52495a45443a2043414e4e4f545f504552464f524d5f41435460448201527f494f4e00000000000000000000000000000000000000000000000000000000006064820152608401610adb565b610c008383346114ca565b60003415610ec25760405173ffffffffffffffffffffffffffffffffffffffff8416908390600081818185875af1925050503d8060008114610eb9576040519150601f19603f3d011682016040523d82523d6000602084013e610ebe565b606091505b5050505b60085484516040517fb260c8c300000000000000000000000000000000000000000000000000000000815260009273ffffffffffffffffffffffffffffffffffffffff169163b260c8c391610f1c91903390600401612015565b602060405180830381865afa158015610f39573d6000803e3d6000fd5b505050506040513d601f19601f82011682018060405250810190610f5d919061204d565b905080610fc6576040517f08c379a000000000000000000000000000000000000000000000000000000000815260206004820152601a60248201527f494e56414c49443a204e4f545f415f545241434b5f4f574e45520000000000006044820152606401610adb565b50610d9e8433610fd6853461206a565b6114ca565b600054610100900460ff1615808015610ffb5750600054600160ff909116105b806110155750303b158015611015575060005460ff166001145b6110a1576040517f08c379a000000000000000000000000000000000000000000000000000000000815260206004820152602e60248201527f496e697469616c697a61626c653a20636f6e747261637420697320616c72656160448201527f647920696e697469616c697a65640000000000000000000000000000000000006064820152608401610adb565b600080547fffffffffffffffffffffffffffffffffffffffffffffffffffffffffffffff0016600117905580156110ff57600080547fffffffffffffffffffffffffffffffffffffffffffffffffffffffffffff00ff166101001790555b60025473ffffffffffffffffffffffffffffffffffffffff1633146111a6576040517f08c379a000000000000000000000000000000000000000000000000000000000815260206004820152602360248201527f554e415554484f52495a45443a2043414e4e4f545f504552464f524d5f41435460448201527f494f4e00000000000000000000000000000000000000000000000000000000006064820152608401610adb565b600380547fffffffffffffffffffffffff000000000000000000000000000000000000000090811673ffffffffffffffffffffffffffffffffffffffff88811691821790935560048054831690911790556005805482168784169081179091556006805483169091179055600780548216868416908117909155600880548316909117905560098054909116918416919091179055801561129e57600080547fffffffffffffffffffffffffffffffffffffffffffffffffffffffffffff00ff169055604051600181527f7f26b83ff96e1f2b6a682f133852f6798a09c465da95921460cefb38474024989060200160405180910390a15b5050505050565b60006112b5600180546001019055565b60006112c060015490565b60408051610160810182528e815260208082018f90524282840152606082018e9052608082018d905288151560a0830152600060c0830181905260e083018b905261010083018d905273ffffffffffffffffffffffffffffffffffffffff89166101208401526001610140840152848152600a825292909220815180519495509193849391926113549284929101906116be565b50602082810151805161136d9260018501920190611709565b506040820151600282015560608201518051611393916003840191602090910190611709565b50608082015180516113af916004840191602090910190611709565b5060a082015160058201805460c08501517fffffffffffffffffffffffffffffffffffffffffffffffffffffffffffff00009091169215157fffffffffffffffffffffffffffffffffffffffffffffffffffffffffffff00ff1692909217610100921515830217905560e08301516006830155820151805161143b916007840191602090910190611709565b506101208201516008909101805461014090930151151574010000000000000000000000000000000000000000027fffffffffffffffffffffff00000000000000000000000000000000000000000090931673ffffffffffffffffffffffffffffffffffffffff909216919091179190911790556114ba828286611649565b509b9a5050505050505050505050565b6000806114fe85600001518660200151876040015188606001518960c001518a60a00151600b5460008c8e608001516112a5565b60048054608088015161010089015160e08a01516040517f0d76a88200000000000000000000000000000000000000000000000000000000815294850186905260248501929092526044840152606483015291925073ffffffffffffffffffffffffffffffffffffffff90911690630d76a8829085906084016000604051808303818588803b15801561159057600080fd5b505af11580156115a4573d6000803e3d6000fd5b505060065460808901516040517fc10df2cf00000000000000000000000000000000000000000000000000000000815273ffffffffffffffffffffffffffffffffffffffff909216945063c10df2cf935061160e9250908590600401918252602082015260400190565b600060405180830381600087803b15801561162857600080fd5b505af115801561163c573d6000803e3d6000fd5b5092979650505050505050565b7f3814e97c6d716ffbefb08fe07a4e810604088dbd58cb7fd64c056588de6935678383600001518460200151856040015186606001518760800151878960a001518a60c001518b60e001518c61010001516040516116b19b9a999897969594939291906120a8565b60405180910390a1505050565b8280548282559060005260206000209081019282156116f9579160200282015b828111156116f95782518255916020019190600101906116de565b5061170592915061177c565b5090565b82805461171590611fc1565b90600052602060002090601f01602090048101928261173757600085556116f9565b82601f1061175057805160ff19168380011785556116f9565b828001600101855582156116f957918201828111156116f95782518255916020019190600101906116de565b5b80821115611705576000815560010161177d565b6000602082840312156117a357600080fd5b5035919050565b6000815180845260005b818110156117d0576020818501810151868301820152016117b4565b818111156117e2576000602083870101525b50601f017fffffffffffffffffffffffffffffffffffffffffffffffffffffffffffffffe0169290920160200192915050565b60006101408083526118298184018e6117aa565b90508b60208401528281036040840152611843818c6117aa565b90508281036060840152611857818b6117aa565b9050881515608084015287151560a08401528660c084015282810360e084015261188181876117aa565b73ffffffffffffffffffffffffffffffffffffffff9590951661010084015250509015156101209091015298975050505050505050565b600081518084526020808501945080840160005b838110156118e8578151875295820195908201906001016118cc565b509495945050505050565b60208152600082516101608060208501526119126101808501836118b8565b915060208501517fffffffffffffffffffffffffffffffffffffffffffffffffffffffffffffffe08086850301604087015261194e84836117aa565b935060408701516060870152606087015191508086850301608087015261197584836117aa565b935060808701519150808685030160a087015261199284836117aa565b935060a087015191506119a960c087018315159052565b60c087015180151560e0880152915060e087015191506101008281880152808801519250506101208187860301818801526119e485846117aa565b94508088015192505050610140611a128187018373ffffffffffffffffffffffffffffffffffffffff169052565b90950151151593019290925250919050565b73ffffffffffffffffffffffffffffffffffffffff81168114611a4657600080fd5b50565b600060208284031215611a5b57600080fd5b8135610c0081611a24565b7f4e487b7100000000000000000000000000000000000000000000000000000000600052604160045260246000fd5b60405160a0810167ffffffffffffffff81118282101715611ab857611ab8611a66565b60405290565b604051610120810167ffffffffffffffff81118282101715611ab857611ab8611a66565b604051601f82017fffffffffffffffffffffffffffffffffffffffffffffffffffffffffffffffe016810167ffffffffffffffff81118282101715611b2957611b29611a66565b604052919050565b600082601f830112611b4257600080fd5b8135602067ffffffffffffffff821115611b5e57611b5e611a66565b8160051b611b6d828201611ae2565b9283528481018201928281019087851115611b8757600080fd5b83870192505b84831015611ba657823582529183019190830190611b8d565b979650505050505050565b600082601f830112611bc257600080fd5b813567ffffffffffffffff811115611bdc57611bdc611a66565b611c0d60207fffffffffffffffffffffffffffffffffffffffffffffffffffffffffffffffe0601f84011601611ae2565b818152846020838601011115611c2257600080fd5b816020850160208301376000918101602001919091529392505050565b600060a08284031215611c5157600080fd5b611c59611a95565b9050813567ffffffffffffffff80821115611c7357600080fd5b611c7f85838601611b31565b83526020840135915080821115611c9557600080fd5b611ca185838601611bb1565b60208401526040840135915080821115611cba57600080fd5b611cc685838601611bb1565b60408401526060840135915080821115611cdf57600080fd5b611ceb85838601611bb1565b60608401526080840135915080821115611d0457600080fd5b50611d1184828501611bb1565b60808301525092915050565b60008060408385031215611d3057600080fd5b823567ffffffffffffffff811115611d4757600080fd5b611d5385828601611c3f565b9250506020830135611d6481611a24565b809150509250929050565b600080600060608486031215611d8457600080fd5b833567ffffffffffffffff811115611d9b57600080fd5b611da786828701611c3f565b9350506020840135611db881611a24565b929592945050506040919091013590565b8015158114611a4657600080fd5b8035611de281611dc9565b919050565b60006101208284031215611dfa57600080fd5b611e02611abe565b9050813567ffffffffffffffff80821115611e1c57600080fd5b611e2885838601611b31565b83526020840135915080821115611e3e57600080fd5b611e4a85838601611bb1565b60208401526040840135915080821115611e6357600080fd5b611e6f85838601611bb1565b60408401526060840135915080821115611e8857600080fd5b611e9485838601611bb1565b606084015260808401356080840152611eaf60a08501611dd7565b60a084015260c0840135915080821115611ec857600080fd5b50611ed584828501611bb1565b60c08301525060e082013560e082015261010080830135818301525092915050565b60008060408385031215611f0a57600080fd5b823567ffffffffffffffff811115611f2157600080fd5b611d5385828601611de7565b600080600060608486031215611f4257600080fd5b833567ffffffffffffffff811115611f5957600080fd5b611da786828701611de7565b60008060008060808587031215611f7b57600080fd5b8435611f8681611a24565b93506020850135611f9681611a24565b92506040850135611fa681611a24565b91506060850135611fb681611a24565b939692955090935050565b600181811c90821680611fd557607f821691505b6020821081141561200f577f4e487b7100000000000000000000000000000000000000000000000000000000600052602260045260246000fd5b50919050565b60408152600061202860408301856118b8565b905073ffffffffffffffffffffffffffffffffffffffff831660208301529392505050565b60006020828403121561205f57600080fd5b8151610c0081611dc9565b6000828210156120a3577f4e487b7100000000000000000000000000000000000000000000000000000000600052601160045260246000fd5b500390565b60006101608d83528060208401526120c28184018e6118b8565b905082810360408401526120d6818d6117aa565b90508a606084015282810360808401526120f0818b6117aa565b905082810360a0840152612104818a6117aa565b90508760c084015286151560e08401528515156101008401528461012084015282810361014084015261213781856117aa565b9e9d505050505050505050505050505056fea2646970667358221220a12d10285c8ce4a56a9a6da96586a28399f375beecf86c6fbfd654ceaf2f41dc64736f6c634300080c0033",
  "immutableReferences": {},
  "source": "pragma solidity ^0.8.0;\n\nimport \"@openzeppelin/contracts/token/ERC721/ERC721.sol\";\nimport \"@openzeppelin/contracts/utils/Counters.sol\";\nimport \"@openzeppelin/contracts/access/Ownable.sol\";\nimport \"@openzeppelin/contracts-upgradeable/proxy/utils/Initializable.sol\";\nimport \"./voting/ContributionVotingContract.sol\";\nimport \"./interface/IRecords.sol\";\nimport \"./interface/ITracks.sol\";\n\ncontract ContributionContract is Initializable {\n    using Counters for Counters.Counter;\n\n    /// @dev this is Contribution Create event this event will be emitted when a new contribution is created.\n    /// @param contributionId it is the unique identifier for the contribution\n    /// @param tracks are id of the tracks that are part of this contribution, you will have to manually fetch the\n    /// tracks data from trackId once you do the indexing.\n    /// @param title title of the contribution\n    /// @param createdAt createdAt is indicates the time of creation of the contribution\n    /// @param previewFile this is the file that contains the mix of the contribution also known as preview file\n    /// @param previewFileHash this is the hash of the preview file to make sure the previewFile is not tampered with\n    /// @param recordId this is the id of the record to which the contribution belong to\n    /// @param seedContribution this flag determines if the contribution is a seed contribution or not\n    /// @param roughMix this flag determines if the contribution is a new contribution, with new tracks or is it just mix\n    /// of all the previous tracks\n    /// @param status this is status of the contribution that is (PENDING = 1 | ACCEPTED = 2| REJECTED = 3)\n    /// @param description the description of record that is in text format\n    event ContributionCreated(\n        uint256 contributionId,\n        uint256[] tracks,\n        string title,\n        uint256 createdAt,\n        string previewFile,\n        string previewFileHash,\n        uint256 recordId,\n        bool seedContribution,\n        bool roughMix,\n        uint256 status,\n        string description\n    );\n\n    /// @dev This structure will store information of the contribution\n    /// @param tracks Array of id of tracks\n    /// @param title title of the contribution\n    /// @param createdAt blocknumber of when the contribution was created\n    /// @param previewFile This is the preview file link\n    /// @param previewFileHash This is the preview file hash\n    // / @param recordId This is the id of the record to which contribution belongs to\n    /// @param seedContribution This flag determines if it is a seed contribution or not\n    /// @param roughMix This flag determines if it is a rough mix or not, true if rough mix or else false\n    /// @param status This specifies the status of contribution PENDING = 1 | ACCEPTED = 2| REJECTED = 3\n    /// @param description This is the description that is entered by user\n    /// @param owner This is the owner of the contribution\n    /// @param isPresent This is to check if a contribution exists or not\n    struct Contribution {\n        uint256[] tracks;\n        string title;\n        uint256 createdAt;\n        string previewFile;\n        string previewFileHash;\n        bool seedContribution;\n        bool roughMix;\n        uint256 status;\n        string description;\n        address owner;\n        bool isPresent;\n    }\n\n    /// @param tracks Id of tracks that are part of this contribution\n    /// @param title title of the contribution\n    /// @param previewFile this is preview file of the contribution\n    /// @param previewFileHash this is hash of the preview file\n    /// @param recordId this is the id of the record to which contribution belongs to.\n    /// @param roughMix this represents if a contribution is a roughMix or is a new contribution\n    /// @param description this is the description of the new contribution that is created.\n    /// @param communityReward this is the amount of community token that the contributor is requesting\n    /// for his work contribution.\n    /// @param governanceReward this is the amount of governance token that the contributor is requesting for his\n    /// work contribution.\n    struct NewContributionPayload {\n        uint256[] tracks;\n        string title;\n        string previewFile;\n        string previewFileHash;\n        uint256 recordId;\n        bool roughMix;\n        string description;\n        uint256 communityReward;\n        uint256 governanceReward;\n    }\n\n    /// @param tracks Id of tracks that are part of this contribution\n    /// @param title it is the title of the contribution\n    /// @param previewFile this is preview file of the contribution\n    /// @param previewFileHash this is hash of the preview file\n    /// @param description this is the description of the new contribution that is created.\n    struct SeedContributionPayload {\n        uint256[] tracks;\n        string title;\n        string previewFile;\n        string previewFileHash;\n        string description;\n    }\n\n    Counters.Counter private _contributionIds;\n    address public OWNER;\n    address public CONTRIBUTION_VOTING_CONTRACT_ADDRESS;\n    ContributionVotingContract contributionVotingContract;\n    address public RECORD_CONTRACT_ADDRESS;\n    IRecords public recordsContract;\n    address public TRACKS_CONTRACT_ADDRESS;\n    ITracks public trackInterface;\n    address public CONTROLLER_CONTRACT_ADDRESS;\n    mapping(uint256 => Contribution) public contributionData;\n    uint256 public PENDING = 1;\n    uint256 public ACCEPTED = 2;\n    uint256 public REJECTED = 3;\n\n    constructor(address owner) {\n        OWNER = owner;\n    }\n\n    /// @dev Modifier to check that the person who accesses a specific function is the owner of contract himself.\n    modifier ownerOnly() {\n        require(msg.sender == OWNER, \"UNAUTHORIZED: CANNOT_PERFORM_ACTION\");\n        _;\n    }\n\n    /// @dev Modifier to restrict the function call from controller contract\n    modifier controllerContractOnly() {\n        require(\n            msg.sender == CONTROLLER_CONTRACT_ADDRESS,\n            \"UNAUTHORIZED: CANNOT_PERFORM_ACTION\"\n        );\n        _;\n    }\n\n    /// @dev This is to set the address of the contracts\n    /// @param newVotingContractAddress this is the address of new voting contract\n    /// @param newRecordsContractAddress this is the address of new Records contract\n    /// @param newTracksContractAddress this is the address of new tracks contract\n    /// @param controllerContractAddress this is the address of controller contract\n    function initialize(\n        address newVotingContractAddress,\n        address newRecordsContractAddress,\n        address newTracksContractAddress,\n        address controllerContractAddress\n    ) public initializer ownerOnly {\n        CONTRIBUTION_VOTING_CONTRACT_ADDRESS = newVotingContractAddress;\n        contributionVotingContract = ContributionVotingContract(\n            CONTRIBUTION_VOTING_CONTRACT_ADDRESS\n        );\n        RECORD_CONTRACT_ADDRESS = newRecordsContractAddress;\n        recordsContract = IRecords(RECORD_CONTRACT_ADDRESS);\n        TRACKS_CONTRACT_ADDRESS = newTracksContractAddress;\n        trackInterface = ITracks(TRACKS_CONTRACT_ADDRESS);\n        CONTROLLER_CONTRACT_ADDRESS = controllerContractAddress;\n    }\n\n    /// @dev This function sets the owner address\n    /// @param ownerAddress This is the address of the owner\n    function setOwnerAddress(address ownerAddress) public ownerOnly {\n        OWNER = ownerAddress;\n    }\n\n    /// @dev This function returns contribution data\n    /// @param contributionId Id of the contribution whose data you want\n    function getContributionData(\n        uint256 contributionId\n    ) public view returns (Contribution memory contribution) {\n        return contributionData[contributionId];\n    }\n\n    /// @dev This function will be called by the user to create a new contribution\n    /// @param payload this is the data required for creation of new contribution\n    /// @param platformWallet this is the UI providers wallet\n    /// @param platformFee this is the incentive amount for the UI maintainer\n    function createNewContribution(\n        NewContributionPayload memory payload,\n        address payable platformWallet,\n        uint256 platformFee\n    ) public payable returns (uint256) {\n        {\n            if (msg.value > 0) {\n                platformWallet.call{value: platformFee}(\"\");\n            }\n\n            bool ownerStatus = trackInterface.checkOwner(\n                payload.tracks,\n                msg.sender\n            );\n\n            require(ownerStatus, \"INVALID: NOT_A_TRACK_OWNER\");\n        }\n\n        return\n            createContributionAndVoting(\n                payload,\n                msg.sender,\n                msg.value - platformFee\n            );\n    }\n\n    /// @dev This function will be called by the controller contract to create a new contribution and voting\n    /// @param payload this is the data required for creation of new contribution\n    /// @param owner this is the owner of the new contribution which is to be created\n    function controllerCreateNewContribution(\n        NewContributionPayload memory payload,\n        address owner\n    ) public payable controllerContractOnly returns (uint256) {\n        return createContributionAndVoting(payload, owner, msg.value);\n    }\n\n    /// @dev This function is responsible to create a non seed contribution and to create voting for contribution\n    /// @param payload this is the data required for creation of new contribution\n    /// @param owner this is the owner of the contribution\n    /// @param depositAmount this is the deposit amount for voting creation\n    function createContributionAndVoting(\n        NewContributionPayload memory payload,\n        address owner,\n        uint256 depositAmount\n    ) internal returns (uint256) {\n        uint256 contributionId = _createContribution(\n            payload.tracks,\n            payload.title,\n            payload.previewFile,\n            payload.previewFileHash,\n            payload.description,\n            payload.roughMix,\n            PENDING,\n            false,\n            owner,\n            payload.recordId\n        );\n\n        {\n            contributionVotingContract.createContributionVotingBallot{\n                value: depositAmount\n            }(\n                contributionId,\n                payload.recordId,\n                payload.governanceReward,\n                payload.communityReward\n            );\n\n            recordsContract.pushContributionIdToContributionList(\n                payload.recordId,\n                contributionId\n            );\n        }\n        return contributionId;\n    }\n\n    /// @dev This function will be called by the user to create a new seed contribution as there will be not voting\n    /// or anything like that\n    /// @param payload data for the seed contribution creation\n    /// @param platformWallet this is the UI providers wallet\n    /// @param platformFee this is the incentive amount for the UI maintainer\n    function createSeedContribution(\n        SeedContributionPayload memory payload,\n        address payable platformWallet,\n        uint256 platformFee\n    ) public payable returns (uint256) {\n        {\n            if (msg.value > 0) {\n                platformWallet.call{value: platformFee}(\"\");\n            }\n\n            bool ownerStatus = trackInterface.checkOwner(\n                payload.tracks,\n                msg.sender\n            );\n\n            require(ownerStatus, \"INVALID: NOT_A_TRACK_OWNER\");\n        }\n\n        return\n            _createContribution(\n                payload.tracks,\n                payload.title,\n                payload.previewFile,\n                payload.previewFileHash,\n                payload.description,\n                false,\n                ACCEPTED,\n                true,\n                msg.sender,\n                0\n            );\n    }\n\n    /// @dev This function is to be called only by the controller contract that is created to bundle multiple contract calls into single function\n    /// @param payload data for the seed contribution creation\n    /// @param owner address of the owner of the seed contribution\n    function controllerCreateSeedContribution(\n        SeedContributionPayload memory payload,\n        address owner\n    ) public controllerContractOnly returns (uint256) {\n        return\n            _createContribution(\n                payload.tracks,\n                payload.title,\n                payload.previewFile,\n                payload.previewFileHash,\n                payload.description,\n                false,\n                ACCEPTED,\n                true,\n                owner,\n                0\n            );\n    }\n\n    /// @dev This function is an internal function that creates the contribution\n    /// @param tracks Id of tracks that are part of this contribution\n    /// @param previewFile this is preview file of the contribution\n    /// @param previewFileHash this is hash of the preview file\n    /// @param description this is the description of the new contribution that is created.\n    /// @param roughMix this flag denotes if the contribution is a rough mix or a new contributions\n    /// @param status this is the status of the contribution\n    /// @param isSeed this denotes if it is seed contribution or not\n    /// @param owner this is the owner address\n    /// @param recordId this is the record id to which the contribution belongs\n    function _createContribution(\n        uint256[] memory tracks,\n        string memory title,\n        string memory previewFile,\n        string memory previewFileHash,\n        string memory description,\n        bool roughMix,\n        uint status,\n        bool isSeed,\n        address owner,\n        uint recordId\n    ) internal returns (uint256) {\n        _contributionIds.increment();\n\n        uint256 contributionId = _contributionIds.current();\n\n        Contribution memory contribution = Contribution({\n            tracks: tracks,\n            title: title,\n            createdAt: block.timestamp,\n            previewFile: previewFile,\n            previewFileHash: previewFileHash,\n            roughMix: false,\n            status: status,\n            description: description,\n            seedContribution: isSeed,\n            owner: owner,\n            isPresent: true\n        });\n\n        contributionData[contributionId] = contribution;\n\n        emitContributionCreated(contributionId, contribution, recordId);\n\n        return contributionId;\n    }\n\n    function emitContributionCreated(\n        uint256 contributionId,\n        Contribution memory contribution,\n        uint256 recordId\n    ) internal {\n        emit ContributionCreated(\n            contributionId,\n            contribution.tracks,\n            contribution.title,\n            contribution.createdAt,\n            contribution.previewFile,\n            contribution.previewFileHash,\n            recordId,\n            contribution.seedContribution,\n            contribution.roughMix,\n            contribution.status,\n            contribution.description\n        );\n    }\n}\n",
  "sourcePath": "/Users/a1/Desktop/Office/projects/CrowdRecords/Contracts/contracts/ContributionContract.sol",
  "compiler": {
    "name": "solc",
    "version": "0.8.12+commit.f00d7308.Emscripten.clang"
  },
  "schemaVersion": "3.4.6",
  "updatedAt": "2023-05-17T05:46:16.636Z",
  "networkType": "ethereum",
  "devdoc": {
    "events": {
      "ContributionCreated(uint256,uint256[],string,uint256,string,string,uint256,bool,bool,uint256,string)": {
        "details": "this is Contribution Create event this event will be emitted when a new contribution is created.",
        "params": {
          "contributionId": "it is the unique identifier for the contribution",
          "createdAt": "createdAt is indicates the time of creation of the contribution",
          "description": "the description of record that is in text format",
          "previewFile": "this is the file that contains the mix of the contribution also known as preview file",
          "previewFileHash": "this is the hash of the preview file to make sure the previewFile is not tampered with",
          "recordId": "this is the id of the record to which the contribution belong to",
          "roughMix": "this flag determines if the contribution is a new contribution, with new tracks or is it just mix of all the previous tracks",
          "seedContribution": "this flag determines if the contribution is a seed contribution or not",
          "status": "this is status of the contribution that is (PENDING = 1 | ACCEPTED = 2| REJECTED = 3)",
          "title": "title of the contribution",
          "tracks": "are id of the tracks that are part of this contribution, you will have to manually fetch the tracks data from trackId once you do the indexing."
        }
      }
    },
    "kind": "dev",
    "methods": {
      "controllerCreateNewContribution((uint256[],string,string,string,uint256,bool,string,uint256,uint256),address)": {
        "details": "This function will be called by the controller contract to create a new contribution and voting",
        "params": {
          "owner": "this is the owner of the new contribution which is to be created",
          "payload": "this is the data required for creation of new contribution"
        }
      },
      "controllerCreateSeedContribution((uint256[],string,string,string,string),address)": {
        "details": "This function is to be called only by the controller contract that is created to bundle multiple contract calls into single function",
        "params": {
          "owner": "address of the owner of the seed contribution",
          "payload": "data for the seed contribution creation"
        }
      },
      "createNewContribution((uint256[],string,string,string,uint256,bool,string,uint256,uint256),address,uint256)": {
        "details": "This function will be called by the user to create a new contribution",
        "params": {
          "payload": "this is the data required for creation of new contribution",
          "platformFee": "this is the incentive amount for the UI maintainer",
          "platformWallet": "this is the UI providers wallet"
        }
      },
      "createSeedContribution((uint256[],string,string,string,string),address,uint256)": {
        "details": "This function will be called by the user to create a new seed contribution as there will be not voting or anything like that",
        "params": {
          "payload": "data for the seed contribution creation",
          "platformFee": "this is the incentive amount for the UI maintainer",
          "platformWallet": "this is the UI providers wallet"
        }
      },
      "getContributionData(uint256)": {
        "details": "This function returns contribution data",
        "params": {
          "contributionId": "Id of the contribution whose data you want"
        }
      },
      "initialize(address,address,address,address)": {
        "details": "This is to set the address of the contracts",
        "params": {
          "controllerContractAddress": "this is the address of controller contract",
          "newRecordsContractAddress": "this is the address of new Records contract",
          "newTracksContractAddress": "this is the address of new tracks contract",
          "newVotingContractAddress": "this is the address of new voting contract"
        }
      },
      "setOwnerAddress(address)": {
        "details": "This function sets the owner address",
        "params": {
          "ownerAddress": "This is the address of the owner"
        }
      }
    },
    "version": 1
  },
  "userdoc": {
    "kind": "user",
    "methods": {},
    "version": 1
  }
}