{
  "contractName": "ContributionVotingContract",
  "abi": [
    {
      "inputs": [
        {
          "internalType": "uint8",
          "name": "votingInterval",
          "type": "uint8"
        },
        {
          "internalType": "address",
          "name": "owner",
          "type": "address"
        }
      ],
      "stateMutability": "nonpayable",
      "type": "constructor"
    },
    {
      "anonymous": false,
      "inputs": [
        {
          "indexed": false,
          "internalType": "uint256",
          "name": "contributionId",
          "type": "uint256"
        },
        {
          "indexed": false,
          "internalType": "uint256",
          "name": "ballotId",
          "type": "uint256"
        },
        {
          "indexed": false,
          "internalType": "bool",
          "name": "result",
          "type": "bool"
        }
      ],
      "name": "BallotResult",
      "type": "event"
    },
    {
      "anonymous": false,
      "inputs": [
        {
          "indexed": false,
          "internalType": "address",
          "name": "requester",
          "type": "address"
        },
        {
          "indexed": false,
          "internalType": "uint256",
          "name": "contributionId",
          "type": "uint256"
        },
        {
          "indexed": false,
          "internalType": "uint256",
          "name": "recordId",
          "type": "uint256"
        },
        {
          "indexed": false,
          "internalType": "uint256",
          "name": "communityReward",
          "type": "uint256"
        },
        {
          "indexed": false,
          "internalType": "uint256",
          "name": "communityTokenId",
          "type": "uint256"
        },
        {
          "indexed": false,
          "internalType": "uint256",
          "name": "governanceReward",
          "type": "uint256"
        },
        {
          "indexed": false,
          "internalType": "uint256",
          "name": "governanceTokenId",
          "type": "uint256"
        },
        {
          "indexed": false,
          "internalType": "uint256",
          "name": "ballotId",
          "type": "uint256"
        }
      ],
      "name": "ContributionBallotCreated",
      "type": "event"
    },
    {
      "anonymous": false,
      "inputs": [
        {
          "indexed": false,
          "internalType": "address",
          "name": "voter",
          "type": "address"
        },
        {
          "indexed": false,
          "internalType": "uint256",
          "name": "contributionId",
          "type": "uint256"
        },
        {
          "indexed": false,
          "internalType": "uint256",
          "name": "ballotId",
          "type": "uint256"
        },
        {
          "indexed": false,
          "internalType": "bool",
          "name": "vote",
          "type": "bool"
        }
      ],
      "name": "ContributionVoting",
      "type": "event"
    },
    {
      "anonymous": false,
      "inputs": [
        {
          "indexed": false,
          "internalType": "uint256",
          "name": "contributionId",
          "type": "uint256"
        },
        {
          "indexed": false,
          "internalType": "address",
          "name": "voterId",
          "type": "address"
        },
        {
          "indexed": false,
          "internalType": "uint256",
          "name": "newGovernanceReward",
          "type": "uint256"
        },
        {
          "indexed": false,
          "internalType": "uint256",
          "name": "newCommunityReward",
          "type": "uint256"
        }
      ],
      "name": "CounterOfferForContribution",
      "type": "event"
    },
    {
      "anonymous": false,
      "inputs": [
        {
          "indexed": false,
          "internalType": "uint256",
          "name": "contributionId",
          "type": "uint256"
        },
        {
          "indexed": false,
          "internalType": "address",
          "name": "voterId",
          "type": "address"
        },
        {
          "indexed": false,
          "internalType": "uint256",
          "name": "newGovernanceReward",
          "type": "uint256"
        },
        {
          "indexed": false,
          "internalType": "uint256",
          "name": "newCommunityReward",
          "type": "uint256"
        },
        {
          "indexed": false,
          "internalType": "uint256",
          "name": "status",
          "type": "uint256"
        }
      ],
      "name": "counterOfferAction",
      "type": "event"
    },
    {
      "inputs": [],
      "name": "CONTRIBUTION_CONTRACT_ADDRESS",
      "outputs": [
        {
          "internalType": "address",
          "name": "",
          "type": "address"
        }
      ],
      "stateMutability": "view",
      "type": "function",
      "constant": true
    },
    {
      "inputs": [],
      "name": "TREASURY_CONTRACT_ADDRESS",
      "outputs": [
        {
          "internalType": "address",
          "name": "",
          "type": "address"
        }
      ],
      "stateMutability": "view",
      "type": "function",
      "constant": true
    },
    {
      "inputs": [],
      "name": "TREASURY_HUB_ADDRESS",
      "outputs": [
        {
          "internalType": "address",
          "name": "",
          "type": "address"
        }
      ],
      "stateMutability": "view",
      "type": "function",
      "constant": true
    },
    {
      "inputs": [
        {
          "internalType": "address",
          "name": "user",
          "type": "address"
        },
        {
          "internalType": "uint256",
          "name": "tokenId",
          "type": "uint256"
        },
        {
          "internalType": "uint256",
          "name": "previousBalance",
          "type": "uint256"
        },
        {
          "internalType": "uint256",
          "name": "newBalance",
          "type": "uint256"
        }
      ],
      "name": "_handleUserTokenTransfers",
      "outputs": [],
      "stateMutability": "nonpayable",
      "type": "function"
    },
    {
      "inputs": [
        {
          "internalType": "address",
          "name": "newTreasuryContractAddress",
          "type": "address"
        }
      ],
      "name": "setTreasuryContractAddress",
      "outputs": [],
      "stateMutability": "nonpayable",
      "type": "function"
    },
    {
      "inputs": [
        {
          "internalType": "address",
          "name": "newContributionContractAddress",
          "type": "address"
        }
      ],
      "name": "setContributionContractAddress",
      "outputs": [],
      "stateMutability": "nonpayable",
      "type": "function"
    },
    {
      "inputs": [
        {
          "internalType": "uint256",
          "name": "contributionId",
          "type": "uint256"
        },
        {
          "internalType": "uint256",
          "name": "recordId",
          "type": "uint256"
        },
        {
          "internalType": "uint256",
          "name": "govReward",
          "type": "uint256"
        },
        {
          "internalType": "uint256",
          "name": "commReward",
          "type": "uint256"
        }
      ],
      "name": "createContributionVotingBallot",
      "outputs": [],
      "stateMutability": "nonpayable",
      "type": "function"
    },
    {
      "inputs": [
        {
          "internalType": "uint256",
          "name": "contributionId",
          "type": "uint256"
        },
        {
          "internalType": "bool",
          "name": "vote",
          "type": "bool"
        }
      ],
      "name": "castVoteForContribution",
      "outputs": [],
      "stateMutability": "nonpayable",
      "type": "function"
    },
    {
      "inputs": [
        {
          "internalType": "uint256",
          "name": "contributionId",
          "type": "uint256"
        },
        {
          "internalType": "uint256",
          "name": "newCommunityReward",
          "type": "uint256"
        },
        {
          "internalType": "uint256",
          "name": "newGovernanceReward",
          "type": "uint256"
        }
      ],
      "name": "proposeCounterOffer",
      "outputs": [],
      "stateMutability": "nonpayable",
      "type": "function"
    },
    {
      "inputs": [
        {
          "internalType": "uint256",
          "name": "contributionId",
          "type": "uint256"
        },
        {
          "internalType": "address[]",
          "name": "counterOfferIds",
          "type": "address[]"
        },
        {
          "internalType": "bool",
          "name": "action",
          "type": "bool"
        }
      ],
      "name": "actionOnCounterOffer",
      "outputs": [],
      "stateMutability": "nonpayable",
      "type": "function"
    },
    {
      "inputs": [
        {
          "internalType": "uint256",
          "name": "contributionId",
          "type": "uint256"
        }
      ],
      "name": "declareWinner",
      "outputs": [],
      "stateMutability": "nonpayable",
      "type": "function"
    }
  ],
  "bytecode": "0x6080604052601960005560006004553480156200001b57600080fd5b50604051620039e4380380620039e4833981810160405281019062000041919062000140565b808080600360006101000a81548173ffffffffffffffffffffffffffffffffffffffff021916908373ffffffffffffffffffffffffffffffffffffffff16021790555050508160ff16600081905550505062000187565b600080fd5b600060ff82169050919050565b620000b5816200009d565b8114620000c157600080fd5b50565b600081519050620000d581620000aa565b92915050565b600073ffffffffffffffffffffffffffffffffffffffff82169050919050565b60006200010882620000db565b9050919050565b6200011a81620000fb565b81146200012657600080fd5b50565b6000815190506200013a816200010f565b92915050565b600080604083850312156200015a576200015962000098565b5b60006200016a85828601620000c4565b92505060206200017d8582860162000129565b9150509250929050565b61384d80620001976000396000f3fe608060405234801561001057600080fd5b50600436106100a85760003560e01c80634cf2d48f116100715780634cf2d48f1461013b5780638d2ae1f714610157578063abb7ed7f14610175578063acb3149314610191578063c679968a146101af578063c9d59143146101cb576100a8565b8062c2943c146100ad57806307c505b7146100c95780630d76a882146100e7578063251686ed1461010357806329c50b591461011f575b600080fd5b6100c760048036038101906100c291906128c3565b6101e7565b005b6100d161055c565b6040516100de9190612931565b60405180910390f35b61010160048036038101906100fc919061294c565b610582565b005b61011d600480360381019061011891906129eb565b610920565b005b61013960048036038101906101349190612a57565b610a01565b005b61015560048036038101906101509190612a57565b610ad5565b005b61015f610b71565b60405161016c9190612931565b60405180910390f35b61018f600480360381019061018a9190612a84565b610b97565b005b610199610d90565b6040516101a69190612931565b60405180910390f35b6101c960048036038101906101c49190612aeb565b610db6565b005b6101e560048036038101906101e09190612c97565b611236565b005b6000600c600083815260200190815260200160002080548060200260200160405190810160405280929190818152602001828054801561027c57602002820191906000526020600020905b8160009054906101000a900473ffffffffffffffffffffffffffffffffffffffff1673ffffffffffffffffffffffffffffffffffffffff1681526020019060010190808311610232575b5050505050905060005b81518110156103c8576001600b600085815260200190815260200160002060008484815181106102b9576102b8612d06565b5b602002602001015173ffffffffffffffffffffffffffffffffffffffff1673ffffffffffffffffffffffffffffffffffffffff1681526020019081526020016000206002015414156103b557610341600a60008581526020019081526020016000206003015483838151811061033257610331612d06565b5b602002602001015160006115b2565b6003600b6000858152602001908152602001600020600084848151811061036b5761036a612d06565b5b602002602001015173ffffffffffffffffffffffffffffffffffffffff1673ffffffffffffffffffffffffffffffffffffffff168152602001908152602001600020600201819055505b80806103c090612d64565b915050610286565b5060006103ea600a60008581526020019081526020016000206003015461166a565b90507fb8a8a92b56f183482e31ed93ed60da7274c03a6bc11b2c0e75cec8ff5a8058f283600a6000868152602001908152602001600020600301548360405161043593929190612dcb565b60405180910390a18015610557576000600160009054906101000a900473ffffffffffffffffffffffffffffffffffffffff1690508073ffffffffffffffffffffffffffffffffffffffff16638388f413600a600087815260200190815260200160002060000160009054906101000a900473ffffffffffffffffffffffffffffffffffffffff16600a60008881526020019081526020016000206002015487600a60008a815260200190815260200160002060060154600a60008b8152602001908152602001600020600401546040518663ffffffff1660e01b8152600401610523959493929190612e02565b600060405180830381600087803b15801561053d57600080fd5b505af1158015610551573d6000803e3d6000fd5b50505050505b505050565b600d60009054906101000a900473ffffffffffffffffffffffffffffffffffffffff1681565b600d60009054906101000a900473ffffffffffffffffffffffffffffffffffffffff1673ffffffffffffffffffffffffffffffffffffffff163373ffffffffffffffffffffffffffffffffffffffff1614610612576040517f08c379a000000000000000000000000000000000000000000000000000000000815260040161060990612ed8565b60405180910390fd5b60001515600a600086815260200190815260200160002060080160009054906101000a900460ff1615151461067c576040517f08c379a000000000000000000000000000000000000000000000000000000000815260040161067390612f44565b60405180910390fd5b6000600160009054906101000a900473ffffffffffffffffffffffffffffffffffffffff16905060008173ffffffffffffffffffffffffffffffffffffffff16632d4a0382866040518263ffffffff1660e01b81526004016106de9190612f64565b602060405180830381865afa1580156106fb573d6000803e3d6000fd5b505050506040513d601f19601f8201168201806040525081019061071f9190612f94565b905060008273ffffffffffffffffffffffffffffffffffffffff1663d6ca40a7876040518263ffffffff1660e01b815260040161075c9190612f64565b602060405180830381865afa158015610779573d6000803e3d6000fd5b505050506040513d601f19601f8201168201806040525081019061079d9190612f94565b905060006107ac6001846118e7565b905060006040518061012001604052803273ffffffffffffffffffffffffffffffffffffffff1681526020018a81526020018981526020018381526020018781526020018481526020018881526020018581526020016001151581525090507f841b71ba38f7c6cc93d8235b87ac4a1f87adee1f9d562d9e0421744c8b2d5d5a338a8a89878c8a89604051610848989796959493929190612fc1565b60405180910390a180600a60008b815260200190815260200160002060008201518160000160006101000a81548173ffffffffffffffffffffffffffffffffffffffff021916908373ffffffffffffffffffffffffffffffffffffffff1602179055506020820151816001015560408201518160020155606082015181600301556080820151816004015560a0820151816005015560c0820151816006015560e082015181600701556101008201518160080160006101000a81548160ff021916908315150217905550905050505050505050505050565b60011515600a600084815260200190815260200160002060080160009054906101000a900460ff1615151461098a576040517f08c379a00000000000000000000000000000000000000000000000000000000081526004016109819061308b565b60405180910390fd5b6109aa600a60008481526020019081526020016000206003015482611a84565b7fc94df962ce83bb9f5099c0364215ad4932ed320a795c370dc62619a373a9518e3383600a600086815260200190815260200160002060030154846040516109f594939291906130ab565b60405180910390a15050565b600360009054906101000a900473ffffffffffffffffffffffffffffffffffffffff1673ffffffffffffffffffffffffffffffffffffffff163373ffffffffffffffffffffffffffffffffffffffff1614610a91576040517f08c379a0000000000000000000000000000000000000000000000000000000008152600401610a8890613162565b60405180910390fd5b80600d60006101000a81548173ffffffffffffffffffffffffffffffffffffffff021916908373ffffffffffffffffffffffffffffffffffffffff16021790555050565b600360009054906101000a900473ffffffffffffffffffffffffffffffffffffffff1673ffffffffffffffffffffffffffffffffffffffff163373ffffffffffffffffffffffffffffffffffffffff1614610b65576040517f08c379a0000000000000000000000000000000000000000000000000000000008152600401610b5c90613162565b60405180910390fd5b610b6e81611b38565b50565b600260009054906101000a900473ffffffffffffffffffffffffffffffffffffffff1681565b6000600860008673ffffffffffffffffffffffffffffffffffffffff1673ffffffffffffffffffffffffffffffffffffffff168152602001908152602001600020905060005b8180549050811015610d88576001151560056000848481548110610c0457610c03612d06565b5b9060005260206000200154815260200190815260200160002060070160009054906101000a900460ff1615151480610c6e57504360056000848481548110610c4f57610c4e612d06565b5b9060005260206000200154815260200190815260200160002060060154105b15610d0f578160018380549050610c859190613182565b81548110610c9657610c95612d06565b5b9060005260206000200154828281548110610cb457610cb3612d06565b5b906000526020600020018190555081805480610cd357610cd26131b6565b5b600190038181906000526020600020016000905590556000811415610cfb5760009050610d0a565b8080610d06906131e5565b9150505b610d75565b60056000838381548110610d2657610d25612d06565b5b9060005260206000200154815260200190815260200160002060050154851415610d7457610d73828281548110610d6057610d5f612d06565b5b9060005260206000200154878686611c0c565b5b5b8080610d8090612d64565b915050610bdd565b505050505050565b600160009054906101000a900473ffffffffffffffffffffffffffffffffffffffff1681565b600a6000848152602001908152602001600020600301546005600082815260200190815260200160002060070160019054906101000a900460ff1615610e9f57600015156006600083815260200190815260200160002060003273ffffffffffffffffffffffffffffffffffffffff1673ffffffffffffffffffffffffffffffffffffffff16815260200190815260200160002060009054906101000a900460ff16151514610e9a576040517f08c379a0000000000000000000000000000000000000000000000000000000008152600401610e919061325b565b60405180910390fd5b610f45565b6005600082815260200190815260200160002060000160009054906101000a900473ffffffffffffffffffffffffffffffffffffffff1673ffffffffffffffffffffffffffffffffffffffff163273ffffffffffffffffffffffffffffffffffffffff161415610f44576040517f08c379a0000000000000000000000000000000000000000000000000000000008152600401610f3b906132c7565b60405180910390fd5b5b600a60008581526020019081526020016000206003015433600115156005600084815260200190815260200160002060070160029054906101000a900460ff16151514610fc7576040517f08c379a0000000000000000000000000000000000000000000000000000000008152600401610fbe90613333565b60405180910390fd5b4360056000848152602001908152602001600020600601541161101f576040517f08c379a00000000000000000000000000000000000000000000000000000000081526004016110169061339f565b60405180910390fd5b600015156006600084815260200190815260200160002060008373ffffffffffffffffffffffffffffffffffffffff1673ffffffffffffffffffffffffffffffffffffffff16815260200190815260200160002060009054906101000a900460ff161515146110c3576040517f08c379a00000000000000000000000000000000000000000000000000000000081526004016110ba9061325b565b60405180910390fd5b6110e2600a600088815260200190815260200160002060030154611dd9565b6000604051806060016040528087815260200186815260200160018152509050600c6000888152602001908152602001600020339080600181540180825580915050600190039060005260206000200160009091909190916101000a81548173ffffffffffffffffffffffffffffffffffffffff021916908373ffffffffffffffffffffffffffffffffffffffff16021790555080600b600089815260200190815260200160002060003373ffffffffffffffffffffffffffffffffffffffff1673ffffffffffffffffffffffffffffffffffffffff1681526020019081526020016000206000820151816000015560208201518160010155604082015181600201559050507f920106c0a661b88d3e90d906bbcd9e579abab6ff29031cb1cc958ddebae47fb887338360200151846000015160405161122594939291906133bf565b60405180910390a150505050505050565b60005b82518110156115ac576001600b6000868152602001908152602001600020600085848151811061126c5761126b612d06565b5b602002602001015173ffffffffffffffffffffffffffffffffffffffff1673ffffffffffffffffffffffffffffffffffffffff1681526020019081526020016000206002015414156115995781156114e8576000600b600086815260200190815260200160002060008584815181106112e8576112e7612d06565b5b602002602001015173ffffffffffffffffffffffffffffffffffffffff1673ffffffffffffffffffffffffffffffffffffffff1681526020019081526020016000206001015490506000600b6000878152602001908152602001600020600086858151811061135a57611359612d06565b5b602002602001015173ffffffffffffffffffffffffffffffffffffffff1673ffffffffffffffffffffffffffffffffffffffff16815260200190815260200160002060000154905080600a60008881526020019081526020016000206004018190555081600a6000888152602001908152602001600020600601819055506002600b6000888152602001908152602001600020600087868151811061140257611401612d06565b5b602002602001015173ffffffffffffffffffffffffffffffffffffffff1673ffffffffffffffffffffffffffffffffffffffff16815260200190815260200160002060020181905550611487600a60008881526020019081526020016000206003015486858151811061147857611477612d06565b5b602002602001015160016115b2565b7fd992f385523dde33af41e13ab8ac788e6a9d7bf3278f3a70d16c150ff43115e5868685815181106114bc576114bb612d06565b5b6020026020010151848460026040516114d9959493929190613449565b60405180910390a15050611598565b611524600a60008681526020019081526020016000206003015484838151811061151557611514612d06565b5b602002602001015160006115b2565b6003600b6000868152602001908152602001600020600085848151811061154e5761154d612d06565b5b602002602001015173ffffffffffffffffffffffffffffffffffffffff1673ffffffffffffffffffffffffffffffffffffffff168152602001908152602001600020600201819055505b5b80806115a490612d64565b915050611239565b50505050565b8282600115156009600084815260200190815260200160002060008373ffffffffffffffffffffffffffffffffffffffff1673ffffffffffffffffffffffffffffffffffffffff16815260200190815260200160002060009054906101000a900460ff16151514611658576040517f08c379a000000000000000000000000000000000000000000000000000000000815260040161164f906134e8565b60405180910390fd5b611663858486612055565b5050505050565b6000600115156005600084815260200190815260200160002060070160029054906101000a900460ff161515146116d6576040517f08c379a00000000000000000000000000000000000000000000000000000000081526004016116cd90613333565b60405180910390fd5b4360056000848152602001908152602001600020600601541061172e576040517f08c379a000000000000000000000000000000000000000000000000000000000815260040161172590613554565b60405180910390fd5b600015156005600084815260200190815260200160002060070160009054906101000a900460ff16151514611798576040517f08c379a000000000000000000000000000000000000000000000000000000000815260040161178f906135c0565b60405180910390fd5b60006005600084815260200190815260200160002090506000816001015490506000600160009054906101000a900473ffffffffffffffffffffffffffffffffffffffff16905060016005600087815260200190815260200160002060070160006101000a81548160ff02191690831515021790555060008211156118da5760008173ffffffffffffffffffffffffffffffffffffffff1663036c22ad85600501546040518263ffffffff1660e01b81526004016118569190612f64565b602060405180830381865afa158015611873573d6000803e3d6000fd5b505050506040513d601f19601f820116820180604052508101906118979190612f94565b9050600060646042836118aa91906135e0565b6118b49190613669565b9050808411156118cc576001955050505050506118e2565b6000955050505050506118e2565b600093505050505b919050565b6000600460008154809291906118fc90612d64565b919050555060006040518061014001604052803273ffffffffffffffffffffffffffffffffffffffff168152602001600081526020016000815260200160008152602001600081526020018481526020016000544361195b919061369a565b815260200160001515815260200185151581526020016001151581525090508060056000600454815260200190815260200160002060008201518160000160006101000a81548173ffffffffffffffffffffffffffffffffffffffff021916908373ffffffffffffffffffffffffffffffffffffffff1602179055506020820151816001015560408201518160020155606082015181600301556080820151816004015560a0820151816005015560c0820151816006015560e08201518160070160006101000a81548160ff0219169083151502179055506101008201518160070160016101000a81548160ff0219169083151502179055506101208201518160070160026101000a81548160ff02191690831515021790555090505060045491505092915050565b81600015156009600083815260200190815260200160002060003373ffffffffffffffffffffffffffffffffffffffff1673ffffffffffffffffffffffffffffffffffffffff16815260200190815260200160002060009054906101000a900460ff16151514611b29576040517f08c379a0000000000000000000000000000000000000000000000000000000008152600401611b2090613762565b60405180910390fd5b611b3383836121cf565b505050565b600360009054906101000a900473ffffffffffffffffffffffffffffffffffffffff1673ffffffffffffffffffffffffffffffffffffffff163373ffffffffffffffffffffffffffffffffffffffff1614611bc8576040517f08c379a0000000000000000000000000000000000000000000000000000000008152600401611bbf90613162565b60405180910390fd5b80600160006101000a81548173ffffffffffffffffffffffffffffffffffffffff021916908373ffffffffffffffffffffffffffffffffffffffff16021790555050565b600115156006600086815260200190815260200160002060008573ffffffffffffffffffffffffffffffffffffffff1673ffffffffffffffffffffffffffffffffffffffff16815260200190815260200160002060009054906101000a900460ff16151514611cb0576040517f08c379a0000000000000000000000000000000000000000000000000000000008152600401611ca7906137ce565b60405180910390fd5b60006007600086815260200190815260200160002060008573ffffffffffffffffffffffffffffffffffffffff1673ffffffffffffffffffffffffffffffffffffffff16815260200190815260200160002060009054906101000a900460ff1690508015611d775782600560008781526020019081526020016000206001016000828254611d3e9190613182565b9250508190555081600560008781526020019081526020016000206001016000828254611d6b919061369a565b92505081905550611dd2565b82600560008781526020019081526020016000206003016000828254611d9d9190613182565b9250508190555081600560008781526020019081526020016000206003016000828254611dca919061369a565b925050819055505b5050505050565b80600015156009600083815260200190815260200160002060003373ffffffffffffffffffffffffffffffffffffffff1673ffffffffffffffffffffffffffffffffffffffff16815260200190815260200160002060009054906101000a900460ff16151514611e7e576040517f08c379a0000000000000000000000000000000000000000000000000000000008152600401611e7590613762565b60405180910390fd5b8133600115156005600084815260200190815260200160002060070160029054906101000a900460ff16151514611eea576040517f08c379a0000000000000000000000000000000000000000000000000000000008152600401611ee190613333565b60405180910390fd5b43600560008481526020019081526020016000206006015411611f42576040517f08c379a0000000000000000000000000000000000000000000000000000000008152600401611f399061339f565b60405180910390fd5b600015156006600084815260200190815260200160002060008373ffffffffffffffffffffffffffffffffffffffff1673ffffffffffffffffffffffffffffffffffffffff16815260200190815260200160002060009054906101000a900460ff16151514611fe6576040517f08c379a0000000000000000000000000000000000000000000000000000000008152600401611fdd9061325b565b60405180910390fd5b60016009600086815260200190815260200160002060003373ffffffffffffffffffffffffffffffffffffffff1673ffffffffffffffffffffffffffffffffffffffff16815260200190815260200160002060006101000a81548160ff02191690831515021790555050505050565b8281600115156005600084815260200190815260200160002060070160029054906101000a900460ff161515146120c1576040517f08c379a00000000000000000000000000000000000000000000000000000000081526004016120b890613333565b60405180910390fd5b43600560008481526020019081526020016000206006015411612119576040517f08c379a00000000000000000000000000000000000000000000000000000000081526004016121109061339f565b60405180910390fd5b600015156006600084815260200190815260200160002060008373ffffffffffffffffffffffffffffffffffffffff1673ffffffffffffffffffffffffffffffffffffffff16815260200190815260200160002060009054906101000a900460ff161515146121bd576040517f08c379a00000000000000000000000000000000000000000000000000000000081526004016121b49061325b565b60405180910390fd5b6121c88585856124c2565b5050505050565b8133600115156005600084815260200190815260200160002060070160029054906101000a900460ff1615151461223b576040517f08c379a000000000000000000000000000000000000000000000000000000000815260040161223290613333565b60405180910390fd5b43600560008481526020019081526020016000206006015411612293576040517f08c379a000000000000000000000000000000000000000000000000000000000815260040161228a9061339f565b60405180910390fd5b600015156006600084815260200190815260200160002060008373ffffffffffffffffffffffffffffffffffffffff1673ffffffffffffffffffffffffffffffffffffffff16815260200190815260200160002060009054906101000a900460ff16151514612337576040517f08c379a000000000000000000000000000000000000000000000000000000000815260040161232e9061325b565b60405180910390fd5b836005600082815260200190815260200160002060070160019054906101000a900460ff161561240a57600015156006600083815260200190815260200160002060003273ffffffffffffffffffffffffffffffffffffffff1673ffffffffffffffffffffffffffffffffffffffff16815260200190815260200160002060009054906101000a900460ff16151514612405576040517f08c379a00000000000000000000000000000000000000000000000000000000081526004016123fc9061325b565b60405180910390fd5b6124b0565b6005600082815260200190815260200160002060000160009054906101000a900473ffffffffffffffffffffffffffffffffffffffff1673ffffffffffffffffffffffffffffffffffffffff163273ffffffffffffffffffffffffffffffffffffffff1614156124af576040517f08c379a00000000000000000000000000000000000000000000000000000000081526004016124a6906132c7565b60405180910390fd5b5b6124bb8585326124c2565b5050505050565b6000600160009054906101000a900473ffffffffffffffffffffffffffffffffffffffff169050600060056000868152602001908152602001600020604051806101400160405290816000820160009054906101000a900473ffffffffffffffffffffffffffffffffffffffff1673ffffffffffffffffffffffffffffffffffffffff1673ffffffffffffffffffffffffffffffffffffffff1681526020016001820154815260200160028201548152602001600382015481526020016004820154815260200160058201548152602001600682015481526020016007820160009054906101000a900460ff161515151581526020016007820160019054906101000a900460ff161515151581526020016007820160029054906101000a900460ff161515151581525050905060008273ffffffffffffffffffffffffffffffffffffffff1662fdd58e858460a001516040518363ffffffff1660e01b815260040161262f9291906137ee565b602060405180830381865afa15801561264c573d6000803e3d6000fd5b505050506040513d601f19601f820116820180604052508101906126709190612f94565b905084156126d8578060056000888152602001908152602001600020600101600082825461269e919061369a565b9250508190555060016005600088815260200190815260200160002060020160008282546126cc919061369a565b92505081905550612734565b806005600088815260200190815260200160002060030160008282546126fe919061369a565b92505081905550600160056000888152602001908152602001600020600401600082825461272c919061369a565b925050819055505b60016006600088815260200190815260200160002060008673ffffffffffffffffffffffffffffffffffffffff1673ffffffffffffffffffffffffffffffffffffffff16815260200190815260200160002060006101000a81548160ff021916908315150217905550846007600088815260200190815260200160002060008673ffffffffffffffffffffffffffffffffffffffff1673ffffffffffffffffffffffffffffffffffffffff16815260200190815260200160002060006101000a81548160ff0219169083151502179055506000600860008673ffffffffffffffffffffffffffffffffffffffff1673ffffffffffffffffffffffffffffffffffffffff16815260200190815260200160002090508087908060018154018082558091505060019003906000526020600020016000909190919091505550505050505050565b6000604051905090565b600080fd5b600080fd5b6000819050919050565b6128a08161288d565b81146128ab57600080fd5b50565b6000813590506128bd81612897565b92915050565b6000602082840312156128d9576128d8612883565b5b60006128e7848285016128ae565b91505092915050565b600073ffffffffffffffffffffffffffffffffffffffff82169050919050565b600061291b826128f0565b9050919050565b61292b81612910565b82525050565b60006020820190506129466000830184612922565b92915050565b6000806000806080858703121561296657612965612883565b5b6000612974878288016128ae565b9450506020612985878288016128ae565b9350506040612996878288016128ae565b92505060606129a7878288016128ae565b91505092959194509250565b60008115159050919050565b6129c8816129b3565b81146129d357600080fd5b50565b6000813590506129e5816129bf565b92915050565b60008060408385031215612a0257612a01612883565b5b6000612a10858286016128ae565b9250506020612a21858286016129d6565b9150509250929050565b612a3481612910565b8114612a3f57600080fd5b50565b600081359050612a5181612a2b565b92915050565b600060208284031215612a6d57612a6c612883565b5b6000612a7b84828501612a42565b91505092915050565b60008060008060808587031215612a9e57612a9d612883565b5b6000612aac87828801612a42565b9450506020612abd878288016128ae565b9350506040612ace878288016128ae565b9250506060612adf878288016128ae565b91505092959194509250565b600080600060608486031215612b0457612b03612883565b5b6000612b12868287016128ae565b9350506020612b23868287016128ae565b9250506040612b34868287016128ae565b9150509250925092565b600080fd5b6000601f19601f8301169050919050565b7f4e487b7100000000000000000000000000000000000000000000000000000000600052604160045260246000fd5b612b8c82612b43565b810181811067ffffffffffffffff82111715612bab57612baa612b54565b5b80604052505050565b6000612bbe612879565b9050612bca8282612b83565b919050565b600067ffffffffffffffff821115612bea57612be9612b54565b5b602082029050602081019050919050565b600080fd5b6000612c13612c0e84612bcf565b612bb4565b90508083825260208201905060208402830185811115612c3657612c35612bfb565b5b835b81811015612c5f5780612c4b8882612a42565b845260208401935050602081019050612c38565b5050509392505050565b600082601f830112612c7e57612c7d612b3e565b5b8135612c8e848260208601612c00565b91505092915050565b600080600060608486031215612cb057612caf612883565b5b6000612cbe868287016128ae565b935050602084013567ffffffffffffffff811115612cdf57612cde612888565b5b612ceb86828701612c69565b9250506040612cfc868287016129d6565b9150509250925092565b7f4e487b7100000000000000000000000000000000000000000000000000000000600052603260045260246000fd5b7f4e487b7100000000000000000000000000000000000000000000000000000000600052601160045260246000fd5b6000612d6f8261288d565b91507fffffffffffffffffffffffffffffffffffffffffffffffffffffffffffffffff821415612da257612da1612d35565b5b600182019050919050565b612db68161288d565b82525050565b612dc5816129b3565b82525050565b6000606082019050612de06000830186612dad565b612ded6020830185612dad565b612dfa6040830184612dbc565b949350505050565b600060a082019050612e176000830188612922565b612e246020830187612dad565b612e316040830186612dad565b612e3e6060830185612dad565b612e4b6080830184612dad565b9695505050505050565b600082825260208201905092915050565b7f596f7520617265206e6f7420636f6e747269627574696f6e20636f6e7472616360008201527f7400000000000000000000000000000000000000000000000000000000000000602082015250565b6000612ec2602183612e55565b9150612ecd82612e66565b604082019050919050565b60006020820190508181036000830152612ef181612eb5565b9050919050565b7f566f74696e6720697320616c7265616479206372656174656400000000000000600082015250565b6000612f2e601983612e55565b9150612f3982612ef8565b602082019050919050565b60006020820190508181036000830152612f5d81612f21565b9050919050565b6000602082019050612f796000830184612dad565b92915050565b600081519050612f8e81612897565b92915050565b600060208284031215612faa57612fa9612883565b5b6000612fb884828501612f7f565b91505092915050565b600061010082019050612fd7600083018b612922565b612fe4602083018a612dad565b612ff16040830189612dad565b612ffe6060830188612dad565b61300b6080830187612dad565b61301860a0830186612dad565b61302560c0830185612dad565b61303260e0830184612dad565b9998505050505050505050565b7f496e76616c696420636f6e747269627574696f6e206964000000000000000000600082015250565b6000613075601783612e55565b91506130808261303f565b602082019050919050565b600060208201905081810360008301526130a481613068565b9050919050565b60006080820190506130c06000830187612922565b6130cd6020830186612dad565b6130da6040830185612dad565b6130e76060830184612dbc565b95945050505050565b7f596f7520617265206e6f7420617574686f72697a656420666f7220746869732060008201527f616374696f6e0000000000000000000000000000000000000000000000000000602082015250565b600061314c602683612e55565b9150613157826130f0565b604082019050919050565b6000602082019050818103600083015261317b8161313f565b9050919050565b600061318d8261288d565b91506131988361288d565b9250828210156131ab576131aa612d35565b5b828203905092915050565b7f4e487b7100000000000000000000000000000000000000000000000000000000600052603160045260246000fd5b60006131f08261288d565b9150600082141561320457613203612d35565b5b600182039050919050565b7f596f75206861766520616c726561647920766f74656400000000000000000000600082015250565b6000613245601683612e55565b91506132508261320f565b602082019050919050565b6000602082019050818103600083015261327481613238565b9050919050565b7f4f776e65722063616e6e6f7420766f7465000000000000000000000000000000600082015250565b60006132b1601183612e55565b91506132bc8261327b565b602082019050919050565b600060208201905081810360008301526132e0816132a4565b9050919050565b7f4e6f2062616c6c6f74207769746820796f757220696420697320666f756e6400600082015250565b600061331d601f83612e55565b9150613328826132e7565b602082019050919050565b6000602082019050818103600083015261334c81613310565b9050919050565b7f566f74696e672074696d65206973206f76657200000000000000000000000000600082015250565b6000613389601383612e55565b915061339482613353565b602082019050919050565b600060208201905081810360008301526133b88161337c565b9050919050565b60006080820190506133d46000830187612dad565b6133e16020830186612922565b6133ee6040830185612dad565b6133fb6060830184612dad565b95945050505050565b6000819050919050565b6000819050919050565b600061343361342e61342984613404565b61340e565b61288d565b9050919050565b61344381613418565b82525050565b600060a08201905061345e6000830188612dad565b61346b6020830187612922565b6134786040830186612dad565b6134856060830185612dad565b613492608083018461343a565b9695505050505050565b7f436f756e746572206f6666657220646f65736e27742065786973747300000000600082015250565b60006134d2601c83612e55565b91506134dd8261349c565b602082019050919050565b60006020820190508181036000830152613501816134c5565b9050919050565b7f566f74696e672074696d65206973206e6f74206f766572207965740000000000600082015250565b600061353e601b83612e55565b915061354982613508565b602082019050919050565b6000602082019050818103600083015261356d81613531565b9050919050565b7f526573756c7420616c7265616479206465636c61726564000000000000000000600082015250565b60006135aa601783612e55565b91506135b582613574565b602082019050919050565b600060208201905081810360008301526135d98161359d565b9050919050565b60006135eb8261288d565b91506135f68361288d565b9250817fffffffffffffffffffffffffffffffffffffffffffffffffffffffffffffffff048311821515161561362f5761362e612d35565b5b828202905092915050565b7f4e487b7100000000000000000000000000000000000000000000000000000000600052601260045260246000fd5b60006136748261288d565b915061367f8361288d565b92508261368f5761368e61363a565b5b828204905092915050565b60006136a58261288d565b91506136b08361288d565b9250827fffffffffffffffffffffffffffffffffffffffffffffffffffffffffffffffff038211156136e5576136e4612d35565b5b828201905092915050565b7f596f75206861766520616c726561647920676976656e206120636f756e74657260008201527f206f666665720000000000000000000000000000000000000000000000000000602082015250565b600061374c602683612e55565b9150613757826136f0565b604082019050919050565b6000602082019050818103600083015261377b8161373f565b9050919050565b7f5573657220686173206e6f7420766f7465642079657400000000000000000000600082015250565b60006137b8601683612e55565b91506137c382613782565b602082019050919050565b600060208201905081810360008301526137e7816137ab565b9050919050565b60006040820190506138036000830185612922565b6138106020830184612dad565b939250505056fea2646970667358221220c585596914e9bc2e7751cbab09e9b41d67cc220c9c1abfdb8c2f2a8222c6eae464736f6c634300080c0033",
  "immutableReferences": {},
  "source": "// SPDX-License-Identifier: MIT\npragma solidity ^0.8.0;\n\nimport \"./BaseVotingCounterOfferContract.sol\";\nimport \"../TreasuryContract.sol\";\n\ncontract ContributionVotingContract is BaseVotingCounterOfferContract {\n    \n    /// @dev This structure will hold the data for contribution rewards \n    /// @param requester This is the person who has contributed and is seeking for reward\n    /// @param contributionId This is the contribution id \n    /// @param recordId This is the record id to which the reward belongs to \n    /// @param ballotId This is the ballot id of the reward\n    /// @param communityReward This is the community reward amount\n    /// @param communityTokenId This is the id of community token\n    /// @param governanceReward This is the amount of governance token requested as reward\n    /// @param governanceTokenId This is the id of governance token\n    /// @param isPresent This is to check if a contribution is present for a specific contribution\n    struct ContributionReward {\n        address requester;\n        uint256 contributionId;\n        uint256 recordId;\n        uint256 ballotId;\n        uint256 communityReward;\n        uint256 communityTokenId;\n        uint256 governanceReward;\n        uint256 governanceTokenId;\n        bool isPresent;\n    }\n\n    /// @dev This structure will hold the data for contribution rewards \n    /// @param newCommunityReward This is the community reward amount\n    /// @param newGovernanceReward This is the amount of governance token requested as reward\n    /// @param status This is status of the offer that is either : PENDING = 1 | ACCEPTED = 2 | REJECTED = 3\n    struct CounterOffer {\n        uint256 newCommunityReward;\n        uint256 newGovernanceReward;\n        uint256 status;\n    }\n\n    /// @notice This event is emitted when a contribution ballot is created by a user and it hold the following details\n    /// @dev This event is emitted during contribution ballot creation\n    /// @param requester This is the person who has contributed and is seeking for reward\n    /// @param contributionId This is the contribution id \n    /// @param recordId This is the record id to which the reward belongs to \n    /// @param communityReward This is the community reward amount\n    /// @param communityTokenId This is the id of community token\n    /// @param governanceReward This is the amount of governance token requested as reward\n    /// @param governanceTokenId This is the id of governance token\n    /// @param ballotId This is the ballot id of the reward\n    event ContributionBallotCreated(\n        address requester,\n        uint256 contributionId,\n        uint256 recordId,\n        uint256 communityReward,\n        uint256 communityTokenId,\n        uint256 governanceReward,\n        uint256 governanceTokenId,\n        uint256 ballotId\n    );\n\n    \n    /// @dev This is when a vote is given by user.\n    /// @param voter Address of the voter\n    /// @param contributionId This is the id of the contribution that is linked to this ballot \n    /// @param ballotId Id of the ballot where voting is stored\n    /// @param vote State of vote : true for yes and false for No\n    event ContributionVoting(\n        address voter,\n        uint256 contributionId,\n        uint256 ballotId,\n        bool vote\n    );\n\n    \n    /// @dev this is event which is created when a user proposes counter offer\n    /// @param contributionId This is the id of the contribution that is linked to this ballot \n    /// @param voterId This is the id of the voter who's vote it is\n    /// @param newGovernanceReward This is the new reward amount counter offered by the voter\n    /// @param newCommunityReward This is the new reward amount counter offered by the voter\n    event CounterOfferForContribution(\n        uint256 contributionId,\n        address voterId,\n        uint256 newGovernanceReward,\n        uint256 newCommunityReward\n    );\n\n    \n    /// @dev this is event which is created when the owner of the ballot takes action on a specific counter offer\n    /// @param contributionId This is the id of the contribution that is linked to this ballot \n    /// @param voterId This is the id of the voter who's vote it is\n    /// @param newGovernanceReward This is the new reward amount counter offered by the voter\n    /// @param newCommunityReward This is the new reward amount counter offered by the voter\n    /// @param status This is the status of the counter offer that is => either ACCEPTED = 2 | REJECTED = 3\n    event counterOfferAction(\n        uint256 contributionId,\n        address voterId,\n        uint256 newGovernanceReward,\n        uint256 newCommunityReward,\n        uint256 status\n    );\n\n    \n    /// @dev this event is genrated when result of a ballot is declared\n    /// @param contributionId This is the id of the contribution that is linked to this ballot \n    /// @param ballotId this is the ballot Id for which result is declared \n    /// @param result this is the status of the result, either true if user won that is \n    /// he received more than 66% of votes or false if user lost \n    event BallotResult(uint256 contributionId, uint256 ballotId, bool result);\n\n    mapping(uint256 => ContributionReward) rewardMapping;\n    //Bellow mapping is ContributionId => User's address => Counter Offer data\n    mapping(uint256 => mapping(address => CounterOffer)) contributionCounterOfferMap;\n    //This contains all the keys (The key's are users address) of the mapping of the counterOfferMapping.\n    mapping(uint256 => address[]) contributionCounterOfferList;\n    address public CONTRIBUTION_CONTRACT_ADDRESS;\n\n    constructor(uint8 votingInterval, address owner) BaseVotingCounterOfferContract(owner) {\n        VOTING_BLOCK_PERIOD = votingInterval;\n    }\n\n    modifier _onlyContributionContract() {\n        require(\n            msg.sender == CONTRIBUTION_CONTRACT_ADDRESS,\n            \"You are not contribution contract\"\n        );\n        _;\n    }\n\n    \n    /// @dev This function sets the treasury Contract address\n    function setTreasuryContractAddress(address newTreasuryContractAddress)\n        external\n        _ownerOnly\n    {\n        _setTreasuryContractAddress(newTreasuryContractAddress);\n    }\n\n    \n    /// @dev Sets the contribution contract address so that the voting ballot for contribution can\n    /// be restricted only to a certain contract that is the contribution contract\n    function setContributionContractAddress(\n        address newContributionContractAddress\n    ) public _ownerOnly {\n        CONTRIBUTION_CONTRACT_ADDRESS = newContributionContractAddress;\n    }\n\n    \n    /// @dev This function will create a new contribution voting ballot\n    function createContributionVotingBallot(\n        uint256 contributionId,\n        uint256 recordId,\n        uint256 govReward,\n        uint256 commReward\n    ) public _onlyContributionContract {\n        require(\n            rewardMapping[contributionId].isPresent == false,\n            \"Voting is already created\"\n        );\n\n        TreasuryContract treasuryContract = TreasuryContract(\n            TREASURY_CONTRACT_ADDRESS\n        );\n\n        uint256 govTokenId = treasuryContract.getCommunityTokenId(recordId);\n        uint256 commTokenId = treasuryContract.getGovernanceTokenId(recordId);\n\n        uint256 ballotId = _createVoting(true, govTokenId);\n\n        ContributionReward memory contributionReward = ContributionReward({\n            requester: tx.origin,\n            contributionId: contributionId,\n            recordId: recordId,\n            ballotId: ballotId,\n            communityReward: commReward,\n            communityTokenId: commTokenId,\n            governanceReward: govReward,\n            governanceTokenId: govTokenId,\n            isPresent: true\n        });\n\n        emit ContributionBallotCreated({\n            requester: msg.sender,\n            contributionId: contributionId,\n            recordId: recordId,\n            communityReward: commReward,\n            communityTokenId: commTokenId,\n            governanceReward: govReward,\n            governanceTokenId: govTokenId,\n            ballotId: ballotId\n        });\n\n        rewardMapping[contributionId] = contributionReward;\n    }\n\n    \n    /// @dev This function is called by any user to cast vote\n    /// @param contributionId this is the id of the contribution for which user is voting\n    /// @param vote this is the state of the vote, if true than it means the vote is in favour of the ballot\n    function castVoteForContribution(uint256 contributionId, bool vote) public {\n        require(\n            rewardMapping[contributionId].isPresent == true,\n            \"Invalid contribution id\"\n        );\n        super._castVote(rewardMapping[contributionId].ballotId, vote);\n\n        emit ContributionVoting({\n            contributionId: contributionId,\n            ballotId: rewardMapping[contributionId].ballotId,\n            voter: msg.sender,\n            vote: vote\n        });\n    }\n\n    \n    /// @dev This function is called by any user to cast vote\n    /// @param contributionId this is the id of the contribution for which user is creating a counter offer\n    /// @param newCommunityReward new community token amount as reward for the negotiation\n    /// @param newGovernanceReward new governance token amount as reward for the negotiation\n    function proposeCounterOffer(\n        uint256 contributionId,\n        uint256 newCommunityReward,\n        uint256 newGovernanceReward\n    )\n        public\n        _checkIfOwnerAllowed(rewardMapping[contributionId].ballotId)\n        _checkIfBallotIsOpen(rewardMapping[contributionId].ballotId, msg.sender)\n    {\n        _createCounterOffer(rewardMapping[contributionId].ballotId);\n\n        //Create counter offer object and push it into array\n        CounterOffer memory offer = CounterOffer({\n            newCommunityReward: newCommunityReward,\n            newGovernanceReward: newGovernanceReward,\n            status: 1\n        });\n\n        contributionCounterOfferList[contributionId].push(msg.sender);\n        contributionCounterOfferMap[contributionId][msg.sender] = offer;\n\n        emit CounterOfferForContribution(\n            contributionId,\n            msg.sender,\n            offer.newGovernanceReward,\n            offer.newCommunityReward\n        );\n    }\n\n    \n    /// @dev This function is called by owner of the contribution to either accept or reject a counter offer\n    /// @param contributionId this is the id of the contribution to which the counter offer belongs to\n    /// @param counterOfferIds The id of counter offers in array to accept or reject multiple counter offers at once\n    /// @param action this is the state of the vote, if true than it means that user accepts the counter offer\n    function actionOnCounterOffer(\n        uint256 contributionId,\n        address[] memory counterOfferIds,\n        bool action\n    ) public {\n        //only vote once check\n        for (uint256 i = 0; i < counterOfferIds.length; i++) {\n            if (\n                contributionCounterOfferMap[contributionId][counterOfferIds[i]]\n                    .status == 1\n            ) {\n                if (action) {\n                    uint256 newGovernanceReward = contributionCounterOfferMap[\n                        contributionId\n                    ][counterOfferIds[i]].newGovernanceReward;\n                    uint256 newCommunityReward = contributionCounterOfferMap[\n                        contributionId\n                    ][counterOfferIds[i]].newCommunityReward;\n\n                    //Set new reward for the contribution\n                    rewardMapping[contributionId]\n                        .communityReward = newCommunityReward;\n                    rewardMapping[contributionId]\n                        .governanceReward = newGovernanceReward;\n\n                    contributionCounterOfferMap[contributionId][\n                        counterOfferIds[i]\n                    ].status = 2;\n\n                    super._counterOfferAction(\n                        rewardMapping[contributionId].ballotId,\n                        counterOfferIds[i],\n                        true\n                    );\n                    emit counterOfferAction(\n                        contributionId,\n                        counterOfferIds[i],\n                        newGovernanceReward,\n                        newCommunityReward,\n                        2\n                    );\n                } else {\n                    super._counterOfferAction(\n                        rewardMapping[contributionId].ballotId,\n                        counterOfferIds[i],\n                        false\n                    );\n                    //The counter offer ids are the addresses of the user who proposed the offer\n                    contributionCounterOfferMap[contributionId][\n                        counterOfferIds[i]\n                    ].status = 3;\n                }\n            }\n        }\n    }\n\n    \n    /// @dev This function can be called from external source and also from within the contract\n    /// @param contributionId this is the id of the contribution to which the winner is to be declared\n    function declareWinner(uint256 contributionId) external {\n        address[] memory counterOfferList = contributionCounterOfferList[\n            contributionId\n        ];\n\n        //! we should remove the below for loop as we don't need loop through all the offers\n        //! as we are only calculating the votes that are accepted and rest are considered as false\n        for (uint256 i = 0; i < counterOfferList.length; i++) {\n            if (\n                contributionCounterOfferMap[contributionId][counterOfferList[i]]\n                    .status == 1\n            ) {\n                super._counterOfferAction(\n                    rewardMapping[contributionId].ballotId,\n                    counterOfferList[i],\n                    false\n                );\n                //The counter offer ids are the addresses of the user who proposed the offer\n                contributionCounterOfferMap[contributionId][counterOfferList[i]]\n                    .status = 3;\n            }\n        }\n        bool result = _declareWinner(rewardMapping[contributionId].ballotId);\n\n        emit BallotResult(\n            contributionId,\n            rewardMapping[contributionId].ballotId,\n            result\n        );\n\n        if (result) {\n            //Transfer the reward amount to user\n            TreasuryContract treasuryContract = TreasuryContract(\n                TREASURY_CONTRACT_ADDRESS\n            );\n            treasuryContract.transferRewardAmount(\n                rewardMapping[contributionId].requester,\n                rewardMapping[contributionId].recordId,\n                contributionId,\n                rewardMapping[contributionId].governanceReward,\n                rewardMapping[contributionId].communityReward\n            );\n        }\n    }\n}\n",
  "sourcePath": "/Users/a1/Desktop/Office/projects/CrowdRecords/Contracts/contracts/voting/ContributionVotingContract.sol",
  "compiler": {
    "name": "solc",
    "version": "0.8.12+commit.f00d7308.Emscripten.clang"
  },
  "schemaVersion": "3.4.6",
  "updatedAt": "2022-09-08T09:22:09.744Z",
  "networkType": "ethereum",
  "devdoc": {
    "events": {
      "BallotResult(uint256,uint256,bool)": {
        "details": "this event is genrated when result of a ballot is declared",
        "params": {
          "ballotId": "this is the ballot Id for which result is declared ",
          "contributionId": "This is the id of the contribution that is linked to this ballot ",
          "result": "this is the status of the result, either true if user won that is  he received more than 66% of votes or false if user lost "
        }
      },
      "ContributionBallotCreated(address,uint256,uint256,uint256,uint256,uint256,uint256,uint256)": {
        "details": "This event is emitted during contribution ballot creation",
        "params": {
          "ballotId": "This is the ballot id of the reward",
          "communityReward": "This is the community reward amount",
          "communityTokenId": "This is the id of community token",
          "contributionId": "This is the contribution id ",
          "governanceReward": "This is the amount of governance token requested as reward",
          "governanceTokenId": "This is the id of governance token",
          "recordId": "This is the record id to which the reward belongs to ",
          "requester": "This is the person who has contributed and is seeking for reward"
        }
      },
      "ContributionVoting(address,uint256,uint256,bool)": {
        "details": "This is when a vote is given by user.",
        "params": {
          "ballotId": "Id of the ballot where voting is stored",
          "contributionId": "This is the id of the contribution that is linked to this ballot ",
          "vote": "State of vote : true for yes and false for No",
          "voter": "Address of the voter"
        }
      },
      "CounterOfferForContribution(uint256,address,uint256,uint256)": {
        "details": "this is event which is created when a user proposes counter offer",
        "params": {
          "contributionId": "This is the id of the contribution that is linked to this ballot ",
          "newCommunityReward": "This is the new reward amount counter offered by the voter",
          "newGovernanceReward": "This is the new reward amount counter offered by the voter",
          "voterId": "This is the id of the voter who's vote it is"
        }
      },
      "counterOfferAction(uint256,address,uint256,uint256,uint256)": {
        "details": "this is event which is created when the owner of the ballot takes action on a specific counter offer",
        "params": {
          "contributionId": "This is the id of the contribution that is linked to this ballot ",
          "newCommunityReward": "This is the new reward amount counter offered by the voter",
          "newGovernanceReward": "This is the new reward amount counter offered by the voter",
          "status": "This is the status of the counter offer that is => either ACCEPTED = 2 | REJECTED = 3",
          "voterId": "This is the id of the voter who's vote it is"
        }
      }
    },
    "kind": "dev",
    "methods": {
      "_handleUserTokenTransfers(address,uint256,uint256,uint256)": {
        "details": "This function will be called when either user is transferring the tokens to other account, or is receiving tokens from other tokens.",
        "params": {
          "newBalance": "this is the new balance of the user that is after the transfer",
          "previousBalance": "this is the old balance of the user",
          "user": "address of the user whose balance is being changed"
        }
      },
      "actionOnCounterOffer(uint256,address[],bool)": {
        "details": "This function is called by owner of the contribution to either accept or reject a counter offer",
        "params": {
          "action": "this is the state of the vote, if true than it means that user accepts the counter offer",
          "contributionId": "this is the id of the contribution to which the counter offer belongs to",
          "counterOfferIds": "The id of counter offers in array to accept or reject multiple counter offers at once"
        }
      },
      "castVoteForContribution(uint256,bool)": {
        "details": "This function is called by any user to cast vote",
        "params": {
          "contributionId": "this is the id of the contribution for which user is voting",
          "vote": "this is the state of the vote, if true than it means the vote is in favour of the ballot"
        }
      },
      "createContributionVotingBallot(uint256,uint256,uint256,uint256)": {
        "details": "This function will create a new contribution voting ballot"
      },
      "declareWinner(uint256)": {
        "details": "This function can be called from external source and also from within the contract",
        "params": {
          "contributionId": "this is the id of the contribution to which the winner is to be declared"
        }
      },
      "proposeCounterOffer(uint256,uint256,uint256)": {
        "details": "This function is called by any user to cast vote",
        "params": {
          "contributionId": "this is the id of the contribution for which user is creating a counter offer",
          "newCommunityReward": "new community token amount as reward for the negotiation",
          "newGovernanceReward": "new governance token amount as reward for the negotiation"
        }
      },
      "setContributionContractAddress(address)": {
        "details": "Sets the contribution contract address so that the voting ballot for contribution can be restricted only to a certain contract that is the contribution contract"
      },
      "setTreasuryContractAddress(address)": {
        "details": "This function sets the treasury Contract address"
      }
    },
    "version": 1
  },
  "userdoc": {
    "events": {
      "ContributionBallotCreated(address,uint256,uint256,uint256,uint256,uint256,uint256,uint256)": {
        "notice": "This event is emitted when a contribution ballot is created by a user and it hold the following details"
      }
    },
    "kind": "user",
    "methods": {},
    "version": 1
  }
}