{
  "contractName": "ContributionContract",
  "abi": [
    {
      "inputs": [
        {
          "internalType": "address",
          "name": "owner",
          "type": "address"
        }
      ],
      "stateMutability": "nonpayable",
      "type": "constructor"
    },
    {
      "anonymous": false,
      "inputs": [
        {
          "indexed": false,
          "internalType": "uint256",
          "name": "contributionId",
          "type": "uint256"
        },
        {
          "indexed": false,
          "internalType": "uint256[]",
          "name": "tracks",
          "type": "uint256[]"
        },
        {
          "indexed": false,
          "internalType": "uint256",
          "name": "createdAt",
          "type": "uint256"
        },
        {
          "indexed": false,
          "internalType": "string",
          "name": "previewFile",
          "type": "string"
        },
        {
          "indexed": false,
          "internalType": "string",
          "name": "previewFileHash",
          "type": "string"
        },
        {
          "indexed": false,
          "internalType": "uint256",
          "name": "recordId",
          "type": "uint256"
        },
        {
          "indexed": false,
          "internalType": "bool",
          "name": "seedContribution",
          "type": "bool"
        },
        {
          "indexed": false,
          "internalType": "bool",
          "name": "roughMix",
          "type": "bool"
        },
        {
          "indexed": false,
          "internalType": "uint256",
          "name": "status",
          "type": "uint256"
        },
        {
          "indexed": false,
          "internalType": "string",
          "name": "description",
          "type": "string"
        }
      ],
      "name": "ContributionCreated",
      "type": "event"
    },
    {
      "inputs": [],
      "name": "ACCEPTED",
      "outputs": [
        {
          "internalType": "uint256",
          "name": "",
          "type": "uint256"
        }
      ],
      "stateMutability": "view",
      "type": "function"
    },
    {
      "inputs": [],
      "name": "CONTRIBUTION_VOTING_CONTRACT_ADDRESS",
      "outputs": [
        {
          "internalType": "address",
          "name": "",
          "type": "address"
        }
      ],
      "stateMutability": "view",
      "type": "function"
    },
    {
      "inputs": [],
      "name": "OWNER",
      "outputs": [
        {
          "internalType": "address",
          "name": "",
          "type": "address"
        }
      ],
      "stateMutability": "view",
      "type": "function"
    },
    {
      "inputs": [],
      "name": "PENDING",
      "outputs": [
        {
          "internalType": "uint256",
          "name": "",
          "type": "uint256"
        }
      ],
      "stateMutability": "view",
      "type": "function"
    },
    {
      "inputs": [],
      "name": "RECORD_CONTRACT_ADDRESS",
      "outputs": [
        {
          "internalType": "address",
          "name": "",
          "type": "address"
        }
      ],
      "stateMutability": "view",
      "type": "function"
    },
    {
      "inputs": [],
      "name": "REJECTED",
      "outputs": [
        {
          "internalType": "uint256",
          "name": "",
          "type": "uint256"
        }
      ],
      "stateMutability": "view",
      "type": "function"
    },
    {
      "inputs": [
        {
          "internalType": "uint256",
          "name": "",
          "type": "uint256"
        }
      ],
      "name": "contributionData",
      "outputs": [
        {
          "internalType": "uint256",
          "name": "createdAt",
          "type": "uint256"
        },
        {
          "internalType": "string",
          "name": "previewFile",
          "type": "string"
        },
        {
          "internalType": "string",
          "name": "previewFileHash",
          "type": "string"
        },
        {
          "internalType": "bool",
          "name": "seedContribution",
          "type": "bool"
        },
        {
          "internalType": "bool",
          "name": "roughMix",
          "type": "bool"
        },
        {
          "internalType": "uint256",
          "name": "status",
          "type": "uint256"
        },
        {
          "internalType": "string",
          "name": "description",
          "type": "string"
        },
        {
          "internalType": "bool",
          "name": "isPresent",
          "type": "bool"
        }
      ],
      "stateMutability": "view",
      "type": "function"
    },
    {
      "inputs": [
        {
          "internalType": "address",
          "name": "newVotingContractAddress",
          "type": "address"
        }
      ],
      "name": "setContributionVotingContractAddress",
      "outputs": [],
      "stateMutability": "nonpayable",
      "type": "function"
    },
    {
      "inputs": [
        {
          "internalType": "address",
          "name": "newRecordsContractAddress",
          "type": "address"
        }
      ],
      "name": "setRecordsContractAddress",
      "outputs": [],
      "stateMutability": "nonpayable",
      "type": "function"
    },
    {
      "inputs": [
        {
          "internalType": "address",
          "name": "ownerAddress",
          "type": "address"
        }
      ],
      "name": "setOwnerAddress",
      "outputs": [],
      "stateMutability": "nonpayable",
      "type": "function"
    },
    {
      "inputs": [
        {
          "internalType": "uint256",
          "name": "contributionId",
          "type": "uint256"
        }
      ],
      "name": "getContributionData",
      "outputs": [
        {
          "components": [
            {
              "internalType": "uint256[]",
              "name": "tracks",
              "type": "uint256[]"
            },
            {
              "internalType": "uint256",
              "name": "createdAt",
              "type": "uint256"
            },
            {
              "internalType": "string",
              "name": "previewFile",
              "type": "string"
            },
            {
              "internalType": "string",
              "name": "previewFileHash",
              "type": "string"
            },
            {
              "internalType": "bool",
              "name": "seedContribution",
              "type": "bool"
            },
            {
              "internalType": "bool",
              "name": "roughMix",
              "type": "bool"
            },
            {
              "internalType": "uint256",
              "name": "status",
              "type": "uint256"
            },
            {
              "internalType": "string",
              "name": "description",
              "type": "string"
            },
            {
              "internalType": "bool",
              "name": "isPresent",
              "type": "bool"
            }
          ],
          "internalType": "struct ContributionContract.Contribution",
          "name": "contribution",
          "type": "tuple"
        }
      ],
      "stateMutability": "view",
      "type": "function"
    },
    {
      "inputs": [
        {
          "internalType": "uint256[]",
          "name": "tracks",
          "type": "uint256[]"
        },
        {
          "internalType": "string",
          "name": "previewFile",
          "type": "string"
        },
        {
          "internalType": "string",
          "name": "previewFileHash",
          "type": "string"
        },
        {
          "internalType": "uint256",
          "name": "recordId",
          "type": "uint256"
        },
        {
          "internalType": "bool",
          "name": "roughMix",
          "type": "bool"
        },
        {
          "internalType": "string",
          "name": "description",
          "type": "string"
        },
        {
          "internalType": "uint256",
          "name": "communityReward",
          "type": "uint256"
        },
        {
          "internalType": "uint256",
          "name": "governanceReward",
          "type": "uint256"
        }
      ],
      "name": "createNewContribution",
      "outputs": [
        {
          "internalType": "uint256",
          "name": "",
          "type": "uint256"
        }
      ],
      "stateMutability": "nonpayable",
      "type": "function"
    },
    {
      "inputs": [
        {
          "internalType": "uint256[]",
          "name": "tracks",
          "type": "uint256[]"
        },
        {
          "internalType": "string",
          "name": "previewFile",
          "type": "string"
        },
        {
          "internalType": "string",
          "name": "previewFileHash",
          "type": "string"
        },
        {
          "internalType": "string",
          "name": "description",
          "type": "string"
        }
      ],
      "name": "createSeedContribution",
      "outputs": [
        {
          "internalType": "uint256",
          "name": "",
          "type": "uint256"
        }
      ],
      "stateMutability": "nonpayable",
      "type": "function"
    }
  ],
  "bytecode": "0x60806040526001600555600260065560036007553480156200002057600080fd5b5060405162001e6c38038062001e6c8339818101604052810190620000469190620000f8565b80600160006101000a81548173ffffffffffffffffffffffffffffffffffffffff021916908373ffffffffffffffffffffffffffffffffffffffff160217905550506200012a565b600080fd5b600073ffffffffffffffffffffffffffffffffffffffff82169050919050565b6000620000c08262000093565b9050919050565b620000d281620000b3565b8114620000de57600080fd5b50565b600081519050620000f281620000c7565b92915050565b6000602082840312156200011157620001106200008e565b5b60006200012184828501620000e1565b91505092915050565b611d32806200013a6000396000f3fe608060405234801561001057600080fd5b50600436106100cf5760003560e01c80636055c8551161008c578063af67076911610066578063af6707691461022d578063cb7390b71461024b578063dfe813eb14610269578063f0fda38614610285576100cf565b80636055c855146101b157806365585fde146101cd5780637ddba787146101fd576100cf565b80630ade4dbd146100d4578063117803e31461010b57806323374b9d146101295780632609e5f414610159578063331a6bf5146101775780634324efd714610193575b600080fd5b6100ee60048036038101906100e991906110eb565b6102a3565b6040516101029897969594939291906111db565b60405180910390f35b6101136104aa565b60405161012091906112af565b60405180910390f35b610143600480360381019061013e91906110eb565b6104d0565b60405161015091906114bb565b60405180910390f35b610161610771565b60405161016e91906114dd565b60405180910390f35b610191600480360381019061018c9190611524565b610777565b005b61019b61084b565b6040516101a891906114dd565b60405180910390f35b6101cb60048036038101906101c69190611524565b610851565b005b6101e760048036038101906101e2919061177a565b610925565b6040516101f491906114dd565b60405180910390f35b610217600480360381019061021291906118a0565b610c35565b60405161022491906114dd565b60405180910390f35b610235610e15565b60405161024291906112af565b60405180910390f35b610253610e3b565b60405161026091906114dd565b60405180910390f35b610283600480360381019061027e9190611524565b610e41565b005b61028d610f15565b60405161029a91906112af565b60405180910390f35b60046020528060005260406000206000915090508060010154908060020180546102cc906119a6565b80601f01602080910402602001604051908101604052809291908181526020018280546102f8906119a6565b80156103455780601f1061031a57610100808354040283529160200191610345565b820191906000526020600020905b81548152906001019060200180831161032857829003601f168201915b50505050509080600301805461035a906119a6565b80601f0160208091040260200160405190810160405280929190818152602001828054610386906119a6565b80156103d35780601f106103a8576101008083540402835291602001916103d3565b820191906000526020600020905b8154815290600101906020018083116103b657829003601f168201915b5050505050908060040160009054906101000a900460ff16908060040160019054906101000a900460ff1690806005015490806006018054610414906119a6565b80601f0160208091040260200160405190810160405280929190818152602001828054610440906119a6565b801561048d5780601f106104625761010080835404028352916020019161048d565b820191906000526020600020905b81548152906001019060200180831161047057829003601f168201915b5050505050908060070160009054906101000a900460ff16905088565b600160009054906101000a900473ffffffffffffffffffffffffffffffffffffffff1681565b6104d8610f5f565b60046000838152602001908152602001600020604051806101200160405290816000820180548060200260200160405190810160405280929190818152602001828054801561054657602002820191906000526020600020905b815481526020019060010190808311610532575b5050505050815260200160018201548152602001600282018054610569906119a6565b80601f0160208091040260200160405190810160405280929190818152602001828054610595906119a6565b80156105e25780601f106105b7576101008083540402835291602001916105e2565b820191906000526020600020905b8154815290600101906020018083116105c557829003601f168201915b505050505081526020016003820180546105fb906119a6565b80601f0160208091040260200160405190810160405280929190818152602001828054610627906119a6565b80156106745780601f1061064957610100808354040283529160200191610674565b820191906000526020600020905b81548152906001019060200180831161065757829003601f168201915b505050505081526020016004820160009054906101000a900460ff161515151581526020016004820160019054906101000a900460ff16151515158152602001600582015481526020016006820180546106cd906119a6565b80601f01602080910402602001604051908101604052809291908181526020018280546106f9906119a6565b80156107465780601f1061071b57610100808354040283529160200191610746565b820191906000526020600020905b81548152906001019060200180831161072957829003601f168201915b505050505081526020016007820160009054906101000a900460ff1615151515815250509050919050565b60055481565b600160009054906101000a900473ffffffffffffffffffffffffffffffffffffffff1673ffffffffffffffffffffffffffffffffffffffff163373ffffffffffffffffffffffffffffffffffffffff1614610807576040517f08c379a00000000000000000000000000000000000000000000000000000000081526004016107fe90611a4a565b60405180910390fd5b80600160006101000a81548173ffffffffffffffffffffffffffffffffffffffff021916908373ffffffffffffffffffffffffffffffffffffffff16021790555050565b60065481565b600160009054906101000a900473ffffffffffffffffffffffffffffffffffffffff1673ffffffffffffffffffffffffffffffffffffffff163373ffffffffffffffffffffffffffffffffffffffff16146108e1576040517f08c379a00000000000000000000000000000000000000000000000000000000081526004016108d890611a4a565b60405180910390fd5b80600260006101000a81548173ffffffffffffffffffffffffffffffffffffffff021916908373ffffffffffffffffffffffffffffffffffffffff16021790555050565b60006109316000610f3b565b600061093d6000610f51565b90506000600260009054906101000a900473ffffffffffffffffffffffffffffffffffffffff1690508073ffffffffffffffffffffffffffffffffffffffff16630d76a882838a87896040518563ffffffff1660e01b81526004016109a59493929190611a6a565b600060405180830381600087803b1580156109bf57600080fd5b505af11580156109d3573d6000803e3d6000fd5b5050505060006040518061012001604052808d81526020014281526020018c81526020018b8152602001600015158152602001891515815260200160055481526020018881526020016001151581525090506000600360009054906101000a900473ffffffffffffffffffffffffffffffffffffffff1690508073ffffffffffffffffffffffffffffffffffffffff1663c10df2cf8b866040518363ffffffff1660e01b8152600401610a87929190611aaf565b600060405180830381600087803b158015610aa157600080fd5b505af1158015610ab5573d6000803e3d6000fd5b5050505081600460008681526020019081526020016000206000820151816000019080519060200190610ae9929190610fb1565b50602082015181600101556040820151816002019080519060200190610b10929190610ffe565b506060820151816003019080519060200190610b2d929190610ffe565b5060808201518160040160006101000a81548160ff02191690831515021790555060a08201518160040160016101000a81548160ff02191690831515021790555060c0820151816005015560e0820151816006019080519060200190610b94929190610ffe565b506101008201518160070160006101000a81548160ff0219169083151502179055509050507f0e40c7fe023d0c99af50ae99427db622223defe0991c758cf528d1b4e74c6cab8483600001518460200151856040015186606001518f88608001518960a001518a60c001518b60e00151604051610c1a9a99989796959493929190611b47565b60405180910390a18394505050505098975050505050505050565b6000610c416000610f3b565b6000610c4d6000610f51565b90506000604051806101200160405280888152602001428152602001878152602001868152602001600115158152602001600015158152602001600654815260200185815260200160011515815250905080600460008481526020019081526020016000206000820151816000019080519060200190610cce929190610fb1565b50602082015181600101556040820151816002019080519060200190610cf5929190610ffe565b506060820151816003019080519060200190610d12929190610ffe565b5060808201518160040160006101000a81548160ff02191690831515021790555060a08201518160040160016101000a81548160ff02191690831515021790555060c0820151816005015560e0820151816006019080519060200190610d79929190610ffe565b506101008201518160070160006101000a81548160ff0219169083151502179055509050507f0e40c7fe023d0c99af50ae99427db622223defe0991c758cf528d1b4e74c6cab828260000151836020015184604001518560600151600087608001518860a001518960c001518a60e00151604051610e009a99989796959493929190611c44565b60405180910390a18192505050949350505050565b600260009054906101000a900473ffffffffffffffffffffffffffffffffffffffff1681565b60075481565b600160009054906101000a900473ffffffffffffffffffffffffffffffffffffffff1673ffffffffffffffffffffffffffffffffffffffff163373ffffffffffffffffffffffffffffffffffffffff1614610ed1576040517f08c379a0000000000000000000000000000000000000000000000000000000008152600401610ec890611a4a565b60405180910390fd5b80600360006101000a81548173ffffffffffffffffffffffffffffffffffffffff021916908373ffffffffffffffffffffffffffffffffffffffff16021790555050565b600360009054906101000a900473ffffffffffffffffffffffffffffffffffffffff1681565b6001816000016000828254019250508190555050565b600081600001549050919050565b6040518061012001604052806060815260200160008152602001606081526020016060815260200160001515815260200160001515815260200160008152602001606081526020016000151581525090565b828054828255906000526020600020908101928215610fed579160200282015b82811115610fec578251825591602001919060010190610fd1565b5b509050610ffa9190611084565b5090565b82805461100a906119a6565b90600052602060002090601f01602090048101928261102c5760008555611073565b82601f1061104557805160ff1916838001178555611073565b82800160010185558215611073579182015b82811115611072578251825591602001919060010190611057565b5b5090506110809190611084565b5090565b5b8082111561109d576000816000905550600101611085565b5090565b6000604051905090565b600080fd5b600080fd5b6000819050919050565b6110c8816110b5565b81146110d357600080fd5b50565b6000813590506110e5816110bf565b92915050565b600060208284031215611101576111006110ab565b5b600061110f848285016110d6565b91505092915050565b611121816110b5565b82525050565b600081519050919050565b600082825260208201905092915050565b60005b83811015611161578082015181840152602081019050611146565b83811115611170576000848401525b50505050565b6000601f19601f8301169050919050565b600061119282611127565b61119c8185611132565b93506111ac818560208601611143565b6111b581611176565b840191505092915050565b60008115159050919050565b6111d5816111c0565b82525050565b6000610100820190506111f1600083018b611118565b8181036020830152611203818a611187565b905081810360408301526112178189611187565b905061122660608301886111cc565b61123360808301876111cc565b61124060a0830186611118565b81810360c08301526112528185611187565b905061126160e08301846111cc565b9998505050505050505050565b600073ffffffffffffffffffffffffffffffffffffffff82169050919050565b60006112998261126e565b9050919050565b6112a98161128e565b82525050565b60006020820190506112c460008301846112a0565b92915050565b600081519050919050565b600082825260208201905092915050565b6000819050602082019050919050565b6112ff816110b5565b82525050565b600061131183836112f6565b60208301905092915050565b6000602082019050919050565b6000611335826112ca565b61133f81856112d5565b935061134a836112e6565b8060005b8381101561137b5781516113628882611305565b975061136d8361131d565b92505060018101905061134e565b5085935050505092915050565b600082825260208201905092915050565b60006113a482611127565b6113ae8185611388565b93506113be818560208601611143565b6113c781611176565b840191505092915050565b6113db816111c0565b82525050565b60006101208301600083015184820360008601526113ff828261132a565b915050602083015161141460208601826112f6565b506040830151848203604086015261142c8282611399565b915050606083015184820360608601526114468282611399565b915050608083015161145b60808601826113d2565b5060a083015161146e60a08601826113d2565b5060c083015161148160c08601826112f6565b5060e083015184820360e08601526114998282611399565b9150506101008301516114b06101008601826113d2565b508091505092915050565b600060208201905081810360008301526114d581846113e1565b905092915050565b60006020820190506114f26000830184611118565b92915050565b6115018161128e565b811461150c57600080fd5b50565b60008135905061151e816114f8565b92915050565b60006020828403121561153a576115396110ab565b5b60006115488482850161150f565b91505092915050565b600080fd5b7f4e487b7100000000000000000000000000000000000000000000000000000000600052604160045260246000fd5b61158e82611176565b810181811067ffffffffffffffff821117156115ad576115ac611556565b5b80604052505050565b60006115c06110a1565b90506115cc8282611585565b919050565b600067ffffffffffffffff8211156115ec576115eb611556565b5b602082029050602081019050919050565b600080fd5b6000611615611610846115d1565b6115b6565b90508083825260208201905060208402830185811115611638576116376115fd565b5b835b81811015611661578061164d88826110d6565b84526020840193505060208101905061163a565b5050509392505050565b600082601f8301126116805761167f611551565b5b8135611690848260208601611602565b91505092915050565b600080fd5b600067ffffffffffffffff8211156116b9576116b8611556565b5b6116c282611176565b9050602081019050919050565b82818337600083830152505050565b60006116f16116ec8461169e565b6115b6565b90508281526020810184848401111561170d5761170c611699565b5b6117188482856116cf565b509392505050565b600082601f83011261173557611734611551565b5b81356117458482602086016116de565b91505092915050565b611757816111c0565b811461176257600080fd5b50565b6000813590506117748161174e565b92915050565b600080600080600080600080610100898b03121561179b5761179a6110ab565b5b600089013567ffffffffffffffff8111156117b9576117b86110b0565b5b6117c58b828c0161166b565b985050602089013567ffffffffffffffff8111156117e6576117e56110b0565b5b6117f28b828c01611720565b975050604089013567ffffffffffffffff811115611813576118126110b0565b5b61181f8b828c01611720565b96505060606118308b828c016110d6565b95505060806118418b828c01611765565b94505060a089013567ffffffffffffffff811115611862576118616110b0565b5b61186e8b828c01611720565b93505060c061187f8b828c016110d6565b92505060e06118908b828c016110d6565b9150509295985092959890939650565b600080600080608085870312156118ba576118b96110ab565b5b600085013567ffffffffffffffff8111156118d8576118d76110b0565b5b6118e48782880161166b565b945050602085013567ffffffffffffffff811115611905576119046110b0565b5b61191187828801611720565b935050604085013567ffffffffffffffff811115611932576119316110b0565b5b61193e87828801611720565b925050606085013567ffffffffffffffff81111561195f5761195e6110b0565b5b61196b87828801611720565b91505092959194509250565b7f4e487b7100000000000000000000000000000000000000000000000000000000600052602260045260246000fd5b600060028204905060018216806119be57607f821691505b602082108114156119d2576119d1611977565b5b50919050565b7f554e415554484f52495a45443a2043414e4e4f545f504552464f524d5f41435460008201527f494f4e0000000000000000000000000000000000000000000000000000000000602082015250565b6000611a34602383611132565b9150611a3f826119d8565b604082019050919050565b60006020820190508181036000830152611a6381611a27565b9050919050565b6000608082019050611a7f6000830187611118565b611a8c6020830186611118565b611a996040830185611118565b611aa66060830184611118565b95945050505050565b6000604082019050611ac46000830185611118565b611ad16020830184611118565b9392505050565b600082825260208201905092915050565b6000611af4826112ca565b611afe8185611ad8565b9350611b09836112e6565b8060005b83811015611b3a578151611b218882611305565b9750611b2c8361131d565b925050600181019050611b0d565b5085935050505092915050565b600061014082019050611b5d600083018d611118565b8181036020830152611b6f818c611ae9565b9050611b7e604083018b611118565b8181036060830152611b90818a611187565b90508181036080830152611ba48189611187565b9050611bb360a0830188611118565b611bc060c08301876111cc565b611bcd60e08301866111cc565b611bdb610100830185611118565b818103610120830152611bee8184611187565b90509b9a5050505050505050505050565b6000819050919050565b6000819050919050565b6000611c2e611c29611c2484611bff565b611c09565b6110b5565b9050919050565b611c3e81611c13565b82525050565b600061014082019050611c5a600083018d611118565b8181036020830152611c6c818c611ae9565b9050611c7b604083018b611118565b8181036060830152611c8d818a611187565b90508181036080830152611ca18189611187565b9050611cb060a0830188611c35565b611cbd60c08301876111cc565b611cca60e08301866111cc565b611cd8610100830185611118565b818103610120830152611ceb8184611187565b90509b9a505050505050505050505056fea264697066735822122024e87cf250c99a58548c0f3a4276d4517b3b7abbf872a1b230e190cb877cf71364736f6c634300080c0033",
  "immutableReferences": {},
  "source": "pragma solidity ^0.8.0;\n\nimport \"@openzeppelin/contracts/token/ERC721/ERC721.sol\";\nimport \"@openzeppelin/contracts/utils/Counters.sol\";\nimport \"@openzeppelin/contracts/access/Ownable.sol\";\nimport \"./voting/ContributionVotingContract.sol\";\nimport \"./interface/IRecords.sol\";\n\ncontract ContributionContract {\n    using Counters for Counters.Counter;\n\n    /// @dev this is Contribution Create event this event will be emitted when a new contribution is created.\n    /// @param contributionId it is the unique identifier for the contribution\n    /// @param tracks are id of the tracks that are part of this contribution, you will have to manually fetch the\n    /// tracks data from trackId once you do the indexing.\n    /// @param createdAt createdAt is indicates the time of creation of the contribution\n    /// @param previewFile this is the file that contains the mix of the contribution also known as preview file\n    /// @param previewFileHash this is the hash of the preview file to make sure the previewFile is not tampered with\n    /// @param recordId this is the id of the record to which the contribution belong to\n    /// @param seedContribution this flag determines if the contribution is a seed contribution or not\n    /// @param roughMix this flag determines if the contribution is a new contribution, with new tracks or is it just mix\n    /// of all the previous tracks\n    /// @param status this is status of the contribution that is (PENDING = 1 | ACCEPTED = 2| REJECTED = 3)\n    /// @param description the description of record that is in text format\n    event ContributionCreated(\n        uint256 contributionId,\n        uint256[] tracks,\n        uint256 createdAt,\n        string previewFile,\n        string previewFileHash,\n        uint256 recordId,\n        bool seedContribution,\n        bool roughMix,\n        uint256 status,\n        string description\n    );\n\n    /// @dev This structure will store information of the contribution\n    /// @param tracks Array of id of tracks\n    /// @param createdAt blocknumber of when the contribution was created\n    /// @param previewFile This is the preview file link\n    /// @param previewFileHash This is the preview file hash\n    // / @param recordId This is the id of the record to which contribution belongs to\n    /// @param seedContribution This flag determines if it is a seed contribution or not\n    /// @param roughMix This flag determines if it is a rough mix or not, true if rough mix or else false\n    /// @param status This specifies the status of contribution PENDING = 1 | ACCEPTED = 2| REJECTED = 3\n    /// @param description This is the description that is entered by user\n    /// @param isPresent This is to check if a contribution exists or not\n    struct Contribution {\n        uint256[] tracks;\n        uint256 createdAt;\n        string previewFile;\n        string previewFileHash;\n        bool seedContribution;\n        bool roughMix;\n        uint256 status;\n        string description;\n        bool isPresent;\n    }\n\n    Counters.Counter private _contributionIds;\n    address public OWNER;\n    address public CONTRIBUTION_VOTING_CONTRACT_ADDRESS;\n    address public RECORD_CONTRACT_ADDRESS;\n    mapping(uint256 => Contribution) public contributionData;\n    uint256 public PENDING = 1;\n    uint256 public ACCEPTED = 2;\n    uint256 public REJECTED = 3;\n\n    constructor(address owner) {\n        OWNER = owner;\n    }\n\n    /// @dev Modifier to check that the person who accesses a specific function is the owner of contract himself.\n    modifier ownerOnly() {\n        require(msg.sender == OWNER, \"UNAUTHORIZED: CANNOT_PERFORM_ACTION\");\n        _;\n    }\n\n    /// @dev This function sets the Voting Contract address\n    /// @param newVotingContractAddress this is the address of new voting contract\n    function setContributionVotingContractAddress(\n        address newVotingContractAddress\n    ) public ownerOnly {\n        CONTRIBUTION_VOTING_CONTRACT_ADDRESS = newVotingContractAddress;\n    }\n\n    /// @dev This function sets the Records contract address\n    /// @param newRecordsContractAddress this is the address of new Records contract\n    function setRecordsContractAddress(address newRecordsContractAddress)\n        public\n        ownerOnly\n    {\n        RECORD_CONTRACT_ADDRESS = newRecordsContractAddress;\n    }\n\n    /// @dev This function sets the owner address\n    /// @param ownerAddress This is the address of the owner\n    function setOwnerAddress(address ownerAddress) public ownerOnly {\n        OWNER = ownerAddress;\n    }\n\n    /// @dev This function returns contribution data\n    /// @param contributionId Id of the contribution whose data you want\n    function getContributionData(uint256 contributionId)\n        public\n        view\n        returns (Contribution memory contribution)\n    {\n        return contributionData[contributionId];\n    }\n\n    /// @dev This function will be called by the user to create a new contribution\n    /// @param tracks Id of tracks that are part of this contribution\n    /// @param previewFile this is preview file of the contribution\n    /// @param previewFileHash this is hash of the preview file\n    /// @param recordId this is the id of the record to which contribution belongs to.\n    /// @param roughMix this represents if a contribution is a roughMix or is a new contribution\n    /// @param description this is the description of the new contribution that is created.\n    /// @param communityReward this is the amount of community token that the contributor is requesting\n    /// for his work contribution.\n    /// @param governanceReward this is the amount of governance token that the contributor is requesting for his\n    /// work contribution.\n    function createNewContribution(\n        // string memory uri,\n        uint256[] memory tracks,\n        string memory previewFile,\n        string memory previewFileHash,\n        uint256 recordId,\n        bool roughMix,\n        string memory description,\n        uint256 communityReward,\n        uint256 governanceReward\n    ) public returns (uint256) {\n        _contributionIds.increment();\n\n        uint256 contributionId = _contributionIds.current();\n        // _mint(msg.sender, contributionId);\n\n        ContributionVotingContract contributionVotingContract = ContributionVotingContract(\n                CONTRIBUTION_VOTING_CONTRACT_ADDRESS\n            );\n        contributionVotingContract.createContributionVotingBallot(\n            contributionId,\n            recordId,\n            governanceReward,\n            communityReward\n        );\n\n        Contribution memory contribution = Contribution({\n            tracks: tracks,\n            createdAt: block.timestamp,\n            previewFile: previewFile,\n            previewFileHash: previewFileHash,\n            roughMix: roughMix,\n            status: PENDING,\n            description: description,\n            seedContribution: false,\n            isPresent: true\n        });\n\n        IRecords recordsContract = IRecords(RECORD_CONTRACT_ADDRESS);\n        recordsContract.pushContributionIdToContributionList(\n            recordId,\n            contributionId\n        );\n\n        contributionData[contributionId] = contribution;\n\n        emit ContributionCreated(\n            contributionId,\n            contribution.tracks,\n            contribution.createdAt,\n            contribution.previewFile,\n            contribution.previewFileHash,\n            recordId,\n            contribution.seedContribution,\n            contribution.roughMix,\n            contribution.status,\n            contribution.description\n        );\n\n        return contributionId;\n    }\n\n    /// @dev This function will be called by the user to create a new seed contribution as there will be not voting\n    /// or anything like that\n    /// @param tracks Id of tracks that are part of this contribution\n    /// @param previewFile this is preview file of the contribution\n    /// @param previewFileHash this is hash of the preview file\n    /// @param description this is the description of the new contribution that is created.\n    function createSeedContribution(\n        // string memory uri,\n        uint256[] memory tracks,\n        string memory previewFile,\n        string memory previewFileHash,\n        string memory description\n    ) public returns (uint256) {\n        _contributionIds.increment();\n\n        uint256 contributionId = _contributionIds.current();\n        // _mint(msg.sender, contributionId);\n\n        Contribution memory contribution = Contribution({\n            tracks: tracks,\n            createdAt: block.timestamp,\n            previewFile: previewFile,\n            previewFileHash: previewFileHash,\n            roughMix: false,\n            status: ACCEPTED,\n            description: description,\n            seedContribution: true,\n            isPresent: true\n        });\n\n        contributionData[contributionId] = contribution;\n\n        emit ContributionCreated(\n            contributionId,\n            contribution.tracks,\n            contribution.createdAt,\n            contribution.previewFile,\n            contribution.previewFileHash,\n            0,\n            contribution.seedContribution,\n            contribution.roughMix,\n            contribution.status,\n            contribution.description\n        );\n\n        return contributionId;\n    }\n}\n",
  "sourcePath": "/Users/a1/Desktop/Office/projects/CrowdRecords/Contracts/contracts/ContributionContract.sol",
  "compiler": {
    "name": "solc",
    "version": "0.8.12+commit.f00d7308.Emscripten.clang"
  },
  "schemaVersion": "3.4.6",
  "updatedAt": "2022-10-05T14:07:55.616Z",
  "devdoc": {
    "events": {
      "ContributionCreated(uint256,uint256[],uint256,string,string,uint256,bool,bool,uint256,string)": {
        "details": "this is Contribution Create event this event will be emitted when a new contribution is created.",
        "params": {
          "contributionId": "it is the unique identifier for the contribution",
          "createdAt": "createdAt is indicates the time of creation of the contribution",
          "description": "the description of record that is in text format",
          "previewFile": "this is the file that contains the mix of the contribution also known as preview file",
          "previewFileHash": "this is the hash of the preview file to make sure the previewFile is not tampered with",
          "recordId": "this is the id of the record to which the contribution belong to",
          "roughMix": "this flag determines if the contribution is a new contribution, with new tracks or is it just mix of all the previous tracks",
          "seedContribution": "this flag determines if the contribution is a seed contribution or not",
          "status": "this is status of the contribution that is (PENDING = 1 | ACCEPTED = 2| REJECTED = 3)",
          "tracks": "are id of the tracks that are part of this contribution, you will have to manually fetch the tracks data from trackId once you do the indexing."
        }
      }
    },
    "kind": "dev",
    "methods": {
      "createNewContribution(uint256[],string,string,uint256,bool,string,uint256,uint256)": {
        "details": "This function will be called by the user to create a new contribution",
        "params": {
          "communityReward": "this is the amount of community token that the contributor is requesting for his work contribution.",
          "description": "this is the description of the new contribution that is created.",
          "governanceReward": "this is the amount of governance token that the contributor is requesting for his work contribution.",
          "previewFile": "this is preview file of the contribution",
          "previewFileHash": "this is hash of the preview file",
          "recordId": "this is the id of the record to which contribution belongs to.",
          "roughMix": "this represents if a contribution is a roughMix or is a new contribution",
          "tracks": "Id of tracks that are part of this contribution"
        }
      },
      "createSeedContribution(uint256[],string,string,string)": {
        "details": "This function will be called by the user to create a new seed contribution as there will be not voting or anything like that",
        "params": {
          "description": "this is the description of the new contribution that is created.",
          "previewFile": "this is preview file of the contribution",
          "previewFileHash": "this is hash of the preview file",
          "tracks": "Id of tracks that are part of this contribution"
        }
      },
      "getContributionData(uint256)": {
        "details": "This function returns contribution data",
        "params": {
          "contributionId": "Id of the contribution whose data you want"
        }
      },
      "setContributionVotingContractAddress(address)": {
        "details": "This function sets the Voting Contract address",
        "params": {
          "newVotingContractAddress": "this is the address of new voting contract"
        }
      },
      "setOwnerAddress(address)": {
        "details": "This function sets the owner address",
        "params": {
          "ownerAddress": "This is the address of the owner"
        }
      },
      "setRecordsContractAddress(address)": {
        "details": "This function sets the Records contract address",
        "params": {
          "newRecordsContractAddress": "this is the address of new Records contract"
        }
      }
    },
    "version": 1
  },
  "userdoc": {
    "kind": "user",
    "methods": {},
    "version": 1
  }
}