{
  "contractName": "ControllerContract",
  "abi": [
    {
      "inputs": [
        {
          "internalType": "address",
          "name": "_tracksContract",
          "type": "address"
        },
        {
          "internalType": "address",
          "name": "_contributionsContract",
          "type": "address"
        },
        {
          "internalType": "address",
          "name": "_recordsContract",
          "type": "address"
        },
        {
          "internalType": "address",
          "name": "_treasuryCoreContract",
          "type": "address"
        }
      ],
      "stateMutability": "nonpayable",
      "type": "constructor"
    },
    {
      "anonymous": false,
      "inputs": [
        {
          "indexed": false,
          "internalType": "address",
          "name": "caller",
          "type": "address"
        },
        {
          "indexed": false,
          "internalType": "uint256[]",
          "name": "tracksId",
          "type": "uint256[]"
        },
        {
          "indexed": false,
          "internalType": "uint256",
          "name": "seedId",
          "type": "uint256"
        },
        {
          "indexed": false,
          "internalType": "uint256",
          "name": "recordId",
          "type": "uint256"
        },
        {
          "indexed": false,
          "internalType": "uint256",
          "name": "govTokenId",
          "type": "uint256"
        },
        {
          "indexed": false,
          "internalType": "uint256",
          "name": "commTokenId",
          "type": "uint256"
        }
      ],
      "name": "setupNewRecordCalled",
      "type": "event"
    },
    {
      "inputs": [],
      "name": "contributionsContract",
      "outputs": [
        {
          "internalType": "contract IContribution",
          "name": "",
          "type": "address"
        }
      ],
      "stateMutability": "view",
      "type": "function",
      "constant": true
    },
    {
      "inputs": [],
      "name": "recordsContract",
      "outputs": [
        {
          "internalType": "contract IRecords",
          "name": "",
          "type": "address"
        }
      ],
      "stateMutability": "view",
      "type": "function",
      "constant": true
    },
    {
      "inputs": [],
      "name": "tracksContract",
      "outputs": [
        {
          "internalType": "contract ITracks",
          "name": "",
          "type": "address"
        }
      ],
      "stateMutability": "view",
      "type": "function",
      "constant": true
    },
    {
      "inputs": [
        {
          "components": [
            {
              "internalType": "string",
              "name": "filehash",
              "type": "string"
            },
            {
              "internalType": "string",
              "name": "filelink",
              "type": "string"
            },
            {
              "internalType": "string",
              "name": "category",
              "type": "string"
            }
          ],
          "internalType": "struct ITracks.TrackPayload[]",
          "name": "tracksPayload",
          "type": "tuple[]"
        },
        {
          "components": [
            {
              "internalType": "uint256[]",
              "name": "tracks",
              "type": "uint256[]"
            },
            {
              "internalType": "string",
              "name": "title",
              "type": "string"
            },
            {
              "internalType": "string",
              "name": "previewFile",
              "type": "string"
            },
            {
              "internalType": "string",
              "name": "previewFileHash",
              "type": "string"
            },
            {
              "internalType": "string",
              "name": "description",
              "type": "string"
            }
          ],
          "internalType": "struct IContribution.SeedContributionPayload",
          "name": "payload",
          "type": "tuple"
        },
        {
          "components": [
            {
              "internalType": "string",
              "name": "name",
              "type": "string"
            },
            {
              "internalType": "string",
              "name": "image",
              "type": "string"
            },
            {
              "internalType": "string",
              "name": "recordCategory",
              "type": "string"
            },
            {
              "internalType": "uint256",
              "name": "seedId",
              "type": "uint256"
            }
          ],
          "internalType": "struct IRecords.NewRecordPayload",
          "name": "recordPayload",
          "type": "tuple"
        },
        {
          "components": [
            {
              "internalType": "uint256",
              "name": "recordId",
              "type": "uint256"
            },
            {
              "internalType": "uint256",
              "name": "totalSupply",
              "type": "uint256"
            },
            {
              "internalType": "uint256",
              "name": "userBalance",
              "type": "uint256"
            },
            {
              "internalType": "string",
              "name": "symbol",
              "type": "string"
            },
            {
              "internalType": "string",
              "name": "image",
              "type": "string"
            }
          ],
          "internalType": "struct ITreasuryCore.NewTokenData",
          "name": "govTokenData",
          "type": "tuple"
        },
        {
          "components": [
            {
              "internalType": "uint256",
              "name": "recordId",
              "type": "uint256"
            },
            {
              "internalType": "uint256",
              "name": "totalSupply",
              "type": "uint256"
            },
            {
              "internalType": "uint256",
              "name": "userBalance",
              "type": "uint256"
            },
            {
              "internalType": "string",
              "name": "symbol",
              "type": "string"
            },
            {
              "internalType": "string",
              "name": "image",
              "type": "string"
            }
          ],
          "internalType": "struct ITreasuryCore.NewTokenData",
          "name": "commTokenData",
          "type": "tuple"
        },
        {
          "internalType": "address payable",
          "name": "platformWallet",
          "type": "address"
        },
        {
          "internalType": "uint256",
          "name": "platformFee",
          "type": "uint256"
        }
      ],
      "name": "setupNewRecord",
      "outputs": [],
      "stateMutability": "payable",
      "type": "function",
      "payable": true
    }
  ],
  "bytecode": "0x60806040523480156200001157600080fd5b50604051620013b5380380620013b58339810160408190526200003491620000a5565b600080546001600160a01b039586166001600160a01b031991821617909155600180549486169482169490941790935560028054928516928416929092179091556003805491909316911617905562000102565b80516001600160a01b0381168114620000a057600080fd5b919050565b60008060008060808587031215620000bc57600080fd5b620000c78562000088565b9350620000d76020860162000088565b9250620000e76040860162000088565b9150620000f76060860162000088565b905092959194509250565b6112a380620001126000396000f3fe60806040526004361061003f5760003560e01c806385e8413a146100445780639558b17d14610059578063de04bbd2146100af578063fc0d561e146100dc575b600080fd5b610057610052366004610cf0565b610109565b005b34801561006557600080fd5b506000546100869073ffffffffffffffffffffffffffffffffffffffff1681565b60405173ffffffffffffffffffffffffffffffffffffffff909116815260200160405180910390f35b3480156100bb57600080fd5b506001546100869073ffffffffffffffffffffffffffffffffffffffff1681565b3480156100e857600080fd5b506002546100869073ffffffffffffffffffffffffffffffffffffffff1681565b80341015610178576040517f08c379a000000000000000000000000000000000000000000000000000000000815260206004820152601e60248201527f494e563a20494e53554646494349454e545f504c4154464f524d5f464545000060448201526064015b60405180910390fd5b34156101dd5760405173ffffffffffffffffffffffffffffffffffffffff8316908290600081818185875af1925050503d80600081146101d4576040519150601f19603f3d011682016040523d82523d6000602084013e6101d9565b606091505b5050505b60035460608401516040517f8958a5de00000000000000000000000000000000000000000000000000000000815260009273ffffffffffffffffffffffffffffffffffffffff1691638958a5de916102389190600401610e47565b602060405180830381865afa158015610255573d6000803e3d6000fd5b505050506040513d601f19601f820116820180604052508101906102799190610e61565b90508015610309576040517f08c379a000000000000000000000000000000000000000000000000000000000815260206004820152602960248201527f494e56414c49443a20434f4d4d5f544f4b454e5f53594d424f4c5f414c52454160448201527f44595f494e5f5553450000000000000000000000000000000000000000000000606482015260840161016f565b60035460608601516040517f1644e0ff00000000000000000000000000000000000000000000000000000000815273ffffffffffffffffffffffffffffffffffffffff90921691631644e0ff9161036291600401610e47565b602060405180830381865afa15801561037f573d6000803e3d6000fd5b505050506040513d601f19601f820116820180604052508101906103a39190610e61565b90508015610433576040517f08c379a000000000000000000000000000000000000000000000000000000000815260206004820152602860248201527f494e56414c49443a20474f565f544f4b454e5f53594d424f4c5f414c5245414460448201527f595f494e5f555345000000000000000000000000000000000000000000000000606482015260840161016f565b50600080546040517f24833c2000000000000000000000000000000000000000000000000000000000815273ffffffffffffffffffffffffffffffffffffffff909116906324833c209061048b908b90600401610e83565b6000604051808303816000875af11580156104aa573d6000803e3d6000fd5b505050506040513d6000823e601f3d9081017fffffffffffffffffffffffffffffffffffffffffffffffffffffffffffffffe01682016040526104f09190810190610f42565b8088526001546040517f419f782d00000000000000000000000000000000000000000000000000000000815291925060009173ffffffffffffffffffffffffffffffffffffffff9091169063419f782d90610551908b90339060040161100e565b6020604051808303816000875af1158015610570573d6000803e3d6000fd5b505050506040513d601f19601f8201168201806040525081019061059491906110e5565b606088018190526002546040517f6fe2596100000000000000000000000000000000000000000000000000000000815291925060009173ffffffffffffffffffffffffffffffffffffffff90911690636fe25961906105f9908b9033906004016110fe565b6020604051808303816000875af1158015610618573d6000803e3d6000fd5b505050506040513d601f19601f8201168201806040525081019061063c91906110e5565b8088526003546040517fe10fa0b200000000000000000000000000000000000000000000000000000000815291925060009173ffffffffffffffffffffffffffffffffffffffff9091169063e10fa0b29061069d908b9033906004016111a5565b6020604051808303816000875af11580156106bc573d6000803e3d6000fd5b505050506040513d601f19601f820116820180604052508101906106e091906110e5565b8288526003546040517fff669dfb00000000000000000000000000000000000000000000000000000000815291925060009173ffffffffffffffffffffffffffffffffffffffff9091169063ff669dfb90610741908b9033906004016111a5565b6020604051808303816000875af1158015610760573d6000803e3d6000fd5b505050506040513d601f19601f8201168201806040525081019061078491906110e5565b90507fedddf114da1e73c2e4c30f15ab51b7e376828e096ea4d0d6b9407bdcc64b2a3c3386868686866040516107bf96959493929190611219565b60405180910390a1505050505050505050505050565b7f4e487b7100000000000000000000000000000000000000000000000000000000600052604160045260246000fd5b6040516060810167ffffffffffffffff81118282101715610827576108276107d5565b60405290565b60405160a0810167ffffffffffffffff81118282101715610827576108276107d5565b604051601f82017fffffffffffffffffffffffffffffffffffffffffffffffffffffffffffffffe016810167ffffffffffffffff81118282101715610897576108976107d5565b604052919050565b600067ffffffffffffffff8211156108b9576108b96107d5565b5060051b60200190565b600082601f8301126108d457600080fd5b813567ffffffffffffffff8111156108ee576108ee6107d5565b61091f60207fffffffffffffffffffffffffffffffffffffffffffffffffffffffffffffffe0601f84011601610850565b81815284602083860101111561093457600080fd5b816020850160208301376000918101602001919091529392505050565b600082601f83011261096257600080fd5b813560206109776109728361089f565b610850565b82815260059290921b8401810191818101908684111561099657600080fd5b8286015b84811015610a7b57803567ffffffffffffffff808211156109bb5760008081fd5b81890191506060807fffffffffffffffffffffffffffffffffffffffffffffffffffffffffffffffe0848d030112156109f45760008081fd5b6109fc610804565b8784013583811115610a0e5760008081fd5b610a1c8d8a838801016108c3565b82525060408085013584811115610a335760008081fd5b610a418e8b838901016108c3565b838b015250918401359183831115610a595760008081fd5b610a678d8a858801016108c3565b90820152865250505091830191830161099a565b509695505050505050565b600082601f830112610a9757600080fd5b81356020610aa76109728361089f565b82815260059290921b84018101918181019086841115610ac657600080fd5b8286015b84811015610a7b5780358352918301918301610aca565b600060a08284031215610af357600080fd5b610afb61082d565b9050813567ffffffffffffffff80821115610b1557600080fd5b610b2185838601610a86565b83526020840135915080821115610b3757600080fd5b610b43858386016108c3565b60208401526040840135915080821115610b5c57600080fd5b610b68858386016108c3565b60408401526060840135915080821115610b8157600080fd5b610b8d858386016108c3565b60608401526080840135915080821115610ba657600080fd5b50610bb3848285016108c3565b60808301525092915050565b600060808284031215610bd157600080fd5b6040516080810167ffffffffffffffff8282108183111715610bf557610bf56107d5565b816040528293508435915080821115610c0d57600080fd5b610c19868387016108c3565b83526020850135915080821115610c2f57600080fd5b610c3b868387016108c3565b60208401526040850135915080821115610c5457600080fd5b50610c61858286016108c3565b604083015250606083013560608201525092915050565b600060a08284031215610c8a57600080fd5b610c9261082d565b9050813581526020820135602082015260408201356040820152606082013567ffffffffffffffff80821115610b8157600080fd5b803573ffffffffffffffffffffffffffffffffffffffff81168114610ceb57600080fd5b919050565b600080600080600080600060e0888a031215610d0b57600080fd5b873567ffffffffffffffff80821115610d2357600080fd5b610d2f8b838c01610951565b985060208a0135915080821115610d4557600080fd5b610d518b838c01610ae1565b975060408a0135915080821115610d6757600080fd5b610d738b838c01610bbf565b965060608a0135915080821115610d8957600080fd5b610d958b838c01610c78565b955060808a0135915080821115610dab57600080fd5b50610db88a828b01610c78565b935050610dc760a08901610cc7565b915060c0880135905092959891949750929550565b6000815180845260005b81811015610e0257602081850181015186830182015201610de6565b81811115610e14576000602083870101525b50601f017fffffffffffffffffffffffffffffffffffffffffffffffffffffffffffffffe0169290920160200192915050565b602081526000610e5a6020830184610ddc565b9392505050565b600060208284031215610e7357600080fd5b81518015158114610e5a57600080fd5b60006020808301818452808551808352604092508286019150828160051b87010184880160005b83811015610f34577fffffffffffffffffffffffffffffffffffffffffffffffffffffffffffffffc0898403018552815160608151818652610eee82870182610ddc565b915050888201518582038a870152610f068282610ddc565b91505087820151915084810388860152610f208183610ddc565b968901969450505090860190600101610eaa565b509098975050505050505050565b60006020808385031215610f5557600080fd5b825167ffffffffffffffff811115610f6c57600080fd5b8301601f81018513610f7d57600080fd5b8051610f8b6109728261089f565b81815260059190911b82018301908381019087831115610faa57600080fd5b928401925b82841015610fc857835182529284019290840190610faf565b979650505050505050565b600081518084526020808501945080840160005b8381101561100357815187529582019590820190600101610fe7565b509495945050505050565b604081526000835160a0604084015261102a60e0840182610fd3565b905060208501517fffffffffffffffffffffffffffffffffffffffffffffffffffffffffffffffc0808584030160608601526110668383610ddc565b925060408701519150808584030160808601526110838383610ddc565b925060608701519150808584030160a08601526110a08383610ddc565b925060808701519150808584030160c0860152506110be8282610ddc565b9250505073ffffffffffffffffffffffffffffffffffffffff831660208301529392505050565b6000602082840312156110f757600080fd5b5051919050565b60408152600083516080604084015261111a60c0840182610ddc565b905060208501517fffffffffffffffffffffffffffffffffffffffffffffffffffffffffffffffc0808584030160608601526111568383610ddc565b92506040870151915080858403016080860152506111748282610ddc565b6060969096015160a085015250505073ffffffffffffffffffffffffffffffffffffffff9190911660209091015290565b604081528251604082015260208301516060820152604083015160808201526000606084015160a0808401526111de60e0840182610ddc565b905060808501517fffffffffffffffffffffffffffffffffffffffffffffffffffffffffffffffc08483030160c08501526110be8282610ddc565b73ffffffffffffffffffffffffffffffffffffffff8716815260c06020820152600061124860c0830188610fd3565b90508560408301528460608301528360808301528260a083015297965050505050505056fea2646970667358221220f34e244497f95c405ae9403280e8574b8683f0e0dfe9ab299b716063966951f664736f6c634300080c0033",
  "immutableReferences": {},
  "source": "pragma solidity ^0.8.0;\n\nimport \"./interface/ITracks.sol\";\nimport \"./interface/IContribution.sol\";\nimport \"./interface/IRecords.sol\";\nimport \"./interface/ITreasuryCore.sol\";\n\ncontract ControllerContract {\n    event setupNewRecordCalled(\n        address caller,\n        uint[] tracksId,\n        uint seedId,\n        uint recordId,\n        uint govTokenId,\n        uint commTokenId\n    );\n\n    ITracks public tracksContract;\n    IContribution public contributionsContract;\n    IRecords public recordsContract;\n    ITreasuryCore private treasuryCoreContract;\n\n    constructor(\n        address _tracksContract,\n        address _contributionsContract,\n        address _recordsContract,\n        address _treasuryCoreContract\n    ) {\n        tracksContract = ITracks(_tracksContract);\n        contributionsContract = IContribution(_contributionsContract);\n        recordsContract = IRecords(_recordsContract);\n        treasuryCoreContract = ITreasuryCore(_treasuryCoreContract);\n    }\n\n    /// @notice This function is created to make the record creation flow simpler, this function takes all the required\n    /// arguments which are needed to create a new record, that includes the tracks data, contribution data, record data and tokens data\n    /// it make serial calls to the other contracts that are individually responsible for creation of tracks,\n    /// seed contribution, record and new tokens.\n    /// @param tracksPayload Data required to create tracks\n    /// @param payload Data required to create seed contributions\n    /// @param recordPayload Data required to create record\n    /// @param govTokenData Data required to create a governance token\n    /// @param commTokenData Data required to create a community token\n    function setupNewRecord(\n        ITracks.TrackPayload[] memory tracksPayload,\n        IContribution.SeedContributionPayload memory payload,\n        IRecords.NewRecordPayload memory recordPayload,\n        ITreasuryCore.NewTokenData memory govTokenData,\n        ITreasuryCore.NewTokenData memory commTokenData,\n        address payable platformWallet,\n        uint256 platformFee\n    ) public payable {\n        {\n            require(msg.value >= platformFee, \"INV: INSUFFICIENT_PLATFORM_FEE\");\n            if (msg.value > 0) {\n                platformWallet.call{value: platformFee}(\"\");\n            }\n        }\n        {\n            bool isSymbolInUse = treasuryCoreContract.commTokenSym(\n                commTokenData.symbol\n            );\n            require(\n                isSymbolInUse == false,\n                \"INVALID: COMM_TOKEN_SYMBOL_ALREADY_IN_USE\"\n            );\n\n            isSymbolInUse = treasuryCoreContract.govTokenSym(\n                govTokenData.symbol\n            );\n            require(\n                isSymbolInUse == false,\n                \"INVALID: GOV_TOKEN_SYMBOL_ALREADY_IN_USE\"\n            );\n        }\n        uint256[] memory trackIds = tracksContract.createNewTracks(\n            tracksPayload\n        );\n        payload.tracks = trackIds;\n        uint256 contributionId = contributionsContract\n            .controllerCreateSeedContribution(payload, msg.sender);\n        recordPayload.seedId = contributionId;\n        uint256 recordId = recordsContract.controllerCreateNewRecord(\n            recordPayload,\n            msg.sender\n        );\n        govTokenData.recordId = recordId;\n        uint256 govTokenId = treasuryCoreContract.createNewGovernanceToken(\n            govTokenData,\n            msg.sender\n        );\n        commTokenData.recordId = recordId;\n        uint256 commTokenId = treasuryCoreContract.createNewCommunityToken(\n            commTokenData,\n            msg.sender\n        );\n\n        {\n            emit setupNewRecordCalled(\n                msg.sender,\n                trackIds,\n                contributionId,\n                recordId,\n                govTokenId,\n                commTokenId\n            );\n        }\n    }\n}\n",
  "sourcePath": "/Users/a1/Desktop/Office/projects/CrowdRecords/Contracts/contracts/ControllerContract.sol",
  "compiler": {
    "name": "solc",
    "version": "0.8.12+commit.f00d7308.Emscripten.clang"
  },
  "schemaVersion": "3.4.6",
  "updatedAt": "2023-05-17T12:27:25.952Z",
  "networkType": "ethereum",
  "devdoc": {
    "kind": "dev",
    "methods": {
      "setupNewRecord((string,string,string)[],(uint256[],string,string,string,string),(string,string,string,uint256),(uint256,uint256,uint256,string,string),(uint256,uint256,uint256,string,string),address,uint256)": {
        "params": {
          "commTokenData": "Data required to create a community token",
          "govTokenData": "Data required to create a governance token",
          "payload": "Data required to create seed contributions",
          "recordPayload": "Data required to create record",
          "tracksPayload": "Data required to create tracks"
        }
      }
    },
    "version": 1
  },
  "userdoc": {
    "kind": "user",
    "methods": {
      "setupNewRecord((string,string,string)[],(uint256[],string,string,string,string),(string,string,string,uint256),(uint256,uint256,uint256,string,string),(uint256,uint256,uint256,string,string),address,uint256)": {
        "notice": "This function is created to make the record creation flow simpler, this function takes all the required arguments which are needed to create a new record, that includes the tracks data, contribution data, record data and tokens data it make serial calls to the other contracts that are individually responsible for creation of tracks, seed contribution, record and new tokens."
      }
    },
    "version": 1
  }
}