{
  "contractName": "ContributionVotingContract",
  "abi": [
    {
      "inputs": [
        {
          "internalType": "uint8",
          "name": "votingInterval",
          "type": "uint8"
        }
      ],
      "stateMutability": "nonpayable",
      "type": "constructor"
    },
    {
      "anonymous": false,
      "inputs": [
        {
          "indexed": false,
          "internalType": "uint256",
          "name": "contributionId",
          "type": "uint256"
        },
        {
          "indexed": false,
          "internalType": "uint256",
          "name": "ballotId",
          "type": "uint256"
        },
        {
          "indexed": false,
          "internalType": "bool",
          "name": "result",
          "type": "bool"
        }
      ],
      "name": "BallotResult",
      "type": "event"
    },
    {
      "anonymous": false,
      "inputs": [
        {
          "indexed": false,
          "internalType": "address",
          "name": "requester",
          "type": "address"
        },
        {
          "indexed": false,
          "internalType": "uint256",
          "name": "contributionId",
          "type": "uint256"
        },
        {
          "indexed": false,
          "internalType": "uint256",
          "name": "recordId",
          "type": "uint256"
        },
        {
          "indexed": false,
          "internalType": "uint256",
          "name": "communityReward",
          "type": "uint256"
        },
        {
          "indexed": false,
          "internalType": "uint256",
          "name": "communityTokenId",
          "type": "uint256"
        },
        {
          "indexed": false,
          "internalType": "uint256",
          "name": "governanceReward",
          "type": "uint256"
        },
        {
          "indexed": false,
          "internalType": "uint256",
          "name": "governanceTokenId",
          "type": "uint256"
        },
        {
          "indexed": false,
          "internalType": "uint256",
          "name": "ballotId",
          "type": "uint256"
        }
      ],
      "name": "ContributionBallotCreated",
      "type": "event"
    },
    {
      "anonymous": false,
      "inputs": [
        {
          "indexed": false,
          "internalType": "address",
          "name": "voter",
          "type": "address"
        },
        {
          "indexed": false,
          "internalType": "uint256",
          "name": "contributionId",
          "type": "uint256"
        },
        {
          "indexed": false,
          "internalType": "uint256",
          "name": "ballotId",
          "type": "uint256"
        },
        {
          "indexed": false,
          "internalType": "bool",
          "name": "vote",
          "type": "bool"
        }
      ],
      "name": "ContributionVoting",
      "type": "event"
    },
    {
      "anonymous": false,
      "inputs": [
        {
          "indexed": false,
          "internalType": "uint256",
          "name": "contributionId",
          "type": "uint256"
        },
        {
          "indexed": false,
          "internalType": "address",
          "name": "voterId",
          "type": "address"
        },
        {
          "indexed": false,
          "internalType": "uint256",
          "name": "newGovernanceReward",
          "type": "uint256"
        },
        {
          "indexed": false,
          "internalType": "uint256",
          "name": "newCommunityReward",
          "type": "uint256"
        }
      ],
      "name": "CounterOfferForContribution",
      "type": "event"
    },
    {
      "anonymous": false,
      "inputs": [
        {
          "indexed": false,
          "internalType": "address",
          "name": "contractAddress",
          "type": "address"
        },
        {
          "indexed": false,
          "internalType": "uint256",
          "name": "previousBal",
          "type": "uint256"
        },
        {
          "indexed": false,
          "internalType": "uint256",
          "name": "nextBal",
          "type": "uint256"
        }
      ],
      "name": "DEBUG2",
      "type": "event"
    },
    {
      "anonymous": false,
      "inputs": [
        {
          "indexed": false,
          "internalType": "uint256",
          "name": "contributionId",
          "type": "uint256"
        },
        {
          "indexed": false,
          "internalType": "address",
          "name": "voterId",
          "type": "address"
        },
        {
          "indexed": false,
          "internalType": "uint256",
          "name": "newGovernanceReward",
          "type": "uint256"
        },
        {
          "indexed": false,
          "internalType": "uint256",
          "name": "newCommunityReward",
          "type": "uint256"
        },
        {
          "indexed": false,
          "internalType": "uint256",
          "name": "status",
          "type": "uint256"
        }
      ],
      "name": "counterOfferAction",
      "type": "event"
    },
    {
      "inputs": [],
      "name": "CONTRIBUTION_CONTRACT_ADDRESS",
      "outputs": [
        {
          "internalType": "address",
          "name": "",
          "type": "address"
        }
      ],
      "stateMutability": "view",
      "type": "function"
    },
    {
      "inputs": [],
      "name": "TREASURY_CONTRACT_ADDRESS",
      "outputs": [
        {
          "internalType": "address",
          "name": "",
          "type": "address"
        }
      ],
      "stateMutability": "view",
      "type": "function"
    },
    {
      "inputs": [],
      "name": "TREASURY_HUB_ADDRESS",
      "outputs": [
        {
          "internalType": "address",
          "name": "",
          "type": "address"
        }
      ],
      "stateMutability": "view",
      "type": "function"
    },
    {
      "inputs": [
        {
          "internalType": "address",
          "name": "user",
          "type": "address"
        },
        {
          "internalType": "uint256",
          "name": "tokenId",
          "type": "uint256"
        },
        {
          "internalType": "uint256",
          "name": "previousBalance",
          "type": "uint256"
        },
        {
          "internalType": "uint256",
          "name": "newBalance",
          "type": "uint256"
        }
      ],
      "name": "_handleUserTokenTransfers",
      "outputs": [],
      "stateMutability": "nonpayable",
      "type": "function"
    },
    {
      "inputs": [
        {
          "internalType": "address",
          "name": "newTreasuryContractAddress",
          "type": "address"
        }
      ],
      "name": "setTreasuryContractAddress",
      "outputs": [],
      "stateMutability": "nonpayable",
      "type": "function"
    },
    {
      "inputs": [
        {
          "internalType": "address",
          "name": "newContributionContractAddress",
          "type": "address"
        }
      ],
      "name": "setContributionContractAddress",
      "outputs": [],
      "stateMutability": "nonpayable",
      "type": "function"
    },
    {
      "inputs": [
        {
          "internalType": "uint256",
          "name": "contributionId",
          "type": "uint256"
        },
        {
          "internalType": "uint256",
          "name": "recordId",
          "type": "uint256"
        },
        {
          "internalType": "uint256",
          "name": "govReward",
          "type": "uint256"
        },
        {
          "internalType": "uint256",
          "name": "commReward",
          "type": "uint256"
        }
      ],
      "name": "createContributionVotingBallot",
      "outputs": [],
      "stateMutability": "nonpayable",
      "type": "function"
    },
    {
      "inputs": [
        {
          "internalType": "uint256",
          "name": "contributionId",
          "type": "uint256"
        },
        {
          "internalType": "bool",
          "name": "vote",
          "type": "bool"
        }
      ],
      "name": "castVoteForContribution",
      "outputs": [],
      "stateMutability": "nonpayable",
      "type": "function"
    },
    {
      "inputs": [
        {
          "internalType": "uint256",
          "name": "contributionId",
          "type": "uint256"
        },
        {
          "internalType": "uint256",
          "name": "newCommunityReward",
          "type": "uint256"
        },
        {
          "internalType": "uint256",
          "name": "newGovernanceReward",
          "type": "uint256"
        }
      ],
      "name": "proposeCounterOffer",
      "outputs": [],
      "stateMutability": "nonpayable",
      "type": "function"
    },
    {
      "inputs": [
        {
          "internalType": "uint256",
          "name": "contributionId",
          "type": "uint256"
        },
        {
          "internalType": "address[]",
          "name": "counterOfferIds",
          "type": "address[]"
        },
        {
          "internalType": "bool",
          "name": "action",
          "type": "bool"
        }
      ],
      "name": "actionOnCounterOffer",
      "outputs": [],
      "stateMutability": "nonpayable",
      "type": "function"
    },
    {
      "inputs": [
        {
          "internalType": "uint256",
          "name": "contributionId",
          "type": "uint256"
        }
      ],
      "name": "declareWinner",
      "outputs": [],
      "stateMutability": "nonpayable",
      "type": "function"
    }
  ],
  "bytecode": "0x6080604052601960005560006004553480156200001b57600080fd5b50604051620039d7380380620039d78339818101604052810190620000419190620000d6565b33600360006101000a81548173ffffffffffffffffffffffffffffffffffffffff021916908373ffffffffffffffffffffffffffffffffffffffff1602179055508060ff166000819055505062000108565b600080fd5b600060ff82169050919050565b620000b08162000098565b8114620000bc57600080fd5b50565b600081519050620000d081620000a5565b92915050565b600060208284031215620000ef57620000ee62000093565b5b6000620000ff84828501620000bf565b91505092915050565b6138bf80620001186000396000f3fe608060405234801561001057600080fd5b50600436106100a85760003560e01c80634cf2d48f116100715780634cf2d48f1461013b5780638d2ae1f714610157578063abb7ed7f14610175578063acb3149314610191578063c679968a146101af578063c9d59143146101cb576100a8565b8062c2943c146100ad57806307c505b7146100c95780630d76a882146100e7578063251686ed1461010357806329c50b591461011f575b600080fd5b6100c760048036038101906100c291906128fe565b6101e7565b005b6100d161055c565b6040516100de919061296c565b60405180910390f35b61010160048036038101906100fc9190612987565b610582565b005b61011d60048036038101906101189190612a26565b610920565b005b61013960048036038101906101349190612a92565b610a01565b005b61015560048036038101906101509190612a92565b610ad5565b005b61015f610b71565b60405161016c919061296c565b60405180910390f35b61018f600480360381019061018a9190612abf565b610b97565b005b610199610dcb565b6040516101a6919061296c565b60405180910390f35b6101c960048036038101906101c49190612b26565b610df1565b005b6101e560048036038101906101e09190612cd2565b611271565b005b6000600c600083815260200190815260200160002080548060200260200160405190810160405280929190818152602001828054801561027c57602002820191906000526020600020905b8160009054906101000a900473ffffffffffffffffffffffffffffffffffffffff1673ffffffffffffffffffffffffffffffffffffffff1681526020019060010190808311610232575b5050505050905060005b81518110156103c8576001600b600085815260200190815260200160002060008484815181106102b9576102b8612d41565b5b602002602001015173ffffffffffffffffffffffffffffffffffffffff1673ffffffffffffffffffffffffffffffffffffffff1681526020019081526020016000206002015414156103b557610341600a60008581526020019081526020016000206003015483838151811061033257610331612d41565b5b602002602001015160006115ed565b6003600b6000858152602001908152602001600020600084848151811061036b5761036a612d41565b5b602002602001015173ffffffffffffffffffffffffffffffffffffffff1673ffffffffffffffffffffffffffffffffffffffff168152602001908152602001600020600201819055505b80806103c090612d9f565b915050610286565b5060006103ea600a6000858152602001908152602001600020600301546116a5565b90507fb8a8a92b56f183482e31ed93ed60da7274c03a6bc11b2c0e75cec8ff5a8058f283600a6000868152602001908152602001600020600301548360405161043593929190612e06565b60405180910390a18015610557576000600160009054906101000a900473ffffffffffffffffffffffffffffffffffffffff1690508073ffffffffffffffffffffffffffffffffffffffff16638388f413600a600087815260200190815260200160002060000160009054906101000a900473ffffffffffffffffffffffffffffffffffffffff16600a60008881526020019081526020016000206002015487600a60008a815260200190815260200160002060060154600a60008b8152602001908152602001600020600401546040518663ffffffff1660e01b8152600401610523959493929190612e3d565b600060405180830381600087803b15801561053d57600080fd5b505af1158015610551573d6000803e3d6000fd5b50505050505b505050565b600d60009054906101000a900473ffffffffffffffffffffffffffffffffffffffff1681565b600d60009054906101000a900473ffffffffffffffffffffffffffffffffffffffff1673ffffffffffffffffffffffffffffffffffffffff163373ffffffffffffffffffffffffffffffffffffffff1614610612576040517f08c379a000000000000000000000000000000000000000000000000000000000815260040161060990612f13565b60405180910390fd5b60001515600a600086815260200190815260200160002060080160009054906101000a900460ff1615151461067c576040517f08c379a000000000000000000000000000000000000000000000000000000000815260040161067390612f7f565b60405180910390fd5b6000600160009054906101000a900473ffffffffffffffffffffffffffffffffffffffff16905060008173ffffffffffffffffffffffffffffffffffffffff16632d4a0382866040518263ffffffff1660e01b81526004016106de9190612f9f565b602060405180830381865afa1580156106fb573d6000803e3d6000fd5b505050506040513d601f19601f8201168201806040525081019061071f9190612fcf565b905060008273ffffffffffffffffffffffffffffffffffffffff1663d6ca40a7876040518263ffffffff1660e01b815260040161075c9190612f9f565b602060405180830381865afa158015610779573d6000803e3d6000fd5b505050506040513d601f19601f8201168201806040525081019061079d9190612fcf565b905060006107ac600184611922565b905060006040518061012001604052803273ffffffffffffffffffffffffffffffffffffffff1681526020018a81526020018981526020018381526020018781526020018481526020018881526020018581526020016001151581525090507f841b71ba38f7c6cc93d8235b87ac4a1f87adee1f9d562d9e0421744c8b2d5d5a338a8a89878c8a89604051610848989796959493929190612ffc565b60405180910390a180600a60008b815260200190815260200160002060008201518160000160006101000a81548173ffffffffffffffffffffffffffffffffffffffff021916908373ffffffffffffffffffffffffffffffffffffffff1602179055506020820151816001015560408201518160020155606082015181600301556080820151816004015560a0820151816005015560c0820151816006015560e082015181600701556101008201518160080160006101000a81548160ff021916908315150217905550905050505050505050505050565b60011515600a600084815260200190815260200160002060080160009054906101000a900460ff1615151461098a576040517f08c379a0000000000000000000000000000000000000000000000000000000008152600401610981906130c6565b60405180910390fd5b6109aa600a60008481526020019081526020016000206003015482611abf565b7fc94df962ce83bb9f5099c0364215ad4932ed320a795c370dc62619a373a9518e3383600a600086815260200190815260200160002060030154846040516109f594939291906130e6565b60405180910390a15050565b600360009054906101000a900473ffffffffffffffffffffffffffffffffffffffff1673ffffffffffffffffffffffffffffffffffffffff163373ffffffffffffffffffffffffffffffffffffffff1614610a91576040517f08c379a0000000000000000000000000000000000000000000000000000000008152600401610a889061319d565b60405180910390fd5b80600d60006101000a81548173ffffffffffffffffffffffffffffffffffffffff021916908373ffffffffffffffffffffffffffffffffffffffff16021790555050565b600360009054906101000a900473ffffffffffffffffffffffffffffffffffffffff1673ffffffffffffffffffffffffffffffffffffffff163373ffffffffffffffffffffffffffffffffffffffff1614610b65576040517f08c379a0000000000000000000000000000000000000000000000000000000008152600401610b5c9061319d565b60405180910390fd5b610b6e81611b73565b50565b600260009054906101000a900473ffffffffffffffffffffffffffffffffffffffff1681565b7fce745f624257e308d136e6727da2d12784ad0063921f5d7c5f379685d6c63e36308383604051610bca939291906131bd565b60405180910390a16000600860008673ffffffffffffffffffffffffffffffffffffffff1673ffffffffffffffffffffffffffffffffffffffff168152602001908152602001600020905060005b8180549050811015610dc3576001151560056000848481548110610c3f57610c3e612d41565b5b9060005260206000200154815260200190815260200160002060070160009054906101000a900460ff1615151480610ca957504360056000848481548110610c8a57610c89612d41565b5b9060005260206000200154815260200190815260200160002060060154105b15610d4a578160018380549050610cc091906131f4565b81548110610cd157610cd0612d41565b5b9060005260206000200154828281548110610cef57610cee612d41565b5b906000526020600020018190555081805480610d0e57610d0d613228565b5b600190038181906000526020600020016000905590556000811415610d365760009050610d45565b8080610d4190613257565b9150505b610db0565b60056000838381548110610d6157610d60612d41565b5b9060005260206000200154815260200190815260200160002060050154851415610daf57610dae828281548110610d9b57610d9a612d41565b5b9060005260206000200154878686611c47565b5b5b8080610dbb90612d9f565b915050610c18565b505050505050565b600160009054906101000a900473ffffffffffffffffffffffffffffffffffffffff1681565b600a6000848152602001908152602001600020600301546005600082815260200190815260200160002060070160019054906101000a900460ff1615610eda57600015156006600083815260200190815260200160002060003273ffffffffffffffffffffffffffffffffffffffff1673ffffffffffffffffffffffffffffffffffffffff16815260200190815260200160002060009054906101000a900460ff16151514610ed5576040517f08c379a0000000000000000000000000000000000000000000000000000000008152600401610ecc906132cd565b60405180910390fd5b610f80565b6005600082815260200190815260200160002060000160009054906101000a900473ffffffffffffffffffffffffffffffffffffffff1673ffffffffffffffffffffffffffffffffffffffff163273ffffffffffffffffffffffffffffffffffffffff161415610f7f576040517f08c379a0000000000000000000000000000000000000000000000000000000008152600401610f7690613339565b60405180910390fd5b5b600a60008581526020019081526020016000206003015433600115156005600084815260200190815260200160002060070160029054906101000a900460ff16151514611002576040517f08c379a0000000000000000000000000000000000000000000000000000000008152600401610ff9906133a5565b60405180910390fd5b4360056000848152602001908152602001600020600601541161105a576040517f08c379a000000000000000000000000000000000000000000000000000000000815260040161105190613411565b60405180910390fd5b600015156006600084815260200190815260200160002060008373ffffffffffffffffffffffffffffffffffffffff1673ffffffffffffffffffffffffffffffffffffffff16815260200190815260200160002060009054906101000a900460ff161515146110fe576040517f08c379a00000000000000000000000000000000000000000000000000000000081526004016110f5906132cd565b60405180910390fd5b61111d600a600088815260200190815260200160002060030154611e14565b6000604051806060016040528087815260200186815260200160018152509050600c6000888152602001908152602001600020339080600181540180825580915050600190039060005260206000200160009091909190916101000a81548173ffffffffffffffffffffffffffffffffffffffff021916908373ffffffffffffffffffffffffffffffffffffffff16021790555080600b600089815260200190815260200160002060003373ffffffffffffffffffffffffffffffffffffffff1673ffffffffffffffffffffffffffffffffffffffff1681526020019081526020016000206000820151816000015560208201518160010155604082015181600201559050507f920106c0a661b88d3e90d906bbcd9e579abab6ff29031cb1cc958ddebae47fb88733836020015184600001516040516112609493929190613431565b60405180910390a150505050505050565b60005b82518110156115e7576001600b600086815260200190815260200160002060008584815181106112a7576112a6612d41565b5b602002602001015173ffffffffffffffffffffffffffffffffffffffff1673ffffffffffffffffffffffffffffffffffffffff1681526020019081526020016000206002015414156115d4578115611523576000600b6000868152602001908152602001600020600085848151811061132357611322612d41565b5b602002602001015173ffffffffffffffffffffffffffffffffffffffff1673ffffffffffffffffffffffffffffffffffffffff1681526020019081526020016000206001015490506000600b6000878152602001908152602001600020600086858151811061139557611394612d41565b5b602002602001015173ffffffffffffffffffffffffffffffffffffffff1673ffffffffffffffffffffffffffffffffffffffff16815260200190815260200160002060000154905080600a60008881526020019081526020016000206004018190555081600a6000888152602001908152602001600020600601819055506002600b6000888152602001908152602001600020600087868151811061143d5761143c612d41565b5b602002602001015173ffffffffffffffffffffffffffffffffffffffff1673ffffffffffffffffffffffffffffffffffffffff168152602001908152602001600020600201819055506114c2600a6000888152602001908152602001600020600301548685815181106114b3576114b2612d41565b5b602002602001015160016115ed565b7fd992f385523dde33af41e13ab8ac788e6a9d7bf3278f3a70d16c150ff43115e5868685815181106114f7576114f6612d41565b5b6020026020010151848460026040516115149594939291906134bb565b60405180910390a150506115d3565b61155f600a6000868152602001908152602001600020600301548483815181106115505761154f612d41565b5b602002602001015160006115ed565b6003600b6000868152602001908152602001600020600085848151811061158957611588612d41565b5b602002602001015173ffffffffffffffffffffffffffffffffffffffff1673ffffffffffffffffffffffffffffffffffffffff168152602001908152602001600020600201819055505b5b80806115df90612d9f565b915050611274565b50505050565b8282600115156009600084815260200190815260200160002060008373ffffffffffffffffffffffffffffffffffffffff1673ffffffffffffffffffffffffffffffffffffffff16815260200190815260200160002060009054906101000a900460ff16151514611693576040517f08c379a000000000000000000000000000000000000000000000000000000000815260040161168a9061355a565b60405180910390fd5b61169e858486612090565b5050505050565b6000600115156005600084815260200190815260200160002060070160029054906101000a900460ff16151514611711576040517f08c379a0000000000000000000000000000000000000000000000000000000008152600401611708906133a5565b60405180910390fd5b43600560008481526020019081526020016000206006015410611769576040517f08c379a0000000000000000000000000000000000000000000000000000000008152600401611760906135c6565b60405180910390fd5b600015156005600084815260200190815260200160002060070160009054906101000a900460ff161515146117d3576040517f08c379a00000000000000000000000000000000000000000000000000000000081526004016117ca90613632565b60405180910390fd5b60006005600084815260200190815260200160002090506000816001015490506000600160009054906101000a900473ffffffffffffffffffffffffffffffffffffffff16905060016005600087815260200190815260200160002060070160006101000a81548160ff02191690831515021790555060008211156119155760008173ffffffffffffffffffffffffffffffffffffffff1663036c22ad85600501546040518263ffffffff1660e01b81526004016118919190612f9f565b602060405180830381865afa1580156118ae573d6000803e3d6000fd5b505050506040513d601f19601f820116820180604052508101906118d29190612fcf565b9050600060646042836118e59190613652565b6118ef91906136db565b9050808411156119075760019550505050505061191d565b60009550505050505061191d565b600093505050505b919050565b60006004600081548092919061193790612d9f565b919050555060006040518061014001604052803273ffffffffffffffffffffffffffffffffffffffff1681526020016000815260200160008152602001600081526020016000815260200184815260200160005443611996919061370c565b815260200160001515815260200185151581526020016001151581525090508060056000600454815260200190815260200160002060008201518160000160006101000a81548173ffffffffffffffffffffffffffffffffffffffff021916908373ffffffffffffffffffffffffffffffffffffffff1602179055506020820151816001015560408201518160020155606082015181600301556080820151816004015560a0820151816005015560c0820151816006015560e08201518160070160006101000a81548160ff0219169083151502179055506101008201518160070160016101000a81548160ff0219169083151502179055506101208201518160070160026101000a81548160ff02191690831515021790555090505060045491505092915050565b81600015156009600083815260200190815260200160002060003373ffffffffffffffffffffffffffffffffffffffff1673ffffffffffffffffffffffffffffffffffffffff16815260200190815260200160002060009054906101000a900460ff16151514611b64576040517f08c379a0000000000000000000000000000000000000000000000000000000008152600401611b5b906137d4565b60405180910390fd5b611b6e838361220a565b505050565b600360009054906101000a900473ffffffffffffffffffffffffffffffffffffffff1673ffffffffffffffffffffffffffffffffffffffff163373ffffffffffffffffffffffffffffffffffffffff1614611c03576040517f08c379a0000000000000000000000000000000000000000000000000000000008152600401611bfa9061319d565b60405180910390fd5b80600160006101000a81548173ffffffffffffffffffffffffffffffffffffffff021916908373ffffffffffffffffffffffffffffffffffffffff16021790555050565b600115156006600086815260200190815260200160002060008573ffffffffffffffffffffffffffffffffffffffff1673ffffffffffffffffffffffffffffffffffffffff16815260200190815260200160002060009054906101000a900460ff16151514611ceb576040517f08c379a0000000000000000000000000000000000000000000000000000000008152600401611ce290613840565b60405180910390fd5b60006007600086815260200190815260200160002060008573ffffffffffffffffffffffffffffffffffffffff1673ffffffffffffffffffffffffffffffffffffffff16815260200190815260200160002060009054906101000a900460ff1690508015611db25782600560008781526020019081526020016000206001016000828254611d7991906131f4565b9250508190555081600560008781526020019081526020016000206001016000828254611da6919061370c565b92505081905550611e0d565b82600560008781526020019081526020016000206003016000828254611dd891906131f4565b9250508190555081600560008781526020019081526020016000206003016000828254611e05919061370c565b925050819055505b5050505050565b80600015156009600083815260200190815260200160002060003373ffffffffffffffffffffffffffffffffffffffff1673ffffffffffffffffffffffffffffffffffffffff16815260200190815260200160002060009054906101000a900460ff16151514611eb9576040517f08c379a0000000000000000000000000000000000000000000000000000000008152600401611eb0906137d4565b60405180910390fd5b8133600115156005600084815260200190815260200160002060070160029054906101000a900460ff16151514611f25576040517f08c379a0000000000000000000000000000000000000000000000000000000008152600401611f1c906133a5565b60405180910390fd5b43600560008481526020019081526020016000206006015411611f7d576040517f08c379a0000000000000000000000000000000000000000000000000000000008152600401611f7490613411565b60405180910390fd5b600015156006600084815260200190815260200160002060008373ffffffffffffffffffffffffffffffffffffffff1673ffffffffffffffffffffffffffffffffffffffff16815260200190815260200160002060009054906101000a900460ff16151514612021576040517f08c379a0000000000000000000000000000000000000000000000000000000008152600401612018906132cd565b60405180910390fd5b60016009600086815260200190815260200160002060003373ffffffffffffffffffffffffffffffffffffffff1673ffffffffffffffffffffffffffffffffffffffff16815260200190815260200160002060006101000a81548160ff02191690831515021790555050505050565b8281600115156005600084815260200190815260200160002060070160029054906101000a900460ff161515146120fc576040517f08c379a00000000000000000000000000000000000000000000000000000000081526004016120f3906133a5565b60405180910390fd5b43600560008481526020019081526020016000206006015411612154576040517f08c379a000000000000000000000000000000000000000000000000000000000815260040161214b90613411565b60405180910390fd5b600015156006600084815260200190815260200160002060008373ffffffffffffffffffffffffffffffffffffffff1673ffffffffffffffffffffffffffffffffffffffff16815260200190815260200160002060009054906101000a900460ff161515146121f8576040517f08c379a00000000000000000000000000000000000000000000000000000000081526004016121ef906132cd565b60405180910390fd5b6122038585856124fd565b5050505050565b8133600115156005600084815260200190815260200160002060070160029054906101000a900460ff16151514612276576040517f08c379a000000000000000000000000000000000000000000000000000000000815260040161226d906133a5565b60405180910390fd5b436005600084815260200190815260200160002060060154116122ce576040517f08c379a00000000000000000000000000000000000000000000000000000000081526004016122c590613411565b60405180910390fd5b600015156006600084815260200190815260200160002060008373ffffffffffffffffffffffffffffffffffffffff1673ffffffffffffffffffffffffffffffffffffffff16815260200190815260200160002060009054906101000a900460ff16151514612372576040517f08c379a0000000000000000000000000000000000000000000000000000000008152600401612369906132cd565b60405180910390fd5b836005600082815260200190815260200160002060070160019054906101000a900460ff161561244557600015156006600083815260200190815260200160002060003273ffffffffffffffffffffffffffffffffffffffff1673ffffffffffffffffffffffffffffffffffffffff16815260200190815260200160002060009054906101000a900460ff16151514612440576040517f08c379a0000000000000000000000000000000000000000000000000000000008152600401612437906132cd565b60405180910390fd5b6124eb565b6005600082815260200190815260200160002060000160009054906101000a900473ffffffffffffffffffffffffffffffffffffffff1673ffffffffffffffffffffffffffffffffffffffff163273ffffffffffffffffffffffffffffffffffffffff1614156124ea576040517f08c379a00000000000000000000000000000000000000000000000000000000081526004016124e190613339565b60405180910390fd5b5b6124f68585326124fd565b5050505050565b6000600160009054906101000a900473ffffffffffffffffffffffffffffffffffffffff169050600060056000868152602001908152602001600020604051806101400160405290816000820160009054906101000a900473ffffffffffffffffffffffffffffffffffffffff1673ffffffffffffffffffffffffffffffffffffffff1673ffffffffffffffffffffffffffffffffffffffff1681526020016001820154815260200160028201548152602001600382015481526020016004820154815260200160058201548152602001600682015481526020016007820160009054906101000a900460ff161515151581526020016007820160019054906101000a900460ff161515151581526020016007820160029054906101000a900460ff161515151581525050905060008273ffffffffffffffffffffffffffffffffffffffff1662fdd58e858460a001516040518363ffffffff1660e01b815260040161266a929190613860565b602060405180830381865afa158015612687573d6000803e3d6000fd5b505050506040513d601f19601f820116820180604052508101906126ab9190612fcf565b9050841561271357806005600088815260200190815260200160002060010160008282546126d9919061370c565b925050819055506001600560008881526020019081526020016000206002016000828254612707919061370c565b9250508190555061276f565b80600560008881526020019081526020016000206003016000828254612739919061370c565b925050819055506001600560008881526020019081526020016000206004016000828254612767919061370c565b925050819055505b60016006600088815260200190815260200160002060008673ffffffffffffffffffffffffffffffffffffffff1673ffffffffffffffffffffffffffffffffffffffff16815260200190815260200160002060006101000a81548160ff021916908315150217905550846007600088815260200190815260200160002060008673ffffffffffffffffffffffffffffffffffffffff1673ffffffffffffffffffffffffffffffffffffffff16815260200190815260200160002060006101000a81548160ff0219169083151502179055506000600860008673ffffffffffffffffffffffffffffffffffffffff1673ffffffffffffffffffffffffffffffffffffffff16815260200190815260200160002090508087908060018154018082558091505060019003906000526020600020016000909190919091505550505050505050565b6000604051905090565b600080fd5b600080fd5b6000819050919050565b6128db816128c8565b81146128e657600080fd5b50565b6000813590506128f8816128d2565b92915050565b600060208284031215612914576129136128be565b5b6000612922848285016128e9565b91505092915050565b600073ffffffffffffffffffffffffffffffffffffffff82169050919050565b60006129568261292b565b9050919050565b6129668161294b565b82525050565b6000602082019050612981600083018461295d565b92915050565b600080600080608085870312156129a1576129a06128be565b5b60006129af878288016128e9565b94505060206129c0878288016128e9565b93505060406129d1878288016128e9565b92505060606129e2878288016128e9565b91505092959194509250565b60008115159050919050565b612a03816129ee565b8114612a0e57600080fd5b50565b600081359050612a20816129fa565b92915050565b60008060408385031215612a3d57612a3c6128be565b5b6000612a4b858286016128e9565b9250506020612a5c85828601612a11565b9150509250929050565b612a6f8161294b565b8114612a7a57600080fd5b50565b600081359050612a8c81612a66565b92915050565b600060208284031215612aa857612aa76128be565b5b6000612ab684828501612a7d565b91505092915050565b60008060008060808587031215612ad957612ad86128be565b5b6000612ae787828801612a7d565b9450506020612af8878288016128e9565b9350506040612b09878288016128e9565b9250506060612b1a878288016128e9565b91505092959194509250565b600080600060608486031215612b3f57612b3e6128be565b5b6000612b4d868287016128e9565b9350506020612b5e868287016128e9565b9250506040612b6f868287016128e9565b9150509250925092565b600080fd5b6000601f19601f8301169050919050565b7f4e487b7100000000000000000000000000000000000000000000000000000000600052604160045260246000fd5b612bc782612b7e565b810181811067ffffffffffffffff82111715612be657612be5612b8f565b5b80604052505050565b6000612bf96128b4565b9050612c058282612bbe565b919050565b600067ffffffffffffffff821115612c2557612c24612b8f565b5b602082029050602081019050919050565b600080fd5b6000612c4e612c4984612c0a565b612bef565b90508083825260208201905060208402830185811115612c7157612c70612c36565b5b835b81811015612c9a5780612c868882612a7d565b845260208401935050602081019050612c73565b5050509392505050565b600082601f830112612cb957612cb8612b79565b5b8135612cc9848260208601612c3b565b91505092915050565b600080600060608486031215612ceb57612cea6128be565b5b6000612cf9868287016128e9565b935050602084013567ffffffffffffffff811115612d1a57612d196128c3565b5b612d2686828701612ca4565b9250506040612d3786828701612a11565b9150509250925092565b7f4e487b7100000000000000000000000000000000000000000000000000000000600052603260045260246000fd5b7f4e487b7100000000000000000000000000000000000000000000000000000000600052601160045260246000fd5b6000612daa826128c8565b91507fffffffffffffffffffffffffffffffffffffffffffffffffffffffffffffffff821415612ddd57612ddc612d70565b5b600182019050919050565b612df1816128c8565b82525050565b612e00816129ee565b82525050565b6000606082019050612e1b6000830186612de8565b612e286020830185612de8565b612e356040830184612df7565b949350505050565b600060a082019050612e52600083018861295d565b612e5f6020830187612de8565b612e6c6040830186612de8565b612e796060830185612de8565b612e866080830184612de8565b9695505050505050565b600082825260208201905092915050565b7f596f7520617265206e6f7420636f6e747269627574696f6e20636f6e7472616360008201527f7400000000000000000000000000000000000000000000000000000000000000602082015250565b6000612efd602183612e90565b9150612f0882612ea1565b604082019050919050565b60006020820190508181036000830152612f2c81612ef0565b9050919050565b7f566f74696e6720697320616c7265616479206372656174656400000000000000600082015250565b6000612f69601983612e90565b9150612f7482612f33565b602082019050919050565b60006020820190508181036000830152612f9881612f5c565b9050919050565b6000602082019050612fb46000830184612de8565b92915050565b600081519050612fc9816128d2565b92915050565b600060208284031215612fe557612fe46128be565b5b6000612ff384828501612fba565b91505092915050565b600061010082019050613012600083018b61295d565b61301f602083018a612de8565b61302c6040830189612de8565b6130396060830188612de8565b6130466080830187612de8565b61305360a0830186612de8565b61306060c0830185612de8565b61306d60e0830184612de8565b9998505050505050505050565b7f496e76616c696420636f6e747269627574696f6e206964000000000000000000600082015250565b60006130b0601783612e90565b91506130bb8261307a565b602082019050919050565b600060208201905081810360008301526130df816130a3565b9050919050565b60006080820190506130fb600083018761295d565b6131086020830186612de8565b6131156040830185612de8565b6131226060830184612df7565b95945050505050565b7f596f7520617265206e6f7420617574686f72697a656420666f7220746869732060008201527f616374696f6e0000000000000000000000000000000000000000000000000000602082015250565b6000613187602683612e90565b91506131928261312b565b604082019050919050565b600060208201905081810360008301526131b68161317a565b9050919050565b60006060820190506131d2600083018661295d565b6131df6020830185612de8565b6131ec6040830184612de8565b949350505050565b60006131ff826128c8565b915061320a836128c8565b92508282101561321d5761321c612d70565b5b828203905092915050565b7f4e487b7100000000000000000000000000000000000000000000000000000000600052603160045260246000fd5b6000613262826128c8565b9150600082141561327657613275612d70565b5b600182039050919050565b7f596f75206861766520616c726561647920766f74656400000000000000000000600082015250565b60006132b7601683612e90565b91506132c282613281565b602082019050919050565b600060208201905081810360008301526132e6816132aa565b9050919050565b7f4f776e65722063616e6e6f7420766f7465000000000000000000000000000000600082015250565b6000613323601183612e90565b915061332e826132ed565b602082019050919050565b6000602082019050818103600083015261335281613316565b9050919050565b7f4e6f2062616c6c6f74207769746820796f757220696420697320666f756e6400600082015250565b600061338f601f83612e90565b915061339a82613359565b602082019050919050565b600060208201905081810360008301526133be81613382565b9050919050565b7f566f74696e672074696d65206973206f76657200000000000000000000000000600082015250565b60006133fb601383612e90565b9150613406826133c5565b602082019050919050565b6000602082019050818103600083015261342a816133ee565b9050919050565b60006080820190506134466000830187612de8565b613453602083018661295d565b6134606040830185612de8565b61346d6060830184612de8565b95945050505050565b6000819050919050565b6000819050919050565b60006134a56134a061349b84613476565b613480565b6128c8565b9050919050565b6134b58161348a565b82525050565b600060a0820190506134d06000830188612de8565b6134dd602083018761295d565b6134ea6040830186612de8565b6134f76060830185612de8565b61350460808301846134ac565b9695505050505050565b7f436f756e746572206f6666657220646f65736e27742065786973747300000000600082015250565b6000613544601c83612e90565b915061354f8261350e565b602082019050919050565b6000602082019050818103600083015261357381613537565b9050919050565b7f566f74696e672074696d65206973206e6f74206f766572207965740000000000600082015250565b60006135b0601b83612e90565b91506135bb8261357a565b602082019050919050565b600060208201905081810360008301526135df816135a3565b9050919050565b7f526573756c7420616c7265616479206465636c61726564000000000000000000600082015250565b600061361c601783612e90565b9150613627826135e6565b602082019050919050565b6000602082019050818103600083015261364b8161360f565b9050919050565b600061365d826128c8565b9150613668836128c8565b9250817fffffffffffffffffffffffffffffffffffffffffffffffffffffffffffffffff04831182151516156136a1576136a0612d70565b5b828202905092915050565b7f4e487b7100000000000000000000000000000000000000000000000000000000600052601260045260246000fd5b60006136e6826128c8565b91506136f1836128c8565b925082613701576137006136ac565b5b828204905092915050565b6000613717826128c8565b9150613722836128c8565b9250827fffffffffffffffffffffffffffffffffffffffffffffffffffffffffffffffff0382111561375757613756612d70565b5b828201905092915050565b7f596f75206861766520616c726561647920676976656e206120636f756e74657260008201527f206f666665720000000000000000000000000000000000000000000000000000602082015250565b60006137be602683612e90565b91506137c982613762565b604082019050919050565b600060208201905081810360008301526137ed816137b1565b9050919050565b7f5573657220686173206e6f7420766f7465642079657400000000000000000000600082015250565b600061382a601683612e90565b9150613835826137f4565b602082019050919050565b600060208201905081810360008301526138598161381d565b9050919050565b6000604082019050613875600083018561295d565b6138826020830184612de8565b939250505056fea26469706673582212201a5988462d5411b6728fc95318abbd428e0221a4a1e7acaaf95e29b0552bb26b64736f6c634300080c0033",
  "immutableReferences": {},
  "source": "// SPDX-License-Identifier: MIT\npragma solidity ^0.8.0;\n\nimport \"./BaseVotingCounterOfferContract.sol\";\nimport \"../TreasuryContract.sol\";\n\ncontract ContributionVotingContract is BaseVotingCounterOfferContract {\n    //This is the struct that contains the reward data of the contribution\n    struct ContributionReward {\n        address requester;\n        uint256 contributionId;\n        uint256 recordId;\n        uint256 ballotId;\n        uint256 communityReward;\n        uint256 communityTokenId;\n        uint256 governanceReward;\n        uint256 governanceTokenId;\n        bool isPresent;\n    }\n\n    //CounterOffer also known as negotitaion\n    struct CounterOffer {\n        uint256 newCommunityReward;\n        uint256 newGovernanceReward;\n        uint256 status; //either ACCEPTED = 2 | PENDING = 1 | REJECTED = 3\n    }\n\n    event ContributionBallotCreated(\n        address requester,\n        uint256 contributionId,\n        uint256 recordId,\n        uint256 communityReward,\n        uint256 communityTokenId,\n        uint256 governanceReward,\n        uint256 governanceTokenId,\n        uint256 ballotId\n    );\n\n    /**\n        @dev This is when a vote is given by user.\n        @param voter Address of the voter\n        @param contributionId This is the id of the contribution that is linked to this ballot \n        @param ballotId Id of the ballot where voting is stored\n        @param vote State of vote : true for yes and false for No\n     */\n    event ContributionVoting(\n        address voter,\n        uint256 contributionId,\n        uint256 ballotId,\n        bool vote\n    );\n\n    /**\n        @dev this is event which is created when a user proposes counter offer\n        @param contributionId This is the id of the contribution that is linked to this ballot \n        @param voterId This is the id of the voter who's vote it is\n        @param newGovernanceReward This is the new reward amount counter offered by the voter\n        @param newCommunityReward This is the new reward amount counter offered by the voter\n     */\n    event CounterOfferForContribution(\n        uint256 contributionId,\n        address voterId,\n        uint256 newGovernanceReward,\n        uint256 newCommunityReward\n    );\n\n    /**\n        @dev this is event which is created when the owner of the ballot takes action on a specific counter offer\n        @param contributionId This is the id of the contribution that is linked to this ballot \n        @param voterId This is the id of the voter who's vote it is\n        @param newGovernanceReward This is the new reward amount counter offered by the voter\n        @param newCommunityReward This is the new reward amount counter offered by the voter\n        @param status This is the status of the counter offer that is => either ACCEPTED = 2 | REJECTED = 3\n     */\n    event counterOfferAction(\n        uint256 contributionId,\n        address voterId,\n        uint256 newGovernanceReward,\n        uint256 newCommunityReward,\n        uint256 status\n    ); // status will be => either ACCEPTED = 2 | REJECTED = 3\n\n    /**\n        @dev this event is genrated when result of a ballot is declared\n        @param contributionId This is the id of the contribution that is linked to this ballot \n        @param ballotId this is the ballot Id for which result is declared \n        @param result this is the status of the result //either true if user won that is he recived more than 66% of votes or false if user lost \n     */\n    event BallotResult(uint256 contributionId, uint256 ballotId, bool result);\n\n    mapping(uint256 => ContributionReward) rewardMapping;\n    //Bellow mapping is ContributionId => User's address => Counter Offer data\n    mapping(uint256 => mapping(address => CounterOffer)) contributionCounterOfferMap;\n    //This contains all the keys (The key's are users address) of the mapping of the counterOfferMapping.\n    mapping(uint256 => address[]) contributionCounterOfferList;\n    address public CONTRIBUTION_CONTRACT_ADDRESS;\n\n    constructor(uint8 votingInterval) BaseVotingContract() {\n        VOTING_BLOCK_PERIOD = votingInterval;\n    }\n\n    modifier _onlyContributionContract() {\n        require(\n            msg.sender == CONTRIBUTION_CONTRACT_ADDRESS,\n            \"You are not contribution contract\"\n        );\n        _;\n    }\n\n    /**\n     * @dev This function sets the treasury Contract address\n     */\n    function setTreasuryContractAddress(address newTreasuryContractAddress)\n        external\n        _ownerOnly\n    {\n        _setTreasuryContractAddress(newTreasuryContractAddress);\n    }\n\n    /**\n     * @dev Sets the contribution contract address so that the voting ballot for contritbution can be restricted only to a certain contract that is the contribution contract\n     */\n    function setContributionContractAddress(\n        address newContributionContractAddress\n    ) public _ownerOnly {\n        CONTRIBUTION_CONTRACT_ADDRESS = newContributionContractAddress;\n    }\n\n    /**\n     * @dev This function will create a new contribution voting ballot\n     */\n    function createContributionVotingBallot(\n        uint256 contributionId,\n        uint256 recordId,\n        uint256 govReward,\n        uint256 commReward\n    ) public _onlyContributionContract {\n        require(\n            rewardMapping[contributionId].isPresent == false,\n            \"Voting is already created\"\n        );\n\n        TreasuryContract treasuryContract = TreasuryContract(\n            TREASURY_CONTRACT_ADDRESS\n        );\n\n        uint256 govTokenId = treasuryContract.getCommunityTokenId(recordId);\n        uint256 commTokenId = treasuryContract.getGovernanceTokenId(recordId);\n\n        uint256 ballotId = _createVoting(true, govTokenId);\n\n        ContributionReward memory contributionReward = ContributionReward({\n            requester: tx.origin,\n            contributionId: contributionId,\n            recordId: recordId,\n            ballotId: ballotId,\n            communityReward: commReward,\n            communityTokenId: commTokenId,\n            governanceReward: govReward,\n            governanceTokenId: govTokenId,\n            isPresent: true\n        });\n\n        emit ContributionBallotCreated({\n            requester: msg.sender,\n            contributionId: contributionId,\n            recordId: recordId,\n            communityReward: commReward,\n            communityTokenId: commTokenId,\n            governanceReward: govReward,\n            governanceTokenId: govTokenId,\n            ballotId: ballotId\n        });\n\n        rewardMapping[contributionId] = contributionReward;\n    }\n\n    /**\n     * @dev This function is called by any user to cast vote\n     * @param contributionId this is the id of the contribution for which user is voting\n     * @param vote this is the state of the vote, if true than it means the vote is in favour of the ballot\n     */\n    function castVoteForContribution(uint256 contributionId, bool vote) public {\n        require(\n            rewardMapping[contributionId].isPresent == true,\n            \"Invalid contribution id\"\n        );\n        super._castVote(rewardMapping[contributionId].ballotId, vote);\n\n        emit ContributionVoting({\n            contributionId: contributionId,\n            ballotId: rewardMapping[contributionId].ballotId,\n            voter: msg.sender,\n            vote: vote\n        });\n    }\n\n    /**\n     * @dev This function is called by any user to cast vote\n     * @param contributionId this is the id of the contribution for which user is creating a counter offer\n     * @param newCommunityReward new comunity token amount as reward for the negotition\n     * @param newGovernanceReward new governance token amount as reward for the negotition\n     */\n    function proposeCounterOffer(\n        uint256 contributionId,\n        uint256 newCommunityReward,\n        uint256 newGovernanceReward\n    )\n        public\n        _checkIfOwnerAllowed(rewardMapping[contributionId].ballotId)\n        _checkIfBallotIsOpen(rewardMapping[contributionId].ballotId, msg.sender)\n    {\n        _createCounterOffer(rewardMapping[contributionId].ballotId);\n\n        //Create counter offer object and push it into array\n        CounterOffer memory offer = CounterOffer({\n            newCommunityReward: newCommunityReward,\n            newGovernanceReward: newGovernanceReward,\n            status: 1\n        });\n\n        contributionCounterOfferList[contributionId].push(msg.sender);\n        contributionCounterOfferMap[contributionId][msg.sender] = offer;\n\n        emit CounterOfferForContribution(\n            contributionId,\n            msg.sender,\n            offer.newGovernanceReward,\n            offer.newCommunityReward\n        );\n    }\n\n    /**\n     * @dev This function is called by owner of the contribution to either accept or reject a counter offer\n     * @param contributionId this is the id of the contribution to which the counter offer belogs to\n     * @param counterOfferIds The id of counter offers in array to accept or reject multiple counter offers at once\n     * @param action this is the state of the vote, if true than it means that user accepts the counter offfer\n     */\n    function actionOnCounterOffer(\n        uint256 contributionId,\n        address[] memory counterOfferIds,\n        bool action\n    ) public {\n        //only vote once check\n        for (uint256 i = 0; i < counterOfferIds.length; i++) {\n            if (\n                contributionCounterOfferMap[contributionId][counterOfferIds[i]]\n                    .status == 1\n            ) {\n                if (action) {\n                    uint256 newGovernanceReward = contributionCounterOfferMap[\n                        contributionId\n                    ][counterOfferIds[i]].newGovernanceReward;\n                    uint256 newCommunityReward = contributionCounterOfferMap[\n                        contributionId\n                    ][counterOfferIds[i]].newCommunityReward;\n\n                    //Set new reward for the contribution\n                    rewardMapping[contributionId]\n                        .communityReward = newCommunityReward;\n                    rewardMapping[contributionId]\n                        .governanceReward = newGovernanceReward;\n\n                    contributionCounterOfferMap[contributionId][\n                        counterOfferIds[i]\n                    ].status = 2;\n\n                    super._counterOfferAction(\n                        rewardMapping[contributionId].ballotId,\n                        counterOfferIds[i],\n                        true\n                    );\n                    emit counterOfferAction(\n                        contributionId,\n                        counterOfferIds[i],\n                        newGovernanceReward,\n                        newCommunityReward,\n                        2\n                    );\n                } else {\n                    super._counterOfferAction(\n                        rewardMapping[contributionId].ballotId,\n                        counterOfferIds[i],\n                        false\n                    );\n                    //The counter offer ids are the addresses of the user who proposed the offer\n                    contributionCounterOfferMap[contributionId][\n                        counterOfferIds[i]\n                    ].status = 3;\n                }\n            }\n        }\n    }\n\n    /**\n     * @dev This function can be called from external source and also from within the contract\n     * @param contributionId this is the id of the contribution to which the winner is to be decleared\n     */\n    function declareWinner(uint256 contributionId) external {\n        address[] memory counterOfferList = contributionCounterOfferList[\n            contributionId\n        ];\n\n        //! we should remove the below for loop as we don't need loop through all the offers\n        //! as we are only calculating the votes that are accepted and rest are considered as false\n        for (uint256 i = 0; i < counterOfferList.length; i++) {\n            if (\n                contributionCounterOfferMap[contributionId][counterOfferList[i]]\n                    .status == 1\n            ) {\n                super._counterOfferAction(\n                    rewardMapping[contributionId].ballotId,\n                    counterOfferList[i],\n                    false\n                );\n                //The counter offer ids are the addresses of the user who proposed the offer\n                contributionCounterOfferMap[contributionId][counterOfferList[i]]\n                    .status = 3;\n            }\n        }\n        bool result = _declareWinner(rewardMapping[contributionId].ballotId);\n\n        emit BallotResult(\n            contributionId,\n            rewardMapping[contributionId].ballotId,\n            result\n        );\n\n        if (result) {\n            //Transfer the reward amount to user\n            TreasuryContract treasuryContract = TreasuryContract(\n                TREASURY_CONTRACT_ADDRESS\n            );\n            treasuryContract.transferRewardAmount(\n                rewardMapping[contributionId].requester,\n                rewardMapping[contributionId].recordId,\n                contributionId,\n                rewardMapping[contributionId].governanceReward,\n                rewardMapping[contributionId].communityReward\n            );\n        }\n    }\n}\n",
  "sourcePath": "/Users/a1/Desktop/Office/projects/CrowdRecords/Contracts/contracts/voting/ContributionVotingContract.sol",
  "compiler": {
    "name": "solc",
    "version": "0.8.12+commit.f00d7308.Emscripten.clang"
  },
  "schemaVersion": "3.4.6",
  "updatedAt": "2022-08-08T09:15:00.075Z",
  "devdoc": {
    "events": {
      "BallotResult(uint256,uint256,bool)": {
        "details": "this event is genrated when result of a ballot is declared",
        "params": {
          "ballotId": "this is the ballot Id for which result is declared ",
          "contributionId": "This is the id of the contribution that is linked to this ballot ",
          "result": "this is the status of the result //either true if user won that is he recived more than 66% of votes or false if user lost "
        }
      },
      "ContributionVoting(address,uint256,uint256,bool)": {
        "details": "This is when a vote is given by user.",
        "params": {
          "ballotId": "Id of the ballot where voting is stored",
          "contributionId": "This is the id of the contribution that is linked to this ballot ",
          "vote": "State of vote : true for yes and false for No",
          "voter": "Address of the voter"
        }
      },
      "CounterOfferForContribution(uint256,address,uint256,uint256)": {
        "details": "this is event which is created when a user proposes counter offer",
        "params": {
          "contributionId": "This is the id of the contribution that is linked to this ballot ",
          "newCommunityReward": "This is the new reward amount counter offered by the voter",
          "newGovernanceReward": "This is the new reward amount counter offered by the voter",
          "voterId": "This is the id of the voter who's vote it is"
        }
      },
      "counterOfferAction(uint256,address,uint256,uint256,uint256)": {
        "details": "this is event which is created when the owner of the ballot takes action on a specific counter offer",
        "params": {
          "contributionId": "This is the id of the contribution that is linked to this ballot ",
          "newCommunityReward": "This is the new reward amount counter offered by the voter",
          "newGovernanceReward": "This is the new reward amount counter offered by the voter",
          "status": "This is the status of the counter offer that is => either ACCEPTED = 2 | REJECTED = 3",
          "voterId": "This is the id of the voter who's vote it is"
        }
      }
    },
    "kind": "dev",
    "methods": {
      "_handleUserTokenTransfers(address,uint256,uint256,uint256)": {
        "details": "This function will be called when either user is transferring the tokens to other account, or is receiving tokens from other tokens.",
        "params": {
          "newBalance": "this is the new balance of the user that is after the transfer",
          "previousBalance": "this is the old balance of the user",
          "user": "address of the user whose balance is being changed"
        }
      },
      "actionOnCounterOffer(uint256,address[],bool)": {
        "details": "This function is called by owner of the contribution to either accept or reject a counter offer",
        "params": {
          "action": "this is the state of the vote, if true than it means that user accepts the counter offfer",
          "contributionId": "this is the id of the contribution to which the counter offer belogs to",
          "counterOfferIds": "The id of counter offers in array to accept or reject multiple counter offers at once"
        }
      },
      "castVoteForContribution(uint256,bool)": {
        "details": "This function is called by any user to cast vote",
        "params": {
          "contributionId": "this is the id of the contribution for which user is voting",
          "vote": "this is the state of the vote, if true than it means the vote is in favour of the ballot"
        }
      },
      "createContributionVotingBallot(uint256,uint256,uint256,uint256)": {
        "details": "This function will create a new contribution voting ballot"
      },
      "declareWinner(uint256)": {
        "details": "This function can be called from external source and also from within the contract",
        "params": {
          "contributionId": "this is the id of the contribution to which the winner is to be decleared"
        }
      },
      "proposeCounterOffer(uint256,uint256,uint256)": {
        "details": "This function is called by any user to cast vote",
        "params": {
          "contributionId": "this is the id of the contribution for which user is creating a counter offer",
          "newCommunityReward": "new comunity token amount as reward for the negotition",
          "newGovernanceReward": "new governance token amount as reward for the negotition"
        }
      },
      "setContributionContractAddress(address)": {
        "details": "Sets the contribution contract address so that the voting ballot for contritbution can be restricted only to a certain contract that is the contribution contract"
      },
      "setTreasuryContractAddress(address)": {
        "details": "This function sets the treasury Contract address"
      }
    },
    "version": 1
  },
  "userdoc": {
    "kind": "user",
    "methods": {},
    "version": 1
  }
}