{
  "contractName": "ContributionContract",
  "abi": [
    {
      "inputs": [
        {
          "internalType": "address",
          "name": "owner",
          "type": "address"
        }
      ],
      "stateMutability": "nonpayable",
      "type": "constructor"
    },
    {
      "anonymous": false,
      "inputs": [
        {
          "indexed": false,
          "internalType": "uint256",
          "name": "contributionId",
          "type": "uint256"
        },
        {
          "indexed": false,
          "internalType": "uint256[]",
          "name": "tracks",
          "type": "uint256[]"
        },
        {
          "indexed": false,
          "internalType": "uint256",
          "name": "createdAt",
          "type": "uint256"
        },
        {
          "indexed": false,
          "internalType": "string",
          "name": "previewFile",
          "type": "string"
        },
        {
          "indexed": false,
          "internalType": "string",
          "name": "previewFileHash",
          "type": "string"
        },
        {
          "indexed": false,
          "internalType": "uint256",
          "name": "recordId",
          "type": "uint256"
        },
        {
          "indexed": false,
          "internalType": "bool",
          "name": "seedContribution",
          "type": "bool"
        },
        {
          "indexed": false,
          "internalType": "bool",
          "name": "roughMix",
          "type": "bool"
        },
        {
          "indexed": false,
          "internalType": "uint256",
          "name": "status",
          "type": "uint256"
        },
        {
          "indexed": false,
          "internalType": "string",
          "name": "description",
          "type": "string"
        }
      ],
      "name": "ContributionCreated",
      "type": "event"
    },
    {
      "anonymous": false,
      "inputs": [
        {
          "indexed": false,
          "internalType": "uint8",
          "name": "version",
          "type": "uint8"
        }
      ],
      "name": "Initialized",
      "type": "event"
    },
    {
      "inputs": [],
      "name": "ACCEPTED",
      "outputs": [
        {
          "internalType": "uint256",
          "name": "",
          "type": "uint256"
        }
      ],
      "stateMutability": "view",
      "type": "function"
    },
    {
      "inputs": [],
      "name": "CONTRIBUTION_VOTING_CONTRACT_ADDRESS",
      "outputs": [
        {
          "internalType": "address",
          "name": "",
          "type": "address"
        }
      ],
      "stateMutability": "view",
      "type": "function"
    },
    {
      "inputs": [],
      "name": "OWNER",
      "outputs": [
        {
          "internalType": "address",
          "name": "",
          "type": "address"
        }
      ],
      "stateMutability": "view",
      "type": "function"
    },
    {
      "inputs": [],
      "name": "PENDING",
      "outputs": [
        {
          "internalType": "uint256",
          "name": "",
          "type": "uint256"
        }
      ],
      "stateMutability": "view",
      "type": "function"
    },
    {
      "inputs": [],
      "name": "RECORD_CONTRACT_ADDRESS",
      "outputs": [
        {
          "internalType": "address",
          "name": "",
          "type": "address"
        }
      ],
      "stateMutability": "view",
      "type": "function"
    },
    {
      "inputs": [],
      "name": "REJECTED",
      "outputs": [
        {
          "internalType": "uint256",
          "name": "",
          "type": "uint256"
        }
      ],
      "stateMutability": "view",
      "type": "function"
    },
    {
      "inputs": [
        {
          "internalType": "uint256",
          "name": "",
          "type": "uint256"
        }
      ],
      "name": "contributionData",
      "outputs": [
        {
          "internalType": "uint256",
          "name": "createdAt",
          "type": "uint256"
        },
        {
          "internalType": "string",
          "name": "previewFile",
          "type": "string"
        },
        {
          "internalType": "string",
          "name": "previewFileHash",
          "type": "string"
        },
        {
          "internalType": "bool",
          "name": "seedContribution",
          "type": "bool"
        },
        {
          "internalType": "bool",
          "name": "roughMix",
          "type": "bool"
        },
        {
          "internalType": "uint256",
          "name": "status",
          "type": "uint256"
        },
        {
          "internalType": "string",
          "name": "description",
          "type": "string"
        },
        {
          "internalType": "bool",
          "name": "isPresent",
          "type": "bool"
        }
      ],
      "stateMutability": "view",
      "type": "function"
    },
    {
      "inputs": [
        {
          "internalType": "address",
          "name": "newVotingContractAddress",
          "type": "address"
        },
        {
          "internalType": "address",
          "name": "newRecordsContractAddress",
          "type": "address"
        }
      ],
      "name": "initialize",
      "outputs": [],
      "stateMutability": "nonpayable",
      "type": "function"
    },
    {
      "inputs": [
        {
          "internalType": "address",
          "name": "ownerAddress",
          "type": "address"
        }
      ],
      "name": "setOwnerAddress",
      "outputs": [],
      "stateMutability": "nonpayable",
      "type": "function"
    },
    {
      "inputs": [
        {
          "internalType": "uint256",
          "name": "contributionId",
          "type": "uint256"
        }
      ],
      "name": "getContributionData",
      "outputs": [
        {
          "components": [
            {
              "internalType": "uint256[]",
              "name": "tracks",
              "type": "uint256[]"
            },
            {
              "internalType": "uint256",
              "name": "createdAt",
              "type": "uint256"
            },
            {
              "internalType": "string",
              "name": "previewFile",
              "type": "string"
            },
            {
              "internalType": "string",
              "name": "previewFileHash",
              "type": "string"
            },
            {
              "internalType": "bool",
              "name": "seedContribution",
              "type": "bool"
            },
            {
              "internalType": "bool",
              "name": "roughMix",
              "type": "bool"
            },
            {
              "internalType": "uint256",
              "name": "status",
              "type": "uint256"
            },
            {
              "internalType": "string",
              "name": "description",
              "type": "string"
            },
            {
              "internalType": "bool",
              "name": "isPresent",
              "type": "bool"
            }
          ],
          "internalType": "struct ContributionContract.Contribution",
          "name": "contribution",
          "type": "tuple"
        }
      ],
      "stateMutability": "view",
      "type": "function"
    },
    {
      "inputs": [
        {
          "internalType": "uint256[]",
          "name": "tracks",
          "type": "uint256[]"
        },
        {
          "internalType": "string",
          "name": "previewFile",
          "type": "string"
        },
        {
          "internalType": "string",
          "name": "previewFileHash",
          "type": "string"
        },
        {
          "internalType": "uint256",
          "name": "recordId",
          "type": "uint256"
        },
        {
          "internalType": "bool",
          "name": "roughMix",
          "type": "bool"
        },
        {
          "internalType": "string",
          "name": "description",
          "type": "string"
        },
        {
          "internalType": "uint256",
          "name": "communityReward",
          "type": "uint256"
        },
        {
          "internalType": "uint256",
          "name": "governanceReward",
          "type": "uint256"
        }
      ],
      "name": "createNewContribution",
      "outputs": [
        {
          "internalType": "uint256",
          "name": "",
          "type": "uint256"
        }
      ],
      "stateMutability": "nonpayable",
      "type": "function"
    },
    {
      "inputs": [
        {
          "internalType": "uint256[]",
          "name": "tracks",
          "type": "uint256[]"
        },
        {
          "internalType": "string",
          "name": "previewFile",
          "type": "string"
        },
        {
          "internalType": "string",
          "name": "previewFileHash",
          "type": "string"
        },
        {
          "internalType": "string",
          "name": "description",
          "type": "string"
        }
      ],
      "name": "createSeedContribution",
      "outputs": [
        {
          "internalType": "uint256",
          "name": "",
          "type": "uint256"
        }
      ],
      "stateMutability": "nonpayable",
      "type": "function"
    }
  ],
  "bytecode": "0x60806040526001600655600260075560036008553480156200002057600080fd5b506040516200202f3803806200202f8339818101604052810190620000469190620000f8565b80600260006101000a81548173ffffffffffffffffffffffffffffffffffffffff021916908373ffffffffffffffffffffffffffffffffffffffff160217905550506200012a565b600080fd5b600073ffffffffffffffffffffffffffffffffffffffff82169050919050565b6000620000c08262000093565b9050919050565b620000d281620000b3565b8114620000de57600080fd5b50565b600081519050620000f281620000c7565b92915050565b6000602082840312156200011157620001106200008e565b5b60006200012184828501620000e1565b91505092915050565b611ef5806200013a6000396000f3fe608060405234801561001057600080fd5b50600436106100b45760003560e01c8063485cc95511610071578063485cc9551461019657806365585fde146101b25780637ddba787146101e2578063af67076914610212578063cb7390b714610230578063f0fda3861461024e576100b4565b80630ade4dbd146100b9578063117803e3146100f057806323374b9d1461010e5780632609e5f41461013e578063331a6bf51461015c5780634324efd714610178575b600080fd5b6100d360048036038101906100ce9190611179565b61026c565b6040516100e7989796959493929190611269565b60405180910390f35b6100f8610473565b604051610105919061133d565b60405180910390f35b61012860048036038101906101239190611179565b610499565b6040516101359190611549565b60405180910390f35b61014661073a565b604051610153919061156b565b60405180910390f35b610176600480360381019061017191906115b2565b610740565b005b610180610814565b60405161018d919061156b565b60405180910390f35b6101b060048036038101906101ab91906115df565b61081a565b005b6101cc60048036038101906101c79190611848565b610a64565b6040516101d9919061156b565b60405180910390f35b6101fc60048036038101906101f7919061196e565b610d74565b604051610209919061156b565b60405180910390f35b61021a610f54565b604051610227919061133d565b60405180910390f35b610238610f7a565b604051610245919061156b565b60405180910390f35b610256610f80565b604051610263919061133d565b60405180910390f35b600560205280600052604060002060009150905080600101549080600201805461029590611a74565b80601f01602080910402602001604051908101604052809291908181526020018280546102c190611a74565b801561030e5780601f106102e35761010080835404028352916020019161030e565b820191906000526020600020905b8154815290600101906020018083116102f157829003601f168201915b50505050509080600301805461032390611a74565b80601f016020809104026020016040519081016040528092919081815260200182805461034f90611a74565b801561039c5780601f106103715761010080835404028352916020019161039c565b820191906000526020600020905b81548152906001019060200180831161037f57829003601f168201915b5050505050908060040160009054906101000a900460ff16908060040160019054906101000a900460ff16908060050154908060060180546103dd90611a74565b80601f016020809104026020016040519081016040528092919081815260200182805461040990611a74565b80156104565780601f1061042b57610100808354040283529160200191610456565b820191906000526020600020905b81548152906001019060200180831161043957829003601f168201915b5050505050908060070160009054906101000a900460ff16905088565b600260009054906101000a900473ffffffffffffffffffffffffffffffffffffffff1681565b6104a1610fed565b60056000838152602001908152602001600020604051806101200160405290816000820180548060200260200160405190810160405280929190818152602001828054801561050f57602002820191906000526020600020905b8154815260200190600101908083116104fb575b505050505081526020016001820154815260200160028201805461053290611a74565b80601f016020809104026020016040519081016040528092919081815260200182805461055e90611a74565b80156105ab5780601f10610580576101008083540402835291602001916105ab565b820191906000526020600020905b81548152906001019060200180831161058e57829003601f168201915b505050505081526020016003820180546105c490611a74565b80601f01602080910402602001604051908101604052809291908181526020018280546105f090611a74565b801561063d5780601f106106125761010080835404028352916020019161063d565b820191906000526020600020905b81548152906001019060200180831161062057829003601f168201915b505050505081526020016004820160009054906101000a900460ff161515151581526020016004820160019054906101000a900460ff161515151581526020016005820154815260200160068201805461069690611a74565b80601f01602080910402602001604051908101604052809291908181526020018280546106c290611a74565b801561070f5780601f106106e45761010080835404028352916020019161070f565b820191906000526020600020905b8154815290600101906020018083116106f257829003601f168201915b505050505081526020016007820160009054906101000a900460ff1615151515815250509050919050565b60065481565b600260009054906101000a900473ffffffffffffffffffffffffffffffffffffffff1673ffffffffffffffffffffffffffffffffffffffff163373ffffffffffffffffffffffffffffffffffffffff16146107d0576040517f08c379a00000000000000000000000000000000000000000000000000000000081526004016107c790611b18565b60405180910390fd5b80600260006101000a81548173ffffffffffffffffffffffffffffffffffffffff021916908373ffffffffffffffffffffffffffffffffffffffff16021790555050565b60075481565b60008060019054906101000a900460ff1615905080801561084b5750600160008054906101000a900460ff1660ff16105b80610878575061085a30610fa6565b1580156108775750600160008054906101000a900460ff1660ff16145b5b6108b7576040517f08c379a00000000000000000000000000000000000000000000000000000000081526004016108ae90611baa565b60405180910390fd5b60016000806101000a81548160ff021916908360ff16021790555080156108f4576001600060016101000a81548160ff0219169083151502179055505b600260009054906101000a900473ffffffffffffffffffffffffffffffffffffffff1673ffffffffffffffffffffffffffffffffffffffff163373ffffffffffffffffffffffffffffffffffffffff1614610984576040517f08c379a000000000000000000000000000000000000000000000000000000000815260040161097b90611b18565b60405180910390fd5b82600360006101000a81548173ffffffffffffffffffffffffffffffffffffffff021916908373ffffffffffffffffffffffffffffffffffffffff16021790555081600460006101000a81548173ffffffffffffffffffffffffffffffffffffffff021916908373ffffffffffffffffffffffffffffffffffffffff1602179055508015610a5f5760008060016101000a81548160ff0219169083151502179055507f7f26b83ff96e1f2b6a682f133852f6798a09c465da95921460cefb38474024986001604051610a569190611c1c565b60405180910390a15b505050565b6000610a706001610fc9565b6000610a7c6001610fdf565b90506000600360009054906101000a900473ffffffffffffffffffffffffffffffffffffffff1690508073ffffffffffffffffffffffffffffffffffffffff16630d76a882838a87896040518563ffffffff1660e01b8152600401610ae49493929190611c37565b600060405180830381600087803b158015610afe57600080fd5b505af1158015610b12573d6000803e3d6000fd5b5050505060006040518061012001604052808d81526020014281526020018c81526020018b8152602001600015158152602001891515815260200160065481526020018881526020016001151581525090506000600460009054906101000a900473ffffffffffffffffffffffffffffffffffffffff1690508073ffffffffffffffffffffffffffffffffffffffff1663c10df2cf8b866040518363ffffffff1660e01b8152600401610bc6929190611c7c565b600060405180830381600087803b158015610be057600080fd5b505af1158015610bf4573d6000803e3d6000fd5b5050505081600560008681526020019081526020016000206000820151816000019080519060200190610c2892919061103f565b50602082015181600101556040820151816002019080519060200190610c4f92919061108c565b506060820151816003019080519060200190610c6c92919061108c565b5060808201518160040160006101000a81548160ff02191690831515021790555060a08201518160040160016101000a81548160ff02191690831515021790555060c0820151816005015560e0820151816006019080519060200190610cd392919061108c565b506101008201518160070160006101000a81548160ff0219169083151502179055509050507f0e40c7fe023d0c99af50ae99427db622223defe0991c758cf528d1b4e74c6cab8483600001518460200151856040015186606001518f88608001518960a001518a60c001518b60e00151604051610d599a99989796959493929190611d14565b60405180910390a18394505050505098975050505050505050565b6000610d806001610fc9565b6000610d8c6001610fdf565b90506000604051806101200160405280888152602001428152602001878152602001868152602001600115158152602001600015158152602001600754815260200185815260200160011515815250905080600560008481526020019081526020016000206000820151816000019080519060200190610e0d92919061103f565b50602082015181600101556040820151816002019080519060200190610e3492919061108c565b506060820151816003019080519060200190610e5192919061108c565b5060808201518160040160006101000a81548160ff02191690831515021790555060a08201518160040160016101000a81548160ff02191690831515021790555060c0820151816005015560e0820151816006019080519060200190610eb892919061108c565b506101008201518160070160006101000a81548160ff0219169083151502179055509050507f0e40c7fe023d0c99af50ae99427db622223defe0991c758cf528d1b4e74c6cab828260000151836020015184604001518560600151600087608001518860a001518960c001518a60e00151604051610f3f9a99989796959493929190611e07565b60405180910390a18192505050949350505050565b600360009054906101000a900473ffffffffffffffffffffffffffffffffffffffff1681565b60085481565b600460009054906101000a900473ffffffffffffffffffffffffffffffffffffffff1681565b6000808273ffffffffffffffffffffffffffffffffffffffff163b119050919050565b6001816000016000828254019250508190555050565b600081600001549050919050565b6040518061012001604052806060815260200160008152602001606081526020016060815260200160001515815260200160001515815260200160008152602001606081526020016000151581525090565b82805482825590600052602060002090810192821561107b579160200282015b8281111561107a57825182559160200191906001019061105f565b5b5090506110889190611112565b5090565b82805461109890611a74565b90600052602060002090601f0160209004810192826110ba5760008555611101565b82601f106110d357805160ff1916838001178555611101565b82800160010185558215611101579182015b828111156111005782518255916020019190600101906110e5565b5b50905061110e9190611112565b5090565b5b8082111561112b576000816000905550600101611113565b5090565b6000604051905090565b600080fd5b600080fd5b6000819050919050565b61115681611143565b811461116157600080fd5b50565b6000813590506111738161114d565b92915050565b60006020828403121561118f5761118e611139565b5b600061119d84828501611164565b91505092915050565b6111af81611143565b82525050565b600081519050919050565b600082825260208201905092915050565b60005b838110156111ef5780820151818401526020810190506111d4565b838111156111fe576000848401525b50505050565b6000601f19601f8301169050919050565b6000611220826111b5565b61122a81856111c0565b935061123a8185602086016111d1565b61124381611204565b840191505092915050565b60008115159050919050565b6112638161124e565b82525050565b60006101008201905061127f600083018b6111a6565b8181036020830152611291818a611215565b905081810360408301526112a58189611215565b90506112b4606083018861125a565b6112c1608083018761125a565b6112ce60a08301866111a6565b81810360c08301526112e08185611215565b90506112ef60e083018461125a565b9998505050505050505050565b600073ffffffffffffffffffffffffffffffffffffffff82169050919050565b6000611327826112fc565b9050919050565b6113378161131c565b82525050565b6000602082019050611352600083018461132e565b92915050565b600081519050919050565b600082825260208201905092915050565b6000819050602082019050919050565b61138d81611143565b82525050565b600061139f8383611384565b60208301905092915050565b6000602082019050919050565b60006113c382611358565b6113cd8185611363565b93506113d883611374565b8060005b838110156114095781516113f08882611393565b97506113fb836113ab565b9250506001810190506113dc565b5085935050505092915050565b600082825260208201905092915050565b6000611432826111b5565b61143c8185611416565b935061144c8185602086016111d1565b61145581611204565b840191505092915050565b6114698161124e565b82525050565b600061012083016000830151848203600086015261148d82826113b8565b91505060208301516114a26020860182611384565b50604083015184820360408601526114ba8282611427565b915050606083015184820360608601526114d48282611427565b91505060808301516114e96080860182611460565b5060a08301516114fc60a0860182611460565b5060c083015161150f60c0860182611384565b5060e083015184820360e08601526115278282611427565b91505061010083015161153e610100860182611460565b508091505092915050565b60006020820190508181036000830152611563818461146f565b905092915050565b600060208201905061158060008301846111a6565b92915050565b61158f8161131c565b811461159a57600080fd5b50565b6000813590506115ac81611586565b92915050565b6000602082840312156115c8576115c7611139565b5b60006115d68482850161159d565b91505092915050565b600080604083850312156115f6576115f5611139565b5b60006116048582860161159d565b92505060206116158582860161159d565b9150509250929050565b600080fd5b7f4e487b7100000000000000000000000000000000000000000000000000000000600052604160045260246000fd5b61165c82611204565b810181811067ffffffffffffffff8211171561167b5761167a611624565b5b80604052505050565b600061168e61112f565b905061169a8282611653565b919050565b600067ffffffffffffffff8211156116ba576116b9611624565b5b602082029050602081019050919050565b600080fd5b60006116e36116de8461169f565b611684565b90508083825260208201905060208402830185811115611706576117056116cb565b5b835b8181101561172f578061171b8882611164565b845260208401935050602081019050611708565b5050509392505050565b600082601f83011261174e5761174d61161f565b5b813561175e8482602086016116d0565b91505092915050565b600080fd5b600067ffffffffffffffff82111561178757611786611624565b5b61179082611204565b9050602081019050919050565b82818337600083830152505050565b60006117bf6117ba8461176c565b611684565b9050828152602081018484840111156117db576117da611767565b5b6117e684828561179d565b509392505050565b600082601f8301126118035761180261161f565b5b81356118138482602086016117ac565b91505092915050565b6118258161124e565b811461183057600080fd5b50565b6000813590506118428161181c565b92915050565b600080600080600080600080610100898b03121561186957611868611139565b5b600089013567ffffffffffffffff8111156118875761188661113e565b5b6118938b828c01611739565b985050602089013567ffffffffffffffff8111156118b4576118b361113e565b5b6118c08b828c016117ee565b975050604089013567ffffffffffffffff8111156118e1576118e061113e565b5b6118ed8b828c016117ee565b96505060606118fe8b828c01611164565b955050608061190f8b828c01611833565b94505060a089013567ffffffffffffffff8111156119305761192f61113e565b5b61193c8b828c016117ee565b93505060c061194d8b828c01611164565b92505060e061195e8b828c01611164565b9150509295985092959890939650565b6000806000806080858703121561198857611987611139565b5b600085013567ffffffffffffffff8111156119a6576119a561113e565b5b6119b287828801611739565b945050602085013567ffffffffffffffff8111156119d3576119d261113e565b5b6119df878288016117ee565b935050604085013567ffffffffffffffff811115611a00576119ff61113e565b5b611a0c878288016117ee565b925050606085013567ffffffffffffffff811115611a2d57611a2c61113e565b5b611a39878288016117ee565b91505092959194509250565b7f4e487b7100000000000000000000000000000000000000000000000000000000600052602260045260246000fd5b60006002820490506001821680611a8c57607f821691505b60208210811415611aa057611a9f611a45565b5b50919050565b7f554e415554484f52495a45443a2043414e4e4f545f504552464f524d5f41435460008201527f494f4e0000000000000000000000000000000000000000000000000000000000602082015250565b6000611b026023836111c0565b9150611b0d82611aa6565b604082019050919050565b60006020820190508181036000830152611b3181611af5565b9050919050565b7f496e697469616c697a61626c653a20636f6e747261637420697320616c72656160008201527f647920696e697469616c697a6564000000000000000000000000000000000000602082015250565b6000611b94602e836111c0565b9150611b9f82611b38565b604082019050919050565b60006020820190508181036000830152611bc381611b87565b9050919050565b6000819050919050565b600060ff82169050919050565b6000819050919050565b6000611c06611c01611bfc84611bca565b611be1565b611bd4565b9050919050565b611c1681611beb565b82525050565b6000602082019050611c316000830184611c0d565b92915050565b6000608082019050611c4c60008301876111a6565b611c5960208301866111a6565b611c6660408301856111a6565b611c7360608301846111a6565b95945050505050565b6000604082019050611c9160008301856111a6565b611c9e60208301846111a6565b9392505050565b600082825260208201905092915050565b6000611cc182611358565b611ccb8185611ca5565b9350611cd683611374565b8060005b83811015611d07578151611cee8882611393565b9750611cf9836113ab565b925050600181019050611cda565b5085935050505092915050565b600061014082019050611d2a600083018d6111a6565b8181036020830152611d3c818c611cb6565b9050611d4b604083018b6111a6565b8181036060830152611d5d818a611215565b90508181036080830152611d718189611215565b9050611d8060a08301886111a6565b611d8d60c083018761125a565b611d9a60e083018661125a565b611da86101008301856111a6565b818103610120830152611dbb8184611215565b90509b9a5050505050505050505050565b6000819050919050565b6000611df1611dec611de784611dcc565b611be1565b611143565b9050919050565b611e0181611dd6565b82525050565b600061014082019050611e1d600083018d6111a6565b8181036020830152611e2f818c611cb6565b9050611e3e604083018b6111a6565b8181036060830152611e50818a611215565b90508181036080830152611e648189611215565b9050611e7360a0830188611df8565b611e8060c083018761125a565b611e8d60e083018661125a565b611e9b6101008301856111a6565b818103610120830152611eae8184611215565b90509b9a505050505050505050505056fea2646970667358221220a562ba22fee48e7b7685ad1d9a36ca176290708a7110d0996ff423f65386f88d64736f6c634300080c0033",
  "immutableReferences": {},
  "source": "pragma solidity ^0.8.0;\n\nimport \"@openzeppelin/contracts/token/ERC721/ERC721.sol\";\nimport \"@openzeppelin/contracts/utils/Counters.sol\";\nimport \"@openzeppelin/contracts/access/Ownable.sol\";\nimport \"@openzeppelin/contracts-upgradeable/proxy/utils/Initializable.sol\";\nimport \"./voting/ContributionVotingContract.sol\";\nimport \"./interface/IRecords.sol\";\n\ncontract ContributionContract is Initializable {\n    using Counters for Counters.Counter;\n\n    /// @dev this is Contribution Create event this event will be emitted when a new contribution is created.\n    /// @param contributionId it is the unique identifier for the contribution\n    /// @param tracks are id of the tracks that are part of this contribution, you will have to manually fetch the\n    /// tracks data from trackId once you do the indexing.\n    /// @param createdAt createdAt is indicates the time of creation of the contribution\n    /// @param previewFile this is the file that contains the mix of the contribution also known as preview file\n    /// @param previewFileHash this is the hash of the preview file to make sure the previewFile is not tampered with\n    /// @param recordId this is the id of the record to which the contribution belong to\n    /// @param seedContribution this flag determines if the contribution is a seed contribution or not\n    /// @param roughMix this flag determines if the contribution is a new contribution, with new tracks or is it just mix\n    /// of all the previous tracks\n    /// @param status this is status of the contribution that is (PENDING = 1 | ACCEPTED = 2| REJECTED = 3)\n    /// @param description the description of record that is in text format\n    event ContributionCreated(\n        uint256 contributionId,\n        uint256[] tracks,\n        uint256 createdAt,\n        string previewFile,\n        string previewFileHash,\n        uint256 recordId,\n        bool seedContribution,\n        bool roughMix,\n        uint256 status,\n        string description\n    );\n\n    /// @dev This structure will store information of the contribution\n    /// @param tracks Array of id of tracks\n    /// @param createdAt blocknumber of when the contribution was created\n    /// @param previewFile This is the preview file link\n    /// @param previewFileHash This is the preview file hash\n    // / @param recordId This is the id of the record to which contribution belongs to\n    /// @param seedContribution This flag determines if it is a seed contribution or not\n    /// @param roughMix This flag determines if it is a rough mix or not, true if rough mix or else false\n    /// @param status This specifies the status of contribution PENDING = 1 | ACCEPTED = 2| REJECTED = 3\n    /// @param description This is the description that is entered by user\n    /// @param isPresent This is to check if a contribution exists or not\n    struct Contribution {\n        uint256[] tracks;\n        uint256 createdAt;\n        string previewFile;\n        string previewFileHash;\n        bool seedContribution;\n        bool roughMix;\n        uint256 status;\n        string description;\n        bool isPresent;\n    }\n\n    Counters.Counter private _contributionIds;\n    address public OWNER;\n    address public CONTRIBUTION_VOTING_CONTRACT_ADDRESS;\n    address public RECORD_CONTRACT_ADDRESS;\n    mapping(uint256 => Contribution) public contributionData;\n    uint256 public PENDING = 1;\n    uint256 public ACCEPTED = 2;\n    uint256 public REJECTED = 3;\n\n    constructor(address owner) {\n        OWNER = owner;\n    }\n\n    /// @dev Modifier to check that the person who accesses a specific function is the owner of contract himself.\n    modifier ownerOnly() {\n        require(msg.sender == OWNER, \"UNAUTHORIZED: CANNOT_PERFORM_ACTION\");\n        _;\n    }\n\n    // /// @dev This function sets the Voting Contract address\n    // /// @param newVotingContractAddress this is the address of new voting contract\n    // function setContributionVotingContractAddress(\n    //     address newVotingContractAddress\n    // ) public ownerOnly {\n    //     CONTRIBUTION_VOTING_CONTRACT_ADDRESS = newVotingContractAddress;\n    // }\n\n    // /// @dev This function sets the Records contract address\n    // /// @param newRecordsContractAddress this is the address of new Records contract\n    // function setRecordsContractAddress(address newRecordsContractAddress)\n    //     public\n    //     ownerOnly\n    // {\n    //     RECORD_CONTRACT_ADDRESS = newRecordsContractAddress;\n    // }\n\n    /// @dev This is to set the address of the contracts\n    /// @param newVotingContractAddress this is the address of new voting contract\n    /// @param newRecordsContractAddress this is the address of new Records contract\n    function initialize(\n        address newVotingContractAddress,\n        address newRecordsContractAddress\n    ) public initializer ownerOnly {\n        CONTRIBUTION_VOTING_CONTRACT_ADDRESS = newVotingContractAddress;\n        RECORD_CONTRACT_ADDRESS = newRecordsContractAddress;\n    }\n\n    /// @dev This function sets the owner address\n    /// @param ownerAddress This is the address of the owner\n    function setOwnerAddress(address ownerAddress) public ownerOnly {\n        OWNER = ownerAddress;\n    }\n\n    /// @dev This function returns contribution data\n    /// @param contributionId Id of the contribution whose data you want\n    function getContributionData(uint256 contributionId)\n        public\n        view\n        returns (Contribution memory contribution)\n    {\n        return contributionData[contributionId];\n    }\n\n    /// @dev This function will be called by the user to create a new contribution\n    /// @param tracks Id of tracks that are part of this contribution\n    /// @param previewFile this is preview file of the contribution\n    /// @param previewFileHash this is hash of the preview file\n    /// @param recordId this is the id of the record to which contribution belongs to.\n    /// @param roughMix this represents if a contribution is a roughMix or is a new contribution\n    /// @param description this is the description of the new contribution that is created.\n    /// @param communityReward this is the amount of community token that the contributor is requesting\n    /// for his work contribution.\n    /// @param governanceReward this is the amount of governance token that the contributor is requesting for his\n    /// work contribution.\n    function createNewContribution(\n        // string memory uri,\n        uint256[] memory tracks,\n        string memory previewFile,\n        string memory previewFileHash,\n        uint256 recordId,\n        bool roughMix,\n        string memory description,\n        uint256 communityReward,\n        uint256 governanceReward\n    ) public returns (uint256) {\n        _contributionIds.increment();\n\n        uint256 contributionId = _contributionIds.current();\n        // _mint(msg.sender, contributionId);\n\n        ContributionVotingContract contributionVotingContract = ContributionVotingContract(\n                CONTRIBUTION_VOTING_CONTRACT_ADDRESS\n            );\n        contributionVotingContract.createContributionVotingBallot(\n            contributionId,\n            recordId,\n            governanceReward,\n            communityReward\n        );\n\n        Contribution memory contribution = Contribution({\n            tracks: tracks,\n            createdAt: block.timestamp,\n            previewFile: previewFile,\n            previewFileHash: previewFileHash,\n            roughMix: roughMix,\n            status: PENDING,\n            description: description,\n            seedContribution: false,\n            isPresent: true\n        });\n\n        IRecords recordsContract = IRecords(RECORD_CONTRACT_ADDRESS);\n        recordsContract.pushContributionIdToContributionList(\n            recordId,\n            contributionId\n        );\n\n        contributionData[contributionId] = contribution;\n\n        emit ContributionCreated(\n            contributionId,\n            contribution.tracks,\n            contribution.createdAt,\n            contribution.previewFile,\n            contribution.previewFileHash,\n            recordId,\n            contribution.seedContribution,\n            contribution.roughMix,\n            contribution.status,\n            contribution.description\n        );\n\n        return contributionId;\n    }\n\n    /// @dev This function will be called by the user to create a new seed contribution as there will be not voting\n    /// or anything like that\n    /// @param tracks Id of tracks that are part of this contribution\n    /// @param previewFile this is preview file of the contribution\n    /// @param previewFileHash this is hash of the preview file\n    /// @param description this is the description of the new contribution that is created.\n    function createSeedContribution(\n        // string memory uri,\n        uint256[] memory tracks,\n        string memory previewFile,\n        string memory previewFileHash,\n        string memory description\n    ) public returns (uint256) {\n        _contributionIds.increment();\n\n        uint256 contributionId = _contributionIds.current();\n        // _mint(msg.sender, contributionId);\n\n        Contribution memory contribution = Contribution({\n            tracks: tracks,\n            createdAt: block.timestamp,\n            previewFile: previewFile,\n            previewFileHash: previewFileHash,\n            roughMix: false,\n            status: ACCEPTED,\n            description: description,\n            seedContribution: true,\n            isPresent: true\n        });\n\n        contributionData[contributionId] = contribution;\n\n        emit ContributionCreated(\n            contributionId,\n            contribution.tracks,\n            contribution.createdAt,\n            contribution.previewFile,\n            contribution.previewFileHash,\n            0,\n            contribution.seedContribution,\n            contribution.roughMix,\n            contribution.status,\n            contribution.description\n        );\n\n        return contributionId;\n    }\n}\n",
  "sourcePath": "/Users/a1/Desktop/Office/projects/CrowdRecords/Contracts/contracts/ContributionContract.sol",
  "compiler": {
    "name": "solc",
    "version": "0.8.12+commit.f00d7308.Emscripten.clang"
  },
  "schemaVersion": "3.4.6",
  "updatedAt": "2022-10-13T11:10:29.276Z",
  "devdoc": {
    "events": {
      "ContributionCreated(uint256,uint256[],uint256,string,string,uint256,bool,bool,uint256,string)": {
        "details": "this is Contribution Create event this event will be emitted when a new contribution is created.",
        "params": {
          "contributionId": "it is the unique identifier for the contribution",
          "createdAt": "createdAt is indicates the time of creation of the contribution",
          "description": "the description of record that is in text format",
          "previewFile": "this is the file that contains the mix of the contribution also known as preview file",
          "previewFileHash": "this is the hash of the preview file to make sure the previewFile is not tampered with",
          "recordId": "this is the id of the record to which the contribution belong to",
          "roughMix": "this flag determines if the contribution is a new contribution, with new tracks or is it just mix of all the previous tracks",
          "seedContribution": "this flag determines if the contribution is a seed contribution or not",
          "status": "this is status of the contribution that is (PENDING = 1 | ACCEPTED = 2| REJECTED = 3)",
          "tracks": "are id of the tracks that are part of this contribution, you will have to manually fetch the tracks data from trackId once you do the indexing."
        }
      }
    },
    "kind": "dev",
    "methods": {
      "createNewContribution(uint256[],string,string,uint256,bool,string,uint256,uint256)": {
        "details": "This function will be called by the user to create a new contribution",
        "params": {
          "communityReward": "this is the amount of community token that the contributor is requesting for his work contribution.",
          "description": "this is the description of the new contribution that is created.",
          "governanceReward": "this is the amount of governance token that the contributor is requesting for his work contribution.",
          "previewFile": "this is preview file of the contribution",
          "previewFileHash": "this is hash of the preview file",
          "recordId": "this is the id of the record to which contribution belongs to.",
          "roughMix": "this represents if a contribution is a roughMix or is a new contribution",
          "tracks": "Id of tracks that are part of this contribution"
        }
      },
      "createSeedContribution(uint256[],string,string,string)": {
        "details": "This function will be called by the user to create a new seed contribution as there will be not voting or anything like that",
        "params": {
          "description": "this is the description of the new contribution that is created.",
          "previewFile": "this is preview file of the contribution",
          "previewFileHash": "this is hash of the preview file",
          "tracks": "Id of tracks that are part of this contribution"
        }
      },
      "getContributionData(uint256)": {
        "details": "This function returns contribution data",
        "params": {
          "contributionId": "Id of the contribution whose data you want"
        }
      },
      "initialize(address,address)": {
        "details": "This is to set the address of the contracts",
        "params": {
          "newRecordsContractAddress": "this is the address of new Records contract",
          "newVotingContractAddress": "this is the address of new voting contract"
        }
      },
      "setOwnerAddress(address)": {
        "details": "This function sets the owner address",
        "params": {
          "ownerAddress": "This is the address of the owner"
        }
      }
    },
    "version": 1
  },
  "userdoc": {
    "kind": "user",
    "methods": {},
    "version": 1
  }
}