{
  "contractName": "ContributionVotingContract",
  "abi": [
    {
      "inputs": [
        {
          "internalType": "uint8",
          "name": "votingInterval",
          "type": "uint8"
        }
      ],
      "stateMutability": "nonpayable",
      "type": "constructor"
    },
    {
      "anonymous": false,
      "inputs": [
        {
          "indexed": false,
          "internalType": "uint256",
          "name": "contributionId",
          "type": "uint256"
        },
        {
          "indexed": false,
          "internalType": "uint256",
          "name": "ballotId",
          "type": "uint256"
        },
        {
          "indexed": false,
          "internalType": "bool",
          "name": "result",
          "type": "bool"
        }
      ],
      "name": "BallotResult",
      "type": "event"
    },
    {
      "anonymous": false,
      "inputs": [
        {
          "indexed": false,
          "internalType": "address",
          "name": "requester",
          "type": "address"
        },
        {
          "indexed": false,
          "internalType": "uint256",
          "name": "contributionId",
          "type": "uint256"
        },
        {
          "indexed": false,
          "internalType": "uint256",
          "name": "recordId",
          "type": "uint256"
        },
        {
          "indexed": false,
          "internalType": "uint256",
          "name": "communityReward",
          "type": "uint256"
        },
        {
          "indexed": false,
          "internalType": "uint256",
          "name": "communityTokenId",
          "type": "uint256"
        },
        {
          "indexed": false,
          "internalType": "uint256",
          "name": "governanceReward",
          "type": "uint256"
        },
        {
          "indexed": false,
          "internalType": "uint256",
          "name": "governanceTokenId",
          "type": "uint256"
        },
        {
          "indexed": false,
          "internalType": "uint256",
          "name": "ballotId",
          "type": "uint256"
        }
      ],
      "name": "ContributionBallotCreated",
      "type": "event"
    },
    {
      "anonymous": false,
      "inputs": [
        {
          "indexed": false,
          "internalType": "address",
          "name": "voter",
          "type": "address"
        },
        {
          "indexed": false,
          "internalType": "uint256",
          "name": "contributionId",
          "type": "uint256"
        },
        {
          "indexed": false,
          "internalType": "uint256",
          "name": "ballotId",
          "type": "uint256"
        },
        {
          "indexed": false,
          "internalType": "bool",
          "name": "vote",
          "type": "bool"
        }
      ],
      "name": "ContributionVoting",
      "type": "event"
    },
    {
      "anonymous": false,
      "inputs": [
        {
          "indexed": false,
          "internalType": "uint256",
          "name": "contributionId",
          "type": "uint256"
        },
        {
          "indexed": false,
          "internalType": "address",
          "name": "voterId",
          "type": "address"
        },
        {
          "indexed": false,
          "internalType": "uint256",
          "name": "newGovernanceReward",
          "type": "uint256"
        },
        {
          "indexed": false,
          "internalType": "uint256",
          "name": "newCommunityReward",
          "type": "uint256"
        }
      ],
      "name": "CounterOfferForContribution",
      "type": "event"
    },
    {
      "anonymous": false,
      "inputs": [
        {
          "indexed": false,
          "internalType": "uint256",
          "name": "contributionId",
          "type": "uint256"
        },
        {
          "indexed": false,
          "internalType": "address",
          "name": "voterId",
          "type": "address"
        },
        {
          "indexed": false,
          "internalType": "uint256",
          "name": "newGovernanceReward",
          "type": "uint256"
        },
        {
          "indexed": false,
          "internalType": "uint256",
          "name": "newCommunityReward",
          "type": "uint256"
        },
        {
          "indexed": false,
          "internalType": "uint256",
          "name": "status",
          "type": "uint256"
        }
      ],
      "name": "counterOfferAction",
      "type": "event"
    },
    {
      "inputs": [],
      "name": "CONTRIBUTION_CONTRACT_ADDRESS",
      "outputs": [
        {
          "internalType": "address",
          "name": "",
          "type": "address"
        }
      ],
      "stateMutability": "view",
      "type": "function"
    },
    {
      "inputs": [],
      "name": "TREASURY_CONTRACT_ADDRESS",
      "outputs": [
        {
          "internalType": "address",
          "name": "",
          "type": "address"
        }
      ],
      "stateMutability": "view",
      "type": "function"
    },
    {
      "inputs": [
        {
          "internalType": "address",
          "name": "newTreasuryContractAddress",
          "type": "address"
        }
      ],
      "name": "setTreasuryContractAddress",
      "outputs": [],
      "stateMutability": "nonpayable",
      "type": "function"
    },
    {
      "inputs": [
        {
          "internalType": "address",
          "name": "newContributionContractAddress",
          "type": "address"
        }
      ],
      "name": "setContributionContractAddress",
      "outputs": [],
      "stateMutability": "nonpayable",
      "type": "function"
    },
    {
      "inputs": [
        {
          "internalType": "uint256",
          "name": "contributionId",
          "type": "uint256"
        },
        {
          "internalType": "uint256",
          "name": "recordId",
          "type": "uint256"
        },
        {
          "internalType": "uint256",
          "name": "govReward",
          "type": "uint256"
        },
        {
          "internalType": "uint256",
          "name": "commReward",
          "type": "uint256"
        }
      ],
      "name": "createContributionVotingBallot",
      "outputs": [],
      "stateMutability": "nonpayable",
      "type": "function"
    },
    {
      "inputs": [
        {
          "internalType": "uint256",
          "name": "contributionId",
          "type": "uint256"
        },
        {
          "internalType": "bool",
          "name": "vote",
          "type": "bool"
        }
      ],
      "name": "castVoteForContribution",
      "outputs": [],
      "stateMutability": "nonpayable",
      "type": "function"
    },
    {
      "inputs": [
        {
          "internalType": "uint256",
          "name": "contributionId",
          "type": "uint256"
        },
        {
          "internalType": "uint256",
          "name": "newCommunityReward",
          "type": "uint256"
        },
        {
          "internalType": "uint256",
          "name": "newGovernanceReward",
          "type": "uint256"
        }
      ],
      "name": "proposeCounterOffer",
      "outputs": [],
      "stateMutability": "nonpayable",
      "type": "function"
    },
    {
      "inputs": [
        {
          "internalType": "uint256",
          "name": "contributionId",
          "type": "uint256"
        },
        {
          "internalType": "address[]",
          "name": "counterOfferIds",
          "type": "address[]"
        },
        {
          "internalType": "bool",
          "name": "action",
          "type": "bool"
        }
      ],
      "name": "actionOnCounterOffer",
      "outputs": [],
      "stateMutability": "nonpayable",
      "type": "function"
    },
    {
      "inputs": [
        {
          "internalType": "uint256",
          "name": "contributionId",
          "type": "uint256"
        }
      ],
      "name": "declareWinner",
      "outputs": [],
      "stateMutability": "nonpayable",
      "type": "function"
    }
  ],
  "bytecode": "0x6080604052601960005560006003553480156200001b57600080fd5b50604051620037a6380380620037a68339818101604052810190620000419190620000d6565b33600260006101000a81548173ffffffffffffffffffffffffffffffffffffffff021916908373ffffffffffffffffffffffffffffffffffffffff1602179055508060ff166000819055505062000108565b600080fd5b600060ff82169050919050565b620000b08162000098565b8114620000bc57600080fd5b50565b600081519050620000d081620000a5565b92915050565b600060208284031215620000ef57620000ee62000093565b5b6000620000ff84828501620000bf565b91505092915050565b61368e80620001186000396000f3fe608060405234801561001057600080fd5b50600436106100925760003560e01c806329c50b591161006657806329c50b59146101095780634cf2d48f14610125578063acb3149314610141578063c679968a1461015f578063c9d591431461017b57610092565b8062c2943c1461009757806307c505b7146100b35780630d76a882146100d1578063251686ed146100ed575b600080fd5b6100b160048036038101906100ac9190612568565b610197565b005b6100bb610523565b6040516100c891906125d6565b60405180910390f35b6100eb60048036038101906100e691906125f1565b610549565b005b61010760048036038101906101029190612690565b6108e6565b005b610123600480360381019061011e91906126fc565b6109c7565b005b61013f600480360381019061013a91906126fc565b610a9b565b005b610149610b37565b60405161015691906125d6565b60405180910390f35b61017960048036038101906101749190612729565b610b5d565b005b610195600480360381019061019091906128d5565b610fdd565b005b60006009600083815260200190815260200160002080548060200260200160405190810160405280929190818152602001828054801561022c57602002820191906000526020600020905b8160009054906101000a900473ffffffffffffffffffffffffffffffffffffffff1673ffffffffffffffffffffffffffffffffffffffff16815260200190600101908083116101e2575b5050505050905060005b815181101561037857600160086000858152602001908152602001600020600084848151811061026957610268612944565b5b602002602001015173ffffffffffffffffffffffffffffffffffffffff1673ffffffffffffffffffffffffffffffffffffffff168152602001908152602001600020600201541415610365576102f160076000858152602001908152602001600020600301548383815181106102e2576102e1612944565b5b60200260200101516000611359565b600360086000858152602001908152602001600020600084848151811061031b5761031a612944565b5b602002602001015173ffffffffffffffffffffffffffffffffffffffff1673ffffffffffffffffffffffffffffffffffffffff168152602001908152602001600020600201819055505b8080610370906129a2565b915050610236565b5060006103b160076000858152602001908152602001600020600301546007600086815260200190815260200160002060070154611411565b90507fb8a8a92b56f183482e31ed93ed60da7274c03a6bc11b2c0e75cec8ff5a8058f2836007600086815260200190815260200160002060030154836040516103fc93929190612a09565b60405180910390a1801561051e576000600160009054906101000a900473ffffffffffffffffffffffffffffffffffffffff1690508073ffffffffffffffffffffffffffffffffffffffff16638388f4136007600087815260200190815260200160002060000160009054906101000a900473ffffffffffffffffffffffffffffffffffffffff16600760008881526020019081526020016000206002015487600760008a815260200190815260200160002060060154600760008b8152602001908152602001600020600401546040518663ffffffff1660e01b81526004016104ea959493929190612a40565b600060405180830381600087803b15801561050457600080fd5b505af1158015610518573d6000803e3d6000fd5b50505050505b505050565b600a60009054906101000a900473ffffffffffffffffffffffffffffffffffffffff1681565b600a60009054906101000a900473ffffffffffffffffffffffffffffffffffffffff1673ffffffffffffffffffffffffffffffffffffffff163373ffffffffffffffffffffffffffffffffffffffff16146105d9576040517f08c379a00000000000000000000000000000000000000000000000000000000081526004016105d090612b16565b60405180910390fd5b600015156007600086815260200190815260200160002060080160009054906101000a900460ff16151514610643576040517f08c379a000000000000000000000000000000000000000000000000000000000815260040161063a90612b82565b60405180910390fd5b600061064f6001611881565b90506000600160009054906101000a900473ffffffffffffffffffffffffffffffffffffffff16905060008173ffffffffffffffffffffffffffffffffffffffff16632d4a0382876040518263ffffffff1660e01b81526004016106b39190612ba2565b602060405180830381865afa1580156106d0573d6000803e3d6000fd5b505050506040513d601f19601f820116820180604052508101906106f49190612bd2565b905060008273ffffffffffffffffffffffffffffffffffffffff1663d6ca40a7886040518263ffffffff1660e01b81526004016107319190612ba2565b602060405180830381865afa15801561074e573d6000803e3d6000fd5b505050506040513d601f19601f820116820180604052508101906107729190612bd2565b905060006040518061012001604052803273ffffffffffffffffffffffffffffffffffffffff1681526020018a81526020018981526020018681526020018781526020018381526020018881526020018481526020016001151581525090507f841b71ba38f7c6cc93d8235b87ac4a1f87adee1f9d562d9e0421744c8b2d5d5a338a8a89868c898c60405161080e989796959493929190612bff565b60405180910390a180600760008b815260200190815260200160002060008201518160000160006101000a81548173ffffffffffffffffffffffffffffffffffffffff021916908373ffffffffffffffffffffffffffffffffffffffff1602179055506020820151816001015560408201518160020155606082015181600301556080820151816004015560a0820151816005015560c0820151816006015560e082015181600701556101008201518160080160006101000a81548160ff021916908315150217905550905050505050505050505050565b600115156007600084815260200190815260200160002060080160009054906101000a900460ff16151514610950576040517f08c379a000000000000000000000000000000000000000000000000000000000815260040161094790612cc9565b60405180910390fd5b610970600760008481526020019081526020016000206003015482611a9e565b7fc94df962ce83bb9f5099c0364215ad4932ed320a795c370dc62619a373a9518e33836007600086815260200190815260200160002060030154846040516109bb9493929190612ce9565b60405180910390a15050565b600260009054906101000a900473ffffffffffffffffffffffffffffffffffffffff1673ffffffffffffffffffffffffffffffffffffffff163373ffffffffffffffffffffffffffffffffffffffff1614610a57576040517f08c379a0000000000000000000000000000000000000000000000000000000008152600401610a4e90612da0565b60405180910390fd5b80600a60006101000a81548173ffffffffffffffffffffffffffffffffffffffff021916908373ffffffffffffffffffffffffffffffffffffffff16021790555050565b600260009054906101000a900473ffffffffffffffffffffffffffffffffffffffff1673ffffffffffffffffffffffffffffffffffffffff163373ffffffffffffffffffffffffffffffffffffffff1614610b2b576040517f08c379a0000000000000000000000000000000000000000000000000000000008152600401610b2290612da0565b60405180910390fd5b610b3481611b52565b50565b600160009054906101000a900473ffffffffffffffffffffffffffffffffffffffff1681565b60076000848152602001908152602001600020600301546004600082815260200190815260200160002060040160019054906101000a900460ff1615610c4657600015156005600083815260200190815260200160002060003273ffffffffffffffffffffffffffffffffffffffff1673ffffffffffffffffffffffffffffffffffffffff16815260200190815260200160002060009054906101000a900460ff16151514610c41576040517f08c379a0000000000000000000000000000000000000000000000000000000008152600401610c3890612e0c565b60405180910390fd5b610cec565b6004600082815260200190815260200160002060000160009054906101000a900473ffffffffffffffffffffffffffffffffffffffff1673ffffffffffffffffffffffffffffffffffffffff163273ffffffffffffffffffffffffffffffffffffffff161415610ceb576040517f08c379a0000000000000000000000000000000000000000000000000000000008152600401610ce290612e78565b60405180910390fd5b5b600760008581526020019081526020016000206003015433600115156004600084815260200190815260200160002060040160029054906101000a900460ff16151514610d6e576040517f08c379a0000000000000000000000000000000000000000000000000000000008152600401610d6590612ee4565b60405180910390fd5b43600460008481526020019081526020016000206003015411610dc6576040517f08c379a0000000000000000000000000000000000000000000000000000000008152600401610dbd90612f50565b60405180910390fd5b600015156005600084815260200190815260200160002060008373ffffffffffffffffffffffffffffffffffffffff1673ffffffffffffffffffffffffffffffffffffffff16815260200190815260200160002060009054906101000a900460ff16151514610e6a576040517f08c379a0000000000000000000000000000000000000000000000000000000008152600401610e6190612e0c565b60405180910390fd5b610e896007600088815260200190815260200160002060030154611c26565b600060405180606001604052808781526020018681526020016001815250905060096000888152602001908152602001600020339080600181540180825580915050600190039060005260206000200160009091909190916101000a81548173ffffffffffffffffffffffffffffffffffffffff021916908373ffffffffffffffffffffffffffffffffffffffff160217905550806008600089815260200190815260200160002060003373ffffffffffffffffffffffffffffffffffffffff1673ffffffffffffffffffffffffffffffffffffffff1681526020019081526020016000206000820151816000015560208201518160010155604082015181600201559050507f920106c0a661b88d3e90d906bbcd9e579abab6ff29031cb1cc958ddebae47fb8873383602001518460000151604051610fcc9493929190612f70565b60405180910390a150505050505050565b60005b825181101561135357600160086000868152602001908152602001600020600085848151811061101357611012612944565b5b602002602001015173ffffffffffffffffffffffffffffffffffffffff1673ffffffffffffffffffffffffffffffffffffffff16815260200190815260200160002060020154141561134057811561128f57600060086000868152602001908152602001600020600085848151811061108f5761108e612944565b5b602002602001015173ffffffffffffffffffffffffffffffffffffffff1673ffffffffffffffffffffffffffffffffffffffff168152602001908152602001600020600101549050600060086000878152602001908152602001600020600086858151811061110157611100612944565b5b602002602001015173ffffffffffffffffffffffffffffffffffffffff1673ffffffffffffffffffffffffffffffffffffffff16815260200190815260200160002060000154905080600760008881526020019081526020016000206004018190555081600760008881526020019081526020016000206006018190555060026008600088815260200190815260200160002060008786815181106111a9576111a8612944565b5b602002602001015173ffffffffffffffffffffffffffffffffffffffff1673ffffffffffffffffffffffffffffffffffffffff1681526020019081526020016000206002018190555061122e600760008881526020019081526020016000206003015486858151811061121f5761121e612944565b5b60200260200101516001611359565b7fd992f385523dde33af41e13ab8ac788e6a9d7bf3278f3a70d16c150ff43115e58686858151811061126357611262612944565b5b602002602001015184846002604051611280959493929190612ffa565b60405180910390a1505061133f565b6112cb60076000868152602001908152602001600020600301548483815181106112bc576112bb612944565b5b60200260200101516000611359565b60036008600086815260200190815260200160002060008584815181106112f5576112f4612944565b5b602002602001015173ffffffffffffffffffffffffffffffffffffffff1673ffffffffffffffffffffffffffffffffffffffff168152602001908152602001600020600201819055505b5b808061134b906129a2565b915050610fe0565b50505050565b8282600115156006600084815260200190815260200160002060008373ffffffffffffffffffffffffffffffffffffffff1673ffffffffffffffffffffffffffffffffffffffff16815260200190815260200160002060009054906101000a900460ff161515146113ff576040517f08c379a00000000000000000000000000000000000000000000000000000000081526004016113f690613099565b60405180910390fd5b61140a858486611ea2565b5050505050565b6000600115156004600085815260200190815260200160002060040160029054906101000a900460ff1615151461147d576040517f08c379a000000000000000000000000000000000000000000000000000000000815260040161147490612ee4565b60405180910390fd5b436004600085815260200190815260200160002060030154106114d5576040517f08c379a00000000000000000000000000000000000000000000000000000000081526004016114cc90613105565b60405180910390fd5b600015156004600085815260200190815260200160002060040160009054906101000a900460ff1615151461153f576040517f08c379a000000000000000000000000000000000000000000000000000000000815260040161153690613171565b60405180910390fd5b6000600460008581526020019081526020016000206001018054806020026020016040519081016040528092919081815260200182805480156115d757602002820191906000526020600020905b8160009054906101000a900473ffffffffffffffffffffffffffffffffffffffff1673ffffffffffffffffffffffffffffffffffffffff168152602001906001019080831161158d575b505050505090506000815167ffffffffffffffff8111156115fb576115fa612792565b5b6040519080825280602002602001820160405280156116295781602001602082028036833780820191505090505b50905060005b825181101561166b578482828151811061164c5761164b612944565b5b6020026020010181815250508080611663906129a2565b91505061162f565b506000600160009054906101000a900473ffffffffffffffffffffffffffffffffffffffff16905060008173ffffffffffffffffffffffffffffffffffffffff16634e1273f4600460008a8152602001908152602001600020600101856040518363ffffffff1660e01b81526004016116e5929190613373565b600060405180830381865afa158015611702573d6000803e3d6000fd5b505050506040513d6000823e3d601f19601f8201168201806040525081019061172b919061346d565b90506000805b85518110156117755782818151811061174d5761174c612944565b5b60200260200101518261176091906134b6565b9150808061176d906129a2565b915050611731565b506001600460008a815260200190815260200160002060040160006101000a81548160ff02191690831515021790555060008111156118715760008373ffffffffffffffffffffffffffffffffffffffff1663036c22ad896040518263ffffffff1660e01b81526004016117e99190612ba2565b602060405180830381865afa158015611806573d6000803e3d6000fd5b505050506040513d601f19601f8201168201806040525081019061182a9190612bd2565b905060008160648461183c919061350c565b6118469190613595565b9050604281111561186157600197505050505050505061187b565b600097505050505050505061187b565b6000955050505050505b92915050565b600060036000815480929190611896906129a2565b919050555060006040518060e001604052803273ffffffffffffffffffffffffffffffffffffffff168152602001600067ffffffffffffffff8111156118df576118de612792565b5b60405190808252806020026020018201604052801561190d5781602001602082028036833780820191505090505b508152602001600067ffffffffffffffff81111561192e5761192d612792565b5b60405190808252806020026020018201604052801561195c5781602001602082028036833780820191505090505b5081526020016000544361197091906134b6565b815260200160001515815260200184151581526020016001151581525090508060046000600354815260200190815260200160002060008201518160000160006101000a81548173ffffffffffffffffffffffffffffffffffffffff021916908373ffffffffffffffffffffffffffffffffffffffff1602179055506020820151816001019080519060200190611a08929190612477565b506040820151816002019080519060200190611a25929190612477565b506060820151816003015560808201518160040160006101000a81548160ff02191690831515021790555060a08201518160040160016101000a81548160ff02191690831515021790555060c08201518160040160026101000a81548160ff021916908315150217905550905050600354915050919050565b81600015156006600083815260200190815260200160002060003373ffffffffffffffffffffffffffffffffffffffff1673ffffffffffffffffffffffffffffffffffffffff16815260200190815260200160002060009054906101000a900460ff16151514611b43576040517f08c379a0000000000000000000000000000000000000000000000000000000008152600401611b3a90613638565b60405180910390fd5b611b4d838361201c565b505050565b600260009054906101000a900473ffffffffffffffffffffffffffffffffffffffff1673ffffffffffffffffffffffffffffffffffffffff163373ffffffffffffffffffffffffffffffffffffffff1614611be2576040517f08c379a0000000000000000000000000000000000000000000000000000000008152600401611bd990612da0565b60405180910390fd5b80600160006101000a81548173ffffffffffffffffffffffffffffffffffffffff021916908373ffffffffffffffffffffffffffffffffffffffff16021790555050565b80600015156006600083815260200190815260200160002060003373ffffffffffffffffffffffffffffffffffffffff1673ffffffffffffffffffffffffffffffffffffffff16815260200190815260200160002060009054906101000a900460ff16151514611ccb576040517f08c379a0000000000000000000000000000000000000000000000000000000008152600401611cc290613638565b60405180910390fd5b8133600115156004600084815260200190815260200160002060040160029054906101000a900460ff16151514611d37576040517f08c379a0000000000000000000000000000000000000000000000000000000008152600401611d2e90612ee4565b60405180910390fd5b43600460008481526020019081526020016000206003015411611d8f576040517f08c379a0000000000000000000000000000000000000000000000000000000008152600401611d8690612f50565b60405180910390fd5b600015156005600084815260200190815260200160002060008373ffffffffffffffffffffffffffffffffffffffff1673ffffffffffffffffffffffffffffffffffffffff16815260200190815260200160002060009054906101000a900460ff16151514611e33576040517f08c379a0000000000000000000000000000000000000000000000000000000008152600401611e2a90612e0c565b60405180910390fd5b60016006600086815260200190815260200160002060003373ffffffffffffffffffffffffffffffffffffffff1673ffffffffffffffffffffffffffffffffffffffff16815260200190815260200160002060006101000a81548160ff02191690831515021790555050505050565b8281600115156004600084815260200190815260200160002060040160029054906101000a900460ff16151514611f0e576040517f08c379a0000000000000000000000000000000000000000000000000000000008152600401611f0590612ee4565b60405180910390fd5b43600460008481526020019081526020016000206003015411611f66576040517f08c379a0000000000000000000000000000000000000000000000000000000008152600401611f5d90612f50565b60405180910390fd5b600015156005600084815260200190815260200160002060008373ffffffffffffffffffffffffffffffffffffffff1673ffffffffffffffffffffffffffffffffffffffff16815260200190815260200160002060009054906101000a900460ff1615151461200a576040517f08c379a000000000000000000000000000000000000000000000000000000000815260040161200190612e0c565b60405180910390fd5b61201585858561230f565b5050505050565b8133600115156004600084815260200190815260200160002060040160029054906101000a900460ff16151514612088576040517f08c379a000000000000000000000000000000000000000000000000000000000815260040161207f90612ee4565b60405180910390fd5b436004600084815260200190815260200160002060030154116120e0576040517f08c379a00000000000000000000000000000000000000000000000000000000081526004016120d790612f50565b60405180910390fd5b600015156005600084815260200190815260200160002060008373ffffffffffffffffffffffffffffffffffffffff1673ffffffffffffffffffffffffffffffffffffffff16815260200190815260200160002060009054906101000a900460ff16151514612184576040517f08c379a000000000000000000000000000000000000000000000000000000000815260040161217b90612e0c565b60405180910390fd5b836004600082815260200190815260200160002060040160019054906101000a900460ff161561225757600015156005600083815260200190815260200160002060003273ffffffffffffffffffffffffffffffffffffffff1673ffffffffffffffffffffffffffffffffffffffff16815260200190815260200160002060009054906101000a900460ff16151514612252576040517f08c379a000000000000000000000000000000000000000000000000000000000815260040161224990612e0c565b60405180910390fd5b6122fd565b6004600082815260200190815260200160002060000160009054906101000a900473ffffffffffffffffffffffffffffffffffffffff1673ffffffffffffffffffffffffffffffffffffffff163273ffffffffffffffffffffffffffffffffffffffff1614156122fc576040517f08c379a00000000000000000000000000000000000000000000000000000000081526004016122f390612e78565b60405180910390fd5b5b61230885853261230f565b5050505050565b81156123915760046000848152602001908152602001600020600101819080600181540180825580915050600190039060005260206000200160009091909190916101000a81548173ffffffffffffffffffffffffffffffffffffffff021916908373ffffffffffffffffffffffffffffffffffffffff160217905550612409565b60046000848152602001908152602001600020600201819080600181540180825580915050600190039060005260206000200160009091909190916101000a81548173ffffffffffffffffffffffffffffffffffffffff021916908373ffffffffffffffffffffffffffffffffffffffff1602179055505b60016005600085815260200190815260200160002060008373ffffffffffffffffffffffffffffffffffffffff1673ffffffffffffffffffffffffffffffffffffffff16815260200190815260200160002060006101000a81548160ff021916908315150217905550505050565b8280548282559060005260206000209081019282156124f0579160200282015b828111156124ef5782518260006101000a81548173ffffffffffffffffffffffffffffffffffffffff021916908373ffffffffffffffffffffffffffffffffffffffff16021790555091602001919060010190612497565b5b5090506124fd9190612501565b5090565b5b8082111561251a576000816000905550600101612502565b5090565b6000604051905090565b600080fd5b600080fd5b6000819050919050565b61254581612532565b811461255057600080fd5b50565b6000813590506125628161253c565b92915050565b60006020828403121561257e5761257d612528565b5b600061258c84828501612553565b91505092915050565b600073ffffffffffffffffffffffffffffffffffffffff82169050919050565b60006125c082612595565b9050919050565b6125d0816125b5565b82525050565b60006020820190506125eb60008301846125c7565b92915050565b6000806000806080858703121561260b5761260a612528565b5b600061261987828801612553565b945050602061262a87828801612553565b935050604061263b87828801612553565b925050606061264c87828801612553565b91505092959194509250565b60008115159050919050565b61266d81612658565b811461267857600080fd5b50565b60008135905061268a81612664565b92915050565b600080604083850312156126a7576126a6612528565b5b60006126b585828601612553565b92505060206126c68582860161267b565b9150509250929050565b6126d9816125b5565b81146126e457600080fd5b50565b6000813590506126f6816126d0565b92915050565b60006020828403121561271257612711612528565b5b6000612720848285016126e7565b91505092915050565b60008060006060848603121561274257612741612528565b5b600061275086828701612553565b935050602061276186828701612553565b925050604061277286828701612553565b9150509250925092565b600080fd5b6000601f19601f8301169050919050565b7f4e487b7100000000000000000000000000000000000000000000000000000000600052604160045260246000fd5b6127ca82612781565b810181811067ffffffffffffffff821117156127e9576127e8612792565b5b80604052505050565b60006127fc61251e565b905061280882826127c1565b919050565b600067ffffffffffffffff82111561282857612827612792565b5b602082029050602081019050919050565b600080fd5b600061285161284c8461280d565b6127f2565b9050808382526020820190506020840283018581111561287457612873612839565b5b835b8181101561289d578061288988826126e7565b845260208401935050602081019050612876565b5050509392505050565b600082601f8301126128bc576128bb61277c565b5b81356128cc84826020860161283e565b91505092915050565b6000806000606084860312156128ee576128ed612528565b5b60006128fc86828701612553565b935050602084013567ffffffffffffffff81111561291d5761291c61252d565b5b612929868287016128a7565b925050604061293a8682870161267b565b9150509250925092565b7f4e487b7100000000000000000000000000000000000000000000000000000000600052603260045260246000fd5b7f4e487b7100000000000000000000000000000000000000000000000000000000600052601160045260246000fd5b60006129ad82612532565b91507fffffffffffffffffffffffffffffffffffffffffffffffffffffffffffffffff8214156129e0576129df612973565b5b600182019050919050565b6129f481612532565b82525050565b612a0381612658565b82525050565b6000606082019050612a1e60008301866129eb565b612a2b60208301856129eb565b612a3860408301846129fa565b949350505050565b600060a082019050612a5560008301886125c7565b612a6260208301876129eb565b612a6f60408301866129eb565b612a7c60608301856129eb565b612a8960808301846129eb565b9695505050505050565b600082825260208201905092915050565b7f596f7520617265206e6f7420636f6e747269627574696f6e20636f6e7472616360008201527f7400000000000000000000000000000000000000000000000000000000000000602082015250565b6000612b00602183612a93565b9150612b0b82612aa4565b604082019050919050565b60006020820190508181036000830152612b2f81612af3565b9050919050565b7f566f74696e6720697320616c7265616479206372656174656400000000000000600082015250565b6000612b6c601983612a93565b9150612b7782612b36565b602082019050919050565b60006020820190508181036000830152612b9b81612b5f565b9050919050565b6000602082019050612bb760008301846129eb565b92915050565b600081519050612bcc8161253c565b92915050565b600060208284031215612be857612be7612528565b5b6000612bf684828501612bbd565b91505092915050565b600061010082019050612c15600083018b6125c7565b612c22602083018a6129eb565b612c2f60408301896129eb565b612c3c60608301886129eb565b612c4960808301876129eb565b612c5660a08301866129eb565b612c6360c08301856129eb565b612c7060e08301846129eb565b9998505050505050505050565b7f496e76616c696420636f6e747269627574696f6e206964000000000000000000600082015250565b6000612cb3601783612a93565b9150612cbe82612c7d565b602082019050919050565b60006020820190508181036000830152612ce281612ca6565b9050919050565b6000608082019050612cfe60008301876125c7565b612d0b60208301866129eb565b612d1860408301856129eb565b612d2560608301846129fa565b95945050505050565b7f596f7520617265206e6f7420617574686f72697a656420666f7220746869732060008201527f616374696f6e0000000000000000000000000000000000000000000000000000602082015250565b6000612d8a602683612a93565b9150612d9582612d2e565b604082019050919050565b60006020820190508181036000830152612db981612d7d565b9050919050565b7f596f75206861766520616c726561647920766f74656400000000000000000000600082015250565b6000612df6601683612a93565b9150612e0182612dc0565b602082019050919050565b60006020820190508181036000830152612e2581612de9565b9050919050565b7f4f776e65722063616e6e6f7420766f7465000000000000000000000000000000600082015250565b6000612e62601183612a93565b9150612e6d82612e2c565b602082019050919050565b60006020820190508181036000830152612e9181612e55565b9050919050565b7f4e6f2062616c6c6f74207769746820796f757220696420697320666f756e6400600082015250565b6000612ece601f83612a93565b9150612ed982612e98565b602082019050919050565b60006020820190508181036000830152612efd81612ec1565b9050919050565b7f566f74696e672074696d65206973206f76657200000000000000000000000000600082015250565b6000612f3a601383612a93565b9150612f4582612f04565b602082019050919050565b60006020820190508181036000830152612f6981612f2d565b9050919050565b6000608082019050612f8560008301876129eb565b612f9260208301866125c7565b612f9f60408301856129eb565b612fac60608301846129eb565b95945050505050565b6000819050919050565b6000819050919050565b6000612fe4612fdf612fda84612fb5565b612fbf565b612532565b9050919050565b612ff481612fc9565b82525050565b600060a08201905061300f60008301886129eb565b61301c60208301876125c7565b61302960408301866129eb565b61303660608301856129eb565b6130436080830184612feb565b9695505050505050565b7f436f756e746572206f6666657220646f65736e27742065786973747300000000600082015250565b6000613083601c83612a93565b915061308e8261304d565b602082019050919050565b600060208201905081810360008301526130b281613076565b9050919050565b7f566f74696e672074696d65206973206e6f74206f766572207965740000000000600082015250565b60006130ef601b83612a93565b91506130fa826130b9565b602082019050919050565b6000602082019050818103600083015261311e816130e2565b9050919050565b7f526573756c7420616c7265616479206465636c61726564000000000000000000600082015250565b600061315b601783612a93565b915061316682613125565b602082019050919050565b6000602082019050818103600083015261318a8161314e565b9050919050565b600081549050919050565b600082825260208201905092915050565b60008190508160005260206000209050919050565b6131cb816125b5565b82525050565b60006131dd83836131c2565b60208301905092915050565b60008160001c9050919050565b600073ffffffffffffffffffffffffffffffffffffffff82169050919050565b6000613229613224836131e9565b6131f6565b9050919050565b600061323c8254613216565b9050919050565b6000600182019050919050565b600061325b82613191565b613265818561319c565b9350613270836131ad565b8060005b838110156132a85761328582613230565b61328f88826131d1565b975061329a83613243565b925050600181019050613274565b5085935050505092915050565b600081519050919050565b600082825260208201905092915050565b6000819050602082019050919050565b6132ea81612532565b82525050565b60006132fc83836132e1565b60208301905092915050565b6000602082019050919050565b6000613320826132b5565b61332a81856132c0565b9350613335836132d1565b8060005b8381101561336657815161334d88826132f0565b975061335883613308565b925050600181019050613339565b5085935050505092915050565b6000604082019050818103600083015261338d8185613250565b905081810360208301526133a18184613315565b90509392505050565b600067ffffffffffffffff8211156133c5576133c4612792565b5b602082029050602081019050919050565b60006133e96133e4846133aa565b6127f2565b9050808382526020820190506020840283018581111561340c5761340b612839565b5b835b8181101561343557806134218882612bbd565b84526020840193505060208101905061340e565b5050509392505050565b600082601f8301126134545761345361277c565b5b81516134648482602086016133d6565b91505092915050565b60006020828403121561348357613482612528565b5b600082015167ffffffffffffffff8111156134a1576134a061252d565b5b6134ad8482850161343f565b91505092915050565b60006134c182612532565b91506134cc83612532565b9250827fffffffffffffffffffffffffffffffffffffffffffffffffffffffffffffffff0382111561350157613500612973565b5b828201905092915050565b600061351782612532565b915061352283612532565b9250817fffffffffffffffffffffffffffffffffffffffffffffffffffffffffffffffff048311821515161561355b5761355a612973565b5b828202905092915050565b7f4e487b7100000000000000000000000000000000000000000000000000000000600052601260045260246000fd5b60006135a082612532565b91506135ab83612532565b9250826135bb576135ba613566565b5b828204905092915050565b7f596f75206861766520616c726561647920676976656e206120636f756e74657260008201527f206f666665720000000000000000000000000000000000000000000000000000602082015250565b6000613622602683612a93565b915061362d826135c6565b604082019050919050565b6000602082019050818103600083015261365181613615565b905091905056fea2646970667358221220fe0c11c6d8098519d65b36820c27386782ef1d9f0dd38e362ac533ac5363f08364736f6c634300080c0033",
  "immutableReferences": {},
  "source": "// SPDX-License-Identifier: MIT\npragma solidity ^0.8.0;\n\nimport \"./BaseVotingCounterOfferContract.sol\";\nimport \"../TreasuryContract.sol\";\n\ncontract ContributionVotingContract is BaseVotingCounterOfferContract {\n    //This is the struct that contains the reward data of the contribution\n    struct ContributionReward {\n        address requester;\n        uint256 contributionId;\n        uint256 recordId;\n        uint256 ballotId;\n        uint256 communityReward;\n        uint256 communityTokenId;\n        uint256 governanceReward;\n        uint256 governanceTokenId;\n        bool isPresent;\n    }\n\n    //CounterOffer also known as negotitaion\n    struct CounterOffer {\n        uint256 newCommunityReward;\n        uint256 newGovernanceReward;\n        uint256 status; //either ACCEPTED = 2 | PENDING = 1 | REJECTED = 3\n    }\n\n    event ContributionBallotCreated(\n        address requester,\n        uint256 contributionId,\n        uint256 recordId,\n        uint256 communityReward,\n        uint256 communityTokenId,\n        uint256 governanceReward,\n        uint256 governanceTokenId,\n        uint256 ballotId\n    );\n\n    /**\n        @dev This is when a vote is given by user.\n        @param voter Address of the voter\n        @param contributionId This is the id of the contribution that is linked to this ballot \n        @param ballotId Id of the ballot where voting is stored\n        @param vote State of vote : true for yes and false for No\n     */\n    event ContributionVoting(\n        address voter,\n        uint256 contributionId,\n        uint256 ballotId,\n        bool vote\n    );\n\n    /**\n        @dev this is event which is created when a user proposes counter offer\n        @param contributionId This is the id of the contribution that is linked to this ballot \n        @param voterId This is the id of the voter who's vote it is\n        @param newGovernanceReward This is the new reward amount counter offered by the voter\n        @param newCommunityReward This is the new reward amount counter offered by the voter\n     */\n    event CounterOfferForContribution(\n        uint256 contributionId,\n        address voterId,\n        uint256 newGovernanceReward,\n        uint256 newCommunityReward\n    );\n\n    /**\n        @dev this is event which is created when the owner of the ballot takes action on a specific counter offer\n        @param contributionId This is the id of the contribution that is linked to this ballot \n        @param voterId This is the id of the voter who's vote it is\n        @param newGovernanceReward This is the new reward amount counter offered by the voter\n        @param newCommunityReward This is the new reward amount counter offered by the voter\n        @param status This is the status of the counter offer that is => either ACCEPTED = 2 | REJECTED = 3\n     */\n    event counterOfferAction(\n        uint256 contributionId,\n        address voterId,\n        uint256 newGovernanceReward,\n        uint256 newCommunityReward,\n        uint256 status\n    ); // status will be => either ACCEPTED = 2 | REJECTED = 3\n\n    /**\n        @dev this event is genrated when result of a ballot is declared\n        @param contributionId This is the id of the contribution that is linked to this ballot \n        @param ballotId this is the ballot Id for which result is declared \n        @param result this is the status of the result //either true if user won that is he recived more than 66% of votes or false if user lost \n     */\n    event BallotResult(uint256 contributionId, uint256 ballotId, bool result);\n\n    mapping(uint256 => ContributionReward) rewardMapping;\n    //Bellow mapping is ContributionId => User's address => Counter Offer data\n    mapping(uint256 => mapping(address => CounterOffer)) contributionCounterOfferMap;\n    //This contains all the keys (The key's are users address) of the mapping of the counterOfferMapping.\n    mapping(uint256 => address[]) contributionCounterOfferList;\n    address public CONTRIBUTION_CONTRACT_ADDRESS;\n\n    constructor(uint8 votingInterval) BaseVotingContract() {\n        VOTING_BLOCK_PERIOD = votingInterval;\n    }\n\n    modifier _onlyContributionContract() {\n        require(\n            msg.sender == CONTRIBUTION_CONTRACT_ADDRESS,\n            \"You are not contribution contract\"\n        );\n        _;\n    }\n\n    /**\n     * @dev This function sets the treasury Contract address\n     */\n    function setTreasuryContractAddress(address newTreasuryContractAddress)\n        external\n        _ownerOnly\n    {\n        _setTreasuryContractAddress(newTreasuryContractAddress);\n    }\n\n    /**\n     * @dev Sets the contribution contract address so that the voting ballot for contritbution can be restricted only to a certain contract that is the contribution contract\n     */\n    function setContributionContractAddress(\n        address newContributionContractAddress\n    ) public _ownerOnly {\n        CONTRIBUTION_CONTRACT_ADDRESS = newContributionContractAddress;\n    }\n\n    /**\n     * @dev This function will create a new contribution voting ballot\n     */\n    function createContributionVotingBallot(\n        uint256 contributionId,\n        uint256 recordId,\n        uint256 govReward,\n        uint256 commReward\n    ) public _onlyContributionContract {\n        require(\n            rewardMapping[contributionId].isPresent == false,\n            \"Voting is already created\"\n        );\n\n        uint256 ballotId = _createVoting(true);\n\n        TreasuryContract treasuryContract = TreasuryContract(\n            TREASURY_CONTRACT_ADDRESS\n        );\n\n        uint256 govTokenId = treasuryContract.getCommunityTokenId(recordId);\n        uint256 commTokenId = treasuryContract.getGovernanceTokenId(recordId);\n\n        ContributionReward memory contributionReward = ContributionReward({\n            requester: tx.origin,\n            contributionId: contributionId,\n            recordId: recordId,\n            ballotId: ballotId,\n            communityReward: commReward,\n            communityTokenId: commTokenId,\n            governanceReward: govReward,\n            governanceTokenId: govTokenId,\n            isPresent: true\n        });\n\n        emit ContributionBallotCreated({\n            requester: msg.sender,\n            contributionId: contributionId,\n            recordId: recordId,\n            communityReward: commReward,\n            communityTokenId: commTokenId,\n            governanceReward: govReward,\n            governanceTokenId: govTokenId,\n            ballotId: ballotId\n        });\n\n        rewardMapping[contributionId] = contributionReward;\n    }\n\n    /**\n     * @dev This function is called by any user to cast vote\n     * @param contributionId this is the id of the contribution for which user is voting\n     * @param vote this is the state of the vote, if true than it means the vote is in favour of the ballot\n     */\n    function castVoteForContribution(uint256 contributionId, bool vote) public {\n        require(\n            rewardMapping[contributionId].isPresent == true,\n            \"Invalid contribution id\"\n        );\n        super._castVote(rewardMapping[contributionId].ballotId, vote);\n\n        emit ContributionVoting({\n            contributionId: contributionId,\n            ballotId: rewardMapping[contributionId].ballotId,\n            voter: msg.sender,\n            vote: vote\n        });\n    }\n\n    /**\n     * @dev This function is called by any user to cast vote\n     * @param contributionId this is the id of the contribution for which user is creating a counter offer\n     * @param newCommunityReward new comunity token amount as reward for the negotition\n     * @param newGovernanceReward new governance token amount as reward for the negotition\n     */\n    function proposeCounterOffer(\n        uint256 contributionId,\n        uint256 newCommunityReward,\n        uint256 newGovernanceReward\n    )\n        public\n        _checkIfOwnerAllowed(rewardMapping[contributionId].ballotId)\n        _checkIfBallotIsOpen(rewardMapping[contributionId].ballotId, msg.sender)\n    {\n        _createCounterOffer(rewardMapping[contributionId].ballotId);\n\n        //Create counter offer object and push it into array\n        CounterOffer memory offer = CounterOffer({\n            newCommunityReward: newCommunityReward,\n            newGovernanceReward: newGovernanceReward,\n            status: 1\n        });\n\n        contributionCounterOfferList[contributionId].push(msg.sender);\n        contributionCounterOfferMap[contributionId][msg.sender] = offer;\n\n        emit CounterOfferForContribution(\n            contributionId,\n            msg.sender,\n            offer.newGovernanceReward,\n            offer.newCommunityReward\n        );\n    }\n\n    /**\n     * @dev This function is called by owner of the contribution to either accept or reject a counter offer\n     * @param contributionId this is the id of the contribution to which the counter offer belogs to\n     * @param counterOfferIds The id of counter offers in array to accept or reject multiple counter offers at once\n     * @param action this is the state of the vote, if true than it means that user accepts the counter offfer\n     */\n    function actionOnCounterOffer(\n        uint256 contributionId,\n        address[] memory counterOfferIds,\n        bool action\n    ) public {\n        //only vote once check\n        for (uint256 i = 0; i < counterOfferIds.length; i++) {\n            if (\n                contributionCounterOfferMap[contributionId][counterOfferIds[i]]\n                    .status == 1\n            ) {\n                if (action) {\n                    uint256 newGovernanceReward = contributionCounterOfferMap[\n                        contributionId\n                    ][counterOfferIds[i]].newGovernanceReward;\n                    uint256 newCommunityReward = contributionCounterOfferMap[\n                        contributionId\n                    ][counterOfferIds[i]].newCommunityReward;\n\n                    //Set new reward for the contribution\n                    rewardMapping[contributionId]\n                        .communityReward = newCommunityReward;\n                    rewardMapping[contributionId]\n                        .governanceReward = newGovernanceReward;\n\n                    contributionCounterOfferMap[contributionId][\n                        counterOfferIds[i]\n                    ].status = 2;\n\n                    super._counterOfferAction(\n                        rewardMapping[contributionId].ballotId,\n                        counterOfferIds[i],\n                        true\n                    );\n                    emit counterOfferAction(\n                        contributionId,\n                        counterOfferIds[i],\n                        newGovernanceReward,\n                        newCommunityReward,\n                        2\n                    );\n                } else {\n                    super._counterOfferAction(\n                        rewardMapping[contributionId].ballotId,\n                        counterOfferIds[i],\n                        false\n                    );\n                    //The counter offer ids are the addresses of the user who proposed the offer\n                    contributionCounterOfferMap[contributionId][\n                        counterOfferIds[i]\n                    ].status = 3;\n                }\n            }\n        }\n    }\n\n    /**\n     * @dev This function can be called from external source and also from within the contract\n     * @param contributionId this is the id of the contribution to which the winner is to be decleared\n     */\n    function declareWinner(uint256 contributionId) external {\n        address[] memory counterOfferList = contributionCounterOfferList[\n            contributionId\n        ];\n        for (uint256 i = 0; i < counterOfferList.length; i++) {\n            if (\n                contributionCounterOfferMap[contributionId][counterOfferList[i]]\n                    .status == 1\n            ) {\n                super._counterOfferAction(\n                    rewardMapping[contributionId].ballotId,\n                    counterOfferList[i],\n                    false\n                );\n                //The counter offer ids are the addresses of the user who proposed the offer\n                contributionCounterOfferMap[contributionId][counterOfferList[i]]\n                    .status = 3;\n            }\n        }\n        bool result = _declareWinner(\n            rewardMapping[contributionId].ballotId,\n            rewardMapping[contributionId].governanceTokenId\n        );\n\n        emit BallotResult(\n            contributionId,\n            rewardMapping[contributionId].ballotId,\n            result\n        );\n\n        if (result) {\n            //Transfer the reward amount to user\n            TreasuryContract treasuryContract = TreasuryContract(\n                TREASURY_CONTRACT_ADDRESS\n            );\n            treasuryContract.transferRewardAmount(\n                rewardMapping[contributionId].requester,\n                rewardMapping[contributionId].recordId,\n                contributionId,\n                rewardMapping[contributionId].governanceReward,\n                rewardMapping[contributionId].communityReward\n            );\n        }\n    }\n}\n",
  "sourcePath": "/Users/a1/Desktop/Office/projects/CrowdRecords/Contracts/contracts/voting/ContributionVotingContract.sol",
  "compiler": {
    "name": "solc",
    "version": "0.8.12+commit.f00d7308.Emscripten.clang"
  },
  "schemaVersion": "3.4.6",
  "updatedAt": "2022-07-17T12:21:35.189Z",
  "devdoc": {
    "events": {
      "BallotResult(uint256,uint256,bool)": {
        "details": "this event is genrated when result of a ballot is declared",
        "params": {
          "ballotId": "this is the ballot Id for which result is declared ",
          "contributionId": "This is the id of the contribution that is linked to this ballot ",
          "result": "this is the status of the result //either true if user won that is he recived more than 66% of votes or false if user lost "
        }
      },
      "ContributionVoting(address,uint256,uint256,bool)": {
        "details": "This is when a vote is given by user.",
        "params": {
          "ballotId": "Id of the ballot where voting is stored",
          "contributionId": "This is the id of the contribution that is linked to this ballot ",
          "vote": "State of vote : true for yes and false for No",
          "voter": "Address of the voter"
        }
      },
      "CounterOfferForContribution(uint256,address,uint256,uint256)": {
        "details": "this is event which is created when a user proposes counter offer",
        "params": {
          "contributionId": "This is the id of the contribution that is linked to this ballot ",
          "newCommunityReward": "This is the new reward amount counter offered by the voter",
          "newGovernanceReward": "This is the new reward amount counter offered by the voter",
          "voterId": "This is the id of the voter who's vote it is"
        }
      },
      "counterOfferAction(uint256,address,uint256,uint256,uint256)": {
        "details": "this is event which is created when the owner of the ballot takes action on a specific counter offer",
        "params": {
          "contributionId": "This is the id of the contribution that is linked to this ballot ",
          "newCommunityReward": "This is the new reward amount counter offered by the voter",
          "newGovernanceReward": "This is the new reward amount counter offered by the voter",
          "status": "This is the status of the counter offer that is => either ACCEPTED = 2 | REJECTED = 3",
          "voterId": "This is the id of the voter who's vote it is"
        }
      }
    },
    "kind": "dev",
    "methods": {
      "actionOnCounterOffer(uint256,address[],bool)": {
        "details": "This function is called by owner of the contribution to either accept or reject a counter offer",
        "params": {
          "action": "this is the state of the vote, if true than it means that user accepts the counter offfer",
          "contributionId": "this is the id of the contribution to which the counter offer belogs to",
          "counterOfferIds": "The id of counter offers in array to accept or reject multiple counter offers at once"
        }
      },
      "castVoteForContribution(uint256,bool)": {
        "details": "This function is called by any user to cast vote",
        "params": {
          "contributionId": "this is the id of the contribution for which user is voting",
          "vote": "this is the state of the vote, if true than it means the vote is in favour of the ballot"
        }
      },
      "createContributionVotingBallot(uint256,uint256,uint256,uint256)": {
        "details": "This function will create a new contribution voting ballot"
      },
      "declareWinner(uint256)": {
        "details": "This function can be called from external source and also from within the contract",
        "params": {
          "contributionId": "this is the id of the contribution to which the winner is to be decleared"
        }
      },
      "proposeCounterOffer(uint256,uint256,uint256)": {
        "details": "This function is called by any user to cast vote",
        "params": {
          "contributionId": "this is the id of the contribution for which user is creating a counter offer",
          "newCommunityReward": "new comunity token amount as reward for the negotition",
          "newGovernanceReward": "new governance token amount as reward for the negotition"
        }
      },
      "setContributionContractAddress(address)": {
        "details": "Sets the contribution contract address so that the voting ballot for contritbution can be restricted only to a certain contract that is the contribution contract"
      },
      "setTreasuryContractAddress(address)": {
        "details": "This function sets the treasury Contract address"
      }
    },
    "version": 1
  },
  "userdoc": {
    "kind": "user",
    "methods": {},
    "version": 1
  }
}