{
  "contractName": "ContributionVotingContract",
  "abi": [
    {
      "inputs": [
        {
          "internalType": "uint8",
          "name": "votingInterval",
          "type": "uint8"
        },
        {
          "internalType": "address",
          "name": "owner",
          "type": "address"
        }
      ],
      "stateMutability": "nonpayable",
      "type": "constructor"
    },
    {
      "anonymous": false,
      "inputs": [
        {
          "indexed": false,
          "internalType": "uint256",
          "name": "contributionId",
          "type": "uint256"
        },
        {
          "indexed": false,
          "internalType": "uint256",
          "name": "ballotId",
          "type": "uint256"
        },
        {
          "indexed": false,
          "internalType": "bool",
          "name": "result",
          "type": "bool"
        },
        {
          "indexed": false,
          "internalType": "bool",
          "name": "minTurnOut",
          "type": "bool"
        }
      ],
      "name": "BallotResult",
      "type": "event"
    },
    {
      "anonymous": false,
      "inputs": [
        {
          "indexed": false,
          "internalType": "address",
          "name": "requester",
          "type": "address"
        },
        {
          "indexed": false,
          "internalType": "uint256",
          "name": "contributionId",
          "type": "uint256"
        },
        {
          "indexed": false,
          "internalType": "uint256",
          "name": "recordId",
          "type": "uint256"
        },
        {
          "indexed": false,
          "internalType": "uint256",
          "name": "communityReward",
          "type": "uint256"
        },
        {
          "indexed": false,
          "internalType": "uint256",
          "name": "communityTokenId",
          "type": "uint256"
        },
        {
          "indexed": false,
          "internalType": "uint256",
          "name": "governanceReward",
          "type": "uint256"
        },
        {
          "indexed": false,
          "internalType": "uint256",
          "name": "governanceTokenId",
          "type": "uint256"
        },
        {
          "indexed": false,
          "internalType": "uint256",
          "name": "ballotId",
          "type": "uint256"
        },
        {
          "indexed": false,
          "internalType": "uint256",
          "name": "createdAt",
          "type": "uint256"
        }
      ],
      "name": "ContributionBallotCreated",
      "type": "event"
    },
    {
      "anonymous": false,
      "inputs": [
        {
          "indexed": false,
          "internalType": "address",
          "name": "voter",
          "type": "address"
        },
        {
          "indexed": false,
          "internalType": "uint256",
          "name": "contributionId",
          "type": "uint256"
        },
        {
          "indexed": false,
          "internalType": "uint256",
          "name": "ballotId",
          "type": "uint256"
        },
        {
          "indexed": false,
          "internalType": "bool",
          "name": "vote",
          "type": "bool"
        }
      ],
      "name": "ContributionVoting",
      "type": "event"
    },
    {
      "anonymous": false,
      "inputs": [
        {
          "indexed": false,
          "internalType": "uint256",
          "name": "contributionId",
          "type": "uint256"
        },
        {
          "indexed": false,
          "internalType": "address",
          "name": "voterId",
          "type": "address"
        },
        {
          "indexed": false,
          "internalType": "uint256",
          "name": "newGovernanceReward",
          "type": "uint256"
        },
        {
          "indexed": false,
          "internalType": "uint256",
          "name": "newCommunityReward",
          "type": "uint256"
        }
      ],
      "name": "CounterOfferForContribution",
      "type": "event"
    },
    {
      "anonymous": false,
      "inputs": [
        {
          "indexed": false,
          "internalType": "uint256",
          "name": "value",
          "type": "uint256"
        }
      ],
      "name": "DEBUG",
      "type": "event"
    },
    {
      "anonymous": false,
      "inputs": [
        {
          "indexed": false,
          "internalType": "address",
          "name": "owner",
          "type": "address"
        },
        {
          "indexed": false,
          "internalType": "uint256",
          "name": "ballotId",
          "type": "uint256"
        },
        {
          "indexed": false,
          "internalType": "uint256",
          "name": "depositAmount",
          "type": "uint256"
        }
      ],
      "name": "DepositClaimed",
      "type": "event"
    },
    {
      "anonymous": false,
      "inputs": [
        {
          "indexed": false,
          "internalType": "address",
          "name": "owner",
          "type": "address"
        },
        {
          "indexed": false,
          "internalType": "uint256",
          "name": "ballotId",
          "type": "uint256"
        },
        {
          "indexed": false,
          "internalType": "uint256",
          "name": "depositAmount",
          "type": "uint256"
        },
        {
          "indexed": false,
          "internalType": "bool",
          "name": "isClaimed",
          "type": "bool"
        },
        {
          "indexed": false,
          "internalType": "bool",
          "name": "isPresent",
          "type": "bool"
        }
      ],
      "name": "DepositCreated",
      "type": "event"
    },
    {
      "anonymous": false,
      "inputs": [
        {
          "indexed": false,
          "internalType": "uint8",
          "name": "version",
          "type": "uint8"
        }
      ],
      "name": "Initialized",
      "type": "event"
    },
    {
      "anonymous": false,
      "inputs": [
        {
          "indexed": false,
          "internalType": "uint256",
          "name": "contributionId",
          "type": "uint256"
        },
        {
          "indexed": false,
          "internalType": "address",
          "name": "voterId",
          "type": "address"
        },
        {
          "indexed": false,
          "internalType": "uint256",
          "name": "newGovernanceReward",
          "type": "uint256"
        },
        {
          "indexed": false,
          "internalType": "uint256",
          "name": "newCommunityReward",
          "type": "uint256"
        },
        {
          "indexed": false,
          "internalType": "uint256",
          "name": "status",
          "type": "uint256"
        }
      ],
      "name": "counterOfferAction",
      "type": "event"
    },
    {
      "inputs": [],
      "name": "CONTRIBUTION_CONTRACT_ADDRESS",
      "outputs": [
        {
          "internalType": "address",
          "name": "",
          "type": "address"
        }
      ],
      "stateMutability": "view",
      "type": "function",
      "constant": true
    },
    {
      "inputs": [],
      "name": "GOVERNANCE",
      "outputs": [
        {
          "internalType": "address",
          "name": "",
          "type": "address"
        }
      ],
      "stateMutability": "view",
      "type": "function",
      "constant": true
    },
    {
      "inputs": [],
      "name": "MIN_TURNOUT_PERCENT",
      "outputs": [
        {
          "internalType": "uint256",
          "name": "",
          "type": "uint256"
        }
      ],
      "stateMutability": "view",
      "type": "function",
      "constant": true
    },
    {
      "inputs": [],
      "name": "OWNER",
      "outputs": [
        {
          "internalType": "address",
          "name": "",
          "type": "address"
        }
      ],
      "stateMutability": "view",
      "type": "function",
      "constant": true
    },
    {
      "inputs": [],
      "name": "TREASURY_CONTRACT_ADDRESS",
      "outputs": [
        {
          "internalType": "address",
          "name": "",
          "type": "address"
        }
      ],
      "stateMutability": "view",
      "type": "function",
      "constant": true
    },
    {
      "inputs": [],
      "name": "TREASURY_HUB_ADDRESS",
      "outputs": [
        {
          "internalType": "address",
          "name": "",
          "type": "address"
        }
      ],
      "stateMutability": "view",
      "type": "function",
      "constant": true
    },
    {
      "inputs": [],
      "name": "VOTING_BLOCK_PERIOD",
      "outputs": [
        {
          "internalType": "uint256",
          "name": "",
          "type": "uint256"
        }
      ],
      "stateMutability": "view",
      "type": "function",
      "constant": true
    },
    {
      "inputs": [],
      "name": "VOTING_DEPOSIT",
      "outputs": [
        {
          "internalType": "uint256",
          "name": "",
          "type": "uint256"
        }
      ],
      "stateMutability": "view",
      "type": "function",
      "constant": true
    },
    {
      "inputs": [
        {
          "internalType": "address",
          "name": "user",
          "type": "address"
        },
        {
          "internalType": "uint256",
          "name": "tokenId",
          "type": "uint256"
        },
        {
          "internalType": "uint256",
          "name": "previousBalance",
          "type": "uint256"
        },
        {
          "internalType": "uint256",
          "name": "newBalance",
          "type": "uint256"
        }
      ],
      "name": "_handleUserTokenTransfers",
      "outputs": [],
      "stateMutability": "nonpayable",
      "type": "function"
    },
    {
      "inputs": [
        {
          "internalType": "uint256",
          "name": "",
          "type": "uint256"
        }
      ],
      "name": "depositMap",
      "outputs": [
        {
          "internalType": "address",
          "name": "owner",
          "type": "address"
        },
        {
          "internalType": "uint256",
          "name": "ballotId",
          "type": "uint256"
        },
        {
          "internalType": "uint256",
          "name": "depositAmount",
          "type": "uint256"
        },
        {
          "internalType": "bool",
          "name": "isClaimed",
          "type": "bool"
        },
        {
          "internalType": "bool",
          "name": "isPresent",
          "type": "bool"
        }
      ],
      "stateMutability": "view",
      "type": "function",
      "constant": true
    },
    {
      "inputs": [
        {
          "internalType": "uint256",
          "name": "depositAmount",
          "type": "uint256"
        }
      ],
      "name": "setDepositAmount",
      "outputs": [],
      "stateMutability": "nonpayable",
      "type": "function"
    },
    {
      "inputs": [
        {
          "internalType": "uint256",
          "name": "minTurnOut",
          "type": "uint256"
        }
      ],
      "name": "setMinTurnOut",
      "outputs": [],
      "stateMutability": "nonpayable",
      "type": "function"
    },
    {
      "inputs": [
        {
          "internalType": "address",
          "name": "ownerAddress",
          "type": "address"
        }
      ],
      "name": "setOwnerAddress",
      "outputs": [],
      "stateMutability": "nonpayable",
      "type": "function"
    },
    {
      "inputs": [
        {
          "internalType": "uint256",
          "name": "votingPeriod",
          "type": "uint256"
        }
      ],
      "name": "setVotingPeriod",
      "outputs": [],
      "stateMutability": "nonpayable",
      "type": "function"
    },
    {
      "inputs": [],
      "name": "treasuryContract",
      "outputs": [
        {
          "internalType": "contract ITreasury",
          "name": "",
          "type": "address"
        }
      ],
      "stateMutability": "view",
      "type": "function",
      "constant": true
    },
    {
      "inputs": [
        {
          "internalType": "uint256",
          "name": "",
          "type": "uint256"
        }
      ],
      "name": "votingMap",
      "outputs": [
        {
          "internalType": "address",
          "name": "owner",
          "type": "address"
        },
        {
          "internalType": "uint256",
          "name": "yesWeight",
          "type": "uint256"
        },
        {
          "internalType": "uint256",
          "name": "yesCount",
          "type": "uint256"
        },
        {
          "internalType": "uint256",
          "name": "noWeight",
          "type": "uint256"
        },
        {
          "internalType": "uint256",
          "name": "noCount",
          "type": "uint256"
        },
        {
          "internalType": "uint256",
          "name": "tokenId",
          "type": "uint256"
        },
        {
          "internalType": "uint256",
          "name": "votingEndBlock",
          "type": "uint256"
        },
        {
          "internalType": "bool",
          "name": "isResultDeclared",
          "type": "bool"
        },
        {
          "internalType": "bool",
          "name": "canOwnerVote",
          "type": "bool"
        },
        {
          "internalType": "bool",
          "name": "isPresent",
          "type": "bool"
        }
      ],
      "stateMutability": "view",
      "type": "function",
      "constant": true
    },
    {
      "inputs": [
        {
          "internalType": "address",
          "name": "newTreasuryContractAddress",
          "type": "address"
        },
        {
          "internalType": "address",
          "name": "newGovernanceContractAddress",
          "type": "address"
        }
      ],
      "name": "initialize",
      "outputs": [],
      "stateMutability": "nonpayable",
      "type": "function"
    },
    {
      "inputs": [
        {
          "internalType": "address",
          "name": "newTreasuryContractAddress",
          "type": "address"
        },
        {
          "internalType": "address",
          "name": "newContributionContractAddress",
          "type": "address"
        },
        {
          "internalType": "address",
          "name": "newGovernanceContractAddress",
          "type": "address"
        }
      ],
      "name": "initialize",
      "outputs": [],
      "stateMutability": "nonpayable",
      "type": "function"
    },
    {
      "inputs": [
        {
          "internalType": "address",
          "name": "newContributionContractAddress",
          "type": "address"
        }
      ],
      "name": "setContributionContractAddress",
      "outputs": [],
      "stateMutability": "nonpayable",
      "type": "function"
    },
    {
      "inputs": [
        {
          "internalType": "uint256",
          "name": "contributionId",
          "type": "uint256"
        },
        {
          "internalType": "uint256",
          "name": "recordId",
          "type": "uint256"
        },
        {
          "internalType": "uint256",
          "name": "govReward",
          "type": "uint256"
        },
        {
          "internalType": "uint256",
          "name": "commReward",
          "type": "uint256"
        }
      ],
      "name": "createContributionVotingBallot",
      "outputs": [],
      "stateMutability": "payable",
      "type": "function",
      "payable": true
    },
    {
      "inputs": [
        {
          "internalType": "uint256",
          "name": "contributionId",
          "type": "uint256"
        },
        {
          "internalType": "bool",
          "name": "vote",
          "type": "bool"
        }
      ],
      "name": "castVoteForContribution",
      "outputs": [],
      "stateMutability": "nonpayable",
      "type": "function"
    },
    {
      "inputs": [
        {
          "internalType": "uint256",
          "name": "contributionId",
          "type": "uint256"
        },
        {
          "internalType": "uint256",
          "name": "newCommunityReward",
          "type": "uint256"
        },
        {
          "internalType": "uint256",
          "name": "newGovernanceReward",
          "type": "uint256"
        }
      ],
      "name": "proposeCounterOffer",
      "outputs": [],
      "stateMutability": "nonpayable",
      "type": "function"
    },
    {
      "inputs": [
        {
          "internalType": "uint256",
          "name": "contributionId",
          "type": "uint256"
        },
        {
          "internalType": "address[]",
          "name": "counterOfferIds",
          "type": "address[]"
        },
        {
          "internalType": "bool",
          "name": "action",
          "type": "bool"
        }
      ],
      "name": "actionOnCounterOffer",
      "outputs": [],
      "stateMutability": "nonpayable",
      "type": "function"
    },
    {
      "inputs": [
        {
          "internalType": "uint256",
          "name": "contributionId",
          "type": "uint256"
        }
      ],
      "name": "declareWinner",
      "outputs": [],
      "stateMutability": "nonpayable",
      "type": "function"
    }
  ],
  "bytecode": "0x6080604052662386f26fc1000060015560196002556101f460035560006009553480156200002c57600080fd5b5060405162003914380380620039148339810160408190526200004f916200007b565b600780546001600160a01b0319166001600160a01b039290921691909117905560ff16600255620000ca565b600080604083850312156200008f57600080fd5b825160ff81168114620000a157600080fd5b60208401519092506001600160a01b0381168114620000bf57600080fd5b809150509250929050565b61383a80620000da6000396000f3fe60806040526004361061018a5760003560e01c80636c83244a116100d6578063acb314931161007f578063c9d5914311610059578063c9d59143146105e6578063e1f2e08414610606578063ea0217cf1461062657600080fd5b8063acb3149314610579578063c0c53b8b146105a6578063c679968a146105c657600080fd5b8063879253a3116100b0578063879253a3146105165780638d2ae1f71461052c578063abb7ed7f1461055957600080fd5b80636c83244a146104385780636d8cee561461044e57806383b0b0711461046e57600080fd5b8063251686ed1161013857806333e0ea2e1161011257806333e0ea2e14610302578063485cc9551461032657806363e249c11461034657600080fd5b8063251686ed146102a257806329c50b59146102c2578063331a6bf5146102e257600080fd5b8063117803e311610169578063117803e31461021b578063146278341461024857806318da00111461027557600080fd5b8062c2943c1461018f57806307c505b7146101b15780630d76a88214610208575b600080fd5b34801561019b57600080fd5b506101af6101aa366004613380565b610646565b005b3480156101bd57600080fd5b506013546101de9073ffffffffffffffffffffffffffffffffffffffff1681565b60405173ffffffffffffffffffffffffffffffffffffffff90911681526020015b60405180910390f35b6101af610216366004613399565b6107ad565b34801561022757600080fd5b506007546101de9073ffffffffffffffffffffffffffffffffffffffff1681565b34801561025457600080fd5b506008546101de9073ffffffffffffffffffffffffffffffffffffffff1681565b34801561028157600080fd5b506005546101de9073ffffffffffffffffffffffffffffffffffffffff1681565b3480156102ae57600080fd5b506101af6102bd3660046133e0565b610bea565b3480156102ce57600080fd5b506101af6102dd366004613430565b610ce8565b3480156102ee57600080fd5b506101af6102fd366004613430565b610dd6565b34801561030e57600080fd5b5061031860035481565b6040519081526020016101ff565b34801561033257600080fd5b506101af610341366004613452565b610ec4565b34801561035257600080fd5b506103d1610361366004613380565b600a602052600090815260409020805460018201546002830154600384015460048501546005860154600687015460079097015473ffffffffffffffffffffffffffffffffffffffff909616969495939492939192909160ff80821691610100810482169162010000909104168a565b6040805173ffffffffffffffffffffffffffffffffffffffff909b168b5260208b0199909952978901969096526060880194909452608087019290925260a086015260c0850152151560e084015215156101008301521515610120820152610140016101ff565b34801561044457600080fd5b5061031860025481565b34801561045a57600080fd5b506101af610469366004613380565b610f69565b34801561047a57600080fd5b506104d3610489366004613380565b600d60205260009081526040902080546001820154600283015460039093015473ffffffffffffffffffffffffffffffffffffffff90921692909160ff8082169161010090041685565b6040805173ffffffffffffffffffffffffffffffffffffffff9096168652602086019490945292840191909152151560608301521515608082015260a0016101ff565b34801561052257600080fd5b5061031860015481565b34801561053857600080fd5b506006546101de9073ffffffffffffffffffffffffffffffffffffffff1681565b34801561056557600080fd5b506101af61057436600461347c565b610fef565b34801561058557600080fd5b506004546101de9073ffffffffffffffffffffffffffffffffffffffff1681565b3480156105b257600080fd5b506101af6105c13660046134b5565b6111ad565b3480156105d257600080fd5b506101af6105e13660046134f8565b61142b565b3480156105f257600080fd5b506101af610601366004613553565b611818565b34801561061257600080fd5b506101af610621366004613380565b611b72565b34801561063257600080fd5b506101af610641366004613380565b611bf8565b600081815260106020526040812060030154819061066390611c7e565b600085815260106020526040902060030154919350915061068390611f9c565b6000838152601060209081526040918290206003015482518681529182015283151581830152821515606082015290517f7b7d19f699325ae81c9f5b02d9a08153f08bbfd136d6a798d64f33c8d7989b249181900360800190a181156107a85760048054600085815260106020526040908190208054600282015460068301549286015493517f8388f41300000000000000000000000000000000000000000000000000000000815273ffffffffffffffffffffffffffffffffffffffff928316968101969096526024860152604485018890526064850191909152608484019190915216908190638388f4139060a401600060405180830381600087803b15801561078e57600080fd5b505af11580156107a2573d6000803e3d6000fd5b50505050505b505050565b60135473ffffffffffffffffffffffffffffffffffffffff163314610859576040517f08c379a000000000000000000000000000000000000000000000000000000000815260206004820152602860248201527f554e415554484f52495a45443a204f4e4c595f434f4e545249425554494f4e5f60448201527f434f4e545241435400000000000000000000000000000000000000000000000060648201526084015b60405180910390fd5b60008481526010602052604090206008015460ff16156108d5576040517f08c379a000000000000000000000000000000000000000000000000000000000815260206004820152601f60248201527f494e56414c49443a2042414c4c4f545f414c52454144595f43524541544544006044820152606401610850565b600480546040517f2d4a038200000000000000000000000000000000000000000000000000000000815291820185905273ffffffffffffffffffffffffffffffffffffffff16906000908290632d4a038290602401602060405180830381865afa158015610947573d6000803e3d6000fd5b505050506040513d601f19601f8201168201806040525081019061096b9190613649565b6040517fd6ca40a70000000000000000000000000000000000000000000000000000000081526004810187905290915060009073ffffffffffffffffffffffffffffffffffffffff84169063d6ca40a790602401602060405180830381865afa1580156109dc573d6000803e3d6000fd5b505050506040513d601f19601f82011682018060405250810190610a009190613649565b90506000610a0f6001846121e3565b9050610a1c3234836123a8565b60006040518061012001604052803273ffffffffffffffffffffffffffffffffffffffff1681526020018a81526020018981526020018381526020018781526020018481526020018881526020018581526020016001151581525090507fc79af575e0eb9d9716075ecf94ae7da69b2baa8e86cdf0023f0ba158f35b7192338a8a89878c8a8942604051610b0a9998979695949392919073ffffffffffffffffffffffffffffffffffffffff999099168952602089019790975260408801959095526060870193909352608086019190915260a085015260c084015260e08301526101008201526101200190565b60405180910390a16000988952601060209081526040998a9020825181547fffffffffffffffffffffffff00000000000000000000000000000000000000001673ffffffffffffffffffffffffffffffffffffffff9091161781559082015160018201559881015160028a0155606081015160038a0155608081015160048a015560a081015160058a015560c081015160068a015560e081015160078a01556101000151600890980180547fffffffffffffffffffffffffffffffffffffffffffffffffffffffffffffff00169815159890981790975550505050505050565b60008281526010602052604090206008015460ff161515600114610c6a576040517f08c379a000000000000000000000000000000000000000000000000000000000815260206004820152601860248201527f494e56414c49443a20434f4e545249425554494f4e5f494400000000000000006044820152606401610850565b600082815260106020526040902060030154610c86908261257a565b6000828152601060209081526040918290206003015482513381529182018590529181019190915281151560608201527fc94df962ce83bb9f5099c0364215ad4932ed320a795c370dc62619a373a9518e906080015b60405180910390a15050565b60075473ffffffffffffffffffffffffffffffffffffffff163314610d8f576040517f08c379a000000000000000000000000000000000000000000000000000000000815260206004820152602360248201527f554e415554484f52495a45443a2043414e4e4f545f504552464f524d5f41435460448201527f494f4e00000000000000000000000000000000000000000000000000000000006064820152608401610850565b601380547fffffffffffffffffffffffff00000000000000000000000000000000000000001673ffffffffffffffffffffffffffffffffffffffff92909216919091179055565b60075473ffffffffffffffffffffffffffffffffffffffff163314610e7d576040517f08c379a000000000000000000000000000000000000000000000000000000000815260206004820152602360248201527f554e415554484f52495a45443a2043414e4e4f545f504552464f524d5f41435460448201527f494f4e00000000000000000000000000000000000000000000000000000000006064820152608401610850565b600780547fffffffffffffffffffffffff00000000000000000000000000000000000000001673ffffffffffffffffffffffffffffffffffffffff92909216919091179055565b600054610100900460ff16610f5b576040517f08c379a000000000000000000000000000000000000000000000000000000000815260206004820152602b60248201527f496e697469616c697a61626c653a20636f6e7472616374206973206e6f74206960448201527f6e697469616c697a696e670000000000000000000000000000000000000000006064820152608401610850565b610f65828261260a565b5050565b60085473ffffffffffffffffffffffffffffffffffffffff163314610fea576040517f08c379a000000000000000000000000000000000000000000000000000000000815260206004820152601d60248201527f554e415554484f52495a45443a204f4e4c595f474f5645524e414e43450000006044820152606401610850565b600155565b73ffffffffffffffffffffffffffffffffffffffff84166000908152600e60205260408120905b81548110156111a557600a600083838154811061103557611035613662565b6000918252602080832090910154835282019290925260400190206007015460ff16151560011480611098575043600a600084848154811061107957611079613662565b9060005260206000200154815260200190815260200160002060060154105b1561113157815482906110ad906001906136c0565b815481106110bd576110bd613662565b90600052602060002001548282815481106110da576110da613662565b9060005260206000200181905550818054806110f8576110f86136d7565b60019003818190600052602060002001600090559055806000141561111f57506000611193565b8061112981613706565b915050611193565b600a600083838154811061114757611147613662565b90600052602060002001548152602001908152602001600020600501548514156111935761119382828154811061118057611180613662565b9060005260206000200154878686612701565b8061119d8161373b565b915050611016565b505050505050565b600054610100900460ff16158080156111cd5750600054600160ff909116105b806111e75750303b1580156111e7575060005460ff166001145b611273576040517f08c379a000000000000000000000000000000000000000000000000000000000815260206004820152602e60248201527f496e697469616c697a61626c653a20636f6e747261637420697320616c72656160448201527f647920696e697469616c697a65640000000000000000000000000000000000006064820152608401610850565b600080547fffffffffffffffffffffffffffffffffffffffffffffffffffffffffffffff0016600117905580156112d157600080547fffffffffffffffffffffffffffffffffffffffffffffffffffffffffffff00ff166101001790555b60075473ffffffffffffffffffffffffffffffffffffffff163314611378576040517f08c379a000000000000000000000000000000000000000000000000000000000815260206004820152602360248201527f554e415554484f52495a45443a2043414e4e4f545f504552464f524d5f41435460448201527f494f4e00000000000000000000000000000000000000000000000000000000006064820152608401610850565b6113828483610ec4565b601380547fffffffffffffffffffffffff00000000000000000000000000000000000000001673ffffffffffffffffffffffffffffffffffffffff8516179055801561142557600080547fffffffffffffffffffffffffffffffffffffffffffffffffffffffffffff00ff169055604051600181527f7f26b83ff96e1f2b6a682f133852f6798a09c465da95921460cefb38474024989060200160405180910390a15b50505050565b600083815260106020908152604080832060030154808452600a90925290912060070154610100900460ff16156114e5576000818152600b6020908152604080832032845290915290205460ff16156114e0576040517f08c379a000000000000000000000000000000000000000000000000000000000815260206004820152601660248201527f494e56414c49443a20414c52454144595f564f544544000000000000000000006044820152606401610850565b611573565b6000818152600a602052604090205473ffffffffffffffffffffffffffffffffffffffff16321415611573576040517f08c379a000000000000000000000000000000000000000000000000000000000815260206004820152601f60248201527f554e415554484f52495a45443a204f574e45525f43414e4e4f545f564f5445006044820152606401610850565b600084815260106020908152604080832060030154808452600a90925290912060070154339062010000900460ff16151560011461160d576040517f08c379a000000000000000000000000000000000000000000000000000000000815260206004820152601960248201527f494e56414c49443a2042414c4c4f545f4e4f545f464f554e44000000000000006044820152606401610850565b6000828152600a60205260409020600601544310611687576040517f08c379a000000000000000000000000000000000000000000000000000000000815260206004820152601960248201527f494e56414c49443a20564f54494e475f54494d455f4f564552000000000000006044820152606401610850565b6000828152600b6020908152604080832073ffffffffffffffffffffffffffffffffffffffff8516845290915290205460ff1615611721576040517f08c379a000000000000000000000000000000000000000000000000000000000815260206004820152601660248201527f494e56414c49443a20414c52454144595f564f544544000000000000000000006044820152606401610850565b60008681526010602052604090206003015461173c906128a4565b60408051606080820183528782526020808301888152600184860181815260008d815260128552878120805480850182559082528582200180547fffffffffffffffffffffffff000000000000000000000000000000000000000016339081179091558e82526011865288822081835286529088902087518082559451938101849055915160029092019190915586518d8152938401529482019490945290810192909252907f920106c0a661b88d3e90d906bbcd9e579abab6ff29031cb1cc958ddebae47fb89060800160405180910390a150505050505050565b60005b82518110156114255760116000858152602001908152602001600020600084838151811061184b5761184b613662565b602002602001015173ffffffffffffffffffffffffffffffffffffffff1673ffffffffffffffffffffffffffffffffffffffff1681526020019081526020016000206002015460011415611b60578115611ab5576000848152601160205260408120845182908690859081106118c3576118c3613662565b602002602001015173ffffffffffffffffffffffffffffffffffffffff1673ffffffffffffffffffffffffffffffffffffffff168152602001908152602001600020600101549050600060116000878152602001908152602001600020600086858151811061193457611934613662565b60209081029190910181015173ffffffffffffffffffffffffffffffffffffffff1682528181019290925260409081016000908120548982526010845282822060048101829055600601869055601190935290812087519293506002929091908890879081106119a6576119a6613662565b602002602001015173ffffffffffffffffffffffffffffffffffffffff1673ffffffffffffffffffffffffffffffffffffffff16815260200190815260200160002060020181905550611a2a6010600088815260200190815260200160002060030154868581518110611a1b57611a1b613662565b60200260200101516001612b0f565b7fd992f385523dde33af41e13ab8ac788e6a9d7bf3278f3a70d16c150ff43115e586868581518110611a5e57611a5e613662565b6020908102919091018101516040805193845273ffffffffffffffffffffffffffffffffffffffff909116918301919091528101849052606081018390526002608082015260a00160405180910390a15050611b60565b611af06010600086815260200190815260200160002060030154848381518110611ae157611ae1613662565b60200260200101516000612b0f565b6000848152601160205260408120845160039290869085908110611b1657611b16613662565b602002602001015173ffffffffffffffffffffffffffffffffffffffff1673ffffffffffffffffffffffffffffffffffffffff168152602001908152602001600020600201819055505b80611b6a8161373b565b91505061181b565b60085473ffffffffffffffffffffffffffffffffffffffff163314611bf3576040517f08c379a000000000000000000000000000000000000000000000000000000000815260206004820152601d60248201527f554e415554484f52495a45443a204f4e4c595f474f5645524e414e43450000006044820152606401610850565b600355565b60085473ffffffffffffffffffffffffffffffffffffffff163314611c79576040517f08c379a000000000000000000000000000000000000000000000000000000000815260206004820152601d60248201527f554e415554484f52495a45443a204f4e4c595f474f5645524e414e43450000006044820152606401610850565b600255565b6000818152600a6020526040812060070154819062010000900460ff161515600114611d06576040517f08c379a000000000000000000000000000000000000000000000000000000000815260206004820152601960248201527f494e56414c49443a2042414c4c4f545f4e4f545f464f554e44000000000000006044820152606401610850565b6000838152600a60205260409020600601544311611d80576040517f08c379a000000000000000000000000000000000000000000000000000000000815260206004820152601d60248201527f494e56414c49443a20564f54494e475f54494d455f4e4f545f4f5645520000006044820152606401610850565b6000838152600a602052604090206007015460ff1615611dfc576040517f08c379a000000000000000000000000000000000000000000000000000000000815260206004820181905260248201527f494e56414c49443a20524553554c545f414c52454144595f4445434c415245446044820152606401610850565b6000838152600a602052604080822060018082015460038301546007840180547fffffffffffffffffffffffffffffffffffffffffffffffffffffffffffffff0016909317909255600580549084015494517f036c22ad000000000000000000000000000000000000000000000000000000008152939591949293919273ffffffffffffffffffffffffffffffffffffffff9091169163036c22ad91611ea89160040190815260200190565b602060405180830381865afa158015611ec5573d6000803e3d6000fd5b505050506040513d601f19601f82011682018060405250810190611ee99190613649565b9050600060648060035484611efe9190613774565b611f0891906137b1565b611f1291906137b1565b905080611f1f85856137ec565b1115611f8c578315611f7b5760006064611f3985876137ec565b611f44906042613774565b611f4e91906137b1565b905080851115611f6957506001988998509650505050505050565b50600098600198509650505050505050565b506000976001975095505050505050565b5060009788975095505050505050565b6000818152600d602052604090206003015460ff610100909104161515600114612022576040517f08c379a000000000000000000000000000000000000000000000000000000000815260206004820152600d60248201527f4445505f4e4f545f4558495354000000000000000000000000000000000000006044820152606401610850565b6000818152600d602052604090206003015460ff161561209e576040517f08c379a000000000000000000000000000000000000000000000000000000000815260206004820152601360248201527f4445505f414c52454144595f434c41494d4544000000000000000000000000006044820152606401610850565b6000818152600d60205260408082208054600290910154915173ffffffffffffffffffffffffffffffffffffffff90911691908381818185875af1925050503d8060008114612109576040519150601f19603f3d011682016040523d82523d6000602084013e61210e565b606091505b5050905080612179576040517f08c379a000000000000000000000000000000000000000000000000000000000815260206004820152600d60248201527f494e565f4445505f434c41494d000000000000000000000000000000000000006044820152606401610850565b6000828152600d60209081526040918290208054600290910154835173ffffffffffffffffffffffffffffffffffffffff9092168252918101859052918201527f6b1069552f63b401b74bc71e75594d0a8bc61f7a42998e0f201b78f9aa600d3290606001610cdc565b60098054600091826121f48361373b565b919050555060006040518061014001604052803273ffffffffffffffffffffffffffffffffffffffff168152602001600081526020016000815260200160008152602001600081526020018481526020016002544361225391906137ec565b81526000602080830182905296151560408084019190915260016060938401819052600980548452600a8a5292829020855181547fffffffffffffffffffffffff00000000000000000000000000000000000000001673ffffffffffffffffffffffffffffffffffffffff909116178155988501519089015583015160028801559082015160038701556080820151600487015560a0820151600587015560c0820151600687015560e08201516007909601805461010080850151610120909501517fffffffffffffffffffffffffffffffffffffffffffffffffffffffffffff00009092169815157fffffffffffffffffffffffffffffffffffffffffffffffffffffffffffff00ff1698909817931515909702929092177fffffffffffffffffffffffffffffffffffffffffffffffffffffffffff00ffff16620100009615159690960295909517905550509054919050565b8160015414612413576040517f08c379a000000000000000000000000000000000000000000000000000000000815260206004820152600760248201527f494e565f444550000000000000000000000000000000000000000000000000006044820152606401610850565b6040805160a0808201835273ffffffffffffffffffffffffffffffffffffffff861680835260208084018690526001805485870181905260006060808801829052608080890185905289519687529486018a9052858901929092529084015290820152925191927f58ac581930e3170185d9c86e70eceabd7254c9eee2c1df3b76e38f030645ec3d929081900390910190a16000918252600d6020908152604092839020825181547fffffffffffffffffffffffff00000000000000000000000000000000000000001673ffffffffffffffffffffffffffffffffffffffff9091161781559082015160018201559181015160028301556060810151600390920180546080909201517fffffffffffffffffffffffffffffffffffffffffffffffffffffffffffff00009092169215157fffffffffffffffffffffffffffffffffffffffffffffffffffffffffffff00ff1692909217610100911515919091021790555050565b6000828152600f60209081526040808320338452909152902054829060ff1615612600576040517f08c379a000000000000000000000000000000000000000000000000000000000815260206004820181905260248201527f494e56414c49443a20414c52454144595f434f554e5445525f4f4646455245446044820152606401610850565b6107a88383612c71565b600054610100900460ff166126a1576040517f08c379a000000000000000000000000000000000000000000000000000000000815260206004820152602b60248201527f496e697469616c697a61626c653a20636f6e7472616374206973206e6f74206960448201527f6e697469616c697a696e670000000000000000000000000000000000000000006064820152608401610850565b6004805473ffffffffffffffffffffffffffffffffffffffff9384167fffffffffffffffffffffffff0000000000000000000000000000000000000000918216811790925560058054821690921790915560088054929093169116179055565b6000848152600b6020908152604080832073ffffffffffffffffffffffffffffffffffffffff8716845290915290205460ff1615156001146127c5576040517f08c379a000000000000000000000000000000000000000000000000000000000815260206004820152602560248201527f494e56414c49443a20494e5445524e414c3a20555345525f4841535f4e4f545f60448201527f564f5445440000000000000000000000000000000000000000000000000000006064820152608401610850565b6000848152600c6020908152604080832073ffffffffffffffffffffffffffffffffffffffff8716845290915290205460ff168015612850576000858152600a60205260408120600101805485929061281f9084906136c0565b90915550506000858152600a6020526040812060010180548492906128459084906137ec565b9091555061289d9050565b6000858152600a6020526040812060030180548592906128719084906136c0565b90915550506000858152600a6020526040812060030180548492906128979084906137ec565b90915550505b5050505050565b6000818152600f60209081526040808320338452909152902054819060ff161561292a576040517f08c379a000000000000000000000000000000000000000000000000000000000815260206004820181905260248201527f494e56414c49443a20414c52454144595f434f554e5445525f4f4646455245446044820152606401610850565b6000828152600a60205260409020600701548290339062010000900460ff1615156001146129b4576040517f08c379a000000000000000000000000000000000000000000000000000000000815260206004820152601960248201527f494e56414c49443a2042414c4c4f545f4e4f545f464f554e44000000000000006044820152606401610850565b6000828152600a60205260409020600601544310612a2e576040517f08c379a000000000000000000000000000000000000000000000000000000000815260206004820152601960248201527f494e56414c49443a20564f54494e475f54494d455f4f564552000000000000006044820152606401610850565b6000828152600b6020908152604080832073ffffffffffffffffffffffffffffffffffffffff8516845290915290205460ff1615612ac8576040517f08c379a000000000000000000000000000000000000000000000000000000000815260206004820152601660248201527f494e56414c49443a20414c52454144595f564f544544000000000000000000006044820152606401610850565b5050506000908152600f60209081526040808320338452909152902080547fffffffffffffffffffffffffffffffffffffffffffffffffffffffffffffff00166001179055565b6000838152600f6020908152604080832073ffffffffffffffffffffffffffffffffffffffff861684529091529020548390839060ff161515600114612bd7576040517f08c379a000000000000000000000000000000000000000000000000000000000815260206004820152602160248201527f494e56414c49443a20434f554e5445525f4f464645525f4e4f545f455849535460448201527f53000000000000000000000000000000000000000000000000000000000000006064820152608401610850565b6000858152600a6020526040902054859073ffffffffffffffffffffffffffffffffffffffff163314612c66576040517f08c379a000000000000000000000000000000000000000000000000000000000815260206004820152601a60248201527f494e56414c49443a204f4e4c595f42414c4c4f545f4f574e45520000000000006044820152606401610850565b6111a5868587612f52565b6000828152600a60205260409020600701548290339062010000900460ff161515600114612cfb576040517f08c379a000000000000000000000000000000000000000000000000000000000815260206004820152601960248201527f494e56414c49443a2042414c4c4f545f4e4f545f464f554e44000000000000006044820152606401610850565b6000828152600a60205260409020600601544310612d75576040517f08c379a000000000000000000000000000000000000000000000000000000000815260206004820152601960248201527f494e56414c49443a20564f54494e475f54494d455f4f564552000000000000006044820152606401610850565b6000828152600b6020908152604080832073ffffffffffffffffffffffffffffffffffffffff8516845290915290205460ff1615612e0f576040517f08c379a000000000000000000000000000000000000000000000000000000000815260206004820152601660248201527f494e56414c49443a20414c52454144595f564f544544000000000000000000006044820152606401610850565b6000848152600a60205260409020600701548490610100900460ff1615612eb9576000818152600b6020908152604080832032845290915290205460ff1615612eb4576040517f08c379a000000000000000000000000000000000000000000000000000000000815260206004820152601660248201527f494e56414c49443a20414c52454144595f564f544544000000000000000000006044820152606401610850565b612f47565b6000818152600a602052604090205473ffffffffffffffffffffffffffffffffffffffff16321415612f47576040517f08c379a000000000000000000000000000000000000000000000000000000000815260206004820152601f60248201527f554e415554484f52495a45443a204f574e45525f43414e4e4f545f564f5445006044820152606401610850565b61289d8585326130f7565b6000838152600a60205260409020600701548390829062010000900460ff161515600114612fdc576040517f08c379a000000000000000000000000000000000000000000000000000000000815260206004820152601960248201527f494e56414c49443a2042414c4c4f545f4e4f545f464f554e44000000000000006044820152606401610850565b6000828152600a60205260409020600601544310613056576040517f08c379a000000000000000000000000000000000000000000000000000000000815260206004820152601960248201527f494e56414c49443a20564f54494e475f54494d455f4f564552000000000000006044820152606401610850565b6000828152600b6020908152604080832073ffffffffffffffffffffffffffffffffffffffff8516845290915290205460ff16156130f0576040517f08c379a000000000000000000000000000000000000000000000000000000000815260206004820152601660248201527f494e56414c49443a20414c52454144595f564f544544000000000000000000006044820152606401610850565b61289d8585855b6000838152600a60209081526040808320815161014081018352815473ffffffffffffffffffffffffffffffffffffffff908116825260018301549482019490945260028201548184015260038201546060820152600480830154608083015260058084015460a08401819052600685015460c085015260079094015460ff808216151560e08601526101008083048216151590860152620100009091041615156101208401525493517efdd58e000000000000000000000000000000000000000000000000000000008152919594939093169262fdd58e926131fd9288920173ffffffffffffffffffffffffffffffffffffffff929092168252602082015260400190565b602060405180830381865afa15801561321a573d6000803e3d6000fd5b505050506040513d601f19601f8201168201806040525081019061323e9190613649565b90508315613299576000858152600a6020526040812060010180548392906132679084906137ec565b90915550506000858152600a6020526040812060020180546001929061328e9084906137ec565b909155506132e79050565b6000858152600a6020526040812060030180548392906132ba9084906137ec565b90915550506000858152600a602052604081206004018054600192906132e19084906137ec565b90915550505b50506000838152600b6020908152604080832073ffffffffffffffffffffffffffffffffffffffff94909416808452938252808320805460017fffffffffffffffffffffffffffffffffffffffffffffffffffffffffffffff009182168117909255878552600c8452828520958552948352818420805490951695151595909517909355600e8152918120805493840181558152200155565b60006020828403121561339257600080fd5b5035919050565b600080600080608085870312156133af57600080fd5b5050823594602084013594506040840135936060013592509050565b803580151581146133db57600080fd5b919050565b600080604083850312156133f357600080fd5b82359150613403602084016133cb565b90509250929050565b803573ffffffffffffffffffffffffffffffffffffffff811681146133db57600080fd5b60006020828403121561344257600080fd5b61344b8261340c565b9392505050565b6000806040838503121561346557600080fd5b61346e8361340c565b91506134036020840161340c565b6000806000806080858703121561349257600080fd5b61349b8561340c565b966020860135965060408601359560600135945092505050565b6000806000606084860312156134ca57600080fd5b6134d38461340c565b92506134e16020850161340c565b91506134ef6040850161340c565b90509250925092565b60008060006060848603121561350d57600080fd5b505081359360208301359350604090920135919050565b7f4e487b7100000000000000000000000000000000000000000000000000000000600052604160045260246000fd5b60008060006060848603121561356857600080fd5b8335925060208085013567ffffffffffffffff8082111561358857600080fd5b818701915087601f83011261359c57600080fd5b8135818111156135ae576135ae613524565b8060051b6040517fffffffffffffffffffffffffffffffffffffffffffffffffffffffffffffffe0603f830116810181811085821117156135f1576135f1613524565b60405291825284820192508381018501918a83111561360f57600080fd5b938501935b82851015613634576136258561340c565b84529385019392850192613614565b8097505050505050506134ef604085016133cb565b60006020828403121561365b57600080fd5b5051919050565b7f4e487b7100000000000000000000000000000000000000000000000000000000600052603260045260246000fd5b7f4e487b7100000000000000000000000000000000000000000000000000000000600052601160045260246000fd5b6000828210156136d2576136d2613691565b500390565b7f4e487b7100000000000000000000000000000000000000000000000000000000600052603160045260246000fd5b60008161371557613715613691565b507fffffffffffffffffffffffffffffffffffffffffffffffffffffffffffffffff0190565b60007fffffffffffffffffffffffffffffffffffffffffffffffffffffffffffffffff82141561376d5761376d613691565b5060010190565b6000817fffffffffffffffffffffffffffffffffffffffffffffffffffffffffffffffff04831182151516156137ac576137ac613691565b500290565b6000826137e7577f4e487b7100000000000000000000000000000000000000000000000000000000600052601260045260246000fd5b500490565b600082198211156137ff576137ff613691565b50019056fea2646970667358221220bee9541dadda9ec799c7d13b505f38c43e06b215af586ff513eab51417111e2d64736f6c634300080c0033",
  "immutableReferences": {},
  "source": "// SPDX-License-Identifier: MIT\npragma solidity ^0.8.0;\n\nimport \"./BaseVotingCounterOfferContract.sol\";\nimport \"../interface/ITreasury.sol\";\n\ncontract ContributionVotingContract is BaseVotingCounterOfferContract {\n    /// @dev This structure will hold the data for contribution rewards\n    /// @param requester This is the person who has contributed and is seeking for reward\n    /// @param contributionId This is the contribution id\n    /// @param recordId This is the record id to which the reward belongs to\n    /// @param ballotId This is the ballot id of the reward\n    /// @param communityReward This is the community reward amount\n    /// @param communityTokenId This is the id of community token\n    /// @param governanceReward This is the amount of governance token requested as reward\n    /// @param governanceTokenId This is the id of governance token\n    /// @param isPresent This is to check if a contribution is present for a specific contribution\n    struct ContributionReward {\n        address requester;\n        uint256 contributionId;\n        uint256 recordId;\n        uint256 ballotId;\n        uint256 communityReward;\n        uint256 communityTokenId;\n        uint256 governanceReward;\n        uint256 governanceTokenId;\n        bool isPresent;\n    }\n\n    /// @dev This structure will hold the data for contribution rewards\n    /// @param newCommunityReward This is the community reward amount\n    /// @param newGovernanceReward This is the amount of governance token requested as reward\n    /// @param status This is status of the offer that is either : PENDING = 1 | ACCEPTED = 2 | REJECTED = 3\n    struct CounterOffer {\n        uint256 newCommunityReward;\n        uint256 newGovernanceReward;\n        uint256 status;\n    }\n\n    /// @notice This event is emitted when a contribution ballot is created by a user and it hold the following details\n    /// @dev This event is emitted during contribution ballot creation\n    /// @param requester This is the person who has contributed and is seeking for reward\n    /// @param contributionId This is the contribution id\n    /// @param recordId This is the record id to which the reward belongs to\n    /// @param communityReward This is the community reward amount\n    /// @param communityTokenId This is the id of community token\n    /// @param governanceReward This is the amount of governance token requested as reward\n    /// @param governanceTokenId This is the id of governance token\n    /// @param ballotId This is the ballot id of the reward\n    /// @param createdAt time when the ballot was created\n    event ContributionBallotCreated(\n        address requester,\n        uint256 contributionId,\n        uint256 recordId,\n        uint256 communityReward,\n        uint256 communityTokenId,\n        uint256 governanceReward,\n        uint256 governanceTokenId,\n        uint256 ballotId,\n        uint256 createdAt\n    );\n\n    /// @dev This is when a vote is given by user.\n    /// @param voter Address of the voter\n    /// @param contributionId This is the id of the contribution that is linked to this ballot\n    /// @param ballotId Id of the ballot where voting is stored\n    /// @param vote State of vote : true for yes and false for No\n    event ContributionVoting(\n        address voter,\n        uint256 contributionId,\n        uint256 ballotId,\n        bool vote\n    );\n\n    /// @dev this is event which is created when a user proposes counter offer\n    /// @param contributionId This is the id of the contribution that is linked to this ballot\n    /// @param voterId This is the id of the voter who's vote it is\n    /// @param newGovernanceReward This is the new reward amount counter offered by the voter\n    /// @param newCommunityReward This is the new reward amount counter offered by the voter\n    event CounterOfferForContribution(\n        uint256 contributionId,\n        address voterId,\n        uint256 newGovernanceReward,\n        uint256 newCommunityReward\n    );\n\n    /// @dev this is event which is created when the owner of the ballot takes action on a specific counter offer\n    /// @param contributionId This is the id of the contribution that is linked to this ballot\n    /// @param voterId This is the id of the voter who's vote it is\n    /// @param newGovernanceReward This is the new reward amount counter offered by the voter\n    /// @param newCommunityReward This is the new reward amount counter offered by the voter\n    /// @param status This is the status of the counter offer that is => either ACCEPTED = 2 | REJECTED = 3\n    event counterOfferAction(\n        uint256 contributionId,\n        address voterId,\n        uint256 newGovernanceReward,\n        uint256 newCommunityReward,\n        uint256 status\n    );\n\n    /// @dev this event is genrated when result of a ballot is declared\n    /// @param contributionId This is the id of the contribution that is linked to this ballot\n    /// @param ballotId this is the ballot Id for which result is declared\n    /// @param result this is the status of the result, either true if user won that is\n    /// @param minTurnOut this status indicates if minimum amount of user showed up for voting\n    /// he received more than 66% of votes or false if user lost\n    event BallotResult(\n        uint256 contributionId,\n        uint256 ballotId,\n        bool result,\n        bool minTurnOut\n    );\n\n    mapping(uint256 => ContributionReward) rewardMapping;\n    //Bellow mapping is ContributionId => User's address => Counter Offer data\n    mapping(uint256 => mapping(address => CounterOffer)) contributionCounterOfferMap;\n    //This contains all the keys (The key's are users address) of the mapping of the counterOfferMapping.\n    mapping(uint256 => address[]) contributionCounterOfferList;\n    address public CONTRIBUTION_CONTRACT_ADDRESS;\n\n    constructor(\n        uint8 votingInterval,\n        address owner\n    ) BaseVotingCounterOfferContract(owner) {\n        VOTING_BLOCK_PERIOD = votingInterval;\n    }\n\n    modifier _onlyContributionContract() {\n        require(\n            msg.sender == CONTRIBUTION_CONTRACT_ADDRESS,\n            \"UNAUTHORIZED: ONLY_CONTRIBUTION_CONTRACT\"\n        );\n        _;\n    }\n\n    /// @dev This is to set the address of the contracts\n    /// @param newTreasuryContractAddress This is the address of new treasury contract\n    /// @param newContributionContractAddress This is the address of new voting hub contract\n    /// @param newGovernanceContractAddress This is the address for the governance contract\n    function initialize(\n        address newTreasuryContractAddress,\n        address newContributionContractAddress,\n        address newGovernanceContractAddress\n    ) public initializer _ownerOnly {\n        BaseVotingCounterOfferContract.initialize(\n            newTreasuryContractAddress,\n            newGovernanceContractAddress\n        );\n        CONTRIBUTION_CONTRACT_ADDRESS = newContributionContractAddress;\n    }\n\n    /// @dev Sets the contribution contract address so that the voting ballot for contribution can\n    /// be restricted only to a certain contract that is the contribution contract\n    function setContributionContractAddress(\n        address newContributionContractAddress\n    ) public _ownerOnly {\n        CONTRIBUTION_CONTRACT_ADDRESS = newContributionContractAddress;\n    }\n\n    /// @dev This function will create a new contribution voting ballot\n    function createContributionVotingBallot(\n        uint256 contributionId,\n        uint256 recordId,\n        uint256 govReward,\n        uint256 commReward\n    ) public payable _onlyContributionContract {\n        require(\n            rewardMapping[contributionId].isPresent == false,\n            \"INVALID: BALLOT_ALREADY_CREATED\"\n        );\n\n        ITreasury treasuryContract = ITreasury(TREASURY_CONTRACT_ADDRESS);\n\n        uint256 govTokenId = treasuryContract.getCommunityTokenId(recordId);\n        uint256 commTokenId = treasuryContract.getGovernanceTokenId(recordId);\n\n        uint256 ballotId = _createVoting(true, govTokenId);\n        _createDeposit(tx.origin, msg.value, ballotId);\n\n        ContributionReward memory contributionReward = ContributionReward({\n            requester: tx.origin,\n            contributionId: contributionId,\n            recordId: recordId,\n            ballotId: ballotId,\n            communityReward: commReward,\n            communityTokenId: commTokenId,\n            governanceReward: govReward,\n            governanceTokenId: govTokenId,\n            isPresent: true\n        });\n\n        emit ContributionBallotCreated({\n            requester: msg.sender,\n            contributionId: contributionId,\n            recordId: recordId,\n            communityReward: commReward,\n            communityTokenId: commTokenId,\n            governanceReward: govReward,\n            governanceTokenId: govTokenId,\n            ballotId: ballotId,\n            createdAt: block.timestamp\n        });\n\n        rewardMapping[contributionId] = contributionReward;\n    }\n\n    /// @dev This function is called by any user to cast vote\n    /// @param contributionId this is the id of the contribution for which user is voting\n    /// @param vote this is the state of the vote, if true than it means the vote is in favour of the ballot\n    function castVoteForContribution(uint256 contributionId, bool vote) public {\n        require(\n            rewardMapping[contributionId].isPresent == true,\n            \"INVALID: CONTRIBUTION_ID\"\n        );\n        super._castVote(rewardMapping[contributionId].ballotId, vote);\n\n        emit ContributionVoting({\n            contributionId: contributionId,\n            ballotId: rewardMapping[contributionId].ballotId,\n            voter: msg.sender,\n            vote: vote\n        });\n    }\n\n    /// @dev This function is called by any user to cast vote\n    /// @param contributionId this is the id of the contribution for which user is creating a counter offer\n    /// @param newCommunityReward new community token amount as reward for the negotiation\n    /// @param newGovernanceReward new governance token amount as reward for the negotiation\n    function proposeCounterOffer(\n        uint256 contributionId,\n        uint256 newCommunityReward,\n        uint256 newGovernanceReward\n    )\n        public\n        _checkIfOwnerAllowed(rewardMapping[contributionId].ballotId)\n        _checkIfBallotIsOpen(rewardMapping[contributionId].ballotId, msg.sender)\n    {\n        _createCounterOffer(rewardMapping[contributionId].ballotId);\n\n        //Create counter offer object and push it into array\n        CounterOffer memory offer = CounterOffer({\n            newCommunityReward: newCommunityReward,\n            newGovernanceReward: newGovernanceReward,\n            status: 1\n        });\n\n        contributionCounterOfferList[contributionId].push(msg.sender);\n        contributionCounterOfferMap[contributionId][msg.sender] = offer;\n\n        emit CounterOfferForContribution(\n            contributionId,\n            msg.sender,\n            offer.newGovernanceReward,\n            offer.newCommunityReward\n        );\n    }\n\n    /// @dev This function is called by owner of the contribution to either accept or reject a counter offer\n    /// @param contributionId this is the id of the contribution to which the counter offer belongs to\n    /// @param counterOfferIds The id of counter offers in array to accept or reject multiple counter offers at once\n    /// @param action this is the state of the vote, if true than it means that user accepts the counter offer\n    function actionOnCounterOffer(\n        uint256 contributionId,\n        address[] memory counterOfferIds,\n        bool action\n    ) public {\n        //only vote once check\n        for (uint256 i = 0; i < counterOfferIds.length; i++) {\n            if (\n                contributionCounterOfferMap[contributionId][counterOfferIds[i]]\n                    .status == 1\n            ) {\n                if (action) {\n                    uint256 newGovernanceReward = contributionCounterOfferMap[\n                        contributionId\n                    ][counterOfferIds[i]].newGovernanceReward;\n                    uint256 newCommunityReward = contributionCounterOfferMap[\n                        contributionId\n                    ][counterOfferIds[i]].newCommunityReward;\n\n                    //Set new reward for the contribution\n                    rewardMapping[contributionId]\n                        .communityReward = newCommunityReward;\n                    rewardMapping[contributionId]\n                        .governanceReward = newGovernanceReward;\n\n                    contributionCounterOfferMap[contributionId][\n                        counterOfferIds[i]\n                    ].status = 2;\n\n                    super._counterOfferAction(\n                        rewardMapping[contributionId].ballotId,\n                        counterOfferIds[i],\n                        true\n                    );\n                    emit counterOfferAction(\n                        contributionId,\n                        counterOfferIds[i],\n                        newGovernanceReward,\n                        newCommunityReward,\n                        2\n                    );\n                } else {\n                    super._counterOfferAction(\n                        rewardMapping[contributionId].ballotId,\n                        counterOfferIds[i],\n                        false\n                    );\n                    //The counter offer ids are the addresses of the user who proposed the offer\n                    contributionCounterOfferMap[contributionId][\n                        counterOfferIds[i]\n                    ].status = 3;\n                }\n            }\n        }\n    }\n\n    /// @dev This function can be called from external source and also from within the contract\n    /// @param contributionId this is the id of the contribution to which the winner is to be declared\n    function declareWinner(uint256 contributionId) external {\n        // address[] memory counterOfferList = contributionCounterOfferList[\n        //     contributionId\n        // ];\n\n        //! we should remove the below for loop as we don't need loop through all the offers\n        //! as we are only calculating the votes that are accepted and rest are considered as false\n        // for (uint256 i = 0; i < counterOfferList.length; i++) {\n        //     if (\n        //         contributionCounterOfferMap[contributionId][counterOfferList[i]]\n        //             .status == 1\n        //     ) {\n        //         super._counterOfferAction(\n        //             rewardMapping[contributionId].ballotId,\n        //             counterOfferList[i],\n        //             false\n        //         );\n        //         //The counter offer ids are the addresses of the user who proposed the offer\n        //         contributionCounterOfferMap[contributionId][counterOfferList[i]]\n        //             .status = 3;\n        //     }\n        // }\n        (bool result, bool minTurnOut) = _declareWinner(\n            rewardMapping[contributionId].ballotId\n        );\n        _releaseDeposit(rewardMapping[contributionId].ballotId);\n\n        emit BallotResult(\n            contributionId,\n            rewardMapping[contributionId].ballotId,\n            result,\n            minTurnOut\n        );\n\n        if (result) {\n            //Transfer the reward amount to user\n            ITreasury treasuryContract = ITreasury(TREASURY_CONTRACT_ADDRESS);\n            treasuryContract.transferRewardAmount(\n                rewardMapping[contributionId].requester,\n                rewardMapping[contributionId].recordId,\n                contributionId,\n                rewardMapping[contributionId].governanceReward,\n                rewardMapping[contributionId].communityReward\n            );\n        }\n    }\n}\n",
  "sourcePath": "/Users/a1/Desktop/Office/projects/CrowdRecords/Contracts/contracts/voting/ContributionVotingContract.sol",
  "compiler": {
    "name": "solc",
    "version": "0.8.12+commit.f00d7308.Emscripten.clang"
  },
  "schemaVersion": "3.4.6",
  "updatedAt": "2023-05-17T12:27:25.801Z",
  "networkType": "ethereum",
  "devdoc": {
    "events": {
      "BallotResult(uint256,uint256,bool,bool)": {
        "details": "this event is genrated when result of a ballot is declared",
        "params": {
          "ballotId": "this is the ballot Id for which result is declared",
          "contributionId": "This is the id of the contribution that is linked to this ballot",
          "minTurnOut": "this status indicates if minimum amount of user showed up for voting he received more than 66% of votes or false if user lost",
          "result": "this is the status of the result, either true if user won that is"
        }
      },
      "ContributionBallotCreated(address,uint256,uint256,uint256,uint256,uint256,uint256,uint256,uint256)": {
        "details": "This event is emitted during contribution ballot creation",
        "params": {
          "ballotId": "This is the ballot id of the reward",
          "communityReward": "This is the community reward amount",
          "communityTokenId": "This is the id of community token",
          "contributionId": "This is the contribution id",
          "createdAt": "time when the ballot was created",
          "governanceReward": "This is the amount of governance token requested as reward",
          "governanceTokenId": "This is the id of governance token",
          "recordId": "This is the record id to which the reward belongs to",
          "requester": "This is the person who has contributed and is seeking for reward"
        }
      },
      "ContributionVoting(address,uint256,uint256,bool)": {
        "details": "This is when a vote is given by user.",
        "params": {
          "ballotId": "Id of the ballot where voting is stored",
          "contributionId": "This is the id of the contribution that is linked to this ballot",
          "vote": "State of vote : true for yes and false for No",
          "voter": "Address of the voter"
        }
      },
      "CounterOfferForContribution(uint256,address,uint256,uint256)": {
        "details": "this is event which is created when a user proposes counter offer",
        "params": {
          "contributionId": "This is the id of the contribution that is linked to this ballot",
          "newCommunityReward": "This is the new reward amount counter offered by the voter",
          "newGovernanceReward": "This is the new reward amount counter offered by the voter",
          "voterId": "This is the id of the voter who's vote it is"
        }
      },
      "counterOfferAction(uint256,address,uint256,uint256,uint256)": {
        "details": "this is event which is created when the owner of the ballot takes action on a specific counter offer",
        "params": {
          "contributionId": "This is the id of the contribution that is linked to this ballot",
          "newCommunityReward": "This is the new reward amount counter offered by the voter",
          "newGovernanceReward": "This is the new reward amount counter offered by the voter",
          "status": "This is the status of the counter offer that is => either ACCEPTED = 2 | REJECTED = 3",
          "voterId": "This is the id of the voter who's vote it is"
        }
      }
    },
    "kind": "dev",
    "methods": {
      "_handleUserTokenTransfers(address,uint256,uint256,uint256)": {
        "details": "This function will be called when either user is transferring the tokens to other account, or is receiving tokens from other tokens.",
        "params": {
          "newBalance": "this is the new balance of the user that is after the transfer",
          "previousBalance": "this is the old balance of the user",
          "user": "address of the user whose balance is being changed"
        }
      },
      "actionOnCounterOffer(uint256,address[],bool)": {
        "details": "This function is called by owner of the contribution to either accept or reject a counter offer",
        "params": {
          "action": "this is the state of the vote, if true than it means that user accepts the counter offer",
          "contributionId": "this is the id of the contribution to which the counter offer belongs to",
          "counterOfferIds": "The id of counter offers in array to accept or reject multiple counter offers at once"
        }
      },
      "castVoteForContribution(uint256,bool)": {
        "details": "This function is called by any user to cast vote",
        "params": {
          "contributionId": "this is the id of the contribution for which user is voting",
          "vote": "this is the state of the vote, if true than it means the vote is in favour of the ballot"
        }
      },
      "createContributionVotingBallot(uint256,uint256,uint256,uint256)": {
        "details": "This function will create a new contribution voting ballot"
      },
      "declareWinner(uint256)": {
        "details": "This function can be called from external source and also from within the contract",
        "params": {
          "contributionId": "this is the id of the contribution to which the winner is to be declared"
        }
      },
      "initialize(address,address)": {
        "details": "This function sets the treasury Contract address",
        "params": {
          "newGovernanceContractAddress": "This is the address for the governance contract",
          "newTreasuryContractAddress": "This is the new address of treasury contract"
        }
      },
      "initialize(address,address,address)": {
        "details": "This is to set the address of the contracts",
        "params": {
          "newContributionContractAddress": "This is the address of new voting hub contract",
          "newGovernanceContractAddress": "This is the address for the governance contract",
          "newTreasuryContractAddress": "This is the address of new treasury contract"
        }
      },
      "proposeCounterOffer(uint256,uint256,uint256)": {
        "details": "This function is called by any user to cast vote",
        "params": {
          "contributionId": "this is the id of the contribution for which user is creating a counter offer",
          "newCommunityReward": "new community token amount as reward for the negotiation",
          "newGovernanceReward": "new governance token amount as reward for the negotiation"
        }
      },
      "setContributionContractAddress(address)": {
        "details": "Sets the contribution contract address so that the voting ballot for contribution can be restricted only to a certain contract that is the contribution contract"
      },
      "setDepositAmount(uint256)": {
        "details": "This function sets the VOTING_DEPOSIT percentage",
        "params": {
          "depositAmount": "This is the new deposit amount needed for creating ballot"
        }
      },
      "setMinTurnOut(uint256)": {
        "details": "This function sets the MIN_TURN_OUT percentage",
        "params": {
          "minTurnOut": "This is the new turnout percentage value"
        }
      },
      "setOwnerAddress(address)": {
        "details": "This function sets the owner address",
        "params": {
          "ownerAddress": "This is the address of the owner"
        }
      },
      "setVotingPeriod(uint256)": {
        "details": "This function sets the VOTING_BLOCK_PERIOD percentage",
        "params": {
          "votingPeriod": "This is the voting period"
        }
      }
    },
    "version": 1
  },
  "userdoc": {
    "events": {
      "ContributionBallotCreated(address,uint256,uint256,uint256,uint256,uint256,uint256,uint256,uint256)": {
        "notice": "This event is emitted when a contribution ballot is created by a user and it hold the following details"
      }
    },
    "kind": "user",
    "methods": {},
    "version": 1
  }
}