{
  "contractName": "ContributionVotingContract",
  "abi": [
    {
      "inputs": [
        {
          "internalType": "uint8",
          "name": "votingInterval",
          "type": "uint8"
        }
      ],
      "stateMutability": "nonpayable",
      "type": "constructor"
    },
    {
      "anonymous": false,
      "inputs": [
        {
          "indexed": false,
          "internalType": "address",
          "name": "requester",
          "type": "address"
        },
        {
          "indexed": false,
          "internalType": "uint256",
          "name": "contributionId",
          "type": "uint256"
        },
        {
          "indexed": false,
          "internalType": "uint256",
          "name": "communityReward",
          "type": "uint256"
        },
        {
          "indexed": false,
          "internalType": "uint256",
          "name": "communityTokenId",
          "type": "uint256"
        },
        {
          "indexed": false,
          "internalType": "uint256",
          "name": "governanceReward",
          "type": "uint256"
        },
        {
          "indexed": false,
          "internalType": "uint256",
          "name": "governanceTokenId",
          "type": "uint256"
        },
        {
          "indexed": false,
          "internalType": "uint256",
          "name": "ballotId",
          "type": "uint256"
        }
      ],
      "name": "ContributionBallotCreated",
      "type": "event"
    },
    {
      "anonymous": false,
      "inputs": [
        {
          "indexed": false,
          "internalType": "address",
          "name": "voter",
          "type": "address"
        },
        {
          "indexed": false,
          "internalType": "uint256",
          "name": "contributionId",
          "type": "uint256"
        },
        {
          "indexed": false,
          "internalType": "uint256",
          "name": "ballotId",
          "type": "uint256"
        },
        {
          "indexed": false,
          "internalType": "bool",
          "name": "vote",
          "type": "bool"
        }
      ],
      "name": "ContributionVoting",
      "type": "event"
    },
    {
      "anonymous": false,
      "inputs": [
        {
          "indexed": false,
          "internalType": "uint256",
          "name": "contributionId",
          "type": "uint256"
        },
        {
          "indexed": false,
          "internalType": "address",
          "name": "voterId",
          "type": "address"
        },
        {
          "indexed": false,
          "internalType": "uint256",
          "name": "newGovernanceReward",
          "type": "uint256"
        },
        {
          "indexed": false,
          "internalType": "uint256",
          "name": "newCommunityReward",
          "type": "uint256"
        }
      ],
      "name": "CounterOfferForContribution",
      "type": "event"
    },
    {
      "anonymous": false,
      "inputs": [
        {
          "indexed": false,
          "internalType": "uint256",
          "name": "contributionId",
          "type": "uint256"
        },
        {
          "indexed": false,
          "internalType": "address",
          "name": "voterId",
          "type": "address"
        },
        {
          "indexed": false,
          "internalType": "uint256",
          "name": "newGovernanceReward",
          "type": "uint256"
        },
        {
          "indexed": false,
          "internalType": "uint256",
          "name": "newCommunityReward",
          "type": "uint256"
        },
        {
          "indexed": false,
          "internalType": "uint256",
          "name": "status",
          "type": "uint256"
        }
      ],
      "name": "counterOfferAction",
      "type": "event"
    },
    {
      "inputs": [],
      "name": "CONTRIBUTION_CONTRACT_ADDRESS",
      "outputs": [
        {
          "internalType": "address",
          "name": "",
          "type": "address"
        }
      ],
      "stateMutability": "view",
      "type": "function"
    },
    {
      "inputs": [],
      "name": "TREASURY_CONTRACT_ADDRESS",
      "outputs": [
        {
          "internalType": "address",
          "name": "",
          "type": "address"
        }
      ],
      "stateMutability": "view",
      "type": "function"
    },
    {
      "inputs": [
        {
          "internalType": "address",
          "name": "newTreasuryContractAddress",
          "type": "address"
        }
      ],
      "name": "setTreasuryContractAddress",
      "outputs": [],
      "stateMutability": "nonpayable",
      "type": "function"
    },
    {
      "inputs": [
        {
          "internalType": "address",
          "name": "newContributionContractAddress",
          "type": "address"
        }
      ],
      "name": "setContributionContractAddress",
      "outputs": [],
      "stateMutability": "nonpayable",
      "type": "function"
    },
    {
      "inputs": [
        {
          "internalType": "uint256",
          "name": "contributionId",
          "type": "uint256"
        },
        {
          "internalType": "uint256",
          "name": "govReward",
          "type": "uint256"
        },
        {
          "internalType": "uint256",
          "name": "govTokenId",
          "type": "uint256"
        },
        {
          "internalType": "uint256",
          "name": "commReward",
          "type": "uint256"
        },
        {
          "internalType": "uint256",
          "name": "commTokenId",
          "type": "uint256"
        }
      ],
      "name": "createContributionVotingBallot",
      "outputs": [],
      "stateMutability": "nonpayable",
      "type": "function"
    },
    {
      "inputs": [
        {
          "internalType": "uint256",
          "name": "contributionId",
          "type": "uint256"
        },
        {
          "internalType": "bool",
          "name": "vote",
          "type": "bool"
        }
      ],
      "name": "castVoteForContribution",
      "outputs": [],
      "stateMutability": "nonpayable",
      "type": "function"
    },
    {
      "inputs": [
        {
          "internalType": "uint256",
          "name": "contributionId",
          "type": "uint256"
        },
        {
          "internalType": "uint256",
          "name": "newCommunityReward",
          "type": "uint256"
        },
        {
          "internalType": "uint256",
          "name": "newGovernanceReward",
          "type": "uint256"
        }
      ],
      "name": "proposeCounterOffer",
      "outputs": [],
      "stateMutability": "nonpayable",
      "type": "function"
    },
    {
      "inputs": [
        {
          "internalType": "uint256",
          "name": "contributionId",
          "type": "uint256"
        },
        {
          "internalType": "address[]",
          "name": "counterOfferIds",
          "type": "address[]"
        },
        {
          "internalType": "bool",
          "name": "action",
          "type": "bool"
        }
      ],
      "name": "actionOnCounterOffer",
      "outputs": [],
      "stateMutability": "nonpayable",
      "type": "function"
    }
  ],
  "bytecode": "0x6080604052601960005560006003553480156200001b57600080fd5b50604051620024b0380380620024b08339818101604052810190620000419190620000d6565b33600260006101000a81548173ffffffffffffffffffffffffffffffffffffffff021916908373ffffffffffffffffffffffffffffffffffffffff1602179055508060ff166000819055505062000108565b600080fd5b600060ff82169050919050565b620000b08162000098565b8114620000bc57600080fd5b50565b600081519050620000d081620000a5565b92915050565b600060208284031215620000ef57620000ee62000093565b5b6000620000ff84828501620000bf565b91505092915050565b61239880620001186000396000f3fe608060405234801561001057600080fd5b50600436106100885760003560e01c80638948b7a21161005b5780638948b7a2146100ff578063acb314931461011b578063c679968a14610139578063c9d591431461015557610088565b806307c505b71461008d578063251686ed146100ab57806329c50b59146100c75780634cf2d48f146100e3575b600080fd5b610095610171565b6040516100a29190611999565b60405180910390f35b6100c560048036038101906100c09190611a36565b610197565b005b6100e160048036038101906100dc9190611aa2565b61020e565b005b6100fd60048036038101906100f89190611aa2565b6102e2565b005b61011960048036038101906101149190611acf565b61037e565b005b610123610553565b6040516101309190611999565b60405180910390f35b610153600480360381019061014e9190611b4a565b610579565b005b61016f600480360381019061016a9190611cf6565b6109f7565b005b600a60009054906101000a900473ffffffffffffffffffffffffffffffffffffffff1681565b6101b7600760008481526020019081526020016000206002015482610d73565b7fc94df962ce83bb9f5099c0364215ad4932ed320a795c370dc62619a373a9518e33836007600086815260200190815260200160002060020154846040516102029493929190611d83565b60405180910390a15050565b600260009054906101000a900473ffffffffffffffffffffffffffffffffffffffff1673ffffffffffffffffffffffffffffffffffffffff163373ffffffffffffffffffffffffffffffffffffffff161461029e576040517f08c379a000000000000000000000000000000000000000000000000000000000815260040161029590611e4b565b60405180910390fd5b80600a60006101000a81548173ffffffffffffffffffffffffffffffffffffffff021916908373ffffffffffffffffffffffffffffffffffffffff16021790555050565b600260009054906101000a900473ffffffffffffffffffffffffffffffffffffffff1673ffffffffffffffffffffffffffffffffffffffff163373ffffffffffffffffffffffffffffffffffffffff1614610372576040517f08c379a000000000000000000000000000000000000000000000000000000000815260040161036990611e4b565b60405180910390fd5b61037b81610e27565b50565b600015156007600087815260200190815260200160002060070160009054906101000a900460ff161515146103e8576040517f08c379a00000000000000000000000000000000000000000000000000000000081526004016103df90611eb7565b60405180910390fd5b60006103f46000610efb565b905060006040518061010001604052803373ffffffffffffffffffffffffffffffffffffffff1681526020018881526020018381526020018581526020018481526020018781526020018681526020016001151581525090507fd00e5183fceb5a3ccb388c8ee6fc2dcad8e3a9b77ad02bb5db74a3dd3e8b8f2c338886868a8a886040516104889796959493929190611ed7565b60405180910390a1806007600089815260200190815260200160002060008201518160000160006101000a81548173ffffffffffffffffffffffffffffffffffffffff021916908373ffffffffffffffffffffffffffffffffffffffff1602179055506020820151816001015560408201518160020155606082015181600301556080820151816004015560a0820151816005015560c0820151816006015560e08201518160070160006101000a81548160ff02191690831515021790555090505050505050505050565b600160009054906101000a900473ffffffffffffffffffffffffffffffffffffffff1681565b60076000848152602001908152602001600020600201546004600082815260200190815260200160002060040160019054906101000a900460ff161561066257600015156005600083815260200190815260200160002060003373ffffffffffffffffffffffffffffffffffffffff1673ffffffffffffffffffffffffffffffffffffffff16815260200190815260200160002060009054906101000a900460ff1615151461065d576040517f08c379a000000000000000000000000000000000000000000000000000000000815260040161065490611f92565b60405180910390fd5b610708565b6004600082815260200190815260200160002060000160009054906101000a900473ffffffffffffffffffffffffffffffffffffffff1673ffffffffffffffffffffffffffffffffffffffff163373ffffffffffffffffffffffffffffffffffffffff161415610707576040517f08c379a00000000000000000000000000000000000000000000000000000000081526004016106fe90611ffe565b60405180910390fd5b5b6007600085815260200190815260200160002060020154600115156004600083815260200190815260200160002060040160029054906101000a900460ff16151514610789576040517f08c379a00000000000000000000000000000000000000000000000000000000081526004016107809061206a565b60405180910390fd5b436004600083815260200190815260200160002060030154116107e1576040517f08c379a00000000000000000000000000000000000000000000000000000000081526004016107d8906120d6565b60405180910390fd5b600015156005600083815260200190815260200160002060003373ffffffffffffffffffffffffffffffffffffffff1673ffffffffffffffffffffffffffffffffffffffff16815260200190815260200160002060009054906101000a900460ff16151514610885576040517f08c379a000000000000000000000000000000000000000000000000000000000815260040161087c90611f92565b60405180910390fd5b6108a46007600087815260200190815260200160002060020154611118565b600060405180606001604052808681526020018581526020016001815250905060096000878152602001908152602001600020339080600181540180825580915050600190039060005260206000200160009091909190916101000a81548173ffffffffffffffffffffffffffffffffffffffff021916908373ffffffffffffffffffffffffffffffffffffffff160217905550806008600088815260200190815260200160002060003373ffffffffffffffffffffffffffffffffffffffff1673ffffffffffffffffffffffffffffffffffffffff1681526020019081526020016000206000820151816000015560208201518160010155604082015181600201559050507f920106c0a661b88d3e90d906bbcd9e579abab6ff29031cb1cc958ddebae47fb88633836020015184600001516040516109e794939291906120f6565b60405180910390a1505050505050565b60005b8251811015610d6d576001600860008681526020019081526020016000206000858481518110610a2d57610a2c61213b565b5b602002602001015173ffffffffffffffffffffffffffffffffffffffff1673ffffffffffffffffffffffffffffffffffffffff168152602001908152602001600020600201541415610d5a578115610ca9576000600860008681526020019081526020016000206000858481518110610aa957610aa861213b565b5b602002602001015173ffffffffffffffffffffffffffffffffffffffff1673ffffffffffffffffffffffffffffffffffffffff1681526020019081526020016000206001015490506000600860008781526020019081526020016000206000868581518110610b1b57610b1a61213b565b5b602002602001015173ffffffffffffffffffffffffffffffffffffffff1673ffffffffffffffffffffffffffffffffffffffff1681526020019081526020016000206000015490508060076000888152602001908152602001600020600301819055508160076000888152602001908152602001600020600501819055506002600860008881526020019081526020016000206000878681518110610bc357610bc261213b565b5b602002602001015173ffffffffffffffffffffffffffffffffffffffff1673ffffffffffffffffffffffffffffffffffffffff16815260200190815260200160002060020181905550610c486007600088815260200190815260200160002060020154868581518110610c3957610c3861213b565b5b6020026020010151600161122a565b7fd992f385523dde33af41e13ab8ac788e6a9d7bf3278f3a70d16c150ff43115e586868581518110610c7d57610c7c61213b565b5b602002602001015184846002604051610c9a9594939291906121af565b60405180910390a15050610d59565b610ce56007600086815260200190815260200160002060020154848381518110610cd657610cd561213b565b5b6020026020010151600061122a565b6003600860008681526020019081526020016000206000858481518110610d0f57610d0e61213b565b5b602002602001015173ffffffffffffffffffffffffffffffffffffffff1673ffffffffffffffffffffffffffffffffffffffff168152602001908152602001600020600201819055505b5b8080610d6590612231565b9150506109fa565b50505050565b81600015156006600083815260200190815260200160002060003373ffffffffffffffffffffffffffffffffffffffff1673ffffffffffffffffffffffffffffffffffffffff16815260200190815260200160002060009054906101000a900460ff16151514610e18576040517f08c379a0000000000000000000000000000000000000000000000000000000008152600401610e0f906122ec565b60405180910390fd5b610e2283836112e0565b505050565b600260009054906101000a900473ffffffffffffffffffffffffffffffffffffffff1673ffffffffffffffffffffffffffffffffffffffff163373ffffffffffffffffffffffffffffffffffffffff1614610eb7576040517f08c379a0000000000000000000000000000000000000000000000000000000008152600401610eae90611e4b565b60405180910390fd5b80600160006101000a81548173ffffffffffffffffffffffffffffffffffffffff021916908373ffffffffffffffffffffffffffffffffffffffff16021790555050565b600060036000815480929190610f1090612231565b919050555060006040518060e001604052803373ffffffffffffffffffffffffffffffffffffffff168152602001600067ffffffffffffffff811115610f5957610f58611bb3565b5b604051908082528060200260200182016040528015610f875781602001602082028036833780820191505090505b508152602001600067ffffffffffffffff811115610fa857610fa7611bb3565b5b604051908082528060200260200182016040528015610fd65781602001602082028036833780820191505090505b50815260200160005443610fea919061230c565b815260200160001515815260200184151581526020016001151581525090508060046000600354815260200190815260200160002060008201518160000160006101000a81548173ffffffffffffffffffffffffffffffffffffffff021916908373ffffffffffffffffffffffffffffffffffffffff16021790555060208201518160010190805190602001906110829291906118b1565b50604082015181600201908051906020019061109f9291906118b1565b506060820151816003015560808201518160040160006101000a81548160ff02191690831515021790555060a08201518160040160016101000a81548160ff02191690831515021790555060c08201518160040160026101000a81548160ff021916908315150217905550905050600354915050919050565b80600015156006600083815260200190815260200160002060003373ffffffffffffffffffffffffffffffffffffffff1673ffffffffffffffffffffffffffffffffffffffff16815260200190815260200160002060009054906101000a900460ff161515146111bd576040517f08c379a00000000000000000000000000000000000000000000000000000000081526004016111b4906122ec565b60405180910390fd5b60016005600084815260200190815260200160002060003373ffffffffffffffffffffffffffffffffffffffff1673ffffffffffffffffffffffffffffffffffffffff16815260200190815260200160002060006101000a81548160ff0219169083151502179055505050565b82600115156006600083815260200190815260200160002060003373ffffffffffffffffffffffffffffffffffffffff1673ffffffffffffffffffffffffffffffffffffffff16815260200190815260200160002060009054906101000a900460ff161515146112cf576040517f08c379a00000000000000000000000000000000000000000000000000000000081526004016112c6906122ec565b60405180910390fd5b6112da8483856115d1565b50505050565b81600115156004600083815260200190815260200160002060040160029054906101000a900460ff1615151461134b576040517f08c379a00000000000000000000000000000000000000000000000000000000081526004016113429061206a565b60405180910390fd5b436004600083815260200190815260200160002060030154116113a3576040517f08c379a000000000000000000000000000000000000000000000000000000000815260040161139a906120d6565b60405180910390fd5b600015156005600083815260200190815260200160002060003373ffffffffffffffffffffffffffffffffffffffff1673ffffffffffffffffffffffffffffffffffffffff16815260200190815260200160002060009054906101000a900460ff16151514611447576040517f08c379a000000000000000000000000000000000000000000000000000000000815260040161143e90611f92565b60405180910390fd5b826004600082815260200190815260200160002060040160019054906101000a900460ff161561151a57600015156005600083815260200190815260200160002060003373ffffffffffffffffffffffffffffffffffffffff1673ffffffffffffffffffffffffffffffffffffffff16815260200190815260200160002060009054906101000a900460ff16151514611515576040517f08c379a000000000000000000000000000000000000000000000000000000000815260040161150c90611f92565b60405180910390fd5b6115c0565b6004600082815260200190815260200160002060000160009054906101000a900473ffffffffffffffffffffffffffffffffffffffff1673ffffffffffffffffffffffffffffffffffffffff163373ffffffffffffffffffffffffffffffffffffffff1614156115bf576040517f08c379a00000000000000000000000000000000000000000000000000000000081526004016115b690611ffe565b60405180910390fd5b5b6115cb848433611749565b50505050565b82600115156004600083815260200190815260200160002060040160029054906101000a900460ff1615151461163c576040517f08c379a00000000000000000000000000000000000000000000000000000000081526004016116339061206a565b60405180910390fd5b43600460008381526020019081526020016000206003015411611694576040517f08c379a000000000000000000000000000000000000000000000000000000000815260040161168b906120d6565b60405180910390fd5b600015156005600083815260200190815260200160002060003373ffffffffffffffffffffffffffffffffffffffff1673ffffffffffffffffffffffffffffffffffffffff16815260200190815260200160002060009054906101000a900460ff16151514611738576040517f08c379a000000000000000000000000000000000000000000000000000000000815260040161172f90611f92565b60405180910390fd5b611743848484611749565b50505050565b81156117cb5760046000848152602001908152602001600020600101339080600181540180825580915050600190039060005260206000200160009091909190916101000a81548173ffffffffffffffffffffffffffffffffffffffff021916908373ffffffffffffffffffffffffffffffffffffffff160217905550611843565b60046000848152602001908152602001600020600201339080600181540180825580915050600190039060005260206000200160009091909190916101000a81548173ffffffffffffffffffffffffffffffffffffffff021916908373ffffffffffffffffffffffffffffffffffffffff1602179055505b60016005600085815260200190815260200160002060003373ffffffffffffffffffffffffffffffffffffffff1673ffffffffffffffffffffffffffffffffffffffff16815260200190815260200160002060006101000a81548160ff021916908315150217905550505050565b82805482825590600052602060002090810192821561192a579160200282015b828111156119295782518260006101000a81548173ffffffffffffffffffffffffffffffffffffffff021916908373ffffffffffffffffffffffffffffffffffffffff160217905550916020019190600101906118d1565b5b509050611937919061193b565b5090565b5b8082111561195457600081600090555060010161193c565b5090565b600073ffffffffffffffffffffffffffffffffffffffff82169050919050565b600061198382611958565b9050919050565b61199381611978565b82525050565b60006020820190506119ae600083018461198a565b92915050565b6000604051905090565b600080fd5b600080fd5b6000819050919050565b6119db816119c8565b81146119e657600080fd5b50565b6000813590506119f8816119d2565b92915050565b60008115159050919050565b611a13816119fe565b8114611a1e57600080fd5b50565b600081359050611a3081611a0a565b92915050565b60008060408385031215611a4d57611a4c6119be565b5b6000611a5b858286016119e9565b9250506020611a6c85828601611a21565b9150509250929050565b611a7f81611978565b8114611a8a57600080fd5b50565b600081359050611a9c81611a76565b92915050565b600060208284031215611ab857611ab76119be565b5b6000611ac684828501611a8d565b91505092915050565b600080600080600060a08688031215611aeb57611aea6119be565b5b6000611af9888289016119e9565b9550506020611b0a888289016119e9565b9450506040611b1b888289016119e9565b9350506060611b2c888289016119e9565b9250506080611b3d888289016119e9565b9150509295509295909350565b600080600060608486031215611b6357611b626119be565b5b6000611b71868287016119e9565b9350506020611b82868287016119e9565b9250506040611b93868287016119e9565b9150509250925092565b600080fd5b6000601f19601f8301169050919050565b7f4e487b7100000000000000000000000000000000000000000000000000000000600052604160045260246000fd5b611beb82611ba2565b810181811067ffffffffffffffff82111715611c0a57611c09611bb3565b5b80604052505050565b6000611c1d6119b4565b9050611c298282611be2565b919050565b600067ffffffffffffffff821115611c4957611c48611bb3565b5b602082029050602081019050919050565b600080fd5b6000611c72611c6d84611c2e565b611c13565b90508083825260208201905060208402830185811115611c9557611c94611c5a565b5b835b81811015611cbe5780611caa8882611a8d565b845260208401935050602081019050611c97565b5050509392505050565b600082601f830112611cdd57611cdc611b9d565b5b8135611ced848260208601611c5f565b91505092915050565b600080600060608486031215611d0f57611d0e6119be565b5b6000611d1d868287016119e9565b935050602084013567ffffffffffffffff811115611d3e57611d3d6119c3565b5b611d4a86828701611cc8565b9250506040611d5b86828701611a21565b9150509250925092565b611d6e816119c8565b82525050565b611d7d816119fe565b82525050565b6000608082019050611d98600083018761198a565b611da56020830186611d65565b611db26040830185611d65565b611dbf6060830184611d74565b95945050505050565b600082825260208201905092915050565b7f596f7520617265206e6f7420617574686f72697a656420666f7220746869732060008201527f616374696f6e0000000000000000000000000000000000000000000000000000602082015250565b6000611e35602683611dc8565b9150611e4082611dd9565b604082019050919050565b60006020820190508181036000830152611e6481611e28565b9050919050565b7f566f74696e6720697320616c7265616479206372656174656400000000000000600082015250565b6000611ea1601983611dc8565b9150611eac82611e6b565b602082019050919050565b60006020820190508181036000830152611ed081611e94565b9050919050565b600060e082019050611eec600083018a61198a565b611ef96020830189611d65565b611f066040830188611d65565b611f136060830187611d65565b611f206080830186611d65565b611f2d60a0830185611d65565b611f3a60c0830184611d65565b98975050505050505050565b7f596f75206861766520616c726561647920766f74656400000000000000000000600082015250565b6000611f7c601683611dc8565b9150611f8782611f46565b602082019050919050565b60006020820190508181036000830152611fab81611f6f565b9050919050565b7f4f776e65722063616e6e6f7420766f7465000000000000000000000000000000600082015250565b6000611fe8601183611dc8565b9150611ff382611fb2565b602082019050919050565b6000602082019050818103600083015261201781611fdb565b9050919050565b7f4e6f2062616c6c6f74207769746820796f757220696420697320666f756e6400600082015250565b6000612054601f83611dc8565b915061205f8261201e565b602082019050919050565b6000602082019050818103600083015261208381612047565b9050919050565b7f566f74696e672074696d65206973206f76657200000000000000000000000000600082015250565b60006120c0601383611dc8565b91506120cb8261208a565b602082019050919050565b600060208201905081810360008301526120ef816120b3565b9050919050565b600060808201905061210b6000830187611d65565b612118602083018661198a565b6121256040830185611d65565b6121326060830184611d65565b95945050505050565b7f4e487b7100000000000000000000000000000000000000000000000000000000600052603260045260246000fd5b6000819050919050565b6000819050919050565b600061219961219461218f8461216a565b612174565b6119c8565b9050919050565b6121a98161217e565b82525050565b600060a0820190506121c46000830188611d65565b6121d1602083018761198a565b6121de6040830186611d65565b6121eb6060830185611d65565b6121f860808301846121a0565b9695505050505050565b7f4e487b7100000000000000000000000000000000000000000000000000000000600052601160045260246000fd5b600061223c826119c8565b91507fffffffffffffffffffffffffffffffffffffffffffffffffffffffffffffffff82141561226f5761226e612202565b5b600182019050919050565b7f596f75206861766520616c726561647920676976656e206120636f756e74657260008201527f206f666665720000000000000000000000000000000000000000000000000000602082015250565b60006122d6602683611dc8565b91506122e18261227a565b604082019050919050565b60006020820190508181036000830152612305816122c9565b9050919050565b6000612317826119c8565b9150612322836119c8565b9250827fffffffffffffffffffffffffffffffffffffffffffffffffffffffffffffffff0382111561235757612356612202565b5b82820190509291505056fea2646970667358221220efb37bd9e21d89716b7fd6733280b405229e0f0aaaae13f52ad5e3f468f870f564736f6c634300080c0033",
  "immutableReferences": {},
  "source": "// SPDX-License-Identifier: MIT\npragma solidity ^0.8.0;\n\nimport \"./BaseVotingCounterOfferContract.sol\";\n\ncontract ContributionVotingContract is BaseVotingCounterOfferContract {\n    //This is the struct that contains the reward data of the contribution\n    struct ContributionReward {\n        address requester;\n        uint256 contributionId;\n        uint256 ballotId;\n        uint256 communityReward;\n        uint256 communityTokenId;\n        uint256 governanceReward;\n        uint256 governanceTokenId;\n        bool isPresent;\n    }\n\n    //CounterOffer also known as negotitaion\n    struct CounterOffer {\n        uint256 newCommunityReward;\n        uint256 newGovernanceReward;\n        uint256 status; //either ACCEPTED = 2 | PENDING = 1 | REJECTED = 3\n    }\n\n    event ContributionBallotCreated(\n        address requester,\n        uint256 contributionId,\n        uint256 communityReward,\n        uint256 communityTokenId,\n        uint256 governanceReward,\n        uint256 governanceTokenId,\n        uint256 ballotId\n    );\n\n    /**\n        @dev This is when a vote is given by user.\n        @param voter Address of the voter\n        @param contributionId This is the id of the contribution that is linked to this ballot \n        @param ballotId Id of the ballot where voting is stored\n        @param vote State of vote : true for yes and false for No\n     */\n    event ContributionVoting(\n        address voter,\n        uint256 contributionId,\n        uint256 ballotId,\n        bool vote\n    );\n\n    /**\n        @dev this is event which is created when a user proposes counter offer\n        @param contributionId This is the id of the contribution that is linked to this ballot \n        @param voterId This is the id of the voter who's vote it is\n        @param newGovernanceReward This is the new reward amount counter offered by the voter\n        @param newCommunityReward This is the new reward amount counter offered by the voter\n     */\n    event CounterOfferForContribution(\n        uint256 contributionId,\n        address voterId,\n        uint256 newGovernanceReward,\n        uint256 newCommunityReward\n    );\n\n    /**\n        @dev this is event which is created when the owner of the ballot takes action on a specific counter offer\n        @param contributionId This is the id of the contribution that is linked to this ballot \n        @param voterId This is the id of the voter who's vote it is\n        @param newGovernanceReward This is the new reward amount counter offered by the voter\n        @param newCommunityReward This is the new reward amount counter offered by the voter\n        @param status This is the status of the counter offer that is => either ACCEPTED = 2 | REJECTED = 3\n     */\n    event counterOfferAction(\n        uint256 contributionId,\n        address voterId,\n        uint256 newGovernanceReward,\n        uint256 newCommunityReward,\n        uint256 status\n    ); // status will be => either ACCEPTED = 2 | REJECTED = 3\n\n    mapping(uint256 => ContributionReward) RewardMapping;\n    mapping(uint256 => mapping(address => CounterOffer)) contributionCounterOfferMap;\n    mapping(uint256 => address[]) contributionCounterOfferList; //This contains all the keys of the mapping of the counterOfferMapping.\n    address public CONTRIBUTION_CONTRACT_ADDRESS;\n\n    constructor(uint8 votingInterval) BaseVotingContract() {\n        VOTING_BLOCK_PERIOD = votingInterval;\n    }\n\n    /**\n     * @dev This function sets the treasury Contract address\n     */\n    function setTreasuryContractAddress(address newTreasuryContractAddress)\n        external\n        _ownerOnly\n    {\n        _setTreasuryContractAddress(newTreasuryContractAddress);\n    }\n\n    /**\n     * @dev Sets the contribution contract address so that the voting ballot for contritbution can be restricted only to a certain contract that is the contribution contract\n     */\n    function setContributionContractAddress(\n        address newContributionContractAddress\n    ) public _ownerOnly {\n        CONTRIBUTION_CONTRACT_ADDRESS = newContributionContractAddress;\n    }\n\n    /**\n     * @dev This function will create a new contribution voting ballot\n     */\n    function createContributionVotingBallot(\n        uint256 contributionId,\n        uint256 govReward,\n        uint256 govTokenId,\n        uint256 commReward,\n        uint256 commTokenId\n    ) public {\n        require(\n            RewardMapping[contributionId].isPresent == false,\n            \"Voting is already created\"\n        );\n\n        uint256 ballotId = _createVoting(false);\n\n        ContributionReward memory contributionReward = ContributionReward({\n            requester: msg.sender,\n            contributionId: contributionId,\n            ballotId: ballotId,\n            communityReward: commReward,\n            communityTokenId: commTokenId,\n            governanceReward: govReward,\n            governanceTokenId: govTokenId,\n            isPresent: true\n        });\n\n        emit ContributionBallotCreated({\n            requester: msg.sender,\n            contributionId: contributionId,\n            communityReward: commReward,\n            communityTokenId: commTokenId,\n            governanceReward: govReward,\n            governanceTokenId: govTokenId,\n            ballotId: ballotId\n        });\n\n        RewardMapping[contributionId] = contributionReward;\n    }\n\n    /**\n     * @dev This function is called by any user to cast vote\n     * @param contributionId this is the id of the contribution for which user is voting\n     * @param vote this is the state of the vote, if true than it means the vote is in favour of the ballot\n     */\n    function castVoteForContribution(uint256 contributionId, bool vote) public {\n        super._castVote(RewardMapping[contributionId].ballotId, vote);\n\n        emit ContributionVoting({\n            contributionId: contributionId,\n            ballotId: RewardMapping[contributionId].ballotId,\n            voter: msg.sender,\n            vote: vote\n        });\n    }\n\n    /**\n     * @dev This function is called by any user to cast vote\n     * @param contributionId this is the id of the contribution for which user is creating a counter offer\n     * @param newCommunityReward new comunity token amount as reward for the negotition\n     * @param newGovernanceReward new governance token amount as reward for the negotition\n     */\n    function proposeCounterOffer(\n        uint256 contributionId,\n        uint256 newCommunityReward,\n        uint256 newGovernanceReward\n    )\n        public\n        _checkIfOwnerAllowed(RewardMapping[contributionId].ballotId)\n        _checkIfBallotIsOpen(RewardMapping[contributionId].ballotId)\n    {\n        _createCounterOffer(RewardMapping[contributionId].ballotId);\n\n        //Create counter offer object and push it into array\n        CounterOffer memory offer = CounterOffer({\n            newCommunityReward: newCommunityReward,\n            newGovernanceReward: newGovernanceReward,\n            status: 1\n        });\n\n        contributionCounterOfferList[contributionId].push(msg.sender);\n        contributionCounterOfferMap[contributionId][msg.sender] = offer;\n\n        emit CounterOfferForContribution(\n            contributionId,\n            msg.sender,\n            offer.newGovernanceReward,\n            offer.newCommunityReward\n        );\n    }\n\n    /**\n     * @dev This function is called by owner of the contribution to either accept or reject a counter offer\n     * @param contributionId this is the id of the contribution to which the counter offer belogs to\n     * @param counterOfferIds The id of counter offers in array to accept or reject multiple counter offers at once\n     * @param action this is the state of the vote, if true than it means that user accepts the counter offfer\n     */\n    function actionOnCounterOffer(\n        uint256 contributionId,\n        address[] memory counterOfferIds,\n        bool action\n    ) public {\n        //only vote once check\n        for (uint256 i = 0; i < counterOfferIds.length; i++) {\n            if (\n                contributionCounterOfferMap[contributionId][counterOfferIds[i]]\n                    .status == 1\n            ) {\n                if (action) {\n                    uint256 newGovernanceReward = contributionCounterOfferMap[\n                        contributionId\n                    ][counterOfferIds[i]].newGovernanceReward;\n                    uint256 newCommunityReward = contributionCounterOfferMap[\n                        contributionId\n                    ][counterOfferIds[i]].newCommunityReward;\n\n                    //Set new reward for the contribution\n                    RewardMapping[contributionId]\n                        .communityReward = newCommunityReward;\n                    RewardMapping[contributionId]\n                        .governanceReward = newGovernanceReward;\n\n                    contributionCounterOfferMap[contributionId][\n                        counterOfferIds[i]\n                    ].status = 2;\n\n                    super._counterOfferAction(\n                        RewardMapping[contributionId].ballotId,\n                        counterOfferIds[i],\n                        true\n                    );\n                    emit counterOfferAction(\n                        contributionId,\n                        counterOfferIds[i],\n                        newGovernanceReward,\n                        newCommunityReward,\n                        2\n                    );\n                } else {\n                    super._counterOfferAction(\n                        RewardMapping[contributionId].ballotId,\n                        counterOfferIds[i],\n                        false\n                    );\n                    //The counter offer ids are the addresses of the user who proposed the offer\n                    contributionCounterOfferMap[contributionId][\n                        counterOfferIds[i]\n                    ].status = 3;\n                }\n            }\n        }\n    }\n}\n",
  "sourcePath": "/Users/a1/Desktop/Office/projects/CrowdRecords/Contracts/contracts/voting/ContributionVotingContract.sol",
  "compiler": {
    "name": "solc",
    "version": "0.8.12+commit.f00d7308.Emscripten.clang"
  },
  "schemaVersion": "3.4.6",
  "updatedAt": "2022-05-04T09:19:19.383Z",
  "devdoc": {
    "events": {
      "ContributionVoting(address,uint256,uint256,bool)": {
        "details": "This is when a vote is given by user.",
        "params": {
          "ballotId": "Id of the ballot where voting is stored",
          "contributionId": "This is the id of the contribution that is linked to this ballot ",
          "vote": "State of vote : true for yes and false for No",
          "voter": "Address of the voter"
        }
      },
      "CounterOfferForContribution(uint256,address,uint256,uint256)": {
        "details": "this is event which is created when a user proposes counter offer",
        "params": {
          "contributionId": "This is the id of the contribution that is linked to this ballot ",
          "newCommunityReward": "This is the new reward amount counter offered by the voter",
          "newGovernanceReward": "This is the new reward amount counter offered by the voter",
          "voterId": "This is the id of the voter who's vote it is"
        }
      },
      "counterOfferAction(uint256,address,uint256,uint256,uint256)": {
        "details": "this is event which is created when the owner of the ballot takes action on a specific counter offer",
        "params": {
          "contributionId": "This is the id of the contribution that is linked to this ballot ",
          "newCommunityReward": "This is the new reward amount counter offered by the voter",
          "newGovernanceReward": "This is the new reward amount counter offered by the voter",
          "status": "This is the status of the counter offer that is => either ACCEPTED = 2 | REJECTED = 3",
          "voterId": "This is the id of the voter who's vote it is"
        }
      }
    },
    "kind": "dev",
    "methods": {
      "actionOnCounterOffer(uint256,address[],bool)": {
        "details": "This function is called by owner of the contribution to either accept or reject a counter offer",
        "params": {
          "action": "this is the state of the vote, if true than it means that user accepts the counter offfer",
          "contributionId": "this is the id of the contribution to which the counter offer belogs to",
          "counterOfferIds": "The id of counter offers in array to accept or reject multiple counter offers at once"
        }
      },
      "castVoteForContribution(uint256,bool)": {
        "details": "This function is called by any user to cast vote",
        "params": {
          "contributionId": "this is the id of the contribution for which user is voting",
          "vote": "this is the state of the vote, if true than it means the vote is in favour of the ballot"
        }
      },
      "createContributionVotingBallot(uint256,uint256,uint256,uint256,uint256)": {
        "details": "This function will create a new contribution voting ballot"
      },
      "proposeCounterOffer(uint256,uint256,uint256)": {
        "details": "This function is called by any user to cast vote",
        "params": {
          "contributionId": "this is the id of the contribution for which user is creating a counter offer",
          "newCommunityReward": "new comunity token amount as reward for the negotition",
          "newGovernanceReward": "new governance token amount as reward for the negotition"
        }
      },
      "setContributionContractAddress(address)": {
        "details": "Sets the contribution contract address so that the voting ballot for contritbution can be restricted only to a certain contract that is the contribution contract"
      },
      "setTreasuryContractAddress(address)": {
        "details": "This function sets the treasury Contract address"
      }
    },
    "version": 1
  },
  "userdoc": {
    "kind": "user",
    "methods": {},
    "version": 1
  }
}