{
  "contractName": "ContributionVotingContract",
  "abi": [
    {
      "inputs": [
        {
          "internalType": "uint8",
          "name": "votingInterval",
          "type": "uint8"
        },
        {
          "internalType": "address",
          "name": "owner",
          "type": "address"
        }
      ],
      "stateMutability": "nonpayable",
      "type": "constructor"
    },
    {
      "anonymous": false,
      "inputs": [
        {
          "indexed": false,
          "internalType": "uint256",
          "name": "contributionId",
          "type": "uint256"
        },
        {
          "indexed": false,
          "internalType": "uint256",
          "name": "ballotId",
          "type": "uint256"
        },
        {
          "indexed": false,
          "internalType": "bool",
          "name": "result",
          "type": "bool"
        },
        {
          "indexed": false,
          "internalType": "bool",
          "name": "minTurnOut",
          "type": "bool"
        }
      ],
      "name": "BallotResult",
      "type": "event"
    },
    {
      "anonymous": false,
      "inputs": [
        {
          "indexed": false,
          "internalType": "address",
          "name": "requester",
          "type": "address"
        },
        {
          "indexed": false,
          "internalType": "uint256",
          "name": "contributionId",
          "type": "uint256"
        },
        {
          "indexed": false,
          "internalType": "uint256",
          "name": "recordId",
          "type": "uint256"
        },
        {
          "indexed": false,
          "internalType": "uint256",
          "name": "communityReward",
          "type": "uint256"
        },
        {
          "indexed": false,
          "internalType": "uint256",
          "name": "communityTokenId",
          "type": "uint256"
        },
        {
          "indexed": false,
          "internalType": "uint256",
          "name": "governanceReward",
          "type": "uint256"
        },
        {
          "indexed": false,
          "internalType": "uint256",
          "name": "governanceTokenId",
          "type": "uint256"
        },
        {
          "indexed": false,
          "internalType": "uint256",
          "name": "ballotId",
          "type": "uint256"
        }
      ],
      "name": "ContributionBallotCreated",
      "type": "event"
    },
    {
      "anonymous": false,
      "inputs": [
        {
          "indexed": false,
          "internalType": "address",
          "name": "voter",
          "type": "address"
        },
        {
          "indexed": false,
          "internalType": "uint256",
          "name": "contributionId",
          "type": "uint256"
        },
        {
          "indexed": false,
          "internalType": "uint256",
          "name": "ballotId",
          "type": "uint256"
        },
        {
          "indexed": false,
          "internalType": "bool",
          "name": "vote",
          "type": "bool"
        }
      ],
      "name": "ContributionVoting",
      "type": "event"
    },
    {
      "anonymous": false,
      "inputs": [
        {
          "indexed": false,
          "internalType": "uint256",
          "name": "contributionId",
          "type": "uint256"
        },
        {
          "indexed": false,
          "internalType": "address",
          "name": "voterId",
          "type": "address"
        },
        {
          "indexed": false,
          "internalType": "uint256",
          "name": "newGovernanceReward",
          "type": "uint256"
        },
        {
          "indexed": false,
          "internalType": "uint256",
          "name": "newCommunityReward",
          "type": "uint256"
        }
      ],
      "name": "CounterOfferForContribution",
      "type": "event"
    },
    {
      "anonymous": false,
      "inputs": [
        {
          "indexed": false,
          "internalType": "uint8",
          "name": "version",
          "type": "uint8"
        }
      ],
      "name": "Initialized",
      "type": "event"
    },
    {
      "anonymous": false,
      "inputs": [
        {
          "indexed": false,
          "internalType": "uint256",
          "name": "contributionId",
          "type": "uint256"
        },
        {
          "indexed": false,
          "internalType": "address",
          "name": "voterId",
          "type": "address"
        },
        {
          "indexed": false,
          "internalType": "uint256",
          "name": "newGovernanceReward",
          "type": "uint256"
        },
        {
          "indexed": false,
          "internalType": "uint256",
          "name": "newCommunityReward",
          "type": "uint256"
        },
        {
          "indexed": false,
          "internalType": "uint256",
          "name": "status",
          "type": "uint256"
        }
      ],
      "name": "counterOfferAction",
      "type": "event"
    },
    {
      "inputs": [],
      "name": "CONTRIBUTION_CONTRACT_ADDRESS",
      "outputs": [
        {
          "internalType": "address",
          "name": "",
          "type": "address"
        }
      ],
      "stateMutability": "view",
      "type": "function"
    },
    {
      "inputs": [],
      "name": "MIN_TURNOUT_PERCENT",
      "outputs": [
        {
          "internalType": "uint256",
          "name": "",
          "type": "uint256"
        }
      ],
      "stateMutability": "view",
      "type": "function"
    },
    {
      "inputs": [],
      "name": "OWNER",
      "outputs": [
        {
          "internalType": "address",
          "name": "",
          "type": "address"
        }
      ],
      "stateMutability": "view",
      "type": "function"
    },
    {
      "inputs": [],
      "name": "TREASURY_CONTRACT_ADDRESS",
      "outputs": [
        {
          "internalType": "address",
          "name": "",
          "type": "address"
        }
      ],
      "stateMutability": "view",
      "type": "function"
    },
    {
      "inputs": [],
      "name": "TREASURY_HUB_ADDRESS",
      "outputs": [
        {
          "internalType": "address",
          "name": "",
          "type": "address"
        }
      ],
      "stateMutability": "view",
      "type": "function"
    },
    {
      "inputs": [
        {
          "internalType": "address",
          "name": "user",
          "type": "address"
        },
        {
          "internalType": "uint256",
          "name": "tokenId",
          "type": "uint256"
        },
        {
          "internalType": "uint256",
          "name": "previousBalance",
          "type": "uint256"
        },
        {
          "internalType": "uint256",
          "name": "newBalance",
          "type": "uint256"
        }
      ],
      "name": "_handleUserTokenTransfers",
      "outputs": [],
      "stateMutability": "nonpayable",
      "type": "function"
    },
    {
      "inputs": [
        {
          "internalType": "address",
          "name": "ownerAddress",
          "type": "address"
        }
      ],
      "name": "setOwnerAddress",
      "outputs": [],
      "stateMutability": "nonpayable",
      "type": "function"
    },
    {
      "inputs": [
        {
          "internalType": "uint256",
          "name": "",
          "type": "uint256"
        }
      ],
      "name": "votingMap",
      "outputs": [
        {
          "internalType": "address",
          "name": "owner",
          "type": "address"
        },
        {
          "internalType": "uint256",
          "name": "yesWeight",
          "type": "uint256"
        },
        {
          "internalType": "uint256",
          "name": "yesCount",
          "type": "uint256"
        },
        {
          "internalType": "uint256",
          "name": "noWeight",
          "type": "uint256"
        },
        {
          "internalType": "uint256",
          "name": "noCount",
          "type": "uint256"
        },
        {
          "internalType": "uint256",
          "name": "tokenId",
          "type": "uint256"
        },
        {
          "internalType": "uint256",
          "name": "votingEndBlock",
          "type": "uint256"
        },
        {
          "internalType": "bool",
          "name": "isResultDeclared",
          "type": "bool"
        },
        {
          "internalType": "bool",
          "name": "canOwnerVote",
          "type": "bool"
        },
        {
          "internalType": "bool",
          "name": "isPresent",
          "type": "bool"
        },
        {
          "internalType": "bool",
          "name": "minTurnOut",
          "type": "bool"
        },
        {
          "internalType": "bool",
          "name": "result",
          "type": "bool"
        }
      ],
      "stateMutability": "view",
      "type": "function"
    },
    {
      "inputs": [
        {
          "internalType": "address",
          "name": "newTreasuryContractAddress",
          "type": "address"
        },
        {
          "internalType": "address",
          "name": "newContributionContractAddress",
          "type": "address"
        }
      ],
      "name": "initialize",
      "outputs": [],
      "stateMutability": "nonpayable",
      "type": "function"
    },
    {
      "inputs": [
        {
          "internalType": "address",
          "name": "newTreasuryContractAddress",
          "type": "address"
        }
      ],
      "name": "initialize",
      "outputs": [],
      "stateMutability": "nonpayable",
      "type": "function"
    },
    {
      "inputs": [
        {
          "internalType": "address",
          "name": "newContributionContractAddress",
          "type": "address"
        }
      ],
      "name": "setContributionContractAddress",
      "outputs": [],
      "stateMutability": "nonpayable",
      "type": "function"
    },
    {
      "inputs": [
        {
          "internalType": "uint256",
          "name": "contributionId",
          "type": "uint256"
        },
        {
          "internalType": "uint256",
          "name": "recordId",
          "type": "uint256"
        },
        {
          "internalType": "uint256",
          "name": "govReward",
          "type": "uint256"
        },
        {
          "internalType": "uint256",
          "name": "commReward",
          "type": "uint256"
        }
      ],
      "name": "createContributionVotingBallot",
      "outputs": [],
      "stateMutability": "nonpayable",
      "type": "function"
    },
    {
      "inputs": [
        {
          "internalType": "uint256",
          "name": "contributionId",
          "type": "uint256"
        },
        {
          "internalType": "bool",
          "name": "vote",
          "type": "bool"
        }
      ],
      "name": "castVoteForContribution",
      "outputs": [],
      "stateMutability": "nonpayable",
      "type": "function"
    },
    {
      "inputs": [
        {
          "internalType": "uint256",
          "name": "contributionId",
          "type": "uint256"
        },
        {
          "internalType": "uint256",
          "name": "newCommunityReward",
          "type": "uint256"
        },
        {
          "internalType": "uint256",
          "name": "newGovernanceReward",
          "type": "uint256"
        }
      ],
      "name": "proposeCounterOffer",
      "outputs": [],
      "stateMutability": "nonpayable",
      "type": "function"
    },
    {
      "inputs": [
        {
          "internalType": "uint256",
          "name": "contributionId",
          "type": "uint256"
        },
        {
          "internalType": "address[]",
          "name": "counterOfferIds",
          "type": "address[]"
        },
        {
          "internalType": "bool",
          "name": "action",
          "type": "bool"
        }
      ],
      "name": "actionOnCounterOffer",
      "outputs": [],
      "stateMutability": "nonpayable",
      "type": "function"
    },
    {
      "inputs": [
        {
          "internalType": "uint256",
          "name": "contributionId",
          "type": "uint256"
        }
      ],
      "name": "declareWinner",
      "outputs": [],
      "stateMutability": "nonpayable",
      "type": "function"
    }
  ],
  "bytecode": "0x608060405260196001556101f460025560006006553480156200002157600080fd5b506040516200418638038062004186833981810160405281019062000047919062000146565b808080600560006101000a81548173ffffffffffffffffffffffffffffffffffffffff021916908373ffffffffffffffffffffffffffffffffffffffff16021790555050508160ff1660018190555050506200018d565b600080fd5b600060ff82169050919050565b620000bb81620000a3565b8114620000c757600080fd5b50565b600081519050620000db81620000b0565b92915050565b600073ffffffffffffffffffffffffffffffffffffffff82169050919050565b60006200010e82620000e1565b9050919050565b620001208162000101565b81146200012c57600080fd5b50565b600081519050620001408162000115565b92915050565b6000806040838503121562000160576200015f6200009e565b5b60006200017085828601620000ca565b925050602062000183858286016200012f565b9150509250929050565b613fe9806200019d6000396000f3fe608060405234801561001057600080fd5b50600436106100ff5760003560e01c8063485cc95511610097578063acb3149311610066578063acb314931461027b578063c4d66de814610299578063c679968a146102b5578063c9d59143146102d1576100ff565b8063485cc955146101ea57806363e249c1146102065780638d2ae1f714610241578063abb7ed7f1461025f576100ff565b8063251686ed116100d3578063251686ed1461017857806329c50b5914610194578063331a6bf5146101b057806333e0ea2e146101cc576100ff565b8062c2943c1461010457806307c505b7146101205780630d76a8821461013e578063117803e31461015a575b600080fd5b61011e60048036038101906101199190612e16565b6102ed565b005b610128610522565b6040516101359190612e84565b60405180910390f35b61015860048036038101906101539190612e9f565b610548565b005b6101626108e6565b60405161016f9190612e84565b60405180910390f35b610192600480360381019061018d9190612f3e565b61090c565b005b6101ae60048036038101906101a99190612faa565b6109ed565b005b6101ca60048036038101906101c59190612faa565b610ac1565b005b6101d4610b95565b6040516101e19190612fe6565b60405180910390f35b61020460048036038101906101ff9190613001565b610b9b565b005b610220600480360381019061021b9190612e16565b610dad565b6040516102389c9b9a99989796959493929190613050565b60405180910390f35b610249610e6e565b6040516102569190612e84565b60405180910390f35b6102796004803603810190610274919061310a565b610e94565b005b61028361108d565b6040516102909190612e84565b60405180910390f35b6102b360048036038101906102ae9190612faa565b6110b3565b005b6102cf60048036038101906102ca9190613171565b61110e565b005b6102eb60048036038101906102e6919061331d565b61158e565b005b6000600e600083815260200190815260200160002080548060200260200160405190810160405280929190818152602001828054801561038257602002820191906000526020600020905b8160009054906101000a900473ffffffffffffffffffffffffffffffffffffffff1673ffffffffffffffffffffffffffffffffffffffff1681526020019060010190808311610338575b505050505090506000806103ab600c60008681526020019081526020016000206003015461190a565b915091507f7b7d19f699325ae81c9f5b02d9a08153f08bbfd136d6a798d64f33c8d7989b2484600c60008781526020019081526020016000206003015484846040516103fa949392919061338c565b60405180910390a1811561051c576000600360009054906101000a900473ffffffffffffffffffffffffffffffffffffffff1690508073ffffffffffffffffffffffffffffffffffffffff16638388f413600c600088815260200190815260200160002060000160009054906101000a900473ffffffffffffffffffffffffffffffffffffffff16600c60008981526020019081526020016000206002015488600c60008b815260200190815260200160002060060154600c60008c8152602001908152602001600020600401546040518663ffffffff1660e01b81526004016104e89594939291906133d1565b600060405180830381600087803b15801561050257600080fd5b505af1158015610516573d6000803e3d6000fd5b50505050505b50505050565b600f60009054906101000a900473ffffffffffffffffffffffffffffffffffffffff1681565b600f60009054906101000a900473ffffffffffffffffffffffffffffffffffffffff1673ffffffffffffffffffffffffffffffffffffffff163373ffffffffffffffffffffffffffffffffffffffff16146105d8576040517f08c379a00000000000000000000000000000000000000000000000000000000081526004016105cf906134a7565b60405180910390fd5b60001515600c600086815260200190815260200160002060080160009054906101000a900460ff16151514610642576040517f08c379a000000000000000000000000000000000000000000000000000000000815260040161063990613513565b60405180910390fd5b6000600360009054906101000a900473ffffffffffffffffffffffffffffffffffffffff16905060008173ffffffffffffffffffffffffffffffffffffffff16632d4a0382866040518263ffffffff1660e01b81526004016106a49190612fe6565b602060405180830381865afa1580156106c1573d6000803e3d6000fd5b505050506040513d601f19601f820116820180604052508101906106e59190613548565b905060008273ffffffffffffffffffffffffffffffffffffffff1663d6ca40a7876040518263ffffffff1660e01b81526004016107229190612fe6565b602060405180830381865afa15801561073f573d6000803e3d6000fd5b505050506040513d601f19601f820116820180604052508101906107639190613548565b90506000610772600184611d16565b905060006040518061012001604052803273ffffffffffffffffffffffffffffffffffffffff1681526020018a81526020018981526020018381526020018781526020018481526020018881526020018581526020016001151581525090507f841b71ba38f7c6cc93d8235b87ac4a1f87adee1f9d562d9e0421744c8b2d5d5a338a8a89878c8a8960405161080e989796959493929190613575565b60405180910390a180600c60008b815260200190815260200160002060008201518160000160006101000a81548173ffffffffffffffffffffffffffffffffffffffff021916908373ffffffffffffffffffffffffffffffffffffffff1602179055506020820151816001015560408201518160020155606082015181600301556080820151816004015560a0820151816005015560c0820151816006015560e082015181600701556101008201518160080160006101000a81548160ff021916908315150217905550905050505050505050505050565b600560009054906101000a900473ffffffffffffffffffffffffffffffffffffffff1681565b60011515600c600084815260200190815260200160002060080160009054906101000a900460ff16151514610976576040517f08c379a000000000000000000000000000000000000000000000000000000000815260040161096d9061363f565b60405180910390fd5b610996600c60008481526020019081526020016000206003015482611f07565b7fc94df962ce83bb9f5099c0364215ad4932ed320a795c370dc62619a373a9518e3383600c600086815260200190815260200160002060030154846040516109e1949392919061365f565b60405180910390a15050565b600560009054906101000a900473ffffffffffffffffffffffffffffffffffffffff1673ffffffffffffffffffffffffffffffffffffffff163373ffffffffffffffffffffffffffffffffffffffff1614610a7d576040517f08c379a0000000000000000000000000000000000000000000000000000000008152600401610a7490613716565b60405180910390fd5b80600f60006101000a81548173ffffffffffffffffffffffffffffffffffffffff021916908373ffffffffffffffffffffffffffffffffffffffff16021790555050565b600560009054906101000a900473ffffffffffffffffffffffffffffffffffffffff1673ffffffffffffffffffffffffffffffffffffffff163373ffffffffffffffffffffffffffffffffffffffff1614610b51576040517f08c379a0000000000000000000000000000000000000000000000000000000008152600401610b4890613716565b60405180910390fd5b80600560006101000a81548173ffffffffffffffffffffffffffffffffffffffff021916908373ffffffffffffffffffffffffffffffffffffffff16021790555050565b60025481565b60008060019054906101000a900460ff16159050808015610bcc5750600160008054906101000a900460ff1660ff16105b80610bf95750610bdb30611fbb565b158015610bf85750600160008054906101000a900460ff1660ff16145b5b610c38576040517f08c379a0000000000000000000000000000000000000000000000000000000008152600401610c2f906137a8565b60405180910390fd5b60016000806101000a81548160ff021916908360ff1602179055508015610c75576001600060016101000a81548160ff0219169083151502179055505b600560009054906101000a900473ffffffffffffffffffffffffffffffffffffffff1673ffffffffffffffffffffffffffffffffffffffff163373ffffffffffffffffffffffffffffffffffffffff1614610d05576040517f08c379a0000000000000000000000000000000000000000000000000000000008152600401610cfc90613716565b60405180910390fd5b610d0e836110b3565b81600f60006101000a81548173ffffffffffffffffffffffffffffffffffffffff021916908373ffffffffffffffffffffffffffffffffffffffff1602179055508015610da85760008060016101000a81548160ff0219169083151502179055507f7f26b83ff96e1f2b6a682f133852f6798a09c465da95921460cefb38474024986001604051610d9f919061381a565b60405180910390a15b505050565b60076020528060005260406000206000915090508060000160009054906101000a900473ffffffffffffffffffffffffffffffffffffffff16908060010154908060020154908060030154908060040154908060050154908060060154908060070160009054906101000a900460ff16908060070160019054906101000a900460ff16908060070160029054906101000a900460ff16908060070160039054906101000a900460ff16908060070160049054906101000a900460ff1690508c565b600460009054906101000a900473ffffffffffffffffffffffffffffffffffffffff1681565b6000600a60008673ffffffffffffffffffffffffffffffffffffffff1673ffffffffffffffffffffffffffffffffffffffff168152602001908152602001600020905060005b8180549050811015611085576001151560076000848481548110610f0157610f00613835565b5b9060005260206000200154815260200190815260200160002060070160009054906101000a900460ff1615151480610f6b57504360076000848481548110610f4c57610f4b613835565b5b9060005260206000200154815260200190815260200160002060060154105b1561100c578160018380549050610f829190613893565b81548110610f9357610f92613835565b5b9060005260206000200154828281548110610fb157610fb0613835565b5b906000526020600020018190555081805480610fd057610fcf6138c7565b5b600190038181906000526020600020016000905590556000811415610ff85760009050611007565b8080611003906138f6565b9150505b611072565b6007600083838154811061102357611022613835565b5b90600052602060002001548152602001908152602001600020600501548514156110715761107082828154811061105d5761105c613835565b5b9060005260206000200154878686611fde565b5b5b808061107d90613920565b915050610eda565b505050505050565b600360009054906101000a900473ffffffffffffffffffffffffffffffffffffffff1681565b600060019054906101000a900460ff16611102576040517f08c379a00000000000000000000000000000000000000000000000000000000081526004016110f9906139db565b60405180910390fd5b61110b816121ab565b50565b600c6000848152602001908152602001600020600301546007600082815260200190815260200160002060070160019054906101000a900460ff16156111f757600015156008600083815260200190815260200160002060003273ffffffffffffffffffffffffffffffffffffffff1673ffffffffffffffffffffffffffffffffffffffff16815260200190815260200160002060009054906101000a900460ff161515146111f2576040517f08c379a00000000000000000000000000000000000000000000000000000000081526004016111e990613a47565b60405180910390fd5b61129d565b6007600082815260200190815260200160002060000160009054906101000a900473ffffffffffffffffffffffffffffffffffffffff1673ffffffffffffffffffffffffffffffffffffffff163273ffffffffffffffffffffffffffffffffffffffff16141561129c576040517f08c379a000000000000000000000000000000000000000000000000000000000815260040161129390613ab3565b60405180910390fd5b5b600c60008581526020019081526020016000206003015433600115156007600084815260200190815260200160002060070160029054906101000a900460ff1615151461131f576040517f08c379a000000000000000000000000000000000000000000000000000000000815260040161131690613b1f565b60405180910390fd5b43600760008481526020019081526020016000206006015411611377576040517f08c379a000000000000000000000000000000000000000000000000000000000815260040161136e90613b8b565b60405180910390fd5b600015156008600084815260200190815260200160002060008373ffffffffffffffffffffffffffffffffffffffff1673ffffffffffffffffffffffffffffffffffffffff16815260200190815260200160002060009054906101000a900460ff1615151461141b576040517f08c379a000000000000000000000000000000000000000000000000000000000815260040161141290613a47565b60405180910390fd5b61143a600c60008881526020019081526020016000206003015461223e565b6000604051806060016040528087815260200186815260200160018152509050600e6000888152602001908152602001600020339080600181540180825580915050600190039060005260206000200160009091909190916101000a81548173ffffffffffffffffffffffffffffffffffffffff021916908373ffffffffffffffffffffffffffffffffffffffff16021790555080600d600089815260200190815260200160002060003373ffffffffffffffffffffffffffffffffffffffff1673ffffffffffffffffffffffffffffffffffffffff1681526020019081526020016000206000820151816000015560208201518160010155604082015181600201559050507f920106c0a661b88d3e90d906bbcd9e579abab6ff29031cb1cc958ddebae47fb887338360200151846000015160405161157d9493929190613bab565b60405180910390a150505050505050565b60005b8251811015611904576001600d600086815260200190815260200160002060008584815181106115c4576115c3613835565b5b602002602001015173ffffffffffffffffffffffffffffffffffffffff1673ffffffffffffffffffffffffffffffffffffffff1681526020019081526020016000206002015414156118f1578115611840576000600d600086815260200190815260200160002060008584815181106116405761163f613835565b5b602002602001015173ffffffffffffffffffffffffffffffffffffffff1673ffffffffffffffffffffffffffffffffffffffff1681526020019081526020016000206001015490506000600d600087815260200190815260200160002060008685815181106116b2576116b1613835565b5b602002602001015173ffffffffffffffffffffffffffffffffffffffff1673ffffffffffffffffffffffffffffffffffffffff16815260200190815260200160002060000154905080600c60008881526020019081526020016000206004018190555081600c6000888152602001908152602001600020600601819055506002600d6000888152602001908152602001600020600087868151811061175a57611759613835565b5b602002602001015173ffffffffffffffffffffffffffffffffffffffff1673ffffffffffffffffffffffffffffffffffffffff168152602001908152602001600020600201819055506117df600c6000888152602001908152602001600020600301548685815181106117d0576117cf613835565b5b602002602001015160016124ba565b7fd992f385523dde33af41e13ab8ac788e6a9d7bf3278f3a70d16c150ff43115e58686858151811061181457611813613835565b5b602002602001015184846002604051611831959493929190613c2b565b60405180910390a150506118f0565b61187c600c60008681526020019081526020016000206003015484838151811061186d5761186c613835565b5b602002602001015160006124ba565b6003600d600086815260200190815260200160002060008584815181106118a6576118a5613835565b5b602002602001015173ffffffffffffffffffffffffffffffffffffffff1673ffffffffffffffffffffffffffffffffffffffff168152602001908152602001600020600201819055505b5b80806118fc90613920565b915050611591565b50505050565b600080600115156007600085815260200190815260200160002060070160029054906101000a900460ff16151514611977576040517f08c379a000000000000000000000000000000000000000000000000000000000815260040161196e90613b1f565b60405180910390fd5b436007600085815260200190815260200160002060060154106119cf576040517f08c379a00000000000000000000000000000000000000000000000000000000081526004016119c690613b8b565b60405180910390fd5b600015156007600085815260200190815260200160002060070160009054906101000a900460ff16151514611a39576040517f08c379a0000000000000000000000000000000000000000000000000000000008152600401611a3090613cca565b60405180910390fd5b60006007600085815260200190815260200160002090506000816001015490506000826003015490506000600360009054906101000a900473ffffffffffffffffffffffffffffffffffffffff16905060016007600089815260200190815260200160002060070160006101000a81548160ff02191690831515021790555060008173ffffffffffffffffffffffffffffffffffffffff1663036c22ad86600501546040518263ffffffff1660e01b8152600401611af79190612fe6565b602060405180830381865afa158015611b14573d6000803e3d6000fd5b505050506040513d601f19601f82011682018060405250810190611b389190613548565b9050600060648060025484611b4d9190613cea565b611b579190613d73565b611b619190613d73565b9050808585611b709190613da4565b1115611ca5576000851115611c63576000606460428688611b919190613da4565b611b9b9190613cea565b611ba59190613d73565b90506001600760008c815260200190815260200160002060070160036101000a81548160ff02191690831515021790555080861115611c20576000600760008c815260200190815260200160002060070160046101000a81548160ff0219169083151502179055506001809850985050505050505050611d11565b6000600760008c815260200190815260200160002060070160046101000a81548160ff021916908315150217905550600060019850985050505050505050611d11565b6000600760008b815260200190815260200160002060070160046101000a81548160ff0219169083151502179055506000600197509750505050505050611d11565b6000600760008b815260200190815260200160002060070160036101000a81548160ff0219169083151502179055506000600760008b815260200190815260200160002060070160046101000a81548160ff021916908315150217905550600080975097505050505050505b915091565b600060066000815480929190611d2b90613920565b919050555060006040518061018001604052803273ffffffffffffffffffffffffffffffffffffffff1681526020016000815260200160008152602001600081526020016000815260200184815260200160015443611d8a9190613da4565b815260200160001515815260200185151581526020016001151581526020016000151581526020016000151581525090508060076000600654815260200190815260200160002060008201518160000160006101000a81548173ffffffffffffffffffffffffffffffffffffffff021916908373ffffffffffffffffffffffffffffffffffffffff1602179055506020820151816001015560408201518160020155606082015181600301556080820151816004015560a0820151816005015560c0820151816006015560e08201518160070160006101000a81548160ff0219169083151502179055506101008201518160070160016101000a81548160ff0219169083151502179055506101208201518160070160026101000a81548160ff0219169083151502179055506101408201518160070160036101000a81548160ff0219169083151502179055506101608201518160070160046101000a81548160ff02191690831515021790555090505060065491505092915050565b8160001515600b600083815260200190815260200160002060003373ffffffffffffffffffffffffffffffffffffffff1673ffffffffffffffffffffffffffffffffffffffff16815260200190815260200160002060009054906101000a900460ff16151514611fac576040517f08c379a0000000000000000000000000000000000000000000000000000000008152600401611fa390613e46565b60405180910390fd5b611fb68383612572565b505050565b6000808273ffffffffffffffffffffffffffffffffffffffff163b119050919050565b600115156008600086815260200190815260200160002060008573ffffffffffffffffffffffffffffffffffffffff1673ffffffffffffffffffffffffffffffffffffffff16815260200190815260200160002060009054906101000a900460ff16151514612082576040517f08c379a000000000000000000000000000000000000000000000000000000000815260040161207990613ed8565b60405180910390fd5b60006009600086815260200190815260200160002060008573ffffffffffffffffffffffffffffffffffffffff1673ffffffffffffffffffffffffffffffffffffffff16815260200190815260200160002060009054906101000a900460ff169050801561214957826007600087815260200190815260200160002060010160008282546121109190613893565b925050819055508160076000878152602001908152602001600020600101600082825461213d9190613da4565b925050819055506121a4565b8260076000878152602001908152602001600020600301600082825461216f9190613893565b925050819055508160076000878152602001908152602001600020600301600082825461219c9190613da4565b925050819055505b5050505050565b600060019054906101000a900460ff166121fa576040517f08c379a00000000000000000000000000000000000000000000000000000000081526004016121f1906139db565b60405180910390fd5b80600360006101000a81548173ffffffffffffffffffffffffffffffffffffffff021916908373ffffffffffffffffffffffffffffffffffffffff16021790555050565b8060001515600b600083815260200190815260200160002060003373ffffffffffffffffffffffffffffffffffffffff1673ffffffffffffffffffffffffffffffffffffffff16815260200190815260200160002060009054906101000a900460ff161515146122e3576040517f08c379a00000000000000000000000000000000000000000000000000000000081526004016122da90613e46565b60405180910390fd5b8133600115156007600084815260200190815260200160002060070160029054906101000a900460ff1615151461234f576040517f08c379a000000000000000000000000000000000000000000000000000000000815260040161234690613b1f565b60405180910390fd5b436007600084815260200190815260200160002060060154116123a7576040517f08c379a000000000000000000000000000000000000000000000000000000000815260040161239e90613b8b565b60405180910390fd5b600015156008600084815260200190815260200160002060008373ffffffffffffffffffffffffffffffffffffffff1673ffffffffffffffffffffffffffffffffffffffff16815260200190815260200160002060009054906101000a900460ff1615151461244b576040517f08c379a000000000000000000000000000000000000000000000000000000000815260040161244290613a47565b60405180910390fd5b6001600b600086815260200190815260200160002060003373ffffffffffffffffffffffffffffffffffffffff1673ffffffffffffffffffffffffffffffffffffffff16815260200190815260200160002060006101000a81548160ff02191690831515021790555050505050565b828260011515600b600084815260200190815260200160002060008373ffffffffffffffffffffffffffffffffffffffff1673ffffffffffffffffffffffffffffffffffffffff16815260200190815260200160002060009054906101000a900460ff16151514612560576040517f08c379a000000000000000000000000000000000000000000000000000000000815260040161255790613f6a565b60405180910390fd5b61256b858486612865565b5050505050565b8133600115156007600084815260200190815260200160002060070160029054906101000a900460ff161515146125de576040517f08c379a00000000000000000000000000000000000000000000000000000000081526004016125d590613b1f565b60405180910390fd5b43600760008481526020019081526020016000206006015411612636576040517f08c379a000000000000000000000000000000000000000000000000000000000815260040161262d90613b8b565b60405180910390fd5b600015156008600084815260200190815260200160002060008373ffffffffffffffffffffffffffffffffffffffff1673ffffffffffffffffffffffffffffffffffffffff16815260200190815260200160002060009054906101000a900460ff161515146126da576040517f08c379a00000000000000000000000000000000000000000000000000000000081526004016126d190613a47565b60405180910390fd5b836007600082815260200190815260200160002060070160019054906101000a900460ff16156127ad57600015156008600083815260200190815260200160002060003273ffffffffffffffffffffffffffffffffffffffff1673ffffffffffffffffffffffffffffffffffffffff16815260200190815260200160002060009054906101000a900460ff161515146127a8576040517f08c379a000000000000000000000000000000000000000000000000000000000815260040161279f90613a47565b60405180910390fd5b612853565b6007600082815260200190815260200160002060000160009054906101000a900473ffffffffffffffffffffffffffffffffffffffff1673ffffffffffffffffffffffffffffffffffffffff163273ffffffffffffffffffffffffffffffffffffffff161415612852576040517f08c379a000000000000000000000000000000000000000000000000000000000815260040161284990613ab3565b60405180910390fd5b5b61285e8585326129df565b5050505050565b8281600115156007600084815260200190815260200160002060070160029054906101000a900460ff161515146128d1576040517f08c379a00000000000000000000000000000000000000000000000000000000081526004016128c890613b1f565b60405180910390fd5b43600760008481526020019081526020016000206006015411612929576040517f08c379a000000000000000000000000000000000000000000000000000000000815260040161292090613b8b565b60405180910390fd5b600015156008600084815260200190815260200160002060008373ffffffffffffffffffffffffffffffffffffffff1673ffffffffffffffffffffffffffffffffffffffff16815260200190815260200160002060009054906101000a900460ff161515146129cd576040517f08c379a00000000000000000000000000000000000000000000000000000000081526004016129c490613a47565b60405180910390fd5b6129d88585856129df565b5050505050565b6000600360009054906101000a900473ffffffffffffffffffffffffffffffffffffffff169050600060076000868152602001908152602001600020604051806101800160405290816000820160009054906101000a900473ffffffffffffffffffffffffffffffffffffffff1673ffffffffffffffffffffffffffffffffffffffff1673ffffffffffffffffffffffffffffffffffffffff1681526020016001820154815260200160028201548152602001600382015481526020016004820154815260200160058201548152602001600682015481526020016007820160009054906101000a900460ff161515151581526020016007820160019054906101000a900460ff161515151581526020016007820160029054906101000a900460ff161515151581526020016007820160039054906101000a900460ff161515151581526020016007820160049054906101000a900460ff161515151581525050905060008273ffffffffffffffffffffffffffffffffffffffff1662fdd58e858460a001516040518363ffffffff1660e01b8152600401612b82929190613f8a565b602060405180830381865afa158015612b9f573d6000803e3d6000fd5b505050506040513d601f19601f82011682018060405250810190612bc39190613548565b90508415612c2b5780600760008881526020019081526020016000206001016000828254612bf19190613da4565b925050819055506001600760008881526020019081526020016000206002016000828254612c1f9190613da4565b92505081905550612c87565b80600760008881526020019081526020016000206003016000828254612c519190613da4565b925050819055506001600760008881526020019081526020016000206004016000828254612c7f9190613da4565b925050819055505b60016008600088815260200190815260200160002060008673ffffffffffffffffffffffffffffffffffffffff1673ffffffffffffffffffffffffffffffffffffffff16815260200190815260200160002060006101000a81548160ff021916908315150217905550846009600088815260200190815260200160002060008673ffffffffffffffffffffffffffffffffffffffff1673ffffffffffffffffffffffffffffffffffffffff16815260200190815260200160002060006101000a81548160ff0219169083151502179055506000600a60008673ffffffffffffffffffffffffffffffffffffffff1673ffffffffffffffffffffffffffffffffffffffff16815260200190815260200160002090508087908060018154018082558091505060019003906000526020600020016000909190919091505550505050505050565b6000604051905090565b600080fd5b600080fd5b6000819050919050565b612df381612de0565b8114612dfe57600080fd5b50565b600081359050612e1081612dea565b92915050565b600060208284031215612e2c57612e2b612dd6565b5b6000612e3a84828501612e01565b91505092915050565b600073ffffffffffffffffffffffffffffffffffffffff82169050919050565b6000612e6e82612e43565b9050919050565b612e7e81612e63565b82525050565b6000602082019050612e996000830184612e75565b92915050565b60008060008060808587031215612eb957612eb8612dd6565b5b6000612ec787828801612e01565b9450506020612ed887828801612e01565b9350506040612ee987828801612e01565b9250506060612efa87828801612e01565b91505092959194509250565b60008115159050919050565b612f1b81612f06565b8114612f2657600080fd5b50565b600081359050612f3881612f12565b92915050565b60008060408385031215612f5557612f54612dd6565b5b6000612f6385828601612e01565b9250506020612f7485828601612f29565b9150509250929050565b612f8781612e63565b8114612f9257600080fd5b50565b600081359050612fa481612f7e565b92915050565b600060208284031215612fc057612fbf612dd6565b5b6000612fce84828501612f95565b91505092915050565b612fe081612de0565b82525050565b6000602082019050612ffb6000830184612fd7565b92915050565b6000806040838503121561301857613017612dd6565b5b600061302685828601612f95565b925050602061303785828601612f95565b9150509250929050565b61304a81612f06565b82525050565b600061018082019050613066600083018f612e75565b613073602083018e612fd7565b613080604083018d612fd7565b61308d606083018c612fd7565b61309a608083018b612fd7565b6130a760a083018a612fd7565b6130b460c0830189612fd7565b6130c160e0830188613041565b6130cf610100830187613041565b6130dd610120830186613041565b6130eb610140830185613041565b6130f9610160830184613041565b9d9c50505050505050505050505050565b6000806000806080858703121561312457613123612dd6565b5b600061313287828801612f95565b945050602061314387828801612e01565b935050604061315487828801612e01565b925050606061316587828801612e01565b91505092959194509250565b60008060006060848603121561318a57613189612dd6565b5b600061319886828701612e01565b93505060206131a986828701612e01565b92505060406131ba86828701612e01565b9150509250925092565b600080fd5b6000601f19601f8301169050919050565b7f4e487b7100000000000000000000000000000000000000000000000000000000600052604160045260246000fd5b613212826131c9565b810181811067ffffffffffffffff82111715613231576132306131da565b5b80604052505050565b6000613244612dcc565b90506132508282613209565b919050565b600067ffffffffffffffff8211156132705761326f6131da565b5b602082029050602081019050919050565b600080fd5b600061329961329484613255565b61323a565b905080838252602082019050602084028301858111156132bc576132bb613281565b5b835b818110156132e557806132d18882612f95565b8452602084019350506020810190506132be565b5050509392505050565b600082601f830112613304576133036131c4565b5b8135613314848260208601613286565b91505092915050565b60008060006060848603121561333657613335612dd6565b5b600061334486828701612e01565b935050602084013567ffffffffffffffff81111561336557613364612ddb565b5b613371868287016132ef565b925050604061338286828701612f29565b9150509250925092565b60006080820190506133a16000830187612fd7565b6133ae6020830186612fd7565b6133bb6040830185613041565b6133c86060830184613041565b95945050505050565b600060a0820190506133e66000830188612e75565b6133f36020830187612fd7565b6134006040830186612fd7565b61340d6060830185612fd7565b61341a6080830184612fd7565b9695505050505050565b600082825260208201905092915050565b7f554e415554484f52495a45443a204f4e4c595f434f4e545249425554494f4e5f60008201527f434f4e5452414354000000000000000000000000000000000000000000000000602082015250565b6000613491602883613424565b915061349c82613435565b604082019050919050565b600060208201905081810360008301526134c081613484565b9050919050565b7f494e56414c49443a2042414c4c4f545f414c52454144595f4352454154454400600082015250565b60006134fd601f83613424565b9150613508826134c7565b602082019050919050565b6000602082019050818103600083015261352c816134f0565b9050919050565b60008151905061354281612dea565b92915050565b60006020828403121561355e5761355d612dd6565b5b600061356c84828501613533565b91505092915050565b60006101008201905061358b600083018b612e75565b613598602083018a612fd7565b6135a56040830189612fd7565b6135b26060830188612fd7565b6135bf6080830187612fd7565b6135cc60a0830186612fd7565b6135d960c0830185612fd7565b6135e660e0830184612fd7565b9998505050505050505050565b7f494e56414c49443a20434f4e545249425554494f4e5f49440000000000000000600082015250565b6000613629601883613424565b9150613634826135f3565b602082019050919050565b600060208201905081810360008301526136588161361c565b9050919050565b60006080820190506136746000830187612e75565b6136816020830186612fd7565b61368e6040830185612fd7565b61369b6060830184613041565b95945050505050565b7f554e415554484f52495a45443a2043414e4e4f545f504552464f524d5f41435460008201527f494f4e0000000000000000000000000000000000000000000000000000000000602082015250565b6000613700602383613424565b915061370b826136a4565b604082019050919050565b6000602082019050818103600083015261372f816136f3565b9050919050565b7f496e697469616c697a61626c653a20636f6e747261637420697320616c72656160008201527f647920696e697469616c697a6564000000000000000000000000000000000000602082015250565b6000613792602e83613424565b915061379d82613736565b604082019050919050565b600060208201905081810360008301526137c181613785565b9050919050565b6000819050919050565b600060ff82169050919050565b6000819050919050565b60006138046137ff6137fa846137c8565b6137df565b6137d2565b9050919050565b613814816137e9565b82525050565b600060208201905061382f600083018461380b565b92915050565b7f4e487b7100000000000000000000000000000000000000000000000000000000600052603260045260246000fd5b7f4e487b7100000000000000000000000000000000000000000000000000000000600052601160045260246000fd5b600061389e82612de0565b91506138a983612de0565b9250828210156138bc576138bb613864565b5b828203905092915050565b7f4e487b7100000000000000000000000000000000000000000000000000000000600052603160045260246000fd5b600061390182612de0565b9150600082141561391557613914613864565b5b600182039050919050565b600061392b82612de0565b91507fffffffffffffffffffffffffffffffffffffffffffffffffffffffffffffffff82141561395e5761395d613864565b5b600182019050919050565b7f496e697469616c697a61626c653a20636f6e7472616374206973206e6f74206960008201527f6e697469616c697a696e67000000000000000000000000000000000000000000602082015250565b60006139c5602b83613424565b91506139d082613969565b604082019050919050565b600060208201905081810360008301526139f4816139b8565b9050919050565b7f494e56414c49443a20414c52454144595f564f54454400000000000000000000600082015250565b6000613a31601683613424565b9150613a3c826139fb565b602082019050919050565b60006020820190508181036000830152613a6081613a24565b9050919050565b7f554e415554484f52495a45443a204f574e45525f43414e4e4f545f564f544500600082015250565b6000613a9d601f83613424565b9150613aa882613a67565b602082019050919050565b60006020820190508181036000830152613acc81613a90565b9050919050565b7f494e56414c49443a2042414c4c4f545f4e4f545f464f554e4400000000000000600082015250565b6000613b09601983613424565b9150613b1482613ad3565b602082019050919050565b60006020820190508181036000830152613b3881613afc565b9050919050565b7f494e56414c49443a20564f54494e475f54494d455f4f56455200000000000000600082015250565b6000613b75601983613424565b9150613b8082613b3f565b602082019050919050565b60006020820190508181036000830152613ba481613b68565b9050919050565b6000608082019050613bc06000830187612fd7565b613bcd6020830186612e75565b613bda6040830185612fd7565b613be76060830184612fd7565b95945050505050565b6000819050919050565b6000613c15613c10613c0b84613bf0565b6137df565b612de0565b9050919050565b613c2581613bfa565b82525050565b600060a082019050613c406000830188612fd7565b613c4d6020830187612e75565b613c5a6040830186612fd7565b613c676060830185612fd7565b613c746080830184613c1c565b9695505050505050565b7f494e56414c49443a20524553554c545f414c52454144595f4445434c41524544600082015250565b6000613cb4602083613424565b9150613cbf82613c7e565b602082019050919050565b60006020820190508181036000830152613ce381613ca7565b9050919050565b6000613cf582612de0565b9150613d0083612de0565b9250817fffffffffffffffffffffffffffffffffffffffffffffffffffffffffffffffff0483118215151615613d3957613d38613864565b5b828202905092915050565b7f4e487b7100000000000000000000000000000000000000000000000000000000600052601260045260246000fd5b6000613d7e82612de0565b9150613d8983612de0565b925082613d9957613d98613d44565b5b828204905092915050565b6000613daf82612de0565b9150613dba83612de0565b9250827fffffffffffffffffffffffffffffffffffffffffffffffffffffffffffffffff03821115613def57613dee613864565b5b828201905092915050565b7f494e56414c49443a20414c52454144595f434f554e5445525f4f464645524544600082015250565b6000613e30602083613424565b9150613e3b82613dfa565b602082019050919050565b60006020820190508181036000830152613e5f81613e23565b9050919050565b7f494e56414c49443a20494e5445524e414c3a20555345525f4841535f4e4f545f60008201527f564f544544000000000000000000000000000000000000000000000000000000602082015250565b6000613ec2602583613424565b9150613ecd82613e66565b604082019050919050565b60006020820190508181036000830152613ef181613eb5565b9050919050565b7f494e56414c49443a20434f554e5445525f4f464645525f4e4f545f455849535460008201527f5300000000000000000000000000000000000000000000000000000000000000602082015250565b6000613f54602183613424565b9150613f5f82613ef8565b604082019050919050565b60006020820190508181036000830152613f8381613f47565b9050919050565b6000604082019050613f9f6000830185612e75565b613fac6020830184612fd7565b939250505056fea26469706673582212208c343ee6fb35da31ec9b5fd4e88024e5d988ea5d0cc4decea05d3aea07c89fda64736f6c634300080c0033",
  "immutableReferences": {},
  "source": "// SPDX-License-Identifier: MIT\npragma solidity ^0.8.0;\n\nimport \"./BaseVotingCounterOfferContract.sol\";\nimport \"../interface/ITreasury.sol\";\n\ncontract ContributionVotingContract is BaseVotingCounterOfferContract {\n    /// @dev This structure will hold the data for contribution rewards\n    /// @param requester This is the person who has contributed and is seeking for reward\n    /// @param contributionId This is the contribution id\n    /// @param recordId This is the record id to which the reward belongs to\n    /// @param ballotId This is the ballot id of the reward\n    /// @param communityReward This is the community reward amount\n    /// @param communityTokenId This is the id of community token\n    /// @param governanceReward This is the amount of governance token requested as reward\n    /// @param governanceTokenId This is the id of governance token\n    /// @param isPresent This is to check if a contribution is present for a specific contribution\n    struct ContributionReward {\n        address requester;\n        uint256 contributionId;\n        uint256 recordId;\n        uint256 ballotId;\n        uint256 communityReward;\n        uint256 communityTokenId;\n        uint256 governanceReward;\n        uint256 governanceTokenId;\n        bool isPresent;\n    }\n\n    /// @dev This structure will hold the data for contribution rewards\n    /// @param newCommunityReward This is the community reward amount\n    /// @param newGovernanceReward This is the amount of governance token requested as reward\n    /// @param status This is status of the offer that is either : PENDING = 1 | ACCEPTED = 2 | REJECTED = 3\n    struct CounterOffer {\n        uint256 newCommunityReward;\n        uint256 newGovernanceReward;\n        uint256 status;\n    }\n\n    /// @notice This event is emitted when a contribution ballot is created by a user and it hold the following details\n    /// @dev This event is emitted during contribution ballot creation\n    /// @param requester This is the person who has contributed and is seeking for reward\n    /// @param contributionId This is the contribution id\n    /// @param recordId This is the record id to which the reward belongs to\n    /// @param communityReward This is the community reward amount\n    /// @param communityTokenId This is the id of community token\n    /// @param governanceReward This is the amount of governance token requested as reward\n    /// @param governanceTokenId This is the id of governance token\n    /// @param ballotId This is the ballot id of the reward\n    event ContributionBallotCreated(\n        address requester,\n        uint256 contributionId,\n        uint256 recordId,\n        uint256 communityReward,\n        uint256 communityTokenId,\n        uint256 governanceReward,\n        uint256 governanceTokenId,\n        uint256 ballotId\n    );\n\n    /// @dev This is when a vote is given by user.\n    /// @param voter Address of the voter\n    /// @param contributionId This is the id of the contribution that is linked to this ballot\n    /// @param ballotId Id of the ballot where voting is stored\n    /// @param vote State of vote : true for yes and false for No\n    event ContributionVoting(\n        address voter,\n        uint256 contributionId,\n        uint256 ballotId,\n        bool vote\n    );\n\n    /// @dev this is event which is created when a user proposes counter offer\n    /// @param contributionId This is the id of the contribution that is linked to this ballot\n    /// @param voterId This is the id of the voter who's vote it is\n    /// @param newGovernanceReward This is the new reward amount counter offered by the voter\n    /// @param newCommunityReward This is the new reward amount counter offered by the voter\n    event CounterOfferForContribution(\n        uint256 contributionId,\n        address voterId,\n        uint256 newGovernanceReward,\n        uint256 newCommunityReward\n    );\n\n    /// @dev this is event which is created when the owner of the ballot takes action on a specific counter offer\n    /// @param contributionId This is the id of the contribution that is linked to this ballot\n    /// @param voterId This is the id of the voter who's vote it is\n    /// @param newGovernanceReward This is the new reward amount counter offered by the voter\n    /// @param newCommunityReward This is the new reward amount counter offered by the voter\n    /// @param status This is the status of the counter offer that is => either ACCEPTED = 2 | REJECTED = 3\n    event counterOfferAction(\n        uint256 contributionId,\n        address voterId,\n        uint256 newGovernanceReward,\n        uint256 newCommunityReward,\n        uint256 status\n    );\n\n    /// @dev this event is genrated when result of a ballot is declared\n    /// @param contributionId This is the id of the contribution that is linked to this ballot\n    /// @param ballotId this is the ballot Id for which result is declared\n    /// @param result this is the status of the result, either true if user won that is\n    /// @param minTurnOut this status indicates if minimum amount of user showed up for voting\n    /// he received more than 66% of votes or false if user lost\n    event BallotResult(\n        uint256 contributionId,\n        uint256 ballotId,\n        bool result,\n        bool minTurnOut\n    );\n\n    mapping(uint256 => ContributionReward) rewardMapping;\n    //Bellow mapping is ContributionId => User's address => Counter Offer data\n    mapping(uint256 => mapping(address => CounterOffer)) contributionCounterOfferMap;\n    //This contains all the keys (The key's are users address) of the mapping of the counterOfferMapping.\n    mapping(uint256 => address[]) contributionCounterOfferList;\n    address public CONTRIBUTION_CONTRACT_ADDRESS;\n\n    constructor(uint8 votingInterval, address owner)\n        BaseVotingCounterOfferContract(owner)\n    {\n        VOTING_BLOCK_PERIOD = votingInterval;\n    }\n\n    modifier _onlyContributionContract() {\n        require(\n            msg.sender == CONTRIBUTION_CONTRACT_ADDRESS,\n            \"UNAUTHORIZED: ONLY_CONTRIBUTION_CONTRACT\"\n        );\n        _;\n    }\n\n    /// @dev This is to set the address of the contracts\n    /// @param newTreasuryContractAddress This is the address of new treasury contract\n    /// @param newContributionContractAddress This is the address of new voting hub contract\n    function initialize(\n        address newTreasuryContractAddress,\n        address newContributionContractAddress\n    ) public initializer _ownerOnly {\n        BaseVotingCounterOfferContract.initialize(newTreasuryContractAddress);\n        CONTRIBUTION_CONTRACT_ADDRESS = newContributionContractAddress;\n    }\n\n    /// @dev Sets the contribution contract address so that the voting ballot for contribution can\n    /// be restricted only to a certain contract that is the contribution contract\n    function setContributionContractAddress(\n        address newContributionContractAddress\n    ) public _ownerOnly {\n        CONTRIBUTION_CONTRACT_ADDRESS = newContributionContractAddress;\n    }\n\n    /// @dev This function will create a new contribution voting ballot\n    function createContributionVotingBallot(\n        uint256 contributionId,\n        uint256 recordId,\n        uint256 govReward,\n        uint256 commReward\n    ) public _onlyContributionContract {\n        require(\n            rewardMapping[contributionId].isPresent == false,\n            \"INVALID: BALLOT_ALREADY_CREATED\"\n        );\n\n        ITreasury treasuryContract = ITreasury(TREASURY_CONTRACT_ADDRESS);\n\n        uint256 govTokenId = treasuryContract.getCommunityTokenId(recordId);\n        uint256 commTokenId = treasuryContract.getGovernanceTokenId(recordId);\n\n        uint256 ballotId = _createVoting(true, govTokenId);\n\n        ContributionReward memory contributionReward = ContributionReward({\n            requester: tx.origin,\n            contributionId: contributionId,\n            recordId: recordId,\n            ballotId: ballotId,\n            communityReward: commReward,\n            communityTokenId: commTokenId,\n            governanceReward: govReward,\n            governanceTokenId: govTokenId,\n            isPresent: true\n        });\n\n        emit ContributionBallotCreated({\n            requester: msg.sender,\n            contributionId: contributionId,\n            recordId: recordId,\n            communityReward: commReward,\n            communityTokenId: commTokenId,\n            governanceReward: govReward,\n            governanceTokenId: govTokenId,\n            ballotId: ballotId\n        });\n\n        rewardMapping[contributionId] = contributionReward;\n    }\n\n    /// @dev This function is called by any user to cast vote\n    /// @param contributionId this is the id of the contribution for which user is voting\n    /// @param vote this is the state of the vote, if true than it means the vote is in favour of the ballot\n    function castVoteForContribution(uint256 contributionId, bool vote) public {\n        require(\n            rewardMapping[contributionId].isPresent == true,\n            \"INVALID: CONTRIBUTION_ID\"\n        );\n        super._castVote(rewardMapping[contributionId].ballotId, vote);\n\n        emit ContributionVoting({\n            contributionId: contributionId,\n            ballotId: rewardMapping[contributionId].ballotId,\n            voter: msg.sender,\n            vote: vote\n        });\n    }\n\n    /// @dev This function is called by any user to cast vote\n    /// @param contributionId this is the id of the contribution for which user is creating a counter offer\n    /// @param newCommunityReward new community token amount as reward for the negotiation\n    /// @param newGovernanceReward new governance token amount as reward for the negotiation\n    function proposeCounterOffer(\n        uint256 contributionId,\n        uint256 newCommunityReward,\n        uint256 newGovernanceReward\n    )\n        public\n        _checkIfOwnerAllowed(rewardMapping[contributionId].ballotId)\n        _checkIfBallotIsOpen(rewardMapping[contributionId].ballotId, msg.sender)\n    {\n        _createCounterOffer(rewardMapping[contributionId].ballotId);\n\n        //Create counter offer object and push it into array\n        CounterOffer memory offer = CounterOffer({\n            newCommunityReward: newCommunityReward,\n            newGovernanceReward: newGovernanceReward,\n            status: 1\n        });\n\n        contributionCounterOfferList[contributionId].push(msg.sender);\n        contributionCounterOfferMap[contributionId][msg.sender] = offer;\n\n        emit CounterOfferForContribution(\n            contributionId,\n            msg.sender,\n            offer.newGovernanceReward,\n            offer.newCommunityReward\n        );\n    }\n\n    /// @dev This function is called by owner of the contribution to either accept or reject a counter offer\n    /// @param contributionId this is the id of the contribution to which the counter offer belongs to\n    /// @param counterOfferIds The id of counter offers in array to accept or reject multiple counter offers at once\n    /// @param action this is the state of the vote, if true than it means that user accepts the counter offer\n    function actionOnCounterOffer(\n        uint256 contributionId,\n        address[] memory counterOfferIds,\n        bool action\n    ) public {\n        //only vote once check\n        for (uint256 i = 0; i < counterOfferIds.length; i++) {\n            if (\n                contributionCounterOfferMap[contributionId][counterOfferIds[i]]\n                    .status == 1\n            ) {\n                if (action) {\n                    uint256 newGovernanceReward = contributionCounterOfferMap[\n                        contributionId\n                    ][counterOfferIds[i]].newGovernanceReward;\n                    uint256 newCommunityReward = contributionCounterOfferMap[\n                        contributionId\n                    ][counterOfferIds[i]].newCommunityReward;\n\n                    //Set new reward for the contribution\n                    rewardMapping[contributionId]\n                        .communityReward = newCommunityReward;\n                    rewardMapping[contributionId]\n                        .governanceReward = newGovernanceReward;\n\n                    contributionCounterOfferMap[contributionId][\n                        counterOfferIds[i]\n                    ].status = 2;\n\n                    super._counterOfferAction(\n                        rewardMapping[contributionId].ballotId,\n                        counterOfferIds[i],\n                        true\n                    );\n                    emit counterOfferAction(\n                        contributionId,\n                        counterOfferIds[i],\n                        newGovernanceReward,\n                        newCommunityReward,\n                        2\n                    );\n                } else {\n                    super._counterOfferAction(\n                        rewardMapping[contributionId].ballotId,\n                        counterOfferIds[i],\n                        false\n                    );\n                    //The counter offer ids are the addresses of the user who proposed the offer\n                    contributionCounterOfferMap[contributionId][\n                        counterOfferIds[i]\n                    ].status = 3;\n                }\n            }\n        }\n    }\n\n    /// @dev This function can be called from external source and also from within the contract\n    /// @param contributionId this is the id of the contribution to which the winner is to be declared\n    function declareWinner(uint256 contributionId) external {\n        address[] memory counterOfferList = contributionCounterOfferList[\n            contributionId\n        ];\n\n        //! we should remove the below for loop as we don't need loop through all the offers\n        //! as we are only calculating the votes that are accepted and rest are considered as false\n        // for (uint256 i = 0; i < counterOfferList.length; i++) {\n        //     if (\n        //         contributionCounterOfferMap[contributionId][counterOfferList[i]]\n        //             .status == 1\n        //     ) {\n        //         super._counterOfferAction(\n        //             rewardMapping[contributionId].ballotId,\n        //             counterOfferList[i],\n        //             false\n        //         );\n        //         //The counter offer ids are the addresses of the user who proposed the offer\n        //         contributionCounterOfferMap[contributionId][counterOfferList[i]]\n        //             .status = 3;\n        //     }\n        // }\n        (bool result, bool minTurnOut) = _declareWinner(\n            rewardMapping[contributionId].ballotId\n        );\n\n        emit BallotResult(\n            contributionId,\n            rewardMapping[contributionId].ballotId,\n            result,\n            minTurnOut\n        );\n\n        if (result) {\n            //Transfer the reward amount to user\n            ITreasury treasuryContract = ITreasury(TREASURY_CONTRACT_ADDRESS);\n            treasuryContract.transferRewardAmount(\n                rewardMapping[contributionId].requester,\n                rewardMapping[contributionId].recordId,\n                contributionId,\n                rewardMapping[contributionId].governanceReward,\n                rewardMapping[contributionId].communityReward\n            );\n        }\n    }\n}\n",
  "sourcePath": "/Users/a1/Desktop/Office/projects/CrowdRecords/Contracts/contracts/voting/ContributionVotingContract.sol",
  "compiler": {
    "name": "solc",
    "version": "0.8.12+commit.f00d7308.Emscripten.clang"
  },
  "schemaVersion": "3.4.6",
  "updatedAt": "2022-10-19T09:06:07.093Z",
  "devdoc": {
    "events": {
      "BallotResult(uint256,uint256,bool,bool)": {
        "details": "this event is genrated when result of a ballot is declared",
        "params": {
          "ballotId": "this is the ballot Id for which result is declared",
          "contributionId": "This is the id of the contribution that is linked to this ballot",
          "minTurnOut": "this status indicates if minimum amount of user showed up for voting he received more than 66% of votes or false if user lost",
          "result": "this is the status of the result, either true if user won that is"
        }
      },
      "ContributionBallotCreated(address,uint256,uint256,uint256,uint256,uint256,uint256,uint256)": {
        "details": "This event is emitted during contribution ballot creation",
        "params": {
          "ballotId": "This is the ballot id of the reward",
          "communityReward": "This is the community reward amount",
          "communityTokenId": "This is the id of community token",
          "contributionId": "This is the contribution id",
          "governanceReward": "This is the amount of governance token requested as reward",
          "governanceTokenId": "This is the id of governance token",
          "recordId": "This is the record id to which the reward belongs to",
          "requester": "This is the person who has contributed and is seeking for reward"
        }
      },
      "ContributionVoting(address,uint256,uint256,bool)": {
        "details": "This is when a vote is given by user.",
        "params": {
          "ballotId": "Id of the ballot where voting is stored",
          "contributionId": "This is the id of the contribution that is linked to this ballot",
          "vote": "State of vote : true for yes and false for No",
          "voter": "Address of the voter"
        }
      },
      "CounterOfferForContribution(uint256,address,uint256,uint256)": {
        "details": "this is event which is created when a user proposes counter offer",
        "params": {
          "contributionId": "This is the id of the contribution that is linked to this ballot",
          "newCommunityReward": "This is the new reward amount counter offered by the voter",
          "newGovernanceReward": "This is the new reward amount counter offered by the voter",
          "voterId": "This is the id of the voter who's vote it is"
        }
      },
      "counterOfferAction(uint256,address,uint256,uint256,uint256)": {
        "details": "this is event which is created when the owner of the ballot takes action on a specific counter offer",
        "params": {
          "contributionId": "This is the id of the contribution that is linked to this ballot",
          "newCommunityReward": "This is the new reward amount counter offered by the voter",
          "newGovernanceReward": "This is the new reward amount counter offered by the voter",
          "status": "This is the status of the counter offer that is => either ACCEPTED = 2 | REJECTED = 3",
          "voterId": "This is the id of the voter who's vote it is"
        }
      }
    },
    "kind": "dev",
    "methods": {
      "_handleUserTokenTransfers(address,uint256,uint256,uint256)": {
        "details": "This function will be called when either user is transferring the tokens to other account, or is receiving tokens from other tokens.",
        "params": {
          "newBalance": "this is the new balance of the user that is after the transfer",
          "previousBalance": "this is the old balance of the user",
          "user": "address of the user whose balance is being changed"
        }
      },
      "actionOnCounterOffer(uint256,address[],bool)": {
        "details": "This function is called by owner of the contribution to either accept or reject a counter offer",
        "params": {
          "action": "this is the state of the vote, if true than it means that user accepts the counter offer",
          "contributionId": "this is the id of the contribution to which the counter offer belongs to",
          "counterOfferIds": "The id of counter offers in array to accept or reject multiple counter offers at once"
        }
      },
      "castVoteForContribution(uint256,bool)": {
        "details": "This function is called by any user to cast vote",
        "params": {
          "contributionId": "this is the id of the contribution for which user is voting",
          "vote": "this is the state of the vote, if true than it means the vote is in favour of the ballot"
        }
      },
      "createContributionVotingBallot(uint256,uint256,uint256,uint256)": {
        "details": "This function will create a new contribution voting ballot"
      },
      "declareWinner(uint256)": {
        "details": "This function can be called from external source and also from within the contract",
        "params": {
          "contributionId": "this is the id of the contribution to which the winner is to be declared"
        }
      },
      "initialize(address)": {
        "details": "This function sets the treasury Contract address",
        "params": {
          "newTreasuryContractAddress": "This is the new address of treasury contract"
        }
      },
      "initialize(address,address)": {
        "details": "This is to set the address of the contracts",
        "params": {
          "newContributionContractAddress": "This is the address of new voting hub contract",
          "newTreasuryContractAddress": "This is the address of new treasury contract"
        }
      },
      "proposeCounterOffer(uint256,uint256,uint256)": {
        "details": "This function is called by any user to cast vote",
        "params": {
          "contributionId": "this is the id of the contribution for which user is creating a counter offer",
          "newCommunityReward": "new community token amount as reward for the negotiation",
          "newGovernanceReward": "new governance token amount as reward for the negotiation"
        }
      },
      "setContributionContractAddress(address)": {
        "details": "Sets the contribution contract address so that the voting ballot for contribution can be restricted only to a certain contract that is the contribution contract"
      },
      "setOwnerAddress(address)": {
        "details": "This function sets the owner address",
        "params": {
          "ownerAddress": "This is the address of the owner"
        }
      }
    },
    "version": 1
  },
  "userdoc": {
    "events": {
      "ContributionBallotCreated(address,uint256,uint256,uint256,uint256,uint256,uint256,uint256)": {
        "notice": "This event is emitted when a contribution ballot is created by a user and it hold the following details"
      }
    },
    "kind": "user",
    "methods": {},
    "version": 1
  }
}