{
  "contractName": "ContributionVotingContract",
  "abi": [
    {
      "inputs": [
        {
          "internalType": "uint8",
          "name": "votingInterval",
          "type": "uint8"
        },
        {
          "internalType": "address",
          "name": "owner",
          "type": "address"
        }
      ],
      "stateMutability": "nonpayable",
      "type": "constructor"
    },
    {
      "anonymous": false,
      "inputs": [
        {
          "indexed": false,
          "internalType": "address",
          "name": "requester",
          "type": "address"
        },
        {
          "indexed": false,
          "internalType": "uint256",
          "name": "contributionId",
          "type": "uint256"
        },
        {
          "indexed": false,
          "internalType": "uint256",
          "name": "recordId",
          "type": "uint256"
        },
        {
          "indexed": false,
          "internalType": "uint256",
          "name": "communityReward",
          "type": "uint256"
        },
        {
          "indexed": false,
          "internalType": "uint256",
          "name": "communityTokenId",
          "type": "uint256"
        },
        {
          "indexed": false,
          "internalType": "uint256",
          "name": "governanceReward",
          "type": "uint256"
        },
        {
          "indexed": false,
          "internalType": "uint256",
          "name": "governanceTokenId",
          "type": "uint256"
        },
        {
          "indexed": false,
          "internalType": "uint256",
          "name": "ballotId",
          "type": "uint256"
        },
        {
          "indexed": false,
          "internalType": "uint256",
          "name": "createdAt",
          "type": "uint256"
        },
        {
          "indexed": false,
          "internalType": "uint256",
          "name": "depositAmount",
          "type": "uint256"
        },
        {
          "indexed": false,
          "internalType": "uint256",
          "name": "votingEndBlock",
          "type": "uint256"
        }
      ],
      "name": "ContributionBallotCreated",
      "type": "event"
    },
    {
      "anonymous": false,
      "inputs": [
        {
          "indexed": false,
          "internalType": "uint256",
          "name": "contributionId",
          "type": "uint256"
        },
        {
          "indexed": false,
          "internalType": "uint256",
          "name": "ballotId",
          "type": "uint256"
        },
        {
          "indexed": false,
          "internalType": "bool",
          "name": "result",
          "type": "bool"
        },
        {
          "indexed": false,
          "internalType": "bool",
          "name": "minTurnOut",
          "type": "bool"
        }
      ],
      "name": "ContributionBallotResult",
      "type": "event"
    },
    {
      "anonymous": false,
      "inputs": [
        {
          "indexed": false,
          "internalType": "address",
          "name": "voter",
          "type": "address"
        },
        {
          "indexed": false,
          "internalType": "uint256",
          "name": "contributionId",
          "type": "uint256"
        },
        {
          "indexed": false,
          "internalType": "uint256",
          "name": "ballotId",
          "type": "uint256"
        },
        {
          "indexed": false,
          "internalType": "bool",
          "name": "vote",
          "type": "bool"
        }
      ],
      "name": "ContributionVoting",
      "type": "event"
    },
    {
      "anonymous": false,
      "inputs": [
        {
          "indexed": false,
          "internalType": "uint256",
          "name": "contributionId",
          "type": "uint256"
        },
        {
          "indexed": false,
          "internalType": "address",
          "name": "voterId",
          "type": "address"
        },
        {
          "indexed": false,
          "internalType": "uint256",
          "name": "newGovernanceReward",
          "type": "uint256"
        },
        {
          "indexed": false,
          "internalType": "uint256",
          "name": "newCommunityReward",
          "type": "uint256"
        },
        {
          "indexed": false,
          "internalType": "uint256",
          "name": "status",
          "type": "uint256"
        }
      ],
      "name": "CounterOfferActionForContribution",
      "type": "event"
    },
    {
      "anonymous": false,
      "inputs": [
        {
          "indexed": false,
          "internalType": "uint256",
          "name": "contributionId",
          "type": "uint256"
        },
        {
          "indexed": false,
          "internalType": "address",
          "name": "voterId",
          "type": "address"
        },
        {
          "indexed": false,
          "internalType": "uint256",
          "name": "newGovernanceReward",
          "type": "uint256"
        },
        {
          "indexed": false,
          "internalType": "uint256",
          "name": "newCommunityReward",
          "type": "uint256"
        }
      ],
      "name": "CounterOfferForContribution",
      "type": "event"
    },
    {
      "anonymous": false,
      "inputs": [
        {
          "indexed": false,
          "internalType": "uint8",
          "name": "version",
          "type": "uint8"
        }
      ],
      "name": "Initialized",
      "type": "event"
    },
    {
      "inputs": [],
      "name": "CONTRIBUTION_CONTRACT_ADDRESS",
      "outputs": [
        {
          "internalType": "address",
          "name": "",
          "type": "address"
        }
      ],
      "stateMutability": "view",
      "type": "function"
    },
    {
      "inputs": [],
      "name": "GOVERNANCE",
      "outputs": [
        {
          "internalType": "address",
          "name": "",
          "type": "address"
        }
      ],
      "stateMutability": "view",
      "type": "function"
    },
    {
      "inputs": [],
      "name": "MIN_TURNOUT_PERCENT",
      "outputs": [
        {
          "internalType": "uint256",
          "name": "",
          "type": "uint256"
        }
      ],
      "stateMutability": "view",
      "type": "function"
    },
    {
      "inputs": [],
      "name": "OWNER",
      "outputs": [
        {
          "internalType": "address",
          "name": "",
          "type": "address"
        }
      ],
      "stateMutability": "view",
      "type": "function"
    },
    {
      "inputs": [],
      "name": "TREASURY_CONTRACT_ADDRESS",
      "outputs": [
        {
          "internalType": "address",
          "name": "",
          "type": "address"
        }
      ],
      "stateMutability": "view",
      "type": "function"
    },
    {
      "inputs": [],
      "name": "TREASURY_HUB_ADDRESS",
      "outputs": [
        {
          "internalType": "address",
          "name": "",
          "type": "address"
        }
      ],
      "stateMutability": "view",
      "type": "function"
    },
    {
      "inputs": [],
      "name": "VOTING_BLOCK_PERIOD",
      "outputs": [
        {
          "internalType": "uint256",
          "name": "",
          "type": "uint256"
        }
      ],
      "stateMutability": "view",
      "type": "function"
    },
    {
      "inputs": [],
      "name": "VOTING_DEPOSIT",
      "outputs": [
        {
          "internalType": "uint256",
          "name": "",
          "type": "uint256"
        }
      ],
      "stateMutability": "view",
      "type": "function"
    },
    {
      "inputs": [
        {
          "internalType": "address",
          "name": "user",
          "type": "address"
        },
        {
          "internalType": "uint256",
          "name": "tokenId",
          "type": "uint256"
        },
        {
          "internalType": "uint256",
          "name": "previousBalance",
          "type": "uint256"
        },
        {
          "internalType": "uint256",
          "name": "newBalance",
          "type": "uint256"
        }
      ],
      "name": "_handleUserTokenTransfers",
      "outputs": [],
      "stateMutability": "nonpayable",
      "type": "function"
    },
    {
      "inputs": [],
      "name": "contributionContract",
      "outputs": [
        {
          "internalType": "contract IContribution",
          "name": "",
          "type": "address"
        }
      ],
      "stateMutability": "view",
      "type": "function"
    },
    {
      "inputs": [
        {
          "internalType": "uint256",
          "name": "",
          "type": "uint256"
        },
        {
          "internalType": "address",
          "name": "",
          "type": "address"
        }
      ],
      "name": "contributionCounterOfferMap",
      "outputs": [
        {
          "internalType": "uint256",
          "name": "newCommunityReward",
          "type": "uint256"
        },
        {
          "internalType": "uint256",
          "name": "newGovernanceReward",
          "type": "uint256"
        },
        {
          "internalType": "uint256",
          "name": "status",
          "type": "uint256"
        }
      ],
      "stateMutability": "view",
      "type": "function"
    },
    {
      "inputs": [
        {
          "internalType": "uint256",
          "name": "",
          "type": "uint256"
        }
      ],
      "name": "depositMap",
      "outputs": [
        {
          "internalType": "address",
          "name": "owner",
          "type": "address"
        },
        {
          "internalType": "uint256",
          "name": "ballotId",
          "type": "uint256"
        },
        {
          "internalType": "uint256",
          "name": "depositAmount",
          "type": "uint256"
        },
        {
          "internalType": "bool",
          "name": "isClaimed",
          "type": "bool"
        },
        {
          "internalType": "bool",
          "name": "isPresent",
          "type": "bool"
        }
      ],
      "stateMutability": "view",
      "type": "function"
    },
    {
      "inputs": [
        {
          "internalType": "uint256",
          "name": "",
          "type": "uint256"
        }
      ],
      "name": "rewardMapping",
      "outputs": [
        {
          "internalType": "address",
          "name": "requester",
          "type": "address"
        },
        {
          "internalType": "uint256",
          "name": "contributionId",
          "type": "uint256"
        },
        {
          "internalType": "uint256",
          "name": "recordId",
          "type": "uint256"
        },
        {
          "internalType": "uint256",
          "name": "ballotId",
          "type": "uint256"
        },
        {
          "internalType": "uint256",
          "name": "communityReward",
          "type": "uint256"
        },
        {
          "internalType": "uint256",
          "name": "communityTokenId",
          "type": "uint256"
        },
        {
          "internalType": "uint256",
          "name": "governanceReward",
          "type": "uint256"
        },
        {
          "internalType": "uint256",
          "name": "governanceTokenId",
          "type": "uint256"
        },
        {
          "internalType": "bool",
          "name": "isPresent",
          "type": "bool"
        }
      ],
      "stateMutability": "view",
      "type": "function"
    },
    {
      "inputs": [
        {
          "internalType": "uint256",
          "name": "depositAmount",
          "type": "uint256"
        }
      ],
      "name": "setDepositAmount",
      "outputs": [],
      "stateMutability": "nonpayable",
      "type": "function"
    },
    {
      "inputs": [
        {
          "internalType": "uint256",
          "name": "minTurnOut",
          "type": "uint256"
        }
      ],
      "name": "setMinTurnOut",
      "outputs": [],
      "stateMutability": "nonpayable",
      "type": "function"
    },
    {
      "inputs": [
        {
          "internalType": "address",
          "name": "ownerAddress",
          "type": "address"
        }
      ],
      "name": "setOwnerAddress",
      "outputs": [],
      "stateMutability": "nonpayable",
      "type": "function"
    },
    {
      "inputs": [
        {
          "internalType": "uint256",
          "name": "votingPeriod",
          "type": "uint256"
        }
      ],
      "name": "setVotingPeriod",
      "outputs": [],
      "stateMutability": "nonpayable",
      "type": "function"
    },
    {
      "inputs": [],
      "name": "treasuryContract",
      "outputs": [
        {
          "internalType": "contract ITreasury",
          "name": "",
          "type": "address"
        }
      ],
      "stateMutability": "view",
      "type": "function"
    },
    {
      "inputs": [
        {
          "internalType": "uint256",
          "name": "",
          "type": "uint256"
        }
      ],
      "name": "votingMap",
      "outputs": [
        {
          "internalType": "address",
          "name": "owner",
          "type": "address"
        },
        {
          "internalType": "uint256",
          "name": "yesWeight",
          "type": "uint256"
        },
        {
          "internalType": "uint256",
          "name": "yesCount",
          "type": "uint256"
        },
        {
          "internalType": "uint256",
          "name": "noWeight",
          "type": "uint256"
        },
        {
          "internalType": "uint256",
          "name": "noCount",
          "type": "uint256"
        },
        {
          "internalType": "uint256",
          "name": "tokenId",
          "type": "uint256"
        },
        {
          "internalType": "uint256",
          "name": "votingEndBlock",
          "type": "uint256"
        },
        {
          "internalType": "bool",
          "name": "isResultDeclared",
          "type": "bool"
        },
        {
          "internalType": "bool",
          "name": "canOwnerVote",
          "type": "bool"
        },
        {
          "internalType": "bool",
          "name": "isPresent",
          "type": "bool"
        }
      ],
      "stateMutability": "view",
      "type": "function"
    },
    {
      "inputs": [
        {
          "internalType": "address",
          "name": "newTreasuryContractAddress",
          "type": "address"
        },
        {
          "internalType": "address",
          "name": "newGovernanceContractAddress",
          "type": "address"
        }
      ],
      "name": "initialize",
      "outputs": [],
      "stateMutability": "nonpayable",
      "type": "function"
    },
    {
      "inputs": [
        {
          "internalType": "address",
          "name": "newTreasuryContractAddress",
          "type": "address"
        },
        {
          "internalType": "address",
          "name": "newContributionContractAddress",
          "type": "address"
        },
        {
          "internalType": "address",
          "name": "newGovernanceContractAddress",
          "type": "address"
        }
      ],
      "name": "initialize",
      "outputs": [],
      "stateMutability": "nonpayable",
      "type": "function"
    },
    {
      "inputs": [
        {
          "internalType": "address",
          "name": "newContributionContractAddress",
          "type": "address"
        }
      ],
      "name": "setContributionContractAddress",
      "outputs": [],
      "stateMutability": "nonpayable",
      "type": "function"
    },
    {
      "inputs": [
        {
          "internalType": "uint256",
          "name": "contributionId",
          "type": "uint256"
        },
        {
          "internalType": "uint256",
          "name": "recordId",
          "type": "uint256"
        },
        {
          "internalType": "uint256",
          "name": "govReward",
          "type": "uint256"
        },
        {
          "internalType": "uint256",
          "name": "commReward",
          "type": "uint256"
        }
      ],
      "name": "createContributionVotingBallot",
      "outputs": [],
      "stateMutability": "payable",
      "type": "function"
    },
    {
      "inputs": [
        {
          "internalType": "uint256",
          "name": "contributionId",
          "type": "uint256"
        },
        {
          "internalType": "bool",
          "name": "vote",
          "type": "bool"
        }
      ],
      "name": "castVoteForContribution",
      "outputs": [],
      "stateMutability": "nonpayable",
      "type": "function"
    },
    {
      "inputs": [
        {
          "internalType": "uint256",
          "name": "contributionId",
          "type": "uint256"
        },
        {
          "internalType": "uint256",
          "name": "newCommunityReward",
          "type": "uint256"
        },
        {
          "internalType": "uint256",
          "name": "newGovernanceReward",
          "type": "uint256"
        }
      ],
      "name": "proposeCounterOffer",
      "outputs": [],
      "stateMutability": "nonpayable",
      "type": "function"
    },
    {
      "inputs": [
        {
          "internalType": "uint256",
          "name": "contributionId",
          "type": "uint256"
        },
        {
          "internalType": "address[]",
          "name": "counterOfferIds",
          "type": "address[]"
        },
        {
          "internalType": "bool",
          "name": "action",
          "type": "bool"
        }
      ],
      "name": "actionOnCounterOffer",
      "outputs": [],
      "stateMutability": "nonpayable",
      "type": "function"
    },
    {
      "inputs": [
        {
          "internalType": "uint256",
          "name": "contributionId",
          "type": "uint256"
        }
      ],
      "name": "declareWinner",
      "outputs": [],
      "stateMutability": "nonpayable",
      "type": "function"
    }
  ],
  "bytecode": "0x6080604052662386f26fc1000060015560196002556101f460035560006009553480156200002c57600080fd5b50604051620040fe380380620040fe8339810160408190526200004f916200007b565b600780546001600160a01b0319166001600160a01b039290921691909117905560ff16600255620000ca565b600080604083850312156200008f57600080fd5b825160ff81168114620000a157600080fd5b60208401519092506001600160a01b0381168114620000bf57600080fd5b809150509250929050565b61402480620000da6000396000f3fe6080604052600436106101ab5760003560e01c80636c83244a116100ec578063acb314931161008a578063c9d5914311610064578063c9d5914314610746578063ddfdec6014610766578063e1f2e08414610793578063ea0217cf146107b357600080fd5b8063acb31493146106d9578063c0c53b8b14610706578063c679968a1461072657600080fd5b8063879253a3116100c6578063879253a3146105995780638d2ae1f7146105af5780638f7e8d02146105dc578063abb7ed7f146106b957600080fd5b80636c83244a146104bb5780636d8cee56146104d157806383b0b071146104f157600080fd5b806318da001111610159578063331a6bf511610133578063331a6bf51461036557806333e0ea2e14610385578063485cc955146103a957806363e249c1146103c957600080fd5b806318da0011146102f8578063251686ed1461032557806329c50b591461034557600080fd5b8063117803e31161018a578063117803e31461023c5780631462783414610269578063152b26c11461029657600080fd5b8062c2943c146101b057806307c505b7146101d25780630d76a88214610229575b600080fd5b3480156101bc57600080fd5b506101d06101cb36600461383f565b6107d3565b005b3480156101de57600080fd5b506013546101ff9073ffffffffffffffffffffffffffffffffffffffff1681565b60405173ffffffffffffffffffffffffffffffffffffffff90911681526020015b60405180910390f35b6101d0610237366004613858565b61093a565b34801561024857600080fd5b506007546101ff9073ffffffffffffffffffffffffffffffffffffffff1681565b34801561027557600080fd5b506008546101ff9073ffffffffffffffffffffffffffffffffffffffff1681565b3480156102a257600080fd5b506102dd6102b13660046138af565b601160209081526000928352604080842090915290825290208054600182015460029092015490919083565b60408051938452602084019290925290820152606001610220565b34801561030457600080fd5b506005546101ff9073ffffffffffffffffffffffffffffffffffffffff1681565b34801561033157600080fd5b506101d06103403660046138fd565b610da2565b34801561035157600080fd5b506101d0610360366004613922565b610e9b565b34801561037157600080fd5b506101d0610380366004613922565b610f89565b34801561039157600080fd5b5061039b60035481565b604051908152602001610220565b3480156103b557600080fd5b506101d06103c4366004613946565b611077565b3480156103d557600080fd5b506104546103e436600461383f565b600a602052600090815260409020805460018201546002830154600384015460048501546005860154600687015460079097015473ffffffffffffffffffffffffffffffffffffffff909616969495939492939192909160ff80821691610100810482169162010000909104168a565b6040805173ffffffffffffffffffffffffffffffffffffffff909b168b5260208b0199909952978901969096526060880194909452608087019290925260a086015260c0850152151560e08401521515610100830152151561012082015261014001610220565b3480156104c757600080fd5b5061039b60025481565b3480156104dd57600080fd5b506101d06104ec36600461383f565b61111c565b3480156104fd57600080fd5b5061055661050c36600461383f565b600d60205260009081526040902080546001820154600283015460039093015473ffffffffffffffffffffffffffffffffffffffff90921692909160ff8082169161010090041685565b6040805173ffffffffffffffffffffffffffffffffffffffff9096168652602086019490945292840191909152151560608301521515608082015260a001610220565b3480156105a557600080fd5b5061039b60015481565b3480156105bb57600080fd5b506006546101ff9073ffffffffffffffffffffffffffffffffffffffff1681565b3480156105e857600080fd5b5061065c6105f736600461383f565b60106020526000908152604090208054600182015460028301546003840154600485015460058601546006870154600788015460089098015473ffffffffffffffffffffffffffffffffffffffff909716979596949593949293919290919060ff1689565b6040805173ffffffffffffffffffffffffffffffffffffffff909a168a5260208a0198909852968801959095526060870193909352608086019190915260a085015260c084015260e0830152151561010082015261012001610220565b3480156106c557600080fd5b506101d06106d4366004613974565b6111a2565b3480156106e557600080fd5b506004546101ff9073ffffffffffffffffffffffffffffffffffffffff1681565b34801561071257600080fd5b506101d06107213660046139af565b611360565b34801561073257600080fd5b506101d06107413660046139fa565b6115ee565b34801561075257600080fd5b506101d0610761366004613af2565b6119db565b34801561077257600080fd5b506014546101ff9073ffffffffffffffffffffffffffffffffffffffff1681565b34801561079f57600080fd5b506101d06107ae36600461383f565b611f6c565b3480156107bf57600080fd5b506101d06107ce36600461383f565b611ff2565b60008181526010602052604081206003015481906107f090612078565b600085815260106020526040902060030154919350915061081090612396565b6000838152601060209081526040918290206003015482518681529182015283151581830152821515606082015290517f4164e1b98df7a131d4908683602cd615552c76fbc974e1e67aa3fbf000a04d989181900360800190a181156109355760048054600085815260106020526040908190208054600282015460068301549286015493517f8388f41300000000000000000000000000000000000000000000000000000000815273ffffffffffffffffffffffffffffffffffffffff928316968101969096526024860152604485018890526064850191909152608484019190915216908190638388f4139060a401600060405180830381600087803b15801561091b57600080fd5b505af115801561092f573d6000803e3d6000fd5b50505050505b505050565b60135473ffffffffffffffffffffffffffffffffffffffff1633146109e6576040517f08c379a000000000000000000000000000000000000000000000000000000000815260206004820152602860248201527f554e415554484f52495a45443a204f4e4c595f434f4e545249425554494f4e5f60448201527f434f4e545241435400000000000000000000000000000000000000000000000060648201526084015b60405180910390fd5b60008481526010602052604090206008015460ff1615610a62576040517f08c379a000000000000000000000000000000000000000000000000000000000815260206004820152601f60248201527f494e56414c49443a2042414c4c4f545f414c52454144595f435245415445440060448201526064016109dd565b600480546040517f2d4a038200000000000000000000000000000000000000000000000000000000815291820185905273ffffffffffffffffffffffffffffffffffffffff16906000908290632d4a038290602401602060405180830381865afa158015610ad4573d6000803e3d6000fd5b505050506040513d601f19601f82011682018060405250810190610af89190613bad565b6040517fd6ca40a70000000000000000000000000000000000000000000000000000000081526004810187905290915060009073ffffffffffffffffffffffffffffffffffffffff84169063d6ca40a790602401602060405180830381865afa158015610b69573d6000803e3d6000fd5b505050506040513d601f19601f82011682018060405250810190610b8d9190613bad565b90506000610b9c600184612573565b9050610ba9323483612738565b60006040518061012001604052803273ffffffffffffffffffffffffffffffffffffffff1681526020018a81526020018981526020018381526020018781526020018481526020018881526020018581526020016001151581525090507fbf282bf3ddd2dc29dc864e2b13a7b8b409b894bdee4c3bb4e0e7e5835e37056c338a8a89878c8a8942600154600a60008e815260200190815260200160002060060154604051610cc29b9a9998979695949392919073ffffffffffffffffffffffffffffffffffffffff9b909b168b5260208b019990995260408a01979097526060890195909552608088019390935260a087019190915260c086015260e08501526101008401526101208301526101408201526101600190565b60405180910390a16000988952601060209081526040998a9020825181547fffffffffffffffffffffffff00000000000000000000000000000000000000001673ffffffffffffffffffffffffffffffffffffffff9091161781559082015160018201559881015160028a0155606081015160038a0155608081015160048a015560a081015160058a015560c081015160068a015560e081015160078a01556101000151600890980180547fffffffffffffffffffffffffffffffffffffffffffffffffffffffffffffff00169815159890981790975550505050505050565b60008281526010602052604090206008015460ff161515600114610e22576040517f08c379a000000000000000000000000000000000000000000000000000000000815260206004820152601860248201527f494e56414c49443a20434f4e545249425554494f4e5f4944000000000000000060448201526064016109dd565b600082815260106020526040902060030154610e3e908261289b565b60008281526010602090815260409182902060030154825133815291820185905281830152821515606082015290517fc94df962ce83bb9f5099c0364215ad4932ed320a795c370dc62619a373a9518e9181900360800190a15050565b60075473ffffffffffffffffffffffffffffffffffffffff163314610f42576040517f08c379a000000000000000000000000000000000000000000000000000000000815260206004820152602360248201527f554e415554484f52495a45443a2043414e4e4f545f504552464f524d5f41435460448201527f494f4e000000000000000000000000000000000000000000000000000000000060648201526084016109dd565b601380547fffffffffffffffffffffffff00000000000000000000000000000000000000001673ffffffffffffffffffffffffffffffffffffffff92909216919091179055565b60075473ffffffffffffffffffffffffffffffffffffffff163314611030576040517f08c379a000000000000000000000000000000000000000000000000000000000815260206004820152602360248201527f554e415554484f52495a45443a2043414e4e4f545f504552464f524d5f41435460448201527f494f4e000000000000000000000000000000000000000000000000000000000060648201526084016109dd565b600780547fffffffffffffffffffffffff00000000000000000000000000000000000000001673ffffffffffffffffffffffffffffffffffffffff92909216919091179055565b600054610100900460ff1661110e576040517f08c379a000000000000000000000000000000000000000000000000000000000815260206004820152602b60248201527f496e697469616c697a61626c653a20636f6e7472616374206973206e6f74206960448201527f6e697469616c697a696e6700000000000000000000000000000000000000000060648201526084016109dd565b611118828261292b565b5050565b60085473ffffffffffffffffffffffffffffffffffffffff16331461119d576040517f08c379a000000000000000000000000000000000000000000000000000000000815260206004820152601d60248201527f554e415554484f52495a45443a204f4e4c595f474f5645524e414e434500000060448201526064016109dd565b600155565b73ffffffffffffffffffffffffffffffffffffffff84166000908152600e60205260408120905b815481101561135857600a60008383815481106111e8576111e8613bc6565b6000918252602080832090910154835282019290925260400190206007015460ff1615156001148061124b575043600a600084848154811061122c5761122c613bc6565b9060005260206000200154815260200190815260200160002060060154105b156112e4578154829061126090600190613c24565b8154811061127057611270613bc6565b906000526020600020015482828154811061128d5761128d613bc6565b9060005260206000200181905550818054806112ab576112ab613c3b565b6001900381819060005260206000200160009055905580600014156112d257506000611346565b806112dc81613c6a565b915050611346565b600a60008383815481106112fa576112fa613bc6565b90600052602060002001548152602001908152602001600020600501548514156113465761134682828154811061133357611333613bc6565b9060005260206000200154878686612a22565b8061135081613c9f565b9150506111c9565b505050505050565b600054610100900460ff16158080156113805750600054600160ff909116105b8061139a5750303b15801561139a575060005460ff166001145b611426576040517f08c379a000000000000000000000000000000000000000000000000000000000815260206004820152602e60248201527f496e697469616c697a61626c653a20636f6e747261637420697320616c72656160448201527f647920696e697469616c697a656400000000000000000000000000000000000060648201526084016109dd565b600080547fffffffffffffffffffffffffffffffffffffffffffffffffffffffffffffff00166001179055801561148457600080547fffffffffffffffffffffffffffffffffffffffffffffffffffffffffffff00ff166101001790555b60075473ffffffffffffffffffffffffffffffffffffffff16331461152b576040517f08c379a000000000000000000000000000000000000000000000000000000000815260206004820152602360248201527f554e415554484f52495a45443a2043414e4e4f545f504552464f524d5f41435460448201527f494f4e000000000000000000000000000000000000000000000000000000000060648201526084016109dd565b6115358483611077565b6013805473ffffffffffffffffffffffffffffffffffffffff85167fffffffffffffffffffffffff0000000000000000000000000000000000000000918216811790925560148054909116909117905580156115e857600080547fffffffffffffffffffffffffffffffffffffffffffffffffffffffffffff00ff169055604051600181527f7f26b83ff96e1f2b6a682f133852f6798a09c465da95921460cefb38474024989060200160405180910390a15b50505050565b600083815260106020908152604080832060030154808452600a90925290912060070154610100900460ff16156116a8576000818152600b6020908152604080832032845290915290205460ff16156116a3576040517f08c379a000000000000000000000000000000000000000000000000000000000815260206004820152601660248201527f494e56414c49443a20414c52454144595f564f5445440000000000000000000060448201526064016109dd565b611736565b6000818152600a602052604090205473ffffffffffffffffffffffffffffffffffffffff16321415611736576040517f08c379a000000000000000000000000000000000000000000000000000000000815260206004820152601f60248201527f554e415554484f52495a45443a204f574e45525f43414e4e4f545f564f54450060448201526064016109dd565b600084815260106020908152604080832060030154808452600a90925290912060070154339062010000900460ff1615156001146117d0576040517f08c379a000000000000000000000000000000000000000000000000000000000815260206004820152601960248201527f494e56414c49443a2042414c4c4f545f4e4f545f464f554e440000000000000060448201526064016109dd565b6000828152600a6020526040902060060154431061184a576040517f08c379a000000000000000000000000000000000000000000000000000000000815260206004820152601960248201527f494e56414c49443a20564f54494e475f54494d455f4f5645520000000000000060448201526064016109dd565b6000828152600b6020908152604080832073ffffffffffffffffffffffffffffffffffffffff8516845290915290205460ff16156118e4576040517f08c379a000000000000000000000000000000000000000000000000000000000815260206004820152601660248201527f494e56414c49443a20414c52454144595f564f5445440000000000000000000060448201526064016109dd565b6000868152601060205260409020600301546118ff90612bc5565b60408051606080820183528782526020808301888152600184860181815260008d815260128552878120805480850182559082528582200180547fffffffffffffffffffffffff000000000000000000000000000000000000000016339081179091558e82526011865288822081835286529088902087518082559451938101849055915160029092019190915586518d8152938401529482019490945290810192909252907f920106c0a661b88d3e90d906bbcd9e579abab6ff29031cb1cc958ddebae47fb89060800160405180910390a150505050505050565b6014546040517f23374b9d0000000000000000000000000000000000000000000000000000000081526004810185905260009173ffffffffffffffffffffffffffffffffffffffff16906323374b9d90602401600060405180830381865afa158015611a4b573d6000803e3d6000fd5b505050506040513d6000823e601f3d9081017fffffffffffffffffffffffffffffffffffffffffffffffffffffffffffffffe0168201604052611a919190810190613dfe565b61012081015190915073ffffffffffffffffffffffffffffffffffffffff163314611b18576040517f08c379a000000000000000000000000000000000000000000000000000000000815260206004820181905260248201527f494e56414c49443a204f4e4c595f434f4e545249425554494f4e5f4f574e455260448201526064016109dd565b6000848152601060205260408120600481015460069091015490915b8551811015611f6357601160008881526020019081526020016000206000878381518110611b6457611b64613bc6565b602002602001015173ffffffffffffffffffffffffffffffffffffffff1673ffffffffffffffffffffffffffffffffffffffff1681526020019081526020016000206002015460011415611f5157600087815260116020526040812087518290899085908110611bd657611bd6613bc6565b602002602001015173ffffffffffffffffffffffffffffffffffffffff1673ffffffffffffffffffffffffffffffffffffffff1681526020019081526020016000206001015490506000601160008a81526020019081526020016000206000898581518110611c4757611c47613bc6565b602002602001015173ffffffffffffffffffffffffffffffffffffffff1673ffffffffffffffffffffffffffffffffffffffff1681526020019081526020016000206000015490508615611e2e57818510158015611ca55750808410155b80611cbb5750818511158015611cbb5750808411155b15611e29578185118015611cce57508084115b15611cef576000898152601060205260409020600481018290556006018290555b60008981526011602052604081208951600292908b9087908110611d1557611d15613bc6565b602002602001015173ffffffffffffffffffffffffffffffffffffffff1673ffffffffffffffffffffffffffffffffffffffff16815260200190815260200160002060020181905550611d98601060008b815260200190815260200160002060030154898581518110611d8a57611d8a613bc6565b602002602001015189612e30565b7ff6c0ef8967ee7f717194ac6b4167b913d91511d2a446ee1e83029d7bf6b3fe7389898581518110611dcc57611dcc613bc6565b602002602001015184848b611de2576003611de5565b60025b6040805195865273ffffffffffffffffffffffffffffffffffffffff909416602086015292840191909152606083015260ff16608082015260a00160405180910390a15b611f4e565b60008981526011602052604081208951600392908b9087908110611e5457611e54613bc6565b602002602001015173ffffffffffffffffffffffffffffffffffffffff1673ffffffffffffffffffffffffffffffffffffffff16815260200190815260200160002060020181905550611ec9601060008b815260200190815260200160002060030154898581518110611d8a57611d8a613bc6565b7ff6c0ef8967ee7f717194ac6b4167b913d91511d2a446ee1e83029d7bf6b3fe7389898581518110611efd57611efd613bc6565b6020908102919091018101516040805193845273ffffffffffffffffffffffffffffffffffffffff909116918301919091528101849052606081018390526003608082015260a00160405180910390a15b50505b80611f5b81613c9f565b915050611b34565b50505050505050565b60085473ffffffffffffffffffffffffffffffffffffffff163314611fed576040517f08c379a000000000000000000000000000000000000000000000000000000000815260206004820152601d60248201527f554e415554484f52495a45443a204f4e4c595f474f5645524e414e434500000060448201526064016109dd565b600355565b60085473ffffffffffffffffffffffffffffffffffffffff163314612073576040517f08c379a000000000000000000000000000000000000000000000000000000000815260206004820152601d60248201527f554e415554484f52495a45443a204f4e4c595f474f5645524e414e434500000060448201526064016109dd565b600255565b6000818152600a6020526040812060070154819062010000900460ff161515600114612100576040517f08c379a000000000000000000000000000000000000000000000000000000000815260206004820152601960248201527f494e56414c49443a2042414c4c4f545f4e4f545f464f554e440000000000000060448201526064016109dd565b6000838152600a6020526040902060060154431161217a576040517f08c379a000000000000000000000000000000000000000000000000000000000815260206004820152601d60248201527f494e56414c49443a20564f54494e475f54494d455f4e4f545f4f56455200000060448201526064016109dd565b6000838152600a602052604090206007015460ff16156121f6576040517f08c379a000000000000000000000000000000000000000000000000000000000815260206004820181905260248201527f494e56414c49443a20524553554c545f414c52454144595f4445434c4152454460448201526064016109dd565b6000838152600a602052604080822060018082015460038301546007840180547fffffffffffffffffffffffffffffffffffffffffffffffffffffffffffffff0016909317909255600580549084015494517f036c22ad000000000000000000000000000000000000000000000000000000008152939591949293919273ffffffffffffffffffffffffffffffffffffffff9091169163036c22ad916122a29160040190815260200190565b602060405180830381865afa1580156122bf573d6000803e3d6000fd5b505050506040513d601f19601f820116820180604052508101906122e39190613bad565b90506000606480600354846122f89190613f5e565b6123029190613f9b565b61230c9190613f9b565b9050806123198585613fd6565b111561238657831561237557600060646123338587613fd6565b61233e906042613f5e565b6123489190613f9b565b90508085111561236357506001988998509650505050505050565b50600098600198509650505050505050565b506000976001975095505050505050565b5060009788975095505050505050565b6000818152600d602052604090206003015460ff61010090910416151560011461241c576040517f08c379a000000000000000000000000000000000000000000000000000000000815260206004820152600d60248201527f4445505f4e4f545f45584953540000000000000000000000000000000000000060448201526064016109dd565b6000818152600d602052604090206003015460ff1615612498576040517f08c379a000000000000000000000000000000000000000000000000000000000815260206004820152601360248201527f4445505f414c52454144595f434c41494d45440000000000000000000000000060448201526064016109dd565b6000818152600d60205260408082208054600290910154915173ffffffffffffffffffffffffffffffffffffffff90911691908381818185875af1925050503d8060008114612503576040519150601f19603f3d011682016040523d82523d6000602084013e612508565b606091505b5050905080611118576040517f08c379a000000000000000000000000000000000000000000000000000000000815260206004820152600d60248201527f494e565f4445505f434c41494d0000000000000000000000000000000000000060448201526064016109dd565b600980546000918261258483613c9f565b919050555060006040518061014001604052803273ffffffffffffffffffffffffffffffffffffffff16815260200160008152602001600081526020016000815260200160008152602001848152602001600254436125e39190613fd6565b81526000602080830182905296151560408084019190915260016060938401819052600980548452600a8a5292829020855181547fffffffffffffffffffffffff00000000000000000000000000000000000000001673ffffffffffffffffffffffffffffffffffffffff909116178155988501519089015583015160028801559082015160038701556080820151600487015560a0820151600587015560c0820151600687015560e08201516007909601805461010080850151610120909501517fffffffffffffffffffffffffffffffffffffffffffffffffffffffffffff00009092169815157fffffffffffffffffffffffffffffffffffffffffffffffffffffffffffff00ff1698909817931515909702929092177fffffffffffffffffffffffffffffffffffffffffffffffffffffffffff00ffff16620100009615159690960295909517905550509054919050565b81600154146127a3576040517f08c379a000000000000000000000000000000000000000000000000000000000815260206004820152600760248201527f494e565f4445500000000000000000000000000000000000000000000000000060448201526064016109dd565b6040805160a08101825273ffffffffffffffffffffffffffffffffffffffff948516815260208082018481526001805484860190815260006060860181815260808701848152988252600d90955295909520935184547fffffffffffffffffffffffff000000000000000000000000000000000000000016981697909717835551958201959095559051600282015592516003909301805491517fffffffffffffffffffffffffffffffffffffffffffffffffffffffffffff00009092169315157fffffffffffffffffffffffffffffffffffffffffffffffffffffffffffff00ff1693909317610100911515919091021790915550565b6000828152600f60209081526040808320338452909152902054829060ff1615612921576040517f08c379a000000000000000000000000000000000000000000000000000000000815260206004820181905260248201527f494e56414c49443a20414c52454144595f434f554e5445525f4f46464552454460448201526064016109dd565b6109358383613130565b600054610100900460ff166129c2576040517f08c379a000000000000000000000000000000000000000000000000000000000815260206004820152602b60248201527f496e697469616c697a61626c653a20636f6e7472616374206973206e6f74206960448201527f6e697469616c697a696e6700000000000000000000000000000000000000000060648201526084016109dd565b6004805473ffffffffffffffffffffffffffffffffffffffff9384167fffffffffffffffffffffffff0000000000000000000000000000000000000000918216811790925560058054821690921790915560088054929093169116179055565b6000848152600b6020908152604080832073ffffffffffffffffffffffffffffffffffffffff8716845290915290205460ff161515600114612ae6576040517f08c379a000000000000000000000000000000000000000000000000000000000815260206004820152602560248201527f494e56414c49443a20494e5445524e414c3a20555345525f4841535f4e4f545f60448201527f564f54454400000000000000000000000000000000000000000000000000000060648201526084016109dd565b6000848152600c6020908152604080832073ffffffffffffffffffffffffffffffffffffffff8716845290915290205460ff168015612b71576000858152600a602052604081206001018054859290612b40908490613c24565b90915550506000858152600a602052604081206001018054849290612b66908490613fd6565b90915550612bbe9050565b6000858152600a602052604081206003018054859290612b92908490613c24565b90915550506000858152600a602052604081206003018054849290612bb8908490613fd6565b90915550505b5050505050565b6000818152600f60209081526040808320338452909152902054819060ff1615612c4b576040517f08c379a000000000000000000000000000000000000000000000000000000000815260206004820181905260248201527f494e56414c49443a20414c52454144595f434f554e5445525f4f46464552454460448201526064016109dd565b6000828152600a60205260409020600701548290339062010000900460ff161515600114612cd5576040517f08c379a000000000000000000000000000000000000000000000000000000000815260206004820152601960248201527f494e56414c49443a2042414c4c4f545f4e4f545f464f554e440000000000000060448201526064016109dd565b6000828152600a60205260409020600601544310612d4f576040517f08c379a000000000000000000000000000000000000000000000000000000000815260206004820152601960248201527f494e56414c49443a20564f54494e475f54494d455f4f5645520000000000000060448201526064016109dd565b6000828152600b6020908152604080832073ffffffffffffffffffffffffffffffffffffffff8516845290915290205460ff1615612de9576040517f08c379a000000000000000000000000000000000000000000000000000000000815260206004820152601660248201527f494e56414c49443a20414c52454144595f564f5445440000000000000000000060448201526064016109dd565b5050506000908152600f60209081526040808320338452909152902080547fffffffffffffffffffffffffffffffffffffffffffffffffffffffffffffff00166001179055565b6000838152600f6020908152604080832073ffffffffffffffffffffffffffffffffffffffff861684529091529020548390839060ff161515600114612ef8576040517f08c379a000000000000000000000000000000000000000000000000000000000815260206004820152602160248201527f494e56414c49443a20434f554e5445525f4f464645525f4e4f545f455849535460448201527f530000000000000000000000000000000000000000000000000000000000000060648201526084016109dd565b6000858152600a6020526040902054859073ffffffffffffffffffffffffffffffffffffffff163314612f87576040517f08c379a000000000000000000000000000000000000000000000000000000000815260206004820152601a60248201527f494e56414c49443a204f4e4c595f42414c4c4f545f4f574e455200000000000060448201526064016109dd565b6000868152600a60205260409020600701548690869062010000900460ff161515600114613011576040517f08c379a000000000000000000000000000000000000000000000000000000000815260206004820152601960248201527f494e56414c49443a2042414c4c4f545f4e4f545f464f554e440000000000000060448201526064016109dd565b6000828152600a6020526040902060060154431061308b576040517f08c379a000000000000000000000000000000000000000000000000000000000815260206004820152601960248201527f494e56414c49443a20564f54494e475f54494d455f4f5645520000000000000060448201526064016109dd565b6000828152600b6020908152604080832073ffffffffffffffffffffffffffffffffffffffff8516845290915290205460ff1615613125576040517f08c379a000000000000000000000000000000000000000000000000000000000815260206004820152601660248201527f494e56414c49443a20414c52454144595f564f5445440000000000000000000060448201526064016109dd565b61092f888789613411565b6000828152600a60205260409020600701548290339062010000900460ff1615156001146131ba576040517f08c379a000000000000000000000000000000000000000000000000000000000815260206004820152601960248201527f494e56414c49443a2042414c4c4f545f4e4f545f464f554e440000000000000060448201526064016109dd565b6000828152600a60205260409020600601544310613234576040517f08c379a000000000000000000000000000000000000000000000000000000000815260206004820152601960248201527f494e56414c49443a20564f54494e475f54494d455f4f5645520000000000000060448201526064016109dd565b6000828152600b6020908152604080832073ffffffffffffffffffffffffffffffffffffffff8516845290915290205460ff16156132ce576040517f08c379a000000000000000000000000000000000000000000000000000000000815260206004820152601660248201527f494e56414c49443a20414c52454144595f564f5445440000000000000000000060448201526064016109dd565b6000848152600a60205260409020600701548490610100900460ff1615613378576000818152600b6020908152604080832032845290915290205460ff1615613373576040517f08c379a000000000000000000000000000000000000000000000000000000000815260206004820152601660248201527f494e56414c49443a20414c52454144595f564f5445440000000000000000000060448201526064016109dd565b613406565b6000818152600a602052604090205473ffffffffffffffffffffffffffffffffffffffff16321415613406576040517f08c379a000000000000000000000000000000000000000000000000000000000815260206004820152601f60248201527f554e415554484f52495a45443a204f574e45525f43414e4e4f545f564f54450060448201526064016109dd565b612bbe8585326135b6565b6000838152600a60205260409020600701548390829062010000900460ff16151560011461349b576040517f08c379a000000000000000000000000000000000000000000000000000000000815260206004820152601960248201527f494e56414c49443a2042414c4c4f545f4e4f545f464f554e440000000000000060448201526064016109dd565b6000828152600a60205260409020600601544310613515576040517f08c379a000000000000000000000000000000000000000000000000000000000815260206004820152601960248201527f494e56414c49443a20564f54494e475f54494d455f4f5645520000000000000060448201526064016109dd565b6000828152600b6020908152604080832073ffffffffffffffffffffffffffffffffffffffff8516845290915290205460ff16156135af576040517f08c379a000000000000000000000000000000000000000000000000000000000815260206004820152601660248201527f494e56414c49443a20414c52454144595f564f5445440000000000000000000060448201526064016109dd565b612bbe8585855b6000838152600a60209081526040808320815161014081018352815473ffffffffffffffffffffffffffffffffffffffff908116825260018301549482019490945260028201548184015260038201546060820152600480830154608083015260058084015460a08401819052600685015460c085015260079094015460ff808216151560e08601526101008083048216151590860152620100009091041615156101208401525493517efdd58e000000000000000000000000000000000000000000000000000000008152919594939093169262fdd58e926136bc9288920173ffffffffffffffffffffffffffffffffffffffff929092168252602082015260400190565b602060405180830381865afa1580156136d9573d6000803e3d6000fd5b505050506040513d601f19601f820116820180604052508101906136fd9190613bad565b90508315613758576000858152600a602052604081206001018054839290613726908490613fd6565b90915550506000858152600a6020526040812060020180546001929061374d908490613fd6565b909155506137a69050565b6000858152600a602052604081206003018054839290613779908490613fd6565b90915550506000858152600a602052604081206004018054600192906137a0908490613fd6565b90915550505b50506000838152600b6020908152604080832073ffffffffffffffffffffffffffffffffffffffff94909416808452938252808320805460017fffffffffffffffffffffffffffffffffffffffffffffffffffffffffffffff009182168117909255878552600c8452828520958552948352818420805490951695151595909517909355600e8152918120805493840181558152200155565b60006020828403121561385157600080fd5b5035919050565b6000806000806080858703121561386e57600080fd5b5050823594602084013594506040840135936060013592509050565b73ffffffffffffffffffffffffffffffffffffffff811681146138ac57600080fd5b50565b600080604083850312156138c257600080fd5b8235915060208301356138d48161388a565b809150509250929050565b80151581146138ac57600080fd5b80356138f8816138df565b919050565b6000806040838503121561391057600080fd5b8235915060208301356138d4816138df565b60006020828403121561393457600080fd5b813561393f8161388a565b9392505050565b6000806040838503121561395957600080fd5b82356139648161388a565b915060208301356138d48161388a565b6000806000806080858703121561398a57600080fd5b84356139958161388a565b966020860135965060408601359560600135945092505050565b6000806000606084860312156139c457600080fd5b83356139cf8161388a565b925060208401356139df8161388a565b915060408401356139ef8161388a565b809150509250925092565b600080600060608486031215613a0f57600080fd5b505081359360208301359350604090920135919050565b7f4e487b7100000000000000000000000000000000000000000000000000000000600052604160045260246000fd5b604051610160810167ffffffffffffffff81118282101715613a7957613a79613a26565b60405290565b604051601f82017fffffffffffffffffffffffffffffffffffffffffffffffffffffffffffffffe016810167ffffffffffffffff81118282101715613ac657613ac6613a26565b604052919050565b600067ffffffffffffffff821115613ae857613ae8613a26565b5060051b60200190565b600080600060608486031215613b0757600080fd5b8335925060208085013567ffffffffffffffff811115613b2657600080fd5b8501601f81018713613b3757600080fd5b8035613b4a613b4582613ace565b613a7f565b81815260059190911b82018301908381019089831115613b6957600080fd5b928401925b82841015613b90578335613b818161388a565b82529284019290840190613b6e565b8096505050505050613ba4604085016138ed565b90509250925092565b600060208284031215613bbf57600080fd5b5051919050565b7f4e487b7100000000000000000000000000000000000000000000000000000000600052603260045260246000fd5b7f4e487b7100000000000000000000000000000000000000000000000000000000600052601160045260246000fd5b600082821015613c3657613c36613bf5565b500390565b7f4e487b7100000000000000000000000000000000000000000000000000000000600052603160045260246000fd5b600081613c7957613c79613bf5565b507fffffffffffffffffffffffffffffffffffffffffffffffffffffffffffffffff0190565b60007fffffffffffffffffffffffffffffffffffffffffffffffffffffffffffffffff821415613cd157613cd1613bf5565b5060010190565b600082601f830112613ce957600080fd5b81516020613cf9613b4583613ace565b82815260059290921b84018101918181019086841115613d1857600080fd5b8286015b84811015613d335780518352918301918301613d1c565b509695505050505050565b600082601f830112613d4f57600080fd5b815167ffffffffffffffff811115613d6957613d69613a26565b6020613d9b817fffffffffffffffffffffffffffffffffffffffffffffffffffffffffffffffe0601f85011601613a7f565b8281528582848701011115613daf57600080fd5b60005b83811015613dcd578581018301518282018401528201613db2565b83811115613dde5760008385840101525b5095945050505050565b80516138f8816138df565b80516138f88161388a565b600060208284031215613e1057600080fd5b815167ffffffffffffffff80821115613e2857600080fd5b908301906101608286031215613e3d57600080fd5b613e45613a55565b825182811115613e5457600080fd5b613e6087828601613cd8565b825250602083015182811115613e7557600080fd5b613e8187828601613d3e565b60208301525060408301516040820152606083015182811115613ea357600080fd5b613eaf87828601613d3e565b606083015250608083015182811115613ec757600080fd5b613ed387828601613d3e565b608083015250613ee560a08401613de8565b60a0820152613ef660c08401613de8565b60c082015260e083015160e08201526101008084015183811115613f1957600080fd5b613f2588828701613d3e565b8284015250506101209150613f3b828401613df3565b828201526101409150613f4f828401613de8565b91810191909152949350505050565b6000817fffffffffffffffffffffffffffffffffffffffffffffffffffffffffffffffff0483118215151615613f9657613f96613bf5565b500290565b600082613fd1577f4e487b7100000000000000000000000000000000000000000000000000000000600052601260045260246000fd5b500490565b60008219821115613fe957613fe9613bf5565b50019056fea2646970667358221220c6590665947d0b47a08d7fe763feab6780c226232f7009c8fb35b6d9bc0baac464736f6c634300080c0033",
  "immutableReferences": {},
  "source": "// SPDX-License-Identifier: MIT\npragma solidity ^0.8.0;\n\nimport \"./BaseVotingCounterOfferContract.sol\";\nimport \"../interface/ITreasury.sol\";\nimport \"../interface/IContribution.sol\";\n\ncontract ContributionVotingContract is BaseVotingCounterOfferContract {\n    /// @dev This structure will hold the data for contribution rewards\n    /// @param requester This is the person who has contributed and is seeking for reward\n    /// @param contributionId This is the contribution id\n    /// @param recordId This is the record id to which the reward belongs to\n    /// @param ballotId This is the ballot id of the reward\n    /// @param communityReward This is the community reward amount\n    /// @param communityTokenId This is the id of community token\n    /// @param governanceReward This is the amount of governance token requested as reward\n    /// @param governanceTokenId This is the id of governance token\n    /// @param isPresent This is to check if a contribution is present for a specific contribution\n    struct ContributionReward {\n        address requester;\n        uint256 contributionId;\n        uint256 recordId;\n        uint256 ballotId;\n        uint256 communityReward;\n        uint256 communityTokenId;\n        uint256 governanceReward;\n        uint256 governanceTokenId;\n        bool isPresent;\n    }\n\n    /// @dev This structure will hold the data for contribution rewards\n    /// @param newCommunityReward This is the community reward amount\n    /// @param newGovernanceReward This is the amount of governance token requested as reward\n    /// @param status This is status of the offer that is either : PENDING = 1 | ACCEPTED = 2 | REJECTED = 3\n    struct CounterOffer {\n        uint256 newCommunityReward;\n        uint256 newGovernanceReward;\n        uint256 status;\n    }\n\n    /// @notice This event is emitted when a contribution ballot is created by a user and it hold the following details\n    /// @dev This event is emitted during contribution ballot creation\n    /// @param requester This is the person who has contributed and is seeking for reward\n    /// @param contributionId This is the contribution id\n    /// @param recordId This is the record id to which the reward belongs to\n    /// @param communityReward This is the community reward amount\n    /// @param communityTokenId This is the id of community token\n    /// @param governanceReward This is the amount of governance token requested as reward\n    /// @param governanceTokenId This is the id of governance token\n    /// @param ballotId This is the ballot id of the reward\n    /// @param createdAt time when the ballot was created\n    /// @param depositAmount this is the amount of tokens deposited by user in order to create voting\n    /// @param votingEndBlock this is the block when the voting will end for the ballot\n    event ContributionBallotCreated(\n        address requester,\n        uint256 contributionId,\n        uint256 recordId,\n        uint256 communityReward,\n        uint256 communityTokenId,\n        uint256 governanceReward,\n        uint256 governanceTokenId,\n        uint256 ballotId,\n        uint256 createdAt,\n        uint256 depositAmount,\n        uint256 votingEndBlock\n    );\n\n    /// @dev This is when a vote is given by user.\n    /// @param voter Address of the voter\n    /// @param contributionId This is the id of the contribution that is linked to this ballot\n    /// @param ballotId Id of the ballot where voting is stored\n    /// @param vote State of vote : true for yes and false for No\n    event ContributionVoting(\n        address voter,\n        uint256 contributionId,\n        uint256 ballotId,\n        bool vote\n    );\n\n    /// @dev this is event which is created when a user proposes counter offer\n    /// @param contributionId This is the id of the contribution that is linked to this ballot\n    /// @param voterId This is the id of the voter who's vote it is\n    /// @param newGovernanceReward This is the new reward amount counter offered by the voter\n    /// @param newCommunityReward This is the new reward amount counter offered by the voter\n    event CounterOfferForContribution(\n        uint256 contributionId,\n        address voterId,\n        uint256 newGovernanceReward,\n        uint256 newCommunityReward\n    );\n\n    /// @dev this is event which is created when the owner of the ballot takes action on a specific counter offer\n    /// @param contributionId This is the id of the contribution that is linked to this ballot\n    /// @param voterId This is the id of the voter who's vote it is\n    /// @param newGovernanceReward This is the new reward amount counter offered by the voter\n    /// @param newCommunityReward This is the new reward amount counter offered by the voter\n    /// @param status This is the status of the counter offer that is => either ACCEPTED = 2 | REJECTED = 3\n    event CounterOfferActionForContribution(\n        uint256 contributionId,\n        address voterId,\n        uint256 newGovernanceReward,\n        uint256 newCommunityReward,\n        uint256 status\n    );\n\n    /// @dev this event is generated when result of a ballot is declared\n    /// @param contributionId This is the id of the contribution that is linked to this ballot\n    /// @param ballotId this is the ballot Id for which result is declared\n    /// @param result this is the status of the result, either true if user won that is\n    /// @param minTurnOut this status indicates if minimum amount of user showed up for voting\n    /// he received more than 66% of votes or false if user lost\n    event ContributionBallotResult(\n        uint256 contributionId,\n        uint256 ballotId,\n        bool result,\n        bool minTurnOut\n    );\n\n    mapping(uint256 => ContributionReward) public rewardMapping;\n    //Bellow mapping is ContributionId => User's address => Counter Offer data\n    mapping(uint256 => mapping(address => CounterOffer))\n        public contributionCounterOfferMap;\n    //This contains all the keys (The key's are users address) of the mapping of the counterOfferMapping.\n    mapping(uint256 => address[]) contributionCounterOfferList;\n    address public CONTRIBUTION_CONTRACT_ADDRESS;\n\n    // Contribution contract\n    IContribution public contributionContract;\n\n    constructor(\n        uint8 votingInterval,\n        address owner\n    ) BaseVotingCounterOfferContract(owner) {\n        VOTING_BLOCK_PERIOD = votingInterval;\n    }\n\n    modifier _onlyContributionContract() {\n        require(\n            msg.sender == CONTRIBUTION_CONTRACT_ADDRESS,\n            \"UNAUTHORIZED: ONLY_CONTRIBUTION_CONTRACT\"\n        );\n        _;\n    }\n\n    /// @dev This is to set the address of the contracts\n    /// @param newTreasuryContractAddress This is the address of new treasury contract\n    /// @param newContributionContractAddress This is the address of new voting hub contract\n    /// @param newGovernanceContractAddress This is the address for the governance contract\n    function initialize(\n        address newTreasuryContractAddress,\n        address newContributionContractAddress,\n        address newGovernanceContractAddress\n    ) public initializer _ownerOnly {\n        BaseVotingCounterOfferContract.initialize(\n            newTreasuryContractAddress,\n            newGovernanceContractAddress\n        );\n        CONTRIBUTION_CONTRACT_ADDRESS = newContributionContractAddress;\n        contributionContract = IContribution(CONTRIBUTION_CONTRACT_ADDRESS);\n    }\n\n    /// @dev Sets the contribution contract address so that the voting ballot for contribution can\n    /// be restricted only to a certain contract that is the contribution contract\n    function setContributionContractAddress(\n        address newContributionContractAddress\n    ) public _ownerOnly {\n        CONTRIBUTION_CONTRACT_ADDRESS = newContributionContractAddress;\n    }\n\n    /// @dev This function will create a new contribution voting ballot\n    function createContributionVotingBallot(\n        uint256 contributionId,\n        uint256 recordId,\n        uint256 govReward,\n        uint256 commReward\n    ) public payable _onlyContributionContract {\n        require(\n            rewardMapping[contributionId].isPresent == false,\n            \"INVALID: BALLOT_ALREADY_CREATED\"\n        );\n\n        ITreasury treasuryContract = ITreasury(TREASURY_CONTRACT_ADDRESS);\n\n        uint256 govTokenId = treasuryContract.getCommunityTokenId(recordId);\n        uint256 commTokenId = treasuryContract.getGovernanceTokenId(recordId);\n\n        uint256 ballotId = _createVoting(true, govTokenId);\n        _createDeposit(tx.origin, msg.value, ballotId);\n\n        ContributionReward memory contributionReward = ContributionReward({\n            requester: tx.origin,\n            contributionId: contributionId,\n            recordId: recordId,\n            ballotId: ballotId,\n            communityReward: commReward,\n            communityTokenId: commTokenId,\n            governanceReward: govReward,\n            governanceTokenId: govTokenId,\n            isPresent: true\n        });\n\n        emit ContributionBallotCreated({\n            requester: msg.sender,\n            contributionId: contributionId,\n            recordId: recordId,\n            communityReward: commReward,\n            communityTokenId: commTokenId,\n            governanceReward: govReward,\n            governanceTokenId: govTokenId,\n            ballotId: ballotId,\n            createdAt: block.timestamp,\n            depositAmount: VOTING_DEPOSIT,\n            votingEndBlock: votingMap[ballotId].votingEndBlock\n        });\n\n        rewardMapping[contributionId] = contributionReward;\n    }\n\n    /// @dev This function is called by any user to cast vote\n    /// @param contributionId this is the id of the contribution for which user is voting\n    /// @param vote this is the state of the vote, if true than it means the vote is in favour of the ballot\n    function castVoteForContribution(uint256 contributionId, bool vote) public {\n        require(\n            rewardMapping[contributionId].isPresent == true,\n            \"INVALID: CONTRIBUTION_ID\"\n        );\n        super._castVote(rewardMapping[contributionId].ballotId, vote);\n\n        emit ContributionVoting({\n            contributionId: contributionId,\n            ballotId: rewardMapping[contributionId].ballotId,\n            voter: msg.sender,\n            vote: vote\n        });\n    }\n\n    /// @dev This function is called by any user to cast vote\n    /// @param contributionId this is the id of the contribution for which user is creating a counter offer\n    /// @param newCommunityReward new community token amount as reward for the negotiation\n    /// @param newGovernanceReward new governance token amount as reward for the negotiation\n    function proposeCounterOffer(\n        uint256 contributionId,\n        uint256 newCommunityReward,\n        uint256 newGovernanceReward\n    )\n        public\n        _checkIfOwnerAllowed(rewardMapping[contributionId].ballotId)\n        _checkIfBallotIsOpen(rewardMapping[contributionId].ballotId, msg.sender)\n    {\n        _createCounterOffer(rewardMapping[contributionId].ballotId);\n\n        //Create counter offer object and push it into array\n        CounterOffer memory offer = CounterOffer({\n            newCommunityReward: newCommunityReward,\n            newGovernanceReward: newGovernanceReward,\n            status: 1\n        });\n\n        contributionCounterOfferList[contributionId].push(msg.sender);\n        contributionCounterOfferMap[contributionId][msg.sender] = offer;\n\n        emit CounterOfferForContribution(\n            contributionId,\n            msg.sender,\n            offer.newGovernanceReward,\n            offer.newCommunityReward\n        );\n    }\n\n    /// @dev This function is called by owner of the contribution to either accept or reject a counter offer\n    /// @param contributionId this is the id of the contribution to which the counter offer belongs to\n    /// @param counterOfferIds The id of counter offers in array to accept or reject multiple counter offers at once\n    /// @param action this is the state of the vote, if true than it means that user accepts the counter offer\n    function actionOnCounterOffer(\n        uint256 contributionId,\n        address[] memory counterOfferIds,\n        bool action\n    ) public {\n        IContribution.Contribution memory contribution = contributionContract\n            .getContributionData(contributionId);\n\n        require(\n            contribution.owner == msg.sender,\n            \"INVALID: ONLY_CONTRIBUTION_OWNER\"\n        );\n\n        uint256 currentContributionReward = rewardMapping[contributionId]\n            .communityReward;\n        uint256 currentGovernanceReward = rewardMapping[contributionId]\n            .governanceReward;\n\n        //only vote once check\n        for (uint256 i = 0; i < counterOfferIds.length; i++) {\n            if (\n                contributionCounterOfferMap[contributionId][counterOfferIds[i]]\n                    .status == 1\n            ) {\n                uint256 newGovernanceReward = contributionCounterOfferMap[\n                    contributionId\n                ][counterOfferIds[i]].newGovernanceReward;\n                uint256 newCommunityReward = contributionCounterOfferMap[\n                    contributionId\n                ][counterOfferIds[i]].newCommunityReward;\n\n                // We have 3 different cases here,\n                // one is where the new reward is greater then existing one\n                // two is where the new reward is less then existing one\n                // three is where the new reward is not comparable to current one such as where community can be greater then existing and governance can be smaller then existing or vice versa\n                if (action) {\n                    // There is possibility to accepting the reward is when the new reward is greater or smaller, if it falls under 3rd case then you cannot accept it\n                    // Here the counter offer could only be accepted if both contribution and governance reward are either greater or smaller then the current one\n                    if (\n                        (currentContributionReward >= newGovernanceReward &&\n                            currentGovernanceReward >= newCommunityReward) ||\n                        (currentContributionReward <= newGovernanceReward &&\n                            currentGovernanceReward <= newCommunityReward)\n                    ) {\n                        // Only if the current contribution is greater then the new one it would replace the reward or else it would just stay the same\n                        if (\n                            currentContributionReward > newGovernanceReward &&\n                            currentGovernanceReward > newCommunityReward\n                        ) {\n                            //Set new reward for the contribution\n                            rewardMapping[contributionId]\n                                .communityReward = newCommunityReward;\n                            rewardMapping[contributionId]\n                                .governanceReward = newGovernanceReward;\n                        }\n\n                        contributionCounterOfferMap[contributionId][\n                            counterOfferIds[i]\n                        ].status = 2;\n\n                        super._counterOfferAction(\n                            rewardMapping[contributionId].ballotId,\n                            counterOfferIds[i],\n                            action\n                        );\n                        emit CounterOfferActionForContribution(\n                            contributionId,\n                            counterOfferIds[i],\n                            newGovernanceReward,\n                            newCommunityReward,\n                            action ? 2 : 3\n                        );\n                    }\n                } else {\n                    //The counter offer ids are the addresses of the user who proposed the offer\n                    contributionCounterOfferMap[contributionId][\n                        counterOfferIds[i]\n                    ].status = 3;\n                    super._counterOfferAction(\n                        rewardMapping[contributionId].ballotId,\n                        counterOfferIds[i],\n                        action\n                    );\n                    emit CounterOfferActionForContribution(\n                        contributionId,\n                        counterOfferIds[i],\n                        newGovernanceReward,\n                        newCommunityReward,\n                        3\n                    );\n                }\n            }\n        }\n    }\n\n    /// @dev This function can be called from external source and also from within the contract\n    /// @param contributionId this is the id of the contribution to which the winner is to be declared\n    function declareWinner(uint256 contributionId) external {\n        // address[] memory counterOfferList = contributionCounterOfferList[\n        //     contributionId\n        // ];\n\n        //! we should remove the below for loop as we don't need loop through all the offers\n        //! as we are only calculating the votes that are accepted and rest are considered as false\n        // for (uint256 i = 0; i < counterOfferList.length; i++) {\n        //     if (\n        //         contributionCounterOfferMap[contributionId][counterOfferList[i]]\n        //             .status == 1\n        //     ) {\n        //         super._counterOfferAction(\n        //             rewardMapping[contributionId].ballotId,\n        //             counterOfferList[i],\n        //             false\n        //         );\n        //         //The counter offer ids are the addresses of the user who proposed the offer\n        //         contributionCounterOfferMap[contributionId][counterOfferList[i]]\n        //             .status = 3;\n        //     }\n        // }\n        (bool result, bool minTurnOut) = _declareWinner(\n            rewardMapping[contributionId].ballotId\n        );\n        _releaseDeposit(rewardMapping[contributionId].ballotId);\n\n        emit ContributionBallotResult(\n            contributionId,\n            rewardMapping[contributionId].ballotId,\n            result,\n            minTurnOut\n        );\n\n        if (result) {\n            //Transfer the reward amount to user\n            ITreasury treasuryContract = ITreasury(TREASURY_CONTRACT_ADDRESS);\n            treasuryContract.transferRewardAmount(\n                rewardMapping[contributionId].requester,\n                rewardMapping[contributionId].recordId,\n                contributionId,\n                rewardMapping[contributionId].governanceReward,\n                rewardMapping[contributionId].communityReward\n            );\n        }\n    }\n}\n",
  "sourcePath": "/Users/a1/Desktop/Office/projects/CrowdRecords/Contracts/contracts/voting/ContributionVotingContract.sol",
  "compiler": {
    "name": "solc",
    "version": "0.8.12+commit.f00d7308.Emscripten.clang"
  },
  "schemaVersion": "3.4.6",
  "updatedAt": "2023-08-01T17:28:45.774Z",
  "devdoc": {
    "events": {
      "ContributionBallotCreated(address,uint256,uint256,uint256,uint256,uint256,uint256,uint256,uint256,uint256,uint256)": {
        "details": "This event is emitted during contribution ballot creation",
        "params": {
          "ballotId": "This is the ballot id of the reward",
          "communityReward": "This is the community reward amount",
          "communityTokenId": "This is the id of community token",
          "contributionId": "This is the contribution id",
          "createdAt": "time when the ballot was created",
          "depositAmount": "this is the amount of tokens deposited by user in order to create voting",
          "governanceReward": "This is the amount of governance token requested as reward",
          "governanceTokenId": "This is the id of governance token",
          "recordId": "This is the record id to which the reward belongs to",
          "requester": "This is the person who has contributed and is seeking for reward",
          "votingEndBlock": "this is the block when the voting will end for the ballot"
        }
      },
      "ContributionBallotResult(uint256,uint256,bool,bool)": {
        "details": "this event is generated when result of a ballot is declared",
        "params": {
          "ballotId": "this is the ballot Id for which result is declared",
          "contributionId": "This is the id of the contribution that is linked to this ballot",
          "minTurnOut": "this status indicates if minimum amount of user showed up for voting he received more than 66% of votes or false if user lost",
          "result": "this is the status of the result, either true if user won that is"
        }
      },
      "ContributionVoting(address,uint256,uint256,bool)": {
        "details": "This is when a vote is given by user.",
        "params": {
          "ballotId": "Id of the ballot where voting is stored",
          "contributionId": "This is the id of the contribution that is linked to this ballot",
          "vote": "State of vote : true for yes and false for No",
          "voter": "Address of the voter"
        }
      },
      "CounterOfferActionForContribution(uint256,address,uint256,uint256,uint256)": {
        "details": "this is event which is created when the owner of the ballot takes action on a specific counter offer",
        "params": {
          "contributionId": "This is the id of the contribution that is linked to this ballot",
          "newCommunityReward": "This is the new reward amount counter offered by the voter",
          "newGovernanceReward": "This is the new reward amount counter offered by the voter",
          "status": "This is the status of the counter offer that is => either ACCEPTED = 2 | REJECTED = 3",
          "voterId": "This is the id of the voter who's vote it is"
        }
      },
      "CounterOfferForContribution(uint256,address,uint256,uint256)": {
        "details": "this is event which is created when a user proposes counter offer",
        "params": {
          "contributionId": "This is the id of the contribution that is linked to this ballot",
          "newCommunityReward": "This is the new reward amount counter offered by the voter",
          "newGovernanceReward": "This is the new reward amount counter offered by the voter",
          "voterId": "This is the id of the voter who's vote it is"
        }
      }
    },
    "kind": "dev",
    "methods": {
      "_handleUserTokenTransfers(address,uint256,uint256,uint256)": {
        "details": "This function will be called when either user is transferring the tokens to other account, or is receiving tokens from other tokens.",
        "params": {
          "newBalance": "this is the new balance of the user that is after the transfer",
          "previousBalance": "this is the old balance of the user",
          "user": "address of the user whose balance is being changed"
        }
      },
      "actionOnCounterOffer(uint256,address[],bool)": {
        "details": "This function is called by owner of the contribution to either accept or reject a counter offer",
        "params": {
          "action": "this is the state of the vote, if true than it means that user accepts the counter offer",
          "contributionId": "this is the id of the contribution to which the counter offer belongs to",
          "counterOfferIds": "The id of counter offers in array to accept or reject multiple counter offers at once"
        }
      },
      "castVoteForContribution(uint256,bool)": {
        "details": "This function is called by any user to cast vote",
        "params": {
          "contributionId": "this is the id of the contribution for which user is voting",
          "vote": "this is the state of the vote, if true than it means the vote is in favour of the ballot"
        }
      },
      "createContributionVotingBallot(uint256,uint256,uint256,uint256)": {
        "details": "This function will create a new contribution voting ballot"
      },
      "declareWinner(uint256)": {
        "details": "This function can be called from external source and also from within the contract",
        "params": {
          "contributionId": "this is the id of the contribution to which the winner is to be declared"
        }
      },
      "initialize(address,address)": {
        "details": "This function sets the treasury Contract address",
        "params": {
          "newGovernanceContractAddress": "This is the address for the governance contract",
          "newTreasuryContractAddress": "This is the new address of treasury contract"
        }
      },
      "initialize(address,address,address)": {
        "details": "This is to set the address of the contracts",
        "params": {
          "newContributionContractAddress": "This is the address of new voting hub contract",
          "newGovernanceContractAddress": "This is the address for the governance contract",
          "newTreasuryContractAddress": "This is the address of new treasury contract"
        }
      },
      "proposeCounterOffer(uint256,uint256,uint256)": {
        "details": "This function is called by any user to cast vote",
        "params": {
          "contributionId": "this is the id of the contribution for which user is creating a counter offer",
          "newCommunityReward": "new community token amount as reward for the negotiation",
          "newGovernanceReward": "new governance token amount as reward for the negotiation"
        }
      },
      "setContributionContractAddress(address)": {
        "details": "Sets the contribution contract address so that the voting ballot for contribution can be restricted only to a certain contract that is the contribution contract"
      },
      "setDepositAmount(uint256)": {
        "details": "This function sets the VOTING_DEPOSIT percentage",
        "params": {
          "depositAmount": "This is the new deposit amount needed for creating ballot"
        }
      },
      "setMinTurnOut(uint256)": {
        "details": "This function sets the MIN_TURN_OUT percentage",
        "params": {
          "minTurnOut": "This is the new turnout percentage value"
        }
      },
      "setOwnerAddress(address)": {
        "details": "This function sets the owner address",
        "params": {
          "ownerAddress": "This is the address of the owner"
        }
      },
      "setVotingPeriod(uint256)": {
        "details": "This function sets the VOTING_BLOCK_PERIOD percentage",
        "params": {
          "votingPeriod": "This is the voting period"
        }
      }
    },
    "version": 1
  },
  "userdoc": {
    "events": {
      "ContributionBallotCreated(address,uint256,uint256,uint256,uint256,uint256,uint256,uint256,uint256,uint256,uint256)": {
        "notice": "This event is emitted when a contribution ballot is created by a user and it hold the following details"
      }
    },
    "kind": "user",
    "methods": {},
    "version": 1
  }
}