{
  "contractName": "ContributionContract",
  "abi": [
    {
      "inputs": [],
      "stateMutability": "nonpayable",
      "type": "constructor"
    },
    {
      "anonymous": false,
      "inputs": [
        {
          "indexed": true,
          "internalType": "address",
          "name": "owner",
          "type": "address"
        },
        {
          "indexed": true,
          "internalType": "address",
          "name": "approved",
          "type": "address"
        },
        {
          "indexed": true,
          "internalType": "uint256",
          "name": "tokenId",
          "type": "uint256"
        }
      ],
      "name": "Approval",
      "type": "event"
    },
    {
      "anonymous": false,
      "inputs": [
        {
          "indexed": true,
          "internalType": "address",
          "name": "owner",
          "type": "address"
        },
        {
          "indexed": true,
          "internalType": "address",
          "name": "operator",
          "type": "address"
        },
        {
          "indexed": false,
          "internalType": "bool",
          "name": "approved",
          "type": "bool"
        }
      ],
      "name": "ApprovalForAll",
      "type": "event"
    },
    {
      "anonymous": false,
      "inputs": [
        {
          "indexed": false,
          "internalType": "uint256",
          "name": "contributionId",
          "type": "uint256"
        },
        {
          "indexed": false,
          "internalType": "uint256[]",
          "name": "tracks",
          "type": "uint256[]"
        },
        {
          "indexed": false,
          "internalType": "uint256",
          "name": "createdAt",
          "type": "uint256"
        },
        {
          "indexed": false,
          "internalType": "string",
          "name": "previewFile",
          "type": "string"
        },
        {
          "indexed": false,
          "internalType": "string",
          "name": "previewFileHash",
          "type": "string"
        },
        {
          "indexed": false,
          "internalType": "uint256",
          "name": "recordId",
          "type": "uint256"
        },
        {
          "indexed": false,
          "internalType": "bool",
          "name": "seedContribution",
          "type": "bool"
        },
        {
          "indexed": false,
          "internalType": "bool",
          "name": "roughMix",
          "type": "bool"
        },
        {
          "indexed": false,
          "internalType": "uint256",
          "name": "status",
          "type": "uint256"
        },
        {
          "indexed": false,
          "internalType": "string",
          "name": "description",
          "type": "string"
        }
      ],
      "name": "ContributionCreated",
      "type": "event"
    },
    {
      "anonymous": false,
      "inputs": [
        {
          "indexed": true,
          "internalType": "address",
          "name": "from",
          "type": "address"
        },
        {
          "indexed": true,
          "internalType": "address",
          "name": "to",
          "type": "address"
        },
        {
          "indexed": true,
          "internalType": "uint256",
          "name": "tokenId",
          "type": "uint256"
        }
      ],
      "name": "Transfer",
      "type": "event"
    },
    {
      "inputs": [],
      "name": "CONTRIBUTION_VOTING_CONTRACT_ADDRESS",
      "outputs": [
        {
          "internalType": "address",
          "name": "",
          "type": "address"
        }
      ],
      "stateMutability": "view",
      "type": "function"
    },
    {
      "inputs": [
        {
          "internalType": "address",
          "name": "to",
          "type": "address"
        },
        {
          "internalType": "uint256",
          "name": "tokenId",
          "type": "uint256"
        }
      ],
      "name": "approve",
      "outputs": [],
      "stateMutability": "nonpayable",
      "type": "function"
    },
    {
      "inputs": [
        {
          "internalType": "address",
          "name": "owner",
          "type": "address"
        }
      ],
      "name": "balanceOf",
      "outputs": [
        {
          "internalType": "uint256",
          "name": "",
          "type": "uint256"
        }
      ],
      "stateMutability": "view",
      "type": "function"
    },
    {
      "inputs": [
        {
          "internalType": "uint256",
          "name": "tokenId",
          "type": "uint256"
        }
      ],
      "name": "getApproved",
      "outputs": [
        {
          "internalType": "address",
          "name": "",
          "type": "address"
        }
      ],
      "stateMutability": "view",
      "type": "function"
    },
    {
      "inputs": [
        {
          "internalType": "address",
          "name": "owner",
          "type": "address"
        },
        {
          "internalType": "address",
          "name": "operator",
          "type": "address"
        }
      ],
      "name": "isApprovedForAll",
      "outputs": [
        {
          "internalType": "bool",
          "name": "",
          "type": "bool"
        }
      ],
      "stateMutability": "view",
      "type": "function"
    },
    {
      "inputs": [],
      "name": "name",
      "outputs": [
        {
          "internalType": "string",
          "name": "",
          "type": "string"
        }
      ],
      "stateMutability": "view",
      "type": "function"
    },
    {
      "inputs": [
        {
          "internalType": "uint256",
          "name": "tokenId",
          "type": "uint256"
        }
      ],
      "name": "ownerOf",
      "outputs": [
        {
          "internalType": "address",
          "name": "",
          "type": "address"
        }
      ],
      "stateMutability": "view",
      "type": "function"
    },
    {
      "inputs": [
        {
          "internalType": "address",
          "name": "from",
          "type": "address"
        },
        {
          "internalType": "address",
          "name": "to",
          "type": "address"
        },
        {
          "internalType": "uint256",
          "name": "tokenId",
          "type": "uint256"
        }
      ],
      "name": "safeTransferFrom",
      "outputs": [],
      "stateMutability": "nonpayable",
      "type": "function"
    },
    {
      "inputs": [
        {
          "internalType": "address",
          "name": "from",
          "type": "address"
        },
        {
          "internalType": "address",
          "name": "to",
          "type": "address"
        },
        {
          "internalType": "uint256",
          "name": "tokenId",
          "type": "uint256"
        },
        {
          "internalType": "bytes",
          "name": "_data",
          "type": "bytes"
        }
      ],
      "name": "safeTransferFrom",
      "outputs": [],
      "stateMutability": "nonpayable",
      "type": "function"
    },
    {
      "inputs": [
        {
          "internalType": "address",
          "name": "operator",
          "type": "address"
        },
        {
          "internalType": "bool",
          "name": "approved",
          "type": "bool"
        }
      ],
      "name": "setApprovalForAll",
      "outputs": [],
      "stateMutability": "nonpayable",
      "type": "function"
    },
    {
      "inputs": [
        {
          "internalType": "bytes4",
          "name": "interfaceId",
          "type": "bytes4"
        }
      ],
      "name": "supportsInterface",
      "outputs": [
        {
          "internalType": "bool",
          "name": "",
          "type": "bool"
        }
      ],
      "stateMutability": "view",
      "type": "function"
    },
    {
      "inputs": [],
      "name": "symbol",
      "outputs": [
        {
          "internalType": "string",
          "name": "",
          "type": "string"
        }
      ],
      "stateMutability": "view",
      "type": "function"
    },
    {
      "inputs": [
        {
          "internalType": "uint256",
          "name": "tokenId",
          "type": "uint256"
        }
      ],
      "name": "tokenURI",
      "outputs": [
        {
          "internalType": "string",
          "name": "",
          "type": "string"
        }
      ],
      "stateMutability": "view",
      "type": "function"
    },
    {
      "inputs": [
        {
          "internalType": "address",
          "name": "from",
          "type": "address"
        },
        {
          "internalType": "address",
          "name": "to",
          "type": "address"
        },
        {
          "internalType": "uint256",
          "name": "tokenId",
          "type": "uint256"
        }
      ],
      "name": "transferFrom",
      "outputs": [],
      "stateMutability": "nonpayable",
      "type": "function"
    },
    {
      "inputs": [
        {
          "internalType": "address",
          "name": "newVotingContractAddress",
          "type": "address"
        }
      ],
      "name": "setContributionVotingContractAddress",
      "outputs": [],
      "stateMutability": "nonpayable",
      "type": "function"
    },
    {
      "inputs": [
        {
          "internalType": "uint256[]",
          "name": "tracks",
          "type": "uint256[]"
        },
        {
          "internalType": "string",
          "name": "previewFile",
          "type": "string"
        },
        {
          "internalType": "string",
          "name": "previewFileHash",
          "type": "string"
        },
        {
          "internalType": "uint256",
          "name": "recordId",
          "type": "uint256"
        },
        {
          "internalType": "bool",
          "name": "roughMix",
          "type": "bool"
        },
        {
          "internalType": "string",
          "name": "description",
          "type": "string"
        },
        {
          "internalType": "uint256",
          "name": "communityReward",
          "type": "uint256"
        },
        {
          "internalType": "uint256",
          "name": "communityTokenId",
          "type": "uint256"
        },
        {
          "internalType": "uint256",
          "name": "governanceReward",
          "type": "uint256"
        },
        {
          "internalType": "uint256",
          "name": "governanceTokenId",
          "type": "uint256"
        }
      ],
      "name": "createNewContribution",
      "outputs": [
        {
          "internalType": "uint256",
          "name": "",
          "type": "uint256"
        }
      ],
      "stateMutability": "nonpayable",
      "type": "function"
    },
    {
      "inputs": [
        {
          "internalType": "uint256[]",
          "name": "tracks",
          "type": "uint256[]"
        },
        {
          "internalType": "string",
          "name": "previewFile",
          "type": "string"
        },
        {
          "internalType": "string",
          "name": "previewFileHash",
          "type": "string"
        },
        {
          "internalType": "string",
          "name": "description",
          "type": "string"
        }
      ],
      "name": "createSeedContribution",
      "outputs": [
        {
          "internalType": "uint256",
          "name": "",
          "type": "uint256"
        }
      ],
      "stateMutability": "nonpayable",
      "type": "function"
    }
  ],
  "bytecode": "0x60806040523480156200001157600080fd5b506040518060400160405280600d81526020017f436f6e747269627574696f6e73000000000000000000000000000000000000008152506040518060400160405280600481526020017f4354524200000000000000000000000000000000000000000000000000000000815250816000908051906020019062000096929190620000f9565b508060019080519060200190620000af929190620000f9565b50505033600760006101000a81548173ffffffffffffffffffffffffffffffffffffffff021916908373ffffffffffffffffffffffffffffffffffffffff1602179055506200020e565b8280546200010790620001d8565b90600052602060002090601f0160209004810192826200012b576000855562000177565b82601f106200014657805160ff191683800117855562000177565b8280016001018555821562000177579182015b828111156200017657825182559160200191906001019062000159565b5b5090506200018691906200018a565b5090565b5b80821115620001a55760008160009055506001016200018b565b5090565b7f4e487b7100000000000000000000000000000000000000000000000000000000600052602260045260246000fd5b60006002820490506001821680620001f157607f821691505b60208210811415620002085762000207620001a9565b5b50919050565b6133aa806200021e6000396000f3fe608060405234801561001057600080fd5b506004361061010b5760003560e01c806370a08231116100a2578063af67076911610071578063af670769146102c8578063b88d4fde146102e6578063c87b56dd14610302578063e985e9c514610332578063fd3b846d146103625761010b565b806370a082311461022e5780637ddba7871461025e57806395d89b411461028e578063a22cb465146102ac5761010b565b806323b872dd116100de57806323b872dd146101aa57806342842e0e146101c65780636055c855146101e25780636352211e146101fe5761010b565b806301ffc9a71461011057806306fdde0314610140578063081812fc1461015e578063095ea7b31461018e575b600080fd5b61012a60048036038101906101259190611d43565b610392565b6040516101379190611d8b565b60405180910390f35b610148610474565b6040516101559190611e3f565b60405180910390f35b61017860048036038101906101739190611e97565b610506565b6040516101859190611f05565b60405180910390f35b6101a860048036038101906101a39190611f4c565b61058b565b005b6101c460048036038101906101bf9190611f8c565b6106a3565b005b6101e060048036038101906101db9190611f8c565b610703565b005b6101fc60048036038101906101f79190611fdf565b610723565b005b61021860048036038101906102139190611e97565b6107f7565b6040516102259190611f05565b60405180910390f35b61024860048036038101906102439190611fdf565b6108a9565b604051610255919061201b565b60405180910390f35b61027860048036038101906102739190612233565b610961565b604051610285919061201b565b60405180910390f35b610296610b38565b6040516102a39190611e3f565b60405180910390f35b6102c660048036038101906102c19190612336565b610bca565b005b6102d0610be0565b6040516102dd9190611f05565b60405180910390f35b61030060048036038101906102fb9190612417565b610c06565b005b61031c60048036038101906103179190611e97565b610c68565b6040516103299190611e3f565b60405180910390f35b61034c6004803603810190610347919061249a565b610d0f565b6040516103599190611d8b565b60405180910390f35b61037c600480360381019061037791906124da565b610da3565b604051610389919061201b565b60405180910390f35b60007f80ac58cd000000000000000000000000000000000000000000000000000000007bffffffffffffffffffffffffffffffffffffffffffffffffffffffff1916827bffffffffffffffffffffffffffffffffffffffffffffffffffffffff1916148061045d57507f5b5e139f000000000000000000000000000000000000000000000000000000007bffffffffffffffffffffffffffffffffffffffffffffffffffffffff1916827bffffffffffffffffffffffffffffffffffffffffffffffffffffffff1916145b8061046d575061046c82611017565b5b9050919050565b60606000805461048390612658565b80601f01602080910402602001604051908101604052809291908181526020018280546104af90612658565b80156104fc5780601f106104d1576101008083540402835291602001916104fc565b820191906000526020600020905b8154815290600101906020018083116104df57829003601f168201915b5050505050905090565b600061051182611081565b610550576040517f08c379a0000000000000000000000000000000000000000000000000000000008152600401610547906126fc565b60405180910390fd5b6004600083815260200190815260200160002060009054906101000a900473ffffffffffffffffffffffffffffffffffffffff169050919050565b6000610596826107f7565b90508073ffffffffffffffffffffffffffffffffffffffff168373ffffffffffffffffffffffffffffffffffffffff161415610607576040517f08c379a00000000000000000000000000000000000000000000000000000000081526004016105fe9061278e565b60405180910390fd5b8073ffffffffffffffffffffffffffffffffffffffff166106266110ed565b73ffffffffffffffffffffffffffffffffffffffff16148061065557506106548161064f6110ed565b610d0f565b5b610694576040517f08c379a000000000000000000000000000000000000000000000000000000000815260040161068b90612820565b60405180910390fd5b61069e83836110f5565b505050565b6106b46106ae6110ed565b826111ae565b6106f3576040517f08c379a00000000000000000000000000000000000000000000000000000000081526004016106ea906128b2565b60405180910390fd5b6106fe83838361128c565b505050565b61071e83838360405180602001604052806000815250610c06565b505050565b600760009054906101000a900473ffffffffffffffffffffffffffffffffffffffff1673ffffffffffffffffffffffffffffffffffffffff163373ffffffffffffffffffffffffffffffffffffffff16146107b3576040517f08c379a00000000000000000000000000000000000000000000000000000000081526004016107aa90612944565b60405180910390fd5b80600860006101000a81548173ffffffffffffffffffffffffffffffffffffffff021916908373ffffffffffffffffffffffffffffffffffffffff16021790555050565b6000806002600084815260200190815260200160002060009054906101000a900473ffffffffffffffffffffffffffffffffffffffff169050600073ffffffffffffffffffffffffffffffffffffffff168173ffffffffffffffffffffffffffffffffffffffff1614156108a0576040517f08c379a0000000000000000000000000000000000000000000000000000000008152600401610897906129d6565b60405180910390fd5b80915050919050565b60008073ffffffffffffffffffffffffffffffffffffffff168273ffffffffffffffffffffffffffffffffffffffff16141561091a576040517f08c379a000000000000000000000000000000000000000000000000000000000815260040161091190612a68565b60405180910390fd5b600360008373ffffffffffffffffffffffffffffffffffffffff1673ffffffffffffffffffffffffffffffffffffffff168152602001908152602001600020549050919050565b600061096d60066114f3565b60006109796006611509565b90506109853382611517565b600080604051806101200160405280898152602001428152602001888152602001878152602001600081526020016001151581526020016000151581526020016002815260200186815250905080600960008581526020019081526020016000206000820151816000019080519060200190610a02929190611be7565b50602082015181600101556040820151816002019080519060200190610a29929190611c34565b506060820151816003019080519060200190610a46929190611c34565b506080820151816004015560a08201518160050160006101000a81548160ff02191690831515021790555060c08201518160050160016101000a81548160ff02191690831515021790555060e08201518160060155610100820151816007019080519060200190610ab8929190611c34565b509050507f0e40c7fe023d0c99af50ae99427db622223defe0991c758cf528d1b4e74c6cab83826000015183602001518460400151856060015186608001518760a001518860c001518960e001518a6101000151604051610b229a99989796959493929190612b46565b60405180910390a1829350505050949350505050565b606060018054610b4790612658565b80601f0160208091040260200160405190810160405280929190818152602001828054610b7390612658565b8015610bc05780601f10610b9557610100808354040283529160200191610bc0565b820191906000526020600020905b815481529060010190602001808311610ba357829003601f168201915b5050505050905090565b610bdc610bd56110ed565b83836116f1565b5050565b600860009054906101000a900473ffffffffffffffffffffffffffffffffffffffff1681565b610c17610c116110ed565b836111ae565b610c56576040517f08c379a0000000000000000000000000000000000000000000000000000000008152600401610c4d906128b2565b60405180910390fd5b610c628484848461185e565b50505050565b6060610c7382611081565b610cb2576040517f08c379a0000000000000000000000000000000000000000000000000000000008152600401610ca990612c70565b60405180910390fd5b6000610cbc6118ba565b90506000815111610cdc5760405180602001604052806000815250610d07565b80610ce6846118d1565b604051602001610cf7929190612ccc565b6040516020818303038152906040525b915050919050565b6000600560008473ffffffffffffffffffffffffffffffffffffffff1673ffffffffffffffffffffffffffffffffffffffff16815260200190815260200160002060008373ffffffffffffffffffffffffffffffffffffffff1673ffffffffffffffffffffffffffffffffffffffff16815260200190815260200160002060009054906101000a900460ff16905092915050565b6000610daf60066114f3565b6000610dbb6006611509565b9050610dc73382611517565b6000600860009054906101000a900473ffffffffffffffffffffffffffffffffffffffff1690508073ffffffffffffffffffffffffffffffffffffffff16638948b7a28387878b8b6040518663ffffffff1660e01b8152600401610e2f959493929190612cf0565b600060405180830381600087803b158015610e4957600080fd5b505af1158015610e5d573d6000803e3d6000fd5b5050505060006040518061012001604052808f81526020014281526020018e81526020018d81526020018c81526020016000151581526020018b15158152602001600181526020018a815250905080600960008581526020019081526020016000206000820151816000019080519060200190610edb929190611be7565b50602082015181600101556040820151816002019080519060200190610f02929190611c34565b506060820151816003019080519060200190610f1f929190611c34565b506080820151816004015560a08201518160050160006101000a81548160ff02191690831515021790555060c08201518160050160016101000a81548160ff02191690831515021790555060e08201518160060155610100820151816007019080519060200190610f91929190611c34565b509050507f0e40c7fe023d0c99af50ae99427db622223defe0991c758cf528d1b4e74c6cab83826000015183602001518460400151856060015186608001518760a001518860c001518960e001518a6101000151604051610ffb9a99989796959493929190612b46565b60405180910390a18293505050509a9950505050505050505050565b60007f01ffc9a7000000000000000000000000000000000000000000000000000000007bffffffffffffffffffffffffffffffffffffffffffffffffffffffff1916827bffffffffffffffffffffffffffffffffffffffffffffffffffffffff1916149050919050565b60008073ffffffffffffffffffffffffffffffffffffffff166002600084815260200190815260200160002060009054906101000a900473ffffffffffffffffffffffffffffffffffffffff1673ffffffffffffffffffffffffffffffffffffffff1614159050919050565b600033905090565b816004600083815260200190815260200160002060006101000a81548173ffffffffffffffffffffffffffffffffffffffff021916908373ffffffffffffffffffffffffffffffffffffffff160217905550808273ffffffffffffffffffffffffffffffffffffffff16611168836107f7565b73ffffffffffffffffffffffffffffffffffffffff167f8c5be1e5ebec7d5bd14f71427d1e84f3dd0314c0f7b2291e5b200ac8c7c3b92560405160405180910390a45050565b60006111b982611081565b6111f8576040517f08c379a00000000000000000000000000000000000000000000000000000000081526004016111ef90612db5565b60405180910390fd5b6000611203836107f7565b90508073ffffffffffffffffffffffffffffffffffffffff168473ffffffffffffffffffffffffffffffffffffffff16148061127257508373ffffffffffffffffffffffffffffffffffffffff1661125a84610506565b73ffffffffffffffffffffffffffffffffffffffff16145b8061128357506112828185610d0f565b5b91505092915050565b8273ffffffffffffffffffffffffffffffffffffffff166112ac826107f7565b73ffffffffffffffffffffffffffffffffffffffff1614611302576040517f08c379a00000000000000000000000000000000000000000000000000000000081526004016112f990612e47565b60405180910390fd5b600073ffffffffffffffffffffffffffffffffffffffff168273ffffffffffffffffffffffffffffffffffffffff161415611372576040517f08c379a000000000000000000000000000000000000000000000000000000000815260040161136990612ed9565b60405180910390fd5b61137d838383611a32565b6113886000826110f5565b6001600360008573ffffffffffffffffffffffffffffffffffffffff1673ffffffffffffffffffffffffffffffffffffffff16815260200190815260200160002060008282546113d89190612f28565b925050819055506001600360008473ffffffffffffffffffffffffffffffffffffffff1673ffffffffffffffffffffffffffffffffffffffff168152602001908152602001600020600082825461142f9190612f5c565b92505081905550816002600083815260200190815260200160002060006101000a81548173ffffffffffffffffffffffffffffffffffffffff021916908373ffffffffffffffffffffffffffffffffffffffff160217905550808273ffffffffffffffffffffffffffffffffffffffff168473ffffffffffffffffffffffffffffffffffffffff167fddf252ad1be2c89b69c2b068fc378daa952ba7f163c4a11628f55a4df523b3ef60405160405180910390a46114ee838383611a37565b505050565b6001816000016000828254019250508190555050565b600081600001549050919050565b600073ffffffffffffffffffffffffffffffffffffffff168273ffffffffffffffffffffffffffffffffffffffff161415611587576040517f08c379a000000000000000000000000000000000000000000000000000000000815260040161157e90612ffe565b60405180910390fd5b61159081611081565b156115d0576040517f08c379a00000000000000000000000000000000000000000000000000000000081526004016115c79061306a565b60405180910390fd5b6115dc60008383611a32565b6001600360008473ffffffffffffffffffffffffffffffffffffffff1673ffffffffffffffffffffffffffffffffffffffff168152602001908152602001600020600082825461162c9190612f5c565b92505081905550816002600083815260200190815260200160002060006101000a81548173ffffffffffffffffffffffffffffffffffffffff021916908373ffffffffffffffffffffffffffffffffffffffff160217905550808273ffffffffffffffffffffffffffffffffffffffff16600073ffffffffffffffffffffffffffffffffffffffff167fddf252ad1be2c89b69c2b068fc378daa952ba7f163c4a11628f55a4df523b3ef60405160405180910390a46116ed60008383611a37565b5050565b8173ffffffffffffffffffffffffffffffffffffffff168373ffffffffffffffffffffffffffffffffffffffff161415611760576040517f08c379a0000000000000000000000000000000000000000000000000000000008152600401611757906130d6565b60405180910390fd5b80600560008573ffffffffffffffffffffffffffffffffffffffff1673ffffffffffffffffffffffffffffffffffffffff16815260200190815260200160002060008473ffffffffffffffffffffffffffffffffffffffff1673ffffffffffffffffffffffffffffffffffffffff16815260200190815260200160002060006101000a81548160ff0219169083151502179055508173ffffffffffffffffffffffffffffffffffffffff168373ffffffffffffffffffffffffffffffffffffffff167f17307eab39ab6107e8899845ad3d59bd9653f200f220920489ca2b5937696c31836040516118519190611d8b565b60405180910390a3505050565b61186984848461128c565b61187584848484611a3c565b6118b4576040517f08c379a00000000000000000000000000000000000000000000000000000000081526004016118ab90613168565b60405180910390fd5b50505050565b606060405180602001604052806000815250905090565b60606000821415611919576040518060400160405280600181526020017f30000000000000000000000000000000000000000000000000000000000000008152509050611a2d565b600082905060005b6000821461194b57808061193490613188565b915050600a826119449190613200565b9150611921565b60008167ffffffffffffffff8111156119675761196661203b565b5b6040519080825280601f01601f1916602001820160405280156119995781602001600182028036833780820191505090505b5090505b60008514611a26576001826119b29190612f28565b9150600a856119c19190613231565b60306119cd9190612f5c565b60f81b8183815181106119e3576119e2613262565b5b60200101907effffffffffffffffffffffffffffffffffffffffffffffffffffffffffffff1916908160001a905350600a85611a1f9190613200565b945061199d565b8093505050505b919050565b505050565b505050565b6000611a5d8473ffffffffffffffffffffffffffffffffffffffff16611bc4565b15611bb7578373ffffffffffffffffffffffffffffffffffffffff1663150b7a02611a866110ed565b8786866040518563ffffffff1660e01b8152600401611aa894939291906132e6565b6020604051808303816000875af1925050508015611ae457506040513d601f19601f82011682018060405250810190611ae19190613347565b60015b611b67573d8060008114611b14576040519150601f19603f3d011682016040523d82523d6000602084013e611b19565b606091505b50600081511415611b5f576040517f08c379a0000000000000000000000000000000000000000000000000000000008152600401611b5690613168565b60405180910390fd5b805181602001fd5b63150b7a0260e01b7bffffffffffffffffffffffffffffffffffffffffffffffffffffffff1916817bffffffffffffffffffffffffffffffffffffffffffffffffffffffff191614915050611bbc565b600190505b949350505050565b6000808273ffffffffffffffffffffffffffffffffffffffff163b119050919050565b828054828255906000526020600020908101928215611c23579160200282015b82811115611c22578251825591602001919060010190611c07565b5b509050611c309190611cba565b5090565b828054611c4090612658565b90600052602060002090601f016020900481019282611c625760008555611ca9565b82601f10611c7b57805160ff1916838001178555611ca9565b82800160010185558215611ca9579182015b82811115611ca8578251825591602001919060010190611c8d565b5b509050611cb69190611cba565b5090565b5b80821115611cd3576000816000905550600101611cbb565b5090565b6000604051905090565b600080fd5b600080fd5b60007fffffffff0000000000000000000000000000000000000000000000000000000082169050919050565b611d2081611ceb565b8114611d2b57600080fd5b50565b600081359050611d3d81611d17565b92915050565b600060208284031215611d5957611d58611ce1565b5b6000611d6784828501611d2e565b91505092915050565b60008115159050919050565b611d8581611d70565b82525050565b6000602082019050611da06000830184611d7c565b92915050565b600081519050919050565b600082825260208201905092915050565b60005b83811015611de0578082015181840152602081019050611dc5565b83811115611def576000848401525b50505050565b6000601f19601f8301169050919050565b6000611e1182611da6565b611e1b8185611db1565b9350611e2b818560208601611dc2565b611e3481611df5565b840191505092915050565b60006020820190508181036000830152611e598184611e06565b905092915050565b6000819050919050565b611e7481611e61565b8114611e7f57600080fd5b50565b600081359050611e9181611e6b565b92915050565b600060208284031215611ead57611eac611ce1565b5b6000611ebb84828501611e82565b91505092915050565b600073ffffffffffffffffffffffffffffffffffffffff82169050919050565b6000611eef82611ec4565b9050919050565b611eff81611ee4565b82525050565b6000602082019050611f1a6000830184611ef6565b92915050565b611f2981611ee4565b8114611f3457600080fd5b50565b600081359050611f4681611f20565b92915050565b60008060408385031215611f6357611f62611ce1565b5b6000611f7185828601611f37565b9250506020611f8285828601611e82565b9150509250929050565b600080600060608486031215611fa557611fa4611ce1565b5b6000611fb386828701611f37565b9350506020611fc486828701611f37565b9250506040611fd586828701611e82565b9150509250925092565b600060208284031215611ff557611ff4611ce1565b5b600061200384828501611f37565b91505092915050565b61201581611e61565b82525050565b6000602082019050612030600083018461200c565b92915050565b600080fd5b7f4e487b7100000000000000000000000000000000000000000000000000000000600052604160045260246000fd5b61207382611df5565b810181811067ffffffffffffffff821117156120925761209161203b565b5b80604052505050565b60006120a5611cd7565b90506120b1828261206a565b919050565b600067ffffffffffffffff8211156120d1576120d061203b565b5b602082029050602081019050919050565b600080fd5b60006120fa6120f5846120b6565b61209b565b9050808382526020820190506020840283018581111561211d5761211c6120e2565b5b835b8181101561214657806121328882611e82565b84526020840193505060208101905061211f565b5050509392505050565b600082601f83011261216557612164612036565b5b81356121758482602086016120e7565b91505092915050565b600080fd5b600067ffffffffffffffff82111561219e5761219d61203b565b5b6121a782611df5565b9050602081019050919050565b82818337600083830152505050565b60006121d66121d184612183565b61209b565b9050828152602081018484840111156121f2576121f161217e565b5b6121fd8482856121b4565b509392505050565b600082601f83011261221a57612219612036565b5b813561222a8482602086016121c3565b91505092915050565b6000806000806080858703121561224d5761224c611ce1565b5b600085013567ffffffffffffffff81111561226b5761226a611ce6565b5b61227787828801612150565b945050602085013567ffffffffffffffff81111561229857612297611ce6565b5b6122a487828801612205565b935050604085013567ffffffffffffffff8111156122c5576122c4611ce6565b5b6122d187828801612205565b925050606085013567ffffffffffffffff8111156122f2576122f1611ce6565b5b6122fe87828801612205565b91505092959194509250565b61231381611d70565b811461231e57600080fd5b50565b6000813590506123308161230a565b92915050565b6000806040838503121561234d5761234c611ce1565b5b600061235b85828601611f37565b925050602061236c85828601612321565b9150509250929050565b600067ffffffffffffffff8211156123915761239061203b565b5b61239a82611df5565b9050602081019050919050565b60006123ba6123b584612376565b61209b565b9050828152602081018484840111156123d6576123d561217e565b5b6123e18482856121b4565b509392505050565b600082601f8301126123fe576123fd612036565b5b813561240e8482602086016123a7565b91505092915050565b6000806000806080858703121561243157612430611ce1565b5b600061243f87828801611f37565b945050602061245087828801611f37565b935050604061246187828801611e82565b925050606085013567ffffffffffffffff81111561248257612481611ce6565b5b61248e878288016123e9565b91505092959194509250565b600080604083850312156124b1576124b0611ce1565b5b60006124bf85828601611f37565b92505060206124d085828601611f37565b9150509250929050565b6000806000806000806000806000806101408b8d0312156124fe576124fd611ce1565b5b60008b013567ffffffffffffffff81111561251c5761251b611ce6565b5b6125288d828e01612150565b9a505060208b013567ffffffffffffffff81111561254957612548611ce6565b5b6125558d828e01612205565b99505060408b013567ffffffffffffffff81111561257657612575611ce6565b5b6125828d828e01612205565b98505060606125938d828e01611e82565b97505060806125a48d828e01612321565b96505060a08b013567ffffffffffffffff8111156125c5576125c4611ce6565b5b6125d18d828e01612205565b95505060c06125e28d828e01611e82565b94505060e06125f38d828e01611e82565b9350506101006126058d828e01611e82565b9250506101206126178d828e01611e82565b9150509295989b9194979a5092959850565b7f4e487b7100000000000000000000000000000000000000000000000000000000600052602260045260246000fd5b6000600282049050600182168061267057607f821691505b6020821081141561268457612683612629565b5b50919050565b7f4552433732313a20617070726f76656420717565727920666f72206e6f6e657860008201527f697374656e7420746f6b656e0000000000000000000000000000000000000000602082015250565b60006126e6602c83611db1565b91506126f18261268a565b604082019050919050565b60006020820190508181036000830152612715816126d9565b9050919050565b7f4552433732313a20617070726f76616c20746f2063757272656e74206f776e6560008201527f7200000000000000000000000000000000000000000000000000000000000000602082015250565b6000612778602183611db1565b91506127838261271c565b604082019050919050565b600060208201905081810360008301526127a78161276b565b9050919050565b7f4552433732313a20617070726f76652063616c6c6572206973206e6f74206f7760008201527f6e6572206e6f7220617070726f76656420666f7220616c6c0000000000000000602082015250565b600061280a603883611db1565b9150612815826127ae565b604082019050919050565b60006020820190508181036000830152612839816127fd565b9050919050565b7f4552433732313a207472616e736665722063616c6c6572206973206e6f74206f60008201527f776e6572206e6f7220617070726f766564000000000000000000000000000000602082015250565b600061289c603183611db1565b91506128a782612840565b604082019050919050565b600060208201905081810360008301526128cb8161288f565b9050919050565b7f596f7520617265206e6f7420617574686f72697a656420666f7220746869732060008201527f616374696f6e0000000000000000000000000000000000000000000000000000602082015250565b600061292e602683611db1565b9150612939826128d2565b604082019050919050565b6000602082019050818103600083015261295d81612921565b9050919050565b7f4552433732313a206f776e657220717565727920666f72206e6f6e657869737460008201527f656e7420746f6b656e0000000000000000000000000000000000000000000000602082015250565b60006129c0602983611db1565b91506129cb82612964565b604082019050919050565b600060208201905081810360008301526129ef816129b3565b9050919050565b7f4552433732313a2062616c616e636520717565727920666f7220746865207a6560008201527f726f206164647265737300000000000000000000000000000000000000000000602082015250565b6000612a52602a83611db1565b9150612a5d826129f6565b604082019050919050565b60006020820190508181036000830152612a8181612a45565b9050919050565b600081519050919050565b600082825260208201905092915050565b6000819050602082019050919050565b612abd81611e61565b82525050565b6000612acf8383612ab4565b60208301905092915050565b6000602082019050919050565b6000612af382612a88565b612afd8185612a93565b9350612b0883612aa4565b8060005b83811015612b39578151612b208882612ac3565b9750612b2b83612adb565b925050600181019050612b0c565b5085935050505092915050565b600061014082019050612b5c600083018d61200c565b8181036020830152612b6e818c612ae8565b9050612b7d604083018b61200c565b8181036060830152612b8f818a611e06565b90508181036080830152612ba38189611e06565b9050612bb260a083018861200c565b612bbf60c0830187611d7c565b612bcc60e0830186611d7c565b612bda61010083018561200c565b818103610120830152612bed8184611e06565b90509b9a5050505050505050505050565b7f4552433732314d657461646174613a2055524920717565727920666f72206e6f60008201527f6e6578697374656e7420746f6b656e0000000000000000000000000000000000602082015250565b6000612c5a602f83611db1565b9150612c6582612bfe565b604082019050919050565b60006020820190508181036000830152612c8981612c4d565b9050919050565b600081905092915050565b6000612ca682611da6565b612cb08185612c90565b9350612cc0818560208601611dc2565b80840191505092915050565b6000612cd88285612c9b565b9150612ce48284612c9b565b91508190509392505050565b600060a082019050612d05600083018861200c565b612d12602083018761200c565b612d1f604083018661200c565b612d2c606083018561200c565b612d39608083018461200c565b9695505050505050565b7f4552433732313a206f70657261746f7220717565727920666f72206e6f6e657860008201527f697374656e7420746f6b656e0000000000000000000000000000000000000000602082015250565b6000612d9f602c83611db1565b9150612daa82612d43565b604082019050919050565b60006020820190508181036000830152612dce81612d92565b9050919050565b7f4552433732313a207472616e736665722066726f6d20696e636f72726563742060008201527f6f776e6572000000000000000000000000000000000000000000000000000000602082015250565b6000612e31602583611db1565b9150612e3c82612dd5565b604082019050919050565b60006020820190508181036000830152612e6081612e24565b9050919050565b7f4552433732313a207472616e7366657220746f20746865207a65726f2061646460008201527f7265737300000000000000000000000000000000000000000000000000000000602082015250565b6000612ec3602483611db1565b9150612ece82612e67565b604082019050919050565b60006020820190508181036000830152612ef281612eb6565b9050919050565b7f4e487b7100000000000000000000000000000000000000000000000000000000600052601160045260246000fd5b6000612f3382611e61565b9150612f3e83611e61565b925082821015612f5157612f50612ef9565b5b828203905092915050565b6000612f6782611e61565b9150612f7283611e61565b9250827fffffffffffffffffffffffffffffffffffffffffffffffffffffffffffffffff03821115612fa757612fa6612ef9565b5b828201905092915050565b7f4552433732313a206d696e7420746f20746865207a65726f2061646472657373600082015250565b6000612fe8602083611db1565b9150612ff382612fb2565b602082019050919050565b6000602082019050818103600083015261301781612fdb565b9050919050565b7f4552433732313a20746f6b656e20616c7265616479206d696e74656400000000600082015250565b6000613054601c83611db1565b915061305f8261301e565b602082019050919050565b6000602082019050818103600083015261308381613047565b9050919050565b7f4552433732313a20617070726f766520746f2063616c6c657200000000000000600082015250565b60006130c0601983611db1565b91506130cb8261308a565b602082019050919050565b600060208201905081810360008301526130ef816130b3565b9050919050565b7f4552433732313a207472616e7366657220746f206e6f6e20455243373231526560008201527f63656976657220696d706c656d656e7465720000000000000000000000000000602082015250565b6000613152603283611db1565b915061315d826130f6565b604082019050919050565b6000602082019050818103600083015261318181613145565b9050919050565b600061319382611e61565b91507fffffffffffffffffffffffffffffffffffffffffffffffffffffffffffffffff8214156131c6576131c5612ef9565b5b600182019050919050565b7f4e487b7100000000000000000000000000000000000000000000000000000000600052601260045260246000fd5b600061320b82611e61565b915061321683611e61565b925082613226576132256131d1565b5b828204905092915050565b600061323c82611e61565b915061324783611e61565b925082613257576132566131d1565b5b828206905092915050565b7f4e487b7100000000000000000000000000000000000000000000000000000000600052603260045260246000fd5b600081519050919050565b600082825260208201905092915050565b60006132b882613291565b6132c2818561329c565b93506132d2818560208601611dc2565b6132db81611df5565b840191505092915050565b60006080820190506132fb6000830187611ef6565b6133086020830186611ef6565b613315604083018561200c565b818103606083015261332781846132ad565b905095945050505050565b60008151905061334181611d17565b92915050565b60006020828403121561335d5761335c611ce1565b5b600061336b84828501613332565b9150509291505056fea2646970667358221220c737cd8613ebea20f49986e76c3fc9e8118b733410603b59a63432cd879804a364736f6c634300080c0033",
  "immutableReferences": {},
  "source": "pragma solidity ^0.8.0;\n\nimport \"@openzeppelin/contracts/token/ERC721/ERC721.sol\";\nimport \"@openzeppelin/contracts/utils/Counters.sol\";\nimport \"@openzeppelin/contracts/access/Ownable.sol\";\nimport \"./voting/ContributionVotingContract.sol\";\n\ncontract ContributionContract is ERC721 {\n    //----------------------Contribution Related code---------------------//\n\n    using Counters for Counters.Counter;\n    Counters.Counter private _contributionIds;\n    address OWNER;\n    address public CONTRIBUTION_VOTING_CONTRACT_ADDRESS;\n\n    /**\n        @dev this is Contribution Create event this event will be emited when a new contribution is created.\n        @param contributionId it is the unique identifier for the contribution\n        @param tracks are id of the tracks that are part of this contribution, you will have to manually fetch the tracks data from trackId once you do the indexing. \n        @param createdAt createdAt is indicates the time of creation of the contribution\n        @param previewFile this is the file that contains the mix of the contribution also known as preview file\n        @param previewFileHash this is the hash of the preview file to make sure the previewFile is not temperd with \n        @param recordId this is the id of the record to which the contribution belongd to\n        @param seedContribution this flag determines if the contribution is a seed contribution or not\n        @param roughMix this flag determines if the contribution is a new contribution, with new tracks or is it just mix of all the previous tracks\n        @param status this is status of the contribution that is in PENDING or ACCEPTED or REJECTED // status (PENDING = 1 | ACCEPTED = 2| REJECTED = 3)\n        @param description the description of record that is in text format \n     */\n    event ContributionCreated(\n        uint256 contributionId,\n        uint256[] tracks,\n        uint256 createdAt,\n        string previewFile,\n        string previewFileHash,\n        uint256 recordId,\n        bool seedContribution,\n        bool roughMix,\n        uint256 status,\n        string description\n    );\n\n    struct Contribution {\n        uint256[] tracks;\n        uint256 createdAt;\n        string previewFile;\n        string previewFileHash;\n        uint256 recordId;\n        bool seedContribution;\n        bool roughMix; // true if rough mix or else false\n        uint256 status; // status (PENDING = 1 | ACCEPTED = 2| REJECTED = 3)\n        string description;\n    }\n\n    mapping(uint256 => Contribution) contributionData;\n\n    constructor() ERC721(\"Contributions\", \"CTRB\") {\n        // _baseURIextended = baseURI_;\n        OWNER = msg.sender;\n    }\n\n    /**\n     * @dev Modifier to check that the person who accesses a specific function is the owner of contract himself.\n     */\n    modifier ownerOnly() {\n        require(msg.sender == OWNER, \"You are not authorized for this action\");\n        _;\n    }\n\n    /**\n     * @dev This function sets the Voting Contract address\n     */\n    function setContributionVotingContractAddress(\n        address newVotingContractAddress\n    ) public ownerOnly {\n        CONTRIBUTION_VOTING_CONTRACT_ADDRESS = newVotingContractAddress;\n    }\n\n    /**\n     * @dev This function will be called by the user to create a new contribution\n     * @param tracks Id of tracks that are part of this contribution\n     * @param previewFile this is preview file of the contribution\n     * @param previewFileHash this is hash of the preview file\n     * @param recordId this is the id of the record to which contribution belongs to.\n     * @param roughMix this represents if a contribution is a roughMix or is a new contribution\n     * @param description this is the description of the new contriution that is created.\n     * @param communityReward this is the amount of community token that the contributor is requesting for his work contribution.\n     * @param governanceReward this is the amount of governance token that the contributor is requesting for his work contribution.\n     */\n    function createNewContribution(\n        // string memory uri,\n        uint256[] memory tracks,\n        string memory previewFile,\n        string memory previewFileHash,\n        uint256 recordId,\n        bool roughMix,\n        string memory description,\n        uint256 communityReward,\n        uint256 communityTokenId,\n        uint256 governanceReward,\n        uint256 governanceTokenId\n    ) public returns (uint256) {\n        _contributionIds.increment();\n\n        uint256 contributionId = _contributionIds.current();\n        _mint(msg.sender, contributionId);\n\n        ContributionVotingContract contributionVotingContract = ContributionVotingContract(\n                CONTRIBUTION_VOTING_CONTRACT_ADDRESS\n            );\n        contributionVotingContract.createContributionVotingBallot(\n            contributionId,\n            governanceReward,\n            governanceTokenId,\n            communityReward,\n            communityTokenId\n        );\n\n        Contribution memory contribution = Contribution({\n            tracks: tracks,\n            createdAt: block.timestamp,\n            previewFile: previewFile,\n            previewFileHash: previewFileHash,\n            recordId: recordId,\n            roughMix: roughMix,\n            status: 1,\n            description: description,\n            seedContribution: false\n        });\n\n        contributionData[contributionId] = contribution;\n\n        emit ContributionCreated(\n            contributionId,\n            contribution.tracks,\n            contribution.createdAt,\n            contribution.previewFile,\n            contribution.previewFileHash,\n            contribution.recordId,\n            contribution.seedContribution,\n            contribution.roughMix,\n            contribution.status,\n            contribution.description\n        );\n\n        return contributionId;\n    }\n\n    /**\n     * @dev This function will be called by the user to create a new seed contribution as there will be not voting or anything like that\n     * @param tracks Id of tracks that are part of this contribution\n     * @param previewFile this is preview file of the contribution\n     * @param previewFileHash this is hash of the preview file\n     * @param description this is the description of the new contriution that is created.\n     */\n    function createSeedContribution(\n        // string memory uri,\n        uint256[] memory tracks,\n        string memory previewFile,\n        string memory previewFileHash,\n        string memory description\n    ) public returns (uint256) {\n        _contributionIds.increment();\n\n        uint256 contributionId = _contributionIds.current();\n        _mint(msg.sender, contributionId);\n\n        bool seedContribution;\n\n        Contribution memory contribution = Contribution({\n            tracks: tracks,\n            createdAt: block.timestamp,\n            previewFile: previewFile,\n            previewFileHash: previewFileHash,\n            recordId: 0,\n            roughMix: false,\n            status: 2,\n            description: description,\n            seedContribution: true\n        });\n\n        contributionData[contributionId] = contribution;\n\n        emit ContributionCreated(\n            contributionId,\n            contribution.tracks,\n            contribution.createdAt,\n            contribution.previewFile,\n            contribution.previewFileHash,\n            contribution.recordId,\n            contribution.seedContribution,\n            contribution.roughMix,\n            contribution.status,\n            contribution.description\n        );\n\n        return contributionId;\n    }\n}\n",
  "sourcePath": "/Users/a1/Desktop/Office/projects/CrowdRecords/Contracts/contracts/ContributionContract.sol",
  "compiler": {
    "name": "solc",
    "version": "0.8.12+commit.f00d7308.Emscripten.clang"
  },
  "schemaVersion": "3.4.6",
  "updatedAt": "2022-05-04T09:19:19.216Z",
  "devdoc": {
    "events": {
      "ContributionCreated(uint256,uint256[],uint256,string,string,uint256,bool,bool,uint256,string)": {
        "details": "this is Contribution Create event this event will be emited when a new contribution is created.",
        "params": {
          "contributionId": "it is the unique identifier for the contribution",
          "createdAt": "createdAt is indicates the time of creation of the contribution",
          "description": "the description of record that is in text format ",
          "previewFile": "this is the file that contains the mix of the contribution also known as preview file",
          "previewFileHash": "this is the hash of the preview file to make sure the previewFile is not temperd with ",
          "recordId": "this is the id of the record to which the contribution belongd to",
          "roughMix": "this flag determines if the contribution is a new contribution, with new tracks or is it just mix of all the previous tracks",
          "seedContribution": "this flag determines if the contribution is a seed contribution or not",
          "status": "this is status of the contribution that is in PENDING or ACCEPTED or REJECTED // status (PENDING = 1 | ACCEPTED = 2| REJECTED = 3)",
          "tracks": "are id of the tracks that are part of this contribution, you will have to manually fetch the tracks data from trackId once you do the indexing. "
        }
      }
    },
    "kind": "dev",
    "methods": {
      "approve(address,uint256)": {
        "details": "See {IERC721-approve}."
      },
      "balanceOf(address)": {
        "details": "See {IERC721-balanceOf}."
      },
      "createNewContribution(uint256[],string,string,uint256,bool,string,uint256,uint256,uint256,uint256)": {
        "details": "This function will be called by the user to create a new contribution",
        "params": {
          "communityReward": "this is the amount of community token that the contributor is requesting for his work contribution.",
          "description": "this is the description of the new contriution that is created.",
          "governanceReward": "this is the amount of governance token that the contributor is requesting for his work contribution.",
          "previewFile": "this is preview file of the contribution",
          "previewFileHash": "this is hash of the preview file",
          "recordId": "this is the id of the record to which contribution belongs to.",
          "roughMix": "this represents if a contribution is a roughMix or is a new contribution",
          "tracks": "Id of tracks that are part of this contribution"
        }
      },
      "createSeedContribution(uint256[],string,string,string)": {
        "details": "This function will be called by the user to create a new seed contribution as there will be not voting or anything like that",
        "params": {
          "description": "this is the description of the new contriution that is created.",
          "previewFile": "this is preview file of the contribution",
          "previewFileHash": "this is hash of the preview file",
          "tracks": "Id of tracks that are part of this contribution"
        }
      },
      "getApproved(uint256)": {
        "details": "See {IERC721-getApproved}."
      },
      "isApprovedForAll(address,address)": {
        "details": "See {IERC721-isApprovedForAll}."
      },
      "name()": {
        "details": "See {IERC721Metadata-name}."
      },
      "ownerOf(uint256)": {
        "details": "See {IERC721-ownerOf}."
      },
      "safeTransferFrom(address,address,uint256)": {
        "details": "See {IERC721-safeTransferFrom}."
      },
      "safeTransferFrom(address,address,uint256,bytes)": {
        "details": "See {IERC721-safeTransferFrom}."
      },
      "setApprovalForAll(address,bool)": {
        "details": "See {IERC721-setApprovalForAll}."
      },
      "setContributionVotingContractAddress(address)": {
        "details": "This function sets the Voting Contract address"
      },
      "supportsInterface(bytes4)": {
        "details": "See {IERC165-supportsInterface}."
      },
      "symbol()": {
        "details": "See {IERC721Metadata-symbol}."
      },
      "tokenURI(uint256)": {
        "details": "See {IERC721Metadata-tokenURI}."
      },
      "transferFrom(address,address,uint256)": {
        "details": "See {IERC721-transferFrom}."
      }
    },
    "version": 1
  },
  "userdoc": {
    "kind": "user",
    "methods": {},
    "version": 1
  }
}