{
  "contractName": "ContributionVotingContract",
  "abi": [
    {
      "inputs": [
        {
          "internalType": "uint8",
          "name": "votingInterval",
          "type": "uint8"
        },
        {
          "internalType": "address",
          "name": "owner",
          "type": "address"
        }
      ],
      "stateMutability": "nonpayable",
      "type": "constructor"
    },
    {
      "anonymous": false,
      "inputs": [
        {
          "indexed": false,
          "internalType": "uint256",
          "name": "contributionId",
          "type": "uint256"
        },
        {
          "indexed": false,
          "internalType": "uint256",
          "name": "ballotId",
          "type": "uint256"
        },
        {
          "indexed": false,
          "internalType": "bool",
          "name": "result",
          "type": "bool"
        }
      ],
      "name": "BallotResult",
      "type": "event"
    },
    {
      "anonymous": false,
      "inputs": [
        {
          "indexed": false,
          "internalType": "address",
          "name": "requester",
          "type": "address"
        },
        {
          "indexed": false,
          "internalType": "uint256",
          "name": "contributionId",
          "type": "uint256"
        },
        {
          "indexed": false,
          "internalType": "uint256",
          "name": "recordId",
          "type": "uint256"
        },
        {
          "indexed": false,
          "internalType": "uint256",
          "name": "communityReward",
          "type": "uint256"
        },
        {
          "indexed": false,
          "internalType": "uint256",
          "name": "communityTokenId",
          "type": "uint256"
        },
        {
          "indexed": false,
          "internalType": "uint256",
          "name": "governanceReward",
          "type": "uint256"
        },
        {
          "indexed": false,
          "internalType": "uint256",
          "name": "governanceTokenId",
          "type": "uint256"
        },
        {
          "indexed": false,
          "internalType": "uint256",
          "name": "ballotId",
          "type": "uint256"
        }
      ],
      "name": "ContributionBallotCreated",
      "type": "event"
    },
    {
      "anonymous": false,
      "inputs": [
        {
          "indexed": false,
          "internalType": "address",
          "name": "voter",
          "type": "address"
        },
        {
          "indexed": false,
          "internalType": "uint256",
          "name": "contributionId",
          "type": "uint256"
        },
        {
          "indexed": false,
          "internalType": "uint256",
          "name": "ballotId",
          "type": "uint256"
        },
        {
          "indexed": false,
          "internalType": "bool",
          "name": "vote",
          "type": "bool"
        }
      ],
      "name": "ContributionVoting",
      "type": "event"
    },
    {
      "anonymous": false,
      "inputs": [
        {
          "indexed": false,
          "internalType": "uint256",
          "name": "contributionId",
          "type": "uint256"
        },
        {
          "indexed": false,
          "internalType": "address",
          "name": "voterId",
          "type": "address"
        },
        {
          "indexed": false,
          "internalType": "uint256",
          "name": "newGovernanceReward",
          "type": "uint256"
        },
        {
          "indexed": false,
          "internalType": "uint256",
          "name": "newCommunityReward",
          "type": "uint256"
        }
      ],
      "name": "CounterOfferForContribution",
      "type": "event"
    },
    {
      "anonymous": false,
      "inputs": [
        {
          "indexed": false,
          "internalType": "uint256",
          "name": "contributionId",
          "type": "uint256"
        },
        {
          "indexed": false,
          "internalType": "address",
          "name": "voterId",
          "type": "address"
        },
        {
          "indexed": false,
          "internalType": "uint256",
          "name": "newGovernanceReward",
          "type": "uint256"
        },
        {
          "indexed": false,
          "internalType": "uint256",
          "name": "newCommunityReward",
          "type": "uint256"
        },
        {
          "indexed": false,
          "internalType": "uint256",
          "name": "status",
          "type": "uint256"
        }
      ],
      "name": "counterOfferAction",
      "type": "event"
    },
    {
      "inputs": [],
      "name": "CONTRIBUTION_CONTRACT_ADDRESS",
      "outputs": [
        {
          "internalType": "address",
          "name": "",
          "type": "address"
        }
      ],
      "stateMutability": "view",
      "type": "function"
    },
    {
      "inputs": [],
      "name": "OWNER",
      "outputs": [
        {
          "internalType": "address",
          "name": "",
          "type": "address"
        }
      ],
      "stateMutability": "view",
      "type": "function"
    },
    {
      "inputs": [],
      "name": "TREASURY_CONTRACT_ADDRESS",
      "outputs": [
        {
          "internalType": "address",
          "name": "",
          "type": "address"
        }
      ],
      "stateMutability": "view",
      "type": "function"
    },
    {
      "inputs": [],
      "name": "TREASURY_HUB_ADDRESS",
      "outputs": [
        {
          "internalType": "address",
          "name": "",
          "type": "address"
        }
      ],
      "stateMutability": "view",
      "type": "function"
    },
    {
      "inputs": [
        {
          "internalType": "address",
          "name": "user",
          "type": "address"
        },
        {
          "internalType": "uint256",
          "name": "tokenId",
          "type": "uint256"
        },
        {
          "internalType": "uint256",
          "name": "previousBalance",
          "type": "uint256"
        },
        {
          "internalType": "uint256",
          "name": "newBalance",
          "type": "uint256"
        }
      ],
      "name": "_handleUserTokenTransfers",
      "outputs": [],
      "stateMutability": "nonpayable",
      "type": "function"
    },
    {
      "inputs": [
        {
          "internalType": "address",
          "name": "ownerAddress",
          "type": "address"
        }
      ],
      "name": "setOwnerAddress",
      "outputs": [],
      "stateMutability": "nonpayable",
      "type": "function"
    },
    {
      "inputs": [
        {
          "internalType": "address",
          "name": "newTreasuryContractAddress",
          "type": "address"
        }
      ],
      "name": "setTreasuryContractAddress",
      "outputs": [],
      "stateMutability": "nonpayable",
      "type": "function"
    },
    {
      "inputs": [
        {
          "internalType": "address",
          "name": "newContributionContractAddress",
          "type": "address"
        }
      ],
      "name": "setContributionContractAddress",
      "outputs": [],
      "stateMutability": "nonpayable",
      "type": "function"
    },
    {
      "inputs": [
        {
          "internalType": "uint256",
          "name": "contributionId",
          "type": "uint256"
        },
        {
          "internalType": "uint256",
          "name": "recordId",
          "type": "uint256"
        },
        {
          "internalType": "uint256",
          "name": "govReward",
          "type": "uint256"
        },
        {
          "internalType": "uint256",
          "name": "commReward",
          "type": "uint256"
        }
      ],
      "name": "createContributionVotingBallot",
      "outputs": [],
      "stateMutability": "nonpayable",
      "type": "function"
    },
    {
      "inputs": [
        {
          "internalType": "uint256",
          "name": "contributionId",
          "type": "uint256"
        },
        {
          "internalType": "bool",
          "name": "vote",
          "type": "bool"
        }
      ],
      "name": "castVoteForContribution",
      "outputs": [],
      "stateMutability": "nonpayable",
      "type": "function"
    },
    {
      "inputs": [
        {
          "internalType": "uint256",
          "name": "contributionId",
          "type": "uint256"
        },
        {
          "internalType": "uint256",
          "name": "newCommunityReward",
          "type": "uint256"
        },
        {
          "internalType": "uint256",
          "name": "newGovernanceReward",
          "type": "uint256"
        }
      ],
      "name": "proposeCounterOffer",
      "outputs": [],
      "stateMutability": "nonpayable",
      "type": "function"
    },
    {
      "inputs": [
        {
          "internalType": "uint256",
          "name": "contributionId",
          "type": "uint256"
        },
        {
          "internalType": "address[]",
          "name": "counterOfferIds",
          "type": "address[]"
        },
        {
          "internalType": "bool",
          "name": "action",
          "type": "bool"
        }
      ],
      "name": "actionOnCounterOffer",
      "outputs": [],
      "stateMutability": "nonpayable",
      "type": "function"
    },
    {
      "inputs": [
        {
          "internalType": "uint256",
          "name": "contributionId",
          "type": "uint256"
        }
      ],
      "name": "declareWinner",
      "outputs": [],
      "stateMutability": "nonpayable",
      "type": "function"
    }
  ],
  "bytecode": "0x6080604052601960005560006004553480156200001b57600080fd5b50604051620039b2380380620039b2833981810160405281019062000041919062000140565b808080600360006101000a81548173ffffffffffffffffffffffffffffffffffffffff021916908373ffffffffffffffffffffffffffffffffffffffff16021790555050508160ff16600081905550505062000187565b600080fd5b600060ff82169050919050565b620000b5816200009d565b8114620000c157600080fd5b50565b600081519050620000d581620000aa565b92915050565b600073ffffffffffffffffffffffffffffffffffffffff82169050919050565b60006200010882620000db565b9050919050565b6200011a81620000fb565b81146200012657600080fd5b50565b6000815190506200013a816200010f565b92915050565b600080604083850312156200015a576200015962000098565b5b60006200016a85828601620000c4565b92505060206200017d8582860162000129565b9150509250929050565b61381b80620001976000396000f3fe608060405234801561001057600080fd5b50600436106100ce5760003560e01c8063331a6bf51161008c578063abb7ed7f11610066578063abb7ed7f146101d5578063acb31493146101f1578063c679968a1461020f578063c9d591431461022b576100ce565b8063331a6bf51461017f5780634cf2d48f1461019b5780638d2ae1f7146101b7576100ce565b8062c2943c146100d357806307c505b7146100ef5780630d76a8821461010d578063117803e314610129578063251686ed1461014757806329c50b5914610163575b600080fd5b6100ed60048036038101906100e891906128d7565b610247565b005b6100f7610476565b6040516101049190612945565b60405180910390f35b61012760048036038101906101229190612960565b61049c565b005b61013161083a565b60405161013e9190612945565b60405180910390f35b610161600480360381019061015c91906129ff565b610860565b005b61017d60048036038101906101789190612a6b565b610941565b005b61019960048036038101906101949190612a6b565b610a15565b005b6101b560048036038101906101b09190612a6b565b610ae9565b005b6101bf610b85565b6040516101cc9190612945565b60405180910390f35b6101ef60048036038101906101ea9190612a98565b610bab565b005b6101f9610da4565b6040516102069190612945565b60405180910390f35b61022960048036038101906102249190612aff565b610dca565b005b61024560048036038101906102409190612cab565b61124a565b005b6000600c60008381526020019081526020016000208054806020026020016040519081016040528092919081815260200182805480156102dc57602002820191906000526020600020905b8160009054906101000a900473ffffffffffffffffffffffffffffffffffffffff1673ffffffffffffffffffffffffffffffffffffffff1681526020019060010190808311610292575b505050505090506000610304600a6000858152602001908152602001600020600301546115c6565b90507fb8a8a92b56f183482e31ed93ed60da7274c03a6bc11b2c0e75cec8ff5a8058f283600a6000868152602001908152602001600020600301548360405161034f93929190612d38565b60405180910390a18015610471576000600160009054906101000a900473ffffffffffffffffffffffffffffffffffffffff1690508073ffffffffffffffffffffffffffffffffffffffff16638388f413600a600087815260200190815260200160002060000160009054906101000a900473ffffffffffffffffffffffffffffffffffffffff16600a60008881526020019081526020016000206002015487600a60008a815260200190815260200160002060060154600a60008b8152602001908152602001600020600401546040518663ffffffff1660e01b815260040161043d959493929190612d6f565b600060405180830381600087803b15801561045757600080fd5b505af115801561046b573d6000803e3d6000fd5b50505050505b505050565b600d60009054906101000a900473ffffffffffffffffffffffffffffffffffffffff1681565b600d60009054906101000a900473ffffffffffffffffffffffffffffffffffffffff1673ffffffffffffffffffffffffffffffffffffffff163373ffffffffffffffffffffffffffffffffffffffff161461052c576040517f08c379a000000000000000000000000000000000000000000000000000000000815260040161052390612e45565b60405180910390fd5b60001515600a600086815260200190815260200160002060080160009054906101000a900460ff16151514610596576040517f08c379a000000000000000000000000000000000000000000000000000000000815260040161058d90612eb1565b60405180910390fd5b6000600160009054906101000a900473ffffffffffffffffffffffffffffffffffffffff16905060008173ffffffffffffffffffffffffffffffffffffffff16632d4a0382866040518263ffffffff1660e01b81526004016105f89190612ed1565b602060405180830381865afa158015610615573d6000803e3d6000fd5b505050506040513d601f19601f820116820180604052508101906106399190612f01565b905060008273ffffffffffffffffffffffffffffffffffffffff1663d6ca40a7876040518263ffffffff1660e01b81526004016106769190612ed1565b602060405180830381865afa158015610693573d6000803e3d6000fd5b505050506040513d601f19601f820116820180604052508101906106b79190612f01565b905060006106c6600184611843565b905060006040518061012001604052803273ffffffffffffffffffffffffffffffffffffffff1681526020018a81526020018981526020018381526020018781526020018481526020018881526020018581526020016001151581525090507f841b71ba38f7c6cc93d8235b87ac4a1f87adee1f9d562d9e0421744c8b2d5d5a338a8a89878c8a89604051610762989796959493929190612f2e565b60405180910390a180600a60008b815260200190815260200160002060008201518160000160006101000a81548173ffffffffffffffffffffffffffffffffffffffff021916908373ffffffffffffffffffffffffffffffffffffffff1602179055506020820151816001015560408201518160020155606082015181600301556080820151816004015560a0820151816005015560c0820151816006015560e082015181600701556101008201518160080160006101000a81548160ff021916908315150217905550905050505050505050505050565b600360009054906101000a900473ffffffffffffffffffffffffffffffffffffffff1681565b60011515600a600084815260200190815260200160002060080160009054906101000a900460ff161515146108ca576040517f08c379a00000000000000000000000000000000000000000000000000000000081526004016108c190612ff8565b60405180910390fd5b6108ea600a600084815260200190815260200160002060030154826119e0565b7fc94df962ce83bb9f5099c0364215ad4932ed320a795c370dc62619a373a9518e3383600a600086815260200190815260200160002060030154846040516109359493929190613018565b60405180910390a15050565b600360009054906101000a900473ffffffffffffffffffffffffffffffffffffffff1673ffffffffffffffffffffffffffffffffffffffff163373ffffffffffffffffffffffffffffffffffffffff16146109d1576040517f08c379a00000000000000000000000000000000000000000000000000000000081526004016109c8906130cf565b60405180910390fd5b80600d60006101000a81548173ffffffffffffffffffffffffffffffffffffffff021916908373ffffffffffffffffffffffffffffffffffffffff16021790555050565b600360009054906101000a900473ffffffffffffffffffffffffffffffffffffffff1673ffffffffffffffffffffffffffffffffffffffff163373ffffffffffffffffffffffffffffffffffffffff1614610aa5576040517f08c379a0000000000000000000000000000000000000000000000000000000008152600401610a9c906130cf565b60405180910390fd5b80600360006101000a81548173ffffffffffffffffffffffffffffffffffffffff021916908373ffffffffffffffffffffffffffffffffffffffff16021790555050565b600360009054906101000a900473ffffffffffffffffffffffffffffffffffffffff1673ffffffffffffffffffffffffffffffffffffffff163373ffffffffffffffffffffffffffffffffffffffff1614610b79576040517f08c379a0000000000000000000000000000000000000000000000000000000008152600401610b70906130cf565b60405180910390fd5b610b8281611a94565b50565b600260009054906101000a900473ffffffffffffffffffffffffffffffffffffffff1681565b6000600860008673ffffffffffffffffffffffffffffffffffffffff1673ffffffffffffffffffffffffffffffffffffffff168152602001908152602001600020905060005b8180549050811015610d9c576001151560056000848481548110610c1857610c176130ef565b5b9060005260206000200154815260200190815260200160002060070160009054906101000a900460ff1615151480610c8257504360056000848481548110610c6357610c626130ef565b5b9060005260206000200154815260200190815260200160002060060154105b15610d23578160018380549050610c99919061314d565b81548110610caa57610ca96130ef565b5b9060005260206000200154828281548110610cc857610cc76130ef565b5b906000526020600020018190555081805480610ce757610ce6613181565b5b600190038181906000526020600020016000905590556000811415610d0f5760009050610d1e565b8080610d1a906131b0565b9150505b610d89565b60056000838381548110610d3a57610d396130ef565b5b9060005260206000200154815260200190815260200160002060050154851415610d8857610d87828281548110610d7457610d736130ef565b5b9060005260206000200154878686611b68565b5b5b8080610d94906131da565b915050610bf1565b505050505050565b600160009054906101000a900473ffffffffffffffffffffffffffffffffffffffff1681565b600a6000848152602001908152602001600020600301546005600082815260200190815260200160002060070160019054906101000a900460ff1615610eb357600015156006600083815260200190815260200160002060003273ffffffffffffffffffffffffffffffffffffffff1673ffffffffffffffffffffffffffffffffffffffff16815260200190815260200160002060009054906101000a900460ff16151514610eae576040517f08c379a0000000000000000000000000000000000000000000000000000000008152600401610ea59061326f565b60405180910390fd5b610f59565b6005600082815260200190815260200160002060000160009054906101000a900473ffffffffffffffffffffffffffffffffffffffff1673ffffffffffffffffffffffffffffffffffffffff163273ffffffffffffffffffffffffffffffffffffffff161415610f58576040517f08c379a0000000000000000000000000000000000000000000000000000000008152600401610f4f906132db565b60405180910390fd5b5b600a60008581526020019081526020016000206003015433600115156005600084815260200190815260200160002060070160029054906101000a900460ff16151514610fdb576040517f08c379a0000000000000000000000000000000000000000000000000000000008152600401610fd290613347565b60405180910390fd5b43600560008481526020019081526020016000206006015411611033576040517f08c379a000000000000000000000000000000000000000000000000000000000815260040161102a906133b3565b60405180910390fd5b600015156006600084815260200190815260200160002060008373ffffffffffffffffffffffffffffffffffffffff1673ffffffffffffffffffffffffffffffffffffffff16815260200190815260200160002060009054906101000a900460ff161515146110d7576040517f08c379a00000000000000000000000000000000000000000000000000000000081526004016110ce9061326f565b60405180910390fd5b6110f6600a600088815260200190815260200160002060030154611d35565b6000604051806060016040528087815260200186815260200160018152509050600c6000888152602001908152602001600020339080600181540180825580915050600190039060005260206000200160009091909190916101000a81548173ffffffffffffffffffffffffffffffffffffffff021916908373ffffffffffffffffffffffffffffffffffffffff16021790555080600b600089815260200190815260200160002060003373ffffffffffffffffffffffffffffffffffffffff1673ffffffffffffffffffffffffffffffffffffffff1681526020019081526020016000206000820151816000015560208201518160010155604082015181600201559050507f920106c0a661b88d3e90d906bbcd9e579abab6ff29031cb1cc958ddebae47fb887338360200151846000015160405161123994939291906133d3565b60405180910390a150505050505050565b60005b82518110156115c0576001600b600086815260200190815260200160002060008584815181106112805761127f6130ef565b5b602002602001015173ffffffffffffffffffffffffffffffffffffffff1673ffffffffffffffffffffffffffffffffffffffff1681526020019081526020016000206002015414156115ad5781156114fc576000600b600086815260200190815260200160002060008584815181106112fc576112fb6130ef565b5b602002602001015173ffffffffffffffffffffffffffffffffffffffff1673ffffffffffffffffffffffffffffffffffffffff1681526020019081526020016000206001015490506000600b6000878152602001908152602001600020600086858151811061136e5761136d6130ef565b5b602002602001015173ffffffffffffffffffffffffffffffffffffffff1673ffffffffffffffffffffffffffffffffffffffff16815260200190815260200160002060000154905080600a60008881526020019081526020016000206004018190555081600a6000888152602001908152602001600020600601819055506002600b60008881526020019081526020016000206000878681518110611416576114156130ef565b5b602002602001015173ffffffffffffffffffffffffffffffffffffffff1673ffffffffffffffffffffffffffffffffffffffff1681526020019081526020016000206002018190555061149b600a60008881526020019081526020016000206003015486858151811061148c5761148b6130ef565b5b60200260200101516001611fb1565b7fd992f385523dde33af41e13ab8ac788e6a9d7bf3278f3a70d16c150ff43115e5868685815181106114d0576114cf6130ef565b5b6020026020010151848460026040516114ed95949392919061345d565b60405180910390a150506115ac565b611538600a600086815260200190815260200160002060030154848381518110611529576115286130ef565b5b60200260200101516000611fb1565b6003600b60008681526020019081526020016000206000858481518110611562576115616130ef565b5b602002602001015173ffffffffffffffffffffffffffffffffffffffff1673ffffffffffffffffffffffffffffffffffffffff168152602001908152602001600020600201819055505b5b80806115b8906131da565b91505061124d565b50505050565b6000600115156005600084815260200190815260200160002060070160029054906101000a900460ff16151514611632576040517f08c379a000000000000000000000000000000000000000000000000000000000815260040161162990613347565b60405180910390fd5b4360056000848152602001908152602001600020600601541061168a576040517f08c379a0000000000000000000000000000000000000000000000000000000008152600401611681906133b3565b60405180910390fd5b600015156005600084815260200190815260200160002060070160009054906101000a900460ff161515146116f4576040517f08c379a00000000000000000000000000000000000000000000000000000000081526004016116eb906134fc565b60405180910390fd5b60006005600084815260200190815260200160002090506000816001015490506000600160009054906101000a900473ffffffffffffffffffffffffffffffffffffffff16905060016005600087815260200190815260200160002060070160006101000a81548160ff02191690831515021790555060008211156118365760008173ffffffffffffffffffffffffffffffffffffffff1663036c22ad85600501546040518263ffffffff1660e01b81526004016117b29190612ed1565b602060405180830381865afa1580156117cf573d6000803e3d6000fd5b505050506040513d601f19601f820116820180604052508101906117f39190612f01565b905060006064604283611806919061351c565b61181091906135a5565b9050808411156118285760019550505050505061183e565b60009550505050505061183e565b600093505050505b919050565b600060046000815480929190611858906131da565b919050555060006040518061014001604052803273ffffffffffffffffffffffffffffffffffffffff16815260200160008152602001600081526020016000815260200160008152602001848152602001600054436118b791906135d6565b815260200160001515815260200185151581526020016001151581525090508060056000600454815260200190815260200160002060008201518160000160006101000a81548173ffffffffffffffffffffffffffffffffffffffff021916908373ffffffffffffffffffffffffffffffffffffffff1602179055506020820151816001015560408201518160020155606082015181600301556080820151816004015560a0820151816005015560c0820151816006015560e08201518160070160006101000a81548160ff0219169083151502179055506101008201518160070160016101000a81548160ff0219169083151502179055506101208201518160070160026101000a81548160ff02191690831515021790555090505060045491505092915050565b81600015156009600083815260200190815260200160002060003373ffffffffffffffffffffffffffffffffffffffff1673ffffffffffffffffffffffffffffffffffffffff16815260200190815260200160002060009054906101000a900460ff16151514611a85576040517f08c379a0000000000000000000000000000000000000000000000000000000008152600401611a7c90613678565b60405180910390fd5b611a8f8383612069565b505050565b600360009054906101000a900473ffffffffffffffffffffffffffffffffffffffff1673ffffffffffffffffffffffffffffffffffffffff163373ffffffffffffffffffffffffffffffffffffffff1614611b24576040517f08c379a0000000000000000000000000000000000000000000000000000000008152600401611b1b906130cf565b60405180910390fd5b80600160006101000a81548173ffffffffffffffffffffffffffffffffffffffff021916908373ffffffffffffffffffffffffffffffffffffffff16021790555050565b600115156006600086815260200190815260200160002060008573ffffffffffffffffffffffffffffffffffffffff1673ffffffffffffffffffffffffffffffffffffffff16815260200190815260200160002060009054906101000a900460ff16151514611c0c576040517f08c379a0000000000000000000000000000000000000000000000000000000008152600401611c039061370a565b60405180910390fd5b60006007600086815260200190815260200160002060008573ffffffffffffffffffffffffffffffffffffffff1673ffffffffffffffffffffffffffffffffffffffff16815260200190815260200160002060009054906101000a900460ff1690508015611cd35782600560008781526020019081526020016000206001016000828254611c9a919061314d565b9250508190555081600560008781526020019081526020016000206001016000828254611cc791906135d6565b92505081905550611d2e565b82600560008781526020019081526020016000206003016000828254611cf9919061314d565b9250508190555081600560008781526020019081526020016000206003016000828254611d2691906135d6565b925050819055505b5050505050565b80600015156009600083815260200190815260200160002060003373ffffffffffffffffffffffffffffffffffffffff1673ffffffffffffffffffffffffffffffffffffffff16815260200190815260200160002060009054906101000a900460ff16151514611dda576040517f08c379a0000000000000000000000000000000000000000000000000000000008152600401611dd190613678565b60405180910390fd5b8133600115156005600084815260200190815260200160002060070160029054906101000a900460ff16151514611e46576040517f08c379a0000000000000000000000000000000000000000000000000000000008152600401611e3d90613347565b60405180910390fd5b43600560008481526020019081526020016000206006015411611e9e576040517f08c379a0000000000000000000000000000000000000000000000000000000008152600401611e95906133b3565b60405180910390fd5b600015156006600084815260200190815260200160002060008373ffffffffffffffffffffffffffffffffffffffff1673ffffffffffffffffffffffffffffffffffffffff16815260200190815260200160002060009054906101000a900460ff16151514611f42576040517f08c379a0000000000000000000000000000000000000000000000000000000008152600401611f399061326f565b60405180910390fd5b60016009600086815260200190815260200160002060003373ffffffffffffffffffffffffffffffffffffffff1673ffffffffffffffffffffffffffffffffffffffff16815260200190815260200160002060006101000a81548160ff02191690831515021790555050505050565b8282600115156009600084815260200190815260200160002060008373ffffffffffffffffffffffffffffffffffffffff1673ffffffffffffffffffffffffffffffffffffffff16815260200190815260200160002060009054906101000a900460ff16151514612057576040517f08c379a000000000000000000000000000000000000000000000000000000000815260040161204e9061379c565b60405180910390fd5b61206285848661235c565b5050505050565b8133600115156005600084815260200190815260200160002060070160029054906101000a900460ff161515146120d5576040517f08c379a00000000000000000000000000000000000000000000000000000000081526004016120cc90613347565b60405180910390fd5b4360056000848152602001908152602001600020600601541161212d576040517f08c379a0000000000000000000000000000000000000000000000000000000008152600401612124906133b3565b60405180910390fd5b600015156006600084815260200190815260200160002060008373ffffffffffffffffffffffffffffffffffffffff1673ffffffffffffffffffffffffffffffffffffffff16815260200190815260200160002060009054906101000a900460ff161515146121d1576040517f08c379a00000000000000000000000000000000000000000000000000000000081526004016121c89061326f565b60405180910390fd5b836005600082815260200190815260200160002060070160019054906101000a900460ff16156122a457600015156006600083815260200190815260200160002060003273ffffffffffffffffffffffffffffffffffffffff1673ffffffffffffffffffffffffffffffffffffffff16815260200190815260200160002060009054906101000a900460ff1615151461229f576040517f08c379a00000000000000000000000000000000000000000000000000000000081526004016122969061326f565b60405180910390fd5b61234a565b6005600082815260200190815260200160002060000160009054906101000a900473ffffffffffffffffffffffffffffffffffffffff1673ffffffffffffffffffffffffffffffffffffffff163273ffffffffffffffffffffffffffffffffffffffff161415612349576040517f08c379a0000000000000000000000000000000000000000000000000000000008152600401612340906132db565b60405180910390fd5b5b6123558585326124d6565b5050505050565b8281600115156005600084815260200190815260200160002060070160029054906101000a900460ff161515146123c8576040517f08c379a00000000000000000000000000000000000000000000000000000000081526004016123bf90613347565b60405180910390fd5b43600560008481526020019081526020016000206006015411612420576040517f08c379a0000000000000000000000000000000000000000000000000000000008152600401612417906133b3565b60405180910390fd5b600015156006600084815260200190815260200160002060008373ffffffffffffffffffffffffffffffffffffffff1673ffffffffffffffffffffffffffffffffffffffff16815260200190815260200160002060009054906101000a900460ff161515146124c4576040517f08c379a00000000000000000000000000000000000000000000000000000000081526004016124bb9061326f565b60405180910390fd5b6124cf8585856124d6565b5050505050565b6000600160009054906101000a900473ffffffffffffffffffffffffffffffffffffffff169050600060056000868152602001908152602001600020604051806101400160405290816000820160009054906101000a900473ffffffffffffffffffffffffffffffffffffffff1673ffffffffffffffffffffffffffffffffffffffff1673ffffffffffffffffffffffffffffffffffffffff1681526020016001820154815260200160028201548152602001600382015481526020016004820154815260200160058201548152602001600682015481526020016007820160009054906101000a900460ff161515151581526020016007820160019054906101000a900460ff161515151581526020016007820160029054906101000a900460ff161515151581525050905060008273ffffffffffffffffffffffffffffffffffffffff1662fdd58e858460a001516040518363ffffffff1660e01b81526004016126439291906137bc565b602060405180830381865afa158015612660573d6000803e3d6000fd5b505050506040513d601f19601f820116820180604052508101906126849190612f01565b905084156126ec57806005600088815260200190815260200160002060010160008282546126b291906135d6565b9250508190555060016005600088815260200190815260200160002060020160008282546126e091906135d6565b92505081905550612748565b8060056000888152602001908152602001600020600301600082825461271291906135d6565b92505081905550600160056000888152602001908152602001600020600401600082825461274091906135d6565b925050819055505b60016006600088815260200190815260200160002060008673ffffffffffffffffffffffffffffffffffffffff1673ffffffffffffffffffffffffffffffffffffffff16815260200190815260200160002060006101000a81548160ff021916908315150217905550846007600088815260200190815260200160002060008673ffffffffffffffffffffffffffffffffffffffff1673ffffffffffffffffffffffffffffffffffffffff16815260200190815260200160002060006101000a81548160ff0219169083151502179055506000600860008673ffffffffffffffffffffffffffffffffffffffff1673ffffffffffffffffffffffffffffffffffffffff16815260200190815260200160002090508087908060018154018082558091505060019003906000526020600020016000909190919091505550505050505050565b6000604051905090565b600080fd5b600080fd5b6000819050919050565b6128b4816128a1565b81146128bf57600080fd5b50565b6000813590506128d1816128ab565b92915050565b6000602082840312156128ed576128ec612897565b5b60006128fb848285016128c2565b91505092915050565b600073ffffffffffffffffffffffffffffffffffffffff82169050919050565b600061292f82612904565b9050919050565b61293f81612924565b82525050565b600060208201905061295a6000830184612936565b92915050565b6000806000806080858703121561297a57612979612897565b5b6000612988878288016128c2565b9450506020612999878288016128c2565b93505060406129aa878288016128c2565b92505060606129bb878288016128c2565b91505092959194509250565b60008115159050919050565b6129dc816129c7565b81146129e757600080fd5b50565b6000813590506129f9816129d3565b92915050565b60008060408385031215612a1657612a15612897565b5b6000612a24858286016128c2565b9250506020612a35858286016129ea565b9150509250929050565b612a4881612924565b8114612a5357600080fd5b50565b600081359050612a6581612a3f565b92915050565b600060208284031215612a8157612a80612897565b5b6000612a8f84828501612a56565b91505092915050565b60008060008060808587031215612ab257612ab1612897565b5b6000612ac087828801612a56565b9450506020612ad1878288016128c2565b9350506040612ae2878288016128c2565b9250506060612af3878288016128c2565b91505092959194509250565b600080600060608486031215612b1857612b17612897565b5b6000612b26868287016128c2565b9350506020612b37868287016128c2565b9250506040612b48868287016128c2565b9150509250925092565b600080fd5b6000601f19601f8301169050919050565b7f4e487b7100000000000000000000000000000000000000000000000000000000600052604160045260246000fd5b612ba082612b57565b810181811067ffffffffffffffff82111715612bbf57612bbe612b68565b5b80604052505050565b6000612bd261288d565b9050612bde8282612b97565b919050565b600067ffffffffffffffff821115612bfe57612bfd612b68565b5b602082029050602081019050919050565b600080fd5b6000612c27612c2284612be3565b612bc8565b90508083825260208201905060208402830185811115612c4a57612c49612c0f565b5b835b81811015612c735780612c5f8882612a56565b845260208401935050602081019050612c4c565b5050509392505050565b600082601f830112612c9257612c91612b52565b5b8135612ca2848260208601612c14565b91505092915050565b600080600060608486031215612cc457612cc3612897565b5b6000612cd2868287016128c2565b935050602084013567ffffffffffffffff811115612cf357612cf261289c565b5b612cff86828701612c7d565b9250506040612d10868287016129ea565b9150509250925092565b612d23816128a1565b82525050565b612d32816129c7565b82525050565b6000606082019050612d4d6000830186612d1a565b612d5a6020830185612d1a565b612d676040830184612d29565b949350505050565b600060a082019050612d846000830188612936565b612d916020830187612d1a565b612d9e6040830186612d1a565b612dab6060830185612d1a565b612db86080830184612d1a565b9695505050505050565b600082825260208201905092915050565b7f554e415554484f52495a45443a204f4e4c595f434f4e545249425554494f4e5f60008201527f434f4e5452414354000000000000000000000000000000000000000000000000602082015250565b6000612e2f602883612dc2565b9150612e3a82612dd3565b604082019050919050565b60006020820190508181036000830152612e5e81612e22565b9050919050565b7f494e56414c49443a2042414c4c4f545f414c52454144595f4352454154454400600082015250565b6000612e9b601f83612dc2565b9150612ea682612e65565b602082019050919050565b60006020820190508181036000830152612eca81612e8e565b9050919050565b6000602082019050612ee66000830184612d1a565b92915050565b600081519050612efb816128ab565b92915050565b600060208284031215612f1757612f16612897565b5b6000612f2584828501612eec565b91505092915050565b600061010082019050612f44600083018b612936565b612f51602083018a612d1a565b612f5e6040830189612d1a565b612f6b6060830188612d1a565b612f786080830187612d1a565b612f8560a0830186612d1a565b612f9260c0830185612d1a565b612f9f60e0830184612d1a565b9998505050505050505050565b7f494e56414c49443a20434f4e545249425554494f4e5f49440000000000000000600082015250565b6000612fe2601883612dc2565b9150612fed82612fac565b602082019050919050565b6000602082019050818103600083015261301181612fd5565b9050919050565b600060808201905061302d6000830187612936565b61303a6020830186612d1a565b6130476040830185612d1a565b6130546060830184612d29565b95945050505050565b7f554e415554484f52495a45443a2043414e4e4f545f504552464f524d5f41435460008201527f494f4e0000000000000000000000000000000000000000000000000000000000602082015250565b60006130b9602383612dc2565b91506130c48261305d565b604082019050919050565b600060208201905081810360008301526130e8816130ac565b9050919050565b7f4e487b7100000000000000000000000000000000000000000000000000000000600052603260045260246000fd5b7f4e487b7100000000000000000000000000000000000000000000000000000000600052601160045260246000fd5b6000613158826128a1565b9150613163836128a1565b9250828210156131765761317561311e565b5b828203905092915050565b7f4e487b7100000000000000000000000000000000000000000000000000000000600052603160045260246000fd5b60006131bb826128a1565b915060008214156131cf576131ce61311e565b5b600182039050919050565b60006131e5826128a1565b91507fffffffffffffffffffffffffffffffffffffffffffffffffffffffffffffffff8214156132185761321761311e565b5b600182019050919050565b7f494e56414c49443a20414c52454144595f564f54454400000000000000000000600082015250565b6000613259601683612dc2565b915061326482613223565b602082019050919050565b600060208201905081810360008301526132888161324c565b9050919050565b7f554e415554484f52495a45443a204f574e45525f43414e4e4f545f564f544500600082015250565b60006132c5601f83612dc2565b91506132d08261328f565b602082019050919050565b600060208201905081810360008301526132f4816132b8565b9050919050565b7f494e56414c49443a2042414c4c4f545f4e4f545f464f554e4400000000000000600082015250565b6000613331601983612dc2565b915061333c826132fb565b602082019050919050565b6000602082019050818103600083015261336081613324565b9050919050565b7f494e56414c49443a20564f54494e475f54494d455f4f56455200000000000000600082015250565b600061339d601983612dc2565b91506133a882613367565b602082019050919050565b600060208201905081810360008301526133cc81613390565b9050919050565b60006080820190506133e86000830187612d1a565b6133f56020830186612936565b6134026040830185612d1a565b61340f6060830184612d1a565b95945050505050565b6000819050919050565b6000819050919050565b600061344761344261343d84613418565b613422565b6128a1565b9050919050565b6134578161342c565b82525050565b600060a0820190506134726000830188612d1a565b61347f6020830187612936565b61348c6040830186612d1a565b6134996060830185612d1a565b6134a6608083018461344e565b9695505050505050565b7f494e56414c49443a20524553554c545f414c52454144595f4445434c41524544600082015250565b60006134e6602083612dc2565b91506134f1826134b0565b602082019050919050565b60006020820190508181036000830152613515816134d9565b9050919050565b6000613527826128a1565b9150613532836128a1565b9250817fffffffffffffffffffffffffffffffffffffffffffffffffffffffffffffffff048311821515161561356b5761356a61311e565b5b828202905092915050565b7f4e487b7100000000000000000000000000000000000000000000000000000000600052601260045260246000fd5b60006135b0826128a1565b91506135bb836128a1565b9250826135cb576135ca613576565b5b828204905092915050565b60006135e1826128a1565b91506135ec836128a1565b9250827fffffffffffffffffffffffffffffffffffffffffffffffffffffffffffffffff038211156136215761362061311e565b5b828201905092915050565b7f494e56414c49443a20414c52454144595f434f554e5445525f4f464645524544600082015250565b6000613662602083612dc2565b915061366d8261362c565b602082019050919050565b6000602082019050818103600083015261369181613655565b9050919050565b7f494e56414c49443a20494e5445524e414c3a20555345525f4841535f4e4f545f60008201527f564f544544000000000000000000000000000000000000000000000000000000602082015250565b60006136f4602583612dc2565b91506136ff82613698565b604082019050919050565b60006020820190508181036000830152613723816136e7565b9050919050565b7f494e56414c49443a20434f554e5445525f4f464645525f4e4f545f455849535460008201527f5300000000000000000000000000000000000000000000000000000000000000602082015250565b6000613786602183612dc2565b91506137918261372a565b604082019050919050565b600060208201905081810360008301526137b581613779565b9050919050565b60006040820190506137d16000830185612936565b6137de6020830184612d1a565b939250505056fea2646970667358221220a1815d3b5082a81e5731523a70be5af406dbda48ebe05c31d324ded27022612b64736f6c634300080c0033",
  "immutableReferences": {},
  "source": "// SPDX-License-Identifier: MIT\npragma solidity ^0.8.0;\n\nimport \"./BaseVotingCounterOfferContract.sol\";\nimport \"../interface/ITreasury.sol\";\n\ncontract ContributionVotingContract is BaseVotingCounterOfferContract {\n    /// @dev This structure will hold the data for contribution rewards\n    /// @param requester This is the person who has contributed and is seeking for reward\n    /// @param contributionId This is the contribution id\n    /// @param recordId This is the record id to which the reward belongs to\n    /// @param ballotId This is the ballot id of the reward\n    /// @param communityReward This is the community reward amount\n    /// @param communityTokenId This is the id of community token\n    /// @param governanceReward This is the amount of governance token requested as reward\n    /// @param governanceTokenId This is the id of governance token\n    /// @param isPresent This is to check if a contribution is present for a specific contribution\n    struct ContributionReward {\n        address requester;\n        uint256 contributionId;\n        uint256 recordId;\n        uint256 ballotId;\n        uint256 communityReward;\n        uint256 communityTokenId;\n        uint256 governanceReward;\n        uint256 governanceTokenId;\n        bool isPresent;\n    }\n\n    /// @dev This structure will hold the data for contribution rewards\n    /// @param newCommunityReward This is the community reward amount\n    /// @param newGovernanceReward This is the amount of governance token requested as reward\n    /// @param status This is status of the offer that is either : PENDING = 1 | ACCEPTED = 2 | REJECTED = 3\n    struct CounterOffer {\n        uint256 newCommunityReward;\n        uint256 newGovernanceReward;\n        uint256 status;\n    }\n\n    /// @notice This event is emitted when a contribution ballot is created by a user and it hold the following details\n    /// @dev This event is emitted during contribution ballot creation\n    /// @param requester This is the person who has contributed and is seeking for reward\n    /// @param contributionId This is the contribution id\n    /// @param recordId This is the record id to which the reward belongs to\n    /// @param communityReward This is the community reward amount\n    /// @param communityTokenId This is the id of community token\n    /// @param governanceReward This is the amount of governance token requested as reward\n    /// @param governanceTokenId This is the id of governance token\n    /// @param ballotId This is the ballot id of the reward\n    event ContributionBallotCreated(\n        address requester,\n        uint256 contributionId,\n        uint256 recordId,\n        uint256 communityReward,\n        uint256 communityTokenId,\n        uint256 governanceReward,\n        uint256 governanceTokenId,\n        uint256 ballotId\n    );\n\n    /// @dev This is when a vote is given by user.\n    /// @param voter Address of the voter\n    /// @param contributionId This is the id of the contribution that is linked to this ballot\n    /// @param ballotId Id of the ballot where voting is stored\n    /// @param vote State of vote : true for yes and false for No\n    event ContributionVoting(\n        address voter,\n        uint256 contributionId,\n        uint256 ballotId,\n        bool vote\n    );\n\n    /// @dev this is event which is created when a user proposes counter offer\n    /// @param contributionId This is the id of the contribution that is linked to this ballot\n    /// @param voterId This is the id of the voter who's vote it is\n    /// @param newGovernanceReward This is the new reward amount counter offered by the voter\n    /// @param newCommunityReward This is the new reward amount counter offered by the voter\n    event CounterOfferForContribution(\n        uint256 contributionId,\n        address voterId,\n        uint256 newGovernanceReward,\n        uint256 newCommunityReward\n    );\n\n    /// @dev this is event which is created when the owner of the ballot takes action on a specific counter offer\n    /// @param contributionId This is the id of the contribution that is linked to this ballot\n    /// @param voterId This is the id of the voter who's vote it is\n    /// @param newGovernanceReward This is the new reward amount counter offered by the voter\n    /// @param newCommunityReward This is the new reward amount counter offered by the voter\n    /// @param status This is the status of the counter offer that is => either ACCEPTED = 2 | REJECTED = 3\n    event counterOfferAction(\n        uint256 contributionId,\n        address voterId,\n        uint256 newGovernanceReward,\n        uint256 newCommunityReward,\n        uint256 status\n    );\n\n    /// @dev this event is genrated when result of a ballot is declared\n    /// @param contributionId This is the id of the contribution that is linked to this ballot\n    /// @param ballotId this is the ballot Id for which result is declared\n    /// @param result this is the status of the result, either true if user won that is\n    /// he received more than 66% of votes or false if user lost\n    event BallotResult(uint256 contributionId, uint256 ballotId, bool result);\n\n    mapping(uint256 => ContributionReward) rewardMapping;\n    //Bellow mapping is ContributionId => User's address => Counter Offer data\n    mapping(uint256 => mapping(address => CounterOffer)) contributionCounterOfferMap;\n    //This contains all the keys (The key's are users address) of the mapping of the counterOfferMapping.\n    mapping(uint256 => address[]) contributionCounterOfferList;\n    address public CONTRIBUTION_CONTRACT_ADDRESS;\n\n    constructor(uint8 votingInterval, address owner)\n        BaseVotingCounterOfferContract(owner)\n    {\n        VOTING_BLOCK_PERIOD = votingInterval;\n    }\n\n    modifier _onlyContributionContract() {\n        require(\n            msg.sender == CONTRIBUTION_CONTRACT_ADDRESS,\n            \"UNAUTHORIZED: ONLY_CONTRIBUTION_CONTRACT\"\n        );\n        _;\n    }\n\n    /// @dev This function sets the treasury Contract address\n    function setTreasuryContractAddress(address newTreasuryContractAddress)\n        external\n        _ownerOnly\n    {\n        _setTreasuryContractAddress(newTreasuryContractAddress);\n    }\n\n    /// @dev Sets the contribution contract address so that the voting ballot for contribution can\n    /// be restricted only to a certain contract that is the contribution contract\n    function setContributionContractAddress(\n        address newContributionContractAddress\n    ) public _ownerOnly {\n        CONTRIBUTION_CONTRACT_ADDRESS = newContributionContractAddress;\n    }\n\n    /// @dev This function will create a new contribution voting ballot\n    function createContributionVotingBallot(\n        uint256 contributionId,\n        uint256 recordId,\n        uint256 govReward,\n        uint256 commReward\n    ) public _onlyContributionContract {\n        require(\n            rewardMapping[contributionId].isPresent == false,\n            \"INVALID: BALLOT_ALREADY_CREATED\"\n        );\n\n        ITreasury treasuryContract = ITreasury(TREASURY_CONTRACT_ADDRESS);\n\n        uint256 govTokenId = treasuryContract.getCommunityTokenId(recordId);\n        uint256 commTokenId = treasuryContract.getGovernanceTokenId(recordId);\n\n        uint256 ballotId = _createVoting(true, govTokenId);\n\n        ContributionReward memory contributionReward = ContributionReward({\n            requester: tx.origin,\n            contributionId: contributionId,\n            recordId: recordId,\n            ballotId: ballotId,\n            communityReward: commReward,\n            communityTokenId: commTokenId,\n            governanceReward: govReward,\n            governanceTokenId: govTokenId,\n            isPresent: true\n        });\n\n        emit ContributionBallotCreated({\n            requester: msg.sender,\n            contributionId: contributionId,\n            recordId: recordId,\n            communityReward: commReward,\n            communityTokenId: commTokenId,\n            governanceReward: govReward,\n            governanceTokenId: govTokenId,\n            ballotId: ballotId\n        });\n\n        rewardMapping[contributionId] = contributionReward;\n    }\n\n    /// @dev This function is called by any user to cast vote\n    /// @param contributionId this is the id of the contribution for which user is voting\n    /// @param vote this is the state of the vote, if true than it means the vote is in favour of the ballot\n    function castVoteForContribution(uint256 contributionId, bool vote) public {\n        require(\n            rewardMapping[contributionId].isPresent == true,\n            \"INVALID: CONTRIBUTION_ID\"\n        );\n        super._castVote(rewardMapping[contributionId].ballotId, vote);\n\n        emit ContributionVoting({\n            contributionId: contributionId,\n            ballotId: rewardMapping[contributionId].ballotId,\n            voter: msg.sender,\n            vote: vote\n        });\n    }\n\n    /// @dev This function is called by any user to cast vote\n    /// @param contributionId this is the id of the contribution for which user is creating a counter offer\n    /// @param newCommunityReward new community token amount as reward for the negotiation\n    /// @param newGovernanceReward new governance token amount as reward for the negotiation\n    function proposeCounterOffer(\n        uint256 contributionId,\n        uint256 newCommunityReward,\n        uint256 newGovernanceReward\n    )\n        public\n        _checkIfOwnerAllowed(rewardMapping[contributionId].ballotId)\n        _checkIfBallotIsOpen(rewardMapping[contributionId].ballotId, msg.sender)\n    {\n        _createCounterOffer(rewardMapping[contributionId].ballotId);\n\n        //Create counter offer object and push it into array\n        CounterOffer memory offer = CounterOffer({\n            newCommunityReward: newCommunityReward,\n            newGovernanceReward: newGovernanceReward,\n            status: 1\n        });\n\n        contributionCounterOfferList[contributionId].push(msg.sender);\n        contributionCounterOfferMap[contributionId][msg.sender] = offer;\n\n        emit CounterOfferForContribution(\n            contributionId,\n            msg.sender,\n            offer.newGovernanceReward,\n            offer.newCommunityReward\n        );\n    }\n\n    /// @dev This function is called by owner of the contribution to either accept or reject a counter offer\n    /// @param contributionId this is the id of the contribution to which the counter offer belongs to\n    /// @param counterOfferIds The id of counter offers in array to accept or reject multiple counter offers at once\n    /// @param action this is the state of the vote, if true than it means that user accepts the counter offer\n    function actionOnCounterOffer(\n        uint256 contributionId,\n        address[] memory counterOfferIds,\n        bool action\n    ) public {\n        //only vote once check\n        for (uint256 i = 0; i < counterOfferIds.length; i++) {\n            if (\n                contributionCounterOfferMap[contributionId][counterOfferIds[i]]\n                    .status == 1\n            ) {\n                if (action) {\n                    uint256 newGovernanceReward = contributionCounterOfferMap[\n                        contributionId\n                    ][counterOfferIds[i]].newGovernanceReward;\n                    uint256 newCommunityReward = contributionCounterOfferMap[\n                        contributionId\n                    ][counterOfferIds[i]].newCommunityReward;\n\n                    //Set new reward for the contribution\n                    rewardMapping[contributionId]\n                        .communityReward = newCommunityReward;\n                    rewardMapping[contributionId]\n                        .governanceReward = newGovernanceReward;\n\n                    contributionCounterOfferMap[contributionId][\n                        counterOfferIds[i]\n                    ].status = 2;\n\n                    super._counterOfferAction(\n                        rewardMapping[contributionId].ballotId,\n                        counterOfferIds[i],\n                        true\n                    );\n                    emit counterOfferAction(\n                        contributionId,\n                        counterOfferIds[i],\n                        newGovernanceReward,\n                        newCommunityReward,\n                        2\n                    );\n                } else {\n                    super._counterOfferAction(\n                        rewardMapping[contributionId].ballotId,\n                        counterOfferIds[i],\n                        false\n                    );\n                    //The counter offer ids are the addresses of the user who proposed the offer\n                    contributionCounterOfferMap[contributionId][\n                        counterOfferIds[i]\n                    ].status = 3;\n                }\n            }\n        }\n    }\n\n    /// @dev This function can be called from external source and also from within the contract\n    /// @param contributionId this is the id of the contribution to which the winner is to be declared\n    function declareWinner(uint256 contributionId) external {\n        address[] memory counterOfferList = contributionCounterOfferList[\n            contributionId\n        ];\n\n        //! we should remove the below for loop as we don't need loop through all the offers\n        //! as we are only calculating the votes that are accepted and rest are considered as false\n        // for (uint256 i = 0; i < counterOfferList.length; i++) {\n        //     if (\n        //         contributionCounterOfferMap[contributionId][counterOfferList[i]]\n        //             .status == 1\n        //     ) {\n        //         super._counterOfferAction(\n        //             rewardMapping[contributionId].ballotId,\n        //             counterOfferList[i],\n        //             false\n        //         );\n        //         //The counter offer ids are the addresses of the user who proposed the offer\n        //         contributionCounterOfferMap[contributionId][counterOfferList[i]]\n        //             .status = 3;\n        //     }\n        // }\n        bool result = _declareWinner(rewardMapping[contributionId].ballotId);\n\n        emit BallotResult(\n            contributionId,\n            rewardMapping[contributionId].ballotId,\n            result\n        );\n\n        if (result) {\n            //Transfer the reward amount to user\n            ITreasury treasuryContract = ITreasury(TREASURY_CONTRACT_ADDRESS);\n            treasuryContract.transferRewardAmount(\n                rewardMapping[contributionId].requester,\n                rewardMapping[contributionId].recordId,\n                contributionId,\n                rewardMapping[contributionId].governanceReward,\n                rewardMapping[contributionId].communityReward\n            );\n        }\n    }\n}\n",
  "sourcePath": "/Users/a1/Desktop/Office/projects/CrowdRecords/Contracts/contracts/voting/ContributionVotingContract.sol",
  "compiler": {
    "name": "solc",
    "version": "0.8.12+commit.f00d7308.Emscripten.clang"
  },
  "schemaVersion": "3.4.6",
  "updatedAt": "2022-10-05T14:07:55.947Z",
  "devdoc": {
    "events": {
      "BallotResult(uint256,uint256,bool)": {
        "details": "this event is genrated when result of a ballot is declared",
        "params": {
          "ballotId": "this is the ballot Id for which result is declared",
          "contributionId": "This is the id of the contribution that is linked to this ballot",
          "result": "this is the status of the result, either true if user won that is he received more than 66% of votes or false if user lost"
        }
      },
      "ContributionBallotCreated(address,uint256,uint256,uint256,uint256,uint256,uint256,uint256)": {
        "details": "This event is emitted during contribution ballot creation",
        "params": {
          "ballotId": "This is the ballot id of the reward",
          "communityReward": "This is the community reward amount",
          "communityTokenId": "This is the id of community token",
          "contributionId": "This is the contribution id",
          "governanceReward": "This is the amount of governance token requested as reward",
          "governanceTokenId": "This is the id of governance token",
          "recordId": "This is the record id to which the reward belongs to",
          "requester": "This is the person who has contributed and is seeking for reward"
        }
      },
      "ContributionVoting(address,uint256,uint256,bool)": {
        "details": "This is when a vote is given by user.",
        "params": {
          "ballotId": "Id of the ballot where voting is stored",
          "contributionId": "This is the id of the contribution that is linked to this ballot",
          "vote": "State of vote : true for yes and false for No",
          "voter": "Address of the voter"
        }
      },
      "CounterOfferForContribution(uint256,address,uint256,uint256)": {
        "details": "this is event which is created when a user proposes counter offer",
        "params": {
          "contributionId": "This is the id of the contribution that is linked to this ballot",
          "newCommunityReward": "This is the new reward amount counter offered by the voter",
          "newGovernanceReward": "This is the new reward amount counter offered by the voter",
          "voterId": "This is the id of the voter who's vote it is"
        }
      },
      "counterOfferAction(uint256,address,uint256,uint256,uint256)": {
        "details": "this is event which is created when the owner of the ballot takes action on a specific counter offer",
        "params": {
          "contributionId": "This is the id of the contribution that is linked to this ballot",
          "newCommunityReward": "This is the new reward amount counter offered by the voter",
          "newGovernanceReward": "This is the new reward amount counter offered by the voter",
          "status": "This is the status of the counter offer that is => either ACCEPTED = 2 | REJECTED = 3",
          "voterId": "This is the id of the voter who's vote it is"
        }
      }
    },
    "kind": "dev",
    "methods": {
      "_handleUserTokenTransfers(address,uint256,uint256,uint256)": {
        "details": "This function will be called when either user is transferring the tokens to other account, or is receiving tokens from other tokens.",
        "params": {
          "newBalance": "this is the new balance of the user that is after the transfer",
          "previousBalance": "this is the old balance of the user",
          "user": "address of the user whose balance is being changed"
        }
      },
      "actionOnCounterOffer(uint256,address[],bool)": {
        "details": "This function is called by owner of the contribution to either accept or reject a counter offer",
        "params": {
          "action": "this is the state of the vote, if true than it means that user accepts the counter offer",
          "contributionId": "this is the id of the contribution to which the counter offer belongs to",
          "counterOfferIds": "The id of counter offers in array to accept or reject multiple counter offers at once"
        }
      },
      "castVoteForContribution(uint256,bool)": {
        "details": "This function is called by any user to cast vote",
        "params": {
          "contributionId": "this is the id of the contribution for which user is voting",
          "vote": "this is the state of the vote, if true than it means the vote is in favour of the ballot"
        }
      },
      "createContributionVotingBallot(uint256,uint256,uint256,uint256)": {
        "details": "This function will create a new contribution voting ballot"
      },
      "declareWinner(uint256)": {
        "details": "This function can be called from external source and also from within the contract",
        "params": {
          "contributionId": "this is the id of the contribution to which the winner is to be declared"
        }
      },
      "proposeCounterOffer(uint256,uint256,uint256)": {
        "details": "This function is called by any user to cast vote",
        "params": {
          "contributionId": "this is the id of the contribution for which user is creating a counter offer",
          "newCommunityReward": "new community token amount as reward for the negotiation",
          "newGovernanceReward": "new governance token amount as reward for the negotiation"
        }
      },
      "setContributionContractAddress(address)": {
        "details": "Sets the contribution contract address so that the voting ballot for contribution can be restricted only to a certain contract that is the contribution contract"
      },
      "setOwnerAddress(address)": {
        "details": "This function sets the owner address",
        "params": {
          "ownerAddress": "This is the address of the owner"
        }
      },
      "setTreasuryContractAddress(address)": {
        "details": "This function sets the treasury Contract address"
      }
    },
    "version": 1
  },
  "userdoc": {
    "events": {
      "ContributionBallotCreated(address,uint256,uint256,uint256,uint256,uint256,uint256,uint256)": {
        "notice": "This event is emitted when a contribution ballot is created by a user and it hold the following details"
      }
    },
    "kind": "user",
    "methods": {},
    "version": 1
  }
}