{
  "contractName": "ContributionContract",
  "abi": [
    {
      "inputs": [
        {
          "internalType": "address",
          "name": "owner",
          "type": "address"
        }
      ],
      "stateMutability": "nonpayable",
      "type": "constructor"
    },
    {
      "anonymous": false,
      "inputs": [
        {
          "indexed": false,
          "internalType": "uint256",
          "name": "contributionId",
          "type": "uint256"
        },
        {
          "indexed": false,
          "internalType": "uint256[]",
          "name": "tracks",
          "type": "uint256[]"
        },
        {
          "indexed": false,
          "internalType": "string",
          "name": "title",
          "type": "string"
        },
        {
          "indexed": false,
          "internalType": "uint256",
          "name": "createdAt",
          "type": "uint256"
        },
        {
          "indexed": false,
          "internalType": "string",
          "name": "previewFile",
          "type": "string"
        },
        {
          "indexed": false,
          "internalType": "string",
          "name": "previewFileHash",
          "type": "string"
        },
        {
          "indexed": false,
          "internalType": "uint256",
          "name": "recordId",
          "type": "uint256"
        },
        {
          "indexed": false,
          "internalType": "bool",
          "name": "seedContribution",
          "type": "bool"
        },
        {
          "indexed": false,
          "internalType": "bool",
          "name": "roughMix",
          "type": "bool"
        },
        {
          "indexed": false,
          "internalType": "uint256",
          "name": "status",
          "type": "uint256"
        },
        {
          "indexed": false,
          "internalType": "string",
          "name": "description",
          "type": "string"
        }
      ],
      "name": "ContributionCreated",
      "type": "event"
    },
    {
      "anonymous": false,
      "inputs": [
        {
          "indexed": false,
          "internalType": "uint8",
          "name": "version",
          "type": "uint8"
        }
      ],
      "name": "Initialized",
      "type": "event"
    },
    {
      "inputs": [],
      "name": "ACCEPTED",
      "outputs": [
        {
          "internalType": "uint256",
          "name": "",
          "type": "uint256"
        }
      ],
      "stateMutability": "view",
      "type": "function"
    },
    {
      "inputs": [],
      "name": "CONTRIBUTION_VOTING_CONTRACT_ADDRESS",
      "outputs": [
        {
          "internalType": "address",
          "name": "",
          "type": "address"
        }
      ],
      "stateMutability": "view",
      "type": "function"
    },
    {
      "inputs": [],
      "name": "OWNER",
      "outputs": [
        {
          "internalType": "address",
          "name": "",
          "type": "address"
        }
      ],
      "stateMutability": "view",
      "type": "function"
    },
    {
      "inputs": [],
      "name": "PENDING",
      "outputs": [
        {
          "internalType": "uint256",
          "name": "",
          "type": "uint256"
        }
      ],
      "stateMutability": "view",
      "type": "function"
    },
    {
      "inputs": [],
      "name": "RECORD_CONTRACT_ADDRESS",
      "outputs": [
        {
          "internalType": "address",
          "name": "",
          "type": "address"
        }
      ],
      "stateMutability": "view",
      "type": "function"
    },
    {
      "inputs": [],
      "name": "REJECTED",
      "outputs": [
        {
          "internalType": "uint256",
          "name": "",
          "type": "uint256"
        }
      ],
      "stateMutability": "view",
      "type": "function"
    },
    {
      "inputs": [],
      "name": "TRACKS_CONTRACT_ADDRESS",
      "outputs": [
        {
          "internalType": "address",
          "name": "",
          "type": "address"
        }
      ],
      "stateMutability": "view",
      "type": "function"
    },
    {
      "inputs": [
        {
          "internalType": "uint256",
          "name": "",
          "type": "uint256"
        }
      ],
      "name": "contributionData",
      "outputs": [
        {
          "internalType": "string",
          "name": "title",
          "type": "string"
        },
        {
          "internalType": "uint256",
          "name": "createdAt",
          "type": "uint256"
        },
        {
          "internalType": "string",
          "name": "previewFile",
          "type": "string"
        },
        {
          "internalType": "string",
          "name": "previewFileHash",
          "type": "string"
        },
        {
          "internalType": "bool",
          "name": "seedContribution",
          "type": "bool"
        },
        {
          "internalType": "bool",
          "name": "roughMix",
          "type": "bool"
        },
        {
          "internalType": "uint256",
          "name": "status",
          "type": "uint256"
        },
        {
          "internalType": "string",
          "name": "description",
          "type": "string"
        },
        {
          "internalType": "address",
          "name": "owner",
          "type": "address"
        },
        {
          "internalType": "bool",
          "name": "isPresent",
          "type": "bool"
        }
      ],
      "stateMutability": "view",
      "type": "function"
    },
    {
      "inputs": [
        {
          "internalType": "address",
          "name": "newVotingContractAddress",
          "type": "address"
        },
        {
          "internalType": "address",
          "name": "newRecordsContractAddress",
          "type": "address"
        },
        {
          "internalType": "address",
          "name": "newTracksContractAddress",
          "type": "address"
        }
      ],
      "name": "initialize",
      "outputs": [],
      "stateMutability": "nonpayable",
      "type": "function"
    },
    {
      "inputs": [
        {
          "internalType": "address",
          "name": "ownerAddress",
          "type": "address"
        }
      ],
      "name": "setOwnerAddress",
      "outputs": [],
      "stateMutability": "nonpayable",
      "type": "function"
    },
    {
      "inputs": [
        {
          "internalType": "uint256",
          "name": "contributionId",
          "type": "uint256"
        }
      ],
      "name": "getContributionData",
      "outputs": [
        {
          "components": [
            {
              "internalType": "uint256[]",
              "name": "tracks",
              "type": "uint256[]"
            },
            {
              "internalType": "string",
              "name": "title",
              "type": "string"
            },
            {
              "internalType": "uint256",
              "name": "createdAt",
              "type": "uint256"
            },
            {
              "internalType": "string",
              "name": "previewFile",
              "type": "string"
            },
            {
              "internalType": "string",
              "name": "previewFileHash",
              "type": "string"
            },
            {
              "internalType": "bool",
              "name": "seedContribution",
              "type": "bool"
            },
            {
              "internalType": "bool",
              "name": "roughMix",
              "type": "bool"
            },
            {
              "internalType": "uint256",
              "name": "status",
              "type": "uint256"
            },
            {
              "internalType": "string",
              "name": "description",
              "type": "string"
            },
            {
              "internalType": "address",
              "name": "owner",
              "type": "address"
            },
            {
              "internalType": "bool",
              "name": "isPresent",
              "type": "bool"
            }
          ],
          "internalType": "struct ContributionContract.Contribution",
          "name": "contribution",
          "type": "tuple"
        }
      ],
      "stateMutability": "view",
      "type": "function"
    },
    {
      "inputs": [
        {
          "internalType": "uint256[]",
          "name": "tracks",
          "type": "uint256[]"
        },
        {
          "internalType": "string",
          "name": "title",
          "type": "string"
        },
        {
          "internalType": "string",
          "name": "previewFile",
          "type": "string"
        },
        {
          "internalType": "string",
          "name": "previewFileHash",
          "type": "string"
        },
        {
          "internalType": "uint256",
          "name": "recordId",
          "type": "uint256"
        },
        {
          "internalType": "bool",
          "name": "roughMix",
          "type": "bool"
        },
        {
          "internalType": "string",
          "name": "description",
          "type": "string"
        },
        {
          "internalType": "uint256",
          "name": "communityReward",
          "type": "uint256"
        },
        {
          "internalType": "uint256",
          "name": "governanceReward",
          "type": "uint256"
        }
      ],
      "name": "createNewContribution",
      "outputs": [
        {
          "internalType": "uint256",
          "name": "",
          "type": "uint256"
        }
      ],
      "stateMutability": "payable",
      "type": "function"
    },
    {
      "inputs": [
        {
          "internalType": "uint256[]",
          "name": "tracks",
          "type": "uint256[]"
        },
        {
          "internalType": "string",
          "name": "title",
          "type": "string"
        },
        {
          "internalType": "string",
          "name": "previewFile",
          "type": "string"
        },
        {
          "internalType": "string",
          "name": "previewFileHash",
          "type": "string"
        },
        {
          "internalType": "string",
          "name": "description",
          "type": "string"
        }
      ],
      "name": "createSeedContribution",
      "outputs": [
        {
          "internalType": "uint256",
          "name": "",
          "type": "uint256"
        }
      ],
      "stateMutability": "nonpayable",
      "type": "function"
    }
  ],
  "bytecode": "0x608060405260016007556002600855600360095534801561001f57600080fd5b50604051611e46380380611e4683398101604081905261003e91610063565b600280546001600160a01b0319166001600160a01b0392909216919091179055610093565b60006020828403121561007557600080fd5b81516001600160a01b038116811461008c57600080fd5b9392505050565b611da4806100a26000396000f3fe6080604052600436106100d25760003560e01c80634324efd71161007f578063c0c53b8b11610059578063c0c53b8b1461026b578063cb7390b71461028b578063dbbe2eab146102a1578063f0fda386146102b457600080fd5b80634324efd71461020857806379c995171461021e578063af6707691461023e57600080fd5b806323374b9d116100b057806323374b9d146101955780632609e5f4146101c2578063331a6bf5146101e657600080fd5b80630ade4dbd146100d7578063117803e3146101165780631935816014610168575b600080fd5b3480156100e357600080fd5b506100f76100f2366004611589565b6102e1565b60405161010d9a9998979695949392919061160d565b60405180910390f35b34801561012257600080fd5b506002546101439073ffffffffffffffffffffffffffffffffffffffff1681565b60405173ffffffffffffffffffffffffffffffffffffffff909116815260200161010d565b34801561017457600080fd5b506005546101439073ffffffffffffffffffffffffffffffffffffffff1681565b3480156101a157600080fd5b506101b56101b0366004611589565b610586565b60405161010d91906116eb565b3480156101ce57600080fd5b506101d860075481565b60405190815260200161010d565b3480156101f257600080fd5b50610206610201366004611845565b610934565b005b34801561021457600080fd5b506101d860085481565b34801561022a57600080fd5b506101d86102393660046119f3565b610a27565b34801561024a57600080fd5b506003546101439073ffffffffffffffffffffffffffffffffffffffff1681565b34801561027757600080fd5b50610206610286366004611ac5565b610d3c565b34801561029757600080fd5b506101d860095481565b6101d86102af366004611b24565b610fd2565b3480156102c057600080fd5b506004546101439073ffffffffffffffffffffffffffffffffffffffff1681565b60066020526000908152604090206001810180546102fe90611c24565b80601f016020809104026020016040519081016040528092919081815260200182805461032a90611c24565b80156103775780601f1061034c57610100808354040283529160200191610377565b820191906000526020600020905b81548152906001019060200180831161035a57829003601f168201915b50505050509080600201549080600301805461039290611c24565b80601f01602080910402602001604051908101604052809291908181526020018280546103be90611c24565b801561040b5780601f106103e05761010080835404028352916020019161040b565b820191906000526020600020905b8154815290600101906020018083116103ee57829003601f168201915b50505050509080600401805461042090611c24565b80601f016020809104026020016040519081016040528092919081815260200182805461044c90611c24565b80156104995780601f1061046e57610100808354040283529160200191610499565b820191906000526020600020905b81548152906001019060200180831161047c57829003601f168201915b5050505060058301546006840154600785018054949560ff8085169661010090950416945091926104c990611c24565b80601f01602080910402602001604051908101604052809291908181526020018280546104f590611c24565b80156105425780601f1061051757610100808354040283529160200191610542565b820191906000526020600020905b81548152906001019060200180831161052557829003601f168201915b5050506008909301549192505073ffffffffffffffffffffffffffffffffffffffff81169060ff74010000000000000000000000000000000000000000909104168a565b6105ff60405180610160016040528060608152602001606081526020016000815260200160608152602001606081526020016000151581526020016000151581526020016000815260200160608152602001600073ffffffffffffffffffffffffffffffffffffffff1681526020016000151581525090565b60008281526006602090815260409182902082518154610180938102820184019094526101608101848152909391928492849184018282801561066157602002820191906000526020600020905b81548152602001906001019080831161064d575b5050505050815260200160018201805461067a90611c24565b80601f01602080910402602001604051908101604052809291908181526020018280546106a690611c24565b80156106f35780601f106106c8576101008083540402835291602001916106f3565b820191906000526020600020905b8154815290600101906020018083116106d657829003601f168201915b505050505081526020016002820154815260200160038201805461071690611c24565b80601f016020809104026020016040519081016040528092919081815260200182805461074290611c24565b801561078f5780601f106107645761010080835404028352916020019161078f565b820191906000526020600020905b81548152906001019060200180831161077257829003601f168201915b505050505081526020016004820180546107a890611c24565b80601f01602080910402602001604051908101604052809291908181526020018280546107d490611c24565b80156108215780601f106107f657610100808354040283529160200191610821565b820191906000526020600020905b81548152906001019060200180831161080457829003601f168201915b5050509183525050600582015460ff8082161515602084015261010090910416151560408201526006820154606082015260078201805460809092019161086790611c24565b80601f016020809104026020016040519081016040528092919081815260200182805461089390611c24565b80156108e05780601f106108b5576101008083540402835291602001916108e0565b820191906000526020600020905b8154815290600101906020018083116108c357829003601f168201915b50505091835250506008919091015473ffffffffffffffffffffffffffffffffffffffff8116602083015274010000000000000000000000000000000000000000900460ff16151560409091015292915050565b60025473ffffffffffffffffffffffffffffffffffffffff1633146109e0576040517f08c379a000000000000000000000000000000000000000000000000000000000815260206004820152602360248201527f554e415554484f52495a45443a2043414e4e4f545f504552464f524d5f41435460448201527f494f4e000000000000000000000000000000000000000000000000000000000060648201526084015b60405180910390fd5b600280547fffffffffffffffffffffffff00000000000000000000000000000000000000001673ffffffffffffffffffffffffffffffffffffffff92909216919091179055565b6005546040517fb260c8c300000000000000000000000000000000000000000000000000000000815260009173ffffffffffffffffffffffffffffffffffffffff16908290829063b260c8c390610a84908b903390600401611c78565b602060405180830381865afa158015610aa1573d6000803e3d6000fd5b505050506040513d601f19601f82011682018060405250810190610ac59190611cb0565b905080610b2e576040517f08c379a000000000000000000000000000000000000000000000000000000000815260206004820152601a60248201527f494e56414c49443a204e4f545f415f545241434b5f4f574e455200000000000060448201526064016109d7565b5050610b3e600180546001019055565b6000610b4960015490565b604080516101608101825289815260208082018a905242828401526060820189905260808201889052600160a08301819052600060c0840181905260085460e0850152610100840189905233610120850152610140840191909152848152600682529290922081518051949550919384939192610bca9284929101906114b6565b506020828101518051610be39260018501920190611501565b506040820151600282015560608201518051610c09916003840191602090910190611501565b5060808201518051610c25916004840191602090910190611501565b5060a082015160058201805460c08501517fffffffffffffffffffffffffffffffffffffffffffffffffffffffffffff00009091169215157fffffffffffffffffffffffffffffffffffffffffffffffffffffffffffff00ff1692909217610100921515830217905560e083015160068301558201518051610cb1916007840191602090910190611501565b506101208201516008909101805461014090930151151574010000000000000000000000000000000000000000027fffffffffffffffffffffff00000000000000000000000000000000000000000090931673ffffffffffffffffffffffffffffffffffffffff90921691909117919091179055610d3182826000611441565b509695505050505050565b600054610100900460ff1615808015610d5c5750600054600160ff909116105b80610d765750303b158015610d76575060005460ff166001145b610e02576040517f08c379a000000000000000000000000000000000000000000000000000000000815260206004820152602e60248201527f496e697469616c697a61626c653a20636f6e747261637420697320616c72656160448201527f647920696e697469616c697a656400000000000000000000000000000000000060648201526084016109d7565b600080547fffffffffffffffffffffffffffffffffffffffffffffffffffffffffffffff001660011790558015610e6057600080547fffffffffffffffffffffffffffffffffffffffffffffffffffffffffffff00ff166101001790555b60025473ffffffffffffffffffffffffffffffffffffffff163314610f07576040517f08c379a000000000000000000000000000000000000000000000000000000000815260206004820152602360248201527f554e415554484f52495a45443a2043414e4e4f545f504552464f524d5f41435460448201527f494f4e000000000000000000000000000000000000000000000000000000000060648201526084016109d7565b6003805473ffffffffffffffffffffffffffffffffffffffff8087167fffffffffffffffffffffffff0000000000000000000000000000000000000000928316179092556004805486841690831617905560058054928516929091169190911790558015610fcc57600080547fffffffffffffffffffffffffffffffffffffffffffffffffffffffffffff00ff169055604051600181527f7f26b83ff96e1f2b6a682f133852f6798a09c465da95921460cefb38474024989060200160405180910390a15b50505050565b6000610fe2600180546001019055565b6005546040517fb260c8c300000000000000000000000000000000000000000000000000000000815273ffffffffffffffffffffffffffffffffffffffff90911690600090829063b260c8c39061103f908f903390600401611c78565b602060405180830381865afa15801561105c573d6000803e3d6000fd5b505050506040513d601f19601f820116820180604052508101906110809190611cb0565b9050806110e9576040517f08c379a000000000000000000000000000000000000000000000000000000000815260206004820152601a60248201527f494e56414c49443a204e4f545f415f545241434b5f4f574e455200000000000060448201526064016109d7565b505060006110f660015490565b6003546040517f0d76a88200000000000000000000000000000000000000000000000000000000815260048101839052602481018a9052604481018690526064810187905291925073ffffffffffffffffffffffffffffffffffffffff16908190630d76a8829034906084016000604051808303818588803b15801561117b57600080fd5b505af115801561118f573d6000803e3d6000fd5b505050505060006040518061016001604052808e81526020018d81526020014281526020018c81526020018b8152602001600015158152602001891515815260200160075481526020018881526020013373ffffffffffffffffffffffffffffffffffffffff1681526020016001151581525090506000600460009054906101000a900473ffffffffffffffffffffffffffffffffffffffff1690508073ffffffffffffffffffffffffffffffffffffffff1663c10df2cf8b866040518363ffffffff1660e01b815260040161126f929190918252602082015260400190565b600060405180830381600087803b15801561128957600080fd5b505af115801561129d573d6000803e3d6000fd5b50505060008581526006602090815260409091208451805186945091926112c9928492909101906114b6565b5060208281015180516112e29260018501920190611501565b506040820151600282015560608201518051611308916003840191602090910190611501565b5060808201518051611324916004840191602090910190611501565b5060a082015160058201805460c08501517fffffffffffffffffffffffffffffffffffffffffffffffffffffffffffff00009091169215157fffffffffffffffffffffffffffffffffffffffffffffffffffffffffffff00ff1692909217610100921515830217905560e0830151600683015582015180516113b0916007840191602090910190611501565b506101208201516008909101805461014090930151151574010000000000000000000000000000000000000000027fffffffffffffffffffffff00000000000000000000000000000000000000000090931673ffffffffffffffffffffffffffffffffffffffff9092169190911791909117905561142f84838c611441565b50919c9b505050505050505050505050565b7f3814e97c6d716ffbefb08fe07a4e810604088dbd58cb7fd64c056588de6935678383600001518460200151856040015186606001518760800151878960a001518a60c001518b60e001518c61010001516040516114a99b9a99989796959493929190611ccd565b60405180910390a1505050565b8280548282559060005260206000209081019282156114f1579160200282015b828111156114f15782518255916020019190600101906114d6565b506114fd929150611574565b5090565b82805461150d90611c24565b90600052602060002090601f01602090048101928261152f57600085556114f1565b82601f1061154857805160ff19168380011785556114f1565b828001600101855582156114f157918201828111156114f15782518255916020019190600101906114d6565b5b808211156114fd5760008155600101611575565b60006020828403121561159b57600080fd5b5035919050565b6000815180845260005b818110156115c8576020818501810151868301820152016115ac565b818111156115da576000602083870101525b50601f017fffffffffffffffffffffffffffffffffffffffffffffffffffffffffffffffe0169290920160200192915050565b60006101408083526116218184018e6115a2565b90508b6020840152828103604084015261163b818c6115a2565b9050828103606084015261164f818b6115a2565b9050881515608084015287151560a08401528660c084015282810360e084015261167981876115a2565b73ffffffffffffffffffffffffffffffffffffffff9590951661010084015250509015156101209091015298975050505050505050565b600081518084526020808501945080840160005b838110156116e0578151875295820195908201906001016116c4565b509495945050505050565b602081526000825161016080602085015261170a6101808501836116b0565b915060208501517fffffffffffffffffffffffffffffffffffffffffffffffffffffffffffffffe08086850301604087015261174684836115a2565b935060408701516060870152606087015191508086850301608087015261176d84836115a2565b935060808701519150808685030160a087015261178a84836115a2565b935060a087015191506117a160c087018315159052565b60c087015180151560e0880152915060e087015191506101008281880152808801519250506101208187860301818801526117dc85846115a2565b9450808801519250505061014061180a8187018373ffffffffffffffffffffffffffffffffffffffff169052565b90950151151593019290925250919050565b803573ffffffffffffffffffffffffffffffffffffffff8116811461184057600080fd5b919050565b60006020828403121561185757600080fd5b6118608261181c565b9392505050565b7f4e487b7100000000000000000000000000000000000000000000000000000000600052604160045260246000fd5b604051601f82017fffffffffffffffffffffffffffffffffffffffffffffffffffffffffffffffe016810167ffffffffffffffff811182821017156118dd576118dd611867565b604052919050565b600082601f8301126118f657600080fd5b8135602067ffffffffffffffff82111561191257611912611867565b8160051b611921828201611896565b928352848101820192828101908785111561193b57600080fd5b83870192505b8483101561195a57823582529183019190830190611941565b979650505050505050565b600082601f83011261197657600080fd5b813567ffffffffffffffff81111561199057611990611867565b6119c160207fffffffffffffffffffffffffffffffffffffffffffffffffffffffffffffffe0601f84011601611896565b8181528460208386010111156119d657600080fd5b816020850160208301376000918101602001919091529392505050565b600080600080600060a08688031215611a0b57600080fd5b853567ffffffffffffffff80821115611a2357600080fd5b611a2f89838a016118e5565b96506020880135915080821115611a4557600080fd5b611a5189838a01611965565b95506040880135915080821115611a6757600080fd5b611a7389838a01611965565b94506060880135915080821115611a8957600080fd5b611a9589838a01611965565b93506080880135915080821115611aab57600080fd5b50611ab888828901611965565b9150509295509295909350565b600080600060608486031215611ada57600080fd5b611ae38461181c565b9250611af16020850161181c565b9150611aff6040850161181c565b90509250925092565b8015158114611b1657600080fd5b50565b803561184081611b08565b60008060008060008060008060006101208a8c031215611b4357600080fd5b893567ffffffffffffffff80821115611b5b57600080fd5b611b678d838e016118e5565b9a5060208c0135915080821115611b7d57600080fd5b611b898d838e01611965565b995060408c0135915080821115611b9f57600080fd5b611bab8d838e01611965565b985060608c0135915080821115611bc157600080fd5b611bcd8d838e01611965565b975060808c01359650611be260a08d01611b19565b955060c08c0135915080821115611bf857600080fd5b50611c058c828d01611965565b93505060e08a013591506101008a013590509295985092959850929598565b600181811c90821680611c3857607f821691505b60208210811415611c72577f4e487b7100000000000000000000000000000000000000000000000000000000600052602260045260246000fd5b50919050565b604081526000611c8b60408301856116b0565b905073ffffffffffffffffffffffffffffffffffffffff831660208301529392505050565b600060208284031215611cc257600080fd5b815161186081611b08565b60006101608d8352806020840152611ce78184018e6116b0565b90508281036040840152611cfb818d6115a2565b90508a60608401528281036080840152611d15818b6115a2565b905082810360a0840152611d29818a6115a2565b90508760c084015286151560e084015285151561010084015284610120840152828103610140840152611d5c81856115a2565b9e9d505050505050505050505050505056fea2646970667358221220f502f6e2de8b72789c597f9f76e8d0a9e8defa298c584970c4e5e69c9dc0b81364736f6c634300080c0033",
  "immutableReferences": {},
  "source": "pragma solidity ^0.8.0;\n\nimport \"@openzeppelin/contracts/token/ERC721/ERC721.sol\";\nimport \"@openzeppelin/contracts/utils/Counters.sol\";\nimport \"@openzeppelin/contracts/access/Ownable.sol\";\nimport \"@openzeppelin/contracts-upgradeable/proxy/utils/Initializable.sol\";\nimport \"./voting/ContributionVotingContract.sol\";\nimport \"./interface/IRecords.sol\";\nimport \"./interface/ITracks.sol\";\n\ncontract ContributionContract is Initializable {\n    using Counters for Counters.Counter;\n\n    /// @dev this is Contribution Create event this event will be emitted when a new contribution is created.\n    /// @param contributionId it is the unique identifier for the contribution\n    /// @param tracks are id of the tracks that are part of this contribution, you will have to manually fetch the\n    /// tracks data from trackId once you do the indexing.\n    /// @param title title of the contribution\n    /// @param createdAt createdAt is indicates the time of creation of the contribution\n    /// @param previewFile this is the file that contains the mix of the contribution also known as preview file\n    /// @param previewFileHash this is the hash of the preview file to make sure the previewFile is not tampered with\n    /// @param recordId this is the id of the record to which the contribution belong to\n    /// @param seedContribution this flag determines if the contribution is a seed contribution or not\n    /// @param roughMix this flag determines if the contribution is a new contribution, with new tracks or is it just mix\n    /// of all the previous tracks\n    /// @param status this is status of the contribution that is (PENDING = 1 | ACCEPTED = 2| REJECTED = 3)\n    /// @param description the description of record that is in text format\n    event ContributionCreated(\n        uint256 contributionId,\n        uint256[] tracks,\n        string title,\n        uint256 createdAt,\n        string previewFile,\n        string previewFileHash,\n        uint256 recordId,\n        bool seedContribution,\n        bool roughMix,\n        uint256 status,\n        string description\n    );\n\n    /// @dev This structure will store information of the contribution\n    /// @param tracks Array of id of tracks\n    /// @param title title of the contribution\n    /// @param createdAt blocknumber of when the contribution was created\n    /// @param previewFile This is the preview file link\n    /// @param previewFileHash This is the preview file hash\n    // / @param recordId This is the id of the record to which contribution belongs to\n    /// @param seedContribution This flag determines if it is a seed contribution or not\n    /// @param roughMix This flag determines if it is a rough mix or not, true if rough mix or else false\n    /// @param status This specifies the status of contribution PENDING = 1 | ACCEPTED = 2| REJECTED = 3\n    /// @param description This is the description that is entered by user\n    /// @param owner This is the owner of the contribution\n    /// @param isPresent This is to check if a contribution exists or not\n    struct Contribution {\n        uint256[] tracks;\n        string title;\n        uint256 createdAt;\n        string previewFile;\n        string previewFileHash;\n        bool seedContribution;\n        bool roughMix;\n        uint256 status;\n        string description;\n        address owner;\n        bool isPresent;\n    }\n\n    Counters.Counter private _contributionIds;\n    address public OWNER;\n    address public CONTRIBUTION_VOTING_CONTRACT_ADDRESS;\n    address public RECORD_CONTRACT_ADDRESS;\n    address public TRACKS_CONTRACT_ADDRESS;\n    mapping(uint256 => Contribution) public contributionData;\n    uint256 public PENDING = 1;\n    uint256 public ACCEPTED = 2;\n    uint256 public REJECTED = 3;\n\n    constructor(address owner) {\n        OWNER = owner;\n    }\n\n    /// @dev Modifier to check that the person who accesses a specific function is the owner of contract himself.\n    modifier ownerOnly() {\n        require(msg.sender == OWNER, \"UNAUTHORIZED: CANNOT_PERFORM_ACTION\");\n        _;\n    }\n\n    /// @dev This is to set the address of the contracts\n    /// @param newVotingContractAddress this is the address of new voting contract\n    /// @param newRecordsContractAddress this is the address of new Records contract\n    /// @param newTracksContractAddress this is the address of new tracks contract\n    function initialize(\n        address newVotingContractAddress,\n        address newRecordsContractAddress,\n        address newTracksContractAddress\n    ) public initializer ownerOnly {\n        CONTRIBUTION_VOTING_CONTRACT_ADDRESS = newVotingContractAddress;\n        RECORD_CONTRACT_ADDRESS = newRecordsContractAddress;\n        TRACKS_CONTRACT_ADDRESS = newTracksContractAddress;\n    }\n\n    /// @dev This function sets the owner address\n    /// @param ownerAddress This is the address of the owner\n    function setOwnerAddress(address ownerAddress) public ownerOnly {\n        OWNER = ownerAddress;\n    }\n\n    /// @dev This function returns contribution data\n    /// @param contributionId Id of the contribution whose data you want\n    function getContributionData(\n        uint256 contributionId\n    ) public view returns (Contribution memory contribution) {\n        return contributionData[contributionId];\n    }\n\n    /// @dev This function will be called by the user to create a new contribution\n    /// @param tracks Id of tracks that are part of this contribution\n    /// @param title title of the contribution\n    /// @param previewFile this is preview file of the contribution\n    /// @param previewFileHash this is hash of the preview file\n    /// @param recordId this is the id of the record to which contribution belongs to.\n    /// @param roughMix this represents if a contribution is a roughMix or is a new contribution\n    /// @param description this is the description of the new contribution that is created.\n    /// @param communityReward this is the amount of community token that the contributor is requesting\n    /// for his work contribution.\n    /// @param governanceReward this is the amount of governance token that the contributor is requesting for his\n    /// work contribution.\n    function createNewContribution(\n        // string memory uri,\n        uint256[] memory tracks,\n        string memory title,\n        string memory previewFile,\n        string memory previewFileHash,\n        uint256 recordId,\n        bool roughMix,\n        string memory description,\n        uint256 communityReward,\n        uint256 governanceReward\n    ) public payable returns (uint256) {\n        _contributionIds.increment();\n        {\n            ITracks trackInterface = ITracks(TRACKS_CONTRACT_ADDRESS);\n            bool ownerStatus = trackInterface.checkOwner(tracks, msg.sender);\n\n            require(ownerStatus, \"INVALID: NOT_A_TRACK_OWNER\");\n        }\n\n        uint256 contributionId = _contributionIds.current();\n        // _mint(msg.sender, contributionId);\n\n        ContributionVotingContract contributionVotingContract = ContributionVotingContract(\n                CONTRIBUTION_VOTING_CONTRACT_ADDRESS\n            );\n        contributionVotingContract.createContributionVotingBallot{\n            value: msg.value\n        }(contributionId, recordId, governanceReward, communityReward);\n\n        Contribution memory contribution = Contribution({\n            tracks: tracks,\n            title: title,\n            createdAt: block.timestamp,\n            previewFile: previewFile,\n            previewFileHash: previewFileHash,\n            roughMix: roughMix,\n            status: PENDING,\n            description: description,\n            seedContribution: false,\n            owner: msg.sender,\n            isPresent: true\n        });\n\n        IRecords recordsContract = IRecords(RECORD_CONTRACT_ADDRESS);\n        recordsContract.pushContributionIdToContributionList(\n            recordId,\n            contributionId\n        );\n\n        contributionData[contributionId] = contribution;\n\n        emitContributionCreated(contributionId, contribution, recordId);\n\n        return contributionId;\n    }\n\n    /// @dev This function will be called by the user to create a new seed contribution as there will be not voting\n    /// or anything like that\n    /// @param tracks Id of tracks that are part of this contribution\n    /// @param previewFile this is preview file of the contribution\n    /// @param previewFileHash this is hash of the preview file\n    /// @param description this is the description of the new contribution that is created.\n    function createSeedContribution(\n        // string memory uri,\n        uint256[] memory tracks,\n        string memory title,\n        string memory previewFile,\n        string memory previewFileHash,\n        string memory description\n    ) public returns (uint256) {\n        {\n            ITracks trackInterface = ITracks(TRACKS_CONTRACT_ADDRESS);\n            bool ownerStatus = trackInterface.checkOwner(tracks, msg.sender);\n\n            require(ownerStatus, \"INVALID: NOT_A_TRACK_OWNER\");\n        }\n\n        _contributionIds.increment();\n\n        uint256 contributionId = _contributionIds.current();\n        // _mint(msg.sender, contributionId);\n\n        Contribution memory contribution = Contribution({\n            tracks: tracks,\n            title: title,\n            createdAt: block.timestamp,\n            previewFile: previewFile,\n            previewFileHash: previewFileHash,\n            roughMix: false,\n            status: ACCEPTED,\n            description: description,\n            seedContribution: true,\n            owner: msg.sender,\n            isPresent: true\n        });\n\n        contributionData[contributionId] = contribution;\n\n        emitContributionCreated(contributionId, contribution, 0);\n\n        return contributionId;\n    }\n\n    function emitContributionCreated(\n        uint256 contributionId,\n        Contribution memory contribution,\n        uint256 recordId\n    ) internal {\n        emit ContributionCreated(\n            contributionId,\n            contribution.tracks,\n            contribution.title,\n            contribution.createdAt,\n            contribution.previewFile,\n            contribution.previewFileHash,\n            recordId,\n            contribution.seedContribution,\n            contribution.roughMix,\n            contribution.status,\n            contribution.description\n        );\n    }\n}\n",
  "sourcePath": "/Users/a1/Desktop/Office/projects/CrowdRecords/Contracts/contracts/ContributionContract.sol",
  "compiler": {
    "name": "solc",
    "version": "0.8.12+commit.f00d7308.Emscripten.clang"
  },
  "schemaVersion": "3.4.6",
  "updatedAt": "2023-04-12T13:25:49.872Z",
  "devdoc": {
    "events": {
      "ContributionCreated(uint256,uint256[],string,uint256,string,string,uint256,bool,bool,uint256,string)": {
        "details": "this is Contribution Create event this event will be emitted when a new contribution is created.",
        "params": {
          "contributionId": "it is the unique identifier for the contribution",
          "createdAt": "createdAt is indicates the time of creation of the contribution",
          "description": "the description of record that is in text format",
          "previewFile": "this is the file that contains the mix of the contribution also known as preview file",
          "previewFileHash": "this is the hash of the preview file to make sure the previewFile is not tampered with",
          "recordId": "this is the id of the record to which the contribution belong to",
          "roughMix": "this flag determines if the contribution is a new contribution, with new tracks or is it just mix of all the previous tracks",
          "seedContribution": "this flag determines if the contribution is a seed contribution or not",
          "status": "this is status of the contribution that is (PENDING = 1 | ACCEPTED = 2| REJECTED = 3)",
          "title": "title of the contribution",
          "tracks": "are id of the tracks that are part of this contribution, you will have to manually fetch the tracks data from trackId once you do the indexing."
        }
      }
    },
    "kind": "dev",
    "methods": {
      "createNewContribution(uint256[],string,string,string,uint256,bool,string,uint256,uint256)": {
        "details": "This function will be called by the user to create a new contribution",
        "params": {
          "communityReward": "this is the amount of community token that the contributor is requesting for his work contribution.",
          "description": "this is the description of the new contribution that is created.",
          "governanceReward": "this is the amount of governance token that the contributor is requesting for his work contribution.",
          "previewFile": "this is preview file of the contribution",
          "previewFileHash": "this is hash of the preview file",
          "recordId": "this is the id of the record to which contribution belongs to.",
          "roughMix": "this represents if a contribution is a roughMix or is a new contribution",
          "title": "title of the contribution",
          "tracks": "Id of tracks that are part of this contribution"
        }
      },
      "createSeedContribution(uint256[],string,string,string,string)": {
        "details": "This function will be called by the user to create a new seed contribution as there will be not voting or anything like that",
        "params": {
          "description": "this is the description of the new contribution that is created.",
          "previewFile": "this is preview file of the contribution",
          "previewFileHash": "this is hash of the preview file",
          "tracks": "Id of tracks that are part of this contribution"
        }
      },
      "getContributionData(uint256)": {
        "details": "This function returns contribution data",
        "params": {
          "contributionId": "Id of the contribution whose data you want"
        }
      },
      "initialize(address,address,address)": {
        "details": "This is to set the address of the contracts",
        "params": {
          "newRecordsContractAddress": "this is the address of new Records contract",
          "newTracksContractAddress": "this is the address of new tracks contract",
          "newVotingContractAddress": "this is the address of new voting contract"
        }
      },
      "setOwnerAddress(address)": {
        "details": "This function sets the owner address",
        "params": {
          "ownerAddress": "This is the address of the owner"
        }
      }
    },
    "version": 1
  },
  "userdoc": {
    "kind": "user",
    "methods": {},
    "version": 1
  }
}