{
  "contractName": "ControllerContract",
  "abi": [
    {
      "inputs": [
        {
          "internalType": "address",
          "name": "_tracksContract",
          "type": "address"
        },
        {
          "internalType": "address",
          "name": "_contributionsContract",
          "type": "address"
        },
        {
          "internalType": "address",
          "name": "_recordsContract",
          "type": "address"
        },
        {
          "internalType": "address",
          "name": "_treasuryCoreContract",
          "type": "address"
        }
      ],
      "stateMutability": "nonpayable",
      "type": "constructor"
    },
    {
      "anonymous": false,
      "inputs": [
        {
          "indexed": false,
          "internalType": "address",
          "name": "caller",
          "type": "address"
        },
        {
          "indexed": false,
          "internalType": "uint256[]",
          "name": "tracksId",
          "type": "uint256[]"
        },
        {
          "indexed": false,
          "internalType": "uint256",
          "name": "contributionId",
          "type": "uint256"
        }
      ],
      "name": "CreateNewContributionCalled",
      "type": "event"
    },
    {
      "anonymous": false,
      "inputs": [
        {
          "indexed": false,
          "internalType": "address",
          "name": "caller",
          "type": "address"
        },
        {
          "indexed": false,
          "internalType": "uint256[]",
          "name": "tracksId",
          "type": "uint256[]"
        },
        {
          "indexed": false,
          "internalType": "uint256",
          "name": "seedId",
          "type": "uint256"
        },
        {
          "indexed": false,
          "internalType": "uint256",
          "name": "recordId",
          "type": "uint256"
        },
        {
          "indexed": false,
          "internalType": "uint256",
          "name": "govTokenId",
          "type": "uint256"
        },
        {
          "indexed": false,
          "internalType": "uint256",
          "name": "commTokenId",
          "type": "uint256"
        }
      ],
      "name": "SetupNewRecordCalled",
      "type": "event"
    },
    {
      "inputs": [],
      "name": "contributionsContract",
      "outputs": [
        {
          "internalType": "contract IContribution",
          "name": "",
          "type": "address"
        }
      ],
      "stateMutability": "view",
      "type": "function",
      "constant": true
    },
    {
      "inputs": [],
      "name": "recordsContract",
      "outputs": [
        {
          "internalType": "contract IRecords",
          "name": "",
          "type": "address"
        }
      ],
      "stateMutability": "view",
      "type": "function",
      "constant": true
    },
    {
      "inputs": [],
      "name": "tracksContract",
      "outputs": [
        {
          "internalType": "contract ITracks",
          "name": "",
          "type": "address"
        }
      ],
      "stateMutability": "view",
      "type": "function",
      "constant": true
    },
    {
      "inputs": [
        {
          "components": [
            {
              "internalType": "string",
              "name": "filehash",
              "type": "string"
            },
            {
              "internalType": "string",
              "name": "filelink",
              "type": "string"
            },
            {
              "internalType": "string",
              "name": "category",
              "type": "string"
            }
          ],
          "internalType": "struct ITracks.TrackPayload[]",
          "name": "tracksPayload",
          "type": "tuple[]"
        },
        {
          "components": [
            {
              "internalType": "uint256[]",
              "name": "tracks",
              "type": "uint256[]"
            },
            {
              "internalType": "string",
              "name": "title",
              "type": "string"
            },
            {
              "internalType": "string",
              "name": "previewFile",
              "type": "string"
            },
            {
              "internalType": "string",
              "name": "previewFileHash",
              "type": "string"
            },
            {
              "internalType": "string",
              "name": "description",
              "type": "string"
            }
          ],
          "internalType": "struct IContribution.SeedContributionPayload",
          "name": "payload",
          "type": "tuple"
        },
        {
          "components": [
            {
              "internalType": "string",
              "name": "name",
              "type": "string"
            },
            {
              "internalType": "string",
              "name": "image",
              "type": "string"
            },
            {
              "internalType": "string",
              "name": "recordCategory",
              "type": "string"
            },
            {
              "internalType": "uint256",
              "name": "seedId",
              "type": "uint256"
            }
          ],
          "internalType": "struct IRecords.NewRecordPayload",
          "name": "recordPayload",
          "type": "tuple"
        },
        {
          "components": [
            {
              "internalType": "uint256",
              "name": "recordId",
              "type": "uint256"
            },
            {
              "internalType": "uint256",
              "name": "totalSupply",
              "type": "uint256"
            },
            {
              "internalType": "uint256",
              "name": "userBalance",
              "type": "uint256"
            },
            {
              "internalType": "string",
              "name": "symbol",
              "type": "string"
            },
            {
              "internalType": "string",
              "name": "image",
              "type": "string"
            }
          ],
          "internalType": "struct ITreasuryCore.NewTokenData",
          "name": "govTokenData",
          "type": "tuple"
        },
        {
          "components": [
            {
              "internalType": "uint256",
              "name": "recordId",
              "type": "uint256"
            },
            {
              "internalType": "uint256",
              "name": "totalSupply",
              "type": "uint256"
            },
            {
              "internalType": "uint256",
              "name": "userBalance",
              "type": "uint256"
            },
            {
              "internalType": "string",
              "name": "symbol",
              "type": "string"
            },
            {
              "internalType": "string",
              "name": "image",
              "type": "string"
            }
          ],
          "internalType": "struct ITreasuryCore.NewTokenData",
          "name": "commTokenData",
          "type": "tuple"
        },
        {
          "internalType": "address payable",
          "name": "platformWallet",
          "type": "address"
        },
        {
          "internalType": "uint256",
          "name": "platformFee",
          "type": "uint256"
        }
      ],
      "name": "setupNewRecord",
      "outputs": [],
      "stateMutability": "payable",
      "type": "function",
      "payable": true
    },
    {
      "inputs": [
        {
          "components": [
            {
              "internalType": "string",
              "name": "filehash",
              "type": "string"
            },
            {
              "internalType": "string",
              "name": "filelink",
              "type": "string"
            },
            {
              "internalType": "string",
              "name": "category",
              "type": "string"
            }
          ],
          "internalType": "struct ITracks.TrackPayload[]",
          "name": "tracksPayload",
          "type": "tuple[]"
        },
        {
          "components": [
            {
              "internalType": "uint256[]",
              "name": "tracks",
              "type": "uint256[]"
            },
            {
              "internalType": "string",
              "name": "title",
              "type": "string"
            },
            {
              "internalType": "string",
              "name": "previewFile",
              "type": "string"
            },
            {
              "internalType": "string",
              "name": "previewFileHash",
              "type": "string"
            },
            {
              "internalType": "uint256",
              "name": "recordId",
              "type": "uint256"
            },
            {
              "internalType": "bool",
              "name": "roughMix",
              "type": "bool"
            },
            {
              "internalType": "string",
              "name": "description",
              "type": "string"
            },
            {
              "internalType": "uint256",
              "name": "communityReward",
              "type": "uint256"
            },
            {
              "internalType": "uint256",
              "name": "governanceReward",
              "type": "uint256"
            }
          ],
          "internalType": "struct IContribution.NewContributionPayload",
          "name": "payload",
          "type": "tuple"
        },
        {
          "internalType": "address payable",
          "name": "platformWallet",
          "type": "address"
        },
        {
          "internalType": "uint256",
          "name": "platformFee",
          "type": "uint256"
        }
      ],
      "name": "createNewContribution",
      "outputs": [],
      "stateMutability": "payable",
      "type": "function",
      "payable": true
    }
  ],
  "bytecode": "0x60806040523480156200001157600080fd5b5060405162001bbc38038062001bbc8339810160408190526200003491620000a5565b600080546001600160a01b039586166001600160a01b031991821617909155600180549486169482169490941790935560028054928516928416929092179091556003805491909316911617905562000102565b80516001600160a01b0381168114620000a057600080fd5b919050565b60008060008060808587031215620000bc57600080fd5b620000c78562000088565b9350620000d76020860162000088565b9250620000e76040860162000088565b9150620000f76060860162000088565b905092959194509250565b611aaa80620001126000396000f3fe60806040526004361061005a5760003560e01c8063de04bbd211610043578063de04bbd2146100ca578063f059dd4c146100f7578063fc0d561e1461010a57600080fd5b806385e8413a1461005f5780639558b17d14610074575b600080fd5b61007261006d3660046111c5565b610137565b005b34801561008057600080fd5b506000546100a19073ffffffffffffffffffffffffffffffffffffffff1681565b60405173ffffffffffffffffffffffffffffffffffffffff909116815260200160405180910390f35b3480156100d657600080fd5b506001546100a19073ffffffffffffffffffffffffffffffffffffffff1681565b6100726101053660046112cd565b610a23565b34801561011657600080fd5b506002546100a19073ffffffffffffffffffffffffffffffffffffffff1681565b803410156101a6576040517f08c379a000000000000000000000000000000000000000000000000000000000815260206004820152601e60248201527f494e563a20494e53554646494349454e545f504c4154464f524d5f464545000060448201526064015b60405180910390fd5b341561020b5760405173ffffffffffffffffffffffffffffffffffffffff8316908290600081818185875af1925050503d8060008114610202576040519150601f19603f3d011682016040523d82523d6000602084013e610207565b606091505b5050505b60035460608501516040517f1644e0ff00000000000000000000000000000000000000000000000000000000815260009273ffffffffffffffffffffffffffffffffffffffff1691631644e0ff9161026691906004016114a5565b602060405180830381865afa158015610283573d6000803e3d6000fd5b505050506040513d601f19601f820116820180604052508101906102a791906114bf565b90508015610337576040517f08c379a000000000000000000000000000000000000000000000000000000000815260206004820152602860248201527f494e56414c49443a20474f565f544f4b454e5f53594d424f4c5f414c5245414460448201527f595f494e5f555345000000000000000000000000000000000000000000000000606482015260840161019d565b6001856020015110156103a6576040517f08c379a000000000000000000000000000000000000000000000000000000000815260206004820152601d60248201527f494e56414c49443a20474f565f41545f4c454153545f315f544f4b454e000000604482015260640161019d565b6b033b2e3c9fd0803ce800000085602001511115610446576040517f08c379a000000000000000000000000000000000000000000000000000000000815260206004820152602160248201527f494e56414c49443a20474f565f535550504c595f4c494d49545f52454143484560448201527f4400000000000000000000000000000000000000000000000000000000000000606482015260840161019d565b60035460608501516040517f8958a5de00000000000000000000000000000000000000000000000000000000815273ffffffffffffffffffffffffffffffffffffffff90921691638958a5de9161049f916004016114a5565b602060405180830381865afa1580156104bc573d6000803e3d6000fd5b505050506040513d601f19601f820116820180604052508101906104e091906114bf565b90508015610570576040517f08c379a000000000000000000000000000000000000000000000000000000000815260206004820152602960248201527f494e56414c49443a20434f4d4d5f544f4b454e5f53594d424f4c5f414c52454160448201527f44595f494e5f5553450000000000000000000000000000000000000000000000606482015260840161019d565b6001846020015110156105df576040517f08c379a000000000000000000000000000000000000000000000000000000000815260206004820152601e60248201527f494e56414c49443a20434f4d4d5f41545f4c454153545f315f544f4b454e0000604482015260640161019d565b6b033b2e3c9fd0803ce80000008460200151111561067f576040517f08c379a000000000000000000000000000000000000000000000000000000000815260206004820152602160248201527f494e56414c49443a20434f4d5f535550504c595f4c494d49545f52454143484560448201527f4400000000000000000000000000000000000000000000000000000000000000606482015260840161019d565b50600080546040517f6265a2bb00000000000000000000000000000000000000000000000000000000815273ffffffffffffffffffffffffffffffffffffffff90911690636265a2bb906106d9908b903390600401611572565b6000604051808303816000875af11580156106f8573d6000803e3d6000fd5b505050506040513d6000823e601f3d9081017fffffffffffffffffffffffffffffffffffffffffffffffffffffffffffffffe016820160405261073e91908101906115aa565b8088526001546040517f419f782d00000000000000000000000000000000000000000000000000000000815291925060009173ffffffffffffffffffffffffffffffffffffffff9091169063419f782d9061079f908b903390600401611676565b6020604051808303816000875af11580156107be573d6000803e3d6000fd5b505050506040513d601f19601f820116820180604052508101906107e2919061174d565b606088018190526002546040517f6fe2596100000000000000000000000000000000000000000000000000000000815291925060009173ffffffffffffffffffffffffffffffffffffffff90911690636fe2596190610847908b903390600401611766565b6020604051808303816000875af1158015610866573d6000803e3d6000fd5b505050506040513d601f19601f8201168201806040525081019061088a919061174d565b8088526003546040517fe10fa0b200000000000000000000000000000000000000000000000000000000815291925060009173ffffffffffffffffffffffffffffffffffffffff9091169063e10fa0b2906108eb908b90339060040161180d565b6020604051808303816000875af115801561090a573d6000803e3d6000fd5b505050506040513d601f19601f8201168201806040525081019061092e919061174d565b8288526003546040517fff669dfb00000000000000000000000000000000000000000000000000000000815291925060009173ffffffffffffffffffffffffffffffffffffffff9091169063ff669dfb9061098f908b90339060040161180d565b6020604051808303816000875af11580156109ae573d6000803e3d6000fd5b505050506040513d601f19601f820116820180604052508101906109d2919061174d565b90507f5b3cd8282cdcce85fcadace3d18cde215ffb8adad83cc536ebd2bcb70fec98fb338686868686604051610a0d96959493929190611881565b60405180910390a1505050505050505050505050565b80341015610a8d576040517f08c379a000000000000000000000000000000000000000000000000000000000815260206004820152601e60248201527f494e563a20494e53554646494349454e545f504c4154464f524d5f4645450000604482015260640161019d565b3415610af25760405173ffffffffffffffffffffffffffffffffffffffff8316908290600081818185875af1925050503d8060008114610ae9576040519150601f19603f3d011682016040523d82523d6000602084013e610aee565b606091505b5050505b600080546040517f24833c2000000000000000000000000000000000000000000000000000000000815273ffffffffffffffffffffffffffffffffffffffff909116906324833c2090610b499088906004016118d5565b6000604051808303816000875af1158015610b68573d6000803e3d6000fd5b505050506040513d6000823e601f3d9081017fffffffffffffffffffffffffffffffffffffffffffffffffffffffffffffffe0168201604052610bae91908101906115aa565b80855260015490915060009073ffffffffffffffffffffffffffffffffffffffff16634eb45e62610bdf85346118e8565b87336040518463ffffffff1660e01b8152600401610bfe929190611926565b60206040518083038185885af1158015610c1c573d6000803e3d6000fd5b50505050506040513d601f19601f82011682018060405250810190610c41919061174d565b90507f911a8c4b34ad0819e14f6bb65776b9dd92a3df293a3daa65f77ad247e7e9f3cb338383604051610c7693929190611a35565b60405180910390a1505050505050565b7f4e487b7100000000000000000000000000000000000000000000000000000000600052604160045260246000fd5b6040516060810167ffffffffffffffff81118282101715610cd857610cd8610c86565b60405290565b60405160a0810167ffffffffffffffff81118282101715610cd857610cd8610c86565b604051610120810167ffffffffffffffff81118282101715610cd857610cd8610c86565b604051601f82017fffffffffffffffffffffffffffffffffffffffffffffffffffffffffffffffe016810167ffffffffffffffff81118282101715610d6c57610d6c610c86565b604052919050565b600067ffffffffffffffff821115610d8e57610d8e610c86565b5060051b60200190565b600082601f830112610da957600080fd5b813567ffffffffffffffff811115610dc357610dc3610c86565b610df460207fffffffffffffffffffffffffffffffffffffffffffffffffffffffffffffffe0601f84011601610d25565b818152846020838601011115610e0957600080fd5b816020850160208301376000918101602001919091529392505050565b600082601f830112610e3757600080fd5b81356020610e4c610e4783610d74565b610d25565b82815260059290921b84018101918181019086841115610e6b57600080fd5b8286015b84811015610f5057803567ffffffffffffffff80821115610e905760008081fd5b81890191506060807fffffffffffffffffffffffffffffffffffffffffffffffffffffffffffffffe0848d03011215610ec95760008081fd5b610ed1610cb5565b8784013583811115610ee35760008081fd5b610ef18d8a83880101610d98565b82525060408085013584811115610f085760008081fd5b610f168e8b83890101610d98565b838b015250918401359183831115610f2e5760008081fd5b610f3c8d8a85880101610d98565b908201528652505050918301918301610e6f565b509695505050505050565b600082601f830112610f6c57600080fd5b81356020610f7c610e4783610d74565b82815260059290921b84018101918181019086841115610f9b57600080fd5b8286015b84811015610f505780358352918301918301610f9f565b600060a08284031215610fc857600080fd5b610fd0610cde565b9050813567ffffffffffffffff80821115610fea57600080fd5b610ff685838601610f5b565b8352602084013591508082111561100c57600080fd5b61101885838601610d98565b6020840152604084013591508082111561103157600080fd5b61103d85838601610d98565b6040840152606084013591508082111561105657600080fd5b61106285838601610d98565b6060840152608084013591508082111561107b57600080fd5b5061108884828501610d98565b60808301525092915050565b6000608082840312156110a657600080fd5b6040516080810167ffffffffffffffff82821081831117156110ca576110ca610c86565b8160405282935084359150808211156110e257600080fd5b6110ee86838701610d98565b8352602085013591508082111561110457600080fd5b61111086838701610d98565b6020840152604085013591508082111561112957600080fd5b5061113685828601610d98565b604083015250606083013560608201525092915050565b600060a0828403121561115f57600080fd5b611167610cde565b9050813581526020820135602082015260408201356040820152606082013567ffffffffffffffff8082111561105657600080fd5b803573ffffffffffffffffffffffffffffffffffffffff811681146111c057600080fd5b919050565b600080600080600080600060e0888a0312156111e057600080fd5b873567ffffffffffffffff808211156111f857600080fd5b6112048b838c01610e26565b985060208a013591508082111561121a57600080fd5b6112268b838c01610fb6565b975060408a013591508082111561123c57600080fd5b6112488b838c01611094565b965060608a013591508082111561125e57600080fd5b61126a8b838c0161114d565b955060808a013591508082111561128057600080fd5b5061128d8a828b0161114d565b93505061129c60a0890161119c565b915060c0880135905092959891949750929550565b80151581146112bf57600080fd5b50565b80356111c0816112b1565b600080600080608085870312156112e357600080fd5b843567ffffffffffffffff808211156112fb57600080fd5b61130788838901610e26565b9550602087013591508082111561131d57600080fd5b90860190610120828903121561133257600080fd5b61133a610d01565b82358281111561134957600080fd5b6113558a828601610f5b565b82525060208301358281111561136a57600080fd5b6113768a828601610d98565b60208301525060408301358281111561138e57600080fd5b61139a8a828601610d98565b6040830152506060830135828111156113b257600080fd5b6113be8a828601610d98565b606083015250608083013560808201526113da60a084016112c2565b60a082015260c0830135828111156113f157600080fd5b6113fd8a828601610d98565b60c08301525060e08381013590820152610100928301359281019290925250925061142a6040860161119c565b9396929550929360600135925050565b6000815180845260005b8181101561146057602081850181015186830182015201611444565b81811115611472576000602083870101525b50601f017fffffffffffffffffffffffffffffffffffffffffffffffffffffffffffffffe0169290920160200192915050565b6020815260006114b8602083018461143a565b9392505050565b6000602082840312156114d157600080fd5b81516114b8816112b1565b600081518084526020808501808196508360051b8101915082860160005b8581101561156557828403895281516060815181875261151c8288018261143a565b9150508682015186820388880152611534828261143a565b91505060408083015192508682038188015250611551818361143a565b9a87019a95505050908401906001016114fa565b5091979650505050505050565b60408152600061158560408301856114dc565b905073ffffffffffffffffffffffffffffffffffffffff831660208301529392505050565b600060208083850312156115bd57600080fd5b825167ffffffffffffffff8111156115d457600080fd5b8301601f810185136115e557600080fd5b80516115f3610e4782610d74565b81815260059190911b8201830190838101908783111561161257600080fd5b928401925b8284101561163057835182529284019290840190611617565b979650505050505050565b600081518084526020808501945080840160005b8381101561166b5781518752958201959082019060010161164f565b509495945050505050565b604081526000835160a0604084015261169260e084018261163b565b905060208501517fffffffffffffffffffffffffffffffffffffffffffffffffffffffffffffffc0808584030160608601526116ce838361143a565b925060408701519150808584030160808601526116eb838361143a565b925060608701519150808584030160a0860152611708838361143a565b925060808701519150808584030160c086015250611726828261143a565b9250505073ffffffffffffffffffffffffffffffffffffffff831660208301529392505050565b60006020828403121561175f57600080fd5b5051919050565b60408152600083516080604084015261178260c084018261143a565b905060208501517fffffffffffffffffffffffffffffffffffffffffffffffffffffffffffffffc0808584030160608601526117be838361143a565b92506040870151915080858403016080860152506117dc828261143a565b6060969096015160a085015250505073ffffffffffffffffffffffffffffffffffffffff9190911660209091015290565b604081528251604082015260208301516060820152604083015160808201526000606084015160a08084015261184660e084018261143a565b905060808501517fffffffffffffffffffffffffffffffffffffffffffffffffffffffffffffffc08483030160c0850152611726828261143a565b73ffffffffffffffffffffffffffffffffffffffff8716815260c0602082015260006118b060c083018861163b565b90508560408301528460608301528360808301528260a0830152979650505050505050565b6020815260006114b860208301846114dc565b600082821015611921577f4e487b7100000000000000000000000000000000000000000000000000000000600052601160045260246000fd5b500390565b604081526000835161012080604085015261194561016085018361163b565b915060208601517fffffffffffffffffffffffffffffffffffffffffffffffffffffffffffffffc080868503016060870152611981848361143a565b9350604088015191508086850301608087015261199e848361143a565b935060608801519150808685030160a08701526119bb848361143a565b9350608088015160c087015260a088015191506119dc60e087018315159052565b60c088015191506101008187860301818801526119f9858461143a565b60e08a015194880194909452880151610140870152505073ffffffffffffffffffffffffffffffffffffffff8516602085015291506114b89050565b73ffffffffffffffffffffffffffffffffffffffff84168152606060208201526000611a64606083018561163b565b905082604083015294935050505056fea264697066735822122030cfe8953718368731ef9d661af4f58a0e71b04aa8702af2562d41ed6cf4b1dc64736f6c634300080c0033",
  "immutableReferences": {},
  "source": "pragma solidity ^0.8.0;\n\nimport \"./interface/ITracks.sol\";\nimport \"./interface/IContribution.sol\";\nimport \"./interface/IRecords.sol\";\nimport \"./interface/ITreasuryCore.sol\";\n\ncontract ControllerContract {\n    event SetupNewRecordCalled(\n        address caller,\n        uint[] tracksId,\n        uint seedId,\n        uint recordId,\n        uint govTokenId,\n        uint commTokenId\n    );\n\n    event CreateNewContributionCalled(\n        address caller,\n        uint[] tracksId,\n        uint contributionId\n    );\n\n    ITracks public tracksContract;\n    IContribution public contributionsContract;\n    IRecords public recordsContract;\n    ITreasuryCore private treasuryCoreContract;\n\n    constructor(\n        address _tracksContract,\n        address _contributionsContract,\n        address _recordsContract,\n        address _treasuryCoreContract\n    ) {\n        tracksContract = ITracks(_tracksContract);\n        contributionsContract = IContribution(_contributionsContract);\n        recordsContract = IRecords(_recordsContract);\n        treasuryCoreContract = ITreasuryCore(_treasuryCoreContract);\n    }\n\n    /// @notice This function is created to make the record creation flow simpler, this function takes all the required\n    /// arguments which are needed to create a new record, that includes the tracks data, contribution data, record data and tokens data\n    /// it make serial calls to the other contracts that are individually responsible for creation of tracks,\n    /// seed contribution, record and new tokens.\n    /// @param tracksPayload Data required to create tracks\n    /// @param payload Data required to create seed contributions\n    /// @param recordPayload Data required to create record\n    /// @param govTokenData Data required to create a governance token\n    /// @param commTokenData Data required to create a community token\n    /// @param platformWallet this is the UI providers wallet\n    /// @param platformFee this is the incentive amount for the UI maintainer\n    function setupNewRecord(\n        ITracks.TrackPayload[] memory tracksPayload,\n        IContribution.SeedContributionPayload memory payload,\n        IRecords.NewRecordPayload memory recordPayload,\n        ITreasuryCore.NewTokenData memory govTokenData,\n        ITreasuryCore.NewTokenData memory commTokenData,\n        address payable platformWallet,\n        uint256 platformFee\n    ) public payable {\n        {\n            require(msg.value >= platformFee, \"INV: INSUFFICIENT_PLATFORM_FEE\");\n            if (msg.value > 0) {\n                platformWallet.call{value: platformFee}(\"\");\n            }\n        }\n        {\n            bool isSymbolInUse = treasuryCoreContract.govTokenSym(\n                govTokenData.symbol\n            );\n            require(\n                isSymbolInUse == false,\n                \"INVALID: GOV_TOKEN_SYMBOL_ALREADY_IN_USE\"\n            );\n            require(\n                govTokenData.totalSupply >= 1,\n                \"INVALID: GOV_AT_LEAST_1_TOKEN\"\n            );\n            require(\n                govTokenData.totalSupply <= 1 * 10 ** 9 * 1 ether, //The token supply created shouldn't be more than 1 billion\n                \"INVALID: GOV_SUPPLY_LIMIT_REACHED\"\n            );\n\n            isSymbolInUse = treasuryCoreContract.commTokenSym(\n                commTokenData.symbol\n            );\n            require(\n                isSymbolInUse == false,\n                \"INVALID: COMM_TOKEN_SYMBOL_ALREADY_IN_USE\"\n            );\n            require(\n                commTokenData.totalSupply >= 1,\n                \"INVALID: COMM_AT_LEAST_1_TOKEN\"\n            );\n            require(\n                commTokenData.totalSupply <= 1 * 10 ** 9 * 1 ether, //The token supply created shouldn't be more than 1 billion\n                \"INVALID: COM_SUPPLY_LIMIT_REACHED\"\n            );\n        }\n        uint256[] memory trackIds = tracksContract.controllerCreateNewTracks(\n            tracksPayload,\n            msg.sender\n        );\n        payload.tracks = trackIds;\n        uint256 contributionId = contributionsContract\n            .controllerCreateSeedContribution(payload, msg.sender);\n        recordPayload.seedId = contributionId;\n        uint256 recordId = recordsContract.controllerCreateNewRecord(\n            recordPayload,\n            msg.sender\n        );\n        govTokenData.recordId = recordId;\n        uint256 govTokenId = treasuryCoreContract.createNewGovernanceToken(\n            govTokenData,\n            msg.sender\n        );\n        commTokenData.recordId = recordId;\n        uint256 commTokenId = treasuryCoreContract.createNewCommunityToken(\n            commTokenData,\n            msg.sender\n        );\n\n        {\n            emit SetupNewRecordCalled(\n                msg.sender,\n                trackIds,\n                contributionId,\n                recordId,\n                govTokenId,\n                commTokenId\n            );\n        }\n    }\n\n    /// @notice This function is created to make the contribution creation flow simple, it will take the tracks and contribution data as parameter and then call the underlying functions.\n    /// @param tracksPayload Data required to create tracks\n    /// @param payload Data required to create new contribution\n    /// @param platformWallet this is the UI providers wallet\n    /// @param platformFee this is the incentive amount for the UI maintainer\n    function createNewContribution(\n        ITracks.TrackPayload[] memory tracksPayload,\n        IContribution.NewContributionPayload memory payload,\n        address payable platformWallet,\n        uint256 platformFee\n    ) public payable {\n        {\n            require(msg.value >= platformFee, \"INV: INSUFFICIENT_PLATFORM_FEE\");\n            if (msg.value > 0) {\n                platformWallet.call{value: platformFee}(\"\");\n            }\n        }\n        uint256[] memory trackIds = tracksContract.createNewTracks(\n            tracksPayload\n        );\n        payload.tracks = trackIds;\n        uint256 contributionId = contributionsContract\n            .controllerCreateNewContribution{value: msg.value - platformFee}(\n            payload,\n            msg.sender\n        );\n\n        {\n            emit CreateNewContributionCalled(\n                msg.sender,\n                trackIds,\n                contributionId\n            );\n        }\n    }\n}\n",
  "sourcePath": "/Users/a1/Desktop/Office/projects/CrowdRecords/Contracts/contracts/ControllerContract.sol",
  "compiler": {
    "name": "solc",
    "version": "0.8.12+commit.f00d7308.Emscripten.clang"
  },
  "schemaVersion": "3.4.6",
  "updatedAt": "2023-09-04T11:48:55.402Z",
  "networkType": "ethereum",
  "devdoc": {
    "kind": "dev",
    "methods": {
      "createNewContribution((string,string,string)[],(uint256[],string,string,string,uint256,bool,string,uint256,uint256),address,uint256)": {
        "params": {
          "payload": "Data required to create new contribution",
          "platformFee": "this is the incentive amount for the UI maintainer",
          "platformWallet": "this is the UI providers wallet",
          "tracksPayload": "Data required to create tracks"
        }
      },
      "setupNewRecord((string,string,string)[],(uint256[],string,string,string,string),(string,string,string,uint256),(uint256,uint256,uint256,string,string),(uint256,uint256,uint256,string,string),address,uint256)": {
        "params": {
          "commTokenData": "Data required to create a community token",
          "govTokenData": "Data required to create a governance token",
          "payload": "Data required to create seed contributions",
          "platformFee": "this is the incentive amount for the UI maintainer",
          "platformWallet": "this is the UI providers wallet",
          "recordPayload": "Data required to create record",
          "tracksPayload": "Data required to create tracks"
        }
      }
    },
    "version": 1
  },
  "userdoc": {
    "kind": "user",
    "methods": {
      "createNewContribution((string,string,string)[],(uint256[],string,string,string,uint256,bool,string,uint256,uint256),address,uint256)": {
        "notice": "This function is created to make the contribution creation flow simple, it will take the tracks and contribution data as parameter and then call the underlying functions."
      },
      "setupNewRecord((string,string,string)[],(uint256[],string,string,string,string),(string,string,string,uint256),(uint256,uint256,uint256,string,string),(uint256,uint256,uint256,string,string),address,uint256)": {
        "notice": "This function is created to make the record creation flow simpler, this function takes all the required arguments which are needed to create a new record, that includes the tracks data, contribution data, record data and tokens data it make serial calls to the other contracts that are individually responsible for creation of tracks, seed contribution, record and new tokens."
      }
    },
    "version": 1
  }
}