{
  "contractName": "ControllerContract",
  "abi": [
    {
      "inputs": [
        {
          "internalType": "address",
          "name": "_tracksContract",
          "type": "address"
        },
        {
          "internalType": "address",
          "name": "_contributionsContract",
          "type": "address"
        },
        {
          "internalType": "address",
          "name": "_recordsContract",
          "type": "address"
        },
        {
          "internalType": "address",
          "name": "_treasuryCoreContract",
          "type": "address"
        }
      ],
      "stateMutability": "nonpayable",
      "type": "constructor"
    },
    {
      "anonymous": false,
      "inputs": [
        {
          "indexed": false,
          "internalType": "address",
          "name": "caller",
          "type": "address"
        },
        {
          "indexed": false,
          "internalType": "uint256[]",
          "name": "tracksId",
          "type": "uint256[]"
        },
        {
          "indexed": false,
          "internalType": "uint256",
          "name": "seedId",
          "type": "uint256"
        },
        {
          "indexed": false,
          "internalType": "uint256",
          "name": "recordId",
          "type": "uint256"
        },
        {
          "indexed": false,
          "internalType": "uint256",
          "name": "govTokenId",
          "type": "uint256"
        },
        {
          "indexed": false,
          "internalType": "uint256",
          "name": "commTokenId",
          "type": "uint256"
        }
      ],
      "name": "setupNewRecordCalled",
      "type": "event"
    },
    {
      "inputs": [],
      "name": "contributionsContract",
      "outputs": [
        {
          "internalType": "contract IContribution",
          "name": "",
          "type": "address"
        }
      ],
      "stateMutability": "view",
      "type": "function"
    },
    {
      "inputs": [],
      "name": "recordsContract",
      "outputs": [
        {
          "internalType": "contract IRecords",
          "name": "",
          "type": "address"
        }
      ],
      "stateMutability": "view",
      "type": "function"
    },
    {
      "inputs": [],
      "name": "tracksContract",
      "outputs": [
        {
          "internalType": "contract ITracks",
          "name": "",
          "type": "address"
        }
      ],
      "stateMutability": "view",
      "type": "function"
    },
    {
      "inputs": [
        {
          "components": [
            {
              "internalType": "string",
              "name": "filehash",
              "type": "string"
            },
            {
              "internalType": "string",
              "name": "filelink",
              "type": "string"
            },
            {
              "internalType": "string",
              "name": "category",
              "type": "string"
            }
          ],
          "internalType": "struct ITracks.TrackPayload[]",
          "name": "tracksPayload",
          "type": "tuple[]"
        },
        {
          "components": [
            {
              "internalType": "uint256[]",
              "name": "tracks",
              "type": "uint256[]"
            },
            {
              "internalType": "string",
              "name": "title",
              "type": "string"
            },
            {
              "internalType": "string",
              "name": "previewFile",
              "type": "string"
            },
            {
              "internalType": "string",
              "name": "previewFileHash",
              "type": "string"
            },
            {
              "internalType": "string",
              "name": "description",
              "type": "string"
            }
          ],
          "internalType": "struct IContribution.SeedContributionPayload",
          "name": "payload",
          "type": "tuple"
        },
        {
          "components": [
            {
              "internalType": "string",
              "name": "name",
              "type": "string"
            },
            {
              "internalType": "string",
              "name": "image",
              "type": "string"
            },
            {
              "internalType": "string",
              "name": "recordCategory",
              "type": "string"
            },
            {
              "internalType": "uint256",
              "name": "seedId",
              "type": "uint256"
            }
          ],
          "internalType": "struct IRecords.NewRecordPayload",
          "name": "recordPayload",
          "type": "tuple"
        },
        {
          "components": [
            {
              "internalType": "uint256",
              "name": "recordId",
              "type": "uint256"
            },
            {
              "internalType": "uint256",
              "name": "totalSupply",
              "type": "uint256"
            },
            {
              "internalType": "uint256",
              "name": "userBalance",
              "type": "uint256"
            },
            {
              "internalType": "string",
              "name": "symbol",
              "type": "string"
            },
            {
              "internalType": "string",
              "name": "image",
              "type": "string"
            }
          ],
          "internalType": "struct ITreasuryCore.NewTokenData",
          "name": "govTokenData",
          "type": "tuple"
        },
        {
          "components": [
            {
              "internalType": "uint256",
              "name": "recordId",
              "type": "uint256"
            },
            {
              "internalType": "uint256",
              "name": "totalSupply",
              "type": "uint256"
            },
            {
              "internalType": "uint256",
              "name": "userBalance",
              "type": "uint256"
            },
            {
              "internalType": "string",
              "name": "symbol",
              "type": "string"
            },
            {
              "internalType": "string",
              "name": "image",
              "type": "string"
            }
          ],
          "internalType": "struct ITreasuryCore.NewTokenData",
          "name": "commTokenData",
          "type": "tuple"
        },
        {
          "internalType": "address payable",
          "name": "platformWallet",
          "type": "address"
        },
        {
          "internalType": "uint256",
          "name": "platformFee",
          "type": "uint256"
        }
      ],
      "name": "setupNewRecord",
      "outputs": [],
      "stateMutability": "payable",
      "type": "function"
    }
  ],
  "bytecode": "0x60806040523480156200001157600080fd5b506040516200134b3803806200134b8339810160408190526200003491620000a5565b600080546001600160a01b039586166001600160a01b031991821617909155600180549486169482169490941790935560028054928516928416929092179091556003805491909316911617905562000102565b80516001600160a01b0381168114620000a057600080fd5b919050565b60008060008060808587031215620000bc57600080fd5b620000c78562000088565b9350620000d76020860162000088565b9250620000e76040860162000088565b9150620000f76060860162000088565b905092959194509250565b61123980620001126000396000f3fe60806040526004361061003f5760003560e01c806385e8413a146100445780639558b17d14610059578063de04bbd2146100af578063fc0d561e146100dc575b600080fd5b610057610052366004610c86565b610109565b005b34801561006557600080fd5b506000546100869073ffffffffffffffffffffffffffffffffffffffff1681565b60405173ffffffffffffffffffffffffffffffffffffffff909116815260200160405180910390f35b3480156100bb57600080fd5b506001546100869073ffffffffffffffffffffffffffffffffffffffff1681565b3480156100e857600080fd5b506002546100869073ffffffffffffffffffffffffffffffffffffffff1681565b341561016e5760405173ffffffffffffffffffffffffffffffffffffffff8316908290600081818185875af1925050503d8060008114610165576040519150601f19603f3d011682016040523d82523d6000602084013e61016a565b606091505b5050505b60035460608401516040517f8958a5de00000000000000000000000000000000000000000000000000000000815260009273ffffffffffffffffffffffffffffffffffffffff1691638958a5de916101c99190600401610ddd565b602060405180830381865afa1580156101e6573d6000803e3d6000fd5b505050506040513d601f19601f8201168201806040525081019061020a9190610df7565b9050801561029f576040517f08c379a000000000000000000000000000000000000000000000000000000000815260206004820152602960248201527f494e56414c49443a20434f4d4d5f544f4b454e5f53594d424f4c5f414c52454160448201527f44595f494e5f555345000000000000000000000000000000000000000000000060648201526084015b60405180910390fd5b60035460608601516040517f1644e0ff00000000000000000000000000000000000000000000000000000000815273ffffffffffffffffffffffffffffffffffffffff90921691631644e0ff916102f891600401610ddd565b602060405180830381865afa158015610315573d6000803e3d6000fd5b505050506040513d601f19601f820116820180604052508101906103399190610df7565b905080156103c9576040517f08c379a000000000000000000000000000000000000000000000000000000000815260206004820152602860248201527f494e56414c49443a20474f565f544f4b454e5f53594d424f4c5f414c5245414460448201527f595f494e5f5553450000000000000000000000000000000000000000000000006064820152608401610296565b50600080546040517f24833c2000000000000000000000000000000000000000000000000000000000815273ffffffffffffffffffffffffffffffffffffffff909116906324833c2090610421908b90600401610e19565b6000604051808303816000875af1158015610440573d6000803e3d6000fd5b505050506040513d6000823e601f3d9081017fffffffffffffffffffffffffffffffffffffffffffffffffffffffffffffffe01682016040526104869190810190610ed8565b8088526001546040517f419f782d00000000000000000000000000000000000000000000000000000000815291925060009173ffffffffffffffffffffffffffffffffffffffff9091169063419f782d906104e7908b903390600401610fa4565b6020604051808303816000875af1158015610506573d6000803e3d6000fd5b505050506040513d601f19601f8201168201806040525081019061052a919061107b565b606088018190526002546040517f6fe2596100000000000000000000000000000000000000000000000000000000815291925060009173ffffffffffffffffffffffffffffffffffffffff90911690636fe259619061058f908b903390600401611094565b6020604051808303816000875af11580156105ae573d6000803e3d6000fd5b505050506040513d601f19601f820116820180604052508101906105d2919061107b565b8088526003546040517fe10fa0b200000000000000000000000000000000000000000000000000000000815291925060009173ffffffffffffffffffffffffffffffffffffffff9091169063e10fa0b290610633908b90339060040161113b565b6020604051808303816000875af1158015610652573d6000803e3d6000fd5b505050506040513d601f19601f82011682018060405250810190610676919061107b565b8288526003546040517fff669dfb00000000000000000000000000000000000000000000000000000000815291925060009173ffffffffffffffffffffffffffffffffffffffff9091169063ff669dfb906106d7908b90339060040161113b565b6020604051808303816000875af11580156106f6573d6000803e3d6000fd5b505050506040513d601f19601f8201168201806040525081019061071a919061107b565b90507fedddf114da1e73c2e4c30f15ab51b7e376828e096ea4d0d6b9407bdcc64b2a3c338686868686604051610755969594939291906111af565b60405180910390a1505050505050505050505050565b7f4e487b7100000000000000000000000000000000000000000000000000000000600052604160045260246000fd5b6040516060810167ffffffffffffffff811182821017156107bd576107bd61076b565b60405290565b60405160a0810167ffffffffffffffff811182821017156107bd576107bd61076b565b604051601f82017fffffffffffffffffffffffffffffffffffffffffffffffffffffffffffffffe016810167ffffffffffffffff8111828210171561082d5761082d61076b565b604052919050565b600067ffffffffffffffff82111561084f5761084f61076b565b5060051b60200190565b600082601f83011261086a57600080fd5b813567ffffffffffffffff8111156108845761088461076b565b6108b560207fffffffffffffffffffffffffffffffffffffffffffffffffffffffffffffffe0601f840116016107e6565b8181528460208386010111156108ca57600080fd5b816020850160208301376000918101602001919091529392505050565b600082601f8301126108f857600080fd5b8135602061090d61090883610835565b6107e6565b82815260059290921b8401810191818101908684111561092c57600080fd5b8286015b84811015610a1157803567ffffffffffffffff808211156109515760008081fd5b81890191506060807fffffffffffffffffffffffffffffffffffffffffffffffffffffffffffffffe0848d0301121561098a5760008081fd5b61099261079a565b87840135838111156109a45760008081fd5b6109b28d8a83880101610859565b825250604080850135848111156109c95760008081fd5b6109d78e8b83890101610859565b838b0152509184013591838311156109ef5760008081fd5b6109fd8d8a85880101610859565b908201528652505050918301918301610930565b509695505050505050565b600082601f830112610a2d57600080fd5b81356020610a3d61090883610835565b82815260059290921b84018101918181019086841115610a5c57600080fd5b8286015b84811015610a115780358352918301918301610a60565b600060a08284031215610a8957600080fd5b610a916107c3565b9050813567ffffffffffffffff80821115610aab57600080fd5b610ab785838601610a1c565b83526020840135915080821115610acd57600080fd5b610ad985838601610859565b60208401526040840135915080821115610af257600080fd5b610afe85838601610859565b60408401526060840135915080821115610b1757600080fd5b610b2385838601610859565b60608401526080840135915080821115610b3c57600080fd5b50610b4984828501610859565b60808301525092915050565b600060808284031215610b6757600080fd5b6040516080810167ffffffffffffffff8282108183111715610b8b57610b8b61076b565b816040528293508435915080821115610ba357600080fd5b610baf86838701610859565b83526020850135915080821115610bc557600080fd5b610bd186838701610859565b60208401526040850135915080821115610bea57600080fd5b50610bf785828601610859565b604083015250606083013560608201525092915050565b600060a08284031215610c2057600080fd5b610c286107c3565b9050813581526020820135602082015260408201356040820152606082013567ffffffffffffffff80821115610b1757600080fd5b803573ffffffffffffffffffffffffffffffffffffffff81168114610c8157600080fd5b919050565b600080600080600080600060e0888a031215610ca157600080fd5b873567ffffffffffffffff80821115610cb957600080fd5b610cc58b838c016108e7565b985060208a0135915080821115610cdb57600080fd5b610ce78b838c01610a77565b975060408a0135915080821115610cfd57600080fd5b610d098b838c01610b55565b965060608a0135915080821115610d1f57600080fd5b610d2b8b838c01610c0e565b955060808a0135915080821115610d4157600080fd5b50610d4e8a828b01610c0e565b935050610d5d60a08901610c5d565b915060c0880135905092959891949750929550565b6000815180845260005b81811015610d9857602081850181015186830182015201610d7c565b81811115610daa576000602083870101525b50601f017fffffffffffffffffffffffffffffffffffffffffffffffffffffffffffffffe0169290920160200192915050565b602081526000610df06020830184610d72565b9392505050565b600060208284031215610e0957600080fd5b81518015158114610df057600080fd5b60006020808301818452808551808352604092508286019150828160051b87010184880160005b83811015610eca577fffffffffffffffffffffffffffffffffffffffffffffffffffffffffffffffc0898403018552815160608151818652610e8482870182610d72565b915050888201518582038a870152610e9c8282610d72565b91505087820151915084810388860152610eb68183610d72565b968901969450505090860190600101610e40565b509098975050505050505050565b60006020808385031215610eeb57600080fd5b825167ffffffffffffffff811115610f0257600080fd5b8301601f81018513610f1357600080fd5b8051610f2161090882610835565b81815260059190911b82018301908381019087831115610f4057600080fd5b928401925b82841015610f5e57835182529284019290840190610f45565b979650505050505050565b600081518084526020808501945080840160005b83811015610f9957815187529582019590820190600101610f7d565b509495945050505050565b604081526000835160a06040840152610fc060e0840182610f69565b905060208501517fffffffffffffffffffffffffffffffffffffffffffffffffffffffffffffffc080858403016060860152610ffc8383610d72565b925060408701519150808584030160808601526110198383610d72565b925060608701519150808584030160a08601526110368383610d72565b925060808701519150808584030160c0860152506110548282610d72565b9250505073ffffffffffffffffffffffffffffffffffffffff831660208301529392505050565b60006020828403121561108d57600080fd5b5051919050565b6040815260008351608060408401526110b060c0840182610d72565b905060208501517fffffffffffffffffffffffffffffffffffffffffffffffffffffffffffffffc0808584030160608601526110ec8383610d72565b925060408701519150808584030160808601525061110a8282610d72565b6060969096015160a085015250505073ffffffffffffffffffffffffffffffffffffffff9190911660209091015290565b604081528251604082015260208301516060820152604083015160808201526000606084015160a08084015261117460e0840182610d72565b905060808501517fffffffffffffffffffffffffffffffffffffffffffffffffffffffffffffffc08483030160c08501526110548282610d72565b73ffffffffffffffffffffffffffffffffffffffff8716815260c0602082015260006111de60c0830188610f69565b90508560408301528460608301528360808301528260a083015297965050505050505056fea2646970667358221220d52af19197d2d7940a9049529654e53a92b80ef06af25e56ed0340ae9d895bb064736f6c634300080c0033",
  "immutableReferences": {},
  "source": "pragma solidity ^0.8.0;\n\nimport \"./interface/ITracks.sol\";\nimport \"./interface/IContribution.sol\";\nimport \"./interface/IRecords.sol\";\nimport \"./interface/ITreasuryCore.sol\";\n\ncontract ControllerContract {\n    event setupNewRecordCalled(\n        address caller,\n        uint[] tracksId,\n        uint seedId,\n        uint recordId,\n        uint govTokenId,\n        uint commTokenId\n    );\n\n    ITracks public tracksContract;\n    IContribution public contributionsContract;\n    IRecords public recordsContract;\n    ITreasuryCore private treasuryCoreContract;\n\n    constructor(\n        address _tracksContract,\n        address _contributionsContract,\n        address _recordsContract,\n        address _treasuryCoreContract\n    ) {\n        tracksContract = ITracks(_tracksContract);\n        contributionsContract = IContribution(_contributionsContract);\n        recordsContract = IRecords(_recordsContract);\n        treasuryCoreContract = ITreasuryCore(_treasuryCoreContract);\n    }\n\n    /// @notice This function is created to make the record creation flow simpler, this function takes all the required\n    /// arguments which are needed to create a new record, that includes the tracks data, contribution data, record data and tokens data\n    /// it make serial calls to the other contracts that are individually responsible for creation of tracks,\n    /// seed contribution, record and new tokens.\n    /// @param tracksPayload Data required to create tracks\n    /// @param payload Data required to create seed contributions\n    /// @param recordPayload Data required to create record\n    /// @param govTokenData Data required to create a governance token\n    /// @param commTokenData Data required to create a community token\n    function setupNewRecord(\n        ITracks.TrackPayload[] memory tracksPayload,\n        IContribution.SeedContributionPayload memory payload,\n        IRecords.NewRecordPayload memory recordPayload,\n        ITreasuryCore.NewTokenData memory govTokenData,\n        ITreasuryCore.NewTokenData memory commTokenData,\n        address payable platformWallet,\n        uint256 platformFee\n    ) public payable {\n        {\n            if (msg.value > 0) {\n                platformWallet.call{value: platformFee}(\"\");\n            }\n        }\n        {\n            bool isSymbolInUse = treasuryCoreContract.commTokenSym(\n                commTokenData.symbol\n            );\n            require(\n                isSymbolInUse == false,\n                \"INVALID: COMM_TOKEN_SYMBOL_ALREADY_IN_USE\"\n            );\n\n            isSymbolInUse = treasuryCoreContract.govTokenSym(\n                govTokenData.symbol\n            );\n            require(\n                isSymbolInUse == false,\n                \"INVALID: GOV_TOKEN_SYMBOL_ALREADY_IN_USE\"\n            );\n        }\n        uint256[] memory trackIds = tracksContract.createNewTracks(\n            tracksPayload\n        );\n        payload.tracks = trackIds;\n        uint256 contributionId = contributionsContract\n            .controllerCreateSeedContribution(payload, msg.sender);\n        recordPayload.seedId = contributionId;\n        uint256 recordId = recordsContract.controllerCreateNewRecord(\n            recordPayload,\n            msg.sender\n        );\n        govTokenData.recordId = recordId;\n        uint256 govTokenId = treasuryCoreContract.createNewGovernanceToken(\n            govTokenData,\n            msg.sender\n        );\n        commTokenData.recordId = recordId;\n        uint256 commTokenId = treasuryCoreContract.createNewCommunityToken(\n            commTokenData,\n            msg.sender\n        );\n\n        {\n            emit setupNewRecordCalled(\n                msg.sender,\n                trackIds,\n                contributionId,\n                recordId,\n                govTokenId,\n                commTokenId\n            );\n        }\n    }\n}\n",
  "sourcePath": "/Users/a1/Desktop/Office/projects/CrowdRecords/Contracts/contracts/ControllerContract.sol",
  "compiler": {
    "name": "solc",
    "version": "0.8.12+commit.f00d7308.Emscripten.clang"
  },
  "schemaVersion": "3.4.6",
  "updatedAt": "2023-05-17T05:46:17.517Z",
  "networkType": "ethereum",
  "devdoc": {
    "kind": "dev",
    "methods": {
      "setupNewRecord((string,string,string)[],(uint256[],string,string,string,string),(string,string,string,uint256),(uint256,uint256,uint256,string,string),(uint256,uint256,uint256,string,string),address,uint256)": {
        "params": {
          "commTokenData": "Data required to create a community token",
          "govTokenData": "Data required to create a governance token",
          "payload": "Data required to create seed contributions",
          "recordPayload": "Data required to create record",
          "tracksPayload": "Data required to create tracks"
        }
      }
    },
    "version": 1
  },
  "userdoc": {
    "kind": "user",
    "methods": {
      "setupNewRecord((string,string,string)[],(uint256[],string,string,string,string),(string,string,string,uint256),(uint256,uint256,uint256,string,string),(uint256,uint256,uint256,string,string),address,uint256)": {
        "notice": "This function is created to make the record creation flow simpler, this function takes all the required arguments which are needed to create a new record, that includes the tracks data, contribution data, record data and tokens data it make serial calls to the other contracts that are individually responsible for creation of tracks, seed contribution, record and new tokens."
      }
    },
    "version": 1
  }
}