{
  "contractName": "ContributionContract",
  "abi": [
    {
      "inputs": [],
      "stateMutability": "nonpayable",
      "type": "constructor"
    },
    {
      "anonymous": false,
      "inputs": [
        {
          "indexed": true,
          "internalType": "address",
          "name": "owner",
          "type": "address"
        },
        {
          "indexed": true,
          "internalType": "address",
          "name": "approved",
          "type": "address"
        },
        {
          "indexed": true,
          "internalType": "uint256",
          "name": "tokenId",
          "type": "uint256"
        }
      ],
      "name": "Approval",
      "type": "event"
    },
    {
      "anonymous": false,
      "inputs": [
        {
          "indexed": true,
          "internalType": "address",
          "name": "owner",
          "type": "address"
        },
        {
          "indexed": true,
          "internalType": "address",
          "name": "operator",
          "type": "address"
        },
        {
          "indexed": false,
          "internalType": "bool",
          "name": "approved",
          "type": "bool"
        }
      ],
      "name": "ApprovalForAll",
      "type": "event"
    },
    {
      "anonymous": false,
      "inputs": [
        {
          "indexed": false,
          "internalType": "uint256",
          "name": "contributionId",
          "type": "uint256"
        },
        {
          "indexed": false,
          "internalType": "uint256[]",
          "name": "tracks",
          "type": "uint256[]"
        },
        {
          "indexed": false,
          "internalType": "uint256",
          "name": "createdAt",
          "type": "uint256"
        },
        {
          "indexed": false,
          "internalType": "string",
          "name": "previewFile",
          "type": "string"
        },
        {
          "indexed": false,
          "internalType": "string",
          "name": "previewFileHash",
          "type": "string"
        },
        {
          "indexed": false,
          "internalType": "uint256",
          "name": "recordId",
          "type": "uint256"
        },
        {
          "indexed": false,
          "internalType": "bool",
          "name": "seedContribution",
          "type": "bool"
        },
        {
          "indexed": false,
          "internalType": "bool",
          "name": "roughMix",
          "type": "bool"
        },
        {
          "indexed": false,
          "internalType": "uint256",
          "name": "status",
          "type": "uint256"
        },
        {
          "indexed": false,
          "internalType": "string",
          "name": "description",
          "type": "string"
        }
      ],
      "name": "ContributionCreated",
      "type": "event"
    },
    {
      "anonymous": false,
      "inputs": [
        {
          "indexed": true,
          "internalType": "address",
          "name": "from",
          "type": "address"
        },
        {
          "indexed": true,
          "internalType": "address",
          "name": "to",
          "type": "address"
        },
        {
          "indexed": true,
          "internalType": "uint256",
          "name": "tokenId",
          "type": "uint256"
        }
      ],
      "name": "Transfer",
      "type": "event"
    },
    {
      "inputs": [],
      "name": "CONTRIBUTION_VOTING_CONTRACT_ADDRESS",
      "outputs": [
        {
          "internalType": "address",
          "name": "",
          "type": "address"
        }
      ],
      "stateMutability": "view",
      "type": "function"
    },
    {
      "inputs": [
        {
          "internalType": "address",
          "name": "to",
          "type": "address"
        },
        {
          "internalType": "uint256",
          "name": "tokenId",
          "type": "uint256"
        }
      ],
      "name": "approve",
      "outputs": [],
      "stateMutability": "nonpayable",
      "type": "function"
    },
    {
      "inputs": [
        {
          "internalType": "address",
          "name": "owner",
          "type": "address"
        }
      ],
      "name": "balanceOf",
      "outputs": [
        {
          "internalType": "uint256",
          "name": "",
          "type": "uint256"
        }
      ],
      "stateMutability": "view",
      "type": "function"
    },
    {
      "inputs": [
        {
          "internalType": "uint256",
          "name": "",
          "type": "uint256"
        }
      ],
      "name": "contributionData",
      "outputs": [
        {
          "internalType": "uint256",
          "name": "createdAt",
          "type": "uint256"
        },
        {
          "internalType": "string",
          "name": "previewFile",
          "type": "string"
        },
        {
          "internalType": "string",
          "name": "previewFileHash",
          "type": "string"
        },
        {
          "internalType": "uint256",
          "name": "recordId",
          "type": "uint256"
        },
        {
          "internalType": "bool",
          "name": "seedContribution",
          "type": "bool"
        },
        {
          "internalType": "bool",
          "name": "roughMix",
          "type": "bool"
        },
        {
          "internalType": "uint256",
          "name": "status",
          "type": "uint256"
        },
        {
          "internalType": "string",
          "name": "description",
          "type": "string"
        },
        {
          "internalType": "bool",
          "name": "isPresent",
          "type": "bool"
        }
      ],
      "stateMutability": "view",
      "type": "function"
    },
    {
      "inputs": [
        {
          "internalType": "uint256",
          "name": "tokenId",
          "type": "uint256"
        }
      ],
      "name": "getApproved",
      "outputs": [
        {
          "internalType": "address",
          "name": "",
          "type": "address"
        }
      ],
      "stateMutability": "view",
      "type": "function"
    },
    {
      "inputs": [
        {
          "internalType": "address",
          "name": "owner",
          "type": "address"
        },
        {
          "internalType": "address",
          "name": "operator",
          "type": "address"
        }
      ],
      "name": "isApprovedForAll",
      "outputs": [
        {
          "internalType": "bool",
          "name": "",
          "type": "bool"
        }
      ],
      "stateMutability": "view",
      "type": "function"
    },
    {
      "inputs": [],
      "name": "name",
      "outputs": [
        {
          "internalType": "string",
          "name": "",
          "type": "string"
        }
      ],
      "stateMutability": "view",
      "type": "function"
    },
    {
      "inputs": [
        {
          "internalType": "uint256",
          "name": "tokenId",
          "type": "uint256"
        }
      ],
      "name": "ownerOf",
      "outputs": [
        {
          "internalType": "address",
          "name": "",
          "type": "address"
        }
      ],
      "stateMutability": "view",
      "type": "function"
    },
    {
      "inputs": [
        {
          "internalType": "address",
          "name": "from",
          "type": "address"
        },
        {
          "internalType": "address",
          "name": "to",
          "type": "address"
        },
        {
          "internalType": "uint256",
          "name": "tokenId",
          "type": "uint256"
        }
      ],
      "name": "safeTransferFrom",
      "outputs": [],
      "stateMutability": "nonpayable",
      "type": "function"
    },
    {
      "inputs": [
        {
          "internalType": "address",
          "name": "from",
          "type": "address"
        },
        {
          "internalType": "address",
          "name": "to",
          "type": "address"
        },
        {
          "internalType": "uint256",
          "name": "tokenId",
          "type": "uint256"
        },
        {
          "internalType": "bytes",
          "name": "_data",
          "type": "bytes"
        }
      ],
      "name": "safeTransferFrom",
      "outputs": [],
      "stateMutability": "nonpayable",
      "type": "function"
    },
    {
      "inputs": [
        {
          "internalType": "address",
          "name": "operator",
          "type": "address"
        },
        {
          "internalType": "bool",
          "name": "approved",
          "type": "bool"
        }
      ],
      "name": "setApprovalForAll",
      "outputs": [],
      "stateMutability": "nonpayable",
      "type": "function"
    },
    {
      "inputs": [
        {
          "internalType": "bytes4",
          "name": "interfaceId",
          "type": "bytes4"
        }
      ],
      "name": "supportsInterface",
      "outputs": [
        {
          "internalType": "bool",
          "name": "",
          "type": "bool"
        }
      ],
      "stateMutability": "view",
      "type": "function"
    },
    {
      "inputs": [],
      "name": "symbol",
      "outputs": [
        {
          "internalType": "string",
          "name": "",
          "type": "string"
        }
      ],
      "stateMutability": "view",
      "type": "function"
    },
    {
      "inputs": [
        {
          "internalType": "uint256",
          "name": "tokenId",
          "type": "uint256"
        }
      ],
      "name": "tokenURI",
      "outputs": [
        {
          "internalType": "string",
          "name": "",
          "type": "string"
        }
      ],
      "stateMutability": "view",
      "type": "function"
    },
    {
      "inputs": [
        {
          "internalType": "address",
          "name": "from",
          "type": "address"
        },
        {
          "internalType": "address",
          "name": "to",
          "type": "address"
        },
        {
          "internalType": "uint256",
          "name": "tokenId",
          "type": "uint256"
        }
      ],
      "name": "transferFrom",
      "outputs": [],
      "stateMutability": "nonpayable",
      "type": "function"
    },
    {
      "inputs": [
        {
          "internalType": "address",
          "name": "newVotingContractAddress",
          "type": "address"
        }
      ],
      "name": "setContributionVotingContractAddress",
      "outputs": [],
      "stateMutability": "nonpayable",
      "type": "function"
    },
    {
      "inputs": [
        {
          "internalType": "uint256",
          "name": "contributionId",
          "type": "uint256"
        }
      ],
      "name": "getContributionData",
      "outputs": [
        {
          "components": [
            {
              "internalType": "uint256[]",
              "name": "tracks",
              "type": "uint256[]"
            },
            {
              "internalType": "uint256",
              "name": "createdAt",
              "type": "uint256"
            },
            {
              "internalType": "string",
              "name": "previewFile",
              "type": "string"
            },
            {
              "internalType": "string",
              "name": "previewFileHash",
              "type": "string"
            },
            {
              "internalType": "uint256",
              "name": "recordId",
              "type": "uint256"
            },
            {
              "internalType": "bool",
              "name": "seedContribution",
              "type": "bool"
            },
            {
              "internalType": "bool",
              "name": "roughMix",
              "type": "bool"
            },
            {
              "internalType": "uint256",
              "name": "status",
              "type": "uint256"
            },
            {
              "internalType": "string",
              "name": "description",
              "type": "string"
            },
            {
              "internalType": "bool",
              "name": "isPresent",
              "type": "bool"
            }
          ],
          "internalType": "struct ContributionContract.Contribution",
          "name": "contribution",
          "type": "tuple"
        }
      ],
      "stateMutability": "view",
      "type": "function"
    },
    {
      "inputs": [
        {
          "internalType": "uint256[]",
          "name": "tracks",
          "type": "uint256[]"
        },
        {
          "internalType": "string",
          "name": "previewFile",
          "type": "string"
        },
        {
          "internalType": "string",
          "name": "previewFileHash",
          "type": "string"
        },
        {
          "internalType": "uint256",
          "name": "recordId",
          "type": "uint256"
        },
        {
          "internalType": "bool",
          "name": "roughMix",
          "type": "bool"
        },
        {
          "internalType": "string",
          "name": "description",
          "type": "string"
        },
        {
          "internalType": "uint256",
          "name": "communityReward",
          "type": "uint256"
        },
        {
          "internalType": "uint256",
          "name": "governanceReward",
          "type": "uint256"
        }
      ],
      "name": "createNewContribution",
      "outputs": [
        {
          "internalType": "uint256",
          "name": "",
          "type": "uint256"
        }
      ],
      "stateMutability": "nonpayable",
      "type": "function"
    },
    {
      "inputs": [
        {
          "internalType": "uint256[]",
          "name": "tracks",
          "type": "uint256[]"
        },
        {
          "internalType": "string",
          "name": "previewFile",
          "type": "string"
        },
        {
          "internalType": "string",
          "name": "previewFileHash",
          "type": "string"
        },
        {
          "internalType": "string",
          "name": "description",
          "type": "string"
        }
      ],
      "name": "createSeedContribution",
      "outputs": [
        {
          "internalType": "uint256",
          "name": "",
          "type": "uint256"
        }
      ],
      "stateMutability": "nonpayable",
      "type": "function"
    }
  ],
  "bytecode": "0x60806040523480156200001157600080fd5b506040518060400160405280600d81526020017f436f6e747269627574696f6e73000000000000000000000000000000000000008152506040518060400160405280600481526020017f4354524200000000000000000000000000000000000000000000000000000000815250816000908051906020019062000096929190620000f9565b508060019080519060200190620000af929190620000f9565b50505033600760006101000a81548173ffffffffffffffffffffffffffffffffffffffff021916908373ffffffffffffffffffffffffffffffffffffffff1602179055506200020e565b8280546200010790620001d8565b90600052602060002090601f0160209004810192826200012b576000855562000177565b82601f106200014657805160ff191683800117855562000177565b8280016001018555821562000177579182015b828111156200017657825182559160200191906001019062000159565b5b5090506200018691906200018a565b5090565b5b80821115620001a55760008160009055506001016200018b565b5090565b7f4e487b7100000000000000000000000000000000000000000000000000000000600052602260045260246000fd5b60006002820490506001821680620001f157607f821691505b60208210811415620002085762000207620001a9565b5b50919050565b613bcb806200021e6000396000f3fe608060405234801561001057600080fd5b50600436106101215760003560e01c80636352211e116100ad578063a22cb46511610071578063a22cb4651461035a578063af67076914610376578063b88d4fde14610394578063c87b56dd146103b0578063e985e9c5146103e057610121565b80636352211e1461027c57806365585fde146102ac57806370a08231146102dc5780637ddba7871461030c57806395d89b411461033c57610121565b80630ade4dbd116100f45780630ade4dbd146101c057806323374b9d146101f857806323b872dd1461022857806342842e0e146102445780636055c8551461026057610121565b806301ffc9a71461012657806306fdde0314610156578063081812fc14610174578063095ea7b3146101a4575b600080fd5b610140600480360381019061013b9190612320565b610410565b60405161014d9190612368565b60405180910390f35b61015e6104f2565b60405161016b919061241c565b60405180910390f35b61018e60048036038101906101899190612474565b610584565b60405161019b91906124e2565b60405180910390f35b6101be60048036038101906101b99190612529565b610609565b005b6101da60048036038101906101d59190612474565b610721565b6040516101ef99989796959493929190612578565b60405180910390f35b610212600480360381019061020d9190612474565b61092e565b60405161021f9190612820565b60405180910390f35b610242600480360381019061023d9190612842565b610bd9565b005b61025e60048036038101906102599190612842565b610c39565b005b61027a60048036038101906102759190612895565b610c59565b005b61029660048036038101906102919190612474565b610d2d565b6040516102a391906124e2565b60405180910390f35b6102c660048036038101906102c19190612aeb565b610ddf565b6040516102d39190612c11565b60405180910390f35b6102f660048036038101906102f19190612895565b611079565b6040516103039190612c11565b60405180910390f35b61032660048036038101906103219190612c2c565b611131565b6040516103339190612c11565b60405180910390f35b610344611330565b604051610351919061241c565b60405180910390f35b610374600480360381019061036f9190612d03565b6113c2565b005b61037e6113d8565b60405161038b91906124e2565b60405180910390f35b6103ae60048036038101906103a99190612de4565b6113fe565b005b6103ca60048036038101906103c59190612474565b611460565b6040516103d7919061241c565b60405180910390f35b6103fa60048036038101906103f59190612e67565b611507565b6040516104079190612368565b60405180910390f35b60007f80ac58cd000000000000000000000000000000000000000000000000000000007bffffffffffffffffffffffffffffffffffffffffffffffffffffffff1916827bffffffffffffffffffffffffffffffffffffffffffffffffffffffff191614806104db57507f5b5e139f000000000000000000000000000000000000000000000000000000007bffffffffffffffffffffffffffffffffffffffffffffffffffffffff1916827bffffffffffffffffffffffffffffffffffffffffffffffffffffffff1916145b806104eb57506104ea8261159b565b5b9050919050565b60606000805461050190612ed6565b80601f016020809104026020016040519081016040528092919081815260200182805461052d90612ed6565b801561057a5780601f1061054f5761010080835404028352916020019161057a565b820191906000526020600020905b81548152906001019060200180831161055d57829003601f168201915b5050505050905090565b600061058f82611605565b6105ce576040517f08c379a00000000000000000000000000000000000000000000000000000000081526004016105c590612f7a565b60405180910390fd5b6004600083815260200190815260200160002060009054906101000a900473ffffffffffffffffffffffffffffffffffffffff169050919050565b600061061482610d2d565b90508073ffffffffffffffffffffffffffffffffffffffff168373ffffffffffffffffffffffffffffffffffffffff161415610685576040517f08c379a000000000000000000000000000000000000000000000000000000000815260040161067c9061300c565b60405180910390fd5b8073ffffffffffffffffffffffffffffffffffffffff166106a4611671565b73ffffffffffffffffffffffffffffffffffffffff1614806106d357506106d2816106cd611671565b611507565b5b610712576040517f08c379a00000000000000000000000000000000000000000000000000000000081526004016107099061309e565b60405180910390fd5b61071c8383611679565b505050565b600960205280600052604060002060009150905080600101549080600201805461074a90612ed6565b80601f016020809104026020016040519081016040528092919081815260200182805461077690612ed6565b80156107c35780601f10610798576101008083540402835291602001916107c3565b820191906000526020600020905b8154815290600101906020018083116107a657829003601f168201915b5050505050908060030180546107d890612ed6565b80601f016020809104026020016040519081016040528092919081815260200182805461080490612ed6565b80156108515780601f1061082657610100808354040283529160200191610851565b820191906000526020600020905b81548152906001019060200180831161083457829003601f168201915b5050505050908060040154908060050160009054906101000a900460ff16908060050160019054906101000a900460ff169080600601549080600701805461089890612ed6565b80601f01602080910402602001604051908101604052809291908181526020018280546108c490612ed6565b80156109115780601f106108e657610100808354040283529160200191610911565b820191906000526020600020905b8154815290600101906020018083116108f457829003601f168201915b5050505050908060080160009054906101000a900460ff16905089565b61093661216b565b6009600083815260200190815260200160002060405180610140016040529081600082018054806020026020016040519081016040528092919081815260200182805480156109a457602002820191906000526020600020905b815481526020019060010190808311610990575b50505050508152602001600182015481526020016002820180546109c790612ed6565b80601f01602080910402602001604051908101604052809291908181526020018280546109f390612ed6565b8015610a405780601f10610a1557610100808354040283529160200191610a40565b820191906000526020600020905b815481529060010190602001808311610a2357829003601f168201915b50505050508152602001600382018054610a5990612ed6565b80601f0160208091040260200160405190810160405280929190818152602001828054610a8590612ed6565b8015610ad25780601f10610aa757610100808354040283529160200191610ad2565b820191906000526020600020905b815481529060010190602001808311610ab557829003601f168201915b50505050508152602001600482015481526020016005820160009054906101000a900460ff161515151581526020016005820160019054906101000a900460ff1615151515815260200160068201548152602001600782018054610b3590612ed6565b80601f0160208091040260200160405190810160405280929190818152602001828054610b6190612ed6565b8015610bae5780601f10610b8357610100808354040283529160200191610bae565b820191906000526020600020905b815481529060010190602001808311610b9157829003601f168201915b505050505081526020016008820160009054906101000a900460ff1615151515815250509050919050565b610bea610be4611671565b82611732565b610c29576040517f08c379a0000000000000000000000000000000000000000000000000000000008152600401610c2090613130565b60405180910390fd5b610c34838383611810565b505050565b610c54838383604051806020016040528060008152506113fe565b505050565b600760009054906101000a900473ffffffffffffffffffffffffffffffffffffffff1673ffffffffffffffffffffffffffffffffffffffff163373ffffffffffffffffffffffffffffffffffffffff1614610ce9576040517f08c379a0000000000000000000000000000000000000000000000000000000008152600401610ce0906131c2565b60405180910390fd5b80600860006101000a81548173ffffffffffffffffffffffffffffffffffffffff021916908373ffffffffffffffffffffffffffffffffffffffff16021790555050565b6000806002600084815260200190815260200160002060009054906101000a900473ffffffffffffffffffffffffffffffffffffffff169050600073ffffffffffffffffffffffffffffffffffffffff168173ffffffffffffffffffffffffffffffffffffffff161415610dd6576040517f08c379a0000000000000000000000000000000000000000000000000000000008152600401610dcd90613254565b60405180910390fd5b80915050919050565b6000610deb6006611a77565b6000610df76006611a8d565b9050610e033382611a9b565b6000600860009054906101000a900473ffffffffffffffffffffffffffffffffffffffff1690508073ffffffffffffffffffffffffffffffffffffffff16630d76a882838a87896040518563ffffffff1660e01b8152600401610e699493929190613274565b600060405180830381600087803b158015610e8357600080fd5b505af1158015610e97573d6000803e3d6000fd5b5050505060006040518061014001604052808d81526020014281526020018c81526020018b81526020018a815260200160001515815260200189151581526020016001815260200188815260200160011515815250905080600960008581526020019081526020016000206000820151816000019080519060200190610f1e9291906121c4565b50602082015181600101556040820151816002019080519060200190610f45929190612211565b506060820151816003019080519060200190610f62929190612211565b506080820151816004015560a08201518160050160006101000a81548160ff02191690831515021790555060c08201518160050160016101000a81548160ff02191690831515021790555060e08201518160060155610100820151816007019080519060200190610fd4929190612211565b506101208201518160080160006101000a81548160ff0219169083151502179055509050507f0e40c7fe023d0c99af50ae99427db622223defe0991c758cf528d1b4e74c6cab83826000015183602001518460400151856060015186608001518760a001518860c001518960e001518a610100015160405161105f9a99989796959493929190613328565b60405180910390a182935050505098975050505050505050565b60008073ffffffffffffffffffffffffffffffffffffffff168273ffffffffffffffffffffffffffffffffffffffff1614156110ea576040517f08c379a00000000000000000000000000000000000000000000000000000000081526004016110e190613452565b60405180910390fd5b600360008373ffffffffffffffffffffffffffffffffffffffff1673ffffffffffffffffffffffffffffffffffffffff168152602001908152602001600020549050919050565b600061113d6006611a77565b60006111496006611a8d565b90506111553382611a9b565b60006040518061014001604052808881526020014281526020018781526020018681526020016000815260200160011515815260200160001515815260200160028152602001858152602001600115158152509050806009600084815260200190815260200160002060008201518160000190805190602001906111da9291906121c4565b50602082015181600101556040820151816002019080519060200190611201929190612211565b50606082015181600301908051906020019061121e929190612211565b506080820151816004015560a08201518160050160006101000a81548160ff02191690831515021790555060c08201518160050160016101000a81548160ff02191690831515021790555060e08201518160060155610100820151816007019080519060200190611290929190612211565b506101208201518160080160006101000a81548160ff0219169083151502179055509050507f0e40c7fe023d0c99af50ae99427db622223defe0991c758cf528d1b4e74c6cab82826000015183602001518460400151856060015186608001518760a001518860c001518960e001518a610100015160405161131b9a99989796959493929190613328565b60405180910390a18192505050949350505050565b60606001805461133f90612ed6565b80601f016020809104026020016040519081016040528092919081815260200182805461136b90612ed6565b80156113b85780601f1061138d576101008083540402835291602001916113b8565b820191906000526020600020905b81548152906001019060200180831161139b57829003601f168201915b5050505050905090565b6113d46113cd611671565b8383611c75565b5050565b600860009054906101000a900473ffffffffffffffffffffffffffffffffffffffff1681565b61140f611409611671565b83611732565b61144e576040517f08c379a000000000000000000000000000000000000000000000000000000000815260040161144590613130565b60405180910390fd5b61145a84848484611de2565b50505050565b606061146b82611605565b6114aa576040517f08c379a00000000000000000000000000000000000000000000000000000000081526004016114a1906134e4565b60405180910390fd5b60006114b4611e3e565b905060008151116114d457604051806020016040528060008152506114ff565b806114de84611e55565b6040516020016114ef929190613540565b6040516020818303038152906040525b915050919050565b6000600560008473ffffffffffffffffffffffffffffffffffffffff1673ffffffffffffffffffffffffffffffffffffffff16815260200190815260200160002060008373ffffffffffffffffffffffffffffffffffffffff1673ffffffffffffffffffffffffffffffffffffffff16815260200190815260200160002060009054906101000a900460ff16905092915050565b60007f01ffc9a7000000000000000000000000000000000000000000000000000000007bffffffffffffffffffffffffffffffffffffffffffffffffffffffff1916827bffffffffffffffffffffffffffffffffffffffffffffffffffffffff1916149050919050565b60008073ffffffffffffffffffffffffffffffffffffffff166002600084815260200190815260200160002060009054906101000a900473ffffffffffffffffffffffffffffffffffffffff1673ffffffffffffffffffffffffffffffffffffffff1614159050919050565b600033905090565b816004600083815260200190815260200160002060006101000a81548173ffffffffffffffffffffffffffffffffffffffff021916908373ffffffffffffffffffffffffffffffffffffffff160217905550808273ffffffffffffffffffffffffffffffffffffffff166116ec83610d2d565b73ffffffffffffffffffffffffffffffffffffffff167f8c5be1e5ebec7d5bd14f71427d1e84f3dd0314c0f7b2291e5b200ac8c7c3b92560405160405180910390a45050565b600061173d82611605565b61177c576040517f08c379a0000000000000000000000000000000000000000000000000000000008152600401611773906135d6565b60405180910390fd5b600061178783610d2d565b90508073ffffffffffffffffffffffffffffffffffffffff168473ffffffffffffffffffffffffffffffffffffffff1614806117f657508373ffffffffffffffffffffffffffffffffffffffff166117de84610584565b73ffffffffffffffffffffffffffffffffffffffff16145b8061180757506118068185611507565b5b91505092915050565b8273ffffffffffffffffffffffffffffffffffffffff1661183082610d2d565b73ffffffffffffffffffffffffffffffffffffffff1614611886576040517f08c379a000000000000000000000000000000000000000000000000000000000815260040161187d90613668565b60405180910390fd5b600073ffffffffffffffffffffffffffffffffffffffff168273ffffffffffffffffffffffffffffffffffffffff1614156118f6576040517f08c379a00000000000000000000000000000000000000000000000000000000081526004016118ed906136fa565b60405180910390fd5b611901838383611fb6565b61190c600082611679565b6001600360008573ffffffffffffffffffffffffffffffffffffffff1673ffffffffffffffffffffffffffffffffffffffff168152602001908152602001600020600082825461195c9190613749565b925050819055506001600360008473ffffffffffffffffffffffffffffffffffffffff1673ffffffffffffffffffffffffffffffffffffffff16815260200190815260200160002060008282546119b3919061377d565b92505081905550816002600083815260200190815260200160002060006101000a81548173ffffffffffffffffffffffffffffffffffffffff021916908373ffffffffffffffffffffffffffffffffffffffff160217905550808273ffffffffffffffffffffffffffffffffffffffff168473ffffffffffffffffffffffffffffffffffffffff167fddf252ad1be2c89b69c2b068fc378daa952ba7f163c4a11628f55a4df523b3ef60405160405180910390a4611a72838383611fbb565b505050565b6001816000016000828254019250508190555050565b600081600001549050919050565b600073ffffffffffffffffffffffffffffffffffffffff168273ffffffffffffffffffffffffffffffffffffffff161415611b0b576040517f08c379a0000000000000000000000000000000000000000000000000000000008152600401611b029061381f565b60405180910390fd5b611b1481611605565b15611b54576040517f08c379a0000000000000000000000000000000000000000000000000000000008152600401611b4b9061388b565b60405180910390fd5b611b6060008383611fb6565b6001600360008473ffffffffffffffffffffffffffffffffffffffff1673ffffffffffffffffffffffffffffffffffffffff1681526020019081526020016000206000828254611bb0919061377d565b92505081905550816002600083815260200190815260200160002060006101000a81548173ffffffffffffffffffffffffffffffffffffffff021916908373ffffffffffffffffffffffffffffffffffffffff160217905550808273ffffffffffffffffffffffffffffffffffffffff16600073ffffffffffffffffffffffffffffffffffffffff167fddf252ad1be2c89b69c2b068fc378daa952ba7f163c4a11628f55a4df523b3ef60405160405180910390a4611c7160008383611fbb565b5050565b8173ffffffffffffffffffffffffffffffffffffffff168373ffffffffffffffffffffffffffffffffffffffff161415611ce4576040517f08c379a0000000000000000000000000000000000000000000000000000000008152600401611cdb906138f7565b60405180910390fd5b80600560008573ffffffffffffffffffffffffffffffffffffffff1673ffffffffffffffffffffffffffffffffffffffff16815260200190815260200160002060008473ffffffffffffffffffffffffffffffffffffffff1673ffffffffffffffffffffffffffffffffffffffff16815260200190815260200160002060006101000a81548160ff0219169083151502179055508173ffffffffffffffffffffffffffffffffffffffff168373ffffffffffffffffffffffffffffffffffffffff167f17307eab39ab6107e8899845ad3d59bd9653f200f220920489ca2b5937696c3183604051611dd59190612368565b60405180910390a3505050565b611ded848484611810565b611df984848484611fc0565b611e38576040517f08c379a0000000000000000000000000000000000000000000000000000000008152600401611e2f90613989565b60405180910390fd5b50505050565b606060405180602001604052806000815250905090565b60606000821415611e9d576040518060400160405280600181526020017f30000000000000000000000000000000000000000000000000000000000000008152509050611fb1565b600082905060005b60008214611ecf578080611eb8906139a9565b915050600a82611ec89190613a21565b9150611ea5565b60008167ffffffffffffffff811115611eeb57611eea6128c7565b5b6040519080825280601f01601f191660200182016040528015611f1d5781602001600182028036833780820191505090505b5090505b60008514611faa57600182611f369190613749565b9150600a85611f459190613a52565b6030611f51919061377d565b60f81b818381518110611f6757611f66613a83565b5b60200101907effffffffffffffffffffffffffffffffffffffffffffffffffffffffffffff1916908160001a905350600a85611fa39190613a21565b9450611f21565b8093505050505b919050565b505050565b505050565b6000611fe18473ffffffffffffffffffffffffffffffffffffffff16612148565b1561213b578373ffffffffffffffffffffffffffffffffffffffff1663150b7a0261200a611671565b8786866040518563ffffffff1660e01b815260040161202c9493929190613b07565b6020604051808303816000875af192505050801561206857506040513d601f19601f820116820180604052508101906120659190613b68565b60015b6120eb573d8060008114612098576040519150601f19603f3d011682016040523d82523d6000602084013e61209d565b606091505b506000815114156120e3576040517f08c379a00000000000000000000000000000000000000000000000000000000081526004016120da90613989565b60405180910390fd5b805181602001fd5b63150b7a0260e01b7bffffffffffffffffffffffffffffffffffffffffffffffffffffffff1916817bffffffffffffffffffffffffffffffffffffffffffffffffffffffff191614915050612140565b600190505b949350505050565b6000808273ffffffffffffffffffffffffffffffffffffffff163b119050919050565b604051806101400160405280606081526020016000815260200160608152602001606081526020016000815260200160001515815260200160001515815260200160008152602001606081526020016000151581525090565b828054828255906000526020600020908101928215612200579160200282015b828111156121ff5782518255916020019190600101906121e4565b5b50905061220d9190612297565b5090565b82805461221d90612ed6565b90600052602060002090601f01602090048101928261223f5760008555612286565b82601f1061225857805160ff1916838001178555612286565b82800160010185558215612286579182015b8281111561228557825182559160200191906001019061226a565b5b5090506122939190612297565b5090565b5b808211156122b0576000816000905550600101612298565b5090565b6000604051905090565b600080fd5b600080fd5b60007fffffffff0000000000000000000000000000000000000000000000000000000082169050919050565b6122fd816122c8565b811461230857600080fd5b50565b60008135905061231a816122f4565b92915050565b600060208284031215612336576123356122be565b5b60006123448482850161230b565b91505092915050565b60008115159050919050565b6123628161234d565b82525050565b600060208201905061237d6000830184612359565b92915050565b600081519050919050565b600082825260208201905092915050565b60005b838110156123bd5780820151818401526020810190506123a2565b838111156123cc576000848401525b50505050565b6000601f19601f8301169050919050565b60006123ee82612383565b6123f8818561238e565b935061240881856020860161239f565b612411816123d2565b840191505092915050565b6000602082019050818103600083015261243681846123e3565b905092915050565b6000819050919050565b6124518161243e565b811461245c57600080fd5b50565b60008135905061246e81612448565b92915050565b60006020828403121561248a576124896122be565b5b60006124988482850161245f565b91505092915050565b600073ffffffffffffffffffffffffffffffffffffffff82169050919050565b60006124cc826124a1565b9050919050565b6124dc816124c1565b82525050565b60006020820190506124f760008301846124d3565b92915050565b612506816124c1565b811461251157600080fd5b50565b600081359050612523816124fd565b92915050565b600080604083850312156125405761253f6122be565b5b600061254e85828601612514565b925050602061255f8582860161245f565b9150509250929050565b6125728161243e565b82525050565b60006101208201905061258e600083018c612569565b81810360208301526125a0818b6123e3565b905081810360408301526125b4818a6123e3565b90506125c36060830189612569565b6125d06080830188612359565b6125dd60a0830187612359565b6125ea60c0830186612569565b81810360e08301526125fc81856123e3565b905061260c610100830184612359565b9a9950505050505050505050565b600081519050919050565b600082825260208201905092915050565b6000819050602082019050919050565b61264f8161243e565b82525050565b60006126618383612646565b60208301905092915050565b6000602082019050919050565b60006126858261261a565b61268f8185612625565b935061269a83612636565b8060005b838110156126cb5781516126b28882612655565b97506126bd8361266d565b92505060018101905061269e565b5085935050505092915050565b600082825260208201905092915050565b60006126f482612383565b6126fe81856126d8565b935061270e81856020860161239f565b612717816123d2565b840191505092915050565b61272b8161234d565b82525050565b600061014083016000830151848203600086015261274f828261267a565b91505060208301516127646020860182612646565b506040830151848203604086015261277c82826126e9565b9150506060830151848203606086015261279682826126e9565b91505060808301516127ab6080860182612646565b5060a08301516127be60a0860182612722565b5060c08301516127d160c0860182612722565b5060e08301516127e460e0860182612646565b506101008301518482036101008601526127fe82826126e9565b915050610120830151612815610120860182612722565b508091505092915050565b6000602082019050818103600083015261283a8184612731565b905092915050565b60008060006060848603121561285b5761285a6122be565b5b600061286986828701612514565b935050602061287a86828701612514565b925050604061288b8682870161245f565b9150509250925092565b6000602082840312156128ab576128aa6122be565b5b60006128b984828501612514565b91505092915050565b600080fd5b7f4e487b7100000000000000000000000000000000000000000000000000000000600052604160045260246000fd5b6128ff826123d2565b810181811067ffffffffffffffff8211171561291e5761291d6128c7565b5b80604052505050565b60006129316122b4565b905061293d82826128f6565b919050565b600067ffffffffffffffff82111561295d5761295c6128c7565b5b602082029050602081019050919050565b600080fd5b600061298661298184612942565b612927565b905080838252602082019050602084028301858111156129a9576129a861296e565b5b835b818110156129d257806129be888261245f565b8452602084019350506020810190506129ab565b5050509392505050565b600082601f8301126129f1576129f06128c2565b5b8135612a01848260208601612973565b91505092915050565b600080fd5b600067ffffffffffffffff821115612a2a57612a296128c7565b5b612a33826123d2565b9050602081019050919050565b82818337600083830152505050565b6000612a62612a5d84612a0f565b612927565b905082815260208101848484011115612a7e57612a7d612a0a565b5b612a89848285612a40565b509392505050565b600082601f830112612aa657612aa56128c2565b5b8135612ab6848260208601612a4f565b91505092915050565b612ac88161234d565b8114612ad357600080fd5b50565b600081359050612ae581612abf565b92915050565b600080600080600080600080610100898b031215612b0c57612b0b6122be565b5b600089013567ffffffffffffffff811115612b2a57612b296122c3565b5b612b368b828c016129dc565b985050602089013567ffffffffffffffff811115612b5757612b566122c3565b5b612b638b828c01612a91565b975050604089013567ffffffffffffffff811115612b8457612b836122c3565b5b612b908b828c01612a91565b9650506060612ba18b828c0161245f565b9550506080612bb28b828c01612ad6565b94505060a089013567ffffffffffffffff811115612bd357612bd26122c3565b5b612bdf8b828c01612a91565b93505060c0612bf08b828c0161245f565b92505060e0612c018b828c0161245f565b9150509295985092959890939650565b6000602082019050612c266000830184612569565b92915050565b60008060008060808587031215612c4657612c456122be565b5b600085013567ffffffffffffffff811115612c6457612c636122c3565b5b612c70878288016129dc565b945050602085013567ffffffffffffffff811115612c9157612c906122c3565b5b612c9d87828801612a91565b935050604085013567ffffffffffffffff811115612cbe57612cbd6122c3565b5b612cca87828801612a91565b925050606085013567ffffffffffffffff811115612ceb57612cea6122c3565b5b612cf787828801612a91565b91505092959194509250565b60008060408385031215612d1a57612d196122be565b5b6000612d2885828601612514565b9250506020612d3985828601612ad6565b9150509250929050565b600067ffffffffffffffff821115612d5e57612d5d6128c7565b5b612d67826123d2565b9050602081019050919050565b6000612d87612d8284612d43565b612927565b905082815260208101848484011115612da357612da2612a0a565b5b612dae848285612a40565b509392505050565b600082601f830112612dcb57612dca6128c2565b5b8135612ddb848260208601612d74565b91505092915050565b60008060008060808587031215612dfe57612dfd6122be565b5b6000612e0c87828801612514565b9450506020612e1d87828801612514565b9350506040612e2e8782880161245f565b925050606085013567ffffffffffffffff811115612e4f57612e4e6122c3565b5b612e5b87828801612db6565b91505092959194509250565b60008060408385031215612e7e57612e7d6122be565b5b6000612e8c85828601612514565b9250506020612e9d85828601612514565b9150509250929050565b7f4e487b7100000000000000000000000000000000000000000000000000000000600052602260045260246000fd5b60006002820490506001821680612eee57607f821691505b60208210811415612f0257612f01612ea7565b5b50919050565b7f4552433732313a20617070726f76656420717565727920666f72206e6f6e657860008201527f697374656e7420746f6b656e0000000000000000000000000000000000000000602082015250565b6000612f64602c8361238e565b9150612f6f82612f08565b604082019050919050565b60006020820190508181036000830152612f9381612f57565b9050919050565b7f4552433732313a20617070726f76616c20746f2063757272656e74206f776e6560008201527f7200000000000000000000000000000000000000000000000000000000000000602082015250565b6000612ff660218361238e565b915061300182612f9a565b604082019050919050565b6000602082019050818103600083015261302581612fe9565b9050919050565b7f4552433732313a20617070726f76652063616c6c6572206973206e6f74206f7760008201527f6e6572206e6f7220617070726f76656420666f7220616c6c0000000000000000602082015250565b600061308860388361238e565b91506130938261302c565b604082019050919050565b600060208201905081810360008301526130b78161307b565b9050919050565b7f4552433732313a207472616e736665722063616c6c6572206973206e6f74206f60008201527f776e6572206e6f7220617070726f766564000000000000000000000000000000602082015250565b600061311a60318361238e565b9150613125826130be565b604082019050919050565b600060208201905081810360008301526131498161310d565b9050919050565b7f596f7520617265206e6f7420617574686f72697a656420666f7220746869732060008201527f616374696f6e0000000000000000000000000000000000000000000000000000602082015250565b60006131ac60268361238e565b91506131b782613150565b604082019050919050565b600060208201905081810360008301526131db8161319f565b9050919050565b7f4552433732313a206f776e657220717565727920666f72206e6f6e657869737460008201527f656e7420746f6b656e0000000000000000000000000000000000000000000000602082015250565b600061323e60298361238e565b9150613249826131e2565b604082019050919050565b6000602082019050818103600083015261326d81613231565b9050919050565b60006080820190506132896000830187612569565b6132966020830186612569565b6132a36040830185612569565b6132b06060830184612569565b95945050505050565b600082825260208201905092915050565b60006132d58261261a565b6132df81856132b9565b93506132ea83612636565b8060005b8381101561331b5781516133028882612655565b975061330d8361266d565b9250506001810190506132ee565b5085935050505092915050565b60006101408201905061333e600083018d612569565b8181036020830152613350818c6132ca565b905061335f604083018b612569565b8181036060830152613371818a6123e3565b9050818103608083015261338581896123e3565b905061339460a0830188612569565b6133a160c0830187612359565b6133ae60e0830186612359565b6133bc610100830185612569565b8181036101208301526133cf81846123e3565b90509b9a5050505050505050505050565b7f4552433732313a2062616c616e636520717565727920666f7220746865207a6560008201527f726f206164647265737300000000000000000000000000000000000000000000602082015250565b600061343c602a8361238e565b9150613447826133e0565b604082019050919050565b6000602082019050818103600083015261346b8161342f565b9050919050565b7f4552433732314d657461646174613a2055524920717565727920666f72206e6f60008201527f6e6578697374656e7420746f6b656e0000000000000000000000000000000000602082015250565b60006134ce602f8361238e565b91506134d982613472565b604082019050919050565b600060208201905081810360008301526134fd816134c1565b9050919050565b600081905092915050565b600061351a82612383565b6135248185613504565b935061353481856020860161239f565b80840191505092915050565b600061354c828561350f565b9150613558828461350f565b91508190509392505050565b7f4552433732313a206f70657261746f7220717565727920666f72206e6f6e657860008201527f697374656e7420746f6b656e0000000000000000000000000000000000000000602082015250565b60006135c0602c8361238e565b91506135cb82613564565b604082019050919050565b600060208201905081810360008301526135ef816135b3565b9050919050565b7f4552433732313a207472616e736665722066726f6d20696e636f72726563742060008201527f6f776e6572000000000000000000000000000000000000000000000000000000602082015250565b600061365260258361238e565b915061365d826135f6565b604082019050919050565b6000602082019050818103600083015261368181613645565b9050919050565b7f4552433732313a207472616e7366657220746f20746865207a65726f2061646460008201527f7265737300000000000000000000000000000000000000000000000000000000602082015250565b60006136e460248361238e565b91506136ef82613688565b604082019050919050565b60006020820190508181036000830152613713816136d7565b9050919050565b7f4e487b7100000000000000000000000000000000000000000000000000000000600052601160045260246000fd5b60006137548261243e565b915061375f8361243e565b9250828210156137725761377161371a565b5b828203905092915050565b60006137888261243e565b91506137938361243e565b9250827fffffffffffffffffffffffffffffffffffffffffffffffffffffffffffffffff038211156137c8576137c761371a565b5b828201905092915050565b7f4552433732313a206d696e7420746f20746865207a65726f2061646472657373600082015250565b600061380960208361238e565b9150613814826137d3565b602082019050919050565b60006020820190508181036000830152613838816137fc565b9050919050565b7f4552433732313a20746f6b656e20616c7265616479206d696e74656400000000600082015250565b6000613875601c8361238e565b91506138808261383f565b602082019050919050565b600060208201905081810360008301526138a481613868565b9050919050565b7f4552433732313a20617070726f766520746f2063616c6c657200000000000000600082015250565b60006138e160198361238e565b91506138ec826138ab565b602082019050919050565b60006020820190508181036000830152613910816138d4565b9050919050565b7f4552433732313a207472616e7366657220746f206e6f6e20455243373231526560008201527f63656976657220696d706c656d656e7465720000000000000000000000000000602082015250565b600061397360328361238e565b915061397e82613917565b604082019050919050565b600060208201905081810360008301526139a281613966565b9050919050565b60006139b48261243e565b91507fffffffffffffffffffffffffffffffffffffffffffffffffffffffffffffffff8214156139e7576139e661371a565b5b600182019050919050565b7f4e487b7100000000000000000000000000000000000000000000000000000000600052601260045260246000fd5b6000613a2c8261243e565b9150613a378361243e565b925082613a4757613a466139f2565b5b828204905092915050565b6000613a5d8261243e565b9150613a688361243e565b925082613a7857613a776139f2565b5b828206905092915050565b7f4e487b7100000000000000000000000000000000000000000000000000000000600052603260045260246000fd5b600081519050919050565b600082825260208201905092915050565b6000613ad982613ab2565b613ae38185613abd565b9350613af381856020860161239f565b613afc816123d2565b840191505092915050565b6000608082019050613b1c60008301876124d3565b613b2960208301866124d3565b613b366040830185612569565b8181036060830152613b488184613ace565b905095945050505050565b600081519050613b62816122f4565b92915050565b600060208284031215613b7e57613b7d6122be565b5b6000613b8c84828501613b53565b9150509291505056fea2646970667358221220e0ceac223b12edbe6e004ff507b81301078777498ab5938e9ce10b4510f8c76764736f6c634300080c0033",
  "immutableReferences": {},
  "source": "pragma solidity ^0.8.0;\n\nimport \"@openzeppelin/contracts/token/ERC721/ERC721.sol\";\nimport \"@openzeppelin/contracts/utils/Counters.sol\";\nimport \"@openzeppelin/contracts/access/Ownable.sol\";\nimport \"./voting/ContributionVotingContract.sol\";\n\ncontract ContributionContract is ERC721 {\n    //----------------------Contribution Related code---------------------//\n\n    using Counters for Counters.Counter;\n    Counters.Counter private _contributionIds;\n    address OWNER;\n    address public CONTRIBUTION_VOTING_CONTRACT_ADDRESS;\n\n    /**\n        @dev this is Contribution Create event this event will be emited when a new contribution is created.\n        @param contributionId it is the unique identifier for the contribution\n        @param tracks are id of the tracks that are part of this contribution, you will have to manually fetch the tracks data from trackId once you do the indexing. \n        @param createdAt createdAt is indicates the time of creation of the contribution\n        @param previewFile this is the file that contains the mix of the contribution also known as preview file\n        @param previewFileHash this is the hash of the preview file to make sure the previewFile is not temperd with \n        @param recordId this is the id of the record to which the contribution belongd to\n        @param seedContribution this flag determines if the contribution is a seed contribution or not\n        @param roughMix this flag determines if the contribution is a new contribution, with new tracks or is it just mix of all the previous tracks\n        @param status this is status of the contribution that is in PENDING or ACCEPTED or REJECTED // status (PENDING = 1 | ACCEPTED = 2| REJECTED = 3)\n        @param description the description of record that is in text format \n     */\n    event ContributionCreated(\n        uint256 contributionId,\n        uint256[] tracks,\n        uint256 createdAt,\n        string previewFile,\n        string previewFileHash,\n        uint256 recordId,\n        bool seedContribution,\n        bool roughMix,\n        uint256 status,\n        string description\n    );\n\n    struct Contribution {\n        uint256[] tracks;\n        uint256 createdAt;\n        string previewFile;\n        string previewFileHash;\n        uint256 recordId;\n        bool seedContribution;\n        bool roughMix; // true if rough mix or else false\n        uint256 status; // status (PENDING = 1 | ACCEPTED = 2| REJECTED = 3)\n        string description;\n        bool isPresent;\n    }\n\n    mapping(uint256 => Contribution) public contributionData;\n\n    constructor() ERC721(\"Contributions\", \"CTRB\") {\n        // _baseURIextended = baseURI_;\n        OWNER = msg.sender;\n    }\n\n    /**\n     * @dev Modifier to check that the person who accesses a specific function is the owner of contract himself.\n     */\n    modifier ownerOnly() {\n        require(msg.sender == OWNER, \"You are not authorized for this action\");\n        _;\n    }\n\n    /**\n     * @dev This function sets the Voting Contract address\n     */\n    function setContributionVotingContractAddress(\n        address newVotingContractAddress\n    ) public ownerOnly {\n        CONTRIBUTION_VOTING_CONTRACT_ADDRESS = newVotingContractAddress;\n    }\n\n    /**\n     * @dev This function returns contribution data\n     * @param contributionId Id of the contribution whose data you want\n     */\n    function getContributionData(uint256 contributionId)\n        public\n        view\n        returns (Contribution memory contribution)\n    {\n        return contributionData[contributionId];\n    }\n\n    /**\n     * @dev This function will be called by the user to create a new contribution\n     * @param tracks Id of tracks that are part of this contribution\n     * @param previewFile this is preview file of the contribution\n     * @param previewFileHash this is hash of the preview file\n     * @param recordId this is the id of the record to which contribution belongs to.\n     * @param roughMix this represents if a contribution is a roughMix or is a new contribution\n     * @param description this is the description of the new contriution that is created.\n     * @param communityReward this is the amount of community token that the contributor is requesting for his work contribution.\n     * @param governanceReward this is the amount of governance token that the contributor is requesting for his work contribution.\n     */\n    function createNewContribution(\n        // string memory uri,\n        uint256[] memory tracks,\n        string memory previewFile,\n        string memory previewFileHash,\n        uint256 recordId,\n        bool roughMix,\n        string memory description,\n        uint256 communityReward,\n        uint256 governanceReward\n    ) public returns (uint256) {\n        _contributionIds.increment();\n\n        uint256 contributionId = _contributionIds.current();\n        _mint(msg.sender, contributionId);\n\n        ContributionVotingContract contributionVotingContract = ContributionVotingContract(\n                CONTRIBUTION_VOTING_CONTRACT_ADDRESS\n            );\n        contributionVotingContract.createContributionVotingBallot(\n            contributionId,\n            recordId,\n            governanceReward,\n            communityReward\n        );\n\n        Contribution memory contribution = Contribution({\n            tracks: tracks,\n            createdAt: block.timestamp,\n            previewFile: previewFile,\n            previewFileHash: previewFileHash,\n            recordId: recordId,\n            roughMix: roughMix,\n            status: 1,\n            description: description,\n            seedContribution: false,\n            isPresent: true\n        });\n\n        contributionData[contributionId] = contribution;\n\n        emit ContributionCreated(\n            contributionId,\n            contribution.tracks,\n            contribution.createdAt,\n            contribution.previewFile,\n            contribution.previewFileHash,\n            contribution.recordId,\n            contribution.seedContribution,\n            contribution.roughMix,\n            contribution.status,\n            contribution.description\n        );\n\n        return contributionId;\n    }\n\n    /**\n     * @dev This function will be called by the user to create a new seed contribution as there will be not voting or anything like that\n     * @param tracks Id of tracks that are part of this contribution\n     * @param previewFile this is preview file of the contribution\n     * @param previewFileHash this is hash of the preview file\n     * @param description this is the description of the new contriution that is created.\n     */\n    function createSeedContribution(\n        // string memory uri,\n        uint256[] memory tracks,\n        string memory previewFile,\n        string memory previewFileHash,\n        string memory description\n    ) public returns (uint256) {\n        _contributionIds.increment();\n\n        uint256 contributionId = _contributionIds.current();\n        _mint(msg.sender, contributionId);\n\n        Contribution memory contribution = Contribution({\n            tracks: tracks,\n            createdAt: block.timestamp,\n            previewFile: previewFile,\n            previewFileHash: previewFileHash,\n            recordId: 0,\n            roughMix: false,\n            status: 2,\n            description: description,\n            seedContribution: true,\n            isPresent: true\n        });\n\n        contributionData[contributionId] = contribution;\n\n        emit ContributionCreated(\n            contributionId,\n            contribution.tracks,\n            contribution.createdAt,\n            contribution.previewFile,\n            contribution.previewFileHash,\n            contribution.recordId,\n            contribution.seedContribution,\n            contribution.roughMix,\n            contribution.status,\n            contribution.description\n        );\n\n        return contributionId;\n    }\n}\n",
  "sourcePath": "/Users/a1/Desktop/Office/projects/CrowdRecords/Contracts/contracts/ContributionContract.sol",
  "compiler": {
    "name": "solc",
    "version": "0.8.12+commit.f00d7308.Emscripten.clang"
  },
  "schemaVersion": "3.4.6",
  "updatedAt": "2022-07-17T12:21:35.081Z",
  "devdoc": {
    "events": {
      "ContributionCreated(uint256,uint256[],uint256,string,string,uint256,bool,bool,uint256,string)": {
        "details": "this is Contribution Create event this event will be emited when a new contribution is created.",
        "params": {
          "contributionId": "it is the unique identifier for the contribution",
          "createdAt": "createdAt is indicates the time of creation of the contribution",
          "description": "the description of record that is in text format ",
          "previewFile": "this is the file that contains the mix of the contribution also known as preview file",
          "previewFileHash": "this is the hash of the preview file to make sure the previewFile is not temperd with ",
          "recordId": "this is the id of the record to which the contribution belongd to",
          "roughMix": "this flag determines if the contribution is a new contribution, with new tracks or is it just mix of all the previous tracks",
          "seedContribution": "this flag determines if the contribution is a seed contribution or not",
          "status": "this is status of the contribution that is in PENDING or ACCEPTED or REJECTED // status (PENDING = 1 | ACCEPTED = 2| REJECTED = 3)",
          "tracks": "are id of the tracks that are part of this contribution, you will have to manually fetch the tracks data from trackId once you do the indexing. "
        }
      }
    },
    "kind": "dev",
    "methods": {
      "approve(address,uint256)": {
        "details": "See {IERC721-approve}."
      },
      "balanceOf(address)": {
        "details": "See {IERC721-balanceOf}."
      },
      "createNewContribution(uint256[],string,string,uint256,bool,string,uint256,uint256)": {
        "details": "This function will be called by the user to create a new contribution",
        "params": {
          "communityReward": "this is the amount of community token that the contributor is requesting for his work contribution.",
          "description": "this is the description of the new contriution that is created.",
          "governanceReward": "this is the amount of governance token that the contributor is requesting for his work contribution.",
          "previewFile": "this is preview file of the contribution",
          "previewFileHash": "this is hash of the preview file",
          "recordId": "this is the id of the record to which contribution belongs to.",
          "roughMix": "this represents if a contribution is a roughMix or is a new contribution",
          "tracks": "Id of tracks that are part of this contribution"
        }
      },
      "createSeedContribution(uint256[],string,string,string)": {
        "details": "This function will be called by the user to create a new seed contribution as there will be not voting or anything like that",
        "params": {
          "description": "this is the description of the new contriution that is created.",
          "previewFile": "this is preview file of the contribution",
          "previewFileHash": "this is hash of the preview file",
          "tracks": "Id of tracks that are part of this contribution"
        }
      },
      "getApproved(uint256)": {
        "details": "See {IERC721-getApproved}."
      },
      "getContributionData(uint256)": {
        "details": "This function returns contribution data",
        "params": {
          "contributionId": "Id of the contribution whose data you want"
        }
      },
      "isApprovedForAll(address,address)": {
        "details": "See {IERC721-isApprovedForAll}."
      },
      "name()": {
        "details": "See {IERC721Metadata-name}."
      },
      "ownerOf(uint256)": {
        "details": "See {IERC721-ownerOf}."
      },
      "safeTransferFrom(address,address,uint256)": {
        "details": "See {IERC721-safeTransferFrom}."
      },
      "safeTransferFrom(address,address,uint256,bytes)": {
        "details": "See {IERC721-safeTransferFrom}."
      },
      "setApprovalForAll(address,bool)": {
        "details": "See {IERC721-setApprovalForAll}."
      },
      "setContributionVotingContractAddress(address)": {
        "details": "This function sets the Voting Contract address"
      },
      "supportsInterface(bytes4)": {
        "details": "See {IERC165-supportsInterface}."
      },
      "symbol()": {
        "details": "See {IERC721Metadata-symbol}."
      },
      "tokenURI(uint256)": {
        "details": "See {IERC721Metadata-tokenURI}."
      },
      "transferFrom(address,address,uint256)": {
        "details": "See {IERC721-transferFrom}."
      }
    },
    "version": 1
  },
  "userdoc": {
    "kind": "user",
    "methods": {},
    "version": 1
  }
}