{
  "contractName": "ContributionVotingContract",
  "abi": [
    {
      "inputs": [
        {
          "internalType": "uint8",
          "name": "votingInterval",
          "type": "uint8"
        }
      ],
      "stateMutability": "nonpayable",
      "type": "constructor"
    },
    {
      "anonymous": false,
      "inputs": [
        {
          "indexed": false,
          "internalType": "uint256",
          "name": "contributionId",
          "type": "uint256"
        },
        {
          "indexed": false,
          "internalType": "uint256",
          "name": "ballotId",
          "type": "uint256"
        },
        {
          "indexed": false,
          "internalType": "bool",
          "name": "result",
          "type": "bool"
        }
      ],
      "name": "BallotResult",
      "type": "event"
    },
    {
      "anonymous": false,
      "inputs": [
        {
          "indexed": false,
          "internalType": "address",
          "name": "requester",
          "type": "address"
        },
        {
          "indexed": false,
          "internalType": "uint256",
          "name": "contributionId",
          "type": "uint256"
        },
        {
          "indexed": false,
          "internalType": "uint256",
          "name": "recordId",
          "type": "uint256"
        },
        {
          "indexed": false,
          "internalType": "uint256",
          "name": "communityReward",
          "type": "uint256"
        },
        {
          "indexed": false,
          "internalType": "uint256",
          "name": "communityTokenId",
          "type": "uint256"
        },
        {
          "indexed": false,
          "internalType": "uint256",
          "name": "governanceReward",
          "type": "uint256"
        },
        {
          "indexed": false,
          "internalType": "uint256",
          "name": "governanceTokenId",
          "type": "uint256"
        },
        {
          "indexed": false,
          "internalType": "uint256",
          "name": "ballotId",
          "type": "uint256"
        }
      ],
      "name": "ContributionBallotCreated",
      "type": "event"
    },
    {
      "anonymous": false,
      "inputs": [
        {
          "indexed": false,
          "internalType": "address",
          "name": "voter",
          "type": "address"
        },
        {
          "indexed": false,
          "internalType": "uint256",
          "name": "contributionId",
          "type": "uint256"
        },
        {
          "indexed": false,
          "internalType": "uint256",
          "name": "ballotId",
          "type": "uint256"
        },
        {
          "indexed": false,
          "internalType": "bool",
          "name": "vote",
          "type": "bool"
        }
      ],
      "name": "ContributionVoting",
      "type": "event"
    },
    {
      "anonymous": false,
      "inputs": [
        {
          "indexed": false,
          "internalType": "uint256",
          "name": "contributionId",
          "type": "uint256"
        },
        {
          "indexed": false,
          "internalType": "address",
          "name": "voterId",
          "type": "address"
        },
        {
          "indexed": false,
          "internalType": "uint256",
          "name": "newGovernanceReward",
          "type": "uint256"
        },
        {
          "indexed": false,
          "internalType": "uint256",
          "name": "newCommunityReward",
          "type": "uint256"
        }
      ],
      "name": "CounterOfferForContribution",
      "type": "event"
    },
    {
      "anonymous": false,
      "inputs": [
        {
          "indexed": false,
          "internalType": "uint256",
          "name": "contributionId",
          "type": "uint256"
        },
        {
          "indexed": false,
          "internalType": "address",
          "name": "voterId",
          "type": "address"
        },
        {
          "indexed": false,
          "internalType": "uint256",
          "name": "newGovernanceReward",
          "type": "uint256"
        },
        {
          "indexed": false,
          "internalType": "uint256",
          "name": "newCommunityReward",
          "type": "uint256"
        },
        {
          "indexed": false,
          "internalType": "uint256",
          "name": "status",
          "type": "uint256"
        }
      ],
      "name": "counterOfferAction",
      "type": "event"
    },
    {
      "inputs": [],
      "name": "CONTRIBUTION_CONTRACT_ADDRESS",
      "outputs": [
        {
          "internalType": "address",
          "name": "",
          "type": "address"
        }
      ],
      "stateMutability": "view",
      "type": "function"
    },
    {
      "inputs": [],
      "name": "ORDER_CONTRACT_ADDRESS",
      "outputs": [
        {
          "internalType": "address",
          "name": "",
          "type": "address"
        }
      ],
      "stateMutability": "view",
      "type": "function"
    },
    {
      "inputs": [],
      "name": "TREASURY_CONTRACT_ADDRESS",
      "outputs": [
        {
          "internalType": "address",
          "name": "",
          "type": "address"
        }
      ],
      "stateMutability": "view",
      "type": "function"
    },
    {
      "inputs": [
        {
          "internalType": "address",
          "name": "newTreasuryContractAddress",
          "type": "address"
        }
      ],
      "name": "setTreasuryContractAddress",
      "outputs": [],
      "stateMutability": "nonpayable",
      "type": "function"
    },
    {
      "inputs": [
        {
          "internalType": "address",
          "name": "newOrderContractAddress",
          "type": "address"
        }
      ],
      "name": "setOrderContractAddress",
      "outputs": [],
      "stateMutability": "nonpayable",
      "type": "function"
    },
    {
      "inputs": [
        {
          "internalType": "address",
          "name": "newContributionContractAddress",
          "type": "address"
        }
      ],
      "name": "setContributionContractAddress",
      "outputs": [],
      "stateMutability": "nonpayable",
      "type": "function"
    },
    {
      "inputs": [
        {
          "internalType": "uint256",
          "name": "contributionId",
          "type": "uint256"
        },
        {
          "internalType": "uint256",
          "name": "recordId",
          "type": "uint256"
        },
        {
          "internalType": "uint256",
          "name": "govReward",
          "type": "uint256"
        },
        {
          "internalType": "uint256",
          "name": "govTokenId",
          "type": "uint256"
        },
        {
          "internalType": "uint256",
          "name": "commReward",
          "type": "uint256"
        },
        {
          "internalType": "uint256",
          "name": "commTokenId",
          "type": "uint256"
        }
      ],
      "name": "createContributionVotingBallot",
      "outputs": [],
      "stateMutability": "nonpayable",
      "type": "function"
    },
    {
      "inputs": [
        {
          "internalType": "uint256",
          "name": "contributionId",
          "type": "uint256"
        },
        {
          "internalType": "bool",
          "name": "vote",
          "type": "bool"
        }
      ],
      "name": "castVoteForContribution",
      "outputs": [],
      "stateMutability": "nonpayable",
      "type": "function"
    },
    {
      "inputs": [
        {
          "internalType": "uint256",
          "name": "contributionId",
          "type": "uint256"
        },
        {
          "internalType": "uint256",
          "name": "newCommunityReward",
          "type": "uint256"
        },
        {
          "internalType": "uint256",
          "name": "newGovernanceReward",
          "type": "uint256"
        }
      ],
      "name": "proposeCounterOffer",
      "outputs": [],
      "stateMutability": "nonpayable",
      "type": "function"
    },
    {
      "inputs": [
        {
          "internalType": "uint256",
          "name": "contributionId",
          "type": "uint256"
        },
        {
          "internalType": "address[]",
          "name": "counterOfferIds",
          "type": "address[]"
        },
        {
          "internalType": "bool",
          "name": "action",
          "type": "bool"
        }
      ],
      "name": "actionOnCounterOffer",
      "outputs": [],
      "stateMutability": "nonpayable",
      "type": "function"
    },
    {
      "inputs": [
        {
          "internalType": "uint256",
          "name": "contributionId",
          "type": "uint256"
        }
      ],
      "name": "declareWinner",
      "outputs": [],
      "stateMutability": "nonpayable",
      "type": "function"
    }
  ],
  "bytecode": "0x6080604052601960005560006004553480156200001b57600080fd5b50604051620036e9380380620036e98339818101604052810190620000419190620000d6565b33600360006101000a81548173ffffffffffffffffffffffffffffffffffffffff021916908373ffffffffffffffffffffffffffffffffffffffff1602179055508060ff166000819055505062000108565b600080fd5b600060ff82169050919050565b620000b08162000098565b8114620000bc57600080fd5b50565b600081519050620000d081620000a5565b92915050565b600060208284031215620000ef57620000ee62000093565b5b6000620000ff84828501620000bf565b91505092915050565b6135d180620001186000396000f3fe608060405234801561001057600080fd5b50600436106100a85760003560e01c80634cf2d48f116100715780634cf2d48f1461013b5780639c2ed8d514610157578063acb3149314610173578063c679968a14610191578063c9d59143146101ad578063d1885278146101c9576100a8565b8062c2943c146100ad57806307c505b7146100c95780630adfb380146100e7578063251686ed1461010357806329c50b591461011f575b600080fd5b6100c760048036038101906100c29190612500565b6101e7565b005b6100d1610573565b6040516100de919061256e565b60405180910390f35b61010160048036038101906100fc9190612589565b610599565b005b61011d6004803603810190610118919061264e565b610812565b005b610139600480360381019061013491906126ba565b610889565b005b610155600480360381019061015091906126ba565b61095d565b005b610171600480360381019061016c91906126ba565b6109f9565b005b61017b610a95565b604051610188919061256e565b60405180910390f35b6101ab60048036038101906101a691906126e7565b610abb565b005b6101c760048036038101906101c29190612893565b610f39565b005b6101d16112b5565b6040516101de919061256e565b60405180910390f35b6000600a600083815260200190815260200160002080548060200260200160405190810160405280929190818152602001828054801561027c57602002820191906000526020600020905b8160009054906101000a900473ffffffffffffffffffffffffffffffffffffffff1673ffffffffffffffffffffffffffffffffffffffff1681526020019060010190808311610232575b5050505050905060005b81518110156103c85760016009600085815260200190815260200160002060008484815181106102b9576102b8612902565b5b602002602001015173ffffffffffffffffffffffffffffffffffffffff1673ffffffffffffffffffffffffffffffffffffffff1681526020019081526020016000206002015414156103b557610341600860008581526020019081526020016000206003015483838151811061033257610331612902565b5b602002602001015160006112db565b600360096000858152602001908152602001600020600084848151811061036b5761036a612902565b5b602002602001015173ffffffffffffffffffffffffffffffffffffffff1673ffffffffffffffffffffffffffffffffffffffff168152602001908152602001600020600201819055505b80806103c090612960565b915050610286565b50600061040160086000858152602001908152602001600020600301546008600086815260200190815260200160002060070154611391565b90507fb8a8a92b56f183482e31ed93ed60da7274c03a6bc11b2c0e75cec8ff5a8058f28360086000868152602001908152602001600020600301548360405161044c939291906129c7565b60405180910390a1801561056e576000600160009054906101000a900473ffffffffffffffffffffffffffffffffffffffff1690508073ffffffffffffffffffffffffffffffffffffffff16638388f4136008600087815260200190815260200160002060000160009054906101000a900473ffffffffffffffffffffffffffffffffffffffff16600860008881526020019081526020016000206002015487600860008a815260200190815260200160002060060154600860008b8152602001908152602001600020600401546040518663ffffffff1660e01b815260040161053a9594939291906129fe565b600060405180830381600087803b15801561055457600080fd5b505af1158015610568573d6000803e3d6000fd5b50505050505b505050565b600b60009054906101000a900473ffffffffffffffffffffffffffffffffffffffff1681565b600b60009054906101000a900473ffffffffffffffffffffffffffffffffffffffff1673ffffffffffffffffffffffffffffffffffffffff163373ffffffffffffffffffffffffffffffffffffffff1614610629576040517f08c379a000000000000000000000000000000000000000000000000000000000815260040161062090612ad4565b60405180910390fd5b600015156008600088815260200190815260200160002060080160009054906101000a900460ff16151514610693576040517f08c379a000000000000000000000000000000000000000000000000000000000815260040161068a90612b40565b60405180910390fd5b600061069f60016118b3565b905060006040518061012001604052803273ffffffffffffffffffffffffffffffffffffffff1681526020018981526020018881526020018381526020018581526020018481526020018781526020018681526020016001151581525090507f841b71ba38f7c6cc93d8235b87ac4a1f87adee1f9d562d9e0421744c8b2d5d5a33898987878b8b8960405161073b989796959493929190612b60565b60405180910390a180600860008a815260200190815260200160002060008201518160000160006101000a81548173ffffffffffffffffffffffffffffffffffffffff021916908373ffffffffffffffffffffffffffffffffffffffff1602179055506020820151816001015560408201518160020155606082015181600301556080820151816004015560a0820151816005015560c0820151816006015560e082015181600701556101008201518160080160006101000a81548160ff0219169083151502179055509050505050505050505050565b610832600860008481526020019081526020016000206003015482611ad0565b7fc94df962ce83bb9f5099c0364215ad4932ed320a795c370dc62619a373a9518e338360086000868152602001908152602001600020600301548460405161087d9493929190612bde565b60405180910390a15050565b600360009054906101000a900473ffffffffffffffffffffffffffffffffffffffff1673ffffffffffffffffffffffffffffffffffffffff163373ffffffffffffffffffffffffffffffffffffffff1614610919576040517f08c379a000000000000000000000000000000000000000000000000000000000815260040161091090612c95565b60405180910390fd5b80600b60006101000a81548173ffffffffffffffffffffffffffffffffffffffff021916908373ffffffffffffffffffffffffffffffffffffffff16021790555050565b600360009054906101000a900473ffffffffffffffffffffffffffffffffffffffff1673ffffffffffffffffffffffffffffffffffffffff163373ffffffffffffffffffffffffffffffffffffffff16146109ed576040517f08c379a00000000000000000000000000000000000000000000000000000000081526004016109e490612c95565b60405180910390fd5b6109f681611b84565b50565b600360009054906101000a900473ffffffffffffffffffffffffffffffffffffffff1673ffffffffffffffffffffffffffffffffffffffff163373ffffffffffffffffffffffffffffffffffffffff1614610a89576040517f08c379a0000000000000000000000000000000000000000000000000000000008152600401610a8090612c95565b60405180910390fd5b610a9281611c58565b50565b600160009054906101000a900473ffffffffffffffffffffffffffffffffffffffff1681565b60086000848152602001908152602001600020600301546005600082815260200190815260200160002060040160019054906101000a900460ff1615610ba457600015156006600083815260200190815260200160002060003273ffffffffffffffffffffffffffffffffffffffff1673ffffffffffffffffffffffffffffffffffffffff16815260200190815260200160002060009054906101000a900460ff16151514610b9f576040517f08c379a0000000000000000000000000000000000000000000000000000000008152600401610b9690612d01565b60405180910390fd5b610c4a565b6005600082815260200190815260200160002060000160009054906101000a900473ffffffffffffffffffffffffffffffffffffffff1673ffffffffffffffffffffffffffffffffffffffff163273ffffffffffffffffffffffffffffffffffffffff161415610c49576040517f08c379a0000000000000000000000000000000000000000000000000000000008152600401610c4090612d6d565b60405180910390fd5b5b6008600085815260200190815260200160002060030154600115156005600083815260200190815260200160002060040160029054906101000a900460ff16151514610ccb576040517f08c379a0000000000000000000000000000000000000000000000000000000008152600401610cc290612dd9565b60405180910390fd5b43600560008381526020019081526020016000206003015411610d23576040517f08c379a0000000000000000000000000000000000000000000000000000000008152600401610d1a90612e45565b60405180910390fd5b600015156006600083815260200190815260200160002060003373ffffffffffffffffffffffffffffffffffffffff1673ffffffffffffffffffffffffffffffffffffffff16815260200190815260200160002060009054906101000a900460ff16151514610dc7576040517f08c379a0000000000000000000000000000000000000000000000000000000008152600401610dbe90612d01565b60405180910390fd5b610de66008600087815260200190815260200160002060030154611d2c565b6000604051806060016040528086815260200185815260200160018152509050600a6000878152602001908152602001600020339080600181540180825580915050600190039060005260206000200160009091909190916101000a81548173ffffffffffffffffffffffffffffffffffffffff021916908373ffffffffffffffffffffffffffffffffffffffff160217905550806009600088815260200190815260200160002060003373ffffffffffffffffffffffffffffffffffffffff1673ffffffffffffffffffffffffffffffffffffffff1681526020019081526020016000206000820151816000015560208201518160010155604082015181600201559050507f920106c0a661b88d3e90d906bbcd9e579abab6ff29031cb1cc958ddebae47fb8863383602001518460000151604051610f299493929190612e65565b60405180910390a1505050505050565b60005b82518110156112af576001600960008681526020019081526020016000206000858481518110610f6f57610f6e612902565b5b602002602001015173ffffffffffffffffffffffffffffffffffffffff1673ffffffffffffffffffffffffffffffffffffffff16815260200190815260200160002060020154141561129c5781156111eb576000600960008681526020019081526020016000206000858481518110610feb57610fea612902565b5b602002602001015173ffffffffffffffffffffffffffffffffffffffff1673ffffffffffffffffffffffffffffffffffffffff168152602001908152602001600020600101549050600060096000878152602001908152602001600020600086858151811061105d5761105c612902565b5b602002602001015173ffffffffffffffffffffffffffffffffffffffff1673ffffffffffffffffffffffffffffffffffffffff168152602001908152602001600020600001549050806008600088815260200190815260200160002060040181905550816008600088815260200190815260200160002060060181905550600260096000888152602001908152602001600020600087868151811061110557611104612902565b5b602002602001015173ffffffffffffffffffffffffffffffffffffffff1673ffffffffffffffffffffffffffffffffffffffff1681526020019081526020016000206002018190555061118a600860008881526020019081526020016000206003015486858151811061117b5761117a612902565b5b602002602001015160016112db565b7fd992f385523dde33af41e13ab8ac788e6a9d7bf3278f3a70d16c150ff43115e5868685815181106111bf576111be612902565b5b6020026020010151848460026040516111dc959493929190612eef565b60405180910390a1505061129b565b611227600860008681526020019081526020016000206003015484838151811061121857611217612902565b5b602002602001015160006112db565b600360096000868152602001908152602001600020600085848151811061125157611250612902565b5b602002602001015173ffffffffffffffffffffffffffffffffffffffff1673ffffffffffffffffffffffffffffffffffffffff168152602001908152602001600020600201819055505b5b80806112a790612960565b915050610f3c565b50505050565b600260009054906101000a900473ffffffffffffffffffffffffffffffffffffffff1681565b82600115156007600083815260200190815260200160002060003373ffffffffffffffffffffffffffffffffffffffff1673ffffffffffffffffffffffffffffffffffffffff16815260200190815260200160002060009054906101000a900460ff16151514611380576040517f08c379a000000000000000000000000000000000000000000000000000000000815260040161137790612fb4565b60405180910390fd5b61138b848385611e3e565b50505050565b6000600115156005600085815260200190815260200160002060040160029054906101000a900460ff161515146113fd576040517f08c379a00000000000000000000000000000000000000000000000000000000081526004016113f490612dd9565b60405180910390fd5b43600560008581526020019081526020016000206003015410611455576040517f08c379a000000000000000000000000000000000000000000000000000000000815260040161144c90613020565b60405180910390fd5b600015156005600085815260200190815260200160002060040160009054906101000a900460ff161515146114bf576040517f08c379a00000000000000000000000000000000000000000000000000000000081526004016114b69061308c565b60405180910390fd5b60006005600085815260200190815260200160002060010180548060200260200160405190810160405280929190818152602001828054801561155757602002820191906000526020600020905b8160009054906101000a900473ffffffffffffffffffffffffffffffffffffffff1673ffffffffffffffffffffffffffffffffffffffff168152602001906001019080831161150d575b505050505090506000815167ffffffffffffffff81111561157b5761157a612750565b5b6040519080825280602002602001820160405280156115a95781602001602082028036833780820191505090505b50905060005b82518110156115eb57848282815181106115cc576115cb612902565b5b60200260200101818152505080806115e390612960565b9150506115af565b506000600160009054906101000a900473ffffffffffffffffffffffffffffffffffffffff16905060008173ffffffffffffffffffffffffffffffffffffffff1662fdd58e600260009054906101000a900473ffffffffffffffffffffffffffffffffffffffff16886040518363ffffffff1660e01b81526004016116719291906130ac565b602060405180830381865afa15801561168e573d6000803e3d6000fd5b505050506040513d601f19601f820116820180604052508101906116b291906130ea565b905060008273ffffffffffffffffffffffffffffffffffffffff16634e1273f4600560008b8152602001908152602001600020600101866040518363ffffffff1660e01b81526004016117069291906132f9565b600060405180830381865afa158015611723573d6000803e3d6000fd5b505050506040513d6000823e3d601f19601f8201168201806040525081019061174c91906133f3565b90506000805b86518110156117965782818151811061176e5761176d612902565b5b602002602001015182611781919061343c565b9150808061178e90612960565b915050611752565b506001600560008b815260200190815260200160002060040160006101000a81548160ff02191690831515021790555060008111156118a25760008473ffffffffffffffffffffffffffffffffffffffff1663036c22ad8a6040518263ffffffff1660e01b815260040161180a9190613492565b602060405180830381865afa158015611827573d6000803e3d6000fd5b505050506040513d601f19601f8201168201806040525081019061184b91906130ea565b9050838161185991906134ad565b905060008160648461186b91906134e1565b611875919061356a565b90506042811115611891576001985050505050505050506118ad565b6000985050505050505050506118ad565b600096505050505050505b92915050565b6000600460008154809291906118c890612960565b919050555060006040518060e001604052803273ffffffffffffffffffffffffffffffffffffffff168152602001600067ffffffffffffffff81111561191157611910612750565b5b60405190808252806020026020018201604052801561193f5781602001602082028036833780820191505090505b508152602001600067ffffffffffffffff8111156119605761195f612750565b5b60405190808252806020026020018201604052801561198e5781602001602082028036833780820191505090505b508152602001600054436119a2919061343c565b815260200160001515815260200184151581526020016001151581525090508060056000600454815260200190815260200160002060008201518160000160006101000a81548173ffffffffffffffffffffffffffffffffffffffff021916908373ffffffffffffffffffffffffffffffffffffffff1602179055506020820151816001019080519060200190611a3a92919061240f565b506040820151816002019080519060200190611a5792919061240f565b506060820151816003015560808201518160040160006101000a81548160ff02191690831515021790555060a08201518160040160016101000a81548160ff02191690831515021790555060c08201518160040160026101000a81548160ff021916908315150217905550905050600454915050919050565b81600015156007600083815260200190815260200160002060003373ffffffffffffffffffffffffffffffffffffffff1673ffffffffffffffffffffffffffffffffffffffff16815260200190815260200160002060009054906101000a900460ff16151514611b75576040517f08c379a0000000000000000000000000000000000000000000000000000000008152600401611b6c90612fb4565b60405180910390fd5b611b7f8383611fb6565b505050565b600360009054906101000a900473ffffffffffffffffffffffffffffffffffffffff1673ffffffffffffffffffffffffffffffffffffffff163373ffffffffffffffffffffffffffffffffffffffff1614611c14576040517f08c379a0000000000000000000000000000000000000000000000000000000008152600401611c0b90612c95565b60405180910390fd5b80600160006101000a81548173ffffffffffffffffffffffffffffffffffffffff021916908373ffffffffffffffffffffffffffffffffffffffff16021790555050565b600360009054906101000a900473ffffffffffffffffffffffffffffffffffffffff1673ffffffffffffffffffffffffffffffffffffffff163373ffffffffffffffffffffffffffffffffffffffff1614611ce8576040517f08c379a0000000000000000000000000000000000000000000000000000000008152600401611cdf90612c95565b60405180910390fd5b80600260006101000a81548173ffffffffffffffffffffffffffffffffffffffff021916908373ffffffffffffffffffffffffffffffffffffffff16021790555050565b80600015156007600083815260200190815260200160002060003373ffffffffffffffffffffffffffffffffffffffff1673ffffffffffffffffffffffffffffffffffffffff16815260200190815260200160002060009054906101000a900460ff16151514611dd1576040517f08c379a0000000000000000000000000000000000000000000000000000000008152600401611dc890612fb4565b60405180910390fd5b60016006600084815260200190815260200160002060003373ffffffffffffffffffffffffffffffffffffffff1673ffffffffffffffffffffffffffffffffffffffff16815260200190815260200160002060006101000a81548160ff0219169083151502179055505050565b82600115156005600083815260200190815260200160002060040160029054906101000a900460ff16151514611ea9576040517f08c379a0000000000000000000000000000000000000000000000000000000008152600401611ea090612dd9565b60405180910390fd5b43600560008381526020019081526020016000206003015411611f01576040517f08c379a0000000000000000000000000000000000000000000000000000000008152600401611ef890612e45565b60405180910390fd5b600015156006600083815260200190815260200160002060003373ffffffffffffffffffffffffffffffffffffffff1673ffffffffffffffffffffffffffffffffffffffff16815260200190815260200160002060009054906101000a900460ff16151514611fa5576040517f08c379a0000000000000000000000000000000000000000000000000000000008152600401611f9c90612d01565b60405180910390fd5b611fb08484846122a7565b50505050565b81600115156005600083815260200190815260200160002060040160029054906101000a900460ff16151514612021576040517f08c379a000000000000000000000000000000000000000000000000000000000815260040161201890612dd9565b60405180910390fd5b43600560008381526020019081526020016000206003015411612079576040517f08c379a000000000000000000000000000000000000000000000000000000000815260040161207090612e45565b60405180910390fd5b600015156006600083815260200190815260200160002060003373ffffffffffffffffffffffffffffffffffffffff1673ffffffffffffffffffffffffffffffffffffffff16815260200190815260200160002060009054906101000a900460ff1615151461211d576040517f08c379a000000000000000000000000000000000000000000000000000000000815260040161211490612d01565b60405180910390fd5b826005600082815260200190815260200160002060040160019054906101000a900460ff16156121f057600015156006600083815260200190815260200160002060003273ffffffffffffffffffffffffffffffffffffffff1673ffffffffffffffffffffffffffffffffffffffff16815260200190815260200160002060009054906101000a900460ff161515146121eb576040517f08c379a00000000000000000000000000000000000000000000000000000000081526004016121e290612d01565b60405180910390fd5b612296565b6005600082815260200190815260200160002060000160009054906101000a900473ffffffffffffffffffffffffffffffffffffffff1673ffffffffffffffffffffffffffffffffffffffff163273ffffffffffffffffffffffffffffffffffffffff161415612295576040517f08c379a000000000000000000000000000000000000000000000000000000000815260040161228c90612d6d565b60405180910390fd5b5b6122a18484326122a7565b50505050565b81156123295760056000848152602001908152602001600020600101329080600181540180825580915050600190039060005260206000200160009091909190916101000a81548173ffffffffffffffffffffffffffffffffffffffff021916908373ffffffffffffffffffffffffffffffffffffffff1602179055506123a1565b60056000848152602001908152602001600020600201329080600181540180825580915050600190039060005260206000200160009091909190916101000a81548173ffffffffffffffffffffffffffffffffffffffff021916908373ffffffffffffffffffffffffffffffffffffffff1602179055505b60016006600085815260200190815260200160002060003273ffffffffffffffffffffffffffffffffffffffff1673ffffffffffffffffffffffffffffffffffffffff16815260200190815260200160002060006101000a81548160ff021916908315150217905550505050565b828054828255906000526020600020908101928215612488579160200282015b828111156124875782518260006101000a81548173ffffffffffffffffffffffffffffffffffffffff021916908373ffffffffffffffffffffffffffffffffffffffff1602179055509160200191906001019061242f565b5b5090506124959190612499565b5090565b5b808211156124b257600081600090555060010161249a565b5090565b6000604051905090565b600080fd5b600080fd5b6000819050919050565b6124dd816124ca565b81146124e857600080fd5b50565b6000813590506124fa816124d4565b92915050565b600060208284031215612516576125156124c0565b5b6000612524848285016124eb565b91505092915050565b600073ffffffffffffffffffffffffffffffffffffffff82169050919050565b60006125588261252d565b9050919050565b6125688161254d565b82525050565b6000602082019050612583600083018461255f565b92915050565b60008060008060008060c087890312156125a6576125a56124c0565b5b60006125b489828a016124eb565b96505060206125c589828a016124eb565b95505060406125d689828a016124eb565b94505060606125e789828a016124eb565b93505060806125f889828a016124eb565b92505060a061260989828a016124eb565b9150509295509295509295565b60008115159050919050565b61262b81612616565b811461263657600080fd5b50565b60008135905061264881612622565b92915050565b60008060408385031215612665576126646124c0565b5b6000612673858286016124eb565b925050602061268485828601612639565b9150509250929050565b6126978161254d565b81146126a257600080fd5b50565b6000813590506126b48161268e565b92915050565b6000602082840312156126d0576126cf6124c0565b5b60006126de848285016126a5565b91505092915050565b600080600060608486031215612700576126ff6124c0565b5b600061270e868287016124eb565b935050602061271f868287016124eb565b9250506040612730868287016124eb565b9150509250925092565b600080fd5b6000601f19601f8301169050919050565b7f4e487b7100000000000000000000000000000000000000000000000000000000600052604160045260246000fd5b6127888261273f565b810181811067ffffffffffffffff821117156127a7576127a6612750565b5b80604052505050565b60006127ba6124b6565b90506127c6828261277f565b919050565b600067ffffffffffffffff8211156127e6576127e5612750565b5b602082029050602081019050919050565b600080fd5b600061280f61280a846127cb565b6127b0565b90508083825260208201905060208402830185811115612832576128316127f7565b5b835b8181101561285b578061284788826126a5565b845260208401935050602081019050612834565b5050509392505050565b600082601f83011261287a5761287961273a565b5b813561288a8482602086016127fc565b91505092915050565b6000806000606084860312156128ac576128ab6124c0565b5b60006128ba868287016124eb565b935050602084013567ffffffffffffffff8111156128db576128da6124c5565b5b6128e786828701612865565b92505060406128f886828701612639565b9150509250925092565b7f4e487b7100000000000000000000000000000000000000000000000000000000600052603260045260246000fd5b7f4e487b7100000000000000000000000000000000000000000000000000000000600052601160045260246000fd5b600061296b826124ca565b91507fffffffffffffffffffffffffffffffffffffffffffffffffffffffffffffffff82141561299e5761299d612931565b5b600182019050919050565b6129b2816124ca565b82525050565b6129c181612616565b82525050565b60006060820190506129dc60008301866129a9565b6129e960208301856129a9565b6129f660408301846129b8565b949350505050565b600060a082019050612a13600083018861255f565b612a2060208301876129a9565b612a2d60408301866129a9565b612a3a60608301856129a9565b612a4760808301846129a9565b9695505050505050565b600082825260208201905092915050565b7f596f7520617265206e6f7420636f6e747269627574696f6e20636f6e7472616360008201527f7400000000000000000000000000000000000000000000000000000000000000602082015250565b6000612abe602183612a51565b9150612ac982612a62565b604082019050919050565b60006020820190508181036000830152612aed81612ab1565b9050919050565b7f566f74696e6720697320616c7265616479206372656174656400000000000000600082015250565b6000612b2a601983612a51565b9150612b3582612af4565b602082019050919050565b60006020820190508181036000830152612b5981612b1d565b9050919050565b600061010082019050612b76600083018b61255f565b612b83602083018a6129a9565b612b9060408301896129a9565b612b9d60608301886129a9565b612baa60808301876129a9565b612bb760a08301866129a9565b612bc460c08301856129a9565b612bd160e08301846129a9565b9998505050505050505050565b6000608082019050612bf3600083018761255f565b612c0060208301866129a9565b612c0d60408301856129a9565b612c1a60608301846129b8565b95945050505050565b7f596f7520617265206e6f7420617574686f72697a656420666f7220746869732060008201527f616374696f6e0000000000000000000000000000000000000000000000000000602082015250565b6000612c7f602683612a51565b9150612c8a82612c23565b604082019050919050565b60006020820190508181036000830152612cae81612c72565b9050919050565b7f596f75206861766520616c726561647920766f74656400000000000000000000600082015250565b6000612ceb601683612a51565b9150612cf682612cb5565b602082019050919050565b60006020820190508181036000830152612d1a81612cde565b9050919050565b7f4f776e65722063616e6e6f7420766f7465000000000000000000000000000000600082015250565b6000612d57601183612a51565b9150612d6282612d21565b602082019050919050565b60006020820190508181036000830152612d8681612d4a565b9050919050565b7f4e6f2062616c6c6f74207769746820796f757220696420697320666f756e6400600082015250565b6000612dc3601f83612a51565b9150612dce82612d8d565b602082019050919050565b60006020820190508181036000830152612df281612db6565b9050919050565b7f566f74696e672074696d65206973206f76657200000000000000000000000000600082015250565b6000612e2f601383612a51565b9150612e3a82612df9565b602082019050919050565b60006020820190508181036000830152612e5e81612e22565b9050919050565b6000608082019050612e7a60008301876129a9565b612e87602083018661255f565b612e9460408301856129a9565b612ea160608301846129a9565b95945050505050565b6000819050919050565b6000819050919050565b6000612ed9612ed4612ecf84612eaa565b612eb4565b6124ca565b9050919050565b612ee981612ebe565b82525050565b600060a082019050612f0460008301886129a9565b612f11602083018761255f565b612f1e60408301866129a9565b612f2b60608301856129a9565b612f386080830184612ee0565b9695505050505050565b7f596f75206861766520616c726561647920676976656e206120636f756e74657260008201527f206f666665720000000000000000000000000000000000000000000000000000602082015250565b6000612f9e602683612a51565b9150612fa982612f42565b604082019050919050565b60006020820190508181036000830152612fcd81612f91565b9050919050565b7f566f74696e672074696d65206973206e6f74206f766572207965740000000000600082015250565b600061300a601b83612a51565b915061301582612fd4565b602082019050919050565b6000602082019050818103600083015261303981612ffd565b9050919050565b7f526573756c7420616c7265616479206465636c61726564000000000000000000600082015250565b6000613076601783612a51565b915061308182613040565b602082019050919050565b600060208201905081810360008301526130a581613069565b9050919050565b60006040820190506130c1600083018561255f565b6130ce60208301846129a9565b9392505050565b6000815190506130e4816124d4565b92915050565b600060208284031215613100576130ff6124c0565b5b600061310e848285016130d5565b91505092915050565b600081549050919050565b600082825260208201905092915050565b60008190508160005260206000209050919050565b6131518161254d565b82525050565b60006131638383613148565b60208301905092915050565b60008160001c9050919050565b600073ffffffffffffffffffffffffffffffffffffffff82169050919050565b60006131af6131aa8361316f565b61317c565b9050919050565b60006131c2825461319c565b9050919050565b6000600182019050919050565b60006131e182613117565b6131eb8185613122565b93506131f683613133565b8060005b8381101561322e5761320b826131b6565b6132158882613157565b9750613220836131c9565b9250506001810190506131fa565b5085935050505092915050565b600081519050919050565b600082825260208201905092915050565b6000819050602082019050919050565b613270816124ca565b82525050565b60006132828383613267565b60208301905092915050565b6000602082019050919050565b60006132a68261323b565b6132b08185613246565b93506132bb83613257565b8060005b838110156132ec5781516132d38882613276565b97506132de8361328e565b9250506001810190506132bf565b5085935050505092915050565b6000604082019050818103600083015261331381856131d6565b90508181036020830152613327818461329b565b90509392505050565b600067ffffffffffffffff82111561334b5761334a612750565b5b602082029050602081019050919050565b600061336f61336a84613330565b6127b0565b90508083825260208201905060208402830185811115613392576133916127f7565b5b835b818110156133bb57806133a788826130d5565b845260208401935050602081019050613394565b5050509392505050565b600082601f8301126133da576133d961273a565b5b81516133ea84826020860161335c565b91505092915050565b600060208284031215613409576134086124c0565b5b600082015167ffffffffffffffff811115613427576134266124c5565b5b613433848285016133c5565b91505092915050565b6000613447826124ca565b9150613452836124ca565b9250827fffffffffffffffffffffffffffffffffffffffffffffffffffffffffffffffff0382111561348757613486612931565b5b828201905092915050565b60006020820190506134a760008301846129a9565b92915050565b60006134b8826124ca565b91506134c3836124ca565b9250828210156134d6576134d5612931565b5b828203905092915050565b60006134ec826124ca565b91506134f7836124ca565b9250817fffffffffffffffffffffffffffffffffffffffffffffffffffffffffffffffff04831182151516156135305761352f612931565b5b828202905092915050565b7f4e487b7100000000000000000000000000000000000000000000000000000000600052601260045260246000fd5b6000613575826124ca565b9150613580836124ca565b9250826135905761358f61353b565b5b82820490509291505056fea264697066735822122065f26e3158b06a1e19e67d06c30a5d3582f918b899bdf9b90122df93ccfe99cc64736f6c634300080c0033",
  "immutableReferences": {},
  "source": "// SPDX-License-Identifier: MIT\npragma solidity ^0.8.0;\n\nimport \"./BaseVotingCounterOfferContract.sol\";\nimport \"../TreasuryContract.sol\";\n\ncontract ContributionVotingContract is BaseVotingCounterOfferContract {\n    //This is the struct that contains the reward data of the contribution\n    struct ContributionReward {\n        address requester;\n        uint256 contributionId;\n        uint256 recordId;\n        uint256 ballotId;\n        uint256 communityReward;\n        uint256 communityTokenId;\n        uint256 governanceReward;\n        uint256 governanceTokenId;\n        bool isPresent;\n    }\n\n    //CounterOffer also known as negotitaion\n    struct CounterOffer {\n        uint256 newCommunityReward;\n        uint256 newGovernanceReward;\n        uint256 status; //either ACCEPTED = 2 | PENDING = 1 | REJECTED = 3\n    }\n\n    event ContributionBallotCreated(\n        address requester,\n        uint256 contributionId,\n        uint256 recordId,\n        uint256 communityReward,\n        uint256 communityTokenId,\n        uint256 governanceReward,\n        uint256 governanceTokenId,\n        uint256 ballotId\n    );\n\n    /**\n        @dev This is when a vote is given by user.\n        @param voter Address of the voter\n        @param contributionId This is the id of the contribution that is linked to this ballot \n        @param ballotId Id of the ballot where voting is stored\n        @param vote State of vote : true for yes and false for No\n     */\n    event ContributionVoting(\n        address voter,\n        uint256 contributionId,\n        uint256 ballotId,\n        bool vote\n    );\n\n    /**\n        @dev this is event which is created when a user proposes counter offer\n        @param contributionId This is the id of the contribution that is linked to this ballot \n        @param voterId This is the id of the voter who's vote it is\n        @param newGovernanceReward This is the new reward amount counter offered by the voter\n        @param newCommunityReward This is the new reward amount counter offered by the voter\n     */\n    event CounterOfferForContribution(\n        uint256 contributionId,\n        address voterId,\n        uint256 newGovernanceReward,\n        uint256 newCommunityReward\n    );\n\n    /**\n        @dev this is event which is created when the owner of the ballot takes action on a specific counter offer\n        @param contributionId This is the id of the contribution that is linked to this ballot \n        @param voterId This is the id of the voter who's vote it is\n        @param newGovernanceReward This is the new reward amount counter offered by the voter\n        @param newCommunityReward This is the new reward amount counter offered by the voter\n        @param status This is the status of the counter offer that is => either ACCEPTED = 2 | REJECTED = 3\n     */\n    event counterOfferAction(\n        uint256 contributionId,\n        address voterId,\n        uint256 newGovernanceReward,\n        uint256 newCommunityReward,\n        uint256 status\n    ); // status will be => either ACCEPTED = 2 | REJECTED = 3\n\n    /**\n        @dev this event is genrated when result of a ballot is declared\n        @param contributionId This is the id of the contribution that is linked to this ballot \n        @param ballotId this is the ballot Id for which result is declared \n        @param result this is the status of the result //either true if user won that is he recived more than 66% of votes or false if user lost \n     */\n    event BallotResult(uint256 contributionId, uint256 ballotId, bool result);\n\n    mapping(uint256 => ContributionReward) rewardMapping;\n    //Bellow mapping is ContributionId => User's address => Counter Offer data\n    mapping(uint256 => mapping(address => CounterOffer)) contributionCounterOfferMap;\n    //This contains all the keys (The key's are users address) of the mapping of the counterOfferMapping.\n    mapping(uint256 => address[]) contributionCounterOfferList;\n    address public CONTRIBUTION_CONTRACT_ADDRESS;\n\n    constructor(uint8 votingInterval) BaseVotingContract() {\n        VOTING_BLOCK_PERIOD = votingInterval;\n    }\n\n    modifier _onlyContributionContract() {\n        require(\n            msg.sender == CONTRIBUTION_CONTRACT_ADDRESS,\n            \"You are not contribution contract\"\n        );\n        _;\n    }\n\n    /**\n     * @dev This function sets the treasury Contract address\n     */\n    function setTreasuryContractAddress(address newTreasuryContractAddress)\n        external\n        _ownerOnly\n    {\n        _setTreasuryContractAddress(newTreasuryContractAddress);\n    }\n\n    /**\n     * @dev This function sets the treasury Contract address\n     */\n    function setOrderContractAddress(address newOrderContractAddress)\n        external\n        _ownerOnly\n    {\n        _setOrderContractAddress(newOrderContractAddress);\n    }\n\n    /**\n     * @dev Sets the contribution contract address so that the voting ballot for contritbution can be restricted only to a certain contract that is the contribution contract\n     */\n    function setContributionContractAddress(\n        address newContributionContractAddress\n    ) public _ownerOnly {\n        CONTRIBUTION_CONTRACT_ADDRESS = newContributionContractAddress;\n    }\n\n    /**\n     * @dev This function will create a new contribution voting ballot\n     */\n    function createContributionVotingBallot(\n        uint256 contributionId,\n        uint256 recordId,\n        uint256 govReward,\n        uint256 govTokenId,\n        uint256 commReward,\n        uint256 commTokenId\n    ) public _onlyContributionContract {\n        require(\n            rewardMapping[contributionId].isPresent == false,\n            \"Voting is already created\"\n        );\n\n        uint256 ballotId = _createVoting(true);\n\n        ContributionReward memory contributionReward = ContributionReward({\n            requester: tx.origin,\n            contributionId: contributionId,\n            recordId: recordId,\n            ballotId: ballotId,\n            communityReward: commReward,\n            communityTokenId: commTokenId,\n            governanceReward: govReward,\n            governanceTokenId: govTokenId,\n            isPresent: true\n        });\n\n        emit ContributionBallotCreated({\n            requester: msg.sender,\n            contributionId: contributionId,\n            recordId: recordId,\n            communityReward: commReward,\n            communityTokenId: commTokenId,\n            governanceReward: govReward,\n            governanceTokenId: govTokenId,\n            ballotId: ballotId\n        });\n\n        rewardMapping[contributionId] = contributionReward;\n    }\n\n    /**\n     * @dev This function is called by any user to cast vote\n     * @param contributionId this is the id of the contribution for which user is voting\n     * @param vote this is the state of the vote, if true than it means the vote is in favour of the ballot\n     */\n    function castVoteForContribution(uint256 contributionId, bool vote) public {\n        super._castVote(rewardMapping[contributionId].ballotId, vote);\n\n        emit ContributionVoting({\n            contributionId: contributionId,\n            ballotId: rewardMapping[contributionId].ballotId,\n            voter: msg.sender,\n            vote: vote\n        });\n    }\n\n    /**\n     * @dev This function is called by any user to cast vote\n     * @param contributionId this is the id of the contribution for which user is creating a counter offer\n     * @param newCommunityReward new comunity token amount as reward for the negotition\n     * @param newGovernanceReward new governance token amount as reward for the negotition\n     */\n    function proposeCounterOffer(\n        uint256 contributionId,\n        uint256 newCommunityReward,\n        uint256 newGovernanceReward\n    )\n        public\n        _checkIfOwnerAllowed(rewardMapping[contributionId].ballotId)\n        _checkIfBallotIsOpen(rewardMapping[contributionId].ballotId)\n    {\n        _createCounterOffer(rewardMapping[contributionId].ballotId);\n\n        //Create counter offer object and push it into array\n        CounterOffer memory offer = CounterOffer({\n            newCommunityReward: newCommunityReward,\n            newGovernanceReward: newGovernanceReward,\n            status: 1\n        });\n\n        contributionCounterOfferList[contributionId].push(msg.sender);\n        contributionCounterOfferMap[contributionId][msg.sender] = offer;\n\n        emit CounterOfferForContribution(\n            contributionId,\n            msg.sender,\n            offer.newGovernanceReward,\n            offer.newCommunityReward\n        );\n    }\n\n    /**\n     * @dev This function is called by owner of the contribution to either accept or reject a counter offer\n     * @param contributionId this is the id of the contribution to which the counter offer belogs to\n     * @param counterOfferIds The id of counter offers in array to accept or reject multiple counter offers at once\n     * @param action this is the state of the vote, if true than it means that user accepts the counter offfer\n     */\n    function actionOnCounterOffer(\n        uint256 contributionId,\n        address[] memory counterOfferIds,\n        bool action\n    ) public {\n        //only vote once check\n        for (uint256 i = 0; i < counterOfferIds.length; i++) {\n            if (\n                contributionCounterOfferMap[contributionId][counterOfferIds[i]]\n                    .status == 1\n            ) {\n                if (action) {\n                    uint256 newGovernanceReward = contributionCounterOfferMap[\n                        contributionId\n                    ][counterOfferIds[i]].newGovernanceReward;\n                    uint256 newCommunityReward = contributionCounterOfferMap[\n                        contributionId\n                    ][counterOfferIds[i]].newCommunityReward;\n\n                    //Set new reward for the contribution\n                    rewardMapping[contributionId]\n                        .communityReward = newCommunityReward;\n                    rewardMapping[contributionId]\n                        .governanceReward = newGovernanceReward;\n\n                    contributionCounterOfferMap[contributionId][\n                        counterOfferIds[i]\n                    ].status = 2;\n\n                    super._counterOfferAction(\n                        rewardMapping[contributionId].ballotId,\n                        counterOfferIds[i],\n                        true\n                    );\n                    emit counterOfferAction(\n                        contributionId,\n                        counterOfferIds[i],\n                        newGovernanceReward,\n                        newCommunityReward,\n                        2\n                    );\n                } else {\n                    super._counterOfferAction(\n                        rewardMapping[contributionId].ballotId,\n                        counterOfferIds[i],\n                        false\n                    );\n                    //The counter offer ids are the addresses of the user who proposed the offer\n                    contributionCounterOfferMap[contributionId][\n                        counterOfferIds[i]\n                    ].status = 3;\n                }\n            }\n        }\n    }\n\n    /**\n     * @dev This function can be called from external source and also from within the contract\n     * @param contributionId this is the id of the contribution to which the winner is to be decleared\n     */\n    function declareWinner(uint256 contributionId) external {\n        address[] memory counterOfferList = contributionCounterOfferList[\n            contributionId\n        ];\n        for (uint256 i = 0; i < counterOfferList.length; i++) {\n            if (\n                contributionCounterOfferMap[contributionId][counterOfferList[i]]\n                    .status == 1\n            ) {\n                super._counterOfferAction(\n                    rewardMapping[contributionId].ballotId,\n                    counterOfferList[i],\n                    false\n                );\n                //The counter offer ids are the addresses of the user who proposed the offer\n                contributionCounterOfferMap[contributionId][counterOfferList[i]]\n                    .status = 3;\n            }\n        }\n        bool result = _declareWinner(\n            rewardMapping[contributionId].ballotId,\n            rewardMapping[contributionId].governanceTokenId\n        );\n\n        emit BallotResult(\n            contributionId,\n            rewardMapping[contributionId].ballotId,\n            result\n        );\n\n        if (result) {\n            //Transfer the reward amount to user\n            TreasuryContract treasuryContract = TreasuryContract(\n                TREASURY_CONTRACT_ADDRESS\n            );\n            treasuryContract.transferRewardAmount(\n                rewardMapping[contributionId].requester,\n                rewardMapping[contributionId].recordId,\n                contributionId,\n                rewardMapping[contributionId].governanceReward,\n                rewardMapping[contributionId].communityReward\n            );\n        }\n    }\n}\n",
  "sourcePath": "/Users/a1/Desktop/Office/projects/CrowdRecords/Contracts/contracts/voting/ContributionVotingContract.sol",
  "compiler": {
    "name": "solc",
    "version": "0.8.12+commit.f00d7308.Emscripten.clang"
  },
  "schemaVersion": "3.4.6",
  "updatedAt": "2022-06-23T08:30:38.358Z",
  "devdoc": {
    "events": {
      "BallotResult(uint256,uint256,bool)": {
        "details": "this event is genrated when result of a ballot is declared",
        "params": {
          "ballotId": "this is the ballot Id for which result is declared ",
          "contributionId": "This is the id of the contribution that is linked to this ballot ",
          "result": "this is the status of the result //either true if user won that is he recived more than 66% of votes or false if user lost "
        }
      },
      "ContributionVoting(address,uint256,uint256,bool)": {
        "details": "This is when a vote is given by user.",
        "params": {
          "ballotId": "Id of the ballot where voting is stored",
          "contributionId": "This is the id of the contribution that is linked to this ballot ",
          "vote": "State of vote : true for yes and false for No",
          "voter": "Address of the voter"
        }
      },
      "CounterOfferForContribution(uint256,address,uint256,uint256)": {
        "details": "this is event which is created when a user proposes counter offer",
        "params": {
          "contributionId": "This is the id of the contribution that is linked to this ballot ",
          "newCommunityReward": "This is the new reward amount counter offered by the voter",
          "newGovernanceReward": "This is the new reward amount counter offered by the voter",
          "voterId": "This is the id of the voter who's vote it is"
        }
      },
      "counterOfferAction(uint256,address,uint256,uint256,uint256)": {
        "details": "this is event which is created when the owner of the ballot takes action on a specific counter offer",
        "params": {
          "contributionId": "This is the id of the contribution that is linked to this ballot ",
          "newCommunityReward": "This is the new reward amount counter offered by the voter",
          "newGovernanceReward": "This is the new reward amount counter offered by the voter",
          "status": "This is the status of the counter offer that is => either ACCEPTED = 2 | REJECTED = 3",
          "voterId": "This is the id of the voter who's vote it is"
        }
      }
    },
    "kind": "dev",
    "methods": {
      "actionOnCounterOffer(uint256,address[],bool)": {
        "details": "This function is called by owner of the contribution to either accept or reject a counter offer",
        "params": {
          "action": "this is the state of the vote, if true than it means that user accepts the counter offfer",
          "contributionId": "this is the id of the contribution to which the counter offer belogs to",
          "counterOfferIds": "The id of counter offers in array to accept or reject multiple counter offers at once"
        }
      },
      "castVoteForContribution(uint256,bool)": {
        "details": "This function is called by any user to cast vote",
        "params": {
          "contributionId": "this is the id of the contribution for which user is voting",
          "vote": "this is the state of the vote, if true than it means the vote is in favour of the ballot"
        }
      },
      "createContributionVotingBallot(uint256,uint256,uint256,uint256,uint256,uint256)": {
        "details": "This function will create a new contribution voting ballot"
      },
      "declareWinner(uint256)": {
        "details": "This function can be called from external source and also from within the contract",
        "params": {
          "contributionId": "this is the id of the contribution to which the winner is to be decleared"
        }
      },
      "proposeCounterOffer(uint256,uint256,uint256)": {
        "details": "This function is called by any user to cast vote",
        "params": {
          "contributionId": "this is the id of the contribution for which user is creating a counter offer",
          "newCommunityReward": "new comunity token amount as reward for the negotition",
          "newGovernanceReward": "new governance token amount as reward for the negotition"
        }
      },
      "setContributionContractAddress(address)": {
        "details": "Sets the contribution contract address so that the voting ballot for contritbution can be restricted only to a certain contract that is the contribution contract"
      },
      "setOrderContractAddress(address)": {
        "details": "This function sets the treasury Contract address"
      },
      "setTreasuryContractAddress(address)": {
        "details": "This function sets the treasury Contract address"
      }
    },
    "version": 1
  },
  "userdoc": {
    "kind": "user",
    "methods": {},
    "version": 1
  }
}