{
  "contractName": "ContributionVotingContract",
  "abi": [
    {
      "inputs": [
        {
          "internalType": "uint8",
          "name": "votingInterval",
          "type": "uint8"
        },
        {
          "internalType": "address",
          "name": "owner",
          "type": "address"
        }
      ],
      "stateMutability": "nonpayable",
      "type": "constructor"
    },
    {
      "anonymous": false,
      "inputs": [
        {
          "indexed": false,
          "internalType": "uint256",
          "name": "contributionId",
          "type": "uint256"
        },
        {
          "indexed": false,
          "internalType": "uint256",
          "name": "ballotId",
          "type": "uint256"
        },
        {
          "indexed": false,
          "internalType": "bool",
          "name": "result",
          "type": "bool"
        }
      ],
      "name": "BallotResult",
      "type": "event"
    },
    {
      "anonymous": false,
      "inputs": [
        {
          "indexed": false,
          "internalType": "address",
          "name": "requester",
          "type": "address"
        },
        {
          "indexed": false,
          "internalType": "uint256",
          "name": "contributionId",
          "type": "uint256"
        },
        {
          "indexed": false,
          "internalType": "uint256",
          "name": "recordId",
          "type": "uint256"
        },
        {
          "indexed": false,
          "internalType": "uint256",
          "name": "communityReward",
          "type": "uint256"
        },
        {
          "indexed": false,
          "internalType": "uint256",
          "name": "communityTokenId",
          "type": "uint256"
        },
        {
          "indexed": false,
          "internalType": "uint256",
          "name": "governanceReward",
          "type": "uint256"
        },
        {
          "indexed": false,
          "internalType": "uint256",
          "name": "governanceTokenId",
          "type": "uint256"
        },
        {
          "indexed": false,
          "internalType": "uint256",
          "name": "ballotId",
          "type": "uint256"
        }
      ],
      "name": "ContributionBallotCreated",
      "type": "event"
    },
    {
      "anonymous": false,
      "inputs": [
        {
          "indexed": false,
          "internalType": "address",
          "name": "voter",
          "type": "address"
        },
        {
          "indexed": false,
          "internalType": "uint256",
          "name": "contributionId",
          "type": "uint256"
        },
        {
          "indexed": false,
          "internalType": "uint256",
          "name": "ballotId",
          "type": "uint256"
        },
        {
          "indexed": false,
          "internalType": "bool",
          "name": "vote",
          "type": "bool"
        }
      ],
      "name": "ContributionVoting",
      "type": "event"
    },
    {
      "anonymous": false,
      "inputs": [
        {
          "indexed": false,
          "internalType": "uint256",
          "name": "contributionId",
          "type": "uint256"
        },
        {
          "indexed": false,
          "internalType": "address",
          "name": "voterId",
          "type": "address"
        },
        {
          "indexed": false,
          "internalType": "uint256",
          "name": "newGovernanceReward",
          "type": "uint256"
        },
        {
          "indexed": false,
          "internalType": "uint256",
          "name": "newCommunityReward",
          "type": "uint256"
        }
      ],
      "name": "CounterOfferForContribution",
      "type": "event"
    },
    {
      "anonymous": false,
      "inputs": [
        {
          "indexed": false,
          "internalType": "uint8",
          "name": "version",
          "type": "uint8"
        }
      ],
      "name": "Initialized",
      "type": "event"
    },
    {
      "anonymous": false,
      "inputs": [
        {
          "indexed": false,
          "internalType": "uint256",
          "name": "contributionId",
          "type": "uint256"
        },
        {
          "indexed": false,
          "internalType": "address",
          "name": "voterId",
          "type": "address"
        },
        {
          "indexed": false,
          "internalType": "uint256",
          "name": "newGovernanceReward",
          "type": "uint256"
        },
        {
          "indexed": false,
          "internalType": "uint256",
          "name": "newCommunityReward",
          "type": "uint256"
        },
        {
          "indexed": false,
          "internalType": "uint256",
          "name": "status",
          "type": "uint256"
        }
      ],
      "name": "counterOfferAction",
      "type": "event"
    },
    {
      "inputs": [],
      "name": "CONTRIBUTION_CONTRACT_ADDRESS",
      "outputs": [
        {
          "internalType": "address",
          "name": "",
          "type": "address"
        }
      ],
      "stateMutability": "view",
      "type": "function"
    },
    {
      "inputs": [],
      "name": "OWNER",
      "outputs": [
        {
          "internalType": "address",
          "name": "",
          "type": "address"
        }
      ],
      "stateMutability": "view",
      "type": "function"
    },
    {
      "inputs": [],
      "name": "TREASURY_CONTRACT_ADDRESS",
      "outputs": [
        {
          "internalType": "address",
          "name": "",
          "type": "address"
        }
      ],
      "stateMutability": "view",
      "type": "function"
    },
    {
      "inputs": [],
      "name": "TREASURY_HUB_ADDRESS",
      "outputs": [
        {
          "internalType": "address",
          "name": "",
          "type": "address"
        }
      ],
      "stateMutability": "view",
      "type": "function"
    },
    {
      "inputs": [
        {
          "internalType": "address",
          "name": "user",
          "type": "address"
        },
        {
          "internalType": "uint256",
          "name": "tokenId",
          "type": "uint256"
        },
        {
          "internalType": "uint256",
          "name": "previousBalance",
          "type": "uint256"
        },
        {
          "internalType": "uint256",
          "name": "newBalance",
          "type": "uint256"
        }
      ],
      "name": "_handleUserTokenTransfers",
      "outputs": [],
      "stateMutability": "nonpayable",
      "type": "function"
    },
    {
      "inputs": [
        {
          "internalType": "address",
          "name": "ownerAddress",
          "type": "address"
        }
      ],
      "name": "setOwnerAddress",
      "outputs": [],
      "stateMutability": "nonpayable",
      "type": "function"
    },
    {
      "inputs": [
        {
          "internalType": "address",
          "name": "newTreasuryContractAddress",
          "type": "address"
        },
        {
          "internalType": "address",
          "name": "newContributionContractAddress",
          "type": "address"
        }
      ],
      "name": "initialize",
      "outputs": [],
      "stateMutability": "nonpayable",
      "type": "function"
    },
    {
      "inputs": [
        {
          "internalType": "address",
          "name": "newTreasuryContractAddress",
          "type": "address"
        }
      ],
      "name": "initialize",
      "outputs": [],
      "stateMutability": "nonpayable",
      "type": "function"
    },
    {
      "inputs": [
        {
          "internalType": "address",
          "name": "newContributionContractAddress",
          "type": "address"
        }
      ],
      "name": "setContributionContractAddress",
      "outputs": [],
      "stateMutability": "nonpayable",
      "type": "function"
    },
    {
      "inputs": [
        {
          "internalType": "uint256",
          "name": "contributionId",
          "type": "uint256"
        },
        {
          "internalType": "uint256",
          "name": "recordId",
          "type": "uint256"
        },
        {
          "internalType": "uint256",
          "name": "govReward",
          "type": "uint256"
        },
        {
          "internalType": "uint256",
          "name": "commReward",
          "type": "uint256"
        }
      ],
      "name": "createContributionVotingBallot",
      "outputs": [],
      "stateMutability": "nonpayable",
      "type": "function"
    },
    {
      "inputs": [
        {
          "internalType": "uint256",
          "name": "contributionId",
          "type": "uint256"
        },
        {
          "internalType": "bool",
          "name": "vote",
          "type": "bool"
        }
      ],
      "name": "castVoteForContribution",
      "outputs": [],
      "stateMutability": "nonpayable",
      "type": "function"
    },
    {
      "inputs": [
        {
          "internalType": "uint256",
          "name": "contributionId",
          "type": "uint256"
        },
        {
          "internalType": "uint256",
          "name": "newCommunityReward",
          "type": "uint256"
        },
        {
          "internalType": "uint256",
          "name": "newGovernanceReward",
          "type": "uint256"
        }
      ],
      "name": "proposeCounterOffer",
      "outputs": [],
      "stateMutability": "nonpayable",
      "type": "function"
    },
    {
      "inputs": [
        {
          "internalType": "uint256",
          "name": "contributionId",
          "type": "uint256"
        },
        {
          "internalType": "address[]",
          "name": "counterOfferIds",
          "type": "address[]"
        },
        {
          "internalType": "bool",
          "name": "action",
          "type": "bool"
        }
      ],
      "name": "actionOnCounterOffer",
      "outputs": [],
      "stateMutability": "nonpayable",
      "type": "function"
    },
    {
      "inputs": [
        {
          "internalType": "uint256",
          "name": "contributionId",
          "type": "uint256"
        }
      ],
      "name": "declareWinner",
      "outputs": [],
      "stateMutability": "nonpayable",
      "type": "function"
    }
  ],
  "bytecode": "0x6080604052601960015560006005553480156200001b57600080fd5b5060405162003d6338038062003d63833981810160405281019062000041919062000140565b808080600460006101000a81548173ffffffffffffffffffffffffffffffffffffffff021916908373ffffffffffffffffffffffffffffffffffffffff16021790555050508160ff16600181905550505062000187565b600080fd5b600060ff82169050919050565b620000b5816200009d565b8114620000c157600080fd5b50565b600081519050620000d581620000aa565b92915050565b600073ffffffffffffffffffffffffffffffffffffffff82169050919050565b60006200010882620000db565b9050919050565b6200011a81620000fb565b81146200012657600080fd5b50565b6000815190506200013a816200010f565b92915050565b600080604083850312156200015a576200015962000098565b5b60006200016a85828601620000c4565b92505060206200017d8582860162000129565b9150509250929050565b613bcc80620001976000396000f3fe608060405234801561001057600080fd5b50600436106100e95760003560e01c8063485cc9551161008c578063acb3149311610066578063acb314931461020c578063c4d66de81461022a578063c679968a14610246578063c9d5914314610262576100e9565b8063485cc955146101b65780638d2ae1f7146101d2578063abb7ed7f146101f0576100e9565b8063117803e3116100c8578063117803e314610144578063251686ed1461016257806329c50b591461017e578063331a6bf51461019a576100e9565b8062c2943c146100ee57806307c505b71461010a5780630d76a88214610128575b600080fd5b61010860048036038101906101039190612ac1565b61027e565b005b6101126104ad565b60405161011f9190612b2f565b60405180910390f35b610142600480360381019061013d9190612b4a565b6104d3565b005b61014c610871565b6040516101599190612b2f565b60405180910390f35b61017c60048036038101906101779190612be9565b610897565b005b61019860048036038101906101939190612c55565b610978565b005b6101b460048036038101906101af9190612c55565b610a4c565b005b6101d060048036038101906101cb9190612c82565b610b20565b005b6101da610d32565b6040516101e79190612b2f565b60405180910390f35b61020a60048036038101906102059190612cc2565b610d58565b005b610214610f51565b6040516102219190612b2f565b60405180910390f35b610244600480360381019061023f9190612c55565b610f77565b005b610260600480360381019061025b9190612d29565b610fd2565b005b61027c60048036038101906102779190612ed5565b611452565b005b6000600d600083815260200190815260200160002080548060200260200160405190810160405280929190818152602001828054801561031357602002820191906000526020600020905b8160009054906101000a900473ffffffffffffffffffffffffffffffffffffffff1673ffffffffffffffffffffffffffffffffffffffff16815260200190600101908083116102c9575b50505050509050600061033b600b6000858152602001908152602001600020600301546117ce565b90507fb8a8a92b56f183482e31ed93ed60da7274c03a6bc11b2c0e75cec8ff5a8058f283600b6000868152602001908152602001600020600301548360405161038693929190612f62565b60405180910390a180156104a8576000600260009054906101000a900473ffffffffffffffffffffffffffffffffffffffff1690508073ffffffffffffffffffffffffffffffffffffffff16638388f413600b600087815260200190815260200160002060000160009054906101000a900473ffffffffffffffffffffffffffffffffffffffff16600b60008881526020019081526020016000206002015487600b60008a815260200190815260200160002060060154600b60008b8152602001908152602001600020600401546040518663ffffffff1660e01b8152600401610474959493929190612f99565b600060405180830381600087803b15801561048e57600080fd5b505af11580156104a2573d6000803e3d6000fd5b50505050505b505050565b600e60009054906101000a900473ffffffffffffffffffffffffffffffffffffffff1681565b600e60009054906101000a900473ffffffffffffffffffffffffffffffffffffffff1673ffffffffffffffffffffffffffffffffffffffff163373ffffffffffffffffffffffffffffffffffffffff1614610563576040517f08c379a000000000000000000000000000000000000000000000000000000000815260040161055a9061306f565b60405180910390fd5b60001515600b600086815260200190815260200160002060080160009054906101000a900460ff161515146105cd576040517f08c379a00000000000000000000000000000000000000000000000000000000081526004016105c4906130db565b60405180910390fd5b6000600260009054906101000a900473ffffffffffffffffffffffffffffffffffffffff16905060008173ffffffffffffffffffffffffffffffffffffffff16632d4a0382866040518263ffffffff1660e01b815260040161062f91906130fb565b602060405180830381865afa15801561064c573d6000803e3d6000fd5b505050506040513d601f19601f82011682018060405250810190610670919061312b565b905060008273ffffffffffffffffffffffffffffffffffffffff1663d6ca40a7876040518263ffffffff1660e01b81526004016106ad91906130fb565b602060405180830381865afa1580156106ca573d6000803e3d6000fd5b505050506040513d601f19601f820116820180604052508101906106ee919061312b565b905060006106fd600184611a4b565b905060006040518061012001604052803273ffffffffffffffffffffffffffffffffffffffff1681526020018a81526020018981526020018381526020018781526020018481526020018881526020018581526020016001151581525090507f841b71ba38f7c6cc93d8235b87ac4a1f87adee1f9d562d9e0421744c8b2d5d5a338a8a89878c8a89604051610799989796959493929190613158565b60405180910390a180600b60008b815260200190815260200160002060008201518160000160006101000a81548173ffffffffffffffffffffffffffffffffffffffff021916908373ffffffffffffffffffffffffffffffffffffffff1602179055506020820151816001015560408201518160020155606082015181600301556080820151816004015560a0820151816005015560c0820151816006015560e082015181600701556101008201518160080160006101000a81548160ff021916908315150217905550905050505050505050505050565b600460009054906101000a900473ffffffffffffffffffffffffffffffffffffffff1681565b60011515600b600084815260200190815260200160002060080160009054906101000a900460ff16151514610901576040517f08c379a00000000000000000000000000000000000000000000000000000000081526004016108f890613222565b60405180910390fd5b610921600b60008481526020019081526020016000206003015482611be8565b7fc94df962ce83bb9f5099c0364215ad4932ed320a795c370dc62619a373a9518e3383600b6000868152602001908152602001600020600301548460405161096c9493929190613242565b60405180910390a15050565b600460009054906101000a900473ffffffffffffffffffffffffffffffffffffffff1673ffffffffffffffffffffffffffffffffffffffff163373ffffffffffffffffffffffffffffffffffffffff1614610a08576040517f08c379a00000000000000000000000000000000000000000000000000000000081526004016109ff906132f9565b60405180910390fd5b80600e60006101000a81548173ffffffffffffffffffffffffffffffffffffffff021916908373ffffffffffffffffffffffffffffffffffffffff16021790555050565b600460009054906101000a900473ffffffffffffffffffffffffffffffffffffffff1673ffffffffffffffffffffffffffffffffffffffff163373ffffffffffffffffffffffffffffffffffffffff1614610adc576040517f08c379a0000000000000000000000000000000000000000000000000000000008152600401610ad3906132f9565b60405180910390fd5b80600460006101000a81548173ffffffffffffffffffffffffffffffffffffffff021916908373ffffffffffffffffffffffffffffffffffffffff16021790555050565b60008060019054906101000a900460ff16159050808015610b515750600160008054906101000a900460ff1660ff16105b80610b7e5750610b6030611c9c565b158015610b7d5750600160008054906101000a900460ff1660ff16145b5b610bbd576040517f08c379a0000000000000000000000000000000000000000000000000000000008152600401610bb49061338b565b60405180910390fd5b60016000806101000a81548160ff021916908360ff1602179055508015610bfa576001600060016101000a81548160ff0219169083151502179055505b600460009054906101000a900473ffffffffffffffffffffffffffffffffffffffff1673ffffffffffffffffffffffffffffffffffffffff163373ffffffffffffffffffffffffffffffffffffffff1614610c8a576040517f08c379a0000000000000000000000000000000000000000000000000000000008152600401610c81906132f9565b60405180910390fd5b610c9383610f77565b81600e60006101000a81548173ffffffffffffffffffffffffffffffffffffffff021916908373ffffffffffffffffffffffffffffffffffffffff1602179055508015610d2d5760008060016101000a81548160ff0219169083151502179055507f7f26b83ff96e1f2b6a682f133852f6798a09c465da95921460cefb38474024986001604051610d2491906133fd565b60405180910390a15b505050565b600360009054906101000a900473ffffffffffffffffffffffffffffffffffffffff1681565b6000600960008673ffffffffffffffffffffffffffffffffffffffff1673ffffffffffffffffffffffffffffffffffffffff168152602001908152602001600020905060005b8180549050811015610f49576001151560066000848481548110610dc557610dc4613418565b5b9060005260206000200154815260200190815260200160002060070160009054906101000a900460ff1615151480610e2f57504360066000848481548110610e1057610e0f613418565b5b9060005260206000200154815260200190815260200160002060060154105b15610ed0578160018380549050610e469190613476565b81548110610e5757610e56613418565b5b9060005260206000200154828281548110610e7557610e74613418565b5b906000526020600020018190555081805480610e9457610e936134aa565b5b600190038181906000526020600020016000905590556000811415610ebc5760009050610ecb565b8080610ec7906134d9565b9150505b610f36565b60066000838381548110610ee757610ee6613418565b5b9060005260206000200154815260200190815260200160002060050154851415610f3557610f34828281548110610f2157610f20613418565b5b9060005260206000200154878686611cbf565b5b5b8080610f4190613503565b915050610d9e565b505050505050565b600260009054906101000a900473ffffffffffffffffffffffffffffffffffffffff1681565b600060019054906101000a900460ff16610fc6576040517f08c379a0000000000000000000000000000000000000000000000000000000008152600401610fbd906135be565b60405180910390fd5b610fcf81611e8c565b50565b600b6000848152602001908152602001600020600301546006600082815260200190815260200160002060070160019054906101000a900460ff16156110bb57600015156007600083815260200190815260200160002060003273ffffffffffffffffffffffffffffffffffffffff1673ffffffffffffffffffffffffffffffffffffffff16815260200190815260200160002060009054906101000a900460ff161515146110b6576040517f08c379a00000000000000000000000000000000000000000000000000000000081526004016110ad9061362a565b60405180910390fd5b611161565b6006600082815260200190815260200160002060000160009054906101000a900473ffffffffffffffffffffffffffffffffffffffff1673ffffffffffffffffffffffffffffffffffffffff163273ffffffffffffffffffffffffffffffffffffffff161415611160576040517f08c379a000000000000000000000000000000000000000000000000000000000815260040161115790613696565b60405180910390fd5b5b600b60008581526020019081526020016000206003015433600115156006600084815260200190815260200160002060070160029054906101000a900460ff161515146111e3576040517f08c379a00000000000000000000000000000000000000000000000000000000081526004016111da90613702565b60405180910390fd5b4360066000848152602001908152602001600020600601541161123b576040517f08c379a00000000000000000000000000000000000000000000000000000000081526004016112329061376e565b60405180910390fd5b600015156007600084815260200190815260200160002060008373ffffffffffffffffffffffffffffffffffffffff1673ffffffffffffffffffffffffffffffffffffffff16815260200190815260200160002060009054906101000a900460ff161515146112df576040517f08c379a00000000000000000000000000000000000000000000000000000000081526004016112d69061362a565b60405180910390fd5b6112fe600b600088815260200190815260200160002060030154611f1f565b6000604051806060016040528087815260200186815260200160018152509050600d6000888152602001908152602001600020339080600181540180825580915050600190039060005260206000200160009091909190916101000a81548173ffffffffffffffffffffffffffffffffffffffff021916908373ffffffffffffffffffffffffffffffffffffffff16021790555080600c600089815260200190815260200160002060003373ffffffffffffffffffffffffffffffffffffffff1673ffffffffffffffffffffffffffffffffffffffff1681526020019081526020016000206000820151816000015560208201518160010155604082015181600201559050507f920106c0a661b88d3e90d906bbcd9e579abab6ff29031cb1cc958ddebae47fb8873383602001518460000151604051611441949392919061378e565b60405180910390a150505050505050565b60005b82518110156117c8576001600c6000868152602001908152602001600020600085848151811061148857611487613418565b5b602002602001015173ffffffffffffffffffffffffffffffffffffffff1673ffffffffffffffffffffffffffffffffffffffff1681526020019081526020016000206002015414156117b5578115611704576000600c6000868152602001908152602001600020600085848151811061150457611503613418565b5b602002602001015173ffffffffffffffffffffffffffffffffffffffff1673ffffffffffffffffffffffffffffffffffffffff1681526020019081526020016000206001015490506000600c6000878152602001908152602001600020600086858151811061157657611575613418565b5b602002602001015173ffffffffffffffffffffffffffffffffffffffff1673ffffffffffffffffffffffffffffffffffffffff16815260200190815260200160002060000154905080600b60008881526020019081526020016000206004018190555081600b6000888152602001908152602001600020600601819055506002600c6000888152602001908152602001600020600087868151811061161e5761161d613418565b5b602002602001015173ffffffffffffffffffffffffffffffffffffffff1673ffffffffffffffffffffffffffffffffffffffff168152602001908152602001600020600201819055506116a3600b60008881526020019081526020016000206003015486858151811061169457611693613418565b5b6020026020010151600161219b565b7fd992f385523dde33af41e13ab8ac788e6a9d7bf3278f3a70d16c150ff43115e5868685815181106116d8576116d7613418565b5b6020026020010151848460026040516116f595949392919061380e565b60405180910390a150506117b4565b611740600b60008681526020019081526020016000206003015484838151811061173157611730613418565b5b6020026020010151600061219b565b6003600c6000868152602001908152602001600020600085848151811061176a57611769613418565b5b602002602001015173ffffffffffffffffffffffffffffffffffffffff1673ffffffffffffffffffffffffffffffffffffffff168152602001908152602001600020600201819055505b5b80806117c090613503565b915050611455565b50505050565b6000600115156006600084815260200190815260200160002060070160029054906101000a900460ff1615151461183a576040517f08c379a000000000000000000000000000000000000000000000000000000000815260040161183190613702565b60405180910390fd5b43600660008481526020019081526020016000206006015410611892576040517f08c379a00000000000000000000000000000000000000000000000000000000081526004016118899061376e565b60405180910390fd5b600015156006600084815260200190815260200160002060070160009054906101000a900460ff161515146118fc576040517f08c379a00000000000000000000000000000000000000000000000000000000081526004016118f3906138ad565b60405180910390fd5b60006006600084815260200190815260200160002090506000816001015490506000600260009054906101000a900473ffffffffffffffffffffffffffffffffffffffff16905060016006600087815260200190815260200160002060070160006101000a81548160ff0219169083151502179055506000821115611a3e5760008173ffffffffffffffffffffffffffffffffffffffff1663036c22ad85600501546040518263ffffffff1660e01b81526004016119ba91906130fb565b602060405180830381865afa1580156119d7573d6000803e3d6000fd5b505050506040513d601f19601f820116820180604052508101906119fb919061312b565b905060006064604283611a0e91906138cd565b611a189190613956565b905080841115611a3057600195505050505050611a46565b600095505050505050611a46565b600093505050505b919050565b600060056000815480929190611a6090613503565b919050555060006040518061014001604052803273ffffffffffffffffffffffffffffffffffffffff1681526020016000815260200160008152602001600081526020016000815260200184815260200160015443611abf9190613987565b815260200160001515815260200185151581526020016001151581525090508060066000600554815260200190815260200160002060008201518160000160006101000a81548173ffffffffffffffffffffffffffffffffffffffff021916908373ffffffffffffffffffffffffffffffffffffffff1602179055506020820151816001015560408201518160020155606082015181600301556080820151816004015560a0820151816005015560c0820151816006015560e08201518160070160006101000a81548160ff0219169083151502179055506101008201518160070160016101000a81548160ff0219169083151502179055506101208201518160070160026101000a81548160ff02191690831515021790555090505060055491505092915050565b8160001515600a600083815260200190815260200160002060003373ffffffffffffffffffffffffffffffffffffffff1673ffffffffffffffffffffffffffffffffffffffff16815260200190815260200160002060009054906101000a900460ff16151514611c8d576040517f08c379a0000000000000000000000000000000000000000000000000000000008152600401611c8490613a29565b60405180910390fd5b611c978383612253565b505050565b6000808273ffffffffffffffffffffffffffffffffffffffff163b119050919050565b600115156007600086815260200190815260200160002060008573ffffffffffffffffffffffffffffffffffffffff1673ffffffffffffffffffffffffffffffffffffffff16815260200190815260200160002060009054906101000a900460ff16151514611d63576040517f08c379a0000000000000000000000000000000000000000000000000000000008152600401611d5a90613abb565b60405180910390fd5b60006008600086815260200190815260200160002060008573ffffffffffffffffffffffffffffffffffffffff1673ffffffffffffffffffffffffffffffffffffffff16815260200190815260200160002060009054906101000a900460ff1690508015611e2a5782600660008781526020019081526020016000206001016000828254611df19190613476565b9250508190555081600660008781526020019081526020016000206001016000828254611e1e9190613987565b92505081905550611e85565b82600660008781526020019081526020016000206003016000828254611e509190613476565b9250508190555081600660008781526020019081526020016000206003016000828254611e7d9190613987565b925050819055505b5050505050565b600060019054906101000a900460ff16611edb576040517f08c379a0000000000000000000000000000000000000000000000000000000008152600401611ed2906135be565b60405180910390fd5b80600260006101000a81548173ffffffffffffffffffffffffffffffffffffffff021916908373ffffffffffffffffffffffffffffffffffffffff16021790555050565b8060001515600a600083815260200190815260200160002060003373ffffffffffffffffffffffffffffffffffffffff1673ffffffffffffffffffffffffffffffffffffffff16815260200190815260200160002060009054906101000a900460ff16151514611fc4576040517f08c379a0000000000000000000000000000000000000000000000000000000008152600401611fbb90613a29565b60405180910390fd5b8133600115156006600084815260200190815260200160002060070160029054906101000a900460ff16151514612030576040517f08c379a000000000000000000000000000000000000000000000000000000000815260040161202790613702565b60405180910390fd5b43600660008481526020019081526020016000206006015411612088576040517f08c379a000000000000000000000000000000000000000000000000000000000815260040161207f9061376e565b60405180910390fd5b600015156007600084815260200190815260200160002060008373ffffffffffffffffffffffffffffffffffffffff1673ffffffffffffffffffffffffffffffffffffffff16815260200190815260200160002060009054906101000a900460ff1615151461212c576040517f08c379a00000000000000000000000000000000000000000000000000000000081526004016121239061362a565b60405180910390fd5b6001600a600086815260200190815260200160002060003373ffffffffffffffffffffffffffffffffffffffff1673ffffffffffffffffffffffffffffffffffffffff16815260200190815260200160002060006101000a81548160ff02191690831515021790555050505050565b828260011515600a600084815260200190815260200160002060008373ffffffffffffffffffffffffffffffffffffffff1673ffffffffffffffffffffffffffffffffffffffff16815260200190815260200160002060009054906101000a900460ff16151514612241576040517f08c379a000000000000000000000000000000000000000000000000000000000815260040161223890613b4d565b60405180910390fd5b61224c858486612546565b5050505050565b8133600115156006600084815260200190815260200160002060070160029054906101000a900460ff161515146122bf576040517f08c379a00000000000000000000000000000000000000000000000000000000081526004016122b690613702565b60405180910390fd5b43600660008481526020019081526020016000206006015411612317576040517f08c379a000000000000000000000000000000000000000000000000000000000815260040161230e9061376e565b60405180910390fd5b600015156007600084815260200190815260200160002060008373ffffffffffffffffffffffffffffffffffffffff1673ffffffffffffffffffffffffffffffffffffffff16815260200190815260200160002060009054906101000a900460ff161515146123bb576040517f08c379a00000000000000000000000000000000000000000000000000000000081526004016123b29061362a565b60405180910390fd5b836006600082815260200190815260200160002060070160019054906101000a900460ff161561248e57600015156007600083815260200190815260200160002060003273ffffffffffffffffffffffffffffffffffffffff1673ffffffffffffffffffffffffffffffffffffffff16815260200190815260200160002060009054906101000a900460ff16151514612489576040517f08c379a00000000000000000000000000000000000000000000000000000000081526004016124809061362a565b60405180910390fd5b612534565b6006600082815260200190815260200160002060000160009054906101000a900473ffffffffffffffffffffffffffffffffffffffff1673ffffffffffffffffffffffffffffffffffffffff163273ffffffffffffffffffffffffffffffffffffffff161415612533576040517f08c379a000000000000000000000000000000000000000000000000000000000815260040161252a90613696565b60405180910390fd5b5b61253f8585326126c0565b5050505050565b8281600115156006600084815260200190815260200160002060070160029054906101000a900460ff161515146125b2576040517f08c379a00000000000000000000000000000000000000000000000000000000081526004016125a990613702565b60405180910390fd5b4360066000848152602001908152602001600020600601541161260a576040517f08c379a00000000000000000000000000000000000000000000000000000000081526004016126019061376e565b60405180910390fd5b600015156007600084815260200190815260200160002060008373ffffffffffffffffffffffffffffffffffffffff1673ffffffffffffffffffffffffffffffffffffffff16815260200190815260200160002060009054906101000a900460ff161515146126ae576040517f08c379a00000000000000000000000000000000000000000000000000000000081526004016126a59061362a565b60405180910390fd5b6126b98585856126c0565b5050505050565b6000600260009054906101000a900473ffffffffffffffffffffffffffffffffffffffff169050600060066000868152602001908152602001600020604051806101400160405290816000820160009054906101000a900473ffffffffffffffffffffffffffffffffffffffff1673ffffffffffffffffffffffffffffffffffffffff1673ffffffffffffffffffffffffffffffffffffffff1681526020016001820154815260200160028201548152602001600382015481526020016004820154815260200160058201548152602001600682015481526020016007820160009054906101000a900460ff161515151581526020016007820160019054906101000a900460ff161515151581526020016007820160029054906101000a900460ff161515151581525050905060008273ffffffffffffffffffffffffffffffffffffffff1662fdd58e858460a001516040518363ffffffff1660e01b815260040161282d929190613b6d565b602060405180830381865afa15801561284a573d6000803e3d6000fd5b505050506040513d601f19601f8201168201806040525081019061286e919061312b565b905084156128d6578060066000888152602001908152602001600020600101600082825461289c9190613987565b9250508190555060016006600088815260200190815260200160002060020160008282546128ca9190613987565b92505081905550612932565b806006600088815260200190815260200160002060030160008282546128fc9190613987565b92505081905550600160066000888152602001908152602001600020600401600082825461292a9190613987565b925050819055505b60016007600088815260200190815260200160002060008673ffffffffffffffffffffffffffffffffffffffff1673ffffffffffffffffffffffffffffffffffffffff16815260200190815260200160002060006101000a81548160ff021916908315150217905550846008600088815260200190815260200160002060008673ffffffffffffffffffffffffffffffffffffffff1673ffffffffffffffffffffffffffffffffffffffff16815260200190815260200160002060006101000a81548160ff0219169083151502179055506000600960008673ffffffffffffffffffffffffffffffffffffffff1673ffffffffffffffffffffffffffffffffffffffff16815260200190815260200160002090508087908060018154018082558091505060019003906000526020600020016000909190919091505550505050505050565b6000604051905090565b600080fd5b600080fd5b6000819050919050565b612a9e81612a8b565b8114612aa957600080fd5b50565b600081359050612abb81612a95565b92915050565b600060208284031215612ad757612ad6612a81565b5b6000612ae584828501612aac565b91505092915050565b600073ffffffffffffffffffffffffffffffffffffffff82169050919050565b6000612b1982612aee565b9050919050565b612b2981612b0e565b82525050565b6000602082019050612b446000830184612b20565b92915050565b60008060008060808587031215612b6457612b63612a81565b5b6000612b7287828801612aac565b9450506020612b8387828801612aac565b9350506040612b9487828801612aac565b9250506060612ba587828801612aac565b91505092959194509250565b60008115159050919050565b612bc681612bb1565b8114612bd157600080fd5b50565b600081359050612be381612bbd565b92915050565b60008060408385031215612c0057612bff612a81565b5b6000612c0e85828601612aac565b9250506020612c1f85828601612bd4565b9150509250929050565b612c3281612b0e565b8114612c3d57600080fd5b50565b600081359050612c4f81612c29565b92915050565b600060208284031215612c6b57612c6a612a81565b5b6000612c7984828501612c40565b91505092915050565b60008060408385031215612c9957612c98612a81565b5b6000612ca785828601612c40565b9250506020612cb885828601612c40565b9150509250929050565b60008060008060808587031215612cdc57612cdb612a81565b5b6000612cea87828801612c40565b9450506020612cfb87828801612aac565b9350506040612d0c87828801612aac565b9250506060612d1d87828801612aac565b91505092959194509250565b600080600060608486031215612d4257612d41612a81565b5b6000612d5086828701612aac565b9350506020612d6186828701612aac565b9250506040612d7286828701612aac565b9150509250925092565b600080fd5b6000601f19601f8301169050919050565b7f4e487b7100000000000000000000000000000000000000000000000000000000600052604160045260246000fd5b612dca82612d81565b810181811067ffffffffffffffff82111715612de957612de8612d92565b5b80604052505050565b6000612dfc612a77565b9050612e088282612dc1565b919050565b600067ffffffffffffffff821115612e2857612e27612d92565b5b602082029050602081019050919050565b600080fd5b6000612e51612e4c84612e0d565b612df2565b90508083825260208201905060208402830185811115612e7457612e73612e39565b5b835b81811015612e9d5780612e898882612c40565b845260208401935050602081019050612e76565b5050509392505050565b600082601f830112612ebc57612ebb612d7c565b5b8135612ecc848260208601612e3e565b91505092915050565b600080600060608486031215612eee57612eed612a81565b5b6000612efc86828701612aac565b935050602084013567ffffffffffffffff811115612f1d57612f1c612a86565b5b612f2986828701612ea7565b9250506040612f3a86828701612bd4565b9150509250925092565b612f4d81612a8b565b82525050565b612f5c81612bb1565b82525050565b6000606082019050612f776000830186612f44565b612f846020830185612f44565b612f916040830184612f53565b949350505050565b600060a082019050612fae6000830188612b20565b612fbb6020830187612f44565b612fc86040830186612f44565b612fd56060830185612f44565b612fe26080830184612f44565b9695505050505050565b600082825260208201905092915050565b7f554e415554484f52495a45443a204f4e4c595f434f4e545249425554494f4e5f60008201527f434f4e5452414354000000000000000000000000000000000000000000000000602082015250565b6000613059602883612fec565b915061306482612ffd565b604082019050919050565b600060208201905081810360008301526130888161304c565b9050919050565b7f494e56414c49443a2042414c4c4f545f414c52454144595f4352454154454400600082015250565b60006130c5601f83612fec565b91506130d08261308f565b602082019050919050565b600060208201905081810360008301526130f4816130b8565b9050919050565b60006020820190506131106000830184612f44565b92915050565b60008151905061312581612a95565b92915050565b60006020828403121561314157613140612a81565b5b600061314f84828501613116565b91505092915050565b60006101008201905061316e600083018b612b20565b61317b602083018a612f44565b6131886040830189612f44565b6131956060830188612f44565b6131a26080830187612f44565b6131af60a0830186612f44565b6131bc60c0830185612f44565b6131c960e0830184612f44565b9998505050505050505050565b7f494e56414c49443a20434f4e545249425554494f4e5f49440000000000000000600082015250565b600061320c601883612fec565b9150613217826131d6565b602082019050919050565b6000602082019050818103600083015261323b816131ff565b9050919050565b60006080820190506132576000830187612b20565b6132646020830186612f44565b6132716040830185612f44565b61327e6060830184612f53565b95945050505050565b7f554e415554484f52495a45443a2043414e4e4f545f504552464f524d5f41435460008201527f494f4e0000000000000000000000000000000000000000000000000000000000602082015250565b60006132e3602383612fec565b91506132ee82613287565b604082019050919050565b60006020820190508181036000830152613312816132d6565b9050919050565b7f496e697469616c697a61626c653a20636f6e747261637420697320616c72656160008201527f647920696e697469616c697a6564000000000000000000000000000000000000602082015250565b6000613375602e83612fec565b915061338082613319565b604082019050919050565b600060208201905081810360008301526133a481613368565b9050919050565b6000819050919050565b600060ff82169050919050565b6000819050919050565b60006133e76133e26133dd846133ab565b6133c2565b6133b5565b9050919050565b6133f7816133cc565b82525050565b600060208201905061341260008301846133ee565b92915050565b7f4e487b7100000000000000000000000000000000000000000000000000000000600052603260045260246000fd5b7f4e487b7100000000000000000000000000000000000000000000000000000000600052601160045260246000fd5b600061348182612a8b565b915061348c83612a8b565b92508282101561349f5761349e613447565b5b828203905092915050565b7f4e487b7100000000000000000000000000000000000000000000000000000000600052603160045260246000fd5b60006134e482612a8b565b915060008214156134f8576134f7613447565b5b600182039050919050565b600061350e82612a8b565b91507fffffffffffffffffffffffffffffffffffffffffffffffffffffffffffffffff82141561354157613540613447565b5b600182019050919050565b7f496e697469616c697a61626c653a20636f6e7472616374206973206e6f74206960008201527f6e697469616c697a696e67000000000000000000000000000000000000000000602082015250565b60006135a8602b83612fec565b91506135b38261354c565b604082019050919050565b600060208201905081810360008301526135d78161359b565b9050919050565b7f494e56414c49443a20414c52454144595f564f54454400000000000000000000600082015250565b6000613614601683612fec565b915061361f826135de565b602082019050919050565b6000602082019050818103600083015261364381613607565b9050919050565b7f554e415554484f52495a45443a204f574e45525f43414e4e4f545f564f544500600082015250565b6000613680601f83612fec565b915061368b8261364a565b602082019050919050565b600060208201905081810360008301526136af81613673565b9050919050565b7f494e56414c49443a2042414c4c4f545f4e4f545f464f554e4400000000000000600082015250565b60006136ec601983612fec565b91506136f7826136b6565b602082019050919050565b6000602082019050818103600083015261371b816136df565b9050919050565b7f494e56414c49443a20564f54494e475f54494d455f4f56455200000000000000600082015250565b6000613758601983612fec565b915061376382613722565b602082019050919050565b600060208201905081810360008301526137878161374b565b9050919050565b60006080820190506137a36000830187612f44565b6137b06020830186612b20565b6137bd6040830185612f44565b6137ca6060830184612f44565b95945050505050565b6000819050919050565b60006137f86137f36137ee846137d3565b6133c2565b612a8b565b9050919050565b613808816137dd565b82525050565b600060a0820190506138236000830188612f44565b6138306020830187612b20565b61383d6040830186612f44565b61384a6060830185612f44565b61385760808301846137ff565b9695505050505050565b7f494e56414c49443a20524553554c545f414c52454144595f4445434c41524544600082015250565b6000613897602083612fec565b91506138a282613861565b602082019050919050565b600060208201905081810360008301526138c68161388a565b9050919050565b60006138d882612a8b565b91506138e383612a8b565b9250817fffffffffffffffffffffffffffffffffffffffffffffffffffffffffffffffff048311821515161561391c5761391b613447565b5b828202905092915050565b7f4e487b7100000000000000000000000000000000000000000000000000000000600052601260045260246000fd5b600061396182612a8b565b915061396c83612a8b565b92508261397c5761397b613927565b5b828204905092915050565b600061399282612a8b565b915061399d83612a8b565b9250827fffffffffffffffffffffffffffffffffffffffffffffffffffffffffffffffff038211156139d2576139d1613447565b5b828201905092915050565b7f494e56414c49443a20414c52454144595f434f554e5445525f4f464645524544600082015250565b6000613a13602083612fec565b9150613a1e826139dd565b602082019050919050565b60006020820190508181036000830152613a4281613a06565b9050919050565b7f494e56414c49443a20494e5445524e414c3a20555345525f4841535f4e4f545f60008201527f564f544544000000000000000000000000000000000000000000000000000000602082015250565b6000613aa5602583612fec565b9150613ab082613a49565b604082019050919050565b60006020820190508181036000830152613ad481613a98565b9050919050565b7f494e56414c49443a20434f554e5445525f4f464645525f4e4f545f455849535460008201527f5300000000000000000000000000000000000000000000000000000000000000602082015250565b6000613b37602183612fec565b9150613b4282613adb565b604082019050919050565b60006020820190508181036000830152613b6681613b2a565b9050919050565b6000604082019050613b826000830185612b20565b613b8f6020830184612f44565b939250505056fea2646970667358221220f79fda96508b8a1ed9ecc8570e4fee5bf0a5fed2ed95b16ffd70eb8c121455d864736f6c634300080c0033",
  "immutableReferences": {},
  "source": "// SPDX-License-Identifier: MIT\npragma solidity ^0.8.0;\n\nimport \"./BaseVotingCounterOfferContract.sol\";\nimport \"../interface/ITreasury.sol\";\n\ncontract ContributionVotingContract is BaseVotingCounterOfferContract {\n    /// @dev This structure will hold the data for contribution rewards\n    /// @param requester This is the person who has contributed and is seeking for reward\n    /// @param contributionId This is the contribution id\n    /// @param recordId This is the record id to which the reward belongs to\n    /// @param ballotId This is the ballot id of the reward\n    /// @param communityReward This is the community reward amount\n    /// @param communityTokenId This is the id of community token\n    /// @param governanceReward This is the amount of governance token requested as reward\n    /// @param governanceTokenId This is the id of governance token\n    /// @param isPresent This is to check if a contribution is present for a specific contribution\n    struct ContributionReward {\n        address requester;\n        uint256 contributionId;\n        uint256 recordId;\n        uint256 ballotId;\n        uint256 communityReward;\n        uint256 communityTokenId;\n        uint256 governanceReward;\n        uint256 governanceTokenId;\n        bool isPresent;\n    }\n\n    /// @dev This structure will hold the data for contribution rewards\n    /// @param newCommunityReward This is the community reward amount\n    /// @param newGovernanceReward This is the amount of governance token requested as reward\n    /// @param status This is status of the offer that is either : PENDING = 1 | ACCEPTED = 2 | REJECTED = 3\n    struct CounterOffer {\n        uint256 newCommunityReward;\n        uint256 newGovernanceReward;\n        uint256 status;\n    }\n\n    /// @notice This event is emitted when a contribution ballot is created by a user and it hold the following details\n    /// @dev This event is emitted during contribution ballot creation\n    /// @param requester This is the person who has contributed and is seeking for reward\n    /// @param contributionId This is the contribution id\n    /// @param recordId This is the record id to which the reward belongs to\n    /// @param communityReward This is the community reward amount\n    /// @param communityTokenId This is the id of community token\n    /// @param governanceReward This is the amount of governance token requested as reward\n    /// @param governanceTokenId This is the id of governance token\n    /// @param ballotId This is the ballot id of the reward\n    event ContributionBallotCreated(\n        address requester,\n        uint256 contributionId,\n        uint256 recordId,\n        uint256 communityReward,\n        uint256 communityTokenId,\n        uint256 governanceReward,\n        uint256 governanceTokenId,\n        uint256 ballotId\n    );\n\n    /// @dev This is when a vote is given by user.\n    /// @param voter Address of the voter\n    /// @param contributionId This is the id of the contribution that is linked to this ballot\n    /// @param ballotId Id of the ballot where voting is stored\n    /// @param vote State of vote : true for yes and false for No\n    event ContributionVoting(\n        address voter,\n        uint256 contributionId,\n        uint256 ballotId,\n        bool vote\n    );\n\n    /// @dev this is event which is created when a user proposes counter offer\n    /// @param contributionId This is the id of the contribution that is linked to this ballot\n    /// @param voterId This is the id of the voter who's vote it is\n    /// @param newGovernanceReward This is the new reward amount counter offered by the voter\n    /// @param newCommunityReward This is the new reward amount counter offered by the voter\n    event CounterOfferForContribution(\n        uint256 contributionId,\n        address voterId,\n        uint256 newGovernanceReward,\n        uint256 newCommunityReward\n    );\n\n    /// @dev this is event which is created when the owner of the ballot takes action on a specific counter offer\n    /// @param contributionId This is the id of the contribution that is linked to this ballot\n    /// @param voterId This is the id of the voter who's vote it is\n    /// @param newGovernanceReward This is the new reward amount counter offered by the voter\n    /// @param newCommunityReward This is the new reward amount counter offered by the voter\n    /// @param status This is the status of the counter offer that is => either ACCEPTED = 2 | REJECTED = 3\n    event counterOfferAction(\n        uint256 contributionId,\n        address voterId,\n        uint256 newGovernanceReward,\n        uint256 newCommunityReward,\n        uint256 status\n    );\n\n    /// @dev this event is genrated when result of a ballot is declared\n    /// @param contributionId This is the id of the contribution that is linked to this ballot\n    /// @param ballotId this is the ballot Id for which result is declared\n    /// @param result this is the status of the result, either true if user won that is\n    /// he received more than 66% of votes or false if user lost\n    event BallotResult(uint256 contributionId, uint256 ballotId, bool result);\n\n    mapping(uint256 => ContributionReward) rewardMapping;\n    //Bellow mapping is ContributionId => User's address => Counter Offer data\n    mapping(uint256 => mapping(address => CounterOffer)) contributionCounterOfferMap;\n    //This contains all the keys (The key's are users address) of the mapping of the counterOfferMapping.\n    mapping(uint256 => address[]) contributionCounterOfferList;\n    address public CONTRIBUTION_CONTRACT_ADDRESS;\n\n    constructor(uint8 votingInterval, address owner)\n        BaseVotingCounterOfferContract(owner)\n    {\n        VOTING_BLOCK_PERIOD = votingInterval;\n    }\n\n    modifier _onlyContributionContract() {\n        require(\n            msg.sender == CONTRIBUTION_CONTRACT_ADDRESS,\n            \"UNAUTHORIZED: ONLY_CONTRIBUTION_CONTRACT\"\n        );\n        _;\n    }\n\n    /// @dev This is to set the address of the contracts\n    /// @param newTreasuryContractAddress This is the address of new treasury contract\n    /// @param newContributionContractAddress This is the address of new voting hub contract\n    function initialize(\n        address newTreasuryContractAddress,\n        address newContributionContractAddress\n    ) public initializer _ownerOnly {\n        BaseVotingCounterOfferContract.initialize(newTreasuryContractAddress);\n        CONTRIBUTION_CONTRACT_ADDRESS = newContributionContractAddress;\n    }\n\n    // /// @dev This function sets the treasury Contract address\n    // function setTreasuryContractAddress(address newTreasuryContractAddress)\n    //     external\n    //     _ownerOnly\n    // {\n    //     _setTreasuryContractAddress(newTreasuryContractAddress);\n    // }\n\n    /// @dev Sets the contribution contract address so that the voting ballot for contribution can\n    /// be restricted only to a certain contract that is the contribution contract\n    function setContributionContractAddress(\n        address newContributionContractAddress\n    ) public _ownerOnly {\n        CONTRIBUTION_CONTRACT_ADDRESS = newContributionContractAddress;\n    }\n\n    /// @dev This function will create a new contribution voting ballot\n    function createContributionVotingBallot(\n        uint256 contributionId,\n        uint256 recordId,\n        uint256 govReward,\n        uint256 commReward\n    ) public _onlyContributionContract {\n        require(\n            rewardMapping[contributionId].isPresent == false,\n            \"INVALID: BALLOT_ALREADY_CREATED\"\n        );\n\n        ITreasury treasuryContract = ITreasury(TREASURY_CONTRACT_ADDRESS);\n\n        uint256 govTokenId = treasuryContract.getCommunityTokenId(recordId);\n        uint256 commTokenId = treasuryContract.getGovernanceTokenId(recordId);\n\n        uint256 ballotId = _createVoting(true, govTokenId);\n\n        ContributionReward memory contributionReward = ContributionReward({\n            requester: tx.origin,\n            contributionId: contributionId,\n            recordId: recordId,\n            ballotId: ballotId,\n            communityReward: commReward,\n            communityTokenId: commTokenId,\n            governanceReward: govReward,\n            governanceTokenId: govTokenId,\n            isPresent: true\n        });\n\n        emit ContributionBallotCreated({\n            requester: msg.sender,\n            contributionId: contributionId,\n            recordId: recordId,\n            communityReward: commReward,\n            communityTokenId: commTokenId,\n            governanceReward: govReward,\n            governanceTokenId: govTokenId,\n            ballotId: ballotId\n        });\n\n        rewardMapping[contributionId] = contributionReward;\n    }\n\n    /// @dev This function is called by any user to cast vote\n    /// @param contributionId this is the id of the contribution for which user is voting\n    /// @param vote this is the state of the vote, if true than it means the vote is in favour of the ballot\n    function castVoteForContribution(uint256 contributionId, bool vote) public {\n        require(\n            rewardMapping[contributionId].isPresent == true,\n            \"INVALID: CONTRIBUTION_ID\"\n        );\n        super._castVote(rewardMapping[contributionId].ballotId, vote);\n\n        emit ContributionVoting({\n            contributionId: contributionId,\n            ballotId: rewardMapping[contributionId].ballotId,\n            voter: msg.sender,\n            vote: vote\n        });\n    }\n\n    /// @dev This function is called by any user to cast vote\n    /// @param contributionId this is the id of the contribution for which user is creating a counter offer\n    /// @param newCommunityReward new community token amount as reward for the negotiation\n    /// @param newGovernanceReward new governance token amount as reward for the negotiation\n    function proposeCounterOffer(\n        uint256 contributionId,\n        uint256 newCommunityReward,\n        uint256 newGovernanceReward\n    )\n        public\n        _checkIfOwnerAllowed(rewardMapping[contributionId].ballotId)\n        _checkIfBallotIsOpen(rewardMapping[contributionId].ballotId, msg.sender)\n    {\n        _createCounterOffer(rewardMapping[contributionId].ballotId);\n\n        //Create counter offer object and push it into array\n        CounterOffer memory offer = CounterOffer({\n            newCommunityReward: newCommunityReward,\n            newGovernanceReward: newGovernanceReward,\n            status: 1\n        });\n\n        contributionCounterOfferList[contributionId].push(msg.sender);\n        contributionCounterOfferMap[contributionId][msg.sender] = offer;\n\n        emit CounterOfferForContribution(\n            contributionId,\n            msg.sender,\n            offer.newGovernanceReward,\n            offer.newCommunityReward\n        );\n    }\n\n    /// @dev This function is called by owner of the contribution to either accept or reject a counter offer\n    /// @param contributionId this is the id of the contribution to which the counter offer belongs to\n    /// @param counterOfferIds The id of counter offers in array to accept or reject multiple counter offers at once\n    /// @param action this is the state of the vote, if true than it means that user accepts the counter offer\n    function actionOnCounterOffer(\n        uint256 contributionId,\n        address[] memory counterOfferIds,\n        bool action\n    ) public {\n        //only vote once check\n        for (uint256 i = 0; i < counterOfferIds.length; i++) {\n            if (\n                contributionCounterOfferMap[contributionId][counterOfferIds[i]]\n                    .status == 1\n            ) {\n                if (action) {\n                    uint256 newGovernanceReward = contributionCounterOfferMap[\n                        contributionId\n                    ][counterOfferIds[i]].newGovernanceReward;\n                    uint256 newCommunityReward = contributionCounterOfferMap[\n                        contributionId\n                    ][counterOfferIds[i]].newCommunityReward;\n\n                    //Set new reward for the contribution\n                    rewardMapping[contributionId]\n                        .communityReward = newCommunityReward;\n                    rewardMapping[contributionId]\n                        .governanceReward = newGovernanceReward;\n\n                    contributionCounterOfferMap[contributionId][\n                        counterOfferIds[i]\n                    ].status = 2;\n\n                    super._counterOfferAction(\n                        rewardMapping[contributionId].ballotId,\n                        counterOfferIds[i],\n                        true\n                    );\n                    emit counterOfferAction(\n                        contributionId,\n                        counterOfferIds[i],\n                        newGovernanceReward,\n                        newCommunityReward,\n                        2\n                    );\n                } else {\n                    super._counterOfferAction(\n                        rewardMapping[contributionId].ballotId,\n                        counterOfferIds[i],\n                        false\n                    );\n                    //The counter offer ids are the addresses of the user who proposed the offer\n                    contributionCounterOfferMap[contributionId][\n                        counterOfferIds[i]\n                    ].status = 3;\n                }\n            }\n        }\n    }\n\n    /// @dev This function can be called from external source and also from within the contract\n    /// @param contributionId this is the id of the contribution to which the winner is to be declared\n    function declareWinner(uint256 contributionId) external {\n        address[] memory counterOfferList = contributionCounterOfferList[\n            contributionId\n        ];\n\n        //! we should remove the below for loop as we don't need loop through all the offers\n        //! as we are only calculating the votes that are accepted and rest are considered as false\n        // for (uint256 i = 0; i < counterOfferList.length; i++) {\n        //     if (\n        //         contributionCounterOfferMap[contributionId][counterOfferList[i]]\n        //             .status == 1\n        //     ) {\n        //         super._counterOfferAction(\n        //             rewardMapping[contributionId].ballotId,\n        //             counterOfferList[i],\n        //             false\n        //         );\n        //         //The counter offer ids are the addresses of the user who proposed the offer\n        //         contributionCounterOfferMap[contributionId][counterOfferList[i]]\n        //             .status = 3;\n        //     }\n        // }\n        bool result = _declareWinner(rewardMapping[contributionId].ballotId);\n\n        emit BallotResult(\n            contributionId,\n            rewardMapping[contributionId].ballotId,\n            result\n        );\n\n        if (result) {\n            //Transfer the reward amount to user\n            ITreasury treasuryContract = ITreasury(TREASURY_CONTRACT_ADDRESS);\n            treasuryContract.transferRewardAmount(\n                rewardMapping[contributionId].requester,\n                rewardMapping[contributionId].recordId,\n                contributionId,\n                rewardMapping[contributionId].governanceReward,\n                rewardMapping[contributionId].communityReward\n            );\n        }\n    }\n}\n",
  "sourcePath": "/Users/a1/Desktop/Office/projects/CrowdRecords/Contracts/contracts/voting/ContributionVotingContract.sol",
  "compiler": {
    "name": "solc",
    "version": "0.8.12+commit.f00d7308.Emscripten.clang"
  },
  "schemaVersion": "3.4.6",
  "updatedAt": "2022-10-13T11:10:29.753Z",
  "devdoc": {
    "events": {
      "BallotResult(uint256,uint256,bool)": {
        "details": "this event is genrated when result of a ballot is declared",
        "params": {
          "ballotId": "this is the ballot Id for which result is declared",
          "contributionId": "This is the id of the contribution that is linked to this ballot",
          "result": "this is the status of the result, either true if user won that is he received more than 66% of votes or false if user lost"
        }
      },
      "ContributionBallotCreated(address,uint256,uint256,uint256,uint256,uint256,uint256,uint256)": {
        "details": "This event is emitted during contribution ballot creation",
        "params": {
          "ballotId": "This is the ballot id of the reward",
          "communityReward": "This is the community reward amount",
          "communityTokenId": "This is the id of community token",
          "contributionId": "This is the contribution id",
          "governanceReward": "This is the amount of governance token requested as reward",
          "governanceTokenId": "This is the id of governance token",
          "recordId": "This is the record id to which the reward belongs to",
          "requester": "This is the person who has contributed and is seeking for reward"
        }
      },
      "ContributionVoting(address,uint256,uint256,bool)": {
        "details": "This is when a vote is given by user.",
        "params": {
          "ballotId": "Id of the ballot where voting is stored",
          "contributionId": "This is the id of the contribution that is linked to this ballot",
          "vote": "State of vote : true for yes and false for No",
          "voter": "Address of the voter"
        }
      },
      "CounterOfferForContribution(uint256,address,uint256,uint256)": {
        "details": "this is event which is created when a user proposes counter offer",
        "params": {
          "contributionId": "This is the id of the contribution that is linked to this ballot",
          "newCommunityReward": "This is the new reward amount counter offered by the voter",
          "newGovernanceReward": "This is the new reward amount counter offered by the voter",
          "voterId": "This is the id of the voter who's vote it is"
        }
      },
      "counterOfferAction(uint256,address,uint256,uint256,uint256)": {
        "details": "this is event which is created when the owner of the ballot takes action on a specific counter offer",
        "params": {
          "contributionId": "This is the id of the contribution that is linked to this ballot",
          "newCommunityReward": "This is the new reward amount counter offered by the voter",
          "newGovernanceReward": "This is the new reward amount counter offered by the voter",
          "status": "This is the status of the counter offer that is => either ACCEPTED = 2 | REJECTED = 3",
          "voterId": "This is the id of the voter who's vote it is"
        }
      }
    },
    "kind": "dev",
    "methods": {
      "_handleUserTokenTransfers(address,uint256,uint256,uint256)": {
        "details": "This function will be called when either user is transferring the tokens to other account, or is receiving tokens from other tokens.",
        "params": {
          "newBalance": "this is the new balance of the user that is after the transfer",
          "previousBalance": "this is the old balance of the user",
          "user": "address of the user whose balance is being changed"
        }
      },
      "actionOnCounterOffer(uint256,address[],bool)": {
        "details": "This function is called by owner of the contribution to either accept or reject a counter offer",
        "params": {
          "action": "this is the state of the vote, if true than it means that user accepts the counter offer",
          "contributionId": "this is the id of the contribution to which the counter offer belongs to",
          "counterOfferIds": "The id of counter offers in array to accept or reject multiple counter offers at once"
        }
      },
      "castVoteForContribution(uint256,bool)": {
        "details": "This function is called by any user to cast vote",
        "params": {
          "contributionId": "this is the id of the contribution for which user is voting",
          "vote": "this is the state of the vote, if true than it means the vote is in favour of the ballot"
        }
      },
      "createContributionVotingBallot(uint256,uint256,uint256,uint256)": {
        "details": "This function will create a new contribution voting ballot"
      },
      "declareWinner(uint256)": {
        "details": "This function can be called from external source and also from within the contract",
        "params": {
          "contributionId": "this is the id of the contribution to which the winner is to be declared"
        }
      },
      "initialize(address)": {
        "details": "This function sets the treasury Contract address",
        "params": {
          "newTreasuryContractAddress": "This is the new address of treasury contract"
        }
      },
      "initialize(address,address)": {
        "details": "This is to set the address of the contracts",
        "params": {
          "newContributionContractAddress": "This is the address of new voting hub contract",
          "newTreasuryContractAddress": "This is the address of new treasury contract"
        }
      },
      "proposeCounterOffer(uint256,uint256,uint256)": {
        "details": "This function is called by any user to cast vote",
        "params": {
          "contributionId": "this is the id of the contribution for which user is creating a counter offer",
          "newCommunityReward": "new community token amount as reward for the negotiation",
          "newGovernanceReward": "new governance token amount as reward for the negotiation"
        }
      },
      "setContributionContractAddress(address)": {
        "details": "Sets the contribution contract address so that the voting ballot for contribution can be restricted only to a certain contract that is the contribution contract"
      },
      "setOwnerAddress(address)": {
        "details": "This function sets the owner address",
        "params": {
          "ownerAddress": "This is the address of the owner"
        }
      }
    },
    "version": 1
  },
  "userdoc": {
    "events": {
      "ContributionBallotCreated(address,uint256,uint256,uint256,uint256,uint256,uint256,uint256)": {
        "notice": "This event is emitted when a contribution ballot is created by a user and it hold the following details"
      }
    },
    "kind": "user",
    "methods": {},
    "version": 1
  }
}