{
  "contractName": "CrdTokenContract",
  "abi": [
    {
      "inputs": [
        {
          "internalType": "address",
          "name": "owner",
          "type": "address"
        }
      ],
      "stateMutability": "nonpayable",
      "type": "constructor"
    },
    {
      "anonymous": false,
      "inputs": [
        {
          "indexed": true,
          "internalType": "address",
          "name": "owner",
          "type": "address"
        },
        {
          "indexed": true,
          "internalType": "address",
          "name": "spender",
          "type": "address"
        },
        {
          "indexed": false,
          "internalType": "uint256",
          "name": "value",
          "type": "uint256"
        }
      ],
      "name": "Approval",
      "type": "event"
    },
    {
      "anonymous": false,
      "inputs": [
        {
          "indexed": true,
          "internalType": "address",
          "name": "delegator",
          "type": "address"
        },
        {
          "indexed": true,
          "internalType": "address",
          "name": "fromDelegate",
          "type": "address"
        },
        {
          "indexed": true,
          "internalType": "address",
          "name": "toDelegate",
          "type": "address"
        }
      ],
      "name": "DelegateChanged",
      "type": "event"
    },
    {
      "anonymous": false,
      "inputs": [
        {
          "indexed": true,
          "internalType": "address",
          "name": "delegate",
          "type": "address"
        },
        {
          "indexed": false,
          "internalType": "uint256",
          "name": "previousBalance",
          "type": "uint256"
        },
        {
          "indexed": false,
          "internalType": "uint256",
          "name": "newBalance",
          "type": "uint256"
        }
      ],
      "name": "DelegateVotesChanged",
      "type": "event"
    },
    {
      "anonymous": false,
      "inputs": [
        {
          "indexed": false,
          "internalType": "uint8",
          "name": "version",
          "type": "uint8"
        }
      ],
      "name": "Initialized",
      "type": "event"
    },
    {
      "anonymous": false,
      "inputs": [
        {
          "indexed": true,
          "internalType": "address",
          "name": "from",
          "type": "address"
        },
        {
          "indexed": true,
          "internalType": "address",
          "name": "to",
          "type": "address"
        },
        {
          "indexed": false,
          "internalType": "uint256",
          "name": "value",
          "type": "uint256"
        }
      ],
      "name": "Transfer",
      "type": "event"
    },
    {
      "inputs": [],
      "name": "AGREEMENTS_CONTRACT_ADDRESS",
      "outputs": [
        {
          "internalType": "address",
          "name": "",
          "type": "address"
        }
      ],
      "stateMutability": "view",
      "type": "function",
      "constant": true
    },
    {
      "inputs": [],
      "name": "DOMAIN_SEPARATOR",
      "outputs": [
        {
          "internalType": "bytes32",
          "name": "",
          "type": "bytes32"
        }
      ],
      "stateMutability": "view",
      "type": "function",
      "constant": true
    },
    {
      "inputs": [],
      "name": "OWNER",
      "outputs": [
        {
          "internalType": "address",
          "name": "",
          "type": "address"
        }
      ],
      "stateMutability": "view",
      "type": "function",
      "constant": true
    },
    {
      "inputs": [],
      "name": "TREASURY_CONTRACT_ADDRESS",
      "outputs": [
        {
          "internalType": "address",
          "name": "",
          "type": "address"
        }
      ],
      "stateMutability": "view",
      "type": "function",
      "constant": true
    },
    {
      "inputs": [],
      "name": "TREASURY_CORE_CONTRACT_ADDRESS",
      "outputs": [
        {
          "internalType": "address",
          "name": "",
          "type": "address"
        }
      ],
      "stateMutability": "view",
      "type": "function",
      "constant": true
    },
    {
      "inputs": [
        {
          "internalType": "address",
          "name": "owner",
          "type": "address"
        },
        {
          "internalType": "address",
          "name": "spender",
          "type": "address"
        }
      ],
      "name": "allowance",
      "outputs": [
        {
          "internalType": "uint256",
          "name": "",
          "type": "uint256"
        }
      ],
      "stateMutability": "view",
      "type": "function",
      "constant": true
    },
    {
      "inputs": [
        {
          "internalType": "address",
          "name": "spender",
          "type": "address"
        },
        {
          "internalType": "uint256",
          "name": "amount",
          "type": "uint256"
        }
      ],
      "name": "approve",
      "outputs": [
        {
          "internalType": "bool",
          "name": "",
          "type": "bool"
        }
      ],
      "stateMutability": "nonpayable",
      "type": "function"
    },
    {
      "inputs": [
        {
          "internalType": "address",
          "name": "account",
          "type": "address"
        }
      ],
      "name": "balanceOf",
      "outputs": [
        {
          "internalType": "uint256",
          "name": "",
          "type": "uint256"
        }
      ],
      "stateMutability": "view",
      "type": "function",
      "constant": true
    },
    {
      "inputs": [
        {
          "internalType": "address",
          "name": "account",
          "type": "address"
        },
        {
          "internalType": "uint32",
          "name": "pos",
          "type": "uint32"
        }
      ],
      "name": "checkpoints",
      "outputs": [
        {
          "components": [
            {
              "internalType": "uint32",
              "name": "fromBlock",
              "type": "uint32"
            },
            {
              "internalType": "uint224",
              "name": "votes",
              "type": "uint224"
            }
          ],
          "internalType": "struct ERC20Votes.Checkpoint",
          "name": "",
          "type": "tuple"
        }
      ],
      "stateMutability": "view",
      "type": "function",
      "constant": true
    },
    {
      "inputs": [],
      "name": "decimals",
      "outputs": [
        {
          "internalType": "uint8",
          "name": "",
          "type": "uint8"
        }
      ],
      "stateMutability": "view",
      "type": "function",
      "constant": true
    },
    {
      "inputs": [
        {
          "internalType": "address",
          "name": "spender",
          "type": "address"
        },
        {
          "internalType": "uint256",
          "name": "subtractedValue",
          "type": "uint256"
        }
      ],
      "name": "decreaseAllowance",
      "outputs": [
        {
          "internalType": "bool",
          "name": "",
          "type": "bool"
        }
      ],
      "stateMutability": "nonpayable",
      "type": "function"
    },
    {
      "inputs": [
        {
          "internalType": "address",
          "name": "delegatee",
          "type": "address"
        }
      ],
      "name": "delegate",
      "outputs": [],
      "stateMutability": "nonpayable",
      "type": "function"
    },
    {
      "inputs": [
        {
          "internalType": "address",
          "name": "delegatee",
          "type": "address"
        },
        {
          "internalType": "uint256",
          "name": "nonce",
          "type": "uint256"
        },
        {
          "internalType": "uint256",
          "name": "expiry",
          "type": "uint256"
        },
        {
          "internalType": "uint8",
          "name": "v",
          "type": "uint8"
        },
        {
          "internalType": "bytes32",
          "name": "r",
          "type": "bytes32"
        },
        {
          "internalType": "bytes32",
          "name": "s",
          "type": "bytes32"
        }
      ],
      "name": "delegateBySig",
      "outputs": [],
      "stateMutability": "nonpayable",
      "type": "function"
    },
    {
      "inputs": [
        {
          "internalType": "address",
          "name": "account",
          "type": "address"
        }
      ],
      "name": "delegates",
      "outputs": [
        {
          "internalType": "address",
          "name": "",
          "type": "address"
        }
      ],
      "stateMutability": "view",
      "type": "function",
      "constant": true
    },
    {
      "inputs": [
        {
          "internalType": "uint256",
          "name": "blockNumber",
          "type": "uint256"
        }
      ],
      "name": "getPastTotalSupply",
      "outputs": [
        {
          "internalType": "uint256",
          "name": "",
          "type": "uint256"
        }
      ],
      "stateMutability": "view",
      "type": "function",
      "constant": true
    },
    {
      "inputs": [
        {
          "internalType": "address",
          "name": "account",
          "type": "address"
        },
        {
          "internalType": "uint256",
          "name": "blockNumber",
          "type": "uint256"
        }
      ],
      "name": "getPastVotes",
      "outputs": [
        {
          "internalType": "uint256",
          "name": "",
          "type": "uint256"
        }
      ],
      "stateMutability": "view",
      "type": "function",
      "constant": true
    },
    {
      "inputs": [
        {
          "internalType": "address",
          "name": "account",
          "type": "address"
        }
      ],
      "name": "getVotes",
      "outputs": [
        {
          "internalType": "uint256",
          "name": "",
          "type": "uint256"
        }
      ],
      "stateMutability": "view",
      "type": "function",
      "constant": true
    },
    {
      "inputs": [
        {
          "internalType": "address",
          "name": "spender",
          "type": "address"
        },
        {
          "internalType": "uint256",
          "name": "addedValue",
          "type": "uint256"
        }
      ],
      "name": "increaseAllowance",
      "outputs": [
        {
          "internalType": "bool",
          "name": "",
          "type": "bool"
        }
      ],
      "stateMutability": "nonpayable",
      "type": "function"
    },
    {
      "inputs": [],
      "name": "name",
      "outputs": [
        {
          "internalType": "string",
          "name": "",
          "type": "string"
        }
      ],
      "stateMutability": "view",
      "type": "function",
      "constant": true
    },
    {
      "inputs": [
        {
          "internalType": "address",
          "name": "owner",
          "type": "address"
        }
      ],
      "name": "nonces",
      "outputs": [
        {
          "internalType": "uint256",
          "name": "",
          "type": "uint256"
        }
      ],
      "stateMutability": "view",
      "type": "function",
      "constant": true
    },
    {
      "inputs": [
        {
          "internalType": "address",
          "name": "account",
          "type": "address"
        }
      ],
      "name": "numCheckpoints",
      "outputs": [
        {
          "internalType": "uint32",
          "name": "",
          "type": "uint32"
        }
      ],
      "stateMutability": "view",
      "type": "function",
      "constant": true
    },
    {
      "inputs": [
        {
          "internalType": "address",
          "name": "owner",
          "type": "address"
        },
        {
          "internalType": "address",
          "name": "spender",
          "type": "address"
        },
        {
          "internalType": "uint256",
          "name": "value",
          "type": "uint256"
        },
        {
          "internalType": "uint256",
          "name": "deadline",
          "type": "uint256"
        },
        {
          "internalType": "uint8",
          "name": "v",
          "type": "uint8"
        },
        {
          "internalType": "bytes32",
          "name": "r",
          "type": "bytes32"
        },
        {
          "internalType": "bytes32",
          "name": "s",
          "type": "bytes32"
        }
      ],
      "name": "permit",
      "outputs": [],
      "stateMutability": "nonpayable",
      "type": "function"
    },
    {
      "inputs": [],
      "name": "symbol",
      "outputs": [
        {
          "internalType": "string",
          "name": "",
          "type": "string"
        }
      ],
      "stateMutability": "view",
      "type": "function",
      "constant": true
    },
    {
      "inputs": [],
      "name": "totalSupply",
      "outputs": [
        {
          "internalType": "uint256",
          "name": "",
          "type": "uint256"
        }
      ],
      "stateMutability": "view",
      "type": "function",
      "constant": true
    },
    {
      "inputs": [
        {
          "internalType": "address",
          "name": "to",
          "type": "address"
        },
        {
          "internalType": "uint256",
          "name": "amount",
          "type": "uint256"
        }
      ],
      "name": "transfer",
      "outputs": [
        {
          "internalType": "bool",
          "name": "",
          "type": "bool"
        }
      ],
      "stateMutability": "nonpayable",
      "type": "function"
    },
    {
      "inputs": [
        {
          "internalType": "address",
          "name": "from",
          "type": "address"
        },
        {
          "internalType": "address",
          "name": "to",
          "type": "address"
        },
        {
          "internalType": "uint256",
          "name": "amount",
          "type": "uint256"
        }
      ],
      "name": "transferFrom",
      "outputs": [
        {
          "internalType": "bool",
          "name": "",
          "type": "bool"
        }
      ],
      "stateMutability": "nonpayable",
      "type": "function"
    },
    {
      "inputs": [
        {
          "internalType": "address",
          "name": "newTreasuryAddress",
          "type": "address"
        },
        {
          "internalType": "address",
          "name": "newTreasuryCoreAddress",
          "type": "address"
        },
        {
          "internalType": "address",
          "name": "newAgreementsAddress",
          "type": "address"
        }
      ],
      "name": "initialize",
      "outputs": [],
      "stateMutability": "nonpayable",
      "type": "function"
    },
    {
      "inputs": [
        {
          "internalType": "address",
          "name": "from",
          "type": "address"
        },
        {
          "internalType": "address",
          "name": "to",
          "type": "address"
        },
        {
          "internalType": "uint256",
          "name": "amount",
          "type": "uint256"
        }
      ],
      "name": "safeTransferFrom",
      "outputs": [],
      "stateMutability": "nonpayable",
      "type": "function"
    }
  ],
  "bytecode": "0x6101606040527f6e71edae12b1b97f4d1f60370fef10105fa2faae0126114a169c64845d6126c9610140523480156200003757600080fd5b50604051620032da380380620032da8339810160408190526200005a9162000872565b6040518060400160405280600c81526020016b43726f77647265636f72647360a01b81525080604051806040016040528060018152602001603160f81b8152506040518060400160405280600c81526020016b43726f77647265636f72647360a01b8152506040518060400160405280600381526020016210d49160ea1b8152508160039080519060200190620000f3929190620007d6565b50805162000109906004906020840190620007d6565b5050825160208085019190912083518483012060e08290526101008190524660a0818152604080517f8b73c3c69bb8fe3d512ecc4cf759cc79239f7b179b0ffacaa9a75d522b39400f81880181905281830187905260608201869052608082019490945230818401528151808203909301835260c0019052805194019390932091935091906080523060c052610120525050600c80546001600160a01b0319166001600160a01b03861617905550620001d1915082905069d3c21bcecceda1000000620001d8565b506200093b565b620001ef8282620001f360201b6200111c1760201c565b5050565b6200020a8282620002aa60201b620011e21760201c565b6001600160e01b036200021e620003998216565b11156200028b5760405162461bcd60e51b815260206004820152603060248201527f4552433230566f7465733a20746f74616c20737570706c79207269736b73206f60448201526f766572666c6f77696e6720766f74657360801b60648201526084015b60405180910390fd5b620002a460086200130e6200039f60201b1783620003b4565b50505050565b6001600160a01b038216620003025760405162461bcd60e51b815260206004820152601f60248201527f45524332303a206d696e7420746f20746865207a65726f206164647265737300604482015260640162000282565b8060026000828254620003169190620008b3565b90915550506001600160a01b0382166000908152602081905260408120805483929062000345908490620008b3565b90915550506040518181526001600160a01b038316906000907fddf252ad1be2c89b69c2b068fc378daa952ba7f163c4a11628f55a4df523b3ef9060200160405180910390a3620001ef600083836200056b565b60025490565b6000620003ad8284620008b3565b9392505050565b825460009081908015620004065785620003d0600183620008ce565b81548110620003e357620003e3620008e8565b60009182526020909120015464010000000090046001600160e01b031662000409565b60005b6001600160e01b031692506200042083858760201c565b915060008111801562000464575043866200043d600184620008ce565b81548110620004505762000450620008e8565b60009182526020909120015463ffffffff16145b15620004d85762000480826200058360201b6200131a1760201c565b866200048e600184620008ce565b81548110620004a157620004a1620008e8565b9060005260206000200160000160046101000a8154816001600160e01b0302191690836001600160e01b031602179055506200055d565b856040518060400160405280620004fa43620005f260201b620013cc1760201c565b63ffffffff1681526020016200051b856200058360201b6200131a1760201c565b6001600160e01b0390811690915282546001810184556000938452602093849020835194909301519091166401000000000263ffffffff909316929092179101555b50935093915050565b505050565b620005668383836200065960201b620014621760201c565b60006001600160e01b03821115620005ee5760405162461bcd60e51b815260206004820152602760248201527f53616665436173743a2076616c756520646f65736e27742066697420696e20326044820152663234206269747360c81b606482015260840162000282565b5090565b600063ffffffff821115620005ee5760405162461bcd60e51b815260206004820152602660248201527f53616665436173743a2076616c756520646f65736e27742066697420696e203360448201526532206269747360d01b606482015260840162000282565b620006718383836200056660201b620007e31760201c565b6001600160a01b038381166000908152600660205260408082205485841683529120546200056692918216911683818314801590620006b05750600081115b1562000566576001600160a01b038316156200073d576001600160a01b038316600090815260076020908152604082208291620006fa9190620007c8901b620014a11785620003b4565b91509150846001600160a01b0316600080516020620032ba833981519152838360405162000732929190918252602082015260400190565b60405180910390a250505b6001600160a01b0382161562000566576001600160a01b0382166000908152600760209081526040822082916200078191906200039f901b6200130e1785620003b4565b91509150836001600160a01b0316600080516020620032ba8339815191528383604051620007b9929190918252602082015260400190565b60405180910390a25050505050565b6000620003ad8284620008ce565b828054620007e490620008fe565b90600052602060002090601f01602090048101928262000808576000855562000853565b82601f106200082357805160ff191683800117855562000853565b8280016001018555821562000853579182015b828111156200085357825182559160200191906001019062000836565b50620005ee9291505b80821115620005ee57600081556001016200085c565b6000602082840312156200088557600080fd5b81516001600160a01b0381168114620003ad57600080fd5b634e487b7160e01b600052601160045260246000fd5b60008219821115620008c957620008c96200089d565b500190565b600082821015620008e357620008e36200089d565b500390565b634e487b7160e01b600052603260045260246000fd5b600181811c908216806200091357607f821691505b602082108114156200093557634e487b7160e01b600052602260045260246000fd5b50919050565b60805160a05160c05160e051610100516101205161014051612924620009966000396000610f2501526000611a8101526000611ad001526000611aab01526000611a0401526000611a2e01526000611a5801526129246000f3fe608060405234801561001057600080fd5b50600436106101c45760003560e01c806370a08231116100f9578063a9059cbb11610097578063c3cda52011610071578063c3cda52014610450578063d505accf14610463578063dd62ed3e14610476578063f1127ed8146104bc57600080fd5b8063a9059cbb14610404578063acb3149314610417578063c0c53b8b1461043d57600080fd5b806395d89b41116100d357806395d89b41146103b65780639ab24eb0146103be578063a17ca5b9146103d1578063a457c2d7146103f157600080fd5b806370a082311461035a5780637ecebe00146103905780638e539e8c146103a357600080fd5b80633950935111610166578063556bed3a11610140578063556bed3a146102c6578063587cde1e146102e65780635c19a95c1461031f5780636fcfff451461033257600080fd5b8063395093511461028b5780633a46b1a81461029e57806342842e0e146102b157600080fd5b806318160ddd116101a257806318160ddd1461024f57806323b872dd14610261578063313ce567146102745780633644e5151461028357600080fd5b806306fdde03146101c9578063095ea7b3146101e7578063117803e31461020a575b600080fd5b6101d161050e565b6040516101de91906124ea565b60405180910390f35b6101fa6101f5366004612586565b6105a0565b60405190151581526020016101de565b600c5461022a9073ffffffffffffffffffffffffffffffffffffffff1681565b60405173ffffffffffffffffffffffffffffffffffffffff90911681526020016101de565b6002545b6040519081526020016101de565b6101fa61026f3660046125b0565b6105b8565b604051601281526020016101de565b6102536105dc565b6101fa610299366004612586565b6105eb565b6102536102ac366004612586565b610637565b6102c46102bf3660046125b0565b6106dd565b005b600a5461022a9073ffffffffffffffffffffffffffffffffffffffff1681565b61022a6102f43660046125ec565b73ffffffffffffffffffffffffffffffffffffffff9081166000908152600660205260409020541690565b6102c461032d3660046125ec565b6107e8565b6103456103403660046125ec565b6107f5565b60405163ffffffff90911681526020016101de565b6102536103683660046125ec565b73ffffffffffffffffffffffffffffffffffffffff1660009081526020819052604090205490565b61025361039e3660046125ec565b61082a565b6102536103b1366004612607565b610855565b6101d16108cb565b6102536103cc3660046125ec565b6108da565b600b5461022a9073ffffffffffffffffffffffffffffffffffffffff1681565b6101fa6103ff366004612586565b6109a5565b6101fa610412366004612586565b610a76565b60095461022a9062010000900473ffffffffffffffffffffffffffffffffffffffff1681565b6102c461044b366004612620565b610a84565b6102c461045e366004612674565b610d40565b6102c46104713660046126cc565b610eb7565b610253610484366004612736565b73ffffffffffffffffffffffffffffffffffffffff918216600090815260016020908152604080832093909416825291909152205490565b6104cf6104ca366004612769565b611076565b60408051825163ffffffff1681526020928301517bffffffffffffffffffffffffffffffffffffffffffffffffffffffff1692810192909252016101de565b60606003805461051d906127a9565b80601f0160208091040260200160405190810160405280929190818152602001828054610549906127a9565b80156105965780601f1061056b57610100808354040283529160200191610596565b820191906000526020600020905b81548152906001019060200180831161057957829003601f168201915b5050505050905090565b6000336105ae8185856114ad565b5060019392505050565b6000336105c6858285611660565b6105d1858585611731565b506001949350505050565b60006105e66119ea565b905090565b33600081815260016020908152604080832073ffffffffffffffffffffffffffffffffffffffff871684529091528120549091906105ae9082908690610632908790612826565b6114ad565b60004382106106a7576040517f08c379a000000000000000000000000000000000000000000000000000000000815260206004820152601f60248201527f4552433230566f7465733a20626c6f636b206e6f7420796574206d696e65640060448201526064015b60405180910390fd5b73ffffffffffffffffffffffffffffffffffffffff831660009081526007602052604090206106d69083611b1e565b9392505050565b600a5473ffffffffffffffffffffffffffffffffffffffff16331480610720575060095462010000900473ffffffffffffffffffffffffffffffffffffffff1633145b806107425750600b5473ffffffffffffffffffffffffffffffffffffffff1633145b6107ce576040517f08c379a000000000000000000000000000000000000000000000000000000000815260206004820152602360248201527f554e415554484f52495a45443a2043414e4e4f545f504552464f524d5f41435460448201527f494f4e0000000000000000000000000000000000000000000000000000000000606482015260840161069e565b6107d88333611c05565b6107e3838383611731565b505050565b6107f23382611c68565b50565b73ffffffffffffffffffffffffffffffffffffffff8116600090815260076020526040812054610824906113cc565b92915050565b73ffffffffffffffffffffffffffffffffffffffff8116600090815260056020526040812054610824565b60004382106108c0576040517f08c379a000000000000000000000000000000000000000000000000000000000815260206004820152601f60248201527f4552433230566f7465733a20626c6f636b206e6f7420796574206d696e656400604482015260640161069e565b610824600883611b1e565b60606004805461051d906127a9565b73ffffffffffffffffffffffffffffffffffffffff8116600090815260076020526040812054801561097d5773ffffffffffffffffffffffffffffffffffffffff8316600090815260076020526040902061093660018361283e565b8154811061094657610946612855565b60009182526020909120015464010000000090047bffffffffffffffffffffffffffffffffffffffffffffffffffffffff16610980565b60005b7bffffffffffffffffffffffffffffffffffffffffffffffffffffffff169392505050565b33600081815260016020908152604080832073ffffffffffffffffffffffffffffffffffffffff8716845290915281205490919083811015610a69576040517f08c379a000000000000000000000000000000000000000000000000000000000815260206004820152602560248201527f45524332303a2064656372656173656420616c6c6f77616e63652062656c6f7760448201527f207a65726f000000000000000000000000000000000000000000000000000000606482015260840161069e565b6105d182868684036114ad565b6000336105ae818585611731565b600954610100900460ff1615808015610aa45750600954600160ff909116105b80610abe5750303b158015610abe575060095460ff166001145b610b4a576040517f08c379a000000000000000000000000000000000000000000000000000000000815260206004820152602e60248201527f496e697469616c697a61626c653a20636f6e747261637420697320616c72656160448201527f647920696e697469616c697a6564000000000000000000000000000000000000606482015260840161069e565b600980547fffffffffffffffffffffffffffffffffffffffffffffffffffffffffffffff001660011790558015610ba857600980547fffffffffffffffffffffffffffffffffffffffffffffffffffffffffffff00ff166101001790555b600c5473ffffffffffffffffffffffffffffffffffffffff163314610c4f576040517f08c379a000000000000000000000000000000000000000000000000000000000815260206004820152602360248201527f554e415554484f52495a45443a2043414e4e4f545f504552464f524d5f41435460448201527f494f4e0000000000000000000000000000000000000000000000000000000000606482015260840161069e565b600a805473ffffffffffffffffffffffffffffffffffffffff8086167fffffffffffffffffffffffff0000000000000000000000000000000000000000928316179092556009805487841662010000027fffffffffffffffffffff0000000000000000000000000000000000000000ffff909116179055600b8054928516929091169190911790558015610d3a57600980547fffffffffffffffffffffffffffffffffffffffffffffffffffffffffffff00ff169055604051600181527f7f26b83ff96e1f2b6a682f133852f6798a09c465da95921460cefb38474024989060200160405180910390a15b50505050565b83421115610daa576040517f08c379a000000000000000000000000000000000000000000000000000000000815260206004820152601d60248201527f4552433230566f7465733a207369676e61747572652065787069726564000000604482015260640161069e565b604080517fe48329057bfd03d55e49b547132e39cffd9c1820ad7b9d4c5307691425d15adf602082015273ffffffffffffffffffffffffffffffffffffffff8816918101919091526060810186905260808101859052600090610e3190610e299060a00160405160208183030381529060405280519060200120611d06565b858585611d6f565b9050610e3c81611d97565b8614610ea4576040517f08c379a000000000000000000000000000000000000000000000000000000000815260206004820152601960248201527f4552433230566f7465733a20696e76616c6964206e6f6e636500000000000000604482015260640161069e565b610eae8188611c68565b50505050505050565b83421115610f21576040517f08c379a000000000000000000000000000000000000000000000000000000000815260206004820152601d60248201527f45524332305065726d69743a206578706972656420646561646c696e65000000604482015260640161069e565b60007f0000000000000000000000000000000000000000000000000000000000000000888888610f508c611d97565b60408051602081019690965273ffffffffffffffffffffffffffffffffffffffff94851690860152929091166060840152608083015260a082015260c0810186905260e0016040516020818303038152906040528051906020012090506000610fb882611d06565b90506000610fc882878787611d6f565b90508973ffffffffffffffffffffffffffffffffffffffff168173ffffffffffffffffffffffffffffffffffffffff161461105f576040517f08c379a000000000000000000000000000000000000000000000000000000000815260206004820152601e60248201527f45524332305065726d69743a20696e76616c6964207369676e61747572650000604482015260640161069e565b61106a8a8a8a6114ad565b50505050505050505050565b604080518082019091526000808252602082015273ffffffffffffffffffffffffffffffffffffffff83166000908152600760205260409020805463ffffffff84169081106110c7576110c7612855565b60009182526020918290206040805180820190915291015463ffffffff8116825264010000000090047bffffffffffffffffffffffffffffffffffffffffffffffffffffffff16918101919091529392505050565b61112682826111e2565b6002547bffffffffffffffffffffffffffffffffffffffffffffffffffffffff10156111d4576040517f08c379a000000000000000000000000000000000000000000000000000000000815260206004820152603060248201527f4552433230566f7465733a20746f74616c20737570706c79207269736b73206f60448201527f766572666c6f77696e6720766f74657300000000000000000000000000000000606482015260840161069e565b610d3a600861130e83611dcc565b73ffffffffffffffffffffffffffffffffffffffff821661125f576040517f08c379a000000000000000000000000000000000000000000000000000000000815260206004820152601f60248201527f45524332303a206d696e7420746f20746865207a65726f206164647265737300604482015260640161069e565b80600260008282546112719190612826565b909155505073ffffffffffffffffffffffffffffffffffffffff8216600090815260208190526040812080548392906112ab908490612826565b909155505060405181815273ffffffffffffffffffffffffffffffffffffffff8316906000907fddf252ad1be2c89b69c2b068fc378daa952ba7f163c4a11628f55a4df523b3ef9060200160405180910390a361130a60008383611fae565b5050565b60006106d68284612826565b60007bffffffffffffffffffffffffffffffffffffffffffffffffffffffff8211156113c8576040517f08c379a000000000000000000000000000000000000000000000000000000000815260206004820152602760248201527f53616665436173743a2076616c756520646f65736e27742066697420696e203260448201527f3234206269747300000000000000000000000000000000000000000000000000606482015260840161069e565b5090565b600063ffffffff8211156113c8576040517f08c379a000000000000000000000000000000000000000000000000000000000815260206004820152602660248201527f53616665436173743a2076616c756520646f65736e27742066697420696e203360448201527f3220626974730000000000000000000000000000000000000000000000000000606482015260840161069e565b73ffffffffffffffffffffffffffffffffffffffff8381166000908152600660205260408082205485841683529120546107e392918216911683611fb9565b60006106d6828461283e565b73ffffffffffffffffffffffffffffffffffffffff831661154f576040517f08c379a0000000000000000000000000000000000000000000000000000000008152602060048201526024808201527f45524332303a20617070726f76652066726f6d20746865207a65726f2061646460448201527f7265737300000000000000000000000000000000000000000000000000000000606482015260840161069e565b73ffffffffffffffffffffffffffffffffffffffff82166115f2576040517f08c379a000000000000000000000000000000000000000000000000000000000815260206004820152602260248201527f45524332303a20617070726f766520746f20746865207a65726f20616464726560448201527f7373000000000000000000000000000000000000000000000000000000000000606482015260840161069e565b73ffffffffffffffffffffffffffffffffffffffff83811660008181526001602090815260408083209487168084529482529182902085905590518481527f8c5be1e5ebec7d5bd14f71427d1e84f3dd0314c0f7b2291e5b200ac8c7c3b925910160405180910390a3505050565b73ffffffffffffffffffffffffffffffffffffffff8381166000908152600160209081526040808320938616835292905220547fffffffffffffffffffffffffffffffffffffffffffffffffffffffffffffffff8114610d3a5781811015611724576040517f08c379a000000000000000000000000000000000000000000000000000000000815260206004820152601d60248201527f45524332303a20696e73756666696369656e7420616c6c6f77616e6365000000604482015260640161069e565b610d3a84848484036114ad565b73ffffffffffffffffffffffffffffffffffffffff83166117d4576040517f08c379a000000000000000000000000000000000000000000000000000000000815260206004820152602560248201527f45524332303a207472616e736665722066726f6d20746865207a65726f20616460448201527f6472657373000000000000000000000000000000000000000000000000000000606482015260840161069e565b73ffffffffffffffffffffffffffffffffffffffff8216611877576040517f08c379a000000000000000000000000000000000000000000000000000000000815260206004820152602360248201527f45524332303a207472616e7366657220746f20746865207a65726f206164647260448201527f6573730000000000000000000000000000000000000000000000000000000000606482015260840161069e565b73ffffffffffffffffffffffffffffffffffffffff83166000908152602081905260409020548181101561192d576040517f08c379a000000000000000000000000000000000000000000000000000000000815260206004820152602660248201527f45524332303a207472616e7366657220616d6f756e742065786365656473206260448201527f616c616e63650000000000000000000000000000000000000000000000000000606482015260840161069e565b73ffffffffffffffffffffffffffffffffffffffff808516600090815260208190526040808220858503905591851681529081208054849290611971908490612826565b925050819055508273ffffffffffffffffffffffffffffffffffffffff168473ffffffffffffffffffffffffffffffffffffffff167fddf252ad1be2c89b69c2b068fc378daa952ba7f163c4a11628f55a4df523b3ef846040516119d791815260200190565b60405180910390a3610d3a848484611fae565b60003073ffffffffffffffffffffffffffffffffffffffff7f000000000000000000000000000000000000000000000000000000000000000016148015611a5057507f000000000000000000000000000000000000000000000000000000000000000046145b15611a7a57507f000000000000000000000000000000000000000000000000000000000000000090565b50604080517f00000000000000000000000000000000000000000000000000000000000000006020808301919091527f0000000000000000000000000000000000000000000000000000000000000000828401527f000000000000000000000000000000000000000000000000000000000000000060608301524660808301523060a0808401919091528351808403909101815260c0909201909252805191012090565b8154600090815b81811015611b82576000611b39828461215e565b905084868281548110611b4e57611b4e612855565b60009182526020909120015463ffffffff161115611b6e57809250611b7c565b611b79816001612826565b91505b50611b25565b8115611bdb5784611b9460018461283e565b81548110611ba457611ba4612855565b60009182526020909120015464010000000090047bffffffffffffffffffffffffffffffffffffffffffffffffffffffff16611bde565b60005b7bffffffffffffffffffffffffffffffffffffffffffffffffffffffff1695945050505050565b73ffffffffffffffffffffffffffffffffffffffff828116600090815260016020908152604080832093851683529290522054806107e3576107e383837fffffffffffffffffffffffffffffffffffffffffffffffffffffffffffffffff6114ad565b73ffffffffffffffffffffffffffffffffffffffff8281166000818152600660208181526040808420805485845282862054949093528787167fffffffffffffffffffffffff00000000000000000000000000000000000000008416811790915590519190951694919391928592917f3134e8a2e6d97e929a7e54011ea5485d7d196dd5f0ba4d4ef95803e8e3fc257f9190a4610d3a828483611fb9565b6000610824611d136119ea565b836040517f19010000000000000000000000000000000000000000000000000000000000006020820152602281018390526042810182905260009060620160405160208183030381529060405280519060200120905092915050565b6000806000611d8087878787612179565b91509150611d8d81612291565b5095945050505050565b73ffffffffffffffffffffffffffffffffffffffff811660009081526005602052604090208054600181018255905b50919050565b825460009081908015611e2c5785611de560018361283e565b81548110611df557611df5612855565b60009182526020909120015464010000000090047bffffffffffffffffffffffffffffffffffffffffffffffffffffffff16611e2f565b60005b7bffffffffffffffffffffffffffffffffffffffffffffffffffffffff169250611e5d83858763ffffffff16565b9150600081118015611e9b57504386611e7760018461283e565b81548110611e8757611e87612855565b60009182526020909120015463ffffffff16145b15611f2557611ea98261131a565b86611eb560018461283e565b81548110611ec557611ec5612855565b9060005260206000200160000160046101000a8154817bffffffffffffffffffffffffffffffffffffffffffffffffffffffff02191690837bffffffffffffffffffffffffffffffffffffffffffffffffffffffff160217905550611fa5565b856040518060400160405280611f3a436113cc565b63ffffffff168152602001611f4e8561131a565b7bffffffffffffffffffffffffffffffffffffffffffffffffffffffff90811690915282546001810184556000938452602093849020835194909301519091166401000000000263ffffffff909316929092179101555b50935093915050565b6107e3838383611462565b8173ffffffffffffffffffffffffffffffffffffffff168373ffffffffffffffffffffffffffffffffffffffff1614158015611ff55750600081115b156107e35773ffffffffffffffffffffffffffffffffffffffff8316156120aa5773ffffffffffffffffffffffffffffffffffffffff83166000908152600760205260408120819061204a906114a185611dcc565b915091508473ffffffffffffffffffffffffffffffffffffffff167fdec2bacdd2f05b59de34da9b523dff8be42e5e38e818c82fdb0bae774387a724838360405161209f929190918252602082015260400190565b60405180910390a250505b73ffffffffffffffffffffffffffffffffffffffff8216156107e35773ffffffffffffffffffffffffffffffffffffffff8216600090815260076020526040812081906120fa9061130e85611dcc565b915091508373ffffffffffffffffffffffffffffffffffffffff167fdec2bacdd2f05b59de34da9b523dff8be42e5e38e818c82fdb0bae774387a724838360405161214f929190918252602082015260400190565b60405180910390a25050505050565b600061216d6002848418612884565b6106d690848416612826565b6000807f7fffffffffffffffffffffffffffffff5d576e7357a4501ddfe92f46681b20a08311156121b05750600090506003612288565b8460ff16601b141580156121c857508460ff16601c14155b156121d95750600090506004612288565b6040805160008082526020820180845289905260ff881692820192909252606081018690526080810185905260019060a0016020604051602081039080840390855afa15801561222d573d6000803e3d6000fd5b50506040517fffffffffffffffffffffffffffffffffffffffffffffffffffffffffffffffe0015191505073ffffffffffffffffffffffffffffffffffffffff811661228157600060019250925050612288565b9150600090505b94509492505050565b60008160048111156122a5576122a56128bf565b14156122ae5750565b60018160048111156122c2576122c26128bf565b141561232a576040517f08c379a000000000000000000000000000000000000000000000000000000000815260206004820152601860248201527f45434453413a20696e76616c6964207369676e61747572650000000000000000604482015260640161069e565b600281600481111561233e5761233e6128bf565b14156123a6576040517f08c379a000000000000000000000000000000000000000000000000000000000815260206004820152601f60248201527f45434453413a20696e76616c6964207369676e6174757265206c656e67746800604482015260640161069e565b60038160048111156123ba576123ba6128bf565b1415612448576040517f08c379a000000000000000000000000000000000000000000000000000000000815260206004820152602260248201527f45434453413a20696e76616c6964207369676e6174757265202773272076616c60448201527f7565000000000000000000000000000000000000000000000000000000000000606482015260840161069e565b600481600481111561245c5761245c6128bf565b14156107f2576040517f08c379a000000000000000000000000000000000000000000000000000000000815260206004820152602260248201527f45434453413a20696e76616c6964207369676e6174757265202776272076616c60448201527f7565000000000000000000000000000000000000000000000000000000000000606482015260840161069e565b600060208083528351808285015260005b81811015612517578581018301518582016040015282016124fb565b81811115612529576000604083870101525b50601f017fffffffffffffffffffffffffffffffffffffffffffffffffffffffffffffffe016929092016040019392505050565b803573ffffffffffffffffffffffffffffffffffffffff8116811461258157600080fd5b919050565b6000806040838503121561259957600080fd5b6125a28361255d565b946020939093013593505050565b6000806000606084860312156125c557600080fd5b6125ce8461255d565b92506125dc6020850161255d565b9150604084013590509250925092565b6000602082840312156125fe57600080fd5b6106d68261255d565b60006020828403121561261957600080fd5b5035919050565b60008060006060848603121561263557600080fd5b61263e8461255d565b925061264c6020850161255d565b915061265a6040850161255d565b90509250925092565b803560ff8116811461258157600080fd5b60008060008060008060c0878903121561268d57600080fd5b6126968761255d565b955060208701359450604087013593506126b260608801612663565b92506080870135915060a087013590509295509295509295565b600080600080600080600060e0888a0312156126e757600080fd5b6126f08861255d565b96506126fe6020890161255d565b9550604088013594506060880135935061271a60808901612663565b925060a0880135915060c0880135905092959891949750929550565b6000806040838503121561274957600080fd5b6127528361255d565b91506127606020840161255d565b90509250929050565b6000806040838503121561277c57600080fd5b6127858361255d565b9150602083013563ffffffff8116811461279e57600080fd5b809150509250929050565b600181811c908216806127bd57607f821691505b60208210811415611dc6577f4e487b7100000000000000000000000000000000000000000000000000000000600052602260045260246000fd5b7f4e487b7100000000000000000000000000000000000000000000000000000000600052601160045260246000fd5b60008219821115612839576128396127f7565b500190565b600082821015612850576128506127f7565b500390565b7f4e487b7100000000000000000000000000000000000000000000000000000000600052603260045260246000fd5b6000826128ba577f4e487b7100000000000000000000000000000000000000000000000000000000600052601260045260246000fd5b500490565b7f4e487b7100000000000000000000000000000000000000000000000000000000600052602160045260246000fdfea2646970667358221220b1cd64c4e00bac8fbc56da4396e2ef72404936acac5f68ee8678f0c20cae046364736f6c634300080c0033dec2bacdd2f05b59de34da9b523dff8be42e5e38e818c82fdb0bae774387a724",
  "immutableReferences": {
    "5366": [
      {
        "length": 32,
        "start": 3877
      }
    ],
    "7876": [
      {
        "length": 32,
        "start": 6744
      }
    ],
    "7878": [
      {
        "length": 32,
        "start": 6702
      }
    ],
    "7880": [
      {
        "length": 32,
        "start": 6660
      }
    ],
    "7882": [
      {
        "length": 32,
        "start": 6827
      }
    ],
    "7884": [
      {
        "length": 32,
        "start": 6864
      }
    ],
    "7886": [
      {
        "length": 32,
        "start": 6785
      }
    ]
  },
  "source": "pragma solidity ^0.8.0;\n\nimport \"@openzeppelin/contracts/token/ERC20/extensions/ERC20Snapshot.sol\";\nimport \"@openzeppelin/contracts-upgradeable/proxy/utils/Initializable.sol\";\nimport \"@openzeppelin/contracts/token/ERC20/IERC20.sol\";\nimport \"@openzeppelin/contracts/token/ERC20/ERC20.sol\";\nimport \"@openzeppelin/contracts/token/ERC20/extensions/draft-ERC20Permit.sol\";\nimport \"@openzeppelin/contracts/token/ERC20/extensions/ERC20Votes.sol\";\n\ncontract CrdTokenContract is ERC20, ERC20Permit, ERC20Votes, Initializable {\n    address public TREASURY_CONTRACT_ADDRESS;\n    address public TREASURY_CORE_CONTRACT_ADDRESS;\n    address public AGREEMENTS_CONTRACT_ADDRESS;\n    address public OWNER;\n\n    // By default URI to crowdrecords domain\n    // 18 decimal points supported\n    constructor(\n        address owner\n    ) ERC20(\"Crowdrecords\", \"CRD\") ERC20Permit(\"Crowdrecords\") {\n        OWNER = owner;\n        _mint(owner, 1000000 * 10 ** 18);\n    }\n\n    /// @dev Modifier to check that the person who accesses a specific function is the owner of contract himself.\n    modifier ownerOnly() {\n        require(msg.sender == OWNER, \"UNAUTHORIZED: CANNOT_PERFORM_ACTION\");\n        _;\n    }\n\n    /// @dev Modifier to check that the function is called by crowdrecords tokens only\n    modifier contractsOnly() {\n        require(\n            msg.sender == TREASURY_CORE_CONTRACT_ADDRESS ||\n                msg.sender == TREASURY_CONTRACT_ADDRESS ||\n                msg.sender == AGREEMENTS_CONTRACT_ADDRESS,\n            \"UNAUTHORIZED: CANNOT_PERFORM_ACTION\"\n        );\n        _;\n    }\n\n    /// @dev This is to set the address of the contracts\n    /// @param newTreasuryAddress This is the address of new treasury contract\n    /// @param newTreasuryCoreAddress This is the address of new treasury core contract\n    /// @param newAgreementsAddress This is the address of new Agreement contract\n    function initialize(\n        address newTreasuryAddress,\n        address newTreasuryCoreAddress,\n        address newAgreementsAddress\n    ) public initializer ownerOnly {\n        TREASURY_CORE_CONTRACT_ADDRESS = newTreasuryCoreAddress;\n        TREASURY_CONTRACT_ADDRESS = newTreasuryAddress;\n        AGREEMENTS_CONTRACT_ADDRESS = newAgreementsAddress;\n    }\n\n    /// @dev This function is for internal usage, this function will check for the allowance and\n    /// and then it will approve the max uint amount as a spender\n    /// @param owner owner's address\n    /// @param spender spenders address\n    function _checkAndApproveAllowance(\n        address owner,\n        address spender\n    ) internal {\n        uint256 currentAllowance = allowance(owner, spender);\n        if (currentAllowance == 0) {\n            _approve(\n                owner,\n                spender,\n                0xFFFFFFFFFFFFFFFFFFFFFFFFFFFFFFFFFFFFFFFFFFFFFFFFFFFFFFFFFFFFFFFF\n            );\n        }\n    }\n\n    /// @notice This function is only for crowdrecords contracts\n    /// This function is called from agreements contracts for paying and claiming the royalty,\n    /// and from orders contract for transfer of CRD tokens for purchase or sale of community or governance tokens\n    /// and from treasury core contract when someone wants to transfer their tokens to other accounts\n    /// @dev This function will be only called from crowdrecords contracts, it will check for the\n    /// allowance and approve tokens on behalf of user so that necessary operations can be performed\n    /// @param to receiver's address\n    /// @param amount number of tokens to be transferred\n    function safeTransferFrom(\n        address from,\n        address to,\n        uint256 amount\n    ) public contractsOnly {\n        _checkAndApproveAllowance(from, msg.sender);\n        _transfer(from, to, amount);\n    }\n\n    function _afterTokenTransfer(\n        address from,\n        address to,\n        uint256 amount\n    ) internal override(ERC20, ERC20Votes) {\n        super._afterTokenTransfer(from, to, amount);\n    }\n\n    function _mint(\n        address to,\n        uint256 amount\n    ) internal override(ERC20, ERC20Votes) {\n        super._mint(to, amount);\n    }\n\n    function _burn(\n        address account,\n        uint256 amount\n    ) internal override(ERC20, ERC20Votes) {\n        super._burn(account, amount);\n    }\n}\n",
  "sourcePath": "/Users/a1/Desktop/Office/projects/CrowdRecords/Contracts/contracts/treasury/CrdTokenContract.sol",
  "compiler": {
    "name": "solc",
    "version": "0.8.12+commit.f00d7308.Emscripten.clang"
  },
  "schemaVersion": "3.4.6",
  "updatedAt": "2023-09-04T11:48:55.197Z",
  "networkType": "ethereum",
  "devdoc": {
    "kind": "dev",
    "methods": {
      "DOMAIN_SEPARATOR()": {
        "details": "See {IERC20Permit-DOMAIN_SEPARATOR}."
      },
      "allowance(address,address)": {
        "details": "See {IERC20-allowance}."
      },
      "approve(address,uint256)": {
        "details": "See {IERC20-approve}. NOTE: If `amount` is the maximum `uint256`, the allowance is not updated on `transferFrom`. This is semantically equivalent to an infinite approval. Requirements: - `spender` cannot be the zero address."
      },
      "balanceOf(address)": {
        "details": "See {IERC20-balanceOf}."
      },
      "checkpoints(address,uint32)": {
        "details": "Get the `pos`-th checkpoint for `account`."
      },
      "decimals()": {
        "details": "Returns the number of decimals used to get its user representation. For example, if `decimals` equals `2`, a balance of `505` tokens should be displayed to a user as `5.05` (`505 / 10 ** 2`). Tokens usually opt for a value of 18, imitating the relationship between Ether and Wei. This is the value {ERC20} uses, unless this function is overridden; NOTE: This information is only used for _display_ purposes: it in no way affects any of the arithmetic of the contract, including {IERC20-balanceOf} and {IERC20-transfer}."
      },
      "decreaseAllowance(address,uint256)": {
        "details": "Atomically decreases the allowance granted to `spender` by the caller. This is an alternative to {approve} that can be used as a mitigation for problems described in {IERC20-approve}. Emits an {Approval} event indicating the updated allowance. Requirements: - `spender` cannot be the zero address. - `spender` must have allowance for the caller of at least `subtractedValue`."
      },
      "delegate(address)": {
        "details": "Delegate votes from the sender to `delegatee`."
      },
      "delegateBySig(address,uint256,uint256,uint8,bytes32,bytes32)": {
        "details": "Delegates votes from signer to `delegatee`"
      },
      "delegates(address)": {
        "details": "Get the address `account` is currently delegating to."
      },
      "getPastTotalSupply(uint256)": {
        "details": "Retrieve the `totalSupply` at the end of `blockNumber`. Note, this value is the sum of all balances. It is but NOT the sum of all the delegated votes! Requirements: - `blockNumber` must have been already mined"
      },
      "getPastVotes(address,uint256)": {
        "details": "Retrieve the number of votes for `account` at the end of `blockNumber`. Requirements: - `blockNumber` must have been already mined"
      },
      "getVotes(address)": {
        "details": "Gets the current votes balance for `account`"
      },
      "increaseAllowance(address,uint256)": {
        "details": "Atomically increases the allowance granted to `spender` by the caller. This is an alternative to {approve} that can be used as a mitigation for problems described in {IERC20-approve}. Emits an {Approval} event indicating the updated allowance. Requirements: - `spender` cannot be the zero address."
      },
      "initialize(address,address,address)": {
        "details": "This is to set the address of the contracts",
        "params": {
          "newAgreementsAddress": "This is the address of new Agreement contract",
          "newTreasuryAddress": "This is the address of new treasury contract",
          "newTreasuryCoreAddress": "This is the address of new treasury core contract"
        }
      },
      "name()": {
        "details": "Returns the name of the token."
      },
      "nonces(address)": {
        "details": "See {IERC20Permit-nonces}."
      },
      "numCheckpoints(address)": {
        "details": "Get number of checkpoints for `account`."
      },
      "permit(address,address,uint256,uint256,uint8,bytes32,bytes32)": {
        "details": "See {IERC20Permit-permit}."
      },
      "safeTransferFrom(address,address,uint256)": {
        "details": "This function will be only called from crowdrecords contracts, it will check for the allowance and approve tokens on behalf of user so that necessary operations can be performed",
        "params": {
          "amount": "number of tokens to be transferred",
          "to": "receiver's address"
        }
      },
      "symbol()": {
        "details": "Returns the symbol of the token, usually a shorter version of the name."
      },
      "totalSupply()": {
        "details": "See {IERC20-totalSupply}."
      },
      "transfer(address,uint256)": {
        "details": "See {IERC20-transfer}. Requirements: - `to` cannot be the zero address. - the caller must have a balance of at least `amount`."
      },
      "transferFrom(address,address,uint256)": {
        "details": "See {IERC20-transferFrom}. Emits an {Approval} event indicating the updated allowance. This is not required by the EIP. See the note at the beginning of {ERC20}. NOTE: Does not update the allowance if the current allowance is the maximum `uint256`. Requirements: - `from` and `to` cannot be the zero address. - `from` must have a balance of at least `amount`. - the caller must have allowance for ``from``'s tokens of at least `amount`."
      }
    },
    "version": 1
  },
  "userdoc": {
    "kind": "user",
    "methods": {
      "safeTransferFrom(address,address,uint256)": {
        "notice": "This function is only for crowdrecords contracts This function is called from agreements contracts for paying and claiming the royalty, and from orders contract for transfer of CRD tokens for purchase or sale of community or governance tokens and from treasury core contract when someone wants to transfer their tokens to other accounts"
      }
    },
    "version": 1
  }
}