{
  "contractName": "CrowdrecordsGovernor",
  "abi": [
    {
      "inputs": [
        {
          "internalType": "contract IVotes",
          "name": "_token",
          "type": "address"
        },
        {
          "internalType": "uint256",
          "name": "votingDelayBlocks",
          "type": "uint256"
        },
        {
          "internalType": "uint256",
          "name": "votingPeriodBlocks",
          "type": "uint256"
        },
        {
          "internalType": "uint256",
          "name": "votingThreshold",
          "type": "uint256"
        }
      ],
      "stateMutability": "nonpayable",
      "type": "constructor"
    },
    {
      "anonymous": false,
      "inputs": [
        {
          "indexed": false,
          "internalType": "uint256",
          "name": "proposalId",
          "type": "uint256"
        }
      ],
      "name": "ProposalCanceled",
      "type": "event"
    },
    {
      "anonymous": false,
      "inputs": [
        {
          "indexed": false,
          "internalType": "uint256",
          "name": "proposalId",
          "type": "uint256"
        },
        {
          "indexed": false,
          "internalType": "address",
          "name": "proposer",
          "type": "address"
        },
        {
          "indexed": false,
          "internalType": "address[]",
          "name": "targets",
          "type": "address[]"
        },
        {
          "indexed": false,
          "internalType": "uint256[]",
          "name": "values",
          "type": "uint256[]"
        },
        {
          "indexed": false,
          "internalType": "string[]",
          "name": "signatures",
          "type": "string[]"
        },
        {
          "indexed": false,
          "internalType": "bytes[]",
          "name": "calldatas",
          "type": "bytes[]"
        },
        {
          "indexed": false,
          "internalType": "uint256",
          "name": "startBlock",
          "type": "uint256"
        },
        {
          "indexed": false,
          "internalType": "uint256",
          "name": "endBlock",
          "type": "uint256"
        },
        {
          "indexed": false,
          "internalType": "string",
          "name": "description",
          "type": "string"
        }
      ],
      "name": "ProposalCreated",
      "type": "event"
    },
    {
      "anonymous": false,
      "inputs": [
        {
          "indexed": false,
          "internalType": "uint256",
          "name": "proposalId",
          "type": "uint256"
        }
      ],
      "name": "ProposalExecuted",
      "type": "event"
    },
    {
      "anonymous": false,
      "inputs": [
        {
          "indexed": false,
          "internalType": "uint256",
          "name": "oldProposalThreshold",
          "type": "uint256"
        },
        {
          "indexed": false,
          "internalType": "uint256",
          "name": "newProposalThreshold",
          "type": "uint256"
        }
      ],
      "name": "ProposalThresholdSet",
      "type": "event"
    },
    {
      "anonymous": false,
      "inputs": [
        {
          "indexed": false,
          "internalType": "uint256",
          "name": "oldQuorumNumerator",
          "type": "uint256"
        },
        {
          "indexed": false,
          "internalType": "uint256",
          "name": "newQuorumNumerator",
          "type": "uint256"
        }
      ],
      "name": "QuorumNumeratorUpdated",
      "type": "event"
    },
    {
      "anonymous": false,
      "inputs": [
        {
          "indexed": true,
          "internalType": "address",
          "name": "voter",
          "type": "address"
        },
        {
          "indexed": false,
          "internalType": "uint256",
          "name": "proposalId",
          "type": "uint256"
        },
        {
          "indexed": false,
          "internalType": "uint8",
          "name": "support",
          "type": "uint8"
        },
        {
          "indexed": false,
          "internalType": "uint256",
          "name": "weight",
          "type": "uint256"
        },
        {
          "indexed": false,
          "internalType": "string",
          "name": "reason",
          "type": "string"
        }
      ],
      "name": "VoteCast",
      "type": "event"
    },
    {
      "anonymous": false,
      "inputs": [
        {
          "indexed": false,
          "internalType": "uint256",
          "name": "oldVotingDelay",
          "type": "uint256"
        },
        {
          "indexed": false,
          "internalType": "uint256",
          "name": "newVotingDelay",
          "type": "uint256"
        }
      ],
      "name": "VotingDelaySet",
      "type": "event"
    },
    {
      "anonymous": false,
      "inputs": [
        {
          "indexed": false,
          "internalType": "uint256",
          "name": "oldVotingPeriod",
          "type": "uint256"
        },
        {
          "indexed": false,
          "internalType": "uint256",
          "name": "newVotingPeriod",
          "type": "uint256"
        }
      ],
      "name": "VotingPeriodSet",
      "type": "event"
    },
    {
      "inputs": [],
      "name": "BALLOT_TYPEHASH",
      "outputs": [
        {
          "internalType": "bytes32",
          "name": "",
          "type": "bytes32"
        }
      ],
      "stateMutability": "view",
      "type": "function",
      "constant": true
    },
    {
      "inputs": [],
      "name": "COUNTING_MODE",
      "outputs": [
        {
          "internalType": "string",
          "name": "",
          "type": "string"
        }
      ],
      "stateMutability": "pure",
      "type": "function",
      "constant": true
    },
    {
      "inputs": [
        {
          "internalType": "uint256",
          "name": "proposalId",
          "type": "uint256"
        },
        {
          "internalType": "uint8",
          "name": "support",
          "type": "uint8"
        }
      ],
      "name": "castVote",
      "outputs": [
        {
          "internalType": "uint256",
          "name": "",
          "type": "uint256"
        }
      ],
      "stateMutability": "nonpayable",
      "type": "function"
    },
    {
      "inputs": [
        {
          "internalType": "uint256",
          "name": "proposalId",
          "type": "uint256"
        },
        {
          "internalType": "uint8",
          "name": "support",
          "type": "uint8"
        },
        {
          "internalType": "uint8",
          "name": "v",
          "type": "uint8"
        },
        {
          "internalType": "bytes32",
          "name": "r",
          "type": "bytes32"
        },
        {
          "internalType": "bytes32",
          "name": "s",
          "type": "bytes32"
        }
      ],
      "name": "castVoteBySig",
      "outputs": [
        {
          "internalType": "uint256",
          "name": "",
          "type": "uint256"
        }
      ],
      "stateMutability": "nonpayable",
      "type": "function"
    },
    {
      "inputs": [
        {
          "internalType": "uint256",
          "name": "proposalId",
          "type": "uint256"
        },
        {
          "internalType": "uint8",
          "name": "support",
          "type": "uint8"
        },
        {
          "internalType": "string",
          "name": "reason",
          "type": "string"
        }
      ],
      "name": "castVoteWithReason",
      "outputs": [
        {
          "internalType": "uint256",
          "name": "",
          "type": "uint256"
        }
      ],
      "stateMutability": "nonpayable",
      "type": "function"
    },
    {
      "inputs": [
        {
          "internalType": "address[]",
          "name": "targets",
          "type": "address[]"
        },
        {
          "internalType": "uint256[]",
          "name": "values",
          "type": "uint256[]"
        },
        {
          "internalType": "bytes[]",
          "name": "calldatas",
          "type": "bytes[]"
        },
        {
          "internalType": "bytes32",
          "name": "descriptionHash",
          "type": "bytes32"
        }
      ],
      "name": "execute",
      "outputs": [
        {
          "internalType": "uint256",
          "name": "",
          "type": "uint256"
        }
      ],
      "stateMutability": "payable",
      "type": "function",
      "payable": true
    },
    {
      "inputs": [
        {
          "internalType": "address",
          "name": "account",
          "type": "address"
        },
        {
          "internalType": "uint256",
          "name": "blockNumber",
          "type": "uint256"
        }
      ],
      "name": "getVotes",
      "outputs": [
        {
          "internalType": "uint256",
          "name": "",
          "type": "uint256"
        }
      ],
      "stateMutability": "view",
      "type": "function",
      "constant": true
    },
    {
      "inputs": [
        {
          "internalType": "uint256",
          "name": "proposalId",
          "type": "uint256"
        },
        {
          "internalType": "address",
          "name": "account",
          "type": "address"
        }
      ],
      "name": "hasVoted",
      "outputs": [
        {
          "internalType": "bool",
          "name": "",
          "type": "bool"
        }
      ],
      "stateMutability": "view",
      "type": "function",
      "constant": true
    },
    {
      "inputs": [
        {
          "internalType": "address[]",
          "name": "targets",
          "type": "address[]"
        },
        {
          "internalType": "uint256[]",
          "name": "values",
          "type": "uint256[]"
        },
        {
          "internalType": "bytes[]",
          "name": "calldatas",
          "type": "bytes[]"
        },
        {
          "internalType": "bytes32",
          "name": "descriptionHash",
          "type": "bytes32"
        }
      ],
      "name": "hashProposal",
      "outputs": [
        {
          "internalType": "uint256",
          "name": "",
          "type": "uint256"
        }
      ],
      "stateMutability": "pure",
      "type": "function",
      "constant": true
    },
    {
      "inputs": [],
      "name": "name",
      "outputs": [
        {
          "internalType": "string",
          "name": "",
          "type": "string"
        }
      ],
      "stateMutability": "view",
      "type": "function",
      "constant": true
    },
    {
      "inputs": [
        {
          "internalType": "uint256",
          "name": "proposalId",
          "type": "uint256"
        }
      ],
      "name": "proposalDeadline",
      "outputs": [
        {
          "internalType": "uint256",
          "name": "",
          "type": "uint256"
        }
      ],
      "stateMutability": "view",
      "type": "function",
      "constant": true
    },
    {
      "inputs": [
        {
          "internalType": "uint256",
          "name": "proposalId",
          "type": "uint256"
        }
      ],
      "name": "proposalSnapshot",
      "outputs": [
        {
          "internalType": "uint256",
          "name": "",
          "type": "uint256"
        }
      ],
      "stateMutability": "view",
      "type": "function",
      "constant": true
    },
    {
      "inputs": [
        {
          "internalType": "uint256",
          "name": "proposalId",
          "type": "uint256"
        }
      ],
      "name": "proposalVotes",
      "outputs": [
        {
          "internalType": "uint256",
          "name": "againstVotes",
          "type": "uint256"
        },
        {
          "internalType": "uint256",
          "name": "forVotes",
          "type": "uint256"
        },
        {
          "internalType": "uint256",
          "name": "abstainVotes",
          "type": "uint256"
        }
      ],
      "stateMutability": "view",
      "type": "function",
      "constant": true
    },
    {
      "inputs": [
        {
          "internalType": "address[]",
          "name": "targets",
          "type": "address[]"
        },
        {
          "internalType": "uint256[]",
          "name": "values",
          "type": "uint256[]"
        },
        {
          "internalType": "bytes[]",
          "name": "calldatas",
          "type": "bytes[]"
        },
        {
          "internalType": "string",
          "name": "description",
          "type": "string"
        }
      ],
      "name": "propose",
      "outputs": [
        {
          "internalType": "uint256",
          "name": "",
          "type": "uint256"
        }
      ],
      "stateMutability": "nonpayable",
      "type": "function"
    },
    {
      "inputs": [],
      "name": "quorumDenominator",
      "outputs": [
        {
          "internalType": "uint256",
          "name": "",
          "type": "uint256"
        }
      ],
      "stateMutability": "view",
      "type": "function",
      "constant": true
    },
    {
      "inputs": [],
      "name": "quorumNumerator",
      "outputs": [
        {
          "internalType": "uint256",
          "name": "",
          "type": "uint256"
        }
      ],
      "stateMutability": "view",
      "type": "function",
      "constant": true
    },
    {
      "inputs": [
        {
          "internalType": "address",
          "name": "target",
          "type": "address"
        },
        {
          "internalType": "uint256",
          "name": "value",
          "type": "uint256"
        },
        {
          "internalType": "bytes",
          "name": "data",
          "type": "bytes"
        }
      ],
      "name": "relay",
      "outputs": [],
      "stateMutability": "nonpayable",
      "type": "function"
    },
    {
      "inputs": [
        {
          "internalType": "uint256",
          "name": "newProposalThreshold",
          "type": "uint256"
        }
      ],
      "name": "setProposalThreshold",
      "outputs": [],
      "stateMutability": "nonpayable",
      "type": "function"
    },
    {
      "inputs": [
        {
          "internalType": "uint256",
          "name": "newVotingDelay",
          "type": "uint256"
        }
      ],
      "name": "setVotingDelay",
      "outputs": [],
      "stateMutability": "nonpayable",
      "type": "function"
    },
    {
      "inputs": [
        {
          "internalType": "uint256",
          "name": "newVotingPeriod",
          "type": "uint256"
        }
      ],
      "name": "setVotingPeriod",
      "outputs": [],
      "stateMutability": "nonpayable",
      "type": "function"
    },
    {
      "inputs": [
        {
          "internalType": "uint256",
          "name": "proposalId",
          "type": "uint256"
        }
      ],
      "name": "state",
      "outputs": [
        {
          "internalType": "enum IGovernor.ProposalState",
          "name": "",
          "type": "uint8"
        }
      ],
      "stateMutability": "view",
      "type": "function",
      "constant": true
    },
    {
      "inputs": [
        {
          "internalType": "bytes4",
          "name": "interfaceId",
          "type": "bytes4"
        }
      ],
      "name": "supportsInterface",
      "outputs": [
        {
          "internalType": "bool",
          "name": "",
          "type": "bool"
        }
      ],
      "stateMutability": "view",
      "type": "function",
      "constant": true
    },
    {
      "inputs": [],
      "name": "token",
      "outputs": [
        {
          "internalType": "contract IVotes",
          "name": "",
          "type": "address"
        }
      ],
      "stateMutability": "view",
      "type": "function",
      "constant": true
    },
    {
      "inputs": [
        {
          "internalType": "uint256",
          "name": "newQuorumNumerator",
          "type": "uint256"
        }
      ],
      "name": "updateQuorumNumerator",
      "outputs": [],
      "stateMutability": "nonpayable",
      "type": "function"
    },
    {
      "inputs": [],
      "name": "version",
      "outputs": [
        {
          "internalType": "string",
          "name": "",
          "type": "string"
        }
      ],
      "stateMutability": "view",
      "type": "function",
      "constant": true
    },
    {
      "stateMutability": "payable",
      "type": "receive",
      "payable": true
    },
    {
      "inputs": [],
      "name": "votingDelay",
      "outputs": [
        {
          "internalType": "uint256",
          "name": "",
          "type": "uint256"
        }
      ],
      "stateMutability": "view",
      "type": "function",
      "constant": true
    },
    {
      "inputs": [],
      "name": "votingPeriod",
      "outputs": [
        {
          "internalType": "uint256",
          "name": "",
          "type": "uint256"
        }
      ],
      "stateMutability": "view",
      "type": "function",
      "constant": true
    },
    {
      "inputs": [
        {
          "internalType": "uint256",
          "name": "blockNumber",
          "type": "uint256"
        }
      ],
      "name": "quorum",
      "outputs": [
        {
          "internalType": "uint256",
          "name": "",
          "type": "uint256"
        }
      ],
      "stateMutability": "view",
      "type": "function",
      "constant": true
    },
    {
      "inputs": [],
      "name": "proposalThreshold",
      "outputs": [
        {
          "internalType": "uint256",
          "name": "",
          "type": "uint256"
        }
      ],
      "stateMutability": "view",
      "type": "function",
      "constant": true
    }
  ],
  "bytecode": "0x6101606040523480156200001257600080fd5b506040516200344d3803806200344d833981016040819052620000359162000426565b6004848484846040518060400160405280601481526020017f43726f77647265636f726473476f7665726e6f7200000000000000000000000081525080620000826200017260201b60201c565b815160208084019190912082518383012060e08290526101008190524660a0818152604080517f8b73c3c69bb8fe3d512ecc4cf759cc79239f7b179b0ffacaa9a75d522b39400f81880181905281830187905260608201869052608082019490945230818401528151808203909301835260c00190528051940193909320919290916080523060c052610120525050825162000128925060009150602084019062000380565b50620001369050836200018d565b6200014182620001ce565b6200014c8162000275565b5050506001600160a01b0316610140526200016781620002b6565b5050505050620004b0565b6040805180820190915260018152603160f81b602082015290565b60025460408051918252602082018390527fc565b045403dc03c2eea82b81a0465edad9e2e7fc4d97e11421c209da93d7a93910160405180910390a1600255565b60008111620002345760405162461bcd60e51b815260206004820152602760248201527f476f7665726e6f7253657474696e67733a20766f74696e6720706572696f6420604482015266746f6f206c6f7760c81b60648201526084015b60405180910390fd5b60035460408051918252602082018390527f7e3f7f0708a84de9203036abaa450dccc85ad5ff52f78c170f3edb55cf5e8828910160405180910390a1600355565b60045460408051918252602082018390527fccb45da8d5717e6c4544694297c4ba5cf151d455c9bb0ed4fc7a38411bc05461910160405180910390a1600455565b60648111156200033b5760405162461bcd60e51b815260206004820152604360248201527f476f7665726e6f72566f74657351756f72756d4672616374696f6e3a2071756f60448201527f72756d4e756d657261746f72206f7665722071756f72756d44656e6f6d696e616064820152623a37b960e91b608482015260a4016200022b565b600680549082905560408051828152602081018490527f0553476bf02ef2726e8ce5ced78d63e26e602e4a2257b1f559418e24b4633997910160405180910390a15050565b8280546200038e9062000473565b90600052602060002090601f016020900481019282620003b25760008555620003fd565b82601f10620003cd57805160ff1916838001178555620003fd565b82800160010185558215620003fd579182015b82811115620003fd578251825591602001919060010190620003e0565b506200040b9291506200040f565b5090565b5b808211156200040b576000815560010162000410565b600080600080608085870312156200043d57600080fd5b84516001600160a01b03811681146200045557600080fd5b60208601516040870151606090970151919890975090945092505050565b600181811c908216806200048857607f821691505b60208210811415620004aa57634e487b7160e01b600052602260045260246000fd5b50919050565b60805160a05160c05160e051610100516101205161014051612f34620005196000396000818161061f015281816112de0152611a2f01526000611bad01526000611bfc01526000611bd701526000611b3001526000611b5a01526000611b840152612f346000f3fe6080604052600436106101c65760003560e01c80637b3c71d3116100f7578063c59057e411610095578063eb9019d411610064578063eb9019d4146105ad578063ece40cc1146105cd578063f8ce560a146105ed578063fc0c546a1461060d57600080fd5b8063c59057e4146104f3578063dd4e2ba514610513578063deaaa7cc14610559578063ea0217cf1461058d57600080fd5b8063a7713a70116100d1578063a7713a7014610489578063b58131b01461049e578063c01f9e37146104b3578063c28bc2fa146104d357600080fd5b80637b3c71d3146104355780637d5e81e21461045557806397c3d3341461047557600080fd5b80633bccf4fd11610164578063544ffc9c1161013e578063544ffc9c1461035a57806354fd4d50146103af57806356781388146103f557806370b0f6601461041557600080fd5b80633bccf4fd146102b65780633e4f49e6146102d6578063438596321461030357600080fd5b806306fdde03116101a057806306fdde031461024c5780632656227d1461026e5780632d63f693146102815780633932abb1146102a157600080fd5b806301ffc9a7146101d457806302a251a31461020957806306f3f9e61461022c57600080fd5b366101cf57005b005b600080fd5b3480156101e057600080fd5b506101f46101ef36600461234f565b610666565b60405190151581526020015b60405180910390f35b34801561021557600080fd5b5061021e6106ff565b604051908152602001610200565b34801561023857600080fd5b506101cd610247366004612391565b61070f565b34801561025857600080fd5b50610261610789565b6040516102009190612424565b61021e61027c3660046126da565b61081b565b34801561028d57600080fd5b5061021e61029c366004612391565b61097c565b3480156102ad57600080fd5b5061021e6109b5565b3480156102c257600080fd5b5061021e6102d136600461277b565b6109c0565b3480156102e257600080fd5b506102f66102f1366004612391565b610a54565b60405161020091906127f8565b34801561030f57600080fd5b506101f461031e366004612839565b600082815260056020908152604080832073ffffffffffffffffffffffffffffffffffffffff8516845260030190915290205460ff1692915050565b34801561036657600080fd5b50610394610375366004612391565b6000908152600560205260409020805460018201546002909201549092565b60408051938452602084019290925290820152606001610200565b3480156103bb57600080fd5b5060408051808201909152600181527f31000000000000000000000000000000000000000000000000000000000000006020820152610261565b34801561040157600080fd5b5061021e610410366004612865565b610b7a565b34801561042157600080fd5b506101cd610430366004612391565b610ba3565b34801561044157600080fd5b5061021e6104503660046128d1565b610c15565b34801561046157600080fd5b5061021e61047036600461292b565b610c67565b34801561048157600080fd5b50606461021e565b34801561049557600080fd5b5060065461021e565b3480156104aa57600080fd5b5061021e6110d8565b3480156104bf57600080fd5b5061021e6104ce366004612391565b6110e3565b3480156104df57600080fd5b506101cd6104ee3660046129ec565b611113565b3480156104ff57600080fd5b5061021e61050e3660046126da565b6111c5565b34801561051f57600080fd5b506040805180820190915260208082527f737570706f72743d627261766f2671756f72756d3d666f722c6162737461696e90820152610261565b34801561056557600080fd5b5061021e7f150214d74d59b7d1e90c73fc22ef3d991dd0a76b046543d4d80ab92d2a50328f81565b34801561059957600080fd5b506101cd6105a8366004612391565b61121d565b3480156105b957600080fd5b5061021e6105c8366004612a2e565b61128f565b3480156105d957600080fd5b506101cd6105e8366004612391565b611352565b3480156105f957600080fd5b5061021e610608366004612391565b6113c4565b34801561061957600080fd5b506106417f000000000000000000000000000000000000000000000000000000000000000081565b60405173ffffffffffffffffffffffffffffffffffffffff9091168152602001610200565b60007fffffffff0000000000000000000000000000000000000000000000000000000082167fbf26d8970000000000000000000000000000000000000000000000000000000014806106f957507f01ffc9a7000000000000000000000000000000000000000000000000000000007fffffffff000000000000000000000000000000000000000000000000000000008316145b92915050565b600061070a60035490565b905090565b33301461077d576040517f08c379a000000000000000000000000000000000000000000000000000000000815260206004820152601860248201527f476f7665726e6f723a206f6e6c79476f7665726e616e6365000000000000000060448201526064015b60405180910390fd5b610786816113cf565b50565b60606000805461079890612a58565b80601f01602080910402602001604051908101604052809291908181526020018280546107c490612a58565b80156108115780601f106107e657610100808354040283529160200191610811565b820191906000526020600020905b8154815290600101906020018083116107f457829003601f168201915b5050505050905090565b60008061082a868686866111c5565b9050600061083782610a54565b9050600481600781111561084d5761084d6127c9565b148061086a57506005816007811115610868576108686127c9565b145b6108f6576040517f08c379a000000000000000000000000000000000000000000000000000000000815260206004820152602160248201527f476f7665726e6f723a2070726f706f73616c206e6f742073756363657373667560448201527f6c000000000000000000000000000000000000000000000000000000000000006064820152608401610774565b60008281526001602081815260409283902060020180547fffffffffffffffffffffffffffffffffffffffffffffffffffffffffffffff001690921790915590518381527f712ae1383f79ac853f8d882153778e0260ef8f03b504e2866e0593e04d2b291f910160405180910390a161097282888888886114cb565b5095945050505050565b600081815260016020908152604080832081519283019091525467ffffffffffffffff16908190525b67ffffffffffffffff1692915050565b600061070a60025490565b604080517f150214d74d59b7d1e90c73fc22ef3d991dd0a76b046543d4d80ab92d2a50328f602082015290810186905260ff851660608201526000908190610a2c90610a2490608001604051602081830303815290604052805190602001206115d7565b868686611640565b9050610a498782886040518060200160405280600081525061165e565b979650505050505050565b6000818152600160205260408120600281015460ff1615610a785750600792915050565b6002810154610100900460ff1615610a935750600292915050565b6000610a9e8461097c565b905080610b07576040517f08c379a000000000000000000000000000000000000000000000000000000000815260206004820152601d60248201527f476f7665726e6f723a20756e6b6e6f776e2070726f706f73616c2069640000006044820152606401610774565b438110610b18575060009392505050565b6000610b23856110e3565b9050438110610b3757506001949350505050565b610b40856117ab565b8015610b5f575060008581526005602052604090208054600190910154115b15610b6f57506004949350505050565b506003949350505050565b600080339050610b9b8482856040518060200160405280600081525061165e565b949350505050565b333014610c0c576040517f08c379a000000000000000000000000000000000000000000000000000000000815260206004820152601860248201527f476f7665726e6f723a206f6e6c79476f7665726e616e636500000000000000006044820152606401610774565b610786816117e2565b600080339050610c5d86828787878080601f01602080910402602001604051908101604052809392919081815260200183838082843760009201919091525061165e92505050565b9695505050505050565b6000610c716110d8565b610c80336105c8600143612adb565b1015610d34576040517f08c379a000000000000000000000000000000000000000000000000000000000815260206004820152604360248201527f476f7665726e6f72436f6d7061746962696c697479427261766f3a2070726f7060448201527f6f73657220766f7465732062656c6f772070726f706f73616c2074687265736860648201527f6f6c640000000000000000000000000000000000000000000000000000000000608482015260a401610774565b6000610d4986868686805190602001206111c5565b90508451865114610ddc576040517f08c379a000000000000000000000000000000000000000000000000000000000815260206004820152602160248201527f476f7665726e6f723a20696e76616c69642070726f706f73616c206c656e677460448201527f68000000000000000000000000000000000000000000000000000000000000006064820152608401610774565b8351865114610e6d576040517f08c379a000000000000000000000000000000000000000000000000000000000815260206004820152602160248201527f476f7665726e6f723a20696e76616c69642070726f706f73616c206c656e677460448201527f68000000000000000000000000000000000000000000000000000000000000006064820152608401610774565b6000865111610ed8576040517f08c379a000000000000000000000000000000000000000000000000000000000815260206004820152601860248201527f476f7665726e6f723a20656d7074792070726f706f73616c00000000000000006044820152606401610774565b6000818152600160209081526040918290208251918201909252815467ffffffffffffffff169081905215610f8f576040517f08c379a000000000000000000000000000000000000000000000000000000000815260206004820152602160248201527f476f7665726e6f723a2070726f706f73616c20616c726561647920657869737460448201527f73000000000000000000000000000000000000000000000000000000000000006064820152608401610774565b6000610fa1610f9c6109b5565b611823565b610faa43611823565b610fb49190612af2565b90506000610fc3610f9c6106ff565b610fcd9083612af2565b83547fffffffffffffffffffffffffffffffffffffffffffffffff00000000000000001667ffffffffffffffff841617845590506001830180547fffffffffffffffffffffffffffffffffffffffffffffffff00000000000000001667ffffffffffffffff83161790557f7d84a6263ae0d98d3329bd7b46bb4e8d6f98cd35a7adb45c274c8b7fd5ebd5e084338b8b8d5167ffffffffffffffff81111561107657611076612437565b6040519080825280602002602001820160405280156110a957816020015b60608152602001906001900390816110945790505b508c88888e6040516110c399989796959493929190612bf1565b60405180910390a15091979650505050505050565b600061070a60045490565b600081815260016020818152604080842081519283019091529091015467ffffffffffffffff16908190526109a5565b33301461117c576040517f08c379a000000000000000000000000000000000000000000000000000000000815260206004820152601860248201527f476f7665726e6f723a206f6e6c79476f7665726e616e636500000000000000006044820152606401610774565b6111be8483838080601f0160208091040260200160405190810160405280939291908181526020018383808284376000920191909152508892506118c1915050565b5050505050565b6000848484846040516020016111de9493929190612d0e565b604080517fffffffffffffffffffffffffffffffffffffffffffffffffffffffffffffffe0818403018152919052805160209091012095945050505050565b333014611286576040517f08c379a000000000000000000000000000000000000000000000000000000000815260206004820152601860248201527f476f7665726e6f723a206f6e6c79476f7665726e616e636500000000000000006044820152606401610774565b610786816118e7565b6040517f3a46b1a800000000000000000000000000000000000000000000000000000000815273ffffffffffffffffffffffffffffffffffffffff8381166004830152602482018390526000917f000000000000000000000000000000000000000000000000000000000000000090911690633a46b1a890604401602060405180830381865afa158015611327573d6000803e3d6000fd5b505050506040513d601f19601f8201168201806040525081019061134b9190612d59565b9392505050565b3330146113bb576040517f08c379a000000000000000000000000000000000000000000000000000000000815260206004820152601860248201527f476f7665726e6f723a206f6e6c79476f7665726e616e636500000000000000006044820152606401610774565b610786816119b8565b60006106f9826119f9565b6064811115611486576040517f08c379a000000000000000000000000000000000000000000000000000000000815260206004820152604360248201527f476f7665726e6f72566f74657351756f72756d4672616374696f6e3a2071756f60448201527f72756d4e756d657261746f72206f7665722071756f72756d44656e6f6d696e6160648201527f746f720000000000000000000000000000000000000000000000000000000000608482015260a401610774565b600680549082905560408051828152602081018490527f0553476bf02ef2726e8ce5ced78d63e26e602e4a2257b1f559418e24b4633997910160405180910390a15050565b6000604051806060016040528060278152602001612eaf60279139905060005b85518110156115ce5760008087838151811061150957611509612d72565b602002602001015173ffffffffffffffffffffffffffffffffffffffff1687848151811061153957611539612d72565b602002602001015187858151811061155357611553612d72565b60200260200101516040516115689190612da1565b60006040518083038185875af1925050503d80600081146115a5576040519150601f19603f3d011682016040523d82523d6000602084013e6115aa565b606091505b50915091506115ba828286611ac3565b505050806115c790612dbd565b90506114eb565b50505050505050565b60006106f96115e4611b16565b836040517f19010000000000000000000000000000000000000000000000000000000000006020820152602281018390526042810182905260009060620160405160208183030381529060405280519060200120905092915050565b600080600061165187878787611c4a565b9150915061097281611d62565b600084815260016020819052604082209061167887610a54565b6007811115611689576116896127c9565b14611716576040517f08c379a000000000000000000000000000000000000000000000000000000000815260206004820152602360248201527f476f7665726e6f723a20766f7465206e6f742063757272656e746c792061637460448201527f69766500000000000000000000000000000000000000000000000000000000006064820152608401610774565b6040805160208101909152815467ffffffffffffffff169081905260009061173f90879061128f565b905061174d87878784611fbb565b8573ffffffffffffffffffffffffffffffffffffffff167fb8e138887d0aa13bab447e82de9d5c1777041ecd21ca36ba824ff1e6c07ddda4888784886040516117999493929190612df6565b60405180910390a29695505050505050565b6000818152600560205260408120600281015460018201546117cd9190612e1e565b6117d96106088561097c565b11159392505050565b60025460408051918252602082018390527fc565b045403dc03c2eea82b81a0465edad9e2e7fc4d97e11421c209da93d7a93910160405180910390a1600255565b600067ffffffffffffffff8211156118bd576040517f08c379a000000000000000000000000000000000000000000000000000000000815260206004820152602660248201527f53616665436173743a2076616c756520646f65736e27742066697420696e203660448201527f34206269747300000000000000000000000000000000000000000000000000006064820152608401610774565b5090565b6060610b9b848484604051806060016040528060298152602001612ed6602991396121c4565b60008111611977576040517f08c379a000000000000000000000000000000000000000000000000000000000815260206004820152602760248201527f476f7665726e6f7253657474696e67733a20766f74696e6720706572696f642060448201527f746f6f206c6f77000000000000000000000000000000000000000000000000006064820152608401610774565b60035460408051918252602082018390527f7e3f7f0708a84de9203036abaa450dccc85ad5ff52f78c170f3edb55cf5e8828910160405180910390a1600355565b60045460408051918252602082018390527fccb45da8d5717e6c4544694297c4ba5cf151d455c9bb0ed4fc7a38411bc05461910160405180910390a1600455565b600060646006546040517f8e539e8c000000000000000000000000000000000000000000000000000000008152600481018590527f000000000000000000000000000000000000000000000000000000000000000073ffffffffffffffffffffffffffffffffffffffff1690638e539e8c90602401602060405180830381865afa158015611a8b573d6000803e3d6000fd5b505050506040513d601f19601f82011682018060405250810190611aaf9190612d59565b611ab99190612e36565b6106f99190612e73565b60608315611ad257508161134b565b825115611ae25782518084602001fd5b816040517f08c379a00000000000000000000000000000000000000000000000000000000081526004016107749190612424565b60003073ffffffffffffffffffffffffffffffffffffffff7f000000000000000000000000000000000000000000000000000000000000000016148015611b7c57507f000000000000000000000000000000000000000000000000000000000000000046145b15611ba657507f000000000000000000000000000000000000000000000000000000000000000090565b50604080517f00000000000000000000000000000000000000000000000000000000000000006020808301919091527f0000000000000000000000000000000000000000000000000000000000000000828401527f000000000000000000000000000000000000000000000000000000000000000060608301524660808301523060a0808401919091528351808403909101815260c0909201909252805191012090565b6000807f7fffffffffffffffffffffffffffffff5d576e7357a4501ddfe92f46681b20a0831115611c815750600090506003611d59565b8460ff16601b14158015611c9957508460ff16601c14155b15611caa5750600090506004611d59565b6040805160008082526020820180845289905260ff881692820192909252606081018690526080810185905260019060a0016020604051602081039080840390855afa158015611cfe573d6000803e3d6000fd5b50506040517fffffffffffffffffffffffffffffffffffffffffffffffffffffffffffffffe0015191505073ffffffffffffffffffffffffffffffffffffffff8116611d5257600060019250925050611d59565b9150600090505b94509492505050565b6000816004811115611d7657611d766127c9565b1415611d7f5750565b6001816004811115611d9357611d936127c9565b1415611dfb576040517f08c379a000000000000000000000000000000000000000000000000000000000815260206004820152601860248201527f45434453413a20696e76616c6964207369676e617475726500000000000000006044820152606401610774565b6002816004811115611e0f57611e0f6127c9565b1415611e77576040517f08c379a000000000000000000000000000000000000000000000000000000000815260206004820152601f60248201527f45434453413a20696e76616c6964207369676e6174757265206c656e677468006044820152606401610774565b6003816004811115611e8b57611e8b6127c9565b1415611f19576040517f08c379a000000000000000000000000000000000000000000000000000000000815260206004820152602260248201527f45434453413a20696e76616c6964207369676e6174757265202773272076616c60448201527f75650000000000000000000000000000000000000000000000000000000000006064820152608401610774565b6004816004811115611f2d57611f2d6127c9565b1415610786576040517f08c379a000000000000000000000000000000000000000000000000000000000815260206004820152602260248201527f45434453413a20696e76616c6964207369676e6174757265202776272076616c60448201527f75650000000000000000000000000000000000000000000000000000000000006064820152608401610774565b600084815260056020908152604080832073ffffffffffffffffffffffffffffffffffffffff87168452600381019092529091205460ff1615612080576040517f08c379a000000000000000000000000000000000000000000000000000000000815260206004820152602760248201527f476f7665726e6f72566f74696e6753696d706c653a20766f746520616c72656160448201527f64792063617374000000000000000000000000000000000000000000000000006064820152608401610774565b73ffffffffffffffffffffffffffffffffffffffff84166000908152600382016020526040812080547fffffffffffffffffffffffffffffffffffffffffffffffffffffffffffffff0016600117905560ff168360ff1614156120fc57818160000160008282546120f19190612e1e565b909155506111be9050565b60ff83166001141561211c57818160010160008282546120f19190612e1e565b60ff83166002141561213c57818160020160008282546120f19190612e1e565b6040517f08c379a000000000000000000000000000000000000000000000000000000000815260206004820152603560248201527f476f7665726e6f72566f74696e6753696d706c653a20696e76616c696420766160448201527f6c756520666f7220656e756d20566f74655479706500000000000000000000006064820152608401610774565b606082471015612256576040517f08c379a000000000000000000000000000000000000000000000000000000000815260206004820152602660248201527f416464726573733a20696e73756666696369656e742062616c616e636520666f60448201527f722063616c6c00000000000000000000000000000000000000000000000000006064820152608401610774565b73ffffffffffffffffffffffffffffffffffffffff85163b6122d4576040517f08c379a000000000000000000000000000000000000000000000000000000000815260206004820152601d60248201527f416464726573733a2063616c6c20746f206e6f6e2d636f6e74726163740000006044820152606401610774565b6000808673ffffffffffffffffffffffffffffffffffffffff1685876040516122fd9190612da1565b60006040518083038185875af1925050503d806000811461233a576040519150601f19603f3d011682016040523d82523d6000602084013e61233f565b606091505b5091509150610a49828286611ac3565b60006020828403121561236157600080fd5b81357fffffffff000000000000000000000000000000000000000000000000000000008116811461134b57600080fd5b6000602082840312156123a357600080fd5b5035919050565b60005b838110156123c55781810151838201526020016123ad565b838111156123d4576000848401525b50505050565b600081518084526123f28160208601602086016123aa565b601f017fffffffffffffffffffffffffffffffffffffffffffffffffffffffffffffffe0169290920160200192915050565b60208152600061134b60208301846123da565b7f4e487b7100000000000000000000000000000000000000000000000000000000600052604160045260246000fd5b604051601f82017fffffffffffffffffffffffffffffffffffffffffffffffffffffffffffffffe016810167ffffffffffffffff811182821017156124ad576124ad612437565b604052919050565b600067ffffffffffffffff8211156124cf576124cf612437565b5060051b60200190565b803573ffffffffffffffffffffffffffffffffffffffff811681146124fd57600080fd5b919050565b600082601f83011261251357600080fd5b81356020612528612523836124b5565b612466565b82815260059290921b8401810191818101908684111561254757600080fd5b8286015b848110156125695761255c816124d9565b835291830191830161254b565b509695505050505050565b600082601f83011261258557600080fd5b81356020612595612523836124b5565b82815260059290921b840181019181810190868411156125b457600080fd5b8286015b8481101561256957803583529183019183016125b8565b600067ffffffffffffffff8311156125e9576125e9612437565b61261a60207fffffffffffffffffffffffffffffffffffffffffffffffffffffffffffffffe0601f86011601612466565b905082815283838301111561262e57600080fd5b828260208301376000602084830101529392505050565b600082601f83011261265657600080fd5b81356020612666612523836124b5565b82815260059290921b8401810191818101908684111561268557600080fd5b8286015b8481101561256957803567ffffffffffffffff8111156126a95760008081fd5b8701603f810189136126bb5760008081fd5b6126cc8986830135604084016125cf565b845250918301918301612689565b600080600080608085870312156126f057600080fd5b843567ffffffffffffffff8082111561270857600080fd5b61271488838901612502565b9550602087013591508082111561272a57600080fd5b61273688838901612574565b9450604087013591508082111561274c57600080fd5b5061275987828801612645565b949793965093946060013593505050565b803560ff811681146124fd57600080fd5b600080600080600060a0868803121561279357600080fd5b853594506127a36020870161276a565b93506127b16040870161276a565b94979396509394606081013594506080013592915050565b7f4e487b7100000000000000000000000000000000000000000000000000000000600052602160045260246000fd5b6020810160088310612833577f4e487b7100000000000000000000000000000000000000000000000000000000600052602160045260246000fd5b91905290565b6000806040838503121561284c57600080fd5b8235915061285c602084016124d9565b90509250929050565b6000806040838503121561287857600080fd5b8235915061285c6020840161276a565b60008083601f84011261289a57600080fd5b50813567ffffffffffffffff8111156128b257600080fd5b6020830191508360208285010111156128ca57600080fd5b9250929050565b600080600080606085870312156128e757600080fd5b843593506128f76020860161276a565b9250604085013567ffffffffffffffff81111561291357600080fd5b61291f87828801612888565b95989497509550505050565b6000806000806080858703121561294157600080fd5b843567ffffffffffffffff8082111561295957600080fd5b61296588838901612502565b9550602087013591508082111561297b57600080fd5b61298788838901612574565b9450604087013591508082111561299d57600080fd5b6129a988838901612645565b935060608701359150808211156129bf57600080fd5b508501601f810187136129d157600080fd5b6129e0878235602084016125cf565b91505092959194509250565b60008060008060608587031215612a0257600080fd5b612a0b856124d9565b935060208501359250604085013567ffffffffffffffff81111561291357600080fd5b60008060408385031215612a4157600080fd5b612a4a836124d9565b946020939093013593505050565b600181811c90821680612a6c57607f821691505b60208210811415612aa6577f4e487b7100000000000000000000000000000000000000000000000000000000600052602260045260246000fd5b50919050565b7f4e487b7100000000000000000000000000000000000000000000000000000000600052601160045260246000fd5b600082821015612aed57612aed612aac565b500390565b600067ffffffffffffffff808316818516808303821115612b1557612b15612aac565b01949350505050565b600081518084526020808501945080840160005b83811015612b6457815173ffffffffffffffffffffffffffffffffffffffff1687529582019590820190600101612b32565b509495945050505050565b600081518084526020808501945080840160005b83811015612b6457815187529582019590820190600101612b83565b6000815180845260208085019450848260051b860182860160005b85811015612be4578383038952612bd28383516123da565b98850198925090840190600101612bba565b5090979650505050505050565b60006101208b8352602073ffffffffffffffffffffffffffffffffffffffff8c1681850152816040850152612c288285018c612b1e565b91508382036060850152612c3c828b612b6f565b915083820360808501528189518084528284019150828160051b850101838c0160005b83811015612cab577fffffffffffffffffffffffffffffffffffffffffffffffffffffffffffffffe0878403018552612c998383516123da565b94860194925090850190600101612c5f565b505086810360a0880152612cbf818c612b9f565b945050505050612cdb60c084018767ffffffffffffffff169052565b67ffffffffffffffff851660e0840152828103610100840152612cfe81856123da565b9c9b505050505050505050505050565b608081526000612d216080830187612b1e565b8281036020840152612d338187612b6f565b90508281036040840152612d478186612b9f565b91505082606083015295945050505050565b600060208284031215612d6b57600080fd5b5051919050565b7f4e487b7100000000000000000000000000000000000000000000000000000000600052603260045260246000fd5b60008251612db38184602087016123aa565b9190910192915050565b60007fffffffffffffffffffffffffffffffffffffffffffffffffffffffffffffffff821415612def57612def612aac565b5060010190565b84815260ff84166020820152826040820152608060608201526000610c5d60808301846123da565b60008219821115612e3157612e31612aac565b500190565b6000817fffffffffffffffffffffffffffffffffffffffffffffffffffffffffffffffff0483118215151615612e6e57612e6e612aac565b500290565b600082612ea9577f4e487b7100000000000000000000000000000000000000000000000000000000600052601260045260246000fd5b50049056fe476f7665726e6f723a2063616c6c20726576657274656420776974686f7574206d657373616765416464726573733a206c6f772d6c6576656c2063616c6c20776974682076616c7565206661696c6564a2646970667358221220928c7c732c2f77f8b5e611745f6a1b73ccd3a783951326df21e2e51496cadbb664736f6c634300080c0033",
  "immutableReferences": {
    "2060": [
      {
        "length": 32,
        "start": 1567
      },
      {
        "length": 32,
        "start": 4830
      },
      {
        "length": 32,
        "start": 6703
      }
    ],
    "7876": [
      {
        "length": 32,
        "start": 7044
      }
    ],
    "7878": [
      {
        "length": 32,
        "start": 7002
      }
    ],
    "7880": [
      {
        "length": 32,
        "start": 6960
      }
    ],
    "7882": [
      {
        "length": 32,
        "start": 7127
      }
    ],
    "7884": [
      {
        "length": 32,
        "start": 7164
      }
    ],
    "7886": [
      {
        "length": 32,
        "start": 7085
      }
    ]
  },
  "source": "// SPDX-License-Identifier: MIT\npragma solidity ^0.8.9;\n\nimport \"@openzeppelin/contracts/governance/Governor.sol\";\nimport \"@openzeppelin/contracts/governance/extensions/GovernorSettings.sol\";\nimport \"@openzeppelin/contracts/governance/extensions/GovernorCountingSimple.sol\";\nimport \"@openzeppelin/contracts/governance/extensions/GovernorVotes.sol\";\nimport \"@openzeppelin/contracts/governance/extensions/GovernorVotesQuorumFraction.sol\";\n\ncontract CrowdrecordsGovernor is\n    Governor,\n    GovernorSettings,\n    GovernorCountingSimple,\n    GovernorVotes,\n    GovernorVotesQuorumFraction\n{\n    constructor(\n        IVotes _token,\n        uint votingDelayBlocks, // 1 = 1 block\n        uint votingPeriodBlocks, // 50400 = 1 week\n        uint votingThreshold // 0\n    )\n        Governor(\"CrowdrecordsGovernor\")\n        GovernorSettings(votingDelayBlocks, votingPeriodBlocks, votingThreshold)\n        GovernorVotes(_token)\n        GovernorVotesQuorumFraction(4)\n    {}\n\n    // The following functions are overrides required by Solidity.\n\n    function votingDelay()\n        public\n        view\n        override(IGovernor, GovernorSettings)\n        returns (uint256)\n    {\n        return super.votingDelay();\n    }\n\n    function votingPeriod()\n        public\n        view\n        override(IGovernor, GovernorSettings)\n        returns (uint256)\n    {\n        return super.votingPeriod();\n    }\n\n    function quorum(\n        uint256 blockNumber\n    )\n        public\n        view\n        override(IGovernor, GovernorVotesQuorumFraction)\n        returns (uint256)\n    {\n        return super.quorum(blockNumber);\n    }\n\n    function proposalThreshold()\n        public\n        view\n        override(Governor, GovernorSettings)\n        returns (uint256)\n    {\n        return super.proposalThreshold();\n    }\n}\n",
  "sourcePath": "/Users/a1/Desktop/Office/projects/CrowdRecords/Contracts/contracts/governance/CrowdrecordsGovernor.sol",
  "compiler": {
    "name": "solc",
    "version": "0.8.12+commit.f00d7308.Emscripten.clang"
  },
  "schemaVersion": "3.4.6",
  "updatedAt": "2023-09-04T11:48:55.390Z",
  "networkType": "ethereum",
  "devdoc": {
    "kind": "dev",
    "methods": {
      "COUNTING_MODE()": {
        "details": "See {IGovernor-COUNTING_MODE}."
      },
      "castVote(uint256,uint8)": {
        "details": "See {IGovernor-castVote}."
      },
      "castVoteBySig(uint256,uint8,uint8,bytes32,bytes32)": {
        "details": "See {IGovernor-castVoteBySig}."
      },
      "castVoteWithReason(uint256,uint8,string)": {
        "details": "See {IGovernor-castVoteWithReason}."
      },
      "execute(address[],uint256[],bytes[],bytes32)": {
        "details": "See {IGovernor-execute}."
      },
      "hasVoted(uint256,address)": {
        "details": "See {IGovernor-hasVoted}."
      },
      "hashProposal(address[],uint256[],bytes[],bytes32)": {
        "details": "See {IGovernor-hashProposal}. The proposal id is produced by hashing the RLC encoded `targets` array, the `values` array, the `calldatas` array and the descriptionHash (bytes32 which itself is the keccak256 hash of the description string). This proposal id can be produced from the proposal data which is part of the {ProposalCreated} event. It can even be computed in advance, before the proposal is submitted. Note that the chainId and the governor address are not part of the proposal id computation. Consequently, the same proposal (with same operation and same description) will have the same id if submitted on multiple governors accross multiple networks. This also means that in order to execute the same operation twice (on the same governor) the proposer will have to change the description in order to avoid proposal id conflicts."
      },
      "name()": {
        "details": "See {IGovernor-name}."
      },
      "proposalDeadline(uint256)": {
        "details": "See {IGovernor-proposalDeadline}."
      },
      "proposalSnapshot(uint256)": {
        "details": "See {IGovernor-proposalSnapshot}."
      },
      "proposalVotes(uint256)": {
        "details": "Accessor to the internal vote counts."
      },
      "propose(address[],uint256[],bytes[],string)": {
        "details": "See {IGovernor-propose}."
      },
      "quorumDenominator()": {
        "details": "Returns the quorum denominator. Defaults to 100, but may be overridden."
      },
      "quorumNumerator()": {
        "details": "Returns the current quorum numerator. See {quorumDenominator}."
      },
      "relay(address,uint256,bytes)": {
        "details": "Relays a transaction or function call to an arbitrary target. In cases where the governance executor is some contract other than the governor itself, like when using a timelock, this function can be invoked in a governance proposal to recover tokens or Ether that was sent to the governor contract by mistake. Note that if the executor is simply the governor itself, use of `relay` is redundant."
      },
      "setProposalThreshold(uint256)": {
        "details": "Update the proposal threshold. This operation can only be performed through a governance proposal. Emits a {ProposalThresholdSet} event."
      },
      "setVotingDelay(uint256)": {
        "details": "Update the voting delay. This operation can only be performed through a governance proposal. Emits a {VotingDelaySet} event."
      },
      "setVotingPeriod(uint256)": {
        "details": "Update the voting period. This operation can only be performed through a governance proposal. Emits a {VotingPeriodSet} event."
      },
      "state(uint256)": {
        "details": "See {IGovernor-state}."
      },
      "supportsInterface(bytes4)": {
        "details": "See {IERC165-supportsInterface}."
      },
      "updateQuorumNumerator(uint256)": {
        "details": "Changes the quorum numerator. Emits a {QuorumNumeratorUpdated} event. Requirements: - Must be called through a governance proposal. - New numerator must be smaller or equal to the denominator."
      },
      "version()": {
        "details": "See {IGovernor-version}."
      }
    },
    "version": 1
  },
  "userdoc": {
    "kind": "user",
    "methods": {
      "getVotes(address,uint256)": {
        "notice": "Read the voting weight from the token's built in snapshot mechanism (see {IGovernor-getVotes})."
      }
    },
    "version": 1
  }
}