{
  "contractName": "DilutionContract",
  "abi": [
    {
      "inputs": [
        {
          "internalType": "uint8",
          "name": "votingInterval",
          "type": "uint8"
        },
        {
          "internalType": "uint256",
          "name": "requestInterval",
          "type": "uint256"
        },
        {
          "internalType": "address",
          "name": "owner",
          "type": "address"
        }
      ],
      "stateMutability": "nonpayable",
      "type": "constructor"
    },
    {
      "anonymous": false,
      "inputs": [
        {
          "indexed": false,
          "internalType": "address",
          "name": "requester",
          "type": "address"
        },
        {
          "indexed": false,
          "internalType": "uint256",
          "name": "recordId",
          "type": "uint256"
        },
        {
          "indexed": false,
          "internalType": "uint256",
          "name": "dilutionId",
          "type": "uint256"
        },
        {
          "indexed": false,
          "internalType": "uint256",
          "name": "ballotId",
          "type": "uint256"
        },
        {
          "indexed": false,
          "internalType": "uint256",
          "name": "tokenId",
          "type": "uint256"
        },
        {
          "indexed": false,
          "internalType": "uint256",
          "name": "amount",
          "type": "uint256"
        }
      ],
      "name": "DilutionRequestCreated",
      "type": "event"
    },
    {
      "anonymous": false,
      "inputs": [
        {
          "indexed": false,
          "internalType": "uint256",
          "name": "dilutionId",
          "type": "uint256"
        },
        {
          "indexed": false,
          "internalType": "uint256",
          "name": "tokenId",
          "type": "uint256"
        },
        {
          "indexed": false,
          "internalType": "uint256",
          "name": "ballotId",
          "type": "uint256"
        },
        {
          "indexed": false,
          "internalType": "bool",
          "name": "result",
          "type": "bool"
        }
      ],
      "name": "DilutionResult",
      "type": "event"
    },
    {
      "anonymous": false,
      "inputs": [
        {
          "indexed": false,
          "internalType": "address",
          "name": "voter",
          "type": "address"
        },
        {
          "indexed": false,
          "internalType": "uint256",
          "name": "dilutionId",
          "type": "uint256"
        },
        {
          "indexed": false,
          "internalType": "uint256",
          "name": "ballotId",
          "type": "uint256"
        },
        {
          "indexed": false,
          "internalType": "bool",
          "name": "vote",
          "type": "bool"
        }
      ],
      "name": "DilutionVoting",
      "type": "event"
    },
    {
      "anonymous": false,
      "inputs": [
        {
          "indexed": false,
          "internalType": "uint8",
          "name": "version",
          "type": "uint8"
        }
      ],
      "name": "Initialized",
      "type": "event"
    },
    {
      "inputs": [],
      "name": "OWNER",
      "outputs": [
        {
          "internalType": "address",
          "name": "",
          "type": "address"
        }
      ],
      "stateMutability": "view",
      "type": "function"
    },
    {
      "inputs": [],
      "name": "REQUEST_INTERVAL",
      "outputs": [
        {
          "internalType": "uint256",
          "name": "",
          "type": "uint256"
        }
      ],
      "stateMutability": "view",
      "type": "function"
    },
    {
      "inputs": [],
      "name": "TREASURY_CONTRACT_ADDRESS",
      "outputs": [
        {
          "internalType": "address",
          "name": "",
          "type": "address"
        }
      ],
      "stateMutability": "view",
      "type": "function"
    },
    {
      "inputs": [],
      "name": "TREASURY_HUB_ADDRESS",
      "outputs": [
        {
          "internalType": "address",
          "name": "",
          "type": "address"
        }
      ],
      "stateMutability": "view",
      "type": "function"
    },
    {
      "inputs": [
        {
          "internalType": "address",
          "name": "user",
          "type": "address"
        },
        {
          "internalType": "uint256",
          "name": "tokenId",
          "type": "uint256"
        },
        {
          "internalType": "uint256",
          "name": "previousBalance",
          "type": "uint256"
        },
        {
          "internalType": "uint256",
          "name": "newBalance",
          "type": "uint256"
        }
      ],
      "name": "_handleUserTokenTransfers",
      "outputs": [],
      "stateMutability": "nonpayable",
      "type": "function"
    },
    {
      "inputs": [
        {
          "internalType": "uint256",
          "name": "",
          "type": "uint256"
        }
      ],
      "name": "activeDilutionRequestMap",
      "outputs": [
        {
          "internalType": "uint256",
          "name": "",
          "type": "uint256"
        }
      ],
      "stateMutability": "view",
      "type": "function"
    },
    {
      "inputs": [
        {
          "internalType": "uint256",
          "name": "",
          "type": "uint256"
        }
      ],
      "name": "lastDilutionResultMap",
      "outputs": [
        {
          "internalType": "uint256",
          "name": "",
          "type": "uint256"
        }
      ],
      "stateMutability": "view",
      "type": "function"
    },
    {
      "inputs": [
        {
          "internalType": "address",
          "name": "ownerAddress",
          "type": "address"
        }
      ],
      "name": "setOwnerAddress",
      "outputs": [],
      "stateMutability": "nonpayable",
      "type": "function"
    },
    {
      "inputs": [
        {
          "internalType": "address",
          "name": "newTreasuryContractAddress",
          "type": "address"
        }
      ],
      "name": "initialize",
      "outputs": [],
      "stateMutability": "nonpayable",
      "type": "function"
    },
    {
      "inputs": [
        {
          "internalType": "uint256",
          "name": "recordId",
          "type": "uint256"
        },
        {
          "internalType": "uint256",
          "name": "tokenId",
          "type": "uint256"
        },
        {
          "internalType": "uint256",
          "name": "amount",
          "type": "uint256"
        }
      ],
      "name": "createDilutionRequest",
      "outputs": [],
      "stateMutability": "nonpayable",
      "type": "function"
    },
    {
      "inputs": [
        {
          "internalType": "uint256",
          "name": "dilutionId",
          "type": "uint256"
        },
        {
          "internalType": "bool",
          "name": "vote",
          "type": "bool"
        }
      ],
      "name": "castVote",
      "outputs": [],
      "stateMutability": "nonpayable",
      "type": "function"
    },
    {
      "inputs": [
        {
          "internalType": "uint256",
          "name": "dilutionId",
          "type": "uint256"
        }
      ],
      "name": "declareWinner",
      "outputs": [],
      "stateMutability": "nonpayable",
      "type": "function"
    }
  ],
  "bytecode": "0x6080604052601960015560006005553480156200001b57600080fd5b5060405162002c5038038062002c50833981810160405281019062000041919062000181565b8080600460006101000a81548173ffffffffffffffffffffffffffffffffffffffff021916908373ffffffffffffffffffffffffffffffffffffffff160217905550508260ff1660018190555081600e81905550505050620001dd565b600080fd5b600060ff82169050919050565b620000bb81620000a3565b8114620000c757600080fd5b50565b600081519050620000db81620000b0565b92915050565b6000819050919050565b620000f681620000e1565b81146200010257600080fd5b50565b6000815190506200011681620000eb565b92915050565b600073ffffffffffffffffffffffffffffffffffffffff82169050919050565b600062000149826200011c565b9050919050565b6200015b816200013c565b81146200016757600080fd5b50565b6000815190506200017b8162000150565b92915050565b6000806000606084860312156200019d576200019c6200009e565b5b6000620001ad86828701620000ca565b9350506020620001c08682870162000105565b9250506040620001d3868287016200016a565b9150509250925092565b612a6380620001ed6000396000f3fe608060405234801561001057600080fd5b50600436106100b35760003560e01c8063abb7ed7f11610071578063abb7ed7f14610178578063acb3149314610194578063c4d66de8146101b2578063c64f8959146101ce578063c6a1b51f146101fe578063ef0dee041461021a576100b3565b8062c2943c146100b8578063117803e3146100d45780631498c812146100f257806315373e3d14610122578063331a6bf51461013e5780638d2ae1f71461015a575b600080fd5b6100d260048036038101906100cd9190611cd3565b610238565b005b6100dc610450565b6040516100e99190611d41565b60405180910390f35b61010c60048036038101906101079190611cd3565b610476565b6040516101199190611d6b565b60405180910390f35b61013c60048036038101906101379190611dbe565b61048e565b005b61015860048036038101906101539190611e2a565b61056f565b005b610162610643565b60405161016f9190611d41565b60405180910390f35b610192600480360381019061018d9190611e57565b610669565b005b61019c610862565b6040516101a99190611d41565b60405180910390f35b6101cc60048036038101906101c79190611e2a565b610888565b005b6101e860048036038101906101e39190611cd3565b610a58565b6040516101f59190611d6b565b60405180910390f35b61021860048036038101906102139190611ebe565b610a70565b005b610222610f27565b60405161022f9190611d6b565b60405180910390f35b6000610259600b600084815260200190815260200160002060030154610f2d565b90507fe8d4951422367686d087c15158382f9f42bd20d8bde62b2d252b5d1e856c1f8982600b600085815260200190815260200160002060040154600b600086815260200190815260200160002060030154846040516102bc9493929190611f20565b60405180910390a180156103bf576000600260009054906101000a900473ffffffffffffffffffffffffffffffffffffffff1690508073ffffffffffffffffffffffffffffffffffffffff166334a7c2e7600b600086815260200190815260200160002060040154600b6000878152602001908152602001600020600501546040518363ffffffff1660e01b8152600401610358929190611f65565b600060405180830381600087803b15801561037257600080fd5b505af1158015610386573d6000803e3d6000fd5b505050506001600b600085815260200190815260200160002060060160016101000a81548160ff021916908315150217905550506103ef565b6000600b600084815260200190815260200160002060060160016101000a81548160ff0219169083151502179055505b6000600c6000600b60008681526020019081526020016000206004015481526020019081526020016000208190555043600d6000600b6000868152602001908152602001600020600401548152602001908152602001600020819055505050565b600460009054906101000a900473ffffffffffffffffffffffffffffffffffffffff1681565b600c6020528060005260406000206000915090505481565b60011515600b600084815260200190815260200160002060060160009054906101000a900460ff161515146104f8576040517f08c379a00000000000000000000000000000000000000000000000000000000081526004016104ef90611feb565b60405180910390fd5b7fb2f0729497891f6d2fee9abd4a73081173d57e638f38ea17e919746a57020e1e3383600b60008681526020019081526020016000206003015484604051610543949392919061200b565b60405180910390a161056b600b600084815260200190815260200160002060030154826111aa565b5050565b600460009054906101000a900473ffffffffffffffffffffffffffffffffffffffff1673ffffffffffffffffffffffffffffffffffffffff163373ffffffffffffffffffffffffffffffffffffffff16146105ff576040517f08c379a00000000000000000000000000000000000000000000000000000000081526004016105f6906120c2565b60405180910390fd5b80600460006101000a81548173ffffffffffffffffffffffffffffffffffffffff021916908373ffffffffffffffffffffffffffffffffffffffff16021790555050565b600360009054906101000a900473ffffffffffffffffffffffffffffffffffffffff1681565b6000600960008673ffffffffffffffffffffffffffffffffffffffff1673ffffffffffffffffffffffffffffffffffffffff168152602001908152602001600020905060005b818054905081101561085a5760011515600660008484815481106106d6576106d56120e2565b5b9060005260206000200154815260200190815260200160002060070160009054906101000a900460ff161515148061074057504360066000848481548110610721576107206120e2565b5b9060005260206000200154815260200190815260200160002060060154105b156107e15781600183805490506107579190612140565b81548110610768576107676120e2565b5b9060005260206000200154828281548110610786576107856120e2565b5b9060005260206000200181905550818054806107a5576107a4612174565b5b6001900381819060005260206000200160009055905560008114156107cd57600090506107dc565b80806107d8906121a3565b9150505b610847565b600660008383815481106107f8576107f76120e2565b5b906000526020600020015481526020019081526020016000206005015485141561084657610845828281548110610832576108316120e2565b5b906000526020600020015487868661149d565b5b5b8080610852906121cd565b9150506106af565b505050505050565b600260009054906101000a900473ffffffffffffffffffffffffffffffffffffffff1681565b60008060019054906101000a900460ff161590508080156108b95750600160008054906101000a900460ff1660ff16105b806108e657506108c83061166a565b1580156108e55750600160008054906101000a900460ff1660ff16145b5b610925576040517f08c379a000000000000000000000000000000000000000000000000000000000815260040161091c90612288565b60405180910390fd5b60016000806101000a81548160ff021916908360ff1602179055508015610962576001600060016101000a81548160ff0219169083151502179055505b600460009054906101000a900473ffffffffffffffffffffffffffffffffffffffff1673ffffffffffffffffffffffffffffffffffffffff163373ffffffffffffffffffffffffffffffffffffffff16146109f2576040517f08c379a00000000000000000000000000000000000000000000000000000000081526004016109e9906120c2565b60405180910390fd5b6109fb8261168d565b8015610a545760008060016101000a81548160ff0219169083151502179055507f7f26b83ff96e1f2b6a682f133852f6798a09c465da95921460cefb38474024986001604051610a4b91906122fa565b60405180910390a15b5050565b600d6020528060005260406000206000915090505481565b6000600c60008481526020019081526020016000205414610ac6576040517f08c379a0000000000000000000000000000000000000000000000000000000008152600401610abd90612387565b60405180910390fd5b6000600260009054906101000a900473ffffffffffffffffffffffffffffffffffffffff16905060008173ffffffffffffffffffffffffffffffffffffffff16632d4a0382866040518263ffffffff1660e01b8152600401610b289190611d6b565b602060405180830381865afa158015610b45573d6000803e3d6000fd5b505050506040513d601f19601f82011682018060405250810190610b6991906123bc565b905060008273ffffffffffffffffffffffffffffffffffffffff1663d6ca40a7876040518263ffffffff1660e01b8152600401610ba69190611d6b565b602060405180830381865afa158015610bc3573d6000803e3d6000fd5b505050506040513d601f19601f82011682018060405250810190610be791906123bc565b905084811480610bf657508482145b610c35576040517f08c379a0000000000000000000000000000000000000000000000000000000008152600401610c2c90612435565b60405180910390fd5b60008373ffffffffffffffffffffffffffffffffffffffff1662fdd58e33886040518363ffffffff1660e01b8152600401610c71929190612455565b602060405180830381865afa158015610c8e573d6000803e3d6000fd5b505050506040513d601f19601f82011682018060405250810190610cb291906123bc565b11610cf2576040517f08c379a0000000000000000000000000000000000000000000000000000000008152600401610ce9906124ca565b60405180910390fd5b6000600d6000878152602001908152602001600020541480610d33575043600e54600d600088815260200190815260200160002054610d3191906124ea565b105b610d72576040517f08c379a0000000000000000000000000000000000000000000000000000000008152600401610d69906125b2565b60405180910390fd5b610d7c600a611720565b6000610d88600a611736565b90506000610d97600185611744565b905060006040518061010001604052803373ffffffffffffffffffffffffffffffffffffffff1681526020018a81526020018481526020018381526020018981526020018881526020016001151581526020016000151581525090507f1376b246b2110f58fc4ef260841ba0590f4a29c76faca70e92d08f27aca131a8816000015182602001518360400151846060015185608001518660a00151604051610e44969594939291906125d2565b60405180910390a180600b600085815260200190815260200160002060008201518160000160006101000a81548173ffffffffffffffffffffffffffffffffffffffff021916908373ffffffffffffffffffffffffffffffffffffffff1602179055506020820151816001015560408201518160020155606082015181600301556080820151816004015560a0820151816005015560c08201518160060160006101000a81548160ff02191690831515021790555060e08201518160060160016101000a81548160ff021916908315150217905550905050505050505050505050565b600e5481565b6000600115156006600084815260200190815260200160002060070160029054906101000a900460ff16151514610f99576040517f08c379a0000000000000000000000000000000000000000000000000000000008152600401610f909061267f565b60405180910390fd5b43600660008481526020019081526020016000206006015410610ff1576040517f08c379a0000000000000000000000000000000000000000000000000000000008152600401610fe8906126eb565b60405180910390fd5b600015156006600084815260200190815260200160002060070160009054906101000a900460ff1615151461105b576040517f08c379a000000000000000000000000000000000000000000000000000000000815260040161105290612757565b60405180910390fd5b60006006600084815260200190815260200160002090506000816001015490506000600260009054906101000a900473ffffffffffffffffffffffffffffffffffffffff16905060016006600087815260200190815260200160002060070160006101000a81548160ff021916908315150217905550600082111561119d5760008173ffffffffffffffffffffffffffffffffffffffff1663036c22ad85600501546040518263ffffffff1660e01b81526004016111199190611d6b565b602060405180830381865afa158015611136573d6000803e3d6000fd5b505050506040513d601f19601f8201168201806040525081019061115a91906123bc565b90506000606460428361116d9190612777565b6111779190612800565b90508084111561118f576001955050505050506111a5565b6000955050505050506111a5565b600093505050505b919050565b8133600115156006600084815260200190815260200160002060070160029054906101000a900460ff16151514611216576040517f08c379a000000000000000000000000000000000000000000000000000000000815260040161120d9061267f565b60405180910390fd5b4360066000848152602001908152602001600020600601541161126e576040517f08c379a0000000000000000000000000000000000000000000000000000000008152600401611265906126eb565b60405180910390fd5b600015156007600084815260200190815260200160002060008373ffffffffffffffffffffffffffffffffffffffff1673ffffffffffffffffffffffffffffffffffffffff16815260200190815260200160002060009054906101000a900460ff16151514611312576040517f08c379a00000000000000000000000000000000000000000000000000000000081526004016113099061287d565b60405180910390fd5b836006600082815260200190815260200160002060070160019054906101000a900460ff16156113e557600015156007600083815260200190815260200160002060003273ffffffffffffffffffffffffffffffffffffffff1673ffffffffffffffffffffffffffffffffffffffff16815260200190815260200160002060009054906101000a900460ff161515146113e0576040517f08c379a00000000000000000000000000000000000000000000000000000000081526004016113d79061287d565b60405180910390fd5b61148b565b6006600082815260200190815260200160002060000160009054906101000a900473ffffffffffffffffffffffffffffffffffffffff1673ffffffffffffffffffffffffffffffffffffffff163273ffffffffffffffffffffffffffffffffffffffff16141561148a576040517f08c379a0000000000000000000000000000000000000000000000000000000008152600401611481906128e9565b60405180910390fd5b5b6114968585326118e1565b5050505050565b600115156007600086815260200190815260200160002060008573ffffffffffffffffffffffffffffffffffffffff1673ffffffffffffffffffffffffffffffffffffffff16815260200190815260200160002060009054906101000a900460ff16151514611541576040517f08c379a00000000000000000000000000000000000000000000000000000000081526004016115389061297b565b60405180910390fd5b60006008600086815260200190815260200160002060008573ffffffffffffffffffffffffffffffffffffffff1673ffffffffffffffffffffffffffffffffffffffff16815260200190815260200160002060009054906101000a900460ff169050801561160857826006600087815260200190815260200160002060010160008282546115cf9190612140565b92505081905550816006600087815260200190815260200160002060010160008282546115fc91906124ea565b92505081905550611663565b8260066000878152602001908152602001600020600301600082825461162e9190612140565b925050819055508160066000878152602001908152602001600020600301600082825461165b91906124ea565b925050819055505b5050505050565b6000808273ffffffffffffffffffffffffffffffffffffffff163b119050919050565b600060019054906101000a900460ff166116dc576040517f08c379a00000000000000000000000000000000000000000000000000000000081526004016116d390612a0d565b60405180910390fd5b80600260006101000a81548173ffffffffffffffffffffffffffffffffffffffff021916908373ffffffffffffffffffffffffffffffffffffffff16021790555050565b6001816000016000828254019250508190555050565b600081600001549050919050565b600060056000815480929190611759906121cd565b919050555060006040518061014001604052803273ffffffffffffffffffffffffffffffffffffffff16815260200160008152602001600081526020016000815260200160008152602001848152602001600154436117b891906124ea565b815260200160001515815260200185151581526020016001151581525090508060066000600554815260200190815260200160002060008201518160000160006101000a81548173ffffffffffffffffffffffffffffffffffffffff021916908373ffffffffffffffffffffffffffffffffffffffff1602179055506020820151816001015560408201518160020155606082015181600301556080820151816004015560a0820151816005015560c0820151816006015560e08201518160070160006101000a81548160ff0219169083151502179055506101008201518160070160016101000a81548160ff0219169083151502179055506101208201518160070160026101000a81548160ff02191690831515021790555090505060055491505092915050565b6000600260009054906101000a900473ffffffffffffffffffffffffffffffffffffffff169050600060066000868152602001908152602001600020604051806101400160405290816000820160009054906101000a900473ffffffffffffffffffffffffffffffffffffffff1673ffffffffffffffffffffffffffffffffffffffff1673ffffffffffffffffffffffffffffffffffffffff1681526020016001820154815260200160028201548152602001600382015481526020016004820154815260200160058201548152602001600682015481526020016007820160009054906101000a900460ff161515151581526020016007820160019054906101000a900460ff161515151581526020016007820160029054906101000a900460ff161515151581525050905060008273ffffffffffffffffffffffffffffffffffffffff1662fdd58e858460a001516040518363ffffffff1660e01b8152600401611a4e929190612455565b602060405180830381865afa158015611a6b573d6000803e3d6000fd5b505050506040513d601f19601f82011682018060405250810190611a8f91906123bc565b90508415611af75780600660008881526020019081526020016000206001016000828254611abd91906124ea565b925050819055506001600660008881526020019081526020016000206002016000828254611aeb91906124ea565b92505081905550611b53565b80600660008881526020019081526020016000206003016000828254611b1d91906124ea565b925050819055506001600660008881526020019081526020016000206004016000828254611b4b91906124ea565b925050819055505b60016007600088815260200190815260200160002060008673ffffffffffffffffffffffffffffffffffffffff1673ffffffffffffffffffffffffffffffffffffffff16815260200190815260200160002060006101000a81548160ff021916908315150217905550846008600088815260200190815260200160002060008673ffffffffffffffffffffffffffffffffffffffff1673ffffffffffffffffffffffffffffffffffffffff16815260200190815260200160002060006101000a81548160ff0219169083151502179055506000600960008673ffffffffffffffffffffffffffffffffffffffff1673ffffffffffffffffffffffffffffffffffffffff16815260200190815260200160002090508087908060018154018082558091505060019003906000526020600020016000909190919091505550505050505050565b600080fd5b6000819050919050565b611cb081611c9d565b8114611cbb57600080fd5b50565b600081359050611ccd81611ca7565b92915050565b600060208284031215611ce957611ce8611c98565b5b6000611cf784828501611cbe565b91505092915050565b600073ffffffffffffffffffffffffffffffffffffffff82169050919050565b6000611d2b82611d00565b9050919050565b611d3b81611d20565b82525050565b6000602082019050611d566000830184611d32565b92915050565b611d6581611c9d565b82525050565b6000602082019050611d806000830184611d5c565b92915050565b60008115159050919050565b611d9b81611d86565b8114611da657600080fd5b50565b600081359050611db881611d92565b92915050565b60008060408385031215611dd557611dd4611c98565b5b6000611de385828601611cbe565b9250506020611df485828601611da9565b9150509250929050565b611e0781611d20565b8114611e1257600080fd5b50565b600081359050611e2481611dfe565b92915050565b600060208284031215611e4057611e3f611c98565b5b6000611e4e84828501611e15565b91505092915050565b60008060008060808587031215611e7157611e70611c98565b5b6000611e7f87828801611e15565b9450506020611e9087828801611cbe565b9350506040611ea187828801611cbe565b9250506060611eb287828801611cbe565b91505092959194509250565b600080600060608486031215611ed757611ed6611c98565b5b6000611ee586828701611cbe565b9350506020611ef686828701611cbe565b9250506040611f0786828701611cbe565b9150509250925092565b611f1a81611d86565b82525050565b6000608082019050611f356000830187611d5c565b611f426020830186611d5c565b611f4f6040830185611d5c565b611f5c6060830184611f11565b95945050505050565b6000604082019050611f7a6000830185611d5c565b611f876020830184611d5c565b9392505050565b600082825260208201905092915050565b7f494e56414c49443a20494e56414c49445f44494c5554694f4e5f494400000000600082015250565b6000611fd5601c83611f8e565b9150611fe082611f9f565b602082019050919050565b6000602082019050818103600083015261200481611fc8565b9050919050565b60006080820190506120206000830187611d32565b61202d6020830186611d5c565b61203a6040830185611d5c565b6120476060830184611f11565b95945050505050565b7f554e415554484f52495a45443a2043414e4e4f545f504552464f524d5f41435460008201527f494f4e0000000000000000000000000000000000000000000000000000000000602082015250565b60006120ac602383611f8e565b91506120b782612050565b604082019050919050565b600060208201905081810360008301526120db8161209f565b9050919050565b7f4e487b7100000000000000000000000000000000000000000000000000000000600052603260045260246000fd5b7f4e487b7100000000000000000000000000000000000000000000000000000000600052601160045260246000fd5b600061214b82611c9d565b915061215683611c9d565b92508282101561216957612168612111565b5b828203905092915050565b7f4e487b7100000000000000000000000000000000000000000000000000000000600052603160045260246000fd5b60006121ae82611c9d565b915060008214156121c2576121c1612111565b5b600182039050919050565b60006121d882611c9d565b91507fffffffffffffffffffffffffffffffffffffffffffffffffffffffffffffffff82141561220b5761220a612111565b5b600182019050919050565b7f496e697469616c697a61626c653a20636f6e747261637420697320616c72656160008201527f647920696e697469616c697a6564000000000000000000000000000000000000602082015250565b6000612272602e83611f8e565b915061227d82612216565b604082019050919050565b600060208201905081810360008301526122a181612265565b9050919050565b6000819050919050565b600060ff82169050919050565b6000819050919050565b60006122e46122df6122da846122a8565b6122bf565b6122b2565b9050919050565b6122f4816122c9565b82525050565b600060208201905061230f60008301846122eb565b92915050565b7f494e56414c49443a2050454e44494e475f44494c5554494f4e5f52455155455360008201527f5400000000000000000000000000000000000000000000000000000000000000602082015250565b6000612371602183611f8e565b915061237c82612315565b604082019050919050565b600060208201905081810360008301526123a081612364565b9050919050565b6000815190506123b681611ca7565b92915050565b6000602082840312156123d2576123d1611c98565b5b60006123e0848285016123a7565b91505092915050565b7f494e56414c49443a20544f4b454e5f4f525f5245434f52440000000000000000600082015250565b600061241f601883611f8e565b915061242a826123e9565b602082019050919050565b6000602082019050818103600083015261244e81612412565b9050919050565b600060408201905061246a6000830185611d32565b6124776020830184611d5c565b9392505050565b7f494e56414c49443a204e4f5f544f4b454e535f464f554e440000000000000000600082015250565b60006124b4601883611f8e565b91506124bf8261247e565b602082019050919050565b600060208201905081810360008301526124e3816124a7565b9050919050565b60006124f582611c9d565b915061250083611c9d565b9250827fffffffffffffffffffffffffffffffffffffffffffffffffffffffffffffffff0382111561253557612534612111565b5b828201905092915050565b7f494e56414c49443a20574149545f534f4d4554494d455f4245464f52455f4e4560008201527f575f44494c5554494f4e5f524551554553540000000000000000000000000000602082015250565b600061259c603283611f8e565b91506125a782612540565b604082019050919050565b600060208201905081810360008301526125cb8161258f565b9050919050565b600060c0820190506125e76000830189611d32565b6125f46020830188611d5c565b6126016040830187611d5c565b61260e6060830186611d5c565b61261b6080830185611d5c565b61262860a0830184611d5c565b979650505050505050565b7f494e56414c49443a2042414c4c4f545f4e4f545f464f554e4400000000000000600082015250565b6000612669601983611f8e565b915061267482612633565b602082019050919050565b600060208201905081810360008301526126988161265c565b9050919050565b7f494e56414c49443a20564f54494e475f54494d455f4f56455200000000000000600082015250565b60006126d5601983611f8e565b91506126e08261269f565b602082019050919050565b60006020820190508181036000830152612704816126c8565b9050919050565b7f494e56414c49443a20524553554c545f414c52454144595f4445434c41524544600082015250565b6000612741602083611f8e565b915061274c8261270b565b602082019050919050565b6000602082019050818103600083015261277081612734565b9050919050565b600061278282611c9d565b915061278d83611c9d565b9250817fffffffffffffffffffffffffffffffffffffffffffffffffffffffffffffffff04831182151516156127c6576127c5612111565b5b828202905092915050565b7f4e487b7100000000000000000000000000000000000000000000000000000000600052601260045260246000fd5b600061280b82611c9d565b915061281683611c9d565b925082612826576128256127d1565b5b828204905092915050565b7f494e56414c49443a20414c52454144595f564f54454400000000000000000000600082015250565b6000612867601683611f8e565b915061287282612831565b602082019050919050565b600060208201905081810360008301526128968161285a565b9050919050565b7f554e415554484f52495a45443a204f574e45525f43414e4e4f545f564f544500600082015250565b60006128d3601f83611f8e565b91506128de8261289d565b602082019050919050565b60006020820190508181036000830152612902816128c6565b9050919050565b7f494e56414c49443a20494e5445524e414c3a20555345525f4841535f4e4f545f60008201527f564f544544000000000000000000000000000000000000000000000000000000602082015250565b6000612965602583611f8e565b915061297082612909565b604082019050919050565b6000602082019050818103600083015261299481612958565b9050919050565b7f496e697469616c697a61626c653a20636f6e7472616374206973206e6f74206960008201527f6e697469616c697a696e67000000000000000000000000000000000000000000602082015250565b60006129f7602b83611f8e565b9150612a028261299b565b604082019050919050565b60006020820190508181036000830152612a26816129ea565b905091905056fea264697066735822122063470f5fbfbaeab0615b461cd4f41fbd5ea6dd4692b37b411c5da50e5395fa3864736f6c634300080c0033",
  "immutableReferences": {},
  "source": "// SPDX-License-Identifier: MIT\npragma solidity ^0.8.0;\n\nimport \"./Voting/BaseVotingContract.sol\";\nimport \"./interface/ITreasury.sol\";\nimport \"@openzeppelin/contracts/utils/Counters.sol\";\n\ncontract DilutionContract is BaseVotingContract {\n    /// @dev This will contain the data for the dilution request\n    /// @param requester the person who has requested for token dilution\n    /// @param recordId This is the id of the record that is linked to this ballot\n    /// @param dilutionId This is the id of the dilution structure that is linked to this ballot\n    /// @param ballotId Id of the ballot where voting is stored\n    /// @param tokenId token that is to be minted\n    /// @param amount the amount of tokens to be minted\n    /// @param isPresent this is to check if the dilution request is present or not\n    /// @param isAccepted this denotes the status of the request that is if the request was accepted or rejected\n    struct DilutionRequest {\n        address requester;\n        uint256 recordId;\n        uint256 dilutionId;\n        uint256 ballotId;\n        uint256 tokenId;\n        uint256 amount;\n        bool isPresent;\n        bool isAccepted;\n    }\n\n    /// @dev This is when a dilution request is created.\n    /// @param requester the person who has requested for token dilution\n    /// @param recordId This is the id of the record that is linked to this ballot\n    /// @param dilutionId This is the id of the dilution structure that is linked to this ballot\n    /// @param ballotId Id of the ballot where voting is stored\n    /// @param tokenId token that is to be minted\n    /// @param amount the amount of tokens to be minted\n    event DilutionRequestCreated(\n        address requester,\n        uint256 recordId,\n        uint256 dilutionId,\n        uint256 ballotId,\n        uint256 tokenId,\n        uint256 amount\n    );\n\n    /// @dev This is when a vote is given by user.\n    /// @param voter Address of the voter\n    /// @param dilutionId This is the id of the dilution structure that is linked to this ballot\n    /// @param ballotId Id of the ballot where voting is stored\n    /// @param vote State of vote : true for yes and false for No\n    event DilutionVoting(\n        address voter,\n        uint256 dilutionId,\n        uint256 ballotId,\n        bool vote\n    );\n\n    /// @dev this event is generated when result of a ballot is declared\n    /// @param dilutionId This is the id of dilution request\n    /// @param tokenId This is the id of the contribution that is linked to this ballot\n    /// @param ballotId this is the ballot Id for which result is declared\n    /// @param result this is the status of the result,\n    /// either true if user won that is he received more than 66% of votes or false if user lost\n    event DilutionResult(\n        uint256 dilutionId,\n        uint256 tokenId,\n        uint256 ballotId,\n        bool result\n    );\n\n    using Counters for Counters.Counter;\n    Counters.Counter private _dilutionIds;\n\n    // This mapping contains data with respect to dilution id\n    // _dilutionId => dilutionData\n    mapping(uint256 => DilutionRequest) dilutionRequestMap;\n\n    // This mapping tracks if any request for dilution is active or not\n    // tokenId => id of the current dilution request, if 0 then there are no active dilution request\n    mapping(uint256 => uint256) public activeDilutionRequestMap;\n\n    // This mapping contains the blocknumber when last request for dilution request result of distributed\n    // tokenId => blocknumber when last dilution result was declared for this token\n    mapping(uint256 => uint256) public lastDilutionResultMap;\n\n    uint256 public REQUEST_INTERVAL;\n\n    constructor(\n        uint8 votingInterval,\n        uint256 requestInterval,\n        address owner\n    ) BaseVotingContract(owner) {\n        VOTING_BLOCK_PERIOD = votingInterval;\n        REQUEST_INTERVAL = requestInterval;\n    }\n\n    // /// @dev This function sets the treasury Contract address\n    // /// @param newTreasuryContractAddress The mew address of treasury contract\n    // function setTreasuryContractAddress(address newTreasuryContractAddress)\n    //     external\n    //     _ownerOnly\n    // {\n    //     _setTreasuryContractAddress(newTreasuryContractAddress);\n    // }\n\n    /// @dev This is to set the address of the contracts\n    /// @param newTreasuryContractAddress This is the address of new treasury contract\n    function initialize(address newTreasuryContractAddress)\n        public\n        override\n        initializer\n        _ownerOnly\n    {\n        BaseVotingContract.initialize(newTreasuryContractAddress);\n    }\n\n    /// @dev This function will create a new contribution voting ballot\n    /// @param recordId this is the id of the record whose dilution request is to be created\n    /// @param tokenId the token that needs to be diluted\n    /// @param amount the amount to be diluted\n    function createDilutionRequest(\n        uint256 recordId,\n        uint256 tokenId,\n        uint256 amount\n    ) public {\n        require(\n            activeDilutionRequestMap[tokenId] == 0,\n            \"INVALID: PENDING_DILUTION_REQUEST\"\n        );\n\n        ITreasury treasuryContract = ITreasury(TREASURY_CONTRACT_ADDRESS);\n\n        uint256 commTokenId = treasuryContract.getCommunityTokenId(recordId);\n        uint256 govTokenId = treasuryContract.getGovernanceTokenId(recordId);\n\n        require(\n            govTokenId == tokenId || commTokenId == tokenId,\n            \"INVALID: TOKEN_OR_RECORD\"\n        );\n\n        require(\n            treasuryContract.balanceOf(msg.sender, tokenId) > 0,\n            \"INVALID: NO_TOKENS_FOUND\"\n        );\n\n        // We need to check if there were any previous request made,\n        // and if any request are made then has sufficient time passed or not.\n        // If the block number is 0 then it means that no request has been created\n        // err: You need to wait sometime for you create new dilution request\n        require(\n            lastDilutionResultMap[tokenId] == 0 ||\n                lastDilutionResultMap[tokenId] + REQUEST_INTERVAL <\n                block.number,\n            \"INVALID: WAIT_SOMETIME_BEFORE_NEW_DILUTION_REQUEST\"\n        );\n\n        _dilutionIds.increment();\n        uint256 dilutionId = _dilutionIds.current();\n        uint256 ballotId = _createVoting(true, commTokenId);\n\n        DilutionRequest memory dilutionRequest = DilutionRequest({\n            requester: msg.sender,\n            recordId: recordId,\n            dilutionId: dilutionId,\n            ballotId: ballotId,\n            tokenId: tokenId,\n            amount: amount,\n            isPresent: true,\n            isAccepted: false\n        });\n\n        emit DilutionRequestCreated({\n            requester: dilutionRequest.requester,\n            recordId: dilutionRequest.recordId,\n            dilutionId: dilutionRequest.dilutionId,\n            ballotId: dilutionRequest.ballotId,\n            tokenId: dilutionRequest.tokenId,\n            amount: dilutionRequest.amount\n        });\n\n        dilutionRequestMap[dilutionId] = dilutionRequest;\n    }\n\n    /// @dev This function is called by any user to cast vote\n    /// @param dilutionId this is the id of the dilution request for which user is voting\n    /// @param vote this is the state of the vote, if true than it means the vote is in favour of the ballot\n    function castVote(uint256 dilutionId, bool vote) public {\n        require(\n            dilutionRequestMap[dilutionId].isPresent == true,\n            \"INVALID: INVALID_DILUTiON_ID\"\n        );\n\n        emit DilutionVoting({\n            dilutionId: dilutionId,\n            ballotId: dilutionRequestMap[dilutionId].ballotId,\n            voter: msg.sender,\n            vote: vote\n        });\n\n        super._castVote(dilutionRequestMap[dilutionId].ballotId, vote);\n    }\n\n    /// @dev This function can be called from external source and also from within the contract\n    /// @param dilutionId this is the id of the contribution to which the winner is to be decleared\n    function declareWinner(uint256 dilutionId) external {\n        bool result = _declareWinner(dilutionRequestMap[dilutionId].ballotId);\n\n        emit DilutionResult({\n            dilutionId: dilutionId,\n            tokenId: dilutionRequestMap[dilutionId].tokenId,\n            ballotId: dilutionRequestMap[dilutionId].ballotId,\n            result: result\n        });\n\n        if (result) {\n            //Transfer the reward amount to user\n            ITreasury treasuryContract = ITreasury(TREASURY_CONTRACT_ADDRESS);\n            treasuryContract.mintTokens(\n                dilutionRequestMap[dilutionId].tokenId,\n                dilutionRequestMap[dilutionId].amount\n            );\n\n            dilutionRequestMap[dilutionId].isAccepted = true;\n        } else {\n            dilutionRequestMap[dilutionId].isAccepted = false;\n        }\n        // reset the active dilution to 0\n        activeDilutionRequestMap[dilutionRequestMap[dilutionId].tokenId] = 0;\n        lastDilutionResultMap[dilutionRequestMap[dilutionId].tokenId] = block\n            .number;\n    }\n}\n",
  "sourcePath": "/Users/a1/Desktop/Office/projects/CrowdRecords/Contracts/contracts/DilutionContract.sol",
  "compiler": {
    "name": "solc",
    "version": "0.8.12+commit.f00d7308.Emscripten.clang"
  },
  "schemaVersion": "3.4.6",
  "updatedAt": "2022-10-13T11:10:29.395Z",
  "devdoc": {
    "events": {
      "DilutionRequestCreated(address,uint256,uint256,uint256,uint256,uint256)": {
        "details": "This is when a dilution request is created.",
        "params": {
          "amount": "the amount of tokens to be minted",
          "ballotId": "Id of the ballot where voting is stored",
          "dilutionId": "This is the id of the dilution structure that is linked to this ballot",
          "recordId": "This is the id of the record that is linked to this ballot",
          "requester": "the person who has requested for token dilution",
          "tokenId": "token that is to be minted"
        }
      },
      "DilutionResult(uint256,uint256,uint256,bool)": {
        "details": "this event is generated when result of a ballot is declared",
        "params": {
          "ballotId": "this is the ballot Id for which result is declared",
          "dilutionId": "This is the id of dilution request",
          "result": "this is the status of the result, either true if user won that is he received more than 66% of votes or false if user lost",
          "tokenId": "This is the id of the contribution that is linked to this ballot"
        }
      },
      "DilutionVoting(address,uint256,uint256,bool)": {
        "details": "This is when a vote is given by user.",
        "params": {
          "ballotId": "Id of the ballot where voting is stored",
          "dilutionId": "This is the id of the dilution structure that is linked to this ballot",
          "vote": "State of vote : true for yes and false for No",
          "voter": "Address of the voter"
        }
      }
    },
    "kind": "dev",
    "methods": {
      "_handleUserTokenTransfers(address,uint256,uint256,uint256)": {
        "details": "This function will be called when either user is transferring the tokens to other account, or is receiving tokens from other tokens.",
        "params": {
          "newBalance": "this is the new balance of the user that is after the transfer",
          "previousBalance": "this is the old balance of the user",
          "user": "address of the user whose balance is being changed"
        }
      },
      "castVote(uint256,bool)": {
        "details": "This function is called by any user to cast vote",
        "params": {
          "dilutionId": "this is the id of the dilution request for which user is voting",
          "vote": "this is the state of the vote, if true than it means the vote is in favour of the ballot"
        }
      },
      "createDilutionRequest(uint256,uint256,uint256)": {
        "details": "This function will create a new contribution voting ballot",
        "params": {
          "amount": "the amount to be diluted",
          "recordId": "this is the id of the record whose dilution request is to be created",
          "tokenId": "the token that needs to be diluted"
        }
      },
      "declareWinner(uint256)": {
        "details": "This function can be called from external source and also from within the contract",
        "params": {
          "dilutionId": "this is the id of the contribution to which the winner is to be decleared"
        }
      },
      "initialize(address)": {
        "details": "This is to set the address of the contracts",
        "params": {
          "newTreasuryContractAddress": "This is the address of new treasury contract"
        }
      },
      "setOwnerAddress(address)": {
        "details": "This function sets the owner address",
        "params": {
          "ownerAddress": "This is the address of the owner"
        }
      }
    },
    "version": 1
  },
  "userdoc": {
    "kind": "user",
    "methods": {},
    "version": 1
  }
}