{
  "contractName": "DilutionContract",
  "abi": [
    {
      "inputs": [
        {
          "internalType": "uint8",
          "name": "votingInterval",
          "type": "uint8"
        },
        {
          "internalType": "uint256",
          "name": "requestInterval",
          "type": "uint256"
        },
        {
          "internalType": "address",
          "name": "owner",
          "type": "address"
        }
      ],
      "stateMutability": "nonpayable",
      "type": "constructor"
    },
    {
      "anonymous": false,
      "inputs": [
        {
          "indexed": false,
          "internalType": "address",
          "name": "requester",
          "type": "address"
        },
        {
          "indexed": false,
          "internalType": "uint256",
          "name": "recordId",
          "type": "uint256"
        },
        {
          "indexed": false,
          "internalType": "uint256",
          "name": "dilutionId",
          "type": "uint256"
        },
        {
          "indexed": false,
          "internalType": "uint256",
          "name": "ballotId",
          "type": "uint256"
        },
        {
          "indexed": false,
          "internalType": "uint256",
          "name": "tokenId",
          "type": "uint256"
        },
        {
          "indexed": false,
          "internalType": "uint256",
          "name": "amount",
          "type": "uint256"
        }
      ],
      "name": "DilutionRequestCreated",
      "type": "event"
    },
    {
      "anonymous": false,
      "inputs": [
        {
          "indexed": false,
          "internalType": "uint256",
          "name": "dilutionId",
          "type": "uint256"
        },
        {
          "indexed": false,
          "internalType": "uint256",
          "name": "tokenId",
          "type": "uint256"
        },
        {
          "indexed": false,
          "internalType": "uint256",
          "name": "ballotId",
          "type": "uint256"
        },
        {
          "indexed": false,
          "internalType": "bool",
          "name": "result",
          "type": "bool"
        }
      ],
      "name": "DilutionResult",
      "type": "event"
    },
    {
      "anonymous": false,
      "inputs": [
        {
          "indexed": false,
          "internalType": "address",
          "name": "voter",
          "type": "address"
        },
        {
          "indexed": false,
          "internalType": "uint256",
          "name": "dilutionId",
          "type": "uint256"
        },
        {
          "indexed": false,
          "internalType": "uint256",
          "name": "ballotId",
          "type": "uint256"
        },
        {
          "indexed": false,
          "internalType": "bool",
          "name": "vote",
          "type": "bool"
        }
      ],
      "name": "DilutionVoting",
      "type": "event"
    },
    {
      "inputs": [],
      "name": "OWNER",
      "outputs": [
        {
          "internalType": "address",
          "name": "",
          "type": "address"
        }
      ],
      "stateMutability": "view",
      "type": "function"
    },
    {
      "inputs": [],
      "name": "REQUEST_INTERVAL",
      "outputs": [
        {
          "internalType": "uint256",
          "name": "",
          "type": "uint256"
        }
      ],
      "stateMutability": "view",
      "type": "function"
    },
    {
      "inputs": [],
      "name": "TREASURY_CONTRACT_ADDRESS",
      "outputs": [
        {
          "internalType": "address",
          "name": "",
          "type": "address"
        }
      ],
      "stateMutability": "view",
      "type": "function"
    },
    {
      "inputs": [],
      "name": "TREASURY_HUB_ADDRESS",
      "outputs": [
        {
          "internalType": "address",
          "name": "",
          "type": "address"
        }
      ],
      "stateMutability": "view",
      "type": "function"
    },
    {
      "inputs": [
        {
          "internalType": "address",
          "name": "user",
          "type": "address"
        },
        {
          "internalType": "uint256",
          "name": "tokenId",
          "type": "uint256"
        },
        {
          "internalType": "uint256",
          "name": "previousBalance",
          "type": "uint256"
        },
        {
          "internalType": "uint256",
          "name": "newBalance",
          "type": "uint256"
        }
      ],
      "name": "_handleUserTokenTransfers",
      "outputs": [],
      "stateMutability": "nonpayable",
      "type": "function"
    },
    {
      "inputs": [
        {
          "internalType": "uint256",
          "name": "",
          "type": "uint256"
        }
      ],
      "name": "activeDilutionRequestMap",
      "outputs": [
        {
          "internalType": "uint256",
          "name": "",
          "type": "uint256"
        }
      ],
      "stateMutability": "view",
      "type": "function"
    },
    {
      "inputs": [
        {
          "internalType": "uint256",
          "name": "",
          "type": "uint256"
        }
      ],
      "name": "lastDilutionResultMap",
      "outputs": [
        {
          "internalType": "uint256",
          "name": "",
          "type": "uint256"
        }
      ],
      "stateMutability": "view",
      "type": "function"
    },
    {
      "inputs": [
        {
          "internalType": "address",
          "name": "ownerAddress",
          "type": "address"
        }
      ],
      "name": "setOwnerAddress",
      "outputs": [],
      "stateMutability": "nonpayable",
      "type": "function"
    },
    {
      "inputs": [
        {
          "internalType": "address",
          "name": "newTreasuryContractAddress",
          "type": "address"
        }
      ],
      "name": "setTreasuryContractAddress",
      "outputs": [],
      "stateMutability": "nonpayable",
      "type": "function"
    },
    {
      "inputs": [
        {
          "internalType": "uint256",
          "name": "recordId",
          "type": "uint256"
        },
        {
          "internalType": "uint256",
          "name": "tokenId",
          "type": "uint256"
        },
        {
          "internalType": "uint256",
          "name": "amount",
          "type": "uint256"
        }
      ],
      "name": "createDilutionRequest",
      "outputs": [],
      "stateMutability": "nonpayable",
      "type": "function"
    },
    {
      "inputs": [
        {
          "internalType": "uint256",
          "name": "dilutionId",
          "type": "uint256"
        },
        {
          "internalType": "bool",
          "name": "vote",
          "type": "bool"
        }
      ],
      "name": "castVote",
      "outputs": [],
      "stateMutability": "nonpayable",
      "type": "function"
    },
    {
      "inputs": [
        {
          "internalType": "uint256",
          "name": "dilutionId",
          "type": "uint256"
        }
      ],
      "name": "declareWinner",
      "outputs": [],
      "stateMutability": "nonpayable",
      "type": "function"
    }
  ],
  "bytecode": "0x6080604052601960005560006004553480156200001b57600080fd5b50604051620029a9380380620029a9833981810160405281019062000041919062000181565b8080600360006101000a81548173ffffffffffffffffffffffffffffffffffffffff021916908373ffffffffffffffffffffffffffffffffffffffff160217905550508260ff1660008190555081600d81905550505050620001dd565b600080fd5b600060ff82169050919050565b620000bb81620000a3565b8114620000c757600080fd5b50565b600081519050620000db81620000b0565b92915050565b6000819050919050565b620000f681620000e1565b81146200010257600080fd5b50565b6000815190506200011681620000eb565b92915050565b600073ffffffffffffffffffffffffffffffffffffffff82169050919050565b600062000149826200011c565b9050919050565b6200015b816200013c565b81146200016757600080fd5b50565b6000815190506200017b8162000150565b92915050565b6000806000606084860312156200019d576200019c6200009e565b5b6000620001ad86828701620000ca565b9350506020620001c08682870162000105565b9250506040620001d3868287016200016a565b9150509250925092565b6127bc80620001ed6000396000f3fe608060405234801561001057600080fd5b50600436106100b35760003560e01c80638d2ae1f7116100715780638d2ae1f714610176578063abb7ed7f14610194578063acb31493146101b0578063c64f8959146101ce578063c6a1b51f146101fe578063ef0dee041461021a576100b3565b8062c2943c146100b8578063117803e3146100d45780631498c812146100f257806315373e3d14610122578063331a6bf51461013e5780634cf2d48f1461015a575b600080fd5b6100d260048036038101906100cd9190611bbd565b610238565b005b6100dc610450565b6040516100e99190611c2b565b60405180910390f35b61010c60048036038101906101079190611bbd565b610476565b6040516101199190611c55565b60405180910390f35b61013c60048036038101906101379190611ca8565b61048e565b005b61015860048036038101906101539190611d14565b61056f565b005b610174600480360381019061016f9190611d14565b610643565b005b61017e6106df565b60405161018b9190611c2b565b60405180910390f35b6101ae60048036038101906101a99190611d41565b610705565b005b6101b86108fe565b6040516101c59190611c2b565b60405180910390f35b6101e860048036038101906101e39190611bbd565b610924565b6040516101f59190611c55565b60405180910390f35b61021860048036038101906102139190611da8565b61093c565b005b610222610df3565b60405161022f9190611c55565b60405180910390f35b6000610259600a600084815260200190815260200160002060030154610df9565b90507fe8d4951422367686d087c15158382f9f42bd20d8bde62b2d252b5d1e856c1f8982600a600085815260200190815260200160002060040154600a600086815260200190815260200160002060030154846040516102bc9493929190611e0a565b60405180910390a180156103bf576000600160009054906101000a900473ffffffffffffffffffffffffffffffffffffffff1690508073ffffffffffffffffffffffffffffffffffffffff166334a7c2e7600a600086815260200190815260200160002060040154600a6000878152602001908152602001600020600501546040518363ffffffff1660e01b8152600401610358929190611e4f565b600060405180830381600087803b15801561037257600080fd5b505af1158015610386573d6000803e3d6000fd5b505050506001600a600085815260200190815260200160002060060160016101000a81548160ff021916908315150217905550506103ef565b6000600a600084815260200190815260200160002060060160016101000a81548160ff0219169083151502179055505b6000600b6000600a60008681526020019081526020016000206004015481526020019081526020016000208190555043600c6000600a6000868152602001908152602001600020600401548152602001908152602001600020819055505050565b600360009054906101000a900473ffffffffffffffffffffffffffffffffffffffff1681565b600b6020528060005260406000206000915090505481565b60011515600a600084815260200190815260200160002060060160009054906101000a900460ff161515146104f8576040517f08c379a00000000000000000000000000000000000000000000000000000000081526004016104ef90611ed5565b60405180910390fd5b7fb2f0729497891f6d2fee9abd4a73081173d57e638f38ea17e919746a57020e1e3383600a600086815260200190815260200160002060030154846040516105439493929190611ef5565b60405180910390a161056b600a60008481526020019081526020016000206003015482611076565b5050565b600360009054906101000a900473ffffffffffffffffffffffffffffffffffffffff1673ffffffffffffffffffffffffffffffffffffffff163373ffffffffffffffffffffffffffffffffffffffff16146105ff576040517f08c379a00000000000000000000000000000000000000000000000000000000081526004016105f690611fac565b60405180910390fd5b80600360006101000a81548173ffffffffffffffffffffffffffffffffffffffff021916908373ffffffffffffffffffffffffffffffffffffffff16021790555050565b600360009054906101000a900473ffffffffffffffffffffffffffffffffffffffff1673ffffffffffffffffffffffffffffffffffffffff163373ffffffffffffffffffffffffffffffffffffffff16146106d3576040517f08c379a00000000000000000000000000000000000000000000000000000000081526004016106ca90611fac565b60405180910390fd5b6106dc81611369565b50565b600260009054906101000a900473ffffffffffffffffffffffffffffffffffffffff1681565b6000600860008673ffffffffffffffffffffffffffffffffffffffff1673ffffffffffffffffffffffffffffffffffffffff168152602001908152602001600020905060005b81805490508110156108f657600115156005600084848154811061077257610771611fcc565b5b9060005260206000200154815260200190815260200160002060070160009054906101000a900460ff16151514806107dc575043600560008484815481106107bd576107bc611fcc565b5b9060005260206000200154815260200190815260200160002060060154105b1561087d5781600183805490506107f3919061202a565b8154811061080457610803611fcc565b5b906000526020600020015482828154811061082257610821611fcc565b5b9060005260206000200181905550818054806108415761084061205e565b5b6001900381819060005260206000200160009055905560008114156108695760009050610878565b80806108749061208d565b9150505b6108e3565b6005600083838154811061089457610893611fcc565b5b90600052602060002001548152602001908152602001600020600501548514156108e2576108e18282815481106108ce576108cd611fcc565b5b906000526020600020015487868661143d565b5b5b80806108ee906120b7565b91505061074b565b505050505050565b600160009054906101000a900473ffffffffffffffffffffffffffffffffffffffff1681565b600c6020528060005260406000206000915090505481565b6000600b60008481526020019081526020016000205414610992576040517f08c379a000000000000000000000000000000000000000000000000000000000815260040161098990612172565b60405180910390fd5b6000600160009054906101000a900473ffffffffffffffffffffffffffffffffffffffff16905060008173ffffffffffffffffffffffffffffffffffffffff16632d4a0382866040518263ffffffff1660e01b81526004016109f49190611c55565b602060405180830381865afa158015610a11573d6000803e3d6000fd5b505050506040513d601f19601f82011682018060405250810190610a3591906121a7565b905060008273ffffffffffffffffffffffffffffffffffffffff1663d6ca40a7876040518263ffffffff1660e01b8152600401610a729190611c55565b602060405180830381865afa158015610a8f573d6000803e3d6000fd5b505050506040513d601f19601f82011682018060405250810190610ab391906121a7565b905084811480610ac257508482145b610b01576040517f08c379a0000000000000000000000000000000000000000000000000000000008152600401610af890612220565b60405180910390fd5b60008373ffffffffffffffffffffffffffffffffffffffff1662fdd58e33886040518363ffffffff1660e01b8152600401610b3d929190612240565b602060405180830381865afa158015610b5a573d6000803e3d6000fd5b505050506040513d601f19601f82011682018060405250810190610b7e91906121a7565b11610bbe576040517f08c379a0000000000000000000000000000000000000000000000000000000008152600401610bb5906122b5565b60405180910390fd5b6000600c6000878152602001908152602001600020541480610bff575043600d54600c600088815260200190815260200160002054610bfd91906122d5565b105b610c3e576040517f08c379a0000000000000000000000000000000000000000000000000000000008152600401610c359061239d565b60405180910390fd5b610c48600961160a565b6000610c546009611620565b90506000610c6360018561162e565b905060006040518061010001604052803373ffffffffffffffffffffffffffffffffffffffff1681526020018a81526020018481526020018381526020018981526020018881526020016001151581526020016000151581525090507f1376b246b2110f58fc4ef260841ba0590f4a29c76faca70e92d08f27aca131a8816000015182602001518360400151846060015185608001518660a00151604051610d10969594939291906123bd565b60405180910390a180600a600085815260200190815260200160002060008201518160000160006101000a81548173ffffffffffffffffffffffffffffffffffffffff021916908373ffffffffffffffffffffffffffffffffffffffff1602179055506020820151816001015560408201518160020155606082015181600301556080820151816004015560a0820151816005015560c08201518160060160006101000a81548160ff02191690831515021790555060e08201518160060160016101000a81548160ff021916908315150217905550905050505050505050505050565b600d5481565b6000600115156005600084815260200190815260200160002060070160029054906101000a900460ff16151514610e65576040517f08c379a0000000000000000000000000000000000000000000000000000000008152600401610e5c9061246a565b60405180910390fd5b43600560008481526020019081526020016000206006015410610ebd576040517f08c379a0000000000000000000000000000000000000000000000000000000008152600401610eb4906124d6565b60405180910390fd5b600015156005600084815260200190815260200160002060070160009054906101000a900460ff16151514610f27576040517f08c379a0000000000000000000000000000000000000000000000000000000008152600401610f1e90612542565b60405180910390fd5b60006005600084815260200190815260200160002090506000816001015490506000600160009054906101000a900473ffffffffffffffffffffffffffffffffffffffff16905060016005600087815260200190815260200160002060070160006101000a81548160ff02191690831515021790555060008211156110695760008173ffffffffffffffffffffffffffffffffffffffff1663036c22ad85600501546040518263ffffffff1660e01b8152600401610fe59190611c55565b602060405180830381865afa158015611002573d6000803e3d6000fd5b505050506040513d601f19601f8201168201806040525081019061102691906121a7565b9050600060646042836110399190612562565b61104391906125eb565b90508084111561105b57600195505050505050611071565b600095505050505050611071565b600093505050505b919050565b8133600115156005600084815260200190815260200160002060070160029054906101000a900460ff161515146110e2576040517f08c379a00000000000000000000000000000000000000000000000000000000081526004016110d99061246a565b60405180910390fd5b4360056000848152602001908152602001600020600601541161113a576040517f08c379a0000000000000000000000000000000000000000000000000000000008152600401611131906124d6565b60405180910390fd5b600015156006600084815260200190815260200160002060008373ffffffffffffffffffffffffffffffffffffffff1673ffffffffffffffffffffffffffffffffffffffff16815260200190815260200160002060009054906101000a900460ff161515146111de576040517f08c379a00000000000000000000000000000000000000000000000000000000081526004016111d590612668565b60405180910390fd5b836005600082815260200190815260200160002060070160019054906101000a900460ff16156112b157600015156006600083815260200190815260200160002060003273ffffffffffffffffffffffffffffffffffffffff1673ffffffffffffffffffffffffffffffffffffffff16815260200190815260200160002060009054906101000a900460ff161515146112ac576040517f08c379a00000000000000000000000000000000000000000000000000000000081526004016112a390612668565b60405180910390fd5b611357565b6005600082815260200190815260200160002060000160009054906101000a900473ffffffffffffffffffffffffffffffffffffffff1673ffffffffffffffffffffffffffffffffffffffff163273ffffffffffffffffffffffffffffffffffffffff161415611356576040517f08c379a000000000000000000000000000000000000000000000000000000000815260040161134d906126d4565b60405180910390fd5b5b6113628585326117cb565b5050505050565b600360009054906101000a900473ffffffffffffffffffffffffffffffffffffffff1673ffffffffffffffffffffffffffffffffffffffff163373ffffffffffffffffffffffffffffffffffffffff16146113f9576040517f08c379a00000000000000000000000000000000000000000000000000000000081526004016113f090611fac565b60405180910390fd5b80600160006101000a81548173ffffffffffffffffffffffffffffffffffffffff021916908373ffffffffffffffffffffffffffffffffffffffff16021790555050565b600115156006600086815260200190815260200160002060008573ffffffffffffffffffffffffffffffffffffffff1673ffffffffffffffffffffffffffffffffffffffff16815260200190815260200160002060009054906101000a900460ff161515146114e1576040517f08c379a00000000000000000000000000000000000000000000000000000000081526004016114d890612766565b60405180910390fd5b60006007600086815260200190815260200160002060008573ffffffffffffffffffffffffffffffffffffffff1673ffffffffffffffffffffffffffffffffffffffff16815260200190815260200160002060009054906101000a900460ff16905080156115a8578260056000878152602001908152602001600020600101600082825461156f919061202a565b925050819055508160056000878152602001908152602001600020600101600082825461159c91906122d5565b92505081905550611603565b826005600087815260200190815260200160002060030160008282546115ce919061202a565b92505081905550816005600087815260200190815260200160002060030160008282546115fb91906122d5565b925050819055505b5050505050565b6001816000016000828254019250508190555050565b600081600001549050919050565b600060046000815480929190611643906120b7565b919050555060006040518061014001604052803273ffffffffffffffffffffffffffffffffffffffff16815260200160008152602001600081526020016000815260200160008152602001848152602001600054436116a291906122d5565b815260200160001515815260200185151581526020016001151581525090508060056000600454815260200190815260200160002060008201518160000160006101000a81548173ffffffffffffffffffffffffffffffffffffffff021916908373ffffffffffffffffffffffffffffffffffffffff1602179055506020820151816001015560408201518160020155606082015181600301556080820151816004015560a0820151816005015560c0820151816006015560e08201518160070160006101000a81548160ff0219169083151502179055506101008201518160070160016101000a81548160ff0219169083151502179055506101208201518160070160026101000a81548160ff02191690831515021790555090505060045491505092915050565b6000600160009054906101000a900473ffffffffffffffffffffffffffffffffffffffff169050600060056000868152602001908152602001600020604051806101400160405290816000820160009054906101000a900473ffffffffffffffffffffffffffffffffffffffff1673ffffffffffffffffffffffffffffffffffffffff1673ffffffffffffffffffffffffffffffffffffffff1681526020016001820154815260200160028201548152602001600382015481526020016004820154815260200160058201548152602001600682015481526020016007820160009054906101000a900460ff161515151581526020016007820160019054906101000a900460ff161515151581526020016007820160029054906101000a900460ff161515151581525050905060008273ffffffffffffffffffffffffffffffffffffffff1662fdd58e858460a001516040518363ffffffff1660e01b8152600401611938929190612240565b602060405180830381865afa158015611955573d6000803e3d6000fd5b505050506040513d601f19601f8201168201806040525081019061197991906121a7565b905084156119e157806005600088815260200190815260200160002060010160008282546119a791906122d5565b9250508190555060016005600088815260200190815260200160002060020160008282546119d591906122d5565b92505081905550611a3d565b80600560008881526020019081526020016000206003016000828254611a0791906122d5565b925050819055506001600560008881526020019081526020016000206004016000828254611a3591906122d5565b925050819055505b60016006600088815260200190815260200160002060008673ffffffffffffffffffffffffffffffffffffffff1673ffffffffffffffffffffffffffffffffffffffff16815260200190815260200160002060006101000a81548160ff021916908315150217905550846007600088815260200190815260200160002060008673ffffffffffffffffffffffffffffffffffffffff1673ffffffffffffffffffffffffffffffffffffffff16815260200190815260200160002060006101000a81548160ff0219169083151502179055506000600860008673ffffffffffffffffffffffffffffffffffffffff1673ffffffffffffffffffffffffffffffffffffffff16815260200190815260200160002090508087908060018154018082558091505060019003906000526020600020016000909190919091505550505050505050565b600080fd5b6000819050919050565b611b9a81611b87565b8114611ba557600080fd5b50565b600081359050611bb781611b91565b92915050565b600060208284031215611bd357611bd2611b82565b5b6000611be184828501611ba8565b91505092915050565b600073ffffffffffffffffffffffffffffffffffffffff82169050919050565b6000611c1582611bea565b9050919050565b611c2581611c0a565b82525050565b6000602082019050611c406000830184611c1c565b92915050565b611c4f81611b87565b82525050565b6000602082019050611c6a6000830184611c46565b92915050565b60008115159050919050565b611c8581611c70565b8114611c9057600080fd5b50565b600081359050611ca281611c7c565b92915050565b60008060408385031215611cbf57611cbe611b82565b5b6000611ccd85828601611ba8565b9250506020611cde85828601611c93565b9150509250929050565b611cf181611c0a565b8114611cfc57600080fd5b50565b600081359050611d0e81611ce8565b92915050565b600060208284031215611d2a57611d29611b82565b5b6000611d3884828501611cff565b91505092915050565b60008060008060808587031215611d5b57611d5a611b82565b5b6000611d6987828801611cff565b9450506020611d7a87828801611ba8565b9350506040611d8b87828801611ba8565b9250506060611d9c87828801611ba8565b91505092959194509250565b600080600060608486031215611dc157611dc0611b82565b5b6000611dcf86828701611ba8565b9350506020611de086828701611ba8565b9250506040611df186828701611ba8565b9150509250925092565b611e0481611c70565b82525050565b6000608082019050611e1f6000830187611c46565b611e2c6020830186611c46565b611e396040830185611c46565b611e466060830184611dfb565b95945050505050565b6000604082019050611e646000830185611c46565b611e716020830184611c46565b9392505050565b600082825260208201905092915050565b7f494e56414c49443a20494e56414c49445f44494c5554694f4e5f494400000000600082015250565b6000611ebf601c83611e78565b9150611eca82611e89565b602082019050919050565b60006020820190508181036000830152611eee81611eb2565b9050919050565b6000608082019050611f0a6000830187611c1c565b611f176020830186611c46565b611f246040830185611c46565b611f316060830184611dfb565b95945050505050565b7f554e415554484f52495a45443a2043414e4e4f545f504552464f524d5f41435460008201527f494f4e0000000000000000000000000000000000000000000000000000000000602082015250565b6000611f96602383611e78565b9150611fa182611f3a565b604082019050919050565b60006020820190508181036000830152611fc581611f89565b9050919050565b7f4e487b7100000000000000000000000000000000000000000000000000000000600052603260045260246000fd5b7f4e487b7100000000000000000000000000000000000000000000000000000000600052601160045260246000fd5b600061203582611b87565b915061204083611b87565b92508282101561205357612052611ffb565b5b828203905092915050565b7f4e487b7100000000000000000000000000000000000000000000000000000000600052603160045260246000fd5b600061209882611b87565b915060008214156120ac576120ab611ffb565b5b600182039050919050565b60006120c282611b87565b91507fffffffffffffffffffffffffffffffffffffffffffffffffffffffffffffffff8214156120f5576120f4611ffb565b5b600182019050919050565b7f494e56414c49443a2050454e44494e475f44494c5554494f4e5f52455155455360008201527f5400000000000000000000000000000000000000000000000000000000000000602082015250565b600061215c602183611e78565b915061216782612100565b604082019050919050565b6000602082019050818103600083015261218b8161214f565b9050919050565b6000815190506121a181611b91565b92915050565b6000602082840312156121bd576121bc611b82565b5b60006121cb84828501612192565b91505092915050565b7f494e56414c49443a20544f4b454e5f4f525f5245434f52440000000000000000600082015250565b600061220a601883611e78565b9150612215826121d4565b602082019050919050565b60006020820190508181036000830152612239816121fd565b9050919050565b60006040820190506122556000830185611c1c565b6122626020830184611c46565b9392505050565b7f494e56414c49443a204e4f5f544f4b454e535f464f554e440000000000000000600082015250565b600061229f601883611e78565b91506122aa82612269565b602082019050919050565b600060208201905081810360008301526122ce81612292565b9050919050565b60006122e082611b87565b91506122eb83611b87565b9250827fffffffffffffffffffffffffffffffffffffffffffffffffffffffffffffffff038211156123205761231f611ffb565b5b828201905092915050565b7f494e56414c49443a20574149545f534f4d4554494d455f4245464f52455f4e4560008201527f575f44494c5554494f4e5f524551554553540000000000000000000000000000602082015250565b6000612387603283611e78565b91506123928261232b565b604082019050919050565b600060208201905081810360008301526123b68161237a565b9050919050565b600060c0820190506123d26000830189611c1c565b6123df6020830188611c46565b6123ec6040830187611c46565b6123f96060830186611c46565b6124066080830185611c46565b61241360a0830184611c46565b979650505050505050565b7f494e56414c49443a2042414c4c4f545f4e4f545f464f554e4400000000000000600082015250565b6000612454601983611e78565b915061245f8261241e565b602082019050919050565b6000602082019050818103600083015261248381612447565b9050919050565b7f494e56414c49443a20564f54494e475f54494d455f4f56455200000000000000600082015250565b60006124c0601983611e78565b91506124cb8261248a565b602082019050919050565b600060208201905081810360008301526124ef816124b3565b9050919050565b7f494e56414c49443a20524553554c545f414c52454144595f4445434c41524544600082015250565b600061252c602083611e78565b9150612537826124f6565b602082019050919050565b6000602082019050818103600083015261255b8161251f565b9050919050565b600061256d82611b87565b915061257883611b87565b9250817fffffffffffffffffffffffffffffffffffffffffffffffffffffffffffffffff04831182151516156125b1576125b0611ffb565b5b828202905092915050565b7f4e487b7100000000000000000000000000000000000000000000000000000000600052601260045260246000fd5b60006125f682611b87565b915061260183611b87565b925082612611576126106125bc565b5b828204905092915050565b7f494e56414c49443a20414c52454144595f564f54454400000000000000000000600082015250565b6000612652601683611e78565b915061265d8261261c565b602082019050919050565b6000602082019050818103600083015261268181612645565b9050919050565b7f554e415554484f52495a45443a204f574e45525f43414e4e4f545f564f544500600082015250565b60006126be601f83611e78565b91506126c982612688565b602082019050919050565b600060208201905081810360008301526126ed816126b1565b9050919050565b7f494e56414c49443a20494e5445524e414c3a20555345525f4841535f4e4f545f60008201527f564f544544000000000000000000000000000000000000000000000000000000602082015250565b6000612750602583611e78565b915061275b826126f4565b604082019050919050565b6000602082019050818103600083015261277f81612743565b905091905056fea2646970667358221220844fa9dad4b4c1524ad74d2e6c3267645b9d725b82d66cbc269b597bf6a13f1d64736f6c634300080c0033",
  "immutableReferences": {},
  "source": "// SPDX-License-Identifier: MIT\npragma solidity ^0.8.0;\n\nimport \"./Voting/BaseVotingContract.sol\";\nimport \"./interface/ITreasury.sol\";\nimport \"@openzeppelin/contracts/utils/Counters.sol\";\n\ncontract DilutionContract is BaseVotingContract {\n    /// @dev This will contain the data for the dilution request\n    /// @param requester the person who has requested for token dilution\n    /// @param recordId This is the id of the record that is linked to this ballot\n    /// @param dilutionId This is the id of the dilution structure that is linked to this ballot\n    /// @param ballotId Id of the ballot where voting is stored\n    /// @param tokenId token that is to be minted\n    /// @param amount the amount of tokens to be minted\n    /// @param isPresent this is to check if the dilution request is present or not\n    /// @param isAccepted this denotes the status of the request that is if the request was accepted or rejected\n    struct DilutionRequest {\n        address requester;\n        uint256 recordId;\n        uint256 dilutionId;\n        uint256 ballotId;\n        uint256 tokenId;\n        uint256 amount;\n        bool isPresent;\n        bool isAccepted;\n    }\n\n    /// @dev This is when a dilution request is created.\n    /// @param requester the person who has requested for token dilution\n    /// @param recordId This is the id of the record that is linked to this ballot\n    /// @param dilutionId This is the id of the dilution structure that is linked to this ballot\n    /// @param ballotId Id of the ballot where voting is stored\n    /// @param tokenId token that is to be minted\n    /// @param amount the amount of tokens to be minted\n    event DilutionRequestCreated(\n        address requester,\n        uint256 recordId,\n        uint256 dilutionId,\n        uint256 ballotId,\n        uint256 tokenId,\n        uint256 amount\n    );\n\n    /// @dev This is when a vote is given by user.\n    /// @param voter Address of the voter\n    /// @param dilutionId This is the id of the dilution structure that is linked to this ballot\n    /// @param ballotId Id of the ballot where voting is stored\n    /// @param vote State of vote : true for yes and false for No\n    event DilutionVoting(\n        address voter,\n        uint256 dilutionId,\n        uint256 ballotId,\n        bool vote\n    );\n\n    /// @dev this event is generated when result of a ballot is declared\n    /// @param dilutionId This is the id of dilution request\n    /// @param tokenId This is the id of the contribution that is linked to this ballot\n    /// @param ballotId this is the ballot Id for which result is declared\n    /// @param result this is the status of the result,\n    /// either true if user won that is he received more than 66% of votes or false if user lost\n    event DilutionResult(\n        uint256 dilutionId,\n        uint256 tokenId,\n        uint256 ballotId,\n        bool result\n    );\n\n    using Counters for Counters.Counter;\n    Counters.Counter private _dilutionIds;\n\n    // This mapping contains data with respect to dilution id\n    // _dilutionId => dilutionData\n    mapping(uint256 => DilutionRequest) dilutionRequestMap;\n\n    // This mapping tracks if any request for dilution is active or not\n    // tokenId => id of the current dilution request, if 0 then there are no active dilution request\n    mapping(uint256 => uint256) public activeDilutionRequestMap;\n\n    // This mapping contains the blocknumber when last request for dilution request result of distributed\n    // tokenId => blocknumber when last dilution result was declared for this token\n    mapping(uint256 => uint256) public lastDilutionResultMap;\n\n    uint256 public REQUEST_INTERVAL;\n\n    constructor(\n        uint8 votingInterval,\n        uint256 requestInterval,\n        address owner\n    ) BaseVotingContract(owner) {\n        VOTING_BLOCK_PERIOD = votingInterval;\n        REQUEST_INTERVAL = requestInterval;\n    }\n\n    /// @dev This function sets the treasury Contract address\n    /// @param newTreasuryContractAddress The mew address of treasury contract\n    function setTreasuryContractAddress(address newTreasuryContractAddress)\n        external\n        _ownerOnly\n    {\n        _setTreasuryContractAddress(newTreasuryContractAddress);\n    }\n\n    /// @dev This function will create a new contribution voting ballot\n    /// @param recordId this is the id of the record whose dilution request is to be created\n    /// @param tokenId the token that needs to be diluted\n    /// @param amount the amount to be diluted\n    function createDilutionRequest(\n        uint256 recordId,\n        uint256 tokenId,\n        uint256 amount\n    ) public {\n        require(\n            activeDilutionRequestMap[tokenId] == 0,\n            \"INVALID: PENDING_DILUTION_REQUEST\"\n        );\n\n        ITreasury treasuryContract = ITreasury(TREASURY_CONTRACT_ADDRESS);\n\n        uint256 commTokenId = treasuryContract.getCommunityTokenId(recordId);\n        uint256 govTokenId = treasuryContract.getGovernanceTokenId(recordId);\n\n        require(\n            govTokenId == tokenId || commTokenId == tokenId,\n            \"INVALID: TOKEN_OR_RECORD\"\n        );\n\n        require(\n            treasuryContract.balanceOf(msg.sender, tokenId) > 0,\n            \"INVALID: NO_TOKENS_FOUND\"\n        );\n\n        // We need to check if there were any previous request made,\n        // and if any request are made then has sufficient time passed or not.\n        // If the block number is 0 then it means that no request has been created\n        // err: You need to wait sometime for you create new dilution request\n        require(\n            lastDilutionResultMap[tokenId] == 0 ||\n                lastDilutionResultMap[tokenId] + REQUEST_INTERVAL <\n                block.number,\n            \"INVALID: WAIT_SOMETIME_BEFORE_NEW_DILUTION_REQUEST\"\n        );\n\n        _dilutionIds.increment();\n        uint256 dilutionId = _dilutionIds.current();\n        uint256 ballotId = _createVoting(true, commTokenId);\n\n        DilutionRequest memory dilutionRequest = DilutionRequest({\n            requester: msg.sender,\n            recordId: recordId,\n            dilutionId: dilutionId,\n            ballotId: ballotId,\n            tokenId: tokenId,\n            amount: amount,\n            isPresent: true,\n            isAccepted: false\n        });\n\n        emit DilutionRequestCreated({\n            requester: dilutionRequest.requester,\n            recordId: dilutionRequest.recordId,\n            dilutionId: dilutionRequest.dilutionId,\n            ballotId: dilutionRequest.ballotId,\n            tokenId: dilutionRequest.tokenId,\n            amount: dilutionRequest.amount\n        });\n\n        dilutionRequestMap[dilutionId] = dilutionRequest;\n    }\n\n    /// @dev This function is called by any user to cast vote\n    /// @param dilutionId this is the id of the dilution request for which user is voting\n    /// @param vote this is the state of the vote, if true than it means the vote is in favour of the ballot\n    function castVote(uint256 dilutionId, bool vote) public {\n        require(\n            dilutionRequestMap[dilutionId].isPresent == true,\n            \"INVALID: INVALID_DILUTiON_ID\"\n        );\n\n        emit DilutionVoting({\n            dilutionId: dilutionId,\n            ballotId: dilutionRequestMap[dilutionId].ballotId,\n            voter: msg.sender,\n            vote: vote\n        });\n\n        super._castVote(dilutionRequestMap[dilutionId].ballotId, vote);\n    }\n\n    /// @dev This function can be called from external source and also from within the contract\n    /// @param dilutionId this is the id of the contribution to which the winner is to be decleared\n    function declareWinner(uint256 dilutionId) external {\n        bool result = _declareWinner(dilutionRequestMap[dilutionId].ballotId);\n\n        emit DilutionResult({\n            dilutionId: dilutionId,\n            tokenId: dilutionRequestMap[dilutionId].tokenId,\n            ballotId: dilutionRequestMap[dilutionId].ballotId,\n            result: result\n        });\n\n        if (result) {\n            //Transfer the reward amount to user\n            ITreasury treasuryContract = ITreasury(TREASURY_CONTRACT_ADDRESS);\n            treasuryContract.mintTokens(\n                dilutionRequestMap[dilutionId].tokenId,\n                dilutionRequestMap[dilutionId].amount\n            );\n\n            dilutionRequestMap[dilutionId].isAccepted = true;\n        } else {\n            dilutionRequestMap[dilutionId].isAccepted = false;\n        }\n        // reset the active dilution to 0\n        activeDilutionRequestMap[dilutionRequestMap[dilutionId].tokenId] = 0;\n        lastDilutionResultMap[dilutionRequestMap[dilutionId].tokenId] = block\n            .number;\n    }\n}\n",
  "sourcePath": "/Users/a1/Desktop/Office/projects/CrowdRecords/Contracts/contracts/DilutionContract.sol",
  "compiler": {
    "name": "solc",
    "version": "0.8.12+commit.f00d7308.Emscripten.clang"
  },
  "schemaVersion": "3.4.6",
  "updatedAt": "2022-10-05T14:07:55.641Z",
  "devdoc": {
    "events": {
      "DilutionRequestCreated(address,uint256,uint256,uint256,uint256,uint256)": {
        "details": "This is when a dilution request is created.",
        "params": {
          "amount": "the amount of tokens to be minted",
          "ballotId": "Id of the ballot where voting is stored",
          "dilutionId": "This is the id of the dilution structure that is linked to this ballot",
          "recordId": "This is the id of the record that is linked to this ballot",
          "requester": "the person who has requested for token dilution",
          "tokenId": "token that is to be minted"
        }
      },
      "DilutionResult(uint256,uint256,uint256,bool)": {
        "details": "this event is generated when result of a ballot is declared",
        "params": {
          "ballotId": "this is the ballot Id for which result is declared",
          "dilutionId": "This is the id of dilution request",
          "result": "this is the status of the result, either true if user won that is he received more than 66% of votes or false if user lost",
          "tokenId": "This is the id of the contribution that is linked to this ballot"
        }
      },
      "DilutionVoting(address,uint256,uint256,bool)": {
        "details": "This is when a vote is given by user.",
        "params": {
          "ballotId": "Id of the ballot where voting is stored",
          "dilutionId": "This is the id of the dilution structure that is linked to this ballot",
          "vote": "State of vote : true for yes and false for No",
          "voter": "Address of the voter"
        }
      }
    },
    "kind": "dev",
    "methods": {
      "_handleUserTokenTransfers(address,uint256,uint256,uint256)": {
        "details": "This function will be called when either user is transferring the tokens to other account, or is receiving tokens from other tokens.",
        "params": {
          "newBalance": "this is the new balance of the user that is after the transfer",
          "previousBalance": "this is the old balance of the user",
          "user": "address of the user whose balance is being changed"
        }
      },
      "castVote(uint256,bool)": {
        "details": "This function is called by any user to cast vote",
        "params": {
          "dilutionId": "this is the id of the dilution request for which user is voting",
          "vote": "this is the state of the vote, if true than it means the vote is in favour of the ballot"
        }
      },
      "createDilutionRequest(uint256,uint256,uint256)": {
        "details": "This function will create a new contribution voting ballot",
        "params": {
          "amount": "the amount to be diluted",
          "recordId": "this is the id of the record whose dilution request is to be created",
          "tokenId": "the token that needs to be diluted"
        }
      },
      "declareWinner(uint256)": {
        "details": "This function can be called from external source and also from within the contract",
        "params": {
          "dilutionId": "this is the id of the contribution to which the winner is to be decleared"
        }
      },
      "setOwnerAddress(address)": {
        "details": "This function sets the owner address",
        "params": {
          "ownerAddress": "This is the address of the owner"
        }
      },
      "setTreasuryContractAddress(address)": {
        "details": "This function sets the treasury Contract address",
        "params": {
          "newTreasuryContractAddress": "The mew address of treasury contract"
        }
      }
    },
    "version": 1
  },
  "userdoc": {
    "kind": "user",
    "methods": {},
    "version": 1
  }
}