{
  "contractName": "DilutionContract",
  "abi": [
    {
      "inputs": [
        {
          "internalType": "uint8",
          "name": "votingInterval",
          "type": "uint8"
        },
        {
          "internalType": "uint256",
          "name": "requestInterval",
          "type": "uint256"
        }
      ],
      "stateMutability": "nonpayable",
      "type": "constructor"
    },
    {
      "anonymous": false,
      "inputs": [
        {
          "indexed": false,
          "internalType": "address",
          "name": "contractAddress",
          "type": "address"
        },
        {
          "indexed": false,
          "internalType": "uint256",
          "name": "previousBal",
          "type": "uint256"
        },
        {
          "indexed": false,
          "internalType": "uint256",
          "name": "nextBal",
          "type": "uint256"
        }
      ],
      "name": "DEBUG2",
      "type": "event"
    },
    {
      "anonymous": false,
      "inputs": [
        {
          "indexed": false,
          "internalType": "address",
          "name": "requester",
          "type": "address"
        },
        {
          "indexed": false,
          "internalType": "uint256",
          "name": "recordId",
          "type": "uint256"
        },
        {
          "indexed": false,
          "internalType": "uint256",
          "name": "dilutionId",
          "type": "uint256"
        },
        {
          "indexed": false,
          "internalType": "uint256",
          "name": "ballotId",
          "type": "uint256"
        },
        {
          "indexed": false,
          "internalType": "uint256",
          "name": "tokenId",
          "type": "uint256"
        },
        {
          "indexed": false,
          "internalType": "uint256",
          "name": "amount",
          "type": "uint256"
        }
      ],
      "name": "DilutionRequestCreated",
      "type": "event"
    },
    {
      "anonymous": false,
      "inputs": [
        {
          "indexed": false,
          "internalType": "uint256",
          "name": "dilutionId",
          "type": "uint256"
        },
        {
          "indexed": false,
          "internalType": "uint256",
          "name": "tokenId",
          "type": "uint256"
        },
        {
          "indexed": false,
          "internalType": "uint256",
          "name": "ballotId",
          "type": "uint256"
        },
        {
          "indexed": false,
          "internalType": "bool",
          "name": "result",
          "type": "bool"
        }
      ],
      "name": "DilutionResult",
      "type": "event"
    },
    {
      "anonymous": false,
      "inputs": [
        {
          "indexed": false,
          "internalType": "address",
          "name": "voter",
          "type": "address"
        },
        {
          "indexed": false,
          "internalType": "uint256",
          "name": "dilutionId",
          "type": "uint256"
        },
        {
          "indexed": false,
          "internalType": "uint256",
          "name": "ballotId",
          "type": "uint256"
        },
        {
          "indexed": false,
          "internalType": "bool",
          "name": "vote",
          "type": "bool"
        }
      ],
      "name": "DilutionVoting",
      "type": "event"
    },
    {
      "inputs": [],
      "name": "REQUEST_INTERVAL",
      "outputs": [
        {
          "internalType": "uint256",
          "name": "",
          "type": "uint256"
        }
      ],
      "stateMutability": "view",
      "type": "function"
    },
    {
      "inputs": [],
      "name": "TREASURY_CONTRACT_ADDRESS",
      "outputs": [
        {
          "internalType": "address",
          "name": "",
          "type": "address"
        }
      ],
      "stateMutability": "view",
      "type": "function"
    },
    {
      "inputs": [],
      "name": "TREASURY_HUB_ADDRESS",
      "outputs": [
        {
          "internalType": "address",
          "name": "",
          "type": "address"
        }
      ],
      "stateMutability": "view",
      "type": "function"
    },
    {
      "inputs": [
        {
          "internalType": "address",
          "name": "user",
          "type": "address"
        },
        {
          "internalType": "uint256",
          "name": "tokenId",
          "type": "uint256"
        },
        {
          "internalType": "uint256",
          "name": "previousBalance",
          "type": "uint256"
        },
        {
          "internalType": "uint256",
          "name": "newBalance",
          "type": "uint256"
        }
      ],
      "name": "_handleUserTokenTransfers",
      "outputs": [],
      "stateMutability": "nonpayable",
      "type": "function"
    },
    {
      "inputs": [
        {
          "internalType": "uint256",
          "name": "",
          "type": "uint256"
        }
      ],
      "name": "activeDilutionRequestMap",
      "outputs": [
        {
          "internalType": "uint256",
          "name": "",
          "type": "uint256"
        }
      ],
      "stateMutability": "view",
      "type": "function"
    },
    {
      "inputs": [
        {
          "internalType": "uint256",
          "name": "",
          "type": "uint256"
        }
      ],
      "name": "lastDilutionResultMap",
      "outputs": [
        {
          "internalType": "uint256",
          "name": "",
          "type": "uint256"
        }
      ],
      "stateMutability": "view",
      "type": "function"
    },
    {
      "inputs": [
        {
          "internalType": "address",
          "name": "newTreasuryContractAddress",
          "type": "address"
        }
      ],
      "name": "setTreasuryContractAddress",
      "outputs": [],
      "stateMutability": "nonpayable",
      "type": "function"
    },
    {
      "inputs": [
        {
          "internalType": "uint256",
          "name": "recordId",
          "type": "uint256"
        },
        {
          "internalType": "uint256",
          "name": "tokenId",
          "type": "uint256"
        },
        {
          "internalType": "uint256",
          "name": "amount",
          "type": "uint256"
        }
      ],
      "name": "createDilutionRequest",
      "outputs": [],
      "stateMutability": "nonpayable",
      "type": "function"
    },
    {
      "inputs": [
        {
          "internalType": "uint256",
          "name": "dilutionId",
          "type": "uint256"
        },
        {
          "internalType": "bool",
          "name": "vote",
          "type": "bool"
        }
      ],
      "name": "castVote",
      "outputs": [],
      "stateMutability": "nonpayable",
      "type": "function"
    },
    {
      "inputs": [
        {
          "internalType": "uint256",
          "name": "dilutionId",
          "type": "uint256"
        }
      ],
      "name": "declareWinner",
      "outputs": [],
      "stateMutability": "nonpayable",
      "type": "function"
    }
  ],
  "bytecode": "0x6080604052601960005560006004553480156200001b57600080fd5b50604051620028c0380380620028c0833981810160405281019062000041919062000119565b33600360006101000a81548173ffffffffffffffffffffffffffffffffffffffff021916908373ffffffffffffffffffffffffffffffffffffffff1602179055508160ff1660008190555080600d81905550505062000160565b600080fd5b600060ff82169050919050565b620000b881620000a0565b8114620000c457600080fd5b50565b600081519050620000d881620000ad565b92915050565b6000819050919050565b620000f381620000de565b8114620000ff57600080fd5b50565b6000815190506200011381620000e8565b92915050565b600080604083850312156200013357620001326200009b565b5b60006200014385828601620000c7565b9250506020620001568582860162000102565b9150509250929050565b61275080620001706000396000f3fe608060405234801561001057600080fd5b506004361061009d5760003560e01c8063abb7ed7f11610066578063abb7ed7f14610144578063acb3149314610160578063c64f89591461017e578063c6a1b51f146101ae578063ef0dee04146101ca5761009d565b8062c2943c146100a25780631498c812146100be57806315373e3d146100ee5780634cf2d48f1461010a5780638d2ae1f714610126575b600080fd5b6100bc60048036038101906100b79190611aae565b6101e8565b005b6100d860048036038101906100d39190611aae565b610400565b6040516100e59190611aea565b60405180910390f35b61010860048036038101906101039190611b3d565b610418565b005b610124600480360381019061011f9190611bdb565b6104f9565b005b61012e610595565b60405161013b9190611c17565b60405180910390f35b61015e60048036038101906101599190611c32565b6105bb565b005b6101686107ef565b6040516101759190611c17565b60405180910390f35b61019860048036038101906101939190611aae565b610815565b6040516101a59190611aea565b60405180910390f35b6101c860048036038101906101c39190611c99565b61082d565b005b6101d2610ce4565b6040516101df9190611aea565b60405180910390f35b6000610209600a600084815260200190815260200160002060030154610cea565b90507fe8d4951422367686d087c15158382f9f42bd20d8bde62b2d252b5d1e856c1f8982600a600085815260200190815260200160002060040154600a6000868152602001908152602001600020600301548460405161026c9493929190611cfb565b60405180910390a1801561036f576000600160009054906101000a900473ffffffffffffffffffffffffffffffffffffffff1690508073ffffffffffffffffffffffffffffffffffffffff166334a7c2e7600a600086815260200190815260200160002060040154600a6000878152602001908152602001600020600501546040518363ffffffff1660e01b8152600401610308929190611d40565b600060405180830381600087803b15801561032257600080fd5b505af1158015610336573d6000803e3d6000fd5b505050506001600a600085815260200190815260200160002060060160016101000a81548160ff0219169083151502179055505061039f565b6000600a600084815260200190815260200160002060060160016101000a81548160ff0219169083151502179055505b6000600b6000600a60008681526020019081526020016000206004015481526020019081526020016000208190555043600c6000600a6000868152602001908152602001600020600401548152602001908152602001600020819055505050565b600b6020528060005260406000206000915090505481565b60011515600a600084815260200190815260200160002060060160009054906101000a900460ff16151514610482576040517f08c379a000000000000000000000000000000000000000000000000000000000815260040161047990611dc6565b60405180910390fd5b7fb2f0729497891f6d2fee9abd4a73081173d57e638f38ea17e919746a57020e1e3383600a600086815260200190815260200160002060030154846040516104cd9493929190611de6565b60405180910390a16104f5600a60008481526020019081526020016000206003015482610f67565b5050565b600360009054906101000a900473ffffffffffffffffffffffffffffffffffffffff1673ffffffffffffffffffffffffffffffffffffffff163373ffffffffffffffffffffffffffffffffffffffff1614610589576040517f08c379a000000000000000000000000000000000000000000000000000000000815260040161058090611e9d565b60405180910390fd5b6105928161125a565b50565b600260009054906101000a900473ffffffffffffffffffffffffffffffffffffffff1681565b7fce745f624257e308d136e6727da2d12784ad0063921f5d7c5f379685d6c63e363083836040516105ee93929190611ebd565b60405180910390a16000600860008673ffffffffffffffffffffffffffffffffffffffff1673ffffffffffffffffffffffffffffffffffffffff168152602001908152602001600020905060005b81805490508110156107e757600115156005600084848154811061066357610662611ef4565b5b9060005260206000200154815260200190815260200160002060070160009054906101000a900460ff16151514806106cd575043600560008484815481106106ae576106ad611ef4565b5b9060005260206000200154815260200190815260200160002060060154105b1561076e5781600183805490506106e49190611f52565b815481106106f5576106f4611ef4565b5b906000526020600020015482828154811061071357610712611ef4565b5b90600052602060002001819055508180548061073257610731611f86565b5b60019003818190600052602060002001600090559055600081141561075a5760009050610769565b808061076590611fb5565b9150505b6107d4565b6005600083838154811061078557610784611ef4565b5b90600052602060002001548152602001908152602001600020600501548514156107d3576107d28282815481106107bf576107be611ef4565b5b906000526020600020015487868661132e565b5b5b80806107df90611fdf565b91505061063c565b505050505050565b600160009054906101000a900473ffffffffffffffffffffffffffffffffffffffff1681565b600c6020528060005260406000206000915090505481565b6000600b60008481526020019081526020016000205414610883576040517f08c379a000000000000000000000000000000000000000000000000000000000815260040161087a9061209a565b60405180910390fd5b6000600160009054906101000a900473ffffffffffffffffffffffffffffffffffffffff16905060008173ffffffffffffffffffffffffffffffffffffffff16632d4a0382866040518263ffffffff1660e01b81526004016108e59190611aea565b602060405180830381865afa158015610902573d6000803e3d6000fd5b505050506040513d601f19601f8201168201806040525081019061092691906120cf565b905060008273ffffffffffffffffffffffffffffffffffffffff1663d6ca40a7876040518263ffffffff1660e01b81526004016109639190611aea565b602060405180830381865afa158015610980573d6000803e3d6000fd5b505050506040513d601f19601f820116820180604052508101906109a491906120cf565b9050848214806109b357508481145b6109f2576040517f08c379a00000000000000000000000000000000000000000000000000000000081526004016109e990612148565b60405180910390fd5b60008373ffffffffffffffffffffffffffffffffffffffff1662fdd58e33886040518363ffffffff1660e01b8152600401610a2e929190612168565b602060405180830381865afa158015610a4b573d6000803e3d6000fd5b505050506040513d601f19601f82011682018060405250810190610a6f91906120cf565b11610aaf576040517f08c379a0000000000000000000000000000000000000000000000000000000008152600401610aa690612203565b60405180910390fd5b6000600c6000878152602001908152602001600020541480610af0575043600d54600c600088815260200190815260200160002054610aee9190612223565b105b610b2f576040517f08c379a0000000000000000000000000000000000000000000000000000000008152600401610b26906122eb565b60405180910390fd5b610b3960096114fb565b6000610b456009611511565b90506000610b5460018461151f565b905060006040518061010001604052803373ffffffffffffffffffffffffffffffffffffffff1681526020018a81526020018481526020018381526020018981526020018881526020016001151581526020016000151581525090507f1376b246b2110f58fc4ef260841ba0590f4a29c76faca70e92d08f27aca131a8816000015182602001518360400151846060015185608001518660a00151604051610c019695949392919061230b565b60405180910390a180600a600085815260200190815260200160002060008201518160000160006101000a81548173ffffffffffffffffffffffffffffffffffffffff021916908373ffffffffffffffffffffffffffffffffffffffff1602179055506020820151816001015560408201518160020155606082015181600301556080820151816004015560a0820151816005015560c08201518160060160006101000a81548160ff02191690831515021790555060e08201518160060160016101000a81548160ff021916908315150217905550905050505050505050505050565b600d5481565b6000600115156005600084815260200190815260200160002060070160029054906101000a900460ff16151514610d56576040517f08c379a0000000000000000000000000000000000000000000000000000000008152600401610d4d906123b8565b60405180910390fd5b43600560008481526020019081526020016000206006015410610dae576040517f08c379a0000000000000000000000000000000000000000000000000000000008152600401610da590612424565b60405180910390fd5b600015156005600084815260200190815260200160002060070160009054906101000a900460ff16151514610e18576040517f08c379a0000000000000000000000000000000000000000000000000000000008152600401610e0f90612490565b60405180910390fd5b60006005600084815260200190815260200160002090506000816001015490506000600160009054906101000a900473ffffffffffffffffffffffffffffffffffffffff16905060016005600087815260200190815260200160002060070160006101000a81548160ff0219169083151502179055506000821115610f5a5760008173ffffffffffffffffffffffffffffffffffffffff1663036c22ad85600501546040518263ffffffff1660e01b8152600401610ed69190611aea565b602060405180830381865afa158015610ef3573d6000803e3d6000fd5b505050506040513d601f19601f82011682018060405250810190610f1791906120cf565b905060006064604283610f2a91906124b0565b610f349190612539565b905080841115610f4c57600195505050505050610f62565b600095505050505050610f62565b600093505050505b919050565b8133600115156005600084815260200190815260200160002060070160029054906101000a900460ff16151514610fd3576040517f08c379a0000000000000000000000000000000000000000000000000000000008152600401610fca906123b8565b60405180910390fd5b4360056000848152602001908152602001600020600601541161102b576040517f08c379a0000000000000000000000000000000000000000000000000000000008152600401611022906125b6565b60405180910390fd5b600015156006600084815260200190815260200160002060008373ffffffffffffffffffffffffffffffffffffffff1673ffffffffffffffffffffffffffffffffffffffff16815260200190815260200160002060009054906101000a900460ff161515146110cf576040517f08c379a00000000000000000000000000000000000000000000000000000000081526004016110c690612622565b60405180910390fd5b836005600082815260200190815260200160002060070160019054906101000a900460ff16156111a257600015156006600083815260200190815260200160002060003273ffffffffffffffffffffffffffffffffffffffff1673ffffffffffffffffffffffffffffffffffffffff16815260200190815260200160002060009054906101000a900460ff1615151461119d576040517f08c379a000000000000000000000000000000000000000000000000000000000815260040161119490612622565b60405180910390fd5b611248565b6005600082815260200190815260200160002060000160009054906101000a900473ffffffffffffffffffffffffffffffffffffffff1673ffffffffffffffffffffffffffffffffffffffff163273ffffffffffffffffffffffffffffffffffffffff161415611247576040517f08c379a000000000000000000000000000000000000000000000000000000000815260040161123e9061268e565b60405180910390fd5b5b6112538585326116bc565b5050505050565b600360009054906101000a900473ffffffffffffffffffffffffffffffffffffffff1673ffffffffffffffffffffffffffffffffffffffff163373ffffffffffffffffffffffffffffffffffffffff16146112ea576040517f08c379a00000000000000000000000000000000000000000000000000000000081526004016112e190611e9d565b60405180910390fd5b80600160006101000a81548173ffffffffffffffffffffffffffffffffffffffff021916908373ffffffffffffffffffffffffffffffffffffffff16021790555050565b600115156006600086815260200190815260200160002060008573ffffffffffffffffffffffffffffffffffffffff1673ffffffffffffffffffffffffffffffffffffffff16815260200190815260200160002060009054906101000a900460ff161515146113d2576040517f08c379a00000000000000000000000000000000000000000000000000000000081526004016113c9906126fa565b60405180910390fd5b60006007600086815260200190815260200160002060008573ffffffffffffffffffffffffffffffffffffffff1673ffffffffffffffffffffffffffffffffffffffff16815260200190815260200160002060009054906101000a900460ff169050801561149957826005600087815260200190815260200160002060010160008282546114609190611f52565b925050819055508160056000878152602001908152602001600020600101600082825461148d9190612223565b925050819055506114f4565b826005600087815260200190815260200160002060030160008282546114bf9190611f52565b92505081905550816005600087815260200190815260200160002060030160008282546114ec9190612223565b925050819055505b5050505050565b6001816000016000828254019250508190555050565b600081600001549050919050565b60006004600081548092919061153490611fdf565b919050555060006040518061014001604052803273ffffffffffffffffffffffffffffffffffffffff16815260200160008152602001600081526020016000815260200160008152602001848152602001600054436115939190612223565b815260200160001515815260200185151581526020016001151581525090508060056000600454815260200190815260200160002060008201518160000160006101000a81548173ffffffffffffffffffffffffffffffffffffffff021916908373ffffffffffffffffffffffffffffffffffffffff1602179055506020820151816001015560408201518160020155606082015181600301556080820151816004015560a0820151816005015560c0820151816006015560e08201518160070160006101000a81548160ff0219169083151502179055506101008201518160070160016101000a81548160ff0219169083151502179055506101208201518160070160026101000a81548160ff02191690831515021790555090505060045491505092915050565b6000600160009054906101000a900473ffffffffffffffffffffffffffffffffffffffff169050600060056000868152602001908152602001600020604051806101400160405290816000820160009054906101000a900473ffffffffffffffffffffffffffffffffffffffff1673ffffffffffffffffffffffffffffffffffffffff1673ffffffffffffffffffffffffffffffffffffffff1681526020016001820154815260200160028201548152602001600382015481526020016004820154815260200160058201548152602001600682015481526020016007820160009054906101000a900460ff161515151581526020016007820160019054906101000a900460ff161515151581526020016007820160029054906101000a900460ff161515151581525050905060008273ffffffffffffffffffffffffffffffffffffffff1662fdd58e858460a001516040518363ffffffff1660e01b8152600401611829929190612168565b602060405180830381865afa158015611846573d6000803e3d6000fd5b505050506040513d601f19601f8201168201806040525081019061186a91906120cf565b905084156118d257806005600088815260200190815260200160002060010160008282546118989190612223565b9250508190555060016005600088815260200190815260200160002060020160008282546118c69190612223565b9250508190555061192e565b806005600088815260200190815260200160002060030160008282546118f89190612223565b9250508190555060016005600088815260200190815260200160002060040160008282546119269190612223565b925050819055505b60016006600088815260200190815260200160002060008673ffffffffffffffffffffffffffffffffffffffff1673ffffffffffffffffffffffffffffffffffffffff16815260200190815260200160002060006101000a81548160ff021916908315150217905550846007600088815260200190815260200160002060008673ffffffffffffffffffffffffffffffffffffffff1673ffffffffffffffffffffffffffffffffffffffff16815260200190815260200160002060006101000a81548160ff0219169083151502179055506000600860008673ffffffffffffffffffffffffffffffffffffffff1673ffffffffffffffffffffffffffffffffffffffff16815260200190815260200160002090508087908060018154018082558091505060019003906000526020600020016000909190919091505550505050505050565b600080fd5b6000819050919050565b611a8b81611a78565b8114611a9657600080fd5b50565b600081359050611aa881611a82565b92915050565b600060208284031215611ac457611ac3611a73565b5b6000611ad284828501611a99565b91505092915050565b611ae481611a78565b82525050565b6000602082019050611aff6000830184611adb565b92915050565b60008115159050919050565b611b1a81611b05565b8114611b2557600080fd5b50565b600081359050611b3781611b11565b92915050565b60008060408385031215611b5457611b53611a73565b5b6000611b6285828601611a99565b9250506020611b7385828601611b28565b9150509250929050565b600073ffffffffffffffffffffffffffffffffffffffff82169050919050565b6000611ba882611b7d565b9050919050565b611bb881611b9d565b8114611bc357600080fd5b50565b600081359050611bd581611baf565b92915050565b600060208284031215611bf157611bf0611a73565b5b6000611bff84828501611bc6565b91505092915050565b611c1181611b9d565b82525050565b6000602082019050611c2c6000830184611c08565b92915050565b60008060008060808587031215611c4c57611c4b611a73565b5b6000611c5a87828801611bc6565b9450506020611c6b87828801611a99565b9350506040611c7c87828801611a99565b9250506060611c8d87828801611a99565b91505092959194509250565b600080600060608486031215611cb257611cb1611a73565b5b6000611cc086828701611a99565b9350506020611cd186828701611a99565b9250506040611ce286828701611a99565b9150509250925092565b611cf581611b05565b82525050565b6000608082019050611d106000830187611adb565b611d1d6020830186611adb565b611d2a6040830185611adb565b611d376060830184611cec565b95945050505050565b6000604082019050611d556000830185611adb565b611d626020830184611adb565b9392505050565b600082825260208201905092915050565b7f496e76616c69642064696c7574696f6e20726571756573742069640000000000600082015250565b6000611db0601b83611d69565b9150611dbb82611d7a565b602082019050919050565b60006020820190508181036000830152611ddf81611da3565b9050919050565b6000608082019050611dfb6000830187611c08565b611e086020830186611adb565b611e156040830185611adb565b611e226060830184611cec565b95945050505050565b7f596f7520617265206e6f7420617574686f72697a656420666f7220746869732060008201527f616374696f6e0000000000000000000000000000000000000000000000000000602082015250565b6000611e87602683611d69565b9150611e9282611e2b565b604082019050919050565b60006020820190508181036000830152611eb681611e7a565b9050919050565b6000606082019050611ed26000830186611c08565b611edf6020830185611adb565b611eec6040830184611adb565b949350505050565b7f4e487b7100000000000000000000000000000000000000000000000000000000600052603260045260246000fd5b7f4e487b7100000000000000000000000000000000000000000000000000000000600052601160045260246000fd5b6000611f5d82611a78565b9150611f6883611a78565b925082821015611f7b57611f7a611f23565b5b828203905092915050565b7f4e487b7100000000000000000000000000000000000000000000000000000000600052603160045260246000fd5b6000611fc082611a78565b91506000821415611fd457611fd3611f23565b5b600182039050919050565b6000611fea82611a78565b91507fffffffffffffffffffffffffffffffffffffffffffffffffffffffffffffffff82141561201d5761201c611f23565b5b600182019050919050565b7f546865726520697320612070656e64696e672064696c7574696f6e207265717560008201527f6573740000000000000000000000000000000000000000000000000000000000602082015250565b6000612084602383611d69565b915061208f82612028565b604082019050919050565b600060208201905081810360008301526120b381612077565b9050919050565b6000815190506120c981611a82565b92915050565b6000602082840312156120e5576120e4611a73565b5b60006120f3848285016120ba565b91505092915050565b7f496e76616c696420746f6b656e206f72207265636f7264000000000000000000600082015250565b6000612132601783611d69565b915061213d826120fc565b602082019050919050565b6000602082019050818103600083015261216181612125565b9050919050565b600060408201905061217d6000830185611c08565b61218a6020830184611adb565b9392505050565b7f596f752063616e6e6f74206372656174652064696c7574696f6e20726571756560008201527f7374000000000000000000000000000000000000000000000000000000000000602082015250565b60006121ed602283611d69565b91506121f882612191565b604082019050919050565b6000602082019050818103600083015261221c816121e0565b9050919050565b600061222e82611a78565b915061223983611a78565b9250827fffffffffffffffffffffffffffffffffffffffffffffffffffffffffffffffff0382111561226e5761226d611f23565b5b828201905092915050565b7f596f75206e65656420746f207761697420736f6d6574696d6520666f7220796f60008201527f7520637265617465206e65772064696c7574696f6e2072657175657374000000602082015250565b60006122d5603d83611d69565b91506122e082612279565b604082019050919050565b60006020820190508181036000830152612304816122c8565b9050919050565b600060c0820190506123206000830189611c08565b61232d6020830188611adb565b61233a6040830187611adb565b6123476060830186611adb565b6123546080830185611adb565b61236160a0830184611adb565b979650505050505050565b7f4e6f2062616c6c6f74207769746820796f757220696420697320666f756e6400600082015250565b60006123a2601f83611d69565b91506123ad8261236c565b602082019050919050565b600060208201905081810360008301526123d181612395565b9050919050565b7f566f74696e672074696d65206973206e6f74206f766572207965740000000000600082015250565b600061240e601b83611d69565b9150612419826123d8565b602082019050919050565b6000602082019050818103600083015261243d81612401565b9050919050565b7f526573756c7420616c7265616479206465636c61726564000000000000000000600082015250565b600061247a601783611d69565b915061248582612444565b602082019050919050565b600060208201905081810360008301526124a98161246d565b9050919050565b60006124bb82611a78565b91506124c683611a78565b9250817fffffffffffffffffffffffffffffffffffffffffffffffffffffffffffffffff04831182151516156124ff576124fe611f23565b5b828202905092915050565b7f4e487b7100000000000000000000000000000000000000000000000000000000600052601260045260246000fd5b600061254482611a78565b915061254f83611a78565b92508261255f5761255e61250a565b5b828204905092915050565b7f566f74696e672074696d65206973206f76657200000000000000000000000000600082015250565b60006125a0601383611d69565b91506125ab8261256a565b602082019050919050565b600060208201905081810360008301526125cf81612593565b9050919050565b7f596f75206861766520616c726561647920766f74656400000000000000000000600082015250565b600061260c601683611d69565b9150612617826125d6565b602082019050919050565b6000602082019050818103600083015261263b816125ff565b9050919050565b7f4f776e65722063616e6e6f7420766f7465000000000000000000000000000000600082015250565b6000612678601183611d69565b915061268382612642565b602082019050919050565b600060208201905081810360008301526126a78161266b565b9050919050565b7f5573657220686173206e6f7420766f7465642079657400000000000000000000600082015250565b60006126e4601683611d69565b91506126ef826126ae565b602082019050919050565b60006020820190508181036000830152612713816126d7565b905091905056fea264697066735822122068cf3aba64d88a8496137712ea776aa5ab07a6973dc023aa011cc40bbe273c0664736f6c634300080c0033",
  "immutableReferences": {},
  "source": "// SPDX-License-Identifier: MIT\npragma solidity ^0.8.0;\n\nimport \"./Voting/BaseVotingContract.sol\";\nimport \"./TreasuryContract.sol\";\nimport \"@openzeppelin/contracts/utils/Counters.sol\";\n\ncontract DilutionContract is BaseVotingContract {\n    //Event\n    // == Create\n    // == vote\n    // == result\n    //Dilution data storage\n    //Dilution mapping, id => data\n    //Dilution request creation\n    //Dilution voting\n    //Dilution result\n\n    /**\n        @dev This will contain the data for the dilution request\n        @param requester the person who has requested for token dilution\n        @param recordId This is the id of the record that is linked to this ballot \n        @param dilutionId This is the id of the dilution structure that is linked to this ballot \n        @param ballotId Id of the ballot where voting is stored\n        @param tokenId token that is to be minted\n        @param amount the amount of tokens to be minted\n        @param isPresent State of vote : true for yes and false for No\n        @param isAccepted State of vote : true for yes and false for No\n     */\n    struct DilutionRequest {\n        address requester;\n        uint256 recordId;\n        uint256 dilutionId;\n        uint256 ballotId;\n        uint256 tokenId;\n        uint256 amount;\n        bool isPresent;\n        bool isAccepted;\n    }\n\n    /**\n        @dev This is when a dilution request is created.\n        @param requester the person who has requested for token dilution\n        @param recordId This is the id of the record that is linked to this ballot \n        @param dilutionId This is the id of the dilution structure that is linked to this ballot \n        @param ballotId Id of the ballot where voting is stored\n        @param tokenId token that is to be minted\n        @param amount the amount of tokens to be minted\n     */\n    event DilutionRequestCreated(\n        address requester,\n        uint256 recordId,\n        uint256 dilutionId,\n        uint256 ballotId,\n        uint256 tokenId,\n        uint256 amount\n    );\n\n    /**\n        @dev This is when a vote is given by user.\n        @param voter Address of the voter\n        @param dilutionId This is the id of the dilution structure that is linked to this ballot \n        @param ballotId Id of the ballot where voting is stored\n        @param vote State of vote : true for yes and false for No\n     */\n    event DilutionVoting(\n        address voter,\n        uint256 dilutionId,\n        uint256 ballotId,\n        bool vote\n    );\n\n    /**\n        @dev this event is generated when result of a ballot is declared\n        @param dilutionId This is the id of dilution request\n        @param tokenId This is the id of the contribution that is linked to this ballot \n        @param ballotId this is the ballot Id for which result is declared \n        @param result this is the status of the result //either true if user won that is he received more than 66% of votes or false if user lost \n     */\n    event DilutionResult(\n        uint256 dilutionId,\n        uint256 tokenId,\n        uint256 ballotId,\n        bool result\n    );\n\n    using Counters for Counters.Counter;\n    Counters.Counter private _dilutionIds;\n\n    // This mapping contains data with respect to dilution id\n    // _dilutionId => dilutionData\n    mapping(uint256 => DilutionRequest) dilutionRequestMap;\n\n    // This mapping tracks if any request for dilution is active or not\n    // tokenId => id of the current dilution request, if 0 then there are no active dilution request\n    mapping(uint256 => uint256) public activeDilutionRequestMap;\n\n    // This mapping contains the blocknumber when last request for dilution request result of distributed\n    // tokenId => blocknumber when last dilution result was declared for this token\n    mapping(uint256 => uint256) public lastDilutionResultMap;\n\n    uint256 public REQUEST_INTERVAL;\n\n    constructor(uint8 votingInterval, uint256 requestInterval)\n        BaseVotingContract()\n    {\n        VOTING_BLOCK_PERIOD = votingInterval;\n        REQUEST_INTERVAL = requestInterval;\n    }\n\n    /**\n     * @dev This function sets the treasury Contract address\n     */\n    function setTreasuryContractAddress(address newTreasuryContractAddress)\n        external\n        _ownerOnly\n    {\n        _setTreasuryContractAddress(newTreasuryContractAddress);\n    }\n\n    /**\n     * @dev This function will create a new contribution voting ballot\n     */\n    function createDilutionRequest(\n        uint256 recordId,\n        uint256 tokenId,\n        uint256 amount\n    ) public {\n        require(\n            activeDilutionRequestMap[tokenId] == 0,\n            \"There is a pending dilution request\"\n        );\n\n        TreasuryContract treasuryContract = TreasuryContract(\n            TREASURY_CONTRACT_ADDRESS\n        );\n\n        uint256 govTokenId = treasuryContract.getCommunityTokenId(recordId);\n        uint256 commTokenId = treasuryContract.getGovernanceTokenId(recordId);\n\n        require(\n            govTokenId == tokenId || commTokenId == tokenId,\n            \"Invalid token or record\"\n        );\n\n        require(\n            treasuryContract.balanceOf(msg.sender, tokenId) > 0,\n            \"You cannot create dilution request\"\n        );\n\n        // We need to check if there were any previous request made,\n        // and if any request are made then has sufficient time passed or not.\n        // If the block number is 0 then it means that no request has been created\n        require(\n            lastDilutionResultMap[tokenId] == 0 ||\n                lastDilutionResultMap[tokenId] + REQUEST_INTERVAL <\n                block.number,\n            \"You need to wait sometime for you create new dilution request\"\n        );\n\n        _dilutionIds.increment();\n        uint256 dilutionId = _dilutionIds.current();\n        uint256 ballotId = _createVoting(true, commTokenId);\n\n        DilutionRequest memory dilutionRequest = DilutionRequest({\n            requester: msg.sender,\n            recordId: recordId,\n            dilutionId: dilutionId,\n            ballotId: ballotId,\n            tokenId: tokenId,\n            amount: amount,\n            isPresent: true,\n            isAccepted: false\n        });\n\n        emit DilutionRequestCreated({\n            requester: dilutionRequest.requester,\n            recordId: dilutionRequest.recordId,\n            dilutionId: dilutionRequest.dilutionId,\n            ballotId: dilutionRequest.ballotId,\n            tokenId: dilutionRequest.tokenId,\n            amount: dilutionRequest.amount\n        });\n\n        dilutionRequestMap[dilutionId] = dilutionRequest;\n    }\n\n    /**\n     * @dev This function is called by any user to cast vote\n     * @param dilutionId this is the id of the dilution request for which user is voting\n     * @param vote this is the state of the vote, if true than it means the vote is in favour of the ballot\n     */\n    function castVote(uint256 dilutionId, bool vote) public {\n        require(\n            dilutionRequestMap[dilutionId].isPresent == true,\n            \"Invalid dilution request id\"\n        );\n\n        emit DilutionVoting({\n            dilutionId: dilutionId,\n            ballotId: dilutionRequestMap[dilutionId].ballotId,\n            voter: msg.sender,\n            vote: vote\n        });\n\n        super._castVote(dilutionRequestMap[dilutionId].ballotId, vote);\n    }\n\n    /**\n     * @dev This function can be called from external source and also from within the contract\n     * @param dilutionId this is the id of the contribution to which the winner is to be decleared\n     */\n    function declareWinner(uint256 dilutionId) external {\n        bool result = _declareWinner(dilutionRequestMap[dilutionId].ballotId);\n\n        emit DilutionResult({\n            dilutionId: dilutionId,\n            tokenId: dilutionRequestMap[dilutionId].tokenId,\n            ballotId: dilutionRequestMap[dilutionId].ballotId,\n            result: result\n        });\n\n        if (result) {\n            //Transfer the reward amount to user\n            TreasuryContract treasuryContract = TreasuryContract(\n                TREASURY_CONTRACT_ADDRESS\n            );\n            treasuryContract.mintTokens(\n                dilutionRequestMap[dilutionId].tokenId,\n                dilutionRequestMap[dilutionId].amount\n            );\n\n            dilutionRequestMap[dilutionId].isAccepted = true;\n        } else {\n            dilutionRequestMap[dilutionId].isAccepted = false;\n        }\n        // reset the active dilution to 0\n        activeDilutionRequestMap[dilutionRequestMap[dilutionId].tokenId] = 0;\n        lastDilutionResultMap[dilutionRequestMap[dilutionId].tokenId] = block\n            .number;\n    }\n}\n",
  "sourcePath": "/Users/a1/Desktop/Office/projects/CrowdRecords/Contracts/contracts/DilutionContract.sol",
  "compiler": {
    "name": "solc",
    "version": "0.8.12+commit.f00d7308.Emscripten.clang"
  },
  "schemaVersion": "3.4.6",
  "updatedAt": "2022-08-08T09:14:59.931Z",
  "devdoc": {
    "events": {
      "DilutionRequestCreated(address,uint256,uint256,uint256,uint256,uint256)": {
        "details": "This is when a dilution request is created.",
        "params": {
          "amount": "the amount of tokens to be minted",
          "ballotId": "Id of the ballot where voting is stored",
          "dilutionId": "This is the id of the dilution structure that is linked to this ballot ",
          "recordId": "This is the id of the record that is linked to this ballot ",
          "requester": "the person who has requested for token dilution",
          "tokenId": "token that is to be minted"
        }
      },
      "DilutionResult(uint256,uint256,uint256,bool)": {
        "details": "this event is generated when result of a ballot is declared",
        "params": {
          "ballotId": "this is the ballot Id for which result is declared ",
          "dilutionId": "This is the id of dilution request",
          "result": "this is the status of the result //either true if user won that is he received more than 66% of votes or false if user lost ",
          "tokenId": "This is the id of the contribution that is linked to this ballot "
        }
      },
      "DilutionVoting(address,uint256,uint256,bool)": {
        "details": "This is when a vote is given by user.",
        "params": {
          "ballotId": "Id of the ballot where voting is stored",
          "dilutionId": "This is the id of the dilution structure that is linked to this ballot ",
          "vote": "State of vote : true for yes and false for No",
          "voter": "Address of the voter"
        }
      }
    },
    "kind": "dev",
    "methods": {
      "_handleUserTokenTransfers(address,uint256,uint256,uint256)": {
        "details": "This function will be called when either user is transferring the tokens to other account, or is receiving tokens from other tokens.",
        "params": {
          "newBalance": "this is the new balance of the user that is after the transfer",
          "previousBalance": "this is the old balance of the user",
          "user": "address of the user whose balance is being changed"
        }
      },
      "castVote(uint256,bool)": {
        "details": "This function is called by any user to cast vote",
        "params": {
          "dilutionId": "this is the id of the dilution request for which user is voting",
          "vote": "this is the state of the vote, if true than it means the vote is in favour of the ballot"
        }
      },
      "createDilutionRequest(uint256,uint256,uint256)": {
        "details": "This function will create a new contribution voting ballot"
      },
      "declareWinner(uint256)": {
        "details": "This function can be called from external source and also from within the contract",
        "params": {
          "dilutionId": "this is the id of the contribution to which the winner is to be decleared"
        }
      },
      "setTreasuryContractAddress(address)": {
        "details": "This function sets the treasury Contract address"
      }
    },
    "version": 1
  },
  "userdoc": {
    "kind": "user",
    "methods": {},
    "version": 1
  }
}