{
  "contractName": "DilutionContract",
  "abi": [
    {
      "inputs": [
        {
          "internalType": "uint8",
          "name": "votingInterval",
          "type": "uint8"
        },
        {
          "internalType": "uint256",
          "name": "requestInterval",
          "type": "uint256"
        },
        {
          "internalType": "address",
          "name": "owner",
          "type": "address"
        }
      ],
      "stateMutability": "nonpayable",
      "type": "constructor"
    },
    {
      "anonymous": false,
      "inputs": [
        {
          "indexed": false,
          "internalType": "address",
          "name": "requester",
          "type": "address"
        },
        {
          "indexed": false,
          "internalType": "uint256",
          "name": "recordId",
          "type": "uint256"
        },
        {
          "indexed": false,
          "internalType": "uint256",
          "name": "dilutionId",
          "type": "uint256"
        },
        {
          "indexed": false,
          "internalType": "uint256",
          "name": "ballotId",
          "type": "uint256"
        },
        {
          "indexed": false,
          "internalType": "uint256",
          "name": "tokenId",
          "type": "uint256"
        },
        {
          "indexed": false,
          "internalType": "uint256",
          "name": "amount",
          "type": "uint256"
        }
      ],
      "name": "DilutionRequestCreated",
      "type": "event"
    },
    {
      "anonymous": false,
      "inputs": [
        {
          "indexed": false,
          "internalType": "uint256",
          "name": "dilutionId",
          "type": "uint256"
        },
        {
          "indexed": false,
          "internalType": "uint256",
          "name": "tokenId",
          "type": "uint256"
        },
        {
          "indexed": false,
          "internalType": "uint256",
          "name": "ballotId",
          "type": "uint256"
        },
        {
          "indexed": false,
          "internalType": "bool",
          "name": "result",
          "type": "bool"
        },
        {
          "indexed": false,
          "internalType": "bool",
          "name": "minTurnOut",
          "type": "bool"
        }
      ],
      "name": "DilutionResult",
      "type": "event"
    },
    {
      "anonymous": false,
      "inputs": [
        {
          "indexed": false,
          "internalType": "address",
          "name": "voter",
          "type": "address"
        },
        {
          "indexed": false,
          "internalType": "uint256",
          "name": "dilutionId",
          "type": "uint256"
        },
        {
          "indexed": false,
          "internalType": "uint256",
          "name": "ballotId",
          "type": "uint256"
        },
        {
          "indexed": false,
          "internalType": "bool",
          "name": "vote",
          "type": "bool"
        }
      ],
      "name": "DilutionVoting",
      "type": "event"
    },
    {
      "anonymous": false,
      "inputs": [
        {
          "indexed": false,
          "internalType": "uint8",
          "name": "version",
          "type": "uint8"
        }
      ],
      "name": "Initialized",
      "type": "event"
    },
    {
      "inputs": [],
      "name": "MIN_TURNOUT_PERCENT",
      "outputs": [
        {
          "internalType": "uint256",
          "name": "",
          "type": "uint256"
        }
      ],
      "stateMutability": "view",
      "type": "function"
    },
    {
      "inputs": [],
      "name": "OWNER",
      "outputs": [
        {
          "internalType": "address",
          "name": "",
          "type": "address"
        }
      ],
      "stateMutability": "view",
      "type": "function"
    },
    {
      "inputs": [],
      "name": "REQUEST_INTERVAL",
      "outputs": [
        {
          "internalType": "uint256",
          "name": "",
          "type": "uint256"
        }
      ],
      "stateMutability": "view",
      "type": "function"
    },
    {
      "inputs": [],
      "name": "TREASURY_CONTRACT_ADDRESS",
      "outputs": [
        {
          "internalType": "address",
          "name": "",
          "type": "address"
        }
      ],
      "stateMutability": "view",
      "type": "function"
    },
    {
      "inputs": [],
      "name": "TREASURY_HUB_ADDRESS",
      "outputs": [
        {
          "internalType": "address",
          "name": "",
          "type": "address"
        }
      ],
      "stateMutability": "view",
      "type": "function"
    },
    {
      "inputs": [
        {
          "internalType": "address",
          "name": "user",
          "type": "address"
        },
        {
          "internalType": "uint256",
          "name": "tokenId",
          "type": "uint256"
        },
        {
          "internalType": "uint256",
          "name": "previousBalance",
          "type": "uint256"
        },
        {
          "internalType": "uint256",
          "name": "newBalance",
          "type": "uint256"
        }
      ],
      "name": "_handleUserTokenTransfers",
      "outputs": [],
      "stateMutability": "nonpayable",
      "type": "function"
    },
    {
      "inputs": [
        {
          "internalType": "uint256",
          "name": "",
          "type": "uint256"
        }
      ],
      "name": "activeDilutionRequestMap",
      "outputs": [
        {
          "internalType": "uint256",
          "name": "",
          "type": "uint256"
        }
      ],
      "stateMutability": "view",
      "type": "function"
    },
    {
      "inputs": [
        {
          "internalType": "uint256",
          "name": "",
          "type": "uint256"
        }
      ],
      "name": "lastDilutionResultMap",
      "outputs": [
        {
          "internalType": "uint256",
          "name": "",
          "type": "uint256"
        }
      ],
      "stateMutability": "view",
      "type": "function"
    },
    {
      "inputs": [
        {
          "internalType": "address",
          "name": "ownerAddress",
          "type": "address"
        }
      ],
      "name": "setOwnerAddress",
      "outputs": [],
      "stateMutability": "nonpayable",
      "type": "function"
    },
    {
      "inputs": [
        {
          "internalType": "uint256",
          "name": "",
          "type": "uint256"
        }
      ],
      "name": "votingMap",
      "outputs": [
        {
          "internalType": "address",
          "name": "owner",
          "type": "address"
        },
        {
          "internalType": "uint256",
          "name": "yesWeight",
          "type": "uint256"
        },
        {
          "internalType": "uint256",
          "name": "yesCount",
          "type": "uint256"
        },
        {
          "internalType": "uint256",
          "name": "noWeight",
          "type": "uint256"
        },
        {
          "internalType": "uint256",
          "name": "noCount",
          "type": "uint256"
        },
        {
          "internalType": "uint256",
          "name": "tokenId",
          "type": "uint256"
        },
        {
          "internalType": "uint256",
          "name": "votingEndBlock",
          "type": "uint256"
        },
        {
          "internalType": "bool",
          "name": "isResultDeclared",
          "type": "bool"
        },
        {
          "internalType": "bool",
          "name": "canOwnerVote",
          "type": "bool"
        },
        {
          "internalType": "bool",
          "name": "isPresent",
          "type": "bool"
        },
        {
          "internalType": "bool",
          "name": "minTurnOut",
          "type": "bool"
        },
        {
          "internalType": "bool",
          "name": "result",
          "type": "bool"
        }
      ],
      "stateMutability": "view",
      "type": "function"
    },
    {
      "inputs": [
        {
          "internalType": "address",
          "name": "newTreasuryContractAddress",
          "type": "address"
        }
      ],
      "name": "initialize",
      "outputs": [],
      "stateMutability": "nonpayable",
      "type": "function"
    },
    {
      "inputs": [
        {
          "internalType": "uint256",
          "name": "recordId",
          "type": "uint256"
        },
        {
          "internalType": "uint256",
          "name": "tokenId",
          "type": "uint256"
        },
        {
          "internalType": "uint256",
          "name": "amount",
          "type": "uint256"
        }
      ],
      "name": "createDilutionRequest",
      "outputs": [],
      "stateMutability": "nonpayable",
      "type": "function"
    },
    {
      "inputs": [
        {
          "internalType": "uint256",
          "name": "dilutionId",
          "type": "uint256"
        },
        {
          "internalType": "bool",
          "name": "vote",
          "type": "bool"
        }
      ],
      "name": "castVote",
      "outputs": [],
      "stateMutability": "nonpayable",
      "type": "function"
    },
    {
      "inputs": [
        {
          "internalType": "uint256",
          "name": "dilutionId",
          "type": "uint256"
        }
      ],
      "name": "declareWinner",
      "outputs": [],
      "stateMutability": "nonpayable",
      "type": "function"
    }
  ],
  "bytecode": "0x608060405260196001556101f460025560006006553480156200002157600080fd5b506040516200309338038062003093833981810160405281019062000047919062000187565b8080600560006101000a81548173ffffffffffffffffffffffffffffffffffffffff021916908373ffffffffffffffffffffffffffffffffffffffff160217905550508260ff1660018190555081600f81905550505050620001e3565b600080fd5b600060ff82169050919050565b620000c181620000a9565b8114620000cd57600080fd5b50565b600081519050620000e181620000b6565b92915050565b6000819050919050565b620000fc81620000e7565b81146200010857600080fd5b50565b6000815190506200011c81620000f1565b92915050565b600073ffffffffffffffffffffffffffffffffffffffff82169050919050565b60006200014f8262000122565b9050919050565b620001618162000142565b81146200016d57600080fd5b50565b600081519050620001818162000156565b92915050565b600080600060608486031215620001a357620001a2620000a4565b5b6000620001b386828701620000d0565b9350506020620001c6868287016200010b565b9250506040620001d98682870162000170565b9150509250925092565b612ea080620001f36000396000f3fe608060405234801561001057600080fd5b50600436106100e95760003560e01c80638d2ae1f71161008c578063c4d66de811610066578063c4d66de814610241578063c64f89591461025d578063c6a1b51f1461028d578063ef0dee04146102a9576100e9565b80638d2ae1f7146101e9578063abb7ed7f14610207578063acb3149314610223576100e9565b806315373e3d116100c857806315373e3d14610158578063331a6bf51461017457806333e0ea2e1461019057806363e249c1146101ae576100e9565b8062c2943c146100ee578063117803e31461010a5780631498c81214610128575b600080fd5b61010860048036038101906101039190612048565b6102c7565b005b6101126104e5565b60405161011f91906120b6565b60405180910390f35b610142600480360381019061013d9190612048565b61050b565b60405161014f91906120e0565b60405180910390f35b610172600480360381019061016d9190612133565b610523565b005b61018e6004803603810190610189919061219f565b610604565b005b6101986106d8565b6040516101a591906120e0565b60405180910390f35b6101c860048036038101906101c39190612048565b6106de565b6040516101e09c9b9a999897969594939291906121db565b60405180910390f35b6101f161079f565b6040516101fe91906120b6565b60405180910390f35b610221600480360381019061021c9190612295565b6107c5565b005b61022b6109be565b60405161023891906120b6565b60405180910390f35b61025b6004803603810190610256919061219f565b6109e4565b005b61027760048036038101906102729190612048565b610bb4565b60405161028491906120e0565b60405180910390f35b6102a760048036038101906102a291906122fc565b610bcc565b005b6102b1611083565b6040516102be91906120e0565b60405180910390f35b6000806102e9600c600085815260200190815260200160002060030154611089565b915091507f98dcce17b337dff96fcc22a1e082df59d1beb8b2291b23b2a099690c8d8ac8e283600c600086815260200190815260200160002060040154600c600087815260200190815260200160002060030154858560405161035095949392919061234f565b60405180910390a18115610453576000600360009054906101000a900473ffffffffffffffffffffffffffffffffffffffff1690508073ffffffffffffffffffffffffffffffffffffffff166334a7c2e7600c600087815260200190815260200160002060040154600c6000888152602001908152602001600020600501546040518363ffffffff1660e01b81526004016103ec9291906123a2565b600060405180830381600087803b15801561040657600080fd5b505af115801561041a573d6000803e3d6000fd5b505050506001600c600086815260200190815260200160002060060160016101000a81548160ff02191690831515021790555050610483565b6000600c600085815260200190815260200160002060060160016101000a81548160ff0219169083151502179055505b6000600d6000600c60008781526020019081526020016000206004015481526020019081526020016000208190555043600e6000600c600087815260200190815260200160002060040154815260200190815260200160002081905550505050565b600560009054906101000a900473ffffffffffffffffffffffffffffffffffffffff1681565b600d6020528060005260406000206000915090505481565b60011515600c600084815260200190815260200160002060060160009054906101000a900460ff1615151461058d576040517f08c379a000000000000000000000000000000000000000000000000000000000815260040161058490612428565b60405180910390fd5b7fb2f0729497891f6d2fee9abd4a73081173d57e638f38ea17e919746a57020e1e3383600c600086815260200190815260200160002060030154846040516105d89493929190612448565b60405180910390a1610600600c60008481526020019081526020016000206003015482611495565b5050565b600560009054906101000a900473ffffffffffffffffffffffffffffffffffffffff1673ffffffffffffffffffffffffffffffffffffffff163373ffffffffffffffffffffffffffffffffffffffff1614610694576040517f08c379a000000000000000000000000000000000000000000000000000000000815260040161068b906124ff565b60405180910390fd5b80600560006101000a81548173ffffffffffffffffffffffffffffffffffffffff021916908373ffffffffffffffffffffffffffffffffffffffff16021790555050565b60025481565b60076020528060005260406000206000915090508060000160009054906101000a900473ffffffffffffffffffffffffffffffffffffffff16908060010154908060020154908060030154908060040154908060050154908060060154908060070160009054906101000a900460ff16908060070160019054906101000a900460ff16908060070160029054906101000a900460ff16908060070160039054906101000a900460ff16908060070160049054906101000a900460ff1690508c565b600460009054906101000a900473ffffffffffffffffffffffffffffffffffffffff1681565b6000600a60008673ffffffffffffffffffffffffffffffffffffffff1673ffffffffffffffffffffffffffffffffffffffff168152602001908152602001600020905060005b81805490508110156109b65760011515600760008484815481106108325761083161251f565b5b9060005260206000200154815260200190815260200160002060070160009054906101000a900460ff161515148061089c5750436007600084848154811061087d5761087c61251f565b5b9060005260206000200154815260200190815260200160002060060154105b1561093d5781600183805490506108b3919061257d565b815481106108c4576108c361251f565b5b90600052602060002001548282815481106108e2576108e161251f565b5b906000526020600020018190555081805480610901576109006125b1565b5b6001900381819060005260206000200160009055905560008114156109295760009050610938565b8080610934906125e0565b9150505b6109a3565b600760008383815481106109545761095361251f565b5b90600052602060002001548152602001908152602001600020600501548514156109a2576109a182828154811061098e5761098d61251f565b5b9060005260206000200154878686611788565b5b5b80806109ae9061260a565b91505061080b565b505050505050565b600360009054906101000a900473ffffffffffffffffffffffffffffffffffffffff1681565b60008060019054906101000a900460ff16159050808015610a155750600160008054906101000a900460ff1660ff16105b80610a425750610a2430611955565b158015610a415750600160008054906101000a900460ff1660ff16145b5b610a81576040517f08c379a0000000000000000000000000000000000000000000000000000000008152600401610a78906126c5565b60405180910390fd5b60016000806101000a81548160ff021916908360ff1602179055508015610abe576001600060016101000a81548160ff0219169083151502179055505b600560009054906101000a900473ffffffffffffffffffffffffffffffffffffffff1673ffffffffffffffffffffffffffffffffffffffff163373ffffffffffffffffffffffffffffffffffffffff1614610b4e576040517f08c379a0000000000000000000000000000000000000000000000000000000008152600401610b45906124ff565b60405180910390fd5b610b5782611978565b8015610bb05760008060016101000a81548160ff0219169083151502179055507f7f26b83ff96e1f2b6a682f133852f6798a09c465da95921460cefb38474024986001604051610ba79190612737565b60405180910390a15b5050565b600e6020528060005260406000206000915090505481565b6000600d60008481526020019081526020016000205414610c22576040517f08c379a0000000000000000000000000000000000000000000000000000000008152600401610c19906127c4565b60405180910390fd5b6000600360009054906101000a900473ffffffffffffffffffffffffffffffffffffffff16905060008173ffffffffffffffffffffffffffffffffffffffff16632d4a0382866040518263ffffffff1660e01b8152600401610c8491906120e0565b602060405180830381865afa158015610ca1573d6000803e3d6000fd5b505050506040513d601f19601f82011682018060405250810190610cc591906127f9565b905060008273ffffffffffffffffffffffffffffffffffffffff1663d6ca40a7876040518263ffffffff1660e01b8152600401610d0291906120e0565b602060405180830381865afa158015610d1f573d6000803e3d6000fd5b505050506040513d601f19601f82011682018060405250810190610d4391906127f9565b905084811480610d5257508482145b610d91576040517f08c379a0000000000000000000000000000000000000000000000000000000008152600401610d8890612872565b60405180910390fd5b60008373ffffffffffffffffffffffffffffffffffffffff1662fdd58e33886040518363ffffffff1660e01b8152600401610dcd929190612892565b602060405180830381865afa158015610dea573d6000803e3d6000fd5b505050506040513d601f19601f82011682018060405250810190610e0e91906127f9565b11610e4e576040517f08c379a0000000000000000000000000000000000000000000000000000000008152600401610e4590612907565b60405180910390fd5b6000600e6000878152602001908152602001600020541480610e8f575043600f54600e600088815260200190815260200160002054610e8d9190612927565b105b610ece576040517f08c379a0000000000000000000000000000000000000000000000000000000008152600401610ec5906129ef565b60405180910390fd5b610ed8600b611a0b565b6000610ee4600b611a21565b90506000610ef3600185611a2f565b905060006040518061010001604052803373ffffffffffffffffffffffffffffffffffffffff1681526020018a81526020018481526020018381526020018981526020018881526020016001151581526020016000151581525090507f1376b246b2110f58fc4ef260841ba0590f4a29c76faca70e92d08f27aca131a8816000015182602001518360400151846060015185608001518660a00151604051610fa096959493929190612a0f565b60405180910390a180600c600085815260200190815260200160002060008201518160000160006101000a81548173ffffffffffffffffffffffffffffffffffffffff021916908373ffffffffffffffffffffffffffffffffffffffff1602179055506020820151816001015560408201518160020155606082015181600301556080820151816004015560a0820151816005015560c08201518160060160006101000a81548160ff02191690831515021790555060e08201518160060160016101000a81548160ff021916908315150217905550905050505050505050505050565b600f5481565b600080600115156007600085815260200190815260200160002060070160029054906101000a900460ff161515146110f6576040517f08c379a00000000000000000000000000000000000000000000000000000000081526004016110ed90612abc565b60405180910390fd5b4360076000858152602001908152602001600020600601541061114e576040517f08c379a000000000000000000000000000000000000000000000000000000000815260040161114590612b28565b60405180910390fd5b600015156007600085815260200190815260200160002060070160009054906101000a900460ff161515146111b8576040517f08c379a00000000000000000000000000000000000000000000000000000000081526004016111af90612b94565b60405180910390fd5b60006007600085815260200190815260200160002090506000816001015490506000826003015490506000600360009054906101000a900473ffffffffffffffffffffffffffffffffffffffff16905060016007600089815260200190815260200160002060070160006101000a81548160ff02191690831515021790555060008173ffffffffffffffffffffffffffffffffffffffff1663036c22ad86600501546040518263ffffffff1660e01b815260040161127691906120e0565b602060405180830381865afa158015611293573d6000803e3d6000fd5b505050506040513d601f19601f820116820180604052508101906112b791906127f9565b90506000606480600254846112cc9190612bb4565b6112d69190612c3d565b6112e09190612c3d565b90508085856112ef9190612927565b11156114245760008511156113e25760006064604286886113109190612927565b61131a9190612bb4565b6113249190612c3d565b90506001600760008c815260200190815260200160002060070160036101000a81548160ff0219169083151502179055508086111561139f576000600760008c815260200190815260200160002060070160046101000a81548160ff0219169083151502179055506001809850985050505050505050611490565b6000600760008c815260200190815260200160002060070160046101000a81548160ff021916908315150217905550600060019850985050505050505050611490565b6000600760008b815260200190815260200160002060070160046101000a81548160ff0219169083151502179055506000600197509750505050505050611490565b6000600760008b815260200190815260200160002060070160036101000a81548160ff0219169083151502179055506000600760008b815260200190815260200160002060070160046101000a81548160ff021916908315150217905550600080975097505050505050505b915091565b8133600115156007600084815260200190815260200160002060070160029054906101000a900460ff16151514611501576040517f08c379a00000000000000000000000000000000000000000000000000000000081526004016114f890612abc565b60405180910390fd5b43600760008481526020019081526020016000206006015411611559576040517f08c379a000000000000000000000000000000000000000000000000000000000815260040161155090612b28565b60405180910390fd5b600015156008600084815260200190815260200160002060008373ffffffffffffffffffffffffffffffffffffffff1673ffffffffffffffffffffffffffffffffffffffff16815260200190815260200160002060009054906101000a900460ff161515146115fd576040517f08c379a00000000000000000000000000000000000000000000000000000000081526004016115f490612cba565b60405180910390fd5b836007600082815260200190815260200160002060070160019054906101000a900460ff16156116d057600015156008600083815260200190815260200160002060003273ffffffffffffffffffffffffffffffffffffffff1673ffffffffffffffffffffffffffffffffffffffff16815260200190815260200160002060009054906101000a900460ff161515146116cb576040517f08c379a00000000000000000000000000000000000000000000000000000000081526004016116c290612cba565b60405180910390fd5b611776565b6007600082815260200190815260200160002060000160009054906101000a900473ffffffffffffffffffffffffffffffffffffffff1673ffffffffffffffffffffffffffffffffffffffff163273ffffffffffffffffffffffffffffffffffffffff161415611775576040517f08c379a000000000000000000000000000000000000000000000000000000000815260040161176c90612d26565b60405180910390fd5b5b611781858532611c20565b5050505050565b600115156008600086815260200190815260200160002060008573ffffffffffffffffffffffffffffffffffffffff1673ffffffffffffffffffffffffffffffffffffffff16815260200190815260200160002060009054906101000a900460ff1615151461182c576040517f08c379a000000000000000000000000000000000000000000000000000000000815260040161182390612db8565b60405180910390fd5b60006009600086815260200190815260200160002060008573ffffffffffffffffffffffffffffffffffffffff1673ffffffffffffffffffffffffffffffffffffffff16815260200190815260200160002060009054906101000a900460ff16905080156118f357826007600087815260200190815260200160002060010160008282546118ba919061257d565b92505081905550816007600087815260200190815260200160002060010160008282546118e79190612927565b9250508190555061194e565b82600760008781526020019081526020016000206003016000828254611919919061257d565b92505081905550816007600087815260200190815260200160002060030160008282546119469190612927565b925050819055505b5050505050565b6000808273ffffffffffffffffffffffffffffffffffffffff163b119050919050565b600060019054906101000a900460ff166119c7576040517f08c379a00000000000000000000000000000000000000000000000000000000081526004016119be90612e4a565b60405180910390fd5b80600360006101000a81548173ffffffffffffffffffffffffffffffffffffffff021916908373ffffffffffffffffffffffffffffffffffffffff16021790555050565b6001816000016000828254019250508190555050565b600081600001549050919050565b600060066000815480929190611a449061260a565b919050555060006040518061018001604052803273ffffffffffffffffffffffffffffffffffffffff1681526020016000815260200160008152602001600081526020016000815260200184815260200160015443611aa39190612927565b815260200160001515815260200185151581526020016001151581526020016000151581526020016000151581525090508060076000600654815260200190815260200160002060008201518160000160006101000a81548173ffffffffffffffffffffffffffffffffffffffff021916908373ffffffffffffffffffffffffffffffffffffffff1602179055506020820151816001015560408201518160020155606082015181600301556080820151816004015560a0820151816005015560c0820151816006015560e08201518160070160006101000a81548160ff0219169083151502179055506101008201518160070160016101000a81548160ff0219169083151502179055506101208201518160070160026101000a81548160ff0219169083151502179055506101408201518160070160036101000a81548160ff0219169083151502179055506101608201518160070160046101000a81548160ff02191690831515021790555090505060065491505092915050565b6000600360009054906101000a900473ffffffffffffffffffffffffffffffffffffffff169050600060076000868152602001908152602001600020604051806101800160405290816000820160009054906101000a900473ffffffffffffffffffffffffffffffffffffffff1673ffffffffffffffffffffffffffffffffffffffff1673ffffffffffffffffffffffffffffffffffffffff1681526020016001820154815260200160028201548152602001600382015481526020016004820154815260200160058201548152602001600682015481526020016007820160009054906101000a900460ff161515151581526020016007820160019054906101000a900460ff161515151581526020016007820160029054906101000a900460ff161515151581526020016007820160039054906101000a900460ff161515151581526020016007820160049054906101000a900460ff161515151581525050905060008273ffffffffffffffffffffffffffffffffffffffff1662fdd58e858460a001516040518363ffffffff1660e01b8152600401611dc3929190612892565b602060405180830381865afa158015611de0573d6000803e3d6000fd5b505050506040513d601f19601f82011682018060405250810190611e0491906127f9565b90508415611e6c5780600760008881526020019081526020016000206001016000828254611e329190612927565b925050819055506001600760008881526020019081526020016000206002016000828254611e609190612927565b92505081905550611ec8565b80600760008881526020019081526020016000206003016000828254611e929190612927565b925050819055506001600760008881526020019081526020016000206004016000828254611ec09190612927565b925050819055505b60016008600088815260200190815260200160002060008673ffffffffffffffffffffffffffffffffffffffff1673ffffffffffffffffffffffffffffffffffffffff16815260200190815260200160002060006101000a81548160ff021916908315150217905550846009600088815260200190815260200160002060008673ffffffffffffffffffffffffffffffffffffffff1673ffffffffffffffffffffffffffffffffffffffff16815260200190815260200160002060006101000a81548160ff0219169083151502179055506000600a60008673ffffffffffffffffffffffffffffffffffffffff1673ffffffffffffffffffffffffffffffffffffffff16815260200190815260200160002090508087908060018154018082558091505060019003906000526020600020016000909190919091505550505050505050565b600080fd5b6000819050919050565b61202581612012565b811461203057600080fd5b50565b6000813590506120428161201c565b92915050565b60006020828403121561205e5761205d61200d565b5b600061206c84828501612033565b91505092915050565b600073ffffffffffffffffffffffffffffffffffffffff82169050919050565b60006120a082612075565b9050919050565b6120b081612095565b82525050565b60006020820190506120cb60008301846120a7565b92915050565b6120da81612012565b82525050565b60006020820190506120f560008301846120d1565b92915050565b60008115159050919050565b612110816120fb565b811461211b57600080fd5b50565b60008135905061212d81612107565b92915050565b6000806040838503121561214a5761214961200d565b5b600061215885828601612033565b92505060206121698582860161211e565b9150509250929050565b61217c81612095565b811461218757600080fd5b50565b60008135905061219981612173565b92915050565b6000602082840312156121b5576121b461200d565b5b60006121c38482850161218a565b91505092915050565b6121d5816120fb565b82525050565b6000610180820190506121f1600083018f6120a7565b6121fe602083018e6120d1565b61220b604083018d6120d1565b612218606083018c6120d1565b612225608083018b6120d1565b61223260a083018a6120d1565b61223f60c08301896120d1565b61224c60e08301886121cc565b61225a6101008301876121cc565b6122686101208301866121cc565b6122766101408301856121cc565b6122846101608301846121cc565b9d9c50505050505050505050505050565b600080600080608085870312156122af576122ae61200d565b5b60006122bd8782880161218a565b94505060206122ce87828801612033565b93505060406122df87828801612033565b92505060606122f087828801612033565b91505092959194509250565b6000806000606084860312156123155761231461200d565b5b600061232386828701612033565b935050602061233486828701612033565b925050604061234586828701612033565b9150509250925092565b600060a08201905061236460008301886120d1565b61237160208301876120d1565b61237e60408301866120d1565b61238b60608301856121cc565b61239860808301846121cc565b9695505050505050565b60006040820190506123b760008301856120d1565b6123c460208301846120d1565b9392505050565b600082825260208201905092915050565b7f494e56414c49443a20494e56414c49445f44494c5554694f4e5f494400000000600082015250565b6000612412601c836123cb565b915061241d826123dc565b602082019050919050565b6000602082019050818103600083015261244181612405565b9050919050565b600060808201905061245d60008301876120a7565b61246a60208301866120d1565b61247760408301856120d1565b61248460608301846121cc565b95945050505050565b7f554e415554484f52495a45443a2043414e4e4f545f504552464f524d5f41435460008201527f494f4e0000000000000000000000000000000000000000000000000000000000602082015250565b60006124e96023836123cb565b91506124f48261248d565b604082019050919050565b60006020820190508181036000830152612518816124dc565b9050919050565b7f4e487b7100000000000000000000000000000000000000000000000000000000600052603260045260246000fd5b7f4e487b7100000000000000000000000000000000000000000000000000000000600052601160045260246000fd5b600061258882612012565b915061259383612012565b9250828210156125a6576125a561254e565b5b828203905092915050565b7f4e487b7100000000000000000000000000000000000000000000000000000000600052603160045260246000fd5b60006125eb82612012565b915060008214156125ff576125fe61254e565b5b600182039050919050565b600061261582612012565b91507fffffffffffffffffffffffffffffffffffffffffffffffffffffffffffffffff8214156126485761264761254e565b5b600182019050919050565b7f496e697469616c697a61626c653a20636f6e747261637420697320616c72656160008201527f647920696e697469616c697a6564000000000000000000000000000000000000602082015250565b60006126af602e836123cb565b91506126ba82612653565b604082019050919050565b600060208201905081810360008301526126de816126a2565b9050919050565b6000819050919050565b600060ff82169050919050565b6000819050919050565b600061272161271c612717846126e5565b6126fc565b6126ef565b9050919050565b61273181612706565b82525050565b600060208201905061274c6000830184612728565b92915050565b7f494e56414c49443a2050454e44494e475f44494c5554494f4e5f52455155455360008201527f5400000000000000000000000000000000000000000000000000000000000000602082015250565b60006127ae6021836123cb565b91506127b982612752565b604082019050919050565b600060208201905081810360008301526127dd816127a1565b9050919050565b6000815190506127f38161201c565b92915050565b60006020828403121561280f5761280e61200d565b5b600061281d848285016127e4565b91505092915050565b7f494e56414c49443a20544f4b454e5f4f525f5245434f52440000000000000000600082015250565b600061285c6018836123cb565b915061286782612826565b602082019050919050565b6000602082019050818103600083015261288b8161284f565b9050919050565b60006040820190506128a760008301856120a7565b6128b460208301846120d1565b9392505050565b7f494e56414c49443a204e4f5f544f4b454e535f464f554e440000000000000000600082015250565b60006128f16018836123cb565b91506128fc826128bb565b602082019050919050565b60006020820190508181036000830152612920816128e4565b9050919050565b600061293282612012565b915061293d83612012565b9250827fffffffffffffffffffffffffffffffffffffffffffffffffffffffffffffffff038211156129725761297161254e565b5b828201905092915050565b7f494e56414c49443a20574149545f534f4d4554494d455f4245464f52455f4e4560008201527f575f44494c5554494f4e5f524551554553540000000000000000000000000000602082015250565b60006129d96032836123cb565b91506129e48261297d565b604082019050919050565b60006020820190508181036000830152612a08816129cc565b9050919050565b600060c082019050612a2460008301896120a7565b612a3160208301886120d1565b612a3e60408301876120d1565b612a4b60608301866120d1565b612a5860808301856120d1565b612a6560a08301846120d1565b979650505050505050565b7f494e56414c49443a2042414c4c4f545f4e4f545f464f554e4400000000000000600082015250565b6000612aa66019836123cb565b9150612ab182612a70565b602082019050919050565b60006020820190508181036000830152612ad581612a99565b9050919050565b7f494e56414c49443a20564f54494e475f54494d455f4f56455200000000000000600082015250565b6000612b126019836123cb565b9150612b1d82612adc565b602082019050919050565b60006020820190508181036000830152612b4181612b05565b9050919050565b7f494e56414c49443a20524553554c545f414c52454144595f4445434c41524544600082015250565b6000612b7e6020836123cb565b9150612b8982612b48565b602082019050919050565b60006020820190508181036000830152612bad81612b71565b9050919050565b6000612bbf82612012565b9150612bca83612012565b9250817fffffffffffffffffffffffffffffffffffffffffffffffffffffffffffffffff0483118215151615612c0357612c0261254e565b5b828202905092915050565b7f4e487b7100000000000000000000000000000000000000000000000000000000600052601260045260246000fd5b6000612c4882612012565b9150612c5383612012565b925082612c6357612c62612c0e565b5b828204905092915050565b7f494e56414c49443a20414c52454144595f564f54454400000000000000000000600082015250565b6000612ca46016836123cb565b9150612caf82612c6e565b602082019050919050565b60006020820190508181036000830152612cd381612c97565b9050919050565b7f554e415554484f52495a45443a204f574e45525f43414e4e4f545f564f544500600082015250565b6000612d10601f836123cb565b9150612d1b82612cda565b602082019050919050565b60006020820190508181036000830152612d3f81612d03565b9050919050565b7f494e56414c49443a20494e5445524e414c3a20555345525f4841535f4e4f545f60008201527f564f544544000000000000000000000000000000000000000000000000000000602082015250565b6000612da26025836123cb565b9150612dad82612d46565b604082019050919050565b60006020820190508181036000830152612dd181612d95565b9050919050565b7f496e697469616c697a61626c653a20636f6e7472616374206973206e6f74206960008201527f6e697469616c697a696e67000000000000000000000000000000000000000000602082015250565b6000612e34602b836123cb565b9150612e3f82612dd8565b604082019050919050565b60006020820190508181036000830152612e6381612e27565b905091905056fea2646970667358221220a2d09d15238d25069bd40a63b4094486c20ce856d42047783a029e143d071ad264736f6c634300080c0033",
  "immutableReferences": {},
  "source": "// SPDX-License-Identifier: MIT\npragma solidity ^0.8.0;\n\nimport \"./Voting/BaseVotingContract.sol\";\nimport \"./interface/ITreasury.sol\";\nimport \"@openzeppelin/contracts/utils/Counters.sol\";\n\ncontract DilutionContract is BaseVotingContract {\n    /// @dev This will contain the data for the dilution request\n    /// @param requester the person who has requested for token dilution\n    /// @param recordId This is the id of the record that is linked to this ballot\n    /// @param dilutionId This is the id of the dilution structure that is linked to this ballot\n    /// @param ballotId Id of the ballot where voting is stored\n    /// @param tokenId token that is to be minted\n    /// @param amount the amount of tokens to be minted\n    /// @param isPresent this is to check if the dilution request is present or not\n    /// @param isAccepted this denotes the status of the request that is if the request was accepted or rejected\n    struct DilutionRequest {\n        address requester;\n        uint256 recordId;\n        uint256 dilutionId;\n        uint256 ballotId;\n        uint256 tokenId;\n        uint256 amount;\n        bool isPresent;\n        bool isAccepted;\n    }\n\n    /// @dev This is when a dilution request is created.\n    /// @param requester the person who has requested for token dilution\n    /// @param recordId This is the id of the record that is linked to this ballot\n    /// @param dilutionId This is the id of the dilution structure that is linked to this ballot\n    /// @param ballotId Id of the ballot where voting is stored\n    /// @param tokenId token that is to be minted\n    /// @param amount the amount of tokens to be minted\n    event DilutionRequestCreated(\n        address requester,\n        uint256 recordId,\n        uint256 dilutionId,\n        uint256 ballotId,\n        uint256 tokenId,\n        uint256 amount\n    );\n\n    /// @dev This is when a vote is given by user.\n    /// @param voter Address of the voter\n    /// @param dilutionId This is the id of the dilution structure that is linked to this ballot\n    /// @param ballotId Id of the ballot where voting is stored\n    /// @param vote State of vote : true for yes and false for No\n    event DilutionVoting(\n        address voter,\n        uint256 dilutionId,\n        uint256 ballotId,\n        bool vote\n    );\n\n    /// @dev this event is generated when result of a ballot is declared\n    /// @param dilutionId This is the id of dilution request\n    /// @param tokenId This is the id of the contribution that is linked to this ballot\n    /// @param ballotId this is the ballot Id for which result is declared\n    /// @param result this is the status of the result,\n    /// @param minTurnOut this status indicates if minimum amount of user showed up for voting\n    /// either true if user won that is he received more than 66% of votes or false if user lost\n    event DilutionResult(\n        uint256 dilutionId,\n        uint256 tokenId,\n        uint256 ballotId,\n        bool result,\n        bool minTurnOut\n    );\n\n    using Counters for Counters.Counter;\n    Counters.Counter private _dilutionIds;\n\n    // This mapping contains data with respect to dilution id\n    // _dilutionId => dilutionData\n    mapping(uint256 => DilutionRequest) dilutionRequestMap;\n\n    // This mapping tracks if any request for dilution is active or not\n    // tokenId => id of the current dilution request, if 0 then there are no active dilution request\n    mapping(uint256 => uint256) public activeDilutionRequestMap;\n\n    // This mapping contains the blocknumber when last request for dilution request result of distributed\n    // tokenId => blocknumber when last dilution result was declared for this token\n    mapping(uint256 => uint256) public lastDilutionResultMap;\n\n    uint256 public REQUEST_INTERVAL;\n\n    constructor(\n        uint8 votingInterval,\n        uint256 requestInterval,\n        address owner\n    ) BaseVotingContract(owner) {\n        VOTING_BLOCK_PERIOD = votingInterval;\n        REQUEST_INTERVAL = requestInterval;\n    }\n\n    /// @dev This is to set the address of the contracts\n    /// @param newTreasuryContractAddress This is the address of new treasury contract\n    function initialize(address newTreasuryContractAddress)\n        public\n        override\n        initializer\n        _ownerOnly\n    {\n        BaseVotingContract.initialize(newTreasuryContractAddress);\n    }\n\n    /// @dev This function will create a new contribution voting ballot\n    /// @param recordId this is the id of the record whose dilution request is to be created\n    /// @param tokenId the token that needs to be diluted\n    /// @param amount the amount to be diluted\n    function createDilutionRequest(\n        uint256 recordId,\n        uint256 tokenId,\n        uint256 amount\n    ) public {\n        require(\n            activeDilutionRequestMap[tokenId] == 0,\n            \"INVALID: PENDING_DILUTION_REQUEST\"\n        );\n\n        ITreasury treasuryContract = ITreasury(TREASURY_CONTRACT_ADDRESS);\n\n        uint256 commTokenId = treasuryContract.getCommunityTokenId(recordId);\n        uint256 govTokenId = treasuryContract.getGovernanceTokenId(recordId);\n\n        require(\n            govTokenId == tokenId || commTokenId == tokenId,\n            \"INVALID: TOKEN_OR_RECORD\"\n        );\n\n        require(\n            treasuryContract.balanceOf(msg.sender, tokenId) > 0,\n            \"INVALID: NO_TOKENS_FOUND\"\n        );\n\n        // We need to check if there were any previous request made,\n        // and if any request are made then has sufficient time passed or not.\n        // If the block number is 0 then it means that no request has been created\n        // err: You need to wait sometime for you create new dilution request\n        require(\n            lastDilutionResultMap[tokenId] == 0 ||\n                lastDilutionResultMap[tokenId] + REQUEST_INTERVAL <\n                block.number,\n            \"INVALID: WAIT_SOMETIME_BEFORE_NEW_DILUTION_REQUEST\"\n        );\n\n        _dilutionIds.increment();\n        uint256 dilutionId = _dilutionIds.current();\n        uint256 ballotId = _createVoting(true, commTokenId);\n\n        DilutionRequest memory dilutionRequest = DilutionRequest({\n            requester: msg.sender,\n            recordId: recordId,\n            dilutionId: dilutionId,\n            ballotId: ballotId,\n            tokenId: tokenId,\n            amount: amount,\n            isPresent: true,\n            isAccepted: false\n        });\n\n        emit DilutionRequestCreated({\n            requester: dilutionRequest.requester,\n            recordId: dilutionRequest.recordId,\n            dilutionId: dilutionRequest.dilutionId,\n            ballotId: dilutionRequest.ballotId,\n            tokenId: dilutionRequest.tokenId,\n            amount: dilutionRequest.amount\n        });\n\n        dilutionRequestMap[dilutionId] = dilutionRequest;\n    }\n\n    /// @dev This function is called by any user to cast vote\n    /// @param dilutionId this is the id of the dilution request for which user is voting\n    /// @param vote this is the state of the vote, if true than it means the vote is in favour of the ballot\n    function castVote(uint256 dilutionId, bool vote) public {\n        require(\n            dilutionRequestMap[dilutionId].isPresent == true,\n            \"INVALID: INVALID_DILUTiON_ID\"\n        );\n\n        emit DilutionVoting({\n            dilutionId: dilutionId,\n            ballotId: dilutionRequestMap[dilutionId].ballotId,\n            voter: msg.sender,\n            vote: vote\n        });\n\n        super._castVote(dilutionRequestMap[dilutionId].ballotId, vote);\n    }\n\n    /// @dev This function can be called from external source and also from within the contract\n    /// @param dilutionId this is the id of the contribution to which the winner is to be decleared\n    function declareWinner(uint256 dilutionId) external {\n        (bool result, bool minTurnOut) = _declareWinner(\n            dilutionRequestMap[dilutionId].ballotId\n        );\n\n        emit DilutionResult({\n            dilutionId: dilutionId,\n            tokenId: dilutionRequestMap[dilutionId].tokenId,\n            ballotId: dilutionRequestMap[dilutionId].ballotId,\n            result: result,\n            minTurnOut: minTurnOut\n        });\n\n        if (result) {\n            //Transfer the reward amount to user\n            ITreasury treasuryContract = ITreasury(TREASURY_CONTRACT_ADDRESS);\n            treasuryContract.mintTokens(\n                dilutionRequestMap[dilutionId].tokenId,\n                dilutionRequestMap[dilutionId].amount\n            );\n\n            dilutionRequestMap[dilutionId].isAccepted = true;\n        } else {\n            dilutionRequestMap[dilutionId].isAccepted = false;\n        }\n        // reset the active dilution to 0\n        activeDilutionRequestMap[dilutionRequestMap[dilutionId].tokenId] = 0;\n        lastDilutionResultMap[dilutionRequestMap[dilutionId].tokenId] = block\n            .number;\n    }\n}\n",
  "sourcePath": "/Users/a1/Desktop/Office/projects/CrowdRecords/Contracts/contracts/DilutionContract.sol",
  "compiler": {
    "name": "solc",
    "version": "0.8.12+commit.f00d7308.Emscripten.clang"
  },
  "schemaVersion": "3.4.6",
  "updatedAt": "2022-10-19T09:06:06.677Z",
  "devdoc": {
    "events": {
      "DilutionRequestCreated(address,uint256,uint256,uint256,uint256,uint256)": {
        "details": "This is when a dilution request is created.",
        "params": {
          "amount": "the amount of tokens to be minted",
          "ballotId": "Id of the ballot where voting is stored",
          "dilutionId": "This is the id of the dilution structure that is linked to this ballot",
          "recordId": "This is the id of the record that is linked to this ballot",
          "requester": "the person who has requested for token dilution",
          "tokenId": "token that is to be minted"
        }
      },
      "DilutionResult(uint256,uint256,uint256,bool,bool)": {
        "details": "this event is generated when result of a ballot is declared",
        "params": {
          "ballotId": "this is the ballot Id for which result is declared",
          "dilutionId": "This is the id of dilution request",
          "minTurnOut": "this status indicates if minimum amount of user showed up for voting either true if user won that is he received more than 66% of votes or false if user lost",
          "result": "this is the status of the result,",
          "tokenId": "This is the id of the contribution that is linked to this ballot"
        }
      },
      "DilutionVoting(address,uint256,uint256,bool)": {
        "details": "This is when a vote is given by user.",
        "params": {
          "ballotId": "Id of the ballot where voting is stored",
          "dilutionId": "This is the id of the dilution structure that is linked to this ballot",
          "vote": "State of vote : true for yes and false for No",
          "voter": "Address of the voter"
        }
      }
    },
    "kind": "dev",
    "methods": {
      "_handleUserTokenTransfers(address,uint256,uint256,uint256)": {
        "details": "This function will be called when either user is transferring the tokens to other account, or is receiving tokens from other tokens.",
        "params": {
          "newBalance": "this is the new balance of the user that is after the transfer",
          "previousBalance": "this is the old balance of the user",
          "user": "address of the user whose balance is being changed"
        }
      },
      "castVote(uint256,bool)": {
        "details": "This function is called by any user to cast vote",
        "params": {
          "dilutionId": "this is the id of the dilution request for which user is voting",
          "vote": "this is the state of the vote, if true than it means the vote is in favour of the ballot"
        }
      },
      "createDilutionRequest(uint256,uint256,uint256)": {
        "details": "This function will create a new contribution voting ballot",
        "params": {
          "amount": "the amount to be diluted",
          "recordId": "this is the id of the record whose dilution request is to be created",
          "tokenId": "the token that needs to be diluted"
        }
      },
      "declareWinner(uint256)": {
        "details": "This function can be called from external source and also from within the contract",
        "params": {
          "dilutionId": "this is the id of the contribution to which the winner is to be decleared"
        }
      },
      "initialize(address)": {
        "details": "This is to set the address of the contracts",
        "params": {
          "newTreasuryContractAddress": "This is the address of new treasury contract"
        }
      },
      "setOwnerAddress(address)": {
        "details": "This function sets the owner address",
        "params": {
          "ownerAddress": "This is the address of the owner"
        }
      }
    },
    "version": 1
  },
  "userdoc": {
    "kind": "user",
    "methods": {},
    "version": 1
  }
}