{
  "contractName": "DilutionContract",
  "abi": [
    {
      "inputs": [
        {
          "internalType": "uint8",
          "name": "votingInterval",
          "type": "uint8"
        },
        {
          "internalType": "uint256",
          "name": "requestInterval",
          "type": "uint256"
        },
        {
          "internalType": "address",
          "name": "owner",
          "type": "address"
        }
      ],
      "stateMutability": "nonpayable",
      "type": "constructor"
    },
    {
      "anonymous": false,
      "inputs": [
        {
          "indexed": false,
          "internalType": "uint256",
          "name": "value",
          "type": "uint256"
        }
      ],
      "name": "DEBUG",
      "type": "event"
    },
    {
      "anonymous": false,
      "inputs": [
        {
          "indexed": false,
          "internalType": "address",
          "name": "owner",
          "type": "address"
        },
        {
          "indexed": false,
          "internalType": "uint256",
          "name": "ballotId",
          "type": "uint256"
        },
        {
          "indexed": false,
          "internalType": "uint256",
          "name": "depositAmount",
          "type": "uint256"
        }
      ],
      "name": "DepositClaimed",
      "type": "event"
    },
    {
      "anonymous": false,
      "inputs": [
        {
          "indexed": false,
          "internalType": "address",
          "name": "owner",
          "type": "address"
        },
        {
          "indexed": false,
          "internalType": "uint256",
          "name": "ballotId",
          "type": "uint256"
        },
        {
          "indexed": false,
          "internalType": "uint256",
          "name": "depositAmount",
          "type": "uint256"
        },
        {
          "indexed": false,
          "internalType": "bool",
          "name": "isClaimed",
          "type": "bool"
        },
        {
          "indexed": false,
          "internalType": "bool",
          "name": "isPresent",
          "type": "bool"
        }
      ],
      "name": "DepositCreated",
      "type": "event"
    },
    {
      "anonymous": false,
      "inputs": [
        {
          "indexed": false,
          "internalType": "address",
          "name": "requester",
          "type": "address"
        },
        {
          "indexed": false,
          "internalType": "uint256",
          "name": "recordId",
          "type": "uint256"
        },
        {
          "indexed": false,
          "internalType": "uint256",
          "name": "dilutionId",
          "type": "uint256"
        },
        {
          "indexed": false,
          "internalType": "uint256",
          "name": "ballotId",
          "type": "uint256"
        },
        {
          "indexed": false,
          "internalType": "uint256",
          "name": "tokenId",
          "type": "uint256"
        },
        {
          "indexed": false,
          "internalType": "uint256",
          "name": "amount",
          "type": "uint256"
        }
      ],
      "name": "DilutionRequestCreated",
      "type": "event"
    },
    {
      "anonymous": false,
      "inputs": [
        {
          "indexed": false,
          "internalType": "uint256",
          "name": "dilutionId",
          "type": "uint256"
        },
        {
          "indexed": false,
          "internalType": "uint256",
          "name": "tokenId",
          "type": "uint256"
        },
        {
          "indexed": false,
          "internalType": "uint256",
          "name": "ballotId",
          "type": "uint256"
        },
        {
          "indexed": false,
          "internalType": "bool",
          "name": "result",
          "type": "bool"
        },
        {
          "indexed": false,
          "internalType": "bool",
          "name": "minTurnOut",
          "type": "bool"
        }
      ],
      "name": "DilutionResult",
      "type": "event"
    },
    {
      "anonymous": false,
      "inputs": [
        {
          "indexed": false,
          "internalType": "address",
          "name": "voter",
          "type": "address"
        },
        {
          "indexed": false,
          "internalType": "uint256",
          "name": "dilutionId",
          "type": "uint256"
        },
        {
          "indexed": false,
          "internalType": "uint256",
          "name": "ballotId",
          "type": "uint256"
        },
        {
          "indexed": false,
          "internalType": "bool",
          "name": "vote",
          "type": "bool"
        }
      ],
      "name": "DilutionVoting",
      "type": "event"
    },
    {
      "anonymous": false,
      "inputs": [
        {
          "indexed": false,
          "internalType": "uint8",
          "name": "version",
          "type": "uint8"
        }
      ],
      "name": "Initialized",
      "type": "event"
    },
    {
      "inputs": [],
      "name": "GOVERNANCE",
      "outputs": [
        {
          "internalType": "address",
          "name": "",
          "type": "address"
        }
      ],
      "stateMutability": "view",
      "type": "function",
      "constant": true
    },
    {
      "inputs": [],
      "name": "MIN_TURNOUT_PERCENT",
      "outputs": [
        {
          "internalType": "uint256",
          "name": "",
          "type": "uint256"
        }
      ],
      "stateMutability": "view",
      "type": "function",
      "constant": true
    },
    {
      "inputs": [],
      "name": "OWNER",
      "outputs": [
        {
          "internalType": "address",
          "name": "",
          "type": "address"
        }
      ],
      "stateMutability": "view",
      "type": "function",
      "constant": true
    },
    {
      "inputs": [],
      "name": "REQUEST_INTERVAL",
      "outputs": [
        {
          "internalType": "uint256",
          "name": "",
          "type": "uint256"
        }
      ],
      "stateMutability": "view",
      "type": "function",
      "constant": true
    },
    {
      "inputs": [],
      "name": "TREASURY_CONTRACT_ADDRESS",
      "outputs": [
        {
          "internalType": "address",
          "name": "",
          "type": "address"
        }
      ],
      "stateMutability": "view",
      "type": "function",
      "constant": true
    },
    {
      "inputs": [],
      "name": "TREASURY_HUB_ADDRESS",
      "outputs": [
        {
          "internalType": "address",
          "name": "",
          "type": "address"
        }
      ],
      "stateMutability": "view",
      "type": "function",
      "constant": true
    },
    {
      "inputs": [],
      "name": "VOTING_BLOCK_PERIOD",
      "outputs": [
        {
          "internalType": "uint256",
          "name": "",
          "type": "uint256"
        }
      ],
      "stateMutability": "view",
      "type": "function",
      "constant": true
    },
    {
      "inputs": [],
      "name": "VOTING_DEPOSIT",
      "outputs": [
        {
          "internalType": "uint256",
          "name": "",
          "type": "uint256"
        }
      ],
      "stateMutability": "view",
      "type": "function",
      "constant": true
    },
    {
      "inputs": [
        {
          "internalType": "address",
          "name": "user",
          "type": "address"
        },
        {
          "internalType": "uint256",
          "name": "tokenId",
          "type": "uint256"
        },
        {
          "internalType": "uint256",
          "name": "previousBalance",
          "type": "uint256"
        },
        {
          "internalType": "uint256",
          "name": "newBalance",
          "type": "uint256"
        }
      ],
      "name": "_handleUserTokenTransfers",
      "outputs": [],
      "stateMutability": "nonpayable",
      "type": "function"
    },
    {
      "inputs": [
        {
          "internalType": "uint256",
          "name": "",
          "type": "uint256"
        }
      ],
      "name": "activeDilutionRequestMap",
      "outputs": [
        {
          "internalType": "uint256",
          "name": "",
          "type": "uint256"
        }
      ],
      "stateMutability": "view",
      "type": "function",
      "constant": true
    },
    {
      "inputs": [
        {
          "internalType": "uint256",
          "name": "",
          "type": "uint256"
        }
      ],
      "name": "depositMap",
      "outputs": [
        {
          "internalType": "address",
          "name": "owner",
          "type": "address"
        },
        {
          "internalType": "uint256",
          "name": "ballotId",
          "type": "uint256"
        },
        {
          "internalType": "uint256",
          "name": "depositAmount",
          "type": "uint256"
        },
        {
          "internalType": "bool",
          "name": "isClaimed",
          "type": "bool"
        },
        {
          "internalType": "bool",
          "name": "isPresent",
          "type": "bool"
        }
      ],
      "stateMutability": "view",
      "type": "function",
      "constant": true
    },
    {
      "inputs": [
        {
          "internalType": "uint256",
          "name": "",
          "type": "uint256"
        }
      ],
      "name": "lastDilutionResultMap",
      "outputs": [
        {
          "internalType": "uint256",
          "name": "",
          "type": "uint256"
        }
      ],
      "stateMutability": "view",
      "type": "function",
      "constant": true
    },
    {
      "inputs": [
        {
          "internalType": "uint256",
          "name": "depositAmount",
          "type": "uint256"
        }
      ],
      "name": "setDepositAmount",
      "outputs": [],
      "stateMutability": "nonpayable",
      "type": "function"
    },
    {
      "inputs": [
        {
          "internalType": "uint256",
          "name": "minTurnOut",
          "type": "uint256"
        }
      ],
      "name": "setMinTurnOut",
      "outputs": [],
      "stateMutability": "nonpayable",
      "type": "function"
    },
    {
      "inputs": [
        {
          "internalType": "address",
          "name": "ownerAddress",
          "type": "address"
        }
      ],
      "name": "setOwnerAddress",
      "outputs": [],
      "stateMutability": "nonpayable",
      "type": "function"
    },
    {
      "inputs": [
        {
          "internalType": "uint256",
          "name": "votingPeriod",
          "type": "uint256"
        }
      ],
      "name": "setVotingPeriod",
      "outputs": [],
      "stateMutability": "nonpayable",
      "type": "function"
    },
    {
      "inputs": [],
      "name": "treasuryContract",
      "outputs": [
        {
          "internalType": "contract ITreasury",
          "name": "",
          "type": "address"
        }
      ],
      "stateMutability": "view",
      "type": "function",
      "constant": true
    },
    {
      "inputs": [
        {
          "internalType": "uint256",
          "name": "",
          "type": "uint256"
        }
      ],
      "name": "votingMap",
      "outputs": [
        {
          "internalType": "address",
          "name": "owner",
          "type": "address"
        },
        {
          "internalType": "uint256",
          "name": "yesWeight",
          "type": "uint256"
        },
        {
          "internalType": "uint256",
          "name": "yesCount",
          "type": "uint256"
        },
        {
          "internalType": "uint256",
          "name": "noWeight",
          "type": "uint256"
        },
        {
          "internalType": "uint256",
          "name": "noCount",
          "type": "uint256"
        },
        {
          "internalType": "uint256",
          "name": "tokenId",
          "type": "uint256"
        },
        {
          "internalType": "uint256",
          "name": "votingEndBlock",
          "type": "uint256"
        },
        {
          "internalType": "bool",
          "name": "isResultDeclared",
          "type": "bool"
        },
        {
          "internalType": "bool",
          "name": "canOwnerVote",
          "type": "bool"
        },
        {
          "internalType": "bool",
          "name": "isPresent",
          "type": "bool"
        }
      ],
      "stateMutability": "view",
      "type": "function",
      "constant": true
    },
    {
      "inputs": [
        {
          "internalType": "address",
          "name": "newTreasuryContractAddress",
          "type": "address"
        },
        {
          "internalType": "address",
          "name": "newGovernanceContractAddress",
          "type": "address"
        }
      ],
      "name": "initialize",
      "outputs": [],
      "stateMutability": "nonpayable",
      "type": "function"
    },
    {
      "inputs": [
        {
          "internalType": "uint256",
          "name": "recordId",
          "type": "uint256"
        },
        {
          "internalType": "uint256",
          "name": "tokenId",
          "type": "uint256"
        },
        {
          "internalType": "uint256",
          "name": "amount",
          "type": "uint256"
        }
      ],
      "name": "createDilutionRequest",
      "outputs": [],
      "stateMutability": "payable",
      "type": "function",
      "payable": true
    },
    {
      "inputs": [
        {
          "internalType": "uint256",
          "name": "dilutionId",
          "type": "uint256"
        },
        {
          "internalType": "bool",
          "name": "vote",
          "type": "bool"
        }
      ],
      "name": "castVote",
      "outputs": [],
      "stateMutability": "nonpayable",
      "type": "function"
    },
    {
      "inputs": [
        {
          "internalType": "uint256",
          "name": "dilutionId",
          "type": "uint256"
        }
      ],
      "name": "declareWinner",
      "outputs": [],
      "stateMutability": "nonpayable",
      "type": "function"
    }
  ],
  "bytecode": "0x6080604052670de0b6b3a764000060015560196002556101f460035560006009553480156200002d57600080fd5b5060405162002a3c38038062002a3c833981016040819052620000509162000082565b600780546001600160a01b039092166001600160a01b031990921691909117905560ff909116600255601355620000da565b6000806000606084860312156200009857600080fd5b835160ff81168114620000aa57600080fd5b6020850151604086015191945092506001600160a01b0381168114620000cf57600080fd5b809150509250925092565b61295280620000ea6000396000f3fe6080604052600436106101745760003560e01c80636d8cee56116100cb578063acb314931161007f578063e1f2e08411610059578063e1f2e0841461059d578063ea0217cf146105bd578063ef0dee04146105dd57600080fd5b8063acb3149314610530578063c64f89591461055d578063c6a1b51f1461058a57600080fd5b8063879253a3116100b0578063879253a3146104cd5780638d2ae1f7146104e3578063abb7ed7f1461051057600080fd5b80636d8cee561461040557806383b0b0711461042557600080fd5b806318da00111161012d578063485cc95511610107578063485cc955146102dd57806363e249c1146102fd5780636c83244a146103ef57600080fd5b806318da00111461027a578063331a6bf5146102a757806333e0ea2e146102c757600080fd5b8063146278341161015e57806314627834146101f25780631498c8121461021f57806315373e3d1461025a57600080fd5b8062c2943c14610179578063117803e31461019b575b600080fd5b34801561018557600080fd5b50610199610194366004612630565b6105f3565b005b3480156101a757600080fd5b506007546101c89073ffffffffffffffffffffffffffffffffffffffff1681565b60405173ffffffffffffffffffffffffffffffffffffffff90911681526020015b60405180910390f35b3480156101fe57600080fd5b506008546101c89073ffffffffffffffffffffffffffffffffffffffff1681565b34801561022b57600080fd5b5061024c61023a366004612630565b60116020526000908152604090205481565b6040519081526020016101e9565b34801561026657600080fd5b50610199610275366004612649565b6107e9565b34801561028657600080fd5b506005546101c89073ffffffffffffffffffffffffffffffffffffffff1681565b3480156102b357600080fd5b506101996102c23660046126a7565b6108e7565b3480156102d357600080fd5b5061024c60035481565b3480156102e957600080fd5b506101996102f83660046126c9565b6109d5565b34801561030957600080fd5b50610388610318366004612630565b600a602052600090815260409020805460018201546002830154600384015460048501546005860154600687015460079097015473ffffffffffffffffffffffffffffffffffffffff909616969495939492939192909160ff80821691610100810482169162010000909104168a565b6040805173ffffffffffffffffffffffffffffffffffffffff909b168b5260208b0199909952978901969096526060880194909452608087019290925260a086015260c0850152151560e084015215156101008301521515610120820152610140016101e9565b3480156103fb57600080fd5b5061024c60025481565b34801561041157600080fd5b50610199610420366004612630565b610c12565b34801561043157600080fd5b5061048a610440366004612630565b600d60205260009081526040902080546001820154600283015460039093015473ffffffffffffffffffffffffffffffffffffffff90921692909160ff8082169161010090041685565b6040805173ffffffffffffffffffffffffffffffffffffffff9096168652602086019490945292840191909152151560608301521515608082015260a0016101e9565b3480156104d957600080fd5b5061024c60015481565b3480156104ef57600080fd5b506006546101c89073ffffffffffffffffffffffffffffffffffffffff1681565b34801561051c57600080fd5b5061019961052b3660046126fc565b610c98565b34801561053c57600080fd5b506004546101c89073ffffffffffffffffffffffffffffffffffffffff1681565b34801561056957600080fd5b5061024c610578366004612630565b60126020526000908152604090205481565b610199610598366004612735565b610e56565b3480156105a957600080fd5b506101996105b8366004612630565b611417565b3480156105c957600080fd5b506101996105d8366004612630565b61149d565b3480156105e957600080fd5b5061024c60135481565b600081815260106020526040812060030154819061061090611523565b600085815260106020526040902060030154919350915061063090611841565b6000838152601060209081526040918290206004810154600390910154835187815292830191909152818301528315156060820152821515608082015290517f98dcce17b337dff96fcc22a1e082df59d1beb8b2291b23b2a099690c8d8ac8e29181900360a00190a1811561077e576005805460008581526010602052604090819020600480820154919094015491517f34a7c2e700000000000000000000000000000000000000000000000000000000815293840152602483015273ffffffffffffffffffffffffffffffffffffffff16906334a7c2e790604401600060405180830381600087803b15801561072657600080fd5b505af115801561073a573d6000803e3d6000fd5b505050600084815260106020526040902060060180547fffffffffffffffffffffffffffffffffffffffffffffffffffffffffffff00ff16610100179055506107b6565b600083815260106020526040902060060180547fffffffffffffffffffffffffffffffffffffffffffffffffffffffffffff00ff1690555b50506000908152601060209081526040808320600401805484526011835281842084905554835260129091529020439055565b60008281526010602052604090206006015460ff16151560011461086e576040517f08c379a000000000000000000000000000000000000000000000000000000000815260206004820152601c60248201527f494e56414c49443a20494e56414c49445f44494c5554694f4e5f49440000000060448201526064015b60405180910390fd5b60008281526010602090815260409182902060030154825133815291820185905281830152821515606082015290517fb2f0729497891f6d2fee9abd4a73081173d57e638f38ea17e919746a57020e1e9181900360800190a16000828152601060205260409020600301546108e39082611a8f565b5050565b60075473ffffffffffffffffffffffffffffffffffffffff16331461098e576040517f08c379a000000000000000000000000000000000000000000000000000000000815260206004820152602360248201527f554e415554484f52495a45443a2043414e4e4f545f504552464f524d5f41435460448201527f494f4e00000000000000000000000000000000000000000000000000000000006064820152608401610865565b600780547fffffffffffffffffffffffff00000000000000000000000000000000000000001673ffffffffffffffffffffffffffffffffffffffff92909216919091179055565b600054610100900460ff16158080156109f55750600054600160ff909116105b80610a0f5750303b158015610a0f575060005460ff166001145b610a9b576040517f08c379a000000000000000000000000000000000000000000000000000000000815260206004820152602e60248201527f496e697469616c697a61626c653a20636f6e747261637420697320616c72656160448201527f647920696e697469616c697a65640000000000000000000000000000000000006064820152608401610865565b600080547fffffffffffffffffffffffffffffffffffffffffffffffffffffffffffffff001660011790558015610af957600080547fffffffffffffffffffffffffffffffffffffffffffffffffffffffffffff00ff166101001790555b60075473ffffffffffffffffffffffffffffffffffffffff163314610ba0576040517f08c379a000000000000000000000000000000000000000000000000000000000815260206004820152602360248201527f554e415554484f52495a45443a2043414e4e4f545f504552464f524d5f41435460448201527f494f4e00000000000000000000000000000000000000000000000000000000006064820152608401610865565b610baa8383611d77565b8015610c0d57600080547fffffffffffffffffffffffffffffffffffffffffffffffffffffffffffff00ff169055604051600181527f7f26b83ff96e1f2b6a682f133852f6798a09c465da95921460cefb38474024989060200160405180910390a15b505050565b60085473ffffffffffffffffffffffffffffffffffffffff163314610c93576040517f08c379a000000000000000000000000000000000000000000000000000000000815260206004820152601d60248201527f554e415554484f52495a45443a204f4e4c595f474f5645524e414e43450000006044820152606401610865565b600155565b73ffffffffffffffffffffffffffffffffffffffff84166000908152600e60205260408120905b8154811015610e4e57600a6000838381548110610cde57610cde612761565b6000918252602080832090910154835282019290925260400190206007015460ff16151560011480610d41575043600a6000848481548110610d2257610d22612761565b9060005260206000200154815260200190815260200160002060060154105b15610dda5781548290610d56906001906127bf565b81548110610d6657610d66612761565b9060005260206000200154828281548110610d8357610d83612761565b906000526020600020018190555081805480610da157610da16127d6565b600190038181906000526020600020016000905590558060001415610dc857506000610e3c565b80610dd281612805565b915050610e3c565b600a6000838381548110610df057610df0612761565b9060005260206000200154815260200190815260200160002060050154851415610e3c57610e3c828281548110610e2957610e29612761565b9060005260206000200154878686611e6e565b80610e468161283a565b915050610cbf565b505050505050565b60008281526011602052604090205415610ef2576040517f08c379a000000000000000000000000000000000000000000000000000000000815260206004820152602160248201527f494e56414c49443a2050454e44494e475f44494c5554494f4e5f52455155455360448201527f54000000000000000000000000000000000000000000000000000000000000006064820152608401610865565b6005546040517f2d4a03820000000000000000000000000000000000000000000000000000000081526004810185905260009173ffffffffffffffffffffffffffffffffffffffff1690632d4a038290602401602060405180830381865afa158015610f62573d6000803e3d6000fd5b505050506040513d601f19601f82011682018060405250810190610f869190612873565b6005546040517fd6ca40a70000000000000000000000000000000000000000000000000000000081526004810187905291925060009173ffffffffffffffffffffffffffffffffffffffff9091169063d6ca40a790602401602060405180830381865afa158015610ffb573d6000803e3d6000fd5b505050506040513d601f19601f8201168201806040525081019061101f9190612873565b90508381148061102e57508382145b611094576040517f08c379a000000000000000000000000000000000000000000000000000000000815260206004820152601860248201527f494e56414c49443a20544f4b454e5f4f525f5245434f524400000000000000006044820152606401610865565b6005546040517efdd58e0000000000000000000000000000000000000000000000000000000081523360048201526024810186905260009173ffffffffffffffffffffffffffffffffffffffff169062fdd58e90604401602060405180830381865afa158015611108573d6000803e3d6000fd5b505050506040513d601f19601f8201168201806040525081019061112c9190612873565b11611193576040517f08c379a000000000000000000000000000000000000000000000000000000000815260206004820152601860248201527f494e56414c49443a204e4f5f544f4b454e535f464f554e4400000000000000006044820152606401610865565b60008481526012602052604090205415806111c8575060135460008581526012602052604090205443916111c69161288c565b105b611254576040517f08c379a000000000000000000000000000000000000000000000000000000000815260206004820152603260248201527f494e56414c49443a20574149545f534f4d4554494d455f4245464f52455f4e4560448201527f575f44494c5554494f4e5f5245515545535400000000000000000000000000006064820152608401610865565b611262600f80546001019055565b600061126d600f5490565b9050600061127c600185612010565b90506112893234836121d5565b60408051610100810182523380825260208083018b9052828401869052606080840186905260808085018c905260a08086018c9052600160c080880191909152600060e088015287519586529385018e905295840188905290830186905282018a905292810188905290917f1376b246b2110f58fc4ef260841ba0590f4a29c76faca70e92d08f27aca131a8910160405180910390a1600092835260106020908152604093849020825181547fffffffffffffffffffffffff00000000000000000000000000000000000000001673ffffffffffffffffffffffffffffffffffffffff909116178155908201516001820155928101516002840155606081015160038401556080810151600484015560a0810151600584015560c08101516006909301805460e0909201517fffffffffffffffffffffffffffffffffffffffffffffffffffffffffffff00009092169315157fffffffffffffffffffffffffffffffffffffffffffffffffffffffffffff00ff16939093176101009115159190910217909155505050505050565b60085473ffffffffffffffffffffffffffffffffffffffff163314611498576040517f08c379a000000000000000000000000000000000000000000000000000000000815260206004820152601d60248201527f554e415554484f52495a45443a204f4e4c595f474f5645524e414e43450000006044820152606401610865565b600355565b60085473ffffffffffffffffffffffffffffffffffffffff16331461151e576040517f08c379a000000000000000000000000000000000000000000000000000000000815260206004820152601d60248201527f554e415554484f52495a45443a204f4e4c595f474f5645524e414e43450000006044820152606401610865565b600255565b6000818152600a6020526040812060070154819062010000900460ff1615156001146115ab576040517f08c379a000000000000000000000000000000000000000000000000000000000815260206004820152601960248201527f494e56414c49443a2042414c4c4f545f4e4f545f464f554e44000000000000006044820152606401610865565b6000838152600a60205260409020600601544311611625576040517f08c379a000000000000000000000000000000000000000000000000000000000815260206004820152601d60248201527f494e56414c49443a20564f54494e475f54494d455f4e4f545f4f5645520000006044820152606401610865565b6000838152600a602052604090206007015460ff16156116a1576040517f08c379a000000000000000000000000000000000000000000000000000000000815260206004820181905260248201527f494e56414c49443a20524553554c545f414c52454144595f4445434c415245446044820152606401610865565b6000838152600a602052604080822060018082015460038301546007840180547fffffffffffffffffffffffffffffffffffffffffffffffffffffffffffffff0016909317909255600580549084015494517f036c22ad000000000000000000000000000000000000000000000000000000008152939591949293919273ffffffffffffffffffffffffffffffffffffffff9091169163036c22ad9161174d9160040190815260200190565b602060405180830381865afa15801561176a573d6000803e3d6000fd5b505050506040513d601f19601f8201168201806040525081019061178e9190612873565b90506000606480600354846117a391906128a4565b6117ad91906128e1565b6117b791906128e1565b9050806117c4858561288c565b111561183157831561182057600060646117de858761288c565b6117e99060426128a4565b6117f391906128e1565b90508085111561180e57506001988998509650505050505050565b50600098600198509650505050505050565b506000976001975095505050505050565b5060009788975095505050505050565b6000818152600d602052604090206003015460ff6101009091041615156001146118c7576040517f08c379a000000000000000000000000000000000000000000000000000000000815260206004820152600d60248201527f4445505f4e4f545f4558495354000000000000000000000000000000000000006044820152606401610865565b6000818152600d602052604090206003015460ff1615611943576040517f08c379a000000000000000000000000000000000000000000000000000000000815260206004820152601360248201527f4445505f414c52454144595f434c41494d4544000000000000000000000000006044820152606401610865565b6000818152600d60205260408082208054600290910154915173ffffffffffffffffffffffffffffffffffffffff90911691908381818185875af1925050503d80600081146119ae576040519150601f19603f3d011682016040523d82523d6000602084013e6119b3565b606091505b5050905080611a1e576040517f08c379a000000000000000000000000000000000000000000000000000000000815260206004820152600d60248201527f494e565f4445505f434c41494d000000000000000000000000000000000000006044820152606401610865565b6000828152600d60209081526040918290208054600290910154835173ffffffffffffffffffffffffffffffffffffffff9092168252918101859052918201527f6b1069552f63b401b74bc71e75594d0a8bc61f7a42998e0f201b78f9aa600d329060600160405180910390a15050565b6000828152600a60205260409020600701548290339062010000900460ff161515600114611b19576040517f08c379a000000000000000000000000000000000000000000000000000000000815260206004820152601960248201527f494e56414c49443a2042414c4c4f545f4e4f545f464f554e44000000000000006044820152606401610865565b6000828152600a60205260409020600601544310611b93576040517f08c379a000000000000000000000000000000000000000000000000000000000815260206004820152601960248201527f494e56414c49443a20564f54494e475f54494d455f4f564552000000000000006044820152606401610865565b6000828152600b6020908152604080832073ffffffffffffffffffffffffffffffffffffffff8516845290915290205460ff1615611c2d576040517f08c379a000000000000000000000000000000000000000000000000000000000815260206004820152601660248201527f494e56414c49443a20414c52454144595f564f544544000000000000000000006044820152606401610865565b6000848152600a60205260409020600701548490610100900460ff1615611cd7576000818152600b6020908152604080832032845290915290205460ff1615611cd2576040517f08c379a000000000000000000000000000000000000000000000000000000000815260206004820152601660248201527f494e56414c49443a20414c52454144595f564f544544000000000000000000006044820152606401610865565b611d65565b6000818152600a602052604090205473ffffffffffffffffffffffffffffffffffffffff16321415611d65576040517f08c379a000000000000000000000000000000000000000000000000000000000815260206004820152601f60248201527f554e415554484f52495a45443a204f574e45525f43414e4e4f545f564f5445006044820152606401610865565b611d708585326123a7565b5050505050565b600054610100900460ff16611e0e576040517f08c379a000000000000000000000000000000000000000000000000000000000815260206004820152602b60248201527f496e697469616c697a61626c653a20636f6e7472616374206973206e6f74206960448201527f6e697469616c697a696e670000000000000000000000000000000000000000006064820152608401610865565b6004805473ffffffffffffffffffffffffffffffffffffffff9384167fffffffffffffffffffffffff0000000000000000000000000000000000000000918216811790925560058054821690921790915560088054929093169116179055565b6000848152600b6020908152604080832073ffffffffffffffffffffffffffffffffffffffff8716845290915290205460ff161515600114611f32576040517f08c379a000000000000000000000000000000000000000000000000000000000815260206004820152602560248201527f494e56414c49443a20494e5445524e414c3a20555345525f4841535f4e4f545f60448201527f564f5445440000000000000000000000000000000000000000000000000000006064820152608401610865565b6000848152600c6020908152604080832073ffffffffffffffffffffffffffffffffffffffff8716845290915290205460ff168015611fbd576000858152600a602052604081206001018054859290611f8c9084906127bf565b90915550506000858152600a602052604081206001018054849290611fb290849061288c565b90915550611d709050565b6000858152600a602052604081206003018054859290611fde9084906127bf565b90915550506000858152600a60205260408120600301805484929061200490849061288c565b90915550505050505050565b60098054600091826120218361283a565b919050555060006040518061014001604052803273ffffffffffffffffffffffffffffffffffffffff1681526020016000815260200160008152602001600081526020016000815260200184815260200160025443612080919061288c565b81526000602080830182905296151560408084019190915260016060938401819052600980548452600a8a5292829020855181547fffffffffffffffffffffffff00000000000000000000000000000000000000001673ffffffffffffffffffffffffffffffffffffffff909116178155988501519089015583015160028801559082015160038701556080820151600487015560a0820151600587015560c0820151600687015560e08201516007909601805461010080850151610120909501517fffffffffffffffffffffffffffffffffffffffffffffffffffffffffffff00009092169815157fffffffffffffffffffffffffffffffffffffffffffffffffffffffffffff00ff1698909817931515909702929092177fffffffffffffffffffffffffffffffffffffffffffffffffffffffffff00ffff16620100009615159690960295909517905550509054919050565b8160015414612240576040517f08c379a000000000000000000000000000000000000000000000000000000000815260206004820152600760248201527f494e565f444550000000000000000000000000000000000000000000000000006044820152606401610865565b6040805160a0808201835273ffffffffffffffffffffffffffffffffffffffff861680835260208084018690526001805485870181905260006060808801829052608080890185905289519687529486018a9052858901929092529084015290820152925191927f58ac581930e3170185d9c86e70eceabd7254c9eee2c1df3b76e38f030645ec3d929081900390910190a16000918252600d6020908152604092839020825181547fffffffffffffffffffffffff00000000000000000000000000000000000000001673ffffffffffffffffffffffffffffffffffffffff9091161781559082015160018201559181015160028301556060810151600390920180546080909201517fffffffffffffffffffffffffffffffffffffffffffffffffffffffffffff00009092169215157fffffffffffffffffffffffffffffffffffffffffffffffffffffffffffff00ff1692909217610100911515919091021790555050565b6000838152600a60209081526040808320815161014081018352815473ffffffffffffffffffffffffffffffffffffffff908116825260018301549482019490945260028201548184015260038201546060820152600480830154608083015260058084015460a08401819052600685015460c085015260079094015460ff808216151560e08601526101008083048216151590860152620100009091041615156101208401525493517efdd58e000000000000000000000000000000000000000000000000000000008152919594939093169262fdd58e926124ad9288920173ffffffffffffffffffffffffffffffffffffffff929092168252602082015260400190565b602060405180830381865afa1580156124ca573d6000803e3d6000fd5b505050506040513d601f19601f820116820180604052508101906124ee9190612873565b90508315612549576000858152600a60205260408120600101805483929061251790849061288c565b90915550506000858152600a6020526040812060020180546001929061253e90849061288c565b909155506125979050565b6000858152600a60205260408120600301805483929061256a90849061288c565b90915550506000858152600a6020526040812060040180546001929061259190849061288c565b90915550505b50506000838152600b6020908152604080832073ffffffffffffffffffffffffffffffffffffffff94909416808452938252808320805460017fffffffffffffffffffffffffffffffffffffffffffffffffffffffffffffff009182168117909255878552600c8452828520958552948352818420805490951695151595909517909355600e8152918120805493840181558152200155565b60006020828403121561264257600080fd5b5035919050565b6000806040838503121561265c57600080fd5b823591506020830135801515811461267357600080fd5b809150509250929050565b803573ffffffffffffffffffffffffffffffffffffffff811681146126a257600080fd5b919050565b6000602082840312156126b957600080fd5b6126c28261267e565b9392505050565b600080604083850312156126dc57600080fd5b6126e58361267e565b91506126f36020840161267e565b90509250929050565b6000806000806080858703121561271257600080fd5b61271b8561267e565b966020860135965060408601359560600135945092505050565b60008060006060848603121561274a57600080fd5b505081359360208301359350604090920135919050565b7f4e487b7100000000000000000000000000000000000000000000000000000000600052603260045260246000fd5b7f4e487b7100000000000000000000000000000000000000000000000000000000600052601160045260246000fd5b6000828210156127d1576127d1612790565b500390565b7f4e487b7100000000000000000000000000000000000000000000000000000000600052603160045260246000fd5b60008161281457612814612790565b507fffffffffffffffffffffffffffffffffffffffffffffffffffffffffffffffff0190565b60007fffffffffffffffffffffffffffffffffffffffffffffffffffffffffffffffff82141561286c5761286c612790565b5060010190565b60006020828403121561288557600080fd5b5051919050565b6000821982111561289f5761289f612790565b500190565b6000817fffffffffffffffffffffffffffffffffffffffffffffffffffffffffffffffff04831182151516156128dc576128dc612790565b500290565b600082612917577f4e487b7100000000000000000000000000000000000000000000000000000000600052601260045260246000fd5b50049056fea264697066735822122070d8f2098dc5c529f7d1fca35ee2fd85e07d06a6d73abe9f7312c336826384f264736f6c634300080c0033",
  "immutableReferences": {},
  "source": "// SPDX-License-Identifier: MIT\npragma solidity ^0.8.0;\n\nimport \"./Voting/BaseVotingContract.sol\";\nimport \"@openzeppelin/contracts/utils/Counters.sol\";\n\ncontract DilutionContract is BaseVotingContract {\n    /// @dev This will contain the data for the dilution request\n    /// @param requester the person who has requested for token dilution\n    /// @param recordId This is the id of the record that is linked to this ballot\n    /// @param dilutionId This is the id of the dilution structure that is linked to this ballot\n    /// @param ballotId Id of the ballot where voting is stored\n    /// @param tokenId token that is to be minted\n    /// @param amount the amount of tokens to be minted\n    /// @param isPresent this is to check if the dilution request is present or not\n    /// @param isAccepted this denotes the status of the request that is if the request was accepted or rejected\n    struct DilutionRequest {\n        address requester;\n        uint256 recordId;\n        uint256 dilutionId;\n        uint256 ballotId;\n        uint256 tokenId;\n        uint256 amount;\n        bool isPresent;\n        bool isAccepted;\n    }\n\n    /// @dev This is when a dilution request is created.\n    /// @param requester the person who has requested for token dilution\n    /// @param recordId This is the id of the record that is linked to this ballot\n    /// @param dilutionId This is the id of the dilution structure that is linked to this ballot\n    /// @param ballotId Id of the ballot where voting is stored\n    /// @param tokenId token that is to be minted\n    /// @param amount the amount of tokens to be minted\n    event DilutionRequestCreated(\n        address requester,\n        uint256 recordId,\n        uint256 dilutionId,\n        uint256 ballotId,\n        uint256 tokenId,\n        uint256 amount\n    );\n\n    /// @dev This is when a vote is given by user.\n    /// @param voter Address of the voter\n    /// @param dilutionId This is the id of the dilution structure that is linked to this ballot\n    /// @param ballotId Id of the ballot where voting is stored\n    /// @param vote State of vote : true for yes and false for No\n    event DilutionVoting(\n        address voter,\n        uint256 dilutionId,\n        uint256 ballotId,\n        bool vote\n    );\n\n    /// @dev this event is generated when result of a ballot is declared\n    /// @param dilutionId This is the id of dilution request\n    /// @param tokenId This is the id of the contribution that is linked to this ballot\n    /// @param ballotId this is the ballot Id for which result is declared\n    /// @param result this is the status of the result,\n    /// @param minTurnOut this status indicates if minimum amount of user showed up for voting\n    /// either true if user won that is he received more than 66% of votes or false if user lost\n    event DilutionResult(\n        uint256 dilutionId,\n        uint256 tokenId,\n        uint256 ballotId,\n        bool result,\n        bool minTurnOut\n    );\n\n    using Counters for Counters.Counter;\n    Counters.Counter private _dilutionIds;\n\n    // This mapping contains data with respect to dilution id\n    // _dilutionId => dilutionData\n    mapping(uint256 => DilutionRequest) dilutionRequestMap;\n\n    // This mapping tracks if any request for dilution is active or not\n    // tokenId => id of the current dilution request, if 0 then there are no active dilution request\n    mapping(uint256 => uint256) public activeDilutionRequestMap;\n\n    // This mapping contains the blocknumber when last request for dilution request result of distributed\n    // tokenId => blocknumber when last dilution result was declared for this token\n    mapping(uint256 => uint256) public lastDilutionResultMap;\n\n    uint256 public REQUEST_INTERVAL;\n\n    constructor(\n        uint8 votingInterval,\n        uint256 requestInterval,\n        address owner\n    ) BaseVotingContract(owner) {\n        VOTING_BLOCK_PERIOD = votingInterval;\n        REQUEST_INTERVAL = requestInterval;\n    }\n\n    /// @dev This is to set the address of the contracts\n    /// @param newTreasuryContractAddress This is the address of new treasury contract\n    /// @param newGovernanceContractAddress This is the address for the governance contract\n    function initialize(\n        address newTreasuryContractAddress,\n        address newGovernanceContractAddress\n    ) public override initializer _ownerOnly {\n        BaseVotingContract.initialize(\n            newTreasuryContractAddress,\n            newGovernanceContractAddress\n        );\n    }\n\n    /// @dev This function will create a new contribution voting ballot\n    /// @param recordId this is the id of the record whose dilution request is to be created\n    /// @param tokenId the token that needs to be diluted\n    /// @param amount the amount to be diluted\n    function createDilutionRequest(\n        uint256 recordId,\n        uint256 tokenId,\n        uint256 amount\n    ) public payable {\n        require(\n            activeDilutionRequestMap[tokenId] == 0,\n            \"INVALID: PENDING_DILUTION_REQUEST\"\n        );\n\n        uint256 commTokenId = treasuryContract.getCommunityTokenId(recordId);\n        uint256 govTokenId = treasuryContract.getGovernanceTokenId(recordId);\n\n        require(\n            govTokenId == tokenId || commTokenId == tokenId,\n            \"INVALID: TOKEN_OR_RECORD\"\n        );\n\n        require(\n            treasuryContract.balanceOf(msg.sender, tokenId) > 0,\n            \"INVALID: NO_TOKENS_FOUND\"\n        );\n\n        // We need to check if there were any previous request made,\n        // and if any request are made then has sufficient time passed or not.\n        // If the block number is 0 then it means that no request has been created\n        // err: You need to wait sometime for you create new dilution request\n        require(\n            lastDilutionResultMap[tokenId] == 0 ||\n                lastDilutionResultMap[tokenId] + REQUEST_INTERVAL <\n                block.number,\n            \"INVALID: WAIT_SOMETIME_BEFORE_NEW_DILUTION_REQUEST\"\n        );\n\n        _dilutionIds.increment();\n        uint256 dilutionId = _dilutionIds.current();\n        uint256 ballotId = _createVoting(true, commTokenId);\n        _createDeposit(tx.origin, msg.value, ballotId);\n\n        DilutionRequest memory dilutionRequest = DilutionRequest({\n            requester: msg.sender,\n            recordId: recordId,\n            dilutionId: dilutionId,\n            ballotId: ballotId,\n            tokenId: tokenId,\n            amount: amount,\n            isPresent: true,\n            isAccepted: false\n        });\n\n        emit DilutionRequestCreated({\n            requester: dilutionRequest.requester,\n            recordId: dilutionRequest.recordId,\n            dilutionId: dilutionRequest.dilutionId,\n            ballotId: dilutionRequest.ballotId,\n            tokenId: dilutionRequest.tokenId,\n            amount: dilutionRequest.amount\n        });\n\n        dilutionRequestMap[dilutionId] = dilutionRequest;\n    }\n\n    /// @dev This function is called by any user to cast vote\n    /// @param dilutionId this is the id of the dilution request for which user is voting\n    /// @param vote this is the state of the vote, if true than it means the vote is in favour of the ballot\n    function castVote(uint256 dilutionId, bool vote) public {\n        require(\n            dilutionRequestMap[dilutionId].isPresent == true,\n            \"INVALID: INVALID_DILUTiON_ID\"\n        );\n\n        emit DilutionVoting({\n            dilutionId: dilutionId,\n            ballotId: dilutionRequestMap[dilutionId].ballotId,\n            voter: msg.sender,\n            vote: vote\n        });\n\n        super._castVote(dilutionRequestMap[dilutionId].ballotId, vote);\n    }\n\n    /// @dev This function can be called from external source and also from within the contract\n    /// @param dilutionId this is the id of the contribution to which the winner is to be decleared\n    function declareWinner(uint256 dilutionId) external {\n        (bool result, bool minTurnOut) = _declareWinner(\n            dilutionRequestMap[dilutionId].ballotId\n        );\n        _releaseDeposit(dilutionRequestMap[dilutionId].ballotId);\n\n        emit DilutionResult({\n            dilutionId: dilutionId,\n            tokenId: dilutionRequestMap[dilutionId].tokenId,\n            ballotId: dilutionRequestMap[dilutionId].ballotId,\n            result: result,\n            minTurnOut: minTurnOut\n        });\n\n        if (result) {\n            //Transfer the reward amount to user\n            treasuryContract.mintTokens(\n                dilutionRequestMap[dilutionId].tokenId,\n                dilutionRequestMap[dilutionId].amount\n            );\n\n            dilutionRequestMap[dilutionId].isAccepted = true;\n        } else {\n            dilutionRequestMap[dilutionId].isAccepted = false;\n        }\n        // reset the active dilution to 0\n        activeDilutionRequestMap[dilutionRequestMap[dilutionId].tokenId] = 0;\n        lastDilutionResultMap[dilutionRequestMap[dilutionId].tokenId] = block\n            .number;\n    }\n}\n",
  "sourcePath": "/Users/a1/Desktop/Office/projects/CrowdRecords/Contracts/contracts/DilutionContract.sol",
  "compiler": {
    "name": "solc",
    "version": "0.8.12+commit.f00d7308.Emscripten.clang"
  },
  "schemaVersion": "3.4.6",
  "updatedAt": "2023-05-19T09:50:44.487Z",
  "networkType": "ethereum",
  "devdoc": {
    "events": {
      "DilutionRequestCreated(address,uint256,uint256,uint256,uint256,uint256)": {
        "details": "This is when a dilution request is created.",
        "params": {
          "amount": "the amount of tokens to be minted",
          "ballotId": "Id of the ballot where voting is stored",
          "dilutionId": "This is the id of the dilution structure that is linked to this ballot",
          "recordId": "This is the id of the record that is linked to this ballot",
          "requester": "the person who has requested for token dilution",
          "tokenId": "token that is to be minted"
        }
      },
      "DilutionResult(uint256,uint256,uint256,bool,bool)": {
        "details": "this event is generated when result of a ballot is declared",
        "params": {
          "ballotId": "this is the ballot Id for which result is declared",
          "dilutionId": "This is the id of dilution request",
          "minTurnOut": "this status indicates if minimum amount of user showed up for voting either true if user won that is he received more than 66% of votes or false if user lost",
          "result": "this is the status of the result,",
          "tokenId": "This is the id of the contribution that is linked to this ballot"
        }
      },
      "DilutionVoting(address,uint256,uint256,bool)": {
        "details": "This is when a vote is given by user.",
        "params": {
          "ballotId": "Id of the ballot where voting is stored",
          "dilutionId": "This is the id of the dilution structure that is linked to this ballot",
          "vote": "State of vote : true for yes and false for No",
          "voter": "Address of the voter"
        }
      }
    },
    "kind": "dev",
    "methods": {
      "_handleUserTokenTransfers(address,uint256,uint256,uint256)": {
        "details": "This function will be called when either user is transferring the tokens to other account, or is receiving tokens from other tokens.",
        "params": {
          "newBalance": "this is the new balance of the user that is after the transfer",
          "previousBalance": "this is the old balance of the user",
          "user": "address of the user whose balance is being changed"
        }
      },
      "castVote(uint256,bool)": {
        "details": "This function is called by any user to cast vote",
        "params": {
          "dilutionId": "this is the id of the dilution request for which user is voting",
          "vote": "this is the state of the vote, if true than it means the vote is in favour of the ballot"
        }
      },
      "createDilutionRequest(uint256,uint256,uint256)": {
        "details": "This function will create a new contribution voting ballot",
        "params": {
          "amount": "the amount to be diluted",
          "recordId": "this is the id of the record whose dilution request is to be created",
          "tokenId": "the token that needs to be diluted"
        }
      },
      "declareWinner(uint256)": {
        "details": "This function can be called from external source and also from within the contract",
        "params": {
          "dilutionId": "this is the id of the contribution to which the winner is to be decleared"
        }
      },
      "initialize(address,address)": {
        "details": "This is to set the address of the contracts",
        "params": {
          "newGovernanceContractAddress": "This is the address for the governance contract",
          "newTreasuryContractAddress": "This is the address of new treasury contract"
        }
      },
      "setDepositAmount(uint256)": {
        "details": "This function sets the VOTING_DEPOSIT percentage",
        "params": {
          "depositAmount": "This is the new deposit amount needed for creating ballot"
        }
      },
      "setMinTurnOut(uint256)": {
        "details": "This function sets the MIN_TURN_OUT percentage",
        "params": {
          "minTurnOut": "This is the new turnout percentage value"
        }
      },
      "setOwnerAddress(address)": {
        "details": "This function sets the owner address",
        "params": {
          "ownerAddress": "This is the address of the owner"
        }
      },
      "setVotingPeriod(uint256)": {
        "details": "This function sets the VOTING_BLOCK_PERIOD percentage",
        "params": {
          "votingPeriod": "This is the voting period"
        }
      }
    },
    "version": 1
  },
  "userdoc": {
    "kind": "user",
    "methods": {},
    "version": 1
  }
}