{
  "contractName": "DilutionContract",
  "abi": [
    {
      "inputs": [
        {
          "internalType": "uint8",
          "name": "votingInterval",
          "type": "uint8"
        },
        {
          "internalType": "uint256",
          "name": "requestInterval",
          "type": "uint256"
        }
      ],
      "stateMutability": "nonpayable",
      "type": "constructor"
    },
    {
      "anonymous": false,
      "inputs": [
        {
          "indexed": false,
          "internalType": "address",
          "name": "requester",
          "type": "address"
        },
        {
          "indexed": false,
          "internalType": "uint256",
          "name": "recordId",
          "type": "uint256"
        },
        {
          "indexed": false,
          "internalType": "uint256",
          "name": "dilutionId",
          "type": "uint256"
        },
        {
          "indexed": false,
          "internalType": "uint256",
          "name": "ballotId",
          "type": "uint256"
        },
        {
          "indexed": false,
          "internalType": "uint256",
          "name": "tokenId",
          "type": "uint256"
        },
        {
          "indexed": false,
          "internalType": "uint256",
          "name": "amount",
          "type": "uint256"
        }
      ],
      "name": "DilutionRequestCreated",
      "type": "event"
    },
    {
      "anonymous": false,
      "inputs": [
        {
          "indexed": false,
          "internalType": "uint256",
          "name": "dilutionId",
          "type": "uint256"
        },
        {
          "indexed": false,
          "internalType": "uint256",
          "name": "tokenId",
          "type": "uint256"
        },
        {
          "indexed": false,
          "internalType": "uint256",
          "name": "ballotId",
          "type": "uint256"
        },
        {
          "indexed": false,
          "internalType": "bool",
          "name": "result",
          "type": "bool"
        }
      ],
      "name": "DilutionResult",
      "type": "event"
    },
    {
      "anonymous": false,
      "inputs": [
        {
          "indexed": false,
          "internalType": "address",
          "name": "voter",
          "type": "address"
        },
        {
          "indexed": false,
          "internalType": "uint256",
          "name": "dilutionId",
          "type": "uint256"
        },
        {
          "indexed": false,
          "internalType": "uint256",
          "name": "ballotId",
          "type": "uint256"
        },
        {
          "indexed": false,
          "internalType": "bool",
          "name": "vote",
          "type": "bool"
        }
      ],
      "name": "DilutionVoting",
      "type": "event"
    },
    {
      "inputs": [],
      "name": "REQUEST_INTERVAL",
      "outputs": [
        {
          "internalType": "uint256",
          "name": "",
          "type": "uint256"
        }
      ],
      "stateMutability": "view",
      "type": "function",
      "constant": true
    },
    {
      "inputs": [],
      "name": "TREASURY_CONTRACT_ADDRESS",
      "outputs": [
        {
          "internalType": "address",
          "name": "",
          "type": "address"
        }
      ],
      "stateMutability": "view",
      "type": "function",
      "constant": true
    },
    {
      "inputs": [],
      "name": "TREASURY_HUB_ADDRESS",
      "outputs": [
        {
          "internalType": "address",
          "name": "",
          "type": "address"
        }
      ],
      "stateMutability": "view",
      "type": "function",
      "constant": true
    },
    {
      "inputs": [
        {
          "internalType": "address",
          "name": "user",
          "type": "address"
        },
        {
          "internalType": "uint256",
          "name": "tokenId",
          "type": "uint256"
        },
        {
          "internalType": "uint256",
          "name": "previousBalance",
          "type": "uint256"
        },
        {
          "internalType": "uint256",
          "name": "newBalance",
          "type": "uint256"
        }
      ],
      "name": "_handleUserTokenTransfers",
      "outputs": [],
      "stateMutability": "nonpayable",
      "type": "function"
    },
    {
      "inputs": [
        {
          "internalType": "uint256",
          "name": "",
          "type": "uint256"
        }
      ],
      "name": "activeDilutionRequestMap",
      "outputs": [
        {
          "internalType": "uint256",
          "name": "",
          "type": "uint256"
        }
      ],
      "stateMutability": "view",
      "type": "function",
      "constant": true
    },
    {
      "inputs": [
        {
          "internalType": "uint256",
          "name": "",
          "type": "uint256"
        }
      ],
      "name": "lastDilutionResultMap",
      "outputs": [
        {
          "internalType": "uint256",
          "name": "",
          "type": "uint256"
        }
      ],
      "stateMutability": "view",
      "type": "function",
      "constant": true
    },
    {
      "inputs": [
        {
          "internalType": "address",
          "name": "newTreasuryContractAddress",
          "type": "address"
        }
      ],
      "name": "setTreasuryContractAddress",
      "outputs": [],
      "stateMutability": "nonpayable",
      "type": "function"
    },
    {
      "inputs": [
        {
          "internalType": "uint256",
          "name": "recordId",
          "type": "uint256"
        },
        {
          "internalType": "uint256",
          "name": "tokenId",
          "type": "uint256"
        },
        {
          "internalType": "uint256",
          "name": "amount",
          "type": "uint256"
        }
      ],
      "name": "createDilutionRequest",
      "outputs": [],
      "stateMutability": "nonpayable",
      "type": "function"
    },
    {
      "inputs": [
        {
          "internalType": "uint256",
          "name": "dilutionId",
          "type": "uint256"
        },
        {
          "internalType": "bool",
          "name": "vote",
          "type": "bool"
        }
      ],
      "name": "castVote",
      "outputs": [],
      "stateMutability": "nonpayable",
      "type": "function"
    },
    {
      "inputs": [
        {
          "internalType": "uint256",
          "name": "dilutionId",
          "type": "uint256"
        }
      ],
      "name": "declareWinner",
      "outputs": [],
      "stateMutability": "nonpayable",
      "type": "function"
    }
  ],
  "bytecode": "0x6080604052601960005560006004553480156200001b57600080fd5b506040516200283038038062002830833981810160405281019062000041919062000119565b33600360006101000a81548173ffffffffffffffffffffffffffffffffffffffff021916908373ffffffffffffffffffffffffffffffffffffffff1602179055508160ff1660008190555080600d81905550505062000160565b600080fd5b600060ff82169050919050565b620000b881620000a0565b8114620000c457600080fd5b50565b600081519050620000d881620000ad565b92915050565b6000819050919050565b620000f381620000de565b8114620000ff57600080fd5b50565b6000815190506200011381620000e8565b92915050565b600080604083850312156200013357620001326200009b565b5b60006200014385828601620000c7565b9250506020620001568582860162000102565b9150509250929050565b6126c080620001706000396000f3fe608060405234801561001057600080fd5b506004361061009d5760003560e01c8063abb7ed7f11610066578063abb7ed7f14610144578063acb3149314610160578063c64f89591461017e578063c6a1b51f146101ae578063ef0dee04146101ca5761009d565b8062c2943c146100a25780631498c812146100be57806315373e3d146100ee5780634cf2d48f1461010a5780638d2ae1f714610126575b600080fd5b6100bc60048036038101906100b79190611a55565b6101e8565b005b6100d860048036038101906100d39190611a55565b610400565b6040516100e59190611a91565b60405180910390f35b61010860048036038101906101039190611ae4565b610418565b005b610124600480360381019061011f9190611b82565b6104f9565b005b61012e610595565b60405161013b9190611bbe565b60405180910390f35b61015e60048036038101906101599190611bd9565b6105bb565b005b6101686107b4565b6040516101759190611bbe565b60405180910390f35b61019860048036038101906101939190611a55565b6107da565b6040516101a59190611a91565b60405180910390f35b6101c860048036038101906101c39190611c40565b6107f2565b005b6101d2610c8b565b6040516101df9190611a91565b60405180910390f35b6000610209600a600084815260200190815260200160002060030154610c91565b90507fe8d4951422367686d087c15158382f9f42bd20d8bde62b2d252b5d1e856c1f8982600a600085815260200190815260200160002060040154600a6000868152602001908152602001600020600301548460405161026c9493929190611ca2565b60405180910390a1801561036f576000600160009054906101000a900473ffffffffffffffffffffffffffffffffffffffff1690508073ffffffffffffffffffffffffffffffffffffffff166334a7c2e7600a600086815260200190815260200160002060040154600a6000878152602001908152602001600020600501546040518363ffffffff1660e01b8152600401610308929190611ce7565b600060405180830381600087803b15801561032257600080fd5b505af1158015610336573d6000803e3d6000fd5b505050506001600a600085815260200190815260200160002060060160016101000a81548160ff0219169083151502179055505061039f565b6000600a600084815260200190815260200160002060060160016101000a81548160ff0219169083151502179055505b6000600b6000600a60008681526020019081526020016000206004015481526020019081526020016000208190555043600c6000600a6000868152602001908152602001600020600401548152602001908152602001600020819055505050565b600b6020528060005260406000206000915090505481565b60011515600a600084815260200190815260200160002060060160009054906101000a900460ff16151514610482576040517f08c379a000000000000000000000000000000000000000000000000000000000815260040161047990611d6d565b60405180910390fd5b6104a2600a60008481526020019081526020016000206003015482610f0e565b7fb2f0729497891f6d2fee9abd4a73081173d57e638f38ea17e919746a57020e1e3383600a600086815260200190815260200160002060030154846040516104ed9493929190611d8d565b60405180910390a15050565b600360009054906101000a900473ffffffffffffffffffffffffffffffffffffffff1673ffffffffffffffffffffffffffffffffffffffff163373ffffffffffffffffffffffffffffffffffffffff1614610589576040517f08c379a000000000000000000000000000000000000000000000000000000000815260040161058090611e44565b60405180910390fd5b61059281611201565b50565b600260009054906101000a900473ffffffffffffffffffffffffffffffffffffffff1681565b6000600860008673ffffffffffffffffffffffffffffffffffffffff1673ffffffffffffffffffffffffffffffffffffffff168152602001908152602001600020905060005b81805490508110156107ac57600115156005600084848154811061062857610627611e64565b5b9060005260206000200154815260200190815260200160002060070160009054906101000a900460ff16151514806106925750436005600084848154811061067357610672611e64565b5b9060005260206000200154815260200190815260200160002060060154105b156107335781600183805490506106a99190611ec2565b815481106106ba576106b9611e64565b5b90600052602060002001548282815481106106d8576106d7611e64565b5b9060005260206000200181905550818054806106f7576106f6611ef6565b5b60019003818190600052602060002001600090559055600081141561071f576000905061072e565b808061072a90611f25565b9150505b610799565b6005600083838154811061074a57610749611e64565b5b90600052602060002001548152602001908152602001600020600501548514156107985761079782828154811061078457610783611e64565b5b90600052602060002001548786866112d5565b5b5b80806107a490611f4f565b915050610601565b505050505050565b600160009054906101000a900473ffffffffffffffffffffffffffffffffffffffff1681565b600c6020528060005260406000206000915090505481565b6000600b60008481526020019081526020016000205414610848576040517f08c379a000000000000000000000000000000000000000000000000000000000815260040161083f9061200a565b60405180910390fd5b6000600160009054906101000a900473ffffffffffffffffffffffffffffffffffffffff16905060008173ffffffffffffffffffffffffffffffffffffffff16632d4a0382866040518263ffffffff1660e01b81526004016108aa9190611a91565b602060405180830381865afa1580156108c7573d6000803e3d6000fd5b505050506040513d601f19601f820116820180604052508101906108eb919061203f565b905060008273ffffffffffffffffffffffffffffffffffffffff1663d6ca40a7876040518263ffffffff1660e01b81526004016109289190611a91565b602060405180830381865afa158015610945573d6000803e3d6000fd5b505050506040513d601f19601f82011682018060405250810190610969919061203f565b90508482148061097857508481145b6109b7576040517f08c379a00000000000000000000000000000000000000000000000000000000081526004016109ae906120b8565b60405180910390fd5b60008373ffffffffffffffffffffffffffffffffffffffff1662fdd58e33886040518363ffffffff1660e01b81526004016109f39291906120d8565b602060405180830381865afa158015610a10573d6000803e3d6000fd5b505050506040513d601f19601f82011682018060405250810190610a34919061203f565b11610a74576040517f08c379a0000000000000000000000000000000000000000000000000000000008152600401610a6b90612173565b60405180910390fd5b43600d54600c600088815260200190815260200160002054610a969190612193565b10610ad6576040517f08c379a0000000000000000000000000000000000000000000000000000000008152600401610acd9061225b565b60405180910390fd5b610ae060096114a2565b6000610aec60096114b8565b90506000610afb6001846114c6565b905060006040518061010001604052803373ffffffffffffffffffffffffffffffffffffffff1681526020018a81526020018481526020018381526020018981526020018881526020016001151581526020016000151581525090507f1376b246b2110f58fc4ef260841ba0590f4a29c76faca70e92d08f27aca131a8816000015182602001518360400151846060015185608001518660a00151604051610ba89695949392919061227b565b60405180910390a180600a600085815260200190815260200160002060008201518160000160006101000a81548173ffffffffffffffffffffffffffffffffffffffff021916908373ffffffffffffffffffffffffffffffffffffffff1602179055506020820151816001015560408201518160020155606082015181600301556080820151816004015560a0820151816005015560c08201518160060160006101000a81548160ff02191690831515021790555060e08201518160060160016101000a81548160ff021916908315150217905550905050505050505050505050565b600d5481565b6000600115156005600084815260200190815260200160002060070160029054906101000a900460ff16151514610cfd576040517f08c379a0000000000000000000000000000000000000000000000000000000008152600401610cf490612328565b60405180910390fd5b43600560008481526020019081526020016000206006015410610d55576040517f08c379a0000000000000000000000000000000000000000000000000000000008152600401610d4c90612394565b60405180910390fd5b600015156005600084815260200190815260200160002060070160009054906101000a900460ff16151514610dbf576040517f08c379a0000000000000000000000000000000000000000000000000000000008152600401610db690612400565b60405180910390fd5b60006005600084815260200190815260200160002090506000816001015490506000600160009054906101000a900473ffffffffffffffffffffffffffffffffffffffff16905060016005600087815260200190815260200160002060070160006101000a81548160ff0219169083151502179055506000821115610f015760008173ffffffffffffffffffffffffffffffffffffffff1663036c22ad85600501546040518263ffffffff1660e01b8152600401610e7d9190611a91565b602060405180830381865afa158015610e9a573d6000803e3d6000fd5b505050506040513d601f19601f82011682018060405250810190610ebe919061203f565b905060006064604283610ed19190612420565b610edb91906124a9565b905080841115610ef357600195505050505050610f09565b600095505050505050610f09565b600093505050505b919050565b8133600115156005600084815260200190815260200160002060070160029054906101000a900460ff16151514610f7a576040517f08c379a0000000000000000000000000000000000000000000000000000000008152600401610f7190612328565b60405180910390fd5b43600560008481526020019081526020016000206006015411610fd2576040517f08c379a0000000000000000000000000000000000000000000000000000000008152600401610fc990612526565b60405180910390fd5b600015156006600084815260200190815260200160002060008373ffffffffffffffffffffffffffffffffffffffff1673ffffffffffffffffffffffffffffffffffffffff16815260200190815260200160002060009054906101000a900460ff16151514611076576040517f08c379a000000000000000000000000000000000000000000000000000000000815260040161106d90612592565b60405180910390fd5b836005600082815260200190815260200160002060070160019054906101000a900460ff161561114957600015156006600083815260200190815260200160002060003273ffffffffffffffffffffffffffffffffffffffff1673ffffffffffffffffffffffffffffffffffffffff16815260200190815260200160002060009054906101000a900460ff16151514611144576040517f08c379a000000000000000000000000000000000000000000000000000000000815260040161113b90612592565b60405180910390fd5b6111ef565b6005600082815260200190815260200160002060000160009054906101000a900473ffffffffffffffffffffffffffffffffffffffff1673ffffffffffffffffffffffffffffffffffffffff163273ffffffffffffffffffffffffffffffffffffffff1614156111ee576040517f08c379a00000000000000000000000000000000000000000000000000000000081526004016111e5906125fe565b60405180910390fd5b5b6111fa858532611663565b5050505050565b600360009054906101000a900473ffffffffffffffffffffffffffffffffffffffff1673ffffffffffffffffffffffffffffffffffffffff163373ffffffffffffffffffffffffffffffffffffffff1614611291576040517f08c379a000000000000000000000000000000000000000000000000000000000815260040161128890611e44565b60405180910390fd5b80600160006101000a81548173ffffffffffffffffffffffffffffffffffffffff021916908373ffffffffffffffffffffffffffffffffffffffff16021790555050565b600115156006600086815260200190815260200160002060008573ffffffffffffffffffffffffffffffffffffffff1673ffffffffffffffffffffffffffffffffffffffff16815260200190815260200160002060009054906101000a900460ff16151514611379576040517f08c379a00000000000000000000000000000000000000000000000000000000081526004016113709061266a565b60405180910390fd5b60006007600086815260200190815260200160002060008573ffffffffffffffffffffffffffffffffffffffff1673ffffffffffffffffffffffffffffffffffffffff16815260200190815260200160002060009054906101000a900460ff169050801561144057826005600087815260200190815260200160002060010160008282546114079190611ec2565b92505081905550816005600087815260200190815260200160002060010160008282546114349190612193565b9250508190555061149b565b826005600087815260200190815260200160002060030160008282546114669190611ec2565b92505081905550816005600087815260200190815260200160002060030160008282546114939190612193565b925050819055505b5050505050565b6001816000016000828254019250508190555050565b600081600001549050919050565b6000600460008154809291906114db90611f4f565b919050555060006040518061014001604052803273ffffffffffffffffffffffffffffffffffffffff168152602001600081526020016000815260200160008152602001600081526020018481526020016000544361153a9190612193565b815260200160001515815260200185151581526020016001151581525090508060056000600454815260200190815260200160002060008201518160000160006101000a81548173ffffffffffffffffffffffffffffffffffffffff021916908373ffffffffffffffffffffffffffffffffffffffff1602179055506020820151816001015560408201518160020155606082015181600301556080820151816004015560a0820151816005015560c0820151816006015560e08201518160070160006101000a81548160ff0219169083151502179055506101008201518160070160016101000a81548160ff0219169083151502179055506101208201518160070160026101000a81548160ff02191690831515021790555090505060045491505092915050565b6000600160009054906101000a900473ffffffffffffffffffffffffffffffffffffffff169050600060056000868152602001908152602001600020604051806101400160405290816000820160009054906101000a900473ffffffffffffffffffffffffffffffffffffffff1673ffffffffffffffffffffffffffffffffffffffff1673ffffffffffffffffffffffffffffffffffffffff1681526020016001820154815260200160028201548152602001600382015481526020016004820154815260200160058201548152602001600682015481526020016007820160009054906101000a900460ff161515151581526020016007820160019054906101000a900460ff161515151581526020016007820160029054906101000a900460ff161515151581525050905060008273ffffffffffffffffffffffffffffffffffffffff1662fdd58e858460a001516040518363ffffffff1660e01b81526004016117d09291906120d8565b602060405180830381865afa1580156117ed573d6000803e3d6000fd5b505050506040513d601f19601f82011682018060405250810190611811919061203f565b90508415611879578060056000888152602001908152602001600020600101600082825461183f9190612193565b92505081905550600160056000888152602001908152602001600020600201600082825461186d9190612193565b925050819055506118d5565b8060056000888152602001908152602001600020600301600082825461189f9190612193565b9250508190555060016005600088815260200190815260200160002060040160008282546118cd9190612193565b925050819055505b60016006600088815260200190815260200160002060008673ffffffffffffffffffffffffffffffffffffffff1673ffffffffffffffffffffffffffffffffffffffff16815260200190815260200160002060006101000a81548160ff021916908315150217905550846007600088815260200190815260200160002060008673ffffffffffffffffffffffffffffffffffffffff1673ffffffffffffffffffffffffffffffffffffffff16815260200190815260200160002060006101000a81548160ff0219169083151502179055506000600860008673ffffffffffffffffffffffffffffffffffffffff1673ffffffffffffffffffffffffffffffffffffffff16815260200190815260200160002090508087908060018154018082558091505060019003906000526020600020016000909190919091505550505050505050565b600080fd5b6000819050919050565b611a3281611a1f565b8114611a3d57600080fd5b50565b600081359050611a4f81611a29565b92915050565b600060208284031215611a6b57611a6a611a1a565b5b6000611a7984828501611a40565b91505092915050565b611a8b81611a1f565b82525050565b6000602082019050611aa66000830184611a82565b92915050565b60008115159050919050565b611ac181611aac565b8114611acc57600080fd5b50565b600081359050611ade81611ab8565b92915050565b60008060408385031215611afb57611afa611a1a565b5b6000611b0985828601611a40565b9250506020611b1a85828601611acf565b9150509250929050565b600073ffffffffffffffffffffffffffffffffffffffff82169050919050565b6000611b4f82611b24565b9050919050565b611b5f81611b44565b8114611b6a57600080fd5b50565b600081359050611b7c81611b56565b92915050565b600060208284031215611b9857611b97611a1a565b5b6000611ba684828501611b6d565b91505092915050565b611bb881611b44565b82525050565b6000602082019050611bd36000830184611baf565b92915050565b60008060008060808587031215611bf357611bf2611a1a565b5b6000611c0187828801611b6d565b9450506020611c1287828801611a40565b9350506040611c2387828801611a40565b9250506060611c3487828801611a40565b91505092959194509250565b600080600060608486031215611c5957611c58611a1a565b5b6000611c6786828701611a40565b9350506020611c7886828701611a40565b9250506040611c8986828701611a40565b9150509250925092565b611c9c81611aac565b82525050565b6000608082019050611cb76000830187611a82565b611cc46020830186611a82565b611cd16040830185611a82565b611cde6060830184611c93565b95945050505050565b6000604082019050611cfc6000830185611a82565b611d096020830184611a82565b9392505050565b600082825260208201905092915050565b7f496e76616c69642064696c7574696f6e20726571756573742069640000000000600082015250565b6000611d57601b83611d10565b9150611d6282611d21565b602082019050919050565b60006020820190508181036000830152611d8681611d4a565b9050919050565b6000608082019050611da26000830187611baf565b611daf6020830186611a82565b611dbc6040830185611a82565b611dc96060830184611c93565b95945050505050565b7f596f7520617265206e6f7420617574686f72697a656420666f7220746869732060008201527f616374696f6e0000000000000000000000000000000000000000000000000000602082015250565b6000611e2e602683611d10565b9150611e3982611dd2565b604082019050919050565b60006020820190508181036000830152611e5d81611e21565b9050919050565b7f4e487b7100000000000000000000000000000000000000000000000000000000600052603260045260246000fd5b7f4e487b7100000000000000000000000000000000000000000000000000000000600052601160045260246000fd5b6000611ecd82611a1f565b9150611ed883611a1f565b925082821015611eeb57611eea611e93565b5b828203905092915050565b7f4e487b7100000000000000000000000000000000000000000000000000000000600052603160045260246000fd5b6000611f3082611a1f565b91506000821415611f4457611f43611e93565b5b600182039050919050565b6000611f5a82611a1f565b91507fffffffffffffffffffffffffffffffffffffffffffffffffffffffffffffffff821415611f8d57611f8c611e93565b5b600182019050919050565b7f546865726520697320612070656e64696e672064696c7574696f6e207265717560008201527f6573740000000000000000000000000000000000000000000000000000000000602082015250565b6000611ff4602383611d10565b9150611fff82611f98565b604082019050919050565b6000602082019050818103600083015261202381611fe7565b9050919050565b60008151905061203981611a29565b92915050565b60006020828403121561205557612054611a1a565b5b60006120638482850161202a565b91505092915050565b7f496e76616c696420746f6b656e206f72207265636f7264000000000000000000600082015250565b60006120a2601783611d10565b91506120ad8261206c565b602082019050919050565b600060208201905081810360008301526120d181612095565b9050919050565b60006040820190506120ed6000830185611baf565b6120fa6020830184611a82565b9392505050565b7f596f752063616e6e6f74206372656174652064696c7574696f6e20726571756560008201527f7374000000000000000000000000000000000000000000000000000000000000602082015250565b600061215d602283611d10565b915061216882612101565b604082019050919050565b6000602082019050818103600083015261218c81612150565b9050919050565b600061219e82611a1f565b91506121a983611a1f565b9250827fffffffffffffffffffffffffffffffffffffffffffffffffffffffffffffffff038211156121de576121dd611e93565b5b828201905092915050565b7f596f75206e65656420746f207761697420736f6d6574696d6520666f7220796f60008201527f7520637265617465206e6577207265717565737420696e74657276616c000000602082015250565b6000612245603d83611d10565b9150612250826121e9565b604082019050919050565b6000602082019050818103600083015261227481612238565b9050919050565b600060c0820190506122906000830189611baf565b61229d6020830188611a82565b6122aa6040830187611a82565b6122b76060830186611a82565b6122c46080830185611a82565b6122d160a0830184611a82565b979650505050505050565b7f4e6f2062616c6c6f74207769746820796f757220696420697320666f756e6400600082015250565b6000612312601f83611d10565b915061231d826122dc565b602082019050919050565b6000602082019050818103600083015261234181612305565b9050919050565b7f566f74696e672074696d65206973206e6f74206f766572207965740000000000600082015250565b600061237e601b83611d10565b915061238982612348565b602082019050919050565b600060208201905081810360008301526123ad81612371565b9050919050565b7f526573756c7420616c7265616479206465636c61726564000000000000000000600082015250565b60006123ea601783611d10565b91506123f5826123b4565b602082019050919050565b60006020820190508181036000830152612419816123dd565b9050919050565b600061242b82611a1f565b915061243683611a1f565b9250817fffffffffffffffffffffffffffffffffffffffffffffffffffffffffffffffff048311821515161561246f5761246e611e93565b5b828202905092915050565b7f4e487b7100000000000000000000000000000000000000000000000000000000600052601260045260246000fd5b60006124b482611a1f565b91506124bf83611a1f565b9250826124cf576124ce61247a565b5b828204905092915050565b7f566f74696e672074696d65206973206f76657200000000000000000000000000600082015250565b6000612510601383611d10565b915061251b826124da565b602082019050919050565b6000602082019050818103600083015261253f81612503565b9050919050565b7f596f75206861766520616c726561647920766f74656400000000000000000000600082015250565b600061257c601683611d10565b915061258782612546565b602082019050919050565b600060208201905081810360008301526125ab8161256f565b9050919050565b7f4f776e65722063616e6e6f7420766f7465000000000000000000000000000000600082015250565b60006125e8601183611d10565b91506125f3826125b2565b602082019050919050565b60006020820190508181036000830152612617816125db565b9050919050565b7f5573657220686173206e6f7420766f7465642079657400000000000000000000600082015250565b6000612654601683611d10565b915061265f8261261e565b602082019050919050565b6000602082019050818103600083015261268381612647565b905091905056fea2646970667358221220e62aa1326045b5735691b7cfda046d2384a5f513bd48054ed35f8fe933849a1464736f6c634300080c0033",
  "immutableReferences": {},
  "source": "// SPDX-License-Identifier: MIT\npragma solidity ^0.8.0;\n\nimport \"./Voting/BaseVotingContract.sol\";\nimport \"./TreasuryContract.sol\";\nimport \"@openzeppelin/contracts/utils/Counters.sol\";\n\ncontract DilutionContract is BaseVotingContract {\n    //Event\n    // == Create\n    // == vote\n    // == result\n    //Dilution data storage\n    //Dilution mapping, id => data\n    //Dilution request creation\n    //Dilution voting\n    //Dilution result\n\n    /**\n        @dev This will contain the data for the dilution request\n        @param requester the person who has requested for token dilution\n        @param recordId This is the id of the record that is linked to this ballot \n        @param dilutionId This is the id of the dilution structure that is linked to this ballot \n        @param ballotId Id of the ballot where voting is stored\n        @param tokenId token that is to be minted\n        @param amount the amount of tokens to be minted\n        @param isPresent State of vote : true for yes and false for No\n        @param isAccepted State of vote : true for yes and false for No\n     */\n    struct DilutionRequest {\n        address requester;\n        uint256 recordId;\n        uint256 dilutionId;\n        uint256 ballotId;\n        uint256 tokenId;\n        uint256 amount;\n        bool isPresent;\n        bool isAccepted;\n    }\n\n    /**\n        @dev This is when a dilution request is created.\n        @param requester the person who has requested for token dilution\n        @param recordId This is the id of the record that is linked to this ballot \n        @param dilutionId This is the id of the dilution structure that is linked to this ballot \n        @param ballotId Id of the ballot where voting is stored\n        @param tokenId token that is to be minted\n        @param amount the amount of tokens to be minted\n     */\n    event DilutionRequestCreated(\n        address requester,\n        uint256 recordId,\n        uint256 dilutionId,\n        uint256 ballotId,\n        uint256 tokenId,\n        uint256 amount\n    );\n\n    /**\n        @dev This is when a vote is given by user.\n        @param voter Address of the voter\n        @param dilutionId This is the id of the dilution structure that is linked to this ballot \n        @param ballotId Id of the ballot where voting is stored\n        @param vote State of vote : true for yes and false for No\n     */\n    event DilutionVoting(\n        address voter,\n        uint256 dilutionId,\n        uint256 ballotId,\n        bool vote\n    );\n\n    /**\n        @dev this event is generated when result of a ballot is declared\n        @param dilutionId This is the id of dilution request\n        @param tokenId This is the id of the contribution that is linked to this ballot \n        @param ballotId this is the ballot Id for which result is declared \n        @param result this is the status of the result //either true if user won that is he received more than 66% of votes or false if user lost \n     */\n    event DilutionResult(\n        uint256 dilutionId,\n        uint256 tokenId,\n        uint256 ballotId,\n        bool result\n    );\n\n    using Counters for Counters.Counter;\n    Counters.Counter private _dilutionIds;\n\n    // This mapping contains data with respect to dilution id\n    // _dilutionId => dilutionData\n    mapping(uint256 => DilutionRequest) dilutionRequestMap;\n\n    // This mapping tracks if any request for dilution is active or not\n    // tokenId => id of the current dilution request, if 0 then there are no active dilution request\n    mapping(uint256 => uint256) public activeDilutionRequestMap;\n\n    // This mapping contains the blocknumber when last request for dilution request result of distributed\n    // tokenId => blocknumber when last dilution result was declared for this token\n    mapping(uint256 => uint256) public lastDilutionResultMap;\n\n    uint256 public REQUEST_INTERVAL;\n\n    constructor(uint8 votingInterval, uint256 requestInterval)\n        BaseVotingContract()\n    {\n        VOTING_BLOCK_PERIOD = votingInterval;\n        REQUEST_INTERVAL = requestInterval;\n    }\n\n    /**\n     * @dev This function sets the treasury Contract address\n     */\n    function setTreasuryContractAddress(address newTreasuryContractAddress)\n        external\n        _ownerOnly\n    {\n        _setTreasuryContractAddress(newTreasuryContractAddress);\n    }\n\n    /**\n     * @dev This function will create a new contribution voting ballot\n     */\n    function createDilutionRequest(\n        uint256 recordId,\n        uint256 tokenId,\n        uint256 amount\n    ) public {\n        require(\n            activeDilutionRequestMap[tokenId] == 0,\n            \"There is a pending dilution request\"\n        );\n\n        TreasuryContract treasuryContract = TreasuryContract(\n            TREASURY_CONTRACT_ADDRESS\n        );\n\n        uint256 govTokenId = treasuryContract.getCommunityTokenId(recordId);\n        uint256 commTokenId = treasuryContract.getGovernanceTokenId(recordId);\n\n        require(\n            govTokenId == tokenId || commTokenId == tokenId,\n            \"Invalid token or record\"\n        );\n\n        require(\n            treasuryContract.balanceOf(msg.sender, tokenId) > 0,\n            \"You cannot create dilution request\"\n        );\n\n        require(\n            lastDilutionResultMap[tokenId] + REQUEST_INTERVAL < block.number,\n            \"You need to wait sometime for you create new request interval\"\n        );\n\n        _dilutionIds.increment();\n        uint256 dilutionId = _dilutionIds.current();\n        uint256 ballotId = _createVoting(true, commTokenId);\n\n        DilutionRequest memory dilutionRequest = DilutionRequest({\n            requester: msg.sender,\n            recordId: recordId,\n            dilutionId: dilutionId,\n            ballotId: ballotId,\n            tokenId: tokenId,\n            amount: amount,\n            isPresent: true,\n            isAccepted: false\n        });\n\n        emit DilutionRequestCreated({\n            requester: dilutionRequest.requester,\n            recordId: dilutionRequest.recordId,\n            dilutionId: dilutionRequest.dilutionId,\n            ballotId: dilutionRequest.ballotId,\n            tokenId: dilutionRequest.tokenId,\n            amount: dilutionRequest.amount\n        });\n\n        dilutionRequestMap[dilutionId] = dilutionRequest;\n    }\n\n    /**\n     * @dev This function is called by any user to cast vote\n     * @param dilutionId this is the id of the dilution request for which user is voting\n     * @param vote this is the state of the vote, if true than it means the vote is in favour of the ballot\n     */\n    function castVote(uint256 dilutionId, bool vote) public {\n        require(\n            dilutionRequestMap[dilutionId].isPresent == true,\n            \"Invalid dilution request id\"\n        );\n        super._castVote(dilutionRequestMap[dilutionId].ballotId, vote);\n\n        emit DilutionVoting({\n            dilutionId: dilutionId,\n            ballotId: dilutionRequestMap[dilutionId].ballotId,\n            voter: msg.sender,\n            vote: vote\n        });\n    }\n\n    /**\n     * @dev This function can be called from external source and also from within the contract\n     * @param dilutionId this is the id of the contribution to which the winner is to be decleared\n     */\n    function declareWinner(uint256 dilutionId) external {\n        bool result = _declareWinner(dilutionRequestMap[dilutionId].ballotId);\n\n        emit DilutionResult({\n            dilutionId: dilutionId,\n            tokenId: dilutionRequestMap[dilutionId].tokenId,\n            ballotId: dilutionRequestMap[dilutionId].ballotId,\n            result: result\n        });\n\n        if (result) {\n            //Transfer the reward amount to user\n            TreasuryContract treasuryContract = TreasuryContract(\n                TREASURY_CONTRACT_ADDRESS\n            );\n            treasuryContract.mintTokens(\n                dilutionRequestMap[dilutionId].tokenId,\n                dilutionRequestMap[dilutionId].amount\n            );\n\n            dilutionRequestMap[dilutionId].isAccepted = true;\n        } else {\n            dilutionRequestMap[dilutionId].isAccepted = false;\n        }\n        // reset the active dilution to 0\n        activeDilutionRequestMap[dilutionRequestMap[dilutionId].tokenId] = 0;\n        lastDilutionResultMap[dilutionRequestMap[dilutionId].tokenId] = block\n            .number;\n    }\n}\n",
  "sourcePath": "/Users/a1/Desktop/Office/projects/CrowdRecords/Contracts/contracts/DilutionContract.sol",
  "compiler": {
    "name": "solc",
    "version": "0.8.12+commit.f00d7308.Emscripten.clang"
  },
  "schemaVersion": "3.4.6",
  "updatedAt": "2022-07-28T07:30:31.891Z",
  "networkType": "ethereum",
  "devdoc": {
    "events": {
      "DilutionRequestCreated(address,uint256,uint256,uint256,uint256,uint256)": {
        "details": "This is when a dilution request is created.",
        "params": {
          "amount": "the amount of tokens to be minted",
          "ballotId": "Id of the ballot where voting is stored",
          "dilutionId": "This is the id of the dilution structure that is linked to this ballot ",
          "recordId": "This is the id of the record that is linked to this ballot ",
          "requester": "the person who has requested for token dilution",
          "tokenId": "token that is to be minted"
        }
      },
      "DilutionResult(uint256,uint256,uint256,bool)": {
        "details": "this event is generated when result of a ballot is declared",
        "params": {
          "ballotId": "this is the ballot Id for which result is declared ",
          "dilutionId": "This is the id of dilution request",
          "result": "this is the status of the result //either true if user won that is he received more than 66% of votes or false if user lost ",
          "tokenId": "This is the id of the contribution that is linked to this ballot "
        }
      },
      "DilutionVoting(address,uint256,uint256,bool)": {
        "details": "This is when a vote is given by user.",
        "params": {
          "ballotId": "Id of the ballot where voting is stored",
          "dilutionId": "This is the id of the dilution structure that is linked to this ballot ",
          "vote": "State of vote : true for yes and false for No",
          "voter": "Address of the voter"
        }
      }
    },
    "kind": "dev",
    "methods": {
      "_handleUserTokenTransfers(address,uint256,uint256,uint256)": {
        "details": "This function will be called when either user is transferring the tokens to other account, or is receiving tokens from other tokens.",
        "params": {
          "newBalance": "this is the new balance of the user that is after the transfer",
          "previousBalance": "this is the old balance of the user",
          "user": "address of the user whose balance is being changed"
        }
      },
      "castVote(uint256,bool)": {
        "details": "This function is called by any user to cast vote",
        "params": {
          "dilutionId": "this is the id of the dilution request for which user is voting",
          "vote": "this is the state of the vote, if true than it means the vote is in favour of the ballot"
        }
      },
      "createDilutionRequest(uint256,uint256,uint256)": {
        "details": "This function will create a new contribution voting ballot"
      },
      "declareWinner(uint256)": {
        "details": "This function can be called from external source and also from within the contract",
        "params": {
          "dilutionId": "this is the id of the contribution to which the winner is to be decleared"
        }
      },
      "setTreasuryContractAddress(address)": {
        "details": "This function sets the treasury Contract address"
      }
    },
    "version": 1
  },
  "userdoc": {
    "kind": "user",
    "methods": {},
    "version": 1
  }
}