{
  "contractName": "DilutionVotingContract",
  "abi": [
    {
      "inputs": [
        {
          "internalType": "uint8",
          "name": "votingInterval",
          "type": "uint8"
        }
      ],
      "stateMutability": "nonpayable",
      "type": "constructor"
    },
    {
      "anonymous": false,
      "inputs": [
        {
          "indexed": false,
          "internalType": "address",
          "name": "requester",
          "type": "address"
        },
        {
          "indexed": false,
          "internalType": "uint256",
          "name": "recordId",
          "type": "uint256"
        },
        {
          "indexed": false,
          "internalType": "uint256",
          "name": "dilutionId",
          "type": "uint256"
        },
        {
          "indexed": false,
          "internalType": "uint256",
          "name": "ballotId",
          "type": "uint256"
        },
        {
          "indexed": false,
          "internalType": "uint256",
          "name": "tokenId",
          "type": "uint256"
        },
        {
          "indexed": false,
          "internalType": "uint256",
          "name": "amount",
          "type": "uint256"
        }
      ],
      "name": "DilutionRequestCreated",
      "type": "event"
    },
    {
      "anonymous": false,
      "inputs": [
        {
          "indexed": false,
          "internalType": "uint256",
          "name": "dilutionId",
          "type": "uint256"
        },
        {
          "indexed": false,
          "internalType": "uint256",
          "name": "tokenId",
          "type": "uint256"
        },
        {
          "indexed": false,
          "internalType": "uint256",
          "name": "ballotId",
          "type": "uint256"
        },
        {
          "indexed": false,
          "internalType": "bool",
          "name": "result",
          "type": "bool"
        }
      ],
      "name": "DilutionResult",
      "type": "event"
    },
    {
      "anonymous": false,
      "inputs": [
        {
          "indexed": false,
          "internalType": "address",
          "name": "voter",
          "type": "address"
        },
        {
          "indexed": false,
          "internalType": "uint256",
          "name": "dilutionId",
          "type": "uint256"
        },
        {
          "indexed": false,
          "internalType": "uint256",
          "name": "ballotId",
          "type": "uint256"
        },
        {
          "indexed": false,
          "internalType": "bool",
          "name": "vote",
          "type": "bool"
        }
      ],
      "name": "DilutionVoting",
      "type": "event"
    },
    {
      "inputs": [],
      "name": "TREASURY_CONTRACT_ADDRESS",
      "outputs": [
        {
          "internalType": "address",
          "name": "",
          "type": "address"
        }
      ],
      "stateMutability": "view",
      "type": "function"
    },
    {
      "inputs": [],
      "name": "TREASURY_HUB_ADDRESS",
      "outputs": [
        {
          "internalType": "address",
          "name": "",
          "type": "address"
        }
      ],
      "stateMutability": "view",
      "type": "function"
    },
    {
      "inputs": [
        {
          "internalType": "address",
          "name": "user",
          "type": "address"
        },
        {
          "internalType": "uint256",
          "name": "tokenId",
          "type": "uint256"
        },
        {
          "internalType": "uint256",
          "name": "previousBalance",
          "type": "uint256"
        },
        {
          "internalType": "uint256",
          "name": "newBalance",
          "type": "uint256"
        }
      ],
      "name": "_handleUserTokenTransfers",
      "outputs": [],
      "stateMutability": "nonpayable",
      "type": "function"
    },
    {
      "inputs": [
        {
          "internalType": "uint256",
          "name": "",
          "type": "uint256"
        }
      ],
      "name": "activeDilutionRequestMap",
      "outputs": [
        {
          "internalType": "uint256",
          "name": "",
          "type": "uint256"
        }
      ],
      "stateMutability": "view",
      "type": "function"
    },
    {
      "inputs": [
        {
          "internalType": "address",
          "name": "newTreasuryContractAddress",
          "type": "address"
        }
      ],
      "name": "setTreasuryContractAddress",
      "outputs": [],
      "stateMutability": "nonpayable",
      "type": "function"
    },
    {
      "inputs": [
        {
          "internalType": "address",
          "name": "requester",
          "type": "address"
        },
        {
          "internalType": "uint256",
          "name": "recordId",
          "type": "uint256"
        },
        {
          "internalType": "uint256",
          "name": "tokenId",
          "type": "uint256"
        },
        {
          "internalType": "uint256",
          "name": "amount",
          "type": "uint256"
        }
      ],
      "name": "createDilutionRequest",
      "outputs": [],
      "stateMutability": "nonpayable",
      "type": "function"
    },
    {
      "inputs": [
        {
          "internalType": "uint256",
          "name": "dilutionId",
          "type": "uint256"
        },
        {
          "internalType": "bool",
          "name": "vote",
          "type": "bool"
        }
      ],
      "name": "castVote",
      "outputs": [],
      "stateMutability": "nonpayable",
      "type": "function"
    },
    {
      "inputs": [
        {
          "internalType": "uint256",
          "name": "dilutionId",
          "type": "uint256"
        }
      ],
      "name": "declareWinner",
      "outputs": [],
      "stateMutability": "nonpayable",
      "type": "function"
    }
  ],
  "bytecode": "0x6080604052601960005560006004553480156200001b57600080fd5b50604051620024a3380380620024a38339818101604052810190620000419190620000d6565b33600360006101000a81548173ffffffffffffffffffffffffffffffffffffffff021916908373ffffffffffffffffffffffffffffffffffffffff1602179055508060ff166000819055505062000108565b600080fd5b600060ff82169050919050565b620000b08162000098565b8114620000bc57600080fd5b50565b600081519050620000d081620000a5565b92915050565b600060208284031215620000ef57620000ee62000093565b5b6000620000ff84828501620000bf565b91505092915050565b61238b80620001186000396000f3fe608060405234801561001057600080fd5b50600436106100875760003560e01c80638d2ae1f71161005b5780638d2ae1f714610110578063a52c95131461012e578063abb7ed7f1461014a578063acb314931461016657610087565b8062c2943c1461008c5780631498c812146100a857806315373e3d146100d85780634cf2d48f146100f4575b600080fd5b6100a660048036038101906100a19190611889565b610184565b005b6100c260048036038101906100bd9190611889565b610370565b6040516100cf91906118c5565b60405180910390f35b6100f260048036038101906100ed9190611918565b610388565b005b61010e600480360381019061010991906119b6565b610469565b005b610118610505565b60405161012591906119f2565b60405180910390f35b61014860048036038101906101439190611a0d565b61052b565b005b610164600480360381019061015f9190611a0d565b6108a6565b005b61016e610a9f565b60405161017b91906119f2565b60405180910390f35b60006101a5600a600084815260200190815260200160002060030154610ac5565b90507fe8d4951422367686d087c15158382f9f42bd20d8bde62b2d252b5d1e856c1f8982600a600085815260200190815260200160002060040154600a600086815260200190815260200160002060030154846040516102089493929190611a83565b60405180910390a18015610323576000600160009054906101000a900473ffffffffffffffffffffffffffffffffffffffff1690508073ffffffffffffffffffffffffffffffffffffffff16638fbf353f600a600086815260200190815260200160002060010154600a600087815260200190815260200160002060040154600a6000888152602001908152602001600020600501546040518463ffffffff1660e01b81526004016102bc93929190611ac8565b600060405180830381600087803b1580156102d657600080fd5b505af11580156102ea573d6000803e3d6000fd5b505050506001600a600085815260200190815260200160002060060160016101000a81548160ff02191690831515021790555050610353565b6000600a600084815260200190815260200160002060060160016101000a81548160ff0219169083151502179055505b6000600b6000848152602001908152602001600020819055505050565b600b6020528060005260406000206000915090505481565b60011515600a600084815260200190815260200160002060060160009054906101000a900460ff161515146103f2576040517f08c379a00000000000000000000000000000000000000000000000000000000081526004016103e990611b5c565b60405180910390fd5b610412600a60008481526020019081526020016000206003015482610d42565b7fb2f0729497891f6d2fee9abd4a73081173d57e638f38ea17e919746a57020e1e3383600a6000868152602001908152602001600020600301548460405161045d9493929190611b7c565b60405180910390a15050565b600360009054906101000a900473ffffffffffffffffffffffffffffffffffffffff1673ffffffffffffffffffffffffffffffffffffffff163373ffffffffffffffffffffffffffffffffffffffff16146104f9576040517f08c379a00000000000000000000000000000000000000000000000000000000081526004016104f090611c33565b60405180910390fd5b61050281611035565b50565b600260009054906101000a900473ffffffffffffffffffffffffffffffffffffffff1681565b6000600b60008481526020019081526020016000205414610581576040517f08c379a000000000000000000000000000000000000000000000000000000000815260040161057890611cc5565b60405180910390fd5b6000600160009054906101000a900473ffffffffffffffffffffffffffffffffffffffff16905060008173ffffffffffffffffffffffffffffffffffffffff16632d4a0382866040518263ffffffff1660e01b81526004016105e391906118c5565b602060405180830381865afa158015610600573d6000803e3d6000fd5b505050506040513d601f19601f820116820180604052508101906106249190611cfa565b905060008273ffffffffffffffffffffffffffffffffffffffff1663d6ca40a7876040518263ffffffff1660e01b815260040161066191906118c5565b602060405180830381865afa15801561067e573d6000803e3d6000fd5b505050506040513d601f19601f820116820180604052508101906106a29190611cfa565b9050848214806106b157508481145b6106f0576040517f08c379a00000000000000000000000000000000000000000000000000000000081526004016106e790611d73565b60405180910390fd5b6106fa6009611109565b6000610706600961111f565b9050600061071560018461112d565b905060006040518061010001604052803273ffffffffffffffffffffffffffffffffffffffff1681526020018a81526020018481526020018381526020018981526020018881526020016001151581526020016000151581525090507f1376b246b2110f58fc4ef260841ba0590f4a29c76faca70e92d08f27aca131a8816000015182602001518360400151846060015185608001518660a001516040516107c296959493929190611d93565b60405180910390a180600a600085815260200190815260200160002060008201518160000160006101000a81548173ffffffffffffffffffffffffffffffffffffffff021916908373ffffffffffffffffffffffffffffffffffffffff1602179055506020820151816001015560408201518160020155606082015181600301556080820151816004015560a0820151816005015560c08201518160060160006101000a81548160ff02191690831515021790555060e08201518160060160016101000a81548160ff02191690831515021790555090505050505050505050505050565b6000600860008673ffffffffffffffffffffffffffffffffffffffff1673ffffffffffffffffffffffffffffffffffffffff168152602001908152602001600020905060005b8180549050811015610a9757600115156005600084848154811061091357610912611df4565b5b9060005260206000200154815260200190815260200160002060070160009054906101000a900460ff161515148061097d5750436005600084848154811061095e5761095d611df4565b5b9060005260206000200154815260200190815260200160002060060154105b15610a1e5781600183805490506109949190611e52565b815481106109a5576109a4611df4565b5b90600052602060002001548282815481106109c3576109c2611df4565b5b9060005260206000200181905550818054806109e2576109e1611e86565b5b600190038181906000526020600020016000905590556000811415610a0a5760009050610a19565b8080610a1590611eb5565b9150505b610a84565b60056000838381548110610a3557610a34611df4565b5b9060005260206000200154815260200190815260200160002060050154851415610a8357610a82828281548110610a6f57610a6e611df4565b5b90600052602060002001548786866112ca565b5b5b8080610a8f90611edf565b9150506108ec565b505050505050565b600160009054906101000a900473ffffffffffffffffffffffffffffffffffffffff1681565b6000600115156005600084815260200190815260200160002060070160029054906101000a900460ff16151514610b31576040517f08c379a0000000000000000000000000000000000000000000000000000000008152600401610b2890611f74565b60405180910390fd5b43600560008481526020019081526020016000206006015410610b89576040517f08c379a0000000000000000000000000000000000000000000000000000000008152600401610b8090611fe0565b60405180910390fd5b600015156005600084815260200190815260200160002060070160009054906101000a900460ff16151514610bf3576040517f08c379a0000000000000000000000000000000000000000000000000000000008152600401610bea9061204c565b60405180910390fd5b60006005600084815260200190815260200160002090506000816001015490506000600160009054906101000a900473ffffffffffffffffffffffffffffffffffffffff16905060016005600087815260200190815260200160002060070160006101000a81548160ff0219169083151502179055506000821115610d355760008173ffffffffffffffffffffffffffffffffffffffff1663036c22ad85600501546040518263ffffffff1660e01b8152600401610cb191906118c5565b602060405180830381865afa158015610cce573d6000803e3d6000fd5b505050506040513d601f19601f82011682018060405250810190610cf29190611cfa565b905060006064604283610d05919061206c565b610d0f91906120f5565b905080841115610d2757600195505050505050610d3d565b600095505050505050610d3d565b600093505050505b919050565b8133600115156005600084815260200190815260200160002060070160029054906101000a900460ff16151514610dae576040517f08c379a0000000000000000000000000000000000000000000000000000000008152600401610da590611f74565b60405180910390fd5b43600560008481526020019081526020016000206006015411610e06576040517f08c379a0000000000000000000000000000000000000000000000000000000008152600401610dfd90612172565b60405180910390fd5b600015156006600084815260200190815260200160002060008373ffffffffffffffffffffffffffffffffffffffff1673ffffffffffffffffffffffffffffffffffffffff16815260200190815260200160002060009054906101000a900460ff16151514610eaa576040517f08c379a0000000000000000000000000000000000000000000000000000000008152600401610ea1906121de565b60405180910390fd5b836005600082815260200190815260200160002060070160019054906101000a900460ff1615610f7d57600015156006600083815260200190815260200160002060003273ffffffffffffffffffffffffffffffffffffffff1673ffffffffffffffffffffffffffffffffffffffff16815260200190815260200160002060009054906101000a900460ff16151514610f78576040517f08c379a0000000000000000000000000000000000000000000000000000000008152600401610f6f906121de565b60405180910390fd5b611023565b6005600082815260200190815260200160002060000160009054906101000a900473ffffffffffffffffffffffffffffffffffffffff1673ffffffffffffffffffffffffffffffffffffffff163273ffffffffffffffffffffffffffffffffffffffff161415611022576040517f08c379a00000000000000000000000000000000000000000000000000000000081526004016110199061224a565b60405180910390fd5b5b61102e858532611497565b5050505050565b600360009054906101000a900473ffffffffffffffffffffffffffffffffffffffff1673ffffffffffffffffffffffffffffffffffffffff163373ffffffffffffffffffffffffffffffffffffffff16146110c5576040517f08c379a00000000000000000000000000000000000000000000000000000000081526004016110bc90611c33565b60405180910390fd5b80600160006101000a81548173ffffffffffffffffffffffffffffffffffffffff021916908373ffffffffffffffffffffffffffffffffffffffff16021790555050565b6001816000016000828254019250508190555050565b600081600001549050919050565b60006004600081548092919061114290611edf565b919050555060006040518061014001604052803273ffffffffffffffffffffffffffffffffffffffff16815260200160008152602001600081526020016000815260200160008152602001848152602001600054436111a1919061226a565b815260200160001515815260200185151581526020016001151581525090508060056000600454815260200190815260200160002060008201518160000160006101000a81548173ffffffffffffffffffffffffffffffffffffffff021916908373ffffffffffffffffffffffffffffffffffffffff1602179055506020820151816001015560408201518160020155606082015181600301556080820151816004015560a0820151816005015560c0820151816006015560e08201518160070160006101000a81548160ff0219169083151502179055506101008201518160070160016101000a81548160ff0219169083151502179055506101208201518160070160026101000a81548160ff02191690831515021790555090505060045491505092915050565b600115156006600086815260200190815260200160002060008573ffffffffffffffffffffffffffffffffffffffff1673ffffffffffffffffffffffffffffffffffffffff16815260200190815260200160002060009054906101000a900460ff1615151461136e576040517f08c379a00000000000000000000000000000000000000000000000000000000081526004016113659061230c565b60405180910390fd5b60006007600086815260200190815260200160002060008573ffffffffffffffffffffffffffffffffffffffff1673ffffffffffffffffffffffffffffffffffffffff16815260200190815260200160002060009054906101000a900460ff169050801561143557826005600087815260200190815260200160002060010160008282546113fc9190611e52565b9250508190555081600560008781526020019081526020016000206001016000828254611429919061226a565b92505081905550611490565b8260056000878152602001908152602001600020600301600082825461145b9190611e52565b9250508190555081600560008781526020019081526020016000206003016000828254611488919061226a565b925050819055505b5050505050565b6000600160009054906101000a900473ffffffffffffffffffffffffffffffffffffffff169050600060056000868152602001908152602001600020604051806101400160405290816000820160009054906101000a900473ffffffffffffffffffffffffffffffffffffffff1673ffffffffffffffffffffffffffffffffffffffff1673ffffffffffffffffffffffffffffffffffffffff1681526020016001820154815260200160028201548152602001600382015481526020016004820154815260200160058201548152602001600682015481526020016007820160009054906101000a900460ff161515151581526020016007820160019054906101000a900460ff161515151581526020016007820160029054906101000a900460ff161515151581525050905060008273ffffffffffffffffffffffffffffffffffffffff1662fdd58e858460a001516040518363ffffffff1660e01b815260040161160492919061232c565b602060405180830381865afa158015611621573d6000803e3d6000fd5b505050506040513d601f19601f820116820180604052508101906116459190611cfa565b905084156116ad5780600560008881526020019081526020016000206001016000828254611673919061226a565b9250508190555060016005600088815260200190815260200160002060020160008282546116a1919061226a565b92505081905550611709565b806005600088815260200190815260200160002060030160008282546116d3919061226a565b925050819055506001600560008881526020019081526020016000206004016000828254611701919061226a565b925050819055505b60016006600088815260200190815260200160002060008673ffffffffffffffffffffffffffffffffffffffff1673ffffffffffffffffffffffffffffffffffffffff16815260200190815260200160002060006101000a81548160ff021916908315150217905550846007600088815260200190815260200160002060008673ffffffffffffffffffffffffffffffffffffffff1673ffffffffffffffffffffffffffffffffffffffff16815260200190815260200160002060006101000a81548160ff0219169083151502179055506000600860008673ffffffffffffffffffffffffffffffffffffffff1673ffffffffffffffffffffffffffffffffffffffff16815260200190815260200160002090508087908060018154018082558091505060019003906000526020600020016000909190919091505550505050505050565b600080fd5b6000819050919050565b61186681611853565b811461187157600080fd5b50565b6000813590506118838161185d565b92915050565b60006020828403121561189f5761189e61184e565b5b60006118ad84828501611874565b91505092915050565b6118bf81611853565b82525050565b60006020820190506118da60008301846118b6565b92915050565b60008115159050919050565b6118f5816118e0565b811461190057600080fd5b50565b600081359050611912816118ec565b92915050565b6000806040838503121561192f5761192e61184e565b5b600061193d85828601611874565b925050602061194e85828601611903565b9150509250929050565b600073ffffffffffffffffffffffffffffffffffffffff82169050919050565b600061198382611958565b9050919050565b61199381611978565b811461199e57600080fd5b50565b6000813590506119b08161198a565b92915050565b6000602082840312156119cc576119cb61184e565b5b60006119da848285016119a1565b91505092915050565b6119ec81611978565b82525050565b6000602082019050611a0760008301846119e3565b92915050565b60008060008060808587031215611a2757611a2661184e565b5b6000611a35878288016119a1565b9450506020611a4687828801611874565b9350506040611a5787828801611874565b9250506060611a6887828801611874565b91505092959194509250565b611a7d816118e0565b82525050565b6000608082019050611a9860008301876118b6565b611aa560208301866118b6565b611ab260408301856118b6565b611abf6060830184611a74565b95945050505050565b6000606082019050611add60008301866118b6565b611aea60208301856118b6565b611af760408301846118b6565b949350505050565b600082825260208201905092915050565b7f496e76616c69642064696c7574696f6e20726571756573742069640000000000600082015250565b6000611b46601b83611aff565b9150611b5182611b10565b602082019050919050565b60006020820190508181036000830152611b7581611b39565b9050919050565b6000608082019050611b9160008301876119e3565b611b9e60208301866118b6565b611bab60408301856118b6565b611bb86060830184611a74565b95945050505050565b7f596f7520617265206e6f7420617574686f72697a656420666f7220746869732060008201527f616374696f6e0000000000000000000000000000000000000000000000000000602082015250565b6000611c1d602683611aff565b9150611c2882611bc1565b604082019050919050565b60006020820190508181036000830152611c4c81611c10565b9050919050565b7f546865726520697320612070656e64696e672064696c7574696f6e207265717560008201527f6573740000000000000000000000000000000000000000000000000000000000602082015250565b6000611caf602383611aff565b9150611cba82611c53565b604082019050919050565b60006020820190508181036000830152611cde81611ca2565b9050919050565b600081519050611cf48161185d565b92915050565b600060208284031215611d1057611d0f61184e565b5b6000611d1e84828501611ce5565b91505092915050565b7f496e76616c696420746f6b656e206f72207265636f7264000000000000000000600082015250565b6000611d5d601783611aff565b9150611d6882611d27565b602082019050919050565b60006020820190508181036000830152611d8c81611d50565b9050919050565b600060c082019050611da860008301896119e3565b611db560208301886118b6565b611dc260408301876118b6565b611dcf60608301866118b6565b611ddc60808301856118b6565b611de960a08301846118b6565b979650505050505050565b7f4e487b7100000000000000000000000000000000000000000000000000000000600052603260045260246000fd5b7f4e487b7100000000000000000000000000000000000000000000000000000000600052601160045260246000fd5b6000611e5d82611853565b9150611e6883611853565b925082821015611e7b57611e7a611e23565b5b828203905092915050565b7f4e487b7100000000000000000000000000000000000000000000000000000000600052603160045260246000fd5b6000611ec082611853565b91506000821415611ed457611ed3611e23565b5b600182039050919050565b6000611eea82611853565b91507fffffffffffffffffffffffffffffffffffffffffffffffffffffffffffffffff821415611f1d57611f1c611e23565b5b600182019050919050565b7f4e6f2062616c6c6f74207769746820796f757220696420697320666f756e6400600082015250565b6000611f5e601f83611aff565b9150611f6982611f28565b602082019050919050565b60006020820190508181036000830152611f8d81611f51565b9050919050565b7f566f74696e672074696d65206973206e6f74206f766572207965740000000000600082015250565b6000611fca601b83611aff565b9150611fd582611f94565b602082019050919050565b60006020820190508181036000830152611ff981611fbd565b9050919050565b7f526573756c7420616c7265616479206465636c61726564000000000000000000600082015250565b6000612036601783611aff565b915061204182612000565b602082019050919050565b6000602082019050818103600083015261206581612029565b9050919050565b600061207782611853565b915061208283611853565b9250817fffffffffffffffffffffffffffffffffffffffffffffffffffffffffffffffff04831182151516156120bb576120ba611e23565b5b828202905092915050565b7f4e487b7100000000000000000000000000000000000000000000000000000000600052601260045260246000fd5b600061210082611853565b915061210b83611853565b92508261211b5761211a6120c6565b5b828204905092915050565b7f566f74696e672074696d65206973206f76657200000000000000000000000000600082015250565b600061215c601383611aff565b915061216782612126565b602082019050919050565b6000602082019050818103600083015261218b8161214f565b9050919050565b7f596f75206861766520616c726561647920766f74656400000000000000000000600082015250565b60006121c8601683611aff565b91506121d382612192565b602082019050919050565b600060208201905081810360008301526121f7816121bb565b9050919050565b7f4f776e65722063616e6e6f7420766f7465000000000000000000000000000000600082015250565b6000612234601183611aff565b915061223f826121fe565b602082019050919050565b6000602082019050818103600083015261226381612227565b9050919050565b600061227582611853565b915061228083611853565b9250827fffffffffffffffffffffffffffffffffffffffffffffffffffffffffffffffff038211156122b5576122b4611e23565b5b828201905092915050565b7f5573657220686173206e6f7420766f7465642079657400000000000000000000600082015250565b60006122f6601683611aff565b9150612301826122c0565b602082019050919050565b60006020820190508181036000830152612325816122e9565b9050919050565b600060408201905061234160008301856119e3565b61234e60208301846118b6565b939250505056fea26469706673582212201d6b49c4f649610621c4eaf41791ae21359b6896956eeaef77fe3d885f3b055264736f6c634300080c0033",
  "immutableReferences": {},
  "source": "// SPDX-License-Identifier: MIT\npragma solidity ^0.8.0;\n\nimport \"./BaseVotingContract.sol\";\nimport \"../TreasuryContract.sol\";\nimport \"@openzeppelin/contracts/utils/Counters.sol\";\n\ncontract DilutionVotingContract is BaseVotingContract {\n    //Event\n    // == Create\n    // == vote\n    // == result\n    //Dilution data storage\n    //Dilution mapping, id => data\n    //Dilution request creation\n    //Dilution voting\n    //Dilution result\n\n    /**\n        @dev This will contain the data for the dilution request\n        @param requester the person who has requested for token dilution\n        @param recordId This is the id of the record that is linked to this ballot \n        @param dilutionId This is the id of the dilution structure that is linked to this ballot \n        @param ballotId Id of the ballot where voting is stored\n        @param tokenId token that is to be minted\n        @param amount the amount of tokens to be minted\n        @param isPresent State of vote : true for yes and false for No\n        @param isAccepted State of vote : true for yes and false for No\n     */\n    struct DilutionRequest {\n        address requester;\n        uint256 recordId;\n        uint256 dilutionId;\n        uint256 ballotId;\n        uint256 tokenId;\n        uint256 amount;\n        bool isPresent;\n        bool isAccepted;\n    }\n\n    /**\n        @dev This is when a dilution request is created.\n        @param requester the person who has requested for token dilution\n        @param recordId This is the id of the record that is linked to this ballot \n        @param dilutionId This is the id of the dilution structure that is linked to this ballot \n        @param ballotId Id of the ballot where voting is stored\n        @param tokenId token that is to be minted\n        @param amount the amount of tokens to be minted\n     */\n    event DilutionRequestCreated(\n        address requester,\n        uint256 recordId,\n        uint256 dilutionId,\n        uint256 ballotId,\n        uint256 tokenId,\n        uint256 amount\n    );\n\n    /**\n        @dev This is when a vote is given by user.\n        @param voter Address of the voter\n        @param dilutionId This is the id of the dilution structure that is linked to this ballot \n        @param ballotId Id of the ballot where voting is stored\n        @param vote State of vote : true for yes and false for No\n     */\n    event DilutionVoting(\n        address voter,\n        uint256 dilutionId,\n        uint256 ballotId,\n        bool vote\n    );\n\n    /**\n        @dev this event is generated when result of a ballot is declared\n        @param dilutionId This is the id of dilution request\n        @param tokenId This is the id of the contribution that is linked to this ballot \n        @param ballotId this is the ballot Id for which result is declared \n        @param result this is the status of the result //either true if user won that is he received more than 66% of votes or false if user lost \n     */\n    event DilutionResult(\n        uint256 dilutionId,\n        uint256 tokenId,\n        uint256 ballotId,\n        bool result\n    );\n\n    using Counters for Counters.Counter;\n    Counters.Counter private _dilutionIds;\n\n    // This mapping contains data with respect to dilution id\n    // _dilutionId => dilutionData\n    mapping(uint256 => DilutionRequest) dilutionRequestMap;\n\n    // This mapping tracks if any request for dilution is active or not\n    // _dilutionId => id of the current dilution request, if 0 then there are no active dilution request\n    mapping(uint256 => uint256) public activeDilutionRequestMap;\n\n    constructor(uint8 votingInterval) BaseVotingContract() {\n        VOTING_BLOCK_PERIOD = votingInterval;\n    }\n\n    /**\n     * @dev This function sets the treasury Contract address\n     */\n    function setTreasuryContractAddress(address newTreasuryContractAddress)\n        external\n        _ownerOnly\n    {\n        _setTreasuryContractAddress(newTreasuryContractAddress);\n    }\n\n    /**\n     * @dev This function will create a new contribution voting ballot\n     */\n    function createDilutionRequest(\n        address requester,\n        uint256 recordId,\n        uint256 tokenId,\n        uint256 amount\n    ) public {\n        require(\n            activeDilutionRequestMap[tokenId] == 0,\n            \"There is a pending dilution request\"\n        );\n\n        TreasuryContract treasuryContract = TreasuryContract(\n            TREASURY_CONTRACT_ADDRESS\n        );\n\n        uint256 govTokenId = treasuryContract.getCommunityTokenId(recordId);\n        uint256 commTokenId = treasuryContract.getGovernanceTokenId(recordId);\n\n        require(\n            govTokenId == tokenId || commTokenId == tokenId,\n            \"Invalid token or record\"\n        );\n\n        _dilutionIds.increment();\n        uint256 dilutionId = _dilutionIds.current();\n        uint256 ballotId = _createVoting(true, commTokenId);\n\n        DilutionRequest memory dilutionRequest = DilutionRequest({\n            requester: tx.origin,\n            recordId: recordId,\n            dilutionId: dilutionId,\n            ballotId: ballotId,\n            tokenId: tokenId,\n            amount: amount,\n            isPresent: true,\n            isAccepted: false\n        });\n\n        emit DilutionRequestCreated({\n            requester: dilutionRequest.requester,\n            recordId: dilutionRequest.recordId,\n            dilutionId: dilutionRequest.dilutionId,\n            ballotId: dilutionRequest.ballotId,\n            tokenId: dilutionRequest.tokenId,\n            amount: dilutionRequest.amount\n        });\n\n        dilutionRequestMap[dilutionId] = dilutionRequest;\n    }\n\n    /**\n     * @dev This function is called by any user to cast vote\n     * @param dilutionId this is the id of the dilution request for which user is voting\n     * @param vote this is the state of the vote, if true than it means the vote is in favour of the ballot\n     */\n    function castVote(uint256 dilutionId, bool vote) public {\n        require(\n            dilutionRequestMap[dilutionId].isPresent == true,\n            \"Invalid dilution request id\"\n        );\n        super._castVote(dilutionRequestMap[dilutionId].ballotId, vote);\n\n        emit DilutionVoting({\n            dilutionId: dilutionId,\n            ballotId: dilutionRequestMap[dilutionId].ballotId,\n            voter: msg.sender,\n            vote: vote\n        });\n    }\n\n    /**\n     * @dev This function can be called from external source and also from within the contract\n     * @param dilutionId this is the id of the contribution to which the winner is to be decleared\n     */\n    function declareWinner(uint256 dilutionId) external {\n        bool result = _declareWinner(dilutionRequestMap[dilutionId].ballotId);\n\n        emit DilutionResult({\n            dilutionId: dilutionId,\n            tokenId: dilutionRequestMap[dilutionId].tokenId,\n            ballotId: dilutionRequestMap[dilutionId].ballotId,\n            result: result\n        });\n\n        if (result) {\n            //Transfer the reward amount to user\n            TreasuryContract treasuryContract = TreasuryContract(\n                TREASURY_CONTRACT_ADDRESS\n            );\n            treasuryContract.mintTokens(\n                dilutionRequestMap[dilutionId].recordId,\n                dilutionRequestMap[dilutionId].tokenId,\n                dilutionRequestMap[dilutionId].amount\n            );\n\n            dilutionRequestMap[dilutionId].isAccepted = true;\n        } else {\n            dilutionRequestMap[dilutionId].isAccepted = false;\n        }\n        // reset the active dilution to 0\n        activeDilutionRequestMap[dilutionId] = 0;\n    }\n}\n",
  "sourcePath": "/Users/a1/Desktop/Office/projects/CrowdRecords/Contracts/contracts/voting/DilutionVotingContract.sol",
  "compiler": {
    "name": "solc",
    "version": "0.8.12+commit.f00d7308.Emscripten.clang"
  },
  "schemaVersion": "3.4.6",
  "updatedAt": "2022-07-27T14:07:42.410Z",
  "devdoc": {
    "events": {
      "DilutionRequestCreated(address,uint256,uint256,uint256,uint256,uint256)": {
        "details": "This is when a dilution request is created.",
        "params": {
          "amount": "the amount of tokens to be minted",
          "ballotId": "Id of the ballot where voting is stored",
          "dilutionId": "This is the id of the dilution structure that is linked to this ballot ",
          "recordId": "This is the id of the record that is linked to this ballot ",
          "requester": "the person who has requested for token dilution",
          "tokenId": "token that is to be minted"
        }
      },
      "DilutionResult(uint256,uint256,uint256,bool)": {
        "details": "this event is generated when result of a ballot is declared",
        "params": {
          "ballotId": "this is the ballot Id for which result is declared ",
          "dilutionId": "This is the id of dilution request",
          "result": "this is the status of the result //either true if user won that is he received more than 66% of votes or false if user lost ",
          "tokenId": "This is the id of the contribution that is linked to this ballot "
        }
      },
      "DilutionVoting(address,uint256,uint256,bool)": {
        "details": "This is when a vote is given by user.",
        "params": {
          "ballotId": "Id of the ballot where voting is stored",
          "dilutionId": "This is the id of the dilution structure that is linked to this ballot ",
          "vote": "State of vote : true for yes and false for No",
          "voter": "Address of the voter"
        }
      }
    },
    "kind": "dev",
    "methods": {
      "_handleUserTokenTransfers(address,uint256,uint256,uint256)": {
        "details": "This function will be called when either user is transferring the tokens to other account, or is receiving tokens from other tokens.",
        "params": {
          "newBalance": "this is the new balance of the user that is after the transfer",
          "previousBalance": "this is the old balance of the user",
          "user": "address of the user whose balance is being changed"
        }
      },
      "castVote(uint256,bool)": {
        "details": "This function is called by any user to cast vote",
        "params": {
          "dilutionId": "this is the id of the dilution request for which user is voting",
          "vote": "this is the state of the vote, if true than it means the vote is in favour of the ballot"
        }
      },
      "createDilutionRequest(address,uint256,uint256,uint256)": {
        "details": "This function will create a new contribution voting ballot"
      },
      "declareWinner(uint256)": {
        "details": "This function can be called from external source and also from within the contract",
        "params": {
          "dilutionId": "this is the id of the contribution to which the winner is to be decleared"
        }
      },
      "setTreasuryContractAddress(address)": {
        "details": "This function sets the treasury Contract address"
      }
    },
    "version": 1
  },
  "userdoc": {
    "kind": "user",
    "methods": {},
    "version": 1
  }
}