{
  "contractName": "ERC1155SnapshotMock",
  "abi": [
    {
      "inputs": [
        {
          "internalType": "string",
          "name": "url",
          "type": "string"
        },
        {
          "internalType": "address",
          "name": "initialAccount",
          "type": "address"
        },
        {
          "internalType": "uint256",
          "name": "initialBalance",
          "type": "uint256"
        }
      ],
      "stateMutability": "nonpayable",
      "type": "constructor"
    },
    {
      "anonymous": false,
      "inputs": [
        {
          "indexed": true,
          "internalType": "address",
          "name": "account",
          "type": "address"
        },
        {
          "indexed": true,
          "internalType": "address",
          "name": "operator",
          "type": "address"
        },
        {
          "indexed": false,
          "internalType": "bool",
          "name": "approved",
          "type": "bool"
        }
      ],
      "name": "ApprovalForAll",
      "type": "event"
    },
    {
      "anonymous": false,
      "inputs": [
        {
          "indexed": false,
          "internalType": "uint256",
          "name": "id",
          "type": "uint256"
        }
      ],
      "name": "Snapshot",
      "type": "event"
    },
    {
      "anonymous": false,
      "inputs": [
        {
          "indexed": true,
          "internalType": "address",
          "name": "operator",
          "type": "address"
        },
        {
          "indexed": true,
          "internalType": "address",
          "name": "from",
          "type": "address"
        },
        {
          "indexed": true,
          "internalType": "address",
          "name": "to",
          "type": "address"
        },
        {
          "indexed": false,
          "internalType": "uint256[]",
          "name": "ids",
          "type": "uint256[]"
        },
        {
          "indexed": false,
          "internalType": "uint256[]",
          "name": "values",
          "type": "uint256[]"
        }
      ],
      "name": "TransferBatch",
      "type": "event"
    },
    {
      "anonymous": false,
      "inputs": [
        {
          "indexed": true,
          "internalType": "address",
          "name": "operator",
          "type": "address"
        },
        {
          "indexed": true,
          "internalType": "address",
          "name": "from",
          "type": "address"
        },
        {
          "indexed": true,
          "internalType": "address",
          "name": "to",
          "type": "address"
        },
        {
          "indexed": false,
          "internalType": "uint256",
          "name": "id",
          "type": "uint256"
        },
        {
          "indexed": false,
          "internalType": "uint256",
          "name": "value",
          "type": "uint256"
        }
      ],
      "name": "TransferSingle",
      "type": "event"
    },
    {
      "anonymous": false,
      "inputs": [
        {
          "indexed": false,
          "internalType": "string",
          "name": "value",
          "type": "string"
        },
        {
          "indexed": true,
          "internalType": "uint256",
          "name": "id",
          "type": "uint256"
        }
      ],
      "name": "URI",
      "type": "event"
    },
    {
      "inputs": [
        {
          "internalType": "address",
          "name": "account",
          "type": "address"
        },
        {
          "internalType": "uint256",
          "name": "id",
          "type": "uint256"
        }
      ],
      "name": "balanceOf",
      "outputs": [
        {
          "internalType": "uint256",
          "name": "",
          "type": "uint256"
        }
      ],
      "stateMutability": "view",
      "type": "function"
    },
    {
      "inputs": [
        {
          "internalType": "address",
          "name": "account",
          "type": "address"
        },
        {
          "internalType": "uint256",
          "name": "snapshotId",
          "type": "uint256"
        },
        {
          "internalType": "uint256",
          "name": "tokenId",
          "type": "uint256"
        }
      ],
      "name": "balanceOfAt",
      "outputs": [
        {
          "internalType": "uint256",
          "name": "",
          "type": "uint256"
        }
      ],
      "stateMutability": "view",
      "type": "function"
    },
    {
      "inputs": [
        {
          "internalType": "address[]",
          "name": "accounts",
          "type": "address[]"
        },
        {
          "internalType": "uint256[]",
          "name": "ids",
          "type": "uint256[]"
        }
      ],
      "name": "balanceOfBatch",
      "outputs": [
        {
          "internalType": "uint256[]",
          "name": "",
          "type": "uint256[]"
        }
      ],
      "stateMutability": "view",
      "type": "function"
    },
    {
      "inputs": [
        {
          "internalType": "uint256",
          "name": "id",
          "type": "uint256"
        }
      ],
      "name": "exists",
      "outputs": [
        {
          "internalType": "bool",
          "name": "",
          "type": "bool"
        }
      ],
      "stateMutability": "view",
      "type": "function"
    },
    {
      "inputs": [
        {
          "internalType": "address",
          "name": "account",
          "type": "address"
        },
        {
          "internalType": "address",
          "name": "operator",
          "type": "address"
        }
      ],
      "name": "isApprovedForAll",
      "outputs": [
        {
          "internalType": "bool",
          "name": "",
          "type": "bool"
        }
      ],
      "stateMutability": "view",
      "type": "function"
    },
    {
      "inputs": [
        {
          "internalType": "address",
          "name": "from",
          "type": "address"
        },
        {
          "internalType": "address",
          "name": "to",
          "type": "address"
        },
        {
          "internalType": "uint256[]",
          "name": "ids",
          "type": "uint256[]"
        },
        {
          "internalType": "uint256[]",
          "name": "amounts",
          "type": "uint256[]"
        },
        {
          "internalType": "bytes",
          "name": "data",
          "type": "bytes"
        }
      ],
      "name": "safeBatchTransferFrom",
      "outputs": [],
      "stateMutability": "nonpayable",
      "type": "function"
    },
    {
      "inputs": [
        {
          "internalType": "address",
          "name": "from",
          "type": "address"
        },
        {
          "internalType": "address",
          "name": "to",
          "type": "address"
        },
        {
          "internalType": "uint256",
          "name": "id",
          "type": "uint256"
        },
        {
          "internalType": "uint256",
          "name": "amount",
          "type": "uint256"
        },
        {
          "internalType": "bytes",
          "name": "data",
          "type": "bytes"
        }
      ],
      "name": "safeTransferFrom",
      "outputs": [],
      "stateMutability": "nonpayable",
      "type": "function"
    },
    {
      "inputs": [
        {
          "internalType": "address",
          "name": "operator",
          "type": "address"
        },
        {
          "internalType": "bool",
          "name": "approved",
          "type": "bool"
        }
      ],
      "name": "setApprovalForAll",
      "outputs": [],
      "stateMutability": "nonpayable",
      "type": "function"
    },
    {
      "inputs": [
        {
          "internalType": "bytes4",
          "name": "interfaceId",
          "type": "bytes4"
        }
      ],
      "name": "supportsInterface",
      "outputs": [
        {
          "internalType": "bool",
          "name": "",
          "type": "bool"
        }
      ],
      "stateMutability": "view",
      "type": "function"
    },
    {
      "inputs": [
        {
          "internalType": "uint256",
          "name": "id",
          "type": "uint256"
        }
      ],
      "name": "totalSupply",
      "outputs": [
        {
          "internalType": "uint256",
          "name": "",
          "type": "uint256"
        }
      ],
      "stateMutability": "view",
      "type": "function"
    },
    {
      "inputs": [
        {
          "internalType": "uint256",
          "name": "snapshotId",
          "type": "uint256"
        },
        {
          "internalType": "uint256",
          "name": "tokenId",
          "type": "uint256"
        }
      ],
      "name": "totalSupplyAt",
      "outputs": [
        {
          "internalType": "uint256",
          "name": "",
          "type": "uint256"
        }
      ],
      "stateMutability": "view",
      "type": "function"
    },
    {
      "inputs": [
        {
          "internalType": "uint256",
          "name": "",
          "type": "uint256"
        }
      ],
      "name": "uri",
      "outputs": [
        {
          "internalType": "string",
          "name": "",
          "type": "string"
        }
      ],
      "stateMutability": "view",
      "type": "function"
    },
    {
      "inputs": [],
      "name": "snapshot",
      "outputs": [],
      "stateMutability": "nonpayable",
      "type": "function"
    },
    {
      "inputs": [
        {
          "internalType": "address",
          "name": "account",
          "type": "address"
        },
        {
          "internalType": "uint256",
          "name": "tokenId",
          "type": "uint256"
        },
        {
          "internalType": "uint256",
          "name": "amount",
          "type": "uint256"
        }
      ],
      "name": "mint",
      "outputs": [],
      "stateMutability": "nonpayable",
      "type": "function"
    },
    {
      "inputs": [
        {
          "internalType": "address",
          "name": "account",
          "type": "address"
        },
        {
          "internalType": "uint256",
          "name": "amount",
          "type": "uint256"
        }
      ],
      "name": "createNewToken",
      "outputs": [],
      "stateMutability": "nonpayable",
      "type": "function"
    },
    {
      "inputs": [
        {
          "internalType": "address",
          "name": "account",
          "type": "address"
        },
        {
          "internalType": "uint256",
          "name": "tokenId",
          "type": "uint256"
        },
        {
          "internalType": "uint256",
          "name": "amount",
          "type": "uint256"
        }
      ],
      "name": "burn",
      "outputs": [],
      "stateMutability": "nonpayable",
      "type": "function"
    }
  ],
  "bytecode": "0x608060405260016007553480156200001657600080fd5b50604051620034013803806200340183398101604081905262000039916200099a565b826200004581620000a1565b506200007d826007548360405180604001604052806009815260200168111d5b5b5e48155c9b60ba1b815250620000ba60201b60201c565b60016007600082825462000092919062000a6f565b9091555062000c7e9350505050565b8051620000b690600290602084019062000864565b5050565b6001600160a01b038416620001205760405162461bcd60e51b815260206004820152602160248201527f455243313135353a206d696e7420746f20746865207a65726f206164647265736044820152607360f81b60648201526084015b60405180910390fd5b3362000146816000876200013488620001e1565b6200013f88620001e1565b876200022f565b6000848152602081815260408083206001600160a01b0389168452909152812080548592906200017890849062000a6f565b909155505060408051858152602081018590526001600160a01b0380881692600092918516917fc3d58168c5ae7397731d063d5bbf3d657854427343f4c083240f7aacaa2d0f62910160405180910390a4620001da81600087878787620002b1565b5050505050565b604080516001808252818301909252606091600091906020808301908036833701905050905082816000815181106200021e576200021e62000a8a565b602090810291909101015292915050565b6001600160a01b0385166200025b576200024a848462000487565b62000255836200052d565b6200028e565b6001600160a01b03841662000276576200024a858462000487565b62000282858462000487565b6200028e848462000487565b620002a9868686868686620005af60201b620009d11760201c565b505050505050565b620002d0846001600160a01b0316620006f060201b62000b011760201c565b15620002a95760405163f23a6e6160e01b81526001600160a01b0385169063f23a6e61906200030c908990899088908890889060040162000ace565b6020604051808303816000875af19250505080156200034a575060408051601f3d908101601f19168201909252620003479181019062000b15565b60015b6200040b576200035962000b48565b806308c379a014156200039a57506200037162000b65565b806200037e57506200039c565b8060405162461bcd60e51b815260040162000117919062000bf4565b505b60405162461bcd60e51b815260206004820152603460248201527f455243313135353a207472616e7366657220746f206e6f6e204552433131353560448201527f526563656976657220696d706c656d656e746572000000000000000000000000606482015260840162000117565b6001600160e01b0319811663f23a6e6160e01b146200047e5760405162461bcd60e51b815260206004820152602860248201527f455243313135353a204552433131353552656365697665722072656a656374656044820152676420746f6b656e7360c01b606482015260840162000117565b50505050505050565b60005b815181101562000528576001600160a01b03831660009081526004602052604081208351620005139290859085908110620004c957620004c962000a8a565b602002602001015181526020019081526020016000206200050d85858581518110620004f957620004f962000a8a565b6020026020010151620006ff60201b60201c565b62000793565b806200051f8162000c09565b9150506200048a565b505050565b60005b8151811015620000b6576200059a6005600084848151811062000557576200055762000a8a565b602002602001015181526020019081526020016000206200050d84848151811062000586576200058662000a8a565b6020026020010151620007e260201b60201c565b80620005a68162000c09565b91505062000530565b620005ca868686868686620002a960201b62000af91760201c565b6001600160a01b0385166200065e5760005b83518110156200065c57828181518110620005fb57620005fb62000a8a565b6020026020010151600360008684815181106200061c576200061c62000a8a565b60200260200101518152602001908152602001600020600082825462000643919062000a6f565b909155506200065490508162000c09565b9050620005dc565b505b6001600160a01b038416620002a95760005b83518110156200047e578281815181106200068f576200068f62000a8a565b602002602001015160036000868481518110620006b057620006b062000a8a565b602002602001015181526020019081526020016000206000828254620006d7919062000c27565b90915550620006e890508162000c09565b905062000670565b6001600160a01b03163b151590565b60006001600160a01b0383166200076d5760405162461bcd60e51b815260206004820152602b60248201527f455243313135353a2062616c616e636520717565727920666f7220746865207a60448201526a65726f206164647265737360a81b606482015260840162000117565b506000908152602081815260408083206001600160a01b03949094168352929052205490565b60006200079f620007f4565b905080620007ad8462000812565b101562000528578254600180820185556000858152602080822090930193909355938401805494850181558252902090910155565b60009081526003602052604090205490565b60006200080d60066200086060201b62000b1d1760201c565b905090565b80546000906200082457506000919050565b81548290620008369060019062000c27565b8154811062000849576200084962000a8a565b90600052602060002001549050919050565b919050565b5490565b828054620008729062000c41565b90600052602060002090601f016020900481019282620008965760008555620008e1565b82601f10620008b157805160ff1916838001178555620008e1565b82800160010185558215620008e1579182015b82811115620008e1578251825591602001919060010190620008c4565b50620008ef929150620008f3565b5090565b5b80821115620008ef5760008155600101620008f4565b634e487b7160e01b600052604160045260246000fd5b601f8201601f191681016001600160401b03811182821017156200094857620009486200090a565b6040525050565b60005b838110156200096c57818101518382015260200162000952565b838111156200097c576000848401525b50505050565b80516001600160a01b03811681146200085b57600080fd5b600080600060608486031215620009b057600080fd5b83516001600160401b0380821115620009c857600080fd5b818601915086601f830112620009dd57600080fd5b815181811115620009f257620009f26200090a565b604051915062000a0d601f8201601f19166020018362000920565b80825287602082850101111562000a2357600080fd5b62000a368160208401602086016200094f565b50935062000a4990506020850162000982565b9150604084015190509250925092565b634e487b7160e01b600052601160045260246000fd5b6000821982111562000a855762000a8562000a59565b500190565b634e487b7160e01b600052603260045260246000fd5b6000815180845262000aba8160208601602086016200094f565b601f01601f19169290920160200192915050565b6001600160a01b03868116825285166020820152604081018490526060810183905260a06080820181905260009062000b0a9083018462000aa0565b979650505050505050565b60006020828403121562000b2857600080fd5b81516001600160e01b03198116811462000b4157600080fd5b9392505050565b600060033d111562000b625760046000803e5060005160e01c5b90565b600060443d101562000b745790565b6040516003193d81016004833e81513d6001600160401b03808311602484018310171562000ba457505050505090565b828501915081518181111562000bbd5750505050505090565b843d870101602082850101111562000bd85750505050505090565b62000be96020828601018762000920565b509095945050505050565b60208152600062000b41602083018462000aa0565b600060001982141562000c205762000c2062000a59565b5060010190565b60008282101562000c3c5762000c3c62000a59565b500390565b600181811c9082168062000c5657607f821691505b6020821081141562000c7857634e487b7160e01b600052602260045260246000fd5b50919050565b6127738062000c8e6000396000f3fe608060405234801561001057600080fd5b50600436106100ff5760003560e01c80638aa7a8b011610097578063bd85b03911610066578063bd85b0391461022b578063e985e9c51461024b578063f242432a14610294578063f5298aca146102a757600080fd5b80638aa7a8b0146101ea5780639711715a146101fd578063a22cb46514610205578063a30a0b331461021857600080fd5b80632eb2c2d6116100d35780632eb2c2d6146101825780634e1273f4146101955780634f558e79146101b5578063626da068146101d757600080fd5b8062fdd58e1461010457806301ffc9a71461012a5780630e89341c1461014d578063156e29f61461016d575b600080fd5b610117610112366004611e8e565b6102ba565b6040519081526020015b60405180910390f35b61013d610138366004611ee6565b61039a565b6040519015158152602001610121565b61016061015b366004611f03565b61047d565b6040516101219190611f87565b61018061017b366004611f9a565b610511565b005b61018061019036600461216e565b6105c2565b6101a86101a3366004612218565b61068b565b604051610121919061231e565b61013d6101c3366004611f03565b600090815260036020526040902054151590565b6101176101e5366004611f9a565b6107e3565b6101176101f8366004612331565b610846565b61018061088b565b610180610213366004612353565b610896565b610180610226366004611e8e565b6108a5565b610117610239366004611f03565b60009081526003602052604090205490565b61013d61025936600461238f565b73ffffffffffffffffffffffffffffffffffffffff918216600090815260016020908152604080832093909416825291909152205460ff1690565b6101806102a23660046123c2565b610904565b6101806102b5366004611f9a565b6109c6565b600073ffffffffffffffffffffffffffffffffffffffff8316610364576040517f08c379a000000000000000000000000000000000000000000000000000000000815260206004820152602b60248201527f455243313135353a2062616c616e636520717565727920666f7220746865207a60448201527f65726f206164647265737300000000000000000000000000000000000000000060648201526084015b60405180910390fd5b5060008181526020818152604080832073ffffffffffffffffffffffffffffffffffffffff861684529091529020545b92915050565b60007fffffffff0000000000000000000000000000000000000000000000000000000082167fd9b67a2600000000000000000000000000000000000000000000000000000000148061042d57507fffffffff0000000000000000000000000000000000000000000000000000000082167f0e89341c00000000000000000000000000000000000000000000000000000000145b8061039457507f01ffc9a7000000000000000000000000000000000000000000000000000000007fffffffff00000000000000000000000000000000000000000000000000000000831614610394565b60606002805461048c90612427565b80601f01602080910402602001604051908101604052809291908181526020018280546104b890612427565b80156105055780601f106104da57610100808354040283529160200191610505565b820191906000526020600020905b8154815290600101906020018083116104e857829003601f168201915b50505050509050919050565b600754821061057c576040517f08c379a000000000000000000000000000000000000000000000000000000000815260206004820152600d60248201527f496e76616c696420746f6b656e00000000000000000000000000000000000000604482015260640161035b565b6105bd8383836040518060400160405280600981526020017f44756d6d792055726c0000000000000000000000000000000000000000000000815250610b21565b505050565b73ffffffffffffffffffffffffffffffffffffffff85163314806105eb57506105eb8533610259565b610677576040517f08c379a000000000000000000000000000000000000000000000000000000000815260206004820152603260248201527f455243313135353a207472616e736665722063616c6c6572206973206e6f742060448201527f6f776e6572206e6f7220617070726f7665640000000000000000000000000000606482015260840161035b565b6106848585858585610c8e565b5050505050565b6060815183511461071e576040517f08c379a000000000000000000000000000000000000000000000000000000000815260206004820152602960248201527f455243313135353a206163636f756e747320616e6420696473206c656e67746860448201527f206d69736d617463680000000000000000000000000000000000000000000000606482015260840161035b565b6000835167ffffffffffffffff81111561073a5761073a611fcd565b604051908082528060200260200182016040528015610763578160200160208202803683370190505b50905060005b84518110156107db576107ae8582815181106107875761078761247b565b60200260200101518583815181106107a1576107a161247b565b60200260200101516102ba565b8282815181106107c0576107c061247b565b60209081029190910101526107d4816124d9565b9050610769565b509392505050565b73ffffffffffffffffffffffffffffffffffffffff83166000908152600460209081526040808320848452909152812081908190610822908690610fce565b915091508161083a5761083586856102ba565b61083c565b805b9695505050505050565b600081815260056020526040812081908190610863908690610fce565b915091508161088057600084815260036020526040902054610882565b805b95945050505050565b610893611100565b50565b6108a133838361115a565b5050565b6108e882600754836040518060400160405280600981526020017f44756d6d792055726c0000000000000000000000000000000000000000000000815250610b21565b6001600760008282546108fb9190612512565b90915550505050565b73ffffffffffffffffffffffffffffffffffffffff851633148061092d575061092d8533610259565b6109b9576040517f08c379a000000000000000000000000000000000000000000000000000000000815260206004820152602960248201527f455243313135353a2063616c6c6572206973206e6f74206f776e6572206e6f7260448201527f20617070726f7665640000000000000000000000000000000000000000000000606482015260840161035b565b61068485858585856112ae565b6105bd8383836114d6565b73ffffffffffffffffffffffffffffffffffffffff8516610a655760005b8351811015610a6357828181518110610a0a57610a0a61247b565b602002602001015160036000868481518110610a2857610a2861247b565b602002602001015181526020019081526020016000206000828254610a4d9190612512565b90915550610a5c9050816124d9565b90506109ef565b505b73ffffffffffffffffffffffffffffffffffffffff8416610af95760005b8351811015610af757828181518110610a9e57610a9e61247b565b602002602001015160036000868481518110610abc57610abc61247b565b602002602001015181526020019081526020016000206000828254610ae1919061252a565b90915550610af09050816124d9565b9050610a83565b505b505050505050565b73ffffffffffffffffffffffffffffffffffffffff163b151590565b5490565b73ffffffffffffffffffffffffffffffffffffffff8416610bc4576040517f08c379a000000000000000000000000000000000000000000000000000000000815260206004820152602160248201527f455243313135353a206d696e7420746f20746865207a65726f2061646472657360448201527f7300000000000000000000000000000000000000000000000000000000000000606482015260840161035b565b33610be481600087610bd5886116dd565b610bde886116dd565b87611728565b60008481526020818152604080832073ffffffffffffffffffffffffffffffffffffffff8916845290915281208054859290610c21908490612512565b9091555050604080518581526020810185905273ffffffffffffffffffffffffffffffffffffffff80881692600092918516917fc3d58168c5ae7397731d063d5bbf3d657854427343f4c083240f7aacaa2d0f62910160405180910390a4610684816000878787876117a2565b8151835114610d1f576040517f08c379a000000000000000000000000000000000000000000000000000000000815260206004820152602860248201527f455243313135353a2069647320616e6420616d6f756e7473206c656e6774682060448201527f6d69736d61746368000000000000000000000000000000000000000000000000606482015260840161035b565b73ffffffffffffffffffffffffffffffffffffffff8416610dc2576040517f08c379a000000000000000000000000000000000000000000000000000000000815260206004820152602560248201527f455243313135353a207472616e7366657220746f20746865207a65726f20616460448201527f6472657373000000000000000000000000000000000000000000000000000000606482015260840161035b565b33610dd1818787878787611728565b60005b8451811015610f41576000858281518110610df157610df161247b565b602002602001015190506000858381518110610e0f57610e0f61247b565b6020908102919091018101516000848152808352604080822073ffffffffffffffffffffffffffffffffffffffff8e168352909352919091205490915081811015610edc576040517f08c379a000000000000000000000000000000000000000000000000000000000815260206004820152602a60248201527f455243313135353a20696e73756666696369656e742062616c616e636520666f60448201527f72207472616e7366657200000000000000000000000000000000000000000000606482015260840161035b565b60008381526020818152604080832073ffffffffffffffffffffffffffffffffffffffff8e8116855292528083208585039055908b16825281208054849290610f26908490612512565b9250508190555050505080610f3a906124d9565b9050610dd4565b508473ffffffffffffffffffffffffffffffffffffffff168673ffffffffffffffffffffffffffffffffffffffff168273ffffffffffffffffffffffffffffffffffffffff167f4a39dc06d4c0dbc64b70af90fd698a233a518aa5d07e595d983b8c0526c8f7fb8787604051610fb8929190612541565b60405180910390a4610af9818787878787611a2d565b6000806000841161103b576040517f08c379a000000000000000000000000000000000000000000000000000000000815260206004820152601660248201527f4552433230536e617073686f743a206964206973203000000000000000000000604482015260640161035b565b611043611bda565b8411156110ac576040517f08c379a000000000000000000000000000000000000000000000000000000000815260206004820152601d60248201527f4552433230536e617073686f743a206e6f6e6578697374656e74206964000000604482015260640161035b565b60006110b88486611bea565b84549091508114156110d15760008092509250506110f9565b60018460010182815481106110e8576110e861247b565b906000526020600020015492509250505b9250929050565b6000611110600680546001019055565b600061111a611bda565b90507f8030e83b04d87bef53480e26263266d6ca66863aa8506aca6f2559d18aa1cb678160405161114d91815260200190565b60405180910390a1919050565b8173ffffffffffffffffffffffffffffffffffffffff168373ffffffffffffffffffffffffffffffffffffffff161415611216576040517f08c379a000000000000000000000000000000000000000000000000000000000815260206004820152602960248201527f455243313135353a2073657474696e6720617070726f76616c2073746174757360448201527f20666f722073656c660000000000000000000000000000000000000000000000606482015260840161035b565b73ffffffffffffffffffffffffffffffffffffffff83811660008181526001602090815260408083209487168084529482529182902080547fffffffffffffffffffffffffffffffffffffffffffffffffffffffffffffff001686151590811790915591519182527f17307eab39ab6107e8899845ad3d59bd9653f200f220920489ca2b5937696c31910160405180910390a3505050565b73ffffffffffffffffffffffffffffffffffffffff8416611351576040517f08c379a000000000000000000000000000000000000000000000000000000000815260206004820152602560248201527f455243313135353a207472616e7366657220746f20746865207a65726f20616460448201527f6472657373000000000000000000000000000000000000000000000000000000606482015260840161035b565b33611361818787610bd5886116dd565b60008481526020818152604080832073ffffffffffffffffffffffffffffffffffffffff8a1684529091529020548381101561141f576040517f08c379a000000000000000000000000000000000000000000000000000000000815260206004820152602a60248201527f455243313135353a20696e73756666696369656e742062616c616e636520666f60448201527f72207472616e7366657200000000000000000000000000000000000000000000606482015260840161035b565b60008581526020818152604080832073ffffffffffffffffffffffffffffffffffffffff8b8116855292528083208785039055908816825281208054869290611469908490612512565b9091555050604080518681526020810186905273ffffffffffffffffffffffffffffffffffffffff808916928a821692918616917fc3d58168c5ae7397731d063d5bbf3d657854427343f4c083240f7aacaa2d0f62910160405180910390a4610af78288888888886117a2565b73ffffffffffffffffffffffffffffffffffffffff8316611579576040517f08c379a000000000000000000000000000000000000000000000000000000000815260206004820152602360248201527f455243313135353a206275726e2066726f6d20746865207a65726f206164647260448201527f6573730000000000000000000000000000000000000000000000000000000000606482015260840161035b565b336115a88185600061158a876116dd565b611593876116dd565b60405180602001604052806000815250611728565b60008381526020818152604080832073ffffffffffffffffffffffffffffffffffffffff8816845290915290205482811015611665576040517f08c379a0000000000000000000000000000000000000000000000000000000008152602060048201526024808201527f455243313135353a206275726e20616d6f756e7420657863656564732062616c60448201527f616e636500000000000000000000000000000000000000000000000000000000606482015260840161035b565b60008481526020818152604080832073ffffffffffffffffffffffffffffffffffffffff898116808652918452828520888703905582518981529384018890529092908616917fc3d58168c5ae7397731d063d5bbf3d657854427343f4c083240f7aacaa2d0f62910160405180910390a45050505050565b604080516001808252818301909252606091600091906020808301908036833701905050905082816000815181106117175761171761247b565b602090810291909101015292915050565b73ffffffffffffffffffffffffffffffffffffffff851661175b5761174d8484611cad565b61175683611d3a565b611794565b73ffffffffffffffffffffffffffffffffffffffff84166117805761174d8584611cad565b61178a8584611cad565b6117948484611cad565b610af98686868686866109d1565b73ffffffffffffffffffffffffffffffffffffffff84163b15610af9576040517ff23a6e6100000000000000000000000000000000000000000000000000000000815273ffffffffffffffffffffffffffffffffffffffff85169063f23a6e61906118199089908990889088908890600401612566565b6020604051808303816000875af1925050508015611872575060408051601f3d9081017fffffffffffffffffffffffffffffffffffffffffffffffffffffffffffffffe016820190925261186f918101906125b6565b60015b61195c5761187e6125d3565b806308c379a014156118d257506118936125ef565b8061189e57506118d4565b806040517f08c379a000000000000000000000000000000000000000000000000000000000815260040161035b9190611f87565b505b6040517f08c379a000000000000000000000000000000000000000000000000000000000815260206004820152603460248201527f455243313135353a207472616e7366657220746f206e6f6e204552433131353560448201527f526563656976657220696d706c656d656e746572000000000000000000000000606482015260840161035b565b7fffffffff0000000000000000000000000000000000000000000000000000000081167ff23a6e610000000000000000000000000000000000000000000000000000000014610af7576040517f08c379a000000000000000000000000000000000000000000000000000000000815260206004820152602860248201527f455243313135353a204552433131353552656365697665722072656a6563746560448201527f6420746f6b656e73000000000000000000000000000000000000000000000000606482015260840161035b565b73ffffffffffffffffffffffffffffffffffffffff84163b15610af9576040517fbc197c8100000000000000000000000000000000000000000000000000000000815273ffffffffffffffffffffffffffffffffffffffff85169063bc197c8190611aa49089908990889088908890600401612697565b6020604051808303816000875af1925050508015611afd575060408051601f3d9081017fffffffffffffffffffffffffffffffffffffffffffffffffffffffffffffffe0168201909252611afa918101906125b6565b60015b611b095761187e6125d3565b7fffffffff0000000000000000000000000000000000000000000000000000000081167fbc197c810000000000000000000000000000000000000000000000000000000014610af7576040517f08c379a000000000000000000000000000000000000000000000000000000000815260206004820152602860248201527f455243313135353a204552433131353552656365697665722072656a6563746560448201527f6420746f6b656e73000000000000000000000000000000000000000000000000606482015260840161035b565b6000611be560065490565b905090565b8154600090611bfb57506000610394565b82546000905b80821015611c57576000611c158383611db6565b905084868281548110611c2a57611c2a61247b565b90600052602060002001541115611c4357809150611c51565b611c4e816001612512565b92505b50611c01565b600082118015611c8c57508385611c6f60018561252a565b81548110611c7f57611c7f61247b565b9060005260206000200154145b15611ca557611c9c60018361252a565b92505050610394565b509050610394565b60005b81518110156105bd5773ffffffffffffffffffffffffffffffffffffffff831660009081526004602052604081208351611d289290859085908110611cf757611cf761247b565b60200260200101518152602001908152602001600020611d23858585815181106107a1576107a161247b565b611dd8565b80611d32816124d9565b915050611cb0565b60005b81518110156108a157611da460056000848481518110611d5f57611d5f61247b565b60200260200101518152602001908152602001600020611d23848481518110611d8a57611d8a61247b565b602002602001015160009081526003602052604090205490565b80611dae816124d9565b915050611d3d565b6000611dc56002848418612702565b611dd190848416612512565b9392505050565b6000611de2611bda565b905080611dee84611e22565b10156105bd578254600180820185556000858152602080822090930193909355938401805494850181558252902090910155565b8054600090611e3357506000919050565b81548290611e439060019061252a565b81548110611e5357611e5361247b565b90600052602060002001549050919050565b919050565b803573ffffffffffffffffffffffffffffffffffffffff81168114611e6557600080fd5b60008060408385031215611ea157600080fd5b611eaa83611e6a565b946020939093013593505050565b7fffffffff000000000000000000000000000000000000000000000000000000008116811461089357600080fd5b600060208284031215611ef857600080fd5b8135611dd181611eb8565b600060208284031215611f1557600080fd5b5035919050565b6000815180845260005b81811015611f4257602081850181015186830182015201611f26565b81811115611f54576000602083870101525b50601f017fffffffffffffffffffffffffffffffffffffffffffffffffffffffffffffffe0169290920160200192915050565b602081526000611dd16020830184611f1c565b600080600060608486031215611faf57600080fd5b611fb884611e6a565b95602085013595506040909401359392505050565b7f4e487b7100000000000000000000000000000000000000000000000000000000600052604160045260246000fd5b7fffffffffffffffffffffffffffffffffffffffffffffffffffffffffffffffe0601f830116810181811067ffffffffffffffff8211171561204057612040611fcd565b6040525050565b600067ffffffffffffffff82111561206157612061611fcd565b5060051b60200190565b600082601f83011261207c57600080fd5b8135602061208982612047565b6040516120968282611ffc565b83815260059390931b85018201928281019150868411156120b657600080fd5b8286015b848110156120d157803583529183019183016120ba565b509695505050505050565b600082601f8301126120ed57600080fd5b813567ffffffffffffffff81111561210757612107611fcd565b60405161213c60207fffffffffffffffffffffffffffffffffffffffffffffffffffffffffffffffe0601f8501160182611ffc565b81815284602083860101111561215157600080fd5b816020850160208301376000918101602001919091529392505050565b600080600080600060a0868803121561218657600080fd5b61218f86611e6a565b945061219d60208701611e6a565b9350604086013567ffffffffffffffff808211156121ba57600080fd5b6121c689838a0161206b565b945060608801359150808211156121dc57600080fd5b6121e889838a0161206b565b935060808801359150808211156121fe57600080fd5b5061220b888289016120dc565b9150509295509295909350565b6000806040838503121561222b57600080fd5b823567ffffffffffffffff8082111561224357600080fd5b818501915085601f83011261225757600080fd5b8135602061226482612047565b6040516122718282611ffc565b83815260059390931b850182019282810191508984111561229157600080fd5b948201945b838610156122b6576122a786611e6a565b82529482019490820190612296565b965050860135925050808211156122cc57600080fd5b506122d98582860161206b565b9150509250929050565b600081518084526020808501945080840160005b83811015612313578151875295820195908201906001016122f7565b509495945050505050565b602081526000611dd160208301846122e3565b6000806040838503121561234457600080fd5b50508035926020909101359150565b6000806040838503121561236657600080fd5b61236f83611e6a565b91506020830135801515811461238457600080fd5b809150509250929050565b600080604083850312156123a257600080fd5b6123ab83611e6a565b91506123b960208401611e6a565b90509250929050565b600080600080600060a086880312156123da57600080fd5b6123e386611e6a565b94506123f160208701611e6a565b93506040860135925060608601359150608086013567ffffffffffffffff81111561241b57600080fd5b61220b888289016120dc565b600181811c9082168061243b57607f821691505b60208210811415612475577f4e487b7100000000000000000000000000000000000000000000000000000000600052602260045260246000fd5b50919050565b7f4e487b7100000000000000000000000000000000000000000000000000000000600052603260045260246000fd5b7f4e487b7100000000000000000000000000000000000000000000000000000000600052601160045260246000fd5b60007fffffffffffffffffffffffffffffffffffffffffffffffffffffffffffffffff82141561250b5761250b6124aa565b5060010190565b60008219821115612525576125256124aa565b500190565b60008282101561253c5761253c6124aa565b500390565b60408152600061255460408301856122e3565b828103602084015261088281856122e3565b600073ffffffffffffffffffffffffffffffffffffffff808816835280871660208401525084604083015283606083015260a060808301526125ab60a0830184611f1c565b979650505050505050565b6000602082840312156125c857600080fd5b8151611dd181611eb8565b600060033d11156125ec5760046000803e5060005160e01c5b90565b600060443d10156125fd5790565b6040517ffffffffffffffffffffffffffffffffffffffffffffffffffffffffffffffffc803d016004833e81513d67ffffffffffffffff816024840111818411171561264b57505050505090565b82850191508151818111156126635750505050505090565b843d870101602082850101111561267d5750505050505090565b61268c60208286010187611ffc565b509095945050505050565b600073ffffffffffffffffffffffffffffffffffffffff808816835280871660208401525060a060408301526126d060a08301866122e3565b82810360608401526126e281866122e3565b905082810360808401526126f68185611f1c565b98975050505050505050565b600082612738577f4e487b7100000000000000000000000000000000000000000000000000000000600052601260045260246000fd5b50049056fea2646970667358221220f7567140b9d4ee60bd5e08a682049624716198b5acb757f344a92f184855771464736f6c634300080c0033",
  "immutableReferences": {},
  "source": "// SPDX-License-Identifier: MIT\n\npragma solidity ^0.8.0;\n\nimport \"../ERC1155/SnapshotERC1155.sol\";\n\ncontract ERC1155SnapshotMock is SnapshotERC1155 {\n    uint256 private LastTokenId = 1;\n\n    constructor(\n        string memory url,\n        address initialAccount,\n        uint256 initialBalance\n    ) ERC1155(url) {\n        _mint(initialAccount, LastTokenId, initialBalance, \"Dummy Url\");\n        LastTokenId += 1;\n    }\n\n    function snapshot() public {\n        _snapshot();\n    }\n\n    function mint(address account, uint256 tokenId, uint256 amount) public {\n        if (tokenId >= LastTokenId) {\n            revert(\"Invalid token\");\n        }\n        _mint(account, tokenId, amount, \"Dummy Url\");\n    }\n\n    function createNewToken(address account, uint256 amount) public {\n        _mint(account, LastTokenId, amount, \"Dummy Url\");\n        LastTokenId += 1;\n    }\n\n    function burn(address account, uint256 tokenId, uint256 amount) public {\n        _burn(account, tokenId, amount);\n    }\n}\n",
  "sourcePath": "/Users/a1/Desktop/Office/projects/CrowdRecords/Contracts/contracts/Mocks/SnapshotERC1155Mock.sol",
  "compiler": {
    "name": "solc",
    "version": "0.8.12+commit.f00d7308.Emscripten.clang"
  },
  "schemaVersion": "3.4.6",
  "updatedAt": "2023-06-22T12:30:17.703Z",
  "devdoc": {
    "kind": "dev",
    "methods": {
      "balanceOf(address,uint256)": {
        "details": "See {IERC1155-balanceOf}. Requirements: - `account` cannot be the zero address."
      },
      "balanceOfAt(address,uint256,uint256)": {
        "details": "Retrieves the balance of `account` at the time `snapshotId` was created."
      },
      "balanceOfBatch(address[],uint256[])": {
        "details": "See {IERC1155-balanceOfBatch}. Requirements: - `accounts` and `ids` must have the same length."
      },
      "exists(uint256)": {
        "details": "Indicates whether any token exist with a given id, or not."
      },
      "isApprovedForAll(address,address)": {
        "details": "See {IERC1155-isApprovedForAll}."
      },
      "safeBatchTransferFrom(address,address,uint256[],uint256[],bytes)": {
        "details": "See {IERC1155-safeBatchTransferFrom}."
      },
      "safeTransferFrom(address,address,uint256,uint256,bytes)": {
        "details": "See {IERC1155-safeTransferFrom}."
      },
      "setApprovalForAll(address,bool)": {
        "details": "See {IERC1155-setApprovalForAll}."
      },
      "supportsInterface(bytes4)": {
        "details": "See {IERC165-supportsInterface}."
      },
      "totalSupply(uint256)": {
        "details": "Total amount of tokens in with a given id."
      },
      "totalSupplyAt(uint256,uint256)": {
        "details": "Retrieves the total supply at the time `snapshotId` was created."
      },
      "uri(uint256)": {
        "details": "See {IERC1155MetadataURI-uri}. This implementation returns the same URI for *all* token types. It relies on the token type ID substitution mechanism https://eips.ethereum.org/EIPS/eip-1155#metadata[defined in the EIP]. Clients calling this function must replace the `\\{id\\}` substring with the actual token type ID."
      }
    },
    "version": 1
  },
  "userdoc": {
    "kind": "user",
    "methods": {},
    "version": 1
  }
}