{
  "contractName": "ERC20SnapshotMock",
  "abi": [
    {
      "inputs": [
        {
          "internalType": "string",
          "name": "url",
          "type": "string"
        },
        {
          "internalType": "address",
          "name": "initialAccount",
          "type": "address"
        },
        {
          "internalType": "uint256",
          "name": "initialBalance",
          "type": "uint256"
        }
      ],
      "stateMutability": "nonpayable",
      "type": "constructor"
    },
    {
      "anonymous": false,
      "inputs": [
        {
          "indexed": true,
          "internalType": "address",
          "name": "account",
          "type": "address"
        },
        {
          "indexed": true,
          "internalType": "address",
          "name": "operator",
          "type": "address"
        },
        {
          "indexed": false,
          "internalType": "bool",
          "name": "approved",
          "type": "bool"
        }
      ],
      "name": "ApprovalForAll",
      "type": "event"
    },
    {
      "anonymous": false,
      "inputs": [
        {
          "indexed": false,
          "internalType": "uint256",
          "name": "id",
          "type": "uint256"
        }
      ],
      "name": "Snapshot",
      "type": "event"
    },
    {
      "anonymous": false,
      "inputs": [
        {
          "indexed": true,
          "internalType": "address",
          "name": "operator",
          "type": "address"
        },
        {
          "indexed": true,
          "internalType": "address",
          "name": "from",
          "type": "address"
        },
        {
          "indexed": true,
          "internalType": "address",
          "name": "to",
          "type": "address"
        },
        {
          "indexed": false,
          "internalType": "uint256[]",
          "name": "ids",
          "type": "uint256[]"
        },
        {
          "indexed": false,
          "internalType": "uint256[]",
          "name": "values",
          "type": "uint256[]"
        }
      ],
      "name": "TransferBatch",
      "type": "event"
    },
    {
      "anonymous": false,
      "inputs": [
        {
          "indexed": true,
          "internalType": "address",
          "name": "operator",
          "type": "address"
        },
        {
          "indexed": true,
          "internalType": "address",
          "name": "from",
          "type": "address"
        },
        {
          "indexed": true,
          "internalType": "address",
          "name": "to",
          "type": "address"
        },
        {
          "indexed": false,
          "internalType": "uint256",
          "name": "id",
          "type": "uint256"
        },
        {
          "indexed": false,
          "internalType": "uint256",
          "name": "value",
          "type": "uint256"
        }
      ],
      "name": "TransferSingle",
      "type": "event"
    },
    {
      "anonymous": false,
      "inputs": [
        {
          "indexed": false,
          "internalType": "string",
          "name": "value",
          "type": "string"
        },
        {
          "indexed": true,
          "internalType": "uint256",
          "name": "id",
          "type": "uint256"
        }
      ],
      "name": "URI",
      "type": "event"
    },
    {
      "inputs": [
        {
          "internalType": "address",
          "name": "account",
          "type": "address"
        },
        {
          "internalType": "uint256",
          "name": "id",
          "type": "uint256"
        }
      ],
      "name": "balanceOf",
      "outputs": [
        {
          "internalType": "uint256",
          "name": "",
          "type": "uint256"
        }
      ],
      "stateMutability": "view",
      "type": "function"
    },
    {
      "inputs": [
        {
          "internalType": "address",
          "name": "account",
          "type": "address"
        },
        {
          "internalType": "uint256",
          "name": "snapshotId",
          "type": "uint256"
        },
        {
          "internalType": "uint256",
          "name": "tokenId",
          "type": "uint256"
        }
      ],
      "name": "balanceOfAt",
      "outputs": [
        {
          "internalType": "uint256",
          "name": "",
          "type": "uint256"
        }
      ],
      "stateMutability": "view",
      "type": "function"
    },
    {
      "inputs": [
        {
          "internalType": "address[]",
          "name": "accounts",
          "type": "address[]"
        },
        {
          "internalType": "uint256[]",
          "name": "ids",
          "type": "uint256[]"
        }
      ],
      "name": "balanceOfBatch",
      "outputs": [
        {
          "internalType": "uint256[]",
          "name": "",
          "type": "uint256[]"
        }
      ],
      "stateMutability": "view",
      "type": "function"
    },
    {
      "inputs": [
        {
          "internalType": "uint256",
          "name": "id",
          "type": "uint256"
        }
      ],
      "name": "exists",
      "outputs": [
        {
          "internalType": "bool",
          "name": "",
          "type": "bool"
        }
      ],
      "stateMutability": "view",
      "type": "function"
    },
    {
      "inputs": [
        {
          "internalType": "address",
          "name": "account",
          "type": "address"
        },
        {
          "internalType": "address",
          "name": "operator",
          "type": "address"
        }
      ],
      "name": "isApprovedForAll",
      "outputs": [
        {
          "internalType": "bool",
          "name": "",
          "type": "bool"
        }
      ],
      "stateMutability": "view",
      "type": "function"
    },
    {
      "inputs": [
        {
          "internalType": "address",
          "name": "from",
          "type": "address"
        },
        {
          "internalType": "address",
          "name": "to",
          "type": "address"
        },
        {
          "internalType": "uint256[]",
          "name": "ids",
          "type": "uint256[]"
        },
        {
          "internalType": "uint256[]",
          "name": "amounts",
          "type": "uint256[]"
        },
        {
          "internalType": "bytes",
          "name": "data",
          "type": "bytes"
        }
      ],
      "name": "safeBatchTransferFrom",
      "outputs": [],
      "stateMutability": "nonpayable",
      "type": "function"
    },
    {
      "inputs": [
        {
          "internalType": "address",
          "name": "from",
          "type": "address"
        },
        {
          "internalType": "address",
          "name": "to",
          "type": "address"
        },
        {
          "internalType": "uint256",
          "name": "id",
          "type": "uint256"
        },
        {
          "internalType": "uint256",
          "name": "amount",
          "type": "uint256"
        },
        {
          "internalType": "bytes",
          "name": "data",
          "type": "bytes"
        }
      ],
      "name": "safeTransferFrom",
      "outputs": [],
      "stateMutability": "nonpayable",
      "type": "function"
    },
    {
      "inputs": [
        {
          "internalType": "address",
          "name": "operator",
          "type": "address"
        },
        {
          "internalType": "bool",
          "name": "approved",
          "type": "bool"
        }
      ],
      "name": "setApprovalForAll",
      "outputs": [],
      "stateMutability": "nonpayable",
      "type": "function"
    },
    {
      "inputs": [],
      "name": "snap",
      "outputs": [
        {
          "internalType": "uint256",
          "name": "",
          "type": "uint256"
        }
      ],
      "stateMutability": "nonpayable",
      "type": "function"
    },
    {
      "inputs": [
        {
          "internalType": "bytes4",
          "name": "interfaceId",
          "type": "bytes4"
        }
      ],
      "name": "supportsInterface",
      "outputs": [
        {
          "internalType": "bool",
          "name": "",
          "type": "bool"
        }
      ],
      "stateMutability": "view",
      "type": "function"
    },
    {
      "inputs": [
        {
          "internalType": "uint256",
          "name": "id",
          "type": "uint256"
        }
      ],
      "name": "totalSupply",
      "outputs": [
        {
          "internalType": "uint256",
          "name": "",
          "type": "uint256"
        }
      ],
      "stateMutability": "view",
      "type": "function"
    },
    {
      "inputs": [
        {
          "internalType": "uint256",
          "name": "snapshotId",
          "type": "uint256"
        },
        {
          "internalType": "uint256",
          "name": "tokenId",
          "type": "uint256"
        }
      ],
      "name": "totalSupplyAt",
      "outputs": [
        {
          "internalType": "uint256",
          "name": "",
          "type": "uint256"
        }
      ],
      "stateMutability": "view",
      "type": "function"
    },
    {
      "inputs": [
        {
          "internalType": "uint256",
          "name": "",
          "type": "uint256"
        }
      ],
      "name": "uri",
      "outputs": [
        {
          "internalType": "string",
          "name": "",
          "type": "string"
        }
      ],
      "stateMutability": "view",
      "type": "function"
    },
    {
      "inputs": [],
      "name": "snapshot",
      "outputs": [],
      "stateMutability": "nonpayable",
      "type": "function"
    },
    {
      "inputs": [
        {
          "internalType": "address",
          "name": "account",
          "type": "address"
        },
        {
          "internalType": "uint256",
          "name": "tokenId",
          "type": "uint256"
        },
        {
          "internalType": "uint256",
          "name": "amount",
          "type": "uint256"
        }
      ],
      "name": "mint",
      "outputs": [],
      "stateMutability": "nonpayable",
      "type": "function"
    },
    {
      "inputs": [
        {
          "internalType": "address",
          "name": "account",
          "type": "address"
        },
        {
          "internalType": "uint256",
          "name": "amount",
          "type": "uint256"
        }
      ],
      "name": "createNewToken",
      "outputs": [],
      "stateMutability": "nonpayable",
      "type": "function"
    },
    {
      "inputs": [
        {
          "internalType": "address",
          "name": "account",
          "type": "address"
        },
        {
          "internalType": "uint256",
          "name": "tokenId",
          "type": "uint256"
        },
        {
          "internalType": "uint256",
          "name": "amount",
          "type": "uint256"
        }
      ],
      "name": "burn",
      "outputs": [],
      "stateMutability": "nonpayable",
      "type": "function"
    }
  ],
  "bytecode": "0x608060405260016007553480156200001657600080fd5b5060405162004db938038062004db983398181016040528101906200003c919062000e41565b826200004e81620000bf60201b60201c565b506200009a82600754836040518060400160405280600981526020017f44756d6d792055726c0000000000000000000000000000000000000000000000815250620000db60201b60201c565b600160076000828254620000af919062000eeb565b92505081905550505050620015b9565b8060029080519060200190620000d792919062000b54565b5050565b600073ffffffffffffffffffffffffffffffffffffffff168473ffffffffffffffffffffffffffffffffffffffff1614156200014e576040517f08c379a0000000000000000000000000000000000000000000000000000000008152600401620001459062000fcf565b60405180910390fd5b600062000160620002a060201b60201c565b905062000199816000876200017b88620002a860201b60201c565b6200018c88620002a860201b60201c565b876200032960201b60201c565b8260008086815260200190815260200160002060008773ffffffffffffffffffffffffffffffffffffffff1673ffffffffffffffffffffffffffffffffffffffff1681526020019081526020016000206000828254620001fa919062000eeb565b925050819055508473ffffffffffffffffffffffffffffffffffffffff16600073ffffffffffffffffffffffffffffffffffffffff168273ffffffffffffffffffffffffffffffffffffffff167fc3d58168c5ae7397731d063d5bbf3d657854427343f4c083240f7aacaa2d0f6287876040516200027a92919062001002565b60405180910390a462000299816000878787876200043060201b60201c565b5050505050565b600033905090565b60606000600167ffffffffffffffff811115620002ca57620002c962000c33565b5b604051908082528060200260200182016040528015620002f95781602001602082028036833780820191505090505b50905082816000815181106200031457620003136200102f565b5b60200260200101818152505080915050919050565b600073ffffffffffffffffffffffffffffffffffffffff168573ffffffffffffffffffffffffffffffffffffffff16141562000388576200037184846200062a60201b60201c565b6200038283620006fe60201b60201c565b6200040d565b600073ffffffffffffffffffffffffffffffffffffffff168473ffffffffffffffffffffffffffffffffffffffff161415620003e757620003d085846200062a60201b60201c565b620003e183620006fe60201b60201c565b6200040c565b620003f985846200062a60201b60201c565b6200040b84846200062a60201b60201c565b5b5b620004288686868686866200079360201b62000ae01760201c565b505050505050565b6200045c8473ffffffffffffffffffffffffffffffffffffffff166200093460201b62000c5a1760201c565b1562000622578373ffffffffffffffffffffffffffffffffffffffff1663f23a6e6187878686866040518663ffffffff1660e01b8152600401620004a5959493929190620010cc565b6020604051808303816000875af1925050508015620004e457506040513d601f19601f82011682018060405250810190620004e191906200118d565b60015b6200059657620004f3620011cc565b806308c379a014156200055757506200050b620011f1565b8062000518575062000559565b806040517f08c379a00000000000000000000000000000000000000000000000000000000081526004016200054e9190620012df565b60405180910390fd5b505b6040517f08c379a00000000000000000000000000000000000000000000000000000000081526004016200058d9062001379565b60405180910390fd5b63f23a6e6160e01b7bffffffffffffffffffffffffffffffffffffffffffffffffffffffff1916817bffffffffffffffffffffffffffffffffffffffffffffffffffffffff19161462000620576040517f08c379a0000000000000000000000000000000000000000000000000000000008152600401620006179062001411565b60405180910390fd5b505b505050505050565b60005b8151811015620006f957620006e3600460008573ffffffffffffffffffffffffffffffffffffffff1673ffffffffffffffffffffffffffffffffffffffff16815260200190815260200160002060008484815181106200069257620006916200102f565b5b60200260200101518152602001908152602001600020620006d785858581518110620006c357620006c26200102f565b5b60200260200101516200095760201b60201c565b62000a2360201b60201c565b8080620006f09062001433565b9150506200062d565b505050565b60005b81518110156200078f5762000779600560008484815181106200072957620007286200102f565b5b602002602001015181526020019081526020016000206200076d8484815181106200075957620007586200102f565b5b602002602001015162000aaf60201b60201c565b62000a2360201b60201c565b8080620007869062001433565b91505062000701565b5050565b620007ae86868686868662000acc60201b62000c7d1760201c565b600073ffffffffffffffffffffffffffffffffffffffff168573ffffffffffffffffffffffffffffffffffffffff1614156200086d5760005b83518110156200086b578281815181106200080757620008066200102f565b5b6020026020010151600360008684815181106200082957620008286200102f565b5b60200260200101518152602001908152602001600020600082825462000850919062000eeb565b9250508190555080620008639062001433565b9050620007e7565b505b600073ffffffffffffffffffffffffffffffffffffffff168473ffffffffffffffffffffffffffffffffffffffff1614156200092c5760005b83518110156200092a57828181518110620008c657620008c56200102f565b5b602002602001015160036000868481518110620008e857620008e76200102f565b5b6020026020010151815260200190815260200160002060008282546200090f919062001481565b9250508190555080620009229062001433565b9050620008a6565b505b505050505050565b6000808273ffffffffffffffffffffffffffffffffffffffff163b119050919050565b60008073ffffffffffffffffffffffffffffffffffffffff168373ffffffffffffffffffffffffffffffffffffffff161415620009cb576040517f08c379a0000000000000000000000000000000000000000000000000000000008152600401620009c29062001532565b60405180910390fd5b60008083815260200190815260200160002060008473ffffffffffffffffffffffffffffffffffffffff1673ffffffffffffffffffffffffffffffffffffffff16815260200190815260200160002054905092915050565b600062000a3562000ad460201b60201c565b90508062000a4c8460000162000af260201b60201c565b101562000aaa5782600001819080600181540180825580915050600190039060005260206000200160009091909190915055826001018290806001815401808255809150506001900390600052602060002001600090919091909150555b505050565b600060036000838152602001908152602001600020549050919050565b505050505050565b600062000aed600662000b4660201b62000c851760201c565b905090565b6000808280549050141562000b0b576000905062000b41565b816001838054905062000b1f919062001481565b8154811062000b335762000b326200102f565b5b906000526020600020015490505b919050565b600081600001549050919050565b82805462000b629062001583565b90600052602060002090601f01602090048101928262000b86576000855562000bd2565b82601f1062000ba157805160ff191683800117855562000bd2565b8280016001018555821562000bd2579182015b8281111562000bd157825182559160200191906001019062000bb4565b5b50905062000be1919062000be5565b5090565b5b8082111562000c0057600081600090555060010162000be6565b5090565b6000604051905090565b600080fd5b600080fd5b600080fd5b600080fd5b6000601f19601f8301169050919050565b7f4e487b7100000000000000000000000000000000000000000000000000000000600052604160045260246000fd5b62000c6d8262000c22565b810181811067ffffffffffffffff8211171562000c8f5762000c8e62000c33565b5b80604052505050565b600062000ca462000c04565b905062000cb2828262000c62565b919050565b600067ffffffffffffffff82111562000cd55762000cd462000c33565b5b62000ce08262000c22565b9050602081019050919050565b60005b8381101562000d0d57808201518184015260208101905062000cf0565b8381111562000d1d576000848401525b50505050565b600062000d3a62000d348462000cb7565b62000c98565b90508281526020810184848401111562000d595762000d5862000c1d565b5b62000d6684828562000ced565b509392505050565b600082601f83011262000d865762000d8562000c18565b5b815162000d9884826020860162000d23565b91505092915050565b600073ffffffffffffffffffffffffffffffffffffffff82169050919050565b600062000dce8262000da1565b9050919050565b62000de08162000dc1565b811462000dec57600080fd5b50565b60008151905062000e008162000dd5565b92915050565b6000819050919050565b62000e1b8162000e06565b811462000e2757600080fd5b50565b60008151905062000e3b8162000e10565b92915050565b60008060006060848603121562000e5d5762000e5c62000c0e565b5b600084015167ffffffffffffffff81111562000e7e5762000e7d62000c13565b5b62000e8c8682870162000d6e565b935050602062000e9f8682870162000def565b925050604062000eb28682870162000e2a565b9150509250925092565b7f4e487b7100000000000000000000000000000000000000000000000000000000600052601160045260246000fd5b600062000ef88262000e06565b915062000f058362000e06565b9250827fffffffffffffffffffffffffffffffffffffffffffffffffffffffffffffffff0382111562000f3d5762000f3c62000ebc565b5b828201905092915050565b600082825260208201905092915050565b7f455243313135353a206d696e7420746f20746865207a65726f2061646472657360008201527f7300000000000000000000000000000000000000000000000000000000000000602082015250565b600062000fb760218362000f48565b915062000fc48262000f59565b604082019050919050565b6000602082019050818103600083015262000fea8162000fa8565b9050919050565b62000ffc8162000e06565b82525050565b600060408201905062001019600083018562000ff1565b62001028602083018462000ff1565b9392505050565b7f4e487b7100000000000000000000000000000000000000000000000000000000600052603260045260246000fd5b620010698162000dc1565b82525050565b600081519050919050565b600082825260208201905092915050565b600062001098826200106f565b620010a481856200107a565b9350620010b681856020860162000ced565b620010c18162000c22565b840191505092915050565b600060a082019050620010e360008301886200105e565b620010f260208301876200105e565b62001101604083018662000ff1565b62001110606083018562000ff1565b81810360808301526200112481846200108b565b90509695505050505050565b60007fffffffff0000000000000000000000000000000000000000000000000000000082169050919050565b620011678162001130565b81146200117357600080fd5b50565b60008151905062001187816200115c565b92915050565b600060208284031215620011a657620011a562000c0e565b5b6000620011b68482850162001176565b91505092915050565b60008160e01c9050919050565b600060033d1115620011ee5760046000803e620011eb600051620011bf565b90505b90565b600060443d1015620012035762001290565b6200120d62000c04565b60043d036004823e80513d602482011167ffffffffffffffff821117156200123757505062001290565b808201805167ffffffffffffffff81111562001257575050505062001290565b80602083010160043d0385018111156200127657505050505062001290565b620012878260200185018662000c62565b82955050505050505b90565b600081519050919050565b6000620012ab8262001293565b620012b7818562000f48565b9350620012c981856020860162000ced565b620012d48162000c22565b840191505092915050565b60006020820190508181036000830152620012fb81846200129e565b905092915050565b7f455243313135353a207472616e7366657220746f206e6f6e204552433131353560008201527f526563656976657220696d706c656d656e746572000000000000000000000000602082015250565b60006200136160348362000f48565b91506200136e8262001303565b604082019050919050565b60006020820190508181036000830152620013948162001352565b9050919050565b7f455243313135353a204552433131353552656365697665722072656a6563746560008201527f6420746f6b656e73000000000000000000000000000000000000000000000000602082015250565b6000620013f960288362000f48565b915062001406826200139b565b604082019050919050565b600060208201905081810360008301526200142c81620013ea565b9050919050565b6000620014408262000e06565b91507fffffffffffffffffffffffffffffffffffffffffffffffffffffffffffffffff82141562001476576200147562000ebc565b5b600182019050919050565b60006200148e8262000e06565b91506200149b8362000e06565b925082821015620014b157620014b062000ebc565b5b828203905092915050565b7f455243313135353a2062616c616e636520717565727920666f7220746865207a60008201527f65726f2061646472657373000000000000000000000000000000000000000000602082015250565b60006200151a602b8362000f48565b91506200152782620014bc565b604082019050919050565b600060208201905081810360008301526200154d816200150b565b9050919050565b7f4e487b7100000000000000000000000000000000000000000000000000000000600052602260045260246000fd5b600060028204905060018216806200159c57607f821691505b60208210811415620015b357620015b262001554565b5b50919050565b6137f080620015c96000396000f3fe608060405234801561001057600080fd5b506004361061010a5760003560e01c80638aa7a8b0116100a2578063a77d38fa11610071578063a77d38fa146102d9578063bd85b039146102f7578063e985e9c514610327578063f242432a14610357578063f5298aca146103735761010a565b80638aa7a8b0146102675780639711715a14610297578063a22cb465146102a1578063a30a0b33146102bd5761010a565b80632eb2c2d6116100de5780632eb2c2d6146101bb5780634e1273f4146101d75780634f558e7914610207578063626da068146102375761010a565b8062fdd58e1461010f57806301ffc9a71461013f5780630e89341c1461016f578063156e29f61461019f575b600080fd5b610129600480360381019061012491906121c3565b61038f565b6040516101369190612212565b60405180910390f35b61015960048036038101906101549190612285565b610458565b60405161016691906122cd565b60405180910390f35b610189600480360381019061018491906122e8565b61053a565b60405161019691906123ae565b60405180910390f35b6101b960048036038101906101b491906123d0565b6105ce565b005b6101d560048036038101906101d09190612620565b610658565b005b6101f160048036038101906101ec91906127b2565b6106f9565b6040516101fe91906128e8565b60405180910390f35b610221600480360381019061021c91906122e8565b610812565b60405161022e91906122cd565b60405180910390f35b610251600480360381019061024c91906123d0565b610826565b60405161025e9190612212565b60405180910390f35b610281600480360381019061027c919061290a565b6108a9565b60405161028e9190612212565b60405180910390f35b61029f6108ed565b005b6102bb60048036038101906102b69190612976565b6108f8565b005b6102d760048036038101906102d291906121c3565b61090e565b005b6102e161096f565b6040516102ee9190612212565b60405180910390f35b610311600480360381019061030c91906122e8565b61097e565b60405161031e9190612212565b60405180910390f35b610341600480360381019061033c91906129b6565b61099b565b60405161034e91906122cd565b60405180910390f35b610371600480360381019061036c91906129f6565b610a2f565b005b61038d600480360381019061038891906123d0565b610ad0565b005b60008073ffffffffffffffffffffffffffffffffffffffff168373ffffffffffffffffffffffffffffffffffffffff161415610400576040517f08c379a00000000000000000000000000000000000000000000000000000000081526004016103f790612aff565b60405180910390fd5b60008083815260200190815260200160002060008473ffffffffffffffffffffffffffffffffffffffff1673ffffffffffffffffffffffffffffffffffffffff16815260200190815260200160002054905092915050565b60007fd9b67a26000000000000000000000000000000000000000000000000000000007bffffffffffffffffffffffffffffffffffffffffffffffffffffffff1916827bffffffffffffffffffffffffffffffffffffffffffffffffffffffff1916148061052357507f0e89341c000000000000000000000000000000000000000000000000000000007bffffffffffffffffffffffffffffffffffffffffffffffffffffffff1916827bffffffffffffffffffffffffffffffffffffffffffffffffffffffff1916145b80610533575061053282610c93565b5b9050919050565b60606002805461054990612b4e565b80601f016020809104026020016040519081016040528092919081815260200182805461057590612b4e565b80156105c25780601f10610597576101008083540402835291602001916105c2565b820191906000526020600020905b8154815290600101906020018083116105a557829003601f168201915b50505050509050919050565b6007548210610612576040517f08c379a000000000000000000000000000000000000000000000000000000000815260040161060990612bcc565b60405180910390fd5b6106538383836040518060400160405280600981526020017f44756d6d792055726c0000000000000000000000000000000000000000000000815250610cfd565b505050565b610660610e93565b73ffffffffffffffffffffffffffffffffffffffff168573ffffffffffffffffffffffffffffffffffffffff1614806106a657506106a5856106a0610e93565b61099b565b5b6106e5576040517f08c379a00000000000000000000000000000000000000000000000000000000081526004016106dc90612c5e565b60405180910390fd5b6106f28585858585610e9b565b5050505050565b6060815183511461073f576040517f08c379a000000000000000000000000000000000000000000000000000000000815260040161073690612cf0565b60405180910390fd5b6000835167ffffffffffffffff81111561075c5761075b612428565b5b60405190808252806020026020018201604052801561078a5781602001602082028036833780820191505090505b50905060005b8451811015610807576107d78582815181106107af576107ae612d10565b5b60200260200101518583815181106107ca576107c9612d10565b5b602002602001015161038f565b8282815181106107ea576107e9612d10565b5b6020026020010181815250508061080090612d6e565b9050610790565b508091505092915050565b60008061081e8361097e565b119050919050565b600080600061088485600460008973ffffffffffffffffffffffffffffffffffffffff1673ffffffffffffffffffffffffffffffffffffffff16815260200190815260200160002060008781526020019081526020016000206111af565b915091508161089c57610897868561038f565b61089e565b805b925050509392505050565b60008060006108ca85600560008781526020019081526020016000206111af565b91509150816108e1576108dc8461097e565b6108e3565b805b9250505092915050565b6108f56112a5565b50565b61090a610903610e93565b83836112fb565b5050565b61095182600754836040518060400160405280600981526020017f44756d6d792055726c0000000000000000000000000000000000000000000000815250610cfd565b6001600760008282546109649190612db7565b925050819055505050565b60006109796112a5565b905090565b600060036000838152602001908152602001600020549050919050565b6000600160008473ffffffffffffffffffffffffffffffffffffffff1673ffffffffffffffffffffffffffffffffffffffff16815260200190815260200160002060008373ffffffffffffffffffffffffffffffffffffffff1673ffffffffffffffffffffffffffffffffffffffff16815260200190815260200160002060009054906101000a900460ff16905092915050565b610a37610e93565b73ffffffffffffffffffffffffffffffffffffffff168573ffffffffffffffffffffffffffffffffffffffff161480610a7d5750610a7c85610a77610e93565b61099b565b5b610abc576040517f08c379a0000000000000000000000000000000000000000000000000000000008152600401610ab390612e7f565b60405180910390fd5b610ac98585858585611468565b5050505050565b610adb8383836116ea565b505050565b610aee868686868686610c7d565b600073ffffffffffffffffffffffffffffffffffffffff168573ffffffffffffffffffffffffffffffffffffffff161415610ba05760005b8351811015610b9e57828181518110610b4257610b41612d10565b5b602002602001015160036000868481518110610b6157610b60612d10565b5b602002602001015181526020019081526020016000206000828254610b869190612db7565b9250508190555080610b9790612d6e565b9050610b26565b505b600073ffffffffffffffffffffffffffffffffffffffff168473ffffffffffffffffffffffffffffffffffffffff161415610c525760005b8351811015610c5057828181518110610bf457610bf3612d10565b5b602002602001015160036000868481518110610c1357610c12612d10565b5b602002602001015181526020019081526020016000206000828254610c389190612e9f565b9250508190555080610c4990612d6e565b9050610bd8565b505b505050505050565b6000808273ffffffffffffffffffffffffffffffffffffffff163b119050919050565b505050505050565b600081600001549050919050565b60007f01ffc9a7000000000000000000000000000000000000000000000000000000007bffffffffffffffffffffffffffffffffffffffffffffffffffffffff1916827bffffffffffffffffffffffffffffffffffffffffffffffffffffffff1916149050919050565b600073ffffffffffffffffffffffffffffffffffffffff168473ffffffffffffffffffffffffffffffffffffffff161415610d6d576040517f08c379a0000000000000000000000000000000000000000000000000000000008152600401610d6490612f45565b60405180910390fd5b6000610d77610e93565b9050610d9881600087610d8988611907565b610d9288611907565b87611981565b8260008086815260200190815260200160002060008773ffffffffffffffffffffffffffffffffffffffff1673ffffffffffffffffffffffffffffffffffffffff1681526020019081526020016000206000828254610df79190612db7565b925050819055508473ffffffffffffffffffffffffffffffffffffffff16600073ffffffffffffffffffffffffffffffffffffffff168273ffffffffffffffffffffffffffffffffffffffff167fc3d58168c5ae7397731d063d5bbf3d657854427343f4c083240f7aacaa2d0f628787604051610e75929190612f65565b60405180910390a4610e8c81600087878787611a47565b5050505050565b600033905090565b8151835114610edf576040517f08c379a0000000000000000000000000000000000000000000000000000000008152600401610ed690613000565b60405180910390fd5b600073ffffffffffffffffffffffffffffffffffffffff168473ffffffffffffffffffffffffffffffffffffffff161415610f4f576040517f08c379a0000000000000000000000000000000000000000000000000000000008152600401610f4690613092565b60405180910390fd5b6000610f59610e93565b9050610f69818787878787611981565b60005b845181101561111a576000858281518110610f8a57610f89612d10565b5b602002602001015190506000858381518110610fa957610fa8612d10565b5b60200260200101519050600080600084815260200190815260200160002060008b73ffffffffffffffffffffffffffffffffffffffff1673ffffffffffffffffffffffffffffffffffffffff1681526020019081526020016000205490508181101561104a576040517f08c379a000000000000000000000000000000000000000000000000000000000815260040161104190613124565b60405180910390fd5b81810360008085815260200190815260200160002060008c73ffffffffffffffffffffffffffffffffffffffff1673ffffffffffffffffffffffffffffffffffffffff168152602001908152602001600020819055508160008085815260200190815260200160002060008b73ffffffffffffffffffffffffffffffffffffffff1673ffffffffffffffffffffffffffffffffffffffff16815260200190815260200160002060008282546110ff9190612db7565b925050819055505050508061111390612d6e565b9050610f6c565b508473ffffffffffffffffffffffffffffffffffffffff168673ffffffffffffffffffffffffffffffffffffffff168273ffffffffffffffffffffffffffffffffffffffff167f4a39dc06d4c0dbc64b70af90fd698a233a518aa5d07e595d983b8c0526c8f7fb8787604051611191929190613144565b60405180910390a46111a7818787878787611c1f565b505050505050565b600080600084116111f5576040517f08c379a00000000000000000000000000000000000000000000000000000000081526004016111ec906131c7565b60405180910390fd5b6111fd611df7565b84111561123f576040517f08c379a000000000000000000000000000000000000000000000000000000000815260040161123690613233565b60405180910390fd5b60006112578585600001611e0890919063ffffffff16565b9050836000018054905081141561127557600080925092505061129e565b600184600101828154811061128d5761128c612d10565b5b906000526020600020015492509250505b9250929050565b60006112b16006611ee2565b60006112bb611df7565b90507f8030e83b04d87bef53480e26263266d6ca66863aa8506aca6f2559d18aa1cb67816040516112ec9190612212565b60405180910390a18091505090565b8173ffffffffffffffffffffffffffffffffffffffff168373ffffffffffffffffffffffffffffffffffffffff16141561136a576040517f08c379a0000000000000000000000000000000000000000000000000000000008152600401611361906132c5565b60405180910390fd5b80600160008573ffffffffffffffffffffffffffffffffffffffff1673ffffffffffffffffffffffffffffffffffffffff16815260200190815260200160002060008473ffffffffffffffffffffffffffffffffffffffff1673ffffffffffffffffffffffffffffffffffffffff16815260200190815260200160002060006101000a81548160ff0219169083151502179055508173ffffffffffffffffffffffffffffffffffffffff168373ffffffffffffffffffffffffffffffffffffffff167f17307eab39ab6107e8899845ad3d59bd9653f200f220920489ca2b5937696c318360405161145b91906122cd565b60405180910390a3505050565b600073ffffffffffffffffffffffffffffffffffffffff168473ffffffffffffffffffffffffffffffffffffffff1614156114d8576040517f08c379a00000000000000000000000000000000000000000000000000000000081526004016114cf90613092565b60405180910390fd5b60006114e2610e93565b90506115028187876114f388611907565b6114fc88611907565b87611981565b600080600086815260200190815260200160002060008873ffffffffffffffffffffffffffffffffffffffff1673ffffffffffffffffffffffffffffffffffffffff16815260200190815260200160002054905083811015611599576040517f08c379a000000000000000000000000000000000000000000000000000000000815260040161159090613124565b60405180910390fd5b83810360008087815260200190815260200160002060008973ffffffffffffffffffffffffffffffffffffffff1673ffffffffffffffffffffffffffffffffffffffff168152602001908152602001600020819055508360008087815260200190815260200160002060008873ffffffffffffffffffffffffffffffffffffffff1673ffffffffffffffffffffffffffffffffffffffff168152602001908152602001600020600082825461164e9190612db7565b925050819055508573ffffffffffffffffffffffffffffffffffffffff168773ffffffffffffffffffffffffffffffffffffffff168373ffffffffffffffffffffffffffffffffffffffff167fc3d58168c5ae7397731d063d5bbf3d657854427343f4c083240f7aacaa2d0f6288886040516116cb929190612f65565b60405180910390a46116e1828888888888611a47565b50505050505050565b600073ffffffffffffffffffffffffffffffffffffffff168373ffffffffffffffffffffffffffffffffffffffff16141561175a576040517f08c379a000000000000000000000000000000000000000000000000000000000815260040161175190613357565b60405180910390fd5b6000611764610e93565b90506117948185600061177687611907565b61177f87611907565b60405180602001604052806000815250611981565b600080600085815260200190815260200160002060008673ffffffffffffffffffffffffffffffffffffffff1673ffffffffffffffffffffffffffffffffffffffff1681526020019081526020016000205490508281101561182b576040517f08c379a0000000000000000000000000000000000000000000000000000000008152600401611822906133e9565b60405180910390fd5b82810360008086815260200190815260200160002060008773ffffffffffffffffffffffffffffffffffffffff1673ffffffffffffffffffffffffffffffffffffffff16815260200190815260200160002081905550600073ffffffffffffffffffffffffffffffffffffffff168573ffffffffffffffffffffffffffffffffffffffff168373ffffffffffffffffffffffffffffffffffffffff167fc3d58168c5ae7397731d063d5bbf3d657854427343f4c083240f7aacaa2d0f6287876040516118f8929190612f65565b60405180910390a45050505050565b60606000600167ffffffffffffffff81111561192657611925612428565b5b6040519080825280602002602001820160405280156119545781602001602082028036833780820191505090505b509050828160008151811061196c5761196b612d10565b5b60200260200101818152505080915050919050565b600073ffffffffffffffffffffffffffffffffffffffff168573ffffffffffffffffffffffffffffffffffffffff1614156119ce576119c08484611ef8565b6119c983611fb2565b611a31565b600073ffffffffffffffffffffffffffffffffffffffff168473ffffffffffffffffffffffffffffffffffffffff161415611a1b57611a0d8584611ef8565b611a1683611fb2565b611a30565b611a258584611ef8565b611a2f8484611ef8565b5b5b611a3f868686868686610ae0565b505050505050565b611a668473ffffffffffffffffffffffffffffffffffffffff16610c5a565b15611c17578373ffffffffffffffffffffffffffffffffffffffff1663f23a6e6187878686866040518663ffffffff1660e01b8152600401611aac95949392919061346d565b6020604051808303816000875af1925050508015611ae857506040513d601f19601f82011682018060405250810190611ae591906134dc565b60015b611b8e57611af4613516565b806308c379a01415611b515750611b09613538565b80611b145750611b53565b806040517f08c379a0000000000000000000000000000000000000000000000000000000008152600401611b4891906123ae565b60405180910390fd5b505b6040517f08c379a0000000000000000000000000000000000000000000000000000000008152600401611b8590613640565b60405180910390fd5b63f23a6e6160e01b7bffffffffffffffffffffffffffffffffffffffffffffffffffffffff1916817bffffffffffffffffffffffffffffffffffffffffffffffffffffffff191614611c15576040517f08c379a0000000000000000000000000000000000000000000000000000000008152600401611c0c906136d2565b60405180910390fd5b505b505050505050565b611c3e8473ffffffffffffffffffffffffffffffffffffffff16610c5a565b15611def578373ffffffffffffffffffffffffffffffffffffffff1663bc197c8187878686866040518663ffffffff1660e01b8152600401611c849594939291906136f2565b6020604051808303816000875af1925050508015611cc057506040513d601f19601f82011682018060405250810190611cbd91906134dc565b60015b611d6657611ccc613516565b806308c379a01415611d295750611ce1613538565b80611cec5750611d2b565b806040517f08c379a0000000000000000000000000000000000000000000000000000000008152600401611d2091906123ae565b60405180910390fd5b505b6040517f08c379a0000000000000000000000000000000000000000000000000000000008152600401611d5d90613640565b60405180910390fd5b63bc197c8160e01b7bffffffffffffffffffffffffffffffffffffffffffffffffffffffff1916817bffffffffffffffffffffffffffffffffffffffffffffffffffffffff191614611ded576040517f08c379a0000000000000000000000000000000000000000000000000000000008152600401611de4906136d2565b60405180910390fd5b505b505050505050565b6000611e036006610c85565b905090565b60008083805490501415611e1f5760009050611edc565b600080848054905090505b80821015611e83576000611e3e838361202d565b905084868281548110611e5457611e53612d10565b5b90600052602060002001541115611e6d57809150611e7d565b600181611e7a9190612db7565b92505b50611e2a565b600082118015611ebb57508385600184611e9d9190612e9f565b81548110611eae57611ead612d10565b5b9060005260206000200154145b15611ed657600182611ecd9190612e9f565b92505050611edc565b81925050505b92915050565b6001816000016000828254019250508190555050565b60005b8151811015611fad57611f9a600460008573ffffffffffffffffffffffffffffffffffffffff1673ffffffffffffffffffffffffffffffffffffffff1681526020019081526020016000206000848481518110611f5b57611f5a612d10565b5b60200260200101518152602001908152602001600020611f9585858581518110611f8857611f87612d10565b5b602002602001015161038f565b612053565b8080611fa590612d6e565b915050611efb565b505050565b60005b81518110156120295761201660056000848481518110611fd857611fd7612d10565b5b6020026020010151815260200190815260200160002061201184848151811061200457612003612d10565b5b602002602001015161097e565b612053565b808061202190612d6e565b915050611fb5565b5050565b6000600282841861203e9190613789565b82841661204b9190612db7565b905092915050565b600061205d611df7565b90508061206c846000016120ce565b10156120c95782600001819080600181540180825580915050600190039060005260206000200160009091909190915055826001018290806001815401808255809150506001900390600052602060002001600090919091909150555b505050565b600080828054905014156120e55760009050612116565b81600183805490506120f79190612e9f565b8154811061210857612107612d10565b5b906000526020600020015490505b919050565b6000604051905090565b600080fd5b600080fd5b600073ffffffffffffffffffffffffffffffffffffffff82169050919050565b600061215a8261212f565b9050919050565b61216a8161214f565b811461217557600080fd5b50565b60008135905061218781612161565b92915050565b6000819050919050565b6121a08161218d565b81146121ab57600080fd5b50565b6000813590506121bd81612197565b92915050565b600080604083850312156121da576121d9612125565b5b60006121e885828601612178565b92505060206121f9858286016121ae565b9150509250929050565b61220c8161218d565b82525050565b60006020820190506122276000830184612203565b92915050565b60007fffffffff0000000000000000000000000000000000000000000000000000000082169050919050565b6122628161222d565b811461226d57600080fd5b50565b60008135905061227f81612259565b92915050565b60006020828403121561229b5761229a612125565b5b60006122a984828501612270565b91505092915050565b60008115159050919050565b6122c7816122b2565b82525050565b60006020820190506122e260008301846122be565b92915050565b6000602082840312156122fe576122fd612125565b5b600061230c848285016121ae565b91505092915050565b600081519050919050565b600082825260208201905092915050565b60005b8381101561234f578082015181840152602081019050612334565b8381111561235e576000848401525b50505050565b6000601f19601f8301169050919050565b600061238082612315565b61238a8185612320565b935061239a818560208601612331565b6123a381612364565b840191505092915050565b600060208201905081810360008301526123c88184612375565b905092915050565b6000806000606084860312156123e9576123e8612125565b5b60006123f786828701612178565b9350506020612408868287016121ae565b9250506040612419868287016121ae565b9150509250925092565b600080fd5b7f4e487b7100000000000000000000000000000000000000000000000000000000600052604160045260246000fd5b61246082612364565b810181811067ffffffffffffffff8211171561247f5761247e612428565b5b80604052505050565b600061249261211b565b905061249e8282612457565b919050565b600067ffffffffffffffff8211156124be576124bd612428565b5b602082029050602081019050919050565b600080fd5b60006124e76124e2846124a3565b612488565b9050808382526020820190506020840283018581111561250a576125096124cf565b5b835b81811015612533578061251f88826121ae565b84526020840193505060208101905061250c565b5050509392505050565b600082601f83011261255257612551612423565b5b81356125628482602086016124d4565b91505092915050565b600080fd5b600067ffffffffffffffff82111561258b5761258a612428565b5b61259482612364565b9050602081019050919050565b82818337600083830152505050565b60006125c36125be84612570565b612488565b9050828152602081018484840111156125df576125de61256b565b5b6125ea8482856125a1565b509392505050565b600082601f83011261260757612606612423565b5b81356126178482602086016125b0565b91505092915050565b600080600080600060a0868803121561263c5761263b612125565b5b600061264a88828901612178565b955050602061265b88828901612178565b945050604086013567ffffffffffffffff81111561267c5761267b61212a565b5b6126888882890161253d565b935050606086013567ffffffffffffffff8111156126a9576126a861212a565b5b6126b58882890161253d565b925050608086013567ffffffffffffffff8111156126d6576126d561212a565b5b6126e2888289016125f2565b9150509295509295909350565b600067ffffffffffffffff82111561270a57612709612428565b5b602082029050602081019050919050565b600061272e612729846126ef565b612488565b90508083825260208201905060208402830185811115612751576127506124cf565b5b835b8181101561277a57806127668882612178565b845260208401935050602081019050612753565b5050509392505050565b600082601f83011261279957612798612423565b5b81356127a984826020860161271b565b91505092915050565b600080604083850312156127c9576127c8612125565b5b600083013567ffffffffffffffff8111156127e7576127e661212a565b5b6127f385828601612784565b925050602083013567ffffffffffffffff8111156128145761281361212a565b5b6128208582860161253d565b9150509250929050565b600081519050919050565b600082825260208201905092915050565b6000819050602082019050919050565b61285f8161218d565b82525050565b60006128718383612856565b60208301905092915050565b6000602082019050919050565b60006128958261282a565b61289f8185612835565b93506128aa83612846565b8060005b838110156128db5781516128c28882612865565b97506128cd8361287d565b9250506001810190506128ae565b5085935050505092915050565b60006020820190508181036000830152612902818461288a565b905092915050565b6000806040838503121561292157612920612125565b5b600061292f858286016121ae565b9250506020612940858286016121ae565b9150509250929050565b612953816122b2565b811461295e57600080fd5b50565b6000813590506129708161294a565b92915050565b6000806040838503121561298d5761298c612125565b5b600061299b85828601612178565b92505060206129ac85828601612961565b9150509250929050565b600080604083850312156129cd576129cc612125565b5b60006129db85828601612178565b92505060206129ec85828601612178565b9150509250929050565b600080600080600060a08688031215612a1257612a11612125565b5b6000612a2088828901612178565b9550506020612a3188828901612178565b9450506040612a42888289016121ae565b9350506060612a53888289016121ae565b925050608086013567ffffffffffffffff811115612a7457612a7361212a565b5b612a80888289016125f2565b9150509295509295909350565b7f455243313135353a2062616c616e636520717565727920666f7220746865207a60008201527f65726f2061646472657373000000000000000000000000000000000000000000602082015250565b6000612ae9602b83612320565b9150612af482612a8d565b604082019050919050565b60006020820190508181036000830152612b1881612adc565b9050919050565b7f4e487b7100000000000000000000000000000000000000000000000000000000600052602260045260246000fd5b60006002820490506001821680612b6657607f821691505b60208210811415612b7a57612b79612b1f565b5b50919050565b7f496e76616c696420746f6b656e00000000000000000000000000000000000000600082015250565b6000612bb6600d83612320565b9150612bc182612b80565b602082019050919050565b60006020820190508181036000830152612be581612ba9565b9050919050565b7f455243313135353a207472616e736665722063616c6c6572206973206e6f742060008201527f6f776e6572206e6f7220617070726f7665640000000000000000000000000000602082015250565b6000612c48603283612320565b9150612c5382612bec565b604082019050919050565b60006020820190508181036000830152612c7781612c3b565b9050919050565b7f455243313135353a206163636f756e747320616e6420696473206c656e67746860008201527f206d69736d617463680000000000000000000000000000000000000000000000602082015250565b6000612cda602983612320565b9150612ce582612c7e565b604082019050919050565b60006020820190508181036000830152612d0981612ccd565b9050919050565b7f4e487b7100000000000000000000000000000000000000000000000000000000600052603260045260246000fd5b7f4e487b7100000000000000000000000000000000000000000000000000000000600052601160045260246000fd5b6000612d798261218d565b91507fffffffffffffffffffffffffffffffffffffffffffffffffffffffffffffffff821415612dac57612dab612d3f565b5b600182019050919050565b6000612dc28261218d565b9150612dcd8361218d565b9250827fffffffffffffffffffffffffffffffffffffffffffffffffffffffffffffffff03821115612e0257612e01612d3f565b5b828201905092915050565b7f455243313135353a2063616c6c6572206973206e6f74206f776e6572206e6f7260008201527f20617070726f7665640000000000000000000000000000000000000000000000602082015250565b6000612e69602983612320565b9150612e7482612e0d565b604082019050919050565b60006020820190508181036000830152612e9881612e5c565b9050919050565b6000612eaa8261218d565b9150612eb58361218d565b925082821015612ec857612ec7612d3f565b5b828203905092915050565b7f455243313135353a206d696e7420746f20746865207a65726f2061646472657360008201527f7300000000000000000000000000000000000000000000000000000000000000602082015250565b6000612f2f602183612320565b9150612f3a82612ed3565b604082019050919050565b60006020820190508181036000830152612f5e81612f22565b9050919050565b6000604082019050612f7a6000830185612203565b612f876020830184612203565b9392505050565b7f455243313135353a2069647320616e6420616d6f756e7473206c656e6774682060008201527f6d69736d61746368000000000000000000000000000000000000000000000000602082015250565b6000612fea602883612320565b9150612ff582612f8e565b604082019050919050565b6000602082019050818103600083015261301981612fdd565b9050919050565b7f455243313135353a207472616e7366657220746f20746865207a65726f20616460008201527f6472657373000000000000000000000000000000000000000000000000000000602082015250565b600061307c602583612320565b915061308782613020565b604082019050919050565b600060208201905081810360008301526130ab8161306f565b9050919050565b7f455243313135353a20696e73756666696369656e742062616c616e636520666f60008201527f72207472616e7366657200000000000000000000000000000000000000000000602082015250565b600061310e602a83612320565b9150613119826130b2565b604082019050919050565b6000602082019050818103600083015261313d81613101565b9050919050565b6000604082019050818103600083015261315e818561288a565b90508181036020830152613172818461288a565b90509392505050565b7f4552433230536e617073686f743a206964206973203000000000000000000000600082015250565b60006131b1601683612320565b91506131bc8261317b565b602082019050919050565b600060208201905081810360008301526131e0816131a4565b9050919050565b7f4552433230536e617073686f743a206e6f6e6578697374656e74206964000000600082015250565b600061321d601d83612320565b9150613228826131e7565b602082019050919050565b6000602082019050818103600083015261324c81613210565b9050919050565b7f455243313135353a2073657474696e6720617070726f76616c2073746174757360008201527f20666f722073656c660000000000000000000000000000000000000000000000602082015250565b60006132af602983612320565b91506132ba82613253565b604082019050919050565b600060208201905081810360008301526132de816132a2565b9050919050565b7f455243313135353a206275726e2066726f6d20746865207a65726f206164647260008201527f6573730000000000000000000000000000000000000000000000000000000000602082015250565b6000613341602383612320565b915061334c826132e5565b604082019050919050565b6000602082019050818103600083015261337081613334565b9050919050565b7f455243313135353a206275726e20616d6f756e7420657863656564732062616c60008201527f616e636500000000000000000000000000000000000000000000000000000000602082015250565b60006133d3602483612320565b91506133de82613377565b604082019050919050565b60006020820190508181036000830152613402816133c6565b9050919050565b6134128161214f565b82525050565b600081519050919050565b600082825260208201905092915050565b600061343f82613418565b6134498185613423565b9350613459818560208601612331565b61346281612364565b840191505092915050565b600060a0820190506134826000830188613409565b61348f6020830187613409565b61349c6040830186612203565b6134a96060830185612203565b81810360808301526134bb8184613434565b90509695505050505050565b6000815190506134d681612259565b92915050565b6000602082840312156134f2576134f1612125565b5b6000613500848285016134c7565b91505092915050565b60008160e01c9050919050565b600060033d11156135355760046000803e613532600051613509565b90505b90565b600060443d1015613548576135cb565b61355061211b565b60043d036004823e80513d602482011167ffffffffffffffff821117156135785750506135cb565b808201805167ffffffffffffffff81111561359657505050506135cb565b80602083010160043d0385018111156135b35750505050506135cb565b6135c282602001850186612457565b82955050505050505b90565b7f455243313135353a207472616e7366657220746f206e6f6e204552433131353560008201527f526563656976657220696d706c656d656e746572000000000000000000000000602082015250565b600061362a603483612320565b9150613635826135ce565b604082019050919050565b600060208201905081810360008301526136598161361d565b9050919050565b7f455243313135353a204552433131353552656365697665722072656a6563746560008201527f6420746f6b656e73000000000000000000000000000000000000000000000000602082015250565b60006136bc602883612320565b91506136c782613660565b604082019050919050565b600060208201905081810360008301526136eb816136af565b9050919050565b600060a0820190506137076000830188613409565b6137146020830187613409565b8181036040830152613726818661288a565b9050818103606083015261373a818561288a565b9050818103608083015261374e8184613434565b90509695505050505050565b7f4e487b7100000000000000000000000000000000000000000000000000000000600052601260045260246000fd5b60006137948261218d565b915061379f8361218d565b9250826137af576137ae61375a565b5b82820490509291505056fea26469706673582212206fa457540495c7e59b9d46dd67c715e72b389f0bef16fd912757a9f27f5b0b4464736f6c634300080c0033",
  "immutableReferences": {},
  "source": "// SPDX-License-Identifier: MIT\n\npragma solidity ^0.8.0;\n\nimport \"../ERC1155/SnapshotERC1155.sol\";\n\ncontract ERC20SnapshotMock is SnapshotERC1155 {\n    uint256 private LastTokenId = 1;\n\n    constructor(\n        string memory url,\n        address initialAccount,\n        uint256 initialBalance\n    ) ERC1155(url) {\n        _mint(initialAccount, LastTokenId, initialBalance, \"Dummy Url\");\n        LastTokenId += 1;\n    }\n\n    function snapshot() public {\n        _snapshot();\n    }\n\n    function mint(\n        address account,\n        uint256 tokenId,\n        uint256 amount\n    ) public {\n        if (tokenId >= LastTokenId) {\n            revert(\"Invalid token\");\n        }\n        _mint(account, tokenId, amount, \"Dummy Url\");\n    }\n\n    function createNewToken(address account, uint256 amount) public {\n        _mint(account, LastTokenId, amount, \"Dummy Url\");\n        LastTokenId += 1;\n    }\n\n    function burn(\n        address account,\n        uint256 tokenId,\n        uint256 amount\n    ) public {\n        _burn(account, tokenId, amount);\n    }\n}\n",
  "sourcePath": "/Users/a1/Desktop/Office/projects/CrowdRecords/Contracts/contracts/Mocks/SnapshotERC1155Mock.sol",
  "compiler": {
    "name": "solc",
    "version": "0.8.12+commit.f00d7308.Emscripten.clang"
  },
  "schemaVersion": "3.4.6",
  "updatedAt": "2022-07-14T11:35:46.200Z",
  "devdoc": {
    "kind": "dev",
    "methods": {
      "balanceOf(address,uint256)": {
        "details": "See {IERC1155-balanceOf}. Requirements: - `account` cannot be the zero address."
      },
      "balanceOfAt(address,uint256,uint256)": {
        "details": "Retrieves the balance of `account` at the time `snapshotId` was created."
      },
      "balanceOfBatch(address[],uint256[])": {
        "details": "See {IERC1155-balanceOfBatch}. Requirements: - `accounts` and `ids` must have the same length."
      },
      "exists(uint256)": {
        "details": "Indicates whether any token exist with a given id, or not."
      },
      "isApprovedForAll(address,address)": {
        "details": "See {IERC1155-isApprovedForAll}."
      },
      "safeBatchTransferFrom(address,address,uint256[],uint256[],bytes)": {
        "details": "See {IERC1155-safeBatchTransferFrom}."
      },
      "safeTransferFrom(address,address,uint256,uint256,bytes)": {
        "details": "See {IERC1155-safeTransferFrom}."
      },
      "setApprovalForAll(address,bool)": {
        "details": "See {IERC1155-setApprovalForAll}."
      },
      "supportsInterface(bytes4)": {
        "details": "See {IERC165-supportsInterface}."
      },
      "totalSupply(uint256)": {
        "details": "Total amount of tokens in with a given id."
      },
      "totalSupplyAt(uint256,uint256)": {
        "details": "Retrieves the total supply at the time `snapshotId` was created."
      },
      "uri(uint256)": {
        "details": "See {IERC1155MetadataURI-uri}. This implementation returns the same URI for *all* token types. It relies on the token type ID substitution mechanism https://eips.ethereum.org/EIPS/eip-1155#metadata[defined in the EIP]. Clients calling this function must replace the `\\{id\\}` substring with the actual token type ID."
      }
    },
    "version": 1
  },
  "userdoc": {
    "kind": "user",
    "methods": {},
    "version": 1
  }
}