{
  "contractName": "OrdersContract",
  "abi": [
    {
      "inputs": [
        {
          "internalType": "address",
          "name": "owner",
          "type": "address"
        }
      ],
      "stateMutability": "nonpayable",
      "type": "constructor"
    },
    {
      "anonymous": false,
      "inputs": [
        {
          "indexed": false,
          "internalType": "uint256",
          "name": "saleId",
          "type": "uint256"
        },
        {
          "indexed": false,
          "internalType": "address",
          "name": "buyer",
          "type": "address"
        },
        {
          "indexed": false,
          "internalType": "bool",
          "name": "isLockedInRatio",
          "type": "bool"
        },
        {
          "indexed": false,
          "internalType": "uint256",
          "name": "creationDate",
          "type": "uint256"
        },
        {
          "indexed": false,
          "internalType": "uint256",
          "name": "communityTokenId",
          "type": "uint256"
        },
        {
          "indexed": false,
          "internalType": "uint256",
          "name": "communityTokenAmount",
          "type": "uint256"
        },
        {
          "indexed": false,
          "internalType": "uint256",
          "name": "communityTokenCRD",
          "type": "uint256"
        },
        {
          "indexed": false,
          "internalType": "uint256",
          "name": "governanceTokenId",
          "type": "uint256"
        },
        {
          "indexed": false,
          "internalType": "uint256",
          "name": "governanceTokenAmount",
          "type": "uint256"
        },
        {
          "indexed": false,
          "internalType": "uint256",
          "name": "governanceTokenCRD",
          "type": "uint256"
        },
        {
          "indexed": false,
          "internalType": "uint256",
          "name": "crdBalance",
          "type": "uint256"
        }
      ],
      "name": "BuyOrder",
      "type": "event"
    },
    {
      "anonymous": false,
      "inputs": [
        {
          "indexed": false,
          "internalType": "uint8",
          "name": "version",
          "type": "uint8"
        }
      ],
      "name": "Initialized",
      "type": "event"
    },
    {
      "anonymous": false,
      "inputs": [
        {
          "indexed": false,
          "internalType": "uint256",
          "name": "saleId",
          "type": "uint256"
        },
        {
          "indexed": false,
          "internalType": "uint256",
          "name": "creationDate",
          "type": "uint256"
        },
        {
          "indexed": false,
          "internalType": "uint256",
          "name": "remainingBalance",
          "type": "uint256"
        }
      ],
      "name": "OrderClose",
      "type": "event"
    },
    {
      "anonymous": false,
      "inputs": [
        {
          "indexed": false,
          "internalType": "uint256",
          "name": "saleId",
          "type": "uint256"
        },
        {
          "indexed": false,
          "internalType": "address",
          "name": "seller",
          "type": "address"
        },
        {
          "indexed": false,
          "internalType": "address",
          "name": "buyer",
          "type": "address"
        },
        {
          "indexed": false,
          "internalType": "uint256",
          "name": "creationDate",
          "type": "uint256"
        },
        {
          "indexed": false,
          "internalType": "uint256",
          "name": "communityTokenId",
          "type": "uint256"
        },
        {
          "indexed": false,
          "internalType": "uint256",
          "name": "communityTokenAmount",
          "type": "uint256"
        },
        {
          "indexed": false,
          "internalType": "uint256",
          "name": "communityTokenCRD",
          "type": "uint256"
        },
        {
          "indexed": false,
          "internalType": "uint256",
          "name": "governanceTokenId",
          "type": "uint256"
        },
        {
          "indexed": false,
          "internalType": "uint256",
          "name": "governanceTokenAmount",
          "type": "uint256"
        },
        {
          "indexed": false,
          "internalType": "uint256",
          "name": "governanceTokenCRD",
          "type": "uint256"
        },
        {
          "indexed": false,
          "internalType": "uint256",
          "name": "amountTransferred",
          "type": "uint256"
        },
        {
          "indexed": false,
          "internalType": "uint256",
          "name": "platformFees",
          "type": "uint256"
        }
      ],
      "name": "SaleBought",
      "type": "event"
    },
    {
      "inputs": [],
      "name": "OWNER",
      "outputs": [
        {
          "internalType": "address",
          "name": "",
          "type": "address"
        }
      ],
      "stateMutability": "view",
      "type": "function"
    },
    {
      "inputs": [],
      "name": "TREASURY_CONTRACT_ADDRESS",
      "outputs": [
        {
          "internalType": "address",
          "name": "",
          "type": "address"
        }
      ],
      "stateMutability": "view",
      "type": "function"
    },
    {
      "inputs": [],
      "name": "TREASURY_CORE_CONTRACT_ADDRESS",
      "outputs": [
        {
          "internalType": "address",
          "name": "",
          "type": "address"
        }
      ],
      "stateMutability": "view",
      "type": "function"
    },
    {
      "inputs": [],
      "name": "VOTING_CONTRACT_ADDRESS",
      "outputs": [
        {
          "internalType": "address",
          "name": "",
          "type": "address"
        }
      ],
      "stateMutability": "view",
      "type": "function"
    },
    {
      "inputs": [],
      "name": "WALLET_ADDRESS",
      "outputs": [
        {
          "internalType": "address",
          "name": "",
          "type": "address"
        }
      ],
      "stateMutability": "view",
      "type": "function"
    },
    {
      "inputs": [
        {
          "internalType": "uint256",
          "name": "",
          "type": "uint256"
        }
      ],
      "name": "orderBook",
      "outputs": [
        {
          "internalType": "bool",
          "name": "isClosed",
          "type": "bool"
        },
        {
          "internalType": "bool",
          "name": "isLockedInRatio",
          "type": "bool"
        },
        {
          "internalType": "address",
          "name": "buyer",
          "type": "address"
        },
        {
          "internalType": "uint256",
          "name": "creationDate",
          "type": "uint256"
        },
        {
          "internalType": "uint256",
          "name": "communityTokenId",
          "type": "uint256"
        },
        {
          "internalType": "uint256",
          "name": "communityTokenAmount",
          "type": "uint256"
        },
        {
          "internalType": "uint256",
          "name": "communityTokenCRD",
          "type": "uint256"
        },
        {
          "internalType": "uint256",
          "name": "governanceTokenId",
          "type": "uint256"
        },
        {
          "internalType": "uint256",
          "name": "governanceTokenAmount",
          "type": "uint256"
        },
        {
          "internalType": "uint256",
          "name": "governanceTokenCRD",
          "type": "uint256"
        },
        {
          "internalType": "uint256",
          "name": "crdBalance",
          "type": "uint256"
        }
      ],
      "stateMutability": "view",
      "type": "function"
    },
    {
      "inputs": [
        {
          "internalType": "uint256",
          "name": "numerator",
          "type": "uint256"
        },
        {
          "internalType": "uint256",
          "name": "denominator",
          "type": "uint256"
        },
        {
          "internalType": "uint256",
          "name": "precision",
          "type": "uint256"
        }
      ],
      "name": "ratio",
      "outputs": [
        {
          "internalType": "uint256",
          "name": "quotient",
          "type": "uint256"
        }
      ],
      "stateMutability": "pure",
      "type": "function"
    },
    {
      "inputs": [
        {
          "internalType": "address",
          "name": "owner",
          "type": "address"
        }
      ],
      "name": "setOwnerAddress",
      "outputs": [],
      "stateMutability": "nonpayable",
      "type": "function"
    },
    {
      "inputs": [
        {
          "internalType": "address",
          "name": "newTreasuryContractAddress",
          "type": "address"
        },
        {
          "internalType": "address",
          "name": "newTreasuryCoreContractAddress",
          "type": "address"
        }
      ],
      "name": "initialize",
      "outputs": [],
      "stateMutability": "nonpayable",
      "type": "function"
    },
    {
      "inputs": [
        {
          "internalType": "address",
          "name": "newWalletAddress",
          "type": "address"
        }
      ],
      "name": "setWalletAddress",
      "outputs": [],
      "stateMutability": "nonpayable",
      "type": "function"
    },
    {
      "inputs": [
        {
          "components": [
            {
              "internalType": "bool",
              "name": "isLockedInRatio",
              "type": "bool"
            },
            {
              "internalType": "uint256",
              "name": "recordId",
              "type": "uint256"
            },
            {
              "internalType": "uint256",
              "name": "communityTokenId",
              "type": "uint256"
            },
            {
              "internalType": "uint256",
              "name": "communityTokenAmount",
              "type": "uint256"
            },
            {
              "internalType": "uint256",
              "name": "communityTokenCRD",
              "type": "uint256"
            },
            {
              "internalType": "uint256",
              "name": "governanceTokenId",
              "type": "uint256"
            },
            {
              "internalType": "uint256",
              "name": "governanceTokenAmount",
              "type": "uint256"
            },
            {
              "internalType": "uint256",
              "name": "governanceTokenCRD",
              "type": "uint256"
            }
          ],
          "internalType": "struct OrdersContract.BuyOrderParams",
          "name": "params",
          "type": "tuple"
        }
      ],
      "name": "createBuyOrder",
      "outputs": [
        {
          "internalType": "uint256",
          "name": "saleOrderId",
          "type": "uint256"
        }
      ],
      "stateMutability": "nonpayable",
      "type": "function"
    },
    {
      "inputs": [
        {
          "internalType": "uint256",
          "name": "saleId",
          "type": "uint256"
        }
      ],
      "name": "cancelBuyOrder",
      "outputs": [],
      "stateMutability": "nonpayable",
      "type": "function"
    },
    {
      "inputs": [
        {
          "internalType": "uint256",
          "name": "saleId",
          "type": "uint256"
        },
        {
          "internalType": "uint256",
          "name": "communityTokenAmount",
          "type": "uint256"
        },
        {
          "internalType": "uint256",
          "name": "governanceTokenAmount",
          "type": "uint256"
        }
      ],
      "name": "acceptBuyOrder",
      "outputs": [],
      "stateMutability": "nonpayable",
      "type": "function"
    },
    {
      "inputs": [
        {
          "internalType": "address",
          "name": "",
          "type": "address"
        },
        {
          "internalType": "address",
          "name": "",
          "type": "address"
        },
        {
          "internalType": "uint256",
          "name": "",
          "type": "uint256"
        },
        {
          "internalType": "uint256",
          "name": "",
          "type": "uint256"
        },
        {
          "internalType": "bytes",
          "name": "",
          "type": "bytes"
        }
      ],
      "name": "onERC1155Received",
      "outputs": [
        {
          "internalType": "bytes4",
          "name": "",
          "type": "bytes4"
        }
      ],
      "stateMutability": "nonpayable",
      "type": "function"
    },
    {
      "inputs": [
        {
          "internalType": "address",
          "name": "",
          "type": "address"
        },
        {
          "internalType": "address",
          "name": "",
          "type": "address"
        },
        {
          "internalType": "uint256[]",
          "name": "",
          "type": "uint256[]"
        },
        {
          "internalType": "uint256[]",
          "name": "",
          "type": "uint256[]"
        },
        {
          "internalType": "bytes",
          "name": "",
          "type": "bytes"
        }
      ],
      "name": "onERC1155BatchReceived",
      "outputs": [
        {
          "internalType": "bytes4",
          "name": "",
          "type": "bytes4"
        }
      ],
      "stateMutability": "nonpayable",
      "type": "function"
    },
    {
      "inputs": [
        {
          "internalType": "address",
          "name": "",
          "type": "address"
        },
        {
          "internalType": "address",
          "name": "",
          "type": "address"
        },
        {
          "internalType": "uint256",
          "name": "",
          "type": "uint256"
        },
        {
          "internalType": "bytes",
          "name": "",
          "type": "bytes"
        }
      ],
      "name": "onERC721Received",
      "outputs": [
        {
          "internalType": "bytes4",
          "name": "",
          "type": "bytes4"
        }
      ],
      "stateMutability": "nonpayable",
      "type": "function"
    }
  ],
  "bytecode": "0x60806040526003805460ff60a01b1916601960a11b17905560006006553480156200002957600080fd5b50604051620026b3380380620026b38339810160408190526200004c9162000072565b600480546001600160a01b0319166001600160a01b0392909216919091179055620000a4565b6000602082840312156200008557600080fd5b81516001600160a01b03811681146200009d57600080fd5b9392505050565b6125ff80620000b46000396000f3fe608060405234801561001057600080fd5b50600436106101005760003560e01c80638fc3b64711610097578063acb3149311610066578063acb314931461038c578063bc197c81146103ac578063be5d147f146103e4578063f23a6e61146103f757600080fd5b80638fc3b64714610259578063a09a60fd14610279578063a20b6e341461028c578063ac1a386a1461037957600080fd5b8063556bed3a116100d3578063556bed3a146101df578063583cbf15146101ff578063659d45eb1461022057806381e6cde51461024657600080fd5b8063117803e314610105578063150b7a021461014f578063331a6bf5146101b7578063485cc955146101cc575b600080fd5b6004546101259073ffffffffffffffffffffffffffffffffffffffff1681565b60405173ffffffffffffffffffffffffffffffffffffffff90911681526020015b60405180910390f35b61018661015d366004612034565b7f150b7a0200000000000000000000000000000000000000000000000000000000949350505050565b6040517fffffffff000000000000000000000000000000000000000000000000000000009091168152602001610146565b6101ca6101c536600461209c565b61042f565b005b6101ca6101da3660046120be565b610522565b6002546101259073ffffffffffffffffffffffffffffffffffffffff1681565b61021261020d3660046120f1565b6107ab565b604051908152602001610146565b6000546101259062010000900473ffffffffffffffffffffffffffffffffffffffff1681565b6101ca610254366004612170565b610ca2565b6003546101259073ffffffffffffffffffffffffffffffffffffffff1681565b610212610287366004612170565b611393565b61030961029a36600461219c565b600560208190526000918252604090912080546001820154600283015460038401546004850154958501546006860154600787015460089097015460ff808816996101008904909116986201000090980473ffffffffffffffffffffffffffffffffffffffff1697909392918b565b604080519b15158c5299151560208c015273ffffffffffffffffffffffffffffffffffffffff909816988a01989098526060890195909552608088019390935260a087019190915260c086015260e085015261010084015261012083019190915261014082015261016001610146565b6101ca61038736600461209c565b6113db565b6001546101259073ffffffffffffffffffffffffffffffffffffffff1681565b6101866103ba366004612235565b7fbc197c810000000000000000000000000000000000000000000000000000000095945050505050565b6101ca6103f236600461219c565b6114c9565b6101866104053660046122df565b7ff23a6e610000000000000000000000000000000000000000000000000000000095945050505050565b60045473ffffffffffffffffffffffffffffffffffffffff1633146104db576040517f08c379a000000000000000000000000000000000000000000000000000000000815260206004820152602360248201527f554e415554484f52495a45443a2043414e4e4f545f504552464f524d5f41435460448201527f494f4e000000000000000000000000000000000000000000000000000000000060648201526084015b60405180910390fd5b600480547fffffffffffffffffffffffff00000000000000000000000000000000000000001673ffffffffffffffffffffffffffffffffffffffff92909216919091179055565b600054610100900460ff16158080156105425750600054600160ff909116105b8061055c5750303b15801561055c575060005460ff166001145b6105e8576040517f08c379a000000000000000000000000000000000000000000000000000000000815260206004820152602e60248201527f496e697469616c697a61626c653a20636f6e747261637420697320616c72656160448201527f647920696e697469616c697a656400000000000000000000000000000000000060648201526084016104d2565b600080547fffffffffffffffffffffffffffffffffffffffffffffffffffffffffffffff00166001179055801561064657600080547fffffffffffffffffffffffffffffffffffffffffffffffffffffffffffff00ff166101001790555b60045473ffffffffffffffffffffffffffffffffffffffff1633146106ed576040517f08c379a000000000000000000000000000000000000000000000000000000000815260206004820152602360248201527f554e415554484f52495a45443a2043414e4e4f545f504552464f524d5f41435460448201527f494f4e000000000000000000000000000000000000000000000000000000000060648201526084016104d2565b6001805473ffffffffffffffffffffffffffffffffffffffff8086167fffffffffffffffffffffffff000000000000000000000000000000000000000092831617909255600280549285169290911691909117905580156107a657600080547fffffffffffffffffffffffffffffffffffffffffffffffffffffffffffff00ff169055604051600181527f7f26b83ff96e1f2b6a682f133852f6798a09c465da95921460cefb3847402498906020015b60405180910390a15b505050565b600154604082810151602084015191517f2d4a03820000000000000000000000000000000000000000000000000000000081526004810192909252600092849273ffffffffffffffffffffffffffffffffffffffff90911691908290632d4a038290602401602060405180830381865afa15801561082d573d6000803e3d6000fd5b505050506040513d601f19601f820116820180604052508101906108519190612344565b146108b8576040517f08c379a000000000000000000000000000000000000000000000000000000000815260206004820152601b60248201527f494e56414c49443a20434f4d4d554e4954595f544f4b454e5f4944000000000060448201526064016104d2565b60a082015160208301516040517fd6ca40a7000000000000000000000000000000000000000000000000000000008152600481019190915273ffffffffffffffffffffffffffffffffffffffff83169063d6ca40a790602401602060405180830381865afa15801561092e573d6000803e3d6000fd5b505050506040513d601f19601f820116820180604052508101906109529190612344565b146109b9576040517f08c379a000000000000000000000000000000000000000000000000000000000815260206004820152601c60248201527f494e56414c49443a20474f5645524e414e43455f544f4b454e5f49440000000060448201526064016104d2565b815115610ae8576000826060015111610a54576040517f08c379a000000000000000000000000000000000000000000000000000000000815260206004820152602760248201527f494e56414c49443a2043414e4e4f545f484156455f305f434f4d4d554e49545960448201527f5f414d4f554e540000000000000000000000000000000000000000000000000060648201526084016104d2565b60008260c0015111610ae8576040517f08c379a000000000000000000000000000000000000000000000000000000000815260206004820152602860248201527f494e56414c49443a2043414e4e4f545f484156455f305f474f5645524e414e4360448201527f455f414d4f554e5400000000000000000000000000000000000000000000000060648201526084016104d2565b600254604080517fe6acd9b8000000000000000000000000000000000000000000000000000000008152905173ffffffffffffffffffffffffffffffffffffffff90921691829163f242432a9132913091859163e6acd9b89160048083019260209291908290030181865afa158015610b65573d6000803e3d6000fd5b505050506040513d601f19601f82011682018060405250810190610b899190612344565b89608001518a60e00151610b9d919061238c565b6040517fffffffff0000000000000000000000000000000000000000000000000000000060e087901b16815273ffffffffffffffffffffffffffffffffffffffff94851660048201529390921660248401526044830152606482015260a06084820152600a60a48201527f53616c65206f726465720000000000000000000000000000000000000000000060c482015260e401600060405180830381600087803b158015610c4a57600080fd5b505af1158015610c5e573d6000803e3d6000fd5b505086516040880151606089015160808a015160a08b015160c08c015160e08d015160009850610c989750610c93848261238c565b611858565b9695505050505050565b60008381526005602052604090205462010000900473ffffffffffffffffffffffffffffffffffffffff16331415610d5c576040517f08c379a000000000000000000000000000000000000000000000000000000000815260206004820152602360248201527f494e56414c49443a2043414e4e4f545f50555243484153455f53454c465f4f5260448201527f444552000000000000000000000000000000000000000000000000000000000060648201526084016104d2565b60008381526005602052604090205460ff1615610dd5576040517f08c379a000000000000000000000000000000000000000000000000000000000815260206004820152601560248201527f494e56414c49443a204f524445525f434c4f534544000000000000000000000060448201526064016104d2565b60008381526005602052604090206003810154831115610e76576040517f08c379a0000000000000000000000000000000000000000000000000000000008152602060048201526024808201527f494e53554646494349454e543a20434f4d4d554e4954595f544f4b454e5f414d60448201527f4f554e540000000000000000000000000000000000000000000000000000000060648201526084016104d2565b8181600601541015610f0a576040517f08c379a000000000000000000000000000000000000000000000000000000000815260206004820152602560248201527f494e53554646494349454e543a20474f5645524e414e43455f544f4b454e5f4160448201527f4d4f554e5400000000000000000000000000000000000000000000000000000060648201526084016104d2565b8054610100900460ff161561103c57806006015481600301541115610fb557610f3d816003015482600601546006611393565b610f4984846006611393565b14610fb0576040517f08c379a000000000000000000000000000000000000000000000000000000000815260206004820152601460248201527f494e56414c49443a20544f4b454e5f524154494f00000000000000000000000060448201526064016104d2565b61103c565b610fc9816006015482600301546006611393565b610fd583856006611393565b1461103c576040517f08c379a000000000000000000000000000000000000000000000000000000000815260206004820152601460248201527f494e56414c49443a20544f4b454e5f524154494f00000000000000000000000060448201526064016104d2565b611044611eb7565b6003820154156110cb5760008061109f8685600301548660040154620f424061106d91906123a4565b61107791906123e1565b6002870154875462010000900473ffffffffffffffffffffffffffffffffffffffff16611a91565b90925090506110ae818361238c565b84600401546110bd919061241c565b600485015590825260208201525b600682015415611157576000806111268585600601548660070154620f42406110f491906123a4565b6110fe91906123e1565b6005870154875462010000900473ffffffffffffffffffffffffffffffffffffffff16611a91565b9092509050611135818361238c565b8460070154611144919061241c565b6007850155604083019190915260608201525b7f249b7ebd7d5ac609b663ac9ccaa3fcc5fc187ce3d76fb95d9064a788ffeba078858360000160029054906101000a900473ffffffffffffffffffffffffffffffffffffffff163342866002015489876001600481106111b9576111b9612433565b602002015188516111ca919061238c565b60058a015460608a015160408b01518d916111e49161238c565b60608c015160408d015160208e01518e516111ff919061238c565b611209919061238c565b611213919061238c565b60608d015160208e0151611227919061238c565b604080519c8d5273ffffffffffffffffffffffffffffffffffffffff9b8c1660208e015299909a16988b019890985260608a0196909652608089019490945260a088019290925260c087015260e08601526101008501526101208401526101408301526101608201526101800160405180910390a18382600301546112ac919061241c565b600383015560068201546112c190849061241c565b600683015560608101516040820151602083015183516112e1919061238c565b6112eb919061238c565b6112f5919061238c565b8260080154611304919061241c565b6008830155600382015415801561131d57506006820154155b1561138c5781547fffffffffffffffffffffffffffffffffffffffffffffffffffffffffffffff001660011782556040805186815242602082015260008183015290517f9b59e95c56cf432066ac010b6aa1d35e53f427d886a20c2a9c307b776768b1e5916060908290030190a15b5050505050565b6000806113a183600161238c565b6113ac90600a612584565b6113b690866123a4565b90506000600a6113c686846123e1565b6113d190600561238c565b610c9891906123e1565b60045473ffffffffffffffffffffffffffffffffffffffff163314611482576040517f08c379a000000000000000000000000000000000000000000000000000000000815260206004820152602360248201527f554e415554484f52495a45443a2043414e4e4f545f504552464f524d5f41435460448201527f494f4e000000000000000000000000000000000000000000000000000000000060648201526084016104d2565b600380547fffffffffffffffffffffffff00000000000000000000000000000000000000001673ffffffffffffffffffffffffffffffffffffffff92909216919091179055565b60008181526005602052604090205462010000900473ffffffffffffffffffffffffffffffffffffffff16331461155c576040517f08c379a000000000000000000000000000000000000000000000000000000000815260206004820181905260248201527f554e415554484f52495a45443a204f4e4c595f4f524445525f43524541544f5260448201526064016104d2565b60008181526005602052604090205460ff16156115d5576040517f08c379a000000000000000000000000000000000000000000000000000000000815260206004820152601560248201527f494e56414c49443a204f524445525f434c4f534544000000000000000000000060448201526064016104d2565b600081815260056020818152604092839020835161016081018552815460ff8082161515835261010080830490911615158386015273ffffffffffffffffffffffffffffffffffffffff620100009092048216838801819052600185015460608501526002808601546080860152600386015460a086015260048087015460c08701529786015460e086015260068601549285019290925260078501546101208501526008909401546101408401525486517fe6acd9b800000000000000000000000000000000000000000000000000000000815296519296911694859463f242432a9430949093879363e6acd9b8938282019390929091908290030181865afa1580156116e7573d6000803e3d6000fd5b505050506040513d601f19601f8201168201806040525081019061170b9190612344565b6101408701516040517fffffffff0000000000000000000000000000000000000000000000000000000060e087901b16815273ffffffffffffffffffffffffffffffffffffffff94851660048201529390921660248401526044830152606482015260a06084820152601360a48201527f53616c65206f726465722063616e63656c65640000000000000000000000000060c482015260e401600060405180830381600087803b1580156117be57600080fd5b505af11580156117d2573d6000803e3d6000fd5b5050506000848152600560205260409081902080547fffffffffffffffffffffffffffffffffffffffffffffffffffffffffffffff0016600117905561014084015190517f9b59e95c56cf432066ac010b6aa1d35e53f427d886a20c2a9c307b776768b1e5925061079d9186914291909283526020830191909152604082015260600190565b600680546000918261186983612590565b91905055506000600654905060006040518061016001604052806000151581526020018c151581526020013273ffffffffffffffffffffffffffffffffffffffff1681526020014281526020018b81526020018a8152602001898152602001888152602001878152602001868152602001858152509050806005600084815260200190815260200160002060008201518160000160006101000a81548160ff02191690831515021790555060208201518160000160016101000a81548160ff02191690831515021790555060408201518160000160026101000a81548173ffffffffffffffffffffffffffffffffffffffff021916908373ffffffffffffffffffffffffffffffffffffffff160217905550606082015181600101556080820151816002015560a0820151816003015560c0820151816004015560e082015181600501556101008201518160060155610120820151816007015561014082015181600801559050507ffaa6ea7690fa3b58a9cfc7064f065f7d0aab5a65f26e58acaa53da7a7e3e6ac68282604001518d84606001518e8e8e8e8e8e8e604051611a7b9b9a999897969594939291909a8b5273ffffffffffffffffffffffffffffffffffffffff9990991660208b015296151560408a01526060890195909552608088019390935260a087019190915260c086015260e08501526101008401526101208301526101408201526101600190565b60405180910390a1509998505050505050505050565b60008080620f4240611aa387896123a4565b611aad91906123e1565b60035490915060009061271090611adf9074010000000000000000000000000000000000000000900460ff16846123a4565b611ae991906123e1565b9050611af5818361241c565b600254600354604080517fe6acd9b8000000000000000000000000000000000000000000000000000000008152905193955073ffffffffffffffffffffffffffffffffffffffff92831693849363f242432a933093911691859163e6acd9b89160048083019260209291908290030181865afa158015611b79573d6000803e3d6000fd5b505050506040513d601f19601f82011682018060405250810190611b9d9190612344565b6040517fffffffff0000000000000000000000000000000000000000000000000000000060e086901b16815273ffffffffffffffffffffffffffffffffffffffff938416600482015292909116602483015260448201526064810185905260a06084820152601460a48201527f53616c65207472616e73616374696f6e2066656500000000000000000000000060c482015260e401600060405180830381600087803b158015611c4c57600080fd5b505af1158015611c60573d6000803e3d6000fd5b505050508073ffffffffffffffffffffffffffffffffffffffff1663f242432a30338473ffffffffffffffffffffffffffffffffffffffff1663e6acd9b86040518163ffffffff1660e01b8152600401602060405180830381865afa158015611ccd573d6000803e3d6000fd5b505050506040513d601f19601f82011682018060405250810190611cf19190612344565b6040517fffffffff0000000000000000000000000000000000000000000000000000000060e086901b16815273ffffffffffffffffffffffffffffffffffffffff938416600482015292909116602483015260448201526064810186905260a06084820152602a60a48201527f53616c6520746f6b656e20707269636520616d6f756e74207472616e7366657260c48201527f20746f2073656c6c65720000000000000000000000000000000000000000000060e482015261010401600060405180830381600087803b158015611dc757600080fd5b505af1158015611ddb573d6000803e3d6000fd5b50506040517ff242432a00000000000000000000000000000000000000000000000000000000815233600482015273ffffffffffffffffffffffffffffffffffffffff8981166024830152604482018b9052606482018d905260a06084830152601c60a48301527f53616c6520746f6b656e207472616e7366657220746f2062757965720000000060c48301528416925063f242432a915060e401600060405180830381600087803b158015611e9057600080fd5b505af1158015611ea4573d6000803e3d6000fd5b50949b939a509298505050505050505050565b60405180608001604052806004906020820280368337509192915050565b803573ffffffffffffffffffffffffffffffffffffffff81168114611ef957600080fd5b919050565b7f4e487b7100000000000000000000000000000000000000000000000000000000600052604160045260246000fd5b604051610100810167ffffffffffffffff81118282101715611f5157611f51611efe565b60405290565b604051601f82017fffffffffffffffffffffffffffffffffffffffffffffffffffffffffffffffe016810167ffffffffffffffff81118282101715611f9e57611f9e611efe565b604052919050565b600082601f830112611fb757600080fd5b813567ffffffffffffffff811115611fd157611fd1611efe565b61200260207fffffffffffffffffffffffffffffffffffffffffffffffffffffffffffffffe0601f84011601611f57565b81815284602083860101111561201757600080fd5b816020850160208301376000918101602001919091529392505050565b6000806000806080858703121561204a57600080fd5b61205385611ed5565b935061206160208601611ed5565b925060408501359150606085013567ffffffffffffffff81111561208457600080fd5b61209087828801611fa6565b91505092959194509250565b6000602082840312156120ae57600080fd5b6120b782611ed5565b9392505050565b600080604083850312156120d157600080fd5b6120da83611ed5565b91506120e860208401611ed5565b90509250929050565b6000610100828403121561210457600080fd5b61210c611f2d565b8235801515811461211c57600080fd5b808252506020830135602082015260408301356040820152606083013560608201526080830135608082015260a083013560a082015260c083013560c082015260e083013560e08201528091505092915050565b60008060006060848603121561218557600080fd5b505081359360208301359350604090920135919050565b6000602082840312156121ae57600080fd5b5035919050565b600082601f8301126121c657600080fd5b8135602067ffffffffffffffff8211156121e2576121e2611efe565b8160051b6121f1828201611f57565b928352848101820192828101908785111561220b57600080fd5b83870192505b8483101561222a57823582529183019190830190612211565b979650505050505050565b600080600080600060a0868803121561224d57600080fd5b61225686611ed5565b945061226460208701611ed5565b9350604086013567ffffffffffffffff8082111561228157600080fd5b61228d89838a016121b5565b945060608801359150808211156122a357600080fd5b6122af89838a016121b5565b935060808801359150808211156122c557600080fd5b506122d288828901611fa6565b9150509295509295909350565b600080600080600060a086880312156122f757600080fd5b61230086611ed5565b945061230e60208701611ed5565b93506040860135925060608601359150608086013567ffffffffffffffff81111561233857600080fd5b6122d288828901611fa6565b60006020828403121561235657600080fd5b5051919050565b7f4e487b7100000000000000000000000000000000000000000000000000000000600052601160045260246000fd5b6000821982111561239f5761239f61235d565b500190565b6000817fffffffffffffffffffffffffffffffffffffffffffffffffffffffffffffffff04831182151516156123dc576123dc61235d565b500290565b600082612417577f4e487b7100000000000000000000000000000000000000000000000000000000600052601260045260246000fd5b500490565b60008282101561242e5761242e61235d565b500390565b7f4e487b7100000000000000000000000000000000000000000000000000000000600052603260045260246000fd5b600181815b808511156124bb57817fffffffffffffffffffffffffffffffffffffffffffffffffffffffffffffffff048211156124a1576124a161235d565b808516156124ae57918102915b93841c9390800290612467565b509250929050565b6000826124d25750600161257e565b816124df5750600061257e565b81600181146124f557600281146124ff5761251b565b600191505061257e565b60ff8411156125105761251061235d565b50506001821b61257e565b5060208310610133831016604e8410600b841016171561253e575081810a61257e565b6125488383612462565b807fffffffffffffffffffffffffffffffffffffffffffffffffffffffffffffffff0482111561257a5761257a61235d565b0290505b92915050565b60006120b783836124c3565b60007fffffffffffffffffffffffffffffffffffffffffffffffffffffffffffffffff8214156125c2576125c261235d565b506001019056fea2646970667358221220d2d36d87433ad050b6b8c4a586a963b1775f045c526568f66521be81a5280fdc64736f6c634300080c0033",
  "immutableReferences": {},
  "source": "pragma solidity ^0.8.0;\n\nimport \"@openzeppelin/contracts/utils/Counters.sol\";\nimport \"@openzeppelin/contracts/access/Ownable.sol\";\nimport \"@openzeppelin/contracts/utils/math/SafeMath.sol\";\nimport \"@openzeppelin/contracts-upgradeable/proxy/utils/Initializable.sol\";\nimport \"./interface/ITreasuryCore.sol\";\nimport \"./interface/ITreasury.sol\";\n\ncontract OrdersContract is Initializable {\n    address public VOTING_CONTRACT_ADDRESS;\n    address public TREASURY_CONTRACT_ADDRESS;\n    address public TREASURY_CORE_CONTRACT_ADDRESS;\n    address public WALLET_ADDRESS;\n    uint8 TRANSACTION_FEE = 50; //This is 0.50%\n    address public OWNER;\n\n    /// @dev this is event which is created when a user creates order to sell his tokens\n    /// @param isClosed this is if a order is closed or not, that is if any amount is remaining for purchase or not,\n    /// it will also be false if order was canceled by user\n    /// @param isLockedInRatio the is denotes wether the user wants to sell the token individually or in a ratio\n    /// @param buyer this is the address of the owner or the Buy order\n    /// @param creationDate this is the creation date of the Buy order\n    /// @param communityTokenId this is the community token id that is involved in the Buy order\n    /// @param communityTokenAmount this is the community token amount for Buy order\n    /// @param communityTokenCRD this is the total CRD amount for the community token purchase\n    /// @param governanceTokenId this is the community token id that is involved in the Buy order\n    /// @param governanceTokenAmount this is the community token amount for Buy order\n    /// @param governanceTokenCRD this is the total CRD amount for the governance token purchase\n    /// @param crdBalance this is the total balance remaining for the order\n    struct Order {\n        bool isClosed;\n        bool isLockedInRatio;\n        address buyer;\n        uint256 creationDate;\n        uint256 communityTokenId;\n        uint256 communityTokenAmount;\n        uint256 communityTokenCRD;\n        uint256 governanceTokenId;\n        uint256 governanceTokenAmount;\n        uint256 governanceTokenCRD;\n        uint256 crdBalance;\n    }\n\n    /// @dev Struct that holds the data for the params of the BuyOrder\n    /// @param isLockedInRatio the is denotes wether the user wants to sell the token individually or in a ratio\n    /// @param communityTokenId this is the community token id that is involved in the Buy order\n    /// @param communityTokenAmount this is the community token amount for Buy order\n    /// @param communityTokenCRD this is the CRD balance for community token purchase\n    /// @param governanceTokenId this is the community token id that is involved in the Buy order\n    /// @param governanceTokenAmount this is the community token amount for Buy order\n    /// @param governanceTokenCRD this is the CRD balance for governance token purchase\n    struct BuyOrderParams {\n        bool isLockedInRatio;\n        uint256 recordId;\n        uint256 communityTokenId;\n        uint256 communityTokenAmount;\n        uint256 communityTokenCRD;\n        uint256 governanceTokenId;\n        uint256 governanceTokenAmount;\n        uint256 governanceTokenCRD;\n    }\n\n    /// @dev this is event which is created when a user creates order to sell his tokens\n    /// @param saleId this is the Id of the Buy order\n    /// @param buyer this is the address of the owner or the Buy order\n    /// @param isLockedInRatio the is denotes wether the user wants to sell the token individually or in a ratio\n    /// @param creationDate this is the creation date of the Buy order\n    /// @param communityTokenId this is the community token id that is involved in the Buy order\n    /// @param communityTokenAmount this is the community token amount for Buy order\n    /// @param communityTokenCRD Total CRD tokens available for the purchase of community token\n    /// @param governanceTokenId this is the community token id that is involved in the Buy order\n    /// @param governanceTokenAmount this is the community token amount for Buy order\n    /// @param governanceTokenCRD Total CRD tokens available for the purchase of governance token\n    /// @param crdBalance this is the total balance remaining for the order\n    event BuyOrder(\n        uint256 saleId,\n        address buyer,\n        bool isLockedInRatio,\n        uint256 creationDate,\n        uint256 communityTokenId,\n        uint256 communityTokenAmount,\n        uint256 communityTokenCRD,\n        uint256 governanceTokenId,\n        uint256 governanceTokenAmount,\n        uint256 governanceTokenCRD,\n        uint256 crdBalance\n    );\n\n    /// @dev this is event which is created when a user purchases any sale order\n    /// @param saleId this is the Id of the sale order\n    /// @param seller this is the address of the person who sold the tokens in exchange for the crd\n    /// @param buyer this is the address of the owner or the sale order\n    /// @param creationDate this is the date when tokens were purchased\n    /// @param communityTokenId this is the community token id that is involved in the sale\n    /// @param communityTokenAmount this is the community token amount for sale\n    /// @param communityTokenCRD Total CRD tokens available for the purchase of community token\n    /// @param governanceTokenId this is the community token id that is involved in the sale\n    /// @param governanceTokenAmount this is the community token amount for sale\n    /// @param governanceTokenCRD Total CRD tokens available for the purchase of governance token\n    /// @param amountTransferred this is the total amount paid\n    /// @param platformFees this is the platform fees taken by crowdrecords\n\n    event SaleBought(\n        uint256 saleId,\n        address seller,\n        address buyer,\n        uint256 creationDate,\n        uint256 communityTokenId,\n        uint256 communityTokenAmount,\n        uint256 communityTokenCRD,\n        uint256 governanceTokenId,\n        uint256 governanceTokenAmount,\n        uint256 governanceTokenCRD,\n        uint256 amountTransferred,\n        uint256 platformFees\n    );\n\n    /// @dev this event is emmited when user closes his/her sale order\n    /// @param saleId This is the sale Id of the sale order\n    /// @param creationDate This is the date when the event took place\n    /// @param remainingBalance This is the amount that was remaining from the partially fulfilled orders\n    event OrderClose(\n        uint256 saleId,\n        uint256 creationDate,\n        uint256 remainingBalance\n    );\n\n    mapping(uint256 => Order) public orderBook;\n    uint256 orderId = 0;\n\n    constructor(address owner) {\n        OWNER = owner;\n    }\n\n    /// @dev Modifier to check that the person who accesses a specific function is the owner of contract himself.\n    modifier ownerOnly() {\n        require(msg.sender == OWNER, \"UNAUTHORIZED: CANNOT_PERFORM_ACTION\");\n        _;\n    }\n\n    /// @dev Modifier checks if order params are valid or not\n    /// @param params params for the buy order\n    modifier buyOrderCheck(BuyOrderParams memory params) {\n        ITreasury treasuryContract = ITreasury(TREASURY_CONTRACT_ADDRESS);\n\n        require(\n            treasuryContract.getCommunityTokenId(params.recordId) ==\n                params.communityTokenId,\n            \"INVALID: COMMUNITY_TOKEN_ID\"\n        );\n        require(\n            treasuryContract.getGovernanceTokenId(params.recordId) ==\n                params.governanceTokenId,\n            \"INVALID: GOVERNANCE_TOKEN_ID\"\n        );\n\n        if (params.isLockedInRatio) {\n            require(\n                params.communityTokenAmount > 0,\n                \"INVALID: CANNOT_HAVE_0_COMMUNITY_AMOUNT\"\n            );\n\n            require(\n                params.governanceTokenAmount > 0,\n                \"INVALID: CANNOT_HAVE_0_GOVERNANCE_AMOUNT\"\n            );\n        }\n        _;\n    }\n\n    /// @dev This function calculates the ratio of the 2 values with fixed precision\n    /// @param numerator the numerator value\n    /// @param denominator the denominator value\n    /// @param precision precision count\n    /// @return quotient The ratio of numerator to denominator\n    function ratio(\n        uint256 numerator,\n        uint256 denominator,\n        uint256 precision\n    ) public pure returns (uint256 quotient) {\n        // caution, check safe-to-multiply here\n        uint256 _numerator = numerator * 10 ** (precision + 1);\n        // with rounding of last digit\n        uint256 _quotient = ((_numerator / denominator) + 5) / 10;\n        return (_quotient);\n    }\n\n    /// @notice This function is to set the owner address\n    /// @dev This function takes in the address of new owner and sets it to the contract\n    /// @param owner Takes the address of new owner as parameter\n    function setOwnerAddress(address owner) public ownerOnly {\n        OWNER = owner;\n    }\n\n    /// @dev This is to set the address of the contracts\n    /// @param newTreasuryContractAddress This is the address of new treasury contract\n    /// @param newTreasuryCoreContractAddress This is the new address of treasury core contract\n    function initialize(\n        address newTreasuryContractAddress,\n        address newTreasuryCoreContractAddress\n    ) public initializer ownerOnly {\n        TREASURY_CONTRACT_ADDRESS = newTreasuryContractAddress;\n        TREASURY_CORE_CONTRACT_ADDRESS = newTreasuryCoreContractAddress;\n    }\n\n    /// @dev This function sets the wallet address this address will receive all the transaction royalties\n    /// @param newWalletAddress the is the new newWalletAddress\n    function setWalletAddress(address newWalletAddress) public ownerOnly {\n        WALLET_ADDRESS = newWalletAddress;\n    }\n\n    /// @dev This function is called to create a new saleOrder\n    /// @param params this is the params for the buy order creation\n    function createBuyOrder(\n        BuyOrderParams memory params\n    ) public buyOrderCheck(params) returns (uint256 saleOrderId) {\n        ITreasuryCore treasuryCoreContract = ITreasuryCore(\n            TREASURY_CORE_CONTRACT_ADDRESS\n        );\n\n        // Transferring the CRD token into contract to lock it\n        treasuryCoreContract.safeTransferFrom(\n            tx.origin,\n            address(this),\n            treasuryCoreContract.CRD(),\n            params.governanceTokenCRD + params.communityTokenCRD,\n            \"Sale order\"\n        );\n\n        uint256 newOrderId = createOrder(\n            params.isLockedInRatio,\n            params.communityTokenId,\n            params.communityTokenAmount,\n            params.communityTokenCRD,\n            params.governanceTokenId,\n            params.governanceTokenAmount,\n            params.governanceTokenCRD,\n            params.governanceTokenCRD + params.communityTokenCRD\n        );\n\n        return newOrderId;\n    }\n\n    function createOrder(\n        bool isLockedInRatio,\n        uint256 communityTokenId,\n        uint256 communityTokenAmount,\n        uint256 communityTokenCRD,\n        uint256 governanceTokenId,\n        uint256 governanceTokenAmount,\n        uint256 governanceTokenCRD,\n        uint256 totalCRD\n    ) internal returns (uint256) {\n        orderId++;\n        uint256 newOrderId = orderId;\n\n        Order memory order = Order({\n            isClosed: false,\n            buyer: tx.origin,\n            isLockedInRatio: isLockedInRatio,\n            creationDate: block.timestamp,\n            communityTokenId: communityTokenId,\n            communityTokenAmount: communityTokenAmount,\n            communityTokenCRD: communityTokenCRD,\n            governanceTokenId: governanceTokenId,\n            governanceTokenAmount: governanceTokenAmount,\n            governanceTokenCRD: governanceTokenCRD,\n            crdBalance: totalCRD\n        });\n\n        orderBook[newOrderId] = order;\n\n        emit BuyOrder({\n            saleId: newOrderId,\n            buyer: order.buyer,\n            isLockedInRatio: isLockedInRatio,\n            creationDate: order.creationDate,\n            communityTokenId: communityTokenId,\n            communityTokenAmount: communityTokenAmount,\n            communityTokenCRD: communityTokenCRD,\n            governanceTokenId: governanceTokenId,\n            governanceTokenAmount: governanceTokenAmount,\n            governanceTokenCRD: governanceTokenCRD,\n            crdBalance: totalCRD\n        });\n\n        return newOrderId;\n    }\n\n    /// @dev This function is called to cancel the existing sale order\n    /// @param saleId This is the id of the buy order to cancel\n    function cancelBuyOrder(uint256 saleId) public {\n        require(\n            orderBook[saleId].buyer == msg.sender,\n            \"UNAUTHORIZED: ONLY_ORDER_CREATOR\"\n        );\n\n        require(orderBook[saleId].isClosed == false, \"INVALID: ORDER_CLOSED\");\n\n        Order memory order = orderBook[saleId];\n\n        ITreasuryCore treasuryCoreContract = ITreasuryCore(\n            TREASURY_CORE_CONTRACT_ADDRESS\n        );\n\n        //--- Need to have additional checks for balance of the sale and also to deduct the tokens from the sale struct\n        //Send back the remaining amount to user\n        treasuryCoreContract.safeTransferFrom(\n            address(this),\n            order.buyer,\n            treasuryCoreContract.CRD(),\n            order.crdBalance,\n            \"Sale order canceled\"\n        );\n\n        orderBook[saleId].isClosed = true;\n\n        emit OrderClose({\n            saleId: saleId,\n            creationDate: block.timestamp,\n            remainingBalance: order.crdBalance\n        });\n    }\n\n    /// @dev This function is called to accept the existing buy order\n    /// @param saleId This is the id of the buy order to buy\n    /// @param communityTokenAmount This is the community token amount that is being offered\n    /// @param governanceTokenAmount This is the governance token amount that is being offered\n    function acceptBuyOrder(\n        uint256 saleId,\n        uint256 communityTokenAmount,\n        uint256 governanceTokenAmount\n    ) public {\n        require(\n            orderBook[saleId].buyer != msg.sender,\n            \"INVALID: CANNOT_PURCHASE_SELF_ORDER\"\n        );\n\n        require(orderBook[saleId].isClosed == false, \"INVALID: ORDER_CLOSED\");\n\n        Order storage order = orderBook[saleId];\n\n        //This will check if the amount to purchase is less or equal than the order that is generated\n        require(\n            order.communityTokenAmount >= communityTokenAmount,\n            \"INSUFFICIENT: COMMUNITY_TOKEN_AMOUNT\"\n        );\n        require(\n            order.governanceTokenAmount >= governanceTokenAmount,\n            \"INSUFFICIENT: GOVERNANCE_TOKEN_AMOUNT\"\n        );\n\n        if (order.isLockedInRatio) {\n            //Multiply bigger value to make sure that we have proper ratio.\n            //As if we don't do that then something like 3/2 and 5/4 will be considers same and they will result in a false positive\n            if (order.communityTokenAmount > order.governanceTokenAmount) {\n                require(\n                    ratio(communityTokenAmount, governanceTokenAmount, 6) ==\n                        ratio(\n                            order.communityTokenAmount,\n                            order.governanceTokenAmount,\n                            6\n                        ),\n                    \"INVALID: TOKEN_RATIO\"\n                );\n            } else {\n                require(\n                    ratio(governanceTokenAmount, communityTokenAmount, 6) ==\n                        ratio(\n                            order.governanceTokenAmount,\n                            order.communityTokenAmount,\n                            6\n                        ),\n                    \"INVALID: TOKEN_RATIO\"\n                );\n            }\n        }\n\n        uint256[4] memory costArr;\n        if (order.communityTokenAmount > 0) {\n            (\n                uint256 cost,\n                uint256 platformFees\n            ) = _transferTokensAndTransactionCharge(\n                    communityTokenAmount,\n                    (order.communityTokenCRD * 1e6) /\n                        order.communityTokenAmount,\n                    order.communityTokenId,\n                    order.buyer\n                );\n            order.communityTokenCRD =\n                order.communityTokenCRD -\n                (cost + platformFees);\n\n            costArr[0] = cost;\n            costArr[1] = platformFees;\n        }\n\n        if (order.governanceTokenAmount > 0) {\n            (\n                uint256 cost,\n                uint256 platformFees\n            ) = _transferTokensAndTransactionCharge(\n                    governanceTokenAmount,\n                    (order.governanceTokenCRD * 1e6) /\n                        order.governanceTokenAmount,\n                    order.governanceTokenId,\n                    order.buyer\n                );\n            order.governanceTokenCRD =\n                order.governanceTokenCRD -\n                (cost + platformFees);\n            costArr[2] = cost;\n            costArr[3] = platformFees;\n        }\n\n        emit SaleBought({\n            saleId: saleId,\n            seller: order.buyer,\n            buyer: msg.sender,\n            creationDate: block.timestamp,\n            communityTokenId: order.communityTokenId,\n            communityTokenAmount: communityTokenAmount,\n            communityTokenCRD: costArr[0] + costArr[1],\n            governanceTokenId: order.governanceTokenId,\n            governanceTokenAmount: governanceTokenAmount,\n            governanceTokenCRD: costArr[2] + costArr[3],\n            amountTransferred: costArr[0] +\n                costArr[1] +\n                costArr[2] +\n                costArr[3],\n            platformFees: costArr[1] + costArr[3]\n        });\n\n        order.communityTokenAmount =\n            order.communityTokenAmount -\n            communityTokenAmount;\n\n        order.governanceTokenAmount =\n            order.governanceTokenAmount -\n            governanceTokenAmount;\n\n        order.crdBalance =\n            order.crdBalance -\n            (costArr[0] + costArr[1] + costArr[2] + costArr[3]);\n\n        if (\n            order.communityTokenAmount == 0 && order.governanceTokenAmount == 0\n        ) {\n            order.isClosed = true;\n            emit OrderClose({\n                saleId: saleId,\n                creationDate: block.timestamp,\n                remainingBalance: 0\n            });\n        }\n    }\n\n    /// @notice This is only for internal use\n    /// @dev This function is responsible to transfer the tokens at the time of purchase and\n    /// it is also responsible for transferring the fees.\n    /// @param tokenAmount This is the amount of token to transfer\n    /// @param tokenPrice This is the token price at which the tokens are being sold at\n    /// @param tokenId this is the ID of the token to transfer\n    function _transferTokensAndTransactionCharge(\n        uint256 tokenAmount,\n        uint256 tokenPrice,\n        uint256 tokenId,\n        address receiver\n    ) internal returns (uint256 totalCost, uint256 totalFee) {\n        // Change the function so that it will transfer the governance and governance tokens from the sellers\n        // account to buyer account then it would transfer the CRD governance from contract account to sellers\n        //account after deducting the transaction fees.\n\n        uint256 transactionAmount = (tokenAmount * tokenPrice) / 1e6;\n        uint256 transactionFee = (transactionAmount * TRANSACTION_FEE) / 10000;\n        //Removing the transaction fee from the transaction amount\n        transactionAmount = transactionAmount - transactionFee;\n\n        ITreasuryCore treasuryCoreContract = ITreasuryCore(\n            TREASURY_CORE_CONTRACT_ADDRESS\n        );\n\n        treasuryCoreContract.safeTransferFrom(\n            address(this),\n            WALLET_ADDRESS,\n            treasuryCoreContract.CRD(),\n            transactionFee,\n            \"Sale transaction fee\"\n        );\n\n        treasuryCoreContract.safeTransferFrom(\n            address(this),\n            msg.sender,\n            treasuryCoreContract.CRD(),\n            transactionAmount,\n            \"Sale token price amount transfer to seller\"\n        );\n\n        treasuryCoreContract.safeTransferFrom(\n            msg.sender,\n            receiver,\n            tokenId,\n            tokenAmount,\n            \"Sale token transfer to buyer\"\n        );\n\n        return (transactionAmount, transactionFee);\n    }\n\n    function onERC1155Received(\n        address,\n        address,\n        uint256,\n        uint256,\n        bytes memory\n    ) public virtual returns (bytes4) {\n        return this.onERC1155Received.selector;\n    }\n\n    function onERC1155BatchReceived(\n        address,\n        address,\n        uint256[] memory,\n        uint256[] memory,\n        bytes memory\n    ) public virtual returns (bytes4) {\n        return this.onERC1155BatchReceived.selector;\n    }\n\n    function onERC721Received(\n        address,\n        address,\n        uint256,\n        bytes memory\n    ) public virtual returns (bytes4) {\n        return this.onERC721Received.selector;\n    }\n}\n",
  "sourcePath": "/Users/a1/Desktop/Office/projects/CrowdRecords/Contracts/contracts/OrdersContract.sol",
  "compiler": {
    "name": "solc",
    "version": "0.8.12+commit.f00d7308.Emscripten.clang"
  },
  "schemaVersion": "3.4.6",
  "updatedAt": "2023-04-12T13:19:26.618Z",
  "devdoc": {
    "events": {
      "BuyOrder(uint256,address,bool,uint256,uint256,uint256,uint256,uint256,uint256,uint256,uint256)": {
        "details": "this is event which is created when a user creates order to sell his tokens",
        "params": {
          "buyer": "this is the address of the owner or the Buy order",
          "communityTokenAmount": "this is the community token amount for Buy order",
          "communityTokenCRD": "Total CRD tokens available for the purchase of community token",
          "communityTokenId": "this is the community token id that is involved in the Buy order",
          "crdBalance": "this is the total balance remaining for the order",
          "creationDate": "this is the creation date of the Buy order",
          "governanceTokenAmount": "this is the community token amount for Buy order",
          "governanceTokenCRD": "Total CRD tokens available for the purchase of governance token",
          "governanceTokenId": "this is the community token id that is involved in the Buy order",
          "isLockedInRatio": "the is denotes wether the user wants to sell the token individually or in a ratio",
          "saleId": "this is the Id of the Buy order"
        }
      },
      "OrderClose(uint256,uint256,uint256)": {
        "details": "this event is emmited when user closes his/her sale order",
        "params": {
          "creationDate": "This is the date when the event took place",
          "remainingBalance": "This is the amount that was remaining from the partially fulfilled orders",
          "saleId": "This is the sale Id of the sale order"
        }
      },
      "SaleBought(uint256,address,address,uint256,uint256,uint256,uint256,uint256,uint256,uint256,uint256,uint256)": {
        "details": "this is event which is created when a user purchases any sale order",
        "params": {
          "amountTransferred": "this is the total amount paid",
          "buyer": "this is the address of the owner or the sale order",
          "communityTokenAmount": "this is the community token amount for sale",
          "communityTokenCRD": "Total CRD tokens available for the purchase of community token",
          "communityTokenId": "this is the community token id that is involved in the sale",
          "creationDate": "this is the date when tokens were purchased",
          "governanceTokenAmount": "this is the community token amount for sale",
          "governanceTokenCRD": "Total CRD tokens available for the purchase of governance token",
          "governanceTokenId": "this is the community token id that is involved in the sale",
          "platformFees": "this is the platform fees taken by crowdrecords",
          "saleId": "this is the Id of the sale order",
          "seller": "this is the address of the person who sold the tokens in exchange for the crd"
        }
      }
    },
    "kind": "dev",
    "methods": {
      "acceptBuyOrder(uint256,uint256,uint256)": {
        "details": "This function is called to accept the existing buy order",
        "params": {
          "communityTokenAmount": "This is the community token amount that is being offered",
          "governanceTokenAmount": "This is the governance token amount that is being offered",
          "saleId": "This is the id of the buy order to buy"
        }
      },
      "cancelBuyOrder(uint256)": {
        "details": "This function is called to cancel the existing sale order",
        "params": {
          "saleId": "This is the id of the buy order to cancel"
        }
      },
      "createBuyOrder((bool,uint256,uint256,uint256,uint256,uint256,uint256,uint256))": {
        "details": "This function is called to create a new saleOrder",
        "params": {
          "params": "this is the params for the buy order creation"
        }
      },
      "initialize(address,address)": {
        "details": "This is to set the address of the contracts",
        "params": {
          "newTreasuryContractAddress": "This is the address of new treasury contract",
          "newTreasuryCoreContractAddress": "This is the new address of treasury core contract"
        }
      },
      "ratio(uint256,uint256,uint256)": {
        "details": "This function calculates the ratio of the 2 values with fixed precision",
        "params": {
          "denominator": "the denominator value",
          "numerator": "the numerator value",
          "precision": "precision count"
        },
        "returns": {
          "quotient": "The ratio of numerator to denominator"
        }
      },
      "setOwnerAddress(address)": {
        "details": "This function takes in the address of new owner and sets it to the contract",
        "params": {
          "owner": "Takes the address of new owner as parameter"
        }
      },
      "setWalletAddress(address)": {
        "details": "This function sets the wallet address this address will receive all the transaction royalties",
        "params": {
          "newWalletAddress": "the is the new newWalletAddress"
        }
      }
    },
    "version": 1
  },
  "userdoc": {
    "kind": "user",
    "methods": {
      "setOwnerAddress(address)": {
        "notice": "This function is to set the owner address"
      }
    },
    "version": 1
  }
}