{
  "contractName": "OrdersContract",
  "abi": [
    {
      "inputs": [],
      "stateMutability": "nonpayable",
      "type": "constructor"
    },
    {
      "anonymous": false,
      "inputs": [
        {
          "indexed": false,
          "internalType": "uint256",
          "name": "saleId",
          "type": "uint256"
        },
        {
          "indexed": false,
          "internalType": "address",
          "name": "seller",
          "type": "address"
        },
        {
          "indexed": false,
          "internalType": "address",
          "name": "buyer",
          "type": "address"
        },
        {
          "indexed": false,
          "internalType": "uint256",
          "name": "creationDate",
          "type": "uint256"
        },
        {
          "indexed": false,
          "internalType": "uint256",
          "name": "communityTokenId",
          "type": "uint256"
        },
        {
          "indexed": false,
          "internalType": "uint256",
          "name": "communityTokenAmount",
          "type": "uint256"
        },
        {
          "indexed": false,
          "internalType": "uint256",
          "name": "communityTokenPrice",
          "type": "uint256"
        },
        {
          "indexed": false,
          "internalType": "uint256",
          "name": "governanceTokenId",
          "type": "uint256"
        },
        {
          "indexed": false,
          "internalType": "uint256",
          "name": "governanceTokenAmount",
          "type": "uint256"
        },
        {
          "indexed": false,
          "internalType": "uint256",
          "name": "governanceTokenPrice",
          "type": "uint256"
        }
      ],
      "name": "SaleBought",
      "type": "event"
    },
    {
      "anonymous": false,
      "inputs": [
        {
          "indexed": false,
          "internalType": "uint256",
          "name": "saleId",
          "type": "uint256"
        },
        {
          "indexed": false,
          "internalType": "uint256",
          "name": "creationDate",
          "type": "uint256"
        }
      ],
      "name": "SaleClose",
      "type": "event"
    },
    {
      "anonymous": false,
      "inputs": [
        {
          "indexed": false,
          "internalType": "uint256",
          "name": "saleId",
          "type": "uint256"
        },
        {
          "indexed": false,
          "internalType": "address",
          "name": "seller",
          "type": "address"
        },
        {
          "indexed": false,
          "internalType": "bool",
          "name": "isLockedInRatio",
          "type": "bool"
        },
        {
          "indexed": false,
          "internalType": "uint256",
          "name": "creationDate",
          "type": "uint256"
        },
        {
          "indexed": false,
          "internalType": "uint256",
          "name": "communityTokenId",
          "type": "uint256"
        },
        {
          "indexed": false,
          "internalType": "uint256",
          "name": "communityTokenAmount",
          "type": "uint256"
        },
        {
          "indexed": false,
          "internalType": "uint256",
          "name": "communityTokenPrice",
          "type": "uint256"
        },
        {
          "indexed": false,
          "internalType": "uint256",
          "name": "governanceTokenId",
          "type": "uint256"
        },
        {
          "indexed": false,
          "internalType": "uint256",
          "name": "governanceTokenAmount",
          "type": "uint256"
        },
        {
          "indexed": false,
          "internalType": "uint256",
          "name": "governanceTokenPrice",
          "type": "uint256"
        }
      ],
      "name": "SaleOrder",
      "type": "event"
    },
    {
      "inputs": [],
      "name": "RECORDS_CONTRACT_ADDRESS",
      "outputs": [
        {
          "internalType": "address",
          "name": "",
          "type": "address"
        }
      ],
      "stateMutability": "view",
      "type": "function"
    },
    {
      "inputs": [],
      "name": "TREASURY_CONTRACT_ADDRESS",
      "outputs": [
        {
          "internalType": "address",
          "name": "",
          "type": "address"
        }
      ],
      "stateMutability": "view",
      "type": "function"
    },
    {
      "inputs": [],
      "name": "VOTING_CONTRACT_ADDRESS",
      "outputs": [
        {
          "internalType": "address",
          "name": "",
          "type": "address"
        }
      ],
      "stateMutability": "view",
      "type": "function"
    },
    {
      "inputs": [
        {
          "internalType": "address",
          "name": "newTreasuryContractAddress",
          "type": "address"
        }
      ],
      "name": "setTreasuryContractAddress",
      "outputs": [],
      "stateMutability": "nonpayable",
      "type": "function"
    },
    {
      "inputs": [
        {
          "internalType": "bool",
          "name": "isLockedInRatio",
          "type": "bool"
        },
        {
          "internalType": "uint256",
          "name": "recordId",
          "type": "uint256"
        },
        {
          "internalType": "uint256",
          "name": "communityTokenId",
          "type": "uint256"
        },
        {
          "internalType": "uint256",
          "name": "communityTokenAmount",
          "type": "uint256"
        },
        {
          "internalType": "uint256",
          "name": "communityTokenPrice",
          "type": "uint256"
        },
        {
          "internalType": "uint256",
          "name": "governanceTokenId",
          "type": "uint256"
        },
        {
          "internalType": "uint256",
          "name": "governanceTokenAmount",
          "type": "uint256"
        },
        {
          "internalType": "uint256",
          "name": "governanceTokenPrice",
          "type": "uint256"
        }
      ],
      "name": "createSaleOrder",
      "outputs": [
        {
          "internalType": "uint256",
          "name": "saleOrderId",
          "type": "uint256"
        }
      ],
      "stateMutability": "nonpayable",
      "type": "function"
    },
    {
      "inputs": [
        {
          "internalType": "uint256",
          "name": "saleId",
          "type": "uint256"
        }
      ],
      "name": "cancelSaleOrder",
      "outputs": [],
      "stateMutability": "nonpayable",
      "type": "function"
    },
    {
      "inputs": [
        {
          "internalType": "uint256",
          "name": "saleId",
          "type": "uint256"
        },
        {
          "internalType": "uint256",
          "name": "governanceTokenAmount",
          "type": "uint256"
        },
        {
          "internalType": "uint256",
          "name": "communityTokenAmount",
          "type": "uint256"
        }
      ],
      "name": "purchaseSaleOrder",
      "outputs": [],
      "stateMutability": "nonpayable",
      "type": "function"
    },
    {
      "inputs": [
        {
          "internalType": "address",
          "name": "",
          "type": "address"
        },
        {
          "internalType": "address",
          "name": "",
          "type": "address"
        },
        {
          "internalType": "uint256",
          "name": "",
          "type": "uint256"
        },
        {
          "internalType": "uint256",
          "name": "",
          "type": "uint256"
        },
        {
          "internalType": "bytes",
          "name": "",
          "type": "bytes"
        }
      ],
      "name": "onERC1155Received",
      "outputs": [
        {
          "internalType": "bytes4",
          "name": "",
          "type": "bytes4"
        }
      ],
      "stateMutability": "nonpayable",
      "type": "function"
    },
    {
      "inputs": [
        {
          "internalType": "address",
          "name": "",
          "type": "address"
        },
        {
          "internalType": "address",
          "name": "",
          "type": "address"
        },
        {
          "internalType": "uint256[]",
          "name": "",
          "type": "uint256[]"
        },
        {
          "internalType": "uint256[]",
          "name": "",
          "type": "uint256[]"
        },
        {
          "internalType": "bytes",
          "name": "",
          "type": "bytes"
        }
      ],
      "name": "onERC1155BatchReceived",
      "outputs": [
        {
          "internalType": "bytes4",
          "name": "",
          "type": "bytes4"
        }
      ],
      "stateMutability": "nonpayable",
      "type": "function"
    },
    {
      "inputs": [
        {
          "internalType": "address",
          "name": "",
          "type": "address"
        },
        {
          "internalType": "address",
          "name": "",
          "type": "address"
        },
        {
          "internalType": "uint256",
          "name": "",
          "type": "uint256"
        },
        {
          "internalType": "bytes",
          "name": "",
          "type": "bytes"
        }
      ],
      "name": "onERC721Received",
      "outputs": [
        {
          "internalType": "bytes4",
          "name": "",
          "type": "bytes4"
        }
      ],
      "stateMutability": "nonpayable",
      "type": "function"
    }
  ],
  "bytecode": "0x60806040526032600260146101000a81548160ff021916908360ff160217905550600060055534801561003157600080fd5b5033600360006101000a81548173ffffffffffffffffffffffffffffffffffffffff021916908373ffffffffffffffffffffffffffffffffffffffff160217905550612936806100826000396000f3fe608060405234801561001057600080fd5b506004361061009e5760003560e01c8063af39d3a811610066578063af39d3a814610147578063b17c6ab814610177578063ba19a67514610193578063bc197c81146101b1578063f23a6e61146101e15761009e565b8063150b7a02146100a357806324f626a9146100d35780634cf2d48f146100ef578063659d45eb1461010b578063acb3149314610129575b600080fd5b6100bd60048036038101906100b891906117d3565b610211565b6040516100ca9190611891565b60405180910390f35b6100ed60048036038101906100e891906118ac565b610225565b005b610109600480360381019061010491906118ff565b6108cf565b005b6101136109a3565b604051610120919061193b565b60405180910390f35b6101316109c9565b60405161013e919061193b565b60405180910390f35b610161600480360381019061015c919061198e565b6109ef565b60405161016e9190611a53565b60405180910390f35b610191600480360381019061018c9190611a6e565b610ee1565b005b61019b611298565b6040516101a8919061193b565b60405180910390f35b6101cb60048036038101906101c69190611b63565b6112bc565b6040516101d89190611891565b60405180910390f35b6101fb60048036038101906101f69190611c32565b6112d1565b6040516102089190611891565b60405180910390f35b600063150b7a0260e01b9050949350505050565b3373ffffffffffffffffffffffffffffffffffffffff1660046000600554815260200190815260200160002060000160029054906101000a900473ffffffffffffffffffffffffffffffffffffffff1673ffffffffffffffffffffffffffffffffffffffff1614156102cc576040517f08c379a00000000000000000000000000000000000000000000000000000000081526004016102c390611d4c565b60405180910390fd5b6000151560046000600554815260200190815260200160002060000160009054906101000a900460ff16151514610338576040517f08c379a000000000000000000000000000000000000000000000000000000000815260040161032f90611db8565b60405180910390fd5b6000600460006005548152602001908152602001600020604051806101400160405290816000820160009054906101000a900460ff161515151581526020016000820160019054906101000a900460ff161515151581526020016000820160029054906101000a900473ffffffffffffffffffffffffffffffffffffffff1673ffffffffffffffffffffffffffffffffffffffff1673ffffffffffffffffffffffffffffffffffffffff1681526020016001820154815260200160028201548152602001600382015481526020016004820154815260200160058201548152602001600682015481526020016007820154815250509050818160a001511015610476576040517f08c379a000000000000000000000000000000000000000000000000000000000815260040161046d90611e4a565b60405180910390fd5b8281610100015110156104be576040517f08c379a00000000000000000000000000000000000000000000000000000000081526004016104b590611edc565b60405180910390fd5b8060200151156106a2578061010001518160a0015111156105bf5761052e60648260a001516104ed9190611f2b565b8261010001516040518060400160405280600d81526020017f496e76616c696420726174696f000000000000000000000000000000000000008152506112e6565b61057a60648461053e9190611f2b565b856040518060400160405280600d81526020017f496e76616c696420726174696f000000000000000000000000000000000000008152506112e6565b146105ba576040517f08c379a00000000000000000000000000000000000000000000000000000000081526004016105b190611fd1565b60405180910390fd5b6106a1565b61061460648261010001516105d49190611f2b565b8260a001516040518060400160405280600d81526020017f496e76616c696420726174696f000000000000000000000000000000000000008152506112e6565b6106606064856106249190611f2b565b846040518060400160405280600d81526020017f496e76616c696420726174696f000000000000000000000000000000000000008152506112e6565b146106a0576040517f08c379a000000000000000000000000000000000000000000000000000000000815260040161069790611fd1565b60405180910390fd5b5b5b60008160a0015111156106c3576106c2828260c001518360800151611348565b5b600081610100015111156106e6576106e5838261012001518360e00151611348565b5b7f99a29242c68c0c740f71ef7e083304879a3d32d5a1dae7c8d859bb1dc869e0e184826040015133428560800151878760c001518860e001518b8a610120015160405161073c9a99989796959493929190611ff1565b60405180910390a1818160a00151610754919061208d565b8160a00181815250508281610100015161076e919061208d565b8161010001818152505060008160a0015114801561079157506000816101000151145b156107e15760018160000190151590811515815250507faddafcfffecafba8176cfb6a75787e2ba54b31151d6da0381c3b50be61a952d784426040516107d89291906120c1565b60405180910390a15b8060046000600554815260200190815260200160002060008201518160000160006101000a81548160ff02191690831515021790555060208201518160000160016101000a81548160ff02191690831515021790555060408201518160000160026101000a81548173ffffffffffffffffffffffffffffffffffffffff021916908373ffffffffffffffffffffffffffffffffffffffff160217905550606082015181600101556080820151816002015560a0820151816003015560c0820151816004015560e082015181600501556101008201518160060155610120820151816007015590505050505050565b600360009054906101000a900473ffffffffffffffffffffffffffffffffffffffff1673ffffffffffffffffffffffffffffffffffffffff163373ffffffffffffffffffffffffffffffffffffffff161461095f576040517f08c379a00000000000000000000000000000000000000000000000000000000081526004016109569061215c565b60405180910390fd5b80600260006101000a81548173ffffffffffffffffffffffffffffffffffffffff021916908373ffffffffffffffffffffffffffffffffffffffff16021790555050565b600160009054906101000a900473ffffffffffffffffffffffffffffffffffffffff1681565b600260009054906101000a900473ffffffffffffffffffffffffffffffffffffffff1681565b600080600260009054906101000a900473ffffffffffffffffffffffffffffffffffffffff169050878173ffffffffffffffffffffffffffffffffffffffff16632d4a03828b6040518263ffffffff1660e01b8152600401610a519190611a53565b602060405180830381865afa158015610a6e573d6000803e3d6000fd5b505050506040513d601f19601f82011682018060405250810190610a929190612191565b14610ad2576040517f08c379a0000000000000000000000000000000000000000000000000000000008152600401610ac99061220a565b60405180910390fd5b848173ffffffffffffffffffffffffffffffffffffffff1663d6ca40a78b6040518263ffffffff1660e01b8152600401610b0c9190611a53565b602060405180830381865afa158015610b29573d6000803e3d6000fd5b505050506040513d601f19601f82011682018060405250810190610b4d9190612191565b14610b8d576040517f08c379a0000000000000000000000000000000000000000000000000000000008152600401610b8490612276565b60405180910390fd5b8915610c1a5760008711610bd6576040517f08c379a0000000000000000000000000000000000000000000000000000000008152600401610bcd90612308565b60405180910390fd5b60008411610c19576040517f08c379a0000000000000000000000000000000000000000000000000000000008152600401610c109061239a565b60405180910390fd5b5b6000600554905060056000815480929190610c34906123ba565b91905055506000881115610cb4578173ffffffffffffffffffffffffffffffffffffffff1663f242432a32308c8c6040518563ffffffff1660e01b8152600401610c819493929190612460565b600060405180830381600087803b158015610c9b57600080fd5b505af1158015610caf573d6000803e3d6000fd5b505050505b6000851115610d2f578173ffffffffffffffffffffffffffffffffffffffff1663f242432a323089896040518563ffffffff1660e01b8152600401610cfc9493929190612460565b600060405180830381600087803b158015610d1657600080fd5b505af1158015610d2a573d6000803e3d6000fd5b505050505b60006040518061014001604052806000151581526020018d151581526020013273ffffffffffffffffffffffffffffffffffffffff1681526020014281526020018b81526020018a81526020018981526020018881526020018781526020018681525090508060046000600554815260200190815260200160002060008201518160000160006101000a81548160ff02191690831515021790555060208201518160000160016101000a81548160ff02191690831515021790555060408201518160000160026101000a81548173ffffffffffffffffffffffffffffffffffffffff021916908373ffffffffffffffffffffffffffffffffffffffff160217905550606082015181600101556080820151816002015560a0820151816003015560c0820151816004015560e08201518160050155610100820151816006015561012082015181600701559050507f3baad815bbbf65b8fc8da69213b72cadf47e779b9895ac5301e604283c1b8b1460055482604001518e84606001518e8e8e8e8e8e604051610ec79a999897969594939291906124c7565b60405180910390a181935050505098975050505050505050565b3373ffffffffffffffffffffffffffffffffffffffff1660046000600554815260200190815260200160002060000160029054906101000a900473ffffffffffffffffffffffffffffffffffffffff1673ffffffffffffffffffffffffffffffffffffffff1614610f87576040517f08c379a0000000000000000000000000000000000000000000000000000000008152600401610f7e906125d5565b60405180910390fd5b6000151560046000600554815260200190815260200160002060000160009054906101000a900460ff16151514610ff3576040517f08c379a0000000000000000000000000000000000000000000000000000000008152600401610fea90611db8565b60405180910390fd5b6000600460006005548152602001908152602001600020604051806101400160405290816000820160009054906101000a900460ff161515151581526020016000820160019054906101000a900460ff161515151581526020016000820160029054906101000a900473ffffffffffffffffffffffffffffffffffffffff1673ffffffffffffffffffffffffffffffffffffffff1673ffffffffffffffffffffffffffffffffffffffff16815260200160018201548152602001600282015481526020016003820154815260200160048201548152602001600582015481526020016006820154815260200160078201548152505090506000600260009054906101000a900473ffffffffffffffffffffffffffffffffffffffff16905060008260a00151111561119c578073ffffffffffffffffffffffffffffffffffffffff1663f242432a30846040015185608001518660a001516040518563ffffffff1660e01b81526004016111699493929190612460565b600060405180830381600087803b15801561118357600080fd5b505af1158015611197573d6000803e3d6000fd5b505050505b60008261010001511115611229578073ffffffffffffffffffffffffffffffffffffffff1663f242432a3084604001518560e001518661010001516040518563ffffffff1660e01b81526004016111f69493929190612460565b600060405180830381600087803b15801561121057600080fd5b505af1158015611224573d6000803e3d6000fd5b505050505b600160046000600554815260200190815260200160002060000160006101000a81548160ff0219169083151502179055507faddafcfffecafba8176cfb6a75787e2ba54b31151d6da0381c3b50be61a952d7834260405161128b9291906120c1565b60405180910390a1505050565b60008054906101000a900473ffffffffffffffffffffffffffffffffffffffff1681565b600063bc197c8160e01b905095945050505050565b600063f23a6e6160e01b905095945050505050565b6000808311829061132d576040517f08c379a0000000000000000000000000000000000000000000000000000000008152600401611324919061266c565b60405180910390fd5b5082848161133e5761133d61268e565b5b0490509392505050565b600082846113569190611f2b565b905060006103e8600260149054906101000a900460ff1660ff168361137b9190611f2b565b61138591906126bd565b90506000600260009054906101000a900473ffffffffffffffffffffffffffffffffffffffff1690508073ffffffffffffffffffffffffffffffffffffffff1663f242432a33308473ffffffffffffffffffffffffffffffffffffffff1663e6acd9b86040518163ffffffff1660e01b8152600401602060405180830381865afa158015611417573d6000803e3d6000fd5b505050506040513d601f19601f8201168201806040525081019061143b9190612191565b866040518563ffffffff1660e01b815260040161145b949392919061273a565b600060405180830381600087803b15801561147557600080fd5b505af1158015611489573d6000803e3d6000fd5b505050508073ffffffffffffffffffffffffffffffffffffffff1663f242432a33308473ffffffffffffffffffffffffffffffffffffffff1663e6acd9b86040518163ffffffff1660e01b8152600401602060405180830381865afa1580156114f6573d6000803e3d6000fd5b505050506040513d601f19601f8201168201806040525081019061151a9190612191565b876040518563ffffffff1660e01b815260040161153a9493929190612804565b600060405180830381600087803b15801561155457600080fd5b505af1158015611568573d6000803e3d6000fd5b505050508073ffffffffffffffffffffffffffffffffffffffff1663f242432a3033878a6040518563ffffffff1660e01b81526004016115ab94939291906128a8565b600060405180830381600087803b1580156115c557600080fd5b505af11580156115d9573d6000803e3d6000fd5b50505050505050505050565b6000604051905090565b600080fd5b600080fd5b600073ffffffffffffffffffffffffffffffffffffffff82169050919050565b6000611624826115f9565b9050919050565b61163481611619565b811461163f57600080fd5b50565b6000813590506116518161162b565b92915050565b6000819050919050565b61166a81611657565b811461167557600080fd5b50565b60008135905061168781611661565b92915050565b600080fd5b600080fd5b6000601f19601f8301169050919050565b7f4e487b7100000000000000000000000000000000000000000000000000000000600052604160045260246000fd5b6116e082611697565b810181811067ffffffffffffffff821117156116ff576116fe6116a8565b5b80604052505050565b60006117126115e5565b905061171e82826116d7565b919050565b600067ffffffffffffffff82111561173e5761173d6116a8565b5b61174782611697565b9050602081019050919050565b82818337600083830152505050565b600061177661177184611723565b611708565b90508281526020810184848401111561179257611791611692565b5b61179d848285611754565b509392505050565b600082601f8301126117ba576117b961168d565b5b81356117ca848260208601611763565b91505092915050565b600080600080608085870312156117ed576117ec6115ef565b5b60006117fb87828801611642565b945050602061180c87828801611642565b935050604061181d87828801611678565b925050606085013567ffffffffffffffff81111561183e5761183d6115f4565b5b61184a878288016117a5565b91505092959194509250565b60007fffffffff0000000000000000000000000000000000000000000000000000000082169050919050565b61188b81611856565b82525050565b60006020820190506118a66000830184611882565b92915050565b6000806000606084860312156118c5576118c46115ef565b5b60006118d386828701611678565b93505060206118e486828701611678565b92505060406118f586828701611678565b9150509250925092565b600060208284031215611915576119146115ef565b5b600061192384828501611642565b91505092915050565b61193581611619565b82525050565b6000602082019050611950600083018461192c565b92915050565b60008115159050919050565b61196b81611956565b811461197657600080fd5b50565b60008135905061198881611962565b92915050565b600080600080600080600080610100898b0312156119af576119ae6115ef565b5b60006119bd8b828c01611979565b98505060206119ce8b828c01611678565b97505060406119df8b828c01611678565b96505060606119f08b828c01611678565b9550506080611a018b828c01611678565b94505060a0611a128b828c01611678565b93505060c0611a238b828c01611678565b92505060e0611a348b828c01611678565b9150509295985092959890939650565b611a4d81611657565b82525050565b6000602082019050611a686000830184611a44565b92915050565b600060208284031215611a8457611a836115ef565b5b6000611a9284828501611678565b91505092915050565b600067ffffffffffffffff821115611ab657611ab56116a8565b5b602082029050602081019050919050565b600080fd5b6000611adf611ada84611a9b565b611708565b90508083825260208201905060208402830185811115611b0257611b01611ac7565b5b835b81811015611b2b5780611b178882611678565b845260208401935050602081019050611b04565b5050509392505050565b600082601f830112611b4a57611b4961168d565b5b8135611b5a848260208601611acc565b91505092915050565b600080600080600060a08688031215611b7f57611b7e6115ef565b5b6000611b8d88828901611642565b9550506020611b9e88828901611642565b945050604086013567ffffffffffffffff811115611bbf57611bbe6115f4565b5b611bcb88828901611b35565b935050606086013567ffffffffffffffff811115611bec57611beb6115f4565b5b611bf888828901611b35565b925050608086013567ffffffffffffffff811115611c1957611c186115f4565b5b611c25888289016117a5565b9150509295509295909350565b600080600080600060a08688031215611c4e57611c4d6115ef565b5b6000611c5c88828901611642565b9550506020611c6d88828901611642565b9450506040611c7e88828901611678565b9350506060611c8f88828901611678565b925050608086013567ffffffffffffffff811115611cb057611caf6115f4565b5b611cbc888289016117a5565b9150509295509295909350565b600082825260208201905092915050565b7f796f752063616e6e6f7420707572636861736520796f7572206f776e20746f6b60008201527f656e730000000000000000000000000000000000000000000000000000000000602082015250565b6000611d36602383611cc9565b9150611d4182611cda565b604082019050919050565b60006020820190508181036000830152611d6581611d29565b9050919050565b7f497320616c726561647920636c6f736564000000000000000000000000000000600082015250565b6000611da2601183611cc9565b9150611dad82611d6c565b602082019050919050565b60006020820190508181036000830152611dd181611d95565b9050919050565b7f436f6d6d756e69747920746f6b656e20616d6f756e7420697320696e7375666660008201527f6963656e74000000000000000000000000000000000000000000000000000000602082015250565b6000611e34602583611cc9565b9150611e3f82611dd8565b604082019050919050565b60006020820190508181036000830152611e6381611e27565b9050919050565b7f476f7665726e616e636520746f6b656e20616d6f756e7420697320696e73756660008201527f666963656e740000000000000000000000000000000000000000000000000000602082015250565b6000611ec6602683611cc9565b9150611ed182611e6a565b604082019050919050565b60006020820190508181036000830152611ef581611eb9565b9050919050565b7f4e487b7100000000000000000000000000000000000000000000000000000000600052601160045260246000fd5b6000611f3682611657565b9150611f4183611657565b9250817fffffffffffffffffffffffffffffffffffffffffffffffffffffffffffffffff0483118215151615611f7a57611f79611efc565b5b828202905092915050565b7f496e76616c696420526174696f00000000000000000000000000000000000000600082015250565b6000611fbb600d83611cc9565b9150611fc682611f85565b602082019050919050565b60006020820190508181036000830152611fea81611fae565b9050919050565b600061014082019050612007600083018d611a44565b612014602083018c61192c565b612021604083018b61192c565b61202e606083018a611a44565b61203b6080830189611a44565b61204860a0830188611a44565b61205560c0830187611a44565b61206260e0830186611a44565b612070610100830185611a44565b61207e610120830184611a44565b9b9a5050505050505050505050565b600061209882611657565b91506120a383611657565b9250828210156120b6576120b5611efc565b5b828203905092915050565b60006040820190506120d66000830185611a44565b6120e36020830184611a44565b9392505050565b7f596f7520617265206e6f7420617574686f72697a656420666f7220746869732060008201527f616374696f6e0000000000000000000000000000000000000000000000000000602082015250565b6000612146602683611cc9565b9150612151826120ea565b604082019050919050565b6000602082019050818103600083015261217581612139565b9050919050565b60008151905061218b81611661565b92915050565b6000602082840312156121a7576121a66115ef565b5b60006121b58482850161217c565b91505092915050565b7f496e76616c696420636f6d6d756e69747920746f6b656e206964000000000000600082015250565b60006121f4601a83611cc9565b91506121ff826121be565b602082019050919050565b60006020820190508181036000830152612223816121e7565b9050919050565b7f496e76616c696420676f7665726e616e636520746f6b656e2069640000000000600082015250565b6000612260601b83611cc9565b915061226b8261222a565b602082019050919050565b6000602082019050818103600083015261228f81612253565b9050919050565b7f596f752063616e6e6f742068617665203020636f6d6d756e69747920746f6b6560008201527f6e20616d6f756e74000000000000000000000000000000000000000000000000602082015250565b60006122f2602883611cc9565b91506122fd82612296565b604082019050919050565b60006020820190508181036000830152612321816122e5565b9050919050565b7f596f752063616e6e6f742068617665203020676f7665726e616e636520746f6b60008201527f656e20616d6f756e740000000000000000000000000000000000000000000000602082015250565b6000612384602983611cc9565b915061238f82612328565b604082019050919050565b600060208201905081810360008301526123b381612377565b9050919050565b60006123c582611657565b91507fffffffffffffffffffffffffffffffffffffffffffffffffffffffffffffffff8214156123f8576123f7611efc565b5b600182019050919050565b600082825260208201905092915050565b7f53616c65206f7264657200000000000000000000000000000000000000000000600082015250565b600061244a600a83612403565b915061245582612414565b602082019050919050565b600060a082019050612475600083018761192c565b612482602083018661192c565b61248f6040830185611a44565b61249c6060830184611a44565b81810360808301526124ad8161243d565b905095945050505050565b6124c181611956565b82525050565b6000610140820190506124dd600083018d611a44565b6124ea602083018c61192c565b6124f7604083018b6124b8565b612504606083018a611a44565b6125116080830189611a44565b61251e60a0830188611a44565b61252b60c0830187611a44565b61253860e0830186611a44565b612546610100830185611a44565b612554610120830184611a44565b9b9a5050505050505050505050565b7f796f752061726520756e617574686f72697a656420666f72207468697320616360008201527f74696f6e00000000000000000000000000000000000000000000000000000000602082015250565b60006125bf602483611cc9565b91506125ca82612563565b604082019050919050565b600060208201905081810360008301526125ee816125b2565b9050919050565b600081519050919050565b60005b8381101561261e578082015181840152602081019050612603565b8381111561262d576000848401525b50505050565b600061263e826125f5565b6126488185611cc9565b9350612658818560208601612600565b61266181611697565b840191505092915050565b600060208201905081810360008301526126868184612633565b905092915050565b7f4e487b7100000000000000000000000000000000000000000000000000000000600052601260045260246000fd5b60006126c882611657565b91506126d383611657565b9250826126e3576126e261268e565b5b828204905092915050565b7f53616c65207472616e73616374696f6e20666565000000000000000000000000600082015250565b6000612724601483612403565b915061272f826126ee565b602082019050919050565b600060a08201905061274f600083018761192c565b61275c602083018661192c565b6127696040830185611a44565b6127766060830184611a44565b818103608083015261278781612717565b905095945050505050565b7f53616c6520746f6b656e20707269636520616d6f756e74207472616e7366657260008201527f20746f2073656c6c657200000000000000000000000000000000000000000000602082015250565b60006127ee602a83612403565b91506127f982612792565b604082019050919050565b600060a082019050612819600083018761192c565b612826602083018661192c565b6128336040830185611a44565b6128406060830184611a44565b8181036080830152612851816127e1565b905095945050505050565b7f53616c6520746f6b656e207472616e7366657220746f20627579657200000000600082015250565b6000612892601c83612403565b915061289d8261285c565b602082019050919050565b600060a0820190506128bd600083018761192c565b6128ca602083018661192c565b6128d76040830185611a44565b6128e46060830184611a44565b81810360808301526128f581612885565b90509594505050505056fea2646970667358221220038bbdb11d42131acc366b890601a6f824c81c77f7939e8b7c5255a00d72269464736f6c634300080c0033",
  "immutableReferences": {},
  "source": "pragma solidity ^0.8.0;\n\nimport \"@openzeppelin/contracts/utils/Counters.sol\";\nimport \"@openzeppelin/contracts/access/Ownable.sol\";\nimport \"@openzeppelin/contracts/utils/math/SafeMath.sol\";\nimport \"./RecordsContract.sol\";\nimport \"./TreasuryContract.sol\";\n\ncontract OrdersContract {\n    address public RECORDS_CONTRACT_ADDRESS;\n    address public VOTING_CONTRACT_ADDRESS;\n    address public TREASURY_CONTRACT_ADDRESS;\n    uint8 TRANSACTION_FEE = 50; //This is 0.50%\n    address OWNER;\n\n    struct Order {\n        bool isClosed;\n        bool isLockedInRatio;\n        address seller;\n        uint256 creationDate;\n        uint256 communityTokenId;\n        uint256 communityTokenAmount;\n        uint256 communityTokenPrice;\n        uint256 governanceTokenId;\n        uint256 governanceTokenAmount;\n        uint256 governanceTokenPrice;\n    }\n\n    /**\n        @dev this is event which is created when a user creates order to sell his tokens\n        @param saleId this is the Id of the sale order\n        @param seller this is the address of the owner or the sale order\n        @param isLockedInRatio the is denotes wether the user wants to sell the token individually or in a ratio\n        @param creationDate this is the creation date of the sale order\n        @param communityTokenId this is the community token id that is involved in the sale\n        @param communityTokenAmount this is the comunity token amount for sale\n        @param communityTokenPrice this is the price of sinle token\n        @param governanceTokenId this is the community token id that is involved in the sale\n        @param governanceTokenAmount this is the comunity token amount for sale\n        @param governanceTokenPrice this is the price of sinle token\n     */\n    event SaleOrder(\n        uint256 saleId,\n        address seller,\n        bool isLockedInRatio,\n        uint256 creationDate,\n        uint256 communityTokenId,\n        uint256 communityTokenAmount,\n        uint256 communityTokenPrice,\n        uint256 governanceTokenId,\n        uint256 governanceTokenAmount,\n        uint256 governanceTokenPrice\n    );\n\n    /**\n        @dev this is event which is created when a user purchases any sale order\n        @param saleId this is the Id of the sale order\n        @param seller this is the address of the owner or the sale order\n        @param buyer this is the address of the person who bought the tokens\n        @param creationDate this is the date when tokens were purchased\n        @param communityTokenId this is the community token id that is involved in the sale\n        @param communityTokenAmount this is the comunity token amount for sale\n        @param communityTokenPrice this is the price of sinle token\n        @param governanceTokenId this is the community token id that is involved in the sale\n        @param governanceTokenAmount this is the comunity token amount for sale\n        @param governanceTokenPrice this is the price of sinle token\n     */\n    event SaleBought(\n        uint256 saleId,\n        address seller,\n        address buyer,\n        uint256 creationDate,\n        uint256 communityTokenId,\n        uint256 communityTokenAmount,\n        uint256 communityTokenPrice,\n        uint256 governanceTokenId,\n        uint256 governanceTokenAmount,\n        uint256 governanceTokenPrice\n    );\n\n    /**\n        @dev this event is emmited when user closes his/her sale order\n        @param saleId This is the sale Id of the sale order \n        @param creationDate This is the date when the event took place \n     */\n    event SaleClose(uint256 saleId, uint256 creationDate);\n\n    mapping(uint256 => Order) orderBook;\n    uint256 orderId = 0;\n\n    constructor() {\n        OWNER = msg.sender;\n    }\n\n    /**\n     * @dev Modifier to check that the person who accesses a specific function is the owner of contract himself.\n     */\n    modifier ownerOnly() {\n        require(msg.sender == OWNER, \"You are not authorized for this action\");\n        _;\n    }\n\n    /**\n     * @dev This function sets the treasury Contract address\n     */\n    function setTreasuryContractAddress(address newTreasuryContractAddress)\n        public\n        ownerOnly\n    {\n        TREASURY_CONTRACT_ADDRESS = newTreasuryContractAddress;\n    }\n\n    //safeTransferFrom\n\n    /**\n     * @dev This function is called to create a new saleOrder\n     */\n    function createSaleOrder(\n        bool isLockedInRatio,\n        uint256 recordId,\n        uint256 communityTokenId,\n        uint256 communityTokenAmount,\n        uint256 communityTokenPrice,\n        uint256 governanceTokenId,\n        uint256 governanceTokenAmount,\n        uint256 governanceTokenPrice\n    ) public returns (uint256 saleOrderId) {\n        TreasuryContract treasuryContract = TreasuryContract(\n            TREASURY_CONTRACT_ADDRESS\n        );\n\n        require(\n            treasuryContract.getCommunityTokenId(recordId) == communityTokenId,\n            \"Invalid community token id\"\n        );\n        require(\n            treasuryContract.getGovernanceTokenId(recordId) ==\n                governanceTokenId,\n            \"Invalid governance token id\"\n        );\n\n        if (isLockedInRatio) {\n            require(\n                communityTokenAmount > 0,\n                \"You cannot have 0 community token amount\"\n            );\n\n            require(\n                governanceTokenAmount > 0,\n                \"You cannot have 0 governance token amount\"\n            );\n        }\n\n        uint256 newOrderId = orderId;\n        orderId++;\n\n        //need to have allowance of the seller's token with ordersContract acting as a spender\n        if (communityTokenAmount > 0) {\n            treasuryContract.safeTransferFrom(\n                tx.origin,\n                address(this),\n                communityTokenId,\n                communityTokenAmount,\n                \"Sale order\"\n            );\n        }\n\n        if (governanceTokenAmount > 0) {\n            treasuryContract.safeTransferFrom(\n                tx.origin,\n                address(this),\n                governanceTokenId,\n                governanceTokenAmount,\n                \"Sale order\"\n            );\n        }\n\n        Order memory order = Order({\n            isClosed: false,\n            seller: tx.origin,\n            isLockedInRatio: isLockedInRatio,\n            creationDate: block.timestamp,\n            communityTokenId: communityTokenId,\n            communityTokenAmount: communityTokenAmount,\n            communityTokenPrice: communityTokenPrice,\n            governanceTokenId: governanceTokenId,\n            governanceTokenAmount: governanceTokenAmount,\n            governanceTokenPrice: governanceTokenPrice\n        });\n\n        orderBook[orderId] = order;\n\n        emit SaleOrder({\n            saleId: orderId,\n            seller: order.seller,\n            isLockedInRatio: isLockedInRatio,\n            creationDate: order.creationDate,\n            communityTokenId: communityTokenId,\n            communityTokenAmount: communityTokenAmount,\n            communityTokenPrice: communityTokenPrice,\n            governanceTokenId: governanceTokenId,\n            governanceTokenAmount: governanceTokenAmount,\n            governanceTokenPrice: governanceTokenPrice\n        });\n\n        return newOrderId;\n    }\n\n    /**\n     * @dev This function is called to cancle the existing sale order\n     */\n    function cancelSaleOrder(uint256 saleId) public {\n        require(\n            orderBook[orderId].seller == msg.sender,\n            \"you are unauthorized for this action\"\n        );\n\n        require(orderBook[orderId].isClosed == false, \"Is already closed\");\n\n        Order memory order = orderBook[orderId];\n\n        TreasuryContract treasuryContract = TreasuryContract(\n            TREASURY_CONTRACT_ADDRESS\n        );\n        //--- Need to have additional checks for balance of the sale and also to deduct the tokens from the sale struct\n        if (order.communityTokenAmount > 0) {\n            treasuryContract.safeTransferFrom(\n                address(this),\n                order.seller,\n                order.communityTokenId,\n                order.communityTokenAmount,\n                \"Sale order\"\n            );\n        }\n\n        if (order.governanceTokenAmount > 0) {\n            treasuryContract.safeTransferFrom(\n                address(this),\n                order.seller,\n                order.governanceTokenId,\n                order.governanceTokenAmount,\n                \"Sale order\"\n            );\n        }\n\n        orderBook[orderId].isClosed = true;\n\n        emit SaleClose({saleId: saleId, creationDate: block.timestamp});\n    }\n\n    /**\n     * @dev This function is called to cancle the existing sale order\n     */\n    function purchaseSaleOrder(\n        uint256 saleId,\n        uint256 governanceTokenAmount,\n        uint256 communityTokenAmount\n    ) public {\n        require(\n            orderBook[orderId].seller != msg.sender,\n            \"you cannot purchase your own tokens\"\n        );\n\n        require(orderBook[orderId].isClosed == false, \"Is already closed\");\n\n        Order memory order = orderBook[orderId];\n\n        //This will check if the amount to purchase is less or equal than the order that is generated\n        require(\n            order.communityTokenAmount >= communityTokenAmount,\n            \"Community token amount is insufficent\"\n        );\n        require(\n            order.governanceTokenAmount >= governanceTokenAmount,\n            \"Governance token amount is insufficent\"\n        );\n\n        if (order.isLockedInRatio) {\n            //Multiply bigger value to make sure that we have proper ratio.\n            //As if we don't do that then something like 3/2 and 5/4 will be considers same and they will result in a false positive\n            if (order.communityTokenAmount > order.governanceTokenAmount) {\n                require(\n                    SafeMath.div(\n                        communityTokenAmount * 100,\n                        governanceTokenAmount,\n                        \"Invalid ratio\"\n                    ) ==\n                        SafeMath.div(\n                            order.communityTokenAmount * 100,\n                            order.governanceTokenAmount,\n                            \"Invalid ratio\"\n                        ),\n                    \"Invalid Ratio\"\n                );\n            } else {\n                require(\n                    SafeMath.div(\n                        governanceTokenAmount * 100,\n                        communityTokenAmount,\n                        \"Invalid ratio\"\n                    ) ==\n                        SafeMath.div(\n                            order.governanceTokenAmount * 100,\n                            order.communityTokenAmount,\n                            \"Invalid ratio\"\n                        ),\n                    \"Invalid Ratio\"\n                );\n            }\n        }\n\n        if (order.communityTokenAmount > 0) {\n            _transferTokensAndTransactionCharge(\n                communityTokenAmount,\n                order.communityTokenPrice,\n                order.communityTokenId\n            );\n        }\n\n        if (order.governanceTokenAmount > 0) {\n            _transferTokensAndTransactionCharge(\n                governanceTokenAmount,\n                order.governanceTokenPrice,\n                order.governanceTokenId\n            );\n        }\n\n        emit SaleBought({\n            saleId: saleId,\n            seller: order.seller,\n            buyer: msg.sender,\n            creationDate: block.timestamp,\n            communityTokenId: order.communityTokenId,\n            communityTokenAmount: communityTokenAmount,\n            communityTokenPrice: order.communityTokenPrice,\n            governanceTokenId: order.governanceTokenId,\n            governanceTokenAmount: governanceTokenAmount,\n            governanceTokenPrice: order.governanceTokenPrice\n        });\n\n        order.communityTokenAmount =\n            order.communityTokenAmount -\n            communityTokenAmount;\n\n        order.governanceTokenAmount =\n            order.governanceTokenAmount -\n            governanceTokenAmount;\n\n        if (\n            order.communityTokenAmount == 0 && order.governanceTokenAmount == 0\n        ) {\n            order.isClosed = true;\n            emit SaleClose({saleId: saleId, creationDate: block.timestamp});\n        }\n        orderBook[orderId] = order;\n    }\n\n    /// @notice This is only for internal use\n    /// @dev This function is responsible to transfer the tokens at the time of purchase and it is also responsible for transfering the fees.\n    /// @param tokenAmount This is the amount of token to transfer\n    /// @param tokenPrice This is the token price at which the tokens are being sold at\n    /// @param tokenId this is the ID of the token to transfer\n    function _transferTokensAndTransactionCharge(\n        uint256 tokenAmount,\n        uint256 tokenPrice,\n        uint256 tokenId\n    ) internal {\n        uint256 transactionAmount = (tokenAmount * tokenPrice);\n        uint256 transactionFee = (transactionAmount * TRANSACTION_FEE) / 1000;\n\n        TreasuryContract treasuryContract = TreasuryContract(\n            TREASURY_CONTRACT_ADDRESS\n        );\n        treasuryContract.safeTransferFrom(\n            msg.sender,\n            address(this),\n            treasuryContract.CRD(),\n            transactionFee,\n            \"Sale transaction fee\"\n        );\n\n        treasuryContract.safeTransferFrom(\n            msg.sender,\n            address(this),\n            treasuryContract.CRD(),\n            transactionAmount,\n            \"Sale token price amount transfer to seller\"\n        );\n\n        treasuryContract.safeTransferFrom(\n            address(this),\n            msg.sender,\n            tokenId,\n            tokenAmount,\n            \"Sale token transfer to buyer\"\n        );\n    }\n\n    /**\n    Below code are for transfer of tokens from ERC1155 standard contract\n     */\n    function onERC1155Received(\n        address,\n        address,\n        uint256,\n        uint256,\n        bytes memory\n    ) public virtual returns (bytes4) {\n        return this.onERC1155Received.selector;\n    }\n\n    function onERC1155BatchReceived(\n        address,\n        address,\n        uint256[] memory,\n        uint256[] memory,\n        bytes memory\n    ) public virtual returns (bytes4) {\n        return this.onERC1155BatchReceived.selector;\n    }\n\n    function onERC721Received(\n        address,\n        address,\n        uint256,\n        bytes memory\n    ) public virtual returns (bytes4) {\n        return this.onERC721Received.selector;\n    }\n}\n",
  "sourcePath": "/Users/a1/Desktop/Office/projects/CrowdRecords/Contracts/contracts/OrdersContract.sol",
  "compiler": {
    "name": "solc",
    "version": "0.8.12+commit.f00d7308.Emscripten.clang"
  },
  "schemaVersion": "3.4.6",
  "updatedAt": "2022-06-23T08:30:38.204Z",
  "devdoc": {
    "events": {
      "SaleBought(uint256,address,address,uint256,uint256,uint256,uint256,uint256,uint256,uint256)": {
        "details": "this is event which is created when a user purchases any sale order",
        "params": {
          "buyer": "this is the address of the person who bought the tokens",
          "communityTokenAmount": "this is the comunity token amount for sale",
          "communityTokenId": "this is the community token id that is involved in the sale",
          "communityTokenPrice": "this is the price of sinle token",
          "creationDate": "this is the date when tokens were purchased",
          "governanceTokenAmount": "this is the comunity token amount for sale",
          "governanceTokenId": "this is the community token id that is involved in the sale",
          "governanceTokenPrice": "this is the price of sinle token",
          "saleId": "this is the Id of the sale order",
          "seller": "this is the address of the owner or the sale order"
        }
      },
      "SaleClose(uint256,uint256)": {
        "details": "this event is emmited when user closes his/her sale order",
        "params": {
          "creationDate": "This is the date when the event took place ",
          "saleId": "This is the sale Id of the sale order "
        }
      },
      "SaleOrder(uint256,address,bool,uint256,uint256,uint256,uint256,uint256,uint256,uint256)": {
        "details": "this is event which is created when a user creates order to sell his tokens",
        "params": {
          "communityTokenAmount": "this is the comunity token amount for sale",
          "communityTokenId": "this is the community token id that is involved in the sale",
          "communityTokenPrice": "this is the price of sinle token",
          "creationDate": "this is the creation date of the sale order",
          "governanceTokenAmount": "this is the comunity token amount for sale",
          "governanceTokenId": "this is the community token id that is involved in the sale",
          "governanceTokenPrice": "this is the price of sinle token",
          "isLockedInRatio": "the is denotes wether the user wants to sell the token individually or in a ratio",
          "saleId": "this is the Id of the sale order",
          "seller": "this is the address of the owner or the sale order"
        }
      }
    },
    "kind": "dev",
    "methods": {
      "cancelSaleOrder(uint256)": {
        "details": "This function is called to cancle the existing sale order"
      },
      "createSaleOrder(bool,uint256,uint256,uint256,uint256,uint256,uint256,uint256)": {
        "details": "This function is called to create a new saleOrder"
      },
      "purchaseSaleOrder(uint256,uint256,uint256)": {
        "details": "This function is called to cancle the existing sale order"
      },
      "setTreasuryContractAddress(address)": {
        "details": "This function sets the treasury Contract address"
      }
    },
    "version": 1
  },
  "userdoc": {
    "kind": "user",
    "methods": {
      "onERC1155Received(address,address,uint256,uint256,bytes)": {
        "notice": "Below code are for transfer of tokens from ERC1155 standard contract"
      }
    },
    "version": 1
  }
}