{
  "contractName": "OrdersContract",
  "abi": [
    {
      "inputs": [
        {
          "internalType": "address",
          "name": "owner",
          "type": "address"
        }
      ],
      "stateMutability": "nonpayable",
      "type": "constructor"
    },
    {
      "anonymous": false,
      "inputs": [
        {
          "indexed": false,
          "internalType": "uint256",
          "name": "saleId",
          "type": "uint256"
        },
        {
          "indexed": false,
          "internalType": "address",
          "name": "buyer",
          "type": "address"
        },
        {
          "indexed": false,
          "internalType": "bool",
          "name": "isLockedInRatio",
          "type": "bool"
        },
        {
          "indexed": false,
          "internalType": "uint256",
          "name": "creationDate",
          "type": "uint256"
        },
        {
          "indexed": false,
          "internalType": "uint256",
          "name": "communityTokenId",
          "type": "uint256"
        },
        {
          "indexed": false,
          "internalType": "uint256",
          "name": "communityTokenAmount",
          "type": "uint256"
        },
        {
          "indexed": false,
          "internalType": "uint256",
          "name": "communityTokenPrice",
          "type": "uint256"
        },
        {
          "indexed": false,
          "internalType": "uint256",
          "name": "governanceTokenId",
          "type": "uint256"
        },
        {
          "indexed": false,
          "internalType": "uint256",
          "name": "governanceTokenAmount",
          "type": "uint256"
        },
        {
          "indexed": false,
          "internalType": "uint256",
          "name": "governanceTokenPrice",
          "type": "uint256"
        },
        {
          "indexed": false,
          "internalType": "uint256",
          "name": "crdBalance",
          "type": "uint256"
        }
      ],
      "name": "BuyOrder",
      "type": "event"
    },
    {
      "anonymous": false,
      "inputs": [
        {
          "indexed": false,
          "internalType": "uint256",
          "name": "amount",
          "type": "uint256"
        },
        {
          "indexed": false,
          "internalType": "uint256",
          "name": "fees",
          "type": "uint256"
        },
        {
          "indexed": false,
          "internalType": "uint256",
          "name": "totalCRD",
          "type": "uint256"
        },
        {
          "indexed": false,
          "internalType": "uint256",
          "name": "otherTest",
          "type": "uint256"
        }
      ],
      "name": "DEBUG",
      "type": "event"
    },
    {
      "anonymous": false,
      "inputs": [
        {
          "indexed": false,
          "internalType": "uint256",
          "name": "saleId",
          "type": "uint256"
        },
        {
          "indexed": false,
          "internalType": "uint256",
          "name": "creationDate",
          "type": "uint256"
        },
        {
          "indexed": false,
          "internalType": "uint256",
          "name": "remainingBalance",
          "type": "uint256"
        }
      ],
      "name": "OrderClose",
      "type": "event"
    },
    {
      "anonymous": false,
      "inputs": [
        {
          "indexed": false,
          "internalType": "uint256",
          "name": "saleId",
          "type": "uint256"
        },
        {
          "indexed": false,
          "internalType": "address",
          "name": "seller",
          "type": "address"
        },
        {
          "indexed": false,
          "internalType": "address",
          "name": "buyer",
          "type": "address"
        },
        {
          "indexed": false,
          "internalType": "uint256",
          "name": "creationDate",
          "type": "uint256"
        },
        {
          "indexed": false,
          "internalType": "uint256",
          "name": "communityTokenId",
          "type": "uint256"
        },
        {
          "indexed": false,
          "internalType": "uint256",
          "name": "communityTokenAmount",
          "type": "uint256"
        },
        {
          "indexed": false,
          "internalType": "uint256",
          "name": "communityTokenPrice",
          "type": "uint256"
        },
        {
          "indexed": false,
          "internalType": "uint256",
          "name": "governanceTokenId",
          "type": "uint256"
        },
        {
          "indexed": false,
          "internalType": "uint256",
          "name": "governanceTokenAmount",
          "type": "uint256"
        },
        {
          "indexed": false,
          "internalType": "uint256",
          "name": "governanceTokenPrice",
          "type": "uint256"
        },
        {
          "indexed": false,
          "internalType": "uint256",
          "name": "amountTransferred",
          "type": "uint256"
        },
        {
          "indexed": false,
          "internalType": "uint256",
          "name": "platformFees",
          "type": "uint256"
        }
      ],
      "name": "SaleBought",
      "type": "event"
    },
    {
      "inputs": [],
      "name": "OWNER",
      "outputs": [
        {
          "internalType": "address",
          "name": "",
          "type": "address"
        }
      ],
      "stateMutability": "view",
      "type": "function",
      "constant": true
    },
    {
      "inputs": [],
      "name": "TREASURY_CONTRACT_ADDRESS",
      "outputs": [
        {
          "internalType": "address",
          "name": "",
          "type": "address"
        }
      ],
      "stateMutability": "view",
      "type": "function",
      "constant": true
    },
    {
      "inputs": [],
      "name": "VOTING_CONTRACT_ADDRESS",
      "outputs": [
        {
          "internalType": "address",
          "name": "",
          "type": "address"
        }
      ],
      "stateMutability": "view",
      "type": "function",
      "constant": true
    },
    {
      "inputs": [],
      "name": "WALLET_ADDRESS",
      "outputs": [
        {
          "internalType": "address",
          "name": "",
          "type": "address"
        }
      ],
      "stateMutability": "view",
      "type": "function",
      "constant": true
    },
    {
      "inputs": [
        {
          "internalType": "address",
          "name": "owner",
          "type": "address"
        }
      ],
      "name": "setOwnerAddress",
      "outputs": [],
      "stateMutability": "nonpayable",
      "type": "function"
    },
    {
      "inputs": [
        {
          "internalType": "address",
          "name": "newTreasuryContractAddress",
          "type": "address"
        }
      ],
      "name": "setTreasuryContractAddress",
      "outputs": [],
      "stateMutability": "nonpayable",
      "type": "function"
    },
    {
      "inputs": [
        {
          "internalType": "address",
          "name": "newWalletAddress",
          "type": "address"
        }
      ],
      "name": "setWalletAddress",
      "outputs": [],
      "stateMutability": "nonpayable",
      "type": "function"
    },
    {
      "inputs": [
        {
          "internalType": "bool",
          "name": "isLockedInRatio",
          "type": "bool"
        },
        {
          "internalType": "uint256",
          "name": "recordId",
          "type": "uint256"
        },
        {
          "internalType": "uint256",
          "name": "communityTokenId",
          "type": "uint256"
        },
        {
          "internalType": "uint256",
          "name": "communityTokenAmount",
          "type": "uint256"
        },
        {
          "internalType": "uint256",
          "name": "communityTokenPrice",
          "type": "uint256"
        },
        {
          "internalType": "uint256",
          "name": "governanceTokenId",
          "type": "uint256"
        },
        {
          "internalType": "uint256",
          "name": "governanceTokenAmount",
          "type": "uint256"
        },
        {
          "internalType": "uint256",
          "name": "governanceTokenPrice",
          "type": "uint256"
        }
      ],
      "name": "createBuyOrder",
      "outputs": [
        {
          "internalType": "uint256",
          "name": "saleOrderId",
          "type": "uint256"
        }
      ],
      "stateMutability": "nonpayable",
      "type": "function"
    },
    {
      "inputs": [
        {
          "internalType": "uint256",
          "name": "saleId",
          "type": "uint256"
        }
      ],
      "name": "cancelBuyOrder",
      "outputs": [],
      "stateMutability": "nonpayable",
      "type": "function"
    },
    {
      "inputs": [
        {
          "internalType": "uint256",
          "name": "saleId",
          "type": "uint256"
        },
        {
          "internalType": "uint256",
          "name": "governanceTokenAmount",
          "type": "uint256"
        },
        {
          "internalType": "uint256",
          "name": "communityTokenAmount",
          "type": "uint256"
        }
      ],
      "name": "acceptBuyOrder",
      "outputs": [],
      "stateMutability": "nonpayable",
      "type": "function"
    },
    {
      "inputs": [
        {
          "internalType": "address",
          "name": "",
          "type": "address"
        },
        {
          "internalType": "address",
          "name": "",
          "type": "address"
        },
        {
          "internalType": "uint256",
          "name": "",
          "type": "uint256"
        },
        {
          "internalType": "uint256",
          "name": "",
          "type": "uint256"
        },
        {
          "internalType": "bytes",
          "name": "",
          "type": "bytes"
        }
      ],
      "name": "onERC1155Received",
      "outputs": [
        {
          "internalType": "bytes4",
          "name": "",
          "type": "bytes4"
        }
      ],
      "stateMutability": "nonpayable",
      "type": "function"
    },
    {
      "inputs": [
        {
          "internalType": "address",
          "name": "",
          "type": "address"
        },
        {
          "internalType": "address",
          "name": "",
          "type": "address"
        },
        {
          "internalType": "uint256[]",
          "name": "",
          "type": "uint256[]"
        },
        {
          "internalType": "uint256[]",
          "name": "",
          "type": "uint256[]"
        },
        {
          "internalType": "bytes",
          "name": "",
          "type": "bytes"
        }
      ],
      "name": "onERC1155BatchReceived",
      "outputs": [
        {
          "internalType": "bytes4",
          "name": "",
          "type": "bytes4"
        }
      ],
      "stateMutability": "nonpayable",
      "type": "function"
    },
    {
      "inputs": [
        {
          "internalType": "address",
          "name": "",
          "type": "address"
        },
        {
          "internalType": "address",
          "name": "",
          "type": "address"
        },
        {
          "internalType": "uint256",
          "name": "",
          "type": "uint256"
        },
        {
          "internalType": "bytes",
          "name": "",
          "type": "bytes"
        }
      ],
      "name": "onERC721Received",
      "outputs": [
        {
          "internalType": "bytes4",
          "name": "",
          "type": "bytes4"
        }
      ],
      "stateMutability": "nonpayable",
      "type": "function"
    }
  ],
  "bytecode": "0x60806040526032600260146101000a81548160ff021916908360ff16021790555060006005553480156200003257600080fd5b5060405162002f0e38038062002f0e83398181016040528101906200005891906200010a565b80600360006101000a81548173ffffffffffffffffffffffffffffffffffffffff021916908373ffffffffffffffffffffffffffffffffffffffff160217905550506200013c565b600080fd5b600073ffffffffffffffffffffffffffffffffffffffff82169050919050565b6000620000d282620000a5565b9050919050565b620000e481620000c5565b8114620000f057600080fd5b50565b6000815190506200010481620000d9565b92915050565b600060208284031215620001235762000122620000a0565b5b60006200013384828501620000f3565b91505092915050565b612dc2806200014c6000396000f3fe608060405234801561001057600080fd5b50600436106100cf5760003560e01c80638fc3b6471161008c578063bc197c8111610066578063bc197c81146101ec578063be5d147f1461021c578063ef2d225f14610238578063f23a6e6114610268576100cf565b80638fc3b64714610194578063ac1a386a146101b2578063acb31493146101ce576100cf565b8063117803e3146100d4578063150b7a02146100f2578063331a6bf5146101225780634cf2d48f1461013e578063659d45eb1461015a57806381e6cde514610178575b600080fd5b6100dc610298565b6040516100e991906118f8565b60405180910390f35b61010c60048036038101906101079190611acf565b6102be565b6040516101199190611b8d565b60405180910390f35b61013c60048036038101906101379190611ba8565b6102d2565b005b61015860048036038101906101539190611ba8565b6103a6565b005b61016261047a565b60405161016f91906118f8565b60405180910390f35b610192600480360381019061018d9190611bd5565b61049e565b005b61019c610a7d565b6040516101a991906118f8565b60405180910390f35b6101cc60048036038101906101c79190611ba8565b610aa3565b005b6101d6610b77565b6040516101e391906118f8565b60405180910390f35b61020660048036038101906102019190611cf0565b610b9d565b6040516102139190611b8d565b60405180910390f35b61023660048036038101906102319190611dbf565b610bb2565b005b610252600480360381019061024d9190611e24565b610f4a565b60405161025f9190611ee9565b60405180910390f35b610282600480360381019061027d9190611f04565b611544565b60405161028f9190611b8d565b60405180910390f35b600360009054906101000a900473ffffffffffffffffffffffffffffffffffffffff1681565b600063150b7a0260e01b9050949350505050565b600360009054906101000a900473ffffffffffffffffffffffffffffffffffffffff1673ffffffffffffffffffffffffffffffffffffffff163373ffffffffffffffffffffffffffffffffffffffff1614610362576040517f08c379a00000000000000000000000000000000000000000000000000000000081526004016103599061201e565b60405180910390fd5b80600360006101000a81548173ffffffffffffffffffffffffffffffffffffffff021916908373ffffffffffffffffffffffffffffffffffffffff16021790555050565b600360009054906101000a900473ffffffffffffffffffffffffffffffffffffffff1673ffffffffffffffffffffffffffffffffffffffff163373ffffffffffffffffffffffffffffffffffffffff1614610436576040517f08c379a000000000000000000000000000000000000000000000000000000000815260040161042d9061201e565b60405180910390fd5b80600160006101000a81548173ffffffffffffffffffffffffffffffffffffffff021916908373ffffffffffffffffffffffffffffffffffffffff16021790555050565b60008054906101000a900473ffffffffffffffffffffffffffffffffffffffff1681565b3373ffffffffffffffffffffffffffffffffffffffff1660046000600554815260200190815260200160002060000160029054906101000a900473ffffffffffffffffffffffffffffffffffffffff1673ffffffffffffffffffffffffffffffffffffffff161415610545576040517f08c379a000000000000000000000000000000000000000000000000000000000815260040161053c906120b0565b60405180910390fd5b6000151560046000600554815260200190815260200160002060000160009054906101000a900460ff161515146105b1576040517f08c379a00000000000000000000000000000000000000000000000000000000081526004016105a89061211c565b60405180910390fd5b600060046000600554815260200190815260200160002090508181600301541015610611576040517f08c379a0000000000000000000000000000000000000000000000000000000008152600401610608906121ae565b60405180910390fd5b8281600601541015610658576040517f08c379a000000000000000000000000000000000000000000000000000000000815260040161064f90612240565b60405180910390fd5b8060000160019054906101000a900460ff161561084657806006015481600301541115610764576106d360648260030154610693919061228f565b82600601546040518060400160405280601481526020017f494e56414c49443a20544f4b454e5f524154494f000000000000000000000000815250611559565b61071f6064846106e3919061228f565b856040518060400160405280601481526020017f494e56414c49443a20544f4b454e5f524154494f000000000000000000000000815250611559565b1461075f576040517f08c379a000000000000000000000000000000000000000000000000000000000815260040161075690612335565b60405180910390fd5b610845565b6107b860648260060154610778919061228f565b82600301546040518060400160405280601481526020017f494e56414c49443a20544f4b454e5f524154494f000000000000000000000000815250611559565b6108046064856107c8919061228f565b846040518060400160405280601481526020017f494e56414c49443a20544f4b454e5f524154494f000000000000000000000000815250611559565b14610844576040517f08c379a000000000000000000000000000000000000000000000000000000000815260040161083b90612335565b60405180910390fd5b5b5b6000806000836003015411156108b45760008061089186866004015487600201548860000160029054906101000a900473ffffffffffffffffffffffffffffffffffffffff166115bb565b9150915081846108a19190612355565b935080836108af9190612355565b925050505b60008360060154111561091f576000806108fc87866007015487600501548860000160029054906101000a900473ffffffffffffffffffffffffffffffffffffffff166115bb565b91509150818461090c9190612355565b9350808361091a9190612355565b925050505b7f249b7ebd7d5ac609b663ac9ccaa3fcc5fc187ce3d76fb95d9064a788ffeba078868460000160029054906101000a900473ffffffffffffffffffffffffffffffffffffffff16334287600201548989600401548a600501548d8c600701548b8d61098a9190612355565b8c6040516109a39c9b9a999897969594939291906123ab565b60405180910390a18383600301546109bb9190612465565b83600301819055508483600601546109d39190612465565b8360060181905550808284600801546109ec9190612465565b6109f69190612465565b836008018190555060008360030154148015610a16575060008360060154145b15610a755760018360000160006101000a81548160ff0219169083151502179055507f9b59e95c56cf432066ac010b6aa1d35e53f427d886a20c2a9c307b776768b1e586426000604051610a6c939291906124de565b60405180910390a15b505050505050565b600260009054906101000a900473ffffffffffffffffffffffffffffffffffffffff1681565b600360009054906101000a900473ffffffffffffffffffffffffffffffffffffffff1673ffffffffffffffffffffffffffffffffffffffff163373ffffffffffffffffffffffffffffffffffffffff1614610b33576040517f08c379a0000000000000000000000000000000000000000000000000000000008152600401610b2a9061201e565b60405180910390fd5b80600260006101000a81548173ffffffffffffffffffffffffffffffffffffffff021916908373ffffffffffffffffffffffffffffffffffffffff16021790555050565b600160009054906101000a900473ffffffffffffffffffffffffffffffffffffffff1681565b600063bc197c8160e01b905095945050505050565b3373ffffffffffffffffffffffffffffffffffffffff1660046000600554815260200190815260200160002060000160029054906101000a900473ffffffffffffffffffffffffffffffffffffffff1673ffffffffffffffffffffffffffffffffffffffff1614610c58576040517f08c379a0000000000000000000000000000000000000000000000000000000008152600401610c4f90612561565b60405180910390fd5b6000151560046000600554815260200190815260200160002060000160009054906101000a900460ff16151514610cc4576040517f08c379a0000000000000000000000000000000000000000000000000000000008152600401610cbb9061211c565b60405180910390fd5b6000600460006005548152602001908152602001600020604051806101600160405290816000820160009054906101000a900460ff161515151581526020016000820160019054906101000a900460ff161515151581526020016000820160029054906101000a900473ffffffffffffffffffffffffffffffffffffffff1673ffffffffffffffffffffffffffffffffffffffff1673ffffffffffffffffffffffffffffffffffffffff1681526020016001820154815260200160028201548152602001600382015481526020016004820154815260200160058201548152602001600682015481526020016007820154815260200160088201548152505090506000600160009054906101000a900473ffffffffffffffffffffffffffffffffffffffff1690508073ffffffffffffffffffffffffffffffffffffffff1663f242432a3084604001518473ffffffffffffffffffffffffffffffffffffffff1663e6acd9b86040518163ffffffff1660e01b8152600401602060405180830381865afa158015610e59573d6000803e3d6000fd5b505050506040513d601f19601f82011682018060405250810190610e7d9190612596565b8661014001516040518563ffffffff1660e01b8152600401610ea29493929190612620565b600060405180830381600087803b158015610ebc57600080fd5b505af1158015610ed0573d6000803e3d6000fd5b50505050600160046000600554815260200190815260200160002060000160006101000a81548160ff0219169083151502179055507f9b59e95c56cf432066ac010b6aa1d35e53f427d886a20c2a9c307b776768b1e58342846101400151604051610f3d93929190612678565b60405180910390a1505050565b600080600160009054906101000a900473ffffffffffffffffffffffffffffffffffffffff169050878173ffffffffffffffffffffffffffffffffffffffff16632d4a03828b6040518263ffffffff1660e01b8152600401610fac9190611ee9565b602060405180830381865afa158015610fc9573d6000803e3d6000fd5b505050506040513d601f19601f82011682018060405250810190610fed9190612596565b1461102d576040517f08c379a0000000000000000000000000000000000000000000000000000000008152600401611024906126fb565b60405180910390fd5b848173ffffffffffffffffffffffffffffffffffffffff1663d6ca40a78b6040518263ffffffff1660e01b81526004016110679190611ee9565b602060405180830381865afa158015611084573d6000803e3d6000fd5b505050506040513d601f19601f820116820180604052508101906110a89190612596565b146110e8576040517f08c379a00000000000000000000000000000000000000000000000000000000081526004016110df90612767565b60405180910390fd5b89156111755760008711611131576040517f08c379a0000000000000000000000000000000000000000000000000000000008152600401611128906127f9565b60405180910390fd5b60008411611174576040517f08c379a000000000000000000000000000000000000000000000000000000000815260040161116b9061288b565b60405180910390fd5b5b61117d611895565b8385611189919061228f565b8160006002811061119d5761119c6128ab565b5b60200201818152505086886111b2919061228f565b816001600281106111c6576111c56128ab565b5b6020020181815250508173ffffffffffffffffffffffffffffffffffffffff1663f242432a32308573ffffffffffffffffffffffffffffffffffffffff1663e6acd9b86040518163ffffffff1660e01b8152600401602060405180830381865afa158015611238573d6000803e3d6000fd5b505050506040513d601f19601f8201168201806040525081019061125c9190612596565b856000600281106112705761126f6128ab565b5b602002015186600160028110611289576112886128ab565b5b60200201516112989190612355565b6040518563ffffffff1660e01b81526004016112b79493929190612926565b600060405180830381600087803b1580156112d157600080fd5b505af11580156112e5573d6000803e3d6000fd5b5050505060006005549050600560008154809291906113039061297e565b919050555060006040518061016001604052806000151581526020018e151581526020013273ffffffffffffffffffffffffffffffffffffffff1681526020014281526020018c81526020018b81526020018a815260200189815260200188815260200187815260200184600160028110611381576113806128ab565b5b60200201518560006002811061139a576113996128ab565b5b60200201516113a99190612355565b81525090508060046000600554815260200190815260200160002060008201518160000160006101000a81548160ff02191690831515021790555060208201518160000160016101000a81548160ff02191690831515021790555060408201518160000160026101000a81548173ffffffffffffffffffffffffffffffffffffffff021916908373ffffffffffffffffffffffffffffffffffffffff160217905550606082015181600101556080820151816002015560a0820151816003015560c0820151816004015560e082015181600501556101008201518160060155610120820151816007015561014082015181600801559050507ffaa6ea7690fa3b58a9cfc7064f065f7d0aab5a65f26e58acaa53da7a7e3e6ac660055482604001518f84606001518f8f8f8f8f8f8d6001600281106114ea576114e96128ab565b5b60200201518e600060028110611503576115026128ab565b5b60200201516115129190612355565b6040516115299b9a999897969594939291906129d6565b60405180910390a18194505050505098975050505050505050565b600063f23a6e6160e01b905095945050505050565b600080831182906115a0576040517f08c379a00000000000000000000000000000000000000000000000000000000081526004016115979190612af8565b60405180910390fd5b508284816115b1576115b0612b1a565b5b0490509392505050565b600080600085876115cc919061228f565b90506000612710600260149054906101000a900460ff1660ff16836115f1919061228f565b6115fb9190612b49565b905080826116099190612465565b91506000600160009054906101000a900473ffffffffffffffffffffffffffffffffffffffff1690508073ffffffffffffffffffffffffffffffffffffffff1663f242432a33600260009054906101000a900473ffffffffffffffffffffffffffffffffffffffff168473ffffffffffffffffffffffffffffffffffffffff1663e6acd9b86040518163ffffffff1660e01b8152600401602060405180830381865afa1580156116bd573d6000803e3d6000fd5b505050506040513d601f19601f820116820180604052508101906116e19190612596565b866040518563ffffffff1660e01b81526004016117019493929190612bc6565b600060405180830381600087803b15801561171b57600080fd5b505af115801561172f573d6000803e3d6000fd5b505050508073ffffffffffffffffffffffffffffffffffffffff1663f242432a30338473ffffffffffffffffffffffffffffffffffffffff1663e6acd9b86040518163ffffffff1660e01b8152600401602060405180830381865afa15801561179c573d6000803e3d6000fd5b505050506040513d601f19601f820116820180604052508101906117c09190612596565b876040518563ffffffff1660e01b81526004016117e09493929190612c90565b600060405180830381600087803b1580156117fa57600080fd5b505af115801561180e573d6000803e3d6000fd5b505050508073ffffffffffffffffffffffffffffffffffffffff1663f242432a33888a8d6040518563ffffffff1660e01b81526004016118519493929190612d34565b600060405180830381600087803b15801561186b57600080fd5b505af115801561187f573d6000803e3d6000fd5b5050505082829450945050505094509492505050565b6040518060400160405280600290602082028036833780820191505090505090565b600073ffffffffffffffffffffffffffffffffffffffff82169050919050565b60006118e2826118b7565b9050919050565b6118f2816118d7565b82525050565b600060208201905061190d60008301846118e9565b92915050565b6000604051905090565b600080fd5b600080fd5b611930816118d7565b811461193b57600080fd5b50565b60008135905061194d81611927565b92915050565b6000819050919050565b61196681611953565b811461197157600080fd5b50565b6000813590506119838161195d565b92915050565b600080fd5b600080fd5b6000601f19601f8301169050919050565b7f4e487b7100000000000000000000000000000000000000000000000000000000600052604160045260246000fd5b6119dc82611993565b810181811067ffffffffffffffff821117156119fb576119fa6119a4565b5b80604052505050565b6000611a0e611913565b9050611a1a82826119d3565b919050565b600067ffffffffffffffff821115611a3a57611a396119a4565b5b611a4382611993565b9050602081019050919050565b82818337600083830152505050565b6000611a72611a6d84611a1f565b611a04565b905082815260208101848484011115611a8e57611a8d61198e565b5b611a99848285611a50565b509392505050565b600082601f830112611ab657611ab5611989565b5b8135611ac6848260208601611a5f565b91505092915050565b60008060008060808587031215611ae957611ae861191d565b5b6000611af78782880161193e565b9450506020611b088782880161193e565b9350506040611b1987828801611974565b925050606085013567ffffffffffffffff811115611b3a57611b39611922565b5b611b4687828801611aa1565b91505092959194509250565b60007fffffffff0000000000000000000000000000000000000000000000000000000082169050919050565b611b8781611b52565b82525050565b6000602082019050611ba26000830184611b7e565b92915050565b600060208284031215611bbe57611bbd61191d565b5b6000611bcc8482850161193e565b91505092915050565b600080600060608486031215611bee57611bed61191d565b5b6000611bfc86828701611974565b9350506020611c0d86828701611974565b9250506040611c1e86828701611974565b9150509250925092565b600067ffffffffffffffff821115611c4357611c426119a4565b5b602082029050602081019050919050565b600080fd5b6000611c6c611c6784611c28565b611a04565b90508083825260208201905060208402830185811115611c8f57611c8e611c54565b5b835b81811015611cb85780611ca48882611974565b845260208401935050602081019050611c91565b5050509392505050565b600082601f830112611cd757611cd6611989565b5b8135611ce7848260208601611c59565b91505092915050565b600080600080600060a08688031215611d0c57611d0b61191d565b5b6000611d1a8882890161193e565b9550506020611d2b8882890161193e565b945050604086013567ffffffffffffffff811115611d4c57611d4b611922565b5b611d5888828901611cc2565b935050606086013567ffffffffffffffff811115611d7957611d78611922565b5b611d8588828901611cc2565b925050608086013567ffffffffffffffff811115611da657611da5611922565b5b611db288828901611aa1565b9150509295509295909350565b600060208284031215611dd557611dd461191d565b5b6000611de384828501611974565b91505092915050565b60008115159050919050565b611e0181611dec565b8114611e0c57600080fd5b50565b600081359050611e1e81611df8565b92915050565b600080600080600080600080610100898b031215611e4557611e4461191d565b5b6000611e538b828c01611e0f565b9850506020611e648b828c01611974565b9750506040611e758b828c01611974565b9650506060611e868b828c01611974565b9550506080611e978b828c01611974565b94505060a0611ea88b828c01611974565b93505060c0611eb98b828c01611974565b92505060e0611eca8b828c01611974565b9150509295985092959890939650565b611ee381611953565b82525050565b6000602082019050611efe6000830184611eda565b92915050565b600080600080600060a08688031215611f2057611f1f61191d565b5b6000611f2e8882890161193e565b9550506020611f3f8882890161193e565b9450506040611f5088828901611974565b9350506060611f6188828901611974565b925050608086013567ffffffffffffffff811115611f8257611f81611922565b5b611f8e88828901611aa1565b9150509295509295909350565b600082825260208201905092915050565b7f554e415554484f52495a45443a2043414e4e4f545f504552464f524d5f41435460008201527f494f4e0000000000000000000000000000000000000000000000000000000000602082015250565b6000612008602383611f9b565b915061201382611fac565b604082019050919050565b6000602082019050818103600083015261203781611ffb565b9050919050565b7f494e56414c49443a2043414e4e4f545f50555243484153455f53454c465f4f5260008201527f4445520000000000000000000000000000000000000000000000000000000000602082015250565b600061209a602383611f9b565b91506120a58261203e565b604082019050919050565b600060208201905081810360008301526120c98161208d565b9050919050565b7f494e56414c49443a204f524445525f434c4f5345440000000000000000000000600082015250565b6000612106601583611f9b565b9150612111826120d0565b602082019050919050565b60006020820190508181036000830152612135816120f9565b9050919050565b7f494e53554646494349454e543a20434f4d4d554e4954595f544f4b454e5f414d60008201527f4f554e5400000000000000000000000000000000000000000000000000000000602082015250565b6000612198602483611f9b565b91506121a38261213c565b604082019050919050565b600060208201905081810360008301526121c78161218b565b9050919050565b7f494e53554646494349454e543a20474f5645524e414e43455f544f4b454e5f4160008201527f4d4f554e54000000000000000000000000000000000000000000000000000000602082015250565b600061222a602583611f9b565b9150612235826121ce565b604082019050919050565b600060208201905081810360008301526122598161221d565b9050919050565b7f4e487b7100000000000000000000000000000000000000000000000000000000600052601160045260246000fd5b600061229a82611953565b91506122a583611953565b9250817fffffffffffffffffffffffffffffffffffffffffffffffffffffffffffffffff04831182151516156122de576122dd612260565b5b828202905092915050565b7f494e56414c49443a20544f4b454e5f524154494f000000000000000000000000600082015250565b600061231f601483611f9b565b915061232a826122e9565b602082019050919050565b6000602082019050818103600083015261234e81612312565b9050919050565b600061236082611953565b915061236b83611953565b9250827fffffffffffffffffffffffffffffffffffffffffffffffffffffffffffffffff038211156123a05761239f612260565b5b828201905092915050565b6000610180820190506123c1600083018f611eda565b6123ce602083018e6118e9565b6123db604083018d6118e9565b6123e8606083018c611eda565b6123f5608083018b611eda565b61240260a083018a611eda565b61240f60c0830189611eda565b61241c60e0830188611eda565b61242a610100830187611eda565b612438610120830186611eda565b612446610140830185611eda565b612454610160830184611eda565b9d9c50505050505050505050505050565b600061247082611953565b915061247b83611953565b92508282101561248e5761248d612260565b5b828203905092915050565b6000819050919050565b6000819050919050565b60006124c86124c36124be84612499565b6124a3565b611953565b9050919050565b6124d8816124ad565b82525050565b60006060820190506124f36000830186611eda565b6125006020830185611eda565b61250d60408301846124cf565b949350505050565b7f554e415554484f52495a45443a204f4e4c595f4f524445525f43524541544f52600082015250565b600061254b602083611f9b565b915061255682612515565b602082019050919050565b6000602082019050818103600083015261257a8161253e565b9050919050565b6000815190506125908161195d565b92915050565b6000602082840312156125ac576125ab61191d565b5b60006125ba84828501612581565b91505092915050565b600082825260208201905092915050565b7f53616c65206f726465722063616e63656c656400000000000000000000000000600082015250565b600061260a6013836125c3565b9150612615826125d4565b602082019050919050565b600060a08201905061263560008301876118e9565b61264260208301866118e9565b61264f6040830185611eda565b61265c6060830184611eda565b818103608083015261266d816125fd565b905095945050505050565b600060608201905061268d6000830186611eda565b61269a6020830185611eda565b6126a76040830184611eda565b949350505050565b7f494e56414c49443a20434f4d4d554e4954595f544f4b454e5f49440000000000600082015250565b60006126e5601b83611f9b565b91506126f0826126af565b602082019050919050565b60006020820190508181036000830152612714816126d8565b9050919050565b7f494e56414c49443a20474f5645524e414e43455f544f4b454e5f494400000000600082015250565b6000612751601c83611f9b565b915061275c8261271b565b602082019050919050565b6000602082019050818103600083015261278081612744565b9050919050565b7f494e56414c49443a2043414e4e4f545f484156455f305f434f4d4d554e49545960008201527f5f414d4f554e5400000000000000000000000000000000000000000000000000602082015250565b60006127e3602783611f9b565b91506127ee82612787565b604082019050919050565b60006020820190508181036000830152612812816127d6565b9050919050565b7f494e56414c49443a2043414e4e4f545f484156455f305f474f5645524e414e4360008201527f455f414d4f554e54000000000000000000000000000000000000000000000000602082015250565b6000612875602883611f9b565b915061288082612819565b604082019050919050565b600060208201905081810360008301526128a481612868565b9050919050565b7f4e487b7100000000000000000000000000000000000000000000000000000000600052603260045260246000fd5b7f53616c65206f7264657200000000000000000000000000000000000000000000600082015250565b6000612910600a836125c3565b915061291b826128da565b602082019050919050565b600060a08201905061293b60008301876118e9565b61294860208301866118e9565b6129556040830185611eda565b6129626060830184611eda565b818103608083015261297381612903565b905095945050505050565b600061298982611953565b91507fffffffffffffffffffffffffffffffffffffffffffffffffffffffffffffffff8214156129bc576129bb612260565b5b600182019050919050565b6129d081611dec565b82525050565b6000610160820190506129ec600083018e611eda565b6129f9602083018d6118e9565b612a06604083018c6129c7565b612a13606083018b611eda565b612a20608083018a611eda565b612a2d60a0830189611eda565b612a3a60c0830188611eda565b612a4760e0830187611eda565b612a55610100830186611eda565b612a63610120830185611eda565b612a71610140830184611eda565b9c9b505050505050505050505050565b600081519050919050565b60005b83811015612aaa578082015181840152602081019050612a8f565b83811115612ab9576000848401525b50505050565b6000612aca82612a81565b612ad48185611f9b565b9350612ae4818560208601612a8c565b612aed81611993565b840191505092915050565b60006020820190508181036000830152612b128184612abf565b905092915050565b7f4e487b7100000000000000000000000000000000000000000000000000000000600052601260045260246000fd5b6000612b5482611953565b9150612b5f83611953565b925082612b6f57612b6e612b1a565b5b828204905092915050565b7f53616c65207472616e73616374696f6e20666565000000000000000000000000600082015250565b6000612bb06014836125c3565b9150612bbb82612b7a565b602082019050919050565b600060a082019050612bdb60008301876118e9565b612be860208301866118e9565b612bf56040830185611eda565b612c026060830184611eda565b8181036080830152612c1381612ba3565b905095945050505050565b7f53616c6520746f6b656e20707269636520616d6f756e74207472616e7366657260008201527f20746f2073656c6c657200000000000000000000000000000000000000000000602082015250565b6000612c7a602a836125c3565b9150612c8582612c1e565b604082019050919050565b600060a082019050612ca560008301876118e9565b612cb260208301866118e9565b612cbf6040830185611eda565b612ccc6060830184611eda565b8181036080830152612cdd81612c6d565b905095945050505050565b7f53616c6520746f6b656e207472616e7366657220746f20627579657200000000600082015250565b6000612d1e601c836125c3565b9150612d2982612ce8565b602082019050919050565b600060a082019050612d4960008301876118e9565b612d5660208301866118e9565b612d636040830185611eda565b612d706060830184611eda565b8181036080830152612d8181612d11565b90509594505050505056fea26469706673582212201b0a1c9eedae4cf83bd103051e575868ed258f6ffa144f09a100b519f3bdad1464736f6c634300080c0033",
  "immutableReferences": {},
  "source": "pragma solidity ^0.8.0;\n\nimport \"@openzeppelin/contracts/utils/Counters.sol\";\nimport \"@openzeppelin/contracts/access/Ownable.sol\";\nimport \"@openzeppelin/contracts/utils/math/SafeMath.sol\";\nimport \"./interface/ITreasury.sol\";\n\ncontract OrdersContract {\n    address public VOTING_CONTRACT_ADDRESS;\n    address public TREASURY_CONTRACT_ADDRESS;\n    address public WALLET_ADDRESS;\n    uint8 TRANSACTION_FEE = 50; //This is 0.50%\n    address public OWNER;\n\n    /// @dev this is event which is created when a user creates order to sell his tokens\n    /// @param isClosed this is if a order is closed or not, that is if any amount is remaining for purchase or not,\n    /// it will also be false if order was canceled by user\n    /// @param isLockedInRatio the is denotes wether the user wants to sell the token individually or in a ratio\n    /// @param buyer this is the address of the owner or the Buy order\n    /// @param creationDate this is the creation date of the Buy order\n    /// @param communityTokenId this is the community token id that is involved in the Buy order\n    /// @param communityTokenAmount this is the community token amount for Buy order\n    /// @param communityTokenPrice this is the price of single token\n    /// @param governanceTokenId this is the community token id that is involved in the Buy order\n    /// @param governanceTokenAmount this is the community token amount for Buy order\n    /// @param governanceTokenPrice this is the price of single token\n    /// @param crdBalance this is the total balance remaining for the order\n    struct Order {\n        bool isClosed;\n        bool isLockedInRatio;\n        address buyer;\n        uint256 creationDate;\n        uint256 communityTokenId;\n        uint256 communityTokenAmount;\n        uint256 communityTokenPrice;\n        uint256 governanceTokenId;\n        uint256 governanceTokenAmount;\n        uint256 governanceTokenPrice;\n        uint256 crdBalance;\n    }\n\n    /// @dev this is event which is created when a user creates order to sell his tokens\n    /// @param saleId this is the Id of the Buy order\n    /// @param buyer this is the address of the owner or the Buy order\n    /// @param isLockedInRatio the is denotes wether the user wants to sell the token individually or in a ratio\n    /// @param creationDate this is the creation date of the Buy order\n    /// @param communityTokenId this is the community token id that is involved in the Buy order\n    /// @param communityTokenAmount this is the community token amount for Buy order\n    /// @param communityTokenPrice this is the price of single token\n    /// @param governanceTokenId this is the community token id that is involved in the Buy order\n    /// @param governanceTokenAmount this is the community token amount for Buy order\n    /// @param governanceTokenPrice this is the price of single token\n    /// @param crdBalance this is the total balance remaining for the order\n    event BuyOrder(\n        uint256 saleId,\n        address buyer,\n        bool isLockedInRatio,\n        uint256 creationDate,\n        uint256 communityTokenId,\n        uint256 communityTokenAmount,\n        uint256 communityTokenPrice,\n        uint256 governanceTokenId,\n        uint256 governanceTokenAmount,\n        uint256 governanceTokenPrice,\n        uint256 crdBalance\n    );\n\n    /// @dev this is event which is created when a user purchases any sale order\n    /// @param saleId this is the Id of the sale order\n    /// @param seller this is the address of the person who sold the tokens in exchange for the crd\n    /// @param buyer this is the address of the owner or the sale order\n    /// @param creationDate this is the date when tokens were purchased\n    /// @param communityTokenId this is the community token id that is involved in the sale\n    /// @param communityTokenAmount this is the community token amount for sale\n    /// @param communityTokenPrice this is the price of single token\n    /// @param governanceTokenId this is the community token id that is involved in the sale\n    /// @param governanceTokenAmount this is the community token amount for sale\n    /// @param governanceTokenPrice this is the price of single token\n    /// @param amountTransferred this is the total amount paid\n    /// @param platformFees this is the platform fees taken by crowdrecords\n\n    event SaleBought(\n        uint256 saleId,\n        address seller,\n        address buyer,\n        uint256 creationDate,\n        uint256 communityTokenId,\n        uint256 communityTokenAmount,\n        uint256 communityTokenPrice,\n        uint256 governanceTokenId,\n        uint256 governanceTokenAmount,\n        uint256 governanceTokenPrice,\n        uint256 amountTransferred,\n        uint256 platformFees\n    );\n\n    /// @dev this event is emmited when user closes his/her sale order\n    /// @param saleId This is the sale Id of the sale order\n    /// @param creationDate This is the date when the event took place\n    /// @param remainingBalance This is the amount that was remaining from the partially fulfilled orders\n    event OrderClose(\n        uint256 saleId,\n        uint256 creationDate,\n        uint256 remainingBalance\n    );\n\n    mapping(uint256 => Order) orderBook;\n    uint256 orderId = 0;\n\n    constructor(address owner) {\n        OWNER = owner;\n    }\n\n    /// @dev Modifier to check that the person who accesses a specific function is the owner of contract himself.\n    modifier ownerOnly() {\n        require(msg.sender == OWNER, \"UNAUTHORIZED: CANNOT_PERFORM_ACTION\");\n        _;\n    }\n\n    /// @notice This function is to set the owner address\n    /// @dev This function takes in the address of new owner and sets it to the contract\n    /// @param owner Takes the address of new owner as parameter\n    function setOwnerAddress(address owner) public ownerOnly {\n        OWNER = owner;\n    }\n\n    /// @dev This function sets the treasury Contract address\n    /// @param newTreasuryContractAddress the is the new treasuryContractAddress\n    function setTreasuryContractAddress(address newTreasuryContractAddress)\n        public\n        ownerOnly\n    {\n        TREASURY_CONTRACT_ADDRESS = newTreasuryContractAddress;\n    }\n\n    /// @dev This function sets the wallet address this address will receive all the transaction royalties\n    /// @param newWalletAddress the is the new newWalletAddress\n    function setWalletAddress(address newWalletAddress) public ownerOnly {\n        WALLET_ADDRESS = newWalletAddress;\n    }\n\n    /// @dev This function is called to create a new saleOrder\n    /// @param isLockedInRatio the is denotes wether the user wants to sell the token individually or in a ratio\n    /// @param communityTokenId this is the community token id that is involved in the Buy order\n    /// @param communityTokenAmount this is the community token amount for Buy order\n    /// @param communityTokenPrice this is the price of single token\n    /// @param governanceTokenId this is the community token id that is involved in the Buy order\n    /// @param governanceTokenAmount this is the community token amount for Buy order\n    /// @param governanceTokenPrice this is the price of single token\n    function createBuyOrder(\n        bool isLockedInRatio,\n        uint256 recordId,\n        uint256 communityTokenId,\n        uint256 communityTokenAmount,\n        uint256 communityTokenPrice,\n        uint256 governanceTokenId,\n        uint256 governanceTokenAmount,\n        uint256 governanceTokenPrice\n    ) public returns (uint256 saleOrderId) {\n        ITreasury treasuryContract = ITreasury(TREASURY_CONTRACT_ADDRESS);\n\n        require(\n            treasuryContract.getCommunityTokenId(recordId) == communityTokenId,\n            \"INVALID: COMMUNITY_TOKEN_ID\"\n        );\n        require(\n            treasuryContract.getGovernanceTokenId(recordId) ==\n                governanceTokenId,\n            \"INVALID: GOVERNANCE_TOKEN_ID\"\n        );\n\n        if (isLockedInRatio) {\n            require(\n                communityTokenAmount > 0,\n                \"INVALID: CANNOT_HAVE_0_COMMUNITY_AMOUNT\"\n            );\n\n            require(\n                governanceTokenAmount > 0,\n                \"INVALID: CANNOT_HAVE_0_GOVERNANCE_AMOUNT\"\n            );\n        }\n\n        //Calculate the total CRD required for the deal and then transfer them\n        uint256[2] memory tokenTotal;\n        tokenTotal[0] = governanceTokenAmount * governanceTokenPrice;\n        tokenTotal[1] = communityTokenAmount * communityTokenPrice;\n\n        //Transferring the CRD token into contract to lock it\n        treasuryContract.safeTransferFrom(\n            tx.origin,\n            address(this),\n            treasuryContract.CRD(),\n            tokenTotal[1] + tokenTotal[0],\n            \"Sale order\"\n        );\n\n        uint256 newOrderId = orderId;\n        orderId++;\n\n        Order memory order = Order({\n            isClosed: false,\n            buyer: tx.origin,\n            isLockedInRatio: isLockedInRatio,\n            creationDate: block.timestamp,\n            communityTokenId: communityTokenId,\n            communityTokenAmount: communityTokenAmount,\n            communityTokenPrice: communityTokenPrice,\n            governanceTokenId: governanceTokenId,\n            governanceTokenAmount: governanceTokenAmount,\n            governanceTokenPrice: governanceTokenPrice,\n            crdBalance: tokenTotal[0] + tokenTotal[1]\n        });\n\n        orderBook[orderId] = order;\n\n        emit BuyOrder({\n            saleId: orderId,\n            buyer: order.buyer,\n            isLockedInRatio: isLockedInRatio,\n            creationDate: order.creationDate,\n            communityTokenId: communityTokenId,\n            communityTokenAmount: communityTokenAmount,\n            communityTokenPrice: communityTokenPrice,\n            governanceTokenId: governanceTokenId,\n            governanceTokenAmount: governanceTokenAmount,\n            governanceTokenPrice: governanceTokenPrice,\n            crdBalance: tokenTotal[0] + tokenTotal[1]\n        });\n\n        return newOrderId;\n    }\n\n    /// @dev This function is called to cancel the existing sale order\n    /// @param saleId This is the id of the buy order to cancel\n    function cancelBuyOrder(uint256 saleId) public {\n        require(\n            orderBook[orderId].buyer == msg.sender,\n            \"UNAUTHORIZED: ONLY_ORDER_CREATOR\"\n        );\n\n        require(orderBook[orderId].isClosed == false, \"INVALID: ORDER_CLOSED\");\n\n        Order memory order = orderBook[orderId];\n\n        ITreasury treasuryContract = ITreasury(TREASURY_CONTRACT_ADDRESS);\n\n        //--- Need to have additional checks for balance of the sale and also to deduct the tokens from the sale struct\n        //Send back the remaining amount to user\n        treasuryContract.safeTransferFrom(\n            address(this),\n            order.buyer,\n            treasuryContract.CRD(),\n            order.crdBalance,\n            \"Sale order canceled\"\n        );\n\n        orderBook[orderId].isClosed = true;\n\n        emit OrderClose({\n            saleId: saleId,\n            creationDate: block.timestamp,\n            remainingBalance: order.crdBalance\n        });\n    }\n\n    event DEBUG(\n        uint256 amount,\n        uint256 fees,\n        uint256 totalCRD,\n        uint256 otherTest\n    );\n\n    /// @dev This function is called to accept the existing buy order\n    /// @param saleId This is the id of the buy order to buy\n    /// @param governanceTokenAmount This is the governance token amount that is being offered\n    /// @param communityTokenAmount This is the community token amount that is being offered\n    function acceptBuyOrder(\n        uint256 saleId,\n        uint256 governanceTokenAmount,\n        uint256 communityTokenAmount\n    ) public {\n        require(\n            orderBook[orderId].buyer != msg.sender,\n            \"INVALID: CANNOT_PURCHASE_SELF_ORDER\"\n        );\n\n        require(orderBook[orderId].isClosed == false, \"INVALID: ORDER_CLOSED\");\n\n        Order storage order = orderBook[orderId];\n\n        //This will check if the amount to purchase is less or equal than the order that is generated\n        require(\n            order.communityTokenAmount >= communityTokenAmount,\n            \"INSUFFICIENT: COMMUNITY_TOKEN_AMOUNT\"\n        );\n        require(\n            order.governanceTokenAmount >= governanceTokenAmount,\n            \"INSUFFICIENT: GOVERNANCE_TOKEN_AMOUNT\"\n        );\n\n        if (order.isLockedInRatio) {\n            //Multiply bigger value to make sure that we have proper ratio.\n            //As if we don't do that then something like 3/2 and 5/4 will be considers same and they will result in a false positive\n            if (order.communityTokenAmount > order.governanceTokenAmount) {\n                require(\n                    SafeMath.div(\n                        communityTokenAmount * 100,\n                        governanceTokenAmount,\n                        \"INVALID: TOKEN_RATIO\"\n                    ) ==\n                        SafeMath.div(\n                            order.communityTokenAmount * 100,\n                            order.governanceTokenAmount,\n                            \"INVALID: TOKEN_RATIO\"\n                        ),\n                    \"INVALID: TOKEN_RATIO\"\n                );\n            } else {\n                require(\n                    SafeMath.div(\n                        governanceTokenAmount * 100,\n                        communityTokenAmount,\n                        \"INVALID: TOKEN_RATIO\"\n                    ) ==\n                        SafeMath.div(\n                            order.governanceTokenAmount * 100,\n                            order.communityTokenAmount,\n                            \"INVALID: TOKEN_RATIO\"\n                        ),\n                    \"INVALID: TOKEN_RATIO\"\n                );\n            }\n        }\n\n        uint256 amount = 0;\n        uint256 fees = 0;\n        if (order.communityTokenAmount > 0) {\n            (\n                uint256 cost,\n                uint256 platformFees\n            ) = _transferTokensAndTransactionCharge(\n                    communityTokenAmount,\n                    order.communityTokenPrice,\n                    order.communityTokenId,\n                    order.buyer\n                );\n            amount = amount + cost;\n            fees = fees + platformFees;\n        }\n\n        if (order.governanceTokenAmount > 0) {\n            (\n                uint256 cost,\n                uint256 platformFees\n            ) = _transferTokensAndTransactionCharge(\n                    governanceTokenAmount,\n                    order.governanceTokenPrice,\n                    order.governanceTokenId,\n                    order.buyer\n                );\n            amount = amount + cost;\n            fees = fees + platformFees;\n        }\n\n        emit SaleBought({\n            saleId: saleId,\n            seller: order.buyer,\n            buyer: msg.sender,\n            creationDate: block.timestamp,\n            communityTokenId: order.communityTokenId,\n            communityTokenAmount: communityTokenAmount,\n            communityTokenPrice: order.communityTokenPrice,\n            governanceTokenId: order.governanceTokenId,\n            governanceTokenAmount: governanceTokenAmount,\n            governanceTokenPrice: order.governanceTokenPrice,\n            amountTransferred: amount + fees,\n            platformFees: fees\n        });\n\n        order.communityTokenAmount =\n            order.communityTokenAmount -\n            communityTokenAmount;\n\n        order.governanceTokenAmount =\n            order.governanceTokenAmount -\n            governanceTokenAmount;\n\n        order.crdBalance = order.crdBalance - amount - fees;\n\n        if (\n            order.communityTokenAmount == 0 && order.governanceTokenAmount == 0\n        ) {\n            order.isClosed = true;\n            emit OrderClose({\n                saleId: saleId,\n                creationDate: block.timestamp,\n                remainingBalance: 0\n            });\n        }\n    }\n\n    /// @notice This is only for internal use\n    /// @dev This function is responsible to transfer the tokens at the time of purchase and\n    /// it is also responsible for transferring the fees.\n    /// @param tokenAmount This is the amount of token to transfer\n    /// @param tokenPrice This is the token price at which the tokens are being sold at\n    /// @param tokenId this is the ID of the token to transfer\n    function _transferTokensAndTransactionCharge(\n        uint256 tokenAmount,\n        uint256 tokenPrice,\n        uint256 tokenId,\n        address receiver\n    ) internal returns (uint256 totalCost, uint256 totalFee) {\n        // Change the function so that it will transfer the community and governance tokens from the sellers\n        //account to buyer account then it would transfer the CRD tokens from contract account to sellers\n        //account after deducting the transaction fees.\n\n        uint256 transactionAmount = (tokenAmount * tokenPrice);\n        uint256 transactionFee = (transactionAmount * TRANSACTION_FEE) / 10000;\n        //Removing the transaction fee from the transaction amount\n        transactionAmount = transactionAmount - transactionFee;\n\n        ITreasury treasuryContract = ITreasury(TREASURY_CONTRACT_ADDRESS);\n\n        treasuryContract.safeTransferFrom(\n            msg.sender,\n            WALLET_ADDRESS,\n            treasuryContract.CRD(),\n            transactionFee,\n            \"Sale transaction fee\"\n        );\n\n        treasuryContract.safeTransferFrom(\n            address(this),\n            msg.sender,\n            treasuryContract.CRD(),\n            transactionAmount,\n            \"Sale token price amount transfer to seller\"\n        );\n\n        treasuryContract.safeTransferFrom(\n            msg.sender,\n            receiver,\n            tokenId,\n            tokenAmount,\n            \"Sale token transfer to buyer\"\n        );\n\n        return (transactionAmount, transactionFee);\n    }\n\n    function onERC1155Received(\n        address,\n        address,\n        uint256,\n        uint256,\n        bytes memory\n    ) public virtual returns (bytes4) {\n        return this.onERC1155Received.selector;\n    }\n\n    function onERC1155BatchReceived(\n        address,\n        address,\n        uint256[] memory,\n        uint256[] memory,\n        bytes memory\n    ) public virtual returns (bytes4) {\n        return this.onERC1155BatchReceived.selector;\n    }\n\n    function onERC721Received(\n        address,\n        address,\n        uint256,\n        bytes memory\n    ) public virtual returns (bytes4) {\n        return this.onERC721Received.selector;\n    }\n}\n",
  "sourcePath": "/Users/a1/Desktop/Office/projects/CrowdRecords/Contracts/contracts/OrdersContract.sol",
  "compiler": {
    "name": "solc",
    "version": "0.8.12+commit.f00d7308.Emscripten.clang"
  },
  "schemaVersion": "3.4.6",
  "updatedAt": "2022-09-19T09:06:34.965Z",
  "networkType": "ethereum",
  "devdoc": {
    "events": {
      "BuyOrder(uint256,address,bool,uint256,uint256,uint256,uint256,uint256,uint256,uint256,uint256)": {
        "details": "this is event which is created when a user creates order to sell his tokens",
        "params": {
          "buyer": "this is the address of the owner or the Buy order",
          "communityTokenAmount": "this is the community token amount for Buy order",
          "communityTokenId": "this is the community token id that is involved in the Buy order",
          "communityTokenPrice": "this is the price of single token",
          "crdBalance": "this is the total balance remaining for the order",
          "creationDate": "this is the creation date of the Buy order",
          "governanceTokenAmount": "this is the community token amount for Buy order",
          "governanceTokenId": "this is the community token id that is involved in the Buy order",
          "governanceTokenPrice": "this is the price of single token",
          "isLockedInRatio": "the is denotes wether the user wants to sell the token individually or in a ratio",
          "saleId": "this is the Id of the Buy order"
        }
      },
      "OrderClose(uint256,uint256,uint256)": {
        "details": "this event is emmited when user closes his/her sale order",
        "params": {
          "creationDate": "This is the date when the event took place",
          "remainingBalance": "This is the amount that was remaining from the partially fulfilled orders",
          "saleId": "This is the sale Id of the sale order"
        }
      },
      "SaleBought(uint256,address,address,uint256,uint256,uint256,uint256,uint256,uint256,uint256,uint256,uint256)": {
        "details": "this is event which is created when a user purchases any sale order",
        "params": {
          "amountTransferred": "this is the total amount paid",
          "buyer": "this is the address of the owner or the sale order",
          "communityTokenAmount": "this is the community token amount for sale",
          "communityTokenId": "this is the community token id that is involved in the sale",
          "communityTokenPrice": "this is the price of single token",
          "creationDate": "this is the date when tokens were purchased",
          "governanceTokenAmount": "this is the community token amount for sale",
          "governanceTokenId": "this is the community token id that is involved in the sale",
          "governanceTokenPrice": "this is the price of single token",
          "platformFees": "this is the platform fees taken by crowdrecords",
          "saleId": "this is the Id of the sale order",
          "seller": "this is the address of the person who sold the tokens in exchange for the crd"
        }
      }
    },
    "kind": "dev",
    "methods": {
      "acceptBuyOrder(uint256,uint256,uint256)": {
        "details": "This function is called to accept the existing buy order",
        "params": {
          "communityTokenAmount": "This is the community token amount that is being offered",
          "governanceTokenAmount": "This is the governance token amount that is being offered",
          "saleId": "This is the id of the buy order to buy"
        }
      },
      "cancelBuyOrder(uint256)": {
        "details": "This function is called to cancel the existing sale order",
        "params": {
          "saleId": "This is the id of the buy order to cancel"
        }
      },
      "createBuyOrder(bool,uint256,uint256,uint256,uint256,uint256,uint256,uint256)": {
        "details": "This function is called to create a new saleOrder",
        "params": {
          "communityTokenAmount": "this is the community token amount for Buy order",
          "communityTokenId": "this is the community token id that is involved in the Buy order",
          "communityTokenPrice": "this is the price of single token",
          "governanceTokenAmount": "this is the community token amount for Buy order",
          "governanceTokenId": "this is the community token id that is involved in the Buy order",
          "governanceTokenPrice": "this is the price of single token",
          "isLockedInRatio": "the is denotes wether the user wants to sell the token individually or in a ratio"
        }
      },
      "setOwnerAddress(address)": {
        "details": "This function takes in the address of new owner and sets it to the contract",
        "params": {
          "owner": "Takes the address of new owner as parameter"
        }
      },
      "setTreasuryContractAddress(address)": {
        "details": "This function sets the treasury Contract address",
        "params": {
          "newTreasuryContractAddress": "the is the new treasuryContractAddress"
        }
      },
      "setWalletAddress(address)": {
        "details": "This function sets the wallet address this address will receive all the transaction royalties",
        "params": {
          "newWalletAddress": "the is the new newWalletAddress"
        }
      }
    },
    "version": 1
  },
  "userdoc": {
    "kind": "user",
    "methods": {
      "setOwnerAddress(address)": {
        "notice": "This function is to set the owner address"
      }
    },
    "version": 1
  }
}