{
  "contractName": "OrdersContract",
  "abi": [
    {
      "inputs": [],
      "stateMutability": "nonpayable",
      "type": "constructor"
    },
    {
      "anonymous": false,
      "inputs": [
        {
          "indexed": false,
          "internalType": "uint256",
          "name": "saleId",
          "type": "uint256"
        },
        {
          "indexed": false,
          "internalType": "address",
          "name": "seller",
          "type": "address"
        },
        {
          "indexed": false,
          "internalType": "address",
          "name": "buyer",
          "type": "address"
        },
        {
          "indexed": false,
          "internalType": "uint256",
          "name": "creationDate",
          "type": "uint256"
        },
        {
          "indexed": false,
          "internalType": "uint256",
          "name": "communityTokenId",
          "type": "uint256"
        },
        {
          "indexed": false,
          "internalType": "uint256",
          "name": "communityTokenAmount",
          "type": "uint256"
        },
        {
          "indexed": false,
          "internalType": "uint256",
          "name": "communityTokenPrice",
          "type": "uint256"
        },
        {
          "indexed": false,
          "internalType": "uint256",
          "name": "governanceTokenId",
          "type": "uint256"
        },
        {
          "indexed": false,
          "internalType": "uint256",
          "name": "governanceTokenAmount",
          "type": "uint256"
        },
        {
          "indexed": false,
          "internalType": "uint256",
          "name": "governanceTokenPrice",
          "type": "uint256"
        }
      ],
      "name": "BuySale",
      "type": "event"
    },
    {
      "anonymous": false,
      "inputs": [
        {
          "indexed": false,
          "internalType": "uint256",
          "name": "saleId",
          "type": "uint256"
        },
        {
          "indexed": false,
          "internalType": "uint256",
          "name": "creationDate",
          "type": "uint256"
        }
      ],
      "name": "SaleClose",
      "type": "event"
    },
    {
      "anonymous": false,
      "inputs": [
        {
          "indexed": false,
          "internalType": "uint256",
          "name": "saleId",
          "type": "uint256"
        },
        {
          "indexed": false,
          "internalType": "address",
          "name": "seller",
          "type": "address"
        },
        {
          "indexed": false,
          "internalType": "bool",
          "name": "isLockedInRatio",
          "type": "bool"
        },
        {
          "indexed": false,
          "internalType": "uint256",
          "name": "creationDate",
          "type": "uint256"
        },
        {
          "indexed": false,
          "internalType": "uint256",
          "name": "communityTokenId",
          "type": "uint256"
        },
        {
          "indexed": false,
          "internalType": "uint256",
          "name": "communityTokenAmount",
          "type": "uint256"
        },
        {
          "indexed": false,
          "internalType": "uint256",
          "name": "communityTokenPrice",
          "type": "uint256"
        },
        {
          "indexed": false,
          "internalType": "uint256",
          "name": "governanceTokenId",
          "type": "uint256"
        },
        {
          "indexed": false,
          "internalType": "uint256",
          "name": "governanceTokenAmount",
          "type": "uint256"
        },
        {
          "indexed": false,
          "internalType": "uint256",
          "name": "governanceTokenPrice",
          "type": "uint256"
        }
      ],
      "name": "SaleOrder",
      "type": "event"
    },
    {
      "inputs": [],
      "name": "RECORDS_CONTRACT_ADDRESS",
      "outputs": [
        {
          "internalType": "address",
          "name": "",
          "type": "address"
        }
      ],
      "stateMutability": "view",
      "type": "function"
    },
    {
      "inputs": [],
      "name": "TREASURY_CONTRACT_ADDRESS",
      "outputs": [
        {
          "internalType": "address",
          "name": "",
          "type": "address"
        }
      ],
      "stateMutability": "view",
      "type": "function"
    },
    {
      "inputs": [],
      "name": "VOTING_CONTRACT_ADDRESS",
      "outputs": [
        {
          "internalType": "address",
          "name": "",
          "type": "address"
        }
      ],
      "stateMutability": "view",
      "type": "function"
    },
    {
      "inputs": [
        {
          "internalType": "address",
          "name": "newTreasuryContractAddress",
          "type": "address"
        }
      ],
      "name": "setTreasuryContractAddress",
      "outputs": [],
      "stateMutability": "nonpayable",
      "type": "function"
    },
    {
      "inputs": [
        {
          "internalType": "bool",
          "name": "isLockedInRatio",
          "type": "bool"
        },
        {
          "internalType": "uint256",
          "name": "communityTokenId",
          "type": "uint256"
        },
        {
          "internalType": "uint256",
          "name": "communityTokenAmount",
          "type": "uint256"
        },
        {
          "internalType": "uint256",
          "name": "communityTokenPrice",
          "type": "uint256"
        },
        {
          "internalType": "uint256",
          "name": "governanceTokenId",
          "type": "uint256"
        },
        {
          "internalType": "uint256",
          "name": "governanceTokenAmount",
          "type": "uint256"
        },
        {
          "internalType": "uint256",
          "name": "governanceTokenPrice",
          "type": "uint256"
        }
      ],
      "name": "createSaleOrder",
      "outputs": [
        {
          "internalType": "uint256",
          "name": "saleOrderId",
          "type": "uint256"
        }
      ],
      "stateMutability": "nonpayable",
      "type": "function"
    },
    {
      "inputs": [
        {
          "internalType": "uint256",
          "name": "saleId",
          "type": "uint256"
        }
      ],
      "name": "cancleSaleOrder",
      "outputs": [],
      "stateMutability": "nonpayable",
      "type": "function"
    },
    {
      "inputs": [
        {
          "internalType": "uint256",
          "name": "saleId",
          "type": "uint256"
        },
        {
          "internalType": "uint256",
          "name": "governanceTokenAmount",
          "type": "uint256"
        },
        {
          "internalType": "uint256",
          "name": "communityTokenAmount",
          "type": "uint256"
        }
      ],
      "name": "purchaseSaleOrder",
      "outputs": [],
      "stateMutability": "nonpayable",
      "type": "function"
    }
  ],
  "bytecode": "0x6080604052600060055534801561001557600080fd5b5033600360006101000a81548173ffffffffffffffffffffffffffffffffffffffff021916908373ffffffffffffffffffffffffffffffffffffffff160217905550611801806100666000396000f3fe608060405234801561001057600080fd5b506004361061007d5760003560e01c8063659d45eb1161005b578063659d45eb146100ea57806383661e5314610108578063acb3149314610124578063ba19a675146101425761007d565b80630f8340541461008257806324f626a9146100b25780634cf2d48f146100ce575b600080fd5b61009c60048036038101906100979190610f2d565b610160565b6040516100a99190610fde565b60405180910390f35b6100cc60048036038101906100c79190610ff9565b610450565b005b6100e860048036038101906100e391906110aa565b610965565b005b6100f2610a39565b6040516100ff91906110e6565b60405180910390f35b610122600480360381019061011d9190611101565b610a5f565b005b61012c610e0e565b60405161013991906110e6565b60405180910390f35b61014a610e34565b60405161015791906110e6565b60405180910390f35b60008060055490506005600081548092919061017b9061115d565b91905055506000600260009054906101000a900473ffffffffffffffffffffffffffffffffffffffff1690506000881115610222578073ffffffffffffffffffffffffffffffffffffffff1663f242432a33308c8c6040518563ffffffff1660e01b81526004016101ef9493929190611203565b600060405180830381600087803b15801561020957600080fd5b505af115801561021d573d6000803e3d6000fd5b505050505b600085111561029d578073ffffffffffffffffffffffffffffffffffffffff1663f242432a333089896040518563ffffffff1660e01b815260040161026a9493929190611203565b600060405180830381600087803b15801561028457600080fd5b505af1158015610298573d6000803e3d6000fd5b505050505b60006040518061014001604052806000151581526020018c151581526020013373ffffffffffffffffffffffffffffffffffffffff1681526020014281526020018b81526020018a81526020018981526020018881526020018781526020018681525090508060046000600554815260200190815260200160002060008201518160000160006101000a81548160ff02191690831515021790555060208201518160000160016101000a81548160ff02191690831515021790555060408201518160000160026101000a81548173ffffffffffffffffffffffffffffffffffffffff021916908373ffffffffffffffffffffffffffffffffffffffff160217905550606082015181600101556080820151816002015560a0820151816003015560c0820151816004015560e08201518160050155610100820151816006015561012082015181600701559050507f3baad815bbbf65b8fc8da69213b72cadf47e779b9895ac5301e604283c1b8b1460055482604001518d84606001518e8e8e8e8e8e6040516104359a9998979695949392919061126a565b60405180910390a16005549350505050979650505050505050565b3373ffffffffffffffffffffffffffffffffffffffff1660046000600554815260200190815260200160002060000160029054906101000a900473ffffffffffffffffffffffffffffffffffffffff1673ffffffffffffffffffffffffffffffffffffffff1614156104f7576040517f08c379a00000000000000000000000000000000000000000000000000000000081526004016104ee90611389565b60405180910390fd5b6001151560046000600554815260200190815260200160002060000160009054906101000a900460ff16151514610563576040517f08c379a000000000000000000000000000000000000000000000000000000000815260040161055a906113f5565b60405180910390fd5b6000600460006005548152602001908152602001600020604051806101400160405290816000820160009054906101000a900460ff161515151581526020016000820160019054906101000a900460ff161515151581526020016000820160029054906101000a900473ffffffffffffffffffffffffffffffffffffffff1673ffffffffffffffffffffffffffffffffffffffff1673ffffffffffffffffffffffffffffffffffffffff16815260200160018201548152602001600282015481526020016003820154815260200160048201548152602001600582015481526020016006820154815260200160078201548152505090508060200151156107bd5760008160a00151116106ab576040517f08c379a00000000000000000000000000000000000000000000000000000000081526004016106a290611487565b60405180910390fd5b6000816101000151116106f3576040517f08c379a00000000000000000000000000000000000000000000000000000000081526004016106ea90611519565b60405180910390fd5b61073c8160a001518261010001516040518060400160405280600d81526020017f496e76616c696420726174696f00000000000000000000000000000000000000815250610e58565b61077c83856040518060400160405280600d81526020017f496e76616c696420726174696f00000000000000000000000000000000000000815250610e58565b146107bc576040517f08c379a00000000000000000000000000000000000000000000000000000000081526004016107b390611585565b60405180910390fd5b5b6000600260009054906101000a900473ffffffffffffffffffffffffffffffffffffffff16905060008260a00151111561086b578073ffffffffffffffffffffffffffffffffffffffff1663f242432a333085608001518660a001516040518563ffffffff1660e01b81526004016108389493929190611203565b600060405180830381600087803b15801561085257600080fd5b505af1158015610866573d6000803e3d6000fd5b505050505b600082610100015111156108f4578073ffffffffffffffffffffffffffffffffffffffff1663f242432a33308560e001518661010001516040518563ffffffff1660e01b81526004016108c19493929190611203565b600060405180830381600087803b1580156108db57600080fd5b505af11580156108ef573d6000803e3d6000fd5b505050505b600160046000600554815260200190815260200160002060000160006101000a81548160ff0219169083151502179055507faddafcfffecafba8176cfb6a75787e2ba54b31151d6da0381c3b50be61a952d785426040516109569291906115a5565b60405180910390a15050505050565b600360009054906101000a900473ffffffffffffffffffffffffffffffffffffffff1673ffffffffffffffffffffffffffffffffffffffff163373ffffffffffffffffffffffffffffffffffffffff16146109f5576040517f08c379a00000000000000000000000000000000000000000000000000000000081526004016109ec90611640565b60405180910390fd5b80600260006101000a81548173ffffffffffffffffffffffffffffffffffffffff021916908373ffffffffffffffffffffffffffffffffffffffff16021790555050565b600160009054906101000a900473ffffffffffffffffffffffffffffffffffffffff1681565b3373ffffffffffffffffffffffffffffffffffffffff1660046000600554815260200190815260200160002060000160029054906101000a900473ffffffffffffffffffffffffffffffffffffffff1673ffffffffffffffffffffffffffffffffffffffff1614610b05576040517f08c379a0000000000000000000000000000000000000000000000000000000008152600401610afc906116d2565b60405180910390fd5b6001151560046000600554815260200190815260200160002060000160009054906101000a900460ff16151514610b71576040517f08c379a0000000000000000000000000000000000000000000000000000000008152600401610b68906113f5565b60405180910390fd5b6000600460006005548152602001908152602001600020604051806101400160405290816000820160009054906101000a900460ff161515151581526020016000820160019054906101000a900460ff161515151581526020016000820160029054906101000a900473ffffffffffffffffffffffffffffffffffffffff1673ffffffffffffffffffffffffffffffffffffffff1673ffffffffffffffffffffffffffffffffffffffff16815260200160018201548152602001600282015481526020016003820154815260200160048201548152602001600582015481526020016006820154815260200160078201548152505090506000600260009054906101000a900473ffffffffffffffffffffffffffffffffffffffff16905060008260a001511115610d16578073ffffffffffffffffffffffffffffffffffffffff1663f242432a333085608001518660a001516040518563ffffffff1660e01b8152600401610ce39493929190611203565b600060405180830381600087803b158015610cfd57600080fd5b505af1158015610d11573d6000803e3d6000fd5b505050505b60008261010001511115610d9f578073ffffffffffffffffffffffffffffffffffffffff1663f242432a33308560e001518661010001516040518563ffffffff1660e01b8152600401610d6c9493929190611203565b600060405180830381600087803b158015610d8657600080fd5b505af1158015610d9a573d6000803e3d6000fd5b505050505b600160046000600554815260200190815260200160002060000160006101000a81548160ff0219169083151502179055507faddafcfffecafba8176cfb6a75787e2ba54b31151d6da0381c3b50be61a952d78342604051610e019291906115a5565b60405180910390a1505050565b600260009054906101000a900473ffffffffffffffffffffffffffffffffffffffff1681565b60008054906101000a900473ffffffffffffffffffffffffffffffffffffffff1681565b60008083118290610e9f576040517f08c379a0000000000000000000000000000000000000000000000000000000008152600401610e96919061177a565b60405180910390fd5b50828481610eb057610eaf61179c565b5b0490509392505050565b600080fd5b60008115159050919050565b610ed481610ebf565b8114610edf57600080fd5b50565b600081359050610ef181610ecb565b92915050565b6000819050919050565b610f0a81610ef7565b8114610f1557600080fd5b50565b600081359050610f2781610f01565b92915050565b600080600080600080600060e0888a031215610f4c57610f4b610eba565b5b6000610f5a8a828b01610ee2565b9750506020610f6b8a828b01610f18565b9650506040610f7c8a828b01610f18565b9550506060610f8d8a828b01610f18565b9450506080610f9e8a828b01610f18565b93505060a0610faf8a828b01610f18565b92505060c0610fc08a828b01610f18565b91505092959891949750929550565b610fd881610ef7565b82525050565b6000602082019050610ff36000830184610fcf565b92915050565b60008060006060848603121561101257611011610eba565b5b600061102086828701610f18565b935050602061103186828701610f18565b925050604061104286828701610f18565b9150509250925092565b600073ffffffffffffffffffffffffffffffffffffffff82169050919050565b60006110778261104c565b9050919050565b6110878161106c565b811461109257600080fd5b50565b6000813590506110a48161107e565b92915050565b6000602082840312156110c0576110bf610eba565b5b60006110ce84828501611095565b91505092915050565b6110e08161106c565b82525050565b60006020820190506110fb60008301846110d7565b92915050565b60006020828403121561111757611116610eba565b5b600061112584828501610f18565b91505092915050565b7f4e487b7100000000000000000000000000000000000000000000000000000000600052601160045260246000fd5b600061116882610ef7565b91507fffffffffffffffffffffffffffffffffffffffffffffffffffffffffffffffff82141561119b5761119a61112e565b5b600182019050919050565b600082825260208201905092915050565b7f53616c65206f7264657200000000000000000000000000000000000000000000600082015250565b60006111ed600a836111a6565b91506111f8826111b7565b602082019050919050565b600060a08201905061121860008301876110d7565b61122560208301866110d7565b6112326040830185610fcf565b61123f6060830184610fcf565b8181036080830152611250816111e0565b905095945050505050565b61126481610ebf565b82525050565b600061014082019050611280600083018d610fcf565b61128d602083018c6110d7565b61129a604083018b61125b565b6112a7606083018a610fcf565b6112b46080830189610fcf565b6112c160a0830188610fcf565b6112ce60c0830187610fcf565b6112db60e0830186610fcf565b6112e9610100830185610fcf565b6112f7610120830184610fcf565b9b9a5050505050505050505050565b600082825260208201905092915050565b7f796f752063616e6e6f7420707572636861736520796f7572206f776e20746f6b60008201527f656e730000000000000000000000000000000000000000000000000000000000602082015250565b6000611373602383611306565b915061137e82611317565b604082019050919050565b600060208201905081810360008301526113a281611366565b9050919050565b7f497320616c726561647920636c6f736564000000000000000000000000000000600082015250565b60006113df601183611306565b91506113ea826113a9565b602082019050919050565b6000602082019050818103600083015261140e816113d2565b9050919050565b7f596f752063616e6e6f742068617665203020636f6d6d756e69747920746f6b6560008201527f6e20616d6f756e74000000000000000000000000000000000000000000000000602082015250565b6000611471602883611306565b915061147c82611415565b604082019050919050565b600060208201905081810360008301526114a081611464565b9050919050565b7f596f752063616e6e6f742068617665203020676f7665726e616e636520746f6b60008201527f656e20616d6f756e740000000000000000000000000000000000000000000000602082015250565b6000611503602983611306565b915061150e826114a7565b604082019050919050565b60006020820190508181036000830152611532816114f6565b9050919050565b7f496e76616c696420526174696f00000000000000000000000000000000000000600082015250565b600061156f600d83611306565b915061157a82611539565b602082019050919050565b6000602082019050818103600083015261159e81611562565b9050919050565b60006040820190506115ba6000830185610fcf565b6115c76020830184610fcf565b9392505050565b7f596f7520617265206e6f7420617574686f72697a656420666f7220746869732060008201527f616374696f6e0000000000000000000000000000000000000000000000000000602082015250565b600061162a602683611306565b9150611635826115ce565b604082019050919050565b600060208201905081810360008301526116598161161d565b9050919050565b7f796f752061726520756e617574686f72697a656420666f72207468697320616360008201527f74696f6e00000000000000000000000000000000000000000000000000000000602082015250565b60006116bc602483611306565b91506116c782611660565b604082019050919050565b600060208201905081810360008301526116eb816116af565b9050919050565b600081519050919050565b60005b8381101561171b578082015181840152602081019050611700565b8381111561172a576000848401525b50505050565b6000601f19601f8301169050919050565b600061174c826116f2565b6117568185611306565b93506117668185602086016116fd565b61176f81611730565b840191505092915050565b600060208201905081810360008301526117948184611741565b905092915050565b7f4e487b7100000000000000000000000000000000000000000000000000000000600052601260045260246000fdfea2646970667358221220f268c38ec16b1afb81d157b5473e430311acbaafd75765c29fbd4bfa95a8e25864736f6c634300080c0033",
  "immutableReferences": {},
  "source": "pragma solidity ^0.8.0;\n\nimport \"@openzeppelin/contracts/token/ERC1155/ERC1155.sol\";\nimport \"@openzeppelin/contracts/token/ERC1155/IERC1155Receiver.sol\";\nimport \"@openzeppelin/contracts/token/ERC1155/extensions/ERC1155Supply.sol\";\nimport \"@openzeppelin/contracts/utils/Counters.sol\";\nimport \"@openzeppelin/contracts/access/Ownable.sol\";\nimport \"@openzeppelin/contracts/utils/math/SafeMath.sol\";\nimport \"./RecordsContract.sol\";\nimport \"./TreasuryContract.sol\";\n\ncontract OrdersContract {\n    address public RECORDS_CONTRACT_ADDRESS;\n    address public VOTING_CONTRACT_ADDRESS;\n    address public TREASURY_CONTRACT_ADDRESS;\n    address OWNER;\n\n    struct Order {\n        bool isClosed;\n        bool isLockedInRatio;\n        address seller;\n        uint256 creationDate;\n        uint256 communityTokenId;\n        uint256 communityTokenAmount;\n        uint256 communityTokenPrice;\n        uint256 governanceTokenId;\n        uint256 governanceTokenAmount;\n        uint256 governanceTokenPrice;\n    }\n\n    /**\n        @dev this is event which is created when a user creates order to sell his tokens\n        @param saleId this is the Id of the sale order\n        @param seller this is the address of the owner or the sale order\n        @param isLockedInRatio the is denotes wether the user wants to sell the token individually or in a ratio\n        @param creationDate this is the creation date of the sale order\n        @param communityTokenId this is the community token id that is involved in the sale\n        @param communityTokenAmount this is the comunity token amount for sale\n        @param communityTokenPrice this is the price of sinle token\n        @param governanceTokenId this is the community token id that is involved in the sale\n        @param governanceTokenAmount this is the comunity token amount for sale\n        @param governanceTokenPrice this is the price of sinle token\n     */\n    event SaleOrder(\n        uint256 saleId,\n        address seller,\n        bool isLockedInRatio,\n        uint256 creationDate,\n        uint256 communityTokenId,\n        uint256 communityTokenAmount,\n        uint256 communityTokenPrice,\n        uint256 governanceTokenId,\n        uint256 governanceTokenAmount,\n        uint256 governanceTokenPrice\n    );\n\n    /**\n        @dev this is event which is created when a user purchases any sale order\n        @param saleId this is the Id of the sale order\n        @param seller this is the address of the owner or the sale order\n        @param buyer this is the address of the person who bought the tokens\n        @param creationDate this is the date when tokens were purchased\n        @param communityTokenId this is the community token id that is involved in the sale\n        @param communityTokenAmount this is the comunity token amount for sale\n        @param communityTokenPrice this is the price of sinle token\n        @param governanceTokenId this is the community token id that is involved in the sale\n        @param governanceTokenAmount this is the comunity token amount for sale\n        @param governanceTokenPrice this is the price of sinle token\n     */\n    event BuySale(\n        uint256 saleId,\n        address seller,\n        address buyer,\n        uint256 creationDate,\n        uint256 communityTokenId,\n        uint256 communityTokenAmount,\n        uint256 communityTokenPrice,\n        uint256 governanceTokenId,\n        uint256 governanceTokenAmount,\n        uint256 governanceTokenPrice\n    );\n\n    /**\n        @dev this event is emmited when user closes his/her sale order\n        @param saleId This is the sale Id of the sale order \n        @param creationDate This is the date when the event took place \n     */\n    event SaleClose(uint256 saleId, uint256 creationDate);\n\n    mapping(uint256 => Order) orderBook;\n    uint256 orderId = 0;\n\n    constructor() {\n        OWNER = msg.sender;\n    }\n\n    /**\n     * @dev Modifier to check that the person who accesses a specific function is the owner of contract himself.\n     */\n    modifier ownerOnly() {\n        require(msg.sender == OWNER, \"You are not authorized for this action\");\n        _;\n    }\n\n    /**\n     * @dev This function sets the treasury Contract address\n     */\n    function setTreasuryContractAddress(address newTreasuryContractAddress)\n        public\n        ownerOnly\n    {\n        TREASURY_CONTRACT_ADDRESS = newTreasuryContractAddress;\n    }\n\n    //safeTransferFrom\n\n    /**\n     * @dev This function is called to create a new saleOrder\n     */\n    function createSaleOrder(\n        bool isLockedInRatio,\n        uint256 communityTokenId,\n        uint256 communityTokenAmount,\n        uint256 communityTokenPrice,\n        uint256 governanceTokenId,\n        uint256 governanceTokenAmount,\n        uint256 governanceTokenPrice\n    ) public returns (uint256 saleOrderId) {\n        uint256 newOrderId = orderId;\n        orderId++;\n\n        // Any extra validation for the order ratio\n        TreasuryContract treasuryContract = TreasuryContract(\n            TREASURY_CONTRACT_ADDRESS\n        );\n\n        //need to have allowance of the seller's token with ordersContract acting as a spender\n        if (communityTokenAmount > 0) {\n            treasuryContract.safeTransferFrom(\n                msg.sender,\n                address(this),\n                communityTokenId,\n                communityTokenAmount,\n                \"Sale order\"\n            );\n        }\n\n        if (governanceTokenAmount > 0) {\n            treasuryContract.safeTransferFrom(\n                msg.sender,\n                address(this),\n                governanceTokenId,\n                governanceTokenAmount,\n                \"Sale order\"\n            );\n        }\n\n        Order memory order = Order({\n            isClosed: false,\n            seller: msg.sender,\n            isLockedInRatio: isLockedInRatio,\n            creationDate: block.timestamp,\n            communityTokenId: communityTokenId,\n            communityTokenAmount: communityTokenAmount,\n            communityTokenPrice: communityTokenPrice,\n            governanceTokenId: governanceTokenId,\n            governanceTokenAmount: governanceTokenAmount,\n            governanceTokenPrice: governanceTokenPrice\n        });\n\n        orderBook[orderId] = order;\n\n        emit SaleOrder({\n            saleId: orderId,\n            seller: order.seller,\n            isLockedInRatio: isLockedInRatio,\n            creationDate: order.creationDate,\n            communityTokenId: communityTokenId,\n            communityTokenAmount: communityTokenAmount,\n            communityTokenPrice: communityTokenPrice,\n            governanceTokenId: governanceTokenId,\n            governanceTokenAmount: governanceTokenAmount,\n            governanceTokenPrice: governanceTokenPrice\n        });\n\n        return orderId;\n    }\n\n    /**\n     * @dev This function is called to cancle the existing sale order\n     */\n    function cancleSaleOrder(uint256 saleId) public {\n        require(\n            orderBook[orderId].seller == msg.sender,\n            \"you are unauthorized for this action\"\n        );\n\n        require(orderBook[orderId].isClosed == true, \"Is already closed\");\n\n        Order memory order = orderBook[orderId];\n\n        TreasuryContract treasuryContract = TreasuryContract(\n            TREASURY_CONTRACT_ADDRESS\n        );\n        //--- Need to have additional checks for balance of the sale and also to deduct the tokens from the sale struct\n        if (order.communityTokenAmount > 0) {\n            treasuryContract.safeTransferFrom(\n                msg.sender,\n                address(this),\n                order.communityTokenId,\n                order.communityTokenAmount,\n                \"Sale order\"\n            );\n\n        }\n\n        if (order.governanceTokenAmount > 0) {\n            treasuryContract.safeTransferFrom(\n                msg.sender,\n                address(this),\n                order.governanceTokenId,\n                order.governanceTokenAmount,\n                \"Sale order\"\n            );\n        }\n\n        orderBook[orderId].isClosed = true;\n\n        emit SaleClose({saleId: saleId, creationDate: block.timestamp});\n    }\n\n    /**\n     * @dev This function is called to cancle the existing sale order\n     */\n    function purchaseSaleOrder(\n        uint256 saleId,\n        uint256 governanceTokenAmount,\n        uint256 communityTokenAmount\n    ) public {\n        require(\n            orderBook[orderId].seller != msg.sender,\n            \"you cannot purchase your own tokens\"\n        );\n\n        require(orderBook[orderId].isClosed == true, \"Is already closed\");\n\n        Order memory order = orderBook[orderId];\n\n        if (order.isLockedInRatio) {\n            require(\n                order.communityTokenAmount > 0,\n                \"You cannot have 0 community token amount\"\n            );\n\n            require(\n                order.governanceTokenAmount > 0,\n                \"You cannot have 0 governance token amount\"\n            );\n\n            require(\n                SafeMath.div(\n                    communityTokenAmount,\n                    governanceTokenAmount,\n                    \"Invalid ratio\"\n                ) ==\n                    SafeMath.div(\n                        order.communityTokenAmount,\n                        order.governanceTokenAmount,\n                        \"Invalid ratio\"\n                    ),\n                \"Invalid Ratio\"\n            );\n        }\n\n        TreasuryContract treasuryContract = TreasuryContract(\n            TREASURY_CONTRACT_ADDRESS\n        );\n        if (order.communityTokenAmount > 0) {\n            treasuryContract.safeTransferFrom(\n                msg.sender,\n                address(this),\n                order.communityTokenId,\n                order.communityTokenAmount,\n                \"Sale order\"\n            );\n        }\n\n        if (order.governanceTokenAmount > 0) {\n            treasuryContract.safeTransferFrom(\n                msg.sender,\n                address(this),\n                order.governanceTokenId,\n                order.governanceTokenAmount,\n                \"Sale order\"\n            );\n        }\n\n        orderBook[orderId].isClosed = true;\n\n        emit SaleClose({saleId: saleId, creationDate: block.timestamp});\n    }\n}\n",
  "sourcePath": "/Users/a1/Desktop/Office/projects/CrowdRecords/Contracts/contracts/OrdersContract.sol",
  "compiler": {
    "name": "solc",
    "version": "0.8.12+commit.f00d7308.Emscripten.clang"
  },
  "schemaVersion": "3.4.6",
  "updatedAt": "2022-05-04T09:19:19.238Z",
  "devdoc": {
    "events": {
      "BuySale(uint256,address,address,uint256,uint256,uint256,uint256,uint256,uint256,uint256)": {
        "details": "this is event which is created when a user purchases any sale order",
        "params": {
          "buyer": "this is the address of the person who bought the tokens",
          "communityTokenAmount": "this is the comunity token amount for sale",
          "communityTokenId": "this is the community token id that is involved in the sale",
          "communityTokenPrice": "this is the price of sinle token",
          "creationDate": "this is the date when tokens were purchased",
          "governanceTokenAmount": "this is the comunity token amount for sale",
          "governanceTokenId": "this is the community token id that is involved in the sale",
          "governanceTokenPrice": "this is the price of sinle token",
          "saleId": "this is the Id of the sale order",
          "seller": "this is the address of the owner or the sale order"
        }
      },
      "SaleClose(uint256,uint256)": {
        "details": "this event is emmited when user closes his/her sale order",
        "params": {
          "creationDate": "This is the date when the event took place ",
          "saleId": "This is the sale Id of the sale order "
        }
      },
      "SaleOrder(uint256,address,bool,uint256,uint256,uint256,uint256,uint256,uint256,uint256)": {
        "details": "this is event which is created when a user creates order to sell his tokens",
        "params": {
          "communityTokenAmount": "this is the comunity token amount for sale",
          "communityTokenId": "this is the community token id that is involved in the sale",
          "communityTokenPrice": "this is the price of sinle token",
          "creationDate": "this is the creation date of the sale order",
          "governanceTokenAmount": "this is the comunity token amount for sale",
          "governanceTokenId": "this is the community token id that is involved in the sale",
          "governanceTokenPrice": "this is the price of sinle token",
          "isLockedInRatio": "the is denotes wether the user wants to sell the token individually or in a ratio",
          "saleId": "this is the Id of the sale order",
          "seller": "this is the address of the owner or the sale order"
        }
      }
    },
    "kind": "dev",
    "methods": {
      "cancleSaleOrder(uint256)": {
        "details": "This function is called to cancle the existing sale order"
      },
      "createSaleOrder(bool,uint256,uint256,uint256,uint256,uint256,uint256)": {
        "details": "This function is called to create a new saleOrder"
      },
      "purchaseSaleOrder(uint256,uint256,uint256)": {
        "details": "This function is called to cancle the existing sale order"
      },
      "setTreasuryContractAddress(address)": {
        "details": "This function sets the treasury Contract address"
      }
    },
    "version": 1
  },
  "userdoc": {
    "kind": "user",
    "methods": {},
    "version": 1
  }
}