{
  "contractName": "OrdersContract",
  "abi": [
    {
      "inputs": [],
      "stateMutability": "nonpayable",
      "type": "constructor"
    },
    {
      "anonymous": false,
      "inputs": [
        {
          "indexed": false,
          "internalType": "uint256",
          "name": "saleId",
          "type": "uint256"
        },
        {
          "indexed": false,
          "internalType": "address",
          "name": "buyer",
          "type": "address"
        },
        {
          "indexed": false,
          "internalType": "bool",
          "name": "isLockedInRatio",
          "type": "bool"
        },
        {
          "indexed": false,
          "internalType": "uint256",
          "name": "creationDate",
          "type": "uint256"
        },
        {
          "indexed": false,
          "internalType": "uint256",
          "name": "communityTokenId",
          "type": "uint256"
        },
        {
          "indexed": false,
          "internalType": "uint256",
          "name": "communityTokenAmount",
          "type": "uint256"
        },
        {
          "indexed": false,
          "internalType": "uint256",
          "name": "communityTokenPrice",
          "type": "uint256"
        },
        {
          "indexed": false,
          "internalType": "uint256",
          "name": "governanceTokenId",
          "type": "uint256"
        },
        {
          "indexed": false,
          "internalType": "uint256",
          "name": "governanceTokenAmount",
          "type": "uint256"
        },
        {
          "indexed": false,
          "internalType": "uint256",
          "name": "governanceTokenPrice",
          "type": "uint256"
        },
        {
          "indexed": false,
          "internalType": "uint256",
          "name": "crdBalance",
          "type": "uint256"
        }
      ],
      "name": "BuyOrder",
      "type": "event"
    },
    {
      "anonymous": false,
      "inputs": [
        {
          "indexed": false,
          "internalType": "uint256",
          "name": "amount",
          "type": "uint256"
        },
        {
          "indexed": false,
          "internalType": "uint256",
          "name": "fees",
          "type": "uint256"
        },
        {
          "indexed": false,
          "internalType": "uint256",
          "name": "totalCRD",
          "type": "uint256"
        },
        {
          "indexed": false,
          "internalType": "uint256",
          "name": "otherTest",
          "type": "uint256"
        }
      ],
      "name": "DEBUG",
      "type": "event"
    },
    {
      "anonymous": false,
      "inputs": [
        {
          "indexed": false,
          "internalType": "uint256",
          "name": "saleId",
          "type": "uint256"
        },
        {
          "indexed": false,
          "internalType": "uint256",
          "name": "creationDate",
          "type": "uint256"
        },
        {
          "indexed": false,
          "internalType": "uint256",
          "name": "remainingBalance",
          "type": "uint256"
        }
      ],
      "name": "OrderClose",
      "type": "event"
    },
    {
      "anonymous": false,
      "inputs": [
        {
          "indexed": false,
          "internalType": "uint256",
          "name": "saleId",
          "type": "uint256"
        },
        {
          "indexed": false,
          "internalType": "address",
          "name": "seller",
          "type": "address"
        },
        {
          "indexed": false,
          "internalType": "address",
          "name": "buyer",
          "type": "address"
        },
        {
          "indexed": false,
          "internalType": "uint256",
          "name": "creationDate",
          "type": "uint256"
        },
        {
          "indexed": false,
          "internalType": "uint256",
          "name": "communityTokenId",
          "type": "uint256"
        },
        {
          "indexed": false,
          "internalType": "uint256",
          "name": "communityTokenAmount",
          "type": "uint256"
        },
        {
          "indexed": false,
          "internalType": "uint256",
          "name": "communityTokenPrice",
          "type": "uint256"
        },
        {
          "indexed": false,
          "internalType": "uint256",
          "name": "governanceTokenId",
          "type": "uint256"
        },
        {
          "indexed": false,
          "internalType": "uint256",
          "name": "governanceTokenAmount",
          "type": "uint256"
        },
        {
          "indexed": false,
          "internalType": "uint256",
          "name": "governanceTokenPrice",
          "type": "uint256"
        },
        {
          "indexed": false,
          "internalType": "uint256",
          "name": "amountTransferred",
          "type": "uint256"
        },
        {
          "indexed": false,
          "internalType": "uint256",
          "name": "platformFees",
          "type": "uint256"
        }
      ],
      "name": "SaleBought",
      "type": "event"
    },
    {
      "inputs": [],
      "name": "RECORDS_CONTRACT_ADDRESS",
      "outputs": [
        {
          "internalType": "address",
          "name": "",
          "type": "address"
        }
      ],
      "stateMutability": "view",
      "type": "function"
    },
    {
      "inputs": [],
      "name": "TREASURY_CONTRACT_ADDRESS",
      "outputs": [
        {
          "internalType": "address",
          "name": "",
          "type": "address"
        }
      ],
      "stateMutability": "view",
      "type": "function"
    },
    {
      "inputs": [],
      "name": "VOTING_CONTRACT_ADDRESS",
      "outputs": [
        {
          "internalType": "address",
          "name": "",
          "type": "address"
        }
      ],
      "stateMutability": "view",
      "type": "function"
    },
    {
      "inputs": [
        {
          "internalType": "address",
          "name": "newTreasuryContractAddress",
          "type": "address"
        }
      ],
      "name": "setTreasuryContractAddress",
      "outputs": [],
      "stateMutability": "nonpayable",
      "type": "function"
    },
    {
      "inputs": [
        {
          "internalType": "bool",
          "name": "isLockedInRatio",
          "type": "bool"
        },
        {
          "internalType": "uint256",
          "name": "recordId",
          "type": "uint256"
        },
        {
          "internalType": "uint256",
          "name": "communityTokenId",
          "type": "uint256"
        },
        {
          "internalType": "uint256",
          "name": "communityTokenAmount",
          "type": "uint256"
        },
        {
          "internalType": "uint256",
          "name": "communityTokenPrice",
          "type": "uint256"
        },
        {
          "internalType": "uint256",
          "name": "governanceTokenId",
          "type": "uint256"
        },
        {
          "internalType": "uint256",
          "name": "governanceTokenAmount",
          "type": "uint256"
        },
        {
          "internalType": "uint256",
          "name": "governanceTokenPrice",
          "type": "uint256"
        }
      ],
      "name": "createBuyOrder",
      "outputs": [
        {
          "internalType": "uint256",
          "name": "saleOrderId",
          "type": "uint256"
        }
      ],
      "stateMutability": "nonpayable",
      "type": "function"
    },
    {
      "inputs": [
        {
          "internalType": "uint256",
          "name": "saleId",
          "type": "uint256"
        }
      ],
      "name": "cancelBuyOrder",
      "outputs": [],
      "stateMutability": "nonpayable",
      "type": "function"
    },
    {
      "inputs": [
        {
          "internalType": "uint256",
          "name": "saleId",
          "type": "uint256"
        },
        {
          "internalType": "uint256",
          "name": "governanceTokenAmount",
          "type": "uint256"
        },
        {
          "internalType": "uint256",
          "name": "communityTokenAmount",
          "type": "uint256"
        }
      ],
      "name": "acceptBuyOrder",
      "outputs": [],
      "stateMutability": "nonpayable",
      "type": "function"
    },
    {
      "inputs": [
        {
          "internalType": "address",
          "name": "",
          "type": "address"
        },
        {
          "internalType": "address",
          "name": "",
          "type": "address"
        },
        {
          "internalType": "uint256",
          "name": "",
          "type": "uint256"
        },
        {
          "internalType": "uint256",
          "name": "",
          "type": "uint256"
        },
        {
          "internalType": "bytes",
          "name": "",
          "type": "bytes"
        }
      ],
      "name": "onERC1155Received",
      "outputs": [
        {
          "internalType": "bytes4",
          "name": "",
          "type": "bytes4"
        }
      ],
      "stateMutability": "nonpayable",
      "type": "function"
    },
    {
      "inputs": [
        {
          "internalType": "address",
          "name": "",
          "type": "address"
        },
        {
          "internalType": "address",
          "name": "",
          "type": "address"
        },
        {
          "internalType": "uint256[]",
          "name": "",
          "type": "uint256[]"
        },
        {
          "internalType": "uint256[]",
          "name": "",
          "type": "uint256[]"
        },
        {
          "internalType": "bytes",
          "name": "",
          "type": "bytes"
        }
      ],
      "name": "onERC1155BatchReceived",
      "outputs": [
        {
          "internalType": "bytes4",
          "name": "",
          "type": "bytes4"
        }
      ],
      "stateMutability": "nonpayable",
      "type": "function"
    },
    {
      "inputs": [
        {
          "internalType": "address",
          "name": "",
          "type": "address"
        },
        {
          "internalType": "address",
          "name": "",
          "type": "address"
        },
        {
          "internalType": "uint256",
          "name": "",
          "type": "uint256"
        },
        {
          "internalType": "bytes",
          "name": "",
          "type": "bytes"
        }
      ],
      "name": "onERC721Received",
      "outputs": [
        {
          "internalType": "bytes4",
          "name": "",
          "type": "bytes4"
        }
      ],
      "stateMutability": "nonpayable",
      "type": "function"
    }
  ],
  "bytecode": "0x60806040526032600260146101000a81548160ff021916908360ff160217905550600060055534801561003157600080fd5b5033600360006101000a81548173ffffffffffffffffffffffffffffffffffffffff021916908373ffffffffffffffffffffffffffffffffffffffff1602179055506129ee806100826000396000f3fe608060405234801561001057600080fd5b506004361061009e5760003560e01c8063ba19a67511610066578063ba19a67514610147578063bc197c8114610165578063be5d147f14610195578063ef2d225f146101b1578063f23a6e61146101e15761009e565b8063150b7a02146100a35780634cf2d48f146100d3578063659d45eb146100ef57806381e6cde51461010d578063acb3149314610129575b600080fd5b6100bd60048036038101906100b8919061174f565b610211565b6040516100ca919061180d565b60405180910390f35b6100ed60048036038101906100e89190611828565b610225565b005b6100f76102f9565b6040516101049190611864565b60405180910390f35b6101276004803603810190610122919061187f565b61031f565b005b6101316108fe565b60405161013e9190611864565b60405180910390f35b61014f610924565b60405161015c9190611864565b60405180910390f35b61017f600480360381019061017a919061199a565b610948565b60405161018c919061180d565b60405180910390f35b6101af60048036038101906101aa9190611a69565b61095d565b005b6101cb60048036038101906101c69190611ace565b610cf5565b6040516101d89190611b93565b60405180910390f35b6101fb60048036038101906101f69190611bae565b6112ef565b604051610208919061180d565b60405180910390f35b600063150b7a0260e01b9050949350505050565b600360009054906101000a900473ffffffffffffffffffffffffffffffffffffffff1673ffffffffffffffffffffffffffffffffffffffff163373ffffffffffffffffffffffffffffffffffffffff16146102b5576040517f08c379a00000000000000000000000000000000000000000000000000000000081526004016102ac90611cc8565b60405180910390fd5b80600260006101000a81548173ffffffffffffffffffffffffffffffffffffffff021916908373ffffffffffffffffffffffffffffffffffffffff16021790555050565b600160009054906101000a900473ffffffffffffffffffffffffffffffffffffffff1681565b3373ffffffffffffffffffffffffffffffffffffffff1660046000600554815260200190815260200160002060000160029054906101000a900473ffffffffffffffffffffffffffffffffffffffff1673ffffffffffffffffffffffffffffffffffffffff1614156103c6576040517f08c379a00000000000000000000000000000000000000000000000000000000081526004016103bd90611d5a565b60405180910390fd5b6000151560046000600554815260200190815260200160002060000160009054906101000a900460ff16151514610432576040517f08c379a000000000000000000000000000000000000000000000000000000000815260040161042990611dc6565b60405180910390fd5b600060046000600554815260200190815260200160002090508181600301541015610492576040517f08c379a000000000000000000000000000000000000000000000000000000000815260040161048990611e58565b60405180910390fd5b82816006015410156104d9576040517f08c379a00000000000000000000000000000000000000000000000000000000081526004016104d090611eea565b60405180910390fd5b8060000160019054906101000a900460ff16156106c7578060060154816003015411156105e557610554606482600301546105149190611f39565b82600601546040518060400160405280600d81526020017f496e76616c696420526174696f00000000000000000000000000000000000000815250611304565b6105a06064846105649190611f39565b856040518060400160405280600d81526020017f496e76616c696420526174696f00000000000000000000000000000000000000815250611304565b146105e0576040517f08c379a00000000000000000000000000000000000000000000000000000000081526004016105d790611fdf565b60405180910390fd5b6106c6565b610639606482600601546105f99190611f39565b82600301546040518060400160405280600d81526020017f496e76616c696420526174696f00000000000000000000000000000000000000815250611304565b6106856064856106499190611f39565b846040518060400160405280600d81526020017f496e76616c696420526174696f00000000000000000000000000000000000000815250611304565b146106c5576040517f08c379a00000000000000000000000000000000000000000000000000000000081526004016106bc90611fdf565b60405180910390fd5b5b5b6000806000836003015411156107355760008061071286866004015487600201548860000160029054906101000a900473ffffffffffffffffffffffffffffffffffffffff16611366565b9150915081846107229190611fff565b935080836107309190611fff565b925050505b6000836006015411156107a05760008061077d87866007015487600501548860000160029054906101000a900473ffffffffffffffffffffffffffffffffffffffff16611366565b91509150818461078d9190611fff565b9350808361079b9190611fff565b925050505b7f249b7ebd7d5ac609b663ac9ccaa3fcc5fc187ce3d76fb95d9064a788ffeba078868460000160029054906101000a900473ffffffffffffffffffffffffffffffffffffffff16334287600201548989600401548a600501548d8c600701548b8d61080b9190611fff565b8c6040516108249c9b9a99989796959493929190612055565b60405180910390a183836003015461083c919061210f565b8360030181905550848360060154610854919061210f565b83600601819055508082846008015461086d919061210f565b610877919061210f565b836008018190555060008360030154148015610897575060008360060154145b156108f65760018360000160006101000a81548160ff0219169083151502179055507f9b59e95c56cf432066ac010b6aa1d35e53f427d886a20c2a9c307b776768b1e5864260006040516108ed93929190612188565b60405180910390a15b505050505050565b600260009054906101000a900473ffffffffffffffffffffffffffffffffffffffff1681565b60008054906101000a900473ffffffffffffffffffffffffffffffffffffffff1681565b600063bc197c8160e01b905095945050505050565b3373ffffffffffffffffffffffffffffffffffffffff1660046000600554815260200190815260200160002060000160029054906101000a900473ffffffffffffffffffffffffffffffffffffffff1673ffffffffffffffffffffffffffffffffffffffff1614610a03576040517f08c379a00000000000000000000000000000000000000000000000000000000081526004016109fa90612231565b60405180910390fd5b6000151560046000600554815260200190815260200160002060000160009054906101000a900460ff16151514610a6f576040517f08c379a0000000000000000000000000000000000000000000000000000000008152600401610a6690611dc6565b60405180910390fd5b6000600460006005548152602001908152602001600020604051806101600160405290816000820160009054906101000a900460ff161515151581526020016000820160019054906101000a900460ff161515151581526020016000820160029054906101000a900473ffffffffffffffffffffffffffffffffffffffff1673ffffffffffffffffffffffffffffffffffffffff1673ffffffffffffffffffffffffffffffffffffffff1681526020016001820154815260200160028201548152602001600382015481526020016004820154815260200160058201548152602001600682015481526020016007820154815260200160088201548152505090506000600260009054906101000a900473ffffffffffffffffffffffffffffffffffffffff1690508073ffffffffffffffffffffffffffffffffffffffff1663f242432a3084604001518473ffffffffffffffffffffffffffffffffffffffff1663e6acd9b86040518163ffffffff1660e01b8152600401602060405180830381865afa158015610c04573d6000803e3d6000fd5b505050506040513d601f19601f82011682018060405250810190610c289190612266565b8661014001516040518563ffffffff1660e01b8152600401610c4d94939291906122f0565b600060405180830381600087803b158015610c6757600080fd5b505af1158015610c7b573d6000803e3d6000fd5b50505050600160046000600554815260200190815260200160002060000160006101000a81548160ff0219169083151502179055507f9b59e95c56cf432066ac010b6aa1d35e53f427d886a20c2a9c307b776768b1e58342846101400151604051610ce893929190612348565b60405180910390a1505050565b600080600260009054906101000a900473ffffffffffffffffffffffffffffffffffffffff169050878173ffffffffffffffffffffffffffffffffffffffff16632d4a03828b6040518263ffffffff1660e01b8152600401610d579190611b93565b602060405180830381865afa158015610d74573d6000803e3d6000fd5b505050506040513d601f19601f82011682018060405250810190610d989190612266565b14610dd8576040517f08c379a0000000000000000000000000000000000000000000000000000000008152600401610dcf906123cb565b60405180910390fd5b848173ffffffffffffffffffffffffffffffffffffffff1663d6ca40a78b6040518263ffffffff1660e01b8152600401610e129190611b93565b602060405180830381865afa158015610e2f573d6000803e3d6000fd5b505050506040513d601f19601f82011682018060405250810190610e539190612266565b14610e93576040517f08c379a0000000000000000000000000000000000000000000000000000000008152600401610e8a90612437565b60405180910390fd5b8915610f205760008711610edc576040517f08c379a0000000000000000000000000000000000000000000000000000000008152600401610ed3906124c9565b60405180910390fd5b60008411610f1f576040517f08c379a0000000000000000000000000000000000000000000000000000000008152600401610f169061255b565b60405180910390fd5b5b610f2861153f565b8385610f349190611f39565b81600060028110610f4857610f4761257b565b5b6020020181815250508688610f5d9190611f39565b81600160028110610f7157610f7061257b565b5b6020020181815250508173ffffffffffffffffffffffffffffffffffffffff1663f242432a32308573ffffffffffffffffffffffffffffffffffffffff1663e6acd9b86040518163ffffffff1660e01b8152600401602060405180830381865afa158015610fe3573d6000803e3d6000fd5b505050506040513d601f19601f820116820180604052508101906110079190612266565b8560006002811061101b5761101a61257b565b5b6020020151866001600281106110345761103361257b565b5b60200201516110439190611fff565b6040518563ffffffff1660e01b815260040161106294939291906125f6565b600060405180830381600087803b15801561107c57600080fd5b505af1158015611090573d6000803e3d6000fd5b5050505060006005549050600560008154809291906110ae9061264e565b919050555060006040518061016001604052806000151581526020018e151581526020013273ffffffffffffffffffffffffffffffffffffffff1681526020014281526020018c81526020018b81526020018a81526020018981526020018881526020018781526020018460016002811061112c5761112b61257b565b5b6020020151856000600281106111455761114461257b565b5b60200201516111549190611fff565b81525090508060046000600554815260200190815260200160002060008201518160000160006101000a81548160ff02191690831515021790555060208201518160000160016101000a81548160ff02191690831515021790555060408201518160000160026101000a81548173ffffffffffffffffffffffffffffffffffffffff021916908373ffffffffffffffffffffffffffffffffffffffff160217905550606082015181600101556080820151816002015560a0820151816003015560c0820151816004015560e082015181600501556101008201518160060155610120820151816007015561014082015181600801559050507ffaa6ea7690fa3b58a9cfc7064f065f7d0aab5a65f26e58acaa53da7a7e3e6ac660055482604001518f84606001518f8f8f8f8f8f8d6001600281106112955761129461257b565b5b60200201518e6000600281106112ae576112ad61257b565b5b60200201516112bd9190611fff565b6040516112d49b9a999897969594939291906126a6565b60405180910390a18194505050505098975050505050505050565b600063f23a6e6160e01b905095945050505050565b6000808311829061134b576040517f08c379a000000000000000000000000000000000000000000000000000000000815260040161134291906127c8565b60405180910390fd5b5082848161135c5761135b6127ea565b5b0490509392505050565b600080600085876113779190611f39565b90506000612710600260149054906101000a900460ff1660ff168361139c9190611f39565b6113a69190612819565b905080826113b4919061210f565b91506000600260009054906101000a900473ffffffffffffffffffffffffffffffffffffffff1690508073ffffffffffffffffffffffffffffffffffffffff1663f242432a30338473ffffffffffffffffffffffffffffffffffffffff1663e6acd9b86040518163ffffffff1660e01b8152600401602060405180830381865afa158015611446573d6000803e3d6000fd5b505050506040513d601f19601f8201168201806040525081019061146a9190612266565b876040518563ffffffff1660e01b815260040161148a94939291906128bc565b600060405180830381600087803b1580156114a457600080fd5b505af11580156114b8573d6000803e3d6000fd5b505050508073ffffffffffffffffffffffffffffffffffffffff1663f242432a33888a8d6040518563ffffffff1660e01b81526004016114fb9493929190612960565b600060405180830381600087803b15801561151557600080fd5b505af1158015611529573d6000803e3d6000fd5b5050505082829450945050505094509492505050565b6040518060400160405280600290602082028036833780820191505090505090565b6000604051905090565b600080fd5b600080fd5b600073ffffffffffffffffffffffffffffffffffffffff82169050919050565b60006115a082611575565b9050919050565b6115b081611595565b81146115bb57600080fd5b50565b6000813590506115cd816115a7565b92915050565b6000819050919050565b6115e6816115d3565b81146115f157600080fd5b50565b600081359050611603816115dd565b92915050565b600080fd5b600080fd5b6000601f19601f8301169050919050565b7f4e487b7100000000000000000000000000000000000000000000000000000000600052604160045260246000fd5b61165c82611613565b810181811067ffffffffffffffff8211171561167b5761167a611624565b5b80604052505050565b600061168e611561565b905061169a8282611653565b919050565b600067ffffffffffffffff8211156116ba576116b9611624565b5b6116c382611613565b9050602081019050919050565b82818337600083830152505050565b60006116f26116ed8461169f565b611684565b90508281526020810184848401111561170e5761170d61160e565b5b6117198482856116d0565b509392505050565b600082601f83011261173657611735611609565b5b81356117468482602086016116df565b91505092915050565b600080600080608085870312156117695761176861156b565b5b6000611777878288016115be565b9450506020611788878288016115be565b9350506040611799878288016115f4565b925050606085013567ffffffffffffffff8111156117ba576117b9611570565b5b6117c687828801611721565b91505092959194509250565b60007fffffffff0000000000000000000000000000000000000000000000000000000082169050919050565b611807816117d2565b82525050565b600060208201905061182260008301846117fe565b92915050565b60006020828403121561183e5761183d61156b565b5b600061184c848285016115be565b91505092915050565b61185e81611595565b82525050565b60006020820190506118796000830184611855565b92915050565b6000806000606084860312156118985761189761156b565b5b60006118a6868287016115f4565b93505060206118b7868287016115f4565b92505060406118c8868287016115f4565b9150509250925092565b600067ffffffffffffffff8211156118ed576118ec611624565b5b602082029050602081019050919050565b600080fd5b6000611916611911846118d2565b611684565b90508083825260208201905060208402830185811115611939576119386118fe565b5b835b81811015611962578061194e88826115f4565b84526020840193505060208101905061193b565b5050509392505050565b600082601f83011261198157611980611609565b5b8135611991848260208601611903565b91505092915050565b600080600080600060a086880312156119b6576119b561156b565b5b60006119c4888289016115be565b95505060206119d5888289016115be565b945050604086013567ffffffffffffffff8111156119f6576119f5611570565b5b611a028882890161196c565b935050606086013567ffffffffffffffff811115611a2357611a22611570565b5b611a2f8882890161196c565b925050608086013567ffffffffffffffff811115611a5057611a4f611570565b5b611a5c88828901611721565b9150509295509295909350565b600060208284031215611a7f57611a7e61156b565b5b6000611a8d848285016115f4565b91505092915050565b60008115159050919050565b611aab81611a96565b8114611ab657600080fd5b50565b600081359050611ac881611aa2565b92915050565b600080600080600080600080610100898b031215611aef57611aee61156b565b5b6000611afd8b828c01611ab9565b9850506020611b0e8b828c016115f4565b9750506040611b1f8b828c016115f4565b9650506060611b308b828c016115f4565b9550506080611b418b828c016115f4565b94505060a0611b528b828c016115f4565b93505060c0611b638b828c016115f4565b92505060e0611b748b828c016115f4565b9150509295985092959890939650565b611b8d816115d3565b82525050565b6000602082019050611ba86000830184611b84565b92915050565b600080600080600060a08688031215611bca57611bc961156b565b5b6000611bd8888289016115be565b9550506020611be9888289016115be565b9450506040611bfa888289016115f4565b9350506060611c0b888289016115f4565b925050608086013567ffffffffffffffff811115611c2c57611c2b611570565b5b611c3888828901611721565b9150509295509295909350565b600082825260208201905092915050565b7f596f7520617265206e6f7420617574686f72697a656420666f7220746869732060008201527f616374696f6e0000000000000000000000000000000000000000000000000000602082015250565b6000611cb2602683611c45565b9150611cbd82611c56565b604082019050919050565b60006020820190508181036000830152611ce181611ca5565b9050919050565b7f796f752063616e6e6f7420707572636861736520796f7572206f776e20746f6b60008201527f656e730000000000000000000000000000000000000000000000000000000000602082015250565b6000611d44602383611c45565b9150611d4f82611ce8565b604082019050919050565b60006020820190508181036000830152611d7381611d37565b9050919050565b7f497320616c726561647920636c6f736564000000000000000000000000000000600082015250565b6000611db0601183611c45565b9150611dbb82611d7a565b602082019050919050565b60006020820190508181036000830152611ddf81611da3565b9050919050565b7f436f6d6d756e69747920746f6b656e20616d6f756e7420697320696e7375666660008201527f696369656e740000000000000000000000000000000000000000000000000000602082015250565b6000611e42602683611c45565b9150611e4d82611de6565b604082019050919050565b60006020820190508181036000830152611e7181611e35565b9050919050565b7f476f7665726e616e636520746f6b656e20616d6f756e7420697320696e73756660008201527f66696369656e7400000000000000000000000000000000000000000000000000602082015250565b6000611ed4602783611c45565b9150611edf82611e78565b604082019050919050565b60006020820190508181036000830152611f0381611ec7565b9050919050565b7f4e487b7100000000000000000000000000000000000000000000000000000000600052601160045260246000fd5b6000611f44826115d3565b9150611f4f836115d3565b9250817fffffffffffffffffffffffffffffffffffffffffffffffffffffffffffffffff0483118215151615611f8857611f87611f0a565b5b828202905092915050565b7f496e76616c696420526174696f00000000000000000000000000000000000000600082015250565b6000611fc9600d83611c45565b9150611fd482611f93565b602082019050919050565b60006020820190508181036000830152611ff881611fbc565b9050919050565b600061200a826115d3565b9150612015836115d3565b9250827fffffffffffffffffffffffffffffffffffffffffffffffffffffffffffffffff0382111561204a57612049611f0a565b5b828201905092915050565b60006101808201905061206b600083018f611b84565b612078602083018e611855565b612085604083018d611855565b612092606083018c611b84565b61209f608083018b611b84565b6120ac60a083018a611b84565b6120b960c0830189611b84565b6120c660e0830188611b84565b6120d4610100830187611b84565b6120e2610120830186611b84565b6120f0610140830185611b84565b6120fe610160830184611b84565b9d9c50505050505050505050505050565b600061211a826115d3565b9150612125836115d3565b92508282101561213857612137611f0a565b5b828203905092915050565b6000819050919050565b6000819050919050565b600061217261216d61216884612143565b61214d565b6115d3565b9050919050565b61218281612157565b82525050565b600060608201905061219d6000830186611b84565b6121aa6020830185611b84565b6121b76040830184612179565b949350505050565b7f796f752061726520756e617574686f72697a656420666f72207468697320616360008201527f74696f6e00000000000000000000000000000000000000000000000000000000602082015250565b600061221b602483611c45565b9150612226826121bf565b604082019050919050565b6000602082019050818103600083015261224a8161220e565b9050919050565b600081519050612260816115dd565b92915050565b60006020828403121561227c5761227b61156b565b5b600061228a84828501612251565b91505092915050565b600082825260208201905092915050565b7f53616c65206f726465722063616e63656c656400000000000000000000000000600082015250565b60006122da601383612293565b91506122e5826122a4565b602082019050919050565b600060a0820190506123056000830187611855565b6123126020830186611855565b61231f6040830185611b84565b61232c6060830184611b84565b818103608083015261233d816122cd565b905095945050505050565b600060608201905061235d6000830186611b84565b61236a6020830185611b84565b6123776040830184611b84565b949350505050565b7f496e76616c696420636f6d6d756e69747920746f6b656e206964000000000000600082015250565b60006123b5601a83611c45565b91506123c08261237f565b602082019050919050565b600060208201905081810360008301526123e4816123a8565b9050919050565b7f496e76616c696420676f7665726e616e636520746f6b656e2069640000000000600082015250565b6000612421601b83611c45565b915061242c826123eb565b602082019050919050565b6000602082019050818103600083015261245081612414565b9050919050565b7f596f752063616e6e6f742068617665203020636f6d6d756e69747920746f6b6560008201527f6e20616d6f756e74000000000000000000000000000000000000000000000000602082015250565b60006124b3602883611c45565b91506124be82612457565b604082019050919050565b600060208201905081810360008301526124e2816124a6565b9050919050565b7f596f752063616e6e6f742068617665203020676f7665726e616e636520746f6b60008201527f656e20616d6f756e740000000000000000000000000000000000000000000000602082015250565b6000612545602983611c45565b9150612550826124e9565b604082019050919050565b6000602082019050818103600083015261257481612538565b9050919050565b7f4e487b7100000000000000000000000000000000000000000000000000000000600052603260045260246000fd5b7f53616c65206f7264657200000000000000000000000000000000000000000000600082015250565b60006125e0600a83612293565b91506125eb826125aa565b602082019050919050565b600060a08201905061260b6000830187611855565b6126186020830186611855565b6126256040830185611b84565b6126326060830184611b84565b8181036080830152612643816125d3565b905095945050505050565b6000612659826115d3565b91507fffffffffffffffffffffffffffffffffffffffffffffffffffffffffffffffff82141561268c5761268b611f0a565b5b600182019050919050565b6126a081611a96565b82525050565b6000610160820190506126bc600083018e611b84565b6126c9602083018d611855565b6126d6604083018c612697565b6126e3606083018b611b84565b6126f0608083018a611b84565b6126fd60a0830189611b84565b61270a60c0830188611b84565b61271760e0830187611b84565b612725610100830186611b84565b612733610120830185611b84565b612741610140830184611b84565b9c9b505050505050505050505050565b600081519050919050565b60005b8381101561277a57808201518184015260208101905061275f565b83811115612789576000848401525b50505050565b600061279a82612751565b6127a48185611c45565b93506127b481856020860161275c565b6127bd81611613565b840191505092915050565b600060208201905081810360008301526127e2818461278f565b905092915050565b7f4e487b7100000000000000000000000000000000000000000000000000000000600052601260045260246000fd5b6000612824826115d3565b915061282f836115d3565b92508261283f5761283e6127ea565b5b828204905092915050565b7f53616c6520746f6b656e20707269636520616d6f756e74207472616e7366657260008201527f20746f2073656c6c657200000000000000000000000000000000000000000000602082015250565b60006128a6602a83612293565b91506128b18261284a565b604082019050919050565b600060a0820190506128d16000830187611855565b6128de6020830186611855565b6128eb6040830185611b84565b6128f86060830184611b84565b818103608083015261290981612899565b905095945050505050565b7f53616c6520746f6b656e207472616e7366657220746f20627579657200000000600082015250565b600061294a601c83612293565b915061295582612914565b602082019050919050565b600060a0820190506129756000830187611855565b6129826020830186611855565b61298f6040830185611b84565b61299c6060830184611b84565b81810360808301526129ad8161293d565b90509594505050505056fea26469706673582212203ec6d7db4df36d21834d9cdb570546fe3b16f1ac80304e383ce9b4dfdb3a118064736f6c634300080c0033",
  "immutableReferences": {},
  "source": "pragma solidity ^0.8.0;\n\nimport \"@openzeppelin/contracts/utils/Counters.sol\";\nimport \"@openzeppelin/contracts/access/Ownable.sol\";\nimport \"@openzeppelin/contracts/utils/math/SafeMath.sol\";\nimport \"./RecordsContract.sol\";\nimport \"./TreasuryContract.sol\";\n\ncontract OrdersContract {\n    address public RECORDS_CONTRACT_ADDRESS;\n    address public VOTING_CONTRACT_ADDRESS;\n    address public TREASURY_CONTRACT_ADDRESS;\n    uint8 TRANSACTION_FEE = 50; //This is 0.50%\n    address OWNER;\n\n    //TODO: Convert the contract into buy order contract and remove the token transfering process to order contract from users wallet\n    /**\n        Buyer creates buying order and deposits amount.\n        seller sell the token and receives the CRD token, \n        then tokens are transferred to buyer\n     */\n\n    struct Order {\n        bool isClosed;\n        bool isLockedInRatio;\n        address buyer;\n        uint256 creationDate;\n        uint256 communityTokenId;\n        uint256 communityTokenAmount;\n        uint256 communityTokenPrice;\n        uint256 governanceTokenId;\n        uint256 governanceTokenAmount;\n        uint256 governanceTokenPrice;\n        uint256 crdBalance;\n    }\n\n    /**\n        @dev this is event which is created when a user creates order to sell his tokens\n        @param saleId this is the Id of the Buy order\n        @param buyer this is the address of the owner or the Buy order\n        @param isLockedInRatio the is denotes wether the user wants to sell the token individually or in a ratio\n        @param creationDate this is the creation date of the Buy order\n        @param communityTokenId this is the community token id that is involved in the Buy order\n        @param communityTokenAmount this is the community token amount for Buy order\n        @param communityTokenPrice this is the price of single token\n        @param governanceTokenId this is the community token id that is involved in the Buy order\n        @param governanceTokenAmount this is the community token amount for Buy order\n        @param governanceTokenPrice this is the price of single token\n        @param crdBalance this is the total balance remaining for the order\n     */\n    event BuyOrder(\n        uint256 saleId,\n        address buyer,\n        bool isLockedInRatio,\n        uint256 creationDate,\n        uint256 communityTokenId,\n        uint256 communityTokenAmount,\n        uint256 communityTokenPrice,\n        uint256 governanceTokenId,\n        uint256 governanceTokenAmount,\n        uint256 governanceTokenPrice,\n        uint256 crdBalance\n    );\n\n    /**\n        @dev this is event which is created when a user purchases any sale order\n        @param saleId this is the Id of the sale order\n        @param seller this is the address of the person who sold the tokens in exchange for the crd\n        @param buyer this is the address of the owner or the sale order\n        @param creationDate this is the date when tokens were purchased\n        @param communityTokenId this is the community token id that is involved in the sale\n        @param communityTokenAmount this is the community token amount for sale\n        @param communityTokenPrice this is the price of single token\n        @param governanceTokenId this is the community token id that is involved in the sale\n        @param governanceTokenAmount this is the community token amount for sale\n        @param governanceTokenPrice this is the price of single token\n        @param amountTransferred this is the total amount paid\n        @param platformFees this is the platform fees taken by crowdrecords\n     */\n    event SaleBought(\n        uint256 saleId,\n        address seller,\n        address buyer,\n        uint256 creationDate,\n        uint256 communityTokenId,\n        uint256 communityTokenAmount,\n        uint256 communityTokenPrice,\n        uint256 governanceTokenId,\n        uint256 governanceTokenAmount,\n        uint256 governanceTokenPrice,\n        uint256 amountTransferred,\n        uint256 platformFees\n    );\n\n    /**\n        @dev this event is emmited when user closes his/her sale order\n        @param saleId This is the sale Id of the sale order \n        @param creationDate This is the date when the event took place \n        @param remainingBalance This is the amount that was remaining from the partially fulfilled orders\n     */\n    event OrderClose(\n        uint256 saleId,\n        uint256 creationDate,\n        uint256 remainingBalance\n    );\n\n    mapping(uint256 => Order) orderBook;\n    uint256 orderId = 0;\n\n    constructor() {\n        OWNER = msg.sender;\n    }\n\n    /**\n     * @dev Modifier to check that the person who accesses a specific function is the owner of contract himself.\n     */\n    modifier ownerOnly() {\n        require(msg.sender == OWNER, \"You are not authorized for this action\");\n        _;\n    }\n\n    /**\n     * @dev This function sets the treasury Contract address\n     */\n    function setTreasuryContractAddress(address newTreasuryContractAddress)\n        public\n        ownerOnly\n    {\n        TREASURY_CONTRACT_ADDRESS = newTreasuryContractAddress;\n    }\n\n    //safeTransferFrom\n\n    /**\n     * @dev This function is called to create a new saleOrder\n     */\n    function createBuyOrder(\n        bool isLockedInRatio,\n        uint256 recordId,\n        uint256 communityTokenId,\n        uint256 communityTokenAmount,\n        uint256 communityTokenPrice,\n        uint256 governanceTokenId,\n        uint256 governanceTokenAmount,\n        uint256 governanceTokenPrice\n    ) public returns (uint256 saleOrderId) {\n        TreasuryContract treasuryContract = TreasuryContract(\n            TREASURY_CONTRACT_ADDRESS\n        );\n\n        require(\n            treasuryContract.getCommunityTokenId(recordId) == communityTokenId,\n            \"Invalid community token id\"\n        );\n        require(\n            treasuryContract.getGovernanceTokenId(recordId) ==\n                governanceTokenId,\n            \"Invalid governance token id\"\n        );\n\n        if (isLockedInRatio) {\n            require(\n                communityTokenAmount > 0,\n                \"You cannot have 0 community token amount\"\n            );\n\n            require(\n                governanceTokenAmount > 0,\n                \"You cannot have 0 governance token amount\"\n            );\n        }\n\n        //Calculate the total CRD required for the deal and then transfer them\n        uint256[2] memory tokenTotal;\n        tokenTotal[0] = governanceTokenAmount * governanceTokenPrice;\n        tokenTotal[1] = communityTokenAmount * communityTokenPrice;\n\n        //Transferring the CRD token into contract to lock it\n        treasuryContract.safeTransferFrom(\n            tx.origin,\n            address(this),\n            treasuryContract.CRD(),\n            tokenTotal[1] + tokenTotal[0],\n            \"Sale order\"\n        );\n\n        uint256 newOrderId = orderId;\n        orderId++;\n\n        Order memory order = Order({\n            isClosed: false,\n            buyer: tx.origin,\n            isLockedInRatio: isLockedInRatio,\n            creationDate: block.timestamp,\n            communityTokenId: communityTokenId,\n            communityTokenAmount: communityTokenAmount,\n            communityTokenPrice: communityTokenPrice,\n            governanceTokenId: governanceTokenId,\n            governanceTokenAmount: governanceTokenAmount,\n            governanceTokenPrice: governanceTokenPrice,\n            crdBalance: tokenTotal[0] + tokenTotal[1]\n        });\n\n        orderBook[orderId] = order;\n\n        emit BuyOrder({\n            saleId: orderId,\n            buyer: order.buyer,\n            isLockedInRatio: isLockedInRatio,\n            creationDate: order.creationDate,\n            communityTokenId: communityTokenId,\n            communityTokenAmount: communityTokenAmount,\n            communityTokenPrice: communityTokenPrice,\n            governanceTokenId: governanceTokenId,\n            governanceTokenAmount: governanceTokenAmount,\n            governanceTokenPrice: governanceTokenPrice,\n            crdBalance: tokenTotal[0] + tokenTotal[1]\n        });\n\n        return newOrderId;\n    }\n\n    /**\n     * @dev This function is called to cancel the existing sale order\n     */\n    function cancelBuyOrder(uint256 saleId) public {\n        require(\n            orderBook[orderId].buyer == msg.sender,\n            \"you are unauthorized for this action\"\n        );\n\n        require(orderBook[orderId].isClosed == false, \"Is already closed\");\n\n        Order memory order = orderBook[orderId];\n\n        TreasuryContract treasuryContract = TreasuryContract(\n            TREASURY_CONTRACT_ADDRESS\n        );\n\n        //--- Need to have additional checks for balance of the sale and also to deduct the tokens from the sale struct\n        //Send back the remaining amount to user\n        treasuryContract.safeTransferFrom(\n            address(this),\n            order.buyer,\n            treasuryContract.CRD(),\n            order.crdBalance,\n            \"Sale order canceled\"\n        );\n\n        orderBook[orderId].isClosed = true;\n\n        emit OrderClose({\n            saleId: saleId,\n            creationDate: block.timestamp,\n            remainingBalance: order.crdBalance\n        });\n    }\n\n    event DEBUG(\n        uint256 amount,\n        uint256 fees,\n        uint256 totalCRD,\n        uint256 otherTest\n    );\n\n    /**\n     * @dev This function is called to accept the existing buy order\n     */\n    function acceptBuyOrder(\n        uint256 saleId,\n        uint256 governanceTokenAmount,\n        uint256 communityTokenAmount\n    ) public {\n        require(\n            orderBook[orderId].buyer != msg.sender,\n            \"you cannot purchase your own tokens\"\n        );\n\n        require(orderBook[orderId].isClosed == false, \"Is already closed\");\n\n        Order storage order = orderBook[orderId];\n\n        //This will check if the amount to purchase is less or equal than the order that is generated\n        require(\n            order.communityTokenAmount >= communityTokenAmount,\n            \"Community token amount is insufficient\"\n        );\n        require(\n            order.governanceTokenAmount >= governanceTokenAmount,\n            \"Governance token amount is insufficient\"\n        );\n\n        if (order.isLockedInRatio) {\n            //Multiply bigger value to make sure that we have proper ratio.\n            //As if we don't do that then something like 3/2 and 5/4 will be considers same and they will result in a false positive\n            if (order.communityTokenAmount > order.governanceTokenAmount) {\n                require(\n                    SafeMath.div(\n                        communityTokenAmount * 100,\n                        governanceTokenAmount,\n                        \"Invalid Ratio\"\n                    ) ==\n                        SafeMath.div(\n                            order.communityTokenAmount * 100,\n                            order.governanceTokenAmount,\n                            \"Invalid Ratio\"\n                        ),\n                    \"Invalid Ratio\"\n                );\n            } else {\n                require(\n                    SafeMath.div(\n                        governanceTokenAmount * 100,\n                        communityTokenAmount,\n                        \"Invalid Ratio\"\n                    ) ==\n                        SafeMath.div(\n                            order.governanceTokenAmount * 100,\n                            order.communityTokenAmount,\n                            \"Invalid Ratio\"\n                        ),\n                    \"Invalid Ratio\"\n                );\n            }\n        }\n\n        uint256 amount = 0;\n        uint256 fees = 0;\n        if (order.communityTokenAmount > 0) {\n            (\n                uint256 cost,\n                uint256 platformFees\n            ) = _transferTokensAndTransactionCharge(\n                    communityTokenAmount,\n                    order.communityTokenPrice,\n                    order.communityTokenId,\n                    order.buyer\n                );\n            amount = amount + cost;\n            fees = fees + platformFees;\n        }\n\n        if (order.governanceTokenAmount > 0) {\n            (\n                uint256 cost,\n                uint256 platformFees\n            ) = _transferTokensAndTransactionCharge(\n                    governanceTokenAmount,\n                    order.governanceTokenPrice,\n                    order.governanceTokenId,\n                    order.buyer\n                );\n            amount = amount + cost;\n            fees = fees + platformFees;\n        }\n\n        emit SaleBought({\n            saleId: saleId,\n            seller: order.buyer,\n            buyer: msg.sender,\n            creationDate: block.timestamp,\n            communityTokenId: order.communityTokenId,\n            communityTokenAmount: communityTokenAmount,\n            communityTokenPrice: order.communityTokenPrice,\n            governanceTokenId: order.governanceTokenId,\n            governanceTokenAmount: governanceTokenAmount,\n            governanceTokenPrice: order.governanceTokenPrice,\n            amountTransferred: amount + fees,\n            platformFees: fees\n        });\n\n        order.communityTokenAmount =\n            order.communityTokenAmount -\n            communityTokenAmount;\n\n        order.governanceTokenAmount =\n            order.governanceTokenAmount -\n            governanceTokenAmount;\n\n        order.crdBalance = order.crdBalance - amount - fees;\n\n        if (\n            order.communityTokenAmount == 0 && order.governanceTokenAmount == 0\n        ) {\n            order.isClosed = true;\n            emit OrderClose({\n                saleId: saleId,\n                creationDate: block.timestamp,\n                remainingBalance: 0\n            });\n        }\n    }\n\n    /// @notice This is only for internal use\n    /// @dev This function is responsible to transfer the tokens at the time of purchase and it is also responsible for transfering the fees.\n    /// @param tokenAmount This is the amount of token to transfer\n    /// @param tokenPrice This is the token price at which the tokens are being sold at\n    /// @param tokenId this is the ID of the token to transfer\n    function _transferTokensAndTransactionCharge(\n        uint256 tokenAmount,\n        uint256 tokenPrice,\n        uint256 tokenId,\n        address receiver\n    ) internal returns (uint256 totalCost, uint256 totalFee) {\n        ///Change the function so that it will transfer the community and governance tokens from the sellers account to buyer account\n        //then it would transfer the CRD tokens from contract account to sellers account after deducting the transaction fees.\n\n        uint256 transactionAmount = (tokenAmount * tokenPrice);\n        uint256 transactionFee = (transactionAmount * TRANSACTION_FEE) / 10000;\n        //Removing the transaction fee from the transaction amount\n        transactionAmount = transactionAmount - transactionFee;\n\n        TreasuryContract treasuryContract = TreasuryContract(\n            TREASURY_CONTRACT_ADDRESS\n        );\n        //* Where to shift the transaction fees\n        // treasuryContract.safeTransferFrom(\n        //     msg.sender,\n        //     address(this),\n        //     treasuryContract.CRD(),\n        //     transactionFee,\n        //     \"Sale transaction fee\"\n        // );\n\n        treasuryContract.safeTransferFrom(\n            address(this),\n            msg.sender,\n            treasuryContract.CRD(),\n            transactionAmount,\n            \"Sale token price amount transfer to seller\"\n        );\n\n        treasuryContract.safeTransferFrom(\n            msg.sender,\n            receiver,\n            tokenId,\n            tokenAmount,\n            \"Sale token transfer to buyer\"\n        );\n\n        return (transactionAmount, transactionFee);\n    }\n\n    /**\n    Below code are for transfer of tokens from ERC1155 standard contract\n     */\n    function onERC1155Received(\n        address,\n        address,\n        uint256,\n        uint256,\n        bytes memory\n    ) public virtual returns (bytes4) {\n        return this.onERC1155Received.selector;\n    }\n\n    function onERC1155BatchReceived(\n        address,\n        address,\n        uint256[] memory,\n        uint256[] memory,\n        bytes memory\n    ) public virtual returns (bytes4) {\n        return this.onERC1155BatchReceived.selector;\n    }\n\n    function onERC721Received(\n        address,\n        address,\n        uint256,\n        bytes memory\n    ) public virtual returns (bytes4) {\n        return this.onERC721Received.selector;\n    }\n}\n",
  "sourcePath": "/Users/a1/Desktop/Office/projects/CrowdRecords/Contracts/contracts/OrdersContract.sol",
  "compiler": {
    "name": "solc",
    "version": "0.8.12+commit.f00d7308.Emscripten.clang"
  },
  "schemaVersion": "3.4.6",
  "updatedAt": "2022-07-17T12:21:35.144Z",
  "devdoc": {
    "events": {
      "BuyOrder(uint256,address,bool,uint256,uint256,uint256,uint256,uint256,uint256,uint256,uint256)": {
        "details": "this is event which is created when a user creates order to sell his tokens",
        "params": {
          "buyer": "this is the address of the owner or the Buy order",
          "communityTokenAmount": "this is the community token amount for Buy order",
          "communityTokenId": "this is the community token id that is involved in the Buy order",
          "communityTokenPrice": "this is the price of single token",
          "crdBalance": "this is the total balance remaining for the order",
          "creationDate": "this is the creation date of the Buy order",
          "governanceTokenAmount": "this is the community token amount for Buy order",
          "governanceTokenId": "this is the community token id that is involved in the Buy order",
          "governanceTokenPrice": "this is the price of single token",
          "isLockedInRatio": "the is denotes wether the user wants to sell the token individually or in a ratio",
          "saleId": "this is the Id of the Buy order"
        }
      },
      "OrderClose(uint256,uint256,uint256)": {
        "details": "this event is emmited when user closes his/her sale order",
        "params": {
          "creationDate": "This is the date when the event took place ",
          "remainingBalance": "This is the amount that was remaining from the partially fulfilled orders",
          "saleId": "This is the sale Id of the sale order "
        }
      },
      "SaleBought(uint256,address,address,uint256,uint256,uint256,uint256,uint256,uint256,uint256,uint256,uint256)": {
        "details": "this is event which is created when a user purchases any sale order",
        "params": {
          "amountTransferred": "this is the total amount paid",
          "buyer": "this is the address of the owner or the sale order",
          "communityTokenAmount": "this is the community token amount for sale",
          "communityTokenId": "this is the community token id that is involved in the sale",
          "communityTokenPrice": "this is the price of single token",
          "creationDate": "this is the date when tokens were purchased",
          "governanceTokenAmount": "this is the community token amount for sale",
          "governanceTokenId": "this is the community token id that is involved in the sale",
          "governanceTokenPrice": "this is the price of single token",
          "platformFees": "this is the platform fees taken by crowdrecords",
          "saleId": "this is the Id of the sale order",
          "seller": "this is the address of the person who sold the tokens in exchange for the crd"
        }
      }
    },
    "kind": "dev",
    "methods": {
      "acceptBuyOrder(uint256,uint256,uint256)": {
        "details": "This function is called to accept the existing buy order"
      },
      "cancelBuyOrder(uint256)": {
        "details": "This function is called to cancel the existing sale order"
      },
      "createBuyOrder(bool,uint256,uint256,uint256,uint256,uint256,uint256,uint256)": {
        "details": "This function is called to create a new saleOrder"
      },
      "setTreasuryContractAddress(address)": {
        "details": "This function sets the treasury Contract address"
      }
    },
    "version": 1
  },
  "userdoc": {
    "kind": "user",
    "methods": {
      "onERC1155Received(address,address,uint256,uint256,bytes)": {
        "notice": "Below code are for transfer of tokens from ERC1155 standard contract"
      }
    },
    "version": 1
  }
}