{
  "contractName": "OrdersContract",
  "abi": [
    {
      "inputs": [
        {
          "internalType": "address",
          "name": "owner",
          "type": "address"
        }
      ],
      "stateMutability": "nonpayable",
      "type": "constructor"
    },
    {
      "anonymous": false,
      "inputs": [
        {
          "indexed": false,
          "internalType": "uint256",
          "name": "saleId",
          "type": "uint256"
        },
        {
          "indexed": false,
          "internalType": "address",
          "name": "buyer",
          "type": "address"
        },
        {
          "indexed": false,
          "internalType": "bool",
          "name": "isLockedInRatio",
          "type": "bool"
        },
        {
          "indexed": false,
          "internalType": "uint256",
          "name": "creationDate",
          "type": "uint256"
        },
        {
          "indexed": false,
          "internalType": "uint256",
          "name": "communityTokenId",
          "type": "uint256"
        },
        {
          "indexed": false,
          "internalType": "uint256",
          "name": "communityTokenAmount",
          "type": "uint256"
        },
        {
          "indexed": false,
          "internalType": "uint256",
          "name": "communityTokenPrice",
          "type": "uint256"
        },
        {
          "indexed": false,
          "internalType": "uint256",
          "name": "governanceTokenId",
          "type": "uint256"
        },
        {
          "indexed": false,
          "internalType": "uint256",
          "name": "governanceTokenAmount",
          "type": "uint256"
        },
        {
          "indexed": false,
          "internalType": "uint256",
          "name": "governanceTokenPrice",
          "type": "uint256"
        },
        {
          "indexed": false,
          "internalType": "uint256",
          "name": "crdBalance",
          "type": "uint256"
        }
      ],
      "name": "BuyOrder",
      "type": "event"
    },
    {
      "anonymous": false,
      "inputs": [
        {
          "indexed": false,
          "internalType": "uint256",
          "name": "amount",
          "type": "uint256"
        },
        {
          "indexed": false,
          "internalType": "uint256",
          "name": "fees",
          "type": "uint256"
        },
        {
          "indexed": false,
          "internalType": "uint256",
          "name": "totalCRD",
          "type": "uint256"
        },
        {
          "indexed": false,
          "internalType": "uint256",
          "name": "otherTest",
          "type": "uint256"
        }
      ],
      "name": "DEBUG",
      "type": "event"
    },
    {
      "anonymous": false,
      "inputs": [
        {
          "indexed": false,
          "internalType": "uint256",
          "name": "saleId",
          "type": "uint256"
        },
        {
          "indexed": false,
          "internalType": "uint256",
          "name": "creationDate",
          "type": "uint256"
        },
        {
          "indexed": false,
          "internalType": "uint256",
          "name": "remainingBalance",
          "type": "uint256"
        }
      ],
      "name": "OrderClose",
      "type": "event"
    },
    {
      "anonymous": false,
      "inputs": [
        {
          "indexed": false,
          "internalType": "uint256",
          "name": "saleId",
          "type": "uint256"
        },
        {
          "indexed": false,
          "internalType": "address",
          "name": "seller",
          "type": "address"
        },
        {
          "indexed": false,
          "internalType": "address",
          "name": "buyer",
          "type": "address"
        },
        {
          "indexed": false,
          "internalType": "uint256",
          "name": "creationDate",
          "type": "uint256"
        },
        {
          "indexed": false,
          "internalType": "uint256",
          "name": "communityTokenId",
          "type": "uint256"
        },
        {
          "indexed": false,
          "internalType": "uint256",
          "name": "communityTokenAmount",
          "type": "uint256"
        },
        {
          "indexed": false,
          "internalType": "uint256",
          "name": "communityTokenPrice",
          "type": "uint256"
        },
        {
          "indexed": false,
          "internalType": "uint256",
          "name": "governanceTokenId",
          "type": "uint256"
        },
        {
          "indexed": false,
          "internalType": "uint256",
          "name": "governanceTokenAmount",
          "type": "uint256"
        },
        {
          "indexed": false,
          "internalType": "uint256",
          "name": "governanceTokenPrice",
          "type": "uint256"
        },
        {
          "indexed": false,
          "internalType": "uint256",
          "name": "amountTransferred",
          "type": "uint256"
        },
        {
          "indexed": false,
          "internalType": "uint256",
          "name": "platformFees",
          "type": "uint256"
        }
      ],
      "name": "SaleBought",
      "type": "event"
    },
    {
      "inputs": [],
      "name": "RECORDS_CONTRACT_ADDRESS",
      "outputs": [
        {
          "internalType": "address",
          "name": "",
          "type": "address"
        }
      ],
      "stateMutability": "view",
      "type": "function",
      "constant": true
    },
    {
      "inputs": [],
      "name": "TREASURY_CONTRACT_ADDRESS",
      "outputs": [
        {
          "internalType": "address",
          "name": "",
          "type": "address"
        }
      ],
      "stateMutability": "view",
      "type": "function",
      "constant": true
    },
    {
      "inputs": [],
      "name": "VOTING_CONTRACT_ADDRESS",
      "outputs": [
        {
          "internalType": "address",
          "name": "",
          "type": "address"
        }
      ],
      "stateMutability": "view",
      "type": "function",
      "constant": true
    },
    {
      "inputs": [],
      "name": "WALLET_ADDRESS",
      "outputs": [
        {
          "internalType": "address",
          "name": "",
          "type": "address"
        }
      ],
      "stateMutability": "view",
      "type": "function",
      "constant": true
    },
    {
      "inputs": [
        {
          "internalType": "address",
          "name": "owner",
          "type": "address"
        }
      ],
      "name": "setOwner",
      "outputs": [],
      "stateMutability": "nonpayable",
      "type": "function"
    },
    {
      "inputs": [
        {
          "internalType": "address",
          "name": "newTreasuryContractAddress",
          "type": "address"
        }
      ],
      "name": "setTreasuryContractAddress",
      "outputs": [],
      "stateMutability": "nonpayable",
      "type": "function"
    },
    {
      "inputs": [
        {
          "internalType": "address",
          "name": "newWalletAddress",
          "type": "address"
        }
      ],
      "name": "setWalletAddress",
      "outputs": [],
      "stateMutability": "nonpayable",
      "type": "function"
    },
    {
      "inputs": [
        {
          "internalType": "bool",
          "name": "isLockedInRatio",
          "type": "bool"
        },
        {
          "internalType": "uint256",
          "name": "recordId",
          "type": "uint256"
        },
        {
          "internalType": "uint256",
          "name": "communityTokenId",
          "type": "uint256"
        },
        {
          "internalType": "uint256",
          "name": "communityTokenAmount",
          "type": "uint256"
        },
        {
          "internalType": "uint256",
          "name": "communityTokenPrice",
          "type": "uint256"
        },
        {
          "internalType": "uint256",
          "name": "governanceTokenId",
          "type": "uint256"
        },
        {
          "internalType": "uint256",
          "name": "governanceTokenAmount",
          "type": "uint256"
        },
        {
          "internalType": "uint256",
          "name": "governanceTokenPrice",
          "type": "uint256"
        }
      ],
      "name": "createBuyOrder",
      "outputs": [
        {
          "internalType": "uint256",
          "name": "saleOrderId",
          "type": "uint256"
        }
      ],
      "stateMutability": "nonpayable",
      "type": "function"
    },
    {
      "inputs": [
        {
          "internalType": "uint256",
          "name": "saleId",
          "type": "uint256"
        }
      ],
      "name": "cancelBuyOrder",
      "outputs": [],
      "stateMutability": "nonpayable",
      "type": "function"
    },
    {
      "inputs": [
        {
          "internalType": "uint256",
          "name": "saleId",
          "type": "uint256"
        },
        {
          "internalType": "uint256",
          "name": "governanceTokenAmount",
          "type": "uint256"
        },
        {
          "internalType": "uint256",
          "name": "communityTokenAmount",
          "type": "uint256"
        }
      ],
      "name": "acceptBuyOrder",
      "outputs": [],
      "stateMutability": "nonpayable",
      "type": "function"
    },
    {
      "inputs": [
        {
          "internalType": "address",
          "name": "",
          "type": "address"
        },
        {
          "internalType": "address",
          "name": "",
          "type": "address"
        },
        {
          "internalType": "uint256",
          "name": "",
          "type": "uint256"
        },
        {
          "internalType": "uint256",
          "name": "",
          "type": "uint256"
        },
        {
          "internalType": "bytes",
          "name": "",
          "type": "bytes"
        }
      ],
      "name": "onERC1155Received",
      "outputs": [
        {
          "internalType": "bytes4",
          "name": "",
          "type": "bytes4"
        }
      ],
      "stateMutability": "nonpayable",
      "type": "function"
    },
    {
      "inputs": [
        {
          "internalType": "address",
          "name": "",
          "type": "address"
        },
        {
          "internalType": "address",
          "name": "",
          "type": "address"
        },
        {
          "internalType": "uint256[]",
          "name": "",
          "type": "uint256[]"
        },
        {
          "internalType": "uint256[]",
          "name": "",
          "type": "uint256[]"
        },
        {
          "internalType": "bytes",
          "name": "",
          "type": "bytes"
        }
      ],
      "name": "onERC1155BatchReceived",
      "outputs": [
        {
          "internalType": "bytes4",
          "name": "",
          "type": "bytes4"
        }
      ],
      "stateMutability": "nonpayable",
      "type": "function"
    },
    {
      "inputs": [
        {
          "internalType": "address",
          "name": "",
          "type": "address"
        },
        {
          "internalType": "address",
          "name": "",
          "type": "address"
        },
        {
          "internalType": "uint256",
          "name": "",
          "type": "uint256"
        },
        {
          "internalType": "bytes",
          "name": "",
          "type": "bytes"
        }
      ],
      "name": "onERC721Received",
      "outputs": [
        {
          "internalType": "bytes4",
          "name": "",
          "type": "bytes4"
        }
      ],
      "stateMutability": "nonpayable",
      "type": "function"
    }
  ],
  "bytecode": "0x60806040526032600360146101000a81548160ff021916908360ff16021790555060006006553480156200003257600080fd5b5060405162002f3438038062002f3483398181016040528101906200005891906200010a565b80600460006101000a81548173ffffffffffffffffffffffffffffffffffffffff021916908373ffffffffffffffffffffffffffffffffffffffff160217905550506200013c565b600080fd5b600073ffffffffffffffffffffffffffffffffffffffff82169050919050565b6000620000d282620000a5565b9050919050565b620000e481620000c5565b8114620000f057600080fd5b50565b6000815190506200010481620000d9565b92915050565b600060208284031215620001235762000122620000a0565b5b60006200013384828501620000f3565b91505092915050565b612de8806200014c6000396000f3fe608060405234801561001057600080fd5b50600436106100cf5760003560e01c8063ac1a386a1161008c578063bc197c8111610066578063bc197c81146101ec578063be5d147f1461021c578063ef2d225f14610238578063f23a6e6114610268576100cf565b8063ac1a386a14610194578063acb31493146101b0578063ba19a675146101ce576100cf565b806313af4035146100d4578063150b7a02146100f05780634cf2d48f14610120578063659d45eb1461013c57806381e6cde51461015a5780638fc3b64714610176575b600080fd5b6100ee60048036038101906100e99190611929565b610298565b005b61010a60048036038101906101059190611ad2565b61036c565b6040516101179190611b90565b60405180910390f35b61013a60048036038101906101359190611929565b610380565b005b610144610454565b6040516101519190611bba565b60405180910390f35b610174600480360381019061016f9190611bd5565b61047a565b005b61017e610a59565b60405161018b9190611bba565b60405180910390f35b6101ae60048036038101906101a99190611929565b610a7f565b005b6101b8610b53565b6040516101c59190611bba565b60405180910390f35b6101d6610b79565b6040516101e39190611bba565b60405180910390f35b61020660048036038101906102019190611cf0565b610b9d565b6040516102139190611b90565b60405180910390f35b61023660048036038101906102319190611dbf565b610bb2565b005b610252600480360381019061024d9190611e24565b610f4a565b60405161025f9190611ee9565b60405180910390f35b610282600480360381019061027d9190611f04565b611544565b60405161028f9190611b90565b60405180910390f35b600460009054906101000a900473ffffffffffffffffffffffffffffffffffffffff1673ffffffffffffffffffffffffffffffffffffffff163373ffffffffffffffffffffffffffffffffffffffff1614610328576040517f08c379a000000000000000000000000000000000000000000000000000000000815260040161031f9061201e565b60405180910390fd5b80600460006101000a81548173ffffffffffffffffffffffffffffffffffffffff021916908373ffffffffffffffffffffffffffffffffffffffff16021790555050565b600063150b7a0260e01b9050949350505050565b600460009054906101000a900473ffffffffffffffffffffffffffffffffffffffff1673ffffffffffffffffffffffffffffffffffffffff163373ffffffffffffffffffffffffffffffffffffffff1614610410576040517f08c379a00000000000000000000000000000000000000000000000000000000081526004016104079061201e565b60405180910390fd5b80600260006101000a81548173ffffffffffffffffffffffffffffffffffffffff021916908373ffffffffffffffffffffffffffffffffffffffff16021790555050565b600160009054906101000a900473ffffffffffffffffffffffffffffffffffffffff1681565b3373ffffffffffffffffffffffffffffffffffffffff1660056000600654815260200190815260200160002060000160029054906101000a900473ffffffffffffffffffffffffffffffffffffffff1673ffffffffffffffffffffffffffffffffffffffff161415610521576040517f08c379a0000000000000000000000000000000000000000000000000000000008152600401610518906120b0565b60405180910390fd5b6000151560056000600654815260200190815260200160002060000160009054906101000a900460ff1615151461058d576040517f08c379a00000000000000000000000000000000000000000000000000000000081526004016105849061211c565b60405180910390fd5b6000600560006006548152602001908152602001600020905081816003015410156105ed576040517f08c379a00000000000000000000000000000000000000000000000000000000081526004016105e4906121ae565b60405180910390fd5b8281600601541015610634576040517f08c379a000000000000000000000000000000000000000000000000000000000815260040161062b90612240565b60405180910390fd5b8060000160019054906101000a900460ff161561082257806006015481600301541115610740576106af6064826003015461066f919061228f565b82600601546040518060400160405280600d81526020017f496e76616c696420526174696f00000000000000000000000000000000000000815250611559565b6106fb6064846106bf919061228f565b856040518060400160405280600d81526020017f496e76616c696420526174696f00000000000000000000000000000000000000815250611559565b1461073b576040517f08c379a000000000000000000000000000000000000000000000000000000000815260040161073290612335565b60405180910390fd5b610821565b61079460648260060154610754919061228f565b82600301546040518060400160405280600d81526020017f496e76616c696420526174696f00000000000000000000000000000000000000815250611559565b6107e06064856107a4919061228f565b846040518060400160405280600d81526020017f496e76616c696420526174696f00000000000000000000000000000000000000815250611559565b14610820576040517f08c379a000000000000000000000000000000000000000000000000000000000815260040161081790612335565b60405180910390fd5b5b5b6000806000836003015411156108905760008061086d86866004015487600201548860000160029054906101000a900473ffffffffffffffffffffffffffffffffffffffff166115bb565b91509150818461087d9190612355565b9350808361088b9190612355565b925050505b6000836006015411156108fb576000806108d887866007015487600501548860000160029054906101000a900473ffffffffffffffffffffffffffffffffffffffff166115bb565b9150915081846108e89190612355565b935080836108f69190612355565b925050505b7f249b7ebd7d5ac609b663ac9ccaa3fcc5fc187ce3d76fb95d9064a788ffeba078868460000160029054906101000a900473ffffffffffffffffffffffffffffffffffffffff16334287600201548989600401548a600501548d8c600701548b8d6109669190612355565b8c60405161097f9c9b9a999897969594939291906123ab565b60405180910390a18383600301546109979190612465565b83600301819055508483600601546109af9190612465565b8360060181905550808284600801546109c89190612465565b6109d29190612465565b8360080181905550600083600301541480156109f2575060008360060154145b15610a515760018360000160006101000a81548160ff0219169083151502179055507f9b59e95c56cf432066ac010b6aa1d35e53f427d886a20c2a9c307b776768b1e586426000604051610a48939291906124de565b60405180910390a15b505050505050565b600360009054906101000a900473ffffffffffffffffffffffffffffffffffffffff1681565b600460009054906101000a900473ffffffffffffffffffffffffffffffffffffffff1673ffffffffffffffffffffffffffffffffffffffff163373ffffffffffffffffffffffffffffffffffffffff1614610b0f576040517f08c379a0000000000000000000000000000000000000000000000000000000008152600401610b069061201e565b60405180910390fd5b80600360006101000a81548173ffffffffffffffffffffffffffffffffffffffff021916908373ffffffffffffffffffffffffffffffffffffffff16021790555050565b600260009054906101000a900473ffffffffffffffffffffffffffffffffffffffff1681565b60008054906101000a900473ffffffffffffffffffffffffffffffffffffffff1681565b600063bc197c8160e01b905095945050505050565b3373ffffffffffffffffffffffffffffffffffffffff1660056000600654815260200190815260200160002060000160029054906101000a900473ffffffffffffffffffffffffffffffffffffffff1673ffffffffffffffffffffffffffffffffffffffff1614610c58576040517f08c379a0000000000000000000000000000000000000000000000000000000008152600401610c4f90612587565b60405180910390fd5b6000151560056000600654815260200190815260200160002060000160009054906101000a900460ff16151514610cc4576040517f08c379a0000000000000000000000000000000000000000000000000000000008152600401610cbb9061211c565b60405180910390fd5b6000600560006006548152602001908152602001600020604051806101600160405290816000820160009054906101000a900460ff161515151581526020016000820160019054906101000a900460ff161515151581526020016000820160029054906101000a900473ffffffffffffffffffffffffffffffffffffffff1673ffffffffffffffffffffffffffffffffffffffff1673ffffffffffffffffffffffffffffffffffffffff1681526020016001820154815260200160028201548152602001600382015481526020016004820154815260200160058201548152602001600682015481526020016007820154815260200160088201548152505090506000600260009054906101000a900473ffffffffffffffffffffffffffffffffffffffff1690508073ffffffffffffffffffffffffffffffffffffffff1663f242432a3084604001518473ffffffffffffffffffffffffffffffffffffffff1663e6acd9b86040518163ffffffff1660e01b8152600401602060405180830381865afa158015610e59573d6000803e3d6000fd5b505050506040513d601f19601f82011682018060405250810190610e7d91906125bc565b8661014001516040518563ffffffff1660e01b8152600401610ea29493929190612646565b600060405180830381600087803b158015610ebc57600080fd5b505af1158015610ed0573d6000803e3d6000fd5b50505050600160056000600654815260200190815260200160002060000160006101000a81548160ff0219169083151502179055507f9b59e95c56cf432066ac010b6aa1d35e53f427d886a20c2a9c307b776768b1e58342846101400151604051610f3d9392919061269e565b60405180910390a1505050565b600080600260009054906101000a900473ffffffffffffffffffffffffffffffffffffffff169050878173ffffffffffffffffffffffffffffffffffffffff16632d4a03828b6040518263ffffffff1660e01b8152600401610fac9190611ee9565b602060405180830381865afa158015610fc9573d6000803e3d6000fd5b505050506040513d601f19601f82011682018060405250810190610fed91906125bc565b1461102d576040517f08c379a000000000000000000000000000000000000000000000000000000000815260040161102490612721565b60405180910390fd5b848173ffffffffffffffffffffffffffffffffffffffff1663d6ca40a78b6040518263ffffffff1660e01b81526004016110679190611ee9565b602060405180830381865afa158015611084573d6000803e3d6000fd5b505050506040513d601f19601f820116820180604052508101906110a891906125bc565b146110e8576040517f08c379a00000000000000000000000000000000000000000000000000000000081526004016110df9061278d565b60405180910390fd5b89156111755760008711611131576040517f08c379a00000000000000000000000000000000000000000000000000000000081526004016111289061281f565b60405180910390fd5b60008411611174576040517f08c379a000000000000000000000000000000000000000000000000000000000815260040161116b906128b1565b60405180910390fd5b5b61117d611895565b8385611189919061228f565b8160006002811061119d5761119c6128d1565b5b60200201818152505086886111b2919061228f565b816001600281106111c6576111c56128d1565b5b6020020181815250508173ffffffffffffffffffffffffffffffffffffffff1663f242432a32308573ffffffffffffffffffffffffffffffffffffffff1663e6acd9b86040518163ffffffff1660e01b8152600401602060405180830381865afa158015611238573d6000803e3d6000fd5b505050506040513d601f19601f8201168201806040525081019061125c91906125bc565b856000600281106112705761126f6128d1565b5b602002015186600160028110611289576112886128d1565b5b60200201516112989190612355565b6040518563ffffffff1660e01b81526004016112b7949392919061294c565b600060405180830381600087803b1580156112d157600080fd5b505af11580156112e5573d6000803e3d6000fd5b505050506000600654905060066000815480929190611303906129a4565b919050555060006040518061016001604052806000151581526020018e151581526020013273ffffffffffffffffffffffffffffffffffffffff1681526020014281526020018c81526020018b81526020018a815260200189815260200188815260200187815260200184600160028110611381576113806128d1565b5b60200201518560006002811061139a576113996128d1565b5b60200201516113a99190612355565b81525090508060056000600654815260200190815260200160002060008201518160000160006101000a81548160ff02191690831515021790555060208201518160000160016101000a81548160ff02191690831515021790555060408201518160000160026101000a81548173ffffffffffffffffffffffffffffffffffffffff021916908373ffffffffffffffffffffffffffffffffffffffff160217905550606082015181600101556080820151816002015560a0820151816003015560c0820151816004015560e082015181600501556101008201518160060155610120820151816007015561014082015181600801559050507ffaa6ea7690fa3b58a9cfc7064f065f7d0aab5a65f26e58acaa53da7a7e3e6ac660065482604001518f84606001518f8f8f8f8f8f8d6001600281106114ea576114e96128d1565b5b60200201518e600060028110611503576115026128d1565b5b60200201516115129190612355565b6040516115299b9a999897969594939291906129fc565b60405180910390a18194505050505098975050505050505050565b600063f23a6e6160e01b905095945050505050565b600080831182906115a0576040517f08c379a00000000000000000000000000000000000000000000000000000000081526004016115979190612b1e565b60405180910390fd5b508284816115b1576115b0612b40565b5b0490509392505050565b600080600085876115cc919061228f565b90506000612710600360149054906101000a900460ff1660ff16836115f1919061228f565b6115fb9190612b6f565b905080826116099190612465565b91506000600260009054906101000a900473ffffffffffffffffffffffffffffffffffffffff1690508073ffffffffffffffffffffffffffffffffffffffff1663f242432a33600360009054906101000a900473ffffffffffffffffffffffffffffffffffffffff168473ffffffffffffffffffffffffffffffffffffffff1663e6acd9b86040518163ffffffff1660e01b8152600401602060405180830381865afa1580156116bd573d6000803e3d6000fd5b505050506040513d601f19601f820116820180604052508101906116e191906125bc565b866040518563ffffffff1660e01b81526004016117019493929190612bec565b600060405180830381600087803b15801561171b57600080fd5b505af115801561172f573d6000803e3d6000fd5b505050508073ffffffffffffffffffffffffffffffffffffffff1663f242432a30338473ffffffffffffffffffffffffffffffffffffffff1663e6acd9b86040518163ffffffff1660e01b8152600401602060405180830381865afa15801561179c573d6000803e3d6000fd5b505050506040513d601f19601f820116820180604052508101906117c091906125bc565b876040518563ffffffff1660e01b81526004016117e09493929190612cb6565b600060405180830381600087803b1580156117fa57600080fd5b505af115801561180e573d6000803e3d6000fd5b505050508073ffffffffffffffffffffffffffffffffffffffff1663f242432a33888a8d6040518563ffffffff1660e01b81526004016118519493929190612d5a565b600060405180830381600087803b15801561186b57600080fd5b505af115801561187f573d6000803e3d6000fd5b5050505082829450945050505094509492505050565b6040518060400160405280600290602082028036833780820191505090505090565b6000604051905090565b600080fd5b600080fd5b600073ffffffffffffffffffffffffffffffffffffffff82169050919050565b60006118f6826118cb565b9050919050565b611906816118eb565b811461191157600080fd5b50565b600081359050611923816118fd565b92915050565b60006020828403121561193f5761193e6118c1565b5b600061194d84828501611914565b91505092915050565b6000819050919050565b61196981611956565b811461197457600080fd5b50565b60008135905061198681611960565b92915050565b600080fd5b600080fd5b6000601f19601f8301169050919050565b7f4e487b7100000000000000000000000000000000000000000000000000000000600052604160045260246000fd5b6119df82611996565b810181811067ffffffffffffffff821117156119fe576119fd6119a7565b5b80604052505050565b6000611a116118b7565b9050611a1d82826119d6565b919050565b600067ffffffffffffffff821115611a3d57611a3c6119a7565b5b611a4682611996565b9050602081019050919050565b82818337600083830152505050565b6000611a75611a7084611a22565b611a07565b905082815260208101848484011115611a9157611a90611991565b5b611a9c848285611a53565b509392505050565b600082601f830112611ab957611ab861198c565b5b8135611ac9848260208601611a62565b91505092915050565b60008060008060808587031215611aec57611aeb6118c1565b5b6000611afa87828801611914565b9450506020611b0b87828801611914565b9350506040611b1c87828801611977565b925050606085013567ffffffffffffffff811115611b3d57611b3c6118c6565b5b611b4987828801611aa4565b91505092959194509250565b60007fffffffff0000000000000000000000000000000000000000000000000000000082169050919050565b611b8a81611b55565b82525050565b6000602082019050611ba56000830184611b81565b92915050565b611bb4816118eb565b82525050565b6000602082019050611bcf6000830184611bab565b92915050565b600080600060608486031215611bee57611bed6118c1565b5b6000611bfc86828701611977565b9350506020611c0d86828701611977565b9250506040611c1e86828701611977565b9150509250925092565b600067ffffffffffffffff821115611c4357611c426119a7565b5b602082029050602081019050919050565b600080fd5b6000611c6c611c6784611c28565b611a07565b90508083825260208201905060208402830185811115611c8f57611c8e611c54565b5b835b81811015611cb85780611ca48882611977565b845260208401935050602081019050611c91565b5050509392505050565b600082601f830112611cd757611cd661198c565b5b8135611ce7848260208601611c59565b91505092915050565b600080600080600060a08688031215611d0c57611d0b6118c1565b5b6000611d1a88828901611914565b9550506020611d2b88828901611914565b945050604086013567ffffffffffffffff811115611d4c57611d4b6118c6565b5b611d5888828901611cc2565b935050606086013567ffffffffffffffff811115611d7957611d786118c6565b5b611d8588828901611cc2565b925050608086013567ffffffffffffffff811115611da657611da56118c6565b5b611db288828901611aa4565b9150509295509295909350565b600060208284031215611dd557611dd46118c1565b5b6000611de384828501611977565b91505092915050565b60008115159050919050565b611e0181611dec565b8114611e0c57600080fd5b50565b600081359050611e1e81611df8565b92915050565b600080600080600080600080610100898b031215611e4557611e446118c1565b5b6000611e538b828c01611e0f565b9850506020611e648b828c01611977565b9750506040611e758b828c01611977565b9650506060611e868b828c01611977565b9550506080611e978b828c01611977565b94505060a0611ea88b828c01611977565b93505060c0611eb98b828c01611977565b92505060e0611eca8b828c01611977565b9150509295985092959890939650565b611ee381611956565b82525050565b6000602082019050611efe6000830184611eda565b92915050565b600080600080600060a08688031215611f2057611f1f6118c1565b5b6000611f2e88828901611914565b9550506020611f3f88828901611914565b9450506040611f5088828901611977565b9350506060611f6188828901611977565b925050608086013567ffffffffffffffff811115611f8257611f816118c6565b5b611f8e88828901611aa4565b9150509295509295909350565b600082825260208201905092915050565b7f596f7520617265206e6f7420617574686f72697a656420666f7220746869732060008201527f616374696f6e0000000000000000000000000000000000000000000000000000602082015250565b6000612008602683611f9b565b915061201382611fac565b604082019050919050565b6000602082019050818103600083015261203781611ffb565b9050919050565b7f796f752063616e6e6f7420707572636861736520796f7572206f776e20746f6b60008201527f656e730000000000000000000000000000000000000000000000000000000000602082015250565b600061209a602383611f9b565b91506120a58261203e565b604082019050919050565b600060208201905081810360008301526120c98161208d565b9050919050565b7f497320616c726561647920636c6f736564000000000000000000000000000000600082015250565b6000612106601183611f9b565b9150612111826120d0565b602082019050919050565b60006020820190508181036000830152612135816120f9565b9050919050565b7f436f6d6d756e69747920746f6b656e20616d6f756e7420697320696e7375666660008201527f696369656e740000000000000000000000000000000000000000000000000000602082015250565b6000612198602683611f9b565b91506121a38261213c565b604082019050919050565b600060208201905081810360008301526121c78161218b565b9050919050565b7f476f7665726e616e636520746f6b656e20616d6f756e7420697320696e73756660008201527f66696369656e7400000000000000000000000000000000000000000000000000602082015250565b600061222a602783611f9b565b9150612235826121ce565b604082019050919050565b600060208201905081810360008301526122598161221d565b9050919050565b7f4e487b7100000000000000000000000000000000000000000000000000000000600052601160045260246000fd5b600061229a82611956565b91506122a583611956565b9250817fffffffffffffffffffffffffffffffffffffffffffffffffffffffffffffffff04831182151516156122de576122dd612260565b5b828202905092915050565b7f496e76616c696420526174696f00000000000000000000000000000000000000600082015250565b600061231f600d83611f9b565b915061232a826122e9565b602082019050919050565b6000602082019050818103600083015261234e81612312565b9050919050565b600061236082611956565b915061236b83611956565b9250827fffffffffffffffffffffffffffffffffffffffffffffffffffffffffffffffff038211156123a05761239f612260565b5b828201905092915050565b6000610180820190506123c1600083018f611eda565b6123ce602083018e611bab565b6123db604083018d611bab565b6123e8606083018c611eda565b6123f5608083018b611eda565b61240260a083018a611eda565b61240f60c0830189611eda565b61241c60e0830188611eda565b61242a610100830187611eda565b612438610120830186611eda565b612446610140830185611eda565b612454610160830184611eda565b9d9c50505050505050505050505050565b600061247082611956565b915061247b83611956565b92508282101561248e5761248d612260565b5b828203905092915050565b6000819050919050565b6000819050919050565b60006124c86124c36124be84612499565b6124a3565b611956565b9050919050565b6124d8816124ad565b82525050565b60006060820190506124f36000830186611eda565b6125006020830185611eda565b61250d60408301846124cf565b949350505050565b7f796f752061726520756e617574686f72697a656420666f72207468697320616360008201527f74696f6e00000000000000000000000000000000000000000000000000000000602082015250565b6000612571602483611f9b565b915061257c82612515565b604082019050919050565b600060208201905081810360008301526125a081612564565b9050919050565b6000815190506125b681611960565b92915050565b6000602082840312156125d2576125d16118c1565b5b60006125e0848285016125a7565b91505092915050565b600082825260208201905092915050565b7f53616c65206f726465722063616e63656c656400000000000000000000000000600082015250565b60006126306013836125e9565b915061263b826125fa565b602082019050919050565b600060a08201905061265b6000830187611bab565b6126686020830186611bab565b6126756040830185611eda565b6126826060830184611eda565b818103608083015261269381612623565b905095945050505050565b60006060820190506126b36000830186611eda565b6126c06020830185611eda565b6126cd6040830184611eda565b949350505050565b7f496e76616c696420636f6d6d756e69747920746f6b656e206964000000000000600082015250565b600061270b601a83611f9b565b9150612716826126d5565b602082019050919050565b6000602082019050818103600083015261273a816126fe565b9050919050565b7f496e76616c696420676f7665726e616e636520746f6b656e2069640000000000600082015250565b6000612777601b83611f9b565b915061278282612741565b602082019050919050565b600060208201905081810360008301526127a68161276a565b9050919050565b7f596f752063616e6e6f742068617665203020636f6d6d756e69747920746f6b6560008201527f6e20616d6f756e74000000000000000000000000000000000000000000000000602082015250565b6000612809602883611f9b565b9150612814826127ad565b604082019050919050565b60006020820190508181036000830152612838816127fc565b9050919050565b7f596f752063616e6e6f742068617665203020676f7665726e616e636520746f6b60008201527f656e20616d6f756e740000000000000000000000000000000000000000000000602082015250565b600061289b602983611f9b565b91506128a68261283f565b604082019050919050565b600060208201905081810360008301526128ca8161288e565b9050919050565b7f4e487b7100000000000000000000000000000000000000000000000000000000600052603260045260246000fd5b7f53616c65206f7264657200000000000000000000000000000000000000000000600082015250565b6000612936600a836125e9565b915061294182612900565b602082019050919050565b600060a0820190506129616000830187611bab565b61296e6020830186611bab565b61297b6040830185611eda565b6129886060830184611eda565b818103608083015261299981612929565b905095945050505050565b60006129af82611956565b91507fffffffffffffffffffffffffffffffffffffffffffffffffffffffffffffffff8214156129e2576129e1612260565b5b600182019050919050565b6129f681611dec565b82525050565b600061016082019050612a12600083018e611eda565b612a1f602083018d611bab565b612a2c604083018c6129ed565b612a39606083018b611eda565b612a46608083018a611eda565b612a5360a0830189611eda565b612a6060c0830188611eda565b612a6d60e0830187611eda565b612a7b610100830186611eda565b612a89610120830185611eda565b612a97610140830184611eda565b9c9b505050505050505050505050565b600081519050919050565b60005b83811015612ad0578082015181840152602081019050612ab5565b83811115612adf576000848401525b50505050565b6000612af082612aa7565b612afa8185611f9b565b9350612b0a818560208601612ab2565b612b1381611996565b840191505092915050565b60006020820190508181036000830152612b388184612ae5565b905092915050565b7f4e487b7100000000000000000000000000000000000000000000000000000000600052601260045260246000fd5b6000612b7a82611956565b9150612b8583611956565b925082612b9557612b94612b40565b5b828204905092915050565b7f53616c65207472616e73616374696f6e20666565000000000000000000000000600082015250565b6000612bd66014836125e9565b9150612be182612ba0565b602082019050919050565b600060a082019050612c016000830187611bab565b612c0e6020830186611bab565b612c1b6040830185611eda565b612c286060830184611eda565b8181036080830152612c3981612bc9565b905095945050505050565b7f53616c6520746f6b656e20707269636520616d6f756e74207472616e7366657260008201527f20746f2073656c6c657200000000000000000000000000000000000000000000602082015250565b6000612ca0602a836125e9565b9150612cab82612c44565b604082019050919050565b600060a082019050612ccb6000830187611bab565b612cd86020830186611bab565b612ce56040830185611eda565b612cf26060830184611eda565b8181036080830152612d0381612c93565b905095945050505050565b7f53616c6520746f6b656e207472616e7366657220746f20627579657200000000600082015250565b6000612d44601c836125e9565b9150612d4f82612d0e565b602082019050919050565b600060a082019050612d6f6000830187611bab565b612d7c6020830186611bab565b612d896040830185611eda565b612d966060830184611eda565b8181036080830152612da781612d37565b90509594505050505056fea264697066735822122027644fff62ffd2b41c71487dbf34fa42d1e3fb8bd57c3d5485a822df0f3d985c64736f6c634300080c0033",
  "immutableReferences": {},
  "source": "pragma solidity ^0.8.0;\n\nimport \"@openzeppelin/contracts/utils/Counters.sol\";\nimport \"@openzeppelin/contracts/access/Ownable.sol\";\nimport \"@openzeppelin/contracts/utils/math/SafeMath.sol\";\nimport \"./RecordsContract.sol\";\nimport \"./TreasuryContract.sol\";\n\ncontract OrdersContract {\n    address public RECORDS_CONTRACT_ADDRESS;\n    address public VOTING_CONTRACT_ADDRESS;\n    address public TREASURY_CONTRACT_ADDRESS;\n    address public WALLET_ADDRESS;\n    uint8 TRANSACTION_FEE = 50; //This is 0.50%\n    address OWNER;\n\n    //TODO: Convert the contract into buy order contract and remove the token transfering process to order contract from users wallet\n    /**\n        Buyer creates buying order and deposits amount.\n        seller sell the token and receives the CRD token, \n        then tokens are transferred to buyer\n     */\n\n    struct Order {\n        bool isClosed;\n        bool isLockedInRatio;\n        address buyer;\n        uint256 creationDate;\n        uint256 communityTokenId;\n        uint256 communityTokenAmount;\n        uint256 communityTokenPrice;\n        uint256 governanceTokenId;\n        uint256 governanceTokenAmount;\n        uint256 governanceTokenPrice;\n        uint256 crdBalance;\n    }\n\n    /**\n        @dev this is event which is created when a user creates order to sell his tokens\n        @param saleId this is the Id of the Buy order\n        @param buyer this is the address of the owner or the Buy order\n        @param isLockedInRatio the is denotes wether the user wants to sell the token individually or in a ratio\n        @param creationDate this is the creation date of the Buy order\n        @param communityTokenId this is the community token id that is involved in the Buy order\n        @param communityTokenAmount this is the community token amount for Buy order\n        @param communityTokenPrice this is the price of single token\n        @param governanceTokenId this is the community token id that is involved in the Buy order\n        @param governanceTokenAmount this is the community token amount for Buy order\n        @param governanceTokenPrice this is the price of single token\n        @param crdBalance this is the total balance remaining for the order\n     */\n    event BuyOrder(\n        uint256 saleId,\n        address buyer,\n        bool isLockedInRatio,\n        uint256 creationDate,\n        uint256 communityTokenId,\n        uint256 communityTokenAmount,\n        uint256 communityTokenPrice,\n        uint256 governanceTokenId,\n        uint256 governanceTokenAmount,\n        uint256 governanceTokenPrice,\n        uint256 crdBalance\n    );\n\n    /**\n        @dev this is event which is created when a user purchases any sale order\n        @param saleId this is the Id of the sale order\n        @param seller this is the address of the person who sold the tokens in exchange for the crd\n        @param buyer this is the address of the owner or the sale order\n        @param creationDate this is the date when tokens were purchased\n        @param communityTokenId this is the community token id that is involved in the sale\n        @param communityTokenAmount this is the community token amount for sale\n        @param communityTokenPrice this is the price of single token\n        @param governanceTokenId this is the community token id that is involved in the sale\n        @param governanceTokenAmount this is the community token amount for sale\n        @param governanceTokenPrice this is the price of single token\n        @param amountTransferred this is the total amount paid\n        @param platformFees this is the platform fees taken by crowdrecords\n     */\n    event SaleBought(\n        uint256 saleId,\n        address seller,\n        address buyer,\n        uint256 creationDate,\n        uint256 communityTokenId,\n        uint256 communityTokenAmount,\n        uint256 communityTokenPrice,\n        uint256 governanceTokenId,\n        uint256 governanceTokenAmount,\n        uint256 governanceTokenPrice,\n        uint256 amountTransferred,\n        uint256 platformFees\n    );\n\n    /**\n        @dev this event is emmited when user closes his/her sale order\n        @param saleId This is the sale Id of the sale order \n        @param creationDate This is the date when the event took place \n        @param remainingBalance This is the amount that was remaining from the partially fulfilled orders\n     */\n    event OrderClose(\n        uint256 saleId,\n        uint256 creationDate,\n        uint256 remainingBalance\n    );\n\n    mapping(uint256 => Order) orderBook;\n    uint256 orderId = 0;\n\n    constructor(address owner) {\n        OWNER = owner;\n    }\n\n    /**\n     * @dev Modifier to check that the person who accesses a specific function is the owner of contract himself.\n     */\n    modifier ownerOnly() {\n        require(msg.sender == OWNER, \"You are not authorized for this action\");\n        _;\n    }\n    \n    /// @notice This function is to set the owner address\n    /// @dev This function takes in the address of new owner and sets it to the contract\n    /// @param owner Takes the address of new owner as parameter\n    function setOwner(address owner)public ownerOnly{\n        OWNER = owner;\n    }\n\n    /**\n     * @dev This function sets the treasury Contract address\n     */\n    function setTreasuryContractAddress(address newTreasuryContractAddress)\n        public\n        ownerOnly\n    {\n        TREASURY_CONTRACT_ADDRESS = newTreasuryContractAddress;\n    }\n\n    /**\n     * @dev This function sets the owner of the wallet address\n     */\n    function setWalletAddress(address newWalletAddress) public ownerOnly {\n        WALLET_ADDRESS = newWalletAddress;\n    }\n\n    //safeTransferFrom\n\n    /**\n     * @dev This function is called to create a new saleOrder\n     */\n    function createBuyOrder(\n        bool isLockedInRatio,\n        uint256 recordId,\n        uint256 communityTokenId,\n        uint256 communityTokenAmount,\n        uint256 communityTokenPrice,\n        uint256 governanceTokenId,\n        uint256 governanceTokenAmount,\n        uint256 governanceTokenPrice\n    ) public returns (uint256 saleOrderId) {\n        TreasuryContract treasuryContract = TreasuryContract(\n            TREASURY_CONTRACT_ADDRESS\n        );\n\n        require(\n            treasuryContract.getCommunityTokenId(recordId) == communityTokenId,\n            \"Invalid community token id\"\n        );\n        require(\n            treasuryContract.getGovernanceTokenId(recordId) ==\n                governanceTokenId,\n            \"Invalid governance token id\"\n        );\n\n        if (isLockedInRatio) {\n            require(\n                communityTokenAmount > 0,\n                \"You cannot have 0 community token amount\"\n            );\n\n            require(\n                governanceTokenAmount > 0,\n                \"You cannot have 0 governance token amount\"\n            );\n        }\n\n        //Calculate the total CRD required for the deal and then transfer them\n        uint256[2] memory tokenTotal;\n        tokenTotal[0] = governanceTokenAmount * governanceTokenPrice;\n        tokenTotal[1] = communityTokenAmount * communityTokenPrice;\n\n        //Transferring the CRD token into contract to lock it\n        treasuryContract.safeTransferFrom(\n            tx.origin,\n            address(this),\n            treasuryContract.CRD(),\n            tokenTotal[1] + tokenTotal[0],\n            \"Sale order\"\n        );\n\n        uint256 newOrderId = orderId;\n        orderId++;\n\n        Order memory order = Order({\n            isClosed: false,\n            buyer: tx.origin,\n            isLockedInRatio: isLockedInRatio,\n            creationDate: block.timestamp,\n            communityTokenId: communityTokenId,\n            communityTokenAmount: communityTokenAmount,\n            communityTokenPrice: communityTokenPrice,\n            governanceTokenId: governanceTokenId,\n            governanceTokenAmount: governanceTokenAmount,\n            governanceTokenPrice: governanceTokenPrice,\n            crdBalance: tokenTotal[0] + tokenTotal[1]\n        });\n\n        orderBook[orderId] = order;\n\n        emit BuyOrder({\n            saleId: orderId,\n            buyer: order.buyer,\n            isLockedInRatio: isLockedInRatio,\n            creationDate: order.creationDate,\n            communityTokenId: communityTokenId,\n            communityTokenAmount: communityTokenAmount,\n            communityTokenPrice: communityTokenPrice,\n            governanceTokenId: governanceTokenId,\n            governanceTokenAmount: governanceTokenAmount,\n            governanceTokenPrice: governanceTokenPrice,\n            crdBalance: tokenTotal[0] + tokenTotal[1]\n        });\n\n        return newOrderId;\n    }\n\n    /**\n     * @dev This function is called to cancel the existing sale order\n     */\n    function cancelBuyOrder(uint256 saleId) public {\n        require(\n            orderBook[orderId].buyer == msg.sender,\n            \"you are unauthorized for this action\"\n        );\n\n        require(orderBook[orderId].isClosed == false, \"Is already closed\");\n\n        Order memory order = orderBook[orderId];\n\n        TreasuryContract treasuryContract = TreasuryContract(\n            TREASURY_CONTRACT_ADDRESS\n        );\n\n        //--- Need to have additional checks for balance of the sale and also to deduct the tokens from the sale struct\n        //Send back the remaining amount to user\n        treasuryContract.safeTransferFrom(\n            address(this),\n            order.buyer,\n            treasuryContract.CRD(),\n            order.crdBalance,\n            \"Sale order canceled\"\n        );\n\n        orderBook[orderId].isClosed = true;\n\n        emit OrderClose({\n            saleId: saleId,\n            creationDate: block.timestamp,\n            remainingBalance: order.crdBalance\n        });\n    }\n\n    event DEBUG(\n        uint256 amount,\n        uint256 fees,\n        uint256 totalCRD,\n        uint256 otherTest\n    );\n\n    /**\n     * @dev This function is called to accept the existing buy order\n     */\n    function acceptBuyOrder(\n        uint256 saleId,\n        uint256 governanceTokenAmount,\n        uint256 communityTokenAmount\n    ) public {\n        require(\n            orderBook[orderId].buyer != msg.sender,\n            \"you cannot purchase your own tokens\"\n        );\n\n        require(orderBook[orderId].isClosed == false, \"Is already closed\");\n\n        Order storage order = orderBook[orderId];\n\n        //This will check if the amount to purchase is less or equal than the order that is generated\n        require(\n            order.communityTokenAmount >= communityTokenAmount,\n            \"Community token amount is insufficient\"\n        );\n        require(\n            order.governanceTokenAmount >= governanceTokenAmount,\n            \"Governance token amount is insufficient\"\n        );\n\n        if (order.isLockedInRatio) {\n            //Multiply bigger value to make sure that we have proper ratio.\n            //As if we don't do that then something like 3/2 and 5/4 will be considers same and they will result in a false positive\n            if (order.communityTokenAmount > order.governanceTokenAmount) {\n                require(\n                    SafeMath.div(\n                        communityTokenAmount * 100,\n                        governanceTokenAmount,\n                        \"Invalid Ratio\"\n                    ) ==\n                        SafeMath.div(\n                            order.communityTokenAmount * 100,\n                            order.governanceTokenAmount,\n                            \"Invalid Ratio\"\n                        ),\n                    \"Invalid Ratio\"\n                );\n            } else {\n                require(\n                    SafeMath.div(\n                        governanceTokenAmount * 100,\n                        communityTokenAmount,\n                        \"Invalid Ratio\"\n                    ) ==\n                        SafeMath.div(\n                            order.governanceTokenAmount * 100,\n                            order.communityTokenAmount,\n                            \"Invalid Ratio\"\n                        ),\n                    \"Invalid Ratio\"\n                );\n            }\n        }\n\n        uint256 amount = 0;\n        uint256 fees = 0;\n        if (order.communityTokenAmount > 0) {\n            (\n                uint256 cost,\n                uint256 platformFees\n            ) = _transferTokensAndTransactionCharge(\n                    communityTokenAmount,\n                    order.communityTokenPrice,\n                    order.communityTokenId,\n                    order.buyer\n                );\n            amount = amount + cost;\n            fees = fees + platformFees;\n        }\n\n        if (order.governanceTokenAmount > 0) {\n            (\n                uint256 cost,\n                uint256 platformFees\n            ) = _transferTokensAndTransactionCharge(\n                    governanceTokenAmount,\n                    order.governanceTokenPrice,\n                    order.governanceTokenId,\n                    order.buyer\n                );\n            amount = amount + cost;\n            fees = fees + platformFees;\n        }\n\n        emit SaleBought({\n            saleId: saleId,\n            seller: order.buyer,\n            buyer: msg.sender,\n            creationDate: block.timestamp,\n            communityTokenId: order.communityTokenId,\n            communityTokenAmount: communityTokenAmount,\n            communityTokenPrice: order.communityTokenPrice,\n            governanceTokenId: order.governanceTokenId,\n            governanceTokenAmount: governanceTokenAmount,\n            governanceTokenPrice: order.governanceTokenPrice,\n            amountTransferred: amount + fees,\n            platformFees: fees\n        });\n\n        order.communityTokenAmount =\n            order.communityTokenAmount -\n            communityTokenAmount;\n\n        order.governanceTokenAmount =\n            order.governanceTokenAmount -\n            governanceTokenAmount;\n\n        order.crdBalance = order.crdBalance - amount - fees;\n\n        if (\n            order.communityTokenAmount == 0 && order.governanceTokenAmount == 0\n        ) {\n            order.isClosed = true;\n            emit OrderClose({\n                saleId: saleId,\n                creationDate: block.timestamp,\n                remainingBalance: 0\n            });\n        }\n    }\n\n    /// @notice This is only for internal use\n    /// @dev This function is responsible to transfer the tokens at the time of purchase and it is also responsible for transfering the fees.\n    /// @param tokenAmount This is the amount of token to transfer\n    /// @param tokenPrice This is the token price at which the tokens are being sold at\n    /// @param tokenId this is the ID of the token to transfer\n    function _transferTokensAndTransactionCharge(\n        uint256 tokenAmount,\n        uint256 tokenPrice,\n        uint256 tokenId,\n        address receiver\n    ) internal returns (uint256 totalCost, uint256 totalFee) {\n        ///Change the function so that it will transfer the community and governance tokens from the sellers account to buyer account\n        //then it would transfer the CRD tokens from contract account to sellers account after deducting the transaction fees.\n\n        uint256 transactionAmount = (tokenAmount * tokenPrice);\n        uint256 transactionFee = (transactionAmount * TRANSACTION_FEE) / 10000;\n        //Removing the transaction fee from the transaction amount\n        transactionAmount = transactionAmount - transactionFee;\n\n        TreasuryContract treasuryContract = TreasuryContract(\n            TREASURY_CONTRACT_ADDRESS\n        );\n\n        treasuryContract.safeTransferFrom(\n            msg.sender,\n            WALLET_ADDRESS,\n            treasuryContract.CRD(),\n            transactionFee,\n            \"Sale transaction fee\"\n        );\n\n        treasuryContract.safeTransferFrom(\n            address(this),\n            msg.sender,\n            treasuryContract.CRD(),\n            transactionAmount,\n            \"Sale token price amount transfer to seller\"\n        );\n\n        treasuryContract.safeTransferFrom(\n            msg.sender,\n            receiver,\n            tokenId,\n            tokenAmount,\n            \"Sale token transfer to buyer\"\n        );\n\n        return (transactionAmount, transactionFee);\n    }\n\n    /**\n    Below code are for transfer of tokens from ERC1155 standard contract\n     */\n    function onERC1155Received(\n        address,\n        address,\n        uint256,\n        uint256,\n        bytes memory\n    ) public virtual returns (bytes4) {\n        return this.onERC1155Received.selector;\n    }\n\n    function onERC1155BatchReceived(\n        address,\n        address,\n        uint256[] memory,\n        uint256[] memory,\n        bytes memory\n    ) public virtual returns (bytes4) {\n        return this.onERC1155BatchReceived.selector;\n    }\n\n    function onERC721Received(\n        address,\n        address,\n        uint256,\n        bytes memory\n    ) public virtual returns (bytes4) {\n        return this.onERC721Received.selector;\n    }\n}\n",
  "sourcePath": "/Users/a1/Desktop/Office/projects/CrowdRecords/Contracts/contracts/OrdersContract.sol",
  "compiler": {
    "name": "solc",
    "version": "0.8.12+commit.f00d7308.Emscripten.clang"
  },
  "schemaVersion": "3.4.6",
  "updatedAt": "2022-09-08T09:22:09.785Z",
  "networkType": "ethereum",
  "devdoc": {
    "events": {
      "BuyOrder(uint256,address,bool,uint256,uint256,uint256,uint256,uint256,uint256,uint256,uint256)": {
        "details": "this is event which is created when a user creates order to sell his tokens",
        "params": {
          "buyer": "this is the address of the owner or the Buy order",
          "communityTokenAmount": "this is the community token amount for Buy order",
          "communityTokenId": "this is the community token id that is involved in the Buy order",
          "communityTokenPrice": "this is the price of single token",
          "crdBalance": "this is the total balance remaining for the order",
          "creationDate": "this is the creation date of the Buy order",
          "governanceTokenAmount": "this is the community token amount for Buy order",
          "governanceTokenId": "this is the community token id that is involved in the Buy order",
          "governanceTokenPrice": "this is the price of single token",
          "isLockedInRatio": "the is denotes wether the user wants to sell the token individually or in a ratio",
          "saleId": "this is the Id of the Buy order"
        }
      },
      "OrderClose(uint256,uint256,uint256)": {
        "details": "this event is emmited when user closes his/her sale order",
        "params": {
          "creationDate": "This is the date when the event took place ",
          "remainingBalance": "This is the amount that was remaining from the partially fulfilled orders",
          "saleId": "This is the sale Id of the sale order "
        }
      },
      "SaleBought(uint256,address,address,uint256,uint256,uint256,uint256,uint256,uint256,uint256,uint256,uint256)": {
        "details": "this is event which is created when a user purchases any sale order",
        "params": {
          "amountTransferred": "this is the total amount paid",
          "buyer": "this is the address of the owner or the sale order",
          "communityTokenAmount": "this is the community token amount for sale",
          "communityTokenId": "this is the community token id that is involved in the sale",
          "communityTokenPrice": "this is the price of single token",
          "creationDate": "this is the date when tokens were purchased",
          "governanceTokenAmount": "this is the community token amount for sale",
          "governanceTokenId": "this is the community token id that is involved in the sale",
          "governanceTokenPrice": "this is the price of single token",
          "platformFees": "this is the platform fees taken by crowdrecords",
          "saleId": "this is the Id of the sale order",
          "seller": "this is the address of the person who sold the tokens in exchange for the crd"
        }
      }
    },
    "kind": "dev",
    "methods": {
      "acceptBuyOrder(uint256,uint256,uint256)": {
        "details": "This function is called to accept the existing buy order"
      },
      "cancelBuyOrder(uint256)": {
        "details": "This function is called to cancel the existing sale order"
      },
      "createBuyOrder(bool,uint256,uint256,uint256,uint256,uint256,uint256,uint256)": {
        "details": "This function is called to create a new saleOrder"
      },
      "setOwner(address)": {
        "details": "This function takes in the address of new owner and sets it to the contract",
        "params": {
          "owner": "Takes the address of new owner as parameter"
        }
      },
      "setTreasuryContractAddress(address)": {
        "details": "This function sets the treasury Contract address"
      },
      "setWalletAddress(address)": {
        "details": "This function sets the owner of the wallet address"
      }
    },
    "version": 1
  },
  "userdoc": {
    "kind": "user",
    "methods": {
      "onERC1155Received(address,address,uint256,uint256,bytes)": {
        "notice": "Below code are for transfer of tokens from ERC1155 standard contract"
      },
      "setOwner(address)": {
        "notice": "This function is to set the owner address"
      }
    },
    "version": 1
  }
}