{
  "contractName": "OrdersContract",
  "abi": [
    {
      "inputs": [],
      "stateMutability": "nonpayable",
      "type": "constructor"
    },
    {
      "anonymous": false,
      "inputs": [
        {
          "indexed": false,
          "internalType": "uint256",
          "name": "saleId",
          "type": "uint256"
        },
        {
          "indexed": false,
          "internalType": "address",
          "name": "buyer",
          "type": "address"
        },
        {
          "indexed": false,
          "internalType": "bool",
          "name": "isLockedInRatio",
          "type": "bool"
        },
        {
          "indexed": false,
          "internalType": "uint256",
          "name": "creationDate",
          "type": "uint256"
        },
        {
          "indexed": false,
          "internalType": "uint256",
          "name": "communityTokenId",
          "type": "uint256"
        },
        {
          "indexed": false,
          "internalType": "uint256",
          "name": "communityTokenAmount",
          "type": "uint256"
        },
        {
          "indexed": false,
          "internalType": "uint256",
          "name": "communityTokenPrice",
          "type": "uint256"
        },
        {
          "indexed": false,
          "internalType": "uint256",
          "name": "governanceTokenId",
          "type": "uint256"
        },
        {
          "indexed": false,
          "internalType": "uint256",
          "name": "governanceTokenAmount",
          "type": "uint256"
        },
        {
          "indexed": false,
          "internalType": "uint256",
          "name": "governanceTokenPrice",
          "type": "uint256"
        },
        {
          "indexed": false,
          "internalType": "uint256",
          "name": "crdBalance",
          "type": "uint256"
        }
      ],
      "name": "BuyOrder",
      "type": "event"
    },
    {
      "anonymous": false,
      "inputs": [
        {
          "indexed": false,
          "internalType": "uint256",
          "name": "amount",
          "type": "uint256"
        },
        {
          "indexed": false,
          "internalType": "uint256",
          "name": "fees",
          "type": "uint256"
        },
        {
          "indexed": false,
          "internalType": "uint256",
          "name": "totalCRD",
          "type": "uint256"
        },
        {
          "indexed": false,
          "internalType": "uint256",
          "name": "otherTest",
          "type": "uint256"
        }
      ],
      "name": "DEBUG",
      "type": "event"
    },
    {
      "anonymous": false,
      "inputs": [
        {
          "indexed": false,
          "internalType": "uint256",
          "name": "saleId",
          "type": "uint256"
        },
        {
          "indexed": false,
          "internalType": "uint256",
          "name": "creationDate",
          "type": "uint256"
        },
        {
          "indexed": false,
          "internalType": "uint256",
          "name": "remainingBalance",
          "type": "uint256"
        }
      ],
      "name": "OrderClose",
      "type": "event"
    },
    {
      "anonymous": false,
      "inputs": [
        {
          "indexed": false,
          "internalType": "uint256",
          "name": "saleId",
          "type": "uint256"
        },
        {
          "indexed": false,
          "internalType": "address",
          "name": "seller",
          "type": "address"
        },
        {
          "indexed": false,
          "internalType": "address",
          "name": "buyer",
          "type": "address"
        },
        {
          "indexed": false,
          "internalType": "uint256",
          "name": "creationDate",
          "type": "uint256"
        },
        {
          "indexed": false,
          "internalType": "uint256",
          "name": "communityTokenId",
          "type": "uint256"
        },
        {
          "indexed": false,
          "internalType": "uint256",
          "name": "communityTokenAmount",
          "type": "uint256"
        },
        {
          "indexed": false,
          "internalType": "uint256",
          "name": "communityTokenPrice",
          "type": "uint256"
        },
        {
          "indexed": false,
          "internalType": "uint256",
          "name": "governanceTokenId",
          "type": "uint256"
        },
        {
          "indexed": false,
          "internalType": "uint256",
          "name": "governanceTokenAmount",
          "type": "uint256"
        },
        {
          "indexed": false,
          "internalType": "uint256",
          "name": "governanceTokenPrice",
          "type": "uint256"
        },
        {
          "indexed": false,
          "internalType": "uint256",
          "name": "amountTransferred",
          "type": "uint256"
        },
        {
          "indexed": false,
          "internalType": "uint256",
          "name": "platformFees",
          "type": "uint256"
        }
      ],
      "name": "SaleBought",
      "type": "event"
    },
    {
      "inputs": [],
      "name": "RECORDS_CONTRACT_ADDRESS",
      "outputs": [
        {
          "internalType": "address",
          "name": "",
          "type": "address"
        }
      ],
      "stateMutability": "view",
      "type": "function",
      "constant": true
    },
    {
      "inputs": [],
      "name": "TREASURY_CONTRACT_ADDRESS",
      "outputs": [
        {
          "internalType": "address",
          "name": "",
          "type": "address"
        }
      ],
      "stateMutability": "view",
      "type": "function",
      "constant": true
    },
    {
      "inputs": [],
      "name": "VOTING_CONTRACT_ADDRESS",
      "outputs": [
        {
          "internalType": "address",
          "name": "",
          "type": "address"
        }
      ],
      "stateMutability": "view",
      "type": "function",
      "constant": true
    },
    {
      "inputs": [],
      "name": "WALLET_ADDRESS",
      "outputs": [
        {
          "internalType": "address",
          "name": "",
          "type": "address"
        }
      ],
      "stateMutability": "view",
      "type": "function",
      "constant": true
    },
    {
      "inputs": [
        {
          "internalType": "address",
          "name": "newTreasuryContractAddress",
          "type": "address"
        }
      ],
      "name": "setTreasuryContractAddress",
      "outputs": [],
      "stateMutability": "nonpayable",
      "type": "function"
    },
    {
      "inputs": [
        {
          "internalType": "address",
          "name": "newWalletAddress",
          "type": "address"
        }
      ],
      "name": "setWalletAddress",
      "outputs": [],
      "stateMutability": "nonpayable",
      "type": "function"
    },
    {
      "inputs": [
        {
          "internalType": "bool",
          "name": "isLockedInRatio",
          "type": "bool"
        },
        {
          "internalType": "uint256",
          "name": "recordId",
          "type": "uint256"
        },
        {
          "internalType": "uint256",
          "name": "communityTokenId",
          "type": "uint256"
        },
        {
          "internalType": "uint256",
          "name": "communityTokenAmount",
          "type": "uint256"
        },
        {
          "internalType": "uint256",
          "name": "communityTokenPrice",
          "type": "uint256"
        },
        {
          "internalType": "uint256",
          "name": "governanceTokenId",
          "type": "uint256"
        },
        {
          "internalType": "uint256",
          "name": "governanceTokenAmount",
          "type": "uint256"
        },
        {
          "internalType": "uint256",
          "name": "governanceTokenPrice",
          "type": "uint256"
        }
      ],
      "name": "createBuyOrder",
      "outputs": [
        {
          "internalType": "uint256",
          "name": "saleOrderId",
          "type": "uint256"
        }
      ],
      "stateMutability": "nonpayable",
      "type": "function"
    },
    {
      "inputs": [
        {
          "internalType": "uint256",
          "name": "saleId",
          "type": "uint256"
        }
      ],
      "name": "cancelBuyOrder",
      "outputs": [],
      "stateMutability": "nonpayable",
      "type": "function"
    },
    {
      "inputs": [
        {
          "internalType": "uint256",
          "name": "saleId",
          "type": "uint256"
        },
        {
          "internalType": "uint256",
          "name": "governanceTokenAmount",
          "type": "uint256"
        },
        {
          "internalType": "uint256",
          "name": "communityTokenAmount",
          "type": "uint256"
        }
      ],
      "name": "acceptBuyOrder",
      "outputs": [],
      "stateMutability": "nonpayable",
      "type": "function"
    },
    {
      "inputs": [
        {
          "internalType": "address",
          "name": "",
          "type": "address"
        },
        {
          "internalType": "address",
          "name": "",
          "type": "address"
        },
        {
          "internalType": "uint256",
          "name": "",
          "type": "uint256"
        },
        {
          "internalType": "uint256",
          "name": "",
          "type": "uint256"
        },
        {
          "internalType": "bytes",
          "name": "",
          "type": "bytes"
        }
      ],
      "name": "onERC1155Received",
      "outputs": [
        {
          "internalType": "bytes4",
          "name": "",
          "type": "bytes4"
        }
      ],
      "stateMutability": "nonpayable",
      "type": "function"
    },
    {
      "inputs": [
        {
          "internalType": "address",
          "name": "",
          "type": "address"
        },
        {
          "internalType": "address",
          "name": "",
          "type": "address"
        },
        {
          "internalType": "uint256[]",
          "name": "",
          "type": "uint256[]"
        },
        {
          "internalType": "uint256[]",
          "name": "",
          "type": "uint256[]"
        },
        {
          "internalType": "bytes",
          "name": "",
          "type": "bytes"
        }
      ],
      "name": "onERC1155BatchReceived",
      "outputs": [
        {
          "internalType": "bytes4",
          "name": "",
          "type": "bytes4"
        }
      ],
      "stateMutability": "nonpayable",
      "type": "function"
    },
    {
      "inputs": [
        {
          "internalType": "address",
          "name": "",
          "type": "address"
        },
        {
          "internalType": "address",
          "name": "",
          "type": "address"
        },
        {
          "internalType": "uint256",
          "name": "",
          "type": "uint256"
        },
        {
          "internalType": "bytes",
          "name": "",
          "type": "bytes"
        }
      ],
      "name": "onERC721Received",
      "outputs": [
        {
          "internalType": "bytes4",
          "name": "",
          "type": "bytes4"
        }
      ],
      "stateMutability": "nonpayable",
      "type": "function"
    }
  ],
  "bytecode": "0x60806040526032600360146101000a81548160ff021916908360ff160217905550600060065534801561003157600080fd5b5033600460006101000a81548173ffffffffffffffffffffffffffffffffffffffff021916908373ffffffffffffffffffffffffffffffffffffffff160217905550612cdd806100826000396000f3fe608060405234801561001057600080fd5b50600436106100b45760003560e01c8063acb3149311610071578063acb3149314610179578063ba19a67514610197578063bc197c81146101b5578063be5d147f146101e5578063ef2d225f14610201578063f23a6e6114610231576100b4565b8063150b7a02146100b95780634cf2d48f146100e9578063659d45eb1461010557806381e6cde5146101235780638fc3b6471461013f578063ac1a386a1461015d575b600080fd5b6100d360048036038101906100ce919061199a565b610261565b6040516100e09190611a58565b60405180910390f35b61010360048036038101906100fe9190611a73565b610275565b005b61010d610349565b60405161011a9190611aaf565b60405180910390f35b61013d60048036038101906101389190611aca565b61036f565b005b61014761094e565b6040516101549190611aaf565b60405180910390f35b61017760048036038101906101729190611a73565b610974565b005b610181610a48565b60405161018e9190611aaf565b60405180910390f35b61019f610a6e565b6040516101ac9190611aaf565b60405180910390f35b6101cf60048036038101906101ca9190611be5565b610a92565b6040516101dc9190611a58565b60405180910390f35b6101ff60048036038101906101fa9190611cb4565b610aa7565b005b61021b60048036038101906102169190611d19565b610e3f565b6040516102289190611dde565b60405180910390f35b61024b60048036038101906102469190611df9565b611439565b6040516102589190611a58565b60405180910390f35b600063150b7a0260e01b9050949350505050565b600460009054906101000a900473ffffffffffffffffffffffffffffffffffffffff1673ffffffffffffffffffffffffffffffffffffffff163373ffffffffffffffffffffffffffffffffffffffff1614610305576040517f08c379a00000000000000000000000000000000000000000000000000000000081526004016102fc90611f13565b60405180910390fd5b80600260006101000a81548173ffffffffffffffffffffffffffffffffffffffff021916908373ffffffffffffffffffffffffffffffffffffffff16021790555050565b600160009054906101000a900473ffffffffffffffffffffffffffffffffffffffff1681565b3373ffffffffffffffffffffffffffffffffffffffff1660056000600654815260200190815260200160002060000160029054906101000a900473ffffffffffffffffffffffffffffffffffffffff1673ffffffffffffffffffffffffffffffffffffffff161415610416576040517f08c379a000000000000000000000000000000000000000000000000000000000815260040161040d90611fa5565b60405180910390fd5b6000151560056000600654815260200190815260200160002060000160009054906101000a900460ff16151514610482576040517f08c379a000000000000000000000000000000000000000000000000000000000815260040161047990612011565b60405180910390fd5b6000600560006006548152602001908152602001600020905081816003015410156104e2576040517f08c379a00000000000000000000000000000000000000000000000000000000081526004016104d9906120a3565b60405180910390fd5b8281600601541015610529576040517f08c379a000000000000000000000000000000000000000000000000000000000815260040161052090612135565b60405180910390fd5b8060000160019054906101000a900460ff161561071757806006015481600301541115610635576105a4606482600301546105649190612184565b82600601546040518060400160405280600d81526020017f496e76616c696420526174696f0000000000000000000000000000000000000081525061144e565b6105f06064846105b49190612184565b856040518060400160405280600d81526020017f496e76616c696420526174696f0000000000000000000000000000000000000081525061144e565b14610630576040517f08c379a00000000000000000000000000000000000000000000000000000000081526004016106279061222a565b60405180910390fd5b610716565b610689606482600601546106499190612184565b82600301546040518060400160405280600d81526020017f496e76616c696420526174696f0000000000000000000000000000000000000081525061144e565b6106d56064856106999190612184565b846040518060400160405280600d81526020017f496e76616c696420526174696f0000000000000000000000000000000000000081525061144e565b14610715576040517f08c379a000000000000000000000000000000000000000000000000000000000815260040161070c9061222a565b60405180910390fd5b5b5b6000806000836003015411156107855760008061076286866004015487600201548860000160029054906101000a900473ffffffffffffffffffffffffffffffffffffffff166114b0565b915091508184610772919061224a565b93508083610780919061224a565b925050505b6000836006015411156107f0576000806107cd87866007015487600501548860000160029054906101000a900473ffffffffffffffffffffffffffffffffffffffff166114b0565b9150915081846107dd919061224a565b935080836107eb919061224a565b925050505b7f249b7ebd7d5ac609b663ac9ccaa3fcc5fc187ce3d76fb95d9064a788ffeba078868460000160029054906101000a900473ffffffffffffffffffffffffffffffffffffffff16334287600201548989600401548a600501548d8c600701548b8d61085b919061224a565b8c6040516108749c9b9a999897969594939291906122a0565b60405180910390a183836003015461088c919061235a565b83600301819055508483600601546108a4919061235a565b8360060181905550808284600801546108bd919061235a565b6108c7919061235a565b8360080181905550600083600301541480156108e7575060008360060154145b156109465760018360000160006101000a81548160ff0219169083151502179055507f9b59e95c56cf432066ac010b6aa1d35e53f427d886a20c2a9c307b776768b1e58642600060405161093d939291906123d3565b60405180910390a15b505050505050565b600360009054906101000a900473ffffffffffffffffffffffffffffffffffffffff1681565b600460009054906101000a900473ffffffffffffffffffffffffffffffffffffffff1673ffffffffffffffffffffffffffffffffffffffff163373ffffffffffffffffffffffffffffffffffffffff1614610a04576040517f08c379a00000000000000000000000000000000000000000000000000000000081526004016109fb90611f13565b60405180910390fd5b80600360006101000a81548173ffffffffffffffffffffffffffffffffffffffff021916908373ffffffffffffffffffffffffffffffffffffffff16021790555050565b600260009054906101000a900473ffffffffffffffffffffffffffffffffffffffff1681565b60008054906101000a900473ffffffffffffffffffffffffffffffffffffffff1681565b600063bc197c8160e01b905095945050505050565b3373ffffffffffffffffffffffffffffffffffffffff1660056000600654815260200190815260200160002060000160029054906101000a900473ffffffffffffffffffffffffffffffffffffffff1673ffffffffffffffffffffffffffffffffffffffff1614610b4d576040517f08c379a0000000000000000000000000000000000000000000000000000000008152600401610b449061247c565b60405180910390fd5b6000151560056000600654815260200190815260200160002060000160009054906101000a900460ff16151514610bb9576040517f08c379a0000000000000000000000000000000000000000000000000000000008152600401610bb090612011565b60405180910390fd5b6000600560006006548152602001908152602001600020604051806101600160405290816000820160009054906101000a900460ff161515151581526020016000820160019054906101000a900460ff161515151581526020016000820160029054906101000a900473ffffffffffffffffffffffffffffffffffffffff1673ffffffffffffffffffffffffffffffffffffffff1673ffffffffffffffffffffffffffffffffffffffff1681526020016001820154815260200160028201548152602001600382015481526020016004820154815260200160058201548152602001600682015481526020016007820154815260200160088201548152505090506000600260009054906101000a900473ffffffffffffffffffffffffffffffffffffffff1690508073ffffffffffffffffffffffffffffffffffffffff1663f242432a3084604001518473ffffffffffffffffffffffffffffffffffffffff1663e6acd9b86040518163ffffffff1660e01b8152600401602060405180830381865afa158015610d4e573d6000803e3d6000fd5b505050506040513d601f19601f82011682018060405250810190610d7291906124b1565b8661014001516040518563ffffffff1660e01b8152600401610d97949392919061253b565b600060405180830381600087803b158015610db157600080fd5b505af1158015610dc5573d6000803e3d6000fd5b50505050600160056000600654815260200190815260200160002060000160006101000a81548160ff0219169083151502179055507f9b59e95c56cf432066ac010b6aa1d35e53f427d886a20c2a9c307b776768b1e58342846101400151604051610e3293929190612593565b60405180910390a1505050565b600080600260009054906101000a900473ffffffffffffffffffffffffffffffffffffffff169050878173ffffffffffffffffffffffffffffffffffffffff16632d4a03828b6040518263ffffffff1660e01b8152600401610ea19190611dde565b602060405180830381865afa158015610ebe573d6000803e3d6000fd5b505050506040513d601f19601f82011682018060405250810190610ee291906124b1565b14610f22576040517f08c379a0000000000000000000000000000000000000000000000000000000008152600401610f1990612616565b60405180910390fd5b848173ffffffffffffffffffffffffffffffffffffffff1663d6ca40a78b6040518263ffffffff1660e01b8152600401610f5c9190611dde565b602060405180830381865afa158015610f79573d6000803e3d6000fd5b505050506040513d601f19601f82011682018060405250810190610f9d91906124b1565b14610fdd576040517f08c379a0000000000000000000000000000000000000000000000000000000008152600401610fd490612682565b60405180910390fd5b891561106a5760008711611026576040517f08c379a000000000000000000000000000000000000000000000000000000000815260040161101d90612714565b60405180910390fd5b60008411611069576040517f08c379a0000000000000000000000000000000000000000000000000000000008152600401611060906127a6565b60405180910390fd5b5b61107261178a565b838561107e9190612184565b81600060028110611092576110916127c6565b5b60200201818152505086886110a79190612184565b816001600281106110bb576110ba6127c6565b5b6020020181815250508173ffffffffffffffffffffffffffffffffffffffff1663f242432a32308573ffffffffffffffffffffffffffffffffffffffff1663e6acd9b86040518163ffffffff1660e01b8152600401602060405180830381865afa15801561112d573d6000803e3d6000fd5b505050506040513d601f19601f8201168201806040525081019061115191906124b1565b85600060028110611165576111646127c6565b5b60200201518660016002811061117e5761117d6127c6565b5b602002015161118d919061224a565b6040518563ffffffff1660e01b81526004016111ac9493929190612841565b600060405180830381600087803b1580156111c657600080fd5b505af11580156111da573d6000803e3d6000fd5b5050505060006006549050600660008154809291906111f890612899565b919050555060006040518061016001604052806000151581526020018e151581526020013273ffffffffffffffffffffffffffffffffffffffff1681526020014281526020018c81526020018b81526020018a815260200189815260200188815260200187815260200184600160028110611276576112756127c6565b5b60200201518560006002811061128f5761128e6127c6565b5b602002015161129e919061224a565b81525090508060056000600654815260200190815260200160002060008201518160000160006101000a81548160ff02191690831515021790555060208201518160000160016101000a81548160ff02191690831515021790555060408201518160000160026101000a81548173ffffffffffffffffffffffffffffffffffffffff021916908373ffffffffffffffffffffffffffffffffffffffff160217905550606082015181600101556080820151816002015560a0820151816003015560c0820151816004015560e082015181600501556101008201518160060155610120820151816007015561014082015181600801559050507ffaa6ea7690fa3b58a9cfc7064f065f7d0aab5a65f26e58acaa53da7a7e3e6ac660065482604001518f84606001518f8f8f8f8f8f8d6001600281106113df576113de6127c6565b5b60200201518e6000600281106113f8576113f76127c6565b5b6020020151611407919061224a565b60405161141e9b9a999897969594939291906128f1565b60405180910390a18194505050505098975050505050505050565b600063f23a6e6160e01b905095945050505050565b60008083118290611495576040517f08c379a000000000000000000000000000000000000000000000000000000000815260040161148c9190612a13565b60405180910390fd5b508284816114a6576114a5612a35565b5b0490509392505050565b600080600085876114c19190612184565b90506000612710600360149054906101000a900460ff1660ff16836114e69190612184565b6114f09190612a64565b905080826114fe919061235a565b91506000600260009054906101000a900473ffffffffffffffffffffffffffffffffffffffff1690508073ffffffffffffffffffffffffffffffffffffffff1663f242432a33600360009054906101000a900473ffffffffffffffffffffffffffffffffffffffff168473ffffffffffffffffffffffffffffffffffffffff1663e6acd9b86040518163ffffffff1660e01b8152600401602060405180830381865afa1580156115b2573d6000803e3d6000fd5b505050506040513d601f19601f820116820180604052508101906115d691906124b1565b866040518563ffffffff1660e01b81526004016115f69493929190612ae1565b600060405180830381600087803b15801561161057600080fd5b505af1158015611624573d6000803e3d6000fd5b505050508073ffffffffffffffffffffffffffffffffffffffff1663f242432a30338473ffffffffffffffffffffffffffffffffffffffff1663e6acd9b86040518163ffffffff1660e01b8152600401602060405180830381865afa158015611691573d6000803e3d6000fd5b505050506040513d601f19601f820116820180604052508101906116b591906124b1565b876040518563ffffffff1660e01b81526004016116d59493929190612bab565b600060405180830381600087803b1580156116ef57600080fd5b505af1158015611703573d6000803e3d6000fd5b505050508073ffffffffffffffffffffffffffffffffffffffff1663f242432a33888a8d6040518563ffffffff1660e01b81526004016117469493929190612c4f565b600060405180830381600087803b15801561176057600080fd5b505af1158015611774573d6000803e3d6000fd5b5050505082829450945050505094509492505050565b6040518060400160405280600290602082028036833780820191505090505090565b6000604051905090565b600080fd5b600080fd5b600073ffffffffffffffffffffffffffffffffffffffff82169050919050565b60006117eb826117c0565b9050919050565b6117fb816117e0565b811461180657600080fd5b50565b600081359050611818816117f2565b92915050565b6000819050919050565b6118318161181e565b811461183c57600080fd5b50565b60008135905061184e81611828565b92915050565b600080fd5b600080fd5b6000601f19601f8301169050919050565b7f4e487b7100000000000000000000000000000000000000000000000000000000600052604160045260246000fd5b6118a78261185e565b810181811067ffffffffffffffff821117156118c6576118c561186f565b5b80604052505050565b60006118d96117ac565b90506118e5828261189e565b919050565b600067ffffffffffffffff8211156119055761190461186f565b5b61190e8261185e565b9050602081019050919050565b82818337600083830152505050565b600061193d611938846118ea565b6118cf565b90508281526020810184848401111561195957611958611859565b5b61196484828561191b565b509392505050565b600082601f83011261198157611980611854565b5b813561199184826020860161192a565b91505092915050565b600080600080608085870312156119b4576119b36117b6565b5b60006119c287828801611809565b94505060206119d387828801611809565b93505060406119e48782880161183f565b925050606085013567ffffffffffffffff811115611a0557611a046117bb565b5b611a118782880161196c565b91505092959194509250565b60007fffffffff0000000000000000000000000000000000000000000000000000000082169050919050565b611a5281611a1d565b82525050565b6000602082019050611a6d6000830184611a49565b92915050565b600060208284031215611a8957611a886117b6565b5b6000611a9784828501611809565b91505092915050565b611aa9816117e0565b82525050565b6000602082019050611ac46000830184611aa0565b92915050565b600080600060608486031215611ae357611ae26117b6565b5b6000611af18682870161183f565b9350506020611b028682870161183f565b9250506040611b138682870161183f565b9150509250925092565b600067ffffffffffffffff821115611b3857611b3761186f565b5b602082029050602081019050919050565b600080fd5b6000611b61611b5c84611b1d565b6118cf565b90508083825260208201905060208402830185811115611b8457611b83611b49565b5b835b81811015611bad5780611b99888261183f565b845260208401935050602081019050611b86565b5050509392505050565b600082601f830112611bcc57611bcb611854565b5b8135611bdc848260208601611b4e565b91505092915050565b600080600080600060a08688031215611c0157611c006117b6565b5b6000611c0f88828901611809565b9550506020611c2088828901611809565b945050604086013567ffffffffffffffff811115611c4157611c406117bb565b5b611c4d88828901611bb7565b935050606086013567ffffffffffffffff811115611c6e57611c6d6117bb565b5b611c7a88828901611bb7565b925050608086013567ffffffffffffffff811115611c9b57611c9a6117bb565b5b611ca78882890161196c565b9150509295509295909350565b600060208284031215611cca57611cc96117b6565b5b6000611cd88482850161183f565b91505092915050565b60008115159050919050565b611cf681611ce1565b8114611d0157600080fd5b50565b600081359050611d1381611ced565b92915050565b600080600080600080600080610100898b031215611d3a57611d396117b6565b5b6000611d488b828c01611d04565b9850506020611d598b828c0161183f565b9750506040611d6a8b828c0161183f565b9650506060611d7b8b828c0161183f565b9550506080611d8c8b828c0161183f565b94505060a0611d9d8b828c0161183f565b93505060c0611dae8b828c0161183f565b92505060e0611dbf8b828c0161183f565b9150509295985092959890939650565b611dd88161181e565b82525050565b6000602082019050611df36000830184611dcf565b92915050565b600080600080600060a08688031215611e1557611e146117b6565b5b6000611e2388828901611809565b9550506020611e3488828901611809565b9450506040611e458882890161183f565b9350506060611e568882890161183f565b925050608086013567ffffffffffffffff811115611e7757611e766117bb565b5b611e838882890161196c565b9150509295509295909350565b600082825260208201905092915050565b7f596f7520617265206e6f7420617574686f72697a656420666f7220746869732060008201527f616374696f6e0000000000000000000000000000000000000000000000000000602082015250565b6000611efd602683611e90565b9150611f0882611ea1565b604082019050919050565b60006020820190508181036000830152611f2c81611ef0565b9050919050565b7f796f752063616e6e6f7420707572636861736520796f7572206f776e20746f6b60008201527f656e730000000000000000000000000000000000000000000000000000000000602082015250565b6000611f8f602383611e90565b9150611f9a82611f33565b604082019050919050565b60006020820190508181036000830152611fbe81611f82565b9050919050565b7f497320616c726561647920636c6f736564000000000000000000000000000000600082015250565b6000611ffb601183611e90565b915061200682611fc5565b602082019050919050565b6000602082019050818103600083015261202a81611fee565b9050919050565b7f436f6d6d756e69747920746f6b656e20616d6f756e7420697320696e7375666660008201527f696369656e740000000000000000000000000000000000000000000000000000602082015250565b600061208d602683611e90565b915061209882612031565b604082019050919050565b600060208201905081810360008301526120bc81612080565b9050919050565b7f476f7665726e616e636520746f6b656e20616d6f756e7420697320696e73756660008201527f66696369656e7400000000000000000000000000000000000000000000000000602082015250565b600061211f602783611e90565b915061212a826120c3565b604082019050919050565b6000602082019050818103600083015261214e81612112565b9050919050565b7f4e487b7100000000000000000000000000000000000000000000000000000000600052601160045260246000fd5b600061218f8261181e565b915061219a8361181e565b9250817fffffffffffffffffffffffffffffffffffffffffffffffffffffffffffffffff04831182151516156121d3576121d2612155565b5b828202905092915050565b7f496e76616c696420526174696f00000000000000000000000000000000000000600082015250565b6000612214600d83611e90565b915061221f826121de565b602082019050919050565b6000602082019050818103600083015261224381612207565b9050919050565b60006122558261181e565b91506122608361181e565b9250827fffffffffffffffffffffffffffffffffffffffffffffffffffffffffffffffff0382111561229557612294612155565b5b828201905092915050565b6000610180820190506122b6600083018f611dcf565b6122c3602083018e611aa0565b6122d0604083018d611aa0565b6122dd606083018c611dcf565b6122ea608083018b611dcf565b6122f760a083018a611dcf565b61230460c0830189611dcf565b61231160e0830188611dcf565b61231f610100830187611dcf565b61232d610120830186611dcf565b61233b610140830185611dcf565b612349610160830184611dcf565b9d9c50505050505050505050505050565b60006123658261181e565b91506123708361181e565b92508282101561238357612382612155565b5b828203905092915050565b6000819050919050565b6000819050919050565b60006123bd6123b86123b38461238e565b612398565b61181e565b9050919050565b6123cd816123a2565b82525050565b60006060820190506123e86000830186611dcf565b6123f56020830185611dcf565b61240260408301846123c4565b949350505050565b7f796f752061726520756e617574686f72697a656420666f72207468697320616360008201527f74696f6e00000000000000000000000000000000000000000000000000000000602082015250565b6000612466602483611e90565b91506124718261240a565b604082019050919050565b6000602082019050818103600083015261249581612459565b9050919050565b6000815190506124ab81611828565b92915050565b6000602082840312156124c7576124c66117b6565b5b60006124d58482850161249c565b91505092915050565b600082825260208201905092915050565b7f53616c65206f726465722063616e63656c656400000000000000000000000000600082015250565b60006125256013836124de565b9150612530826124ef565b602082019050919050565b600060a0820190506125506000830187611aa0565b61255d6020830186611aa0565b61256a6040830185611dcf565b6125776060830184611dcf565b818103608083015261258881612518565b905095945050505050565b60006060820190506125a86000830186611dcf565b6125b56020830185611dcf565b6125c26040830184611dcf565b949350505050565b7f496e76616c696420636f6d6d756e69747920746f6b656e206964000000000000600082015250565b6000612600601a83611e90565b915061260b826125ca565b602082019050919050565b6000602082019050818103600083015261262f816125f3565b9050919050565b7f496e76616c696420676f7665726e616e636520746f6b656e2069640000000000600082015250565b600061266c601b83611e90565b915061267782612636565b602082019050919050565b6000602082019050818103600083015261269b8161265f565b9050919050565b7f596f752063616e6e6f742068617665203020636f6d6d756e69747920746f6b6560008201527f6e20616d6f756e74000000000000000000000000000000000000000000000000602082015250565b60006126fe602883611e90565b9150612709826126a2565b604082019050919050565b6000602082019050818103600083015261272d816126f1565b9050919050565b7f596f752063616e6e6f742068617665203020676f7665726e616e636520746f6b60008201527f656e20616d6f756e740000000000000000000000000000000000000000000000602082015250565b6000612790602983611e90565b915061279b82612734565b604082019050919050565b600060208201905081810360008301526127bf81612783565b9050919050565b7f4e487b7100000000000000000000000000000000000000000000000000000000600052603260045260246000fd5b7f53616c65206f7264657200000000000000000000000000000000000000000000600082015250565b600061282b600a836124de565b9150612836826127f5565b602082019050919050565b600060a0820190506128566000830187611aa0565b6128636020830186611aa0565b6128706040830185611dcf565b61287d6060830184611dcf565b818103608083015261288e8161281e565b905095945050505050565b60006128a48261181e565b91507fffffffffffffffffffffffffffffffffffffffffffffffffffffffffffffffff8214156128d7576128d6612155565b5b600182019050919050565b6128eb81611ce1565b82525050565b600061016082019050612907600083018e611dcf565b612914602083018d611aa0565b612921604083018c6128e2565b61292e606083018b611dcf565b61293b608083018a611dcf565b61294860a0830189611dcf565b61295560c0830188611dcf565b61296260e0830187611dcf565b612970610100830186611dcf565b61297e610120830185611dcf565b61298c610140830184611dcf565b9c9b505050505050505050505050565b600081519050919050565b60005b838110156129c55780820151818401526020810190506129aa565b838111156129d4576000848401525b50505050565b60006129e58261299c565b6129ef8185611e90565b93506129ff8185602086016129a7565b612a088161185e565b840191505092915050565b60006020820190508181036000830152612a2d81846129da565b905092915050565b7f4e487b7100000000000000000000000000000000000000000000000000000000600052601260045260246000fd5b6000612a6f8261181e565b9150612a7a8361181e565b925082612a8a57612a89612a35565b5b828204905092915050565b7f53616c65207472616e73616374696f6e20666565000000000000000000000000600082015250565b6000612acb6014836124de565b9150612ad682612a95565b602082019050919050565b600060a082019050612af66000830187611aa0565b612b036020830186611aa0565b612b106040830185611dcf565b612b1d6060830184611dcf565b8181036080830152612b2e81612abe565b905095945050505050565b7f53616c6520746f6b656e20707269636520616d6f756e74207472616e7366657260008201527f20746f2073656c6c657200000000000000000000000000000000000000000000602082015250565b6000612b95602a836124de565b9150612ba082612b39565b604082019050919050565b600060a082019050612bc06000830187611aa0565b612bcd6020830186611aa0565b612bda6040830185611dcf565b612be76060830184611dcf565b8181036080830152612bf881612b88565b905095945050505050565b7f53616c6520746f6b656e207472616e7366657220746f20627579657200000000600082015250565b6000612c39601c836124de565b9150612c4482612c03565b602082019050919050565b600060a082019050612c646000830187611aa0565b612c716020830186611aa0565b612c7e6040830185611dcf565b612c8b6060830184611dcf565b8181036080830152612c9c81612c2c565b90509594505050505056fea264697066735822122016a942f5941cdfa4c5a3fcc4262bde59f070318b551cd10648f3f5416d1d193264736f6c634300080c0033",
  "immutableReferences": {},
  "source": "pragma solidity ^0.8.0;\n\nimport \"@openzeppelin/contracts/utils/Counters.sol\";\nimport \"@openzeppelin/contracts/access/Ownable.sol\";\nimport \"@openzeppelin/contracts/utils/math/SafeMath.sol\";\nimport \"./RecordsContract.sol\";\nimport \"./TreasuryContract.sol\";\n\ncontract OrdersContract {\n    address public RECORDS_CONTRACT_ADDRESS;\n    address public VOTING_CONTRACT_ADDRESS;\n    address public TREASURY_CONTRACT_ADDRESS;\n    address public WALLET_ADDRESS;\n    uint8 TRANSACTION_FEE = 50; //This is 0.50%\n    address OWNER;\n\n    //TODO: Convert the contract into buy order contract and remove the token transfering process to order contract from users wallet\n    /**\n        Buyer creates buying order and deposits amount.\n        seller sell the token and receives the CRD token, \n        then tokens are transferred to buyer\n     */\n\n    struct Order {\n        bool isClosed;\n        bool isLockedInRatio;\n        address buyer;\n        uint256 creationDate;\n        uint256 communityTokenId;\n        uint256 communityTokenAmount;\n        uint256 communityTokenPrice;\n        uint256 governanceTokenId;\n        uint256 governanceTokenAmount;\n        uint256 governanceTokenPrice;\n        uint256 crdBalance;\n    }\n\n    /**\n        @dev this is event which is created when a user creates order to sell his tokens\n        @param saleId this is the Id of the Buy order\n        @param buyer this is the address of the owner or the Buy order\n        @param isLockedInRatio the is denotes wether the user wants to sell the token individually or in a ratio\n        @param creationDate this is the creation date of the Buy order\n        @param communityTokenId this is the community token id that is involved in the Buy order\n        @param communityTokenAmount this is the community token amount for Buy order\n        @param communityTokenPrice this is the price of single token\n        @param governanceTokenId this is the community token id that is involved in the Buy order\n        @param governanceTokenAmount this is the community token amount for Buy order\n        @param governanceTokenPrice this is the price of single token\n        @param crdBalance this is the total balance remaining for the order\n     */\n    event BuyOrder(\n        uint256 saleId,\n        address buyer,\n        bool isLockedInRatio,\n        uint256 creationDate,\n        uint256 communityTokenId,\n        uint256 communityTokenAmount,\n        uint256 communityTokenPrice,\n        uint256 governanceTokenId,\n        uint256 governanceTokenAmount,\n        uint256 governanceTokenPrice,\n        uint256 crdBalance\n    );\n\n    /**\n        @dev this is event which is created when a user purchases any sale order\n        @param saleId this is the Id of the sale order\n        @param seller this is the address of the person who sold the tokens in exchange for the crd\n        @param buyer this is the address of the owner or the sale order\n        @param creationDate this is the date when tokens were purchased\n        @param communityTokenId this is the community token id that is involved in the sale\n        @param communityTokenAmount this is the community token amount for sale\n        @param communityTokenPrice this is the price of single token\n        @param governanceTokenId this is the community token id that is involved in the sale\n        @param governanceTokenAmount this is the community token amount for sale\n        @param governanceTokenPrice this is the price of single token\n        @param amountTransferred this is the total amount paid\n        @param platformFees this is the platform fees taken by crowdrecords\n     */\n    event SaleBought(\n        uint256 saleId,\n        address seller,\n        address buyer,\n        uint256 creationDate,\n        uint256 communityTokenId,\n        uint256 communityTokenAmount,\n        uint256 communityTokenPrice,\n        uint256 governanceTokenId,\n        uint256 governanceTokenAmount,\n        uint256 governanceTokenPrice,\n        uint256 amountTransferred,\n        uint256 platformFees\n    );\n\n    /**\n        @dev this event is emmited when user closes his/her sale order\n        @param saleId This is the sale Id of the sale order \n        @param creationDate This is the date when the event took place \n        @param remainingBalance This is the amount that was remaining from the partially fulfilled orders\n     */\n    event OrderClose(\n        uint256 saleId,\n        uint256 creationDate,\n        uint256 remainingBalance\n    );\n\n    mapping(uint256 => Order) orderBook;\n    uint256 orderId = 0;\n\n    constructor() {\n        OWNER = msg.sender;\n    }\n\n    /**\n     * @dev Modifier to check that the person who accesses a specific function is the owner of contract himself.\n     */\n    modifier ownerOnly() {\n        require(msg.sender == OWNER, \"You are not authorized for this action\");\n        _;\n    }\n\n    /**\n     * @dev This function sets the treasury Contract address\n     */\n    function setTreasuryContractAddress(address newTreasuryContractAddress)\n        public\n        ownerOnly\n    {\n        TREASURY_CONTRACT_ADDRESS = newTreasuryContractAddress;\n    }\n\n    /**\n     * @dev This function sets the owner of the wallet address\n     */\n    function setWalletAddress(address newWalletAddress) public ownerOnly {\n        WALLET_ADDRESS = newWalletAddress;\n    }\n\n    //safeTransferFrom\n\n    /**\n     * @dev This function is called to create a new saleOrder\n     */\n    function createBuyOrder(\n        bool isLockedInRatio,\n        uint256 recordId,\n        uint256 communityTokenId,\n        uint256 communityTokenAmount,\n        uint256 communityTokenPrice,\n        uint256 governanceTokenId,\n        uint256 governanceTokenAmount,\n        uint256 governanceTokenPrice\n    ) public returns (uint256 saleOrderId) {\n        TreasuryContract treasuryContract = TreasuryContract(\n            TREASURY_CONTRACT_ADDRESS\n        );\n\n        require(\n            treasuryContract.getCommunityTokenId(recordId) == communityTokenId,\n            \"Invalid community token id\"\n        );\n        require(\n            treasuryContract.getGovernanceTokenId(recordId) ==\n                governanceTokenId,\n            \"Invalid governance token id\"\n        );\n\n        if (isLockedInRatio) {\n            require(\n                communityTokenAmount > 0,\n                \"You cannot have 0 community token amount\"\n            );\n\n            require(\n                governanceTokenAmount > 0,\n                \"You cannot have 0 governance token amount\"\n            );\n        }\n\n        //Calculate the total CRD required for the deal and then transfer them\n        uint256[2] memory tokenTotal;\n        tokenTotal[0] = governanceTokenAmount * governanceTokenPrice;\n        tokenTotal[1] = communityTokenAmount * communityTokenPrice;\n\n        //Transferring the CRD token into contract to lock it\n        treasuryContract.safeTransferFrom(\n            tx.origin,\n            address(this),\n            treasuryContract.CRD(),\n            tokenTotal[1] + tokenTotal[0],\n            \"Sale order\"\n        );\n\n        uint256 newOrderId = orderId;\n        orderId++;\n\n        Order memory order = Order({\n            isClosed: false,\n            buyer: tx.origin,\n            isLockedInRatio: isLockedInRatio,\n            creationDate: block.timestamp,\n            communityTokenId: communityTokenId,\n            communityTokenAmount: communityTokenAmount,\n            communityTokenPrice: communityTokenPrice,\n            governanceTokenId: governanceTokenId,\n            governanceTokenAmount: governanceTokenAmount,\n            governanceTokenPrice: governanceTokenPrice,\n            crdBalance: tokenTotal[0] + tokenTotal[1]\n        });\n\n        orderBook[orderId] = order;\n\n        emit BuyOrder({\n            saleId: orderId,\n            buyer: order.buyer,\n            isLockedInRatio: isLockedInRatio,\n            creationDate: order.creationDate,\n            communityTokenId: communityTokenId,\n            communityTokenAmount: communityTokenAmount,\n            communityTokenPrice: communityTokenPrice,\n            governanceTokenId: governanceTokenId,\n            governanceTokenAmount: governanceTokenAmount,\n            governanceTokenPrice: governanceTokenPrice,\n            crdBalance: tokenTotal[0] + tokenTotal[1]\n        });\n\n        return newOrderId;\n    }\n\n    /**\n     * @dev This function is called to cancel the existing sale order\n     */\n    function cancelBuyOrder(uint256 saleId) public {\n        require(\n            orderBook[orderId].buyer == msg.sender,\n            \"you are unauthorized for this action\"\n        );\n\n        require(orderBook[orderId].isClosed == false, \"Is already closed\");\n\n        Order memory order = orderBook[orderId];\n\n        TreasuryContract treasuryContract = TreasuryContract(\n            TREASURY_CONTRACT_ADDRESS\n        );\n\n        //--- Need to have additional checks for balance of the sale and also to deduct the tokens from the sale struct\n        //Send back the remaining amount to user\n        treasuryContract.safeTransferFrom(\n            address(this),\n            order.buyer,\n            treasuryContract.CRD(),\n            order.crdBalance,\n            \"Sale order canceled\"\n        );\n\n        orderBook[orderId].isClosed = true;\n\n        emit OrderClose({\n            saleId: saleId,\n            creationDate: block.timestamp,\n            remainingBalance: order.crdBalance\n        });\n    }\n\n    event DEBUG(\n        uint256 amount,\n        uint256 fees,\n        uint256 totalCRD,\n        uint256 otherTest\n    );\n\n    /**\n     * @dev This function is called to accept the existing buy order\n     */\n    function acceptBuyOrder(\n        uint256 saleId,\n        uint256 governanceTokenAmount,\n        uint256 communityTokenAmount\n    ) public {\n        require(\n            orderBook[orderId].buyer != msg.sender,\n            \"you cannot purchase your own tokens\"\n        );\n\n        require(orderBook[orderId].isClosed == false, \"Is already closed\");\n\n        Order storage order = orderBook[orderId];\n\n        //This will check if the amount to purchase is less or equal than the order that is generated\n        require(\n            order.communityTokenAmount >= communityTokenAmount,\n            \"Community token amount is insufficient\"\n        );\n        require(\n            order.governanceTokenAmount >= governanceTokenAmount,\n            \"Governance token amount is insufficient\"\n        );\n\n        if (order.isLockedInRatio) {\n            //Multiply bigger value to make sure that we have proper ratio.\n            //As if we don't do that then something like 3/2 and 5/4 will be considers same and they will result in a false positive\n            if (order.communityTokenAmount > order.governanceTokenAmount) {\n                require(\n                    SafeMath.div(\n                        communityTokenAmount * 100,\n                        governanceTokenAmount,\n                        \"Invalid Ratio\"\n                    ) ==\n                        SafeMath.div(\n                            order.communityTokenAmount * 100,\n                            order.governanceTokenAmount,\n                            \"Invalid Ratio\"\n                        ),\n                    \"Invalid Ratio\"\n                );\n            } else {\n                require(\n                    SafeMath.div(\n                        governanceTokenAmount * 100,\n                        communityTokenAmount,\n                        \"Invalid Ratio\"\n                    ) ==\n                        SafeMath.div(\n                            order.governanceTokenAmount * 100,\n                            order.communityTokenAmount,\n                            \"Invalid Ratio\"\n                        ),\n                    \"Invalid Ratio\"\n                );\n            }\n        }\n\n        uint256 amount = 0;\n        uint256 fees = 0;\n        if (order.communityTokenAmount > 0) {\n            (\n                uint256 cost,\n                uint256 platformFees\n            ) = _transferTokensAndTransactionCharge(\n                    communityTokenAmount,\n                    order.communityTokenPrice,\n                    order.communityTokenId,\n                    order.buyer\n                );\n            amount = amount + cost;\n            fees = fees + platformFees;\n        }\n\n        if (order.governanceTokenAmount > 0) {\n            (\n                uint256 cost,\n                uint256 platformFees\n            ) = _transferTokensAndTransactionCharge(\n                    governanceTokenAmount,\n                    order.governanceTokenPrice,\n                    order.governanceTokenId,\n                    order.buyer\n                );\n            amount = amount + cost;\n            fees = fees + platformFees;\n        }\n\n        emit SaleBought({\n            saleId: saleId,\n            seller: order.buyer,\n            buyer: msg.sender,\n            creationDate: block.timestamp,\n            communityTokenId: order.communityTokenId,\n            communityTokenAmount: communityTokenAmount,\n            communityTokenPrice: order.communityTokenPrice,\n            governanceTokenId: order.governanceTokenId,\n            governanceTokenAmount: governanceTokenAmount,\n            governanceTokenPrice: order.governanceTokenPrice,\n            amountTransferred: amount + fees,\n            platformFees: fees\n        });\n\n        order.communityTokenAmount =\n            order.communityTokenAmount -\n            communityTokenAmount;\n\n        order.governanceTokenAmount =\n            order.governanceTokenAmount -\n            governanceTokenAmount;\n\n        order.crdBalance = order.crdBalance - amount - fees;\n\n        if (\n            order.communityTokenAmount == 0 && order.governanceTokenAmount == 0\n        ) {\n            order.isClosed = true;\n            emit OrderClose({\n                saleId: saleId,\n                creationDate: block.timestamp,\n                remainingBalance: 0\n            });\n        }\n    }\n\n    /// @notice This is only for internal use\n    /// @dev This function is responsible to transfer the tokens at the time of purchase and it is also responsible for transfering the fees.\n    /// @param tokenAmount This is the amount of token to transfer\n    /// @param tokenPrice This is the token price at which the tokens are being sold at\n    /// @param tokenId this is the ID of the token to transfer\n    function _transferTokensAndTransactionCharge(\n        uint256 tokenAmount,\n        uint256 tokenPrice,\n        uint256 tokenId,\n        address receiver\n    ) internal returns (uint256 totalCost, uint256 totalFee) {\n        ///Change the function so that it will transfer the community and governance tokens from the sellers account to buyer account\n        //then it would transfer the CRD tokens from contract account to sellers account after deducting the transaction fees.\n\n        uint256 transactionAmount = (tokenAmount * tokenPrice);\n        uint256 transactionFee = (transactionAmount * TRANSACTION_FEE) / 10000;\n        //Removing the transaction fee from the transaction amount\n        transactionAmount = transactionAmount - transactionFee;\n\n        TreasuryContract treasuryContract = TreasuryContract(\n            TREASURY_CONTRACT_ADDRESS\n        );\n\n        treasuryContract.safeTransferFrom(\n            msg.sender,\n            WALLET_ADDRESS,\n            treasuryContract.CRD(),\n            transactionFee,\n            \"Sale transaction fee\"\n        );\n\n        treasuryContract.safeTransferFrom(\n            address(this),\n            msg.sender,\n            treasuryContract.CRD(),\n            transactionAmount,\n            \"Sale token price amount transfer to seller\"\n        );\n\n        treasuryContract.safeTransferFrom(\n            msg.sender,\n            receiver,\n            tokenId,\n            tokenAmount,\n            \"Sale token transfer to buyer\"\n        );\n\n        return (transactionAmount, transactionFee);\n    }\n\n    /**\n    Below code are for transfer of tokens from ERC1155 standard contract\n     */\n    function onERC1155Received(\n        address,\n        address,\n        uint256,\n        uint256,\n        bytes memory\n    ) public virtual returns (bytes4) {\n        return this.onERC1155Received.selector;\n    }\n\n    function onERC1155BatchReceived(\n        address,\n        address,\n        uint256[] memory,\n        uint256[] memory,\n        bytes memory\n    ) public virtual returns (bytes4) {\n        return this.onERC1155BatchReceived.selector;\n    }\n\n    function onERC721Received(\n        address,\n        address,\n        uint256,\n        bytes memory\n    ) public virtual returns (bytes4) {\n        return this.onERC721Received.selector;\n    }\n}\n",
  "sourcePath": "/Users/a1/Desktop/Office/projects/CrowdRecords/Contracts/contracts/OrdersContract.sol",
  "compiler": {
    "name": "solc",
    "version": "0.8.12+commit.f00d7308.Emscripten.clang"
  },
  "schemaVersion": "3.4.6",
  "updatedAt": "2022-07-28T07:30:31.829Z",
  "networkType": "ethereum",
  "devdoc": {
    "events": {
      "BuyOrder(uint256,address,bool,uint256,uint256,uint256,uint256,uint256,uint256,uint256,uint256)": {
        "details": "this is event which is created when a user creates order to sell his tokens",
        "params": {
          "buyer": "this is the address of the owner or the Buy order",
          "communityTokenAmount": "this is the community token amount for Buy order",
          "communityTokenId": "this is the community token id that is involved in the Buy order",
          "communityTokenPrice": "this is the price of single token",
          "crdBalance": "this is the total balance remaining for the order",
          "creationDate": "this is the creation date of the Buy order",
          "governanceTokenAmount": "this is the community token amount for Buy order",
          "governanceTokenId": "this is the community token id that is involved in the Buy order",
          "governanceTokenPrice": "this is the price of single token",
          "isLockedInRatio": "the is denotes wether the user wants to sell the token individually or in a ratio",
          "saleId": "this is the Id of the Buy order"
        }
      },
      "OrderClose(uint256,uint256,uint256)": {
        "details": "this event is emmited when user closes his/her sale order",
        "params": {
          "creationDate": "This is the date when the event took place ",
          "remainingBalance": "This is the amount that was remaining from the partially fulfilled orders",
          "saleId": "This is the sale Id of the sale order "
        }
      },
      "SaleBought(uint256,address,address,uint256,uint256,uint256,uint256,uint256,uint256,uint256,uint256,uint256)": {
        "details": "this is event which is created when a user purchases any sale order",
        "params": {
          "amountTransferred": "this is the total amount paid",
          "buyer": "this is the address of the owner or the sale order",
          "communityTokenAmount": "this is the community token amount for sale",
          "communityTokenId": "this is the community token id that is involved in the sale",
          "communityTokenPrice": "this is the price of single token",
          "creationDate": "this is the date when tokens were purchased",
          "governanceTokenAmount": "this is the community token amount for sale",
          "governanceTokenId": "this is the community token id that is involved in the sale",
          "governanceTokenPrice": "this is the price of single token",
          "platformFees": "this is the platform fees taken by crowdrecords",
          "saleId": "this is the Id of the sale order",
          "seller": "this is the address of the person who sold the tokens in exchange for the crd"
        }
      }
    },
    "kind": "dev",
    "methods": {
      "acceptBuyOrder(uint256,uint256,uint256)": {
        "details": "This function is called to accept the existing buy order"
      },
      "cancelBuyOrder(uint256)": {
        "details": "This function is called to cancel the existing sale order"
      },
      "createBuyOrder(bool,uint256,uint256,uint256,uint256,uint256,uint256,uint256)": {
        "details": "This function is called to create a new saleOrder"
      },
      "setTreasuryContractAddress(address)": {
        "details": "This function sets the treasury Contract address"
      },
      "setWalletAddress(address)": {
        "details": "This function sets the owner of the wallet address"
      }
    },
    "version": 1
  },
  "userdoc": {
    "kind": "user",
    "methods": {
      "onERC1155Received(address,address,uint256,uint256,bytes)": {
        "notice": "Below code are for transfer of tokens from ERC1155 standard contract"
      }
    },
    "version": 1
  }
}