{
  "contractName": "RecordsContract",
  "abi": [
    {
      "inputs": [
        {
          "internalType": "address",
          "name": "owner",
          "type": "address"
        },
        {
          "internalType": "address",
          "name": "contributionContractAddress",
          "type": "address"
        },
        {
          "internalType": "address",
          "name": "recordsVotingContract",
          "type": "address"
        }
      ],
      "stateMutability": "nonpayable",
      "type": "constructor"
    },
    {
      "anonymous": false,
      "inputs": [
        {
          "indexed": false,
          "internalType": "uint8",
          "name": "version",
          "type": "uint8"
        }
      ],
      "name": "Initialized",
      "type": "event"
    },
    {
      "anonymous": false,
      "inputs": [
        {
          "indexed": false,
          "internalType": "uint256",
          "name": "recordId",
          "type": "uint256"
        },
        {
          "indexed": false,
          "internalType": "string",
          "name": "name",
          "type": "string"
        },
        {
          "indexed": false,
          "internalType": "string",
          "name": "image",
          "type": "string"
        },
        {
          "indexed": false,
          "internalType": "uint256",
          "name": "seedId",
          "type": "uint256"
        },
        {
          "indexed": false,
          "internalType": "address",
          "name": "owner",
          "type": "address"
        },
        {
          "indexed": false,
          "internalType": "uint256",
          "name": "parentId",
          "type": "uint256"
        },
        {
          "indexed": false,
          "internalType": "string",
          "name": "recordCategory",
          "type": "string"
        },
        {
          "indexed": false,
          "internalType": "uint256",
          "name": "creationDate",
          "type": "uint256"
        }
      ],
      "name": "RecordCreated",
      "type": "event"
    },
    {
      "inputs": [],
      "name": "CONTRIBUTION_CONTRACT_ADDRESS",
      "outputs": [
        {
          "internalType": "address",
          "name": "",
          "type": "address"
        }
      ],
      "stateMutability": "view",
      "type": "function",
      "constant": true
    },
    {
      "inputs": [],
      "name": "CONTROLLER_CONTRACT_ADDRESS",
      "outputs": [
        {
          "internalType": "address",
          "name": "",
          "type": "address"
        }
      ],
      "stateMutability": "view",
      "type": "function",
      "constant": true
    },
    {
      "inputs": [],
      "name": "OWNER",
      "outputs": [
        {
          "internalType": "address",
          "name": "",
          "type": "address"
        }
      ],
      "stateMutability": "view",
      "type": "function",
      "constant": true
    },
    {
      "inputs": [],
      "name": "RECORDS_VOTING_CONTRACT_ADDRESS",
      "outputs": [
        {
          "internalType": "address",
          "name": "",
          "type": "address"
        }
      ],
      "stateMutability": "view",
      "type": "function",
      "constant": true
    },
    {
      "inputs": [],
      "name": "contributionContract",
      "outputs": [
        {
          "internalType": "contract IContribution",
          "name": "",
          "type": "address"
        }
      ],
      "stateMutability": "view",
      "type": "function",
      "constant": true
    },
    {
      "inputs": [
        {
          "internalType": "uint256",
          "name": "",
          "type": "uint256"
        },
        {
          "internalType": "uint256",
          "name": "",
          "type": "uint256"
        }
      ],
      "name": "recordContributions",
      "outputs": [
        {
          "internalType": "uint256",
          "name": "",
          "type": "uint256"
        }
      ],
      "stateMutability": "view",
      "type": "function",
      "constant": true
    },
    {
      "inputs": [
        {
          "internalType": "uint256",
          "name": "",
          "type": "uint256"
        }
      ],
      "name": "recordData",
      "outputs": [
        {
          "internalType": "string",
          "name": "name",
          "type": "string"
        },
        {
          "internalType": "string",
          "name": "image",
          "type": "string"
        },
        {
          "internalType": "uint256",
          "name": "seedId",
          "type": "uint256"
        },
        {
          "internalType": "uint256",
          "name": "parentId",
          "type": "uint256"
        },
        {
          "internalType": "address",
          "name": "owner",
          "type": "address"
        },
        {
          "internalType": "string",
          "name": "recordCategory",
          "type": "string"
        },
        {
          "internalType": "uint256",
          "name": "creationDate",
          "type": "uint256"
        },
        {
          "internalType": "bool",
          "name": "isPresent",
          "type": "bool"
        }
      ],
      "stateMutability": "view",
      "type": "function",
      "constant": true
    },
    {
      "inputs": [
        {
          "internalType": "uint256",
          "name": "",
          "type": "uint256"
        },
        {
          "internalType": "uint256",
          "name": "",
          "type": "uint256"
        }
      ],
      "name": "recordVersion",
      "outputs": [
        {
          "internalType": "uint256",
          "name": "",
          "type": "uint256"
        }
      ],
      "stateMutability": "view",
      "type": "function",
      "constant": true
    },
    {
      "inputs": [
        {
          "internalType": "uint256",
          "name": "",
          "type": "uint256"
        }
      ],
      "name": "seedIdUsed",
      "outputs": [
        {
          "internalType": "bool",
          "name": "",
          "type": "bool"
        }
      ],
      "stateMutability": "view",
      "type": "function",
      "constant": true
    },
    {
      "inputs": [
        {
          "internalType": "address",
          "name": "controllerContractAddress",
          "type": "address"
        }
      ],
      "name": "initialize",
      "outputs": [],
      "stateMutability": "nonpayable",
      "type": "function"
    },
    {
      "inputs": [
        {
          "components": [
            {
              "internalType": "string",
              "name": "name",
              "type": "string"
            },
            {
              "internalType": "string",
              "name": "image",
              "type": "string"
            },
            {
              "internalType": "string",
              "name": "recordCategory",
              "type": "string"
            },
            {
              "internalType": "uint256",
              "name": "seedId",
              "type": "uint256"
            }
          ],
          "internalType": "struct RecordsContract.NewRecordPayload",
          "name": "payload",
          "type": "tuple"
        },
        {
          "internalType": "address",
          "name": "owner",
          "type": "address"
        }
      ],
      "name": "controllerCreateNewRecord",
      "outputs": [
        {
          "internalType": "uint256",
          "name": "",
          "type": "uint256"
        }
      ],
      "stateMutability": "nonpayable",
      "type": "function"
    },
    {
      "inputs": [
        {
          "components": [
            {
              "internalType": "string",
              "name": "name",
              "type": "string"
            },
            {
              "internalType": "string",
              "name": "image",
              "type": "string"
            },
            {
              "internalType": "string",
              "name": "recordCategory",
              "type": "string"
            },
            {
              "internalType": "uint256",
              "name": "seedId",
              "type": "uint256"
            }
          ],
          "internalType": "struct RecordsContract.NewRecordPayload",
          "name": "payload",
          "type": "tuple"
        },
        {
          "internalType": "address payable",
          "name": "platformWallet",
          "type": "address"
        },
        {
          "internalType": "uint256",
          "name": "platformFee",
          "type": "uint256"
        }
      ],
      "name": "createNewRecord",
      "outputs": [
        {
          "internalType": "uint256",
          "name": "",
          "type": "uint256"
        }
      ],
      "stateMutability": "payable",
      "type": "function",
      "payable": true
    },
    {
      "inputs": [
        {
          "internalType": "uint256",
          "name": "recordId",
          "type": "uint256"
        },
        {
          "internalType": "uint256",
          "name": "contributionId",
          "type": "uint256"
        }
      ],
      "name": "pushContributionIdToContributionList",
      "outputs": [],
      "stateMutability": "nonpayable",
      "type": "function"
    },
    {
      "inputs": [
        {
          "internalType": "uint256",
          "name": "recordId",
          "type": "uint256"
        }
      ],
      "name": "ownerOf",
      "outputs": [
        {
          "internalType": "address",
          "name": "",
          "type": "address"
        }
      ],
      "stateMutability": "nonpayable",
      "type": "function"
    },
    {
      "inputs": [
        {
          "internalType": "uint256",
          "name": "oldRecordId",
          "type": "uint256"
        },
        {
          "internalType": "string",
          "name": "name",
          "type": "string"
        },
        {
          "internalType": "string",
          "name": "image",
          "type": "string"
        },
        {
          "internalType": "string",
          "name": "recordCategory",
          "type": "string"
        },
        {
          "internalType": "address",
          "name": "caller",
          "type": "address"
        },
        {
          "internalType": "uint256",
          "name": "ballotId",
          "type": "uint256"
        }
      ],
      "name": "createNewRecordVersion",
      "outputs": [
        {
          "components": [
            {
              "internalType": "string",
              "name": "name",
              "type": "string"
            },
            {
              "internalType": "string",
              "name": "image",
              "type": "string"
            },
            {
              "internalType": "uint256",
              "name": "seedId",
              "type": "uint256"
            },
            {
              "internalType": "uint256",
              "name": "parentId",
              "type": "uint256"
            },
            {
              "internalType": "address",
              "name": "owner",
              "type": "address"
            },
            {
              "internalType": "string",
              "name": "recordCategory",
              "type": "string"
            },
            {
              "internalType": "uint256",
              "name": "creationDate",
              "type": "uint256"
            },
            {
              "internalType": "bool",
              "name": "isPresent",
              "type": "bool"
            }
          ],
          "internalType": "struct RecordsContract.RecordStruct",
          "name": "",
          "type": "tuple"
        }
      ],
      "stateMutability": "nonpayable",
      "type": "function"
    },
    {
      "inputs": [
        {
          "components": [
            {
              "internalType": "string",
              "name": "name",
              "type": "string"
            },
            {
              "internalType": "string",
              "name": "image",
              "type": "string"
            },
            {
              "internalType": "uint256",
              "name": "seedId",
              "type": "uint256"
            },
            {
              "internalType": "uint256",
              "name": "parentId",
              "type": "uint256"
            },
            {
              "internalType": "address",
              "name": "owner",
              "type": "address"
            },
            {
              "internalType": "string",
              "name": "recordCategory",
              "type": "string"
            },
            {
              "internalType": "uint256",
              "name": "creationDate",
              "type": "uint256"
            },
            {
              "internalType": "bool",
              "name": "isPresent",
              "type": "bool"
            }
          ],
          "internalType": "struct RecordsContract.RecordStruct",
          "name": "newRecordData",
          "type": "tuple"
        },
        {
          "internalType": "uint256[]",
          "name": "contributionIds",
          "type": "uint256[]"
        }
      ],
      "name": "createRecordFromData",
      "outputs": [
        {
          "internalType": "uint256",
          "name": "",
          "type": "uint256"
        }
      ],
      "stateMutability": "nonpayable",
      "type": "function"
    },
    {
      "inputs": [
        {
          "internalType": "uint256",
          "name": "oldVersionId",
          "type": "uint256"
        },
        {
          "internalType": "uint256",
          "name": "govTokenTotalSupply",
          "type": "uint256"
        },
        {
          "internalType": "uint256",
          "name": "govTokenOwnerBalanace",
          "type": "uint256"
        },
        {
          "internalType": "uint256",
          "name": "commTokenTotalSupply",
          "type": "uint256"
        },
        {
          "internalType": "uint256",
          "name": "commTokenOwnerBalanace",
          "type": "uint256"
        }
      ],
      "name": "validateNewRecordVersionParams",
      "outputs": [
        {
          "internalType": "bool",
          "name": "",
          "type": "bool"
        }
      ],
      "stateMutability": "view",
      "type": "function",
      "constant": true
    }
  ],
  "bytecode": "0x610100604052600060015560006002553480156200001c57600080fd5b506040516200252d3803806200252d8339810160408190526200003f9162000080565b6001600160a01b0392831660c0529082166080819052911660a05260e052620000ca565b80516001600160a01b03811681146200007b57600080fd5b919050565b6000806000606084860312156200009657600080fd5b620000a18462000063565b9250620000b16020850162000063565b9150620000c16040850162000063565b90509250925092565b60805160a05160c05160e05161240662000127600039600081816103ef015261138c0152600081816101830152610ed20152600081816103bb0152818161043e0152610a68015260008181610125015261092001526124066000f3fe60806040526004361061010e5760003560e01c8063acf6beb6116100a5578063c4d66de811610074578063d85d92be11610059578063d85d92be146103a9578063ddfdec60146103dd578063f208014d1461041157600080fd5b8063c4d66de814610355578063cd58b8d61461037557600080fd5b8063acf6beb6146102b6578063b512341e146102e6578063c10df2cf14610306578063c1befa6a1461032857600080fd5b80636fe25961116100e15780636fe25961146102195780639505809f146102395780639b6a6f0d146102595780639ba7367e1461028657600080fd5b806307c505b714610113578063117803e3146101715780634b02f22d146101a55780636352211e146101d3575b600080fd5b34801561011f57600080fd5b506101477f000000000000000000000000000000000000000000000000000000000000000081565b60405173ffffffffffffffffffffffffffffffffffffffff90911681526020015b60405180910390f35b34801561017d57600080fd5b506101477f000000000000000000000000000000000000000000000000000000000000000081565b3480156101b157600080fd5b506101c56101c0366004611ae2565b610424565b604051908152602001610168565b3480156101df57600080fd5b506101476101ee366004611bfd565b60009081526003602052604090206004015473ffffffffffffffffffffffffffffffffffffffff1690565b34801561022557600080fd5b506101c5610234366004611ccf565b6106ca565b34801561024557600080fd5b506101c5610254366004611d21565b610798565b34801561026557600080fd5b506007546101479073ffffffffffffffffffffffffffffffffffffffff1681565b34801561029257600080fd5b506102a66102a1366004611d43565b6107c9565b6040519015158152602001610168565b3480156102c257600080fd5b506102a66102d1366004611bfd565b60046020526000908152604090205460ff1681565b3480156102f257600080fd5b506101c5610301366004611d21565b6108ec565b34801561031257600080fd5b50610326610321366004611d21565b610908565b005b34801561033457600080fd5b50610348610343366004611d7e565b6109f0565b6040516101689190611ea7565b34801561036157600080fd5b50610326610370366004611f86565b610d96565b34801561038157600080fd5b50610395610390366004611bfd565b611000565b604051610168989796959493929190611fa3565b3480156103b557600080fd5b506101477f000000000000000000000000000000000000000000000000000000000000000081565b3480156103e957600080fd5b506101477f000000000000000000000000000000000000000000000000000000000000000081565b6101c561041f366004612024565b6111f8565b60003373ffffffffffffffffffffffffffffffffffffffff7f000000000000000000000000000000000000000000000000000000000000000016146104f0576040517f08c379a000000000000000000000000000000000000000000000000000000000815260206004820152603260248201527f554e415554484f52495a45443a204f4e4c595f5245434f5244535f564f54494e60448201527f475f434f4e54524143545f41444452455353000000000000000000000000000060648201526084015b60405180910390fd5b600180549060006105008361207e565b9091555050600154600081815260036020908152604090912085518051879361052d9284929101906117cf565b50602082810151805161054692600185019201906117cf565b50604082015160028201556060820151600382015560808201516004820180547fffffffffffffffffffffffff00000000000000000000000000000000000000001673ffffffffffffffffffffffffffffffffffffffff90921691909117905560a082015180516105c19160058401916020909101906117cf565b5060c082015160068281019190915560e090920151600790910180547fffffffffffffffffffffffffffffffffffffffffffffffffffffffffffffff00169115159190911790556000828152602091825260409020845161062492860190611853565b50600081815260066020908152604080832087820180518254600181810185559387528587200155606089018051865260058552838620805493840181558652948490209091018590558751928801519051935160a089015160c08a015193517f949e23886ff09844e2c2dbbb6cf2c14ca882bb5fb5f932b9220ead52fb31dc99966106bb968996909594919333939091906120de565b60405180910390a19392505050565b60075460009073ffffffffffffffffffffffffffffffffffffffff163314610774576040517f08c379a000000000000000000000000000000000000000000000000000000000815260206004820152602660248201527f554e415554484f52495a45443a204f4e4c595f434f4e54524f4c4c45525f434f60448201527f4e5452414354000000000000000000000000000000000000000000000000000060648201526084016104e7565b6107918360000151846020015185604001518660600151866115b5565b9392505050565b600560205281600052604060002081815481106107b457600080fd5b90600052602060002001600091509150505481565b60008581526003602052604081206007015460ff16610844576040517f08c379a000000000000000000000000000000000000000000000000000000000815260206004820152601960248201527f494e56414c49443a205245434f52445f4e4f545f464f554e440000000000000060448201526064016104e7565b8385101580156108545750818310155b6108e0576040517f08c379a000000000000000000000000000000000000000000000000000000000815260206004820152602660248201527f494e56414c49443a20555345525f42414c414e43455f4d4f52455f5448414e5f60448201527f535550504c59000000000000000000000000000000000000000000000000000060648201526084016104e7565b50600195945050505050565b600660205281600052604060002081815481106107b457600080fd5b3373ffffffffffffffffffffffffffffffffffffffff7f000000000000000000000000000000000000000000000000000000000000000016146109cd576040517f08c379a000000000000000000000000000000000000000000000000000000000815260206004820152602860248201527f554e415554484f52495a45443a204f4e4c595f434f4e545249425554494f4e5f60448201527f434f4e545241435400000000000000000000000000000000000000000000000060648201526084016104e7565b600091825260066020908152604083208054600181018255908452922090910155565b610a5060405180610100016040528060608152602001606081526020016000815260200160008152602001600073ffffffffffffffffffffffffffffffffffffffff16815260200160608152602001600081526020016000151581525090565b3373ffffffffffffffffffffffffffffffffffffffff7f00000000000000000000000000000000000000000000000000000000000000001614610b15576040517f08c379a000000000000000000000000000000000000000000000000000000000815260206004820152603260248201527f554e415554484f52495a45443a204f4e4c595f5245434f5244535f564f54494e60448201527f475f434f4e54524143545f41444452455353000000000000000000000000000060648201526084016104e7565b60008781526003602052604080822081516101008101909252805482908290610b3d9061215e565b80601f0160208091040260200160405190810160405280929190818152602001828054610b699061215e565b8015610bb65780601f10610b8b57610100808354040283529160200191610bb6565b820191906000526020600020905b815481529060010190602001808311610b9957829003601f168201915b50505050508152602001600182018054610bcf9061215e565b80601f0160208091040260200160405190810160405280929190818152602001828054610bfb9061215e565b8015610c485780601f10610c1d57610100808354040283529160200191610c48565b820191906000526020600020905b815481529060010190602001808311610c2b57829003601f168201915b50505091835250506002820154602082015260038201546040820152600482015473ffffffffffffffffffffffffffffffffffffffff166060820152600582018054608090920191610c999061215e565b80601f0160208091040260200160405190810160405280929190818152602001828054610cc59061215e565b8015610d125780601f10610ce757610100808354040283529160200191610d12565b820191906000526020600020905b815481529060010190602001808311610cf557829003601f168201915b5050509183525050600682015460208083019190915260079092015460ff161515604091820152805161010081018252998a5290890197909752860151958701959095525050606084019490945273ffffffffffffffffffffffffffffffffffffffff90931660808301525060a08101919091524260c0820152600160e082015290565b600054610100900460ff1615808015610db65750600054600160ff909116105b80610dd05750303b158015610dd0575060005460ff166001145b610e5c576040517f08c379a000000000000000000000000000000000000000000000000000000000815260206004820152602e60248201527f496e697469616c697a61626c653a20636f6e747261637420697320616c72656160448201527f647920696e697469616c697a656400000000000000000000000000000000000060648201526084016104e7565b600080547fffffffffffffffffffffffffffffffffffffffffffffffffffffffffffffff001660011790558015610eba57600080547fffffffffffffffffffffffffffffffffffffffffffffffffffffffffffff00ff166101001790555b3373ffffffffffffffffffffffffffffffffffffffff7f00000000000000000000000000000000000000000000000000000000000000001614610f59576040517f08c379a000000000000000000000000000000000000000000000000000000000815260206004820152601860248201527f554e415554484f52495a45443a204f4e4c595f4f574e4552000000000000000060448201526064016104e7565b600780547fffffffffffffffffffffffff00000000000000000000000000000000000000001673ffffffffffffffffffffffffffffffffffffffff84161790558015610ffc57600080547fffffffffffffffffffffffffffffffffffffffffffffffffffffffffffff00ff169055604051600181527f7f26b83ff96e1f2b6a682f133852f6798a09c465da95921460cefb38474024989060200160405180910390a15b5050565b60036020526000908152604090208054819061101b9061215e565b80601f01602080910402602001604051908101604052809291908181526020018280546110479061215e565b80156110945780601f1061106957610100808354040283529160200191611094565b820191906000526020600020905b81548152906001019060200180831161107757829003601f168201915b5050505050908060010180546110a99061215e565b80601f01602080910402602001604051908101604052809291908181526020018280546110d59061215e565b80156111225780601f106110f757610100808354040283529160200191611122565b820191906000526020600020905b81548152906001019060200180831161110557829003601f168201915b5050506002840154600385015460048601546005870180549697939692955073ffffffffffffffffffffffffffffffffffffffff9091169350906111659061215e565b80601f01602080910402602001604051908101604052809291908181526020018280546111919061215e565b80156111de5780601f106111b3576101008083540402835291602001916111de565b820191906000526020600020905b8154815290600101906020018083116111c157829003601f168201915b50505050600683015460079093015491929160ff16905088565b600081341015611264576040517f08c379a000000000000000000000000000000000000000000000000000000000815260206004820152601e60248201527f494e563a20494e53554646494349454e545f504c4154464f524d5f464545000060448201526064016104e7565b34156112c95760405173ffffffffffffffffffffffffffffffffffffffff8416908390600081818185875af1925050503d80600081146112c0576040519150601f19603f3d011682016040523d82523d6000602084013e6112c5565b606091505b5050505b606084015160009081526004602052604090205460ff1615611347576040517f08c379a000000000000000000000000000000000000000000000000000000000815260206004820152601a60248201527f494e56414c49443a20534545445f414c52454144595f5553454400000000000060448201526064016104e7565b60608401516040517f23374b9d00000000000000000000000000000000000000000000000000000000815260009173ffffffffffffffffffffffffffffffffffffffff7f000000000000000000000000000000000000000000000000000000000000000016916323374b9d916113c39160040190815260200190565b600060405180830381865afa1580156113e0573d6000803e3d6000fd5b505050506040513d6000823e601f3d9081017fffffffffffffffffffffffffffffffffffffffffffffffffffffffffffffffe01682016040526114269190810190612270565b90508061014001511515600115151461149b576040517f08c379a000000000000000000000000000000000000000000000000000000000815260206004820152601f60248201527f494e56414c49443a20434f4e545249425554494f4e5f4e4f545f464f554e440060448201526064016104e7565b60a0810151151560011461150b576040517f08c379a000000000000000000000000000000000000000000000000000000000815260206004820152601e60248201527f494e56414c49443a204e4f545f534545445f434f4e545249425554494f4e000060448201526064016104e7565b61012081015173ffffffffffffffffffffffffffffffffffffffff16331461158f576040517f08c379a000000000000000000000000000000000000000000000000000000000815260206004820181905260248201527f494e56414c49443a204f4e4c595f434f4e545249425554494f4e5f4f574e455260448201526064016104e7565b6115ac8560000151866020015187604001518860600151336115b5565b95945050505050565b60018054600091826115c68361207e565b909155505060018054604080516101008101825289815260208082018a905281830188905260006060830181905273ffffffffffffffffffffffffffffffffffffffff8816608084015260a083018a90524260c084015260e083019590955283855260038152919093208351805193949384936116479284929101906117cf565b50602082810151805161166092600185019201906117cf565b50604082015160028201556060820151600382015560808201516004820180547fffffffffffffffffffffffff00000000000000000000000000000000000000001673ffffffffffffffffffffffffffffffffffffffff90921691909117905560a082015180516116db9160058401916020909101906117cf565b5060c08281015160068381019190915560e090930151600790920180547fffffffffffffffffffffffffffffffffffffffffffffffffffffffffffffff00169215159290921790915560008481526020928352604080822080546001810182559083529382209093018890559083015191517f949e23886ff09844e2c2dbbb6cf2c14ca882bb5fb5f932b9220ead52fb31dc99926117849286928d928d928c928c928f916120de565b60405180910390a150600084815260046020526040902080547fffffffffffffffffffffffffffffffffffffffffffffffffffffffffffffff00166001179055905095945050505050565b8280546117db9061215e565b90600052602060002090601f0160209004810192826117fd5760008555611843565b82601f1061181657805160ff1916838001178555611843565b82800160010185558215611843579182015b82811115611843578251825591602001919060010190611828565b5061184f92915061188d565b5090565b8280548282559060005260206000209081019282156118435791602002820182811115611843578251825591602001919060010190611828565b5b8082111561184f576000815560010161188e565b7f4e487b7100000000000000000000000000000000000000000000000000000000600052604160045260246000fd5b604051610100810167ffffffffffffffff811182821017156118f5576118f56118a2565b60405290565b604051610160810167ffffffffffffffff811182821017156118f5576118f56118a2565b604051601f82017fffffffffffffffffffffffffffffffffffffffffffffffffffffffffffffffe016810167ffffffffffffffff81118282101715611966576119666118a2565b604052919050565b600067ffffffffffffffff821115611988576119886118a2565b50601f017fffffffffffffffffffffffffffffffffffffffffffffffffffffffffffffffe01660200190565b600082601f8301126119c557600080fd5b81356119d86119d38261196e565b61191f565b8181528460208386010111156119ed57600080fd5b816020850160208301376000918101602001919091529392505050565b73ffffffffffffffffffffffffffffffffffffffff81168114611a2c57600080fd5b50565b8035611a3a81611a0a565b919050565b8015158114611a2c57600080fd5b8035611a3a81611a3f565b600067ffffffffffffffff821115611a7257611a726118a2565b5060051b60200190565b600082601f830112611a8d57600080fd5b81356020611a9d6119d383611a58565b82815260059290921b84018101918181019086841115611abc57600080fd5b8286015b84811015611ad75780358352918301918301611ac0565b509695505050505050565b60008060408385031215611af557600080fd5b823567ffffffffffffffff80821115611b0d57600080fd5b908401906101008287031215611b2257600080fd5b611b2a6118d1565b823582811115611b3957600080fd5b611b45888286016119b4565b825250602083013582811115611b5a57600080fd5b611b66888286016119b4565b6020830152506040830135604082015260608301356060820152611b8c60808401611a2f565b608082015260a083013582811115611ba357600080fd5b611baf888286016119b4565b60a08301525060c083013560c0820152611bcb60e08401611a4d565b60e082015293506020850135915080821115611be657600080fd5b50611bf385828601611a7c565b9150509250929050565b600060208284031215611c0f57600080fd5b5035919050565b600060808284031215611c2857600080fd5b6040516080810167ffffffffffffffff8282108183111715611c4c57611c4c6118a2565b816040528293508435915080821115611c6457600080fd5b611c70868387016119b4565b83526020850135915080821115611c8657600080fd5b611c92868387016119b4565b60208401526040850135915080821115611cab57600080fd5b50611cb8858286016119b4565b604083015250606083013560608201525092915050565b60008060408385031215611ce257600080fd5b823567ffffffffffffffff811115611cf957600080fd5b611d0585828601611c16565b9250506020830135611d1681611a0a565b809150509250929050565b60008060408385031215611d3457600080fd5b50508035926020909101359150565b600080600080600060a08688031215611d5b57600080fd5b505083359560208501359550604085013594606081013594506080013592509050565b60008060008060008060c08789031215611d9757600080fd5b86359550602087013567ffffffffffffffff80821115611db657600080fd5b611dc28a838b016119b4565b96506040890135915080821115611dd857600080fd5b611de48a838b016119b4565b95506060890135915080821115611dfa57600080fd5b50611e0789828a016119b4565b9350506080870135611e1881611a0a565b8092505060a087013590509295509295509295565b60005b83811015611e48578181015183820152602001611e30565b83811115611e57576000848401525b50505050565b60008151808452611e75816020860160208601611e2d565b601f017fffffffffffffffffffffffffffffffffffffffffffffffffffffffffffffffe0169290920160200192915050565b6020815260008251610100806020850152611ec6610120850183611e5d565b915060208501517fffffffffffffffffffffffffffffffffffffffffffffffffffffffffffffffe080868503016040870152611f028483611e5d565b9350604087015160608701526060870151608087015260808701519150611f4160a087018373ffffffffffffffffffffffffffffffffffffffff169052565b60a08701519150808685030160c087015250611f5d8382611e5d565b92505060c085015160e085015260e0850151611f7c8286018215159052565b5090949350505050565b600060208284031215611f9857600080fd5b813561079181611a0a565b6000610100808352611fb78184018c611e5d565b90508281036020840152611fcb818b611e5d565b905088604084015287606084015273ffffffffffffffffffffffffffffffffffffffff8716608084015282810360a08401526120078187611e5d565b60c0840195909552505090151560e0909101529695505050505050565b60008060006060848603121561203957600080fd5b833567ffffffffffffffff81111561205057600080fd5b61205c86828701611c16565b935050602084013561206d81611a0a565b929592945050506040919091013590565b60007fffffffffffffffffffffffffffffffffffffffffffffffffffffffffffffffff8214156120d7577f4e487b7100000000000000000000000000000000000000000000000000000000600052601160045260246000fd5b5060010190565b60006101008a83528060208401526120f88184018b611e5d565b9050828103604084015261210c818a611e5d565b905087606084015273ffffffffffffffffffffffffffffffffffffffff871660808401528560a084015282810360c08401526121488186611e5d565b9150508260e08301529998505050505050505050565b600181811c9082168061217257607f821691505b602082108114156121ac577f4e487b7100000000000000000000000000000000000000000000000000000000600052602260045260246000fd5b50919050565b600082601f8301126121c357600080fd5b815160206121d36119d383611a58565b82815260059290921b840181019181810190868411156121f257600080fd5b8286015b84811015611ad757805183529183019183016121f6565b600082601f83011261221e57600080fd5b815161222c6119d38261196e565b81815284602083860101111561224157600080fd5b612252826020830160208701611e2d565b949350505050565b8051611a3a81611a3f565b8051611a3a81611a0a565b60006020828403121561228257600080fd5b815167ffffffffffffffff8082111561229a57600080fd5b9083019061016082860312156122af57600080fd5b6122b76118fb565b8251828111156122c657600080fd5b6122d2878286016121b2565b8252506020830151828111156122e757600080fd5b6122f38782860161220d565b6020830152506040830151604082015260608301518281111561231557600080fd5b6123218782860161220d565b60608301525060808301518281111561233957600080fd5b6123458782860161220d565b60808301525061235760a0840161225a565b60a082015261236860c0840161225a565b60c082015260e083015160e0820152610100808401518381111561238b57600080fd5b6123978882870161220d565b82840152505061012091506123ad828401612265565b8282015261014091506123c182840161225a565b9181019190915294935050505056fea264697066735822122049855e261c933e00d32c6df38535faf7500d052db5a276d1edc6bf3c88a6552564736f6c634300080c0033",
  "immutableReferences": {
    "7532": [
      {
        "length": 32,
        "start": 293
      },
      {
        "length": 32,
        "start": 2336
      }
    ],
    "7534": [
      {
        "length": 32,
        "start": 955
      },
      {
        "length": 32,
        "start": 1086
      },
      {
        "length": 32,
        "start": 2664
      }
    ],
    "7538": [
      {
        "length": 32,
        "start": 387
      },
      {
        "length": 32,
        "start": 3794
      }
    ],
    "7541": [
      {
        "length": 32,
        "start": 1007
      },
      {
        "length": 32,
        "start": 5004
      }
    ]
  },
  "source": "pragma solidity ^0.8.0;\n\nimport \"@openzeppelin/contracts/token/ERC1155/extensions/ERC1155Supply.sol\";\nimport \"@openzeppelin/contracts/utils/Counters.sol\";\nimport \"@openzeppelin/contracts/access/Ownable.sol\";\nimport \"@openzeppelin/contracts/token/ERC1155/IERC1155Receiver.sol\";\nimport \"@openzeppelin/contracts-upgradeable/proxy/utils/Initializable.sol\";\nimport \"./interface/IContribution.sol\";\n\ncontract RecordsContract is Initializable {\n    uint256 newTokenId = 0;\n    uint256 newVersionRequestId = 0;\n\n    // This mapping contains data of record\n    mapping(uint256 => RecordStruct) public recordData;\n    // This mapping contains if seed data id is being used or not\n    // Same shouldn't be used to create 2 different records, unless the other record is a different\n    // version of existing record\n    mapping(uint256 => bool) public seedIdUsed;\n\n    //This is mapping that holds the listing of versions that are created from a original record\n    mapping(uint256 => uint256[]) public recordVersion;\n\n    // This mapping will hold the list of contributions that are linked to a specific record\n    mapping(uint256 => uint256[]) public recordContributions;\n\n    // Address of the contribution contracts\n    address public immutable CONTRIBUTION_CONTRACT_ADDRESS;\n\n    // Address of the records voting contracts\n    address public immutable RECORDS_VOTING_CONTRACT_ADDRESS;\n\n    // Address of the controller contract\n    address public CONTROLLER_CONTRACT_ADDRESS;\n\n    // Address of the owner\n    address public immutable OWNER;\n\n    // Contribution contract\n    IContribution public immutable contributionContract;\n\n    /// @dev This struct holds the data for record token\n    /// @param name Name of the record\n    /// @param image This is the image of the record\n    /// @param seedId This is the seed contribution id\n    /// @param parentId This is the id of the parent record from which record is created\n    /// @param owner Address of the owner\n    /// @param recordCategory This is the record category\n    /// @param creationDate This is the creation date of the record\n    /// @param isPresent To check if a record os present or not\n    struct RecordStruct {\n        string name;\n        string image;\n        uint256 seedId;\n        uint256 parentId;\n        address owner;\n        string recordCategory;\n        uint256 creationDate;\n        bool isPresent;\n    }\n\n    /// @dev This is the token data for new version of record\n    /// @param totalSupply This is the total amount of tokens that will be created\n    /// @param oldContributorShare This is the amount of token that will be distributed among the previous record owners\n    /// @param userBalance Amount of tokens that user will keep to himself\n    /// @param symbol Symbol for the token\n    /// @param image Image for the token\n    struct NewVersionTokenStruct {\n        uint256 totalSupply;\n        uint256 oldContributorShare;\n        uint256 userBalance;\n        string symbol;\n        string image;\n    }\n\n    /// @param name This is the name of the record\n    /// @param image This is the image/logo of the record\n    /// @param recordCategory This is the category to which record belongs\n    /// @param seedId This is the seed contribution id\n    struct NewRecordPayload {\n        string name;\n        string image;\n        string recordCategory;\n        uint256 seedId;\n    }\n\n    /// @dev This event is emited when new record is created\n    /// @param recordId This is the recordId\n    /// @param name Name of the record\n    /// @param image This is the image of the record\n    /// @param seedId This is the seed contribution id\n    /// @param parentId This is the id of the parent record from which record is created\n    /// @param recordCategory This is the record category\n    /// @param creationDate This is the creation date of the record\n    event RecordCreated(\n        uint256 recordId,\n        string name,\n        string image,\n        uint256 seedId,\n        address owner,\n        uint256 parentId,\n        string recordCategory,\n        uint256 creationDate\n    );\n\n    constructor(\n        address owner,\n        address contributionContractAddress,\n        address recordsVotingContract\n    ) {\n        OWNER = owner;\n        CONTRIBUTION_CONTRACT_ADDRESS = contributionContractAddress;\n        RECORDS_VOTING_CONTRACT_ADDRESS = recordsVotingContract;\n        contributionContract = IContribution(CONTRIBUTION_CONTRACT_ADDRESS);\n    }\n\n    /// @dev This is to set the address of the contracts\n    /// @param controllerContractAddress this is the address of controller contract\n    function initialize(\n        address controllerContractAddress\n    ) public initializer onlyOwner {\n        CONTROLLER_CONTRACT_ADDRESS = controllerContractAddress;\n    }\n\n    /// @dev Modifier to check that the function is only being called from the contribution contract\n    modifier onlyOwner() {\n        require(msg.sender == OWNER, \"UNAUTHORIZED: ONLY_OWNER\");\n        _;\n    }\n\n    /// @dev Modifier to check that the function is only being called from the contribution contract\n    modifier onlyContributionContract() {\n        require(\n            msg.sender == CONTRIBUTION_CONTRACT_ADDRESS,\n            \"UNAUTHORIZED: ONLY_CONTRIBUTION_CONTRACT\"\n        );\n        _;\n    }\n\n    /// @dev Modifier to check that the function is only being called from the contribution contract\n    modifier onlyRecordsVotingContract() {\n        require(\n            msg.sender == RECORDS_VOTING_CONTRACT_ADDRESS,\n            \"UNAUTHORIZED: ONLY_RECORDS_VOTING_CONTRACT_ADDRESS\"\n        );\n        _;\n    }\n\n    /// @dev Modifier to check that the function is only being called from the controller contract\n    modifier onlyControllerContract() {\n        require(\n            msg.sender == CONTROLLER_CONTRACT_ADDRESS,\n            \"UNAUTHORIZED: ONLY_CONTROLLER_CONTRACT\"\n        );\n        _;\n    }\n\n    /// @dev This function creates new record\n    /// @param payload this is the record payload\n    /// @param owner this is the owner of the record\n    function controllerCreateNewRecord(\n        NewRecordPayload memory payload,\n        address owner\n    ) public onlyControllerContract returns (uint256) {\n        return\n            _createNewRecord(\n                payload.name,\n                payload.image,\n                payload.recordCategory,\n                payload.seedId,\n                owner\n            );\n    }\n\n    /// @dev This function creates new record, this function can be called by anyone\n    /// @param payload this is the record payload\n    /// @param platformWallet this is the UI providers wallet\n    /// @param platformFee this is the incentive amount for the UI maintainer\n    function createNewRecord(\n        NewRecordPayload memory payload,\n        address payable platformWallet,\n        uint256 platformFee\n    ) public payable returns (uint256) {\n        require(msg.value >= platformFee, \"INV: INSUFFICIENT_PLATFORM_FEE\");\n        if (msg.value > 0) {\n            platformWallet.call{value: platformFee}(\"\");\n        }\n\n        require(\n            seedIdUsed[payload.seedId] == false,\n            \"INVALID: SEED_ALREADY_USED\"\n        );\n\n        IContribution.Contribution memory contribution = contributionContract\n            .getContributionData(payload.seedId);\n\n        require(\n            contribution.isPresent == true,\n            \"INVALID: CONTRIBUTION_NOT_FOUND\"\n        );\n\n        require(\n            contribution.seedContribution == true,\n            \"INVALID: NOT_SEED_CONTRIBUTION\"\n        );\n\n        require(\n            contribution.owner == msg.sender,\n            \"INVALID: ONLY_CONTRIBUTION_OWNER\"\n        );\n\n        return\n            _createNewRecord(\n                payload.name,\n                payload.image,\n                payload.recordCategory,\n                payload.seedId,\n                msg.sender\n            );\n    }\n\n    /// @dev This function creates new record, this function is to be called only from within contract\n    /// @param name This is the name of the record\n    /// @param image This is the image/logo of the record\n    /// @param recordCategory This is the category to which record belongs\n    /// @param seedId This is the seed contribution id\n    function _createNewRecord(\n        string memory name,\n        string memory image,\n        string memory recordCategory,\n        uint256 seedId,\n        address owner\n    ) internal returns (uint256) {\n        newTokenId++;\n        uint256 recordId = newTokenId;\n\n        RecordStruct memory recordStruct = RecordStruct({\n            name: name,\n            image: image,\n            seedId: seedId,\n            parentId: 0,\n            owner: owner,\n            recordCategory: recordCategory,\n            creationDate: block.timestamp,\n            isPresent: true\n        });\n\n        recordData[recordId] = recordStruct;\n        recordContributions[recordId].push(seedId);\n\n        emit RecordCreated({\n            recordId: recordId,\n            name: name,\n            image: image,\n            seedId: seedId,\n            owner: owner,\n            parentId: 0,\n            recordCategory: recordCategory,\n            creationDate: recordStruct.creationDate\n        });\n\n        seedIdUsed[seedId] = true;\n\n        return (recordId);\n    }\n\n    /// @dev This function pushes a contribution into the array of the record\n    /// @param recordId This is the recordId to which contribution is to be added\n    /// @param contributionId This is the contribution id to push in array\n    function pushContributionIdToContributionList(\n        uint256 recordId,\n        uint256 contributionId\n    ) external onlyContributionContract {\n        recordContributions[recordId].push(contributionId);\n    }\n\n    /// @dev This function return the address of record owner\n    /// @param recordId This is the recordId whose owner you want\n    function ownerOf(uint256 recordId) external returns (address) {\n        return recordData[recordId].owner;\n    }\n\n    /// @dev This function will create new record version from existing record\n    /// @param oldRecordId This is the id of the old record\n    /// @param name The name of the record\n    /// @param image This is the image link for the record cover\n    /// @param recordCategory Record category in string\n    /// @param caller The owner / user who called this function\n    /// @param ballotId The Id of the voting ballot\n    function createNewRecordVersion(\n        uint256 oldRecordId,\n        string memory name,\n        string memory image,\n        string memory recordCategory,\n        address caller,\n        uint256 ballotId\n    )\n        public\n        onlyRecordsVotingContract\n        returns (RecordsContract.RecordStruct memory)\n    {\n        RecordStruct memory sourceVersion = recordData[oldRecordId];\n        RecordStruct memory recordStruct = RecordStruct({\n            name: name,\n            image: image,\n            seedId: sourceVersion.seedId,\n            parentId: oldRecordId,\n            owner: caller,\n            recordCategory: recordCategory,\n            creationDate: block.timestamp,\n            isPresent: true\n        });\n\n        return (recordStruct);\n    }\n\n    /// @dev This function is to be called only form voting contract, and it creates new record\n    /// @param newRecordData This is the record data\n    /// @param contributionIds Array of the contribution id\n    function createRecordFromData(\n        RecordStruct memory newRecordData,\n        uint256[] memory contributionIds\n    ) external onlyRecordsVotingContract returns (uint256) {\n        newTokenId++;\n        uint256 recordId = newTokenId;\n\n        recordData[recordId] = newRecordData;\n        recordContributions[recordId] = contributionIds;\n        recordContributions[recordId].push(newRecordData.seedId);\n        recordVersion[newRecordData.parentId].push(recordId);\n\n        emit RecordCreated({\n            recordId: recordId,\n            name: newRecordData.name,\n            image: newRecordData.image,\n            seedId: newRecordData.seedId,\n            owner: msg.sender,\n            parentId: newRecordData.parentId,\n            recordCategory: newRecordData.recordCategory,\n            creationDate: newRecordData.creationDate\n        });\n        return recordId;\n    }\n\n    /// dev This function is to be called only form voting contract, and it creates new record\n    /// param newRecordData This is the record data\n    /// param contributionIds Array of the contribution id\n    function validateNewRecordVersionParams(\n        uint256 oldVersionId,\n        uint256 govTokenTotalSupply,\n        uint256 govTokenOwnerBalanace,\n        uint256 commTokenTotalSupply,\n        uint256 commTokenOwnerBalanace\n    ) external view returns (bool) {\n        require(\n            recordData[oldVersionId].isPresent,\n            \"INVALID: RECORD_NOT_FOUND\"\n        );\n\n        require(\n            govTokenTotalSupply >= govTokenOwnerBalanace &&\n                commTokenTotalSupply >= commTokenOwnerBalanace,\n            \"INVALID: USER_BALANCE_MORE_THAN_SUPPLY\"\n        );\n        return true;\n    }\n}\n",
  "sourcePath": "/Users/a1/Desktop/Office/projects/CrowdRecords/Contracts/contracts/RecordsContract.sol",
  "compiler": {
    "name": "solc",
    "version": "0.8.12+commit.f00d7308.Emscripten.clang"
  },
  "schemaVersion": "3.4.6",
  "updatedAt": "2023-05-17T12:27:25.631Z",
  "networkType": "ethereum",
  "devdoc": {
    "events": {
      "RecordCreated(uint256,string,string,uint256,address,uint256,string,uint256)": {
        "details": "This event is emited when new record is created",
        "params": {
          "creationDate": "This is the creation date of the record",
          "image": "This is the image of the record",
          "name": "Name of the record",
          "parentId": "This is the id of the parent record from which record is created",
          "recordCategory": "This is the record category",
          "recordId": "This is the recordId",
          "seedId": "This is the seed contribution id"
        }
      }
    },
    "kind": "dev",
    "methods": {
      "controllerCreateNewRecord((string,string,string,uint256),address)": {
        "details": "This function creates new record",
        "params": {
          "owner": "this is the owner of the record",
          "payload": "this is the record payload"
        }
      },
      "createNewRecord((string,string,string,uint256),address,uint256)": {
        "details": "This function creates new record, this function can be called by anyone",
        "params": {
          "payload": "this is the record payload",
          "platformFee": "this is the incentive amount for the UI maintainer",
          "platformWallet": "this is the UI providers wallet"
        }
      },
      "createNewRecordVersion(uint256,string,string,string,address,uint256)": {
        "details": "This function will create new record version from existing record",
        "params": {
          "ballotId": "The Id of the voting ballot",
          "caller": "The owner / user who called this function",
          "image": "This is the image link for the record cover",
          "name": "The name of the record",
          "oldRecordId": "This is the id of the old record",
          "recordCategory": "Record category in string"
        }
      },
      "createRecordFromData((string,string,uint256,uint256,address,string,uint256,bool),uint256[])": {
        "details": "This function is to be called only form voting contract, and it creates new record",
        "params": {
          "contributionIds": "Array of the contribution id",
          "newRecordData": "This is the record data"
        }
      },
      "initialize(address)": {
        "details": "This is to set the address of the contracts",
        "params": {
          "controllerContractAddress": "this is the address of controller contract"
        }
      },
      "ownerOf(uint256)": {
        "details": "This function return the address of record owner",
        "params": {
          "recordId": "This is the recordId whose owner you want"
        }
      },
      "pushContributionIdToContributionList(uint256,uint256)": {
        "details": "This function pushes a contribution into the array of the record",
        "params": {
          "contributionId": "This is the contribution id to push in array",
          "recordId": "This is the recordId to which contribution is to be added"
        }
      }
    },
    "version": 1
  },
  "userdoc": {
    "kind": "user",
    "methods": {
      "validateNewRecordVersionParams(uint256,uint256,uint256,uint256,uint256)": {
        "notice": "dev This function is to be called only form voting contract, and it creates new record param newRecordData This is the record data param contributionIds Array of the contribution id"
      }
    },
    "version": 1
  }
}