{
  "contractName": "RecordsVotingContract",
  "abi": [
    {
      "inputs": [
        {
          "internalType": "address",
          "name": "owner",
          "type": "address"
        }
      ],
      "stateMutability": "nonpayable",
      "type": "constructor"
    },
    {
      "anonymous": false,
      "inputs": [
        {
          "indexed": false,
          "internalType": "uint8",
          "name": "version",
          "type": "uint8"
        }
      ],
      "name": "Initialized",
      "type": "event"
    },
    {
      "anonymous": false,
      "inputs": [
        {
          "indexed": false,
          "internalType": "uint256",
          "name": "versionRequestId",
          "type": "uint256"
        },
        {
          "indexed": false,
          "internalType": "uint256",
          "name": "rewardTokenId",
          "type": "uint256"
        },
        {
          "indexed": false,
          "internalType": "uint256",
          "name": "rewardAmount",
          "type": "uint256"
        },
        {
          "indexed": false,
          "internalType": "address",
          "name": "userAddress",
          "type": "address"
        }
      ],
      "name": "NewTokenClaimed",
      "type": "event"
    },
    {
      "anonymous": false,
      "inputs": [
        {
          "indexed": false,
          "internalType": "uint256",
          "name": "versionReqId",
          "type": "uint256"
        },
        {
          "indexed": false,
          "internalType": "uint256",
          "name": "tokenId",
          "type": "uint256"
        },
        {
          "indexed": false,
          "internalType": "uint256",
          "name": "ballotId",
          "type": "uint256"
        },
        {
          "indexed": false,
          "internalType": "bool",
          "name": "result",
          "type": "bool"
        },
        {
          "indexed": false,
          "internalType": "bool",
          "name": "minTurnOut",
          "type": "bool"
        }
      ],
      "name": "NewVersionRequestResult",
      "type": "event"
    },
    {
      "anonymous": false,
      "inputs": [
        {
          "indexed": false,
          "internalType": "uint256",
          "name": "versionRequestId",
          "type": "uint256"
        },
        {
          "indexed": false,
          "internalType": "uint256",
          "name": "totalSupplyEther",
          "type": "uint256"
        },
        {
          "indexed": false,
          "internalType": "uint256",
          "name": "rewardAmountWei",
          "type": "uint256"
        },
        {
          "indexed": false,
          "internalType": "uint256",
          "name": "tokenId",
          "type": "uint256"
        },
        {
          "indexed": false,
          "internalType": "uint256",
          "name": "rewardTokenId",
          "type": "uint256"
        },
        {
          "indexed": false,
          "internalType": "uint256",
          "name": "rewardPerTokenWei",
          "type": "uint256"
        },
        {
          "indexed": false,
          "internalType": "uint256",
          "name": "snapshotId",
          "type": "uint256"
        }
      ],
      "name": "NewVersionTokenDistribution",
      "type": "event"
    },
    {
      "anonymous": false,
      "inputs": [
        {
          "indexed": false,
          "internalType": "address",
          "name": "voter",
          "type": "address"
        },
        {
          "indexed": false,
          "internalType": "uint256",
          "name": "versionRequestId",
          "type": "uint256"
        },
        {
          "indexed": false,
          "internalType": "uint256",
          "name": "ballotId",
          "type": "uint256"
        },
        {
          "indexed": false,
          "internalType": "bool",
          "name": "vote",
          "type": "bool"
        }
      ],
      "name": "NewVersionVoting",
      "type": "event"
    },
    {
      "anonymous": false,
      "inputs": [
        {
          "indexed": false,
          "internalType": "address",
          "name": "requester",
          "type": "address"
        },
        {
          "indexed": false,
          "internalType": "uint256",
          "name": "versionRequestId",
          "type": "uint256"
        },
        {
          "indexed": false,
          "internalType": "uint256",
          "name": "ballotId",
          "type": "uint256"
        }
      ],
      "name": "NewVersionVotingBallotCreated",
      "type": "event"
    },
    {
      "anonymous": false,
      "inputs": [
        {
          "indexed": false,
          "internalType": "uint256",
          "name": "requestId",
          "type": "uint256"
        },
        {
          "components": [
            {
              "internalType": "string",
              "name": "name",
              "type": "string"
            },
            {
              "internalType": "string",
              "name": "image",
              "type": "string"
            },
            {
              "internalType": "uint256",
              "name": "seedId",
              "type": "uint256"
            },
            {
              "internalType": "uint256",
              "name": "parentId",
              "type": "uint256"
            },
            {
              "internalType": "address",
              "name": "owner",
              "type": "address"
            },
            {
              "internalType": "string",
              "name": "recordCategory",
              "type": "string"
            },
            {
              "internalType": "uint256",
              "name": "creationDate",
              "type": "uint256"
            },
            {
              "internalType": "bool",
              "name": "isPresent",
              "type": "bool"
            }
          ],
          "indexed": false,
          "internalType": "struct RecordsContract.RecordStruct",
          "name": "recordData",
          "type": "tuple"
        },
        {
          "components": [
            {
              "internalType": "uint256",
              "name": "totalSupply",
              "type": "uint256"
            },
            {
              "internalType": "uint256",
              "name": "oldContributorShare",
              "type": "uint256"
            },
            {
              "internalType": "uint256",
              "name": "userBalance",
              "type": "uint256"
            },
            {
              "internalType": "string",
              "name": "symbol",
              "type": "string"
            },
            {
              "internalType": "string",
              "name": "image",
              "type": "string"
            }
          ],
          "indexed": false,
          "internalType": "struct RecordsVotingContract.NewVersionTokenStruct",
          "name": "governanceToken",
          "type": "tuple"
        },
        {
          "components": [
            {
              "internalType": "uint256",
              "name": "totalSupply",
              "type": "uint256"
            },
            {
              "internalType": "uint256",
              "name": "oldContributorShare",
              "type": "uint256"
            },
            {
              "internalType": "uint256",
              "name": "userBalance",
              "type": "uint256"
            },
            {
              "internalType": "string",
              "name": "symbol",
              "type": "string"
            },
            {
              "internalType": "string",
              "name": "image",
              "type": "string"
            }
          ],
          "indexed": false,
          "internalType": "struct RecordsVotingContract.NewVersionTokenStruct",
          "name": "communityToken",
          "type": "tuple"
        },
        {
          "indexed": false,
          "internalType": "uint256[]",
          "name": "contributionIds",
          "type": "uint256[]"
        },
        {
          "indexed": false,
          "internalType": "address",
          "name": "requester",
          "type": "address"
        },
        {
          "indexed": false,
          "internalType": "uint256",
          "name": "oldVersionId",
          "type": "uint256"
        },
        {
          "indexed": false,
          "internalType": "uint256",
          "name": "tokenId",
          "type": "uint256"
        },
        {
          "indexed": false,
          "internalType": "uint256",
          "name": "ballotId",
          "type": "uint256"
        }
      ],
      "name": "VersionRequest",
      "type": "event"
    },
    {
      "inputs": [],
      "name": "MIN_TURNOUT_PERCENT",
      "outputs": [
        {
          "internalType": "uint256",
          "name": "",
          "type": "uint256"
        }
      ],
      "stateMutability": "view",
      "type": "function"
    },
    {
      "inputs": [],
      "name": "OWNER",
      "outputs": [
        {
          "internalType": "address",
          "name": "",
          "type": "address"
        }
      ],
      "stateMutability": "view",
      "type": "function"
    },
    {
      "inputs": [],
      "name": "RECORDS_CONTRACT_ADDRESS",
      "outputs": [
        {
          "internalType": "address",
          "name": "",
          "type": "address"
        }
      ],
      "stateMutability": "view",
      "type": "function"
    },
    {
      "inputs": [],
      "name": "TREASURY_CONTRACT_ADDRESS",
      "outputs": [
        {
          "internalType": "address",
          "name": "",
          "type": "address"
        }
      ],
      "stateMutability": "view",
      "type": "function"
    },
    {
      "inputs": [],
      "name": "TREASURY_CORE_CONTRACT_ADDRESS",
      "outputs": [
        {
          "internalType": "address",
          "name": "",
          "type": "address"
        }
      ],
      "stateMutability": "view",
      "type": "function"
    },
    {
      "inputs": [],
      "name": "TREASURY_HUB_ADDRESS",
      "outputs": [
        {
          "internalType": "address",
          "name": "",
          "type": "address"
        }
      ],
      "stateMutability": "view",
      "type": "function"
    },
    {
      "inputs": [
        {
          "internalType": "address",
          "name": "user",
          "type": "address"
        },
        {
          "internalType": "uint256",
          "name": "tokenId",
          "type": "uint256"
        },
        {
          "internalType": "uint256",
          "name": "previousBalance",
          "type": "uint256"
        },
        {
          "internalType": "uint256",
          "name": "newBalance",
          "type": "uint256"
        }
      ],
      "name": "_handleUserTokenTransfers",
      "outputs": [],
      "stateMutability": "nonpayable",
      "type": "function"
    },
    {
      "inputs": [
        {
          "internalType": "uint256",
          "name": "",
          "type": "uint256"
        }
      ],
      "name": "newVersionRequestMap",
      "outputs": [
        {
          "components": [
            {
              "internalType": "string",
              "name": "name",
              "type": "string"
            },
            {
              "internalType": "string",
              "name": "image",
              "type": "string"
            },
            {
              "internalType": "uint256",
              "name": "seedId",
              "type": "uint256"
            },
            {
              "internalType": "uint256",
              "name": "parentId",
              "type": "uint256"
            },
            {
              "internalType": "address",
              "name": "owner",
              "type": "address"
            },
            {
              "internalType": "string",
              "name": "recordCategory",
              "type": "string"
            },
            {
              "internalType": "uint256",
              "name": "creationDate",
              "type": "uint256"
            },
            {
              "internalType": "bool",
              "name": "isPresent",
              "type": "bool"
            }
          ],
          "internalType": "struct RecordsContract.RecordStruct",
          "name": "recordData",
          "type": "tuple"
        },
        {
          "components": [
            {
              "internalType": "uint256",
              "name": "totalSupply",
              "type": "uint256"
            },
            {
              "internalType": "uint256",
              "name": "oldContributorShare",
              "type": "uint256"
            },
            {
              "internalType": "uint256",
              "name": "userBalance",
              "type": "uint256"
            },
            {
              "internalType": "string",
              "name": "symbol",
              "type": "string"
            },
            {
              "internalType": "string",
              "name": "image",
              "type": "string"
            }
          ],
          "internalType": "struct RecordsVotingContract.NewVersionTokenStruct",
          "name": "governanceToken",
          "type": "tuple"
        },
        {
          "components": [
            {
              "internalType": "uint256",
              "name": "totalSupply",
              "type": "uint256"
            },
            {
              "internalType": "uint256",
              "name": "oldContributorShare",
              "type": "uint256"
            },
            {
              "internalType": "uint256",
              "name": "userBalance",
              "type": "uint256"
            },
            {
              "internalType": "string",
              "name": "symbol",
              "type": "string"
            },
            {
              "internalType": "string",
              "name": "image",
              "type": "string"
            }
          ],
          "internalType": "struct RecordsVotingContract.NewVersionTokenStruct",
          "name": "communityToken",
          "type": "tuple"
        },
        {
          "internalType": "address",
          "name": "requester",
          "type": "address"
        },
        {
          "internalType": "uint256",
          "name": "oldVersionId",
          "type": "uint256"
        },
        {
          "internalType": "uint256",
          "name": "tokenId",
          "type": "uint256"
        },
        {
          "internalType": "uint256",
          "name": "ballotId",
          "type": "uint256"
        },
        {
          "internalType": "bool",
          "name": "isPresent",
          "type": "bool"
        },
        {
          "internalType": "bool",
          "name": "isAccepted",
          "type": "bool"
        }
      ],
      "stateMutability": "view",
      "type": "function"
    },
    {
      "inputs": [
        {
          "internalType": "uint256",
          "name": "",
          "type": "uint256"
        },
        {
          "internalType": "address",
          "name": "",
          "type": "address"
        }
      ],
      "name": "rewardsClaimed",
      "outputs": [
        {
          "internalType": "bool",
          "name": "",
          "type": "bool"
        }
      ],
      "stateMutability": "view",
      "type": "function"
    },
    {
      "inputs": [
        {
          "internalType": "address",
          "name": "ownerAddress",
          "type": "address"
        }
      ],
      "name": "setOwnerAddress",
      "outputs": [],
      "stateMutability": "nonpayable",
      "type": "function"
    },
    {
      "inputs": [
        {
          "internalType": "uint256",
          "name": "",
          "type": "uint256"
        }
      ],
      "name": "votingMap",
      "outputs": [
        {
          "internalType": "address",
          "name": "owner",
          "type": "address"
        },
        {
          "internalType": "uint256",
          "name": "yesWeight",
          "type": "uint256"
        },
        {
          "internalType": "uint256",
          "name": "yesCount",
          "type": "uint256"
        },
        {
          "internalType": "uint256",
          "name": "noWeight",
          "type": "uint256"
        },
        {
          "internalType": "uint256",
          "name": "noCount",
          "type": "uint256"
        },
        {
          "internalType": "uint256",
          "name": "tokenId",
          "type": "uint256"
        },
        {
          "internalType": "uint256",
          "name": "votingEndBlock",
          "type": "uint256"
        },
        {
          "internalType": "bool",
          "name": "isResultDeclared",
          "type": "bool"
        },
        {
          "internalType": "bool",
          "name": "canOwnerVote",
          "type": "bool"
        },
        {
          "internalType": "bool",
          "name": "isPresent",
          "type": "bool"
        },
        {
          "internalType": "bool",
          "name": "minTurnOut",
          "type": "bool"
        },
        {
          "internalType": "bool",
          "name": "result",
          "type": "bool"
        }
      ],
      "stateMutability": "view",
      "type": "function"
    },
    {
      "inputs": [
        {
          "internalType": "address",
          "name": "recordsContractAddress",
          "type": "address"
        },
        {
          "internalType": "address",
          "name": "treasuryContractAddress",
          "type": "address"
        },
        {
          "internalType": "address",
          "name": "treasuryCoreContractAddress",
          "type": "address"
        }
      ],
      "name": "initialize",
      "outputs": [],
      "stateMutability": "nonpayable",
      "type": "function"
    },
    {
      "inputs": [
        {
          "internalType": "address",
          "name": "newTreasuryContractAddress",
          "type": "address"
        }
      ],
      "name": "initialize",
      "outputs": [],
      "stateMutability": "nonpayable",
      "type": "function"
    },
    {
      "inputs": [
        {
          "components": [
            {
              "internalType": "string",
              "name": "name",
              "type": "string"
            },
            {
              "internalType": "string",
              "name": "image",
              "type": "string"
            },
            {
              "internalType": "string",
              "name": "recordCategory",
              "type": "string"
            },
            {
              "internalType": "uint256",
              "name": "oldRecordId",
              "type": "uint256"
            },
            {
              "internalType": "uint256[]",
              "name": "contributionIds",
              "type": "uint256[]"
            },
            {
              "components": [
                {
                  "internalType": "uint256",
                  "name": "totalSupply",
                  "type": "uint256"
                },
                {
                  "internalType": "uint256",
                  "name": "oldContributorShare",
                  "type": "uint256"
                },
                {
                  "internalType": "uint256",
                  "name": "userBalance",
                  "type": "uint256"
                },
                {
                  "internalType": "string",
                  "name": "symbol",
                  "type": "string"
                },
                {
                  "internalType": "string",
                  "name": "image",
                  "type": "string"
                }
              ],
              "internalType": "struct RecordsVotingContract.NewVersionTokenStruct",
              "name": "governanceToken",
              "type": "tuple"
            },
            {
              "components": [
                {
                  "internalType": "uint256",
                  "name": "totalSupply",
                  "type": "uint256"
                },
                {
                  "internalType": "uint256",
                  "name": "oldContributorShare",
                  "type": "uint256"
                },
                {
                  "internalType": "uint256",
                  "name": "userBalance",
                  "type": "uint256"
                },
                {
                  "internalType": "string",
                  "name": "symbol",
                  "type": "string"
                },
                {
                  "internalType": "string",
                  "name": "image",
                  "type": "string"
                }
              ],
              "internalType": "struct RecordsVotingContract.NewVersionTokenStruct",
              "name": "communityToken",
              "type": "tuple"
            }
          ],
          "internalType": "struct RecordsVotingContract.NewRecordVersionParams",
          "name": "params",
          "type": "tuple"
        }
      ],
      "name": "createNewRecordVersion",
      "outputs": [
        {
          "internalType": "uint256",
          "name": "",
          "type": "uint256"
        }
      ],
      "stateMutability": "nonpayable",
      "type": "function"
    },
    {
      "inputs": [
        {
          "internalType": "uint256",
          "name": "versionReqId",
          "type": "uint256"
        },
        {
          "internalType": "bool",
          "name": "vote",
          "type": "bool"
        }
      ],
      "name": "castVote",
      "outputs": [],
      "stateMutability": "nonpayable",
      "type": "function"
    },
    {
      "inputs": [
        {
          "internalType": "uint256",
          "name": "versionReqId",
          "type": "uint256"
        }
      ],
      "name": "declareWinner",
      "outputs": [],
      "stateMutability": "nonpayable",
      "type": "function"
    },
    {
      "inputs": [
        {
          "internalType": "uint256",
          "name": "versionReqId",
          "type": "uint256"
        }
      ],
      "name": "claimNewRecordTokens",
      "outputs": [],
      "stateMutability": "nonpayable",
      "type": "function"
    },
    {
      "inputs": [
        {
          "internalType": "address",
          "name": "operator",
          "type": "address"
        },
        {
          "internalType": "address",
          "name": "from",
          "type": "address"
        },
        {
          "internalType": "uint256",
          "name": "id",
          "type": "uint256"
        },
        {
          "internalType": "uint256",
          "name": "value",
          "type": "uint256"
        },
        {
          "internalType": "bytes",
          "name": "data",
          "type": "bytes"
        }
      ],
      "name": "onERC1155Received",
      "outputs": [
        {
          "internalType": "bytes4",
          "name": "",
          "type": "bytes4"
        }
      ],
      "stateMutability": "nonpayable",
      "type": "function"
    },
    {
      "inputs": [
        {
          "internalType": "address",
          "name": "operator",
          "type": "address"
        },
        {
          "internalType": "address",
          "name": "from",
          "type": "address"
        },
        {
          "internalType": "uint256[]",
          "name": "ids",
          "type": "uint256[]"
        },
        {
          "internalType": "uint256[]",
          "name": "values",
          "type": "uint256[]"
        },
        {
          "internalType": "bytes",
          "name": "data",
          "type": "bytes"
        }
      ],
      "name": "onERC1155BatchReceived",
      "outputs": [
        {
          "internalType": "bytes4",
          "name": "",
          "type": "bytes4"
        }
      ],
      "stateMutability": "nonpayable",
      "type": "function"
    },
    {
      "inputs": [
        {
          "internalType": "bytes4",
          "name": "interfaceId",
          "type": "bytes4"
        }
      ],
      "name": "supportsInterface",
      "outputs": [
        {
          "internalType": "bool",
          "name": "",
          "type": "bool"
        }
      ],
      "stateMutability": "view",
      "type": "function"
    }
  ],
  "bytecode": "0x608060405260196001556101f460025560006006556000600b553480156200002657600080fd5b50604051620062a2380380620062a283398181016040528101906200004c919062000100565b8080600560006101000a81548173ffffffffffffffffffffffffffffffffffffffff021916908373ffffffffffffffffffffffffffffffffffffffff160217905550505062000132565b600080fd5b600073ffffffffffffffffffffffffffffffffffffffff82169050919050565b6000620000c8826200009b565b9050919050565b620000da81620000bb565b8114620000e657600080fd5b50565b600081519050620000fa81620000cf565b92915050565b60006020828403121562000119576200011862000096565b5b60006200012984828501620000e9565b91505092915050565b61616080620001426000396000f3fe608060405234801561001057600080fd5b506004361061012b5760003560e01c806399728a45116100ad578063bc197c8111610071578063bc197c8114610357578063c0c53b8b14610387578063c4d66de8146103a3578063c768e2d6146103bf578063f23a6e61146103db5761012b565b806399728a451461029f5780639a835e91146102cf578063abb7ed7f146102ff578063acb314931461031b578063ba19a675146103395761012b565b806333e0ea2e116100f457806333e0ea2e146101d2578063556bed3a146101f057806358f0b6c11461020e57806363e249c1146102465780638d2ae1f7146102815761012b565b8062c2943c1461013057806301ffc9a71461014c578063117803e31461017c57806315373e3d1461019a578063331a6bf5146101b6575b600080fd5b61014a6004803603810190610145919061410a565b61040b565b005b6101666004803603810190610161919061418f565b610ccf565b60405161017391906141d7565b60405180910390f35b610184610cd6565b6040516101919190614233565b60405180910390f35b6101b460048036038101906101af919061427a565b610cfc565b005b6101d060048036038101906101cb91906142e6565b610dc7565b005b6101da610e9b565b6040516101e79190614322565b60405180910390f35b6101f8610ea1565b6040516102059190614233565b60405180910390f35b6102286004803603810190610223919061410a565b610ec7565b60405161023d9998979695949392919061453e565b60405180910390f35b610260600480360381019061025b919061410a565b611437565b6040516102789c9b9a999897969594939291906145e0565b60405180910390f35b6102896114f8565b6040516102969190614233565b60405180910390f35b6102b960048036038101906102b49190614ac1565b61151e565b6040516102c69190614322565b60405180910390f35b6102e960048036038101906102e49190614b0a565b611bae565b6040516102f691906141d7565b60405180910390f35b61031960048036038101906103149190614b4a565b611bdd565b005b610323611dd6565b6040516103309190614233565b60405180910390f35b610341611dfc565b60405161034e9190614233565b60405180910390f35b610371600480360381019061036c9190614c62565b611e22565b60405161037e9190614d4d565b60405180910390f35b6103a1600480360381019061039c9190614d68565b611e53565b005b6103bd60048036038101906103b891906142e6565b6120a7565b005b6103d960048036038101906103d4919061410a565b61213a565b005b6103f560048036038101906103f09190614dbb565b612a9d565b6040516104029190614d4d565b60405180910390f35b6000600f60009054906101000a900473ffffffffffffffffffffffffffffffffffffffff1690506000600c600084815260200190815260200160002060405180610140016040529081600082016040518061010001604052908160008201805461047490614e84565b80601f01602080910402602001604051908101604052809291908181526020018280546104a090614e84565b80156104ed5780601f106104c2576101008083540402835291602001916104ed565b820191906000526020600020905b8154815290600101906020018083116104d057829003601f168201915b5050505050815260200160018201805461050690614e84565b80601f016020809104026020016040519081016040528092919081815260200182805461053290614e84565b801561057f5780601f106105545761010080835404028352916020019161057f565b820191906000526020600020905b81548152906001019060200180831161056257829003601f168201915b5050505050815260200160028201548152602001600382015481526020016004820160009054906101000a900473ffffffffffffffffffffffffffffffffffffffff1673ffffffffffffffffffffffffffffffffffffffff1673ffffffffffffffffffffffffffffffffffffffff16815260200160058201805461060290614e84565b80601f016020809104026020016040519081016040528092919081815260200182805461062e90614e84565b801561067b5780601f106106505761010080835404028352916020019161067b565b820191906000526020600020905b81548152906001019060200180831161065e57829003601f168201915b50505050508152602001600682015481526020016007820160009054906101000a900460ff1615151515815250508152602001600882016040518060a00160405290816000820154815260200160018201548152602001600282015481526020016003820180546106eb90614e84565b80601f016020809104026020016040519081016040528092919081815260200182805461071790614e84565b80156107645780601f1061073957610100808354040283529160200191610764565b820191906000526020600020905b81548152906001019060200180831161074757829003601f168201915b5050505050815260200160048201805461077d90614e84565b80601f01602080910402602001604051908101604052809291908181526020018280546107a990614e84565b80156107f65780601f106107cb576101008083540402835291602001916107f6565b820191906000526020600020905b8154815290600101906020018083116107d957829003601f168201915b5050505050815250508152602001600d82016040518060a001604052908160008201548152602001600182015481526020016002820154815260200160038201805461084190614e84565b80601f016020809104026020016040519081016040528092919081815260200182805461086d90614e84565b80156108ba5780601f1061088f576101008083540402835291602001916108ba565b820191906000526020600020905b81548152906001019060200180831161089d57829003601f168201915b505050505081526020016004820180546108d390614e84565b80601f01602080910402602001604051908101604052809291908181526020018280546108ff90614e84565b801561094c5780601f106109215761010080835404028352916020019161094c565b820191906000526020600020905b81548152906001019060200180831161092f57829003601f168201915b5050505050815250508152602001601282018054806020026020016040519081016040528092919081815260200182805480156109a857602002820191906000526020600020905b815481526020019060010190808311610994575b505050505081526020016013820160009054906101000a900473ffffffffffffffffffffffffffffffffffffffff1673ffffffffffffffffffffffffffffffffffffffff1673ffffffffffffffffffffffffffffffffffffffff1681526020016014820154815260200160158201548152602001601682015481526020016017820160009054906101000a900460ff161515151581526020016017820160019054906101000a900460ff1615151515815250509050600080610a6d8360e00151612acc565b915091507f1eacdaf73457ba4b3c9a6cabd4fe8b957bc4ad6984d5dbf546064c96202f8e0e858460c001518560e001518585604051610ab0959493929190614eb6565b60405180910390a18115610c9a576000600360009054906101000a900473ffffffffffffffffffffffffffffffffffffffff16905060008573ffffffffffffffffffffffffffffffffffffffff16634b02f22d866000015187606001516040518363ffffffff1660e01b8152600401610b2a929190614fb8565b6020604051808303816000875af1158015610b49573d6000803e3d6000fd5b505050506040513d601f19601f82011682018060405250810190610b6d9190615004565b9050610c038560200151828473ffffffffffffffffffffffffffffffffffffffff16632d4a03828960a001516040518263ffffffff1660e01b8152600401610bb59190614322565b602060405180830381865afa158015610bd2573d6000803e3d6000fd5b505050506040513d601f19601f82011682018060405250810190610bf69190615004565b8a60018a60800151612ed8565b610c978560400151828473ffffffffffffffffffffffffffffffffffffffff16632d4a03828960a001516040518263ffffffff1660e01b8152600401610c499190614322565b602060405180830381865afa158015610c66573d6000803e3d6000fd5b505050506040513d601f19601f82011682018060405250810190610c8a9190615004565b8a60008a60800151612ed8565b50505b81600c600087815260200190815260200160002060170160016101000a81548160ff0219169083151502179055505050505050565b6000919050565b600560009054906101000a900473ffffffffffffffffffffffffffffffffffffffff1681565b60011515600c600084815260200190815260200160002060170160009054906101000a900460ff16151514610d66576040517f08c379a0000000000000000000000000000000000000000000000000000000008152600401610d5d9061508e565b60405180910390fd5b7f7fa8530f2b70b1c2f0aa92650d5274e8e84988e1af0fa8ca56a37ba7646720743383600c60008681526020019081526020016000206016015484604051610db194939291906150ae565b60405180910390a1610dc382826131fb565b5050565b600560009054906101000a900473ffffffffffffffffffffffffffffffffffffffff1673ffffffffffffffffffffffffffffffffffffffff163373ffffffffffffffffffffffffffffffffffffffff1614610e57576040517f08c379a0000000000000000000000000000000000000000000000000000000008152600401610e4e90615165565b60405180910390fd5b80600560006101000a81548173ffffffffffffffffffffffffffffffffffffffff021916908373ffffffffffffffffffffffffffffffffffffffff16021790555050565b60025481565b600e60009054906101000a900473ffffffffffffffffffffffffffffffffffffffff1681565b600c6020528060005260406000206000915090508060000160405180610100016040529081600082018054610efb90614e84565b80601f0160208091040260200160405190810160405280929190818152602001828054610f2790614e84565b8015610f745780601f10610f4957610100808354040283529160200191610f74565b820191906000526020600020905b815481529060010190602001808311610f5757829003601f168201915b50505050508152602001600182018054610f8d90614e84565b80601f0160208091040260200160405190810160405280929190818152602001828054610fb990614e84565b80156110065780601f10610fdb57610100808354040283529160200191611006565b820191906000526020600020905b815481529060010190602001808311610fe957829003601f168201915b5050505050815260200160028201548152602001600382015481526020016004820160009054906101000a900473ffffffffffffffffffffffffffffffffffffffff1673ffffffffffffffffffffffffffffffffffffffff1673ffffffffffffffffffffffffffffffffffffffff16815260200160058201805461108990614e84565b80601f01602080910402602001604051908101604052809291908181526020018280546110b590614e84565b80156111025780601f106110d757610100808354040283529160200191611102565b820191906000526020600020905b8154815290600101906020018083116110e557829003601f168201915b50505050508152602001600682015481526020016007820160009054906101000a900460ff16151515158152505090806008016040518060a001604052908160008201548152602001600182015481526020016002820154815260200160038201805461116e90614e84565b80601f016020809104026020016040519081016040528092919081815260200182805461119a90614e84565b80156111e75780601f106111bc576101008083540402835291602001916111e7565b820191906000526020600020905b8154815290600101906020018083116111ca57829003601f168201915b5050505050815260200160048201805461120090614e84565b80601f016020809104026020016040519081016040528092919081815260200182805461122c90614e84565b80156112795780601f1061124e57610100808354040283529160200191611279565b820191906000526020600020905b81548152906001019060200180831161125c57829003601f168201915b5050505050815250509080600d016040518060a00160405290816000820154815260200160018201548152602001600282015481526020016003820180546112c090614e84565b80601f01602080910402602001604051908101604052809291908181526020018280546112ec90614e84565b80156113395780601f1061130e57610100808354040283529160200191611339565b820191906000526020600020905b81548152906001019060200180831161131c57829003601f168201915b5050505050815260200160048201805461135290614e84565b80601f016020809104026020016040519081016040528092919081815260200182805461137e90614e84565b80156113cb5780601f106113a0576101008083540402835291602001916113cb565b820191906000526020600020905b8154815290600101906020018083116113ae57829003601f168201915b505050505081525050908060130160009054906101000a900473ffffffffffffffffffffffffffffffffffffffff16908060140154908060150154908060160154908060170160009054906101000a900460ff16908060170160019054906101000a900460ff16905089565b60076020528060005260406000206000915090508060000160009054906101000a900473ffffffffffffffffffffffffffffffffffffffff16908060010154908060020154908060030154908060040154908060050154908060060154908060070160009054906101000a900460ff16908060070160019054906101000a900460ff16908060070160029054906101000a900460ff16908060070160039054906101000a900460ff16908060070160049054906101000a900460ff1690508c565b600460009054906101000a900473ffffffffffffffffffffffffffffffffffffffff1681565b600080600f60009054906101000a900473ffffffffffffffffffffffffffffffffffffffff16905060008173ffffffffffffffffffffffffffffffffffffffff1663cd58b8d685606001516040518263ffffffff1660e01b81526004016115859190614322565b600060405180830381865afa1580156115a2573d6000803e3d6000fd5b505050506040513d6000823e3d601f19601f820116820180604052508101906115cb919061521f565b975050505050505050600115158115151461161b576040517f08c379a000000000000000000000000000000000000000000000000000000000815260040161161290615375565b60405180910390fd5b50600b600081548092919061162f906153c4565b91905055506000600b5490506000600360009054906101000a900473ffffffffffffffffffffffffffffffffffffffff16905060008173ffffffffffffffffffffffffffffffffffffffff16632d4a038287606001516040518263ffffffff1660e01b81526004016116a19190614322565b602060405180830381865afa1580156116be573d6000803e3d6000fd5b505050506040513d601f19601f820116820180604052508101906116e29190615004565b905060006116f16000836134ee565b90508273ffffffffffffffffffffffffffffffffffffffff166361cbc3578860a00151606001518960c00151606001516040518363ffffffff1660e01b815260040161173e929190615446565b600060405180830381600087803b15801561175857600080fd5b505af115801561176c573d6000803e3d6000fd5b5050505060008573ffffffffffffffffffffffffffffffffffffffff1663c1befa6a89606001518a600001518b602001518c6040015133886040518763ffffffff1660e01b81526004016117c59695949392919061547d565b6000604051808303816000875af11580156117e4573d6000803e3d6000fd5b505050506040513d6000823e3d601f19601f8201168201806040525081019061180d9190615611565b905060006040518061014001604052808381526020018a60a0015181526020018a60c0015181526020018a6080015181526020013373ffffffffffffffffffffffffffffffffffffffff1681526020018a6060015181526020018581526020018481526020016001151581526020016000151581525090507f42cad05f5e0c47228d26190e634cc7f9822f43ee731fe6b8f723987878a9f74686838b60a001518c60c001518d60800151338f606001518b8b6040516118d49998979695949392919061565a565b60405180910390a17f481ac14a03d079bd5d1dd2bb725fae4aa2f87184de7662e57a1c32dce092765333878560405161190f93929190615703565b60405180910390a180600c60008881526020019081526020016000206000820151816000016000820151816000019080519060200190611950929190613fd0565b50602082015181600101908051906020019061196d929190613fd0565b50604082015181600201556060820151816003015560808201518160040160006101000a81548173ffffffffffffffffffffffffffffffffffffffff021916908373ffffffffffffffffffffffffffffffffffffffff16021790555060a08201518160050190805190602001906119e5929190613fd0565b5060c0820151816006015560e08201518160070160006101000a81548160ff02191690831515021790555050506020820151816008016000820151816000015560208201518160010155604082015181600201556060820151816003019080519060200190611a55929190613fd0565b506080820151816004019080519060200190611a72929190613fd0565b505050604082015181600d016000820151816000015560208201518160010155604082015181600201556060820151816003019080519060200190611ab8929190613fd0565b506080820151816004019080519060200190611ad5929190613fd0565b5050506060820151816012019080519060200190611af4929190614056565b5060808201518160130160006101000a81548173ffffffffffffffffffffffffffffffffffffffff021916908373ffffffffffffffffffffffffffffffffffffffff16021790555060a0820151816014015560c0820151816015015560e082015181601601556101008201518160170160006101000a81548160ff0219169083151502179055506101208201518160170160016101000a81548160ff02191690831515021790555090505085975050505050505050919050565b600d6020528160005260406000206020528060005260406000206000915091509054906101000a900460ff1681565b6000600a60008673ffffffffffffffffffffffffffffffffffffffff1673ffffffffffffffffffffffffffffffffffffffff168152602001908152602001600020905060005b8180549050811015611dce576001151560076000848481548110611c4a57611c4961573a565b5b9060005260206000200154815260200190815260200160002060070160009054906101000a900460ff1615151480611cb457504360076000848481548110611c9557611c9461573a565b5b9060005260206000200154815260200190815260200160002060060154105b15611d55578160018380549050611ccb9190615769565b81548110611cdc57611cdb61573a565b5b9060005260206000200154828281548110611cfa57611cf961573a565b5b906000526020600020018190555081805480611d1957611d1861579d565b5b600190038181906000526020600020016000905590556000811415611d415760009050611d50565b8080611d4c906157cc565b9150505b611dbb565b60076000838381548110611d6c57611d6b61573a565b5b9060005260206000200154815260200190815260200160002060050154851415611dba57611db9828281548110611da657611da561573a565b5b90600052602060002001548786866136df565b5b5b8080611dc6906153c4565b915050611c23565b505050505050565b600360009054906101000a900473ffffffffffffffffffffffffffffffffffffffff1681565b600f60009054906101000a900473ffffffffffffffffffffffffffffffffffffffff1681565b60007fbc197c819b3e337a6f9652dd10becd7eef83032af3b9d958d3d42f6694146621905098975050505050505050565b60008060019054906101000a900460ff16159050808015611e845750600160008054906101000a900460ff1660ff16105b80611eb15750611e93306138ac565b158015611eb05750600160008054906101000a900460ff1660ff16145b5b611ef0576040517f08c379a0000000000000000000000000000000000000000000000000000000008152600401611ee790615868565b60405180910390fd5b60016000806101000a81548160ff021916908360ff1602179055508015611f2d576001600060016101000a81548160ff0219169083151502179055505b600560009054906101000a900473ffffffffffffffffffffffffffffffffffffffff1673ffffffffffffffffffffffffffffffffffffffff163373ffffffffffffffffffffffffffffffffffffffff1614611fbd576040517f08c379a0000000000000000000000000000000000000000000000000000000008152600401611fb490615165565b60405180910390fd5b611fc6836120a7565b83600f60006101000a81548173ffffffffffffffffffffffffffffffffffffffff021916908373ffffffffffffffffffffffffffffffffffffffff16021790555081600e60006101000a81548173ffffffffffffffffffffffffffffffffffffffff021916908373ffffffffffffffffffffffffffffffffffffffff16021790555080156120a15760008060016101000a81548160ff0219169083151502179055507f7f26b83ff96e1f2b6a682f133852f6798a09c465da95921460cefb3847402498600160405161209891906158da565b60405180910390a15b50505050565b600060019054906101000a900460ff166120f6576040517f08c379a00000000000000000000000000000000000000000000000000000000081526004016120ed90615967565b60405180910390fd5b80600360006101000a81548173ffffffffffffffffffffffffffffffffffffffff021916908373ffffffffffffffffffffffffffffffffffffffff16021790555050565b6000600c600083815260200190815260200160002060405180610140016040529081600082016040518061010001604052908160008201805461217c90614e84565b80601f01602080910402602001604051908101604052809291908181526020018280546121a890614e84565b80156121f55780601f106121ca576101008083540402835291602001916121f5565b820191906000526020600020905b8154815290600101906020018083116121d857829003601f168201915b5050505050815260200160018201805461220e90614e84565b80601f016020809104026020016040519081016040528092919081815260200182805461223a90614e84565b80156122875780601f1061225c57610100808354040283529160200191612287565b820191906000526020600020905b81548152906001019060200180831161226a57829003601f168201915b5050505050815260200160028201548152602001600382015481526020016004820160009054906101000a900473ffffffffffffffffffffffffffffffffffffffff1673ffffffffffffffffffffffffffffffffffffffff1673ffffffffffffffffffffffffffffffffffffffff16815260200160058201805461230a90614e84565b80601f016020809104026020016040519081016040528092919081815260200182805461233690614e84565b80156123835780601f1061235857610100808354040283529160200191612383565b820191906000526020600020905b81548152906001019060200180831161236657829003601f168201915b50505050508152602001600682015481526020016007820160009054906101000a900460ff1615151515815250508152602001600882016040518060a00160405290816000820154815260200160018201548152602001600282015481526020016003820180546123f390614e84565b80601f016020809104026020016040519081016040528092919081815260200182805461241f90614e84565b801561246c5780601f106124415761010080835404028352916020019161246c565b820191906000526020600020905b81548152906001019060200180831161244f57829003601f168201915b5050505050815260200160048201805461248590614e84565b80601f01602080910402602001604051908101604052809291908181526020018280546124b190614e84565b80156124fe5780601f106124d3576101008083540402835291602001916124fe565b820191906000526020600020905b8154815290600101906020018083116124e157829003601f168201915b5050505050815250508152602001600d82016040518060a001604052908160008201548152602001600182015481526020016002820154815260200160038201805461254990614e84565b80601f016020809104026020016040519081016040528092919081815260200182805461257590614e84565b80156125c25780601f10612597576101008083540402835291602001916125c2565b820191906000526020600020905b8154815290600101906020018083116125a557829003601f168201915b505050505081526020016004820180546125db90614e84565b80601f016020809104026020016040519081016040528092919081815260200182805461260790614e84565b80156126545780601f1061262957610100808354040283529160200191612654565b820191906000526020600020905b81548152906001019060200180831161263757829003601f168201915b5050505050815250508152602001601282018054806020026020016040519081016040528092919081815260200182805480156126b057602002820191906000526020600020905b81548152602001906001019080831161269c575b505050505081526020016013820160009054906101000a900473ffffffffffffffffffffffffffffffffffffffff1673ffffffffffffffffffffffffffffffffffffffff1673ffffffffffffffffffffffffffffffffffffffff1681526020016014820154815260200160158201548152602001601682015481526020016017820160009054906101000a900460ff161515151581526020016017820160019054906101000a900460ff1615151515815250509050600760008260e00151815260200190815260200160002060070160009054906101000a900460ff166127cc576040517f08c379a00000000000000000000000000000000000000000000000000000000081526004016127c3906159d3565b60405180910390fd5b60001515600d600084815260200190815260200160002060003373ffffffffffffffffffffffffffffffffffffffff1673ffffffffffffffffffffffffffffffffffffffff16815260200190815260200160002060009054906101000a900460ff16151514612870576040517f08c379a000000000000000000000000000000000000000000000000000000000815260040161286790615a3f565b60405180910390fd5b600115158161012001511515146128bc576040517f08c379a00000000000000000000000000000000000000000000000000000000081526004016128b390615aab565b60405180910390fd5b6000601060008481526020019081526020016000206040518060e001604052908160008201548152602001600182015481526020016002820154815260200160038201548152602001600482015481526020016005820154815260200160068201548152505090506000601160008581526020019081526020016000206040518060e001604052908160008201548152602001600182015481526020016002820154815260200160038201548152602001600482015481526020016005820154815260200160068201548152505090506000612997836138cf565b905060006129a4836138cf565b90507f05e5c9b248e254567ca15790a9819305964904f68019d07432cf64fa05f2b49586856080015184336040516129df9493929190615acb565b60405180910390a17f05e5c9b248e254567ca15790a9819305964904f68019d07432cf64fa05f2b4958684608001518333604051612a209493929190615acb565b60405180910390a16001600860008760e00151815260200190815260200160002060003373ffffffffffffffffffffffffffffffffffffffff1673ffffffffffffffffffffffffffffffffffffffff16815260200190815260200160002060006101000a81548160ff021916908315150217905550505050505050565b60007ff23a6e612e1ff4830e658fe43f4e3cb4a5f8170bd5d9e69fb5d7a7fa9e4fdf9790509695505050505050565b600080600115156007600085815260200190815260200160002060070160029054906101000a900460ff16151514612b39576040517f08c379a0000000000000000000000000000000000000000000000000000000008152600401612b3090615b5c565b60405180910390fd5b43600760008581526020019081526020016000206006015410612b91576040517f08c379a0000000000000000000000000000000000000000000000000000000008152600401612b8890615bc8565b60405180910390fd5b600015156007600085815260200190815260200160002060070160009054906101000a900460ff16151514612bfb576040517f08c379a0000000000000000000000000000000000000000000000000000000008152600401612bf290615c34565b60405180910390fd5b60006007600085815260200190815260200160002090506000816001015490506000826003015490506000600360009054906101000a900473ffffffffffffffffffffffffffffffffffffffff16905060016007600089815260200190815260200160002060070160006101000a81548160ff02191690831515021790555060008173ffffffffffffffffffffffffffffffffffffffff1663036c22ad86600501546040518263ffffffff1660e01b8152600401612cb99190614322565b602060405180830381865afa158015612cd6573d6000803e3d6000fd5b505050506040513d601f19601f82011682018060405250810190612cfa9190615004565b9050600060648060025484612d0f9190615c54565b612d199190615cdd565b612d239190615cdd565b9050808585612d329190615d0e565b1115612e67576000851115612e25576000606460428688612d539190615d0e565b612d5d9190615c54565b612d679190615cdd565b90506001600760008c815260200190815260200160002060070160036101000a81548160ff02191690831515021790555080861115612de2576000600760008c815260200190815260200160002060070160046101000a81548160ff0219169083151502179055506001809850985050505050505050612ed3565b6000600760008c815260200190815260200160002060070160046101000a81548160ff021916908315150217905550600060019850985050505050505050612ed3565b6000600760008b815260200190815260200160002060070160046101000a81548160ff0219169083151502179055506000600197509750505050505050612ed3565b6000600760008b815260200190815260200160002060070160036101000a81548160ff0219169083151502179055506000600760008b815260200190815260200160002060070160046101000a81548160ff021916908315150217905550600080975097505050505050505b915091565b6000600360009054906101000a900473ffffffffffffffffffffffffffffffffffffffff169050600085905060008273ffffffffffffffffffffffffffffffffffffffff1663036c22ad836040518263ffffffff1660e01b8152600401612f3f9190614322565b602060405180830381865afa158015612f5c573d6000803e3d6000fd5b505050506040513d601f19601f82011682018060405250810190612f809190615004565b905060008515612f9c57612f958a8a87613a47565b9050612faa565b612fa78a8a87613b15565b90505b60006040518060e00160405280670de0b6b3a764000085612fcb9190615cdd565b81526020018c602001518152602001898152602001858152602001838152602001670de0b6b3a7640000856130009190615cdd565b8d6020015161300f9190615cdd565b81526020018673ffffffffffffffffffffffffffffffffffffffff16639711715a6040518163ffffffff1660e01b81526004016020604051808303816000875af1158015613061573d6000803e3d6000fd5b505050506040513d601f19601f820116820180604052508101906130859190615004565b815250905060008160a00151116130d1576040517f08c379a00000000000000000000000000000000000000000000000000000000081526004016130c890615dd6565b60405180910390fd5b7f70ca97bed53efc5c77b3772fd7dd916c4712482aeef3a17d25dfad3bff28f86d88826000015183602001518460600151868660a001518760c001516040516131209796959493929190615df6565b60405180910390a186156131905780601060008a8152602001908152602001600020600082015181600001556020820151816001015560408201518160020155606082015181600301556080820151816004015560a0820151816005015560c082015181600601559050506131ee565b80601160008a8152602001908152602001600020600082015181600001556020820151816001015560408201518160020155606082015181600301556080820151816004015560a0820151816005015560c082015181600601559050505b5050505050505050505050565b8133600115156007600084815260200190815260200160002060070160029054906101000a900460ff16151514613267576040517f08c379a000000000000000000000000000000000000000000000000000000000815260040161325e90615b5c565b60405180910390fd5b436007600084815260200190815260200160002060060154116132bf576040517f08c379a00000000000000000000000000000000000000000000000000000000081526004016132b690615bc8565b60405180910390fd5b600015156008600084815260200190815260200160002060008373ffffffffffffffffffffffffffffffffffffffff1673ffffffffffffffffffffffffffffffffffffffff16815260200190815260200160002060009054906101000a900460ff16151514613363576040517f08c379a000000000000000000000000000000000000000000000000000000000815260040161335a90615eb1565b60405180910390fd5b836007600082815260200190815260200160002060070160019054906101000a900460ff161561343657600015156008600083815260200190815260200160002060003273ffffffffffffffffffffffffffffffffffffffff1673ffffffffffffffffffffffffffffffffffffffff16815260200190815260200160002060009054906101000a900460ff16151514613431576040517f08c379a000000000000000000000000000000000000000000000000000000000815260040161342890615eb1565b60405180910390fd5b6134dc565b6007600082815260200190815260200160002060000160009054906101000a900473ffffffffffffffffffffffffffffffffffffffff1673ffffffffffffffffffffffffffffffffffffffff163273ffffffffffffffffffffffffffffffffffffffff1614156134db576040517f08c379a00000000000000000000000000000000000000000000000000000000081526004016134d290615f1d565b60405180910390fd5b5b6134e7858532613be3565b5050505050565b600060066000815480929190613503906153c4565b919050555060006040518061018001604052803273ffffffffffffffffffffffffffffffffffffffff16815260200160008152602001600081526020016000815260200160008152602001848152602001600154436135629190615d0e565b815260200160001515815260200185151581526020016001151581526020016000151581526020016000151581525090508060076000600654815260200190815260200160002060008201518160000160006101000a81548173ffffffffffffffffffffffffffffffffffffffff021916908373ffffffffffffffffffffffffffffffffffffffff1602179055506020820151816001015560408201518160020155606082015181600301556080820151816004015560a0820151816005015560c0820151816006015560e08201518160070160006101000a81548160ff0219169083151502179055506101008201518160070160016101000a81548160ff0219169083151502179055506101208201518160070160026101000a81548160ff0219169083151502179055506101408201518160070160036101000a81548160ff0219169083151502179055506101608201518160070160046101000a81548160ff02191690831515021790555090505060065491505092915050565b600115156008600086815260200190815260200160002060008573ffffffffffffffffffffffffffffffffffffffff1673ffffffffffffffffffffffffffffffffffffffff16815260200190815260200160002060009054906101000a900460ff16151514613783576040517f08c379a000000000000000000000000000000000000000000000000000000000815260040161377a90615faf565b60405180910390fd5b60006009600086815260200190815260200160002060008573ffffffffffffffffffffffffffffffffffffffff1673ffffffffffffffffffffffffffffffffffffffff16815260200190815260200160002060009054906101000a900460ff169050801561384a57826007600087815260200190815260200160002060010160008282546138119190615769565b925050819055508160076000878152602001908152602001600020600101600082825461383e9190615d0e565b925050819055506138a5565b826007600087815260200190815260200160002060030160008282546138709190615769565b925050819055508160076000878152602001908152602001600020600301600082825461389d9190615d0e565b925050819055505b5050505050565b6000808273ffffffffffffffffffffffffffffffffffffffff163b119050919050565b600080600e60009054906101000a900473ffffffffffffffffffffffffffffffffffffffff16905060008173ffffffffffffffffffffffffffffffffffffffff1663626da068338660c0015187606001516040518463ffffffff1660e01b815260040161393e93929190615703565b602060405180830381865afa15801561395b573d6000803e3d6000fd5b505050506040513d601f19601f8201168201806040525081019061397f9190615004565b9050600081141561399557600092505050613a42565b6000670de0b6b3a7640000828660a001516139b09190615c54565b6139ba9190615cdd565b90506000811115613a3b578273ffffffffffffffffffffffffffffffffffffffff1663f242432a30338860800151856040518563ffffffff1660e01b8152600401613a08949392919061602c565b600060405180830381600087803b158015613a2257600080fd5b505af1158015613a36573d6000803e3d6000fd5b505050505b8093505050505b919050565b600080600360009054906101000a900473ffffffffffffffffffffffffffffffffffffffff1690508073ffffffffffffffffffffffffffffffffffffffff166354d4f719858760000151886040015189606001518a608001518b602001518a6040518863ffffffff1660e01b8152600401613ac89796959493929190616084565b6020604051808303816000875af1158015613ae7573d6000803e3d6000fd5b505050506040513d601f19601f82011682018060405250810190613b0b9190615004565b9150509392505050565b600080600360009054906101000a900473ffffffffffffffffffffffffffffffffffffffff1690508073ffffffffffffffffffffffffffffffffffffffff16631e622476858760000151886040015189606001518a608001518b602001518a6040518863ffffffff1660e01b8152600401613b969796959493929190616084565b6020604051808303816000875af1158015613bb5573d6000803e3d6000fd5b505050506040513d601f19601f82011682018060405250810190613bd99190615004565b9150509392505050565b6000600360009054906101000a900473ffffffffffffffffffffffffffffffffffffffff169050600060076000868152602001908152602001600020604051806101800160405290816000820160009054906101000a900473ffffffffffffffffffffffffffffffffffffffff1673ffffffffffffffffffffffffffffffffffffffff1673ffffffffffffffffffffffffffffffffffffffff1681526020016001820154815260200160028201548152602001600382015481526020016004820154815260200160058201548152602001600682015481526020016007820160009054906101000a900460ff161515151581526020016007820160019054906101000a900460ff161515151581526020016007820160029054906101000a900460ff161515151581526020016007820160039054906101000a900460ff161515151581526020016007820160049054906101000a900460ff161515151581525050905060008273ffffffffffffffffffffffffffffffffffffffff1662fdd58e858460a001516040518363ffffffff1660e01b8152600401613d86929190616101565b602060405180830381865afa158015613da3573d6000803e3d6000fd5b505050506040513d601f19601f82011682018060405250810190613dc79190615004565b90508415613e2f5780600760008881526020019081526020016000206001016000828254613df59190615d0e565b925050819055506001600760008881526020019081526020016000206002016000828254613e239190615d0e565b92505081905550613e8b565b80600760008881526020019081526020016000206003016000828254613e559190615d0e565b925050819055506001600760008881526020019081526020016000206004016000828254613e839190615d0e565b925050819055505b60016008600088815260200190815260200160002060008673ffffffffffffffffffffffffffffffffffffffff1673ffffffffffffffffffffffffffffffffffffffff16815260200190815260200160002060006101000a81548160ff021916908315150217905550846009600088815260200190815260200160002060008673ffffffffffffffffffffffffffffffffffffffff1673ffffffffffffffffffffffffffffffffffffffff16815260200190815260200160002060006101000a81548160ff0219169083151502179055506000600a60008673ffffffffffffffffffffffffffffffffffffffff1673ffffffffffffffffffffffffffffffffffffffff16815260200190815260200160002090508087908060018154018082558091505060019003906000526020600020016000909190919091505550505050505050565b828054613fdc90614e84565b90600052602060002090601f016020900481019282613ffe5760008555614045565b82601f1061401757805160ff1916838001178555614045565b82800160010185558215614045579182015b82811115614044578251825591602001919060010190614029565b5b50905061405291906140a3565b5090565b828054828255906000526020600020908101928215614092579160200282015b82811115614091578251825591602001919060010190614076565b5b50905061409f91906140a3565b5090565b5b808211156140bc5760008160009055506001016140a4565b5090565b6000604051905090565b600080fd5b600080fd5b6000819050919050565b6140e7816140d4565b81146140f257600080fd5b50565b600081359050614104816140de565b92915050565b6000602082840312156141205761411f6140ca565b5b600061412e848285016140f5565b91505092915050565b60007fffffffff0000000000000000000000000000000000000000000000000000000082169050919050565b61416c81614137565b811461417757600080fd5b50565b60008135905061418981614163565b92915050565b6000602082840312156141a5576141a46140ca565b5b60006141b38482850161417a565b91505092915050565b60008115159050919050565b6141d1816141bc565b82525050565b60006020820190506141ec60008301846141c8565b92915050565b600073ffffffffffffffffffffffffffffffffffffffff82169050919050565b600061421d826141f2565b9050919050565b61422d81614212565b82525050565b60006020820190506142486000830184614224565b92915050565b614257816141bc565b811461426257600080fd5b50565b6000813590506142748161424e565b92915050565b60008060408385031215614291576142906140ca565b5b600061429f858286016140f5565b92505060206142b085828601614265565b9150509250929050565b6142c381614212565b81146142ce57600080fd5b50565b6000813590506142e0816142ba565b92915050565b6000602082840312156142fc576142fb6140ca565b5b600061430a848285016142d1565b91505092915050565b61431c816140d4565b82525050565b60006020820190506143376000830184614313565b92915050565b600081519050919050565b600082825260208201905092915050565b60005b8381101561437757808201518184015260208101905061435c565b83811115614386576000848401525b50505050565b6000601f19601f8301169050919050565b60006143a88261433d565b6143b28185614348565b93506143c2818560208601614359565b6143cb8161438c565b840191505092915050565b6143df816140d4565b82525050565b6143ee81614212565b82525050565b6143fd816141bc565b82525050565b6000610100830160008301518482036000860152614421828261439d565b9150506020830151848203602086015261443b828261439d565b915050604083015161445060408601826143d6565b50606083015161446360608601826143d6565b50608083015161447660808601826143e5565b5060a083015184820360a086015261448e828261439d565b91505060c08301516144a360c08601826143d6565b5060e08301516144b660e08601826143f4565b508091505092915050565b600060a0830160008301516144d960008601826143d6565b5060208301516144ec60208601826143d6565b5060408301516144ff60408601826143d6565b5060608301518482036060860152614517828261439d565b91505060808301518482036080860152614531828261439d565b9150508091505092915050565b6000610120820190508181036000830152614559818c614403565b9050818103602083015261456d818b6144c1565b90508181036040830152614581818a6144c1565b90506145906060830189614224565b61459d6080830188614313565b6145aa60a0830187614313565b6145b760c0830186614313565b6145c460e08301856141c8565b6145d26101008301846141c8565b9a9950505050505050505050565b6000610180820190506145f6600083018f614224565b614603602083018e614313565b614610604083018d614313565b61461d606083018c614313565b61462a608083018b614313565b61463760a083018a614313565b61464460c0830189614313565b61465160e08301886141c8565b61465f6101008301876141c8565b61466d6101208301866141c8565b61467b6101408301856141c8565b6146896101608301846141c8565b9d9c50505050505050505050505050565b600080fd5b7f4e487b7100000000000000000000000000000000000000000000000000000000600052604160045260246000fd5b6146d78261438c565b810181811067ffffffffffffffff821117156146f6576146f561469f565b5b80604052505050565b60006147096140c0565b905061471582826146ce565b919050565b600080fd5b600080fd5b600080fd5b600067ffffffffffffffff8211156147445761474361469f565b5b61474d8261438c565b9050602081019050919050565b82818337600083830152505050565b600061477c61477784614729565b6146ff565b90508281526020810184848401111561479857614797614724565b5b6147a384828561475a565b509392505050565b600082601f8301126147c0576147bf61471f565b5b81356147d0848260208601614769565b91505092915050565b600067ffffffffffffffff8211156147f4576147f361469f565b5b602082029050602081019050919050565b600080fd5b600061481d614818846147d9565b6146ff565b905080838252602082019050602084028301858111156148405761483f614805565b5b835b81811015614869578061485588826140f5565b845260208401935050602081019050614842565b5050509392505050565b600082601f8301126148885761488761471f565b5b813561489884826020860161480a565b91505092915050565b600060a082840312156148b7576148b661469a565b5b6148c160a06146ff565b905060006148d1848285016140f5565b60008301525060206148e5848285016140f5565b60208301525060406148f9848285016140f5565b604083015250606082013567ffffffffffffffff81111561491d5761491c61471a565b5b614929848285016147ab565b606083015250608082013567ffffffffffffffff81111561494d5761494c61471a565b5b614959848285016147ab565b60808301525092915050565b600060e0828403121561497b5761497a61469a565b5b61498560e06146ff565b9050600082013567ffffffffffffffff8111156149a5576149a461471a565b5b6149b1848285016147ab565b600083015250602082013567ffffffffffffffff8111156149d5576149d461471a565b5b6149e1848285016147ab565b602083015250604082013567ffffffffffffffff811115614a0557614a0461471a565b5b614a11848285016147ab565b6040830152506060614a25848285016140f5565b606083015250608082013567ffffffffffffffff811115614a4957614a4861471a565b5b614a5584828501614873565b60808301525060a082013567ffffffffffffffff811115614a7957614a7861471a565b5b614a85848285016148a1565b60a08301525060c082013567ffffffffffffffff811115614aa957614aa861471a565b5b614ab5848285016148a1565b60c08301525092915050565b600060208284031215614ad757614ad66140ca565b5b600082013567ffffffffffffffff811115614af557614af46140cf565b5b614b0184828501614965565b91505092915050565b60008060408385031215614b2157614b206140ca565b5b6000614b2f858286016140f5565b9250506020614b40858286016142d1565b9150509250929050565b60008060008060808587031215614b6457614b636140ca565b5b6000614b72878288016142d1565b9450506020614b83878288016140f5565b9350506040614b94878288016140f5565b9250506060614ba5878288016140f5565b91505092959194509250565b600080fd5b60008083601f840112614bcc57614bcb61471f565b5b8235905067ffffffffffffffff811115614be957614be8614bb1565b5b602083019150836020820283011115614c0557614c04614805565b5b9250929050565b60008083601f840112614c2257614c2161471f565b5b8235905067ffffffffffffffff811115614c3f57614c3e614bb1565b5b602083019150836001820283011115614c5b57614c5a614805565b5b9250929050565b60008060008060008060008060a0898b031215614c8257614c816140ca565b5b6000614c908b828c016142d1565b9850506020614ca18b828c016142d1565b975050604089013567ffffffffffffffff811115614cc257614cc16140cf565b5b614cce8b828c01614bb6565b9650965050606089013567ffffffffffffffff811115614cf157614cf06140cf565b5b614cfd8b828c01614bb6565b9450945050608089013567ffffffffffffffff811115614d2057614d1f6140cf565b5b614d2c8b828c01614c0c565b92509250509295985092959890939650565b614d4781614137565b82525050565b6000602082019050614d626000830184614d3e565b92915050565b600080600060608486031215614d8157614d806140ca565b5b6000614d8f868287016142d1565b9350506020614da0868287016142d1565b9250506040614db1868287016142d1565b9150509250925092565b60008060008060008060a08789031215614dd857614dd76140ca565b5b6000614de689828a016142d1565b9650506020614df789828a016142d1565b9550506040614e0889828a016140f5565b9450506060614e1989828a016140f5565b935050608087013567ffffffffffffffff811115614e3a57614e396140cf565b5b614e4689828a01614c0c565b92509250509295509295509295565b7f4e487b7100000000000000000000000000000000000000000000000000000000600052602260045260246000fd5b60006002820490506001821680614e9c57607f821691505b60208210811415614eb057614eaf614e55565b5b50919050565b600060a082019050614ecb6000830188614313565b614ed86020830187614313565b614ee56040830186614313565b614ef260608301856141c8565b614eff60808301846141c8565b9695505050505050565b600081519050919050565b600082825260208201905092915050565b6000819050602082019050919050565b6000614f4183836143d6565b60208301905092915050565b6000602082019050919050565b6000614f6582614f09565b614f6f8185614f14565b9350614f7a83614f25565b8060005b83811015614fab578151614f928882614f35565b9750614f9d83614f4d565b925050600181019050614f7e565b5085935050505092915050565b60006040820190508181036000830152614fd28185614403565b90508181036020830152614fe68184614f5a565b90509392505050565b600081519050614ffe816140de565b92915050565b60006020828403121561501a576150196140ca565b5b600061502884828501614fef565b91505092915050565b600082825260208201905092915050565b7f494e56414c49443a20494e56414c49445f56455253494f4e5f5245515f494400600082015250565b6000615078601f83615031565b915061508382615042565b602082019050919050565b600060208201905081810360008301526150a78161506b565b9050919050565b60006080820190506150c36000830187614224565b6150d06020830186614313565b6150dd6040830185614313565b6150ea60608301846141c8565b95945050505050565b7f554e415554484f52495a45443a2043414e4e4f545f504552464f524d5f41435460008201527f494f4e0000000000000000000000000000000000000000000000000000000000602082015250565b600061514f602383615031565b915061515a826150f3565b604082019050919050565b6000602082019050818103600083015261517e81615142565b9050919050565b600061519861519384614729565b6146ff565b9050828152602081018484840111156151b4576151b3614724565b5b6151bf848285614359565b509392505050565b600082601f8301126151dc576151db61471f565b5b81516151ec848260208601615185565b91505092915050565b600081519050615204816142ba565b92915050565b6000815190506152198161424e565b92915050565b600080600080600080600080610100898b0312156152405761523f6140ca565b5b600089015167ffffffffffffffff81111561525e5761525d6140cf565b5b61526a8b828c016151c7565b985050602089015167ffffffffffffffff81111561528b5761528a6140cf565b5b6152978b828c016151c7565b97505060406152a88b828c01614fef565b96505060606152b98b828c01614fef565b95505060806152ca8b828c016151f5565b94505060a089015167ffffffffffffffff8111156152eb576152ea6140cf565b5b6152f78b828c016151c7565b93505060c06153088b828c01614fef565b92505060e06153198b828c0161520a565b9150509295985092959890939650565b7f494e56414c49443a205245434f52445f4e4f545f464f554e4400000000000000600082015250565b600061535f601983615031565b915061536a82615329565b602082019050919050565b6000602082019050818103600083015261538e81615352565b9050919050565b7f4e487b7100000000000000000000000000000000000000000000000000000000600052601160045260246000fd5b60006153cf826140d4565b91507fffffffffffffffffffffffffffffffffffffffffffffffffffffffffffffffff82141561540257615401615395565b5b600182019050919050565b60006154188261433d565b6154228185615031565b9350615432818560208601614359565b61543b8161438c565b840191505092915050565b60006040820190508181036000830152615460818561540d565b90508181036020830152615474818461540d565b90509392505050565b600060c0820190506154926000830189614313565b81810360208301526154a4818861540d565b905081810360408301526154b8818761540d565b905081810360608301526154cc818661540d565b90506154db6080830185614224565b6154e860a0830184614313565b979650505050505050565b6000610100828403121561550a5761550961469a565b5b6155156101006146ff565b9050600082015167ffffffffffffffff8111156155355761553461471a565b5b615541848285016151c7565b600083015250602082015167ffffffffffffffff8111156155655761556461471a565b5b615571848285016151c7565b602083015250604061558584828501614fef565b604083015250606061559984828501614fef565b60608301525060806155ad848285016151f5565b60808301525060a082015167ffffffffffffffff8111156155d1576155d061471a565b5b6155dd848285016151c7565b60a08301525060c06155f184828501614fef565b60c08301525060e06156058482850161520a565b60e08301525092915050565b600060208284031215615627576156266140ca565b5b600082015167ffffffffffffffff811115615645576156446140cf565b5b615651848285016154f3565b91505092915050565b600061012082019050615670600083018c614313565b8181036020830152615682818b614403565b90508181036040830152615696818a6144c1565b905081810360608301526156aa81896144c1565b905081810360808301526156be8188614f5a565b90506156cd60a0830187614224565b6156da60c0830186614313565b6156e760e0830185614313565b6156f5610100830184614313565b9a9950505050505050505050565b60006060820190506157186000830186614224565b6157256020830185614313565b6157326040830184614313565b949350505050565b7f4e487b7100000000000000000000000000000000000000000000000000000000600052603260045260246000fd5b6000615774826140d4565b915061577f836140d4565b92508282101561579257615791615395565b5b828203905092915050565b7f4e487b7100000000000000000000000000000000000000000000000000000000600052603160045260246000fd5b60006157d7826140d4565b915060008214156157eb576157ea615395565b5b600182039050919050565b7f496e697469616c697a61626c653a20636f6e747261637420697320616c72656160008201527f647920696e697469616c697a6564000000000000000000000000000000000000602082015250565b6000615852602e83615031565b915061585d826157f6565b604082019050919050565b6000602082019050818103600083015261588181615845565b9050919050565b6000819050919050565b600060ff82169050919050565b6000819050919050565b60006158c46158bf6158ba84615888565b61589f565b615892565b9050919050565b6158d4816158a9565b82525050565b60006020820190506158ef60008301846158cb565b92915050565b7f496e697469616c697a61626c653a20636f6e7472616374206973206e6f74206960008201527f6e697469616c697a696e67000000000000000000000000000000000000000000602082015250565b6000615951602b83615031565b915061595c826158f5565b604082019050919050565b6000602082019050818103600083015261598081615944565b9050919050565b7f494e56414c49443a2042414c4c4f545f5354494c4c5f4f50454e000000000000600082015250565b60006159bd601a83615031565b91506159c882615987565b602082019050919050565b600060208201905081810360008301526159ec816159b0565b9050919050565b7f494e56414c49443a2043414e5f4f4e4c595f434c41494d5f4f4e434500000000600082015250565b6000615a29601c83615031565b9150615a34826159f3565b602082019050919050565b60006020820190508181036000830152615a5881615a1c565b9050919050565b7f494e56414c49443a2056455253494f4e5f52454a454354454400000000000000600082015250565b6000615a95601983615031565b9150615aa082615a5f565b602082019050919050565b60006020820190508181036000830152615ac481615a88565b9050919050565b6000608082019050615ae06000830187614313565b615aed6020830186614313565b615afa6040830185614313565b615b076060830184614224565b95945050505050565b7f494e56414c49443a2042414c4c4f545f4e4f545f464f554e4400000000000000600082015250565b6000615b46601983615031565b9150615b5182615b10565b602082019050919050565b60006020820190508181036000830152615b7581615b39565b9050919050565b7f494e56414c49443a20564f54494e475f54494d455f4f56455200000000000000600082015250565b6000615bb2601983615031565b9150615bbd82615b7c565b602082019050919050565b60006020820190508181036000830152615be181615ba5565b9050919050565b7f494e56414c49443a20524553554c545f414c52454144595f4445434c41524544600082015250565b6000615c1e602083615031565b9150615c2982615be8565b602082019050919050565b60006020820190508181036000830152615c4d81615c11565b9050919050565b6000615c5f826140d4565b9150615c6a836140d4565b9250817fffffffffffffffffffffffffffffffffffffffffffffffffffffffffffffffff0483118215151615615ca357615ca2615395565b5b828202905092915050565b7f4e487b7100000000000000000000000000000000000000000000000000000000600052601260045260246000fd5b6000615ce8826140d4565b9150615cf3836140d4565b925082615d0357615d02615cae565b5b828204905092915050565b6000615d19826140d4565b9150615d24836140d4565b9250827fffffffffffffffffffffffffffffffffffffffffffffffffffffffffffffffff03821115615d5957615d58615395565b5b828201905092915050565b7f494e53554646494349454e545f414d4f554e543a20544f4b454e5f534841524560008201527f5f5045525f555345525f49535f4c4f5700000000000000000000000000000000602082015250565b6000615dc0603083615031565b9150615dcb82615d64565b604082019050919050565b60006020820190508181036000830152615def81615db3565b9050919050565b600060e082019050615e0b600083018a614313565b615e186020830189614313565b615e256040830188614313565b615e326060830187614313565b615e3f6080830186614313565b615e4c60a0830185614313565b615e5960c0830184614313565b98975050505050505050565b7f494e56414c49443a20414c52454144595f564f54454400000000000000000000600082015250565b6000615e9b601683615031565b9150615ea682615e65565b602082019050919050565b60006020820190508181036000830152615eca81615e8e565b9050919050565b7f554e415554484f52495a45443a204f574e45525f43414e4e4f545f564f544500600082015250565b6000615f07601f83615031565b9150615f1282615ed1565b602082019050919050565b60006020820190508181036000830152615f3681615efa565b9050919050565b7f494e56414c49443a20494e5445524e414c3a20555345525f4841535f4e4f545f60008201527f564f544544000000000000000000000000000000000000000000000000000000602082015250565b6000615f99602583615031565b9150615fa482615f3d565b604082019050919050565b60006020820190508181036000830152615fc881615f8c565b9050919050565b600082825260208201905092915050565b7f494e56414c49443a20524f59414c54595f414c52454144595f434c41494d4544600082015250565b6000616016602083615fcf565b915061602182615fe0565b602082019050919050565b600060a0820190506160416000830187614224565b61604e6020830186614224565b61605b6040830185614313565b6160686060830184614313565b818103608083015261607981616009565b905095945050505050565b600060e082019050616099600083018a614313565b6160a66020830189614313565b6160b36040830188614313565b81810360608301526160c5818761540d565b905081810360808301526160d9818661540d565b90506160e860a0830185614313565b6160f560c0830184614224565b98975050505050505050565b60006040820190506161166000830185614224565b6161236020830184614313565b939250505056fea2646970667358221220103ee9579b90e8e9325064814bbc60a3f4475ad67c5a03a72da81ab6383a66b164736f6c634300080c0033",
  "immutableReferences": {},
  "source": "pragma solidity ^0.8.0;\n\nimport \"@openzeppelin/contracts/token/ERC1155/extensions/ERC1155Supply.sol\";\nimport \"@openzeppelin/contracts/utils/Counters.sol\";\nimport \"@openzeppelin/contracts/access/Ownable.sol\";\nimport \"@openzeppelin/contracts/token/ERC1155/IERC1155Receiver.sol\";\nimport \"./interface/IContribution.sol\";\nimport \"./Voting/BaseVotingContract.sol\";\nimport \"./interface/ITreasury.sol\";\nimport \"./interface/ITreasuryCore.sol\";\nimport \"./RecordsContract.sol\";\n\ncontract RecordsVotingContract is BaseVotingContract, IERC1155Receiver {\n    uint256 newVersionRequestId = 0;\n\n    // This mapping holds the data of new record version requests\n    mapping(uint256 => NewVersionRequest) public newVersionRequestMap;\n\n    // This mapping holds the the status of the claiming of the reward\n    // versionId => user address => status\n    mapping(uint256 => mapping(address => bool)) public rewardsClaimed;\n\n    // Address of the treasury core contracts\n    address public TREASURY_CORE_CONTRACT_ADDRESS;\n\n    // Address of the records contract\n    address public RECORDS_CONTRACT_ADDRESS;\n\n    /// @dev This is the token data for new version of record\n    /// @param totalSupply This is the total amount of tokens that will be created\n    /// @param oldContributorShare This is the amount of token that will be distributed among the previous record owners\n    /// @param userBalance Amount of tokens that user will keep to himself\n    /// @param symbol Symbol for the token\n    /// @param image Image for the token\n    struct NewVersionTokenStruct {\n        uint256 totalSupply;\n        uint256 oldContributorShare;\n        uint256 userBalance;\n        string symbol;\n        string image;\n    }\n\n    /// @dev This struct holds the data for new record version request\n    /// @param recordData Data for the new record\n    /// @param governanceToken New token data for governance token\n    /// @param communityToken New token data for community token\n    /// @param requester Owner of the request\n    /// @param oldVersionId Record id of old version\n    /// @param tokenId id of the token which will be used for voting\n    /// @param ballotId Id of the voting ballot\n    /// @param isPresent This is to check if the request with id is present or not\n    /// @param isAccepted The is the status of record that is accepted or not\n    struct NewVersionRequest {\n        RecordsContract.RecordStruct recordData;\n        NewVersionTokenStruct governanceToken;\n        NewVersionTokenStruct communityToken;\n        uint256[] contributionIds;\n        address requester;\n        uint256 oldVersionId;\n        uint256 tokenId;\n        uint256 ballotId;\n        bool isPresent;\n        bool isAccepted;\n    }\n\n    /// @dev This event is generated when New Record Version is created\n    /// @param requestId This is the id of the new record version request\n    /// @param recordData Data for the new record\n    /// @param governanceToken New token data for governance token\n    /// @param communityToken New token data for community token\n    /// @param requester Owner of the request\n    /// @param oldVersionId Record id of old version\n    /// @param tokenId id of the token which will be used for voting\n    /// @param ballotId Id of the voting ballot\n    event VersionRequest(\n        uint256 requestId,\n        RecordsContract.RecordStruct recordData,\n        NewVersionTokenStruct governanceToken,\n        NewVersionTokenStruct communityToken,\n        uint256[] contributionIds,\n        address requester,\n        uint256 oldVersionId,\n        uint256 tokenId,\n        uint256 ballotId\n    );\n\n    /// @dev This is when a vote is given by user.\n    /// @param voter Address of the voter\n    /// @param versionRequestId This is the id of the recordVersionRequest structure that is linked to this ballot\n    /// @param ballotId Id of the ballot where voting is stored\n    /// @param vote State of vote : true for yes and false for No\n    event NewVersionVoting(\n        address voter,\n        uint256 versionRequestId,\n        uint256 ballotId,\n        bool vote\n    );\n\n    /// @dev This is emitted when a voting ballot is created\n    /// @param requester Address of the requester\n    /// @param versionRequestId This is the id of the recordVersionRequest structure that is linked to this ballot\n    /// @param ballotId Id of the ballot where voting is stored\n    event NewVersionVotingBallotCreated(\n        address requester,\n        uint256 versionRequestId,\n        uint256 ballotId\n    );\n\n    /// @dev this event is generated when result of a ballot is declared\n    /// @param versionReqId This is the id of newVersionRequest\n    /// @param tokenId This is the id of the token that is linked to this ballot\n    /// @param ballotId this is the ballot Id for which result is declared\n    /// @param result this is the status of the result\n    /// @param minTurnOut this status indicates if minimum amount of user showed up for voting\n    event NewVersionRequestResult(\n        uint256 versionReqId,\n        uint256 tokenId,\n        uint256 ballotId,\n        bool result,\n        bool minTurnOut\n    );\n\n    //------------------------------\n\n    ///@param tokenId it is the id of the token on which basis we distribute the reward\n    ///@param rewardTokenId it is the id of the new tokenId\n    struct NewVersionTokenDistributionStruct {\n        uint256 totalSupplyEther;\n        uint256 rewardAmountWei;\n        uint256 versionRequestId;\n        uint256 tokenId;\n        uint256 rewardTokenId;\n        uint256 rewardPerTokenWei;\n        uint256 snapshotId;\n    }\n\n    event NewVersionTokenDistribution(\n        uint256 versionRequestId,\n        uint256 totalSupplyEther,\n        uint256 rewardAmountWei,\n        uint256 tokenId,\n        uint256 rewardTokenId,\n        uint256 rewardPerTokenWei,\n        uint256 snapshotId\n    );\n\n    event NewTokenClaimed(\n        uint256 versionRequestId,\n        uint256 rewardTokenId,\n        uint256 rewardAmount,\n        address userAddress\n    );\n\n    // newVersionRequestId => tokenData\n    mapping(uint256 => NewVersionTokenDistributionStruct) newVersionGovTokenDistributionMapping;\n\n    mapping(uint256 => NewVersionTokenDistributionStruct) newVersionCommTokenDistributionMapping;\n\n    //------------------------------\n\n    constructor(address owner) BaseVotingContract(owner) {}\n\n    /// @dev This is to set the address of the contracts\n    /// @param recordsContractAddress New records contract address\n    /// @param treasuryContractAddress Takes the address of new treasury contract as parameter\n    /// @param treasuryCoreContractAddress Takes the address of new treasury core contract as parameter\n    function initialize(\n        address recordsContractAddress,\n        address treasuryContractAddress,\n        address treasuryCoreContractAddress\n    ) public initializer _ownerOnly {\n        BaseVotingContract.initialize(treasuryContractAddress);\n        RECORDS_CONTRACT_ADDRESS = recordsContractAddress;\n        TREASURY_CORE_CONTRACT_ADDRESS = treasuryCoreContractAddress;\n    }\n\n    /// @dev This struct holds the required data for new version creation\n    /// @param name Name of the new record\n    /// @param image Cover photo of record\n    /// @param recordCategory string category of record\n    /// @param oldRecordId old record id\n    /// @param contributionIds list of contribution that are part of the new version\n    /// @param governanceToken this contains governance token details for new version of record\n    /// @param communityToken this contains community token details for new version of record\n    struct NewRecordVersionParams {\n        string name;\n        string image;\n        string recordCategory;\n        uint256 oldRecordId;\n        uint256[] contributionIds;\n        NewVersionTokenStruct governanceToken;\n        NewVersionTokenStruct communityToken;\n    }\n\n    /// @dev This function will create new record version from existing record\n    /// @param params required data for creation of new record version\n    function createNewRecordVersion(NewRecordVersionParams memory params)\n        public\n        returns (uint256)\n    {\n        RecordsContract recordsContract = RecordsContract(\n            RECORDS_CONTRACT_ADDRESS\n        );\n\n        {\n            (, , , , , , , bool isPresent) = recordsContract.recordData(\n                params.oldRecordId\n            );\n\n            require(isPresent == true, \"INVALID: RECORD_NOT_FOUND\");\n        }\n        newVersionRequestId++;\n        uint256 versionReqId = newVersionRequestId;\n\n        ITreasury treasury = ITreasury(TREASURY_CONTRACT_ADDRESS);\n        uint256 votingTokenId = treasury.getCommunityTokenId(\n            params.oldRecordId\n        );\n        uint256 ballotId = _createVoting(false, votingTokenId);\n\n        treasury.setSymbolsAsUsed(\n            params.governanceToken.symbol,\n            params.communityToken.symbol\n        );\n\n        RecordsContract.RecordStruct memory recordStruct = recordsContract\n            .createNewRecordVersion(\n                params.oldRecordId,\n                params.name,\n                params.image,\n                params.recordCategory,\n                msg.sender,\n                ballotId\n            );\n\n        NewVersionRequest memory newVersionRequest = NewVersionRequest({\n            recordData: recordStruct,\n            governanceToken: params.governanceToken,\n            communityToken: params.communityToken,\n            contributionIds: params.contributionIds,\n            requester: msg.sender,\n            oldVersionId: params.oldRecordId,\n            tokenId: votingTokenId,\n            ballotId: ballotId,\n            isPresent: true,\n            isAccepted: false\n        });\n\n        {\n            emit VersionRequest({\n                requestId: versionReqId,\n                recordData: recordStruct,\n                governanceToken: params.governanceToken,\n                communityToken: params.communityToken,\n                contributionIds: params.contributionIds,\n                requester: msg.sender,\n                oldVersionId: params.oldRecordId,\n                tokenId: votingTokenId,\n                ballotId: ballotId\n            });\n\n            emit NewVersionVotingBallotCreated(\n                msg.sender,\n                versionReqId,\n                ballotId\n            );\n        }\n\n        newVersionRequestMap[versionReqId] = newVersionRequest;\n\n        return versionReqId;\n    }\n\n    /// @dev This function is called by any user to cast vote\n    /// @param versionReqId this is the id of the new version request for which user is voting\n    /// @param vote this is the state of the vote, if true than it means the vote is in favour of the ballot\n    function castVote(uint256 versionReqId, bool vote) public {\n        // RecordsContract recordsContract = RecordsContract(\n        //     RECORDS_CONTRACT_ADDRESS\n        // );\n        require(\n            newVersionRequestMap[versionReqId].isPresent == true,\n            \"INVALID: INVALID_VERSION_REQ_ID\"\n        );\n\n        emit NewVersionVoting({\n            versionRequestId: versionReqId,\n            ballotId: newVersionRequestMap[versionReqId].ballotId,\n            voter: msg.sender,\n            vote: vote\n        });\n\n        super._castVote(versionReqId, vote);\n    }\n\n    /// @dev This function can be called from external source and also from within the contract\n    /// @param versionReqId this is the id of the new version request to which the winner is to be declared\n    function declareWinner(uint256 versionReqId) external {\n        RecordsContract recordsContract = RecordsContract(\n            RECORDS_CONTRACT_ADDRESS\n        );\n        // RecordsContract.NewVersionRequest memory req = recordsContract\n        //     .newVersionRequestMap(versionReqId);\n        NewVersionRequest memory req = newVersionRequestMap[versionReqId];\n\n        (bool result, bool minTurnOut) = _declareWinner(req.ballotId);\n\n        emit NewVersionRequestResult({\n            versionReqId: versionReqId,\n            tokenId: req.tokenId,\n            ballotId: req.ballotId,\n            result: result,\n            minTurnOut: minTurnOut\n        });\n\n        if (result) {\n            ITreasury treasuryContract = ITreasury(TREASURY_CONTRACT_ADDRESS);\n\n            uint256 recordId = recordsContract.createRecordFromData(\n                req.recordData,\n                req.contributionIds\n            );\n\n            // create new version and set the rewards for all the user\n            createToken(\n                req.governanceToken,\n                recordId,\n                treasuryContract.getCommunityTokenId(req.oldVersionId),\n                versionReqId,\n                true,\n                req.requester\n            );\n            createToken(\n                req.communityToken,\n                recordId,\n                treasuryContract.getCommunityTokenId(req.oldVersionId),\n                versionReqId,\n                false,\n                req.requester\n            );\n        }\n        newVersionRequestMap[versionReqId].isAccepted = result;\n    }\n\n    /// @dev This function is for distributing of the tokens of new record version\n    /// @param versionReqId This is the version Request Id for which token needs to be claimed\n    function claimNewRecordTokens(uint256 versionReqId) public {\n        NewVersionRequest memory newVersionReq = newVersionRequestMap[\n            versionReqId\n        ];\n\n        require(\n            votingMap[newVersionReq.ballotId].isResultDeclared,\n            \"INVALID: BALLOT_STILL_OPEN\"\n        );\n\n        require(\n            rewardsClaimed[versionReqId][msg.sender] == false,\n            \"INVALID: CAN_ONLY_CLAIM_ONCE\"\n        );\n\n        require(newVersionReq.isAccepted == true, \"INVALID: VERSION_REJECTED\");\n\n        NewVersionTokenDistributionStruct\n            memory governanceToken = newVersionGovTokenDistributionMapping[\n                versionReqId\n            ];\n        NewVersionTokenDistributionStruct\n            memory communityToken = newVersionCommTokenDistributionMapping[\n                versionReqId\n            ];\n\n        uint256 govRewardAmount = calculateRewardTokens(governanceToken);\n        uint256 commRewardAmount = calculateRewardTokens(communityToken);\n\n        emit NewTokenClaimed({\n            versionRequestId: versionReqId,\n            rewardTokenId: governanceToken.rewardTokenId,\n            rewardAmount: govRewardAmount,\n            userAddress: msg.sender\n        });\n        emit NewTokenClaimed({\n            versionRequestId: versionReqId,\n            rewardTokenId: communityToken.rewardTokenId,\n            rewardAmount: commRewardAmount,\n            userAddress: msg.sender\n        });\n\n        alreadyVoted[newVersionReq.ballotId][msg.sender] = true;\n    }\n\n    /// @dev This function calculates the amount of token that a user will receive\n    /// @param tokenData This is the data of the token which is to be distributed\n    function calculateRewardTokens(\n        NewVersionTokenDistributionStruct memory tokenData\n    ) internal returns (uint256) {\n        ITreasuryCore treasuryCoreContract = ITreasuryCore(\n            TREASURY_CORE_CONTRACT_ADDRESS\n        );\n\n        uint256 tokenBal = treasuryCoreContract.balanceOfAt(\n            msg.sender,\n            tokenData.snapshotId,\n            tokenData.tokenId\n        );\n\n        if (tokenBal == 0) {\n            return 0;\n        }\n\n        uint256 rewardAmt = (tokenData.rewardPerTokenWei * tokenBal) / 1 ether;\n\n        if (rewardAmt > 0) {\n            treasuryCoreContract.safeTransferFrom(\n                address(this),\n                msg.sender,\n                tokenData.rewardTokenId,\n                rewardAmt,\n                \"INVALID: ROYALTY_ALREADY_CLAIMED\"\n            );\n        }\n\n        return rewardAmt;\n    }\n\n    function createToken(\n        NewVersionTokenStruct memory tokenData,\n        uint256 newRecordId,\n        uint256 decidingTokenId,\n        uint256 versionReqId,\n        bool isGovernanceToken,\n        address requester\n    ) internal {\n        ITreasury treasuryContract = ITreasury(TREASURY_CONTRACT_ADDRESS);\n\n        uint256 tokenId = decidingTokenId;\n        uint256 totalSupply = treasuryContract.totalCirculatingSupply(tokenId);\n\n        uint256 newTokenId;\n        if (isGovernanceToken) {\n            newTokenId = createGovernanceToken(\n                tokenData,\n                newRecordId,\n                requester\n            );\n        } else {\n            newTokenId = createCommunityToken(\n                tokenData,\n                newRecordId,\n                requester\n            );\n        }\n\n        NewVersionTokenDistributionStruct\n            memory newVersionToken = NewVersionTokenDistributionStruct({\n                totalSupplyEther: totalSupply / 1 ether,\n                rewardAmountWei: tokenData.oldContributorShare,\n                versionRequestId: versionReqId,\n                tokenId: tokenId,\n                rewardTokenId: newTokenId,\n                rewardPerTokenWei: tokenData.oldContributorShare /\n                    (totalSupply / 1 ether),\n                snapshotId: treasuryContract.snapshot()\n            });\n\n        require(\n            newVersionToken.rewardPerTokenWei > 0,\n            \"INSUFFICIENT_AMOUNT: TOKEN_SHARE_PER_USER_IS_LOW\"\n        );\n\n        emit NewVersionTokenDistribution({\n            versionRequestId: versionReqId,\n            totalSupplyEther: newVersionToken.totalSupplyEther,\n            rewardAmountWei: newVersionToken.rewardAmountWei,\n            tokenId: newVersionToken.tokenId,\n            rewardTokenId: newTokenId,\n            rewardPerTokenWei: newVersionToken.rewardPerTokenWei,\n            snapshotId: newVersionToken.snapshotId\n        });\n\n        if (isGovernanceToken) {\n            newVersionGovTokenDistributionMapping[\n                versionReqId\n            ] = newVersionToken;\n        } else {\n            newVersionCommTokenDistributionMapping[\n                versionReqId\n            ] = newVersionToken;\n        }\n    }\n\n    function createGovernanceToken(\n        NewVersionTokenStruct memory tokenData,\n        uint256 recordId,\n        address owner\n    ) internal returns (uint256) {\n        ITreasury treasuryContract = ITreasury(TREASURY_CONTRACT_ADDRESS);\n\n        return\n            treasuryContract.createNewGovernanceTokenNewRecordVersion(\n                recordId,\n                tokenData.totalSupply,\n                tokenData.userBalance,\n                tokenData.symbol,\n                tokenData.image,\n                tokenData.oldContributorShare,\n                owner\n            );\n    }\n\n    function createCommunityToken(\n        NewVersionTokenStruct memory tokenData,\n        uint256 recordId,\n        address owner\n    ) internal returns (uint256) {\n        ITreasury treasuryContract = ITreasury(TREASURY_CONTRACT_ADDRESS);\n\n        return\n            treasuryContract.createNewCommunityTokenNewRecordVersion(\n                recordId,\n                tokenData.totalSupply,\n                tokenData.userBalance,\n                tokenData.symbol,\n                tokenData.image,\n                tokenData.oldContributorShare,\n                owner\n            );\n    }\n\n    function onERC1155Received(\n        address operator,\n        address from,\n        uint256 id,\n        uint256 value,\n        bytes calldata data\n    ) external virtual override returns (bytes4) {\n        return\n            bytes4(\n                keccak256(\n                    \"onERC1155Received(address,address,uint256,uint256,bytes)\"\n                )\n            );\n    }\n\n    function onERC1155BatchReceived(\n        address operator,\n        address from,\n        uint256[] calldata ids,\n        uint256[] calldata values,\n        bytes calldata data\n    ) external virtual override returns (bytes4) {\n        return\n            bytes4(\n                keccak256(\n                    \"onERC1155BatchReceived(address,address,uint256[],uint256[],bytes)\"\n                )\n            );\n    }\n\n    function supportsInterface(bytes4 interfaceId)\n        public\n        view\n        virtual\n        override\n        returns (bool)\n    {}\n}\n",
  "sourcePath": "/Users/a1/Desktop/Office/projects/CrowdRecords/Contracts/contracts/RecordsVotingContract.sol",
  "compiler": {
    "name": "solc",
    "version": "0.8.12+commit.f00d7308.Emscripten.clang"
  },
  "schemaVersion": "3.4.6",
  "updatedAt": "2022-10-19T09:06:06.867Z",
  "devdoc": {
    "events": {
      "NewVersionRequestResult(uint256,uint256,uint256,bool,bool)": {
        "details": "this event is generated when result of a ballot is declared",
        "params": {
          "ballotId": "this is the ballot Id for which result is declared",
          "minTurnOut": "this status indicates if minimum amount of user showed up for voting",
          "result": "this is the status of the result",
          "tokenId": "This is the id of the token that is linked to this ballot",
          "versionReqId": "This is the id of newVersionRequest"
        }
      },
      "NewVersionVoting(address,uint256,uint256,bool)": {
        "details": "This is when a vote is given by user.",
        "params": {
          "ballotId": "Id of the ballot where voting is stored",
          "versionRequestId": "This is the id of the recordVersionRequest structure that is linked to this ballot",
          "vote": "State of vote : true for yes and false for No",
          "voter": "Address of the voter"
        }
      },
      "NewVersionVotingBallotCreated(address,uint256,uint256)": {
        "details": "This is emitted when a voting ballot is created",
        "params": {
          "ballotId": "Id of the ballot where voting is stored",
          "requester": "Address of the requester",
          "versionRequestId": "This is the id of the recordVersionRequest structure that is linked to this ballot"
        }
      },
      "VersionRequest(uint256,(string,string,uint256,uint256,address,string,uint256,bool),(uint256,uint256,uint256,string,string),(uint256,uint256,uint256,string,string),uint256[],address,uint256,uint256,uint256)": {
        "details": "This event is generated when New Record Version is created",
        "params": {
          "ballotId": "Id of the voting ballot",
          "communityToken": "New token data for community token",
          "governanceToken": "New token data for governance token",
          "oldVersionId": "Record id of old version",
          "recordData": "Data for the new record",
          "requestId": "This is the id of the new record version request",
          "requester": "Owner of the request",
          "tokenId": "id of the token which will be used for voting"
        }
      }
    },
    "kind": "dev",
    "methods": {
      "_handleUserTokenTransfers(address,uint256,uint256,uint256)": {
        "details": "This function will be called when either user is transferring the tokens to other account, or is receiving tokens from other tokens.",
        "params": {
          "newBalance": "this is the new balance of the user that is after the transfer",
          "previousBalance": "this is the old balance of the user",
          "user": "address of the user whose balance is being changed"
        }
      },
      "castVote(uint256,bool)": {
        "details": "This function is called by any user to cast vote",
        "params": {
          "versionReqId": "this is the id of the new version request for which user is voting",
          "vote": "this is the state of the vote, if true than it means the vote is in favour of the ballot"
        }
      },
      "claimNewRecordTokens(uint256)": {
        "details": "This function is for distributing of the tokens of new record version",
        "params": {
          "versionReqId": "This is the version Request Id for which token needs to be claimed"
        }
      },
      "createNewRecordVersion((string,string,string,uint256,uint256[],(uint256,uint256,uint256,string,string),(uint256,uint256,uint256,string,string)))": {
        "details": "This function will create new record version from existing record",
        "params": {
          "params": "required data for creation of new record version"
        }
      },
      "declareWinner(uint256)": {
        "details": "This function can be called from external source and also from within the contract",
        "params": {
          "versionReqId": "this is the id of the new version request to which the winner is to be declared"
        }
      },
      "initialize(address)": {
        "details": "This function sets the treasury Contract address",
        "params": {
          "newTreasuryContractAddress": "This is the new address of treasury contract"
        }
      },
      "initialize(address,address,address)": {
        "details": "This is to set the address of the contracts",
        "params": {
          "recordsContractAddress": "New records contract address",
          "treasuryContractAddress": "Takes the address of new treasury contract as parameter",
          "treasuryCoreContractAddress": "Takes the address of new treasury core contract as parameter"
        }
      },
      "onERC1155BatchReceived(address,address,uint256[],uint256[],bytes)": {
        "details": "Handles the receipt of a multiple ERC1155 token types. This function is called at the end of a `safeBatchTransferFrom` after the balances have been updated. NOTE: To accept the transfer(s), this must return `bytes4(keccak256(\"onERC1155BatchReceived(address,address,uint256[],uint256[],bytes)\"))` (i.e. 0xbc197c81, or its own function selector).",
        "params": {
          "data": "Additional data with no specified format",
          "from": "The address which previously owned the token",
          "ids": "An array containing ids of each token being transferred (order and length must match values array)",
          "operator": "The address which initiated the batch transfer (i.e. msg.sender)",
          "values": "An array containing amounts of each token being transferred (order and length must match ids array)"
        },
        "returns": {
          "_0": "`bytes4(keccak256(\"onERC1155BatchReceived(address,address,uint256[],uint256[],bytes)\"))` if transfer is allowed"
        }
      },
      "onERC1155Received(address,address,uint256,uint256,bytes)": {
        "details": "Handles the receipt of a single ERC1155 token type. This function is called at the end of a `safeTransferFrom` after the balance has been updated. NOTE: To accept the transfer, this must return `bytes4(keccak256(\"onERC1155Received(address,address,uint256,uint256,bytes)\"))` (i.e. 0xf23a6e61, or its own function selector).",
        "params": {
          "data": "Additional data with no specified format",
          "from": "The address which previously owned the token",
          "id": "The ID of the token being transferred",
          "operator": "The address which initiated the transfer (i.e. msg.sender)",
          "value": "The amount of tokens being transferred"
        },
        "returns": {
          "_0": "`bytes4(keccak256(\"onERC1155Received(address,address,uint256,uint256,bytes)\"))` if transfer is allowed"
        }
      },
      "setOwnerAddress(address)": {
        "details": "This function sets the owner address",
        "params": {
          "ownerAddress": "This is the address of the owner"
        }
      },
      "supportsInterface(bytes4)": {
        "details": "Returns true if this contract implements the interface defined by `interfaceId`. See the corresponding https://eips.ethereum.org/EIPS/eip-165#how-interfaces-are-identified[EIP section] to learn more about how these ids are created. This function call must use less than 30 000 gas."
      }
    },
    "version": 1
  },
  "userdoc": {
    "kind": "user",
    "methods": {},
    "version": 1
  }
}