{
  "contractName": "RecordsVotingContract",
  "abi": [
    {
      "inputs": [
        {
          "internalType": "address",
          "name": "owner",
          "type": "address"
        }
      ],
      "stateMutability": "nonpayable",
      "type": "constructor"
    },
    {
      "anonymous": false,
      "inputs": [
        {
          "indexed": false,
          "internalType": "uint256",
          "name": "value",
          "type": "uint256"
        }
      ],
      "name": "DEBUG",
      "type": "event"
    },
    {
      "anonymous": false,
      "inputs": [
        {
          "indexed": false,
          "internalType": "address",
          "name": "owner",
          "type": "address"
        },
        {
          "indexed": false,
          "internalType": "uint256",
          "name": "ballotId",
          "type": "uint256"
        },
        {
          "indexed": false,
          "internalType": "uint256",
          "name": "depositAmount",
          "type": "uint256"
        }
      ],
      "name": "DepositClaimed",
      "type": "event"
    },
    {
      "anonymous": false,
      "inputs": [
        {
          "indexed": false,
          "internalType": "address",
          "name": "owner",
          "type": "address"
        },
        {
          "indexed": false,
          "internalType": "uint256",
          "name": "ballotId",
          "type": "uint256"
        },
        {
          "indexed": false,
          "internalType": "uint256",
          "name": "depositAmount",
          "type": "uint256"
        },
        {
          "indexed": false,
          "internalType": "bool",
          "name": "isClaimed",
          "type": "bool"
        },
        {
          "indexed": false,
          "internalType": "bool",
          "name": "isPresent",
          "type": "bool"
        }
      ],
      "name": "DepositCreated",
      "type": "event"
    },
    {
      "anonymous": false,
      "inputs": [
        {
          "indexed": false,
          "internalType": "uint8",
          "name": "version",
          "type": "uint8"
        }
      ],
      "name": "Initialized",
      "type": "event"
    },
    {
      "anonymous": false,
      "inputs": [
        {
          "indexed": false,
          "internalType": "uint256",
          "name": "versionRequestId",
          "type": "uint256"
        },
        {
          "indexed": false,
          "internalType": "uint256",
          "name": "rewardTokenId",
          "type": "uint256"
        },
        {
          "indexed": false,
          "internalType": "uint256",
          "name": "rewardAmount",
          "type": "uint256"
        },
        {
          "indexed": false,
          "internalType": "address",
          "name": "userAddress",
          "type": "address"
        }
      ],
      "name": "NewTokenClaimed",
      "type": "event"
    },
    {
      "anonymous": false,
      "inputs": [
        {
          "indexed": false,
          "internalType": "uint256",
          "name": "versionReqId",
          "type": "uint256"
        },
        {
          "indexed": false,
          "internalType": "uint256",
          "name": "tokenId",
          "type": "uint256"
        },
        {
          "indexed": false,
          "internalType": "uint256",
          "name": "ballotId",
          "type": "uint256"
        },
        {
          "indexed": false,
          "internalType": "bool",
          "name": "result",
          "type": "bool"
        },
        {
          "indexed": false,
          "internalType": "bool",
          "name": "minTurnOut",
          "type": "bool"
        },
        {
          "indexed": false,
          "internalType": "uint256",
          "name": "newRecordId",
          "type": "uint256"
        }
      ],
      "name": "NewVersionRequestResult",
      "type": "event"
    },
    {
      "anonymous": false,
      "inputs": [
        {
          "indexed": false,
          "internalType": "uint256",
          "name": "versionRequestId",
          "type": "uint256"
        },
        {
          "indexed": false,
          "internalType": "uint256",
          "name": "totalSupplyEther",
          "type": "uint256"
        },
        {
          "indexed": false,
          "internalType": "uint256",
          "name": "rewardAmountWei",
          "type": "uint256"
        },
        {
          "indexed": false,
          "internalType": "uint256",
          "name": "tokenId",
          "type": "uint256"
        },
        {
          "indexed": false,
          "internalType": "uint256",
          "name": "rewardTokenId",
          "type": "uint256"
        },
        {
          "indexed": false,
          "internalType": "uint256",
          "name": "rewardPerTokenWei",
          "type": "uint256"
        },
        {
          "indexed": false,
          "internalType": "uint256",
          "name": "snapshotId",
          "type": "uint256"
        }
      ],
      "name": "NewVersionTokenDistribution",
      "type": "event"
    },
    {
      "anonymous": false,
      "inputs": [
        {
          "indexed": false,
          "internalType": "address",
          "name": "voter",
          "type": "address"
        },
        {
          "indexed": false,
          "internalType": "uint256",
          "name": "versionRequestId",
          "type": "uint256"
        },
        {
          "indexed": false,
          "internalType": "uint256",
          "name": "ballotId",
          "type": "uint256"
        },
        {
          "indexed": false,
          "internalType": "bool",
          "name": "vote",
          "type": "bool"
        }
      ],
      "name": "NewVersionVoting",
      "type": "event"
    },
    {
      "anonymous": false,
      "inputs": [
        {
          "indexed": false,
          "internalType": "address",
          "name": "requester",
          "type": "address"
        },
        {
          "indexed": false,
          "internalType": "uint256",
          "name": "versionRequestId",
          "type": "uint256"
        },
        {
          "indexed": false,
          "internalType": "uint256",
          "name": "ballotId",
          "type": "uint256"
        },
        {
          "indexed": false,
          "internalType": "uint256",
          "name": "createdAt",
          "type": "uint256"
        }
      ],
      "name": "NewVersionVotingBallotCreated",
      "type": "event"
    },
    {
      "anonymous": false,
      "inputs": [
        {
          "indexed": false,
          "internalType": "uint256",
          "name": "requestId",
          "type": "uint256"
        },
        {
          "components": [
            {
              "internalType": "string",
              "name": "name",
              "type": "string"
            },
            {
              "internalType": "string",
              "name": "image",
              "type": "string"
            },
            {
              "internalType": "uint256",
              "name": "seedId",
              "type": "uint256"
            },
            {
              "internalType": "uint256",
              "name": "parentId",
              "type": "uint256"
            },
            {
              "internalType": "address",
              "name": "owner",
              "type": "address"
            },
            {
              "internalType": "string",
              "name": "recordCategory",
              "type": "string"
            },
            {
              "internalType": "uint256",
              "name": "creationDate",
              "type": "uint256"
            },
            {
              "internalType": "bool",
              "name": "isPresent",
              "type": "bool"
            }
          ],
          "indexed": false,
          "internalType": "struct RecordsContract.RecordStruct",
          "name": "recordData",
          "type": "tuple"
        },
        {
          "components": [
            {
              "internalType": "uint256",
              "name": "totalSupply",
              "type": "uint256"
            },
            {
              "internalType": "uint256",
              "name": "oldContributorShare",
              "type": "uint256"
            },
            {
              "internalType": "uint256",
              "name": "userBalance",
              "type": "uint256"
            },
            {
              "internalType": "string",
              "name": "symbol",
              "type": "string"
            },
            {
              "internalType": "string",
              "name": "image",
              "type": "string"
            }
          ],
          "indexed": false,
          "internalType": "struct RecordsVotingContract.NewVersionTokenStruct",
          "name": "governanceToken",
          "type": "tuple"
        },
        {
          "components": [
            {
              "internalType": "uint256",
              "name": "totalSupply",
              "type": "uint256"
            },
            {
              "internalType": "uint256",
              "name": "oldContributorShare",
              "type": "uint256"
            },
            {
              "internalType": "uint256",
              "name": "userBalance",
              "type": "uint256"
            },
            {
              "internalType": "string",
              "name": "symbol",
              "type": "string"
            },
            {
              "internalType": "string",
              "name": "image",
              "type": "string"
            }
          ],
          "indexed": false,
          "internalType": "struct RecordsVotingContract.NewVersionTokenStruct",
          "name": "communityToken",
          "type": "tuple"
        },
        {
          "indexed": false,
          "internalType": "uint256[]",
          "name": "contributionIds",
          "type": "uint256[]"
        },
        {
          "indexed": false,
          "internalType": "address",
          "name": "requester",
          "type": "address"
        },
        {
          "indexed": false,
          "internalType": "uint256",
          "name": "oldVersionId",
          "type": "uint256"
        },
        {
          "indexed": false,
          "internalType": "uint256",
          "name": "tokenId",
          "type": "uint256"
        },
        {
          "indexed": false,
          "internalType": "uint256",
          "name": "ballotId",
          "type": "uint256"
        }
      ],
      "name": "VersionRequest",
      "type": "event"
    },
    {
      "inputs": [],
      "name": "GOVERNANCE",
      "outputs": [
        {
          "internalType": "address",
          "name": "",
          "type": "address"
        }
      ],
      "stateMutability": "view",
      "type": "function"
    },
    {
      "inputs": [],
      "name": "MIN_TURNOUT_PERCENT",
      "outputs": [
        {
          "internalType": "uint256",
          "name": "",
          "type": "uint256"
        }
      ],
      "stateMutability": "view",
      "type": "function"
    },
    {
      "inputs": [],
      "name": "OWNER",
      "outputs": [
        {
          "internalType": "address",
          "name": "",
          "type": "address"
        }
      ],
      "stateMutability": "view",
      "type": "function"
    },
    {
      "inputs": [],
      "name": "RECORDS_CONTRACT_ADDRESS",
      "outputs": [
        {
          "internalType": "address",
          "name": "",
          "type": "address"
        }
      ],
      "stateMutability": "view",
      "type": "function"
    },
    {
      "inputs": [],
      "name": "TREASURY_CONTRACT_ADDRESS",
      "outputs": [
        {
          "internalType": "address",
          "name": "",
          "type": "address"
        }
      ],
      "stateMutability": "view",
      "type": "function"
    },
    {
      "inputs": [],
      "name": "TREASURY_CORE_CONTRACT_ADDRESS",
      "outputs": [
        {
          "internalType": "address",
          "name": "",
          "type": "address"
        }
      ],
      "stateMutability": "view",
      "type": "function"
    },
    {
      "inputs": [],
      "name": "TREASURY_HUB_ADDRESS",
      "outputs": [
        {
          "internalType": "address",
          "name": "",
          "type": "address"
        }
      ],
      "stateMutability": "view",
      "type": "function"
    },
    {
      "inputs": [],
      "name": "VOTING_BLOCK_PERIOD",
      "outputs": [
        {
          "internalType": "uint256",
          "name": "",
          "type": "uint256"
        }
      ],
      "stateMutability": "view",
      "type": "function"
    },
    {
      "inputs": [],
      "name": "VOTING_DEPOSIT",
      "outputs": [
        {
          "internalType": "uint256",
          "name": "",
          "type": "uint256"
        }
      ],
      "stateMutability": "view",
      "type": "function"
    },
    {
      "inputs": [
        {
          "internalType": "address",
          "name": "user",
          "type": "address"
        },
        {
          "internalType": "uint256",
          "name": "tokenId",
          "type": "uint256"
        },
        {
          "internalType": "uint256",
          "name": "previousBalance",
          "type": "uint256"
        },
        {
          "internalType": "uint256",
          "name": "newBalance",
          "type": "uint256"
        }
      ],
      "name": "_handleUserTokenTransfers",
      "outputs": [],
      "stateMutability": "nonpayable",
      "type": "function"
    },
    {
      "inputs": [
        {
          "internalType": "uint256",
          "name": "",
          "type": "uint256"
        }
      ],
      "name": "depositMap",
      "outputs": [
        {
          "internalType": "address",
          "name": "owner",
          "type": "address"
        },
        {
          "internalType": "uint256",
          "name": "ballotId",
          "type": "uint256"
        },
        {
          "internalType": "uint256",
          "name": "depositAmount",
          "type": "uint256"
        },
        {
          "internalType": "bool",
          "name": "isClaimed",
          "type": "bool"
        },
        {
          "internalType": "bool",
          "name": "isPresent",
          "type": "bool"
        }
      ],
      "stateMutability": "view",
      "type": "function"
    },
    {
      "inputs": [
        {
          "internalType": "uint256",
          "name": "",
          "type": "uint256"
        }
      ],
      "name": "newVersionRequestMap",
      "outputs": [
        {
          "components": [
            {
              "internalType": "string",
              "name": "name",
              "type": "string"
            },
            {
              "internalType": "string",
              "name": "image",
              "type": "string"
            },
            {
              "internalType": "uint256",
              "name": "seedId",
              "type": "uint256"
            },
            {
              "internalType": "uint256",
              "name": "parentId",
              "type": "uint256"
            },
            {
              "internalType": "address",
              "name": "owner",
              "type": "address"
            },
            {
              "internalType": "string",
              "name": "recordCategory",
              "type": "string"
            },
            {
              "internalType": "uint256",
              "name": "creationDate",
              "type": "uint256"
            },
            {
              "internalType": "bool",
              "name": "isPresent",
              "type": "bool"
            }
          ],
          "internalType": "struct RecordsContract.RecordStruct",
          "name": "recordData",
          "type": "tuple"
        },
        {
          "components": [
            {
              "internalType": "uint256",
              "name": "totalSupply",
              "type": "uint256"
            },
            {
              "internalType": "uint256",
              "name": "oldContributorShare",
              "type": "uint256"
            },
            {
              "internalType": "uint256",
              "name": "userBalance",
              "type": "uint256"
            },
            {
              "internalType": "string",
              "name": "symbol",
              "type": "string"
            },
            {
              "internalType": "string",
              "name": "image",
              "type": "string"
            }
          ],
          "internalType": "struct RecordsVotingContract.NewVersionTokenStruct",
          "name": "governanceToken",
          "type": "tuple"
        },
        {
          "components": [
            {
              "internalType": "uint256",
              "name": "totalSupply",
              "type": "uint256"
            },
            {
              "internalType": "uint256",
              "name": "oldContributorShare",
              "type": "uint256"
            },
            {
              "internalType": "uint256",
              "name": "userBalance",
              "type": "uint256"
            },
            {
              "internalType": "string",
              "name": "symbol",
              "type": "string"
            },
            {
              "internalType": "string",
              "name": "image",
              "type": "string"
            }
          ],
          "internalType": "struct RecordsVotingContract.NewVersionTokenStruct",
          "name": "communityToken",
          "type": "tuple"
        },
        {
          "internalType": "address",
          "name": "requester",
          "type": "address"
        },
        {
          "internalType": "uint256",
          "name": "oldVersionId",
          "type": "uint256"
        },
        {
          "internalType": "uint256",
          "name": "tokenId",
          "type": "uint256"
        },
        {
          "internalType": "uint256",
          "name": "ballotId",
          "type": "uint256"
        },
        {
          "internalType": "bool",
          "name": "isPresent",
          "type": "bool"
        },
        {
          "internalType": "bool",
          "name": "isAccepted",
          "type": "bool"
        }
      ],
      "stateMutability": "view",
      "type": "function"
    },
    {
      "inputs": [
        {
          "internalType": "uint256",
          "name": "",
          "type": "uint256"
        },
        {
          "internalType": "address",
          "name": "",
          "type": "address"
        }
      ],
      "name": "rewardsClaimed",
      "outputs": [
        {
          "internalType": "bool",
          "name": "",
          "type": "bool"
        }
      ],
      "stateMutability": "view",
      "type": "function"
    },
    {
      "inputs": [
        {
          "internalType": "uint256",
          "name": "depositAmount",
          "type": "uint256"
        }
      ],
      "name": "setDepositAmount",
      "outputs": [],
      "stateMutability": "nonpayable",
      "type": "function"
    },
    {
      "inputs": [
        {
          "internalType": "uint256",
          "name": "minTurnOut",
          "type": "uint256"
        }
      ],
      "name": "setMinTurnOut",
      "outputs": [],
      "stateMutability": "nonpayable",
      "type": "function"
    },
    {
      "inputs": [
        {
          "internalType": "address",
          "name": "ownerAddress",
          "type": "address"
        }
      ],
      "name": "setOwnerAddress",
      "outputs": [],
      "stateMutability": "nonpayable",
      "type": "function"
    },
    {
      "inputs": [
        {
          "internalType": "uint256",
          "name": "votingPeriod",
          "type": "uint256"
        }
      ],
      "name": "setVotingPeriod",
      "outputs": [],
      "stateMutability": "nonpayable",
      "type": "function"
    },
    {
      "inputs": [
        {
          "internalType": "uint256",
          "name": "",
          "type": "uint256"
        }
      ],
      "name": "votingMap",
      "outputs": [
        {
          "internalType": "address",
          "name": "owner",
          "type": "address"
        },
        {
          "internalType": "uint256",
          "name": "yesWeight",
          "type": "uint256"
        },
        {
          "internalType": "uint256",
          "name": "yesCount",
          "type": "uint256"
        },
        {
          "internalType": "uint256",
          "name": "noWeight",
          "type": "uint256"
        },
        {
          "internalType": "uint256",
          "name": "noCount",
          "type": "uint256"
        },
        {
          "internalType": "uint256",
          "name": "tokenId",
          "type": "uint256"
        },
        {
          "internalType": "uint256",
          "name": "votingEndBlock",
          "type": "uint256"
        },
        {
          "internalType": "bool",
          "name": "isResultDeclared",
          "type": "bool"
        },
        {
          "internalType": "bool",
          "name": "canOwnerVote",
          "type": "bool"
        },
        {
          "internalType": "bool",
          "name": "isPresent",
          "type": "bool"
        }
      ],
      "stateMutability": "view",
      "type": "function"
    },
    {
      "inputs": [
        {
          "internalType": "address",
          "name": "newTreasuryContractAddress",
          "type": "address"
        },
        {
          "internalType": "address",
          "name": "newGovernanceContractAddress",
          "type": "address"
        }
      ],
      "name": "initialize",
      "outputs": [],
      "stateMutability": "nonpayable",
      "type": "function"
    },
    {
      "inputs": [
        {
          "internalType": "address",
          "name": "recordsContractAddress",
          "type": "address"
        },
        {
          "internalType": "address",
          "name": "treasuryContractAddress",
          "type": "address"
        },
        {
          "internalType": "address",
          "name": "treasuryCoreContractAddress",
          "type": "address"
        },
        {
          "internalType": "address",
          "name": "newGovernanceContractAddress",
          "type": "address"
        }
      ],
      "name": "initialize",
      "outputs": [],
      "stateMutability": "nonpayable",
      "type": "function"
    },
    {
      "inputs": [
        {
          "components": [
            {
              "internalType": "string",
              "name": "name",
              "type": "string"
            },
            {
              "internalType": "string",
              "name": "image",
              "type": "string"
            },
            {
              "internalType": "string",
              "name": "recordCategory",
              "type": "string"
            },
            {
              "internalType": "uint256",
              "name": "oldRecordId",
              "type": "uint256"
            },
            {
              "internalType": "uint256[]",
              "name": "contributionIds",
              "type": "uint256[]"
            },
            {
              "components": [
                {
                  "internalType": "uint256",
                  "name": "totalSupply",
                  "type": "uint256"
                },
                {
                  "internalType": "uint256",
                  "name": "oldContributorShare",
                  "type": "uint256"
                },
                {
                  "internalType": "uint256",
                  "name": "userBalance",
                  "type": "uint256"
                },
                {
                  "internalType": "string",
                  "name": "symbol",
                  "type": "string"
                },
                {
                  "internalType": "string",
                  "name": "image",
                  "type": "string"
                }
              ],
              "internalType": "struct RecordsVotingContract.NewVersionTokenStruct",
              "name": "governanceToken",
              "type": "tuple"
            },
            {
              "components": [
                {
                  "internalType": "uint256",
                  "name": "totalSupply",
                  "type": "uint256"
                },
                {
                  "internalType": "uint256",
                  "name": "oldContributorShare",
                  "type": "uint256"
                },
                {
                  "internalType": "uint256",
                  "name": "userBalance",
                  "type": "uint256"
                },
                {
                  "internalType": "string",
                  "name": "symbol",
                  "type": "string"
                },
                {
                  "internalType": "string",
                  "name": "image",
                  "type": "string"
                }
              ],
              "internalType": "struct RecordsVotingContract.NewVersionTokenStruct",
              "name": "communityToken",
              "type": "tuple"
            }
          ],
          "internalType": "struct RecordsVotingContract.NewRecordVersionParams",
          "name": "params",
          "type": "tuple"
        }
      ],
      "name": "createNewRecordVersion",
      "outputs": [
        {
          "internalType": "uint256",
          "name": "",
          "type": "uint256"
        }
      ],
      "stateMutability": "payable",
      "type": "function"
    },
    {
      "inputs": [
        {
          "internalType": "uint256",
          "name": "versionReqId",
          "type": "uint256"
        },
        {
          "internalType": "bool",
          "name": "vote",
          "type": "bool"
        }
      ],
      "name": "castVote",
      "outputs": [],
      "stateMutability": "nonpayable",
      "type": "function"
    },
    {
      "inputs": [
        {
          "internalType": "uint256",
          "name": "versionReqId",
          "type": "uint256"
        }
      ],
      "name": "declareWinner",
      "outputs": [],
      "stateMutability": "nonpayable",
      "type": "function"
    },
    {
      "inputs": [
        {
          "internalType": "uint256",
          "name": "versionReqId",
          "type": "uint256"
        }
      ],
      "name": "claimNewRecordTokens",
      "outputs": [],
      "stateMutability": "nonpayable",
      "type": "function"
    },
    {
      "inputs": [
        {
          "internalType": "address",
          "name": "operator",
          "type": "address"
        },
        {
          "internalType": "address",
          "name": "from",
          "type": "address"
        },
        {
          "internalType": "uint256",
          "name": "id",
          "type": "uint256"
        },
        {
          "internalType": "uint256",
          "name": "value",
          "type": "uint256"
        },
        {
          "internalType": "bytes",
          "name": "data",
          "type": "bytes"
        }
      ],
      "name": "onERC1155Received",
      "outputs": [
        {
          "internalType": "bytes4",
          "name": "",
          "type": "bytes4"
        }
      ],
      "stateMutability": "nonpayable",
      "type": "function"
    },
    {
      "inputs": [
        {
          "internalType": "address",
          "name": "operator",
          "type": "address"
        },
        {
          "internalType": "address",
          "name": "from",
          "type": "address"
        },
        {
          "internalType": "uint256[]",
          "name": "ids",
          "type": "uint256[]"
        },
        {
          "internalType": "uint256[]",
          "name": "values",
          "type": "uint256[]"
        },
        {
          "internalType": "bytes",
          "name": "data",
          "type": "bytes"
        }
      ],
      "name": "onERC1155BatchReceived",
      "outputs": [
        {
          "internalType": "bytes4",
          "name": "",
          "type": "bytes4"
        }
      ],
      "stateMutability": "nonpayable",
      "type": "function"
    },
    {
      "inputs": [
        {
          "internalType": "bytes4",
          "name": "interfaceId",
          "type": "bytes4"
        }
      ],
      "name": "supportsInterface",
      "outputs": [
        {
          "internalType": "bool",
          "name": "",
          "type": "bool"
        }
      ],
      "stateMutability": "view",
      "type": "function"
    }
  ],
  "bytecode": "0x6080604052670de0b6b3a764000060015560196002556101f460035560006008556000600e553480156200003257600080fd5b50604051620053c8380380620053c883398101604081905262000055916200007b565b600680546001600160a01b0319166001600160a01b0392909216919091179055620000ad565b6000602082840312156200008e57600080fd5b81516001600160a01b0381168114620000a657600080fd5b9392505050565b61530b80620000bd6000396000f3fe6080604052600436106101ab5760003560e01c806383b0b071116100ec578063ba19a6751161008a578063e1f2e08411610064578063e1f2e084146106e1578063ea0217cf14610701578063f23a6e6114610721578063f8c8765e1461076757600080fd5b8063ba19a6751461061b578063bc197c8114610648578063c768e2d6146106c157600080fd5b806399728a45116100c657806399728a45146105805780639a835e9114610593578063abb7ed7f146105ce578063acb31493146105ee57600080fd5b806383b0b07114610495578063879253a31461053d5780638d2ae1f71461055357600080fd5b806333e0ea2e1161015957806358f0b6c11161013357806358f0b6c11461033857806363e249c11461036d5780636c83244a1461045f5780636d8cee561461047557600080fd5b806333e0ea2e146102c7578063485cc955146102eb578063556bed3a1461030b57600080fd5b8063146278341161018a578063146278341461025a57806315373e3d14610287578063331a6bf5146102a757600080fd5b8062c2943c146101b057806301ffc9a7146101d2578063117803e314610208575b600080fd5b3480156101bc57600080fd5b506101d06101cb36600461441f565b610787565b005b3480156101de57600080fd5b506101f36101ed366004614438565b50600090565b60405190151581526020015b60405180910390f35b34801561021457600080fd5b506006546102359073ffffffffffffffffffffffffffffffffffffffff1681565b60405173ffffffffffffffffffffffffffffffffffffffff90911681526020016101ff565b34801561026657600080fd5b506007546102359073ffffffffffffffffffffffffffffffffffffffff1681565b34801561029357600080fd5b506101d06102a2366004614492565b610ff0565b3480156102b357600080fd5b506101d06102c23660046144e4565b6110dc565b3480156102d357600080fd5b506102dd60035481565b6040519081526020016101ff565b3480156102f757600080fd5b506101d0610306366004614501565b6111ca565b34801561031757600080fd5b506011546102359073ffffffffffffffffffffffffffffffffffffffff1681565b34801561034457600080fd5b5061035861035336600461441f565b6112b4565b6040516101ff9998979695949392919061469b565b34801561037957600080fd5b506103f861038836600461441f565b6009602052600090815260409020805460018201546002830154600384015460048501546005860154600687015460079097015473ffffffffffffffffffffffffffffffffffffffff909616969495939492939192909160ff80821691610100810482169162010000909104168a565b6040805173ffffffffffffffffffffffffffffffffffffffff909b168b5260208b0199909952978901969096526060880194909452608087019290925260a086015260c0850152151560e084015215156101008301521515610120820152610140016101ff565b34801561046b57600080fd5b506102dd60025481565b34801561048157600080fd5b506101d061049036600461441f565b6117d8565b3480156104a157600080fd5b506104fa6104b036600461441f565b600c60205260009081526040902080546001820154600283015460039093015473ffffffffffffffffffffffffffffffffffffffff90921692909160ff8082169161010090041685565b6040805173ffffffffffffffffffffffffffffffffffffffff9096168652602086019490945292840191909152151560608301521515608082015260a0016101ff565b34801561054957600080fd5b506102dd60015481565b34801561055f57600080fd5b506005546102359073ffffffffffffffffffffffffffffffffffffffff1681565b6102dd61058e3660046149b5565b61185e565b34801561059f57600080fd5b506101f36105ae366004614ae0565b601060209081526000928352604080842090915290825290205460ff1681565b3480156105da57600080fd5b506101d06105e9366004614b05565b611f32565b3480156105fa57600080fd5b506004546102359073ffffffffffffffffffffffffffffffffffffffff1681565b34801561062757600080fd5b506012546102359073ffffffffffffffffffffffffffffffffffffffff1681565b34801561065457600080fd5b50610690610663366004614bce565b7fbc197c819b3e337a6f9652dd10becd7eef83032af3b9d958d3d42f669414662198975050505050505050565b6040517fffffffff0000000000000000000000000000000000000000000000000000000090911681526020016101ff565b3480156106cd57600080fd5b506101d06106dc36600461441f565b6120f0565b3480156106ed57600080fd5b506101d06106fc36600461441f565b6129dd565b34801561070d57600080fd5b506101d061071c36600461441f565b612a63565b34801561072d57600080fd5b5061069061073c366004614c8d565b7ff23a6e612e1ff4830e658fe43f4e3cb4a5f8170bd5d9e69fb5d7a7fa9e4fdf979695505050505050565b34801561077357600080fd5b506101d0610782366004614d09565b612ae9565b6012546000828152600f602052604080822081516102408101909252805473ffffffffffffffffffffffffffffffffffffffff9094169382906101408201908390829082906107d590614d65565b80601f016020809104026020016040519081016040528092919081815260200182805461080190614d65565b801561084e5780601f106108235761010080835404028352916020019161084e565b820191906000526020600020905b81548152906001019060200180831161083157829003601f168201915b5050505050815260200160018201805461086790614d65565b80601f016020809104026020016040519081016040528092919081815260200182805461089390614d65565b80156108e05780601f106108b5576101008083540402835291602001916108e0565b820191906000526020600020905b8154815290600101906020018083116108c357829003601f168201915b50505091835250506002820154602082015260038201546040820152600482015473ffffffffffffffffffffffffffffffffffffffff16606082015260058201805460809092019161093190614d65565b80601f016020809104026020016040519081016040528092919081815260200182805461095d90614d65565b80156109aa5780601f1061097f576101008083540402835291602001916109aa565b820191906000526020600020905b81548152906001019060200180831161098d57829003601f168201915b50505050508152602001600682015481526020016007820160009054906101000a900460ff1615151515815250508152602001600882016040518060a0016040529081600082015481526020016001820154815260200160028201548152602001600382018054610a1a90614d65565b80601f0160208091040260200160405190810160405280929190818152602001828054610a4690614d65565b8015610a935780601f10610a6857610100808354040283529160200191610a93565b820191906000526020600020905b815481529060010190602001808311610a7657829003601f168201915b50505050508152602001600482018054610aac90614d65565b80601f0160208091040260200160405190810160405280929190818152602001828054610ad890614d65565b8015610b255780601f10610afa57610100808354040283529160200191610b25565b820191906000526020600020905b815481529060010190602001808311610b0857829003601f168201915b5050505050815250508152602001600d82016040518060a0016040529081600082015481526020016001820154815260200160028201548152602001600382018054610b7090614d65565b80601f0160208091040260200160405190810160405280929190818152602001828054610b9c90614d65565b8015610be95780601f10610bbe57610100808354040283529160200191610be9565b820191906000526020600020905b815481529060010190602001808311610bcc57829003601f168201915b50505050508152602001600482018054610c0290614d65565b80601f0160208091040260200160405190810160405280929190818152602001828054610c2e90614d65565b8015610c7b5780601f10610c5057610100808354040283529160200191610c7b565b820191906000526020600020905b815481529060010190602001808311610c5e57829003601f168201915b505050505081525050815260200160128201805480602002602001604051908101604052809291908181526020018280548015610cd757602002820191906000526020600020905b815481526020019060010190808311610cc3575b5050509183525050601382015473ffffffffffffffffffffffffffffffffffffffff16602082015260148201546040820152601582015460608201526016820154608082015260179091015460ff808216151560a084015261010090910416151560c09091015260e08101519091506000908190610d5490612d7d565b91509150610d658360e00151613098565b60008215610f425760048054855160608701516040517f4b02f22d00000000000000000000000000000000000000000000000000000000815273ffffffffffffffffffffffffffffffffffffffff93841694938a1693634b02f22d93610dcf939092909101614df4565b6020604051808303816000875af1158015610dee573d6000803e3d6000fd5b505050506040513d601f19601f82011682018060405250810190610e129190614e19565b9150610eaa8560200151838373ffffffffffffffffffffffffffffffffffffffff16632d4a03828960a001516040518263ffffffff1660e01b8152600401610e5c91815260200190565b602060405180830381865afa158015610e79573d6000803e3d6000fd5b505050506040513d601f19601f82011682018060405250810190610e9d9190614e19565b8a60018a608001516132e6565b610f408560400151838373ffffffffffffffffffffffffffffffffffffffff16632d4a03828960a001516040518263ffffffff1660e01b8152600401610ef291815260200190565b602060405180830381865afa158015610f0f573d6000803e3d6000fd5b505050506040513d601f19601f82011682018060405250810190610f339190614e19565b8a60008a608001516132e6565b505b6000868152600f602090815260409182902060170180547fffffffffffffffffffffffffffffffffffffffffffffffffffffffffffff00ff166101008715159081029190911790915560c08781015160e089015185518c815294850191909152938301939093526060820152831515608082015260a081018390527f88555918fb2b610e47497c9873e7509aac75e36c699aea4581f692c529d8ebb1910160405180910390a1505050505050565b6000828152600f602052604090206017015460ff161515600114611075576040517f08c379a000000000000000000000000000000000000000000000000000000000815260206004820152601f60248201527f494e56414c49443a20494e56414c49445f56455253494f4e5f5245515f49440060448201526064015b60405180910390fd5b6000828152600f602090815260409182902060160154825133815291820185905281830152821515606082015290517f7fa8530f2b70b1c2f0aa92650d5274e8e84988e1af0fa8ca56a37ba7646720749181900360800190a16110d882826135c5565b5050565b60065473ffffffffffffffffffffffffffffffffffffffff163314611183576040517f08c379a000000000000000000000000000000000000000000000000000000000815260206004820152602360248201527f554e415554484f52495a45443a2043414e4e4f545f504552464f524d5f41435460448201527f494f4e0000000000000000000000000000000000000000000000000000000000606482015260840161106c565b600680547fffffffffffffffffffffffff00000000000000000000000000000000000000001673ffffffffffffffffffffffffffffffffffffffff92909216919091179055565b600054610100900460ff16611261576040517f08c379a000000000000000000000000000000000000000000000000000000000815260206004820152602b60248201527f496e697469616c697a61626c653a20636f6e7472616374206973206e6f74206960448201527f6e697469616c697a696e67000000000000000000000000000000000000000000606482015260840161106c565b6004805473ffffffffffffffffffffffffffffffffffffffff9384167fffffffffffffffffffffffff00000000000000000000000000000000000000009182161790915560078054929093169116179055565b600f60205280600052604060002060009150905080600001604051806101000160405290816000820180546112e890614d65565b80601f016020809104026020016040519081016040528092919081815260200182805461131490614d65565b80156113615780601f1061133657610100808354040283529160200191611361565b820191906000526020600020905b81548152906001019060200180831161134457829003601f168201915b5050505050815260200160018201805461137a90614d65565b80601f01602080910402602001604051908101604052809291908181526020018280546113a690614d65565b80156113f35780601f106113c8576101008083540402835291602001916113f3565b820191906000526020600020905b8154815290600101906020018083116113d657829003601f168201915b50505091835250506002820154602082015260038201546040820152600482015473ffffffffffffffffffffffffffffffffffffffff16606082015260058201805460809092019161144490614d65565b80601f016020809104026020016040519081016040528092919081815260200182805461147090614d65565b80156114bd5780601f10611492576101008083540402835291602001916114bd565b820191906000526020600020905b8154815290600101906020018083116114a057829003601f168201915b50505050508152602001600682015481526020016007820160009054906101000a900460ff16151515158152505090806008016040518060a001604052908160008201548152602001600182015481526020016002820154815260200160038201805461152990614d65565b80601f016020809104026020016040519081016040528092919081815260200182805461155590614d65565b80156115a25780601f10611577576101008083540402835291602001916115a2565b820191906000526020600020905b81548152906001019060200180831161158557829003601f168201915b505050505081526020016004820180546115bb90614d65565b80601f01602080910402602001604051908101604052809291908181526020018280546115e790614d65565b80156116345780601f1061160957610100808354040283529160200191611634565b820191906000526020600020905b81548152906001019060200180831161161757829003601f168201915b5050505050815250509080600d016040518060a001604052908160008201548152602001600182015481526020016002820154815260200160038201805461167b90614d65565b80601f01602080910402602001604051908101604052809291908181526020018280546116a790614d65565b80156116f45780601f106116c9576101008083540402835291602001916116f4565b820191906000526020600020905b8154815290600101906020018083116116d757829003601f168201915b5050505050815260200160048201805461170d90614d65565b80601f016020809104026020016040519081016040528092919081815260200182805461173990614d65565b80156117865780601f1061175b57610100808354040283529160200191611786565b820191906000526020600020905b81548152906001019060200180831161176957829003601f168201915b505050919092525050506013820154601483015460158401546016850154601790950154939473ffffffffffffffffffffffffffffffffffffffff909316939192909160ff8082169161010090041689565b60075473ffffffffffffffffffffffffffffffffffffffff163314611859576040517f08c379a000000000000000000000000000000000000000000000000000000000815260206004820152601d60248201527f554e415554484f52495a45443a204f4e4c595f474f5645524e414e4345000000604482015260640161106c565b600155565b601254606082015160a0830151805160409182015160c086015180519084015193517f9ba7367e0000000000000000000000000000000000000000000000000000000081526004810195909552602485019290925260448401526064830152608482015260009173ffffffffffffffffffffffffffffffffffffffff16908190639ba7367e9060a401602060405180830381865afa158015611904573d6000803e3d6000fd5b505050506040513d601f19601f820116820180604052508101906119289190614e42565b50600e805490600061193983614e8e565b90915550506004805460608501516040517f2d4a03820000000000000000000000000000000000000000000000000000000081529283015273ffffffffffffffffffffffffffffffffffffffff16906000908290632d4a038290602401602060405180830381865afa1580156119b3573d6000803e3d6000fd5b505050506040513d601f19601f820116820180604052508101906119d79190614e19565b905060006119e66000836138a6565b90506119f23382613a6b565b60a086015160609081015160c0880151909101516040517f61cbc35700000000000000000000000000000000000000000000000000000000815273ffffffffffffffffffffffffffffffffffffffff8616926361cbc35792611a5692600401614ec7565b600060405180830381600087803b158015611a7057600080fd5b505af1158015611a84573d6000803e3d6000fd5b5050506060870151875160208901516040808b015190517fc1befa6a0000000000000000000000000000000000000000000000000000000081526000955073ffffffffffffffffffffffffffffffffffffffff8a169463c1befa6a94611af4949193909233908a90600401614eec565b6000604051808303816000875af1158015611b13573d6000803e3d6000fd5b505050506040513d6000823e601f3d9081017fffffffffffffffffffffffffffffffffffffffffffffffffffffffffffffffe0168201604052611b599190810190614fa7565b905060006040518061014001604052808381526020018960a0015181526020018960c001518152602001896080015181526020013373ffffffffffffffffffffffffffffffffffffffff168152602001896060015181526020018581526020018481526020016001151581526020016000151581525090507f42cad05f5e0c47228d26190e634cc7f9822f43ee731fe6b8f723987878a9f746600e54838a60a001518b60c001518c60800151338e606001518b8b604051611c229998979695949392919061509d565b60405180910390a1600e5460408051338152602081019290925281018490524260608201527f3280de2a4f99f3d75b997f6eaa4416477712e0bb888b45922dc7c757aed2ce6e9060800160405180910390a1600e546000908152600f6020908152604090912082518051805185948492611ca2928492919091019061434c565b506020828101518051611cbb926001850192019061434c565b50604082015160028201556060820151600382015560808201516004820180547fffffffffffffffffffffffff00000000000000000000000000000000000000001673ffffffffffffffffffffffffffffffffffffffff90921691909117905560a08201518051611d3691600584019160209091019061434c565b5060c0820151600682015560e090910151600790910180547fffffffffffffffffffffffffffffffffffffffffffffffffffffffffffffff00169115159190911790556020828101518051600884019081558183015160098501556040820151600a8501556060820151805192939192611db692600b870192019061434c565b5060808201518051611dd291600484019160209091019061434c565b5050506040828101518051600d8401908155602080830151600e86015592820151600f8501556060820151805192939192611e13926010870192019061434c565b5060808201518051611e2f91600484019160209091019061434c565b50505060608201518051611e4d9160128401916020909101906143d0565b5060808201516013820180547fffffffffffffffffffffffff00000000000000000000000000000000000000001673ffffffffffffffffffffffffffffffffffffffff90921691909117905560a0820151601482015560c0820151601582015560e082015160168201556101008083015160179092018054610120909401517fffffffffffffffffffffffffffffffffffffffffffffffffffffffffffff00009094169215157fffffffffffffffffffffffffffffffffffffffffffffffffffffffffffff00ff1692909217921515029190911790555050600e549695505050505050565b73ffffffffffffffffffffffffffffffffffffffff84166000908152600d60205260408120905b81548110156120e85760096000838381548110611f7857611f78615133565b6000918252602080832090910154835282019290925260400190206007015460ff16151560011480611fdb57504360096000848481548110611fbc57611fbc615133565b9060005260206000200154815260200190815260200160002060060154105b156120745781548290611ff090600190615162565b8154811061200057612000615133565b906000526020600020015482828154811061201d5761201d615133565b90600052602060002001819055508180548061203b5761203b615179565b600190038181906000526020600020016000905590558060001415612062575060006120d6565b8061206c816151a8565b9150506120d6565b6009600083838154811061208a5761208a615133565b90600052602060002001548152602001908152602001600020600501548514156120d6576120d68282815481106120c3576120c3615133565b9060005260206000200154878686613c3c565b806120e081614e8e565b915050611f59565b505050505050565b6000818152600f6020526040808220815161024081019092528054829061014082019083908290829061212290614d65565b80601f016020809104026020016040519081016040528092919081815260200182805461214e90614d65565b801561219b5780601f106121705761010080835404028352916020019161219b565b820191906000526020600020905b81548152906001019060200180831161217e57829003601f168201915b505050505081526020016001820180546121b490614d65565b80601f01602080910402602001604051908101604052809291908181526020018280546121e090614d65565b801561222d5780601f106122025761010080835404028352916020019161222d565b820191906000526020600020905b81548152906001019060200180831161221057829003601f168201915b50505091835250506002820154602082015260038201546040820152600482015473ffffffffffffffffffffffffffffffffffffffff16606082015260058201805460809092019161227e90614d65565b80601f01602080910402602001604051908101604052809291908181526020018280546122aa90614d65565b80156122f75780601f106122cc576101008083540402835291602001916122f7565b820191906000526020600020905b8154815290600101906020018083116122da57829003601f168201915b50505050508152602001600682015481526020016007820160009054906101000a900460ff1615151515815250508152602001600882016040518060a001604052908160008201548152602001600182015481526020016002820154815260200160038201805461236790614d65565b80601f016020809104026020016040519081016040528092919081815260200182805461239390614d65565b80156123e05780601f106123b5576101008083540402835291602001916123e0565b820191906000526020600020905b8154815290600101906020018083116123c357829003601f168201915b505050505081526020016004820180546123f990614d65565b80601f016020809104026020016040519081016040528092919081815260200182805461242590614d65565b80156124725780601f1061244757610100808354040283529160200191612472565b820191906000526020600020905b81548152906001019060200180831161245557829003601f168201915b5050505050815250508152602001600d82016040518060a00160405290816000820154815260200160018201548152602001600282015481526020016003820180546124bd90614d65565b80601f01602080910402602001604051908101604052809291908181526020018280546124e990614d65565b80156125365780601f1061250b57610100808354040283529160200191612536565b820191906000526020600020905b81548152906001019060200180831161251957829003601f168201915b5050505050815260200160048201805461254f90614d65565b80601f016020809104026020016040519081016040528092919081815260200182805461257b90614d65565b80156125c85780601f1061259d576101008083540402835291602001916125c8565b820191906000526020600020905b8154815290600101906020018083116125ab57829003601f168201915b50505050508152505081526020016012820180548060200260200160405190810160405280929190818152602001828054801561262457602002820191906000526020600020905b815481526020019060010190808311612610575b5050509183525050601382015473ffffffffffffffffffffffffffffffffffffffff166020808301919091526014830154604080840191909152601584015460608401526016840154608084015260179093015460ff808216151560a08501526101009091048116151560c09093019290925260e084015160009081526009909152919091206007015491925016612718576040517f08c379a000000000000000000000000000000000000000000000000000000000815260206004820152601a60248201527f494e56414c49443a2042414c4c4f545f5354494c4c5f4f50454e000000000000604482015260640161106c565b600082815260106020908152604080832033845290915290205460ff161561279c576040517f08c379a000000000000000000000000000000000000000000000000000000000815260206004820152601c60248201527f494e56414c49443a2043414e5f4f4e4c595f434c41494d5f4f4e434500000000604482015260640161106c565b610120810151151560011461280d576040517f08c379a000000000000000000000000000000000000000000000000000000000815260206004820152601960248201527f494e56414c49443a2056455253494f4e5f52454a454354454400000000000000604482015260640161106c565b6000601360008481526020019081526020016000206040518060e001604052908160008201548152602001600182015481526020016002820154815260200160038201548152602001600482015481526020016005820154815260200160068201548152505090506000601460008581526020019081526020016000206040518060e0016040529081600082015481526020016001820154815260200160028201548152602001600382015481526020016004820154815260200160058201548152602001600682015481525050905060006128e883613dde565b905060006128f583613dde565b608080860151604080518a8152602081019290925281018590523360608201529192507f05e5c9b248e254567ca15790a9819305964904f68019d07432cf64fa05f2b495910160405180910390a160808084015160408051898152602081019290925281018390523360608201527f05e5c9b248e254567ca15790a9819305964904f68019d07432cf64fa05f2b495910160405180910390a150505060e0909101516000908152600a60209081526040808320338452909152902080547fffffffffffffffffffffffffffffffffffffffffffffffffffffffffffffff001660011790555050565b60075473ffffffffffffffffffffffffffffffffffffffff163314612a5e576040517f08c379a000000000000000000000000000000000000000000000000000000000815260206004820152601d60248201527f554e415554484f52495a45443a204f4e4c595f474f5645524e414e4345000000604482015260640161106c565b600355565b60075473ffffffffffffffffffffffffffffffffffffffff163314612ae4576040517f08c379a000000000000000000000000000000000000000000000000000000000815260206004820152601d60248201527f554e415554484f52495a45443a204f4e4c595f474f5645524e414e4345000000604482015260640161106c565b600255565b600054610100900460ff1615808015612b095750600054600160ff909116105b80612b235750303b158015612b23575060005460ff166001145b612baf576040517f08c379a000000000000000000000000000000000000000000000000000000000815260206004820152602e60248201527f496e697469616c697a61626c653a20636f6e747261637420697320616c72656160448201527f647920696e697469616c697a6564000000000000000000000000000000000000606482015260840161106c565b600080547fffffffffffffffffffffffffffffffffffffffffffffffffffffffffffffff001660011790558015612c0d57600080547fffffffffffffffffffffffffffffffffffffffffffffffffffffffffffff00ff166101001790555b60065473ffffffffffffffffffffffffffffffffffffffff163314612cb4576040517f08c379a000000000000000000000000000000000000000000000000000000000815260206004820152602360248201527f554e415554484f52495a45443a2043414e4e4f545f504552464f524d5f41435460448201527f494f4e0000000000000000000000000000000000000000000000000000000000606482015260840161106c565b612cbe84836111ca565b6012805473ffffffffffffffffffffffffffffffffffffffff8088167fffffffffffffffffffffffff00000000000000000000000000000000000000009283161790925560118054928616929091169190911790558015612d7657600080547fffffffffffffffffffffffffffffffffffffffffffffffffffffffffffff00ff169055604051600181527f7f26b83ff96e1f2b6a682f133852f6798a09c465da95921460cefb38474024989060200160405180910390a15b5050505050565b600081815260096020526040812060070154819062010000900460ff161515600114612e05576040517f08c379a000000000000000000000000000000000000000000000000000000000815260206004820152601960248201527f494e56414c49443a2042414c4c4f545f4e4f545f464f554e4400000000000000604482015260640161106c565b6000838152600960205260409020600601544311612e7f576040517f08c379a000000000000000000000000000000000000000000000000000000000815260206004820152601d60248201527f494e56414c49443a20564f54494e475f54494d455f4e4f545f4f564552000000604482015260640161106c565b60008381526009602052604090206007015460ff1615612efb576040517f08c379a000000000000000000000000000000000000000000000000000000000815260206004820181905260248201527f494e56414c49443a20524553554c545f414c52454144595f4445434c41524544604482015260640161106c565b6000838152600960205260408082206001808201546003830154600480546007860180547fffffffffffffffffffffffffffffffffffffffffffffffffffffffffffffff0016909517909455600585015495517f036c22ad000000000000000000000000000000000000000000000000000000008152908101959095529294909373ffffffffffffffffffffffffffffffffffffffff90921691829063036c22ad90602401602060405180830381865afa158015612fbd573d6000803e3d6000fd5b505050506040513d601f19601f82011682018060405250810190612fe19190614e19565b9050600060648060035484612ff691906151dd565b613000919061521a565b61300a919061521a565b9050806130178686615255565b111561308757841561307557600060646130318688615255565b61303c9060426151dd565b613046919061521a565b90508086111561306257506001998a9950975050505050505050565b5060009960019950975050505050505050565b50600098600198509650505050505050565b506000988998509650505050505050565b6000818152600c602052604090206003015460ff61010090910416151560011461311e576040517f08c379a000000000000000000000000000000000000000000000000000000000815260206004820152600d60248201527f4445505f4e4f545f455849535400000000000000000000000000000000000000604482015260640161106c565b6000818152600c602052604090206003015460ff161561319a576040517f08c379a000000000000000000000000000000000000000000000000000000000815260206004820152601360248201527f4445505f414c52454144595f434c41494d454400000000000000000000000000604482015260640161106c565b6000818152600c60205260408082208054600290910154915173ffffffffffffffffffffffffffffffffffffffff90911691908381818185875af1925050503d8060008114613205576040519150601f19603f3d011682016040523d82523d6000602084013e61320a565b606091505b5050905080613275576040517f08c379a000000000000000000000000000000000000000000000000000000000815260206004820152600d60248201527f494e565f4445505f434c41494d00000000000000000000000000000000000000604482015260640161106c565b6000828152600c60209081526040918290208054600290910154835173ffffffffffffffffffffffffffffffffffffffff9092168252918101859052918201527f6b1069552f63b401b74bc71e75594d0a8bc61f7a42998e0f201b78f9aa600d329060600160405180910390a15050565b600480546040517f036c22ad00000000000000000000000000000000000000000000000000000000815291820186905273ffffffffffffffffffffffffffffffffffffffff16908590600090839063036c22ad90602401602060405180830381865afa15801561335a573d6000803e3d6000fd5b505050506040513d601f19601f8201168201806040525081019061337e9190614e19565b90506000851561339a576133938a8a87613fa0565b90506133a8565b6133a58a8a87614066565b90505b60006040518060e00160405280670de0b6b3a7640000856133c9919061521a565b81526020018c602001518152602001898152602001858152602001838152602001670de0b6b3a7640000856133fe919061521a565b8d6020015161340d919061521a565b81526020018673ffffffffffffffffffffffffffffffffffffffff16639711715a6040518163ffffffff1660e01b81526004016020604051808303816000875af115801561345f573d6000803e3d6000fd5b505050506040513d601f19601f820116820180604052508101906134839190614e19565b81525090507f70ca97bed53efc5c77b3772fd7dd916c4712482aeef3a17d25dfad3bff28f86d88826000015183602001518460600151868660a001518760c001516040516135029796959493929190968752602087019590955260408601939093526060850191909152608084015260a083015260c082015260e00190565b60405180910390a186156135665760008881526013602090815260409182902083518155908301516001820155908201516002820155606082015160038201556080820151600482015560a0820151600582015560c08201516006909101556135b8565b60008881526014602090815260409182902083518155908301516001820155908201516002820155606082015160038201556080820151600482015560a0820151600582015560c08201516006909101555b5050505050505050505050565b6000828152600960205260409020600701548290339062010000900460ff16151560011461364f576040517f08c379a000000000000000000000000000000000000000000000000000000000815260206004820152601960248201527f494e56414c49443a2042414c4c4f545f4e4f545f464f554e4400000000000000604482015260640161106c565b60008281526009602052604090206006015443106136c9576040517f08c379a000000000000000000000000000000000000000000000000000000000815260206004820152601960248201527f494e56414c49443a20564f54494e475f54494d455f4f56455200000000000000604482015260640161106c565b6000828152600a6020908152604080832073ffffffffffffffffffffffffffffffffffffffff8516845290915290205460ff1615613763576040517f08c379a000000000000000000000000000000000000000000000000000000000815260206004820152601660248201527f494e56414c49443a20414c52454144595f564f54454400000000000000000000604482015260640161106c565b6000848152600960205260409020600701548490610100900460ff161561380d576000818152600a6020908152604080832032845290915290205460ff1615613808576040517f08c379a000000000000000000000000000000000000000000000000000000000815260206004820152601660248201527f494e56414c49443a20414c52454144595f564f54454400000000000000000000604482015260640161106c565b61389b565b60008181526009602052604090205473ffffffffffffffffffffffffffffffffffffffff1632141561389b576040517f08c379a000000000000000000000000000000000000000000000000000000000815260206004820152601f60248201527f554e415554484f52495a45443a204f574e45525f43414e4e4f545f564f544500604482015260640161106c565b612d768585326140e0565b60088054600091826138b783614e8e565b919050555060006040518061014001604052803273ffffffffffffffffffffffffffffffffffffffff16815260200160008152602001600081526020016000815260200160008152602001848152602001600254436139169190615255565b8152600060208083018290529615156040808401919091526001606093840181905260088054845260098a5292829020855181547fffffffffffffffffffffffff00000000000000000000000000000000000000001673ffffffffffffffffffffffffffffffffffffffff909116178155988501519089015583015160028801559082015160038701556080820151600487015560a0820151600587015560c0820151600687015560e08201516007909601805461010080850151610120909501517fffffffffffffffffffffffffffffffffffffffffffffffffffffffffffff00009092169815157fffffffffffffffffffffffffffffffffffffffffffffffffffffffffffff00ff1698909817931515909702929092177fffffffffffffffffffffffffffffffffffffffffffffffffffffffffff00ffff16620100009615159690960295909517905550509054919050565b3460015414613ad6576040517f08c379a000000000000000000000000000000000000000000000000000000000815260206004820152600760248201527f494e565f44455000000000000000000000000000000000000000000000000000604482015260640161106c565b6040805160a0808201835273ffffffffffffffffffffffffffffffffffffffff851680835260208084018690526001805485870181905260006060808801829052608080890185905289519687529486018a9052858901929092529084015290820152925191927f58ac581930e3170185d9c86e70eceabd7254c9eee2c1df3b76e38f030645ec3d929081900390910190a16000918252600c6020908152604092839020825181547fffffffffffffffffffffffff00000000000000000000000000000000000000001673ffffffffffffffffffffffffffffffffffffffff9091161781559082015160018201559181015160028301556060810151600390920180546080909201517fffffffffffffffffffffffffffffffffffffffffffffffffffffffffffff00009092169215157fffffffffffffffffffffffffffffffffffffffffffffffffffffffffffff00ff16929092176101009115159190910217905550565b6000848152600a6020908152604080832073ffffffffffffffffffffffffffffffffffffffff8716845290915290205460ff161515600114613d00576040517f08c379a000000000000000000000000000000000000000000000000000000000815260206004820152602560248201527f494e56414c49443a20494e5445524e414c3a20555345525f4841535f4e4f545f60448201527f564f544544000000000000000000000000000000000000000000000000000000606482015260840161106c565b6000848152600b6020908152604080832073ffffffffffffffffffffffffffffffffffffffff8716845290915290205460ff168015613d8b5760008581526009602052604081206001018054859290613d5a908490615162565b909155505060008581526009602052604081206001018054849290613d80908490615255565b90915550612d769050565b60008581526009602052604081206003018054859290613dac908490615162565b909155505060008581526009602052604081206003018054849290613dd2908490615255565b90915550505050505050565b60115460c082015160608301516040517f626da0680000000000000000000000000000000000000000000000000000000081523360048201526024810192909252604482015260009173ffffffffffffffffffffffffffffffffffffffff16908290829063626da06890606401602060405180830381865afa158015613e68573d6000803e3d6000fd5b505050506040513d601f19601f82011682018060405250810190613e8c9190614e19565b905080613e9d575060009392505050565b6000670de0b6b3a7640000828660a00151613eb891906151dd565b613ec2919061521a565b90508015613f985760808501516040517ff242432a00000000000000000000000000000000000000000000000000000000815230600482015233602482015260448101919091526064810182905260a06084820152602060a48201527f494e56414c49443a20524f59414c54595f414c52454144595f434c41494d454460c482015273ffffffffffffffffffffffffffffffffffffffff84169063f242432a9060e401600060405180830381600087803b158015613f7f57600080fd5b505af1158015613f93573d6000803e3d6000fd5b505050505b949350505050565b6004805484516040808701516060880151608089015160208a015193517f54d4f71900000000000000000000000000000000000000000000000000000000815260009773ffffffffffffffffffffffffffffffffffffffff9097169687966354d4f7199661401a968d9692959094929390928d910161526d565b6020604051808303816000875af1158015614039573d6000803e3d6000fd5b505050506040513d601f19601f8201168201806040525081019061405d9190614e19565b95945050505050565b6004805484516040808701516060880151608089015160208a015193517f1e62247600000000000000000000000000000000000000000000000000000000815260009773ffffffffffffffffffffffffffffffffffffffff909716968796631e6224769661401a968d9692959094929390928d910161526d565b600480546000858152600960209081526040808320815161014081018352815473ffffffffffffffffffffffffffffffffffffffff908116825260018301549482019490945260028201548184015260038201546060820152818701546080820152600582015460a08201819052600683015460c083015260079092015460ff808216151560e084015261010080830482161515908401526201000090910416151561012082015291517efdd58e000000000000000000000000000000000000000000000000000000008152878416968101969096526024860152921692839062fdd58e90604401602060405180830381865afa1580156141e5573d6000803e3d6000fd5b505050506040513d601f19601f820116820180604052508101906142099190614e19565b905084156142645760008681526009602052604081206001018054839290614232908490615255565b90915550506000868152600960205260408120600201805460019290614259908490615255565b909155506142b29050565b60008681526009602052604081206003018054839290614285908490615255565b909155505060008681526009602052604081206004018054600192906142ac908490615255565b90915550505b5050506000838152600a6020908152604080832073ffffffffffffffffffffffffffffffffffffffff94909416808452938252808320805460017fffffffffffffffffffffffffffffffffffffffffffffffffffffffffffffff009182168117909255878552600b8452828520958552948352818420805490951695151595909517909355600d8152918120805493840181558152200155565b82805461435890614d65565b90600052602060002090601f01602090048101928261437a57600085556143c0565b82601f1061439357805160ff19168380011785556143c0565b828001600101855582156143c0579182015b828111156143c05782518255916020019190600101906143a5565b506143cc92915061440a565b5090565b8280548282559060005260206000209081019282156143c057916020028201828111156143c05782518255916020019190600101906143a5565b5b808211156143cc576000815560010161440b565b60006020828403121561443157600080fd5b5035919050565b60006020828403121561444a57600080fd5b81357fffffffff000000000000000000000000000000000000000000000000000000008116811461447a57600080fd5b9392505050565b801515811461448f57600080fd5b50565b600080604083850312156144a557600080fd5b8235915060208301356144b781614481565b809150509250929050565b73ffffffffffffffffffffffffffffffffffffffff8116811461448f57600080fd5b6000602082840312156144f657600080fd5b813561447a816144c2565b6000806040838503121561451457600080fd5b823561451f816144c2565b915060208301356144b7816144c2565b60005b8381101561454a578181015183820152602001614532565b83811115614559576000848401525b50505050565b6000815180845261457781602086016020860161452f565b601f017fffffffffffffffffffffffffffffffffffffffffffffffffffffffffffffffe0169290920160200192915050565b600061010082518185526145bf8286018261455f565b915050602083015184820360208601526145d9828261455f565b915050604083015160408501526060830151606085015273ffffffffffffffffffffffffffffffffffffffff608084015116608085015260a083015184820360a0860152614627828261455f565b91505060c083015160c085015260e083015161464760e086018215159052565b509392505050565b8051825260208101516020830152604081015160408301526000606082015160a0606085015261468260a085018261455f565b90506080830151848203608086015261405d828261455f565b60006101208083526146af8184018d6145a9565b905082810360208401526146c3818c61464f565b905082810360408401526146d7818b61464f565b73ffffffffffffffffffffffffffffffffffffffff9990991660608401525050608081019590955260a085019390935260c0840191909152151560e08301521515610100909101529392505050565b7f4e487b7100000000000000000000000000000000000000000000000000000000600052604160045260246000fd5b60405160e0810167ffffffffffffffff8111828210171561477857614778614726565b60405290565b604051610100810167ffffffffffffffff8111828210171561477857614778614726565b604051601f82017fffffffffffffffffffffffffffffffffffffffffffffffffffffffffffffffe016810167ffffffffffffffff811182821017156147e9576147e9614726565b604052919050565b600067ffffffffffffffff82111561480b5761480b614726565b50601f017fffffffffffffffffffffffffffffffffffffffffffffffffffffffffffffffe01660200190565b600082601f83011261484857600080fd5b813561485b614856826147f1565b6147a2565b81815284602083860101111561487057600080fd5b816020850160208301376000918101602001919091529392505050565b600082601f83011261489e57600080fd5b8135602067ffffffffffffffff8211156148ba576148ba614726565b8160051b6148c98282016147a2565b92835284810182019282810190878511156148e357600080fd5b83870192505b84831015614902578235825291830191908301906148e9565b979650505050505050565b600060a0828403121561491f57600080fd5b60405160a0810167ffffffffffffffff828210818311171561494357614943614726565b81604052829350843583526020850135602084015260408501356040840152606085013591508082111561497657600080fd5b61498286838701614837565b6060840152608085013591508082111561499b57600080fd5b506149a885828601614837565b6080830152505092915050565b6000602082840312156149c757600080fd5b813567ffffffffffffffff808211156149df57600080fd5b9083019060e082860312156149f357600080fd5b6149fb614755565b823582811115614a0a57600080fd5b614a1687828601614837565b825250602083013582811115614a2b57600080fd5b614a3787828601614837565b602083015250604083013582811115614a4f57600080fd5b614a5b87828601614837565b60408301525060608301356060820152608083013582811115614a7d57600080fd5b614a898782860161488d565b60808301525060a083013582811115614aa157600080fd5b614aad8782860161490d565b60a08301525060c083013582811115614ac557600080fd5b614ad18782860161490d565b60c08301525095945050505050565b60008060408385031215614af357600080fd5b8235915060208301356144b7816144c2565b60008060008060808587031215614b1b57600080fd5b8435614b26816144c2565b966020860135965060408601359560600135945092505050565b60008083601f840112614b5257600080fd5b50813567ffffffffffffffff811115614b6a57600080fd5b6020830191508360208260051b8501011115614b8557600080fd5b9250929050565b60008083601f840112614b9e57600080fd5b50813567ffffffffffffffff811115614bb657600080fd5b602083019150836020828501011115614b8557600080fd5b60008060008060008060008060a0898b031215614bea57600080fd5b8835614bf5816144c2565b97506020890135614c05816144c2565b9650604089013567ffffffffffffffff80821115614c2257600080fd5b614c2e8c838d01614b40565b909850965060608b0135915080821115614c4757600080fd5b614c538c838d01614b40565b909650945060808b0135915080821115614c6c57600080fd5b50614c798b828c01614b8c565b999c989b5096995094979396929594505050565b60008060008060008060a08789031215614ca657600080fd5b8635614cb1816144c2565b95506020870135614cc1816144c2565b94506040870135935060608701359250608087013567ffffffffffffffff811115614ceb57600080fd5b614cf789828a01614b8c565b979a9699509497509295939492505050565b60008060008060808587031215614d1f57600080fd5b8435614d2a816144c2565b93506020850135614d3a816144c2565b92506040850135614d4a816144c2565b91506060850135614d5a816144c2565b939692955090935050565b600181811c90821680614d7957607f821691505b60208210811415614db3577f4e487b7100000000000000000000000000000000000000000000000000000000600052602260045260246000fd5b50919050565b600081518084526020808501945080840160005b83811015614de957815187529582019590820190600101614dcd565b509495945050505050565b604081526000614e0760408301856145a9565b828103602084015261405d8185614db9565b600060208284031215614e2b57600080fd5b5051919050565b8051614e3d81614481565b919050565b600060208284031215614e5457600080fd5b815161447a81614481565b7f4e487b7100000000000000000000000000000000000000000000000000000000600052601160045260246000fd5b60007fffffffffffffffffffffffffffffffffffffffffffffffffffffffffffffffff821415614ec057614ec0614e5f565b5060010190565b604081526000614eda604083018561455f565b828103602084015261405d818561455f565b86815260c060208201526000614f0560c083018861455f565b8281036040840152614f17818861455f565b90508281036060840152614f2b818761455f565b73ffffffffffffffffffffffffffffffffffffffff959095166080840152505060a00152949350505050565b600082601f830112614f6857600080fd5b8151614f76614856826147f1565b818152846020838601011115614f8b57600080fd5b613f9882602083016020870161452f565b8051614e3d816144c2565b600060208284031215614fb957600080fd5b815167ffffffffffffffff80821115614fd157600080fd5b908301906101008286031215614fe657600080fd5b614fee61477e565b825182811115614ffd57600080fd5b61500987828601614f57565b82525060208301518281111561501e57600080fd5b61502a87828601614f57565b602083015250604083015160408201526060830151606082015261505060808401614f9c565b608082015260a08301518281111561506757600080fd5b61507387828601614f57565b60a08301525060c083015160c082015261508f60e08401614e32565b60e082015295945050505050565b60006101208b83528060208401526150b78184018c6145a9565b905082810360408401526150cb818b61464f565b905082810360608401526150df818a61464f565b905082810360808401526150f38189614db9565b91505073ffffffffffffffffffffffffffffffffffffffff861660a08301528460c08301528360e0830152826101008301529a9950505050505050505050565b7f4e487b7100000000000000000000000000000000000000000000000000000000600052603260045260246000fd5b60008282101561517457615174614e5f565b500390565b7f4e487b7100000000000000000000000000000000000000000000000000000000600052603160045260246000fd5b6000816151b7576151b7614e5f565b507fffffffffffffffffffffffffffffffffffffffffffffffffffffffffffffffff0190565b6000817fffffffffffffffffffffffffffffffffffffffffffffffffffffffffffffffff048311821515161561521557615215614e5f565b500290565b600082615250577f4e487b7100000000000000000000000000000000000000000000000000000000600052601260045260246000fd5b500490565b6000821982111561526857615268614e5f565b500190565b87815286602082015285604082015260e06060820152600061529260e083018761455f565b82810360808401526152a4818761455f565b9150508360a083015273ffffffffffffffffffffffffffffffffffffffff831660c08301529897505050505050505056fea26469706673582212208a23d7ac78e7bba9e40453167bb440615239006f3d16fde44ebf0bc0fc5e125764736f6c634300080c0033",
  "immutableReferences": {},
  "source": "pragma solidity ^0.8.0;\n\nimport \"@openzeppelin/contracts/token/ERC1155/extensions/ERC1155Supply.sol\";\nimport \"@openzeppelin/contracts/utils/Counters.sol\";\nimport \"@openzeppelin/contracts/access/Ownable.sol\";\nimport \"@openzeppelin/contracts/token/ERC1155/IERC1155Receiver.sol\";\nimport \"./interface/IContribution.sol\";\nimport \"./Voting/BaseVotingContract.sol\";\nimport \"./interface/ITreasury.sol\";\nimport \"./interface/ITreasuryCore.sol\";\nimport \"./RecordsContract.sol\";\n\ncontract RecordsVotingContract is BaseVotingContract, IERC1155Receiver {\n    uint256 newVersionRequestId = 0;\n\n    // This mapping holds the data of new record version requests\n    mapping(uint256 => NewVersionRequest) public newVersionRequestMap;\n\n    // This mapping holds the the status of the claiming of the reward\n    // versionId => user address => status\n    mapping(uint256 => mapping(address => bool)) public rewardsClaimed;\n\n    // Address of the treasury core contracts\n    address public TREASURY_CORE_CONTRACT_ADDRESS;\n\n    // Address of the records contract\n    address public RECORDS_CONTRACT_ADDRESS;\n\n    /// @dev This is the token data for new version of record\n    /// @param totalSupply This is the total amount of tokens that will be created\n    /// @param oldContributorShare This is the amount of token that will be distributed among the previous record owners\n    /// @param userBalance Amount of tokens that user will keep to himself\n    /// @param symbol Symbol for the token\n    /// @param image Image for the token\n    struct NewVersionTokenStruct {\n        uint256 totalSupply;\n        uint256 oldContributorShare;\n        uint256 userBalance;\n        string symbol;\n        string image;\n    }\n\n    /// @dev This struct holds the data for new record version request\n    /// @param recordData Data for the new record\n    /// @param governanceToken New token data for governance token\n    /// @param communityToken New token data for community token\n    /// @param requester Owner of the request\n    /// @param oldVersionId Record id of old version\n    /// @param tokenId id of the token which will be used for voting\n    /// @param ballotId Id of the voting ballot\n    /// @param isPresent This is to check if the request with id is present or not\n    /// @param isAccepted The is the status of record that is accepted or not\n    struct NewVersionRequest {\n        RecordsContract.RecordStruct recordData;\n        NewVersionTokenStruct governanceToken;\n        NewVersionTokenStruct communityToken;\n        uint256[] contributionIds;\n        address requester;\n        uint256 oldVersionId;\n        uint256 tokenId;\n        uint256 ballotId;\n        bool isPresent;\n        bool isAccepted;\n    }\n\n    /// @dev This event is generated when New Record Version is created\n    /// @param requestId This is the id of the new record version request\n    /// @param recordData Data for the new record\n    /// @param governanceToken New token data for governance token\n    /// @param communityToken New token data for community token\n    /// @param requester Owner of the request\n    /// @param oldVersionId Record id of old version\n    /// @param tokenId id of the token which will be used for voting\n    /// @param ballotId Id of the voting ballot\n    event VersionRequest(\n        uint256 requestId,\n        RecordsContract.RecordStruct recordData,\n        NewVersionTokenStruct governanceToken,\n        NewVersionTokenStruct communityToken,\n        uint256[] contributionIds,\n        address requester,\n        uint256 oldVersionId,\n        uint256 tokenId,\n        uint256 ballotId\n    );\n\n    /// @dev This is when a vote is given by user.\n    /// @param voter Address of the voter\n    /// @param versionRequestId This is the id of the recordVersionRequest structure that is linked to this ballot\n    /// @param ballotId Id of the ballot where voting is stored\n    /// @param vote State of vote : true for yes and false for No\n    event NewVersionVoting(\n        address voter,\n        uint256 versionRequestId,\n        uint256 ballotId,\n        bool vote\n    );\n\n    /// @dev This is emitted when a voting ballot is created\n    /// @param requester Address of the requester\n    /// @param versionRequestId This is the id of the recordVersionRequest structure that is linked to this ballot\n    /// @param ballotId Id of the ballot where voting is stored\n    /// @param createdAt time when the ballot was created\n\n    event NewVersionVotingBallotCreated(\n        address requester,\n        uint256 versionRequestId,\n        uint256 ballotId,\n        uint256 createdAt\n    );\n\n    /// @dev this event is generated when result of a ballot is declared\n    /// @param versionReqId This is the id of newVersionRequest\n    /// @param tokenId This is the id of the token that is linked to this ballot\n    /// @param ballotId this is the ballot Id for which result is declared\n    /// @param result this is the status of the result\n    /// @param minTurnOut this status indicates if minimum amount of user showed up for voting\n    /// @param newRecordId this is the new record Id\n    event NewVersionRequestResult(\n        uint256 versionReqId,\n        uint256 tokenId,\n        uint256 ballotId,\n        bool result,\n        bool minTurnOut,\n        uint256 newRecordId\n    );\n\n    //------------------------------\n\n    ///@param tokenId it is the id of the token on which basis we distribute the reward\n    ///@param rewardTokenId it is the id of the new tokenId\n    struct NewVersionTokenDistributionStruct {\n        uint256 totalSupplyEther;\n        uint256 rewardAmountWei;\n        uint256 versionRequestId;\n        uint256 tokenId;\n        uint256 rewardTokenId;\n        uint256 rewardPerTokenWei;\n        uint256 snapshotId;\n    }\n\n    event NewVersionTokenDistribution(\n        uint256 versionRequestId,\n        uint256 totalSupplyEther,\n        uint256 rewardAmountWei,\n        uint256 tokenId,\n        uint256 rewardTokenId,\n        uint256 rewardPerTokenWei,\n        uint256 snapshotId\n    );\n\n    event NewTokenClaimed(\n        uint256 versionRequestId,\n        uint256 rewardTokenId,\n        uint256 rewardAmount,\n        address userAddress\n    );\n\n    // newVersionRequestId => tokenData\n    mapping(uint256 => NewVersionTokenDistributionStruct) newVersionGovTokenDistributionMapping;\n\n    mapping(uint256 => NewVersionTokenDistributionStruct) newVersionCommTokenDistributionMapping;\n\n    //------------------------------\n\n    constructor(address owner) BaseVotingContract(owner) {}\n\n    /// @dev This is to set the address of the contracts\n    /// @param recordsContractAddress New records contract address\n    /// @param treasuryContractAddress Takes the address of new treasury contract as parameter\n    /// @param treasuryCoreContractAddress Takes the address of new treasury core contract as parameter\n    /// @param newGovernanceContractAddress This is the address for the governance contract\n    function initialize(\n        address recordsContractAddress,\n        address treasuryContractAddress,\n        address treasuryCoreContractAddress,\n        address newGovernanceContractAddress\n    ) public initializer _ownerOnly {\n        BaseVotingContract.initialize(\n            treasuryContractAddress,\n            newGovernanceContractAddress\n        );\n        RECORDS_CONTRACT_ADDRESS = recordsContractAddress;\n        TREASURY_CORE_CONTRACT_ADDRESS = treasuryCoreContractAddress;\n    }\n\n    /// @dev This struct holds the required data for new version creation\n    /// @param name Name of the new record\n    /// @param image Cover photo of record\n    /// @param recordCategory string category of record\n    /// @param oldRecordId old record id\n    /// @param contributionIds list of contribution that are part of the new version\n    /// @param governanceToken this contains governance token details for new version of record\n    /// @param communityToken this contains community token details for new version of record\n    struct NewRecordVersionParams {\n        string name;\n        string image;\n        string recordCategory;\n        uint256 oldRecordId;\n        uint256[] contributionIds;\n        NewVersionTokenStruct governanceToken;\n        NewVersionTokenStruct communityToken;\n    }\n\n    /// @dev This function will create new record version from existing record\n    /// @param params required data for creation of new record version\n    function createNewRecordVersion(\n        NewRecordVersionParams memory params\n    ) public payable returns (uint256) {\n        RecordsContract recordsContract = RecordsContract(\n            RECORDS_CONTRACT_ADDRESS\n        );\n\n        {\n            recordsContract.validateNewRecordVersionParams(\n                params.oldRecordId,\n                params.governanceToken.totalSupply,\n                params.governanceToken.userBalance,\n                params.communityToken.totalSupply,\n                params.communityToken.userBalance\n            );\n        }\n\n        newVersionRequestId++;\n\n        ITreasury treasury = ITreasury(TREASURY_CONTRACT_ADDRESS);\n        uint256 votingTokenId = treasury.getCommunityTokenId(\n            params.oldRecordId\n        );\n        uint256 ballotId = _createVoting(false, votingTokenId);\n        _createDeposit(msg.sender, ballotId);\n\n        treasury.setSymbolsAsUsed(\n            params.governanceToken.symbol,\n            params.communityToken.symbol\n        );\n\n        RecordsContract.RecordStruct memory recordStruct = recordsContract\n            .createNewRecordVersion(\n                params.oldRecordId,\n                params.name,\n                params.image,\n                params.recordCategory,\n                msg.sender,\n                ballotId\n            );\n        NewVersionRequest memory newVersionRequest = NewVersionRequest({\n            recordData: recordStruct,\n            governanceToken: params.governanceToken,\n            communityToken: params.communityToken,\n            contributionIds: params.contributionIds,\n            requester: msg.sender,\n            oldVersionId: params.oldRecordId,\n            tokenId: votingTokenId,\n            ballotId: ballotId,\n            isPresent: true,\n            isAccepted: false\n        });\n\n        {\n            emit VersionRequest({\n                requestId: newVersionRequestId,\n                recordData: recordStruct,\n                governanceToken: params.governanceToken,\n                communityToken: params.communityToken,\n                contributionIds: params.contributionIds,\n                requester: msg.sender,\n                oldVersionId: params.oldRecordId,\n                tokenId: votingTokenId,\n                ballotId: ballotId\n            });\n\n            emit NewVersionVotingBallotCreated(\n                msg.sender,\n                newVersionRequestId,\n                ballotId,\n                block.timestamp\n            );\n        }\n\n        newVersionRequestMap[newVersionRequestId] = newVersionRequest;\n\n        return newVersionRequestId;\n    }\n\n    /// @dev This function is called by any user to cast vote\n    /// @param versionReqId this is the id of the new version request for which user is voting\n    /// @param vote this is the state of the vote, if true than it means the vote is in favour of the ballot\n    function castVote(uint256 versionReqId, bool vote) public {\n        require(\n            newVersionRequestMap[versionReqId].isPresent == true,\n            \"INVALID: INVALID_VERSION_REQ_ID\"\n        );\n\n        emit NewVersionVoting({\n            versionRequestId: versionReqId,\n            ballotId: newVersionRequestMap[versionReqId].ballotId,\n            voter: msg.sender,\n            vote: vote\n        });\n\n        super._castVote(versionReqId, vote);\n    }\n\n    /// @dev This function can be called from external source and also from within the contract\n    /// @param versionReqId this is the id of the new version request to which the winner is to be declared\n    function declareWinner(uint256 versionReqId) external {\n        RecordsContract recordsContract = RecordsContract(\n            RECORDS_CONTRACT_ADDRESS\n        );\n\n        NewVersionRequest memory req = newVersionRequestMap[versionReqId];\n\n        (bool result, bool minTurnOut) = _declareWinner(req.ballotId);\n        _releaseDeposit(req.ballotId);\n\n        uint256 recordId = 0;\n\n        if (result) {\n            ITreasury treasuryContract = ITreasury(TREASURY_CONTRACT_ADDRESS);\n\n            recordId = recordsContract.createRecordFromData(\n                req.recordData,\n                req.contributionIds\n            );\n\n            // create new version and set the rewards for all the user\n            createToken(\n                req.governanceToken,\n                recordId,\n                treasuryContract.getCommunityTokenId(req.oldVersionId),\n                versionReqId,\n                true,\n                req.requester\n            );\n            createToken(\n                req.communityToken,\n                recordId,\n                treasuryContract.getCommunityTokenId(req.oldVersionId),\n                versionReqId,\n                false,\n                req.requester\n            );\n        }\n        newVersionRequestMap[versionReqId].isAccepted = result;\n\n        emit NewVersionRequestResult({\n            versionReqId: versionReqId,\n            tokenId: req.tokenId,\n            ballotId: req.ballotId,\n            result: result,\n            minTurnOut: minTurnOut,\n            newRecordId: recordId\n        });\n    }\n\n    /// @dev This function is for distributing of the tokens of new record version\n    /// @param versionReqId This is the version Request Id for which token needs to be claimed\n    function claimNewRecordTokens(uint256 versionReqId) public {\n        NewVersionRequest memory newVersionReq = newVersionRequestMap[\n            versionReqId\n        ];\n\n        require(\n            votingMap[newVersionReq.ballotId].isResultDeclared,\n            \"INVALID: BALLOT_STILL_OPEN\"\n        );\n\n        require(\n            rewardsClaimed[versionReqId][msg.sender] == false,\n            \"INVALID: CAN_ONLY_CLAIM_ONCE\"\n        );\n\n        require(newVersionReq.isAccepted == true, \"INVALID: VERSION_REJECTED\");\n\n        NewVersionTokenDistributionStruct\n            memory governanceToken = newVersionGovTokenDistributionMapping[\n                versionReqId\n            ];\n        NewVersionTokenDistributionStruct\n            memory communityToken = newVersionCommTokenDistributionMapping[\n                versionReqId\n            ];\n\n        uint256 govRewardAmount = calculateRewardTokens(governanceToken);\n        uint256 commRewardAmount = calculateRewardTokens(communityToken);\n\n        emit NewTokenClaimed({\n            versionRequestId: versionReqId,\n            rewardTokenId: governanceToken.rewardTokenId,\n            rewardAmount: govRewardAmount,\n            userAddress: msg.sender\n        });\n        emit NewTokenClaimed({\n            versionRequestId: versionReqId,\n            rewardTokenId: communityToken.rewardTokenId,\n            rewardAmount: commRewardAmount,\n            userAddress: msg.sender\n        });\n\n        alreadyVoted[newVersionReq.ballotId][msg.sender] = true;\n    }\n\n    /// @dev This function calculates the amount of token that a user will receive\n    /// @param tokenData This is the data of the token which is to be distributed\n    function calculateRewardTokens(\n        NewVersionTokenDistributionStruct memory tokenData\n    ) internal returns (uint256) {\n        ITreasuryCore treasuryCoreContract = ITreasuryCore(\n            TREASURY_CORE_CONTRACT_ADDRESS\n        );\n\n        uint256 tokenBal = treasuryCoreContract.balanceOfAt(\n            msg.sender,\n            tokenData.snapshotId,\n            tokenData.tokenId\n        );\n\n        if (tokenBal == 0) {\n            return 0;\n        }\n\n        uint256 rewardAmt = (tokenData.rewardPerTokenWei * tokenBal) / 1 ether;\n\n        if (rewardAmt > 0) {\n            treasuryCoreContract.safeTransferFrom(\n                address(this),\n                msg.sender,\n                tokenData.rewardTokenId,\n                rewardAmt,\n                \"INVALID: ROYALTY_ALREADY_CLAIMED\"\n            );\n        }\n\n        return rewardAmt;\n    }\n\n    function createToken(\n        NewVersionTokenStruct memory tokenData,\n        uint256 newRecordId,\n        uint256 decidingTokenId,\n        uint256 versionReqId,\n        bool isGovernanceToken,\n        address requester\n    ) internal {\n        ITreasury treasuryContract = ITreasury(TREASURY_CONTRACT_ADDRESS);\n\n        uint256 tokenId = decidingTokenId;\n        uint256 totalSupply = treasuryContract.totalCirculatingSupply(tokenId);\n\n        uint256 newTokenId;\n        if (isGovernanceToken) {\n            newTokenId = createGovernanceToken(\n                tokenData,\n                newRecordId,\n                requester\n            );\n        } else {\n            newTokenId = createCommunityToken(\n                tokenData,\n                newRecordId,\n                requester\n            );\n        }\n\n        NewVersionTokenDistributionStruct\n            memory newVersionToken = NewVersionTokenDistributionStruct({\n                totalSupplyEther: totalSupply / 1 ether,\n                rewardAmountWei: tokenData.oldContributorShare,\n                versionRequestId: versionReqId,\n                tokenId: tokenId,\n                rewardTokenId: newTokenId,\n                rewardPerTokenWei: tokenData.oldContributorShare /\n                    (totalSupply / 1 ether),\n                snapshotId: treasuryContract.snapshot()\n            });\n\n        /* require(\n            newVersionToken.rewardPerTokenWei > 0,\n            \"INSUFFICIENT_AMOUNT: TOKEN_SHARE_PER_USER_IS_LOW\"\n        ); */\n\n        emit NewVersionTokenDistribution({\n            versionRequestId: versionReqId,\n            totalSupplyEther: newVersionToken.totalSupplyEther,\n            rewardAmountWei: newVersionToken.rewardAmountWei,\n            tokenId: newVersionToken.tokenId,\n            rewardTokenId: newTokenId,\n            rewardPerTokenWei: newVersionToken.rewardPerTokenWei,\n            snapshotId: newVersionToken.snapshotId\n        });\n\n        if (isGovernanceToken) {\n            newVersionGovTokenDistributionMapping[\n                versionReqId\n            ] = newVersionToken;\n        } else {\n            newVersionCommTokenDistributionMapping[\n                versionReqId\n            ] = newVersionToken;\n        }\n    }\n\n    function createGovernanceToken(\n        NewVersionTokenStruct memory tokenData,\n        uint256 recordId,\n        address owner\n    ) internal returns (uint256) {\n        ITreasury treasuryContract = ITreasury(TREASURY_CONTRACT_ADDRESS);\n\n        return\n            treasuryContract.createNewGovernanceTokenNewRecordVersion(\n                recordId,\n                tokenData.totalSupply,\n                tokenData.userBalance,\n                tokenData.symbol,\n                tokenData.image,\n                tokenData.oldContributorShare,\n                owner\n            );\n    }\n\n    function createCommunityToken(\n        NewVersionTokenStruct memory tokenData,\n        uint256 recordId,\n        address owner\n    ) internal returns (uint256) {\n        ITreasury treasuryContract = ITreasury(TREASURY_CONTRACT_ADDRESS);\n\n        return\n            treasuryContract.createNewCommunityTokenNewRecordVersion(\n                recordId,\n                tokenData.totalSupply,\n                tokenData.userBalance,\n                tokenData.symbol,\n                tokenData.image,\n                tokenData.oldContributorShare,\n                owner\n            );\n    }\n\n    function onERC1155Received(\n        address operator,\n        address from,\n        uint256 id,\n        uint256 value,\n        bytes calldata data\n    ) external virtual override returns (bytes4) {\n        return\n            bytes4(\n                keccak256(\n                    \"onERC1155Received(address,address,uint256,uint256,bytes)\"\n                )\n            );\n    }\n\n    function onERC1155BatchReceived(\n        address operator,\n        address from,\n        uint256[] calldata ids,\n        uint256[] calldata values,\n        bytes calldata data\n    ) external virtual override returns (bytes4) {\n        return\n            bytes4(\n                keccak256(\n                    \"onERC1155BatchReceived(address,address,uint256[],uint256[],bytes)\"\n                )\n            );\n    }\n\n    function supportsInterface(\n        bytes4 interfaceId\n    ) public view virtual override returns (bool) {}\n}\n",
  "sourcePath": "/Users/a1/Desktop/Office/projects/CrowdRecords/Contracts/contracts/RecordsVotingContract.sol",
  "compiler": {
    "name": "solc",
    "version": "0.8.12+commit.f00d7308.Emscripten.clang"
  },
  "schemaVersion": "3.4.6",
  "updatedAt": "2023-04-12T13:12:54.907Z",
  "devdoc": {
    "events": {
      "NewVersionRequestResult(uint256,uint256,uint256,bool,bool,uint256)": {
        "details": "this event is generated when result of a ballot is declared",
        "params": {
          "ballotId": "this is the ballot Id for which result is declared",
          "minTurnOut": "this status indicates if minimum amount of user showed up for voting",
          "newRecordId": "this is the new record Id",
          "result": "this is the status of the result",
          "tokenId": "This is the id of the token that is linked to this ballot",
          "versionReqId": "This is the id of newVersionRequest"
        }
      },
      "NewVersionVoting(address,uint256,uint256,bool)": {
        "details": "This is when a vote is given by user.",
        "params": {
          "ballotId": "Id of the ballot where voting is stored",
          "versionRequestId": "This is the id of the recordVersionRequest structure that is linked to this ballot",
          "vote": "State of vote : true for yes and false for No",
          "voter": "Address of the voter"
        }
      },
      "NewVersionVotingBallotCreated(address,uint256,uint256,uint256)": {
        "details": "This is emitted when a voting ballot is created",
        "params": {
          "ballotId": "Id of the ballot where voting is stored",
          "createdAt": "time when the ballot was created",
          "requester": "Address of the requester",
          "versionRequestId": "This is the id of the recordVersionRequest structure that is linked to this ballot"
        }
      },
      "VersionRequest(uint256,(string,string,uint256,uint256,address,string,uint256,bool),(uint256,uint256,uint256,string,string),(uint256,uint256,uint256,string,string),uint256[],address,uint256,uint256,uint256)": {
        "details": "This event is generated when New Record Version is created",
        "params": {
          "ballotId": "Id of the voting ballot",
          "communityToken": "New token data for community token",
          "governanceToken": "New token data for governance token",
          "oldVersionId": "Record id of old version",
          "recordData": "Data for the new record",
          "requestId": "This is the id of the new record version request",
          "requester": "Owner of the request",
          "tokenId": "id of the token which will be used for voting"
        }
      }
    },
    "kind": "dev",
    "methods": {
      "_handleUserTokenTransfers(address,uint256,uint256,uint256)": {
        "details": "This function will be called when either user is transferring the tokens to other account, or is receiving tokens from other tokens.",
        "params": {
          "newBalance": "this is the new balance of the user that is after the transfer",
          "previousBalance": "this is the old balance of the user",
          "user": "address of the user whose balance is being changed"
        }
      },
      "castVote(uint256,bool)": {
        "details": "This function is called by any user to cast vote",
        "params": {
          "versionReqId": "this is the id of the new version request for which user is voting",
          "vote": "this is the state of the vote, if true than it means the vote is in favour of the ballot"
        }
      },
      "claimNewRecordTokens(uint256)": {
        "details": "This function is for distributing of the tokens of new record version",
        "params": {
          "versionReqId": "This is the version Request Id for which token needs to be claimed"
        }
      },
      "createNewRecordVersion((string,string,string,uint256,uint256[],(uint256,uint256,uint256,string,string),(uint256,uint256,uint256,string,string)))": {
        "details": "This function will create new record version from existing record",
        "params": {
          "params": "required data for creation of new record version"
        }
      },
      "declareWinner(uint256)": {
        "details": "This function can be called from external source and also from within the contract",
        "params": {
          "versionReqId": "this is the id of the new version request to which the winner is to be declared"
        }
      },
      "initialize(address,address)": {
        "details": "This function sets the treasury Contract address and the governance address",
        "params": {
          "newGovernanceContractAddress": "This is the address for the governance contract",
          "newTreasuryContractAddress": "This is the new address of treasury contract"
        }
      },
      "initialize(address,address,address,address)": {
        "details": "This is to set the address of the contracts",
        "params": {
          "newGovernanceContractAddress": "This is the address for the governance contract",
          "recordsContractAddress": "New records contract address",
          "treasuryContractAddress": "Takes the address of new treasury contract as parameter",
          "treasuryCoreContractAddress": "Takes the address of new treasury core contract as parameter"
        }
      },
      "onERC1155BatchReceived(address,address,uint256[],uint256[],bytes)": {
        "details": "Handles the receipt of a multiple ERC1155 token types. This function is called at the end of a `safeBatchTransferFrom` after the balances have been updated. NOTE: To accept the transfer(s), this must return `bytes4(keccak256(\"onERC1155BatchReceived(address,address,uint256[],uint256[],bytes)\"))` (i.e. 0xbc197c81, or its own function selector).",
        "params": {
          "data": "Additional data with no specified format",
          "from": "The address which previously owned the token",
          "ids": "An array containing ids of each token being transferred (order and length must match values array)",
          "operator": "The address which initiated the batch transfer (i.e. msg.sender)",
          "values": "An array containing amounts of each token being transferred (order and length must match ids array)"
        },
        "returns": {
          "_0": "`bytes4(keccak256(\"onERC1155BatchReceived(address,address,uint256[],uint256[],bytes)\"))` if transfer is allowed"
        }
      },
      "onERC1155Received(address,address,uint256,uint256,bytes)": {
        "details": "Handles the receipt of a single ERC1155 token type. This function is called at the end of a `safeTransferFrom` after the balance has been updated. NOTE: To accept the transfer, this must return `bytes4(keccak256(\"onERC1155Received(address,address,uint256,uint256,bytes)\"))` (i.e. 0xf23a6e61, or its own function selector).",
        "params": {
          "data": "Additional data with no specified format",
          "from": "The address which previously owned the token",
          "id": "The ID of the token being transferred",
          "operator": "The address which initiated the transfer (i.e. msg.sender)",
          "value": "The amount of tokens being transferred"
        },
        "returns": {
          "_0": "`bytes4(keccak256(\"onERC1155Received(address,address,uint256,uint256,bytes)\"))` if transfer is allowed"
        }
      },
      "setDepositAmount(uint256)": {
        "details": "This function sets the VOTING_DEPOSIT percentage",
        "params": {
          "depositAmount": "This is the new deposit amount needed for creating ballot"
        }
      },
      "setMinTurnOut(uint256)": {
        "details": "This function sets the MIN_TURN_OUT percentage",
        "params": {
          "minTurnOut": "This is the new turnout percentage value"
        }
      },
      "setOwnerAddress(address)": {
        "details": "This function sets the owner address",
        "params": {
          "ownerAddress": "This is the address of the owner"
        }
      },
      "setVotingPeriod(uint256)": {
        "details": "This function sets the VOTING_BLOCK_PERIOD percentage",
        "params": {
          "votingPeriod": "This is the voting period"
        }
      },
      "supportsInterface(bytes4)": {
        "details": "Returns true if this contract implements the interface defined by `interfaceId`. See the corresponding https://eips.ethereum.org/EIPS/eip-165#how-interfaces-are-identified[EIP section] to learn more about how these ids are created. This function call must use less than 30 000 gas."
      }
    },
    "version": 1
  },
  "userdoc": {
    "kind": "user",
    "methods": {},
    "version": 1
  }
}