{
  "contractName": "RecordsContract",
  "abi": [
    {
      "inputs": [
        {
          "internalType": "address",
          "name": "owner",
          "type": "address"
        }
      ],
      "stateMutability": "nonpayable",
      "type": "constructor"
    },
    {
      "anonymous": false,
      "inputs": [
        {
          "indexed": false,
          "internalType": "uint8",
          "name": "version",
          "type": "uint8"
        }
      ],
      "name": "Initialized",
      "type": "event"
    },
    {
      "anonymous": false,
      "inputs": [
        {
          "indexed": false,
          "internalType": "uint256",
          "name": "recordId",
          "type": "uint256"
        },
        {
          "indexed": false,
          "internalType": "string",
          "name": "name",
          "type": "string"
        },
        {
          "indexed": false,
          "internalType": "string",
          "name": "image",
          "type": "string"
        },
        {
          "indexed": false,
          "internalType": "uint256",
          "name": "seedId",
          "type": "uint256"
        },
        {
          "indexed": false,
          "internalType": "uint256",
          "name": "parentId",
          "type": "uint256"
        },
        {
          "indexed": false,
          "internalType": "string",
          "name": "recordCategory",
          "type": "string"
        },
        {
          "indexed": false,
          "internalType": "uint256",
          "name": "creationDate",
          "type": "uint256"
        }
      ],
      "name": "RecordCreated",
      "type": "event"
    },
    {
      "inputs": [],
      "name": "CONTRIBUTION_CONTRACT_ADDRESS",
      "outputs": [
        {
          "internalType": "address",
          "name": "",
          "type": "address"
        }
      ],
      "stateMutability": "view",
      "type": "function"
    },
    {
      "inputs": [],
      "name": "OWNER",
      "outputs": [
        {
          "internalType": "address",
          "name": "",
          "type": "address"
        }
      ],
      "stateMutability": "view",
      "type": "function"
    },
    {
      "inputs": [],
      "name": "RECORDS_VOTING_CONTRACT_ADDRESS",
      "outputs": [
        {
          "internalType": "address",
          "name": "",
          "type": "address"
        }
      ],
      "stateMutability": "view",
      "type": "function"
    },
    {
      "inputs": [
        {
          "internalType": "uint256",
          "name": "",
          "type": "uint256"
        },
        {
          "internalType": "uint256",
          "name": "",
          "type": "uint256"
        }
      ],
      "name": "recordContributions",
      "outputs": [
        {
          "internalType": "uint256",
          "name": "",
          "type": "uint256"
        }
      ],
      "stateMutability": "view",
      "type": "function"
    },
    {
      "inputs": [
        {
          "internalType": "uint256",
          "name": "",
          "type": "uint256"
        }
      ],
      "name": "recordData",
      "outputs": [
        {
          "internalType": "string",
          "name": "name",
          "type": "string"
        },
        {
          "internalType": "string",
          "name": "image",
          "type": "string"
        },
        {
          "internalType": "uint256",
          "name": "seedId",
          "type": "uint256"
        },
        {
          "internalType": "uint256",
          "name": "parentId",
          "type": "uint256"
        },
        {
          "internalType": "address",
          "name": "owner",
          "type": "address"
        },
        {
          "internalType": "string",
          "name": "recordCategory",
          "type": "string"
        },
        {
          "internalType": "uint256",
          "name": "creationDate",
          "type": "uint256"
        },
        {
          "internalType": "bool",
          "name": "isPresent",
          "type": "bool"
        }
      ],
      "stateMutability": "view",
      "type": "function"
    },
    {
      "inputs": [
        {
          "internalType": "uint256",
          "name": "",
          "type": "uint256"
        },
        {
          "internalType": "uint256",
          "name": "",
          "type": "uint256"
        }
      ],
      "name": "recordVersion",
      "outputs": [
        {
          "internalType": "uint256",
          "name": "",
          "type": "uint256"
        }
      ],
      "stateMutability": "view",
      "type": "function"
    },
    {
      "inputs": [
        {
          "internalType": "uint256",
          "name": "",
          "type": "uint256"
        }
      ],
      "name": "seedIdUsed",
      "outputs": [
        {
          "internalType": "bool",
          "name": "",
          "type": "bool"
        }
      ],
      "stateMutability": "view",
      "type": "function"
    },
    {
      "inputs": [
        {
          "internalType": "address",
          "name": "contributionContractAddress",
          "type": "address"
        },
        {
          "internalType": "address",
          "name": "recordsVotingContract",
          "type": "address"
        }
      ],
      "name": "initialize",
      "outputs": [],
      "stateMutability": "nonpayable",
      "type": "function"
    },
    {
      "inputs": [
        {
          "internalType": "string",
          "name": "name",
          "type": "string"
        },
        {
          "internalType": "string",
          "name": "image",
          "type": "string"
        },
        {
          "internalType": "string",
          "name": "recordCategory",
          "type": "string"
        },
        {
          "internalType": "uint256",
          "name": "seedId",
          "type": "uint256"
        }
      ],
      "name": "createNewRecord",
      "outputs": [
        {
          "internalType": "uint256",
          "name": "recordId",
          "type": "uint256"
        }
      ],
      "stateMutability": "nonpayable",
      "type": "function"
    },
    {
      "inputs": [
        {
          "internalType": "uint256",
          "name": "recordId",
          "type": "uint256"
        },
        {
          "internalType": "uint256",
          "name": "contributionId",
          "type": "uint256"
        }
      ],
      "name": "pushContributionIdToContributionList",
      "outputs": [],
      "stateMutability": "nonpayable",
      "type": "function"
    },
    {
      "inputs": [
        {
          "internalType": "uint256",
          "name": "recordId",
          "type": "uint256"
        }
      ],
      "name": "ownerOf",
      "outputs": [
        {
          "internalType": "address",
          "name": "",
          "type": "address"
        }
      ],
      "stateMutability": "nonpayable",
      "type": "function"
    },
    {
      "inputs": [
        {
          "internalType": "uint256",
          "name": "oldRecordId",
          "type": "uint256"
        },
        {
          "internalType": "string",
          "name": "name",
          "type": "string"
        },
        {
          "internalType": "string",
          "name": "image",
          "type": "string"
        },
        {
          "internalType": "string",
          "name": "recordCategory",
          "type": "string"
        },
        {
          "internalType": "address",
          "name": "caller",
          "type": "address"
        },
        {
          "internalType": "uint256",
          "name": "ballotId",
          "type": "uint256"
        }
      ],
      "name": "createNewRecordVersion",
      "outputs": [
        {
          "components": [
            {
              "internalType": "string",
              "name": "name",
              "type": "string"
            },
            {
              "internalType": "string",
              "name": "image",
              "type": "string"
            },
            {
              "internalType": "uint256",
              "name": "seedId",
              "type": "uint256"
            },
            {
              "internalType": "uint256",
              "name": "parentId",
              "type": "uint256"
            },
            {
              "internalType": "address",
              "name": "owner",
              "type": "address"
            },
            {
              "internalType": "string",
              "name": "recordCategory",
              "type": "string"
            },
            {
              "internalType": "uint256",
              "name": "creationDate",
              "type": "uint256"
            },
            {
              "internalType": "bool",
              "name": "isPresent",
              "type": "bool"
            }
          ],
          "internalType": "struct RecordsContract.RecordStruct",
          "name": "",
          "type": "tuple"
        }
      ],
      "stateMutability": "nonpayable",
      "type": "function"
    },
    {
      "inputs": [
        {
          "components": [
            {
              "internalType": "string",
              "name": "name",
              "type": "string"
            },
            {
              "internalType": "string",
              "name": "image",
              "type": "string"
            },
            {
              "internalType": "uint256",
              "name": "seedId",
              "type": "uint256"
            },
            {
              "internalType": "uint256",
              "name": "parentId",
              "type": "uint256"
            },
            {
              "internalType": "address",
              "name": "owner",
              "type": "address"
            },
            {
              "internalType": "string",
              "name": "recordCategory",
              "type": "string"
            },
            {
              "internalType": "uint256",
              "name": "creationDate",
              "type": "uint256"
            },
            {
              "internalType": "bool",
              "name": "isPresent",
              "type": "bool"
            }
          ],
          "internalType": "struct RecordsContract.RecordStruct",
          "name": "newRecordData",
          "type": "tuple"
        },
        {
          "internalType": "uint256[]",
          "name": "contributionIds",
          "type": "uint256[]"
        }
      ],
      "name": "createRecordFromData",
      "outputs": [
        {
          "internalType": "uint256",
          "name": "",
          "type": "uint256"
        }
      ],
      "stateMutability": "nonpayable",
      "type": "function"
    }
  ],
  "bytecode": "0x6080604052600060015560006002553480156200001b57600080fd5b506040516200285d3803806200285d8339818101604052810190620000419190620000f3565b80600960006101000a81548173ffffffffffffffffffffffffffffffffffffffff021916908373ffffffffffffffffffffffffffffffffffffffff1602179055505062000125565b600080fd5b600073ffffffffffffffffffffffffffffffffffffffff82169050919050565b6000620000bb826200008e565b9050919050565b620000cd81620000ae565b8114620000d957600080fd5b50565b600081519050620000ed81620000c2565b92915050565b6000602082840312156200010c576200010b62000089565b5b60006200011c84828501620000dc565b91505092915050565b61272880620001356000396000f3fe608060405234801561001057600080fd5b50600436106100cf5760003560e01c8063acf6beb61161008c578063c10df2cf11610066578063c10df2cf1461024c578063c1befa6a14610268578063cd58b8d614610298578063d85d92be146102cf576100cf565b8063acf6beb6146101bc578063b512341e146101ec578063bb6c5fb31461021c576100cf565b806307c505b7146100d4578063117803e3146100f2578063485cc955146101105780634b02f22d1461012c5780636352211e1461015c5780639505809f1461018c575b600080fd5b6100dc6102ed565b6040516100e991906114b3565b60405180910390f35b6100fa610313565b60405161010791906114b3565b60405180910390f35b61012a6004803603810190610125919061150e565b610339565b005b610146600480360381019061014191906118f2565b610583565b6040516101539190611979565b60405180910390f35b61017660048036038101906101719190611994565b610830565b60405161018391906114b3565b60405180910390f35b6101a660048036038101906101a191906119c1565b610870565b6040516101b39190611979565b60405180910390f35b6101d660048036038101906101d19190611994565b6108a1565b6040516101e39190611a10565b60405180910390f35b610206600480360381019061020191906119c1565b6108c1565b6040516102139190611979565b60405180910390f35b61023660048036038101906102319190611a2b565b6108f2565b6040516102439190611979565b60405180910390f35b610266600480360381019061026191906119c1565b610c97565b005b610282600480360381019061027d9190611ae6565b610d65565b60405161028f9190611d3a565b60405180910390f35b6102b260048036038101906102ad9190611994565b6110cf565b6040516102c6989796959493929190611da6565b60405180910390f35b6102d76112dc565b6040516102e491906114b3565b60405180910390f35b600760009054906101000a900473ffffffffffffffffffffffffffffffffffffffff1681565b600960009054906101000a900473ffffffffffffffffffffffffffffffffffffffff1681565b60008060019054906101000a900460ff1615905080801561036a5750600160008054906101000a900460ff1660ff16105b80610397575061037930611302565b1580156103965750600160008054906101000a900460ff1660ff16145b5b6103d6576040517f08c379a00000000000000000000000000000000000000000000000000000000081526004016103cd90611eab565b60405180910390fd5b60016000806101000a81548160ff021916908360ff1602179055508015610413576001600060016101000a81548160ff0219169083151502179055505b600960009054906101000a900473ffffffffffffffffffffffffffffffffffffffff1673ffffffffffffffffffffffffffffffffffffffff163373ffffffffffffffffffffffffffffffffffffffff16146104a3576040517f08c379a000000000000000000000000000000000000000000000000000000000815260040161049a90611f17565b60405180910390fd5b82600760006101000a81548173ffffffffffffffffffffffffffffffffffffffff021916908373ffffffffffffffffffffffffffffffffffffffff16021790555081600860006101000a81548173ffffffffffffffffffffffffffffffffffffffff021916908373ffffffffffffffffffffffffffffffffffffffff160217905550801561057e5760008060016101000a81548160ff0219169083151502179055507f7f26b83ff96e1f2b6a682f133852f6798a09c465da95921460cefb384740249860016040516105759190611f89565b60405180910390a15b505050565b6000600860009054906101000a900473ffffffffffffffffffffffffffffffffffffffff1673ffffffffffffffffffffffffffffffffffffffff163373ffffffffffffffffffffffffffffffffffffffff1614610615576040517f08c379a000000000000000000000000000000000000000000000000000000000815260040161060c90612016565b60405180910390fd5b6001600081548092919061062890612065565b91905055506000600154905083600360008381526020019081526020016000206000820151816000019080519060200190610664929190611325565b506020820151816001019080519060200190610681929190611325565b50604082015181600201556060820151816003015560808201518160040160006101000a81548173ffffffffffffffffffffffffffffffffffffffff021916908373ffffffffffffffffffffffffffffffffffffffff16021790555060a08201518160050190805190602001906106f9929190611325565b5060c0820151816006015560e08201518160070160006101000a81548160ff0219169083151502179055509050508260066000838152602001908152602001600020908051906020019061074e9291906113ab565b50600660008281526020019081526020016000208460400151908060018154018082558091505060019003906000526020600020016000909190919091505560056000856060015181526020019081526020016000208190806001815401808255809150506001900390600052602060002001600090919091909150557f54759de35da3706adafb7ba0eea0b307160fc4576df0cddc11dd4b2ce11545588185600001518660200151876040015188606001518960a001518a60c0015160405161081e97969594939291906120ae565b60405180910390a18091505092915050565b60006003600083815260200190815260200160002060040160009054906101000a900473ffffffffffffffffffffffffffffffffffffffff169050919050565b6005602052816000526040600020818154811061088c57600080fd5b90600052602060002001600091509150505481565b60046020528060005260406000206000915054906101000a900460ff1681565b600660205281600052604060002081815481106108dd57600080fd5b90600052602060002001600091509150505481565b60006001600081548092919061090790612065565b919050555060006001549050600015156004600085815260200190815260200160002060009054906101000a900460ff1615151461097a576040517f08c379a00000000000000000000000000000000000000000000000000000000081526004016109719061217e565b60405180910390fd5b6000600760009054906101000a900473ffffffffffffffffffffffffffffffffffffffff16905060008173ffffffffffffffffffffffffffffffffffffffff166323374b9d866040518263ffffffff1660e01b81526004016109dc9190611979565b600060405180830381865afa1580156109f9573d6000803e3d6000fd5b505050506040513d6000823e3d601f19601f82011682018060405250810190610a22919061241f565b905060011515816101000151151514610a70576040517f08c379a0000000000000000000000000000000000000000000000000000000008152600401610a67906124b4565b60405180910390fd5b600115158160800151151514610abb576040517f08c379a0000000000000000000000000000000000000000000000000000000008152600401610ab290612520565b60405180910390fd5b60006040518061010001604052808a8152602001898152602001878152602001600081526020013373ffffffffffffffffffffffffffffffffffffffff16815260200188815260200142815260200160011515815250905080600360008681526020019081526020016000206000820151816000019080519060200190610b43929190611325565b506020820151816001019080519060200190610b60929190611325565b50604082015181600201556060820151816003015560808201518160040160006101000a81548173ffffffffffffffffffffffffffffffffffffffff021916908373ffffffffffffffffffffffffffffffffffffffff16021790555060a0820151816005019080519060200190610bd8929190611325565b5060c0820151816006015560e08201518160070160006101000a81548160ff021916908315150217905550905050600660008581526020019081526020016000208690806001815401808255809150506001900390600052602060002001600090919091909150557f54759de35da3706adafb7ba0eea0b307160fc4576df0cddc11dd4b2ce1154558848a8a8960008c8760c00151604051610c80979695949392919061257b565b60405180910390a183945050505050949350505050565b600760009054906101000a900473ffffffffffffffffffffffffffffffffffffffff1673ffffffffffffffffffffffffffffffffffffffff163373ffffffffffffffffffffffffffffffffffffffff1614610d27576040517f08c379a0000000000000000000000000000000000000000000000000000000008152600401610d1e90612671565b60405180910390fd5b600660008381526020019081526020016000208190806001815401808255809150506001900390600052602060002001600090919091909150555050565b610d6d6113f8565b600860009054906101000a900473ffffffffffffffffffffffffffffffffffffffff1673ffffffffffffffffffffffffffffffffffffffff163373ffffffffffffffffffffffffffffffffffffffff1614610dfd576040517f08c379a0000000000000000000000000000000000000000000000000000000008152600401610df490612016565b60405180910390fd5b60006003600089815260200190815260200160002060405180610100016040529081600082018054610e2e906126c0565b80601f0160208091040260200160405190810160405280929190818152602001828054610e5a906126c0565b8015610ea75780601f10610e7c57610100808354040283529160200191610ea7565b820191906000526020600020905b815481529060010190602001808311610e8a57829003601f168201915b50505050508152602001600182018054610ec0906126c0565b80601f0160208091040260200160405190810160405280929190818152602001828054610eec906126c0565b8015610f395780601f10610f0e57610100808354040283529160200191610f39565b820191906000526020600020905b815481529060010190602001808311610f1c57829003601f168201915b5050505050815260200160028201548152602001600382015481526020016004820160009054906101000a900473ffffffffffffffffffffffffffffffffffffffff1673ffffffffffffffffffffffffffffffffffffffff1673ffffffffffffffffffffffffffffffffffffffff168152602001600582018054610fbc906126c0565b80601f0160208091040260200160405190810160405280929190818152602001828054610fe8906126c0565b80156110355780601f1061100a57610100808354040283529160200191611035565b820191906000526020600020905b81548152906001019060200180831161101857829003601f168201915b50505050508152602001600682015481526020016007820160009054906101000a900460ff16151515158152505090506000604051806101000160405280898152602001888152602001836040015181526020018a81526020018673ffffffffffffffffffffffffffffffffffffffff16815260200187815260200142815260200160011515815250905080925050509695505050505050565b60036020528060005260406000206000915090508060000180546110f2906126c0565b80601f016020809104026020016040519081016040528092919081815260200182805461111e906126c0565b801561116b5780601f106111405761010080835404028352916020019161116b565b820191906000526020600020905b81548152906001019060200180831161114e57829003601f168201915b505050505090806001018054611180906126c0565b80601f01602080910402602001604051908101604052809291908181526020018280546111ac906126c0565b80156111f95780601f106111ce576101008083540402835291602001916111f9565b820191906000526020600020905b8154815290600101906020018083116111dc57829003601f168201915b5050505050908060020154908060030154908060040160009054906101000a900473ffffffffffffffffffffffffffffffffffffffff1690806005018054611240906126c0565b80601f016020809104026020016040519081016040528092919081815260200182805461126c906126c0565b80156112b95780601f1061128e576101008083540402835291602001916112b9565b820191906000526020600020905b81548152906001019060200180831161129c57829003601f168201915b5050505050908060060154908060070160009054906101000a900460ff16905088565b600860009054906101000a900473ffffffffffffffffffffffffffffffffffffffff1681565b6000808273ffffffffffffffffffffffffffffffffffffffff163b119050919050565b828054611331906126c0565b90600052602060002090601f016020900481019282611353576000855561139a565b82601f1061136c57805160ff191683800117855561139a565b8280016001018555821561139a579182015b8281111561139957825182559160200191906001019061137e565b5b5090506113a79190611455565b5090565b8280548282559060005260206000209081019282156113e7579160200282015b828111156113e65782518255916020019190600101906113cb565b5b5090506113f49190611455565b5090565b60405180610100016040528060608152602001606081526020016000815260200160008152602001600073ffffffffffffffffffffffffffffffffffffffff16815260200160608152602001600081526020016000151581525090565b5b8082111561146e576000816000905550600101611456565b5090565b600073ffffffffffffffffffffffffffffffffffffffff82169050919050565b600061149d82611472565b9050919050565b6114ad81611492565b82525050565b60006020820190506114c860008301846114a4565b92915050565b6000604051905090565b600080fd5b600080fd5b6114eb81611492565b81146114f657600080fd5b50565b600081359050611508816114e2565b92915050565b60008060408385031215611525576115246114d8565b5b6000611533858286016114f9565b9250506020611544858286016114f9565b9150509250929050565b600080fd5b6000601f19601f8301169050919050565b7f4e487b7100000000000000000000000000000000000000000000000000000000600052604160045260246000fd5b61159c82611553565b810181811067ffffffffffffffff821117156115bb576115ba611564565b5b80604052505050565b60006115ce6114ce565b90506115da8282611593565b919050565b600080fd5b600080fd5b600080fd5b600067ffffffffffffffff82111561160957611608611564565b5b61161282611553565b9050602081019050919050565b82818337600083830152505050565b600061164161163c846115ee565b6115c4565b90508281526020810184848401111561165d5761165c6115e9565b5b61166884828561161f565b509392505050565b600082601f830112611685576116846115e4565b5b813561169584826020860161162e565b91505092915050565b6000819050919050565b6116b18161169e565b81146116bc57600080fd5b50565b6000813590506116ce816116a8565b92915050565b60008115159050919050565b6116e9816116d4565b81146116f457600080fd5b50565b600081359050611706816116e0565b92915050565b600061010082840312156117235761172261154e565b5b61172e6101006115c4565b9050600082013567ffffffffffffffff81111561174e5761174d6115df565b5b61175a84828501611670565b600083015250602082013567ffffffffffffffff81111561177e5761177d6115df565b5b61178a84828501611670565b602083015250604061179e848285016116bf565b60408301525060606117b2848285016116bf565b60608301525060806117c6848285016114f9565b60808301525060a082013567ffffffffffffffff8111156117ea576117e96115df565b5b6117f684828501611670565b60a08301525060c061180a848285016116bf565b60c08301525060e061181e848285016116f7565b60e08301525092915050565b600067ffffffffffffffff82111561184557611844611564565b5b602082029050602081019050919050565b600080fd5b600061186e6118698461182a565b6115c4565b9050808382526020820190506020840283018581111561189157611890611856565b5b835b818110156118ba57806118a688826116bf565b845260208401935050602081019050611893565b5050509392505050565b600082601f8301126118d9576118d86115e4565b5b81356118e984826020860161185b565b91505092915050565b60008060408385031215611909576119086114d8565b5b600083013567ffffffffffffffff811115611927576119266114dd565b5b6119338582860161170c565b925050602083013567ffffffffffffffff811115611954576119536114dd565b5b611960858286016118c4565b9150509250929050565b6119738161169e565b82525050565b600060208201905061198e600083018461196a565b92915050565b6000602082840312156119aa576119a96114d8565b5b60006119b8848285016116bf565b91505092915050565b600080604083850312156119d8576119d76114d8565b5b60006119e6858286016116bf565b92505060206119f7858286016116bf565b9150509250929050565b611a0a816116d4565b82525050565b6000602082019050611a256000830184611a01565b92915050565b60008060008060808587031215611a4557611a446114d8565b5b600085013567ffffffffffffffff811115611a6357611a626114dd565b5b611a6f87828801611670565b945050602085013567ffffffffffffffff811115611a9057611a8f6114dd565b5b611a9c87828801611670565b935050604085013567ffffffffffffffff811115611abd57611abc6114dd565b5b611ac987828801611670565b9250506060611ada878288016116bf565b91505092959194509250565b60008060008060008060c08789031215611b0357611b026114d8565b5b6000611b1189828a016116bf565b965050602087013567ffffffffffffffff811115611b3257611b316114dd565b5b611b3e89828a01611670565b955050604087013567ffffffffffffffff811115611b5f57611b5e6114dd565b5b611b6b89828a01611670565b945050606087013567ffffffffffffffff811115611b8c57611b8b6114dd565b5b611b9889828a01611670565b9350506080611ba989828a016114f9565b92505060a0611bba89828a016116bf565b9150509295509295509295565b600081519050919050565b600082825260208201905092915050565b60005b83811015611c01578082015181840152602081019050611be6565b83811115611c10576000848401525b50505050565b6000611c2182611bc7565b611c2b8185611bd2565b9350611c3b818560208601611be3565b611c4481611553565b840191505092915050565b611c588161169e565b82525050565b611c6781611492565b82525050565b611c76816116d4565b82525050565b6000610100830160008301518482036000860152611c9a8282611c16565b91505060208301518482036020860152611cb48282611c16565b9150506040830151611cc96040860182611c4f565b506060830151611cdc6060860182611c4f565b506080830151611cef6080860182611c5e565b5060a083015184820360a0860152611d078282611c16565b91505060c0830151611d1c60c0860182611c4f565b5060e0830151611d2f60e0860182611c6d565b508091505092915050565b60006020820190508181036000830152611d548184611c7c565b905092915050565b600082825260208201905092915050565b6000611d7882611bc7565b611d828185611d5c565b9350611d92818560208601611be3565b611d9b81611553565b840191505092915050565b6000610100820190508181036000830152611dc1818b611d6d565b90508181036020830152611dd5818a611d6d565b9050611de4604083018961196a565b611df1606083018861196a565b611dfe60808301876114a4565b81810360a0830152611e108186611d6d565b9050611e1f60c083018561196a565b611e2c60e0830184611a01565b9998505050505050505050565b7f496e697469616c697a61626c653a20636f6e747261637420697320616c72656160008201527f647920696e697469616c697a6564000000000000000000000000000000000000602082015250565b6000611e95602e83611d5c565b9150611ea082611e39565b604082019050919050565b60006020820190508181036000830152611ec481611e88565b9050919050565b7f554e415554484f52495a45443a204f4e4c595f4f574e45520000000000000000600082015250565b6000611f01601883611d5c565b9150611f0c82611ecb565b602082019050919050565b60006020820190508181036000830152611f3081611ef4565b9050919050565b6000819050919050565b600060ff82169050919050565b6000819050919050565b6000611f73611f6e611f6984611f37565b611f4e565b611f41565b9050919050565b611f8381611f58565b82525050565b6000602082019050611f9e6000830184611f7a565b92915050565b7f554e415554484f52495a45443a204f4e4c595f5245434f5244535f564f54494e60008201527f475f434f4e54524143545f414444524553530000000000000000000000000000602082015250565b6000612000603283611d5c565b915061200b82611fa4565b604082019050919050565b6000602082019050818103600083015261202f81611ff3565b9050919050565b7f4e487b7100000000000000000000000000000000000000000000000000000000600052601160045260246000fd5b60006120708261169e565b91507fffffffffffffffffffffffffffffffffffffffffffffffffffffffffffffffff8214156120a3576120a2612036565b5b600182019050919050565b600060e0820190506120c3600083018a61196a565b81810360208301526120d58189611d6d565b905081810360408301526120e98188611d6d565b90506120f8606083018761196a565b612105608083018661196a565b81810360a08301526121178185611d6d565b905061212660c083018461196a565b98975050505050505050565b7f494e56414c49443a20534545445f414c52454144595f55534544000000000000600082015250565b6000612168601a83611d5c565b915061217382612132565b602082019050919050565b600060208201905081810360008301526121978161215b565b9050919050565b6000815190506121ad816116a8565b92915050565b60006121c66121c18461182a565b6115c4565b905080838252602082019050602084028301858111156121e9576121e8611856565b5b835b8181101561221257806121fe888261219e565b8452602084019350506020810190506121eb565b5050509392505050565b600082601f830112612231576122306115e4565b5b81516122418482602086016121b3565b91505092915050565b600061225d612258846115ee565b6115c4565b905082815260208101848484011115612279576122786115e9565b5b612284848285611be3565b509392505050565b600082601f8301126122a1576122a06115e4565b5b81516122b184826020860161224a565b91505092915050565b6000815190506122c9816116e0565b92915050565b600061012082840312156122e6576122e561154e565b5b6122f16101206115c4565b9050600082015167ffffffffffffffff811115612311576123106115df565b5b61231d8482850161221c565b60008301525060206123318482850161219e565b602083015250604082015167ffffffffffffffff811115612355576123546115df565b5b6123618482850161228c565b604083015250606082015167ffffffffffffffff811115612385576123846115df565b5b6123918482850161228c565b60608301525060806123a5848285016122ba565b60808301525060a06123b9848285016122ba565b60a08301525060c06123cd8482850161219e565b60c08301525060e082015167ffffffffffffffff8111156123f1576123f06115df565b5b6123fd8482850161228c565b60e083015250610100612412848285016122ba565b6101008301525092915050565b600060208284031215612435576124346114d8565b5b600082015167ffffffffffffffff811115612453576124526114dd565b5b61245f848285016122cf565b91505092915050565b7f494e56414c49443a20434f4e545249425554494f4e5f4e4f545f464f554e4400600082015250565b600061249e601f83611d5c565b91506124a982612468565b602082019050919050565b600060208201905081810360008301526124cd81612491565b9050919050565b7f494e56414c49443a204e4f545f534545445f434f4e545249425554494f4e0000600082015250565b600061250a601e83611d5c565b9150612515826124d4565b602082019050919050565b60006020820190508181036000830152612539816124fd565b9050919050565b6000819050919050565b600061256561256061255b84612540565b611f4e565b61169e565b9050919050565b6125758161254a565b82525050565b600060e082019050612590600083018a61196a565b81810360208301526125a28189611d6d565b905081810360408301526125b68188611d6d565b90506125c5606083018761196a565b6125d2608083018661256c565b81810360a08301526125e48185611d6d565b90506125f360c083018461196a565b98975050505050505050565b7f554e415554484f52495a45443a204f4e4c595f434f4e545249425554494f4e5f60008201527f434f4e5452414354000000000000000000000000000000000000000000000000602082015250565b600061265b602883611d5c565b9150612666826125ff565b604082019050919050565b6000602082019050818103600083015261268a8161264e565b9050919050565b7f4e487b7100000000000000000000000000000000000000000000000000000000600052602260045260246000fd5b600060028204905060018216806126d857607f821691505b602082108114156126ec576126eb612691565b5b5091905056fea2646970667358221220c160e4eaada28a8e235da3bca79d0a2679e61163411c24f8ee51b8f7ed1b77a864736f6c634300080c0033",
  "immutableReferences": {},
  "source": "pragma solidity ^0.8.0;\n\nimport \"@openzeppelin/contracts/token/ERC1155/extensions/ERC1155Supply.sol\";\nimport \"@openzeppelin/contracts/utils/Counters.sol\";\nimport \"@openzeppelin/contracts/access/Ownable.sol\";\nimport \"@openzeppelin/contracts/token/ERC1155/IERC1155Receiver.sol\";\nimport \"@openzeppelin/contracts-upgradeable/proxy/utils/Initializable.sol\";\nimport \"./interface/IContribution.sol\";\n\ncontract RecordsContract is Initializable {\n    uint256 newTokenId = 0;\n    uint256 newVersionRequestId = 0;\n\n    // This mapping contains data of record\n    mapping(uint256 => RecordStruct) public recordData;\n    // This mapping contains if seed data id is being used or not\n    // Same shouldn't be used to create 2 different records, unless the other record is a different\n    // version of existing record\n    mapping(uint256 => bool) public seedIdUsed;\n\n    //This is mapping that holds the listing of versions that are created from a original record\n    mapping(uint256 => uint256[]) public recordVersion;\n\n    // This mapping will hold the list of contributions that are linked to a specific record\n    mapping(uint256 => uint256[]) public recordContributions;\n\n    // Address of the contribution contracts\n    address public CONTRIBUTION_CONTRACT_ADDRESS;\n\n    // Address of the records voting contracts\n    address public RECORDS_VOTING_CONTRACT_ADDRESS;\n\n    // Address of the owner\n    address public OWNER;\n\n    /// @dev This struct holds the data for record token\n    /// @param name Name of the record\n    /// @param image This is the image of the record\n    /// @param seedId This is the seed contribution id\n    /// @param parentId This is the id of the parent record from which record is created\n    /// @param owner Address of the owner\n    /// @param recordCategory This is the record category\n    /// @param creationDate This is the creation date of the record\n    /// @param isPresent To check if a record os present or not\n    struct RecordStruct {\n        string name;\n        string image;\n        uint256 seedId;\n        uint256 parentId;\n        address owner;\n        string recordCategory;\n        uint256 creationDate;\n        bool isPresent;\n    }\n\n    /// @dev This is the token data for new version of record\n    /// @param totalSupply This is the total amount of tokens that will be created\n    /// @param oldContributorShare This is the amount of token that will be distributed among the previous record owners\n    /// @param userBalance Amount of tokens that user will keep to himself\n    /// @param symbol Symbol for the token\n    /// @param image Image for the token\n    struct NewVersionTokenStruct {\n        uint256 totalSupply;\n        uint256 oldContributorShare;\n        uint256 userBalance;\n        string symbol;\n        string image;\n    }\n\n    /// @dev This event is emited when new record is created\n    /// @param recordId This is the recordId\n    /// @param name Name of the record\n    /// @param image This is the image of the record\n    /// @param seedId This is the seed contribution id\n    /// @param parentId This is the id of the parent record from which record is created\n    /// @param recordCategory This is the record category\n    /// @param creationDate This is the creation date of the record\n    event RecordCreated(\n        uint256 recordId,\n        string name,\n        string image,\n        uint256 seedId,\n        uint256 parentId,\n        string recordCategory,\n        uint256 creationDate\n    );\n\n    constructor(address owner) {\n        OWNER = owner;\n    }\n\n    /// @dev Modifier to check that the function is only being called from the contribution contract\n    modifier onlyOwner() {\n        require(msg.sender == OWNER, \"UNAUTHORIZED: ONLY_OWNER\");\n        _;\n    }\n\n    /// @dev Modifier to check that the function is only being called from the contribution contract\n    modifier onlyContributionContract() {\n        require(\n            msg.sender == CONTRIBUTION_CONTRACT_ADDRESS,\n            \"UNAUTHORIZED: ONLY_CONTRIBUTION_CONTRACT\"\n        );\n        _;\n    }\n\n    /// @dev Modifier to check that the function is only being called from the contribution contract\n    modifier onlyRecordsVotingContract() {\n        require(\n            msg.sender == RECORDS_VOTING_CONTRACT_ADDRESS,\n            \"UNAUTHORIZED: ONLY_RECORDS_VOTING_CONTRACT_ADDRESS\"\n        );\n        _;\n    }\n\n    /// @dev This is to set the address of the contracts\n    /// @param contributionContractAddress Takes the address of new contribution contract as parameter\n    /// @param recordsVotingContract Takes the address of new voting contract as parameter\n    function initialize(\n        address contributionContractAddress,\n        address recordsVotingContract\n    ) public initializer onlyOwner {\n        CONTRIBUTION_CONTRACT_ADDRESS = contributionContractAddress;\n        RECORDS_VOTING_CONTRACT_ADDRESS = recordsVotingContract;\n    }\n\n    /// @dev This function creates new record\n    /// @param name This is the name of the record\n    /// @param image This is the image/logo of the record\n    /// @param recordCategory This is the category to which record belongs\n    /// @param seedId This is the seed contribution id\n    function createNewRecord(\n        string memory name,\n        string memory image,\n        string memory recordCategory,\n        uint256 seedId\n    ) public returns (uint256 recordId) {\n        newTokenId++;\n        uint256 recordId = newTokenId;\n\n        require(seedIdUsed[seedId] == false, \"INVALID: SEED_ALREADY_USED\");\n\n        IContribution contributionContract = IContribution(\n            CONTRIBUTION_CONTRACT_ADDRESS\n        );\n\n        IContribution.Contribution memory contribution = contributionContract\n            .getContributionData(seedId);\n\n        require(\n            contribution.isPresent == true,\n            \"INVALID: CONTRIBUTION_NOT_FOUND\"\n        );\n\n        require(\n            contribution.seedContribution == true,\n            \"INVALID: NOT_SEED_CONTRIBUTION\"\n        );\n\n        RecordStruct memory recordStruct = RecordStruct({\n            name: name,\n            image: image,\n            seedId: seedId,\n            parentId: 0,\n            owner: msg.sender,\n            recordCategory: recordCategory,\n            creationDate: block.timestamp,\n            isPresent: true\n        });\n\n        recordData[recordId] = recordStruct;\n        recordContributions[recordId].push(seedId);\n\n        emit RecordCreated({\n            recordId: recordId,\n            name: name,\n            image: image,\n            seedId: seedId,\n            parentId: 0,\n            recordCategory: recordCategory,\n            creationDate: recordStruct.creationDate\n        });\n\n        return (recordId);\n    }\n\n    /// @dev This function pushes a contribution into the array of the record\n    /// @param recordId This is the recordId to which contribution is to be added\n    /// @param contributionId This is the contribution id to push in array\n    function pushContributionIdToContributionList(\n        uint256 recordId,\n        uint256 contributionId\n    ) external onlyContributionContract {\n        recordContributions[recordId].push(contributionId);\n    }\n\n    /// @dev This function return the address of record owner\n    /// @param recordId This is the recordId whose owner you want\n    function ownerOf(uint256 recordId) external returns (address) {\n        return recordData[recordId].owner;\n    }\n\n    /// @dev This function will create new record version from existing record\n    /// @param oldRecordId This is the id of the old record\n    /// @param name The name of the record\n    /// @param image This is the image link for the record cover\n    /// @param recordCategory Record category in string\n    /// @param caller The owner / user who called this function\n    /// @param ballotId The Id of the voting ballot\n    function createNewRecordVersion(\n        uint256 oldRecordId,\n        string memory name,\n        string memory image,\n        string memory recordCategory,\n        address caller,\n        uint256 ballotId\n    )\n        public\n        onlyRecordsVotingContract\n        returns (RecordsContract.RecordStruct memory)\n    {\n        RecordStruct memory sourceVersion = recordData[oldRecordId];\n        RecordStruct memory recordStruct = RecordStruct({\n            name: name,\n            image: image,\n            seedId: sourceVersion.seedId,\n            parentId: oldRecordId,\n            owner: caller,\n            recordCategory: recordCategory,\n            creationDate: block.timestamp,\n            isPresent: true\n        });\n\n        return (recordStruct);\n    }\n\n    /// @dev This function is to be called only form voting contract, and it creates new record\n    /// @param newRecordData This is the record data\n    /// @param contributionIds Array of the contribution id\n    function createRecordFromData(\n        RecordStruct memory newRecordData,\n        uint256[] memory contributionIds\n    ) external onlyRecordsVotingContract returns (uint256) {\n        newTokenId++;\n        uint256 recordId = newTokenId;\n\n        recordData[recordId] = newRecordData;\n        recordContributions[recordId] = contributionIds;\n        recordContributions[recordId].push(newRecordData.seedId);\n        recordVersion[newRecordData.parentId].push(recordId);\n\n        emit RecordCreated({\n            recordId: recordId,\n            name: newRecordData.name,\n            image: newRecordData.image,\n            seedId: newRecordData.seedId,\n            parentId: newRecordData.parentId,\n            recordCategory: newRecordData.recordCategory,\n            creationDate: newRecordData.creationDate\n        });\n        return recordId;\n    }\n}\n",
  "sourcePath": "/Users/a1/Desktop/Office/projects/CrowdRecords/Contracts/contracts/RecordsContract.sol",
  "compiler": {
    "name": "solc",
    "version": "0.8.12+commit.f00d7308.Emscripten.clang"
  },
  "schemaVersion": "3.4.6",
  "updatedAt": "2022-10-19T09:06:06.820Z",
  "devdoc": {
    "events": {
      "RecordCreated(uint256,string,string,uint256,uint256,string,uint256)": {
        "details": "This event is emited when new record is created",
        "params": {
          "creationDate": "This is the creation date of the record",
          "image": "This is the image of the record",
          "name": "Name of the record",
          "parentId": "This is the id of the parent record from which record is created",
          "recordCategory": "This is the record category",
          "recordId": "This is the recordId",
          "seedId": "This is the seed contribution id"
        }
      }
    },
    "kind": "dev",
    "methods": {
      "createNewRecord(string,string,string,uint256)": {
        "details": "This function creates new record",
        "params": {
          "image": "This is the image/logo of the record",
          "name": "This is the name of the record",
          "recordCategory": "This is the category to which record belongs",
          "seedId": "This is the seed contribution id"
        }
      },
      "createNewRecordVersion(uint256,string,string,string,address,uint256)": {
        "details": "This function will create new record version from existing record",
        "params": {
          "ballotId": "The Id of the voting ballot",
          "caller": "The owner / user who called this function",
          "image": "This is the image link for the record cover",
          "name": "The name of the record",
          "oldRecordId": "This is the id of the old record",
          "recordCategory": "Record category in string"
        }
      },
      "createRecordFromData((string,string,uint256,uint256,address,string,uint256,bool),uint256[])": {
        "details": "This function is to be called only form voting contract, and it creates new record",
        "params": {
          "contributionIds": "Array of the contribution id",
          "newRecordData": "This is the record data"
        }
      },
      "initialize(address,address)": {
        "details": "This is to set the address of the contracts",
        "params": {
          "contributionContractAddress": "Takes the address of new contribution contract as parameter",
          "recordsVotingContract": "Takes the address of new voting contract as parameter"
        }
      },
      "ownerOf(uint256)": {
        "details": "This function return the address of record owner",
        "params": {
          "recordId": "This is the recordId whose owner you want"
        }
      },
      "pushContributionIdToContributionList(uint256,uint256)": {
        "details": "This function pushes a contribution into the array of the record",
        "params": {
          "contributionId": "This is the contribution id to push in array",
          "recordId": "This is the recordId to which contribution is to be added"
        }
      }
    },
    "version": 1
  },
  "userdoc": {
    "kind": "user",
    "methods": {},
    "version": 1
  }
}