{
  "contractName": "RecordsVotingContract",
  "abi": [
    {
      "inputs": [
        {
          "internalType": "address",
          "name": "owner",
          "type": "address"
        }
      ],
      "stateMutability": "nonpayable",
      "type": "constructor"
    },
    {
      "anonymous": false,
      "inputs": [
        {
          "indexed": false,
          "internalType": "uint256",
          "name": "value",
          "type": "uint256"
        }
      ],
      "name": "DEBUG",
      "type": "event"
    },
    {
      "anonymous": false,
      "inputs": [
        {
          "indexed": false,
          "internalType": "address",
          "name": "owner",
          "type": "address"
        },
        {
          "indexed": false,
          "internalType": "uint256",
          "name": "ballotId",
          "type": "uint256"
        },
        {
          "indexed": false,
          "internalType": "uint256",
          "name": "depositAmount",
          "type": "uint256"
        }
      ],
      "name": "DepositClaimed",
      "type": "event"
    },
    {
      "anonymous": false,
      "inputs": [
        {
          "indexed": false,
          "internalType": "address",
          "name": "owner",
          "type": "address"
        },
        {
          "indexed": false,
          "internalType": "uint256",
          "name": "ballotId",
          "type": "uint256"
        },
        {
          "indexed": false,
          "internalType": "uint256",
          "name": "depositAmount",
          "type": "uint256"
        },
        {
          "indexed": false,
          "internalType": "bool",
          "name": "isClaimed",
          "type": "bool"
        },
        {
          "indexed": false,
          "internalType": "bool",
          "name": "isPresent",
          "type": "bool"
        }
      ],
      "name": "DepositCreated",
      "type": "event"
    },
    {
      "anonymous": false,
      "inputs": [
        {
          "indexed": false,
          "internalType": "uint8",
          "name": "version",
          "type": "uint8"
        }
      ],
      "name": "Initialized",
      "type": "event"
    },
    {
      "anonymous": false,
      "inputs": [
        {
          "indexed": false,
          "internalType": "uint256",
          "name": "versionRequestId",
          "type": "uint256"
        },
        {
          "indexed": false,
          "internalType": "uint256",
          "name": "rewardTokenId",
          "type": "uint256"
        },
        {
          "indexed": false,
          "internalType": "uint256",
          "name": "rewardAmount",
          "type": "uint256"
        },
        {
          "indexed": false,
          "internalType": "address",
          "name": "userAddress",
          "type": "address"
        }
      ],
      "name": "NewTokenClaimed",
      "type": "event"
    },
    {
      "anonymous": false,
      "inputs": [
        {
          "indexed": false,
          "internalType": "uint256",
          "name": "versionReqId",
          "type": "uint256"
        },
        {
          "indexed": false,
          "internalType": "uint256",
          "name": "tokenId",
          "type": "uint256"
        },
        {
          "indexed": false,
          "internalType": "uint256",
          "name": "ballotId",
          "type": "uint256"
        },
        {
          "indexed": false,
          "internalType": "bool",
          "name": "result",
          "type": "bool"
        },
        {
          "indexed": false,
          "internalType": "bool",
          "name": "minTurnOut",
          "type": "bool"
        },
        {
          "indexed": false,
          "internalType": "uint256",
          "name": "newRecordId",
          "type": "uint256"
        }
      ],
      "name": "NewVersionRequestResult",
      "type": "event"
    },
    {
      "anonymous": false,
      "inputs": [
        {
          "indexed": false,
          "internalType": "uint256",
          "name": "versionRequestId",
          "type": "uint256"
        },
        {
          "indexed": false,
          "internalType": "uint256",
          "name": "totalSupplyEther",
          "type": "uint256"
        },
        {
          "indexed": false,
          "internalType": "uint256",
          "name": "rewardAmountWei",
          "type": "uint256"
        },
        {
          "indexed": false,
          "internalType": "uint256",
          "name": "tokenId",
          "type": "uint256"
        },
        {
          "indexed": false,
          "internalType": "uint256",
          "name": "rewardTokenId",
          "type": "uint256"
        },
        {
          "indexed": false,
          "internalType": "uint256",
          "name": "rewardPerTokenWei",
          "type": "uint256"
        },
        {
          "indexed": false,
          "internalType": "uint256",
          "name": "snapshotId",
          "type": "uint256"
        }
      ],
      "name": "NewVersionTokenDistribution",
      "type": "event"
    },
    {
      "anonymous": false,
      "inputs": [
        {
          "indexed": false,
          "internalType": "address",
          "name": "voter",
          "type": "address"
        },
        {
          "indexed": false,
          "internalType": "uint256",
          "name": "versionRequestId",
          "type": "uint256"
        },
        {
          "indexed": false,
          "internalType": "uint256",
          "name": "ballotId",
          "type": "uint256"
        },
        {
          "indexed": false,
          "internalType": "bool",
          "name": "vote",
          "type": "bool"
        }
      ],
      "name": "NewVersionVoting",
      "type": "event"
    },
    {
      "anonymous": false,
      "inputs": [
        {
          "indexed": false,
          "internalType": "address",
          "name": "requester",
          "type": "address"
        },
        {
          "indexed": false,
          "internalType": "uint256",
          "name": "versionRequestId",
          "type": "uint256"
        },
        {
          "indexed": false,
          "internalType": "uint256",
          "name": "ballotId",
          "type": "uint256"
        },
        {
          "indexed": false,
          "internalType": "uint256",
          "name": "createdAt",
          "type": "uint256"
        }
      ],
      "name": "NewVersionVotingBallotCreated",
      "type": "event"
    },
    {
      "anonymous": false,
      "inputs": [
        {
          "indexed": false,
          "internalType": "uint256",
          "name": "requestId",
          "type": "uint256"
        },
        {
          "components": [
            {
              "internalType": "string",
              "name": "name",
              "type": "string"
            },
            {
              "internalType": "string",
              "name": "image",
              "type": "string"
            },
            {
              "internalType": "uint256",
              "name": "seedId",
              "type": "uint256"
            },
            {
              "internalType": "uint256",
              "name": "parentId",
              "type": "uint256"
            },
            {
              "internalType": "address",
              "name": "owner",
              "type": "address"
            },
            {
              "internalType": "string",
              "name": "recordCategory",
              "type": "string"
            },
            {
              "internalType": "uint256",
              "name": "creationDate",
              "type": "uint256"
            },
            {
              "internalType": "bool",
              "name": "isPresent",
              "type": "bool"
            }
          ],
          "indexed": false,
          "internalType": "struct RecordsContract.RecordStruct",
          "name": "recordData",
          "type": "tuple"
        },
        {
          "components": [
            {
              "internalType": "uint256",
              "name": "totalSupply",
              "type": "uint256"
            },
            {
              "internalType": "uint256",
              "name": "oldContributorShare",
              "type": "uint256"
            },
            {
              "internalType": "uint256",
              "name": "userBalance",
              "type": "uint256"
            },
            {
              "internalType": "string",
              "name": "symbol",
              "type": "string"
            },
            {
              "internalType": "string",
              "name": "image",
              "type": "string"
            }
          ],
          "indexed": false,
          "internalType": "struct RecordsVotingContract.NewVersionTokenStruct",
          "name": "governanceToken",
          "type": "tuple"
        },
        {
          "components": [
            {
              "internalType": "uint256",
              "name": "totalSupply",
              "type": "uint256"
            },
            {
              "internalType": "uint256",
              "name": "oldContributorShare",
              "type": "uint256"
            },
            {
              "internalType": "uint256",
              "name": "userBalance",
              "type": "uint256"
            },
            {
              "internalType": "string",
              "name": "symbol",
              "type": "string"
            },
            {
              "internalType": "string",
              "name": "image",
              "type": "string"
            }
          ],
          "indexed": false,
          "internalType": "struct RecordsVotingContract.NewVersionTokenStruct",
          "name": "communityToken",
          "type": "tuple"
        },
        {
          "indexed": false,
          "internalType": "uint256[]",
          "name": "contributionIds",
          "type": "uint256[]"
        },
        {
          "indexed": false,
          "internalType": "address",
          "name": "requester",
          "type": "address"
        },
        {
          "indexed": false,
          "internalType": "uint256",
          "name": "oldVersionId",
          "type": "uint256"
        },
        {
          "indexed": false,
          "internalType": "uint256",
          "name": "tokenId",
          "type": "uint256"
        },
        {
          "indexed": false,
          "internalType": "uint256",
          "name": "ballotId",
          "type": "uint256"
        }
      ],
      "name": "VersionRequest",
      "type": "event"
    },
    {
      "inputs": [],
      "name": "GOVERNANCE",
      "outputs": [
        {
          "internalType": "address",
          "name": "",
          "type": "address"
        }
      ],
      "stateMutability": "view",
      "type": "function"
    },
    {
      "inputs": [],
      "name": "MIN_TURNOUT_PERCENT",
      "outputs": [
        {
          "internalType": "uint256",
          "name": "",
          "type": "uint256"
        }
      ],
      "stateMutability": "view",
      "type": "function"
    },
    {
      "inputs": [],
      "name": "OWNER",
      "outputs": [
        {
          "internalType": "address",
          "name": "",
          "type": "address"
        }
      ],
      "stateMutability": "view",
      "type": "function"
    },
    {
      "inputs": [],
      "name": "RECORDS_CONTRACT_ADDRESS",
      "outputs": [
        {
          "internalType": "address",
          "name": "",
          "type": "address"
        }
      ],
      "stateMutability": "view",
      "type": "function"
    },
    {
      "inputs": [],
      "name": "TREASURY_CONTRACT_ADDRESS",
      "outputs": [
        {
          "internalType": "address",
          "name": "",
          "type": "address"
        }
      ],
      "stateMutability": "view",
      "type": "function"
    },
    {
      "inputs": [],
      "name": "TREASURY_CORE_CONTRACT_ADDRESS",
      "outputs": [
        {
          "internalType": "address",
          "name": "",
          "type": "address"
        }
      ],
      "stateMutability": "view",
      "type": "function"
    },
    {
      "inputs": [],
      "name": "TREASURY_HUB_ADDRESS",
      "outputs": [
        {
          "internalType": "address",
          "name": "",
          "type": "address"
        }
      ],
      "stateMutability": "view",
      "type": "function"
    },
    {
      "inputs": [],
      "name": "VOTING_BLOCK_PERIOD",
      "outputs": [
        {
          "internalType": "uint256",
          "name": "",
          "type": "uint256"
        }
      ],
      "stateMutability": "view",
      "type": "function"
    },
    {
      "inputs": [],
      "name": "VOTING_DEPOSIT",
      "outputs": [
        {
          "internalType": "uint256",
          "name": "",
          "type": "uint256"
        }
      ],
      "stateMutability": "view",
      "type": "function"
    },
    {
      "inputs": [
        {
          "internalType": "address",
          "name": "user",
          "type": "address"
        },
        {
          "internalType": "uint256",
          "name": "tokenId",
          "type": "uint256"
        },
        {
          "internalType": "uint256",
          "name": "previousBalance",
          "type": "uint256"
        },
        {
          "internalType": "uint256",
          "name": "newBalance",
          "type": "uint256"
        }
      ],
      "name": "_handleUserTokenTransfers",
      "outputs": [],
      "stateMutability": "nonpayable",
      "type": "function"
    },
    {
      "inputs": [
        {
          "internalType": "uint256",
          "name": "",
          "type": "uint256"
        }
      ],
      "name": "depositMap",
      "outputs": [
        {
          "internalType": "address",
          "name": "owner",
          "type": "address"
        },
        {
          "internalType": "uint256",
          "name": "ballotId",
          "type": "uint256"
        },
        {
          "internalType": "uint256",
          "name": "depositAmount",
          "type": "uint256"
        },
        {
          "internalType": "bool",
          "name": "isClaimed",
          "type": "bool"
        },
        {
          "internalType": "bool",
          "name": "isPresent",
          "type": "bool"
        }
      ],
      "stateMutability": "view",
      "type": "function"
    },
    {
      "inputs": [
        {
          "internalType": "uint256",
          "name": "",
          "type": "uint256"
        }
      ],
      "name": "newVersionRequestMap",
      "outputs": [
        {
          "components": [
            {
              "internalType": "string",
              "name": "name",
              "type": "string"
            },
            {
              "internalType": "string",
              "name": "image",
              "type": "string"
            },
            {
              "internalType": "uint256",
              "name": "seedId",
              "type": "uint256"
            },
            {
              "internalType": "uint256",
              "name": "parentId",
              "type": "uint256"
            },
            {
              "internalType": "address",
              "name": "owner",
              "type": "address"
            },
            {
              "internalType": "string",
              "name": "recordCategory",
              "type": "string"
            },
            {
              "internalType": "uint256",
              "name": "creationDate",
              "type": "uint256"
            },
            {
              "internalType": "bool",
              "name": "isPresent",
              "type": "bool"
            }
          ],
          "internalType": "struct RecordsContract.RecordStruct",
          "name": "recordData",
          "type": "tuple"
        },
        {
          "components": [
            {
              "internalType": "uint256",
              "name": "totalSupply",
              "type": "uint256"
            },
            {
              "internalType": "uint256",
              "name": "oldContributorShare",
              "type": "uint256"
            },
            {
              "internalType": "uint256",
              "name": "userBalance",
              "type": "uint256"
            },
            {
              "internalType": "string",
              "name": "symbol",
              "type": "string"
            },
            {
              "internalType": "string",
              "name": "image",
              "type": "string"
            }
          ],
          "internalType": "struct RecordsVotingContract.NewVersionTokenStruct",
          "name": "governanceToken",
          "type": "tuple"
        },
        {
          "components": [
            {
              "internalType": "uint256",
              "name": "totalSupply",
              "type": "uint256"
            },
            {
              "internalType": "uint256",
              "name": "oldContributorShare",
              "type": "uint256"
            },
            {
              "internalType": "uint256",
              "name": "userBalance",
              "type": "uint256"
            },
            {
              "internalType": "string",
              "name": "symbol",
              "type": "string"
            },
            {
              "internalType": "string",
              "name": "image",
              "type": "string"
            }
          ],
          "internalType": "struct RecordsVotingContract.NewVersionTokenStruct",
          "name": "communityToken",
          "type": "tuple"
        },
        {
          "internalType": "address",
          "name": "requester",
          "type": "address"
        },
        {
          "internalType": "uint256",
          "name": "oldVersionId",
          "type": "uint256"
        },
        {
          "internalType": "uint256",
          "name": "tokenId",
          "type": "uint256"
        },
        {
          "internalType": "uint256",
          "name": "ballotId",
          "type": "uint256"
        },
        {
          "internalType": "bool",
          "name": "isPresent",
          "type": "bool"
        },
        {
          "internalType": "bool",
          "name": "isAccepted",
          "type": "bool"
        }
      ],
      "stateMutability": "view",
      "type": "function"
    },
    {
      "inputs": [],
      "name": "recordsContract",
      "outputs": [
        {
          "internalType": "contract RecordsContract",
          "name": "",
          "type": "address"
        }
      ],
      "stateMutability": "view",
      "type": "function"
    },
    {
      "inputs": [
        {
          "internalType": "uint256",
          "name": "",
          "type": "uint256"
        },
        {
          "internalType": "address",
          "name": "",
          "type": "address"
        }
      ],
      "name": "rewardsClaimed",
      "outputs": [
        {
          "internalType": "bool",
          "name": "",
          "type": "bool"
        }
      ],
      "stateMutability": "view",
      "type": "function"
    },
    {
      "inputs": [
        {
          "internalType": "uint256",
          "name": "depositAmount",
          "type": "uint256"
        }
      ],
      "name": "setDepositAmount",
      "outputs": [],
      "stateMutability": "nonpayable",
      "type": "function"
    },
    {
      "inputs": [
        {
          "internalType": "uint256",
          "name": "minTurnOut",
          "type": "uint256"
        }
      ],
      "name": "setMinTurnOut",
      "outputs": [],
      "stateMutability": "nonpayable",
      "type": "function"
    },
    {
      "inputs": [
        {
          "internalType": "address",
          "name": "ownerAddress",
          "type": "address"
        }
      ],
      "name": "setOwnerAddress",
      "outputs": [],
      "stateMutability": "nonpayable",
      "type": "function"
    },
    {
      "inputs": [
        {
          "internalType": "uint256",
          "name": "votingPeriod",
          "type": "uint256"
        }
      ],
      "name": "setVotingPeriod",
      "outputs": [],
      "stateMutability": "nonpayable",
      "type": "function"
    },
    {
      "inputs": [],
      "name": "treasuryContract",
      "outputs": [
        {
          "internalType": "contract ITreasury",
          "name": "",
          "type": "address"
        }
      ],
      "stateMutability": "view",
      "type": "function"
    },
    {
      "inputs": [],
      "name": "treasuryCoreContract",
      "outputs": [
        {
          "internalType": "contract ITreasuryCore",
          "name": "",
          "type": "address"
        }
      ],
      "stateMutability": "view",
      "type": "function"
    },
    {
      "inputs": [
        {
          "internalType": "uint256",
          "name": "",
          "type": "uint256"
        }
      ],
      "name": "votingMap",
      "outputs": [
        {
          "internalType": "address",
          "name": "owner",
          "type": "address"
        },
        {
          "internalType": "uint256",
          "name": "yesWeight",
          "type": "uint256"
        },
        {
          "internalType": "uint256",
          "name": "yesCount",
          "type": "uint256"
        },
        {
          "internalType": "uint256",
          "name": "noWeight",
          "type": "uint256"
        },
        {
          "internalType": "uint256",
          "name": "noCount",
          "type": "uint256"
        },
        {
          "internalType": "uint256",
          "name": "tokenId",
          "type": "uint256"
        },
        {
          "internalType": "uint256",
          "name": "votingEndBlock",
          "type": "uint256"
        },
        {
          "internalType": "bool",
          "name": "isResultDeclared",
          "type": "bool"
        },
        {
          "internalType": "bool",
          "name": "canOwnerVote",
          "type": "bool"
        },
        {
          "internalType": "bool",
          "name": "isPresent",
          "type": "bool"
        }
      ],
      "stateMutability": "view",
      "type": "function"
    },
    {
      "inputs": [
        {
          "internalType": "address",
          "name": "newTreasuryContractAddress",
          "type": "address"
        },
        {
          "internalType": "address",
          "name": "newGovernanceContractAddress",
          "type": "address"
        }
      ],
      "name": "initialize",
      "outputs": [],
      "stateMutability": "nonpayable",
      "type": "function"
    },
    {
      "inputs": [
        {
          "internalType": "address",
          "name": "recordsContractAddress",
          "type": "address"
        },
        {
          "internalType": "address",
          "name": "treasuryContractAddress",
          "type": "address"
        },
        {
          "internalType": "address",
          "name": "treasuryCoreContractAddress",
          "type": "address"
        },
        {
          "internalType": "address",
          "name": "newGovernanceContractAddress",
          "type": "address"
        }
      ],
      "name": "initialize",
      "outputs": [],
      "stateMutability": "nonpayable",
      "type": "function"
    },
    {
      "inputs": [
        {
          "components": [
            {
              "internalType": "string",
              "name": "name",
              "type": "string"
            },
            {
              "internalType": "string",
              "name": "image",
              "type": "string"
            },
            {
              "internalType": "string",
              "name": "recordCategory",
              "type": "string"
            },
            {
              "internalType": "uint256",
              "name": "oldRecordId",
              "type": "uint256"
            },
            {
              "internalType": "uint256[]",
              "name": "contributionIds",
              "type": "uint256[]"
            },
            {
              "components": [
                {
                  "internalType": "uint256",
                  "name": "totalSupply",
                  "type": "uint256"
                },
                {
                  "internalType": "uint256",
                  "name": "oldContributorShare",
                  "type": "uint256"
                },
                {
                  "internalType": "uint256",
                  "name": "userBalance",
                  "type": "uint256"
                },
                {
                  "internalType": "string",
                  "name": "symbol",
                  "type": "string"
                },
                {
                  "internalType": "string",
                  "name": "image",
                  "type": "string"
                }
              ],
              "internalType": "struct RecordsVotingContract.NewVersionTokenStruct",
              "name": "governanceToken",
              "type": "tuple"
            },
            {
              "components": [
                {
                  "internalType": "uint256",
                  "name": "totalSupply",
                  "type": "uint256"
                },
                {
                  "internalType": "uint256",
                  "name": "oldContributorShare",
                  "type": "uint256"
                },
                {
                  "internalType": "uint256",
                  "name": "userBalance",
                  "type": "uint256"
                },
                {
                  "internalType": "string",
                  "name": "symbol",
                  "type": "string"
                },
                {
                  "internalType": "string",
                  "name": "image",
                  "type": "string"
                }
              ],
              "internalType": "struct RecordsVotingContract.NewVersionTokenStruct",
              "name": "communityToken",
              "type": "tuple"
            }
          ],
          "internalType": "struct RecordsVotingContract.NewRecordVersionParams",
          "name": "params",
          "type": "tuple"
        },
        {
          "internalType": "address payable",
          "name": "platformWallet",
          "type": "address"
        },
        {
          "internalType": "uint256",
          "name": "platformFee",
          "type": "uint256"
        }
      ],
      "name": "createNewRecordVersion",
      "outputs": [
        {
          "internalType": "uint256",
          "name": "",
          "type": "uint256"
        }
      ],
      "stateMutability": "payable",
      "type": "function"
    },
    {
      "inputs": [
        {
          "internalType": "uint256",
          "name": "versionReqId",
          "type": "uint256"
        },
        {
          "internalType": "bool",
          "name": "vote",
          "type": "bool"
        }
      ],
      "name": "castVote",
      "outputs": [],
      "stateMutability": "nonpayable",
      "type": "function"
    },
    {
      "inputs": [
        {
          "internalType": "uint256",
          "name": "versionReqId",
          "type": "uint256"
        }
      ],
      "name": "declareWinner",
      "outputs": [],
      "stateMutability": "nonpayable",
      "type": "function"
    },
    {
      "inputs": [
        {
          "internalType": "uint256",
          "name": "versionReqId",
          "type": "uint256"
        }
      ],
      "name": "claimNewRecordTokens",
      "outputs": [],
      "stateMutability": "nonpayable",
      "type": "function"
    },
    {
      "inputs": [
        {
          "internalType": "address",
          "name": "operator",
          "type": "address"
        },
        {
          "internalType": "address",
          "name": "from",
          "type": "address"
        },
        {
          "internalType": "uint256",
          "name": "id",
          "type": "uint256"
        },
        {
          "internalType": "uint256",
          "name": "value",
          "type": "uint256"
        },
        {
          "internalType": "bytes",
          "name": "data",
          "type": "bytes"
        }
      ],
      "name": "onERC1155Received",
      "outputs": [
        {
          "internalType": "bytes4",
          "name": "",
          "type": "bytes4"
        }
      ],
      "stateMutability": "nonpayable",
      "type": "function"
    },
    {
      "inputs": [
        {
          "internalType": "address",
          "name": "operator",
          "type": "address"
        },
        {
          "internalType": "address",
          "name": "from",
          "type": "address"
        },
        {
          "internalType": "uint256[]",
          "name": "ids",
          "type": "uint256[]"
        },
        {
          "internalType": "uint256[]",
          "name": "values",
          "type": "uint256[]"
        },
        {
          "internalType": "bytes",
          "name": "data",
          "type": "bytes"
        }
      ],
      "name": "onERC1155BatchReceived",
      "outputs": [
        {
          "internalType": "bytes4",
          "name": "",
          "type": "bytes4"
        }
      ],
      "stateMutability": "nonpayable",
      "type": "function"
    },
    {
      "inputs": [
        {
          "internalType": "bytes4",
          "name": "interfaceId",
          "type": "bytes4"
        }
      ],
      "name": "supportsInterface",
      "outputs": [
        {
          "internalType": "bool",
          "name": "",
          "type": "bool"
        }
      ],
      "stateMutability": "view",
      "type": "function"
    }
  ],
  "bytecode": "0x6080604052670de0b6b3a764000060015560196002556101f460035560006009556000600f553480156200003257600080fd5b506040516200561b3803806200561b83398101604081905262000055916200007b565b600780546001600160a01b0319166001600160a01b0392909216919091179055620000ad565b6000602082840312156200008e57600080fd5b81516001600160a01b0381168114620000a657600080fd5b9392505050565b61555e80620000bd6000396000f3fe6080604052600436106101cc5760003560e01c8063879253a3116100f7578063bc197c8111610095578063f23a6e6111610064578063f23a6e611461076f578063f8c8765e146107b5578063fc0d561e146107d5578063fcd2d3f71461080257600080fd5b8063bc197c8114610696578063c768e2d61461070f578063e1f2e0841461072f578063ea0217cf1461074f57600080fd5b8063abb7ed7f116100d1578063abb7ed7f14610609578063acb3149314610629578063b274997114610656578063ba19a6751461066957600080fd5b8063879253a31461058b5780638d2ae1f7146105a15780639a835e91146105ce57600080fd5b806333e0ea2e1161016f57806363e249c11161013e57806363e249c1146103bb5780636c83244a146104ad5780636d8cee56146104c357806383b0b071146104e357600080fd5b806333e0ea2e14610315578063485cc95514610339578063556bed3a1461035957806358f0b6c11461038657600080fd5b806314627834116101ab578063146278341461027b57806315373e3d146102a857806318da0011146102c8578063331a6bf5146102f557600080fd5b8062c2943c146101d157806301ffc9a7146101f3578063117803e314610229575b600080fd5b3480156101dd57600080fd5b506101f16101ec36600461464a565b61082f565b005b3480156101ff57600080fd5b5061021461020e366004614663565b50600090565b60405190151581526020015b60405180910390f35b34801561023557600080fd5b506007546102569073ffffffffffffffffffffffffffffffffffffffff1681565b60405173ffffffffffffffffffffffffffffffffffffffff9091168152602001610220565b34801561028757600080fd5b506008546102569073ffffffffffffffffffffffffffffffffffffffff1681565b3480156102b457600080fd5b506101f16102c33660046146b6565b6110ad565b3480156102d457600080fd5b506005546102569073ffffffffffffffffffffffffffffffffffffffff1681565b34801561030157600080fd5b506101f1610310366004614708565b611199565b34801561032157600080fd5b5061032b60035481565b604051908152602001610220565b34801561034557600080fd5b506101f1610354366004614725565b611287565b34801561036557600080fd5b506012546102569073ffffffffffffffffffffffffffffffffffffffff1681565b34801561039257600080fd5b506103a66103a136600461464a565b61137e565b604051610220999897969594939291906148c8565b3480156103c757600080fd5b506104466103d636600461464a565b600a602052600090815260409020805460018201546002830154600384015460048501546005860154600687015460079097015473ffffffffffffffffffffffffffffffffffffffff909616969495939492939192909160ff80821691610100810482169162010000909104168a565b6040805173ffffffffffffffffffffffffffffffffffffffff909b168b5260208b0199909952978901969096526060880194909452608087019290925260a086015260c0850152151560e08401521515610100830152151561012082015261014001610220565b3480156104b957600080fd5b5061032b60025481565b3480156104cf57600080fd5b506101f16104de36600461464a565b6118a2565b3480156104ef57600080fd5b506105486104fe36600461464a565b600d60205260009081526040902080546001820154600283015460039093015473ffffffffffffffffffffffffffffffffffffffff90921692909160ff8082169161010090041685565b6040805173ffffffffffffffffffffffffffffffffffffffff9096168652602086019490945292840191909152151560608301521515608082015260a001610220565b34801561059757600080fd5b5061032b60015481565b3480156105ad57600080fd5b506006546102569073ffffffffffffffffffffffffffffffffffffffff1681565b3480156105da57600080fd5b506102146105e9366004614953565b601160209081526000928352604080842090915290825290205460ff1681565b34801561061557600080fd5b506101f1610624366004614978565b611928565b34801561063557600080fd5b506004546102569073ffffffffffffffffffffffffffffffffffffffff1681565b61032b610664366004614c52565b611ae6565b34801561067557600080fd5b506014546102569073ffffffffffffffffffffffffffffffffffffffff1681565b3480156106a257600080fd5b506106de6106b1366004614e26565b7fbc197c819b3e337a6f9652dd10becd7eef83032af3b9d958d3d42f669414662198975050505050505050565b6040517fffffffff000000000000000000000000000000000000000000000000000000009091168152602001610220565b34801561071b57600080fd5b506101f161072a36600461464a565b6122cd565b34801561073b57600080fd5b506101f161074a36600461464a565b612bba565b34801561075b57600080fd5b506101f161076a36600461464a565b612c40565b34801561077b57600080fd5b506106de61078a366004614ee5565b7ff23a6e612e1ff4830e658fe43f4e3cb4a5f8170bd5d9e69fb5d7a7fa9e4fdf979695505050505050565b3480156107c157600080fd5b506101f16107d0366004614f61565b612cc6565b3480156107e157600080fd5b506015546102569073ffffffffffffffffffffffffffffffffffffffff1681565b34801561080e57600080fd5b506013546102569073ffffffffffffffffffffffffffffffffffffffff1681565b600081815260106020526040808220815161024081019092528054829061014082019083908290829061086190614fbd565b80601f016020809104026020016040519081016040528092919081815260200182805461088d90614fbd565b80156108da5780601f106108af576101008083540402835291602001916108da565b820191906000526020600020905b8154815290600101906020018083116108bd57829003601f168201915b505050505081526020016001820180546108f390614fbd565b80601f016020809104026020016040519081016040528092919081815260200182805461091f90614fbd565b801561096c5780601f106109415761010080835404028352916020019161096c565b820191906000526020600020905b81548152906001019060200180831161094f57829003601f168201915b50505091835250506002820154602082015260038201546040820152600482015473ffffffffffffffffffffffffffffffffffffffff1660608201526005820180546080909201916109bd90614fbd565b80601f01602080910402602001604051908101604052809291908181526020018280546109e990614fbd565b8015610a365780601f10610a0b57610100808354040283529160200191610a36565b820191906000526020600020905b815481529060010190602001808311610a1957829003601f168201915b50505050508152602001600682015481526020016007820160009054906101000a900460ff1615151515815250508152602001600882016040518060a0016040529081600082015481526020016001820154815260200160028201548152602001600382018054610aa690614fbd565b80601f0160208091040260200160405190810160405280929190818152602001828054610ad290614fbd565b8015610b1f5780601f10610af457610100808354040283529160200191610b1f565b820191906000526020600020905b815481529060010190602001808311610b0257829003601f168201915b50505050508152602001600482018054610b3890614fbd565b80601f0160208091040260200160405190810160405280929190818152602001828054610b6490614fbd565b8015610bb15780601f10610b8657610100808354040283529160200191610bb1565b820191906000526020600020905b815481529060010190602001808311610b9457829003601f168201915b5050505050815250508152602001600d82016040518060a0016040529081600082015481526020016001820154815260200160028201548152602001600382018054610bfc90614fbd565b80601f0160208091040260200160405190810160405280929190818152602001828054610c2890614fbd565b8015610c755780601f10610c4a57610100808354040283529160200191610c75565b820191906000526020600020905b815481529060010190602001808311610c5857829003601f168201915b50505050508152602001600482018054610c8e90614fbd565b80601f0160208091040260200160405190810160405280929190818152602001828054610cba90614fbd565b8015610d075780601f10610cdc57610100808354040283529160200191610d07565b820191906000526020600020905b815481529060010190602001808311610cea57829003601f168201915b505050505081525050815260200160128201805480602002602001604051908101604052809291908181526020018280548015610d6357602002820191906000526020600020905b815481526020019060010190808311610d4f575b5050509183525050601382015473ffffffffffffffffffffffffffffffffffffffff16602082015260148201546040820152601582015460608201526016820154608082015260179091015460ff808216151560a084015261010090910416151560c09091015260e08101519091506000908190610de090612f6c565b91509150610df18360e0015161328a565b60008215610fff57601554845160608601516040517f4b02f22d00000000000000000000000000000000000000000000000000000000815273ffffffffffffffffffffffffffffffffffffffff90931692634b02f22d92610e5692909160040161504c565b6020604051808303816000875af1158015610e75573d6000803e3d6000fd5b505050506040513d601f19601f82011682018060405250810190610e999190615071565b602085015160055460a08701516040517f2d4a03820000000000000000000000000000000000000000000000000000000081526004810191909152929350610f4b92849173ffffffffffffffffffffffffffffffffffffffff1690632d4a038290602401602060405180830381865afa158015610f1a573d6000803e3d6000fd5b505050506040513d601f19601f82011682018060405250810190610f3e9190615071565b88600189608001516134d8565b60408085015160055460a087015192517f2d4a0382000000000000000000000000000000000000000000000000000000008152610fff93859273ffffffffffffffffffffffffffffffffffffffff1691632d4a038291610fb19160040190815260200190565b602060405180830381865afa158015610fce573d6000803e3d6000fd5b505050506040513d601f19601f82011682018060405250810190610ff29190615071565b88600089608001516134d8565b60008581526010602090815260409182902060170180547fffffffffffffffffffffffffffffffffffffffffffffffffffffffffffff00ff166101008715159081029190911790915560c08781015160e089015185518b815294850191909152938301939093526060820152831515608082015260a081018390527f88555918fb2b610e47497c9873e7509aac75e36c699aea4581f692c529d8ebb191015b60405180910390a15050505050565b60008281526010602052604090206017015460ff161515600114611132576040517f08c379a000000000000000000000000000000000000000000000000000000000815260206004820152601f60248201527f494e56414c49443a20494e56414c49445f56455253494f4e5f5245515f49440060448201526064015b60405180910390fd5b60008281526010602090815260409182902060160154825133815291820185905281830152821515606082015290517f7fa8530f2b70b1c2f0aa92650d5274e8e84988e1af0fa8ca56a37ba7646720749181900360800190a161119582826137d9565b5050565b60075473ffffffffffffffffffffffffffffffffffffffff163314611240576040517f08c379a000000000000000000000000000000000000000000000000000000000815260206004820152602360248201527f554e415554484f52495a45443a2043414e4e4f545f504552464f524d5f41435460448201527f494f4e00000000000000000000000000000000000000000000000000000000006064820152608401611129565b600780547fffffffffffffffffffffffff00000000000000000000000000000000000000001673ffffffffffffffffffffffffffffffffffffffff92909216919091179055565b600054610100900460ff1661131e576040517f08c379a000000000000000000000000000000000000000000000000000000000815260206004820152602b60248201527f496e697469616c697a61626c653a20636f6e7472616374206973206e6f74206960448201527f6e697469616c697a696e670000000000000000000000000000000000000000006064820152608401611129565b6004805473ffffffffffffffffffffffffffffffffffffffff9384167fffffffffffffffffffffffff0000000000000000000000000000000000000000918216811790925560058054821690921790915560088054929093169116179055565b601060205280600052604060002060009150905080600001604051806101000160405290816000820180546113b290614fbd565b80601f01602080910402602001604051908101604052809291908181526020018280546113de90614fbd565b801561142b5780601f106114005761010080835404028352916020019161142b565b820191906000526020600020905b81548152906001019060200180831161140e57829003601f168201915b5050505050815260200160018201805461144490614fbd565b80601f016020809104026020016040519081016040528092919081815260200182805461147090614fbd565b80156114bd5780601f10611492576101008083540402835291602001916114bd565b820191906000526020600020905b8154815290600101906020018083116114a057829003601f168201915b50505091835250506002820154602082015260038201546040820152600482015473ffffffffffffffffffffffffffffffffffffffff16606082015260058201805460809092019161150e90614fbd565b80601f016020809104026020016040519081016040528092919081815260200182805461153a90614fbd565b80156115875780601f1061155c57610100808354040283529160200191611587565b820191906000526020600020905b81548152906001019060200180831161156a57829003601f168201915b50505050508152602001600682015481526020016007820160009054906101000a900460ff16151515158152505090806008016040518060a00160405290816000820154815260200160018201548152602001600282015481526020016003820180546115f390614fbd565b80601f016020809104026020016040519081016040528092919081815260200182805461161f90614fbd565b801561166c5780601f106116415761010080835404028352916020019161166c565b820191906000526020600020905b81548152906001019060200180831161164f57829003601f168201915b5050505050815260200160048201805461168590614fbd565b80601f01602080910402602001604051908101604052809291908181526020018280546116b190614fbd565b80156116fe5780601f106116d3576101008083540402835291602001916116fe565b820191906000526020600020905b8154815290600101906020018083116116e157829003601f168201915b5050505050815250509080600d016040518060a001604052908160008201548152602001600182015481526020016002820154815260200160038201805461174590614fbd565b80601f016020809104026020016040519081016040528092919081815260200182805461177190614fbd565b80156117be5780601f10611793576101008083540402835291602001916117be565b820191906000526020600020905b8154815290600101906020018083116117a157829003601f168201915b505050505081526020016004820180546117d790614fbd565b80601f016020809104026020016040519081016040528092919081815260200182805461180390614fbd565b80156118505780601f1061182557610100808354040283529160200191611850565b820191906000526020600020905b81548152906001019060200180831161183357829003601f168201915b505050919092525050506013820154601483015460158401546016850154601790950154939473ffffffffffffffffffffffffffffffffffffffff909316939192909160ff8082169161010090041689565b60085473ffffffffffffffffffffffffffffffffffffffff163314611923576040517f08c379a000000000000000000000000000000000000000000000000000000000815260206004820152601d60248201527f554e415554484f52495a45443a204f4e4c595f474f5645524e414e43450000006044820152606401611129565b600155565b73ffffffffffffffffffffffffffffffffffffffff84166000908152600e60205260408120905b8154811015611ade57600a600083838154811061196e5761196e61508a565b6000918252602080832090910154835282019290925260400190206007015460ff161515600114806119d1575043600a60008484815481106119b2576119b261508a565b9060005260206000200154815260200190815260200160002060060154105b15611a6a57815482906119e6906001906150e8565b815481106119f6576119f661508a565b9060005260206000200154828281548110611a1357611a1361508a565b906000526020600020018190555081805480611a3157611a316150ff565b600190038181906000526020600020016000905590558060001415611a5857506000611acc565b80611a628161512e565b915050611acc565b600a6000838381548110611a8057611a8061508a565b9060005260206000200154815260200190815260200160002060050154851415611acc57611acc828281548110611ab957611ab961508a565b9060005260206000200154878686613aba565b80611ad681615163565b91505061194f565b505050505050565b60003415611b4d5760405173ffffffffffffffffffffffffffffffffffffffff8416908390600081818185875af1925050503d8060008114611b44576040519150601f19603f3d011682016040523d82523d6000602084013e611b49565b606091505b5050505b601554606085015160a0860151805160409182015160c089015180519084015193517f9ba7367e0000000000000000000000000000000000000000000000000000000081526004810195909552602485019290925260448401526064830152608482015273ffffffffffffffffffffffffffffffffffffffff90911690639ba7367e9060a401602060405180830381865afa158015611bf0573d6000803e3d6000fd5b505050506040513d601f19601f82011682018060405250810190611c1491906151a7565b50600f8054906000611c2583615163565b909155505060055460608501516040517f2d4a0382000000000000000000000000000000000000000000000000000000008152600481019190915260009173ffffffffffffffffffffffffffffffffffffffff1690632d4a038290602401602060405180830381865afa158015611ca0573d6000803e3d6000fd5b505050506040513d601f19601f82011682018060405250810190611cc49190615071565b90506000611cd3600083613c5c565b9050611ce933611ce386346150e8565b83613e21565b60055460a087015160609081015160c0890151909101516040517f6c45f2f600000000000000000000000000000000000000000000000000000000815273ffffffffffffffffffffffffffffffffffffffff90931692636c45f2f692611d539290916004016151c4565b600060405180830381600087803b158015611d6d57600080fd5b505af1158015611d81573d6000803e3d6000fd5b505060055460a089015160609081015160c08b0151909101516040517f61cbc35700000000000000000000000000000000000000000000000000000000815273ffffffffffffffffffffffffffffffffffffffff90931694506361cbc3579350611ded926004016151c4565b600060405180830381600087803b158015611e0757600080fd5b505af1158015611e1b573d6000803e3d6000fd5b50506015546060890151895160208b01516040808d015190517fc1befa6a0000000000000000000000000000000000000000000000000000000081526000975073ffffffffffffffffffffffffffffffffffffffff909516955063c1befa6a94611e8f949392919033908a906004016151e9565b6000604051808303816000875af1158015611eae573d6000803e3d6000fd5b505050506040513d6000823e601f3d9081017fffffffffffffffffffffffffffffffffffffffffffffffffffffffffffffffe0168201604052611ef491908101906152a4565b905060006040518061014001604052808381526020018960a0015181526020018960c001518152602001896080015181526020013373ffffffffffffffffffffffffffffffffffffffff168152602001896060015181526020018581526020018481526020016001151581526020016000151581525090507f42cad05f5e0c47228d26190e634cc7f9822f43ee731fe6b8f723987878a9f746600f54838a60a001518b60c001518c60800151338e606001518b8b604051611fbd9998979695949392919061539a565b60405180910390a1600f5460408051338152602081019290925281018490524260608201527f3280de2a4f99f3d75b997f6eaa4416477712e0bb888b45922dc7c757aed2ce6e9060800160405180910390a1600f5460009081526010602090815260409091208251805180518594849261203d9284929190910190614577565b5060208281015180516120569260018501920190614577565b50604082015160028201556060820151600382015560808201516004820180547fffffffffffffffffffffffff00000000000000000000000000000000000000001673ffffffffffffffffffffffffffffffffffffffff90921691909117905560a082015180516120d1916005840191602090910190614577565b5060c0820151600682015560e090910151600790910180547fffffffffffffffffffffffffffffffffffffffffffffffffffffffffffffff00169115159190911790556020828101518051600884019081558183015160098501556040820151600a850155606082015180519293919261215192600b8701920190614577565b506080820151805161216d916004840191602090910190614577565b5050506040828101518051600d8401908155602080830151600e86015592820151600f85015560608201518051929391926121ae9260108701920190614577565b50608082015180516121ca916004840191602090910190614577565b505050606082015180516121e89160128401916020909101906145fb565b5060808201516013820180547fffffffffffffffffffffffff00000000000000000000000000000000000000001673ffffffffffffffffffffffffffffffffffffffff90921691909117905560a0820151601482015560c0820151601582015560e082015160168201556101008083015160179092018054610120909401517fffffffffffffffffffffffffffffffffffffffffffffffffffffffffffff00009094169215157fffffffffffffffffffffffffffffffffffffffffffffffffffffffffffff00ff1692909217921515029190911790555050600f549695505050505050565b60008181526010602052604080822081516102408101909252805482906101408201908390829082906122ff90614fbd565b80601f016020809104026020016040519081016040528092919081815260200182805461232b90614fbd565b80156123785780601f1061234d57610100808354040283529160200191612378565b820191906000526020600020905b81548152906001019060200180831161235b57829003601f168201915b5050505050815260200160018201805461239190614fbd565b80601f01602080910402602001604051908101604052809291908181526020018280546123bd90614fbd565b801561240a5780601f106123df5761010080835404028352916020019161240a565b820191906000526020600020905b8154815290600101906020018083116123ed57829003601f168201915b50505091835250506002820154602082015260038201546040820152600482015473ffffffffffffffffffffffffffffffffffffffff16606082015260058201805460809092019161245b90614fbd565b80601f016020809104026020016040519081016040528092919081815260200182805461248790614fbd565b80156124d45780601f106124a9576101008083540402835291602001916124d4565b820191906000526020600020905b8154815290600101906020018083116124b757829003601f168201915b50505050508152602001600682015481526020016007820160009054906101000a900460ff1615151515815250508152602001600882016040518060a001604052908160008201548152602001600182015481526020016002820154815260200160038201805461254490614fbd565b80601f016020809104026020016040519081016040528092919081815260200182805461257090614fbd565b80156125bd5780601f10612592576101008083540402835291602001916125bd565b820191906000526020600020905b8154815290600101906020018083116125a057829003601f168201915b505050505081526020016004820180546125d690614fbd565b80601f016020809104026020016040519081016040528092919081815260200182805461260290614fbd565b801561264f5780601f106126245761010080835404028352916020019161264f565b820191906000526020600020905b81548152906001019060200180831161263257829003601f168201915b5050505050815250508152602001600d82016040518060a001604052908160008201548152602001600182015481526020016002820154815260200160038201805461269a90614fbd565b80601f01602080910402602001604051908101604052809291908181526020018280546126c690614fbd565b80156127135780601f106126e857610100808354040283529160200191612713565b820191906000526020600020905b8154815290600101906020018083116126f657829003601f168201915b5050505050815260200160048201805461272c90614fbd565b80601f016020809104026020016040519081016040528092919081815260200182805461275890614fbd565b80156127a55780601f1061277a576101008083540402835291602001916127a5565b820191906000526020600020905b81548152906001019060200180831161278857829003601f168201915b50505050508152505081526020016012820180548060200260200160405190810160405280929190818152602001828054801561280157602002820191906000526020600020905b8154815260200190600101908083116127ed575b5050509183525050601382015473ffffffffffffffffffffffffffffffffffffffff166020808301919091526014830154604080840191909152601584015460608401526016840154608084015260179093015460ff808216151560a08501526101009091048116151560c09093019290925260e08401516000908152600a9091529190912060070154919250166128f5576040517f08c379a000000000000000000000000000000000000000000000000000000000815260206004820152601a60248201527f494e56414c49443a2042414c4c4f545f5354494c4c5f4f50454e0000000000006044820152606401611129565b600082815260116020908152604080832033845290915290205460ff1615612979576040517f08c379a000000000000000000000000000000000000000000000000000000000815260206004820152601c60248201527f494e56414c49443a2043414e5f4f4e4c595f434c41494d5f4f4e4345000000006044820152606401611129565b61012081015115156001146129ea576040517f08c379a000000000000000000000000000000000000000000000000000000000815260206004820152601960248201527f494e56414c49443a2056455253494f4e5f52454a4543544544000000000000006044820152606401611129565b6000601660008481526020019081526020016000206040518060e001604052908160008201548152602001600182015481526020016002820154815260200160038201548152602001600482015481526020016005820154815260200160068201548152505090506000601760008581526020019081526020016000206040518060e001604052908160008201548152602001600182015481526020016002820154815260200160038201548152602001600482015481526020016005820154815260200160068201548152505090506000612ac583613ff3565b90506000612ad283613ff3565b608080860151604080518a8152602081019290925281018590523360608201529192507f05e5c9b248e254567ca15790a9819305964904f68019d07432cf64fa05f2b495910160405180910390a160808084015160408051898152602081019290925281018390523360608201527f05e5c9b248e254567ca15790a9819305964904f68019d07432cf64fa05f2b495910160405180910390a150505060e0909101516000908152600b60209081526040808320338452909152902080547fffffffffffffffffffffffffffffffffffffffffffffffffffffffffffffff001660011790555050565b60085473ffffffffffffffffffffffffffffffffffffffff163314612c3b576040517f08c379a000000000000000000000000000000000000000000000000000000000815260206004820152601d60248201527f554e415554484f52495a45443a204f4e4c595f474f5645524e414e43450000006044820152606401611129565b600355565b60085473ffffffffffffffffffffffffffffffffffffffff163314612cc1576040517f08c379a000000000000000000000000000000000000000000000000000000000815260206004820152601d60248201527f554e415554484f52495a45443a204f4e4c595f474f5645524e414e43450000006044820152606401611129565b600255565b600054610100900460ff1615808015612ce65750600054600160ff909116105b80612d005750303b158015612d00575060005460ff166001145b612d8c576040517f08c379a000000000000000000000000000000000000000000000000000000000815260206004820152602e60248201527f496e697469616c697a61626c653a20636f6e747261637420697320616c72656160448201527f647920696e697469616c697a65640000000000000000000000000000000000006064820152608401611129565b600080547fffffffffffffffffffffffffffffffffffffffffffffffffffffffffffffff001660011790558015612dea57600080547fffffffffffffffffffffffffffffffffffffffffffffffffffffffffffff00ff166101001790555b60075473ffffffffffffffffffffffffffffffffffffffff163314612e91576040517f08c379a000000000000000000000000000000000000000000000000000000000815260206004820152602360248201527f554e415554484f52495a45443a2043414e4e4f545f504552464f524d5f41435460448201527f494f4e00000000000000000000000000000000000000000000000000000000006064820152608401611129565b612e9b8483611287565b6014805473ffffffffffffffffffffffffffffffffffffffff8088167fffffffffffffffffffffffff0000000000000000000000000000000000000000928316811790935560158054831690931790925560128054928616928216831790556013805490911690911790558015612f6557600080547fffffffffffffffffffffffffffffffffffffffffffffffffffffffffffff00ff169055604051600181527f7f26b83ff96e1f2b6a682f133852f6798a09c465da95921460cefb38474024989060200161109e565b5050505050565b6000818152600a6020526040812060070154819062010000900460ff161515600114612ff4576040517f08c379a000000000000000000000000000000000000000000000000000000000815260206004820152601960248201527f494e56414c49443a2042414c4c4f545f4e4f545f464f554e44000000000000006044820152606401611129565b6000838152600a6020526040902060060154431161306e576040517f08c379a000000000000000000000000000000000000000000000000000000000815260206004820152601d60248201527f494e56414c49443a20564f54494e475f54494d455f4e4f545f4f5645520000006044820152606401611129565b6000838152600a602052604090206007015460ff16156130ea576040517f08c379a000000000000000000000000000000000000000000000000000000000815260206004820181905260248201527f494e56414c49443a20524553554c545f414c52454144595f4445434c415245446044820152606401611129565b6000838152600a602052604080822060018082015460038301546007840180547fffffffffffffffffffffffffffffffffffffffffffffffffffffffffffffff0016909317909255600580549084015494517f036c22ad000000000000000000000000000000000000000000000000000000008152939591949293919273ffffffffffffffffffffffffffffffffffffffff9091169163036c22ad916131969160040190815260200190565b602060405180830381865afa1580156131b3573d6000803e3d6000fd5b505050506040513d601f19601f820116820180604052508101906131d79190615071565b90506000606480600354846131ec9190615430565b6131f6919061546d565b613200919061546d565b90508061320d85856154a8565b111561327a578315613269576000606461322785876154a8565b613232906042615430565b61323c919061546d565b90508085111561325757506001988998509650505050505050565b50600098600198509650505050505050565b506000976001975095505050505050565b5060009788975095505050505050565b6000818152600d602052604090206003015460ff610100909104161515600114613310576040517f08c379a000000000000000000000000000000000000000000000000000000000815260206004820152600d60248201527f4445505f4e4f545f4558495354000000000000000000000000000000000000006044820152606401611129565b6000818152600d602052604090206003015460ff161561338c576040517f08c379a000000000000000000000000000000000000000000000000000000000815260206004820152601360248201527f4445505f414c52454144595f434c41494d4544000000000000000000000000006044820152606401611129565b6000818152600d60205260408082208054600290910154915173ffffffffffffffffffffffffffffffffffffffff90911691908381818185875af1925050503d80600081146133f7576040519150601f19603f3d011682016040523d82523d6000602084013e6133fc565b606091505b5050905080613467576040517f08c379a000000000000000000000000000000000000000000000000000000000815260206004820152600d60248201527f494e565f4445505f434c41494d000000000000000000000000000000000000006044820152606401611129565b6000828152600d60209081526040918290208054600290910154835173ffffffffffffffffffffffffffffffffffffffff9092168252918101859052918201527f6b1069552f63b401b74bc71e75594d0a8bc61f7a42998e0f201b78f9aa600d329060600160405180910390a15050565b6005546040517f036c22ad00000000000000000000000000000000000000000000000000000000815260048101869052859160009173ffffffffffffffffffffffffffffffffffffffff9091169063036c22ad90602401602060405180830381865afa15801561354c573d6000803e3d6000fd5b505050506040513d601f19601f820116820180604052508101906135709190615071565b90506000841561358c576135858989866141b7565b905061359a565b613597898986614278565b90505b60006040518060e00160405280670de0b6b3a7640000856135bb919061546d565b81526020018b602001518152602001888152602001858152602001838152602001670de0b6b3a7640000856135f0919061546d565b8c602001516135ff919061546d565b8152600554604080517f9711715a000000000000000000000000000000000000000000000000000000008152905160209384019373ffffffffffffffffffffffffffffffffffffffff90931692639711715a926004808201939182900301816000875af1158015613674573d6000803e3d6000fd5b505050506040513d601f19601f820116820180604052508101906136989190615071565b81525090507f70ca97bed53efc5c77b3772fd7dd916c4712482aeef3a17d25dfad3bff28f86d87826000015183602001518460600151868660a001518760c001516040516137179796959493929190968752602087019590955260408601939093526060850191909152608084015260a083015260c082015260e00190565b60405180910390a1851561377b5760008781526016602090815260409182902083518155908301516001820155908201516002820155606082015160038201556080820151600482015560a0820151600582015560c08201516006909101556137cd565b60008781526017602090815260409182902083518155908301516001820155908201516002820155606082015160038201556080820151600482015560a0820151600582015560c08201516006909101555b50505050505050505050565b6000828152600a60205260409020600701548290339062010000900460ff161515600114613863576040517f08c379a000000000000000000000000000000000000000000000000000000000815260206004820152601960248201527f494e56414c49443a2042414c4c4f545f4e4f545f464f554e44000000000000006044820152606401611129565b6000828152600a602052604090206006015443106138dd576040517f08c379a000000000000000000000000000000000000000000000000000000000815260206004820152601960248201527f494e56414c49443a20564f54494e475f54494d455f4f564552000000000000006044820152606401611129565b6000828152600b6020908152604080832073ffffffffffffffffffffffffffffffffffffffff8516845290915290205460ff1615613977576040517f08c379a000000000000000000000000000000000000000000000000000000000815260206004820152601660248201527f494e56414c49443a20414c52454144595f564f544544000000000000000000006044820152606401611129565b6000848152600a60205260409020600701548490610100900460ff1615613a21576000818152600b6020908152604080832032845290915290205460ff1615613a1c576040517f08c379a000000000000000000000000000000000000000000000000000000000815260206004820152601660248201527f494e56414c49443a20414c52454144595f564f544544000000000000000000006044820152606401611129565b613aaf565b6000818152600a602052604090205473ffffffffffffffffffffffffffffffffffffffff16321415613aaf576040517f08c379a000000000000000000000000000000000000000000000000000000000815260206004820152601f60248201527f554e415554484f52495a45443a204f574e45525f43414e4e4f545f564f5445006044820152606401611129565b612f658585326142ee565b6000848152600b6020908152604080832073ffffffffffffffffffffffffffffffffffffffff8716845290915290205460ff161515600114613b7e576040517f08c379a000000000000000000000000000000000000000000000000000000000815260206004820152602560248201527f494e56414c49443a20494e5445524e414c3a20555345525f4841535f4e4f545f60448201527f564f5445440000000000000000000000000000000000000000000000000000006064820152608401611129565b6000848152600c6020908152604080832073ffffffffffffffffffffffffffffffffffffffff8716845290915290205460ff168015613c09576000858152600a602052604081206001018054859290613bd89084906150e8565b90915550506000858152600a602052604081206001018054849290613bfe9084906154a8565b90915550612f659050565b6000858152600a602052604081206003018054859290613c2a9084906150e8565b90915550506000858152600a602052604081206003018054849290613c509084906154a8565b90915550505050505050565b6009805460009182613c6d83615163565b919050555060006040518061014001604052803273ffffffffffffffffffffffffffffffffffffffff1681526020016000815260200160008152602001600081526020016000815260200184815260200160025443613ccc91906154a8565b81526000602080830182905296151560408084019190915260016060938401819052600980548452600a8a5292829020855181547fffffffffffffffffffffffff00000000000000000000000000000000000000001673ffffffffffffffffffffffffffffffffffffffff909116178155988501519089015583015160028801559082015160038701556080820151600487015560a0820151600587015560c0820151600687015560e08201516007909601805461010080850151610120909501517fffffffffffffffffffffffffffffffffffffffffffffffffffffffffffff00009092169815157fffffffffffffffffffffffffffffffffffffffffffffffffffffffffffff00ff1698909817931515909702929092177fffffffffffffffffffffffffffffffffffffffffffffffffffffffffff00ffff16620100009615159690960295909517905550509054919050565b8160015414613e8c576040517f08c379a000000000000000000000000000000000000000000000000000000000815260206004820152600760248201527f494e565f444550000000000000000000000000000000000000000000000000006044820152606401611129565b6040805160a0808201835273ffffffffffffffffffffffffffffffffffffffff861680835260208084018690526001805485870181905260006060808801829052608080890185905289519687529486018a9052858901929092529084015290820152925191927f58ac581930e3170185d9c86e70eceabd7254c9eee2c1df3b76e38f030645ec3d929081900390910190a16000918252600d6020908152604092839020825181547fffffffffffffffffffffffff00000000000000000000000000000000000000001673ffffffffffffffffffffffffffffffffffffffff9091161781559082015160018201559181015160028301556060810151600390920180546080909201517fffffffffffffffffffffffffffffffffffffffffffffffffffffffffffff00009092169215157fffffffffffffffffffffffffffffffffffffffffffffffffffffffffffff00ff1692909217610100911515919091021790555050565b60135460c082015160608301516040517f626da06800000000000000000000000000000000000000000000000000000000815233600482015260248101929092526044820152600091829173ffffffffffffffffffffffffffffffffffffffff9091169063626da06890606401602060405180830381865afa15801561407d573d6000803e3d6000fd5b505050506040513d601f19601f820116820180604052508101906140a19190615071565b9050806140b15750600092915050565b6000670de0b6b3a7640000828560a001516140cc9190615430565b6140d6919061546d565b905080156141b05760135460808501516040517ff242432a00000000000000000000000000000000000000000000000000000000815230600482015233602482015260448101919091526064810183905260a06084820152602060a48201527f494e56414c49443a20524f59414c54595f414c52454144595f434c41494d454460c482015273ffffffffffffffffffffffffffffffffffffffff9091169063f242432a9060e401600060405180830381600087803b15801561419757600080fd5b505af11580156141ab573d6000803e3d6000fd5b505050505b9392505050565b600554835160408086015160608701516080880151602089015193517f54d4f71900000000000000000000000000000000000000000000000000000000815260009673ffffffffffffffffffffffffffffffffffffffff16956354d4f7199561422d958b95929490939091908b906004016154c0565b6020604051808303816000875af115801561424c573d6000803e3d6000fd5b505050506040513d601f19601f820116820180604052508101906142709190615071565b949350505050565b600554835160408086015160608701516080880151602089015193517f1e62247600000000000000000000000000000000000000000000000000000000815260009673ffffffffffffffffffffffffffffffffffffffff1695631e6224769561422d958b95929490939091908b906004016154c0565b6000838152600a60209081526040808320815161014081018352815473ffffffffffffffffffffffffffffffffffffffff908116825260018301549482019490945260028201548184015260038201546060820152600480830154608083015260058084015460a08401819052600685015460c085015260079094015460ff808216151560e08601526101008083048216151590860152620100009091041615156101208401525493517efdd58e000000000000000000000000000000000000000000000000000000008152919594939093169262fdd58e926143f49288920173ffffffffffffffffffffffffffffffffffffffff929092168252602082015260400190565b602060405180830381865afa158015614411573d6000803e3d6000fd5b505050506040513d601f19601f820116820180604052508101906144359190615071565b90508315614490576000858152600a60205260408120600101805483929061445e9084906154a8565b90915550506000858152600a602052604081206002018054600192906144859084906154a8565b909155506144de9050565b6000858152600a6020526040812060030180548392906144b19084906154a8565b90915550506000858152600a602052604081206004018054600192906144d89084906154a8565b90915550505b50506000838152600b6020908152604080832073ffffffffffffffffffffffffffffffffffffffff94909416808452938252808320805460017fffffffffffffffffffffffffffffffffffffffffffffffffffffffffffffff009182168117909255878552600c8452828520958552948352818420805490951695151595909517909355600e8152918120805493840181558152200155565b82805461458390614fbd565b90600052602060002090601f0160209004810192826145a557600085556145eb565b82601f106145be57805160ff19168380011785556145eb565b828001600101855582156145eb579182015b828111156145eb5782518255916020019190600101906145d0565b506145f7929150614635565b5090565b8280548282559060005260206000209081019282156145eb57916020028201828111156145eb5782518255916020019190600101906145d0565b5b808211156145f75760008155600101614636565b60006020828403121561465c57600080fd5b5035919050565b60006020828403121561467557600080fd5b81357fffffffff00000000000000000000000000000000000000000000000000000000811681146141b057600080fd5b80151581146146b357600080fd5b50565b600080604083850312156146c957600080fd5b8235915060208301356146db816146a5565b809150509250929050565b73ffffffffffffffffffffffffffffffffffffffff811681146146b357600080fd5b60006020828403121561471a57600080fd5b81356141b0816146e6565b6000806040838503121561473857600080fd5b8235614743816146e6565b915060208301356146db816146e6565b60005b8381101561476e578181015183820152602001614756565b8381111561477d576000848401525b50505050565b6000815180845261479b816020860160208601614753565b601f017fffffffffffffffffffffffffffffffffffffffffffffffffffffffffffffffe0169290920160200192915050565b600061010082518185526147e382860182614783565b915050602083015184820360208601526147fd8282614783565b915050604083015160408501526060830151606085015273ffffffffffffffffffffffffffffffffffffffff608084015116608085015260a083015184820360a086015261484b8282614783565b91505060c083015160c085015260e083015161486b60e086018215159052565b509392505050565b8051825260208101516020830152604081015160408301526000606082015160a060608501526148a660a0850182614783565b9050608083015184820360808601526148bf8282614783565b95945050505050565b60006101208083526148dc8184018d6147cd565b905082810360208401526148f0818c614873565b90508281036040840152614904818b614873565b73ffffffffffffffffffffffffffffffffffffffff9990991660608401525050608081019590955260a085019390935260c0840191909152151560e08301521515610100909101529392505050565b6000806040838503121561496657600080fd5b8235915060208301356146db816146e6565b6000806000806080858703121561498e57600080fd5b8435614999816146e6565b966020860135965060408601359560600135945092505050565b7f4e487b7100000000000000000000000000000000000000000000000000000000600052604160045260246000fd5b60405160e0810167ffffffffffffffff81118282101715614a0557614a056149b3565b60405290565b604051610100810167ffffffffffffffff81118282101715614a0557614a056149b3565b604051601f82017fffffffffffffffffffffffffffffffffffffffffffffffffffffffffffffffe016810167ffffffffffffffff81118282101715614a7657614a766149b3565b604052919050565b600067ffffffffffffffff821115614a9857614a986149b3565b50601f017fffffffffffffffffffffffffffffffffffffffffffffffffffffffffffffffe01660200190565b600082601f830112614ad557600080fd5b8135614ae8614ae382614a7e565b614a2f565b818152846020838601011115614afd57600080fd5b816020850160208301376000918101602001919091529392505050565b600082601f830112614b2b57600080fd5b8135602067ffffffffffffffff821115614b4757614b476149b3565b8160051b614b56828201614a2f565b9283528481018201928281019087851115614b7057600080fd5b83870192505b84831015614b8f57823582529183019190830190614b76565b979650505050505050565b600060a08284031215614bac57600080fd5b60405160a0810167ffffffffffffffff8282108183111715614bd057614bd06149b3565b816040528293508435835260208501356020840152604085013560408401526060850135915080821115614c0357600080fd5b614c0f86838701614ac4565b60608401526080850135915080821115614c2857600080fd5b50614c3585828601614ac4565b6080830152505092915050565b8035614c4d816146e6565b919050565b600080600060608486031215614c6757600080fd5b833567ffffffffffffffff80821115614c7f57600080fd5b9085019060e08288031215614c9357600080fd5b614c9b6149e2565b823582811115614caa57600080fd5b614cb689828601614ac4565b825250602083013582811115614ccb57600080fd5b614cd789828601614ac4565b602083015250604083013582811115614cef57600080fd5b614cfb89828601614ac4565b60408301525060608301356060820152608083013582811115614d1d57600080fd5b614d2989828601614b1a565b60808301525060a083013582811115614d4157600080fd5b614d4d89828601614b9a565b60a08301525060c083013582811115614d6557600080fd5b614d7189828601614b9a565b60c0830152509450614d8891505060208501614c42565b9150604084013590509250925092565b60008083601f840112614daa57600080fd5b50813567ffffffffffffffff811115614dc257600080fd5b6020830191508360208260051b8501011115614ddd57600080fd5b9250929050565b60008083601f840112614df657600080fd5b50813567ffffffffffffffff811115614e0e57600080fd5b602083019150836020828501011115614ddd57600080fd5b60008060008060008060008060a0898b031215614e4257600080fd5b8835614e4d816146e6565b97506020890135614e5d816146e6565b9650604089013567ffffffffffffffff80821115614e7a57600080fd5b614e868c838d01614d98565b909850965060608b0135915080821115614e9f57600080fd5b614eab8c838d01614d98565b909650945060808b0135915080821115614ec457600080fd5b50614ed18b828c01614de4565b999c989b5096995094979396929594505050565b60008060008060008060a08789031215614efe57600080fd5b8635614f09816146e6565b95506020870135614f19816146e6565b94506040870135935060608701359250608087013567ffffffffffffffff811115614f4357600080fd5b614f4f89828a01614de4565b979a9699509497509295939492505050565b60008060008060808587031215614f7757600080fd5b8435614f82816146e6565b93506020850135614f92816146e6565b92506040850135614fa2816146e6565b91506060850135614fb2816146e6565b939692955090935050565b600181811c90821680614fd157607f821691505b6020821081141561500b577f4e487b7100000000000000000000000000000000000000000000000000000000600052602260045260246000fd5b50919050565b600081518084526020808501945080840160005b8381101561504157815187529582019590820190600101615025565b509495945050505050565b60408152600061505f60408301856147cd565b82810360208401526148bf8185615011565b60006020828403121561508357600080fd5b5051919050565b7f4e487b7100000000000000000000000000000000000000000000000000000000600052603260045260246000fd5b7f4e487b7100000000000000000000000000000000000000000000000000000000600052601160045260246000fd5b6000828210156150fa576150fa6150b9565b500390565b7f4e487b7100000000000000000000000000000000000000000000000000000000600052603160045260246000fd5b60008161513d5761513d6150b9565b507fffffffffffffffffffffffffffffffffffffffffffffffffffffffffffffffff0190565b60007fffffffffffffffffffffffffffffffffffffffffffffffffffffffffffffffff821415615195576151956150b9565b5060010190565b8051614c4d816146a5565b6000602082840312156151b957600080fd5b81516141b0816146a5565b6040815260006151d76040830185614783565b82810360208401526148bf8185614783565b86815260c06020820152600061520260c0830188614783565b82810360408401526152148188614783565b905082810360608401526152288187614783565b73ffffffffffffffffffffffffffffffffffffffff959095166080840152505060a00152949350505050565b600082601f83011261526557600080fd5b8151615273614ae382614a7e565b81815284602083860101111561528857600080fd5b614270826020830160208701614753565b8051614c4d816146e6565b6000602082840312156152b657600080fd5b815167ffffffffffffffff808211156152ce57600080fd5b9083019061010082860312156152e357600080fd5b6152eb614a0b565b8251828111156152fa57600080fd5b61530687828601615254565b82525060208301518281111561531b57600080fd5b61532787828601615254565b602083015250604083015160408201526060830151606082015261534d60808401615299565b608082015260a08301518281111561536457600080fd5b61537087828601615254565b60a08301525060c083015160c082015261538c60e0840161519c565b60e082015295945050505050565b60006101208b83528060208401526153b48184018c6147cd565b905082810360408401526153c8818b614873565b905082810360608401526153dc818a614873565b905082810360808401526153f08189615011565b91505073ffffffffffffffffffffffffffffffffffffffff861660a08301528460c08301528360e0830152826101008301529a9950505050505050505050565b6000817fffffffffffffffffffffffffffffffffffffffffffffffffffffffffffffffff0483118215151615615468576154686150b9565b500290565b6000826154a3577f4e487b7100000000000000000000000000000000000000000000000000000000600052601260045260246000fd5b500490565b600082198211156154bb576154bb6150b9565b500190565b87815286602082015285604082015260e0606082015260006154e560e0830187614783565b82810360808401526154f78187614783565b9150508360a083015273ffffffffffffffffffffffffffffffffffffffff831660c08301529897505050505050505056fea2646970667358221220ff965e35ff355087c79411df9c9d51e123bdd68ffe3779a0db6b8ca0e782dc6b64736f6c634300080c0033",
  "immutableReferences": {},
  "source": "pragma solidity ^0.8.0;\n\nimport \"@openzeppelin/contracts/token/ERC1155/extensions/ERC1155Supply.sol\";\nimport \"@openzeppelin/contracts/utils/Counters.sol\";\nimport \"@openzeppelin/contracts/access/Ownable.sol\";\nimport \"@openzeppelin/contracts/token/ERC1155/IERC1155Receiver.sol\";\nimport \"./interface/IContribution.sol\";\nimport \"./Voting/BaseVotingContract.sol\";\nimport \"./interface/ITreasuryCore.sol\";\nimport \"./RecordsContract.sol\";\n\ncontract RecordsVotingContract is BaseVotingContract, IERC1155Receiver {\n    uint256 newVersionRequestId = 0;\n\n    // This mapping holds the data of new record version requests\n    mapping(uint256 => NewVersionRequest) public newVersionRequestMap;\n\n    // This mapping holds the the status of the claiming of the reward\n    // versionId => user address => status\n    mapping(uint256 => mapping(address => bool)) public rewardsClaimed;\n\n    // Address of the treasury core contracts\n    address public TREASURY_CORE_CONTRACT_ADDRESS;\n\n    ITreasuryCore public treasuryCoreContract;\n\n    // Address of the records contract\n    address public RECORDS_CONTRACT_ADDRESS;\n\n    RecordsContract public recordsContract;\n\n    /// @dev This is the token data for new version of record\n    /// @param totalSupply This is the total amount of tokens that will be created\n    /// @param oldContributorShare This is the amount of token that will be distributed among the previous record owners\n    /// @param userBalance Amount of tokens that user will keep to himself\n    /// @param symbol Symbol for the token\n    /// @param image Image for the token\n    struct NewVersionTokenStruct {\n        uint256 totalSupply;\n        uint256 oldContributorShare;\n        uint256 userBalance;\n        string symbol;\n        string image;\n    }\n\n    /// @dev This struct holds the data for new record version request\n    /// @param recordData Data for the new record\n    /// @param governanceToken New token data for governance token\n    /// @param communityToken New token data for community token\n    /// @param requester Owner of the request\n    /// @param oldVersionId Record id of old version\n    /// @param tokenId id of the token which will be used for voting\n    /// @param ballotId Id of the voting ballot\n    /// @param isPresent This is to check if the request with id is present or not\n    /// @param isAccepted The is the status of record that is accepted or not\n    struct NewVersionRequest {\n        RecordsContract.RecordStruct recordData;\n        NewVersionTokenStruct governanceToken;\n        NewVersionTokenStruct communityToken;\n        uint256[] contributionIds;\n        address requester;\n        uint256 oldVersionId;\n        uint256 tokenId;\n        uint256 ballotId;\n        bool isPresent;\n        bool isAccepted;\n    }\n\n    /// @dev This event is generated when New Record Version is created\n    /// @param requestId This is the id of the new record version request\n    /// @param recordData Data for the new record\n    /// @param governanceToken New token data for governance token\n    /// @param communityToken New token data for community token\n    /// @param requester Owner of the request\n    /// @param oldVersionId Record id of old version\n    /// @param tokenId id of the token which will be used for voting\n    /// @param ballotId Id of the voting ballot\n    event VersionRequest(\n        uint256 requestId,\n        RecordsContract.RecordStruct recordData,\n        NewVersionTokenStruct governanceToken,\n        NewVersionTokenStruct communityToken,\n        uint256[] contributionIds,\n        address requester,\n        uint256 oldVersionId,\n        uint256 tokenId,\n        uint256 ballotId\n    );\n\n    /// @dev This is when a vote is given by user.\n    /// @param voter Address of the voter\n    /// @param versionRequestId This is the id of the recordVersionRequest structure that is linked to this ballot\n    /// @param ballotId Id of the ballot where voting is stored\n    /// @param vote State of vote : true for yes and false for No\n    event NewVersionVoting(\n        address voter,\n        uint256 versionRequestId,\n        uint256 ballotId,\n        bool vote\n    );\n\n    /// @dev This is emitted when a voting ballot is created\n    /// @param requester Address of the requester\n    /// @param versionRequestId This is the id of the recordVersionRequest structure that is linked to this ballot\n    /// @param ballotId Id of the ballot where voting is stored\n    /// @param createdAt time when the ballot was created\n\n    event NewVersionVotingBallotCreated(\n        address requester,\n        uint256 versionRequestId,\n        uint256 ballotId,\n        uint256 createdAt\n    );\n\n    /// @dev this event is generated when result of a ballot is declared\n    /// @param versionReqId This is the id of newVersionRequest\n    /// @param tokenId This is the id of the token that is linked to this ballot\n    /// @param ballotId this is the ballot Id for which result is declared\n    /// @param result this is the status of the result\n    /// @param minTurnOut this status indicates if minimum amount of user showed up for voting\n    /// @param newRecordId this is the new record Id\n    event NewVersionRequestResult(\n        uint256 versionReqId,\n        uint256 tokenId,\n        uint256 ballotId,\n        bool result,\n        bool minTurnOut,\n        uint256 newRecordId\n    );\n\n    //------------------------------\n\n    ///@param tokenId it is the id of the token on which basis we distribute the reward\n    ///@param rewardTokenId it is the id of the new tokenId\n    struct NewVersionTokenDistributionStruct {\n        uint256 totalSupplyEther;\n        uint256 rewardAmountWei;\n        uint256 versionRequestId;\n        uint256 tokenId;\n        uint256 rewardTokenId;\n        uint256 rewardPerTokenWei;\n        uint256 snapshotId;\n    }\n\n    event NewVersionTokenDistribution(\n        uint256 versionRequestId,\n        uint256 totalSupplyEther,\n        uint256 rewardAmountWei,\n        uint256 tokenId,\n        uint256 rewardTokenId,\n        uint256 rewardPerTokenWei,\n        uint256 snapshotId\n    );\n\n    event NewTokenClaimed(\n        uint256 versionRequestId,\n        uint256 rewardTokenId,\n        uint256 rewardAmount,\n        address userAddress\n    );\n\n    // newVersionRequestId => tokenData\n    mapping(uint256 => NewVersionTokenDistributionStruct) newVersionGovTokenDistributionMapping;\n\n    mapping(uint256 => NewVersionTokenDistributionStruct) newVersionCommTokenDistributionMapping;\n\n    //------------------------------\n\n    constructor(address owner) BaseVotingContract(owner) {}\n\n    /// @dev This is to set the address of the contracts\n    /// @param recordsContractAddress New records contract address\n    /// @param treasuryContractAddress Takes the address of new treasury contract as parameter\n    /// @param treasuryCoreContractAddress Takes the address of new treasury core contract as parameter\n    /// @param newGovernanceContractAddress This is the address for the governance contract\n    function initialize(\n        address recordsContractAddress,\n        address treasuryContractAddress,\n        address treasuryCoreContractAddress,\n        address newGovernanceContractAddress\n    ) public initializer _ownerOnly {\n        BaseVotingContract.initialize(\n            treasuryContractAddress,\n            newGovernanceContractAddress\n        );\n        RECORDS_CONTRACT_ADDRESS = recordsContractAddress;\n        recordsContract = RecordsContract(RECORDS_CONTRACT_ADDRESS);\n        TREASURY_CORE_CONTRACT_ADDRESS = treasuryCoreContractAddress;\n        treasuryCoreContract = ITreasuryCore(TREASURY_CORE_CONTRACT_ADDRESS);\n    }\n\n    /// @dev This struct holds the required data for new version creation\n    /// @param name Name of the new record\n    /// @param image Cover photo of record\n    /// @param recordCategory string category of record\n    /// @param oldRecordId old record id\n    /// @param contributionIds list of contribution that are part of the new version\n    /// @param governanceToken this contains governance token details for new version of record\n    /// @param communityToken this contains community token details for new version of record\n    struct NewRecordVersionParams {\n        string name;\n        string image;\n        string recordCategory;\n        uint256 oldRecordId;\n        uint256[] contributionIds;\n        NewVersionTokenStruct governanceToken;\n        NewVersionTokenStruct communityToken;\n    }\n\n    /// @dev This function will create new record version from existing record\n    /// @param params required data for creation of new record version\n    /// @param platformWallet this is the UI providers wallet\n    /// @param platformFee this is the incentive amount for the UI maintainer\n    function createNewRecordVersion(\n        NewRecordVersionParams memory params,\n        address payable platformWallet,\n        uint256 platformFee\n    ) public payable returns (uint256) {\n        if (msg.value > 0) {\n            platformWallet.call{value: platformFee}(\"\");\n        }\n        {\n            recordsContract.validateNewRecordVersionParams(\n                params.oldRecordId,\n                params.governanceToken.totalSupply,\n                params.governanceToken.userBalance,\n                params.communityToken.totalSupply,\n                params.communityToken.userBalance\n            );\n        }\n\n        newVersionRequestId++;\n\n        uint256 votingTokenId = treasuryContract.getCommunityTokenId(\n            params.oldRecordId\n        );\n        uint256 ballotId = _createVoting(false, votingTokenId);\n        _createDeposit(msg.sender, msg.value - platformFee, ballotId);\n\n        treasuryContract.isSymbolAvailable(\n            params.governanceToken.symbol,\n            params.communityToken.symbol\n        );\n        treasuryContract.setSymbolsAsUsed(\n            params.governanceToken.symbol,\n            params.communityToken.symbol\n        );\n\n        RecordsContract.RecordStruct memory recordStruct = recordsContract\n            .createNewRecordVersion(\n                params.oldRecordId,\n                params.name,\n                params.image,\n                params.recordCategory,\n                msg.sender,\n                ballotId\n            );\n        NewVersionRequest memory newVersionRequest = NewVersionRequest({\n            recordData: recordStruct,\n            governanceToken: params.governanceToken,\n            communityToken: params.communityToken,\n            contributionIds: params.contributionIds,\n            requester: msg.sender,\n            oldVersionId: params.oldRecordId,\n            tokenId: votingTokenId,\n            ballotId: ballotId,\n            isPresent: true,\n            isAccepted: false\n        });\n\n        {\n            emit VersionRequest({\n                requestId: newVersionRequestId,\n                recordData: recordStruct,\n                governanceToken: params.governanceToken,\n                communityToken: params.communityToken,\n                contributionIds: params.contributionIds,\n                requester: msg.sender,\n                oldVersionId: params.oldRecordId,\n                tokenId: votingTokenId,\n                ballotId: ballotId\n            });\n\n            emit NewVersionVotingBallotCreated(\n                msg.sender,\n                newVersionRequestId,\n                ballotId,\n                block.timestamp\n            );\n        }\n\n        newVersionRequestMap[newVersionRequestId] = newVersionRequest;\n\n        return newVersionRequestId;\n    }\n\n    /// @dev This function is called by any user to cast vote\n    /// @param versionReqId this is the id of the new version request for which user is voting\n    /// @param vote this is the state of the vote, if true than it means the vote is in favour of the ballot\n    function castVote(uint256 versionReqId, bool vote) public {\n        require(\n            newVersionRequestMap[versionReqId].isPresent == true,\n            \"INVALID: INVALID_VERSION_REQ_ID\"\n        );\n\n        emit NewVersionVoting({\n            versionRequestId: versionReqId,\n            ballotId: newVersionRequestMap[versionReqId].ballotId,\n            voter: msg.sender,\n            vote: vote\n        });\n\n        super._castVote(versionReqId, vote);\n    }\n\n    /// @dev This function can be called from external source and also from within the contract\n    /// @param versionReqId this is the id of the new version request to which the winner is to be declared\n    function declareWinner(uint256 versionReqId) external {\n        NewVersionRequest memory req = newVersionRequestMap[versionReqId];\n\n        (bool result, bool minTurnOut) = _declareWinner(req.ballotId);\n        _releaseDeposit(req.ballotId);\n\n        uint256 recordId = 0;\n\n        if (result) {\n            recordId = recordsContract.createRecordFromData(\n                req.recordData,\n                req.contributionIds\n            );\n\n            // create new version and set the rewards for all the user\n            createToken(\n                req.governanceToken,\n                recordId,\n                treasuryContract.getCommunityTokenId(req.oldVersionId),\n                versionReqId,\n                true,\n                req.requester\n            );\n            createToken(\n                req.communityToken,\n                recordId,\n                treasuryContract.getCommunityTokenId(req.oldVersionId),\n                versionReqId,\n                false,\n                req.requester\n            );\n        }\n        newVersionRequestMap[versionReqId].isAccepted = result;\n\n        emit NewVersionRequestResult({\n            versionReqId: versionReqId,\n            tokenId: req.tokenId,\n            ballotId: req.ballotId,\n            result: result,\n            minTurnOut: minTurnOut,\n            newRecordId: recordId\n        });\n    }\n\n    /// @dev This function is for distributing of the tokens of new record version\n    /// @param versionReqId This is the version Request Id for which token needs to be claimed\n    function claimNewRecordTokens(uint256 versionReqId) public {\n        NewVersionRequest memory newVersionReq = newVersionRequestMap[\n            versionReqId\n        ];\n\n        require(\n            votingMap[newVersionReq.ballotId].isResultDeclared,\n            \"INVALID: BALLOT_STILL_OPEN\"\n        );\n\n        require(\n            rewardsClaimed[versionReqId][msg.sender] == false,\n            \"INVALID: CAN_ONLY_CLAIM_ONCE\"\n        );\n\n        require(newVersionReq.isAccepted == true, \"INVALID: VERSION_REJECTED\");\n\n        NewVersionTokenDistributionStruct\n            memory governanceToken = newVersionGovTokenDistributionMapping[\n                versionReqId\n            ];\n        NewVersionTokenDistributionStruct\n            memory communityToken = newVersionCommTokenDistributionMapping[\n                versionReqId\n            ];\n\n        uint256 govRewardAmount = calculateRewardTokens(governanceToken);\n        uint256 commRewardAmount = calculateRewardTokens(communityToken);\n\n        emit NewTokenClaimed({\n            versionRequestId: versionReqId,\n            rewardTokenId: governanceToken.rewardTokenId,\n            rewardAmount: govRewardAmount,\n            userAddress: msg.sender\n        });\n        emit NewTokenClaimed({\n            versionRequestId: versionReqId,\n            rewardTokenId: communityToken.rewardTokenId,\n            rewardAmount: commRewardAmount,\n            userAddress: msg.sender\n        });\n\n        alreadyVoted[newVersionReq.ballotId][msg.sender] = true;\n    }\n\n    /// @dev This function calculates the amount of token that a user will receive\n    /// @param tokenData This is the data of the token which is to be distributed\n    function calculateRewardTokens(\n        NewVersionTokenDistributionStruct memory tokenData\n    ) internal returns (uint256) {\n        uint256 tokenBal = treasuryCoreContract.balanceOfAt(\n            msg.sender,\n            tokenData.snapshotId,\n            tokenData.tokenId\n        );\n\n        if (tokenBal == 0) {\n            return 0;\n        }\n\n        uint256 rewardAmt = (tokenData.rewardPerTokenWei * tokenBal) / 1 ether;\n\n        if (rewardAmt > 0) {\n            treasuryCoreContract.safeTransferFrom(\n                address(this),\n                msg.sender,\n                tokenData.rewardTokenId,\n                rewardAmt,\n                \"INVALID: ROYALTY_ALREADY_CLAIMED\"\n            );\n        }\n\n        return rewardAmt;\n    }\n\n    function createToken(\n        NewVersionTokenStruct memory tokenData,\n        uint256 newRecordId,\n        uint256 decidingTokenId,\n        uint256 versionReqId,\n        bool isGovernanceToken,\n        address requester\n    ) internal {\n        uint256 tokenId = decidingTokenId;\n        uint256 totalSupply = treasuryContract.totalCirculatingSupply(tokenId);\n\n        uint256 newTokenId;\n        if (isGovernanceToken) {\n            newTokenId = createGovernanceToken(\n                tokenData,\n                newRecordId,\n                requester\n            );\n        } else {\n            newTokenId = createCommunityToken(\n                tokenData,\n                newRecordId,\n                requester\n            );\n        }\n\n        NewVersionTokenDistributionStruct\n            memory newVersionToken = NewVersionTokenDistributionStruct({\n                totalSupplyEther: totalSupply / 1 ether,\n                rewardAmountWei: tokenData.oldContributorShare,\n                versionRequestId: versionReqId,\n                tokenId: tokenId,\n                rewardTokenId: newTokenId,\n                rewardPerTokenWei: tokenData.oldContributorShare /\n                    (totalSupply / 1 ether),\n                snapshotId: treasuryContract.snapshot()\n            });\n\n        /* require(\n            newVersionToken.rewardPerTokenWei > 0,\n            \"INSUFFICIENT_AMOUNT: TOKEN_SHARE_PER_USER_IS_LOW\"\n        ); */\n\n        emit NewVersionTokenDistribution({\n            versionRequestId: versionReqId,\n            totalSupplyEther: newVersionToken.totalSupplyEther,\n            rewardAmountWei: newVersionToken.rewardAmountWei,\n            tokenId: newVersionToken.tokenId,\n            rewardTokenId: newTokenId,\n            rewardPerTokenWei: newVersionToken.rewardPerTokenWei,\n            snapshotId: newVersionToken.snapshotId\n        });\n\n        if (isGovernanceToken) {\n            newVersionGovTokenDistributionMapping[\n                versionReqId\n            ] = newVersionToken;\n        } else {\n            newVersionCommTokenDistributionMapping[\n                versionReqId\n            ] = newVersionToken;\n        }\n    }\n\n    function createGovernanceToken(\n        NewVersionTokenStruct memory tokenData,\n        uint256 recordId,\n        address owner\n    ) internal returns (uint256) {\n        return\n            treasuryContract.createNewGovernanceTokenNewRecordVersion(\n                recordId,\n                tokenData.totalSupply,\n                tokenData.userBalance,\n                tokenData.symbol,\n                tokenData.image,\n                tokenData.oldContributorShare,\n                owner\n            );\n    }\n\n    function createCommunityToken(\n        NewVersionTokenStruct memory tokenData,\n        uint256 recordId,\n        address owner\n    ) internal returns (uint256) {\n        return\n            treasuryContract.createNewCommunityTokenNewRecordVersion(\n                recordId,\n                tokenData.totalSupply,\n                tokenData.userBalance,\n                tokenData.symbol,\n                tokenData.image,\n                tokenData.oldContributorShare,\n                owner\n            );\n    }\n\n    function onERC1155Received(\n        address operator,\n        address from,\n        uint256 id,\n        uint256 value,\n        bytes calldata data\n    ) external virtual override returns (bytes4) {\n        return\n            bytes4(\n                keccak256(\n                    \"onERC1155Received(address,address,uint256,uint256,bytes)\"\n                )\n            );\n    }\n\n    function onERC1155BatchReceived(\n        address operator,\n        address from,\n        uint256[] calldata ids,\n        uint256[] calldata values,\n        bytes calldata data\n    ) external virtual override returns (bytes4) {\n        return\n            bytes4(\n                keccak256(\n                    \"onERC1155BatchReceived(address,address,uint256[],uint256[],bytes)\"\n                )\n            );\n    }\n\n    function supportsInterface(\n        bytes4 interfaceId\n    ) public view virtual override returns (bool) {}\n}\n",
  "sourcePath": "/Users/a1/Desktop/Office/projects/CrowdRecords/Contracts/contracts/RecordsVotingContract.sol",
  "compiler": {
    "name": "solc",
    "version": "0.8.12+commit.f00d7308.Emscripten.clang"
  },
  "schemaVersion": "3.4.6",
  "updatedAt": "2023-05-17T05:46:16.690Z",
  "networkType": "ethereum",
  "devdoc": {
    "events": {
      "NewVersionRequestResult(uint256,uint256,uint256,bool,bool,uint256)": {
        "details": "this event is generated when result of a ballot is declared",
        "params": {
          "ballotId": "this is the ballot Id for which result is declared",
          "minTurnOut": "this status indicates if minimum amount of user showed up for voting",
          "newRecordId": "this is the new record Id",
          "result": "this is the status of the result",
          "tokenId": "This is the id of the token that is linked to this ballot",
          "versionReqId": "This is the id of newVersionRequest"
        }
      },
      "NewVersionVoting(address,uint256,uint256,bool)": {
        "details": "This is when a vote is given by user.",
        "params": {
          "ballotId": "Id of the ballot where voting is stored",
          "versionRequestId": "This is the id of the recordVersionRequest structure that is linked to this ballot",
          "vote": "State of vote : true for yes and false for No",
          "voter": "Address of the voter"
        }
      },
      "NewVersionVotingBallotCreated(address,uint256,uint256,uint256)": {
        "details": "This is emitted when a voting ballot is created",
        "params": {
          "ballotId": "Id of the ballot where voting is stored",
          "createdAt": "time when the ballot was created",
          "requester": "Address of the requester",
          "versionRequestId": "This is the id of the recordVersionRequest structure that is linked to this ballot"
        }
      },
      "VersionRequest(uint256,(string,string,uint256,uint256,address,string,uint256,bool),(uint256,uint256,uint256,string,string),(uint256,uint256,uint256,string,string),uint256[],address,uint256,uint256,uint256)": {
        "details": "This event is generated when New Record Version is created",
        "params": {
          "ballotId": "Id of the voting ballot",
          "communityToken": "New token data for community token",
          "governanceToken": "New token data for governance token",
          "oldVersionId": "Record id of old version",
          "recordData": "Data for the new record",
          "requestId": "This is the id of the new record version request",
          "requester": "Owner of the request",
          "tokenId": "id of the token which will be used for voting"
        }
      }
    },
    "kind": "dev",
    "methods": {
      "_handleUserTokenTransfers(address,uint256,uint256,uint256)": {
        "details": "This function will be called when either user is transferring the tokens to other account, or is receiving tokens from other tokens.",
        "params": {
          "newBalance": "this is the new balance of the user that is after the transfer",
          "previousBalance": "this is the old balance of the user",
          "user": "address of the user whose balance is being changed"
        }
      },
      "castVote(uint256,bool)": {
        "details": "This function is called by any user to cast vote",
        "params": {
          "versionReqId": "this is the id of the new version request for which user is voting",
          "vote": "this is the state of the vote, if true than it means the vote is in favour of the ballot"
        }
      },
      "claimNewRecordTokens(uint256)": {
        "details": "This function is for distributing of the tokens of new record version",
        "params": {
          "versionReqId": "This is the version Request Id for which token needs to be claimed"
        }
      },
      "createNewRecordVersion((string,string,string,uint256,uint256[],(uint256,uint256,uint256,string,string),(uint256,uint256,uint256,string,string)),address,uint256)": {
        "details": "This function will create new record version from existing record",
        "params": {
          "params": "required data for creation of new record version",
          "platformFee": "this is the incentive amount for the UI maintainer",
          "platformWallet": "this is the UI providers wallet"
        }
      },
      "declareWinner(uint256)": {
        "details": "This function can be called from external source and also from within the contract",
        "params": {
          "versionReqId": "this is the id of the new version request to which the winner is to be declared"
        }
      },
      "initialize(address,address)": {
        "details": "This function sets the treasury Contract address and the governance address",
        "params": {
          "newGovernanceContractAddress": "This is the address for the governance contract",
          "newTreasuryContractAddress": "This is the new address of treasury contract"
        }
      },
      "initialize(address,address,address,address)": {
        "details": "This is to set the address of the contracts",
        "params": {
          "newGovernanceContractAddress": "This is the address for the governance contract",
          "recordsContractAddress": "New records contract address",
          "treasuryContractAddress": "Takes the address of new treasury contract as parameter",
          "treasuryCoreContractAddress": "Takes the address of new treasury core contract as parameter"
        }
      },
      "onERC1155BatchReceived(address,address,uint256[],uint256[],bytes)": {
        "details": "Handles the receipt of a multiple ERC1155 token types. This function is called at the end of a `safeBatchTransferFrom` after the balances have been updated. NOTE: To accept the transfer(s), this must return `bytes4(keccak256(\"onERC1155BatchReceived(address,address,uint256[],uint256[],bytes)\"))` (i.e. 0xbc197c81, or its own function selector).",
        "params": {
          "data": "Additional data with no specified format",
          "from": "The address which previously owned the token",
          "ids": "An array containing ids of each token being transferred (order and length must match values array)",
          "operator": "The address which initiated the batch transfer (i.e. msg.sender)",
          "values": "An array containing amounts of each token being transferred (order and length must match ids array)"
        },
        "returns": {
          "_0": "`bytes4(keccak256(\"onERC1155BatchReceived(address,address,uint256[],uint256[],bytes)\"))` if transfer is allowed"
        }
      },
      "onERC1155Received(address,address,uint256,uint256,bytes)": {
        "details": "Handles the receipt of a single ERC1155 token type. This function is called at the end of a `safeTransferFrom` after the balance has been updated. NOTE: To accept the transfer, this must return `bytes4(keccak256(\"onERC1155Received(address,address,uint256,uint256,bytes)\"))` (i.e. 0xf23a6e61, or its own function selector).",
        "params": {
          "data": "Additional data with no specified format",
          "from": "The address which previously owned the token",
          "id": "The ID of the token being transferred",
          "operator": "The address which initiated the transfer (i.e. msg.sender)",
          "value": "The amount of tokens being transferred"
        },
        "returns": {
          "_0": "`bytes4(keccak256(\"onERC1155Received(address,address,uint256,uint256,bytes)\"))` if transfer is allowed"
        }
      },
      "setDepositAmount(uint256)": {
        "details": "This function sets the VOTING_DEPOSIT percentage",
        "params": {
          "depositAmount": "This is the new deposit amount needed for creating ballot"
        }
      },
      "setMinTurnOut(uint256)": {
        "details": "This function sets the MIN_TURN_OUT percentage",
        "params": {
          "minTurnOut": "This is the new turnout percentage value"
        }
      },
      "setOwnerAddress(address)": {
        "details": "This function sets the owner address",
        "params": {
          "ownerAddress": "This is the address of the owner"
        }
      },
      "setVotingPeriod(uint256)": {
        "details": "This function sets the VOTING_BLOCK_PERIOD percentage",
        "params": {
          "votingPeriod": "This is the voting period"
        }
      },
      "supportsInterface(bytes4)": {
        "details": "Returns true if this contract implements the interface defined by `interfaceId`. See the corresponding https://eips.ethereum.org/EIPS/eip-165#how-interfaces-are-identified[EIP section] to learn more about how these ids are created. This function call must use less than 30 000 gas."
      }
    },
    "version": 1
  },
  "userdoc": {
    "kind": "user",
    "methods": {},
    "version": 1
  }
}