{
  "contractName": "RecordsVotingContract",
  "abi": [
    {
      "inputs": [
        {
          "internalType": "address",
          "name": "owner",
          "type": "address"
        }
      ],
      "stateMutability": "nonpayable",
      "type": "constructor"
    },
    {
      "anonymous": false,
      "inputs": [
        {
          "indexed": false,
          "internalType": "uint256",
          "name": "versionRequestId",
          "type": "uint256"
        },
        {
          "indexed": false,
          "internalType": "uint256",
          "name": "rewardTokenId",
          "type": "uint256"
        },
        {
          "indexed": false,
          "internalType": "uint256",
          "name": "rewardAmount",
          "type": "uint256"
        },
        {
          "indexed": false,
          "internalType": "address",
          "name": "userAddress",
          "type": "address"
        }
      ],
      "name": "NewTokenClaimed",
      "type": "event"
    },
    {
      "anonymous": false,
      "inputs": [
        {
          "indexed": false,
          "internalType": "uint256",
          "name": "versionReqId",
          "type": "uint256"
        },
        {
          "indexed": false,
          "internalType": "uint256",
          "name": "tokenId",
          "type": "uint256"
        },
        {
          "indexed": false,
          "internalType": "uint256",
          "name": "ballotId",
          "type": "uint256"
        },
        {
          "indexed": false,
          "internalType": "bool",
          "name": "result",
          "type": "bool"
        }
      ],
      "name": "NewVersionRequestResult",
      "type": "event"
    },
    {
      "anonymous": false,
      "inputs": [
        {
          "indexed": false,
          "internalType": "uint256",
          "name": "versionRequestId",
          "type": "uint256"
        },
        {
          "indexed": false,
          "internalType": "uint256",
          "name": "totalSupplyEther",
          "type": "uint256"
        },
        {
          "indexed": false,
          "internalType": "uint256",
          "name": "rewardAmountWei",
          "type": "uint256"
        },
        {
          "indexed": false,
          "internalType": "uint256",
          "name": "tokenId",
          "type": "uint256"
        },
        {
          "indexed": false,
          "internalType": "uint256",
          "name": "rewardTokenId",
          "type": "uint256"
        },
        {
          "indexed": false,
          "internalType": "uint256",
          "name": "rewardPerTokenWei",
          "type": "uint256"
        },
        {
          "indexed": false,
          "internalType": "uint256",
          "name": "snapshotId",
          "type": "uint256"
        }
      ],
      "name": "NewVersionTokenDistribution",
      "type": "event"
    },
    {
      "anonymous": false,
      "inputs": [
        {
          "indexed": false,
          "internalType": "address",
          "name": "voter",
          "type": "address"
        },
        {
          "indexed": false,
          "internalType": "uint256",
          "name": "versionRequestId",
          "type": "uint256"
        },
        {
          "indexed": false,
          "internalType": "uint256",
          "name": "ballotId",
          "type": "uint256"
        },
        {
          "indexed": false,
          "internalType": "bool",
          "name": "vote",
          "type": "bool"
        }
      ],
      "name": "NewVersionVoting",
      "type": "event"
    },
    {
      "anonymous": false,
      "inputs": [
        {
          "indexed": false,
          "internalType": "address",
          "name": "requester",
          "type": "address"
        },
        {
          "indexed": false,
          "internalType": "uint256",
          "name": "versionRequestId",
          "type": "uint256"
        },
        {
          "indexed": false,
          "internalType": "uint256",
          "name": "ballotId",
          "type": "uint256"
        }
      ],
      "name": "NewVersionVotingBallotCreated",
      "type": "event"
    },
    {
      "anonymous": false,
      "inputs": [
        {
          "indexed": false,
          "internalType": "uint256",
          "name": "requestId",
          "type": "uint256"
        },
        {
          "components": [
            {
              "internalType": "string",
              "name": "name",
              "type": "string"
            },
            {
              "internalType": "string",
              "name": "image",
              "type": "string"
            },
            {
              "internalType": "uint256",
              "name": "seedId",
              "type": "uint256"
            },
            {
              "internalType": "uint256",
              "name": "parentId",
              "type": "uint256"
            },
            {
              "internalType": "address",
              "name": "owner",
              "type": "address"
            },
            {
              "internalType": "string",
              "name": "recordCategory",
              "type": "string"
            },
            {
              "internalType": "uint256",
              "name": "creationDate",
              "type": "uint256"
            },
            {
              "internalType": "bool",
              "name": "isPresent",
              "type": "bool"
            }
          ],
          "indexed": false,
          "internalType": "struct RecordsContract.RecordStruct",
          "name": "recordData",
          "type": "tuple"
        },
        {
          "components": [
            {
              "internalType": "uint256",
              "name": "totalSupply",
              "type": "uint256"
            },
            {
              "internalType": "uint256",
              "name": "oldContributorShare",
              "type": "uint256"
            },
            {
              "internalType": "uint256",
              "name": "userBalance",
              "type": "uint256"
            },
            {
              "internalType": "string",
              "name": "symbol",
              "type": "string"
            },
            {
              "internalType": "string",
              "name": "image",
              "type": "string"
            }
          ],
          "indexed": false,
          "internalType": "struct RecordsVotingContract.NewVersionTokenStruct",
          "name": "governanceToken",
          "type": "tuple"
        },
        {
          "components": [
            {
              "internalType": "uint256",
              "name": "totalSupply",
              "type": "uint256"
            },
            {
              "internalType": "uint256",
              "name": "oldContributorShare",
              "type": "uint256"
            },
            {
              "internalType": "uint256",
              "name": "userBalance",
              "type": "uint256"
            },
            {
              "internalType": "string",
              "name": "symbol",
              "type": "string"
            },
            {
              "internalType": "string",
              "name": "image",
              "type": "string"
            }
          ],
          "indexed": false,
          "internalType": "struct RecordsVotingContract.NewVersionTokenStruct",
          "name": "communityToken",
          "type": "tuple"
        },
        {
          "indexed": false,
          "internalType": "uint256[]",
          "name": "contributionIds",
          "type": "uint256[]"
        },
        {
          "indexed": false,
          "internalType": "address",
          "name": "requester",
          "type": "address"
        },
        {
          "indexed": false,
          "internalType": "uint256",
          "name": "oldVersionId",
          "type": "uint256"
        },
        {
          "indexed": false,
          "internalType": "uint256",
          "name": "tokenId",
          "type": "uint256"
        },
        {
          "indexed": false,
          "internalType": "uint256",
          "name": "ballotId",
          "type": "uint256"
        }
      ],
      "name": "VersionRequest",
      "type": "event"
    },
    {
      "inputs": [],
      "name": "CONTRIBUTION_CONTRACT_ADDRESS",
      "outputs": [
        {
          "internalType": "address",
          "name": "",
          "type": "address"
        }
      ],
      "stateMutability": "view",
      "type": "function"
    },
    {
      "inputs": [],
      "name": "OWNER",
      "outputs": [
        {
          "internalType": "address",
          "name": "",
          "type": "address"
        }
      ],
      "stateMutability": "view",
      "type": "function"
    },
    {
      "inputs": [],
      "name": "RECORDS_CONTRACT_ADDRESS",
      "outputs": [
        {
          "internalType": "address",
          "name": "",
          "type": "address"
        }
      ],
      "stateMutability": "view",
      "type": "function"
    },
    {
      "inputs": [],
      "name": "TREASURY_CONTRACT_ADDRESS",
      "outputs": [
        {
          "internalType": "address",
          "name": "",
          "type": "address"
        }
      ],
      "stateMutability": "view",
      "type": "function"
    },
    {
      "inputs": [],
      "name": "TREASURY_CORE_CONTRACT_ADDRESS",
      "outputs": [
        {
          "internalType": "address",
          "name": "",
          "type": "address"
        }
      ],
      "stateMutability": "view",
      "type": "function"
    },
    {
      "inputs": [],
      "name": "TREASURY_HUB_ADDRESS",
      "outputs": [
        {
          "internalType": "address",
          "name": "",
          "type": "address"
        }
      ],
      "stateMutability": "view",
      "type": "function"
    },
    {
      "inputs": [
        {
          "internalType": "address",
          "name": "user",
          "type": "address"
        },
        {
          "internalType": "uint256",
          "name": "tokenId",
          "type": "uint256"
        },
        {
          "internalType": "uint256",
          "name": "previousBalance",
          "type": "uint256"
        },
        {
          "internalType": "uint256",
          "name": "newBalance",
          "type": "uint256"
        }
      ],
      "name": "_handleUserTokenTransfers",
      "outputs": [],
      "stateMutability": "nonpayable",
      "type": "function"
    },
    {
      "inputs": [
        {
          "internalType": "uint256",
          "name": "",
          "type": "uint256"
        }
      ],
      "name": "newVersionRequestMap",
      "outputs": [
        {
          "components": [
            {
              "internalType": "string",
              "name": "name",
              "type": "string"
            },
            {
              "internalType": "string",
              "name": "image",
              "type": "string"
            },
            {
              "internalType": "uint256",
              "name": "seedId",
              "type": "uint256"
            },
            {
              "internalType": "uint256",
              "name": "parentId",
              "type": "uint256"
            },
            {
              "internalType": "address",
              "name": "owner",
              "type": "address"
            },
            {
              "internalType": "string",
              "name": "recordCategory",
              "type": "string"
            },
            {
              "internalType": "uint256",
              "name": "creationDate",
              "type": "uint256"
            },
            {
              "internalType": "bool",
              "name": "isPresent",
              "type": "bool"
            }
          ],
          "internalType": "struct RecordsContract.RecordStruct",
          "name": "recordData",
          "type": "tuple"
        },
        {
          "components": [
            {
              "internalType": "uint256",
              "name": "totalSupply",
              "type": "uint256"
            },
            {
              "internalType": "uint256",
              "name": "oldContributorShare",
              "type": "uint256"
            },
            {
              "internalType": "uint256",
              "name": "userBalance",
              "type": "uint256"
            },
            {
              "internalType": "string",
              "name": "symbol",
              "type": "string"
            },
            {
              "internalType": "string",
              "name": "image",
              "type": "string"
            }
          ],
          "internalType": "struct RecordsVotingContract.NewVersionTokenStruct",
          "name": "governanceToken",
          "type": "tuple"
        },
        {
          "components": [
            {
              "internalType": "uint256",
              "name": "totalSupply",
              "type": "uint256"
            },
            {
              "internalType": "uint256",
              "name": "oldContributorShare",
              "type": "uint256"
            },
            {
              "internalType": "uint256",
              "name": "userBalance",
              "type": "uint256"
            },
            {
              "internalType": "string",
              "name": "symbol",
              "type": "string"
            },
            {
              "internalType": "string",
              "name": "image",
              "type": "string"
            }
          ],
          "internalType": "struct RecordsVotingContract.NewVersionTokenStruct",
          "name": "communityToken",
          "type": "tuple"
        },
        {
          "internalType": "address",
          "name": "requester",
          "type": "address"
        },
        {
          "internalType": "uint256",
          "name": "oldVersionId",
          "type": "uint256"
        },
        {
          "internalType": "uint256",
          "name": "tokenId",
          "type": "uint256"
        },
        {
          "internalType": "uint256",
          "name": "ballotId",
          "type": "uint256"
        },
        {
          "internalType": "bool",
          "name": "isPresent",
          "type": "bool"
        },
        {
          "internalType": "bool",
          "name": "isAccepted",
          "type": "bool"
        }
      ],
      "stateMutability": "view",
      "type": "function"
    },
    {
      "inputs": [
        {
          "internalType": "uint256",
          "name": "",
          "type": "uint256"
        },
        {
          "internalType": "uint256",
          "name": "",
          "type": "uint256"
        }
      ],
      "name": "recordContributions",
      "outputs": [
        {
          "internalType": "uint256",
          "name": "",
          "type": "uint256"
        }
      ],
      "stateMutability": "view",
      "type": "function"
    },
    {
      "inputs": [
        {
          "internalType": "uint256",
          "name": "",
          "type": "uint256"
        },
        {
          "internalType": "uint256",
          "name": "",
          "type": "uint256"
        }
      ],
      "name": "recordVersion",
      "outputs": [
        {
          "internalType": "uint256",
          "name": "",
          "type": "uint256"
        }
      ],
      "stateMutability": "view",
      "type": "function"
    },
    {
      "inputs": [
        {
          "internalType": "uint256",
          "name": "",
          "type": "uint256"
        }
      ],
      "name": "seedIdUsed",
      "outputs": [
        {
          "internalType": "bool",
          "name": "",
          "type": "bool"
        }
      ],
      "stateMutability": "view",
      "type": "function"
    },
    {
      "inputs": [
        {
          "internalType": "address",
          "name": "ownerAddress",
          "type": "address"
        }
      ],
      "name": "setOwnerAddress",
      "outputs": [],
      "stateMutability": "nonpayable",
      "type": "function"
    },
    {
      "inputs": [
        {
          "internalType": "address",
          "name": "contributionContractAddress",
          "type": "address"
        }
      ],
      "name": "setContributionContractAddress",
      "outputs": [],
      "stateMutability": "nonpayable",
      "type": "function"
    },
    {
      "inputs": [
        {
          "internalType": "address",
          "name": "recordsContractAddress",
          "type": "address"
        }
      ],
      "name": "setRecordsContractAddress",
      "outputs": [],
      "stateMutability": "nonpayable",
      "type": "function"
    },
    {
      "inputs": [
        {
          "internalType": "address",
          "name": "treasuryContractAddress",
          "type": "address"
        }
      ],
      "name": "setTreasuryContractAddress",
      "outputs": [],
      "stateMutability": "nonpayable",
      "type": "function"
    },
    {
      "inputs": [
        {
          "internalType": "address",
          "name": "treasuryCoreContractAddress",
          "type": "address"
        }
      ],
      "name": "setTreasuryCoreContractAddress",
      "outputs": [],
      "stateMutability": "nonpayable",
      "type": "function"
    },
    {
      "inputs": [
        {
          "internalType": "uint256",
          "name": "recordId",
          "type": "uint256"
        },
        {
          "internalType": "uint256",
          "name": "contributionId",
          "type": "uint256"
        }
      ],
      "name": "pushContributionIdToContributionList",
      "outputs": [],
      "stateMutability": "nonpayable",
      "type": "function"
    },
    {
      "inputs": [
        {
          "components": [
            {
              "internalType": "string",
              "name": "name",
              "type": "string"
            },
            {
              "internalType": "string",
              "name": "image",
              "type": "string"
            },
            {
              "internalType": "string",
              "name": "recordCategory",
              "type": "string"
            },
            {
              "internalType": "uint256",
              "name": "oldRecordId",
              "type": "uint256"
            },
            {
              "internalType": "uint256[]",
              "name": "contributionIds",
              "type": "uint256[]"
            },
            {
              "components": [
                {
                  "internalType": "uint256",
                  "name": "totalSupply",
                  "type": "uint256"
                },
                {
                  "internalType": "uint256",
                  "name": "oldContributorShare",
                  "type": "uint256"
                },
                {
                  "internalType": "uint256",
                  "name": "userBalance",
                  "type": "uint256"
                },
                {
                  "internalType": "string",
                  "name": "symbol",
                  "type": "string"
                },
                {
                  "internalType": "string",
                  "name": "image",
                  "type": "string"
                }
              ],
              "internalType": "struct RecordsVotingContract.NewVersionTokenStruct",
              "name": "governanceToken",
              "type": "tuple"
            },
            {
              "components": [
                {
                  "internalType": "uint256",
                  "name": "totalSupply",
                  "type": "uint256"
                },
                {
                  "internalType": "uint256",
                  "name": "oldContributorShare",
                  "type": "uint256"
                },
                {
                  "internalType": "uint256",
                  "name": "userBalance",
                  "type": "uint256"
                },
                {
                  "internalType": "string",
                  "name": "symbol",
                  "type": "string"
                },
                {
                  "internalType": "string",
                  "name": "image",
                  "type": "string"
                }
              ],
              "internalType": "struct RecordsVotingContract.NewVersionTokenStruct",
              "name": "communityToken",
              "type": "tuple"
            }
          ],
          "internalType": "struct RecordsVotingContract.NewRecordVersionParams",
          "name": "params",
          "type": "tuple"
        }
      ],
      "name": "createNewRecordVersion",
      "outputs": [
        {
          "internalType": "uint256",
          "name": "",
          "type": "uint256"
        }
      ],
      "stateMutability": "nonpayable",
      "type": "function"
    },
    {
      "inputs": [
        {
          "internalType": "uint256",
          "name": "versionReqId",
          "type": "uint256"
        },
        {
          "internalType": "bool",
          "name": "vote",
          "type": "bool"
        }
      ],
      "name": "castVote",
      "outputs": [],
      "stateMutability": "nonpayable",
      "type": "function"
    },
    {
      "inputs": [
        {
          "internalType": "uint256",
          "name": "versionReqId",
          "type": "uint256"
        }
      ],
      "name": "declareWinner",
      "outputs": [],
      "stateMutability": "nonpayable",
      "type": "function"
    },
    {
      "inputs": [
        {
          "internalType": "uint256",
          "name": "versionReqId",
          "type": "uint256"
        }
      ],
      "name": "claimNewRecordTokens",
      "outputs": [],
      "stateMutability": "nonpayable",
      "type": "function"
    },
    {
      "inputs": [
        {
          "internalType": "address",
          "name": "operator",
          "type": "address"
        },
        {
          "internalType": "address",
          "name": "from",
          "type": "address"
        },
        {
          "internalType": "uint256",
          "name": "id",
          "type": "uint256"
        },
        {
          "internalType": "uint256",
          "name": "value",
          "type": "uint256"
        },
        {
          "internalType": "bytes",
          "name": "data",
          "type": "bytes"
        }
      ],
      "name": "onERC1155Received",
      "outputs": [
        {
          "internalType": "bytes4",
          "name": "",
          "type": "bytes4"
        }
      ],
      "stateMutability": "nonpayable",
      "type": "function"
    },
    {
      "inputs": [
        {
          "internalType": "address",
          "name": "operator",
          "type": "address"
        },
        {
          "internalType": "address",
          "name": "from",
          "type": "address"
        },
        {
          "internalType": "uint256[]",
          "name": "ids",
          "type": "uint256[]"
        },
        {
          "internalType": "uint256[]",
          "name": "values",
          "type": "uint256[]"
        },
        {
          "internalType": "bytes",
          "name": "data",
          "type": "bytes"
        }
      ],
      "name": "onERC1155BatchReceived",
      "outputs": [
        {
          "internalType": "bytes4",
          "name": "",
          "type": "bytes4"
        }
      ],
      "stateMutability": "nonpayable",
      "type": "function"
    },
    {
      "inputs": [
        {
          "internalType": "bytes4",
          "name": "interfaceId",
          "type": "bytes4"
        }
      ],
      "name": "supportsInterface",
      "outputs": [
        {
          "internalType": "bool",
          "name": "",
          "type": "bool"
        }
      ],
      "stateMutability": "view",
      "type": "function"
    }
  ],
  "bytecode": "0x60806040526019600055600060045560006009553480156200002057600080fd5b50604051620060aa380380620060aa8339818101604052810190620000469190620000fa565b8080600360006101000a81548173ffffffffffffffffffffffffffffffffffffffff021916908373ffffffffffffffffffffffffffffffffffffffff16021790555050506200012c565b600080fd5b600073ffffffffffffffffffffffffffffffffffffffff82169050919050565b6000620000c28262000095565b9050919050565b620000d481620000b5565b8114620000e057600080fd5b50565b600081519050620000f481620000c9565b92915050565b60006020828403121562000113576200011262000090565b5b60006200012384828501620000e3565b91505092915050565b615f6e806200013c6000396000f3fe608060405234801561001057600080fd5b50600436106101575760003560e01c806399728a45116100c3578063bc197c811161007c578063bc197c81146103e0578063c10df2cf14610410578063c768e2d61461042c578063dfe813eb14610448578063f23a6e6114610464578063f3cb67851461049457610157565b806399728a45146102f8578063abb7ed7f14610328578063acb3149314610344578063acf6beb614610362578063b512341e14610392578063ba19a675146103c257610157565b8063331a6bf511610115578063331a6bf51461021c5780634cf2d48f14610238578063556bed3a1461025457806358f0b6c1146102725780638d2ae1f7146102aa5780639505809f146102c857610157565b8062c2943c1461015c57806301ffc9a71461017857806307c505b7146101a8578063117803e3146101c657806315373e3d146101e457806329c50b5914610200575b600080fd5b61017660048036038101906101719190614132565b6104b0565b005b610192600480360381019061018d91906141b7565b610d6e565b60405161019f91906141ff565b60405180910390f35b6101b0610d75565b6040516101bd919061425b565b60405180910390f35b6101ce610d9b565b6040516101db919061425b565b60405180910390f35b6101fe60048036038101906101f991906142a2565b610dc1565b005b61021a6004803603810190610215919061430e565b610e8c565b005b6102366004803603810190610231919061430e565b610f60565b005b610252600480360381019061024d919061430e565b611034565b005b61025c6110d0565b604051610269919061425b565b60405180910390f35b61028c60048036038101906102879190614132565b6110f6565b6040516102a19998979695949392919061454b565b60405180910390f35b6102b2611666565b6040516102bf919061425b565b60405180910390f35b6102e260048036038101906102dd91906145ed565b61168c565b6040516102ef919061462d565b60405180910390f35b610312600480360381019061030d9190614a6f565b6116bd565b60405161031f919061462d565b60405180910390f35b610342600480360381019061033d9190614ab8565b611dca565b005b61034c611fc3565b604051610359919061425b565b60405180910390f35b61037c60048036038101906103779190614132565b611fe9565b60405161038991906141ff565b60405180910390f35b6103ac60048036038101906103a791906145ed565b612009565b6040516103b9919061462d565b60405180910390f35b6103ca61203a565b6040516103d7919061425b565b60405180910390f35b6103fa60048036038101906103f59190614bd0565b612060565b6040516104079190614cbb565b60405180910390f35b61042a600480360381019061042591906145ed565b612091565b005b61044660048036038101906104419190614132565b61215f565b005b610462600480360381019061045d919061430e565b612aee565b005b61047e60048036038101906104799190614cd6565b612bc2565b60405161048b9190614cbb565b60405180910390f35b6104ae60048036038101906104a9919061430e565b612bf1565b005b6000601060009054906101000a900473ffffffffffffffffffffffffffffffffffffffff1690506000600d600084815260200190815260200160002060405180610140016040529081600082016040518061010001604052908160008201805461051990614d9f565b80601f016020809104026020016040519081016040528092919081815260200182805461054590614d9f565b80156105925780601f1061056757610100808354040283529160200191610592565b820191906000526020600020905b81548152906001019060200180831161057557829003601f168201915b505050505081526020016001820180546105ab90614d9f565b80601f01602080910402602001604051908101604052809291908181526020018280546105d790614d9f565b80156106245780601f106105f957610100808354040283529160200191610624565b820191906000526020600020905b81548152906001019060200180831161060757829003601f168201915b5050505050815260200160028201548152602001600382015481526020016004820160009054906101000a900473ffffffffffffffffffffffffffffffffffffffff1673ffffffffffffffffffffffffffffffffffffffff1673ffffffffffffffffffffffffffffffffffffffff1681526020016005820180546106a790614d9f565b80601f01602080910402602001604051908101604052809291908181526020018280546106d390614d9f565b80156107205780601f106106f557610100808354040283529160200191610720565b820191906000526020600020905b81548152906001019060200180831161070357829003601f168201915b50505050508152602001600682015481526020016007820160009054906101000a900460ff1615151515815250508152602001600882016040518060a001604052908160008201548152602001600182015481526020016002820154815260200160038201805461079090614d9f565b80601f01602080910402602001604051908101604052809291908181526020018280546107bc90614d9f565b80156108095780601f106107de57610100808354040283529160200191610809565b820191906000526020600020905b8154815290600101906020018083116107ec57829003601f168201915b5050505050815260200160048201805461082290614d9f565b80601f016020809104026020016040519081016040528092919081815260200182805461084e90614d9f565b801561089b5780601f106108705761010080835404028352916020019161089b565b820191906000526020600020905b81548152906001019060200180831161087e57829003601f168201915b5050505050815250508152602001600d82016040518060a00160405290816000820154815260200160018201548152602001600282015481526020016003820180546108e690614d9f565b80601f016020809104026020016040519081016040528092919081815260200182805461091290614d9f565b801561095f5780601f106109345761010080835404028352916020019161095f565b820191906000526020600020905b81548152906001019060200180831161094257829003601f168201915b5050505050815260200160048201805461097890614d9f565b80601f01602080910402602001604051908101604052809291908181526020018280546109a490614d9f565b80156109f15780601f106109c6576101008083540402835291602001916109f1565b820191906000526020600020905b8154815290600101906020018083116109d457829003601f168201915b505050505081525050815260200160128201805480602002602001604051908101604052809291908181526020018280548015610a4d57602002820191906000526020600020905b815481526020019060010190808311610a39575b505050505081526020016013820160009054906101000a900473ffffffffffffffffffffffffffffffffffffffff1673ffffffffffffffffffffffffffffffffffffffff1673ffffffffffffffffffffffffffffffffffffffff1681526020016014820154815260200160158201548152602001601682015481526020016017820160009054906101000a900460ff161515151581526020016017820160019054906101000a900460ff16151515158152505090506000610b118260e00151612cc5565b90507f8f055f41b038b63ed8fff3423ae641e18d2378e98c4d353ea35adf31cbe0bc83848360c001518460e0015184604051610b509493929190614dd1565b60405180910390a18015610d3a576000600160009054906101000a900473ffffffffffffffffffffffffffffffffffffffff16905060008473ffffffffffffffffffffffffffffffffffffffff16634b02f22d856000015186606001516040518363ffffffff1660e01b8152600401610bca929190614ec5565b6020604051808303816000875af1158015610be9573d6000803e3d6000fd5b505050506040513d601f19601f82011682018060405250810190610c0d9190614f11565b9050610ca38460200151828473ffffffffffffffffffffffffffffffffffffffff16632d4a03828860a001516040518263ffffffff1660e01b8152600401610c55919061462d565b602060405180830381865afa158015610c72573d6000803e3d6000fd5b505050506040513d601f19601f82011682018060405250810190610c969190614f11565b8960018960800151612f42565b610d378460400151828473ffffffffffffffffffffffffffffffffffffffff16632d4a03828860a001516040518263ffffffff1660e01b8152600401610ce9919061462d565b602060405180830381865afa158015610d06573d6000803e3d6000fd5b505050506040513d601f19601f82011682018060405250810190610d2a9190614f11565b8960008960800151612f42565b50505b80600d600086815260200190815260200160002060170160016101000a81548160ff02191690831515021790555050505050565b6000919050565b600e60009054906101000a900473ffffffffffffffffffffffffffffffffffffffff1681565b600360009054906101000a900473ffffffffffffffffffffffffffffffffffffffff1681565b60011515600d600084815260200190815260200160002060170160009054906101000a900460ff16151514610e2b576040517f08c379a0000000000000000000000000000000000000000000000000000000008152600401610e2290614f9b565b60405180910390fd5b7f7fa8530f2b70b1c2f0aa92650d5274e8e84988e1af0fa8ca56a37ba7646720743383600d60008681526020019081526020016000206016015484604051610e769493929190614fbb565b60405180910390a1610e8882826131fc565b5050565b600360009054906101000a900473ffffffffffffffffffffffffffffffffffffffff1673ffffffffffffffffffffffffffffffffffffffff163373ffffffffffffffffffffffffffffffffffffffff1614610f1c576040517f08c379a0000000000000000000000000000000000000000000000000000000008152600401610f1390615072565b60405180910390fd5b80600e60006101000a81548173ffffffffffffffffffffffffffffffffffffffff021916908373ffffffffffffffffffffffffffffffffffffffff16021790555050565b600360009054906101000a900473ffffffffffffffffffffffffffffffffffffffff1673ffffffffffffffffffffffffffffffffffffffff163373ffffffffffffffffffffffffffffffffffffffff1614610ff0576040517f08c379a0000000000000000000000000000000000000000000000000000000008152600401610fe790615072565b60405180910390fd5b80600360006101000a81548173ffffffffffffffffffffffffffffffffffffffff021916908373ffffffffffffffffffffffffffffffffffffffff16021790555050565b600360009054906101000a900473ffffffffffffffffffffffffffffffffffffffff1673ffffffffffffffffffffffffffffffffffffffff163373ffffffffffffffffffffffffffffffffffffffff16146110c4576040517f08c379a00000000000000000000000000000000000000000000000000000000081526004016110bb90615072565b60405180910390fd5b6110cd816134ef565b50565b600f60009054906101000a900473ffffffffffffffffffffffffffffffffffffffff1681565b600d602052806000526040600020600091509050806000016040518061010001604052908160008201805461112a90614d9f565b80601f016020809104026020016040519081016040528092919081815260200182805461115690614d9f565b80156111a35780601f10611178576101008083540402835291602001916111a3565b820191906000526020600020905b81548152906001019060200180831161118657829003601f168201915b505050505081526020016001820180546111bc90614d9f565b80601f01602080910402602001604051908101604052809291908181526020018280546111e890614d9f565b80156112355780601f1061120a57610100808354040283529160200191611235565b820191906000526020600020905b81548152906001019060200180831161121857829003601f168201915b5050505050815260200160028201548152602001600382015481526020016004820160009054906101000a900473ffffffffffffffffffffffffffffffffffffffff1673ffffffffffffffffffffffffffffffffffffffff1673ffffffffffffffffffffffffffffffffffffffff1681526020016005820180546112b890614d9f565b80601f01602080910402602001604051908101604052809291908181526020018280546112e490614d9f565b80156113315780601f1061130657610100808354040283529160200191611331565b820191906000526020600020905b81548152906001019060200180831161131457829003601f168201915b50505050508152602001600682015481526020016007820160009054906101000a900460ff16151515158152505090806008016040518060a001604052908160008201548152602001600182015481526020016002820154815260200160038201805461139d90614d9f565b80601f01602080910402602001604051908101604052809291908181526020018280546113c990614d9f565b80156114165780601f106113eb57610100808354040283529160200191611416565b820191906000526020600020905b8154815290600101906020018083116113f957829003601f168201915b5050505050815260200160048201805461142f90614d9f565b80601f016020809104026020016040519081016040528092919081815260200182805461145b90614d9f565b80156114a85780601f1061147d576101008083540402835291602001916114a8565b820191906000526020600020905b81548152906001019060200180831161148b57829003601f168201915b5050505050815250509080600d016040518060a00160405290816000820154815260200160018201548152602001600282015481526020016003820180546114ef90614d9f565b80601f016020809104026020016040519081016040528092919081815260200182805461151b90614d9f565b80156115685780601f1061153d57610100808354040283529160200191611568565b820191906000526020600020905b81548152906001019060200180831161154b57829003601f168201915b5050505050815260200160048201805461158190614d9f565b80601f01602080910402602001604051908101604052809291908181526020018280546115ad90614d9f565b80156115fa5780601f106115cf576101008083540402835291602001916115fa565b820191906000526020600020905b8154815290600101906020018083116115dd57829003601f168201915b505050505081525050908060130160009054906101000a900473ffffffffffffffffffffffffffffffffffffffff16908060140154908060150154908060160154908060170160009054906101000a900460ff16908060170160019054906101000a900460ff16905089565b600260009054906101000a900473ffffffffffffffffffffffffffffffffffffffff1681565b600b60205281600052604060002081815481106116a857600080fd5b90600052602060002001600091509150505481565b600080601060009054906101000a900473ffffffffffffffffffffffffffffffffffffffff16905060008173ffffffffffffffffffffffffffffffffffffffff1663cd58b8d685606001516040518263ffffffff1660e01b8152600401611724919061462d565b600060405180830381865afa158015611741573d6000803e3d6000fd5b505050506040513d6000823e3d601f19601f8201168201806040525081019061176a919061512c565b97505050505050505060011515811515146117ba576040517f08c379a00000000000000000000000000000000000000000000000000000000081526004016117b190615282565b60405180910390fd5b50600960008154809291906117ce906152d1565b9190505550600060095490506000600160009054906101000a900473ffffffffffffffffffffffffffffffffffffffff16905060008173ffffffffffffffffffffffffffffffffffffffff16632d4a038287606001516040518263ffffffff1660e01b8152600401611840919061462d565b602060405180830381865afa15801561185d573d6000803e3d6000fd5b505050506040513d601f19601f820116820180604052508101906118819190614f11565b9050600061190d60008473ffffffffffffffffffffffffffffffffffffffff16632d4a03828a606001516040518263ffffffff1660e01b81526004016118c7919061462d565b602060405180830381865afa1580156118e4573d6000803e3d6000fd5b505050506040513d601f19601f820116820180604052508101906119089190614f11565b6135c3565b90508273ffffffffffffffffffffffffffffffffffffffff166361cbc3578860a00151606001518960c00151606001516040518363ffffffff1660e01b815260040161195a929190615353565b600060405180830381600087803b15801561197457600080fd5b505af1158015611988573d6000803e3d6000fd5b5050505060008573ffffffffffffffffffffffffffffffffffffffff1663c1befa6a89606001518a600001518b602001518c6040015133886040518763ffffffff1660e01b81526004016119e19695949392919061538a565b6000604051808303816000875af1158015611a00573d6000803e3d6000fd5b505050506040513d6000823e3d601f19601f82011682018060405250810190611a29919061551e565b905060006040518061014001604052808381526020018a60a0015181526020018a60c0015181526020018a6080015181526020013373ffffffffffffffffffffffffffffffffffffffff1681526020018a6060015181526020018581526020018481526020016001151581526020016000151581525090507f42cad05f5e0c47228d26190e634cc7f9822f43ee731fe6b8f723987878a9f74686838b60a001518c60c001518d60800151338f606001518b8b604051611af099989796959493929190615567565b60405180910390a17f481ac14a03d079bd5d1dd2bb725fae4aa2f87184de7662e57a1c32dce0927653338785604051611b2b93929190615610565b60405180910390a180600d60008881526020019081526020016000206000820151816000016000820151816000019080519060200190611b6c929190613ff8565b506020820151816001019080519060200190611b89929190613ff8565b50604082015181600201556060820151816003015560808201518160040160006101000a81548173ffffffffffffffffffffffffffffffffffffffff021916908373ffffffffffffffffffffffffffffffffffffffff16021790555060a0820151816005019080519060200190611c01929190613ff8565b5060c0820151816006015560e08201518160070160006101000a81548160ff02191690831515021790555050506020820151816008016000820151816000015560208201518160010155604082015181600201556060820151816003019080519060200190611c71929190613ff8565b506080820151816004019080519060200190611c8e929190613ff8565b505050604082015181600d016000820151816000015560208201518160010155604082015181600201556060820151816003019080519060200190611cd4929190613ff8565b506080820151816004019080519060200190611cf1929190613ff8565b5050506060820151816012019080519060200190611d1092919061407e565b5060808201518160130160006101000a81548173ffffffffffffffffffffffffffffffffffffffff021916908373ffffffffffffffffffffffffffffffffffffffff16021790555060a0820151816014015560c0820151816015015560e082015181601601556101008201518160170160006101000a81548160ff0219169083151502179055506101208201518160170160016101000a81548160ff02191690831515021790555090505085975050505050505050919050565b6000600860008673ffffffffffffffffffffffffffffffffffffffff1673ffffffffffffffffffffffffffffffffffffffff168152602001908152602001600020905060005b8180549050811015611fbb576001151560056000848481548110611e3757611e36615647565b5b9060005260206000200154815260200190815260200160002060070160009054906101000a900460ff1615151480611ea157504360056000848481548110611e8257611e81615647565b5b9060005260206000200154815260200190815260200160002060060154105b15611f42578160018380549050611eb89190615676565b81548110611ec957611ec8615647565b5b9060005260206000200154828281548110611ee757611ee6615647565b5b906000526020600020018190555081805480611f0657611f056156aa565b5b600190038181906000526020600020016000905590556000811415611f2e5760009050611f3d565b8080611f39906156d9565b9150505b611fa8565b60056000838381548110611f5957611f58615647565b5b9060005260206000200154815260200190815260200160002060050154851415611fa757611fa6828281548110611f9357611f92615647565b5b9060005260206000200154878686613760565b5b5b8080611fb3906152d1565b915050611e10565b505050505050565b600160009054906101000a900473ffffffffffffffffffffffffffffffffffffffff1681565b600a6020528060005260406000206000915054906101000a900460ff1681565b600c602052816000526040600020818154811061202557600080fd5b90600052602060002001600091509150505481565b601060009054906101000a900473ffffffffffffffffffffffffffffffffffffffff1681565b60007fbc197c819b3e337a6f9652dd10becd7eef83032af3b9d958d3d42f6694146621905098975050505050505050565b600e60009054906101000a900473ffffffffffffffffffffffffffffffffffffffff1673ffffffffffffffffffffffffffffffffffffffff163373ffffffffffffffffffffffffffffffffffffffff1614612121576040517f08c379a000000000000000000000000000000000000000000000000000000000815260040161211890615775565b60405180910390fd5b600c60008381526020019081526020016000208190806001815401808255809150506001900390600052602060002001600090919091909150555050565b6000601060009054906101000a900473ffffffffffffffffffffffffffffffffffffffff1690506000600d60008481526020019081526020016000206040518061014001604052908160008201604051806101000160405290816000820180546121c890614d9f565b80601f01602080910402602001604051908101604052809291908181526020018280546121f490614d9f565b80156122415780601f1061221657610100808354040283529160200191612241565b820191906000526020600020905b81548152906001019060200180831161222457829003601f168201915b5050505050815260200160018201805461225a90614d9f565b80601f016020809104026020016040519081016040528092919081815260200182805461228690614d9f565b80156122d35780601f106122a8576101008083540402835291602001916122d3565b820191906000526020600020905b8154815290600101906020018083116122b657829003601f168201915b5050505050815260200160028201548152602001600382015481526020016004820160009054906101000a900473ffffffffffffffffffffffffffffffffffffffff1673ffffffffffffffffffffffffffffffffffffffff1673ffffffffffffffffffffffffffffffffffffffff16815260200160058201805461235690614d9f565b80601f016020809104026020016040519081016040528092919081815260200182805461238290614d9f565b80156123cf5780601f106123a4576101008083540402835291602001916123cf565b820191906000526020600020905b8154815290600101906020018083116123b257829003601f168201915b50505050508152602001600682015481526020016007820160009054906101000a900460ff1615151515815250508152602001600882016040518060a001604052908160008201548152602001600182015481526020016002820154815260200160038201805461243f90614d9f565b80601f016020809104026020016040519081016040528092919081815260200182805461246b90614d9f565b80156124b85780601f1061248d576101008083540402835291602001916124b8565b820191906000526020600020905b81548152906001019060200180831161249b57829003601f168201915b505050505081526020016004820180546124d190614d9f565b80601f01602080910402602001604051908101604052809291908181526020018280546124fd90614d9f565b801561254a5780601f1061251f5761010080835404028352916020019161254a565b820191906000526020600020905b81548152906001019060200180831161252d57829003601f168201915b5050505050815250508152602001600d82016040518060a001604052908160008201548152602001600182015481526020016002820154815260200160038201805461259590614d9f565b80601f01602080910402602001604051908101604052809291908181526020018280546125c190614d9f565b801561260e5780601f106125e35761010080835404028352916020019161260e565b820191906000526020600020905b8154815290600101906020018083116125f157829003601f168201915b5050505050815260200160048201805461262790614d9f565b80601f016020809104026020016040519081016040528092919081815260200182805461265390614d9f565b80156126a05780601f10612675576101008083540402835291602001916126a0565b820191906000526020600020905b81548152906001019060200180831161268357829003601f168201915b5050505050815250508152602001601282018054806020026020016040519081016040528092919081815260200182805480156126fc57602002820191906000526020600020905b8154815260200190600101908083116126e8575b505050505081526020016013820160009054906101000a900473ffffffffffffffffffffffffffffffffffffffff1673ffffffffffffffffffffffffffffffffffffffff1673ffffffffffffffffffffffffffffffffffffffff1681526020016014820154815260200160158201548152602001601682015481526020016017820160009054906101000a900460ff161515151581526020016017820160019054906101000a900460ff1615151515815250509050600560008260e00151815260200190815260200160002060070160009054906101000a900460ff16612818576040517f08c379a000000000000000000000000000000000000000000000000000000000815260040161280f906157e1565b60405180910390fd5b60001515600660008360e00151815260200190815260200160002060003373ffffffffffffffffffffffffffffffffffffffff1673ffffffffffffffffffffffffffffffffffffffff16815260200190815260200160002060009054906101000a900460ff161515146128c0576040517f08c379a00000000000000000000000000000000000000000000000000000000081526004016128b79061584d565b60405180910390fd5b6001151581610120015115151461290c576040517f08c379a0000000000000000000000000000000000000000000000000000000008152600401612903906158b9565b60405180910390fd5b6000601160008581526020019081526020016000206040518060e001604052908160008201548152602001600182015481526020016002820154815260200160038201548152602001600482015481526020016005820154815260200160068201548152505090506000601260008681526020019081526020016000206040518060e0016040529081600082015481526020016001820154815260200160028201548152602001600382015481526020016004820154815260200160058201548152602001600682015481525050905060006129e78361392d565b905060006129f48361392d565b90507f05e5c9b248e254567ca15790a9819305964904f68019d07432cf64fa05f2b4958785608001518433604051612a2f94939291906158d9565b60405180910390a17f05e5c9b248e254567ca15790a9819305964904f68019d07432cf64fa05f2b4958784608001518333604051612a7094939291906158d9565b60405180910390a16001600660008760e00151815260200190815260200160002060003373ffffffffffffffffffffffffffffffffffffffff1673ffffffffffffffffffffffffffffffffffffffff16815260200190815260200160002060006101000a81548160ff02191690831515021790555050505050505050565b600360009054906101000a900473ffffffffffffffffffffffffffffffffffffffff1673ffffffffffffffffffffffffffffffffffffffff163373ffffffffffffffffffffffffffffffffffffffff1614612b7e576040517f08c379a0000000000000000000000000000000000000000000000000000000008152600401612b7590615072565b60405180910390fd5b80601060006101000a81548173ffffffffffffffffffffffffffffffffffffffff021916908373ffffffffffffffffffffffffffffffffffffffff16021790555050565b60007ff23a6e612e1ff4830e658fe43f4e3cb4a5f8170bd5d9e69fb5d7a7fa9e4fdf9790509695505050505050565b600360009054906101000a900473ffffffffffffffffffffffffffffffffffffffff1673ffffffffffffffffffffffffffffffffffffffff163373ffffffffffffffffffffffffffffffffffffffff1614612c81576040517f08c379a0000000000000000000000000000000000000000000000000000000008152600401612c7890615072565b60405180910390fd5b80600f60006101000a81548173ffffffffffffffffffffffffffffffffffffffff021916908373ffffffffffffffffffffffffffffffffffffffff16021790555050565b6000600115156005600084815260200190815260200160002060070160029054906101000a900460ff16151514612d31576040517f08c379a0000000000000000000000000000000000000000000000000000000008152600401612d289061596a565b60405180910390fd5b43600560008481526020019081526020016000206006015410612d89576040517f08c379a0000000000000000000000000000000000000000000000000000000008152600401612d80906159d6565b60405180910390fd5b600015156005600084815260200190815260200160002060070160009054906101000a900460ff16151514612df3576040517f08c379a0000000000000000000000000000000000000000000000000000000008152600401612dea90615a42565b60405180910390fd5b60006005600084815260200190815260200160002090506000816001015490506000600160009054906101000a900473ffffffffffffffffffffffffffffffffffffffff16905060016005600087815260200190815260200160002060070160006101000a81548160ff0219169083151502179055506000821115612f355760008173ffffffffffffffffffffffffffffffffffffffff1663036c22ad85600501546040518263ffffffff1660e01b8152600401612eb1919061462d565b602060405180830381865afa158015612ece573d6000803e3d6000fd5b505050506040513d601f19601f82011682018060405250810190612ef29190614f11565b905060006064604283612f059190615a62565b612f0f9190615aeb565b905080841115612f2757600195505050505050612f3d565b600095505050505050612f3d565b600093505050505b919050565b6000600160009054906101000a900473ffffffffffffffffffffffffffffffffffffffff169050600085905060008273ffffffffffffffffffffffffffffffffffffffff1663036c22ad836040518263ffffffff1660e01b8152600401612fa9919061462d565b602060405180830381865afa158015612fc6573d6000803e3d6000fd5b505050506040513d601f19601f82011682018060405250810190612fea9190614f11565b90506000851561300657612fff8a8a87613aa5565b9050613014565b6130118a8a87613b73565b90505b60006040518060e00160405280670de0b6b3a7640000856130359190615aeb565b81526020018c602001518152602001898152602001858152602001838152602001670de0b6b3a76400008561306a9190615aeb565b8d602001516130799190615aeb565b81526020018673ffffffffffffffffffffffffffffffffffffffff16639711715a6040518163ffffffff1660e01b81526004016020604051808303816000875af11580156130cb573d6000803e3d6000fd5b505050506040513d601f19601f820116820180604052508101906130ef9190614f11565b815250905060008160a001511161313b576040517f08c379a000000000000000000000000000000000000000000000000000000000815260040161313290615b8e565b60405180910390fd5b7f70ca97bed53efc5c77b3772fd7dd916c4712482aeef3a17d25dfad3bff28f86d88826000015183602001518460600151868660a001518760c0015160405161318a9796959493929190615bae565b60405180910390a180601160008a8152602001908152602001600020600082015181600001556020820151816001015560408201518160020155606082015181600301556080820151816004015560a0820151816005015560c082015181600601559050505050505050505050505050565b8133600115156005600084815260200190815260200160002060070160029054906101000a900460ff16151514613268576040517f08c379a000000000000000000000000000000000000000000000000000000000815260040161325f9061596a565b60405180910390fd5b436005600084815260200190815260200160002060060154116132c0576040517f08c379a00000000000000000000000000000000000000000000000000000000081526004016132b7906159d6565b60405180910390fd5b600015156006600084815260200190815260200160002060008373ffffffffffffffffffffffffffffffffffffffff1673ffffffffffffffffffffffffffffffffffffffff16815260200190815260200160002060009054906101000a900460ff16151514613364576040517f08c379a000000000000000000000000000000000000000000000000000000000815260040161335b90615c69565b60405180910390fd5b836005600082815260200190815260200160002060070160019054906101000a900460ff161561343757600015156006600083815260200190815260200160002060003273ffffffffffffffffffffffffffffffffffffffff1673ffffffffffffffffffffffffffffffffffffffff16815260200190815260200160002060009054906101000a900460ff16151514613432576040517f08c379a000000000000000000000000000000000000000000000000000000000815260040161342990615c69565b60405180910390fd5b6134dd565b6005600082815260200190815260200160002060000160009054906101000a900473ffffffffffffffffffffffffffffffffffffffff1673ffffffffffffffffffffffffffffffffffffffff163273ffffffffffffffffffffffffffffffffffffffff1614156134dc576040517f08c379a00000000000000000000000000000000000000000000000000000000081526004016134d390615cd5565b60405180910390fd5b5b6134e8858532613c41565b5050505050565b600360009054906101000a900473ffffffffffffffffffffffffffffffffffffffff1673ffffffffffffffffffffffffffffffffffffffff163373ffffffffffffffffffffffffffffffffffffffff161461357f576040517f08c379a000000000000000000000000000000000000000000000000000000000815260040161357690615072565b60405180910390fd5b80600160006101000a81548173ffffffffffffffffffffffffffffffffffffffff021916908373ffffffffffffffffffffffffffffffffffffffff16021790555050565b6000600460008154809291906135d8906152d1565b919050555060006040518061014001604052803273ffffffffffffffffffffffffffffffffffffffff16815260200160008152602001600081526020016000815260200160008152602001848152602001600054436136379190615cf5565b815260200160001515815260200185151581526020016001151581525090508060056000600454815260200190815260200160002060008201518160000160006101000a81548173ffffffffffffffffffffffffffffffffffffffff021916908373ffffffffffffffffffffffffffffffffffffffff1602179055506020820151816001015560408201518160020155606082015181600301556080820151816004015560a0820151816005015560c0820151816006015560e08201518160070160006101000a81548160ff0219169083151502179055506101008201518160070160016101000a81548160ff0219169083151502179055506101208201518160070160026101000a81548160ff02191690831515021790555090505060045491505092915050565b600115156006600086815260200190815260200160002060008573ffffffffffffffffffffffffffffffffffffffff1673ffffffffffffffffffffffffffffffffffffffff16815260200190815260200160002060009054906101000a900460ff16151514613804576040517f08c379a00000000000000000000000000000000000000000000000000000000081526004016137fb90615dbd565b60405180910390fd5b60006007600086815260200190815260200160002060008573ffffffffffffffffffffffffffffffffffffffff1673ffffffffffffffffffffffffffffffffffffffff16815260200190815260200160002060009054906101000a900460ff16905080156138cb57826005600087815260200190815260200160002060010160008282546138929190615676565b92505081905550816005600087815260200190815260200160002060010160008282546138bf9190615cf5565b92505081905550613926565b826005600087815260200190815260200160002060030160008282546138f19190615676565b925050819055508160056000878152602001908152602001600020600301600082825461391e9190615cf5565b925050819055505b5050505050565b600080600f60009054906101000a900473ffffffffffffffffffffffffffffffffffffffff16905060008173ffffffffffffffffffffffffffffffffffffffff1663626da068338660c0015187606001516040518463ffffffff1660e01b815260040161399c93929190615610565b602060405180830381865afa1580156139b9573d6000803e3d6000fd5b505050506040513d601f19601f820116820180604052508101906139dd9190614f11565b905060008114156139f357600092505050613aa0565b6000670de0b6b3a7640000828660a00151613a0e9190615a62565b613a189190615aeb565b90506000811115613a99578273ffffffffffffffffffffffffffffffffffffffff1663f242432a30338860800151856040518563ffffffff1660e01b8152600401613a669493929190615e3a565b600060405180830381600087803b158015613a8057600080fd5b505af1158015613a94573d6000803e3d6000fd5b505050505b8093505050505b919050565b600080600160009054906101000a900473ffffffffffffffffffffffffffffffffffffffff1690508073ffffffffffffffffffffffffffffffffffffffff166354d4f719858760000151886040015189606001518a608001518b602001518a6040518863ffffffff1660e01b8152600401613b269796959493929190615e92565b6020604051808303816000875af1158015613b45573d6000803e3d6000fd5b505050506040513d601f19601f82011682018060405250810190613b699190614f11565b9150509392505050565b600080600160009054906101000a900473ffffffffffffffffffffffffffffffffffffffff1690508073ffffffffffffffffffffffffffffffffffffffff16631e622476858760000151886040015189606001518a608001518b602001518a6040518863ffffffff1660e01b8152600401613bf49796959493929190615e92565b6020604051808303816000875af1158015613c13573d6000803e3d6000fd5b505050506040513d601f19601f82011682018060405250810190613c379190614f11565b9150509392505050565b6000600160009054906101000a900473ffffffffffffffffffffffffffffffffffffffff169050600060056000868152602001908152602001600020604051806101400160405290816000820160009054906101000a900473ffffffffffffffffffffffffffffffffffffffff1673ffffffffffffffffffffffffffffffffffffffff1673ffffffffffffffffffffffffffffffffffffffff1681526020016001820154815260200160028201548152602001600382015481526020016004820154815260200160058201548152602001600682015481526020016007820160009054906101000a900460ff161515151581526020016007820160019054906101000a900460ff161515151581526020016007820160029054906101000a900460ff161515151581525050905060008273ffffffffffffffffffffffffffffffffffffffff1662fdd58e858460a001516040518363ffffffff1660e01b8152600401613dae929190615f0f565b602060405180830381865afa158015613dcb573d6000803e3d6000fd5b505050506040513d601f19601f82011682018060405250810190613def9190614f11565b90508415613e575780600560008881526020019081526020016000206001016000828254613e1d9190615cf5565b925050819055506001600560008881526020019081526020016000206002016000828254613e4b9190615cf5565b92505081905550613eb3565b80600560008881526020019081526020016000206003016000828254613e7d9190615cf5565b925050819055506001600560008881526020019081526020016000206004016000828254613eab9190615cf5565b925050819055505b60016006600088815260200190815260200160002060008673ffffffffffffffffffffffffffffffffffffffff1673ffffffffffffffffffffffffffffffffffffffff16815260200190815260200160002060006101000a81548160ff021916908315150217905550846007600088815260200190815260200160002060008673ffffffffffffffffffffffffffffffffffffffff1673ffffffffffffffffffffffffffffffffffffffff16815260200190815260200160002060006101000a81548160ff0219169083151502179055506000600860008673ffffffffffffffffffffffffffffffffffffffff1673ffffffffffffffffffffffffffffffffffffffff16815260200190815260200160002090508087908060018154018082558091505060019003906000526020600020016000909190919091505550505050505050565b82805461400490614d9f565b90600052602060002090601f016020900481019282614026576000855561406d565b82601f1061403f57805160ff191683800117855561406d565b8280016001018555821561406d579182015b8281111561406c578251825591602001919060010190614051565b5b50905061407a91906140cb565b5090565b8280548282559060005260206000209081019282156140ba579160200282015b828111156140b957825182559160200191906001019061409e565b5b5090506140c791906140cb565b5090565b5b808211156140e45760008160009055506001016140cc565b5090565b6000604051905090565b600080fd5b600080fd5b6000819050919050565b61410f816140fc565b811461411a57600080fd5b50565b60008135905061412c81614106565b92915050565b600060208284031215614148576141476140f2565b5b60006141568482850161411d565b91505092915050565b60007fffffffff0000000000000000000000000000000000000000000000000000000082169050919050565b6141948161415f565b811461419f57600080fd5b50565b6000813590506141b18161418b565b92915050565b6000602082840312156141cd576141cc6140f2565b5b60006141db848285016141a2565b91505092915050565b60008115159050919050565b6141f9816141e4565b82525050565b600060208201905061421460008301846141f0565b92915050565b600073ffffffffffffffffffffffffffffffffffffffff82169050919050565b60006142458261421a565b9050919050565b6142558161423a565b82525050565b6000602082019050614270600083018461424c565b92915050565b61427f816141e4565b811461428a57600080fd5b50565b60008135905061429c81614276565b92915050565b600080604083850312156142b9576142b86140f2565b5b60006142c78582860161411d565b92505060206142d88582860161428d565b9150509250929050565b6142eb8161423a565b81146142f657600080fd5b50565b600081359050614308816142e2565b92915050565b600060208284031215614324576143236140f2565b5b6000614332848285016142f9565b91505092915050565b600081519050919050565b600082825260208201905092915050565b60005b8381101561437557808201518184015260208101905061435a565b83811115614384576000848401525b50505050565b6000601f19601f8301169050919050565b60006143a68261433b565b6143b08185614346565b93506143c0818560208601614357565b6143c98161438a565b840191505092915050565b6143dd816140fc565b82525050565b6143ec8161423a565b82525050565b6143fb816141e4565b82525050565b600061010083016000830151848203600086015261441f828261439b565b91505060208301518482036020860152614439828261439b565b915050604083015161444e60408601826143d4565b50606083015161446160608601826143d4565b50608083015161447460808601826143e3565b5060a083015184820360a086015261448c828261439b565b91505060c08301516144a160c08601826143d4565b5060e08301516144b460e08601826143f2565b508091505092915050565b600060a0830160008301516144d760008601826143d4565b5060208301516144ea60208601826143d4565b5060408301516144fd60408601826143d4565b5060608301518482036060860152614515828261439b565b9150506080830151848203608086015261452f828261439b565b9150508091505092915050565b614545816140fc565b82525050565b6000610120820190508181036000830152614566818c614401565b9050818103602083015261457a818b6144bf565b9050818103604083015261458e818a6144bf565b905061459d606083018961424c565b6145aa608083018861453c565b6145b760a083018761453c565b6145c460c083018661453c565b6145d160e08301856141f0565b6145df6101008301846141f0565b9a9950505050505050505050565b60008060408385031215614604576146036140f2565b5b60006146128582860161411d565b92505060206146238582860161411d565b9150509250929050565b6000602082019050614642600083018461453c565b92915050565b600080fd5b7f4e487b7100000000000000000000000000000000000000000000000000000000600052604160045260246000fd5b6146858261438a565b810181811067ffffffffffffffff821117156146a4576146a361464d565b5b80604052505050565b60006146b76140e8565b90506146c3828261467c565b919050565b600080fd5b600080fd5b600080fd5b600067ffffffffffffffff8211156146f2576146f161464d565b5b6146fb8261438a565b9050602081019050919050565b82818337600083830152505050565b600061472a614725846146d7565b6146ad565b905082815260208101848484011115614746576147456146d2565b5b614751848285614708565b509392505050565b600082601f83011261476e5761476d6146cd565b5b813561477e848260208601614717565b91505092915050565b600067ffffffffffffffff8211156147a2576147a161464d565b5b602082029050602081019050919050565b600080fd5b60006147cb6147c684614787565b6146ad565b905080838252602082019050602084028301858111156147ee576147ed6147b3565b5b835b818110156148175780614803888261411d565b8452602084019350506020810190506147f0565b5050509392505050565b600082601f830112614836576148356146cd565b5b81356148468482602086016147b8565b91505092915050565b600060a0828403121561486557614864614648565b5b61486f60a06146ad565b9050600061487f8482850161411d565b60008301525060206148938482850161411d565b60208301525060406148a78482850161411d565b604083015250606082013567ffffffffffffffff8111156148cb576148ca6146c8565b5b6148d784828501614759565b606083015250608082013567ffffffffffffffff8111156148fb576148fa6146c8565b5b61490784828501614759565b60808301525092915050565b600060e0828403121561492957614928614648565b5b61493360e06146ad565b9050600082013567ffffffffffffffff811115614953576149526146c8565b5b61495f84828501614759565b600083015250602082013567ffffffffffffffff811115614983576149826146c8565b5b61498f84828501614759565b602083015250604082013567ffffffffffffffff8111156149b3576149b26146c8565b5b6149bf84828501614759565b60408301525060606149d38482850161411d565b606083015250608082013567ffffffffffffffff8111156149f7576149f66146c8565b5b614a0384828501614821565b60808301525060a082013567ffffffffffffffff811115614a2757614a266146c8565b5b614a338482850161484f565b60a08301525060c082013567ffffffffffffffff811115614a5757614a566146c8565b5b614a638482850161484f565b60c08301525092915050565b600060208284031215614a8557614a846140f2565b5b600082013567ffffffffffffffff811115614aa357614aa26140f7565b5b614aaf84828501614913565b91505092915050565b60008060008060808587031215614ad257614ad16140f2565b5b6000614ae0878288016142f9565b9450506020614af18782880161411d565b9350506040614b028782880161411d565b9250506060614b138782880161411d565b91505092959194509250565b600080fd5b60008083601f840112614b3a57614b396146cd565b5b8235905067ffffffffffffffff811115614b5757614b56614b1f565b5b602083019150836020820283011115614b7357614b726147b3565b5b9250929050565b60008083601f840112614b9057614b8f6146cd565b5b8235905067ffffffffffffffff811115614bad57614bac614b1f565b5b602083019150836001820283011115614bc957614bc86147b3565b5b9250929050565b60008060008060008060008060a0898b031215614bf057614bef6140f2565b5b6000614bfe8b828c016142f9565b9850506020614c0f8b828c016142f9565b975050604089013567ffffffffffffffff811115614c3057614c2f6140f7565b5b614c3c8b828c01614b24565b9650965050606089013567ffffffffffffffff811115614c5f57614c5e6140f7565b5b614c6b8b828c01614b24565b9450945050608089013567ffffffffffffffff811115614c8e57614c8d6140f7565b5b614c9a8b828c01614b7a565b92509250509295985092959890939650565b614cb58161415f565b82525050565b6000602082019050614cd06000830184614cac565b92915050565b60008060008060008060a08789031215614cf357614cf26140f2565b5b6000614d0189828a016142f9565b9650506020614d1289828a016142f9565b9550506040614d2389828a0161411d565b9450506060614d3489828a0161411d565b935050608087013567ffffffffffffffff811115614d5557614d546140f7565b5b614d6189828a01614b7a565b92509250509295509295509295565b7f4e487b7100000000000000000000000000000000000000000000000000000000600052602260045260246000fd5b60006002820490506001821680614db757607f821691505b60208210811415614dcb57614dca614d70565b5b50919050565b6000608082019050614de6600083018761453c565b614df3602083018661453c565b614e00604083018561453c565b614e0d60608301846141f0565b95945050505050565b600081519050919050565b600082825260208201905092915050565b6000819050602082019050919050565b6000614e4e83836143d4565b60208301905092915050565b6000602082019050919050565b6000614e7282614e16565b614e7c8185614e21565b9350614e8783614e32565b8060005b83811015614eb8578151614e9f8882614e42565b9750614eaa83614e5a565b925050600181019050614e8b565b5085935050505092915050565b60006040820190508181036000830152614edf8185614401565b90508181036020830152614ef38184614e67565b90509392505050565b600081519050614f0b81614106565b92915050565b600060208284031215614f2757614f266140f2565b5b6000614f3584828501614efc565b91505092915050565b600082825260208201905092915050565b7f494e56414c49443a20494e56414c49445f56455253494f4e5f5245515f494400600082015250565b6000614f85601f83614f3e565b9150614f9082614f4f565b602082019050919050565b60006020820190508181036000830152614fb481614f78565b9050919050565b6000608082019050614fd0600083018761424c565b614fdd602083018661453c565b614fea604083018561453c565b614ff760608301846141f0565b95945050505050565b7f554e415554484f52495a45443a2043414e4e4f545f504552464f524d5f41435460008201527f494f4e0000000000000000000000000000000000000000000000000000000000602082015250565b600061505c602383614f3e565b915061506782615000565b604082019050919050565b6000602082019050818103600083015261508b8161504f565b9050919050565b60006150a56150a0846146d7565b6146ad565b9050828152602081018484840111156150c1576150c06146d2565b5b6150cc848285614357565b509392505050565b600082601f8301126150e9576150e86146cd565b5b81516150f9848260208601615092565b91505092915050565b600081519050615111816142e2565b92915050565b60008151905061512681614276565b92915050565b600080600080600080600080610100898b03121561514d5761514c6140f2565b5b600089015167ffffffffffffffff81111561516b5761516a6140f7565b5b6151778b828c016150d4565b985050602089015167ffffffffffffffff811115615198576151976140f7565b5b6151a48b828c016150d4565b97505060406151b58b828c01614efc565b96505060606151c68b828c01614efc565b95505060806151d78b828c01615102565b94505060a089015167ffffffffffffffff8111156151f8576151f76140f7565b5b6152048b828c016150d4565b93505060c06152158b828c01614efc565b92505060e06152268b828c01615117565b9150509295985092959890939650565b7f494e56414c49443a205245434f52445f4e4f545f464f554e4400000000000000600082015250565b600061526c601983614f3e565b915061527782615236565b602082019050919050565b6000602082019050818103600083015261529b8161525f565b9050919050565b7f4e487b7100000000000000000000000000000000000000000000000000000000600052601160045260246000fd5b60006152dc826140fc565b91507fffffffffffffffffffffffffffffffffffffffffffffffffffffffffffffffff82141561530f5761530e6152a2565b5b600182019050919050565b60006153258261433b565b61532f8185614f3e565b935061533f818560208601614357565b6153488161438a565b840191505092915050565b6000604082019050818103600083015261536d818561531a565b90508181036020830152615381818461531a565b90509392505050565b600060c08201905061539f600083018961453c565b81810360208301526153b1818861531a565b905081810360408301526153c5818761531a565b905081810360608301526153d9818661531a565b90506153e8608083018561424c565b6153f560a083018461453c565b979650505050505050565b6000610100828403121561541757615416614648565b5b6154226101006146ad565b9050600082015167ffffffffffffffff811115615442576154416146c8565b5b61544e848285016150d4565b600083015250602082015167ffffffffffffffff811115615472576154716146c8565b5b61547e848285016150d4565b602083015250604061549284828501614efc565b60408301525060606154a684828501614efc565b60608301525060806154ba84828501615102565b60808301525060a082015167ffffffffffffffff8111156154de576154dd6146c8565b5b6154ea848285016150d4565b60a08301525060c06154fe84828501614efc565b60c08301525060e061551284828501615117565b60e08301525092915050565b600060208284031215615534576155336140f2565b5b600082015167ffffffffffffffff811115615552576155516140f7565b5b61555e84828501615400565b91505092915050565b60006101208201905061557d600083018c61453c565b818103602083015261558f818b614401565b905081810360408301526155a3818a6144bf565b905081810360608301526155b781896144bf565b905081810360808301526155cb8188614e67565b90506155da60a083018761424c565b6155e760c083018661453c565b6155f460e083018561453c565b61560261010083018461453c565b9a9950505050505050505050565b6000606082019050615625600083018661424c565b615632602083018561453c565b61563f604083018461453c565b949350505050565b7f4e487b7100000000000000000000000000000000000000000000000000000000600052603260045260246000fd5b6000615681826140fc565b915061568c836140fc565b92508282101561569f5761569e6152a2565b5b828203905092915050565b7f4e487b7100000000000000000000000000000000000000000000000000000000600052603160045260246000fd5b60006156e4826140fc565b915060008214156156f8576156f76152a2565b5b600182039050919050565b7f554e415554484f52495a45443a204f4e4c595f434f4e545249425554494f4e5f60008201527f434f4e5452414354000000000000000000000000000000000000000000000000602082015250565b600061575f602883614f3e565b915061576a82615703565b604082019050919050565b6000602082019050818103600083015261578e81615752565b9050919050565b7f494e56414c49443a2042414c4c4f545f5354494c4c5f4f50454e000000000000600082015250565b60006157cb601a83614f3e565b91506157d682615795565b602082019050919050565b600060208201905081810360008301526157fa816157be565b9050919050565b7f494e56414c49443a2043414e5f4f4e4c595f434c41494d5f4f4e434500000000600082015250565b6000615837601c83614f3e565b915061584282615801565b602082019050919050565b600060208201905081810360008301526158668161582a565b9050919050565b7f494e56414c49443a2056455253494f4e5f52454a454354454400000000000000600082015250565b60006158a3601983614f3e565b91506158ae8261586d565b602082019050919050565b600060208201905081810360008301526158d281615896565b9050919050565b60006080820190506158ee600083018761453c565b6158fb602083018661453c565b615908604083018561453c565b615915606083018461424c565b95945050505050565b7f494e56414c49443a2042414c4c4f545f4e4f545f464f554e4400000000000000600082015250565b6000615954601983614f3e565b915061595f8261591e565b602082019050919050565b6000602082019050818103600083015261598381615947565b9050919050565b7f494e56414c49443a20564f54494e475f54494d455f4f56455200000000000000600082015250565b60006159c0601983614f3e565b91506159cb8261598a565b602082019050919050565b600060208201905081810360008301526159ef816159b3565b9050919050565b7f494e56414c49443a20524553554c545f414c52454144595f4445434c41524544600082015250565b6000615a2c602083614f3e565b9150615a37826159f6565b602082019050919050565b60006020820190508181036000830152615a5b81615a1f565b9050919050565b6000615a6d826140fc565b9150615a78836140fc565b9250817fffffffffffffffffffffffffffffffffffffffffffffffffffffffffffffffff0483118215151615615ab157615ab06152a2565b5b828202905092915050565b7f4e487b7100000000000000000000000000000000000000000000000000000000600052601260045260246000fd5b6000615af6826140fc565b9150615b01836140fc565b925082615b1157615b10615abc565b5b828204905092915050565b7f494e53554646494349454e545f414d4f554e543a20544f4b454e5f534841524560008201527f5f5045525f555345525f49535f4c4f5700000000000000000000000000000000602082015250565b6000615b78603083614f3e565b9150615b8382615b1c565b604082019050919050565b60006020820190508181036000830152615ba781615b6b565b9050919050565b600060e082019050615bc3600083018a61453c565b615bd0602083018961453c565b615bdd604083018861453c565b615bea606083018761453c565b615bf7608083018661453c565b615c0460a083018561453c565b615c1160c083018461453c565b98975050505050505050565b7f494e56414c49443a20414c52454144595f564f54454400000000000000000000600082015250565b6000615c53601683614f3e565b9150615c5e82615c1d565b602082019050919050565b60006020820190508181036000830152615c8281615c46565b9050919050565b7f554e415554484f52495a45443a204f574e45525f43414e4e4f545f564f544500600082015250565b6000615cbf601f83614f3e565b9150615cca82615c89565b602082019050919050565b60006020820190508181036000830152615cee81615cb2565b9050919050565b6000615d00826140fc565b9150615d0b836140fc565b9250827fffffffffffffffffffffffffffffffffffffffffffffffffffffffffffffffff03821115615d4057615d3f6152a2565b5b828201905092915050565b7f494e56414c49443a20494e5445524e414c3a20555345525f4841535f4e4f545f60008201527f564f544544000000000000000000000000000000000000000000000000000000602082015250565b6000615da7602583614f3e565b9150615db282615d4b565b604082019050919050565b60006020820190508181036000830152615dd681615d9a565b9050919050565b600082825260208201905092915050565b7f494e56414c49443a20524f59414c54595f414c52454144595f434c41494d4544600082015250565b6000615e24602083615ddd565b9150615e2f82615dee565b602082019050919050565b600060a082019050615e4f600083018761424c565b615e5c602083018661424c565b615e69604083018561453c565b615e76606083018461453c565b8181036080830152615e8781615e17565b905095945050505050565b600060e082019050615ea7600083018a61453c565b615eb4602083018961453c565b615ec1604083018861453c565b8181036060830152615ed3818761531a565b90508181036080830152615ee7818661531a565b9050615ef660a083018561453c565b615f0360c083018461424c565b98975050505050505050565b6000604082019050615f24600083018561424c565b615f31602083018461453c565b939250505056fea26469706673582212200d3aeb355f51e4b010ddb2be12003b3843c0497e9c3930e22c8f97d78c9a37f864736f6c634300080c0033",
  "immutableReferences": {},
  "source": "pragma solidity ^0.8.0;\n\nimport \"@openzeppelin/contracts/token/ERC1155/extensions/ERC1155Supply.sol\";\nimport \"@openzeppelin/contracts/utils/Counters.sol\";\nimport \"@openzeppelin/contracts/access/Ownable.sol\";\nimport \"@openzeppelin/contracts/token/ERC1155/IERC1155Receiver.sol\";\nimport \"./interface/IContribution.sol\";\nimport \"./Voting/BaseVotingContract.sol\";\nimport \"./interface/ITreasury.sol\";\nimport \"./interface/ITreasuryCore.sol\";\nimport \"./RecordsContract.sol\";\n\ncontract RecordsVotingContract is BaseVotingContract, IERC1155Receiver {\n    uint256 newVersionRequestId = 0;\n\n    // This mapping contains data of record\n    // mapping(uint256 => RecordStruct) public recordData;\n    // This mapping contains if seed data id is being used or not\n    // Same shouldn't be used to create 2 different records, unless the other record is a different\n    // version of existing record\n    mapping(uint256 => bool) public seedIdUsed;\n\n    //This is mapping that holds the listing of versions that are created from a original record\n    mapping(uint256 => uint256[]) public recordVersion;\n\n    // This mapping will hold the list of contributions that are linked to a specific record\n    mapping(uint256 => uint256[]) public recordContributions;\n\n    // This mapping holds the data of new record version requests\n    mapping(uint256 => NewVersionRequest) public newVersionRequestMap;\n\n    // Address of the contribution contracts\n    address public CONTRIBUTION_CONTRACT_ADDRESS;\n\n    // Address of the treasury core contracts\n    address public TREASURY_CORE_CONTRACT_ADDRESS;\n\n    // Address of the records contract\n    address public RECORDS_CONTRACT_ADDRESS;\n\n    // /// @dev This struct holds the data for record token\n    // /// @param name Name of the record\n    // /// @param image This is the image of the record\n    // /// @param seedId This is the seed contribution id\n    // /// @param parentId This is the id of the parent record from which record is created\n    // /// @param owner Address of the owner\n    // /// @param recordCategory This is the record category\n    // /// @param creationDate This is the creation date of the record\n    // struct RecordStruct {\n    //     string name;\n    //     string image;\n    //     uint256 seedId;\n    //     uint256 parentId;\n    //     address owner;\n    //     string recordCategory;\n    //     uint256 creationDate;\n    //     bool isPresent;\n    // }\n\n    // /// @dev This struct holds the data for records that are accepted\n    // /// @param recordId Name of the record\n    // /// @param governanceTokenId This is the image of the record\n    // /// @param communityTokenId This is the seed contribution id\n    // struct AcceptedRecordStruct {\n    //     uint256 recordId;\n    //     uint256 governanceTokenId;\n    //     uint256 communityTokenId;\n    //     bool isPresent;\n    // }\n\n    /// @dev This is the token data for new version of record\n    /// @param totalSupply This is the total amount of tokens that will be created\n    /// @param oldContributorShare This is the amount of token that will be distributed among the previous record owners\n    /// @param userBalance Amount of tokens that user will keep to himself\n    /// @param symbol Symbol for the token\n    /// @param image Image for the token\n    struct NewVersionTokenStruct {\n        uint256 totalSupply;\n        uint256 oldContributorShare;\n        uint256 userBalance;\n        string symbol;\n        string image;\n    }\n\n    /// @dev This struct holds the data for new record version request\n    /// @param recordData Data for the new record\n    /// @param governanceToken New token data for governance token\n    /// @param communityToken New token data for community token\n    /// @param requester Owner of the request\n    /// @param oldVersionId Record id of old version\n    /// @param tokenId id of the token which will be used for voting\n    /// @param ballotId Id of the voting ballot\n    /// @param isPresent This is to check if the request with id is present or not\n    /// @param isAccepted The is the status of record that is accepted or not\n    struct NewVersionRequest {\n        RecordsContract.RecordStruct recordData;\n        NewVersionTokenStruct governanceToken;\n        NewVersionTokenStruct communityToken;\n        uint256[] contributionIds;\n        address requester;\n        uint256 oldVersionId;\n        uint256 tokenId;\n        uint256 ballotId;\n        bool isPresent;\n        bool isAccepted;\n    }\n\n    // /// @dev This event is emited when new record is created\n    // /// @param recordId This is the recordId\n    // /// @param name Name of the record\n    // /// @param image This is the image of the record\n    // /// @param seedId This is the seed contribution id\n    // /// @param parentId This is the id of the parent record from which record is created\n    // /// @param recordCategory This is the record category\n    // /// @param creationDate This is the creation date of the record\n    // event RecordCreated(\n    //     uint256 recordId,\n    //     string name,\n    //     string image,\n    //     uint256 seedId,\n    //     uint256 parentId,\n    //     string recordCategory,\n    //     uint256 creationDate\n    // );\n\n    /// @dev This event is generated when New Record Version is created\n    /// @param requestId This is the id of the new record version request\n    /// @param recordData Data for the new record\n    /// @param governanceToken New token data for governance token\n    /// @param communityToken New token data for community token\n    /// @param requester Owner of the request\n    /// @param oldVersionId Record id of old version\n    /// @param tokenId id of the token which will be used for voting\n    /// @param ballotId Id of the voting ballot\n    event VersionRequest(\n        uint256 requestId,\n        RecordsContract.RecordStruct recordData,\n        NewVersionTokenStruct governanceToken,\n        NewVersionTokenStruct communityToken,\n        uint256[] contributionIds,\n        address requester,\n        uint256 oldVersionId,\n        uint256 tokenId,\n        uint256 ballotId\n    );\n\n    /// @dev This is when a vote is given by user.\n    /// @param voter Address of the voter\n    /// @param versionRequestId This is the id of the recordVersionRequest structure that is linked to this ballot\n    /// @param ballotId Id of the ballot where voting is stored\n    /// @param vote State of vote : true for yes and false for No\n    event NewVersionVoting(\n        address voter,\n        uint256 versionRequestId,\n        uint256 ballotId,\n        bool vote\n    );\n\n    /// @dev This is emitted when a voting ballot is created\n    /// @param requester Address of the requester\n    /// @param versionRequestId This is the id of the recordVersionRequest structure that is linked to this ballot\n    /// @param ballotId Id of the ballot where voting is stored\n    event NewVersionVotingBallotCreated(\n        address requester,\n        uint256 versionRequestId,\n        uint256 ballotId\n    );\n\n    /// @dev this event is generated when result of a ballot is declared\n    /// @param versionReqId This is the id of newVersionRequest\n    /// @param tokenId This is the id of the token that is linked to this ballot\n    /// @param ballotId this is the ballot Id for which result is declared\n    /// @param result this is the status of the result\n    event NewVersionRequestResult(\n        uint256 versionReqId,\n        uint256 tokenId,\n        uint256 ballotId,\n        bool result\n    );\n\n    //------------------------------\n\n    ///@param tokenId it is the id of the token on which basis we distribute the reward\n    ///@param rewardTokenId it is the id of the new tokenId\n    struct NewVersionTokenDistributionStruct {\n        uint256 totalSupplyEther;\n        uint256 rewardAmountWei;\n        uint256 versionRequestId;\n        uint256 tokenId;\n        uint256 rewardTokenId;\n        uint256 rewardPerTokenWei;\n        uint256 snapshotId;\n    }\n\n    event NewVersionTokenDistribution(\n        uint256 versionRequestId,\n        uint256 totalSupplyEther,\n        uint256 rewardAmountWei,\n        uint256 tokenId,\n        uint256 rewardTokenId,\n        uint256 rewardPerTokenWei,\n        uint256 snapshotId\n    );\n\n    event NewTokenClaimed(\n        uint256 versionRequestId,\n        uint256 rewardTokenId,\n        uint256 rewardAmount,\n        address userAddress\n    );\n\n    // newVersionRequestId => tokenData\n    mapping(uint256 => NewVersionTokenDistributionStruct) newVersionGovTokenDistributionMapping;\n\n    mapping(uint256 => NewVersionTokenDistributionStruct) newVersionCommTokenDistributionMapping;\n\n    //------------------------------\n\n    constructor(address owner) BaseVotingContract(owner) {}\n\n    /// @dev Modifier to check that the function is only being called from the contribution contract\n    modifier onlyContributionContract() {\n        require(\n            msg.sender == CONTRIBUTION_CONTRACT_ADDRESS,\n            \"UNAUTHORIZED: ONLY_CONTRIBUTION_CONTRACT\"\n        );\n        _;\n    }\n\n    /// @dev This function sets the contribution Contract address\n    /// @param contributionContractAddress Takes the address of new contribution contract as parameter\n    function setContributionContractAddress(address contributionContractAddress)\n        public\n        _ownerOnly\n    {\n        CONTRIBUTION_CONTRACT_ADDRESS = contributionContractAddress;\n    }\n\n    /// @dev This function sets the Records Contract address\n    /// @param recordsContractAddress New records contract address\n    function setRecordsContractAddress(address recordsContractAddress)\n        public\n        _ownerOnly\n    {\n        RECORDS_CONTRACT_ADDRESS = recordsContractAddress;\n    }\n\n    /// @dev This function sets the Treasury Contract address\n    /// @param treasuryContractAddress Takes the address of new treasury contract as parameter\n    function setTreasuryContractAddress(address treasuryContractAddress)\n        public\n        _ownerOnly\n    {\n        _setTreasuryContractAddress(treasuryContractAddress);\n    }\n\n    /// @dev This function sets the Treasury Contract address\n    /// @param treasuryCoreContractAddress Takes the address of new treasury core contract as parameter\n    function setTreasuryCoreContractAddress(address treasuryCoreContractAddress)\n        public\n        _ownerOnly\n    {\n        TREASURY_CORE_CONTRACT_ADDRESS = treasuryCoreContractAddress;\n    }\n\n    /// @dev This function pushes a contribution into the array of the record\n    /// @param recordId This is the recordId to which contribution is to be added\n    /// @param contributionId This is the contribution id to push in array\n    function pushContributionIdToContributionList(\n        uint256 recordId,\n        uint256 contributionId\n    ) external onlyContributionContract {\n        recordContributions[recordId].push(contributionId);\n    }\n\n    /// @dev This struct holds the required data for new version creation\n    /// @param name Name of the new record\n    /// @param image Cover photo of record\n    /// @param recordCategory string category of record\n    /// @param oldRecordId old record id\n    /// @param contributionIds list of contribution that are part of the new version\n    /// @param governanceToken this contains governance token details for new version of record\n    /// @param communityToken this contains community token details for new version of record\n    struct NewRecordVersionParams {\n        string name;\n        string image;\n        string recordCategory;\n        uint256 oldRecordId;\n        uint256[] contributionIds;\n        NewVersionTokenStruct governanceToken;\n        NewVersionTokenStruct communityToken;\n    }\n\n    /// @dev This function will create new record version from existing record\n    /// @param params required data for creation of new record version\n    function createNewRecordVersion(NewRecordVersionParams memory params)\n        public\n        returns (uint256)\n    {\n        RecordsContract recordsContract = RecordsContract(\n            RECORDS_CONTRACT_ADDRESS\n        );\n\n        {\n            (, , , , , , , bool isPresent) = recordsContract.recordData(\n                params.oldRecordId\n            );\n\n            require(isPresent == true, \"INVALID: RECORD_NOT_FOUND\");\n        }\n        newVersionRequestId++;\n        uint256 versionReqId = newVersionRequestId;\n\n        ITreasury treasury = ITreasury(TREASURY_CONTRACT_ADDRESS);\n        uint256 votingTokenId = treasury.getCommunityTokenId(\n            params.oldRecordId\n        );\n        uint256 ballotId = _createVoting(\n            false,\n            treasury.getCommunityTokenId(params.oldRecordId)\n        );\n\n        treasury.setSymbolsAsUsed(\n            params.governanceToken.symbol,\n            params.communityToken.symbol\n        );\n\n        RecordsContract.RecordStruct memory recordStruct = recordsContract\n            .createNewRecordVersion(\n                params.oldRecordId,\n                params.name,\n                params.image,\n                params.recordCategory,\n                msg.sender,\n                ballotId\n            );\n\n        NewVersionRequest memory newVersionRequest = NewVersionRequest({\n            recordData: recordStruct,\n            governanceToken: params.governanceToken,\n            communityToken: params.communityToken,\n            contributionIds: params.contributionIds,\n            requester: msg.sender,\n            oldVersionId: params.oldRecordId,\n            tokenId: votingTokenId,\n            ballotId: ballotId,\n            isPresent: true,\n            isAccepted: false\n        });\n\n        emit VersionRequest({\n            requestId: versionReqId,\n            recordData: recordStruct,\n            governanceToken: params.governanceToken,\n            communityToken: params.communityToken,\n            contributionIds: params.contributionIds,\n            requester: msg.sender,\n            oldVersionId: params.oldRecordId,\n            tokenId: votingTokenId,\n            ballotId: ballotId\n        });\n\n        emit NewVersionVotingBallotCreated(msg.sender, versionReqId, ballotId);\n\n        newVersionRequestMap[versionReqId] = newVersionRequest;\n\n        return versionReqId;\n    }\n\n    /// @dev This function is called by any user to cast vote\n    /// @param versionReqId this is the id of the new version request for which user is voting\n    /// @param vote this is the state of the vote, if true than it means the vote is in favour of the ballot\n    function castVote(uint256 versionReqId, bool vote) public {\n        // RecordsContract recordsContract = RecordsContract(\n        //     RECORDS_CONTRACT_ADDRESS\n        // );\n        require(\n            newVersionRequestMap[versionReqId].isPresent == true,\n            \"INVALID: INVALID_VERSION_REQ_ID\"\n        );\n        // (, , , , , , uint256 ballotId, bool isPresent, ) = recordsContract\n        //     .newVersionRequestMap(versionReqId);\n        // require(isPresent == true, \"INVALID: INVALID_VERSION_REQ_ID\");\n\n        emit NewVersionVoting({\n            versionRequestId: versionReqId,\n            ballotId: newVersionRequestMap[versionReqId].ballotId,\n            voter: msg.sender,\n            vote: vote\n        });\n\n        super._castVote(versionReqId, vote);\n    }\n\n    /// @dev This function can be called from external source and also from within the contract\n    /// @param versionReqId this is the id of the new version request to which the winner is to be declared\n    function declareWinner(uint256 versionReqId) external {\n        RecordsContract recordsContract = RecordsContract(\n            RECORDS_CONTRACT_ADDRESS\n        );\n        // RecordsContract.NewVersionRequest memory req = recordsContract\n        //     .newVersionRequestMap(versionReqId);\n        NewVersionRequest memory req = newVersionRequestMap[versionReqId];\n\n        bool result = _declareWinner(req.ballotId);\n\n        emit NewVersionRequestResult({\n            versionReqId: versionReqId,\n            tokenId: req.tokenId,\n            ballotId: req.ballotId,\n            result: result\n        });\n\n        if (result) {\n            ITreasury treasuryContract = ITreasury(TREASURY_CONTRACT_ADDRESS);\n            // (\n            //     string name,\n            //     string image,\n            //     uint256 seedId,\n            //     uint256 parentId,\n            //     address owner,\n            //     string recordCategory,\n            //     uint256 creationDate,\n            //     bool isPresent\n            // ) = recordsContract.recordData(recordId);\n\n            uint256 recordId = recordsContract.createRecordFromData(\n                req.recordData,\n                req.contributionIds\n            );\n\n            // recordData[recordId] = req.recordData;\n            // recordContributions[recordId] = req.contributionIds;\n            // recordContributions[recordId].push(req.recordData.seedId);\n            // recordVersion[req.oldVersionId].push(recordId);\n            // emit RecordCreated({\n            //     recordId: recordId,\n            //     name: req.recordData.name,\n            //     image: req.recordData.image,\n            //     seedId: req.recordData.seedId,\n            //     parentId: req.recordData.parentId,\n            //     recordCategory: req.recordData.recordCategory,\n            //     creationDate: req.recordData.creationDate\n            // });\n\n            // create new version and set the rewards for all the user\n            createToken(\n                req.governanceToken,\n                recordId,\n                treasuryContract.getCommunityTokenId(req.oldVersionId),\n                versionReqId,\n                true,\n                req.requester\n            );\n            createToken(\n                req.communityToken,\n                recordId,\n                treasuryContract.getCommunityTokenId(req.oldVersionId),\n                versionReqId,\n                false,\n                req.requester\n            );\n        }\n        newVersionRequestMap[versionReqId].isAccepted = result;\n        // recordsContract.changeVersionRequestStatus(versionReqId, result);\n    }\n\n    /// @dev This function is for distributing of the tokens of new record version\n    /// @param versionReqId This is the version Request Id for which token needs to be claimed\n    function claimNewRecordTokens(uint256 versionReqId) public {\n        RecordsContract recordsContract = RecordsContract(\n            RECORDS_CONTRACT_ADDRESS\n        );\n\n        // RecordsContract.NewVersionRequest memory newVersionReq = recordsContract\n        //     .newVersionRequestMap(versionReqId);\n        NewVersionRequest memory newVersionReq = newVersionRequestMap[\n            versionReqId\n        ];\n\n        require(\n            votingMap[newVersionReq.ballotId].isResultDeclared,\n            \"INVALID: BALLOT_STILL_OPEN\"\n        );\n\n        require(\n            alreadyVoted[newVersionReq.ballotId][msg.sender] == false,\n            \"INVALID: CAN_ONLY_CLAIM_ONCE\"\n        );\n\n        require(newVersionReq.isAccepted == true, \"INVALID: VERSION_REJECTED\");\n\n        NewVersionTokenDistributionStruct\n            memory governanceToken = newVersionGovTokenDistributionMapping[\n                versionReqId\n            ];\n        NewVersionTokenDistributionStruct\n            memory communityToken = newVersionCommTokenDistributionMapping[\n                versionReqId\n            ];\n\n        uint256 govRewardAmount = calculateRewardTokens(governanceToken);\n        uint256 commRewardAmount = calculateRewardTokens(communityToken);\n\n        emit NewTokenClaimed({\n            versionRequestId: versionReqId,\n            rewardTokenId: governanceToken.rewardTokenId,\n            rewardAmount: govRewardAmount,\n            userAddress: msg.sender\n        });\n        emit NewTokenClaimed({\n            versionRequestId: versionReqId,\n            rewardTokenId: communityToken.rewardTokenId,\n            rewardAmount: commRewardAmount,\n            userAddress: msg.sender\n        });\n\n        alreadyVoted[newVersionReq.ballotId][msg.sender] = true;\n    }\n\n    /// @dev This function calculates the amount of token that a user will receive\n    /// @param tokenData This is the data of the token which is to be distributed\n    function calculateRewardTokens(\n        NewVersionTokenDistributionStruct memory tokenData\n    ) internal returns (uint256) {\n        ITreasuryCore treasuryCoreContract = ITreasuryCore(\n            TREASURY_CORE_CONTRACT_ADDRESS\n        );\n\n        uint256 tokenBal = treasuryCoreContract.balanceOfAt(\n            msg.sender,\n            tokenData.snapshotId,\n            tokenData.tokenId\n        );\n\n        if (tokenBal == 0) {\n            return 0;\n        }\n\n        uint256 rewardAmt = (tokenData.rewardPerTokenWei * tokenBal) / 1 ether;\n\n        if (rewardAmt > 0) {\n            treasuryCoreContract.safeTransferFrom(\n                address(this),\n                msg.sender,\n                tokenData.rewardTokenId,\n                rewardAmt,\n                \"INVALID: ROYALTY_ALREADY_CLAIMED\"\n            );\n        }\n\n        return rewardAmt;\n    }\n\n    function createToken(\n        NewVersionTokenStruct memory tokenData,\n        uint256 newRecordId,\n        uint256 decidingTokenId,\n        uint256 versionReqId,\n        bool isGovernanceToken,\n        address requester\n    ) internal {\n        ITreasury treasuryContract = ITreasury(TREASURY_CONTRACT_ADDRESS);\n\n        uint256 tokenId = decidingTokenId;\n        uint256 totalSupply = treasuryContract.totalCirculatingSupply(tokenId);\n\n        uint256 newTokenId;\n        if (isGovernanceToken) {\n            newTokenId = createGovernanceToken(\n                tokenData,\n                newRecordId,\n                requester\n            );\n        } else {\n            newTokenId = createCommunityToken(\n                tokenData,\n                newRecordId,\n                requester\n            );\n        }\n\n        NewVersionTokenDistributionStruct\n            memory newVersionToken = NewVersionTokenDistributionStruct({\n                totalSupplyEther: totalSupply / 1 ether,\n                rewardAmountWei: tokenData.oldContributorShare,\n                versionRequestId: versionReqId,\n                tokenId: tokenId,\n                rewardTokenId: newTokenId,\n                rewardPerTokenWei: tokenData.oldContributorShare /\n                    (totalSupply / 1 ether),\n                snapshotId: treasuryContract.snapshot()\n            });\n\n        require(\n            newVersionToken.rewardPerTokenWei > 0,\n            \"INSUFFICIENT_AMOUNT: TOKEN_SHARE_PER_USER_IS_LOW\"\n        );\n\n        emit NewVersionTokenDistribution({\n            versionRequestId: versionReqId,\n            totalSupplyEther: newVersionToken.totalSupplyEther,\n            rewardAmountWei: newVersionToken.rewardAmountWei,\n            tokenId: newVersionToken.tokenId,\n            rewardTokenId: newTokenId,\n            rewardPerTokenWei: newVersionToken.rewardPerTokenWei,\n            snapshotId: newVersionToken.snapshotId\n        });\n\n        newVersionGovTokenDistributionMapping[versionReqId] = newVersionToken;\n    }\n\n    function createGovernanceToken(\n        NewVersionTokenStruct memory tokenData,\n        uint256 recordId,\n        address owner\n    ) internal returns (uint256) {\n        ITreasury treasuryContract = ITreasury(TREASURY_CONTRACT_ADDRESS);\n\n        return\n            treasuryContract.createNewGovernanceTokenNewRecordVersion(\n                recordId,\n                tokenData.totalSupply,\n                tokenData.userBalance,\n                tokenData.symbol,\n                tokenData.image,\n                tokenData.oldContributorShare,\n                owner\n            );\n    }\n\n    function createCommunityToken(\n        NewVersionTokenStruct memory tokenData,\n        uint256 recordId,\n        address owner\n    ) internal returns (uint256) {\n        ITreasury treasuryContract = ITreasury(TREASURY_CONTRACT_ADDRESS);\n\n        return\n            treasuryContract.createNewCommunityTokenNewRecordVersion(\n                recordId,\n                tokenData.totalSupply,\n                tokenData.userBalance,\n                tokenData.symbol,\n                tokenData.image,\n                tokenData.oldContributorShare,\n                owner\n            );\n    }\n\n    function onERC1155Received(\n        address operator,\n        address from,\n        uint256 id,\n        uint256 value,\n        bytes calldata data\n    ) external virtual override returns (bytes4) {\n        return\n            bytes4(\n                keccak256(\n                    \"onERC1155Received(address,address,uint256,uint256,bytes)\"\n                )\n            );\n    }\n\n    function onERC1155BatchReceived(\n        address operator,\n        address from,\n        uint256[] calldata ids,\n        uint256[] calldata values,\n        bytes calldata data\n    ) external virtual override returns (bytes4) {\n        return\n            bytes4(\n                keccak256(\n                    \"onERC1155BatchReceived(address,address,uint256[],uint256[],bytes)\"\n                )\n            );\n    }\n\n    function supportsInterface(bytes4 interfaceId)\n        public\n        view\n        virtual\n        override\n        returns (bool)\n    {}\n}\n",
  "sourcePath": "/Users/a1/Desktop/Office/projects/CrowdRecords/Contracts/contracts/RecordsVotingContract.sol",
  "compiler": {
    "name": "solc",
    "version": "0.8.12+commit.f00d7308.Emscripten.clang"
  },
  "schemaVersion": "3.4.6",
  "updatedAt": "2022-10-05T14:07:55.780Z",
  "devdoc": {
    "events": {
      "NewVersionRequestResult(uint256,uint256,uint256,bool)": {
        "details": "this event is generated when result of a ballot is declared",
        "params": {
          "ballotId": "this is the ballot Id for which result is declared",
          "result": "this is the status of the result",
          "tokenId": "This is the id of the token that is linked to this ballot",
          "versionReqId": "This is the id of newVersionRequest"
        }
      },
      "NewVersionVoting(address,uint256,uint256,bool)": {
        "details": "This is when a vote is given by user.",
        "params": {
          "ballotId": "Id of the ballot where voting is stored",
          "versionRequestId": "This is the id of the recordVersionRequest structure that is linked to this ballot",
          "vote": "State of vote : true for yes and false for No",
          "voter": "Address of the voter"
        }
      },
      "NewVersionVotingBallotCreated(address,uint256,uint256)": {
        "details": "This is emitted when a voting ballot is created",
        "params": {
          "ballotId": "Id of the ballot where voting is stored",
          "requester": "Address of the requester",
          "versionRequestId": "This is the id of the recordVersionRequest structure that is linked to this ballot"
        }
      },
      "VersionRequest(uint256,(string,string,uint256,uint256,address,string,uint256,bool),(uint256,uint256,uint256,string,string),(uint256,uint256,uint256,string,string),uint256[],address,uint256,uint256,uint256)": {
        "details": "This event is generated when New Record Version is created",
        "params": {
          "ballotId": "Id of the voting ballot",
          "communityToken": "New token data for community token",
          "governanceToken": "New token data for governance token",
          "oldVersionId": "Record id of old version",
          "recordData": "Data for the new record",
          "requestId": "This is the id of the new record version request",
          "requester": "Owner of the request",
          "tokenId": "id of the token which will be used for voting"
        }
      }
    },
    "kind": "dev",
    "methods": {
      "_handleUserTokenTransfers(address,uint256,uint256,uint256)": {
        "details": "This function will be called when either user is transferring the tokens to other account, or is receiving tokens from other tokens.",
        "params": {
          "newBalance": "this is the new balance of the user that is after the transfer",
          "previousBalance": "this is the old balance of the user",
          "user": "address of the user whose balance is being changed"
        }
      },
      "castVote(uint256,bool)": {
        "details": "This function is called by any user to cast vote",
        "params": {
          "versionReqId": "this is the id of the new version request for which user is voting",
          "vote": "this is the state of the vote, if true than it means the vote is in favour of the ballot"
        }
      },
      "claimNewRecordTokens(uint256)": {
        "details": "This function is for distributing of the tokens of new record version",
        "params": {
          "versionReqId": "This is the version Request Id for which token needs to be claimed"
        }
      },
      "createNewRecordVersion((string,string,string,uint256,uint256[],(uint256,uint256,uint256,string,string),(uint256,uint256,uint256,string,string)))": {
        "details": "This function will create new record version from existing record",
        "params": {
          "params": "required data for creation of new record version"
        }
      },
      "declareWinner(uint256)": {
        "details": "This function can be called from external source and also from within the contract",
        "params": {
          "versionReqId": "this is the id of the new version request to which the winner is to be declared"
        }
      },
      "onERC1155BatchReceived(address,address,uint256[],uint256[],bytes)": {
        "details": "Handles the receipt of a multiple ERC1155 token types. This function is called at the end of a `safeBatchTransferFrom` after the balances have been updated. NOTE: To accept the transfer(s), this must return `bytes4(keccak256(\"onERC1155BatchReceived(address,address,uint256[],uint256[],bytes)\"))` (i.e. 0xbc197c81, or its own function selector).",
        "params": {
          "data": "Additional data with no specified format",
          "from": "The address which previously owned the token",
          "ids": "An array containing ids of each token being transferred (order and length must match values array)",
          "operator": "The address which initiated the batch transfer (i.e. msg.sender)",
          "values": "An array containing amounts of each token being transferred (order and length must match ids array)"
        },
        "returns": {
          "_0": "`bytes4(keccak256(\"onERC1155BatchReceived(address,address,uint256[],uint256[],bytes)\"))` if transfer is allowed"
        }
      },
      "onERC1155Received(address,address,uint256,uint256,bytes)": {
        "details": "Handles the receipt of a single ERC1155 token type. This function is called at the end of a `safeTransferFrom` after the balance has been updated. NOTE: To accept the transfer, this must return `bytes4(keccak256(\"onERC1155Received(address,address,uint256,uint256,bytes)\"))` (i.e. 0xf23a6e61, or its own function selector).",
        "params": {
          "data": "Additional data with no specified format",
          "from": "The address which previously owned the token",
          "id": "The ID of the token being transferred",
          "operator": "The address which initiated the transfer (i.e. msg.sender)",
          "value": "The amount of tokens being transferred"
        },
        "returns": {
          "_0": "`bytes4(keccak256(\"onERC1155Received(address,address,uint256,uint256,bytes)\"))` if transfer is allowed"
        }
      },
      "pushContributionIdToContributionList(uint256,uint256)": {
        "details": "This function pushes a contribution into the array of the record",
        "params": {
          "contributionId": "This is the contribution id to push in array",
          "recordId": "This is the recordId to which contribution is to be added"
        }
      },
      "setContributionContractAddress(address)": {
        "details": "This function sets the contribution Contract address",
        "params": {
          "contributionContractAddress": "Takes the address of new contribution contract as parameter"
        }
      },
      "setOwnerAddress(address)": {
        "details": "This function sets the owner address",
        "params": {
          "ownerAddress": "This is the address of the owner"
        }
      },
      "setRecordsContractAddress(address)": {
        "details": "This function sets the Records Contract address",
        "params": {
          "recordsContractAddress": "New records contract address"
        }
      },
      "setTreasuryContractAddress(address)": {
        "details": "This function sets the Treasury Contract address",
        "params": {
          "treasuryContractAddress": "Takes the address of new treasury contract as parameter"
        }
      },
      "setTreasuryCoreContractAddress(address)": {
        "details": "This function sets the Treasury Contract address",
        "params": {
          "treasuryCoreContractAddress": "Takes the address of new treasury core contract as parameter"
        }
      },
      "supportsInterface(bytes4)": {
        "details": "Returns true if this contract implements the interface defined by `interfaceId`. See the corresponding https://eips.ethereum.org/EIPS/eip-165#how-interfaces-are-identified[EIP section] to learn more about how these ids are created. This function call must use less than 30 000 gas."
      }
    },
    "version": 1
  },
  "userdoc": {
    "kind": "user",
    "methods": {},
    "version": 1
  }
}