{
  "contractName": "RecordsVotingContract",
  "abi": [
    {
      "inputs": [
        {
          "internalType": "address",
          "name": "owner",
          "type": "address"
        }
      ],
      "stateMutability": "nonpayable",
      "type": "constructor"
    },
    {
      "anonymous": false,
      "inputs": [
        {
          "indexed": false,
          "internalType": "uint8",
          "name": "version",
          "type": "uint8"
        }
      ],
      "name": "Initialized",
      "type": "event"
    },
    {
      "anonymous": false,
      "inputs": [
        {
          "indexed": false,
          "internalType": "uint256",
          "name": "versionRequestId",
          "type": "uint256"
        },
        {
          "indexed": false,
          "internalType": "uint256",
          "name": "rewardTokenId",
          "type": "uint256"
        },
        {
          "indexed": false,
          "internalType": "uint256",
          "name": "rewardAmount",
          "type": "uint256"
        },
        {
          "indexed": false,
          "internalType": "address",
          "name": "userAddress",
          "type": "address"
        }
      ],
      "name": "NewTokenClaimed",
      "type": "event"
    },
    {
      "anonymous": false,
      "inputs": [
        {
          "indexed": false,
          "internalType": "uint256",
          "name": "versionReqId",
          "type": "uint256"
        },
        {
          "indexed": false,
          "internalType": "uint256",
          "name": "tokenId",
          "type": "uint256"
        },
        {
          "indexed": false,
          "internalType": "uint256",
          "name": "ballotId",
          "type": "uint256"
        },
        {
          "indexed": false,
          "internalType": "bool",
          "name": "result",
          "type": "bool"
        }
      ],
      "name": "NewVersionRequestResult",
      "type": "event"
    },
    {
      "anonymous": false,
      "inputs": [
        {
          "indexed": false,
          "internalType": "uint256",
          "name": "versionRequestId",
          "type": "uint256"
        },
        {
          "indexed": false,
          "internalType": "uint256",
          "name": "totalSupplyEther",
          "type": "uint256"
        },
        {
          "indexed": false,
          "internalType": "uint256",
          "name": "rewardAmountWei",
          "type": "uint256"
        },
        {
          "indexed": false,
          "internalType": "uint256",
          "name": "tokenId",
          "type": "uint256"
        },
        {
          "indexed": false,
          "internalType": "uint256",
          "name": "rewardTokenId",
          "type": "uint256"
        },
        {
          "indexed": false,
          "internalType": "uint256",
          "name": "rewardPerTokenWei",
          "type": "uint256"
        },
        {
          "indexed": false,
          "internalType": "uint256",
          "name": "snapshotId",
          "type": "uint256"
        }
      ],
      "name": "NewVersionTokenDistribution",
      "type": "event"
    },
    {
      "anonymous": false,
      "inputs": [
        {
          "indexed": false,
          "internalType": "address",
          "name": "voter",
          "type": "address"
        },
        {
          "indexed": false,
          "internalType": "uint256",
          "name": "versionRequestId",
          "type": "uint256"
        },
        {
          "indexed": false,
          "internalType": "uint256",
          "name": "ballotId",
          "type": "uint256"
        },
        {
          "indexed": false,
          "internalType": "bool",
          "name": "vote",
          "type": "bool"
        }
      ],
      "name": "NewVersionVoting",
      "type": "event"
    },
    {
      "anonymous": false,
      "inputs": [
        {
          "indexed": false,
          "internalType": "address",
          "name": "requester",
          "type": "address"
        },
        {
          "indexed": false,
          "internalType": "uint256",
          "name": "versionRequestId",
          "type": "uint256"
        },
        {
          "indexed": false,
          "internalType": "uint256",
          "name": "ballotId",
          "type": "uint256"
        }
      ],
      "name": "NewVersionVotingBallotCreated",
      "type": "event"
    },
    {
      "anonymous": false,
      "inputs": [
        {
          "indexed": false,
          "internalType": "uint256",
          "name": "requestId",
          "type": "uint256"
        },
        {
          "components": [
            {
              "internalType": "string",
              "name": "name",
              "type": "string"
            },
            {
              "internalType": "string",
              "name": "image",
              "type": "string"
            },
            {
              "internalType": "uint256",
              "name": "seedId",
              "type": "uint256"
            },
            {
              "internalType": "uint256",
              "name": "parentId",
              "type": "uint256"
            },
            {
              "internalType": "address",
              "name": "owner",
              "type": "address"
            },
            {
              "internalType": "string",
              "name": "recordCategory",
              "type": "string"
            },
            {
              "internalType": "uint256",
              "name": "creationDate",
              "type": "uint256"
            },
            {
              "internalType": "bool",
              "name": "isPresent",
              "type": "bool"
            }
          ],
          "indexed": false,
          "internalType": "struct RecordsContract.RecordStruct",
          "name": "recordData",
          "type": "tuple"
        },
        {
          "components": [
            {
              "internalType": "uint256",
              "name": "totalSupply",
              "type": "uint256"
            },
            {
              "internalType": "uint256",
              "name": "oldContributorShare",
              "type": "uint256"
            },
            {
              "internalType": "uint256",
              "name": "userBalance",
              "type": "uint256"
            },
            {
              "internalType": "string",
              "name": "symbol",
              "type": "string"
            },
            {
              "internalType": "string",
              "name": "image",
              "type": "string"
            }
          ],
          "indexed": false,
          "internalType": "struct RecordsVotingContract.NewVersionTokenStruct",
          "name": "governanceToken",
          "type": "tuple"
        },
        {
          "components": [
            {
              "internalType": "uint256",
              "name": "totalSupply",
              "type": "uint256"
            },
            {
              "internalType": "uint256",
              "name": "oldContributorShare",
              "type": "uint256"
            },
            {
              "internalType": "uint256",
              "name": "userBalance",
              "type": "uint256"
            },
            {
              "internalType": "string",
              "name": "symbol",
              "type": "string"
            },
            {
              "internalType": "string",
              "name": "image",
              "type": "string"
            }
          ],
          "indexed": false,
          "internalType": "struct RecordsVotingContract.NewVersionTokenStruct",
          "name": "communityToken",
          "type": "tuple"
        },
        {
          "indexed": false,
          "internalType": "uint256[]",
          "name": "contributionIds",
          "type": "uint256[]"
        },
        {
          "indexed": false,
          "internalType": "address",
          "name": "requester",
          "type": "address"
        },
        {
          "indexed": false,
          "internalType": "uint256",
          "name": "oldVersionId",
          "type": "uint256"
        },
        {
          "indexed": false,
          "internalType": "uint256",
          "name": "tokenId",
          "type": "uint256"
        },
        {
          "indexed": false,
          "internalType": "uint256",
          "name": "ballotId",
          "type": "uint256"
        }
      ],
      "name": "VersionRequest",
      "type": "event"
    },
    {
      "inputs": [],
      "name": "OWNER",
      "outputs": [
        {
          "internalType": "address",
          "name": "",
          "type": "address"
        }
      ],
      "stateMutability": "view",
      "type": "function"
    },
    {
      "inputs": [],
      "name": "RECORDS_CONTRACT_ADDRESS",
      "outputs": [
        {
          "internalType": "address",
          "name": "",
          "type": "address"
        }
      ],
      "stateMutability": "view",
      "type": "function"
    },
    {
      "inputs": [],
      "name": "TREASURY_CONTRACT_ADDRESS",
      "outputs": [
        {
          "internalType": "address",
          "name": "",
          "type": "address"
        }
      ],
      "stateMutability": "view",
      "type": "function"
    },
    {
      "inputs": [],
      "name": "TREASURY_CORE_CONTRACT_ADDRESS",
      "outputs": [
        {
          "internalType": "address",
          "name": "",
          "type": "address"
        }
      ],
      "stateMutability": "view",
      "type": "function"
    },
    {
      "inputs": [],
      "name": "TREASURY_HUB_ADDRESS",
      "outputs": [
        {
          "internalType": "address",
          "name": "",
          "type": "address"
        }
      ],
      "stateMutability": "view",
      "type": "function"
    },
    {
      "inputs": [
        {
          "internalType": "address",
          "name": "user",
          "type": "address"
        },
        {
          "internalType": "uint256",
          "name": "tokenId",
          "type": "uint256"
        },
        {
          "internalType": "uint256",
          "name": "previousBalance",
          "type": "uint256"
        },
        {
          "internalType": "uint256",
          "name": "newBalance",
          "type": "uint256"
        }
      ],
      "name": "_handleUserTokenTransfers",
      "outputs": [],
      "stateMutability": "nonpayable",
      "type": "function"
    },
    {
      "inputs": [
        {
          "internalType": "uint256",
          "name": "",
          "type": "uint256"
        }
      ],
      "name": "newVersionRequestMap",
      "outputs": [
        {
          "components": [
            {
              "internalType": "string",
              "name": "name",
              "type": "string"
            },
            {
              "internalType": "string",
              "name": "image",
              "type": "string"
            },
            {
              "internalType": "uint256",
              "name": "seedId",
              "type": "uint256"
            },
            {
              "internalType": "uint256",
              "name": "parentId",
              "type": "uint256"
            },
            {
              "internalType": "address",
              "name": "owner",
              "type": "address"
            },
            {
              "internalType": "string",
              "name": "recordCategory",
              "type": "string"
            },
            {
              "internalType": "uint256",
              "name": "creationDate",
              "type": "uint256"
            },
            {
              "internalType": "bool",
              "name": "isPresent",
              "type": "bool"
            }
          ],
          "internalType": "struct RecordsContract.RecordStruct",
          "name": "recordData",
          "type": "tuple"
        },
        {
          "components": [
            {
              "internalType": "uint256",
              "name": "totalSupply",
              "type": "uint256"
            },
            {
              "internalType": "uint256",
              "name": "oldContributorShare",
              "type": "uint256"
            },
            {
              "internalType": "uint256",
              "name": "userBalance",
              "type": "uint256"
            },
            {
              "internalType": "string",
              "name": "symbol",
              "type": "string"
            },
            {
              "internalType": "string",
              "name": "image",
              "type": "string"
            }
          ],
          "internalType": "struct RecordsVotingContract.NewVersionTokenStruct",
          "name": "governanceToken",
          "type": "tuple"
        },
        {
          "components": [
            {
              "internalType": "uint256",
              "name": "totalSupply",
              "type": "uint256"
            },
            {
              "internalType": "uint256",
              "name": "oldContributorShare",
              "type": "uint256"
            },
            {
              "internalType": "uint256",
              "name": "userBalance",
              "type": "uint256"
            },
            {
              "internalType": "string",
              "name": "symbol",
              "type": "string"
            },
            {
              "internalType": "string",
              "name": "image",
              "type": "string"
            }
          ],
          "internalType": "struct RecordsVotingContract.NewVersionTokenStruct",
          "name": "communityToken",
          "type": "tuple"
        },
        {
          "internalType": "address",
          "name": "requester",
          "type": "address"
        },
        {
          "internalType": "uint256",
          "name": "oldVersionId",
          "type": "uint256"
        },
        {
          "internalType": "uint256",
          "name": "tokenId",
          "type": "uint256"
        },
        {
          "internalType": "uint256",
          "name": "ballotId",
          "type": "uint256"
        },
        {
          "internalType": "bool",
          "name": "isPresent",
          "type": "bool"
        },
        {
          "internalType": "bool",
          "name": "isAccepted",
          "type": "bool"
        }
      ],
      "stateMutability": "view",
      "type": "function"
    },
    {
      "inputs": [
        {
          "internalType": "uint256",
          "name": "",
          "type": "uint256"
        },
        {
          "internalType": "address",
          "name": "",
          "type": "address"
        }
      ],
      "name": "rewardsClaimed",
      "outputs": [
        {
          "internalType": "bool",
          "name": "",
          "type": "bool"
        }
      ],
      "stateMutability": "view",
      "type": "function"
    },
    {
      "inputs": [
        {
          "internalType": "address",
          "name": "ownerAddress",
          "type": "address"
        }
      ],
      "name": "setOwnerAddress",
      "outputs": [],
      "stateMutability": "nonpayable",
      "type": "function"
    },
    {
      "inputs": [
        {
          "internalType": "address",
          "name": "recordsContractAddress",
          "type": "address"
        },
        {
          "internalType": "address",
          "name": "treasuryContractAddress",
          "type": "address"
        },
        {
          "internalType": "address",
          "name": "treasuryCoreContractAddress",
          "type": "address"
        }
      ],
      "name": "initialize",
      "outputs": [],
      "stateMutability": "nonpayable",
      "type": "function"
    },
    {
      "inputs": [
        {
          "internalType": "address",
          "name": "newTreasuryContractAddress",
          "type": "address"
        }
      ],
      "name": "initialize",
      "outputs": [],
      "stateMutability": "nonpayable",
      "type": "function"
    },
    {
      "inputs": [
        {
          "components": [
            {
              "internalType": "string",
              "name": "name",
              "type": "string"
            },
            {
              "internalType": "string",
              "name": "image",
              "type": "string"
            },
            {
              "internalType": "string",
              "name": "recordCategory",
              "type": "string"
            },
            {
              "internalType": "uint256",
              "name": "oldRecordId",
              "type": "uint256"
            },
            {
              "internalType": "uint256[]",
              "name": "contributionIds",
              "type": "uint256[]"
            },
            {
              "components": [
                {
                  "internalType": "uint256",
                  "name": "totalSupply",
                  "type": "uint256"
                },
                {
                  "internalType": "uint256",
                  "name": "oldContributorShare",
                  "type": "uint256"
                },
                {
                  "internalType": "uint256",
                  "name": "userBalance",
                  "type": "uint256"
                },
                {
                  "internalType": "string",
                  "name": "symbol",
                  "type": "string"
                },
                {
                  "internalType": "string",
                  "name": "image",
                  "type": "string"
                }
              ],
              "internalType": "struct RecordsVotingContract.NewVersionTokenStruct",
              "name": "governanceToken",
              "type": "tuple"
            },
            {
              "components": [
                {
                  "internalType": "uint256",
                  "name": "totalSupply",
                  "type": "uint256"
                },
                {
                  "internalType": "uint256",
                  "name": "oldContributorShare",
                  "type": "uint256"
                },
                {
                  "internalType": "uint256",
                  "name": "userBalance",
                  "type": "uint256"
                },
                {
                  "internalType": "string",
                  "name": "symbol",
                  "type": "string"
                },
                {
                  "internalType": "string",
                  "name": "image",
                  "type": "string"
                }
              ],
              "internalType": "struct RecordsVotingContract.NewVersionTokenStruct",
              "name": "communityToken",
              "type": "tuple"
            }
          ],
          "internalType": "struct RecordsVotingContract.NewRecordVersionParams",
          "name": "params",
          "type": "tuple"
        }
      ],
      "name": "createNewRecordVersion",
      "outputs": [
        {
          "internalType": "uint256",
          "name": "",
          "type": "uint256"
        }
      ],
      "stateMutability": "nonpayable",
      "type": "function"
    },
    {
      "inputs": [
        {
          "internalType": "uint256",
          "name": "versionReqId",
          "type": "uint256"
        },
        {
          "internalType": "bool",
          "name": "vote",
          "type": "bool"
        }
      ],
      "name": "castVote",
      "outputs": [],
      "stateMutability": "nonpayable",
      "type": "function"
    },
    {
      "inputs": [
        {
          "internalType": "uint256",
          "name": "versionReqId",
          "type": "uint256"
        }
      ],
      "name": "declareWinner",
      "outputs": [],
      "stateMutability": "nonpayable",
      "type": "function"
    },
    {
      "inputs": [
        {
          "internalType": "uint256",
          "name": "versionReqId",
          "type": "uint256"
        }
      ],
      "name": "claimNewRecordTokens",
      "outputs": [],
      "stateMutability": "nonpayable",
      "type": "function"
    },
    {
      "inputs": [
        {
          "internalType": "address",
          "name": "operator",
          "type": "address"
        },
        {
          "internalType": "address",
          "name": "from",
          "type": "address"
        },
        {
          "internalType": "uint256",
          "name": "id",
          "type": "uint256"
        },
        {
          "internalType": "uint256",
          "name": "value",
          "type": "uint256"
        },
        {
          "internalType": "bytes",
          "name": "data",
          "type": "bytes"
        }
      ],
      "name": "onERC1155Received",
      "outputs": [
        {
          "internalType": "bytes4",
          "name": "",
          "type": "bytes4"
        }
      ],
      "stateMutability": "nonpayable",
      "type": "function"
    },
    {
      "inputs": [
        {
          "internalType": "address",
          "name": "operator",
          "type": "address"
        },
        {
          "internalType": "address",
          "name": "from",
          "type": "address"
        },
        {
          "internalType": "uint256[]",
          "name": "ids",
          "type": "uint256[]"
        },
        {
          "internalType": "uint256[]",
          "name": "values",
          "type": "uint256[]"
        },
        {
          "internalType": "bytes",
          "name": "data",
          "type": "bytes"
        }
      ],
      "name": "onERC1155BatchReceived",
      "outputs": [
        {
          "internalType": "bytes4",
          "name": "",
          "type": "bytes4"
        }
      ],
      "stateMutability": "nonpayable",
      "type": "function"
    },
    {
      "inputs": [
        {
          "internalType": "bytes4",
          "name": "interfaceId",
          "type": "bytes4"
        }
      ],
      "name": "supportsInterface",
      "outputs": [
        {
          "internalType": "bool",
          "name": "",
          "type": "bool"
        }
      ],
      "stateMutability": "view",
      "type": "function"
    }
  ],
  "bytecode": "0x6080604052601960015560006005556000600a553480156200002057600080fd5b5060405162005e7f38038062005e7f8339818101604052810190620000469190620000fa565b8080600460006101000a81548173ffffffffffffffffffffffffffffffffffffffff021916908373ffffffffffffffffffffffffffffffffffffffff16021790555050506200012c565b600080fd5b600073ffffffffffffffffffffffffffffffffffffffff82169050919050565b6000620000c28262000095565b9050919050565b620000d481620000b5565b8114620000e057600080fd5b50565b600081519050620000f481620000c9565b92915050565b60006020828403121562000113576200011262000090565b5b60006200012384828501620000e3565b91505092915050565b615d43806200013c6000396000f3fe608060405234801561001057600080fd5b50600436106101155760003560e01c80639a835e91116100a2578063bc197c8111610071578063bc197c81146102e8578063c0c53b8b14610318578063c4d66de814610334578063c768e2d614610350578063f23a6e611461036c57610115565b80639a835e9114610260578063abb7ed7f14610290578063acb31493146102ac578063ba19a675146102ca57610115565b8063331a6bf5116100e9578063331a6bf5146101a0578063556bed3a146101bc57806358f0b6c1146101da5780638d2ae1f71461021257806399728a451461023057610115565b8062c2943c1461011a57806301ffc9a714610136578063117803e31461016657806315373e3d14610184575b600080fd5b610134600480360381019061012f9190613db5565b61039c565b005b610150600480360381019061014b9190613e3a565b610c5a565b60405161015d9190613e82565b60405180910390f35b61016e610c61565b60405161017b9190613ede565b60405180910390f35b61019e60048036038101906101999190613f25565b610c87565b005b6101ba60048036038101906101b59190613f91565b610d52565b005b6101c4610e26565b6040516101d19190613ede565b60405180910390f35b6101f460048036038101906101ef9190613db5565b610e4c565b604051610209999897969594939291906141ce565b60405180910390f35b61021a6113bc565b6040516102279190613ede565b60405180910390f35b61024a60048036038101906102459190614697565b6113e2565b60405161025791906146e0565b60405180910390f35b61027a600480360381019061027591906146fb565b611a72565b6040516102879190613e82565b60405180910390f35b6102aa60048036038101906102a5919061473b565b611aa1565b005b6102b4611c9a565b6040516102c19190613ede565b60405180910390f35b6102d2611cc0565b6040516102df9190613ede565b60405180910390f35b61030260048036038101906102fd9190614853565b611ce6565b60405161030f919061493e565b60405180910390f35b610332600480360381019061032d9190614959565b611d17565b005b61034e60048036038101906103499190613f91565b611f6b565b005b61036a60048036038101906103659190613db5565b611ffe565b005b610386600480360381019061038191906149ac565b612961565b604051610393919061493e565b60405180910390f35b6000600e60009054906101000a900473ffffffffffffffffffffffffffffffffffffffff1690506000600b600084815260200190815260200160002060405180610140016040529081600082016040518061010001604052908160008201805461040590614a75565b80601f016020809104026020016040519081016040528092919081815260200182805461043190614a75565b801561047e5780601f106104535761010080835404028352916020019161047e565b820191906000526020600020905b81548152906001019060200180831161046157829003601f168201915b5050505050815260200160018201805461049790614a75565b80601f01602080910402602001604051908101604052809291908181526020018280546104c390614a75565b80156105105780601f106104e557610100808354040283529160200191610510565b820191906000526020600020905b8154815290600101906020018083116104f357829003601f168201915b5050505050815260200160028201548152602001600382015481526020016004820160009054906101000a900473ffffffffffffffffffffffffffffffffffffffff1673ffffffffffffffffffffffffffffffffffffffff1673ffffffffffffffffffffffffffffffffffffffff16815260200160058201805461059390614a75565b80601f01602080910402602001604051908101604052809291908181526020018280546105bf90614a75565b801561060c5780601f106105e15761010080835404028352916020019161060c565b820191906000526020600020905b8154815290600101906020018083116105ef57829003601f168201915b50505050508152602001600682015481526020016007820160009054906101000a900460ff1615151515815250508152602001600882016040518060a001604052908160008201548152602001600182015481526020016002820154815260200160038201805461067c90614a75565b80601f01602080910402602001604051908101604052809291908181526020018280546106a890614a75565b80156106f55780601f106106ca576101008083540402835291602001916106f5565b820191906000526020600020905b8154815290600101906020018083116106d857829003601f168201915b5050505050815260200160048201805461070e90614a75565b80601f016020809104026020016040519081016040528092919081815260200182805461073a90614a75565b80156107875780601f1061075c57610100808354040283529160200191610787565b820191906000526020600020905b81548152906001019060200180831161076a57829003601f168201915b5050505050815250508152602001600d82016040518060a00160405290816000820154815260200160018201548152602001600282015481526020016003820180546107d290614a75565b80601f01602080910402602001604051908101604052809291908181526020018280546107fe90614a75565b801561084b5780601f106108205761010080835404028352916020019161084b565b820191906000526020600020905b81548152906001019060200180831161082e57829003601f168201915b5050505050815260200160048201805461086490614a75565b80601f016020809104026020016040519081016040528092919081815260200182805461089090614a75565b80156108dd5780601f106108b2576101008083540402835291602001916108dd565b820191906000526020600020905b8154815290600101906020018083116108c057829003601f168201915b50505050508152505081526020016012820180548060200260200160405190810160405280929190818152602001828054801561093957602002820191906000526020600020905b815481526020019060010190808311610925575b505050505081526020016013820160009054906101000a900473ffffffffffffffffffffffffffffffffffffffff1673ffffffffffffffffffffffffffffffffffffffff1673ffffffffffffffffffffffffffffffffffffffff1681526020016014820154815260200160158201548152602001601682015481526020016017820160009054906101000a900460ff161515151581526020016017820160019054906101000a900460ff161515151581525050905060006109fd8260e00151612990565b90507f8f055f41b038b63ed8fff3423ae641e18d2378e98c4d353ea35adf31cbe0bc83848360c001518460e0015184604051610a3c9493929190614aa7565b60405180910390a18015610c26576000600260009054906101000a900473ffffffffffffffffffffffffffffffffffffffff16905060008473ffffffffffffffffffffffffffffffffffffffff16634b02f22d856000015186606001516040518363ffffffff1660e01b8152600401610ab6929190614b9b565b6020604051808303816000875af1158015610ad5573d6000803e3d6000fd5b505050506040513d601f19601f82011682018060405250810190610af99190614be7565b9050610b8f8460200151828473ffffffffffffffffffffffffffffffffffffffff16632d4a03828860a001516040518263ffffffff1660e01b8152600401610b4191906146e0565b602060405180830381865afa158015610b5e573d6000803e3d6000fd5b505050506040513d601f19601f82011682018060405250810190610b829190614be7565b8960018960800151612c0d565b610c238460400151828473ffffffffffffffffffffffffffffffffffffffff16632d4a03828860a001516040518263ffffffff1660e01b8152600401610bd591906146e0565b602060405180830381865afa158015610bf2573d6000803e3d6000fd5b505050506040513d601f19601f82011682018060405250810190610c169190614be7565b8960008960800151612c0d565b50505b80600b600086815260200190815260200160002060170160016101000a81548160ff02191690831515021790555050505050565b6000919050565b600460009054906101000a900473ffffffffffffffffffffffffffffffffffffffff1681565b60011515600b600084815260200190815260200160002060170160009054906101000a900460ff16151514610cf1576040517f08c379a0000000000000000000000000000000000000000000000000000000008152600401610ce890614c71565b60405180910390fd5b7f7fa8530f2b70b1c2f0aa92650d5274e8e84988e1af0fa8ca56a37ba7646720743383600b60008681526020019081526020016000206016015484604051610d3c9493929190614c91565b60405180910390a1610d4e8282612f30565b5050565b600460009054906101000a900473ffffffffffffffffffffffffffffffffffffffff1673ffffffffffffffffffffffffffffffffffffffff163373ffffffffffffffffffffffffffffffffffffffff1614610de2576040517f08c379a0000000000000000000000000000000000000000000000000000000008152600401610dd990614d48565b60405180910390fd5b80600460006101000a81548173ffffffffffffffffffffffffffffffffffffffff021916908373ffffffffffffffffffffffffffffffffffffffff16021790555050565b600d60009054906101000a900473ffffffffffffffffffffffffffffffffffffffff1681565b600b6020528060005260406000206000915090508060000160405180610100016040529081600082018054610e8090614a75565b80601f0160208091040260200160405190810160405280929190818152602001828054610eac90614a75565b8015610ef95780601f10610ece57610100808354040283529160200191610ef9565b820191906000526020600020905b815481529060010190602001808311610edc57829003601f168201915b50505050508152602001600182018054610f1290614a75565b80601f0160208091040260200160405190810160405280929190818152602001828054610f3e90614a75565b8015610f8b5780601f10610f6057610100808354040283529160200191610f8b565b820191906000526020600020905b815481529060010190602001808311610f6e57829003601f168201915b5050505050815260200160028201548152602001600382015481526020016004820160009054906101000a900473ffffffffffffffffffffffffffffffffffffffff1673ffffffffffffffffffffffffffffffffffffffff1673ffffffffffffffffffffffffffffffffffffffff16815260200160058201805461100e90614a75565b80601f016020809104026020016040519081016040528092919081815260200182805461103a90614a75565b80156110875780601f1061105c57610100808354040283529160200191611087565b820191906000526020600020905b81548152906001019060200180831161106a57829003601f168201915b50505050508152602001600682015481526020016007820160009054906101000a900460ff16151515158152505090806008016040518060a00160405290816000820154815260200160018201548152602001600282015481526020016003820180546110f390614a75565b80601f016020809104026020016040519081016040528092919081815260200182805461111f90614a75565b801561116c5780601f106111415761010080835404028352916020019161116c565b820191906000526020600020905b81548152906001019060200180831161114f57829003601f168201915b5050505050815260200160048201805461118590614a75565b80601f01602080910402602001604051908101604052809291908181526020018280546111b190614a75565b80156111fe5780601f106111d3576101008083540402835291602001916111fe565b820191906000526020600020905b8154815290600101906020018083116111e157829003601f168201915b5050505050815250509080600d016040518060a001604052908160008201548152602001600182015481526020016002820154815260200160038201805461124590614a75565b80601f016020809104026020016040519081016040528092919081815260200182805461127190614a75565b80156112be5780601f10611293576101008083540402835291602001916112be565b820191906000526020600020905b8154815290600101906020018083116112a157829003601f168201915b505050505081526020016004820180546112d790614a75565b80601f016020809104026020016040519081016040528092919081815260200182805461130390614a75565b80156113505780601f1061132557610100808354040283529160200191611350565b820191906000526020600020905b81548152906001019060200180831161133357829003601f168201915b505050505081525050908060130160009054906101000a900473ffffffffffffffffffffffffffffffffffffffff16908060140154908060150154908060160154908060170160009054906101000a900460ff16908060170160019054906101000a900460ff16905089565b600360009054906101000a900473ffffffffffffffffffffffffffffffffffffffff1681565b600080600e60009054906101000a900473ffffffffffffffffffffffffffffffffffffffff16905060008173ffffffffffffffffffffffffffffffffffffffff1663cd58b8d685606001516040518263ffffffff1660e01b815260040161144991906146e0565b600060405180830381865afa158015611466573d6000803e3d6000fd5b505050506040513d6000823e3d601f19601f8201168201806040525081019061148f9190614e02565b97505050505050505060011515811515146114df576040517f08c379a00000000000000000000000000000000000000000000000000000000081526004016114d690614f58565b60405180910390fd5b50600a60008154809291906114f390614fa7565b91905055506000600a5490506000600260009054906101000a900473ffffffffffffffffffffffffffffffffffffffff16905060008173ffffffffffffffffffffffffffffffffffffffff16632d4a038287606001516040518263ffffffff1660e01b815260040161156591906146e0565b602060405180830381865afa158015611582573d6000803e3d6000fd5b505050506040513d601f19601f820116820180604052508101906115a69190614be7565b905060006115b5600083613223565b90508273ffffffffffffffffffffffffffffffffffffffff166361cbc3578860a00151606001518960c00151606001516040518363ffffffff1660e01b8152600401611602929190615029565b600060405180830381600087803b15801561161c57600080fd5b505af1158015611630573d6000803e3d6000fd5b5050505060008573ffffffffffffffffffffffffffffffffffffffff1663c1befa6a89606001518a600001518b602001518c6040015133886040518763ffffffff1660e01b815260040161168996959493929190615060565b6000604051808303816000875af11580156116a8573d6000803e3d6000fd5b505050506040513d6000823e3d601f19601f820116820180604052508101906116d191906151f4565b905060006040518061014001604052808381526020018a60a0015181526020018a60c0015181526020018a6080015181526020013373ffffffffffffffffffffffffffffffffffffffff1681526020018a6060015181526020018581526020018481526020016001151581526020016000151581525090507f42cad05f5e0c47228d26190e634cc7f9822f43ee731fe6b8f723987878a9f74686838b60a001518c60c001518d60800151338f606001518b8b6040516117989998979695949392919061523d565b60405180910390a17f481ac14a03d079bd5d1dd2bb725fae4aa2f87184de7662e57a1c32dce09276533387856040516117d3939291906152e6565b60405180910390a180600b60008881526020019081526020016000206000820151816000016000820151816000019080519060200190611814929190613c7b565b506020820151816001019080519060200190611831929190613c7b565b50604082015181600201556060820151816003015560808201518160040160006101000a81548173ffffffffffffffffffffffffffffffffffffffff021916908373ffffffffffffffffffffffffffffffffffffffff16021790555060a08201518160050190805190602001906118a9929190613c7b565b5060c0820151816006015560e08201518160070160006101000a81548160ff02191690831515021790555050506020820151816008016000820151816000015560208201518160010155604082015181600201556060820151816003019080519060200190611919929190613c7b565b506080820151816004019080519060200190611936929190613c7b565b505050604082015181600d01600082015181600001556020820151816001015560408201518160020155606082015181600301908051906020019061197c929190613c7b565b506080820151816004019080519060200190611999929190613c7b565b50505060608201518160120190805190602001906119b8929190613d01565b5060808201518160130160006101000a81548173ffffffffffffffffffffffffffffffffffffffff021916908373ffffffffffffffffffffffffffffffffffffffff16021790555060a0820151816014015560c0820151816015015560e082015181601601556101008201518160170160006101000a81548160ff0219169083151502179055506101208201518160170160016101000a81548160ff02191690831515021790555090505085975050505050505050919050565b600c6020528160005260406000206020528060005260406000206000915091509054906101000a900460ff1681565b6000600960008673ffffffffffffffffffffffffffffffffffffffff1673ffffffffffffffffffffffffffffffffffffffff168152602001908152602001600020905060005b8180549050811015611c92576001151560066000848481548110611b0e57611b0d61531d565b5b9060005260206000200154815260200190815260200160002060070160009054906101000a900460ff1615151480611b7857504360066000848481548110611b5957611b5861531d565b5b9060005260206000200154815260200190815260200160002060060154105b15611c19578160018380549050611b8f919061534c565b81548110611ba057611b9f61531d565b5b9060005260206000200154828281548110611bbe57611bbd61531d565b5b906000526020600020018190555081805480611bdd57611bdc615380565b5b600190038181906000526020600020016000905590556000811415611c055760009050611c14565b8080611c10906153af565b9150505b611c7f565b60066000838381548110611c3057611c2f61531d565b5b9060005260206000200154815260200190815260200160002060050154851415611c7e57611c7d828281548110611c6a57611c6961531d565b5b90600052602060002001548786866133c0565b5b5b8080611c8a90614fa7565b915050611ae7565b505050505050565b600260009054906101000a900473ffffffffffffffffffffffffffffffffffffffff1681565b600e60009054906101000a900473ffffffffffffffffffffffffffffffffffffffff1681565b60007fbc197c819b3e337a6f9652dd10becd7eef83032af3b9d958d3d42f6694146621905098975050505050505050565b60008060019054906101000a900460ff16159050808015611d485750600160008054906101000a900460ff1660ff16105b80611d755750611d573061358d565b158015611d745750600160008054906101000a900460ff1660ff16145b5b611db4576040517f08c379a0000000000000000000000000000000000000000000000000000000008152600401611dab9061544b565b60405180910390fd5b60016000806101000a81548160ff021916908360ff1602179055508015611df1576001600060016101000a81548160ff0219169083151502179055505b600460009054906101000a900473ffffffffffffffffffffffffffffffffffffffff1673ffffffffffffffffffffffffffffffffffffffff163373ffffffffffffffffffffffffffffffffffffffff1614611e81576040517f08c379a0000000000000000000000000000000000000000000000000000000008152600401611e7890614d48565b60405180910390fd5b611e8a83611f6b565b83600e60006101000a81548173ffffffffffffffffffffffffffffffffffffffff021916908373ffffffffffffffffffffffffffffffffffffffff16021790555081600d60006101000a81548173ffffffffffffffffffffffffffffffffffffffff021916908373ffffffffffffffffffffffffffffffffffffffff1602179055508015611f655760008060016101000a81548160ff0219169083151502179055507f7f26b83ff96e1f2b6a682f133852f6798a09c465da95921460cefb38474024986001604051611f5c91906154bd565b60405180910390a15b50505050565b600060019054906101000a900460ff16611fba576040517f08c379a0000000000000000000000000000000000000000000000000000000008152600401611fb19061554a565b60405180910390fd5b80600260006101000a81548173ffffffffffffffffffffffffffffffffffffffff021916908373ffffffffffffffffffffffffffffffffffffffff16021790555050565b6000600b600083815260200190815260200160002060405180610140016040529081600082016040518061010001604052908160008201805461204090614a75565b80601f016020809104026020016040519081016040528092919081815260200182805461206c90614a75565b80156120b95780601f1061208e576101008083540402835291602001916120b9565b820191906000526020600020905b81548152906001019060200180831161209c57829003601f168201915b505050505081526020016001820180546120d290614a75565b80601f01602080910402602001604051908101604052809291908181526020018280546120fe90614a75565b801561214b5780601f106121205761010080835404028352916020019161214b565b820191906000526020600020905b81548152906001019060200180831161212e57829003601f168201915b5050505050815260200160028201548152602001600382015481526020016004820160009054906101000a900473ffffffffffffffffffffffffffffffffffffffff1673ffffffffffffffffffffffffffffffffffffffff1673ffffffffffffffffffffffffffffffffffffffff1681526020016005820180546121ce90614a75565b80601f01602080910402602001604051908101604052809291908181526020018280546121fa90614a75565b80156122475780601f1061221c57610100808354040283529160200191612247565b820191906000526020600020905b81548152906001019060200180831161222a57829003601f168201915b50505050508152602001600682015481526020016007820160009054906101000a900460ff1615151515815250508152602001600882016040518060a00160405290816000820154815260200160018201548152602001600282015481526020016003820180546122b790614a75565b80601f01602080910402602001604051908101604052809291908181526020018280546122e390614a75565b80156123305780601f1061230557610100808354040283529160200191612330565b820191906000526020600020905b81548152906001019060200180831161231357829003601f168201915b5050505050815260200160048201805461234990614a75565b80601f016020809104026020016040519081016040528092919081815260200182805461237590614a75565b80156123c25780601f10612397576101008083540402835291602001916123c2565b820191906000526020600020905b8154815290600101906020018083116123a557829003601f168201915b5050505050815250508152602001600d82016040518060a001604052908160008201548152602001600182015481526020016002820154815260200160038201805461240d90614a75565b80601f016020809104026020016040519081016040528092919081815260200182805461243990614a75565b80156124865780601f1061245b57610100808354040283529160200191612486565b820191906000526020600020905b81548152906001019060200180831161246957829003601f168201915b5050505050815260200160048201805461249f90614a75565b80601f01602080910402602001604051908101604052809291908181526020018280546124cb90614a75565b80156125185780601f106124ed57610100808354040283529160200191612518565b820191906000526020600020905b8154815290600101906020018083116124fb57829003601f168201915b50505050508152505081526020016012820180548060200260200160405190810160405280929190818152602001828054801561257457602002820191906000526020600020905b815481526020019060010190808311612560575b505050505081526020016013820160009054906101000a900473ffffffffffffffffffffffffffffffffffffffff1673ffffffffffffffffffffffffffffffffffffffff1673ffffffffffffffffffffffffffffffffffffffff1681526020016014820154815260200160158201548152602001601682015481526020016017820160009054906101000a900460ff161515151581526020016017820160019054906101000a900460ff1615151515815250509050600660008260e00151815260200190815260200160002060070160009054906101000a900460ff16612690576040517f08c379a0000000000000000000000000000000000000000000000000000000008152600401612687906155b6565b60405180910390fd5b60001515600c600084815260200190815260200160002060003373ffffffffffffffffffffffffffffffffffffffff1673ffffffffffffffffffffffffffffffffffffffff16815260200190815260200160002060009054906101000a900460ff16151514612734576040517f08c379a000000000000000000000000000000000000000000000000000000000815260040161272b90615622565b60405180910390fd5b60011515816101200151151514612780576040517f08c379a00000000000000000000000000000000000000000000000000000000081526004016127779061568e565b60405180910390fd5b6000600f60008481526020019081526020016000206040518060e001604052908160008201548152602001600182015481526020016002820154815260200160038201548152602001600482015481526020016005820154815260200160068201548152505090506000601060008581526020019081526020016000206040518060e00160405290816000820154815260200160018201548152602001600282015481526020016003820154815260200160048201548152602001600582015481526020016006820154815250509050600061285b836135b0565b90506000612868836135b0565b90507f05e5c9b248e254567ca15790a9819305964904f68019d07432cf64fa05f2b49586856080015184336040516128a394939291906156ae565b60405180910390a17f05e5c9b248e254567ca15790a9819305964904f68019d07432cf64fa05f2b49586846080015183336040516128e494939291906156ae565b60405180910390a16001600760008760e00151815260200190815260200160002060003373ffffffffffffffffffffffffffffffffffffffff1673ffffffffffffffffffffffffffffffffffffffff16815260200190815260200160002060006101000a81548160ff021916908315150217905550505050505050565b60007ff23a6e612e1ff4830e658fe43f4e3cb4a5f8170bd5d9e69fb5d7a7fa9e4fdf9790509695505050505050565b6000600115156006600084815260200190815260200160002060070160029054906101000a900460ff161515146129fc576040517f08c379a00000000000000000000000000000000000000000000000000000000081526004016129f39061573f565b60405180910390fd5b43600660008481526020019081526020016000206006015410612a54576040517f08c379a0000000000000000000000000000000000000000000000000000000008152600401612a4b906157ab565b60405180910390fd5b600015156006600084815260200190815260200160002060070160009054906101000a900460ff16151514612abe576040517f08c379a0000000000000000000000000000000000000000000000000000000008152600401612ab590615817565b60405180910390fd5b60006006600084815260200190815260200160002090506000816001015490506000600260009054906101000a900473ffffffffffffffffffffffffffffffffffffffff16905060016006600087815260200190815260200160002060070160006101000a81548160ff0219169083151502179055506000821115612c005760008173ffffffffffffffffffffffffffffffffffffffff1663036c22ad85600501546040518263ffffffff1660e01b8152600401612b7c91906146e0565b602060405180830381865afa158015612b99573d6000803e3d6000fd5b505050506040513d601f19601f82011682018060405250810190612bbd9190614be7565b905060006064604283612bd09190615837565b612bda91906158c0565b905080841115612bf257600195505050505050612c08565b600095505050505050612c08565b600093505050505b919050565b6000600260009054906101000a900473ffffffffffffffffffffffffffffffffffffffff169050600085905060008273ffffffffffffffffffffffffffffffffffffffff1663036c22ad836040518263ffffffff1660e01b8152600401612c7491906146e0565b602060405180830381865afa158015612c91573d6000803e3d6000fd5b505050506040513d601f19601f82011682018060405250810190612cb59190614be7565b905060008515612cd157612cca8a8a87613728565b9050612cdf565b612cdc8a8a876137f6565b90505b60006040518060e00160405280670de0b6b3a764000085612d0091906158c0565b81526020018c602001518152602001898152602001858152602001838152602001670de0b6b3a764000085612d3591906158c0565b8d60200151612d4491906158c0565b81526020018673ffffffffffffffffffffffffffffffffffffffff16639711715a6040518163ffffffff1660e01b81526004016020604051808303816000875af1158015612d96573d6000803e3d6000fd5b505050506040513d601f19601f82011682018060405250810190612dba9190614be7565b815250905060008160a0015111612e06576040517f08c379a0000000000000000000000000000000000000000000000000000000008152600401612dfd90615963565b60405180910390fd5b7f70ca97bed53efc5c77b3772fd7dd916c4712482aeef3a17d25dfad3bff28f86d88826000015183602001518460600151868660a001518760c00151604051612e559796959493929190615983565b60405180910390a18615612ec55780600f60008a8152602001908152602001600020600082015181600001556020820151816001015560408201518160020155606082015181600301556080820151816004015560a0820151816005015560c08201518160060155905050612f23565b80601060008a8152602001908152602001600020600082015181600001556020820151816001015560408201518160020155606082015181600301556080820151816004015560a0820151816005015560c082015181600601559050505b5050505050505050505050565b8133600115156006600084815260200190815260200160002060070160029054906101000a900460ff16151514612f9c576040517f08c379a0000000000000000000000000000000000000000000000000000000008152600401612f939061573f565b60405180910390fd5b43600660008481526020019081526020016000206006015411612ff4576040517f08c379a0000000000000000000000000000000000000000000000000000000008152600401612feb906157ab565b60405180910390fd5b600015156007600084815260200190815260200160002060008373ffffffffffffffffffffffffffffffffffffffff1673ffffffffffffffffffffffffffffffffffffffff16815260200190815260200160002060009054906101000a900460ff16151514613098576040517f08c379a000000000000000000000000000000000000000000000000000000000815260040161308f90615a3e565b60405180910390fd5b836006600082815260200190815260200160002060070160019054906101000a900460ff161561316b57600015156007600083815260200190815260200160002060003273ffffffffffffffffffffffffffffffffffffffff1673ffffffffffffffffffffffffffffffffffffffff16815260200190815260200160002060009054906101000a900460ff16151514613166576040517f08c379a000000000000000000000000000000000000000000000000000000000815260040161315d90615a3e565b60405180910390fd5b613211565b6006600082815260200190815260200160002060000160009054906101000a900473ffffffffffffffffffffffffffffffffffffffff1673ffffffffffffffffffffffffffffffffffffffff163273ffffffffffffffffffffffffffffffffffffffff161415613210576040517f08c379a000000000000000000000000000000000000000000000000000000000815260040161320790615aaa565b60405180910390fd5b5b61321c8585326138c4565b5050505050565b60006005600081548092919061323890614fa7565b919050555060006040518061014001604052803273ffffffffffffffffffffffffffffffffffffffff16815260200160008152602001600081526020016000815260200160008152602001848152602001600154436132979190615aca565b815260200160001515815260200185151581526020016001151581525090508060066000600554815260200190815260200160002060008201518160000160006101000a81548173ffffffffffffffffffffffffffffffffffffffff021916908373ffffffffffffffffffffffffffffffffffffffff1602179055506020820151816001015560408201518160020155606082015181600301556080820151816004015560a0820151816005015560c0820151816006015560e08201518160070160006101000a81548160ff0219169083151502179055506101008201518160070160016101000a81548160ff0219169083151502179055506101208201518160070160026101000a81548160ff02191690831515021790555090505060055491505092915050565b600115156007600086815260200190815260200160002060008573ffffffffffffffffffffffffffffffffffffffff1673ffffffffffffffffffffffffffffffffffffffff16815260200190815260200160002060009054906101000a900460ff16151514613464576040517f08c379a000000000000000000000000000000000000000000000000000000000815260040161345b90615b92565b60405180910390fd5b60006008600086815260200190815260200160002060008573ffffffffffffffffffffffffffffffffffffffff1673ffffffffffffffffffffffffffffffffffffffff16815260200190815260200160002060009054906101000a900460ff169050801561352b57826006600087815260200190815260200160002060010160008282546134f2919061534c565b925050819055508160066000878152602001908152602001600020600101600082825461351f9190615aca565b92505081905550613586565b82600660008781526020019081526020016000206003016000828254613551919061534c565b925050819055508160066000878152602001908152602001600020600301600082825461357e9190615aca565b925050819055505b5050505050565b6000808273ffffffffffffffffffffffffffffffffffffffff163b119050919050565b600080600d60009054906101000a900473ffffffffffffffffffffffffffffffffffffffff16905060008173ffffffffffffffffffffffffffffffffffffffff1663626da068338660c0015187606001516040518463ffffffff1660e01b815260040161361f939291906152e6565b602060405180830381865afa15801561363c573d6000803e3d6000fd5b505050506040513d601f19601f820116820180604052508101906136609190614be7565b9050600081141561367657600092505050613723565b6000670de0b6b3a7640000828660a001516136919190615837565b61369b91906158c0565b9050600081111561371c578273ffffffffffffffffffffffffffffffffffffffff1663f242432a30338860800151856040518563ffffffff1660e01b81526004016136e99493929190615c0f565b600060405180830381600087803b15801561370357600080fd5b505af1158015613717573d6000803e3d6000fd5b505050505b8093505050505b919050565b600080600260009054906101000a900473ffffffffffffffffffffffffffffffffffffffff1690508073ffffffffffffffffffffffffffffffffffffffff166354d4f719858760000151886040015189606001518a608001518b602001518a6040518863ffffffff1660e01b81526004016137a99796959493929190615c67565b6020604051808303816000875af11580156137c8573d6000803e3d6000fd5b505050506040513d601f19601f820116820180604052508101906137ec9190614be7565b9150509392505050565b600080600260009054906101000a900473ffffffffffffffffffffffffffffffffffffffff1690508073ffffffffffffffffffffffffffffffffffffffff16631e622476858760000151886040015189606001518a608001518b602001518a6040518863ffffffff1660e01b81526004016138779796959493929190615c67565b6020604051808303816000875af1158015613896573d6000803e3d6000fd5b505050506040513d601f19601f820116820180604052508101906138ba9190614be7565b9150509392505050565b6000600260009054906101000a900473ffffffffffffffffffffffffffffffffffffffff169050600060066000868152602001908152602001600020604051806101400160405290816000820160009054906101000a900473ffffffffffffffffffffffffffffffffffffffff1673ffffffffffffffffffffffffffffffffffffffff1673ffffffffffffffffffffffffffffffffffffffff1681526020016001820154815260200160028201548152602001600382015481526020016004820154815260200160058201548152602001600682015481526020016007820160009054906101000a900460ff161515151581526020016007820160019054906101000a900460ff161515151581526020016007820160029054906101000a900460ff161515151581525050905060008273ffffffffffffffffffffffffffffffffffffffff1662fdd58e858460a001516040518363ffffffff1660e01b8152600401613a31929190615ce4565b602060405180830381865afa158015613a4e573d6000803e3d6000fd5b505050506040513d601f19601f82011682018060405250810190613a729190614be7565b90508415613ada5780600660008881526020019081526020016000206001016000828254613aa09190615aca565b925050819055506001600660008881526020019081526020016000206002016000828254613ace9190615aca565b92505081905550613b36565b80600660008881526020019081526020016000206003016000828254613b009190615aca565b925050819055506001600660008881526020019081526020016000206004016000828254613b2e9190615aca565b925050819055505b60016007600088815260200190815260200160002060008673ffffffffffffffffffffffffffffffffffffffff1673ffffffffffffffffffffffffffffffffffffffff16815260200190815260200160002060006101000a81548160ff021916908315150217905550846008600088815260200190815260200160002060008673ffffffffffffffffffffffffffffffffffffffff1673ffffffffffffffffffffffffffffffffffffffff16815260200190815260200160002060006101000a81548160ff0219169083151502179055506000600960008673ffffffffffffffffffffffffffffffffffffffff1673ffffffffffffffffffffffffffffffffffffffff16815260200190815260200160002090508087908060018154018082558091505060019003906000526020600020016000909190919091505550505050505050565b828054613c8790614a75565b90600052602060002090601f016020900481019282613ca95760008555613cf0565b82601f10613cc257805160ff1916838001178555613cf0565b82800160010185558215613cf0579182015b82811115613cef578251825591602001919060010190613cd4565b5b509050613cfd9190613d4e565b5090565b828054828255906000526020600020908101928215613d3d579160200282015b82811115613d3c578251825591602001919060010190613d21565b5b509050613d4a9190613d4e565b5090565b5b80821115613d67576000816000905550600101613d4f565b5090565b6000604051905090565b600080fd5b600080fd5b6000819050919050565b613d9281613d7f565b8114613d9d57600080fd5b50565b600081359050613daf81613d89565b92915050565b600060208284031215613dcb57613dca613d75565b5b6000613dd984828501613da0565b91505092915050565b60007fffffffff0000000000000000000000000000000000000000000000000000000082169050919050565b613e1781613de2565b8114613e2257600080fd5b50565b600081359050613e3481613e0e565b92915050565b600060208284031215613e5057613e4f613d75565b5b6000613e5e84828501613e25565b91505092915050565b60008115159050919050565b613e7c81613e67565b82525050565b6000602082019050613e976000830184613e73565b92915050565b600073ffffffffffffffffffffffffffffffffffffffff82169050919050565b6000613ec882613e9d565b9050919050565b613ed881613ebd565b82525050565b6000602082019050613ef36000830184613ecf565b92915050565b613f0281613e67565b8114613f0d57600080fd5b50565b600081359050613f1f81613ef9565b92915050565b60008060408385031215613f3c57613f3b613d75565b5b6000613f4a85828601613da0565b9250506020613f5b85828601613f10565b9150509250929050565b613f6e81613ebd565b8114613f7957600080fd5b50565b600081359050613f8b81613f65565b92915050565b600060208284031215613fa757613fa6613d75565b5b6000613fb584828501613f7c565b91505092915050565b600081519050919050565b600082825260208201905092915050565b60005b83811015613ff8578082015181840152602081019050613fdd565b83811115614007576000848401525b50505050565b6000601f19601f8301169050919050565b600061402982613fbe565b6140338185613fc9565b9350614043818560208601613fda565b61404c8161400d565b840191505092915050565b61406081613d7f565b82525050565b61406f81613ebd565b82525050565b61407e81613e67565b82525050565b60006101008301600083015184820360008601526140a2828261401e565b915050602083015184820360208601526140bc828261401e565b91505060408301516140d16040860182614057565b5060608301516140e46060860182614057565b5060808301516140f76080860182614066565b5060a083015184820360a086015261410f828261401e565b91505060c083015161412460c0860182614057565b5060e083015161413760e0860182614075565b508091505092915050565b600060a08301600083015161415a6000860182614057565b50602083015161416d6020860182614057565b5060408301516141806040860182614057565b5060608301518482036060860152614198828261401e565b915050608083015184820360808601526141b2828261401e565b9150508091505092915050565b6141c881613d7f565b82525050565b60006101208201905081810360008301526141e9818c614084565b905081810360208301526141fd818b614142565b90508181036040830152614211818a614142565b90506142206060830189613ecf565b61422d60808301886141bf565b61423a60a08301876141bf565b61424760c08301866141bf565b61425460e0830185613e73565b614262610100830184613e73565b9a9950505050505050505050565b600080fd5b7f4e487b7100000000000000000000000000000000000000000000000000000000600052604160045260246000fd5b6142ad8261400d565b810181811067ffffffffffffffff821117156142cc576142cb614275565b5b80604052505050565b60006142df613d6b565b90506142eb82826142a4565b919050565b600080fd5b600080fd5b600080fd5b600067ffffffffffffffff82111561431a57614319614275565b5b6143238261400d565b9050602081019050919050565b82818337600083830152505050565b600061435261434d846142ff565b6142d5565b90508281526020810184848401111561436e5761436d6142fa565b5b614379848285614330565b509392505050565b600082601f830112614396576143956142f5565b5b81356143a684826020860161433f565b91505092915050565b600067ffffffffffffffff8211156143ca576143c9614275565b5b602082029050602081019050919050565b600080fd5b60006143f36143ee846143af565b6142d5565b90508083825260208201905060208402830185811115614416576144156143db565b5b835b8181101561443f578061442b8882613da0565b845260208401935050602081019050614418565b5050509392505050565b600082601f83011261445e5761445d6142f5565b5b813561446e8482602086016143e0565b91505092915050565b600060a0828403121561448d5761448c614270565b5b61449760a06142d5565b905060006144a784828501613da0565b60008301525060206144bb84828501613da0565b60208301525060406144cf84828501613da0565b604083015250606082013567ffffffffffffffff8111156144f3576144f26142f0565b5b6144ff84828501614381565b606083015250608082013567ffffffffffffffff811115614523576145226142f0565b5b61452f84828501614381565b60808301525092915050565b600060e0828403121561455157614550614270565b5b61455b60e06142d5565b9050600082013567ffffffffffffffff81111561457b5761457a6142f0565b5b61458784828501614381565b600083015250602082013567ffffffffffffffff8111156145ab576145aa6142f0565b5b6145b784828501614381565b602083015250604082013567ffffffffffffffff8111156145db576145da6142f0565b5b6145e784828501614381565b60408301525060606145fb84828501613da0565b606083015250608082013567ffffffffffffffff81111561461f5761461e6142f0565b5b61462b84828501614449565b60808301525060a082013567ffffffffffffffff81111561464f5761464e6142f0565b5b61465b84828501614477565b60a08301525060c082013567ffffffffffffffff81111561467f5761467e6142f0565b5b61468b84828501614477565b60c08301525092915050565b6000602082840312156146ad576146ac613d75565b5b600082013567ffffffffffffffff8111156146cb576146ca613d7a565b5b6146d78482850161453b565b91505092915050565b60006020820190506146f560008301846141bf565b92915050565b6000806040838503121561471257614711613d75565b5b600061472085828601613da0565b925050602061473185828601613f7c565b9150509250929050565b6000806000806080858703121561475557614754613d75565b5b600061476387828801613f7c565b945050602061477487828801613da0565b935050604061478587828801613da0565b925050606061479687828801613da0565b91505092959194509250565b600080fd5b60008083601f8401126147bd576147bc6142f5565b5b8235905067ffffffffffffffff8111156147da576147d96147a2565b5b6020830191508360208202830111156147f6576147f56143db565b5b9250929050565b60008083601f840112614813576148126142f5565b5b8235905067ffffffffffffffff8111156148305761482f6147a2565b5b60208301915083600182028301111561484c5761484b6143db565b5b9250929050565b60008060008060008060008060a0898b03121561487357614872613d75565b5b60006148818b828c01613f7c565b98505060206148928b828c01613f7c565b975050604089013567ffffffffffffffff8111156148b3576148b2613d7a565b5b6148bf8b828c016147a7565b9650965050606089013567ffffffffffffffff8111156148e2576148e1613d7a565b5b6148ee8b828c016147a7565b9450945050608089013567ffffffffffffffff81111561491157614910613d7a565b5b61491d8b828c016147fd565b92509250509295985092959890939650565b61493881613de2565b82525050565b6000602082019050614953600083018461492f565b92915050565b60008060006060848603121561497257614971613d75565b5b600061498086828701613f7c565b935050602061499186828701613f7c565b92505060406149a286828701613f7c565b9150509250925092565b60008060008060008060a087890312156149c9576149c8613d75565b5b60006149d789828a01613f7c565b96505060206149e889828a01613f7c565b95505060406149f989828a01613da0565b9450506060614a0a89828a01613da0565b935050608087013567ffffffffffffffff811115614a2b57614a2a613d7a565b5b614a3789828a016147fd565b92509250509295509295509295565b7f4e487b7100000000000000000000000000000000000000000000000000000000600052602260045260246000fd5b60006002820490506001821680614a8d57607f821691505b60208210811415614aa157614aa0614a46565b5b50919050565b6000608082019050614abc60008301876141bf565b614ac960208301866141bf565b614ad660408301856141bf565b614ae36060830184613e73565b95945050505050565b600081519050919050565b600082825260208201905092915050565b6000819050602082019050919050565b6000614b248383614057565b60208301905092915050565b6000602082019050919050565b6000614b4882614aec565b614b528185614af7565b9350614b5d83614b08565b8060005b83811015614b8e578151614b758882614b18565b9750614b8083614b30565b925050600181019050614b61565b5085935050505092915050565b60006040820190508181036000830152614bb58185614084565b90508181036020830152614bc98184614b3d565b90509392505050565b600081519050614be181613d89565b92915050565b600060208284031215614bfd57614bfc613d75565b5b6000614c0b84828501614bd2565b91505092915050565b600082825260208201905092915050565b7f494e56414c49443a20494e56414c49445f56455253494f4e5f5245515f494400600082015250565b6000614c5b601f83614c14565b9150614c6682614c25565b602082019050919050565b60006020820190508181036000830152614c8a81614c4e565b9050919050565b6000608082019050614ca66000830187613ecf565b614cb360208301866141bf565b614cc060408301856141bf565b614ccd6060830184613e73565b95945050505050565b7f554e415554484f52495a45443a2043414e4e4f545f504552464f524d5f41435460008201527f494f4e0000000000000000000000000000000000000000000000000000000000602082015250565b6000614d32602383614c14565b9150614d3d82614cd6565b604082019050919050565b60006020820190508181036000830152614d6181614d25565b9050919050565b6000614d7b614d76846142ff565b6142d5565b905082815260208101848484011115614d9757614d966142fa565b5b614da2848285613fda565b509392505050565b600082601f830112614dbf57614dbe6142f5565b5b8151614dcf848260208601614d68565b91505092915050565b600081519050614de781613f65565b92915050565b600081519050614dfc81613ef9565b92915050565b600080600080600080600080610100898b031215614e2357614e22613d75565b5b600089015167ffffffffffffffff811115614e4157614e40613d7a565b5b614e4d8b828c01614daa565b985050602089015167ffffffffffffffff811115614e6e57614e6d613d7a565b5b614e7a8b828c01614daa565b9750506040614e8b8b828c01614bd2565b9650506060614e9c8b828c01614bd2565b9550506080614ead8b828c01614dd8565b94505060a089015167ffffffffffffffff811115614ece57614ecd613d7a565b5b614eda8b828c01614daa565b93505060c0614eeb8b828c01614bd2565b92505060e0614efc8b828c01614ded565b9150509295985092959890939650565b7f494e56414c49443a205245434f52445f4e4f545f464f554e4400000000000000600082015250565b6000614f42601983614c14565b9150614f4d82614f0c565b602082019050919050565b60006020820190508181036000830152614f7181614f35565b9050919050565b7f4e487b7100000000000000000000000000000000000000000000000000000000600052601160045260246000fd5b6000614fb282613d7f565b91507fffffffffffffffffffffffffffffffffffffffffffffffffffffffffffffffff821415614fe557614fe4614f78565b5b600182019050919050565b6000614ffb82613fbe565b6150058185614c14565b9350615015818560208601613fda565b61501e8161400d565b840191505092915050565b600060408201905081810360008301526150438185614ff0565b905081810360208301526150578184614ff0565b90509392505050565b600060c08201905061507560008301896141bf565b81810360208301526150878188614ff0565b9050818103604083015261509b8187614ff0565b905081810360608301526150af8186614ff0565b90506150be6080830185613ecf565b6150cb60a08301846141bf565b979650505050505050565b600061010082840312156150ed576150ec614270565b5b6150f86101006142d5565b9050600082015167ffffffffffffffff811115615118576151176142f0565b5b61512484828501614daa565b600083015250602082015167ffffffffffffffff811115615148576151476142f0565b5b61515484828501614daa565b602083015250604061516884828501614bd2565b604083015250606061517c84828501614bd2565b606083015250608061519084828501614dd8565b60808301525060a082015167ffffffffffffffff8111156151b4576151b36142f0565b5b6151c084828501614daa565b60a08301525060c06151d484828501614bd2565b60c08301525060e06151e884828501614ded565b60e08301525092915050565b60006020828403121561520a57615209613d75565b5b600082015167ffffffffffffffff81111561522857615227613d7a565b5b615234848285016150d6565b91505092915050565b600061012082019050615253600083018c6141bf565b8181036020830152615265818b614084565b90508181036040830152615279818a614142565b9050818103606083015261528d8189614142565b905081810360808301526152a18188614b3d565b90506152b060a0830187613ecf565b6152bd60c08301866141bf565b6152ca60e08301856141bf565b6152d86101008301846141bf565b9a9950505050505050505050565b60006060820190506152fb6000830186613ecf565b61530860208301856141bf565b61531560408301846141bf565b949350505050565b7f4e487b7100000000000000000000000000000000000000000000000000000000600052603260045260246000fd5b600061535782613d7f565b915061536283613d7f565b92508282101561537557615374614f78565b5b828203905092915050565b7f4e487b7100000000000000000000000000000000000000000000000000000000600052603160045260246000fd5b60006153ba82613d7f565b915060008214156153ce576153cd614f78565b5b600182039050919050565b7f496e697469616c697a61626c653a20636f6e747261637420697320616c72656160008201527f647920696e697469616c697a6564000000000000000000000000000000000000602082015250565b6000615435602e83614c14565b9150615440826153d9565b604082019050919050565b6000602082019050818103600083015261546481615428565b9050919050565b6000819050919050565b600060ff82169050919050565b6000819050919050565b60006154a76154a261549d8461546b565b615482565b615475565b9050919050565b6154b78161548c565b82525050565b60006020820190506154d260008301846154ae565b92915050565b7f496e697469616c697a61626c653a20636f6e7472616374206973206e6f74206960008201527f6e697469616c697a696e67000000000000000000000000000000000000000000602082015250565b6000615534602b83614c14565b915061553f826154d8565b604082019050919050565b6000602082019050818103600083015261556381615527565b9050919050565b7f494e56414c49443a2042414c4c4f545f5354494c4c5f4f50454e000000000000600082015250565b60006155a0601a83614c14565b91506155ab8261556a565b602082019050919050565b600060208201905081810360008301526155cf81615593565b9050919050565b7f494e56414c49443a2043414e5f4f4e4c595f434c41494d5f4f4e434500000000600082015250565b600061560c601c83614c14565b9150615617826155d6565b602082019050919050565b6000602082019050818103600083015261563b816155ff565b9050919050565b7f494e56414c49443a2056455253494f4e5f52454a454354454400000000000000600082015250565b6000615678601983614c14565b915061568382615642565b602082019050919050565b600060208201905081810360008301526156a78161566b565b9050919050565b60006080820190506156c360008301876141bf565b6156d060208301866141bf565b6156dd60408301856141bf565b6156ea6060830184613ecf565b95945050505050565b7f494e56414c49443a2042414c4c4f545f4e4f545f464f554e4400000000000000600082015250565b6000615729601983614c14565b9150615734826156f3565b602082019050919050565b600060208201905081810360008301526157588161571c565b9050919050565b7f494e56414c49443a20564f54494e475f54494d455f4f56455200000000000000600082015250565b6000615795601983614c14565b91506157a08261575f565b602082019050919050565b600060208201905081810360008301526157c481615788565b9050919050565b7f494e56414c49443a20524553554c545f414c52454144595f4445434c41524544600082015250565b6000615801602083614c14565b915061580c826157cb565b602082019050919050565b60006020820190508181036000830152615830816157f4565b9050919050565b600061584282613d7f565b915061584d83613d7f565b9250817fffffffffffffffffffffffffffffffffffffffffffffffffffffffffffffffff048311821515161561588657615885614f78565b5b828202905092915050565b7f4e487b7100000000000000000000000000000000000000000000000000000000600052601260045260246000fd5b60006158cb82613d7f565b91506158d683613d7f565b9250826158e6576158e5615891565b5b828204905092915050565b7f494e53554646494349454e545f414d4f554e543a20544f4b454e5f534841524560008201527f5f5045525f555345525f49535f4c4f5700000000000000000000000000000000602082015250565b600061594d603083614c14565b9150615958826158f1565b604082019050919050565b6000602082019050818103600083015261597c81615940565b9050919050565b600060e082019050615998600083018a6141bf565b6159a560208301896141bf565b6159b260408301886141bf565b6159bf60608301876141bf565b6159cc60808301866141bf565b6159d960a08301856141bf565b6159e660c08301846141bf565b98975050505050505050565b7f494e56414c49443a20414c52454144595f564f54454400000000000000000000600082015250565b6000615a28601683614c14565b9150615a33826159f2565b602082019050919050565b60006020820190508181036000830152615a5781615a1b565b9050919050565b7f554e415554484f52495a45443a204f574e45525f43414e4e4f545f564f544500600082015250565b6000615a94601f83614c14565b9150615a9f82615a5e565b602082019050919050565b60006020820190508181036000830152615ac381615a87565b9050919050565b6000615ad582613d7f565b9150615ae083613d7f565b9250827fffffffffffffffffffffffffffffffffffffffffffffffffffffffffffffffff03821115615b1557615b14614f78565b5b828201905092915050565b7f494e56414c49443a20494e5445524e414c3a20555345525f4841535f4e4f545f60008201527f564f544544000000000000000000000000000000000000000000000000000000602082015250565b6000615b7c602583614c14565b9150615b8782615b20565b604082019050919050565b60006020820190508181036000830152615bab81615b6f565b9050919050565b600082825260208201905092915050565b7f494e56414c49443a20524f59414c54595f414c52454144595f434c41494d4544600082015250565b6000615bf9602083615bb2565b9150615c0482615bc3565b602082019050919050565b600060a082019050615c246000830187613ecf565b615c316020830186613ecf565b615c3e60408301856141bf565b615c4b60608301846141bf565b8181036080830152615c5c81615bec565b905095945050505050565b600060e082019050615c7c600083018a6141bf565b615c8960208301896141bf565b615c9660408301886141bf565b8181036060830152615ca88187614ff0565b90508181036080830152615cbc8186614ff0565b9050615ccb60a08301856141bf565b615cd860c0830184613ecf565b98975050505050505050565b6000604082019050615cf96000830185613ecf565b615d0660208301846141bf565b939250505056fea2646970667358221220b9372922d00d3858a4d8a5f5015e054869115944808ae746d4b1c5662fe9b32b64736f6c634300080c0033",
  "immutableReferences": {},
  "source": "pragma solidity ^0.8.0;\n\nimport \"@openzeppelin/contracts/token/ERC1155/extensions/ERC1155Supply.sol\";\nimport \"@openzeppelin/contracts/utils/Counters.sol\";\nimport \"@openzeppelin/contracts/access/Ownable.sol\";\nimport \"@openzeppelin/contracts/token/ERC1155/IERC1155Receiver.sol\";\nimport \"./interface/IContribution.sol\";\nimport \"./Voting/BaseVotingContract.sol\";\nimport \"./interface/ITreasury.sol\";\nimport \"./interface/ITreasuryCore.sol\";\nimport \"./RecordsContract.sol\";\n\ncontract RecordsVotingContract is BaseVotingContract, IERC1155Receiver {\n    uint256 newVersionRequestId = 0;\n\n    // This mapping holds the data of new record version requests\n    mapping(uint256 => NewVersionRequest) public newVersionRequestMap;\n\n    // This mapping holds the the status of the claiming of the reward\n    // versionId => user address => status\n    mapping(uint256 => mapping(address => bool)) public rewardsClaimed;\n\n    // Address of the treasury core contracts\n    address public TREASURY_CORE_CONTRACT_ADDRESS;\n\n    // Address of the records contract\n    address public RECORDS_CONTRACT_ADDRESS;\n\n    /// @dev This is the token data for new version of record\n    /// @param totalSupply This is the total amount of tokens that will be created\n    /// @param oldContributorShare This is the amount of token that will be distributed among the previous record owners\n    /// @param userBalance Amount of tokens that user will keep to himself\n    /// @param symbol Symbol for the token\n    /// @param image Image for the token\n    struct NewVersionTokenStruct {\n        uint256 totalSupply;\n        uint256 oldContributorShare;\n        uint256 userBalance;\n        string symbol;\n        string image;\n    }\n\n    /// @dev This struct holds the data for new record version request\n    /// @param recordData Data for the new record\n    /// @param governanceToken New token data for governance token\n    /// @param communityToken New token data for community token\n    /// @param requester Owner of the request\n    /// @param oldVersionId Record id of old version\n    /// @param tokenId id of the token which will be used for voting\n    /// @param ballotId Id of the voting ballot\n    /// @param isPresent This is to check if the request with id is present or not\n    /// @param isAccepted The is the status of record that is accepted or not\n    struct NewVersionRequest {\n        RecordsContract.RecordStruct recordData;\n        NewVersionTokenStruct governanceToken;\n        NewVersionTokenStruct communityToken;\n        uint256[] contributionIds;\n        address requester;\n        uint256 oldVersionId;\n        uint256 tokenId;\n        uint256 ballotId;\n        bool isPresent;\n        bool isAccepted;\n    }\n\n    /// @dev This event is generated when New Record Version is created\n    /// @param requestId This is the id of the new record version request\n    /// @param recordData Data for the new record\n    /// @param governanceToken New token data for governance token\n    /// @param communityToken New token data for community token\n    /// @param requester Owner of the request\n    /// @param oldVersionId Record id of old version\n    /// @param tokenId id of the token which will be used for voting\n    /// @param ballotId Id of the voting ballot\n    event VersionRequest(\n        uint256 requestId,\n        RecordsContract.RecordStruct recordData,\n        NewVersionTokenStruct governanceToken,\n        NewVersionTokenStruct communityToken,\n        uint256[] contributionIds,\n        address requester,\n        uint256 oldVersionId,\n        uint256 tokenId,\n        uint256 ballotId\n    );\n\n    /// @dev This is when a vote is given by user.\n    /// @param voter Address of the voter\n    /// @param versionRequestId This is the id of the recordVersionRequest structure that is linked to this ballot\n    /// @param ballotId Id of the ballot where voting is stored\n    /// @param vote State of vote : true for yes and false for No\n    event NewVersionVoting(\n        address voter,\n        uint256 versionRequestId,\n        uint256 ballotId,\n        bool vote\n    );\n\n    /// @dev This is emitted when a voting ballot is created\n    /// @param requester Address of the requester\n    /// @param versionRequestId This is the id of the recordVersionRequest structure that is linked to this ballot\n    /// @param ballotId Id of the ballot where voting is stored\n    event NewVersionVotingBallotCreated(\n        address requester,\n        uint256 versionRequestId,\n        uint256 ballotId\n    );\n\n    /// @dev this event is generated when result of a ballot is declared\n    /// @param versionReqId This is the id of newVersionRequest\n    /// @param tokenId This is the id of the token that is linked to this ballot\n    /// @param ballotId this is the ballot Id for which result is declared\n    /// @param result this is the status of the result\n    event NewVersionRequestResult(\n        uint256 versionReqId,\n        uint256 tokenId,\n        uint256 ballotId,\n        bool result\n    );\n\n    //------------------------------\n\n    ///@param tokenId it is the id of the token on which basis we distribute the reward\n    ///@param rewardTokenId it is the id of the new tokenId\n    struct NewVersionTokenDistributionStruct {\n        uint256 totalSupplyEther;\n        uint256 rewardAmountWei;\n        uint256 versionRequestId;\n        uint256 tokenId;\n        uint256 rewardTokenId;\n        uint256 rewardPerTokenWei;\n        uint256 snapshotId;\n    }\n\n    event NewVersionTokenDistribution(\n        uint256 versionRequestId,\n        uint256 totalSupplyEther,\n        uint256 rewardAmountWei,\n        uint256 tokenId,\n        uint256 rewardTokenId,\n        uint256 rewardPerTokenWei,\n        uint256 snapshotId\n    );\n\n    event NewTokenClaimed(\n        uint256 versionRequestId,\n        uint256 rewardTokenId,\n        uint256 rewardAmount,\n        address userAddress\n    );\n\n    // newVersionRequestId => tokenData\n    mapping(uint256 => NewVersionTokenDistributionStruct) newVersionGovTokenDistributionMapping;\n\n    mapping(uint256 => NewVersionTokenDistributionStruct) newVersionCommTokenDistributionMapping;\n\n    //------------------------------\n\n    constructor(address owner) BaseVotingContract(owner) {}\n\n    // /// @dev This function sets the Records Contract address\n    // /// @param recordsContractAddress New records contract address\n    // function setRecordsContractAddress(address recordsContractAddress)\n    //     public\n    //     _ownerOnly\n    // {\n    //     RECORDS_CONTRACT_ADDRESS = recordsContractAddress;\n    // }\n\n    // /// @dev This function sets the Treasury Contract address\n    // /// @param treasuryContractAddress Takes the address of new treasury contract as parameter\n    // function setTreasuryContractAddress(address treasuryContractAddress)\n    //     public\n    //     _ownerOnly\n    // {\n    //     _setTreasuryContractAddress(treasuryContractAddress);\n    // }\n\n    // /// @dev This function sets the Treasury Contract address\n    // /// @param treasuryCoreContractAddress Takes the address of new treasury core contract as parameter\n    // function setTreasuryCoreContractAddress(address treasuryCoreContractAddress)\n    //     public\n    //     _ownerOnly\n    // {\n    //     TREASURY_CORE_CONTRACT_ADDRESS = treasuryCoreContractAddress;\n    // }\n\n    /// @dev This is to set the address of the contracts\n    /// @param recordsContractAddress New records contract address\n    /// @param treasuryContractAddress Takes the address of new treasury contract as parameter\n    /// @param treasuryCoreContractAddress Takes the address of new treasury core contract as parameter\n    function initialize(\n        address recordsContractAddress,\n        address treasuryContractAddress,\n        address treasuryCoreContractAddress\n    ) public initializer _ownerOnly {\n        BaseVotingContract.initialize(treasuryContractAddress);\n        RECORDS_CONTRACT_ADDRESS = recordsContractAddress;\n        TREASURY_CORE_CONTRACT_ADDRESS = treasuryCoreContractAddress;\n    }\n\n    /// @dev This struct holds the required data for new version creation\n    /// @param name Name of the new record\n    /// @param image Cover photo of record\n    /// @param recordCategory string category of record\n    /// @param oldRecordId old record id\n    /// @param contributionIds list of contribution that are part of the new version\n    /// @param governanceToken this contains governance token details for new version of record\n    /// @param communityToken this contains community token details for new version of record\n    struct NewRecordVersionParams {\n        string name;\n        string image;\n        string recordCategory;\n        uint256 oldRecordId;\n        uint256[] contributionIds;\n        NewVersionTokenStruct governanceToken;\n        NewVersionTokenStruct communityToken;\n    }\n\n    /// @dev This function will create new record version from existing record\n    /// @param params required data for creation of new record version\n    function createNewRecordVersion(NewRecordVersionParams memory params)\n        public\n        returns (uint256)\n    {\n        RecordsContract recordsContract = RecordsContract(\n            RECORDS_CONTRACT_ADDRESS\n        );\n\n        {\n            (, , , , , , , bool isPresent) = recordsContract.recordData(\n                params.oldRecordId\n            );\n\n            require(isPresent == true, \"INVALID: RECORD_NOT_FOUND\");\n        }\n        newVersionRequestId++;\n        uint256 versionReqId = newVersionRequestId;\n\n        ITreasury treasury = ITreasury(TREASURY_CONTRACT_ADDRESS);\n        uint256 votingTokenId = treasury.getCommunityTokenId(\n            params.oldRecordId\n        );\n        uint256 ballotId = _createVoting(false, votingTokenId);\n\n        treasury.setSymbolsAsUsed(\n            params.governanceToken.symbol,\n            params.communityToken.symbol\n        );\n\n        RecordsContract.RecordStruct memory recordStruct = recordsContract\n            .createNewRecordVersion(\n                params.oldRecordId,\n                params.name,\n                params.image,\n                params.recordCategory,\n                msg.sender,\n                ballotId\n            );\n\n        NewVersionRequest memory newVersionRequest = NewVersionRequest({\n            recordData: recordStruct,\n            governanceToken: params.governanceToken,\n            communityToken: params.communityToken,\n            contributionIds: params.contributionIds,\n            requester: msg.sender,\n            oldVersionId: params.oldRecordId,\n            tokenId: votingTokenId,\n            ballotId: ballotId,\n            isPresent: true,\n            isAccepted: false\n        });\n\n        {\n            emit VersionRequest({\n                requestId: versionReqId,\n                recordData: recordStruct,\n                governanceToken: params.governanceToken,\n                communityToken: params.communityToken,\n                contributionIds: params.contributionIds,\n                requester: msg.sender,\n                oldVersionId: params.oldRecordId,\n                tokenId: votingTokenId,\n                ballotId: ballotId\n            });\n\n            emit NewVersionVotingBallotCreated(\n                msg.sender,\n                versionReqId,\n                ballotId\n            );\n        }\n\n        newVersionRequestMap[versionReqId] = newVersionRequest;\n\n        return versionReqId;\n    }\n\n    /// @dev This function is called by any user to cast vote\n    /// @param versionReqId this is the id of the new version request for which user is voting\n    /// @param vote this is the state of the vote, if true than it means the vote is in favour of the ballot\n    function castVote(uint256 versionReqId, bool vote) public {\n        // RecordsContract recordsContract = RecordsContract(\n        //     RECORDS_CONTRACT_ADDRESS\n        // );\n        require(\n            newVersionRequestMap[versionReqId].isPresent == true,\n            \"INVALID: INVALID_VERSION_REQ_ID\"\n        );\n\n        emit NewVersionVoting({\n            versionRequestId: versionReqId,\n            ballotId: newVersionRequestMap[versionReqId].ballotId,\n            voter: msg.sender,\n            vote: vote\n        });\n\n        super._castVote(versionReqId, vote);\n    }\n\n    /// @dev This function can be called from external source and also from within the contract\n    /// @param versionReqId this is the id of the new version request to which the winner is to be declared\n    function declareWinner(uint256 versionReqId) external {\n        RecordsContract recordsContract = RecordsContract(\n            RECORDS_CONTRACT_ADDRESS\n        );\n        // RecordsContract.NewVersionRequest memory req = recordsContract\n        //     .newVersionRequestMap(versionReqId);\n        NewVersionRequest memory req = newVersionRequestMap[versionReqId];\n\n        bool result = _declareWinner(req.ballotId);\n\n        emit NewVersionRequestResult({\n            versionReqId: versionReqId,\n            tokenId: req.tokenId,\n            ballotId: req.ballotId,\n            result: result\n        });\n\n        if (result) {\n            ITreasury treasuryContract = ITreasury(TREASURY_CONTRACT_ADDRESS);\n\n            uint256 recordId = recordsContract.createRecordFromData(\n                req.recordData,\n                req.contributionIds\n            );\n\n            // create new version and set the rewards for all the user\n            createToken(\n                req.governanceToken,\n                recordId,\n                treasuryContract.getCommunityTokenId(req.oldVersionId),\n                versionReqId,\n                true,\n                req.requester\n            );\n            createToken(\n                req.communityToken,\n                recordId,\n                treasuryContract.getCommunityTokenId(req.oldVersionId),\n                versionReqId,\n                false,\n                req.requester\n            );\n        }\n        newVersionRequestMap[versionReqId].isAccepted = result;\n    }\n\n    /// @dev This function is for distributing of the tokens of new record version\n    /// @param versionReqId This is the version Request Id for which token needs to be claimed\n    function claimNewRecordTokens(uint256 versionReqId) public {\n        NewVersionRequest memory newVersionReq = newVersionRequestMap[\n            versionReqId\n        ];\n\n        require(\n            votingMap[newVersionReq.ballotId].isResultDeclared,\n            \"INVALID: BALLOT_STILL_OPEN\"\n        );\n\n        require(\n            rewardsClaimed[versionReqId][msg.sender] == false,\n            \"INVALID: CAN_ONLY_CLAIM_ONCE\"\n        );\n\n        require(newVersionReq.isAccepted == true, \"INVALID: VERSION_REJECTED\");\n\n        NewVersionTokenDistributionStruct\n            memory governanceToken = newVersionGovTokenDistributionMapping[\n                versionReqId\n            ];\n        NewVersionTokenDistributionStruct\n            memory communityToken = newVersionCommTokenDistributionMapping[\n                versionReqId\n            ];\n\n        uint256 govRewardAmount = calculateRewardTokens(governanceToken);\n        uint256 commRewardAmount = calculateRewardTokens(communityToken);\n\n        emit NewTokenClaimed({\n            versionRequestId: versionReqId,\n            rewardTokenId: governanceToken.rewardTokenId,\n            rewardAmount: govRewardAmount,\n            userAddress: msg.sender\n        });\n        emit NewTokenClaimed({\n            versionRequestId: versionReqId,\n            rewardTokenId: communityToken.rewardTokenId,\n            rewardAmount: commRewardAmount,\n            userAddress: msg.sender\n        });\n\n        alreadyVoted[newVersionReq.ballotId][msg.sender] = true;\n    }\n\n    /// @dev This function calculates the amount of token that a user will receive\n    /// @param tokenData This is the data of the token which is to be distributed\n    function calculateRewardTokens(\n        NewVersionTokenDistributionStruct memory tokenData\n    ) internal returns (uint256) {\n        ITreasuryCore treasuryCoreContract = ITreasuryCore(\n            TREASURY_CORE_CONTRACT_ADDRESS\n        );\n\n        uint256 tokenBal = treasuryCoreContract.balanceOfAt(\n            msg.sender,\n            tokenData.snapshotId,\n            tokenData.tokenId\n        );\n\n        if (tokenBal == 0) {\n            return 0;\n        }\n\n        uint256 rewardAmt = (tokenData.rewardPerTokenWei * tokenBal) / 1 ether;\n\n        if (rewardAmt > 0) {\n            treasuryCoreContract.safeTransferFrom(\n                address(this),\n                msg.sender,\n                tokenData.rewardTokenId,\n                rewardAmt,\n                \"INVALID: ROYALTY_ALREADY_CLAIMED\"\n            );\n        }\n\n        return rewardAmt;\n    }\n\n    function createToken(\n        NewVersionTokenStruct memory tokenData,\n        uint256 newRecordId,\n        uint256 decidingTokenId,\n        uint256 versionReqId,\n        bool isGovernanceToken,\n        address requester\n    ) internal {\n        ITreasury treasuryContract = ITreasury(TREASURY_CONTRACT_ADDRESS);\n\n        uint256 tokenId = decidingTokenId;\n        uint256 totalSupply = treasuryContract.totalCirculatingSupply(tokenId);\n\n        uint256 newTokenId;\n        if (isGovernanceToken) {\n            newTokenId = createGovernanceToken(\n                tokenData,\n                newRecordId,\n                requester\n            );\n        } else {\n            newTokenId = createCommunityToken(\n                tokenData,\n                newRecordId,\n                requester\n            );\n        }\n\n        NewVersionTokenDistributionStruct\n            memory newVersionToken = NewVersionTokenDistributionStruct({\n                totalSupplyEther: totalSupply / 1 ether,\n                rewardAmountWei: tokenData.oldContributorShare,\n                versionRequestId: versionReqId,\n                tokenId: tokenId,\n                rewardTokenId: newTokenId,\n                rewardPerTokenWei: tokenData.oldContributorShare /\n                    (totalSupply / 1 ether),\n                snapshotId: treasuryContract.snapshot()\n            });\n\n        require(\n            newVersionToken.rewardPerTokenWei > 0,\n            \"INSUFFICIENT_AMOUNT: TOKEN_SHARE_PER_USER_IS_LOW\"\n        );\n\n        emit NewVersionTokenDistribution({\n            versionRequestId: versionReqId,\n            totalSupplyEther: newVersionToken.totalSupplyEther,\n            rewardAmountWei: newVersionToken.rewardAmountWei,\n            tokenId: newVersionToken.tokenId,\n            rewardTokenId: newTokenId,\n            rewardPerTokenWei: newVersionToken.rewardPerTokenWei,\n            snapshotId: newVersionToken.snapshotId\n        });\n\n        if (isGovernanceToken) {\n            newVersionGovTokenDistributionMapping[\n                versionReqId\n            ] = newVersionToken;\n        } else {\n            newVersionCommTokenDistributionMapping[\n                versionReqId\n            ] = newVersionToken;\n        }\n    }\n\n    function createGovernanceToken(\n        NewVersionTokenStruct memory tokenData,\n        uint256 recordId,\n        address owner\n    ) internal returns (uint256) {\n        ITreasury treasuryContract = ITreasury(TREASURY_CONTRACT_ADDRESS);\n\n        return\n            treasuryContract.createNewGovernanceTokenNewRecordVersion(\n                recordId,\n                tokenData.totalSupply,\n                tokenData.userBalance,\n                tokenData.symbol,\n                tokenData.image,\n                tokenData.oldContributorShare,\n                owner\n            );\n    }\n\n    function createCommunityToken(\n        NewVersionTokenStruct memory tokenData,\n        uint256 recordId,\n        address owner\n    ) internal returns (uint256) {\n        ITreasury treasuryContract = ITreasury(TREASURY_CONTRACT_ADDRESS);\n\n        return\n            treasuryContract.createNewCommunityTokenNewRecordVersion(\n                recordId,\n                tokenData.totalSupply,\n                tokenData.userBalance,\n                tokenData.symbol,\n                tokenData.image,\n                tokenData.oldContributorShare,\n                owner\n            );\n    }\n\n    function onERC1155Received(\n        address operator,\n        address from,\n        uint256 id,\n        uint256 value,\n        bytes calldata data\n    ) external virtual override returns (bytes4) {\n        return\n            bytes4(\n                keccak256(\n                    \"onERC1155Received(address,address,uint256,uint256,bytes)\"\n                )\n            );\n    }\n\n    function onERC1155BatchReceived(\n        address operator,\n        address from,\n        uint256[] calldata ids,\n        uint256[] calldata values,\n        bytes calldata data\n    ) external virtual override returns (bytes4) {\n        return\n            bytes4(\n                keccak256(\n                    \"onERC1155BatchReceived(address,address,uint256[],uint256[],bytes)\"\n                )\n            );\n    }\n\n    function supportsInterface(bytes4 interfaceId)\n        public\n        view\n        virtual\n        override\n        returns (bool)\n    {}\n}\n",
  "sourcePath": "/Users/a1/Desktop/Office/projects/CrowdRecords/Contracts/contracts/RecordsVotingContract.sol",
  "compiler": {
    "name": "solc",
    "version": "0.8.12+commit.f00d7308.Emscripten.clang"
  },
  "schemaVersion": "3.4.6",
  "updatedAt": "2022-10-13T11:10:29.548Z",
  "devdoc": {
    "events": {
      "NewVersionRequestResult(uint256,uint256,uint256,bool)": {
        "details": "this event is generated when result of a ballot is declared",
        "params": {
          "ballotId": "this is the ballot Id for which result is declared",
          "result": "this is the status of the result",
          "tokenId": "This is the id of the token that is linked to this ballot",
          "versionReqId": "This is the id of newVersionRequest"
        }
      },
      "NewVersionVoting(address,uint256,uint256,bool)": {
        "details": "This is when a vote is given by user.",
        "params": {
          "ballotId": "Id of the ballot where voting is stored",
          "versionRequestId": "This is the id of the recordVersionRequest structure that is linked to this ballot",
          "vote": "State of vote : true for yes and false for No",
          "voter": "Address of the voter"
        }
      },
      "NewVersionVotingBallotCreated(address,uint256,uint256)": {
        "details": "This is emitted when a voting ballot is created",
        "params": {
          "ballotId": "Id of the ballot where voting is stored",
          "requester": "Address of the requester",
          "versionRequestId": "This is the id of the recordVersionRequest structure that is linked to this ballot"
        }
      },
      "VersionRequest(uint256,(string,string,uint256,uint256,address,string,uint256,bool),(uint256,uint256,uint256,string,string),(uint256,uint256,uint256,string,string),uint256[],address,uint256,uint256,uint256)": {
        "details": "This event is generated when New Record Version is created",
        "params": {
          "ballotId": "Id of the voting ballot",
          "communityToken": "New token data for community token",
          "governanceToken": "New token data for governance token",
          "oldVersionId": "Record id of old version",
          "recordData": "Data for the new record",
          "requestId": "This is the id of the new record version request",
          "requester": "Owner of the request",
          "tokenId": "id of the token which will be used for voting"
        }
      }
    },
    "kind": "dev",
    "methods": {
      "_handleUserTokenTransfers(address,uint256,uint256,uint256)": {
        "details": "This function will be called when either user is transferring the tokens to other account, or is receiving tokens from other tokens.",
        "params": {
          "newBalance": "this is the new balance of the user that is after the transfer",
          "previousBalance": "this is the old balance of the user",
          "user": "address of the user whose balance is being changed"
        }
      },
      "castVote(uint256,bool)": {
        "details": "This function is called by any user to cast vote",
        "params": {
          "versionReqId": "this is the id of the new version request for which user is voting",
          "vote": "this is the state of the vote, if true than it means the vote is in favour of the ballot"
        }
      },
      "claimNewRecordTokens(uint256)": {
        "details": "This function is for distributing of the tokens of new record version",
        "params": {
          "versionReqId": "This is the version Request Id for which token needs to be claimed"
        }
      },
      "createNewRecordVersion((string,string,string,uint256,uint256[],(uint256,uint256,uint256,string,string),(uint256,uint256,uint256,string,string)))": {
        "details": "This function will create new record version from existing record",
        "params": {
          "params": "required data for creation of new record version"
        }
      },
      "declareWinner(uint256)": {
        "details": "This function can be called from external source and also from within the contract",
        "params": {
          "versionReqId": "this is the id of the new version request to which the winner is to be declared"
        }
      },
      "initialize(address)": {
        "details": "This function sets the treasury Contract address",
        "params": {
          "newTreasuryContractAddress": "This is the new address of treasury contract"
        }
      },
      "initialize(address,address,address)": {
        "details": "This is to set the address of the contracts",
        "params": {
          "recordsContractAddress": "New records contract address",
          "treasuryContractAddress": "Takes the address of new treasury contract as parameter",
          "treasuryCoreContractAddress": "Takes the address of new treasury core contract as parameter"
        }
      },
      "onERC1155BatchReceived(address,address,uint256[],uint256[],bytes)": {
        "details": "Handles the receipt of a multiple ERC1155 token types. This function is called at the end of a `safeBatchTransferFrom` after the balances have been updated. NOTE: To accept the transfer(s), this must return `bytes4(keccak256(\"onERC1155BatchReceived(address,address,uint256[],uint256[],bytes)\"))` (i.e. 0xbc197c81, or its own function selector).",
        "params": {
          "data": "Additional data with no specified format",
          "from": "The address which previously owned the token",
          "ids": "An array containing ids of each token being transferred (order and length must match values array)",
          "operator": "The address which initiated the batch transfer (i.e. msg.sender)",
          "values": "An array containing amounts of each token being transferred (order and length must match ids array)"
        },
        "returns": {
          "_0": "`bytes4(keccak256(\"onERC1155BatchReceived(address,address,uint256[],uint256[],bytes)\"))` if transfer is allowed"
        }
      },
      "onERC1155Received(address,address,uint256,uint256,bytes)": {
        "details": "Handles the receipt of a single ERC1155 token type. This function is called at the end of a `safeTransferFrom` after the balance has been updated. NOTE: To accept the transfer, this must return `bytes4(keccak256(\"onERC1155Received(address,address,uint256,uint256,bytes)\"))` (i.e. 0xf23a6e61, or its own function selector).",
        "params": {
          "data": "Additional data with no specified format",
          "from": "The address which previously owned the token",
          "id": "The ID of the token being transferred",
          "operator": "The address which initiated the transfer (i.e. msg.sender)",
          "value": "The amount of tokens being transferred"
        },
        "returns": {
          "_0": "`bytes4(keccak256(\"onERC1155Received(address,address,uint256,uint256,bytes)\"))` if transfer is allowed"
        }
      },
      "setOwnerAddress(address)": {
        "details": "This function sets the owner address",
        "params": {
          "ownerAddress": "This is the address of the owner"
        }
      },
      "supportsInterface(bytes4)": {
        "details": "Returns true if this contract implements the interface defined by `interfaceId`. See the corresponding https://eips.ethereum.org/EIPS/eip-165#how-interfaces-are-identified[EIP section] to learn more about how these ids are created. This function call must use less than 30 000 gas."
      }
    },
    "version": 1
  },
  "userdoc": {
    "kind": "user",
    "methods": {},
    "version": 1
  }
}