{
  "contractName": "RecordsContract",
  "abi": [
    {
      "inputs": [
        {
          "internalType": "address",
          "name": "owner",
          "type": "address"
        }
      ],
      "stateMutability": "nonpayable",
      "type": "constructor"
    },
    {
      "anonymous": false,
      "inputs": [
        {
          "indexed": true,
          "internalType": "address",
          "name": "account",
          "type": "address"
        },
        {
          "indexed": true,
          "internalType": "address",
          "name": "operator",
          "type": "address"
        },
        {
          "indexed": false,
          "internalType": "bool",
          "name": "approved",
          "type": "bool"
        }
      ],
      "name": "ApprovalForAll",
      "type": "event"
    },
    {
      "anonymous": false,
      "inputs": [
        {
          "indexed": false,
          "internalType": "uint256",
          "name": "recordId",
          "type": "uint256"
        },
        {
          "indexed": false,
          "internalType": "string",
          "name": "name",
          "type": "string"
        },
        {
          "indexed": false,
          "internalType": "string",
          "name": "image",
          "type": "string"
        },
        {
          "indexed": false,
          "internalType": "uint256",
          "name": "seedId",
          "type": "uint256"
        },
        {
          "indexed": false,
          "internalType": "uint256",
          "name": "parentId",
          "type": "uint256"
        },
        {
          "indexed": false,
          "internalType": "string",
          "name": "recordCategory",
          "type": "string"
        },
        {
          "indexed": false,
          "internalType": "uint256",
          "name": "creationDate",
          "type": "uint256"
        }
      ],
      "name": "RecordCreated",
      "type": "event"
    },
    {
      "anonymous": false,
      "inputs": [
        {
          "indexed": true,
          "internalType": "address",
          "name": "operator",
          "type": "address"
        },
        {
          "indexed": true,
          "internalType": "address",
          "name": "from",
          "type": "address"
        },
        {
          "indexed": true,
          "internalType": "address",
          "name": "to",
          "type": "address"
        },
        {
          "indexed": false,
          "internalType": "uint256[]",
          "name": "ids",
          "type": "uint256[]"
        },
        {
          "indexed": false,
          "internalType": "uint256[]",
          "name": "values",
          "type": "uint256[]"
        }
      ],
      "name": "TransferBatch",
      "type": "event"
    },
    {
      "anonymous": false,
      "inputs": [
        {
          "indexed": true,
          "internalType": "address",
          "name": "operator",
          "type": "address"
        },
        {
          "indexed": true,
          "internalType": "address",
          "name": "from",
          "type": "address"
        },
        {
          "indexed": true,
          "internalType": "address",
          "name": "to",
          "type": "address"
        },
        {
          "indexed": false,
          "internalType": "uint256",
          "name": "id",
          "type": "uint256"
        },
        {
          "indexed": false,
          "internalType": "uint256",
          "name": "value",
          "type": "uint256"
        }
      ],
      "name": "TransferSingle",
      "type": "event"
    },
    {
      "anonymous": false,
      "inputs": [
        {
          "indexed": false,
          "internalType": "string",
          "name": "value",
          "type": "string"
        },
        {
          "indexed": true,
          "internalType": "uint256",
          "name": "id",
          "type": "uint256"
        }
      ],
      "name": "URI",
      "type": "event"
    },
    {
      "inputs": [],
      "name": "CONTRIBUTION_CONTRACT_ADDRESS",
      "outputs": [
        {
          "internalType": "address",
          "name": "",
          "type": "address"
        }
      ],
      "stateMutability": "view",
      "type": "function",
      "constant": true
    },
    {
      "inputs": [
        {
          "internalType": "address",
          "name": "account",
          "type": "address"
        },
        {
          "internalType": "uint256",
          "name": "id",
          "type": "uint256"
        }
      ],
      "name": "balanceOf",
      "outputs": [
        {
          "internalType": "uint256",
          "name": "",
          "type": "uint256"
        }
      ],
      "stateMutability": "view",
      "type": "function",
      "constant": true
    },
    {
      "inputs": [
        {
          "internalType": "address[]",
          "name": "accounts",
          "type": "address[]"
        },
        {
          "internalType": "uint256[]",
          "name": "ids",
          "type": "uint256[]"
        }
      ],
      "name": "balanceOfBatch",
      "outputs": [
        {
          "internalType": "uint256[]",
          "name": "",
          "type": "uint256[]"
        }
      ],
      "stateMutability": "view",
      "type": "function",
      "constant": true
    },
    {
      "inputs": [
        {
          "internalType": "uint256",
          "name": "id",
          "type": "uint256"
        }
      ],
      "name": "exists",
      "outputs": [
        {
          "internalType": "bool",
          "name": "",
          "type": "bool"
        }
      ],
      "stateMutability": "view",
      "type": "function",
      "constant": true
    },
    {
      "inputs": [
        {
          "internalType": "address",
          "name": "account",
          "type": "address"
        },
        {
          "internalType": "address",
          "name": "operator",
          "type": "address"
        }
      ],
      "name": "isApprovedForAll",
      "outputs": [
        {
          "internalType": "bool",
          "name": "",
          "type": "bool"
        }
      ],
      "stateMutability": "view",
      "type": "function",
      "constant": true
    },
    {
      "inputs": [
        {
          "internalType": "uint256",
          "name": "",
          "type": "uint256"
        }
      ],
      "name": "recordData",
      "outputs": [
        {
          "internalType": "string",
          "name": "name",
          "type": "string"
        },
        {
          "internalType": "string",
          "name": "image",
          "type": "string"
        },
        {
          "internalType": "uint256",
          "name": "seedId",
          "type": "uint256"
        },
        {
          "internalType": "uint256",
          "name": "parentId",
          "type": "uint256"
        },
        {
          "internalType": "string",
          "name": "recordCategory",
          "type": "string"
        },
        {
          "internalType": "uint256",
          "name": "creationDate",
          "type": "uint256"
        }
      ],
      "stateMutability": "view",
      "type": "function",
      "constant": true
    },
    {
      "inputs": [
        {
          "internalType": "address",
          "name": "from",
          "type": "address"
        },
        {
          "internalType": "address",
          "name": "to",
          "type": "address"
        },
        {
          "internalType": "uint256[]",
          "name": "ids",
          "type": "uint256[]"
        },
        {
          "internalType": "uint256[]",
          "name": "amounts",
          "type": "uint256[]"
        },
        {
          "internalType": "bytes",
          "name": "data",
          "type": "bytes"
        }
      ],
      "name": "safeBatchTransferFrom",
      "outputs": [],
      "stateMutability": "nonpayable",
      "type": "function"
    },
    {
      "inputs": [
        {
          "internalType": "address",
          "name": "from",
          "type": "address"
        },
        {
          "internalType": "address",
          "name": "to",
          "type": "address"
        },
        {
          "internalType": "uint256",
          "name": "id",
          "type": "uint256"
        },
        {
          "internalType": "uint256",
          "name": "amount",
          "type": "uint256"
        },
        {
          "internalType": "bytes",
          "name": "data",
          "type": "bytes"
        }
      ],
      "name": "safeTransferFrom",
      "outputs": [],
      "stateMutability": "nonpayable",
      "type": "function"
    },
    {
      "inputs": [
        {
          "internalType": "uint256",
          "name": "",
          "type": "uint256"
        }
      ],
      "name": "seedIdUsed",
      "outputs": [
        {
          "internalType": "bool",
          "name": "",
          "type": "bool"
        }
      ],
      "stateMutability": "view",
      "type": "function",
      "constant": true
    },
    {
      "inputs": [
        {
          "internalType": "address",
          "name": "operator",
          "type": "address"
        },
        {
          "internalType": "bool",
          "name": "approved",
          "type": "bool"
        }
      ],
      "name": "setApprovalForAll",
      "outputs": [],
      "stateMutability": "nonpayable",
      "type": "function"
    },
    {
      "inputs": [
        {
          "internalType": "bytes4",
          "name": "interfaceId",
          "type": "bytes4"
        }
      ],
      "name": "supportsInterface",
      "outputs": [
        {
          "internalType": "bool",
          "name": "",
          "type": "bool"
        }
      ],
      "stateMutability": "view",
      "type": "function",
      "constant": true
    },
    {
      "inputs": [
        {
          "internalType": "uint256",
          "name": "id",
          "type": "uint256"
        }
      ],
      "name": "totalSupply",
      "outputs": [
        {
          "internalType": "uint256",
          "name": "",
          "type": "uint256"
        }
      ],
      "stateMutability": "view",
      "type": "function",
      "constant": true
    },
    {
      "inputs": [
        {
          "internalType": "uint256",
          "name": "",
          "type": "uint256"
        }
      ],
      "name": "uri",
      "outputs": [
        {
          "internalType": "string",
          "name": "",
          "type": "string"
        }
      ],
      "stateMutability": "view",
      "type": "function",
      "constant": true
    },
    {
      "inputs": [
        {
          "internalType": "address",
          "name": "ownerAddress",
          "type": "address"
        }
      ],
      "name": "setOwnerAddress",
      "outputs": [],
      "stateMutability": "nonpayable",
      "type": "function"
    },
    {
      "inputs": [
        {
          "internalType": "address",
          "name": "contributionContractAddress",
          "type": "address"
        }
      ],
      "name": "setContributionContractAddress",
      "outputs": [],
      "stateMutability": "nonpayable",
      "type": "function"
    },
    {
      "inputs": [
        {
          "internalType": "string",
          "name": "name",
          "type": "string"
        },
        {
          "internalType": "string",
          "name": "image",
          "type": "string"
        },
        {
          "internalType": "string",
          "name": "recordCategory",
          "type": "string"
        },
        {
          "internalType": "uint256",
          "name": "seedId",
          "type": "uint256"
        }
      ],
      "name": "createNewRecord",
      "outputs": [
        {
          "internalType": "uint256",
          "name": "recordId",
          "type": "uint256"
        }
      ],
      "stateMutability": "nonpayable",
      "type": "function"
    }
  ],
  "bytecode": "0x608060405260006004553480156200001657600080fd5b5060405162003d5338038062003d5383398181016040528101906200003c919062000202565b6040518060400160405280601a81526020017f68747470733a2f2f736f6d657468696e672e636f6d2f7b69647d0000000000008152506200008381620000cc60201b60201c565b5080600760006101000a81548173ffffffffffffffffffffffffffffffffffffffff021916908373ffffffffffffffffffffffffffffffffffffffff1602179055505062000299565b8060029080519060200190620000e4929190620000e8565b5050565b828054620000f69062000263565b90600052602060002090601f0160209004810192826200011a576000855562000166565b82601f106200013557805160ff191683800117855562000166565b8280016001018555821562000166579182015b828111156200016557825182559160200191906001019062000148565b5b50905062000175919062000179565b5090565b5b80821115620001945760008160009055506001016200017a565b5090565b600080fd5b600073ffffffffffffffffffffffffffffffffffffffff82169050919050565b6000620001ca826200019d565b9050919050565b620001dc81620001bd565b8114620001e857600080fd5b50565b600081519050620001fc81620001d1565b92915050565b6000602082840312156200021b576200021a62000198565b5b60006200022b84828501620001eb565b91505092915050565b7f4e487b7100000000000000000000000000000000000000000000000000000000600052602260045260246000fd5b600060028204905060018216806200027c57607f821691505b6020821081141562000293576200029262000234565b5b50919050565b613aaa80620002a96000396000f3fe608060405234801561001057600080fd5b50600436106100ff5760003560e01c80634f558e7911610097578063bd85b03911610066578063bd85b039146102e2578063cd58b8d614610312578063e985e9c514610347578063f242432a14610377576100ff565b80634f558e7914610236578063a22cb46514610266578063acf6beb614610282578063bb6c5fb3146102b2576100ff565b806329c50b59116100d357806329c50b59146101b25780632eb2c2d6146101ce578063331a6bf5146101ea5780634e1273f414610206576100ff565b8062fdd58e1461010457806301ffc9a71461013457806307c505b7146101645780630e89341c14610182575b600080fd5b61011e60048036038101906101199190611fe9565b610393565b60405161012b9190612038565b60405180910390f35b61014e600480360381019061014991906120ab565b61045c565b60405161015b91906120f3565b60405180910390f35b61016c61053e565b604051610179919061211d565b60405180910390f35b61019c60048036038101906101979190612138565b610564565b6040516101a991906121fe565b60405180910390f35b6101cc60048036038101906101c79190612220565b6105f8565b005b6101e860048036038101906101e3919061244a565b6106cc565b005b61020460048036038101906101ff9190612220565b61076d565b005b610220600480360381019061021b91906125dc565b610841565b60405161022d9190612712565b60405180910390f35b610250600480360381019061024b9190612138565b61095a565b60405161025d91906120f3565b60405180910390f35b610280600480360381019061027b9190612760565b61096e565b005b61029c60048036038101906102979190612138565b610984565b6040516102a991906120f3565b60405180910390f35b6102cc60048036038101906102c79190612841565b6109a4565b6040516102d99190612038565b60405180910390f35b6102fc60048036038101906102f79190612138565b610c9e565b6040516103099190612038565b60405180910390f35b61032c60048036038101906103279190612138565b610cbb565b60405161033e969594939291906128fc565b60405180910390f35b610361600480360381019061035c9190612972565b610e8f565b60405161036e91906120f3565b60405180910390f35b610391600480360381019061038c91906129b2565b610f23565b005b60008073ffffffffffffffffffffffffffffffffffffffff168373ffffffffffffffffffffffffffffffffffffffff161415610404576040517f08c379a00000000000000000000000000000000000000000000000000000000081526004016103fb90612abb565b60405180910390fd5b60008083815260200190815260200160002060008473ffffffffffffffffffffffffffffffffffffffff1673ffffffffffffffffffffffffffffffffffffffff16815260200190815260200160002054905092915050565b60007fd9b67a26000000000000000000000000000000000000000000000000000000007bffffffffffffffffffffffffffffffffffffffffffffffffffffffff1916827bffffffffffffffffffffffffffffffffffffffffffffffffffffffff1916148061052757507f0e89341c000000000000000000000000000000000000000000000000000000007bffffffffffffffffffffffffffffffffffffffffffffffffffffffff1916827bffffffffffffffffffffffffffffffffffffffffffffffffffffffff1916145b80610537575061053682610fc4565b5b9050919050565b600860009054906101000a900473ffffffffffffffffffffffffffffffffffffffff1681565b60606002805461057390612b0a565b80601f016020809104026020016040519081016040528092919081815260200182805461059f90612b0a565b80156105ec5780601f106105c1576101008083540402835291602001916105ec565b820191906000526020600020905b8154815290600101906020018083116105cf57829003601f168201915b50505050509050919050565b600760009054906101000a900473ffffffffffffffffffffffffffffffffffffffff1673ffffffffffffffffffffffffffffffffffffffff163373ffffffffffffffffffffffffffffffffffffffff1614610688576040517f08c379a000000000000000000000000000000000000000000000000000000000815260040161067f90612bae565b60405180910390fd5b80600860006101000a81548173ffffffffffffffffffffffffffffffffffffffff021916908373ffffffffffffffffffffffffffffffffffffffff16021790555050565b6106d461102e565b73ffffffffffffffffffffffffffffffffffffffff168573ffffffffffffffffffffffffffffffffffffffff16148061071a57506107198561071461102e565b610e8f565b5b610759576040517f08c379a000000000000000000000000000000000000000000000000000000000815260040161075090612c40565b60405180910390fd5b6107668585858585611036565b5050505050565b600760009054906101000a900473ffffffffffffffffffffffffffffffffffffffff1673ffffffffffffffffffffffffffffffffffffffff163373ffffffffffffffffffffffffffffffffffffffff16146107fd576040517f08c379a00000000000000000000000000000000000000000000000000000000081526004016107f490612bae565b60405180910390fd5b80600760006101000a81548173ffffffffffffffffffffffffffffffffffffffff021916908373ffffffffffffffffffffffffffffffffffffffff16021790555050565b60608151835114610887576040517f08c379a000000000000000000000000000000000000000000000000000000000815260040161087e90612cd2565b60405180910390fd5b6000835167ffffffffffffffff8111156108a4576108a3612252565b5b6040519080825280602002602001820160405280156108d25781602001602082028036833780820191505090505b50905060005b845181101561094f5761091f8582815181106108f7576108f6612cf2565b5b602002602001015185838151811061091257610911612cf2565b5b6020026020010151610393565b82828151811061093257610931612cf2565b5b6020026020010181815250508061094890612d50565b90506108d8565b508091505092915050565b60008061096683610c9e565b119050919050565b61098061097961102e565b838361134a565b5050565b60066020528060005260406000206000915054906101000a900460ff1681565b6000600460008154809291906109b990612d50565b9190505550600060045490506109e133826001604051806020016040528060008152506114b7565b600015156006600085815260200190815260200160002060009054906101000a900460ff16151514610a48576040517f08c379a0000000000000000000000000000000000000000000000000000000008152600401610a3f90612de5565b60405180910390fd5b6000600860009054906101000a900473ffffffffffffffffffffffffffffffffffffffff16905060008173ffffffffffffffffffffffffffffffffffffffff166323374b9d866040518263ffffffff1660e01b8152600401610aaa9190612038565b600060405180830381865afa158015610ac7573d6000803e3d6000fd5b505050506040513d6000823e3d601f19601f82011682018060405250810190610af091906130a6565b905060011515816101200151151514610b3e576040517f08c379a0000000000000000000000000000000000000000000000000000000008152600401610b3590613161565b60405180910390fd5b600115158160a00151151514610b89576040517f08c379a0000000000000000000000000000000000000000000000000000000008152600401610b80906131f3565b60405180910390fd5b60006040518060c001604052808a81526020018981526020018781526020016000815260200188815260200142815250905080600560008681526020019081526020016000206000820151816000019080519060200190610beb929190611e9e565b506020820151816001019080519060200190610c08929190611e9e565b5060408201518160020155606082015181600301556080820151816004019080519060200190610c39929190611e9e565b5060a082015181600501559050507f54759de35da3706adafb7ba0eea0b307160fc4576df0cddc11dd4b2ce1154558848a8a8960008c8760a00151604051610c879796959493929190613258565b60405180910390a183945050505050949350505050565b600060036000838152602001908152602001600020549050919050565b6005602052806000526040600020600091509050806000018054610cde90612b0a565b80601f0160208091040260200160405190810160405280929190818152602001828054610d0a90612b0a565b8015610d575780601f10610d2c57610100808354040283529160200191610d57565b820191906000526020600020905b815481529060010190602001808311610d3a57829003601f168201915b505050505090806001018054610d6c90612b0a565b80601f0160208091040260200160405190810160405280929190818152602001828054610d9890612b0a565b8015610de55780601f10610dba57610100808354040283529160200191610de5565b820191906000526020600020905b815481529060010190602001808311610dc857829003601f168201915b505050505090806002015490806003015490806004018054610e0690612b0a565b80601f0160208091040260200160405190810160405280929190818152602001828054610e3290612b0a565b8015610e7f5780601f10610e5457610100808354040283529160200191610e7f565b820191906000526020600020905b815481529060010190602001808311610e6257829003601f168201915b5050505050908060050154905086565b6000600160008473ffffffffffffffffffffffffffffffffffffffff1673ffffffffffffffffffffffffffffffffffffffff16815260200190815260200160002060008373ffffffffffffffffffffffffffffffffffffffff1673ffffffffffffffffffffffffffffffffffffffff16815260200190815260200160002060009054906101000a900460ff16905092915050565b610f2b61102e565b73ffffffffffffffffffffffffffffffffffffffff168573ffffffffffffffffffffffffffffffffffffffff161480610f715750610f7085610f6b61102e565b610e8f565b5b610fb0576040517f08c379a0000000000000000000000000000000000000000000000000000000008152600401610fa79061334e565b60405180910390fd5b610fbd858585858561164d565b5050505050565b60007f01ffc9a7000000000000000000000000000000000000000000000000000000007bffffffffffffffffffffffffffffffffffffffffffffffffffffffff1916827bffffffffffffffffffffffffffffffffffffffffffffffffffffffff1916149050919050565b600033905090565b815183511461107a576040517f08c379a0000000000000000000000000000000000000000000000000000000008152600401611071906133e0565b60405180910390fd5b600073ffffffffffffffffffffffffffffffffffffffff168473ffffffffffffffffffffffffffffffffffffffff1614156110ea576040517f08c379a00000000000000000000000000000000000000000000000000000000081526004016110e190613472565b60405180910390fd5b60006110f461102e565b90506111048187878787876118cf565b60005b84518110156112b557600085828151811061112557611124612cf2565b5b60200260200101519050600085838151811061114457611143612cf2565b5b60200260200101519050600080600084815260200190815260200160002060008b73ffffffffffffffffffffffffffffffffffffffff1673ffffffffffffffffffffffffffffffffffffffff168152602001908152602001600020549050818110156111e5576040517f08c379a00000000000000000000000000000000000000000000000000000000081526004016111dc90613504565b60405180910390fd5b81810360008085815260200190815260200160002060008c73ffffffffffffffffffffffffffffffffffffffff1673ffffffffffffffffffffffffffffffffffffffff168152602001908152602001600020819055508160008085815260200190815260200160002060008b73ffffffffffffffffffffffffffffffffffffffff1673ffffffffffffffffffffffffffffffffffffffff168152602001908152602001600020600082825461129a9190613524565b92505081905550505050806112ae90612d50565b9050611107565b508473ffffffffffffffffffffffffffffffffffffffff168673ffffffffffffffffffffffffffffffffffffffff168273ffffffffffffffffffffffffffffffffffffffff167f4a39dc06d4c0dbc64b70af90fd698a233a518aa5d07e595d983b8c0526c8f7fb878760405161132c92919061357a565b60405180910390a4611342818787878787611a49565b505050505050565b8173ffffffffffffffffffffffffffffffffffffffff168373ffffffffffffffffffffffffffffffffffffffff1614156113b9576040517f08c379a00000000000000000000000000000000000000000000000000000000081526004016113b090613623565b60405180910390fd5b80600160008573ffffffffffffffffffffffffffffffffffffffff1673ffffffffffffffffffffffffffffffffffffffff16815260200190815260200160002060008473ffffffffffffffffffffffffffffffffffffffff1673ffffffffffffffffffffffffffffffffffffffff16815260200190815260200160002060006101000a81548160ff0219169083151502179055508173ffffffffffffffffffffffffffffffffffffffff168373ffffffffffffffffffffffffffffffffffffffff167f17307eab39ab6107e8899845ad3d59bd9653f200f220920489ca2b5937696c31836040516114aa91906120f3565b60405180910390a3505050565b600073ffffffffffffffffffffffffffffffffffffffff168473ffffffffffffffffffffffffffffffffffffffff161415611527576040517f08c379a000000000000000000000000000000000000000000000000000000000815260040161151e906136b5565b60405180910390fd5b600061153161102e565b90506115528160008761154388611c21565b61154c88611c21565b876118cf565b8260008086815260200190815260200160002060008773ffffffffffffffffffffffffffffffffffffffff1673ffffffffffffffffffffffffffffffffffffffff16815260200190815260200160002060008282546115b19190613524565b925050819055508473ffffffffffffffffffffffffffffffffffffffff16600073ffffffffffffffffffffffffffffffffffffffff168273ffffffffffffffffffffffffffffffffffffffff167fc3d58168c5ae7397731d063d5bbf3d657854427343f4c083240f7aacaa2d0f62878760405161162f9291906136d5565b60405180910390a461164681600087878787611c9b565b5050505050565b600073ffffffffffffffffffffffffffffffffffffffff168473ffffffffffffffffffffffffffffffffffffffff1614156116bd576040517f08c379a00000000000000000000000000000000000000000000000000000000081526004016116b490613472565b60405180910390fd5b60006116c761102e565b90506116e78187876116d888611c21565b6116e188611c21565b876118cf565b600080600086815260200190815260200160002060008873ffffffffffffffffffffffffffffffffffffffff1673ffffffffffffffffffffffffffffffffffffffff1681526020019081526020016000205490508381101561177e576040517f08c379a000000000000000000000000000000000000000000000000000000000815260040161177590613504565b60405180910390fd5b83810360008087815260200190815260200160002060008973ffffffffffffffffffffffffffffffffffffffff1673ffffffffffffffffffffffffffffffffffffffff168152602001908152602001600020819055508360008087815260200190815260200160002060008873ffffffffffffffffffffffffffffffffffffffff1673ffffffffffffffffffffffffffffffffffffffff16815260200190815260200160002060008282546118339190613524565b925050819055508573ffffffffffffffffffffffffffffffffffffffff168773ffffffffffffffffffffffffffffffffffffffff168373ffffffffffffffffffffffffffffffffffffffff167fc3d58168c5ae7397731d063d5bbf3d657854427343f4c083240f7aacaa2d0f6288886040516118b09291906136d5565b60405180910390a46118c6828888888888611c9b565b50505050505050565b6118dd868686868686611e73565b600073ffffffffffffffffffffffffffffffffffffffff168573ffffffffffffffffffffffffffffffffffffffff16141561198f5760005b835181101561198d5782818151811061193157611930612cf2565b5b6020026020010151600360008684815181106119505761194f612cf2565b5b6020026020010151815260200190815260200160002060008282546119759190613524565b925050819055508061198690612d50565b9050611915565b505b600073ffffffffffffffffffffffffffffffffffffffff168473ffffffffffffffffffffffffffffffffffffffff161415611a415760005b8351811015611a3f578281815181106119e3576119e2612cf2565b5b602002602001015160036000868481518110611a0257611a01612cf2565b5b602002602001015181526020019081526020016000206000828254611a2791906136fe565b9250508190555080611a3890612d50565b90506119c7565b505b505050505050565b611a688473ffffffffffffffffffffffffffffffffffffffff16611e7b565b15611c19578373ffffffffffffffffffffffffffffffffffffffff1663bc197c8187878686866040518663ffffffff1660e01b8152600401611aae959493929190613787565b6020604051808303816000875af1925050508015611aea57506040513d601f19601f82011682018060405250810190611ae79190613804565b60015b611b9057611af661383e565b806308c379a01415611b535750611b0b613860565b80611b165750611b55565b806040517f08c379a0000000000000000000000000000000000000000000000000000000008152600401611b4a91906121fe565b60405180910390fd5b505b6040517f08c379a0000000000000000000000000000000000000000000000000000000008152600401611b8790613968565b60405180910390fd5b63bc197c8160e01b7bffffffffffffffffffffffffffffffffffffffffffffffffffffffff1916817bffffffffffffffffffffffffffffffffffffffffffffffffffffffff191614611c17576040517f08c379a0000000000000000000000000000000000000000000000000000000008152600401611c0e906139fa565b60405180910390fd5b505b505050505050565b60606000600167ffffffffffffffff811115611c4057611c3f612252565b5b604051908082528060200260200182016040528015611c6e5781602001602082028036833780820191505090505b5090508281600081518110611c8657611c85612cf2565b5b60200260200101818152505080915050919050565b611cba8473ffffffffffffffffffffffffffffffffffffffff16611e7b565b15611e6b578373ffffffffffffffffffffffffffffffffffffffff1663f23a6e6187878686866040518663ffffffff1660e01b8152600401611d00959493929190613a1a565b6020604051808303816000875af1925050508015611d3c57506040513d601f19601f82011682018060405250810190611d399190613804565b60015b611de257611d4861383e565b806308c379a01415611da55750611d5d613860565b80611d685750611da7565b806040517f08c379a0000000000000000000000000000000000000000000000000000000008152600401611d9c91906121fe565b60405180910390fd5b505b6040517f08c379a0000000000000000000000000000000000000000000000000000000008152600401611dd990613968565b60405180910390fd5b63f23a6e6160e01b7bffffffffffffffffffffffffffffffffffffffffffffffffffffffff1916817bffffffffffffffffffffffffffffffffffffffffffffffffffffffff191614611e69576040517f08c379a0000000000000000000000000000000000000000000000000000000008152600401611e60906139fa565b60405180910390fd5b505b505050505050565b505050505050565b6000808273ffffffffffffffffffffffffffffffffffffffff163b119050919050565b828054611eaa90612b0a565b90600052602060002090601f016020900481019282611ecc5760008555611f13565b82601f10611ee557805160ff1916838001178555611f13565b82800160010185558215611f13579182015b82811115611f12578251825591602001919060010190611ef7565b5b509050611f209190611f24565b5090565b5b80821115611f3d576000816000905550600101611f25565b5090565b6000604051905090565b600080fd5b600080fd5b600073ffffffffffffffffffffffffffffffffffffffff82169050919050565b6000611f8082611f55565b9050919050565b611f9081611f75565b8114611f9b57600080fd5b50565b600081359050611fad81611f87565b92915050565b6000819050919050565b611fc681611fb3565b8114611fd157600080fd5b50565b600081359050611fe381611fbd565b92915050565b6000806040838503121561200057611fff611f4b565b5b600061200e85828601611f9e565b925050602061201f85828601611fd4565b9150509250929050565b61203281611fb3565b82525050565b600060208201905061204d6000830184612029565b92915050565b60007fffffffff0000000000000000000000000000000000000000000000000000000082169050919050565b61208881612053565b811461209357600080fd5b50565b6000813590506120a58161207f565b92915050565b6000602082840312156120c1576120c0611f4b565b5b60006120cf84828501612096565b91505092915050565b60008115159050919050565b6120ed816120d8565b82525050565b600060208201905061210860008301846120e4565b92915050565b61211781611f75565b82525050565b6000602082019050612132600083018461210e565b92915050565b60006020828403121561214e5761214d611f4b565b5b600061215c84828501611fd4565b91505092915050565b600081519050919050565b600082825260208201905092915050565b60005b8381101561219f578082015181840152602081019050612184565b838111156121ae576000848401525b50505050565b6000601f19601f8301169050919050565b60006121d082612165565b6121da8185612170565b93506121ea818560208601612181565b6121f3816121b4565b840191505092915050565b6000602082019050818103600083015261221881846121c5565b905092915050565b60006020828403121561223657612235611f4b565b5b600061224484828501611f9e565b91505092915050565b600080fd5b7f4e487b7100000000000000000000000000000000000000000000000000000000600052604160045260246000fd5b61228a826121b4565b810181811067ffffffffffffffff821117156122a9576122a8612252565b5b80604052505050565b60006122bc611f41565b90506122c88282612281565b919050565b600067ffffffffffffffff8211156122e8576122e7612252565b5b602082029050602081019050919050565b600080fd5b600061231161230c846122cd565b6122b2565b90508083825260208201905060208402830185811115612334576123336122f9565b5b835b8181101561235d57806123498882611fd4565b845260208401935050602081019050612336565b5050509392505050565b600082601f83011261237c5761237b61224d565b5b813561238c8482602086016122fe565b91505092915050565b600080fd5b600067ffffffffffffffff8211156123b5576123b4612252565b5b6123be826121b4565b9050602081019050919050565b82818337600083830152505050565b60006123ed6123e88461239a565b6122b2565b90508281526020810184848401111561240957612408612395565b5b6124148482856123cb565b509392505050565b600082601f8301126124315761243061224d565b5b81356124418482602086016123da565b91505092915050565b600080600080600060a0868803121561246657612465611f4b565b5b600061247488828901611f9e565b955050602061248588828901611f9e565b945050604086013567ffffffffffffffff8111156124a6576124a5611f50565b5b6124b288828901612367565b935050606086013567ffffffffffffffff8111156124d3576124d2611f50565b5b6124df88828901612367565b925050608086013567ffffffffffffffff811115612500576124ff611f50565b5b61250c8882890161241c565b9150509295509295909350565b600067ffffffffffffffff82111561253457612533612252565b5b602082029050602081019050919050565b600061255861255384612519565b6122b2565b9050808382526020820190506020840283018581111561257b5761257a6122f9565b5b835b818110156125a457806125908882611f9e565b84526020840193505060208101905061257d565b5050509392505050565b600082601f8301126125c3576125c261224d565b5b81356125d3848260208601612545565b91505092915050565b600080604083850312156125f3576125f2611f4b565b5b600083013567ffffffffffffffff81111561261157612610611f50565b5b61261d858286016125ae565b925050602083013567ffffffffffffffff81111561263e5761263d611f50565b5b61264a85828601612367565b9150509250929050565b600081519050919050565b600082825260208201905092915050565b6000819050602082019050919050565b61268981611fb3565b82525050565b600061269b8383612680565b60208301905092915050565b6000602082019050919050565b60006126bf82612654565b6126c9818561265f565b93506126d483612670565b8060005b838110156127055781516126ec888261268f565b97506126f7836126a7565b9250506001810190506126d8565b5085935050505092915050565b6000602082019050818103600083015261272c81846126b4565b905092915050565b61273d816120d8565b811461274857600080fd5b50565b60008135905061275a81612734565b92915050565b6000806040838503121561277757612776611f4b565b5b600061278585828601611f9e565b92505060206127968582860161274b565b9150509250929050565b600067ffffffffffffffff8211156127bb576127ba612252565b5b6127c4826121b4565b9050602081019050919050565b60006127e46127df846127a0565b6122b2565b905082815260208101848484011115612800576127ff612395565b5b61280b8482856123cb565b509392505050565b600082601f8301126128285761282761224d565b5b81356128388482602086016127d1565b91505092915050565b6000806000806080858703121561285b5761285a611f4b565b5b600085013567ffffffffffffffff81111561287957612878611f50565b5b61288587828801612813565b945050602085013567ffffffffffffffff8111156128a6576128a5611f50565b5b6128b287828801612813565b935050604085013567ffffffffffffffff8111156128d3576128d2611f50565b5b6128df87828801612813565b92505060606128f087828801611fd4565b91505092959194509250565b600060c082019050818103600083015261291681896121c5565b9050818103602083015261292a81886121c5565b90506129396040830187612029565b6129466060830186612029565b818103608083015261295881856121c5565b905061296760a0830184612029565b979650505050505050565b6000806040838503121561298957612988611f4b565b5b600061299785828601611f9e565b92505060206129a885828601611f9e565b9150509250929050565b600080600080600060a086880312156129ce576129cd611f4b565b5b60006129dc88828901611f9e565b95505060206129ed88828901611f9e565b94505060406129fe88828901611fd4565b9350506060612a0f88828901611fd4565b925050608086013567ffffffffffffffff811115612a3057612a2f611f50565b5b612a3c8882890161241c565b9150509295509295909350565b7f455243313135353a2062616c616e636520717565727920666f7220746865207a60008201527f65726f2061646472657373000000000000000000000000000000000000000000602082015250565b6000612aa5602b83612170565b9150612ab082612a49565b604082019050919050565b60006020820190508181036000830152612ad481612a98565b9050919050565b7f4e487b7100000000000000000000000000000000000000000000000000000000600052602260045260246000fd5b60006002820490506001821680612b2257607f821691505b60208210811415612b3657612b35612adb565b5b50919050565b7f596f7520617265206e6f7420617574686f72697a656420666f7220746869732060008201527f616374696f6e0000000000000000000000000000000000000000000000000000602082015250565b6000612b98602683612170565b9150612ba382612b3c565b604082019050919050565b60006020820190508181036000830152612bc781612b8b565b9050919050565b7f455243313135353a207472616e736665722063616c6c6572206973206e6f742060008201527f6f776e6572206e6f7220617070726f7665640000000000000000000000000000602082015250565b6000612c2a603283612170565b9150612c3582612bce565b604082019050919050565b60006020820190508181036000830152612c5981612c1d565b9050919050565b7f455243313135353a206163636f756e747320616e6420696473206c656e67746860008201527f206d69736d617463680000000000000000000000000000000000000000000000602082015250565b6000612cbc602983612170565b9150612cc782612c60565b604082019050919050565b60006020820190508181036000830152612ceb81612caf565b9050919050565b7f4e487b7100000000000000000000000000000000000000000000000000000000600052603260045260246000fd5b7f4e487b7100000000000000000000000000000000000000000000000000000000600052601160045260246000fd5b6000612d5b82611fb3565b91507fffffffffffffffffffffffffffffffffffffffffffffffffffffffffffffffff821415612d8e57612d8d612d21565b5b600182019050919050565b7f5365656420616c72656164792075736564000000000000000000000000000000600082015250565b6000612dcf601183612170565b9150612dda82612d99565b602082019050919050565b60006020820190508181036000830152612dfe81612dc2565b9050919050565b600080fd5b600080fd5b600081519050612e1e81611fbd565b92915050565b6000612e37612e32846122cd565b6122b2565b90508083825260208201905060208402830185811115612e5a57612e596122f9565b5b835b81811015612e835780612e6f8882612e0f565b845260208401935050602081019050612e5c565b5050509392505050565b600082601f830112612ea257612ea161224d565b5b8151612eb2848260208601612e24565b91505092915050565b6000612ece612ec9846127a0565b6122b2565b905082815260208101848484011115612eea57612ee9612395565b5b612ef5848285612181565b509392505050565b600082601f830112612f1257612f1161224d565b5b8151612f22848260208601612ebb565b91505092915050565b600081519050612f3a81612734565b92915050565b60006101408284031215612f5757612f56612e05565b5b612f626101406122b2565b9050600082015167ffffffffffffffff811115612f8257612f81612e0a565b5b612f8e84828501612e8d565b6000830152506020612fa284828501612e0f565b602083015250604082015167ffffffffffffffff811115612fc657612fc5612e0a565b5b612fd284828501612efd565b604083015250606082015167ffffffffffffffff811115612ff657612ff5612e0a565b5b61300284828501612efd565b606083015250608061301684828501612e0f565b60808301525060a061302a84828501612f2b565b60a08301525060c061303e84828501612f2b565b60c08301525060e061305284828501612e0f565b60e08301525061010082015167ffffffffffffffff81111561307757613076612e0a565b5b61308384828501612efd565b6101008301525061012061309984828501612f2b565b6101208301525092915050565b6000602082840312156130bc576130bb611f4b565b5b600082015167ffffffffffffffff8111156130da576130d9611f50565b5b6130e684828501612f40565b91505092915050565b7f4e6f20636f6e747269627574696f6e207769746820746869732069642069732060008201527f666f756e64000000000000000000000000000000000000000000000000000000602082015250565b600061314b602583612170565b9150613156826130ef565b604082019050919050565b6000602082019050818103600083015261317a8161313e565b9050919050565b7f436f6e747269627574696f6e206e6565647320746f206265207365656420636f60008201527f6e747269627574696f6e00000000000000000000000000000000000000000000602082015250565b60006131dd602a83612170565b91506131e882613181565b604082019050919050565b6000602082019050818103600083015261320c816131d0565b9050919050565b6000819050919050565b6000819050919050565b600061324261323d61323884613213565b61321d565b611fb3565b9050919050565b61325281613227565b82525050565b600060e08201905061326d600083018a612029565b818103602083015261327f81896121c5565b9050818103604083015261329381886121c5565b90506132a26060830187612029565b6132af6080830186613249565b81810360a08301526132c181856121c5565b90506132d060c0830184612029565b98975050505050505050565b7f455243313135353a2063616c6c6572206973206e6f74206f776e6572206e6f7260008201527f20617070726f7665640000000000000000000000000000000000000000000000602082015250565b6000613338602983612170565b9150613343826132dc565b604082019050919050565b600060208201905081810360008301526133678161332b565b9050919050565b7f455243313135353a2069647320616e6420616d6f756e7473206c656e6774682060008201527f6d69736d61746368000000000000000000000000000000000000000000000000602082015250565b60006133ca602883612170565b91506133d58261336e565b604082019050919050565b600060208201905081810360008301526133f9816133bd565b9050919050565b7f455243313135353a207472616e7366657220746f20746865207a65726f20616460008201527f6472657373000000000000000000000000000000000000000000000000000000602082015250565b600061345c602583612170565b915061346782613400565b604082019050919050565b6000602082019050818103600083015261348b8161344f565b9050919050565b7f455243313135353a20696e73756666696369656e742062616c616e636520666f60008201527f72207472616e7366657200000000000000000000000000000000000000000000602082015250565b60006134ee602a83612170565b91506134f982613492565b604082019050919050565b6000602082019050818103600083015261351d816134e1565b9050919050565b600061352f82611fb3565b915061353a83611fb3565b9250827fffffffffffffffffffffffffffffffffffffffffffffffffffffffffffffffff0382111561356f5761356e612d21565b5b828201905092915050565b6000604082019050818103600083015261359481856126b4565b905081810360208301526135a881846126b4565b90509392505050565b7f455243313135353a2073657474696e6720617070726f76616c2073746174757360008201527f20666f722073656c660000000000000000000000000000000000000000000000602082015250565b600061360d602983612170565b9150613618826135b1565b604082019050919050565b6000602082019050818103600083015261363c81613600565b9050919050565b7f455243313135353a206d696e7420746f20746865207a65726f2061646472657360008201527f7300000000000000000000000000000000000000000000000000000000000000602082015250565b600061369f602183612170565b91506136aa82613643565b604082019050919050565b600060208201905081810360008301526136ce81613692565b9050919050565b60006040820190506136ea6000830185612029565b6136f76020830184612029565b9392505050565b600061370982611fb3565b915061371483611fb3565b92508282101561372757613726612d21565b5b828203905092915050565b600081519050919050565b600082825260208201905092915050565b600061375982613732565b613763818561373d565b9350613773818560208601612181565b61377c816121b4565b840191505092915050565b600060a08201905061379c600083018861210e565b6137a9602083018761210e565b81810360408301526137bb81866126b4565b905081810360608301526137cf81856126b4565b905081810360808301526137e3818461374e565b90509695505050505050565b6000815190506137fe8161207f565b92915050565b60006020828403121561381a57613819611f4b565b5b6000613828848285016137ef565b91505092915050565b60008160e01c9050919050565b600060033d111561385d5760046000803e61385a600051613831565b90505b90565b600060443d1015613870576138f3565b613878611f41565b60043d036004823e80513d602482011167ffffffffffffffff821117156138a05750506138f3565b808201805167ffffffffffffffff8111156138be57505050506138f3565b80602083010160043d0385018111156138db5750505050506138f3565b6138ea82602001850186612281565b82955050505050505b90565b7f455243313135353a207472616e7366657220746f206e6f6e204552433131353560008201527f526563656976657220696d706c656d656e746572000000000000000000000000602082015250565b6000613952603483612170565b915061395d826138f6565b604082019050919050565b6000602082019050818103600083015261398181613945565b9050919050565b7f455243313135353a204552433131353552656365697665722072656a6563746560008201527f6420746f6b656e73000000000000000000000000000000000000000000000000602082015250565b60006139e4602883612170565b91506139ef82613988565b604082019050919050565b60006020820190508181036000830152613a13816139d7565b9050919050565b600060a082019050613a2f600083018861210e565b613a3c602083018761210e565b613a496040830186612029565b613a566060830185612029565b8181036080830152613a68818461374e565b9050969550505050505056fea2646970667358221220bda99bef9f4b376e4a781824cdaeade5bfe6980384119372373bd0564a0286ce64736f6c634300080c0033",
  "immutableReferences": {},
  "source": "pragma solidity ^0.8.0;\n\nimport \"@openzeppelin/contracts/token/ERC1155/ERC1155.sol\";\nimport \"@openzeppelin/contracts/token/ERC1155/extensions/ERC1155Supply.sol\";\nimport \"@openzeppelin/contracts/utils/Counters.sol\";\nimport \"@openzeppelin/contracts/access/Ownable.sol\";\nimport \"./interface/IContribution.sol\";\n\ncontract RecordsContract is ERC1155Supply {\n    uint256 newTokenId = 0;\n\n    // This mapping contains data of record\n    mapping(uint256 => RecordToken) public recordData;\n    // This mapping contains if seed data id is being used or not\n    mapping(uint256 => bool) public seedIdUsed;\n\n    address OWNER;\n    address public CONTRIBUTION_CONTRACT_ADDRESS;\n\n    struct RecordToken {\n        string name;\n        string image;\n        uint256 seedId;\n        uint256 parentId;\n        string recordCategory;\n        uint256 creationDate;\n    }\n\n    /**\n     * @dev This event is emited when new record is created\n     * @param recordId This is the recordId\n     * @param name Name of the record\n     * @param image This is the image of the record\n     * @param seedId This is the seed contribution id\n     * @param parentId This is the id of the parent record from which record is created\n     * @param recordCategory This is the record category\n     * @param creationDate This is the creation date of the record\n     */\n    event RecordCreated(\n        uint256 recordId,\n        string name,\n        string image,\n        uint256 seedId,\n        uint256 parentId,\n        string recordCategory,\n        uint256 creationDate\n    );\n\n    constructor(address owner) ERC1155(\"https://something.com/{id}\") {\n        OWNER = owner;\n    }\n\n    /**\n     * @dev Modifier to check that the person who accesses a specific function is the owner of contract himself.\n     */\n    modifier ownerOnly() {\n        require(msg.sender == OWNER, \"You are not authorized for this action\");\n        _;\n    }\n\n    /**\n     * @dev This function sets the owner address\n     */\n    function setOwnerAddress(address ownerAddress)\n        public\n        ownerOnly\n    {\n        OWNER = ownerAddress;\n    }\n\n    /**\n     * @dev This function sets the Voting Contract address\n     */\n    function setContributionContractAddress(address contributionContractAddress)\n        public\n        ownerOnly\n    {\n        CONTRIBUTION_CONTRACT_ADDRESS = contributionContractAddress;\n    }\n\n    /**\n     * @dev This function creates new record\n     * @param name This is the total supply of governance token\n     * @param image This is the total supply of community token\n     * @param seedId this is hash of the preview file\n     * @param recordCategory this is hash of the preview file\n     */\n    function createNewRecord(\n        string memory name,\n        string memory image,\n        string memory recordCategory,\n        uint256 seedId\n    ) public returns (uint256 recordId) {\n        newTokenId++;\n        uint256 recordId = newTokenId;\n        _mint(msg.sender, recordId, 1, \"\");\n\n        require(seedIdUsed[seedId] == false, \"Seed already used\");\n\n        IContribution contributionContract = IContribution(\n            CONTRIBUTION_CONTRACT_ADDRESS\n        );\n\n        IContribution.Contribution memory contribution = contributionContract\n            .getContributionData(seedId);\n\n        require(\n            contribution.isPresent == true,\n            \"No contribution with this id is found\"\n        );\n\n        require(\n            contribution.seedContribution == true,\n            \"Contribution needs to be seed contribution\"\n        );\n\n        RecordToken memory recordToken = RecordToken({\n            name: name,\n            image: image,\n            seedId: seedId,\n            parentId: 0,\n            recordCategory: recordCategory,\n            creationDate: block.timestamp\n        });\n\n        recordData[recordId] = recordToken;\n\n        emit RecordCreated({\n            recordId: recordId,\n            name: name,\n            image: image,\n            seedId: seedId,\n            parentId: 0,\n            recordCategory: recordCategory,\n            creationDate: recordToken.creationDate\n        });\n\n        return (recordId);\n    }\n}\n",
  "sourcePath": "/Users/a1/Desktop/Office/projects/CrowdRecords/Contracts/contracts/RecordsContract.sol",
  "compiler": {
    "name": "solc",
    "version": "0.8.12+commit.f00d7308.Emscripten.clang"
  },
  "schemaVersion": "3.4.6",
  "updatedAt": "2022-09-08T09:22:09.594Z",
  "networkType": "ethereum",
  "devdoc": {
    "events": {
      "RecordCreated(uint256,string,string,uint256,uint256,string,uint256)": {
        "details": "This event is emited when new record is created",
        "params": {
          "creationDate": "This is the creation date of the record",
          "image": "This is the image of the record",
          "name": "Name of the record",
          "parentId": "This is the id of the parent record from which record is created",
          "recordCategory": "This is the record category",
          "recordId": "This is the recordId",
          "seedId": "This is the seed contribution id"
        }
      }
    },
    "kind": "dev",
    "methods": {
      "balanceOf(address,uint256)": {
        "details": "See {IERC1155-balanceOf}. Requirements: - `account` cannot be the zero address."
      },
      "balanceOfBatch(address[],uint256[])": {
        "details": "See {IERC1155-balanceOfBatch}. Requirements: - `accounts` and `ids` must have the same length."
      },
      "createNewRecord(string,string,string,uint256)": {
        "details": "This function creates new record",
        "params": {
          "image": "This is the total supply of community token",
          "name": "This is the total supply of governance token",
          "recordCategory": "this is hash of the preview file",
          "seedId": "this is hash of the preview file"
        }
      },
      "exists(uint256)": {
        "details": "Indicates whether any token exist with a given id, or not."
      },
      "isApprovedForAll(address,address)": {
        "details": "See {IERC1155-isApprovedForAll}."
      },
      "safeBatchTransferFrom(address,address,uint256[],uint256[],bytes)": {
        "details": "See {IERC1155-safeBatchTransferFrom}."
      },
      "safeTransferFrom(address,address,uint256,uint256,bytes)": {
        "details": "See {IERC1155-safeTransferFrom}."
      },
      "setApprovalForAll(address,bool)": {
        "details": "See {IERC1155-setApprovalForAll}."
      },
      "setContributionContractAddress(address)": {
        "details": "This function sets the Voting Contract address"
      },
      "setOwnerAddress(address)": {
        "details": "This function sets the owner address"
      },
      "supportsInterface(bytes4)": {
        "details": "See {IERC165-supportsInterface}."
      },
      "totalSupply(uint256)": {
        "details": "Total amount of tokens in with a given id."
      },
      "uri(uint256)": {
        "details": "See {IERC1155MetadataURI-uri}. This implementation returns the same URI for *all* token types. It relies on the token type ID substitution mechanism https://eips.ethereum.org/EIPS/eip-1155#metadata[defined in the EIP]. Clients calling this function must replace the `\\{id\\}` substring with the actual token type ID."
      }
    },
    "version": 1
  },
  "userdoc": {
    "kind": "user",
    "methods": {},
    "version": 1
  }
}