{
  "contractName": "RecordsContract",
  "abi": [
    {
      "inputs": [
        {
          "internalType": "address",
          "name": "owner",
          "type": "address"
        }
      ],
      "stateMutability": "nonpayable",
      "type": "constructor"
    },
    {
      "anonymous": false,
      "inputs": [
        {
          "indexed": false,
          "internalType": "uint256",
          "name": "versionRequestId",
          "type": "uint256"
        },
        {
          "indexed": false,
          "internalType": "uint256",
          "name": "recordId",
          "type": "uint256"
        },
        {
          "indexed": false,
          "internalType": "uint256",
          "name": "rewardAmount",
          "type": "uint256"
        },
        {
          "indexed": false,
          "internalType": "address",
          "name": "userAddress",
          "type": "address"
        }
      ],
      "name": "NewTokenClaimed",
      "type": "event"
    },
    {
      "anonymous": false,
      "inputs": [
        {
          "indexed": false,
          "internalType": "uint256",
          "name": "versionReqId",
          "type": "uint256"
        },
        {
          "indexed": false,
          "internalType": "uint256",
          "name": "tokenId",
          "type": "uint256"
        },
        {
          "indexed": false,
          "internalType": "uint256",
          "name": "ballotId",
          "type": "uint256"
        },
        {
          "indexed": false,
          "internalType": "bool",
          "name": "result",
          "type": "bool"
        }
      ],
      "name": "NewVersionRequestResult",
      "type": "event"
    },
    {
      "anonymous": false,
      "inputs": [
        {
          "indexed": false,
          "internalType": "uint256",
          "name": "versionRequestId",
          "type": "uint256"
        },
        {
          "indexed": false,
          "internalType": "uint256",
          "name": "totalSupplyEther",
          "type": "uint256"
        },
        {
          "indexed": false,
          "internalType": "uint256",
          "name": "royaltyAmountWei",
          "type": "uint256"
        },
        {
          "indexed": false,
          "internalType": "uint256",
          "name": "tokenId",
          "type": "uint256"
        },
        {
          "indexed": false,
          "internalType": "uint256",
          "name": "rewardTokenId",
          "type": "uint256"
        },
        {
          "indexed": false,
          "internalType": "uint256",
          "name": "royaltyPerTokenWei",
          "type": "uint256"
        },
        {
          "indexed": false,
          "internalType": "uint256",
          "name": "snapshotId",
          "type": "uint256"
        }
      ],
      "name": "NewVersionTokenDistribution",
      "type": "event"
    },
    {
      "anonymous": false,
      "inputs": [
        {
          "indexed": false,
          "internalType": "address",
          "name": "voter",
          "type": "address"
        },
        {
          "indexed": false,
          "internalType": "uint256",
          "name": "versionRequestId",
          "type": "uint256"
        },
        {
          "indexed": false,
          "internalType": "uint256",
          "name": "ballotId",
          "type": "uint256"
        },
        {
          "indexed": false,
          "internalType": "bool",
          "name": "vote",
          "type": "bool"
        }
      ],
      "name": "NewVersionVoting",
      "type": "event"
    },
    {
      "anonymous": false,
      "inputs": [
        {
          "indexed": false,
          "internalType": "address",
          "name": "requester",
          "type": "address"
        },
        {
          "indexed": false,
          "internalType": "uint256",
          "name": "versionRequestId",
          "type": "uint256"
        },
        {
          "indexed": false,
          "internalType": "uint256",
          "name": "ballotId",
          "type": "uint256"
        }
      ],
      "name": "NewVersionVotingBallotCreated",
      "type": "event"
    },
    {
      "anonymous": false,
      "inputs": [
        {
          "indexed": false,
          "internalType": "uint256",
          "name": "recordId",
          "type": "uint256"
        },
        {
          "indexed": false,
          "internalType": "string",
          "name": "name",
          "type": "string"
        },
        {
          "indexed": false,
          "internalType": "string",
          "name": "image",
          "type": "string"
        },
        {
          "indexed": false,
          "internalType": "uint256",
          "name": "seedId",
          "type": "uint256"
        },
        {
          "indexed": false,
          "internalType": "uint256",
          "name": "parentId",
          "type": "uint256"
        },
        {
          "indexed": false,
          "internalType": "string",
          "name": "recordCategory",
          "type": "string"
        },
        {
          "indexed": false,
          "internalType": "uint256",
          "name": "creationDate",
          "type": "uint256"
        }
      ],
      "name": "RecordCreated",
      "type": "event"
    },
    {
      "anonymous": false,
      "inputs": [
        {
          "indexed": false,
          "internalType": "uint256",
          "name": "requestId",
          "type": "uint256"
        },
        {
          "components": [
            {
              "internalType": "string",
              "name": "name",
              "type": "string"
            },
            {
              "internalType": "string",
              "name": "image",
              "type": "string"
            },
            {
              "internalType": "uint256",
              "name": "seedId",
              "type": "uint256"
            },
            {
              "internalType": "uint256",
              "name": "parentId",
              "type": "uint256"
            },
            {
              "internalType": "address",
              "name": "owner",
              "type": "address"
            },
            {
              "internalType": "string",
              "name": "recordCategory",
              "type": "string"
            },
            {
              "internalType": "uint256",
              "name": "creationDate",
              "type": "uint256"
            },
            {
              "internalType": "bool",
              "name": "isPresent",
              "type": "bool"
            }
          ],
          "indexed": false,
          "internalType": "struct RecordsContract.RecordStruct",
          "name": "recordData",
          "type": "tuple"
        },
        {
          "components": [
            {
              "internalType": "uint256",
              "name": "totalSupply",
              "type": "uint256"
            },
            {
              "internalType": "uint256",
              "name": "oldContributorShare",
              "type": "uint256"
            },
            {
              "internalType": "uint256",
              "name": "userBalance",
              "type": "uint256"
            },
            {
              "internalType": "string",
              "name": "symbol",
              "type": "string"
            },
            {
              "internalType": "string",
              "name": "image",
              "type": "string"
            }
          ],
          "indexed": false,
          "internalType": "struct RecordsContract.NewVersionTokenStruct",
          "name": "governanceToken",
          "type": "tuple"
        },
        {
          "components": [
            {
              "internalType": "uint256",
              "name": "totalSupply",
              "type": "uint256"
            },
            {
              "internalType": "uint256",
              "name": "oldContributorShare",
              "type": "uint256"
            },
            {
              "internalType": "uint256",
              "name": "userBalance",
              "type": "uint256"
            },
            {
              "internalType": "string",
              "name": "symbol",
              "type": "string"
            },
            {
              "internalType": "string",
              "name": "image",
              "type": "string"
            }
          ],
          "indexed": false,
          "internalType": "struct RecordsContract.NewVersionTokenStruct",
          "name": "communityToken",
          "type": "tuple"
        },
        {
          "indexed": false,
          "internalType": "uint256[]",
          "name": "contributionIds",
          "type": "uint256[]"
        },
        {
          "indexed": false,
          "internalType": "address",
          "name": "requester",
          "type": "address"
        },
        {
          "indexed": false,
          "internalType": "uint256",
          "name": "oldVersionId",
          "type": "uint256"
        },
        {
          "indexed": false,
          "internalType": "uint256",
          "name": "tokenId",
          "type": "uint256"
        },
        {
          "indexed": false,
          "internalType": "uint256",
          "name": "ballotId",
          "type": "uint256"
        }
      ],
      "name": "VersionRequest",
      "type": "event"
    },
    {
      "inputs": [],
      "name": "CONTRIBUTION_CONTRACT_ADDRESS",
      "outputs": [
        {
          "internalType": "address",
          "name": "",
          "type": "address"
        }
      ],
      "stateMutability": "view",
      "type": "function"
    },
    {
      "inputs": [],
      "name": "OWNER",
      "outputs": [
        {
          "internalType": "address",
          "name": "",
          "type": "address"
        }
      ],
      "stateMutability": "view",
      "type": "function"
    },
    {
      "inputs": [],
      "name": "TREASURY_CONTRACT_ADDRESS",
      "outputs": [
        {
          "internalType": "address",
          "name": "",
          "type": "address"
        }
      ],
      "stateMutability": "view",
      "type": "function"
    },
    {
      "inputs": [],
      "name": "TREASURY_CORE_CONTRACT_ADDRESS",
      "outputs": [
        {
          "internalType": "address",
          "name": "",
          "type": "address"
        }
      ],
      "stateMutability": "view",
      "type": "function"
    },
    {
      "inputs": [],
      "name": "TREASURY_HUB_ADDRESS",
      "outputs": [
        {
          "internalType": "address",
          "name": "",
          "type": "address"
        }
      ],
      "stateMutability": "view",
      "type": "function"
    },
    {
      "inputs": [
        {
          "internalType": "address",
          "name": "user",
          "type": "address"
        },
        {
          "internalType": "uint256",
          "name": "tokenId",
          "type": "uint256"
        },
        {
          "internalType": "uint256",
          "name": "previousBalance",
          "type": "uint256"
        },
        {
          "internalType": "uint256",
          "name": "newBalance",
          "type": "uint256"
        }
      ],
      "name": "_handleUserTokenTransfers",
      "outputs": [],
      "stateMutability": "nonpayable",
      "type": "function"
    },
    {
      "inputs": [
        {
          "internalType": "uint256",
          "name": "",
          "type": "uint256"
        }
      ],
      "name": "newVersionRequestMap",
      "outputs": [
        {
          "components": [
            {
              "internalType": "string",
              "name": "name",
              "type": "string"
            },
            {
              "internalType": "string",
              "name": "image",
              "type": "string"
            },
            {
              "internalType": "uint256",
              "name": "seedId",
              "type": "uint256"
            },
            {
              "internalType": "uint256",
              "name": "parentId",
              "type": "uint256"
            },
            {
              "internalType": "address",
              "name": "owner",
              "type": "address"
            },
            {
              "internalType": "string",
              "name": "recordCategory",
              "type": "string"
            },
            {
              "internalType": "uint256",
              "name": "creationDate",
              "type": "uint256"
            },
            {
              "internalType": "bool",
              "name": "isPresent",
              "type": "bool"
            }
          ],
          "internalType": "struct RecordsContract.RecordStruct",
          "name": "recordData",
          "type": "tuple"
        },
        {
          "components": [
            {
              "internalType": "uint256",
              "name": "totalSupply",
              "type": "uint256"
            },
            {
              "internalType": "uint256",
              "name": "oldContributorShare",
              "type": "uint256"
            },
            {
              "internalType": "uint256",
              "name": "userBalance",
              "type": "uint256"
            },
            {
              "internalType": "string",
              "name": "symbol",
              "type": "string"
            },
            {
              "internalType": "string",
              "name": "image",
              "type": "string"
            }
          ],
          "internalType": "struct RecordsContract.NewVersionTokenStruct",
          "name": "governanceToken",
          "type": "tuple"
        },
        {
          "components": [
            {
              "internalType": "uint256",
              "name": "totalSupply",
              "type": "uint256"
            },
            {
              "internalType": "uint256",
              "name": "oldContributorShare",
              "type": "uint256"
            },
            {
              "internalType": "uint256",
              "name": "userBalance",
              "type": "uint256"
            },
            {
              "internalType": "string",
              "name": "symbol",
              "type": "string"
            },
            {
              "internalType": "string",
              "name": "image",
              "type": "string"
            }
          ],
          "internalType": "struct RecordsContract.NewVersionTokenStruct",
          "name": "communityToken",
          "type": "tuple"
        },
        {
          "internalType": "address",
          "name": "requester",
          "type": "address"
        },
        {
          "internalType": "uint256",
          "name": "oldVersionId",
          "type": "uint256"
        },
        {
          "internalType": "uint256",
          "name": "tokenId",
          "type": "uint256"
        },
        {
          "internalType": "uint256",
          "name": "ballotId",
          "type": "uint256"
        },
        {
          "internalType": "bool",
          "name": "isPresent",
          "type": "bool"
        },
        {
          "internalType": "bool",
          "name": "isAccepted",
          "type": "bool"
        }
      ],
      "stateMutability": "view",
      "type": "function"
    },
    {
      "inputs": [
        {
          "internalType": "uint256",
          "name": "",
          "type": "uint256"
        },
        {
          "internalType": "uint256",
          "name": "",
          "type": "uint256"
        }
      ],
      "name": "recordContributions",
      "outputs": [
        {
          "internalType": "uint256",
          "name": "",
          "type": "uint256"
        }
      ],
      "stateMutability": "view",
      "type": "function"
    },
    {
      "inputs": [
        {
          "internalType": "uint256",
          "name": "",
          "type": "uint256"
        }
      ],
      "name": "recordData",
      "outputs": [
        {
          "internalType": "string",
          "name": "name",
          "type": "string"
        },
        {
          "internalType": "string",
          "name": "image",
          "type": "string"
        },
        {
          "internalType": "uint256",
          "name": "seedId",
          "type": "uint256"
        },
        {
          "internalType": "uint256",
          "name": "parentId",
          "type": "uint256"
        },
        {
          "internalType": "address",
          "name": "owner",
          "type": "address"
        },
        {
          "internalType": "string",
          "name": "recordCategory",
          "type": "string"
        },
        {
          "internalType": "uint256",
          "name": "creationDate",
          "type": "uint256"
        },
        {
          "internalType": "bool",
          "name": "isPresent",
          "type": "bool"
        }
      ],
      "stateMutability": "view",
      "type": "function"
    },
    {
      "inputs": [
        {
          "internalType": "uint256",
          "name": "",
          "type": "uint256"
        },
        {
          "internalType": "uint256",
          "name": "",
          "type": "uint256"
        }
      ],
      "name": "recordVersion",
      "outputs": [
        {
          "internalType": "uint256",
          "name": "",
          "type": "uint256"
        }
      ],
      "stateMutability": "view",
      "type": "function"
    },
    {
      "inputs": [
        {
          "internalType": "uint256",
          "name": "",
          "type": "uint256"
        }
      ],
      "name": "seedIdUsed",
      "outputs": [
        {
          "internalType": "bool",
          "name": "",
          "type": "bool"
        }
      ],
      "stateMutability": "view",
      "type": "function"
    },
    {
      "inputs": [
        {
          "internalType": "address",
          "name": "ownerAddress",
          "type": "address"
        }
      ],
      "name": "setOwnerAddress",
      "outputs": [],
      "stateMutability": "nonpayable",
      "type": "function"
    },
    {
      "inputs": [
        {
          "internalType": "address",
          "name": "contributionContractAddress",
          "type": "address"
        }
      ],
      "name": "setContributionContractAddress",
      "outputs": [],
      "stateMutability": "nonpayable",
      "type": "function"
    },
    {
      "inputs": [
        {
          "internalType": "address",
          "name": "treasuryContractAddress",
          "type": "address"
        }
      ],
      "name": "setTreasuryContractAddress",
      "outputs": [],
      "stateMutability": "nonpayable",
      "type": "function"
    },
    {
      "inputs": [
        {
          "internalType": "string",
          "name": "name",
          "type": "string"
        },
        {
          "internalType": "string",
          "name": "image",
          "type": "string"
        },
        {
          "internalType": "string",
          "name": "recordCategory",
          "type": "string"
        },
        {
          "internalType": "uint256",
          "name": "seedId",
          "type": "uint256"
        }
      ],
      "name": "createNewRecord",
      "outputs": [
        {
          "internalType": "uint256",
          "name": "recordId",
          "type": "uint256"
        }
      ],
      "stateMutability": "nonpayable",
      "type": "function"
    },
    {
      "inputs": [
        {
          "internalType": "uint256",
          "name": "recordId",
          "type": "uint256"
        },
        {
          "internalType": "uint256",
          "name": "contributionId",
          "type": "uint256"
        }
      ],
      "name": "pushContributionIdToContributionList",
      "outputs": [],
      "stateMutability": "nonpayable",
      "type": "function"
    },
    {
      "inputs": [
        {
          "internalType": "uint256",
          "name": "recordId",
          "type": "uint256"
        }
      ],
      "name": "ownerOf",
      "outputs": [
        {
          "internalType": "address",
          "name": "",
          "type": "address"
        }
      ],
      "stateMutability": "nonpayable",
      "type": "function"
    },
    {
      "inputs": [
        {
          "components": [
            {
              "internalType": "string",
              "name": "name",
              "type": "string"
            },
            {
              "internalType": "string",
              "name": "image",
              "type": "string"
            },
            {
              "internalType": "string",
              "name": "recordCategory",
              "type": "string"
            },
            {
              "internalType": "uint256",
              "name": "oldRecordId",
              "type": "uint256"
            },
            {
              "internalType": "uint256[]",
              "name": "contributionIds",
              "type": "uint256[]"
            },
            {
              "components": [
                {
                  "internalType": "uint256",
                  "name": "totalSupply",
                  "type": "uint256"
                },
                {
                  "internalType": "uint256",
                  "name": "oldContributorShare",
                  "type": "uint256"
                },
                {
                  "internalType": "uint256",
                  "name": "userBalance",
                  "type": "uint256"
                },
                {
                  "internalType": "string",
                  "name": "symbol",
                  "type": "string"
                },
                {
                  "internalType": "string",
                  "name": "image",
                  "type": "string"
                }
              ],
              "internalType": "struct RecordsContract.NewVersionTokenStruct",
              "name": "governanceToken",
              "type": "tuple"
            },
            {
              "components": [
                {
                  "internalType": "uint256",
                  "name": "totalSupply",
                  "type": "uint256"
                },
                {
                  "internalType": "uint256",
                  "name": "oldContributorShare",
                  "type": "uint256"
                },
                {
                  "internalType": "uint256",
                  "name": "userBalance",
                  "type": "uint256"
                },
                {
                  "internalType": "string",
                  "name": "symbol",
                  "type": "string"
                },
                {
                  "internalType": "string",
                  "name": "image",
                  "type": "string"
                }
              ],
              "internalType": "struct RecordsContract.NewVersionTokenStruct",
              "name": "communityToken",
              "type": "tuple"
            }
          ],
          "internalType": "struct RecordsContract.NewRecordVersionParams",
          "name": "params",
          "type": "tuple"
        }
      ],
      "name": "createNewRecordVersion",
      "outputs": [
        {
          "internalType": "uint256",
          "name": "",
          "type": "uint256"
        }
      ],
      "stateMutability": "nonpayable",
      "type": "function"
    },
    {
      "inputs": [
        {
          "internalType": "uint256",
          "name": "versionReqId",
          "type": "uint256"
        },
        {
          "internalType": "bool",
          "name": "vote",
          "type": "bool"
        }
      ],
      "name": "castVote",
      "outputs": [],
      "stateMutability": "nonpayable",
      "type": "function"
    },
    {
      "inputs": [
        {
          "internalType": "uint256",
          "name": "versionReqId",
          "type": "uint256"
        }
      ],
      "name": "declareWinner",
      "outputs": [],
      "stateMutability": "nonpayable",
      "type": "function"
    }
  ],
  "bytecode": "0x60806040526019600055600060045560006009556000600a553480156200002557600080fd5b506040516200531e3803806200531e83398181016040528101906200004b9190620000ff565b8080600360006101000a81548173ffffffffffffffffffffffffffffffffffffffff021916908373ffffffffffffffffffffffffffffffffffffffff160217905550505062000131565b600080fd5b600073ffffffffffffffffffffffffffffffffffffffff82169050919050565b6000620000c7826200009a565b9050919050565b620000d981620000ba565b8114620000e557600080fd5b50565b600081519050620000f981620000ce565b92915050565b60006020828403121562000118576200011762000095565b5b60006200012884828501620000e8565b91505092915050565b6151dd80620001416000396000f3fe608060405234801561001057600080fd5b506004361061012b5760003560e01c80638d2ae1f7116100ad578063acf6beb611610071578063acf6beb614610336578063b512341e14610366578063bb6c5fb314610396578063c10df2cf146103c6578063cd58b8d6146103e25761012b565b80638d2ae1f71461027e5780639505809f1461029c57806399728a45146102cc578063abb7ed7f146102fc578063acb31493146103185761012b565b8063331a6bf5116100f4578063331a6bf5146101c05780634cf2d48f146101dc578063556bed3a146101f857806358f0b6c1146102165780636352211e1461024e5761012b565b8062c2943c1461013057806307c505b71461014c578063117803e31461016a57806315373e3d1461018857806329c50b59146101a4575b600080fd5b61014a60048036038101906101459190613757565b610419565b005b610154610d67565b60405161016191906137c5565b60405180910390f35b610172610d8d565b60405161017f91906137c5565b60405180910390f35b6101a2600480360381019061019d9190613818565b610db3565b005b6101be60048036038101906101b99190613884565b610e7e565b005b6101da60048036038101906101d59190613884565b610f52565b005b6101f660048036038101906101f19190613884565b611026565b005b6102006110c2565b60405161020d91906137c5565b60405180910390f35b610230600480360381019061022b9190613757565b6110e8565b60405161024599989796959493929190613ad0565b60405180910390f35b61026860048036038101906102639190613757565b611658565b60405161027591906137c5565b60405180910390f35b610286611698565b60405161029391906137c5565b60405180910390f35b6102b660048036038101906102b19190613b72565b6116be565b6040516102c39190613bb2565b60405180910390f35b6102e660048036038101906102e19190613ff4565b6116ef565b6040516102f39190613bb2565b60405180910390f35b6103166004803603810190610311919061403d565b611fc8565b005b6103206121c1565b60405161032d91906137c5565b60405180910390f35b610350600480360381019061034b9190613757565b6121e7565b60405161035d91906140a4565b60405180910390f35b610380600480360381019061037b9190613b72565b612207565b60405161038d9190613bb2565b60405180910390f35b6103b060048036038101906103ab91906140bf565b612238565b6040516103bd9190613bb2565b60405180910390f35b6103e060048036038101906103db9190613b72565b6125dd565b005b6103fc60048036038101906103f79190613757565b6126ab565b6040516104109897969594939291906141c4565b60405180910390f35b6000600f600083815260200190815260200160002060405180610140016040529081600082016040518061010001604052908160008201805461045b90614286565b80601f016020809104026020016040519081016040528092919081815260200182805461048790614286565b80156104d45780601f106104a9576101008083540402835291602001916104d4565b820191906000526020600020905b8154815290600101906020018083116104b757829003601f168201915b505050505081526020016001820180546104ed90614286565b80601f016020809104026020016040519081016040528092919081815260200182805461051990614286565b80156105665780601f1061053b57610100808354040283529160200191610566565b820191906000526020600020905b81548152906001019060200180831161054957829003601f168201915b5050505050815260200160028201548152602001600382015481526020016004820160009054906101000a900473ffffffffffffffffffffffffffffffffffffffff1673ffffffffffffffffffffffffffffffffffffffff1673ffffffffffffffffffffffffffffffffffffffff1681526020016005820180546105e990614286565b80601f016020809104026020016040519081016040528092919081815260200182805461061590614286565b80156106625780601f1061063757610100808354040283529160200191610662565b820191906000526020600020905b81548152906001019060200180831161064557829003601f168201915b50505050508152602001600682015481526020016007820160009054906101000a900460ff1615151515815250508152602001600882016040518060a00160405290816000820154815260200160018201548152602001600282015481526020016003820180546106d290614286565b80601f01602080910402602001604051908101604052809291908181526020018280546106fe90614286565b801561074b5780601f106107205761010080835404028352916020019161074b565b820191906000526020600020905b81548152906001019060200180831161072e57829003601f168201915b5050505050815260200160048201805461076490614286565b80601f016020809104026020016040519081016040528092919081815260200182805461079090614286565b80156107dd5780601f106107b2576101008083540402835291602001916107dd565b820191906000526020600020905b8154815290600101906020018083116107c057829003601f168201915b5050505050815250508152602001600d82016040518060a001604052908160008201548152602001600182015481526020016002820154815260200160038201805461082890614286565b80601f016020809104026020016040519081016040528092919081815260200182805461085490614286565b80156108a15780601f10610876576101008083540402835291602001916108a1565b820191906000526020600020905b81548152906001019060200180831161088457829003601f168201915b505050505081526020016004820180546108ba90614286565b80601f01602080910402602001604051908101604052809291908181526020018280546108e690614286565b80156109335780601f1061090857610100808354040283529160200191610933565b820191906000526020600020905b81548152906001019060200180831161091657829003601f168201915b50505050508152505081526020016012820180548060200260200160405190810160405280929190818152602001828054801561098f57602002820191906000526020600020905b81548152602001906001019080831161097b575b505050505081526020016013820160009054906101000a900473ffffffffffffffffffffffffffffffffffffffff1673ffffffffffffffffffffffffffffffffffffffff1673ffffffffffffffffffffffffffffffffffffffff1681526020016014820154815260200160158201548152602001601682015481526020016017820160009054906101000a900460ff161515151581526020016017820160019054906101000a900460ff16151515158152505090506000610a538260e001516128b8565b90507f8f055f41b038b63ed8fff3423ae641e18d2378e98c4d353ea35adf31cbe0bc83838360c001518460e0015184604051610a9294939291906142b8565b60405180910390a18015610d325760096000815480929190610ab39061432c565b9190505550600060095490506000600160009054906101000a900473ffffffffffffffffffffffffffffffffffffffff1690508360000151600b60008481526020019081526020016000206000820151816000019080519060200190610b1a92919061361d565b506020820151816001019080519060200190610b3792919061361d565b50604082015181600201556060820151816003015560808201518160040160006101000a81548173ffffffffffffffffffffffffffffffffffffffff021916908373ffffffffffffffffffffffffffffffffffffffff16021790555060a0820151816005019080519060200190610baf92919061361d565b5060c0820151816006015560e08201518160070160006101000a81548160ff0219169083151502179055509050508360600151600e60008481526020019081526020016000209080519060200190610c089291906136a3565b50600e60008381526020019081526020016000208460000151604001519080600181540180825580915050600190039060005260206000200160009091909190915055600d60008560a0015181526020019081526020016000208290806001815401808255809150506001900390600052602060002001600090919091909150557f54759de35da3706adafb7ba0eea0b307160fc4576df0cddc11dd4b2ce115455882856000015160000151866000015160200151876000015160400151886000015160600151896000015160a001518a6000015160c00151604051610cf49796959493929190614375565b60405180910390a16001600f600087815260200190815260200160002060170160016101000a81548160ff0219169083151502179055505050610d62565b6000600f600085815260200190815260200160002060170160016101000a81548160ff0219169083151502179055505b505050565b601060009054906101000a900473ffffffffffffffffffffffffffffffffffffffff1681565b600360009054906101000a900473ffffffffffffffffffffffffffffffffffffffff1681565b60011515600f600084815260200190815260200160002060170160009054906101000a900460ff16151514610e1d576040517f08c379a0000000000000000000000000000000000000000000000000000000008152600401610e1490614445565b60405180910390fd5b7f7fa8530f2b70b1c2f0aa92650d5274e8e84988e1af0fa8ca56a37ba7646720743383600f60008681526020019081526020016000206016015484604051610e689493929190614465565b60405180910390a1610e7a8282612b35565b5050565b600360009054906101000a900473ffffffffffffffffffffffffffffffffffffffff1673ffffffffffffffffffffffffffffffffffffffff163373ffffffffffffffffffffffffffffffffffffffff1614610f0e576040517f08c379a0000000000000000000000000000000000000000000000000000000008152600401610f059061451c565b60405180910390fd5b80601060006101000a81548173ffffffffffffffffffffffffffffffffffffffff021916908373ffffffffffffffffffffffffffffffffffffffff16021790555050565b600360009054906101000a900473ffffffffffffffffffffffffffffffffffffffff1673ffffffffffffffffffffffffffffffffffffffff163373ffffffffffffffffffffffffffffffffffffffff1614610fe2576040517f08c379a0000000000000000000000000000000000000000000000000000000008152600401610fd99061451c565b60405180910390fd5b80600360006101000a81548173ffffffffffffffffffffffffffffffffffffffff021916908373ffffffffffffffffffffffffffffffffffffffff16021790555050565b600360009054906101000a900473ffffffffffffffffffffffffffffffffffffffff1673ffffffffffffffffffffffffffffffffffffffff163373ffffffffffffffffffffffffffffffffffffffff16146110b6576040517f08c379a00000000000000000000000000000000000000000000000000000000081526004016110ad9061451c565b60405180910390fd5b6110bf81612e28565b50565b601160009054906101000a900473ffffffffffffffffffffffffffffffffffffffff1681565b600f602052806000526040600020600091509050806000016040518061010001604052908160008201805461111c90614286565b80601f016020809104026020016040519081016040528092919081815260200182805461114890614286565b80156111955780601f1061116a57610100808354040283529160200191611195565b820191906000526020600020905b81548152906001019060200180831161117857829003601f168201915b505050505081526020016001820180546111ae90614286565b80601f01602080910402602001604051908101604052809291908181526020018280546111da90614286565b80156112275780601f106111fc57610100808354040283529160200191611227565b820191906000526020600020905b81548152906001019060200180831161120a57829003601f168201915b5050505050815260200160028201548152602001600382015481526020016004820160009054906101000a900473ffffffffffffffffffffffffffffffffffffffff1673ffffffffffffffffffffffffffffffffffffffff1673ffffffffffffffffffffffffffffffffffffffff1681526020016005820180546112aa90614286565b80601f01602080910402602001604051908101604052809291908181526020018280546112d690614286565b80156113235780601f106112f857610100808354040283529160200191611323565b820191906000526020600020905b81548152906001019060200180831161130657829003601f168201915b50505050508152602001600682015481526020016007820160009054906101000a900460ff16151515158152505090806008016040518060a001604052908160008201548152602001600182015481526020016002820154815260200160038201805461138f90614286565b80601f01602080910402602001604051908101604052809291908181526020018280546113bb90614286565b80156114085780601f106113dd57610100808354040283529160200191611408565b820191906000526020600020905b8154815290600101906020018083116113eb57829003601f168201915b5050505050815260200160048201805461142190614286565b80601f016020809104026020016040519081016040528092919081815260200182805461144d90614286565b801561149a5780601f1061146f5761010080835404028352916020019161149a565b820191906000526020600020905b81548152906001019060200180831161147d57829003601f168201915b5050505050815250509080600d016040518060a00160405290816000820154815260200160018201548152602001600282015481526020016003820180546114e190614286565b80601f016020809104026020016040519081016040528092919081815260200182805461150d90614286565b801561155a5780601f1061152f5761010080835404028352916020019161155a565b820191906000526020600020905b81548152906001019060200180831161153d57829003601f168201915b5050505050815260200160048201805461157390614286565b80601f016020809104026020016040519081016040528092919081815260200182805461159f90614286565b80156115ec5780601f106115c1576101008083540402835291602001916115ec565b820191906000526020600020905b8154815290600101906020018083116115cf57829003601f168201915b505050505081525050908060130160009054906101000a900473ffffffffffffffffffffffffffffffffffffffff16908060140154908060150154908060160154908060170160009054906101000a900460ff16908060170160019054906101000a900460ff16905089565b6000600b600083815260200190815260200160002060040160009054906101000a900473ffffffffffffffffffffffffffffffffffffffff169050919050565b600260009054906101000a900473ffffffffffffffffffffffffffffffffffffffff1681565b600d60205281600052604060002081815481106116da57600080fd5b90600052602060002001600091509150505481565b6000600960008154809291906117049061432c565b919050555060006009549050600a60008154809291906117239061432c565b91905055506000600a54905060011515600b60008660600151815260200190815260200160002060070160009054906101000a900460ff1615151461179d576040517f08c379a000000000000000000000000000000000000000000000000000000000815260040161179490614588565b60405180910390fd5b6000600b600086606001518152602001908152602001600020604051806101000160405290816000820180546117d290614286565b80601f01602080910402602001604051908101604052809291908181526020018280546117fe90614286565b801561184b5780601f106118205761010080835404028352916020019161184b565b820191906000526020600020905b81548152906001019060200180831161182e57829003601f168201915b5050505050815260200160018201805461186490614286565b80601f016020809104026020016040519081016040528092919081815260200182805461189090614286565b80156118dd5780601f106118b2576101008083540402835291602001916118dd565b820191906000526020600020905b8154815290600101906020018083116118c057829003601f168201915b5050505050815260200160028201548152602001600382015481526020016004820160009054906101000a900473ffffffffffffffffffffffffffffffffffffffff1673ffffffffffffffffffffffffffffffffffffffff1673ffffffffffffffffffffffffffffffffffffffff16815260200160058201805461196090614286565b80601f016020809104026020016040519081016040528092919081815260200182805461198c90614286565b80156119d95780601f106119ae576101008083540402835291602001916119d9565b820191906000526020600020905b8154815290600101906020018083116119bc57829003601f168201915b50505050508152602001600682015481526020016007820160009054906101000a900460ff16151515158152505090506000604051806101000160405280876000015181526020018760200151815260200183604001518152602001876060015181526020013373ffffffffffffffffffffffffffffffffffffffff168152602001876040015181526020014281526020016001151581525090506000600160009054906101000a900473ffffffffffffffffffffffffffffffffffffffff1690508073ffffffffffffffffffffffffffffffffffffffff166361cbc3578860a00151606001518960c00151606001516040518363ffffffff1660e01b8152600401611ae69291906145a8565b600060405180830381600087803b158015611b0057600080fd5b505af1158015611b14573d6000803e3d6000fd5b505050506000611ba260008373ffffffffffffffffffffffffffffffffffffffff16632d4a03828b606001516040518263ffffffff1660e01b8152600401611b5c9190613bb2565b602060405180830381865afa158015611b79573d6000803e3d6000fd5b505050506040513d601f19601f82011682018060405250810190611b9d91906145f4565b612efc565b905060006040518061014001604052808581526020018a60a0015181526020018a60c0015181526020018a6080015181526020013373ffffffffffffffffffffffffffffffffffffffff1681526020018a6060015181526020018473ffffffffffffffffffffffffffffffffffffffff16632d4a03828c606001516040518263ffffffff1660e01b8152600401611c399190613bb2565b602060405180830381865afa158015611c56573d6000803e3d6000fd5b505050506040513d601f19601f82011682018060405250810190611c7a91906145f4565b81526020018381526020016001151581526020016000151581525090507f42cad05f5e0c47228d26190e634cc7f9822f43ee731fe6b8f723987878a9f74686858b60a001518c60c001518d60800151338f606001518860e001518960a00151604051611cee999897969594939291906146d0565b60405180910390a17f481ac14a03d079bd5d1dd2bb725fae4aa2f87184de7662e57a1c32dce0927653338784604051611d2993929190614779565b60405180910390a180600f60008881526020019081526020016000206000820151816000016000820151816000019080519060200190611d6a92919061361d565b506020820151816001019080519060200190611d8792919061361d565b50604082015181600201556060820151816003015560808201518160040160006101000a81548173ffffffffffffffffffffffffffffffffffffffff021916908373ffffffffffffffffffffffffffffffffffffffff16021790555060a0820151816005019080519060200190611dff92919061361d565b5060c0820151816006015560e08201518160070160006101000a81548160ff02191690831515021790555050506020820151816008016000820151816000015560208201518160010155604082015181600201556060820151816003019080519060200190611e6f92919061361d565b506080820151816004019080519060200190611e8c92919061361d565b505050604082015181600d016000820151816000015560208201518160010155604082015181600201556060820151816003019080519060200190611ed292919061361d565b506080820151816004019080519060200190611eef92919061361d565b5050506060820151816012019080519060200190611f0e9291906136a3565b5060808201518160130160006101000a81548173ffffffffffffffffffffffffffffffffffffffff021916908373ffffffffffffffffffffffffffffffffffffffff16021790555060a0820151816014015560c0820151816015015560e082015181601601556101008201518160170160006101000a81548160ff0219169083151502179055506101208201518160170160016101000a81548160ff02191690831515021790555090505086975050505050505050919050565b6000600860008673ffffffffffffffffffffffffffffffffffffffff1673ffffffffffffffffffffffffffffffffffffffff168152602001908152602001600020905060005b81805490508110156121b9576001151560056000848481548110612035576120346147b0565b5b9060005260206000200154815260200190815260200160002060070160009054906101000a900460ff161515148061209f575043600560008484815481106120805761207f6147b0565b5b9060005260206000200154815260200190815260200160002060060154105b156121405781600183805490506120b691906147df565b815481106120c7576120c66147b0565b5b90600052602060002001548282815481106120e5576120e46147b0565b5b90600052602060002001819055508180548061210457612103614813565b5b60019003818190600052602060002001600090559055600081141561212c576000905061213b565b808061213790614842565b9150505b6121a6565b60056000838381548110612157576121566147b0565b5b90600052602060002001548152602001908152602001600020600501548514156121a5576121a4828281548110612191576121906147b0565b5b9060005260206000200154878686613099565b5b5b80806121b19061432c565b91505061200e565b505050505050565b600160009054906101000a900473ffffffffffffffffffffffffffffffffffffffff1681565b600c6020528060005260406000206000915054906101000a900460ff1681565b600e602052816000526040600020818154811061222357600080fd5b90600052602060002001600091509150505481565b60006009600081548092919061224d9061432c565b91905055506000600954905060001515600c600085815260200190815260200160002060009054906101000a900460ff161515146122c0576040517f08c379a00000000000000000000000000000000000000000000000000000000081526004016122b7906148b8565b60405180910390fd5b6000601060009054906101000a900473ffffffffffffffffffffffffffffffffffffffff16905060008173ffffffffffffffffffffffffffffffffffffffff166323374b9d866040518263ffffffff1660e01b81526004016123229190613bb2565b600060405180830381865afa15801561233f573d6000803e3d6000fd5b505050506040513d6000823e3d601f19601f820116820180604052508101906123689190614b44565b9050600115158161010001511515146123b6576040517f08c379a00000000000000000000000000000000000000000000000000000000081526004016123ad90614bd9565b60405180910390fd5b600115158160800151151514612401576040517f08c379a00000000000000000000000000000000000000000000000000000000081526004016123f890614c45565b60405180910390fd5b60006040518061010001604052808a8152602001898152602001878152602001600081526020013373ffffffffffffffffffffffffffffffffffffffff16815260200188815260200142815260200160011515815250905080600b6000868152602001908152602001600020600082015181600001908051906020019061248992919061361d565b5060208201518160010190805190602001906124a692919061361d565b50604082015181600201556060820151816003015560808201518160040160006101000a81548173ffffffffffffffffffffffffffffffffffffffff021916908373ffffffffffffffffffffffffffffffffffffffff16021790555060a082015181600501908051906020019061251e92919061361d565b5060c0820151816006015560e08201518160070160006101000a81548160ff021916908315150217905550905050600e60008581526020019081526020016000208690806001815401808255809150506001900390600052602060002001600090919091909150557f54759de35da3706adafb7ba0eea0b307160fc4576df0cddc11dd4b2ce1154558848a8a8960008c8760c001516040516125c69796959493929190614caa565b60405180910390a183945050505050949350505050565b601060009054906101000a900473ffffffffffffffffffffffffffffffffffffffff1673ffffffffffffffffffffffffffffffffffffffff163373ffffffffffffffffffffffffffffffffffffffff161461266d576040517f08c379a000000000000000000000000000000000000000000000000000000000815260040161266490614da0565b60405180910390fd5b600e60008381526020019081526020016000208190806001815401808255809150506001900390600052602060002001600090919091909150555050565b600b6020528060005260406000206000915090508060000180546126ce90614286565b80601f01602080910402602001604051908101604052809291908181526020018280546126fa90614286565b80156127475780601f1061271c57610100808354040283529160200191612747565b820191906000526020600020905b81548152906001019060200180831161272a57829003601f168201915b50505050509080600101805461275c90614286565b80601f016020809104026020016040519081016040528092919081815260200182805461278890614286565b80156127d55780601f106127aa576101008083540402835291602001916127d5565b820191906000526020600020905b8154815290600101906020018083116127b857829003601f168201915b5050505050908060020154908060030154908060040160009054906101000a900473ffffffffffffffffffffffffffffffffffffffff169080600501805461281c90614286565b80601f016020809104026020016040519081016040528092919081815260200182805461284890614286565b80156128955780601f1061286a57610100808354040283529160200191612895565b820191906000526020600020905b81548152906001019060200180831161287857829003601f168201915b5050505050908060060154908060070160009054906101000a900460ff16905088565b6000600115156005600084815260200190815260200160002060070160029054906101000a900460ff16151514612924576040517f08c379a000000000000000000000000000000000000000000000000000000000815260040161291b90614e0c565b60405180910390fd5b4360056000848152602001908152602001600020600601541061297c576040517f08c379a000000000000000000000000000000000000000000000000000000000815260040161297390614e78565b60405180910390fd5b600015156005600084815260200190815260200160002060070160009054906101000a900460ff161515146129e6576040517f08c379a00000000000000000000000000000000000000000000000000000000081526004016129dd90614ee4565b60405180910390fd5b60006005600084815260200190815260200160002090506000816001015490506000600160009054906101000a900473ffffffffffffffffffffffffffffffffffffffff16905060016005600087815260200190815260200160002060070160006101000a81548160ff0219169083151502179055506000821115612b285760008173ffffffffffffffffffffffffffffffffffffffff1663036c22ad85600501546040518263ffffffff1660e01b8152600401612aa49190613bb2565b602060405180830381865afa158015612ac1573d6000803e3d6000fd5b505050506040513d601f19601f82011682018060405250810190612ae591906145f4565b905060006064604283612af89190614f04565b612b029190614f8d565b905080841115612b1a57600195505050505050612b30565b600095505050505050612b30565b600093505050505b919050565b8133600115156005600084815260200190815260200160002060070160029054906101000a900460ff16151514612ba1576040517f08c379a0000000000000000000000000000000000000000000000000000000008152600401612b9890614e0c565b60405180910390fd5b43600560008481526020019081526020016000206006015411612bf9576040517f08c379a0000000000000000000000000000000000000000000000000000000008152600401612bf090614e78565b60405180910390fd5b600015156006600084815260200190815260200160002060008373ffffffffffffffffffffffffffffffffffffffff1673ffffffffffffffffffffffffffffffffffffffff16815260200190815260200160002060009054906101000a900460ff16151514612c9d576040517f08c379a0000000000000000000000000000000000000000000000000000000008152600401612c949061500a565b60405180910390fd5b836005600082815260200190815260200160002060070160019054906101000a900460ff1615612d7057600015156006600083815260200190815260200160002060003273ffffffffffffffffffffffffffffffffffffffff1673ffffffffffffffffffffffffffffffffffffffff16815260200190815260200160002060009054906101000a900460ff16151514612d6b576040517f08c379a0000000000000000000000000000000000000000000000000000000008152600401612d629061500a565b60405180910390fd5b612e16565b6005600082815260200190815260200160002060000160009054906101000a900473ffffffffffffffffffffffffffffffffffffffff1673ffffffffffffffffffffffffffffffffffffffff163273ffffffffffffffffffffffffffffffffffffffff161415612e15576040517f08c379a0000000000000000000000000000000000000000000000000000000008152600401612e0c90615076565b60405180910390fd5b5b612e21858532613266565b5050505050565b600360009054906101000a900473ffffffffffffffffffffffffffffffffffffffff1673ffffffffffffffffffffffffffffffffffffffff163373ffffffffffffffffffffffffffffffffffffffff1614612eb8576040517f08c379a0000000000000000000000000000000000000000000000000000000008152600401612eaf9061451c565b60405180910390fd5b80600160006101000a81548173ffffffffffffffffffffffffffffffffffffffff021916908373ffffffffffffffffffffffffffffffffffffffff16021790555050565b600060046000815480929190612f119061432c565b919050555060006040518061014001604052803273ffffffffffffffffffffffffffffffffffffffff1681526020016000815260200160008152602001600081526020016000815260200184815260200160005443612f709190615096565b815260200160001515815260200185151581526020016001151581525090508060056000600454815260200190815260200160002060008201518160000160006101000a81548173ffffffffffffffffffffffffffffffffffffffff021916908373ffffffffffffffffffffffffffffffffffffffff1602179055506020820151816001015560408201518160020155606082015181600301556080820151816004015560a0820151816005015560c0820151816006015560e08201518160070160006101000a81548160ff0219169083151502179055506101008201518160070160016101000a81548160ff0219169083151502179055506101208201518160070160026101000a81548160ff02191690831515021790555090505060045491505092915050565b600115156006600086815260200190815260200160002060008573ffffffffffffffffffffffffffffffffffffffff1673ffffffffffffffffffffffffffffffffffffffff16815260200190815260200160002060009054906101000a900460ff1615151461313d576040517f08c379a00000000000000000000000000000000000000000000000000000000081526004016131349061515e565b60405180910390fd5b60006007600086815260200190815260200160002060008573ffffffffffffffffffffffffffffffffffffffff1673ffffffffffffffffffffffffffffffffffffffff16815260200190815260200160002060009054906101000a900460ff169050801561320457826005600087815260200190815260200160002060010160008282546131cb91906147df565b92505081905550816005600087815260200190815260200160002060010160008282546131f89190615096565b9250508190555061325f565b8260056000878152602001908152602001600020600301600082825461322a91906147df565b92505081905550816005600087815260200190815260200160002060030160008282546132579190615096565b925050819055505b5050505050565b6000600160009054906101000a900473ffffffffffffffffffffffffffffffffffffffff169050600060056000868152602001908152602001600020604051806101400160405290816000820160009054906101000a900473ffffffffffffffffffffffffffffffffffffffff1673ffffffffffffffffffffffffffffffffffffffff1673ffffffffffffffffffffffffffffffffffffffff1681526020016001820154815260200160028201548152602001600382015481526020016004820154815260200160058201548152602001600682015481526020016007820160009054906101000a900460ff161515151581526020016007820160019054906101000a900460ff161515151581526020016007820160029054906101000a900460ff161515151581525050905060008273ffffffffffffffffffffffffffffffffffffffff1662fdd58e858460a001516040518363ffffffff1660e01b81526004016133d392919061517e565b602060405180830381865afa1580156133f0573d6000803e3d6000fd5b505050506040513d601f19601f8201168201806040525081019061341491906145f4565b9050841561347c57806005600088815260200190815260200160002060010160008282546134429190615096565b9250508190555060016005600088815260200190815260200160002060020160008282546134709190615096565b925050819055506134d8565b806005600088815260200190815260200160002060030160008282546134a29190615096565b9250508190555060016005600088815260200190815260200160002060040160008282546134d09190615096565b925050819055505b60016006600088815260200190815260200160002060008673ffffffffffffffffffffffffffffffffffffffff1673ffffffffffffffffffffffffffffffffffffffff16815260200190815260200160002060006101000a81548160ff021916908315150217905550846007600088815260200190815260200160002060008673ffffffffffffffffffffffffffffffffffffffff1673ffffffffffffffffffffffffffffffffffffffff16815260200190815260200160002060006101000a81548160ff0219169083151502179055506000600860008673ffffffffffffffffffffffffffffffffffffffff1673ffffffffffffffffffffffffffffffffffffffff16815260200190815260200160002090508087908060018154018082558091505060019003906000526020600020016000909190919091505550505050505050565b82805461362990614286565b90600052602060002090601f01602090048101928261364b5760008555613692565b82601f1061366457805160ff1916838001178555613692565b82800160010185558215613692579182015b82811115613691578251825591602001919060010190613676565b5b50905061369f91906136f0565b5090565b8280548282559060005260206000209081019282156136df579160200282015b828111156136de5782518255916020019190600101906136c3565b5b5090506136ec91906136f0565b5090565b5b808211156137095760008160009055506001016136f1565b5090565b6000604051905090565b600080fd5b600080fd5b6000819050919050565b61373481613721565b811461373f57600080fd5b50565b6000813590506137518161372b565b92915050565b60006020828403121561376d5761376c613717565b5b600061377b84828501613742565b91505092915050565b600073ffffffffffffffffffffffffffffffffffffffff82169050919050565b60006137af82613784565b9050919050565b6137bf816137a4565b82525050565b60006020820190506137da60008301846137b6565b92915050565b60008115159050919050565b6137f5816137e0565b811461380057600080fd5b50565b600081359050613812816137ec565b92915050565b6000806040838503121561382f5761382e613717565b5b600061383d85828601613742565b925050602061384e85828601613803565b9150509250929050565b613861816137a4565b811461386c57600080fd5b50565b60008135905061387e81613858565b92915050565b60006020828403121561389a57613899613717565b5b60006138a88482850161386f565b91505092915050565b600081519050919050565b600082825260208201905092915050565b60005b838110156138eb5780820151818401526020810190506138d0565b838111156138fa576000848401525b50505050565b6000601f19601f8301169050919050565b600061391c826138b1565b61392681856138bc565b93506139368185602086016138cd565b61393f81613900565b840191505092915050565b61395381613721565b82525050565b613962816137a4565b82525050565b613971816137e0565b82525050565b60006101008301600083015184820360008601526139958282613911565b915050602083015184820360208601526139af8282613911565b91505060408301516139c4604086018261394a565b5060608301516139d7606086018261394a565b5060808301516139ea6080860182613959565b5060a083015184820360a0860152613a028282613911565b91505060c0830151613a1760c086018261394a565b5060e0830151613a2a60e0860182613968565b508091505092915050565b600060a083016000830151613a4d600086018261394a565b506020830151613a60602086018261394a565b506040830151613a73604086018261394a565b5060608301518482036060860152613a8b8282613911565b91505060808301518482036080860152613aa58282613911565b9150508091505092915050565b613abb81613721565b82525050565b613aca816137e0565b82525050565b6000610120820190508181036000830152613aeb818c613977565b90508181036020830152613aff818b613a35565b90508181036040830152613b13818a613a35565b9050613b2260608301896137b6565b613b2f6080830188613ab2565b613b3c60a0830187613ab2565b613b4960c0830186613ab2565b613b5660e0830185613ac1565b613b64610100830184613ac1565b9a9950505050505050505050565b60008060408385031215613b8957613b88613717565b5b6000613b9785828601613742565b9250506020613ba885828601613742565b9150509250929050565b6000602082019050613bc76000830184613ab2565b92915050565b600080fd5b7f4e487b7100000000000000000000000000000000000000000000000000000000600052604160045260246000fd5b613c0a82613900565b810181811067ffffffffffffffff82111715613c2957613c28613bd2565b5b80604052505050565b6000613c3c61370d565b9050613c488282613c01565b919050565b600080fd5b600080fd5b600080fd5b600067ffffffffffffffff821115613c7757613c76613bd2565b5b613c8082613900565b9050602081019050919050565b82818337600083830152505050565b6000613caf613caa84613c5c565b613c32565b905082815260208101848484011115613ccb57613cca613c57565b5b613cd6848285613c8d565b509392505050565b600082601f830112613cf357613cf2613c52565b5b8135613d03848260208601613c9c565b91505092915050565b600067ffffffffffffffff821115613d2757613d26613bd2565b5b602082029050602081019050919050565b600080fd5b6000613d50613d4b84613d0c565b613c32565b90508083825260208201905060208402830185811115613d7357613d72613d38565b5b835b81811015613d9c5780613d888882613742565b845260208401935050602081019050613d75565b5050509392505050565b600082601f830112613dbb57613dba613c52565b5b8135613dcb848260208601613d3d565b91505092915050565b600060a08284031215613dea57613de9613bcd565b5b613df460a0613c32565b90506000613e0484828501613742565b6000830152506020613e1884828501613742565b6020830152506040613e2c84828501613742565b604083015250606082013567ffffffffffffffff811115613e5057613e4f613c4d565b5b613e5c84828501613cde565b606083015250608082013567ffffffffffffffff811115613e8057613e7f613c4d565b5b613e8c84828501613cde565b60808301525092915050565b600060e08284031215613eae57613ead613bcd565b5b613eb860e0613c32565b9050600082013567ffffffffffffffff811115613ed857613ed7613c4d565b5b613ee484828501613cde565b600083015250602082013567ffffffffffffffff811115613f0857613f07613c4d565b5b613f1484828501613cde565b602083015250604082013567ffffffffffffffff811115613f3857613f37613c4d565b5b613f4484828501613cde565b6040830152506060613f5884828501613742565b606083015250608082013567ffffffffffffffff811115613f7c57613f7b613c4d565b5b613f8884828501613da6565b60808301525060a082013567ffffffffffffffff811115613fac57613fab613c4d565b5b613fb884828501613dd4565b60a08301525060c082013567ffffffffffffffff811115613fdc57613fdb613c4d565b5b613fe884828501613dd4565b60c08301525092915050565b60006020828403121561400a57614009613717565b5b600082013567ffffffffffffffff8111156140285761402761371c565b5b61403484828501613e98565b91505092915050565b6000806000806080858703121561405757614056613717565b5b60006140658782880161386f565b945050602061407687828801613742565b935050604061408787828801613742565b925050606061409887828801613742565b91505092959194509250565b60006020820190506140b96000830184613ac1565b92915050565b600080600080608085870312156140d9576140d8613717565b5b600085013567ffffffffffffffff8111156140f7576140f661371c565b5b61410387828801613cde565b945050602085013567ffffffffffffffff8111156141245761412361371c565b5b61413087828801613cde565b935050604085013567ffffffffffffffff8111156141515761415061371c565b5b61415d87828801613cde565b925050606061416e87828801613742565b91505092959194509250565b600082825260208201905092915050565b6000614196826138b1565b6141a0818561417a565b93506141b08185602086016138cd565b6141b981613900565b840191505092915050565b60006101008201905081810360008301526141df818b61418b565b905081810360208301526141f3818a61418b565b90506142026040830189613ab2565b61420f6060830188613ab2565b61421c60808301876137b6565b81810360a083015261422e818661418b565b905061423d60c0830185613ab2565b61424a60e0830184613ac1565b9998505050505050505050565b7f4e487b7100000000000000000000000000000000000000000000000000000000600052602260045260246000fd5b6000600282049050600182168061429e57607f821691505b602082108114156142b2576142b1614257565b5b50919050565b60006080820190506142cd6000830187613ab2565b6142da6020830186613ab2565b6142e76040830185613ab2565b6142f46060830184613ac1565b95945050505050565b7f4e487b7100000000000000000000000000000000000000000000000000000000600052601160045260246000fd5b600061433782613721565b91507fffffffffffffffffffffffffffffffffffffffffffffffffffffffffffffffff82141561436a576143696142fd565b5b600182019050919050565b600060e08201905061438a600083018a613ab2565b818103602083015261439c818961418b565b905081810360408301526143b0818861418b565b90506143bf6060830187613ab2565b6143cc6080830186613ab2565b81810360a08301526143de818561418b565b90506143ed60c0830184613ab2565b98975050505050505050565b7f494e56414c49443a20494e56414c49445f56455253494f4e5f5245515f494400600082015250565b600061442f601f8361417a565b915061443a826143f9565b602082019050919050565b6000602082019050818103600083015261445e81614422565b9050919050565b600060808201905061447a60008301876137b6565b6144876020830186613ab2565b6144946040830185613ab2565b6144a16060830184613ac1565b95945050505050565b7f554e415554484f52495a45443a2043414e4e4f545f504552464f524d5f41435460008201527f494f4e0000000000000000000000000000000000000000000000000000000000602082015250565b600061450660238361417a565b9150614511826144aa565b604082019050919050565b60006020820190508181036000830152614535816144f9565b9050919050565b7f494e56414c49443a205245434f52445f4e4f545f464f554e4400000000000000600082015250565b600061457260198361417a565b915061457d8261453c565b602082019050919050565b600060208201905081810360008301526145a181614565565b9050919050565b600060408201905081810360008301526145c2818561418b565b905081810360208301526145d6818461418b565b90509392505050565b6000815190506145ee8161372b565b92915050565b60006020828403121561460a57614609613717565b5b6000614618848285016145df565b91505092915050565b600081519050919050565b600082825260208201905092915050565b6000819050602082019050919050565b6000614659838361394a565b60208301905092915050565b6000602082019050919050565b600061467d82614621565b614687818561462c565b93506146928361463d565b8060005b838110156146c35781516146aa888261464d565b97506146b583614665565b925050600181019050614696565b5085935050505092915050565b6000610120820190506146e6600083018c613ab2565b81810360208301526146f8818b613977565b9050818103604083015261470c818a613a35565b905081810360608301526147208189613a35565b905081810360808301526147348188614672565b905061474360a08301876137b6565b61475060c0830186613ab2565b61475d60e0830185613ab2565b61476b610100830184613ab2565b9a9950505050505050505050565b600060608201905061478e60008301866137b6565b61479b6020830185613ab2565b6147a86040830184613ab2565b949350505050565b7f4e487b7100000000000000000000000000000000000000000000000000000000600052603260045260246000fd5b60006147ea82613721565b91506147f583613721565b925082821015614808576148076142fd565b5b828203905092915050565b7f4e487b7100000000000000000000000000000000000000000000000000000000600052603160045260246000fd5b600061484d82613721565b91506000821415614861576148606142fd565b5b600182039050919050565b7f494e56414c49443a20534545445f414c52454144595f55534544000000000000600082015250565b60006148a2601a8361417a565b91506148ad8261486c565b602082019050919050565b600060208201905081810360008301526148d181614895565b9050919050565b60006148eb6148e684613d0c565b613c32565b9050808382526020820190506020840283018581111561490e5761490d613d38565b5b835b81811015614937578061492388826145df565b845260208401935050602081019050614910565b5050509392505050565b600082601f83011261495657614955613c52565b5b81516149668482602086016148d8565b91505092915050565b600061498261497d84613c5c565b613c32565b90508281526020810184848401111561499e5761499d613c57565b5b6149a98482856138cd565b509392505050565b600082601f8301126149c6576149c5613c52565b5b81516149d684826020860161496f565b91505092915050565b6000815190506149ee816137ec565b92915050565b60006101208284031215614a0b57614a0a613bcd565b5b614a16610120613c32565b9050600082015167ffffffffffffffff811115614a3657614a35613c4d565b5b614a4284828501614941565b6000830152506020614a56848285016145df565b602083015250604082015167ffffffffffffffff811115614a7a57614a79613c4d565b5b614a86848285016149b1565b604083015250606082015167ffffffffffffffff811115614aaa57614aa9613c4d565b5b614ab6848285016149b1565b6060830152506080614aca848285016149df565b60808301525060a0614ade848285016149df565b60a08301525060c0614af2848285016145df565b60c08301525060e082015167ffffffffffffffff811115614b1657614b15613c4d565b5b614b22848285016149b1565b60e083015250610100614b37848285016149df565b6101008301525092915050565b600060208284031215614b5a57614b59613717565b5b600082015167ffffffffffffffff811115614b7857614b7761371c565b5b614b84848285016149f4565b91505092915050565b7f494e56414c49443a20434f4e545249425554494f4e5f4e4f545f464f554e4400600082015250565b6000614bc3601f8361417a565b9150614bce82614b8d565b602082019050919050565b60006020820190508181036000830152614bf281614bb6565b9050919050565b7f494e56414c49443a204e4f545f534545445f434f4e545249425554494f4e0000600082015250565b6000614c2f601e8361417a565b9150614c3a82614bf9565b602082019050919050565b60006020820190508181036000830152614c5e81614c22565b9050919050565b6000819050919050565b6000819050919050565b6000614c94614c8f614c8a84614c65565b614c6f565b613721565b9050919050565b614ca481614c79565b82525050565b600060e082019050614cbf600083018a613ab2565b8181036020830152614cd1818961418b565b90508181036040830152614ce5818861418b565b9050614cf46060830187613ab2565b614d016080830186614c9b565b81810360a0830152614d13818561418b565b9050614d2260c0830184613ab2565b98975050505050505050565b7f554e415554484f52495a45443a204f4e4c595f434f4e545249425554494f4e5f60008201527f434f4e5452414354000000000000000000000000000000000000000000000000602082015250565b6000614d8a60288361417a565b9150614d9582614d2e565b604082019050919050565b60006020820190508181036000830152614db981614d7d565b9050919050565b7f494e56414c49443a2042414c4c4f545f4e4f545f464f554e4400000000000000600082015250565b6000614df660198361417a565b9150614e0182614dc0565b602082019050919050565b60006020820190508181036000830152614e2581614de9565b9050919050565b7f494e56414c49443a20564f54494e475f54494d455f4f56455200000000000000600082015250565b6000614e6260198361417a565b9150614e6d82614e2c565b602082019050919050565b60006020820190508181036000830152614e9181614e55565b9050919050565b7f494e56414c49443a20524553554c545f414c52454144595f4445434c41524544600082015250565b6000614ece60208361417a565b9150614ed982614e98565b602082019050919050565b60006020820190508181036000830152614efd81614ec1565b9050919050565b6000614f0f82613721565b9150614f1a83613721565b9250817fffffffffffffffffffffffffffffffffffffffffffffffffffffffffffffffff0483118215151615614f5357614f526142fd565b5b828202905092915050565b7f4e487b7100000000000000000000000000000000000000000000000000000000600052601260045260246000fd5b6000614f9882613721565b9150614fa383613721565b925082614fb357614fb2614f5e565b5b828204905092915050565b7f494e56414c49443a20414c52454144595f564f54454400000000000000000000600082015250565b6000614ff460168361417a565b9150614fff82614fbe565b602082019050919050565b6000602082019050818103600083015261502381614fe7565b9050919050565b7f554e415554484f52495a45443a204f574e45525f43414e4e4f545f564f544500600082015250565b6000615060601f8361417a565b915061506b8261502a565b602082019050919050565b6000602082019050818103600083015261508f81615053565b9050919050565b60006150a182613721565b91506150ac83613721565b9250827fffffffffffffffffffffffffffffffffffffffffffffffffffffffffffffffff038211156150e1576150e06142fd565b5b828201905092915050565b7f494e56414c49443a20494e5445524e414c3a20555345525f4841535f4e4f545f60008201527f564f544544000000000000000000000000000000000000000000000000000000602082015250565b600061514860258361417a565b9150615153826150ec565b604082019050919050565b600060208201905081810360008301526151778161513b565b9050919050565b600060408201905061519360008301856137b6565b6151a06020830184613ab2565b939250505056fea26469706673582212202139c0a94377276fa8664051dde6a78faac8c7aa9611fb7a4cf0fdb4b8a62fb464736f6c634300080c0033",
  "immutableReferences": {},
  "source": "pragma solidity ^0.8.0;\n\nimport \"@openzeppelin/contracts/token/ERC1155/extensions/ERC1155Supply.sol\";\nimport \"@openzeppelin/contracts/utils/Counters.sol\";\nimport \"@openzeppelin/contracts/access/Ownable.sol\";\nimport \"./interface/IContribution.sol\";\nimport \"./Voting/BaseVotingContract.sol\";\nimport \"./interface/ITreasury.sol\";\nimport \"./interface/ITreasuryCore.sol\";\n\ncontract RecordsContract is BaseVotingContract {\n    uint256 newTokenId = 0;\n    uint256 newVersionRequestId = 0;\n\n    // This mapping contains data of record\n    mapping(uint256 => RecordStruct) public recordData;\n    // This mapping contains if seed data id is being used or not\n    // Same shouldn't be used to create 2 different records, unless the other record is a different\n    // version of existing record\n    mapping(uint256 => bool) public seedIdUsed;\n\n    //This is mapping that holds the listing of versions that are created from a original record\n    mapping(uint256 => uint256[]) public recordVersion;\n\n    // This mapping will hold the list of contributions that are linked to a specific record\n    mapping(uint256 => uint256[]) public recordContributions;\n\n    // This mapping holds the data of new record version requests\n    mapping(uint256 => NewVersionRequest) public newVersionRequestMap;\n\n    // Address of the contribution contracts\n    address public CONTRIBUTION_CONTRACT_ADDRESS;\n\n    // Address of the treasury core contracts\n    address public TREASURY_CORE_CONTRACT_ADDRESS;\n\n    /// @dev This struct holds the data for record token\n    /// @param name Name of the record\n    /// @param image This is the image of the record\n    /// @param seedId This is the seed contribution id\n    /// @param parentId This is the id of the parent record from which record is created\n    /// @param owner Address of the owner\n    /// @param recordCategory This is the record category\n    /// @param creationDate This is the creation date of the record\n    struct RecordStruct {\n        string name;\n        string image;\n        uint256 seedId;\n        uint256 parentId;\n        address owner;\n        string recordCategory;\n        uint256 creationDate;\n        bool isPresent;\n    }\n\n    /// @dev This is the token data for new version of record\n    /// @param totalSupply This is the total amount of tokens that will be created\n    /// @param oldContributorShare This is the amount of token that will be distributed among the previous record owners\n    /// @param userBalance Amount of tokens that user will keep to himself\n    /// @param symbol Symbol for the token\n    /// @param image Image for the token\n    struct NewVersionTokenStruct {\n        uint256 totalSupply;\n        uint256 oldContributorShare;\n        uint256 userBalance;\n        string symbol;\n        string image;\n    }\n\n    /// @dev This struct holds the data for new record version request\n    /// @param recordData Data for the new record\n    /// @param governanceToken New token data for governance token\n    /// @param communityToken New token data for community token\n    /// @param requester Owner of the request\n    /// @param oldVersionId Record id of old version\n    /// @param tokenId id of the token which will be used for voting\n    /// @param ballotId Id of the voting ballot\n    /// @param isPresent This is to check if the request with id is present or not\n    /// @param isAccepted The is the status of record that is accepted or not\n    struct NewVersionRequest {\n        RecordStruct recordData;\n        NewVersionTokenStruct governanceToken;\n        NewVersionTokenStruct communityToken;\n        uint256[] contributionIds;\n        address requester;\n        uint256 oldVersionId;\n        uint256 tokenId;\n        uint256 ballotId;\n        bool isPresent;\n        bool isAccepted;\n    }\n\n    /// @dev This event is emited when new record is created\n    /// @param recordId This is the recordId\n    /// @param name Name of the record\n    /// @param image This is the image of the record\n    /// @param seedId This is the seed contribution id\n    /// @param parentId This is the id of the parent record from which record is created\n    /// @param recordCategory This is the record category\n    /// @param creationDate This is the creation date of the record\n    event RecordCreated(\n        uint256 recordId,\n        string name,\n        string image,\n        uint256 seedId,\n        uint256 parentId,\n        string recordCategory,\n        uint256 creationDate\n    );\n\n    /// @dev This event is generated when New Record Version is created\n    /// @param requestId This is the id of the new record version request\n    /// @param recordData Data for the new record\n    /// @param governanceToken New token data for governance token\n    /// @param communityToken New token data for community token\n    /// @param requester Owner of the request\n    /// @param oldVersionId Record id of old version\n    /// @param tokenId id of the token which will be used for voting\n    /// @param ballotId Id of the voting ballot\n    event VersionRequest(\n        uint256 requestId,\n        RecordStruct recordData,\n        NewVersionTokenStruct governanceToken,\n        NewVersionTokenStruct communityToken,\n        uint256[] contributionIds,\n        address requester,\n        uint256 oldVersionId,\n        uint256 tokenId,\n        uint256 ballotId\n    );\n\n    /// @dev This is when a vote is given by user.\n    /// @param voter Address of the voter\n    /// @param versionRequestId This is the id of the recordVersionRequest structure that is linked to this ballot\n    /// @param ballotId Id of the ballot where voting is stored\n    /// @param vote State of vote : true for yes and false for No\n    event NewVersionVoting(\n        address voter,\n        uint256 versionRequestId,\n        uint256 ballotId,\n        bool vote\n    );\n\n    /// @dev This is emitted when a voting ballot is created\n    /// @param requester Address of the requester\n    /// @param versionRequestId This is the id of the recordVersionRequest structure that is linked to this ballot\n    /// @param ballotId Id of the ballot where voting is stored\n    event NewVersionVotingBallotCreated(\n        address requester,\n        uint256 versionRequestId,\n        uint256 ballotId\n    );\n\n    /// @dev this event is generated when result of a ballot is declared\n    /// @param versionReqId This is the id of newVersionRequest\n    /// @param tokenId This is the id of the token that is linked to this ballot\n    /// @param ballotId this is the ballot Id for which result is declared\n    /// @param result this is the status of the result\n    event NewVersionRequestResult(\n        uint256 versionReqId,\n        uint256 tokenId,\n        uint256 ballotId,\n        bool result\n    );\n\n    //------------------------------\n    struct NewVersionTokenDistributionStruct {\n        uint256 totalSupplyEther;\n        uint256 royaltyAmountWei;\n        uint256 versionRequestId;\n        uint256 tokenId;\n        uint256 rewardTokenId;\n        uint256 royaltyPerTokenWei;\n        uint256 snapshotId;\n    }\n\n    event NewVersionTokenDistribution(\n        uint256 versionRequestId,\n        uint256 totalSupplyEther,\n        uint256 royaltyAmountWei,\n        uint256 tokenId,\n        uint256 rewardTokenId,\n        uint256 royaltyPerTokenWei,\n        uint256 snapshotId\n    );\n\n    event NewTokenClaimed(\n        uint256 versionRequestId,\n        uint256 recordId,\n        uint256 rewardAmount,\n        address userAddress\n    );\n\n    // newVersionRequestId => tokenData\n    mapping(uint256 => NewVersionTokenDistributionStruct) newVersionGovTokenDistributionMapping;\n\n    mapping(uint256 => NewVersionTokenDistributionStruct) newVersionCommTokenDistributionMapping;\n\n    //------------------------------\n\n    constructor(address owner) BaseVotingContract(owner) {}\n\n    /// @dev Modifier to check that the function is only being called from the contribution contract\n    modifier onlyContributionContract() {\n        require(\n            msg.sender == CONTRIBUTION_CONTRACT_ADDRESS,\n            \"UNAUTHORIZED: ONLY_CONTRIBUTION_CONTRACT\"\n        );\n        _;\n    }\n\n    /// @dev This function sets the contribution Contract address\n    /// @param contributionContractAddress Takes the address of new contribution contract as parameter\n    function setContributionContractAddress(address contributionContractAddress)\n        public\n        _ownerOnly\n    {\n        CONTRIBUTION_CONTRACT_ADDRESS = contributionContractAddress;\n    }\n\n    /// @dev This function sets the Treasury Contract address\n    /// @param treasuryContractAddress Takes the address of new contribution contract as parameter\n    function setTreasuryContractAddress(address treasuryContractAddress)\n        public\n        _ownerOnly\n    {\n        _setTreasuryContractAddress(treasuryContractAddress);\n    }\n\n    /// @dev This function creates new record\n    /// @param name This is the name of the record\n    /// @param image This is the image/logo of the record\n    /// @param recordCategory This is the category to which record belongs\n    /// @param seedId This is the seed contribution id\n    function createNewRecord(\n        string memory name,\n        string memory image,\n        string memory recordCategory,\n        uint256 seedId\n    ) public returns (uint256 recordId) {\n        newTokenId++;\n        uint256 recordId = newTokenId;\n\n        require(seedIdUsed[seedId] == false, \"INVALID: SEED_ALREADY_USED\");\n\n        IContribution contributionContract = IContribution(\n            CONTRIBUTION_CONTRACT_ADDRESS\n        );\n\n        IContribution.Contribution memory contribution = contributionContract\n            .getContributionData(seedId);\n\n        require(\n            contribution.isPresent == true,\n            \"INVALID: CONTRIBUTION_NOT_FOUND\"\n        );\n\n        require(\n            contribution.seedContribution == true,\n            \"INVALID: NOT_SEED_CONTRIBUTION\"\n        );\n\n        RecordStruct memory recordStruct = RecordStruct({\n            name: name,\n            image: image,\n            seedId: seedId,\n            parentId: 0,\n            owner: msg.sender,\n            recordCategory: recordCategory,\n            creationDate: block.timestamp,\n            isPresent: true\n        });\n\n        recordData[recordId] = recordStruct;\n        recordContributions[recordId].push(seedId);\n\n        emit RecordCreated({\n            recordId: recordId,\n            name: name,\n            image: image,\n            seedId: seedId,\n            parentId: 0,\n            recordCategory: recordCategory,\n            creationDate: recordStruct.creationDate\n        });\n\n        return (recordId);\n    }\n\n    /// @dev This function pushes a contribution into the array of the record\n    /// @param recordId This is the recordId to which contribution is to be added\n    /// @param contributionId This is the contribution id to push in array\n    function pushContributionIdToContributionList(\n        uint256 recordId,\n        uint256 contributionId\n    ) external onlyContributionContract {\n        recordContributions[recordId].push(contributionId);\n    }\n\n    /// @dev This function return the address of record owner\n    /// @param recordId This is the recordId whose owner you want\n    function ownerOf(uint256 recordId) external returns (address) {\n        return recordData[recordId].owner;\n    }\n\n    /// @dev This struct holds the required data for new version creation\n    /// @param name Name of the new record\n    /// @param image Cover photo of record\n    /// @param recordCategory string category of record\n    /// @param oldRecordId old record id\n    /// @param contributionIds list of contribution that are part of the new version\n    /// @param governanceToken this contains governance token details for new version of record\n    /// @param communityToken this contains community token details for new version of record\n    struct NewRecordVersionParams {\n        string name;\n        string image;\n        string recordCategory;\n        uint256 oldRecordId;\n        uint256[] contributionIds;\n        NewVersionTokenStruct governanceToken;\n        NewVersionTokenStruct communityToken;\n    }\n\n    /// @dev This function will create new record version from existing record\n    /// @param params required data for creation of new record version\n    function createNewRecordVersion(NewRecordVersionParams memory params)\n        public\n        returns (uint256)\n    {\n        newTokenId++;\n        uint256 recordId = newTokenId;\n        newVersionRequestId++;\n        uint256 versionReqId = newVersionRequestId;\n\n        require(\n            recordData[params.oldRecordId].isPresent == true,\n            \"INVALID: RECORD_NOT_FOUND\"\n        );\n\n        RecordStruct memory sourceVersion = recordData[params.oldRecordId];\n        RecordStruct memory recordStruct = RecordStruct({\n            name: params.name,\n            image: params.image,\n            seedId: sourceVersion.seedId,\n            parentId: params.oldRecordId,\n            owner: msg.sender,\n            recordCategory: params.recordCategory,\n            creationDate: block.timestamp,\n            isPresent: true\n        });\n\n        // create new version,\n        // take existing records id,\n        // The seed will stay same\n        // The contributions id is selected by user,\n        // push contribution ids\n        // push version id\n        // create voting for the token distribution,\n        // book both of the token symbol treasury\n        // wait for result - generate tokens\n\n        ITreasury treasury = ITreasury(TREASURY_CONTRACT_ADDRESS);\n        treasury.setSymbolsAsUsed(\n            params.governanceToken.symbol,\n            params.communityToken.symbol\n        );\n\n        uint256 ballotId = _createVoting(\n            false,\n            treasury.getCommunityTokenId(params.oldRecordId)\n        );\n        NewVersionRequest memory newVersionRequest = NewVersionRequest({\n            recordData: recordStruct,\n            governanceToken: params.governanceToken,\n            communityToken: params.communityToken,\n            contributionIds: params.contributionIds,\n            requester: msg.sender,\n            oldVersionId: params.oldRecordId,\n            tokenId: treasury.getCommunityTokenId(params.oldRecordId),\n            ballotId: ballotId,\n            isPresent: true,\n            isAccepted: false\n        });\n\n        emit VersionRequest(\n            versionReqId,\n            recordStruct,\n            params.governanceToken,\n            params.communityToken,\n            params.contributionIds,\n            msg.sender,\n            params.oldRecordId,\n            newVersionRequest.ballotId,\n            newVersionRequest.oldVersionId\n        );\n\n        emit NewVersionVotingBallotCreated(msg.sender, versionReqId, ballotId);\n\n        newVersionRequestMap[versionReqId] = newVersionRequest;\n\n        return (recordId);\n    }\n\n    /// @dev This function is called by any user to cast vote\n    /// @param versionReqId this is the id of the new version request for which user is voting\n    /// @param vote this is the state of the vote, if true than it means the vote is in favour of the ballot\n    function castVote(uint256 versionReqId, bool vote) public {\n        require(\n            newVersionRequestMap[versionReqId].isPresent == true,\n            \"INVALID: INVALID_VERSION_REQ_ID\"\n        );\n\n        emit NewVersionVoting({\n            versionRequestId: versionReqId,\n            ballotId: newVersionRequestMap[versionReqId].ballotId,\n            voter: msg.sender,\n            vote: vote\n        });\n\n        super._castVote(versionReqId, vote);\n    }\n\n    /// @dev This function can be called from external source and also from within the contract\n    /// @param versionReqId this is the id of the new version request to which the winner is to be declared\n    function declareWinner(uint256 versionReqId) external {\n        NewVersionRequest memory req = newVersionRequestMap[versionReqId];\n        bool result = _declareWinner(req.ballotId);\n\n        emit NewVersionRequestResult({\n            versionReqId: versionReqId,\n            tokenId: req.tokenId,\n            ballotId: req.ballotId,\n            result: result\n        });\n\n        if (result) {\n            newTokenId++;\n            uint256 recordId = newTokenId;\n            ITreasury treasuryContract = ITreasury(TREASURY_CONTRACT_ADDRESS);\n            recordData[recordId] = req.recordData;\n            recordContributions[recordId] = req.contributionIds;\n            recordContributions[recordId].push(req.recordData.seedId);\n            recordVersion[req.oldVersionId].push(recordId);\n            emit RecordCreated({\n                recordId: recordId,\n                name: req.recordData.name,\n                image: req.recordData.image,\n                seedId: req.recordData.seedId,\n                parentId: req.recordData.parentId,\n                recordCategory: req.recordData.recordCategory,\n                creationDate: req.recordData.creationDate\n            });\n            // create new version and set the rewards for all the user\n            newVersionRequestMap[versionReqId].isAccepted = true;\n            //! Consuming all the gas.\n            // createToken(\n            //     req.governanceToken,\n            //     recordId,\n            //     treasuryContract.getCommunityTokenId(req.oldVersionId),\n            //     versionReqId,\n            //     true\n            // );\n        } else {\n            newVersionRequestMap[versionReqId].isAccepted = false;\n        }\n    }\n\n    function createToken(\n        NewVersionTokenStruct memory tokenData,\n        uint256 newRecordId,\n        uint256 decidingTokenId,\n        uint256 versionReqId,\n        bool isGovernanceToken\n    ) internal {\n        ITreasury treasuryContract = ITreasury(TREASURY_CONTRACT_ADDRESS);\n\n        uint256 tokenId = decidingTokenId;\n        uint256 totalSupply = treasuryContract.totalCirculatingSupply(tokenId);\n\n        uint256 newTokenId;\n        if (isGovernanceToken) {\n            newTokenId = treasuryContract.createNewGovernanceToken(\n                newRecordId,\n                tokenData.totalSupply,\n                tokenData.userBalance,\n                tokenData.symbol,\n                tokenData.image\n            );\n        } else {\n            newTokenId = treasuryContract.createNewGovernanceToken(\n                newRecordId,\n                tokenData.totalSupply,\n                tokenData.userBalance,\n                tokenData.symbol,\n                tokenData.image\n            );\n        }\n\n        ITreasuryCore treasuryCoreContract = ITreasuryCore(\n            TREASURY_CORE_CONTRACT_ADDRESS\n        );\n        treasuryCoreContract.safeTransferFrom(\n            msg.sender,\n            address(this),\n            newTokenId,\n            tokenData.oldContributorShare,\n            \"RECORD_TOKEN_TRANSFER\"\n        );\n\n        NewVersionTokenDistributionStruct\n            memory newVersionToken = NewVersionTokenDistributionStruct({\n                totalSupplyEther: totalSupply / 1 ether,\n                royaltyAmountWei: tokenData.oldContributorShare,\n                versionRequestId: versionReqId,\n                tokenId: tokenId,\n                rewardTokenId: newTokenId,\n                royaltyPerTokenWei: tokenData.oldContributorShare /\n                    (totalSupply / 1 ether),\n                snapshotId: treasuryContract.snapshot()\n            });\n\n        require(\n            newVersionToken.royaltyPerTokenWei > 0,\n            \"INSUFFICIENT_AMOUNT: NEED_GREATER_AMOUNT\"\n        );\n\n        emit NewVersionTokenDistribution({\n            versionRequestId: versionReqId,\n            totalSupplyEther: newVersionToken.totalSupplyEther,\n            royaltyAmountWei: newVersionToken.royaltyAmountWei,\n            tokenId: newVersionToken.tokenId,\n            rewardTokenId: newTokenId,\n            royaltyPerTokenWei: newVersionToken.royaltyPerTokenWei,\n            snapshotId: newVersionToken.snapshotId\n        });\n\n        newVersionGovTokenDistributionMapping[versionReqId] = newVersionToken;\n    }\n}\n",
  "sourcePath": "/Users/a1/Desktop/Office/projects/CrowdRecords/Contracts/contracts/RecordsContract.sol",
  "compiler": {
    "name": "solc",
    "version": "0.8.12+commit.f00d7308.Emscripten.clang"
  },
  "schemaVersion": "3.4.6",
  "updatedAt": "2022-09-27T05:37:28.493Z",
  "devdoc": {
    "events": {
      "NewVersionRequestResult(uint256,uint256,uint256,bool)": {
        "details": "this event is generated when result of a ballot is declared",
        "params": {
          "ballotId": "this is the ballot Id for which result is declared",
          "result": "this is the status of the result",
          "tokenId": "This is the id of the token that is linked to this ballot",
          "versionReqId": "This is the id of newVersionRequest"
        }
      },
      "NewVersionVoting(address,uint256,uint256,bool)": {
        "details": "This is when a vote is given by user.",
        "params": {
          "ballotId": "Id of the ballot where voting is stored",
          "versionRequestId": "This is the id of the recordVersionRequest structure that is linked to this ballot",
          "vote": "State of vote : true for yes and false for No",
          "voter": "Address of the voter"
        }
      },
      "NewVersionVotingBallotCreated(address,uint256,uint256)": {
        "details": "This is emitted when a voting ballot is created",
        "params": {
          "ballotId": "Id of the ballot where voting is stored",
          "requester": "Address of the requester",
          "versionRequestId": "This is the id of the recordVersionRequest structure that is linked to this ballot"
        }
      },
      "RecordCreated(uint256,string,string,uint256,uint256,string,uint256)": {
        "details": "This event is emited when new record is created",
        "params": {
          "creationDate": "This is the creation date of the record",
          "image": "This is the image of the record",
          "name": "Name of the record",
          "parentId": "This is the id of the parent record from which record is created",
          "recordCategory": "This is the record category",
          "recordId": "This is the recordId",
          "seedId": "This is the seed contribution id"
        }
      },
      "VersionRequest(uint256,(string,string,uint256,uint256,address,string,uint256,bool),(uint256,uint256,uint256,string,string),(uint256,uint256,uint256,string,string),uint256[],address,uint256,uint256,uint256)": {
        "details": "This event is generated when New Record Version is created",
        "params": {
          "ballotId": "Id of the voting ballot",
          "communityToken": "New token data for community token",
          "governanceToken": "New token data for governance token",
          "oldVersionId": "Record id of old version",
          "recordData": "Data for the new record",
          "requestId": "This is the id of the new record version request",
          "requester": "Owner of the request",
          "tokenId": "id of the token which will be used for voting"
        }
      }
    },
    "kind": "dev",
    "methods": {
      "_handleUserTokenTransfers(address,uint256,uint256,uint256)": {
        "details": "This function will be called when either user is transferring the tokens to other account, or is receiving tokens from other tokens.",
        "params": {
          "newBalance": "this is the new balance of the user that is after the transfer",
          "previousBalance": "this is the old balance of the user",
          "user": "address of the user whose balance is being changed"
        }
      },
      "castVote(uint256,bool)": {
        "details": "This function is called by any user to cast vote",
        "params": {
          "versionReqId": "this is the id of the new version request for which user is voting",
          "vote": "this is the state of the vote, if true than it means the vote is in favour of the ballot"
        }
      },
      "createNewRecord(string,string,string,uint256)": {
        "details": "This function creates new record",
        "params": {
          "image": "This is the image/logo of the record",
          "name": "This is the name of the record",
          "recordCategory": "This is the category to which record belongs",
          "seedId": "This is the seed contribution id"
        }
      },
      "createNewRecordVersion((string,string,string,uint256,uint256[],(uint256,uint256,uint256,string,string),(uint256,uint256,uint256,string,string)))": {
        "details": "This function will create new record version from existing record",
        "params": {
          "params": "required data for creation of new record version"
        }
      },
      "declareWinner(uint256)": {
        "details": "This function can be called from external source and also from within the contract",
        "params": {
          "versionReqId": "this is the id of the new version request to which the winner is to be declared"
        }
      },
      "ownerOf(uint256)": {
        "details": "This function return the address of record owner",
        "params": {
          "recordId": "This is the recordId whose owner you want"
        }
      },
      "pushContributionIdToContributionList(uint256,uint256)": {
        "details": "This function pushes a contribution into the array of the record",
        "params": {
          "contributionId": "This is the contribution id to push in array",
          "recordId": "This is the recordId to which contribution is to be added"
        }
      },
      "setContributionContractAddress(address)": {
        "details": "This function sets the contribution Contract address",
        "params": {
          "contributionContractAddress": "Takes the address of new contribution contract as parameter"
        }
      },
      "setOwnerAddress(address)": {
        "details": "This function sets the owner address",
        "params": {
          "ownerAddress": "This is the address of the owner"
        }
      },
      "setTreasuryContractAddress(address)": {
        "details": "This function sets the Treasury Contract address",
        "params": {
          "treasuryContractAddress": "Takes the address of new contribution contract as parameter"
        }
      }
    },
    "version": 1
  },
  "userdoc": {
    "kind": "user",
    "methods": {},
    "version": 1
  }
}