{
  "contractName": "RecordsContract",
  "abi": [
    {
      "inputs": [],
      "stateMutability": "nonpayable",
      "type": "constructor"
    },
    {
      "anonymous": false,
      "inputs": [
        {
          "indexed": true,
          "internalType": "address",
          "name": "account",
          "type": "address"
        },
        {
          "indexed": true,
          "internalType": "address",
          "name": "operator",
          "type": "address"
        },
        {
          "indexed": false,
          "internalType": "bool",
          "name": "approved",
          "type": "bool"
        }
      ],
      "name": "ApprovalForAll",
      "type": "event"
    },
    {
      "anonymous": false,
      "inputs": [
        {
          "indexed": false,
          "internalType": "uint256",
          "name": "recordId",
          "type": "uint256"
        },
        {
          "indexed": false,
          "internalType": "string",
          "name": "name",
          "type": "string"
        },
        {
          "indexed": false,
          "internalType": "string",
          "name": "image",
          "type": "string"
        },
        {
          "indexed": false,
          "internalType": "uint256",
          "name": "seedId",
          "type": "uint256"
        },
        {
          "indexed": false,
          "internalType": "uint256",
          "name": "parentId",
          "type": "uint256"
        },
        {
          "indexed": false,
          "internalType": "string",
          "name": "recordCategory",
          "type": "string"
        },
        {
          "indexed": false,
          "internalType": "uint256",
          "name": "creationDate",
          "type": "uint256"
        }
      ],
      "name": "RecordCreated",
      "type": "event"
    },
    {
      "anonymous": false,
      "inputs": [
        {
          "indexed": true,
          "internalType": "address",
          "name": "operator",
          "type": "address"
        },
        {
          "indexed": true,
          "internalType": "address",
          "name": "from",
          "type": "address"
        },
        {
          "indexed": true,
          "internalType": "address",
          "name": "to",
          "type": "address"
        },
        {
          "indexed": false,
          "internalType": "uint256[]",
          "name": "ids",
          "type": "uint256[]"
        },
        {
          "indexed": false,
          "internalType": "uint256[]",
          "name": "values",
          "type": "uint256[]"
        }
      ],
      "name": "TransferBatch",
      "type": "event"
    },
    {
      "anonymous": false,
      "inputs": [
        {
          "indexed": true,
          "internalType": "address",
          "name": "operator",
          "type": "address"
        },
        {
          "indexed": true,
          "internalType": "address",
          "name": "from",
          "type": "address"
        },
        {
          "indexed": true,
          "internalType": "address",
          "name": "to",
          "type": "address"
        },
        {
          "indexed": false,
          "internalType": "uint256",
          "name": "id",
          "type": "uint256"
        },
        {
          "indexed": false,
          "internalType": "uint256",
          "name": "value",
          "type": "uint256"
        }
      ],
      "name": "TransferSingle",
      "type": "event"
    },
    {
      "anonymous": false,
      "inputs": [
        {
          "indexed": false,
          "internalType": "string",
          "name": "value",
          "type": "string"
        },
        {
          "indexed": true,
          "internalType": "uint256",
          "name": "id",
          "type": "uint256"
        }
      ],
      "name": "URI",
      "type": "event"
    },
    {
      "inputs": [
        {
          "internalType": "address",
          "name": "account",
          "type": "address"
        },
        {
          "internalType": "uint256",
          "name": "id",
          "type": "uint256"
        }
      ],
      "name": "balanceOf",
      "outputs": [
        {
          "internalType": "uint256",
          "name": "",
          "type": "uint256"
        }
      ],
      "stateMutability": "view",
      "type": "function"
    },
    {
      "inputs": [
        {
          "internalType": "address[]",
          "name": "accounts",
          "type": "address[]"
        },
        {
          "internalType": "uint256[]",
          "name": "ids",
          "type": "uint256[]"
        }
      ],
      "name": "balanceOfBatch",
      "outputs": [
        {
          "internalType": "uint256[]",
          "name": "",
          "type": "uint256[]"
        }
      ],
      "stateMutability": "view",
      "type": "function"
    },
    {
      "inputs": [
        {
          "internalType": "uint256",
          "name": "id",
          "type": "uint256"
        }
      ],
      "name": "exists",
      "outputs": [
        {
          "internalType": "bool",
          "name": "",
          "type": "bool"
        }
      ],
      "stateMutability": "view",
      "type": "function"
    },
    {
      "inputs": [
        {
          "internalType": "address",
          "name": "account",
          "type": "address"
        },
        {
          "internalType": "address",
          "name": "operator",
          "type": "address"
        }
      ],
      "name": "isApprovedForAll",
      "outputs": [
        {
          "internalType": "bool",
          "name": "",
          "type": "bool"
        }
      ],
      "stateMutability": "view",
      "type": "function"
    },
    {
      "inputs": [
        {
          "internalType": "address",
          "name": "from",
          "type": "address"
        },
        {
          "internalType": "address",
          "name": "to",
          "type": "address"
        },
        {
          "internalType": "uint256[]",
          "name": "ids",
          "type": "uint256[]"
        },
        {
          "internalType": "uint256[]",
          "name": "amounts",
          "type": "uint256[]"
        },
        {
          "internalType": "bytes",
          "name": "data",
          "type": "bytes"
        }
      ],
      "name": "safeBatchTransferFrom",
      "outputs": [],
      "stateMutability": "nonpayable",
      "type": "function"
    },
    {
      "inputs": [
        {
          "internalType": "address",
          "name": "from",
          "type": "address"
        },
        {
          "internalType": "address",
          "name": "to",
          "type": "address"
        },
        {
          "internalType": "uint256",
          "name": "id",
          "type": "uint256"
        },
        {
          "internalType": "uint256",
          "name": "amount",
          "type": "uint256"
        },
        {
          "internalType": "bytes",
          "name": "data",
          "type": "bytes"
        }
      ],
      "name": "safeTransferFrom",
      "outputs": [],
      "stateMutability": "nonpayable",
      "type": "function"
    },
    {
      "inputs": [
        {
          "internalType": "address",
          "name": "operator",
          "type": "address"
        },
        {
          "internalType": "bool",
          "name": "approved",
          "type": "bool"
        }
      ],
      "name": "setApprovalForAll",
      "outputs": [],
      "stateMutability": "nonpayable",
      "type": "function"
    },
    {
      "inputs": [
        {
          "internalType": "bytes4",
          "name": "interfaceId",
          "type": "bytes4"
        }
      ],
      "name": "supportsInterface",
      "outputs": [
        {
          "internalType": "bool",
          "name": "",
          "type": "bool"
        }
      ],
      "stateMutability": "view",
      "type": "function"
    },
    {
      "inputs": [
        {
          "internalType": "uint256",
          "name": "id",
          "type": "uint256"
        }
      ],
      "name": "totalSupply",
      "outputs": [
        {
          "internalType": "uint256",
          "name": "",
          "type": "uint256"
        }
      ],
      "stateMutability": "view",
      "type": "function"
    },
    {
      "inputs": [
        {
          "internalType": "uint256",
          "name": "",
          "type": "uint256"
        }
      ],
      "name": "uri",
      "outputs": [
        {
          "internalType": "string",
          "name": "",
          "type": "string"
        }
      ],
      "stateMutability": "view",
      "type": "function"
    },
    {
      "inputs": [
        {
          "internalType": "uint256",
          "name": "tokenId",
          "type": "uint256"
        },
        {
          "internalType": "uint256",
          "name": "amount",
          "type": "uint256"
        },
        {
          "internalType": "address",
          "name": "reciver",
          "type": "address"
        }
      ],
      "name": "sendTo",
      "outputs": [],
      "stateMutability": "nonpayable",
      "type": "function"
    },
    {
      "inputs": [
        {
          "internalType": "uint256",
          "name": "senderTokenId",
          "type": "uint256"
        },
        {
          "internalType": "uint256",
          "name": "sendingAmount",
          "type": "uint256"
        },
        {
          "internalType": "uint256",
          "name": "recivingTokenId",
          "type": "uint256"
        },
        {
          "internalType": "uint256",
          "name": "recivingAmount",
          "type": "uint256"
        },
        {
          "internalType": "address",
          "name": "reciver",
          "type": "address"
        }
      ],
      "name": "exchangeTokens",
      "outputs": [],
      "stateMutability": "nonpayable",
      "type": "function"
    },
    {
      "inputs": [
        {
          "internalType": "string",
          "name": "name",
          "type": "string"
        },
        {
          "internalType": "string",
          "name": "image",
          "type": "string"
        },
        {
          "internalType": "string",
          "name": "recordCategory",
          "type": "string"
        },
        {
          "internalType": "uint256",
          "name": "seedId",
          "type": "uint256"
        }
      ],
      "name": "createNewRecord",
      "outputs": [
        {
          "internalType": "uint256",
          "name": "recordId",
          "type": "uint256"
        }
      ],
      "stateMutability": "nonpayable",
      "type": "function"
    }
  ],
  "bytecode": "0x608060405260006004553480156200001657600080fd5b506040518060400160405280601a81526020017f68747470733a2f2f736f6d657468696e672e636f6d2f7b69647d0000000000008152506200005e816200006560201b60201c565b5062000196565b80600290805190602001906200007d92919062000081565b5050565b8280546200008f9062000160565b90600052602060002090601f016020900481019282620000b35760008555620000ff565b82601f10620000ce57805160ff1916838001178555620000ff565b82800160010185558215620000ff579182015b82811115620000fe578251825591602001919060010190620000e1565b5b5090506200010e919062000112565b5090565b5b808211156200012d57600081600090555060010162000113565b5090565b7f4e487b7100000000000000000000000000000000000000000000000000000000600052602260045260246000fd5b600060028204905060018216806200017957607f821691505b6020821081141562000190576200018f62000131565b5b50919050565b61313c80620001a66000396000f3fe608060405234801561001057600080fd5b50600436106100ce5760003560e01c80634f558e791161008c578063bd85b03911610066578063bd85b03914610247578063cd3208a914610277578063e985e9c514610293578063f242432a146102c3576100ce565b80634f558e79146101cb578063a22cb465146101fb578063bb6c5fb314610217576100ce565b8062fdd58e146100d357806301ffc9a7146101035780630e89341c146101335780631424d8c3146101635780632eb2c2d61461017f5780634e1273f41461019b575b600080fd5b6100ed60048036038101906100e89190611b0b565b6102df565b6040516100fa9190611b5a565b60405180910390f35b61011d60048036038101906101189190611bcd565b6103a8565b60405161012a9190611c15565b60405180910390f35b61014d60048036038101906101489190611c30565b61048a565b60405161015a9190611cf6565b60405180910390f35b61017d60048036038101906101789190611d18565b61051e565b005b61019960048036038101906101949190611f68565b61053f565b005b6101b560048036038101906101b091906120fa565b6105e0565b6040516101c29190612230565b60405180910390f35b6101e560048036038101906101e09190611c30565b6106f9565b6040516101f29190611c15565b60405180910390f35b6102156004803603810190610210919061227e565b61070d565b005b610231600480360381019061022c919061235f565b610723565b60405161023e9190611b5a565b60405180910390f35b610261600480360381019061025c9190611c30565b610873565b60405161026e9190611b5a565b60405180910390f35b610291600480360381019061028c919061241a565b610890565b005b6102ad60048036038101906102a89190612495565b6109b1565b6040516102ba9190611c15565b60405180910390f35b6102dd60048036038101906102d891906124d5565b610a45565b005b60008073ffffffffffffffffffffffffffffffffffffffff168373ffffffffffffffffffffffffffffffffffffffff161415610350576040517f08c379a0000000000000000000000000000000000000000000000000000000008152600401610347906125de565b60405180910390fd5b60008083815260200190815260200160002060008473ffffffffffffffffffffffffffffffffffffffff1673ffffffffffffffffffffffffffffffffffffffff16815260200190815260200160002054905092915050565b60007fd9b67a26000000000000000000000000000000000000000000000000000000007bffffffffffffffffffffffffffffffffffffffffffffffffffffffff1916827bffffffffffffffffffffffffffffffffffffffffffffffffffffffff1916148061047357507f0e89341c000000000000000000000000000000000000000000000000000000007bffffffffffffffffffffffffffffffffffffffffffffffffffffffff1916827bffffffffffffffffffffffffffffffffffffffffffffffffffffffff1916145b80610483575061048282610ae6565b5b9050919050565b6060600280546104999061262d565b80601f01602080910402602001604051908101604052809291908181526020018280546104c59061262d565b80156105125780601f106104e757610100808354040283529160200191610512565b820191906000526020600020905b8154815290600101906020018083116104f557829003601f168201915b50505050509050919050565b61053a3382858560405180602001604052806000815250610a45565b505050565b610547610b50565b73ffffffffffffffffffffffffffffffffffffffff168573ffffffffffffffffffffffffffffffffffffffff16148061058d575061058c85610587610b50565b6109b1565b5b6105cc576040517f08c379a00000000000000000000000000000000000000000000000000000000081526004016105c3906126d1565b60405180910390fd5b6105d98585858585610b58565b5050505050565b60608151835114610626576040517f08c379a000000000000000000000000000000000000000000000000000000000815260040161061d90612763565b60405180910390fd5b6000835167ffffffffffffffff81111561064357610642611d70565b5b6040519080825280602002602001820160405280156106715781602001602082028036833780820191505090505b50905060005b84518110156106ee576106be85828151811061069657610695612783565b5b60200260200101518583815181106106b1576106b0612783565b5b60200260200101516102df565b8282815181106106d1576106d0612783565b5b602002602001018181525050806106e7906127e1565b9050610677565b508091505092915050565b60008061070583610873565b119050919050565b61071f610718610b50565b8383610e6c565b5050565b600060046000815480929190610738906127e1565b9190505550600060045490506107603382600160405180602001604052806000815250610fd9565b60006040518060c0016040528088815260200187815260200185815260200160008152602001868152602001428152509050806005600084815260200190815260200160002060008201518160000190805190602001906107c29291906119c0565b5060208201518160010190805190602001906107df9291906119c0565b50604082015181600201556060820151816003015560808201518160040190805190602001906108109291906119c0565b5060a082015181600501559050507f54759de35da3706adafb7ba0eea0b307160fc4576df0cddc11dd4b2ce11545588288888760008a8760a0015160405161085e979695949392919061286f565b60405180910390a18192505050949350505050565b600060036000838152602001908152602001600020549050919050565b8161089b82856102df565b116108db576040517f08c379a00000000000000000000000000000000000000000000000000000000081526004016108d29061293f565b60405180910390fd5b836108e633876102df565b11610926576040517f08c379a000000000000000000000000000000000000000000000000000000000815260040161091d9061293f565b60405180910390fd5b610968338287876040518060400160405280600181526020017f3000000000000000000000000000000000000000000000000000000000000000815250610a45565b6109aa813385856040518060400160405280600181526020017f3000000000000000000000000000000000000000000000000000000000000000815250610a45565b5050505050565b6000600160008473ffffffffffffffffffffffffffffffffffffffff1673ffffffffffffffffffffffffffffffffffffffff16815260200190815260200160002060008373ffffffffffffffffffffffffffffffffffffffff1673ffffffffffffffffffffffffffffffffffffffff16815260200190815260200160002060009054906101000a900460ff16905092915050565b610a4d610b50565b73ffffffffffffffffffffffffffffffffffffffff168573ffffffffffffffffffffffffffffffffffffffff161480610a935750610a9285610a8d610b50565b6109b1565b5b610ad2576040517f08c379a0000000000000000000000000000000000000000000000000000000008152600401610ac9906129d1565b60405180910390fd5b610adf858585858561116f565b5050505050565b60007f01ffc9a7000000000000000000000000000000000000000000000000000000007bffffffffffffffffffffffffffffffffffffffffffffffffffffffff1916827bffffffffffffffffffffffffffffffffffffffffffffffffffffffff1916149050919050565b600033905090565b8151835114610b9c576040517f08c379a0000000000000000000000000000000000000000000000000000000008152600401610b9390612a63565b60405180910390fd5b600073ffffffffffffffffffffffffffffffffffffffff168473ffffffffffffffffffffffffffffffffffffffff161415610c0c576040517f08c379a0000000000000000000000000000000000000000000000000000000008152600401610c0390612af5565b60405180910390fd5b6000610c16610b50565b9050610c268187878787876113f1565b60005b8451811015610dd7576000858281518110610c4757610c46612783565b5b602002602001015190506000858381518110610c6657610c65612783565b5b60200260200101519050600080600084815260200190815260200160002060008b73ffffffffffffffffffffffffffffffffffffffff1673ffffffffffffffffffffffffffffffffffffffff16815260200190815260200160002054905081811015610d07576040517f08c379a0000000000000000000000000000000000000000000000000000000008152600401610cfe90612b87565b60405180910390fd5b81810360008085815260200190815260200160002060008c73ffffffffffffffffffffffffffffffffffffffff1673ffffffffffffffffffffffffffffffffffffffff168152602001908152602001600020819055508160008085815260200190815260200160002060008b73ffffffffffffffffffffffffffffffffffffffff1673ffffffffffffffffffffffffffffffffffffffff1681526020019081526020016000206000828254610dbc9190612ba7565b9250508190555050505080610dd0906127e1565b9050610c29565b508473ffffffffffffffffffffffffffffffffffffffff168673ffffffffffffffffffffffffffffffffffffffff168273ffffffffffffffffffffffffffffffffffffffff167f4a39dc06d4c0dbc64b70af90fd698a233a518aa5d07e595d983b8c0526c8f7fb8787604051610e4e929190612bfd565b60405180910390a4610e6481878787878761156b565b505050505050565b8173ffffffffffffffffffffffffffffffffffffffff168373ffffffffffffffffffffffffffffffffffffffff161415610edb576040517f08c379a0000000000000000000000000000000000000000000000000000000008152600401610ed290612ca6565b60405180910390fd5b80600160008573ffffffffffffffffffffffffffffffffffffffff1673ffffffffffffffffffffffffffffffffffffffff16815260200190815260200160002060008473ffffffffffffffffffffffffffffffffffffffff1673ffffffffffffffffffffffffffffffffffffffff16815260200190815260200160002060006101000a81548160ff0219169083151502179055508173ffffffffffffffffffffffffffffffffffffffff168373ffffffffffffffffffffffffffffffffffffffff167f17307eab39ab6107e8899845ad3d59bd9653f200f220920489ca2b5937696c3183604051610fcc9190611c15565b60405180910390a3505050565b600073ffffffffffffffffffffffffffffffffffffffff168473ffffffffffffffffffffffffffffffffffffffff161415611049576040517f08c379a000000000000000000000000000000000000000000000000000000000815260040161104090612d38565b60405180910390fd5b6000611053610b50565b90506110748160008761106588611743565b61106e88611743565b876113f1565b8260008086815260200190815260200160002060008773ffffffffffffffffffffffffffffffffffffffff1673ffffffffffffffffffffffffffffffffffffffff16815260200190815260200160002060008282546110d39190612ba7565b925050819055508473ffffffffffffffffffffffffffffffffffffffff16600073ffffffffffffffffffffffffffffffffffffffff168273ffffffffffffffffffffffffffffffffffffffff167fc3d58168c5ae7397731d063d5bbf3d657854427343f4c083240f7aacaa2d0f628787604051611151929190612d58565b60405180910390a4611168816000878787876117bd565b5050505050565b600073ffffffffffffffffffffffffffffffffffffffff168473ffffffffffffffffffffffffffffffffffffffff1614156111df576040517f08c379a00000000000000000000000000000000000000000000000000000000081526004016111d690612af5565b60405180910390fd5b60006111e9610b50565b90506112098187876111fa88611743565b61120388611743565b876113f1565b600080600086815260200190815260200160002060008873ffffffffffffffffffffffffffffffffffffffff1673ffffffffffffffffffffffffffffffffffffffff168152602001908152602001600020549050838110156112a0576040517f08c379a000000000000000000000000000000000000000000000000000000000815260040161129790612b87565b60405180910390fd5b83810360008087815260200190815260200160002060008973ffffffffffffffffffffffffffffffffffffffff1673ffffffffffffffffffffffffffffffffffffffff168152602001908152602001600020819055508360008087815260200190815260200160002060008873ffffffffffffffffffffffffffffffffffffffff1673ffffffffffffffffffffffffffffffffffffffff16815260200190815260200160002060008282546113559190612ba7565b925050819055508573ffffffffffffffffffffffffffffffffffffffff168773ffffffffffffffffffffffffffffffffffffffff168373ffffffffffffffffffffffffffffffffffffffff167fc3d58168c5ae7397731d063d5bbf3d657854427343f4c083240f7aacaa2d0f6288886040516113d2929190612d58565b60405180910390a46113e88288888888886117bd565b50505050505050565b6113ff868686868686611995565b600073ffffffffffffffffffffffffffffffffffffffff168573ffffffffffffffffffffffffffffffffffffffff1614156114b15760005b83518110156114af5782818151811061145357611452612783565b5b60200260200101516003600086848151811061147257611471612783565b5b6020026020010151815260200190815260200160002060008282546114979190612ba7565b92505081905550806114a8906127e1565b9050611437565b505b600073ffffffffffffffffffffffffffffffffffffffff168473ffffffffffffffffffffffffffffffffffffffff1614156115635760005b83518110156115615782818151811061150557611504612783565b5b60200260200101516003600086848151811061152457611523612783565b5b6020026020010151815260200190815260200160002060008282546115499190612d81565b925050819055508061155a906127e1565b90506114e9565b505b505050505050565b61158a8473ffffffffffffffffffffffffffffffffffffffff1661199d565b1561173b578373ffffffffffffffffffffffffffffffffffffffff1663bc197c8187878686866040518663ffffffff1660e01b81526004016115d0959493929190612e19565b6020604051808303816000875af192505050801561160c57506040513d601f19601f820116820180604052508101906116099190612e96565b60015b6116b257611618612ed0565b806308c379a01415611675575061162d612ef2565b806116385750611677565b806040517f08c379a000000000000000000000000000000000000000000000000000000000815260040161166c9190611cf6565b60405180910390fd5b505b6040517f08c379a00000000000000000000000000000000000000000000000000000000081526004016116a990612ffa565b60405180910390fd5b63bc197c8160e01b7bffffffffffffffffffffffffffffffffffffffffffffffffffffffff1916817bffffffffffffffffffffffffffffffffffffffffffffffffffffffff191614611739576040517f08c379a00000000000000000000000000000000000000000000000000000000081526004016117309061308c565b60405180910390fd5b505b505050505050565b60606000600167ffffffffffffffff81111561176257611761611d70565b5b6040519080825280602002602001820160405280156117905781602001602082028036833780820191505090505b50905082816000815181106117a8576117a7612783565b5b60200260200101818152505080915050919050565b6117dc8473ffffffffffffffffffffffffffffffffffffffff1661199d565b1561198d578373ffffffffffffffffffffffffffffffffffffffff1663f23a6e6187878686866040518663ffffffff1660e01b81526004016118229594939291906130ac565b6020604051808303816000875af192505050801561185e57506040513d601f19601f8201168201806040525081019061185b9190612e96565b60015b6119045761186a612ed0565b806308c379a014156118c7575061187f612ef2565b8061188a57506118c9565b806040517f08c379a00000000000000000000000000000000000000000000000000000000081526004016118be9190611cf6565b60405180910390fd5b505b6040517f08c379a00000000000000000000000000000000000000000000000000000000081526004016118fb90612ffa565b60405180910390fd5b63f23a6e6160e01b7bffffffffffffffffffffffffffffffffffffffffffffffffffffffff1916817bffffffffffffffffffffffffffffffffffffffffffffffffffffffff19161461198b576040517f08c379a00000000000000000000000000000000000000000000000000000000081526004016119829061308c565b60405180910390fd5b505b505050505050565b505050505050565b6000808273ffffffffffffffffffffffffffffffffffffffff163b119050919050565b8280546119cc9061262d565b90600052602060002090601f0160209004810192826119ee5760008555611a35565b82601f10611a0757805160ff1916838001178555611a35565b82800160010185558215611a35579182015b82811115611a34578251825591602001919060010190611a19565b5b509050611a429190611a46565b5090565b5b80821115611a5f576000816000905550600101611a47565b5090565b6000604051905090565b600080fd5b600080fd5b600073ffffffffffffffffffffffffffffffffffffffff82169050919050565b6000611aa282611a77565b9050919050565b611ab281611a97565b8114611abd57600080fd5b50565b600081359050611acf81611aa9565b92915050565b6000819050919050565b611ae881611ad5565b8114611af357600080fd5b50565b600081359050611b0581611adf565b92915050565b60008060408385031215611b2257611b21611a6d565b5b6000611b3085828601611ac0565b9250506020611b4185828601611af6565b9150509250929050565b611b5481611ad5565b82525050565b6000602082019050611b6f6000830184611b4b565b92915050565b60007fffffffff0000000000000000000000000000000000000000000000000000000082169050919050565b611baa81611b75565b8114611bb557600080fd5b50565b600081359050611bc781611ba1565b92915050565b600060208284031215611be357611be2611a6d565b5b6000611bf184828501611bb8565b91505092915050565b60008115159050919050565b611c0f81611bfa565b82525050565b6000602082019050611c2a6000830184611c06565b92915050565b600060208284031215611c4657611c45611a6d565b5b6000611c5484828501611af6565b91505092915050565b600081519050919050565b600082825260208201905092915050565b60005b83811015611c97578082015181840152602081019050611c7c565b83811115611ca6576000848401525b50505050565b6000601f19601f8301169050919050565b6000611cc882611c5d565b611cd28185611c68565b9350611ce2818560208601611c79565b611ceb81611cac565b840191505092915050565b60006020820190508181036000830152611d108184611cbd565b905092915050565b600080600060608486031215611d3157611d30611a6d565b5b6000611d3f86828701611af6565b9350506020611d5086828701611af6565b9250506040611d6186828701611ac0565b9150509250925092565b600080fd5b7f4e487b7100000000000000000000000000000000000000000000000000000000600052604160045260246000fd5b611da882611cac565b810181811067ffffffffffffffff82111715611dc757611dc6611d70565b5b80604052505050565b6000611dda611a63565b9050611de68282611d9f565b919050565b600067ffffffffffffffff821115611e0657611e05611d70565b5b602082029050602081019050919050565b600080fd5b6000611e2f611e2a84611deb565b611dd0565b90508083825260208201905060208402830185811115611e5257611e51611e17565b5b835b81811015611e7b5780611e678882611af6565b845260208401935050602081019050611e54565b5050509392505050565b600082601f830112611e9a57611e99611d6b565b5b8135611eaa848260208601611e1c565b91505092915050565b600080fd5b600067ffffffffffffffff821115611ed357611ed2611d70565b5b611edc82611cac565b9050602081019050919050565b82818337600083830152505050565b6000611f0b611f0684611eb8565b611dd0565b905082815260208101848484011115611f2757611f26611eb3565b5b611f32848285611ee9565b509392505050565b600082601f830112611f4f57611f4e611d6b565b5b8135611f5f848260208601611ef8565b91505092915050565b600080600080600060a08688031215611f8457611f83611a6d565b5b6000611f9288828901611ac0565b9550506020611fa388828901611ac0565b945050604086013567ffffffffffffffff811115611fc457611fc3611a72565b5b611fd088828901611e85565b935050606086013567ffffffffffffffff811115611ff157611ff0611a72565b5b611ffd88828901611e85565b925050608086013567ffffffffffffffff81111561201e5761201d611a72565b5b61202a88828901611f3a565b9150509295509295909350565b600067ffffffffffffffff82111561205257612051611d70565b5b602082029050602081019050919050565b600061207661207184612037565b611dd0565b9050808382526020820190506020840283018581111561209957612098611e17565b5b835b818110156120c257806120ae8882611ac0565b84526020840193505060208101905061209b565b5050509392505050565b600082601f8301126120e1576120e0611d6b565b5b81356120f1848260208601612063565b91505092915050565b6000806040838503121561211157612110611a6d565b5b600083013567ffffffffffffffff81111561212f5761212e611a72565b5b61213b858286016120cc565b925050602083013567ffffffffffffffff81111561215c5761215b611a72565b5b61216885828601611e85565b9150509250929050565b600081519050919050565b600082825260208201905092915050565b6000819050602082019050919050565b6121a781611ad5565b82525050565b60006121b9838361219e565b60208301905092915050565b6000602082019050919050565b60006121dd82612172565b6121e7818561217d565b93506121f28361218e565b8060005b8381101561222357815161220a88826121ad565b9750612215836121c5565b9250506001810190506121f6565b5085935050505092915050565b6000602082019050818103600083015261224a81846121d2565b905092915050565b61225b81611bfa565b811461226657600080fd5b50565b60008135905061227881612252565b92915050565b6000806040838503121561229557612294611a6d565b5b60006122a385828601611ac0565b92505060206122b485828601612269565b9150509250929050565b600067ffffffffffffffff8211156122d9576122d8611d70565b5b6122e282611cac565b9050602081019050919050565b60006123026122fd846122be565b611dd0565b90508281526020810184848401111561231e5761231d611eb3565b5b612329848285611ee9565b509392505050565b600082601f83011261234657612345611d6b565b5b81356123568482602086016122ef565b91505092915050565b6000806000806080858703121561237957612378611a6d565b5b600085013567ffffffffffffffff81111561239757612396611a72565b5b6123a387828801612331565b945050602085013567ffffffffffffffff8111156123c4576123c3611a72565b5b6123d087828801612331565b935050604085013567ffffffffffffffff8111156123f1576123f0611a72565b5b6123fd87828801612331565b925050606061240e87828801611af6565b91505092959194509250565b600080600080600060a0868803121561243657612435611a6d565b5b600061244488828901611af6565b955050602061245588828901611af6565b945050604061246688828901611af6565b935050606061247788828901611af6565b925050608061248888828901611ac0565b9150509295509295909350565b600080604083850312156124ac576124ab611a6d565b5b60006124ba85828601611ac0565b92505060206124cb85828601611ac0565b9150509250929050565b600080600080600060a086880312156124f1576124f0611a6d565b5b60006124ff88828901611ac0565b955050602061251088828901611ac0565b945050604061252188828901611af6565b935050606061253288828901611af6565b925050608086013567ffffffffffffffff81111561255357612552611a72565b5b61255f88828901611f3a565b9150509295509295909350565b7f455243313135353a2062616c616e636520717565727920666f7220746865207a60008201527f65726f2061646472657373000000000000000000000000000000000000000000602082015250565b60006125c8602b83611c68565b91506125d38261256c565b604082019050919050565b600060208201905081810360008301526125f7816125bb565b9050919050565b7f4e487b7100000000000000000000000000000000000000000000000000000000600052602260045260246000fd5b6000600282049050600182168061264557607f821691505b60208210811415612659576126586125fe565b5b50919050565b7f455243313135353a207472616e736665722063616c6c6572206973206e6f742060008201527f6f776e6572206e6f7220617070726f7665640000000000000000000000000000602082015250565b60006126bb603283611c68565b91506126c68261265f565b604082019050919050565b600060208201905081810360008301526126ea816126ae565b9050919050565b7f455243313135353a206163636f756e747320616e6420696473206c656e67746860008201527f206d69736d617463680000000000000000000000000000000000000000000000602082015250565b600061274d602983611c68565b9150612758826126f1565b604082019050919050565b6000602082019050818103600083015261277c81612740565b9050919050565b7f4e487b7100000000000000000000000000000000000000000000000000000000600052603260045260246000fd5b7f4e487b7100000000000000000000000000000000000000000000000000000000600052601160045260246000fd5b60006127ec82611ad5565b91507fffffffffffffffffffffffffffffffffffffffffffffffffffffffffffffffff82141561281f5761281e6127b2565b5b600182019050919050565b6000819050919050565b6000819050919050565b600061285961285461284f8461282a565b612834565b611ad5565b9050919050565b6128698161283e565b82525050565b600060e082019050612884600083018a611b4b565b81810360208301526128968189611cbd565b905081810360408301526128aa8188611cbd565b90506128b96060830187611b4b565b6128c66080830186612860565b81810360a08301526128d88185611cbd565b90506128e760c0830184611b4b565b98975050505050505050565b7f696e73756666696369616e742062616c616e6365000000000000000000000000600082015250565b6000612929601483611c68565b9150612934826128f3565b602082019050919050565b600060208201905081810360008301526129588161291c565b9050919050565b7f455243313135353a2063616c6c6572206973206e6f74206f776e6572206e6f7260008201527f20617070726f7665640000000000000000000000000000000000000000000000602082015250565b60006129bb602983611c68565b91506129c68261295f565b604082019050919050565b600060208201905081810360008301526129ea816129ae565b9050919050565b7f455243313135353a2069647320616e6420616d6f756e7473206c656e6774682060008201527f6d69736d61746368000000000000000000000000000000000000000000000000602082015250565b6000612a4d602883611c68565b9150612a58826129f1565b604082019050919050565b60006020820190508181036000830152612a7c81612a40565b9050919050565b7f455243313135353a207472616e7366657220746f20746865207a65726f20616460008201527f6472657373000000000000000000000000000000000000000000000000000000602082015250565b6000612adf602583611c68565b9150612aea82612a83565b604082019050919050565b60006020820190508181036000830152612b0e81612ad2565b9050919050565b7f455243313135353a20696e73756666696369656e742062616c616e636520666f60008201527f72207472616e7366657200000000000000000000000000000000000000000000602082015250565b6000612b71602a83611c68565b9150612b7c82612b15565b604082019050919050565b60006020820190508181036000830152612ba081612b64565b9050919050565b6000612bb282611ad5565b9150612bbd83611ad5565b9250827fffffffffffffffffffffffffffffffffffffffffffffffffffffffffffffffff03821115612bf257612bf16127b2565b5b828201905092915050565b60006040820190508181036000830152612c1781856121d2565b90508181036020830152612c2b81846121d2565b90509392505050565b7f455243313135353a2073657474696e6720617070726f76616c2073746174757360008201527f20666f722073656c660000000000000000000000000000000000000000000000602082015250565b6000612c90602983611c68565b9150612c9b82612c34565b604082019050919050565b60006020820190508181036000830152612cbf81612c83565b9050919050565b7f455243313135353a206d696e7420746f20746865207a65726f2061646472657360008201527f7300000000000000000000000000000000000000000000000000000000000000602082015250565b6000612d22602183611c68565b9150612d2d82612cc6565b604082019050919050565b60006020820190508181036000830152612d5181612d15565b9050919050565b6000604082019050612d6d6000830185611b4b565b612d7a6020830184611b4b565b9392505050565b6000612d8c82611ad5565b9150612d9783611ad5565b925082821015612daa57612da96127b2565b5b828203905092915050565b612dbe81611a97565b82525050565b600081519050919050565b600082825260208201905092915050565b6000612deb82612dc4565b612df58185612dcf565b9350612e05818560208601611c79565b612e0e81611cac565b840191505092915050565b600060a082019050612e2e6000830188612db5565b612e3b6020830187612db5565b8181036040830152612e4d81866121d2565b90508181036060830152612e6181856121d2565b90508181036080830152612e758184612de0565b90509695505050505050565b600081519050612e9081611ba1565b92915050565b600060208284031215612eac57612eab611a6d565b5b6000612eba84828501612e81565b91505092915050565b60008160e01c9050919050565b600060033d1115612eef5760046000803e612eec600051612ec3565b90505b90565b600060443d1015612f0257612f85565b612f0a611a63565b60043d036004823e80513d602482011167ffffffffffffffff82111715612f32575050612f85565b808201805167ffffffffffffffff811115612f505750505050612f85565b80602083010160043d038501811115612f6d575050505050612f85565b612f7c82602001850186611d9f565b82955050505050505b90565b7f455243313135353a207472616e7366657220746f206e6f6e204552433131353560008201527f526563656976657220696d706c656d656e746572000000000000000000000000602082015250565b6000612fe4603483611c68565b9150612fef82612f88565b604082019050919050565b6000602082019050818103600083015261301381612fd7565b9050919050565b7f455243313135353a204552433131353552656365697665722072656a6563746560008201527f6420746f6b656e73000000000000000000000000000000000000000000000000602082015250565b6000613076602883611c68565b91506130818261301a565b604082019050919050565b600060208201905081810360008301526130a581613069565b9050919050565b600060a0820190506130c16000830188612db5565b6130ce6020830187612db5565b6130db6040830186611b4b565b6130e86060830185611b4b565b81810360808301526130fa8184612de0565b9050969550505050505056fea2646970667358221220598978c5bd43d74c7d20fe44e995ccaf04cba82a75b4a9ee2fec83c38b10c2a264736f6c634300080c0033",
  "immutableReferences": {},
  "source": "pragma solidity ^0.8.0;\n\nimport \"@openzeppelin/contracts/token/ERC1155/ERC1155.sol\";\nimport \"@openzeppelin/contracts/token/ERC1155/extensions/ERC1155Supply.sol\";\nimport \"@openzeppelin/contracts/utils/Counters.sol\";\nimport \"@openzeppelin/contracts/access/Ownable.sol\";\n\n// ERC 20 balance[adress] => 2 contracts // governance and comunity\n// ERC 721 blance[adress] => 1 contract // records\n// ERC 1155\n\ncontract RecordsContract is ERC1155Supply {\n    uint256 newTokenId = 0;\n\n    mapping(uint256 => RecordToken) recordData;\n\n    struct RecordToken {\n        string name;\n        string image;\n        uint256 seedId;\n        uint256 parentId;\n        string recordCategory;\n        uint256 creationDate;\n    }\n\n    /**\n     * @dev This event is emited when new record is created\n     * @param recordId This is the recordId\n     * @param name Name of the record\n     * @param image This is the image of the record\n     * @param seedId This is the seed contribution id\n     * @param parentId This is the id of the parent record from which record is created\n     * @param recordCategory This is the record category\n     * @param creationDate This is the creation date of the record\n     */\n    event RecordCreated(\n        uint256 recordId,\n        string name,\n        string image,\n        uint256 seedId,\n        uint256 parentId,\n        string recordCategory,\n        uint256 creationDate\n    );\n\n    constructor() ERC1155(\"https://something.com/{id}\") {}\n\n    function sendTo(\n        uint256 tokenId,\n        uint256 amount,\n        address reciver\n    ) public {\n        safeTransferFrom(msg.sender, reciver, tokenId, amount, \"\");\n    }\n\n    function exchangeTokens(\n        uint256 senderTokenId,\n        uint256 sendingAmount,\n        uint256 recivingTokenId,\n        uint256 recivingAmount,\n        address reciver\n    ) public {\n        require(\n            balanceOf(reciver, recivingTokenId) > recivingAmount,\n            \"insufficiant balance\"\n        );\n        require(\n            balanceOf(msg.sender, senderTokenId) > sendingAmount,\n            \"insufficiant balance\"\n        );\n\n        safeTransferFrom(\n            msg.sender,\n            reciver,\n            senderTokenId,\n            sendingAmount,\n            \"0\"\n        );\n        safeTransferFrom(\n            reciver,\n            msg.sender,\n            recivingTokenId,\n            recivingAmount,\n            \"0\"\n        );\n    }\n\n    /**\n     * @dev This function creats new record\n     * @param name This is the total supply of governance token\n     * @param image This is the total supply of community token\n     * @param seedId this is hash of the preview file\n     * @param recordCategory this is hash of the preview file\n     */\n    function createNewRecord(\n        string memory name,\n        string memory image,\n        string memory recordCategory,\n        uint256 seedId\n    ) public returns (uint256 recordId) {\n        newTokenId++;\n        uint256 recordId = newTokenId;\n        _mint(msg.sender, recordId, 1, \"\");\n\n        RecordToken memory recordToken = RecordToken({\n            name: name,\n            image: image,\n            seedId: seedId,\n            parentId: 0,\n            recordCategory: recordCategory,\n            creationDate: block.timestamp\n        });\n\n        recordData[recordId] = recordToken;\n\n        emit RecordCreated({\n            recordId: recordId,\n            name: name,\n            image: image,\n            seedId: seedId,\n            parentId: 0,\n            recordCategory: recordCategory,\n            creationDate: recordToken.creationDate\n        });\n\n        return (recordId);\n    }\n}\n",
  "sourcePath": "/Users/a1/Desktop/Office/projects/CrowdRecords/Contracts/contracts/RecordsContract.sol",
  "compiler": {
    "name": "solc",
    "version": "0.8.12+commit.f00d7308.Emscripten.clang"
  },
  "schemaVersion": "3.4.6",
  "updatedAt": "2022-05-04T09:19:19.253Z",
  "devdoc": {
    "events": {
      "RecordCreated(uint256,string,string,uint256,uint256,string,uint256)": {
        "details": "This event is emited when new record is created",
        "params": {
          "creationDate": "This is the creation date of the record",
          "image": "This is the image of the record",
          "name": "Name of the record",
          "parentId": "This is the id of the parent record from which record is created",
          "recordCategory": "This is the record category",
          "recordId": "This is the recordId",
          "seedId": "This is the seed contribution id"
        }
      }
    },
    "kind": "dev",
    "methods": {
      "balanceOf(address,uint256)": {
        "details": "See {IERC1155-balanceOf}. Requirements: - `account` cannot be the zero address."
      },
      "balanceOfBatch(address[],uint256[])": {
        "details": "See {IERC1155-balanceOfBatch}. Requirements: - `accounts` and `ids` must have the same length."
      },
      "createNewRecord(string,string,string,uint256)": {
        "details": "This function creats new record",
        "params": {
          "image": "This is the total supply of community token",
          "name": "This is the total supply of governance token",
          "recordCategory": "this is hash of the preview file",
          "seedId": "this is hash of the preview file"
        }
      },
      "exists(uint256)": {
        "details": "Indicates whether any token exist with a given id, or not."
      },
      "isApprovedForAll(address,address)": {
        "details": "See {IERC1155-isApprovedForAll}."
      },
      "safeBatchTransferFrom(address,address,uint256[],uint256[],bytes)": {
        "details": "See {IERC1155-safeBatchTransferFrom}."
      },
      "safeTransferFrom(address,address,uint256,uint256,bytes)": {
        "details": "See {IERC1155-safeTransferFrom}."
      },
      "setApprovalForAll(address,bool)": {
        "details": "See {IERC1155-setApprovalForAll}."
      },
      "supportsInterface(bytes4)": {
        "details": "See {IERC165-supportsInterface}."
      },
      "totalSupply(uint256)": {
        "details": "Total amount of tokens in with a given id."
      },
      "uri(uint256)": {
        "details": "See {IERC1155MetadataURI-uri}. This implementation returns the same URI for *all* token types. It relies on the token type ID substitution mechanism https://eips.ethereum.org/EIPS/eip-1155#metadata[defined in the EIP]. Clients calling this function must replace the `\\{id\\}` substring with the actual token type ID."
      }
    },
    "version": 1
  },
  "userdoc": {
    "kind": "user",
    "methods": {},
    "version": 1
  }
}