{
  "contractName": "RecordsContract",
  "abi": [
    {
      "inputs": [],
      "stateMutability": "nonpayable",
      "type": "constructor"
    },
    {
      "anonymous": false,
      "inputs": [
        {
          "indexed": true,
          "internalType": "address",
          "name": "account",
          "type": "address"
        },
        {
          "indexed": true,
          "internalType": "address",
          "name": "operator",
          "type": "address"
        },
        {
          "indexed": false,
          "internalType": "bool",
          "name": "approved",
          "type": "bool"
        }
      ],
      "name": "ApprovalForAll",
      "type": "event"
    },
    {
      "anonymous": false,
      "inputs": [
        {
          "indexed": false,
          "internalType": "uint256",
          "name": "recordId",
          "type": "uint256"
        },
        {
          "indexed": false,
          "internalType": "string",
          "name": "name",
          "type": "string"
        },
        {
          "indexed": false,
          "internalType": "string",
          "name": "image",
          "type": "string"
        },
        {
          "indexed": false,
          "internalType": "uint256",
          "name": "seedId",
          "type": "uint256"
        },
        {
          "indexed": false,
          "internalType": "uint256",
          "name": "parentId",
          "type": "uint256"
        },
        {
          "indexed": false,
          "internalType": "string",
          "name": "recordCategory",
          "type": "string"
        },
        {
          "indexed": false,
          "internalType": "uint256",
          "name": "creationDate",
          "type": "uint256"
        }
      ],
      "name": "RecordCreated",
      "type": "event"
    },
    {
      "anonymous": false,
      "inputs": [
        {
          "indexed": true,
          "internalType": "address",
          "name": "operator",
          "type": "address"
        },
        {
          "indexed": true,
          "internalType": "address",
          "name": "from",
          "type": "address"
        },
        {
          "indexed": true,
          "internalType": "address",
          "name": "to",
          "type": "address"
        },
        {
          "indexed": false,
          "internalType": "uint256[]",
          "name": "ids",
          "type": "uint256[]"
        },
        {
          "indexed": false,
          "internalType": "uint256[]",
          "name": "values",
          "type": "uint256[]"
        }
      ],
      "name": "TransferBatch",
      "type": "event"
    },
    {
      "anonymous": false,
      "inputs": [
        {
          "indexed": true,
          "internalType": "address",
          "name": "operator",
          "type": "address"
        },
        {
          "indexed": true,
          "internalType": "address",
          "name": "from",
          "type": "address"
        },
        {
          "indexed": true,
          "internalType": "address",
          "name": "to",
          "type": "address"
        },
        {
          "indexed": false,
          "internalType": "uint256",
          "name": "id",
          "type": "uint256"
        },
        {
          "indexed": false,
          "internalType": "uint256",
          "name": "value",
          "type": "uint256"
        }
      ],
      "name": "TransferSingle",
      "type": "event"
    },
    {
      "anonymous": false,
      "inputs": [
        {
          "indexed": false,
          "internalType": "string",
          "name": "value",
          "type": "string"
        },
        {
          "indexed": true,
          "internalType": "uint256",
          "name": "id",
          "type": "uint256"
        }
      ],
      "name": "URI",
      "type": "event"
    },
    {
      "inputs": [],
      "name": "CONTRIBUTION_CONTRACT_ADDRESS",
      "outputs": [
        {
          "internalType": "address",
          "name": "",
          "type": "address"
        }
      ],
      "stateMutability": "view",
      "type": "function",
      "constant": true
    },
    {
      "inputs": [
        {
          "internalType": "address",
          "name": "account",
          "type": "address"
        },
        {
          "internalType": "uint256",
          "name": "id",
          "type": "uint256"
        }
      ],
      "name": "balanceOf",
      "outputs": [
        {
          "internalType": "uint256",
          "name": "",
          "type": "uint256"
        }
      ],
      "stateMutability": "view",
      "type": "function",
      "constant": true
    },
    {
      "inputs": [
        {
          "internalType": "address[]",
          "name": "accounts",
          "type": "address[]"
        },
        {
          "internalType": "uint256[]",
          "name": "ids",
          "type": "uint256[]"
        }
      ],
      "name": "balanceOfBatch",
      "outputs": [
        {
          "internalType": "uint256[]",
          "name": "",
          "type": "uint256[]"
        }
      ],
      "stateMutability": "view",
      "type": "function",
      "constant": true
    },
    {
      "inputs": [
        {
          "internalType": "uint256",
          "name": "id",
          "type": "uint256"
        }
      ],
      "name": "exists",
      "outputs": [
        {
          "internalType": "bool",
          "name": "",
          "type": "bool"
        }
      ],
      "stateMutability": "view",
      "type": "function",
      "constant": true
    },
    {
      "inputs": [
        {
          "internalType": "address",
          "name": "account",
          "type": "address"
        },
        {
          "internalType": "address",
          "name": "operator",
          "type": "address"
        }
      ],
      "name": "isApprovedForAll",
      "outputs": [
        {
          "internalType": "bool",
          "name": "",
          "type": "bool"
        }
      ],
      "stateMutability": "view",
      "type": "function",
      "constant": true
    },
    {
      "inputs": [
        {
          "internalType": "uint256",
          "name": "",
          "type": "uint256"
        }
      ],
      "name": "recordData",
      "outputs": [
        {
          "internalType": "string",
          "name": "name",
          "type": "string"
        },
        {
          "internalType": "string",
          "name": "image",
          "type": "string"
        },
        {
          "internalType": "uint256",
          "name": "seedId",
          "type": "uint256"
        },
        {
          "internalType": "uint256",
          "name": "parentId",
          "type": "uint256"
        },
        {
          "internalType": "string",
          "name": "recordCategory",
          "type": "string"
        },
        {
          "internalType": "uint256",
          "name": "creationDate",
          "type": "uint256"
        }
      ],
      "stateMutability": "view",
      "type": "function",
      "constant": true
    },
    {
      "inputs": [
        {
          "internalType": "address",
          "name": "from",
          "type": "address"
        },
        {
          "internalType": "address",
          "name": "to",
          "type": "address"
        },
        {
          "internalType": "uint256[]",
          "name": "ids",
          "type": "uint256[]"
        },
        {
          "internalType": "uint256[]",
          "name": "amounts",
          "type": "uint256[]"
        },
        {
          "internalType": "bytes",
          "name": "data",
          "type": "bytes"
        }
      ],
      "name": "safeBatchTransferFrom",
      "outputs": [],
      "stateMutability": "nonpayable",
      "type": "function"
    },
    {
      "inputs": [
        {
          "internalType": "address",
          "name": "from",
          "type": "address"
        },
        {
          "internalType": "address",
          "name": "to",
          "type": "address"
        },
        {
          "internalType": "uint256",
          "name": "id",
          "type": "uint256"
        },
        {
          "internalType": "uint256",
          "name": "amount",
          "type": "uint256"
        },
        {
          "internalType": "bytes",
          "name": "data",
          "type": "bytes"
        }
      ],
      "name": "safeTransferFrom",
      "outputs": [],
      "stateMutability": "nonpayable",
      "type": "function"
    },
    {
      "inputs": [
        {
          "internalType": "uint256",
          "name": "",
          "type": "uint256"
        }
      ],
      "name": "seedIdUsed",
      "outputs": [
        {
          "internalType": "bool",
          "name": "",
          "type": "bool"
        }
      ],
      "stateMutability": "view",
      "type": "function",
      "constant": true
    },
    {
      "inputs": [
        {
          "internalType": "address",
          "name": "operator",
          "type": "address"
        },
        {
          "internalType": "bool",
          "name": "approved",
          "type": "bool"
        }
      ],
      "name": "setApprovalForAll",
      "outputs": [],
      "stateMutability": "nonpayable",
      "type": "function"
    },
    {
      "inputs": [
        {
          "internalType": "bytes4",
          "name": "interfaceId",
          "type": "bytes4"
        }
      ],
      "name": "supportsInterface",
      "outputs": [
        {
          "internalType": "bool",
          "name": "",
          "type": "bool"
        }
      ],
      "stateMutability": "view",
      "type": "function",
      "constant": true
    },
    {
      "inputs": [
        {
          "internalType": "uint256",
          "name": "id",
          "type": "uint256"
        }
      ],
      "name": "totalSupply",
      "outputs": [
        {
          "internalType": "uint256",
          "name": "",
          "type": "uint256"
        }
      ],
      "stateMutability": "view",
      "type": "function",
      "constant": true
    },
    {
      "inputs": [
        {
          "internalType": "uint256",
          "name": "",
          "type": "uint256"
        }
      ],
      "name": "uri",
      "outputs": [
        {
          "internalType": "string",
          "name": "",
          "type": "string"
        }
      ],
      "stateMutability": "view",
      "type": "function",
      "constant": true
    },
    {
      "inputs": [
        {
          "internalType": "address",
          "name": "contributionContractAddress",
          "type": "address"
        }
      ],
      "name": "setContributionContractAddress",
      "outputs": [],
      "stateMutability": "nonpayable",
      "type": "function"
    },
    {
      "inputs": [
        {
          "internalType": "string",
          "name": "name",
          "type": "string"
        },
        {
          "internalType": "string",
          "name": "image",
          "type": "string"
        },
        {
          "internalType": "string",
          "name": "recordCategory",
          "type": "string"
        },
        {
          "internalType": "uint256",
          "name": "seedId",
          "type": "uint256"
        }
      ],
      "name": "createNewRecord",
      "outputs": [
        {
          "internalType": "uint256",
          "name": "recordId",
          "type": "uint256"
        }
      ],
      "stateMutability": "nonpayable",
      "type": "function"
    }
  ],
  "bytecode": "0x608060405260006004553480156200001657600080fd5b506040518060400160405280601a81526020017f68747470733a2f2f736f6d657468696e672e636f6d2f7b69647d0000000000008152506200005e81620000a660201b60201c565b5033600760006101000a81548173ffffffffffffffffffffffffffffffffffffffff021916908373ffffffffffffffffffffffffffffffffffffffff160217905550620001d7565b8060029080519060200190620000be929190620000c2565b5050565b828054620000d090620001a1565b90600052602060002090601f016020900481019282620000f4576000855562000140565b82601f106200010f57805160ff191683800117855562000140565b8280016001018555821562000140579182015b828111156200013f57825182559160200191906001019062000122565b5b5090506200014f919062000153565b5090565b5b808211156200016e57600081600090555060010162000154565b5090565b7f4e487b7100000000000000000000000000000000000000000000000000000000600052602260045260246000fd5b60006002820490506001821680620001ba57607f821691505b60208210811415620001d157620001d062000172565b5b50919050565b6139af80620001e76000396000f3fe608060405234801561001057600080fd5b50600436106100f45760003560e01c80634f558e7911610097578063bd85b03911610066578063bd85b039146102bb578063cd58b8d6146102eb578063e985e9c514610320578063f242432a14610350576100f4565b80634f558e791461020f578063a22cb4651461023f578063acf6beb61461025b578063bb6c5fb31461028b576100f4565b80630e89341c116100d35780630e89341c1461017757806329c50b59146101a75780632eb2c2d6146101c35780634e1273f4146101df576100f4565b8062fdd58e146100f957806301ffc9a71461012957806307c505b714610159575b600080fd5b610113600480360381019061010e9190611eee565b61036c565b6040516101209190611f3d565b60405180910390f35b610143600480360381019061013e9190611fb0565b610435565b6040516101509190611ff8565b60405180910390f35b610161610517565b60405161016e9190612022565b60405180910390f35b610191600480360381019061018c919061203d565b61053d565b60405161019e9190612103565b60405180910390f35b6101c160048036038101906101bc9190612125565b6105d1565b005b6101dd60048036038101906101d8919061234f565b6106a5565b005b6101f960048036038101906101f491906124e1565b610746565b6040516102069190612617565b60405180910390f35b6102296004803603810190610224919061203d565b61085f565b6040516102369190611ff8565b60405180910390f35b61025960048036038101906102549190612665565b610873565b005b6102756004803603810190610270919061203d565b610889565b6040516102829190611ff8565b60405180910390f35b6102a560048036038101906102a09190612746565b6108a9565b6040516102b29190611f3d565b60405180910390f35b6102d560048036038101906102d0919061203d565b610ba3565b6040516102e29190611f3d565b60405180910390f35b6103056004803603810190610300919061203d565b610bc0565b60405161031796959493929190612801565b60405180910390f35b61033a60048036038101906103359190612877565b610d94565b6040516103479190611ff8565b60405180910390f35b61036a600480360381019061036591906128b7565b610e28565b005b60008073ffffffffffffffffffffffffffffffffffffffff168373ffffffffffffffffffffffffffffffffffffffff1614156103dd576040517f08c379a00000000000000000000000000000000000000000000000000000000081526004016103d4906129c0565b60405180910390fd5b60008083815260200190815260200160002060008473ffffffffffffffffffffffffffffffffffffffff1673ffffffffffffffffffffffffffffffffffffffff16815260200190815260200160002054905092915050565b60007fd9b67a26000000000000000000000000000000000000000000000000000000007bffffffffffffffffffffffffffffffffffffffffffffffffffffffff1916827bffffffffffffffffffffffffffffffffffffffffffffffffffffffff1916148061050057507f0e89341c000000000000000000000000000000000000000000000000000000007bffffffffffffffffffffffffffffffffffffffffffffffffffffffff1916827bffffffffffffffffffffffffffffffffffffffffffffffffffffffff1916145b80610510575061050f82610ec9565b5b9050919050565b600860009054906101000a900473ffffffffffffffffffffffffffffffffffffffff1681565b60606002805461054c90612a0f565b80601f016020809104026020016040519081016040528092919081815260200182805461057890612a0f565b80156105c55780601f1061059a576101008083540402835291602001916105c5565b820191906000526020600020905b8154815290600101906020018083116105a857829003601f168201915b50505050509050919050565b600760009054906101000a900473ffffffffffffffffffffffffffffffffffffffff1673ffffffffffffffffffffffffffffffffffffffff163373ffffffffffffffffffffffffffffffffffffffff1614610661576040517f08c379a000000000000000000000000000000000000000000000000000000000815260040161065890612ab3565b60405180910390fd5b80600860006101000a81548173ffffffffffffffffffffffffffffffffffffffff021916908373ffffffffffffffffffffffffffffffffffffffff16021790555050565b6106ad610f33565b73ffffffffffffffffffffffffffffffffffffffff168573ffffffffffffffffffffffffffffffffffffffff1614806106f357506106f2856106ed610f33565b610d94565b5b610732576040517f08c379a000000000000000000000000000000000000000000000000000000000815260040161072990612b45565b60405180910390fd5b61073f8585858585610f3b565b5050505050565b6060815183511461078c576040517f08c379a000000000000000000000000000000000000000000000000000000000815260040161078390612bd7565b60405180910390fd5b6000835167ffffffffffffffff8111156107a9576107a8612157565b5b6040519080825280602002602001820160405280156107d75781602001602082028036833780820191505090505b50905060005b8451811015610854576108248582815181106107fc576107fb612bf7565b5b602002602001015185838151811061081757610816612bf7565b5b602002602001015161036c565b82828151811061083757610836612bf7565b5b6020026020010181815250508061084d90612c55565b90506107dd565b508091505092915050565b60008061086b83610ba3565b119050919050565b61088561087e610f33565b838361124f565b5050565b60066020528060005260406000206000915054906101000a900460ff1681565b6000600460008154809291906108be90612c55565b9190505550600060045490506108e633826001604051806020016040528060008152506113bc565b600015156006600085815260200190815260200160002060009054906101000a900460ff1615151461094d576040517f08c379a000000000000000000000000000000000000000000000000000000000815260040161094490612cea565b60405180910390fd5b6000600860009054906101000a900473ffffffffffffffffffffffffffffffffffffffff16905060008173ffffffffffffffffffffffffffffffffffffffff166323374b9d866040518263ffffffff1660e01b81526004016109af9190611f3d565b600060405180830381865afa1580156109cc573d6000803e3d6000fd5b505050506040513d6000823e3d601f19601f820116820180604052508101906109f59190612fab565b905060011515816101200151151514610a43576040517f08c379a0000000000000000000000000000000000000000000000000000000008152600401610a3a90613066565b60405180910390fd5b600115158160a00151151514610a8e576040517f08c379a0000000000000000000000000000000000000000000000000000000008152600401610a85906130f8565b60405180910390fd5b60006040518060c001604052808a81526020018981526020018781526020016000815260200188815260200142815250905080600560008681526020019081526020016000206000820151816000019080519060200190610af0929190611da3565b506020820151816001019080519060200190610b0d929190611da3565b5060408201518160020155606082015181600301556080820151816004019080519060200190610b3e929190611da3565b5060a082015181600501559050507f54759de35da3706adafb7ba0eea0b307160fc4576df0cddc11dd4b2ce1154558848a8a8960008c8760a00151604051610b8c979695949392919061315d565b60405180910390a183945050505050949350505050565b600060036000838152602001908152602001600020549050919050565b6005602052806000526040600020600091509050806000018054610be390612a0f565b80601f0160208091040260200160405190810160405280929190818152602001828054610c0f90612a0f565b8015610c5c5780601f10610c3157610100808354040283529160200191610c5c565b820191906000526020600020905b815481529060010190602001808311610c3f57829003601f168201915b505050505090806001018054610c7190612a0f565b80601f0160208091040260200160405190810160405280929190818152602001828054610c9d90612a0f565b8015610cea5780601f10610cbf57610100808354040283529160200191610cea565b820191906000526020600020905b815481529060010190602001808311610ccd57829003601f168201915b505050505090806002015490806003015490806004018054610d0b90612a0f565b80601f0160208091040260200160405190810160405280929190818152602001828054610d3790612a0f565b8015610d845780601f10610d5957610100808354040283529160200191610d84565b820191906000526020600020905b815481529060010190602001808311610d6757829003601f168201915b5050505050908060050154905086565b6000600160008473ffffffffffffffffffffffffffffffffffffffff1673ffffffffffffffffffffffffffffffffffffffff16815260200190815260200160002060008373ffffffffffffffffffffffffffffffffffffffff1673ffffffffffffffffffffffffffffffffffffffff16815260200190815260200160002060009054906101000a900460ff16905092915050565b610e30610f33565b73ffffffffffffffffffffffffffffffffffffffff168573ffffffffffffffffffffffffffffffffffffffff161480610e765750610e7585610e70610f33565b610d94565b5b610eb5576040517f08c379a0000000000000000000000000000000000000000000000000000000008152600401610eac90613253565b60405180910390fd5b610ec28585858585611552565b5050505050565b60007f01ffc9a7000000000000000000000000000000000000000000000000000000007bffffffffffffffffffffffffffffffffffffffffffffffffffffffff1916827bffffffffffffffffffffffffffffffffffffffffffffffffffffffff1916149050919050565b600033905090565b8151835114610f7f576040517f08c379a0000000000000000000000000000000000000000000000000000000008152600401610f76906132e5565b60405180910390fd5b600073ffffffffffffffffffffffffffffffffffffffff168473ffffffffffffffffffffffffffffffffffffffff161415610fef576040517f08c379a0000000000000000000000000000000000000000000000000000000008152600401610fe690613377565b60405180910390fd5b6000610ff9610f33565b90506110098187878787876117d4565b60005b84518110156111ba57600085828151811061102a57611029612bf7565b5b60200260200101519050600085838151811061104957611048612bf7565b5b60200260200101519050600080600084815260200190815260200160002060008b73ffffffffffffffffffffffffffffffffffffffff1673ffffffffffffffffffffffffffffffffffffffff168152602001908152602001600020549050818110156110ea576040517f08c379a00000000000000000000000000000000000000000000000000000000081526004016110e190613409565b60405180910390fd5b81810360008085815260200190815260200160002060008c73ffffffffffffffffffffffffffffffffffffffff1673ffffffffffffffffffffffffffffffffffffffff168152602001908152602001600020819055508160008085815260200190815260200160002060008b73ffffffffffffffffffffffffffffffffffffffff1673ffffffffffffffffffffffffffffffffffffffff168152602001908152602001600020600082825461119f9190613429565b92505081905550505050806111b390612c55565b905061100c565b508473ffffffffffffffffffffffffffffffffffffffff168673ffffffffffffffffffffffffffffffffffffffff168273ffffffffffffffffffffffffffffffffffffffff167f4a39dc06d4c0dbc64b70af90fd698a233a518aa5d07e595d983b8c0526c8f7fb878760405161123192919061347f565b60405180910390a461124781878787878761194e565b505050505050565b8173ffffffffffffffffffffffffffffffffffffffff168373ffffffffffffffffffffffffffffffffffffffff1614156112be576040517f08c379a00000000000000000000000000000000000000000000000000000000081526004016112b590613528565b60405180910390fd5b80600160008573ffffffffffffffffffffffffffffffffffffffff1673ffffffffffffffffffffffffffffffffffffffff16815260200190815260200160002060008473ffffffffffffffffffffffffffffffffffffffff1673ffffffffffffffffffffffffffffffffffffffff16815260200190815260200160002060006101000a81548160ff0219169083151502179055508173ffffffffffffffffffffffffffffffffffffffff168373ffffffffffffffffffffffffffffffffffffffff167f17307eab39ab6107e8899845ad3d59bd9653f200f220920489ca2b5937696c31836040516113af9190611ff8565b60405180910390a3505050565b600073ffffffffffffffffffffffffffffffffffffffff168473ffffffffffffffffffffffffffffffffffffffff16141561142c576040517f08c379a0000000000000000000000000000000000000000000000000000000008152600401611423906135ba565b60405180910390fd5b6000611436610f33565b90506114578160008761144888611b26565b61145188611b26565b876117d4565b8260008086815260200190815260200160002060008773ffffffffffffffffffffffffffffffffffffffff1673ffffffffffffffffffffffffffffffffffffffff16815260200190815260200160002060008282546114b69190613429565b925050819055508473ffffffffffffffffffffffffffffffffffffffff16600073ffffffffffffffffffffffffffffffffffffffff168273ffffffffffffffffffffffffffffffffffffffff167fc3d58168c5ae7397731d063d5bbf3d657854427343f4c083240f7aacaa2d0f6287876040516115349291906135da565b60405180910390a461154b81600087878787611ba0565b5050505050565b600073ffffffffffffffffffffffffffffffffffffffff168473ffffffffffffffffffffffffffffffffffffffff1614156115c2576040517f08c379a00000000000000000000000000000000000000000000000000000000081526004016115b990613377565b60405180910390fd5b60006115cc610f33565b90506115ec8187876115dd88611b26565b6115e688611b26565b876117d4565b600080600086815260200190815260200160002060008873ffffffffffffffffffffffffffffffffffffffff1673ffffffffffffffffffffffffffffffffffffffff16815260200190815260200160002054905083811015611683576040517f08c379a000000000000000000000000000000000000000000000000000000000815260040161167a90613409565b60405180910390fd5b83810360008087815260200190815260200160002060008973ffffffffffffffffffffffffffffffffffffffff1673ffffffffffffffffffffffffffffffffffffffff168152602001908152602001600020819055508360008087815260200190815260200160002060008873ffffffffffffffffffffffffffffffffffffffff1673ffffffffffffffffffffffffffffffffffffffff16815260200190815260200160002060008282546117389190613429565b925050819055508573ffffffffffffffffffffffffffffffffffffffff168773ffffffffffffffffffffffffffffffffffffffff168373ffffffffffffffffffffffffffffffffffffffff167fc3d58168c5ae7397731d063d5bbf3d657854427343f4c083240f7aacaa2d0f6288886040516117b59291906135da565b60405180910390a46117cb828888888888611ba0565b50505050505050565b6117e2868686868686611d78565b600073ffffffffffffffffffffffffffffffffffffffff168573ffffffffffffffffffffffffffffffffffffffff1614156118945760005b83518110156118925782818151811061183657611835612bf7565b5b60200260200101516003600086848151811061185557611854612bf7565b5b60200260200101518152602001908152602001600020600082825461187a9190613429565b925050819055508061188b90612c55565b905061181a565b505b600073ffffffffffffffffffffffffffffffffffffffff168473ffffffffffffffffffffffffffffffffffffffff1614156119465760005b8351811015611944578281815181106118e8576118e7612bf7565b5b60200260200101516003600086848151811061190757611906612bf7565b5b60200260200101518152602001908152602001600020600082825461192c9190613603565b925050819055508061193d90612c55565b90506118cc565b505b505050505050565b61196d8473ffffffffffffffffffffffffffffffffffffffff16611d80565b15611b1e578373ffffffffffffffffffffffffffffffffffffffff1663bc197c8187878686866040518663ffffffff1660e01b81526004016119b395949392919061368c565b6020604051808303816000875af19250505080156119ef57506040513d601f19601f820116820180604052508101906119ec9190613709565b60015b611a95576119fb613743565b806308c379a01415611a585750611a10613765565b80611a1b5750611a5a565b806040517f08c379a0000000000000000000000000000000000000000000000000000000008152600401611a4f9190612103565b60405180910390fd5b505b6040517f08c379a0000000000000000000000000000000000000000000000000000000008152600401611a8c9061386d565b60405180910390fd5b63bc197c8160e01b7bffffffffffffffffffffffffffffffffffffffffffffffffffffffff1916817bffffffffffffffffffffffffffffffffffffffffffffffffffffffff191614611b1c576040517f08c379a0000000000000000000000000000000000000000000000000000000008152600401611b13906138ff565b60405180910390fd5b505b505050505050565b60606000600167ffffffffffffffff811115611b4557611b44612157565b5b604051908082528060200260200182016040528015611b735781602001602082028036833780820191505090505b5090508281600081518110611b8b57611b8a612bf7565b5b60200260200101818152505080915050919050565b611bbf8473ffffffffffffffffffffffffffffffffffffffff16611d80565b15611d70578373ffffffffffffffffffffffffffffffffffffffff1663f23a6e6187878686866040518663ffffffff1660e01b8152600401611c0595949392919061391f565b6020604051808303816000875af1925050508015611c4157506040513d601f19601f82011682018060405250810190611c3e9190613709565b60015b611ce757611c4d613743565b806308c379a01415611caa5750611c62613765565b80611c6d5750611cac565b806040517f08c379a0000000000000000000000000000000000000000000000000000000008152600401611ca19190612103565b60405180910390fd5b505b6040517f08c379a0000000000000000000000000000000000000000000000000000000008152600401611cde9061386d565b60405180910390fd5b63f23a6e6160e01b7bffffffffffffffffffffffffffffffffffffffffffffffffffffffff1916817bffffffffffffffffffffffffffffffffffffffffffffffffffffffff191614611d6e576040517f08c379a0000000000000000000000000000000000000000000000000000000008152600401611d65906138ff565b60405180910390fd5b505b505050505050565b505050505050565b6000808273ffffffffffffffffffffffffffffffffffffffff163b119050919050565b828054611daf90612a0f565b90600052602060002090601f016020900481019282611dd15760008555611e18565b82601f10611dea57805160ff1916838001178555611e18565b82800160010185558215611e18579182015b82811115611e17578251825591602001919060010190611dfc565b5b509050611e259190611e29565b5090565b5b80821115611e42576000816000905550600101611e2a565b5090565b6000604051905090565b600080fd5b600080fd5b600073ffffffffffffffffffffffffffffffffffffffff82169050919050565b6000611e8582611e5a565b9050919050565b611e9581611e7a565b8114611ea057600080fd5b50565b600081359050611eb281611e8c565b92915050565b6000819050919050565b611ecb81611eb8565b8114611ed657600080fd5b50565b600081359050611ee881611ec2565b92915050565b60008060408385031215611f0557611f04611e50565b5b6000611f1385828601611ea3565b9250506020611f2485828601611ed9565b9150509250929050565b611f3781611eb8565b82525050565b6000602082019050611f526000830184611f2e565b92915050565b60007fffffffff0000000000000000000000000000000000000000000000000000000082169050919050565b611f8d81611f58565b8114611f9857600080fd5b50565b600081359050611faa81611f84565b92915050565b600060208284031215611fc657611fc5611e50565b5b6000611fd484828501611f9b565b91505092915050565b60008115159050919050565b611ff281611fdd565b82525050565b600060208201905061200d6000830184611fe9565b92915050565b61201c81611e7a565b82525050565b60006020820190506120376000830184612013565b92915050565b60006020828403121561205357612052611e50565b5b600061206184828501611ed9565b91505092915050565b600081519050919050565b600082825260208201905092915050565b60005b838110156120a4578082015181840152602081019050612089565b838111156120b3576000848401525b50505050565b6000601f19601f8301169050919050565b60006120d58261206a565b6120df8185612075565b93506120ef818560208601612086565b6120f8816120b9565b840191505092915050565b6000602082019050818103600083015261211d81846120ca565b905092915050565b60006020828403121561213b5761213a611e50565b5b600061214984828501611ea3565b91505092915050565b600080fd5b7f4e487b7100000000000000000000000000000000000000000000000000000000600052604160045260246000fd5b61218f826120b9565b810181811067ffffffffffffffff821117156121ae576121ad612157565b5b80604052505050565b60006121c1611e46565b90506121cd8282612186565b919050565b600067ffffffffffffffff8211156121ed576121ec612157565b5b602082029050602081019050919050565b600080fd5b6000612216612211846121d2565b6121b7565b90508083825260208201905060208402830185811115612239576122386121fe565b5b835b81811015612262578061224e8882611ed9565b84526020840193505060208101905061223b565b5050509392505050565b600082601f83011261228157612280612152565b5b8135612291848260208601612203565b91505092915050565b600080fd5b600067ffffffffffffffff8211156122ba576122b9612157565b5b6122c3826120b9565b9050602081019050919050565b82818337600083830152505050565b60006122f26122ed8461229f565b6121b7565b90508281526020810184848401111561230e5761230d61229a565b5b6123198482856122d0565b509392505050565b600082601f83011261233657612335612152565b5b81356123468482602086016122df565b91505092915050565b600080600080600060a0868803121561236b5761236a611e50565b5b600061237988828901611ea3565b955050602061238a88828901611ea3565b945050604086013567ffffffffffffffff8111156123ab576123aa611e55565b5b6123b78882890161226c565b935050606086013567ffffffffffffffff8111156123d8576123d7611e55565b5b6123e48882890161226c565b925050608086013567ffffffffffffffff81111561240557612404611e55565b5b61241188828901612321565b9150509295509295909350565b600067ffffffffffffffff82111561243957612438612157565b5b602082029050602081019050919050565b600061245d6124588461241e565b6121b7565b905080838252602082019050602084028301858111156124805761247f6121fe565b5b835b818110156124a957806124958882611ea3565b845260208401935050602081019050612482565b5050509392505050565b600082601f8301126124c8576124c7612152565b5b81356124d884826020860161244a565b91505092915050565b600080604083850312156124f8576124f7611e50565b5b600083013567ffffffffffffffff81111561251657612515611e55565b5b612522858286016124b3565b925050602083013567ffffffffffffffff81111561254357612542611e55565b5b61254f8582860161226c565b9150509250929050565b600081519050919050565b600082825260208201905092915050565b6000819050602082019050919050565b61258e81611eb8565b82525050565b60006125a08383612585565b60208301905092915050565b6000602082019050919050565b60006125c482612559565b6125ce8185612564565b93506125d983612575565b8060005b8381101561260a5781516125f18882612594565b97506125fc836125ac565b9250506001810190506125dd565b5085935050505092915050565b6000602082019050818103600083015261263181846125b9565b905092915050565b61264281611fdd565b811461264d57600080fd5b50565b60008135905061265f81612639565b92915050565b6000806040838503121561267c5761267b611e50565b5b600061268a85828601611ea3565b925050602061269b85828601612650565b9150509250929050565b600067ffffffffffffffff8211156126c0576126bf612157565b5b6126c9826120b9565b9050602081019050919050565b60006126e96126e4846126a5565b6121b7565b9050828152602081018484840111156127055761270461229a565b5b6127108482856122d0565b509392505050565b600082601f83011261272d5761272c612152565b5b813561273d8482602086016126d6565b91505092915050565b600080600080608085870312156127605761275f611e50565b5b600085013567ffffffffffffffff81111561277e5761277d611e55565b5b61278a87828801612718565b945050602085013567ffffffffffffffff8111156127ab576127aa611e55565b5b6127b787828801612718565b935050604085013567ffffffffffffffff8111156127d8576127d7611e55565b5b6127e487828801612718565b92505060606127f587828801611ed9565b91505092959194509250565b600060c082019050818103600083015261281b81896120ca565b9050818103602083015261282f81886120ca565b905061283e6040830187611f2e565b61284b6060830186611f2e565b818103608083015261285d81856120ca565b905061286c60a0830184611f2e565b979650505050505050565b6000806040838503121561288e5761288d611e50565b5b600061289c85828601611ea3565b92505060206128ad85828601611ea3565b9150509250929050565b600080600080600060a086880312156128d3576128d2611e50565b5b60006128e188828901611ea3565b95505060206128f288828901611ea3565b945050604061290388828901611ed9565b935050606061291488828901611ed9565b925050608086013567ffffffffffffffff81111561293557612934611e55565b5b61294188828901612321565b9150509295509295909350565b7f455243313135353a2062616c616e636520717565727920666f7220746865207a60008201527f65726f2061646472657373000000000000000000000000000000000000000000602082015250565b60006129aa602b83612075565b91506129b58261294e565b604082019050919050565b600060208201905081810360008301526129d98161299d565b9050919050565b7f4e487b7100000000000000000000000000000000000000000000000000000000600052602260045260246000fd5b60006002820490506001821680612a2757607f821691505b60208210811415612a3b57612a3a6129e0565b5b50919050565b7f596f7520617265206e6f7420617574686f72697a656420666f7220746869732060008201527f616374696f6e0000000000000000000000000000000000000000000000000000602082015250565b6000612a9d602683612075565b9150612aa882612a41565b604082019050919050565b60006020820190508181036000830152612acc81612a90565b9050919050565b7f455243313135353a207472616e736665722063616c6c6572206973206e6f742060008201527f6f776e6572206e6f7220617070726f7665640000000000000000000000000000602082015250565b6000612b2f603283612075565b9150612b3a82612ad3565b604082019050919050565b60006020820190508181036000830152612b5e81612b22565b9050919050565b7f455243313135353a206163636f756e747320616e6420696473206c656e67746860008201527f206d69736d617463680000000000000000000000000000000000000000000000602082015250565b6000612bc1602983612075565b9150612bcc82612b65565b604082019050919050565b60006020820190508181036000830152612bf081612bb4565b9050919050565b7f4e487b7100000000000000000000000000000000000000000000000000000000600052603260045260246000fd5b7f4e487b7100000000000000000000000000000000000000000000000000000000600052601160045260246000fd5b6000612c6082611eb8565b91507fffffffffffffffffffffffffffffffffffffffffffffffffffffffffffffffff821415612c9357612c92612c26565b5b600182019050919050565b7f5365656420616c72656164792075736564000000000000000000000000000000600082015250565b6000612cd4601183612075565b9150612cdf82612c9e565b602082019050919050565b60006020820190508181036000830152612d0381612cc7565b9050919050565b600080fd5b600080fd5b600081519050612d2381611ec2565b92915050565b6000612d3c612d37846121d2565b6121b7565b90508083825260208201905060208402830185811115612d5f57612d5e6121fe565b5b835b81811015612d885780612d748882612d14565b845260208401935050602081019050612d61565b5050509392505050565b600082601f830112612da757612da6612152565b5b8151612db7848260208601612d29565b91505092915050565b6000612dd3612dce846126a5565b6121b7565b905082815260208101848484011115612def57612dee61229a565b5b612dfa848285612086565b509392505050565b600082601f830112612e1757612e16612152565b5b8151612e27848260208601612dc0565b91505092915050565b600081519050612e3f81612639565b92915050565b60006101408284031215612e5c57612e5b612d0a565b5b612e676101406121b7565b9050600082015167ffffffffffffffff811115612e8757612e86612d0f565b5b612e9384828501612d92565b6000830152506020612ea784828501612d14565b602083015250604082015167ffffffffffffffff811115612ecb57612eca612d0f565b5b612ed784828501612e02565b604083015250606082015167ffffffffffffffff811115612efb57612efa612d0f565b5b612f0784828501612e02565b6060830152506080612f1b84828501612d14565b60808301525060a0612f2f84828501612e30565b60a08301525060c0612f4384828501612e30565b60c08301525060e0612f5784828501612d14565b60e08301525061010082015167ffffffffffffffff811115612f7c57612f7b612d0f565b5b612f8884828501612e02565b61010083015250610120612f9e84828501612e30565b6101208301525092915050565b600060208284031215612fc157612fc0611e50565b5b600082015167ffffffffffffffff811115612fdf57612fde611e55565b5b612feb84828501612e45565b91505092915050565b7f4e6f20636f6e747269627574696f6e207769746820746869732069642069732060008201527f666f756e64000000000000000000000000000000000000000000000000000000602082015250565b6000613050602583612075565b915061305b82612ff4565b604082019050919050565b6000602082019050818103600083015261307f81613043565b9050919050565b7f436f6e747269627574696f6e206e6565647320746f206265207365656420636f60008201527f6e747269627574696f6e00000000000000000000000000000000000000000000602082015250565b60006130e2602a83612075565b91506130ed82613086565b604082019050919050565b60006020820190508181036000830152613111816130d5565b9050919050565b6000819050919050565b6000819050919050565b600061314761314261313d84613118565b613122565b611eb8565b9050919050565b6131578161312c565b82525050565b600060e082019050613172600083018a611f2e565b818103602083015261318481896120ca565b9050818103604083015261319881886120ca565b90506131a76060830187611f2e565b6131b4608083018661314e565b81810360a08301526131c681856120ca565b90506131d560c0830184611f2e565b98975050505050505050565b7f455243313135353a2063616c6c6572206973206e6f74206f776e6572206e6f7260008201527f20617070726f7665640000000000000000000000000000000000000000000000602082015250565b600061323d602983612075565b9150613248826131e1565b604082019050919050565b6000602082019050818103600083015261326c81613230565b9050919050565b7f455243313135353a2069647320616e6420616d6f756e7473206c656e6774682060008201527f6d69736d61746368000000000000000000000000000000000000000000000000602082015250565b60006132cf602883612075565b91506132da82613273565b604082019050919050565b600060208201905081810360008301526132fe816132c2565b9050919050565b7f455243313135353a207472616e7366657220746f20746865207a65726f20616460008201527f6472657373000000000000000000000000000000000000000000000000000000602082015250565b6000613361602583612075565b915061336c82613305565b604082019050919050565b6000602082019050818103600083015261339081613354565b9050919050565b7f455243313135353a20696e73756666696369656e742062616c616e636520666f60008201527f72207472616e7366657200000000000000000000000000000000000000000000602082015250565b60006133f3602a83612075565b91506133fe82613397565b604082019050919050565b60006020820190508181036000830152613422816133e6565b9050919050565b600061343482611eb8565b915061343f83611eb8565b9250827fffffffffffffffffffffffffffffffffffffffffffffffffffffffffffffffff0382111561347457613473612c26565b5b828201905092915050565b6000604082019050818103600083015261349981856125b9565b905081810360208301526134ad81846125b9565b90509392505050565b7f455243313135353a2073657474696e6720617070726f76616c2073746174757360008201527f20666f722073656c660000000000000000000000000000000000000000000000602082015250565b6000613512602983612075565b915061351d826134b6565b604082019050919050565b6000602082019050818103600083015261354181613505565b9050919050565b7f455243313135353a206d696e7420746f20746865207a65726f2061646472657360008201527f7300000000000000000000000000000000000000000000000000000000000000602082015250565b60006135a4602183612075565b91506135af82613548565b604082019050919050565b600060208201905081810360008301526135d381613597565b9050919050565b60006040820190506135ef6000830185611f2e565b6135fc6020830184611f2e565b9392505050565b600061360e82611eb8565b915061361983611eb8565b92508282101561362c5761362b612c26565b5b828203905092915050565b600081519050919050565b600082825260208201905092915050565b600061365e82613637565b6136688185613642565b9350613678818560208601612086565b613681816120b9565b840191505092915050565b600060a0820190506136a16000830188612013565b6136ae6020830187612013565b81810360408301526136c081866125b9565b905081810360608301526136d481856125b9565b905081810360808301526136e88184613653565b90509695505050505050565b60008151905061370381611f84565b92915050565b60006020828403121561371f5761371e611e50565b5b600061372d848285016136f4565b91505092915050565b60008160e01c9050919050565b600060033d11156137625760046000803e61375f600051613736565b90505b90565b600060443d1015613775576137f8565b61377d611e46565b60043d036004823e80513d602482011167ffffffffffffffff821117156137a55750506137f8565b808201805167ffffffffffffffff8111156137c357505050506137f8565b80602083010160043d0385018111156137e05750505050506137f8565b6137ef82602001850186612186565b82955050505050505b90565b7f455243313135353a207472616e7366657220746f206e6f6e204552433131353560008201527f526563656976657220696d706c656d656e746572000000000000000000000000602082015250565b6000613857603483612075565b9150613862826137fb565b604082019050919050565b600060208201905081810360008301526138868161384a565b9050919050565b7f455243313135353a204552433131353552656365697665722072656a6563746560008201527f6420746f6b656e73000000000000000000000000000000000000000000000000602082015250565b60006138e9602883612075565b91506138f48261388d565b604082019050919050565b60006020820190508181036000830152613918816138dc565b9050919050565b600060a0820190506139346000830188612013565b6139416020830187612013565b61394e6040830186611f2e565b61395b6060830185611f2e565b818103608083015261396d8184613653565b9050969550505050505056fea2646970667358221220c0e4523d604a5a5007e3165282ca8d6b7132d8d241bbc468000879894338fc6764736f6c634300080c0033",
  "immutableReferences": {},
  "source": "pragma solidity ^0.8.0;\n\nimport \"@openzeppelin/contracts/token/ERC1155/ERC1155.sol\";\nimport \"@openzeppelin/contracts/token/ERC1155/extensions/ERC1155Supply.sol\";\nimport \"@openzeppelin/contracts/utils/Counters.sol\";\nimport \"@openzeppelin/contracts/access/Ownable.sol\";\nimport \"./interface/IContribution.sol\";\n\n// ERC 20 balance[adress] => 2 contracts // governance and comunity\n// ERC 721 blance[adress] => 1 contract // records\n// ERC 1155\n\ncontract RecordsContract is ERC1155Supply {\n    uint256 newTokenId = 0;\n\n    // This mapping contains data of record\n    mapping(uint256 => RecordToken) public recordData;\n    // This mapping contains if seed data id is being used or not\n    mapping(uint256 => bool) public seedIdUsed;\n\n    address OWNER;\n    address public CONTRIBUTION_CONTRACT_ADDRESS;\n\n    struct RecordToken {\n        string name;\n        string image;\n        uint256 seedId;\n        uint256 parentId;\n        string recordCategory;\n        uint256 creationDate;\n    }\n\n    /**\n     * @dev This event is emited when new record is created\n     * @param recordId This is the recordId\n     * @param name Name of the record\n     * @param image This is the image of the record\n     * @param seedId This is the seed contribution id\n     * @param parentId This is the id of the parent record from which record is created\n     * @param recordCategory This is the record category\n     * @param creationDate This is the creation date of the record\n     */\n    event RecordCreated(\n        uint256 recordId,\n        string name,\n        string image,\n        uint256 seedId,\n        uint256 parentId,\n        string recordCategory,\n        uint256 creationDate\n    );\n\n    constructor() ERC1155(\"https://something.com/{id}\") {\n        OWNER = msg.sender;\n    }\n\n    /**\n     * @dev Modifier to check that the person who accesses a specific function is the owner of contract himself.\n     */\n    modifier ownerOnly() {\n        require(msg.sender == OWNER, \"You are not authorized for this action\");\n        _;\n    }\n\n    /**\n     * @dev This function sets the Voting Contract address\n     */\n    function setContributionContractAddress(address contributionContractAddress)\n        public\n        ownerOnly\n    {\n        CONTRIBUTION_CONTRACT_ADDRESS = contributionContractAddress;\n    }\n\n    /**\n     * @dev This function creates new record\n     * @param name This is the total supply of governance token\n     * @param image This is the total supply of community token\n     * @param seedId this is hash of the preview file\n     * @param recordCategory this is hash of the preview file\n     */\n    function createNewRecord(\n        string memory name,\n        string memory image,\n        string memory recordCategory,\n        uint256 seedId\n    ) public returns (uint256 recordId) {\n        newTokenId++;\n        uint256 recordId = newTokenId;\n        _mint(msg.sender, recordId, 1, \"\");\n\n        require(seedIdUsed[seedId] == false, \"Seed already used\");\n\n        IContribution contributionContract = IContribution(\n            CONTRIBUTION_CONTRACT_ADDRESS\n        );\n\n        IContribution.Contribution memory contribution = contributionContract\n            .getContributionData(seedId);\n\n        require(\n            contribution.isPresent == true,\n            \"No contribution with this id is found\"\n        );\n\n        require(\n            contribution.seedContribution == true,\n            \"Contribution needs to be seed contribution\"\n        );\n\n        RecordToken memory recordToken = RecordToken({\n            name: name,\n            image: image,\n            seedId: seedId,\n            parentId: 0,\n            recordCategory: recordCategory,\n            creationDate: block.timestamp\n        });\n\n        recordData[recordId] = recordToken;\n\n        emit RecordCreated({\n            recordId: recordId,\n            name: name,\n            image: image,\n            seedId: seedId,\n            parentId: 0,\n            recordCategory: recordCategory,\n            creationDate: recordToken.creationDate\n        });\n\n        return (recordId);\n    }\n}\n",
  "sourcePath": "/Users/a1/Desktop/Office/projects/CrowdRecords/Contracts/contracts/RecordsContract.sol",
  "compiler": {
    "name": "solc",
    "version": "0.8.12+commit.f00d7308.Emscripten.clang"
  },
  "schemaVersion": "3.4.6",
  "updatedAt": "2022-07-23T13:28:07.981Z",
  "networkType": "ethereum",
  "devdoc": {
    "events": {
      "RecordCreated(uint256,string,string,uint256,uint256,string,uint256)": {
        "details": "This event is emited when new record is created",
        "params": {
          "creationDate": "This is the creation date of the record",
          "image": "This is the image of the record",
          "name": "Name of the record",
          "parentId": "This is the id of the parent record from which record is created",
          "recordCategory": "This is the record category",
          "recordId": "This is the recordId",
          "seedId": "This is the seed contribution id"
        }
      }
    },
    "kind": "dev",
    "methods": {
      "balanceOf(address,uint256)": {
        "details": "See {IERC1155-balanceOf}. Requirements: - `account` cannot be the zero address."
      },
      "balanceOfBatch(address[],uint256[])": {
        "details": "See {IERC1155-balanceOfBatch}. Requirements: - `accounts` and `ids` must have the same length."
      },
      "createNewRecord(string,string,string,uint256)": {
        "details": "This function creates new record",
        "params": {
          "image": "This is the total supply of community token",
          "name": "This is the total supply of governance token",
          "recordCategory": "this is hash of the preview file",
          "seedId": "this is hash of the preview file"
        }
      },
      "exists(uint256)": {
        "details": "Indicates whether any token exist with a given id, or not."
      },
      "isApprovedForAll(address,address)": {
        "details": "See {IERC1155-isApprovedForAll}."
      },
      "safeBatchTransferFrom(address,address,uint256[],uint256[],bytes)": {
        "details": "See {IERC1155-safeBatchTransferFrom}."
      },
      "safeTransferFrom(address,address,uint256,uint256,bytes)": {
        "details": "See {IERC1155-safeTransferFrom}."
      },
      "setApprovalForAll(address,bool)": {
        "details": "See {IERC1155-setApprovalForAll}."
      },
      "setContributionContractAddress(address)": {
        "details": "This function sets the Voting Contract address"
      },
      "supportsInterface(bytes4)": {
        "details": "See {IERC165-supportsInterface}."
      },
      "totalSupply(uint256)": {
        "details": "Total amount of tokens in with a given id."
      },
      "uri(uint256)": {
        "details": "See {IERC1155MetadataURI-uri}. This implementation returns the same URI for *all* token types. It relies on the token type ID substitution mechanism https://eips.ethereum.org/EIPS/eip-1155#metadata[defined in the EIP]. Clients calling this function must replace the `\\{id\\}` substring with the actual token type ID."
      }
    },
    "version": 1
  },
  "userdoc": {
    "kind": "user",
    "methods": {},
    "version": 1
  }
}