{
  "contractName": "TracksContract",
  "abi": [
    {
      "inputs": [],
      "stateMutability": "nonpayable",
      "type": "constructor"
    },
    {
      "anonymous": false,
      "inputs": [
        {
          "indexed": false,
          "internalType": "uint256",
          "name": "trackId",
          "type": "uint256"
        },
        {
          "indexed": false,
          "internalType": "string",
          "name": "filehash",
          "type": "string"
        },
        {
          "indexed": false,
          "internalType": "string",
          "name": "filelink",
          "type": "string"
        },
        {
          "indexed": false,
          "internalType": "string",
          "name": "category",
          "type": "string"
        },
        {
          "indexed": false,
          "internalType": "uint256",
          "name": "creationDate",
          "type": "uint256"
        },
        {
          "indexed": false,
          "internalType": "address",
          "name": "owner",
          "type": "address"
        }
      ],
      "name": "TrackCreated",
      "type": "event"
    },
    {
      "inputs": [
        {
          "internalType": "uint256",
          "name": "",
          "type": "uint256"
        }
      ],
      "name": "tracksData",
      "outputs": [
        {
          "internalType": "string",
          "name": "filehash",
          "type": "string"
        },
        {
          "internalType": "string",
          "name": "filelink",
          "type": "string"
        },
        {
          "internalType": "string",
          "name": "category",
          "type": "string"
        },
        {
          "internalType": "uint256",
          "name": "creationDate",
          "type": "uint256"
        },
        {
          "internalType": "address",
          "name": "owner",
          "type": "address"
        }
      ],
      "stateMutability": "view",
      "type": "function",
      "constant": true
    },
    {
      "inputs": [
        {
          "components": [
            {
              "internalType": "string",
              "name": "filehash",
              "type": "string"
            },
            {
              "internalType": "string",
              "name": "filelink",
              "type": "string"
            },
            {
              "internalType": "string",
              "name": "category",
              "type": "string"
            }
          ],
          "internalType": "struct TracksContract.TrackPayload[]",
          "name": "tracksPayload",
          "type": "tuple[]"
        }
      ],
      "name": "createNewTracks",
      "outputs": [
        {
          "internalType": "uint256[]",
          "name": "",
          "type": "uint256[]"
        }
      ],
      "stateMutability": "nonpayable",
      "type": "function"
    },
    {
      "inputs": [
        {
          "internalType": "uint256[]",
          "name": "tracks",
          "type": "uint256[]"
        },
        {
          "internalType": "address",
          "name": "owner",
          "type": "address"
        }
      ],
      "name": "checkOwner",
      "outputs": [
        {
          "internalType": "bool",
          "name": "",
          "type": "bool"
        }
      ],
      "stateMutability": "view",
      "type": "function",
      "constant": true
    }
  ],
  "bytecode": "0x608060405234801561001057600080fd5b50610cfc806100206000396000f3fe608060405234801561001057600080fd5b50600436106100415760003560e01c806324833c2014610046578063450df1e01461006f578063b260c8c314610093575b600080fd5b610059610054366004610822565b6100b6565b6040516100669190610978565b60405180910390f35b61008261007d3660046109bc565b610349565b604051610066959493929190610a40565b6100a66100a1366004610ad1565b610526565b6040519015158152602001610066565b60606000825167ffffffffffffffff8111156100d4576100d46106c9565b6040519080825280602002602001820160405280156100fd578160200160208202803683370190505b50905060005b83518110156103425761011a600080546001019055565b60008054905060006040518060a0016040528087858151811061013f5761013f610b74565b602002602001015160000151815260200187858151811061016257610162610b74565b602002602001015160200151815260200187858151811061018557610185610b74565b60200260200101516040015181526020014281526020013373ffffffffffffffffffffffffffffffffffffffff168152509050806001600084815260200190815260200160002060008201518160000190805190602001906101e8929190610630565b5060208281015180516102019260018501920190610630565b506040820151805161021d916002840191602090910190610630565b506060820151816003015560808201518160040160006101000a81548173ffffffffffffffffffffffffffffffffffffffff021916908373ffffffffffffffffffffffffffffffffffffffff1602179055509050507fb55fdd821c64cca61b8ba8d000c8c066aab132ef1e3acfa62385db4205b33c02828785815181106102a6576102a6610b74565b6020026020010151600001518886815181106102c4576102c4610b74565b6020026020010151602001518987815181106102e2576102e2610b74565b60200260200101516040015185606001513360405161030696959493929190610ba3565b60405180910390a18184848151811061032157610321610b74565b6020026020010181815250505050808061033a90610c12565b915050610103565b5092915050565b60016020526000908152604090208054819061036490610c72565b80601f016020809104026020016040519081016040528092919081815260200182805461039090610c72565b80156103dd5780601f106103b2576101008083540402835291602001916103dd565b820191906000526020600020905b8154815290600101906020018083116103c057829003601f168201915b5050505050908060010180546103f290610c72565b80601f016020809104026020016040519081016040528092919081815260200182805461041e90610c72565b801561046b5780601f106104405761010080835404028352916020019161046b565b820191906000526020600020905b81548152906001019060200180831161044e57829003601f168201915b50505050509080600201805461048090610c72565b80601f01602080910402602001604051908101604052809291908181526020018280546104ac90610c72565b80156104f95780601f106104ce576101008083540402835291602001916104f9565b820191906000526020600020905b8154815290600101906020018083116104dc57829003601f168201915b50505050600383015460049093015491929173ffffffffffffffffffffffffffffffffffffffff16905085565b600080835111610596576040517f08c379a000000000000000000000000000000000000000000000000000000000815260206004820181905260248201527f547261636b732073697a652073686f756c64206265206174206c656173742031604482015260640160405180910390fd5b60005b8351811015610624578273ffffffffffffffffffffffffffffffffffffffff16600160008684815181106105cf576105cf610b74565b60209081029190910181015182528101919091526040016000206004015473ffffffffffffffffffffffffffffffffffffffff161461061257600091505061062a565b8061061c81610c12565b915050610599565b50600190505b92915050565b82805461063c90610c72565b90600052602060002090601f01602090048101928261065e57600085556106a4565b82601f1061067757805160ff19168380011785556106a4565b828001600101855582156106a4579182015b828111156106a4578251825591602001919060010190610689565b506106b09291506106b4565b5090565b5b808211156106b057600081556001016106b5565b7f4e487b7100000000000000000000000000000000000000000000000000000000600052604160045260246000fd5b6040516060810167ffffffffffffffff8111828210171561071b5761071b6106c9565b60405290565b604051601f82017fffffffffffffffffffffffffffffffffffffffffffffffffffffffffffffffe016810167ffffffffffffffff81118282101715610768576107686106c9565b604052919050565b600067ffffffffffffffff82111561078a5761078a6106c9565b5060051b60200190565b600082601f8301126107a557600080fd5b813567ffffffffffffffff8111156107bf576107bf6106c9565b6107f060207fffffffffffffffffffffffffffffffffffffffffffffffffffffffffffffffe0601f84011601610721565b81815284602083860101111561080557600080fd5b816020850160208301376000918101602001919091529392505050565b6000602080838503121561083557600080fd5b823567ffffffffffffffff8082111561084d57600080fd5b818501915085601f83011261086157600080fd5b813561087461086f82610770565b610721565b81815260059190911b8301840190848101908883111561089357600080fd5b8585015b8381101561096b578035858111156108af5760008081fd5b86016060818c037fffffffffffffffffffffffffffffffffffffffffffffffffffffffffffffffe0018113156108e55760008081fd5b6108ed6106f8565b89830135888111156108ff5760008081fd5b61090d8e8c83870101610794565b825250604080840135898111156109245760008081fd5b6109328f8d83880101610794565b838d01525091830135918883111561094a5760008081fd5b6109588e8c85870101610794565b9082015285525050918601918601610897565b5098975050505050505050565b6020808252825182820181905260009190848201906040850190845b818110156109b057835183529284019291840191600101610994565b50909695505050505050565b6000602082840312156109ce57600080fd5b5035919050565b6000815180845260005b818110156109fb576020818501810151868301820152016109df565b81811115610a0d576000602083870101525b50601f017fffffffffffffffffffffffffffffffffffffffffffffffffffffffffffffffe0169290920160200192915050565b60a081526000610a5360a08301886109d5565b8281036020840152610a6581886109d5565b90508281036040840152610a7981876109d5565b91505083606083015273ffffffffffffffffffffffffffffffffffffffff831660808301529695505050505050565b803573ffffffffffffffffffffffffffffffffffffffff81168114610acc57600080fd5b919050565b60008060408385031215610ae457600080fd5b823567ffffffffffffffff811115610afb57600080fd5b8301601f81018513610b0c57600080fd5b80356020610b1c61086f83610770565b82815260059290921b83018101918181019088841115610b3b57600080fd5b938201935b83851015610b5957843582529382019390820190610b40565b9550610b689050868201610aa8565b93505050509250929050565b7f4e487b7100000000000000000000000000000000000000000000000000000000600052603260045260246000fd5b86815260c060208201526000610bbc60c08301886109d5565b8281036040840152610bce81886109d5565b90508281036060840152610be281876109d5565b91505083608083015273ffffffffffffffffffffffffffffffffffffffff831660a0830152979650505050505050565b60007fffffffffffffffffffffffffffffffffffffffffffffffffffffffffffffffff821415610c6b577f4e487b7100000000000000000000000000000000000000000000000000000000600052601160045260246000fd5b5060010190565b600181811c90821680610c8657607f821691505b60208210811415610cc0577f4e487b7100000000000000000000000000000000000000000000000000000000600052602260045260246000fd5b5091905056fea2646970667358221220a3d95c63a83b2f41689e075110c447f156cc179184af52a591e27f06fccc402664736f6c634300080c0033",
  "immutableReferences": {},
  "source": "pragma solidity ^0.8.0;\n\nimport \"@openzeppelin/contracts/token/ERC721/ERC721.sol\";\nimport \"@openzeppelin/contracts/utils/Counters.sol\";\nimport \"@openzeppelin/contracts/access/Ownable.sol\";\n\ncontract TracksContract {\n    using Counters for Counters.Counter;\n    Counters.Counter private _tokenIds;\n\n    /// @dev This holds data of individual tracks\n    /// @param filehash This is hash of the file\n    /// @param filelink This is the link to the file\n    /// @param category this is the category of song\n    /// @param creationDate this is hash of the preview file\n    /// @param owner this is owner of the track\n    struct Tracks {\n        string filehash;\n        string filelink;\n        string category;\n        uint256 creationDate;\n        address owner;\n    }\n\n    /// @dev This is the payload for the Tracks creation\n    /// @param filehash This is hash of the file\n    /// @param filelink This is the link to the file\n    /// @param category this is the category of song\n    struct TrackPayload {\n        string filehash;\n        string filelink;\n        string category;\n    }\n\n    /// @dev This is emited when a new track is created\n    /// @param trackId This is the id of the track\n    /// @param filehash This is hash of the file\n    /// @param filelink This is the link to the file\n    /// @param category this is the category of song\n    /// @param creationDate this is hash of the preview file\n    /// @param owner this is the owner of the track\n    event TrackCreated(\n        uint256 trackId,\n        string filehash,\n        string filelink,\n        string category,\n        uint256 creationDate,\n        address owner\n    );\n\n    mapping(uint256 => Tracks) public tracksData;\n\n    constructor() {}\n\n    /// @dev This function will be called by the user to create multiple tracks\n    /// @param tracksPayload This is the payload that contains multiple data\n    function createNewTracks(\n        TrackPayload[] memory tracksPayload\n    ) public returns (uint256[] memory) {\n        uint256[] memory trackIds = new uint256[](tracksPayload.length);\n        for (uint i = 0; i < tracksPayload.length; i++) {\n            _tokenIds.increment();\n\n            uint256 newTrackId = _tokenIds.current();\n            Tracks memory track = Tracks({\n                filehash: tracksPayload[i].filehash,\n                filelink: tracksPayload[i].filelink,\n                category: tracksPayload[i].category,\n                creationDate: block.timestamp,\n                owner: msg.sender\n            });\n\n            tracksData[newTrackId] = track;\n\n            emit TrackCreated({\n                filehash: tracksPayload[i].filehash,\n                filelink: tracksPayload[i].filelink,\n                category: tracksPayload[i].category,\n                trackId: newTrackId,\n                creationDate: track.creationDate,\n                owner: msg.sender\n            });\n            trackIds[i] = newTrackId;\n        }\n\n        return trackIds;\n    }\n\n    /// @dev This function checks if all the tracks are owned by the single user\n    /// @param tracks List of tracks Id which needs to be checked for the ownership\n    /// @param owner This is the address of the owner\n    /// @return status It returns true\n    function checkOwner(\n        uint256[] memory tracks,\n        address owner\n    ) public view returns (bool) {\n        require(tracks.length > 0, \"Tracks size should be at least 1\");\n        for (uint256 i = 0; i < tracks.length; i++) {\n            if (tracksData[tracks[i]].owner != owner) {\n                return false;\n            }\n        }\n        return true;\n    }\n}\n",
  "sourcePath": "/Users/a1/Desktop/Office/projects/CrowdRecords/Contracts/contracts/TracksContract.sol",
  "compiler": {
    "name": "solc",
    "version": "0.8.12+commit.f00d7308.Emscripten.clang"
  },
  "schemaVersion": "3.4.6",
  "updatedAt": "2023-05-17T12:27:25.678Z",
  "networkType": "ethereum",
  "devdoc": {
    "events": {
      "TrackCreated(uint256,string,string,string,uint256,address)": {
        "details": "This is emited when a new track is created",
        "params": {
          "category": "this is the category of song",
          "creationDate": "this is hash of the preview file",
          "filehash": "This is hash of the file",
          "filelink": "This is the link to the file",
          "owner": "this is the owner of the track",
          "trackId": "This is the id of the track"
        }
      }
    },
    "kind": "dev",
    "methods": {
      "checkOwner(uint256[],address)": {
        "details": "This function checks if all the tracks are owned by the single user",
        "params": {
          "owner": "This is the address of the owner",
          "tracks": "List of tracks Id which needs to be checked for the ownership"
        },
        "returns": {
          "_0": "status It returns true"
        }
      },
      "createNewTracks((string,string,string)[])": {
        "details": "This function will be called by the user to create multiple tracks",
        "params": {
          "tracksPayload": "This is the payload that contains multiple data"
        }
      }
    },
    "version": 1
  },
  "userdoc": {
    "kind": "user",
    "methods": {},
    "version": 1
  }
}