{
  "contractName": "TracksContract",
  "abi": [
    {
      "inputs": [],
      "stateMutability": "nonpayable",
      "type": "constructor"
    },
    {
      "anonymous": false,
      "inputs": [
        {
          "indexed": false,
          "internalType": "uint256",
          "name": "trackId",
          "type": "uint256"
        },
        {
          "indexed": false,
          "internalType": "string",
          "name": "filehash",
          "type": "string"
        },
        {
          "indexed": false,
          "internalType": "string",
          "name": "filelink",
          "type": "string"
        },
        {
          "indexed": false,
          "internalType": "string",
          "name": "category",
          "type": "string"
        },
        {
          "indexed": false,
          "internalType": "uint256",
          "name": "creationDate",
          "type": "uint256"
        },
        {
          "indexed": false,
          "internalType": "address",
          "name": "owner",
          "type": "address"
        }
      ],
      "name": "TrackCreated",
      "type": "event"
    },
    {
      "inputs": [
        {
          "internalType": "uint256",
          "name": "",
          "type": "uint256"
        }
      ],
      "name": "tracksData",
      "outputs": [
        {
          "internalType": "string",
          "name": "filehash",
          "type": "string"
        },
        {
          "internalType": "string",
          "name": "filelink",
          "type": "string"
        },
        {
          "internalType": "string",
          "name": "category",
          "type": "string"
        },
        {
          "internalType": "uint256",
          "name": "creationDate",
          "type": "uint256"
        },
        {
          "internalType": "address",
          "name": "owner",
          "type": "address"
        }
      ],
      "stateMutability": "view",
      "type": "function"
    },
    {
      "inputs": [
        {
          "internalType": "string",
          "name": "filehash",
          "type": "string"
        },
        {
          "internalType": "string",
          "name": "filelink",
          "type": "string"
        },
        {
          "internalType": "string",
          "name": "category",
          "type": "string"
        }
      ],
      "name": "createNewTrack",
      "outputs": [
        {
          "internalType": "uint256",
          "name": "",
          "type": "uint256"
        }
      ],
      "stateMutability": "nonpayable",
      "type": "function"
    },
    {
      "inputs": [
        {
          "internalType": "uint256[]",
          "name": "tracks",
          "type": "uint256[]"
        },
        {
          "internalType": "address",
          "name": "owner",
          "type": "address"
        }
      ],
      "name": "checkOwner",
      "outputs": [
        {
          "internalType": "bool",
          "name": "",
          "type": "bool"
        }
      ],
      "stateMutability": "view",
      "type": "function"
    }
  ],
  "bytecode": "0x608060405234801561001057600080fd5b50610a4a806100206000396000f3fe608060405234801561001057600080fd5b50600436106100415760003560e01c80633f50f05914610046578063450df1e01461006c578063b260c8c314610090575b600080fd5b61005961005436600461066d565b6100b3565b6040519081526020015b60405180910390f35b61007f61007a3660046106f5565b6101e1565b604051610063959493929190610779565b6100a361009e36600461080a565b6103be565b6040519015158152602001610063565b6000805460019081018083556040805160a0810182528781526020808201889052818301879052426060830152336080830152838652938452908420815180519394929384936101079284929101906104c8565b50602082810151805161012092600185019201906104c8565b506040820151805161013c9160028401916020909101906104c8565b506060828101516003830155608090920151600490910180547fffffffffffffffffffffffff00000000000000000000000000000000000000001673ffffffffffffffffffffffffffffffffffffffff9092169190911790558101516040517fb55fdd821c64cca61b8ba8d000c8c066aab132ef1e3acfa62385db4205b33c02916101d09185918a918a918a9133906108c2565b60405180910390a150949350505050565b6001602052600090815260409020805481906101fc90610931565b80601f016020809104026020016040519081016040528092919081815260200182805461022890610931565b80156102755780601f1061024a57610100808354040283529160200191610275565b820191906000526020600020905b81548152906001019060200180831161025857829003601f168201915b50505050509080600101805461028a90610931565b80601f01602080910402602001604051908101604052809291908181526020018280546102b690610931565b80156103035780601f106102d857610100808354040283529160200191610303565b820191906000526020600020905b8154815290600101906020018083116102e657829003601f168201915b50505050509080600201805461031890610931565b80601f016020809104026020016040519081016040528092919081815260200182805461034490610931565b80156103915780601f1061036657610100808354040283529160200191610391565b820191906000526020600020905b81548152906001019060200180831161037457829003601f168201915b50505050600383015460049093015491929173ffffffffffffffffffffffffffffffffffffffff16905085565b60008083511161042e576040517f08c379a000000000000000000000000000000000000000000000000000000000815260206004820181905260248201527f547261636b732073697a652073686f756c64206265206174206c656173742031604482015260640160405180910390fd5b60005b83518110156104bc578273ffffffffffffffffffffffffffffffffffffffff166001600086848151811061046757610467610985565b60209081029190910181015182528101919091526040016000206004015473ffffffffffffffffffffffffffffffffffffffff16146104aa5760009150506104c2565b806104b4816109b4565b915050610431565b50600190505b92915050565b8280546104d490610931565b90600052602060002090601f0160209004810192826104f6576000855561053c565b82601f1061050f57805160ff191683800117855561053c565b8280016001018555821561053c579182015b8281111561053c578251825591602001919060010190610521565b5061054892915061054c565b5090565b5b80821115610548576000815560010161054d565b7f4e487b7100000000000000000000000000000000000000000000000000000000600052604160045260246000fd5b604051601f82017fffffffffffffffffffffffffffffffffffffffffffffffffffffffffffffffe016810167ffffffffffffffff811182821017156105d7576105d7610561565b604052919050565b600082601f8301126105f057600080fd5b813567ffffffffffffffff81111561060a5761060a610561565b61063b60207fffffffffffffffffffffffffffffffffffffffffffffffffffffffffffffffe0601f84011601610590565b81815284602083860101111561065057600080fd5b816020850160208301376000918101602001919091529392505050565b60008060006060848603121561068257600080fd5b833567ffffffffffffffff8082111561069a57600080fd5b6106a6878388016105df565b945060208601359150808211156106bc57600080fd5b6106c8878388016105df565b935060408601359150808211156106de57600080fd5b506106eb868287016105df565b9150509250925092565b60006020828403121561070757600080fd5b5035919050565b6000815180845260005b8181101561073457602081850181015186830182015201610718565b81811115610746576000602083870101525b50601f017fffffffffffffffffffffffffffffffffffffffffffffffffffffffffffffffe0169290920160200192915050565b60a08152600061078c60a083018861070e565b828103602084015261079e818861070e565b905082810360408401526107b2818761070e565b91505083606083015273ffffffffffffffffffffffffffffffffffffffff831660808301529695505050505050565b803573ffffffffffffffffffffffffffffffffffffffff8116811461080557600080fd5b919050565b6000806040838503121561081d57600080fd5b823567ffffffffffffffff8082111561083557600080fd5b818501915085601f83011261084957600080fd5b813560208282111561085d5761085d610561565b8160051b925061086e818401610590565b828152928401810192818101908985111561088857600080fd5b948201945b848610156108a65785358252948201949082019061088d565b96506108b590508782016107e1565b9450505050509250929050565b86815260c0602082015260006108db60c083018861070e565b82810360408401526108ed818861070e565b90508281036060840152610901818761070e565b91505083608083015273ffffffffffffffffffffffffffffffffffffffff831660a0830152979650505050505050565b600181811c9082168061094557607f821691505b6020821081141561097f577f4e487b7100000000000000000000000000000000000000000000000000000000600052602260045260246000fd5b50919050565b7f4e487b7100000000000000000000000000000000000000000000000000000000600052603260045260246000fd5b60007fffffffffffffffffffffffffffffffffffffffffffffffffffffffffffffffff821415610a0d577f4e487b7100000000000000000000000000000000000000000000000000000000600052601160045260246000fd5b506001019056fea2646970667358221220e80dc74820ed2ed66a00cd18d855dc21cc9076aaaa2479bca9c479cbb2fd65d364736f6c634300080c0033",
  "immutableReferences": {},
  "source": "pragma solidity ^0.8.0;\n\nimport \"@openzeppelin/contracts/token/ERC721/ERC721.sol\";\nimport \"@openzeppelin/contracts/utils/Counters.sol\";\nimport \"@openzeppelin/contracts/access/Ownable.sol\";\n\ncontract TracksContract {\n    using Counters for Counters.Counter;\n    Counters.Counter private _tokenIds;\n\n    /// @dev This holds data of individual tracks\n    /// @param filehash This is hash of the file\n    /// @param filelink This is the link to the file\n    /// @param category this is the category of song\n    /// @param creationDate this is hash of the preview file\n    struct Tracks {\n        string filehash;\n        string filelink;\n        string category;\n        uint256 creationDate;\n        address owner;\n    }\n\n    /// @dev This is emited when a new track is created\n    /// @param trackId This is the id of the track\n    /// @param filehash This is hash of the file\n    /// @param filelink This is the link to the file\n    /// @param category this is the category of song\n    /// @param creationDate this is hash of the preview file\n    /// @param owner this is the owner of the track\n    event TrackCreated(\n        uint256 trackId,\n        string filehash,\n        string filelink,\n        string category,\n        uint256 creationDate,\n        address owner\n    );\n\n    mapping(uint256 => Tracks) public tracksData;\n\n    constructor() {}\n\n    /// @dev This function will be called by the user to create a new contribution\n    /// @param filehash This is hash of the file\n    /// @param filelink this is preview file of the contribution\n    /// @param category this is the category of song\n    function createNewTrack(\n        string memory filehash,\n        string memory filelink,\n        string memory category\n    ) public returns (uint256) {\n        _tokenIds.increment();\n\n        uint256 newTrackId = _tokenIds.current();\n        Tracks memory track = Tracks({\n            filehash: filehash,\n            filelink: filelink,\n            category: category,\n            creationDate: block.timestamp,\n            owner: msg.sender\n        });\n\n        tracksData[newTrackId] = track;\n\n        emit TrackCreated({\n            filehash: filehash,\n            filelink: filelink,\n            category: category,\n            trackId: newTrackId,\n            creationDate: track.creationDate,\n            owner: msg.sender\n        });\n\n        return newTrackId;\n    }\n\n    /// @dev This function checks if all the tracks are owned by the single user\n    /// @param tracks List of tracks Id which needs to be checked for the ownership\n    /// @param owner This is the address of the owner\n    /// @return status It returns true\n    function checkOwner(uint256[] memory tracks, address owner)\n        public\n        view\n        returns (bool)\n    {\n        require(tracks.length > 0, \"Tracks size should be at least 1\");\n        for (uint256 i = 0; i < tracks.length; i++) {\n            if (tracksData[tracks[i]].owner != owner) {\n                return false;\n            }\n        }\n        return true;\n    }\n}\n",
  "sourcePath": "/Users/a1/Desktop/Office/projects/CrowdRecords/Contracts/contracts/TracksContract.sol",
  "compiler": {
    "name": "solc",
    "version": "0.8.12+commit.f00d7308.Emscripten.clang"
  },
  "schemaVersion": "3.4.6",
  "updatedAt": "2023-04-11T15:44:43.753Z",
  "devdoc": {
    "events": {
      "TrackCreated(uint256,string,string,string,uint256,address)": {
        "details": "This is emited when a new track is created",
        "params": {
          "category": "this is the category of song",
          "creationDate": "this is hash of the preview file",
          "filehash": "This is hash of the file",
          "filelink": "This is the link to the file",
          "owner": "this is the owner of the track",
          "trackId": "This is the id of the track"
        }
      }
    },
    "kind": "dev",
    "methods": {
      "checkOwner(uint256[],address)": {
        "details": "This function checks if all the tracks are owned by the single user",
        "params": {
          "owner": "This is the address of the owner",
          "tracks": "List of tracks Id which needs to be checked for the ownership"
        },
        "returns": {
          "_0": "status It returns true"
        }
      },
      "createNewTrack(string,string,string)": {
        "details": "This function will be called by the user to create a new contribution",
        "params": {
          "category": "this is the category of song",
          "filehash": "This is hash of the file",
          "filelink": "this is preview file of the contribution"
        }
      }
    },
    "version": 1
  },
  "userdoc": {
    "kind": "user",
    "methods": {},
    "version": 1
  }
}