{
  "contractName": "TracksContract",
  "abi": [
    {
      "inputs": [],
      "stateMutability": "nonpayable",
      "type": "constructor"
    },
    {
      "anonymous": false,
      "inputs": [
        {
          "indexed": false,
          "internalType": "uint256",
          "name": "trackId",
          "type": "uint256"
        },
        {
          "indexed": false,
          "internalType": "string",
          "name": "filehash",
          "type": "string"
        },
        {
          "indexed": false,
          "internalType": "string",
          "name": "filelink",
          "type": "string"
        },
        {
          "indexed": false,
          "internalType": "string",
          "name": "category",
          "type": "string"
        },
        {
          "indexed": false,
          "internalType": "uint256",
          "name": "creationDate",
          "type": "uint256"
        }
      ],
      "name": "TrackCreated",
      "type": "event"
    },
    {
      "inputs": [
        {
          "internalType": "uint256",
          "name": "",
          "type": "uint256"
        }
      ],
      "name": "tracksData",
      "outputs": [
        {
          "internalType": "string",
          "name": "filehash",
          "type": "string"
        },
        {
          "internalType": "string",
          "name": "filelink",
          "type": "string"
        },
        {
          "internalType": "string",
          "name": "category",
          "type": "string"
        },
        {
          "internalType": "uint256",
          "name": "creationDate",
          "type": "uint256"
        }
      ],
      "stateMutability": "view",
      "type": "function",
      "constant": true
    },
    {
      "inputs": [
        {
          "internalType": "string",
          "name": "filehash",
          "type": "string"
        },
        {
          "internalType": "string",
          "name": "filelink",
          "type": "string"
        },
        {
          "internalType": "string",
          "name": "category",
          "type": "string"
        }
      ],
      "name": "createNewTrack",
      "outputs": [
        {
          "internalType": "uint256",
          "name": "",
          "type": "uint256"
        }
      ],
      "stateMutability": "nonpayable",
      "type": "function"
    }
  ],
  "bytecode": "0x608060405234801561001057600080fd5b506108a2806100206000396000f3fe608060405234801561001057600080fd5b50600436106100365760003560e01c80633f50f0591461003b578063450df1e01461006b575b600080fd5b6100556004803603810190610050919061058d565b61009e565b604051610062919061064d565b60405180910390f35b61008560048036038101906100809190610694565b6101a4565b6040516100959493929190610749565b60405180910390f35b60006100aa600061036c565b60006100b66000610382565b9050600060405180608001604052808781526020018681526020018581526020014281525090508060016000848152602001908152602001600020600082015181600001908051906020019061010d929190610390565b50602082015181600101908051906020019061012a929190610390565b506040820151816002019080519060200190610147929190610390565b50606082015181600301559050507f8c298b6d3402cc8da100f0cfe1de991bbab172a342c0e5d1a7e32589783ff8bf8287878785606001516040516101909594939291906107a3565b60405180910390a181925050509392505050565b60016020528060005260406000206000915090508060000180546101c79061083a565b80601f01602080910402602001604051908101604052809291908181526020018280546101f39061083a565b80156102405780601f1061021557610100808354040283529160200191610240565b820191906000526020600020905b81548152906001019060200180831161022357829003601f168201915b5050505050908060010180546102559061083a565b80601f01602080910402602001604051908101604052809291908181526020018280546102819061083a565b80156102ce5780601f106102a3576101008083540402835291602001916102ce565b820191906000526020600020905b8154815290600101906020018083116102b157829003601f168201915b5050505050908060020180546102e39061083a565b80601f016020809104026020016040519081016040528092919081815260200182805461030f9061083a565b801561035c5780601f106103315761010080835404028352916020019161035c565b820191906000526020600020905b81548152906001019060200180831161033f57829003601f168201915b5050505050908060030154905084565b6001816000016000828254019250508190555050565b600081600001549050919050565b82805461039c9061083a565b90600052602060002090601f0160209004810192826103be5760008555610405565b82601f106103d757805160ff1916838001178555610405565b82800160010185558215610405579182015b828111156104045782518255916020019190600101906103e9565b5b5090506104129190610416565b5090565b5b8082111561042f576000816000905550600101610417565b5090565b6000604051905090565b600080fd5b600080fd5b600080fd5b600080fd5b6000601f19601f8301169050919050565b7f4e487b7100000000000000000000000000000000000000000000000000000000600052604160045260246000fd5b61049a82610451565b810181811067ffffffffffffffff821117156104b9576104b8610462565b5b80604052505050565b60006104cc610433565b90506104d88282610491565b919050565b600067ffffffffffffffff8211156104f8576104f7610462565b5b61050182610451565b9050602081019050919050565b82818337600083830152505050565b600061053061052b846104dd565b6104c2565b90508281526020810184848401111561054c5761054b61044c565b5b61055784828561050e565b509392505050565b600082601f83011261057457610573610447565b5b813561058484826020860161051d565b91505092915050565b6000806000606084860312156105a6576105a561043d565b5b600084013567ffffffffffffffff8111156105c4576105c3610442565b5b6105d08682870161055f565b935050602084013567ffffffffffffffff8111156105f1576105f0610442565b5b6105fd8682870161055f565b925050604084013567ffffffffffffffff81111561061e5761061d610442565b5b61062a8682870161055f565b9150509250925092565b6000819050919050565b61064781610634565b82525050565b6000602082019050610662600083018461063e565b92915050565b61067181610634565b811461067c57600080fd5b50565b60008135905061068e81610668565b92915050565b6000602082840312156106aa576106a961043d565b5b60006106b88482850161067f565b91505092915050565b600081519050919050565b600082825260208201905092915050565b60005b838110156106fb5780820151818401526020810190506106e0565b8381111561070a576000848401525b50505050565b600061071b826106c1565b61072581856106cc565b93506107358185602086016106dd565b61073e81610451565b840191505092915050565b600060808201905081810360008301526107638187610710565b905081810360208301526107778186610710565b9050818103604083015261078b8185610710565b905061079a606083018461063e565b95945050505050565b600060a0820190506107b8600083018861063e565b81810360208301526107ca8187610710565b905081810360408301526107de8186610710565b905081810360608301526107f28185610710565b9050610801608083018461063e565b9695505050505050565b7f4e487b7100000000000000000000000000000000000000000000000000000000600052602260045260246000fd5b6000600282049050600182168061085257607f821691505b602082108114156108665761086561080b565b5b5091905056fea264697066735822122073b62342f35d923830018f5f00872f989f459e0d7df2077a6a9bf5d191242f1664736f6c634300080c0033",
  "immutableReferences": {},
  "source": "pragma solidity ^0.8.0;\n\nimport \"@openzeppelin/contracts/token/ERC721/ERC721.sol\";\nimport \"@openzeppelin/contracts/utils/Counters.sol\";\nimport \"@openzeppelin/contracts/access/Ownable.sol\";\n\ncontract TracksContract {\n    using Counters for Counters.Counter;\n    Counters.Counter private _tokenIds;\n\n    /// @dev This holds data of individual tracks\n    /// @param filehash This is hash of the file\n    /// @param filelink This is the link to the file\n    /// @param category this is the category of song\n    /// @param creationDate this is hash of the preview file\n    struct Tracks {\n        string filehash;\n        string filelink;\n        string category;\n        uint256 creationDate;\n    }\n\n    /// @dev This is emited when a new track is created\n    /// @param trackId This is the id of the track\n    /// @param filehash This is hash of the file\n    /// @param filelink This is the link to the file\n    /// @param category this is the category of song\n    /// @param creationDate this is hash of the preview file\n    event TrackCreated(\n        uint256 trackId,\n        string filehash,\n        string filelink,\n        string category,\n        uint256 creationDate\n    );\n\n    mapping(uint256 => Tracks) public tracksData;\n\n    constructor() {}\n\n    /// @dev This function will be called by the user to create a new contribution\n    /// @param filehash This is hash of the file\n    /// @param filelink this is preview file of the contribution\n    /// @param category this is the category of song\n    function createNewTrack(\n        string memory filehash,\n        string memory filelink,\n        string memory category\n    ) public returns (uint256) {\n        _tokenIds.increment();\n\n        uint256 newTrackId = _tokenIds.current();\n        Tracks memory track = Tracks({\n            filehash: filehash,\n            filelink: filelink,\n            category: category,\n            creationDate: block.timestamp\n        });\n\n        tracksData[newTrackId] = track;\n\n        emit TrackCreated({\n            filehash: filehash,\n            filelink: filelink,\n            category: category,\n            trackId: newTrackId,\n            creationDate: track.creationDate\n        });\n\n        return newTrackId;\n    }\n}\n",
  "sourcePath": "/Users/a1/Desktop/Office/projects/CrowdRecords/Contracts/contracts/TracksContract.sol",
  "compiler": {
    "name": "solc",
    "version": "0.8.12+commit.f00d7308.Emscripten.clang"
  },
  "schemaVersion": "3.4.6",
  "updatedAt": "2022-09-19T09:06:34.818Z",
  "networkType": "ethereum",
  "devdoc": {
    "events": {
      "TrackCreated(uint256,string,string,string,uint256)": {
        "details": "This is emited when a new track is created",
        "params": {
          "category": "this is the category of song",
          "creationDate": "this is hash of the preview file",
          "filehash": "This is hash of the file",
          "filelink": "This is the link to the file",
          "trackId": "This is the id of the track"
        }
      }
    },
    "kind": "dev",
    "methods": {
      "createNewTrack(string,string,string)": {
        "details": "This function will be called by the user to create a new contribution",
        "params": {
          "category": "this is the category of song",
          "filehash": "This is hash of the file",
          "filelink": "this is preview file of the contribution"
        }
      }
    },
    "version": 1
  },
  "userdoc": {
    "kind": "user",
    "methods": {},
    "version": 1
  }
}