{
  "contractName": "TracksContract",
  "abi": [
    {
      "inputs": [],
      "stateMutability": "nonpayable",
      "type": "constructor"
    },
    {
      "anonymous": false,
      "inputs": [
        {
          "indexed": true,
          "internalType": "address",
          "name": "owner",
          "type": "address"
        },
        {
          "indexed": true,
          "internalType": "address",
          "name": "approved",
          "type": "address"
        },
        {
          "indexed": true,
          "internalType": "uint256",
          "name": "tokenId",
          "type": "uint256"
        }
      ],
      "name": "Approval",
      "type": "event"
    },
    {
      "anonymous": false,
      "inputs": [
        {
          "indexed": true,
          "internalType": "address",
          "name": "owner",
          "type": "address"
        },
        {
          "indexed": true,
          "internalType": "address",
          "name": "operator",
          "type": "address"
        },
        {
          "indexed": false,
          "internalType": "bool",
          "name": "approved",
          "type": "bool"
        }
      ],
      "name": "ApprovalForAll",
      "type": "event"
    },
    {
      "anonymous": false,
      "inputs": [
        {
          "indexed": false,
          "internalType": "uint256",
          "name": "trackId",
          "type": "uint256"
        },
        {
          "indexed": false,
          "internalType": "string",
          "name": "filehash",
          "type": "string"
        },
        {
          "indexed": false,
          "internalType": "string",
          "name": "filelink",
          "type": "string"
        },
        {
          "indexed": false,
          "internalType": "string",
          "name": "category",
          "type": "string"
        },
        {
          "indexed": false,
          "internalType": "uint256",
          "name": "creationDate",
          "type": "uint256"
        }
      ],
      "name": "TrackCreated",
      "type": "event"
    },
    {
      "anonymous": false,
      "inputs": [
        {
          "indexed": true,
          "internalType": "address",
          "name": "from",
          "type": "address"
        },
        {
          "indexed": true,
          "internalType": "address",
          "name": "to",
          "type": "address"
        },
        {
          "indexed": true,
          "internalType": "uint256",
          "name": "tokenId",
          "type": "uint256"
        }
      ],
      "name": "Transfer",
      "type": "event"
    },
    {
      "inputs": [
        {
          "internalType": "address",
          "name": "to",
          "type": "address"
        },
        {
          "internalType": "uint256",
          "name": "tokenId",
          "type": "uint256"
        }
      ],
      "name": "approve",
      "outputs": [],
      "stateMutability": "nonpayable",
      "type": "function"
    },
    {
      "inputs": [
        {
          "internalType": "address",
          "name": "owner",
          "type": "address"
        }
      ],
      "name": "balanceOf",
      "outputs": [
        {
          "internalType": "uint256",
          "name": "",
          "type": "uint256"
        }
      ],
      "stateMutability": "view",
      "type": "function",
      "constant": true
    },
    {
      "inputs": [
        {
          "internalType": "uint256",
          "name": "tokenId",
          "type": "uint256"
        }
      ],
      "name": "getApproved",
      "outputs": [
        {
          "internalType": "address",
          "name": "",
          "type": "address"
        }
      ],
      "stateMutability": "view",
      "type": "function",
      "constant": true
    },
    {
      "inputs": [
        {
          "internalType": "address",
          "name": "owner",
          "type": "address"
        },
        {
          "internalType": "address",
          "name": "operator",
          "type": "address"
        }
      ],
      "name": "isApprovedForAll",
      "outputs": [
        {
          "internalType": "bool",
          "name": "",
          "type": "bool"
        }
      ],
      "stateMutability": "view",
      "type": "function",
      "constant": true
    },
    {
      "inputs": [],
      "name": "name",
      "outputs": [
        {
          "internalType": "string",
          "name": "",
          "type": "string"
        }
      ],
      "stateMutability": "view",
      "type": "function",
      "constant": true
    },
    {
      "inputs": [
        {
          "internalType": "uint256",
          "name": "tokenId",
          "type": "uint256"
        }
      ],
      "name": "ownerOf",
      "outputs": [
        {
          "internalType": "address",
          "name": "",
          "type": "address"
        }
      ],
      "stateMutability": "view",
      "type": "function",
      "constant": true
    },
    {
      "inputs": [
        {
          "internalType": "address",
          "name": "from",
          "type": "address"
        },
        {
          "internalType": "address",
          "name": "to",
          "type": "address"
        },
        {
          "internalType": "uint256",
          "name": "tokenId",
          "type": "uint256"
        }
      ],
      "name": "safeTransferFrom",
      "outputs": [],
      "stateMutability": "nonpayable",
      "type": "function"
    },
    {
      "inputs": [
        {
          "internalType": "address",
          "name": "from",
          "type": "address"
        },
        {
          "internalType": "address",
          "name": "to",
          "type": "address"
        },
        {
          "internalType": "uint256",
          "name": "tokenId",
          "type": "uint256"
        },
        {
          "internalType": "bytes",
          "name": "_data",
          "type": "bytes"
        }
      ],
      "name": "safeTransferFrom",
      "outputs": [],
      "stateMutability": "nonpayable",
      "type": "function"
    },
    {
      "inputs": [
        {
          "internalType": "address",
          "name": "operator",
          "type": "address"
        },
        {
          "internalType": "bool",
          "name": "approved",
          "type": "bool"
        }
      ],
      "name": "setApprovalForAll",
      "outputs": [],
      "stateMutability": "nonpayable",
      "type": "function"
    },
    {
      "inputs": [
        {
          "internalType": "bytes4",
          "name": "interfaceId",
          "type": "bytes4"
        }
      ],
      "name": "supportsInterface",
      "outputs": [
        {
          "internalType": "bool",
          "name": "",
          "type": "bool"
        }
      ],
      "stateMutability": "view",
      "type": "function",
      "constant": true
    },
    {
      "inputs": [],
      "name": "symbol",
      "outputs": [
        {
          "internalType": "string",
          "name": "",
          "type": "string"
        }
      ],
      "stateMutability": "view",
      "type": "function",
      "constant": true
    },
    {
      "inputs": [
        {
          "internalType": "uint256",
          "name": "tokenId",
          "type": "uint256"
        }
      ],
      "name": "tokenURI",
      "outputs": [
        {
          "internalType": "string",
          "name": "",
          "type": "string"
        }
      ],
      "stateMutability": "view",
      "type": "function",
      "constant": true
    },
    {
      "inputs": [
        {
          "internalType": "uint256",
          "name": "",
          "type": "uint256"
        }
      ],
      "name": "tracksData",
      "outputs": [
        {
          "internalType": "string",
          "name": "filehash",
          "type": "string"
        },
        {
          "internalType": "string",
          "name": "filelink",
          "type": "string"
        },
        {
          "internalType": "string",
          "name": "category",
          "type": "string"
        },
        {
          "internalType": "uint256",
          "name": "creationDate",
          "type": "uint256"
        }
      ],
      "stateMutability": "view",
      "type": "function",
      "constant": true
    },
    {
      "inputs": [
        {
          "internalType": "address",
          "name": "from",
          "type": "address"
        },
        {
          "internalType": "address",
          "name": "to",
          "type": "address"
        },
        {
          "internalType": "uint256",
          "name": "tokenId",
          "type": "uint256"
        }
      ],
      "name": "transferFrom",
      "outputs": [],
      "stateMutability": "nonpayable",
      "type": "function"
    },
    {
      "inputs": [
        {
          "internalType": "string",
          "name": "filehash",
          "type": "string"
        },
        {
          "internalType": "string",
          "name": "filelink",
          "type": "string"
        },
        {
          "internalType": "string",
          "name": "category",
          "type": "string"
        }
      ],
      "name": "createNewTrack",
      "outputs": [
        {
          "internalType": "uint256",
          "name": "",
          "type": "uint256"
        }
      ],
      "stateMutability": "nonpayable",
      "type": "function"
    }
  ],
  "bytecode": "0x60806040523480156200001157600080fd5b506040518060400160405280600681526020017f547261636b7300000000000000000000000000000000000000000000000000008152506040518060400160405280600881526020017f4352445f54524b53000000000000000000000000000000000000000000000000815250816000908051906020019062000096929190620000b8565b508060019080519060200190620000af929190620000b8565b505050620001cd565b828054620000c69062000197565b90600052602060002090601f016020900481019282620000ea576000855562000136565b82601f106200010557805160ff191683800117855562000136565b8280016001018555821562000136579182015b828111156200013557825182559160200191906001019062000118565b5b50905062000145919062000149565b5090565b5b80821115620001645760008160009055506001016200014a565b5090565b7f4e487b7100000000000000000000000000000000000000000000000000000000600052602260045260246000fd5b60006002820490506001821680620001b057607f821691505b60208210811415620001c757620001c662000168565b5b50919050565b612cc380620001dd6000396000f3fe608060405234801561001057600080fd5b50600436106100f55760003560e01c8063450df1e011610097578063a22cb46511610066578063a22cb465146102ad578063b88d4fde146102c9578063c87b56dd146102e5578063e985e9c514610315576100f5565b8063450df1e0146101fc5780636352211e1461022f57806370a082311461025f57806395d89b411461028f576100f5565b8063095ea7b3116100d3578063095ea7b31461017857806323b872dd146101945780633f50f059146101b057806342842e0e146101e0576100f5565b806301ffc9a7146100fa57806306fdde031461012a578063081812fc14610148575b600080fd5b610114600480360381019061010f9190611a3c565b610345565b6040516101219190611a84565b60405180910390f35b610132610427565b60405161013f9190611b38565b60405180910390f35b610162600480360381019061015d9190611b90565b6104b9565b60405161016f9190611bfe565b60405180910390f35b610192600480360381019061018d9190611c45565b61053e565b005b6101ae60048036038101906101a99190611c85565b610656565b005b6101ca60048036038101906101c59190611e0d565b6106b6565b6040516101d79190611ec3565b60405180910390f35b6101fa60048036038101906101f59190611c85565b6107c6565b005b61021660048036038101906102119190611b90565b6107e6565b6040516102269493929190611ede565b60405180910390f35b61024960048036038101906102449190611b90565b6109ae565b6040516102569190611bfe565b60405180910390f35b61027960048036038101906102749190611f38565b610a60565b6040516102869190611ec3565b60405180910390f35b610297610b18565b6040516102a49190611b38565b60405180910390f35b6102c760048036038101906102c29190611f91565b610baa565b005b6102e360048036038101906102de9190612072565b610bc0565b005b6102ff60048036038101906102fa9190611b90565b610c22565b60405161030c9190611b38565b60405180910390f35b61032f600480360381019061032a91906120f5565b610cc9565b60405161033c9190611a84565b60405180910390f35b60007f80ac58cd000000000000000000000000000000000000000000000000000000007bffffffffffffffffffffffffffffffffffffffffffffffffffffffff1916827bffffffffffffffffffffffffffffffffffffffffffffffffffffffff1916148061041057507f5b5e139f000000000000000000000000000000000000000000000000000000007bffffffffffffffffffffffffffffffffffffffffffffffffffffffff1916827bffffffffffffffffffffffffffffffffffffffffffffffffffffffff1916145b80610420575061041f82610d5d565b5b9050919050565b60606000805461043690612164565b80601f016020809104026020016040519081016040528092919081815260200182805461046290612164565b80156104af5780601f10610484576101008083540402835291602001916104af565b820191906000526020600020905b81548152906001019060200180831161049257829003601f168201915b5050505050905090565b60006104c482610dc7565b610503576040517f08c379a00000000000000000000000000000000000000000000000000000000081526004016104fa90612208565b60405180910390fd5b6004600083815260200190815260200160002060009054906101000a900473ffffffffffffffffffffffffffffffffffffffff169050919050565b6000610549826109ae565b90508073ffffffffffffffffffffffffffffffffffffffff168373ffffffffffffffffffffffffffffffffffffffff1614156105ba576040517f08c379a00000000000000000000000000000000000000000000000000000000081526004016105b19061229a565b60405180910390fd5b8073ffffffffffffffffffffffffffffffffffffffff166105d9610e33565b73ffffffffffffffffffffffffffffffffffffffff161480610608575061060781610602610e33565b610cc9565b5b610647576040517f08c379a000000000000000000000000000000000000000000000000000000000815260040161063e9061232c565b60405180910390fd5b6106518383610e3b565b505050565b610667610661610e33565b82610ef4565b6106a6576040517f08c379a000000000000000000000000000000000000000000000000000000000815260040161069d906123be565b60405180910390fd5b6106b1838383610fd2565b505050565b60006106c26006611239565b60006106ce600661124f565b90506106da338261125d565b600060405180608001604052808781526020018681526020018581526020014281525090508060076000848152602001908152602001600020600082015181600001908051906020019061072f92919061192d565b50602082015181600101908051906020019061074c92919061192d565b50604082015181600201908051906020019061076992919061192d565b50606082015181600301559050507f8c298b6d3402cc8da100f0cfe1de991bbab172a342c0e5d1a7e32589783ff8bf8287878785606001516040516107b29594939291906123de565b60405180910390a181925050509392505050565b6107e183838360405180602001604052806000815250610bc0565b505050565b600760205280600052604060002060009150905080600001805461080990612164565b80601f016020809104026020016040519081016040528092919081815260200182805461083590612164565b80156108825780601f1061085757610100808354040283529160200191610882565b820191906000526020600020905b81548152906001019060200180831161086557829003601f168201915b50505050509080600101805461089790612164565b80601f01602080910402602001604051908101604052809291908181526020018280546108c390612164565b80156109105780601f106108e557610100808354040283529160200191610910565b820191906000526020600020905b8154815290600101906020018083116108f357829003601f168201915b50505050509080600201805461092590612164565b80601f016020809104026020016040519081016040528092919081815260200182805461095190612164565b801561099e5780601f106109735761010080835404028352916020019161099e565b820191906000526020600020905b81548152906001019060200180831161098157829003601f168201915b5050505050908060030154905084565b6000806002600084815260200190815260200160002060009054906101000a900473ffffffffffffffffffffffffffffffffffffffff169050600073ffffffffffffffffffffffffffffffffffffffff168173ffffffffffffffffffffffffffffffffffffffff161415610a57576040517f08c379a0000000000000000000000000000000000000000000000000000000008152600401610a4e906124b8565b60405180910390fd5b80915050919050565b60008073ffffffffffffffffffffffffffffffffffffffff168273ffffffffffffffffffffffffffffffffffffffff161415610ad1576040517f08c379a0000000000000000000000000000000000000000000000000000000008152600401610ac89061254a565b60405180910390fd5b600360008373ffffffffffffffffffffffffffffffffffffffff1673ffffffffffffffffffffffffffffffffffffffff168152602001908152602001600020549050919050565b606060018054610b2790612164565b80601f0160208091040260200160405190810160405280929190818152602001828054610b5390612164565b8015610ba05780601f10610b7557610100808354040283529160200191610ba0565b820191906000526020600020905b815481529060010190602001808311610b8357829003601f168201915b5050505050905090565b610bbc610bb5610e33565b8383611437565b5050565b610bd1610bcb610e33565b83610ef4565b610c10576040517f08c379a0000000000000000000000000000000000000000000000000000000008152600401610c07906123be565b60405180910390fd5b610c1c848484846115a4565b50505050565b6060610c2d82610dc7565b610c6c576040517f08c379a0000000000000000000000000000000000000000000000000000000008152600401610c63906125dc565b60405180910390fd5b6000610c76611600565b90506000815111610c965760405180602001604052806000815250610cc1565b80610ca084611617565b604051602001610cb1929190612638565b6040516020818303038152906040525b915050919050565b6000600560008473ffffffffffffffffffffffffffffffffffffffff1673ffffffffffffffffffffffffffffffffffffffff16815260200190815260200160002060008373ffffffffffffffffffffffffffffffffffffffff1673ffffffffffffffffffffffffffffffffffffffff16815260200190815260200160002060009054906101000a900460ff16905092915050565b60007f01ffc9a7000000000000000000000000000000000000000000000000000000007bffffffffffffffffffffffffffffffffffffffffffffffffffffffff1916827bffffffffffffffffffffffffffffffffffffffffffffffffffffffff1916149050919050565b60008073ffffffffffffffffffffffffffffffffffffffff166002600084815260200190815260200160002060009054906101000a900473ffffffffffffffffffffffffffffffffffffffff1673ffffffffffffffffffffffffffffffffffffffff1614159050919050565b600033905090565b816004600083815260200190815260200160002060006101000a81548173ffffffffffffffffffffffffffffffffffffffff021916908373ffffffffffffffffffffffffffffffffffffffff160217905550808273ffffffffffffffffffffffffffffffffffffffff16610eae836109ae565b73ffffffffffffffffffffffffffffffffffffffff167f8c5be1e5ebec7d5bd14f71427d1e84f3dd0314c0f7b2291e5b200ac8c7c3b92560405160405180910390a45050565b6000610eff82610dc7565b610f3e576040517f08c379a0000000000000000000000000000000000000000000000000000000008152600401610f35906126ce565b60405180910390fd5b6000610f49836109ae565b90508073ffffffffffffffffffffffffffffffffffffffff168473ffffffffffffffffffffffffffffffffffffffff161480610fb857508373ffffffffffffffffffffffffffffffffffffffff16610fa0846104b9565b73ffffffffffffffffffffffffffffffffffffffff16145b80610fc95750610fc88185610cc9565b5b91505092915050565b8273ffffffffffffffffffffffffffffffffffffffff16610ff2826109ae565b73ffffffffffffffffffffffffffffffffffffffff1614611048576040517f08c379a000000000000000000000000000000000000000000000000000000000815260040161103f90612760565b60405180910390fd5b600073ffffffffffffffffffffffffffffffffffffffff168273ffffffffffffffffffffffffffffffffffffffff1614156110b8576040517f08c379a00000000000000000000000000000000000000000000000000000000081526004016110af906127f2565b60405180910390fd5b6110c3838383611778565b6110ce600082610e3b565b6001600360008573ffffffffffffffffffffffffffffffffffffffff1673ffffffffffffffffffffffffffffffffffffffff168152602001908152602001600020600082825461111e9190612841565b925050819055506001600360008473ffffffffffffffffffffffffffffffffffffffff1673ffffffffffffffffffffffffffffffffffffffff16815260200190815260200160002060008282546111759190612875565b92505081905550816002600083815260200190815260200160002060006101000a81548173ffffffffffffffffffffffffffffffffffffffff021916908373ffffffffffffffffffffffffffffffffffffffff160217905550808273ffffffffffffffffffffffffffffffffffffffff168473ffffffffffffffffffffffffffffffffffffffff167fddf252ad1be2c89b69c2b068fc378daa952ba7f163c4a11628f55a4df523b3ef60405160405180910390a461123483838361177d565b505050565b6001816000016000828254019250508190555050565b600081600001549050919050565b600073ffffffffffffffffffffffffffffffffffffffff168273ffffffffffffffffffffffffffffffffffffffff1614156112cd576040517f08c379a00000000000000000000000000000000000000000000000000000000081526004016112c490612917565b60405180910390fd5b6112d681610dc7565b15611316576040517f08c379a000000000000000000000000000000000000000000000000000000000815260040161130d90612983565b60405180910390fd5b61132260008383611778565b6001600360008473ffffffffffffffffffffffffffffffffffffffff1673ffffffffffffffffffffffffffffffffffffffff16815260200190815260200160002060008282546113729190612875565b92505081905550816002600083815260200190815260200160002060006101000a81548173ffffffffffffffffffffffffffffffffffffffff021916908373ffffffffffffffffffffffffffffffffffffffff160217905550808273ffffffffffffffffffffffffffffffffffffffff16600073ffffffffffffffffffffffffffffffffffffffff167fddf252ad1be2c89b69c2b068fc378daa952ba7f163c4a11628f55a4df523b3ef60405160405180910390a46114336000838361177d565b5050565b8173ffffffffffffffffffffffffffffffffffffffff168373ffffffffffffffffffffffffffffffffffffffff1614156114a6576040517f08c379a000000000000000000000000000000000000000000000000000000000815260040161149d906129ef565b60405180910390fd5b80600560008573ffffffffffffffffffffffffffffffffffffffff1673ffffffffffffffffffffffffffffffffffffffff16815260200190815260200160002060008473ffffffffffffffffffffffffffffffffffffffff1673ffffffffffffffffffffffffffffffffffffffff16815260200190815260200160002060006101000a81548160ff0219169083151502179055508173ffffffffffffffffffffffffffffffffffffffff168373ffffffffffffffffffffffffffffffffffffffff167f17307eab39ab6107e8899845ad3d59bd9653f200f220920489ca2b5937696c31836040516115979190611a84565b60405180910390a3505050565b6115af848484610fd2565b6115bb84848484611782565b6115fa576040517f08c379a00000000000000000000000000000000000000000000000000000000081526004016115f190612a81565b60405180910390fd5b50505050565b606060405180602001604052806000815250905090565b6060600082141561165f576040518060400160405280600181526020017f30000000000000000000000000000000000000000000000000000000000000008152509050611773565b600082905060005b6000821461169157808061167a90612aa1565b915050600a8261168a9190612b19565b9150611667565b60008167ffffffffffffffff8111156116ad576116ac611ce2565b5b6040519080825280601f01601f1916602001820160405280156116df5781602001600182028036833780820191505090505b5090505b6000851461176c576001826116f89190612841565b9150600a856117079190612b4a565b60306117139190612875565b60f81b81838151811061172957611728612b7b565b5b60200101907effffffffffffffffffffffffffffffffffffffffffffffffffffffffffffff1916908160001a905350600a856117659190612b19565b94506116e3565b8093505050505b919050565b505050565b505050565b60006117a38473ffffffffffffffffffffffffffffffffffffffff1661190a565b156118fd578373ffffffffffffffffffffffffffffffffffffffff1663150b7a026117cc610e33565b8786866040518563ffffffff1660e01b81526004016117ee9493929190612bff565b6020604051808303816000875af192505050801561182a57506040513d601f19601f820116820180604052508101906118279190612c60565b60015b6118ad573d806000811461185a576040519150601f19603f3d011682016040523d82523d6000602084013e61185f565b606091505b506000815114156118a5576040517f08c379a000000000000000000000000000000000000000000000000000000000815260040161189c90612a81565b60405180910390fd5b805181602001fd5b63150b7a0260e01b7bffffffffffffffffffffffffffffffffffffffffffffffffffffffff1916817bffffffffffffffffffffffffffffffffffffffffffffffffffffffff191614915050611902565b600190505b949350505050565b6000808273ffffffffffffffffffffffffffffffffffffffff163b119050919050565b82805461193990612164565b90600052602060002090601f01602090048101928261195b57600085556119a2565b82601f1061197457805160ff19168380011785556119a2565b828001600101855582156119a2579182015b828111156119a1578251825591602001919060010190611986565b5b5090506119af91906119b3565b5090565b5b808211156119cc5760008160009055506001016119b4565b5090565b6000604051905090565b600080fd5b600080fd5b60007fffffffff0000000000000000000000000000000000000000000000000000000082169050919050565b611a19816119e4565b8114611a2457600080fd5b50565b600081359050611a3681611a10565b92915050565b600060208284031215611a5257611a516119da565b5b6000611a6084828501611a27565b91505092915050565b60008115159050919050565b611a7e81611a69565b82525050565b6000602082019050611a996000830184611a75565b92915050565b600081519050919050565b600082825260208201905092915050565b60005b83811015611ad9578082015181840152602081019050611abe565b83811115611ae8576000848401525b50505050565b6000601f19601f8301169050919050565b6000611b0a82611a9f565b611b148185611aaa565b9350611b24818560208601611abb565b611b2d81611aee565b840191505092915050565b60006020820190508181036000830152611b528184611aff565b905092915050565b6000819050919050565b611b6d81611b5a565b8114611b7857600080fd5b50565b600081359050611b8a81611b64565b92915050565b600060208284031215611ba657611ba56119da565b5b6000611bb484828501611b7b565b91505092915050565b600073ffffffffffffffffffffffffffffffffffffffff82169050919050565b6000611be882611bbd565b9050919050565b611bf881611bdd565b82525050565b6000602082019050611c136000830184611bef565b92915050565b611c2281611bdd565b8114611c2d57600080fd5b50565b600081359050611c3f81611c19565b92915050565b60008060408385031215611c5c57611c5b6119da565b5b6000611c6a85828601611c30565b9250506020611c7b85828601611b7b565b9150509250929050565b600080600060608486031215611c9e57611c9d6119da565b5b6000611cac86828701611c30565b9350506020611cbd86828701611c30565b9250506040611cce86828701611b7b565b9150509250925092565b600080fd5b600080fd5b7f4e487b7100000000000000000000000000000000000000000000000000000000600052604160045260246000fd5b611d1a82611aee565b810181811067ffffffffffffffff82111715611d3957611d38611ce2565b5b80604052505050565b6000611d4c6119d0565b9050611d588282611d11565b919050565b600067ffffffffffffffff821115611d7857611d77611ce2565b5b611d8182611aee565b9050602081019050919050565b82818337600083830152505050565b6000611db0611dab84611d5d565b611d42565b905082815260208101848484011115611dcc57611dcb611cdd565b5b611dd7848285611d8e565b509392505050565b600082601f830112611df457611df3611cd8565b5b8135611e04848260208601611d9d565b91505092915050565b600080600060608486031215611e2657611e256119da565b5b600084013567ffffffffffffffff811115611e4457611e436119df565b5b611e5086828701611ddf565b935050602084013567ffffffffffffffff811115611e7157611e706119df565b5b611e7d86828701611ddf565b925050604084013567ffffffffffffffff811115611e9e57611e9d6119df565b5b611eaa86828701611ddf565b9150509250925092565b611ebd81611b5a565b82525050565b6000602082019050611ed86000830184611eb4565b92915050565b60006080820190508181036000830152611ef88187611aff565b90508181036020830152611f0c8186611aff565b90508181036040830152611f208185611aff565b9050611f2f6060830184611eb4565b95945050505050565b600060208284031215611f4e57611f4d6119da565b5b6000611f5c84828501611c30565b91505092915050565b611f6e81611a69565b8114611f7957600080fd5b50565b600081359050611f8b81611f65565b92915050565b60008060408385031215611fa857611fa76119da565b5b6000611fb685828601611c30565b9250506020611fc785828601611f7c565b9150509250929050565b600067ffffffffffffffff821115611fec57611feb611ce2565b5b611ff582611aee565b9050602081019050919050565b600061201561201084611fd1565b611d42565b90508281526020810184848401111561203157612030611cdd565b5b61203c848285611d8e565b509392505050565b600082601f83011261205957612058611cd8565b5b8135612069848260208601612002565b91505092915050565b6000806000806080858703121561208c5761208b6119da565b5b600061209a87828801611c30565b94505060206120ab87828801611c30565b93505060406120bc87828801611b7b565b925050606085013567ffffffffffffffff8111156120dd576120dc6119df565b5b6120e987828801612044565b91505092959194509250565b6000806040838503121561210c5761210b6119da565b5b600061211a85828601611c30565b925050602061212b85828601611c30565b9150509250929050565b7f4e487b7100000000000000000000000000000000000000000000000000000000600052602260045260246000fd5b6000600282049050600182168061217c57607f821691505b602082108114156121905761218f612135565b5b50919050565b7f4552433732313a20617070726f76656420717565727920666f72206e6f6e657860008201527f697374656e7420746f6b656e0000000000000000000000000000000000000000602082015250565b60006121f2602c83611aaa565b91506121fd82612196565b604082019050919050565b60006020820190508181036000830152612221816121e5565b9050919050565b7f4552433732313a20617070726f76616c20746f2063757272656e74206f776e6560008201527f7200000000000000000000000000000000000000000000000000000000000000602082015250565b6000612284602183611aaa565b915061228f82612228565b604082019050919050565b600060208201905081810360008301526122b381612277565b9050919050565b7f4552433732313a20617070726f76652063616c6c6572206973206e6f74206f7760008201527f6e6572206e6f7220617070726f76656420666f7220616c6c0000000000000000602082015250565b6000612316603883611aaa565b9150612321826122ba565b604082019050919050565b6000602082019050818103600083015261234581612309565b9050919050565b7f4552433732313a207472616e736665722063616c6c6572206973206e6f74206f60008201527f776e6572206e6f7220617070726f766564000000000000000000000000000000602082015250565b60006123a8603183611aaa565b91506123b38261234c565b604082019050919050565b600060208201905081810360008301526123d78161239b565b9050919050565b600060a0820190506123f36000830188611eb4565b81810360208301526124058187611aff565b905081810360408301526124198186611aff565b9050818103606083015261242d8185611aff565b905061243c6080830184611eb4565b9695505050505050565b7f4552433732313a206f776e657220717565727920666f72206e6f6e657869737460008201527f656e7420746f6b656e0000000000000000000000000000000000000000000000602082015250565b60006124a2602983611aaa565b91506124ad82612446565b604082019050919050565b600060208201905081810360008301526124d181612495565b9050919050565b7f4552433732313a2062616c616e636520717565727920666f7220746865207a6560008201527f726f206164647265737300000000000000000000000000000000000000000000602082015250565b6000612534602a83611aaa565b915061253f826124d8565b604082019050919050565b6000602082019050818103600083015261256381612527565b9050919050565b7f4552433732314d657461646174613a2055524920717565727920666f72206e6f60008201527f6e6578697374656e7420746f6b656e0000000000000000000000000000000000602082015250565b60006125c6602f83611aaa565b91506125d18261256a565b604082019050919050565b600060208201905081810360008301526125f5816125b9565b9050919050565b600081905092915050565b600061261282611a9f565b61261c81856125fc565b935061262c818560208601611abb565b80840191505092915050565b60006126448285612607565b91506126508284612607565b91508190509392505050565b7f4552433732313a206f70657261746f7220717565727920666f72206e6f6e657860008201527f697374656e7420746f6b656e0000000000000000000000000000000000000000602082015250565b60006126b8602c83611aaa565b91506126c38261265c565b604082019050919050565b600060208201905081810360008301526126e7816126ab565b9050919050565b7f4552433732313a207472616e736665722066726f6d20696e636f72726563742060008201527f6f776e6572000000000000000000000000000000000000000000000000000000602082015250565b600061274a602583611aaa565b9150612755826126ee565b604082019050919050565b600060208201905081810360008301526127798161273d565b9050919050565b7f4552433732313a207472616e7366657220746f20746865207a65726f2061646460008201527f7265737300000000000000000000000000000000000000000000000000000000602082015250565b60006127dc602483611aaa565b91506127e782612780565b604082019050919050565b6000602082019050818103600083015261280b816127cf565b9050919050565b7f4e487b7100000000000000000000000000000000000000000000000000000000600052601160045260246000fd5b600061284c82611b5a565b915061285783611b5a565b92508282101561286a57612869612812565b5b828203905092915050565b600061288082611b5a565b915061288b83611b5a565b9250827fffffffffffffffffffffffffffffffffffffffffffffffffffffffffffffffff038211156128c0576128bf612812565b5b828201905092915050565b7f4552433732313a206d696e7420746f20746865207a65726f2061646472657373600082015250565b6000612901602083611aaa565b915061290c826128cb565b602082019050919050565b60006020820190508181036000830152612930816128f4565b9050919050565b7f4552433732313a20746f6b656e20616c7265616479206d696e74656400000000600082015250565b600061296d601c83611aaa565b915061297882612937565b602082019050919050565b6000602082019050818103600083015261299c81612960565b9050919050565b7f4552433732313a20617070726f766520746f2063616c6c657200000000000000600082015250565b60006129d9601983611aaa565b91506129e4826129a3565b602082019050919050565b60006020820190508181036000830152612a08816129cc565b9050919050565b7f4552433732313a207472616e7366657220746f206e6f6e20455243373231526560008201527f63656976657220696d706c656d656e7465720000000000000000000000000000602082015250565b6000612a6b603283611aaa565b9150612a7682612a0f565b604082019050919050565b60006020820190508181036000830152612a9a81612a5e565b9050919050565b6000612aac82611b5a565b91507fffffffffffffffffffffffffffffffffffffffffffffffffffffffffffffffff821415612adf57612ade612812565b5b600182019050919050565b7f4e487b7100000000000000000000000000000000000000000000000000000000600052601260045260246000fd5b6000612b2482611b5a565b9150612b2f83611b5a565b925082612b3f57612b3e612aea565b5b828204905092915050565b6000612b5582611b5a565b9150612b6083611b5a565b925082612b7057612b6f612aea565b5b828206905092915050565b7f4e487b7100000000000000000000000000000000000000000000000000000000600052603260045260246000fd5b600081519050919050565b600082825260208201905092915050565b6000612bd182612baa565b612bdb8185612bb5565b9350612beb818560208601611abb565b612bf481611aee565b840191505092915050565b6000608082019050612c146000830187611bef565b612c216020830186611bef565b612c2e6040830185611eb4565b8181036060830152612c408184612bc6565b905095945050505050565b600081519050612c5a81611a10565b92915050565b600060208284031215612c7657612c756119da565b5b6000612c8484828501612c4b565b9150509291505056fea264697066735822122032ba5fe54aa5cff9b4b15cf768892623e7b66922a314d05c4b83ed4a87709b2664736f6c634300080c0033",
  "immutableReferences": {},
  "source": "pragma solidity ^0.8.0;\n\nimport \"@openzeppelin/contracts/token/ERC721/ERC721.sol\";\nimport \"@openzeppelin/contracts/utils/Counters.sol\";\nimport \"@openzeppelin/contracts/access/Ownable.sol\";\n\ncontract TracksContract is ERC721 {\n    //----------------------Tracks Related code---------------------//\n    using Counters for Counters.Counter;\n    Counters.Counter private _tokenIds;\n\n    struct Tracks {\n        string filehash;\n        string filelink;\n        string category;\n        uint256 creationDate;\n    }\n\n    /**\n     * @dev This is emited when a new track is created\n     * @param trackId This is the id of the track\n     * @param filehash This is hash of the file\n     * @param filelink This is the link to the file\n     * @param category this is the category of song\n     * @param creationDate this is hash of the preview file\n     */\n    event TrackCreated(\n        uint256 trackId,\n        string filehash,\n        string filelink,\n        string category,\n        uint256 creationDate\n    );\n\n    mapping(uint256 => Tracks) public tracksData;\n\n    //Keep the baseURI empty if you want to have different URIs without any structure\n    constructor() ERC721(\"Tracks\", \"CRD_TRKS\") {\n        // _baseURIextended = baseURI_;\n    }\n\n    /**\n     * @dev This function will be called by the user to create a new contribution\n     * @param filehash This is hash of the file\n     * @param filelink this is preview file of the contribution\n     * @param category this is the category of song\n     */\n    function createNewTrack(\n        string memory filehash,\n        string memory filelink,\n        string memory category\n    ) public returns (uint256) {\n        _tokenIds.increment();\n\n        uint256 newTrackId = _tokenIds.current();\n        _mint(msg.sender, newTrackId);\n        Tracks memory track = Tracks({\n            filehash: filehash,\n            filelink: filelink,\n            category: category,\n            creationDate: block.timestamp\n        });\n\n        tracksData[newTrackId] = track;\n\n        emit TrackCreated({\n            filehash: filehash,\n            filelink: filelink,\n            category: category,\n            trackId: newTrackId,\n            creationDate: track.creationDate\n        });\n\n        return newTrackId;\n    }\n}\n",
  "sourcePath": "/Users/a1/Desktop/Office/projects/CrowdRecords/Contracts/contracts/TracksContract.sol",
  "compiler": {
    "name": "solc",
    "version": "0.8.12+commit.f00d7308.Emscripten.clang"
  },
  "schemaVersion": "3.4.6",
  "updatedAt": "2022-07-28T07:30:31.754Z",
  "networkType": "ethereum",
  "devdoc": {
    "events": {
      "TrackCreated(uint256,string,string,string,uint256)": {
        "details": "This is emited when a new track is created",
        "params": {
          "category": "this is the category of song",
          "creationDate": "this is hash of the preview file",
          "filehash": "This is hash of the file",
          "filelink": "This is the link to the file",
          "trackId": "This is the id of the track"
        }
      }
    },
    "kind": "dev",
    "methods": {
      "approve(address,uint256)": {
        "details": "See {IERC721-approve}."
      },
      "balanceOf(address)": {
        "details": "See {IERC721-balanceOf}."
      },
      "createNewTrack(string,string,string)": {
        "details": "This function will be called by the user to create a new contribution",
        "params": {
          "category": "this is the category of song",
          "filehash": "This is hash of the file",
          "filelink": "this is preview file of the contribution"
        }
      },
      "getApproved(uint256)": {
        "details": "See {IERC721-getApproved}."
      },
      "isApprovedForAll(address,address)": {
        "details": "See {IERC721-isApprovedForAll}."
      },
      "name()": {
        "details": "See {IERC721Metadata-name}."
      },
      "ownerOf(uint256)": {
        "details": "See {IERC721-ownerOf}."
      },
      "safeTransferFrom(address,address,uint256)": {
        "details": "See {IERC721-safeTransferFrom}."
      },
      "safeTransferFrom(address,address,uint256,bytes)": {
        "details": "See {IERC721-safeTransferFrom}."
      },
      "setApprovalForAll(address,bool)": {
        "details": "See {IERC721-setApprovalForAll}."
      },
      "supportsInterface(bytes4)": {
        "details": "See {IERC165-supportsInterface}."
      },
      "symbol()": {
        "details": "See {IERC721Metadata-symbol}."
      },
      "tokenURI(uint256)": {
        "details": "See {IERC721Metadata-tokenURI}."
      },
      "transferFrom(address,address,uint256)": {
        "details": "See {IERC721-transferFrom}."
      }
    },
    "version": 1
  },
  "userdoc": {
    "kind": "user",
    "methods": {},
    "version": 1
  }
}