{
  "contractName": "TracksContract",
  "abi": [
    {
      "inputs": [
        {
          "internalType": "address",
          "name": "owner",
          "type": "address"
        }
      ],
      "stateMutability": "nonpayable",
      "type": "constructor"
    },
    {
      "anonymous": false,
      "inputs": [
        {
          "indexed": false,
          "internalType": "uint8",
          "name": "version",
          "type": "uint8"
        }
      ],
      "name": "Initialized",
      "type": "event"
    },
    {
      "anonymous": false,
      "inputs": [
        {
          "indexed": false,
          "internalType": "uint256",
          "name": "trackId",
          "type": "uint256"
        },
        {
          "indexed": false,
          "internalType": "string",
          "name": "filehash",
          "type": "string"
        },
        {
          "indexed": false,
          "internalType": "string",
          "name": "filelink",
          "type": "string"
        },
        {
          "indexed": false,
          "internalType": "string",
          "name": "category",
          "type": "string"
        },
        {
          "indexed": false,
          "internalType": "uint256",
          "name": "creationDate",
          "type": "uint256"
        },
        {
          "indexed": false,
          "internalType": "address",
          "name": "owner",
          "type": "address"
        }
      ],
      "name": "TrackCreated",
      "type": "event"
    },
    {
      "anonymous": false,
      "inputs": [
        {
          "indexed": false,
          "internalType": "uint256[]",
          "name": "trackIds",
          "type": "uint256[]"
        },
        {
          "components": [
            {
              "internalType": "string",
              "name": "filehash",
              "type": "string"
            },
            {
              "internalType": "string",
              "name": "filelink",
              "type": "string"
            },
            {
              "internalType": "string",
              "name": "category",
              "type": "string"
            }
          ],
          "indexed": false,
          "internalType": "struct TracksContract.TrackPayload[]",
          "name": "trackData",
          "type": "tuple[]"
        },
        {
          "indexed": false,
          "internalType": "address",
          "name": "owner",
          "type": "address"
        }
      ],
      "name": "TracksCreated",
      "type": "event"
    },
    {
      "inputs": [],
      "name": "CONTROLLER_CONTRACT_ADDRESS",
      "outputs": [
        {
          "internalType": "address",
          "name": "",
          "type": "address"
        }
      ],
      "stateMutability": "view",
      "type": "function",
      "constant": true
    },
    {
      "inputs": [],
      "name": "OWNER",
      "outputs": [
        {
          "internalType": "address",
          "name": "",
          "type": "address"
        }
      ],
      "stateMutability": "view",
      "type": "function",
      "constant": true
    },
    {
      "inputs": [
        {
          "internalType": "uint256",
          "name": "",
          "type": "uint256"
        }
      ],
      "name": "tracksData",
      "outputs": [
        {
          "internalType": "string",
          "name": "filehash",
          "type": "string"
        },
        {
          "internalType": "string",
          "name": "filelink",
          "type": "string"
        },
        {
          "internalType": "string",
          "name": "category",
          "type": "string"
        },
        {
          "internalType": "uint256",
          "name": "creationDate",
          "type": "uint256"
        },
        {
          "internalType": "address",
          "name": "owner",
          "type": "address"
        }
      ],
      "stateMutability": "view",
      "type": "function",
      "constant": true
    },
    {
      "inputs": [
        {
          "internalType": "address",
          "name": "controllerContractAddress",
          "type": "address"
        }
      ],
      "name": "initialize",
      "outputs": [],
      "stateMutability": "nonpayable",
      "type": "function"
    },
    {
      "inputs": [
        {
          "components": [
            {
              "internalType": "string",
              "name": "filehash",
              "type": "string"
            },
            {
              "internalType": "string",
              "name": "filelink",
              "type": "string"
            },
            {
              "internalType": "string",
              "name": "category",
              "type": "string"
            }
          ],
          "internalType": "struct TracksContract.TrackPayload[]",
          "name": "tracksPayload",
          "type": "tuple[]"
        },
        {
          "internalType": "address",
          "name": "owner",
          "type": "address"
        }
      ],
      "name": "controllerCreateNewTracks",
      "outputs": [
        {
          "internalType": "uint256[]",
          "name": "",
          "type": "uint256[]"
        }
      ],
      "stateMutability": "nonpayable",
      "type": "function"
    },
    {
      "inputs": [
        {
          "components": [
            {
              "internalType": "string",
              "name": "filehash",
              "type": "string"
            },
            {
              "internalType": "string",
              "name": "filelink",
              "type": "string"
            },
            {
              "internalType": "string",
              "name": "category",
              "type": "string"
            }
          ],
          "internalType": "struct TracksContract.TrackPayload[]",
          "name": "tracksPayload",
          "type": "tuple[]"
        }
      ],
      "name": "createNewTracks",
      "outputs": [
        {
          "internalType": "uint256[]",
          "name": "",
          "type": "uint256[]"
        }
      ],
      "stateMutability": "nonpayable",
      "type": "function"
    },
    {
      "inputs": [
        {
          "internalType": "uint256[]",
          "name": "tracks",
          "type": "uint256[]"
        },
        {
          "internalType": "address",
          "name": "owner",
          "type": "address"
        }
      ],
      "name": "checkOwner",
      "outputs": [
        {
          "internalType": "bool",
          "name": "",
          "type": "bool"
        }
      ],
      "stateMutability": "view",
      "type": "function",
      "constant": true
    }
  ],
  "bytecode": "0x608060405234801561001057600080fd5b5060405161137538038061137583398101604081905261002f91610054565b600380546001600160a01b0319166001600160a01b0392909216919091179055610084565b60006020828403121561006657600080fd5b81516001600160a01b038116811461007d57600080fd5b9392505050565b6112e2806100936000396000f3fe608060405234801561001057600080fd5b506004361061007d5760003560e01c80636265a2bb1161005b5780636265a2bb146101105780639b6a6f0d14610123578063b260c8c314610143578063c4d66de81461016657600080fd5b8063117803e31461008257806324833c20146100cc578063450df1e0146100ec575b600080fd5b6003546100a29073ffffffffffffffffffffffffffffffffffffffff1681565b60405173ffffffffffffffffffffffffffffffffffffffff90911681526020015b60405180910390f35b6100df6100da366004610c09565b61017b565b6040516100c39190610c86565b6100ff6100fa366004610c99565b610191565b6040516100c3959493929190610d1d565b6100df61011e366004610dae565b61036e565b6002546100a29073ffffffffffffffffffffffffffffffffffffffff1681565b610156610151366004610e31565b610430565b60405190151581526020016100c3565b610179610174366004610f1f565b610534565b005b60606101888383336107a6565b90505b92915050565b6004602052600090815260409020805481906101ac90610f3a565b80601f01602080910402602001604051908101604052809291908181526020018280546101d890610f3a565b80156102255780601f106101fa57610100808354040283529160200191610225565b820191906000526020600020905b81548152906001019060200180831161020857829003601f168201915b50505050509080600101805461023a90610f3a565b80601f016020809104026020016040519081016040528092919081815260200182805461026690610f3a565b80156102b35780601f10610288576101008083540402835291602001916102b3565b820191906000526020600020905b81548152906001019060200180831161029657829003601f168201915b5050505050908060020180546102c890610f3a565b80601f01602080910402602001604051908101604052809291908181526020018280546102f490610f3a565b80156103415780601f1061031657610100808354040283529160200191610341565b820191906000526020600020905b81548152906001019060200180831161032457829003601f168201915b50505050600383015460049093015491929173ffffffffffffffffffffffffffffffffffffffff16905085565b60025460609073ffffffffffffffffffffffffffffffffffffffff16331461041d576040517f08c379a000000000000000000000000000000000000000000000000000000000815260206004820152602360248201527f554e415554484f52495a45443a2043414e4e4f545f504552464f524d5f41435460448201527f494f4e000000000000000000000000000000000000000000000000000000000060648201526084015b60405180910390fd5b6104288484846107a6565b949350505050565b60008083511161049c576040517f08c379a000000000000000000000000000000000000000000000000000000000815260206004820181905260248201527f547261636b732073697a652073686f756c64206265206174206c6561737420316044820152606401610414565b60005b835181101561052a578273ffffffffffffffffffffffffffffffffffffffff16600460008684815181106104d5576104d5610f8e565b60209081029190910181015182528101919091526040016000206004015473ffffffffffffffffffffffffffffffffffffffff161461051857600091505061018b565b8061052281610fbd565b91505061049f565b5060019392505050565b600054610100900460ff16158080156105545750600054600160ff909116105b8061056e5750303b15801561056e575060005460ff166001145b6105fa576040517f08c379a000000000000000000000000000000000000000000000000000000000815260206004820152602e60248201527f496e697469616c697a61626c653a20636f6e747261637420697320616c72656160448201527f647920696e697469616c697a65640000000000000000000000000000000000006064820152608401610414565b600080547fffffffffffffffffffffffffffffffffffffffffffffffffffffffffffffff00166001179055801561065857600080547fffffffffffffffffffffffffffffffffffffffffffffffffffffffffffff00ff166101001790555b60035473ffffffffffffffffffffffffffffffffffffffff1633146106ff576040517f08c379a000000000000000000000000000000000000000000000000000000000815260206004820152602360248201527f554e415554484f52495a45443a2043414e4e4f545f504552464f524d5f41435460448201527f494f4e00000000000000000000000000000000000000000000000000000000006064820152608401610414565b600280547fffffffffffffffffffffffff00000000000000000000000000000000000000001673ffffffffffffffffffffffffffffffffffffffff841617905580156107a257600080547fffffffffffffffffffffffffffffffffffffffffffffffffffffffffffff00ff169055604051600181527f7f26b83ff96e1f2b6a682f133852f6798a09c465da95921460cefb38474024989060200160405180910390a15b5050565b60608261080f576040517f08c379a000000000000000000000000000000000000000000000000000000000815260206004820152600a60248201527f4e6f207061796c6f6164000000000000000000000000000000000000000000006044820152606401610414565b8260008167ffffffffffffffff81111561082b5761082b610e02565b604051908082528060200260200182016040528015610854578160200160208202803683370190505b50905060005b82811015610add57610870600180546001019055565b60015482828151811061088557610885610f8e565b6020026020010181815250506040518060a001604052808888848181106108ae576108ae610f8e565b90506020028101906108c0919061101d565b6108ca908061105b565b8080601f01602080910402602001604051908101604052809392919081815260200183838082843760009201919091525050509082525060200188888481811061091657610916610f8e565b9050602002810190610928919061101d565b61093690602081019061105b565b8080601f01602080910402602001604051908101604052809392919081815260200183838082843760009201919091525050509082525060200188888481811061098257610982610f8e565b9050602002810190610994919061101d565b6109a290604081019061105b565b8080601f016020809104026020016040519081016040528093929190818152602001838380828437600092018290525093855250504260208401525073ffffffffffffffffffffffffffffffffffffffff8816604090920191909152835160049190859085908110610a1657610a16610f8e565b602002602001015181526020019081526020016000206000820151816000019080519060200190610a48929190610b24565b506020828101518051610a619260018501920190610b24565b5060408201518051610a7d916002840191602090910190610b24565b5060608201516003820155608090910151600490910180547fffffffffffffffffffffffff00000000000000000000000000000000000000001673ffffffffffffffffffffffffffffffffffffffff90921691909117905560010161085a565b507f9214d5896f8dff3ba8d8093864725d192ba1171cd37bf0923c00fffac6e8c67c81878787604051610b13949392919061116d565b60405180910390a195945050505050565b828054610b3090610f3a565b90600052602060002090601f016020900481019282610b525760008555610b98565b82601f10610b6b57805160ff1916838001178555610b98565b82800160010185558215610b98579182015b82811115610b98578251825591602001919060010190610b7d565b50610ba4929150610ba8565b5090565b5b80821115610ba45760008155600101610ba9565b60008083601f840112610bcf57600080fd5b50813567ffffffffffffffff811115610be757600080fd5b6020830191508360208260051b8501011115610c0257600080fd5b9250929050565b60008060208385031215610c1c57600080fd5b823567ffffffffffffffff811115610c3357600080fd5b610c3f85828601610bbd565b90969095509350505050565b600081518084526020808501945080840160005b83811015610c7b57815187529582019590820190600101610c5f565b509495945050505050565b6020815260006101886020830184610c4b565b600060208284031215610cab57600080fd5b5035919050565b6000815180845260005b81811015610cd857602081850181015186830182015201610cbc565b81811115610cea576000602083870101525b50601f017fffffffffffffffffffffffffffffffffffffffffffffffffffffffffffffffe0169290920160200192915050565b60a081526000610d3060a0830188610cb2565b8281036020840152610d428188610cb2565b90508281036040840152610d568187610cb2565b91505083606083015273ffffffffffffffffffffffffffffffffffffffff831660808301529695505050505050565b803573ffffffffffffffffffffffffffffffffffffffff81168114610da957600080fd5b919050565b600080600060408486031215610dc357600080fd5b833567ffffffffffffffff811115610dda57600080fd5b610de686828701610bbd565b9094509250610df9905060208501610d85565b90509250925092565b7f4e487b7100000000000000000000000000000000000000000000000000000000600052604160045260246000fd5b60008060408385031215610e4457600080fd5b823567ffffffffffffffff80821115610e5c57600080fd5b818501915085601f830112610e7057600080fd5b8135602082821115610e8457610e84610e02565b8160051b6040517fffffffffffffffffffffffffffffffffffffffffffffffffffffffffffffffe0603f83011681018181108682111715610ec757610ec7610e02565b604052928352818301935084810182019289841115610ee557600080fd5b948201945b83861015610f0357853585529482019493820193610eea565b9650610f129050878201610d85565b9450505050509250929050565b600060208284031215610f3157600080fd5b61018882610d85565b600181811c90821680610f4e57607f821691505b60208210811415610f88577f4e487b7100000000000000000000000000000000000000000000000000000000600052602260045260246000fd5b50919050565b7f4e487b7100000000000000000000000000000000000000000000000000000000600052603260045260246000fd5b60007fffffffffffffffffffffffffffffffffffffffffffffffffffffffffffffffff821415611016577f4e487b7100000000000000000000000000000000000000000000000000000000600052601160045260246000fd5b5060010190565b600082357fffffffffffffffffffffffffffffffffffffffffffffffffffffffffffffffa183360301811261105157600080fd5b9190910192915050565b60008083357fffffffffffffffffffffffffffffffffffffffffffffffffffffffffffffffe184360301811261109057600080fd5b83018035915067ffffffffffffffff8211156110ab57600080fd5b602001915036819003821315610c0257600080fd5b60008083357fffffffffffffffffffffffffffffffffffffffffffffffffffffffffffffffe18436030181126110f557600080fd5b830160208101925035905067ffffffffffffffff81111561111557600080fd5b803603831315610c0257600080fd5b8183528181602085013750600060208284010152600060207fffffffffffffffffffffffffffffffffffffffffffffffffffffffffffffffe0601f840116840101905092915050565b6000606080835261118081840188610c4b565b602084820381860152818783528183019050818860051b840101896000805b8b811015611278577fffffffffffffffffffffffffffffffffffffffffffffffffffffffffffffffe087850301855282357fffffffffffffffffffffffffffffffffffffffffffffffffffffffffffffffa18e36030181126111ff578283fd5b8d0161120b81806110c0565b8a875261121b8b88018284611124565b91505061122a888301836110c0565b8783038a89015261123c838284611124565b92505050604061124e818401846110c0565b935087830382890152611262838583611124565b988a01989750505093870193505060010161119f565b50505073ffffffffffffffffffffffffffffffffffffffff8816604088015294506112a39350505050565b9594505050505056fea2646970667358221220d133a726ada973f2c0641795b5b0e62b08396cbadc5099943f45030c39ab540a64736f6c634300080c0033",
  "immutableReferences": {},
  "source": "pragma solidity ^0.8.0;\n\nimport \"@openzeppelin/contracts-upgradeable/proxy/utils/Initializable.sol\";\nimport \"@openzeppelin/contracts/token/ERC721/ERC721.sol\";\nimport \"@openzeppelin/contracts/utils/Counters.sol\";\nimport \"@openzeppelin/contracts/access/Ownable.sol\";\n\ncontract TracksContract is Initializable {\n    using Counters for Counters.Counter;\n    Counters.Counter private _tokenIds;\n\n    address public CONTROLLER_CONTRACT_ADDRESS;\n    address public OWNER;\n\n    /// @dev This holds data of individual tracks\n    /// @param filehash This is hash of the file\n    /// @param filelink This is the link to the file\n    /// @param category this is the category of song\n    /// @param creationDate this is hash of the preview file\n    /// @param owner this is owner of the track\n    struct Tracks {\n        string filehash;\n        string filelink;\n        string category;\n        uint256 creationDate;\n        address owner;\n    }\n\n    /// @dev This is the payload for the Tracks creation\n    /// @param filehash This is hash of the file\n    /// @param filelink This is the link to the file\n    /// @param category this is the category of song\n    struct TrackPayload {\n        string filehash;\n        string filelink;\n        string category;\n    }\n\n    /// @dev This is emited when a new track is created\n    /// @param trackId This is the id of the track\n    /// @param filehash This is hash of the file\n    /// @param filelink This is the link to the file\n    /// @param category this is the category of song\n    /// @param creationDate this is hash of the preview file\n    /// @param owner this is the owner of the track\n    event TrackCreated(\n        uint256 trackId,\n        string filehash,\n        string filelink,\n        string category,\n        uint256 creationDate,\n        address owner\n    );\n\n    /// @dev This is emited when a new track is created\n    /// @param trackIds This is the id of the track\n    /// @param trackData This is the data for the tracks creation\n    /// @param owner This is the owner of the tracks\n    event TracksCreated(\n        uint256[] trackIds,\n        TrackPayload[] trackData,\n        address owner\n    );\n\n    mapping(uint256 => Tracks) public tracksData;\n\n    constructor(address owner) {\n        OWNER = owner;\n    }\n\n    /// @dev Modifier to check that the person who accesses a specific function is the owner of contract himself.\n    modifier ownerOnly() {\n        require(msg.sender == OWNER, \"UNAUTHORIZED: CANNOT_PERFORM_ACTION\");\n        _;\n    }\n\n    /// @dev Modifier to restrict the function call from controller contract\n    modifier controllerContractOnly() {\n        require(\n            msg.sender == CONTROLLER_CONTRACT_ADDRESS,\n            \"UNAUTHORIZED: CANNOT_PERFORM_ACTION\"\n        );\n        _;\n    }\n\n    /// @dev This is to set the address of the contracts\n    /// @param controllerContractAddress this is the address of controller contract\n    function initialize(\n        address controllerContractAddress\n    ) public initializer ownerOnly {\n        CONTROLLER_CONTRACT_ADDRESS = controllerContractAddress;\n    }\n\n    /// @dev This function will create tracks but it would only be called from controller\n    /// @param tracksPayload This is the payload that contains multiple data\n    /// @param owner This is the owner of the tracks\n    function controllerCreateNewTracks(\n        TrackPayload[] calldata tracksPayload,\n        address owner\n    ) public controllerContractOnly returns (uint256[] memory) {\n        return _createNewTracks(tracksPayload, owner);\n    }\n\n    /// @dev This function will be called by the user to create multiple tracks\n    /// @param tracksPayload This is the payload that contains multiple data\n    function createNewTracks(\n        TrackPayload[] calldata tracksPayload\n    ) public returns (uint256[] memory) {\n        return _createNewTracks(tracksPayload, msg.sender);\n    }\n\n    /// @dev This function will be called by the user to create multiple tracks\n    /// @param tracksPayload This is the payload that contains multiple data\n    /// @param owner This is the owner of the tracks\n    function _createNewTracks(\n        TrackPayload[] calldata tracksPayload,\n        address owner\n    ) internal returns (uint256[] memory) {\n        require(tracksPayload.length > 0, \"No payload\");\n        uint256 length = tracksPayload.length;\n        uint256[] memory trackIds = new uint256[](length);\n\n        for (uint i = 0; i < length; ) {\n            _tokenIds.increment();\n            trackIds[i] = _tokenIds.current();\n            // Tracks memory track = Tracks({\n            //     filehash: tracksPayload[i].filehash,\n            //     filelink: tracksPayload[i].filelink,\n            //     category: tracksPayload[i].category,\n            //     creationDate: block.timestamp,\n            //     owner: owner\n            // });\n\n            // emit TrackCreated({\n            //     filehash: tracksPayload[i].filehash,\n            //     filelink: tracksPayload[i].filelink,\n            //     category: tracksPayload[i].category,\n            //     trackId: trackIds[i],\n            //     creationDate: track.creationDate,\n            //     owner: owner\n            // });\n\n            // tracksData[trackIds[i]] = track;\n            tracksData[trackIds[i]] = Tracks({\n                filehash: tracksPayload[i].filehash,\n                filelink: tracksPayload[i].filelink,\n                category: tracksPayload[i].category,\n                creationDate: block.timestamp,\n                owner: owner\n            });\n            unchecked {\n                ++i;\n            }\n        }\n\n        emit TracksCreated(trackIds, tracksPayload, owner);\n\n        return trackIds;\n    }\n\n    /// @dev This function checks if all the tracks are owned by the single user\n    /// @param tracks List of tracks Id which needs to be checked for the ownership\n    /// @param owner This is the address of the owner\n    /// @return status It returns true\n    function checkOwner(\n        uint256[] memory tracks,\n        address owner\n    ) public view returns (bool) {\n        require(tracks.length > 0, \"Tracks size should be at least 1\");\n        for (uint256 i = 0; i < tracks.length; i++) {\n            if (tracksData[tracks[i]].owner != owner) {\n                return false;\n            }\n        }\n        return true;\n    }\n}\n",
  "sourcePath": "/Users/a1/Desktop/Office/projects/CrowdRecords/Contracts/contracts/TracksContract.sol",
  "compiler": {
    "name": "solc",
    "version": "0.8.12+commit.f00d7308.Emscripten.clang"
  },
  "schemaVersion": "3.4.6",
  "updatedAt": "2023-09-04T11:48:55.081Z",
  "networkType": "ethereum",
  "devdoc": {
    "events": {
      "TrackCreated(uint256,string,string,string,uint256,address)": {
        "details": "This is emited when a new track is created",
        "params": {
          "category": "this is the category of song",
          "creationDate": "this is hash of the preview file",
          "filehash": "This is hash of the file",
          "filelink": "This is the link to the file",
          "owner": "this is the owner of the track",
          "trackId": "This is the id of the track"
        }
      },
      "TracksCreated(uint256[],(string,string,string)[],address)": {
        "details": "This is emited when a new track is created",
        "params": {
          "owner": "This is the owner of the tracks",
          "trackData": "This is the data for the tracks creation",
          "trackIds": "This is the id of the track"
        }
      }
    },
    "kind": "dev",
    "methods": {
      "checkOwner(uint256[],address)": {
        "details": "This function checks if all the tracks are owned by the single user",
        "params": {
          "owner": "This is the address of the owner",
          "tracks": "List of tracks Id which needs to be checked for the ownership"
        },
        "returns": {
          "_0": "status It returns true"
        }
      },
      "controllerCreateNewTracks((string,string,string)[],address)": {
        "details": "This function will create tracks but it would only be called from controller",
        "params": {
          "owner": "This is the owner of the tracks",
          "tracksPayload": "This is the payload that contains multiple data"
        }
      },
      "createNewTracks((string,string,string)[])": {
        "details": "This function will be called by the user to create multiple tracks",
        "params": {
          "tracksPayload": "This is the payload that contains multiple data"
        }
      },
      "initialize(address)": {
        "details": "This is to set the address of the contracts",
        "params": {
          "controllerContractAddress": "this is the address of controller contract"
        }
      }
    },
    "version": 1
  },
  "userdoc": {
    "kind": "user",
    "methods": {},
    "version": 1
  }
}