{
  "contractName": "TracksContract",
  "abi": [
    {
      "inputs": [],
      "stateMutability": "nonpayable",
      "type": "constructor"
    },
    {
      "anonymous": false,
      "inputs": [
        {
          "indexed": true,
          "internalType": "address",
          "name": "owner",
          "type": "address"
        },
        {
          "indexed": true,
          "internalType": "address",
          "name": "approved",
          "type": "address"
        },
        {
          "indexed": true,
          "internalType": "uint256",
          "name": "tokenId",
          "type": "uint256"
        }
      ],
      "name": "Approval",
      "type": "event"
    },
    {
      "anonymous": false,
      "inputs": [
        {
          "indexed": true,
          "internalType": "address",
          "name": "owner",
          "type": "address"
        },
        {
          "indexed": true,
          "internalType": "address",
          "name": "operator",
          "type": "address"
        },
        {
          "indexed": false,
          "internalType": "bool",
          "name": "approved",
          "type": "bool"
        }
      ],
      "name": "ApprovalForAll",
      "type": "event"
    },
    {
      "anonymous": false,
      "inputs": [
        {
          "indexed": false,
          "internalType": "uint256",
          "name": "trackId",
          "type": "uint256"
        },
        {
          "indexed": false,
          "internalType": "string",
          "name": "filehash",
          "type": "string"
        },
        {
          "indexed": false,
          "internalType": "string",
          "name": "filelink",
          "type": "string"
        },
        {
          "indexed": false,
          "internalType": "string",
          "name": "category",
          "type": "string"
        },
        {
          "indexed": false,
          "internalType": "uint256",
          "name": "creationDate",
          "type": "uint256"
        }
      ],
      "name": "TrackCreated",
      "type": "event"
    },
    {
      "anonymous": false,
      "inputs": [
        {
          "indexed": true,
          "internalType": "address",
          "name": "from",
          "type": "address"
        },
        {
          "indexed": true,
          "internalType": "address",
          "name": "to",
          "type": "address"
        },
        {
          "indexed": true,
          "internalType": "uint256",
          "name": "tokenId",
          "type": "uint256"
        }
      ],
      "name": "Transfer",
      "type": "event"
    },
    {
      "inputs": [
        {
          "internalType": "address",
          "name": "to",
          "type": "address"
        },
        {
          "internalType": "uint256",
          "name": "tokenId",
          "type": "uint256"
        }
      ],
      "name": "approve",
      "outputs": [],
      "stateMutability": "nonpayable",
      "type": "function"
    },
    {
      "inputs": [
        {
          "internalType": "address",
          "name": "owner",
          "type": "address"
        }
      ],
      "name": "balanceOf",
      "outputs": [
        {
          "internalType": "uint256",
          "name": "",
          "type": "uint256"
        }
      ],
      "stateMutability": "view",
      "type": "function"
    },
    {
      "inputs": [
        {
          "internalType": "uint256",
          "name": "tokenId",
          "type": "uint256"
        }
      ],
      "name": "getApproved",
      "outputs": [
        {
          "internalType": "address",
          "name": "",
          "type": "address"
        }
      ],
      "stateMutability": "view",
      "type": "function"
    },
    {
      "inputs": [
        {
          "internalType": "address",
          "name": "owner",
          "type": "address"
        },
        {
          "internalType": "address",
          "name": "operator",
          "type": "address"
        }
      ],
      "name": "isApprovedForAll",
      "outputs": [
        {
          "internalType": "bool",
          "name": "",
          "type": "bool"
        }
      ],
      "stateMutability": "view",
      "type": "function"
    },
    {
      "inputs": [],
      "name": "name",
      "outputs": [
        {
          "internalType": "string",
          "name": "",
          "type": "string"
        }
      ],
      "stateMutability": "view",
      "type": "function"
    },
    {
      "inputs": [
        {
          "internalType": "uint256",
          "name": "tokenId",
          "type": "uint256"
        }
      ],
      "name": "ownerOf",
      "outputs": [
        {
          "internalType": "address",
          "name": "",
          "type": "address"
        }
      ],
      "stateMutability": "view",
      "type": "function"
    },
    {
      "inputs": [
        {
          "internalType": "address",
          "name": "from",
          "type": "address"
        },
        {
          "internalType": "address",
          "name": "to",
          "type": "address"
        },
        {
          "internalType": "uint256",
          "name": "tokenId",
          "type": "uint256"
        }
      ],
      "name": "safeTransferFrom",
      "outputs": [],
      "stateMutability": "nonpayable",
      "type": "function"
    },
    {
      "inputs": [
        {
          "internalType": "address",
          "name": "from",
          "type": "address"
        },
        {
          "internalType": "address",
          "name": "to",
          "type": "address"
        },
        {
          "internalType": "uint256",
          "name": "tokenId",
          "type": "uint256"
        },
        {
          "internalType": "bytes",
          "name": "_data",
          "type": "bytes"
        }
      ],
      "name": "safeTransferFrom",
      "outputs": [],
      "stateMutability": "nonpayable",
      "type": "function"
    },
    {
      "inputs": [
        {
          "internalType": "address",
          "name": "operator",
          "type": "address"
        },
        {
          "internalType": "bool",
          "name": "approved",
          "type": "bool"
        }
      ],
      "name": "setApprovalForAll",
      "outputs": [],
      "stateMutability": "nonpayable",
      "type": "function"
    },
    {
      "inputs": [
        {
          "internalType": "bytes4",
          "name": "interfaceId",
          "type": "bytes4"
        }
      ],
      "name": "supportsInterface",
      "outputs": [
        {
          "internalType": "bool",
          "name": "",
          "type": "bool"
        }
      ],
      "stateMutability": "view",
      "type": "function"
    },
    {
      "inputs": [],
      "name": "symbol",
      "outputs": [
        {
          "internalType": "string",
          "name": "",
          "type": "string"
        }
      ],
      "stateMutability": "view",
      "type": "function"
    },
    {
      "inputs": [
        {
          "internalType": "uint256",
          "name": "tokenId",
          "type": "uint256"
        }
      ],
      "name": "tokenURI",
      "outputs": [
        {
          "internalType": "string",
          "name": "",
          "type": "string"
        }
      ],
      "stateMutability": "view",
      "type": "function"
    },
    {
      "inputs": [
        {
          "internalType": "address",
          "name": "from",
          "type": "address"
        },
        {
          "internalType": "address",
          "name": "to",
          "type": "address"
        },
        {
          "internalType": "uint256",
          "name": "tokenId",
          "type": "uint256"
        }
      ],
      "name": "transferFrom",
      "outputs": [],
      "stateMutability": "nonpayable",
      "type": "function"
    },
    {
      "inputs": [
        {
          "internalType": "string",
          "name": "filehash",
          "type": "string"
        },
        {
          "internalType": "string",
          "name": "filelink",
          "type": "string"
        },
        {
          "internalType": "string",
          "name": "category",
          "type": "string"
        }
      ],
      "name": "createNewTrack",
      "outputs": [
        {
          "internalType": "uint256",
          "name": "",
          "type": "uint256"
        }
      ],
      "stateMutability": "nonpayable",
      "type": "function"
    }
  ],
  "bytecode": "0x60806040523480156200001157600080fd5b506040518060400160405280600681526020017f547261636b7300000000000000000000000000000000000000000000000000008152506040518060400160405280600881526020017f4352445f54524b53000000000000000000000000000000000000000000000000815250816000908051906020019062000096929190620000b8565b508060019080519060200190620000af929190620000b8565b505050620001cd565b828054620000c69062000197565b90600052602060002090601f016020900481019282620000ea576000855562000136565b82601f106200010557805160ff191683800117855562000136565b8280016001018555821562000136579182015b828111156200013557825182559160200191906001019062000118565b5b50905062000145919062000149565b5090565b5b80821115620001645760008160009055506001016200014a565b5090565b7f4e487b7100000000000000000000000000000000000000000000000000000000600052602260045260246000fd5b60006002820490506001821680620001b057607f821691505b60208210811415620001c757620001c662000168565b5b50919050565b61294880620001dd6000396000f3fe608060405234801561001057600080fd5b50600436106100ea5760003560e01c80636352211e1161008c578063a22cb46511610066578063a22cb4651461026f578063b88d4fde1461028b578063c87b56dd146102a7578063e985e9c5146102d7576100ea565b80636352211e146101f157806370a082311461022157806395d89b4114610251576100ea565b8063095ea7b3116100c8578063095ea7b31461016d57806323b872dd146101895780633f50f059146101a557806342842e0e146101d5576100ea565b806301ffc9a7146100ef57806306fdde031461011f578063081812fc1461013d575b600080fd5b6101096004803603810190610104919061171b565b610307565b6040516101169190611763565b60405180910390f35b6101276103e9565b6040516101349190611817565b60405180910390f35b6101576004803603810190610152919061186f565b61047b565b60405161016491906118dd565b60405180910390f35b61018760048036038101906101829190611924565b610500565b005b6101a3600480360381019061019e9190611964565b610618565b005b6101bf60048036038101906101ba9190611aec565b610678565b6040516101cc9190611ba2565b60405180910390f35b6101ef60048036038101906101ea9190611964565b610710565b005b61020b6004803603810190610206919061186f565b610730565b60405161021891906118dd565b60405180910390f35b61023b60048036038101906102369190611bbd565b6107e2565b6040516102489190611ba2565b60405180910390f35b61025961089a565b6040516102669190611817565b60405180910390f35b61028960048036038101906102849190611c16565b61092c565b005b6102a560048036038101906102a09190611cf7565b610942565b005b6102c160048036038101906102bc919061186f565b6109a4565b6040516102ce9190611817565b60405180910390f35b6102f160048036038101906102ec9190611d7a565b610a4b565b6040516102fe9190611763565b60405180910390f35b60007f80ac58cd000000000000000000000000000000000000000000000000000000007bffffffffffffffffffffffffffffffffffffffffffffffffffffffff1916827bffffffffffffffffffffffffffffffffffffffffffffffffffffffff191614806103d257507f5b5e139f000000000000000000000000000000000000000000000000000000007bffffffffffffffffffffffffffffffffffffffffffffffffffffffff1916827bffffffffffffffffffffffffffffffffffffffffffffffffffffffff1916145b806103e257506103e182610adf565b5b9050919050565b6060600080546103f890611de9565b80601f016020809104026020016040519081016040528092919081815260200182805461042490611de9565b80156104715780601f1061044657610100808354040283529160200191610471565b820191906000526020600020905b81548152906001019060200180831161045457829003601f168201915b5050505050905090565b600061048682610b49565b6104c5576040517f08c379a00000000000000000000000000000000000000000000000000000000081526004016104bc90611e8d565b60405180910390fd5b6004600083815260200190815260200160002060009054906101000a900473ffffffffffffffffffffffffffffffffffffffff169050919050565b600061050b82610730565b90508073ffffffffffffffffffffffffffffffffffffffff168373ffffffffffffffffffffffffffffffffffffffff16141561057c576040517f08c379a000000000000000000000000000000000000000000000000000000000815260040161057390611f1f565b60405180910390fd5b8073ffffffffffffffffffffffffffffffffffffffff1661059b610bb5565b73ffffffffffffffffffffffffffffffffffffffff1614806105ca57506105c9816105c4610bb5565b610a4b565b5b610609576040517f08c379a000000000000000000000000000000000000000000000000000000000815260040161060090611fb1565b60405180910390fd5b6106138383610bbd565b505050565b610629610623610bb5565b82610c76565b610668576040517f08c379a000000000000000000000000000000000000000000000000000000000815260040161065f90612043565b60405180910390fd5b610673838383610d54565b505050565b60006106846006610fbb565b60006106906006610fd1565b905061069c3382610fdf565b600060405180608001604052808781526020018681526020018581526020014281525090507f8c298b6d3402cc8da100f0cfe1de991bbab172a342c0e5d1a7e32589783ff8bf8287878785606001516040516106fc959493929190612063565b60405180910390a181925050509392505050565b61072b83838360405180602001604052806000815250610942565b505050565b6000806002600084815260200190815260200160002060009054906101000a900473ffffffffffffffffffffffffffffffffffffffff169050600073ffffffffffffffffffffffffffffffffffffffff168173ffffffffffffffffffffffffffffffffffffffff1614156107d9576040517f08c379a00000000000000000000000000000000000000000000000000000000081526004016107d09061213d565b60405180910390fd5b80915050919050565b60008073ffffffffffffffffffffffffffffffffffffffff168273ffffffffffffffffffffffffffffffffffffffff161415610853576040517f08c379a000000000000000000000000000000000000000000000000000000000815260040161084a906121cf565b60405180910390fd5b600360008373ffffffffffffffffffffffffffffffffffffffff1673ffffffffffffffffffffffffffffffffffffffff168152602001908152602001600020549050919050565b6060600180546108a990611de9565b80601f01602080910402602001604051908101604052809291908181526020018280546108d590611de9565b80156109225780601f106108f757610100808354040283529160200191610922565b820191906000526020600020905b81548152906001019060200180831161090557829003601f168201915b5050505050905090565b61093e610937610bb5565b83836111b9565b5050565b61095361094d610bb5565b83610c76565b610992576040517f08c379a000000000000000000000000000000000000000000000000000000000815260040161098990612043565b60405180910390fd5b61099e84848484611326565b50505050565b60606109af82610b49565b6109ee576040517f08c379a00000000000000000000000000000000000000000000000000000000081526004016109e590612261565b60405180910390fd5b60006109f8611382565b90506000815111610a185760405180602001604052806000815250610a43565b80610a2284611399565b604051602001610a339291906122bd565b6040516020818303038152906040525b915050919050565b6000600560008473ffffffffffffffffffffffffffffffffffffffff1673ffffffffffffffffffffffffffffffffffffffff16815260200190815260200160002060008373ffffffffffffffffffffffffffffffffffffffff1673ffffffffffffffffffffffffffffffffffffffff16815260200190815260200160002060009054906101000a900460ff16905092915050565b60007f01ffc9a7000000000000000000000000000000000000000000000000000000007bffffffffffffffffffffffffffffffffffffffffffffffffffffffff1916827bffffffffffffffffffffffffffffffffffffffffffffffffffffffff1916149050919050565b60008073ffffffffffffffffffffffffffffffffffffffff166002600084815260200190815260200160002060009054906101000a900473ffffffffffffffffffffffffffffffffffffffff1673ffffffffffffffffffffffffffffffffffffffff1614159050919050565b600033905090565b816004600083815260200190815260200160002060006101000a81548173ffffffffffffffffffffffffffffffffffffffff021916908373ffffffffffffffffffffffffffffffffffffffff160217905550808273ffffffffffffffffffffffffffffffffffffffff16610c3083610730565b73ffffffffffffffffffffffffffffffffffffffff167f8c5be1e5ebec7d5bd14f71427d1e84f3dd0314c0f7b2291e5b200ac8c7c3b92560405160405180910390a45050565b6000610c8182610b49565b610cc0576040517f08c379a0000000000000000000000000000000000000000000000000000000008152600401610cb790612353565b60405180910390fd5b6000610ccb83610730565b90508073ffffffffffffffffffffffffffffffffffffffff168473ffffffffffffffffffffffffffffffffffffffff161480610d3a57508373ffffffffffffffffffffffffffffffffffffffff16610d228461047b565b73ffffffffffffffffffffffffffffffffffffffff16145b80610d4b5750610d4a8185610a4b565b5b91505092915050565b8273ffffffffffffffffffffffffffffffffffffffff16610d7482610730565b73ffffffffffffffffffffffffffffffffffffffff1614610dca576040517f08c379a0000000000000000000000000000000000000000000000000000000008152600401610dc1906123e5565b60405180910390fd5b600073ffffffffffffffffffffffffffffffffffffffff168273ffffffffffffffffffffffffffffffffffffffff161415610e3a576040517f08c379a0000000000000000000000000000000000000000000000000000000008152600401610e3190612477565b60405180910390fd5b610e458383836114fa565b610e50600082610bbd565b6001600360008573ffffffffffffffffffffffffffffffffffffffff1673ffffffffffffffffffffffffffffffffffffffff1681526020019081526020016000206000828254610ea091906124c6565b925050819055506001600360008473ffffffffffffffffffffffffffffffffffffffff1673ffffffffffffffffffffffffffffffffffffffff1681526020019081526020016000206000828254610ef791906124fa565b92505081905550816002600083815260200190815260200160002060006101000a81548173ffffffffffffffffffffffffffffffffffffffff021916908373ffffffffffffffffffffffffffffffffffffffff160217905550808273ffffffffffffffffffffffffffffffffffffffff168473ffffffffffffffffffffffffffffffffffffffff167fddf252ad1be2c89b69c2b068fc378daa952ba7f163c4a11628f55a4df523b3ef60405160405180910390a4610fb68383836114ff565b505050565b6001816000016000828254019250508190555050565b600081600001549050919050565b600073ffffffffffffffffffffffffffffffffffffffff168273ffffffffffffffffffffffffffffffffffffffff16141561104f576040517f08c379a00000000000000000000000000000000000000000000000000000000081526004016110469061259c565b60405180910390fd5b61105881610b49565b15611098576040517f08c379a000000000000000000000000000000000000000000000000000000000815260040161108f90612608565b60405180910390fd5b6110a4600083836114fa565b6001600360008473ffffffffffffffffffffffffffffffffffffffff1673ffffffffffffffffffffffffffffffffffffffff16815260200190815260200160002060008282546110f491906124fa565b92505081905550816002600083815260200190815260200160002060006101000a81548173ffffffffffffffffffffffffffffffffffffffff021916908373ffffffffffffffffffffffffffffffffffffffff160217905550808273ffffffffffffffffffffffffffffffffffffffff16600073ffffffffffffffffffffffffffffffffffffffff167fddf252ad1be2c89b69c2b068fc378daa952ba7f163c4a11628f55a4df523b3ef60405160405180910390a46111b5600083836114ff565b5050565b8173ffffffffffffffffffffffffffffffffffffffff168373ffffffffffffffffffffffffffffffffffffffff161415611228576040517f08c379a000000000000000000000000000000000000000000000000000000000815260040161121f90612674565b60405180910390fd5b80600560008573ffffffffffffffffffffffffffffffffffffffff1673ffffffffffffffffffffffffffffffffffffffff16815260200190815260200160002060008473ffffffffffffffffffffffffffffffffffffffff1673ffffffffffffffffffffffffffffffffffffffff16815260200190815260200160002060006101000a81548160ff0219169083151502179055508173ffffffffffffffffffffffffffffffffffffffff168373ffffffffffffffffffffffffffffffffffffffff167f17307eab39ab6107e8899845ad3d59bd9653f200f220920489ca2b5937696c31836040516113199190611763565b60405180910390a3505050565b611331848484610d54565b61133d84848484611504565b61137c576040517f08c379a000000000000000000000000000000000000000000000000000000000815260040161137390612706565b60405180910390fd5b50505050565b606060405180602001604052806000815250905090565b606060008214156113e1576040518060400160405280600181526020017f300000000000000000000000000000000000000000000000000000000000000081525090506114f5565b600082905060005b600082146114135780806113fc90612726565b915050600a8261140c919061279e565b91506113e9565b60008167ffffffffffffffff81111561142f5761142e6119c1565b5b6040519080825280601f01601f1916602001820160405280156114615781602001600182028036833780820191505090505b5090505b600085146114ee5760018261147a91906124c6565b9150600a8561148991906127cf565b603061149591906124fa565b60f81b8183815181106114ab576114aa612800565b5b60200101907effffffffffffffffffffffffffffffffffffffffffffffffffffffffffffff1916908160001a905350600a856114e7919061279e565b9450611465565b8093505050505b919050565b505050565b505050565b60006115258473ffffffffffffffffffffffffffffffffffffffff1661168c565b1561167f578373ffffffffffffffffffffffffffffffffffffffff1663150b7a0261154e610bb5565b8786866040518563ffffffff1660e01b81526004016115709493929190612884565b6020604051808303816000875af19250505080156115ac57506040513d601f19601f820116820180604052508101906115a991906128e5565b60015b61162f573d80600081146115dc576040519150601f19603f3d011682016040523d82523d6000602084013e6115e1565b606091505b50600081511415611627576040517f08c379a000000000000000000000000000000000000000000000000000000000815260040161161e90612706565b60405180910390fd5b805181602001fd5b63150b7a0260e01b7bffffffffffffffffffffffffffffffffffffffffffffffffffffffff1916817bffffffffffffffffffffffffffffffffffffffffffffffffffffffff191614915050611684565b600190505b949350505050565b6000808273ffffffffffffffffffffffffffffffffffffffff163b119050919050565b6000604051905090565b600080fd5b600080fd5b60007fffffffff0000000000000000000000000000000000000000000000000000000082169050919050565b6116f8816116c3565b811461170357600080fd5b50565b600081359050611715816116ef565b92915050565b600060208284031215611731576117306116b9565b5b600061173f84828501611706565b91505092915050565b60008115159050919050565b61175d81611748565b82525050565b60006020820190506117786000830184611754565b92915050565b600081519050919050565b600082825260208201905092915050565b60005b838110156117b857808201518184015260208101905061179d565b838111156117c7576000848401525b50505050565b6000601f19601f8301169050919050565b60006117e98261177e565b6117f38185611789565b935061180381856020860161179a565b61180c816117cd565b840191505092915050565b6000602082019050818103600083015261183181846117de565b905092915050565b6000819050919050565b61184c81611839565b811461185757600080fd5b50565b60008135905061186981611843565b92915050565b600060208284031215611885576118846116b9565b5b60006118938482850161185a565b91505092915050565b600073ffffffffffffffffffffffffffffffffffffffff82169050919050565b60006118c78261189c565b9050919050565b6118d7816118bc565b82525050565b60006020820190506118f260008301846118ce565b92915050565b611901816118bc565b811461190c57600080fd5b50565b60008135905061191e816118f8565b92915050565b6000806040838503121561193b5761193a6116b9565b5b60006119498582860161190f565b925050602061195a8582860161185a565b9150509250929050565b60008060006060848603121561197d5761197c6116b9565b5b600061198b8682870161190f565b935050602061199c8682870161190f565b92505060406119ad8682870161185a565b9150509250925092565b600080fd5b600080fd5b7f4e487b7100000000000000000000000000000000000000000000000000000000600052604160045260246000fd5b6119f9826117cd565b810181811067ffffffffffffffff82111715611a1857611a176119c1565b5b80604052505050565b6000611a2b6116af565b9050611a3782826119f0565b919050565b600067ffffffffffffffff821115611a5757611a566119c1565b5b611a60826117cd565b9050602081019050919050565b82818337600083830152505050565b6000611a8f611a8a84611a3c565b611a21565b905082815260208101848484011115611aab57611aaa6119bc565b5b611ab6848285611a6d565b509392505050565b600082601f830112611ad357611ad26119b7565b5b8135611ae3848260208601611a7c565b91505092915050565b600080600060608486031215611b0557611b046116b9565b5b600084013567ffffffffffffffff811115611b2357611b226116be565b5b611b2f86828701611abe565b935050602084013567ffffffffffffffff811115611b5057611b4f6116be565b5b611b5c86828701611abe565b925050604084013567ffffffffffffffff811115611b7d57611b7c6116be565b5b611b8986828701611abe565b9150509250925092565b611b9c81611839565b82525050565b6000602082019050611bb76000830184611b93565b92915050565b600060208284031215611bd357611bd26116b9565b5b6000611be18482850161190f565b91505092915050565b611bf381611748565b8114611bfe57600080fd5b50565b600081359050611c1081611bea565b92915050565b60008060408385031215611c2d57611c2c6116b9565b5b6000611c3b8582860161190f565b9250506020611c4c85828601611c01565b9150509250929050565b600067ffffffffffffffff821115611c7157611c706119c1565b5b611c7a826117cd565b9050602081019050919050565b6000611c9a611c9584611c56565b611a21565b905082815260208101848484011115611cb657611cb56119bc565b5b611cc1848285611a6d565b509392505050565b600082601f830112611cde57611cdd6119b7565b5b8135611cee848260208601611c87565b91505092915050565b60008060008060808587031215611d1157611d106116b9565b5b6000611d1f8782880161190f565b9450506020611d308782880161190f565b9350506040611d418782880161185a565b925050606085013567ffffffffffffffff811115611d6257611d616116be565b5b611d6e87828801611cc9565b91505092959194509250565b60008060408385031215611d9157611d906116b9565b5b6000611d9f8582860161190f565b9250506020611db08582860161190f565b9150509250929050565b7f4e487b7100000000000000000000000000000000000000000000000000000000600052602260045260246000fd5b60006002820490506001821680611e0157607f821691505b60208210811415611e1557611e14611dba565b5b50919050565b7f4552433732313a20617070726f76656420717565727920666f72206e6f6e657860008201527f697374656e7420746f6b656e0000000000000000000000000000000000000000602082015250565b6000611e77602c83611789565b9150611e8282611e1b565b604082019050919050565b60006020820190508181036000830152611ea681611e6a565b9050919050565b7f4552433732313a20617070726f76616c20746f2063757272656e74206f776e6560008201527f7200000000000000000000000000000000000000000000000000000000000000602082015250565b6000611f09602183611789565b9150611f1482611ead565b604082019050919050565b60006020820190508181036000830152611f3881611efc565b9050919050565b7f4552433732313a20617070726f76652063616c6c6572206973206e6f74206f7760008201527f6e6572206e6f7220617070726f76656420666f7220616c6c0000000000000000602082015250565b6000611f9b603883611789565b9150611fa682611f3f565b604082019050919050565b60006020820190508181036000830152611fca81611f8e565b9050919050565b7f4552433732313a207472616e736665722063616c6c6572206973206e6f74206f60008201527f776e6572206e6f7220617070726f766564000000000000000000000000000000602082015250565b600061202d603183611789565b915061203882611fd1565b604082019050919050565b6000602082019050818103600083015261205c81612020565b9050919050565b600060a0820190506120786000830188611b93565b818103602083015261208a81876117de565b9050818103604083015261209e81866117de565b905081810360608301526120b281856117de565b90506120c16080830184611b93565b9695505050505050565b7f4552433732313a206f776e657220717565727920666f72206e6f6e657869737460008201527f656e7420746f6b656e0000000000000000000000000000000000000000000000602082015250565b6000612127602983611789565b9150612132826120cb565b604082019050919050565b600060208201905081810360008301526121568161211a565b9050919050565b7f4552433732313a2062616c616e636520717565727920666f7220746865207a6560008201527f726f206164647265737300000000000000000000000000000000000000000000602082015250565b60006121b9602a83611789565b91506121c48261215d565b604082019050919050565b600060208201905081810360008301526121e8816121ac565b9050919050565b7f4552433732314d657461646174613a2055524920717565727920666f72206e6f60008201527f6e6578697374656e7420746f6b656e0000000000000000000000000000000000602082015250565b600061224b602f83611789565b9150612256826121ef565b604082019050919050565b6000602082019050818103600083015261227a8161223e565b9050919050565b600081905092915050565b60006122978261177e565b6122a18185612281565b93506122b181856020860161179a565b80840191505092915050565b60006122c9828561228c565b91506122d5828461228c565b91508190509392505050565b7f4552433732313a206f70657261746f7220717565727920666f72206e6f6e657860008201527f697374656e7420746f6b656e0000000000000000000000000000000000000000602082015250565b600061233d602c83611789565b9150612348826122e1565b604082019050919050565b6000602082019050818103600083015261236c81612330565b9050919050565b7f4552433732313a207472616e736665722066726f6d20696e636f72726563742060008201527f6f776e6572000000000000000000000000000000000000000000000000000000602082015250565b60006123cf602583611789565b91506123da82612373565b604082019050919050565b600060208201905081810360008301526123fe816123c2565b9050919050565b7f4552433732313a207472616e7366657220746f20746865207a65726f2061646460008201527f7265737300000000000000000000000000000000000000000000000000000000602082015250565b6000612461602483611789565b915061246c82612405565b604082019050919050565b6000602082019050818103600083015261249081612454565b9050919050565b7f4e487b7100000000000000000000000000000000000000000000000000000000600052601160045260246000fd5b60006124d182611839565b91506124dc83611839565b9250828210156124ef576124ee612497565b5b828203905092915050565b600061250582611839565b915061251083611839565b9250827fffffffffffffffffffffffffffffffffffffffffffffffffffffffffffffffff0382111561254557612544612497565b5b828201905092915050565b7f4552433732313a206d696e7420746f20746865207a65726f2061646472657373600082015250565b6000612586602083611789565b915061259182612550565b602082019050919050565b600060208201905081810360008301526125b581612579565b9050919050565b7f4552433732313a20746f6b656e20616c7265616479206d696e74656400000000600082015250565b60006125f2601c83611789565b91506125fd826125bc565b602082019050919050565b60006020820190508181036000830152612621816125e5565b9050919050565b7f4552433732313a20617070726f766520746f2063616c6c657200000000000000600082015250565b600061265e601983611789565b915061266982612628565b602082019050919050565b6000602082019050818103600083015261268d81612651565b9050919050565b7f4552433732313a207472616e7366657220746f206e6f6e20455243373231526560008201527f63656976657220696d706c656d656e7465720000000000000000000000000000602082015250565b60006126f0603283611789565b91506126fb82612694565b604082019050919050565b6000602082019050818103600083015261271f816126e3565b9050919050565b600061273182611839565b91507fffffffffffffffffffffffffffffffffffffffffffffffffffffffffffffffff82141561276457612763612497565b5b600182019050919050565b7f4e487b7100000000000000000000000000000000000000000000000000000000600052601260045260246000fd5b60006127a982611839565b91506127b483611839565b9250826127c4576127c361276f565b5b828204905092915050565b60006127da82611839565b91506127e583611839565b9250826127f5576127f461276f565b5b828206905092915050565b7f4e487b7100000000000000000000000000000000000000000000000000000000600052603260045260246000fd5b600081519050919050565b600082825260208201905092915050565b60006128568261282f565b612860818561283a565b935061287081856020860161179a565b612879816117cd565b840191505092915050565b600060808201905061289960008301876118ce565b6128a660208301866118ce565b6128b36040830185611b93565b81810360608301526128c5818461284b565b905095945050505050565b6000815190506128df816116ef565b92915050565b6000602082840312156128fb576128fa6116b9565b5b6000612909848285016128d0565b9150509291505056fea26469706673582212206c2fb192dbe6ab7bd6be3efa52677005614bc24656fc7c3dc19e7777ea7a438564736f6c634300080c0033",
  "immutableReferences": {},
  "source": "pragma solidity ^0.8.0;\n\nimport \"@openzeppelin/contracts/token/ERC721/ERC721.sol\";\nimport \"@openzeppelin/contracts/utils/Counters.sol\";\nimport \"@openzeppelin/contracts/access/Ownable.sol\";\n\ncontract TracksContract is ERC721 {\n    //----------------------Tracks Related code---------------------//\n    using Counters for Counters.Counter;\n    Counters.Counter private _tokenIds;\n\n    struct Tracks {\n        string filehash;\n        string filelink;\n        string category;\n        uint256 creationDate;\n    }\n\n    /**\n     * @dev This is emited when a new track is created\n     * @param trackId This is the id of the track\n     * @param filehash This is hash of the file\n     * @param filelink This is the link to the file\n     * @param category this is hash of the preview file\n     * @param creationDate this is hash of the preview file\n     */\n    event TrackCreated(\n        uint256 trackId,\n        string filehash,\n        string filelink,\n        string category,\n        uint256 creationDate\n    );\n\n    //Keep the baseURI empty if you want to have different URIs without any structure\n    constructor() ERC721(\"Tracks\", \"CRD_TRKS\") {\n        // _baseURIextended = baseURI_;\n    }\n\n    /**\n     * @dev This function will be called by the user to create a new contribution\n     * @param filehash Id of tracks that are part of this contribution\n     * @param filelink this is preview file of the contribution\n     * @param category this is hash of the preview file\n     */\n    function createNewTrack(\n        string memory filehash,\n        string memory filelink,\n        string memory category\n    ) public returns (uint256) {\n        _tokenIds.increment();\n\n        uint256 newTrackId = _tokenIds.current();\n        _mint(msg.sender, newTrackId);\n        Tracks memory track = Tracks({\n            filehash: filehash,\n            filelink: filelink,\n            category: category,\n            creationDate: block.timestamp\n        });\n\n        emit TrackCreated({\n            filehash: filehash,\n            filelink: filelink,\n            category: category,\n            trackId: newTrackId,\n            creationDate: track.creationDate\n        });\n\n        return newTrackId;\n    }\n}\n",
  "sourcePath": "/Users/a1/Desktop/Office/projects/CrowdRecords/Contracts/contracts/TracksContract.sol",
  "compiler": {
    "name": "solc",
    "version": "0.8.12+commit.f00d7308.Emscripten.clang"
  },
  "schemaVersion": "3.4.6",
  "updatedAt": "2022-06-23T08:30:38.234Z",
  "devdoc": {
    "events": {
      "TrackCreated(uint256,string,string,string,uint256)": {
        "details": "This is emited when a new track is created",
        "params": {
          "category": "this is hash of the preview file",
          "creationDate": "this is hash of the preview file",
          "filehash": "This is hash of the file",
          "filelink": "This is the link to the file",
          "trackId": "This is the id of the track"
        }
      }
    },
    "kind": "dev",
    "methods": {
      "approve(address,uint256)": {
        "details": "See {IERC721-approve}."
      },
      "balanceOf(address)": {
        "details": "See {IERC721-balanceOf}."
      },
      "createNewTrack(string,string,string)": {
        "details": "This function will be called by the user to create a new contribution",
        "params": {
          "category": "this is hash of the preview file",
          "filehash": "Id of tracks that are part of this contribution",
          "filelink": "this is preview file of the contribution"
        }
      },
      "getApproved(uint256)": {
        "details": "See {IERC721-getApproved}."
      },
      "isApprovedForAll(address,address)": {
        "details": "See {IERC721-isApprovedForAll}."
      },
      "name()": {
        "details": "See {IERC721Metadata-name}."
      },
      "ownerOf(uint256)": {
        "details": "See {IERC721-ownerOf}."
      },
      "safeTransferFrom(address,address,uint256)": {
        "details": "See {IERC721-safeTransferFrom}."
      },
      "safeTransferFrom(address,address,uint256,bytes)": {
        "details": "See {IERC721-safeTransferFrom}."
      },
      "setApprovalForAll(address,bool)": {
        "details": "See {IERC721-setApprovalForAll}."
      },
      "supportsInterface(bytes4)": {
        "details": "See {IERC165-supportsInterface}."
      },
      "symbol()": {
        "details": "See {IERC721Metadata-symbol}."
      },
      "tokenURI(uint256)": {
        "details": "See {IERC721Metadata-tokenURI}."
      },
      "transferFrom(address,address,uint256)": {
        "details": "See {IERC721-transferFrom}."
      }
    },
    "version": 1
  },
  "userdoc": {
    "kind": "user",
    "methods": {},
    "version": 1
  }
}