{
  "contractName": "TreasuryCoreContract",
  "abi": [
    {
      "inputs": [
        {
          "internalType": "address",
          "name": "owner",
          "type": "address"
        }
      ],
      "stateMutability": "nonpayable",
      "type": "constructor"
    },
    {
      "anonymous": false,
      "inputs": [
        {
          "indexed": true,
          "internalType": "address",
          "name": "account",
          "type": "address"
        },
        {
          "indexed": true,
          "internalType": "address",
          "name": "operator",
          "type": "address"
        },
        {
          "indexed": false,
          "internalType": "bool",
          "name": "approved",
          "type": "bool"
        }
      ],
      "name": "ApprovalForAll",
      "type": "event"
    },
    {
      "anonymous": false,
      "inputs": [
        {
          "indexed": false,
          "internalType": "address",
          "name": "to",
          "type": "address"
        },
        {
          "indexed": false,
          "internalType": "uint256",
          "name": "recordId",
          "type": "uint256"
        },
        {
          "indexed": false,
          "internalType": "uint256",
          "name": "contributionId",
          "type": "uint256"
        },
        {
          "indexed": false,
          "internalType": "uint256",
          "name": "rewardGovernance",
          "type": "uint256"
        },
        {
          "indexed": false,
          "internalType": "uint256",
          "name": "rewardCommunity",
          "type": "uint256"
        }
      ],
      "name": "ContributionRewardTransferred",
      "type": "event"
    },
    {
      "anonymous": false,
      "inputs": [
        {
          "indexed": false,
          "internalType": "uint8",
          "name": "version",
          "type": "uint8"
        }
      ],
      "name": "Initialized",
      "type": "event"
    },
    {
      "anonymous": false,
      "inputs": [
        {
          "indexed": false,
          "internalType": "uint256",
          "name": "recordId",
          "type": "uint256"
        },
        {
          "indexed": false,
          "internalType": "string",
          "name": "symbol",
          "type": "string"
        },
        {
          "indexed": false,
          "internalType": "string",
          "name": "image",
          "type": "string"
        },
        {
          "indexed": false,
          "internalType": "uint256",
          "name": "creationDate",
          "type": "uint256"
        },
        {
          "indexed": false,
          "internalType": "uint256",
          "name": "tokenAmount",
          "type": "uint256"
        },
        {
          "indexed": false,
          "internalType": "uint256",
          "name": "tokenId",
          "type": "uint256"
        },
        {
          "indexed": false,
          "internalType": "uint8",
          "name": "tokenType",
          "type": "uint8"
        }
      ],
      "name": "NewTokenCreated",
      "type": "event"
    },
    {
      "anonymous": false,
      "inputs": [
        {
          "indexed": false,
          "internalType": "uint256",
          "name": "id",
          "type": "uint256"
        }
      ],
      "name": "Snapshot",
      "type": "event"
    },
    {
      "anonymous": false,
      "inputs": [
        {
          "indexed": false,
          "internalType": "uint256",
          "name": "recordId",
          "type": "uint256"
        },
        {
          "indexed": false,
          "internalType": "uint256",
          "name": "tokenId",
          "type": "uint256"
        },
        {
          "indexed": false,
          "internalType": "uint256",
          "name": "creationDate",
          "type": "uint256"
        },
        {
          "indexed": false,
          "internalType": "uint256",
          "name": "tokenAmount",
          "type": "uint256"
        }
      ],
      "name": "TokenMinted",
      "type": "event"
    },
    {
      "anonymous": false,
      "inputs": [
        {
          "indexed": false,
          "internalType": "address",
          "name": "from",
          "type": "address"
        },
        {
          "indexed": false,
          "internalType": "address",
          "name": "to",
          "type": "address"
        },
        {
          "indexed": false,
          "internalType": "uint256",
          "name": "transferDate",
          "type": "uint256"
        },
        {
          "indexed": false,
          "internalType": "uint256",
          "name": "tokenId",
          "type": "uint256"
        },
        {
          "indexed": false,
          "internalType": "uint256",
          "name": "amount",
          "type": "uint256"
        },
        {
          "indexed": false,
          "internalType": "string",
          "name": "symbol",
          "type": "string"
        }
      ],
      "name": "TokenTransfer",
      "type": "event"
    },
    {
      "anonymous": false,
      "inputs": [
        {
          "indexed": true,
          "internalType": "address",
          "name": "operator",
          "type": "address"
        },
        {
          "indexed": true,
          "internalType": "address",
          "name": "from",
          "type": "address"
        },
        {
          "indexed": true,
          "internalType": "address",
          "name": "to",
          "type": "address"
        },
        {
          "indexed": false,
          "internalType": "uint256[]",
          "name": "ids",
          "type": "uint256[]"
        },
        {
          "indexed": false,
          "internalType": "uint256[]",
          "name": "values",
          "type": "uint256[]"
        }
      ],
      "name": "TransferBatch",
      "type": "event"
    },
    {
      "anonymous": false,
      "inputs": [
        {
          "indexed": true,
          "internalType": "address",
          "name": "operator",
          "type": "address"
        },
        {
          "indexed": true,
          "internalType": "address",
          "name": "from",
          "type": "address"
        },
        {
          "indexed": true,
          "internalType": "address",
          "name": "to",
          "type": "address"
        },
        {
          "indexed": false,
          "internalType": "uint256",
          "name": "id",
          "type": "uint256"
        },
        {
          "indexed": false,
          "internalType": "uint256",
          "name": "value",
          "type": "uint256"
        }
      ],
      "name": "TransferSingle",
      "type": "event"
    },
    {
      "anonymous": false,
      "inputs": [
        {
          "indexed": false,
          "internalType": "string",
          "name": "value",
          "type": "string"
        },
        {
          "indexed": true,
          "internalType": "uint256",
          "name": "id",
          "type": "uint256"
        }
      ],
      "name": "URI",
      "type": "event"
    },
    {
      "inputs": [],
      "name": "CRD",
      "outputs": [
        {
          "internalType": "uint256",
          "name": "",
          "type": "uint256"
        }
      ],
      "stateMutability": "view",
      "type": "function"
    },
    {
      "inputs": [],
      "name": "OWNER",
      "outputs": [
        {
          "internalType": "address",
          "name": "",
          "type": "address"
        }
      ],
      "stateMutability": "view",
      "type": "function"
    },
    {
      "inputs": [],
      "name": "TREASURY_CONTRACT_ADDRESS",
      "outputs": [
        {
          "internalType": "address",
          "name": "",
          "type": "address"
        }
      ],
      "stateMutability": "view",
      "type": "function"
    },
    {
      "inputs": [],
      "name": "VOTING_HUB_ADDRESS",
      "outputs": [
        {
          "internalType": "address",
          "name": "",
          "type": "address"
        }
      ],
      "stateMutability": "view",
      "type": "function"
    },
    {
      "inputs": [
        {
          "internalType": "address",
          "name": "account",
          "type": "address"
        },
        {
          "internalType": "uint256",
          "name": "id",
          "type": "uint256"
        }
      ],
      "name": "balanceOf",
      "outputs": [
        {
          "internalType": "uint256",
          "name": "",
          "type": "uint256"
        }
      ],
      "stateMutability": "view",
      "type": "function"
    },
    {
      "inputs": [
        {
          "internalType": "address",
          "name": "account",
          "type": "address"
        },
        {
          "internalType": "uint256",
          "name": "snapshotId",
          "type": "uint256"
        },
        {
          "internalType": "uint256",
          "name": "tokenId",
          "type": "uint256"
        }
      ],
      "name": "balanceOfAt",
      "outputs": [
        {
          "internalType": "uint256",
          "name": "",
          "type": "uint256"
        }
      ],
      "stateMutability": "view",
      "type": "function"
    },
    {
      "inputs": [
        {
          "internalType": "address[]",
          "name": "accounts",
          "type": "address[]"
        },
        {
          "internalType": "uint256[]",
          "name": "ids",
          "type": "uint256[]"
        }
      ],
      "name": "balanceOfBatch",
      "outputs": [
        {
          "internalType": "uint256[]",
          "name": "",
          "type": "uint256[]"
        }
      ],
      "stateMutability": "view",
      "type": "function"
    },
    {
      "inputs": [
        {
          "internalType": "uint256",
          "name": "",
          "type": "uint256"
        }
      ],
      "name": "commTokenMapping",
      "outputs": [
        {
          "internalType": "uint256",
          "name": "recordId",
          "type": "uint256"
        },
        {
          "internalType": "string",
          "name": "symbol",
          "type": "string"
        },
        {
          "internalType": "string",
          "name": "image",
          "type": "string"
        },
        {
          "internalType": "uint256",
          "name": "creationDate",
          "type": "uint256"
        },
        {
          "internalType": "bool",
          "name": "isPresent",
          "type": "bool"
        },
        {
          "internalType": "uint256",
          "name": "tokenId",
          "type": "uint256"
        }
      ],
      "stateMutability": "view",
      "type": "function"
    },
    {
      "inputs": [
        {
          "internalType": "string",
          "name": "",
          "type": "string"
        }
      ],
      "name": "commTokenSym",
      "outputs": [
        {
          "internalType": "bool",
          "name": "",
          "type": "bool"
        }
      ],
      "stateMutability": "view",
      "type": "function"
    },
    {
      "inputs": [
        {
          "internalType": "uint256",
          "name": "id",
          "type": "uint256"
        }
      ],
      "name": "exists",
      "outputs": [
        {
          "internalType": "bool",
          "name": "",
          "type": "bool"
        }
      ],
      "stateMutability": "view",
      "type": "function"
    },
    {
      "inputs": [
        {
          "internalType": "uint256",
          "name": "",
          "type": "uint256"
        }
      ],
      "name": "govTokenMapping",
      "outputs": [
        {
          "internalType": "uint256",
          "name": "recordId",
          "type": "uint256"
        },
        {
          "internalType": "string",
          "name": "symbol",
          "type": "string"
        },
        {
          "internalType": "string",
          "name": "image",
          "type": "string"
        },
        {
          "internalType": "uint256",
          "name": "creationDate",
          "type": "uint256"
        },
        {
          "internalType": "bool",
          "name": "isPresent",
          "type": "bool"
        },
        {
          "internalType": "uint256",
          "name": "tokenId",
          "type": "uint256"
        }
      ],
      "stateMutability": "view",
      "type": "function"
    },
    {
      "inputs": [
        {
          "internalType": "string",
          "name": "",
          "type": "string"
        }
      ],
      "name": "govTokenSym",
      "outputs": [
        {
          "internalType": "bool",
          "name": "",
          "type": "bool"
        }
      ],
      "stateMutability": "view",
      "type": "function"
    },
    {
      "inputs": [
        {
          "internalType": "address",
          "name": "account",
          "type": "address"
        },
        {
          "internalType": "address",
          "name": "operator",
          "type": "address"
        }
      ],
      "name": "isApprovedForAll",
      "outputs": [
        {
          "internalType": "bool",
          "name": "",
          "type": "bool"
        }
      ],
      "stateMutability": "view",
      "type": "function"
    },
    {
      "inputs": [
        {
          "internalType": "address",
          "name": "from",
          "type": "address"
        },
        {
          "internalType": "address",
          "name": "to",
          "type": "address"
        },
        {
          "internalType": "uint256[]",
          "name": "ids",
          "type": "uint256[]"
        },
        {
          "internalType": "uint256[]",
          "name": "amounts",
          "type": "uint256[]"
        },
        {
          "internalType": "bytes",
          "name": "data",
          "type": "bytes"
        }
      ],
      "name": "safeBatchTransferFrom",
      "outputs": [],
      "stateMutability": "nonpayable",
      "type": "function"
    },
    {
      "inputs": [
        {
          "internalType": "address",
          "name": "from",
          "type": "address"
        },
        {
          "internalType": "address",
          "name": "to",
          "type": "address"
        },
        {
          "internalType": "uint256",
          "name": "id",
          "type": "uint256"
        },
        {
          "internalType": "uint256",
          "name": "amount",
          "type": "uint256"
        },
        {
          "internalType": "bytes",
          "name": "data",
          "type": "bytes"
        }
      ],
      "name": "safeTransferFrom",
      "outputs": [],
      "stateMutability": "nonpayable",
      "type": "function"
    },
    {
      "inputs": [
        {
          "internalType": "address",
          "name": "operator",
          "type": "address"
        },
        {
          "internalType": "bool",
          "name": "approved",
          "type": "bool"
        }
      ],
      "name": "setApprovalForAll",
      "outputs": [],
      "stateMutability": "nonpayable",
      "type": "function"
    },
    {
      "inputs": [],
      "name": "snap",
      "outputs": [
        {
          "internalType": "uint256",
          "name": "",
          "type": "uint256"
        }
      ],
      "stateMutability": "nonpayable",
      "type": "function"
    },
    {
      "inputs": [
        {
          "internalType": "bytes4",
          "name": "interfaceId",
          "type": "bytes4"
        }
      ],
      "name": "supportsInterface",
      "outputs": [
        {
          "internalType": "bool",
          "name": "",
          "type": "bool"
        }
      ],
      "stateMutability": "view",
      "type": "function"
    },
    {
      "inputs": [
        {
          "internalType": "uint256",
          "name": "id",
          "type": "uint256"
        }
      ],
      "name": "totalSupply",
      "outputs": [
        {
          "internalType": "uint256",
          "name": "",
          "type": "uint256"
        }
      ],
      "stateMutability": "view",
      "type": "function"
    },
    {
      "inputs": [
        {
          "internalType": "uint256",
          "name": "snapshotId",
          "type": "uint256"
        },
        {
          "internalType": "uint256",
          "name": "tokenId",
          "type": "uint256"
        }
      ],
      "name": "totalSupplyAt",
      "outputs": [
        {
          "internalType": "uint256",
          "name": "",
          "type": "uint256"
        }
      ],
      "stateMutability": "view",
      "type": "function"
    },
    {
      "inputs": [
        {
          "internalType": "uint256",
          "name": "",
          "type": "uint256"
        }
      ],
      "name": "uri",
      "outputs": [
        {
          "internalType": "string",
          "name": "",
          "type": "string"
        }
      ],
      "stateMutability": "view",
      "type": "function"
    },
    {
      "inputs": [
        {
          "internalType": "address",
          "name": "newVotingHubContract",
          "type": "address"
        },
        {
          "internalType": "address",
          "name": "newTreasuryAddress",
          "type": "address"
        }
      ],
      "name": "initialize",
      "outputs": [],
      "stateMutability": "nonpayable",
      "type": "function"
    },
    {
      "inputs": [
        {
          "components": [
            {
              "internalType": "uint256",
              "name": "recordId",
              "type": "uint256"
            },
            {
              "internalType": "uint256",
              "name": "totalSupply",
              "type": "uint256"
            },
            {
              "internalType": "uint256",
              "name": "userBalance",
              "type": "uint256"
            },
            {
              "internalType": "string",
              "name": "symbol",
              "type": "string"
            },
            {
              "internalType": "string",
              "name": "image",
              "type": "string"
            }
          ],
          "internalType": "struct TreasuryCoreContract.NewTokenData",
          "name": "newTokenData",
          "type": "tuple"
        },
        {
          "internalType": "address",
          "name": "userAddress",
          "type": "address"
        }
      ],
      "name": "createNewGovernanceToken",
      "outputs": [
        {
          "internalType": "uint256",
          "name": "",
          "type": "uint256"
        }
      ],
      "stateMutability": "nonpayable",
      "type": "function"
    },
    {
      "inputs": [
        {
          "components": [
            {
              "internalType": "uint256",
              "name": "recordId",
              "type": "uint256"
            },
            {
              "internalType": "uint256",
              "name": "totalSupply",
              "type": "uint256"
            },
            {
              "internalType": "uint256",
              "name": "userBalance",
              "type": "uint256"
            },
            {
              "internalType": "string",
              "name": "symbol",
              "type": "string"
            },
            {
              "internalType": "string",
              "name": "image",
              "type": "string"
            }
          ],
          "internalType": "struct TreasuryCoreContract.NewTokenData",
          "name": "newTokenData",
          "type": "tuple"
        },
        {
          "internalType": "address",
          "name": "userAddress",
          "type": "address"
        }
      ],
      "name": "createNewCommunityToken",
      "outputs": [
        {
          "internalType": "uint256",
          "name": "",
          "type": "uint256"
        }
      ],
      "stateMutability": "nonpayable",
      "type": "function"
    },
    {
      "inputs": [
        {
          "internalType": "uint256",
          "name": "recordId",
          "type": "uint256"
        },
        {
          "internalType": "uint256",
          "name": "tokenId",
          "type": "uint256"
        },
        {
          "internalType": "uint256",
          "name": "tokenAmount",
          "type": "uint256"
        }
      ],
      "name": "mintTokens",
      "outputs": [],
      "stateMutability": "nonpayable",
      "type": "function"
    },
    {
      "inputs": [
        {
          "internalType": "address",
          "name": "to",
          "type": "address"
        },
        {
          "internalType": "uint256",
          "name": "recordId",
          "type": "uint256"
        },
        {
          "internalType": "uint256",
          "name": "contributionId",
          "type": "uint256"
        },
        {
          "internalType": "uint256",
          "name": "rewardGovernance",
          "type": "uint256"
        },
        {
          "internalType": "uint256",
          "name": "rewardCommunity",
          "type": "uint256"
        }
      ],
      "name": "transferRewardAmount",
      "outputs": [],
      "stateMutability": "nonpayable",
      "type": "function"
    },
    {
      "inputs": [
        {
          "internalType": "string",
          "name": "governanceSymbol",
          "type": "string"
        },
        {
          "internalType": "string",
          "name": "communitySymbol",
          "type": "string"
        }
      ],
      "name": "setSymbolsAsUsed",
      "outputs": [],
      "stateMutability": "nonpayable",
      "type": "function"
    },
    {
      "inputs": [
        {
          "internalType": "string",
          "name": "governanceSymbol",
          "type": "string"
        },
        {
          "internalType": "string",
          "name": "communitySymbol",
          "type": "string"
        }
      ],
      "name": "setSymbolsAsAvailable",
      "outputs": [],
      "stateMutability": "nonpayable",
      "type": "function"
    },
    {
      "inputs": [
        {
          "internalType": "uint256",
          "name": "tokenId",
          "type": "uint256"
        },
        {
          "internalType": "uint256",
          "name": "amount",
          "type": "uint256"
        },
        {
          "internalType": "address",
          "name": "receiver",
          "type": "address"
        }
      ],
      "name": "transferRewardTokens",
      "outputs": [],
      "stateMutability": "nonpayable",
      "type": "function"
    },
    {
      "inputs": [],
      "name": "snapshot",
      "outputs": [
        {
          "internalType": "uint256",
          "name": "snapshotId",
          "type": "uint256"
        }
      ],
      "stateMutability": "nonpayable",
      "type": "function"
    },
    {
      "inputs": [
        {
          "internalType": "uint256",
          "name": "tokenId",
          "type": "uint256"
        },
        {
          "internalType": "uint256",
          "name": "amount",
          "type": "uint256"
        }
      ],
      "name": "mint",
      "outputs": [],
      "stateMutability": "nonpayable",
      "type": "function"
    },
    {
      "inputs": [
        {
          "internalType": "address",
          "name": "operator",
          "type": "address"
        },
        {
          "internalType": "address",
          "name": "from",
          "type": "address"
        },
        {
          "internalType": "uint256",
          "name": "id",
          "type": "uint256"
        },
        {
          "internalType": "uint256",
          "name": "value",
          "type": "uint256"
        },
        {
          "internalType": "bytes",
          "name": "data",
          "type": "bytes"
        }
      ],
      "name": "onERC1155Received",
      "outputs": [
        {
          "internalType": "bytes4",
          "name": "",
          "type": "bytes4"
        }
      ],
      "stateMutability": "nonpayable",
      "type": "function"
    },
    {
      "inputs": [
        {
          "internalType": "address",
          "name": "operator",
          "type": "address"
        },
        {
          "internalType": "address",
          "name": "from",
          "type": "address"
        },
        {
          "internalType": "uint256[]",
          "name": "ids",
          "type": "uint256[]"
        },
        {
          "internalType": "uint256[]",
          "name": "values",
          "type": "uint256[]"
        },
        {
          "internalType": "bytes",
          "name": "data",
          "type": "bytes"
        }
      ],
      "name": "onERC1155BatchReceived",
      "outputs": [
        {
          "internalType": "bytes4",
          "name": "",
          "type": "bytes4"
        }
      ],
      "stateMutability": "nonpayable",
      "type": "function"
    }
  ],
  "bytecode": "0x608060405260016008556040518060400160405280600581526020017f435244475f000000000000000000000000000000000000000000000000000000815250600c90805190602001906200005692919062000dff565b506040518060400160405280600481526020017f4352445f00000000000000000000000000000000000000000000000000000000815250600d9080519060200190620000a492919062000dff565b506000600e60006101000a81548160ff021916908360ff1602179055506001600e60016101000a81548160ff021916908360ff160217905550348015620000ea57600080fd5b5060405162006ecc38038062006ecc833981810160405281019062000110919062000f23565b6040518060400160405280601d81526020017f68747470733a2f2f63726f77647265636f7264732e636f6d2f7b69647d0000008152506200015781620001f460201b60201c565b5080600b60006101000a81548173ffffffffffffffffffffffffffffffffffffffff021916908373ffffffffffffffffffffffffffffffffffffffff160217905550620001ed81600169d3c21bcecceda10000006040518060400160405280601881526020017f68747470733a2f2f63726f77647265636f7264732e636f6d00000000000000008152506200021060201b60201c565b5062001755565b80600290805190602001906200020c92919062000dff565b5050565b600073ffffffffffffffffffffffffffffffffffffffff168473ffffffffffffffffffffffffffffffffffffffff16141562000283576040517f08c379a00000000000000000000000000000000000000000000000000000000081526004016200027a9062000fdc565b60405180910390fd5b600062000295620003d560201b60201c565b9050620002ce81600087620002b088620003dd60201b60201c565b620002c188620003dd60201b60201c565b876200045e60201b60201c565b8260008086815260200190815260200160002060008773ffffffffffffffffffffffffffffffffffffffff1673ffffffffffffffffffffffffffffffffffffffff16815260200190815260200160002060008282546200032f919062001037565b925050819055508473ffffffffffffffffffffffffffffffffffffffff16600073ffffffffffffffffffffffffffffffffffffffff168273ffffffffffffffffffffffffffffffffffffffff167fc3d58168c5ae7397731d063d5bbf3d657854427343f4c083240f7aacaa2d0f628787604051620003af929190620010a5565b60405180910390a4620003ce81600087878787620005d460201b60201c565b5050505050565b600033905090565b60606000600167ffffffffffffffff811115620003ff57620003fe620010d2565b5b6040519080825280602002602001820160405280156200042e5781602001602082028036833780820191505090505b509050828160008151811062000449576200044862001101565b5b60200260200101818152505080915050919050565b600073ffffffffffffffffffffffffffffffffffffffff16600960009054906101000a900473ffffffffffffffffffffffffffffffffffffffff1673ffffffffffffffffffffffffffffffffffffffff1614620005b1576000600960009054906101000a900473ffffffffffffffffffffffffffffffffffffffff16905060005b8451811015620005ae578173ffffffffffffffffffffffffffffffffffffffff16631de841ba88888785815181106200051d576200051c62001101565b5b60200260200101518986815181106200053b576200053a62001101565b5b60200260200101516040518563ffffffff1660e01b815260040162000564949392919062001141565b600060405180830381600087803b1580156200057f57600080fd5b505af115801562000594573d6000803e3d6000fd5b505050508080620005a5906200118e565b915050620004df565b50505b620005cc868686868686620007ce60201b62001ecd1760201c565b505050505050565b620006008473ffffffffffffffffffffffffffffffffffffffff16620008d560201b62001f931760201c565b15620007c6578373ffffffffffffffffffffffffffffffffffffffff1663f23a6e6187878686866040518663ffffffff1660e01b81526004016200064995949392919062001280565b6020604051808303816000875af19250505080156200068857506040513d601f19601f8201168201806040525081019062000685919062001341565b60015b6200073a576200069762001380565b806308c379a01415620006fb5750620006af620013db565b80620006bc5750620006fd565b806040517f08c379a0000000000000000000000000000000000000000000000000000000008152600401620006f29190620014c9565b60405180910390fd5b505b6040517f08c379a0000000000000000000000000000000000000000000000000000000008152600401620007319062001563565b60405180910390fd5b63f23a6e6160e01b7bffffffffffffffffffffffffffffffffffffffffffffffffffffffff1916817bffffffffffffffffffffffffffffffffffffffffffffffffffffffff191614620007c4576040517f08c379a0000000000000000000000000000000000000000000000000000000008152600401620007bb90620015fb565b60405180910390fd5b505b505050505050565b600073ffffffffffffffffffffffffffffffffffffffff168573ffffffffffffffffffffffffffffffffffffffff1614156200082d57620008168484620008f860201b60201c565b6200082783620009cc60201b60201c565b620008b2565b600073ffffffffffffffffffffffffffffffffffffffff168473ffffffffffffffffffffffffffffffffffffffff1614156200088c57620008758584620008f860201b60201c565b6200088683620009cc60201b60201c565b620008b1565b6200089e8584620008f860201b60201c565b620008b08484620008f860201b60201c565b5b5b620008cd86868686868662000a6160201b62001fb61760201c565b505050505050565b6000808273ffffffffffffffffffffffffffffffffffffffff163b119050919050565b60005b8151811015620009c757620009b1600460008573ffffffffffffffffffffffffffffffffffffffff1673ffffffffffffffffffffffffffffffffffffffff168152602001908152602001600020600084848151811062000960576200095f62001101565b5b60200260200101518152602001908152602001600020620009a58585858151811062000991576200099062001101565b5b602002602001015162000c0260201b60201c565b62000cce60201b60201c565b8080620009be906200118e565b915050620008fb565b505050565b60005b815181101562000a5d5762000a4760056000848481518110620009f757620009f662001101565b5b6020026020010151815260200190815260200160002062000a3b84848151811062000a275762000a2662001101565b5b602002602001015162000d5a60201b60201c565b62000cce60201b60201c565b808062000a54906200118e565b915050620009cf565b5050565b62000a7c86868686868662000d7760201b620021301760201c565b600073ffffffffffffffffffffffffffffffffffffffff168573ffffffffffffffffffffffffffffffffffffffff16141562000b3b5760005b835181101562000b395782818151811062000ad55762000ad462001101565b5b60200260200101516003600086848151811062000af75762000af662001101565b5b60200260200101518152602001908152602001600020600082825462000b1e919062001037565b925050819055508062000b31906200118e565b905062000ab5565b505b600073ffffffffffffffffffffffffffffffffffffffff168473ffffffffffffffffffffffffffffffffffffffff16141562000bfa5760005b835181101562000bf85782818151811062000b945762000b9362001101565b5b60200260200101516003600086848151811062000bb65762000bb562001101565b5b60200260200101518152602001908152602001600020600082825462000bdd91906200161d565b925050819055508062000bf0906200118e565b905062000b74565b505b505050505050565b60008073ffffffffffffffffffffffffffffffffffffffff168373ffffffffffffffffffffffffffffffffffffffff16141562000c76576040517f08c379a000000000000000000000000000000000000000000000000000000000815260040162000c6d90620016ce565b60405180910390fd5b60008083815260200190815260200160002060008473ffffffffffffffffffffffffffffffffffffffff1673ffffffffffffffffffffffffffffffffffffffff16815260200190815260200160002054905092915050565b600062000ce062000d7f60201b60201c565b90508062000cf78460000162000d9d60201b60201c565b101562000d555782600001819080600181540180825580915050600190039060005260206000200160009091909190915055826001018290806001815401808255809150506001900390600052602060002001600090919091909150555b505050565b600060036000838152602001908152602001600020549050919050565b505050505050565b600062000d98600662000df160201b620021381760201c565b905090565b6000808280549050141562000db6576000905062000dec565b816001838054905062000dca91906200161d565b8154811062000dde5762000ddd62001101565b5b906000526020600020015490505b919050565b600081600001549050919050565b82805462000e0d906200171f565b90600052602060002090601f01602090048101928262000e31576000855562000e7d565b82601f1062000e4c57805160ff191683800117855562000e7d565b8280016001018555821562000e7d579182015b8281111562000e7c57825182559160200191906001019062000e5f565b5b50905062000e8c919062000e90565b5090565b5b8082111562000eab57600081600090555060010162000e91565b5090565b6000604051905090565b600080fd5b600073ffffffffffffffffffffffffffffffffffffffff82169050919050565b600062000eeb8262000ebe565b9050919050565b62000efd8162000ede565b811462000f0957600080fd5b50565b60008151905062000f1d8162000ef2565b92915050565b60006020828403121562000f3c5762000f3b62000eb9565b5b600062000f4c8482850162000f0c565b91505092915050565b600082825260208201905092915050565b7f455243313135353a206d696e7420746f20746865207a65726f2061646472657360008201527f7300000000000000000000000000000000000000000000000000000000000000602082015250565b600062000fc460218362000f55565b915062000fd18262000f66565b604082019050919050565b6000602082019050818103600083015262000ff78162000fb5565b9050919050565b6000819050919050565b7f4e487b7100000000000000000000000000000000000000000000000000000000600052601160045260246000fd5b6000620010448262000ffe565b9150620010518362000ffe565b9250827fffffffffffffffffffffffffffffffffffffffffffffffffffffffffffffffff0382111562001089576200108862001008565b5b828201905092915050565b6200109f8162000ffe565b82525050565b6000604082019050620010bc600083018562001094565b620010cb602083018462001094565b9392505050565b7f4e487b7100000000000000000000000000000000000000000000000000000000600052604160045260246000fd5b7f4e487b7100000000000000000000000000000000000000000000000000000000600052603260045260246000fd5b6200113b8162000ede565b82525050565b600060808201905062001158600083018762001130565b62001167602083018662001130565b62001176604083018562001094565b62001185606083018462001094565b95945050505050565b60006200119b8262000ffe565b91507fffffffffffffffffffffffffffffffffffffffffffffffffffffffffffffffff821415620011d157620011d062001008565b5b600182019050919050565b600081519050919050565b600082825260208201905092915050565b60005b8381101562001218578082015181840152602081019050620011fb565b8381111562001228576000848401525b50505050565b6000601f19601f8301169050919050565b60006200124c82620011dc565b620012588185620011e7565b93506200126a818560208601620011f8565b62001275816200122e565b840191505092915050565b600060a08201905062001297600083018862001130565b620012a6602083018762001130565b620012b5604083018662001094565b620012c4606083018562001094565b8181036080830152620012d881846200123f565b90509695505050505050565b60007fffffffff0000000000000000000000000000000000000000000000000000000082169050919050565b6200131b81620012e4565b81146200132757600080fd5b50565b6000815190506200133b8162001310565b92915050565b6000602082840312156200135a576200135962000eb9565b5b60006200136a848285016200132a565b91505092915050565b60008160e01c9050919050565b600060033d1115620013a25760046000803e6200139f60005162001373565b90505b90565b620013b0826200122e565b810181811067ffffffffffffffff82111715620013d257620013d1620010d2565b5b80604052505050565b600060443d1015620013ed576200147a565b620013f762000eaf565b60043d036004823e80513d602482011167ffffffffffffffff82111715620014215750506200147a565b808201805167ffffffffffffffff8111156200144157505050506200147a565b80602083010160043d038501811115620014605750505050506200147a565b6200147182602001850186620013a5565b82955050505050505b90565b600081519050919050565b600062001495826200147d565b620014a1818562000f55565b9350620014b3818560208601620011f8565b620014be816200122e565b840191505092915050565b60006020820190508181036000830152620014e5818462001488565b905092915050565b7f455243313135353a207472616e7366657220746f206e6f6e204552433131353560008201527f526563656976657220696d706c656d656e746572000000000000000000000000602082015250565b60006200154b60348362000f55565b91506200155882620014ed565b604082019050919050565b600060208201905081810360008301526200157e816200153c565b9050919050565b7f455243313135353a204552433131353552656365697665722072656a6563746560008201527f6420746f6b656e73000000000000000000000000000000000000000000000000602082015250565b6000620015e360288362000f55565b9150620015f08262001585565b604082019050919050565b600060208201905081810360008301526200161681620015d4565b9050919050565b60006200162a8262000ffe565b9150620016378362000ffe565b9250828210156200164d576200164c62001008565b5b828203905092915050565b7f455243313135353a2062616c616e636520717565727920666f7220746865207a60008201527f65726f2061646472657373000000000000000000000000000000000000000000602082015250565b6000620016b6602b8362000f55565b9150620016c38262001658565b604082019050919050565b60006020820190508181036000830152620016e981620016a7565b9050919050565b7f4e487b7100000000000000000000000000000000000000000000000000000000600052602260045260246000fd5b600060028204905060018216806200173857607f821691505b602082108114156200174f576200174e620016f0565b5b50919050565b61576780620017656000396000f3fe608060405234801561001057600080fd5b50600436106101fa5760003560e01c80638958a5de1161011a578063bc197c81116100ad578063e985e9c51161007c578063e985e9c51461063d578063ef890f7c1461066d578063f23a6e6114610689578063f242432a146106b9578063ff669dfb146106d5576101fa565b8063bc197c811461058f578063bd85b039146105bf578063e10fa0b2146105ef578063e6acd9b81461061f576101fa565b8063a22cb465116100e9578063a22cb46514610502578063a77d38fa1461051e578063acb314931461053c578063af94e4a91461055a576101fa565b80638958a5de146104685780638aa7a8b0146104985780638fbf353f146104c85780639711715a146104e4576101fa565b8063485cc9551161019257806361cbc3571161016157806361cbc357146103cb578063626da068146103e75780638388f41314610417578063884c8ffe14610433576101fa565b8063485cc955146103335780634e1273f41461034f5780634f558e791461037f5780635f938ad2146103af576101fa565b80631644e0ff116101ce5780631644e0ff146102ad5780631b2ef1ca146102dd5780632eb2c2d6146102f95780633686804914610315576101fa565b8062fdd58e146101ff57806301ffc9a71461022f5780630e89341c1461025f578063117803e31461028f575b600080fd5b610219600480360381019061021491906136ef565b610705565b604051610226919061373e565b60405180910390f35b610249600480360381019061024491906137b1565b6107ce565b60405161025691906137f9565b60405180910390f35b61027960048036038101906102749190613814565b6108b0565b60405161028691906138da565b60405180910390f35b610297610944565b6040516102a4919061390b565b60405180910390f35b6102c760048036038101906102c29190613a5b565b61096a565b6040516102d491906137f9565b60405180910390f35b6102f760048036038101906102f29190613aa4565b6109a0565b005b610313600480360381019061030e9190613c4d565b610a75565b005b61031d610b16565b60405161032a919061390b565b60405180910390f35b61034d60048036038101906103489190613d1c565b610b3c565b005b61036960048036038101906103649190613e1f565b610d8d565b6040516103769190613f55565b60405180910390f35b61039960048036038101906103949190613814565b610ea6565b6040516103a691906137f9565b60405180910390f35b6103c960048036038101906103c49190613f77565b610eba565b005b6103e560048036038101906103e09190613f77565b610fbc565b005b61040160048036038101906103fc9190613fef565b6110be565b60405161040e919061373e565b60405180910390f35b610431600480360381019061042c9190614042565b611141565b005b61044d60048036038101906104489190613814565b61129b565b60405161045f969594939291906140bd565b60405180910390f35b610482600480360381019061047d9190613a5b565b6113f4565b60405161048f91906137f9565b60405180910390f35b6104b260048036038101906104ad9190613aa4565b61142a565b6040516104bf919061373e565b60405180910390f35b6104e260048036038101906104dd919061412c565b61146e565b005b6104ec611678565b6040516104f9919061373e565b60405180910390f35b61051c600480360381019061051791906141ab565b611717565b005b61052661172d565b604051610533919061373e565b60405180910390f35b61054461173c565b604051610551919061390b565b60405180910390f35b610574600480360381019061056f9190613814565b611762565b604051610586969594939291906140bd565b60405180910390f35b6105a960048036038101906105a4919061429c565b6118bb565b6040516105b69190614387565b60405180910390f35b6105d960048036038101906105d49190613814565b6118ec565b6040516105e6919061373e565b60405180910390f35b61060960048036038101906106049190614470565b611909565b604051610616919061373e565b60405180910390f35b610627611ac5565b604051610634919061373e565b60405180910390f35b61065760048036038101906106529190613d1c565b611aca565b60405161066491906137f9565b60405180910390f35b610687600480360381019061068291906144cc565b611b5e565b005b6106a3600480360381019061069e919061451f565b611c41565b6040516106b09190614387565b60405180910390f35b6106d360048036038101906106ce91906145b9565b611c70565b005b6106ef60048036038101906106ea9190614470565b611d11565b6040516106fc919061373e565b60405180910390f35b60008073ffffffffffffffffffffffffffffffffffffffff168373ffffffffffffffffffffffffffffffffffffffff161415610776576040517f08c379a000000000000000000000000000000000000000000000000000000000815260040161076d906146c2565b60405180910390fd5b60008083815260200190815260200160002060008473ffffffffffffffffffffffffffffffffffffffff1673ffffffffffffffffffffffffffffffffffffffff16815260200190815260200160002054905092915050565b60007fd9b67a26000000000000000000000000000000000000000000000000000000007bffffffffffffffffffffffffffffffffffffffffffffffffffffffff1916827bffffffffffffffffffffffffffffffffffffffffffffffffffffffff1916148061089957507f0e89341c000000000000000000000000000000000000000000000000000000007bffffffffffffffffffffffffffffffffffffffffffffffffffffffff1916827bffffffffffffffffffffffffffffffffffffffffffffffffffffffff1916145b806108a957506108a882612146565b5b9050919050565b6060600280546108bf90614711565b80601f01602080910402602001604051908101604052809291908181526020018280546108eb90614711565b80156109385780601f1061090d57610100808354040283529160200191610938565b820191906000526020600020905b81548152906001019060200180831161091b57829003601f168201915b50505050509050919050565b600b60009054906101000a900473ffffffffffffffffffffffffffffffffffffffff1681565b6011818051602081018201805184825260208301602085012081835280955050505050506000915054906101000a900460ff1681565b600a60009054906101000a900473ffffffffffffffffffffffffffffffffffffffff1673ffffffffffffffffffffffffffffffffffffffff163373ffffffffffffffffffffffffffffffffffffffff1614610a30576040517f08c379a0000000000000000000000000000000000000000000000000000000008152600401610a27906147b5565b60405180910390fd5b610a713083836040518060400160405280601181526020017f4e657720746f6b656e73206d696e7465640000000000000000000000000000008152506121b0565b5050565b610a7d612346565b73ffffffffffffffffffffffffffffffffffffffff168573ffffffffffffffffffffffffffffffffffffffff161480610ac35750610ac285610abd612346565b611aca565b5b610b02576040517f08c379a0000000000000000000000000000000000000000000000000000000008152600401610af990614847565b60405180910390fd5b610b0f858585858561234e565b5050505050565b600960009054906101000a900473ffffffffffffffffffffffffffffffffffffffff1681565b6000600760019054906101000a900460ff16159050808015610b7057506001600760009054906101000a900460ff1660ff16105b80610b9f5750610b7f30612662565b158015610b9e57506001600760009054906101000a900460ff1660ff16145b5b610bde576040517f08c379a0000000000000000000000000000000000000000000000000000000008152600401610bd5906148d9565b60405180910390fd5b6001600760006101000a81548160ff021916908360ff1602179055508015610c1c576001600760016101000a81548160ff0219169083151502179055505b600b60009054906101000a900473ffffffffffffffffffffffffffffffffffffffff1673ffffffffffffffffffffffffffffffffffffffff163373ffffffffffffffffffffffffffffffffffffffff1614610cac576040517f08c379a0000000000000000000000000000000000000000000000000000000008152600401610ca3906147b5565b60405180910390fd5b82600960006101000a81548173ffffffffffffffffffffffffffffffffffffffff021916908373ffffffffffffffffffffffffffffffffffffffff16021790555081600a60006101000a81548173ffffffffffffffffffffffffffffffffffffffff021916908373ffffffffffffffffffffffffffffffffffffffff1602179055508015610d88576000600760016101000a81548160ff0219169083151502179055507f7f26b83ff96e1f2b6a682f133852f6798a09c465da95921460cefb38474024986001604051610d7f919061494b565b60405180910390a15b505050565b60608151835114610dd3576040517f08c379a0000000000000000000000000000000000000000000000000000000008152600401610dca906149d8565b60405180910390fd5b6000835167ffffffffffffffff811115610df057610def613930565b5b604051908082528060200260200182016040528015610e1e5781602001602082028036833780820191505090505b50905060005b8451811015610e9b57610e6b858281518110610e4357610e426149f8565b5b6020026020010151858381518110610e5e57610e5d6149f8565b5b6020026020010151610705565b828281518110610e7e57610e7d6149f8565b5b60200260200101818152505080610e9490614a56565b9050610e24565b508091505092915050565b600080610eb2836118ec565b119050919050565b600a60009054906101000a900473ffffffffffffffffffffffffffffffffffffffff1673ffffffffffffffffffffffffffffffffffffffff163373ffffffffffffffffffffffffffffffffffffffff1614610f4a576040517f08c379a0000000000000000000000000000000000000000000000000000000008152600401610f41906147b5565b60405180910390fd5b6001601282604051610f5c9190614adb565b908152602001604051809103902060006101000a81548160ff0219169083151502179055506001601183604051610f939190614adb565b908152602001604051809103902060006101000a81548160ff0219169083151502179055505050565b600a60009054906101000a900473ffffffffffffffffffffffffffffffffffffffff1673ffffffffffffffffffffffffffffffffffffffff163373ffffffffffffffffffffffffffffffffffffffff161461104c576040517f08c379a0000000000000000000000000000000000000000000000000000000008152600401611043906147b5565b60405180910390fd5b600160128260405161105e9190614adb565b908152602001604051809103902060006101000a81548160ff02191690831515021790555060016011836040516110959190614adb565b908152602001604051809103902060006101000a81548160ff0219169083151502179055505050565b600080600061111c85600460008973ffffffffffffffffffffffffffffffffffffffff1673ffffffffffffffffffffffffffffffffffffffff1681526020019081526020016000206000878152602001908152602001600020612685565b91509150816111345761112f8685610705565b611136565b805b925050509392505050565b600a60009054906101000a900473ffffffffffffffffffffffffffffffffffffffff1673ffffffffffffffffffffffffffffffffffffffff163373ffffffffffffffffffffffffffffffffffffffff16146111d1576040517f08c379a00000000000000000000000000000000000000000000000000000000081526004016111c8906147b5565b60405180910390fd5b6111dd3033600161277b565b6000821115611219576112183086600f6000888152602001908152602001600020600501548560405180602001604052806000815250611c70565b5b600081111561125557611254308660106000888152602001908152602001600020600501548460405180602001604052806000815250611c70565b5b7fe0357d4bc70490bf81b58d93d7d3a12a646c486a071200201fd882cdf74c88d9858585858560405161128c959493929190614af2565b60405180910390a15050505050565b600f6020528060005260406000206000915090508060000154908060010180546112c490614711565b80601f01602080910402602001604051908101604052809291908181526020018280546112f090614711565b801561133d5780601f106113125761010080835404028352916020019161133d565b820191906000526020600020905b81548152906001019060200180831161132057829003601f168201915b50505050509080600201805461135290614711565b80601f016020809104026020016040519081016040528092919081815260200182805461137e90614711565b80156113cb5780601f106113a0576101008083540402835291602001916113cb565b820191906000526020600020905b8154815290600101906020018083116113ae57829003601f168201915b5050505050908060030154908060040160009054906101000a900460ff16908060050154905086565b6012818051602081018201805184825260208301602085012081835280955050505050506000915054906101000a900460ff1681565b600080600061144b8560056000878152602001908152602001600020612685565b91509150816114625761145d846118ec565b611464565b805b9250505092915050565b600a60009054906101000a900473ffffffffffffffffffffffffffffffffffffffff1673ffffffffffffffffffffffffffffffffffffffff163373ffffffffffffffffffffffffffffffffffffffff16146114fe576040517f08c379a00000000000000000000000000000000000000000000000000000000081526004016114f5906147b5565b60405180910390fd5b600115156010600085815260200190815260200160002060040160009054906101000a900460ff161515148061155b575060011515600f600085815260200190815260200160002060040160009054906101000a900460ff161515145b61159a576040517f08c379a000000000000000000000000000000000000000000000000000000000815260040161159190614b91565b60405180910390fd5b81601060008581526020019081526020016000206005015414806115d3575081600f600085815260200190815260200160002060050154145b611612576040517f08c379a000000000000000000000000000000000000000000000000000000000815260040161160990614bfd565b60405180910390fd5b61163630838360405180606001604052806023815260200161570f602391396121b0565b7f81e0b881b9c6ff93955a4a996cc01472b2cdc1a1663af072fa5ca7db7f127de28383428460405161166b9493929190614c1d565b60405180910390a1505050565b6000600a60009054906101000a900473ffffffffffffffffffffffffffffffffffffffff1673ffffffffffffffffffffffffffffffffffffffff163373ffffffffffffffffffffffffffffffffffffffff161461170a576040517f08c379a0000000000000000000000000000000000000000000000000000000008152600401611701906147b5565b60405180910390fd5b6117126128e8565b905090565b611729611722612346565b838361277b565b5050565b60006117376128e8565b905090565b600a60009054906101000a900473ffffffffffffffffffffffffffffffffffffffff1681565b601060205280600052604060002060009150905080600001549080600101805461178b90614711565b80601f01602080910402602001604051908101604052809291908181526020018280546117b790614711565b80156118045780601f106117d957610100808354040283529160200191611804565b820191906000526020600020905b8154815290600101906020018083116117e757829003601f168201915b50505050509080600201805461181990614711565b80601f016020809104026020016040519081016040528092919081815260200182805461184590614711565b80156118925780601f1061186757610100808354040283529160200191611892565b820191906000526020600020905b81548152906001019060200180831161187557829003601f168201915b5050505050908060030154908060040160009054906101000a900460ff16908060050154905086565b60007fbc197c819b3e337a6f9652dd10becd7eef83032af3b9d958d3d42f6694146621905098975050505050505050565b600060036000838152602001908152602001600020549050919050565b6000600a60009054906101000a900473ffffffffffffffffffffffffffffffffffffffff1673ffffffffffffffffffffffffffffffffffffffff163373ffffffffffffffffffffffffffffffffffffffff161461199b576040517f08c379a0000000000000000000000000000000000000000000000000000000008152600401611992906147b5565b60405180910390fd5b6000600c6040516020016119af9190614cf6565b60405160208183030381529060405290508084606001516040516020016119d7929190614d54565b60405160208183030381529060405284606001819052505060086000815480929190611a0290614a56565b919050555060006008549050611a298482600e60019054906101000a900460ff168661293e565b600f600086600001518152602001908152602001600020600082015181600001556020820151816001019080519060200190611a6692919061356c565b506040820151816002019080519060200190611a8392919061356c565b506060820151816003015560808201518160040160006101000a81548160ff02191690831515021790555060a082015181600501559050508091505092915050565b600181565b6000600160008473ffffffffffffffffffffffffffffffffffffffff1673ffffffffffffffffffffffffffffffffffffffff16815260200190815260200160002060008373ffffffffffffffffffffffffffffffffffffffff1673ffffffffffffffffffffffffffffffffffffffff16815260200190815260200160002060009054906101000a900460ff16905092915050565b600a60009054906101000a900473ffffffffffffffffffffffffffffffffffffffff1673ffffffffffffffffffffffffffffffffffffffff163373ffffffffffffffffffffffffffffffffffffffff1614611bee576040517f08c379a0000000000000000000000000000000000000000000000000000000008152600401611be5906147b5565b60405180910390fd5b611bfa3033600161277b565b611c3c308285856040518060400160405280601581526020017f5245434f52445f544f4b454e5f5452414e534645520000000000000000000000815250611c70565b505050565b60007ff23a6e612e1ff4830e658fe43f4e3cb4a5f8170bd5d9e69fb5d7a7fa9e4fdf9790509695505050505050565b611c78612346565b73ffffffffffffffffffffffffffffffffffffffff168573ffffffffffffffffffffffffffffffffffffffff161480611cbe5750611cbd85611cb8612346565b611aca565b5b611cfd576040517f08c379a0000000000000000000000000000000000000000000000000000000008152600401611cf490614dea565b60405180910390fd5b611d0a8585858585612a42565b5050505050565b6000600a60009054906101000a900473ffffffffffffffffffffffffffffffffffffffff1673ffffffffffffffffffffffffffffffffffffffff163373ffffffffffffffffffffffffffffffffffffffff1614611da3576040517f08c379a0000000000000000000000000000000000000000000000000000000008152600401611d9a906147b5565b60405180910390fd5b6000600d604051602001611db79190614cf6565b6040516020818303038152906040529050808460600151604051602001611ddf929190614d54565b60405160208183030381529060405284606001819052505060086000815480929190611e0a90614a56565b919050555060006008549050611e318482600e60009054906101000a900460ff168661293e565b6010600086600001518152602001908152602001600020600082015181600001556020820151816001019080519060200190611e6e92919061356c565b506040820151816002019080519060200190611e8b92919061356c565b506060820151816003015560808201518160040160006101000a81548160ff02191690831515021790555060a082015181600501559050508091505092915050565b600073ffffffffffffffffffffffffffffffffffffffff168573ffffffffffffffffffffffffffffffffffffffff161415611f1a57611f0c8484612cc4565b611f1583612d7e565b611f7d565b600073ffffffffffffffffffffffffffffffffffffffff168473ffffffffffffffffffffffffffffffffffffffff161415611f6757611f598584612cc4565b611f6283612d7e565b611f7c565b611f718584612cc4565b611f7b8484612cc4565b5b5b611f8b868686868686611fb6565b505050505050565b6000808273ffffffffffffffffffffffffffffffffffffffff163b119050919050565b611fc4868686868686612130565b600073ffffffffffffffffffffffffffffffffffffffff168573ffffffffffffffffffffffffffffffffffffffff1614156120765760005b835181101561207457828181518110612018576120176149f8565b5b602002602001015160036000868481518110612037576120366149f8565b5b60200260200101518152602001908152602001600020600082825461205c9190614e0a565b925050819055508061206d90614a56565b9050611ffc565b505b600073ffffffffffffffffffffffffffffffffffffffff168473ffffffffffffffffffffffffffffffffffffffff1614156121285760005b8351811015612126578281815181106120ca576120c96149f8565b5b6020026020010151600360008684815181106120e9576120e86149f8565b5b60200260200101518152602001908152602001600020600082825461210e9190614e60565b925050819055508061211f90614a56565b90506120ae565b505b505050505050565b505050505050565b600081600001549050919050565b60007f01ffc9a7000000000000000000000000000000000000000000000000000000007bffffffffffffffffffffffffffffffffffffffffffffffffffffffff1916827bffffffffffffffffffffffffffffffffffffffffffffffffffffffff1916149050919050565b600073ffffffffffffffffffffffffffffffffffffffff168473ffffffffffffffffffffffffffffffffffffffff161415612220576040517f08c379a000000000000000000000000000000000000000000000000000000000815260040161221790614f06565b60405180910390fd5b600061222a612346565b905061224b8160008761223c88612df9565b61224588612df9565b87612e73565b8260008086815260200190815260200160002060008773ffffffffffffffffffffffffffffffffffffffff1673ffffffffffffffffffffffffffffffffffffffff16815260200190815260200160002060008282546122aa9190614e0a565b925050819055508473ffffffffffffffffffffffffffffffffffffffff16600073ffffffffffffffffffffffffffffffffffffffff168273ffffffffffffffffffffffffffffffffffffffff167fc3d58168c5ae7397731d063d5bbf3d657854427343f4c083240f7aacaa2d0f628787604051612328929190614f26565b60405180910390a461233f81600087878787612fcd565b5050505050565b600033905090565b8151835114612392576040517f08c379a000000000000000000000000000000000000000000000000000000000815260040161238990614fc1565b60405180910390fd5b600073ffffffffffffffffffffffffffffffffffffffff168473ffffffffffffffffffffffffffffffffffffffff161415612402576040517f08c379a00000000000000000000000000000000000000000000000000000000081526004016123f990615053565b60405180910390fd5b600061240c612346565b905061241c818787878787612e73565b60005b84518110156125cd57600085828151811061243d5761243c6149f8565b5b60200260200101519050600085838151811061245c5761245b6149f8565b5b60200260200101519050600080600084815260200190815260200160002060008b73ffffffffffffffffffffffffffffffffffffffff1673ffffffffffffffffffffffffffffffffffffffff168152602001908152602001600020549050818110156124fd576040517f08c379a00000000000000000000000000000000000000000000000000000000081526004016124f4906150e5565b60405180910390fd5b81810360008085815260200190815260200160002060008c73ffffffffffffffffffffffffffffffffffffffff1673ffffffffffffffffffffffffffffffffffffffff168152602001908152602001600020819055508160008085815260200190815260200160002060008b73ffffffffffffffffffffffffffffffffffffffff1673ffffffffffffffffffffffffffffffffffffffff16815260200190815260200160002060008282546125b29190614e0a565b92505081905550505050806125c690614a56565b905061241f565b508473ffffffffffffffffffffffffffffffffffffffff168673ffffffffffffffffffffffffffffffffffffffff168273ffffffffffffffffffffffffffffffffffffffff167f4a39dc06d4c0dbc64b70af90fd698a233a518aa5d07e595d983b8c0526c8f7fb8787604051612644929190615105565b60405180910390a461265a8187878787876131a5565b505050505050565b6000808273ffffffffffffffffffffffffffffffffffffffff163b119050919050565b600080600084116126cb576040517f08c379a00000000000000000000000000000000000000000000000000000000081526004016126c290615188565b60405180910390fd5b6126d361337d565b841115612715576040517f08c379a000000000000000000000000000000000000000000000000000000000815260040161270c906151f4565b60405180910390fd5b600061272d858560000161338e90919063ffffffff16565b9050836000018054905081141561274b576000809250925050612774565b6001846001018281548110612763576127626149f8565b5b906000526020600020015492509250505b9250929050565b8173ffffffffffffffffffffffffffffffffffffffff168373ffffffffffffffffffffffffffffffffffffffff1614156127ea576040517f08c379a00000000000000000000000000000000000000000000000000000000081526004016127e190615286565b60405180910390fd5b80600160008573ffffffffffffffffffffffffffffffffffffffff1673ffffffffffffffffffffffffffffffffffffffff16815260200190815260200160002060008473ffffffffffffffffffffffffffffffffffffffff1673ffffffffffffffffffffffffffffffffffffffff16815260200190815260200160002060006101000a81548160ff0219169083151502179055508173ffffffffffffffffffffffffffffffffffffffff168373ffffffffffffffffffffffffffffffffffffffff167f17307eab39ab6107e8899845ad3d59bd9653f200f220920489ca2b5937696c31836040516128db91906137f9565b60405180910390a3505050565b60006128f46006613468565b60006128fe61337d565b90507f8030e83b04d87bef53480e26263266d6ca66863aa8506aca6f2559d18aa1cb678160405161292f919061373e565b60405180910390a18091505090565b6129466135f2565b60008560400151866020015161295c9190614e60565b9050600086604001519050612982308784604051806020016040528060008152506121b0565b61299d848783604051806020016040528060008152506121b0565b60006040518060c001604052808960000151815260200189606001518152602001896080015181526020014281526020016001151581526020018881525090507f49debfc18817e7e3ec2948391bcc3a87349b3c716f7d470d223bfbf8928aa65a886000015189606001518a6080015184606001518c602001518c8c604051612a2c97969594939291906152b5565b60405180910390a1809350505050949350505050565b600073ffffffffffffffffffffffffffffffffffffffff168473ffffffffffffffffffffffffffffffffffffffff161415612ab2576040517f08c379a0000000000000000000000000000000000000000000000000000000008152600401612aa990615053565b60405180910390fd5b6000612abc612346565b9050612adc818787612acd88612df9565b612ad688612df9565b87612e73565b600080600086815260200190815260200160002060008873ffffffffffffffffffffffffffffffffffffffff1673ffffffffffffffffffffffffffffffffffffffff16815260200190815260200160002054905083811015612b73576040517f08c379a0000000000000000000000000000000000000000000000000000000008152600401612b6a906150e5565b60405180910390fd5b83810360008087815260200190815260200160002060008973ffffffffffffffffffffffffffffffffffffffff1673ffffffffffffffffffffffffffffffffffffffff168152602001908152602001600020819055508360008087815260200190815260200160002060008873ffffffffffffffffffffffffffffffffffffffff1673ffffffffffffffffffffffffffffffffffffffff1681526020019081526020016000206000828254612c289190614e0a565b925050819055508573ffffffffffffffffffffffffffffffffffffffff168773ffffffffffffffffffffffffffffffffffffffff168373ffffffffffffffffffffffffffffffffffffffff167fc3d58168c5ae7397731d063d5bbf3d657854427343f4c083240f7aacaa2d0f628888604051612ca5929190614f26565b60405180910390a4612cbb828888888888612fcd565b50505050505050565b60005b8151811015612d7957612d66600460008573ffffffffffffffffffffffffffffffffffffffff1673ffffffffffffffffffffffffffffffffffffffff1681526020019081526020016000206000848481518110612d2757612d266149f8565b5b60200260200101518152602001908152602001600020612d6185858581518110612d5457612d536149f8565b5b6020026020010151610705565b61347e565b8080612d7190614a56565b915050612cc7565b505050565b60005b8151811015612df557612de260056000848481518110612da457612da36149f8565b5b60200260200101518152602001908152602001600020612ddd848481518110612dd057612dcf6149f8565b5b60200260200101516118ec565b61347e565b8080612ded90614a56565b915050612d81565b5050565b60606000600167ffffffffffffffff811115612e1857612e17613930565b5b604051908082528060200260200182016040528015612e465781602001602082028036833780820191505090505b5090508281600081518110612e5e57612e5d6149f8565b5b60200260200101818152505080915050919050565b600073ffffffffffffffffffffffffffffffffffffffff16600960009054906101000a900473ffffffffffffffffffffffffffffffffffffffff1673ffffffffffffffffffffffffffffffffffffffff1614612fb7576000600960009054906101000a900473ffffffffffffffffffffffffffffffffffffffff16905060005b8451811015612fb4578173ffffffffffffffffffffffffffffffffffffffff16631de841ba8888878581518110612f2d57612f2c6149f8565b5b6020026020010151898681518110612f4857612f476149f8565b5b60200260200101516040518563ffffffff1660e01b8152600401612f6f9493929190615332565b600060405180830381600087803b158015612f8957600080fd5b505af1158015612f9d573d6000803e3d6000fd5b505050508080612fac90614a56565b915050612ef3565b50505b612fc5868686868686611ecd565b505050505050565b612fec8473ffffffffffffffffffffffffffffffffffffffff16611f93565b1561319d578373ffffffffffffffffffffffffffffffffffffffff1663f23a6e6187878686866040518663ffffffff1660e01b81526004016130329594939291906153c1565b6020604051808303816000875af192505050801561306e57506040513d601f19601f8201168201806040525081019061306b9190615430565b60015b6131145761307a61546a565b806308c379a014156130d7575061308f61548c565b8061309a57506130d9565b806040517f08c379a00000000000000000000000000000000000000000000000000000000081526004016130ce91906138da565b60405180910390fd5b505b6040517f08c379a000000000000000000000000000000000000000000000000000000000815260040161310b90615594565b60405180910390fd5b63f23a6e6160e01b7bffffffffffffffffffffffffffffffffffffffffffffffffffffffff1916817bffffffffffffffffffffffffffffffffffffffffffffffffffffffff19161461319b576040517f08c379a000000000000000000000000000000000000000000000000000000000815260040161319290615626565b60405180910390fd5b505b505050505050565b6131c48473ffffffffffffffffffffffffffffffffffffffff16611f93565b15613375578373ffffffffffffffffffffffffffffffffffffffff1663bc197c8187878686866040518663ffffffff1660e01b815260040161320a959493929190615646565b6020604051808303816000875af192505050801561324657506040513d601f19601f820116820180604052508101906132439190615430565b60015b6132ec5761325261546a565b806308c379a014156132af575061326761548c565b8061327257506132b1565b806040517f08c379a00000000000000000000000000000000000000000000000000000000081526004016132a691906138da565b60405180910390fd5b505b6040517f08c379a00000000000000000000000000000000000000000000000000000000081526004016132e390615594565b60405180910390fd5b63bc197c8160e01b7bffffffffffffffffffffffffffffffffffffffffffffffffffffffff1916817bffffffffffffffffffffffffffffffffffffffffffffffffffffffff191614613373576040517f08c379a000000000000000000000000000000000000000000000000000000000815260040161336a90615626565b60405180910390fd5b505b505050505050565b60006133896006612138565b905090565b600080838054905014156133a55760009050613462565b600080848054905090505b808210156134095760006133c483836134f9565b9050848682815481106133da576133d96149f8565b5b906000526020600020015411156133f357809150613403565b6001816134009190614e0a565b92505b506133b0565b600082118015613441575083856001846134239190614e60565b81548110613434576134336149f8565b5b9060005260206000200154145b1561345c576001826134539190614e60565b92505050613462565b81925050505b92915050565b6001816000016000828254019250508190555050565b600061348861337d565b9050806134978460000161351f565b10156134f45782600001819080600181540180825580915050600190039060005260206000200160009091909190915055826001018290806001815401808255809150506001900390600052602060002001600090919091909150555b505050565b6000600282841861350a91906156dd565b8284166135179190614e0a565b905092915050565b600080828054905014156135365760009050613567565b81600183805490506135489190614e60565b81548110613559576135586149f8565b5b906000526020600020015490505b919050565b82805461357890614711565b90600052602060002090601f01602090048101928261359a57600085556135e1565b82601f106135b357805160ff19168380011785556135e1565b828001600101855582156135e1579182015b828111156135e05782518255916020019190600101906135c5565b5b5090506135ee919061362a565b5090565b6040518060c0016040528060008152602001606081526020016060815260200160008152602001600015158152602001600081525090565b5b8082111561364357600081600090555060010161362b565b5090565b6000604051905090565b600080fd5b600080fd5b600073ffffffffffffffffffffffffffffffffffffffff82169050919050565b60006136868261365b565b9050919050565b6136968161367b565b81146136a157600080fd5b50565b6000813590506136b38161368d565b92915050565b6000819050919050565b6136cc816136b9565b81146136d757600080fd5b50565b6000813590506136e9816136c3565b92915050565b6000806040838503121561370657613705613651565b5b6000613714858286016136a4565b9250506020613725858286016136da565b9150509250929050565b613738816136b9565b82525050565b6000602082019050613753600083018461372f565b92915050565b60007fffffffff0000000000000000000000000000000000000000000000000000000082169050919050565b61378e81613759565b811461379957600080fd5b50565b6000813590506137ab81613785565b92915050565b6000602082840312156137c7576137c6613651565b5b60006137d58482850161379c565b91505092915050565b60008115159050919050565b6137f3816137de565b82525050565b600060208201905061380e60008301846137ea565b92915050565b60006020828403121561382a57613829613651565b5b6000613838848285016136da565b91505092915050565b600081519050919050565b600082825260208201905092915050565b60005b8381101561387b578082015181840152602081019050613860565b8381111561388a576000848401525b50505050565b6000601f19601f8301169050919050565b60006138ac82613841565b6138b6818561384c565b93506138c681856020860161385d565b6138cf81613890565b840191505092915050565b600060208201905081810360008301526138f481846138a1565b905092915050565b6139058161367b565b82525050565b600060208201905061392060008301846138fc565b92915050565b600080fd5b600080fd5b7f4e487b7100000000000000000000000000000000000000000000000000000000600052604160045260246000fd5b61396882613890565b810181811067ffffffffffffffff8211171561398757613986613930565b5b80604052505050565b600061399a613647565b90506139a6828261395f565b919050565b600067ffffffffffffffff8211156139c6576139c5613930565b5b6139cf82613890565b9050602081019050919050565b82818337600083830152505050565b60006139fe6139f9846139ab565b613990565b905082815260208101848484011115613a1a57613a1961392b565b5b613a258482856139dc565b509392505050565b600082601f830112613a4257613a41613926565b5b8135613a528482602086016139eb565b91505092915050565b600060208284031215613a7157613a70613651565b5b600082013567ffffffffffffffff811115613a8f57613a8e613656565b5b613a9b84828501613a2d565b91505092915050565b60008060408385031215613abb57613aba613651565b5b6000613ac9858286016136da565b9250506020613ada858286016136da565b9150509250929050565b600067ffffffffffffffff821115613aff57613afe613930565b5b602082029050602081019050919050565b600080fd5b6000613b28613b2384613ae4565b613990565b90508083825260208201905060208402830185811115613b4b57613b4a613b10565b5b835b81811015613b745780613b6088826136da565b845260208401935050602081019050613b4d565b5050509392505050565b600082601f830112613b9357613b92613926565b5b8135613ba3848260208601613b15565b91505092915050565b600067ffffffffffffffff821115613bc757613bc6613930565b5b613bd082613890565b9050602081019050919050565b6000613bf0613beb84613bac565b613990565b905082815260208101848484011115613c0c57613c0b61392b565b5b613c178482856139dc565b509392505050565b600082601f830112613c3457613c33613926565b5b8135613c44848260208601613bdd565b91505092915050565b600080600080600060a08688031215613c6957613c68613651565b5b6000613c77888289016136a4565b9550506020613c88888289016136a4565b945050604086013567ffffffffffffffff811115613ca957613ca8613656565b5b613cb588828901613b7e565b935050606086013567ffffffffffffffff811115613cd657613cd5613656565b5b613ce288828901613b7e565b925050608086013567ffffffffffffffff811115613d0357613d02613656565b5b613d0f88828901613c1f565b9150509295509295909350565b60008060408385031215613d3357613d32613651565b5b6000613d41858286016136a4565b9250506020613d52858286016136a4565b9150509250929050565b600067ffffffffffffffff821115613d7757613d76613930565b5b602082029050602081019050919050565b6000613d9b613d9684613d5c565b613990565b90508083825260208201905060208402830185811115613dbe57613dbd613b10565b5b835b81811015613de75780613dd388826136a4565b845260208401935050602081019050613dc0565b5050509392505050565b600082601f830112613e0657613e05613926565b5b8135613e16848260208601613d88565b91505092915050565b60008060408385031215613e3657613e35613651565b5b600083013567ffffffffffffffff811115613e5457613e53613656565b5b613e6085828601613df1565b925050602083013567ffffffffffffffff811115613e8157613e80613656565b5b613e8d85828601613b7e565b9150509250929050565b600081519050919050565b600082825260208201905092915050565b6000819050602082019050919050565b613ecc816136b9565b82525050565b6000613ede8383613ec3565b60208301905092915050565b6000602082019050919050565b6000613f0282613e97565b613f0c8185613ea2565b9350613f1783613eb3565b8060005b83811015613f48578151613f2f8882613ed2565b9750613f3a83613eea565b925050600181019050613f1b565b5085935050505092915050565b60006020820190508181036000830152613f6f8184613ef7565b905092915050565b60008060408385031215613f8e57613f8d613651565b5b600083013567ffffffffffffffff811115613fac57613fab613656565b5b613fb885828601613a2d565b925050602083013567ffffffffffffffff811115613fd957613fd8613656565b5b613fe585828601613a2d565b9150509250929050565b60008060006060848603121561400857614007613651565b5b6000614016868287016136a4565b9350506020614027868287016136da565b9250506040614038868287016136da565b9150509250925092565b600080600080600060a0868803121561405e5761405d613651565b5b600061406c888289016136a4565b955050602061407d888289016136da565b945050604061408e888289016136da565b935050606061409f888289016136da565b92505060806140b0888289016136da565b9150509295509295909350565b600060c0820190506140d2600083018961372f565b81810360208301526140e481886138a1565b905081810360408301526140f881876138a1565b9050614107606083018661372f565b61411460808301856137ea565b61412160a083018461372f565b979650505050505050565b60008060006060848603121561414557614144613651565b5b6000614153868287016136da565b9350506020614164868287016136da565b9250506040614175868287016136da565b9150509250925092565b614188816137de565b811461419357600080fd5b50565b6000813590506141a58161417f565b92915050565b600080604083850312156141c2576141c1613651565b5b60006141d0858286016136a4565b92505060206141e185828601614196565b9150509250929050565b600080fd5b60008083601f84011261420657614205613926565b5b8235905067ffffffffffffffff811115614223576142226141eb565b5b60208301915083602082028301111561423f5761423e613b10565b5b9250929050565b60008083601f84011261425c5761425b613926565b5b8235905067ffffffffffffffff811115614279576142786141eb565b5b60208301915083600182028301111561429557614294613b10565b5b9250929050565b60008060008060008060008060a0898b0312156142bc576142bb613651565b5b60006142ca8b828c016136a4565b98505060206142db8b828c016136a4565b975050604089013567ffffffffffffffff8111156142fc576142fb613656565b5b6143088b828c016141f0565b9650965050606089013567ffffffffffffffff81111561432b5761432a613656565b5b6143378b828c016141f0565b9450945050608089013567ffffffffffffffff81111561435a57614359613656565b5b6143668b828c01614246565b92509250509295985092959890939650565b61438181613759565b82525050565b600060208201905061439c6000830184614378565b92915050565b600080fd5b600080fd5b600060a082840312156143c2576143c16143a2565b5b6143cc60a0613990565b905060006143dc848285016136da565b60008301525060206143f0848285016136da565b6020830152506040614404848285016136da565b604083015250606082013567ffffffffffffffff811115614428576144276143a7565b5b61443484828501613a2d565b606083015250608082013567ffffffffffffffff811115614458576144576143a7565b5b61446484828501613a2d565b60808301525092915050565b6000806040838503121561448757614486613651565b5b600083013567ffffffffffffffff8111156144a5576144a4613656565b5b6144b1858286016143ac565b92505060206144c2858286016136a4565b9150509250929050565b6000806000606084860312156144e5576144e4613651565b5b60006144f3868287016136da565b9350506020614504868287016136da565b9250506040614515868287016136a4565b9150509250925092565b60008060008060008060a0878903121561453c5761453b613651565b5b600061454a89828a016136a4565b965050602061455b89828a016136a4565b955050604061456c89828a016136da565b945050606061457d89828a016136da565b935050608087013567ffffffffffffffff81111561459e5761459d613656565b5b6145aa89828a01614246565b92509250509295509295509295565b600080600080600060a086880312156145d5576145d4613651565b5b60006145e3888289016136a4565b95505060206145f4888289016136a4565b9450506040614605888289016136da565b9350506060614616888289016136da565b925050608086013567ffffffffffffffff81111561463757614636613656565b5b61464388828901613c1f565b9150509295509295909350565b7f455243313135353a2062616c616e636520717565727920666f7220746865207a60008201527f65726f2061646472657373000000000000000000000000000000000000000000602082015250565b60006146ac602b8361384c565b91506146b782614650565b604082019050919050565b600060208201905081810360008301526146db8161469f565b9050919050565b7f4e487b7100000000000000000000000000000000000000000000000000000000600052602260045260246000fd5b6000600282049050600182168061472957607f821691505b6020821081141561473d5761473c6146e2565b5b50919050565b7f554e415554484f52495a45443a2043414e4e4f545f504552464f524d5f41435460008201527f494f4e0000000000000000000000000000000000000000000000000000000000602082015250565b600061479f60238361384c565b91506147aa82614743565b604082019050919050565b600060208201905081810360008301526147ce81614792565b9050919050565b7f455243313135353a207472616e736665722063616c6c6572206973206e6f742060008201527f6f776e6572206e6f7220617070726f7665640000000000000000000000000000602082015250565b600061483160328361384c565b915061483c826147d5565b604082019050919050565b6000602082019050818103600083015261486081614824565b9050919050565b7f496e697469616c697a61626c653a20636f6e747261637420697320616c72656160008201527f647920696e697469616c697a6564000000000000000000000000000000000000602082015250565b60006148c3602e8361384c565b91506148ce82614867565b604082019050919050565b600060208201905081810360008301526148f2816148b6565b9050919050565b6000819050919050565b600060ff82169050919050565b6000819050919050565b600061493561493061492b846148f9565b614910565b614903565b9050919050565b6149458161491a565b82525050565b6000602082019050614960600083018461493c565b92915050565b7f455243313135353a206163636f756e747320616e6420696473206c656e67746860008201527f206d69736d617463680000000000000000000000000000000000000000000000602082015250565b60006149c260298361384c565b91506149cd82614966565b604082019050919050565b600060208201905081810360008301526149f1816149b5565b9050919050565b7f4e487b7100000000000000000000000000000000000000000000000000000000600052603260045260246000fd5b7f4e487b7100000000000000000000000000000000000000000000000000000000600052601160045260246000fd5b6000614a61826136b9565b91507fffffffffffffffffffffffffffffffffffffffffffffffffffffffffffffffff821415614a9457614a93614a27565b5b600182019050919050565b600081905092915050565b6000614ab582613841565b614abf8185614a9f565b9350614acf81856020860161385d565b80840191505092915050565b6000614ae78284614aaa565b915081905092915050565b600060a082019050614b0760008301886138fc565b614b14602083018761372f565b614b21604083018661372f565b614b2e606083018561372f565b614b3b608083018461372f565b9695505050505050565b7f494e56414c49443a2057524f4e475f5245434f52445f49440000000000000000600082015250565b6000614b7b60188361384c565b9150614b8682614b45565b602082019050919050565b60006020820190508181036000830152614baa81614b6e565b9050919050565b7f494e56414c49443a2057524f4e475f544f4b454e5f4944000000000000000000600082015250565b6000614be760178361384c565b9150614bf282614bb1565b602082019050919050565b60006020820190508181036000830152614c1681614bda565b9050919050565b6000608082019050614c32600083018761372f565b614c3f602083018661372f565b614c4c604083018561372f565b614c59606083018461372f565b95945050505050565b60008190508160005260206000209050919050565b60008154614c8481614711565b614c8e8186614a9f565b94506001821660008114614ca95760018114614cba57614ced565b60ff19831686528186019350614ced565b614cc385614c62565b60005b83811015614ce557815481890152600182019150602081019050614cc6565b838801955050505b50505092915050565b6000614d028284614c77565b915081905092915050565b600081519050919050565b600081905092915050565b6000614d2e82614d0d565b614d388185614d18565b9350614d4881856020860161385d565b80840191505092915050565b6000614d608285614d23565b9150614d6c8284614aaa565b91508190509392505050565b7f455243313135353a2063616c6c6572206973206e6f74206f776e6572206e6f7260008201527f20617070726f7665640000000000000000000000000000000000000000000000602082015250565b6000614dd460298361384c565b9150614ddf82614d78565b604082019050919050565b60006020820190508181036000830152614e0381614dc7565b9050919050565b6000614e15826136b9565b9150614e20836136b9565b9250827fffffffffffffffffffffffffffffffffffffffffffffffffffffffffffffffff03821115614e5557614e54614a27565b5b828201905092915050565b6000614e6b826136b9565b9150614e76836136b9565b925082821015614e8957614e88614a27565b5b828203905092915050565b7f455243313135353a206d696e7420746f20746865207a65726f2061646472657360008201527f7300000000000000000000000000000000000000000000000000000000000000602082015250565b6000614ef060218361384c565b9150614efb82614e94565b604082019050919050565b60006020820190508181036000830152614f1f81614ee3565b9050919050565b6000604082019050614f3b600083018561372f565b614f48602083018461372f565b9392505050565b7f455243313135353a2069647320616e6420616d6f756e7473206c656e6774682060008201527f6d69736d61746368000000000000000000000000000000000000000000000000602082015250565b6000614fab60288361384c565b9150614fb682614f4f565b604082019050919050565b60006020820190508181036000830152614fda81614f9e565b9050919050565b7f455243313135353a207472616e7366657220746f20746865207a65726f20616460008201527f6472657373000000000000000000000000000000000000000000000000000000602082015250565b600061503d60258361384c565b915061504882614fe1565b604082019050919050565b6000602082019050818103600083015261506c81615030565b9050919050565b7f455243313135353a20696e73756666696369656e742062616c616e636520666f60008201527f72207472616e7366657200000000000000000000000000000000000000000000602082015250565b60006150cf602a8361384c565b91506150da82615073565b604082019050919050565b600060208201905081810360008301526150fe816150c2565b9050919050565b6000604082019050818103600083015261511f8185613ef7565b905081810360208301526151338184613ef7565b90509392505050565b7f4552433230536e617073686f743a206964206973203000000000000000000000600082015250565b600061517260168361384c565b915061517d8261513c565b602082019050919050565b600060208201905081810360008301526151a181615165565b9050919050565b7f4552433230536e617073686f743a206e6f6e6578697374656e74206964000000600082015250565b60006151de601d8361384c565b91506151e9826151a8565b602082019050919050565b6000602082019050818103600083015261520d816151d1565b9050919050565b7f455243313135353a2073657474696e6720617070726f76616c2073746174757360008201527f20666f722073656c660000000000000000000000000000000000000000000000602082015250565b600061527060298361384c565b915061527b82615214565b604082019050919050565b6000602082019050818103600083015261529f81615263565b9050919050565b6152af81614903565b82525050565b600060e0820190506152ca600083018a61372f565b81810360208301526152dc81896138a1565b905081810360408301526152f081886138a1565b90506152ff606083018761372f565b61530c608083018661372f565b61531960a083018561372f565b61532660c08301846152a6565b98975050505050505050565b600060808201905061534760008301876138fc565b61535460208301866138fc565b615361604083018561372f565b61536e606083018461372f565b95945050505050565b600082825260208201905092915050565b600061539382614d0d565b61539d8185615377565b93506153ad81856020860161385d565b6153b681613890565b840191505092915050565b600060a0820190506153d660008301886138fc565b6153e360208301876138fc565b6153f0604083018661372f565b6153fd606083018561372f565b818103608083015261540f8184615388565b90509695505050505050565b60008151905061542a81613785565b92915050565b60006020828403121561544657615445613651565b5b60006154548482850161541b565b91505092915050565b60008160e01c9050919050565b600060033d11156154895760046000803e61548660005161545d565b90505b90565b600060443d101561549c5761551f565b6154a4613647565b60043d036004823e80513d602482011167ffffffffffffffff821117156154cc57505061551f565b808201805167ffffffffffffffff8111156154ea575050505061551f565b80602083010160043d03850181111561550757505050505061551f565b6155168260200185018661395f565b82955050505050505b90565b7f455243313135353a207472616e7366657220746f206e6f6e204552433131353560008201527f526563656976657220696d706c656d656e746572000000000000000000000000602082015250565b600061557e60348361384c565b915061558982615522565b604082019050919050565b600060208201905081810360008301526155ad81615571565b9050919050565b7f455243313135353a204552433131353552656365697665722072656a6563746560008201527f6420746f6b656e73000000000000000000000000000000000000000000000000602082015250565b600061561060288361384c565b915061561b826155b4565b604082019050919050565b6000602082019050818103600083015261563f81615603565b9050919050565b600060a08201905061565b60008301886138fc565b61566860208301876138fc565b818103604083015261567a8186613ef7565b9050818103606083015261568e8185613ef7565b905081810360808301526156a28184615388565b90509695505050505050565b7f4e487b7100000000000000000000000000000000000000000000000000000000600052601260045260246000fd5b60006156e8826136b9565b91506156f3836136b9565b925082615703576157026156ae565b5b82820490509291505056fe546f6b656e206d696e746564207468726f75676820766f74696e672070726f63657373a26469706673582212201bb3371750e8e8f26d13134929719cd7b8063b27d93df1e28a4334ff19d4a02064736f6c634300080c0033",
  "immutableReferences": {},
  "source": "pragma solidity ^0.8.0;\n\nimport \"@openzeppelin/contracts/token/ERC1155/ERC1155.sol\";\nimport \"@openzeppelin/contracts/token/ERC1155/IERC1155Receiver.sol\";\nimport \"@openzeppelin/contracts/token/ERC1155/extensions/ERC1155Supply.sol\";\nimport \"@openzeppelin/contracts/utils/Counters.sol\";\nimport \"@openzeppelin/contracts/access/Ownable.sol\";\nimport \"@openzeppelin/contracts-upgradeable/proxy/utils/Initializable.sol\";\nimport \"../interface/IRecords.sol\";\nimport \"../ERC1155/SnapshotERC1155.sol\";\nimport \"@openzeppelin/contracts/utils/math/SafeMath.sol\";\nimport \"../voting/VotingHubContract.sol\";\n\ncontract TreasuryCoreContract is\n    IERC1155Receiver,\n    SnapshotERC1155,\n    Initializable\n{\n    uint256 public constant CRD = 1;\n    uint256 private LastTokenId = 1;\n    address public VOTING_HUB_ADDRESS;\n    address public TREASURY_CONTRACT_ADDRESS;\n    address public OWNER;\n    string private PREFIX_GOVERNANCE = \"CRDG_\";\n    string private PREFIX_COMMUNITY = \"CRD_\";\n    uint8 private TOKEN_TYPE_COMMUNITY = 0;\n    uint8 private TOKEN_TYPE_GOVERNANCE = 1;\n\n    /// @dev This structure will store information of tokens for each records\n    /// @param recordId This is the id of record to which a token belongs\n    /// @param symbol This is the symbol of a token\n    /// @param image This is the token image\n    /// @param creationDate This is the block number of creation date\n    /// @param isPresent This is to check if a token struct exists or not\n    /// @param tokenId This is the id of the token that is created\n    struct Token {\n        uint256 recordId;\n        string symbol;\n        string image;\n        uint256 creationDate;\n        bool isPresent;\n        uint256 tokenId;\n    }\n\n    /// @dev This structure will store information of the contribution\n    /// @param recordId This is the id of the record to which contribution belongs to\n    /// @param totalSupply Total supply of token\n    /// @param userBalance The amount of tokens that goes into creators wallet\n    /// @param symbol This is the symbol of the token\n    /// @param image This is the link of the image / icon of the token\n    struct NewTokenData {\n        uint256 recordId;\n        uint256 totalSupply;\n        uint256 userBalance;\n        string symbol;\n        string image;\n    }\n\n    /// @dev this is event which is created when a token transfer takes place\n    /// @param from This is the address of sender\n    /// @param to This is the address of receiver\n    /// @param transferDate This is the date of the transfer\n    /// @param tokenId This is the id of the token that is being transferred\n    /// @param amount This is the amount of token transferred\n    /// @param symbol This is the symbol of the token that were transferred\n    event TokenTransfer(\n        address from,\n        address to,\n        uint256 transferDate,\n        uint256 tokenId,\n        uint256 amount,\n        string symbol\n    );\n\n    /// @dev this is event which is created when new governance token is created (NEW CREATION Not MINTING)\n    /// @param recordId This is the record Id to which this token belongs to\n    /// @param symbol This is the symbol of the governance token\n    /// @param image This is the image of the token\n    /// @param creationDate This is the creation date of the token\n    /// @param tokenAmount This is the amount of token that are created\n    /// @param tokenId This is the id of token that is newly created tokens\n    /// @param tokenType This is the type of the token that is created => For governance 1 and for copyright 0\n    event NewTokenCreated(\n        uint256 recordId,\n        string symbol,\n        string image,\n        uint256 creationDate,\n        uint256 tokenAmount,\n        uint256 tokenId,\n        uint8 tokenType\n    );\n\n    /// @dev this is event which is created when new governance token is minted after the voting is done\n    /// @param recordId This is the record Id to which this token belongs to\n    /// @param creationDate This is the creation date of the token\n    /// @param tokenAmount This is the amount of token that are created\n    /// @param tokenId This is the id of token that is newly created tokens\n    event TokenMinted(\n        uint256 recordId,\n        uint256 tokenId,\n        uint256 creationDate,\n        uint256 tokenAmount\n    );\n\n    /// @dev this is event which is generated when a contribution voting has came to an\n    /// end and the contribution is accepted\n    /// @param to This the address of the winner or the owner of the contribution\n    /// @param recordId This is the id of the record to which this contribution relates to\n    /// @param contributionId This is the id of the contribution to which the record is related to\n    /// @param rewardGovernance The reward amount for governance tokens\n    /// @param rewardCommunity The reward amount for community tokens\n    event ContributionRewardTransferred(\n        address to,\n        uint256 recordId,\n        uint256 contributionId,\n        uint256 rewardGovernance,\n        uint256 rewardCommunity\n    );\n\n    mapping(uint256 => Token) public govTokenMapping;\n    mapping(uint256 => Token) public commTokenMapping;\n\n    mapping(string => bool) public govTokenSym;\n    mapping(string => bool) public commTokenSym;\n\n    // By default URI to crowdrecords domain\n    // 18 decimal points supported\n    constructor(address owner) ERC1155(\"https://crowdrecords.com/{id}\") {\n        OWNER = owner;\n        _mint(owner, CRD, 1000000 * 10**18, \"https://crowdrecords.com\");\n    }\n\n    /// @dev Modifier to check that the person who accesses a specific function is the owner of contract himself.\n    modifier ownerOnly() {\n        require(msg.sender == OWNER, \"UNAUTHORIZED: CANNOT_PERFORM_ACTION\");\n        _;\n    }\n\n    /// @dev Modifier to check that the person who accesses a specific function is the owner of contract himself.\n    modifier onlyTreasuryContract() {\n        require(\n            msg.sender == TREASURY_CONTRACT_ADDRESS,\n            \"UNAUTHORIZED: CANNOT_PERFORM_ACTION\"\n        );\n        _;\n    }\n\n    /// @dev This is to set the address of the contracts\n    /// @param newVotingHubContract This is the address of new voting hub contract\n    /// @param newTreasuryAddress This is the address of new voting hub contract\n    function initialize(\n        address newVotingHubContract,\n        address newTreasuryAddress\n    ) public initializer ownerOnly {\n        VOTING_HUB_ADDRESS = newVotingHubContract;\n        TREASURY_CONTRACT_ADDRESS = newTreasuryAddress;\n    }\n\n    // /// @dev This function sets the Records Contract address\n    // /// @param newVotingHubContract This is the address of new voting hub contract\n    // function setVotingHubContract(address newVotingHubContract)\n    //     public\n    //     ownerOnly\n    // {\n    //     VOTING_HUB_ADDRESS = newVotingHubContract;\n    // }\n\n    // /// @dev This function sets the treasury Contract address\n    // /// @param newTreasuryAddress This is the address of new voting hub contract\n    // function setTreasuryContract(address newTreasuryAddress) public ownerOnly {\n    //     TREASURY_CONTRACT_ADDRESS = newTreasuryAddress;\n    // }\n\n    /// @dev This function creates new governance tokens for specified record\n    /// @param newTokenData This contains all the parameters needed to create a new governance token that are\n    /// @param userAddress - This is the address of the user who is the creator of the token\n    function createNewGovernanceToken(\n        NewTokenData memory newTokenData,\n        address userAddress\n    ) external onlyTreasuryContract returns (uint256) {\n        {\n            bytes memory preString = abi.encodePacked(PREFIX_GOVERNANCE);\n            newTokenData.symbol = string(\n                abi.encodePacked(preString, newTokenData.symbol)\n            );\n        }\n\n        LastTokenId++;\n        uint256 newTokenId = LastTokenId;\n\n        //Map the recordId with the\n        govTokenMapping[newTokenData.recordId] = createToken(\n            newTokenData,\n            newTokenId,\n            TOKEN_TYPE_GOVERNANCE,\n            userAddress\n        );\n\n        return newTokenId;\n    }\n\n    /// @dev This function creats new community tokens for specified record\n    /// @param newTokenData This contains all the parameters needed to create a new community token that are\n    /// @param userAddress - This is the address of the user who is the creator of the token\n    function createNewCommunityToken(\n        NewTokenData memory newTokenData,\n        address userAddress\n    ) external onlyTreasuryContract returns (uint256) {\n        {\n            bytes memory preString = abi.encodePacked(PREFIX_COMMUNITY);\n            newTokenData.symbol = string(\n                abi.encodePacked(preString, newTokenData.symbol)\n            );\n        }\n\n        LastTokenId++;\n        uint256 newTokenId = LastTokenId;\n\n        //Map the recordId with the\n        commTokenMapping[newTokenData.recordId] = createToken(\n            newTokenData,\n            newTokenId,\n            TOKEN_TYPE_COMMUNITY,\n            userAddress\n        );\n\n        return newTokenId;\n    }\n\n    /// @dev This function is an internal use only function whoes role is to create a new token of specified type\n    /// @param newTokenData This contains all the parameters needed to create a new community token that are\n    /// @param newTokenId - This is the Id of the token to create\n    /// @param tokenType - This is the type of token that is to be created such as community or governance\n    /// @param userAddress - This is the address of the user who is the creator of the token\n    function createToken(\n        NewTokenData memory newTokenData,\n        uint256 newTokenId,\n        uint8 tokenType,\n        address userAddress\n    ) private returns (Token memory) {\n        uint256 treasuryAmount = (newTokenData.totalSupply -\n            newTokenData.userBalance);\n        uint256 userAmount = newTokenData.userBalance;\n\n        // Here minting of new tokens is done. And those are sent directly into the treasury\n        _mint(address(this), newTokenId, treasuryAmount, \"\");\n\n        // The user requested amount of tokens is generated and send to his account\n        _mint(userAddress, newTokenId, userAmount, \"\");\n\n        Token memory token = Token({\n            recordId: newTokenData.recordId,\n            symbol: newTokenData.symbol,\n            image: newTokenData.image,\n            creationDate: block.timestamp,\n            isPresent: true,\n            tokenId: newTokenId\n        });\n\n        emit NewTokenCreated({\n            recordId: newTokenData.recordId,\n            symbol: newTokenData.symbol,\n            image: newTokenData.image,\n            creationDate: token.creationDate,\n            tokenAmount: newTokenData.totalSupply,\n            tokenId: newTokenId,\n            tokenType: tokenType\n        });\n\n        return token;\n    }\n\n    /// @dev This function creats new community tokens for specified record\n    /// @param recordId This is the id of the record to which the token belongs to\n    /// @param tokenId This is the id of the which is to be minted\n    /// @param tokenAmount This is the amount that is to be minted\n    function mintTokens(\n        uint256 recordId,\n        uint256 tokenId,\n        uint256 tokenAmount\n    ) external onlyTreasuryContract {\n        require(\n            commTokenMapping[recordId].isPresent == true ||\n                govTokenMapping[recordId].isPresent == true,\n            \"INVALID: WRONG_RECORD_ID\"\n        );\n\n        require(\n            commTokenMapping[recordId].tokenId == tokenId ||\n                govTokenMapping[recordId].tokenId == tokenId,\n            \"INVALID: WRONG_TOKEN_ID\"\n        );\n\n        // Here minting of new tokens is done. And those are sent directly into the treasury\n        _mint(\n            address(this),\n            tokenId,\n            tokenAmount,\n            \"Token minted through voting process\"\n        );\n\n        emit TokenMinted({\n            recordId: recordId,\n            tokenId: tokenId,\n            creationDate: block.timestamp,\n            tokenAmount: tokenAmount\n        });\n    }\n\n    /// @dev This function is called only by the voting contract once the voting ends\n    /// @param to This is the receivers address\n    /// @param recordId This is the recordId to which the contribution belongs to\n    /// @param contributionId this is the contribution id to which the user has won\n    /// @param rewardGovernance this is the amount of Governance token that needs to be transferred\n    /// @param rewardCommunity this is the amount of community token that needs to be transferred\n    function transferRewardAmount(\n        address to,\n        uint256 recordId,\n        uint256 contributionId,\n        uint256 rewardGovernance,\n        uint256 rewardCommunity\n    ) external onlyTreasuryContract {\n        _setApprovalForAll(address(this), msg.sender, true);\n        if (rewardGovernance > 0) {\n            safeTransferFrom(\n                address(this),\n                to,\n                govTokenMapping[recordId].tokenId,\n                rewardGovernance,\n                \"\"\n            );\n        }\n\n        if (rewardCommunity > 0) {\n            safeTransferFrom(\n                address(this),\n                to,\n                commTokenMapping[recordId].tokenId,\n                rewardCommunity,\n                \"\"\n            );\n        }\n\n        emit ContributionRewardTransferred({\n            to: to,\n            recordId: recordId,\n            contributionId: contributionId,\n            rewardGovernance: rewardGovernance,\n            rewardCommunity: rewardCommunity\n        });\n    }\n\n    // Update balance and/or total supply snapshots before the values are modified. This is implemented\n    // in the _beforeTokenTransfer hook, which is executed for _mint, _burn, and _transfer operations.\n    function _beforeTokenTransfer(\n        address operator,\n        address from,\n        address to,\n        uint256[] memory ids,\n        uint256[] memory amounts,\n        bytes memory data\n    ) internal override {\n        //Below condition is needed as the _mint is called in the constructor\n        //and at that particular point in time the below address is not initialized thus leading to a revert\n        if (VOTING_HUB_ADDRESS != address(0)) {\n            VotingHubContract votingHubContract = VotingHubContract(\n                VOTING_HUB_ADDRESS\n            );\n\n            for (uint256 i = 0; i < ids.length; i++) {\n                votingHubContract.handleUserTokenTransfers(\n                    from,\n                    to,\n                    amounts[i],\n                    ids[i]\n                );\n            }\n        }\n\n        super._beforeTokenTransfer(operator, from, to, ids, amounts, data);\n    }\n\n    /// @dev This function sets the symbol name as used, this function is called from records\n    // contract to reserve symbol for new version creation\n    /// @param governanceSymbol Symbol for governance token\n    /// @param communitySymbol Symbol for community token\n    function setSymbolsAsUsed(\n        string memory governanceSymbol,\n        string memory communitySymbol\n    ) external onlyTreasuryContract {\n        commTokenSym[communitySymbol] = true;\n        govTokenSym[governanceSymbol] = true;\n    }\n\n    /// @dev This function sets the symbol name as available, this function is called from records\n    // contract to reserve symbol for new version creation\n    /// @param governanceSymbol Symbol for governance token\n    /// @param communitySymbol Symbol for community token\n    function setSymbolsAsAvailable(\n        string memory governanceSymbol,\n        string memory communitySymbol\n    ) external onlyTreasuryContract {\n        commTokenSym[communitySymbol] = true;\n        govTokenSym[governanceSymbol] = true;\n    }\n\n    /// @dev this function is responsible for minting of new tokens for records\n    /// @param tokenId Id this is the tokenId that is to minted\n    /// @param amount the amount that is to be minted\n    /// @param receiver Id this is the tokenId that is to minted\n    function transferRewardTokens(\n        uint256 tokenId,\n        uint256 amount,\n        address receiver\n    ) public onlyTreasuryContract {\n        _setApprovalForAll(address(this), msg.sender, true);\n        safeTransferFrom(\n            address(this),\n            receiver,\n            tokenId,\n            amount,\n            \"RECORD_TOKEN_TRANSFER\"\n        );\n    }\n\n    function snapshot()\n        external\n        onlyTreasuryContract\n        returns (uint256 snapshotId)\n    {\n        return _snapshot();\n    }\n\n    function mint(uint256 tokenId, uint256 amount)\n        external\n        onlyTreasuryContract\n    {\n        _mint(address(this), tokenId, amount, \"New tokens minted\");\n    }\n\n    function onERC1155Received(\n        address operator,\n        address from,\n        uint256 id,\n        uint256 value,\n        bytes calldata data\n    ) external virtual override returns (bytes4) {\n        return\n            bytes4(\n                keccak256(\n                    \"onERC1155Received(address,address,uint256,uint256,bytes)\"\n                )\n            );\n    }\n\n    function onERC1155BatchReceived(\n        address operator,\n        address from,\n        uint256[] calldata ids,\n        uint256[] calldata values,\n        bytes calldata data\n    ) external virtual override returns (bytes4) {\n        return\n            bytes4(\n                keccak256(\n                    \"onERC1155BatchReceived(address,address,uint256[],uint256[],bytes)\"\n                )\n            );\n    }\n}\n",
  "sourcePath": "/Users/a1/Desktop/Office/projects/CrowdRecords/Contracts/contracts/treasury/TreasuryCoreContract.sol",
  "compiler": {
    "name": "solc",
    "version": "0.8.12+commit.f00d7308.Emscripten.clang"
  },
  "schemaVersion": "3.4.6",
  "updatedAt": "2022-10-13T11:10:29.661Z",
  "devdoc": {
    "events": {
      "ContributionRewardTransferred(address,uint256,uint256,uint256,uint256)": {
        "details": "this is event which is generated when a contribution voting has came to an end and the contribution is accepted",
        "params": {
          "contributionId": "This is the id of the contribution to which the record is related to",
          "recordId": "This is the id of the record to which this contribution relates to",
          "rewardCommunity": "The reward amount for community tokens",
          "rewardGovernance": "The reward amount for governance tokens",
          "to": "This the address of the winner or the owner of the contribution"
        }
      },
      "NewTokenCreated(uint256,string,string,uint256,uint256,uint256,uint8)": {
        "details": "this is event which is created when new governance token is created (NEW CREATION Not MINTING)",
        "params": {
          "creationDate": "This is the creation date of the token",
          "image": "This is the image of the token",
          "recordId": "This is the record Id to which this token belongs to",
          "symbol": "This is the symbol of the governance token",
          "tokenAmount": "This is the amount of token that are created",
          "tokenId": "This is the id of token that is newly created tokens",
          "tokenType": "This is the type of the token that is created => For governance 1 and for copyright 0"
        }
      },
      "TokenMinted(uint256,uint256,uint256,uint256)": {
        "details": "this is event which is created when new governance token is minted after the voting is done",
        "params": {
          "creationDate": "This is the creation date of the token",
          "recordId": "This is the record Id to which this token belongs to",
          "tokenAmount": "This is the amount of token that are created",
          "tokenId": "This is the id of token that is newly created tokens"
        }
      },
      "TokenTransfer(address,address,uint256,uint256,uint256,string)": {
        "details": "this is event which is created when a token transfer takes place",
        "params": {
          "amount": "This is the amount of token transferred",
          "from": "This is the address of sender",
          "symbol": "This is the symbol of the token that were transferred",
          "to": "This is the address of receiver",
          "tokenId": "This is the id of the token that is being transferred",
          "transferDate": "This is the date of the transfer"
        }
      }
    },
    "kind": "dev",
    "methods": {
      "balanceOf(address,uint256)": {
        "details": "See {IERC1155-balanceOf}. Requirements: - `account` cannot be the zero address."
      },
      "balanceOfAt(address,uint256,uint256)": {
        "details": "Retrieves the balance of `account` at the time `snapshotId` was created."
      },
      "balanceOfBatch(address[],uint256[])": {
        "details": "See {IERC1155-balanceOfBatch}. Requirements: - `accounts` and `ids` must have the same length."
      },
      "createNewCommunityToken((uint256,uint256,uint256,string,string),address)": {
        "details": "This function creats new community tokens for specified record",
        "params": {
          "newTokenData": "This contains all the parameters needed to create a new community token that are",
          "userAddress": "- This is the address of the user who is the creator of the token"
        }
      },
      "createNewGovernanceToken((uint256,uint256,uint256,string,string),address)": {
        "details": "This function creates new governance tokens for specified record",
        "params": {
          "newTokenData": "This contains all the parameters needed to create a new governance token that are",
          "userAddress": "- This is the address of the user who is the creator of the token"
        }
      },
      "exists(uint256)": {
        "details": "Indicates whether any token exist with a given id, or not."
      },
      "initialize(address,address)": {
        "details": "This is to set the address of the contracts",
        "params": {
          "newTreasuryAddress": "This is the address of new voting hub contract",
          "newVotingHubContract": "This is the address of new voting hub contract"
        }
      },
      "isApprovedForAll(address,address)": {
        "details": "See {IERC1155-isApprovedForAll}."
      },
      "mintTokens(uint256,uint256,uint256)": {
        "details": "This function creats new community tokens for specified record",
        "params": {
          "recordId": "This is the id of the record to which the token belongs to",
          "tokenAmount": "This is the amount that is to be minted",
          "tokenId": "This is the id of the which is to be minted"
        }
      },
      "onERC1155BatchReceived(address,address,uint256[],uint256[],bytes)": {
        "details": "Handles the receipt of a multiple ERC1155 token types. This function is called at the end of a `safeBatchTransferFrom` after the balances have been updated. NOTE: To accept the transfer(s), this must return `bytes4(keccak256(\"onERC1155BatchReceived(address,address,uint256[],uint256[],bytes)\"))` (i.e. 0xbc197c81, or its own function selector).",
        "params": {
          "data": "Additional data with no specified format",
          "from": "The address which previously owned the token",
          "ids": "An array containing ids of each token being transferred (order and length must match values array)",
          "operator": "The address which initiated the batch transfer (i.e. msg.sender)",
          "values": "An array containing amounts of each token being transferred (order and length must match ids array)"
        },
        "returns": {
          "_0": "`bytes4(keccak256(\"onERC1155BatchReceived(address,address,uint256[],uint256[],bytes)\"))` if transfer is allowed"
        }
      },
      "onERC1155Received(address,address,uint256,uint256,bytes)": {
        "details": "Handles the receipt of a single ERC1155 token type. This function is called at the end of a `safeTransferFrom` after the balance has been updated. NOTE: To accept the transfer, this must return `bytes4(keccak256(\"onERC1155Received(address,address,uint256,uint256,bytes)\"))` (i.e. 0xf23a6e61, or its own function selector).",
        "params": {
          "data": "Additional data with no specified format",
          "from": "The address which previously owned the token",
          "id": "The ID of the token being transferred",
          "operator": "The address which initiated the transfer (i.e. msg.sender)",
          "value": "The amount of tokens being transferred"
        },
        "returns": {
          "_0": "`bytes4(keccak256(\"onERC1155Received(address,address,uint256,uint256,bytes)\"))` if transfer is allowed"
        }
      },
      "safeBatchTransferFrom(address,address,uint256[],uint256[],bytes)": {
        "details": "See {IERC1155-safeBatchTransferFrom}."
      },
      "safeTransferFrom(address,address,uint256,uint256,bytes)": {
        "details": "See {IERC1155-safeTransferFrom}."
      },
      "setApprovalForAll(address,bool)": {
        "details": "See {IERC1155-setApprovalForAll}."
      },
      "setSymbolsAsAvailable(string,string)": {
        "params": {
          "communitySymbol": "Symbol for community token",
          "governanceSymbol": "Symbol for governance token"
        }
      },
      "setSymbolsAsUsed(string,string)": {
        "params": {
          "communitySymbol": "Symbol for community token",
          "governanceSymbol": "Symbol for governance token"
        }
      },
      "supportsInterface(bytes4)": {
        "details": "See {IERC165-supportsInterface}."
      },
      "totalSupply(uint256)": {
        "details": "Total amount of tokens in with a given id."
      },
      "totalSupplyAt(uint256,uint256)": {
        "details": "Retrieves the total supply at the time `snapshotId` was created."
      },
      "transferRewardAmount(address,uint256,uint256,uint256,uint256)": {
        "details": "This function is called only by the voting contract once the voting ends",
        "params": {
          "contributionId": "this is the contribution id to which the user has won",
          "recordId": "This is the recordId to which the contribution belongs to",
          "rewardCommunity": "this is the amount of community token that needs to be transferred",
          "rewardGovernance": "this is the amount of Governance token that needs to be transferred",
          "to": "This is the receivers address"
        }
      },
      "transferRewardTokens(uint256,uint256,address)": {
        "details": "this function is responsible for minting of new tokens for records",
        "params": {
          "amount": "the amount that is to be minted",
          "receiver": "Id this is the tokenId that is to minted",
          "tokenId": "Id this is the tokenId that is to minted"
        }
      },
      "uri(uint256)": {
        "details": "See {IERC1155MetadataURI-uri}. This implementation returns the same URI for *all* token types. It relies on the token type ID substitution mechanism https://eips.ethereum.org/EIPS/eip-1155#metadata[defined in the EIP]. Clients calling this function must replace the `\\{id\\}` substring with the actual token type ID."
      }
    },
    "version": 1
  },
  "userdoc": {
    "kind": "user",
    "methods": {},
    "version": 1
  }
}