{
  "contractName": "TreasuryCoreContract",
  "abi": [
    {
      "inputs": [
        {
          "internalType": "address",
          "name": "owner",
          "type": "address"
        }
      ],
      "stateMutability": "nonpayable",
      "type": "constructor"
    },
    {
      "anonymous": false,
      "inputs": [
        {
          "indexed": true,
          "internalType": "address",
          "name": "account",
          "type": "address"
        },
        {
          "indexed": true,
          "internalType": "address",
          "name": "operator",
          "type": "address"
        },
        {
          "indexed": false,
          "internalType": "bool",
          "name": "approved",
          "type": "bool"
        }
      ],
      "name": "ApprovalForAll",
      "type": "event"
    },
    {
      "anonymous": false,
      "inputs": [
        {
          "indexed": false,
          "internalType": "address",
          "name": "to",
          "type": "address"
        },
        {
          "indexed": false,
          "internalType": "uint256",
          "name": "recordId",
          "type": "uint256"
        },
        {
          "indexed": false,
          "internalType": "uint256",
          "name": "contributionId",
          "type": "uint256"
        },
        {
          "indexed": false,
          "internalType": "uint256",
          "name": "rewardGovernance",
          "type": "uint256"
        },
        {
          "indexed": false,
          "internalType": "uint256",
          "name": "rewardCommunity",
          "type": "uint256"
        }
      ],
      "name": "ContributionRewardTransferred",
      "type": "event"
    },
    {
      "anonymous": false,
      "inputs": [
        {
          "indexed": false,
          "internalType": "uint8",
          "name": "version",
          "type": "uint8"
        }
      ],
      "name": "Initialized",
      "type": "event"
    },
    {
      "anonymous": false,
      "inputs": [
        {
          "indexed": false,
          "internalType": "uint256",
          "name": "recordId",
          "type": "uint256"
        },
        {
          "indexed": false,
          "internalType": "string",
          "name": "symbol",
          "type": "string"
        },
        {
          "indexed": false,
          "internalType": "string",
          "name": "image",
          "type": "string"
        },
        {
          "indexed": false,
          "internalType": "uint256",
          "name": "creationDate",
          "type": "uint256"
        },
        {
          "indexed": false,
          "internalType": "uint256",
          "name": "tokenAmount",
          "type": "uint256"
        },
        {
          "indexed": false,
          "internalType": "uint256",
          "name": "tokenId",
          "type": "uint256"
        },
        {
          "indexed": false,
          "internalType": "uint8",
          "name": "tokenType",
          "type": "uint8"
        }
      ],
      "name": "NewTokenCreated",
      "type": "event"
    },
    {
      "anonymous": false,
      "inputs": [
        {
          "indexed": false,
          "internalType": "uint256",
          "name": "id",
          "type": "uint256"
        }
      ],
      "name": "Snapshot",
      "type": "event"
    },
    {
      "anonymous": false,
      "inputs": [
        {
          "indexed": false,
          "internalType": "uint256",
          "name": "recordId",
          "type": "uint256"
        },
        {
          "indexed": false,
          "internalType": "uint256",
          "name": "tokenId",
          "type": "uint256"
        },
        {
          "indexed": false,
          "internalType": "uint256",
          "name": "creationDate",
          "type": "uint256"
        },
        {
          "indexed": false,
          "internalType": "uint256",
          "name": "tokenAmount",
          "type": "uint256"
        }
      ],
      "name": "TokenMinted",
      "type": "event"
    },
    {
      "anonymous": false,
      "inputs": [
        {
          "indexed": false,
          "internalType": "address",
          "name": "from",
          "type": "address"
        },
        {
          "indexed": false,
          "internalType": "address",
          "name": "to",
          "type": "address"
        },
        {
          "indexed": false,
          "internalType": "uint256",
          "name": "transferDate",
          "type": "uint256"
        },
        {
          "indexed": false,
          "internalType": "uint256",
          "name": "tokenId",
          "type": "uint256"
        },
        {
          "indexed": false,
          "internalType": "uint256",
          "name": "amount",
          "type": "uint256"
        },
        {
          "indexed": false,
          "internalType": "string",
          "name": "symbol",
          "type": "string"
        }
      ],
      "name": "TokenTransfer",
      "type": "event"
    },
    {
      "anonymous": false,
      "inputs": [
        {
          "indexed": true,
          "internalType": "address",
          "name": "operator",
          "type": "address"
        },
        {
          "indexed": true,
          "internalType": "address",
          "name": "from",
          "type": "address"
        },
        {
          "indexed": true,
          "internalType": "address",
          "name": "to",
          "type": "address"
        },
        {
          "indexed": false,
          "internalType": "uint256[]",
          "name": "ids",
          "type": "uint256[]"
        },
        {
          "indexed": false,
          "internalType": "uint256[]",
          "name": "values",
          "type": "uint256[]"
        }
      ],
      "name": "TransferBatch",
      "type": "event"
    },
    {
      "anonymous": false,
      "inputs": [
        {
          "indexed": true,
          "internalType": "address",
          "name": "operator",
          "type": "address"
        },
        {
          "indexed": true,
          "internalType": "address",
          "name": "from",
          "type": "address"
        },
        {
          "indexed": true,
          "internalType": "address",
          "name": "to",
          "type": "address"
        },
        {
          "indexed": false,
          "internalType": "uint256",
          "name": "id",
          "type": "uint256"
        },
        {
          "indexed": false,
          "internalType": "uint256",
          "name": "value",
          "type": "uint256"
        }
      ],
      "name": "TransferSingle",
      "type": "event"
    },
    {
      "anonymous": false,
      "inputs": [
        {
          "indexed": false,
          "internalType": "string",
          "name": "value",
          "type": "string"
        },
        {
          "indexed": true,
          "internalType": "uint256",
          "name": "id",
          "type": "uint256"
        }
      ],
      "name": "URI",
      "type": "event"
    },
    {
      "inputs": [],
      "name": "CRD",
      "outputs": [
        {
          "internalType": "uint256",
          "name": "",
          "type": "uint256"
        }
      ],
      "stateMutability": "view",
      "type": "function"
    },
    {
      "inputs": [],
      "name": "OWNER",
      "outputs": [
        {
          "internalType": "address",
          "name": "",
          "type": "address"
        }
      ],
      "stateMutability": "view",
      "type": "function"
    },
    {
      "inputs": [],
      "name": "TREASURY_CONTRACT_ADDRESS",
      "outputs": [
        {
          "internalType": "address",
          "name": "",
          "type": "address"
        }
      ],
      "stateMutability": "view",
      "type": "function"
    },
    {
      "inputs": [],
      "name": "VOTING_HUB_ADDRESS",
      "outputs": [
        {
          "internalType": "address",
          "name": "",
          "type": "address"
        }
      ],
      "stateMutability": "view",
      "type": "function"
    },
    {
      "inputs": [
        {
          "internalType": "address",
          "name": "account",
          "type": "address"
        },
        {
          "internalType": "uint256",
          "name": "id",
          "type": "uint256"
        }
      ],
      "name": "balanceOf",
      "outputs": [
        {
          "internalType": "uint256",
          "name": "",
          "type": "uint256"
        }
      ],
      "stateMutability": "view",
      "type": "function"
    },
    {
      "inputs": [
        {
          "internalType": "address",
          "name": "account",
          "type": "address"
        },
        {
          "internalType": "uint256",
          "name": "snapshotId",
          "type": "uint256"
        },
        {
          "internalType": "uint256",
          "name": "tokenId",
          "type": "uint256"
        }
      ],
      "name": "balanceOfAt",
      "outputs": [
        {
          "internalType": "uint256",
          "name": "",
          "type": "uint256"
        }
      ],
      "stateMutability": "view",
      "type": "function"
    },
    {
      "inputs": [
        {
          "internalType": "address[]",
          "name": "accounts",
          "type": "address[]"
        },
        {
          "internalType": "uint256[]",
          "name": "ids",
          "type": "uint256[]"
        }
      ],
      "name": "balanceOfBatch",
      "outputs": [
        {
          "internalType": "uint256[]",
          "name": "",
          "type": "uint256[]"
        }
      ],
      "stateMutability": "view",
      "type": "function"
    },
    {
      "inputs": [
        {
          "internalType": "uint256",
          "name": "",
          "type": "uint256"
        }
      ],
      "name": "commTokenMapping",
      "outputs": [
        {
          "internalType": "uint256",
          "name": "recordId",
          "type": "uint256"
        },
        {
          "internalType": "string",
          "name": "symbol",
          "type": "string"
        },
        {
          "internalType": "string",
          "name": "image",
          "type": "string"
        },
        {
          "internalType": "uint256",
          "name": "creationDate",
          "type": "uint256"
        },
        {
          "internalType": "bool",
          "name": "isPresent",
          "type": "bool"
        },
        {
          "internalType": "uint256",
          "name": "tokenId",
          "type": "uint256"
        }
      ],
      "stateMutability": "view",
      "type": "function"
    },
    {
      "inputs": [
        {
          "internalType": "string",
          "name": "",
          "type": "string"
        }
      ],
      "name": "commTokenSym",
      "outputs": [
        {
          "internalType": "bool",
          "name": "",
          "type": "bool"
        }
      ],
      "stateMutability": "view",
      "type": "function"
    },
    {
      "inputs": [
        {
          "internalType": "uint256",
          "name": "id",
          "type": "uint256"
        }
      ],
      "name": "exists",
      "outputs": [
        {
          "internalType": "bool",
          "name": "",
          "type": "bool"
        }
      ],
      "stateMutability": "view",
      "type": "function"
    },
    {
      "inputs": [
        {
          "internalType": "uint256",
          "name": "",
          "type": "uint256"
        }
      ],
      "name": "govTokenMapping",
      "outputs": [
        {
          "internalType": "uint256",
          "name": "recordId",
          "type": "uint256"
        },
        {
          "internalType": "string",
          "name": "symbol",
          "type": "string"
        },
        {
          "internalType": "string",
          "name": "image",
          "type": "string"
        },
        {
          "internalType": "uint256",
          "name": "creationDate",
          "type": "uint256"
        },
        {
          "internalType": "bool",
          "name": "isPresent",
          "type": "bool"
        },
        {
          "internalType": "uint256",
          "name": "tokenId",
          "type": "uint256"
        }
      ],
      "stateMutability": "view",
      "type": "function"
    },
    {
      "inputs": [
        {
          "internalType": "string",
          "name": "",
          "type": "string"
        }
      ],
      "name": "govTokenSym",
      "outputs": [
        {
          "internalType": "bool",
          "name": "",
          "type": "bool"
        }
      ],
      "stateMutability": "view",
      "type": "function"
    },
    {
      "inputs": [
        {
          "internalType": "address",
          "name": "account",
          "type": "address"
        },
        {
          "internalType": "address",
          "name": "operator",
          "type": "address"
        }
      ],
      "name": "isApprovedForAll",
      "outputs": [
        {
          "internalType": "bool",
          "name": "",
          "type": "bool"
        }
      ],
      "stateMutability": "view",
      "type": "function"
    },
    {
      "inputs": [
        {
          "internalType": "address",
          "name": "from",
          "type": "address"
        },
        {
          "internalType": "address",
          "name": "to",
          "type": "address"
        },
        {
          "internalType": "uint256[]",
          "name": "ids",
          "type": "uint256[]"
        },
        {
          "internalType": "uint256[]",
          "name": "amounts",
          "type": "uint256[]"
        },
        {
          "internalType": "bytes",
          "name": "data",
          "type": "bytes"
        }
      ],
      "name": "safeBatchTransferFrom",
      "outputs": [],
      "stateMutability": "nonpayable",
      "type": "function"
    },
    {
      "inputs": [
        {
          "internalType": "address",
          "name": "from",
          "type": "address"
        },
        {
          "internalType": "address",
          "name": "to",
          "type": "address"
        },
        {
          "internalType": "uint256",
          "name": "id",
          "type": "uint256"
        },
        {
          "internalType": "uint256",
          "name": "amount",
          "type": "uint256"
        },
        {
          "internalType": "bytes",
          "name": "data",
          "type": "bytes"
        }
      ],
      "name": "safeTransferFrom",
      "outputs": [],
      "stateMutability": "nonpayable",
      "type": "function"
    },
    {
      "inputs": [
        {
          "internalType": "address",
          "name": "operator",
          "type": "address"
        },
        {
          "internalType": "bool",
          "name": "approved",
          "type": "bool"
        }
      ],
      "name": "setApprovalForAll",
      "outputs": [],
      "stateMutability": "nonpayable",
      "type": "function"
    },
    {
      "inputs": [
        {
          "internalType": "bytes4",
          "name": "interfaceId",
          "type": "bytes4"
        }
      ],
      "name": "supportsInterface",
      "outputs": [
        {
          "internalType": "bool",
          "name": "",
          "type": "bool"
        }
      ],
      "stateMutability": "view",
      "type": "function"
    },
    {
      "inputs": [
        {
          "internalType": "uint256",
          "name": "id",
          "type": "uint256"
        }
      ],
      "name": "totalSupply",
      "outputs": [
        {
          "internalType": "uint256",
          "name": "",
          "type": "uint256"
        }
      ],
      "stateMutability": "view",
      "type": "function"
    },
    {
      "inputs": [
        {
          "internalType": "uint256",
          "name": "snapshotId",
          "type": "uint256"
        },
        {
          "internalType": "uint256",
          "name": "tokenId",
          "type": "uint256"
        }
      ],
      "name": "totalSupplyAt",
      "outputs": [
        {
          "internalType": "uint256",
          "name": "",
          "type": "uint256"
        }
      ],
      "stateMutability": "view",
      "type": "function"
    },
    {
      "inputs": [
        {
          "internalType": "uint256",
          "name": "",
          "type": "uint256"
        }
      ],
      "name": "uri",
      "outputs": [
        {
          "internalType": "string",
          "name": "",
          "type": "string"
        }
      ],
      "stateMutability": "view",
      "type": "function"
    },
    {
      "inputs": [
        {
          "internalType": "address",
          "name": "newVotingHubContract",
          "type": "address"
        },
        {
          "internalType": "address",
          "name": "newTreasuryAddress",
          "type": "address"
        }
      ],
      "name": "initialize",
      "outputs": [],
      "stateMutability": "nonpayable",
      "type": "function"
    },
    {
      "inputs": [
        {
          "components": [
            {
              "internalType": "uint256",
              "name": "recordId",
              "type": "uint256"
            },
            {
              "internalType": "uint256",
              "name": "totalSupply",
              "type": "uint256"
            },
            {
              "internalType": "uint256",
              "name": "userBalance",
              "type": "uint256"
            },
            {
              "internalType": "string",
              "name": "symbol",
              "type": "string"
            },
            {
              "internalType": "string",
              "name": "image",
              "type": "string"
            }
          ],
          "internalType": "struct TreasuryCoreContract.NewTokenData",
          "name": "newTokenData",
          "type": "tuple"
        },
        {
          "internalType": "address",
          "name": "userAddress",
          "type": "address"
        }
      ],
      "name": "createNewGovernanceToken",
      "outputs": [
        {
          "internalType": "uint256",
          "name": "",
          "type": "uint256"
        }
      ],
      "stateMutability": "nonpayable",
      "type": "function"
    },
    {
      "inputs": [
        {
          "components": [
            {
              "internalType": "uint256",
              "name": "recordId",
              "type": "uint256"
            },
            {
              "internalType": "uint256",
              "name": "totalSupply",
              "type": "uint256"
            },
            {
              "internalType": "uint256",
              "name": "userBalance",
              "type": "uint256"
            },
            {
              "internalType": "string",
              "name": "symbol",
              "type": "string"
            },
            {
              "internalType": "string",
              "name": "image",
              "type": "string"
            }
          ],
          "internalType": "struct TreasuryCoreContract.NewTokenData",
          "name": "newTokenData",
          "type": "tuple"
        },
        {
          "internalType": "address",
          "name": "userAddress",
          "type": "address"
        }
      ],
      "name": "createNewCommunityToken",
      "outputs": [
        {
          "internalType": "uint256",
          "name": "",
          "type": "uint256"
        }
      ],
      "stateMutability": "nonpayable",
      "type": "function"
    },
    {
      "inputs": [
        {
          "internalType": "uint256",
          "name": "recordId",
          "type": "uint256"
        },
        {
          "internalType": "uint256",
          "name": "tokenId",
          "type": "uint256"
        },
        {
          "internalType": "uint256",
          "name": "tokenAmount",
          "type": "uint256"
        }
      ],
      "name": "mintTokens",
      "outputs": [],
      "stateMutability": "nonpayable",
      "type": "function"
    },
    {
      "inputs": [
        {
          "internalType": "address",
          "name": "to",
          "type": "address"
        },
        {
          "internalType": "uint256",
          "name": "recordId",
          "type": "uint256"
        },
        {
          "internalType": "uint256",
          "name": "contributionId",
          "type": "uint256"
        },
        {
          "internalType": "uint256",
          "name": "rewardGovernance",
          "type": "uint256"
        },
        {
          "internalType": "uint256",
          "name": "rewardCommunity",
          "type": "uint256"
        }
      ],
      "name": "transferRewardAmount",
      "outputs": [],
      "stateMutability": "nonpayable",
      "type": "function"
    },
    {
      "inputs": [
        {
          "internalType": "string",
          "name": "governanceSymbol",
          "type": "string"
        },
        {
          "internalType": "string",
          "name": "communitySymbol",
          "type": "string"
        }
      ],
      "name": "setSymbolsAsUsed",
      "outputs": [],
      "stateMutability": "nonpayable",
      "type": "function"
    },
    {
      "inputs": [
        {
          "internalType": "string",
          "name": "governanceSymbol",
          "type": "string"
        },
        {
          "internalType": "string",
          "name": "communitySymbol",
          "type": "string"
        }
      ],
      "name": "setSymbolsAsAvailable",
      "outputs": [],
      "stateMutability": "nonpayable",
      "type": "function"
    },
    {
      "inputs": [
        {
          "internalType": "uint256",
          "name": "tokenId",
          "type": "uint256"
        },
        {
          "internalType": "uint256",
          "name": "amount",
          "type": "uint256"
        },
        {
          "internalType": "address",
          "name": "receiver",
          "type": "address"
        }
      ],
      "name": "transferRewardTokens",
      "outputs": [],
      "stateMutability": "nonpayable",
      "type": "function"
    },
    {
      "inputs": [],
      "name": "snapshot",
      "outputs": [
        {
          "internalType": "uint256",
          "name": "snapshotId",
          "type": "uint256"
        }
      ],
      "stateMutability": "nonpayable",
      "type": "function"
    },
    {
      "inputs": [
        {
          "internalType": "uint256",
          "name": "tokenId",
          "type": "uint256"
        },
        {
          "internalType": "uint256",
          "name": "amount",
          "type": "uint256"
        }
      ],
      "name": "mint",
      "outputs": [],
      "stateMutability": "nonpayable",
      "type": "function"
    },
    {
      "inputs": [
        {
          "internalType": "address",
          "name": "operator",
          "type": "address"
        },
        {
          "internalType": "address",
          "name": "from",
          "type": "address"
        },
        {
          "internalType": "uint256",
          "name": "id",
          "type": "uint256"
        },
        {
          "internalType": "uint256",
          "name": "value",
          "type": "uint256"
        },
        {
          "internalType": "bytes",
          "name": "data",
          "type": "bytes"
        }
      ],
      "name": "onERC1155Received",
      "outputs": [
        {
          "internalType": "bytes4",
          "name": "",
          "type": "bytes4"
        }
      ],
      "stateMutability": "nonpayable",
      "type": "function"
    },
    {
      "inputs": [
        {
          "internalType": "address",
          "name": "operator",
          "type": "address"
        },
        {
          "internalType": "address",
          "name": "from",
          "type": "address"
        },
        {
          "internalType": "uint256[]",
          "name": "ids",
          "type": "uint256[]"
        },
        {
          "internalType": "uint256[]",
          "name": "values",
          "type": "uint256[]"
        },
        {
          "internalType": "bytes",
          "name": "data",
          "type": "bytes"
        }
      ],
      "name": "onERC1155BatchReceived",
      "outputs": [
        {
          "internalType": "bytes4",
          "name": "",
          "type": "bytes4"
        }
      ],
      "stateMutability": "nonpayable",
      "type": "function"
    }
  ],
  "bytecode": "0x608060405260016008556040518060400160405280600581526020017f435244475f000000000000000000000000000000000000000000000000000000815250600c90805190602001906200005692919062000dff565b506040518060400160405280600481526020017f4352445f00000000000000000000000000000000000000000000000000000000815250600d9080519060200190620000a492919062000dff565b506000600e60006101000a81548160ff021916908360ff1602179055506001600e60016101000a81548160ff021916908360ff160217905550348015620000ea57600080fd5b5060405162006e9438038062006e94833981810160405281019062000110919062000f23565b6040518060400160405280601d81526020017f68747470733a2f2f63726f77647265636f7264732e636f6d2f7b69647d0000008152506200015781620001f460201b60201c565b5080600b60006101000a81548173ffffffffffffffffffffffffffffffffffffffff021916908373ffffffffffffffffffffffffffffffffffffffff160217905550620001ed81600169d3c21bcecceda10000006040518060400160405280601881526020017f68747470733a2f2f63726f77647265636f7264732e636f6d00000000000000008152506200021060201b60201c565b5062001755565b80600290805190602001906200020c92919062000dff565b5050565b600073ffffffffffffffffffffffffffffffffffffffff168473ffffffffffffffffffffffffffffffffffffffff16141562000283576040517f08c379a00000000000000000000000000000000000000000000000000000000081526004016200027a9062000fdc565b60405180910390fd5b600062000295620003d560201b60201c565b9050620002ce81600087620002b088620003dd60201b60201c565b620002c188620003dd60201b60201c565b876200045e60201b60201c565b8260008086815260200190815260200160002060008773ffffffffffffffffffffffffffffffffffffffff1673ffffffffffffffffffffffffffffffffffffffff16815260200190815260200160002060008282546200032f919062001037565b925050819055508473ffffffffffffffffffffffffffffffffffffffff16600073ffffffffffffffffffffffffffffffffffffffff168273ffffffffffffffffffffffffffffffffffffffff167fc3d58168c5ae7397731d063d5bbf3d657854427343f4c083240f7aacaa2d0f628787604051620003af929190620010a5565b60405180910390a4620003ce81600087878787620005d460201b60201c565b5050505050565b600033905090565b60606000600167ffffffffffffffff811115620003ff57620003fe620010d2565b5b6040519080825280602002602001820160405280156200042e5781602001602082028036833780820191505090505b509050828160008151811062000449576200044862001101565b5b60200260200101818152505080915050919050565b600073ffffffffffffffffffffffffffffffffffffffff16600960009054906101000a900473ffffffffffffffffffffffffffffffffffffffff1673ffffffffffffffffffffffffffffffffffffffff1614620005b1576000600960009054906101000a900473ffffffffffffffffffffffffffffffffffffffff16905060005b8451811015620005ae578173ffffffffffffffffffffffffffffffffffffffff16631de841ba88888785815181106200051d576200051c62001101565b5b60200260200101518986815181106200053b576200053a62001101565b5b60200260200101516040518563ffffffff1660e01b815260040162000564949392919062001141565b600060405180830381600087803b1580156200057f57600080fd5b505af115801562000594573d6000803e3d6000fd5b505050508080620005a5906200118e565b915050620004df565b50505b620005cc868686868686620007ce60201b62001e951760201c565b505050505050565b620006008473ffffffffffffffffffffffffffffffffffffffff16620008d560201b62001f5b1760201c565b15620007c6578373ffffffffffffffffffffffffffffffffffffffff1663f23a6e6187878686866040518663ffffffff1660e01b81526004016200064995949392919062001280565b6020604051808303816000875af19250505080156200068857506040513d601f19601f8201168201806040525081019062000685919062001341565b60015b6200073a576200069762001380565b806308c379a01415620006fb5750620006af620013db565b80620006bc5750620006fd565b806040517f08c379a0000000000000000000000000000000000000000000000000000000008152600401620006f29190620014c9565b60405180910390fd5b505b6040517f08c379a0000000000000000000000000000000000000000000000000000000008152600401620007319062001563565b60405180910390fd5b63f23a6e6160e01b7bffffffffffffffffffffffffffffffffffffffffffffffffffffffff1916817bffffffffffffffffffffffffffffffffffffffffffffffffffffffff191614620007c4576040517f08c379a0000000000000000000000000000000000000000000000000000000008152600401620007bb90620015fb565b60405180910390fd5b505b505050505050565b600073ffffffffffffffffffffffffffffffffffffffff168573ffffffffffffffffffffffffffffffffffffffff1614156200082d57620008168484620008f860201b60201c565b6200082783620009cc60201b60201c565b620008b2565b600073ffffffffffffffffffffffffffffffffffffffff168473ffffffffffffffffffffffffffffffffffffffff1614156200088c57620008758584620008f860201b60201c565b6200088683620009cc60201b60201c565b620008b1565b6200089e8584620008f860201b60201c565b620008b08484620008f860201b60201c565b5b5b620008cd86868686868662000a6160201b62001f7e1760201c565b505050505050565b6000808273ffffffffffffffffffffffffffffffffffffffff163b119050919050565b60005b8151811015620009c757620009b1600460008573ffffffffffffffffffffffffffffffffffffffff1673ffffffffffffffffffffffffffffffffffffffff168152602001908152602001600020600084848151811062000960576200095f62001101565b5b60200260200101518152602001908152602001600020620009a58585858151811062000991576200099062001101565b5b602002602001015162000c0260201b60201c565b62000cce60201b60201c565b8080620009be906200118e565b915050620008fb565b505050565b60005b815181101562000a5d5762000a4760056000848481518110620009f757620009f662001101565b5b6020026020010151815260200190815260200160002062000a3b84848151811062000a275762000a2662001101565b5b602002602001015162000d5a60201b60201c565b62000cce60201b60201c565b808062000a54906200118e565b915050620009cf565b5050565b62000a7c86868686868662000d7760201b620020f81760201c565b600073ffffffffffffffffffffffffffffffffffffffff168573ffffffffffffffffffffffffffffffffffffffff16141562000b3b5760005b835181101562000b395782818151811062000ad55762000ad462001101565b5b60200260200101516003600086848151811062000af75762000af662001101565b5b60200260200101518152602001908152602001600020600082825462000b1e919062001037565b925050819055508062000b31906200118e565b905062000ab5565b505b600073ffffffffffffffffffffffffffffffffffffffff168473ffffffffffffffffffffffffffffffffffffffff16141562000bfa5760005b835181101562000bf85782818151811062000b945762000b9362001101565b5b60200260200101516003600086848151811062000bb65762000bb562001101565b5b60200260200101518152602001908152602001600020600082825462000bdd91906200161d565b925050819055508062000bf0906200118e565b905062000b74565b505b505050505050565b60008073ffffffffffffffffffffffffffffffffffffffff168373ffffffffffffffffffffffffffffffffffffffff16141562000c76576040517f08c379a000000000000000000000000000000000000000000000000000000000815260040162000c6d90620016ce565b60405180910390fd5b60008083815260200190815260200160002060008473ffffffffffffffffffffffffffffffffffffffff1673ffffffffffffffffffffffffffffffffffffffff16815260200190815260200160002054905092915050565b600062000ce062000d7f60201b60201c565b90508062000cf78460000162000d9d60201b60201c565b101562000d555782600001819080600181540180825580915050600190039060005260206000200160009091909190915055826001018290806001815401808255809150506001900390600052602060002001600090919091909150555b505050565b600060036000838152602001908152602001600020549050919050565b505050505050565b600062000d98600662000df160201b620021001760201c565b905090565b6000808280549050141562000db6576000905062000dec565b816001838054905062000dca91906200161d565b8154811062000dde5762000ddd62001101565b5b906000526020600020015490505b919050565b600081600001549050919050565b82805462000e0d906200171f565b90600052602060002090601f01602090048101928262000e31576000855562000e7d565b82601f1062000e4c57805160ff191683800117855562000e7d565b8280016001018555821562000e7d579182015b8281111562000e7c57825182559160200191906001019062000e5f565b5b50905062000e8c919062000e90565b5090565b5b8082111562000eab57600081600090555060010162000e91565b5090565b6000604051905090565b600080fd5b600073ffffffffffffffffffffffffffffffffffffffff82169050919050565b600062000eeb8262000ebe565b9050919050565b62000efd8162000ede565b811462000f0957600080fd5b50565b60008151905062000f1d8162000ef2565b92915050565b60006020828403121562000f3c5762000f3b62000eb9565b5b600062000f4c8482850162000f0c565b91505092915050565b600082825260208201905092915050565b7f455243313135353a206d696e7420746f20746865207a65726f2061646472657360008201527f7300000000000000000000000000000000000000000000000000000000000000602082015250565b600062000fc460218362000f55565b915062000fd18262000f66565b604082019050919050565b6000602082019050818103600083015262000ff78162000fb5565b9050919050565b6000819050919050565b7f4e487b7100000000000000000000000000000000000000000000000000000000600052601160045260246000fd5b6000620010448262000ffe565b9150620010518362000ffe565b9250827fffffffffffffffffffffffffffffffffffffffffffffffffffffffffffffffff0382111562001089576200108862001008565b5b828201905092915050565b6200109f8162000ffe565b82525050565b6000604082019050620010bc600083018562001094565b620010cb602083018462001094565b9392505050565b7f4e487b7100000000000000000000000000000000000000000000000000000000600052604160045260246000fd5b7f4e487b7100000000000000000000000000000000000000000000000000000000600052603260045260246000fd5b6200113b8162000ede565b82525050565b600060808201905062001158600083018762001130565b62001167602083018662001130565b62001176604083018562001094565b62001185606083018462001094565b95945050505050565b60006200119b8262000ffe565b91507fffffffffffffffffffffffffffffffffffffffffffffffffffffffffffffffff821415620011d157620011d062001008565b5b600182019050919050565b600081519050919050565b600082825260208201905092915050565b60005b8381101562001218578082015181840152602081019050620011fb565b8381111562001228576000848401525b50505050565b6000601f19601f8301169050919050565b60006200124c82620011dc565b620012588185620011e7565b93506200126a818560208601620011f8565b62001275816200122e565b840191505092915050565b600060a08201905062001297600083018862001130565b620012a6602083018762001130565b620012b5604083018662001094565b620012c4606083018562001094565b8181036080830152620012d881846200123f565b90509695505050505050565b60007fffffffff0000000000000000000000000000000000000000000000000000000082169050919050565b6200131b81620012e4565b81146200132757600080fd5b50565b6000815190506200133b8162001310565b92915050565b6000602082840312156200135a576200135962000eb9565b5b60006200136a848285016200132a565b91505092915050565b60008160e01c9050919050565b600060033d1115620013a25760046000803e6200139f60005162001373565b90505b90565b620013b0826200122e565b810181811067ffffffffffffffff82111715620013d257620013d1620010d2565b5b80604052505050565b600060443d1015620013ed576200147a565b620013f762000eaf565b60043d036004823e80513d602482011167ffffffffffffffff82111715620014215750506200147a565b808201805167ffffffffffffffff8111156200144157505050506200147a565b80602083010160043d038501811115620014605750505050506200147a565b6200147182602001850186620013a5565b82955050505050505b90565b600081519050919050565b600062001495826200147d565b620014a1818562000f55565b9350620014b3818560208601620011f8565b620014be816200122e565b840191505092915050565b60006020820190508181036000830152620014e5818462001488565b905092915050565b7f455243313135353a207472616e7366657220746f206e6f6e204552433131353560008201527f526563656976657220696d706c656d656e746572000000000000000000000000602082015250565b60006200154b60348362000f55565b91506200155882620014ed565b604082019050919050565b600060208201905081810360008301526200157e816200153c565b9050919050565b7f455243313135353a204552433131353552656365697665722072656a6563746560008201527f6420746f6b656e73000000000000000000000000000000000000000000000000602082015250565b6000620015e360288362000f55565b9150620015f08262001585565b604082019050919050565b600060208201905081810360008301526200161681620015d4565b9050919050565b60006200162a8262000ffe565b9150620016378362000ffe565b9250828210156200164d576200164c62001008565b5b828203905092915050565b7f455243313135353a2062616c616e636520717565727920666f7220746865207a60008201527f65726f2061646472657373000000000000000000000000000000000000000000602082015250565b6000620016b6602b8362000f55565b9150620016c38262001658565b604082019050919050565b60006020820190508181036000830152620016e981620016a7565b9050919050565b7f4e487b7100000000000000000000000000000000000000000000000000000000600052602260045260246000fd5b600060028204905060018216806200173857607f821691505b602082108114156200174f576200174e620016f0565b5b50919050565b61572f80620017656000396000f3fe608060405234801561001057600080fd5b50600436106101ef5760003560e01c80638958a5de1161010f578063bd85b039116100a2578063ef890f7c11610071578063ef890f7c14610644578063f23a6e6114610660578063f242432a14610690578063ff669dfb146106ac576101ef565b8063bd85b03914610596578063e10fa0b2146105c6578063e6acd9b8146105f6578063e985e9c514610614576101ef565b8063a22cb465116100de578063a22cb465146104f7578063acb3149314610513578063af94e4a914610531578063bc197c8114610566576101ef565b80638958a5de1461045d5780638aa7a8b01461048d5780638fbf353f146104bd5780639711715a146104d9576101ef565b8063485cc9551161018757806361cbc3571161015657806361cbc357146103c0578063626da068146103dc5780638388f4131461040c578063884c8ffe14610428576101ef565b8063485cc955146103285780634e1273f4146103445780634f558e79146103745780635f938ad2146103a4576101ef565b80631644e0ff116101c35780631644e0ff146102a25780631b2ef1ca146102d25780632eb2c2d6146102ee578063368680491461030a576101ef565b8062fdd58e146101f457806301ffc9a7146102245780630e89341c14610254578063117803e314610284575b600080fd5b61020e600480360381019061020991906136b7565b6106dc565b60405161021b9190613706565b60405180910390f35b61023e60048036038101906102399190613779565b6107a5565b60405161024b91906137c1565b60405180910390f35b61026e600480360381019061026991906137dc565b610887565b60405161027b91906138a2565b60405180910390f35b61028c61091b565b60405161029991906138d3565b60405180910390f35b6102bc60048036038101906102b79190613a23565b610941565b6040516102c991906137c1565b60405180910390f35b6102ec60048036038101906102e79190613a6c565b610977565b005b61030860048036038101906103039190613c15565b610a4c565b005b610312610aed565b60405161031f91906138d3565b60405180910390f35b610342600480360381019061033d9190613ce4565b610b13565b005b61035e60048036038101906103599190613de7565b610d64565b60405161036b9190613f1d565b60405180910390f35b61038e600480360381019061038991906137dc565b610e7d565b60405161039b91906137c1565b60405180910390f35b6103be60048036038101906103b99190613f3f565b610e91565b005b6103da60048036038101906103d59190613f3f565b610f93565b005b6103f660048036038101906103f19190613fb7565b611095565b6040516104039190613706565b60405180910390f35b6104266004803603810190610421919061400a565b611118565b005b610442600480360381019061043d91906137dc565b611272565b60405161045496959493929190614085565b60405180910390f35b61047760048036038101906104729190613a23565b6113cb565b60405161048491906137c1565b60405180910390f35b6104a760048036038101906104a29190613a6c565b611401565b6040516104b49190613706565b60405180910390f35b6104d760048036038101906104d291906140f4565b611445565b005b6104e161164f565b6040516104ee9190613706565b60405180910390f35b610511600480360381019061050c9190614173565b6116ee565b005b61051b611704565b60405161052891906138d3565b60405180910390f35b61054b600480360381019061054691906137dc565b61172a565b60405161055d96959493929190614085565b60405180910390f35b610580600480360381019061057b9190614264565b611883565b60405161058d919061434f565b60405180910390f35b6105b060048036038101906105ab91906137dc565b6118b4565b6040516105bd9190613706565b60405180910390f35b6105e060048036038101906105db9190614438565b6118d1565b6040516105ed9190613706565b60405180910390f35b6105fe611a8d565b60405161060b9190613706565b60405180910390f35b61062e60048036038101906106299190613ce4565b611a92565b60405161063b91906137c1565b60405180910390f35b61065e60048036038101906106599190614494565b611b26565b005b61067a600480360381019061067591906144e7565b611c09565b604051610687919061434f565b60405180910390f35b6106aa60048036038101906106a59190614581565b611c38565b005b6106c660048036038101906106c19190614438565b611cd9565b6040516106d39190613706565b60405180910390f35b60008073ffffffffffffffffffffffffffffffffffffffff168373ffffffffffffffffffffffffffffffffffffffff16141561074d576040517f08c379a00000000000000000000000000000000000000000000000000000000081526004016107449061468a565b60405180910390fd5b60008083815260200190815260200160002060008473ffffffffffffffffffffffffffffffffffffffff1673ffffffffffffffffffffffffffffffffffffffff16815260200190815260200160002054905092915050565b60007fd9b67a26000000000000000000000000000000000000000000000000000000007bffffffffffffffffffffffffffffffffffffffffffffffffffffffff1916827bffffffffffffffffffffffffffffffffffffffffffffffffffffffff1916148061087057507f0e89341c000000000000000000000000000000000000000000000000000000007bffffffffffffffffffffffffffffffffffffffffffffffffffffffff1916827bffffffffffffffffffffffffffffffffffffffffffffffffffffffff1916145b80610880575061087f8261210e565b5b9050919050565b606060028054610896906146d9565b80601f01602080910402602001604051908101604052809291908181526020018280546108c2906146d9565b801561090f5780601f106108e45761010080835404028352916020019161090f565b820191906000526020600020905b8154815290600101906020018083116108f257829003601f168201915b50505050509050919050565b600b60009054906101000a900473ffffffffffffffffffffffffffffffffffffffff1681565b6011818051602081018201805184825260208301602085012081835280955050505050506000915054906101000a900460ff1681565b600a60009054906101000a900473ffffffffffffffffffffffffffffffffffffffff1673ffffffffffffffffffffffffffffffffffffffff163373ffffffffffffffffffffffffffffffffffffffff1614610a07576040517f08c379a00000000000000000000000000000000000000000000000000000000081526004016109fe9061477d565b60405180910390fd5b610a483083836040518060400160405280601181526020017f4e657720746f6b656e73206d696e746564000000000000000000000000000000815250612178565b5050565b610a5461230e565b73ffffffffffffffffffffffffffffffffffffffff168573ffffffffffffffffffffffffffffffffffffffff161480610a9a5750610a9985610a9461230e565b611a92565b5b610ad9576040517f08c379a0000000000000000000000000000000000000000000000000000000008152600401610ad09061480f565b60405180910390fd5b610ae68585858585612316565b5050505050565b600960009054906101000a900473ffffffffffffffffffffffffffffffffffffffff1681565b6000600760019054906101000a900460ff16159050808015610b4757506001600760009054906101000a900460ff1660ff16105b80610b765750610b563061262a565b158015610b7557506001600760009054906101000a900460ff1660ff16145b5b610bb5576040517f08c379a0000000000000000000000000000000000000000000000000000000008152600401610bac906148a1565b60405180910390fd5b6001600760006101000a81548160ff021916908360ff1602179055508015610bf3576001600760016101000a81548160ff0219169083151502179055505b600b60009054906101000a900473ffffffffffffffffffffffffffffffffffffffff1673ffffffffffffffffffffffffffffffffffffffff163373ffffffffffffffffffffffffffffffffffffffff1614610c83576040517f08c379a0000000000000000000000000000000000000000000000000000000008152600401610c7a9061477d565b60405180910390fd5b82600960006101000a81548173ffffffffffffffffffffffffffffffffffffffff021916908373ffffffffffffffffffffffffffffffffffffffff16021790555081600a60006101000a81548173ffffffffffffffffffffffffffffffffffffffff021916908373ffffffffffffffffffffffffffffffffffffffff1602179055508015610d5f576000600760016101000a81548160ff0219169083151502179055507f7f26b83ff96e1f2b6a682f133852f6798a09c465da95921460cefb38474024986001604051610d569190614913565b60405180910390a15b505050565b60608151835114610daa576040517f08c379a0000000000000000000000000000000000000000000000000000000008152600401610da1906149a0565b60405180910390fd5b6000835167ffffffffffffffff811115610dc757610dc66138f8565b5b604051908082528060200260200182016040528015610df55781602001602082028036833780820191505090505b50905060005b8451811015610e7257610e42858281518110610e1a57610e196149c0565b5b6020026020010151858381518110610e3557610e346149c0565b5b60200260200101516106dc565b828281518110610e5557610e546149c0565b5b60200260200101818152505080610e6b90614a1e565b9050610dfb565b508091505092915050565b600080610e89836118b4565b119050919050565b600a60009054906101000a900473ffffffffffffffffffffffffffffffffffffffff1673ffffffffffffffffffffffffffffffffffffffff163373ffffffffffffffffffffffffffffffffffffffff1614610f21576040517f08c379a0000000000000000000000000000000000000000000000000000000008152600401610f189061477d565b60405180910390fd5b6001601282604051610f339190614aa3565b908152602001604051809103902060006101000a81548160ff0219169083151502179055506001601183604051610f6a9190614aa3565b908152602001604051809103902060006101000a81548160ff0219169083151502179055505050565b600a60009054906101000a900473ffffffffffffffffffffffffffffffffffffffff1673ffffffffffffffffffffffffffffffffffffffff163373ffffffffffffffffffffffffffffffffffffffff1614611023576040517f08c379a000000000000000000000000000000000000000000000000000000000815260040161101a9061477d565b60405180910390fd5b60016012826040516110359190614aa3565b908152602001604051809103902060006101000a81548160ff021916908315150217905550600160118360405161106c9190614aa3565b908152602001604051809103902060006101000a81548160ff0219169083151502179055505050565b60008060006110f385600460008973ffffffffffffffffffffffffffffffffffffffff1673ffffffffffffffffffffffffffffffffffffffff168152602001908152602001600020600087815260200190815260200160002061264d565b915091508161110b5761110686856106dc565b61110d565b805b925050509392505050565b600a60009054906101000a900473ffffffffffffffffffffffffffffffffffffffff1673ffffffffffffffffffffffffffffffffffffffff163373ffffffffffffffffffffffffffffffffffffffff16146111a8576040517f08c379a000000000000000000000000000000000000000000000000000000000815260040161119f9061477d565b60405180910390fd5b6111b430336001612743565b60008211156111f0576111ef3086600f6000888152602001908152602001600020600501548560405180602001604052806000815250611c38565b5b600081111561122c5761122b308660106000888152602001908152602001600020600501548460405180602001604052806000815250611c38565b5b7fe0357d4bc70490bf81b58d93d7d3a12a646c486a071200201fd882cdf74c88d98585858585604051611263959493929190614aba565b60405180910390a15050505050565b600f60205280600052604060002060009150905080600001549080600101805461129b906146d9565b80601f01602080910402602001604051908101604052809291908181526020018280546112c7906146d9565b80156113145780601f106112e957610100808354040283529160200191611314565b820191906000526020600020905b8154815290600101906020018083116112f757829003601f168201915b505050505090806002018054611329906146d9565b80601f0160208091040260200160405190810160405280929190818152602001828054611355906146d9565b80156113a25780601f10611377576101008083540402835291602001916113a2565b820191906000526020600020905b81548152906001019060200180831161138557829003601f168201915b5050505050908060030154908060040160009054906101000a900460ff16908060050154905086565b6012818051602081018201805184825260208301602085012081835280955050505050506000915054906101000a900460ff1681565b6000806000611422856005600087815260200190815260200160002061264d565b915091508161143957611434846118b4565b61143b565b805b9250505092915050565b600a60009054906101000a900473ffffffffffffffffffffffffffffffffffffffff1673ffffffffffffffffffffffffffffffffffffffff163373ffffffffffffffffffffffffffffffffffffffff16146114d5576040517f08c379a00000000000000000000000000000000000000000000000000000000081526004016114cc9061477d565b60405180910390fd5b600115156010600085815260200190815260200160002060040160009054906101000a900460ff1615151480611532575060011515600f600085815260200190815260200160002060040160009054906101000a900460ff161515145b611571576040517f08c379a000000000000000000000000000000000000000000000000000000000815260040161156890614b59565b60405180910390fd5b81601060008581526020019081526020016000206005015414806115aa575081600f600085815260200190815260200160002060050154145b6115e9576040517f08c379a00000000000000000000000000000000000000000000000000000000081526004016115e090614bc5565b60405180910390fd5b61160d3083836040518060600160405280602381526020016156d760239139612178565b7f81e0b881b9c6ff93955a4a996cc01472b2cdc1a1663af072fa5ca7db7f127de2838342846040516116429493929190614be5565b60405180910390a1505050565b6000600a60009054906101000a900473ffffffffffffffffffffffffffffffffffffffff1673ffffffffffffffffffffffffffffffffffffffff163373ffffffffffffffffffffffffffffffffffffffff16146116e1576040517f08c379a00000000000000000000000000000000000000000000000000000000081526004016116d89061477d565b60405180910390fd5b6116e96128b0565b905090565b6117006116f961230e565b8383612743565b5050565b600a60009054906101000a900473ffffffffffffffffffffffffffffffffffffffff1681565b6010602052806000526040600020600091509050806000015490806001018054611753906146d9565b80601f016020809104026020016040519081016040528092919081815260200182805461177f906146d9565b80156117cc5780601f106117a1576101008083540402835291602001916117cc565b820191906000526020600020905b8154815290600101906020018083116117af57829003601f168201915b5050505050908060020180546117e1906146d9565b80601f016020809104026020016040519081016040528092919081815260200182805461180d906146d9565b801561185a5780601f1061182f5761010080835404028352916020019161185a565b820191906000526020600020905b81548152906001019060200180831161183d57829003601f168201915b5050505050908060030154908060040160009054906101000a900460ff16908060050154905086565b60007fbc197c819b3e337a6f9652dd10becd7eef83032af3b9d958d3d42f6694146621905098975050505050505050565b600060036000838152602001908152602001600020549050919050565b6000600a60009054906101000a900473ffffffffffffffffffffffffffffffffffffffff1673ffffffffffffffffffffffffffffffffffffffff163373ffffffffffffffffffffffffffffffffffffffff1614611963576040517f08c379a000000000000000000000000000000000000000000000000000000000815260040161195a9061477d565b60405180910390fd5b6000600c6040516020016119779190614cbe565b604051602081830303815290604052905080846060015160405160200161199f929190614d1c565b604051602081830303815290604052846060018190525050600860008154809291906119ca90614a1e565b9190505550600060085490506119f18482600e60019054906101000a900460ff1686612906565b600f600086600001518152602001908152602001600020600082015181600001556020820151816001019080519060200190611a2e929190613534565b506040820151816002019080519060200190611a4b929190613534565b506060820151816003015560808201518160040160006101000a81548160ff02191690831515021790555060a082015181600501559050508091505092915050565b600181565b6000600160008473ffffffffffffffffffffffffffffffffffffffff1673ffffffffffffffffffffffffffffffffffffffff16815260200190815260200160002060008373ffffffffffffffffffffffffffffffffffffffff1673ffffffffffffffffffffffffffffffffffffffff16815260200190815260200160002060009054906101000a900460ff16905092915050565b600a60009054906101000a900473ffffffffffffffffffffffffffffffffffffffff1673ffffffffffffffffffffffffffffffffffffffff163373ffffffffffffffffffffffffffffffffffffffff1614611bb6576040517f08c379a0000000000000000000000000000000000000000000000000000000008152600401611bad9061477d565b60405180910390fd5b611bc230336001612743565b611c04308285856040518060400160405280601581526020017f5245434f52445f544f4b454e5f5452414e534645520000000000000000000000815250611c38565b505050565b60007ff23a6e612e1ff4830e658fe43f4e3cb4a5f8170bd5d9e69fb5d7a7fa9e4fdf9790509695505050505050565b611c4061230e565b73ffffffffffffffffffffffffffffffffffffffff168573ffffffffffffffffffffffffffffffffffffffff161480611c865750611c8585611c8061230e565b611a92565b5b611cc5576040517f08c379a0000000000000000000000000000000000000000000000000000000008152600401611cbc90614db2565b60405180910390fd5b611cd28585858585612a0a565b5050505050565b6000600a60009054906101000a900473ffffffffffffffffffffffffffffffffffffffff1673ffffffffffffffffffffffffffffffffffffffff163373ffffffffffffffffffffffffffffffffffffffff1614611d6b576040517f08c379a0000000000000000000000000000000000000000000000000000000008152600401611d629061477d565b60405180910390fd5b6000600d604051602001611d7f9190614cbe565b6040516020818303038152906040529050808460600151604051602001611da7929190614d1c565b60405160208183030381529060405284606001819052505060086000815480929190611dd290614a1e565b919050555060006008549050611df98482600e60009054906101000a900460ff1686612906565b6010600086600001518152602001908152602001600020600082015181600001556020820151816001019080519060200190611e36929190613534565b506040820151816002019080519060200190611e53929190613534565b506060820151816003015560808201518160040160006101000a81548160ff02191690831515021790555060a082015181600501559050508091505092915050565b600073ffffffffffffffffffffffffffffffffffffffff168573ffffffffffffffffffffffffffffffffffffffff161415611ee257611ed48484612c8c565b611edd83612d46565b611f45565b600073ffffffffffffffffffffffffffffffffffffffff168473ffffffffffffffffffffffffffffffffffffffff161415611f2f57611f218584612c8c565b611f2a83612d46565b611f44565b611f398584612c8c565b611f438484612c8c565b5b5b611f53868686868686611f7e565b505050505050565b6000808273ffffffffffffffffffffffffffffffffffffffff163b119050919050565b611f8c8686868686866120f8565b600073ffffffffffffffffffffffffffffffffffffffff168573ffffffffffffffffffffffffffffffffffffffff16141561203e5760005b835181101561203c57828181518110611fe057611fdf6149c0565b5b602002602001015160036000868481518110611fff57611ffe6149c0565b5b6020026020010151815260200190815260200160002060008282546120249190614dd2565b925050819055508061203590614a1e565b9050611fc4565b505b600073ffffffffffffffffffffffffffffffffffffffff168473ffffffffffffffffffffffffffffffffffffffff1614156120f05760005b83518110156120ee57828181518110612092576120916149c0565b5b6020026020010151600360008684815181106120b1576120b06149c0565b5b6020026020010151815260200190815260200160002060008282546120d69190614e28565b92505081905550806120e790614a1e565b9050612076565b505b505050505050565b505050505050565b600081600001549050919050565b60007f01ffc9a7000000000000000000000000000000000000000000000000000000007bffffffffffffffffffffffffffffffffffffffffffffffffffffffff1916827bffffffffffffffffffffffffffffffffffffffffffffffffffffffff1916149050919050565b600073ffffffffffffffffffffffffffffffffffffffff168473ffffffffffffffffffffffffffffffffffffffff1614156121e8576040517f08c379a00000000000000000000000000000000000000000000000000000000081526004016121df90614ece565b60405180910390fd5b60006121f261230e565b90506122138160008761220488612dc1565b61220d88612dc1565b87612e3b565b8260008086815260200190815260200160002060008773ffffffffffffffffffffffffffffffffffffffff1673ffffffffffffffffffffffffffffffffffffffff16815260200190815260200160002060008282546122729190614dd2565b925050819055508473ffffffffffffffffffffffffffffffffffffffff16600073ffffffffffffffffffffffffffffffffffffffff168273ffffffffffffffffffffffffffffffffffffffff167fc3d58168c5ae7397731d063d5bbf3d657854427343f4c083240f7aacaa2d0f6287876040516122f0929190614eee565b60405180910390a461230781600087878787612f95565b5050505050565b600033905090565b815183511461235a576040517f08c379a000000000000000000000000000000000000000000000000000000000815260040161235190614f89565b60405180910390fd5b600073ffffffffffffffffffffffffffffffffffffffff168473ffffffffffffffffffffffffffffffffffffffff1614156123ca576040517f08c379a00000000000000000000000000000000000000000000000000000000081526004016123c19061501b565b60405180910390fd5b60006123d461230e565b90506123e4818787878787612e3b565b60005b8451811015612595576000858281518110612405576124046149c0565b5b602002602001015190506000858381518110612424576124236149c0565b5b60200260200101519050600080600084815260200190815260200160002060008b73ffffffffffffffffffffffffffffffffffffffff1673ffffffffffffffffffffffffffffffffffffffff168152602001908152602001600020549050818110156124c5576040517f08c379a00000000000000000000000000000000000000000000000000000000081526004016124bc906150ad565b60405180910390fd5b81810360008085815260200190815260200160002060008c73ffffffffffffffffffffffffffffffffffffffff1673ffffffffffffffffffffffffffffffffffffffff168152602001908152602001600020819055508160008085815260200190815260200160002060008b73ffffffffffffffffffffffffffffffffffffffff1673ffffffffffffffffffffffffffffffffffffffff168152602001908152602001600020600082825461257a9190614dd2565b925050819055505050508061258e90614a1e565b90506123e7565b508473ffffffffffffffffffffffffffffffffffffffff168673ffffffffffffffffffffffffffffffffffffffff168273ffffffffffffffffffffffffffffffffffffffff167f4a39dc06d4c0dbc64b70af90fd698a233a518aa5d07e595d983b8c0526c8f7fb878760405161260c9291906150cd565b60405180910390a461262281878787878761316d565b505050505050565b6000808273ffffffffffffffffffffffffffffffffffffffff163b119050919050565b60008060008411612693576040517f08c379a000000000000000000000000000000000000000000000000000000000815260040161268a90615150565b60405180910390fd5b61269b613345565b8411156126dd576040517f08c379a00000000000000000000000000000000000000000000000000000000081526004016126d4906151bc565b60405180910390fd5b60006126f5858560000161335690919063ffffffff16565b9050836000018054905081141561271357600080925092505061273c565b600184600101828154811061272b5761272a6149c0565b5b906000526020600020015492509250505b9250929050565b8173ffffffffffffffffffffffffffffffffffffffff168373ffffffffffffffffffffffffffffffffffffffff1614156127b2576040517f08c379a00000000000000000000000000000000000000000000000000000000081526004016127a99061524e565b60405180910390fd5b80600160008573ffffffffffffffffffffffffffffffffffffffff1673ffffffffffffffffffffffffffffffffffffffff16815260200190815260200160002060008473ffffffffffffffffffffffffffffffffffffffff1673ffffffffffffffffffffffffffffffffffffffff16815260200190815260200160002060006101000a81548160ff0219169083151502179055508173ffffffffffffffffffffffffffffffffffffffff168373ffffffffffffffffffffffffffffffffffffffff167f17307eab39ab6107e8899845ad3d59bd9653f200f220920489ca2b5937696c31836040516128a391906137c1565b60405180910390a3505050565b60006128bc6006613430565b60006128c6613345565b90507f8030e83b04d87bef53480e26263266d6ca66863aa8506aca6f2559d18aa1cb67816040516128f79190613706565b60405180910390a18091505090565b61290e6135ba565b6000856040015186602001516129249190614e28565b905060008660400151905061294a30878460405180602001604052806000815250612178565b61296584878360405180602001604052806000815250612178565b60006040518060c001604052808960000151815260200189606001518152602001896080015181526020014281526020016001151581526020018881525090507f49debfc18817e7e3ec2948391bcc3a87349b3c716f7d470d223bfbf8928aa65a886000015189606001518a6080015184606001518c602001518c8c6040516129f4979695949392919061527d565b60405180910390a1809350505050949350505050565b600073ffffffffffffffffffffffffffffffffffffffff168473ffffffffffffffffffffffffffffffffffffffff161415612a7a576040517f08c379a0000000000000000000000000000000000000000000000000000000008152600401612a719061501b565b60405180910390fd5b6000612a8461230e565b9050612aa4818787612a9588612dc1565b612a9e88612dc1565b87612e3b565b600080600086815260200190815260200160002060008873ffffffffffffffffffffffffffffffffffffffff1673ffffffffffffffffffffffffffffffffffffffff16815260200190815260200160002054905083811015612b3b576040517f08c379a0000000000000000000000000000000000000000000000000000000008152600401612b32906150ad565b60405180910390fd5b83810360008087815260200190815260200160002060008973ffffffffffffffffffffffffffffffffffffffff1673ffffffffffffffffffffffffffffffffffffffff168152602001908152602001600020819055508360008087815260200190815260200160002060008873ffffffffffffffffffffffffffffffffffffffff1673ffffffffffffffffffffffffffffffffffffffff1681526020019081526020016000206000828254612bf09190614dd2565b925050819055508573ffffffffffffffffffffffffffffffffffffffff168773ffffffffffffffffffffffffffffffffffffffff168373ffffffffffffffffffffffffffffffffffffffff167fc3d58168c5ae7397731d063d5bbf3d657854427343f4c083240f7aacaa2d0f628888604051612c6d929190614eee565b60405180910390a4612c83828888888888612f95565b50505050505050565b60005b8151811015612d4157612d2e600460008573ffffffffffffffffffffffffffffffffffffffff1673ffffffffffffffffffffffffffffffffffffffff1681526020019081526020016000206000848481518110612cef57612cee6149c0565b5b60200260200101518152602001908152602001600020612d2985858581518110612d1c57612d1b6149c0565b5b60200260200101516106dc565b613446565b8080612d3990614a1e565b915050612c8f565b505050565b60005b8151811015612dbd57612daa60056000848481518110612d6c57612d6b6149c0565b5b60200260200101518152602001908152602001600020612da5848481518110612d9857612d976149c0565b5b60200260200101516118b4565b613446565b8080612db590614a1e565b915050612d49565b5050565b60606000600167ffffffffffffffff811115612de057612ddf6138f8565b5b604051908082528060200260200182016040528015612e0e5781602001602082028036833780820191505090505b5090508281600081518110612e2657612e256149c0565b5b60200260200101818152505080915050919050565b600073ffffffffffffffffffffffffffffffffffffffff16600960009054906101000a900473ffffffffffffffffffffffffffffffffffffffff1673ffffffffffffffffffffffffffffffffffffffff1614612f7f576000600960009054906101000a900473ffffffffffffffffffffffffffffffffffffffff16905060005b8451811015612f7c578173ffffffffffffffffffffffffffffffffffffffff16631de841ba8888878581518110612ef557612ef46149c0565b5b6020026020010151898681518110612f1057612f0f6149c0565b5b60200260200101516040518563ffffffff1660e01b8152600401612f3794939291906152fa565b600060405180830381600087803b158015612f5157600080fd5b505af1158015612f65573d6000803e3d6000fd5b505050508080612f7490614a1e565b915050612ebb565b50505b612f8d868686868686611e95565b505050505050565b612fb48473ffffffffffffffffffffffffffffffffffffffff16611f5b565b15613165578373ffffffffffffffffffffffffffffffffffffffff1663f23a6e6187878686866040518663ffffffff1660e01b8152600401612ffa959493929190615389565b6020604051808303816000875af192505050801561303657506040513d601f19601f8201168201806040525081019061303391906153f8565b60015b6130dc57613042615432565b806308c379a0141561309f5750613057615454565b8061306257506130a1565b806040517f08c379a000000000000000000000000000000000000000000000000000000000815260040161309691906138a2565b60405180910390fd5b505b6040517f08c379a00000000000000000000000000000000000000000000000000000000081526004016130d39061555c565b60405180910390fd5b63f23a6e6160e01b7bffffffffffffffffffffffffffffffffffffffffffffffffffffffff1916817bffffffffffffffffffffffffffffffffffffffffffffffffffffffff191614613163576040517f08c379a000000000000000000000000000000000000000000000000000000000815260040161315a906155ee565b60405180910390fd5b505b505050505050565b61318c8473ffffffffffffffffffffffffffffffffffffffff16611f5b565b1561333d578373ffffffffffffffffffffffffffffffffffffffff1663bc197c8187878686866040518663ffffffff1660e01b81526004016131d295949392919061560e565b6020604051808303816000875af192505050801561320e57506040513d601f19601f8201168201806040525081019061320b91906153f8565b60015b6132b45761321a615432565b806308c379a01415613277575061322f615454565b8061323a5750613279565b806040517f08c379a000000000000000000000000000000000000000000000000000000000815260040161326e91906138a2565b60405180910390fd5b505b6040517f08c379a00000000000000000000000000000000000000000000000000000000081526004016132ab9061555c565b60405180910390fd5b63bc197c8160e01b7bffffffffffffffffffffffffffffffffffffffffffffffffffffffff1916817bffffffffffffffffffffffffffffffffffffffffffffffffffffffff19161461333b576040517f08c379a0000000000000000000000000000000000000000000000000000000008152600401613332906155ee565b60405180910390fd5b505b505050505050565b60006133516006612100565b905090565b6000808380549050141561336d576000905061342a565b600080848054905090505b808210156133d157600061338c83836134c1565b9050848682815481106133a2576133a16149c0565b5b906000526020600020015411156133bb578091506133cb565b6001816133c89190614dd2565b92505b50613378565b600082118015613409575083856001846133eb9190614e28565b815481106133fc576133fb6149c0565b5b9060005260206000200154145b156134245760018261341b9190614e28565b9250505061342a565b81925050505b92915050565b6001816000016000828254019250508190555050565b6000613450613345565b90508061345f846000016134e7565b10156134bc5782600001819080600181540180825580915050600190039060005260206000200160009091909190915055826001018290806001815401808255809150506001900390600052602060002001600090919091909150555b505050565b600060028284186134d291906156a5565b8284166134df9190614dd2565b905092915050565b600080828054905014156134fe576000905061352f565b81600183805490506135109190614e28565b81548110613521576135206149c0565b5b906000526020600020015490505b919050565b828054613540906146d9565b90600052602060002090601f01602090048101928261356257600085556135a9565b82601f1061357b57805160ff19168380011785556135a9565b828001600101855582156135a9579182015b828111156135a857825182559160200191906001019061358d565b5b5090506135b691906135f2565b5090565b6040518060c0016040528060008152602001606081526020016060815260200160008152602001600015158152602001600081525090565b5b8082111561360b5760008160009055506001016135f3565b5090565b6000604051905090565b600080fd5b600080fd5b600073ffffffffffffffffffffffffffffffffffffffff82169050919050565b600061364e82613623565b9050919050565b61365e81613643565b811461366957600080fd5b50565b60008135905061367b81613655565b92915050565b6000819050919050565b61369481613681565b811461369f57600080fd5b50565b6000813590506136b18161368b565b92915050565b600080604083850312156136ce576136cd613619565b5b60006136dc8582860161366c565b92505060206136ed858286016136a2565b9150509250929050565b61370081613681565b82525050565b600060208201905061371b60008301846136f7565b92915050565b60007fffffffff0000000000000000000000000000000000000000000000000000000082169050919050565b61375681613721565b811461376157600080fd5b50565b6000813590506137738161374d565b92915050565b60006020828403121561378f5761378e613619565b5b600061379d84828501613764565b91505092915050565b60008115159050919050565b6137bb816137a6565b82525050565b60006020820190506137d660008301846137b2565b92915050565b6000602082840312156137f2576137f1613619565b5b6000613800848285016136a2565b91505092915050565b600081519050919050565b600082825260208201905092915050565b60005b83811015613843578082015181840152602081019050613828565b83811115613852576000848401525b50505050565b6000601f19601f8301169050919050565b600061387482613809565b61387e8185613814565b935061388e818560208601613825565b61389781613858565b840191505092915050565b600060208201905081810360008301526138bc8184613869565b905092915050565b6138cd81613643565b82525050565b60006020820190506138e860008301846138c4565b92915050565b600080fd5b600080fd5b7f4e487b7100000000000000000000000000000000000000000000000000000000600052604160045260246000fd5b61393082613858565b810181811067ffffffffffffffff8211171561394f5761394e6138f8565b5b80604052505050565b600061396261360f565b905061396e8282613927565b919050565b600067ffffffffffffffff82111561398e5761398d6138f8565b5b61399782613858565b9050602081019050919050565b82818337600083830152505050565b60006139c66139c184613973565b613958565b9050828152602081018484840111156139e2576139e16138f3565b5b6139ed8482856139a4565b509392505050565b600082601f830112613a0a57613a096138ee565b5b8135613a1a8482602086016139b3565b91505092915050565b600060208284031215613a3957613a38613619565b5b600082013567ffffffffffffffff811115613a5757613a5661361e565b5b613a63848285016139f5565b91505092915050565b60008060408385031215613a8357613a82613619565b5b6000613a91858286016136a2565b9250506020613aa2858286016136a2565b9150509250929050565b600067ffffffffffffffff821115613ac757613ac66138f8565b5b602082029050602081019050919050565b600080fd5b6000613af0613aeb84613aac565b613958565b90508083825260208201905060208402830185811115613b1357613b12613ad8565b5b835b81811015613b3c5780613b2888826136a2565b845260208401935050602081019050613b15565b5050509392505050565b600082601f830112613b5b57613b5a6138ee565b5b8135613b6b848260208601613add565b91505092915050565b600067ffffffffffffffff821115613b8f57613b8e6138f8565b5b613b9882613858565b9050602081019050919050565b6000613bb8613bb384613b74565b613958565b905082815260208101848484011115613bd457613bd36138f3565b5b613bdf8482856139a4565b509392505050565b600082601f830112613bfc57613bfb6138ee565b5b8135613c0c848260208601613ba5565b91505092915050565b600080600080600060a08688031215613c3157613c30613619565b5b6000613c3f8882890161366c565b9550506020613c508882890161366c565b945050604086013567ffffffffffffffff811115613c7157613c7061361e565b5b613c7d88828901613b46565b935050606086013567ffffffffffffffff811115613c9e57613c9d61361e565b5b613caa88828901613b46565b925050608086013567ffffffffffffffff811115613ccb57613cca61361e565b5b613cd788828901613be7565b9150509295509295909350565b60008060408385031215613cfb57613cfa613619565b5b6000613d098582860161366c565b9250506020613d1a8582860161366c565b9150509250929050565b600067ffffffffffffffff821115613d3f57613d3e6138f8565b5b602082029050602081019050919050565b6000613d63613d5e84613d24565b613958565b90508083825260208201905060208402830185811115613d8657613d85613ad8565b5b835b81811015613daf5780613d9b888261366c565b845260208401935050602081019050613d88565b5050509392505050565b600082601f830112613dce57613dcd6138ee565b5b8135613dde848260208601613d50565b91505092915050565b60008060408385031215613dfe57613dfd613619565b5b600083013567ffffffffffffffff811115613e1c57613e1b61361e565b5b613e2885828601613db9565b925050602083013567ffffffffffffffff811115613e4957613e4861361e565b5b613e5585828601613b46565b9150509250929050565b600081519050919050565b600082825260208201905092915050565b6000819050602082019050919050565b613e9481613681565b82525050565b6000613ea68383613e8b565b60208301905092915050565b6000602082019050919050565b6000613eca82613e5f565b613ed48185613e6a565b9350613edf83613e7b565b8060005b83811015613f10578151613ef78882613e9a565b9750613f0283613eb2565b925050600181019050613ee3565b5085935050505092915050565b60006020820190508181036000830152613f378184613ebf565b905092915050565b60008060408385031215613f5657613f55613619565b5b600083013567ffffffffffffffff811115613f7457613f7361361e565b5b613f80858286016139f5565b925050602083013567ffffffffffffffff811115613fa157613fa061361e565b5b613fad858286016139f5565b9150509250929050565b600080600060608486031215613fd057613fcf613619565b5b6000613fde8682870161366c565b9350506020613fef868287016136a2565b9250506040614000868287016136a2565b9150509250925092565b600080600080600060a0868803121561402657614025613619565b5b60006140348882890161366c565b9550506020614045888289016136a2565b9450506040614056888289016136a2565b9350506060614067888289016136a2565b9250506080614078888289016136a2565b9150509295509295909350565b600060c08201905061409a60008301896136f7565b81810360208301526140ac8188613869565b905081810360408301526140c08187613869565b90506140cf60608301866136f7565b6140dc60808301856137b2565b6140e960a08301846136f7565b979650505050505050565b60008060006060848603121561410d5761410c613619565b5b600061411b868287016136a2565b935050602061412c868287016136a2565b925050604061413d868287016136a2565b9150509250925092565b614150816137a6565b811461415b57600080fd5b50565b60008135905061416d81614147565b92915050565b6000806040838503121561418a57614189613619565b5b60006141988582860161366c565b92505060206141a98582860161415e565b9150509250929050565b600080fd5b60008083601f8401126141ce576141cd6138ee565b5b8235905067ffffffffffffffff8111156141eb576141ea6141b3565b5b60208301915083602082028301111561420757614206613ad8565b5b9250929050565b60008083601f840112614224576142236138ee565b5b8235905067ffffffffffffffff811115614241576142406141b3565b5b60208301915083600182028301111561425d5761425c613ad8565b5b9250929050565b60008060008060008060008060a0898b03121561428457614283613619565b5b60006142928b828c0161366c565b98505060206142a38b828c0161366c565b975050604089013567ffffffffffffffff8111156142c4576142c361361e565b5b6142d08b828c016141b8565b9650965050606089013567ffffffffffffffff8111156142f3576142f261361e565b5b6142ff8b828c016141b8565b9450945050608089013567ffffffffffffffff8111156143225761432161361e565b5b61432e8b828c0161420e565b92509250509295985092959890939650565b61434981613721565b82525050565b60006020820190506143646000830184614340565b92915050565b600080fd5b600080fd5b600060a0828403121561438a5761438961436a565b5b61439460a0613958565b905060006143a4848285016136a2565b60008301525060206143b8848285016136a2565b60208301525060406143cc848285016136a2565b604083015250606082013567ffffffffffffffff8111156143f0576143ef61436f565b5b6143fc848285016139f5565b606083015250608082013567ffffffffffffffff8111156144205761441f61436f565b5b61442c848285016139f5565b60808301525092915050565b6000806040838503121561444f5761444e613619565b5b600083013567ffffffffffffffff81111561446d5761446c61361e565b5b61447985828601614374565b925050602061448a8582860161366c565b9150509250929050565b6000806000606084860312156144ad576144ac613619565b5b60006144bb868287016136a2565b93505060206144cc868287016136a2565b92505060406144dd8682870161366c565b9150509250925092565b60008060008060008060a0878903121561450457614503613619565b5b600061451289828a0161366c565b965050602061452389828a0161366c565b955050604061453489828a016136a2565b945050606061454589828a016136a2565b935050608087013567ffffffffffffffff8111156145665761456561361e565b5b61457289828a0161420e565b92509250509295509295509295565b600080600080600060a0868803121561459d5761459c613619565b5b60006145ab8882890161366c565b95505060206145bc8882890161366c565b94505060406145cd888289016136a2565b93505060606145de888289016136a2565b925050608086013567ffffffffffffffff8111156145ff576145fe61361e565b5b61460b88828901613be7565b9150509295509295909350565b7f455243313135353a2062616c616e636520717565727920666f7220746865207a60008201527f65726f2061646472657373000000000000000000000000000000000000000000602082015250565b6000614674602b83613814565b915061467f82614618565b604082019050919050565b600060208201905081810360008301526146a381614667565b9050919050565b7f4e487b7100000000000000000000000000000000000000000000000000000000600052602260045260246000fd5b600060028204905060018216806146f157607f821691505b60208210811415614705576147046146aa565b5b50919050565b7f554e415554484f52495a45443a2043414e4e4f545f504552464f524d5f41435460008201527f494f4e0000000000000000000000000000000000000000000000000000000000602082015250565b6000614767602383613814565b91506147728261470b565b604082019050919050565b600060208201905081810360008301526147968161475a565b9050919050565b7f455243313135353a207472616e736665722063616c6c6572206973206e6f742060008201527f6f776e6572206e6f7220617070726f7665640000000000000000000000000000602082015250565b60006147f9603283613814565b91506148048261479d565b604082019050919050565b60006020820190508181036000830152614828816147ec565b9050919050565b7f496e697469616c697a61626c653a20636f6e747261637420697320616c72656160008201527f647920696e697469616c697a6564000000000000000000000000000000000000602082015250565b600061488b602e83613814565b91506148968261482f565b604082019050919050565b600060208201905081810360008301526148ba8161487e565b9050919050565b6000819050919050565b600060ff82169050919050565b6000819050919050565b60006148fd6148f86148f3846148c1565b6148d8565b6148cb565b9050919050565b61490d816148e2565b82525050565b60006020820190506149286000830184614904565b92915050565b7f455243313135353a206163636f756e747320616e6420696473206c656e67746860008201527f206d69736d617463680000000000000000000000000000000000000000000000602082015250565b600061498a602983613814565b91506149958261492e565b604082019050919050565b600060208201905081810360008301526149b98161497d565b9050919050565b7f4e487b7100000000000000000000000000000000000000000000000000000000600052603260045260246000fd5b7f4e487b7100000000000000000000000000000000000000000000000000000000600052601160045260246000fd5b6000614a2982613681565b91507fffffffffffffffffffffffffffffffffffffffffffffffffffffffffffffffff821415614a5c57614a5b6149ef565b5b600182019050919050565b600081905092915050565b6000614a7d82613809565b614a878185614a67565b9350614a97818560208601613825565b80840191505092915050565b6000614aaf8284614a72565b915081905092915050565b600060a082019050614acf60008301886138c4565b614adc60208301876136f7565b614ae960408301866136f7565b614af660608301856136f7565b614b0360808301846136f7565b9695505050505050565b7f494e56414c49443a2057524f4e475f5245434f52445f49440000000000000000600082015250565b6000614b43601883613814565b9150614b4e82614b0d565b602082019050919050565b60006020820190508181036000830152614b7281614b36565b9050919050565b7f494e56414c49443a2057524f4e475f544f4b454e5f4944000000000000000000600082015250565b6000614baf601783613814565b9150614bba82614b79565b602082019050919050565b60006020820190508181036000830152614bde81614ba2565b9050919050565b6000608082019050614bfa60008301876136f7565b614c0760208301866136f7565b614c1460408301856136f7565b614c2160608301846136f7565b95945050505050565b60008190508160005260206000209050919050565b60008154614c4c816146d9565b614c568186614a67565b94506001821660008114614c715760018114614c8257614cb5565b60ff19831686528186019350614cb5565b614c8b85614c2a565b60005b83811015614cad57815481890152600182019150602081019050614c8e565b838801955050505b50505092915050565b6000614cca8284614c3f565b915081905092915050565b600081519050919050565b600081905092915050565b6000614cf682614cd5565b614d008185614ce0565b9350614d10818560208601613825565b80840191505092915050565b6000614d288285614ceb565b9150614d348284614a72565b91508190509392505050565b7f455243313135353a2063616c6c6572206973206e6f74206f776e6572206e6f7260008201527f20617070726f7665640000000000000000000000000000000000000000000000602082015250565b6000614d9c602983613814565b9150614da782614d40565b604082019050919050565b60006020820190508181036000830152614dcb81614d8f565b9050919050565b6000614ddd82613681565b9150614de883613681565b9250827fffffffffffffffffffffffffffffffffffffffffffffffffffffffffffffffff03821115614e1d57614e1c6149ef565b5b828201905092915050565b6000614e3382613681565b9150614e3e83613681565b925082821015614e5157614e506149ef565b5b828203905092915050565b7f455243313135353a206d696e7420746f20746865207a65726f2061646472657360008201527f7300000000000000000000000000000000000000000000000000000000000000602082015250565b6000614eb8602183613814565b9150614ec382614e5c565b604082019050919050565b60006020820190508181036000830152614ee781614eab565b9050919050565b6000604082019050614f0360008301856136f7565b614f1060208301846136f7565b9392505050565b7f455243313135353a2069647320616e6420616d6f756e7473206c656e6774682060008201527f6d69736d61746368000000000000000000000000000000000000000000000000602082015250565b6000614f73602883613814565b9150614f7e82614f17565b604082019050919050565b60006020820190508181036000830152614fa281614f66565b9050919050565b7f455243313135353a207472616e7366657220746f20746865207a65726f20616460008201527f6472657373000000000000000000000000000000000000000000000000000000602082015250565b6000615005602583613814565b915061501082614fa9565b604082019050919050565b6000602082019050818103600083015261503481614ff8565b9050919050565b7f455243313135353a20696e73756666696369656e742062616c616e636520666f60008201527f72207472616e7366657200000000000000000000000000000000000000000000602082015250565b6000615097602a83613814565b91506150a28261503b565b604082019050919050565b600060208201905081810360008301526150c68161508a565b9050919050565b600060408201905081810360008301526150e78185613ebf565b905081810360208301526150fb8184613ebf565b90509392505050565b7f4552433230536e617073686f743a206964206973203000000000000000000000600082015250565b600061513a601683613814565b915061514582615104565b602082019050919050565b600060208201905081810360008301526151698161512d565b9050919050565b7f4552433230536e617073686f743a206e6f6e6578697374656e74206964000000600082015250565b60006151a6601d83613814565b91506151b182615170565b602082019050919050565b600060208201905081810360008301526151d581615199565b9050919050565b7f455243313135353a2073657474696e6720617070726f76616c2073746174757360008201527f20666f722073656c660000000000000000000000000000000000000000000000602082015250565b6000615238602983613814565b9150615243826151dc565b604082019050919050565b600060208201905081810360008301526152678161522b565b9050919050565b615277816148cb565b82525050565b600060e082019050615292600083018a6136f7565b81810360208301526152a48189613869565b905081810360408301526152b88188613869565b90506152c760608301876136f7565b6152d460808301866136f7565b6152e160a08301856136f7565b6152ee60c083018461526e565b98975050505050505050565b600060808201905061530f60008301876138c4565b61531c60208301866138c4565b61532960408301856136f7565b61533660608301846136f7565b95945050505050565b600082825260208201905092915050565b600061535b82614cd5565b615365818561533f565b9350615375818560208601613825565b61537e81613858565b840191505092915050565b600060a08201905061539e60008301886138c4565b6153ab60208301876138c4565b6153b860408301866136f7565b6153c560608301856136f7565b81810360808301526153d78184615350565b90509695505050505050565b6000815190506153f28161374d565b92915050565b60006020828403121561540e5761540d613619565b5b600061541c848285016153e3565b91505092915050565b60008160e01c9050919050565b600060033d11156154515760046000803e61544e600051615425565b90505b90565b600060443d1015615464576154e7565b61546c61360f565b60043d036004823e80513d602482011167ffffffffffffffff821117156154945750506154e7565b808201805167ffffffffffffffff8111156154b257505050506154e7565b80602083010160043d0385018111156154cf5750505050506154e7565b6154de82602001850186613927565b82955050505050505b90565b7f455243313135353a207472616e7366657220746f206e6f6e204552433131353560008201527f526563656976657220696d706c656d656e746572000000000000000000000000602082015250565b6000615546603483613814565b9150615551826154ea565b604082019050919050565b6000602082019050818103600083015261557581615539565b9050919050565b7f455243313135353a204552433131353552656365697665722072656a6563746560008201527f6420746f6b656e73000000000000000000000000000000000000000000000000602082015250565b60006155d8602883613814565b91506155e38261557c565b604082019050919050565b60006020820190508181036000830152615607816155cb565b9050919050565b600060a08201905061562360008301886138c4565b61563060208301876138c4565b81810360408301526156428186613ebf565b905081810360608301526156568185613ebf565b9050818103608083015261566a8184615350565b90509695505050505050565b7f4e487b7100000000000000000000000000000000000000000000000000000000600052601260045260246000fd5b60006156b082613681565b91506156bb83613681565b9250826156cb576156ca615676565b5b82820490509291505056fe546f6b656e206d696e746564207468726f75676820766f74696e672070726f63657373a264697066735822122075df35e95cc09f0312067135b8db43abdaa08024cc7b6c18ef79df7d0884ad1364736f6c634300080c0033",
  "immutableReferences": {},
  "source": "pragma solidity ^0.8.0;\n\nimport \"@openzeppelin/contracts/token/ERC1155/ERC1155.sol\";\nimport \"@openzeppelin/contracts/token/ERC1155/IERC1155Receiver.sol\";\nimport \"@openzeppelin/contracts/token/ERC1155/extensions/ERC1155Supply.sol\";\nimport \"@openzeppelin/contracts/utils/Counters.sol\";\nimport \"@openzeppelin/contracts/access/Ownable.sol\";\nimport \"@openzeppelin/contracts-upgradeable/proxy/utils/Initializable.sol\";\nimport \"../interface/IRecords.sol\";\nimport \"../ERC1155/SnapshotERC1155.sol\";\nimport \"@openzeppelin/contracts/utils/math/SafeMath.sol\";\nimport \"../voting/VotingHubContract.sol\";\n\ncontract TreasuryCoreContract is\n    IERC1155Receiver,\n    SnapshotERC1155,\n    Initializable\n{\n    uint256 public constant CRD = 1;\n    uint256 private LastTokenId = 1;\n    address public VOTING_HUB_ADDRESS;\n    address public TREASURY_CONTRACT_ADDRESS;\n    address public OWNER;\n    string private PREFIX_GOVERNANCE = \"CRDG_\";\n    string private PREFIX_COMMUNITY = \"CRD_\";\n    uint8 private TOKEN_TYPE_COMMUNITY = 0;\n    uint8 private TOKEN_TYPE_GOVERNANCE = 1;\n\n    /// @dev This structure will store information of tokens for each records\n    /// @param recordId This is the id of record to which a token belongs\n    /// @param symbol This is the symbol of a token\n    /// @param image This is the token image\n    /// @param creationDate This is the block number of creation date\n    /// @param isPresent This is to check if a token struct exists or not\n    /// @param tokenId This is the id of the token that is created\n    struct Token {\n        uint256 recordId;\n        string symbol;\n        string image;\n        uint256 creationDate;\n        bool isPresent;\n        uint256 tokenId;\n    }\n\n    /// @dev This structure will store information of the contribution\n    /// @param recordId This is the id of the record to which contribution belongs to\n    /// @param totalSupply Total supply of token\n    /// @param userBalance The amount of tokens that goes into creators wallet\n    /// @param symbol This is the symbol of the token\n    /// @param image This is the link of the image / icon of the token\n    struct NewTokenData {\n        uint256 recordId;\n        uint256 totalSupply;\n        uint256 userBalance;\n        string symbol;\n        string image;\n    }\n\n    /// @dev this is event which is created when a token transfer takes place\n    /// @param from This is the address of sender\n    /// @param to This is the address of receiver\n    /// @param transferDate This is the date of the transfer\n    /// @param tokenId This is the id of the token that is being transferred\n    /// @param amount This is the amount of token transferred\n    /// @param symbol This is the symbol of the token that were transferred\n    event TokenTransfer(\n        address from,\n        address to,\n        uint256 transferDate,\n        uint256 tokenId,\n        uint256 amount,\n        string symbol\n    );\n\n    /// @dev this is event which is created when new governance token is created (NEW CREATION Not MINTING)\n    /// @param recordId This is the record Id to which this token belongs to\n    /// @param symbol This is the symbol of the governance token\n    /// @param image This is the image of the token\n    /// @param creationDate This is the creation date of the token\n    /// @param tokenAmount This is the amount of token that are created\n    /// @param tokenId This is the id of token that is newly created tokens\n    /// @param tokenType This is the type of the token that is created => For governance 1 and for copyright 0\n    event NewTokenCreated(\n        uint256 recordId,\n        string symbol,\n        string image,\n        uint256 creationDate,\n        uint256 tokenAmount,\n        uint256 tokenId,\n        uint8 tokenType\n    );\n\n    /// @dev this is event which is created when new governance token is minted after the voting is done\n    /// @param recordId This is the record Id to which this token belongs to\n    /// @param creationDate This is the creation date of the token\n    /// @param tokenAmount This is the amount of token that are created\n    /// @param tokenId This is the id of token that is newly created tokens\n    event TokenMinted(\n        uint256 recordId,\n        uint256 tokenId,\n        uint256 creationDate,\n        uint256 tokenAmount\n    );\n\n    /// @dev this is event which is generated when a contribution voting has came to an\n    /// end and the contribution is accepted\n    /// @param to This the address of the winner or the owner of the contribution\n    /// @param recordId This is the id of the record to which this contribution relates to\n    /// @param contributionId This is the id of the contribution to which the record is related to\n    /// @param rewardGovernance The reward amount for governance tokens\n    /// @param rewardCommunity The reward amount for community tokens\n    event ContributionRewardTransferred(\n        address to,\n        uint256 recordId,\n        uint256 contributionId,\n        uint256 rewardGovernance,\n        uint256 rewardCommunity\n    );\n\n    mapping(uint256 => Token) public govTokenMapping;\n    mapping(uint256 => Token) public commTokenMapping;\n\n    mapping(string => bool) public govTokenSym;\n    mapping(string => bool) public commTokenSym;\n\n    // By default URI to crowdrecords domain\n    // 18 decimal points supported\n    constructor(address owner) ERC1155(\"https://crowdrecords.com/{id}\") {\n        OWNER = owner;\n        _mint(owner, CRD, 1000000 * 10**18, \"https://crowdrecords.com\");\n    }\n\n    /// @dev Modifier to check that the person who accesses a specific function is the owner of contract himself.\n    modifier ownerOnly() {\n        require(msg.sender == OWNER, \"UNAUTHORIZED: CANNOT_PERFORM_ACTION\");\n        _;\n    }\n\n    /// @dev Modifier to check that the person who accesses a specific function is the owner of contract himself.\n    modifier onlyTreasuryContract() {\n        require(\n            msg.sender == TREASURY_CONTRACT_ADDRESS,\n            \"UNAUTHORIZED: CANNOT_PERFORM_ACTION\"\n        );\n        _;\n    }\n\n    /// @dev This is to set the address of the contracts\n    /// @param newVotingHubContract This is the address of new voting hub contract\n    /// @param newTreasuryAddress This is the address of new voting hub contract\n    function initialize(\n        address newVotingHubContract,\n        address newTreasuryAddress\n    ) public initializer ownerOnly {\n        VOTING_HUB_ADDRESS = newVotingHubContract;\n        TREASURY_CONTRACT_ADDRESS = newTreasuryAddress;\n    }\n\n    /// @dev This function creates new governance tokens for specified record\n    /// @param newTokenData This contains all the parameters needed to create a new governance token that are\n    /// @param userAddress - This is the address of the user who is the creator of the token\n    function createNewGovernanceToken(\n        NewTokenData memory newTokenData,\n        address userAddress\n    ) external onlyTreasuryContract returns (uint256) {\n        {\n            bytes memory preString = abi.encodePacked(PREFIX_GOVERNANCE);\n            newTokenData.symbol = string(\n                abi.encodePacked(preString, newTokenData.symbol)\n            );\n        }\n\n        LastTokenId++;\n        uint256 newTokenId = LastTokenId;\n\n        //Map the recordId with the\n        govTokenMapping[newTokenData.recordId] = createToken(\n            newTokenData,\n            newTokenId,\n            TOKEN_TYPE_GOVERNANCE,\n            userAddress\n        );\n\n        return newTokenId;\n    }\n\n    /// @dev This function creats new community tokens for specified record\n    /// @param newTokenData This contains all the parameters needed to create a new community token that are\n    /// @param userAddress - This is the address of the user who is the creator of the token\n    function createNewCommunityToken(\n        NewTokenData memory newTokenData,\n        address userAddress\n    ) external onlyTreasuryContract returns (uint256) {\n        {\n            bytes memory preString = abi.encodePacked(PREFIX_COMMUNITY);\n            newTokenData.symbol = string(\n                abi.encodePacked(preString, newTokenData.symbol)\n            );\n        }\n\n        LastTokenId++;\n        uint256 newTokenId = LastTokenId;\n\n        //Map the recordId with the\n        commTokenMapping[newTokenData.recordId] = createToken(\n            newTokenData,\n            newTokenId,\n            TOKEN_TYPE_COMMUNITY,\n            userAddress\n        );\n\n        return newTokenId;\n    }\n\n    /// @dev This function is an internal use only function whoes role is to create a new token of specified type\n    /// @param newTokenData This contains all the parameters needed to create a new community token that are\n    /// @param newTokenId - This is the Id of the token to create\n    /// @param tokenType - This is the type of token that is to be created such as community or governance\n    /// @param userAddress - This is the address of the user who is the creator of the token\n    function createToken(\n        NewTokenData memory newTokenData,\n        uint256 newTokenId,\n        uint8 tokenType,\n        address userAddress\n    ) private returns (Token memory) {\n        uint256 treasuryAmount = (newTokenData.totalSupply -\n            newTokenData.userBalance);\n        uint256 userAmount = newTokenData.userBalance;\n\n        // Here minting of new tokens is done. And those are sent directly into the treasury\n        _mint(address(this), newTokenId, treasuryAmount, \"\");\n\n        // The user requested amount of tokens is generated and send to his account\n        _mint(userAddress, newTokenId, userAmount, \"\");\n\n        Token memory token = Token({\n            recordId: newTokenData.recordId,\n            symbol: newTokenData.symbol,\n            image: newTokenData.image,\n            creationDate: block.timestamp,\n            isPresent: true,\n            tokenId: newTokenId\n        });\n\n        emit NewTokenCreated({\n            recordId: newTokenData.recordId,\n            symbol: newTokenData.symbol,\n            image: newTokenData.image,\n            creationDate: token.creationDate,\n            tokenAmount: newTokenData.totalSupply,\n            tokenId: newTokenId,\n            tokenType: tokenType\n        });\n\n        return token;\n    }\n\n    /// @dev This function creats new community tokens for specified record\n    /// @param recordId This is the id of the record to which the token belongs to\n    /// @param tokenId This is the id of the which is to be minted\n    /// @param tokenAmount This is the amount that is to be minted\n    function mintTokens(\n        uint256 recordId,\n        uint256 tokenId,\n        uint256 tokenAmount\n    ) external onlyTreasuryContract {\n        require(\n            commTokenMapping[recordId].isPresent == true ||\n                govTokenMapping[recordId].isPresent == true,\n            \"INVALID: WRONG_RECORD_ID\"\n        );\n\n        require(\n            commTokenMapping[recordId].tokenId == tokenId ||\n                govTokenMapping[recordId].tokenId == tokenId,\n            \"INVALID: WRONG_TOKEN_ID\"\n        );\n\n        // Here minting of new tokens is done. And those are sent directly into the treasury\n        _mint(\n            address(this),\n            tokenId,\n            tokenAmount,\n            \"Token minted through voting process\"\n        );\n\n        emit TokenMinted({\n            recordId: recordId,\n            tokenId: tokenId,\n            creationDate: block.timestamp,\n            tokenAmount: tokenAmount\n        });\n    }\n\n    /// @dev This function is called only by the voting contract once the voting ends\n    /// @param to This is the receivers address\n    /// @param recordId This is the recordId to which the contribution belongs to\n    /// @param contributionId this is the contribution id to which the user has won\n    /// @param rewardGovernance this is the amount of Governance token that needs to be transferred\n    /// @param rewardCommunity this is the amount of community token that needs to be transferred\n    function transferRewardAmount(\n        address to,\n        uint256 recordId,\n        uint256 contributionId,\n        uint256 rewardGovernance,\n        uint256 rewardCommunity\n    ) external onlyTreasuryContract {\n        _setApprovalForAll(address(this), msg.sender, true);\n        if (rewardGovernance > 0) {\n            safeTransferFrom(\n                address(this),\n                to,\n                govTokenMapping[recordId].tokenId,\n                rewardGovernance,\n                \"\"\n            );\n        }\n\n        if (rewardCommunity > 0) {\n            safeTransferFrom(\n                address(this),\n                to,\n                commTokenMapping[recordId].tokenId,\n                rewardCommunity,\n                \"\"\n            );\n        }\n\n        emit ContributionRewardTransferred({\n            to: to,\n            recordId: recordId,\n            contributionId: contributionId,\n            rewardGovernance: rewardGovernance,\n            rewardCommunity: rewardCommunity\n        });\n    }\n\n    // Update balance and/or total supply snapshots before the values are modified. This is implemented\n    // in the _beforeTokenTransfer hook, which is executed for _mint, _burn, and _transfer operations.\n    function _beforeTokenTransfer(\n        address operator,\n        address from,\n        address to,\n        uint256[] memory ids,\n        uint256[] memory amounts,\n        bytes memory data\n    ) internal override {\n        //Below condition is needed as the _mint is called in the constructor\n        //and at that particular point in time the below address is not initialized thus leading to a revert\n        if (VOTING_HUB_ADDRESS != address(0)) {\n            VotingHubContract votingHubContract = VotingHubContract(\n                VOTING_HUB_ADDRESS\n            );\n\n            for (uint256 i = 0; i < ids.length; i++) {\n                votingHubContract.handleUserTokenTransfers(\n                    from,\n                    to,\n                    amounts[i],\n                    ids[i]\n                );\n            }\n        }\n\n        super._beforeTokenTransfer(operator, from, to, ids, amounts, data);\n    }\n\n    /// @dev This function sets the symbol name as used, this function is called from records\n    // contract to reserve symbol for new version creation\n    /// @param governanceSymbol Symbol for governance token\n    /// @param communitySymbol Symbol for community token\n    function setSymbolsAsUsed(\n        string memory governanceSymbol,\n        string memory communitySymbol\n    ) external onlyTreasuryContract {\n        commTokenSym[communitySymbol] = true;\n        govTokenSym[governanceSymbol] = true;\n    }\n\n    /// @dev This function sets the symbol name as available, this function is called from records\n    // contract to reserve symbol for new version creation\n    /// @param governanceSymbol Symbol for governance token\n    /// @param communitySymbol Symbol for community token\n    function setSymbolsAsAvailable(\n        string memory governanceSymbol,\n        string memory communitySymbol\n    ) external onlyTreasuryContract {\n        commTokenSym[communitySymbol] = true;\n        govTokenSym[governanceSymbol] = true;\n    }\n\n    /// @dev this function is responsible for minting of new tokens for records\n    /// @param tokenId Id this is the tokenId that is to minted\n    /// @param amount the amount that is to be minted\n    /// @param receiver Id this is the tokenId that is to minted\n    function transferRewardTokens(\n        uint256 tokenId,\n        uint256 amount,\n        address receiver\n    ) public onlyTreasuryContract {\n        _setApprovalForAll(address(this), msg.sender, true);\n        safeTransferFrom(\n            address(this),\n            receiver,\n            tokenId,\n            amount,\n            \"RECORD_TOKEN_TRANSFER\"\n        );\n    }\n\n    function snapshot()\n        external\n        onlyTreasuryContract\n        returns (uint256 snapshotId)\n    {\n        return _snapshot();\n    }\n\n    function mint(uint256 tokenId, uint256 amount)\n        external\n        onlyTreasuryContract\n    {\n        _mint(address(this), tokenId, amount, \"New tokens minted\");\n    }\n\n    function onERC1155Received(\n        address operator,\n        address from,\n        uint256 id,\n        uint256 value,\n        bytes calldata data\n    ) external virtual override returns (bytes4) {\n        return\n            bytes4(\n                keccak256(\n                    \"onERC1155Received(address,address,uint256,uint256,bytes)\"\n                )\n            );\n    }\n\n    function onERC1155BatchReceived(\n        address operator,\n        address from,\n        uint256[] calldata ids,\n        uint256[] calldata values,\n        bytes calldata data\n    ) external virtual override returns (bytes4) {\n        return\n            bytes4(\n                keccak256(\n                    \"onERC1155BatchReceived(address,address,uint256[],uint256[],bytes)\"\n                )\n            );\n    }\n}\n",
  "sourcePath": "/Users/a1/Desktop/Office/projects/CrowdRecords/Contracts/contracts/treasury/TreasuryCoreContract.sol",
  "compiler": {
    "name": "solc",
    "version": "0.8.12+commit.f00d7308.Emscripten.clang"
  },
  "schemaVersion": "3.4.6",
  "updatedAt": "2022-10-19T09:06:06.982Z",
  "devdoc": {
    "events": {
      "ContributionRewardTransferred(address,uint256,uint256,uint256,uint256)": {
        "details": "this is event which is generated when a contribution voting has came to an end and the contribution is accepted",
        "params": {
          "contributionId": "This is the id of the contribution to which the record is related to",
          "recordId": "This is the id of the record to which this contribution relates to",
          "rewardCommunity": "The reward amount for community tokens",
          "rewardGovernance": "The reward amount for governance tokens",
          "to": "This the address of the winner or the owner of the contribution"
        }
      },
      "NewTokenCreated(uint256,string,string,uint256,uint256,uint256,uint8)": {
        "details": "this is event which is created when new governance token is created (NEW CREATION Not MINTING)",
        "params": {
          "creationDate": "This is the creation date of the token",
          "image": "This is the image of the token",
          "recordId": "This is the record Id to which this token belongs to",
          "symbol": "This is the symbol of the governance token",
          "tokenAmount": "This is the amount of token that are created",
          "tokenId": "This is the id of token that is newly created tokens",
          "tokenType": "This is the type of the token that is created => For governance 1 and for copyright 0"
        }
      },
      "TokenMinted(uint256,uint256,uint256,uint256)": {
        "details": "this is event which is created when new governance token is minted after the voting is done",
        "params": {
          "creationDate": "This is the creation date of the token",
          "recordId": "This is the record Id to which this token belongs to",
          "tokenAmount": "This is the amount of token that are created",
          "tokenId": "This is the id of token that is newly created tokens"
        }
      },
      "TokenTransfer(address,address,uint256,uint256,uint256,string)": {
        "details": "this is event which is created when a token transfer takes place",
        "params": {
          "amount": "This is the amount of token transferred",
          "from": "This is the address of sender",
          "symbol": "This is the symbol of the token that were transferred",
          "to": "This is the address of receiver",
          "tokenId": "This is the id of the token that is being transferred",
          "transferDate": "This is the date of the transfer"
        }
      }
    },
    "kind": "dev",
    "methods": {
      "balanceOf(address,uint256)": {
        "details": "See {IERC1155-balanceOf}. Requirements: - `account` cannot be the zero address."
      },
      "balanceOfAt(address,uint256,uint256)": {
        "details": "Retrieves the balance of `account` at the time `snapshotId` was created."
      },
      "balanceOfBatch(address[],uint256[])": {
        "details": "See {IERC1155-balanceOfBatch}. Requirements: - `accounts` and `ids` must have the same length."
      },
      "createNewCommunityToken((uint256,uint256,uint256,string,string),address)": {
        "details": "This function creats new community tokens for specified record",
        "params": {
          "newTokenData": "This contains all the parameters needed to create a new community token that are",
          "userAddress": "- This is the address of the user who is the creator of the token"
        }
      },
      "createNewGovernanceToken((uint256,uint256,uint256,string,string),address)": {
        "details": "This function creates new governance tokens for specified record",
        "params": {
          "newTokenData": "This contains all the parameters needed to create a new governance token that are",
          "userAddress": "- This is the address of the user who is the creator of the token"
        }
      },
      "exists(uint256)": {
        "details": "Indicates whether any token exist with a given id, or not."
      },
      "initialize(address,address)": {
        "details": "This is to set the address of the contracts",
        "params": {
          "newTreasuryAddress": "This is the address of new voting hub contract",
          "newVotingHubContract": "This is the address of new voting hub contract"
        }
      },
      "isApprovedForAll(address,address)": {
        "details": "See {IERC1155-isApprovedForAll}."
      },
      "mintTokens(uint256,uint256,uint256)": {
        "details": "This function creats new community tokens for specified record",
        "params": {
          "recordId": "This is the id of the record to which the token belongs to",
          "tokenAmount": "This is the amount that is to be minted",
          "tokenId": "This is the id of the which is to be minted"
        }
      },
      "onERC1155BatchReceived(address,address,uint256[],uint256[],bytes)": {
        "details": "Handles the receipt of a multiple ERC1155 token types. This function is called at the end of a `safeBatchTransferFrom` after the balances have been updated. NOTE: To accept the transfer(s), this must return `bytes4(keccak256(\"onERC1155BatchReceived(address,address,uint256[],uint256[],bytes)\"))` (i.e. 0xbc197c81, or its own function selector).",
        "params": {
          "data": "Additional data with no specified format",
          "from": "The address which previously owned the token",
          "ids": "An array containing ids of each token being transferred (order and length must match values array)",
          "operator": "The address which initiated the batch transfer (i.e. msg.sender)",
          "values": "An array containing amounts of each token being transferred (order and length must match ids array)"
        },
        "returns": {
          "_0": "`bytes4(keccak256(\"onERC1155BatchReceived(address,address,uint256[],uint256[],bytes)\"))` if transfer is allowed"
        }
      },
      "onERC1155Received(address,address,uint256,uint256,bytes)": {
        "details": "Handles the receipt of a single ERC1155 token type. This function is called at the end of a `safeTransferFrom` after the balance has been updated. NOTE: To accept the transfer, this must return `bytes4(keccak256(\"onERC1155Received(address,address,uint256,uint256,bytes)\"))` (i.e. 0xf23a6e61, or its own function selector).",
        "params": {
          "data": "Additional data with no specified format",
          "from": "The address which previously owned the token",
          "id": "The ID of the token being transferred",
          "operator": "The address which initiated the transfer (i.e. msg.sender)",
          "value": "The amount of tokens being transferred"
        },
        "returns": {
          "_0": "`bytes4(keccak256(\"onERC1155Received(address,address,uint256,uint256,bytes)\"))` if transfer is allowed"
        }
      },
      "safeBatchTransferFrom(address,address,uint256[],uint256[],bytes)": {
        "details": "See {IERC1155-safeBatchTransferFrom}."
      },
      "safeTransferFrom(address,address,uint256,uint256,bytes)": {
        "details": "See {IERC1155-safeTransferFrom}."
      },
      "setApprovalForAll(address,bool)": {
        "details": "See {IERC1155-setApprovalForAll}."
      },
      "setSymbolsAsAvailable(string,string)": {
        "params": {
          "communitySymbol": "Symbol for community token",
          "governanceSymbol": "Symbol for governance token"
        }
      },
      "setSymbolsAsUsed(string,string)": {
        "params": {
          "communitySymbol": "Symbol for community token",
          "governanceSymbol": "Symbol for governance token"
        }
      },
      "supportsInterface(bytes4)": {
        "details": "See {IERC165-supportsInterface}."
      },
      "totalSupply(uint256)": {
        "details": "Total amount of tokens in with a given id."
      },
      "totalSupplyAt(uint256,uint256)": {
        "details": "Retrieves the total supply at the time `snapshotId` was created."
      },
      "transferRewardAmount(address,uint256,uint256,uint256,uint256)": {
        "details": "This function is called only by the voting contract once the voting ends",
        "params": {
          "contributionId": "this is the contribution id to which the user has won",
          "recordId": "This is the recordId to which the contribution belongs to",
          "rewardCommunity": "this is the amount of community token that needs to be transferred",
          "rewardGovernance": "this is the amount of Governance token that needs to be transferred",
          "to": "This is the receivers address"
        }
      },
      "transferRewardTokens(uint256,uint256,address)": {
        "details": "this function is responsible for minting of new tokens for records",
        "params": {
          "amount": "the amount that is to be minted",
          "receiver": "Id this is the tokenId that is to minted",
          "tokenId": "Id this is the tokenId that is to minted"
        }
      },
      "uri(uint256)": {
        "details": "See {IERC1155MetadataURI-uri}. This implementation returns the same URI for *all* token types. It relies on the token type ID substitution mechanism https://eips.ethereum.org/EIPS/eip-1155#metadata[defined in the EIP]. Clients calling this function must replace the `\\{id\\}` substring with the actual token type ID."
      }
    },
    "version": 1
  },
  "userdoc": {
    "kind": "user",
    "methods": {},
    "version": 1
  }
}