{
  "contractName": "TreasuryContract",
  "abi": [
    {
      "inputs": [],
      "stateMutability": "nonpayable",
      "type": "constructor"
    },
    {
      "anonymous": false,
      "inputs": [
        {
          "indexed": true,
          "internalType": "address",
          "name": "account",
          "type": "address"
        },
        {
          "indexed": true,
          "internalType": "address",
          "name": "operator",
          "type": "address"
        },
        {
          "indexed": false,
          "internalType": "bool",
          "name": "approved",
          "type": "bool"
        }
      ],
      "name": "ApprovalForAll",
      "type": "event"
    },
    {
      "anonymous": false,
      "inputs": [
        {
          "indexed": false,
          "internalType": "address",
          "name": "to",
          "type": "address"
        },
        {
          "indexed": false,
          "internalType": "uint256",
          "name": "recordId",
          "type": "uint256"
        },
        {
          "indexed": false,
          "internalType": "uint256",
          "name": "contributionId",
          "type": "uint256"
        },
        {
          "indexed": false,
          "internalType": "uint256",
          "name": "rewardGovernance",
          "type": "uint256"
        },
        {
          "indexed": false,
          "internalType": "uint256",
          "name": "rewardCommunity",
          "type": "uint256"
        }
      ],
      "name": "ContributionRewardTransfered",
      "type": "event"
    },
    {
      "anonymous": false,
      "inputs": [
        {
          "indexed": false,
          "internalType": "uint256",
          "name": "amount",
          "type": "uint256"
        },
        {
          "indexed": false,
          "internalType": "uint256",
          "name": "tokenId",
          "type": "uint256"
        }
      ],
      "name": "DEBUG",
      "type": "event"
    },
    {
      "anonymous": false,
      "inputs": [
        {
          "indexed": false,
          "internalType": "address",
          "name": "hubAddress",
          "type": "address"
        }
      ],
      "name": "DEBUG4",
      "type": "event"
    },
    {
      "anonymous": false,
      "inputs": [
        {
          "indexed": false,
          "internalType": "uint256",
          "name": "recordId",
          "type": "uint256"
        },
        {
          "indexed": false,
          "internalType": "string",
          "name": "symbol",
          "type": "string"
        },
        {
          "indexed": false,
          "internalType": "string",
          "name": "image",
          "type": "string"
        },
        {
          "indexed": false,
          "internalType": "uint256",
          "name": "creationDate",
          "type": "uint256"
        },
        {
          "indexed": false,
          "internalType": "uint256",
          "name": "tokenAmount",
          "type": "uint256"
        },
        {
          "indexed": false,
          "internalType": "uint256",
          "name": "tokenId",
          "type": "uint256"
        },
        {
          "indexed": false,
          "internalType": "uint8",
          "name": "tokenType",
          "type": "uint8"
        }
      ],
      "name": "NewTokenCreated",
      "type": "event"
    },
    {
      "anonymous": false,
      "inputs": [
        {
          "indexed": false,
          "internalType": "uint256",
          "name": "id",
          "type": "uint256"
        }
      ],
      "name": "Snapshot",
      "type": "event"
    },
    {
      "anonymous": false,
      "inputs": [
        {
          "indexed": false,
          "internalType": "uint256",
          "name": "recordId",
          "type": "uint256"
        },
        {
          "indexed": false,
          "internalType": "uint256",
          "name": "tokenId",
          "type": "uint256"
        },
        {
          "indexed": false,
          "internalType": "uint256",
          "name": "creationDate",
          "type": "uint256"
        },
        {
          "indexed": false,
          "internalType": "uint256",
          "name": "tokenAmount",
          "type": "uint256"
        }
      ],
      "name": "TokenMinted",
      "type": "event"
    },
    {
      "anonymous": false,
      "inputs": [
        {
          "indexed": false,
          "internalType": "address",
          "name": "from",
          "type": "address"
        },
        {
          "indexed": false,
          "internalType": "address",
          "name": "to",
          "type": "address"
        },
        {
          "indexed": false,
          "internalType": "uint256",
          "name": "transferDate",
          "type": "uint256"
        },
        {
          "indexed": false,
          "internalType": "uint256",
          "name": "tokenId",
          "type": "uint256"
        },
        {
          "indexed": false,
          "internalType": "uint256",
          "name": "amount",
          "type": "uint256"
        },
        {
          "indexed": false,
          "internalType": "string",
          "name": "symbol",
          "type": "string"
        }
      ],
      "name": "TokenTransfer",
      "type": "event"
    },
    {
      "anonymous": false,
      "inputs": [
        {
          "indexed": true,
          "internalType": "address",
          "name": "operator",
          "type": "address"
        },
        {
          "indexed": true,
          "internalType": "address",
          "name": "from",
          "type": "address"
        },
        {
          "indexed": true,
          "internalType": "address",
          "name": "to",
          "type": "address"
        },
        {
          "indexed": false,
          "internalType": "uint256[]",
          "name": "ids",
          "type": "uint256[]"
        },
        {
          "indexed": false,
          "internalType": "uint256[]",
          "name": "values",
          "type": "uint256[]"
        }
      ],
      "name": "TransferBatch",
      "type": "event"
    },
    {
      "anonymous": false,
      "inputs": [
        {
          "indexed": true,
          "internalType": "address",
          "name": "operator",
          "type": "address"
        },
        {
          "indexed": true,
          "internalType": "address",
          "name": "from",
          "type": "address"
        },
        {
          "indexed": true,
          "internalType": "address",
          "name": "to",
          "type": "address"
        },
        {
          "indexed": false,
          "internalType": "uint256",
          "name": "id",
          "type": "uint256"
        },
        {
          "indexed": false,
          "internalType": "uint256",
          "name": "value",
          "type": "uint256"
        }
      ],
      "name": "TransferSingle",
      "type": "event"
    },
    {
      "anonymous": false,
      "inputs": [
        {
          "indexed": false,
          "internalType": "string",
          "name": "value",
          "type": "string"
        },
        {
          "indexed": true,
          "internalType": "uint256",
          "name": "id",
          "type": "uint256"
        }
      ],
      "name": "URI",
      "type": "event"
    },
    {
      "inputs": [],
      "name": "CONTRIBUTION_VOTING_CONTRACT_ADDRESS",
      "outputs": [
        {
          "internalType": "address",
          "name": "",
          "type": "address"
        }
      ],
      "stateMutability": "view",
      "type": "function"
    },
    {
      "inputs": [],
      "name": "CRD",
      "outputs": [
        {
          "internalType": "uint256",
          "name": "",
          "type": "uint256"
        }
      ],
      "stateMutability": "view",
      "type": "function"
    },
    {
      "inputs": [],
      "name": "DILUTION_CONTRACT_ADDRESS",
      "outputs": [
        {
          "internalType": "address",
          "name": "",
          "type": "address"
        }
      ],
      "stateMutability": "view",
      "type": "function"
    },
    {
      "inputs": [],
      "name": "RECORDS_CONTRACT_ADDRESS",
      "outputs": [
        {
          "internalType": "address",
          "name": "",
          "type": "address"
        }
      ],
      "stateMutability": "view",
      "type": "function"
    },
    {
      "inputs": [],
      "name": "VOTING_HUB_ADDRESS",
      "outputs": [
        {
          "internalType": "address",
          "name": "",
          "type": "address"
        }
      ],
      "stateMutability": "view",
      "type": "function"
    },
    {
      "inputs": [
        {
          "internalType": "address",
          "name": "account",
          "type": "address"
        },
        {
          "internalType": "uint256",
          "name": "id",
          "type": "uint256"
        }
      ],
      "name": "balanceOf",
      "outputs": [
        {
          "internalType": "uint256",
          "name": "",
          "type": "uint256"
        }
      ],
      "stateMutability": "view",
      "type": "function"
    },
    {
      "inputs": [
        {
          "internalType": "address",
          "name": "account",
          "type": "address"
        },
        {
          "internalType": "uint256",
          "name": "snapshotId",
          "type": "uint256"
        },
        {
          "internalType": "uint256",
          "name": "tokenId",
          "type": "uint256"
        }
      ],
      "name": "balanceOfAt",
      "outputs": [
        {
          "internalType": "uint256",
          "name": "",
          "type": "uint256"
        }
      ],
      "stateMutability": "view",
      "type": "function"
    },
    {
      "inputs": [
        {
          "internalType": "address[]",
          "name": "accounts",
          "type": "address[]"
        },
        {
          "internalType": "uint256[]",
          "name": "ids",
          "type": "uint256[]"
        }
      ],
      "name": "balanceOfBatch",
      "outputs": [
        {
          "internalType": "uint256[]",
          "name": "",
          "type": "uint256[]"
        }
      ],
      "stateMutability": "view",
      "type": "function"
    },
    {
      "inputs": [
        {
          "internalType": "uint256",
          "name": "id",
          "type": "uint256"
        }
      ],
      "name": "exists",
      "outputs": [
        {
          "internalType": "bool",
          "name": "",
          "type": "bool"
        }
      ],
      "stateMutability": "view",
      "type": "function"
    },
    {
      "inputs": [
        {
          "internalType": "address",
          "name": "account",
          "type": "address"
        },
        {
          "internalType": "address",
          "name": "operator",
          "type": "address"
        }
      ],
      "name": "isApprovedForAll",
      "outputs": [
        {
          "internalType": "bool",
          "name": "",
          "type": "bool"
        }
      ],
      "stateMutability": "view",
      "type": "function"
    },
    {
      "inputs": [
        {
          "internalType": "address",
          "name": "from",
          "type": "address"
        },
        {
          "internalType": "address",
          "name": "to",
          "type": "address"
        },
        {
          "internalType": "uint256[]",
          "name": "ids",
          "type": "uint256[]"
        },
        {
          "internalType": "uint256[]",
          "name": "amounts",
          "type": "uint256[]"
        },
        {
          "internalType": "bytes",
          "name": "data",
          "type": "bytes"
        }
      ],
      "name": "safeBatchTransferFrom",
      "outputs": [],
      "stateMutability": "nonpayable",
      "type": "function"
    },
    {
      "inputs": [
        {
          "internalType": "address",
          "name": "from",
          "type": "address"
        },
        {
          "internalType": "address",
          "name": "to",
          "type": "address"
        },
        {
          "internalType": "uint256",
          "name": "id",
          "type": "uint256"
        },
        {
          "internalType": "uint256",
          "name": "amount",
          "type": "uint256"
        },
        {
          "internalType": "bytes",
          "name": "data",
          "type": "bytes"
        }
      ],
      "name": "safeTransferFrom",
      "outputs": [],
      "stateMutability": "nonpayable",
      "type": "function"
    },
    {
      "inputs": [
        {
          "internalType": "address",
          "name": "operator",
          "type": "address"
        },
        {
          "internalType": "bool",
          "name": "approved",
          "type": "bool"
        }
      ],
      "name": "setApprovalForAll",
      "outputs": [],
      "stateMutability": "nonpayable",
      "type": "function"
    },
    {
      "inputs": [],
      "name": "snap",
      "outputs": [
        {
          "internalType": "uint256",
          "name": "",
          "type": "uint256"
        }
      ],
      "stateMutability": "nonpayable",
      "type": "function"
    },
    {
      "inputs": [
        {
          "internalType": "bytes4",
          "name": "interfaceId",
          "type": "bytes4"
        }
      ],
      "name": "supportsInterface",
      "outputs": [
        {
          "internalType": "bool",
          "name": "",
          "type": "bool"
        }
      ],
      "stateMutability": "view",
      "type": "function"
    },
    {
      "inputs": [
        {
          "internalType": "uint256",
          "name": "id",
          "type": "uint256"
        }
      ],
      "name": "totalSupply",
      "outputs": [
        {
          "internalType": "uint256",
          "name": "",
          "type": "uint256"
        }
      ],
      "stateMutability": "view",
      "type": "function"
    },
    {
      "inputs": [
        {
          "internalType": "uint256",
          "name": "snapshotId",
          "type": "uint256"
        },
        {
          "internalType": "uint256",
          "name": "tokenId",
          "type": "uint256"
        }
      ],
      "name": "totalSupplyAt",
      "outputs": [
        {
          "internalType": "uint256",
          "name": "",
          "type": "uint256"
        }
      ],
      "stateMutability": "view",
      "type": "function"
    },
    {
      "inputs": [
        {
          "internalType": "uint256",
          "name": "",
          "type": "uint256"
        }
      ],
      "name": "uri",
      "outputs": [
        {
          "internalType": "string",
          "name": "",
          "type": "string"
        }
      ],
      "stateMutability": "view",
      "type": "function"
    },
    {
      "inputs": [
        {
          "internalType": "address",
          "name": "newRecordsContractAddress",
          "type": "address"
        }
      ],
      "name": "setRecordsContractAddress",
      "outputs": [],
      "stateMutability": "nonpayable",
      "type": "function"
    },
    {
      "inputs": [
        {
          "internalType": "address",
          "name": "newVotingHubContract",
          "type": "address"
        }
      ],
      "name": "setVotingHubContract",
      "outputs": [],
      "stateMutability": "nonpayable",
      "type": "function"
    },
    {
      "inputs": [
        {
          "internalType": "address",
          "name": "newDilutionContract",
          "type": "address"
        }
      ],
      "name": "setDilutionContract",
      "outputs": [],
      "stateMutability": "nonpayable",
      "type": "function"
    },
    {
      "inputs": [
        {
          "internalType": "address",
          "name": "newVotingContractAddress",
          "type": "address"
        }
      ],
      "name": "setContributionVotingContractAddress",
      "outputs": [],
      "stateMutability": "nonpayable",
      "type": "function"
    },
    {
      "inputs": [
        {
          "components": [
            {
              "internalType": "uint256",
              "name": "recordId",
              "type": "uint256"
            },
            {
              "internalType": "uint256",
              "name": "totalSupply",
              "type": "uint256"
            },
            {
              "internalType": "uint256",
              "name": "userBalance",
              "type": "uint256"
            },
            {
              "internalType": "string",
              "name": "symbol",
              "type": "string"
            },
            {
              "internalType": "string",
              "name": "image",
              "type": "string"
            }
          ],
          "internalType": "struct TreasuryContract.NewTokenData",
          "name": "newTokenData",
          "type": "tuple"
        }
      ],
      "name": "createNewGovernanceToken",
      "outputs": [
        {
          "internalType": "uint256",
          "name": "",
          "type": "uint256"
        }
      ],
      "stateMutability": "payable",
      "type": "function"
    },
    {
      "inputs": [
        {
          "components": [
            {
              "internalType": "uint256",
              "name": "recordId",
              "type": "uint256"
            },
            {
              "internalType": "uint256",
              "name": "totalSupply",
              "type": "uint256"
            },
            {
              "internalType": "uint256",
              "name": "userBalance",
              "type": "uint256"
            },
            {
              "internalType": "string",
              "name": "symbol",
              "type": "string"
            },
            {
              "internalType": "string",
              "name": "image",
              "type": "string"
            }
          ],
          "internalType": "struct TreasuryContract.NewTokenData",
          "name": "newTokenData",
          "type": "tuple"
        }
      ],
      "name": "createNewCommunityToken",
      "outputs": [
        {
          "internalType": "uint256",
          "name": "",
          "type": "uint256"
        }
      ],
      "stateMutability": "payable",
      "type": "function"
    },
    {
      "inputs": [
        {
          "internalType": "address",
          "name": "to",
          "type": "address"
        },
        {
          "internalType": "uint256",
          "name": "recordId",
          "type": "uint256"
        },
        {
          "internalType": "uint256",
          "name": "contributionId",
          "type": "uint256"
        },
        {
          "internalType": "uint256",
          "name": "rewardGovernance",
          "type": "uint256"
        },
        {
          "internalType": "uint256",
          "name": "rewardCommunity",
          "type": "uint256"
        }
      ],
      "name": "transferRewardAmount",
      "outputs": [],
      "stateMutability": "payable",
      "type": "function"
    },
    {
      "inputs": [
        {
          "internalType": "uint256",
          "name": "recordId",
          "type": "uint256"
        }
      ],
      "name": "getCommunityTokenId",
      "outputs": [
        {
          "internalType": "uint256",
          "name": "",
          "type": "uint256"
        }
      ],
      "stateMutability": "view",
      "type": "function"
    },
    {
      "inputs": [
        {
          "internalType": "uint256",
          "name": "recordId",
          "type": "uint256"
        }
      ],
      "name": "getGovernanceTokenId",
      "outputs": [
        {
          "internalType": "uint256",
          "name": "",
          "type": "uint256"
        }
      ],
      "stateMutability": "view",
      "type": "function"
    },
    {
      "inputs": [
        {
          "internalType": "uint256",
          "name": "tokenId",
          "type": "uint256"
        }
      ],
      "name": "totalCirculatingSupply",
      "outputs": [
        {
          "internalType": "uint256",
          "name": "",
          "type": "uint256"
        }
      ],
      "stateMutability": "view",
      "type": "function"
    },
    {
      "inputs": [],
      "name": "snapshot",
      "outputs": [
        {
          "internalType": "uint256",
          "name": "snapshotId",
          "type": "uint256"
        }
      ],
      "stateMutability": "nonpayable",
      "type": "function"
    },
    {
      "inputs": [
        {
          "internalType": "uint256",
          "name": "tokenId",
          "type": "uint256"
        },
        {
          "internalType": "uint256",
          "name": "amount",
          "type": "uint256"
        }
      ],
      "name": "mintTokens",
      "outputs": [],
      "stateMutability": "nonpayable",
      "type": "function"
    },
    {
      "inputs": [
        {
          "internalType": "uint256",
          "name": "recordId",
          "type": "uint256"
        },
        {
          "internalType": "uint256",
          "name": "tokenId",
          "type": "uint256"
        },
        {
          "internalType": "uint256",
          "name": "tokenAmount",
          "type": "uint256"
        }
      ],
      "name": "mintTokens",
      "outputs": [],
      "stateMutability": "payable",
      "type": "function"
    },
    {
      "inputs": [
        {
          "internalType": "address",
          "name": "operator",
          "type": "address"
        },
        {
          "internalType": "address",
          "name": "from",
          "type": "address"
        },
        {
          "internalType": "uint256",
          "name": "id",
          "type": "uint256"
        },
        {
          "internalType": "uint256",
          "name": "value",
          "type": "uint256"
        },
        {
          "internalType": "bytes",
          "name": "data",
          "type": "bytes"
        }
      ],
      "name": "onERC1155Received",
      "outputs": [
        {
          "internalType": "bytes4",
          "name": "",
          "type": "bytes4"
        }
      ],
      "stateMutability": "nonpayable",
      "type": "function"
    },
    {
      "inputs": [
        {
          "internalType": "address",
          "name": "operator",
          "type": "address"
        },
        {
          "internalType": "address",
          "name": "from",
          "type": "address"
        },
        {
          "internalType": "uint256[]",
          "name": "ids",
          "type": "uint256[]"
        },
        {
          "internalType": "uint256[]",
          "name": "values",
          "type": "uint256[]"
        },
        {
          "internalType": "bytes",
          "name": "data",
          "type": "bytes"
        }
      ],
      "name": "onERC1155BatchReceived",
      "outputs": [
        {
          "internalType": "bytes4",
          "name": "",
          "type": "bytes4"
        }
      ],
      "stateMutability": "nonpayable",
      "type": "function"
    }
  ],
  "bytecode": "0x608060405260016007556040518060400160405280600581526020017f435244475f000000000000000000000000000000000000000000000000000000815250600d90805190602001906200005692919062000e34565b506040518060400160405280600481526020017f4352445f00000000000000000000000000000000000000000000000000000000815250600e9080519060200190620000a492919062000e34565b506000600f60006101000a81548160ff021916908360ff1602179055506001600f60016101000a81548160ff021916908360ff160217905550348015620000ea57600080fd5b506040518060400160405280601d81526020017f68747470733a2f2f63726f77647265636f7264732e636f6d2f7b69647d0000008152506200013281620001ce60201b60201c565b506200018733600169d3c21bcecceda10000006040518060400160405280601881526020017f68747470733a2f2f63726f77647265636f7264732e636f6d0000000000000000815250620001ea60201b60201c565b33600c60006101000a81548173ffffffffffffffffffffffffffffffffffffffff021916908373ffffffffffffffffffffffffffffffffffffffff16021790555062001744565b8060029080519060200190620001e692919062000e34565b5050565b600073ffffffffffffffffffffffffffffffffffffffff168473ffffffffffffffffffffffffffffffffffffffff1614156200025d576040517f08c379a0000000000000000000000000000000000000000000000000000000008152600401620002549062000f6b565b60405180910390fd5b60006200026f620003af60201b60201c565b9050620002a8816000876200028a88620003b760201b60201c565b6200029b88620003b760201b60201c565b876200043860201b60201c565b8260008086815260200190815260200160002060008773ffffffffffffffffffffffffffffffffffffffff1673ffffffffffffffffffffffffffffffffffffffff168152602001908152602001600020600082825462000309919062000fc6565b925050819055508473ffffffffffffffffffffffffffffffffffffffff16600073ffffffffffffffffffffffffffffffffffffffff168273ffffffffffffffffffffffffffffffffffffffff167fc3d58168c5ae7397731d063d5bbf3d657854427343f4c083240f7aacaa2d0f6287876040516200038992919062001034565b60405180910390a4620003a8816000878787876200060960201b60201c565b5050505050565b600033905090565b60606000600167ffffffffffffffff811115620003d957620003d862001061565b5b604051908082528060200260200182016040528015620004085781602001602082028036833780820191505090505b509050828160008151811062000423576200042262001090565b5b60200260200101818152505080915050919050565b7f1e530c65c538886349d61e6344d80c286bc2516e63365dbd9cc880fc2c4b53b2600b60009054906101000a900473ffffffffffffffffffffffffffffffffffffffff166040516200048b919062001104565b60405180910390a1600073ffffffffffffffffffffffffffffffffffffffff16600b60009054906101000a900473ffffffffffffffffffffffffffffffffffffffff1673ffffffffffffffffffffffffffffffffffffffff1614620005e6576000600b60009054906101000a900473ffffffffffffffffffffffffffffffffffffffff16905060005b8451811015620005e3578173ffffffffffffffffffffffffffffffffffffffff16631de841ba888887858151811062000552576200055162001090565b5b602002602001015189868151811062000570576200056f62001090565b5b60200260200101516040518563ffffffff1660e01b815260040162000599949392919062001121565b600060405180830381600087803b158015620005b457600080fd5b505af1158015620005c9573d6000803e3d6000fd5b505050508080620005da906200116e565b91505062000514565b50505b620006018686868686866200080360201b620022111760201c565b505050505050565b620006358473ffffffffffffffffffffffffffffffffffffffff166200090a60201b620022d71760201c565b15620007fb578373ffffffffffffffffffffffffffffffffffffffff1663f23a6e6187878686866040518663ffffffff1660e01b81526004016200067e95949392919062001260565b6020604051808303816000875af1925050508015620006bd57506040513d601f19601f82011682018060405250810190620006ba919062001330565b60015b6200076f57620006cc6200136f565b806308c379a01415620007305750620006e4620013ca565b80620006f1575062000732565b806040517f08c379a0000000000000000000000000000000000000000000000000000000008152600401620007279190620014b8565b60405180910390fd5b505b6040517f08c379a0000000000000000000000000000000000000000000000000000000008152600401620007669062001552565b60405180910390fd5b63f23a6e6160e01b7bffffffffffffffffffffffffffffffffffffffffffffffffffffffff1916817bffffffffffffffffffffffffffffffffffffffffffffffffffffffff191614620007f9576040517f08c379a0000000000000000000000000000000000000000000000000000000008152600401620007f090620015ea565b60405180910390fd5b505b505050505050565b600073ffffffffffffffffffffffffffffffffffffffff168573ffffffffffffffffffffffffffffffffffffffff16141562000862576200084b84846200092d60201b60201c565b6200085c8362000a0160201b60201c565b620008e7565b600073ffffffffffffffffffffffffffffffffffffffff168473ffffffffffffffffffffffffffffffffffffffff161415620008c157620008aa85846200092d60201b60201c565b620008bb8362000a0160201b60201c565b620008e6565b620008d385846200092d60201b60201c565b620008e584846200092d60201b60201c565b5b5b6200090286868686868662000a9660201b620022fa1760201c565b505050505050565b6000808273ffffffffffffffffffffffffffffffffffffffff163b119050919050565b60005b8151811015620009fc57620009e6600460008573ffffffffffffffffffffffffffffffffffffffff1673ffffffffffffffffffffffffffffffffffffffff168152602001908152602001600020600084848151811062000995576200099462001090565b5b60200260200101518152602001908152602001600020620009da85858581518110620009c657620009c562001090565b5b602002602001015162000c3760201b60201c565b62000d0360201b60201c565b8080620009f3906200116e565b91505062000930565b505050565b60005b815181101562000a925762000a7c6005600084848151811062000a2c5762000a2b62001090565b5b6020026020010151815260200190815260200160002062000a7084848151811062000a5c5762000a5b62001090565b5b602002602001015162000d8f60201b60201c565b62000d0360201b60201c565b808062000a89906200116e565b91505062000a04565b5050565b62000ab186868686868662000dac60201b620024741760201c565b600073ffffffffffffffffffffffffffffffffffffffff168573ffffffffffffffffffffffffffffffffffffffff16141562000b705760005b835181101562000b6e5782818151811062000b0a5762000b0962001090565b5b60200260200101516003600086848151811062000b2c5762000b2b62001090565b5b60200260200101518152602001908152602001600020600082825462000b53919062000fc6565b925050819055508062000b66906200116e565b905062000aea565b505b600073ffffffffffffffffffffffffffffffffffffffff168473ffffffffffffffffffffffffffffffffffffffff16141562000c2f5760005b835181101562000c2d5782818151811062000bc95762000bc862001090565b5b60200260200101516003600086848151811062000beb5762000bea62001090565b5b60200260200101518152602001908152602001600020600082825462000c1291906200160c565b925050819055508062000c25906200116e565b905062000ba9565b505b505050505050565b60008073ffffffffffffffffffffffffffffffffffffffff168373ffffffffffffffffffffffffffffffffffffffff16141562000cab576040517f08c379a000000000000000000000000000000000000000000000000000000000815260040162000ca290620016bd565b60405180910390fd5b60008083815260200190815260200160002060008473ffffffffffffffffffffffffffffffffffffffff1673ffffffffffffffffffffffffffffffffffffffff16815260200190815260200160002054905092915050565b600062000d1562000db460201b60201c565b90508062000d2c8460000162000dd260201b60201c565b101562000d8a5782600001819080600181540180825580915050600190039060005260206000200160009091909190915055826001018290806001815401808255809150506001900390600052602060002001600090919091909150555b505050565b600060036000838152602001908152602001600020549050919050565b505050505050565b600062000dcd600662000e2660201b6200247c1760201c565b905090565b6000808280549050141562000deb576000905062000e21565b816001838054905062000dff91906200160c565b8154811062000e135762000e1262001090565b5b906000526020600020015490505b919050565b600081600001549050919050565b82805462000e42906200170e565b90600052602060002090601f01602090048101928262000e66576000855562000eb2565b82601f1062000e8157805160ff191683800117855562000eb2565b8280016001018555821562000eb2579182015b8281111562000eb157825182559160200191906001019062000e94565b5b50905062000ec1919062000ec5565b5090565b5b8082111562000ee057600081600090555060010162000ec6565b5090565b600082825260208201905092915050565b7f455243313135353a206d696e7420746f20746865207a65726f2061646472657360008201527f7300000000000000000000000000000000000000000000000000000000000000602082015250565b600062000f5360218362000ee4565b915062000f608262000ef5565b604082019050919050565b6000602082019050818103600083015262000f868162000f44565b9050919050565b6000819050919050565b7f4e487b7100000000000000000000000000000000000000000000000000000000600052601160045260246000fd5b600062000fd38262000f8d565b915062000fe08362000f8d565b9250827fffffffffffffffffffffffffffffffffffffffffffffffffffffffffffffffff0382111562001018576200101762000f97565b5b828201905092915050565b6200102e8162000f8d565b82525050565b60006040820190506200104b600083018562001023565b6200105a602083018462001023565b9392505050565b7f4e487b7100000000000000000000000000000000000000000000000000000000600052604160045260246000fd5b7f4e487b7100000000000000000000000000000000000000000000000000000000600052603260045260246000fd5b600073ffffffffffffffffffffffffffffffffffffffff82169050919050565b6000620010ec82620010bf565b9050919050565b620010fe81620010df565b82525050565b60006020820190506200111b6000830184620010f3565b92915050565b6000608082019050620011386000830187620010f3565b620011476020830186620010f3565b62001156604083018562001023565b62001165606083018462001023565b95945050505050565b60006200117b8262000f8d565b91507fffffffffffffffffffffffffffffffffffffffffffffffffffffffffffffffff821415620011b157620011b062000f97565b5b600182019050919050565b600081519050919050565b600082825260208201905092915050565b60005b83811015620011f8578082015181840152602081019050620011db565b8381111562001208576000848401525b50505050565b6000601f19601f8301169050919050565b60006200122c82620011bc565b620012388185620011c7565b93506200124a818560208601620011d8565b62001255816200120e565b840191505092915050565b600060a082019050620012776000830188620010f3565b620012866020830187620010f3565b62001295604083018662001023565b620012a4606083018562001023565b8181036080830152620012b881846200121f565b90509695505050505050565b6000604051905090565b600080fd5b60007fffffffff0000000000000000000000000000000000000000000000000000000082169050919050565b6200130a81620012d3565b81146200131657600080fd5b50565b6000815190506200132a81620012ff565b92915050565b600060208284031215620013495762001348620012ce565b5b6000620013598482850162001319565b91505092915050565b60008160e01c9050919050565b600060033d1115620013915760046000803e6200138e60005162001362565b90505b90565b6200139f826200120e565b810181811067ffffffffffffffff82111715620013c157620013c062001061565b5b80604052505050565b600060443d1015620013dc5762001469565b620013e6620012c4565b60043d036004823e80513d602482011167ffffffffffffffff821117156200141057505062001469565b808201805167ffffffffffffffff81111562001430575050505062001469565b80602083010160043d0385018111156200144f57505050505062001469565b620014608260200185018662001394565b82955050505050505b90565b600081519050919050565b600062001484826200146c565b62001490818562000ee4565b9350620014a2818560208601620011d8565b620014ad816200120e565b840191505092915050565b60006020820190508181036000830152620014d4818462001477565b905092915050565b7f455243313135353a207472616e7366657220746f206e6f6e204552433131353560008201527f526563656976657220696d706c656d656e746572000000000000000000000000602082015250565b60006200153a60348362000ee4565b91506200154782620014dc565b604082019050919050565b600060208201905081810360008301526200156d816200152b565b9050919050565b7f455243313135353a204552433131353552656365697665722072656a6563746560008201527f6420746f6b656e73000000000000000000000000000000000000000000000000602082015250565b6000620015d260288362000ee4565b9150620015df8262001574565b604082019050919050565b600060208201905081810360008301526200160581620015c3565b9050919050565b6000620016198262000f8d565b9150620016268362000f8d565b9250828210156200163c576200163b62000f97565b5b828203905092915050565b7f455243313135353a2062616c616e636520717565727920666f7220746865207a60008201527f65726f2061646472657373000000000000000000000000000000000000000000602082015250565b6000620016a5602b8362000ee4565b9150620016b28262001647565b604082019050919050565b60006020820190508181036000830152620016d88162001696565b9050919050565b7f4e487b7100000000000000000000000000000000000000000000000000000000600052602260045260246000fd5b600060028204905060018216806200172757607f821691505b602082108114156200173e576200173d620016df565b5b50919050565b615bba80620017546000396000f3fe6080604052600436106101ed5760003560e01c80638fbf353f1161010d578063bd85b039116100a0578063e6870f951161006f578063e6870f951461075c578063e6acd9b814610787578063e985e9c5146107b2578063f23a6e61146107ef578063f242432a1461082c576101ed565b8063bd85b03914610689578063cceaf625146106c6578063d6ca40a7146106f6578063dfe813eb14610733576101ed565b8063af670769116100dc578063af670769146105cd578063b875e13a146105f8578063ba19a67514610621578063bc197c811461064c576101ed565b80638fbf353f146105325780639711715a1461054e578063a22cb46514610579578063a77d38fa146105a2576101ed565b80633686804911610185578063626da06811610154578063626da0681461046c5780636d15dd2c146104a95780638388f413146104d95780638aa7a8b0146104f5576101ed565b8063368680491461039e5780634e1273f4146103c95780634f558e79146104065780636055c85514610443576101ed565b806321aa2ccf116101c157806321aa2ccf146102e65780632d4a03821461030f5780632eb2c2d61461034c57806334a7c2e714610375576101ed565b8062fdd58e146101f257806301ffc9a71461022f578063036c22ad1461026c5780630e89341c146102a9575b600080fd5b3480156101fe57600080fd5b5061021960048036038101906102149190613a7e565b610855565b6040516102269190613acd565b60405180910390f35b34801561023b57600080fd5b5061025660048036038101906102519190613b40565b61091e565b6040516102639190613b88565b60405180910390f35b34801561027857600080fd5b50610293600480360381019061028e9190613ba3565b610a00565b6040516102a09190613acd565b60405180910390f35b3480156102b557600080fd5b506102d060048036038101906102cb9190613ba3565b610a29565b6040516102dd9190613c69565b60405180910390f35b3480156102f257600080fd5b5061030d60048036038101906103089190613c8b565b610abd565b005b34801561031b57600080fd5b5061033660048036038101906103319190613ba3565b610b91565b6040516103439190613acd565b60405180910390f35b34801561035857600080fd5b50610373600480360381019061036e9190613eb5565b610d68565b005b34801561038157600080fd5b5061039c60048036038101906103979190613f84565b610e09565b005b3480156103aa57600080fd5b506103b3610f17565b6040516103c09190613fd3565b60405180910390f35b3480156103d557600080fd5b506103f060048036038101906103eb91906140b1565b610f3d565b6040516103fd91906141e7565b60405180910390f35b34801561041257600080fd5b5061042d60048036038101906104289190613ba3565b611056565b60405161043a9190613b88565b60405180910390f35b34801561044f57600080fd5b5061046a60048036038101906104659190613c8b565b61106a565b005b34801561047857600080fd5b50610493600480360381019061048e9190614209565b61113e565b6040516104a09190613acd565b60405180910390f35b6104c360048036038101906104be91906143cb565b6111c1565b6040516104d09190613acd565b60405180910390f35b6104f360048036038101906104ee9190614414565b611516565b005b34801561050157600080fd5b5061051c60048036038101906105179190613f84565b611692565b6040516105299190613acd565b60405180910390f35b61054c6004803603810190610547919061448f565b6116d6565b005b34801561055a57600080fd5b506105636118e0565b6040516105709190613acd565b60405180910390f35b34801561058557600080fd5b506105a0600480360381019061059b919061450e565b6118ef565b005b3480156105ae57600080fd5b506105b7611905565b6040516105c49190613acd565b60405180910390f35b3480156105d957600080fd5b506105e2611914565b6040516105ef9190613fd3565b60405180910390f35b34801561060457600080fd5b5061061f600480360381019061061a9190613c8b565b61193a565b005b34801561062d57600080fd5b50610636611a0e565b6040516106439190613fd3565b60405180910390f35b34801561065857600080fd5b50610673600480360381019061066e91906145ff565b611a34565b60405161068091906146ea565b60405180910390f35b34801561069557600080fd5b506106b060048036038101906106ab9190613ba3565b611a65565b6040516106bd9190613acd565b60405180910390f35b6106e060048036038101906106db91906143cb565b611a82565b6040516106ed9190613acd565b60405180910390f35b34801561070257600080fd5b5061071d60048036038101906107189190613ba3565b611dd7565b60405161072a9190613acd565b60405180910390f35b34801561073f57600080fd5b5061075a60048036038101906107559190613c8b565b611fae565b005b34801561076857600080fd5b50610771612082565b60405161077e9190613fd3565b60405180910390f35b34801561079357600080fd5b5061079c6120a8565b6040516107a99190613acd565b60405180910390f35b3480156107be57600080fd5b506107d960048036038101906107d49190614705565b6120ad565b6040516107e69190613b88565b60405180910390f35b3480156107fb57600080fd5b5061081660048036038101906108119190614745565b612141565b60405161082391906146ea565b60405180910390f35b34801561083857600080fd5b50610853600480360381019061084e91906147df565b612170565b005b60008073ffffffffffffffffffffffffffffffffffffffff168373ffffffffffffffffffffffffffffffffffffffff1614156108c6576040517f08c379a00000000000000000000000000000000000000000000000000000000081526004016108bd906148e8565b60405180910390fd5b60008083815260200190815260200160002060008473ffffffffffffffffffffffffffffffffffffffff1673ffffffffffffffffffffffffffffffffffffffff16815260200190815260200160002054905092915050565b60007fd9b67a26000000000000000000000000000000000000000000000000000000007bffffffffffffffffffffffffffffffffffffffffffffffffffffffff1916827bffffffffffffffffffffffffffffffffffffffffffffffffffffffff191614806109e957507f0e89341c000000000000000000000000000000000000000000000000000000007bffffffffffffffffffffffffffffffffffffffffffffffffffffffff1916827bffffffffffffffffffffffffffffffffffffffffffffffffffffffff1916145b806109f957506109f88261248a565b5b9050919050565b600080610a1e610a0f84611a65565b610a193086610855565b6124f4565b905080915050919050565b606060028054610a3890614937565b80601f0160208091040260200160405190810160405280929190818152602001828054610a6490614937565b8015610ab15780601f10610a8657610100808354040283529160200191610ab1565b820191906000526020600020905b815481529060010190602001808311610a9457829003601f168201915b50505050509050919050565b600c60009054906101000a900473ffffffffffffffffffffffffffffffffffffffff1673ffffffffffffffffffffffffffffffffffffffff163373ffffffffffffffffffffffffffffffffffffffff1614610b4d576040517f08c379a0000000000000000000000000000000000000000000000000000000008152600401610b44906149db565b60405180910390fd5b80600a60006101000a81548173ffffffffffffffffffffffffffffffffffffffff021916908373ffffffffffffffffffffffffffffffffffffffff16021790555050565b600080601160008481526020019081526020016000206040518060c001604052908160008201548152602001600182018054610bcc90614937565b80601f0160208091040260200160405190810160405280929190818152602001828054610bf890614937565b8015610c455780601f10610c1a57610100808354040283529160200191610c45565b820191906000526020600020905b815481529060010190602001808311610c2857829003601f168201915b50505050508152602001600282018054610c5e90614937565b80601f0160208091040260200160405190810160405280929190818152602001828054610c8a90614937565b8015610cd75780601f10610cac57610100808354040283529160200191610cd7565b820191906000526020600020905b815481529060010190602001808311610cba57829003601f168201915b50505050508152602001600382015481526020016004820160009054906101000a900460ff161515151581526020016005820154815250509050806080015115610d28578060a00151915050610d63565b6040517f08c379a0000000000000000000000000000000000000000000000000000000008152600401610d5a90614a47565b60405180910390fd5b919050565b610d7061250a565b73ffffffffffffffffffffffffffffffffffffffff168573ffffffffffffffffffffffffffffffffffffffff161480610db65750610db585610db061250a565b6120ad565b5b610df5576040517f08c379a0000000000000000000000000000000000000000000000000000000008152600401610dec90614ad9565b60405180910390fd5b610e028585858585612512565b5050505050565b600a60009054906101000a900473ffffffffffffffffffffffffffffffffffffffff1673ffffffffffffffffffffffffffffffffffffffff163373ffffffffffffffffffffffffffffffffffffffff1614610e99576040517f08c379a0000000000000000000000000000000000000000000000000000000008152600401610e90906149db565b60405180910390fd5b7fbd081248c2d094d540df808ba4c32d0c72ce21dfa07cffca4b76df49f2924a018183604051610eca929190614af9565b60405180910390a1610f133083836040518060400160405280601181526020017f4e657720746f6b656e73206d696e746564000000000000000000000000000000815250612826565b5050565b600b60009054906101000a900473ffffffffffffffffffffffffffffffffffffffff1681565b60608151835114610f83576040517f08c379a0000000000000000000000000000000000000000000000000000000008152600401610f7a90614b94565b60405180910390fd5b6000835167ffffffffffffffff811115610fa057610f9f613cbd565b5b604051908082528060200260200182016040528015610fce5781602001602082028036833780820191505090505b50905060005b845181101561104b5761101b858281518110610ff357610ff2614bb4565b5b602002602001015185838151811061100e5761100d614bb4565b5b6020026020010151610855565b82828151811061102e5761102d614bb4565b5b6020026020010181815250508061104490614c12565b9050610fd4565b508091505092915050565b60008061106283611a65565b119050919050565b600c60009054906101000a900473ffffffffffffffffffffffffffffffffffffffff1673ffffffffffffffffffffffffffffffffffffffff163373ffffffffffffffffffffffffffffffffffffffff16146110fa576040517f08c379a00000000000000000000000000000000000000000000000000000000081526004016110f1906149db565b60405180910390fd5b80600960006101000a81548173ffffffffffffffffffffffffffffffffffffffff021916908373ffffffffffffffffffffffffffffffffffffffff16021790555050565b600080600061119c85600460008973ffffffffffffffffffffffffffffffffffffffff1673ffffffffffffffffffffffffffffffffffffffff16815260200190815260200160002060008781526020019081526020016000206129bc565b91509150816111b4576111af8685610855565b6111b6565b805b925050509392505050565b6000818060400151600282602001516111da9190614c8a565b1161121a576040517f08c379a000000000000000000000000000000000000000000000000000000000815260040161121190614d2d565b60405180910390fd5b6000600860009054906101000a900473ffffffffffffffffffffffffffffffffffffffff16905060008173ffffffffffffffffffffffffffffffffffffffff1662fdd58e3385600001516040518363ffffffff1660e01b8152600401611281929190614d4d565b602060405180830381865afa15801561129e573d6000803e3d6000fd5b505050506040513d601f19601f820116820180604052508101906112c29190614d8b565b905060008111611307576040517f08c379a00000000000000000000000000000000000000000000000000000000081526004016112fe90614e2a565b60405180910390fd5b6000600e60405160200161131b9190614ee9565b6040516020818303038152906040529050808660600151604051602001611343929190614f78565b60405160208183030381529060405286606001819052505060001515601160008760000151815260200190815260200160002060040160009054906101000a900460ff161515146113c9576040517f08c379a00000000000000000000000000000000000000000000000000000000081526004016113c09061500e565b60405180910390fd5b60001515601386606001516040516113e1919061502e565b908152602001604051809103902060009054906101000a900460ff1615151461143f576040517f08c379a0000000000000000000000000000000000000000000000000000000008152600401611436906150b7565b60405180910390fd5b6007600081548092919061145290614c12565b9190505550600060075490506114788682600f60009054906101000a900460ff16612ab2565b60116000886000015181526020019081526020016000206000820151816000015560208201518160010190805190602001906114b59291906138fb565b5060408201518160020190805190602001906114d29291906138fb565b506060820151816003015560808201518160040160006101000a81548160ff02191690831515021790555060a0820151816005015590505080945050505050919050565b600960009054906101000a900473ffffffffffffffffffffffffffffffffffffffff1673ffffffffffffffffffffffffffffffffffffffff163373ffffffffffffffffffffffffffffffffffffffff16146115a6576040517f08c379a000000000000000000000000000000000000000000000000000000000815260040161159d906149db565b60405180910390fd5b6115d430600960009054906101000a900473ffffffffffffffffffffffffffffffffffffffff166001612bb5565b60008211156116105761160f308660106000888152602001908152602001600020600501548560405180602001604052806000815250612170565b5b600081111561164c5761164b308660116000888152602001908152602001600020600501548460405180602001604052806000815250612170565b5b7f95d0edb8d2174cb0f1294749b563fa9ac6c9e441ef6a0202f6e8e52028643dfd85858585856040516116839594939291906150d7565b60405180910390a15050505050565b60008060006116b385600560008781526020019081526020016000206129bc565b91509150816116ca576116c584611a65565b6116cc565b805b9250505092915050565b600960009054906101000a900473ffffffffffffffffffffffffffffffffffffffff1673ffffffffffffffffffffffffffffffffffffffff163373ffffffffffffffffffffffffffffffffffffffff1614611766576040517f08c379a000000000000000000000000000000000000000000000000000000000815260040161175d906149db565b60405180910390fd5b600115156011600085815260200190815260200160002060040160009054906101000a900460ff16151514806117c35750600115156010600085815260200190815260200160002060040160009054906101000a900460ff161515145b611802576040517f08c379a00000000000000000000000000000000000000000000000000000000081526004016117f990615176565b60405180910390fd5b816011600085815260200190815260200160002060050154148061183b5750816010600085815260200190815260200160002060050154145b61187a576040517f08c379a0000000000000000000000000000000000000000000000000000000008152600401611871906151e2565b60405180910390fd5b61189e308383604051806060016040528060238152602001615b6260239139612826565b7f81e0b881b9c6ff93955a4a996cc01472b2cdc1a1663af072fa5ca7db7f127de2838342846040516118d39493929190615202565b60405180910390a1505050565b60006118ea612d22565b905090565b6119016118fa61250a565b8383612bb5565b5050565b600061190f612d22565b905090565b600960009054906101000a900473ffffffffffffffffffffffffffffffffffffffff1681565b600c60009054906101000a900473ffffffffffffffffffffffffffffffffffffffff1673ffffffffffffffffffffffffffffffffffffffff163373ffffffffffffffffffffffffffffffffffffffff16146119ca576040517f08c379a00000000000000000000000000000000000000000000000000000000081526004016119c1906149db565b60405180910390fd5b80600b60006101000a81548173ffffffffffffffffffffffffffffffffffffffff021916908373ffffffffffffffffffffffffffffffffffffffff16021790555050565b600860009054906101000a900473ffffffffffffffffffffffffffffffffffffffff1681565b60007fbc197c819b3e337a6f9652dd10becd7eef83032af3b9d958d3d42f6694146621905098975050505050505050565b600060036000838152602001908152602001600020549050919050565b600081806040015160028260200151611a9b9190614c8a565b11611adb576040517f08c379a0000000000000000000000000000000000000000000000000000000008152600401611ad290614d2d565b60405180910390fd5b6000600860009054906101000a900473ffffffffffffffffffffffffffffffffffffffff16905060008173ffffffffffffffffffffffffffffffffffffffff1662fdd58e3385600001516040518363ffffffff1660e01b8152600401611b42929190614d4d565b602060405180830381865afa158015611b5f573d6000803e3d6000fd5b505050506040513d601f19601f82011682018060405250810190611b839190614d8b565b905060008111611bc8576040517f08c379a0000000000000000000000000000000000000000000000000000000008152600401611bbf90614e2a565b60405180910390fd5b6000600d604051602001611bdc9190614ee9565b6040516020818303038152906040529050808660600151604051602001611c04929190614f78565b60405160208183030381529060405286606001819052505060001515601060008760000151815260200190815260200160002060040160009054906101000a900460ff16151514611c8a576040517f08c379a0000000000000000000000000000000000000000000000000000000008152600401611c819061500e565b60405180910390fd5b6000151560128660600151604051611ca2919061502e565b908152602001604051809103902060009054906101000a900460ff16151514611d00576040517f08c379a0000000000000000000000000000000000000000000000000000000008152600401611cf7906150b7565b60405180910390fd5b60076000815480929190611d1390614c12565b919050555060006007549050611d398682600f60019054906101000a900460ff16612ab2565b6010600088600001518152602001908152602001600020600082015181600001556020820151816001019080519060200190611d769291906138fb565b506040820151816002019080519060200190611d939291906138fb565b506060820151816003015560808201518160040160006101000a81548160ff02191690831515021790555060a0820151816005015590505080945050505050919050565b600080601060008481526020019081526020016000206040518060c001604052908160008201548152602001600182018054611e1290614937565b80601f0160208091040260200160405190810160405280929190818152602001828054611e3e90614937565b8015611e8b5780601f10611e6057610100808354040283529160200191611e8b565b820191906000526020600020905b815481529060010190602001808311611e6e57829003601f168201915b50505050508152602001600282018054611ea490614937565b80601f0160208091040260200160405190810160405280929190818152602001828054611ed090614937565b8015611f1d5780601f10611ef257610100808354040283529160200191611f1d565b820191906000526020600020905b815481529060010190602001808311611f0057829003601f168201915b50505050508152602001600382015481526020016004820160009054906101000a900460ff161515151581526020016005820154815250509050806080015115611f6e578060a00151915050611fa9565b6040517f08c379a0000000000000000000000000000000000000000000000000000000008152600401611fa090614a47565b60405180910390fd5b919050565b600c60009054906101000a900473ffffffffffffffffffffffffffffffffffffffff1673ffffffffffffffffffffffffffffffffffffffff163373ffffffffffffffffffffffffffffffffffffffff161461203e576040517f08c379a0000000000000000000000000000000000000000000000000000000008152600401612035906149db565b60405180910390fd5b80600860006101000a81548173ffffffffffffffffffffffffffffffffffffffff021916908373ffffffffffffffffffffffffffffffffffffffff16021790555050565b600a60009054906101000a900473ffffffffffffffffffffffffffffffffffffffff1681565b600181565b6000600160008473ffffffffffffffffffffffffffffffffffffffff1673ffffffffffffffffffffffffffffffffffffffff16815260200190815260200160002060008373ffffffffffffffffffffffffffffffffffffffff1673ffffffffffffffffffffffffffffffffffffffff16815260200190815260200160002060009054906101000a900460ff16905092915050565b60007ff23a6e612e1ff4830e658fe43f4e3cb4a5f8170bd5d9e69fb5d7a7fa9e4fdf9790509695505050505050565b61217861250a565b73ffffffffffffffffffffffffffffffffffffffff168573ffffffffffffffffffffffffffffffffffffffff1614806121be57506121bd856121b861250a565b6120ad565b5b6121fd576040517f08c379a00000000000000000000000000000000000000000000000000000000081526004016121f4906152b9565b60405180910390fd5b61220a8585858585612d78565b5050505050565b600073ffffffffffffffffffffffffffffffffffffffff168573ffffffffffffffffffffffffffffffffffffffff16141561225e576122508484612ffa565b612259836130b4565b6122c1565b600073ffffffffffffffffffffffffffffffffffffffff168473ffffffffffffffffffffffffffffffffffffffff1614156122ab5761229d8584612ffa565b6122a6836130b4565b6122c0565b6122b58584612ffa565b6122bf8484612ffa565b5b5b6122cf8686868686866122fa565b505050505050565b6000808273ffffffffffffffffffffffffffffffffffffffff163b119050919050565b612308868686868686612474565b600073ffffffffffffffffffffffffffffffffffffffff168573ffffffffffffffffffffffffffffffffffffffff1614156123ba5760005b83518110156123b85782818151811061235c5761235b614bb4565b5b60200260200101516003600086848151811061237b5761237a614bb4565b5b6020026020010151815260200190815260200160002060008282546123a091906152d9565b92505081905550806123b190614c12565b9050612340565b505b600073ffffffffffffffffffffffffffffffffffffffff168473ffffffffffffffffffffffffffffffffffffffff16141561246c5760005b835181101561246a5782818151811061240e5761240d614bb4565b5b60200260200101516003600086848151811061242d5761242c614bb4565b5b602002602001015181526020019081526020016000206000828254612452919061532f565b925050819055508061246390614c12565b90506123f2565b505b505050505050565b505050505050565b600081600001549050919050565b60007f01ffc9a7000000000000000000000000000000000000000000000000000000007bffffffffffffffffffffffffffffffffffffffffffffffffffffffff1916827bffffffffffffffffffffffffffffffffffffffffffffffffffffffff1916149050919050565b60008183612502919061532f565b905092915050565b600033905090565b8151835114612556576040517f08c379a000000000000000000000000000000000000000000000000000000000815260040161254d906153d5565b60405180910390fd5b600073ffffffffffffffffffffffffffffffffffffffff168473ffffffffffffffffffffffffffffffffffffffff1614156125c6576040517f08c379a00000000000000000000000000000000000000000000000000000000081526004016125bd90615467565b60405180910390fd5b60006125d061250a565b90506125e081878787878761312f565b60005b845181101561279157600085828151811061260157612600614bb4565b5b6020026020010151905060008583815181106126205761261f614bb4565b5b60200260200101519050600080600084815260200190815260200160002060008b73ffffffffffffffffffffffffffffffffffffffff1673ffffffffffffffffffffffffffffffffffffffff168152602001908152602001600020549050818110156126c1576040517f08c379a00000000000000000000000000000000000000000000000000000000081526004016126b8906154f9565b60405180910390fd5b81810360008085815260200190815260200160002060008c73ffffffffffffffffffffffffffffffffffffffff1673ffffffffffffffffffffffffffffffffffffffff168152602001908152602001600020819055508160008085815260200190815260200160002060008b73ffffffffffffffffffffffffffffffffffffffff1673ffffffffffffffffffffffffffffffffffffffff168152602001908152602001600020600082825461277691906152d9565b925050819055505050508061278a90614c12565b90506125e3565b508473ffffffffffffffffffffffffffffffffffffffff168673ffffffffffffffffffffffffffffffffffffffff168273ffffffffffffffffffffffffffffffffffffffff167f4a39dc06d4c0dbc64b70af90fd698a233a518aa5d07e595d983b8c0526c8f7fb8787604051612808929190615519565b60405180910390a461281e8187878787876132e2565b505050505050565b600073ffffffffffffffffffffffffffffffffffffffff168473ffffffffffffffffffffffffffffffffffffffff161415612896576040517f08c379a000000000000000000000000000000000000000000000000000000000815260040161288d906155c2565b60405180910390fd5b60006128a061250a565b90506128c1816000876128b2886134ba565b6128bb886134ba565b8761312f565b8260008086815260200190815260200160002060008773ffffffffffffffffffffffffffffffffffffffff1673ffffffffffffffffffffffffffffffffffffffff168152602001908152602001600020600082825461292091906152d9565b925050819055508473ffffffffffffffffffffffffffffffffffffffff16600073ffffffffffffffffffffffffffffffffffffffff168273ffffffffffffffffffffffffffffffffffffffff167fc3d58168c5ae7397731d063d5bbf3d657854427343f4c083240f7aacaa2d0f62878760405161299e929190614af9565b60405180910390a46129b581600087878787613534565b5050505050565b60008060008411612a02576040517f08c379a00000000000000000000000000000000000000000000000000000000081526004016129f99061562e565b60405180910390fd5b612a0a61370c565b841115612a4c576040517f08c379a0000000000000000000000000000000000000000000000000000000008152600401612a439061569a565b60405180910390fd5b6000612a64858560000161371d90919063ffffffff16565b90508360000180549050811415612a82576000809250925050612aab565b6001846001018281548110612a9a57612a99614bb4565b5b906000526020600020015492509250505b9250929050565b612aba613981565b600084604001518560200151612ad0919061532f565b9050600085604001519050612af630868460405180602001604052806000815250612826565b612b1133868360405180602001604052806000815250612826565b60006040518060c001604052808860000151815260200188606001518152602001886080015181526020014281526020016001151581526020018781525090507f49debfc18817e7e3ec2948391bcc3a87349b3c716f7d470d223bfbf8928aa65a87600001518860600151896080015184606001518b602001518b8b604051612ba097969594939291906156d6565b60405180910390a18093505050509392505050565b8173ffffffffffffffffffffffffffffffffffffffff168373ffffffffffffffffffffffffffffffffffffffff161415612c24576040517f08c379a0000000000000000000000000000000000000000000000000000000008152600401612c1b906157c5565b60405180910390fd5b80600160008573ffffffffffffffffffffffffffffffffffffffff1673ffffffffffffffffffffffffffffffffffffffff16815260200190815260200160002060008473ffffffffffffffffffffffffffffffffffffffff1673ffffffffffffffffffffffffffffffffffffffff16815260200190815260200160002060006101000a81548160ff0219169083151502179055508173ffffffffffffffffffffffffffffffffffffffff168373ffffffffffffffffffffffffffffffffffffffff167f17307eab39ab6107e8899845ad3d59bd9653f200f220920489ca2b5937696c3183604051612d159190613b88565b60405180910390a3505050565b6000612d2e60066137f7565b6000612d3861370c565b90507f8030e83b04d87bef53480e26263266d6ca66863aa8506aca6f2559d18aa1cb6781604051612d699190613acd565b60405180910390a18091505090565b600073ffffffffffffffffffffffffffffffffffffffff168473ffffffffffffffffffffffffffffffffffffffff161415612de8576040517f08c379a0000000000000000000000000000000000000000000000000000000008152600401612ddf90615467565b60405180910390fd5b6000612df261250a565b9050612e12818787612e03886134ba565b612e0c886134ba565b8761312f565b600080600086815260200190815260200160002060008873ffffffffffffffffffffffffffffffffffffffff1673ffffffffffffffffffffffffffffffffffffffff16815260200190815260200160002054905083811015612ea9576040517f08c379a0000000000000000000000000000000000000000000000000000000008152600401612ea0906154f9565b60405180910390fd5b83810360008087815260200190815260200160002060008973ffffffffffffffffffffffffffffffffffffffff1673ffffffffffffffffffffffffffffffffffffffff168152602001908152602001600020819055508360008087815260200190815260200160002060008873ffffffffffffffffffffffffffffffffffffffff1673ffffffffffffffffffffffffffffffffffffffff1681526020019081526020016000206000828254612f5e91906152d9565b925050819055508573ffffffffffffffffffffffffffffffffffffffff168773ffffffffffffffffffffffffffffffffffffffff168373ffffffffffffffffffffffffffffffffffffffff167fc3d58168c5ae7397731d063d5bbf3d657854427343f4c083240f7aacaa2d0f628888604051612fdb929190614af9565b60405180910390a4612ff1828888888888613534565b50505050505050565b60005b81518110156130af5761309c600460008573ffffffffffffffffffffffffffffffffffffffff1673ffffffffffffffffffffffffffffffffffffffff168152602001908152602001600020600084848151811061305d5761305c614bb4565b5b602002602001015181526020019081526020016000206130978585858151811061308a57613089614bb4565b5b6020026020010151610855565b61380d565b80806130a790614c12565b915050612ffd565b505050565b60005b815181101561312b57613118600560008484815181106130da576130d9614bb4565b5b6020026020010151815260200190815260200160002061311384848151811061310657613105614bb4565b5b6020026020010151611a65565b61380d565b808061312390614c12565b9150506130b7565b5050565b7f1e530c65c538886349d61e6344d80c286bc2516e63365dbd9cc880fc2c4b53b2600b60009054906101000a900473ffffffffffffffffffffffffffffffffffffffff166040516131809190613fd3565b60405180910390a1600073ffffffffffffffffffffffffffffffffffffffff16600b60009054906101000a900473ffffffffffffffffffffffffffffffffffffffff1673ffffffffffffffffffffffffffffffffffffffff16146132cc576000600b60009054906101000a900473ffffffffffffffffffffffffffffffffffffffff16905060005b84518110156132c9578173ffffffffffffffffffffffffffffffffffffffff16631de841ba888887858151811061324257613241614bb4565b5b602002602001015189868151811061325d5761325c614bb4565b5b60200260200101516040518563ffffffff1660e01b815260040161328494939291906157e5565b600060405180830381600087803b15801561329e57600080fd5b505af11580156132b2573d6000803e3d6000fd5b5050505080806132c190614c12565b915050613208565b50505b6132da868686868686612211565b505050505050565b6133018473ffffffffffffffffffffffffffffffffffffffff166122d7565b156134b2578373ffffffffffffffffffffffffffffffffffffffff1663bc197c8187878686866040518663ffffffff1660e01b8152600401613347959493929190615874565b6020604051808303816000875af192505050801561338357506040513d601f19601f8201168201806040525081019061338091906158f1565b60015b6134295761338f61592b565b806308c379a014156133ec57506133a461594d565b806133af57506133ee565b806040517f08c379a00000000000000000000000000000000000000000000000000000000081526004016133e39190613c69565b60405180910390fd5b505b6040517f08c379a000000000000000000000000000000000000000000000000000000000815260040161342090615a55565b60405180910390fd5b63bc197c8160e01b7bffffffffffffffffffffffffffffffffffffffffffffffffffffffff1916817bffffffffffffffffffffffffffffffffffffffffffffffffffffffff1916146134b0576040517f08c379a00000000000000000000000000000000000000000000000000000000081526004016134a790615ae7565b60405180910390fd5b505b505050505050565b60606000600167ffffffffffffffff8111156134d9576134d8613cbd565b5b6040519080825280602002602001820160405280156135075781602001602082028036833780820191505090505b509050828160008151811061351f5761351e614bb4565b5b60200260200101818152505080915050919050565b6135538473ffffffffffffffffffffffffffffffffffffffff166122d7565b15613704578373ffffffffffffffffffffffffffffffffffffffff1663f23a6e6187878686866040518663ffffffff1660e01b8152600401613599959493929190615b07565b6020604051808303816000875af19250505080156135d557506040513d601f19601f820116820180604052508101906135d291906158f1565b60015b61367b576135e161592b565b806308c379a0141561363e57506135f661594d565b806136015750613640565b806040517f08c379a00000000000000000000000000000000000000000000000000000000081526004016136359190613c69565b60405180910390fd5b505b6040517f08c379a000000000000000000000000000000000000000000000000000000000815260040161367290615a55565b60405180910390fd5b63f23a6e6160e01b7bffffffffffffffffffffffffffffffffffffffffffffffffffffffff1916817bffffffffffffffffffffffffffffffffffffffffffffffffffffffff191614613702576040517f08c379a00000000000000000000000000000000000000000000000000000000081526004016136f990615ae7565b60405180910390fd5b505b505050505050565b6000613718600661247c565b905090565b6000808380549050141561373457600090506137f1565b600080848054905090505b808210156137985760006137538383613888565b90508486828154811061376957613768614bb4565b5b9060005260206000200154111561378257809150613792565b60018161378f91906152d9565b92505b5061373f565b6000821180156137d0575083856001846137b2919061532f565b815481106137c3576137c2614bb4565b5b9060005260206000200154145b156137eb576001826137e2919061532f565b925050506137f1565b81925050505b92915050565b6001816000016000828254019250508190555050565b600061381761370c565b905080613826846000016138ae565b10156138835782600001819080600181540180825580915050600190039060005260206000200160009091909190915055826001018290806001815401808255809150506001900390600052602060002001600090919091909150555b505050565b600060028284186138999190614c8a565b8284166138a691906152d9565b905092915050565b600080828054905014156138c557600090506138f6565b81600183805490506138d7919061532f565b815481106138e8576138e7614bb4565b5b906000526020600020015490505b919050565b82805461390790614937565b90600052602060002090601f0160209004810192826139295760008555613970565b82601f1061394257805160ff1916838001178555613970565b82800160010185558215613970579182015b8281111561396f578251825591602001919060010190613954565b5b50905061397d91906139b9565b5090565b6040518060c0016040528060008152602001606081526020016060815260200160008152602001600015158152602001600081525090565b5b808211156139d25760008160009055506001016139ba565b5090565b6000604051905090565b600080fd5b600080fd5b600073ffffffffffffffffffffffffffffffffffffffff82169050919050565b6000613a15826139ea565b9050919050565b613a2581613a0a565b8114613a3057600080fd5b50565b600081359050613a4281613a1c565b92915050565b6000819050919050565b613a5b81613a48565b8114613a6657600080fd5b50565b600081359050613a7881613a52565b92915050565b60008060408385031215613a9557613a946139e0565b5b6000613aa385828601613a33565b9250506020613ab485828601613a69565b9150509250929050565b613ac781613a48565b82525050565b6000602082019050613ae26000830184613abe565b92915050565b60007fffffffff0000000000000000000000000000000000000000000000000000000082169050919050565b613b1d81613ae8565b8114613b2857600080fd5b50565b600081359050613b3a81613b14565b92915050565b600060208284031215613b5657613b556139e0565b5b6000613b6484828501613b2b565b91505092915050565b60008115159050919050565b613b8281613b6d565b82525050565b6000602082019050613b9d6000830184613b79565b92915050565b600060208284031215613bb957613bb86139e0565b5b6000613bc784828501613a69565b91505092915050565b600081519050919050565b600082825260208201905092915050565b60005b83811015613c0a578082015181840152602081019050613bef565b83811115613c19576000848401525b50505050565b6000601f19601f8301169050919050565b6000613c3b82613bd0565b613c458185613bdb565b9350613c55818560208601613bec565b613c5e81613c1f565b840191505092915050565b60006020820190508181036000830152613c838184613c30565b905092915050565b600060208284031215613ca157613ca06139e0565b5b6000613caf84828501613a33565b91505092915050565b600080fd5b7f4e487b7100000000000000000000000000000000000000000000000000000000600052604160045260246000fd5b613cf582613c1f565b810181811067ffffffffffffffff82111715613d1457613d13613cbd565b5b80604052505050565b6000613d276139d6565b9050613d338282613cec565b919050565b600067ffffffffffffffff821115613d5357613d52613cbd565b5b602082029050602081019050919050565b600080fd5b6000613d7c613d7784613d38565b613d1d565b90508083825260208201905060208402830185811115613d9f57613d9e613d64565b5b835b81811015613dc85780613db48882613a69565b845260208401935050602081019050613da1565b5050509392505050565b600082601f830112613de757613de6613cb8565b5b8135613df7848260208601613d69565b91505092915050565b600080fd5b600067ffffffffffffffff821115613e2057613e1f613cbd565b5b613e2982613c1f565b9050602081019050919050565b82818337600083830152505050565b6000613e58613e5384613e05565b613d1d565b905082815260208101848484011115613e7457613e73613e00565b5b613e7f848285613e36565b509392505050565b600082601f830112613e9c57613e9b613cb8565b5b8135613eac848260208601613e45565b91505092915050565b600080600080600060a08688031215613ed157613ed06139e0565b5b6000613edf88828901613a33565b9550506020613ef088828901613a33565b945050604086013567ffffffffffffffff811115613f1157613f106139e5565b5b613f1d88828901613dd2565b935050606086013567ffffffffffffffff811115613f3e57613f3d6139e5565b5b613f4a88828901613dd2565b925050608086013567ffffffffffffffff811115613f6b57613f6a6139e5565b5b613f7788828901613e87565b9150509295509295909350565b60008060408385031215613f9b57613f9a6139e0565b5b6000613fa985828601613a69565b9250506020613fba85828601613a69565b9150509250929050565b613fcd81613a0a565b82525050565b6000602082019050613fe86000830184613fc4565b92915050565b600067ffffffffffffffff82111561400957614008613cbd565b5b602082029050602081019050919050565b600061402d61402884613fee565b613d1d565b905080838252602082019050602084028301858111156140505761404f613d64565b5b835b8181101561407957806140658882613a33565b845260208401935050602081019050614052565b5050509392505050565b600082601f83011261409857614097613cb8565b5b81356140a884826020860161401a565b91505092915050565b600080604083850312156140c8576140c76139e0565b5b600083013567ffffffffffffffff8111156140e6576140e56139e5565b5b6140f285828601614083565b925050602083013567ffffffffffffffff811115614113576141126139e5565b5b61411f85828601613dd2565b9150509250929050565b600081519050919050565b600082825260208201905092915050565b6000819050602082019050919050565b61415e81613a48565b82525050565b60006141708383614155565b60208301905092915050565b6000602082019050919050565b600061419482614129565b61419e8185614134565b93506141a983614145565b8060005b838110156141da5781516141c18882614164565b97506141cc8361417c565b9250506001810190506141ad565b5085935050505092915050565b600060208201905081810360008301526142018184614189565b905092915050565b600080600060608486031215614222576142216139e0565b5b600061423086828701613a33565b935050602061424186828701613a69565b925050604061425286828701613a69565b9150509250925092565b600080fd5b600080fd5b600067ffffffffffffffff82111561428157614280613cbd565b5b61428a82613c1f565b9050602081019050919050565b60006142aa6142a584614266565b613d1d565b9050828152602081018484840111156142c6576142c5613e00565b5b6142d1848285613e36565b509392505050565b600082601f8301126142ee576142ed613cb8565b5b81356142fe848260208601614297565b91505092915050565b600060a0828403121561431d5761431c61425c565b5b61432760a0613d1d565b9050600061433784828501613a69565b600083015250602061434b84828501613a69565b602083015250604061435f84828501613a69565b604083015250606082013567ffffffffffffffff81111561438357614382614261565b5b61438f848285016142d9565b606083015250608082013567ffffffffffffffff8111156143b3576143b2614261565b5b6143bf848285016142d9565b60808301525092915050565b6000602082840312156143e1576143e06139e0565b5b600082013567ffffffffffffffff8111156143ff576143fe6139e5565b5b61440b84828501614307565b91505092915050565b600080600080600060a086880312156144305761442f6139e0565b5b600061443e88828901613a33565b955050602061444f88828901613a69565b945050604061446088828901613a69565b935050606061447188828901613a69565b925050608061448288828901613a69565b9150509295509295909350565b6000806000606084860312156144a8576144a76139e0565b5b60006144b686828701613a69565b93505060206144c786828701613a69565b92505060406144d886828701613a69565b9150509250925092565b6144eb81613b6d565b81146144f657600080fd5b50565b600081359050614508816144e2565b92915050565b60008060408385031215614525576145246139e0565b5b600061453385828601613a33565b9250506020614544858286016144f9565b9150509250929050565b600080fd5b60008083601f84011261456957614568613cb8565b5b8235905067ffffffffffffffff8111156145865761458561454e565b5b6020830191508360208202830111156145a2576145a1613d64565b5b9250929050565b60008083601f8401126145bf576145be613cb8565b5b8235905067ffffffffffffffff8111156145dc576145db61454e565b5b6020830191508360018202830111156145f8576145f7613d64565b5b9250929050565b60008060008060008060008060a0898b03121561461f5761461e6139e0565b5b600061462d8b828c01613a33565b985050602061463e8b828c01613a33565b975050604089013567ffffffffffffffff81111561465f5761465e6139e5565b5b61466b8b828c01614553565b9650965050606089013567ffffffffffffffff81111561468e5761468d6139e5565b5b61469a8b828c01614553565b9450945050608089013567ffffffffffffffff8111156146bd576146bc6139e5565b5b6146c98b828c016145a9565b92509250509295985092959890939650565b6146e481613ae8565b82525050565b60006020820190506146ff60008301846146db565b92915050565b6000806040838503121561471c5761471b6139e0565b5b600061472a85828601613a33565b925050602061473b85828601613a33565b9150509250929050565b60008060008060008060a08789031215614762576147616139e0565b5b600061477089828a01613a33565b965050602061478189828a01613a33565b955050604061479289828a01613a69565b94505060606147a389828a01613a69565b935050608087013567ffffffffffffffff8111156147c4576147c36139e5565b5b6147d089828a016145a9565b92509250509295509295509295565b600080600080600060a086880312156147fb576147fa6139e0565b5b600061480988828901613a33565b955050602061481a88828901613a33565b945050604061482b88828901613a69565b935050606061483c88828901613a69565b925050608086013567ffffffffffffffff81111561485d5761485c6139e5565b5b61486988828901613e87565b9150509295509295909350565b7f455243313135353a2062616c616e636520717565727920666f7220746865207a60008201527f65726f2061646472657373000000000000000000000000000000000000000000602082015250565b60006148d2602b83613bdb565b91506148dd82614876565b604082019050919050565b60006020820190508181036000830152614901816148c5565b9050919050565b7f4e487b7100000000000000000000000000000000000000000000000000000000600052602260045260246000fd5b6000600282049050600182168061494f57607f821691505b6020821081141561496357614962614908565b5b50919050565b7f596f7520617265206e6f7420617574686f72697a656420666f7220746869732060008201527f616374696f6e0000000000000000000000000000000000000000000000000000602082015250565b60006149c5602683613bdb565b91506149d082614969565b604082019050919050565b600060208201905081810360008301526149f4816149b8565b9050919050565b7f496e76616c6964207265636f7264206964000000000000000000000000000000600082015250565b6000614a31601183613bdb565b9150614a3c826149fb565b602082019050919050565b60006020820190508181036000830152614a6081614a24565b9050919050565b7f455243313135353a207472616e736665722063616c6c6572206973206e6f742060008201527f6f776e6572206e6f7220617070726f7665640000000000000000000000000000602082015250565b6000614ac3603283613bdb565b9150614ace82614a67565b604082019050919050565b60006020820190508181036000830152614af281614ab6565b9050919050565b6000604082019050614b0e6000830185613abe565b614b1b6020830184613abe565b9392505050565b7f455243313135353a206163636f756e747320616e6420696473206c656e67746860008201527f206d69736d617463680000000000000000000000000000000000000000000000602082015250565b6000614b7e602983613bdb565b9150614b8982614b22565b604082019050919050565b60006020820190508181036000830152614bad81614b71565b9050919050565b7f4e487b7100000000000000000000000000000000000000000000000000000000600052603260045260246000fd5b7f4e487b7100000000000000000000000000000000000000000000000000000000600052601160045260246000fd5b6000614c1d82613a48565b91507fffffffffffffffffffffffffffffffffffffffffffffffffffffffffffffffff821415614c5057614c4f614be3565b5b600182019050919050565b7f4e487b7100000000000000000000000000000000000000000000000000000000600052601260045260246000fd5b6000614c9582613a48565b9150614ca083613a48565b925082614cb057614caf614c5b565b5b828204905092915050565b7f54726561737572792073686f756c642068617665206174206c6561737420353060008201527f25206f662074686520746f74616c20737570706c790000000000000000000000602082015250565b6000614d17603583613bdb565b9150614d2282614cbb565b604082019050919050565b60006020820190508181036000830152614d4681614d0a565b9050919050565b6000604082019050614d626000830185613fc4565b614d6f6020830184613abe565b9392505050565b600081519050614d8581613a52565b92915050565b600060208284031215614da157614da06139e0565b5b6000614daf84828501614d76565b91505092915050565b7f596f7520617265206e6f7420746865206f776e6572206f66207468652072656360008201527f6f72640000000000000000000000000000000000000000000000000000000000602082015250565b6000614e14602383613bdb565b9150614e1f82614db8565b604082019050919050565b60006020820190508181036000830152614e4381614e07565b9050919050565b600081905092915050565b60008190508160005260206000209050919050565b60008154614e7781614937565b614e818186614e4a565b94506001821660008114614e9c5760018114614ead57614ee0565b60ff19831686528186019350614ee0565b614eb685614e55565b60005b83811015614ed857815481890152600182019150602081019050614eb9565b838801955050505b50505092915050565b6000614ef58284614e6a565b915081905092915050565b600081519050919050565b600081905092915050565b6000614f2182614f00565b614f2b8185614f0b565b9350614f3b818560208601613bec565b80840191505092915050565b6000614f5282613bd0565b614f5c8185614e4a565b9350614f6c818560208601613bec565b80840191505092915050565b6000614f848285614f16565b9150614f908284614f47565b91508190509392505050565b7f476f7665726e616e636520746f6b656e20666f72207468697320696420616c7260008201527f656164792070726573656e740000000000000000000000000000000000000000602082015250565b6000614ff8602c83613bdb565b915061500382614f9c565b604082019050919050565b6000602082019050818103600083015261502781614feb565b9050919050565b600061503a8284614f47565b915081905092915050565b7f476f7665726e616e636520746f6b656e207769746820746869732053594d424f60008201527f4c20616c72656164792070726573656e74000000000000000000000000000000602082015250565b60006150a1603183613bdb565b91506150ac82615045565b604082019050919050565b600060208201905081810360008301526150d081615094565b9050919050565b600060a0820190506150ec6000830188613fc4565b6150f96020830187613abe565b6151066040830186613abe565b6151136060830185613abe565b6151206080830184613abe565b9695505050505050565b7f496e76616c6964207265636f7264200000000000000000000000000000000000600082015250565b6000615160600f83613bdb565b915061516b8261512a565b602082019050919050565b6000602082019050818103600083015261518f81615153565b9050919050565b7f496e76616c696420746f6b656e73000000000000000000000000000000000000600082015250565b60006151cc600e83613bdb565b91506151d782615196565b602082019050919050565b600060208201905081810360008301526151fb816151bf565b9050919050565b60006080820190506152176000830187613abe565b6152246020830186613abe565b6152316040830185613abe565b61523e6060830184613abe565b95945050505050565b7f455243313135353a2063616c6c6572206973206e6f74206f776e6572206e6f7260008201527f20617070726f7665640000000000000000000000000000000000000000000000602082015250565b60006152a3602983613bdb565b91506152ae82615247565b604082019050919050565b600060208201905081810360008301526152d281615296565b9050919050565b60006152e482613a48565b91506152ef83613a48565b9250827fffffffffffffffffffffffffffffffffffffffffffffffffffffffffffffffff0382111561532457615323614be3565b5b828201905092915050565b600061533a82613a48565b915061534583613a48565b92508282101561535857615357614be3565b5b828203905092915050565b7f455243313135353a2069647320616e6420616d6f756e7473206c656e6774682060008201527f6d69736d61746368000000000000000000000000000000000000000000000000602082015250565b60006153bf602883613bdb565b91506153ca82615363565b604082019050919050565b600060208201905081810360008301526153ee816153b2565b9050919050565b7f455243313135353a207472616e7366657220746f20746865207a65726f20616460008201527f6472657373000000000000000000000000000000000000000000000000000000602082015250565b6000615451602583613bdb565b915061545c826153f5565b604082019050919050565b6000602082019050818103600083015261548081615444565b9050919050565b7f455243313135353a20696e73756666696369656e742062616c616e636520666f60008201527f72207472616e7366657200000000000000000000000000000000000000000000602082015250565b60006154e3602a83613bdb565b91506154ee82615487565b604082019050919050565b60006020820190508181036000830152615512816154d6565b9050919050565b600060408201905081810360008301526155338185614189565b905081810360208301526155478184614189565b90509392505050565b7f455243313135353a206d696e7420746f20746865207a65726f2061646472657360008201527f7300000000000000000000000000000000000000000000000000000000000000602082015250565b60006155ac602183613bdb565b91506155b782615550565b604082019050919050565b600060208201905081810360008301526155db8161559f565b9050919050565b7f4552433230536e617073686f743a206964206973203000000000000000000000600082015250565b6000615618601683613bdb565b9150615623826155e2565b602082019050919050565b600060208201905081810360008301526156478161560b565b9050919050565b7f4552433230536e617073686f743a206e6f6e6578697374656e74206964000000600082015250565b6000615684601d83613bdb565b915061568f8261564e565b602082019050919050565b600060208201905081810360008301526156b381615677565b9050919050565b600060ff82169050919050565b6156d0816156ba565b82525050565b600060e0820190506156eb600083018a613abe565b81810360208301526156fd8189613c30565b905081810360408301526157118188613c30565b90506157206060830187613abe565b61572d6080830186613abe565b61573a60a0830185613abe565b61574760c08301846156c7565b98975050505050505050565b7f455243313135353a2073657474696e6720617070726f76616c2073746174757360008201527f20666f722073656c660000000000000000000000000000000000000000000000602082015250565b60006157af602983613bdb565b91506157ba82615753565b604082019050919050565b600060208201905081810360008301526157de816157a2565b9050919050565b60006080820190506157fa6000830187613fc4565b6158076020830186613fc4565b6158146040830185613abe565b6158216060830184613abe565b95945050505050565b600082825260208201905092915050565b600061584682614f00565b615850818561582a565b9350615860818560208601613bec565b61586981613c1f565b840191505092915050565b600060a0820190506158896000830188613fc4565b6158966020830187613fc4565b81810360408301526158a88186614189565b905081810360608301526158bc8185614189565b905081810360808301526158d0818461583b565b90509695505050505050565b6000815190506158eb81613b14565b92915050565b600060208284031215615907576159066139e0565b5b6000615915848285016158dc565b91505092915050565b60008160e01c9050919050565b600060033d111561594a5760046000803e61594760005161591e565b90505b90565b600060443d101561595d576159e0565b6159656139d6565b60043d036004823e80513d602482011167ffffffffffffffff8211171561598d5750506159e0565b808201805167ffffffffffffffff8111156159ab57505050506159e0565b80602083010160043d0385018111156159c85750505050506159e0565b6159d782602001850186613cec565b82955050505050505b90565b7f455243313135353a207472616e7366657220746f206e6f6e204552433131353560008201527f526563656976657220696d706c656d656e746572000000000000000000000000602082015250565b6000615a3f603483613bdb565b9150615a4a826159e3565b604082019050919050565b60006020820190508181036000830152615a6e81615a32565b9050919050565b7f455243313135353a204552433131353552656365697665722072656a6563746560008201527f6420746f6b656e73000000000000000000000000000000000000000000000000602082015250565b6000615ad1602883613bdb565b9150615adc82615a75565b604082019050919050565b60006020820190508181036000830152615b0081615ac4565b9050919050565b600060a082019050615b1c6000830188613fc4565b615b296020830187613fc4565b615b366040830186613abe565b615b436060830185613abe565b8181036080830152615b55818461583b565b9050969550505050505056fe546f6b656e206d696e746564207468726f75676820766f74696e672070726f63657373a264697066735822122039d42d47f66312c9ff810131ea47a619875d1119e2808148e3be6d2d5d64ffb364736f6c634300080c0033",
  "immutableReferences": {},
  "source": "pragma solidity ^0.8.0;\n\nimport \"@openzeppelin/contracts/token/ERC1155/ERC1155.sol\";\nimport \"@openzeppelin/contracts/token/ERC1155/IERC1155Receiver.sol\";\nimport \"@openzeppelin/contracts/token/ERC1155/extensions/ERC1155Supply.sol\";\nimport \"@openzeppelin/contracts/utils/Counters.sol\";\nimport \"@openzeppelin/contracts/access/Ownable.sol\";\nimport \"./RecordsContract.sol\";\nimport \"./ERC1155/SnapshotERC1155.sol\";\nimport \"@openzeppelin/contracts/utils/math/SafeMath.sol\";\n\nimport \"./voting/VotingHubContract.sol\";\n\n// ERC 20 balance[adress] => 2 contracts // governance and comunity\n// ERC 721 blance[adress] => 1 contract // records\n// ERC 1155\n\ncontract TreasuryContract is IERC1155Receiver, SnapshotERC1155 {\n    uint256 public constant CRD = 1;\n    uint256 private LastTokenId = 1;\n    address public RECORDS_CONTRACT_ADDRESS;\n    address public CONTRIBUTION_VOTING_CONTRACT_ADDRESS;\n    address public DILUTION_CONTRACT_ADDRESS;\n    address public VOTING_HUB_ADDRESS;\n    address OWNER;\n    string private PREFIX_GOVERNANCE = \"CRDG_\";\n    string private PREFIX_COMMUNITY = \"CRD_\";\n    uint8 private TOKEN_TYPE_COMMUNITY = 0;\n    uint8 private TOKEN_TYPE_GOVERNANCE = 1;\n\n    struct Token {\n        uint256 recordId;\n        string symbol;\n        string image;\n        uint256 creationDate;\n        bool isPresent;\n        uint256 tokenId;\n    }\n\n    struct NewTokenData {\n        uint256 recordId;\n        uint256 totalSupply;\n        uint256 userBalance;\n        string symbol;\n        string image;\n    }\n\n    /**\n        @dev this is event which is created when a token transfer takes place\n        @param from This is the address of sender \n        @param to This is the address of reciver \n        @param transferDate This is the date of the transfer\n        @param tokenId This is the id of the token that is being transfered \n        @param amount This is the amount of token transfered \n        @param symbol This is the symbol of the token that were transfered\n     */\n    event TokenTransfer(\n        address from,\n        address to,\n        uint256 transferDate,\n        uint256 tokenId,\n        uint256 amount,\n        string symbol\n    );\n\n    /**\n        @dev this is event which is created when new governance token is created (NEW CREATION Not MINITING)\n        @param recordId This is the record Id to which this token belongs to \n        @param symbol This is the symbol of the governance token\n        @param image This is the image of the token \n        @param creationDate This is the creation date of the token \n        @param tokenAmount This is the amount of token that are created \n        @param tokenId This is the id of token that is newly created tokens \n        @param tokenType This is the type of the token that is created => For governance 1 and for copyright 0  \n      */\n    event NewTokenCreated(\n        uint256 recordId,\n        string symbol,\n        string image,\n        uint256 creationDate,\n        uint256 tokenAmount,\n        uint256 tokenId,\n        uint8 tokenType\n    );\n\n    /**\n        @dev this is event which is created when new governance token is minted after the voting is done\n        @param recordId This is the record Id to which this token belongs to \n        @param creationDate This is the creation date of the token \n        @param tokenAmount This is the amount of token that are created \n        @param tokenId This is the id of token that is newly created tokens \n      */\n    event TokenMinted(\n        uint256 recordId,\n        uint256 tokenId,\n        uint256 creationDate,\n        uint256 tokenAmount\n    );\n\n    /**\n        @dev this is event which is genrated when a contribution voting has came to an end and the contribution is accepted\n        @param to This the address of the winner or the owner of the contribution \n        @param recordId This is the id of the record to which this contribution relates to \n        @param contributionId This is the id of the contribution to which the record is related to \n        @param rewardGovernance The reward amount for governance tokens \n        @param rewardCommunity The reward amount for comunity tokens\n     */\n    event ContributionRewardTransfered(\n        address to,\n        uint256 recordId,\n        uint256 contributionId,\n        uint256 rewardGovernance,\n        uint256 rewardCommunity\n    );\n\n    mapping(uint256 => Token) govTokenMapping;\n    mapping(uint256 => Token) commTokenMapping;\n\n    mapping(string => bool) govTokenSym;\n    mapping(string => bool) commTokenSym;\n\n    // By default URI to crowdrecords domain\n    // 18 decimal points supported\n    constructor() ERC1155(\"https://crowdrecords.com/{id}\") {\n        _mint(msg.sender, CRD, 1000000 * 10**18, \"https://crowdrecords.com\");\n        OWNER = msg.sender;\n    }\n\n    /**\n     * @dev Modifier to check that the person who accesses a specific function is the owner of contract himself.\n     */\n    modifier ownerOnly() {\n        require(msg.sender == OWNER, \"You are not authorized for this action\");\n        _;\n    }\n\n    /**\n     * @dev Modifier to check if the sender is authorized to create tokens for this record.\n     */\n    modifier canCreateToken(NewTokenData memory newTokenData) {\n        require(\n            newTokenData.totalSupply / 2 > newTokenData.userBalance,\n            \"Treasury should have at least 50% of the total supply\"\n        );\n\n        RecordsContract recordsContract = RecordsContract(\n            RECORDS_CONTRACT_ADDRESS\n        );\n\n        uint256 balance = recordsContract.balanceOf(\n            msg.sender,\n            newTokenData.recordId\n        );\n\n        require(balance > 0, \"You are not the owner of the record\");\n        _;\n    }\n\n    /**\n     * @dev Modifier to check that if the sender is the voting contract or not.\n     */\n    modifier onlyContributionVotingContract() {\n        require(\n            msg.sender == CONTRIBUTION_VOTING_CONTRACT_ADDRESS,\n            \"You are not authorized for this action\"\n        );\n        _;\n    }\n\n    /**\n     * @dev Modifier to check that if the sender is the dilution contract or not.\n     */\n    modifier onlyDilutionContract() {\n        require(\n            msg.sender == DILUTION_CONTRACT_ADDRESS,\n            \"You are not authorized for this action\"\n        );\n        _;\n    }\n\n    /**\n     * @dev This function sets the Records Contract address\n     */\n    function setRecordsContractAddress(address newRecordsContractAddress)\n        public\n        ownerOnly\n    {\n        RECORDS_CONTRACT_ADDRESS = newRecordsContractAddress;\n    }\n\n    /**\n     * @dev This function sets the Records Contract address\n     */\n    function setVotingHubContract(address newVotingHubContract)\n        public\n        ownerOnly\n    {\n        VOTING_HUB_ADDRESS = newVotingHubContract;\n    }\n\n    /**\n     * @dev This function sets the dilution Contract address\n     */\n    function setDilutionContract(address newDilutionContract) public ownerOnly {\n        DILUTION_CONTRACT_ADDRESS = newDilutionContract;\n    }\n\n    /**\n     * @dev This function sets the Voting Contract address\n     */\n    function setContributionVotingContractAddress(\n        address newVotingContractAddress\n    ) public ownerOnly {\n        CONTRIBUTION_VOTING_CONTRACT_ADDRESS = newVotingContractAddress;\n    }\n\n    /**\n     * @dev This function creats new governance tokens for specified record\n     * @param newTokenData This contains all the parameters needed to create a new governance token that are\n     * - recordId This is the recordId that for new token\n     * - totalSupply This is the total supply of governance token\n     * - userBalance This is the amount of tokens that user wants to keep to himself\n     * - symbol This is the symbol of the gvernance token\n     * - image this is image of the gov token.\n     */\n    function createNewGovernanceToken(NewTokenData memory newTokenData)\n        external\n        payable\n        canCreateToken(newTokenData)\n        returns (uint256)\n    {\n        {\n            bytes memory preString = abi.encodePacked(PREFIX_GOVERNANCE);\n            newTokenData.symbol = string(\n                abi.encodePacked(preString, newTokenData.symbol)\n            );\n        }\n\n        require(\n            govTokenMapping[newTokenData.recordId].isPresent == false,\n            \"Governance token for this id already present\"\n        );\n\n        require(\n            govTokenSym[newTokenData.symbol] == false,\n            \"Governance token with this SYMBOL already present\"\n        );\n\n        LastTokenId++;\n        uint256 newTokenId = LastTokenId;\n\n        //Map the recordId with the\n        govTokenMapping[newTokenData.recordId] = createToken(\n            newTokenData,\n            newTokenId,\n            TOKEN_TYPE_GOVERNANCE\n        );\n\n        return newTokenId;\n    }\n\n    /**\n     * @dev This function creats new community tokens for specified record\n     * @param newTokenData This contains all the parameters needed to create a new community token that are\n     * - recordId This is the recordId that for new token\n     * - totalSupply This is the total supply of community token\n     * - userBalance This is the amount of tokens that user wants to keep to himself\n     * - symbol This is the symbol of the community token\n     * - image this is image of the gov token.\n     */\n    function createNewCommunityToken(NewTokenData memory newTokenData)\n        external\n        payable\n        canCreateToken(newTokenData)\n        returns (uint256)\n    {\n        {\n            bytes memory preString = abi.encodePacked(PREFIX_COMMUNITY);\n            newTokenData.symbol = string(\n                abi.encodePacked(preString, newTokenData.symbol)\n            );\n        }\n\n        require(\n            commTokenMapping[newTokenData.recordId].isPresent == false,\n            \"Governance token for this id already present\"\n        );\n\n        require(\n            commTokenSym[newTokenData.symbol] == false,\n            \"Governance token with this SYMBOL already present\"\n        );\n\n        LastTokenId++;\n        uint256 newTokenId = LastTokenId;\n\n        //Map the recordId with the\n        commTokenMapping[newTokenData.recordId] = createToken(\n            newTokenData,\n            newTokenId,\n            TOKEN_TYPE_COMMUNITY\n        );\n\n        return newTokenId;\n    }\n\n    /**\n     * @dev This function is an internal use only function whoes role is to create a new token of specified type\n     * @param newTokenData This contains all the parameters needed to create a new community token that are\n     * - recordId This is the recordId that for new token\n     * - totalSupply This is the total supply of community token\n     * - userBalance This is the amount of tokens that user wants to keep to himself\n     * - symbol This is the symbol of the community token\n     * - image this is image of the gov token.\n     * @param newTokenId This is the Id of the token to create\n     * @param tokenType This is the type of token that is to be created such as community or governance\n     */\n    function createToken(\n        NewTokenData memory newTokenData,\n        uint256 newTokenId,\n        uint8 tokenType\n    ) private returns (Token memory) {\n        //!Add check for the totalsupply > userBalance\n\n        uint256 treasuryAmount = (newTokenData.totalSupply -\n            newTokenData.userBalance);\n        uint256 userAmount = newTokenData.userBalance;\n\n        // Here minting of new tokens is done. And those are sent directly into the treasury\n        _mint(address(this), newTokenId, treasuryAmount, \"\");\n\n        // The user requested amount of tokens is genrated and send to his account\n        _mint(msg.sender, newTokenId, userAmount, \"\");\n\n        Token memory token = Token({\n            recordId: newTokenData.recordId,\n            symbol: newTokenData.symbol,\n            image: newTokenData.image,\n            creationDate: block.timestamp,\n            isPresent: true,\n            tokenId: newTokenId\n        });\n\n        emit NewTokenCreated({\n            recordId: newTokenData.recordId,\n            symbol: newTokenData.symbol,\n            image: newTokenData.image,\n            creationDate: token.creationDate,\n            tokenAmount: newTokenData.totalSupply,\n            tokenId: newTokenId,\n            tokenType: tokenType\n        });\n\n        return token;\n    }\n\n    /**\n     * @dev This function creats new community tokens for specified record\n     * @param recordId This is the id of the record to which the token belongs to\n     * @param tokenId This is the id of the which is to be minted\n     * @param tokenAmount This is the amount that is to be minted\n     */\n    function mintTokens(\n        uint256 recordId,\n        uint256 tokenId,\n        uint256 tokenAmount\n    ) external payable onlyContributionVotingContract {\n        require(\n            commTokenMapping[recordId].isPresent == true ||\n                govTokenMapping[recordId].isPresent == true,\n            \"Invalid record \"\n        );\n\n        require(\n            commTokenMapping[recordId].tokenId == tokenId ||\n                govTokenMapping[recordId].tokenId == tokenId,\n            \"Invalid tokens\"\n        );\n\n        // Here minting of new tokens is done. And those are sent directly into the treasury\n        _mint(\n            address(this),\n            tokenId,\n            tokenAmount,\n            \"Token minted through voting process\"\n        );\n\n        emit TokenMinted({\n            recordId: recordId,\n            tokenId: tokenId,\n            creationDate: block.timestamp,\n            tokenAmount: tokenAmount\n        });\n    }\n\n    /**\n     * @dev This function is called only by the voting contract once the voting ends\n     * @param to This is the recivers address\n     * @param recordId This is the recordId to which the contribution belongs to\n     * @param contributionId this is the contribution id to which the user has won\n     * @param rewardGovernance this is the amout of Governance token that needs to be transfered\n     * @param rewardCommunity this is the amout of comunity token that needs to be transfered\n     */\n    function transferRewardAmount(\n        address to,\n        uint256 recordId,\n        uint256 contributionId,\n        uint256 rewardGovernance,\n        uint256 rewardCommunity\n    ) external payable onlyContributionVotingContract {\n        _setApprovalForAll(\n            address(this),\n            CONTRIBUTION_VOTING_CONTRACT_ADDRESS,\n            true\n        );\n        if (rewardGovernance > 0) {\n            safeTransferFrom(\n                address(this),\n                to,\n                govTokenMapping[recordId].tokenId,\n                rewardGovernance,\n                \"\"\n            );\n        }\n\n        if (rewardCommunity > 0) {\n            safeTransferFrom(\n                address(this),\n                to,\n                commTokenMapping[recordId].tokenId,\n                rewardCommunity,\n                \"\"\n            );\n        }\n\n        emit ContributionRewardTransfered({\n            to: to,\n            recordId: recordId,\n            contributionId: contributionId,\n            rewardGovernance: rewardGovernance,\n            rewardCommunity: rewardCommunity\n        });\n    }\n\n    /**\n     * @dev This function gives you the community token id of the recordId that you pass\n     * @param recordId This is the Id of the token that you want to check\n     */\n    function getCommunityTokenId(uint256 recordId)\n        public\n        view\n        returns (uint256)\n    {\n        Token memory token = commTokenMapping[recordId];\n        if (token.isPresent) {\n            return token.tokenId;\n        } else {\n            revert(\"Invalid record id\");\n        }\n    }\n\n    /**\n     * @dev This function gives you the governance token id of the recordId that you pass\n     * @param recordId This is the Id of the token that you want to check\n     */\n    function getGovernanceTokenId(uint256 recordId)\n        public\n        view\n        returns (uint256)\n    {\n        Token memory token = govTokenMapping[recordId];\n        if (token.isPresent) {\n            return token.tokenId;\n        } else {\n            revert(\"Invalid record id\");\n        }\n    }\n\n    /**\n     * @dev This function returns the amount of total tokens that are in circulation\n     * @param tokenId This is the token whoes circulating supply you  want to find out\n     */\n    function totalCirculatingSupply(uint256 tokenId)\n        public\n        view\n        returns (uint256)\n    {\n        uint256 totalCirculatingBalance = SafeMath.sub(\n            totalSupply(tokenId),\n            balanceOf(address(this), tokenId)\n        );\n\n        return totalCirculatingBalance;\n    }\n\n    function snapshot() public returns (uint256 snapshotId) {\n        return _snapshot();\n    }\n\n    event DEBUG4(address hubAddress);\n\n    // Update balance and/or total supply snapshots before the values are modified. This is implemented\n    // in the _beforeTokenTransfer hook, which is executed for _mint, _burn, and _transfer operations.\n    function _beforeTokenTransfer(\n        address operator,\n        address from,\n        address to,\n        uint256[] memory ids,\n        uint256[] memory amounts,\n        bytes memory data\n    ) internal override {\n        emit DEBUG4(VOTING_HUB_ADDRESS);\n\n        //Below condition is needed as the _mint is called in the constructor\n        //and at that particular point in time the below address is not initialized thus leading to a revert\n        if (VOTING_HUB_ADDRESS != address(0)) {\n            VotingHubContract votingHubContract = VotingHubContract(\n                VOTING_HUB_ADDRESS\n            );\n\n            for (uint256 i = 0; i < ids.length; i++) {\n                votingHubContract.handleUserTokenTransfers(\n                    from,\n                    to,\n                    amounts[i],\n                    ids[i]\n                );\n            }\n        }\n\n        super._beforeTokenTransfer(operator, from, to, ids, amounts, data);\n    }\n\n    /**\n     * @dev this function is responsible for minting of new tokens for records\n     * @param tokenId Id this is the tokenId that is to minted\n     * @param amount the amount that is to be minted\n     */\n    function mintTokens(uint256 tokenId, uint256 amount)\n        public\n        onlyDilutionContract\n    {\n        emit DEBUG(amount, tokenId);\n        _mint(address(this), tokenId, amount, \"New tokens minted\");\n    }\n\n    event DEBUG(uint256 amount, uint256 tokenId);\n\n    function onERC1155Received(\n        address operator,\n        address from,\n        uint256 id,\n        uint256 value,\n        bytes calldata data\n    ) external virtual override returns (bytes4) {\n        return\n            bytes4(\n                keccak256(\n                    \"onERC1155Received(address,address,uint256,uint256,bytes)\"\n                )\n            );\n    }\n\n    function onERC1155BatchReceived(\n        address operator,\n        address from,\n        uint256[] calldata ids,\n        uint256[] calldata values,\n        bytes calldata data\n    ) external virtual override returns (bytes4) {\n        return\n            bytes4(\n                keccak256(\n                    \"onERC1155BatchReceived(address,address,uint256[],uint256[],bytes)\"\n                )\n            );\n    }\n}\n",
  "sourcePath": "/Users/a1/Desktop/Office/projects/CrowdRecords/Contracts/contracts/TreasuryContract.sol",
  "compiler": {
    "name": "solc",
    "version": "0.8.12+commit.f00d7308.Emscripten.clang"
  },
  "schemaVersion": "3.4.6",
  "updatedAt": "2022-08-08T09:15:00.008Z",
  "devdoc": {
    "events": {
      "ContributionRewardTransfered(address,uint256,uint256,uint256,uint256)": {
        "details": "this is event which is genrated when a contribution voting has came to an end and the contribution is accepted",
        "params": {
          "contributionId": "This is the id of the contribution to which the record is related to ",
          "recordId": "This is the id of the record to which this contribution relates to ",
          "rewardCommunity": "The reward amount for comunity tokens",
          "rewardGovernance": "The reward amount for governance tokens ",
          "to": "This the address of the winner or the owner of the contribution "
        }
      },
      "NewTokenCreated(uint256,string,string,uint256,uint256,uint256,uint8)": {
        "details": "this is event which is created when new governance token is created (NEW CREATION Not MINITING)",
        "params": {
          "creationDate": "This is the creation date of the token ",
          "image": "This is the image of the token ",
          "recordId": "This is the record Id to which this token belongs to ",
          "symbol": "This is the symbol of the governance token",
          "tokenAmount": "This is the amount of token that are created ",
          "tokenId": "This is the id of token that is newly created tokens ",
          "tokenType": "This is the type of the token that is created => For governance 1 and for copyright 0  "
        }
      },
      "TokenMinted(uint256,uint256,uint256,uint256)": {
        "details": "this is event which is created when new governance token is minted after the voting is done",
        "params": {
          "creationDate": "This is the creation date of the token ",
          "recordId": "This is the record Id to which this token belongs to ",
          "tokenAmount": "This is the amount of token that are created ",
          "tokenId": "This is the id of token that is newly created tokens "
        }
      },
      "TokenTransfer(address,address,uint256,uint256,uint256,string)": {
        "details": "this is event which is created when a token transfer takes place",
        "params": {
          "amount": "This is the amount of token transfered ",
          "from": "This is the address of sender ",
          "symbol": "This is the symbol of the token that were transfered",
          "to": "This is the address of reciver ",
          "tokenId": "This is the id of the token that is being transfered ",
          "transferDate": "This is the date of the transfer"
        }
      }
    },
    "kind": "dev",
    "methods": {
      "balanceOf(address,uint256)": {
        "details": "See {IERC1155-balanceOf}. Requirements: - `account` cannot be the zero address."
      },
      "balanceOfAt(address,uint256,uint256)": {
        "details": "Retrieves the balance of `account` at the time `snapshotId` was created."
      },
      "balanceOfBatch(address[],uint256[])": {
        "details": "See {IERC1155-balanceOfBatch}. Requirements: - `accounts` and `ids` must have the same length."
      },
      "createNewCommunityToken((uint256,uint256,uint256,string,string))": {
        "details": "This function creats new community tokens for specified record",
        "params": {
          "newTokenData": "This contains all the parameters needed to create a new community token that are - recordId This is the recordId that for new token - totalSupply This is the total supply of community token - userBalance This is the amount of tokens that user wants to keep to himself - symbol This is the symbol of the community token - image this is image of the gov token."
        }
      },
      "createNewGovernanceToken((uint256,uint256,uint256,string,string))": {
        "details": "This function creats new governance tokens for specified record",
        "params": {
          "newTokenData": "This contains all the parameters needed to create a new governance token that are - recordId This is the recordId that for new token - totalSupply This is the total supply of governance token - userBalance This is the amount of tokens that user wants to keep to himself - symbol This is the symbol of the gvernance token - image this is image of the gov token."
        }
      },
      "exists(uint256)": {
        "details": "Indicates whether any token exist with a given id, or not."
      },
      "getCommunityTokenId(uint256)": {
        "details": "This function gives you the community token id of the recordId that you pass",
        "params": {
          "recordId": "This is the Id of the token that you want to check"
        }
      },
      "getGovernanceTokenId(uint256)": {
        "details": "This function gives you the governance token id of the recordId that you pass",
        "params": {
          "recordId": "This is the Id of the token that you want to check"
        }
      },
      "isApprovedForAll(address,address)": {
        "details": "See {IERC1155-isApprovedForAll}."
      },
      "mintTokens(uint256,uint256)": {
        "details": "this function is responsible for minting of new tokens for records",
        "params": {
          "amount": "the amount that is to be minted",
          "tokenId": "Id this is the tokenId that is to minted"
        }
      },
      "mintTokens(uint256,uint256,uint256)": {
        "details": "This function creats new community tokens for specified record",
        "params": {
          "recordId": "This is the id of the record to which the token belongs to",
          "tokenAmount": "This is the amount that is to be minted",
          "tokenId": "This is the id of the which is to be minted"
        }
      },
      "onERC1155BatchReceived(address,address,uint256[],uint256[],bytes)": {
        "details": "Handles the receipt of a multiple ERC1155 token types. This function is called at the end of a `safeBatchTransferFrom` after the balances have been updated. NOTE: To accept the transfer(s), this must return `bytes4(keccak256(\"onERC1155BatchReceived(address,address,uint256[],uint256[],bytes)\"))` (i.e. 0xbc197c81, or its own function selector).",
        "params": {
          "data": "Additional data with no specified format",
          "from": "The address which previously owned the token",
          "ids": "An array containing ids of each token being transferred (order and length must match values array)",
          "operator": "The address which initiated the batch transfer (i.e. msg.sender)",
          "values": "An array containing amounts of each token being transferred (order and length must match ids array)"
        },
        "returns": {
          "_0": "`bytes4(keccak256(\"onERC1155BatchReceived(address,address,uint256[],uint256[],bytes)\"))` if transfer is allowed"
        }
      },
      "onERC1155Received(address,address,uint256,uint256,bytes)": {
        "details": "Handles the receipt of a single ERC1155 token type. This function is called at the end of a `safeTransferFrom` after the balance has been updated. NOTE: To accept the transfer, this must return `bytes4(keccak256(\"onERC1155Received(address,address,uint256,uint256,bytes)\"))` (i.e. 0xf23a6e61, or its own function selector).",
        "params": {
          "data": "Additional data with no specified format",
          "from": "The address which previously owned the token",
          "id": "The ID of the token being transferred",
          "operator": "The address which initiated the transfer (i.e. msg.sender)",
          "value": "The amount of tokens being transferred"
        },
        "returns": {
          "_0": "`bytes4(keccak256(\"onERC1155Received(address,address,uint256,uint256,bytes)\"))` if transfer is allowed"
        }
      },
      "safeBatchTransferFrom(address,address,uint256[],uint256[],bytes)": {
        "details": "See {IERC1155-safeBatchTransferFrom}."
      },
      "safeTransferFrom(address,address,uint256,uint256,bytes)": {
        "details": "See {IERC1155-safeTransferFrom}."
      },
      "setApprovalForAll(address,bool)": {
        "details": "See {IERC1155-setApprovalForAll}."
      },
      "setContributionVotingContractAddress(address)": {
        "details": "This function sets the Voting Contract address"
      },
      "setDilutionContract(address)": {
        "details": "This function sets the dilution Contract address"
      },
      "setRecordsContractAddress(address)": {
        "details": "This function sets the Records Contract address"
      },
      "setVotingHubContract(address)": {
        "details": "This function sets the Records Contract address"
      },
      "supportsInterface(bytes4)": {
        "details": "See {IERC165-supportsInterface}."
      },
      "totalCirculatingSupply(uint256)": {
        "details": "This function returns the amount of total tokens that are in circulation",
        "params": {
          "tokenId": "This is the token whoes circulating supply you  want to find out"
        }
      },
      "totalSupply(uint256)": {
        "details": "Total amount of tokens in with a given id."
      },
      "totalSupplyAt(uint256,uint256)": {
        "details": "Retrieves the total supply at the time `snapshotId` was created."
      },
      "transferRewardAmount(address,uint256,uint256,uint256,uint256)": {
        "details": "This function is called only by the voting contract once the voting ends",
        "params": {
          "contributionId": "this is the contribution id to which the user has won",
          "recordId": "This is the recordId to which the contribution belongs to",
          "rewardCommunity": "this is the amout of comunity token that needs to be transfered",
          "rewardGovernance": "this is the amout of Governance token that needs to be transfered",
          "to": "This is the recivers address"
        }
      },
      "uri(uint256)": {
        "details": "See {IERC1155MetadataURI-uri}. This implementation returns the same URI for *all* token types. It relies on the token type ID substitution mechanism https://eips.ethereum.org/EIPS/eip-1155#metadata[defined in the EIP]. Clients calling this function must replace the `\\{id\\}` substring with the actual token type ID."
      }
    },
    "version": 1
  },
  "userdoc": {
    "kind": "user",
    "methods": {},
    "version": 1
  }
}