{
  "contractName": "TreasuryContract",
  "abi": [
    {
      "inputs": [
        {
          "internalType": "address",
          "name": "owner",
          "type": "address"
        }
      ],
      "stateMutability": "nonpayable",
      "type": "constructor"
    },
    {
      "inputs": [],
      "name": "CONTRIBUTION_VOTING_CONTRACT_ADDRESS",
      "outputs": [
        {
          "internalType": "address",
          "name": "",
          "type": "address"
        }
      ],
      "stateMutability": "view",
      "type": "function"
    },
    {
      "inputs": [],
      "name": "CRD",
      "outputs": [
        {
          "internalType": "uint256",
          "name": "",
          "type": "uint256"
        }
      ],
      "stateMutability": "view",
      "type": "function"
    },
    {
      "inputs": [],
      "name": "DILUTION_CONTRACT_ADDRESS",
      "outputs": [
        {
          "internalType": "address",
          "name": "",
          "type": "address"
        }
      ],
      "stateMutability": "view",
      "type": "function"
    },
    {
      "inputs": [],
      "name": "OWNER",
      "outputs": [
        {
          "internalType": "address",
          "name": "",
          "type": "address"
        }
      ],
      "stateMutability": "view",
      "type": "function"
    },
    {
      "inputs": [],
      "name": "RECORDS_CONTRACT_ADDRESS",
      "outputs": [
        {
          "internalType": "address",
          "name": "",
          "type": "address"
        }
      ],
      "stateMutability": "view",
      "type": "function"
    },
    {
      "inputs": [],
      "name": "TREASURY_CORE_CONTRACT_ADDRESS",
      "outputs": [
        {
          "internalType": "address",
          "name": "",
          "type": "address"
        }
      ],
      "stateMutability": "view",
      "type": "function"
    },
    {
      "inputs": [
        {
          "internalType": "address",
          "name": "ownerAddress",
          "type": "address"
        }
      ],
      "name": "setOwnerAddress",
      "outputs": [],
      "stateMutability": "nonpayable",
      "type": "function"
    },
    {
      "inputs": [
        {
          "internalType": "address",
          "name": "ownerAddress",
          "type": "address"
        }
      ],
      "name": "setCoreTreasuryAddress",
      "outputs": [],
      "stateMutability": "nonpayable",
      "type": "function"
    },
    {
      "inputs": [
        {
          "internalType": "address",
          "name": "newRecordsContractAddress",
          "type": "address"
        }
      ],
      "name": "setRecordsContractAddress",
      "outputs": [],
      "stateMutability": "nonpayable",
      "type": "function"
    },
    {
      "inputs": [
        {
          "internalType": "address",
          "name": "newDilutionContract",
          "type": "address"
        }
      ],
      "name": "setDilutionContract",
      "outputs": [],
      "stateMutability": "nonpayable",
      "type": "function"
    },
    {
      "inputs": [
        {
          "internalType": "address",
          "name": "newVotingContractAddress",
          "type": "address"
        }
      ],
      "name": "setContributionVotingContractAddress",
      "outputs": [],
      "stateMutability": "nonpayable",
      "type": "function"
    },
    {
      "inputs": [
        {
          "components": [
            {
              "internalType": "uint256",
              "name": "recordId",
              "type": "uint256"
            },
            {
              "internalType": "uint256",
              "name": "totalSupply",
              "type": "uint256"
            },
            {
              "internalType": "uint256",
              "name": "userBalance",
              "type": "uint256"
            },
            {
              "internalType": "string",
              "name": "symbol",
              "type": "string"
            },
            {
              "internalType": "string",
              "name": "image",
              "type": "string"
            }
          ],
          "internalType": "struct TreasuryCoreContract.NewTokenData",
          "name": "newTokenData",
          "type": "tuple"
        }
      ],
      "name": "createNewGovernanceToken",
      "outputs": [
        {
          "internalType": "uint256",
          "name": "",
          "type": "uint256"
        }
      ],
      "stateMutability": "payable",
      "type": "function"
    },
    {
      "inputs": [
        {
          "components": [
            {
              "internalType": "uint256",
              "name": "recordId",
              "type": "uint256"
            },
            {
              "internalType": "uint256",
              "name": "totalSupply",
              "type": "uint256"
            },
            {
              "internalType": "uint256",
              "name": "userBalance",
              "type": "uint256"
            },
            {
              "internalType": "string",
              "name": "symbol",
              "type": "string"
            },
            {
              "internalType": "string",
              "name": "image",
              "type": "string"
            }
          ],
          "internalType": "struct TreasuryCoreContract.NewTokenData",
          "name": "newTokenData",
          "type": "tuple"
        }
      ],
      "name": "createNewCommunityToken",
      "outputs": [
        {
          "internalType": "uint256",
          "name": "",
          "type": "uint256"
        }
      ],
      "stateMutability": "payable",
      "type": "function"
    },
    {
      "inputs": [
        {
          "internalType": "uint256",
          "name": "recordId",
          "type": "uint256"
        },
        {
          "internalType": "uint256",
          "name": "totalSupply",
          "type": "uint256"
        },
        {
          "internalType": "uint256",
          "name": "userBalance",
          "type": "uint256"
        },
        {
          "internalType": "string",
          "name": "symbol",
          "type": "string"
        },
        {
          "internalType": "string",
          "name": "image",
          "type": "string"
        },
        {
          "internalType": "uint256",
          "name": "tokensForOldContributors",
          "type": "uint256"
        },
        {
          "internalType": "address",
          "name": "userAddress",
          "type": "address"
        }
      ],
      "name": "createNewGovernanceTokenNewRecordVersion",
      "outputs": [
        {
          "internalType": "uint256",
          "name": "",
          "type": "uint256"
        }
      ],
      "stateMutability": "payable",
      "type": "function"
    },
    {
      "inputs": [
        {
          "internalType": "uint256",
          "name": "recordId",
          "type": "uint256"
        },
        {
          "internalType": "uint256",
          "name": "totalSupply",
          "type": "uint256"
        },
        {
          "internalType": "uint256",
          "name": "userBalance",
          "type": "uint256"
        },
        {
          "internalType": "string",
          "name": "symbol",
          "type": "string"
        },
        {
          "internalType": "string",
          "name": "image",
          "type": "string"
        },
        {
          "internalType": "uint256",
          "name": "tokensForOldContributors",
          "type": "uint256"
        },
        {
          "internalType": "address",
          "name": "userAddress",
          "type": "address"
        }
      ],
      "name": "createNewCommunityTokenNewRecordVersion",
      "outputs": [
        {
          "internalType": "uint256",
          "name": "",
          "type": "uint256"
        }
      ],
      "stateMutability": "payable",
      "type": "function"
    },
    {
      "inputs": [
        {
          "internalType": "address",
          "name": "to",
          "type": "address"
        },
        {
          "internalType": "uint256",
          "name": "recordId",
          "type": "uint256"
        },
        {
          "internalType": "uint256",
          "name": "contributionId",
          "type": "uint256"
        },
        {
          "internalType": "uint256",
          "name": "rewardGovernance",
          "type": "uint256"
        },
        {
          "internalType": "uint256",
          "name": "rewardCommunity",
          "type": "uint256"
        }
      ],
      "name": "transferRewardAmount",
      "outputs": [],
      "stateMutability": "payable",
      "type": "function"
    },
    {
      "inputs": [
        {
          "internalType": "uint256",
          "name": "recordId",
          "type": "uint256"
        }
      ],
      "name": "getCommunityTokenId",
      "outputs": [
        {
          "internalType": "uint256",
          "name": "",
          "type": "uint256"
        }
      ],
      "stateMutability": "view",
      "type": "function"
    },
    {
      "inputs": [
        {
          "internalType": "uint256",
          "name": "recordId",
          "type": "uint256"
        }
      ],
      "name": "getGovernanceTokenId",
      "outputs": [
        {
          "internalType": "uint256",
          "name": "",
          "type": "uint256"
        }
      ],
      "stateMutability": "view",
      "type": "function"
    },
    {
      "inputs": [
        {
          "internalType": "uint256",
          "name": "tokenId",
          "type": "uint256"
        }
      ],
      "name": "totalCirculatingSupply",
      "outputs": [
        {
          "internalType": "uint256",
          "name": "",
          "type": "uint256"
        }
      ],
      "stateMutability": "view",
      "type": "function"
    },
    {
      "inputs": [
        {
          "internalType": "address",
          "name": "account",
          "type": "address"
        },
        {
          "internalType": "uint256",
          "name": "tokenId",
          "type": "uint256"
        }
      ],
      "name": "balanceOf",
      "outputs": [
        {
          "internalType": "uint256",
          "name": "",
          "type": "uint256"
        }
      ],
      "stateMutability": "view",
      "type": "function"
    },
    {
      "inputs": [
        {
          "internalType": "string",
          "name": "governanceSymbol",
          "type": "string"
        },
        {
          "internalType": "string",
          "name": "communitySymbol",
          "type": "string"
        }
      ],
      "name": "setSymbolsAsUsed",
      "outputs": [],
      "stateMutability": "nonpayable",
      "type": "function"
    },
    {
      "inputs": [
        {
          "internalType": "string",
          "name": "governanceSymbol",
          "type": "string"
        },
        {
          "internalType": "string",
          "name": "communitySymbol",
          "type": "string"
        }
      ],
      "name": "setSymbolsAsAvailable",
      "outputs": [],
      "stateMutability": "nonpayable",
      "type": "function"
    },
    {
      "inputs": [],
      "name": "snapshot",
      "outputs": [
        {
          "internalType": "uint256",
          "name": "snapshotId",
          "type": "uint256"
        }
      ],
      "stateMutability": "nonpayable",
      "type": "function"
    },
    {
      "inputs": [
        {
          "internalType": "uint256",
          "name": "tokenId",
          "type": "uint256"
        },
        {
          "internalType": "uint256",
          "name": "amount",
          "type": "uint256"
        }
      ],
      "name": "mintTokens",
      "outputs": [],
      "stateMutability": "nonpayable",
      "type": "function"
    },
    {
      "inputs": [
        {
          "internalType": "uint256",
          "name": "recordId",
          "type": "uint256"
        },
        {
          "internalType": "uint256",
          "name": "tokenId",
          "type": "uint256"
        },
        {
          "internalType": "uint256",
          "name": "tokenAmount",
          "type": "uint256"
        }
      ],
      "name": "mintTokens",
      "outputs": [],
      "stateMutability": "payable",
      "type": "function"
    }
  ],
  "bytecode": "0x60806040523480156200001157600080fd5b50604051620038aa380380620038aa8339818101604052810190620000379190620000e8565b806000806101000a81548173ffffffffffffffffffffffffffffffffffffffff021916908373ffffffffffffffffffffffffffffffffffffffff160217905550506200011a565b600080fd5b600073ffffffffffffffffffffffffffffffffffffffff82169050919050565b6000620000b08262000083565b9050919050565b620000c281620000a3565b8114620000ce57600080fd5b50565b600081519050620000e281620000b7565b92915050565b6000602082840312156200010157620001006200007e565b5b60006200011184828501620000d1565b91505092915050565b613780806200012a6000396000f3fe6080604052600436106101655760003560e01c80636055c855116100d1578063af6707691161008a578063d6ca40a711610064578063d6ca40a71461050f578063dfe813eb1461054c578063e6870f9514610575578063e6acd9b8146105a057610165565b8063af67076914610489578063ba19a675146104b4578063cceaf625146104df57610165565b80636055c855146103a457806361cbc357146103cd5780636d15dd2c146103f65780638388f413146104265780638fbf353f146104425780639711715a1461045e57610165565b8063331a6bf511610123578063331a6bf5146102a557806334a7c2e7146102ce57806338894e72146102f757806354d4f71914610320578063556bed3a146103505780635f938ad21461037b57610165565b8062fdd58e1461016a578063036c22ad146101a7578063117803e3146101e45780631e6224761461020f57806321aa2ccf1461023f5780632d4a038214610268575b600080fd5b34801561017657600080fd5b50610191600480360381019061018c91906124a6565b6105cb565b60405161019e91906124f5565b60405180910390f35b3480156101b357600080fd5b506101ce60048036038101906101c99190612510565b610677565b6040516101db91906124f5565b60405180910390f35b3480156101f057600080fd5b506101f96107cc565b604051610206919061254c565b60405180910390f35b610229600480360381019061022491906126ad565b6107f0565b60405161023691906124f5565b60405180910390f35b34801561024b57600080fd5b5061026660048036038101906102619190612787565b6109f8565b005b34801561027457600080fd5b5061028f600480360381019061028a9190612510565b610aca565b60405161029c91906124f5565b60405180910390f35b3480156102b157600080fd5b506102cc60048036038101906102c79190612787565b610bcd565b005b3480156102da57600080fd5b506102f560048036038101906102f091906127b4565b610c9e565b005b34801561030357600080fd5b5061031e60048036038101906103199190612787565b610dc7565b005b61033a600480360381019061033591906126ad565b610e99565b60405161034791906124f5565b60405180910390f35b34801561035c57600080fd5b506103656110a1565b604051610372919061254c565b60405180910390f35b34801561038757600080fd5b506103a2600480360381019061039d91906127f4565b6110c7565b005b3480156103b057600080fd5b506103cb60048036038101906103c69190612787565b6111f0565b005b3480156103d957600080fd5b506103f460048036038101906103ef91906127f4565b6112c2565b005b610410600480360381019061040b919061293a565b61156b565b60405161041d91906124f5565b60405180910390f35b610440600480360381019061043b9190612983565b611a05565b005b61045c600480360381019061045791906129fe565b611b37565b005b34801561046a57600080fd5b50610473611c63565b60405161048091906124f5565b60405180910390f35b34801561049557600080fd5b5061049e611d02565b6040516104ab919061254c565b60405180910390f35b3480156104c057600080fd5b506104c9611d28565b6040516104d6919061254c565b60405180910390f35b6104f960048036038101906104f4919061293a565b611d4e565b60405161050691906124f5565b60405180910390f35b34801561051b57600080fd5b5061053660048036038101906105319190612510565b6121e8565b60405161054391906124f5565b60405180910390f35b34801561055857600080fd5b50610573600480360381019061056e9190612787565b6122eb565b005b34801561058157600080fd5b5061058a6123bd565b604051610597919061254c565b60405180910390f35b3480156105ac57600080fd5b506105b56123e3565b6040516105c291906124f5565b60405180910390f35b600080600460009054906101000a900473ffffffffffffffffffffffffffffffffffffffff1690508073ffffffffffffffffffffffffffffffffffffffff1662fdd58e85856040518363ffffffff1660e01b815260040161062d929190612a51565b602060405180830381865afa15801561064a573d6000803e3d6000fd5b505050506040513d601f19601f8201168201806040525081019061066e9190612a8f565b91505092915050565b600080600460009054906101000a900473ffffffffffffffffffffffffffffffffffffffff16905060006107c08273ffffffffffffffffffffffffffffffffffffffff1663bd85b039866040518263ffffffff1660e01b81526004016106dd91906124f5565b602060405180830381865afa1580156106fa573d6000803e3d6000fd5b505050506040513d601f19601f8201168201806040525081019061071e9190612a8f565b8373ffffffffffffffffffffffffffffffffffffffff1662fdd58e600460009054906101000a900473ffffffffffffffffffffffffffffffffffffffff16886040518363ffffffff1660e01b815260040161077a929190612a51565b602060405180830381865afa158015610797573d6000803e3d6000fd5b505050506040513d601f19601f820116820180604052508101906107bb9190612a8f565b6123e8565b90508092505050919050565b60008054906101000a900473ffffffffffffffffffffffffffffffffffffffff1681565b6000600160009054906101000a900473ffffffffffffffffffffffffffffffffffffffff1673ffffffffffffffffffffffffffffffffffffffff163373ffffffffffffffffffffffffffffffffffffffff1614610882576040517f08c379a000000000000000000000000000000000000000000000000000000000815260040161087990612b3f565b60405180910390fd5b6000600460009054906101000a900473ffffffffffffffffffffffffffffffffffffffff16905060006040518060a001604052808b81526020018a815260200189815260200188815260200187815250905060008273ffffffffffffffffffffffffffffffffffffffff1663ff669dfb83876040518363ffffffff1660e01b8152600401610911929190612c73565b6020604051808303816000875af1158015610930573d6000803e3d6000fd5b505050506040513d601f19601f820116820180604052508101906109549190612a8f565b90508273ffffffffffffffffffffffffffffffffffffffff1663ef890f7c8288600160009054906101000a900473ffffffffffffffffffffffffffffffffffffffff166040518463ffffffff1660e01b81526004016109b593929190612ca3565b600060405180830381600087803b1580156109cf57600080fd5b505af11580156109e3573d6000803e3d6000fd5b50505050809350505050979650505050505050565b60008054906101000a900473ffffffffffffffffffffffffffffffffffffffff1673ffffffffffffffffffffffffffffffffffffffff163373ffffffffffffffffffffffffffffffffffffffff1614610a86576040517f08c379a0000000000000000000000000000000000000000000000000000000008152600401610a7d90612d4c565b60405180910390fd5b80600360006101000a81548173ffffffffffffffffffffffffffffffffffffffff021916908373ffffffffffffffffffffffffffffffffffffffff16021790555050565b600080600460009054906101000a900473ffffffffffffffffffffffffffffffffffffffff1690506000808273ffffffffffffffffffffffffffffffffffffffff1663af94e4a9866040518263ffffffff1660e01b8152600401610b2e91906124f5565b600060405180830381865afa158015610b4b573d6000803e3d6000fd5b505050506040513d6000823e3d601f19601f82011682018060405250810190610b749190612e14565b95509550505050508115610b8d57809350505050610bc8565b6040517f08c379a0000000000000000000000000000000000000000000000000000000008152600401610bbf90612f25565b60405180910390fd5b919050565b60008054906101000a900473ffffffffffffffffffffffffffffffffffffffff1673ffffffffffffffffffffffffffffffffffffffff163373ffffffffffffffffffffffffffffffffffffffff1614610c5b576040517f08c379a0000000000000000000000000000000000000000000000000000000008152600401610c5290612d4c565b60405180910390fd5b806000806101000a81548173ffffffffffffffffffffffffffffffffffffffff021916908373ffffffffffffffffffffffffffffffffffffffff16021790555050565b600360009054906101000a900473ffffffffffffffffffffffffffffffffffffffff1673ffffffffffffffffffffffffffffffffffffffff163373ffffffffffffffffffffffffffffffffffffffff1614610d2e576040517f08c379a0000000000000000000000000000000000000000000000000000000008152600401610d2590612d4c565b60405180910390fd5b6000600460009054906101000a900473ffffffffffffffffffffffffffffffffffffffff1690508073ffffffffffffffffffffffffffffffffffffffff16631b2ef1ca84846040518363ffffffff1660e01b8152600401610d90929190612f45565b600060405180830381600087803b158015610daa57600080fd5b505af1158015610dbe573d6000803e3d6000fd5b50505050505050565b60008054906101000a900473ffffffffffffffffffffffffffffffffffffffff1673ffffffffffffffffffffffffffffffffffffffff163373ffffffffffffffffffffffffffffffffffffffff1614610e55576040517f08c379a0000000000000000000000000000000000000000000000000000000008152600401610e4c90612d4c565b60405180910390fd5b80600460006101000a81548173ffffffffffffffffffffffffffffffffffffffff021916908373ffffffffffffffffffffffffffffffffffffffff16021790555050565b6000600160009054906101000a900473ffffffffffffffffffffffffffffffffffffffff1673ffffffffffffffffffffffffffffffffffffffff163373ffffffffffffffffffffffffffffffffffffffff1614610f2b576040517f08c379a0000000000000000000000000000000000000000000000000000000008152600401610f2290612b3f565b60405180910390fd5b6000600460009054906101000a900473ffffffffffffffffffffffffffffffffffffffff16905060006040518060a001604052808b81526020018a815260200189815260200188815260200187815250905060008273ffffffffffffffffffffffffffffffffffffffff1663e10fa0b283876040518363ffffffff1660e01b8152600401610fba929190612c73565b6020604051808303816000875af1158015610fd9573d6000803e3d6000fd5b505050506040513d601f19601f82011682018060405250810190610ffd9190612a8f565b90508273ffffffffffffffffffffffffffffffffffffffff1663ef890f7c8288600160009054906101000a900473ffffffffffffffffffffffffffffffffffffffff166040518463ffffffff1660e01b815260040161105e93929190612ca3565b600060405180830381600087803b15801561107857600080fd5b505af115801561108c573d6000803e3d6000fd5b50505050809350505050979650505050505050565b600460009054906101000a900473ffffffffffffffffffffffffffffffffffffffff1681565b600160009054906101000a900473ffffffffffffffffffffffffffffffffffffffff1673ffffffffffffffffffffffffffffffffffffffff163373ffffffffffffffffffffffffffffffffffffffff1614611157576040517f08c379a000000000000000000000000000000000000000000000000000000000815260040161114e90612b3f565b60405180910390fd5b6000600460009054906101000a900473ffffffffffffffffffffffffffffffffffffffff1690508073ffffffffffffffffffffffffffffffffffffffff16635f938ad284846040518363ffffffff1660e01b81526004016111b9929190612fa7565b600060405180830381600087803b1580156111d357600080fd5b505af11580156111e7573d6000803e3d6000fd5b50505050505050565b60008054906101000a900473ffffffffffffffffffffffffffffffffffffffff1673ffffffffffffffffffffffffffffffffffffffff163373ffffffffffffffffffffffffffffffffffffffff161461127e576040517f08c379a000000000000000000000000000000000000000000000000000000000815260040161127590612d4c565b60405180910390fd5b80600260006101000a81548173ffffffffffffffffffffffffffffffffffffffff021916908373ffffffffffffffffffffffffffffffffffffffff16021790555050565b600160009054906101000a900473ffffffffffffffffffffffffffffffffffffffff1673ffffffffffffffffffffffffffffffffffffffff163373ffffffffffffffffffffffffffffffffffffffff1614611352576040517f08c379a000000000000000000000000000000000000000000000000000000000815260040161134990612b3f565b60405180910390fd5b6000600460009054906101000a900473ffffffffffffffffffffffffffffffffffffffff169050600015158173ffffffffffffffffffffffffffffffffffffffff16631644e0ff856040518263ffffffff1660e01b81526004016113b69190612fde565b602060405180830381865afa1580156113d3573d6000803e3d6000fd5b505050506040513d601f19601f820116820180604052508101906113f79190613000565b151514611439576040517f08c379a00000000000000000000000000000000000000000000000000000000081526004016114309061309f565b60405180910390fd5b600015158173ffffffffffffffffffffffffffffffffffffffff16638958a5de846040518263ffffffff1660e01b81526004016114769190612fde565b602060405180830381865afa158015611493573d6000803e3d6000fd5b505050506040513d601f19601f820116820180604052508101906114b79190613000565b1515146114f9576040517f08c379a00000000000000000000000000000000000000000000000000000000081526004016114f09061309f565b60405180910390fd5b8073ffffffffffffffffffffffffffffffffffffffff166361cbc35784846040518363ffffffff1660e01b8152600401611534929190612fa7565b600060405180830381600087803b15801561154e57600080fd5b505af1158015611562573d6000803e3d6000fd5b50505050505050565b600081806040015160028260200151611584919061311d565b116115c4576040517f08c379a00000000000000000000000000000000000000000000000000000000081526004016115bb906131c0565b60405180910390fd5b6000600160009054906101000a900473ffffffffffffffffffffffffffffffffffffffff16905060008173ffffffffffffffffffffffffffffffffffffffff16636352211e84600001516040518263ffffffff1660e01b815260040161162a91906124f5565b6020604051808303816000875af1158015611649573d6000803e3d6000fd5b505050506040513d601f19601f8201168201806040525081019061166d91906131f5565b90503373ffffffffffffffffffffffffffffffffffffffff168173ffffffffffffffffffffffffffffffffffffffff16146116dd576040517f08c379a00000000000000000000000000000000000000000000000000000000081526004016116d49061326e565b60405180910390fd5b6000808373ffffffffffffffffffffffffffffffffffffffff166358f0b6c186600001516040518263ffffffff1660e01b815260040161171d91906124f5565b600060405180830381865afa15801561173a573d6000803e3d6000fd5b505050506040513d6000823e3d601f19601f820116820180604052508101906117639190613470565b985098505050505050505060001515821515146117b5576040517f08c379a00000000000000000000000000000000000000000000000000000000081526004016117ac90613600565b60405180910390fd5b6000600460009054906101000a900473ffffffffffffffffffffffffffffffffffffffff16905060008173ffffffffffffffffffffffffffffffffffffffff1663884c8ffe8a600001516040518263ffffffff1660e01b815260040161181b91906124f5565b600060405180830381865afa158015611838573d6000803e3d6000fd5b505050506040513d6000823e3d601f19601f820116820180604052508101906118619190612e14565b5094505050505060001515811515146118af576040517f08c379a00000000000000000000000000000000000000000000000000000000081526004016118a69061366c565b60405180910390fd5b60008273ffffffffffffffffffffffffffffffffffffffff16631644e0ff8b606001516040518263ffffffff1660e01b81526004016118ee9190612fde565b602060405180830381865afa15801561190b573d6000803e3d6000fd5b505050506040513d601f19601f8201168201806040525081019061192f9190613000565b90506000151581151514611978576040517f08c379a000000000000000000000000000000000000000000000000000000000815260040161196f9061309f565b60405180910390fd5b8273ffffffffffffffffffffffffffffffffffffffff1663ff669dfb8b326040518363ffffffff1660e01b81526004016119b3929190612c73565b6020604051808303816000875af11580156119d2573d6000803e3d6000fd5b505050506040513d601f19601f820116820180604052508101906119f69190612a8f565b98505050505050505050919050565b600260009054906101000a900473ffffffffffffffffffffffffffffffffffffffff1673ffffffffffffffffffffffffffffffffffffffff163373ffffffffffffffffffffffffffffffffffffffff1614611a95576040517f08c379a0000000000000000000000000000000000000000000000000000000008152600401611a8c90612d4c565b60405180910390fd5b6000600460009054906101000a900473ffffffffffffffffffffffffffffffffffffffff1690508073ffffffffffffffffffffffffffffffffffffffff16638388f41387878787876040518663ffffffff1660e01b8152600401611afd95949392919061368c565b600060405180830381600087803b158015611b1757600080fd5b505af1158015611b2b573d6000803e3d6000fd5b50505050505050505050565b600260009054906101000a900473ffffffffffffffffffffffffffffffffffffffff1673ffffffffffffffffffffffffffffffffffffffff163373ffffffffffffffffffffffffffffffffffffffff1614611bc7576040517f08c379a0000000000000000000000000000000000000000000000000000000008152600401611bbe90612d4c565b60405180910390fd5b6000600460009054906101000a900473ffffffffffffffffffffffffffffffffffffffff1690508073ffffffffffffffffffffffffffffffffffffffff16638fbf353f8585856040518463ffffffff1660e01b8152600401611c2b939291906136df565b600060405180830381600087803b158015611c4557600080fd5b505af1158015611c59573d6000803e3d6000fd5b5050505050505050565b600080600460009054906101000a900473ffffffffffffffffffffffffffffffffffffffff1690508073ffffffffffffffffffffffffffffffffffffffff16639711715a6040518163ffffffff1660e01b81526004016020604051808303816000875af1158015611cd8573d6000803e3d6000fd5b505050506040513d601f19601f82011682018060405250810190611cfc9190612a8f565b91505090565b600260009054906101000a900473ffffffffffffffffffffffffffffffffffffffff1681565b600160009054906101000a900473ffffffffffffffffffffffffffffffffffffffff1681565b600081806040015160028260200151611d67919061311d565b11611da7576040517f08c379a0000000000000000000000000000000000000000000000000000000008152600401611d9e906131c0565b60405180910390fd5b6000600160009054906101000a900473ffffffffffffffffffffffffffffffffffffffff16905060008173ffffffffffffffffffffffffffffffffffffffff16636352211e84600001516040518263ffffffff1660e01b8152600401611e0d91906124f5565b6020604051808303816000875af1158015611e2c573d6000803e3d6000fd5b505050506040513d601f19601f82011682018060405250810190611e5091906131f5565b90503373ffffffffffffffffffffffffffffffffffffffff168173ffffffffffffffffffffffffffffffffffffffff1614611ec0576040517f08c379a0000000000000000000000000000000000000000000000000000000008152600401611eb79061326e565b60405180910390fd5b6000808373ffffffffffffffffffffffffffffffffffffffff166358f0b6c186600001516040518263ffffffff1660e01b8152600401611f0091906124f5565b600060405180830381865afa158015611f1d573d6000803e3d6000fd5b505050506040513d6000823e3d601f19601f82011682018060405250810190611f469190613470565b98509850505050505050506000151582151514611f98576040517f08c379a0000000000000000000000000000000000000000000000000000000008152600401611f8f90613600565b60405180910390fd5b6000600460009054906101000a900473ffffffffffffffffffffffffffffffffffffffff16905060008173ffffffffffffffffffffffffffffffffffffffff1663884c8ffe8a600001516040518263ffffffff1660e01b8152600401611ffe91906124f5565b600060405180830381865afa15801561201b573d6000803e3d6000fd5b505050506040513d6000823e3d601f19601f820116820180604052508101906120449190612e14565b509450505050506000151581151514612092576040517f08c379a00000000000000000000000000000000000000000000000000000000081526004016120899061366c565b60405180910390fd5b60008273ffffffffffffffffffffffffffffffffffffffff16631644e0ff8b606001516040518263ffffffff1660e01b81526004016120d19190612fde565b602060405180830381865afa1580156120ee573d6000803e3d6000fd5b505050506040513d601f19601f820116820180604052508101906121129190613000565b9050600015158115151461215b576040517f08c379a00000000000000000000000000000000000000000000000000000000081526004016121529061309f565b60405180910390fd5b8273ffffffffffffffffffffffffffffffffffffffff1663e10fa0b28b326040518363ffffffff1660e01b8152600401612196929190612c73565b6020604051808303816000875af11580156121b5573d6000803e3d6000fd5b505050506040513d601f19601f820116820180604052508101906121d99190612a8f565b98505050505050505050919050565b600080600460009054906101000a900473ffffffffffffffffffffffffffffffffffffffff1690506000808273ffffffffffffffffffffffffffffffffffffffff1663884c8ffe866040518263ffffffff1660e01b815260040161224c91906124f5565b600060405180830381865afa158015612269573d6000803e3d6000fd5b505050506040513d6000823e3d601f19601f820116820180604052508101906122929190612e14565b955095505050505081156122ab578093505050506122e6565b6040517f08c379a00000000000000000000000000000000000000000000000000000000081526004016122dd90612f25565b60405180910390fd5b919050565b60008054906101000a900473ffffffffffffffffffffffffffffffffffffffff1673ffffffffffffffffffffffffffffffffffffffff163373ffffffffffffffffffffffffffffffffffffffff1614612379576040517f08c379a000000000000000000000000000000000000000000000000000000000815260040161237090612d4c565b60405180910390fd5b80600160006101000a81548173ffffffffffffffffffffffffffffffffffffffff021916908373ffffffffffffffffffffffffffffffffffffffff16021790555050565b600360009054906101000a900473ffffffffffffffffffffffffffffffffffffffff1681565b600181565b600081836123f69190613716565b905092915050565b6000604051905090565b600080fd5b600080fd5b600073ffffffffffffffffffffffffffffffffffffffff82169050919050565b600061243d82612412565b9050919050565b61244d81612432565b811461245857600080fd5b50565b60008135905061246a81612444565b92915050565b6000819050919050565b61248381612470565b811461248e57600080fd5b50565b6000813590506124a08161247a565b92915050565b600080604083850312156124bd576124bc612408565b5b60006124cb8582860161245b565b92505060206124dc85828601612491565b9150509250929050565b6124ef81612470565b82525050565b600060208201905061250a60008301846124e6565b92915050565b60006020828403121561252657612525612408565b5b600061253484828501612491565b91505092915050565b61254681612432565b82525050565b6000602082019050612561600083018461253d565b92915050565b600080fd5b600080fd5b6000601f19601f8301169050919050565b7f4e487b7100000000000000000000000000000000000000000000000000000000600052604160045260246000fd5b6125ba82612571565b810181811067ffffffffffffffff821117156125d9576125d8612582565b5b80604052505050565b60006125ec6123fe565b90506125f882826125b1565b919050565b600067ffffffffffffffff82111561261857612617612582565b5b61262182612571565b9050602081019050919050565b82818337600083830152505050565b600061265061264b846125fd565b6125e2565b90508281526020810184848401111561266c5761266b61256c565b5b61267784828561262e565b509392505050565b600082601f83011261269457612693612567565b5b81356126a484826020860161263d565b91505092915050565b600080600080600080600060e0888a0312156126cc576126cb612408565b5b60006126da8a828b01612491565b97505060206126eb8a828b01612491565b96505060406126fc8a828b01612491565b955050606088013567ffffffffffffffff81111561271d5761271c61240d565b5b6127298a828b0161267f565b945050608088013567ffffffffffffffff81111561274a5761274961240d565b5b6127568a828b0161267f565b93505060a06127678a828b01612491565b92505060c06127788a828b0161245b565b91505092959891949750929550565b60006020828403121561279d5761279c612408565b5b60006127ab8482850161245b565b91505092915050565b600080604083850312156127cb576127ca612408565b5b60006127d985828601612491565b92505060206127ea85828601612491565b9150509250929050565b6000806040838503121561280b5761280a612408565b5b600083013567ffffffffffffffff8111156128295761282861240d565b5b6128358582860161267f565b925050602083013567ffffffffffffffff8111156128565761285561240d565b5b6128628582860161267f565b9150509250929050565b600080fd5b600080fd5b600060a0828403121561288c5761288b61286c565b5b61289660a06125e2565b905060006128a684828501612491565b60008301525060206128ba84828501612491565b60208301525060406128ce84828501612491565b604083015250606082013567ffffffffffffffff8111156128f2576128f1612871565b5b6128fe8482850161267f565b606083015250608082013567ffffffffffffffff81111561292257612921612871565b5b61292e8482850161267f565b60808301525092915050565b6000602082840312156129505761294f612408565b5b600082013567ffffffffffffffff81111561296e5761296d61240d565b5b61297a84828501612876565b91505092915050565b600080600080600060a0868803121561299f5761299e612408565b5b60006129ad8882890161245b565b95505060206129be88828901612491565b94505060406129cf88828901612491565b93505060606129e088828901612491565b92505060806129f188828901612491565b9150509295509295909350565b600080600060608486031215612a1757612a16612408565b5b6000612a2586828701612491565b9350506020612a3686828701612491565b9250506040612a4786828701612491565b9150509250925092565b6000604082019050612a66600083018561253d565b612a7360208301846124e6565b9392505050565b600081519050612a898161247a565b92915050565b600060208284031215612aa557612aa4612408565b5b6000612ab384828501612a7a565b91505092915050565b600082825260208201905092915050565b7f554e415554484f52495a45443a204f4e4c595f5245434f5244535f434f4e545260008201527f4143540000000000000000000000000000000000000000000000000000000000602082015250565b6000612b29602383612abc565b9150612b3482612acd565b604082019050919050565b60006020820190508181036000830152612b5881612b1c565b9050919050565b612b6881612470565b82525050565b600081519050919050565b600082825260208201905092915050565b60005b83811015612ba8578082015181840152602081019050612b8d565b83811115612bb7576000848401525b50505050565b6000612bc882612b6e565b612bd28185612b79565b9350612be2818560208601612b8a565b612beb81612571565b840191505092915050565b600060a083016000830151612c0e6000860182612b5f565b506020830151612c216020860182612b5f565b506040830151612c346040860182612b5f565b5060608301518482036060860152612c4c8282612bbd565b91505060808301518482036080860152612c668282612bbd565b9150508091505092915050565b60006040820190508181036000830152612c8d8185612bf6565b9050612c9c602083018461253d565b9392505050565b6000606082019050612cb860008301866124e6565b612cc560208301856124e6565b612cd2604083018461253d565b949350505050565b7f554e415554484f52495a45443a2043414e4e4f545f504552464f524d5f41435460008201527f494f4e0000000000000000000000000000000000000000000000000000000000602082015250565b6000612d36602383612abc565b9150612d4182612cda565b604082019050919050565b60006020820190508181036000830152612d6581612d29565b9050919050565b6000612d7f612d7a846125fd565b6125e2565b905082815260208101848484011115612d9b57612d9a61256c565b5b612da6848285612b8a565b509392505050565b600082601f830112612dc357612dc2612567565b5b8151612dd3848260208601612d6c565b91505092915050565b60008115159050919050565b612df181612ddc565b8114612dfc57600080fd5b50565b600081519050612e0e81612de8565b92915050565b60008060008060008060c08789031215612e3157612e30612408565b5b6000612e3f89828a01612a7a565b965050602087015167ffffffffffffffff811115612e6057612e5f61240d565b5b612e6c89828a01612dae565b955050604087015167ffffffffffffffff811115612e8d57612e8c61240d565b5b612e9989828a01612dae565b9450506060612eaa89828a01612a7a565b9350506080612ebb89828a01612dff565b92505060a0612ecc89828a01612a7a565b9150509295509295509295565b7f494e56414c49443a2057524f4e475f5245434f52445f49440000000000000000600082015250565b6000612f0f601883612abc565b9150612f1a82612ed9565b602082019050919050565b60006020820190508181036000830152612f3e81612f02565b9050919050565b6000604082019050612f5a60008301856124e6565b612f6760208301846124e6565b9392505050565b6000612f7982612b6e565b612f838185612abc565b9350612f93818560208601612b8a565b612f9c81612571565b840191505092915050565b60006040820190508181036000830152612fc18185612f6e565b90508181036020830152612fd58184612f6e565b90509392505050565b60006020820190508181036000830152612ff88184612f6e565b905092915050565b60006020828403121561301657613015612408565b5b600061302484828501612dff565b91505092915050565b7f494e56414c49443a20544f4b454e5f53594d424f4c5f414c52454144595f494e60008201527f5f55534500000000000000000000000000000000000000000000000000000000602082015250565b6000613089602483612abc565b91506130948261302d565b604082019050919050565b600060208201905081810360008301526130b88161307c565b9050919050565b7f4e487b7100000000000000000000000000000000000000000000000000000000600052601260045260246000fd5b7f4e487b7100000000000000000000000000000000000000000000000000000000600052601160045260246000fd5b600061312882612470565b915061313383612470565b925082613143576131426130bf565b5b828204905092915050565b7f494e56414c49443a2054524541535552595f53484f554c445f484156455f353060008201527f255f4f465f535550504c59000000000000000000000000000000000000000000602082015250565b60006131aa602b83612abc565b91506131b58261314e565b604082019050919050565b600060208201905081810360008301526131d98161319d565b9050919050565b6000815190506131ef81612444565b92915050565b60006020828403121561320b5761320a612408565b5b6000613219848285016131e0565b91505092915050565b7f494e56414c49443a204f4e4c595f5245434f52445f4f574e4552000000000000600082015250565b6000613258601a83612abc565b915061326382613222565b602082019050919050565b600060208201905081810360008301526132878161324b565b9050919050565b600061010082840312156132a5576132a461286c565b5b6132b06101006125e2565b9050600082015167ffffffffffffffff8111156132d0576132cf612871565b5b6132dc84828501612dae565b600083015250602082015167ffffffffffffffff811115613300576132ff612871565b5b61330c84828501612dae565b602083015250604061332084828501612a7a565b604083015250606061333484828501612a7a565b6060830152506080613348848285016131e0565b60808301525060a082015167ffffffffffffffff81111561336c5761336b612871565b5b61337884828501612dae565b60a08301525060c061338c84828501612a7a565b60c08301525060e06133a084828501612dff565b60e08301525092915050565b600060a082840312156133c2576133c161286c565b5b6133cc60a06125e2565b905060006133dc84828501612a7a565b60008301525060206133f084828501612a7a565b602083015250604061340484828501612a7a565b604083015250606082015167ffffffffffffffff81111561342857613427612871565b5b61343484828501612dae565b606083015250608082015167ffffffffffffffff81111561345857613457612871565b5b61346484828501612dae565b60808301525092915050565b60008060008060008060008060006101208a8c03121561349357613492612408565b5b60008a015167ffffffffffffffff8111156134b1576134b061240d565b5b6134bd8c828d0161328e565b99505060208a015167ffffffffffffffff8111156134de576134dd61240d565b5b6134ea8c828d016133ac565b98505060408a015167ffffffffffffffff81111561350b5761350a61240d565b5b6135178c828d016133ac565b97505060606135288c828d016131e0565b96505060806135398c828d01612a7a565b95505060a061354a8c828d01612a7a565b94505060c061355b8c828d01612a7a565b93505060e061356c8c828d01612dff565b92505061010061357e8c828d01612dff565b9150509295985092959850929598565b7f494e56414c49443a2043414e4e4f545f4352454154455f4e45575f564552534960008201527f4f4e5f544f4b454e530000000000000000000000000000000000000000000000602082015250565b60006135ea602983612abc565b91506135f58261358e565b604082019050919050565b60006020820190508181036000830152613619816135dd565b9050919050565b7f494e56414c49443a20544f4b454e5f49445f414c52454144595f494e5f555345600082015250565b6000613656602083612abc565b915061366182613620565b602082019050919050565b6000602082019050818103600083015261368581613649565b9050919050565b600060a0820190506136a1600083018861253d565b6136ae60208301876124e6565b6136bb60408301866124e6565b6136c860608301856124e6565b6136d560808301846124e6565b9695505050505050565b60006060820190506136f460008301866124e6565b61370160208301856124e6565b61370e60408301846124e6565b949350505050565b600061372182612470565b915061372c83612470565b92508282101561373f5761373e6130ee565b5b82820390509291505056fea2646970667358221220fe9038797ae50096a14a00850a21cbc74d44d73ab88675eda3919abc34f1508a64736f6c634300080c0033",
  "immutableReferences": {},
  "source": "pragma solidity ^0.8.0;\n\nimport \"@openzeppelin/contracts/token/ERC1155/ERC1155.sol\";\nimport \"@openzeppelin/contracts/token/ERC1155/IERC1155Receiver.sol\";\nimport \"@openzeppelin/contracts/token/ERC1155/extensions/ERC1155Supply.sol\";\nimport \"@openzeppelin/contracts/utils/Counters.sol\";\nimport \"@openzeppelin/contracts/access/Ownable.sol\";\nimport \"../interface/IRecords.sol\";\nimport \"../ERC1155/SnapshotERC1155.sol\";\nimport \"@openzeppelin/contracts/utils/math/SafeMath.sol\";\nimport \"../voting/VotingHubContract.sol\";\nimport \"./TreasuryCoreContract.sol\";\n\ncontract TreasuryContract {\n    uint256 public constant CRD = 1;\n    address public OWNER;\n    address public RECORDS_CONTRACT_ADDRESS;\n    address public CONTRIBUTION_VOTING_CONTRACT_ADDRESS;\n    address public DILUTION_CONTRACT_ADDRESS;\n    address public TREASURY_CORE_CONTRACT_ADDRESS;\n\n    constructor(address owner) {\n        OWNER = owner;\n    }\n\n    /// @dev Modifier to check that the person who accesses a specific function is the owner of contract himself.\n    modifier ownerOnly() {\n        require(msg.sender == OWNER, \"UNAUTHORIZED: CANNOT_PERFORM_ACTION\");\n        _;\n    }\n\n    /// @dev Modifier to check that the calls are made by records contract only\n    modifier onlyRecordsContract() {\n        require(\n            msg.sender == RECORDS_CONTRACT_ADDRESS,\n            \"UNAUTHORIZED: ONLY_RECORDS_CONTRACT\"\n        );\n        _;\n    }\n\n    /// @dev Modifier to check that if the sender is the voting contract or not.\n    modifier onlyContributionVotingContract() {\n        require(\n            msg.sender == CONTRIBUTION_VOTING_CONTRACT_ADDRESS,\n            \"UNAUTHORIZED: CANNOT_PERFORM_ACTION\"\n        );\n        _;\n    }\n\n    /// @dev Modifier to check that if the sender is the dilution contract or not.\n    modifier onlyDilutionContract() {\n        require(\n            msg.sender == DILUTION_CONTRACT_ADDRESS,\n            \"UNAUTHORIZED: CANNOT_PERFORM_ACTION\"\n        );\n        _;\n    }\n\n    /// @dev Modifier to check if the sender is authorized to create tokens for this record.\n    /// @param newTokenData This is the NewTokenData structure that needs to be passed to create a new token,\n    /// here it is passed to check if the token can be created with respected data\n    modifier canCreateToken(\n        TreasuryCoreContract.NewTokenData memory newTokenData\n    ) {\n        require(\n            newTokenData.totalSupply / 2 > newTokenData.userBalance,\n            \"INVALID: TREASURY_SHOULD_HAVE_50%_OF_SUPPLY\"\n        );\n\n        IRecords recordsContract = IRecords(RECORDS_CONTRACT_ADDRESS);\n\n        address owner = recordsContract.ownerOf(newTokenData.recordId);\n        require(owner == msg.sender, \"INVALID: ONLY_RECORD_OWNER\");\n\n        (, , , , , , , bool isPresent, bool isAccepted) = recordsContract\n            .newVersionRequestMap(newTokenData.recordId);\n\n        require(\n            isPresent == false,\n            \"INVALID: CANNOT_CREATE_NEW_VERSION_TOKENS\"\n        );\n\n        _;\n    }\n\n    /// @dev This function sets the Owners address\n    /// @param ownerAddress This is the address of new owner of contract\n    function setOwnerAddress(address ownerAddress) public ownerOnly {\n        OWNER = ownerAddress;\n    }\n\n    /// @dev This function sets the core treasury contract address\n    /// @param ownerAddress This is the address of new core treasury contract\n    function setCoreTreasuryAddress(address ownerAddress) public ownerOnly {\n        TREASURY_CORE_CONTRACT_ADDRESS = ownerAddress;\n    }\n\n    /// @dev This function sets the Records Contract address\n    /// @param newRecordsContractAddress This is the address of new Records contract\n    function setRecordsContractAddress(address newRecordsContractAddress)\n        public\n        ownerOnly\n    {\n        RECORDS_CONTRACT_ADDRESS = newRecordsContractAddress;\n    }\n\n    /// @dev This function sets the dilution Contract address\n    /// @param newDilutionContract This is the address of new dilution contract\n    function setDilutionContract(address newDilutionContract) public ownerOnly {\n        DILUTION_CONTRACT_ADDRESS = newDilutionContract;\n    }\n\n    /// @dev This function sets the Voting Contract address\n    /// @param newVotingContractAddress This is the address of new voting contract\n    function setContributionVotingContractAddress(\n        address newVotingContractAddress\n    ) public ownerOnly {\n        CONTRIBUTION_VOTING_CONTRACT_ADDRESS = newVotingContractAddress;\n    }\n\n    /// @dev This function creates new governance tokens for specified record\n    /// @param newTokenData This contains all the parameters needed to create a new governance token that are\n    function createNewGovernanceToken(\n        TreasuryCoreContract.NewTokenData memory newTokenData\n    ) external payable canCreateToken(newTokenData) returns (uint256) {\n        TreasuryCoreContract treasuryCoreContract = TreasuryCoreContract(\n            TREASURY_CORE_CONTRACT_ADDRESS\n        );\n        (, , , , bool isPresent, ) = treasuryCoreContract.govTokenMapping(\n            newTokenData.recordId\n        );\n        require(isPresent == false, \"INVALID: TOKEN_ID_ALREADY_IN_USE\");\n\n        bool isSymbolInUse = treasuryCoreContract.govTokenSym(\n            newTokenData.symbol\n        );\n        require(isSymbolInUse == false, \"INVALID: TOKEN_SYMBOL_ALREADY_IN_USE\");\n        return\n            treasuryCoreContract.createNewGovernanceToken(\n                newTokenData,\n                tx.origin\n            );\n    }\n\n    /// @dev This function creats new community tokens for specified record, this function should only be called by the owner of the record\n    /// @param newTokenData This contains all the parameters needed to create a new community token that are\n    function createNewCommunityToken(\n        TreasuryCoreContract.NewTokenData memory newTokenData\n    ) external payable canCreateToken(newTokenData) returns (uint256) {\n        TreasuryCoreContract treasuryCoreContract = TreasuryCoreContract(\n            TREASURY_CORE_CONTRACT_ADDRESS\n        );\n        (, , , , bool isPresent, ) = treasuryCoreContract.govTokenMapping(\n            newTokenData.recordId\n        );\n        require(isPresent == false, \"INVALID: TOKEN_ID_ALREADY_IN_USE\");\n\n        bool isSymbolInUse = treasuryCoreContract.govTokenSym(\n            newTokenData.symbol\n        );\n        require(isSymbolInUse == false, \"INVALID: TOKEN_SYMBOL_ALREADY_IN_USE\");\n        return\n            treasuryCoreContract.createNewCommunityToken(\n                newTokenData,\n                tx.origin\n            );\n    }\n\n    /// @dev This function should be only called from the records contract, this function creates\n    // governance tokens when the result for a new version request is declared\n    /// @param recordId Record id of which the tokens need to be created\n    /// @param totalSupply This is the total supply of the token\n    /// @param userBalance The amount of tokens that owner of the new version will receive\n    /// @param symbol This is the short abbreviation of the token\n    /// @param image This is the logo of the token\n    /// @param tokensForOldContributors This is the amount of tokens that old record owners will get\n    /// @param userAddress This is the address of the owner who is minting the token\n    function createNewGovernanceTokenNewRecordVersion(\n        uint256 recordId,\n        uint256 totalSupply,\n        uint256 userBalance,\n        string memory symbol,\n        string memory image,\n        uint256 tokensForOldContributors,\n        address userAddress\n    ) external payable onlyRecordsContract returns (uint256) {\n        TreasuryCoreContract treasuryCoreContract = TreasuryCoreContract(\n            TREASURY_CORE_CONTRACT_ADDRESS\n        );\n        TreasuryCoreContract.NewTokenData\n            memory newTokenData = TreasuryCoreContract.NewTokenData(\n                recordId,\n                totalSupply,\n                userBalance,\n                symbol,\n                image\n            );\n        uint256 tokenId = treasuryCoreContract.createNewGovernanceToken(\n            newTokenData,\n            userAddress\n        );\n        treasuryCoreContract.transferRewardTokens(\n            tokenId,\n            tokensForOldContributors,\n            RECORDS_CONTRACT_ADDRESS\n        );\n        return tokenId;\n    }\n\n    /// @dev This function should be only called from the records contract, this function creates\n    // governance tokens when the result for a new version request is declared\n    /// @param recordId Record id of which the tokens need to be created\n    /// @param totalSupply This is the total supply of the token\n    /// @param userBalance The amount of tokens that owner of the new version will receive\n    /// @param symbol This is the short abbreviation of the token\n    /// @param image This is the logo of the token\n    /// @param tokensForOldContributors This is the amount of tokens that old record owners will get\n    /// @param userAddress This is the address of the owner who is minting the token\n    function createNewCommunityTokenNewRecordVersion(\n        uint256 recordId,\n        uint256 totalSupply,\n        uint256 userBalance,\n        string memory symbol,\n        string memory image,\n        uint256 tokensForOldContributors,\n        address userAddress\n    ) external payable onlyRecordsContract returns (uint256) {\n        TreasuryCoreContract treasuryCoreContract = TreasuryCoreContract(\n            TREASURY_CORE_CONTRACT_ADDRESS\n        );\n        TreasuryCoreContract.NewTokenData\n            memory newTokenData = TreasuryCoreContract.NewTokenData(\n                recordId,\n                totalSupply,\n                userBalance,\n                symbol,\n                image\n            );\n        uint256 tokenId = treasuryCoreContract.createNewCommunityToken(\n            newTokenData,\n            userAddress\n        );\n        treasuryCoreContract.transferRewardTokens(\n            tokenId,\n            tokensForOldContributors,\n            RECORDS_CONTRACT_ADDRESS\n        );\n        return tokenId;\n    }\n\n    /// @dev This function creats new community tokens for specified record\n    /// @param recordId This is the id of the record to which the token belongs to\n    /// @param tokenId This is the id of the which is to be minted\n    /// @param tokenAmount This is the amount that is to be minted\n    function mintTokens(\n        uint256 recordId,\n        uint256 tokenId,\n        uint256 tokenAmount\n    ) external payable onlyContributionVotingContract {\n        // call super method\n        TreasuryCoreContract treasuryCoreContract = TreasuryCoreContract(\n            TREASURY_CORE_CONTRACT_ADDRESS\n        );\n        treasuryCoreContract.mintTokens(recordId, tokenId, tokenAmount);\n    }\n\n    /// @dev This function is called only by the voting contract once the voting ends\n    /// @param to This is the receivers address\n    /// @param recordId This is the recordId to which the contribution belongs to\n    /// @param contributionId this is the contribution id to which the user has won\n    /// @param rewardGovernance this is the amount of Governance token that needs to be transferred\n    /// @param rewardCommunity this is the amount of community token that needs to be transferred\n    function transferRewardAmount(\n        address to,\n        uint256 recordId,\n        uint256 contributionId,\n        uint256 rewardGovernance,\n        uint256 rewardCommunity\n    ) external payable onlyContributionVotingContract {\n        TreasuryCoreContract treasuryCoreContract = TreasuryCoreContract(\n            TREASURY_CORE_CONTRACT_ADDRESS\n        );\n        // call super method\n        treasuryCoreContract.transferRewardAmount(\n            to,\n            recordId,\n            contributionId,\n            rewardGovernance,\n            rewardCommunity\n        );\n    }\n\n    /// @dev This function gives you the community token id of the recordId that you pass\n    /// @param recordId This is the Id of the token that you want to check\n    function getCommunityTokenId(uint256 recordId)\n        public\n        view\n        returns (uint256)\n    {\n        TreasuryCoreContract treasuryCoreContract = TreasuryCoreContract(\n            TREASURY_CORE_CONTRACT_ADDRESS\n        );\n        (, , , , bool isPresent, uint256 tokenId) = treasuryCoreContract\n            .commTokenMapping(recordId);\n        if (isPresent) {\n            return tokenId;\n        } else {\n            revert(\"INVALID: WRONG_RECORD_ID\");\n        }\n    }\n\n    /// @dev This function gives you the governance token id of the recordId that you pass\n    /// @param recordId This is the Id of the token that you want to check\n    function getGovernanceTokenId(uint256 recordId)\n        public\n        view\n        returns (uint256)\n    {\n        TreasuryCoreContract treasuryCoreContract = TreasuryCoreContract(\n            TREASURY_CORE_CONTRACT_ADDRESS\n        );\n        (, , , , bool isPresent, uint256 tokenId) = treasuryCoreContract\n            .govTokenMapping(recordId);\n        if (isPresent) {\n            return tokenId;\n        } else {\n            revert(\"INVALID: WRONG_RECORD_ID\");\n        }\n    }\n\n    /// @dev This function returns the amount of total tokens that are in circulation\n    /// @param tokenId This is the token whose circulating supply you  want to find out\n    function totalCirculatingSupply(uint256 tokenId)\n        public\n        view\n        returns (uint256)\n    {\n        TreasuryCoreContract treasuryCoreContract = TreasuryCoreContract(\n            TREASURY_CORE_CONTRACT_ADDRESS\n        );\n        uint256 totalCirculatingBalance = SafeMath.sub(\n            treasuryCoreContract.totalSupply(tokenId),\n            treasuryCoreContract.balanceOf(\n                TREASURY_CORE_CONTRACT_ADDRESS,\n                tokenId\n            )\n        );\n\n        return totalCirculatingBalance;\n    }\n\n    /// @dev This function returns the amount of total tokens that are in circulation\n    /// @param tokenId This is the token whose circulating supply you  want to find out\n    function balanceOf(address account, uint256 tokenId)\n        public\n        view\n        returns (uint256)\n    {\n        TreasuryCoreContract treasuryCoreContract = TreasuryCoreContract(\n            TREASURY_CORE_CONTRACT_ADDRESS\n        );\n\n        return treasuryCoreContract.balanceOf(account, tokenId);\n    }\n\n    /// @dev This function sets the symbol name as used, this function is called from records\n    // contract to reserve symbol for new version creation\n    /// @param governanceSymbol Symbol for governance token\n    /// @param communitySymbol Symbol for community token\n    function setSymbolsAsUsed(\n        string memory governanceSymbol,\n        string memory communitySymbol\n    ) external onlyRecordsContract {\n        TreasuryCoreContract treasuryCoreContract = TreasuryCoreContract(\n            TREASURY_CORE_CONTRACT_ADDRESS\n        );\n        require(\n            treasuryCoreContract.govTokenSym(governanceSymbol) == false,\n            \"INVALID: TOKEN_SYMBOL_ALREADY_IN_USE\"\n        );\n\n        require(\n            treasuryCoreContract.commTokenSym(communitySymbol) == false,\n            \"INVALID: TOKEN_SYMBOL_ALREADY_IN_USE\"\n        );\n        treasuryCoreContract.setSymbolsAsUsed(\n            governanceSymbol,\n            communitySymbol\n        );\n    }\n\n    /// @dev This function sets the symbol name as available, this function is called from records\n    // contract to reserve symbol for new version creation\n    /// @param governanceSymbol Symbol for governance token\n    /// @param communitySymbol Symbol for community token\n    function setSymbolsAsAvailable(\n        string memory governanceSymbol,\n        string memory communitySymbol\n    ) external onlyRecordsContract {\n        TreasuryCoreContract treasuryCoreContract = TreasuryCoreContract(\n            TREASURY_CORE_CONTRACT_ADDRESS\n        );\n        treasuryCoreContract.setSymbolsAsAvailable(\n            governanceSymbol,\n            communitySymbol\n        );\n    }\n\n    function snapshot() public returns (uint256 snapshotId) {\n        TreasuryCoreContract treasuryCoreContract = TreasuryCoreContract(\n            TREASURY_CORE_CONTRACT_ADDRESS\n        );\n        return treasuryCoreContract.snapshot();\n    }\n\n    /// @dev this function is responsible for minting of new tokens for records\n    /// @param tokenId Id this is the tokenId that is to minted\n    /// @param amount the amount that is to be minted\n    function mintTokens(uint256 tokenId, uint256 amount)\n        public\n        onlyDilutionContract\n    {\n        TreasuryCoreContract treasuryCoreContract = TreasuryCoreContract(\n            TREASURY_CORE_CONTRACT_ADDRESS\n        );\n        treasuryCoreContract.mint(tokenId, amount);\n    }\n}\n",
  "sourcePath": "/Users/a1/Desktop/Office/projects/CrowdRecords/Contracts/contracts/treasury/TreasuryContract.sol",
  "compiler": {
    "name": "solc",
    "version": "0.8.12+commit.f00d7308.Emscripten.clang"
  },
  "schemaVersion": "3.4.6",
  "updatedAt": "2022-10-05T14:07:55.833Z",
  "devdoc": {
    "kind": "dev",
    "methods": {
      "balanceOf(address,uint256)": {
        "details": "This function returns the amount of total tokens that are in circulation",
        "params": {
          "tokenId": "This is the token whose circulating supply you  want to find out"
        }
      },
      "createNewCommunityToken((uint256,uint256,uint256,string,string))": {
        "details": "This function creats new community tokens for specified record, this function should only be called by the owner of the record",
        "params": {
          "newTokenData": "This contains all the parameters needed to create a new community token that are"
        }
      },
      "createNewCommunityTokenNewRecordVersion(uint256,uint256,uint256,string,string,uint256,address)": {
        "params": {
          "image": "This is the logo of the token",
          "recordId": "Record id of which the tokens need to be created",
          "symbol": "This is the short abbreviation of the token",
          "tokensForOldContributors": "This is the amount of tokens that old record owners will get",
          "totalSupply": "This is the total supply of the token",
          "userAddress": "This is the address of the owner who is minting the token",
          "userBalance": "The amount of tokens that owner of the new version will receive"
        }
      },
      "createNewGovernanceToken((uint256,uint256,uint256,string,string))": {
        "details": "This function creates new governance tokens for specified record",
        "params": {
          "newTokenData": "This contains all the parameters needed to create a new governance token that are"
        }
      },
      "createNewGovernanceTokenNewRecordVersion(uint256,uint256,uint256,string,string,uint256,address)": {
        "params": {
          "image": "This is the logo of the token",
          "recordId": "Record id of which the tokens need to be created",
          "symbol": "This is the short abbreviation of the token",
          "tokensForOldContributors": "This is the amount of tokens that old record owners will get",
          "totalSupply": "This is the total supply of the token",
          "userAddress": "This is the address of the owner who is minting the token",
          "userBalance": "The amount of tokens that owner of the new version will receive"
        }
      },
      "getCommunityTokenId(uint256)": {
        "details": "This function gives you the community token id of the recordId that you pass",
        "params": {
          "recordId": "This is the Id of the token that you want to check"
        }
      },
      "getGovernanceTokenId(uint256)": {
        "details": "This function gives you the governance token id of the recordId that you pass",
        "params": {
          "recordId": "This is the Id of the token that you want to check"
        }
      },
      "mintTokens(uint256,uint256)": {
        "details": "this function is responsible for minting of new tokens for records",
        "params": {
          "amount": "the amount that is to be minted",
          "tokenId": "Id this is the tokenId that is to minted"
        }
      },
      "mintTokens(uint256,uint256,uint256)": {
        "details": "This function creats new community tokens for specified record",
        "params": {
          "recordId": "This is the id of the record to which the token belongs to",
          "tokenAmount": "This is the amount that is to be minted",
          "tokenId": "This is the id of the which is to be minted"
        }
      },
      "setContributionVotingContractAddress(address)": {
        "details": "This function sets the Voting Contract address",
        "params": {
          "newVotingContractAddress": "This is the address of new voting contract"
        }
      },
      "setCoreTreasuryAddress(address)": {
        "details": "This function sets the core treasury contract address",
        "params": {
          "ownerAddress": "This is the address of new core treasury contract"
        }
      },
      "setDilutionContract(address)": {
        "details": "This function sets the dilution Contract address",
        "params": {
          "newDilutionContract": "This is the address of new dilution contract"
        }
      },
      "setOwnerAddress(address)": {
        "details": "This function sets the Owners address",
        "params": {
          "ownerAddress": "This is the address of new owner of contract"
        }
      },
      "setRecordsContractAddress(address)": {
        "details": "This function sets the Records Contract address",
        "params": {
          "newRecordsContractAddress": "This is the address of new Records contract"
        }
      },
      "setSymbolsAsAvailable(string,string)": {
        "params": {
          "communitySymbol": "Symbol for community token",
          "governanceSymbol": "Symbol for governance token"
        }
      },
      "setSymbolsAsUsed(string,string)": {
        "params": {
          "communitySymbol": "Symbol for community token",
          "governanceSymbol": "Symbol for governance token"
        }
      },
      "totalCirculatingSupply(uint256)": {
        "details": "This function returns the amount of total tokens that are in circulation",
        "params": {
          "tokenId": "This is the token whose circulating supply you  want to find out"
        }
      },
      "transferRewardAmount(address,uint256,uint256,uint256,uint256)": {
        "details": "This function is called only by the voting contract once the voting ends",
        "params": {
          "contributionId": "this is the contribution id to which the user has won",
          "recordId": "This is the recordId to which the contribution belongs to",
          "rewardCommunity": "this is the amount of community token that needs to be transferred",
          "rewardGovernance": "this is the amount of Governance token that needs to be transferred",
          "to": "This is the receivers address"
        }
      }
    },
    "version": 1
  },
  "userdoc": {
    "kind": "user",
    "methods": {},
    "version": 1
  }
}