{
  "contractName": "TreasuryContract",
  "abi": [
    {
      "inputs": [
        {
          "internalType": "address",
          "name": "owner",
          "type": "address"
        }
      ],
      "stateMutability": "nonpayable",
      "type": "constructor"
    },
    {
      "anonymous": false,
      "inputs": [
        {
          "indexed": false,
          "internalType": "uint8",
          "name": "version",
          "type": "uint8"
        }
      ],
      "name": "Initialized",
      "type": "event"
    },
    {
      "inputs": [],
      "name": "CONTRIBUTION_VOTING_CONTRACT_ADDRESS",
      "outputs": [
        {
          "internalType": "address",
          "name": "",
          "type": "address"
        }
      ],
      "stateMutability": "view",
      "type": "function",
      "constant": true
    },
    {
      "inputs": [],
      "name": "CRD",
      "outputs": [
        {
          "internalType": "uint256",
          "name": "",
          "type": "uint256"
        }
      ],
      "stateMutability": "view",
      "type": "function",
      "constant": true
    },
    {
      "inputs": [],
      "name": "DILUTION_CONTRACT_ADDRESS",
      "outputs": [
        {
          "internalType": "address",
          "name": "",
          "type": "address"
        }
      ],
      "stateMutability": "view",
      "type": "function",
      "constant": true
    },
    {
      "inputs": [],
      "name": "OWNER",
      "outputs": [
        {
          "internalType": "address",
          "name": "",
          "type": "address"
        }
      ],
      "stateMutability": "view",
      "type": "function",
      "constant": true
    },
    {
      "inputs": [],
      "name": "RECORDS_CONTRACT_ADDRESS",
      "outputs": [
        {
          "internalType": "address",
          "name": "",
          "type": "address"
        }
      ],
      "stateMutability": "view",
      "type": "function",
      "constant": true
    },
    {
      "inputs": [],
      "name": "RECORDS_VOTING_CONTRACT_ADDRESS",
      "outputs": [
        {
          "internalType": "address",
          "name": "",
          "type": "address"
        }
      ],
      "stateMutability": "view",
      "type": "function",
      "constant": true
    },
    {
      "inputs": [
        {
          "internalType": "uint256",
          "name": "",
          "type": "uint256"
        }
      ],
      "name": "SNAPSHOT_CALLER",
      "outputs": [
        {
          "internalType": "address",
          "name": "",
          "type": "address"
        }
      ],
      "stateMutability": "view",
      "type": "function",
      "constant": true
    },
    {
      "inputs": [],
      "name": "TREASURY_CORE_CONTRACT_ADDRESS",
      "outputs": [
        {
          "internalType": "address",
          "name": "",
          "type": "address"
        }
      ],
      "stateMutability": "view",
      "type": "function",
      "constant": true
    },
    {
      "inputs": [
        {
          "internalType": "address",
          "name": "contractAddress",
          "type": "address"
        }
      ],
      "name": "addSnapshotCaller",
      "outputs": [],
      "stateMutability": "nonpayable",
      "type": "function"
    },
    {
      "inputs": [
        {
          "internalType": "uint256",
          "name": "index",
          "type": "uint256"
        }
      ],
      "name": "removeSnapshotCaller",
      "outputs": [],
      "stateMutability": "nonpayable",
      "type": "function"
    },
    {
      "inputs": [
        {
          "internalType": "address",
          "name": "ownerAddress",
          "type": "address"
        }
      ],
      "name": "setOwnerAddress",
      "outputs": [],
      "stateMutability": "nonpayable",
      "type": "function"
    },
    {
      "inputs": [
        {
          "internalType": "address",
          "name": "newTreasuryCoreContractAddress",
          "type": "address"
        },
        {
          "internalType": "address",
          "name": "newRecordsContractAddress",
          "type": "address"
        },
        {
          "internalType": "address",
          "name": "newRecordsVotingContractAddress",
          "type": "address"
        },
        {
          "internalType": "address",
          "name": "newDilutionContract",
          "type": "address"
        },
        {
          "internalType": "address",
          "name": "newVotingContractAddress",
          "type": "address"
        }
      ],
      "name": "initialize",
      "outputs": [],
      "stateMutability": "nonpayable",
      "type": "function"
    },
    {
      "inputs": [
        {
          "components": [
            {
              "internalType": "uint256",
              "name": "recordId",
              "type": "uint256"
            },
            {
              "internalType": "uint256",
              "name": "totalSupply",
              "type": "uint256"
            },
            {
              "internalType": "uint256",
              "name": "userBalance",
              "type": "uint256"
            },
            {
              "internalType": "string",
              "name": "symbol",
              "type": "string"
            },
            {
              "internalType": "string",
              "name": "image",
              "type": "string"
            }
          ],
          "internalType": "struct TreasuryCoreContract.NewTokenData",
          "name": "newTokenData",
          "type": "tuple"
        }
      ],
      "name": "createNewGovernanceToken",
      "outputs": [
        {
          "internalType": "uint256",
          "name": "",
          "type": "uint256"
        }
      ],
      "stateMutability": "nonpayable",
      "type": "function"
    },
    {
      "inputs": [
        {
          "components": [
            {
              "internalType": "uint256",
              "name": "recordId",
              "type": "uint256"
            },
            {
              "internalType": "uint256",
              "name": "totalSupply",
              "type": "uint256"
            },
            {
              "internalType": "uint256",
              "name": "userBalance",
              "type": "uint256"
            },
            {
              "internalType": "string",
              "name": "symbol",
              "type": "string"
            },
            {
              "internalType": "string",
              "name": "image",
              "type": "string"
            }
          ],
          "internalType": "struct TreasuryCoreContract.NewTokenData",
          "name": "newTokenData",
          "type": "tuple"
        }
      ],
      "name": "createNewCommunityToken",
      "outputs": [
        {
          "internalType": "uint256",
          "name": "",
          "type": "uint256"
        }
      ],
      "stateMutability": "nonpayable",
      "type": "function"
    },
    {
      "inputs": [
        {
          "internalType": "uint256",
          "name": "recordId",
          "type": "uint256"
        },
        {
          "internalType": "uint256",
          "name": "totalSupply",
          "type": "uint256"
        },
        {
          "internalType": "uint256",
          "name": "userBalance",
          "type": "uint256"
        },
        {
          "internalType": "string",
          "name": "symbol",
          "type": "string"
        },
        {
          "internalType": "string",
          "name": "image",
          "type": "string"
        },
        {
          "internalType": "uint256",
          "name": "tokensForOldContributors",
          "type": "uint256"
        },
        {
          "internalType": "address",
          "name": "userAddress",
          "type": "address"
        }
      ],
      "name": "createNewGovernanceTokenNewRecordVersion",
      "outputs": [
        {
          "internalType": "uint256",
          "name": "",
          "type": "uint256"
        }
      ],
      "stateMutability": "payable",
      "type": "function",
      "payable": true
    },
    {
      "inputs": [
        {
          "internalType": "uint256",
          "name": "recordId",
          "type": "uint256"
        },
        {
          "internalType": "uint256",
          "name": "totalSupply",
          "type": "uint256"
        },
        {
          "internalType": "uint256",
          "name": "userBalance",
          "type": "uint256"
        },
        {
          "internalType": "string",
          "name": "symbol",
          "type": "string"
        },
        {
          "internalType": "string",
          "name": "image",
          "type": "string"
        },
        {
          "internalType": "uint256",
          "name": "tokensForOldContributors",
          "type": "uint256"
        },
        {
          "internalType": "address",
          "name": "userAddress",
          "type": "address"
        }
      ],
      "name": "createNewCommunityTokenNewRecordVersion",
      "outputs": [
        {
          "internalType": "uint256",
          "name": "",
          "type": "uint256"
        }
      ],
      "stateMutability": "payable",
      "type": "function",
      "payable": true
    },
    {
      "inputs": [
        {
          "internalType": "address",
          "name": "to",
          "type": "address"
        },
        {
          "internalType": "uint256",
          "name": "recordId",
          "type": "uint256"
        },
        {
          "internalType": "uint256",
          "name": "contributionId",
          "type": "uint256"
        },
        {
          "internalType": "uint256",
          "name": "rewardGovernance",
          "type": "uint256"
        },
        {
          "internalType": "uint256",
          "name": "rewardCommunity",
          "type": "uint256"
        }
      ],
      "name": "transferRewardAmount",
      "outputs": [],
      "stateMutability": "payable",
      "type": "function",
      "payable": true
    },
    {
      "inputs": [
        {
          "internalType": "uint256",
          "name": "recordId",
          "type": "uint256"
        }
      ],
      "name": "getCommunityTokenId",
      "outputs": [
        {
          "internalType": "uint256",
          "name": "",
          "type": "uint256"
        }
      ],
      "stateMutability": "view",
      "type": "function",
      "constant": true
    },
    {
      "inputs": [
        {
          "internalType": "uint256",
          "name": "recordId",
          "type": "uint256"
        }
      ],
      "name": "getGovernanceTokenId",
      "outputs": [
        {
          "internalType": "uint256",
          "name": "",
          "type": "uint256"
        }
      ],
      "stateMutability": "view",
      "type": "function",
      "constant": true
    },
    {
      "inputs": [
        {
          "internalType": "uint256",
          "name": "tokenId",
          "type": "uint256"
        }
      ],
      "name": "totalCirculatingSupply",
      "outputs": [
        {
          "internalType": "uint256",
          "name": "",
          "type": "uint256"
        }
      ],
      "stateMutability": "view",
      "type": "function",
      "constant": true
    },
    {
      "inputs": [
        {
          "internalType": "address",
          "name": "account",
          "type": "address"
        },
        {
          "internalType": "uint256",
          "name": "tokenId",
          "type": "uint256"
        }
      ],
      "name": "balanceOf",
      "outputs": [
        {
          "internalType": "uint256",
          "name": "",
          "type": "uint256"
        }
      ],
      "stateMutability": "view",
      "type": "function",
      "constant": true
    },
    {
      "inputs": [
        {
          "internalType": "string",
          "name": "governanceSymbol",
          "type": "string"
        },
        {
          "internalType": "string",
          "name": "communitySymbol",
          "type": "string"
        }
      ],
      "name": "setSymbolsAsUsed",
      "outputs": [],
      "stateMutability": "nonpayable",
      "type": "function"
    },
    {
      "inputs": [
        {
          "internalType": "string",
          "name": "governanceSymbol",
          "type": "string"
        },
        {
          "internalType": "string",
          "name": "communitySymbol",
          "type": "string"
        }
      ],
      "name": "setSymbolsAsAvailable",
      "outputs": [],
      "stateMutability": "nonpayable",
      "type": "function"
    },
    {
      "inputs": [
        {
          "internalType": "string",
          "name": "governanceSymbol",
          "type": "string"
        },
        {
          "internalType": "string",
          "name": "communitySymbol",
          "type": "string"
        }
      ],
      "name": "isSymbolAvailable",
      "outputs": [],
      "stateMutability": "nonpayable",
      "type": "function"
    },
    {
      "inputs": [],
      "name": "snapshot",
      "outputs": [
        {
          "internalType": "uint256",
          "name": "snapshotId",
          "type": "uint256"
        }
      ],
      "stateMutability": "nonpayable",
      "type": "function"
    },
    {
      "inputs": [
        {
          "internalType": "uint256",
          "name": "tokenId",
          "type": "uint256"
        },
        {
          "internalType": "uint256",
          "name": "amount",
          "type": "uint256"
        }
      ],
      "name": "mintTokens",
      "outputs": [],
      "stateMutability": "nonpayable",
      "type": "function"
    },
    {
      "inputs": [
        {
          "internalType": "uint256",
          "name": "recordId",
          "type": "uint256"
        },
        {
          "internalType": "uint256",
          "name": "tokenId",
          "type": "uint256"
        },
        {
          "internalType": "uint256",
          "name": "tokenAmount",
          "type": "uint256"
        }
      ],
      "name": "mintTokens",
      "outputs": [],
      "stateMutability": "payable",
      "type": "function",
      "payable": true
    }
  ],
  "bytecode": "0x60806040523480156200001157600080fd5b5060405162002f2238038062002f22833981016040819052620000349162000062565b600080546001600160a01b03909216620100000262010000600160b01b031990921691909117905562000094565b6000602082840312156200007557600080fd5b81516001600160a01b03811681146200008d57600080fd5b9392505050565b612e7e80620000a46000396000f3fe6080604052600436106101ab5760003560e01c80636d15dd2c116100ec578063b5e91e4f1161008a578063d6ca40a711610064578063d6ca40a7146104c5578063d85d92be146104e5578063e6870f9514610512578063e6acd9b81461053f57600080fd5b8063b5e91e4f14610458578063ba19a67514610478578063cceaf625146104a557600080fd5b80638fbf353f116100c65780638fbf353f146103e35780639711715a146103f6578063a9f3abe41461040b578063af6707691461042b57600080fd5b80636d15dd2c146103905780637aff32b0146103b05780638388f413146103d057600080fd5b8063331a6bf511610159578063556bed3a11610133578063556bed3a146103035780635f938ad21461033057806361cbc357146103505780636c45f2f61461037057600080fd5b8063331a6bf5146102b057806334a7c2e7146102d057806354d4f719146102f057600080fd5b80631459457a1161018a5780631459457a1461025b5780631e6224761461027d5780632d4a03821461029057600080fd5b8062fdd58e146101b0578063036c22ad146101e3578063117803e314610203575b600080fd5b3480156101bc57600080fd5b506101d06101cb366004612678565b610554565b6040519081526020015b60405180910390f35b3480156101ef57600080fd5b506101d06101fe3660046126a4565b6105f5565b34801561020f57600080fd5b506000546102369062010000900473ffffffffffffffffffffffffffffffffffffffff1681565b60405173ffffffffffffffffffffffffffffffffffffffff90911681526020016101da565b34801561026757600080fd5b5061027b6102763660046126bd565b61072f565b005b6101d061028b366004612871565b6109f5565b34801561029c57600080fd5b506101d06102ab3660046126a4565b610c0b565b3480156102bc57600080fd5b5061027b6102cb366004612910565b610d3d565b3480156102dc57600080fd5b5061027b6102eb36600461292d565b610e37565b6101d06102fe366004612871565b610f66565b34801561030f57600080fd5b506005546102369073ffffffffffffffffffffffffffffffffffffffff1681565b34801561033c57600080fd5b5061027b61034b36600461294f565b611094565b34801561035c57600080fd5b5061027b61036b36600461294f565b611193565b34801561037c57600080fd5b5061027b61038b36600461294f565b6114d8565b34801561039c57600080fd5b506101d06103ab3660046129b3565b611530565b3480156103bc57600080fd5b506102366103cb3660046126a4565b6119e9565b61027b6103de366004612a62565b611a20565b61027b6103f1366004612aa6565b611b6f565b34801561040257600080fd5b506101d0611cad565b34801561041757600080fd5b5061027b610426366004612910565b611e37565b34801561043757600080fd5b506003546102369073ffffffffffffffffffffffffffffffffffffffff1681565b34801561046457600080fd5b5061027b6104733660046126a4565b611f5b565b34801561048457600080fd5b506001546102369073ffffffffffffffffffffffffffffffffffffffff1681565b3480156104b157600080fd5b506101d06104c03660046129b3565b612180565b3480156104d157600080fd5b506101d06104e03660046126a4565b6125eb565b3480156104f157600080fd5b506002546102369073ffffffffffffffffffffffffffffffffffffffff1681565b34801561051e57600080fd5b506004546102369073ffffffffffffffffffffffffffffffffffffffff1681565b34801561054b57600080fd5b506101d0600181565b6006546040517efdd58e00000000000000000000000000000000000000000000000000000000815273ffffffffffffffffffffffffffffffffffffffff848116600483015260248201849052600092169062fdd58e90604401602060405180830381865afa1580156105ca573d6000803e3d6000fd5b505050506040513d601f19601f820116820180604052508101906105ee9190612ad2565b9392505050565b6006546040517fbd85b0390000000000000000000000000000000000000000000000000000000081526004810183905260009182916105ee9173ffffffffffffffffffffffffffffffffffffffff169063bd85b03990602401602060405180830381865afa15801561066b573d6000803e3d6000fd5b505050506040513d601f19601f8201168201806040525081019061068f9190612ad2565b6006546005546040517efdd58e00000000000000000000000000000000000000000000000000000000815273ffffffffffffffffffffffffffffffffffffffff91821660048201526024810188905291169062fdd58e90604401602060405180830381865afa158015610706573d6000803e3d6000fd5b505050506040513d601f19601f8201168201806040525081019061072a9190612ad2565b612647565b600054610100900460ff161580801561074f5750600054600160ff909116105b806107695750303b158015610769575060005460ff166001145b6107fa576040517f08c379a000000000000000000000000000000000000000000000000000000000815260206004820152602e60248201527f496e697469616c697a61626c653a20636f6e747261637420697320616c72656160448201527f647920696e697469616c697a656400000000000000000000000000000000000060648201526084015b60405180910390fd5b600080547fffffffffffffffffffffffffffffffffffffffffffffffffffffffffffffff00166001179055801561085857600080547fffffffffffffffffffffffffffffffffffffffffffffffffffffffffffff00ff166101001790555b60005462010000900473ffffffffffffffffffffffffffffffffffffffff163314610905576040517f08c379a000000000000000000000000000000000000000000000000000000000815260206004820152602360248201527f554e415554484f52495a45443a2043414e4e4f545f504552464f524d5f41435460448201527f494f4e000000000000000000000000000000000000000000000000000000000060648201526084016107f1565b600580547fffffffffffffffffffffffff000000000000000000000000000000000000000090811673ffffffffffffffffffffffffffffffffffffffff89811691821790935560068054831690911790556001805482168884161790556002805482168784161790556004805482168684161790556003805490911691841691909117905580156109ed57600080547fffffffffffffffffffffffffffffffffffffffffffffffffffffffffffff00ff169055604051600181527f7f26b83ff96e1f2b6a682f133852f6798a09c465da95921460cefb38474024989060200160405180910390a15b505050505050565b60025460009073ffffffffffffffffffffffffffffffffffffffff163314610a9f576040517f08c379a000000000000000000000000000000000000000000000000000000000815260206004820152602360248201527f554e415554484f52495a45443a204f4e4c595f5245434f5244535f434f4e545260448201527f414354000000000000000000000000000000000000000000000000000000000060648201526084016107f1565b6040805160a08101825289815260208101899052808201889052606081018790526080810186905260065491517fff669dfb000000000000000000000000000000000000000000000000000000008152909160009173ffffffffffffffffffffffffffffffffffffffff9091169063ff669dfb90610b239085908890600401612b65565b6020604051808303816000875af1158015610b42573d6000803e3d6000fd5b505050506040513d601f19601f82011682018060405250810190610b669190612ad2565b6006546002546040517fef890f7c000000000000000000000000000000000000000000000000000000008152600481018490526024810189905273ffffffffffffffffffffffffffffffffffffffff9182166044820152929350169063ef890f7c90606401600060405180830381600087803b158015610be557600080fd5b505af1158015610bf9573d6000803e3d6000fd5b50929c9b505050505050505050505050565b6006546040517faf94e4a9000000000000000000000000000000000000000000000000000000008152600481018390526000918291829173ffffffffffffffffffffffffffffffffffffffff169063af94e4a9906024015b600060405180830381865afa158015610c80573d6000803e3d6000fd5b505050506040513d6000823e601f3d9081017fffffffffffffffffffffffffffffffffffffffffffffffffffffffffffffffe0168201604052610cc69190810190612c62565b95509550505050508115610cdb579392505050565b6040517f08c379a000000000000000000000000000000000000000000000000000000000815260206004820152601860248201527f494e56414c49443a2057524f4e475f5245434f52445f4944000000000000000060448201526064016107f1565b60005462010000900473ffffffffffffffffffffffffffffffffffffffff163314610dea576040517f08c379a000000000000000000000000000000000000000000000000000000000815260206004820152602360248201527f554e415554484f52495a45443a2043414e4e4f545f504552464f524d5f41435460448201527f494f4e000000000000000000000000000000000000000000000000000000000060648201526084016107f1565b6000805473ffffffffffffffffffffffffffffffffffffffff90921662010000027fffffffffffffffffffff0000000000000000000000000000000000000000ffff909216919091179055565b60045473ffffffffffffffffffffffffffffffffffffffff163314610ede576040517f08c379a000000000000000000000000000000000000000000000000000000000815260206004820152602360248201527f554e415554484f52495a45443a2043414e4e4f545f504552464f524d5f41435460448201527f494f4e000000000000000000000000000000000000000000000000000000000060648201526084016107f1565b6006546040517f1b2ef1ca000000000000000000000000000000000000000000000000000000008152600481018490526024810183905273ffffffffffffffffffffffffffffffffffffffff90911690631b2ef1ca906044015b600060405180830381600087803b158015610f5257600080fd5b505af11580156109ed573d6000803e3d6000fd5b60025460009073ffffffffffffffffffffffffffffffffffffffff163314611010576040517f08c379a000000000000000000000000000000000000000000000000000000000815260206004820152602360248201527f554e415554484f52495a45443a204f4e4c595f5245434f5244535f434f4e545260448201527f414354000000000000000000000000000000000000000000000000000000000060648201526084016107f1565b6040805160a08101825289815260208101899052808201889052606081018790526080810186905260065491517fe10fa0b2000000000000000000000000000000000000000000000000000000008152909160009173ffffffffffffffffffffffffffffffffffffffff9091169063e10fa0b290610b239085908890600401612b65565b60025473ffffffffffffffffffffffffffffffffffffffff16331461113b576040517f08c379a000000000000000000000000000000000000000000000000000000000815260206004820152602360248201527f554e415554484f52495a45443a204f4e4c595f5245434f5244535f434f4e545260448201527f414354000000000000000000000000000000000000000000000000000000000060648201526084016107f1565b6006546040517f5f938ad200000000000000000000000000000000000000000000000000000000815273ffffffffffffffffffffffffffffffffffffffff90911690635f938ad290610f389085908590600401612cf2565b60025473ffffffffffffffffffffffffffffffffffffffff16331461123a576040517f08c379a000000000000000000000000000000000000000000000000000000000815260206004820152602360248201527f554e415554484f52495a45443a204f4e4c595f5245434f5244535f434f4e545260448201527f414354000000000000000000000000000000000000000000000000000000000060648201526084016107f1565b6006546040517f1644e0ff00000000000000000000000000000000000000000000000000000000815273ffffffffffffffffffffffffffffffffffffffff90911690631644e0ff90611290908590600401612d20565b602060405180830381865afa1580156112ad573d6000803e3d6000fd5b505050506040513d601f19601f820116820180604052508101906112d19190612d33565b1561135d576040517f08c379a0000000000000000000000000000000000000000000000000000000008152602060048201526024808201527f494e56414c49443a20544f4b454e5f53594d424f4c5f414c52454144595f494e60448201527f5f5553450000000000000000000000000000000000000000000000000000000060648201526084016107f1565b6006546040517f8958a5de00000000000000000000000000000000000000000000000000000000815273ffffffffffffffffffffffffffffffffffffffff90911690638958a5de906113b3908490600401612d20565b602060405180830381865afa1580156113d0573d6000803e3d6000fd5b505050506040513d601f19601f820116820180604052508101906113f49190612d33565b15611480576040517f08c379a0000000000000000000000000000000000000000000000000000000008152602060048201526024808201527f494e56414c49443a20544f4b454e5f53594d424f4c5f414c52454144595f494e60448201527f5f5553450000000000000000000000000000000000000000000000000000000060648201526084016107f1565b6006546040517f61cbc35700000000000000000000000000000000000000000000000000000000815273ffffffffffffffffffffffffffffffffffffffff909116906361cbc35790610f389085908590600401612cf2565b6006546040517f6c45f2f600000000000000000000000000000000000000000000000000000000815273ffffffffffffffffffffffffffffffffffffffff90911690636c45f2f690610f389085908590600401612cf2565b6000818060400151816020015110156115cb576040517f08c379a000000000000000000000000000000000000000000000000000000000815260206004820152602660248201527f494e56414c49443a20555345525f42414c414e43455f4d4f52455f5448414e5f60448201527f535550504c59000000000000000000000000000000000000000000000000000060648201526084016107f1565b60015481516040517f6352211e00000000000000000000000000000000000000000000000000000000815273ffffffffffffffffffffffffffffffffffffffff909216916000918391636352211e9161162a9160040190815260200190565b6020604051808303816000875af1158015611649573d6000803e3d6000fd5b505050506040513d601f19601f8201168201806040525081019061166d9190612d4e565b905073ffffffffffffffffffffffffffffffffffffffff811633146116ee576040517f08c379a000000000000000000000000000000000000000000000000000000000815260206004820152601a60248201527f494e56414c49443a204f4e4c595f5245434f52445f4f574e455200000000000060448201526064016107f1565b60065485516040517faf94e4a9000000000000000000000000000000000000000000000000000000008152600481019190915260009173ffffffffffffffffffffffffffffffffffffffff169063af94e4a990602401600060405180830381865afa158015611761573d6000803e3d6000fd5b505050506040513d6000823e601f3d9081017fffffffffffffffffffffffffffffffffffffffffffffffffffffffffffffffe01682016040526117a79190810190612c62565b5094505083159250611818915050576040517f08c379a000000000000000000000000000000000000000000000000000000000815260206004820152601e60248201527f494e56414c49443a20544f4b454e5f414c52454144595f43524541544544000060448201526064016107f1565b60065460608701516040517f8958a5de00000000000000000000000000000000000000000000000000000000815260009273ffffffffffffffffffffffffffffffffffffffff1691638958a5de916118739190600401612d20565b602060405180830381865afa158015611890573d6000803e3d6000fd5b505050506040513d601f19601f820116820180604052508101906118b49190612d33565b90508015611943576040517f08c379a0000000000000000000000000000000000000000000000000000000008152602060048201526024808201527f494e56414c49443a20544f4b454e5f53594d424f4c5f414c52454144595f494e60448201527f5f5553450000000000000000000000000000000000000000000000000000000060648201526084016107f1565b6006546040517fff669dfb00000000000000000000000000000000000000000000000000000000815273ffffffffffffffffffffffffffffffffffffffff9091169063ff669dfb9061199b908a903290600401612b65565b6020604051808303816000875af11580156119ba573d6000803e3d6000fd5b505050506040513d601f19601f820116820180604052508101906119de9190612ad2565b979650505050505050565b600781815481106119f957600080fd5b60009182526020909120015473ffffffffffffffffffffffffffffffffffffffff16905081565b60035473ffffffffffffffffffffffffffffffffffffffff163314611ac7576040517f08c379a000000000000000000000000000000000000000000000000000000000815260206004820152602360248201527f554e415554484f52495a45443a2043414e4e4f545f504552464f524d5f41435460448201527f494f4e000000000000000000000000000000000000000000000000000000000060648201526084016107f1565b6006546040517f8388f41300000000000000000000000000000000000000000000000000000000815273ffffffffffffffffffffffffffffffffffffffff87811660048301526024820187905260448201869052606482018590526084820184905290911690638388f4139060a401600060405180830381600087803b158015611b5057600080fd5b505af1158015611b64573d6000803e3d6000fd5b505050505050505050565b60035473ffffffffffffffffffffffffffffffffffffffff163314611c16576040517f08c379a000000000000000000000000000000000000000000000000000000000815260206004820152602360248201527f554e415554484f52495a45443a2043414e4e4f545f504552464f524d5f41435460448201527f494f4e000000000000000000000000000000000000000000000000000000000060648201526084016107f1565b6006546040517f8fbf353f00000000000000000000000000000000000000000000000000000000815260048101859052602481018490526044810183905273ffffffffffffffffffffffffffffffffffffffff90911690638fbf353f90606401600060405180830381600087803b158015611c9057600080fd5b505af1158015611ca4573d6000803e3d6000fd5b50505050505050565b600080805b600754811015611d0f5760078181548110611ccf57611ccf612d6b565b60009182526020909120015473ffffffffffffffffffffffffffffffffffffffff16331415611cfd57600191505b80611d0781612dc9565b915050611cb2565b508015611daf57600660009054906101000a900473ffffffffffffffffffffffffffffffffffffffff1673ffffffffffffffffffffffffffffffffffffffff16639711715a6040518163ffffffff1660e01b81526004016020604051808303816000875af1158015611d85573d6000803e3d6000fd5b505050506040513d601f19601f82011682018060405250810190611da99190612ad2565b91505090565b6040517f08c379a000000000000000000000000000000000000000000000000000000000815260206004820152602360248201527f554e415554484f52495a45443a204f4e4c595f534e415053484f545f43414c4c60448201527f455253000000000000000000000000000000000000000000000000000000000060648201526084016107f1565b60005462010000900473ffffffffffffffffffffffffffffffffffffffff163314611ee4576040517f08c379a000000000000000000000000000000000000000000000000000000000815260206004820152602360248201527f554e415554484f52495a45443a2043414e4e4f545f504552464f524d5f41435460448201527f494f4e000000000000000000000000000000000000000000000000000000000060648201526084016107f1565b600780546001810182556000919091527fa66cc928b5edb82af9bd49922954155ab7b0942694bea4ce44661d9a8736c6880180547fffffffffffffffffffffffff00000000000000000000000000000000000000001673ffffffffffffffffffffffffffffffffffffffff92909216919091179055565b60005462010000900473ffffffffffffffffffffffffffffffffffffffff163314612008576040517f08c379a000000000000000000000000000000000000000000000000000000000815260206004820152602360248201527f554e415554484f52495a45443a2043414e4e4f545f504552464f524d5f41435460448201527f494f4e000000000000000000000000000000000000000000000000000000000060648201526084016107f1565b6007548110612073576040517f08c379a000000000000000000000000000000000000000000000000000000000815260206004820152601860248201527f494e56414c49443a20494e434f52524543545f494e444558000000000000000060448201526064016107f1565b6007805461208390600190612e02565b8154811061209357612093612d6b565b6000918252602090912001546007805473ffffffffffffffffffffffffffffffffffffffff90921691839081106120cc576120cc612d6b565b9060005260206000200160006101000a81548173ffffffffffffffffffffffffffffffffffffffff021916908373ffffffffffffffffffffffffffffffffffffffff160217905550600780548061212557612125612e19565b60008281526020902081017fffffffffffffffffffffffffffffffffffffffffffffffffffffffffffffffff90810180547fffffffffffffffffffffffff000000000000000000000000000000000000000016905501905550565b60008180604001518160200151101561221b576040517f08c379a000000000000000000000000000000000000000000000000000000000815260206004820152602660248201527f494e56414c49443a20555345525f42414c414e43455f4d4f52455f5448414e5f60448201527f535550504c59000000000000000000000000000000000000000000000000000060648201526084016107f1565b60015481516040517f6352211e00000000000000000000000000000000000000000000000000000000815273ffffffffffffffffffffffffffffffffffffffff909216916000918391636352211e9161227a9160040190815260200190565b6020604051808303816000875af1158015612299573d6000803e3d6000fd5b505050506040513d601f19601f820116820180604052508101906122bd9190612d4e565b905073ffffffffffffffffffffffffffffffffffffffff8116331461233e576040517f08c379a000000000000000000000000000000000000000000000000000000000815260206004820152601a60248201527f494e56414c49443a204f4e4c595f5245434f52445f4f574e455200000000000060448201526064016107f1565b60065485516040517f884c8ffe000000000000000000000000000000000000000000000000000000008152600481019190915260009173ffffffffffffffffffffffffffffffffffffffff169063884c8ffe90602401600060405180830381865afa1580156123b1573d6000803e3d6000fd5b505050506040513d6000823e601f3d9081017fffffffffffffffffffffffffffffffffffffffffffffffffffffffffffffffe01682016040526123f79190810190612c62565b5094505083159250612468915050576040517f08c379a000000000000000000000000000000000000000000000000000000000815260206004820152601e60248201527f494e56414c49443a20544f4b454e5f414c52454144595f43524541544544000060448201526064016107f1565b60065460608701516040517f1644e0ff00000000000000000000000000000000000000000000000000000000815260009273ffffffffffffffffffffffffffffffffffffffff1691631644e0ff916124c39190600401612d20565b602060405180830381865afa1580156124e0573d6000803e3d6000fd5b505050506040513d601f19601f820116820180604052508101906125049190612d33565b90508015612593576040517f08c379a0000000000000000000000000000000000000000000000000000000008152602060048201526024808201527f494e56414c49443a20544f4b454e5f53594d424f4c5f414c52454144595f494e60448201527f5f5553450000000000000000000000000000000000000000000000000000000060648201526084016107f1565b6006546040517fe10fa0b200000000000000000000000000000000000000000000000000000000815273ffffffffffffffffffffffffffffffffffffffff9091169063e10fa0b29061199b908a903290600401612b65565b6006546040517f884c8ffe000000000000000000000000000000000000000000000000000000008152600481018390526000918291829173ffffffffffffffffffffffffffffffffffffffff169063884c8ffe90602401610c63565b60006105ee8284612e02565b73ffffffffffffffffffffffffffffffffffffffff8116811461267557600080fd5b50565b6000806040838503121561268b57600080fd5b823561269681612653565b946020939093013593505050565b6000602082840312156126b657600080fd5b5035919050565b600080600080600060a086880312156126d557600080fd5b85356126e081612653565b945060208601356126f081612653565b9350604086013561270081612653565b9250606086013561271081612653565b9150608086013561272081612653565b809150509295509295909350565b7f4e487b7100000000000000000000000000000000000000000000000000000000600052604160045260246000fd5b60405160a0810167ffffffffffffffff811182821017156127805761278061272e565b60405290565b604051601f82017fffffffffffffffffffffffffffffffffffffffffffffffffffffffffffffffe016810167ffffffffffffffff811182821017156127cd576127cd61272e565b604052919050565b600067ffffffffffffffff8211156127ef576127ef61272e565b50601f017fffffffffffffffffffffffffffffffffffffffffffffffffffffffffffffffe01660200190565b600082601f83011261282c57600080fd5b813561283f61283a826127d5565b612786565b81815284602083860101111561285457600080fd5b816020850160208301376000918101602001919091529392505050565b600080600080600080600060e0888a03121561288c57600080fd5b873596506020880135955060408801359450606088013567ffffffffffffffff808211156128b957600080fd5b6128c58b838c0161281b565b955060808a01359150808211156128db57600080fd5b506128e88a828b0161281b565b93505060a0880135915060c088013561290081612653565b8091505092959891949750929550565b60006020828403121561292257600080fd5b81356105ee81612653565b6000806040838503121561294057600080fd5b50508035926020909101359150565b6000806040838503121561296257600080fd5b823567ffffffffffffffff8082111561297a57600080fd5b6129868683870161281b565b9350602085013591508082111561299c57600080fd5b506129a98582860161281b565b9150509250929050565b6000602082840312156129c557600080fd5b813567ffffffffffffffff808211156129dd57600080fd5b9083019060a082860312156129f157600080fd5b6129f961275d565b823581526020830135602082015260408301356040820152606083013582811115612a2357600080fd5b612a2f8782860161281b565b606083015250608083013582811115612a4757600080fd5b612a538782860161281b565b60808301525095945050505050565b600080600080600060a08688031215612a7a57600080fd5b8535612a8581612653565b97602087013597506040870135966060810135965060800135945092505050565b600080600060608486031215612abb57600080fd5b505081359360208301359350604090920135919050565b600060208284031215612ae457600080fd5b5051919050565b60005b83811015612b06578181015183820152602001612aee565b83811115612b15576000848401525b50505050565b60008151808452612b33816020860160208601612aeb565b601f017fffffffffffffffffffffffffffffffffffffffffffffffffffffffffffffffe0169290920160200192915050565b604081528251604082015260208301516060820152604083015160808201526000606084015160a080840152612b9e60e0840182612b1b565b905060808501517fffffffffffffffffffffffffffffffffffffffffffffffffffffffffffffffc08483030160c0850152612bd98282612b1b565b9250505073ffffffffffffffffffffffffffffffffffffffff831660208301529392505050565b600082601f830112612c1157600080fd5b8151612c1f61283a826127d5565b818152846020838601011115612c3457600080fd5b612c45826020830160208701612aeb565b949350505050565b80518015158114612c5d57600080fd5b919050565b60008060008060008060c08789031215612c7b57600080fd5b86519550602087015167ffffffffffffffff80821115612c9a57600080fd5b612ca68a838b01612c00565b96506040890151915080821115612cbc57600080fd5b50612cc989828a01612c00565b94505060608701519250612cdf60808801612c4d565b915060a087015190509295509295509295565b604081526000612d056040830185612b1b565b8281036020840152612d178185612b1b565b95945050505050565b6020815260006105ee6020830184612b1b565b600060208284031215612d4557600080fd5b6105ee82612c4d565b600060208284031215612d6057600080fd5b81516105ee81612653565b7f4e487b7100000000000000000000000000000000000000000000000000000000600052603260045260246000fd5b7f4e487b7100000000000000000000000000000000000000000000000000000000600052601160045260246000fd5b60007fffffffffffffffffffffffffffffffffffffffffffffffffffffffffffffffff821415612dfb57612dfb612d9a565b5060010190565b600082821015612e1457612e14612d9a565b500390565b7f4e487b7100000000000000000000000000000000000000000000000000000000600052603160045260246000fdfea26469706673582212200d18361a3ec2defd55a8b09c37f9c88d40f3352e8060d40e3b62be3079f5c38964736f6c634300080c0033",
  "immutableReferences": {},
  "source": "pragma solidity ^0.8.0;\n\nimport \"@openzeppelin/contracts/token/ERC1155/ERC1155.sol\";\nimport \"@openzeppelin/contracts/token/ERC1155/IERC1155Receiver.sol\";\nimport \"@openzeppelin/contracts/token/ERC1155/extensions/ERC1155Supply.sol\";\nimport \"@openzeppelin/contracts/utils/Counters.sol\";\nimport \"@openzeppelin/contracts/access/Ownable.sol\";\nimport \"@openzeppelin/contracts/utils/math/SafeMath.sol\";\nimport \"@openzeppelin/contracts-upgradeable/proxy/utils/Initializable.sol\";\nimport \"../ERC1155/SnapshotERC1155.sol\";\nimport \"../interface/IRecords.sol\";\nimport \"../voting/VotingHubContract.sol\";\nimport \"./TreasuryCoreContract.sol\";\n\ncontract TreasuryContract is Initializable {\n    uint256 public constant CRD = 1;\n    address public OWNER;\n    address public RECORDS_CONTRACT_ADDRESS;\n    address public RECORDS_VOTING_CONTRACT_ADDRESS;\n    address public CONTRIBUTION_VOTING_CONTRACT_ADDRESS;\n    address public DILUTION_CONTRACT_ADDRESS;\n    address public TREASURY_CORE_CONTRACT_ADDRESS;\n    TreasuryCoreContract treasuryCoreContract;\n\n    address[] public SNAPSHOT_CALLER;\n\n    constructor(address owner) {\n        OWNER = owner;\n    }\n\n    /// @dev Modifier to check that the person who accesses a specific function is the owner of contract himself.\n    modifier ownerOnly() {\n        require(msg.sender == OWNER, \"UNAUTHORIZED: CANNOT_PERFORM_ACTION\");\n        _;\n    }\n\n    /// @dev Modifier to check that the calls are made by records contract only\n    modifier onlyRecordsVotingContract() {\n        require(\n            msg.sender == RECORDS_VOTING_CONTRACT_ADDRESS,\n            \"UNAUTHORIZED: ONLY_RECORDS_CONTRACT\"\n        );\n        _;\n    }\n\n    /// @dev Modifier to check that if the sender is the voting contract or not.\n    modifier onlyContributionVotingContract() {\n        require(\n            msg.sender == CONTRIBUTION_VOTING_CONTRACT_ADDRESS,\n            \"UNAUTHORIZED: CANNOT_PERFORM_ACTION\"\n        );\n        _;\n    }\n\n    /// @dev Modifier to check that if the sender is the dilution contract or not.\n    modifier onlyDilutionContract() {\n        require(\n            msg.sender == DILUTION_CONTRACT_ADDRESS,\n            \"UNAUTHORIZED: CANNOT_PERFORM_ACTION\"\n        );\n        _;\n    }\n\n    /// @dev Modifier to check if the sender is authorized to create tokens for this record.\n    /// @param newTokenData This is the NewTokenData structure that needs to be passed to create a new token,\n    /// here it is passed to check if the token can be created with respected data\n    modifier canCreateToken(\n        TreasuryCoreContract.NewTokenData memory newTokenData\n    ) {\n        require(\n            newTokenData.totalSupply >= newTokenData.userBalance,\n            \"INVALID: USER_BALANCE_MORE_THAN_SUPPLY\"\n        );\n\n        IRecords recordsContract = IRecords(RECORDS_CONTRACT_ADDRESS);\n\n        address owner = recordsContract.ownerOf(newTokenData.recordId);\n        require(owner == msg.sender, \"INVALID: ONLY_RECORD_OWNER\");\n\n        _;\n    }\n\n    /// @dev Modifier to check that if the sender is the dilution contract or not.\n    modifier onlySnapshotCaller() {\n        bool validCall = false;\n        for (uint256 i; i < SNAPSHOT_CALLER.length; i++) {\n            if (msg.sender == SNAPSHOT_CALLER[i]) {\n                validCall = true;\n            }\n        }\n        if (validCall) {\n            _;\n        } else {\n            revert(\"UNAUTHORIZED: ONLY_SNAPSHOT_CALLERS\");\n        }\n    }\n\n    /// @dev This function is called to give a address privilege to call snapshot function\n    /// @param contractAddress address of the voting contract\n    function addSnapshotCaller(address contractAddress) public ownerOnly {\n        SNAPSHOT_CALLER.push(contractAddress);\n    }\n\n    /// @notice\n    /// @dev This function invokes the snapshot calling privilages\n    /// @param index index of the contract to remove from the list\n    function removeSnapshotCaller(uint256 index) public ownerOnly {\n        require(index < SNAPSHOT_CALLER.length, \"INVALID: INCORRECT_INDEX\");\n        SNAPSHOT_CALLER[index] = SNAPSHOT_CALLER[SNAPSHOT_CALLER.length - 1];\n        SNAPSHOT_CALLER.pop();\n    }\n\n    /// @dev This function sets the Owners address\n    /// @param ownerAddress This is the address of new owner of contract\n    function setOwnerAddress(address ownerAddress) public ownerOnly {\n        OWNER = ownerAddress;\n    }\n\n    /// @dev This is to set the address of the contracts\n    /// @param newTreasuryCoreContractAddress address of treasury core contract\n    /// @param newRecordsContractAddress address of records contract\n    /// @param newRecordsVotingContractAddress address of record voting contract\n    /// @param newDilutionContract This is the address of new dilution contract\n    /// @param newVotingContractAddress This is the address of new voting contract\n    function initialize(\n        address newTreasuryCoreContractAddress,\n        address newRecordsContractAddress,\n        address newRecordsVotingContractAddress,\n        address newDilutionContract,\n        address newVotingContractAddress\n    ) public initializer ownerOnly {\n        TREASURY_CORE_CONTRACT_ADDRESS = newTreasuryCoreContractAddress;\n        treasuryCoreContract = TreasuryCoreContract(\n            TREASURY_CORE_CONTRACT_ADDRESS\n        );\n        RECORDS_CONTRACT_ADDRESS = newRecordsContractAddress;\n        RECORDS_VOTING_CONTRACT_ADDRESS = newRecordsVotingContractAddress;\n        DILUTION_CONTRACT_ADDRESS = newDilutionContract;\n        CONTRIBUTION_VOTING_CONTRACT_ADDRESS = newVotingContractAddress;\n    }\n\n    /// @dev This function creates new governance tokens for specified record\n    /// @param newTokenData This contains all the parameters needed to create a new governance token that are\n    function createNewGovernanceToken(\n        TreasuryCoreContract.NewTokenData memory newTokenData\n    ) external canCreateToken(newTokenData) returns (uint256) {\n        (, , , , bool isPresent, ) = treasuryCoreContract.govTokenMapping(\n            newTokenData.recordId\n        );\n        require(isPresent == false, \"INVALID: TOKEN_ALREADY_CREATED\");\n\n        bool isSymbolInUse = treasuryCoreContract.govTokenSym(\n            newTokenData.symbol\n        );\n        require(isSymbolInUse == false, \"INVALID: TOKEN_SYMBOL_ALREADY_IN_USE\");\n        return\n            treasuryCoreContract.createNewGovernanceToken(\n                newTokenData,\n                tx.origin\n            );\n    }\n\n    /// @dev This function creates new community tokens for specified record, this function should only be called by the owner of the record\n    /// @param newTokenData This contains all the parameters needed to create a new community token that are\n    function createNewCommunityToken(\n        TreasuryCoreContract.NewTokenData memory newTokenData\n    ) external canCreateToken(newTokenData) returns (uint256) {\n        (, , , , bool isPresent, ) = treasuryCoreContract.commTokenMapping(\n            newTokenData.recordId\n        );\n        require(isPresent == false, \"INVALID: TOKEN_ALREADY_CREATED\");\n\n        bool isSymbolInUse = treasuryCoreContract.commTokenSym(\n            newTokenData.symbol\n        );\n        require(isSymbolInUse == false, \"INVALID: TOKEN_SYMBOL_ALREADY_IN_USE\");\n        return\n            treasuryCoreContract.createNewCommunityToken(\n                newTokenData,\n                tx.origin\n            );\n    }\n\n    /// @dev This function should be only called from the records contract, this function creates\n    // governance tokens when the result for a new version request is declared\n    /// @param recordId Record id of which the tokens need to be created\n    /// @param totalSupply This is the total supply of the token\n    /// @param userBalance The amount of tokens that owner of the new version will receive\n    /// @param symbol This is the short abbreviation of the token\n    /// @param image This is the logo of the token\n    /// @param tokensForOldContributors This is the amount of tokens that old record owners will get\n    /// @param userAddress This is the address of the owner who is minting the token\n    function createNewGovernanceTokenNewRecordVersion(\n        uint256 recordId,\n        uint256 totalSupply,\n        uint256 userBalance,\n        string memory symbol,\n        string memory image,\n        uint256 tokensForOldContributors,\n        address userAddress\n    ) external payable onlyRecordsVotingContract returns (uint256) {\n        TreasuryCoreContract.NewTokenData\n            memory newTokenData = TreasuryCoreContract.NewTokenData(\n                recordId,\n                totalSupply,\n                userBalance,\n                symbol,\n                image\n            );\n        uint256 tokenId = treasuryCoreContract.createNewGovernanceToken(\n            newTokenData,\n            userAddress\n        );\n        treasuryCoreContract.transferRewardTokens(\n            tokenId,\n            tokensForOldContributors,\n            RECORDS_VOTING_CONTRACT_ADDRESS\n        );\n        return tokenId;\n    }\n\n    /// @dev This function should be only called from the records contract, this function creates\n    // governance tokens when the result for a new version request is declared\n    /// @param recordId Record id of which the tokens need to be created\n    /// @param totalSupply This is the total supply of the token\n    /// @param userBalance The amount of tokens that owner of the new version will receive\n    /// @param symbol This is the short abbreviation of the token\n    /// @param image This is the logo of the token\n    /// @param tokensForOldContributors This is the amount of tokens that old record owners will get\n    /// @param userAddress This is the address of the owner who is minting the token\n    function createNewCommunityTokenNewRecordVersion(\n        uint256 recordId,\n        uint256 totalSupply,\n        uint256 userBalance,\n        string memory symbol,\n        string memory image,\n        uint256 tokensForOldContributors,\n        address userAddress\n    ) external payable onlyRecordsVotingContract returns (uint256) {\n        TreasuryCoreContract.NewTokenData\n            memory newTokenData = TreasuryCoreContract.NewTokenData(\n                recordId,\n                totalSupply,\n                userBalance,\n                symbol,\n                image\n            );\n        uint256 tokenId = treasuryCoreContract.createNewCommunityToken(\n            newTokenData,\n            userAddress\n        );\n        treasuryCoreContract.transferRewardTokens(\n            tokenId,\n            tokensForOldContributors,\n            RECORDS_VOTING_CONTRACT_ADDRESS\n        );\n        return tokenId;\n    }\n\n    /// @dev This function creats new community tokens for specified record\n    /// @param recordId This is the id of the record to which the token belongs to\n    /// @param tokenId This is the id of the which is to be minted\n    /// @param tokenAmount This is the amount that is to be minted\n    function mintTokens(\n        uint256 recordId,\n        uint256 tokenId,\n        uint256 tokenAmount\n    ) external payable onlyContributionVotingContract {\n        treasuryCoreContract.mintTokens(recordId, tokenId, tokenAmount);\n    }\n\n    /// @dev This function is called only by the voting contract once the voting ends\n    /// @param to This is the receivers address\n    /// @param recordId This is the recordId to which the contribution belongs to\n    /// @param contributionId this is the contribution id to which the user has won\n    /// @param rewardGovernance this is the amount of Governance token that needs to be transferred\n    /// @param rewardCommunity this is the amount of community token that needs to be transferred\n    function transferRewardAmount(\n        address to,\n        uint256 recordId,\n        uint256 contributionId,\n        uint256 rewardGovernance,\n        uint256 rewardCommunity\n    ) external payable onlyContributionVotingContract {\n        // call super method\n        treasuryCoreContract.transferRewardAmount(\n            to,\n            recordId,\n            contributionId,\n            rewardGovernance,\n            rewardCommunity\n        );\n    }\n\n    /// @dev This function gives you the community token id of the recordId that you pass\n    /// @param recordId This is the Id of the token that you want to check\n    function getCommunityTokenId(\n        uint256 recordId\n    ) public view returns (uint256) {\n        (, , , , bool isPresent, uint256 tokenId) = treasuryCoreContract\n            .commTokenMapping(recordId);\n        if (isPresent) {\n            return tokenId;\n        } else {\n            revert(\"INVALID: WRONG_RECORD_ID\");\n        }\n    }\n\n    /// @dev This function gives you the governance token id of the recordId that you pass\n    /// @param recordId This is the Id of the token that you want to check\n    function getGovernanceTokenId(\n        uint256 recordId\n    ) public view returns (uint256) {\n        (, , , , bool isPresent, uint256 tokenId) = treasuryCoreContract\n            .govTokenMapping(recordId);\n        if (isPresent) {\n            return tokenId;\n        } else {\n            revert(\"INVALID: WRONG_RECORD_ID\");\n        }\n    }\n\n    /// @dev This function returns the amount of total tokens that are in circulation\n    /// @param tokenId This is the token whose circulating supply you  want to find out\n    function totalCirculatingSupply(\n        uint256 tokenId\n    ) public view returns (uint256) {\n        uint256 totalCirculatingBalance = SafeMath.sub(\n            treasuryCoreContract.totalSupply(tokenId),\n            treasuryCoreContract.balanceOf(\n                TREASURY_CORE_CONTRACT_ADDRESS,\n                tokenId\n            )\n        );\n\n        return totalCirculatingBalance;\n    }\n\n    /// @dev This function returns the amount of total tokens that are in circulation\n    /// @param tokenId This is the token whose circulating supply you  want to find out\n    function balanceOf(\n        address account,\n        uint256 tokenId\n    ) public view returns (uint256) {\n        return treasuryCoreContract.balanceOf(account, tokenId);\n    }\n\n    /// @dev This function sets the symbol name as used, this function is called from records\n    // contract to reserve symbol for new version creation\n    /// @param governanceSymbol Symbol for governance token\n    /// @param communitySymbol Symbol for community token\n    function setSymbolsAsUsed(\n        string memory governanceSymbol,\n        string memory communitySymbol\n    ) external onlyRecordsVotingContract {\n        require(\n            treasuryCoreContract.govTokenSym(governanceSymbol) == false,\n            \"INVALID: TOKEN_SYMBOL_ALREADY_IN_USE\"\n        );\n\n        require(\n            treasuryCoreContract.commTokenSym(communitySymbol) == false,\n            \"INVALID: TOKEN_SYMBOL_ALREADY_IN_USE\"\n        );\n        treasuryCoreContract.setSymbolsAsUsed(\n            governanceSymbol,\n            communitySymbol\n        );\n    }\n\n    /// @dev This function sets the symbol name as available, this function is called from records\n    // contract to reserve symbol for new version creation\n    /// @param governanceSymbol Symbol for governance token\n    /// @param communitySymbol Symbol for community token\n    function setSymbolsAsAvailable(\n        string memory governanceSymbol,\n        string memory communitySymbol\n    ) external onlyRecordsVotingContract {\n        treasuryCoreContract.setSymbolsAsAvailable(\n            governanceSymbol,\n            communitySymbol\n        );\n    }\n\n    /// @dev This function checks if symbol are available or not\n    /// @param governanceSymbol Symbol for governance token\n    /// @param communitySymbol Symbol for community token\n    function isSymbolAvailable(\n        string memory governanceSymbol,\n        string memory communitySymbol\n    ) external {\n        treasuryCoreContract.isSymbolAvailable(\n            governanceSymbol,\n            communitySymbol\n        );\n    }\n\n    function snapshot() public onlySnapshotCaller returns (uint256 snapshotId) {\n        return treasuryCoreContract.snapshot();\n    }\n\n    /// @dev this function is responsible for minting of new tokens for records\n    /// @param tokenId Id this is the tokenId that is to minted\n    /// @param amount the amount that is to be minted\n    function mintTokens(\n        uint256 tokenId,\n        uint256 amount\n    ) public onlyDilutionContract {\n        treasuryCoreContract.mint(tokenId, amount);\n    }\n}\n",
  "sourcePath": "/Users/a1/Desktop/Office/projects/CrowdRecords/Contracts/contracts/treasury/TreasuryContract.sol",
  "compiler": {
    "name": "solc",
    "version": "0.8.12+commit.f00d7308.Emscripten.clang"
  },
  "schemaVersion": "3.4.6",
  "updatedAt": "2023-05-19T09:50:44.018Z",
  "networkType": "ethereum",
  "devdoc": {
    "kind": "dev",
    "methods": {
      "addSnapshotCaller(address)": {
        "details": "This function is called to give a address privilege to call snapshot function",
        "params": {
          "contractAddress": "address of the voting contract"
        }
      },
      "balanceOf(address,uint256)": {
        "details": "This function returns the amount of total tokens that are in circulation",
        "params": {
          "tokenId": "This is the token whose circulating supply you  want to find out"
        }
      },
      "createNewCommunityToken((uint256,uint256,uint256,string,string))": {
        "details": "This function creates new community tokens for specified record, this function should only be called by the owner of the record",
        "params": {
          "newTokenData": "This contains all the parameters needed to create a new community token that are"
        }
      },
      "createNewCommunityTokenNewRecordVersion(uint256,uint256,uint256,string,string,uint256,address)": {
        "params": {
          "image": "This is the logo of the token",
          "recordId": "Record id of which the tokens need to be created",
          "symbol": "This is the short abbreviation of the token",
          "tokensForOldContributors": "This is the amount of tokens that old record owners will get",
          "totalSupply": "This is the total supply of the token",
          "userAddress": "This is the address of the owner who is minting the token",
          "userBalance": "The amount of tokens that owner of the new version will receive"
        }
      },
      "createNewGovernanceToken((uint256,uint256,uint256,string,string))": {
        "details": "This function creates new governance tokens for specified record",
        "params": {
          "newTokenData": "This contains all the parameters needed to create a new governance token that are"
        }
      },
      "createNewGovernanceTokenNewRecordVersion(uint256,uint256,uint256,string,string,uint256,address)": {
        "params": {
          "image": "This is the logo of the token",
          "recordId": "Record id of which the tokens need to be created",
          "symbol": "This is the short abbreviation of the token",
          "tokensForOldContributors": "This is the amount of tokens that old record owners will get",
          "totalSupply": "This is the total supply of the token",
          "userAddress": "This is the address of the owner who is minting the token",
          "userBalance": "The amount of tokens that owner of the new version will receive"
        }
      },
      "getCommunityTokenId(uint256)": {
        "details": "This function gives you the community token id of the recordId that you pass",
        "params": {
          "recordId": "This is the Id of the token that you want to check"
        }
      },
      "getGovernanceTokenId(uint256)": {
        "details": "This function gives you the governance token id of the recordId that you pass",
        "params": {
          "recordId": "This is the Id of the token that you want to check"
        }
      },
      "initialize(address,address,address,address,address)": {
        "details": "This is to set the address of the contracts",
        "params": {
          "newDilutionContract": "This is the address of new dilution contract",
          "newRecordsContractAddress": "address of records contract",
          "newRecordsVotingContractAddress": "address of record voting contract",
          "newTreasuryCoreContractAddress": "address of treasury core contract",
          "newVotingContractAddress": "This is the address of new voting contract"
        }
      },
      "isSymbolAvailable(string,string)": {
        "details": "This function checks if symbol are available or not",
        "params": {
          "communitySymbol": "Symbol for community token",
          "governanceSymbol": "Symbol for governance token"
        }
      },
      "mintTokens(uint256,uint256)": {
        "details": "this function is responsible for minting of new tokens for records",
        "params": {
          "amount": "the amount that is to be minted",
          "tokenId": "Id this is the tokenId that is to minted"
        }
      },
      "mintTokens(uint256,uint256,uint256)": {
        "details": "This function creats new community tokens for specified record",
        "params": {
          "recordId": "This is the id of the record to which the token belongs to",
          "tokenAmount": "This is the amount that is to be minted",
          "tokenId": "This is the id of the which is to be minted"
        }
      },
      "removeSnapshotCaller(uint256)": {
        "params": {
          "index": "index of the contract to remove from the list"
        }
      },
      "setOwnerAddress(address)": {
        "details": "This function sets the Owners address",
        "params": {
          "ownerAddress": "This is the address of new owner of contract"
        }
      },
      "setSymbolsAsAvailable(string,string)": {
        "params": {
          "communitySymbol": "Symbol for community token",
          "governanceSymbol": "Symbol for governance token"
        }
      },
      "setSymbolsAsUsed(string,string)": {
        "params": {
          "communitySymbol": "Symbol for community token",
          "governanceSymbol": "Symbol for governance token"
        }
      },
      "totalCirculatingSupply(uint256)": {
        "details": "This function returns the amount of total tokens that are in circulation",
        "params": {
          "tokenId": "This is the token whose circulating supply you  want to find out"
        }
      },
      "transferRewardAmount(address,uint256,uint256,uint256,uint256)": {
        "details": "This function is called only by the voting contract once the voting ends",
        "params": {
          "contributionId": "this is the contribution id to which the user has won",
          "recordId": "This is the recordId to which the contribution belongs to",
          "rewardCommunity": "this is the amount of community token that needs to be transferred",
          "rewardGovernance": "this is the amount of Governance token that needs to be transferred",
          "to": "This is the receivers address"
        }
      }
    },
    "version": 1
  },
  "userdoc": {
    "kind": "user",
    "methods": {
      "removeSnapshotCaller(uint256)": {
        "notice": "@dev This function invokes the snapshot calling privilages"
      }
    },
    "version": 1
  }
}