{
  "contractName": "TreasuryCoreContractMock",
  "abi": [
    {
      "inputs": [
        {
          "internalType": "address",
          "name": "owner",
          "type": "address"
        }
      ],
      "stateMutability": "nonpayable",
      "type": "constructor"
    },
    {
      "anonymous": false,
      "inputs": [
        {
          "indexed": true,
          "internalType": "address",
          "name": "account",
          "type": "address"
        },
        {
          "indexed": true,
          "internalType": "address",
          "name": "operator",
          "type": "address"
        },
        {
          "indexed": false,
          "internalType": "bool",
          "name": "approved",
          "type": "bool"
        }
      ],
      "name": "ApprovalForAll",
      "type": "event"
    },
    {
      "anonymous": false,
      "inputs": [
        {
          "indexed": false,
          "internalType": "address",
          "name": "to",
          "type": "address"
        },
        {
          "indexed": false,
          "internalType": "uint256",
          "name": "recordId",
          "type": "uint256"
        },
        {
          "indexed": false,
          "internalType": "uint256",
          "name": "contributionId",
          "type": "uint256"
        },
        {
          "indexed": false,
          "internalType": "uint256",
          "name": "rewardGovernance",
          "type": "uint256"
        },
        {
          "indexed": false,
          "internalType": "uint256",
          "name": "rewardCommunity",
          "type": "uint256"
        }
      ],
      "name": "ContributionRewardTransferred",
      "type": "event"
    },
    {
      "anonymous": false,
      "inputs": [
        {
          "indexed": false,
          "internalType": "uint8",
          "name": "version",
          "type": "uint8"
        }
      ],
      "name": "Initialized",
      "type": "event"
    },
    {
      "anonymous": false,
      "inputs": [
        {
          "indexed": false,
          "internalType": "uint256",
          "name": "recordId",
          "type": "uint256"
        },
        {
          "indexed": false,
          "internalType": "string",
          "name": "symbol",
          "type": "string"
        },
        {
          "indexed": false,
          "internalType": "string",
          "name": "image",
          "type": "string"
        },
        {
          "indexed": false,
          "internalType": "uint256",
          "name": "creationDate",
          "type": "uint256"
        },
        {
          "indexed": false,
          "internalType": "uint256",
          "name": "tokenAmount",
          "type": "uint256"
        },
        {
          "indexed": false,
          "internalType": "uint256",
          "name": "tokenId",
          "type": "uint256"
        },
        {
          "indexed": false,
          "internalType": "uint8",
          "name": "tokenType",
          "type": "uint8"
        }
      ],
      "name": "NewTokenCreated",
      "type": "event"
    },
    {
      "anonymous": false,
      "inputs": [
        {
          "indexed": false,
          "internalType": "uint256",
          "name": "id",
          "type": "uint256"
        }
      ],
      "name": "Snapshot",
      "type": "event"
    },
    {
      "anonymous": false,
      "inputs": [
        {
          "indexed": false,
          "internalType": "uint256",
          "name": "recordId",
          "type": "uint256"
        },
        {
          "indexed": false,
          "internalType": "uint256",
          "name": "tokenId",
          "type": "uint256"
        },
        {
          "indexed": false,
          "internalType": "uint256",
          "name": "creationDate",
          "type": "uint256"
        },
        {
          "indexed": false,
          "internalType": "uint256",
          "name": "tokenAmount",
          "type": "uint256"
        }
      ],
      "name": "TokenMinted",
      "type": "event"
    },
    {
      "anonymous": false,
      "inputs": [
        {
          "indexed": false,
          "internalType": "address",
          "name": "from",
          "type": "address"
        },
        {
          "indexed": false,
          "internalType": "address",
          "name": "to",
          "type": "address"
        },
        {
          "indexed": false,
          "internalType": "uint256",
          "name": "transferDate",
          "type": "uint256"
        },
        {
          "indexed": false,
          "internalType": "uint256",
          "name": "tokenId",
          "type": "uint256"
        },
        {
          "indexed": false,
          "internalType": "uint256",
          "name": "amount",
          "type": "uint256"
        },
        {
          "indexed": false,
          "internalType": "string",
          "name": "symbol",
          "type": "string"
        }
      ],
      "name": "TokenTransfer",
      "type": "event"
    },
    {
      "anonymous": false,
      "inputs": [
        {
          "indexed": true,
          "internalType": "address",
          "name": "operator",
          "type": "address"
        },
        {
          "indexed": true,
          "internalType": "address",
          "name": "from",
          "type": "address"
        },
        {
          "indexed": true,
          "internalType": "address",
          "name": "to",
          "type": "address"
        },
        {
          "indexed": false,
          "internalType": "uint256[]",
          "name": "ids",
          "type": "uint256[]"
        },
        {
          "indexed": false,
          "internalType": "uint256[]",
          "name": "values",
          "type": "uint256[]"
        }
      ],
      "name": "TransferBatch",
      "type": "event"
    },
    {
      "anonymous": false,
      "inputs": [
        {
          "indexed": true,
          "internalType": "address",
          "name": "operator",
          "type": "address"
        },
        {
          "indexed": true,
          "internalType": "address",
          "name": "from",
          "type": "address"
        },
        {
          "indexed": true,
          "internalType": "address",
          "name": "to",
          "type": "address"
        },
        {
          "indexed": false,
          "internalType": "uint256",
          "name": "id",
          "type": "uint256"
        },
        {
          "indexed": false,
          "internalType": "uint256",
          "name": "value",
          "type": "uint256"
        }
      ],
      "name": "TransferSingle",
      "type": "event"
    },
    {
      "anonymous": false,
      "inputs": [
        {
          "indexed": false,
          "internalType": "string",
          "name": "value",
          "type": "string"
        },
        {
          "indexed": true,
          "internalType": "uint256",
          "name": "id",
          "type": "uint256"
        }
      ],
      "name": "URI",
      "type": "event"
    },
    {
      "inputs": [],
      "name": "CRD",
      "outputs": [
        {
          "internalType": "uint256",
          "name": "",
          "type": "uint256"
        }
      ],
      "stateMutability": "view",
      "type": "function"
    },
    {
      "inputs": [],
      "name": "OWNER",
      "outputs": [
        {
          "internalType": "address",
          "name": "",
          "type": "address"
        }
      ],
      "stateMutability": "view",
      "type": "function"
    },
    {
      "inputs": [],
      "name": "TREASURY_CONTRACT_ADDRESS",
      "outputs": [
        {
          "internalType": "address",
          "name": "",
          "type": "address"
        }
      ],
      "stateMutability": "view",
      "type": "function"
    },
    {
      "inputs": [],
      "name": "VOTING_HUB_ADDRESS",
      "outputs": [
        {
          "internalType": "address",
          "name": "",
          "type": "address"
        }
      ],
      "stateMutability": "view",
      "type": "function"
    },
    {
      "inputs": [
        {
          "internalType": "address",
          "name": "account",
          "type": "address"
        },
        {
          "internalType": "uint256",
          "name": "id",
          "type": "uint256"
        }
      ],
      "name": "balanceOf",
      "outputs": [
        {
          "internalType": "uint256",
          "name": "",
          "type": "uint256"
        }
      ],
      "stateMutability": "view",
      "type": "function"
    },
    {
      "inputs": [
        {
          "internalType": "address",
          "name": "account",
          "type": "address"
        },
        {
          "internalType": "uint256",
          "name": "snapshotId",
          "type": "uint256"
        },
        {
          "internalType": "uint256",
          "name": "tokenId",
          "type": "uint256"
        }
      ],
      "name": "balanceOfAt",
      "outputs": [
        {
          "internalType": "uint256",
          "name": "",
          "type": "uint256"
        }
      ],
      "stateMutability": "view",
      "type": "function"
    },
    {
      "inputs": [
        {
          "internalType": "address[]",
          "name": "accounts",
          "type": "address[]"
        },
        {
          "internalType": "uint256[]",
          "name": "ids",
          "type": "uint256[]"
        }
      ],
      "name": "balanceOfBatch",
      "outputs": [
        {
          "internalType": "uint256[]",
          "name": "",
          "type": "uint256[]"
        }
      ],
      "stateMutability": "view",
      "type": "function"
    },
    {
      "inputs": [
        {
          "internalType": "uint256",
          "name": "",
          "type": "uint256"
        }
      ],
      "name": "commTokenMapping",
      "outputs": [
        {
          "internalType": "uint256",
          "name": "recordId",
          "type": "uint256"
        },
        {
          "internalType": "string",
          "name": "symbol",
          "type": "string"
        },
        {
          "internalType": "string",
          "name": "image",
          "type": "string"
        },
        {
          "internalType": "uint256",
          "name": "creationDate",
          "type": "uint256"
        },
        {
          "internalType": "bool",
          "name": "isPresent",
          "type": "bool"
        },
        {
          "internalType": "uint256",
          "name": "tokenId",
          "type": "uint256"
        }
      ],
      "stateMutability": "view",
      "type": "function"
    },
    {
      "inputs": [
        {
          "internalType": "string",
          "name": "",
          "type": "string"
        }
      ],
      "name": "commTokenSym",
      "outputs": [
        {
          "internalType": "bool",
          "name": "",
          "type": "bool"
        }
      ],
      "stateMutability": "view",
      "type": "function"
    },
    {
      "inputs": [
        {
          "components": [
            {
              "internalType": "uint256",
              "name": "recordId",
              "type": "uint256"
            },
            {
              "internalType": "uint256",
              "name": "totalSupply",
              "type": "uint256"
            },
            {
              "internalType": "uint256",
              "name": "userBalance",
              "type": "uint256"
            },
            {
              "internalType": "string",
              "name": "symbol",
              "type": "string"
            },
            {
              "internalType": "string",
              "name": "image",
              "type": "string"
            }
          ],
          "internalType": "struct TreasuryCoreContract.NewTokenData",
          "name": "newTokenData",
          "type": "tuple"
        },
        {
          "internalType": "address",
          "name": "userAddress",
          "type": "address"
        }
      ],
      "name": "createNewCommunityToken",
      "outputs": [
        {
          "internalType": "uint256",
          "name": "",
          "type": "uint256"
        }
      ],
      "stateMutability": "nonpayable",
      "type": "function"
    },
    {
      "inputs": [
        {
          "components": [
            {
              "internalType": "uint256",
              "name": "recordId",
              "type": "uint256"
            },
            {
              "internalType": "uint256",
              "name": "totalSupply",
              "type": "uint256"
            },
            {
              "internalType": "uint256",
              "name": "userBalance",
              "type": "uint256"
            },
            {
              "internalType": "string",
              "name": "symbol",
              "type": "string"
            },
            {
              "internalType": "string",
              "name": "image",
              "type": "string"
            }
          ],
          "internalType": "struct TreasuryCoreContract.NewTokenData",
          "name": "newTokenData",
          "type": "tuple"
        },
        {
          "internalType": "address",
          "name": "userAddress",
          "type": "address"
        }
      ],
      "name": "createNewGovernanceToken",
      "outputs": [
        {
          "internalType": "uint256",
          "name": "",
          "type": "uint256"
        }
      ],
      "stateMutability": "nonpayable",
      "type": "function"
    },
    {
      "inputs": [
        {
          "internalType": "uint256",
          "name": "id",
          "type": "uint256"
        }
      ],
      "name": "exists",
      "outputs": [
        {
          "internalType": "bool",
          "name": "",
          "type": "bool"
        }
      ],
      "stateMutability": "view",
      "type": "function"
    },
    {
      "inputs": [
        {
          "internalType": "uint256",
          "name": "",
          "type": "uint256"
        }
      ],
      "name": "govTokenMapping",
      "outputs": [
        {
          "internalType": "uint256",
          "name": "recordId",
          "type": "uint256"
        },
        {
          "internalType": "string",
          "name": "symbol",
          "type": "string"
        },
        {
          "internalType": "string",
          "name": "image",
          "type": "string"
        },
        {
          "internalType": "uint256",
          "name": "creationDate",
          "type": "uint256"
        },
        {
          "internalType": "bool",
          "name": "isPresent",
          "type": "bool"
        },
        {
          "internalType": "uint256",
          "name": "tokenId",
          "type": "uint256"
        }
      ],
      "stateMutability": "view",
      "type": "function"
    },
    {
      "inputs": [
        {
          "internalType": "string",
          "name": "",
          "type": "string"
        }
      ],
      "name": "govTokenSym",
      "outputs": [
        {
          "internalType": "bool",
          "name": "",
          "type": "bool"
        }
      ],
      "stateMutability": "view",
      "type": "function"
    },
    {
      "inputs": [
        {
          "internalType": "address",
          "name": "newVotingHubContract",
          "type": "address"
        },
        {
          "internalType": "address",
          "name": "newTreasuryAddress",
          "type": "address"
        },
        {
          "internalType": "address",
          "name": "crdTokenAddress",
          "type": "address"
        }
      ],
      "name": "initialize",
      "outputs": [],
      "stateMutability": "nonpayable",
      "type": "function"
    },
    {
      "inputs": [
        {
          "internalType": "address",
          "name": "account",
          "type": "address"
        },
        {
          "internalType": "address",
          "name": "operator",
          "type": "address"
        }
      ],
      "name": "isApprovedForAll",
      "outputs": [
        {
          "internalType": "bool",
          "name": "",
          "type": "bool"
        }
      ],
      "stateMutability": "view",
      "type": "function"
    },
    {
      "inputs": [
        {
          "internalType": "uint256",
          "name": "tokenId",
          "type": "uint256"
        },
        {
          "internalType": "uint256",
          "name": "amount",
          "type": "uint256"
        }
      ],
      "name": "mint",
      "outputs": [],
      "stateMutability": "nonpayable",
      "type": "function"
    },
    {
      "inputs": [
        {
          "internalType": "address",
          "name": "operator",
          "type": "address"
        },
        {
          "internalType": "address",
          "name": "from",
          "type": "address"
        },
        {
          "internalType": "uint256[]",
          "name": "ids",
          "type": "uint256[]"
        },
        {
          "internalType": "uint256[]",
          "name": "values",
          "type": "uint256[]"
        },
        {
          "internalType": "bytes",
          "name": "data",
          "type": "bytes"
        }
      ],
      "name": "onERC1155BatchReceived",
      "outputs": [
        {
          "internalType": "bytes4",
          "name": "",
          "type": "bytes4"
        }
      ],
      "stateMutability": "nonpayable",
      "type": "function"
    },
    {
      "inputs": [
        {
          "internalType": "address",
          "name": "operator",
          "type": "address"
        },
        {
          "internalType": "address",
          "name": "from",
          "type": "address"
        },
        {
          "internalType": "uint256",
          "name": "id",
          "type": "uint256"
        },
        {
          "internalType": "uint256",
          "name": "value",
          "type": "uint256"
        },
        {
          "internalType": "bytes",
          "name": "data",
          "type": "bytes"
        }
      ],
      "name": "onERC1155Received",
      "outputs": [
        {
          "internalType": "bytes4",
          "name": "",
          "type": "bytes4"
        }
      ],
      "stateMutability": "nonpayable",
      "type": "function"
    },
    {
      "inputs": [
        {
          "internalType": "address",
          "name": "from",
          "type": "address"
        },
        {
          "internalType": "address",
          "name": "to",
          "type": "address"
        },
        {
          "internalType": "uint256[]",
          "name": "ids",
          "type": "uint256[]"
        },
        {
          "internalType": "uint256[]",
          "name": "amounts",
          "type": "uint256[]"
        },
        {
          "internalType": "bytes",
          "name": "data",
          "type": "bytes"
        }
      ],
      "name": "safeBatchTransferFrom",
      "outputs": [],
      "stateMutability": "nonpayable",
      "type": "function"
    },
    {
      "inputs": [
        {
          "internalType": "address",
          "name": "from",
          "type": "address"
        },
        {
          "internalType": "address",
          "name": "to",
          "type": "address"
        },
        {
          "internalType": "uint256",
          "name": "id",
          "type": "uint256"
        },
        {
          "internalType": "uint256",
          "name": "amount",
          "type": "uint256"
        },
        {
          "internalType": "bytes",
          "name": "data",
          "type": "bytes"
        }
      ],
      "name": "safeTransferFrom",
      "outputs": [],
      "stateMutability": "nonpayable",
      "type": "function"
    },
    {
      "inputs": [
        {
          "internalType": "address",
          "name": "operator",
          "type": "address"
        },
        {
          "internalType": "bool",
          "name": "approved",
          "type": "bool"
        }
      ],
      "name": "setApprovalForAll",
      "outputs": [],
      "stateMutability": "nonpayable",
      "type": "function"
    },
    {
      "inputs": [
        {
          "internalType": "string",
          "name": "governanceSymbol",
          "type": "string"
        },
        {
          "internalType": "string",
          "name": "communitySymbol",
          "type": "string"
        }
      ],
      "name": "setSymbolsAsAvailable",
      "outputs": [],
      "stateMutability": "nonpayable",
      "type": "function"
    },
    {
      "inputs": [
        {
          "internalType": "string",
          "name": "governanceSymbol",
          "type": "string"
        },
        {
          "internalType": "string",
          "name": "communitySymbol",
          "type": "string"
        }
      ],
      "name": "setSymbolsAsUsed",
      "outputs": [],
      "stateMutability": "nonpayable",
      "type": "function"
    },
    {
      "inputs": [],
      "name": "snapshot",
      "outputs": [
        {
          "internalType": "uint256",
          "name": "snapshotId",
          "type": "uint256"
        }
      ],
      "stateMutability": "nonpayable",
      "type": "function"
    },
    {
      "inputs": [
        {
          "internalType": "bytes4",
          "name": "interfaceId",
          "type": "bytes4"
        }
      ],
      "name": "supportsInterface",
      "outputs": [
        {
          "internalType": "bool",
          "name": "",
          "type": "bool"
        }
      ],
      "stateMutability": "view",
      "type": "function"
    },
    {
      "inputs": [
        {
          "internalType": "uint256",
          "name": "id",
          "type": "uint256"
        }
      ],
      "name": "totalSupply",
      "outputs": [
        {
          "internalType": "uint256",
          "name": "",
          "type": "uint256"
        }
      ],
      "stateMutability": "view",
      "type": "function"
    },
    {
      "inputs": [
        {
          "internalType": "uint256",
          "name": "snapshotId",
          "type": "uint256"
        },
        {
          "internalType": "uint256",
          "name": "tokenId",
          "type": "uint256"
        }
      ],
      "name": "totalSupplyAt",
      "outputs": [
        {
          "internalType": "uint256",
          "name": "",
          "type": "uint256"
        }
      ],
      "stateMutability": "view",
      "type": "function"
    },
    {
      "inputs": [
        {
          "internalType": "address",
          "name": "to",
          "type": "address"
        },
        {
          "internalType": "uint256",
          "name": "recordId",
          "type": "uint256"
        },
        {
          "internalType": "uint256",
          "name": "contributionId",
          "type": "uint256"
        },
        {
          "internalType": "uint256",
          "name": "rewardGovernance",
          "type": "uint256"
        },
        {
          "internalType": "uint256",
          "name": "rewardCommunity",
          "type": "uint256"
        }
      ],
      "name": "transferRewardAmount",
      "outputs": [],
      "stateMutability": "nonpayable",
      "type": "function"
    },
    {
      "inputs": [
        {
          "internalType": "uint256",
          "name": "tokenId",
          "type": "uint256"
        },
        {
          "internalType": "uint256",
          "name": "amount",
          "type": "uint256"
        },
        {
          "internalType": "address",
          "name": "receiver",
          "type": "address"
        }
      ],
      "name": "transferRewardTokens",
      "outputs": [],
      "stateMutability": "nonpayable",
      "type": "function"
    },
    {
      "inputs": [
        {
          "internalType": "uint256",
          "name": "",
          "type": "uint256"
        }
      ],
      "name": "uri",
      "outputs": [
        {
          "internalType": "string",
          "name": "",
          "type": "string"
        }
      ],
      "stateMutability": "view",
      "type": "function"
    },
    {
      "inputs": [
        {
          "internalType": "uint256",
          "name": "tokenId",
          "type": "uint256"
        },
        {
          "internalType": "uint256",
          "name": "tokenAmount",
          "type": "uint256"
        }
      ],
      "name": "mintTokens",
      "outputs": [],
      "stateMutability": "nonpayable",
      "type": "function"
    },
    {
      "inputs": [
        {
          "internalType": "uint256",
          "name": "recordId",
          "type": "uint256"
        },
        {
          "internalType": "uint256",
          "name": "tokenId",
          "type": "uint256"
        },
        {
          "internalType": "uint256",
          "name": "tokenAmount",
          "type": "uint256"
        }
      ],
      "name": "mintTokens",
      "outputs": [],
      "stateMutability": "nonpayable",
      "type": "function"
    },
    {
      "inputs": [
        {
          "internalType": "uint256",
          "name": "tokenId",
          "type": "uint256"
        },
        {
          "internalType": "uint256",
          "name": "tokenAmount",
          "type": "uint256"
        }
      ],
      "name": "mintTokensForMe",
      "outputs": [],
      "stateMutability": "nonpayable",
      "type": "function"
    }
  ],
  "bytecode": "0x600160085560c06040526005608081905264435244475f60d81b60a09081526200002d91600c91906200011d565b50604080518082019091526004808252634352445f60e01b60209092019182526200005b91600d916200011d565b50600e805461ffff19166101001790553480156200007857600080fd5b5060405162004403380380620044038339810160408190526200009b91620001c3565b60408051808201909152601d81527f68747470733a2f2f63726f77647265636f7264732e636f6d2f7b69647d00000060208201528190620000dc8162000104565b50600b80546001600160a01b0319166001600160a01b03929092169190911790555062000232565b8051620001199060029060208401906200011d565b5050565b8280546200012b90620001f5565b90600052602060002090601f0160209004810192826200014f57600085556200019a565b82601f106200016a57805160ff19168380011785556200019a565b828001600101855582156200019a579182015b828111156200019a5782518255916020019190600101906200017d565b50620001a8929150620001ac565b5090565b5b80821115620001a85760008155600101620001ad565b600060208284031215620001d657600080fd5b81516001600160a01b0381168114620001ee57600080fd5b9392505050565b600181811c908216806200020a57607f821691505b602082108114156200022c57634e487b7160e01b600052602260045260246000fd5b50919050565b6141c180620002426000396000f3fe608060405234801561001057600080fd5b50600436106102255760003560e01c80638958a5de1161012a578063bd85b039116100bd578063e985e9c51161008c578063f23a6e6111610071578063f23a6e61146105cc578063f242432a14610605578063ff669dfb1461061857600080fd5b8063e985e9c514610570578063ef890f7c146105b957600080fd5b8063bd85b03914610522578063c0c53b8b14610542578063e10fa0b214610555578063e6acd9b81461056857600080fd5b8063a22cb465116100f9578063a22cb46514610470578063acb3149314610483578063af94e4a9146104a3578063bc197c81146104b657600080fd5b80638958a5de146104145780638aa7a8b0146104425780638fbf353f146104555780639711715a1461046857600080fd5b806336868049116101bd57806361cbc3571161018c5780636e470f92116101715780636e470f92146103c95780638388f413146103dc578063884c8ffe146103ef57600080fd5b806361cbc357146103a3578063626da068146103b657600080fd5b806336868049146103415780634e1273f4146103615780634f558e79146103815780635f938ad2146103a357600080fd5b80631644e0ff116101f95780631644e0ff146102d85780631b2ef1ca146103065780632eb2c2d61461031b57806334a7c2e71461032e57600080fd5b8062fdd58e1461022a57806301ffc9a7146102505780630e89341c14610273578063117803e314610293575b600080fd5b61023d6102383660046132c6565b61062b565b6040519081526020015b60405180910390f35b61026361025e366004613321565b6106e8565b6040519015158152602001610247565b61028661028136600461333e565b6107cb565b60405161024791906133cd565b600b546102b39073ffffffffffffffffffffffffffffffffffffffff1681565b60405173ffffffffffffffffffffffffffffffffffffffff9091168152602001610247565b6102636102e6366004613512565b805160208183018101805160118252928201919093012091525460ff1681565b61031961031436600461354f565b61085f565b005b610319610329366004613606565b610950565b61031961033c36600461354f565b610a19565b6009546102b39073ffffffffffffffffffffffffffffffffffffffff1681565b61037461036f3660046136b0565b610a3d565b60405161024791906137b6565b61026361038f36600461333e565b600090815260036020526040902054151590565b6103196103b13660046137c9565b610b95565b61023d6103c4366004613823565b610ce0565b6103196103d736600461354f565b610d43565b6103196103ea366004613856565b610d67565b6104026103fd36600461333e565b610ef6565b60405161024796959493929190613898565b610263610422366004613512565b805160208183018101805160128252928201919093012091525460ff1681565b61023d61045036600461354f565b611041565b6103196104633660046138e2565b611086565b61023d6112d2565b61031961047e36600461390e565b61138a565b600a546102b39073ffffffffffffffffffffffffffffffffffffffff1681565b6104026104b136600461333e565b611395565b6104f16104c43660046139d1565b7fbc197c819b3e337a6f9652dd10becd7eef83032af3b9d958d3d42f669414662198975050505050505050565b6040517fffffffff000000000000000000000000000000000000000000000000000000009091168152602001610247565b61023d61053036600461333e565b60009081526003602052604090205490565b610319610550366004613a8c565b6113b7565b61023d610563366004613acf565b611674565b61023d600181565b61026361057e366004613b94565b73ffffffffffffffffffffffffffffffffffffffff918216600090815260016020908152604080832093909416825291909152205460ff1690565b6103196105c7366004613bbe565b611860565b6104f16105da366004613bea565b7ff23a6e612e1ff4830e658fe43f4e3cb4a5f8170bd5d9e69fb5d7a7fa9e4fdf979695505050505050565b610319610613366004613c62565b61195a565b61023d610626366004613acf565b611a1c565b600060018214156106d857600e546040517f70a0823100000000000000000000000000000000000000000000000000000000815273ffffffffffffffffffffffffffffffffffffffff858116600483015262010000909204909116906370a0823190602401602060405180830381865afa1580156106ad573d6000803e3d6000fd5b505050506040513d601f19601f820116820180604052508101906106d19190613cc7565b90506106e2565b6106d18383611b93565b92915050565b60007fffffffff0000000000000000000000000000000000000000000000000000000082167fd9b67a2600000000000000000000000000000000000000000000000000000000148061077b57507fffffffff0000000000000000000000000000000000000000000000000000000082167f0e89341c00000000000000000000000000000000000000000000000000000000145b806106e257507f01ffc9a7000000000000000000000000000000000000000000000000000000007fffffffff000000000000000000000000000000000000000000000000000000008316146106e2565b6060600280546107da90613ce0565b80601f016020809104026020016040519081016040528092919081815260200182805461080690613ce0565b80156108535780601f1061082857610100808354040283529160200191610853565b820191906000526020600020905b81548152906001019060200180831161083657829003601f168201915b50505050509050919050565b600a5473ffffffffffffffffffffffffffffffffffffffff16331461090b576040517f08c379a000000000000000000000000000000000000000000000000000000000815260206004820152602360248201527f554e415554484f52495a45443a2043414e4e4f545f504552464f524d5f41435460448201527f494f4e000000000000000000000000000000000000000000000000000000000060648201526084015b60405180910390fd5b61094c3083836040518060400160405280601181526020017f4e657720746f6b656e73206d696e746564000000000000000000000000000000815250611c6b565b5050565b73ffffffffffffffffffffffffffffffffffffffff85163314806109795750610979853361057e565b610a05576040517f08c379a000000000000000000000000000000000000000000000000000000000815260206004820152603260248201527f455243313135353a207472616e736665722063616c6c6572206973206e6f742060448201527f6f776e6572206e6f7220617070726f76656400000000000000000000000000006064820152608401610902565b610a128585858585611dd8565b5050505050565b61094c30838360405180606001604052806023815260200161416960239139611c6b565b60608151835114610ad0576040517f08c379a000000000000000000000000000000000000000000000000000000000815260206004820152602960248201527f455243313135353a206163636f756e747320616e6420696473206c656e67746860448201527f206d69736d6174636800000000000000000000000000000000000000000000006064820152608401610902565b6000835167ffffffffffffffff811115610aec57610aec6133e0565b604051908082528060200260200182016040528015610b15578160200160208202803683370190505b50905060005b8451811015610b8d57610b60858281518110610b3957610b39613d34565b6020026020010151858381518110610b5357610b53613d34565b602002602001015161062b565b828281518110610b7257610b72613d34565b6020908102919091010152610b8681613d92565b9050610b1b565b509392505050565b600a5473ffffffffffffffffffffffffffffffffffffffff163314610c3c576040517f08c379a000000000000000000000000000000000000000000000000000000000815260206004820152602360248201527f554e415554484f52495a45443a2043414e4e4f545f504552464f524d5f41435460448201527f494f4e00000000000000000000000000000000000000000000000000000000006064820152608401610902565b6001601282604051610c4e9190613dcb565b90815260405190819003602001812080549215157fffffffffffffffffffffffffffffffffffffffffffffffffffffffffffffff0090931692909217909155600190601190610c9e908590613dcb565b90815260405190819003602001902080549115157fffffffffffffffffffffffffffffffffffffffffffffffffffffffffffffff009092169190911790555050565b73ffffffffffffffffffffffffffffffffffffffff83166000908152600460209081526040808320848452909152812081908190610d1f908690612120565b9150915081610d3757610d32868561062b565b610d39565b805b9695505050505050565b61094c33838360405180606001604052806023815260200161416960239139611c6b565b600a5473ffffffffffffffffffffffffffffffffffffffff163314610e0e576040517f08c379a000000000000000000000000000000000000000000000000000000000815260206004820152602360248201527f554e415554484f52495a45443a2043414e4e4f545f504552464f524d5f41435460448201527f494f4e00000000000000000000000000000000000000000000000000000000006064820152608401610902565b610e1a30336001612252565b8115610e5257610e523086600f600088815260200190815260200160002060050154856040518060200160405280600081525061195a565b8015610e8a57610e8a30866010600088815260200190815260200160002060050154846040518060200160405280600081525061195a565b6040805173ffffffffffffffffffffffffffffffffffffffff871681526020810186905290810184905260608101839052608081018290527fe0357d4bc70490bf81b58d93d7d3a12a646c486a071200201fd882cdf74c88d99060a00160405180910390a15050505050565b600f6020526000908152604090208054600182018054919291610f1890613ce0565b80601f0160208091040260200160405190810160405280929190818152602001828054610f4490613ce0565b8015610f915780601f10610f6657610100808354040283529160200191610f91565b820191906000526020600020905b815481529060010190602001808311610f7457829003601f168201915b505050505090806002018054610fa690613ce0565b80601f0160208091040260200160405190810160405280929190818152602001828054610fd290613ce0565b801561101f5780601f10610ff45761010080835404028352916020019161101f565b820191906000526020600020905b81548152906001019060200180831161100257829003601f168201915b50505050600383015460048401546005909401549293909260ff909116915086565b60008181526005602052604081208190819061105e908690612120565b915091508161107b5760008481526003602052604090205461107d565b805b95945050505050565b600a5473ffffffffffffffffffffffffffffffffffffffff16331461112d576040517f08c379a000000000000000000000000000000000000000000000000000000000815260206004820152602360248201527f554e415554484f52495a45443a2043414e4e4f545f504552464f524d5f41435460448201527f494f4e00000000000000000000000000000000000000000000000000000000006064820152608401610902565b60008381526010602052604090206004015460ff1615156001148061116857506000838152600f602052604090206004015460ff1615156001145b6111ce576040517f08c379a000000000000000000000000000000000000000000000000000000000815260206004820152601860248201527f494e56414c49443a2057524f4e475f5245434f52445f494400000000000000006044820152606401610902565b6000838152601060205260409020600501548214806111fd57506000838152600f602052604090206005015482145b611263576040517f08c379a000000000000000000000000000000000000000000000000000000000815260206004820152601760248201527f494e56414c49443a2057524f4e475f544f4b454e5f49440000000000000000006044820152606401610902565b61128730838360405180606001604052806023815260200161416960239139611c6b565b604080518481526020810184905242818301526060810183905290517f81e0b881b9c6ff93955a4a996cc01472b2cdc1a1663af072fa5ca7db7f127de29181900360800190a1505050565b600a5460009073ffffffffffffffffffffffffffffffffffffffff16331461137c576040517f08c379a000000000000000000000000000000000000000000000000000000000815260206004820152602360248201527f554e415554484f52495a45443a2043414e4e4f545f504552464f524d5f41435460448201527f494f4e00000000000000000000000000000000000000000000000000000000006064820152608401610902565b6113846123a6565b90505b90565b61094c338383612252565b60106020526000908152604090208054600182018054919291610f1890613ce0565b600754610100900460ff16158080156113d75750600754600160ff909116105b806113f15750303b1580156113f1575060075460ff166001145b61147d576040517f08c379a000000000000000000000000000000000000000000000000000000000815260206004820152602e60248201527f496e697469616c697a61626c653a20636f6e747261637420697320616c72656160448201527f647920696e697469616c697a65640000000000000000000000000000000000006064820152608401610902565b600780547fffffffffffffffffffffffffffffffffffffffffffffffffffffffffffffff0016600117905580156114db57600780547fffffffffffffffffffffffffffffffffffffffffffffffffffffffffffff00ff166101001790555b600b5473ffffffffffffffffffffffffffffffffffffffff163314611582576040517f08c379a000000000000000000000000000000000000000000000000000000000815260206004820152602360248201527f554e415554484f52495a45443a2043414e4e4f545f504552464f524d5f41435460448201527f494f4e00000000000000000000000000000000000000000000000000000000006064820152608401610902565b6009805473ffffffffffffffffffffffffffffffffffffffff8087167fffffffffffffffffffffffff000000000000000000000000000000000000000092831617909255600a80548684169216919091179055600e805491841662010000027fffffffffffffffffffff0000000000000000000000000000000000000000ffff909216919091179055801561166e57600780547fffffffffffffffffffffffffffffffffffffffffffffffffffffffffffff00ff169055604051600181527f7f26b83ff96e1f2b6a682f133852f6798a09c465da95921460cefb38474024989060200160405180910390a15b50505050565b600a5460009073ffffffffffffffffffffffffffffffffffffffff16331461171e576040517f08c379a000000000000000000000000000000000000000000000000000000000815260206004820152602360248201527f554e415554484f52495a45443a2043414e4e4f545f504552464f524d5f41435460448201527f494f4e00000000000000000000000000000000000000000000000000000000006064820152608401610902565b6000600c6040516020016117329190613de7565b604051602081830303815290604052905080846060015160405160200161175a929190613eba565b604080517fffffffffffffffffffffffffffffffffffffffffffffffffffffffffffffffe08184030181529190526060850152506008805490600061179e83613d92565b9091555050600854600e546117bf9085908390610100900460ff1686612400565b84516000908152600f602090815260409091208251815582820151805191926117f092600185019290910190613209565b506040820151805161180c916002840191602090910190613209565b506060820151600382015560808201516004820180547fffffffffffffffffffffffffffffffffffffffffffffffffffffffffffffff001691151591909117905560a0909101516005909101559392505050565b600a5473ffffffffffffffffffffffffffffffffffffffff163314611907576040517f08c379a000000000000000000000000000000000000000000000000000000000815260206004820152602360248201527f554e415554484f52495a45443a2043414e4e4f545f504552464f524d5f41435460448201527f494f4e00000000000000000000000000000000000000000000000000000000006064820152608401610902565b61191330336001612252565b611955308285856040518060400160405280601581526020017f5245434f52445f544f4b454e5f5452414e53464552000000000000000000000081525061195a565b505050565b73ffffffffffffffffffffffffffffffffffffffff85163314806119835750611983853361057e565b611a0f576040517f08c379a000000000000000000000000000000000000000000000000000000000815260206004820152602960248201527f455243313135353a2063616c6c6572206973206e6f74206f776e6572206e6f7260448201527f20617070726f76656400000000000000000000000000000000000000000000006064820152608401610902565b610a128585858585612527565b600a5460009073ffffffffffffffffffffffffffffffffffffffff163314611ac6576040517f08c379a000000000000000000000000000000000000000000000000000000000815260206004820152602360248201527f554e415554484f52495a45443a2043414e4e4f545f504552464f524d5f41435460448201527f494f4e00000000000000000000000000000000000000000000000000000000006064820152608401610902565b6000600d604051602001611ada9190613de7565b6040516020818303038152906040529050808460600151604051602001611b02929190613eba565b604080517fffffffffffffffffffffffffffffffffffffffffffffffffffffffffffffffe081840301815291905260608501525060088054906000611b4683613d92565b9091555050600854600e54611b62908590839060ff1686612400565b845160009081526010602090815260409091208251815582820151805191926117f092600185019290910190613209565b600073ffffffffffffffffffffffffffffffffffffffff8316611c38576040517f08c379a000000000000000000000000000000000000000000000000000000000815260206004820152602b60248201527f455243313135353a2062616c616e636520717565727920666f7220746865207a60448201527f65726f20616464726573730000000000000000000000000000000000000000006064820152608401610902565b5060009081526020818152604080832073ffffffffffffffffffffffffffffffffffffffff949094168352929052205490565b73ffffffffffffffffffffffffffffffffffffffff8416611d0e576040517f08c379a000000000000000000000000000000000000000000000000000000000815260206004820152602160248201527f455243313135353a206d696e7420746f20746865207a65726f2061646472657360448201527f73000000000000000000000000000000000000000000000000000000000000006064820152608401610902565b33611d2e81600087611d1f886125dd565b611d28886125dd565b87612628565b60008481526020818152604080832073ffffffffffffffffffffffffffffffffffffffff8916845290915281208054859290611d6b908490613ee9565b9091555050604080518581526020810185905273ffffffffffffffffffffffffffffffffffffffff80881692600092918516917fc3d58168c5ae7397731d063d5bbf3d657854427343f4c083240f7aacaa2d0f62910160405180910390a4610a1281600087878787612775565b8151835114611e69576040517f08c379a000000000000000000000000000000000000000000000000000000000815260206004820152602860248201527f455243313135353a2069647320616e6420616d6f756e7473206c656e6774682060448201527f6d69736d617463680000000000000000000000000000000000000000000000006064820152608401610902565b73ffffffffffffffffffffffffffffffffffffffff8416611f0c576040517f08c379a000000000000000000000000000000000000000000000000000000000815260206004820152602560248201527f455243313135353a207472616e7366657220746f20746865207a65726f20616460448201527f64726573730000000000000000000000000000000000000000000000000000006064820152608401610902565b33611f1b818787878787612628565b60005b845181101561208b576000858281518110611f3b57611f3b613d34565b602002602001015190506000858381518110611f5957611f59613d34565b6020908102919091018101516000848152808352604080822073ffffffffffffffffffffffffffffffffffffffff8e168352909352919091205490915081811015612026576040517f08c379a000000000000000000000000000000000000000000000000000000000815260206004820152602a60248201527f455243313135353a20696e73756666696369656e742062616c616e636520666f60448201527f72207472616e73666572000000000000000000000000000000000000000000006064820152608401610902565b60008381526020818152604080832073ffffffffffffffffffffffffffffffffffffffff8e8116855292528083208585039055908b16825281208054849290612070908490613ee9565b925050819055505050508061208490613d92565b9050611f1e565b508473ffffffffffffffffffffffffffffffffffffffff168673ffffffffffffffffffffffffffffffffffffffff168273ffffffffffffffffffffffffffffffffffffffff167f4a39dc06d4c0dbc64b70af90fd698a233a518aa5d07e595d983b8c0526c8f7fb8787604051612102929190613f01565b60405180910390a4612118818787878787612a09565b505050505050565b6000806000841161218d576040517f08c379a000000000000000000000000000000000000000000000000000000000815260206004820152601660248201527f4552433230536e617073686f743a2069642069732030000000000000000000006044820152606401610902565b612195612bb6565b8411156121fe576040517f08c379a000000000000000000000000000000000000000000000000000000000815260206004820152601d60248201527f4552433230536e617073686f743a206e6f6e6578697374656e742069640000006044820152606401610902565b600061220a8486612bc1565b845490915081141561222357600080925092505061224b565b600184600101828154811061223a5761223a613d34565b906000526020600020015492509250505b9250929050565b8173ffffffffffffffffffffffffffffffffffffffff168373ffffffffffffffffffffffffffffffffffffffff16141561230e576040517f08c379a000000000000000000000000000000000000000000000000000000000815260206004820152602960248201527f455243313135353a2073657474696e6720617070726f76616c2073746174757360448201527f20666f722073656c6600000000000000000000000000000000000000000000006064820152608401610902565b73ffffffffffffffffffffffffffffffffffffffff83811660008181526001602090815260408083209487168084529482529182902080547fffffffffffffffffffffffffffffffffffffffffffffffffffffffffffffff001686151590811790915591519182527f17307eab39ab6107e8899845ad3d59bd9653f200f220920489ca2b5937696c31910160405180910390a3505050565b60006123b6600680546001019055565b60006123c0612bb6565b90507f8030e83b04d87bef53480e26263266d6ca66863aa8506aca6f2559d18aa1cb67816040516123f391815260200190565b60405180910390a1919050565b61243b6040518060c0016040528060008152602001606081526020016060815260200160008152602001600015158152602001600081525090565b6000856040015186602001516124519190613f26565b905060008660400151905061247730878460405180602001604052806000815250611c6b565b61249284878360405180602001604052806000815250611c6b565b6040805160c081018252885181526060808a0180516020808501919091526080808d018051868801524294860185905260019186019190915260a085018c90528c5192519051918d0151955194957f49debfc18817e7e3ec2948391bcc3a87349b3c716f7d470d223bfbf8928aa65a956125149592939291908e908e90613f3d565b60405180910390a1979650505050505050565b60018314156125d057600e546040517f42842e0e00000000000000000000000000000000000000000000000000000000815273ffffffffffffffffffffffffffffffffffffffff878116600483015286811660248301526044820185905262010000909204909116906342842e0e90606401600060405180830381600087803b1580156125b357600080fd5b505af11580156125c7573d6000803e3d6000fd5b50505050610a12565b610a128585858585612c84565b6040805160018082528183019092526060916000919060208083019080368337019050509050828160008151811061261757612617613d34565b602090810291909101015292915050565b60095473ffffffffffffffffffffffffffffffffffffffff16156127675760095473ffffffffffffffffffffffffffffffffffffffff1660005b8451811015612764578173ffffffffffffffffffffffffffffffffffffffff16631de841ba888887858151811061269b5761269b613d34565b60200260200101518986815181106126b5576126b5613d34565b60209081029190910101516040517fffffffff0000000000000000000000000000000000000000000000000000000060e087901b16815273ffffffffffffffffffffffffffffffffffffffff948516600482015293909216602484015260448301526064820152608401600060405180830381600087803b15801561273957600080fd5b505af115801561274d573d6000803e3d6000fd5b50505050808061275c90613d92565b915050612662565b50505b612118868686868686612eac565b73ffffffffffffffffffffffffffffffffffffffff84163b15612118576040517ff23a6e6100000000000000000000000000000000000000000000000000000000815273ffffffffffffffffffffffffffffffffffffffff85169063f23a6e61906127ec9089908990889088908890600401613f92565b6020604051808303816000875af1925050508015612845575060408051601f3d9081017fffffffffffffffffffffffffffffffffffffffffffffffffffffffffffffffe016820190925261284291810190613fe2565b60015b61292f57612851613fff565b806308c379a014156128a5575061286661401a565b8061287157506128a7565b806040517f08c379a000000000000000000000000000000000000000000000000000000000815260040161090291906133cd565b505b6040517f08c379a000000000000000000000000000000000000000000000000000000000815260206004820152603460248201527f455243313135353a207472616e7366657220746f206e6f6e204552433131353560448201527f526563656976657220696d706c656d656e7465720000000000000000000000006064820152608401610902565b7fffffffff0000000000000000000000000000000000000000000000000000000081167ff23a6e610000000000000000000000000000000000000000000000000000000014612a00576040517f08c379a000000000000000000000000000000000000000000000000000000000815260206004820152602860248201527f455243313135353a204552433131353552656365697665722072656a6563746560448201527f6420746f6b656e730000000000000000000000000000000000000000000000006064820152608401610902565b50505050505050565b73ffffffffffffffffffffffffffffffffffffffff84163b15612118576040517fbc197c8100000000000000000000000000000000000000000000000000000000815273ffffffffffffffffffffffffffffffffffffffff85169063bc197c8190612a8090899089908890889088906004016140c2565b6020604051808303816000875af1925050508015612ad9575060408051601f3d9081017fffffffffffffffffffffffffffffffffffffffffffffffffffffffffffffffe0168201909252612ad691810190613fe2565b60015b612ae557612851613fff565b7fffffffff0000000000000000000000000000000000000000000000000000000081167fbc197c810000000000000000000000000000000000000000000000000000000014612a00576040517f08c379a000000000000000000000000000000000000000000000000000000000815260206004820152602860248201527f455243313135353a204552433131353552656365697665722072656a6563746560448201527f6420746f6b656e730000000000000000000000000000000000000000000000006064820152608401610902565b600061138460065490565b8154600090612bd2575060006106e2565b82546000905b80821015612c2e576000612bec8383612f26565b905084868281548110612c0157612c01613d34565b90600052602060002001541115612c1a57809150612c28565b612c25816001613ee9565b92505b50612bd8565b600082118015612c6357508385612c46600185613f26565b81548110612c5657612c56613d34565b9060005260206000200154145b15612c7c57612c73600183613f26565b925050506106e2565b5090506106e2565b73ffffffffffffffffffffffffffffffffffffffff8416612d27576040517f08c379a000000000000000000000000000000000000000000000000000000000815260206004820152602560248201527f455243313135353a207472616e7366657220746f20746865207a65726f20616460448201527f64726573730000000000000000000000000000000000000000000000000000006064820152608401610902565b33612d37818787611d1f886125dd565b60008481526020818152604080832073ffffffffffffffffffffffffffffffffffffffff8a16845290915290205483811015612df5576040517f08c379a000000000000000000000000000000000000000000000000000000000815260206004820152602a60248201527f455243313135353a20696e73756666696369656e742062616c616e636520666f60448201527f72207472616e73666572000000000000000000000000000000000000000000006064820152608401610902565b60008581526020818152604080832073ffffffffffffffffffffffffffffffffffffffff8b8116855292528083208785039055908816825281208054869290612e3f908490613ee9565b9091555050604080518681526020810186905273ffffffffffffffffffffffffffffffffffffffff808916928a821692918616917fc3d58168c5ae7397731d063d5bbf3d657854427343f4c083240f7aacaa2d0f62910160405180910390a4612a00828888888888612775565b73ffffffffffffffffffffffffffffffffffffffff8516612edf57612ed18484612f48565b612eda83612fd5565b612f18565b73ffffffffffffffffffffffffffffffffffffffff8416612f0457612ed18584612f48565b612f0e8584612f48565b612f188484612f48565b612118868686868686613051565b6000612f35600284841861412d565b612f4190848416613ee9565b9392505050565b60005b81518110156119555773ffffffffffffffffffffffffffffffffffffffff831660009081526004602052604081208351612fc39290859085908110612f9257612f92613d34565b60200260200101518152602001908152602001600020612fbe85858581518110610b5357610b53613d34565b613177565b80612fcd81613d92565b915050612f4b565b60005b815181101561094c5761303f60056000848481518110612ffa57612ffa613d34565b60200260200101518152602001908152602001600020612fbe84848151811061302557613025613d34565b602002602001015160009081526003602052604090205490565b8061304981613d92565b915050612fd8565b73ffffffffffffffffffffffffffffffffffffffff85166130e55760005b83518110156130e35782818151811061308a5761308a613d34565b6020026020010151600360008684815181106130a8576130a8613d34565b6020026020010151815260200190815260200160002060008282546130cd9190613ee9565b909155506130dc905081613d92565b905061306f565b505b73ffffffffffffffffffffffffffffffffffffffff84166121185760005b8351811015612a005782818151811061311e5761311e613d34565b60200260200101516003600086848151811061313c5761313c613d34565b6020026020010151815260200190815260200160002060008282546131619190613f26565b90915550613170905081613d92565b9050613103565b6000613181612bb6565b90508061318d846131c1565b1015611955578254600180820185556000858152602080822090930193909355938401805494850181558252902090910155565b80546000906131d257506000919050565b815482906131e290600190613f26565b815481106131f2576131f2613d34565b90600052602060002001549050919050565b919050565b82805461321590613ce0565b90600052602060002090601f016020900481019282613237576000855561327d565b82601f1061325057805160ff191683800117855561327d565b8280016001018555821561327d579182015b8281111561327d578251825591602001919060010190613262565b5061328992915061328d565b5090565b5b80821115613289576000815560010161328e565b803573ffffffffffffffffffffffffffffffffffffffff8116811461320457600080fd5b600080604083850312156132d957600080fd5b6132e2836132a2565b946020939093013593505050565b7fffffffff000000000000000000000000000000000000000000000000000000008116811461331e57600080fd5b50565b60006020828403121561333357600080fd5b8135612f41816132f0565b60006020828403121561335057600080fd5b5035919050565b60005b8381101561337257818101518382015260200161335a565b8381111561166e5750506000910152565b6000815180845261339b816020860160208601613357565b601f017fffffffffffffffffffffffffffffffffffffffffffffffffffffffffffffffe0169290920160200192915050565b602081526000612f416020830184613383565b7f4e487b7100000000000000000000000000000000000000000000000000000000600052604160045260246000fd5b60a0810181811067ffffffffffffffff8211171561342f5761342f6133e0565b60405250565b7fffffffffffffffffffffffffffffffffffffffffffffffffffffffffffffffe0601f830116810181811067ffffffffffffffff82111715613479576134796133e0565b6040525050565b600082601f83011261349157600080fd5b813567ffffffffffffffff8111156134ab576134ab6133e0565b6040516134e060207fffffffffffffffffffffffffffffffffffffffffffffffffffffffffffffffe0601f8501160182613435565b8181528460208386010111156134f557600080fd5b816020850160208301376000918101602001919091529392505050565b60006020828403121561352457600080fd5b813567ffffffffffffffff81111561353b57600080fd5b61354784828501613480565b949350505050565b6000806040838503121561356257600080fd5b50508035926020909101359150565b600067ffffffffffffffff82111561358b5761358b6133e0565b5060051b60200190565b600082601f8301126135a657600080fd5b813560206135b382613571565b6040516135c08282613435565b83815260059390931b85018201928281019150868411156135e057600080fd5b8286015b848110156135fb57803583529183019183016135e4565b509695505050505050565b600080600080600060a0868803121561361e57600080fd5b613627866132a2565b9450613635602087016132a2565b9350604086013567ffffffffffffffff8082111561365257600080fd5b61365e89838a01613595565b9450606088013591508082111561367457600080fd5b61368089838a01613595565b9350608088013591508082111561369657600080fd5b506136a388828901613480565b9150509295509295909350565b600080604083850312156136c357600080fd5b823567ffffffffffffffff808211156136db57600080fd5b818501915085601f8301126136ef57600080fd5b813560206136fc82613571565b6040516137098282613435565b83815260059390931b850182019282810191508984111561372957600080fd5b948201945b8386101561374e5761373f866132a2565b8252948201949082019061372e565b9650508601359250508082111561376457600080fd5b5061377185828601613595565b9150509250929050565b600081518084526020808501945080840160005b838110156137ab5781518752958201959082019060010161378f565b509495945050505050565b602081526000612f41602083018461377b565b600080604083850312156137dc57600080fd5b823567ffffffffffffffff808211156137f457600080fd5b61380086838701613480565b9350602085013591508082111561381657600080fd5b5061377185828601613480565b60008060006060848603121561383857600080fd5b613841846132a2565b95602085013595506040909401359392505050565b600080600080600060a0868803121561386e57600080fd5b613877866132a2565b97602087013597506040870135966060810135965060800135945092505050565b86815260c0602082015260006138b160c0830188613383565b82810360408401526138c38188613383565b60608401969096525050911515608083015260a0909101529392505050565b6000806000606084860312156138f757600080fd5b505081359360208301359350604090920135919050565b6000806040838503121561392157600080fd5b61392a836132a2565b91506020830135801515811461393f57600080fd5b809150509250929050565b60008083601f84011261395c57600080fd5b50813567ffffffffffffffff81111561397457600080fd5b6020830191508360208260051b850101111561224b57600080fd5b60008083601f8401126139a157600080fd5b50813567ffffffffffffffff8111156139b957600080fd5b60208301915083602082850101111561224b57600080fd5b60008060008060008060008060a0898b0312156139ed57600080fd5b6139f6896132a2565b9750613a0460208a016132a2565b9650604089013567ffffffffffffffff80821115613a2157600080fd5b613a2d8c838d0161394a565b909850965060608b0135915080821115613a4657600080fd5b613a528c838d0161394a565b909650945060808b0135915080821115613a6b57600080fd5b50613a788b828c0161398f565b999c989b5096995094979396929594505050565b600080600060608486031215613aa157600080fd5b613aaa846132a2565b9250613ab8602085016132a2565b9150613ac6604085016132a2565b90509250925092565b60008060408385031215613ae257600080fd5b823567ffffffffffffffff80821115613afa57600080fd5b9084019060a08287031215613b0e57600080fd5b604051613b1a8161340f565b823581526020830135602082015260408301356040820152606083013582811115613b4457600080fd5b613b5088828601613480565b606083015250608083013582811115613b6857600080fd5b613b7488828601613480565b6080830152509350613b8b915050602084016132a2565b90509250929050565b60008060408385031215613ba757600080fd5b613bb0836132a2565b9150613b8b602084016132a2565b600080600060608486031215613bd357600080fd5b8335925060208401359150613ac6604085016132a2565b60008060008060008060a08789031215613c0357600080fd5b613c0c876132a2565b9550613c1a602088016132a2565b94506040870135935060608701359250608087013567ffffffffffffffff811115613c4457600080fd5b613c5089828a0161398f565b979a9699509497509295939492505050565b600080600080600060a08688031215613c7a57600080fd5b613c83866132a2565b9450613c91602087016132a2565b93506040860135925060608601359150608086013567ffffffffffffffff811115613cbb57600080fd5b6136a388828901613480565b600060208284031215613cd957600080fd5b5051919050565b600181811c90821680613cf457607f821691505b60208210811415613d2e577f4e487b7100000000000000000000000000000000000000000000000000000000600052602260045260246000fd5b50919050565b7f4e487b7100000000000000000000000000000000000000000000000000000000600052603260045260246000fd5b7f4e487b7100000000000000000000000000000000000000000000000000000000600052601160045260246000fd5b60007fffffffffffffffffffffffffffffffffffffffffffffffffffffffffffffffff821415613dc457613dc4613d63565b5060010190565b60008251613ddd818460208701613357565b9190910192915050565b600080835481600182811c915080831680613e0357607f831692505b6020808410821415613e3c577f4e487b710000000000000000000000000000000000000000000000000000000086526022600452602486fd5b818015613e505760018114613e7f57613eac565b7fffffffffffffffffffffffffffffffffffffffffffffffffffffffffffffff00861689528489019650613eac565b60008a81526020902060005b86811015613ea45781548b820152908501908301613e8b565b505084890196505b509498975050505050505050565b60008351613ecc818460208801613357565b835190830190613ee0818360208801613357565b01949350505050565b60008219821115613efc57613efc613d63565b500190565b604081526000613f14604083018561377b565b828103602084015261107d818561377b565b600082821015613f3857613f38613d63565b500390565b87815260e060208201526000613f5660e0830189613383565b8281036040840152613f688189613383565b9150508560608301528460808301528360a083015260ff831660c083015298975050505050505050565b600073ffffffffffffffffffffffffffffffffffffffff808816835280871660208401525084604083015283606083015260a06080830152613fd760a0830184613383565b979650505050505050565b600060208284031215613ff457600080fd5b8151612f41816132f0565b600060033d11156113875760046000803e5060005160e01c90565b600060443d10156140285790565b6040517ffffffffffffffffffffffffffffffffffffffffffffffffffffffffffffffffc803d016004833e81513d67ffffffffffffffff816024840111818411171561407657505050505090565b828501915081518181111561408e5750505050505090565b843d87010160208285010111156140a85750505050505090565b6140b760208286010187613435565b509095945050505050565b600073ffffffffffffffffffffffffffffffffffffffff808816835280871660208401525060a060408301526140fb60a083018661377b565b828103606084015261410d818661377b565b905082810360808401526141218185613383565b98975050505050505050565b600082614163577f4e487b7100000000000000000000000000000000000000000000000000000000600052601260045260246000fd5b50049056fe546f6b656e206d696e746564207468726f75676820766f74696e672070726f63657373a26469706673582212202b7db4140b8035dfdfb5fd38861ed42cc7d2c6365ce06c2a8c114f50176d393064736f6c634300080c0033",
  "immutableReferences": {},
  "source": "// SPDX-License-Identifier: MIT\n\npragma solidity ^0.8.0;\n\nimport \"../treasury/TreasuryCoreContract.sol\";\n\ncontract TreasuryCoreContractMock is TreasuryCoreContract {\n    constructor(address owner) TreasuryCoreContract(owner) {}\n\n    /// @dev This function is a mock function that will mint tokens of specific ids\n    // This function can be called to mimic dilution result\n    /// @param tokenId This is the id of the which is to be minted\n    /// @param tokenAmount This is the amount that is to be minted\n    function mintTokens(uint256 tokenId, uint256 tokenAmount) external {\n        // Here minting of new tokens is done. And those are sent directly into the treasury\n        _mint(\n            address(this),\n            tokenId,\n            tokenAmount,\n            \"Token minted through voting process\"\n        );\n    }\n\n    /// @dev This function is a mock function that will mint tokens of specific ids\n    // and send it to the calling user\n    /// @param tokenId This is the id of the which is to be minted\n    /// @param tokenAmount This is the amount that is to be minted\n    function mintTokensForMe(uint256 tokenId, uint256 tokenAmount) public {\n        // Here minting of new tokens is done. And those are sent directly into the treasury\n        _mint(\n            msg.sender,\n            tokenId,\n            tokenAmount,\n            \"Token minted through voting process\"\n        );\n    }\n}\n",
  "sourcePath": "/Users/a1/Desktop/Office/projects/CrowdRecords/Contracts/contracts/Mocks/TreasuryCoreContractMock.sol",
  "compiler": {
    "name": "solc",
    "version": "0.8.12+commit.f00d7308.Emscripten.clang"
  },
  "schemaVersion": "3.4.6",
  "updatedAt": "2023-04-11T15:44:43.680Z",
  "devdoc": {
    "kind": "dev",
    "methods": {
      "balanceOf(address,uint256)": {
        "details": "this function is responsible to return the balance of a token Here it has been overridden so that any request for CRD token will be redirected to the ERC20 contract of CRD token",
        "params": {
          "account": "this is the address of the user whose balance you want to check",
          "id": "this is the id of the token that is to be transferred"
        },
        "returns": {
          "_0": "balance This is the balance of the user"
        }
      },
      "balanceOfAt(address,uint256,uint256)": {
        "details": "Retrieves the balance of `account` at the time `snapshotId` was created."
      },
      "balanceOfBatch(address[],uint256[])": {
        "details": "See {IERC1155-balanceOfBatch}. Requirements: - `accounts` and `ids` must have the same length."
      },
      "createNewCommunityToken((uint256,uint256,uint256,string,string),address)": {
        "details": "This function creats new community tokens for specified record",
        "params": {
          "newTokenData": "This contains all the parameters needed to create a new community token that are",
          "userAddress": "- This is the address of the user who is the creator of the token"
        }
      },
      "createNewGovernanceToken((uint256,uint256,uint256,string,string),address)": {
        "details": "This function creates new governance tokens for specified record",
        "params": {
          "newTokenData": "This contains all the parameters needed to create a new governance token that are",
          "userAddress": "- This is the address of the user who is the creator of the token"
        }
      },
      "exists(uint256)": {
        "details": "Indicates whether any token exist with a given id, or not."
      },
      "initialize(address,address,address)": {
        "details": "This is to set the address of the contracts",
        "params": {
          "crdTokenAddress": "This is the address of CRD token contract",
          "newTreasuryAddress": "This is the address of new voting hub contract",
          "newVotingHubContract": "This is the address of new voting hub contract"
        }
      },
      "isApprovedForAll(address,address)": {
        "details": "See {IERC1155-isApprovedForAll}."
      },
      "mintTokens(uint256,uint256)": {
        "params": {
          "tokenAmount": "This is the amount that is to be minted",
          "tokenId": "This is the id of the which is to be minted"
        }
      },
      "mintTokens(uint256,uint256,uint256)": {
        "details": "This function creats new community tokens for specified record",
        "params": {
          "recordId": "This is the id of the record to which the token belongs to",
          "tokenAmount": "This is the amount that is to be minted",
          "tokenId": "This is the id of the which is to be minted"
        }
      },
      "mintTokensForMe(uint256,uint256)": {
        "params": {
          "tokenAmount": "This is the amount that is to be minted",
          "tokenId": "This is the id of the which is to be minted"
        }
      },
      "onERC1155BatchReceived(address,address,uint256[],uint256[],bytes)": {
        "details": "Handles the receipt of a multiple ERC1155 token types. This function is called at the end of a `safeBatchTransferFrom` after the balances have been updated. NOTE: To accept the transfer(s), this must return `bytes4(keccak256(\"onERC1155BatchReceived(address,address,uint256[],uint256[],bytes)\"))` (i.e. 0xbc197c81, or its own function selector).",
        "params": {
          "data": "Additional data with no specified format",
          "from": "The address which previously owned the token",
          "ids": "An array containing ids of each token being transferred (order and length must match values array)",
          "operator": "The address which initiated the batch transfer (i.e. msg.sender)",
          "values": "An array containing amounts of each token being transferred (order and length must match ids array)"
        },
        "returns": {
          "_0": "`bytes4(keccak256(\"onERC1155BatchReceived(address,address,uint256[],uint256[],bytes)\"))` if transfer is allowed"
        }
      },
      "onERC1155Received(address,address,uint256,uint256,bytes)": {
        "details": "Handles the receipt of a single ERC1155 token type. This function is called at the end of a `safeTransferFrom` after the balance has been updated. NOTE: To accept the transfer, this must return `bytes4(keccak256(\"onERC1155Received(address,address,uint256,uint256,bytes)\"))` (i.e. 0xf23a6e61, or its own function selector).",
        "params": {
          "data": "Additional data with no specified format",
          "from": "The address which previously owned the token",
          "id": "The ID of the token being transferred",
          "operator": "The address which initiated the transfer (i.e. msg.sender)",
          "value": "The amount of tokens being transferred"
        },
        "returns": {
          "_0": "`bytes4(keccak256(\"onERC1155Received(address,address,uint256,uint256,bytes)\"))` if transfer is allowed"
        }
      },
      "safeBatchTransferFrom(address,address,uint256[],uint256[],bytes)": {
        "details": "See {IERC1155-safeBatchTransferFrom}."
      },
      "safeTransferFrom(address,address,uint256,uint256,bytes)": {
        "details": "See {IERC1155-safeTransferFrom}."
      },
      "setApprovalForAll(address,bool)": {
        "details": "See {IERC1155-setApprovalForAll}."
      },
      "setSymbolsAsAvailable(string,string)": {
        "params": {
          "communitySymbol": "Symbol for community token",
          "governanceSymbol": "Symbol for governance token"
        }
      },
      "setSymbolsAsUsed(string,string)": {
        "params": {
          "communitySymbol": "Symbol for community token",
          "governanceSymbol": "Symbol for governance token"
        }
      },
      "supportsInterface(bytes4)": {
        "details": "See {IERC165-supportsInterface}."
      },
      "totalSupply(uint256)": {
        "details": "Total amount of tokens in with a given id."
      },
      "totalSupplyAt(uint256,uint256)": {
        "details": "Retrieves the total supply at the time `snapshotId` was created."
      },
      "transferRewardAmount(address,uint256,uint256,uint256,uint256)": {
        "details": "This function is called only by the voting contract once the voting ends",
        "params": {
          "contributionId": "this is the contribution id to which the user has won",
          "recordId": "This is the recordId to which the contribution belongs to",
          "rewardCommunity": "this is the amount of community token that needs to be transferred",
          "rewardGovernance": "this is the amount of Governance token that needs to be transferred",
          "to": "This is the receivers address"
        }
      },
      "transferRewardTokens(uint256,uint256,address)": {
        "details": "this function is responsible for minting of new tokens for records",
        "params": {
          "amount": "the amount that is to be minted",
          "receiver": "Id this is the tokenId that is to minted",
          "tokenId": "Id this is the tokenId that is to minted"
        }
      },
      "uri(uint256)": {
        "details": "See {IERC1155MetadataURI-uri}. This implementation returns the same URI for *all* token types. It relies on the token type ID substitution mechanism https://eips.ethereum.org/EIPS/eip-1155#metadata[defined in the EIP]. Clients calling this function must replace the `\\{id\\}` substring with the actual token type ID."
      }
    },
    "version": 1
  },
  "userdoc": {
    "kind": "user",
    "methods": {},
    "version": 1
  }
}