{
  "contractName": "TreasuryContract",
  "abi": [
    {
      "inputs": [],
      "stateMutability": "nonpayable",
      "type": "constructor"
    },
    {
      "anonymous": false,
      "inputs": [
        {
          "indexed": true,
          "internalType": "address",
          "name": "account",
          "type": "address"
        },
        {
          "indexed": true,
          "internalType": "address",
          "name": "operator",
          "type": "address"
        },
        {
          "indexed": false,
          "internalType": "bool",
          "name": "approved",
          "type": "bool"
        }
      ],
      "name": "ApprovalForAll",
      "type": "event"
    },
    {
      "anonymous": false,
      "inputs": [
        {
          "indexed": false,
          "internalType": "address",
          "name": "to",
          "type": "address"
        },
        {
          "indexed": false,
          "internalType": "uint256",
          "name": "recordId",
          "type": "uint256"
        },
        {
          "indexed": false,
          "internalType": "uint256",
          "name": "contributionId",
          "type": "uint256"
        },
        {
          "indexed": false,
          "internalType": "uint256",
          "name": "rewardGovernance",
          "type": "uint256"
        },
        {
          "indexed": false,
          "internalType": "uint256",
          "name": "rewardCommunity",
          "type": "uint256"
        }
      ],
      "name": "ContributionRewardTransfered",
      "type": "event"
    },
    {
      "anonymous": false,
      "inputs": [
        {
          "indexed": false,
          "internalType": "uint256",
          "name": "recordId",
          "type": "uint256"
        },
        {
          "indexed": false,
          "internalType": "string",
          "name": "symbol",
          "type": "string"
        },
        {
          "indexed": false,
          "internalType": "string",
          "name": "image",
          "type": "string"
        },
        {
          "indexed": false,
          "internalType": "uint256",
          "name": "creationDate",
          "type": "uint256"
        },
        {
          "indexed": false,
          "internalType": "uint256",
          "name": "tokenAmount",
          "type": "uint256"
        },
        {
          "indexed": false,
          "internalType": "uint256",
          "name": "tokenId",
          "type": "uint256"
        },
        {
          "indexed": false,
          "internalType": "uint8",
          "name": "tokenType",
          "type": "uint8"
        }
      ],
      "name": "NewTokenCreated",
      "type": "event"
    },
    {
      "anonymous": false,
      "inputs": [
        {
          "indexed": false,
          "internalType": "uint256",
          "name": "id",
          "type": "uint256"
        }
      ],
      "name": "Snapshot",
      "type": "event"
    },
    {
      "anonymous": false,
      "inputs": [
        {
          "indexed": false,
          "internalType": "uint256",
          "name": "recordId",
          "type": "uint256"
        },
        {
          "indexed": false,
          "internalType": "uint256",
          "name": "tokenId",
          "type": "uint256"
        },
        {
          "indexed": false,
          "internalType": "uint256",
          "name": "creationDate",
          "type": "uint256"
        },
        {
          "indexed": false,
          "internalType": "uint256",
          "name": "tokenAmount",
          "type": "uint256"
        }
      ],
      "name": "TokenMinted",
      "type": "event"
    },
    {
      "anonymous": false,
      "inputs": [
        {
          "indexed": false,
          "internalType": "address",
          "name": "from",
          "type": "address"
        },
        {
          "indexed": false,
          "internalType": "address",
          "name": "to",
          "type": "address"
        },
        {
          "indexed": false,
          "internalType": "uint256",
          "name": "transferDate",
          "type": "uint256"
        },
        {
          "indexed": false,
          "internalType": "uint256",
          "name": "tokenId",
          "type": "uint256"
        },
        {
          "indexed": false,
          "internalType": "uint256",
          "name": "amount",
          "type": "uint256"
        },
        {
          "indexed": false,
          "internalType": "string",
          "name": "symbol",
          "type": "string"
        }
      ],
      "name": "TokenTransfer",
      "type": "event"
    },
    {
      "anonymous": false,
      "inputs": [
        {
          "indexed": true,
          "internalType": "address",
          "name": "operator",
          "type": "address"
        },
        {
          "indexed": true,
          "internalType": "address",
          "name": "from",
          "type": "address"
        },
        {
          "indexed": true,
          "internalType": "address",
          "name": "to",
          "type": "address"
        },
        {
          "indexed": false,
          "internalType": "uint256[]",
          "name": "ids",
          "type": "uint256[]"
        },
        {
          "indexed": false,
          "internalType": "uint256[]",
          "name": "values",
          "type": "uint256[]"
        }
      ],
      "name": "TransferBatch",
      "type": "event"
    },
    {
      "anonymous": false,
      "inputs": [
        {
          "indexed": true,
          "internalType": "address",
          "name": "operator",
          "type": "address"
        },
        {
          "indexed": true,
          "internalType": "address",
          "name": "from",
          "type": "address"
        },
        {
          "indexed": true,
          "internalType": "address",
          "name": "to",
          "type": "address"
        },
        {
          "indexed": false,
          "internalType": "uint256",
          "name": "id",
          "type": "uint256"
        },
        {
          "indexed": false,
          "internalType": "uint256",
          "name": "value",
          "type": "uint256"
        }
      ],
      "name": "TransferSingle",
      "type": "event"
    },
    {
      "anonymous": false,
      "inputs": [
        {
          "indexed": false,
          "internalType": "string",
          "name": "value",
          "type": "string"
        },
        {
          "indexed": true,
          "internalType": "uint256",
          "name": "id",
          "type": "uint256"
        }
      ],
      "name": "URI",
      "type": "event"
    },
    {
      "inputs": [],
      "name": "CONTRIBUTION_VOTING_CONTRACT_ADDRESS",
      "outputs": [
        {
          "internalType": "address",
          "name": "",
          "type": "address"
        }
      ],
      "stateMutability": "view",
      "type": "function",
      "constant": true
    },
    {
      "inputs": [],
      "name": "CRD",
      "outputs": [
        {
          "internalType": "uint256",
          "name": "",
          "type": "uint256"
        }
      ],
      "stateMutability": "view",
      "type": "function",
      "constant": true
    },
    {
      "inputs": [],
      "name": "DILUTION_CONTRACT_ADDRESS",
      "outputs": [
        {
          "internalType": "address",
          "name": "",
          "type": "address"
        }
      ],
      "stateMutability": "view",
      "type": "function",
      "constant": true
    },
    {
      "inputs": [],
      "name": "RECORDS_CONTRACT_ADDRESS",
      "outputs": [
        {
          "internalType": "address",
          "name": "",
          "type": "address"
        }
      ],
      "stateMutability": "view",
      "type": "function",
      "constant": true
    },
    {
      "inputs": [],
      "name": "VOTING_HUB_ADDRESS",
      "outputs": [
        {
          "internalType": "address",
          "name": "",
          "type": "address"
        }
      ],
      "stateMutability": "view",
      "type": "function",
      "constant": true
    },
    {
      "inputs": [
        {
          "internalType": "address",
          "name": "account",
          "type": "address"
        },
        {
          "internalType": "uint256",
          "name": "id",
          "type": "uint256"
        }
      ],
      "name": "balanceOf",
      "outputs": [
        {
          "internalType": "uint256",
          "name": "",
          "type": "uint256"
        }
      ],
      "stateMutability": "view",
      "type": "function",
      "constant": true
    },
    {
      "inputs": [
        {
          "internalType": "address",
          "name": "account",
          "type": "address"
        },
        {
          "internalType": "uint256",
          "name": "snapshotId",
          "type": "uint256"
        },
        {
          "internalType": "uint256",
          "name": "tokenId",
          "type": "uint256"
        }
      ],
      "name": "balanceOfAt",
      "outputs": [
        {
          "internalType": "uint256",
          "name": "",
          "type": "uint256"
        }
      ],
      "stateMutability": "view",
      "type": "function",
      "constant": true
    },
    {
      "inputs": [
        {
          "internalType": "address[]",
          "name": "accounts",
          "type": "address[]"
        },
        {
          "internalType": "uint256[]",
          "name": "ids",
          "type": "uint256[]"
        }
      ],
      "name": "balanceOfBatch",
      "outputs": [
        {
          "internalType": "uint256[]",
          "name": "",
          "type": "uint256[]"
        }
      ],
      "stateMutability": "view",
      "type": "function",
      "constant": true
    },
    {
      "inputs": [
        {
          "internalType": "uint256",
          "name": "id",
          "type": "uint256"
        }
      ],
      "name": "exists",
      "outputs": [
        {
          "internalType": "bool",
          "name": "",
          "type": "bool"
        }
      ],
      "stateMutability": "view",
      "type": "function",
      "constant": true
    },
    {
      "inputs": [
        {
          "internalType": "address",
          "name": "account",
          "type": "address"
        },
        {
          "internalType": "address",
          "name": "operator",
          "type": "address"
        }
      ],
      "name": "isApprovedForAll",
      "outputs": [
        {
          "internalType": "bool",
          "name": "",
          "type": "bool"
        }
      ],
      "stateMutability": "view",
      "type": "function",
      "constant": true
    },
    {
      "inputs": [
        {
          "internalType": "address",
          "name": "from",
          "type": "address"
        },
        {
          "internalType": "address",
          "name": "to",
          "type": "address"
        },
        {
          "internalType": "uint256[]",
          "name": "ids",
          "type": "uint256[]"
        },
        {
          "internalType": "uint256[]",
          "name": "amounts",
          "type": "uint256[]"
        },
        {
          "internalType": "bytes",
          "name": "data",
          "type": "bytes"
        }
      ],
      "name": "safeBatchTransferFrom",
      "outputs": [],
      "stateMutability": "nonpayable",
      "type": "function"
    },
    {
      "inputs": [
        {
          "internalType": "address",
          "name": "from",
          "type": "address"
        },
        {
          "internalType": "address",
          "name": "to",
          "type": "address"
        },
        {
          "internalType": "uint256",
          "name": "id",
          "type": "uint256"
        },
        {
          "internalType": "uint256",
          "name": "amount",
          "type": "uint256"
        },
        {
          "internalType": "bytes",
          "name": "data",
          "type": "bytes"
        }
      ],
      "name": "safeTransferFrom",
      "outputs": [],
      "stateMutability": "nonpayable",
      "type": "function"
    },
    {
      "inputs": [
        {
          "internalType": "address",
          "name": "operator",
          "type": "address"
        },
        {
          "internalType": "bool",
          "name": "approved",
          "type": "bool"
        }
      ],
      "name": "setApprovalForAll",
      "outputs": [],
      "stateMutability": "nonpayable",
      "type": "function"
    },
    {
      "inputs": [],
      "name": "snap",
      "outputs": [
        {
          "internalType": "uint256",
          "name": "",
          "type": "uint256"
        }
      ],
      "stateMutability": "nonpayable",
      "type": "function"
    },
    {
      "inputs": [
        {
          "internalType": "bytes4",
          "name": "interfaceId",
          "type": "bytes4"
        }
      ],
      "name": "supportsInterface",
      "outputs": [
        {
          "internalType": "bool",
          "name": "",
          "type": "bool"
        }
      ],
      "stateMutability": "view",
      "type": "function",
      "constant": true
    },
    {
      "inputs": [
        {
          "internalType": "uint256",
          "name": "id",
          "type": "uint256"
        }
      ],
      "name": "totalSupply",
      "outputs": [
        {
          "internalType": "uint256",
          "name": "",
          "type": "uint256"
        }
      ],
      "stateMutability": "view",
      "type": "function",
      "constant": true
    },
    {
      "inputs": [
        {
          "internalType": "uint256",
          "name": "snapshotId",
          "type": "uint256"
        },
        {
          "internalType": "uint256",
          "name": "tokenId",
          "type": "uint256"
        }
      ],
      "name": "totalSupplyAt",
      "outputs": [
        {
          "internalType": "uint256",
          "name": "",
          "type": "uint256"
        }
      ],
      "stateMutability": "view",
      "type": "function",
      "constant": true
    },
    {
      "inputs": [
        {
          "internalType": "uint256",
          "name": "",
          "type": "uint256"
        }
      ],
      "name": "uri",
      "outputs": [
        {
          "internalType": "string",
          "name": "",
          "type": "string"
        }
      ],
      "stateMutability": "view",
      "type": "function",
      "constant": true
    },
    {
      "inputs": [
        {
          "internalType": "address",
          "name": "newRecordsContractAddress",
          "type": "address"
        }
      ],
      "name": "setRecordsContractAddress",
      "outputs": [],
      "stateMutability": "nonpayable",
      "type": "function"
    },
    {
      "inputs": [
        {
          "internalType": "address",
          "name": "newVotingHubContract",
          "type": "address"
        }
      ],
      "name": "setVotingHubContract",
      "outputs": [],
      "stateMutability": "nonpayable",
      "type": "function"
    },
    {
      "inputs": [
        {
          "internalType": "address",
          "name": "newDilutionContract",
          "type": "address"
        }
      ],
      "name": "setDilutionContract",
      "outputs": [],
      "stateMutability": "nonpayable",
      "type": "function"
    },
    {
      "inputs": [
        {
          "internalType": "address",
          "name": "newVotingContractAddress",
          "type": "address"
        }
      ],
      "name": "setContributionVotingContractAddress",
      "outputs": [],
      "stateMutability": "nonpayable",
      "type": "function"
    },
    {
      "inputs": [
        {
          "components": [
            {
              "internalType": "uint256",
              "name": "recordId",
              "type": "uint256"
            },
            {
              "internalType": "uint256",
              "name": "totalSupply",
              "type": "uint256"
            },
            {
              "internalType": "uint256",
              "name": "userBalance",
              "type": "uint256"
            },
            {
              "internalType": "string",
              "name": "symbol",
              "type": "string"
            },
            {
              "internalType": "string",
              "name": "image",
              "type": "string"
            }
          ],
          "internalType": "struct TreasuryContract.NewTokenData",
          "name": "newTokenData",
          "type": "tuple"
        }
      ],
      "name": "createNewGovernanceToken",
      "outputs": [
        {
          "internalType": "uint256",
          "name": "",
          "type": "uint256"
        }
      ],
      "stateMutability": "payable",
      "type": "function",
      "payable": true
    },
    {
      "inputs": [
        {
          "components": [
            {
              "internalType": "uint256",
              "name": "recordId",
              "type": "uint256"
            },
            {
              "internalType": "uint256",
              "name": "totalSupply",
              "type": "uint256"
            },
            {
              "internalType": "uint256",
              "name": "userBalance",
              "type": "uint256"
            },
            {
              "internalType": "string",
              "name": "symbol",
              "type": "string"
            },
            {
              "internalType": "string",
              "name": "image",
              "type": "string"
            }
          ],
          "internalType": "struct TreasuryContract.NewTokenData",
          "name": "newTokenData",
          "type": "tuple"
        }
      ],
      "name": "createNewCommunityToken",
      "outputs": [
        {
          "internalType": "uint256",
          "name": "",
          "type": "uint256"
        }
      ],
      "stateMutability": "payable",
      "type": "function",
      "payable": true
    },
    {
      "inputs": [
        {
          "internalType": "address",
          "name": "to",
          "type": "address"
        },
        {
          "internalType": "uint256",
          "name": "recordId",
          "type": "uint256"
        },
        {
          "internalType": "uint256",
          "name": "contributionId",
          "type": "uint256"
        },
        {
          "internalType": "uint256",
          "name": "rewardGovernance",
          "type": "uint256"
        },
        {
          "internalType": "uint256",
          "name": "rewardCommunity",
          "type": "uint256"
        }
      ],
      "name": "transferRewardAmount",
      "outputs": [],
      "stateMutability": "payable",
      "type": "function",
      "payable": true
    },
    {
      "inputs": [
        {
          "internalType": "uint256",
          "name": "recordId",
          "type": "uint256"
        }
      ],
      "name": "getCommunityTokenId",
      "outputs": [
        {
          "internalType": "uint256",
          "name": "",
          "type": "uint256"
        }
      ],
      "stateMutability": "view",
      "type": "function",
      "constant": true
    },
    {
      "inputs": [
        {
          "internalType": "uint256",
          "name": "recordId",
          "type": "uint256"
        }
      ],
      "name": "getGovernanceTokenId",
      "outputs": [
        {
          "internalType": "uint256",
          "name": "",
          "type": "uint256"
        }
      ],
      "stateMutability": "view",
      "type": "function",
      "constant": true
    },
    {
      "inputs": [
        {
          "internalType": "uint256",
          "name": "tokenId",
          "type": "uint256"
        }
      ],
      "name": "totalCirculatingSupply",
      "outputs": [
        {
          "internalType": "uint256",
          "name": "",
          "type": "uint256"
        }
      ],
      "stateMutability": "view",
      "type": "function",
      "constant": true
    },
    {
      "inputs": [],
      "name": "snapshot",
      "outputs": [
        {
          "internalType": "uint256",
          "name": "snapshotId",
          "type": "uint256"
        }
      ],
      "stateMutability": "nonpayable",
      "type": "function"
    },
    {
      "inputs": [
        {
          "internalType": "uint256",
          "name": "tokenId",
          "type": "uint256"
        },
        {
          "internalType": "uint256",
          "name": "amount",
          "type": "uint256"
        }
      ],
      "name": "mintTokens",
      "outputs": [],
      "stateMutability": "nonpayable",
      "type": "function"
    },
    {
      "inputs": [
        {
          "internalType": "uint256",
          "name": "recordId",
          "type": "uint256"
        },
        {
          "internalType": "uint256",
          "name": "tokenId",
          "type": "uint256"
        },
        {
          "internalType": "uint256",
          "name": "tokenAmount",
          "type": "uint256"
        }
      ],
      "name": "mintTokens",
      "outputs": [],
      "stateMutability": "payable",
      "type": "function",
      "payable": true
    },
    {
      "inputs": [
        {
          "internalType": "address",
          "name": "operator",
          "type": "address"
        },
        {
          "internalType": "address",
          "name": "from",
          "type": "address"
        },
        {
          "internalType": "uint256",
          "name": "id",
          "type": "uint256"
        },
        {
          "internalType": "uint256",
          "name": "value",
          "type": "uint256"
        },
        {
          "internalType": "bytes",
          "name": "data",
          "type": "bytes"
        }
      ],
      "name": "onERC1155Received",
      "outputs": [
        {
          "internalType": "bytes4",
          "name": "",
          "type": "bytes4"
        }
      ],
      "stateMutability": "nonpayable",
      "type": "function"
    },
    {
      "inputs": [
        {
          "internalType": "address",
          "name": "operator",
          "type": "address"
        },
        {
          "internalType": "address",
          "name": "from",
          "type": "address"
        },
        {
          "internalType": "uint256[]",
          "name": "ids",
          "type": "uint256[]"
        },
        {
          "internalType": "uint256[]",
          "name": "values",
          "type": "uint256[]"
        },
        {
          "internalType": "bytes",
          "name": "data",
          "type": "bytes"
        }
      ],
      "name": "onERC1155BatchReceived",
      "outputs": [
        {
          "internalType": "bytes4",
          "name": "",
          "type": "bytes4"
        }
      ],
      "stateMutability": "nonpayable",
      "type": "function"
    }
  ],
  "bytecode": "0x608060405260016007556040518060400160405280600581526020017f435244475f000000000000000000000000000000000000000000000000000000815250600d90805190602001906200005692919062000dd9565b506040518060400160405280600481526020017f4352445f00000000000000000000000000000000000000000000000000000000815250600e9080519060200190620000a492919062000dd9565b506000600f60006101000a81548160ff021916908360ff1602179055506001600f60016101000a81548160ff021916908360ff160217905550348015620000ea57600080fd5b506040518060400160405280601d81526020017f68747470733a2f2f63726f77647265636f7264732e636f6d2f7b69647d0000008152506200013281620001ce60201b60201c565b506200018733600169d3c21bcecceda10000006040518060400160405280601881526020017f68747470733a2f2f63726f77647265636f7264732e636f6d0000000000000000815250620001ea60201b60201c565b33600c60006101000a81548173ffffffffffffffffffffffffffffffffffffffff021916908373ffffffffffffffffffffffffffffffffffffffff160217905550620016cc565b8060029080519060200190620001e692919062000dd9565b5050565b600073ffffffffffffffffffffffffffffffffffffffff168473ffffffffffffffffffffffffffffffffffffffff1614156200025d576040517f08c379a0000000000000000000000000000000000000000000000000000000008152600401620002549062000f10565b60405180910390fd5b60006200026f620003af60201b60201c565b9050620002a8816000876200028a88620003b760201b60201c565b6200029b88620003b760201b60201c565b876200043860201b60201c565b8260008086815260200190815260200160002060008773ffffffffffffffffffffffffffffffffffffffff1673ffffffffffffffffffffffffffffffffffffffff168152602001908152602001600020600082825462000309919062000f6b565b925050819055508473ffffffffffffffffffffffffffffffffffffffff16600073ffffffffffffffffffffffffffffffffffffffff168273ffffffffffffffffffffffffffffffffffffffff167fc3d58168c5ae7397731d063d5bbf3d657854427343f4c083240f7aacaa2d0f6287876040516200038992919062000fd9565b60405180910390a4620003a881600087878787620005ae60201b60201c565b5050505050565b600033905090565b60606000600167ffffffffffffffff811115620003d957620003d862001006565b5b604051908082528060200260200182016040528015620004085781602001602082028036833780820191505090505b509050828160008151811062000423576200042262001035565b5b60200260200101818152505080915050919050565b600073ffffffffffffffffffffffffffffffffffffffff16600b60009054906101000a900473ffffffffffffffffffffffffffffffffffffffff1673ffffffffffffffffffffffffffffffffffffffff16146200058b576000600b60009054906101000a900473ffffffffffffffffffffffffffffffffffffffff16905060005b845181101562000588578173ffffffffffffffffffffffffffffffffffffffff16631de841ba8888878581518110620004f757620004f662001035565b5b602002602001015189868151811062000515576200051462001035565b5b60200260200101516040518563ffffffff1660e01b81526004016200053e9493929190620010a9565b600060405180830381600087803b1580156200055957600080fd5b505af11580156200056e573d6000803e3d6000fd5b5050505080806200057f90620010f6565b915050620004b9565b50505b620005a6868686868686620007a860201b620021d81760201c565b505050505050565b620005da8473ffffffffffffffffffffffffffffffffffffffff16620008af60201b6200229e1760201c565b15620007a0578373ffffffffffffffffffffffffffffffffffffffff1663f23a6e6187878686866040518663ffffffff1660e01b815260040162000623959493929190620011e8565b6020604051808303816000875af19250505080156200066257506040513d601f19601f820116820180604052508101906200065f9190620012b8565b60015b620007145762000671620012f7565b806308c379a01415620006d557506200068962001352565b80620006965750620006d7565b806040517f08c379a0000000000000000000000000000000000000000000000000000000008152600401620006cc919062001440565b60405180910390fd5b505b6040517f08c379a00000000000000000000000000000000000000000000000000000000081526004016200070b90620014da565b60405180910390fd5b63f23a6e6160e01b7bffffffffffffffffffffffffffffffffffffffffffffffffffffffff1916817bffffffffffffffffffffffffffffffffffffffffffffffffffffffff1916146200079e576040517f08c379a0000000000000000000000000000000000000000000000000000000008152600401620007959062001572565b60405180910390fd5b505b505050505050565b600073ffffffffffffffffffffffffffffffffffffffff168573ffffffffffffffffffffffffffffffffffffffff1614156200080757620007f08484620008d260201b60201c565b6200080183620009a660201b60201c565b6200088c565b600073ffffffffffffffffffffffffffffffffffffffff168473ffffffffffffffffffffffffffffffffffffffff16141562000866576200084f8584620008d260201b60201c565b6200086083620009a660201b60201c565b6200088b565b620008788584620008d260201b60201c565b6200088a8484620008d260201b60201c565b5b5b620008a786868686868662000a3b60201b620022c11760201c565b505050505050565b6000808273ffffffffffffffffffffffffffffffffffffffff163b119050919050565b60005b8151811015620009a1576200098b600460008573ffffffffffffffffffffffffffffffffffffffff1673ffffffffffffffffffffffffffffffffffffffff16815260200190815260200160002060008484815181106200093a576200093962001035565b5b602002602001015181526020019081526020016000206200097f858585815181106200096b576200096a62001035565b5b602002602001015162000bdc60201b60201c565b62000ca860201b60201c565b80806200099890620010f6565b915050620008d5565b505050565b60005b815181101562000a375762000a2160056000848481518110620009d157620009d062001035565b5b6020026020010151815260200190815260200160002062000a1584848151811062000a015762000a0062001035565b5b602002602001015162000d3460201b60201c565b62000ca860201b60201c565b808062000a2e90620010f6565b915050620009a9565b5050565b62000a5686868686868662000d5160201b6200243b1760201c565b600073ffffffffffffffffffffffffffffffffffffffff168573ffffffffffffffffffffffffffffffffffffffff16141562000b155760005b835181101562000b135782818151811062000aaf5762000aae62001035565b5b60200260200101516003600086848151811062000ad15762000ad062001035565b5b60200260200101518152602001908152602001600020600082825462000af8919062000f6b565b925050819055508062000b0b90620010f6565b905062000a8f565b505b600073ffffffffffffffffffffffffffffffffffffffff168473ffffffffffffffffffffffffffffffffffffffff16141562000bd45760005b835181101562000bd25782818151811062000b6e5762000b6d62001035565b5b60200260200101516003600086848151811062000b905762000b8f62001035565b5b60200260200101518152602001908152602001600020600082825462000bb7919062001594565b925050819055508062000bca90620010f6565b905062000b4e565b505b505050505050565b60008073ffffffffffffffffffffffffffffffffffffffff168373ffffffffffffffffffffffffffffffffffffffff16141562000c50576040517f08c379a000000000000000000000000000000000000000000000000000000000815260040162000c479062001645565b60405180910390fd5b60008083815260200190815260200160002060008473ffffffffffffffffffffffffffffffffffffffff1673ffffffffffffffffffffffffffffffffffffffff16815260200190815260200160002054905092915050565b600062000cba62000d5960201b60201c565b90508062000cd18460000162000d7760201b60201c565b101562000d2f5782600001819080600181540180825580915050600190039060005260206000200160009091909190915055826001018290806001815401808255809150506001900390600052602060002001600090919091909150555b505050565b600060036000838152602001908152602001600020549050919050565b505050505050565b600062000d72600662000dcb60201b620024431760201c565b905090565b6000808280549050141562000d90576000905062000dc6565b816001838054905062000da4919062001594565b8154811062000db85762000db762001035565b5b906000526020600020015490505b919050565b600081600001549050919050565b82805462000de79062001696565b90600052602060002090601f01602090048101928262000e0b576000855562000e57565b82601f1062000e2657805160ff191683800117855562000e57565b8280016001018555821562000e57579182015b8281111562000e5657825182559160200191906001019062000e39565b5b50905062000e66919062000e6a565b5090565b5b8082111562000e8557600081600090555060010162000e6b565b5090565b600082825260208201905092915050565b7f455243313135353a206d696e7420746f20746865207a65726f2061646472657360008201527f7300000000000000000000000000000000000000000000000000000000000000602082015250565b600062000ef860218362000e89565b915062000f058262000e9a565b604082019050919050565b6000602082019050818103600083015262000f2b8162000ee9565b9050919050565b6000819050919050565b7f4e487b7100000000000000000000000000000000000000000000000000000000600052601160045260246000fd5b600062000f788262000f32565b915062000f858362000f32565b9250827fffffffffffffffffffffffffffffffffffffffffffffffffffffffffffffffff0382111562000fbd5762000fbc62000f3c565b5b828201905092915050565b62000fd38162000f32565b82525050565b600060408201905062000ff0600083018562000fc8565b62000fff602083018462000fc8565b9392505050565b7f4e487b7100000000000000000000000000000000000000000000000000000000600052604160045260246000fd5b7f4e487b7100000000000000000000000000000000000000000000000000000000600052603260045260246000fd5b600073ffffffffffffffffffffffffffffffffffffffff82169050919050565b6000620010918262001064565b9050919050565b620010a38162001084565b82525050565b6000608082019050620010c0600083018762001098565b620010cf602083018662001098565b620010de604083018562000fc8565b620010ed606083018462000fc8565b95945050505050565b6000620011038262000f32565b91507fffffffffffffffffffffffffffffffffffffffffffffffffffffffffffffffff82141562001139576200113862000f3c565b5b600182019050919050565b600081519050919050565b600082825260208201905092915050565b60005b838110156200118057808201518184015260208101905062001163565b8381111562001190576000848401525b50505050565b6000601f19601f8301169050919050565b6000620011b48262001144565b620011c081856200114f565b9350620011d281856020860162001160565b620011dd8162001196565b840191505092915050565b600060a082019050620011ff600083018862001098565b6200120e602083018762001098565b6200121d604083018662000fc8565b6200122c606083018562000fc8565b8181036080830152620012408184620011a7565b90509695505050505050565b6000604051905090565b600080fd5b60007fffffffff0000000000000000000000000000000000000000000000000000000082169050919050565b62001292816200125b565b81146200129e57600080fd5b50565b600081519050620012b28162001287565b92915050565b600060208284031215620012d157620012d062001256565b5b6000620012e184828501620012a1565b91505092915050565b60008160e01c9050919050565b600060033d1115620013195760046000803e62001316600051620012ea565b90505b90565b620013278262001196565b810181811067ffffffffffffffff8211171562001349576200134862001006565b5b80604052505050565b600060443d10156200136457620013f1565b6200136e6200124c565b60043d036004823e80513d602482011167ffffffffffffffff8211171562001398575050620013f1565b808201805167ffffffffffffffff811115620013b85750505050620013f1565b80602083010160043d038501811115620013d7575050505050620013f1565b620013e8826020018501866200131c565b82955050505050505b90565b600081519050919050565b60006200140c82620013f4565b62001418818562000e89565b93506200142a81856020860162001160565b620014358162001196565b840191505092915050565b600060208201905081810360008301526200145c8184620013ff565b905092915050565b7f455243313135353a207472616e7366657220746f206e6f6e204552433131353560008201527f526563656976657220696d706c656d656e746572000000000000000000000000602082015250565b6000620014c260348362000e89565b9150620014cf8262001464565b604082019050919050565b60006020820190508181036000830152620014f581620014b3565b9050919050565b7f455243313135353a204552433131353552656365697665722072656a6563746560008201527f6420746f6b656e73000000000000000000000000000000000000000000000000602082015250565b60006200155a60288362000e89565b91506200156782620014fc565b604082019050919050565b600060208201905081810360008301526200158d816200154b565b9050919050565b6000620015a18262000f32565b9150620015ae8362000f32565b925082821015620015c457620015c362000f3c565b5b828203905092915050565b7f455243313135353a2062616c616e636520717565727920666f7220746865207a60008201527f65726f2061646472657373000000000000000000000000000000000000000000602082015250565b60006200162d602b8362000e89565b91506200163a82620015cf565b604082019050919050565b6000602082019050818103600083015262001660816200161e565b9050919050565b7f4e487b7100000000000000000000000000000000000000000000000000000000600052602260045260246000fd5b60006002820490506001821680620016af57607f821691505b60208210811415620016c657620016c562001667565b5b50919050565b615b2880620016dc6000396000f3fe6080604052600436106101ed5760003560e01c80638fbf353f1161010d578063bd85b039116100a0578063e6870f951161006f578063e6870f951461075c578063e6acd9b814610787578063e985e9c5146107b2578063f23a6e61146107ef578063f242432a1461082c576101ed565b8063bd85b03914610689578063cceaf625146106c6578063d6ca40a7146106f6578063dfe813eb14610733576101ed565b8063af670769116100dc578063af670769146105cd578063b875e13a146105f8578063ba19a67514610621578063bc197c811461064c576101ed565b80638fbf353f146105325780639711715a1461054e578063a22cb46514610579578063a77d38fa146105a2576101ed565b80633686804911610185578063626da06811610154578063626da0681461046c5780636d15dd2c146104a95780638388f413146104d95780638aa7a8b0146104f5576101ed565b8063368680491461039e5780634e1273f4146103c95780634f558e79146104065780636055c85514610443576101ed565b806321aa2ccf116101c157806321aa2ccf146102e65780632d4a03821461030f5780632eb2c2d61461034c57806334a7c2e714610375576101ed565b8062fdd58e146101f257806301ffc9a71461022f578063036c22ad1461026c5780630e89341c146102a9575b600080fd5b3480156101fe57600080fd5b50610219600480360381019061021491906139ec565b610855565b6040516102269190613a3b565b60405180910390f35b34801561023b57600080fd5b5061025660048036038101906102519190613aae565b61091e565b6040516102639190613af6565b60405180910390f35b34801561027857600080fd5b50610293600480360381019061028e9190613b11565b610a00565b6040516102a09190613a3b565b60405180910390f35b3480156102b557600080fd5b506102d060048036038101906102cb9190613b11565b610a29565b6040516102dd9190613bd7565b60405180910390f35b3480156102f257600080fd5b5061030d60048036038101906103089190613bf9565b610abd565b005b34801561031b57600080fd5b5061033660048036038101906103319190613b11565b610b91565b6040516103439190613a3b565b60405180910390f35b34801561035857600080fd5b50610373600480360381019061036e9190613e23565b610d68565b005b34801561038157600080fd5b5061039c60048036038101906103979190613ef2565b610e09565b005b3480156103aa57600080fd5b506103b3610ede565b6040516103c09190613f41565b60405180910390f35b3480156103d557600080fd5b506103f060048036038101906103eb919061401f565b610f04565b6040516103fd9190614155565b60405180910390f35b34801561041257600080fd5b5061042d60048036038101906104289190613b11565b61101d565b60405161043a9190613af6565b60405180910390f35b34801561044f57600080fd5b5061046a60048036038101906104659190613bf9565b611031565b005b34801561047857600080fd5b50610493600480360381019061048e9190614177565b611105565b6040516104a09190613a3b565b60405180910390f35b6104c360048036038101906104be9190614339565b611188565b6040516104d09190613a3b565b60405180910390f35b6104f360048036038101906104ee9190614382565b6114dd565b005b34801561050157600080fd5b5061051c60048036038101906105179190613ef2565b611659565b6040516105299190613a3b565b60405180910390f35b61054c600480360381019061054791906143fd565b61169d565b005b34801561055a57600080fd5b506105636118a7565b6040516105709190613a3b565b60405180910390f35b34801561058557600080fd5b506105a0600480360381019061059b919061447c565b6118b6565b005b3480156105ae57600080fd5b506105b76118cc565b6040516105c49190613a3b565b60405180910390f35b3480156105d957600080fd5b506105e26118db565b6040516105ef9190613f41565b60405180910390f35b34801561060457600080fd5b5061061f600480360381019061061a9190613bf9565b611901565b005b34801561062d57600080fd5b506106366119d5565b6040516106439190613f41565b60405180910390f35b34801561065857600080fd5b50610673600480360381019061066e919061456d565b6119fb565b6040516106809190614658565b60405180910390f35b34801561069557600080fd5b506106b060048036038101906106ab9190613b11565b611a2c565b6040516106bd9190613a3b565b60405180910390f35b6106e060048036038101906106db9190614339565b611a49565b6040516106ed9190613a3b565b60405180910390f35b34801561070257600080fd5b5061071d60048036038101906107189190613b11565b611d9e565b60405161072a9190613a3b565b60405180910390f35b34801561073f57600080fd5b5061075a60048036038101906107559190613bf9565b611f75565b005b34801561076857600080fd5b50610771612049565b60405161077e9190613f41565b60405180910390f35b34801561079357600080fd5b5061079c61206f565b6040516107a99190613a3b565b60405180910390f35b3480156107be57600080fd5b506107d960048036038101906107d49190614673565b612074565b6040516107e69190613af6565b60405180910390f35b3480156107fb57600080fd5b50610816600480360381019061081191906146b3565b612108565b6040516108239190614658565b60405180910390f35b34801561083857600080fd5b50610853600480360381019061084e919061474d565b612137565b005b60008073ffffffffffffffffffffffffffffffffffffffff168373ffffffffffffffffffffffffffffffffffffffff1614156108c6576040517f08c379a00000000000000000000000000000000000000000000000000000000081526004016108bd90614856565b60405180910390fd5b60008083815260200190815260200160002060008473ffffffffffffffffffffffffffffffffffffffff1673ffffffffffffffffffffffffffffffffffffffff16815260200190815260200160002054905092915050565b60007fd9b67a26000000000000000000000000000000000000000000000000000000007bffffffffffffffffffffffffffffffffffffffffffffffffffffffff1916827bffffffffffffffffffffffffffffffffffffffffffffffffffffffff191614806109e957507f0e89341c000000000000000000000000000000000000000000000000000000007bffffffffffffffffffffffffffffffffffffffffffffffffffffffff1916827bffffffffffffffffffffffffffffffffffffffffffffffffffffffff1916145b806109f957506109f882612451565b5b9050919050565b600080610a1e610a0f84611a2c565b610a193086610855565b6124bb565b905080915050919050565b606060028054610a38906148a5565b80601f0160208091040260200160405190810160405280929190818152602001828054610a64906148a5565b8015610ab15780601f10610a8657610100808354040283529160200191610ab1565b820191906000526020600020905b815481529060010190602001808311610a9457829003601f168201915b50505050509050919050565b600c60009054906101000a900473ffffffffffffffffffffffffffffffffffffffff1673ffffffffffffffffffffffffffffffffffffffff163373ffffffffffffffffffffffffffffffffffffffff1614610b4d576040517f08c379a0000000000000000000000000000000000000000000000000000000008152600401610b4490614949565b60405180910390fd5b80600a60006101000a81548173ffffffffffffffffffffffffffffffffffffffff021916908373ffffffffffffffffffffffffffffffffffffffff16021790555050565b600080601160008481526020019081526020016000206040518060c001604052908160008201548152602001600182018054610bcc906148a5565b80601f0160208091040260200160405190810160405280929190818152602001828054610bf8906148a5565b8015610c455780601f10610c1a57610100808354040283529160200191610c45565b820191906000526020600020905b815481529060010190602001808311610c2857829003601f168201915b50505050508152602001600282018054610c5e906148a5565b80601f0160208091040260200160405190810160405280929190818152602001828054610c8a906148a5565b8015610cd75780601f10610cac57610100808354040283529160200191610cd7565b820191906000526020600020905b815481529060010190602001808311610cba57829003601f168201915b50505050508152602001600382015481526020016004820160009054906101000a900460ff161515151581526020016005820154815250509050806080015115610d28578060a00151915050610d63565b6040517f08c379a0000000000000000000000000000000000000000000000000000000008152600401610d5a906149b5565b60405180910390fd5b919050565b610d706124d1565b73ffffffffffffffffffffffffffffffffffffffff168573ffffffffffffffffffffffffffffffffffffffff161480610db65750610db585610db06124d1565b612074565b5b610df5576040517f08c379a0000000000000000000000000000000000000000000000000000000008152600401610dec90614a47565b60405180910390fd5b610e0285858585856124d9565b5050505050565b600a60009054906101000a900473ffffffffffffffffffffffffffffffffffffffff1673ffffffffffffffffffffffffffffffffffffffff163373ffffffffffffffffffffffffffffffffffffffff1614610e99576040517f08c379a0000000000000000000000000000000000000000000000000000000008152600401610e9090614949565b60405180910390fd5b610eda3083836040518060400160405280601181526020017f4e657720746f6b656e73206d696e7465640000000000000000000000000000008152506127ed565b5050565b600b60009054906101000a900473ffffffffffffffffffffffffffffffffffffffff1681565b60608151835114610f4a576040517f08c379a0000000000000000000000000000000000000000000000000000000008152600401610f4190614ad9565b60405180910390fd5b6000835167ffffffffffffffff811115610f6757610f66613c2b565b5b604051908082528060200260200182016040528015610f955781602001602082028036833780820191505090505b50905060005b845181101561101257610fe2858281518110610fba57610fb9614af9565b5b6020026020010151858381518110610fd557610fd4614af9565b5b6020026020010151610855565b828281518110610ff557610ff4614af9565b5b6020026020010181815250508061100b90614b57565b9050610f9b565b508091505092915050565b60008061102983611a2c565b119050919050565b600c60009054906101000a900473ffffffffffffffffffffffffffffffffffffffff1673ffffffffffffffffffffffffffffffffffffffff163373ffffffffffffffffffffffffffffffffffffffff16146110c1576040517f08c379a00000000000000000000000000000000000000000000000000000000081526004016110b890614949565b60405180910390fd5b80600960006101000a81548173ffffffffffffffffffffffffffffffffffffffff021916908373ffffffffffffffffffffffffffffffffffffffff16021790555050565b600080600061116385600460008973ffffffffffffffffffffffffffffffffffffffff1673ffffffffffffffffffffffffffffffffffffffff1681526020019081526020016000206000878152602001908152602001600020612983565b915091508161117b576111768685610855565b61117d565b805b925050509392505050565b6000818060400151600282602001516111a19190614bcf565b116111e1576040517f08c379a00000000000000000000000000000000000000000000000000000000081526004016111d890614c72565b60405180910390fd5b6000600860009054906101000a900473ffffffffffffffffffffffffffffffffffffffff16905060008173ffffffffffffffffffffffffffffffffffffffff1662fdd58e3385600001516040518363ffffffff1660e01b8152600401611248929190614c92565b602060405180830381865afa158015611265573d6000803e3d6000fd5b505050506040513d601f19601f820116820180604052508101906112899190614cd0565b9050600081116112ce576040517f08c379a00000000000000000000000000000000000000000000000000000000081526004016112c590614d6f565b60405180910390fd5b6000600e6040516020016112e29190614e2e565b604051602081830303815290604052905080866060015160405160200161130a929190614ebd565b60405160208183030381529060405286606001819052505060001515601160008760000151815260200190815260200160002060040160009054906101000a900460ff16151514611390576040517f08c379a000000000000000000000000000000000000000000000000000000000815260040161138790614f53565b60405180910390fd5b60001515601386606001516040516113a89190614f73565b908152602001604051809103902060009054906101000a900460ff16151514611406576040517f08c379a00000000000000000000000000000000000000000000000000000000081526004016113fd90614ffc565b60405180910390fd5b6007600081548092919061141990614b57565b91905055506000600754905061143f8682600f60009054906101000a900460ff16612a79565b601160008860000151815260200190815260200160002060008201518160000155602082015181600101908051906020019061147c929190613869565b506040820151816002019080519060200190611499929190613869565b506060820151816003015560808201518160040160006101000a81548160ff02191690831515021790555060a0820151816005015590505080945050505050919050565b600960009054906101000a900473ffffffffffffffffffffffffffffffffffffffff1673ffffffffffffffffffffffffffffffffffffffff163373ffffffffffffffffffffffffffffffffffffffff161461156d576040517f08c379a000000000000000000000000000000000000000000000000000000000815260040161156490614949565b60405180910390fd5b61159b30600960009054906101000a900473ffffffffffffffffffffffffffffffffffffffff166001612b7c565b60008211156115d7576115d6308660106000888152602001908152602001600020600501548560405180602001604052806000815250612137565b5b600081111561161357611612308660116000888152602001908152602001600020600501548460405180602001604052806000815250612137565b5b7f95d0edb8d2174cb0f1294749b563fa9ac6c9e441ef6a0202f6e8e52028643dfd858585858560405161164a95949392919061501c565b60405180910390a15050505050565b600080600061167a8560056000878152602001908152602001600020612983565b91509150816116915761168c84611a2c565b611693565b805b9250505092915050565b600960009054906101000a900473ffffffffffffffffffffffffffffffffffffffff1673ffffffffffffffffffffffffffffffffffffffff163373ffffffffffffffffffffffffffffffffffffffff161461172d576040517f08c379a000000000000000000000000000000000000000000000000000000000815260040161172490614949565b60405180910390fd5b600115156011600085815260200190815260200160002060040160009054906101000a900460ff161515148061178a5750600115156010600085815260200190815260200160002060040160009054906101000a900460ff161515145b6117c9576040517f08c379a00000000000000000000000000000000000000000000000000000000081526004016117c0906150bb565b60405180910390fd5b81601160008581526020019081526020016000206005015414806118025750816010600085815260200190815260200160002060050154145b611841576040517f08c379a000000000000000000000000000000000000000000000000000000000815260040161183890615127565b60405180910390fd5b611865308383604051806060016040528060238152602001615ad0602391396127ed565b7f81e0b881b9c6ff93955a4a996cc01472b2cdc1a1663af072fa5ca7db7f127de28383428460405161189a9493929190615147565b60405180910390a1505050565b60006118b1612ce9565b905090565b6118c86118c16124d1565b8383612b7c565b5050565b60006118d6612ce9565b905090565b600960009054906101000a900473ffffffffffffffffffffffffffffffffffffffff1681565b600c60009054906101000a900473ffffffffffffffffffffffffffffffffffffffff1673ffffffffffffffffffffffffffffffffffffffff163373ffffffffffffffffffffffffffffffffffffffff1614611991576040517f08c379a000000000000000000000000000000000000000000000000000000000815260040161198890614949565b60405180910390fd5b80600b60006101000a81548173ffffffffffffffffffffffffffffffffffffffff021916908373ffffffffffffffffffffffffffffffffffffffff16021790555050565b600860009054906101000a900473ffffffffffffffffffffffffffffffffffffffff1681565b60007fbc197c819b3e337a6f9652dd10becd7eef83032af3b9d958d3d42f6694146621905098975050505050505050565b600060036000838152602001908152602001600020549050919050565b600081806040015160028260200151611a629190614bcf565b11611aa2576040517f08c379a0000000000000000000000000000000000000000000000000000000008152600401611a9990614c72565b60405180910390fd5b6000600860009054906101000a900473ffffffffffffffffffffffffffffffffffffffff16905060008173ffffffffffffffffffffffffffffffffffffffff1662fdd58e3385600001516040518363ffffffff1660e01b8152600401611b09929190614c92565b602060405180830381865afa158015611b26573d6000803e3d6000fd5b505050506040513d601f19601f82011682018060405250810190611b4a9190614cd0565b905060008111611b8f576040517f08c379a0000000000000000000000000000000000000000000000000000000008152600401611b8690614d6f565b60405180910390fd5b6000600d604051602001611ba39190614e2e565b6040516020818303038152906040529050808660600151604051602001611bcb929190614ebd565b60405160208183030381529060405286606001819052505060001515601060008760000151815260200190815260200160002060040160009054906101000a900460ff16151514611c51576040517f08c379a0000000000000000000000000000000000000000000000000000000008152600401611c4890614f53565b60405180910390fd5b6000151560128660600151604051611c699190614f73565b908152602001604051809103902060009054906101000a900460ff16151514611cc7576040517f08c379a0000000000000000000000000000000000000000000000000000000008152600401611cbe90614ffc565b60405180910390fd5b60076000815480929190611cda90614b57565b919050555060006007549050611d008682600f60019054906101000a900460ff16612a79565b6010600088600001518152602001908152602001600020600082015181600001556020820151816001019080519060200190611d3d929190613869565b506040820151816002019080519060200190611d5a929190613869565b506060820151816003015560808201518160040160006101000a81548160ff02191690831515021790555060a0820151816005015590505080945050505050919050565b600080601060008481526020019081526020016000206040518060c001604052908160008201548152602001600182018054611dd9906148a5565b80601f0160208091040260200160405190810160405280929190818152602001828054611e05906148a5565b8015611e525780601f10611e2757610100808354040283529160200191611e52565b820191906000526020600020905b815481529060010190602001808311611e3557829003601f168201915b50505050508152602001600282018054611e6b906148a5565b80601f0160208091040260200160405190810160405280929190818152602001828054611e97906148a5565b8015611ee45780601f10611eb957610100808354040283529160200191611ee4565b820191906000526020600020905b815481529060010190602001808311611ec757829003601f168201915b50505050508152602001600382015481526020016004820160009054906101000a900460ff161515151581526020016005820154815250509050806080015115611f35578060a00151915050611f70565b6040517f08c379a0000000000000000000000000000000000000000000000000000000008152600401611f67906149b5565b60405180910390fd5b919050565b600c60009054906101000a900473ffffffffffffffffffffffffffffffffffffffff1673ffffffffffffffffffffffffffffffffffffffff163373ffffffffffffffffffffffffffffffffffffffff1614612005576040517f08c379a0000000000000000000000000000000000000000000000000000000008152600401611ffc90614949565b60405180910390fd5b80600860006101000a81548173ffffffffffffffffffffffffffffffffffffffff021916908373ffffffffffffffffffffffffffffffffffffffff16021790555050565b600a60009054906101000a900473ffffffffffffffffffffffffffffffffffffffff1681565b600181565b6000600160008473ffffffffffffffffffffffffffffffffffffffff1673ffffffffffffffffffffffffffffffffffffffff16815260200190815260200160002060008373ffffffffffffffffffffffffffffffffffffffff1673ffffffffffffffffffffffffffffffffffffffff16815260200190815260200160002060009054906101000a900460ff16905092915050565b60007ff23a6e612e1ff4830e658fe43f4e3cb4a5f8170bd5d9e69fb5d7a7fa9e4fdf9790509695505050505050565b61213f6124d1565b73ffffffffffffffffffffffffffffffffffffffff168573ffffffffffffffffffffffffffffffffffffffff16148061218557506121848561217f6124d1565b612074565b5b6121c4576040517f08c379a00000000000000000000000000000000000000000000000000000000081526004016121bb906151fe565b60405180910390fd5b6121d18585858585612d3f565b5050505050565b600073ffffffffffffffffffffffffffffffffffffffff168573ffffffffffffffffffffffffffffffffffffffff161415612225576122178484612fc1565b6122208361307b565b612288565b600073ffffffffffffffffffffffffffffffffffffffff168473ffffffffffffffffffffffffffffffffffffffff161415612272576122648584612fc1565b61226d8361307b565b612287565b61227c8584612fc1565b6122868484612fc1565b5b5b6122968686868686866122c1565b505050505050565b6000808273ffffffffffffffffffffffffffffffffffffffff163b119050919050565b6122cf86868686868661243b565b600073ffffffffffffffffffffffffffffffffffffffff168573ffffffffffffffffffffffffffffffffffffffff1614156123815760005b835181101561237f5782818151811061232357612322614af9565b5b60200260200101516003600086848151811061234257612341614af9565b5b602002602001015181526020019081526020016000206000828254612367919061521e565b925050819055508061237890614b57565b9050612307565b505b600073ffffffffffffffffffffffffffffffffffffffff168473ffffffffffffffffffffffffffffffffffffffff1614156124335760005b8351811015612431578281815181106123d5576123d4614af9565b5b6020026020010151600360008684815181106123f4576123f3614af9565b5b6020026020010151815260200190815260200160002060008282546124199190615274565b925050819055508061242a90614b57565b90506123b9565b505b505050505050565b505050505050565b600081600001549050919050565b60007f01ffc9a7000000000000000000000000000000000000000000000000000000007bffffffffffffffffffffffffffffffffffffffffffffffffffffffff1916827bffffffffffffffffffffffffffffffffffffffffffffffffffffffff1916149050919050565b600081836124c99190615274565b905092915050565b600033905090565b815183511461251d576040517f08c379a00000000000000000000000000000000000000000000000000000000081526004016125149061531a565b60405180910390fd5b600073ffffffffffffffffffffffffffffffffffffffff168473ffffffffffffffffffffffffffffffffffffffff16141561258d576040517f08c379a0000000000000000000000000000000000000000000000000000000008152600401612584906153ac565b60405180910390fd5b60006125976124d1565b90506125a78187878787876130f6565b60005b84518110156127585760008582815181106125c8576125c7614af9565b5b6020026020010151905060008583815181106125e7576125e6614af9565b5b60200260200101519050600080600084815260200190815260200160002060008b73ffffffffffffffffffffffffffffffffffffffff1673ffffffffffffffffffffffffffffffffffffffff16815260200190815260200160002054905081811015612688576040517f08c379a000000000000000000000000000000000000000000000000000000000815260040161267f9061543e565b60405180910390fd5b81810360008085815260200190815260200160002060008c73ffffffffffffffffffffffffffffffffffffffff1673ffffffffffffffffffffffffffffffffffffffff168152602001908152602001600020819055508160008085815260200190815260200160002060008b73ffffffffffffffffffffffffffffffffffffffff1673ffffffffffffffffffffffffffffffffffffffff168152602001908152602001600020600082825461273d919061521e565b925050819055505050508061275190614b57565b90506125aa565b508473ffffffffffffffffffffffffffffffffffffffff168673ffffffffffffffffffffffffffffffffffffffff168273ffffffffffffffffffffffffffffffffffffffff167f4a39dc06d4c0dbc64b70af90fd698a233a518aa5d07e595d983b8c0526c8f7fb87876040516127cf92919061545e565b60405180910390a46127e5818787878787613250565b505050505050565b600073ffffffffffffffffffffffffffffffffffffffff168473ffffffffffffffffffffffffffffffffffffffff16141561285d576040517f08c379a000000000000000000000000000000000000000000000000000000000815260040161285490615507565b60405180910390fd5b60006128676124d1565b90506128888160008761287988613428565b61288288613428565b876130f6565b8260008086815260200190815260200160002060008773ffffffffffffffffffffffffffffffffffffffff1673ffffffffffffffffffffffffffffffffffffffff16815260200190815260200160002060008282546128e7919061521e565b925050819055508473ffffffffffffffffffffffffffffffffffffffff16600073ffffffffffffffffffffffffffffffffffffffff168273ffffffffffffffffffffffffffffffffffffffff167fc3d58168c5ae7397731d063d5bbf3d657854427343f4c083240f7aacaa2d0f628787604051612965929190615527565b60405180910390a461297c816000878787876134a2565b5050505050565b600080600084116129c9576040517f08c379a00000000000000000000000000000000000000000000000000000000081526004016129c09061559c565b60405180910390fd5b6129d161367a565b841115612a13576040517f08c379a0000000000000000000000000000000000000000000000000000000008152600401612a0a90615608565b60405180910390fd5b6000612a2b858560000161368b90919063ffffffff16565b90508360000180549050811415612a49576000809250925050612a72565b6001846001018281548110612a6157612a60614af9565b5b906000526020600020015492509250505b9250929050565b612a816138ef565b600084604001518560200151612a979190615274565b9050600085604001519050612abd308684604051806020016040528060008152506127ed565b612ad8338683604051806020016040528060008152506127ed565b60006040518060c001604052808860000151815260200188606001518152602001886080015181526020014281526020016001151581526020018781525090507f49debfc18817e7e3ec2948391bcc3a87349b3c716f7d470d223bfbf8928aa65a87600001518860600151896080015184606001518b602001518b8b604051612b679796959493929190615644565b60405180910390a18093505050509392505050565b8173ffffffffffffffffffffffffffffffffffffffff168373ffffffffffffffffffffffffffffffffffffffff161415612beb576040517f08c379a0000000000000000000000000000000000000000000000000000000008152600401612be290615733565b60405180910390fd5b80600160008573ffffffffffffffffffffffffffffffffffffffff1673ffffffffffffffffffffffffffffffffffffffff16815260200190815260200160002060008473ffffffffffffffffffffffffffffffffffffffff1673ffffffffffffffffffffffffffffffffffffffff16815260200190815260200160002060006101000a81548160ff0219169083151502179055508173ffffffffffffffffffffffffffffffffffffffff168373ffffffffffffffffffffffffffffffffffffffff167f17307eab39ab6107e8899845ad3d59bd9653f200f220920489ca2b5937696c3183604051612cdc9190613af6565b60405180910390a3505050565b6000612cf56006613765565b6000612cff61367a565b90507f8030e83b04d87bef53480e26263266d6ca66863aa8506aca6f2559d18aa1cb6781604051612d309190613a3b565b60405180910390a18091505090565b600073ffffffffffffffffffffffffffffffffffffffff168473ffffffffffffffffffffffffffffffffffffffff161415612daf576040517f08c379a0000000000000000000000000000000000000000000000000000000008152600401612da6906153ac565b60405180910390fd5b6000612db96124d1565b9050612dd9818787612dca88613428565b612dd388613428565b876130f6565b600080600086815260200190815260200160002060008873ffffffffffffffffffffffffffffffffffffffff1673ffffffffffffffffffffffffffffffffffffffff16815260200190815260200160002054905083811015612e70576040517f08c379a0000000000000000000000000000000000000000000000000000000008152600401612e679061543e565b60405180910390fd5b83810360008087815260200190815260200160002060008973ffffffffffffffffffffffffffffffffffffffff1673ffffffffffffffffffffffffffffffffffffffff168152602001908152602001600020819055508360008087815260200190815260200160002060008873ffffffffffffffffffffffffffffffffffffffff1673ffffffffffffffffffffffffffffffffffffffff1681526020019081526020016000206000828254612f25919061521e565b925050819055508573ffffffffffffffffffffffffffffffffffffffff168773ffffffffffffffffffffffffffffffffffffffff168373ffffffffffffffffffffffffffffffffffffffff167fc3d58168c5ae7397731d063d5bbf3d657854427343f4c083240f7aacaa2d0f628888604051612fa2929190615527565b60405180910390a4612fb88288888888886134a2565b50505050505050565b60005b815181101561307657613063600460008573ffffffffffffffffffffffffffffffffffffffff1673ffffffffffffffffffffffffffffffffffffffff168152602001908152602001600020600084848151811061302457613023614af9565b5b6020026020010151815260200190815260200160002061305e8585858151811061305157613050614af9565b5b6020026020010151610855565b61377b565b808061306e90614b57565b915050612fc4565b505050565b60005b81518110156130f2576130df600560008484815181106130a1576130a0614af9565b5b602002602001015181526020019081526020016000206130da8484815181106130cd576130cc614af9565b5b6020026020010151611a2c565b61377b565b80806130ea90614b57565b91505061307e565b5050565b600073ffffffffffffffffffffffffffffffffffffffff16600b60009054906101000a900473ffffffffffffffffffffffffffffffffffffffff1673ffffffffffffffffffffffffffffffffffffffff161461323a576000600b60009054906101000a900473ffffffffffffffffffffffffffffffffffffffff16905060005b8451811015613237578173ffffffffffffffffffffffffffffffffffffffff16631de841ba88888785815181106131b0576131af614af9565b5b60200260200101518986815181106131cb576131ca614af9565b5b60200260200101516040518563ffffffff1660e01b81526004016131f29493929190615753565b600060405180830381600087803b15801561320c57600080fd5b505af1158015613220573d6000803e3d6000fd5b50505050808061322f90614b57565b915050613176565b50505b6132488686868686866121d8565b505050505050565b61326f8473ffffffffffffffffffffffffffffffffffffffff1661229e565b15613420578373ffffffffffffffffffffffffffffffffffffffff1663bc197c8187878686866040518663ffffffff1660e01b81526004016132b59594939291906157e2565b6020604051808303816000875af19250505080156132f157506040513d601f19601f820116820180604052508101906132ee919061585f565b60015b613397576132fd615899565b806308c379a0141561335a57506133126158bb565b8061331d575061335c565b806040517f08c379a00000000000000000000000000000000000000000000000000000000081526004016133519190613bd7565b60405180910390fd5b505b6040517f08c379a000000000000000000000000000000000000000000000000000000000815260040161338e906159c3565b60405180910390fd5b63bc197c8160e01b7bffffffffffffffffffffffffffffffffffffffffffffffffffffffff1916817bffffffffffffffffffffffffffffffffffffffffffffffffffffffff19161461341e576040517f08c379a000000000000000000000000000000000000000000000000000000000815260040161341590615a55565b60405180910390fd5b505b505050505050565b60606000600167ffffffffffffffff81111561344757613446613c2b565b5b6040519080825280602002602001820160405280156134755781602001602082028036833780820191505090505b509050828160008151811061348d5761348c614af9565b5b60200260200101818152505080915050919050565b6134c18473ffffffffffffffffffffffffffffffffffffffff1661229e565b15613672578373ffffffffffffffffffffffffffffffffffffffff1663f23a6e6187878686866040518663ffffffff1660e01b8152600401613507959493929190615a75565b6020604051808303816000875af192505050801561354357506040513d601f19601f82011682018060405250810190613540919061585f565b60015b6135e95761354f615899565b806308c379a014156135ac57506135646158bb565b8061356f57506135ae565b806040517f08c379a00000000000000000000000000000000000000000000000000000000081526004016135a39190613bd7565b60405180910390fd5b505b6040517f08c379a00000000000000000000000000000000000000000000000000000000081526004016135e0906159c3565b60405180910390fd5b63f23a6e6160e01b7bffffffffffffffffffffffffffffffffffffffffffffffffffffffff1916817bffffffffffffffffffffffffffffffffffffffffffffffffffffffff191614613670576040517f08c379a000000000000000000000000000000000000000000000000000000000815260040161366790615a55565b60405180910390fd5b505b505050505050565b60006136866006612443565b905090565b600080838054905014156136a2576000905061375f565b600080848054905090505b808210156137065760006136c183836137f6565b9050848682815481106136d7576136d6614af9565b5b906000526020600020015411156136f057809150613700565b6001816136fd919061521e565b92505b506136ad565b60008211801561373e575083856001846137209190615274565b8154811061373157613730614af9565b5b9060005260206000200154145b15613759576001826137509190615274565b9250505061375f565b81925050505b92915050565b6001816000016000828254019250508190555050565b600061378561367a565b9050806137948460000161381c565b10156137f15782600001819080600181540180825580915050600190039060005260206000200160009091909190915055826001018290806001815401808255809150506001900390600052602060002001600090919091909150555b505050565b600060028284186138079190614bcf565b828416613814919061521e565b905092915050565b600080828054905014156138335760009050613864565b81600183805490506138459190615274565b8154811061385657613855614af9565b5b906000526020600020015490505b919050565b828054613875906148a5565b90600052602060002090601f01602090048101928261389757600085556138de565b82601f106138b057805160ff19168380011785556138de565b828001600101855582156138de579182015b828111156138dd5782518255916020019190600101906138c2565b5b5090506138eb9190613927565b5090565b6040518060c0016040528060008152602001606081526020016060815260200160008152602001600015158152602001600081525090565b5b80821115613940576000816000905550600101613928565b5090565b6000604051905090565b600080fd5b600080fd5b600073ffffffffffffffffffffffffffffffffffffffff82169050919050565b600061398382613958565b9050919050565b61399381613978565b811461399e57600080fd5b50565b6000813590506139b08161398a565b92915050565b6000819050919050565b6139c9816139b6565b81146139d457600080fd5b50565b6000813590506139e6816139c0565b92915050565b60008060408385031215613a0357613a0261394e565b5b6000613a11858286016139a1565b9250506020613a22858286016139d7565b9150509250929050565b613a35816139b6565b82525050565b6000602082019050613a506000830184613a2c565b92915050565b60007fffffffff0000000000000000000000000000000000000000000000000000000082169050919050565b613a8b81613a56565b8114613a9657600080fd5b50565b600081359050613aa881613a82565b92915050565b600060208284031215613ac457613ac361394e565b5b6000613ad284828501613a99565b91505092915050565b60008115159050919050565b613af081613adb565b82525050565b6000602082019050613b0b6000830184613ae7565b92915050565b600060208284031215613b2757613b2661394e565b5b6000613b35848285016139d7565b91505092915050565b600081519050919050565b600082825260208201905092915050565b60005b83811015613b78578082015181840152602081019050613b5d565b83811115613b87576000848401525b50505050565b6000601f19601f8301169050919050565b6000613ba982613b3e565b613bb38185613b49565b9350613bc3818560208601613b5a565b613bcc81613b8d565b840191505092915050565b60006020820190508181036000830152613bf18184613b9e565b905092915050565b600060208284031215613c0f57613c0e61394e565b5b6000613c1d848285016139a1565b91505092915050565b600080fd5b7f4e487b7100000000000000000000000000000000000000000000000000000000600052604160045260246000fd5b613c6382613b8d565b810181811067ffffffffffffffff82111715613c8257613c81613c2b565b5b80604052505050565b6000613c95613944565b9050613ca18282613c5a565b919050565b600067ffffffffffffffff821115613cc157613cc0613c2b565b5b602082029050602081019050919050565b600080fd5b6000613cea613ce584613ca6565b613c8b565b90508083825260208201905060208402830185811115613d0d57613d0c613cd2565b5b835b81811015613d365780613d2288826139d7565b845260208401935050602081019050613d0f565b5050509392505050565b600082601f830112613d5557613d54613c26565b5b8135613d65848260208601613cd7565b91505092915050565b600080fd5b600067ffffffffffffffff821115613d8e57613d8d613c2b565b5b613d9782613b8d565b9050602081019050919050565b82818337600083830152505050565b6000613dc6613dc184613d73565b613c8b565b905082815260208101848484011115613de257613de1613d6e565b5b613ded848285613da4565b509392505050565b600082601f830112613e0a57613e09613c26565b5b8135613e1a848260208601613db3565b91505092915050565b600080600080600060a08688031215613e3f57613e3e61394e565b5b6000613e4d888289016139a1565b9550506020613e5e888289016139a1565b945050604086013567ffffffffffffffff811115613e7f57613e7e613953565b5b613e8b88828901613d40565b935050606086013567ffffffffffffffff811115613eac57613eab613953565b5b613eb888828901613d40565b925050608086013567ffffffffffffffff811115613ed957613ed8613953565b5b613ee588828901613df5565b9150509295509295909350565b60008060408385031215613f0957613f0861394e565b5b6000613f17858286016139d7565b9250506020613f28858286016139d7565b9150509250929050565b613f3b81613978565b82525050565b6000602082019050613f566000830184613f32565b92915050565b600067ffffffffffffffff821115613f7757613f76613c2b565b5b602082029050602081019050919050565b6000613f9b613f9684613f5c565b613c8b565b90508083825260208201905060208402830185811115613fbe57613fbd613cd2565b5b835b81811015613fe75780613fd388826139a1565b845260208401935050602081019050613fc0565b5050509392505050565b600082601f83011261400657614005613c26565b5b8135614016848260208601613f88565b91505092915050565b600080604083850312156140365761403561394e565b5b600083013567ffffffffffffffff81111561405457614053613953565b5b61406085828601613ff1565b925050602083013567ffffffffffffffff81111561408157614080613953565b5b61408d85828601613d40565b9150509250929050565b600081519050919050565b600082825260208201905092915050565b6000819050602082019050919050565b6140cc816139b6565b82525050565b60006140de83836140c3565b60208301905092915050565b6000602082019050919050565b600061410282614097565b61410c81856140a2565b9350614117836140b3565b8060005b8381101561414857815161412f88826140d2565b975061413a836140ea565b92505060018101905061411b565b5085935050505092915050565b6000602082019050818103600083015261416f81846140f7565b905092915050565b6000806000606084860312156141905761418f61394e565b5b600061419e868287016139a1565b93505060206141af868287016139d7565b92505060406141c0868287016139d7565b9150509250925092565b600080fd5b600080fd5b600067ffffffffffffffff8211156141ef576141ee613c2b565b5b6141f882613b8d565b9050602081019050919050565b6000614218614213846141d4565b613c8b565b90508281526020810184848401111561423457614233613d6e565b5b61423f848285613da4565b509392505050565b600082601f83011261425c5761425b613c26565b5b813561426c848260208601614205565b91505092915050565b600060a0828403121561428b5761428a6141ca565b5b61429560a0613c8b565b905060006142a5848285016139d7565b60008301525060206142b9848285016139d7565b60208301525060406142cd848285016139d7565b604083015250606082013567ffffffffffffffff8111156142f1576142f06141cf565b5b6142fd84828501614247565b606083015250608082013567ffffffffffffffff811115614321576143206141cf565b5b61432d84828501614247565b60808301525092915050565b60006020828403121561434f5761434e61394e565b5b600082013567ffffffffffffffff81111561436d5761436c613953565b5b61437984828501614275565b91505092915050565b600080600080600060a0868803121561439e5761439d61394e565b5b60006143ac888289016139a1565b95505060206143bd888289016139d7565b94505060406143ce888289016139d7565b93505060606143df888289016139d7565b92505060806143f0888289016139d7565b9150509295509295909350565b6000806000606084860312156144165761441561394e565b5b6000614424868287016139d7565b9350506020614435868287016139d7565b9250506040614446868287016139d7565b9150509250925092565b61445981613adb565b811461446457600080fd5b50565b60008135905061447681614450565b92915050565b600080604083850312156144935761449261394e565b5b60006144a1858286016139a1565b92505060206144b285828601614467565b9150509250929050565b600080fd5b60008083601f8401126144d7576144d6613c26565b5b8235905067ffffffffffffffff8111156144f4576144f36144bc565b5b6020830191508360208202830111156145105761450f613cd2565b5b9250929050565b60008083601f84011261452d5761452c613c26565b5b8235905067ffffffffffffffff81111561454a576145496144bc565b5b60208301915083600182028301111561456657614565613cd2565b5b9250929050565b60008060008060008060008060a0898b03121561458d5761458c61394e565b5b600061459b8b828c016139a1565b98505060206145ac8b828c016139a1565b975050604089013567ffffffffffffffff8111156145cd576145cc613953565b5b6145d98b828c016144c1565b9650965050606089013567ffffffffffffffff8111156145fc576145fb613953565b5b6146088b828c016144c1565b9450945050608089013567ffffffffffffffff81111561462b5761462a613953565b5b6146378b828c01614517565b92509250509295985092959890939650565b61465281613a56565b82525050565b600060208201905061466d6000830184614649565b92915050565b6000806040838503121561468a5761468961394e565b5b6000614698858286016139a1565b92505060206146a9858286016139a1565b9150509250929050565b60008060008060008060a087890312156146d0576146cf61394e565b5b60006146de89828a016139a1565b96505060206146ef89828a016139a1565b955050604061470089828a016139d7565b945050606061471189828a016139d7565b935050608087013567ffffffffffffffff81111561473257614731613953565b5b61473e89828a01614517565b92509250509295509295509295565b600080600080600060a086880312156147695761476861394e565b5b6000614777888289016139a1565b9550506020614788888289016139a1565b9450506040614799888289016139d7565b93505060606147aa888289016139d7565b925050608086013567ffffffffffffffff8111156147cb576147ca613953565b5b6147d788828901613df5565b9150509295509295909350565b7f455243313135353a2062616c616e636520717565727920666f7220746865207a60008201527f65726f2061646472657373000000000000000000000000000000000000000000602082015250565b6000614840602b83613b49565b915061484b826147e4565b604082019050919050565b6000602082019050818103600083015261486f81614833565b9050919050565b7f4e487b7100000000000000000000000000000000000000000000000000000000600052602260045260246000fd5b600060028204905060018216806148bd57607f821691505b602082108114156148d1576148d0614876565b5b50919050565b7f596f7520617265206e6f7420617574686f72697a656420666f7220746869732060008201527f616374696f6e0000000000000000000000000000000000000000000000000000602082015250565b6000614933602683613b49565b915061493e826148d7565b604082019050919050565b6000602082019050818103600083015261496281614926565b9050919050565b7f496e76616c6964207265636f7264206964000000000000000000000000000000600082015250565b600061499f601183613b49565b91506149aa82614969565b602082019050919050565b600060208201905081810360008301526149ce81614992565b9050919050565b7f455243313135353a207472616e736665722063616c6c6572206973206e6f742060008201527f6f776e6572206e6f7220617070726f7665640000000000000000000000000000602082015250565b6000614a31603283613b49565b9150614a3c826149d5565b604082019050919050565b60006020820190508181036000830152614a6081614a24565b9050919050565b7f455243313135353a206163636f756e747320616e6420696473206c656e67746860008201527f206d69736d617463680000000000000000000000000000000000000000000000602082015250565b6000614ac3602983613b49565b9150614ace82614a67565b604082019050919050565b60006020820190508181036000830152614af281614ab6565b9050919050565b7f4e487b7100000000000000000000000000000000000000000000000000000000600052603260045260246000fd5b7f4e487b7100000000000000000000000000000000000000000000000000000000600052601160045260246000fd5b6000614b62826139b6565b91507fffffffffffffffffffffffffffffffffffffffffffffffffffffffffffffffff821415614b9557614b94614b28565b5b600182019050919050565b7f4e487b7100000000000000000000000000000000000000000000000000000000600052601260045260246000fd5b6000614bda826139b6565b9150614be5836139b6565b925082614bf557614bf4614ba0565b5b828204905092915050565b7f54726561737572792073686f756c642068617665206174206c6561737420353060008201527f25206f662074686520746f74616c20737570706c790000000000000000000000602082015250565b6000614c5c603583613b49565b9150614c6782614c00565b604082019050919050565b60006020820190508181036000830152614c8b81614c4f565b9050919050565b6000604082019050614ca76000830185613f32565b614cb46020830184613a2c565b9392505050565b600081519050614cca816139c0565b92915050565b600060208284031215614ce657614ce561394e565b5b6000614cf484828501614cbb565b91505092915050565b7f596f7520617265206e6f7420746865206f776e6572206f66207468652072656360008201527f6f72640000000000000000000000000000000000000000000000000000000000602082015250565b6000614d59602383613b49565b9150614d6482614cfd565b604082019050919050565b60006020820190508181036000830152614d8881614d4c565b9050919050565b600081905092915050565b60008190508160005260206000209050919050565b60008154614dbc816148a5565b614dc68186614d8f565b94506001821660008114614de15760018114614df257614e25565b60ff19831686528186019350614e25565b614dfb85614d9a565b60005b83811015614e1d57815481890152600182019150602081019050614dfe565b838801955050505b50505092915050565b6000614e3a8284614daf565b915081905092915050565b600081519050919050565b600081905092915050565b6000614e6682614e45565b614e708185614e50565b9350614e80818560208601613b5a565b80840191505092915050565b6000614e9782613b3e565b614ea18185614d8f565b9350614eb1818560208601613b5a565b80840191505092915050565b6000614ec98285614e5b565b9150614ed58284614e8c565b91508190509392505050565b7f476f7665726e616e636520746f6b656e20666f72207468697320696420616c7260008201527f656164792070726573656e740000000000000000000000000000000000000000602082015250565b6000614f3d602c83613b49565b9150614f4882614ee1565b604082019050919050565b60006020820190508181036000830152614f6c81614f30565b9050919050565b6000614f7f8284614e8c565b915081905092915050565b7f476f7665726e616e636520746f6b656e207769746820746869732053594d424f60008201527f4c20616c72656164792070726573656e74000000000000000000000000000000602082015250565b6000614fe6603183613b49565b9150614ff182614f8a565b604082019050919050565b6000602082019050818103600083015261501581614fd9565b9050919050565b600060a0820190506150316000830188613f32565b61503e6020830187613a2c565b61504b6040830186613a2c565b6150586060830185613a2c565b6150656080830184613a2c565b9695505050505050565b7f496e76616c6964207265636f7264200000000000000000000000000000000000600082015250565b60006150a5600f83613b49565b91506150b08261506f565b602082019050919050565b600060208201905081810360008301526150d481615098565b9050919050565b7f496e76616c696420746f6b656e73000000000000000000000000000000000000600082015250565b6000615111600e83613b49565b915061511c826150db565b602082019050919050565b6000602082019050818103600083015261514081615104565b9050919050565b600060808201905061515c6000830187613a2c565b6151696020830186613a2c565b6151766040830185613a2c565b6151836060830184613a2c565b95945050505050565b7f455243313135353a2063616c6c6572206973206e6f74206f776e6572206e6f7260008201527f20617070726f7665640000000000000000000000000000000000000000000000602082015250565b60006151e8602983613b49565b91506151f38261518c565b604082019050919050565b60006020820190508181036000830152615217816151db565b9050919050565b6000615229826139b6565b9150615234836139b6565b9250827fffffffffffffffffffffffffffffffffffffffffffffffffffffffffffffffff0382111561526957615268614b28565b5b828201905092915050565b600061527f826139b6565b915061528a836139b6565b92508282101561529d5761529c614b28565b5b828203905092915050565b7f455243313135353a2069647320616e6420616d6f756e7473206c656e6774682060008201527f6d69736d61746368000000000000000000000000000000000000000000000000602082015250565b6000615304602883613b49565b915061530f826152a8565b604082019050919050565b60006020820190508181036000830152615333816152f7565b9050919050565b7f455243313135353a207472616e7366657220746f20746865207a65726f20616460008201527f6472657373000000000000000000000000000000000000000000000000000000602082015250565b6000615396602583613b49565b91506153a18261533a565b604082019050919050565b600060208201905081810360008301526153c581615389565b9050919050565b7f455243313135353a20696e73756666696369656e742062616c616e636520666f60008201527f72207472616e7366657200000000000000000000000000000000000000000000602082015250565b6000615428602a83613b49565b9150615433826153cc565b604082019050919050565b600060208201905081810360008301526154578161541b565b9050919050565b6000604082019050818103600083015261547881856140f7565b9050818103602083015261548c81846140f7565b90509392505050565b7f455243313135353a206d696e7420746f20746865207a65726f2061646472657360008201527f7300000000000000000000000000000000000000000000000000000000000000602082015250565b60006154f1602183613b49565b91506154fc82615495565b604082019050919050565b60006020820190508181036000830152615520816154e4565b9050919050565b600060408201905061553c6000830185613a2c565b6155496020830184613a2c565b9392505050565b7f4552433230536e617073686f743a206964206973203000000000000000000000600082015250565b6000615586601683613b49565b915061559182615550565b602082019050919050565b600060208201905081810360008301526155b581615579565b9050919050565b7f4552433230536e617073686f743a206e6f6e6578697374656e74206964000000600082015250565b60006155f2601d83613b49565b91506155fd826155bc565b602082019050919050565b60006020820190508181036000830152615621816155e5565b9050919050565b600060ff82169050919050565b61563e81615628565b82525050565b600060e082019050615659600083018a613a2c565b818103602083015261566b8189613b9e565b9050818103604083015261567f8188613b9e565b905061568e6060830187613a2c565b61569b6080830186613a2c565b6156a860a0830185613a2c565b6156b560c0830184615635565b98975050505050505050565b7f455243313135353a2073657474696e6720617070726f76616c2073746174757360008201527f20666f722073656c660000000000000000000000000000000000000000000000602082015250565b600061571d602983613b49565b9150615728826156c1565b604082019050919050565b6000602082019050818103600083015261574c81615710565b9050919050565b60006080820190506157686000830187613f32565b6157756020830186613f32565b6157826040830185613a2c565b61578f6060830184613a2c565b95945050505050565b600082825260208201905092915050565b60006157b482614e45565b6157be8185615798565b93506157ce818560208601613b5a565b6157d781613b8d565b840191505092915050565b600060a0820190506157f76000830188613f32565b6158046020830187613f32565b818103604083015261581681866140f7565b9050818103606083015261582a81856140f7565b9050818103608083015261583e81846157a9565b90509695505050505050565b60008151905061585981613a82565b92915050565b6000602082840312156158755761587461394e565b5b60006158838482850161584a565b91505092915050565b60008160e01c9050919050565b600060033d11156158b85760046000803e6158b560005161588c565b90505b90565b600060443d10156158cb5761594e565b6158d3613944565b60043d036004823e80513d602482011167ffffffffffffffff821117156158fb57505061594e565b808201805167ffffffffffffffff811115615919575050505061594e565b80602083010160043d03850181111561593657505050505061594e565b61594582602001850186613c5a565b82955050505050505b90565b7f455243313135353a207472616e7366657220746f206e6f6e204552433131353560008201527f526563656976657220696d706c656d656e746572000000000000000000000000602082015250565b60006159ad603483613b49565b91506159b882615951565b604082019050919050565b600060208201905081810360008301526159dc816159a0565b9050919050565b7f455243313135353a204552433131353552656365697665722072656a6563746560008201527f6420746f6b656e73000000000000000000000000000000000000000000000000602082015250565b6000615a3f602883613b49565b9150615a4a826159e3565b604082019050919050565b60006020820190508181036000830152615a6e81615a32565b9050919050565b600060a082019050615a8a6000830188613f32565b615a976020830187613f32565b615aa46040830186613a2c565b615ab16060830185613a2c565b8181036080830152615ac381846157a9565b9050969550505050505056fe546f6b656e206d696e746564207468726f75676820766f74696e672070726f63657373a2646970667358221220d0b002e64b0b3341201d4503599b85bfb2eddaef754283c466bbb0374055e89464736f6c634300080c0033",
  "immutableReferences": {},
  "source": "pragma solidity ^0.8.0;\n\nimport \"@openzeppelin/contracts/token/ERC1155/ERC1155.sol\";\nimport \"@openzeppelin/contracts/token/ERC1155/IERC1155Receiver.sol\";\nimport \"@openzeppelin/contracts/token/ERC1155/extensions/ERC1155Supply.sol\";\nimport \"@openzeppelin/contracts/utils/Counters.sol\";\nimport \"@openzeppelin/contracts/access/Ownable.sol\";\nimport \"./RecordsContract.sol\";\nimport \"./ERC1155/SnapshotERC1155.sol\";\nimport \"@openzeppelin/contracts/utils/math/SafeMath.sol\";\n\nimport \"./voting/VotingHubContract.sol\";\n\n// ERC 20 balance[adress] => 2 contracts // governance and comunity\n// ERC 721 blance[adress] => 1 contract // records\n// ERC 1155\n\ncontract TreasuryContract is IERC1155Receiver, SnapshotERC1155 {\n    uint256 public constant CRD = 1;\n    uint256 private LastTokenId = 1;\n    address public RECORDS_CONTRACT_ADDRESS;\n    address public CONTRIBUTION_VOTING_CONTRACT_ADDRESS;\n    address public DILUTION_CONTRACT_ADDRESS;\n    address public VOTING_HUB_ADDRESS;\n    address OWNER;\n    string private PREFIX_GOVERNANCE = \"CRDG_\";\n    string private PREFIX_COMMUNITY = \"CRD_\";\n    uint8 private TOKEN_TYPE_COMMUNITY = 0;\n    uint8 private TOKEN_TYPE_GOVERNANCE = 1;\n\n    struct Token {\n        uint256 recordId;\n        string symbol;\n        string image;\n        uint256 creationDate;\n        bool isPresent;\n        uint256 tokenId;\n    }\n\n    struct NewTokenData {\n        uint256 recordId;\n        uint256 totalSupply;\n        uint256 userBalance;\n        string symbol;\n        string image;\n    }\n\n    /**\n        @dev this is event which is created when a token transfer takes place\n        @param from This is the address of sender \n        @param to This is the address of reciver \n        @param transferDate This is the date of the transfer\n        @param tokenId This is the id of the token that is being transfered \n        @param amount This is the amount of token transfered \n        @param symbol This is the symbol of the token that were transfered\n     */\n    event TokenTransfer(\n        address from,\n        address to,\n        uint256 transferDate,\n        uint256 tokenId,\n        uint256 amount,\n        string symbol\n    );\n\n    /**\n        @dev this is event which is created when new governance token is created (NEW CREATION Not MINITING)\n        @param recordId This is the record Id to which this token belongs to \n        @param symbol This is the symbol of the governance token\n        @param image This is the image of the token \n        @param creationDate This is the creation date of the token \n        @param tokenAmount This is the amount of token that are created \n        @param tokenId This is the id of token that is newly created tokens \n        @param tokenType This is the type of the token that is created => For governance 1 and for copyright 0  \n      */\n    event NewTokenCreated(\n        uint256 recordId,\n        string symbol,\n        string image,\n        uint256 creationDate,\n        uint256 tokenAmount,\n        uint256 tokenId,\n        uint8 tokenType\n    );\n\n    /**\n        @dev this is event which is created when new governance token is minted after the voting is done\n        @param recordId This is the record Id to which this token belongs to \n        @param creationDate This is the creation date of the token \n        @param tokenAmount This is the amount of token that are created \n        @param tokenId This is the id of token that is newly created tokens \n      */\n    event TokenMinted(\n        uint256 recordId,\n        uint256 tokenId,\n        uint256 creationDate,\n        uint256 tokenAmount\n    );\n\n    /**\n        @dev this is event which is genrated when a contribution voting has came to an end and the contribution is accepted\n        @param to This the address of the winner or the owner of the contribution \n        @param recordId This is the id of the record to which this contribution relates to \n        @param contributionId This is the id of the contribution to which the record is related to \n        @param rewardGovernance The reward amount for governance tokens \n        @param rewardCommunity The reward amount for comunity tokens\n     */\n    event ContributionRewardTransfered(\n        address to,\n        uint256 recordId,\n        uint256 contributionId,\n        uint256 rewardGovernance,\n        uint256 rewardCommunity\n    );\n\n    mapping(uint256 => Token) govTokenMapping;\n    mapping(uint256 => Token) commTokenMapping;\n\n    mapping(string => bool) govTokenSym;\n    mapping(string => bool) commTokenSym;\n\n    // By default URI to crowdrecords domain\n    // 18 decimal points supported\n    constructor() ERC1155(\"https://crowdrecords.com/{id}\") {\n        _mint(msg.sender, CRD, 1000000 * 10**18, \"https://crowdrecords.com\");\n        OWNER = msg.sender;\n    }\n\n    /**\n     * @dev Modifier to check that the person who accesses a specific function is the owner of contract himself.\n     */\n    modifier ownerOnly() {\n        require(msg.sender == OWNER, \"You are not authorized for this action\");\n        _;\n    }\n\n    /**\n     * @dev Modifier to check if the sender is authorized to create tokens for this record.\n     */\n    modifier canCreateToken(NewTokenData memory newTokenData) {\n        require(\n            newTokenData.totalSupply / 2 > newTokenData.userBalance,\n            \"Treasury should have at least 50% of the total supply\"\n        );\n\n        RecordsContract recordsContract = RecordsContract(\n            RECORDS_CONTRACT_ADDRESS\n        );\n\n        uint256 balance = recordsContract.balanceOf(\n            msg.sender,\n            newTokenData.recordId\n        );\n\n        require(balance > 0, \"You are not the owner of the record\");\n        _;\n    }\n\n    /**\n     * @dev Modifier to check that if the sender is the voting contract or not.\n     */\n    modifier onlyContributionVotingContract() {\n        require(\n            msg.sender == CONTRIBUTION_VOTING_CONTRACT_ADDRESS,\n            \"You are not authorized for this action\"\n        );\n        _;\n    }\n\n    /**\n     * @dev Modifier to check that if the sender is the dilution contract or not.\n     */\n    modifier onlyDilutionContract() {\n        require(\n            msg.sender == DILUTION_CONTRACT_ADDRESS,\n            \"You are not authorized for this action\"\n        );\n        _;\n    }\n\n    /**\n     * @dev This function sets the Records Contract address\n     */\n    function setRecordsContractAddress(address newRecordsContractAddress)\n        public\n        ownerOnly\n    {\n        RECORDS_CONTRACT_ADDRESS = newRecordsContractAddress;\n    }\n\n    /**\n     * @dev This function sets the Records Contract address\n     */\n    function setVotingHubContract(address newVotingHubContract)\n        public\n        ownerOnly\n    {\n        VOTING_HUB_ADDRESS = newVotingHubContract;\n    }\n\n    /**\n     * @dev This function sets the dilution Contract address\n     */\n    function setDilutionContract(address newDilutionContract) public ownerOnly {\n        DILUTION_CONTRACT_ADDRESS = newDilutionContract;\n    }\n\n    /**\n     * @dev This function sets the Voting Contract address\n     */\n    function setContributionVotingContractAddress(\n        address newVotingContractAddress\n    ) public ownerOnly {\n        CONTRIBUTION_VOTING_CONTRACT_ADDRESS = newVotingContractAddress;\n    }\n\n    /**\n     * @dev This function creats new governance tokens for specified record\n     * @param newTokenData This contains all the parameters needed to create a new governance token that are\n     * - recordId This is the recordId that for new token\n     * - totalSupply This is the total supply of governance token\n     * - userBalance This is the amount of tokens that user wants to keep to himself\n     * - symbol This is the symbol of the gvernance token\n     * - image this is image of the gov token.\n     */\n    function createNewGovernanceToken(NewTokenData memory newTokenData)\n        external\n        payable\n        canCreateToken(newTokenData)\n        returns (uint256)\n    {\n        {\n            bytes memory preString = abi.encodePacked(PREFIX_GOVERNANCE);\n            newTokenData.symbol = string(\n                abi.encodePacked(preString, newTokenData.symbol)\n            );\n        }\n\n        require(\n            govTokenMapping[newTokenData.recordId].isPresent == false,\n            \"Governance token for this id already present\"\n        );\n\n        require(\n            govTokenSym[newTokenData.symbol] == false,\n            \"Governance token with this SYMBOL already present\"\n        );\n\n        LastTokenId++;\n        uint256 newTokenId = LastTokenId;\n\n        //Map the recordId with the\n        govTokenMapping[newTokenData.recordId] = createToken(\n            newTokenData,\n            newTokenId,\n            TOKEN_TYPE_GOVERNANCE\n        );\n\n        return newTokenId;\n    }\n\n    /**\n     * @dev This function creats new community tokens for specified record\n     * @param newTokenData This contains all the parameters needed to create a new community token that are\n     * - recordId This is the recordId that for new token\n     * - totalSupply This is the total supply of community token\n     * - userBalance This is the amount of tokens that user wants to keep to himself\n     * - symbol This is the symbol of the community token\n     * - image this is image of the gov token.\n     */\n    function createNewCommunityToken(NewTokenData memory newTokenData)\n        external\n        payable\n        canCreateToken(newTokenData)\n        returns (uint256)\n    {\n        {\n            bytes memory preString = abi.encodePacked(PREFIX_COMMUNITY);\n            newTokenData.symbol = string(\n                abi.encodePacked(preString, newTokenData.symbol)\n            );\n        }\n\n        require(\n            commTokenMapping[newTokenData.recordId].isPresent == false,\n            \"Governance token for this id already present\"\n        );\n\n        require(\n            commTokenSym[newTokenData.symbol] == false,\n            \"Governance token with this SYMBOL already present\"\n        );\n\n        LastTokenId++;\n        uint256 newTokenId = LastTokenId;\n\n        //Map the recordId with the\n        commTokenMapping[newTokenData.recordId] = createToken(\n            newTokenData,\n            newTokenId,\n            TOKEN_TYPE_COMMUNITY\n        );\n\n        return newTokenId;\n    }\n\n    /**\n     * @dev This function is an internal use only function whoes role is to create a new token of specified type\n     * @param newTokenData This contains all the parameters needed to create a new community token that are\n     * - recordId This is the recordId that for new token\n     * - totalSupply This is the total supply of community token\n     * - userBalance This is the amount of tokens that user wants to keep to himself\n     * - symbol This is the symbol of the community token\n     * - image this is image of the gov token.\n     * @param newTokenId This is the Id of the token to create\n     * @param tokenType This is the type of token that is to be created such as community or governance\n     */\n    function createToken(\n        NewTokenData memory newTokenData,\n        uint256 newTokenId,\n        uint8 tokenType\n    ) private returns (Token memory) {\n        //!Add check for the totalsupply > userBalance\n\n        uint256 treasuryAmount = (newTokenData.totalSupply -\n            newTokenData.userBalance);\n        uint256 userAmount = newTokenData.userBalance;\n\n        // Here minting of new tokens is done. And those are sent directly into the treasury\n        _mint(address(this), newTokenId, treasuryAmount, \"\");\n\n        // The user requested amount of tokens is genrated and send to his account\n        _mint(msg.sender, newTokenId, userAmount, \"\");\n\n        Token memory token = Token({\n            recordId: newTokenData.recordId,\n            symbol: newTokenData.symbol,\n            image: newTokenData.image,\n            creationDate: block.timestamp,\n            isPresent: true,\n            tokenId: newTokenId\n        });\n\n        emit NewTokenCreated({\n            recordId: newTokenData.recordId,\n            symbol: newTokenData.symbol,\n            image: newTokenData.image,\n            creationDate: token.creationDate,\n            tokenAmount: newTokenData.totalSupply,\n            tokenId: newTokenId,\n            tokenType: tokenType\n        });\n\n        return token;\n    }\n\n    /**\n     * @dev This function creats new community tokens for specified record\n     * @param recordId This is the id of the record to which the token belongs to\n     * @param tokenId This is the id of the which is to be minted\n     * @param tokenAmount This is the amount that is to be minted\n     */\n    function mintTokens(\n        uint256 recordId,\n        uint256 tokenId,\n        uint256 tokenAmount\n    ) external payable onlyContributionVotingContract {\n        require(\n            commTokenMapping[recordId].isPresent == true ||\n                govTokenMapping[recordId].isPresent == true,\n            \"Invalid record \"\n        );\n\n        require(\n            commTokenMapping[recordId].tokenId == tokenId ||\n                govTokenMapping[recordId].tokenId == tokenId,\n            \"Invalid tokens\"\n        );\n\n        // Here minting of new tokens is done. And those are sent directly into the treasury\n        _mint(\n            address(this),\n            tokenId,\n            tokenAmount,\n            \"Token minted through voting process\"\n        );\n\n        emit TokenMinted({\n            recordId: recordId,\n            tokenId: tokenId,\n            creationDate: block.timestamp,\n            tokenAmount: tokenAmount\n        });\n    }\n\n    /**\n     * @dev This function is called only by the voting contract once the voting ends\n     * @param to This is the recivers address\n     * @param recordId This is the recordId to which the contribution belongs to\n     * @param contributionId this is the contribution id to which the user has won\n     * @param rewardGovernance this is the amout of Governance token that needs to be transfered\n     * @param rewardCommunity this is the amout of comunity token that needs to be transfered\n     */\n    function transferRewardAmount(\n        address to,\n        uint256 recordId,\n        uint256 contributionId,\n        uint256 rewardGovernance,\n        uint256 rewardCommunity\n    ) external payable onlyContributionVotingContract {\n        _setApprovalForAll(\n            address(this),\n            CONTRIBUTION_VOTING_CONTRACT_ADDRESS,\n            true\n        );\n        if (rewardGovernance > 0) {\n            safeTransferFrom(\n                address(this),\n                to,\n                govTokenMapping[recordId].tokenId,\n                rewardGovernance,\n                \"\"\n            );\n        }\n\n        if (rewardCommunity > 0) {\n            safeTransferFrom(\n                address(this),\n                to,\n                commTokenMapping[recordId].tokenId,\n                rewardCommunity,\n                \"\"\n            );\n        }\n\n        emit ContributionRewardTransfered({\n            to: to,\n            recordId: recordId,\n            contributionId: contributionId,\n            rewardGovernance: rewardGovernance,\n            rewardCommunity: rewardCommunity\n        });\n    }\n\n    /**\n     * @dev This function gives you the community token id of the recordId that you pass\n     * @param recordId This is the Id of the token that you want to check\n     */\n    function getCommunityTokenId(uint256 recordId)\n        public\n        view\n        returns (uint256)\n    {\n        Token memory token = commTokenMapping[recordId];\n        if (token.isPresent) {\n            return token.tokenId;\n        } else {\n            revert(\"Invalid record id\");\n        }\n    }\n\n    /**\n     * @dev This function gives you the governance token id of the recordId that you pass\n     * @param recordId This is the Id of the token that you want to check\n     */\n    function getGovernanceTokenId(uint256 recordId)\n        public\n        view\n        returns (uint256)\n    {\n        Token memory token = govTokenMapping[recordId];\n        if (token.isPresent) {\n            return token.tokenId;\n        } else {\n            revert(\"Invalid record id\");\n        }\n    }\n\n    /**\n     * @dev This function returns the amount of total tokens that are in circulation\n     * @param tokenId This is the token whoes circulating supply you  want to find out\n     */\n    function totalCirculatingSupply(uint256 tokenId)\n        public\n        view\n        returns (uint256)\n    {\n        uint256 totalCirculatingBalance = SafeMath.sub(\n            totalSupply(tokenId),\n            balanceOf(address(this), tokenId)\n        );\n\n        return totalCirculatingBalance;\n    }\n\n    function snapshot() public returns (uint256 snapshotId) {\n        return _snapshot();\n    }\n\n    // Update balance and/or total supply snapshots before the values are modified. This is implemented\n    // in the _beforeTokenTransfer hook, which is executed for _mint, _burn, and _transfer operations.\n    function _beforeTokenTransfer(\n        address operator,\n        address from,\n        address to,\n        uint256[] memory ids,\n        uint256[] memory amounts,\n        bytes memory data\n    ) internal override {\n        //Below condition is needed as the _mint is called in the constructor\n        //and at that particular point in time the below address is not initialized thus leading to a revert\n        if (VOTING_HUB_ADDRESS != address(0)) {\n            VotingHubContract votingHubContract = VotingHubContract(\n                VOTING_HUB_ADDRESS\n            );\n\n            for (uint256 i = 0; i < ids.length; i++) {\n                votingHubContract.handleUserTokenTransfers(\n                    from,\n                    to,\n                    amounts[i],\n                    ids[i]\n                );\n            }\n        }\n\n        super._beforeTokenTransfer(operator, from, to, ids, amounts, data);\n    }\n\n    /**\n     * @dev this function is responsible for minting of new tokens for records\n     * @param tokenId Id this is the tokenId that is to minted\n     * @param amount the amount that is to be minted\n     */\n    function mintTokens(uint256 tokenId, uint256 amount)\n        public\n        onlyDilutionContract\n    {\n        _mint(address(this), tokenId, amount, \"New tokens minted\");\n    }\n\n    function onERC1155Received(\n        address operator,\n        address from,\n        uint256 id,\n        uint256 value,\n        bytes calldata data\n    ) external virtual override returns (bytes4) {\n        return\n            bytes4(\n                keccak256(\n                    \"onERC1155Received(address,address,uint256,uint256,bytes)\"\n                )\n            );\n    }\n\n    function onERC1155BatchReceived(\n        address operator,\n        address from,\n        uint256[] calldata ids,\n        uint256[] calldata values,\n        bytes calldata data\n    ) external virtual override returns (bytes4) {\n        return\n            bytes4(\n                keccak256(\n                    \"onERC1155BatchReceived(address,address,uint256[],uint256[],bytes)\"\n                )\n            );\n    }\n}\n",
  "sourcePath": "/Users/a1/Desktop/Office/projects/CrowdRecords/Contracts/contracts/TreasuryContract.sol",
  "compiler": {
    "name": "solc",
    "version": "0.8.12+commit.f00d7308.Emscripten.clang"
  },
  "schemaVersion": "3.4.6",
  "updatedAt": "2022-07-28T07:30:31.779Z",
  "networkType": "ethereum",
  "devdoc": {
    "events": {
      "ContributionRewardTransfered(address,uint256,uint256,uint256,uint256)": {
        "details": "this is event which is genrated when a contribution voting has came to an end and the contribution is accepted",
        "params": {
          "contributionId": "This is the id of the contribution to which the record is related to ",
          "recordId": "This is the id of the record to which this contribution relates to ",
          "rewardCommunity": "The reward amount for comunity tokens",
          "rewardGovernance": "The reward amount for governance tokens ",
          "to": "This the address of the winner or the owner of the contribution "
        }
      },
      "NewTokenCreated(uint256,string,string,uint256,uint256,uint256,uint8)": {
        "details": "this is event which is created when new governance token is created (NEW CREATION Not MINITING)",
        "params": {
          "creationDate": "This is the creation date of the token ",
          "image": "This is the image of the token ",
          "recordId": "This is the record Id to which this token belongs to ",
          "symbol": "This is the symbol of the governance token",
          "tokenAmount": "This is the amount of token that are created ",
          "tokenId": "This is the id of token that is newly created tokens ",
          "tokenType": "This is the type of the token that is created => For governance 1 and for copyright 0  "
        }
      },
      "TokenMinted(uint256,uint256,uint256,uint256)": {
        "details": "this is event which is created when new governance token is minted after the voting is done",
        "params": {
          "creationDate": "This is the creation date of the token ",
          "recordId": "This is the record Id to which this token belongs to ",
          "tokenAmount": "This is the amount of token that are created ",
          "tokenId": "This is the id of token that is newly created tokens "
        }
      },
      "TokenTransfer(address,address,uint256,uint256,uint256,string)": {
        "details": "this is event which is created when a token transfer takes place",
        "params": {
          "amount": "This is the amount of token transfered ",
          "from": "This is the address of sender ",
          "symbol": "This is the symbol of the token that were transfered",
          "to": "This is the address of reciver ",
          "tokenId": "This is the id of the token that is being transfered ",
          "transferDate": "This is the date of the transfer"
        }
      }
    },
    "kind": "dev",
    "methods": {
      "balanceOf(address,uint256)": {
        "details": "See {IERC1155-balanceOf}. Requirements: - `account` cannot be the zero address."
      },
      "balanceOfAt(address,uint256,uint256)": {
        "details": "Retrieves the balance of `account` at the time `snapshotId` was created."
      },
      "balanceOfBatch(address[],uint256[])": {
        "details": "See {IERC1155-balanceOfBatch}. Requirements: - `accounts` and `ids` must have the same length."
      },
      "createNewCommunityToken((uint256,uint256,uint256,string,string))": {
        "details": "This function creats new community tokens for specified record",
        "params": {
          "newTokenData": "This contains all the parameters needed to create a new community token that are - recordId This is the recordId that for new token - totalSupply This is the total supply of community token - userBalance This is the amount of tokens that user wants to keep to himself - symbol This is the symbol of the community token - image this is image of the gov token."
        }
      },
      "createNewGovernanceToken((uint256,uint256,uint256,string,string))": {
        "details": "This function creats new governance tokens for specified record",
        "params": {
          "newTokenData": "This contains all the parameters needed to create a new governance token that are - recordId This is the recordId that for new token - totalSupply This is the total supply of governance token - userBalance This is the amount of tokens that user wants to keep to himself - symbol This is the symbol of the gvernance token - image this is image of the gov token."
        }
      },
      "exists(uint256)": {
        "details": "Indicates whether any token exist with a given id, or not."
      },
      "getCommunityTokenId(uint256)": {
        "details": "This function gives you the community token id of the recordId that you pass",
        "params": {
          "recordId": "This is the Id of the token that you want to check"
        }
      },
      "getGovernanceTokenId(uint256)": {
        "details": "This function gives you the governance token id of the recordId that you pass",
        "params": {
          "recordId": "This is the Id of the token that you want to check"
        }
      },
      "isApprovedForAll(address,address)": {
        "details": "See {IERC1155-isApprovedForAll}."
      },
      "mintTokens(uint256,uint256)": {
        "details": "this function is responsible for minting of new tokens for records",
        "params": {
          "amount": "the amount that is to be minted",
          "tokenId": "Id this is the tokenId that is to minted"
        }
      },
      "mintTokens(uint256,uint256,uint256)": {
        "details": "This function creats new community tokens for specified record",
        "params": {
          "recordId": "This is the id of the record to which the token belongs to",
          "tokenAmount": "This is the amount that is to be minted",
          "tokenId": "This is the id of the which is to be minted"
        }
      },
      "onERC1155BatchReceived(address,address,uint256[],uint256[],bytes)": {
        "details": "Handles the receipt of a multiple ERC1155 token types. This function is called at the end of a `safeBatchTransferFrom` after the balances have been updated. NOTE: To accept the transfer(s), this must return `bytes4(keccak256(\"onERC1155BatchReceived(address,address,uint256[],uint256[],bytes)\"))` (i.e. 0xbc197c81, or its own function selector).",
        "params": {
          "data": "Additional data with no specified format",
          "from": "The address which previously owned the token",
          "ids": "An array containing ids of each token being transferred (order and length must match values array)",
          "operator": "The address which initiated the batch transfer (i.e. msg.sender)",
          "values": "An array containing amounts of each token being transferred (order and length must match ids array)"
        },
        "returns": {
          "_0": "`bytes4(keccak256(\"onERC1155BatchReceived(address,address,uint256[],uint256[],bytes)\"))` if transfer is allowed"
        }
      },
      "onERC1155Received(address,address,uint256,uint256,bytes)": {
        "details": "Handles the receipt of a single ERC1155 token type. This function is called at the end of a `safeTransferFrom` after the balance has been updated. NOTE: To accept the transfer, this must return `bytes4(keccak256(\"onERC1155Received(address,address,uint256,uint256,bytes)\"))` (i.e. 0xf23a6e61, or its own function selector).",
        "params": {
          "data": "Additional data with no specified format",
          "from": "The address which previously owned the token",
          "id": "The ID of the token being transferred",
          "operator": "The address which initiated the transfer (i.e. msg.sender)",
          "value": "The amount of tokens being transferred"
        },
        "returns": {
          "_0": "`bytes4(keccak256(\"onERC1155Received(address,address,uint256,uint256,bytes)\"))` if transfer is allowed"
        }
      },
      "safeBatchTransferFrom(address,address,uint256[],uint256[],bytes)": {
        "details": "See {IERC1155-safeBatchTransferFrom}."
      },
      "safeTransferFrom(address,address,uint256,uint256,bytes)": {
        "details": "See {IERC1155-safeTransferFrom}."
      },
      "setApprovalForAll(address,bool)": {
        "details": "See {IERC1155-setApprovalForAll}."
      },
      "setContributionVotingContractAddress(address)": {
        "details": "This function sets the Voting Contract address"
      },
      "setDilutionContract(address)": {
        "details": "This function sets the dilution Contract address"
      },
      "setRecordsContractAddress(address)": {
        "details": "This function sets the Records Contract address"
      },
      "setVotingHubContract(address)": {
        "details": "This function sets the Records Contract address"
      },
      "supportsInterface(bytes4)": {
        "details": "See {IERC165-supportsInterface}."
      },
      "totalCirculatingSupply(uint256)": {
        "details": "This function returns the amount of total tokens that are in circulation",
        "params": {
          "tokenId": "This is the token whoes circulating supply you  want to find out"
        }
      },
      "totalSupply(uint256)": {
        "details": "Total amount of tokens in with a given id."
      },
      "totalSupplyAt(uint256,uint256)": {
        "details": "Retrieves the total supply at the time `snapshotId` was created."
      },
      "transferRewardAmount(address,uint256,uint256,uint256,uint256)": {
        "details": "This function is called only by the voting contract once the voting ends",
        "params": {
          "contributionId": "this is the contribution id to which the user has won",
          "recordId": "This is the recordId to which the contribution belongs to",
          "rewardCommunity": "this is the amout of comunity token that needs to be transfered",
          "rewardGovernance": "this is the amout of Governance token that needs to be transfered",
          "to": "This is the recivers address"
        }
      },
      "uri(uint256)": {
        "details": "See {IERC1155MetadataURI-uri}. This implementation returns the same URI for *all* token types. It relies on the token type ID substitution mechanism https://eips.ethereum.org/EIPS/eip-1155#metadata[defined in the EIP]. Clients calling this function must replace the `\\{id\\}` substring with the actual token type ID."
      }
    },
    "version": 1
  },
  "userdoc": {
    "kind": "user",
    "methods": {},
    "version": 1
  }
}