{
  "contractName": "TreasuryCoreContract",
  "abi": [
    {
      "inputs": [
        {
          "internalType": "address",
          "name": "owner",
          "type": "address"
        }
      ],
      "stateMutability": "nonpayable",
      "type": "constructor"
    },
    {
      "anonymous": false,
      "inputs": [
        {
          "indexed": true,
          "internalType": "address",
          "name": "account",
          "type": "address"
        },
        {
          "indexed": true,
          "internalType": "address",
          "name": "operator",
          "type": "address"
        },
        {
          "indexed": false,
          "internalType": "bool",
          "name": "approved",
          "type": "bool"
        }
      ],
      "name": "ApprovalForAll",
      "type": "event"
    },
    {
      "anonymous": false,
      "inputs": [
        {
          "indexed": false,
          "internalType": "address",
          "name": "to",
          "type": "address"
        },
        {
          "indexed": false,
          "internalType": "uint256",
          "name": "recordId",
          "type": "uint256"
        },
        {
          "indexed": false,
          "internalType": "uint256",
          "name": "contributionId",
          "type": "uint256"
        },
        {
          "indexed": false,
          "internalType": "uint256",
          "name": "rewardGovernance",
          "type": "uint256"
        },
        {
          "indexed": false,
          "internalType": "uint256",
          "name": "rewardCommunity",
          "type": "uint256"
        }
      ],
      "name": "ContributionRewardTransferred",
      "type": "event"
    },
    {
      "anonymous": false,
      "inputs": [
        {
          "indexed": false,
          "internalType": "uint256",
          "name": "recordId",
          "type": "uint256"
        },
        {
          "indexed": false,
          "internalType": "string",
          "name": "symbol",
          "type": "string"
        },
        {
          "indexed": false,
          "internalType": "string",
          "name": "image",
          "type": "string"
        },
        {
          "indexed": false,
          "internalType": "uint256",
          "name": "creationDate",
          "type": "uint256"
        },
        {
          "indexed": false,
          "internalType": "uint256",
          "name": "tokenAmount",
          "type": "uint256"
        },
        {
          "indexed": false,
          "internalType": "uint256",
          "name": "tokenId",
          "type": "uint256"
        },
        {
          "indexed": false,
          "internalType": "uint8",
          "name": "tokenType",
          "type": "uint8"
        }
      ],
      "name": "NewTokenCreated",
      "type": "event"
    },
    {
      "anonymous": false,
      "inputs": [
        {
          "indexed": false,
          "internalType": "uint256",
          "name": "id",
          "type": "uint256"
        }
      ],
      "name": "Snapshot",
      "type": "event"
    },
    {
      "anonymous": false,
      "inputs": [
        {
          "indexed": false,
          "internalType": "uint256",
          "name": "recordId",
          "type": "uint256"
        },
        {
          "indexed": false,
          "internalType": "uint256",
          "name": "tokenId",
          "type": "uint256"
        },
        {
          "indexed": false,
          "internalType": "uint256",
          "name": "creationDate",
          "type": "uint256"
        },
        {
          "indexed": false,
          "internalType": "uint256",
          "name": "tokenAmount",
          "type": "uint256"
        }
      ],
      "name": "TokenMinted",
      "type": "event"
    },
    {
      "anonymous": false,
      "inputs": [
        {
          "indexed": false,
          "internalType": "address",
          "name": "from",
          "type": "address"
        },
        {
          "indexed": false,
          "internalType": "address",
          "name": "to",
          "type": "address"
        },
        {
          "indexed": false,
          "internalType": "uint256",
          "name": "transferDate",
          "type": "uint256"
        },
        {
          "indexed": false,
          "internalType": "uint256",
          "name": "tokenId",
          "type": "uint256"
        },
        {
          "indexed": false,
          "internalType": "uint256",
          "name": "amount",
          "type": "uint256"
        },
        {
          "indexed": false,
          "internalType": "string",
          "name": "symbol",
          "type": "string"
        }
      ],
      "name": "TokenTransfer",
      "type": "event"
    },
    {
      "anonymous": false,
      "inputs": [
        {
          "indexed": true,
          "internalType": "address",
          "name": "operator",
          "type": "address"
        },
        {
          "indexed": true,
          "internalType": "address",
          "name": "from",
          "type": "address"
        },
        {
          "indexed": true,
          "internalType": "address",
          "name": "to",
          "type": "address"
        },
        {
          "indexed": false,
          "internalType": "uint256[]",
          "name": "ids",
          "type": "uint256[]"
        },
        {
          "indexed": false,
          "internalType": "uint256[]",
          "name": "values",
          "type": "uint256[]"
        }
      ],
      "name": "TransferBatch",
      "type": "event"
    },
    {
      "anonymous": false,
      "inputs": [
        {
          "indexed": true,
          "internalType": "address",
          "name": "operator",
          "type": "address"
        },
        {
          "indexed": true,
          "internalType": "address",
          "name": "from",
          "type": "address"
        },
        {
          "indexed": true,
          "internalType": "address",
          "name": "to",
          "type": "address"
        },
        {
          "indexed": false,
          "internalType": "uint256",
          "name": "id",
          "type": "uint256"
        },
        {
          "indexed": false,
          "internalType": "uint256",
          "name": "value",
          "type": "uint256"
        }
      ],
      "name": "TransferSingle",
      "type": "event"
    },
    {
      "anonymous": false,
      "inputs": [
        {
          "indexed": false,
          "internalType": "string",
          "name": "value",
          "type": "string"
        },
        {
          "indexed": true,
          "internalType": "uint256",
          "name": "id",
          "type": "uint256"
        }
      ],
      "name": "URI",
      "type": "event"
    },
    {
      "inputs": [],
      "name": "CRD",
      "outputs": [
        {
          "internalType": "uint256",
          "name": "",
          "type": "uint256"
        }
      ],
      "stateMutability": "view",
      "type": "function"
    },
    {
      "inputs": [],
      "name": "OWNER",
      "outputs": [
        {
          "internalType": "address",
          "name": "",
          "type": "address"
        }
      ],
      "stateMutability": "view",
      "type": "function"
    },
    {
      "inputs": [],
      "name": "TREASURY_CONTRACT_ADDRESS",
      "outputs": [
        {
          "internalType": "address",
          "name": "",
          "type": "address"
        }
      ],
      "stateMutability": "view",
      "type": "function"
    },
    {
      "inputs": [],
      "name": "VOTING_HUB_ADDRESS",
      "outputs": [
        {
          "internalType": "address",
          "name": "",
          "type": "address"
        }
      ],
      "stateMutability": "view",
      "type": "function"
    },
    {
      "inputs": [
        {
          "internalType": "address",
          "name": "account",
          "type": "address"
        },
        {
          "internalType": "uint256",
          "name": "id",
          "type": "uint256"
        }
      ],
      "name": "balanceOf",
      "outputs": [
        {
          "internalType": "uint256",
          "name": "",
          "type": "uint256"
        }
      ],
      "stateMutability": "view",
      "type": "function"
    },
    {
      "inputs": [
        {
          "internalType": "address",
          "name": "account",
          "type": "address"
        },
        {
          "internalType": "uint256",
          "name": "snapshotId",
          "type": "uint256"
        },
        {
          "internalType": "uint256",
          "name": "tokenId",
          "type": "uint256"
        }
      ],
      "name": "balanceOfAt",
      "outputs": [
        {
          "internalType": "uint256",
          "name": "",
          "type": "uint256"
        }
      ],
      "stateMutability": "view",
      "type": "function"
    },
    {
      "inputs": [
        {
          "internalType": "address[]",
          "name": "accounts",
          "type": "address[]"
        },
        {
          "internalType": "uint256[]",
          "name": "ids",
          "type": "uint256[]"
        }
      ],
      "name": "balanceOfBatch",
      "outputs": [
        {
          "internalType": "uint256[]",
          "name": "",
          "type": "uint256[]"
        }
      ],
      "stateMutability": "view",
      "type": "function"
    },
    {
      "inputs": [
        {
          "internalType": "uint256",
          "name": "",
          "type": "uint256"
        }
      ],
      "name": "commTokenMapping",
      "outputs": [
        {
          "internalType": "uint256",
          "name": "recordId",
          "type": "uint256"
        },
        {
          "internalType": "string",
          "name": "symbol",
          "type": "string"
        },
        {
          "internalType": "string",
          "name": "image",
          "type": "string"
        },
        {
          "internalType": "uint256",
          "name": "creationDate",
          "type": "uint256"
        },
        {
          "internalType": "bool",
          "name": "isPresent",
          "type": "bool"
        },
        {
          "internalType": "uint256",
          "name": "tokenId",
          "type": "uint256"
        }
      ],
      "stateMutability": "view",
      "type": "function"
    },
    {
      "inputs": [
        {
          "internalType": "string",
          "name": "",
          "type": "string"
        }
      ],
      "name": "commTokenSym",
      "outputs": [
        {
          "internalType": "bool",
          "name": "",
          "type": "bool"
        }
      ],
      "stateMutability": "view",
      "type": "function"
    },
    {
      "inputs": [
        {
          "internalType": "uint256",
          "name": "id",
          "type": "uint256"
        }
      ],
      "name": "exists",
      "outputs": [
        {
          "internalType": "bool",
          "name": "",
          "type": "bool"
        }
      ],
      "stateMutability": "view",
      "type": "function"
    },
    {
      "inputs": [
        {
          "internalType": "uint256",
          "name": "",
          "type": "uint256"
        }
      ],
      "name": "govTokenMapping",
      "outputs": [
        {
          "internalType": "uint256",
          "name": "recordId",
          "type": "uint256"
        },
        {
          "internalType": "string",
          "name": "symbol",
          "type": "string"
        },
        {
          "internalType": "string",
          "name": "image",
          "type": "string"
        },
        {
          "internalType": "uint256",
          "name": "creationDate",
          "type": "uint256"
        },
        {
          "internalType": "bool",
          "name": "isPresent",
          "type": "bool"
        },
        {
          "internalType": "uint256",
          "name": "tokenId",
          "type": "uint256"
        }
      ],
      "stateMutability": "view",
      "type": "function"
    },
    {
      "inputs": [
        {
          "internalType": "string",
          "name": "",
          "type": "string"
        }
      ],
      "name": "govTokenSym",
      "outputs": [
        {
          "internalType": "bool",
          "name": "",
          "type": "bool"
        }
      ],
      "stateMutability": "view",
      "type": "function"
    },
    {
      "inputs": [
        {
          "internalType": "address",
          "name": "account",
          "type": "address"
        },
        {
          "internalType": "address",
          "name": "operator",
          "type": "address"
        }
      ],
      "name": "isApprovedForAll",
      "outputs": [
        {
          "internalType": "bool",
          "name": "",
          "type": "bool"
        }
      ],
      "stateMutability": "view",
      "type": "function"
    },
    {
      "inputs": [
        {
          "internalType": "address",
          "name": "from",
          "type": "address"
        },
        {
          "internalType": "address",
          "name": "to",
          "type": "address"
        },
        {
          "internalType": "uint256[]",
          "name": "ids",
          "type": "uint256[]"
        },
        {
          "internalType": "uint256[]",
          "name": "amounts",
          "type": "uint256[]"
        },
        {
          "internalType": "bytes",
          "name": "data",
          "type": "bytes"
        }
      ],
      "name": "safeBatchTransferFrom",
      "outputs": [],
      "stateMutability": "nonpayable",
      "type": "function"
    },
    {
      "inputs": [
        {
          "internalType": "address",
          "name": "from",
          "type": "address"
        },
        {
          "internalType": "address",
          "name": "to",
          "type": "address"
        },
        {
          "internalType": "uint256",
          "name": "id",
          "type": "uint256"
        },
        {
          "internalType": "uint256",
          "name": "amount",
          "type": "uint256"
        },
        {
          "internalType": "bytes",
          "name": "data",
          "type": "bytes"
        }
      ],
      "name": "safeTransferFrom",
      "outputs": [],
      "stateMutability": "nonpayable",
      "type": "function"
    },
    {
      "inputs": [
        {
          "internalType": "address",
          "name": "operator",
          "type": "address"
        },
        {
          "internalType": "bool",
          "name": "approved",
          "type": "bool"
        }
      ],
      "name": "setApprovalForAll",
      "outputs": [],
      "stateMutability": "nonpayable",
      "type": "function"
    },
    {
      "inputs": [],
      "name": "snap",
      "outputs": [
        {
          "internalType": "uint256",
          "name": "",
          "type": "uint256"
        }
      ],
      "stateMutability": "nonpayable",
      "type": "function"
    },
    {
      "inputs": [
        {
          "internalType": "bytes4",
          "name": "interfaceId",
          "type": "bytes4"
        }
      ],
      "name": "supportsInterface",
      "outputs": [
        {
          "internalType": "bool",
          "name": "",
          "type": "bool"
        }
      ],
      "stateMutability": "view",
      "type": "function"
    },
    {
      "inputs": [
        {
          "internalType": "uint256",
          "name": "id",
          "type": "uint256"
        }
      ],
      "name": "totalSupply",
      "outputs": [
        {
          "internalType": "uint256",
          "name": "",
          "type": "uint256"
        }
      ],
      "stateMutability": "view",
      "type": "function"
    },
    {
      "inputs": [
        {
          "internalType": "uint256",
          "name": "snapshotId",
          "type": "uint256"
        },
        {
          "internalType": "uint256",
          "name": "tokenId",
          "type": "uint256"
        }
      ],
      "name": "totalSupplyAt",
      "outputs": [
        {
          "internalType": "uint256",
          "name": "",
          "type": "uint256"
        }
      ],
      "stateMutability": "view",
      "type": "function"
    },
    {
      "inputs": [
        {
          "internalType": "uint256",
          "name": "",
          "type": "uint256"
        }
      ],
      "name": "uri",
      "outputs": [
        {
          "internalType": "string",
          "name": "",
          "type": "string"
        }
      ],
      "stateMutability": "view",
      "type": "function"
    },
    {
      "inputs": [
        {
          "internalType": "address",
          "name": "newVotingHubContract",
          "type": "address"
        }
      ],
      "name": "setVotingHubContract",
      "outputs": [],
      "stateMutability": "nonpayable",
      "type": "function"
    },
    {
      "inputs": [
        {
          "internalType": "address",
          "name": "newTreasuryAddress",
          "type": "address"
        }
      ],
      "name": "setTreasuryContract",
      "outputs": [],
      "stateMutability": "nonpayable",
      "type": "function"
    },
    {
      "inputs": [
        {
          "components": [
            {
              "internalType": "uint256",
              "name": "recordId",
              "type": "uint256"
            },
            {
              "internalType": "uint256",
              "name": "totalSupply",
              "type": "uint256"
            },
            {
              "internalType": "uint256",
              "name": "userBalance",
              "type": "uint256"
            },
            {
              "internalType": "string",
              "name": "symbol",
              "type": "string"
            },
            {
              "internalType": "string",
              "name": "image",
              "type": "string"
            }
          ],
          "internalType": "struct TreasuryCoreContract.NewTokenData",
          "name": "newTokenData",
          "type": "tuple"
        }
      ],
      "name": "createNewGovernanceToken",
      "outputs": [
        {
          "internalType": "uint256",
          "name": "",
          "type": "uint256"
        }
      ],
      "stateMutability": "nonpayable",
      "type": "function"
    },
    {
      "inputs": [
        {
          "components": [
            {
              "internalType": "uint256",
              "name": "recordId",
              "type": "uint256"
            },
            {
              "internalType": "uint256",
              "name": "totalSupply",
              "type": "uint256"
            },
            {
              "internalType": "uint256",
              "name": "userBalance",
              "type": "uint256"
            },
            {
              "internalType": "string",
              "name": "symbol",
              "type": "string"
            },
            {
              "internalType": "string",
              "name": "image",
              "type": "string"
            }
          ],
          "internalType": "struct TreasuryCoreContract.NewTokenData",
          "name": "newTokenData",
          "type": "tuple"
        }
      ],
      "name": "createNewCommunityToken",
      "outputs": [
        {
          "internalType": "uint256",
          "name": "",
          "type": "uint256"
        }
      ],
      "stateMutability": "nonpayable",
      "type": "function"
    },
    {
      "inputs": [
        {
          "internalType": "uint256",
          "name": "recordId",
          "type": "uint256"
        },
        {
          "internalType": "uint256",
          "name": "tokenId",
          "type": "uint256"
        },
        {
          "internalType": "uint256",
          "name": "tokenAmount",
          "type": "uint256"
        }
      ],
      "name": "mintTokens",
      "outputs": [],
      "stateMutability": "nonpayable",
      "type": "function"
    },
    {
      "inputs": [
        {
          "internalType": "address",
          "name": "to",
          "type": "address"
        },
        {
          "internalType": "uint256",
          "name": "recordId",
          "type": "uint256"
        },
        {
          "internalType": "uint256",
          "name": "contributionId",
          "type": "uint256"
        },
        {
          "internalType": "uint256",
          "name": "rewardGovernance",
          "type": "uint256"
        },
        {
          "internalType": "uint256",
          "name": "rewardCommunity",
          "type": "uint256"
        },
        {
          "internalType": "address",
          "name": "contributionVotingContractAddress",
          "type": "address"
        }
      ],
      "name": "transferRewardAmount",
      "outputs": [],
      "stateMutability": "nonpayable",
      "type": "function"
    },
    {
      "inputs": [
        {
          "internalType": "string",
          "name": "governanceSymbol",
          "type": "string"
        },
        {
          "internalType": "string",
          "name": "communitySymbol",
          "type": "string"
        }
      ],
      "name": "setSymbolsAsUsed",
      "outputs": [],
      "stateMutability": "nonpayable",
      "type": "function"
    },
    {
      "inputs": [
        {
          "internalType": "string",
          "name": "governanceSymbol",
          "type": "string"
        },
        {
          "internalType": "string",
          "name": "communitySymbol",
          "type": "string"
        }
      ],
      "name": "setSymbolsAsAvailable",
      "outputs": [],
      "stateMutability": "nonpayable",
      "type": "function"
    },
    {
      "inputs": [],
      "name": "snapshot",
      "outputs": [
        {
          "internalType": "uint256",
          "name": "snapshotId",
          "type": "uint256"
        }
      ],
      "stateMutability": "nonpayable",
      "type": "function"
    },
    {
      "inputs": [
        {
          "internalType": "uint256",
          "name": "tokenId",
          "type": "uint256"
        },
        {
          "internalType": "uint256",
          "name": "amount",
          "type": "uint256"
        }
      ],
      "name": "mint",
      "outputs": [],
      "stateMutability": "nonpayable",
      "type": "function"
    },
    {
      "inputs": [
        {
          "internalType": "address",
          "name": "operator",
          "type": "address"
        },
        {
          "internalType": "address",
          "name": "from",
          "type": "address"
        },
        {
          "internalType": "uint256",
          "name": "id",
          "type": "uint256"
        },
        {
          "internalType": "uint256",
          "name": "value",
          "type": "uint256"
        },
        {
          "internalType": "bytes",
          "name": "data",
          "type": "bytes"
        }
      ],
      "name": "onERC1155Received",
      "outputs": [
        {
          "internalType": "bytes4",
          "name": "",
          "type": "bytes4"
        }
      ],
      "stateMutability": "nonpayable",
      "type": "function"
    },
    {
      "inputs": [
        {
          "internalType": "address",
          "name": "operator",
          "type": "address"
        },
        {
          "internalType": "address",
          "name": "from",
          "type": "address"
        },
        {
          "internalType": "uint256[]",
          "name": "ids",
          "type": "uint256[]"
        },
        {
          "internalType": "uint256[]",
          "name": "values",
          "type": "uint256[]"
        },
        {
          "internalType": "bytes",
          "name": "data",
          "type": "bytes"
        }
      ],
      "name": "onERC1155BatchReceived",
      "outputs": [
        {
          "internalType": "bytes4",
          "name": "",
          "type": "bytes4"
        }
      ],
      "stateMutability": "nonpayable",
      "type": "function"
    }
  ],
  "bytecode": "0x608060405260016007556040518060400160405280600581526020017f435244475f000000000000000000000000000000000000000000000000000000815250600b908051906020019062000056929190620001bc565b506040518060400160405280600481526020017f4352445f00000000000000000000000000000000000000000000000000000000815250600c9080519060200190620000a4929190620001bc565b506000600d60006101000a81548160ff021916908360ff1602179055506001600d60016101000a81548160ff021916908360ff160217905550348015620000ea57600080fd5b5060405162005818380380620058188339818101604052810190620001109190620002d6565b6040518060400160405280601d81526020017f68747470733a2f2f63726f77647265636f7264732e636f6d2f7b69647d0000008152506200015781620001a060201b60201c565b5080600a60006101000a81548173ffffffffffffffffffffffffffffffffffffffff021916908373ffffffffffffffffffffffffffffffffffffffff160217905550506200036d565b8060029080519060200190620001b8929190620001bc565b5050565b828054620001ca9062000337565b90600052602060002090601f016020900481019282620001ee57600085556200023a565b82601f106200020957805160ff19168380011785556200023a565b828001600101855582156200023a579182015b82811115620002395782518255916020019190600101906200021c565b5b5090506200024991906200024d565b5090565b5b80821115620002685760008160009055506001016200024e565b5090565b600080fd5b600073ffffffffffffffffffffffffffffffffffffffff82169050919050565b60006200029e8262000271565b9050919050565b620002b08162000291565b8114620002bc57600080fd5b50565b600081519050620002d081620002a5565b92915050565b600060208284031215620002ef57620002ee6200026c565b5b6000620002ff84828501620002bf565b91505092915050565b7f4e487b7100000000000000000000000000000000000000000000000000000000600052602260045260246000fd5b600060028204905060018216806200035057607f821691505b6020821081141562000367576200036662000308565b5b50919050565b61549b806200037d6000396000f3fe608060405234801561001057600080fd5b50600436106101fa5760003560e01c8063884c8ffe1161011a578063af94e4a9116100ad578063cceaf6251161007c578063cceaf6251461063b578063e6acd9b81461066b578063e985e9c514610689578063f23a6e61146106b9578063f242432a146106e9576101fa565b8063af94e4a91461058a578063b875e13a146105bf578063bc197c81146105db578063bd85b0391461060b576101fa565b80639711715a116100e95780639711715a14610514578063a22cb46514610532578063a77d38fa1461054e578063acb314931461056c576101fa565b8063884c8ffe146104635780638958a5de146104985780638aa7a8b0146104c85780638fbf353f146104f8576101fa565b8063368680491161019257806361cbc3571161016157806361cbc357146103cb578063626da068146103e7578063692a530e146104175780636d15dd2c14610433576101fa565b806336868049146103315780634e1273f41461034f5780634f558e791461037f5780635f938ad2146103af576101fa565b80631644e0ff116101ce5780631644e0ff146102ad5780631b2ef1ca146102dd5780631ed65110146102f95780632eb2c2d614610315576101fa565b8062fdd58e146101ff57806301ffc9a71461022f5780630e89341c1461025f578063117803e31461028f575b600080fd5b6102196004803603810190610214919061353c565b610705565b604051610226919061358b565b60405180910390f35b610249600480360381019061024491906135fe565b6107ce565b6040516102569190613646565b60405180910390f35b61027960048036038101906102749190613661565b6108b0565b6040516102869190613727565b60405180910390f35b610297610944565b6040516102a49190613758565b60405180910390f35b6102c760048036038101906102c291906138a8565b61096a565b6040516102d49190613646565b60405180910390f35b6102f760048036038101906102f291906138f1565b6109a0565b005b610313600480360381019061030e9190613931565b610a75565b005b61032f600480360381019061032a9190613ac7565b610b49565b005b610339610bea565b6040516103469190613758565b60405180910390f35b61036960048036038101906103649190613c59565b610c10565b6040516103769190613d8f565b60405180910390f35b61039960048036038101906103949190613661565b610d29565b6040516103a69190613646565b60405180910390f35b6103c960048036038101906103c49190613db1565b610d3d565b005b6103e560048036038101906103e09190613db1565b610e3f565b005b61040160048036038101906103fc9190613e29565b610f41565b60405161040e919061358b565b60405180910390f35b610431600480360381019061042c9190613e7c565b610fc4565b005b61044d60048036038101906104489190613fd7565b61111f565b60405161045a919061358b565b60405180910390f35b61047d60048036038101906104789190613661565b6112d9565b60405161048f96959493929190614020565b60405180910390f35b6104b260048036038101906104ad91906138a8565b611432565b6040516104bf9190613646565b60405180910390f35b6104e260048036038101906104dd91906138f1565b611468565b6040516104ef919061358b565b60405180910390f35b610512600480360381019061050d919061408f565b6114ac565b005b61051c6116b6565b604051610529919061358b565b60405180910390f35b61054c6004803603810190610547919061410e565b611755565b005b61055661176b565b604051610563919061358b565b60405180910390f35b61057461177a565b6040516105819190613758565b60405180910390f35b6105a4600480360381019061059f9190613661565b6117a0565b6040516105b696959493929190614020565b60405180910390f35b6105d960048036038101906105d49190613931565b6118f9565b005b6105f560048036038101906105f091906141ff565b6119cd565b60405161060291906142ea565b60405180910390f35b61062560048036038101906106209190613661565b6119fe565b604051610632919061358b565b60405180910390f35b61065560048036038101906106509190613fd7565b611a1b565b604051610662919061358b565b60405180910390f35b610673611bd5565b604051610680919061358b565b60405180910390f35b6106a3600480360381019061069e9190614305565b611bda565b6040516106b09190613646565b60405180910390f35b6106d360048036038101906106ce9190614345565b611c6e565b6040516106e091906142ea565b60405180910390f35b61070360048036038101906106fe91906143df565b611c9d565b005b60008073ffffffffffffffffffffffffffffffffffffffff168373ffffffffffffffffffffffffffffffffffffffff161415610776576040517f08c379a000000000000000000000000000000000000000000000000000000000815260040161076d906144e8565b60405180910390fd5b60008083815260200190815260200160002060008473ffffffffffffffffffffffffffffffffffffffff1673ffffffffffffffffffffffffffffffffffffffff16815260200190815260200160002054905092915050565b60007fd9b67a26000000000000000000000000000000000000000000000000000000007bffffffffffffffffffffffffffffffffffffffffffffffffffffffff1916827bffffffffffffffffffffffffffffffffffffffffffffffffffffffff1916148061089957507f0e89341c000000000000000000000000000000000000000000000000000000007bffffffffffffffffffffffffffffffffffffffffffffffffffffffff1916827bffffffffffffffffffffffffffffffffffffffffffffffffffffffff1916145b806108a957506108a882611d3e565b5b9050919050565b6060600280546108bf90614537565b80601f01602080910402602001604051908101604052809291908181526020018280546108eb90614537565b80156109385780601f1061090d57610100808354040283529160200191610938565b820191906000526020600020905b81548152906001019060200180831161091b57829003601f168201915b50505050509050919050565b600a60009054906101000a900473ffffffffffffffffffffffffffffffffffffffff1681565b6010818051602081018201805184825260208301602085012081835280955050505050506000915054906101000a900460ff1681565b600960009054906101000a900473ffffffffffffffffffffffffffffffffffffffff1673ffffffffffffffffffffffffffffffffffffffff163373ffffffffffffffffffffffffffffffffffffffff1614610a30576040517f08c379a0000000000000000000000000000000000000000000000000000000008152600401610a27906145db565b60405180910390fd5b610a713083836040518060400160405280601181526020017f4e657720746f6b656e73206d696e746564000000000000000000000000000000815250611da8565b5050565b600a60009054906101000a900473ffffffffffffffffffffffffffffffffffffffff1673ffffffffffffffffffffffffffffffffffffffff163373ffffffffffffffffffffffffffffffffffffffff1614610b05576040517f08c379a0000000000000000000000000000000000000000000000000000000008152600401610afc906145db565b60405180910390fd5b80600960006101000a81548173ffffffffffffffffffffffffffffffffffffffff021916908373ffffffffffffffffffffffffffffffffffffffff16021790555050565b610b51611f3e565b73ffffffffffffffffffffffffffffffffffffffff168573ffffffffffffffffffffffffffffffffffffffff161480610b975750610b9685610b91611f3e565b611bda565b5b610bd6576040517f08c379a0000000000000000000000000000000000000000000000000000000008152600401610bcd9061466d565b60405180910390fd5b610be38585858585611f46565b5050505050565b600860009054906101000a900473ffffffffffffffffffffffffffffffffffffffff1681565b60608151835114610c56576040517f08c379a0000000000000000000000000000000000000000000000000000000008152600401610c4d906146ff565b60405180910390fd5b6000835167ffffffffffffffff811115610c7357610c7261377d565b5b604051908082528060200260200182016040528015610ca15781602001602082028036833780820191505090505b50905060005b8451811015610d1e57610cee858281518110610cc657610cc561471f565b5b6020026020010151858381518110610ce157610ce061471f565b5b6020026020010151610705565b828281518110610d0157610d0061471f565b5b60200260200101818152505080610d179061477d565b9050610ca7565b508091505092915050565b600080610d35836119fe565b119050919050565b600960009054906101000a900473ffffffffffffffffffffffffffffffffffffffff1673ffffffffffffffffffffffffffffffffffffffff163373ffffffffffffffffffffffffffffffffffffffff1614610dcd576040517f08c379a0000000000000000000000000000000000000000000000000000000008152600401610dc4906145db565b60405180910390fd5b6001601182604051610ddf9190614802565b908152602001604051809103902060006101000a81548160ff0219169083151502179055506001601083604051610e169190614802565b908152602001604051809103902060006101000a81548160ff0219169083151502179055505050565b600960009054906101000a900473ffffffffffffffffffffffffffffffffffffffff1673ffffffffffffffffffffffffffffffffffffffff163373ffffffffffffffffffffffffffffffffffffffff1614610ecf576040517f08c379a0000000000000000000000000000000000000000000000000000000008152600401610ec6906145db565b60405180910390fd5b6001601182604051610ee19190614802565b908152602001604051809103902060006101000a81548160ff0219169083151502179055506001601083604051610f189190614802565b908152602001604051809103902060006101000a81548160ff0219169083151502179055505050565b6000806000610f9f85600460008973ffffffffffffffffffffffffffffffffffffffff1673ffffffffffffffffffffffffffffffffffffffff168152602001908152602001600020600087815260200190815260200160002061225a565b9150915081610fb757610fb28685610705565b610fb9565b805b925050509392505050565b600960009054906101000a900473ffffffffffffffffffffffffffffffffffffffff1673ffffffffffffffffffffffffffffffffffffffff163373ffffffffffffffffffffffffffffffffffffffff1614611054576040517f08c379a000000000000000000000000000000000000000000000000000000000815260040161104b906145db565b60405180910390fd5b61106030826001612350565b600083111561109c5761109b3087600e6000898152602001908152602001600020600501548660405180602001604052806000815250611c9d565b5b60008211156110d8576110d73087600f6000898152602001908152602001600020600501548560405180602001604052806000815250611c9d565b5b7fe0357d4bc70490bf81b58d93d7d3a12a646c486a071200201fd882cdf74c88d9868686868660405161110f959493929190614819565b60405180910390a1505050505050565b6000600960009054906101000a900473ffffffffffffffffffffffffffffffffffffffff1673ffffffffffffffffffffffffffffffffffffffff163373ffffffffffffffffffffffffffffffffffffffff16146111b1576040517f08c379a00000000000000000000000000000000000000000000000000000000081526004016111a8906145db565b60405180910390fd5b6000600c6040516020016111c59190614900565b60405160208183030381529060405290508083606001516040516020016111ed92919061495e565b604051602081830303815290604052836060018190525050600760008154809291906112189061477d565b91905055506000600754905061123e8382600d60009054906101000a900460ff166124bd565b600f60008560000151815260200190815260200160002060008201518160000155602082015181600101908051906020019061127b9291906133b9565b5060408201518160020190805190602001906112989291906133b9565b506060820151816003015560808201518160040160006101000a81548160ff02191690831515021790555060a0820151816005015590505080915050919050565b600e60205280600052604060002060009150905080600001549080600101805461130290614537565b80601f016020809104026020016040519081016040528092919081815260200182805461132e90614537565b801561137b5780601f106113505761010080835404028352916020019161137b565b820191906000526020600020905b81548152906001019060200180831161135e57829003601f168201915b50505050509080600201805461139090614537565b80601f01602080910402602001604051908101604052809291908181526020018280546113bc90614537565b80156114095780601f106113de57610100808354040283529160200191611409565b820191906000526020600020905b8154815290600101906020018083116113ec57829003601f168201915b5050505050908060030154908060040160009054906101000a900460ff16908060050154905086565b6011818051602081018201805184825260208301602085012081835280955050505050506000915054906101000a900460ff1681565b6000806000611489856005600087815260200190815260200160002061225a565b91509150816114a05761149b846119fe565b6114a2565b805b9250505092915050565b600960009054906101000a900473ffffffffffffffffffffffffffffffffffffffff1673ffffffffffffffffffffffffffffffffffffffff163373ffffffffffffffffffffffffffffffffffffffff161461153c576040517f08c379a0000000000000000000000000000000000000000000000000000000008152600401611533906145db565b60405180910390fd5b60011515600f600085815260200190815260200160002060040160009054906101000a900460ff1615151480611599575060011515600e600085815260200190815260200160002060040160009054906101000a900460ff161515145b6115d8576040517f08c379a00000000000000000000000000000000000000000000000000000000081526004016115cf906149ce565b60405180910390fd5b81600f6000858152602001908152602001600020600501541480611611575081600e600085815260200190815260200160002060050154145b611650576040517f08c379a000000000000000000000000000000000000000000000000000000000815260040161164790614a3a565b60405180910390fd5b61167430838360405180606001604052806023815260200161544360239139611da8565b7f81e0b881b9c6ff93955a4a996cc01472b2cdc1a1663af072fa5ca7db7f127de2838342846040516116a99493929190614a5a565b60405180910390a1505050565b6000600960009054906101000a900473ffffffffffffffffffffffffffffffffffffffff1673ffffffffffffffffffffffffffffffffffffffff163373ffffffffffffffffffffffffffffffffffffffff1614611748576040517f08c379a000000000000000000000000000000000000000000000000000000000815260040161173f906145db565b60405180910390fd5b6117506125c0565b905090565b611767611760611f3e565b8383612350565b5050565b60006117756125c0565b905090565b600960009054906101000a900473ffffffffffffffffffffffffffffffffffffffff1681565b600f6020528060005260406000206000915090508060000154908060010180546117c990614537565b80601f01602080910402602001604051908101604052809291908181526020018280546117f590614537565b80156118425780601f1061181757610100808354040283529160200191611842565b820191906000526020600020905b81548152906001019060200180831161182557829003601f168201915b50505050509080600201805461185790614537565b80601f016020809104026020016040519081016040528092919081815260200182805461188390614537565b80156118d05780601f106118a5576101008083540402835291602001916118d0565b820191906000526020600020905b8154815290600101906020018083116118b357829003601f168201915b5050505050908060030154908060040160009054906101000a900460ff16908060050154905086565b600a60009054906101000a900473ffffffffffffffffffffffffffffffffffffffff1673ffffffffffffffffffffffffffffffffffffffff163373ffffffffffffffffffffffffffffffffffffffff1614611989576040517f08c379a0000000000000000000000000000000000000000000000000000000008152600401611980906145db565b60405180910390fd5b80600860006101000a81548173ffffffffffffffffffffffffffffffffffffffff021916908373ffffffffffffffffffffffffffffffffffffffff16021790555050565b60007fbc197c819b3e337a6f9652dd10becd7eef83032af3b9d958d3d42f6694146621905098975050505050505050565b600060036000838152602001908152602001600020549050919050565b6000600960009054906101000a900473ffffffffffffffffffffffffffffffffffffffff1673ffffffffffffffffffffffffffffffffffffffff163373ffffffffffffffffffffffffffffffffffffffff1614611aad576040517f08c379a0000000000000000000000000000000000000000000000000000000008152600401611aa4906145db565b60405180910390fd5b6000600b604051602001611ac19190614900565b6040516020818303038152906040529050808360600151604051602001611ae992919061495e565b60405160208183030381529060405283606001819052505060076000815480929190611b149061477d565b919050555060006007549050611b3a8382600d60019054906101000a900460ff166124bd565b600e600085600001518152602001908152602001600020600082015181600001556020820151816001019080519060200190611b779291906133b9565b506040820151816002019080519060200190611b949291906133b9565b506060820151816003015560808201518160040160006101000a81548160ff02191690831515021790555060a0820151816005015590505080915050919050565b600181565b6000600160008473ffffffffffffffffffffffffffffffffffffffff1673ffffffffffffffffffffffffffffffffffffffff16815260200190815260200160002060008373ffffffffffffffffffffffffffffffffffffffff1673ffffffffffffffffffffffffffffffffffffffff16815260200190815260200160002060009054906101000a900460ff16905092915050565b60007ff23a6e612e1ff4830e658fe43f4e3cb4a5f8170bd5d9e69fb5d7a7fa9e4fdf9790509695505050505050565b611ca5611f3e565b73ffffffffffffffffffffffffffffffffffffffff168573ffffffffffffffffffffffffffffffffffffffff161480611ceb5750611cea85611ce5611f3e565b611bda565b5b611d2a576040517f08c379a0000000000000000000000000000000000000000000000000000000008152600401611d2190614b11565b60405180910390fd5b611d378585858585612616565b5050505050565b60007f01ffc9a7000000000000000000000000000000000000000000000000000000007bffffffffffffffffffffffffffffffffffffffffffffffffffffffff1916827bffffffffffffffffffffffffffffffffffffffffffffffffffffffff1916149050919050565b600073ffffffffffffffffffffffffffffffffffffffff168473ffffffffffffffffffffffffffffffffffffffff161415611e18576040517f08c379a0000000000000000000000000000000000000000000000000000000008152600401611e0f90614ba3565b60405180910390fd5b6000611e22611f3e565b9050611e4381600087611e3488612898565b611e3d88612898565b87612912565b8260008086815260200190815260200160002060008773ffffffffffffffffffffffffffffffffffffffff1673ffffffffffffffffffffffffffffffffffffffff1681526020019081526020016000206000828254611ea29190614bc3565b925050819055508473ffffffffffffffffffffffffffffffffffffffff16600073ffffffffffffffffffffffffffffffffffffffff168273ffffffffffffffffffffffffffffffffffffffff167fc3d58168c5ae7397731d063d5bbf3d657854427343f4c083240f7aacaa2d0f628787604051611f20929190614c19565b60405180910390a4611f3781600087878787612a6c565b5050505050565b600033905090565b8151835114611f8a576040517f08c379a0000000000000000000000000000000000000000000000000000000008152600401611f8190614cb4565b60405180910390fd5b600073ffffffffffffffffffffffffffffffffffffffff168473ffffffffffffffffffffffffffffffffffffffff161415611ffa576040517f08c379a0000000000000000000000000000000000000000000000000000000008152600401611ff190614d46565b60405180910390fd5b6000612004611f3e565b9050612014818787878787612912565b60005b84518110156121c55760008582815181106120355761203461471f565b5b6020026020010151905060008583815181106120545761205361471f565b5b60200260200101519050600080600084815260200190815260200160002060008b73ffffffffffffffffffffffffffffffffffffffff1673ffffffffffffffffffffffffffffffffffffffff168152602001908152602001600020549050818110156120f5576040517f08c379a00000000000000000000000000000000000000000000000000000000081526004016120ec90614dd8565b60405180910390fd5b81810360008085815260200190815260200160002060008c73ffffffffffffffffffffffffffffffffffffffff1673ffffffffffffffffffffffffffffffffffffffff168152602001908152602001600020819055508160008085815260200190815260200160002060008b73ffffffffffffffffffffffffffffffffffffffff1673ffffffffffffffffffffffffffffffffffffffff16815260200190815260200160002060008282546121aa9190614bc3565b92505081905550505050806121be9061477d565b9050612017565b508473ffffffffffffffffffffffffffffffffffffffff168673ffffffffffffffffffffffffffffffffffffffff168273ffffffffffffffffffffffffffffffffffffffff167f4a39dc06d4c0dbc64b70af90fd698a233a518aa5d07e595d983b8c0526c8f7fb878760405161223c929190614df8565b60405180910390a4612252818787878787612c44565b505050505050565b600080600084116122a0576040517f08c379a000000000000000000000000000000000000000000000000000000000815260040161229790614e7b565b60405180910390fd5b6122a8612e1c565b8411156122ea576040517f08c379a00000000000000000000000000000000000000000000000000000000081526004016122e190614ee7565b60405180910390fd5b60006123028585600001612e2d90919063ffffffff16565b90508360000180549050811415612320576000809250925050612349565b60018460010182815481106123385761233761471f565b5b906000526020600020015492509250505b9250929050565b8173ffffffffffffffffffffffffffffffffffffffff168373ffffffffffffffffffffffffffffffffffffffff1614156123bf576040517f08c379a00000000000000000000000000000000000000000000000000000000081526004016123b690614f79565b60405180910390fd5b80600160008573ffffffffffffffffffffffffffffffffffffffff1673ffffffffffffffffffffffffffffffffffffffff16815260200190815260200160002060008473ffffffffffffffffffffffffffffffffffffffff1673ffffffffffffffffffffffffffffffffffffffff16815260200190815260200160002060006101000a81548160ff0219169083151502179055508173ffffffffffffffffffffffffffffffffffffffff168373ffffffffffffffffffffffffffffffffffffffff167f17307eab39ab6107e8899845ad3d59bd9653f200f220920489ca2b5937696c31836040516124b09190613646565b60405180910390a3505050565b6124c561343f565b6000846040015185602001516124db9190614f99565b905060008560400151905061250130868460405180602001604052806000815250611da8565b61251c32868360405180602001604052806000815250611da8565b60006040518060c001604052808860000151815260200188606001518152602001886080015181526020014281526020016001151581526020018781525090507f49debfc18817e7e3ec2948391bcc3a87349b3c716f7d470d223bfbf8928aa65a87600001518860600151896080015184606001518b602001518b8b6040516125ab9796959493929190614fe9565b60405180910390a18093505050509392505050565b60006125cc6006612f07565b60006125d6612e1c565b90507f8030e83b04d87bef53480e26263266d6ca66863aa8506aca6f2559d18aa1cb6781604051612607919061358b565b60405180910390a18091505090565b600073ffffffffffffffffffffffffffffffffffffffff168473ffffffffffffffffffffffffffffffffffffffff161415612686576040517f08c379a000000000000000000000000000000000000000000000000000000000815260040161267d90614d46565b60405180910390fd5b6000612690611f3e565b90506126b08187876126a188612898565b6126aa88612898565b87612912565b600080600086815260200190815260200160002060008873ffffffffffffffffffffffffffffffffffffffff1673ffffffffffffffffffffffffffffffffffffffff16815260200190815260200160002054905083811015612747576040517f08c379a000000000000000000000000000000000000000000000000000000000815260040161273e90614dd8565b60405180910390fd5b83810360008087815260200190815260200160002060008973ffffffffffffffffffffffffffffffffffffffff1673ffffffffffffffffffffffffffffffffffffffff168152602001908152602001600020819055508360008087815260200190815260200160002060008873ffffffffffffffffffffffffffffffffffffffff1673ffffffffffffffffffffffffffffffffffffffff16815260200190815260200160002060008282546127fc9190614bc3565b925050819055508573ffffffffffffffffffffffffffffffffffffffff168773ffffffffffffffffffffffffffffffffffffffff168373ffffffffffffffffffffffffffffffffffffffff167fc3d58168c5ae7397731d063d5bbf3d657854427343f4c083240f7aacaa2d0f628888604051612879929190614c19565b60405180910390a461288f828888888888612a6c565b50505050505050565b60606000600167ffffffffffffffff8111156128b7576128b661377d565b5b6040519080825280602002602001820160405280156128e55781602001602082028036833780820191505090505b50905082816000815181106128fd576128fc61471f565b5b60200260200101818152505080915050919050565b600073ffffffffffffffffffffffffffffffffffffffff16600860009054906101000a900473ffffffffffffffffffffffffffffffffffffffff1673ffffffffffffffffffffffffffffffffffffffff1614612a56576000600860009054906101000a900473ffffffffffffffffffffffffffffffffffffffff16905060005b8451811015612a53578173ffffffffffffffffffffffffffffffffffffffff16631de841ba88888785815181106129cc576129cb61471f565b5b60200260200101518986815181106129e7576129e661471f565b5b60200260200101516040518563ffffffff1660e01b8152600401612a0e9493929190615066565b600060405180830381600087803b158015612a2857600080fd5b505af1158015612a3c573d6000803e3d6000fd5b505050508080612a4b9061477d565b915050612992565b50505b612a64868686868686612f1d565b505050505050565b612a8b8473ffffffffffffffffffffffffffffffffffffffff16612fe3565b15612c3c578373ffffffffffffffffffffffffffffffffffffffff1663f23a6e6187878686866040518663ffffffff1660e01b8152600401612ad19594939291906150f5565b6020604051808303816000875af1925050508015612b0d57506040513d601f19601f82011682018060405250810190612b0a9190615164565b60015b612bb357612b1961519e565b806308c379a01415612b765750612b2e6151c0565b80612b395750612b78565b806040517f08c379a0000000000000000000000000000000000000000000000000000000008152600401612b6d9190613727565b60405180910390fd5b505b6040517f08c379a0000000000000000000000000000000000000000000000000000000008152600401612baa906152c8565b60405180910390fd5b63f23a6e6160e01b7bffffffffffffffffffffffffffffffffffffffffffffffffffffffff1916817bffffffffffffffffffffffffffffffffffffffffffffffffffffffff191614612c3a576040517f08c379a0000000000000000000000000000000000000000000000000000000008152600401612c319061535a565b60405180910390fd5b505b505050505050565b612c638473ffffffffffffffffffffffffffffffffffffffff16612fe3565b15612e14578373ffffffffffffffffffffffffffffffffffffffff1663bc197c8187878686866040518663ffffffff1660e01b8152600401612ca995949392919061537a565b6020604051808303816000875af1925050508015612ce557506040513d601f19601f82011682018060405250810190612ce29190615164565b60015b612d8b57612cf161519e565b806308c379a01415612d4e5750612d066151c0565b80612d115750612d50565b806040517f08c379a0000000000000000000000000000000000000000000000000000000008152600401612d459190613727565b60405180910390fd5b505b6040517f08c379a0000000000000000000000000000000000000000000000000000000008152600401612d82906152c8565b60405180910390fd5b63bc197c8160e01b7bffffffffffffffffffffffffffffffffffffffffffffffffffffffff1916817bffffffffffffffffffffffffffffffffffffffffffffffffffffffff191614612e12576040517f08c379a0000000000000000000000000000000000000000000000000000000008152600401612e099061535a565b60405180910390fd5b505b505050505050565b6000612e286006613006565b905090565b60008083805490501415612e445760009050612f01565b600080848054905090505b80821015612ea8576000612e638383613014565b905084868281548110612e7957612e7861471f565b5b90600052602060002001541115612e9257809150612ea2565b600181612e9f9190614bc3565b92505b50612e4f565b600082118015612ee057508385600184612ec29190614f99565b81548110612ed357612ed261471f565b5b9060005260206000200154145b15612efb57600182612ef29190614f99565b92505050612f01565b81925050505b92915050565b6001816000016000828254019250508190555050565b600073ffffffffffffffffffffffffffffffffffffffff168573ffffffffffffffffffffffffffffffffffffffff161415612f6a57612f5c848461303a565b612f65836130f4565b612fcd565b600073ffffffffffffffffffffffffffffffffffffffff168473ffffffffffffffffffffffffffffffffffffffff161415612fb757612fa9858461303a565b612fb2836130f4565b612fcc565b612fc1858461303a565b612fcb848461303a565b5b5b612fdb86868686868661316f565b505050505050565b6000808273ffffffffffffffffffffffffffffffffffffffff163b119050919050565b600081600001549050919050565b600060028284186130259190615411565b8284166130329190614bc3565b905092915050565b60005b81518110156130ef576130dc600460008573ffffffffffffffffffffffffffffffffffffffff1673ffffffffffffffffffffffffffffffffffffffff168152602001908152602001600020600084848151811061309d5761309c61471f565b5b602002602001015181526020019081526020016000206130d7858585815181106130ca576130c961471f565b5b6020026020010151610705565b6132e9565b80806130e79061477d565b91505061303d565b505050565b60005b815181101561316b576131586005600084848151811061311a5761311961471f565b5b602002602001015181526020019081526020016000206131538484815181106131465761314561471f565b5b60200260200101516119fe565b6132e9565b80806131639061477d565b9150506130f7565b5050565b61317d868686868686613364565b600073ffffffffffffffffffffffffffffffffffffffff168573ffffffffffffffffffffffffffffffffffffffff16141561322f5760005b835181101561322d578281815181106131d1576131d061471f565b5b6020026020010151600360008684815181106131f0576131ef61471f565b5b6020026020010151815260200190815260200160002060008282546132159190614bc3565b92505081905550806132269061477d565b90506131b5565b505b600073ffffffffffffffffffffffffffffffffffffffff168473ffffffffffffffffffffffffffffffffffffffff1614156132e15760005b83518110156132df578281815181106132835761328261471f565b5b6020026020010151600360008684815181106132a2576132a161471f565b5b6020026020010151815260200190815260200160002060008282546132c79190614f99565b92505081905550806132d89061477d565b9050613267565b505b505050505050565b60006132f3612e1c565b9050806133028460000161336c565b101561335f5782600001819080600181540180825580915050600190039060005260206000200160009091909190915055826001018290806001815401808255809150506001900390600052602060002001600090919091909150555b505050565b505050505050565b6000808280549050141561338357600090506133b4565b81600183805490506133959190614f99565b815481106133a6576133a561471f565b5b906000526020600020015490505b919050565b8280546133c590614537565b90600052602060002090601f0160209004810192826133e7576000855561342e565b82601f1061340057805160ff191683800117855561342e565b8280016001018555821561342e579182015b8281111561342d578251825591602001919060010190613412565b5b50905061343b9190613477565b5090565b6040518060c0016040528060008152602001606081526020016060815260200160008152602001600015158152602001600081525090565b5b80821115613490576000816000905550600101613478565b5090565b6000604051905090565b600080fd5b600080fd5b600073ffffffffffffffffffffffffffffffffffffffff82169050919050565b60006134d3826134a8565b9050919050565b6134e3816134c8565b81146134ee57600080fd5b50565b600081359050613500816134da565b92915050565b6000819050919050565b61351981613506565b811461352457600080fd5b50565b60008135905061353681613510565b92915050565b600080604083850312156135535761355261349e565b5b6000613561858286016134f1565b925050602061357285828601613527565b9150509250929050565b61358581613506565b82525050565b60006020820190506135a0600083018461357c565b92915050565b60007fffffffff0000000000000000000000000000000000000000000000000000000082169050919050565b6135db816135a6565b81146135e657600080fd5b50565b6000813590506135f8816135d2565b92915050565b6000602082840312156136145761361361349e565b5b6000613622848285016135e9565b91505092915050565b60008115159050919050565b6136408161362b565b82525050565b600060208201905061365b6000830184613637565b92915050565b6000602082840312156136775761367661349e565b5b600061368584828501613527565b91505092915050565b600081519050919050565b600082825260208201905092915050565b60005b838110156136c85780820151818401526020810190506136ad565b838111156136d7576000848401525b50505050565b6000601f19601f8301169050919050565b60006136f98261368e565b6137038185613699565b93506137138185602086016136aa565b61371c816136dd565b840191505092915050565b6000602082019050818103600083015261374181846136ee565b905092915050565b613752816134c8565b82525050565b600060208201905061376d6000830184613749565b92915050565b600080fd5b600080fd5b7f4e487b7100000000000000000000000000000000000000000000000000000000600052604160045260246000fd5b6137b5826136dd565b810181811067ffffffffffffffff821117156137d4576137d361377d565b5b80604052505050565b60006137e7613494565b90506137f382826137ac565b919050565b600067ffffffffffffffff8211156138135761381261377d565b5b61381c826136dd565b9050602081019050919050565b82818337600083830152505050565b600061384b613846846137f8565b6137dd565b90508281526020810184848401111561386757613866613778565b5b613872848285613829565b509392505050565b600082601f83011261388f5761388e613773565b5b813561389f848260208601613838565b91505092915050565b6000602082840312156138be576138bd61349e565b5b600082013567ffffffffffffffff8111156138dc576138db6134a3565b5b6138e88482850161387a565b91505092915050565b600080604083850312156139085761390761349e565b5b600061391685828601613527565b925050602061392785828601613527565b9150509250929050565b6000602082840312156139475761394661349e565b5b6000613955848285016134f1565b91505092915050565b600067ffffffffffffffff8211156139795761397861377d565b5b602082029050602081019050919050565b600080fd5b60006139a261399d8461395e565b6137dd565b905080838252602082019050602084028301858111156139c5576139c461398a565b5b835b818110156139ee57806139da8882613527565b8452602084019350506020810190506139c7565b5050509392505050565b600082601f830112613a0d57613a0c613773565b5b8135613a1d84826020860161398f565b91505092915050565b600067ffffffffffffffff821115613a4157613a4061377d565b5b613a4a826136dd565b9050602081019050919050565b6000613a6a613a6584613a26565b6137dd565b905082815260208101848484011115613a8657613a85613778565b5b613a91848285613829565b509392505050565b600082601f830112613aae57613aad613773565b5b8135613abe848260208601613a57565b91505092915050565b600080600080600060a08688031215613ae357613ae261349e565b5b6000613af1888289016134f1565b9550506020613b02888289016134f1565b945050604086013567ffffffffffffffff811115613b2357613b226134a3565b5b613b2f888289016139f8565b935050606086013567ffffffffffffffff811115613b5057613b4f6134a3565b5b613b5c888289016139f8565b925050608086013567ffffffffffffffff811115613b7d57613b7c6134a3565b5b613b8988828901613a99565b9150509295509295909350565b600067ffffffffffffffff821115613bb157613bb061377d565b5b602082029050602081019050919050565b6000613bd5613bd084613b96565b6137dd565b90508083825260208201905060208402830185811115613bf857613bf761398a565b5b835b81811015613c215780613c0d88826134f1565b845260208401935050602081019050613bfa565b5050509392505050565b600082601f830112613c4057613c3f613773565b5b8135613c50848260208601613bc2565b91505092915050565b60008060408385031215613c7057613c6f61349e565b5b600083013567ffffffffffffffff811115613c8e57613c8d6134a3565b5b613c9a85828601613c2b565b925050602083013567ffffffffffffffff811115613cbb57613cba6134a3565b5b613cc7858286016139f8565b9150509250929050565b600081519050919050565b600082825260208201905092915050565b6000819050602082019050919050565b613d0681613506565b82525050565b6000613d188383613cfd565b60208301905092915050565b6000602082019050919050565b6000613d3c82613cd1565b613d468185613cdc565b9350613d5183613ced565b8060005b83811015613d82578151613d698882613d0c565b9750613d7483613d24565b925050600181019050613d55565b5085935050505092915050565b60006020820190508181036000830152613da98184613d31565b905092915050565b60008060408385031215613dc857613dc761349e565b5b600083013567ffffffffffffffff811115613de657613de56134a3565b5b613df28582860161387a565b925050602083013567ffffffffffffffff811115613e1357613e126134a3565b5b613e1f8582860161387a565b9150509250929050565b600080600060608486031215613e4257613e4161349e565b5b6000613e50868287016134f1565b9350506020613e6186828701613527565b9250506040613e7286828701613527565b9150509250925092565b60008060008060008060c08789031215613e9957613e9861349e565b5b6000613ea789828a016134f1565b9650506020613eb889828a01613527565b9550506040613ec989828a01613527565b9450506060613eda89828a01613527565b9350506080613eeb89828a01613527565b92505060a0613efc89828a016134f1565b9150509295509295509295565b600080fd5b600080fd5b600060a08284031215613f2957613f28613f09565b5b613f3360a06137dd565b90506000613f4384828501613527565b6000830152506020613f5784828501613527565b6020830152506040613f6b84828501613527565b604083015250606082013567ffffffffffffffff811115613f8f57613f8e613f0e565b5b613f9b8482850161387a565b606083015250608082013567ffffffffffffffff811115613fbf57613fbe613f0e565b5b613fcb8482850161387a565b60808301525092915050565b600060208284031215613fed57613fec61349e565b5b600082013567ffffffffffffffff81111561400b5761400a6134a3565b5b61401784828501613f13565b91505092915050565b600060c082019050614035600083018961357c565b818103602083015261404781886136ee565b9050818103604083015261405b81876136ee565b905061406a606083018661357c565b6140776080830185613637565b61408460a083018461357c565b979650505050505050565b6000806000606084860312156140a8576140a761349e565b5b60006140b686828701613527565b93505060206140c786828701613527565b92505060406140d886828701613527565b9150509250925092565b6140eb8161362b565b81146140f657600080fd5b50565b600081359050614108816140e2565b92915050565b600080604083850312156141255761412461349e565b5b6000614133858286016134f1565b9250506020614144858286016140f9565b9150509250929050565b600080fd5b60008083601f84011261416957614168613773565b5b8235905067ffffffffffffffff8111156141865761418561414e565b5b6020830191508360208202830111156141a2576141a161398a565b5b9250929050565b60008083601f8401126141bf576141be613773565b5b8235905067ffffffffffffffff8111156141dc576141db61414e565b5b6020830191508360018202830111156141f8576141f761398a565b5b9250929050565b60008060008060008060008060a0898b03121561421f5761421e61349e565b5b600061422d8b828c016134f1565b985050602061423e8b828c016134f1565b975050604089013567ffffffffffffffff81111561425f5761425e6134a3565b5b61426b8b828c01614153565b9650965050606089013567ffffffffffffffff81111561428e5761428d6134a3565b5b61429a8b828c01614153565b9450945050608089013567ffffffffffffffff8111156142bd576142bc6134a3565b5b6142c98b828c016141a9565b92509250509295985092959890939650565b6142e4816135a6565b82525050565b60006020820190506142ff60008301846142db565b92915050565b6000806040838503121561431c5761431b61349e565b5b600061432a858286016134f1565b925050602061433b858286016134f1565b9150509250929050565b60008060008060008060a087890312156143625761436161349e565b5b600061437089828a016134f1565b965050602061438189828a016134f1565b955050604061439289828a01613527565b94505060606143a389828a01613527565b935050608087013567ffffffffffffffff8111156143c4576143c36134a3565b5b6143d089828a016141a9565b92509250509295509295509295565b600080600080600060a086880312156143fb576143fa61349e565b5b6000614409888289016134f1565b955050602061441a888289016134f1565b945050604061442b88828901613527565b935050606061443c88828901613527565b925050608086013567ffffffffffffffff81111561445d5761445c6134a3565b5b61446988828901613a99565b9150509295509295909350565b7f455243313135353a2062616c616e636520717565727920666f7220746865207a60008201527f65726f2061646472657373000000000000000000000000000000000000000000602082015250565b60006144d2602b83613699565b91506144dd82614476565b604082019050919050565b60006020820190508181036000830152614501816144c5565b9050919050565b7f4e487b7100000000000000000000000000000000000000000000000000000000600052602260045260246000fd5b6000600282049050600182168061454f57607f821691505b6020821081141561456357614562614508565b5b50919050565b7f554e415554484f52495a45443a2043414e4e4f545f504552464f524d5f41435460008201527f494f4e0000000000000000000000000000000000000000000000000000000000602082015250565b60006145c5602383613699565b91506145d082614569565b604082019050919050565b600060208201905081810360008301526145f4816145b8565b9050919050565b7f455243313135353a207472616e736665722063616c6c6572206973206e6f742060008201527f6f776e6572206e6f7220617070726f7665640000000000000000000000000000602082015250565b6000614657603283613699565b9150614662826145fb565b604082019050919050565b600060208201905081810360008301526146868161464a565b9050919050565b7f455243313135353a206163636f756e747320616e6420696473206c656e67746860008201527f206d69736d617463680000000000000000000000000000000000000000000000602082015250565b60006146e9602983613699565b91506146f48261468d565b604082019050919050565b60006020820190508181036000830152614718816146dc565b9050919050565b7f4e487b7100000000000000000000000000000000000000000000000000000000600052603260045260246000fd5b7f4e487b7100000000000000000000000000000000000000000000000000000000600052601160045260246000fd5b600061478882613506565b91507fffffffffffffffffffffffffffffffffffffffffffffffffffffffffffffffff8214156147bb576147ba61474e565b5b600182019050919050565b600081905092915050565b60006147dc8261368e565b6147e681856147c6565b93506147f68185602086016136aa565b80840191505092915050565b600061480e82846147d1565b915081905092915050565b600060a08201905061482e6000830188613749565b61483b602083018761357c565b614848604083018661357c565b614855606083018561357c565b614862608083018461357c565b9695505050505050565b60008190508160005260206000209050919050565b6000815461488e81614537565b61489881866147c6565b945060018216600081146148b357600181146148c4576148f7565b60ff198316865281860193506148f7565b6148cd8561486c565b60005b838110156148ef578154818901526001820191506020810190506148d0565b838801955050505b50505092915050565b600061490c8284614881565b915081905092915050565b600081519050919050565b600081905092915050565b600061493882614917565b6149428185614922565b93506149528185602086016136aa565b80840191505092915050565b600061496a828561492d565b915061497682846147d1565b91508190509392505050565b7f494e56414c49443a2057524f4e475f5245434f52445f49440000000000000000600082015250565b60006149b8601883613699565b91506149c382614982565b602082019050919050565b600060208201905081810360008301526149e7816149ab565b9050919050565b7f494e56414c49443a2057524f4e475f544f4b454e5f4944000000000000000000600082015250565b6000614a24601783613699565b9150614a2f826149ee565b602082019050919050565b60006020820190508181036000830152614a5381614a17565b9050919050565b6000608082019050614a6f600083018761357c565b614a7c602083018661357c565b614a89604083018561357c565b614a96606083018461357c565b95945050505050565b7f455243313135353a2063616c6c6572206973206e6f74206f776e6572206e6f7260008201527f20617070726f7665640000000000000000000000000000000000000000000000602082015250565b6000614afb602983613699565b9150614b0682614a9f565b604082019050919050565b60006020820190508181036000830152614b2a81614aee565b9050919050565b7f455243313135353a206d696e7420746f20746865207a65726f2061646472657360008201527f7300000000000000000000000000000000000000000000000000000000000000602082015250565b6000614b8d602183613699565b9150614b9882614b31565b604082019050919050565b60006020820190508181036000830152614bbc81614b80565b9050919050565b6000614bce82613506565b9150614bd983613506565b9250827fffffffffffffffffffffffffffffffffffffffffffffffffffffffffffffffff03821115614c0e57614c0d61474e565b5b828201905092915050565b6000604082019050614c2e600083018561357c565b614c3b602083018461357c565b9392505050565b7f455243313135353a2069647320616e6420616d6f756e7473206c656e6774682060008201527f6d69736d61746368000000000000000000000000000000000000000000000000602082015250565b6000614c9e602883613699565b9150614ca982614c42565b604082019050919050565b60006020820190508181036000830152614ccd81614c91565b9050919050565b7f455243313135353a207472616e7366657220746f20746865207a65726f20616460008201527f6472657373000000000000000000000000000000000000000000000000000000602082015250565b6000614d30602583613699565b9150614d3b82614cd4565b604082019050919050565b60006020820190508181036000830152614d5f81614d23565b9050919050565b7f455243313135353a20696e73756666696369656e742062616c616e636520666f60008201527f72207472616e7366657200000000000000000000000000000000000000000000602082015250565b6000614dc2602a83613699565b9150614dcd82614d66565b604082019050919050565b60006020820190508181036000830152614df181614db5565b9050919050565b60006040820190508181036000830152614e128185613d31565b90508181036020830152614e268184613d31565b90509392505050565b7f4552433230536e617073686f743a206964206973203000000000000000000000600082015250565b6000614e65601683613699565b9150614e7082614e2f565b602082019050919050565b60006020820190508181036000830152614e9481614e58565b9050919050565b7f4552433230536e617073686f743a206e6f6e6578697374656e74206964000000600082015250565b6000614ed1601d83613699565b9150614edc82614e9b565b602082019050919050565b60006020820190508181036000830152614f0081614ec4565b9050919050565b7f455243313135353a2073657474696e6720617070726f76616c2073746174757360008201527f20666f722073656c660000000000000000000000000000000000000000000000602082015250565b6000614f63602983613699565b9150614f6e82614f07565b604082019050919050565b60006020820190508181036000830152614f9281614f56565b9050919050565b6000614fa482613506565b9150614faf83613506565b925082821015614fc257614fc161474e565b5b828203905092915050565b600060ff82169050919050565b614fe381614fcd565b82525050565b600060e082019050614ffe600083018a61357c565b818103602083015261501081896136ee565b9050818103604083015261502481886136ee565b9050615033606083018761357c565b615040608083018661357c565b61504d60a083018561357c565b61505a60c0830184614fda565b98975050505050505050565b600060808201905061507b6000830187613749565b6150886020830186613749565b615095604083018561357c565b6150a2606083018461357c565b95945050505050565b600082825260208201905092915050565b60006150c782614917565b6150d181856150ab565b93506150e18185602086016136aa565b6150ea816136dd565b840191505092915050565b600060a08201905061510a6000830188613749565b6151176020830187613749565b615124604083018661357c565b615131606083018561357c565b818103608083015261514381846150bc565b90509695505050505050565b60008151905061515e816135d2565b92915050565b60006020828403121561517a5761517961349e565b5b60006151888482850161514f565b91505092915050565b60008160e01c9050919050565b600060033d11156151bd5760046000803e6151ba600051615191565b90505b90565b600060443d10156151d057615253565b6151d8613494565b60043d036004823e80513d602482011167ffffffffffffffff82111715615200575050615253565b808201805167ffffffffffffffff81111561521e5750505050615253565b80602083010160043d03850181111561523b575050505050615253565b61524a826020018501866137ac565b82955050505050505b90565b7f455243313135353a207472616e7366657220746f206e6f6e204552433131353560008201527f526563656976657220696d706c656d656e746572000000000000000000000000602082015250565b60006152b2603483613699565b91506152bd82615256565b604082019050919050565b600060208201905081810360008301526152e1816152a5565b9050919050565b7f455243313135353a204552433131353552656365697665722072656a6563746560008201527f6420746f6b656e73000000000000000000000000000000000000000000000000602082015250565b6000615344602883613699565b915061534f826152e8565b604082019050919050565b6000602082019050818103600083015261537381615337565b9050919050565b600060a08201905061538f6000830188613749565b61539c6020830187613749565b81810360408301526153ae8186613d31565b905081810360608301526153c28185613d31565b905081810360808301526153d681846150bc565b90509695505050505050565b7f4e487b7100000000000000000000000000000000000000000000000000000000600052601260045260246000fd5b600061541c82613506565b915061542783613506565b925082615437576154366153e2565b5b82820490509291505056fe546f6b656e206d696e746564207468726f75676820766f74696e672070726f63657373a264697066735822122062daacb9873a4ca770ea1fd1a219bad88219bdba746eb39cecd000af17a40ee364736f6c634300080c0033",
  "immutableReferences": {},
  "source": "pragma solidity ^0.8.0;\n\nimport \"@openzeppelin/contracts/token/ERC1155/ERC1155.sol\";\nimport \"@openzeppelin/contracts/token/ERC1155/IERC1155Receiver.sol\";\nimport \"@openzeppelin/contracts/token/ERC1155/extensions/ERC1155Supply.sol\";\nimport \"@openzeppelin/contracts/utils/Counters.sol\";\nimport \"@openzeppelin/contracts/access/Ownable.sol\";\nimport \"../interface/IRecords.sol\";\nimport \"../ERC1155/SnapshotERC1155.sol\";\nimport \"@openzeppelin/contracts/utils/math/SafeMath.sol\";\nimport \"../voting/VotingHubContract.sol\";\n\ncontract TreasuryCoreContract is IERC1155Receiver, SnapshotERC1155 {\n    uint256 public constant CRD = 1;\n    uint256 private LastTokenId = 1;\n    address public VOTING_HUB_ADDRESS;\n    address public TREASURY_CONTRACT_ADDRESS;\n    address public OWNER;\n    string private PREFIX_GOVERNANCE = \"CRDG_\";\n    string private PREFIX_COMMUNITY = \"CRD_\";\n    uint8 private TOKEN_TYPE_COMMUNITY = 0;\n    uint8 private TOKEN_TYPE_GOVERNANCE = 1;\n\n    /// @dev This structure will store information of tokens for each records\n    /// @param recordId This is the id of record to which a token belongs\n    /// @param symbol This is the symbol of a token\n    /// @param image This is the token image\n    /// @param creationDate This is the block number of creation date\n    /// @param isPresent This is to check if a token struct exists or not\n    /// @param tokenId This is the id of the token that is created\n    struct Token {\n        uint256 recordId;\n        string symbol;\n        string image;\n        uint256 creationDate;\n        bool isPresent;\n        uint256 tokenId;\n    }\n\n    /// @dev This structure will store information of the contribution\n    /// @param recordId This is the id of the record to which contribution belongs to\n    /// @param totalSupply Total supply of token\n    /// @param userBalance The amount of tokens that goes into creators wallet\n    /// @param symbol This is the symbol of the token\n    /// @param image This is the link of the image / icon of the token\n    struct NewTokenData {\n        uint256 recordId;\n        uint256 totalSupply;\n        uint256 userBalance;\n        string symbol;\n        string image;\n    }\n\n    /// @dev this is event which is created when a token transfer takes place\n    /// @param from This is the address of sender\n    /// @param to This is the address of receiver\n    /// @param transferDate This is the date of the transfer\n    /// @param tokenId This is the id of the token that is being transferred\n    /// @param amount This is the amount of token transferred\n    /// @param symbol This is the symbol of the token that were transferred\n    event TokenTransfer(\n        address from,\n        address to,\n        uint256 transferDate,\n        uint256 tokenId,\n        uint256 amount,\n        string symbol\n    );\n\n    /// @dev this is event which is created when new governance token is created (NEW CREATION Not MINTING)\n    /// @param recordId This is the record Id to which this token belongs to\n    /// @param symbol This is the symbol of the governance token\n    /// @param image This is the image of the token\n    /// @param creationDate This is the creation date of the token\n    /// @param tokenAmount This is the amount of token that are created\n    /// @param tokenId This is the id of token that is newly created tokens\n    /// @param tokenType This is the type of the token that is created => For governance 1 and for copyright 0\n    event NewTokenCreated(\n        uint256 recordId,\n        string symbol,\n        string image,\n        uint256 creationDate,\n        uint256 tokenAmount,\n        uint256 tokenId,\n        uint8 tokenType\n    );\n\n    /// @dev this is event which is created when new governance token is minted after the voting is done\n    /// @param recordId This is the record Id to which this token belongs to\n    /// @param creationDate This is the creation date of the token\n    /// @param tokenAmount This is the amount of token that are created\n    /// @param tokenId This is the id of token that is newly created tokens\n    event TokenMinted(\n        uint256 recordId,\n        uint256 tokenId,\n        uint256 creationDate,\n        uint256 tokenAmount\n    );\n\n    /// @dev this is event which is generated when a contribution voting has came to an\n    /// end and the contribution is accepted\n    /// @param to This the address of the winner or the owner of the contribution\n    /// @param recordId This is the id of the record to which this contribution relates to\n    /// @param contributionId This is the id of the contribution to which the record is related to\n    /// @param rewardGovernance The reward amount for governance tokens\n    /// @param rewardCommunity The reward amount for community tokens\n    event ContributionRewardTransferred(\n        address to,\n        uint256 recordId,\n        uint256 contributionId,\n        uint256 rewardGovernance,\n        uint256 rewardCommunity\n    );\n\n    mapping(uint256 => Token) public govTokenMapping;\n    mapping(uint256 => Token) public commTokenMapping;\n\n    mapping(string => bool) public govTokenSym;\n    mapping(string => bool) public commTokenSym;\n\n    // By default URI to crowdrecords domain\n    // 18 decimal points supported\n    constructor(address owner) ERC1155(\"https://crowdrecords.com/{id}\") {\n        OWNER = owner;\n    }\n\n    /// @dev Modifier to check that the person who accesses a specific function is the owner of contract himself.\n    modifier ownerOnly() {\n        require(msg.sender == OWNER, \"UNAUTHORIZED: CANNOT_PERFORM_ACTION\");\n        _;\n    }\n\n    /// @dev Modifier to check that the person who accesses a specific function is the owner of contract himself.\n    modifier onlyTreasuryContract() {\n        require(\n            msg.sender == TREASURY_CONTRACT_ADDRESS,\n            \"UNAUTHORIZED: CANNOT_PERFORM_ACTION\"\n        );\n        _;\n    }\n\n    /// @dev This function sets the Records Contract address\n    /// @param newVotingHubContract This is the address of new voting hub contract\n    function setVotingHubContract(address newVotingHubContract)\n        public\n        ownerOnly\n    {\n        VOTING_HUB_ADDRESS = newVotingHubContract;\n    }\n\n    /// @dev This function sets the treasury Contract address\n    /// @param newTreasuryAddress This is the address of new voting hub contract\n    function setTreasuryContract(address newTreasuryAddress) public ownerOnly {\n        TREASURY_CONTRACT_ADDRESS = newTreasuryAddress;\n    }\n\n    /// @dev This function creates new governance tokens for specified record\n    /// @param newTokenData This contains all the parameters needed to create a new governance token that are\n    function createNewGovernanceToken(NewTokenData memory newTokenData)\n        external\n        onlyTreasuryContract\n        returns (uint256)\n    {\n        {\n            bytes memory preString = abi.encodePacked(PREFIX_GOVERNANCE);\n            newTokenData.symbol = string(\n                abi.encodePacked(preString, newTokenData.symbol)\n            );\n        }\n\n        LastTokenId++;\n        uint256 newTokenId = LastTokenId;\n\n        //Map the recordId with the\n        govTokenMapping[newTokenData.recordId] = createToken(\n            newTokenData,\n            newTokenId,\n            TOKEN_TYPE_GOVERNANCE\n        );\n\n        return newTokenId;\n    }\n\n    /// @dev This function creats new community tokens for specified record\n    /// @param newTokenData This contains all the parameters needed to create a new community token that are\n    function createNewCommunityToken(NewTokenData memory newTokenData)\n        external\n        onlyTreasuryContract\n        returns (uint256)\n    {\n        {\n            bytes memory preString = abi.encodePacked(PREFIX_COMMUNITY);\n            newTokenData.symbol = string(\n                abi.encodePacked(preString, newTokenData.symbol)\n            );\n        }\n\n        LastTokenId++;\n        uint256 newTokenId = LastTokenId;\n\n        //Map the recordId with the\n        commTokenMapping[newTokenData.recordId] = createToken(\n            newTokenData,\n            newTokenId,\n            TOKEN_TYPE_COMMUNITY\n        );\n\n        return newTokenId;\n    }\n\n    /// @dev This function is an internal use only function whoes role is to create a new token of specified type\n    /// @param newTokenData This contains all the parameters needed to create a new community token that are\n    /// @param newTokenId - This is the Id of the token to create\n    /// @param tokenType - This is the type of token that is to be created such as community or governance\n    function createToken(\n        NewTokenData memory newTokenData,\n        uint256 newTokenId,\n        uint8 tokenType\n    ) private returns (Token memory) {\n        uint256 treasuryAmount = (newTokenData.totalSupply -\n            newTokenData.userBalance);\n        uint256 userAmount = newTokenData.userBalance;\n\n        // Here minting of new tokens is done. And those are sent directly into the treasury\n        _mint(address(this), newTokenId, treasuryAmount, \"\");\n\n        // The user requested amount of tokens is generated and send to his account\n        _mint(tx.origin, newTokenId, userAmount, \"\");\n\n        Token memory token = Token({\n            recordId: newTokenData.recordId,\n            symbol: newTokenData.symbol,\n            image: newTokenData.image,\n            creationDate: block.timestamp,\n            isPresent: true,\n            tokenId: newTokenId\n        });\n\n        emit NewTokenCreated({\n            recordId: newTokenData.recordId,\n            symbol: newTokenData.symbol,\n            image: newTokenData.image,\n            creationDate: token.creationDate,\n            tokenAmount: newTokenData.totalSupply,\n            tokenId: newTokenId,\n            tokenType: tokenType\n        });\n\n        return token;\n    }\n\n    /// @dev This function creats new community tokens for specified record\n    /// @param recordId This is the id of the record to which the token belongs to\n    /// @param tokenId This is the id of the which is to be minted\n    /// @param tokenAmount This is the amount that is to be minted\n    function mintTokens(\n        uint256 recordId,\n        uint256 tokenId,\n        uint256 tokenAmount\n    ) external onlyTreasuryContract {\n        require(\n            commTokenMapping[recordId].isPresent == true ||\n                govTokenMapping[recordId].isPresent == true,\n            \"INVALID: WRONG_RECORD_ID\"\n        );\n\n        require(\n            commTokenMapping[recordId].tokenId == tokenId ||\n                govTokenMapping[recordId].tokenId == tokenId,\n            \"INVALID: WRONG_TOKEN_ID\"\n        );\n\n        // Here minting of new tokens is done. And those are sent directly into the treasury\n        _mint(\n            address(this),\n            tokenId,\n            tokenAmount,\n            \"Token minted through voting process\"\n        );\n\n        emit TokenMinted({\n            recordId: recordId,\n            tokenId: tokenId,\n            creationDate: block.timestamp,\n            tokenAmount: tokenAmount\n        });\n    }\n\n    /// @dev This function is called only by the voting contract once the voting ends\n    /// @param to This is the receivers address\n    /// @param recordId This is the recordId to which the contribution belongs to\n    /// @param contributionId this is the contribution id to which the user has won\n    /// @param rewardGovernance this is the amount of Governance token that needs to be transferred\n    /// @param rewardCommunity this is the amount of community token that needs to be transferred\n    function transferRewardAmount(\n        address to,\n        uint256 recordId,\n        uint256 contributionId,\n        uint256 rewardGovernance,\n        uint256 rewardCommunity,\n        address contributionVotingContractAddress\n    ) external onlyTreasuryContract {\n        _setApprovalForAll(\n            address(this),\n            contributionVotingContractAddress,\n            true\n        );\n        if (rewardGovernance > 0) {\n            safeTransferFrom(\n                address(this),\n                to,\n                govTokenMapping[recordId].tokenId,\n                rewardGovernance,\n                \"\"\n            );\n        }\n\n        if (rewardCommunity > 0) {\n            safeTransferFrom(\n                address(this),\n                to,\n                commTokenMapping[recordId].tokenId,\n                rewardCommunity,\n                \"\"\n            );\n        }\n\n        emit ContributionRewardTransferred({\n            to: to,\n            recordId: recordId,\n            contributionId: contributionId,\n            rewardGovernance: rewardGovernance,\n            rewardCommunity: rewardCommunity\n        });\n    }\n\n    // Update balance and/or total supply snapshots before the values are modified. This is implemented\n    // in the _beforeTokenTransfer hook, which is executed for _mint, _burn, and _transfer operations.\n    function _beforeTokenTransfer(\n        address operator,\n        address from,\n        address to,\n        uint256[] memory ids,\n        uint256[] memory amounts,\n        bytes memory data\n    ) internal override {\n        //Below condition is needed as the _mint is called in the constructor\n        //and at that particular point in time the below address is not initialized thus leading to a revert\n        if (VOTING_HUB_ADDRESS != address(0)) {\n            VotingHubContract votingHubContract = VotingHubContract(\n                VOTING_HUB_ADDRESS\n            );\n\n            for (uint256 i = 0; i < ids.length; i++) {\n                votingHubContract.handleUserTokenTransfers(\n                    from,\n                    to,\n                    amounts[i],\n                    ids[i]\n                );\n            }\n        }\n\n        super._beforeTokenTransfer(operator, from, to, ids, amounts, data);\n    }\n\n    /// @dev This function sets the symbol name as used, this function is called from records\n    // contract to reserve symbol for new version creation\n    /// @param governanceSymbol Symbol for governance token\n    /// @param communitySymbol Symbol for community token\n    function setSymbolsAsUsed(\n        string memory governanceSymbol,\n        string memory communitySymbol\n    ) external onlyTreasuryContract {\n        commTokenSym[communitySymbol] = true;\n        govTokenSym[governanceSymbol] = true;\n    }\n\n    /// @dev This function sets the symbol name as available, this function is called from records\n    // contract to reserve symbol for new version creation\n    /// @param governanceSymbol Symbol for governance token\n    /// @param communitySymbol Symbol for community token\n    function setSymbolsAsAvailable(\n        string memory governanceSymbol,\n        string memory communitySymbol\n    ) external onlyTreasuryContract {\n        commTokenSym[communitySymbol] = true;\n        govTokenSym[governanceSymbol] = true;\n    }\n\n    function snapshot()\n        external\n        onlyTreasuryContract\n        returns (uint256 snapshotId)\n    {\n        return _snapshot();\n    }\n\n    function mint(uint256 tokenId, uint256 amount)\n        external\n        onlyTreasuryContract\n    {\n        _mint(address(this), tokenId, amount, \"New tokens minted\");\n    }\n\n    function onERC1155Received(\n        address operator,\n        address from,\n        uint256 id,\n        uint256 value,\n        bytes calldata data\n    ) external virtual override returns (bytes4) {\n        return\n            bytes4(\n                keccak256(\n                    \"onERC1155Received(address,address,uint256,uint256,bytes)\"\n                )\n            );\n    }\n\n    function onERC1155BatchReceived(\n        address operator,\n        address from,\n        uint256[] calldata ids,\n        uint256[] calldata values,\n        bytes calldata data\n    ) external virtual override returns (bytes4) {\n        return\n            bytes4(\n                keccak256(\n                    \"onERC1155BatchReceived(address,address,uint256[],uint256[],bytes)\"\n                )\n            );\n    }\n}\n",
  "sourcePath": "/Users/a1/Desktop/Office/projects/CrowdRecords/Contracts/contracts/treasury/TreasuryCoreContract.sol",
  "compiler": {
    "name": "solc",
    "version": "0.8.12+commit.f00d7308.Emscripten.clang"
  },
  "schemaVersion": "3.4.6",
  "updatedAt": "2022-09-27T05:37:28.599Z",
  "devdoc": {
    "events": {
      "ContributionRewardTransferred(address,uint256,uint256,uint256,uint256)": {
        "details": "this is event which is generated when a contribution voting has came to an end and the contribution is accepted",
        "params": {
          "contributionId": "This is the id of the contribution to which the record is related to",
          "recordId": "This is the id of the record to which this contribution relates to",
          "rewardCommunity": "The reward amount for community tokens",
          "rewardGovernance": "The reward amount for governance tokens",
          "to": "This the address of the winner or the owner of the contribution"
        }
      },
      "NewTokenCreated(uint256,string,string,uint256,uint256,uint256,uint8)": {
        "details": "this is event which is created when new governance token is created (NEW CREATION Not MINTING)",
        "params": {
          "creationDate": "This is the creation date of the token",
          "image": "This is the image of the token",
          "recordId": "This is the record Id to which this token belongs to",
          "symbol": "This is the symbol of the governance token",
          "tokenAmount": "This is the amount of token that are created",
          "tokenId": "This is the id of token that is newly created tokens",
          "tokenType": "This is the type of the token that is created => For governance 1 and for copyright 0"
        }
      },
      "TokenMinted(uint256,uint256,uint256,uint256)": {
        "details": "this is event which is created when new governance token is minted after the voting is done",
        "params": {
          "creationDate": "This is the creation date of the token",
          "recordId": "This is the record Id to which this token belongs to",
          "tokenAmount": "This is the amount of token that are created",
          "tokenId": "This is the id of token that is newly created tokens"
        }
      },
      "TokenTransfer(address,address,uint256,uint256,uint256,string)": {
        "details": "this is event which is created when a token transfer takes place",
        "params": {
          "amount": "This is the amount of token transferred",
          "from": "This is the address of sender",
          "symbol": "This is the symbol of the token that were transferred",
          "to": "This is the address of receiver",
          "tokenId": "This is the id of the token that is being transferred",
          "transferDate": "This is the date of the transfer"
        }
      }
    },
    "kind": "dev",
    "methods": {
      "balanceOf(address,uint256)": {
        "details": "See {IERC1155-balanceOf}. Requirements: - `account` cannot be the zero address."
      },
      "balanceOfAt(address,uint256,uint256)": {
        "details": "Retrieves the balance of `account` at the time `snapshotId` was created."
      },
      "balanceOfBatch(address[],uint256[])": {
        "details": "See {IERC1155-balanceOfBatch}. Requirements: - `accounts` and `ids` must have the same length."
      },
      "createNewCommunityToken((uint256,uint256,uint256,string,string))": {
        "details": "This function creats new community tokens for specified record",
        "params": {
          "newTokenData": "This contains all the parameters needed to create a new community token that are"
        }
      },
      "createNewGovernanceToken((uint256,uint256,uint256,string,string))": {
        "details": "This function creates new governance tokens for specified record",
        "params": {
          "newTokenData": "This contains all the parameters needed to create a new governance token that are"
        }
      },
      "exists(uint256)": {
        "details": "Indicates whether any token exist with a given id, or not."
      },
      "isApprovedForAll(address,address)": {
        "details": "See {IERC1155-isApprovedForAll}."
      },
      "mintTokens(uint256,uint256,uint256)": {
        "details": "This function creats new community tokens for specified record",
        "params": {
          "recordId": "This is the id of the record to which the token belongs to",
          "tokenAmount": "This is the amount that is to be minted",
          "tokenId": "This is the id of the which is to be minted"
        }
      },
      "onERC1155BatchReceived(address,address,uint256[],uint256[],bytes)": {
        "details": "Handles the receipt of a multiple ERC1155 token types. This function is called at the end of a `safeBatchTransferFrom` after the balances have been updated. NOTE: To accept the transfer(s), this must return `bytes4(keccak256(\"onERC1155BatchReceived(address,address,uint256[],uint256[],bytes)\"))` (i.e. 0xbc197c81, or its own function selector).",
        "params": {
          "data": "Additional data with no specified format",
          "from": "The address which previously owned the token",
          "ids": "An array containing ids of each token being transferred (order and length must match values array)",
          "operator": "The address which initiated the batch transfer (i.e. msg.sender)",
          "values": "An array containing amounts of each token being transferred (order and length must match ids array)"
        },
        "returns": {
          "_0": "`bytes4(keccak256(\"onERC1155BatchReceived(address,address,uint256[],uint256[],bytes)\"))` if transfer is allowed"
        }
      },
      "onERC1155Received(address,address,uint256,uint256,bytes)": {
        "details": "Handles the receipt of a single ERC1155 token type. This function is called at the end of a `safeTransferFrom` after the balance has been updated. NOTE: To accept the transfer, this must return `bytes4(keccak256(\"onERC1155Received(address,address,uint256,uint256,bytes)\"))` (i.e. 0xf23a6e61, or its own function selector).",
        "params": {
          "data": "Additional data with no specified format",
          "from": "The address which previously owned the token",
          "id": "The ID of the token being transferred",
          "operator": "The address which initiated the transfer (i.e. msg.sender)",
          "value": "The amount of tokens being transferred"
        },
        "returns": {
          "_0": "`bytes4(keccak256(\"onERC1155Received(address,address,uint256,uint256,bytes)\"))` if transfer is allowed"
        }
      },
      "safeBatchTransferFrom(address,address,uint256[],uint256[],bytes)": {
        "details": "See {IERC1155-safeBatchTransferFrom}."
      },
      "safeTransferFrom(address,address,uint256,uint256,bytes)": {
        "details": "See {IERC1155-safeTransferFrom}."
      },
      "setApprovalForAll(address,bool)": {
        "details": "See {IERC1155-setApprovalForAll}."
      },
      "setSymbolsAsAvailable(string,string)": {
        "params": {
          "communitySymbol": "Symbol for community token",
          "governanceSymbol": "Symbol for governance token"
        }
      },
      "setSymbolsAsUsed(string,string)": {
        "params": {
          "communitySymbol": "Symbol for community token",
          "governanceSymbol": "Symbol for governance token"
        }
      },
      "setTreasuryContract(address)": {
        "details": "This function sets the treasury Contract address",
        "params": {
          "newTreasuryAddress": "This is the address of new voting hub contract"
        }
      },
      "setVotingHubContract(address)": {
        "details": "This function sets the Records Contract address",
        "params": {
          "newVotingHubContract": "This is the address of new voting hub contract"
        }
      },
      "supportsInterface(bytes4)": {
        "details": "See {IERC165-supportsInterface}."
      },
      "totalSupply(uint256)": {
        "details": "Total amount of tokens in with a given id."
      },
      "totalSupplyAt(uint256,uint256)": {
        "details": "Retrieves the total supply at the time `snapshotId` was created."
      },
      "transferRewardAmount(address,uint256,uint256,uint256,uint256,address)": {
        "details": "This function is called only by the voting contract once the voting ends",
        "params": {
          "contributionId": "this is the contribution id to which the user has won",
          "recordId": "This is the recordId to which the contribution belongs to",
          "rewardCommunity": "this is the amount of community token that needs to be transferred",
          "rewardGovernance": "this is the amount of Governance token that needs to be transferred",
          "to": "This is the receivers address"
        }
      },
      "uri(uint256)": {
        "details": "See {IERC1155MetadataURI-uri}. This implementation returns the same URI for *all* token types. It relies on the token type ID substitution mechanism https://eips.ethereum.org/EIPS/eip-1155#metadata[defined in the EIP]. Clients calling this function must replace the `\\{id\\}` substring with the actual token type ID."
      }
    },
    "version": 1
  },
  "userdoc": {
    "kind": "user",
    "methods": {},
    "version": 1
  }
}