{
  "contractName": "TreasuryContract",
  "abi": [
    {
      "inputs": [],
      "stateMutability": "nonpayable",
      "type": "constructor"
    },
    {
      "anonymous": false,
      "inputs": [
        {
          "indexed": true,
          "internalType": "address",
          "name": "account",
          "type": "address"
        },
        {
          "indexed": true,
          "internalType": "address",
          "name": "operator",
          "type": "address"
        },
        {
          "indexed": false,
          "internalType": "bool",
          "name": "approved",
          "type": "bool"
        }
      ],
      "name": "ApprovalForAll",
      "type": "event"
    },
    {
      "anonymous": false,
      "inputs": [
        {
          "indexed": false,
          "internalType": "address",
          "name": "to",
          "type": "address"
        },
        {
          "indexed": false,
          "internalType": "uint256",
          "name": "recordId",
          "type": "uint256"
        },
        {
          "indexed": false,
          "internalType": "uint256",
          "name": "contributionId",
          "type": "uint256"
        },
        {
          "indexed": false,
          "internalType": "uint256",
          "name": "rewardGovernance",
          "type": "uint256"
        },
        {
          "indexed": false,
          "internalType": "uint256",
          "name": "rewardCommunity",
          "type": "uint256"
        }
      ],
      "name": "ContributionRewardTransfered",
      "type": "event"
    },
    {
      "anonymous": false,
      "inputs": [
        {
          "indexed": false,
          "internalType": "uint256",
          "name": "recordId",
          "type": "uint256"
        },
        {
          "indexed": false,
          "internalType": "string",
          "name": "symbol",
          "type": "string"
        },
        {
          "indexed": false,
          "internalType": "string",
          "name": "image",
          "type": "string"
        },
        {
          "indexed": false,
          "internalType": "uint256",
          "name": "creationDate",
          "type": "uint256"
        },
        {
          "indexed": false,
          "internalType": "uint256",
          "name": "tokenAmount",
          "type": "uint256"
        },
        {
          "indexed": false,
          "internalType": "uint256",
          "name": "tokenId",
          "type": "uint256"
        },
        {
          "indexed": false,
          "internalType": "uint8",
          "name": "tokenType",
          "type": "uint8"
        }
      ],
      "name": "NewTokenCreated",
      "type": "event"
    },
    {
      "anonymous": false,
      "inputs": [
        {
          "indexed": false,
          "internalType": "uint256",
          "name": "recordId",
          "type": "uint256"
        },
        {
          "indexed": false,
          "internalType": "uint256",
          "name": "tokenId",
          "type": "uint256"
        },
        {
          "indexed": false,
          "internalType": "uint256",
          "name": "creationDate",
          "type": "uint256"
        },
        {
          "indexed": false,
          "internalType": "uint256",
          "name": "tokenAmount",
          "type": "uint256"
        }
      ],
      "name": "TokenMinted",
      "type": "event"
    },
    {
      "anonymous": false,
      "inputs": [
        {
          "indexed": false,
          "internalType": "address",
          "name": "from",
          "type": "address"
        },
        {
          "indexed": false,
          "internalType": "address",
          "name": "to",
          "type": "address"
        },
        {
          "indexed": false,
          "internalType": "uint256",
          "name": "transferDate",
          "type": "uint256"
        },
        {
          "indexed": false,
          "internalType": "uint256",
          "name": "tokenId",
          "type": "uint256"
        },
        {
          "indexed": false,
          "internalType": "uint256",
          "name": "amount",
          "type": "uint256"
        },
        {
          "indexed": false,
          "internalType": "string",
          "name": "symbol",
          "type": "string"
        }
      ],
      "name": "TokenTransfer",
      "type": "event"
    },
    {
      "anonymous": false,
      "inputs": [
        {
          "indexed": true,
          "internalType": "address",
          "name": "operator",
          "type": "address"
        },
        {
          "indexed": true,
          "internalType": "address",
          "name": "from",
          "type": "address"
        },
        {
          "indexed": true,
          "internalType": "address",
          "name": "to",
          "type": "address"
        },
        {
          "indexed": false,
          "internalType": "uint256[]",
          "name": "ids",
          "type": "uint256[]"
        },
        {
          "indexed": false,
          "internalType": "uint256[]",
          "name": "values",
          "type": "uint256[]"
        }
      ],
      "name": "TransferBatch",
      "type": "event"
    },
    {
      "anonymous": false,
      "inputs": [
        {
          "indexed": true,
          "internalType": "address",
          "name": "operator",
          "type": "address"
        },
        {
          "indexed": true,
          "internalType": "address",
          "name": "from",
          "type": "address"
        },
        {
          "indexed": true,
          "internalType": "address",
          "name": "to",
          "type": "address"
        },
        {
          "indexed": false,
          "internalType": "uint256",
          "name": "id",
          "type": "uint256"
        },
        {
          "indexed": false,
          "internalType": "uint256",
          "name": "value",
          "type": "uint256"
        }
      ],
      "name": "TransferSingle",
      "type": "event"
    },
    {
      "anonymous": false,
      "inputs": [
        {
          "indexed": false,
          "internalType": "string",
          "name": "value",
          "type": "string"
        },
        {
          "indexed": true,
          "internalType": "uint256",
          "name": "id",
          "type": "uint256"
        }
      ],
      "name": "URI",
      "type": "event"
    },
    {
      "inputs": [],
      "name": "CRD",
      "outputs": [
        {
          "internalType": "uint256",
          "name": "",
          "type": "uint256"
        }
      ],
      "stateMutability": "view",
      "type": "function"
    },
    {
      "inputs": [],
      "name": "RECORDS_CONTRACT_ADDRESS",
      "outputs": [
        {
          "internalType": "address",
          "name": "",
          "type": "address"
        }
      ],
      "stateMutability": "view",
      "type": "function"
    },
    {
      "inputs": [],
      "name": "VOTING_CONTRACT_ADDRESS",
      "outputs": [
        {
          "internalType": "address",
          "name": "",
          "type": "address"
        }
      ],
      "stateMutability": "view",
      "type": "function"
    },
    {
      "inputs": [
        {
          "internalType": "address",
          "name": "account",
          "type": "address"
        },
        {
          "internalType": "uint256",
          "name": "id",
          "type": "uint256"
        }
      ],
      "name": "balanceOf",
      "outputs": [
        {
          "internalType": "uint256",
          "name": "",
          "type": "uint256"
        }
      ],
      "stateMutability": "view",
      "type": "function"
    },
    {
      "inputs": [
        {
          "internalType": "address[]",
          "name": "accounts",
          "type": "address[]"
        },
        {
          "internalType": "uint256[]",
          "name": "ids",
          "type": "uint256[]"
        }
      ],
      "name": "balanceOfBatch",
      "outputs": [
        {
          "internalType": "uint256[]",
          "name": "",
          "type": "uint256[]"
        }
      ],
      "stateMutability": "view",
      "type": "function"
    },
    {
      "inputs": [
        {
          "internalType": "uint256",
          "name": "id",
          "type": "uint256"
        }
      ],
      "name": "exists",
      "outputs": [
        {
          "internalType": "bool",
          "name": "",
          "type": "bool"
        }
      ],
      "stateMutability": "view",
      "type": "function"
    },
    {
      "inputs": [
        {
          "internalType": "address",
          "name": "account",
          "type": "address"
        },
        {
          "internalType": "address",
          "name": "operator",
          "type": "address"
        }
      ],
      "name": "isApprovedForAll",
      "outputs": [
        {
          "internalType": "bool",
          "name": "",
          "type": "bool"
        }
      ],
      "stateMutability": "view",
      "type": "function"
    },
    {
      "inputs": [
        {
          "internalType": "address",
          "name": "from",
          "type": "address"
        },
        {
          "internalType": "address",
          "name": "to",
          "type": "address"
        },
        {
          "internalType": "uint256[]",
          "name": "ids",
          "type": "uint256[]"
        },
        {
          "internalType": "uint256[]",
          "name": "amounts",
          "type": "uint256[]"
        },
        {
          "internalType": "bytes",
          "name": "data",
          "type": "bytes"
        }
      ],
      "name": "safeBatchTransferFrom",
      "outputs": [],
      "stateMutability": "nonpayable",
      "type": "function"
    },
    {
      "inputs": [
        {
          "internalType": "address",
          "name": "from",
          "type": "address"
        },
        {
          "internalType": "address",
          "name": "to",
          "type": "address"
        },
        {
          "internalType": "uint256",
          "name": "id",
          "type": "uint256"
        },
        {
          "internalType": "uint256",
          "name": "amount",
          "type": "uint256"
        },
        {
          "internalType": "bytes",
          "name": "data",
          "type": "bytes"
        }
      ],
      "name": "safeTransferFrom",
      "outputs": [],
      "stateMutability": "nonpayable",
      "type": "function"
    },
    {
      "inputs": [
        {
          "internalType": "address",
          "name": "operator",
          "type": "address"
        },
        {
          "internalType": "bool",
          "name": "approved",
          "type": "bool"
        }
      ],
      "name": "setApprovalForAll",
      "outputs": [],
      "stateMutability": "nonpayable",
      "type": "function"
    },
    {
      "inputs": [
        {
          "internalType": "bytes4",
          "name": "interfaceId",
          "type": "bytes4"
        }
      ],
      "name": "supportsInterface",
      "outputs": [
        {
          "internalType": "bool",
          "name": "",
          "type": "bool"
        }
      ],
      "stateMutability": "view",
      "type": "function"
    },
    {
      "inputs": [
        {
          "internalType": "uint256",
          "name": "id",
          "type": "uint256"
        }
      ],
      "name": "totalSupply",
      "outputs": [
        {
          "internalType": "uint256",
          "name": "",
          "type": "uint256"
        }
      ],
      "stateMutability": "view",
      "type": "function"
    },
    {
      "inputs": [
        {
          "internalType": "uint256",
          "name": "",
          "type": "uint256"
        }
      ],
      "name": "uri",
      "outputs": [
        {
          "internalType": "string",
          "name": "",
          "type": "string"
        }
      ],
      "stateMutability": "view",
      "type": "function"
    },
    {
      "inputs": [
        {
          "internalType": "address",
          "name": "newRecordsContractAddress",
          "type": "address"
        }
      ],
      "name": "setRecordsContractAddress",
      "outputs": [],
      "stateMutability": "nonpayable",
      "type": "function"
    },
    {
      "inputs": [
        {
          "internalType": "address",
          "name": "newVotingContractAddress",
          "type": "address"
        }
      ],
      "name": "setVotingContractAddress",
      "outputs": [],
      "stateMutability": "nonpayable",
      "type": "function"
    },
    {
      "inputs": [
        {
          "components": [
            {
              "internalType": "uint256",
              "name": "recordId",
              "type": "uint256"
            },
            {
              "internalType": "uint256",
              "name": "totalSupply",
              "type": "uint256"
            },
            {
              "internalType": "uint256",
              "name": "userBalance",
              "type": "uint256"
            },
            {
              "internalType": "string",
              "name": "symbol",
              "type": "string"
            },
            {
              "internalType": "string",
              "name": "image",
              "type": "string"
            }
          ],
          "internalType": "struct TreasuryContract.NewTokenData",
          "name": "newTokenData",
          "type": "tuple"
        }
      ],
      "name": "createNewGovernanceToken",
      "outputs": [
        {
          "internalType": "uint256",
          "name": "",
          "type": "uint256"
        }
      ],
      "stateMutability": "payable",
      "type": "function"
    },
    {
      "inputs": [
        {
          "components": [
            {
              "internalType": "uint256",
              "name": "recordId",
              "type": "uint256"
            },
            {
              "internalType": "uint256",
              "name": "totalSupply",
              "type": "uint256"
            },
            {
              "internalType": "uint256",
              "name": "userBalance",
              "type": "uint256"
            },
            {
              "internalType": "string",
              "name": "symbol",
              "type": "string"
            },
            {
              "internalType": "string",
              "name": "image",
              "type": "string"
            }
          ],
          "internalType": "struct TreasuryContract.NewTokenData",
          "name": "newTokenData",
          "type": "tuple"
        }
      ],
      "name": "createNewCommunityToken",
      "outputs": [
        {
          "internalType": "uint256",
          "name": "",
          "type": "uint256"
        }
      ],
      "stateMutability": "payable",
      "type": "function"
    },
    {
      "inputs": [
        {
          "internalType": "uint256",
          "name": "recordId",
          "type": "uint256"
        },
        {
          "internalType": "uint256",
          "name": "tokenId",
          "type": "uint256"
        },
        {
          "internalType": "uint256",
          "name": "tokenAmount",
          "type": "uint256"
        }
      ],
      "name": "mintTokens",
      "outputs": [],
      "stateMutability": "payable",
      "type": "function"
    },
    {
      "inputs": [
        {
          "internalType": "address",
          "name": "to",
          "type": "address"
        },
        {
          "internalType": "uint256",
          "name": "recordId",
          "type": "uint256"
        },
        {
          "internalType": "uint256",
          "name": "contributionId",
          "type": "uint256"
        },
        {
          "internalType": "uint256",
          "name": "rewardGovernance",
          "type": "uint256"
        },
        {
          "internalType": "uint256",
          "name": "rewardCommunity",
          "type": "uint256"
        }
      ],
      "name": "transferRewardAmount",
      "outputs": [],
      "stateMutability": "payable",
      "type": "function"
    },
    {
      "inputs": [
        {
          "internalType": "uint256",
          "name": "tokenId",
          "type": "uint256"
        }
      ],
      "name": "totalCicultingSupply",
      "outputs": [
        {
          "internalType": "uint256",
          "name": "",
          "type": "uint256"
        }
      ],
      "stateMutability": "nonpayable",
      "type": "function"
    },
    {
      "inputs": [
        {
          "internalType": "address",
          "name": "operator",
          "type": "address"
        },
        {
          "internalType": "address",
          "name": "from",
          "type": "address"
        },
        {
          "internalType": "uint256",
          "name": "id",
          "type": "uint256"
        },
        {
          "internalType": "uint256",
          "name": "value",
          "type": "uint256"
        },
        {
          "internalType": "bytes",
          "name": "data",
          "type": "bytes"
        }
      ],
      "name": "onERC1155Received",
      "outputs": [
        {
          "internalType": "bytes4",
          "name": "",
          "type": "bytes4"
        }
      ],
      "stateMutability": "nonpayable",
      "type": "function"
    },
    {
      "inputs": [
        {
          "internalType": "address",
          "name": "operator",
          "type": "address"
        },
        {
          "internalType": "address",
          "name": "from",
          "type": "address"
        },
        {
          "internalType": "uint256[]",
          "name": "ids",
          "type": "uint256[]"
        },
        {
          "internalType": "uint256[]",
          "name": "values",
          "type": "uint256[]"
        },
        {
          "internalType": "bytes",
          "name": "data",
          "type": "bytes"
        }
      ],
      "name": "onERC1155BatchReceived",
      "outputs": [
        {
          "internalType": "bytes4",
          "name": "",
          "type": "bytes4"
        }
      ],
      "stateMutability": "nonpayable",
      "type": "function"
    }
  ],
  "bytecode": "0x608060405260016004556040518060400160405280600581526020017f435244475f0000000000000000000000000000000000000000000000000000008152506008908051906020019062000056929190620007f8565b506040518060400160405280600481526020017f4352445f0000000000000000000000000000000000000000000000000000000081525060099080519060200190620000a4929190620007f8565b506000600a60006101000a81548160ff021916908360ff1602179055506001600a60016101000a81548160ff021916908360ff160217905550348015620000ea57600080fd5b506040518060400160405280601d81526020017f68747470733a2f2f63726f77647265636f7264732e636f6d2f7b69647d0000008152506200013281620001c860201b60201c565b5062000181336001633b9aca006040518060400160405280601881526020017f68747470733a2f2f63726f77647265636f7264732e636f6d0000000000000000815250620001e460201b60201c565b33600760006101000a81548173ffffffffffffffffffffffffffffffffffffffff021916908373ffffffffffffffffffffffffffffffffffffffff16021790555062001006565b8060029080519060200190620001e0929190620007f8565b5050565b600073ffffffffffffffffffffffffffffffffffffffff168473ffffffffffffffffffffffffffffffffffffffff16141562000257576040517f08c379a00000000000000000000000000000000000000000000000000000000081526004016200024e906200092f565b60405180910390fd5b600062000269620003a960201b60201c565b9050620002a2816000876200028488620003b160201b60201c565b6200029588620003b160201b60201c565b876200043260201b60201c565b8260008086815260200190815260200160002060008773ffffffffffffffffffffffffffffffffffffffff1673ffffffffffffffffffffffffffffffffffffffff16815260200190815260200160002060008282546200030391906200098a565b925050819055508473ffffffffffffffffffffffffffffffffffffffff16600073ffffffffffffffffffffffffffffffffffffffff168273ffffffffffffffffffffffffffffffffffffffff167fc3d58168c5ae7397731d063d5bbf3d657854427343f4c083240f7aacaa2d0f62878760405162000383929190620009f8565b60405180910390a4620003a281600087878787620005d360201b60201c565b5050505050565b600033905090565b60606000600167ffffffffffffffff811115620003d357620003d262000a25565b5b604051908082528060200260200182016040528015620004025781602001602082028036833780820191505090505b50905082816000815181106200041d576200041c62000a54565b5b60200260200101818152505080915050919050565b6200044d868686868686620007cd60201b620017a81760201c565b600073ffffffffffffffffffffffffffffffffffffffff168573ffffffffffffffffffffffffffffffffffffffff1614156200050c5760005b83518110156200050a57828181518110620004a657620004a562000a54565b5b602002602001015160036000868481518110620004c857620004c762000a54565b5b602002602001015181526020019081526020016000206000828254620004ef91906200098a565b9250508190555080620005029062000a83565b905062000486565b505b600073ffffffffffffffffffffffffffffffffffffffff168473ffffffffffffffffffffffffffffffffffffffff161415620005cb5760005b8351811015620005c95782818151811062000565576200056462000a54565b5b60200260200101516003600086848151811062000587576200058662000a54565b5b602002602001015181526020019081526020016000206000828254620005ae919062000ad1565b9250508190555080620005c19062000a83565b905062000545565b505b505050505050565b620005ff8473ffffffffffffffffffffffffffffffffffffffff16620007d560201b620017b01760201c565b15620007c5578373ffffffffffffffffffffffffffffffffffffffff1663f23a6e6187878686866040518663ffffffff1660e01b81526004016200064895949392919062000bf5565b6020604051808303816000875af19250505080156200068757506040513d601f19601f8201168201806040525081019062000684919062000cc5565b60015b62000739576200069662000d04565b806308c379a01415620006fa5750620006ae62000d5f565b80620006bb5750620006fc565b806040517f08c379a0000000000000000000000000000000000000000000000000000000008152600401620006f1919062000e4d565b60405180910390fd5b505b6040517f08c379a0000000000000000000000000000000000000000000000000000000008152600401620007309062000ee7565b60405180910390fd5b63f23a6e6160e01b7bffffffffffffffffffffffffffffffffffffffffffffffffffffffff1916817bffffffffffffffffffffffffffffffffffffffffffffffffffffffff191614620007c3576040517f08c379a0000000000000000000000000000000000000000000000000000000008152600401620007ba9062000f7f565b60405180910390fd5b505b505050505050565b505050505050565b6000808273ffffffffffffffffffffffffffffffffffffffff163b119050919050565b828054620008069062000fd0565b90600052602060002090601f0160209004810192826200082a576000855562000876565b82601f106200084557805160ff191683800117855562000876565b8280016001018555821562000876579182015b828111156200087557825182559160200191906001019062000858565b5b50905062000885919062000889565b5090565b5b80821115620008a45760008160009055506001016200088a565b5090565b600082825260208201905092915050565b7f455243313135353a206d696e7420746f20746865207a65726f2061646472657360008201527f7300000000000000000000000000000000000000000000000000000000000000602082015250565b600062000917602183620008a8565b91506200092482620008b9565b604082019050919050565b600060208201905081810360008301526200094a8162000908565b9050919050565b6000819050919050565b7f4e487b7100000000000000000000000000000000000000000000000000000000600052601160045260246000fd5b6000620009978262000951565b9150620009a48362000951565b9250827fffffffffffffffffffffffffffffffffffffffffffffffffffffffffffffffff03821115620009dc57620009db6200095b565b5b828201905092915050565b620009f28162000951565b82525050565b600060408201905062000a0f6000830185620009e7565b62000a1e6020830184620009e7565b9392505050565b7f4e487b7100000000000000000000000000000000000000000000000000000000600052604160045260246000fd5b7f4e487b7100000000000000000000000000000000000000000000000000000000600052603260045260246000fd5b600062000a908262000951565b91507fffffffffffffffffffffffffffffffffffffffffffffffffffffffffffffffff82141562000ac65762000ac56200095b565b5b600182019050919050565b600062000ade8262000951565b915062000aeb8362000951565b92508282101562000b015762000b006200095b565b5b828203905092915050565b600073ffffffffffffffffffffffffffffffffffffffff82169050919050565b600062000b398262000b0c565b9050919050565b62000b4b8162000b2c565b82525050565b600081519050919050565b600082825260208201905092915050565b60005b8381101562000b8d57808201518184015260208101905062000b70565b8381111562000b9d576000848401525b50505050565b6000601f19601f8301169050919050565b600062000bc18262000b51565b62000bcd818562000b5c565b935062000bdf81856020860162000b6d565b62000bea8162000ba3565b840191505092915050565b600060a08201905062000c0c600083018862000b40565b62000c1b602083018762000b40565b62000c2a6040830186620009e7565b62000c396060830185620009e7565b818103608083015262000c4d818462000bb4565b90509695505050505050565b6000604051905090565b600080fd5b60007fffffffff0000000000000000000000000000000000000000000000000000000082169050919050565b62000c9f8162000c68565b811462000cab57600080fd5b50565b60008151905062000cbf8162000c94565b92915050565b60006020828403121562000cde5762000cdd62000c63565b5b600062000cee8482850162000cae565b91505092915050565b60008160e01c9050919050565b600060033d111562000d265760046000803e62000d2360005162000cf7565b90505b90565b62000d348262000ba3565b810181811067ffffffffffffffff8211171562000d565762000d5562000a25565b5b80604052505050565b600060443d101562000d715762000dfe565b62000d7b62000c59565b60043d036004823e80513d602482011167ffffffffffffffff8211171562000da557505062000dfe565b808201805167ffffffffffffffff81111562000dc5575050505062000dfe565b80602083010160043d03850181111562000de457505050505062000dfe565b62000df58260200185018662000d29565b82955050505050505b90565b600081519050919050565b600062000e198262000e01565b62000e258185620008a8565b935062000e3781856020860162000b6d565b62000e428162000ba3565b840191505092915050565b6000602082019050818103600083015262000e69818462000e0c565b905092915050565b7f455243313135353a207472616e7366657220746f206e6f6e204552433131353560008201527f526563656976657220696d706c656d656e746572000000000000000000000000602082015250565b600062000ecf603483620008a8565b915062000edc8262000e71565b604082019050919050565b6000602082019050818103600083015262000f028162000ec0565b9050919050565b7f455243313135353a204552433131353552656365697665722072656a6563746560008201527f6420746f6b656e73000000000000000000000000000000000000000000000000602082015250565b600062000f67602883620008a8565b915062000f748262000f09565b604082019050919050565b6000602082019050818103600083015262000f9a8162000f58565b9050919050565b7f4e487b7100000000000000000000000000000000000000000000000000000000600052602260045260246000fd5b6000600282049050600182168062000fe957607f821691505b60208210811415620010005762000fff62000fa1565b5b50919050565b61483e80620010166000396000f3fe6080604052600436106101345760003560e01c8063a22cb465116100ab578063cceaf6251161006f578063cceaf6251461045a578063dfe813eb1461048a578063e6acd9b8146104b3578063e985e9c5146104de578063f23a6e611461051b578063f242432a1461055857610134565b8063a22cb4651461034f578063a719721b14610378578063ba19a675146103b5578063bc197c81146103e0578063bd85b0391461041d57610134565b80634f558e79116100fd5780634f558e791461025657806362b08e7014610293578063659d45eb146102bc5780636d15dd2c146102e75780638388f413146103175780638fbf353f1461033357610134565b8062fdd58e1461013957806301ffc9a7146101765780630e89341c146101b35780632eb2c2d6146101f05780634e1273f414610219575b600080fd5b34801561014557600080fd5b50610160600480360381019061015b919061291e565b610581565b60405161016d919061296d565b60405180910390f35b34801561018257600080fd5b5061019d600480360381019061019891906129e0565b61064a565b6040516101aa9190612a28565b60405180910390f35b3480156101bf57600080fd5b506101da60048036038101906101d59190612a43565b61072c565b6040516101e79190612b09565b60405180910390f35b3480156101fc57600080fd5b5061021760048036038101906102129190612d28565b6107c0565b005b34801561022557600080fd5b50610240600480360381019061023b9190612eba565b610861565b60405161024d9190612ff0565b60405180910390f35b34801561026257600080fd5b5061027d60048036038101906102789190612a43565b61097a565b60405161028a9190612a28565b60405180910390f35b34801561029f57600080fd5b506102ba60048036038101906102b59190613012565b61098e565b005b3480156102c857600080fd5b506102d1610a62565b6040516102de919061304e565b60405180910390f35b61030160048036038101906102fc91906131d8565b610a88565b60405161030e919061296d565b60405180910390f35b610331600480360381019061032c9190613221565b610ddd565b005b61034d6004803603810190610348919061329c565b610f59565b005b34801561035b57600080fd5b506103766004803603810190610371919061331b565b611163565b005b34801561038457600080fd5b5061039f600480360381019061039a9190612a43565b611179565b6040516103ac919061296d565b60405180910390f35b3480156103c157600080fd5b506103ca6111a2565b6040516103d7919061304e565b60405180910390f35b3480156103ec57600080fd5b506104076004803603810190610402919061340c565b6111c8565b60405161041491906134f7565b60405180910390f35b34801561042957600080fd5b50610444600480360381019061043f9190612a43565b6111f9565b604051610451919061296d565b60405180910390f35b610474600480360381019061046f91906131d8565b611216565b604051610481919061296d565b60405180910390f35b34801561049657600080fd5b506104b160048036038101906104ac9190613012565b61156b565b005b3480156104bf57600080fd5b506104c861163f565b6040516104d5919061296d565b60405180910390f35b3480156104ea57600080fd5b5061050560048036038101906105009190613512565b611644565b6040516105129190612a28565b60405180910390f35b34801561052757600080fd5b50610542600480360381019061053d9190613552565b6116d8565b60405161054f91906134f7565b60405180910390f35b34801561056457600080fd5b5061057f600480360381019061057a91906135ec565b611707565b005b60008073ffffffffffffffffffffffffffffffffffffffff168373ffffffffffffffffffffffffffffffffffffffff1614156105f2576040517f08c379a00000000000000000000000000000000000000000000000000000000081526004016105e9906136f5565b60405180910390fd5b60008083815260200190815260200160002060008473ffffffffffffffffffffffffffffffffffffffff1673ffffffffffffffffffffffffffffffffffffffff16815260200190815260200160002054905092915050565b60007fd9b67a26000000000000000000000000000000000000000000000000000000007bffffffffffffffffffffffffffffffffffffffffffffffffffffffff1916827bffffffffffffffffffffffffffffffffffffffffffffffffffffffff1916148061071557507f0e89341c000000000000000000000000000000000000000000000000000000007bffffffffffffffffffffffffffffffffffffffffffffffffffffffff1916827bffffffffffffffffffffffffffffffffffffffffffffffffffffffff1916145b806107255750610724826117d3565b5b9050919050565b60606002805461073b90613744565b80601f016020809104026020016040519081016040528092919081815260200182805461076790613744565b80156107b45780601f10610789576101008083540402835291602001916107b4565b820191906000526020600020905b81548152906001019060200180831161079757829003601f168201915b50505050509050919050565b6107c861183d565b73ffffffffffffffffffffffffffffffffffffffff168573ffffffffffffffffffffffffffffffffffffffff16148061080e575061080d8561080861183d565b611644565b5b61084d576040517f08c379a0000000000000000000000000000000000000000000000000000000008152600401610844906137e8565b60405180910390fd5b61085a8585858585611845565b5050505050565b606081518351146108a7576040517f08c379a000000000000000000000000000000000000000000000000000000000815260040161089e9061387a565b60405180910390fd5b6000835167ffffffffffffffff8111156108c4576108c3612b30565b5b6040519080825280602002602001820160405280156108f25781602001602082028036833780820191505090505b50905060005b845181101561096f5761093f8582815181106109175761091661389a565b5b60200260200101518583815181106109325761093161389a565b5b6020026020010151610581565b8282815181106109525761095161389a565b5b60200260200101818152505080610968906138f8565b90506108f8565b508091505092915050565b600080610986836111f9565b119050919050565b600760009054906101000a900473ffffffffffffffffffffffffffffffffffffffff1673ffffffffffffffffffffffffffffffffffffffff163373ffffffffffffffffffffffffffffffffffffffff1614610a1e576040517f08c379a0000000000000000000000000000000000000000000000000000000008152600401610a15906139b3565b60405180910390fd5b80600660006101000a81548173ffffffffffffffffffffffffffffffffffffffff021916908373ffffffffffffffffffffffffffffffffffffffff16021790555050565b600660009054906101000a900473ffffffffffffffffffffffffffffffffffffffff1681565b600081806040015160028260200151610aa19190613a02565b11610ae1576040517f08c379a0000000000000000000000000000000000000000000000000000000008152600401610ad890613aa5565b60405180910390fd5b6000600560009054906101000a900473ffffffffffffffffffffffffffffffffffffffff16905060008173ffffffffffffffffffffffffffffffffffffffff1662fdd58e3385600001516040518363ffffffff1660e01b8152600401610b48929190613ac5565b602060405180830381865afa158015610b65573d6000803e3d6000fd5b505050506040513d601f19601f82011682018060405250810190610b899190613b03565b905060008111610bce576040517f08c379a0000000000000000000000000000000000000000000000000000000008152600401610bc590613ba2565b60405180910390fd5b60006009604051602001610be29190613c61565b6040516020818303038152906040529050808660600151604051602001610c0a929190613cf0565b60405160208183030381529060405286606001819052505060001515600c60008760000151815260200190815260200160002060040160009054906101000a900460ff16151514610c90576040517f08c379a0000000000000000000000000000000000000000000000000000000008152600401610c8790613d86565b60405180910390fd5b60001515600e8660600151604051610ca89190613da6565b908152602001604051809103902060009054906101000a900460ff16151514610d06576040517f08c379a0000000000000000000000000000000000000000000000000000000008152600401610cfd90613e2f565b60405180910390fd5b60046000815480929190610d19906138f8565b919050555060006004549050610d3f8682600a60009054906101000a900460ff16611b59565b600c600088600001518152602001908152602001600020600082015181600001556020820151816001019080519060200190610d7c92919061279b565b506040820151816002019080519060200190610d9992919061279b565b506060820151816003015560808201518160040160006101000a81548160ff02191690831515021790555060a0820151816005015590505080945050505050919050565b600660009054906101000a900473ffffffffffffffffffffffffffffffffffffffff1673ffffffffffffffffffffffffffffffffffffffff163373ffffffffffffffffffffffffffffffffffffffff1614610e6d576040517f08c379a0000000000000000000000000000000000000000000000000000000008152600401610e64906139b3565b60405180910390fd5b610e9b30600660009054906101000a900473ffffffffffffffffffffffffffffffffffffffff166001611c5c565b6000821115610ed757610ed63086600b6000888152602001908152602001600020600501548560405180602001604052806000815250611707565b5b6000811115610f1357610f123086600c6000888152602001908152602001600020600501548460405180602001604052806000815250611707565b5b7f95d0edb8d2174cb0f1294749b563fa9ac6c9e441ef6a0202f6e8e52028643dfd8585858585604051610f4a959493929190613e4f565b60405180910390a15050505050565b600660009054906101000a900473ffffffffffffffffffffffffffffffffffffffff1673ffffffffffffffffffffffffffffffffffffffff163373ffffffffffffffffffffffffffffffffffffffff1614610fe9576040517f08c379a0000000000000000000000000000000000000000000000000000000008152600401610fe0906139b3565b60405180910390fd5b60011515600c600085815260200190815260200160002060040160009054906101000a900460ff1615151480611046575060011515600b600085815260200190815260200160002060040160009054906101000a900460ff161515145b611085576040517f08c379a000000000000000000000000000000000000000000000000000000000815260040161107c90613eee565b60405180910390fd5b81600c60008581526020019081526020016000206005015414806110be575081600b600085815260200190815260200160002060050154145b6110fd576040517f08c379a00000000000000000000000000000000000000000000000000000000081526004016110f490613f5a565b60405180910390fd5b6111213083836040518060600160405280602381526020016147e660239139611dc9565b7f81e0b881b9c6ff93955a4a996cc01472b2cdc1a1663af072fa5ca7db7f127de2838342846040516111569493929190613f7a565b60405180910390a1505050565b61117561116e61183d565b8383611c5c565b5050565b600080611197611188846111f9565b6111923086610581565b611f5f565b905080915050919050565b600560009054906101000a900473ffffffffffffffffffffffffffffffffffffffff1681565b60007fbc197c819b3e337a6f9652dd10becd7eef83032af3b9d958d3d42f6694146621905098975050505050505050565b600060036000838152602001908152602001600020549050919050565b60008180604001516002826020015161122f9190613a02565b1161126f576040517f08c379a000000000000000000000000000000000000000000000000000000000815260040161126690613aa5565b60405180910390fd5b6000600560009054906101000a900473ffffffffffffffffffffffffffffffffffffffff16905060008173ffffffffffffffffffffffffffffffffffffffff1662fdd58e3385600001516040518363ffffffff1660e01b81526004016112d6929190613ac5565b602060405180830381865afa1580156112f3573d6000803e3d6000fd5b505050506040513d601f19601f820116820180604052508101906113179190613b03565b90506000811161135c576040517f08c379a000000000000000000000000000000000000000000000000000000000815260040161135390613ba2565b60405180910390fd5b600060086040516020016113709190613c61565b6040516020818303038152906040529050808660600151604051602001611398929190613cf0565b60405160208183030381529060405286606001819052505060001515600b60008760000151815260200190815260200160002060040160009054906101000a900460ff1615151461141e576040517f08c379a000000000000000000000000000000000000000000000000000000000815260040161141590613d86565b60405180910390fd5b60001515600d86606001516040516114369190613da6565b908152602001604051809103902060009054906101000a900460ff16151514611494576040517f08c379a000000000000000000000000000000000000000000000000000000000815260040161148b90613e2f565b60405180910390fd5b600460008154809291906114a7906138f8565b9190505550600060045490506114cd8682600a60019054906101000a900460ff16611b59565b600b60008860000151815260200190815260200160002060008201518160000155602082015181600101908051906020019061150a92919061279b565b50604082015181600201908051906020019061152792919061279b565b506060820151816003015560808201518160040160006101000a81548160ff02191690831515021790555060a0820151816005015590505080945050505050919050565b600760009054906101000a900473ffffffffffffffffffffffffffffffffffffffff1673ffffffffffffffffffffffffffffffffffffffff163373ffffffffffffffffffffffffffffffffffffffff16146115fb576040517f08c379a00000000000000000000000000000000000000000000000000000000081526004016115f2906139b3565b60405180910390fd5b80600560006101000a81548173ffffffffffffffffffffffffffffffffffffffff021916908373ffffffffffffffffffffffffffffffffffffffff16021790555050565b600181565b6000600160008473ffffffffffffffffffffffffffffffffffffffff1673ffffffffffffffffffffffffffffffffffffffff16815260200190815260200160002060008373ffffffffffffffffffffffffffffffffffffffff1673ffffffffffffffffffffffffffffffffffffffff16815260200190815260200160002060009054906101000a900460ff16905092915050565b60007ff23a6e612e1ff4830e658fe43f4e3cb4a5f8170bd5d9e69fb5d7a7fa9e4fdf9790509695505050505050565b61170f61183d565b73ffffffffffffffffffffffffffffffffffffffff168573ffffffffffffffffffffffffffffffffffffffff16148061175557506117548561174f61183d565b611644565b5b611794576040517f08c379a000000000000000000000000000000000000000000000000000000000815260040161178b90614031565b60405180910390fd5b6117a18585858585611f75565b5050505050565b505050505050565b6000808273ffffffffffffffffffffffffffffffffffffffff163b119050919050565b60007f01ffc9a7000000000000000000000000000000000000000000000000000000007bffffffffffffffffffffffffffffffffffffffffffffffffffffffff1916827bffffffffffffffffffffffffffffffffffffffffffffffffffffffff1916149050919050565b600033905090565b8151835114611889576040517f08c379a0000000000000000000000000000000000000000000000000000000008152600401611880906140c3565b60405180910390fd5b600073ffffffffffffffffffffffffffffffffffffffff168473ffffffffffffffffffffffffffffffffffffffff1614156118f9576040517f08c379a00000000000000000000000000000000000000000000000000000000081526004016118f090614155565b60405180910390fd5b600061190361183d565b90506119138187878787876121f7565b60005b8451811015611ac45760008582815181106119345761193361389a565b5b6020026020010151905060008583815181106119535761195261389a565b5b60200260200101519050600080600084815260200190815260200160002060008b73ffffffffffffffffffffffffffffffffffffffff1673ffffffffffffffffffffffffffffffffffffffff168152602001908152602001600020549050818110156119f4576040517f08c379a00000000000000000000000000000000000000000000000000000000081526004016119eb906141e7565b60405180910390fd5b81810360008085815260200190815260200160002060008c73ffffffffffffffffffffffffffffffffffffffff1673ffffffffffffffffffffffffffffffffffffffff168152602001908152602001600020819055508160008085815260200190815260200160002060008b73ffffffffffffffffffffffffffffffffffffffff1673ffffffffffffffffffffffffffffffffffffffff1681526020019081526020016000206000828254611aa99190614207565b9250508190555050505080611abd906138f8565b9050611916565b508473ffffffffffffffffffffffffffffffffffffffff168673ffffffffffffffffffffffffffffffffffffffff168273ffffffffffffffffffffffffffffffffffffffff167f4a39dc06d4c0dbc64b70af90fd698a233a518aa5d07e595d983b8c0526c8f7fb8787604051611b3b92919061425d565b60405180910390a4611b51818787878787612371565b505050505050565b611b61612821565b600084604001518560200151611b779190614294565b9050600085604001519050611b9d30868460405180602001604052806000815250611dc9565b611bb833868360405180602001604052806000815250611dc9565b60006040518060c001604052808860000151815260200188606001518152602001886080015181526020014281526020016001151581526020018781525090507f49debfc18817e7e3ec2948391bcc3a87349b3c716f7d470d223bfbf8928aa65a87600001518860600151896080015184606001518b602001518b8b604051611c4797969594939291906142e4565b60405180910390a18093505050509392505050565b8173ffffffffffffffffffffffffffffffffffffffff168373ffffffffffffffffffffffffffffffffffffffff161415611ccb576040517f08c379a0000000000000000000000000000000000000000000000000000000008152600401611cc2906143d3565b60405180910390fd5b80600160008573ffffffffffffffffffffffffffffffffffffffff1673ffffffffffffffffffffffffffffffffffffffff16815260200190815260200160002060008473ffffffffffffffffffffffffffffffffffffffff1673ffffffffffffffffffffffffffffffffffffffff16815260200190815260200160002060006101000a81548160ff0219169083151502179055508173ffffffffffffffffffffffffffffffffffffffff168373ffffffffffffffffffffffffffffffffffffffff167f17307eab39ab6107e8899845ad3d59bd9653f200f220920489ca2b5937696c3183604051611dbc9190612a28565b60405180910390a3505050565b600073ffffffffffffffffffffffffffffffffffffffff168473ffffffffffffffffffffffffffffffffffffffff161415611e39576040517f08c379a0000000000000000000000000000000000000000000000000000000008152600401611e3090614465565b60405180910390fd5b6000611e4361183d565b9050611e6481600087611e5588612549565b611e5e88612549565b876121f7565b8260008086815260200190815260200160002060008773ffffffffffffffffffffffffffffffffffffffff1673ffffffffffffffffffffffffffffffffffffffff1681526020019081526020016000206000828254611ec39190614207565b925050819055508473ffffffffffffffffffffffffffffffffffffffff16600073ffffffffffffffffffffffffffffffffffffffff168273ffffffffffffffffffffffffffffffffffffffff167fc3d58168c5ae7397731d063d5bbf3d657854427343f4c083240f7aacaa2d0f628787604051611f41929190614485565b60405180910390a4611f58816000878787876125c3565b5050505050565b60008183611f6d9190614294565b905092915050565b600073ffffffffffffffffffffffffffffffffffffffff168473ffffffffffffffffffffffffffffffffffffffff161415611fe5576040517f08c379a0000000000000000000000000000000000000000000000000000000008152600401611fdc90614155565b60405180910390fd5b6000611fef61183d565b905061200f81878761200088612549565b61200988612549565b876121f7565b600080600086815260200190815260200160002060008873ffffffffffffffffffffffffffffffffffffffff1673ffffffffffffffffffffffffffffffffffffffff168152602001908152602001600020549050838110156120a6576040517f08c379a000000000000000000000000000000000000000000000000000000000815260040161209d906141e7565b60405180910390fd5b83810360008087815260200190815260200160002060008973ffffffffffffffffffffffffffffffffffffffff1673ffffffffffffffffffffffffffffffffffffffff168152602001908152602001600020819055508360008087815260200190815260200160002060008873ffffffffffffffffffffffffffffffffffffffff1673ffffffffffffffffffffffffffffffffffffffff168152602001908152602001600020600082825461215b9190614207565b925050819055508573ffffffffffffffffffffffffffffffffffffffff168773ffffffffffffffffffffffffffffffffffffffff168373ffffffffffffffffffffffffffffffffffffffff167fc3d58168c5ae7397731d063d5bbf3d657854427343f4c083240f7aacaa2d0f6288886040516121d8929190614485565b60405180910390a46121ee8288888888886125c3565b50505050505050565b6122058686868686866117a8565b600073ffffffffffffffffffffffffffffffffffffffff168573ffffffffffffffffffffffffffffffffffffffff1614156122b75760005b83518110156122b5578281815181106122595761225861389a565b5b6020026020010151600360008684815181106122785761227761389a565b5b60200260200101518152602001908152602001600020600082825461229d9190614207565b92505081905550806122ae906138f8565b905061223d565b505b600073ffffffffffffffffffffffffffffffffffffffff168473ffffffffffffffffffffffffffffffffffffffff1614156123695760005b83518110156123675782818151811061230b5761230a61389a565b5b60200260200101516003600086848151811061232a5761232961389a565b5b60200260200101518152602001908152602001600020600082825461234f9190614294565b9250508190555080612360906138f8565b90506122ef565b505b505050505050565b6123908473ffffffffffffffffffffffffffffffffffffffff166117b0565b15612541578373ffffffffffffffffffffffffffffffffffffffff1663bc197c8187878686866040518663ffffffff1660e01b81526004016123d69594939291906144f8565b6020604051808303816000875af192505050801561241257506040513d601f19601f8201168201806040525081019061240f9190614575565b60015b6124b85761241e6145af565b806308c379a0141561247b57506124336145d1565b8061243e575061247d565b806040517f08c379a00000000000000000000000000000000000000000000000000000000081526004016124729190612b09565b60405180910390fd5b505b6040517f08c379a00000000000000000000000000000000000000000000000000000000081526004016124af906146d9565b60405180910390fd5b63bc197c8160e01b7bffffffffffffffffffffffffffffffffffffffffffffffffffffffff1916817bffffffffffffffffffffffffffffffffffffffffffffffffffffffff19161461253f576040517f08c379a00000000000000000000000000000000000000000000000000000000081526004016125369061476b565b60405180910390fd5b505b505050505050565b60606000600167ffffffffffffffff81111561256857612567612b30565b5b6040519080825280602002602001820160405280156125965781602001602082028036833780820191505090505b50905082816000815181106125ae576125ad61389a565b5b60200260200101818152505080915050919050565b6125e28473ffffffffffffffffffffffffffffffffffffffff166117b0565b15612793578373ffffffffffffffffffffffffffffffffffffffff1663f23a6e6187878686866040518663ffffffff1660e01b815260040161262895949392919061478b565b6020604051808303816000875af192505050801561266457506040513d601f19601f820116820180604052508101906126619190614575565b60015b61270a576126706145af565b806308c379a014156126cd57506126856145d1565b8061269057506126cf565b806040517f08c379a00000000000000000000000000000000000000000000000000000000081526004016126c49190612b09565b60405180910390fd5b505b6040517f08c379a0000000000000000000000000000000000000000000000000000000008152600401612701906146d9565b60405180910390fd5b63f23a6e6160e01b7bffffffffffffffffffffffffffffffffffffffffffffffffffffffff1916817bffffffffffffffffffffffffffffffffffffffffffffffffffffffff191614612791576040517f08c379a00000000000000000000000000000000000000000000000000000000081526004016127889061476b565b60405180910390fd5b505b505050505050565b8280546127a790613744565b90600052602060002090601f0160209004810192826127c95760008555612810565b82601f106127e257805160ff1916838001178555612810565b82800160010185558215612810579182015b8281111561280f5782518255916020019190600101906127f4565b5b50905061281d9190612859565b5090565b6040518060c0016040528060008152602001606081526020016060815260200160008152602001600015158152602001600081525090565b5b8082111561287257600081600090555060010161285a565b5090565b6000604051905090565b600080fd5b600080fd5b600073ffffffffffffffffffffffffffffffffffffffff82169050919050565b60006128b58261288a565b9050919050565b6128c5816128aa565b81146128d057600080fd5b50565b6000813590506128e2816128bc565b92915050565b6000819050919050565b6128fb816128e8565b811461290657600080fd5b50565b600081359050612918816128f2565b92915050565b6000806040838503121561293557612934612880565b5b6000612943858286016128d3565b925050602061295485828601612909565b9150509250929050565b612967816128e8565b82525050565b6000602082019050612982600083018461295e565b92915050565b60007fffffffff0000000000000000000000000000000000000000000000000000000082169050919050565b6129bd81612988565b81146129c857600080fd5b50565b6000813590506129da816129b4565b92915050565b6000602082840312156129f6576129f5612880565b5b6000612a04848285016129cb565b91505092915050565b60008115159050919050565b612a2281612a0d565b82525050565b6000602082019050612a3d6000830184612a19565b92915050565b600060208284031215612a5957612a58612880565b5b6000612a6784828501612909565b91505092915050565b600081519050919050565b600082825260208201905092915050565b60005b83811015612aaa578082015181840152602081019050612a8f565b83811115612ab9576000848401525b50505050565b6000601f19601f8301169050919050565b6000612adb82612a70565b612ae58185612a7b565b9350612af5818560208601612a8c565b612afe81612abf565b840191505092915050565b60006020820190508181036000830152612b238184612ad0565b905092915050565b600080fd5b7f4e487b7100000000000000000000000000000000000000000000000000000000600052604160045260246000fd5b612b6882612abf565b810181811067ffffffffffffffff82111715612b8757612b86612b30565b5b80604052505050565b6000612b9a612876565b9050612ba68282612b5f565b919050565b600067ffffffffffffffff821115612bc657612bc5612b30565b5b602082029050602081019050919050565b600080fd5b6000612bef612bea84612bab565b612b90565b90508083825260208201905060208402830185811115612c1257612c11612bd7565b5b835b81811015612c3b5780612c278882612909565b845260208401935050602081019050612c14565b5050509392505050565b600082601f830112612c5a57612c59612b2b565b5b8135612c6a848260208601612bdc565b91505092915050565b600080fd5b600067ffffffffffffffff821115612c9357612c92612b30565b5b612c9c82612abf565b9050602081019050919050565b82818337600083830152505050565b6000612ccb612cc684612c78565b612b90565b905082815260208101848484011115612ce757612ce6612c73565b5b612cf2848285612ca9565b509392505050565b600082601f830112612d0f57612d0e612b2b565b5b8135612d1f848260208601612cb8565b91505092915050565b600080600080600060a08688031215612d4457612d43612880565b5b6000612d52888289016128d3565b9550506020612d63888289016128d3565b945050604086013567ffffffffffffffff811115612d8457612d83612885565b5b612d9088828901612c45565b935050606086013567ffffffffffffffff811115612db157612db0612885565b5b612dbd88828901612c45565b925050608086013567ffffffffffffffff811115612dde57612ddd612885565b5b612dea88828901612cfa565b9150509295509295909350565b600067ffffffffffffffff821115612e1257612e11612b30565b5b602082029050602081019050919050565b6000612e36612e3184612df7565b612b90565b90508083825260208201905060208402830185811115612e5957612e58612bd7565b5b835b81811015612e825780612e6e88826128d3565b845260208401935050602081019050612e5b565b5050509392505050565b600082601f830112612ea157612ea0612b2b565b5b8135612eb1848260208601612e23565b91505092915050565b60008060408385031215612ed157612ed0612880565b5b600083013567ffffffffffffffff811115612eef57612eee612885565b5b612efb85828601612e8c565b925050602083013567ffffffffffffffff811115612f1c57612f1b612885565b5b612f2885828601612c45565b9150509250929050565b600081519050919050565b600082825260208201905092915050565b6000819050602082019050919050565b612f67816128e8565b82525050565b6000612f798383612f5e565b60208301905092915050565b6000602082019050919050565b6000612f9d82612f32565b612fa78185612f3d565b9350612fb283612f4e565b8060005b83811015612fe3578151612fca8882612f6d565b9750612fd583612f85565b925050600181019050612fb6565b5085935050505092915050565b6000602082019050818103600083015261300a8184612f92565b905092915050565b60006020828403121561302857613027612880565b5b6000613036848285016128d3565b91505092915050565b613048816128aa565b82525050565b6000602082019050613063600083018461303f565b92915050565b600080fd5b600080fd5b600067ffffffffffffffff82111561308e5761308d612b30565b5b61309782612abf565b9050602081019050919050565b60006130b76130b284613073565b612b90565b9050828152602081018484840111156130d3576130d2612c73565b5b6130de848285612ca9565b509392505050565b600082601f8301126130fb576130fa612b2b565b5b813561310b8482602086016130a4565b91505092915050565b600060a0828403121561312a57613129613069565b5b61313460a0612b90565b9050600061314484828501612909565b600083015250602061315884828501612909565b602083015250604061316c84828501612909565b604083015250606082013567ffffffffffffffff8111156131905761318f61306e565b5b61319c848285016130e6565b606083015250608082013567ffffffffffffffff8111156131c0576131bf61306e565b5b6131cc848285016130e6565b60808301525092915050565b6000602082840312156131ee576131ed612880565b5b600082013567ffffffffffffffff81111561320c5761320b612885565b5b61321884828501613114565b91505092915050565b600080600080600060a0868803121561323d5761323c612880565b5b600061324b888289016128d3565b955050602061325c88828901612909565b945050604061326d88828901612909565b935050606061327e88828901612909565b925050608061328f88828901612909565b9150509295509295909350565b6000806000606084860312156132b5576132b4612880565b5b60006132c386828701612909565b93505060206132d486828701612909565b92505060406132e586828701612909565b9150509250925092565b6132f881612a0d565b811461330357600080fd5b50565b600081359050613315816132ef565b92915050565b6000806040838503121561333257613331612880565b5b6000613340858286016128d3565b925050602061335185828601613306565b9150509250929050565b600080fd5b60008083601f84011261337657613375612b2b565b5b8235905067ffffffffffffffff8111156133935761339261335b565b5b6020830191508360208202830111156133af576133ae612bd7565b5b9250929050565b60008083601f8401126133cc576133cb612b2b565b5b8235905067ffffffffffffffff8111156133e9576133e861335b565b5b60208301915083600182028301111561340557613404612bd7565b5b9250929050565b60008060008060008060008060a0898b03121561342c5761342b612880565b5b600061343a8b828c016128d3565b985050602061344b8b828c016128d3565b975050604089013567ffffffffffffffff81111561346c5761346b612885565b5b6134788b828c01613360565b9650965050606089013567ffffffffffffffff81111561349b5761349a612885565b5b6134a78b828c01613360565b9450945050608089013567ffffffffffffffff8111156134ca576134c9612885565b5b6134d68b828c016133b6565b92509250509295985092959890939650565b6134f181612988565b82525050565b600060208201905061350c60008301846134e8565b92915050565b6000806040838503121561352957613528612880565b5b6000613537858286016128d3565b9250506020613548858286016128d3565b9150509250929050565b60008060008060008060a0878903121561356f5761356e612880565b5b600061357d89828a016128d3565b965050602061358e89828a016128d3565b955050604061359f89828a01612909565b94505060606135b089828a01612909565b935050608087013567ffffffffffffffff8111156135d1576135d0612885565b5b6135dd89828a016133b6565b92509250509295509295509295565b600080600080600060a0868803121561360857613607612880565b5b6000613616888289016128d3565b9550506020613627888289016128d3565b945050604061363888828901612909565b935050606061364988828901612909565b925050608086013567ffffffffffffffff81111561366a57613669612885565b5b61367688828901612cfa565b9150509295509295909350565b7f455243313135353a2062616c616e636520717565727920666f7220746865207a60008201527f65726f2061646472657373000000000000000000000000000000000000000000602082015250565b60006136df602b83612a7b565b91506136ea82613683565b604082019050919050565b6000602082019050818103600083015261370e816136d2565b9050919050565b7f4e487b7100000000000000000000000000000000000000000000000000000000600052602260045260246000fd5b6000600282049050600182168061375c57607f821691505b602082108114156137705761376f613715565b5b50919050565b7f455243313135353a207472616e736665722063616c6c6572206973206e6f742060008201527f6f776e6572206e6f7220617070726f7665640000000000000000000000000000602082015250565b60006137d2603283612a7b565b91506137dd82613776565b604082019050919050565b60006020820190508181036000830152613801816137c5565b9050919050565b7f455243313135353a206163636f756e747320616e6420696473206c656e67746860008201527f206d69736d617463680000000000000000000000000000000000000000000000602082015250565b6000613864602983612a7b565b915061386f82613808565b604082019050919050565b6000602082019050818103600083015261389381613857565b9050919050565b7f4e487b7100000000000000000000000000000000000000000000000000000000600052603260045260246000fd5b7f4e487b7100000000000000000000000000000000000000000000000000000000600052601160045260246000fd5b6000613903826128e8565b91507fffffffffffffffffffffffffffffffffffffffffffffffffffffffffffffffff821415613936576139356138c9565b5b600182019050919050565b7f596f7520617265206e6f7420617574686f72697a656420666f7220746869732060008201527f616374696f6e0000000000000000000000000000000000000000000000000000602082015250565b600061399d602683612a7b565b91506139a882613941565b604082019050919050565b600060208201905081810360008301526139cc81613990565b9050919050565b7f4e487b7100000000000000000000000000000000000000000000000000000000600052601260045260246000fd5b6000613a0d826128e8565b9150613a18836128e8565b925082613a2857613a276139d3565b5b828204905092915050565b7f54726561737572792073686f756c642068617665206174206c6561737420353060008201527f25206f662074686520746f74616c20737570706c790000000000000000000000602082015250565b6000613a8f603583612a7b565b9150613a9a82613a33565b604082019050919050565b60006020820190508181036000830152613abe81613a82565b9050919050565b6000604082019050613ada600083018561303f565b613ae7602083018461295e565b9392505050565b600081519050613afd816128f2565b92915050565b600060208284031215613b1957613b18612880565b5b6000613b2784828501613aee565b91505092915050565b7f596f7520617265206e6f7420746865206f776e6572206f66207468652072656360008201527f6f72640000000000000000000000000000000000000000000000000000000000602082015250565b6000613b8c602383612a7b565b9150613b9782613b30565b604082019050919050565b60006020820190508181036000830152613bbb81613b7f565b9050919050565b600081905092915050565b60008190508160005260206000209050919050565b60008154613bef81613744565b613bf98186613bc2565b94506001821660008114613c145760018114613c2557613c58565b60ff19831686528186019350613c58565b613c2e85613bcd565b60005b83811015613c5057815481890152600182019150602081019050613c31565b838801955050505b50505092915050565b6000613c6d8284613be2565b915081905092915050565b600081519050919050565b600081905092915050565b6000613c9982613c78565b613ca38185613c83565b9350613cb3818560208601612a8c565b80840191505092915050565b6000613cca82612a70565b613cd48185613bc2565b9350613ce4818560208601612a8c565b80840191505092915050565b6000613cfc8285613c8e565b9150613d088284613cbf565b91508190509392505050565b7f476f7665726e616e636520746f6b656e20666f72207468697320696420616c7260008201527f656164792070726573656e740000000000000000000000000000000000000000602082015250565b6000613d70602c83612a7b565b9150613d7b82613d14565b604082019050919050565b60006020820190508181036000830152613d9f81613d63565b9050919050565b6000613db28284613cbf565b915081905092915050565b7f476f7665726e616e636520746f6b656e207769746820746869732053594d424f60008201527f4c20616c72656164792070726573656e74000000000000000000000000000000602082015250565b6000613e19603183612a7b565b9150613e2482613dbd565b604082019050919050565b60006020820190508181036000830152613e4881613e0c565b9050919050565b600060a082019050613e64600083018861303f565b613e71602083018761295e565b613e7e604083018661295e565b613e8b606083018561295e565b613e98608083018461295e565b9695505050505050565b7f496e76616c6964207265636f7264200000000000000000000000000000000000600082015250565b6000613ed8600f83612a7b565b9150613ee382613ea2565b602082019050919050565b60006020820190508181036000830152613f0781613ecb565b9050919050565b7f496e76616c696420746f6b656e73000000000000000000000000000000000000600082015250565b6000613f44600e83612a7b565b9150613f4f82613f0e565b602082019050919050565b60006020820190508181036000830152613f7381613f37565b9050919050565b6000608082019050613f8f600083018761295e565b613f9c602083018661295e565b613fa9604083018561295e565b613fb6606083018461295e565b95945050505050565b7f455243313135353a2063616c6c6572206973206e6f74206f776e6572206e6f7260008201527f20617070726f7665640000000000000000000000000000000000000000000000602082015250565b600061401b602983612a7b565b915061402682613fbf565b604082019050919050565b6000602082019050818103600083015261404a8161400e565b9050919050565b7f455243313135353a2069647320616e6420616d6f756e7473206c656e6774682060008201527f6d69736d61746368000000000000000000000000000000000000000000000000602082015250565b60006140ad602883612a7b565b91506140b882614051565b604082019050919050565b600060208201905081810360008301526140dc816140a0565b9050919050565b7f455243313135353a207472616e7366657220746f20746865207a65726f20616460008201527f6472657373000000000000000000000000000000000000000000000000000000602082015250565b600061413f602583612a7b565b915061414a826140e3565b604082019050919050565b6000602082019050818103600083015261416e81614132565b9050919050565b7f455243313135353a20696e73756666696369656e742062616c616e636520666f60008201527f72207472616e7366657200000000000000000000000000000000000000000000602082015250565b60006141d1602a83612a7b565b91506141dc82614175565b604082019050919050565b60006020820190508181036000830152614200816141c4565b9050919050565b6000614212826128e8565b915061421d836128e8565b9250827fffffffffffffffffffffffffffffffffffffffffffffffffffffffffffffffff03821115614252576142516138c9565b5b828201905092915050565b600060408201905081810360008301526142778185612f92565b9050818103602083015261428b8184612f92565b90509392505050565b600061429f826128e8565b91506142aa836128e8565b9250828210156142bd576142bc6138c9565b5b828203905092915050565b600060ff82169050919050565b6142de816142c8565b82525050565b600060e0820190506142f9600083018a61295e565b818103602083015261430b8189612ad0565b9050818103604083015261431f8188612ad0565b905061432e606083018761295e565b61433b608083018661295e565b61434860a083018561295e565b61435560c08301846142d5565b98975050505050505050565b7f455243313135353a2073657474696e6720617070726f76616c2073746174757360008201527f20666f722073656c660000000000000000000000000000000000000000000000602082015250565b60006143bd602983612a7b565b91506143c882614361565b604082019050919050565b600060208201905081810360008301526143ec816143b0565b9050919050565b7f455243313135353a206d696e7420746f20746865207a65726f2061646472657360008201527f7300000000000000000000000000000000000000000000000000000000000000602082015250565b600061444f602183612a7b565b915061445a826143f3565b604082019050919050565b6000602082019050818103600083015261447e81614442565b9050919050565b600060408201905061449a600083018561295e565b6144a7602083018461295e565b9392505050565b600082825260208201905092915050565b60006144ca82613c78565b6144d481856144ae565b93506144e4818560208601612a8c565b6144ed81612abf565b840191505092915050565b600060a08201905061450d600083018861303f565b61451a602083018761303f565b818103604083015261452c8186612f92565b905081810360608301526145408185612f92565b9050818103608083015261455481846144bf565b90509695505050505050565b60008151905061456f816129b4565b92915050565b60006020828403121561458b5761458a612880565b5b600061459984828501614560565b91505092915050565b60008160e01c9050919050565b600060033d11156145ce5760046000803e6145cb6000516145a2565b90505b90565b600060443d10156145e157614664565b6145e9612876565b60043d036004823e80513d602482011167ffffffffffffffff82111715614611575050614664565b808201805167ffffffffffffffff81111561462f5750505050614664565b80602083010160043d03850181111561464c575050505050614664565b61465b82602001850186612b5f565b82955050505050505b90565b7f455243313135353a207472616e7366657220746f206e6f6e204552433131353560008201527f526563656976657220696d706c656d656e746572000000000000000000000000602082015250565b60006146c3603483612a7b565b91506146ce82614667565b604082019050919050565b600060208201905081810360008301526146f2816146b6565b9050919050565b7f455243313135353a204552433131353552656365697665722072656a6563746560008201527f6420746f6b656e73000000000000000000000000000000000000000000000000602082015250565b6000614755602883612a7b565b9150614760826146f9565b604082019050919050565b6000602082019050818103600083015261478481614748565b9050919050565b600060a0820190506147a0600083018861303f565b6147ad602083018761303f565b6147ba604083018661295e565b6147c7606083018561295e565b81810360808301526147d981846144bf565b9050969550505050505056fe546f6b656e206d696e746564207468726f75676820766f74696e672070726f63657373a26469706673582212204dfe8a16b7e002efca5e2df205b1e1787a5ad8a76cdfdb1a09932e028f30b02564736f6c634300080c0033",
  "immutableReferences": {},
  "source": "pragma solidity ^0.8.0;\n\nimport \"@openzeppelin/contracts/token/ERC1155/ERC1155.sol\";\nimport \"@openzeppelin/contracts/token/ERC1155/IERC1155Receiver.sol\";\nimport \"@openzeppelin/contracts/token/ERC1155/extensions/ERC1155Supply.sol\";\nimport \"@openzeppelin/contracts/utils/Counters.sol\";\nimport \"@openzeppelin/contracts/access/Ownable.sol\";\nimport \"./RecordsContract.sol\";\nimport \"@openzeppelin/contracts/utils/math/SafeMath.sol\";\n\n// ERC 20 balance[adress] => 2 contracts // governance and comunity\n// ERC 721 blance[adress] => 1 contract // records\n// ERC 1155\n\ncontract TreasuryContract is IERC1155Receiver, ERC1155Supply {\n    uint256 public constant CRD = 1;\n    uint256 private LastTokenId = 1;\n    address public RECORDS_CONTRACT_ADDRESS;\n    address public VOTING_CONTRACT_ADDRESS;\n    address OWNER;\n    string private PREFIX_GOVERNANCE = \"CRDG_\";\n    string private PREFIX_COMMUNITY = \"CRD_\";\n    uint8 private TOKEN_TYPE_COMMUNITY = 0;\n    uint8 private TOKEN_TYPE_GOVERNANCE = 1;\n\n    struct Token {\n        uint256 recordId;\n        string symbol;\n        string image;\n        uint256 creationDate;\n        bool isPresent;\n        uint256 tokenId;\n    }\n\n    struct NewTokenData {\n        uint256 recordId;\n        uint256 totalSupply;\n        uint256 userBalance;\n        string symbol;\n        string image;\n    }\n\n    /**\n        @dev this is event which is created when a token transfer takes place\n        @param from This is the address of sender \n        @param to This is the address of reciver \n        @param transferDate This is the date of the transfer\n        @param tokenId This is the id of the token that is being transfered \n        @param amount This is the amount of token transfered \n        @param symbol This is the symbol of the token that were transfered\n     */\n    event TokenTransfer(\n        address from,\n        address to,\n        uint256 transferDate,\n        uint256 tokenId,\n        uint256 amount,\n        string symbol\n    );\n\n    /**\n        @dev this is event which is created when new governance token is created (NEW CREATION Not MINITING)\n        @param recordId This is the record Id to which this token belongs to \n        @param symbol This is the symbol of the governance token\n        @param image This is the image of the token \n        @param creationDate This is the creation date of the token \n        @param tokenAmount This is the amount of token that are created \n        @param tokenId This is the id of token that is newly created tokens \n        @param tokenType This is the type of the token that is created => For governance 1 and for copyright 0  \n      */\n    event NewTokenCreated(\n        uint256 recordId,\n        string symbol,\n        string image,\n        uint256 creationDate,\n        uint256 tokenAmount,\n        uint256 tokenId,\n        uint8 tokenType\n    );\n\n    /**\n        @dev this is event which is created when new governance token is minted after the voting is done\n        @param recordId This is the record Id to which this token belongs to \n        @param creationDate This is the creation date of the token \n        @param tokenAmount This is the amount of token that are created \n        @param tokenId This is the id of token that is newly created tokens \n      */\n    event TokenMinted(\n        uint256 recordId,\n        uint256 tokenId,\n        uint256 creationDate,\n        uint256 tokenAmount\n    );\n\n    /**\n        @dev this is event which is genrated when a contribution voting has came to an end and the contribution is accepted\n        @param to This the address of the winner or the owner of the contribution \n        @param recordId This is the id of the record to which this contribution relates to \n        @param contributionId This is the id of the contribution to which the record is related to \n        @param rewardGovernance The reward amount for governance tokens \n        @param rewardCommunity The reward amount for comunity tokens\n     */\n    event ContributionRewardTransfered(\n        address to,\n        uint256 recordId,\n        uint256 contributionId,\n        uint256 rewardGovernance,\n        uint256 rewardCommunity\n    );\n\n    mapping(uint256 => Token) govTokenMapping;\n    mapping(uint256 => Token) commTokenMapping;\n\n    mapping(string => bool) govTokenSym;\n    mapping(string => bool) commTokenSym;\n\n    // By default URI to crowdrecords domain\n    // 9 decimal points supported\n    constructor() ERC1155(\"https://crowdrecords.com/{id}\") {\n        _mint(msg.sender, CRD, 10**9, \"https://crowdrecords.com\");\n        OWNER = msg.sender;\n    }\n\n    /**\n     * @dev Modifier to check that the person who accesses a specific function is the owner of contract himself.\n     */\n    modifier ownerOnly() {\n        require(msg.sender == OWNER, \"You are not authorized for this action\");\n        _;\n    }\n\n    /**\n     * @dev Modifier to check if the sender is authorized to create tokens for this record.\n     */\n    modifier canCreateToken(NewTokenData memory newTokenData) {\n        require(\n            newTokenData.totalSupply / 2 > newTokenData.userBalance,\n            \"Treasury should have at least 50% of the total supply\"\n        );\n\n        RecordsContract recordsContract = RecordsContract(\n            RECORDS_CONTRACT_ADDRESS\n        );\n\n        uint256 balance = recordsContract.balanceOf(\n            msg.sender,\n            newTokenData.recordId\n        );\n\n        require(balance > 0, \"You are not the owner of the record\");\n        _;\n    }\n\n    /**\n     * @dev Modifier to check that if the sender is the voting contract or not.\n     */\n    modifier onlyVotingContract() {\n        require(\n            msg.sender == VOTING_CONTRACT_ADDRESS,\n            \"You are not authorized for this action\"\n        );\n        _;\n    }\n\n    /**\n     * @dev This function sets the Records Contract address\n     */\n    function setRecordsContractAddress(address newRecordsContractAddress)\n        public\n        ownerOnly\n    {\n        RECORDS_CONTRACT_ADDRESS = newRecordsContractAddress;\n    }\n\n    /**\n     * @dev This function sets the Voting Contract address\n     */\n    function setVotingContractAddress(address newVotingContractAddress)\n        public\n        ownerOnly\n    {\n        VOTING_CONTRACT_ADDRESS = newVotingContractAddress;\n    }\n\n    /**\n     * @dev This function creats new governance tokens for specified record\n     * @param newTokenData This contains all the parameters needed to create a new governance token that are\n     * - recordId This is the recordId that for new token\n     * - totalSupply This is the total supply of governance token\n     * - userBalance This is the amount of tokens that user wants to keep to himself\n     * - symbol This is the symbol of the gvernance token\n     * - image this is image of the gov token.\n     */\n    function createNewGovernanceToken(NewTokenData memory newTokenData)\n        external\n        payable\n        canCreateToken(newTokenData)\n        returns (uint256)\n    {\n        {\n            bytes memory preString = abi.encodePacked(PREFIX_GOVERNANCE);\n            newTokenData.symbol = string(\n                abi.encodePacked(preString, newTokenData.symbol)\n            );\n        }\n\n        require(\n            govTokenMapping[newTokenData.recordId].isPresent == false,\n            \"Governance token for this id already present\"\n        );\n\n        require(\n            govTokenSym[newTokenData.symbol] == false,\n            \"Governance token with this SYMBOL already present\"\n        );\n\n        LastTokenId++;\n        uint256 newTokenId = LastTokenId;\n\n        //Map the recordId with the\n        govTokenMapping[newTokenData.recordId] = createToken(\n            newTokenData,\n            newTokenId,\n            TOKEN_TYPE_GOVERNANCE\n        );\n\n        return newTokenId;\n    }\n\n    /**\n     * @dev This function creats new community tokens for specified record\n     * @param newTokenData This contains all the parameters needed to create a new community token that are\n     * - recordId This is the recordId that for new token\n     * - totalSupply This is the total supply of community token\n     * - userBalance This is the amount of tokens that user wants to keep to himself\n     * - symbol This is the symbol of the community token\n     * - image this is image of the gov token.\n     */\n    function createNewCommunityToken(NewTokenData memory newTokenData)\n        external\n        payable\n        canCreateToken(newTokenData)\n        returns (uint256)\n    {\n        {\n            bytes memory preString = abi.encodePacked(PREFIX_COMMUNITY);\n            newTokenData.symbol = string(\n                abi.encodePacked(preString, newTokenData.symbol)\n            );\n        }\n\n        require(\n            commTokenMapping[newTokenData.recordId].isPresent == false,\n            \"Governance token for this id already present\"\n        );\n\n        require(\n            commTokenSym[newTokenData.symbol] == false,\n            \"Governance token with this SYMBOL already present\"\n        );\n\n        LastTokenId++;\n        uint256 newTokenId = LastTokenId;\n\n        //Map the recordId with the\n        commTokenMapping[newTokenData.recordId] = createToken(\n            newTokenData,\n            newTokenId,\n            TOKEN_TYPE_COMMUNITY\n        );\n\n        return newTokenId;\n    }\n\n    /**\n     * @dev This function is an internal use only function whoes role is to create a new token of specified type\n     * @param newTokenData This contains all the parameters needed to create a new community token that are\n     * - recordId This is the recordId that for new token\n     * - totalSupply This is the total supply of community token\n     * - userBalance This is the amount of tokens that user wants to keep to himself\n     * - symbol This is the symbol of the community token\n     * - image this is image of the gov token.\n     * @param newTokenId This is the Id of the token to create\n     * @param tokenType This is the type of token that is to be created such as community or governance\n     */\n    function createToken(\n        NewTokenData memory newTokenData,\n        uint256 newTokenId,\n        uint8 tokenType\n    ) private returns (Token memory) {\n        //!Add check for the totalsupply > userBalance\n\n        uint256 treasuryAmount = (newTokenData.totalSupply -\n            newTokenData.userBalance);\n        uint256 userAmount = newTokenData.userBalance;\n\n        // Here minting of new tokens is done. And those are sent directly into the treasury\n        _mint(address(this), newTokenId, treasuryAmount, \"\");\n\n        // The user requested amount of tokens is genrated and send to his account\n        _mint(msg.sender, newTokenId, userAmount, \"\");\n\n        Token memory token = Token({\n            recordId: newTokenData.recordId,\n            symbol: newTokenData.symbol,\n            image: newTokenData.image,\n            creationDate: block.timestamp,\n            isPresent: true,\n            tokenId: newTokenId\n        });\n\n        emit NewTokenCreated({\n            recordId: newTokenData.recordId,\n            symbol: newTokenData.symbol,\n            image: newTokenData.image,\n            creationDate: token.creationDate,\n            tokenAmount: newTokenData.totalSupply,\n            tokenId: newTokenId,\n            tokenType: tokenType\n        });\n\n        return token;\n    }\n\n    /**\n     * @dev This function creats new community tokens for specified record\n     * @param recordId This is the id of the record to which the token belongs to\n     * @param tokenId This is the id of the which is to be minted\n     * @param tokenAmount This is the amount that is to be minted\n     */\n    function mintTokens(\n        uint256 recordId,\n        uint256 tokenId,\n        uint256 tokenAmount\n    ) external payable onlyVotingContract {\n        require(\n            commTokenMapping[recordId].isPresent == true ||\n                govTokenMapping[recordId].isPresent == true,\n            \"Invalid record \"\n        );\n\n        require(\n            commTokenMapping[recordId].tokenId == tokenId ||\n                govTokenMapping[recordId].tokenId == tokenId,\n            \"Invalid tokens\"\n        );\n\n        // Here minting of new tokens is done. And those are sent directly into the treasury\n        _mint(\n            address(this),\n            tokenId,\n            tokenAmount,\n            \"Token minted through voting process\"\n        );\n\n        emit TokenMinted({\n            recordId: recordId,\n            tokenId: tokenId,\n            creationDate: block.timestamp,\n            tokenAmount: tokenAmount\n        });\n    }\n\n    /**\n     * @dev This function is called only by the voting contract once the voting ends\n     * @param to This is the recivers address\n     * @param recordId This is the recordId to which the contribution belongs to\n     * @param contributionId this is the contribution id to which the user has won\n     * @param rewardGovernance this is the amout of Governance token that needs to be transfered\n     * @param rewardCommunity this is the amout of comunity token that needs to be transfered\n     */\n    function transferRewardAmount(\n        address to,\n        uint256 recordId,\n        uint256 contributionId,\n        uint256 rewardGovernance,\n        uint256 rewardCommunity\n    ) external payable onlyVotingContract {\n        _setApprovalForAll(address(this), VOTING_CONTRACT_ADDRESS, true);\n        if (rewardGovernance > 0) {\n            safeTransferFrom(\n                address(this),\n                to,\n                govTokenMapping[recordId].tokenId,\n                rewardGovernance,\n                \"\"\n            );\n        }\n\n        if (rewardCommunity > 0) {\n            safeTransferFrom(\n                address(this),\n                to,\n                commTokenMapping[recordId].tokenId,\n                rewardCommunity,\n                \"\"\n            );\n        }\n\n        emit ContributionRewardTransfered({\n            to: to,\n            recordId: recordId,\n            contributionId: contributionId,\n            rewardGovernance: rewardGovernance,\n            rewardCommunity: rewardCommunity\n        });\n    }\n\n    /**\n     * @dev This function returns the amount of total tokens that are in circulation\n     * @param tokenId This is the token whoes circulating supply you  want to find out\n     */\n    function totalCicultingSupply(uint256 tokenId) external returns (uint256) {\n        uint256 totalCirculatingBalance = SafeMath.sub(\n            totalSupply(tokenId),\n            balanceOf(address(this), tokenId)\n        );\n\n        return totalCirculatingBalance;\n    }\n\n    function onERC1155Received(\n        address operator,\n        address from,\n        uint256 id,\n        uint256 value,\n        bytes calldata data\n    ) external virtual override returns (bytes4) {\n        return\n            bytes4(\n                keccak256(\n                    \"onERC1155Received(address,address,uint256,uint256,bytes)\"\n                )\n            );\n    }\n\n    function onERC1155BatchReceived(\n        address operator,\n        address from,\n        uint256[] calldata ids,\n        uint256[] calldata values,\n        bytes calldata data\n    ) external virtual override returns (bytes4) {\n        return\n            bytes4(\n                keccak256(\n                    \"onERC1155BatchReceived(address,address,uint256[],uint256[],bytes)\"\n                )\n            );\n    }\n}\n",
  "sourcePath": "/Users/a1/Desktop/Office/projects/CrowdRecords/Contracts/contracts/TreasuryContract.sol",
  "compiler": {
    "name": "solc",
    "version": "0.8.12+commit.f00d7308.Emscripten.clang"
  },
  "schemaVersion": "3.4.6",
  "updatedAt": "2022-05-04T09:19:19.293Z",
  "devdoc": {
    "events": {
      "ContributionRewardTransfered(address,uint256,uint256,uint256,uint256)": {
        "details": "this is event which is genrated when a contribution voting has came to an end and the contribution is accepted",
        "params": {
          "contributionId": "This is the id of the contribution to which the record is related to ",
          "recordId": "This is the id of the record to which this contribution relates to ",
          "rewardCommunity": "The reward amount for comunity tokens",
          "rewardGovernance": "The reward amount for governance tokens ",
          "to": "This the address of the winner or the owner of the contribution "
        }
      },
      "NewTokenCreated(uint256,string,string,uint256,uint256,uint256,uint8)": {
        "details": "this is event which is created when new governance token is created (NEW CREATION Not MINITING)",
        "params": {
          "creationDate": "This is the creation date of the token ",
          "image": "This is the image of the token ",
          "recordId": "This is the record Id to which this token belongs to ",
          "symbol": "This is the symbol of the governance token",
          "tokenAmount": "This is the amount of token that are created ",
          "tokenId": "This is the id of token that is newly created tokens ",
          "tokenType": "This is the type of the token that is created => For governance 1 and for copyright 0  "
        }
      },
      "TokenMinted(uint256,uint256,uint256,uint256)": {
        "details": "this is event which is created when new governance token is minted after the voting is done",
        "params": {
          "creationDate": "This is the creation date of the token ",
          "recordId": "This is the record Id to which this token belongs to ",
          "tokenAmount": "This is the amount of token that are created ",
          "tokenId": "This is the id of token that is newly created tokens "
        }
      },
      "TokenTransfer(address,address,uint256,uint256,uint256,string)": {
        "details": "this is event which is created when a token transfer takes place",
        "params": {
          "amount": "This is the amount of token transfered ",
          "from": "This is the address of sender ",
          "symbol": "This is the symbol of the token that were transfered",
          "to": "This is the address of reciver ",
          "tokenId": "This is the id of the token that is being transfered ",
          "transferDate": "This is the date of the transfer"
        }
      }
    },
    "kind": "dev",
    "methods": {
      "balanceOf(address,uint256)": {
        "details": "See {IERC1155-balanceOf}. Requirements: - `account` cannot be the zero address."
      },
      "balanceOfBatch(address[],uint256[])": {
        "details": "See {IERC1155-balanceOfBatch}. Requirements: - `accounts` and `ids` must have the same length."
      },
      "createNewCommunityToken((uint256,uint256,uint256,string,string))": {
        "details": "This function creats new community tokens for specified record",
        "params": {
          "newTokenData": "This contains all the parameters needed to create a new community token that are - recordId This is the recordId that for new token - totalSupply This is the total supply of community token - userBalance This is the amount of tokens that user wants to keep to himself - symbol This is the symbol of the community token - image this is image of the gov token."
        }
      },
      "createNewGovernanceToken((uint256,uint256,uint256,string,string))": {
        "details": "This function creats new governance tokens for specified record",
        "params": {
          "newTokenData": "This contains all the parameters needed to create a new governance token that are - recordId This is the recordId that for new token - totalSupply This is the total supply of governance token - userBalance This is the amount of tokens that user wants to keep to himself - symbol This is the symbol of the gvernance token - image this is image of the gov token."
        }
      },
      "exists(uint256)": {
        "details": "Indicates whether any token exist with a given id, or not."
      },
      "isApprovedForAll(address,address)": {
        "details": "See {IERC1155-isApprovedForAll}."
      },
      "mintTokens(uint256,uint256,uint256)": {
        "details": "This function creats new community tokens for specified record",
        "params": {
          "recordId": "This is the id of the record to which the token belongs to",
          "tokenAmount": "This is the amount that is to be minted",
          "tokenId": "This is the id of the which is to be minted"
        }
      },
      "onERC1155BatchReceived(address,address,uint256[],uint256[],bytes)": {
        "details": "Handles the receipt of a multiple ERC1155 token types. This function is called at the end of a `safeBatchTransferFrom` after the balances have been updated. NOTE: To accept the transfer(s), this must return `bytes4(keccak256(\"onERC1155BatchReceived(address,address,uint256[],uint256[],bytes)\"))` (i.e. 0xbc197c81, or its own function selector).",
        "params": {
          "data": "Additional data with no specified format",
          "from": "The address which previously owned the token",
          "ids": "An array containing ids of each token being transferred (order and length must match values array)",
          "operator": "The address which initiated the batch transfer (i.e. msg.sender)",
          "values": "An array containing amounts of each token being transferred (order and length must match ids array)"
        },
        "returns": {
          "_0": "`bytes4(keccak256(\"onERC1155BatchReceived(address,address,uint256[],uint256[],bytes)\"))` if transfer is allowed"
        }
      },
      "onERC1155Received(address,address,uint256,uint256,bytes)": {
        "details": "Handles the receipt of a single ERC1155 token type. This function is called at the end of a `safeTransferFrom` after the balance has been updated. NOTE: To accept the transfer, this must return `bytes4(keccak256(\"onERC1155Received(address,address,uint256,uint256,bytes)\"))` (i.e. 0xf23a6e61, or its own function selector).",
        "params": {
          "data": "Additional data with no specified format",
          "from": "The address which previously owned the token",
          "id": "The ID of the token being transferred",
          "operator": "The address which initiated the transfer (i.e. msg.sender)",
          "value": "The amount of tokens being transferred"
        },
        "returns": {
          "_0": "`bytes4(keccak256(\"onERC1155Received(address,address,uint256,uint256,bytes)\"))` if transfer is allowed"
        }
      },
      "safeBatchTransferFrom(address,address,uint256[],uint256[],bytes)": {
        "details": "See {IERC1155-safeBatchTransferFrom}."
      },
      "safeTransferFrom(address,address,uint256,uint256,bytes)": {
        "details": "See {IERC1155-safeTransferFrom}."
      },
      "setApprovalForAll(address,bool)": {
        "details": "See {IERC1155-setApprovalForAll}."
      },
      "setRecordsContractAddress(address)": {
        "details": "This function sets the Records Contract address"
      },
      "setVotingContractAddress(address)": {
        "details": "This function sets the Voting Contract address"
      },
      "supportsInterface(bytes4)": {
        "details": "See {IERC165-supportsInterface}."
      },
      "totalCicultingSupply(uint256)": {
        "details": "This function returns the amount of total tokens that are in circulation",
        "params": {
          "tokenId": "This is the token whoes circulating supply you  want to find out"
        }
      },
      "totalSupply(uint256)": {
        "details": "Total amount of tokens in with a given id."
      },
      "transferRewardAmount(address,uint256,uint256,uint256,uint256)": {
        "details": "This function is called only by the voting contract once the voting ends",
        "params": {
          "contributionId": "this is the contribution id to which the user has won",
          "recordId": "This is the recordId to which the contribution belongs to",
          "rewardCommunity": "this is the amout of comunity token that needs to be transfered",
          "rewardGovernance": "this is the amout of Governance token that needs to be transfered",
          "to": "This is the recivers address"
        }
      },
      "uri(uint256)": {
        "details": "See {IERC1155MetadataURI-uri}. This implementation returns the same URI for *all* token types. It relies on the token type ID substitution mechanism https://eips.ethereum.org/EIPS/eip-1155#metadata[defined in the EIP]. Clients calling this function must replace the `\\{id\\}` substring with the actual token type ID."
      }
    },
    "version": 1
  },
  "userdoc": {
    "kind": "user",
    "methods": {},
    "version": 1
  }
}