{
  "contractName": "TreasuryCoreContractMock",
  "abi": [
    {
      "inputs": [
        {
          "internalType": "address",
          "name": "owner",
          "type": "address"
        }
      ],
      "stateMutability": "nonpayable",
      "type": "constructor"
    },
    {
      "anonymous": false,
      "inputs": [
        {
          "indexed": true,
          "internalType": "address",
          "name": "account",
          "type": "address"
        },
        {
          "indexed": true,
          "internalType": "address",
          "name": "operator",
          "type": "address"
        },
        {
          "indexed": false,
          "internalType": "bool",
          "name": "approved",
          "type": "bool"
        }
      ],
      "name": "ApprovalForAll",
      "type": "event"
    },
    {
      "anonymous": false,
      "inputs": [
        {
          "indexed": false,
          "internalType": "address",
          "name": "to",
          "type": "address"
        },
        {
          "indexed": false,
          "internalType": "uint256",
          "name": "recordId",
          "type": "uint256"
        },
        {
          "indexed": false,
          "internalType": "uint256",
          "name": "contributionId",
          "type": "uint256"
        },
        {
          "indexed": false,
          "internalType": "uint256",
          "name": "rewardGovernance",
          "type": "uint256"
        },
        {
          "indexed": false,
          "internalType": "uint256",
          "name": "rewardCommunity",
          "type": "uint256"
        }
      ],
      "name": "ContributionRewardTransferred",
      "type": "event"
    },
    {
      "anonymous": false,
      "inputs": [
        {
          "indexed": false,
          "internalType": "uint8",
          "name": "version",
          "type": "uint8"
        }
      ],
      "name": "Initialized",
      "type": "event"
    },
    {
      "anonymous": false,
      "inputs": [
        {
          "indexed": false,
          "internalType": "uint256",
          "name": "recordId",
          "type": "uint256"
        },
        {
          "indexed": false,
          "internalType": "string",
          "name": "symbol",
          "type": "string"
        },
        {
          "indexed": false,
          "internalType": "string",
          "name": "image",
          "type": "string"
        },
        {
          "indexed": false,
          "internalType": "uint256",
          "name": "creationDate",
          "type": "uint256"
        },
        {
          "indexed": false,
          "internalType": "uint256",
          "name": "tokenAmount",
          "type": "uint256"
        },
        {
          "indexed": false,
          "internalType": "uint256",
          "name": "tokenId",
          "type": "uint256"
        },
        {
          "indexed": false,
          "internalType": "uint8",
          "name": "tokenType",
          "type": "uint8"
        }
      ],
      "name": "NewTokenCreated",
      "type": "event"
    },
    {
      "anonymous": false,
      "inputs": [
        {
          "indexed": false,
          "internalType": "uint256",
          "name": "id",
          "type": "uint256"
        }
      ],
      "name": "Snapshot",
      "type": "event"
    },
    {
      "anonymous": false,
      "inputs": [
        {
          "indexed": false,
          "internalType": "uint256",
          "name": "recordId",
          "type": "uint256"
        },
        {
          "indexed": false,
          "internalType": "uint256",
          "name": "tokenId",
          "type": "uint256"
        },
        {
          "indexed": false,
          "internalType": "uint256",
          "name": "creationDate",
          "type": "uint256"
        },
        {
          "indexed": false,
          "internalType": "uint256",
          "name": "tokenAmount",
          "type": "uint256"
        }
      ],
      "name": "TokenMinted",
      "type": "event"
    },
    {
      "anonymous": false,
      "inputs": [
        {
          "indexed": false,
          "internalType": "address",
          "name": "from",
          "type": "address"
        },
        {
          "indexed": false,
          "internalType": "address",
          "name": "to",
          "type": "address"
        },
        {
          "indexed": false,
          "internalType": "uint256",
          "name": "transferDate",
          "type": "uint256"
        },
        {
          "indexed": false,
          "internalType": "uint256",
          "name": "tokenId",
          "type": "uint256"
        },
        {
          "indexed": false,
          "internalType": "uint256",
          "name": "amount",
          "type": "uint256"
        },
        {
          "indexed": false,
          "internalType": "string",
          "name": "symbol",
          "type": "string"
        }
      ],
      "name": "TokenTransfer",
      "type": "event"
    },
    {
      "anonymous": false,
      "inputs": [
        {
          "indexed": true,
          "internalType": "address",
          "name": "operator",
          "type": "address"
        },
        {
          "indexed": true,
          "internalType": "address",
          "name": "from",
          "type": "address"
        },
        {
          "indexed": true,
          "internalType": "address",
          "name": "to",
          "type": "address"
        },
        {
          "indexed": false,
          "internalType": "uint256[]",
          "name": "ids",
          "type": "uint256[]"
        },
        {
          "indexed": false,
          "internalType": "uint256[]",
          "name": "values",
          "type": "uint256[]"
        }
      ],
      "name": "TransferBatch",
      "type": "event"
    },
    {
      "anonymous": false,
      "inputs": [
        {
          "indexed": true,
          "internalType": "address",
          "name": "operator",
          "type": "address"
        },
        {
          "indexed": true,
          "internalType": "address",
          "name": "from",
          "type": "address"
        },
        {
          "indexed": true,
          "internalType": "address",
          "name": "to",
          "type": "address"
        },
        {
          "indexed": false,
          "internalType": "uint256",
          "name": "id",
          "type": "uint256"
        },
        {
          "indexed": false,
          "internalType": "uint256",
          "name": "value",
          "type": "uint256"
        }
      ],
      "name": "TransferSingle",
      "type": "event"
    },
    {
      "anonymous": false,
      "inputs": [
        {
          "indexed": false,
          "internalType": "string",
          "name": "value",
          "type": "string"
        },
        {
          "indexed": true,
          "internalType": "uint256",
          "name": "id",
          "type": "uint256"
        }
      ],
      "name": "URI",
      "type": "event"
    },
    {
      "inputs": [],
      "name": "CONTROLLER_CONTRACT_ADDRESS",
      "outputs": [
        {
          "internalType": "address",
          "name": "",
          "type": "address"
        }
      ],
      "stateMutability": "view",
      "type": "function"
    },
    {
      "inputs": [],
      "name": "CRD",
      "outputs": [
        {
          "internalType": "uint256",
          "name": "",
          "type": "uint256"
        }
      ],
      "stateMutability": "view",
      "type": "function"
    },
    {
      "inputs": [],
      "name": "OWNER",
      "outputs": [
        {
          "internalType": "address",
          "name": "",
          "type": "address"
        }
      ],
      "stateMutability": "view",
      "type": "function"
    },
    {
      "inputs": [],
      "name": "TREASURY_CONTRACT_ADDRESS",
      "outputs": [
        {
          "internalType": "address",
          "name": "",
          "type": "address"
        }
      ],
      "stateMutability": "view",
      "type": "function"
    },
    {
      "inputs": [],
      "name": "VOTING_HUB_ADDRESS",
      "outputs": [
        {
          "internalType": "address",
          "name": "",
          "type": "address"
        }
      ],
      "stateMutability": "view",
      "type": "function"
    },
    {
      "inputs": [
        {
          "internalType": "address",
          "name": "account",
          "type": "address"
        },
        {
          "internalType": "uint256",
          "name": "id",
          "type": "uint256"
        }
      ],
      "name": "balanceOf",
      "outputs": [
        {
          "internalType": "uint256",
          "name": "",
          "type": "uint256"
        }
      ],
      "stateMutability": "view",
      "type": "function"
    },
    {
      "inputs": [
        {
          "internalType": "address",
          "name": "account",
          "type": "address"
        },
        {
          "internalType": "uint256",
          "name": "snapshotId",
          "type": "uint256"
        },
        {
          "internalType": "uint256",
          "name": "tokenId",
          "type": "uint256"
        }
      ],
      "name": "balanceOfAt",
      "outputs": [
        {
          "internalType": "uint256",
          "name": "",
          "type": "uint256"
        }
      ],
      "stateMutability": "view",
      "type": "function"
    },
    {
      "inputs": [
        {
          "internalType": "address[]",
          "name": "accounts",
          "type": "address[]"
        },
        {
          "internalType": "uint256[]",
          "name": "ids",
          "type": "uint256[]"
        }
      ],
      "name": "balanceOfBatch",
      "outputs": [
        {
          "internalType": "uint256[]",
          "name": "",
          "type": "uint256[]"
        }
      ],
      "stateMutability": "view",
      "type": "function"
    },
    {
      "inputs": [
        {
          "internalType": "uint256",
          "name": "",
          "type": "uint256"
        }
      ],
      "name": "commTokenMapping",
      "outputs": [
        {
          "internalType": "uint256",
          "name": "recordId",
          "type": "uint256"
        },
        {
          "internalType": "string",
          "name": "symbol",
          "type": "string"
        },
        {
          "internalType": "string",
          "name": "image",
          "type": "string"
        },
        {
          "internalType": "uint256",
          "name": "creationDate",
          "type": "uint256"
        },
        {
          "internalType": "bool",
          "name": "isPresent",
          "type": "bool"
        },
        {
          "internalType": "uint256",
          "name": "tokenId",
          "type": "uint256"
        }
      ],
      "stateMutability": "view",
      "type": "function"
    },
    {
      "inputs": [
        {
          "internalType": "string",
          "name": "",
          "type": "string"
        }
      ],
      "name": "commTokenSym",
      "outputs": [
        {
          "internalType": "bool",
          "name": "",
          "type": "bool"
        }
      ],
      "stateMutability": "view",
      "type": "function"
    },
    {
      "inputs": [
        {
          "components": [
            {
              "internalType": "uint256",
              "name": "recordId",
              "type": "uint256"
            },
            {
              "internalType": "uint256",
              "name": "totalSupply",
              "type": "uint256"
            },
            {
              "internalType": "uint256",
              "name": "userBalance",
              "type": "uint256"
            },
            {
              "internalType": "string",
              "name": "symbol",
              "type": "string"
            },
            {
              "internalType": "string",
              "name": "image",
              "type": "string"
            }
          ],
          "internalType": "struct TreasuryCoreContract.NewTokenData",
          "name": "newTokenData",
          "type": "tuple"
        },
        {
          "internalType": "address",
          "name": "userAddress",
          "type": "address"
        }
      ],
      "name": "createNewCommunityToken",
      "outputs": [
        {
          "internalType": "uint256",
          "name": "",
          "type": "uint256"
        }
      ],
      "stateMutability": "nonpayable",
      "type": "function"
    },
    {
      "inputs": [
        {
          "components": [
            {
              "internalType": "uint256",
              "name": "recordId",
              "type": "uint256"
            },
            {
              "internalType": "uint256",
              "name": "totalSupply",
              "type": "uint256"
            },
            {
              "internalType": "uint256",
              "name": "userBalance",
              "type": "uint256"
            },
            {
              "internalType": "string",
              "name": "symbol",
              "type": "string"
            },
            {
              "internalType": "string",
              "name": "image",
              "type": "string"
            }
          ],
          "internalType": "struct TreasuryCoreContract.NewTokenData",
          "name": "newTokenData",
          "type": "tuple"
        },
        {
          "internalType": "address",
          "name": "userAddress",
          "type": "address"
        }
      ],
      "name": "createNewGovernanceToken",
      "outputs": [
        {
          "internalType": "uint256",
          "name": "",
          "type": "uint256"
        }
      ],
      "stateMutability": "nonpayable",
      "type": "function"
    },
    {
      "inputs": [
        {
          "internalType": "uint256",
          "name": "id",
          "type": "uint256"
        }
      ],
      "name": "exists",
      "outputs": [
        {
          "internalType": "bool",
          "name": "",
          "type": "bool"
        }
      ],
      "stateMutability": "view",
      "type": "function"
    },
    {
      "inputs": [
        {
          "internalType": "uint256",
          "name": "",
          "type": "uint256"
        }
      ],
      "name": "govTokenMapping",
      "outputs": [
        {
          "internalType": "uint256",
          "name": "recordId",
          "type": "uint256"
        },
        {
          "internalType": "string",
          "name": "symbol",
          "type": "string"
        },
        {
          "internalType": "string",
          "name": "image",
          "type": "string"
        },
        {
          "internalType": "uint256",
          "name": "creationDate",
          "type": "uint256"
        },
        {
          "internalType": "bool",
          "name": "isPresent",
          "type": "bool"
        },
        {
          "internalType": "uint256",
          "name": "tokenId",
          "type": "uint256"
        }
      ],
      "stateMutability": "view",
      "type": "function"
    },
    {
      "inputs": [
        {
          "internalType": "string",
          "name": "",
          "type": "string"
        }
      ],
      "name": "govTokenSym",
      "outputs": [
        {
          "internalType": "bool",
          "name": "",
          "type": "bool"
        }
      ],
      "stateMutability": "view",
      "type": "function"
    },
    {
      "inputs": [
        {
          "internalType": "address",
          "name": "newVotingHubContract",
          "type": "address"
        },
        {
          "internalType": "address",
          "name": "newTreasuryAddress",
          "type": "address"
        },
        {
          "internalType": "address",
          "name": "crdTokenAddress",
          "type": "address"
        },
        {
          "internalType": "address",
          "name": "controllerContractAddress",
          "type": "address"
        }
      ],
      "name": "initialize",
      "outputs": [],
      "stateMutability": "nonpayable",
      "type": "function"
    },
    {
      "inputs": [
        {
          "internalType": "address",
          "name": "account",
          "type": "address"
        },
        {
          "internalType": "address",
          "name": "operator",
          "type": "address"
        }
      ],
      "name": "isApprovedForAll",
      "outputs": [
        {
          "internalType": "bool",
          "name": "",
          "type": "bool"
        }
      ],
      "stateMutability": "view",
      "type": "function"
    },
    {
      "inputs": [
        {
          "internalType": "string",
          "name": "governanceSymbol",
          "type": "string"
        },
        {
          "internalType": "string",
          "name": "communitySymbol",
          "type": "string"
        }
      ],
      "name": "isSymbolAvailable",
      "outputs": [],
      "stateMutability": "nonpayable",
      "type": "function"
    },
    {
      "inputs": [
        {
          "internalType": "uint256",
          "name": "tokenId",
          "type": "uint256"
        },
        {
          "internalType": "uint256",
          "name": "amount",
          "type": "uint256"
        }
      ],
      "name": "mint",
      "outputs": [],
      "stateMutability": "nonpayable",
      "type": "function"
    },
    {
      "inputs": [
        {
          "internalType": "address",
          "name": "operator",
          "type": "address"
        },
        {
          "internalType": "address",
          "name": "from",
          "type": "address"
        },
        {
          "internalType": "uint256[]",
          "name": "ids",
          "type": "uint256[]"
        },
        {
          "internalType": "uint256[]",
          "name": "values",
          "type": "uint256[]"
        },
        {
          "internalType": "bytes",
          "name": "data",
          "type": "bytes"
        }
      ],
      "name": "onERC1155BatchReceived",
      "outputs": [
        {
          "internalType": "bytes4",
          "name": "",
          "type": "bytes4"
        }
      ],
      "stateMutability": "nonpayable",
      "type": "function"
    },
    {
      "inputs": [
        {
          "internalType": "address",
          "name": "operator",
          "type": "address"
        },
        {
          "internalType": "address",
          "name": "from",
          "type": "address"
        },
        {
          "internalType": "uint256",
          "name": "id",
          "type": "uint256"
        },
        {
          "internalType": "uint256",
          "name": "value",
          "type": "uint256"
        },
        {
          "internalType": "bytes",
          "name": "data",
          "type": "bytes"
        }
      ],
      "name": "onERC1155Received",
      "outputs": [
        {
          "internalType": "bytes4",
          "name": "",
          "type": "bytes4"
        }
      ],
      "stateMutability": "nonpayable",
      "type": "function"
    },
    {
      "inputs": [
        {
          "internalType": "address",
          "name": "from",
          "type": "address"
        },
        {
          "internalType": "address",
          "name": "to",
          "type": "address"
        },
        {
          "internalType": "uint256[]",
          "name": "ids",
          "type": "uint256[]"
        },
        {
          "internalType": "uint256[]",
          "name": "amounts",
          "type": "uint256[]"
        },
        {
          "internalType": "bytes",
          "name": "data",
          "type": "bytes"
        }
      ],
      "name": "safeBatchTransferFrom",
      "outputs": [],
      "stateMutability": "nonpayable",
      "type": "function"
    },
    {
      "inputs": [
        {
          "internalType": "address",
          "name": "from",
          "type": "address"
        },
        {
          "internalType": "address",
          "name": "to",
          "type": "address"
        },
        {
          "internalType": "uint256",
          "name": "id",
          "type": "uint256"
        },
        {
          "internalType": "uint256",
          "name": "amount",
          "type": "uint256"
        },
        {
          "internalType": "bytes",
          "name": "data",
          "type": "bytes"
        }
      ],
      "name": "safeTransferFrom",
      "outputs": [],
      "stateMutability": "nonpayable",
      "type": "function"
    },
    {
      "inputs": [
        {
          "internalType": "address",
          "name": "operator",
          "type": "address"
        },
        {
          "internalType": "bool",
          "name": "approved",
          "type": "bool"
        }
      ],
      "name": "setApprovalForAll",
      "outputs": [],
      "stateMutability": "nonpayable",
      "type": "function"
    },
    {
      "inputs": [
        {
          "internalType": "string",
          "name": "governanceSymbol",
          "type": "string"
        },
        {
          "internalType": "string",
          "name": "communitySymbol",
          "type": "string"
        }
      ],
      "name": "setSymbolsAsAvailable",
      "outputs": [],
      "stateMutability": "nonpayable",
      "type": "function"
    },
    {
      "inputs": [
        {
          "internalType": "string",
          "name": "governanceSymbol",
          "type": "string"
        },
        {
          "internalType": "string",
          "name": "communitySymbol",
          "type": "string"
        }
      ],
      "name": "setSymbolsAsUsed",
      "outputs": [],
      "stateMutability": "nonpayable",
      "type": "function"
    },
    {
      "inputs": [],
      "name": "snapshot",
      "outputs": [
        {
          "internalType": "uint256",
          "name": "snapshotId",
          "type": "uint256"
        }
      ],
      "stateMutability": "nonpayable",
      "type": "function"
    },
    {
      "inputs": [
        {
          "internalType": "bytes4",
          "name": "interfaceId",
          "type": "bytes4"
        }
      ],
      "name": "supportsInterface",
      "outputs": [
        {
          "internalType": "bool",
          "name": "",
          "type": "bool"
        }
      ],
      "stateMutability": "view",
      "type": "function"
    },
    {
      "inputs": [
        {
          "internalType": "uint256",
          "name": "id",
          "type": "uint256"
        }
      ],
      "name": "totalSupply",
      "outputs": [
        {
          "internalType": "uint256",
          "name": "",
          "type": "uint256"
        }
      ],
      "stateMutability": "view",
      "type": "function"
    },
    {
      "inputs": [
        {
          "internalType": "uint256",
          "name": "snapshotId",
          "type": "uint256"
        },
        {
          "internalType": "uint256",
          "name": "tokenId",
          "type": "uint256"
        }
      ],
      "name": "totalSupplyAt",
      "outputs": [
        {
          "internalType": "uint256",
          "name": "",
          "type": "uint256"
        }
      ],
      "stateMutability": "view",
      "type": "function"
    },
    {
      "inputs": [
        {
          "internalType": "address",
          "name": "to",
          "type": "address"
        },
        {
          "internalType": "uint256",
          "name": "recordId",
          "type": "uint256"
        },
        {
          "internalType": "uint256",
          "name": "contributionId",
          "type": "uint256"
        },
        {
          "internalType": "uint256",
          "name": "rewardGovernance",
          "type": "uint256"
        },
        {
          "internalType": "uint256",
          "name": "rewardCommunity",
          "type": "uint256"
        }
      ],
      "name": "transferRewardAmount",
      "outputs": [],
      "stateMutability": "nonpayable",
      "type": "function"
    },
    {
      "inputs": [
        {
          "internalType": "uint256",
          "name": "tokenId",
          "type": "uint256"
        },
        {
          "internalType": "uint256",
          "name": "amount",
          "type": "uint256"
        },
        {
          "internalType": "address",
          "name": "receiver",
          "type": "address"
        }
      ],
      "name": "transferRewardTokens",
      "outputs": [],
      "stateMutability": "nonpayable",
      "type": "function"
    },
    {
      "inputs": [
        {
          "internalType": "uint256",
          "name": "",
          "type": "uint256"
        }
      ],
      "name": "uri",
      "outputs": [
        {
          "internalType": "string",
          "name": "",
          "type": "string"
        }
      ],
      "stateMutability": "view",
      "type": "function"
    },
    {
      "inputs": [
        {
          "internalType": "uint256",
          "name": "tokenId",
          "type": "uint256"
        },
        {
          "internalType": "uint256",
          "name": "tokenAmount",
          "type": "uint256"
        }
      ],
      "name": "mintTokens",
      "outputs": [],
      "stateMutability": "nonpayable",
      "type": "function"
    },
    {
      "inputs": [
        {
          "internalType": "uint256",
          "name": "recordId",
          "type": "uint256"
        },
        {
          "internalType": "uint256",
          "name": "tokenId",
          "type": "uint256"
        },
        {
          "internalType": "uint256",
          "name": "tokenAmount",
          "type": "uint256"
        }
      ],
      "name": "mintTokens",
      "outputs": [],
      "stateMutability": "nonpayable",
      "type": "function"
    },
    {
      "inputs": [
        {
          "internalType": "uint256",
          "name": "tokenId",
          "type": "uint256"
        },
        {
          "internalType": "uint256",
          "name": "tokenAmount",
          "type": "uint256"
        }
      ],
      "name": "mintTokensForMe",
      "outputs": [],
      "stateMutability": "nonpayable",
      "type": "function"
    }
  ],
  "bytecode": "0x600160085560c06040526005608081905264435244475f60d81b60a09081526200002d91600d91906200015a565b50604080518082019091526004808252634352445f60e01b60209092019182526200005b91600e916200015a565b50600f805461ffff19166101001790553480156200007857600080fd5b5060405162004968380380620049688339810160408190526200009b9162000200565b60408051808201909152601d81527f68747470733a2f2f63726f77647265636f7264732e636f6d2f7b69647d00000060208201528190620000dc8162000141565b50600c80546001600160a01b03929092166001600160a01b0319909216919091179055506040805160128152815160209181900382018120805460ff19908116600190811790925560138352935191829003909201902080549092161790556200026f565b8051620001569060029060208401906200015a565b5050565b828054620001689062000232565b90600052602060002090601f0160209004810192826200018c5760008555620001d7565b82601f10620001a757805160ff1916838001178555620001d7565b82800160010185558215620001d7579182015b82811115620001d7578251825591602001919060010190620001ba565b50620001e5929150620001e9565b5090565b5b80821115620001e55760008155600101620001ea565b6000602082840312156200021357600080fd5b81516001600160a01b03811681146200022b57600080fd5b9392505050565b600181811c908216806200024757607f821691505b602082108114156200026957634e487b7160e01b600052602260045260246000fd5b50919050565b6146e9806200027f6000396000f3fe608060405234801561001057600080fd5b506004361061025b5760003560e01c80638958a5de11610145578063bd85b039116100bd578063ef890f7c1161008c578063f242432a11610071578063f242432a1461066e578063f8c8765e14610681578063ff669dfb1461069457600080fd5b8063ef890f7c14610622578063f23a6e611461063557600080fd5b8063bd85b0391461059e578063e10fa0b2146105be578063e6acd9b8146105d1578063e985e9c5146105d957600080fd5b80639b6a6f0d11610114578063acb31493116100f9578063acb31493146104ff578063af94e4a91461051f578063bc197c811461053257600080fd5b80639b6a6f0d146104cc578063a22cb465146104ec57600080fd5b80638958a5de146104705780638aa7a8b01461049e5780638fbf353f146104b15780639711715a146104c457600080fd5b80634e1273f4116101d8578063626da068116101a75780636e470f921161018c5780636e470f92146104255780638388f41314610438578063884c8ffe1461044b57600080fd5b8063626da068146103ff5780636c45f2f61461041257600080fd5b80634e1273f4146103975780634f558e79146103b75780635f938ad2146103d957806361cbc357146103ec57600080fd5b80631644e0ff1161022f5780632eb2c2d6116102145780632eb2c2d61461035157806334a7c2e714610364578063368680491461037757600080fd5b80631644e0ff1461030e5780631b2ef1ca1461033c57600080fd5b8062fdd58e1461026057806301ffc9a7146102865780630e89341c146102a9578063117803e3146102c9575b600080fd5b61027361026e3660046137d4565b6106a7565b6040519081526020015b60405180910390f35b61029961029436600461382f565b610764565b604051901515815260200161027d565b6102bc6102b736600461384c565b610847565b60405161027d91906138db565b600c546102e99073ffffffffffffffffffffffffffffffffffffffff1681565b60405173ffffffffffffffffffffffffffffffffffffffff909116815260200161027d565b61029961031c366004613a20565b805160208183018101805160128252928201919093012091525460ff1681565b61034f61034a366004613a5d565b6108db565b005b61034f61035f366004613b14565b610a36565b61034f610372366004613a5d565b610aff565b6009546102e99073ffffffffffffffffffffffffffffffffffffffff1681565b6103aa6103a5366004613bbe565b610b23565b60405161027d9190613cc4565b6102996103c536600461384c565b600090815260036020526040902054151590565b61034f6103e7366004613cd7565b610c7b565b61034f6103fa366004613cd7565b610dc6565b61027361040d366004613d31565b610ecf565b61034f610420366004613cd7565b610f32565b61034f610433366004613a5d565b6110ed565b61034f610446366004613d64565b611111565b61045e61045936600461384c565b6112a1565b60405161027d96959493929190613da6565b61029961047e366004613a20565b805160208183018101805160138252928201919093012091525460ff1681565b6102736104ac366004613a5d565b6113ec565b61034f6104bf366004613df0565b611431565b61027361167d565b600b546102e99073ffffffffffffffffffffffffffffffffffffffff1681565b61034f6104fa366004613e1c565b611735565b600a546102e99073ffffffffffffffffffffffffffffffffffffffff1681565b61045e61052d36600461384c565b611740565b61056d610540366004613edf565b7fbc197c819b3e337a6f9652dd10becd7eef83032af3b9d958d3d42f669414662198975050505050505050565b6040517fffffffff00000000000000000000000000000000000000000000000000000000909116815260200161027d565b6102736105ac36600461384c565b60009081526003602052604090205490565b6102736105cc366004613f9a565b611762565b610273600181565b6102996105e736600461405f565b73ffffffffffffffffffffffffffffffffffffffff918216600090815260016020908152604080832093909416825291909152205460ff1690565b61034f610630366004614089565b6119c0565b61056d6106433660046140be565b7ff23a6e612e1ff4830e658fe43f4e3cb4a5f8170bd5d9e69fb5d7a7fa9e4fdf979695505050505050565b61034f61067c366004614136565b611aba565b61034f61068f36600461419b565b611b7c565b6102736106a2366004613f9a565b611e3c565b6000600182141561075457600f546040517f70a0823100000000000000000000000000000000000000000000000000000000815273ffffffffffffffffffffffffffffffffffffffff858116600483015262010000909204909116906370a0823190602401602060405180830381865afa158015610729573d6000803e3d6000fd5b505050506040513d601f19601f8201168201806040525081019061074d91906141ef565b905061075e565b61074d8383612025565b92915050565b60007fffffffff0000000000000000000000000000000000000000000000000000000082167fd9b67a260000000000000000000000000000000000000000000000000000000014806107f757507fffffffff0000000000000000000000000000000000000000000000000000000082167f0e89341c00000000000000000000000000000000000000000000000000000000145b8061075e57507f01ffc9a7000000000000000000000000000000000000000000000000000000007fffffffff0000000000000000000000000000000000000000000000000000000083161461075e565b60606002805461085690614208565b80601f016020809104026020016040519081016040528092919081815260200182805461088290614208565b80156108cf5780601f106108a4576101008083540402835291602001916108cf565b820191906000526020600020905b8154815290600101906020018083116108b257829003601f168201915b50505050509050919050565b600a5473ffffffffffffffffffffffffffffffffffffffff163314610987576040517f08c379a000000000000000000000000000000000000000000000000000000000815260206004820152602360248201527f554e415554484f52495a45443a2043414e4e4f545f504552464f524d5f41435460448201527f494f4e000000000000000000000000000000000000000000000000000000000060648201526084015b60405180910390fd5b600182116109f1576040517f08c379a000000000000000000000000000000000000000000000000000000000815260206004820152600c60248201527f494e563a20544f4b454e49440000000000000000000000000000000000000000604482015260640161097e565b610a323083836040518060400160405280601181526020017f4e657720746f6b656e73206d696e7465640000000000000000000000000000008152506120fd565b5050565b73ffffffffffffffffffffffffffffffffffffffff8516331480610a5f5750610a5f85336105e7565b610aeb576040517f08c379a000000000000000000000000000000000000000000000000000000000815260206004820152603260248201527f455243313135353a207472616e736665722063616c6c6572206973206e6f742060448201527f6f776e6572206e6f7220617070726f7665640000000000000000000000000000606482015260840161097e565b610af88585858585612179565b5050505050565b610a32308383604051806060016040528060238152602001614691602391396120fd565b60608151835114610bb6576040517f08c379a000000000000000000000000000000000000000000000000000000000815260206004820152602960248201527f455243313135353a206163636f756e747320616e6420696473206c656e67746860448201527f206d69736d617463680000000000000000000000000000000000000000000000606482015260840161097e565b6000835167ffffffffffffffff811115610bd257610bd26138ee565b604051908082528060200260200182016040528015610bfb578160200160208202803683370190505b50905060005b8451811015610c7357610c46858281518110610c1f57610c1f61425c565b6020026020010151858381518110610c3957610c3961425c565b60200260200101516106a7565b828281518110610c5857610c5861425c565b6020908102919091010152610c6c816142ba565b9050610c01565b509392505050565b600a5473ffffffffffffffffffffffffffffffffffffffff163314610d22576040517f08c379a000000000000000000000000000000000000000000000000000000000815260206004820152602360248201527f554e415554484f52495a45443a2043414e4e4f545f504552464f524d5f41435460448201527f494f4e0000000000000000000000000000000000000000000000000000000000606482015260840161097e565b6000601382604051610d3491906142f3565b90815260405190819003602001812080549215157fffffffffffffffffffffffffffffffffffffffffffffffffffffffffffffff0090931692909217909155600090601290610d849085906142f3565b90815260405190819003602001902080549115157fffffffffffffffffffffffffffffffffffffffffffffffffffffffffffffff009092169190911790555050565b600a5473ffffffffffffffffffffffffffffffffffffffff163314610e6d576040517f08c379a000000000000000000000000000000000000000000000000000000000815260206004820152602360248201527f554e415554484f52495a45443a2043414e4e4f545f504552464f524d5f41435460448201527f494f4e0000000000000000000000000000000000000000000000000000000000606482015260840161097e565b6001601382604051610e7f91906142f3565b90815260405190819003602001812080549215157fffffffffffffffffffffffffffffffffffffffffffffffffffffffffffffff0090931692909217909155600190601290610d849085906142f3565b73ffffffffffffffffffffffffffffffffffffffff83166000908152600460209081526040808320848452909152812081908190610f0e9086906124c1565b9150915081610f2657610f2186856106a7565b610f28565b805b9695505050505050565b600a5473ffffffffffffffffffffffffffffffffffffffff163314610fd9576040517f08c379a000000000000000000000000000000000000000000000000000000000815260206004820152602360248201527f554e415554484f52495a45443a2043414e4e4f545f504552464f524d5f41435460448201527f494f4e0000000000000000000000000000000000000000000000000000000000606482015260840161097e565b601381604051610fe991906142f3565b9081526040519081900360200190205460ff1615611063576040517f08c379a000000000000000000000000000000000000000000000000000000000815260206004820152600e60248201527f53594d424f4c5f435f54414b454e000000000000000000000000000000000000604482015260640161097e565b60128260405161107391906142f3565b9081526040519081900360200190205460ff1615610a32576040517f08c379a000000000000000000000000000000000000000000000000000000000815260206004820152600e60248201527f53594d424f4c5f475f54414b454e000000000000000000000000000000000000604482015260640161097e565b610a32338383604051806060016040528060238152602001614691602391396120fd565b600a5473ffffffffffffffffffffffffffffffffffffffff1633146111b8576040517f08c379a000000000000000000000000000000000000000000000000000000000815260206004820152602360248201527f554e415554484f52495a45443a2043414e4e4f545f504552464f524d5f41435460448201527f494f4e0000000000000000000000000000000000000000000000000000000000606482015260840161097e565b6111c4303360016125f3565b81156111fc576111fc308660106000888152602001908152602001600020600501548560405180602001604052806000815250611aba565b801561123457611234308660116000888152602001908152602001600020600501548460405180602001604052806000815250611aba565b6040805173ffffffffffffffffffffffffffffffffffffffff871681526020810186905290810184905260608101839052608081018290527fe0357d4bc70490bf81b58d93d7d3a12a646c486a071200201fd882cdf74c88d99060a0015b60405180910390a15050505050565b601060205260009081526040902080546001820180549192916112c390614208565b80601f01602080910402602001604051908101604052809291908181526020018280546112ef90614208565b801561133c5780601f106113115761010080835404028352916020019161133c565b820191906000526020600020905b81548152906001019060200180831161131f57829003601f168201915b50505050509080600201805461135190614208565b80601f016020809104026020016040519081016040528092919081815260200182805461137d90614208565b80156113ca5780601f1061139f576101008083540402835291602001916113ca565b820191906000526020600020905b8154815290600101906020018083116113ad57829003601f168201915b50505050600383015460048401546005909401549293909260ff909116915086565b6000818152600560205260408120819081906114099086906124c1565b915091508161142657600084815260036020526040902054611428565b805b95945050505050565b600a5473ffffffffffffffffffffffffffffffffffffffff1633146114d8576040517f08c379a000000000000000000000000000000000000000000000000000000000815260206004820152602360248201527f554e415554484f52495a45443a2043414e4e4f545f504552464f524d5f41435460448201527f494f4e0000000000000000000000000000000000000000000000000000000000606482015260840161097e565b60008381526011602052604090206004015460ff16151560011480611513575060008381526010602052604090206004015460ff1615156001145b611579576040517f08c379a000000000000000000000000000000000000000000000000000000000815260206004820152601860248201527f494e56414c49443a2057524f4e475f5245434f52445f49440000000000000000604482015260640161097e565b6000838152601160205260409020600501548214806115a8575060008381526010602052604090206005015482145b61160e576040517f08c379a000000000000000000000000000000000000000000000000000000000815260206004820152601760248201527f494e56414c49443a2057524f4e475f544f4b454e5f4944000000000000000000604482015260640161097e565b611632308383604051806060016040528060238152602001614691602391396120fd565b604080518481526020810184905242818301526060810183905290517f81e0b881b9c6ff93955a4a996cc01472b2cdc1a1663af072fa5ca7db7f127de29181900360800190a1505050565b600a5460009073ffffffffffffffffffffffffffffffffffffffff163314611727576040517f08c379a000000000000000000000000000000000000000000000000000000000815260206004820152602360248201527f554e415554484f52495a45443a2043414e4e4f545f504552464f524d5f41435460448201527f494f4e0000000000000000000000000000000000000000000000000000000000606482015260840161097e565b61172f612747565b90505b90565b610a323383836125f3565b601160205260009081526040902080546001820180549192916112c390614208565b600a5460009073ffffffffffffffffffffffffffffffffffffffff163314806117a25750600b5473ffffffffffffffffffffffffffffffffffffffff1633145b61182e576040517f08c379a000000000000000000000000000000000000000000000000000000000815260206004820152602360248201527f554e415554484f52495a45443a2043414e4e4f545f504552464f524d5f41435460448201527f494f4e0000000000000000000000000000000000000000000000000000000000606482015260840161097e565b60016012846060015160405161184491906142f3565b9081526040516020918190038201812080547fffffffffffffffffffffffffffffffffffffffffffffffffffffffffffffff00169315159390931790925560009161189291600d910161430f565b60405160208183030381529060405290508084606001516040516020016118ba9291906143e2565b604080517fffffffffffffffffffffffffffffffffffffffffffffffffffffffffffffffe0818403018152919052606085015250600880549060006118fe836142ba565b9091555050600854600f5461191f9085908390610100900460ff16866127a1565b8451600090815260106020908152604090912082518155828201518051919261195092600185019290910190613717565b506040820151805161196c916002840191602090910190613717565b506060820151600382015560808201516004820180547fffffffffffffffffffffffffffffffffffffffffffffffffffffffffffffff001691151591909117905560a0909101516005909101559392505050565b600a5473ffffffffffffffffffffffffffffffffffffffff163314611a67576040517f08c379a000000000000000000000000000000000000000000000000000000000815260206004820152602360248201527f554e415554484f52495a45443a2043414e4e4f545f504552464f524d5f41435460448201527f494f4e0000000000000000000000000000000000000000000000000000000000606482015260840161097e565b611a73303360016125f3565b611ab5308285856040518060400160405280601581526020017f5245434f52445f544f4b454e5f5452414e534645520000000000000000000000815250611aba565b505050565b73ffffffffffffffffffffffffffffffffffffffff8516331480611ae35750611ae385336105e7565b611b6f576040517f08c379a000000000000000000000000000000000000000000000000000000000815260206004820152602960248201527f455243313135353a2063616c6c6572206973206e6f74206f776e6572206e6f7260448201527f20617070726f7665640000000000000000000000000000000000000000000000606482015260840161097e565b610af885858585856128c8565b600754610100900460ff1615808015611b9c5750600754600160ff909116105b80611bb65750303b158015611bb6575060075460ff166001145b611c42576040517f08c379a000000000000000000000000000000000000000000000000000000000815260206004820152602e60248201527f496e697469616c697a61626c653a20636f6e747261637420697320616c72656160448201527f647920696e697469616c697a6564000000000000000000000000000000000000606482015260840161097e565b600780547fffffffffffffffffffffffffffffffffffffffffffffffffffffffffffffff001660011790558015611ca057600780547fffffffffffffffffffffffffffffffffffffffffffffffffffffffffffff00ff166101001790555b600c5473ffffffffffffffffffffffffffffffffffffffff163314611d47576040517f08c379a000000000000000000000000000000000000000000000000000000000815260206004820152602360248201527f554e415554484f52495a45443a2043414e4e4f545f504552464f524d5f41435460448201527f494f4e0000000000000000000000000000000000000000000000000000000000606482015260840161097e565b6009805473ffffffffffffffffffffffffffffffffffffffff8088167fffffffffffffffffffffffff000000000000000000000000000000000000000092831617909255600a8054878416908316179055600b80548584169216919091179055600f805491851662010000027fffffffffffffffffffff0000000000000000000000000000000000000000ffff9092169190911790558015610af857600780547fffffffffffffffffffffffffffffffffffffffffffffffffffffffffffff00ff169055604051600181527f7f26b83ff96e1f2b6a682f133852f6798a09c465da95921460cefb384740249890602001611292565b600a5460009073ffffffffffffffffffffffffffffffffffffffff16331480611e7c5750600b5473ffffffffffffffffffffffffffffffffffffffff1633145b611f08576040517f08c379a000000000000000000000000000000000000000000000000000000000815260206004820152602360248201527f554e415554484f52495a45443a2043414e4e4f545f504552464f524d5f41435460448201527f494f4e0000000000000000000000000000000000000000000000000000000000606482015260840161097e565b600160138460600151604051611f1e91906142f3565b9081526040516020918190038201812080547fffffffffffffffffffffffffffffffffffffffffffffffffffffffffffffff001693151593909317909255600091611f6c91600e910161430f565b6040516020818303038152906040529050808460600151604051602001611f949291906143e2565b604080517fffffffffffffffffffffffffffffffffffffffffffffffffffffffffffffffe081840301815291905260608501525060088054906000611fd8836142ba565b9091555050600854600f54611ff4908590839060ff16866127a1565b8451600090815260116020908152604090912082518155828201518051919261195092600185019290910190613717565b600073ffffffffffffffffffffffffffffffffffffffff83166120ca576040517f08c379a000000000000000000000000000000000000000000000000000000000815260206004820152602b60248201527f455243313135353a2062616c616e636520717565727920666f7220746865207a60448201527f65726f2061646472657373000000000000000000000000000000000000000000606482015260840161097e565b5060009081526020818152604080832073ffffffffffffffffffffffffffffffffffffffff949094168352929052205490565b60018311612167576040517f08c379a000000000000000000000000000000000000000000000000000000000815260206004820152600c60248201527f494e563a20544f4b454e49440000000000000000000000000000000000000000604482015260640161097e565b6121738484848461297e565b50505050565b815183511461220a576040517f08c379a000000000000000000000000000000000000000000000000000000000815260206004820152602860248201527f455243313135353a2069647320616e6420616d6f756e7473206c656e6774682060448201527f6d69736d61746368000000000000000000000000000000000000000000000000606482015260840161097e565b73ffffffffffffffffffffffffffffffffffffffff84166122ad576040517f08c379a000000000000000000000000000000000000000000000000000000000815260206004820152602560248201527f455243313135353a207472616e7366657220746f20746865207a65726f20616460448201527f6472657373000000000000000000000000000000000000000000000000000000606482015260840161097e565b336122bc818787878787612aeb565b60005b845181101561242c5760008582815181106122dc576122dc61425c565b6020026020010151905060008583815181106122fa576122fa61425c565b6020908102919091018101516000848152808352604080822073ffffffffffffffffffffffffffffffffffffffff8e1683529093529190912054909150818110156123c7576040517f08c379a000000000000000000000000000000000000000000000000000000000815260206004820152602a60248201527f455243313135353a20696e73756666696369656e742062616c616e636520666f60448201527f72207472616e7366657200000000000000000000000000000000000000000000606482015260840161097e565b60008381526020818152604080832073ffffffffffffffffffffffffffffffffffffffff8e8116855292528083208585039055908b16825281208054849290612411908490614411565b9250508190555050505080612425906142ba565b90506122bf565b508473ffffffffffffffffffffffffffffffffffffffff168673ffffffffffffffffffffffffffffffffffffffff168273ffffffffffffffffffffffffffffffffffffffff167f4a39dc06d4c0dbc64b70af90fd698a233a518aa5d07e595d983b8c0526c8f7fb87876040516124a3929190614429565b60405180910390a46124b9818787878787612c38565b505050505050565b6000806000841161252e576040517f08c379a000000000000000000000000000000000000000000000000000000000815260206004820152601660248201527f4552433230536e617073686f743a206964206973203000000000000000000000604482015260640161097e565b612536612ecc565b84111561259f576040517f08c379a000000000000000000000000000000000000000000000000000000000815260206004820152601d60248201527f4552433230536e617073686f743a206e6f6e6578697374656e74206964000000604482015260640161097e565b60006125ab8486612ed7565b84549091508114156125c45760008092509250506125ec565b60018460010182815481106125db576125db61425c565b906000526020600020015492509250505b9250929050565b8173ffffffffffffffffffffffffffffffffffffffff168373ffffffffffffffffffffffffffffffffffffffff1614156126af576040517f08c379a000000000000000000000000000000000000000000000000000000000815260206004820152602960248201527f455243313135353a2073657474696e6720617070726f76616c2073746174757360448201527f20666f722073656c660000000000000000000000000000000000000000000000606482015260840161097e565b73ffffffffffffffffffffffffffffffffffffffff83811660008181526001602090815260408083209487168084529482529182902080547fffffffffffffffffffffffffffffffffffffffffffffffffffffffffffffff001686151590811790915591519182527f17307eab39ab6107e8899845ad3d59bd9653f200f220920489ca2b5937696c31910160405180910390a3505050565b6000612757600680546001019055565b6000612761612ecc565b90507f8030e83b04d87bef53480e26263266d6ca66863aa8506aca6f2559d18aa1cb678160405161279491815260200190565b60405180910390a1919050565b6127dc6040518060c0016040528060008152602001606081526020016060815260200160008152602001600015158152602001600081525090565b6000856040015186602001516127f2919061444e565b9050600086604001519050612818308784604051806020016040528060008152506120fd565b612833848783604051806020016040528060008152506120fd565b6040805160c081018252885181526060808a0180516020808501919091526080808d018051868801524294860185905260019186019190915260a085018c90528c5192519051918d0151955194957f49debfc18817e7e3ec2948391bcc3a87349b3c716f7d470d223bfbf8928aa65a956128b59592939291908e908e90614465565b60405180910390a1979650505050505050565b600183141561297157600f546040517f42842e0e00000000000000000000000000000000000000000000000000000000815273ffffffffffffffffffffffffffffffffffffffff878116600483015286811660248301526044820185905262010000909204909116906342842e0e90606401600060405180830381600087803b15801561295457600080fd5b505af1158015612968573d6000803e3d6000fd5b50505050610af8565b610af88585858585612f9a565b73ffffffffffffffffffffffffffffffffffffffff8416612a21576040517f08c379a000000000000000000000000000000000000000000000000000000000815260206004820152602160248201527f455243313135353a206d696e7420746f20746865207a65726f2061646472657360448201527f7300000000000000000000000000000000000000000000000000000000000000606482015260840161097e565b33612a4181600087612a32886131c2565b612a3b886131c2565b87612aeb565b60008481526020818152604080832073ffffffffffffffffffffffffffffffffffffffff8916845290915281208054859290612a7e908490614411565b9091555050604080518581526020810185905273ffffffffffffffffffffffffffffffffffffffff80881692600092918516917fc3d58168c5ae7397731d063d5bbf3d657854427343f4c083240f7aacaa2d0f62910160405180910390a4610af88160008787878761320d565b60095473ffffffffffffffffffffffffffffffffffffffff1615612c2a5760095473ffffffffffffffffffffffffffffffffffffffff1660005b8451811015612c27578173ffffffffffffffffffffffffffffffffffffffff16631de841ba8888878581518110612b5e57612b5e61425c565b6020026020010151898681518110612b7857612b7861425c565b60209081029190910101516040517fffffffff0000000000000000000000000000000000000000000000000000000060e087901b16815273ffffffffffffffffffffffffffffffffffffffff948516600482015293909216602484015260448301526064820152608401600060405180830381600087803b158015612bfc57600080fd5b505af1158015612c10573d6000803e3d6000fd5b505050508080612c1f906142ba565b915050612b25565b50505b6124b98686868686866133ba565b73ffffffffffffffffffffffffffffffffffffffff84163b156124b9576040517fbc197c8100000000000000000000000000000000000000000000000000000000815273ffffffffffffffffffffffffffffffffffffffff85169063bc197c8190612caf90899089908890889088906004016144ba565b6020604051808303816000875af1925050508015612d08575060408051601f3d9081017fffffffffffffffffffffffffffffffffffffffffffffffffffffffffffffffe0168201909252612d0591810190614525565b60015b612df257612d14614542565b806308c379a01415612d685750612d2961455d565b80612d345750612d6a565b806040517f08c379a000000000000000000000000000000000000000000000000000000000815260040161097e91906138db565b505b6040517f08c379a000000000000000000000000000000000000000000000000000000000815260206004820152603460248201527f455243313135353a207472616e7366657220746f206e6f6e204552433131353560448201527f526563656976657220696d706c656d656e746572000000000000000000000000606482015260840161097e565b7fffffffff0000000000000000000000000000000000000000000000000000000081167fbc197c810000000000000000000000000000000000000000000000000000000014612ec3576040517f08c379a000000000000000000000000000000000000000000000000000000000815260206004820152602860248201527f455243313135353a204552433131353552656365697665722072656a6563746560448201527f6420746f6b656e73000000000000000000000000000000000000000000000000606482015260840161097e565b50505050505050565b600061172f60065490565b8154600090612ee85750600061075e565b82546000905b80821015612f44576000612f028383613434565b905084868281548110612f1757612f1761425c565b90600052602060002001541115612f3057809150612f3e565b612f3b816001614411565b92505b50612eee565b600082118015612f7957508385612f5c60018561444e565b81548110612f6c57612f6c61425c565b9060005260206000200154145b15612f9257612f8960018361444e565b9250505061075e565b50905061075e565b73ffffffffffffffffffffffffffffffffffffffff841661303d576040517f08c379a000000000000000000000000000000000000000000000000000000000815260206004820152602560248201527f455243313135353a207472616e7366657220746f20746865207a65726f20616460448201527f6472657373000000000000000000000000000000000000000000000000000000606482015260840161097e565b3361304d818787612a32886131c2565b60008481526020818152604080832073ffffffffffffffffffffffffffffffffffffffff8a1684529091529020548381101561310b576040517f08c379a000000000000000000000000000000000000000000000000000000000815260206004820152602a60248201527f455243313135353a20696e73756666696369656e742062616c616e636520666f60448201527f72207472616e7366657200000000000000000000000000000000000000000000606482015260840161097e565b60008581526020818152604080832073ffffffffffffffffffffffffffffffffffffffff8b8116855292528083208785039055908816825281208054869290613155908490614411565b9091555050604080518681526020810186905273ffffffffffffffffffffffffffffffffffffffff808916928a821692918616917fc3d58168c5ae7397731d063d5bbf3d657854427343f4c083240f7aacaa2d0f62910160405180910390a4612ec382888888888861320d565b604080516001808252818301909252606091600091906020808301908036833701905050905082816000815181106131fc576131fc61425c565b602090810291909101015292915050565b73ffffffffffffffffffffffffffffffffffffffff84163b156124b9576040517ff23a6e6100000000000000000000000000000000000000000000000000000000815273ffffffffffffffffffffffffffffffffffffffff85169063f23a6e61906132849089908990889088908890600401614605565b6020604051808303816000875af19250505080156132dd575060408051601f3d9081017fffffffffffffffffffffffffffffffffffffffffffffffffffffffffffffffe01682019092526132da91810190614525565b60015b6132e957612d14614542565b7fffffffff0000000000000000000000000000000000000000000000000000000081167ff23a6e610000000000000000000000000000000000000000000000000000000014612ec3576040517f08c379a000000000000000000000000000000000000000000000000000000000815260206004820152602860248201527f455243313135353a204552433131353552656365697665722072656a6563746560448201527f6420746f6b656e73000000000000000000000000000000000000000000000000606482015260840161097e565b73ffffffffffffffffffffffffffffffffffffffff85166133ed576133df8484613456565b6133e8836134e3565b613426565b73ffffffffffffffffffffffffffffffffffffffff8416613412576133df8584613456565b61341c8584613456565b6134268484613456565b6124b986868686868661355f565b60006134436002848418614655565b61344f90848416614411565b9392505050565b60005b8151811015611ab55773ffffffffffffffffffffffffffffffffffffffff8316600090815260046020526040812083516134d192908590859081106134a0576134a061425c565b602002602001015181526020019081526020016000206134cc85858581518110610c3957610c3961425c565b613685565b806134db816142ba565b915050613459565b60005b8151811015610a325761354d600560008484815181106135085761350861425c565b602002602001015181526020019081526020016000206134cc8484815181106135335761353361425c565b602002602001015160009081526003602052604090205490565b80613557816142ba565b9150506134e6565b73ffffffffffffffffffffffffffffffffffffffff85166135f35760005b83518110156135f1578281815181106135985761359861425c565b6020026020010151600360008684815181106135b6576135b661425c565b6020026020010151815260200190815260200160002060008282546135db9190614411565b909155506135ea9050816142ba565b905061357d565b505b73ffffffffffffffffffffffffffffffffffffffff84166124b95760005b8351811015612ec35782818151811061362c5761362c61425c565b60200260200101516003600086848151811061364a5761364a61425c565b60200260200101518152602001908152602001600020600082825461366f919061444e565b9091555061367e9050816142ba565b9050613611565b600061368f612ecc565b90508061369b846136cf565b1015611ab5578254600180820185556000858152602080822090930193909355938401805494850181558252902090910155565b80546000906136e057506000919050565b815482906136f09060019061444e565b815481106137005761370061425c565b90600052602060002001549050919050565b919050565b82805461372390614208565b90600052602060002090601f016020900481019282613745576000855561378b565b82601f1061375e57805160ff191683800117855561378b565b8280016001018555821561378b579182015b8281111561378b578251825591602001919060010190613770565b5061379792915061379b565b5090565b5b80821115613797576000815560010161379c565b803573ffffffffffffffffffffffffffffffffffffffff8116811461371257600080fd5b600080604083850312156137e757600080fd5b6137f0836137b0565b946020939093013593505050565b7fffffffff000000000000000000000000000000000000000000000000000000008116811461382c57600080fd5b50565b60006020828403121561384157600080fd5b813561344f816137fe565b60006020828403121561385e57600080fd5b5035919050565b60005b83811015613880578181015183820152602001613868565b838111156121735750506000910152565b600081518084526138a9816020860160208601613865565b601f017fffffffffffffffffffffffffffffffffffffffffffffffffffffffffffffffe0169290920160200192915050565b60208152600061344f6020830184613891565b7f4e487b7100000000000000000000000000000000000000000000000000000000600052604160045260246000fd5b60a0810181811067ffffffffffffffff8211171561393d5761393d6138ee565b60405250565b7fffffffffffffffffffffffffffffffffffffffffffffffffffffffffffffffe0601f830116810181811067ffffffffffffffff82111715613987576139876138ee565b6040525050565b600082601f83011261399f57600080fd5b813567ffffffffffffffff8111156139b9576139b96138ee565b6040516139ee60207fffffffffffffffffffffffffffffffffffffffffffffffffffffffffffffffe0601f8501160182613943565b818152846020838601011115613a0357600080fd5b816020850160208301376000918101602001919091529392505050565b600060208284031215613a3257600080fd5b813567ffffffffffffffff811115613a4957600080fd5b613a558482850161398e565b949350505050565b60008060408385031215613a7057600080fd5b50508035926020909101359150565b600067ffffffffffffffff821115613a9957613a996138ee565b5060051b60200190565b600082601f830112613ab457600080fd5b81356020613ac182613a7f565b604051613ace8282613943565b83815260059390931b8501820192828101915086841115613aee57600080fd5b8286015b84811015613b095780358352918301918301613af2565b509695505050505050565b600080600080600060a08688031215613b2c57600080fd5b613b35866137b0565b9450613b43602087016137b0565b9350604086013567ffffffffffffffff80821115613b6057600080fd5b613b6c89838a01613aa3565b94506060880135915080821115613b8257600080fd5b613b8e89838a01613aa3565b93506080880135915080821115613ba457600080fd5b50613bb18882890161398e565b9150509295509295909350565b60008060408385031215613bd157600080fd5b823567ffffffffffffffff80821115613be957600080fd5b818501915085601f830112613bfd57600080fd5b81356020613c0a82613a7f565b604051613c178282613943565b83815260059390931b8501820192828101915089841115613c3757600080fd5b948201945b83861015613c5c57613c4d866137b0565b82529482019490820190613c3c565b96505086013592505080821115613c7257600080fd5b50613c7f85828601613aa3565b9150509250929050565b600081518084526020808501945080840160005b83811015613cb957815187529582019590820190600101613c9d565b509495945050505050565b60208152600061344f6020830184613c89565b60008060408385031215613cea57600080fd5b823567ffffffffffffffff80821115613d0257600080fd5b613d0e8683870161398e565b93506020850135915080821115613d2457600080fd5b50613c7f8582860161398e565b600080600060608486031215613d4657600080fd5b613d4f846137b0565b95602085013595506040909401359392505050565b600080600080600060a08688031215613d7c57600080fd5b613d85866137b0565b97602087013597506040870135966060810135965060800135945092505050565b86815260c060208201526000613dbf60c0830188613891565b8281036040840152613dd18188613891565b60608401969096525050911515608083015260a0909101529392505050565b600080600060608486031215613e0557600080fd5b505081359360208301359350604090920135919050565b60008060408385031215613e2f57600080fd5b613e38836137b0565b915060208301358015158114613e4d57600080fd5b809150509250929050565b60008083601f840112613e6a57600080fd5b50813567ffffffffffffffff811115613e8257600080fd5b6020830191508360208260051b85010111156125ec57600080fd5b60008083601f840112613eaf57600080fd5b50813567ffffffffffffffff811115613ec757600080fd5b6020830191508360208285010111156125ec57600080fd5b60008060008060008060008060a0898b031215613efb57600080fd5b613f04896137b0565b9750613f1260208a016137b0565b9650604089013567ffffffffffffffff80821115613f2f57600080fd5b613f3b8c838d01613e58565b909850965060608b0135915080821115613f5457600080fd5b613f608c838d01613e58565b909650945060808b0135915080821115613f7957600080fd5b50613f868b828c01613e9d565b999c989b5096995094979396929594505050565b60008060408385031215613fad57600080fd5b823567ffffffffffffffff80821115613fc557600080fd5b9084019060a08287031215613fd957600080fd5b604051613fe58161391d565b82358152602083013560208201526040830135604082015260608301358281111561400f57600080fd5b61401b8882860161398e565b60608301525060808301358281111561403357600080fd5b61403f8882860161398e565b6080830152509350614056915050602084016137b0565b90509250929050565b6000806040838503121561407257600080fd5b61407b836137b0565b9150614056602084016137b0565b60008060006060848603121561409e57600080fd5b83359250602084013591506140b5604085016137b0565b90509250925092565b60008060008060008060a087890312156140d757600080fd5b6140e0876137b0565b95506140ee602088016137b0565b94506040870135935060608701359250608087013567ffffffffffffffff81111561411857600080fd5b61412489828a01613e9d565b979a9699509497509295939492505050565b600080600080600060a0868803121561414e57600080fd5b614157866137b0565b9450614165602087016137b0565b93506040860135925060608601359150608086013567ffffffffffffffff81111561418f57600080fd5b613bb18882890161398e565b600080600080608085870312156141b157600080fd5b6141ba856137b0565b93506141c8602086016137b0565b92506141d6604086016137b0565b91506141e4606086016137b0565b905092959194509250565b60006020828403121561420157600080fd5b5051919050565b600181811c9082168061421c57607f821691505b60208210811415614256577f4e487b7100000000000000000000000000000000000000000000000000000000600052602260045260246000fd5b50919050565b7f4e487b7100000000000000000000000000000000000000000000000000000000600052603260045260246000fd5b7f4e487b7100000000000000000000000000000000000000000000000000000000600052601160045260246000fd5b60007fffffffffffffffffffffffffffffffffffffffffffffffffffffffffffffffff8214156142ec576142ec61428b565b5060010190565b60008251614305818460208701613865565b9190910192915050565b600080835481600182811c91508083168061432b57607f831692505b6020808410821415614364577f4e487b710000000000000000000000000000000000000000000000000000000086526022600452602486fd5b81801561437857600181146143a7576143d4565b7fffffffffffffffffffffffffffffffffffffffffffffffffffffffffffffff008616895284890196506143d4565b60008a81526020902060005b868110156143cc5781548b8201529085019083016143b3565b505084890196505b509498975050505050505050565b600083516143f4818460208801613865565b835190830190614408818360208801613865565b01949350505050565b600082198211156144245761442461428b565b500190565b60408152600061443c6040830185613c89565b82810360208401526114288185613c89565b6000828210156144605761446061428b565b500390565b87815260e06020820152600061447e60e0830189613891565b82810360408401526144908189613891565b9150508560608301528460808301528360a083015260ff831660c083015298975050505050505050565b600073ffffffffffffffffffffffffffffffffffffffff808816835280871660208401525060a060408301526144f360a0830186613c89565b82810360608401526145058186613c89565b905082810360808401526145198185613891565b98975050505050505050565b60006020828403121561453757600080fd5b815161344f816137fe565b600060033d11156117325760046000803e5060005160e01c90565b600060443d101561456b5790565b6040517ffffffffffffffffffffffffffffffffffffffffffffffffffffffffffffffffc803d016004833e81513d67ffffffffffffffff81602484011181841117156145b957505050505090565b82850191508151818111156145d15750505050505090565b843d87010160208285010111156145eb5750505050505090565b6145fa60208286010187613943565b509095945050505050565b600073ffffffffffffffffffffffffffffffffffffffff808816835280871660208401525084604083015283606083015260a0608083015261464a60a0830184613891565b979650505050505050565b60008261468b577f4e487b7100000000000000000000000000000000000000000000000000000000600052601260045260246000fd5b50049056fe546f6b656e206d696e746564207468726f75676820766f74696e672070726f63657373a26469706673582212200c9a174b90e7672b4cee2ae92cde31ca1791a96ebd659a6df4dbfa971292e9a664736f6c634300080c0033",
  "immutableReferences": {},
  "source": "// SPDX-License-Identifier: MIT\n\npragma solidity ^0.8.0;\n\nimport \"../treasury/TreasuryCoreContract.sol\";\n\ncontract TreasuryCoreContractMock is TreasuryCoreContract {\n    constructor(address owner) TreasuryCoreContract(owner) {}\n\n    /// @dev This function is a mock function that will mint tokens of specific ids\n    // This function can be called to mimic dilution result\n    /// @param tokenId This is the id of the which is to be minted\n    /// @param tokenAmount This is the amount that is to be minted\n    function mintTokens(uint256 tokenId, uint256 tokenAmount) external {\n        // Here minting of new tokens is done. And those are sent directly into the treasury\n        _mint(\n            address(this),\n            tokenId,\n            tokenAmount,\n            \"Token minted through voting process\"\n        );\n    }\n\n    /// @dev This function is a mock function that will mint tokens of specific ids\n    // and send it to the calling user\n    /// @param tokenId This is the id of the which is to be minted\n    /// @param tokenAmount This is the amount that is to be minted\n    function mintTokensForMe(uint256 tokenId, uint256 tokenAmount) public {\n        // Here minting of new tokens is done. And those are sent directly into the treasury\n        _mint(\n            msg.sender,\n            tokenId,\n            tokenAmount,\n            \"Token minted through voting process\"\n        );\n    }\n}\n",
  "sourcePath": "/Users/a1/Desktop/Office/projects/CrowdRecords/Contracts/contracts/Mocks/TreasuryCoreContractMock.sol",
  "compiler": {
    "name": "solc",
    "version": "0.8.12+commit.f00d7308.Emscripten.clang"
  },
  "schemaVersion": "3.4.6",
  "updatedAt": "2023-09-04T11:48:55.216Z",
  "networkType": "ethereum",
  "devdoc": {
    "kind": "dev",
    "methods": {
      "balanceOf(address,uint256)": {
        "details": "this function is responsible to return the balance of a token Here it has been overridden so that any request for CRD token will be redirected to the ERC20 contract of CRD token",
        "params": {
          "account": "this is the address of the user whose balance you want to check",
          "id": "this is the id of the token that is to be transferred"
        },
        "returns": {
          "_0": "balance This is the balance of the user"
        }
      },
      "balanceOfAt(address,uint256,uint256)": {
        "details": "Retrieves the balance of `account` at the time `snapshotId` was created."
      },
      "balanceOfBatch(address[],uint256[])": {
        "details": "See {IERC1155-balanceOfBatch}. Requirements: - `accounts` and `ids` must have the same length."
      },
      "createNewCommunityToken((uint256,uint256,uint256,string,string),address)": {
        "details": "This function creates new community tokens for specified record",
        "params": {
          "newTokenData": "This contains all the parameters needed to create a new community token that are",
          "userAddress": "- This is the address of the user who is the creator of the token"
        }
      },
      "createNewGovernanceToken((uint256,uint256,uint256,string,string),address)": {
        "details": "This function creates new governance tokens for specified record",
        "params": {
          "newTokenData": "This contains all the parameters needed to create a new governance token that are",
          "userAddress": "- This is the address of the user who is the creator of the token"
        }
      },
      "exists(uint256)": {
        "details": "Indicates whether any token exist with a given id, or not."
      },
      "initialize(address,address,address,address)": {
        "details": "This is to set the address of the contracts",
        "params": {
          "controllerContractAddress": "This is the address of Controller contract",
          "crdTokenAddress": "This is the address of CRD token contract",
          "newTreasuryAddress": "This is the address of new voting hub contract",
          "newVotingHubContract": "This is the address of new voting hub contract"
        }
      },
      "isApprovedForAll(address,address)": {
        "details": "See {IERC1155-isApprovedForAll}."
      },
      "isSymbolAvailable(string,string)": {
        "details": "This function checks if symbol are available or not",
        "params": {
          "communitySymbol": "Symbol for community token",
          "governanceSymbol": "Symbol for governance token"
        }
      },
      "mintTokens(uint256,uint256)": {
        "params": {
          "tokenAmount": "This is the amount that is to be minted",
          "tokenId": "This is the id of the which is to be minted"
        }
      },
      "mintTokens(uint256,uint256,uint256)": {
        "details": "This function creats new community tokens for specified record",
        "params": {
          "recordId": "This is the id of the record to which the token belongs to",
          "tokenAmount": "This is the amount that is to be minted",
          "tokenId": "This is the id of the which is to be minted"
        }
      },
      "mintTokensForMe(uint256,uint256)": {
        "params": {
          "tokenAmount": "This is the amount that is to be minted",
          "tokenId": "This is the id of the which is to be minted"
        }
      },
      "onERC1155BatchReceived(address,address,uint256[],uint256[],bytes)": {
        "details": "Handles the receipt of a multiple ERC1155 token types. This function is called at the end of a `safeBatchTransferFrom` after the balances have been updated. NOTE: To accept the transfer(s), this must return `bytes4(keccak256(\"onERC1155BatchReceived(address,address,uint256[],uint256[],bytes)\"))` (i.e. 0xbc197c81, or its own function selector).",
        "params": {
          "data": "Additional data with no specified format",
          "from": "The address which previously owned the token",
          "ids": "An array containing ids of each token being transferred (order and length must match values array)",
          "operator": "The address which initiated the batch transfer (i.e. msg.sender)",
          "values": "An array containing amounts of each token being transferred (order and length must match ids array)"
        },
        "returns": {
          "_0": "`bytes4(keccak256(\"onERC1155BatchReceived(address,address,uint256[],uint256[],bytes)\"))` if transfer is allowed"
        }
      },
      "onERC1155Received(address,address,uint256,uint256,bytes)": {
        "details": "Handles the receipt of a single ERC1155 token type. This function is called at the end of a `safeTransferFrom` after the balance has been updated. NOTE: To accept the transfer, this must return `bytes4(keccak256(\"onERC1155Received(address,address,uint256,uint256,bytes)\"))` (i.e. 0xf23a6e61, or its own function selector).",
        "params": {
          "data": "Additional data with no specified format",
          "from": "The address which previously owned the token",
          "id": "The ID of the token being transferred",
          "operator": "The address which initiated the transfer (i.e. msg.sender)",
          "value": "The amount of tokens being transferred"
        },
        "returns": {
          "_0": "`bytes4(keccak256(\"onERC1155Received(address,address,uint256,uint256,bytes)\"))` if transfer is allowed"
        }
      },
      "safeBatchTransferFrom(address,address,uint256[],uint256[],bytes)": {
        "details": "See {IERC1155-safeBatchTransferFrom}."
      },
      "safeTransferFrom(address,address,uint256,uint256,bytes)": {
        "details": "See {IERC1155-safeTransferFrom}."
      },
      "setApprovalForAll(address,bool)": {
        "details": "See {IERC1155-setApprovalForAll}."
      },
      "setSymbolsAsAvailable(string,string)": {
        "params": {
          "communitySymbol": "Symbol for community token",
          "governanceSymbol": "Symbol for governance token"
        }
      },
      "setSymbolsAsUsed(string,string)": {
        "params": {
          "communitySymbol": "Symbol for community token",
          "governanceSymbol": "Symbol for governance token"
        }
      },
      "supportsInterface(bytes4)": {
        "details": "See {IERC165-supportsInterface}."
      },
      "totalSupply(uint256)": {
        "details": "Total amount of tokens in with a given id."
      },
      "totalSupplyAt(uint256,uint256)": {
        "details": "Retrieves the total supply at the time `snapshotId` was created."
      },
      "transferRewardAmount(address,uint256,uint256,uint256,uint256)": {
        "details": "This function is called only by the voting contract once the voting ends",
        "params": {
          "contributionId": "this is the contribution id to which the user has won",
          "recordId": "This is the recordId to which the contribution belongs to",
          "rewardCommunity": "this is the amount of community token that needs to be transferred",
          "rewardGovernance": "this is the amount of Governance token that needs to be transferred",
          "to": "This is the receivers address"
        }
      },
      "transferRewardTokens(uint256,uint256,address)": {
        "details": "this function is responsible for minting of new tokens for records",
        "params": {
          "amount": "the amount that is to be minted",
          "receiver": "Id this is the tokenId that is to minted",
          "tokenId": "Id this is the tokenId that is to minted"
        }
      },
      "uri(uint256)": {
        "details": "See {IERC1155MetadataURI-uri}. This implementation returns the same URI for *all* token types. It relies on the token type ID substitution mechanism https://eips.ethereum.org/EIPS/eip-1155#metadata[defined in the EIP]. Clients calling this function must replace the `\\{id\\}` substring with the actual token type ID."
      }
    },
    "version": 1
  },
  "userdoc": {
    "kind": "user",
    "methods": {},
    "version": 1
  }
}