{
  "contractName": "TreasuryContract",
  "abi": [
    {
      "inputs": [],
      "stateMutability": "nonpayable",
      "type": "constructor"
    },
    {
      "anonymous": false,
      "inputs": [
        {
          "indexed": true,
          "internalType": "address",
          "name": "account",
          "type": "address"
        },
        {
          "indexed": true,
          "internalType": "address",
          "name": "operator",
          "type": "address"
        },
        {
          "indexed": false,
          "internalType": "bool",
          "name": "approved",
          "type": "bool"
        }
      ],
      "name": "ApprovalForAll",
      "type": "event"
    },
    {
      "anonymous": false,
      "inputs": [
        {
          "indexed": false,
          "internalType": "address",
          "name": "to",
          "type": "address"
        },
        {
          "indexed": false,
          "internalType": "uint256",
          "name": "recordId",
          "type": "uint256"
        },
        {
          "indexed": false,
          "internalType": "uint256",
          "name": "contributionId",
          "type": "uint256"
        },
        {
          "indexed": false,
          "internalType": "uint256",
          "name": "rewardGovernance",
          "type": "uint256"
        },
        {
          "indexed": false,
          "internalType": "uint256",
          "name": "rewardCommunity",
          "type": "uint256"
        }
      ],
      "name": "ContributionRewardTransfered",
      "type": "event"
    },
    {
      "anonymous": false,
      "inputs": [
        {
          "indexed": false,
          "internalType": "uint256",
          "name": "recordId",
          "type": "uint256"
        },
        {
          "indexed": false,
          "internalType": "string",
          "name": "symbol",
          "type": "string"
        },
        {
          "indexed": false,
          "internalType": "string",
          "name": "image",
          "type": "string"
        },
        {
          "indexed": false,
          "internalType": "uint256",
          "name": "creationDate",
          "type": "uint256"
        },
        {
          "indexed": false,
          "internalType": "uint256",
          "name": "tokenAmount",
          "type": "uint256"
        },
        {
          "indexed": false,
          "internalType": "uint256",
          "name": "tokenId",
          "type": "uint256"
        },
        {
          "indexed": false,
          "internalType": "uint8",
          "name": "tokenType",
          "type": "uint8"
        }
      ],
      "name": "NewTokenCreated",
      "type": "event"
    },
    {
      "anonymous": false,
      "inputs": [
        {
          "indexed": false,
          "internalType": "uint256",
          "name": "id",
          "type": "uint256"
        }
      ],
      "name": "Snapshot",
      "type": "event"
    },
    {
      "anonymous": false,
      "inputs": [
        {
          "indexed": false,
          "internalType": "uint256",
          "name": "recordId",
          "type": "uint256"
        },
        {
          "indexed": false,
          "internalType": "uint256",
          "name": "tokenId",
          "type": "uint256"
        },
        {
          "indexed": false,
          "internalType": "uint256",
          "name": "creationDate",
          "type": "uint256"
        },
        {
          "indexed": false,
          "internalType": "uint256",
          "name": "tokenAmount",
          "type": "uint256"
        }
      ],
      "name": "TokenMinted",
      "type": "event"
    },
    {
      "anonymous": false,
      "inputs": [
        {
          "indexed": false,
          "internalType": "address",
          "name": "from",
          "type": "address"
        },
        {
          "indexed": false,
          "internalType": "address",
          "name": "to",
          "type": "address"
        },
        {
          "indexed": false,
          "internalType": "uint256",
          "name": "transferDate",
          "type": "uint256"
        },
        {
          "indexed": false,
          "internalType": "uint256",
          "name": "tokenId",
          "type": "uint256"
        },
        {
          "indexed": false,
          "internalType": "uint256",
          "name": "amount",
          "type": "uint256"
        },
        {
          "indexed": false,
          "internalType": "string",
          "name": "symbol",
          "type": "string"
        }
      ],
      "name": "TokenTransfer",
      "type": "event"
    },
    {
      "anonymous": false,
      "inputs": [
        {
          "indexed": true,
          "internalType": "address",
          "name": "operator",
          "type": "address"
        },
        {
          "indexed": true,
          "internalType": "address",
          "name": "from",
          "type": "address"
        },
        {
          "indexed": true,
          "internalType": "address",
          "name": "to",
          "type": "address"
        },
        {
          "indexed": false,
          "internalType": "uint256[]",
          "name": "ids",
          "type": "uint256[]"
        },
        {
          "indexed": false,
          "internalType": "uint256[]",
          "name": "values",
          "type": "uint256[]"
        }
      ],
      "name": "TransferBatch",
      "type": "event"
    },
    {
      "anonymous": false,
      "inputs": [
        {
          "indexed": true,
          "internalType": "address",
          "name": "operator",
          "type": "address"
        },
        {
          "indexed": true,
          "internalType": "address",
          "name": "from",
          "type": "address"
        },
        {
          "indexed": true,
          "internalType": "address",
          "name": "to",
          "type": "address"
        },
        {
          "indexed": false,
          "internalType": "uint256",
          "name": "id",
          "type": "uint256"
        },
        {
          "indexed": false,
          "internalType": "uint256",
          "name": "value",
          "type": "uint256"
        }
      ],
      "name": "TransferSingle",
      "type": "event"
    },
    {
      "anonymous": false,
      "inputs": [
        {
          "indexed": false,
          "internalType": "string",
          "name": "value",
          "type": "string"
        },
        {
          "indexed": true,
          "internalType": "uint256",
          "name": "id",
          "type": "uint256"
        }
      ],
      "name": "URI",
      "type": "event"
    },
    {
      "inputs": [],
      "name": "CONTRIBUTION_VOTING_CONTRACT_ADDRESS",
      "outputs": [
        {
          "internalType": "address",
          "name": "",
          "type": "address"
        }
      ],
      "stateMutability": "view",
      "type": "function"
    },
    {
      "inputs": [],
      "name": "CRD",
      "outputs": [
        {
          "internalType": "uint256",
          "name": "",
          "type": "uint256"
        }
      ],
      "stateMutability": "view",
      "type": "function"
    },
    {
      "inputs": [],
      "name": "RECORDS_CONTRACT_ADDRESS",
      "outputs": [
        {
          "internalType": "address",
          "name": "",
          "type": "address"
        }
      ],
      "stateMutability": "view",
      "type": "function"
    },
    {
      "inputs": [],
      "name": "VOTING_HUB_ADDRESS",
      "outputs": [
        {
          "internalType": "address",
          "name": "",
          "type": "address"
        }
      ],
      "stateMutability": "view",
      "type": "function"
    },
    {
      "inputs": [
        {
          "internalType": "address",
          "name": "account",
          "type": "address"
        },
        {
          "internalType": "uint256",
          "name": "id",
          "type": "uint256"
        }
      ],
      "name": "balanceOf",
      "outputs": [
        {
          "internalType": "uint256",
          "name": "",
          "type": "uint256"
        }
      ],
      "stateMutability": "view",
      "type": "function"
    },
    {
      "inputs": [
        {
          "internalType": "address",
          "name": "account",
          "type": "address"
        },
        {
          "internalType": "uint256",
          "name": "snapshotId",
          "type": "uint256"
        },
        {
          "internalType": "uint256",
          "name": "tokenId",
          "type": "uint256"
        }
      ],
      "name": "balanceOfAt",
      "outputs": [
        {
          "internalType": "uint256",
          "name": "",
          "type": "uint256"
        }
      ],
      "stateMutability": "view",
      "type": "function"
    },
    {
      "inputs": [
        {
          "internalType": "address[]",
          "name": "accounts",
          "type": "address[]"
        },
        {
          "internalType": "uint256[]",
          "name": "ids",
          "type": "uint256[]"
        }
      ],
      "name": "balanceOfBatch",
      "outputs": [
        {
          "internalType": "uint256[]",
          "name": "",
          "type": "uint256[]"
        }
      ],
      "stateMutability": "view",
      "type": "function"
    },
    {
      "inputs": [
        {
          "internalType": "uint256",
          "name": "id",
          "type": "uint256"
        }
      ],
      "name": "exists",
      "outputs": [
        {
          "internalType": "bool",
          "name": "",
          "type": "bool"
        }
      ],
      "stateMutability": "view",
      "type": "function"
    },
    {
      "inputs": [
        {
          "internalType": "address",
          "name": "account",
          "type": "address"
        },
        {
          "internalType": "address",
          "name": "operator",
          "type": "address"
        }
      ],
      "name": "isApprovedForAll",
      "outputs": [
        {
          "internalType": "bool",
          "name": "",
          "type": "bool"
        }
      ],
      "stateMutability": "view",
      "type": "function"
    },
    {
      "inputs": [
        {
          "internalType": "address",
          "name": "from",
          "type": "address"
        },
        {
          "internalType": "address",
          "name": "to",
          "type": "address"
        },
        {
          "internalType": "uint256[]",
          "name": "ids",
          "type": "uint256[]"
        },
        {
          "internalType": "uint256[]",
          "name": "amounts",
          "type": "uint256[]"
        },
        {
          "internalType": "bytes",
          "name": "data",
          "type": "bytes"
        }
      ],
      "name": "safeBatchTransferFrom",
      "outputs": [],
      "stateMutability": "nonpayable",
      "type": "function"
    },
    {
      "inputs": [
        {
          "internalType": "address",
          "name": "from",
          "type": "address"
        },
        {
          "internalType": "address",
          "name": "to",
          "type": "address"
        },
        {
          "internalType": "uint256",
          "name": "id",
          "type": "uint256"
        },
        {
          "internalType": "uint256",
          "name": "amount",
          "type": "uint256"
        },
        {
          "internalType": "bytes",
          "name": "data",
          "type": "bytes"
        }
      ],
      "name": "safeTransferFrom",
      "outputs": [],
      "stateMutability": "nonpayable",
      "type": "function"
    },
    {
      "inputs": [
        {
          "internalType": "address",
          "name": "operator",
          "type": "address"
        },
        {
          "internalType": "bool",
          "name": "approved",
          "type": "bool"
        }
      ],
      "name": "setApprovalForAll",
      "outputs": [],
      "stateMutability": "nonpayable",
      "type": "function"
    },
    {
      "inputs": [],
      "name": "snap",
      "outputs": [
        {
          "internalType": "uint256",
          "name": "",
          "type": "uint256"
        }
      ],
      "stateMutability": "nonpayable",
      "type": "function"
    },
    {
      "inputs": [
        {
          "internalType": "bytes4",
          "name": "interfaceId",
          "type": "bytes4"
        }
      ],
      "name": "supportsInterface",
      "outputs": [
        {
          "internalType": "bool",
          "name": "",
          "type": "bool"
        }
      ],
      "stateMutability": "view",
      "type": "function"
    },
    {
      "inputs": [
        {
          "internalType": "uint256",
          "name": "id",
          "type": "uint256"
        }
      ],
      "name": "totalSupply",
      "outputs": [
        {
          "internalType": "uint256",
          "name": "",
          "type": "uint256"
        }
      ],
      "stateMutability": "view",
      "type": "function"
    },
    {
      "inputs": [
        {
          "internalType": "uint256",
          "name": "snapshotId",
          "type": "uint256"
        },
        {
          "internalType": "uint256",
          "name": "tokenId",
          "type": "uint256"
        }
      ],
      "name": "totalSupplyAt",
      "outputs": [
        {
          "internalType": "uint256",
          "name": "",
          "type": "uint256"
        }
      ],
      "stateMutability": "view",
      "type": "function"
    },
    {
      "inputs": [
        {
          "internalType": "uint256",
          "name": "",
          "type": "uint256"
        }
      ],
      "name": "uri",
      "outputs": [
        {
          "internalType": "string",
          "name": "",
          "type": "string"
        }
      ],
      "stateMutability": "view",
      "type": "function"
    },
    {
      "inputs": [
        {
          "internalType": "address",
          "name": "newRecordsContractAddress",
          "type": "address"
        }
      ],
      "name": "setRecordsContractAddress",
      "outputs": [],
      "stateMutability": "nonpayable",
      "type": "function"
    },
    {
      "inputs": [
        {
          "internalType": "address",
          "name": "newVotingHubContract",
          "type": "address"
        }
      ],
      "name": "setVotingHubContract",
      "outputs": [],
      "stateMutability": "nonpayable",
      "type": "function"
    },
    {
      "inputs": [
        {
          "internalType": "address",
          "name": "newVotingContractAddress",
          "type": "address"
        }
      ],
      "name": "setContributionVotingContractAddress",
      "outputs": [],
      "stateMutability": "nonpayable",
      "type": "function"
    },
    {
      "inputs": [
        {
          "components": [
            {
              "internalType": "uint256",
              "name": "recordId",
              "type": "uint256"
            },
            {
              "internalType": "uint256",
              "name": "totalSupply",
              "type": "uint256"
            },
            {
              "internalType": "uint256",
              "name": "userBalance",
              "type": "uint256"
            },
            {
              "internalType": "string",
              "name": "symbol",
              "type": "string"
            },
            {
              "internalType": "string",
              "name": "image",
              "type": "string"
            }
          ],
          "internalType": "struct TreasuryContract.NewTokenData",
          "name": "newTokenData",
          "type": "tuple"
        }
      ],
      "name": "createNewGovernanceToken",
      "outputs": [
        {
          "internalType": "uint256",
          "name": "",
          "type": "uint256"
        }
      ],
      "stateMutability": "payable",
      "type": "function"
    },
    {
      "inputs": [
        {
          "components": [
            {
              "internalType": "uint256",
              "name": "recordId",
              "type": "uint256"
            },
            {
              "internalType": "uint256",
              "name": "totalSupply",
              "type": "uint256"
            },
            {
              "internalType": "uint256",
              "name": "userBalance",
              "type": "uint256"
            },
            {
              "internalType": "string",
              "name": "symbol",
              "type": "string"
            },
            {
              "internalType": "string",
              "name": "image",
              "type": "string"
            }
          ],
          "internalType": "struct TreasuryContract.NewTokenData",
          "name": "newTokenData",
          "type": "tuple"
        }
      ],
      "name": "createNewCommunityToken",
      "outputs": [
        {
          "internalType": "uint256",
          "name": "",
          "type": "uint256"
        }
      ],
      "stateMutability": "payable",
      "type": "function"
    },
    {
      "inputs": [
        {
          "internalType": "uint256",
          "name": "recordId",
          "type": "uint256"
        },
        {
          "internalType": "uint256",
          "name": "tokenId",
          "type": "uint256"
        },
        {
          "internalType": "uint256",
          "name": "tokenAmount",
          "type": "uint256"
        }
      ],
      "name": "mintTokens",
      "outputs": [],
      "stateMutability": "payable",
      "type": "function"
    },
    {
      "inputs": [
        {
          "internalType": "address",
          "name": "to",
          "type": "address"
        },
        {
          "internalType": "uint256",
          "name": "recordId",
          "type": "uint256"
        },
        {
          "internalType": "uint256",
          "name": "contributionId",
          "type": "uint256"
        },
        {
          "internalType": "uint256",
          "name": "rewardGovernance",
          "type": "uint256"
        },
        {
          "internalType": "uint256",
          "name": "rewardCommunity",
          "type": "uint256"
        }
      ],
      "name": "transferRewardAmount",
      "outputs": [],
      "stateMutability": "payable",
      "type": "function"
    },
    {
      "inputs": [
        {
          "internalType": "uint256",
          "name": "recordId",
          "type": "uint256"
        }
      ],
      "name": "getCommunityTokenId",
      "outputs": [
        {
          "internalType": "uint256",
          "name": "",
          "type": "uint256"
        }
      ],
      "stateMutability": "view",
      "type": "function"
    },
    {
      "inputs": [
        {
          "internalType": "uint256",
          "name": "recordId",
          "type": "uint256"
        }
      ],
      "name": "getGovernanceTokenId",
      "outputs": [
        {
          "internalType": "uint256",
          "name": "",
          "type": "uint256"
        }
      ],
      "stateMutability": "view",
      "type": "function"
    },
    {
      "inputs": [
        {
          "internalType": "uint256",
          "name": "tokenId",
          "type": "uint256"
        }
      ],
      "name": "totalCirculatingSupply",
      "outputs": [
        {
          "internalType": "uint256",
          "name": "",
          "type": "uint256"
        }
      ],
      "stateMutability": "view",
      "type": "function"
    },
    {
      "inputs": [],
      "name": "snapshot",
      "outputs": [
        {
          "internalType": "uint256",
          "name": "snapshotId",
          "type": "uint256"
        }
      ],
      "stateMutability": "nonpayable",
      "type": "function"
    },
    {
      "inputs": [
        {
          "internalType": "address",
          "name": "operator",
          "type": "address"
        },
        {
          "internalType": "address",
          "name": "from",
          "type": "address"
        },
        {
          "internalType": "uint256",
          "name": "id",
          "type": "uint256"
        },
        {
          "internalType": "uint256",
          "name": "value",
          "type": "uint256"
        },
        {
          "internalType": "bytes",
          "name": "data",
          "type": "bytes"
        }
      ],
      "name": "onERC1155Received",
      "outputs": [
        {
          "internalType": "bytes4",
          "name": "",
          "type": "bytes4"
        }
      ],
      "stateMutability": "nonpayable",
      "type": "function"
    },
    {
      "inputs": [
        {
          "internalType": "address",
          "name": "operator",
          "type": "address"
        },
        {
          "internalType": "address",
          "name": "from",
          "type": "address"
        },
        {
          "internalType": "uint256[]",
          "name": "ids",
          "type": "uint256[]"
        },
        {
          "internalType": "uint256[]",
          "name": "values",
          "type": "uint256[]"
        },
        {
          "internalType": "bytes",
          "name": "data",
          "type": "bytes"
        }
      ],
      "name": "onERC1155BatchReceived",
      "outputs": [
        {
          "internalType": "bytes4",
          "name": "",
          "type": "bytes4"
        }
      ],
      "stateMutability": "nonpayable",
      "type": "function"
    }
  ],
  "bytecode": "0x608060405260016007556040518060400160405280600581526020017f435244475f000000000000000000000000000000000000000000000000000000815250600c90805190602001906200005692919062000dd9565b506040518060400160405280600481526020017f4352445f00000000000000000000000000000000000000000000000000000000815250600d9080519060200190620000a492919062000dd9565b506000600e60006101000a81548160ff021916908360ff1602179055506001600e60016101000a81548160ff021916908360ff160217905550348015620000ea57600080fd5b506040518060400160405280601d81526020017f68747470733a2f2f63726f77647265636f7264732e636f6d2f7b69647d0000008152506200013281620001ce60201b60201c565b506200018733600169d3c21bcecceda10000006040518060400160405280601881526020017f68747470733a2f2f63726f77647265636f7264732e636f6d0000000000000000815250620001ea60201b60201c565b33600b60006101000a81548173ffffffffffffffffffffffffffffffffffffffff021916908373ffffffffffffffffffffffffffffffffffffffff160217905550620016cc565b8060029080519060200190620001e692919062000dd9565b5050565b600073ffffffffffffffffffffffffffffffffffffffff168473ffffffffffffffffffffffffffffffffffffffff1614156200025d576040517f08c379a0000000000000000000000000000000000000000000000000000000008152600401620002549062000f10565b60405180910390fd5b60006200026f620003af60201b60201c565b9050620002a8816000876200028a88620003b760201b60201c565b6200029b88620003b760201b60201c565b876200043860201b60201c565b8260008086815260200190815260200160002060008773ffffffffffffffffffffffffffffffffffffffff1673ffffffffffffffffffffffffffffffffffffffff168152602001908152602001600020600082825462000309919062000f6b565b925050819055508473ffffffffffffffffffffffffffffffffffffffff16600073ffffffffffffffffffffffffffffffffffffffff168273ffffffffffffffffffffffffffffffffffffffff167fc3d58168c5ae7397731d063d5bbf3d657854427343f4c083240f7aacaa2d0f6287876040516200038992919062000fd9565b60405180910390a4620003a881600087878787620005ae60201b60201c565b5050505050565b600033905090565b60606000600167ffffffffffffffff811115620003d957620003d862001006565b5b604051908082528060200260200182016040528015620004085781602001602082028036833780820191505090505b509050828160008151811062000423576200042262001035565b5b60200260200101818152505080915050919050565b600073ffffffffffffffffffffffffffffffffffffffff16600a60009054906101000a900473ffffffffffffffffffffffffffffffffffffffff1673ffffffffffffffffffffffffffffffffffffffff16146200058b576000600a60009054906101000a900473ffffffffffffffffffffffffffffffffffffffff16905060005b845181101562000588578173ffffffffffffffffffffffffffffffffffffffff16631de841ba8888878581518110620004f757620004f662001035565b5b602002602001015189868151811062000515576200051462001035565b5b60200260200101516040518563ffffffff1660e01b81526004016200053e9493929190620010a9565b600060405180830381600087803b1580156200055957600080fd5b505af11580156200056e573d6000803e3d6000fd5b5050505080806200057f90620010f6565b915050620004b9565b50505b620005a6868686868686620007a860201b62001f6b1760201c565b505050505050565b620005da8473ffffffffffffffffffffffffffffffffffffffff16620008af60201b620020311760201c565b15620007a0578373ffffffffffffffffffffffffffffffffffffffff1663f23a6e6187878686866040518663ffffffff1660e01b815260040162000623959493929190620011e8565b6020604051808303816000875af19250505080156200066257506040513d601f19601f820116820180604052508101906200065f9190620012b8565b60015b620007145762000671620012f7565b806308c379a01415620006d557506200068962001352565b80620006965750620006d7565b806040517f08c379a0000000000000000000000000000000000000000000000000000000008152600401620006cc919062001440565b60405180910390fd5b505b6040517f08c379a00000000000000000000000000000000000000000000000000000000081526004016200070b90620014da565b60405180910390fd5b63f23a6e6160e01b7bffffffffffffffffffffffffffffffffffffffffffffffffffffffff1916817bffffffffffffffffffffffffffffffffffffffffffffffffffffffff1916146200079e576040517f08c379a0000000000000000000000000000000000000000000000000000000008152600401620007959062001572565b60405180910390fd5b505b505050505050565b600073ffffffffffffffffffffffffffffffffffffffff168573ffffffffffffffffffffffffffffffffffffffff1614156200080757620007f08484620008d260201b60201c565b6200080183620009a660201b60201c565b6200088c565b600073ffffffffffffffffffffffffffffffffffffffff168473ffffffffffffffffffffffffffffffffffffffff16141562000866576200084f8584620008d260201b60201c565b6200086083620009a660201b60201c565b6200088b565b620008788584620008d260201b60201c565b6200088a8484620008d260201b60201c565b5b5b620008a786868686868662000a3b60201b620020541760201c565b505050505050565b6000808273ffffffffffffffffffffffffffffffffffffffff163b119050919050565b60005b8151811015620009a1576200098b600460008573ffffffffffffffffffffffffffffffffffffffff1673ffffffffffffffffffffffffffffffffffffffff16815260200190815260200160002060008484815181106200093a576200093962001035565b5b602002602001015181526020019081526020016000206200097f858585815181106200096b576200096a62001035565b5b602002602001015162000bdc60201b60201c565b62000ca860201b60201c565b80806200099890620010f6565b915050620008d5565b505050565b60005b815181101562000a375762000a2160056000848481518110620009d157620009d062001035565b5b6020026020010151815260200190815260200160002062000a1584848151811062000a015762000a0062001035565b5b602002602001015162000d3460201b60201c565b62000ca860201b60201c565b808062000a2e90620010f6565b915050620009a9565b5050565b62000a5686868686868662000d5160201b620021ce1760201c565b600073ffffffffffffffffffffffffffffffffffffffff168573ffffffffffffffffffffffffffffffffffffffff16141562000b155760005b835181101562000b135782818151811062000aaf5762000aae62001035565b5b60200260200101516003600086848151811062000ad15762000ad062001035565b5b60200260200101518152602001908152602001600020600082825462000af8919062000f6b565b925050819055508062000b0b90620010f6565b905062000a8f565b505b600073ffffffffffffffffffffffffffffffffffffffff168473ffffffffffffffffffffffffffffffffffffffff16141562000bd45760005b835181101562000bd25782818151811062000b6e5762000b6d62001035565b5b60200260200101516003600086848151811062000b905762000b8f62001035565b5b60200260200101518152602001908152602001600020600082825462000bb7919062001594565b925050819055508062000bca90620010f6565b905062000b4e565b505b505050505050565b60008073ffffffffffffffffffffffffffffffffffffffff168373ffffffffffffffffffffffffffffffffffffffff16141562000c50576040517f08c379a000000000000000000000000000000000000000000000000000000000815260040162000c479062001645565b60405180910390fd5b60008083815260200190815260200160002060008473ffffffffffffffffffffffffffffffffffffffff1673ffffffffffffffffffffffffffffffffffffffff16815260200190815260200160002054905092915050565b600062000cba62000d5960201b60201c565b90508062000cd18460000162000d7760201b60201c565b101562000d2f5782600001819080600181540180825580915050600190039060005260206000200160009091909190915055826001018290806001815401808255809150506001900390600052602060002001600090919091909150555b505050565b600060036000838152602001908152602001600020549050919050565b505050505050565b600062000d72600662000dcb60201b620021d61760201c565b905090565b6000808280549050141562000d90576000905062000dc6565b816001838054905062000da4919062001594565b8154811062000db85762000db762001035565b5b906000526020600020015490505b919050565b600081600001549050919050565b82805462000de79062001696565b90600052602060002090601f01602090048101928262000e0b576000855562000e57565b82601f1062000e2657805160ff191683800117855562000e57565b8280016001018555821562000e57579182015b8281111562000e5657825182559160200191906001019062000e39565b5b50905062000e66919062000e6a565b5090565b5b8082111562000e8557600081600090555060010162000e6b565b5090565b600082825260208201905092915050565b7f455243313135353a206d696e7420746f20746865207a65726f2061646472657360008201527f7300000000000000000000000000000000000000000000000000000000000000602082015250565b600062000ef860218362000e89565b915062000f058262000e9a565b604082019050919050565b6000602082019050818103600083015262000f2b8162000ee9565b9050919050565b6000819050919050565b7f4e487b7100000000000000000000000000000000000000000000000000000000600052601160045260246000fd5b600062000f788262000f32565b915062000f858362000f32565b9250827fffffffffffffffffffffffffffffffffffffffffffffffffffffffffffffffff0382111562000fbd5762000fbc62000f3c565b5b828201905092915050565b62000fd38162000f32565b82525050565b600060408201905062000ff0600083018562000fc8565b62000fff602083018462000fc8565b9392505050565b7f4e487b7100000000000000000000000000000000000000000000000000000000600052604160045260246000fd5b7f4e487b7100000000000000000000000000000000000000000000000000000000600052603260045260246000fd5b600073ffffffffffffffffffffffffffffffffffffffff82169050919050565b6000620010918262001064565b9050919050565b620010a38162001084565b82525050565b6000608082019050620010c0600083018762001098565b620010cf602083018662001098565b620010de604083018562000fc8565b620010ed606083018462000fc8565b95945050505050565b6000620011038262000f32565b91507fffffffffffffffffffffffffffffffffffffffffffffffffffffffffffffffff82141562001139576200113862000f3c565b5b600182019050919050565b600081519050919050565b600082825260208201905092915050565b60005b838110156200118057808201518184015260208101905062001163565b8381111562001190576000848401525b50505050565b6000601f19601f8301169050919050565b6000620011b48262001144565b620011c081856200114f565b9350620011d281856020860162001160565b620011dd8162001196565b840191505092915050565b600060a082019050620011ff600083018862001098565b6200120e602083018762001098565b6200121d604083018662000fc8565b6200122c606083018562000fc8565b8181036080830152620012408184620011a7565b90509695505050505050565b6000604051905090565b600080fd5b60007fffffffff0000000000000000000000000000000000000000000000000000000082169050919050565b62001292816200125b565b81146200129e57600080fd5b50565b600081519050620012b28162001287565b92915050565b600060208284031215620012d157620012d062001256565b5b6000620012e184828501620012a1565b91505092915050565b60008160e01c9050919050565b600060033d1115620013195760046000803e62001316600051620012ea565b90505b90565b620013278262001196565b810181811067ffffffffffffffff8211171562001349576200134862001006565b5b80604052505050565b600060443d10156200136457620013f1565b6200136e6200124c565b60043d036004823e80513d602482011167ffffffffffffffff8211171562001398575050620013f1565b808201805167ffffffffffffffff811115620013b85750505050620013f1565b80602083010160043d038501811115620013d7575050505050620013f1565b620013e8826020018501866200131c565b82955050505050505b90565b600081519050919050565b60006200140c82620013f4565b62001418818562000e89565b93506200142a81856020860162001160565b620014358162001196565b840191505092915050565b600060208201905081810360008301526200145c8184620013ff565b905092915050565b7f455243313135353a207472616e7366657220746f206e6f6e204552433131353560008201527f526563656976657220696d706c656d656e746572000000000000000000000000602082015250565b6000620014c260348362000e89565b9150620014cf8262001464565b604082019050919050565b60006020820190508181036000830152620014f581620014b3565b9050919050565b7f455243313135353a204552433131353552656365697665722072656a6563746560008201527f6420746f6b656e73000000000000000000000000000000000000000000000000602082015250565b60006200155a60288362000e89565b91506200156782620014fc565b604082019050919050565b600060208201905081810360008301526200158d816200154b565b9050919050565b6000620015a18262000f32565b9150620015ae8362000f32565b925082821015620015c457620015c362000f3c565b5b828203905092915050565b7f455243313135353a2062616c616e636520717565727920666f7220746865207a60008201527f65726f2061646472657373000000000000000000000000000000000000000000602082015250565b60006200162d602b8362000e89565b91506200163a82620015cf565b604082019050919050565b6000602082019050818103600083015262001660816200161e565b9050919050565b7f4e487b7100000000000000000000000000000000000000000000000000000000600052602260045260246000fd5b60006002820490506001821680620016af57607f821691505b60208210811415620016c657620016c562001667565b5b50919050565b6158bb80620016dc6000396000f3fe6080604052600436106101cc5760003560e01c80639711715a116100f7578063bd85b03911610095578063e6acd9b811610064578063e6acd9b8146106e9578063e985e9c514610714578063f23a6e6114610751578063f242432a1461078e576101cc565b8063bd85b03914610616578063cceaf62514610653578063d6ca40a714610683578063dfe813eb146106c0576101cc565b8063af670769116100d1578063af6707691461055a578063b875e13a14610585578063ba19a675146105ae578063bc197c81146105d9576101cc565b80639711715a146104db578063a22cb46514610506578063a77d38fa1461052f576101cc565b80634e1273f41161016f5780636d15dd2c1161013e5780636d15dd2c146104365780638388f413146104665780638aa7a8b0146104825780638fbf353f146104bf576101cc565b80634e1273f4146103565780634f558e79146103935780636055c855146103d0578063626da068146103f9576101cc565b80630e89341c116101ab5780630e89341c146102885780632d4a0382146102c55780632eb2c2d614610302578063368680491461032b576101cc565b8062fdd58e146101d157806301ffc9a71461020e578063036c22ad1461024b575b600080fd5b3480156101dd57600080fd5b506101f860048036038101906101f3919061377f565b6107b7565b60405161020591906137ce565b60405180910390f35b34801561021a57600080fd5b5061023560048036038101906102309190613841565b610880565b6040516102429190613889565b60405180910390f35b34801561025757600080fd5b50610272600480360381019061026d91906138a4565b610962565b60405161027f91906137ce565b60405180910390f35b34801561029457600080fd5b506102af60048036038101906102aa91906138a4565b61098b565b6040516102bc919061396a565b60405180910390f35b3480156102d157600080fd5b506102ec60048036038101906102e791906138a4565b610a1f565b6040516102f991906137ce565b60405180910390f35b34801561030e57600080fd5b5061032960048036038101906103249190613b89565b610bf6565b005b34801561033757600080fd5b50610340610c97565b60405161034d9190613c67565b60405180910390f35b34801561036257600080fd5b5061037d60048036038101906103789190613d45565b610cbd565b60405161038a9190613e7b565b60405180910390f35b34801561039f57600080fd5b506103ba60048036038101906103b591906138a4565b610dd6565b6040516103c79190613889565b60405180910390f35b3480156103dc57600080fd5b506103f760048036038101906103f29190613e9d565b610dea565b005b34801561040557600080fd5b50610420600480360381019061041b9190613eca565b610ebe565b60405161042d91906137ce565b60405180910390f35b610450600480360381019061044b919061408c565b610f41565b60405161045d91906137ce565b60405180910390f35b610480600480360381019061047b91906140d5565b611296565b005b34801561048e57600080fd5b506104a960048036038101906104a49190614150565b611412565b6040516104b691906137ce565b60405180910390f35b6104d960048036038101906104d49190614190565b611456565b005b3480156104e757600080fd5b506104f0611660565b6040516104fd91906137ce565b60405180910390f35b34801561051257600080fd5b5061052d6004803603810190610528919061420f565b61166f565b005b34801561053b57600080fd5b50610544611685565b60405161055191906137ce565b60405180910390f35b34801561056657600080fd5b5061056f611694565b60405161057c9190613c67565b60405180910390f35b34801561059157600080fd5b506105ac60048036038101906105a79190613e9d565b6116ba565b005b3480156105ba57600080fd5b506105c361178e565b6040516105d09190613c67565b60405180910390f35b3480156105e557600080fd5b5061060060048036038101906105fb9190614300565b6117b4565b60405161060d91906143eb565b60405180910390f35b34801561062257600080fd5b5061063d600480360381019061063891906138a4565b6117e5565b60405161064a91906137ce565b60405180910390f35b61066d6004803603810190610668919061408c565b611802565b60405161067a91906137ce565b60405180910390f35b34801561068f57600080fd5b506106aa60048036038101906106a591906138a4565b611b57565b6040516106b791906137ce565b60405180910390f35b3480156106cc57600080fd5b506106e760048036038101906106e29190613e9d565b611d2e565b005b3480156106f557600080fd5b506106fe611e02565b60405161070b91906137ce565b60405180910390f35b34801561072057600080fd5b5061073b60048036038101906107369190614406565b611e07565b6040516107489190613889565b60405180910390f35b34801561075d57600080fd5b5061077860048036038101906107739190614446565b611e9b565b60405161078591906143eb565b60405180910390f35b34801561079a57600080fd5b506107b560048036038101906107b091906144e0565b611eca565b005b60008073ffffffffffffffffffffffffffffffffffffffff168373ffffffffffffffffffffffffffffffffffffffff161415610828576040517f08c379a000000000000000000000000000000000000000000000000000000000815260040161081f906145e9565b60405180910390fd5b60008083815260200190815260200160002060008473ffffffffffffffffffffffffffffffffffffffff1673ffffffffffffffffffffffffffffffffffffffff16815260200190815260200160002054905092915050565b60007fd9b67a26000000000000000000000000000000000000000000000000000000007bffffffffffffffffffffffffffffffffffffffffffffffffffffffff1916827bffffffffffffffffffffffffffffffffffffffffffffffffffffffff1916148061094b57507f0e89341c000000000000000000000000000000000000000000000000000000007bffffffffffffffffffffffffffffffffffffffffffffffffffffffff1916827bffffffffffffffffffffffffffffffffffffffffffffffffffffffff1916145b8061095b575061095a826121e4565b5b9050919050565b600080610980610971846117e5565b61097b30866107b7565b61224e565b905080915050919050565b60606002805461099a90614638565b80601f01602080910402602001604051908101604052809291908181526020018280546109c690614638565b8015610a135780601f106109e857610100808354040283529160200191610a13565b820191906000526020600020905b8154815290600101906020018083116109f657829003601f168201915b50505050509050919050565b600080601060008481526020019081526020016000206040518060c001604052908160008201548152602001600182018054610a5a90614638565b80601f0160208091040260200160405190810160405280929190818152602001828054610a8690614638565b8015610ad35780601f10610aa857610100808354040283529160200191610ad3565b820191906000526020600020905b815481529060010190602001808311610ab657829003601f168201915b50505050508152602001600282018054610aec90614638565b80601f0160208091040260200160405190810160405280929190818152602001828054610b1890614638565b8015610b655780601f10610b3a57610100808354040283529160200191610b65565b820191906000526020600020905b815481529060010190602001808311610b4857829003601f168201915b50505050508152602001600382015481526020016004820160009054906101000a900460ff161515151581526020016005820154815250509050806080015115610bb6578060a00151915050610bf1565b6040517f08c379a0000000000000000000000000000000000000000000000000000000008152600401610be8906146b6565b60405180910390fd5b919050565b610bfe612264565b73ffffffffffffffffffffffffffffffffffffffff168573ffffffffffffffffffffffffffffffffffffffff161480610c445750610c4385610c3e612264565b611e07565b5b610c83576040517f08c379a0000000000000000000000000000000000000000000000000000000008152600401610c7a90614748565b60405180910390fd5b610c90858585858561226c565b5050505050565b600a60009054906101000a900473ffffffffffffffffffffffffffffffffffffffff1681565b60608151835114610d03576040517f08c379a0000000000000000000000000000000000000000000000000000000008152600401610cfa906147da565b60405180910390fd5b6000835167ffffffffffffffff811115610d2057610d1f613991565b5b604051908082528060200260200182016040528015610d4e5781602001602082028036833780820191505090505b50905060005b8451811015610dcb57610d9b858281518110610d7357610d726147fa565b5b6020026020010151858381518110610d8e57610d8d6147fa565b5b60200260200101516107b7565b828281518110610dae57610dad6147fa565b5b60200260200101818152505080610dc490614858565b9050610d54565b508091505092915050565b600080610de2836117e5565b119050919050565b600b60009054906101000a900473ffffffffffffffffffffffffffffffffffffffff1673ffffffffffffffffffffffffffffffffffffffff163373ffffffffffffffffffffffffffffffffffffffff1614610e7a576040517f08c379a0000000000000000000000000000000000000000000000000000000008152600401610e7190614913565b60405180910390fd5b80600960006101000a81548173ffffffffffffffffffffffffffffffffffffffff021916908373ffffffffffffffffffffffffffffffffffffffff16021790555050565b6000806000610f1c85600460008973ffffffffffffffffffffffffffffffffffffffff1673ffffffffffffffffffffffffffffffffffffffff1681526020019081526020016000206000878152602001908152602001600020612580565b9150915081610f3457610f2f86856107b7565b610f36565b805b925050509392505050565b600081806040015160028260200151610f5a9190614962565b11610f9a576040517f08c379a0000000000000000000000000000000000000000000000000000000008152600401610f9190614a05565b60405180910390fd5b6000600860009054906101000a900473ffffffffffffffffffffffffffffffffffffffff16905060008173ffffffffffffffffffffffffffffffffffffffff1662fdd58e3385600001516040518363ffffffff1660e01b8152600401611001929190614a25565b602060405180830381865afa15801561101e573d6000803e3d6000fd5b505050506040513d601f19601f820116820180604052508101906110429190614a63565b905060008111611087576040517f08c379a000000000000000000000000000000000000000000000000000000000815260040161107e90614b02565b60405180910390fd5b6000600d60405160200161109b9190614bc1565b60405160208183030381529060405290508086606001516040516020016110c3929190614c50565b60405160208183030381529060405286606001819052505060001515601060008760000151815260200190815260200160002060040160009054906101000a900460ff16151514611149576040517f08c379a000000000000000000000000000000000000000000000000000000000815260040161114090614ce6565b60405180910390fd5b60001515601286606001516040516111619190614d06565b908152602001604051809103902060009054906101000a900460ff161515146111bf576040517f08c379a00000000000000000000000000000000000000000000000000000000081526004016111b690614d8f565b60405180910390fd5b600760008154809291906111d290614858565b9190505550600060075490506111f88682600e60009054906101000a900460ff16612676565b60106000886000015181526020019081526020016000206000820151816000015560208201518160010190805190602001906112359291906135fc565b5060408201518160020190805190602001906112529291906135fc565b506060820151816003015560808201518160040160006101000a81548160ff02191690831515021790555060a0820151816005015590505080945050505050919050565b600960009054906101000a900473ffffffffffffffffffffffffffffffffffffffff1673ffffffffffffffffffffffffffffffffffffffff163373ffffffffffffffffffffffffffffffffffffffff1614611326576040517f08c379a000000000000000000000000000000000000000000000000000000000815260040161131d90614913565b60405180910390fd5b61135430600960009054906101000a900473ffffffffffffffffffffffffffffffffffffffff166001612779565b60008211156113905761138f3086600f6000888152602001908152602001600020600501548560405180602001604052806000815250611eca565b5b60008111156113cc576113cb308660106000888152602001908152602001600020600501548460405180602001604052806000815250611eca565b5b7f95d0edb8d2174cb0f1294749b563fa9ac6c9e441ef6a0202f6e8e52028643dfd8585858585604051611403959493929190614daf565b60405180910390a15050505050565b60008060006114338560056000878152602001908152602001600020612580565b915091508161144a57611445846117e5565b61144c565b805b9250505092915050565b600960009054906101000a900473ffffffffffffffffffffffffffffffffffffffff1673ffffffffffffffffffffffffffffffffffffffff163373ffffffffffffffffffffffffffffffffffffffff16146114e6576040517f08c379a00000000000000000000000000000000000000000000000000000000081526004016114dd90614913565b60405180910390fd5b600115156010600085815260200190815260200160002060040160009054906101000a900460ff1615151480611543575060011515600f600085815260200190815260200160002060040160009054906101000a900460ff161515145b611582576040517f08c379a000000000000000000000000000000000000000000000000000000000815260040161157990614e4e565b60405180910390fd5b81601060008581526020019081526020016000206005015414806115bb575081600f600085815260200190815260200160002060050154145b6115fa576040517f08c379a00000000000000000000000000000000000000000000000000000000081526004016115f190614eba565b60405180910390fd5b61161e308383604051806060016040528060238152602001615863602391396128e6565b7f81e0b881b9c6ff93955a4a996cc01472b2cdc1a1663af072fa5ca7db7f127de2838342846040516116539493929190614eda565b60405180910390a1505050565b600061166a612a7c565b905090565b61168161167a612264565b8383612779565b5050565b600061168f612a7c565b905090565b600960009054906101000a900473ffffffffffffffffffffffffffffffffffffffff1681565b600b60009054906101000a900473ffffffffffffffffffffffffffffffffffffffff1673ffffffffffffffffffffffffffffffffffffffff163373ffffffffffffffffffffffffffffffffffffffff161461174a576040517f08c379a000000000000000000000000000000000000000000000000000000000815260040161174190614913565b60405180910390fd5b80600a60006101000a81548173ffffffffffffffffffffffffffffffffffffffff021916908373ffffffffffffffffffffffffffffffffffffffff16021790555050565b600860009054906101000a900473ffffffffffffffffffffffffffffffffffffffff1681565b60007fbc197c819b3e337a6f9652dd10becd7eef83032af3b9d958d3d42f6694146621905098975050505050505050565b600060036000838152602001908152602001600020549050919050565b60008180604001516002826020015161181b9190614962565b1161185b576040517f08c379a000000000000000000000000000000000000000000000000000000000815260040161185290614a05565b60405180910390fd5b6000600860009054906101000a900473ffffffffffffffffffffffffffffffffffffffff16905060008173ffffffffffffffffffffffffffffffffffffffff1662fdd58e3385600001516040518363ffffffff1660e01b81526004016118c2929190614a25565b602060405180830381865afa1580156118df573d6000803e3d6000fd5b505050506040513d601f19601f820116820180604052508101906119039190614a63565b905060008111611948576040517f08c379a000000000000000000000000000000000000000000000000000000000815260040161193f90614b02565b60405180910390fd5b6000600c60405160200161195c9190614bc1565b6040516020818303038152906040529050808660600151604051602001611984929190614c50565b60405160208183030381529060405286606001819052505060001515600f60008760000151815260200190815260200160002060040160009054906101000a900460ff16151514611a0a576040517f08c379a0000000000000000000000000000000000000000000000000000000008152600401611a0190614ce6565b60405180910390fd5b6000151560118660600151604051611a229190614d06565b908152602001604051809103902060009054906101000a900460ff16151514611a80576040517f08c379a0000000000000000000000000000000000000000000000000000000008152600401611a7790614d8f565b60405180910390fd5b60076000815480929190611a9390614858565b919050555060006007549050611ab98682600e60019054906101000a900460ff16612676565b600f600088600001518152602001908152602001600020600082015181600001556020820151816001019080519060200190611af69291906135fc565b506040820151816002019080519060200190611b139291906135fc565b506060820151816003015560808201518160040160006101000a81548160ff02191690831515021790555060a0820151816005015590505080945050505050919050565b600080600f60008481526020019081526020016000206040518060c001604052908160008201548152602001600182018054611b9290614638565b80601f0160208091040260200160405190810160405280929190818152602001828054611bbe90614638565b8015611c0b5780601f10611be057610100808354040283529160200191611c0b565b820191906000526020600020905b815481529060010190602001808311611bee57829003601f168201915b50505050508152602001600282018054611c2490614638565b80601f0160208091040260200160405190810160405280929190818152602001828054611c5090614638565b8015611c9d5780601f10611c7257610100808354040283529160200191611c9d565b820191906000526020600020905b815481529060010190602001808311611c8057829003601f168201915b50505050508152602001600382015481526020016004820160009054906101000a900460ff161515151581526020016005820154815250509050806080015115611cee578060a00151915050611d29565b6040517f08c379a0000000000000000000000000000000000000000000000000000000008152600401611d20906146b6565b60405180910390fd5b919050565b600b60009054906101000a900473ffffffffffffffffffffffffffffffffffffffff1673ffffffffffffffffffffffffffffffffffffffff163373ffffffffffffffffffffffffffffffffffffffff1614611dbe576040517f08c379a0000000000000000000000000000000000000000000000000000000008152600401611db590614913565b60405180910390fd5b80600860006101000a81548173ffffffffffffffffffffffffffffffffffffffff021916908373ffffffffffffffffffffffffffffffffffffffff16021790555050565b600181565b6000600160008473ffffffffffffffffffffffffffffffffffffffff1673ffffffffffffffffffffffffffffffffffffffff16815260200190815260200160002060008373ffffffffffffffffffffffffffffffffffffffff1673ffffffffffffffffffffffffffffffffffffffff16815260200190815260200160002060009054906101000a900460ff16905092915050565b60007ff23a6e612e1ff4830e658fe43f4e3cb4a5f8170bd5d9e69fb5d7a7fa9e4fdf9790509695505050505050565b611ed2612264565b73ffffffffffffffffffffffffffffffffffffffff168573ffffffffffffffffffffffffffffffffffffffff161480611f185750611f1785611f12612264565b611e07565b5b611f57576040517f08c379a0000000000000000000000000000000000000000000000000000000008152600401611f4e90614f91565b60405180910390fd5b611f648585858585612ad2565b5050505050565b600073ffffffffffffffffffffffffffffffffffffffff168573ffffffffffffffffffffffffffffffffffffffff161415611fb857611faa8484612d54565b611fb383612e0e565b61201b565b600073ffffffffffffffffffffffffffffffffffffffff168473ffffffffffffffffffffffffffffffffffffffff16141561200557611ff78584612d54565b61200083612e0e565b61201a565b61200f8584612d54565b6120198484612d54565b5b5b612029868686868686612054565b505050505050565b6000808273ffffffffffffffffffffffffffffffffffffffff163b119050919050565b6120628686868686866121ce565b600073ffffffffffffffffffffffffffffffffffffffff168573ffffffffffffffffffffffffffffffffffffffff1614156121145760005b8351811015612112578281815181106120b6576120b56147fa565b5b6020026020010151600360008684815181106120d5576120d46147fa565b5b6020026020010151815260200190815260200160002060008282546120fa9190614fb1565b925050819055508061210b90614858565b905061209a565b505b600073ffffffffffffffffffffffffffffffffffffffff168473ffffffffffffffffffffffffffffffffffffffff1614156121c65760005b83518110156121c457828181518110612168576121676147fa565b5b602002602001015160036000868481518110612187576121866147fa565b5b6020026020010151815260200190815260200160002060008282546121ac9190615007565b92505081905550806121bd90614858565b905061214c565b505b505050505050565b505050505050565b600081600001549050919050565b60007f01ffc9a7000000000000000000000000000000000000000000000000000000007bffffffffffffffffffffffffffffffffffffffffffffffffffffffff1916827bffffffffffffffffffffffffffffffffffffffffffffffffffffffff1916149050919050565b6000818361225c9190615007565b905092915050565b600033905090565b81518351146122b0576040517f08c379a00000000000000000000000000000000000000000000000000000000081526004016122a7906150ad565b60405180910390fd5b600073ffffffffffffffffffffffffffffffffffffffff168473ffffffffffffffffffffffffffffffffffffffff161415612320576040517f08c379a00000000000000000000000000000000000000000000000000000000081526004016123179061513f565b60405180910390fd5b600061232a612264565b905061233a818787878787612e89565b60005b84518110156124eb57600085828151811061235b5761235a6147fa565b5b60200260200101519050600085838151811061237a576123796147fa565b5b60200260200101519050600080600084815260200190815260200160002060008b73ffffffffffffffffffffffffffffffffffffffff1673ffffffffffffffffffffffffffffffffffffffff1681526020019081526020016000205490508181101561241b576040517f08c379a0000000000000000000000000000000000000000000000000000000008152600401612412906151d1565b60405180910390fd5b81810360008085815260200190815260200160002060008c73ffffffffffffffffffffffffffffffffffffffff1673ffffffffffffffffffffffffffffffffffffffff168152602001908152602001600020819055508160008085815260200190815260200160002060008b73ffffffffffffffffffffffffffffffffffffffff1673ffffffffffffffffffffffffffffffffffffffff16815260200190815260200160002060008282546124d09190614fb1565b92505081905550505050806124e490614858565b905061233d565b508473ffffffffffffffffffffffffffffffffffffffff168673ffffffffffffffffffffffffffffffffffffffff168273ffffffffffffffffffffffffffffffffffffffff167f4a39dc06d4c0dbc64b70af90fd698a233a518aa5d07e595d983b8c0526c8f7fb87876040516125629291906151f1565b60405180910390a4612578818787878787612fe3565b505050505050565b600080600084116125c6576040517f08c379a00000000000000000000000000000000000000000000000000000000081526004016125bd90615274565b60405180910390fd5b6125ce6131bb565b841115612610576040517f08c379a0000000000000000000000000000000000000000000000000000000008152600401612607906152e0565b60405180910390fd5b600061262885856000016131cc90919063ffffffff16565b9050836000018054905081141561264657600080925092505061266f565b600184600101828154811061265e5761265d6147fa565b5b906000526020600020015492509250505b9250929050565b61267e613682565b6000846040015185602001516126949190615007565b90506000856040015190506126ba308684604051806020016040528060008152506128e6565b6126d5338683604051806020016040528060008152506128e6565b60006040518060c001604052808860000151815260200188606001518152602001886080015181526020014281526020016001151581526020018781525090507f49debfc18817e7e3ec2948391bcc3a87349b3c716f7d470d223bfbf8928aa65a87600001518860600151896080015184606001518b602001518b8b604051612764979695949392919061531c565b60405180910390a18093505050509392505050565b8173ffffffffffffffffffffffffffffffffffffffff168373ffffffffffffffffffffffffffffffffffffffff1614156127e8576040517f08c379a00000000000000000000000000000000000000000000000000000000081526004016127df9061540b565b60405180910390fd5b80600160008573ffffffffffffffffffffffffffffffffffffffff1673ffffffffffffffffffffffffffffffffffffffff16815260200190815260200160002060008473ffffffffffffffffffffffffffffffffffffffff1673ffffffffffffffffffffffffffffffffffffffff16815260200190815260200160002060006101000a81548160ff0219169083151502179055508173ffffffffffffffffffffffffffffffffffffffff168373ffffffffffffffffffffffffffffffffffffffff167f17307eab39ab6107e8899845ad3d59bd9653f200f220920489ca2b5937696c31836040516128d99190613889565b60405180910390a3505050565b600073ffffffffffffffffffffffffffffffffffffffff168473ffffffffffffffffffffffffffffffffffffffff161415612956576040517f08c379a000000000000000000000000000000000000000000000000000000000815260040161294d9061549d565b60405180910390fd5b6000612960612264565b905061298181600087612972886132a6565b61297b886132a6565b87612e89565b8260008086815260200190815260200160002060008773ffffffffffffffffffffffffffffffffffffffff1673ffffffffffffffffffffffffffffffffffffffff16815260200190815260200160002060008282546129e09190614fb1565b925050819055508473ffffffffffffffffffffffffffffffffffffffff16600073ffffffffffffffffffffffffffffffffffffffff168273ffffffffffffffffffffffffffffffffffffffff167fc3d58168c5ae7397731d063d5bbf3d657854427343f4c083240f7aacaa2d0f628787604051612a5e9291906154bd565b60405180910390a4612a7581600087878787613320565b5050505050565b6000612a8860066134f8565b6000612a926131bb565b90507f8030e83b04d87bef53480e26263266d6ca66863aa8506aca6f2559d18aa1cb6781604051612ac391906137ce565b60405180910390a18091505090565b600073ffffffffffffffffffffffffffffffffffffffff168473ffffffffffffffffffffffffffffffffffffffff161415612b42576040517f08c379a0000000000000000000000000000000000000000000000000000000008152600401612b399061513f565b60405180910390fd5b6000612b4c612264565b9050612b6c818787612b5d886132a6565b612b66886132a6565b87612e89565b600080600086815260200190815260200160002060008873ffffffffffffffffffffffffffffffffffffffff1673ffffffffffffffffffffffffffffffffffffffff16815260200190815260200160002054905083811015612c03576040517f08c379a0000000000000000000000000000000000000000000000000000000008152600401612bfa906151d1565b60405180910390fd5b83810360008087815260200190815260200160002060008973ffffffffffffffffffffffffffffffffffffffff1673ffffffffffffffffffffffffffffffffffffffff168152602001908152602001600020819055508360008087815260200190815260200160002060008873ffffffffffffffffffffffffffffffffffffffff1673ffffffffffffffffffffffffffffffffffffffff1681526020019081526020016000206000828254612cb89190614fb1565b925050819055508573ffffffffffffffffffffffffffffffffffffffff168773ffffffffffffffffffffffffffffffffffffffff168373ffffffffffffffffffffffffffffffffffffffff167fc3d58168c5ae7397731d063d5bbf3d657854427343f4c083240f7aacaa2d0f628888604051612d359291906154bd565b60405180910390a4612d4b828888888888613320565b50505050505050565b60005b8151811015612e0957612df6600460008573ffffffffffffffffffffffffffffffffffffffff1673ffffffffffffffffffffffffffffffffffffffff1681526020019081526020016000206000848481518110612db757612db66147fa565b5b60200260200101518152602001908152602001600020612df185858581518110612de457612de36147fa565b5b60200260200101516107b7565b61350e565b8080612e0190614858565b915050612d57565b505050565b60005b8151811015612e8557612e7260056000848481518110612e3457612e336147fa565b5b60200260200101518152602001908152602001600020612e6d848481518110612e6057612e5f6147fa565b5b60200260200101516117e5565b61350e565b8080612e7d90614858565b915050612e11565b5050565b600073ffffffffffffffffffffffffffffffffffffffff16600a60009054906101000a900473ffffffffffffffffffffffffffffffffffffffff1673ffffffffffffffffffffffffffffffffffffffff1614612fcd576000600a60009054906101000a900473ffffffffffffffffffffffffffffffffffffffff16905060005b8451811015612fca578173ffffffffffffffffffffffffffffffffffffffff16631de841ba8888878581518110612f4357612f426147fa565b5b6020026020010151898681518110612f5e57612f5d6147fa565b5b60200260200101516040518563ffffffff1660e01b8152600401612f8594939291906154e6565b600060405180830381600087803b158015612f9f57600080fd5b505af1158015612fb3573d6000803e3d6000fd5b505050508080612fc290614858565b915050612f09565b50505b612fdb868686868686611f6b565b505050505050565b6130028473ffffffffffffffffffffffffffffffffffffffff16612031565b156131b3578373ffffffffffffffffffffffffffffffffffffffff1663bc197c8187878686866040518663ffffffff1660e01b8152600401613048959493929190615575565b6020604051808303816000875af192505050801561308457506040513d601f19601f8201168201806040525081019061308191906155f2565b60015b61312a5761309061562c565b806308c379a014156130ed57506130a561564e565b806130b057506130ef565b806040517f08c379a00000000000000000000000000000000000000000000000000000000081526004016130e4919061396a565b60405180910390fd5b505b6040517f08c379a000000000000000000000000000000000000000000000000000000000815260040161312190615756565b60405180910390fd5b63bc197c8160e01b7bffffffffffffffffffffffffffffffffffffffffffffffffffffffff1916817bffffffffffffffffffffffffffffffffffffffffffffffffffffffff1916146131b1576040517f08c379a00000000000000000000000000000000000000000000000000000000081526004016131a8906157e8565b60405180910390fd5b505b505050505050565b60006131c760066121d6565b905090565b600080838054905014156131e357600090506132a0565b600080848054905090505b808210156132475760006132028383613589565b905084868281548110613218576132176147fa565b5b9060005260206000200154111561323157809150613241565b60018161323e9190614fb1565b92505b506131ee565b60008211801561327f575083856001846132619190615007565b81548110613272576132716147fa565b5b9060005260206000200154145b1561329a576001826132919190615007565b925050506132a0565b81925050505b92915050565b60606000600167ffffffffffffffff8111156132c5576132c4613991565b5b6040519080825280602002602001820160405280156132f35781602001602082028036833780820191505090505b509050828160008151811061330b5761330a6147fa565b5b60200260200101818152505080915050919050565b61333f8473ffffffffffffffffffffffffffffffffffffffff16612031565b156134f0578373ffffffffffffffffffffffffffffffffffffffff1663f23a6e6187878686866040518663ffffffff1660e01b8152600401613385959493929190615808565b6020604051808303816000875af19250505080156133c157506040513d601f19601f820116820180604052508101906133be91906155f2565b60015b613467576133cd61562c565b806308c379a0141561342a57506133e261564e565b806133ed575061342c565b806040517f08c379a0000000000000000000000000000000000000000000000000000000008152600401613421919061396a565b60405180910390fd5b505b6040517f08c379a000000000000000000000000000000000000000000000000000000000815260040161345e90615756565b60405180910390fd5b63f23a6e6160e01b7bffffffffffffffffffffffffffffffffffffffffffffffffffffffff1916817bffffffffffffffffffffffffffffffffffffffffffffffffffffffff1916146134ee576040517f08c379a00000000000000000000000000000000000000000000000000000000081526004016134e5906157e8565b60405180910390fd5b505b505050505050565b6001816000016000828254019250508190555050565b60006135186131bb565b905080613527846000016135af565b10156135845782600001819080600181540180825580915050600190039060005260206000200160009091909190915055826001018290806001815401808255809150506001900390600052602060002001600090919091909150555b505050565b6000600282841861359a9190614962565b8284166135a79190614fb1565b905092915050565b600080828054905014156135c657600090506135f7565b81600183805490506135d89190615007565b815481106135e9576135e86147fa565b5b906000526020600020015490505b919050565b82805461360890614638565b90600052602060002090601f01602090048101928261362a5760008555613671565b82601f1061364357805160ff1916838001178555613671565b82800160010185558215613671579182015b82811115613670578251825591602001919060010190613655565b5b50905061367e91906136ba565b5090565b6040518060c0016040528060008152602001606081526020016060815260200160008152602001600015158152602001600081525090565b5b808211156136d35760008160009055506001016136bb565b5090565b6000604051905090565b600080fd5b600080fd5b600073ffffffffffffffffffffffffffffffffffffffff82169050919050565b6000613716826136eb565b9050919050565b6137268161370b565b811461373157600080fd5b50565b6000813590506137438161371d565b92915050565b6000819050919050565b61375c81613749565b811461376757600080fd5b50565b60008135905061377981613753565b92915050565b60008060408385031215613796576137956136e1565b5b60006137a485828601613734565b92505060206137b58582860161376a565b9150509250929050565b6137c881613749565b82525050565b60006020820190506137e360008301846137bf565b92915050565b60007fffffffff0000000000000000000000000000000000000000000000000000000082169050919050565b61381e816137e9565b811461382957600080fd5b50565b60008135905061383b81613815565b92915050565b600060208284031215613857576138566136e1565b5b60006138658482850161382c565b91505092915050565b60008115159050919050565b6138838161386e565b82525050565b600060208201905061389e600083018461387a565b92915050565b6000602082840312156138ba576138b96136e1565b5b60006138c88482850161376a565b91505092915050565b600081519050919050565b600082825260208201905092915050565b60005b8381101561390b5780820151818401526020810190506138f0565b8381111561391a576000848401525b50505050565b6000601f19601f8301169050919050565b600061393c826138d1565b61394681856138dc565b93506139568185602086016138ed565b61395f81613920565b840191505092915050565b600060208201905081810360008301526139848184613931565b905092915050565b600080fd5b7f4e487b7100000000000000000000000000000000000000000000000000000000600052604160045260246000fd5b6139c982613920565b810181811067ffffffffffffffff821117156139e8576139e7613991565b5b80604052505050565b60006139fb6136d7565b9050613a0782826139c0565b919050565b600067ffffffffffffffff821115613a2757613a26613991565b5b602082029050602081019050919050565b600080fd5b6000613a50613a4b84613a0c565b6139f1565b90508083825260208201905060208402830185811115613a7357613a72613a38565b5b835b81811015613a9c5780613a88888261376a565b845260208401935050602081019050613a75565b5050509392505050565b600082601f830112613abb57613aba61398c565b5b8135613acb848260208601613a3d565b91505092915050565b600080fd5b600067ffffffffffffffff821115613af457613af3613991565b5b613afd82613920565b9050602081019050919050565b82818337600083830152505050565b6000613b2c613b2784613ad9565b6139f1565b905082815260208101848484011115613b4857613b47613ad4565b5b613b53848285613b0a565b509392505050565b600082601f830112613b7057613b6f61398c565b5b8135613b80848260208601613b19565b91505092915050565b600080600080600060a08688031215613ba557613ba46136e1565b5b6000613bb388828901613734565b9550506020613bc488828901613734565b945050604086013567ffffffffffffffff811115613be557613be46136e6565b5b613bf188828901613aa6565b935050606086013567ffffffffffffffff811115613c1257613c116136e6565b5b613c1e88828901613aa6565b925050608086013567ffffffffffffffff811115613c3f57613c3e6136e6565b5b613c4b88828901613b5b565b9150509295509295909350565b613c618161370b565b82525050565b6000602082019050613c7c6000830184613c58565b92915050565b600067ffffffffffffffff821115613c9d57613c9c613991565b5b602082029050602081019050919050565b6000613cc1613cbc84613c82565b6139f1565b90508083825260208201905060208402830185811115613ce457613ce3613a38565b5b835b81811015613d0d5780613cf98882613734565b845260208401935050602081019050613ce6565b5050509392505050565b600082601f830112613d2c57613d2b61398c565b5b8135613d3c848260208601613cae565b91505092915050565b60008060408385031215613d5c57613d5b6136e1565b5b600083013567ffffffffffffffff811115613d7a57613d796136e6565b5b613d8685828601613d17565b925050602083013567ffffffffffffffff811115613da757613da66136e6565b5b613db385828601613aa6565b9150509250929050565b600081519050919050565b600082825260208201905092915050565b6000819050602082019050919050565b613df281613749565b82525050565b6000613e048383613de9565b60208301905092915050565b6000602082019050919050565b6000613e2882613dbd565b613e328185613dc8565b9350613e3d83613dd9565b8060005b83811015613e6e578151613e558882613df8565b9750613e6083613e10565b925050600181019050613e41565b5085935050505092915050565b60006020820190508181036000830152613e958184613e1d565b905092915050565b600060208284031215613eb357613eb26136e1565b5b6000613ec184828501613734565b91505092915050565b600080600060608486031215613ee357613ee26136e1565b5b6000613ef186828701613734565b9350506020613f028682870161376a565b9250506040613f138682870161376a565b9150509250925092565b600080fd5b600080fd5b600067ffffffffffffffff821115613f4257613f41613991565b5b613f4b82613920565b9050602081019050919050565b6000613f6b613f6684613f27565b6139f1565b905082815260208101848484011115613f8757613f86613ad4565b5b613f92848285613b0a565b509392505050565b600082601f830112613faf57613fae61398c565b5b8135613fbf848260208601613f58565b91505092915050565b600060a08284031215613fde57613fdd613f1d565b5b613fe860a06139f1565b90506000613ff88482850161376a565b600083015250602061400c8482850161376a565b60208301525060406140208482850161376a565b604083015250606082013567ffffffffffffffff81111561404457614043613f22565b5b61405084828501613f9a565b606083015250608082013567ffffffffffffffff81111561407457614073613f22565b5b61408084828501613f9a565b60808301525092915050565b6000602082840312156140a2576140a16136e1565b5b600082013567ffffffffffffffff8111156140c0576140bf6136e6565b5b6140cc84828501613fc8565b91505092915050565b600080600080600060a086880312156140f1576140f06136e1565b5b60006140ff88828901613734565b95505060206141108882890161376a565b94505060406141218882890161376a565b93505060606141328882890161376a565b92505060806141438882890161376a565b9150509295509295909350565b60008060408385031215614167576141666136e1565b5b60006141758582860161376a565b92505060206141868582860161376a565b9150509250929050565b6000806000606084860312156141a9576141a86136e1565b5b60006141b78682870161376a565b93505060206141c88682870161376a565b92505060406141d98682870161376a565b9150509250925092565b6141ec8161386e565b81146141f757600080fd5b50565b600081359050614209816141e3565b92915050565b60008060408385031215614226576142256136e1565b5b600061423485828601613734565b9250506020614245858286016141fa565b9150509250929050565b600080fd5b60008083601f84011261426a5761426961398c565b5b8235905067ffffffffffffffff8111156142875761428661424f565b5b6020830191508360208202830111156142a3576142a2613a38565b5b9250929050565b60008083601f8401126142c0576142bf61398c565b5b8235905067ffffffffffffffff8111156142dd576142dc61424f565b5b6020830191508360018202830111156142f9576142f8613a38565b5b9250929050565b60008060008060008060008060a0898b0312156143205761431f6136e1565b5b600061432e8b828c01613734565b985050602061433f8b828c01613734565b975050604089013567ffffffffffffffff8111156143605761435f6136e6565b5b61436c8b828c01614254565b9650965050606089013567ffffffffffffffff81111561438f5761438e6136e6565b5b61439b8b828c01614254565b9450945050608089013567ffffffffffffffff8111156143be576143bd6136e6565b5b6143ca8b828c016142aa565b92509250509295985092959890939650565b6143e5816137e9565b82525050565b600060208201905061440060008301846143dc565b92915050565b6000806040838503121561441d5761441c6136e1565b5b600061442b85828601613734565b925050602061443c85828601613734565b9150509250929050565b60008060008060008060a08789031215614463576144626136e1565b5b600061447189828a01613734565b965050602061448289828a01613734565b955050604061449389828a0161376a565b94505060606144a489828a0161376a565b935050608087013567ffffffffffffffff8111156144c5576144c46136e6565b5b6144d189828a016142aa565b92509250509295509295509295565b600080600080600060a086880312156144fc576144fb6136e1565b5b600061450a88828901613734565b955050602061451b88828901613734565b945050604061452c8882890161376a565b935050606061453d8882890161376a565b925050608086013567ffffffffffffffff81111561455e5761455d6136e6565b5b61456a88828901613b5b565b9150509295509295909350565b7f455243313135353a2062616c616e636520717565727920666f7220746865207a60008201527f65726f2061646472657373000000000000000000000000000000000000000000602082015250565b60006145d3602b836138dc565b91506145de82614577565b604082019050919050565b60006020820190508181036000830152614602816145c6565b9050919050565b7f4e487b7100000000000000000000000000000000000000000000000000000000600052602260045260246000fd5b6000600282049050600182168061465057607f821691505b6020821081141561466457614663614609565b5b50919050565b7f496e76616c6964207265636f7264206964000000000000000000000000000000600082015250565b60006146a06011836138dc565b91506146ab8261466a565b602082019050919050565b600060208201905081810360008301526146cf81614693565b9050919050565b7f455243313135353a207472616e736665722063616c6c6572206973206e6f742060008201527f6f776e6572206e6f7220617070726f7665640000000000000000000000000000602082015250565b60006147326032836138dc565b915061473d826146d6565b604082019050919050565b6000602082019050818103600083015261476181614725565b9050919050565b7f455243313135353a206163636f756e747320616e6420696473206c656e67746860008201527f206d69736d617463680000000000000000000000000000000000000000000000602082015250565b60006147c46029836138dc565b91506147cf82614768565b604082019050919050565b600060208201905081810360008301526147f3816147b7565b9050919050565b7f4e487b7100000000000000000000000000000000000000000000000000000000600052603260045260246000fd5b7f4e487b7100000000000000000000000000000000000000000000000000000000600052601160045260246000fd5b600061486382613749565b91507fffffffffffffffffffffffffffffffffffffffffffffffffffffffffffffffff82141561489657614895614829565b5b600182019050919050565b7f596f7520617265206e6f7420617574686f72697a656420666f7220746869732060008201527f616374696f6e0000000000000000000000000000000000000000000000000000602082015250565b60006148fd6026836138dc565b9150614908826148a1565b604082019050919050565b6000602082019050818103600083015261492c816148f0565b9050919050565b7f4e487b7100000000000000000000000000000000000000000000000000000000600052601260045260246000fd5b600061496d82613749565b915061497883613749565b92508261498857614987614933565b5b828204905092915050565b7f54726561737572792073686f756c642068617665206174206c6561737420353060008201527f25206f662074686520746f74616c20737570706c790000000000000000000000602082015250565b60006149ef6035836138dc565b91506149fa82614993565b604082019050919050565b60006020820190508181036000830152614a1e816149e2565b9050919050565b6000604082019050614a3a6000830185613c58565b614a4760208301846137bf565b9392505050565b600081519050614a5d81613753565b92915050565b600060208284031215614a7957614a786136e1565b5b6000614a8784828501614a4e565b91505092915050565b7f596f7520617265206e6f7420746865206f776e6572206f66207468652072656360008201527f6f72640000000000000000000000000000000000000000000000000000000000602082015250565b6000614aec6023836138dc565b9150614af782614a90565b604082019050919050565b60006020820190508181036000830152614b1b81614adf565b9050919050565b600081905092915050565b60008190508160005260206000209050919050565b60008154614b4f81614638565b614b598186614b22565b94506001821660008114614b745760018114614b8557614bb8565b60ff19831686528186019350614bb8565b614b8e85614b2d565b60005b83811015614bb057815481890152600182019150602081019050614b91565b838801955050505b50505092915050565b6000614bcd8284614b42565b915081905092915050565b600081519050919050565b600081905092915050565b6000614bf982614bd8565b614c038185614be3565b9350614c138185602086016138ed565b80840191505092915050565b6000614c2a826138d1565b614c348185614b22565b9350614c448185602086016138ed565b80840191505092915050565b6000614c5c8285614bee565b9150614c688284614c1f565b91508190509392505050565b7f476f7665726e616e636520746f6b656e20666f72207468697320696420616c7260008201527f656164792070726573656e740000000000000000000000000000000000000000602082015250565b6000614cd0602c836138dc565b9150614cdb82614c74565b604082019050919050565b60006020820190508181036000830152614cff81614cc3565b9050919050565b6000614d128284614c1f565b915081905092915050565b7f476f7665726e616e636520746f6b656e207769746820746869732053594d424f60008201527f4c20616c72656164792070726573656e74000000000000000000000000000000602082015250565b6000614d796031836138dc565b9150614d8482614d1d565b604082019050919050565b60006020820190508181036000830152614da881614d6c565b9050919050565b600060a082019050614dc46000830188613c58565b614dd160208301876137bf565b614dde60408301866137bf565b614deb60608301856137bf565b614df860808301846137bf565b9695505050505050565b7f496e76616c6964207265636f7264200000000000000000000000000000000000600082015250565b6000614e38600f836138dc565b9150614e4382614e02565b602082019050919050565b60006020820190508181036000830152614e6781614e2b565b9050919050565b7f496e76616c696420746f6b656e73000000000000000000000000000000000000600082015250565b6000614ea4600e836138dc565b9150614eaf82614e6e565b602082019050919050565b60006020820190508181036000830152614ed381614e97565b9050919050565b6000608082019050614eef60008301876137bf565b614efc60208301866137bf565b614f0960408301856137bf565b614f1660608301846137bf565b95945050505050565b7f455243313135353a2063616c6c6572206973206e6f74206f776e6572206e6f7260008201527f20617070726f7665640000000000000000000000000000000000000000000000602082015250565b6000614f7b6029836138dc565b9150614f8682614f1f565b604082019050919050565b60006020820190508181036000830152614faa81614f6e565b9050919050565b6000614fbc82613749565b9150614fc783613749565b9250827fffffffffffffffffffffffffffffffffffffffffffffffffffffffffffffffff03821115614ffc57614ffb614829565b5b828201905092915050565b600061501282613749565b915061501d83613749565b9250828210156150305761502f614829565b5b828203905092915050565b7f455243313135353a2069647320616e6420616d6f756e7473206c656e6774682060008201527f6d69736d61746368000000000000000000000000000000000000000000000000602082015250565b60006150976028836138dc565b91506150a28261503b565b604082019050919050565b600060208201905081810360008301526150c68161508a565b9050919050565b7f455243313135353a207472616e7366657220746f20746865207a65726f20616460008201527f6472657373000000000000000000000000000000000000000000000000000000602082015250565b60006151296025836138dc565b9150615134826150cd565b604082019050919050565b600060208201905081810360008301526151588161511c565b9050919050565b7f455243313135353a20696e73756666696369656e742062616c616e636520666f60008201527f72207472616e7366657200000000000000000000000000000000000000000000602082015250565b60006151bb602a836138dc565b91506151c68261515f565b604082019050919050565b600060208201905081810360008301526151ea816151ae565b9050919050565b6000604082019050818103600083015261520b8185613e1d565b9050818103602083015261521f8184613e1d565b90509392505050565b7f4552433230536e617073686f743a206964206973203000000000000000000000600082015250565b600061525e6016836138dc565b915061526982615228565b602082019050919050565b6000602082019050818103600083015261528d81615251565b9050919050565b7f4552433230536e617073686f743a206e6f6e6578697374656e74206964000000600082015250565b60006152ca601d836138dc565b91506152d582615294565b602082019050919050565b600060208201905081810360008301526152f9816152bd565b9050919050565b600060ff82169050919050565b61531681615300565b82525050565b600060e082019050615331600083018a6137bf565b81810360208301526153438189613931565b905081810360408301526153578188613931565b905061536660608301876137bf565b61537360808301866137bf565b61538060a08301856137bf565b61538d60c083018461530d565b98975050505050505050565b7f455243313135353a2073657474696e6720617070726f76616c2073746174757360008201527f20666f722073656c660000000000000000000000000000000000000000000000602082015250565b60006153f56029836138dc565b915061540082615399565b604082019050919050565b60006020820190508181036000830152615424816153e8565b9050919050565b7f455243313135353a206d696e7420746f20746865207a65726f2061646472657360008201527f7300000000000000000000000000000000000000000000000000000000000000602082015250565b60006154876021836138dc565b91506154928261542b565b604082019050919050565b600060208201905081810360008301526154b68161547a565b9050919050565b60006040820190506154d260008301856137bf565b6154df60208301846137bf565b9392505050565b60006080820190506154fb6000830187613c58565b6155086020830186613c58565b61551560408301856137bf565b61552260608301846137bf565b95945050505050565b600082825260208201905092915050565b600061554782614bd8565b615551818561552b565b93506155618185602086016138ed565b61556a81613920565b840191505092915050565b600060a08201905061558a6000830188613c58565b6155976020830187613c58565b81810360408301526155a98186613e1d565b905081810360608301526155bd8185613e1d565b905081810360808301526155d1818461553c565b90509695505050505050565b6000815190506155ec81613815565b92915050565b600060208284031215615608576156076136e1565b5b6000615616848285016155dd565b91505092915050565b60008160e01c9050919050565b600060033d111561564b5760046000803e61564860005161561f565b90505b90565b600060443d101561565e576156e1565b6156666136d7565b60043d036004823e80513d602482011167ffffffffffffffff8211171561568e5750506156e1565b808201805167ffffffffffffffff8111156156ac57505050506156e1565b80602083010160043d0385018111156156c95750505050506156e1565b6156d8826020018501866139c0565b82955050505050505b90565b7f455243313135353a207472616e7366657220746f206e6f6e204552433131353560008201527f526563656976657220696d706c656d656e746572000000000000000000000000602082015250565b60006157406034836138dc565b915061574b826156e4565b604082019050919050565b6000602082019050818103600083015261576f81615733565b9050919050565b7f455243313135353a204552433131353552656365697665722072656a6563746560008201527f6420746f6b656e73000000000000000000000000000000000000000000000000602082015250565b60006157d26028836138dc565b91506157dd82615776565b604082019050919050565b60006020820190508181036000830152615801816157c5565b9050919050565b600060a08201905061581d6000830188613c58565b61582a6020830187613c58565b61583760408301866137bf565b61584460608301856137bf565b8181036080830152615856818461553c565b9050969550505050505056fe546f6b656e206d696e746564207468726f75676820766f74696e672070726f63657373a26469706673582212202d43aa8c1d7d47598af0c86b87d7e731a1748dc76288ca8ce2a549bb29466ea464736f6c634300080c0033",
  "immutableReferences": {},
  "source": "pragma solidity ^0.8.0;\n\nimport \"@openzeppelin/contracts/token/ERC1155/ERC1155.sol\";\nimport \"@openzeppelin/contracts/token/ERC1155/IERC1155Receiver.sol\";\nimport \"@openzeppelin/contracts/token/ERC1155/extensions/ERC1155Supply.sol\";\nimport \"@openzeppelin/contracts/utils/Counters.sol\";\nimport \"@openzeppelin/contracts/access/Ownable.sol\";\nimport \"./RecordsContract.sol\";\nimport \"./ERC1155/SnapshotERC1155.sol\";\nimport \"@openzeppelin/contracts/utils/math/SafeMath.sol\";\n\nimport \"./voting/VotingHubContract.sol\";\n\n// ERC 20 balance[adress] => 2 contracts // governance and comunity\n// ERC 721 blance[adress] => 1 contract // records\n// ERC 1155\n\ncontract TreasuryContract is IERC1155Receiver, SnapshotERC1155 {\n    uint256 public constant CRD = 1;\n    uint256 private LastTokenId = 1;\n    address public RECORDS_CONTRACT_ADDRESS;\n    address public CONTRIBUTION_VOTING_CONTRACT_ADDRESS;\n    address public VOTING_HUB_ADDRESS;\n    address OWNER;\n    string private PREFIX_GOVERNANCE = \"CRDG_\";\n    string private PREFIX_COMMUNITY = \"CRD_\";\n    uint8 private TOKEN_TYPE_COMMUNITY = 0;\n    uint8 private TOKEN_TYPE_GOVERNANCE = 1;\n\n    struct Token {\n        uint256 recordId;\n        string symbol;\n        string image;\n        uint256 creationDate;\n        bool isPresent;\n        uint256 tokenId;\n    }\n\n    struct NewTokenData {\n        uint256 recordId;\n        uint256 totalSupply;\n        uint256 userBalance;\n        string symbol;\n        string image;\n    }\n\n    /**\n        @dev this is event which is created when a token transfer takes place\n        @param from This is the address of sender \n        @param to This is the address of reciver \n        @param transferDate This is the date of the transfer\n        @param tokenId This is the id of the token that is being transfered \n        @param amount This is the amount of token transfered \n        @param symbol This is the symbol of the token that were transfered\n     */\n    event TokenTransfer(\n        address from,\n        address to,\n        uint256 transferDate,\n        uint256 tokenId,\n        uint256 amount,\n        string symbol\n    );\n\n    /**\n        @dev this is event which is created when new governance token is created (NEW CREATION Not MINITING)\n        @param recordId This is the record Id to which this token belongs to \n        @param symbol This is the symbol of the governance token\n        @param image This is the image of the token \n        @param creationDate This is the creation date of the token \n        @param tokenAmount This is the amount of token that are created \n        @param tokenId This is the id of token that is newly created tokens \n        @param tokenType This is the type of the token that is created => For governance 1 and for copyright 0  \n      */\n    event NewTokenCreated(\n        uint256 recordId,\n        string symbol,\n        string image,\n        uint256 creationDate,\n        uint256 tokenAmount,\n        uint256 tokenId,\n        uint8 tokenType\n    );\n\n    /**\n        @dev this is event which is created when new governance token is minted after the voting is done\n        @param recordId This is the record Id to which this token belongs to \n        @param creationDate This is the creation date of the token \n        @param tokenAmount This is the amount of token that are created \n        @param tokenId This is the id of token that is newly created tokens \n      */\n    event TokenMinted(\n        uint256 recordId,\n        uint256 tokenId,\n        uint256 creationDate,\n        uint256 tokenAmount\n    );\n\n    /**\n        @dev this is event which is genrated when a contribution voting has came to an end and the contribution is accepted\n        @param to This the address of the winner or the owner of the contribution \n        @param recordId This is the id of the record to which this contribution relates to \n        @param contributionId This is the id of the contribution to which the record is related to \n        @param rewardGovernance The reward amount for governance tokens \n        @param rewardCommunity The reward amount for comunity tokens\n     */\n    event ContributionRewardTransfered(\n        address to,\n        uint256 recordId,\n        uint256 contributionId,\n        uint256 rewardGovernance,\n        uint256 rewardCommunity\n    );\n\n    mapping(uint256 => Token) govTokenMapping;\n    mapping(uint256 => Token) commTokenMapping;\n\n    mapping(string => bool) govTokenSym;\n    mapping(string => bool) commTokenSym;\n\n    // By default URI to crowdrecords domain\n    // 18 decimal points supported\n    constructor() ERC1155(\"https://crowdrecords.com/{id}\") {\n        _mint(msg.sender, CRD, 1000000 * 10**18, \"https://crowdrecords.com\");\n        OWNER = msg.sender;\n    }\n\n    /**\n     * @dev Modifier to check that the person who accesses a specific function is the owner of contract himself.\n     */\n    modifier ownerOnly() {\n        require(msg.sender == OWNER, \"You are not authorized for this action\");\n        _;\n    }\n\n    /**\n     * @dev Modifier to check if the sender is authorized to create tokens for this record.\n     */\n    modifier canCreateToken(NewTokenData memory newTokenData) {\n        require(\n            newTokenData.totalSupply / 2 > newTokenData.userBalance,\n            \"Treasury should have at least 50% of the total supply\"\n        );\n\n        RecordsContract recordsContract = RecordsContract(\n            RECORDS_CONTRACT_ADDRESS\n        );\n\n        uint256 balance = recordsContract.balanceOf(\n            msg.sender,\n            newTokenData.recordId\n        );\n\n        require(balance > 0, \"You are not the owner of the record\");\n        _;\n    }\n\n    /**\n     * @dev Modifier to check that if the sender is the voting contract or not.\n     */\n    modifier onlyContributionVotingContract() {\n        require(\n            msg.sender == CONTRIBUTION_VOTING_CONTRACT_ADDRESS,\n            \"You are not authorized for this action\"\n        );\n        _;\n    }\n\n    /**\n     * @dev This function sets the Records Contract address\n     */\n    function setRecordsContractAddress(address newRecordsContractAddress)\n        public\n        ownerOnly\n    {\n        RECORDS_CONTRACT_ADDRESS = newRecordsContractAddress;\n    }\n\n    /**\n     * @dev This function sets the Records Contract address\n     */\n    function setVotingHubContract(address newVotingHubContract)\n        public\n        ownerOnly\n    {\n        VOTING_HUB_ADDRESS = newVotingHubContract;\n    }\n\n    /**\n     * @dev This function sets the Voting Contract address\n     */\n    function setContributionVotingContractAddress(\n        address newVotingContractAddress\n    ) public ownerOnly {\n        CONTRIBUTION_VOTING_CONTRACT_ADDRESS = newVotingContractAddress;\n    }\n\n    /**\n     * @dev This function creats new governance tokens for specified record\n     * @param newTokenData This contains all the parameters needed to create a new governance token that are\n     * - recordId This is the recordId that for new token\n     * - totalSupply This is the total supply of governance token\n     * - userBalance This is the amount of tokens that user wants to keep to himself\n     * - symbol This is the symbol of the gvernance token\n     * - image this is image of the gov token.\n     */\n    function createNewGovernanceToken(NewTokenData memory newTokenData)\n        external\n        payable\n        canCreateToken(newTokenData)\n        returns (uint256)\n    {\n        {\n            bytes memory preString = abi.encodePacked(PREFIX_GOVERNANCE);\n            newTokenData.symbol = string(\n                abi.encodePacked(preString, newTokenData.symbol)\n            );\n        }\n\n        require(\n            govTokenMapping[newTokenData.recordId].isPresent == false,\n            \"Governance token for this id already present\"\n        );\n\n        require(\n            govTokenSym[newTokenData.symbol] == false,\n            \"Governance token with this SYMBOL already present\"\n        );\n\n        LastTokenId++;\n        uint256 newTokenId = LastTokenId;\n\n        //Map the recordId with the\n        govTokenMapping[newTokenData.recordId] = createToken(\n            newTokenData,\n            newTokenId,\n            TOKEN_TYPE_GOVERNANCE\n        );\n\n        return newTokenId;\n    }\n\n    /**\n     * @dev This function creats new community tokens for specified record\n     * @param newTokenData This contains all the parameters needed to create a new community token that are\n     * - recordId This is the recordId that for new token\n     * - totalSupply This is the total supply of community token\n     * - userBalance This is the amount of tokens that user wants to keep to himself\n     * - symbol This is the symbol of the community token\n     * - image this is image of the gov token.\n     */\n    function createNewCommunityToken(NewTokenData memory newTokenData)\n        external\n        payable\n        canCreateToken(newTokenData)\n        returns (uint256)\n    {\n        {\n            bytes memory preString = abi.encodePacked(PREFIX_COMMUNITY);\n            newTokenData.symbol = string(\n                abi.encodePacked(preString, newTokenData.symbol)\n            );\n        }\n\n        require(\n            commTokenMapping[newTokenData.recordId].isPresent == false,\n            \"Governance token for this id already present\"\n        );\n\n        require(\n            commTokenSym[newTokenData.symbol] == false,\n            \"Governance token with this SYMBOL already present\"\n        );\n\n        LastTokenId++;\n        uint256 newTokenId = LastTokenId;\n\n        //Map the recordId with the\n        commTokenMapping[newTokenData.recordId] = createToken(\n            newTokenData,\n            newTokenId,\n            TOKEN_TYPE_COMMUNITY\n        );\n\n        return newTokenId;\n    }\n\n    /**\n     * @dev This function is an internal use only function whoes role is to create a new token of specified type\n     * @param newTokenData This contains all the parameters needed to create a new community token that are\n     * - recordId This is the recordId that for new token\n     * - totalSupply This is the total supply of community token\n     * - userBalance This is the amount of tokens that user wants to keep to himself\n     * - symbol This is the symbol of the community token\n     * - image this is image of the gov token.\n     * @param newTokenId This is the Id of the token to create\n     * @param tokenType This is the type of token that is to be created such as community or governance\n     */\n    function createToken(\n        NewTokenData memory newTokenData,\n        uint256 newTokenId,\n        uint8 tokenType\n    ) private returns (Token memory) {\n        //!Add check for the totalsupply > userBalance\n\n        uint256 treasuryAmount = (newTokenData.totalSupply -\n            newTokenData.userBalance);\n        uint256 userAmount = newTokenData.userBalance;\n\n        // Here minting of new tokens is done. And those are sent directly into the treasury\n        _mint(address(this), newTokenId, treasuryAmount, \"\");\n\n        // The user requested amount of tokens is genrated and send to his account\n        _mint(msg.sender, newTokenId, userAmount, \"\");\n\n        Token memory token = Token({\n            recordId: newTokenData.recordId,\n            symbol: newTokenData.symbol,\n            image: newTokenData.image,\n            creationDate: block.timestamp,\n            isPresent: true,\n            tokenId: newTokenId\n        });\n\n        emit NewTokenCreated({\n            recordId: newTokenData.recordId,\n            symbol: newTokenData.symbol,\n            image: newTokenData.image,\n            creationDate: token.creationDate,\n            tokenAmount: newTokenData.totalSupply,\n            tokenId: newTokenId,\n            tokenType: tokenType\n        });\n\n        return token;\n    }\n\n    /**\n     * @dev This function creats new community tokens for specified record\n     * @param recordId This is the id of the record to which the token belongs to\n     * @param tokenId This is the id of the which is to be minted\n     * @param tokenAmount This is the amount that is to be minted\n     */\n    function mintTokens(\n        uint256 recordId,\n        uint256 tokenId,\n        uint256 tokenAmount\n    ) external payable onlyContributionVotingContract {\n        require(\n            commTokenMapping[recordId].isPresent == true ||\n                govTokenMapping[recordId].isPresent == true,\n            \"Invalid record \"\n        );\n\n        require(\n            commTokenMapping[recordId].tokenId == tokenId ||\n                govTokenMapping[recordId].tokenId == tokenId,\n            \"Invalid tokens\"\n        );\n\n        // Here minting of new tokens is done. And those are sent directly into the treasury\n        _mint(\n            address(this),\n            tokenId,\n            tokenAmount,\n            \"Token minted through voting process\"\n        );\n\n        emit TokenMinted({\n            recordId: recordId,\n            tokenId: tokenId,\n            creationDate: block.timestamp,\n            tokenAmount: tokenAmount\n        });\n    }\n\n    /**\n     * @dev This function is called only by the voting contract once the voting ends\n     * @param to This is the recivers address\n     * @param recordId This is the recordId to which the contribution belongs to\n     * @param contributionId this is the contribution id to which the user has won\n     * @param rewardGovernance this is the amout of Governance token that needs to be transfered\n     * @param rewardCommunity this is the amout of comunity token that needs to be transfered\n     */\n    function transferRewardAmount(\n        address to,\n        uint256 recordId,\n        uint256 contributionId,\n        uint256 rewardGovernance,\n        uint256 rewardCommunity\n    ) external payable onlyContributionVotingContract {\n        _setApprovalForAll(\n            address(this),\n            CONTRIBUTION_VOTING_CONTRACT_ADDRESS,\n            true\n        );\n        if (rewardGovernance > 0) {\n            safeTransferFrom(\n                address(this),\n                to,\n                govTokenMapping[recordId].tokenId,\n                rewardGovernance,\n                \"\"\n            );\n        }\n\n        if (rewardCommunity > 0) {\n            safeTransferFrom(\n                address(this),\n                to,\n                commTokenMapping[recordId].tokenId,\n                rewardCommunity,\n                \"\"\n            );\n        }\n\n        emit ContributionRewardTransfered({\n            to: to,\n            recordId: recordId,\n            contributionId: contributionId,\n            rewardGovernance: rewardGovernance,\n            rewardCommunity: rewardCommunity\n        });\n    }\n\n    /**\n     * @dev This function gives you the community token id of the recordId that you pass\n     * @param recordId This is the Id of the token that you want to check\n     */\n    function getCommunityTokenId(uint256 recordId)\n        public\n        view\n        returns (uint256)\n    {\n        Token memory token = commTokenMapping[recordId];\n        if (token.isPresent) {\n            return token.tokenId;\n        } else {\n            revert(\"Invalid record id\");\n        }\n    }\n\n    /**\n     * @dev This function gives you the governance token id of the recordId that you pass\n     * @param recordId This is the Id of the token that you want to check\n     */\n    function getGovernanceTokenId(uint256 recordId)\n        public\n        view\n        returns (uint256)\n    {\n        Token memory token = govTokenMapping[recordId];\n        if (token.isPresent) {\n            return token.tokenId;\n        } else {\n            revert(\"Invalid record id\");\n        }\n    }\n\n    /**\n     * @dev This function returns the amount of total tokens that are in circulation\n     * @param tokenId This is the token whoes circulating supply you  want to find out\n     */\n    function totalCirculatingSupply(uint256 tokenId)\n        public\n        view\n        returns (uint256)\n    {\n        uint256 totalCirculatingBalance = SafeMath.sub(\n            totalSupply(tokenId),\n            balanceOf(address(this), tokenId)\n        );\n\n        return totalCirculatingBalance;\n    }\n\n    function snapshot() public returns (uint256 snapshotId) {\n        return _snapshot();\n    }\n\n    // Update balance and/or total supply snapshots before the values are modified. This is implemented\n    // in the _beforeTokenTransfer hook, which is executed for _mint, _burn, and _transfer operations.\n    function _beforeTokenTransfer(\n        address operator,\n        address from,\n        address to,\n        uint256[] memory ids,\n        uint256[] memory amounts,\n        bytes memory data\n    ) internal override {\n        //Below condition is needed as the _mint is called in the constructor\n        //and at that particular point in time the below address is not initialized thus leading to a revert\n        if (VOTING_HUB_ADDRESS != address(0)) {\n            VotingHubContract votingHubContract = VotingHubContract(\n                VOTING_HUB_ADDRESS\n            );\n\n            for (uint256 i = 0; i < ids.length; i++) {\n                votingHubContract.handleUserTokenTransfers(\n                    from,\n                    to,\n                    amounts[i],\n                    ids[i]\n                );\n            }\n        }\n\n        super._beforeTokenTransfer(operator, from, to, ids, amounts, data);\n    }\n\n    function onERC1155Received(\n        address operator,\n        address from,\n        uint256 id,\n        uint256 value,\n        bytes calldata data\n    ) external virtual override returns (bytes4) {\n        return\n            bytes4(\n                keccak256(\n                    \"onERC1155Received(address,address,uint256,uint256,bytes)\"\n                )\n            );\n    }\n\n    function onERC1155BatchReceived(\n        address operator,\n        address from,\n        uint256[] calldata ids,\n        uint256[] calldata values,\n        bytes calldata data\n    ) external virtual override returns (bytes4) {\n        return\n            bytes4(\n                keccak256(\n                    \"onERC1155BatchReceived(address,address,uint256[],uint256[],bytes)\"\n                )\n            );\n    }\n}\n",
  "sourcePath": "/Users/a1/Desktop/Office/projects/CrowdRecords/Contracts/contracts/TreasuryContract.sol",
  "compiler": {
    "name": "solc",
    "version": "0.8.12+commit.f00d7308.Emscripten.clang"
  },
  "schemaVersion": "3.4.6",
  "updatedAt": "2022-07-26T06:49:30.060Z",
  "devdoc": {
    "events": {
      "ContributionRewardTransfered(address,uint256,uint256,uint256,uint256)": {
        "details": "this is event which is genrated when a contribution voting has came to an end and the contribution is accepted",
        "params": {
          "contributionId": "This is the id of the contribution to which the record is related to ",
          "recordId": "This is the id of the record to which this contribution relates to ",
          "rewardCommunity": "The reward amount for comunity tokens",
          "rewardGovernance": "The reward amount for governance tokens ",
          "to": "This the address of the winner or the owner of the contribution "
        }
      },
      "NewTokenCreated(uint256,string,string,uint256,uint256,uint256,uint8)": {
        "details": "this is event which is created when new governance token is created (NEW CREATION Not MINITING)",
        "params": {
          "creationDate": "This is the creation date of the token ",
          "image": "This is the image of the token ",
          "recordId": "This is the record Id to which this token belongs to ",
          "symbol": "This is the symbol of the governance token",
          "tokenAmount": "This is the amount of token that are created ",
          "tokenId": "This is the id of token that is newly created tokens ",
          "tokenType": "This is the type of the token that is created => For governance 1 and for copyright 0  "
        }
      },
      "TokenMinted(uint256,uint256,uint256,uint256)": {
        "details": "this is event which is created when new governance token is minted after the voting is done",
        "params": {
          "creationDate": "This is the creation date of the token ",
          "recordId": "This is the record Id to which this token belongs to ",
          "tokenAmount": "This is the amount of token that are created ",
          "tokenId": "This is the id of token that is newly created tokens "
        }
      },
      "TokenTransfer(address,address,uint256,uint256,uint256,string)": {
        "details": "this is event which is created when a token transfer takes place",
        "params": {
          "amount": "This is the amount of token transfered ",
          "from": "This is the address of sender ",
          "symbol": "This is the symbol of the token that were transfered",
          "to": "This is the address of reciver ",
          "tokenId": "This is the id of the token that is being transfered ",
          "transferDate": "This is the date of the transfer"
        }
      }
    },
    "kind": "dev",
    "methods": {
      "balanceOf(address,uint256)": {
        "details": "See {IERC1155-balanceOf}. Requirements: - `account` cannot be the zero address."
      },
      "balanceOfAt(address,uint256,uint256)": {
        "details": "Retrieves the balance of `account` at the time `snapshotId` was created."
      },
      "balanceOfBatch(address[],uint256[])": {
        "details": "See {IERC1155-balanceOfBatch}. Requirements: - `accounts` and `ids` must have the same length."
      },
      "createNewCommunityToken((uint256,uint256,uint256,string,string))": {
        "details": "This function creats new community tokens for specified record",
        "params": {
          "newTokenData": "This contains all the parameters needed to create a new community token that are - recordId This is the recordId that for new token - totalSupply This is the total supply of community token - userBalance This is the amount of tokens that user wants to keep to himself - symbol This is the symbol of the community token - image this is image of the gov token."
        }
      },
      "createNewGovernanceToken((uint256,uint256,uint256,string,string))": {
        "details": "This function creats new governance tokens for specified record",
        "params": {
          "newTokenData": "This contains all the parameters needed to create a new governance token that are - recordId This is the recordId that for new token - totalSupply This is the total supply of governance token - userBalance This is the amount of tokens that user wants to keep to himself - symbol This is the symbol of the gvernance token - image this is image of the gov token."
        }
      },
      "exists(uint256)": {
        "details": "Indicates whether any token exist with a given id, or not."
      },
      "getCommunityTokenId(uint256)": {
        "details": "This function gives you the community token id of the recordId that you pass",
        "params": {
          "recordId": "This is the Id of the token that you want to check"
        }
      },
      "getGovernanceTokenId(uint256)": {
        "details": "This function gives you the governance token id of the recordId that you pass",
        "params": {
          "recordId": "This is the Id of the token that you want to check"
        }
      },
      "isApprovedForAll(address,address)": {
        "details": "See {IERC1155-isApprovedForAll}."
      },
      "mintTokens(uint256,uint256,uint256)": {
        "details": "This function creats new community tokens for specified record",
        "params": {
          "recordId": "This is the id of the record to which the token belongs to",
          "tokenAmount": "This is the amount that is to be minted",
          "tokenId": "This is the id of the which is to be minted"
        }
      },
      "onERC1155BatchReceived(address,address,uint256[],uint256[],bytes)": {
        "details": "Handles the receipt of a multiple ERC1155 token types. This function is called at the end of a `safeBatchTransferFrom` after the balances have been updated. NOTE: To accept the transfer(s), this must return `bytes4(keccak256(\"onERC1155BatchReceived(address,address,uint256[],uint256[],bytes)\"))` (i.e. 0xbc197c81, or its own function selector).",
        "params": {
          "data": "Additional data with no specified format",
          "from": "The address which previously owned the token",
          "ids": "An array containing ids of each token being transferred (order and length must match values array)",
          "operator": "The address which initiated the batch transfer (i.e. msg.sender)",
          "values": "An array containing amounts of each token being transferred (order and length must match ids array)"
        },
        "returns": {
          "_0": "`bytes4(keccak256(\"onERC1155BatchReceived(address,address,uint256[],uint256[],bytes)\"))` if transfer is allowed"
        }
      },
      "onERC1155Received(address,address,uint256,uint256,bytes)": {
        "details": "Handles the receipt of a single ERC1155 token type. This function is called at the end of a `safeTransferFrom` after the balance has been updated. NOTE: To accept the transfer, this must return `bytes4(keccak256(\"onERC1155Received(address,address,uint256,uint256,bytes)\"))` (i.e. 0xf23a6e61, or its own function selector).",
        "params": {
          "data": "Additional data with no specified format",
          "from": "The address which previously owned the token",
          "id": "The ID of the token being transferred",
          "operator": "The address which initiated the transfer (i.e. msg.sender)",
          "value": "The amount of tokens being transferred"
        },
        "returns": {
          "_0": "`bytes4(keccak256(\"onERC1155Received(address,address,uint256,uint256,bytes)\"))` if transfer is allowed"
        }
      },
      "safeBatchTransferFrom(address,address,uint256[],uint256[],bytes)": {
        "details": "See {IERC1155-safeBatchTransferFrom}."
      },
      "safeTransferFrom(address,address,uint256,uint256,bytes)": {
        "details": "See {IERC1155-safeTransferFrom}."
      },
      "setApprovalForAll(address,bool)": {
        "details": "See {IERC1155-setApprovalForAll}."
      },
      "setContributionVotingContractAddress(address)": {
        "details": "This function sets the Voting Contract address"
      },
      "setRecordsContractAddress(address)": {
        "details": "This function sets the Records Contract address"
      },
      "setVotingHubContract(address)": {
        "details": "This function sets the Records Contract address"
      },
      "supportsInterface(bytes4)": {
        "details": "See {IERC165-supportsInterface}."
      },
      "totalCirculatingSupply(uint256)": {
        "details": "This function returns the amount of total tokens that are in circulation",
        "params": {
          "tokenId": "This is the token whoes circulating supply you  want to find out"
        }
      },
      "totalSupply(uint256)": {
        "details": "Total amount of tokens in with a given id."
      },
      "totalSupplyAt(uint256,uint256)": {
        "details": "Retrieves the total supply at the time `snapshotId` was created."
      },
      "transferRewardAmount(address,uint256,uint256,uint256,uint256)": {
        "details": "This function is called only by the voting contract once the voting ends",
        "params": {
          "contributionId": "this is the contribution id to which the user has won",
          "recordId": "This is the recordId to which the contribution belongs to",
          "rewardCommunity": "this is the amout of comunity token that needs to be transfered",
          "rewardGovernance": "this is the amout of Governance token that needs to be transfered",
          "to": "This is the recivers address"
        }
      },
      "uri(uint256)": {
        "details": "See {IERC1155MetadataURI-uri}. This implementation returns the same URI for *all* token types. It relies on the token type ID substitution mechanism https://eips.ethereum.org/EIPS/eip-1155#metadata[defined in the EIP]. Clients calling this function must replace the `\\{id\\}` substring with the actual token type ID."
      }
    },
    "version": 1
  },
  "userdoc": {
    "kind": "user",
    "methods": {},
    "version": 1
  }
}