{
  "contractName": "TreasuryContract",
  "abi": [
    {
      "inputs": [
        {
          "internalType": "address",
          "name": "owner",
          "type": "address"
        }
      ],
      "stateMutability": "nonpayable",
      "type": "constructor"
    },
    {
      "inputs": [],
      "name": "CONTRIBUTION_VOTING_CONTRACT_ADDRESS",
      "outputs": [
        {
          "internalType": "address",
          "name": "",
          "type": "address"
        }
      ],
      "stateMutability": "view",
      "type": "function"
    },
    {
      "inputs": [],
      "name": "CRD",
      "outputs": [
        {
          "internalType": "uint256",
          "name": "",
          "type": "uint256"
        }
      ],
      "stateMutability": "view",
      "type": "function"
    },
    {
      "inputs": [],
      "name": "DILUTION_CONTRACT_ADDRESS",
      "outputs": [
        {
          "internalType": "address",
          "name": "",
          "type": "address"
        }
      ],
      "stateMutability": "view",
      "type": "function"
    },
    {
      "inputs": [],
      "name": "OWNER",
      "outputs": [
        {
          "internalType": "address",
          "name": "",
          "type": "address"
        }
      ],
      "stateMutability": "view",
      "type": "function"
    },
    {
      "inputs": [],
      "name": "RECORDS_CONTRACT_ADDRESS",
      "outputs": [
        {
          "internalType": "address",
          "name": "",
          "type": "address"
        }
      ],
      "stateMutability": "view",
      "type": "function"
    },
    {
      "inputs": [],
      "name": "TREASURY_CORE_CONTRACT_ADDRESS",
      "outputs": [
        {
          "internalType": "address",
          "name": "",
          "type": "address"
        }
      ],
      "stateMutability": "view",
      "type": "function"
    },
    {
      "inputs": [
        {
          "internalType": "address",
          "name": "ownerAddress",
          "type": "address"
        }
      ],
      "name": "setOwnerAddress",
      "outputs": [],
      "stateMutability": "nonpayable",
      "type": "function"
    },
    {
      "inputs": [
        {
          "internalType": "address",
          "name": "ownerAddress",
          "type": "address"
        }
      ],
      "name": "setCoreTreasuryAddress",
      "outputs": [],
      "stateMutability": "nonpayable",
      "type": "function"
    },
    {
      "inputs": [
        {
          "internalType": "address",
          "name": "newRecordsContractAddress",
          "type": "address"
        }
      ],
      "name": "setRecordsContractAddress",
      "outputs": [],
      "stateMutability": "nonpayable",
      "type": "function"
    },
    {
      "inputs": [
        {
          "internalType": "address",
          "name": "newDilutionContract",
          "type": "address"
        }
      ],
      "name": "setDilutionContract",
      "outputs": [],
      "stateMutability": "nonpayable",
      "type": "function"
    },
    {
      "inputs": [
        {
          "internalType": "address",
          "name": "newVotingContractAddress",
          "type": "address"
        }
      ],
      "name": "setContributionVotingContractAddress",
      "outputs": [],
      "stateMutability": "nonpayable",
      "type": "function"
    },
    {
      "inputs": [
        {
          "components": [
            {
              "internalType": "uint256",
              "name": "recordId",
              "type": "uint256"
            },
            {
              "internalType": "uint256",
              "name": "totalSupply",
              "type": "uint256"
            },
            {
              "internalType": "uint256",
              "name": "userBalance",
              "type": "uint256"
            },
            {
              "internalType": "string",
              "name": "symbol",
              "type": "string"
            },
            {
              "internalType": "string",
              "name": "image",
              "type": "string"
            }
          ],
          "internalType": "struct TreasuryCoreContract.NewTokenData",
          "name": "newTokenData",
          "type": "tuple"
        }
      ],
      "name": "createNewCommunityToken",
      "outputs": [
        {
          "internalType": "uint256",
          "name": "",
          "type": "uint256"
        }
      ],
      "stateMutability": "payable",
      "type": "function"
    },
    {
      "inputs": [
        {
          "internalType": "uint256",
          "name": "recordId",
          "type": "uint256"
        },
        {
          "internalType": "uint256",
          "name": "totalSupply",
          "type": "uint256"
        },
        {
          "internalType": "uint256",
          "name": "userBalance",
          "type": "uint256"
        },
        {
          "internalType": "string",
          "name": "symbol",
          "type": "string"
        },
        {
          "internalType": "string",
          "name": "image",
          "type": "string"
        }
      ],
      "name": "createNewGovernanceToken",
      "outputs": [
        {
          "internalType": "uint256",
          "name": "",
          "type": "uint256"
        }
      ],
      "stateMutability": "payable",
      "type": "function"
    },
    {
      "inputs": [
        {
          "components": [
            {
              "internalType": "uint256",
              "name": "recordId",
              "type": "uint256"
            },
            {
              "internalType": "uint256",
              "name": "totalSupply",
              "type": "uint256"
            },
            {
              "internalType": "uint256",
              "name": "userBalance",
              "type": "uint256"
            },
            {
              "internalType": "string",
              "name": "symbol",
              "type": "string"
            },
            {
              "internalType": "string",
              "name": "image",
              "type": "string"
            }
          ],
          "internalType": "struct TreasuryCoreContract.NewTokenData",
          "name": "newTokenData",
          "type": "tuple"
        }
      ],
      "name": "createNewGovernanceToken",
      "outputs": [
        {
          "internalType": "uint256",
          "name": "",
          "type": "uint256"
        }
      ],
      "stateMutability": "payable",
      "type": "function"
    },
    {
      "inputs": [
        {
          "internalType": "address",
          "name": "to",
          "type": "address"
        },
        {
          "internalType": "uint256",
          "name": "recordId",
          "type": "uint256"
        },
        {
          "internalType": "uint256",
          "name": "contributionId",
          "type": "uint256"
        },
        {
          "internalType": "uint256",
          "name": "rewardGovernance",
          "type": "uint256"
        },
        {
          "internalType": "uint256",
          "name": "rewardCommunity",
          "type": "uint256"
        }
      ],
      "name": "transferRewardAmount",
      "outputs": [],
      "stateMutability": "payable",
      "type": "function"
    },
    {
      "inputs": [
        {
          "internalType": "uint256",
          "name": "recordId",
          "type": "uint256"
        }
      ],
      "name": "getCommunityTokenId",
      "outputs": [
        {
          "internalType": "uint256",
          "name": "",
          "type": "uint256"
        }
      ],
      "stateMutability": "view",
      "type": "function"
    },
    {
      "inputs": [
        {
          "internalType": "uint256",
          "name": "recordId",
          "type": "uint256"
        }
      ],
      "name": "getGovernanceTokenId",
      "outputs": [
        {
          "internalType": "uint256",
          "name": "",
          "type": "uint256"
        }
      ],
      "stateMutability": "view",
      "type": "function"
    },
    {
      "inputs": [
        {
          "internalType": "uint256",
          "name": "tokenId",
          "type": "uint256"
        }
      ],
      "name": "totalCirculatingSupply",
      "outputs": [
        {
          "internalType": "uint256",
          "name": "",
          "type": "uint256"
        }
      ],
      "stateMutability": "view",
      "type": "function"
    },
    {
      "inputs": [
        {
          "internalType": "address",
          "name": "account",
          "type": "address"
        },
        {
          "internalType": "uint256",
          "name": "tokenId",
          "type": "uint256"
        }
      ],
      "name": "balanceOf",
      "outputs": [
        {
          "internalType": "uint256",
          "name": "",
          "type": "uint256"
        }
      ],
      "stateMutability": "view",
      "type": "function"
    },
    {
      "inputs": [
        {
          "internalType": "string",
          "name": "governanceSymbol",
          "type": "string"
        },
        {
          "internalType": "string",
          "name": "communitySymbol",
          "type": "string"
        }
      ],
      "name": "setSymbolsAsUsed",
      "outputs": [],
      "stateMutability": "nonpayable",
      "type": "function"
    },
    {
      "inputs": [
        {
          "internalType": "string",
          "name": "governanceSymbol",
          "type": "string"
        },
        {
          "internalType": "string",
          "name": "communitySymbol",
          "type": "string"
        }
      ],
      "name": "setSymbolsAsAvailable",
      "outputs": [],
      "stateMutability": "nonpayable",
      "type": "function"
    },
    {
      "inputs": [],
      "name": "snapshot",
      "outputs": [
        {
          "internalType": "uint256",
          "name": "snapshotId",
          "type": "uint256"
        }
      ],
      "stateMutability": "nonpayable",
      "type": "function"
    },
    {
      "inputs": [
        {
          "internalType": "uint256",
          "name": "tokenId",
          "type": "uint256"
        },
        {
          "internalType": "uint256",
          "name": "amount",
          "type": "uint256"
        }
      ],
      "name": "mintTokens",
      "outputs": [],
      "stateMutability": "nonpayable",
      "type": "function"
    },
    {
      "inputs": [
        {
          "internalType": "uint256",
          "name": "recordId",
          "type": "uint256"
        },
        {
          "internalType": "uint256",
          "name": "tokenId",
          "type": "uint256"
        },
        {
          "internalType": "uint256",
          "name": "tokenAmount",
          "type": "uint256"
        }
      ],
      "name": "mintTokens",
      "outputs": [],
      "stateMutability": "payable",
      "type": "function"
    }
  ],
  "bytecode": "0x60806040523480156200001157600080fd5b506040516200357e3803806200357e8339818101604052810190620000379190620000e8565b806000806101000a81548173ffffffffffffffffffffffffffffffffffffffff021916908373ffffffffffffffffffffffffffffffffffffffff160217905550506200011a565b600080fd5b600073ffffffffffffffffffffffffffffffffffffffff82169050919050565b6000620000b08262000083565b9050919050565b620000c281620000a3565b8114620000ce57600080fd5b50565b600081519050620000e281620000b7565b92915050565b6000602082840312156200010157620001006200007e565b5b60006200011184828501620000d1565b91505092915050565b613454806200012a6000396000f3fe60806040526004361061014a5760003560e01c80636d15dd2c116100b6578063ba19a6751161006f578063ba19a67514610469578063cceaf62514610494578063d6ca40a7146104c4578063dfe813eb14610501578063e6870f951461052a578063e6acd9b8146105555761014a565b80636d15dd2c1461037b5780638388f413146103ab5780638fbf353f146103c75780639711715a146103e3578063a54a017a1461040e578063af6707691461043e5761014a565b806334a7c2e71161010857806334a7c2e71461028357806338894e72146102ac578063556bed3a146102d55780635f938ad2146103005780636055c8551461032957806361cbc357146103525761014a565b8062fdd58e1461014f578063036c22ad1461018c578063117803e3146101c957806321aa2ccf146101f45780632d4a03821461021d578063331a6bf51461025a575b600080fd5b34801561015b57600080fd5b50610176600480360381019061017191906121d8565b610580565b6040516101839190612227565b60405180910390f35b34801561019857600080fd5b506101b360048036038101906101ae9190612242565b61062c565b6040516101c09190612227565b60405180910390f35b3480156101d557600080fd5b506101de610781565b6040516101eb919061227e565b60405180910390f35b34801561020057600080fd5b5061021b60048036038101906102169190612299565b6107a5565b005b34801561022957600080fd5b50610244600480360381019061023f9190612242565b610877565b6040516102519190612227565b60405180910390f35b34801561026657600080fd5b50610281600480360381019061027c9190612299565b61097a565b005b34801561028f57600080fd5b506102aa60048036038101906102a591906122c6565b610a4b565b005b3480156102b857600080fd5b506102d360048036038101906102ce9190612299565b610b74565b005b3480156102e157600080fd5b506102ea610c46565b6040516102f7919061227e565b60405180910390f35b34801561030c57600080fd5b506103276004803603810190610322919061244c565b610c6c565b005b34801561033557600080fd5b50610350600480360381019061034b9190612299565b610d95565b005b34801561035e57600080fd5b506103796004803603810190610374919061244c565b610e67565b005b61039560048036038101906103909190612592565b611110565b6040516103a29190612227565b60405180910390f35b6103c560048036038101906103c091906125db565b6115a8565b005b6103e160048036038101906103dc9190612656565b6116fe565b005b3480156103ef57600080fd5b506103f861182a565b6040516104059190612227565b60405180910390f35b610428600480360381019061042391906126a9565b6118c9565b6040516104359190612227565b60405180910390f35b34801561044a57600080fd5b50610453611a36565b604051610460919061227e565b60405180910390f35b34801561047557600080fd5b5061047e611a5c565b60405161048b919061227e565b60405180910390f35b6104ae60048036038101906104a99190612592565b611a82565b6040516104bb9190612227565b60405180910390f35b3480156104d057600080fd5b506104eb60048036038101906104e69190612242565b611f1a565b6040516104f89190612227565b60405180910390f35b34801561050d57600080fd5b5061052860048036038101906105239190612299565b61201d565b005b34801561053657600080fd5b5061053f6120ef565b60405161054c919061227e565b60405180910390f35b34801561056157600080fd5b5061056a612115565b6040516105779190612227565b60405180910390f35b600080600460009054906101000a900473ffffffffffffffffffffffffffffffffffffffff1690508073ffffffffffffffffffffffffffffffffffffffff1662fdd58e85856040518363ffffffff1660e01b81526004016105e292919061275c565b602060405180830381865afa1580156105ff573d6000803e3d6000fd5b505050506040513d601f19601f82011682018060405250810190610623919061279a565b91505092915050565b600080600460009054906101000a900473ffffffffffffffffffffffffffffffffffffffff16905060006107758273ffffffffffffffffffffffffffffffffffffffff1663bd85b039866040518263ffffffff1660e01b81526004016106929190612227565b602060405180830381865afa1580156106af573d6000803e3d6000fd5b505050506040513d601f19601f820116820180604052508101906106d3919061279a565b8373ffffffffffffffffffffffffffffffffffffffff1662fdd58e600460009054906101000a900473ffffffffffffffffffffffffffffffffffffffff16886040518363ffffffff1660e01b815260040161072f92919061275c565b602060405180830381865afa15801561074c573d6000803e3d6000fd5b505050506040513d601f19601f82011682018060405250810190610770919061279a565b61211a565b90508092505050919050565b60008054906101000a900473ffffffffffffffffffffffffffffffffffffffff1681565b60008054906101000a900473ffffffffffffffffffffffffffffffffffffffff1673ffffffffffffffffffffffffffffffffffffffff163373ffffffffffffffffffffffffffffffffffffffff1614610833576040517f08c379a000000000000000000000000000000000000000000000000000000000815260040161082a9061284a565b60405180910390fd5b80600360006101000a81548173ffffffffffffffffffffffffffffffffffffffff021916908373ffffffffffffffffffffffffffffffffffffffff16021790555050565b600080600460009054906101000a900473ffffffffffffffffffffffffffffffffffffffff1690506000808273ffffffffffffffffffffffffffffffffffffffff1663af94e4a9866040518263ffffffff1660e01b81526004016108db9190612227565b600060405180830381865afa1580156108f8573d6000803e3d6000fd5b505050506040513d6000823e3d601f19601f820116820180604052508101906109219190612945565b9550955050505050811561093a57809350505050610975565b6040517f08c379a000000000000000000000000000000000000000000000000000000000815260040161096c90612a56565b60405180910390fd5b919050565b60008054906101000a900473ffffffffffffffffffffffffffffffffffffffff1673ffffffffffffffffffffffffffffffffffffffff163373ffffffffffffffffffffffffffffffffffffffff1614610a08576040517f08c379a00000000000000000000000000000000000000000000000000000000081526004016109ff9061284a565b60405180910390fd5b806000806101000a81548173ffffffffffffffffffffffffffffffffffffffff021916908373ffffffffffffffffffffffffffffffffffffffff16021790555050565b600360009054906101000a900473ffffffffffffffffffffffffffffffffffffffff1673ffffffffffffffffffffffffffffffffffffffff163373ffffffffffffffffffffffffffffffffffffffff1614610adb576040517f08c379a0000000000000000000000000000000000000000000000000000000008152600401610ad29061284a565b60405180910390fd5b6000600460009054906101000a900473ffffffffffffffffffffffffffffffffffffffff1690508073ffffffffffffffffffffffffffffffffffffffff16631b2ef1ca84846040518363ffffffff1660e01b8152600401610b3d929190612a76565b600060405180830381600087803b158015610b5757600080fd5b505af1158015610b6b573d6000803e3d6000fd5b50505050505050565b60008054906101000a900473ffffffffffffffffffffffffffffffffffffffff1673ffffffffffffffffffffffffffffffffffffffff163373ffffffffffffffffffffffffffffffffffffffff1614610c02576040517f08c379a0000000000000000000000000000000000000000000000000000000008152600401610bf99061284a565b60405180910390fd5b80600460006101000a81548173ffffffffffffffffffffffffffffffffffffffff021916908373ffffffffffffffffffffffffffffffffffffffff16021790555050565b600460009054906101000a900473ffffffffffffffffffffffffffffffffffffffff1681565b600160009054906101000a900473ffffffffffffffffffffffffffffffffffffffff1673ffffffffffffffffffffffffffffffffffffffff163373ffffffffffffffffffffffffffffffffffffffff1614610cfc576040517f08c379a0000000000000000000000000000000000000000000000000000000008152600401610cf390612b11565b60405180910390fd5b6000600460009054906101000a900473ffffffffffffffffffffffffffffffffffffffff1690508073ffffffffffffffffffffffffffffffffffffffff16635f938ad284846040518363ffffffff1660e01b8152600401610d5e929190612b75565b600060405180830381600087803b158015610d7857600080fd5b505af1158015610d8c573d6000803e3d6000fd5b50505050505050565b60008054906101000a900473ffffffffffffffffffffffffffffffffffffffff1673ffffffffffffffffffffffffffffffffffffffff163373ffffffffffffffffffffffffffffffffffffffff1614610e23576040517f08c379a0000000000000000000000000000000000000000000000000000000008152600401610e1a9061284a565b60405180910390fd5b80600260006101000a81548173ffffffffffffffffffffffffffffffffffffffff021916908373ffffffffffffffffffffffffffffffffffffffff16021790555050565b600160009054906101000a900473ffffffffffffffffffffffffffffffffffffffff1673ffffffffffffffffffffffffffffffffffffffff163373ffffffffffffffffffffffffffffffffffffffff1614610ef7576040517f08c379a0000000000000000000000000000000000000000000000000000000008152600401610eee90612b11565b60405180910390fd5b6000600460009054906101000a900473ffffffffffffffffffffffffffffffffffffffff169050600015158173ffffffffffffffffffffffffffffffffffffffff16631644e0ff856040518263ffffffff1660e01b8152600401610f5b9190612bac565b602060405180830381865afa158015610f78573d6000803e3d6000fd5b505050506040513d601f19601f82011682018060405250810190610f9c9190612bce565b151514610fde576040517f08c379a0000000000000000000000000000000000000000000000000000000008152600401610fd590612c6d565b60405180910390fd5b600015158173ffffffffffffffffffffffffffffffffffffffff16638958a5de846040518263ffffffff1660e01b815260040161101b9190612bac565b602060405180830381865afa158015611038573d6000803e3d6000fd5b505050506040513d601f19601f8201168201806040525081019061105c9190612bce565b15151461109e576040517f08c379a000000000000000000000000000000000000000000000000000000000815260040161109590612c6d565b60405180910390fd5b8073ffffffffffffffffffffffffffffffffffffffff166361cbc35784846040518363ffffffff1660e01b81526004016110d9929190612b75565b600060405180830381600087803b1580156110f357600080fd5b505af1158015611107573d6000803e3d6000fd5b50505050505050565b6000818060400151600282602001516111299190612ceb565b11611169576040517f08c379a000000000000000000000000000000000000000000000000000000000815260040161116090612d8e565b60405180910390fd5b6000600160009054906101000a900473ffffffffffffffffffffffffffffffffffffffff16905060008173ffffffffffffffffffffffffffffffffffffffff16636352211e84600001516040518263ffffffff1660e01b81526004016111cf9190612227565b6020604051808303816000875af11580156111ee573d6000803e3d6000fd5b505050506040513d601f19601f820116820180604052508101906112129190612dc3565b90503373ffffffffffffffffffffffffffffffffffffffff168173ffffffffffffffffffffffffffffffffffffffff1614611282576040517f08c379a000000000000000000000000000000000000000000000000000000000815260040161127990612e3c565b60405180910390fd5b6000808373ffffffffffffffffffffffffffffffffffffffff166358f0b6c186600001516040518263ffffffff1660e01b81526004016112c29190612227565b600060405180830381865afa1580156112df573d6000803e3d6000fd5b505050506040513d6000823e3d601f19601f82011682018060405250810190611308919061303e565b9850985050505050505050600015158215151461135a576040517f08c379a0000000000000000000000000000000000000000000000000000000008152600401611351906131ce565b60405180910390fd5b6000600460009054906101000a900473ffffffffffffffffffffffffffffffffffffffff16905060008173ffffffffffffffffffffffffffffffffffffffff1663884c8ffe8a600001516040518263ffffffff1660e01b81526004016113c09190612227565b600060405180830381865afa1580156113dd573d6000803e3d6000fd5b505050506040513d6000823e3d601f19601f820116820180604052508101906114069190612945565b509450505050506000151581151514611454576040517f08c379a000000000000000000000000000000000000000000000000000000000815260040161144b9061323a565b60405180910390fd5b60008273ffffffffffffffffffffffffffffffffffffffff16631644e0ff8b606001516040518263ffffffff1660e01b81526004016114939190612bac565b602060405180830381865afa1580156114b0573d6000803e3d6000fd5b505050506040513d601f19601f820116820180604052508101906114d49190612bce565b9050600015158115151461151d576040517f08c379a000000000000000000000000000000000000000000000000000000000815260040161151490612c6d565b60405180910390fd5b8273ffffffffffffffffffffffffffffffffffffffff16636d15dd2c8b6040518263ffffffff1660e01b81526004016115569190613330565b6020604051808303816000875af1158015611575573d6000803e3d6000fd5b505050506040513d601f19601f82011682018060405250810190611599919061279a565b98505050505050505050919050565b600260009054906101000a900473ffffffffffffffffffffffffffffffffffffffff1673ffffffffffffffffffffffffffffffffffffffff163373ffffffffffffffffffffffffffffffffffffffff1614611638576040517f08c379a000000000000000000000000000000000000000000000000000000000815260040161162f9061284a565b60405180910390fd5b6000600460009054906101000a900473ffffffffffffffffffffffffffffffffffffffff1690508073ffffffffffffffffffffffffffffffffffffffff1663692a530e8787878787600260009054906101000a900473ffffffffffffffffffffffffffffffffffffffff166040518763ffffffff1660e01b81526004016116c496959493929190613352565b600060405180830381600087803b1580156116de57600080fd5b505af11580156116f2573d6000803e3d6000fd5b50505050505050505050565b600260009054906101000a900473ffffffffffffffffffffffffffffffffffffffff1673ffffffffffffffffffffffffffffffffffffffff163373ffffffffffffffffffffffffffffffffffffffff161461178e576040517f08c379a00000000000000000000000000000000000000000000000000000000081526004016117859061284a565b60405180910390fd5b6000600460009054906101000a900473ffffffffffffffffffffffffffffffffffffffff1690508073ffffffffffffffffffffffffffffffffffffffff16638fbf353f8585856040518463ffffffff1660e01b81526004016117f2939291906133b3565b600060405180830381600087803b15801561180c57600080fd5b505af1158015611820573d6000803e3d6000fd5b5050505050505050565b600080600460009054906101000a900473ffffffffffffffffffffffffffffffffffffffff1690508073ffffffffffffffffffffffffffffffffffffffff16639711715a6040518163ffffffff1660e01b81526004016020604051808303816000875af115801561189f573d6000803e3d6000fd5b505050506040513d601f19601f820116820180604052508101906118c3919061279a565b91505090565b6000600160009054906101000a900473ffffffffffffffffffffffffffffffffffffffff1673ffffffffffffffffffffffffffffffffffffffff163373ffffffffffffffffffffffffffffffffffffffff161461195b576040517f08c379a000000000000000000000000000000000000000000000000000000000815260040161195290612b11565b60405180910390fd5b6000600460009054906101000a900473ffffffffffffffffffffffffffffffffffffffff16905060006040518060a001604052808981526020018881526020018781526020018681526020018581525090508173ffffffffffffffffffffffffffffffffffffffff1663cceaf625826040518263ffffffff1660e01b81526004016119e69190613330565b6020604051808303816000875af1158015611a05573d6000803e3d6000fd5b505050506040513d601f19601f82011682018060405250810190611a29919061279a565b9250505095945050505050565b600260009054906101000a900473ffffffffffffffffffffffffffffffffffffffff1681565b600160009054906101000a900473ffffffffffffffffffffffffffffffffffffffff1681565b600081806040015160028260200151611a9b9190612ceb565b11611adb576040517f08c379a0000000000000000000000000000000000000000000000000000000008152600401611ad290612d8e565b60405180910390fd5b6000600160009054906101000a900473ffffffffffffffffffffffffffffffffffffffff16905060008173ffffffffffffffffffffffffffffffffffffffff16636352211e84600001516040518263ffffffff1660e01b8152600401611b419190612227565b6020604051808303816000875af1158015611b60573d6000803e3d6000fd5b505050506040513d601f19601f82011682018060405250810190611b849190612dc3565b90503373ffffffffffffffffffffffffffffffffffffffff168173ffffffffffffffffffffffffffffffffffffffff1614611bf4576040517f08c379a0000000000000000000000000000000000000000000000000000000008152600401611beb90612e3c565b60405180910390fd5b6000808373ffffffffffffffffffffffffffffffffffffffff166358f0b6c186600001516040518263ffffffff1660e01b8152600401611c349190612227565b600060405180830381865afa158015611c51573d6000803e3d6000fd5b505050506040513d6000823e3d601f19601f82011682018060405250810190611c7a919061303e565b98509850505050505050506000151582151514611ccc576040517f08c379a0000000000000000000000000000000000000000000000000000000008152600401611cc3906131ce565b60405180910390fd5b6000600460009054906101000a900473ffffffffffffffffffffffffffffffffffffffff16905060008173ffffffffffffffffffffffffffffffffffffffff1663884c8ffe8a600001516040518263ffffffff1660e01b8152600401611d329190612227565b600060405180830381865afa158015611d4f573d6000803e3d6000fd5b505050506040513d6000823e3d601f19601f82011682018060405250810190611d789190612945565b509450505050506000151581151514611dc6576040517f08c379a0000000000000000000000000000000000000000000000000000000008152600401611dbd9061323a565b60405180910390fd5b60008273ffffffffffffffffffffffffffffffffffffffff16631644e0ff8b606001516040518263ffffffff1660e01b8152600401611e059190612bac565b602060405180830381865afa158015611e22573d6000803e3d6000fd5b505050506040513d601f19601f82011682018060405250810190611e469190612bce565b90506000151581151514611e8f576040517f08c379a0000000000000000000000000000000000000000000000000000000008152600401611e8690612c6d565b60405180910390fd5b8273ffffffffffffffffffffffffffffffffffffffff1663cceaf6258b6040518263ffffffff1660e01b8152600401611ec89190613330565b6020604051808303816000875af1158015611ee7573d6000803e3d6000fd5b505050506040513d601f19601f82011682018060405250810190611f0b919061279a565b98505050505050505050919050565b600080600460009054906101000a900473ffffffffffffffffffffffffffffffffffffffff1690506000808273ffffffffffffffffffffffffffffffffffffffff1663884c8ffe866040518263ffffffff1660e01b8152600401611f7e9190612227565b600060405180830381865afa158015611f9b573d6000803e3d6000fd5b505050506040513d6000823e3d601f19601f82011682018060405250810190611fc49190612945565b95509550505050508115611fdd57809350505050612018565b6040517f08c379a000000000000000000000000000000000000000000000000000000000815260040161200f90612a56565b60405180910390fd5b919050565b60008054906101000a900473ffffffffffffffffffffffffffffffffffffffff1673ffffffffffffffffffffffffffffffffffffffff163373ffffffffffffffffffffffffffffffffffffffff16146120ab576040517f08c379a00000000000000000000000000000000000000000000000000000000081526004016120a29061284a565b60405180910390fd5b80600160006101000a81548173ffffffffffffffffffffffffffffffffffffffff021916908373ffffffffffffffffffffffffffffffffffffffff16021790555050565b600360009054906101000a900473ffffffffffffffffffffffffffffffffffffffff1681565b600181565b6000818361212891906133ea565b905092915050565b6000604051905090565b600080fd5b600080fd5b600073ffffffffffffffffffffffffffffffffffffffff82169050919050565b600061216f82612144565b9050919050565b61217f81612164565b811461218a57600080fd5b50565b60008135905061219c81612176565b92915050565b6000819050919050565b6121b5816121a2565b81146121c057600080fd5b50565b6000813590506121d2816121ac565b92915050565b600080604083850312156121ef576121ee61213a565b5b60006121fd8582860161218d565b925050602061220e858286016121c3565b9150509250929050565b612221816121a2565b82525050565b600060208201905061223c6000830184612218565b92915050565b6000602082840312156122585761225761213a565b5b6000612266848285016121c3565b91505092915050565b61227881612164565b82525050565b6000602082019050612293600083018461226f565b92915050565b6000602082840312156122af576122ae61213a565b5b60006122bd8482850161218d565b91505092915050565b600080604083850312156122dd576122dc61213a565b5b60006122eb858286016121c3565b92505060206122fc858286016121c3565b9150509250929050565b600080fd5b600080fd5b6000601f19601f8301169050919050565b7f4e487b7100000000000000000000000000000000000000000000000000000000600052604160045260246000fd5b61235982612310565b810181811067ffffffffffffffff8211171561237857612377612321565b5b80604052505050565b600061238b612130565b90506123978282612350565b919050565b600067ffffffffffffffff8211156123b7576123b6612321565b5b6123c082612310565b9050602081019050919050565b82818337600083830152505050565b60006123ef6123ea8461239c565b612381565b90508281526020810184848401111561240b5761240a61230b565b5b6124168482856123cd565b509392505050565b600082601f83011261243357612432612306565b5b81356124438482602086016123dc565b91505092915050565b600080604083850312156124635761246261213a565b5b600083013567ffffffffffffffff8111156124815761248061213f565b5b61248d8582860161241e565b925050602083013567ffffffffffffffff8111156124ae576124ad61213f565b5b6124ba8582860161241e565b9150509250929050565b600080fd5b600080fd5b600060a082840312156124e4576124e36124c4565b5b6124ee60a0612381565b905060006124fe848285016121c3565b6000830152506020612512848285016121c3565b6020830152506040612526848285016121c3565b604083015250606082013567ffffffffffffffff81111561254a576125496124c9565b5b6125568482850161241e565b606083015250608082013567ffffffffffffffff81111561257a576125796124c9565b5b6125868482850161241e565b60808301525092915050565b6000602082840312156125a8576125a761213a565b5b600082013567ffffffffffffffff8111156125c6576125c561213f565b5b6125d2848285016124ce565b91505092915050565b600080600080600060a086880312156125f7576125f661213a565b5b60006126058882890161218d565b9550506020612616888289016121c3565b9450506040612627888289016121c3565b9350506060612638888289016121c3565b9250506080612649888289016121c3565b9150509295509295909350565b60008060006060848603121561266f5761266e61213a565b5b600061267d868287016121c3565b935050602061268e868287016121c3565b925050604061269f868287016121c3565b9150509250925092565b600080600080600060a086880312156126c5576126c461213a565b5b60006126d3888289016121c3565b95505060206126e4888289016121c3565b94505060406126f5888289016121c3565b935050606086013567ffffffffffffffff8111156127165761271561213f565b5b6127228882890161241e565b925050608086013567ffffffffffffffff8111156127435761274261213f565b5b61274f8882890161241e565b9150509295509295909350565b6000604082019050612771600083018561226f565b61277e6020830184612218565b9392505050565b600081519050612794816121ac565b92915050565b6000602082840312156127b0576127af61213a565b5b60006127be84828501612785565b91505092915050565b600082825260208201905092915050565b7f554e415554484f52495a45443a2043414e4e4f545f504552464f524d5f41435460008201527f494f4e0000000000000000000000000000000000000000000000000000000000602082015250565b60006128346023836127c7565b915061283f826127d8565b604082019050919050565b6000602082019050818103600083015261286381612827565b9050919050565b60005b8381101561288857808201518184015260208101905061286d565b83811115612897576000848401525b50505050565b60006128b06128ab8461239c565b612381565b9050828152602081018484840111156128cc576128cb61230b565b5b6128d784828561286a565b509392505050565b600082601f8301126128f4576128f3612306565b5b815161290484826020860161289d565b91505092915050565b60008115159050919050565b6129228161290d565b811461292d57600080fd5b50565b60008151905061293f81612919565b92915050565b60008060008060008060c087890312156129625761296161213a565b5b600061297089828a01612785565b965050602087015167ffffffffffffffff8111156129915761299061213f565b5b61299d89828a016128df565b955050604087015167ffffffffffffffff8111156129be576129bd61213f565b5b6129ca89828a016128df565b94505060606129db89828a01612785565b93505060806129ec89828a01612930565b92505060a06129fd89828a01612785565b9150509295509295509295565b7f494e56414c49443a2057524f4e475f5245434f52445f49440000000000000000600082015250565b6000612a406018836127c7565b9150612a4b82612a0a565b602082019050919050565b60006020820190508181036000830152612a6f81612a33565b9050919050565b6000604082019050612a8b6000830185612218565b612a986020830184612218565b9392505050565b7f554e415554484f52495a45443a204f4e4c595f5245434f5244535f434f4e545260008201527f4143540000000000000000000000000000000000000000000000000000000000602082015250565b6000612afb6023836127c7565b9150612b0682612a9f565b604082019050919050565b60006020820190508181036000830152612b2a81612aee565b9050919050565b600081519050919050565b6000612b4782612b31565b612b5181856127c7565b9350612b6181856020860161286a565b612b6a81612310565b840191505092915050565b60006040820190508181036000830152612b8f8185612b3c565b90508181036020830152612ba38184612b3c565b90509392505050565b60006020820190508181036000830152612bc68184612b3c565b905092915050565b600060208284031215612be457612be361213a565b5b6000612bf284828501612930565b91505092915050565b7f494e56414c49443a20544f4b454e5f53594d424f4c5f414c52454144595f494e60008201527f5f55534500000000000000000000000000000000000000000000000000000000602082015250565b6000612c576024836127c7565b9150612c6282612bfb565b604082019050919050565b60006020820190508181036000830152612c8681612c4a565b9050919050565b7f4e487b7100000000000000000000000000000000000000000000000000000000600052601260045260246000fd5b7f4e487b7100000000000000000000000000000000000000000000000000000000600052601160045260246000fd5b6000612cf6826121a2565b9150612d01836121a2565b925082612d1157612d10612c8d565b5b828204905092915050565b7f494e56414c49443a2054524541535552595f53484f554c445f484156455f353060008201527f255f4f465f535550504c59000000000000000000000000000000000000000000602082015250565b6000612d78602b836127c7565b9150612d8382612d1c565b604082019050919050565b60006020820190508181036000830152612da781612d6b565b9050919050565b600081519050612dbd81612176565b92915050565b600060208284031215612dd957612dd861213a565b5b6000612de784828501612dae565b91505092915050565b7f494e56414c49443a204f4e4c595f5245434f52445f4f574e4552000000000000600082015250565b6000612e26601a836127c7565b9150612e3182612df0565b602082019050919050565b60006020820190508181036000830152612e5581612e19565b9050919050565b60006101008284031215612e7357612e726124c4565b5b612e7e610100612381565b9050600082015167ffffffffffffffff811115612e9e57612e9d6124c9565b5b612eaa848285016128df565b600083015250602082015167ffffffffffffffff811115612ece57612ecd6124c9565b5b612eda848285016128df565b6020830152506040612eee84828501612785565b6040830152506060612f0284828501612785565b6060830152506080612f1684828501612dae565b60808301525060a082015167ffffffffffffffff811115612f3a57612f396124c9565b5b612f46848285016128df565b60a08301525060c0612f5a84828501612785565b60c08301525060e0612f6e84828501612930565b60e08301525092915050565b600060a08284031215612f9057612f8f6124c4565b5b612f9a60a0612381565b90506000612faa84828501612785565b6000830152506020612fbe84828501612785565b6020830152506040612fd284828501612785565b604083015250606082015167ffffffffffffffff811115612ff657612ff56124c9565b5b613002848285016128df565b606083015250608082015167ffffffffffffffff811115613026576130256124c9565b5b613032848285016128df565b60808301525092915050565b60008060008060008060008060006101208a8c0312156130615761306061213a565b5b60008a015167ffffffffffffffff81111561307f5761307e61213f565b5b61308b8c828d01612e5c565b99505060208a015167ffffffffffffffff8111156130ac576130ab61213f565b5b6130b88c828d01612f7a565b98505060408a015167ffffffffffffffff8111156130d9576130d861213f565b5b6130e58c828d01612f7a565b97505060606130f68c828d01612dae565b96505060806131078c828d01612785565b95505060a06131188c828d01612785565b94505060c06131298c828d01612785565b93505060e061313a8c828d01612930565b92505061010061314c8c828d01612930565b9150509295985092959850929598565b7f494e56414c49443a2043414e4e4f545f4352454154455f4e45575f564552534960008201527f4f4e5f544f4b454e530000000000000000000000000000000000000000000000602082015250565b60006131b86029836127c7565b91506131c38261315c565b604082019050919050565b600060208201905081810360008301526131e7816131ab565b9050919050565b7f494e56414c49443a20544f4b454e5f49445f414c52454144595f494e5f555345600082015250565b60006132246020836127c7565b915061322f826131ee565b602082019050919050565b6000602082019050818103600083015261325381613217565b9050919050565b613263816121a2565b82525050565b600082825260208201905092915050565b600061328582612b31565b61328f8185613269565b935061329f81856020860161286a565b6132a881612310565b840191505092915050565b600060a0830160008301516132cb600086018261325a565b5060208301516132de602086018261325a565b5060408301516132f1604086018261325a565b5060608301518482036060860152613309828261327a565b91505060808301518482036080860152613323828261327a565b9150508091505092915050565b6000602082019050818103600083015261334a81846132b3565b905092915050565b600060c082019050613367600083018961226f565b6133746020830188612218565b6133816040830187612218565b61338e6060830186612218565b61339b6080830185612218565b6133a860a083018461226f565b979650505050505050565b60006060820190506133c86000830186612218565b6133d56020830185612218565b6133e26040830184612218565b949350505050565b60006133f5826121a2565b9150613400836121a2565b92508282101561341357613412612cbc565b5b82820390509291505056fea2646970667358221220b5442d78a7a963acb45fe28a4fab2611947d2d970304180b891f1649bbeb72a564736f6c634300080c0033",
  "immutableReferences": {},
  "source": "pragma solidity ^0.8.0;\n\nimport \"@openzeppelin/contracts/token/ERC1155/ERC1155.sol\";\nimport \"@openzeppelin/contracts/token/ERC1155/IERC1155Receiver.sol\";\nimport \"@openzeppelin/contracts/token/ERC1155/extensions/ERC1155Supply.sol\";\nimport \"@openzeppelin/contracts/utils/Counters.sol\";\nimport \"@openzeppelin/contracts/access/Ownable.sol\";\nimport \"../interface/IRecords.sol\";\nimport \"../ERC1155/SnapshotERC1155.sol\";\nimport \"@openzeppelin/contracts/utils/math/SafeMath.sol\";\nimport \"../voting/VotingHubContract.sol\";\nimport \"./TreasuryCoreContract.sol\";\n\ncontract TreasuryContract {\n    uint256 public constant CRD = 1;\n    address public OWNER;\n    address public RECORDS_CONTRACT_ADDRESS;\n    address public CONTRIBUTION_VOTING_CONTRACT_ADDRESS;\n    address public DILUTION_CONTRACT_ADDRESS;\n    address public TREASURY_CORE_CONTRACT_ADDRESS;\n\n    constructor(address owner) {\n        OWNER = owner;\n    }\n\n    /// @dev Modifier to check that the person who accesses a specific function is the owner of contract himself.\n    modifier ownerOnly() {\n        require(msg.sender == OWNER, \"UNAUTHORIZED: CANNOT_PERFORM_ACTION\");\n        _;\n    }\n\n    /// @dev Modifier to check that the calls are made by records contract only\n    modifier onlyRecordsContract() {\n        require(\n            msg.sender == RECORDS_CONTRACT_ADDRESS,\n            \"UNAUTHORIZED: ONLY_RECORDS_CONTRACT\"\n        );\n        _;\n    }\n\n    /// @dev Modifier to check that if the sender is the voting contract or not.\n    modifier onlyContributionVotingContract() {\n        require(\n            msg.sender == CONTRIBUTION_VOTING_CONTRACT_ADDRESS,\n            \"UNAUTHORIZED: CANNOT_PERFORM_ACTION\"\n        );\n        _;\n    }\n\n    /// @dev Modifier to check that if the sender is the dilution contract or not.\n    modifier onlyDilutionContract() {\n        require(\n            msg.sender == DILUTION_CONTRACT_ADDRESS,\n            \"UNAUTHORIZED: CANNOT_PERFORM_ACTION\"\n        );\n        _;\n    }\n\n    /// @dev Modifier to check if the sender is authorized to create tokens for this record.\n    /// @param newTokenData This is the NewTokenData structure that needs to be passed to create a new token,\n    /// here it is passed to check if the token can be created with respected data\n    modifier canCreateToken(\n        TreasuryCoreContract.NewTokenData memory newTokenData\n    ) {\n        require(\n            newTokenData.totalSupply / 2 > newTokenData.userBalance,\n            \"INVALID: TREASURY_SHOULD_HAVE_50%_OF_SUPPLY\"\n        );\n\n        IRecords recordsContract = IRecords(RECORDS_CONTRACT_ADDRESS);\n\n        address owner = recordsContract.ownerOf(newTokenData.recordId);\n        require(owner == msg.sender, \"INVALID: ONLY_RECORD_OWNER\");\n\n        (, , , , , , , bool isPresent, bool isAccepted) = recordsContract\n            .newVersionRequestMap(newTokenData.recordId);\n\n        require(\n            isPresent == false,\n            \"INVALID: CANNOT_CREATE_NEW_VERSION_TOKENS\"\n        );\n\n        _;\n    }\n\n    /// @dev This function sets the Owners address\n    /// @param ownerAddress This is the address of new owner of contract\n    function setOwnerAddress(address ownerAddress) public ownerOnly {\n        OWNER = ownerAddress;\n    }\n\n    /// @dev This function sets the core treasury contract address\n    /// @param ownerAddress This is the address of new core treasury contract\n    function setCoreTreasuryAddress(address ownerAddress) public ownerOnly {\n        TREASURY_CORE_CONTRACT_ADDRESS = ownerAddress;\n    }\n\n    /// @dev This function sets the Records Contract address\n    /// @param newRecordsContractAddress This is the address of new Records contract\n    function setRecordsContractAddress(address newRecordsContractAddress)\n        public\n        ownerOnly\n    {\n        RECORDS_CONTRACT_ADDRESS = newRecordsContractAddress;\n    }\n\n    /// @dev This function sets the dilution Contract address\n    /// @param newDilutionContract This is the address of new dilution contract\n    function setDilutionContract(address newDilutionContract) public ownerOnly {\n        DILUTION_CONTRACT_ADDRESS = newDilutionContract;\n    }\n\n    /// @dev This function sets the Voting Contract address\n    /// @param newVotingContractAddress This is the address of new voting contract\n    function setContributionVotingContractAddress(\n        address newVotingContractAddress\n    ) public ownerOnly {\n        CONTRIBUTION_VOTING_CONTRACT_ADDRESS = newVotingContractAddress;\n    }\n\n    /// @dev This function creates new governance tokens for specified record\n    /// @param newTokenData This contains all the parameters needed to create a new governance token that are\n    function createNewGovernanceToken(\n        TreasuryCoreContract.NewTokenData memory newTokenData\n    ) external payable canCreateToken(newTokenData) returns (uint256) {\n        TreasuryCoreContract treasuryCoreContract = TreasuryCoreContract(\n            TREASURY_CORE_CONTRACT_ADDRESS\n        );\n        (, , , , bool isPresent, ) = treasuryCoreContract.govTokenMapping(\n            newTokenData.recordId\n        );\n        require(isPresent == false, \"INVALID: TOKEN_ID_ALREADY_IN_USE\");\n\n        bool isSymbolInUse = treasuryCoreContract.govTokenSym(\n            newTokenData.symbol\n        );\n        require(isSymbolInUse == false, \"INVALID: TOKEN_SYMBOL_ALREADY_IN_USE\");\n        return treasuryCoreContract.createNewGovernanceToken(newTokenData);\n    }\n\n    /// @dev This function creats new community tokens for specified record\n    /// @param newTokenData This contains all the parameters needed to create a new community token that are\n    function createNewCommunityToken(\n        TreasuryCoreContract.NewTokenData memory newTokenData\n    ) external payable canCreateToken(newTokenData) returns (uint256) {\n        TreasuryCoreContract treasuryCoreContract = TreasuryCoreContract(\n            TREASURY_CORE_CONTRACT_ADDRESS\n        );\n        (, , , , bool isPresent, ) = treasuryCoreContract.govTokenMapping(\n            newTokenData.recordId\n        );\n        require(isPresent == false, \"INVALID: TOKEN_ID_ALREADY_IN_USE\");\n\n        bool isSymbolInUse = treasuryCoreContract.govTokenSym(\n            newTokenData.symbol\n        );\n        require(isSymbolInUse == false, \"INVALID: TOKEN_SYMBOL_ALREADY_IN_USE\");\n        return treasuryCoreContract.createNewCommunityToken(newTokenData);\n    }\n\n    ///! @dev This function creates new governance tokens for specified record\n    function createNewGovernanceToken(\n        uint256 recordId,\n        uint256 totalSupply,\n        uint256 userBalance,\n        string memory symbol,\n        string memory image\n    ) external payable onlyRecordsContract returns (uint256) {\n        TreasuryCoreContract treasuryCoreContract = TreasuryCoreContract(\n            TREASURY_CORE_CONTRACT_ADDRESS\n        );\n        TreasuryCoreContract.NewTokenData\n            memory newTokenData = TreasuryCoreContract.NewTokenData(\n                recordId,\n                totalSupply,\n                userBalance,\n                symbol,\n                image\n            );\n        return treasuryCoreContract.createNewGovernanceToken(newTokenData);\n    }\n\n    /// @dev This function creats new community tokens for specified record\n    /// @param recordId This is the id of the record to which the token belongs to\n    /// @param tokenId This is the id of the which is to be minted\n    /// @param tokenAmount This is the amount that is to be minted\n    function mintTokens(\n        uint256 recordId,\n        uint256 tokenId,\n        uint256 tokenAmount\n    ) external payable onlyContributionVotingContract {\n        // call super method\n        TreasuryCoreContract treasuryCoreContract = TreasuryCoreContract(\n            TREASURY_CORE_CONTRACT_ADDRESS\n        );\n        treasuryCoreContract.mintTokens(recordId, tokenId, tokenAmount);\n    }\n\n    /// @dev This function is called only by the voting contract once the voting ends\n    /// @param to This is the receivers address\n    /// @param recordId This is the recordId to which the contribution belongs to\n    /// @param contributionId this is the contribution id to which the user has won\n    /// @param rewardGovernance this is the amount of Governance token that needs to be transferred\n    /// @param rewardCommunity this is the amount of community token that needs to be transferred\n    function transferRewardAmount(\n        address to,\n        uint256 recordId,\n        uint256 contributionId,\n        uint256 rewardGovernance,\n        uint256 rewardCommunity\n    ) external payable onlyContributionVotingContract {\n        TreasuryCoreContract treasuryCoreContract = TreasuryCoreContract(\n            TREASURY_CORE_CONTRACT_ADDRESS\n        );\n        // call super method\n        treasuryCoreContract.transferRewardAmount(\n            to,\n            recordId,\n            contributionId,\n            rewardGovernance,\n            rewardCommunity,\n            CONTRIBUTION_VOTING_CONTRACT_ADDRESS\n        );\n    }\n\n    /// @dev This function gives you the community token id of the recordId that you pass\n    /// @param recordId This is the Id of the token that you want to check\n    function getCommunityTokenId(uint256 recordId)\n        public\n        view\n        returns (uint256)\n    {\n        TreasuryCoreContract treasuryCoreContract = TreasuryCoreContract(\n            TREASURY_CORE_CONTRACT_ADDRESS\n        );\n        (, , , , bool isPresent, uint256 tokenId) = treasuryCoreContract\n            .commTokenMapping(recordId);\n        if (isPresent) {\n            return tokenId;\n        } else {\n            revert(\"INVALID: WRONG_RECORD_ID\");\n        }\n    }\n\n    /// @dev This function gives you the governance token id of the recordId that you pass\n    /// @param recordId This is the Id of the token that you want to check\n    function getGovernanceTokenId(uint256 recordId)\n        public\n        view\n        returns (uint256)\n    {\n        TreasuryCoreContract treasuryCoreContract = TreasuryCoreContract(\n            TREASURY_CORE_CONTRACT_ADDRESS\n        );\n        (, , , , bool isPresent, uint256 tokenId) = treasuryCoreContract\n            .govTokenMapping(recordId);\n        if (isPresent) {\n            return tokenId;\n        } else {\n            revert(\"INVALID: WRONG_RECORD_ID\");\n        }\n    }\n\n    /// @dev This function returns the amount of total tokens that are in circulation\n    /// @param tokenId This is the token whose circulating supply you  want to find out\n    function totalCirculatingSupply(uint256 tokenId)\n        public\n        view\n        returns (uint256)\n    {\n        TreasuryCoreContract treasuryCoreContract = TreasuryCoreContract(\n            TREASURY_CORE_CONTRACT_ADDRESS\n        );\n        uint256 totalCirculatingBalance = SafeMath.sub(\n            treasuryCoreContract.totalSupply(tokenId),\n            treasuryCoreContract.balanceOf(\n                TREASURY_CORE_CONTRACT_ADDRESS,\n                tokenId\n            )\n        );\n\n        return totalCirculatingBalance;\n    }\n\n    /// @dev This function returns the amount of total tokens that are in circulation\n    /// @param tokenId This is the token whose circulating supply you  want to find out\n    function balanceOf(address account, uint256 tokenId)\n        public\n        view\n        returns (uint256)\n    {\n        TreasuryCoreContract treasuryCoreContract = TreasuryCoreContract(\n            TREASURY_CORE_CONTRACT_ADDRESS\n        );\n\n        return treasuryCoreContract.balanceOf(account, tokenId);\n    }\n\n    /// @dev This function sets the symbol name as used, this function is called from records\n    // contract to reserve symbol for new version creation\n    /// @param governanceSymbol Symbol for governance token\n    /// @param communitySymbol Symbol for community token\n    function setSymbolsAsUsed(\n        string memory governanceSymbol,\n        string memory communitySymbol\n    ) external onlyRecordsContract {\n        TreasuryCoreContract treasuryCoreContract = TreasuryCoreContract(\n            TREASURY_CORE_CONTRACT_ADDRESS\n        );\n        require(\n            treasuryCoreContract.govTokenSym(governanceSymbol) == false,\n            \"INVALID: TOKEN_SYMBOL_ALREADY_IN_USE\"\n        );\n\n        require(\n            treasuryCoreContract.commTokenSym(communitySymbol) == false,\n            \"INVALID: TOKEN_SYMBOL_ALREADY_IN_USE\"\n        );\n        treasuryCoreContract.setSymbolsAsUsed(\n            governanceSymbol,\n            communitySymbol\n        );\n    }\n\n    /// @dev This function sets the symbol name as available, this function is called from records\n    // contract to reserve symbol for new version creation\n    /// @param governanceSymbol Symbol for governance token\n    /// @param communitySymbol Symbol for community token\n    function setSymbolsAsAvailable(\n        string memory governanceSymbol,\n        string memory communitySymbol\n    ) external onlyRecordsContract {\n        TreasuryCoreContract treasuryCoreContract = TreasuryCoreContract(\n            TREASURY_CORE_CONTRACT_ADDRESS\n        );\n        treasuryCoreContract.setSymbolsAsAvailable(\n            governanceSymbol,\n            communitySymbol\n        );\n    }\n\n    function snapshot() public returns (uint256 snapshotId) {\n        TreasuryCoreContract treasuryCoreContract = TreasuryCoreContract(\n            TREASURY_CORE_CONTRACT_ADDRESS\n        );\n        return treasuryCoreContract.snapshot();\n    }\n\n    /// @dev this function is responsible for minting of new tokens for records\n    /// @param tokenId Id this is the tokenId that is to minted\n    /// @param amount the amount that is to be minted\n    function mintTokens(uint256 tokenId, uint256 amount)\n        public\n        onlyDilutionContract\n    {\n        TreasuryCoreContract treasuryCoreContract = TreasuryCoreContract(\n            TREASURY_CORE_CONTRACT_ADDRESS\n        );\n        treasuryCoreContract.mint(tokenId, amount);\n    }\n}\n",
  "sourcePath": "/Users/a1/Desktop/Office/projects/CrowdRecords/Contracts/contracts/treasury/TreasuryContract.sol",
  "compiler": {
    "name": "solc",
    "version": "0.8.12+commit.f00d7308.Emscripten.clang"
  },
  "schemaVersion": "3.4.6",
  "updatedAt": "2022-09-27T05:37:28.553Z",
  "devdoc": {
    "kind": "dev",
    "methods": {
      "balanceOf(address,uint256)": {
        "details": "This function returns the amount of total tokens that are in circulation",
        "params": {
          "tokenId": "This is the token whose circulating supply you  want to find out"
        }
      },
      "createNewCommunityToken((uint256,uint256,uint256,string,string))": {
        "details": "This function creats new community tokens for specified record",
        "params": {
          "newTokenData": "This contains all the parameters needed to create a new community token that are"
        }
      },
      "createNewGovernanceToken((uint256,uint256,uint256,string,string))": {
        "details": "This function creates new governance tokens for specified record",
        "params": {
          "newTokenData": "This contains all the parameters needed to create a new governance token that are"
        }
      },
      "createNewGovernanceToken(uint256,uint256,uint256,string,string)": {
        "details": "This function creates new governance tokens for specified record"
      },
      "getCommunityTokenId(uint256)": {
        "details": "This function gives you the community token id of the recordId that you pass",
        "params": {
          "recordId": "This is the Id of the token that you want to check"
        }
      },
      "getGovernanceTokenId(uint256)": {
        "details": "This function gives you the governance token id of the recordId that you pass",
        "params": {
          "recordId": "This is the Id of the token that you want to check"
        }
      },
      "mintTokens(uint256,uint256)": {
        "details": "this function is responsible for minting of new tokens for records",
        "params": {
          "amount": "the amount that is to be minted",
          "tokenId": "Id this is the tokenId that is to minted"
        }
      },
      "mintTokens(uint256,uint256,uint256)": {
        "details": "This function creats new community tokens for specified record",
        "params": {
          "recordId": "This is the id of the record to which the token belongs to",
          "tokenAmount": "This is the amount that is to be minted",
          "tokenId": "This is the id of the which is to be minted"
        }
      },
      "setContributionVotingContractAddress(address)": {
        "details": "This function sets the Voting Contract address",
        "params": {
          "newVotingContractAddress": "This is the address of new voting contract"
        }
      },
      "setCoreTreasuryAddress(address)": {
        "details": "This function sets the core treasury contract address",
        "params": {
          "ownerAddress": "This is the address of new core treasury contract"
        }
      },
      "setDilutionContract(address)": {
        "details": "This function sets the dilution Contract address",
        "params": {
          "newDilutionContract": "This is the address of new dilution contract"
        }
      },
      "setOwnerAddress(address)": {
        "details": "This function sets the Owners address",
        "params": {
          "ownerAddress": "This is the address of new owner of contract"
        }
      },
      "setRecordsContractAddress(address)": {
        "details": "This function sets the Records Contract address",
        "params": {
          "newRecordsContractAddress": "This is the address of new Records contract"
        }
      },
      "setSymbolsAsAvailable(string,string)": {
        "params": {
          "communitySymbol": "Symbol for community token",
          "governanceSymbol": "Symbol for governance token"
        }
      },
      "setSymbolsAsUsed(string,string)": {
        "params": {
          "communitySymbol": "Symbol for community token",
          "governanceSymbol": "Symbol for governance token"
        }
      },
      "totalCirculatingSupply(uint256)": {
        "details": "This function returns the amount of total tokens that are in circulation",
        "params": {
          "tokenId": "This is the token whose circulating supply you  want to find out"
        }
      },
      "transferRewardAmount(address,uint256,uint256,uint256,uint256)": {
        "details": "This function is called only by the voting contract once the voting ends",
        "params": {
          "contributionId": "this is the contribution id to which the user has won",
          "recordId": "This is the recordId to which the contribution belongs to",
          "rewardCommunity": "this is the amount of community token that needs to be transferred",
          "rewardGovernance": "this is the amount of Governance token that needs to be transferred",
          "to": "This is the receivers address"
        }
      }
    },
    "version": 1
  },
  "userdoc": {
    "kind": "user",
    "methods": {},
    "version": 1
  }
}