{
  "contractName": "TreasuryContract",
  "abi": [
    {
      "inputs": [],
      "stateMutability": "nonpayable",
      "type": "constructor"
    },
    {
      "anonymous": false,
      "inputs": [
        {
          "indexed": true,
          "internalType": "address",
          "name": "account",
          "type": "address"
        },
        {
          "indexed": true,
          "internalType": "address",
          "name": "operator",
          "type": "address"
        },
        {
          "indexed": false,
          "internalType": "bool",
          "name": "approved",
          "type": "bool"
        }
      ],
      "name": "ApprovalForAll",
      "type": "event"
    },
    {
      "anonymous": false,
      "inputs": [
        {
          "indexed": false,
          "internalType": "address",
          "name": "to",
          "type": "address"
        },
        {
          "indexed": false,
          "internalType": "uint256",
          "name": "recordId",
          "type": "uint256"
        },
        {
          "indexed": false,
          "internalType": "uint256",
          "name": "contributionId",
          "type": "uint256"
        },
        {
          "indexed": false,
          "internalType": "uint256",
          "name": "rewardGovernance",
          "type": "uint256"
        },
        {
          "indexed": false,
          "internalType": "uint256",
          "name": "rewardCommunity",
          "type": "uint256"
        }
      ],
      "name": "ContributionRewardTransfered",
      "type": "event"
    },
    {
      "anonymous": false,
      "inputs": [
        {
          "indexed": false,
          "internalType": "uint256",
          "name": "recordId",
          "type": "uint256"
        },
        {
          "indexed": false,
          "internalType": "string",
          "name": "symbol",
          "type": "string"
        },
        {
          "indexed": false,
          "internalType": "string",
          "name": "image",
          "type": "string"
        },
        {
          "indexed": false,
          "internalType": "uint256",
          "name": "creationDate",
          "type": "uint256"
        },
        {
          "indexed": false,
          "internalType": "uint256",
          "name": "tokenAmount",
          "type": "uint256"
        },
        {
          "indexed": false,
          "internalType": "uint256",
          "name": "tokenId",
          "type": "uint256"
        },
        {
          "indexed": false,
          "internalType": "uint8",
          "name": "tokenType",
          "type": "uint8"
        }
      ],
      "name": "NewTokenCreated",
      "type": "event"
    },
    {
      "anonymous": false,
      "inputs": [
        {
          "indexed": false,
          "internalType": "uint256",
          "name": "id",
          "type": "uint256"
        }
      ],
      "name": "Snapshot",
      "type": "event"
    },
    {
      "anonymous": false,
      "inputs": [
        {
          "indexed": false,
          "internalType": "uint256",
          "name": "recordId",
          "type": "uint256"
        },
        {
          "indexed": false,
          "internalType": "uint256",
          "name": "tokenId",
          "type": "uint256"
        },
        {
          "indexed": false,
          "internalType": "uint256",
          "name": "creationDate",
          "type": "uint256"
        },
        {
          "indexed": false,
          "internalType": "uint256",
          "name": "tokenAmount",
          "type": "uint256"
        }
      ],
      "name": "TokenMinted",
      "type": "event"
    },
    {
      "anonymous": false,
      "inputs": [
        {
          "indexed": false,
          "internalType": "address",
          "name": "from",
          "type": "address"
        },
        {
          "indexed": false,
          "internalType": "address",
          "name": "to",
          "type": "address"
        },
        {
          "indexed": false,
          "internalType": "uint256",
          "name": "transferDate",
          "type": "uint256"
        },
        {
          "indexed": false,
          "internalType": "uint256",
          "name": "tokenId",
          "type": "uint256"
        },
        {
          "indexed": false,
          "internalType": "uint256",
          "name": "amount",
          "type": "uint256"
        },
        {
          "indexed": false,
          "internalType": "string",
          "name": "symbol",
          "type": "string"
        }
      ],
      "name": "TokenTransfer",
      "type": "event"
    },
    {
      "anonymous": false,
      "inputs": [
        {
          "indexed": true,
          "internalType": "address",
          "name": "operator",
          "type": "address"
        },
        {
          "indexed": true,
          "internalType": "address",
          "name": "from",
          "type": "address"
        },
        {
          "indexed": true,
          "internalType": "address",
          "name": "to",
          "type": "address"
        },
        {
          "indexed": false,
          "internalType": "uint256[]",
          "name": "ids",
          "type": "uint256[]"
        },
        {
          "indexed": false,
          "internalType": "uint256[]",
          "name": "values",
          "type": "uint256[]"
        }
      ],
      "name": "TransferBatch",
      "type": "event"
    },
    {
      "anonymous": false,
      "inputs": [
        {
          "indexed": true,
          "internalType": "address",
          "name": "operator",
          "type": "address"
        },
        {
          "indexed": true,
          "internalType": "address",
          "name": "from",
          "type": "address"
        },
        {
          "indexed": true,
          "internalType": "address",
          "name": "to",
          "type": "address"
        },
        {
          "indexed": false,
          "internalType": "uint256",
          "name": "id",
          "type": "uint256"
        },
        {
          "indexed": false,
          "internalType": "uint256",
          "name": "value",
          "type": "uint256"
        }
      ],
      "name": "TransferSingle",
      "type": "event"
    },
    {
      "anonymous": false,
      "inputs": [
        {
          "indexed": false,
          "internalType": "string",
          "name": "value",
          "type": "string"
        },
        {
          "indexed": true,
          "internalType": "uint256",
          "name": "id",
          "type": "uint256"
        }
      ],
      "name": "URI",
      "type": "event"
    },
    {
      "inputs": [],
      "name": "CONTRIBUTION_VOTING_CONTRACT_ADDRESS",
      "outputs": [
        {
          "internalType": "address",
          "name": "",
          "type": "address"
        }
      ],
      "stateMutability": "view",
      "type": "function"
    },
    {
      "inputs": [],
      "name": "CRD",
      "outputs": [
        {
          "internalType": "uint256",
          "name": "",
          "type": "uint256"
        }
      ],
      "stateMutability": "view",
      "type": "function"
    },
    {
      "inputs": [],
      "name": "RECORDS_CONTRACT_ADDRESS",
      "outputs": [
        {
          "internalType": "address",
          "name": "",
          "type": "address"
        }
      ],
      "stateMutability": "view",
      "type": "function"
    },
    {
      "inputs": [
        {
          "internalType": "address",
          "name": "account",
          "type": "address"
        },
        {
          "internalType": "uint256",
          "name": "id",
          "type": "uint256"
        }
      ],
      "name": "balanceOf",
      "outputs": [
        {
          "internalType": "uint256",
          "name": "",
          "type": "uint256"
        }
      ],
      "stateMutability": "view",
      "type": "function"
    },
    {
      "inputs": [
        {
          "internalType": "address",
          "name": "account",
          "type": "address"
        },
        {
          "internalType": "uint256",
          "name": "snapshotId",
          "type": "uint256"
        },
        {
          "internalType": "uint256",
          "name": "tokenId",
          "type": "uint256"
        }
      ],
      "name": "balanceOfAt",
      "outputs": [
        {
          "internalType": "uint256",
          "name": "",
          "type": "uint256"
        }
      ],
      "stateMutability": "view",
      "type": "function"
    },
    {
      "inputs": [
        {
          "internalType": "address[]",
          "name": "accounts",
          "type": "address[]"
        },
        {
          "internalType": "uint256[]",
          "name": "ids",
          "type": "uint256[]"
        }
      ],
      "name": "balanceOfBatch",
      "outputs": [
        {
          "internalType": "uint256[]",
          "name": "",
          "type": "uint256[]"
        }
      ],
      "stateMutability": "view",
      "type": "function"
    },
    {
      "inputs": [
        {
          "internalType": "uint256",
          "name": "id",
          "type": "uint256"
        }
      ],
      "name": "exists",
      "outputs": [
        {
          "internalType": "bool",
          "name": "",
          "type": "bool"
        }
      ],
      "stateMutability": "view",
      "type": "function"
    },
    {
      "inputs": [
        {
          "internalType": "address",
          "name": "account",
          "type": "address"
        },
        {
          "internalType": "address",
          "name": "operator",
          "type": "address"
        }
      ],
      "name": "isApprovedForAll",
      "outputs": [
        {
          "internalType": "bool",
          "name": "",
          "type": "bool"
        }
      ],
      "stateMutability": "view",
      "type": "function"
    },
    {
      "inputs": [
        {
          "internalType": "address",
          "name": "from",
          "type": "address"
        },
        {
          "internalType": "address",
          "name": "to",
          "type": "address"
        },
        {
          "internalType": "uint256[]",
          "name": "ids",
          "type": "uint256[]"
        },
        {
          "internalType": "uint256[]",
          "name": "amounts",
          "type": "uint256[]"
        },
        {
          "internalType": "bytes",
          "name": "data",
          "type": "bytes"
        }
      ],
      "name": "safeBatchTransferFrom",
      "outputs": [],
      "stateMutability": "nonpayable",
      "type": "function"
    },
    {
      "inputs": [
        {
          "internalType": "address",
          "name": "from",
          "type": "address"
        },
        {
          "internalType": "address",
          "name": "to",
          "type": "address"
        },
        {
          "internalType": "uint256",
          "name": "id",
          "type": "uint256"
        },
        {
          "internalType": "uint256",
          "name": "amount",
          "type": "uint256"
        },
        {
          "internalType": "bytes",
          "name": "data",
          "type": "bytes"
        }
      ],
      "name": "safeTransferFrom",
      "outputs": [],
      "stateMutability": "nonpayable",
      "type": "function"
    },
    {
      "inputs": [
        {
          "internalType": "address",
          "name": "operator",
          "type": "address"
        },
        {
          "internalType": "bool",
          "name": "approved",
          "type": "bool"
        }
      ],
      "name": "setApprovalForAll",
      "outputs": [],
      "stateMutability": "nonpayable",
      "type": "function"
    },
    {
      "inputs": [],
      "name": "snap",
      "outputs": [
        {
          "internalType": "uint256",
          "name": "",
          "type": "uint256"
        }
      ],
      "stateMutability": "nonpayable",
      "type": "function"
    },
    {
      "inputs": [
        {
          "internalType": "bytes4",
          "name": "interfaceId",
          "type": "bytes4"
        }
      ],
      "name": "supportsInterface",
      "outputs": [
        {
          "internalType": "bool",
          "name": "",
          "type": "bool"
        }
      ],
      "stateMutability": "view",
      "type": "function"
    },
    {
      "inputs": [
        {
          "internalType": "uint256",
          "name": "id",
          "type": "uint256"
        }
      ],
      "name": "totalSupply",
      "outputs": [
        {
          "internalType": "uint256",
          "name": "",
          "type": "uint256"
        }
      ],
      "stateMutability": "view",
      "type": "function"
    },
    {
      "inputs": [
        {
          "internalType": "uint256",
          "name": "snapshotId",
          "type": "uint256"
        },
        {
          "internalType": "uint256",
          "name": "tokenId",
          "type": "uint256"
        }
      ],
      "name": "totalSupplyAt",
      "outputs": [
        {
          "internalType": "uint256",
          "name": "",
          "type": "uint256"
        }
      ],
      "stateMutability": "view",
      "type": "function"
    },
    {
      "inputs": [
        {
          "internalType": "uint256",
          "name": "",
          "type": "uint256"
        }
      ],
      "name": "uri",
      "outputs": [
        {
          "internalType": "string",
          "name": "",
          "type": "string"
        }
      ],
      "stateMutability": "view",
      "type": "function"
    },
    {
      "inputs": [
        {
          "internalType": "address",
          "name": "newRecordsContractAddress",
          "type": "address"
        }
      ],
      "name": "setRecordsContractAddress",
      "outputs": [],
      "stateMutability": "nonpayable",
      "type": "function"
    },
    {
      "inputs": [
        {
          "internalType": "address",
          "name": "newVotingContractAddress",
          "type": "address"
        }
      ],
      "name": "setContributionVotingContractAddress",
      "outputs": [],
      "stateMutability": "nonpayable",
      "type": "function"
    },
    {
      "inputs": [
        {
          "components": [
            {
              "internalType": "uint256",
              "name": "recordId",
              "type": "uint256"
            },
            {
              "internalType": "uint256",
              "name": "totalSupply",
              "type": "uint256"
            },
            {
              "internalType": "uint256",
              "name": "userBalance",
              "type": "uint256"
            },
            {
              "internalType": "string",
              "name": "symbol",
              "type": "string"
            },
            {
              "internalType": "string",
              "name": "image",
              "type": "string"
            }
          ],
          "internalType": "struct TreasuryContract.NewTokenData",
          "name": "newTokenData",
          "type": "tuple"
        }
      ],
      "name": "createNewGovernanceToken",
      "outputs": [
        {
          "internalType": "uint256",
          "name": "",
          "type": "uint256"
        }
      ],
      "stateMutability": "payable",
      "type": "function"
    },
    {
      "inputs": [
        {
          "components": [
            {
              "internalType": "uint256",
              "name": "recordId",
              "type": "uint256"
            },
            {
              "internalType": "uint256",
              "name": "totalSupply",
              "type": "uint256"
            },
            {
              "internalType": "uint256",
              "name": "userBalance",
              "type": "uint256"
            },
            {
              "internalType": "string",
              "name": "symbol",
              "type": "string"
            },
            {
              "internalType": "string",
              "name": "image",
              "type": "string"
            }
          ],
          "internalType": "struct TreasuryContract.NewTokenData",
          "name": "newTokenData",
          "type": "tuple"
        }
      ],
      "name": "createNewCommunityToken",
      "outputs": [
        {
          "internalType": "uint256",
          "name": "",
          "type": "uint256"
        }
      ],
      "stateMutability": "payable",
      "type": "function"
    },
    {
      "inputs": [
        {
          "internalType": "uint256",
          "name": "recordId",
          "type": "uint256"
        },
        {
          "internalType": "uint256",
          "name": "tokenId",
          "type": "uint256"
        },
        {
          "internalType": "uint256",
          "name": "tokenAmount",
          "type": "uint256"
        }
      ],
      "name": "mintTokens",
      "outputs": [],
      "stateMutability": "payable",
      "type": "function"
    },
    {
      "inputs": [
        {
          "internalType": "address",
          "name": "to",
          "type": "address"
        },
        {
          "internalType": "uint256",
          "name": "recordId",
          "type": "uint256"
        },
        {
          "internalType": "uint256",
          "name": "contributionId",
          "type": "uint256"
        },
        {
          "internalType": "uint256",
          "name": "rewardGovernance",
          "type": "uint256"
        },
        {
          "internalType": "uint256",
          "name": "rewardCommunity",
          "type": "uint256"
        }
      ],
      "name": "transferRewardAmount",
      "outputs": [],
      "stateMutability": "payable",
      "type": "function"
    },
    {
      "inputs": [
        {
          "internalType": "uint256",
          "name": "recordId",
          "type": "uint256"
        }
      ],
      "name": "getCommunityTokenId",
      "outputs": [
        {
          "internalType": "uint256",
          "name": "",
          "type": "uint256"
        }
      ],
      "stateMutability": "view",
      "type": "function"
    },
    {
      "inputs": [
        {
          "internalType": "uint256",
          "name": "recordId",
          "type": "uint256"
        }
      ],
      "name": "getGovernanceTokenId",
      "outputs": [
        {
          "internalType": "uint256",
          "name": "",
          "type": "uint256"
        }
      ],
      "stateMutability": "view",
      "type": "function"
    },
    {
      "inputs": [
        {
          "internalType": "uint256",
          "name": "tokenId",
          "type": "uint256"
        }
      ],
      "name": "totalCirculatingSupply",
      "outputs": [
        {
          "internalType": "uint256",
          "name": "",
          "type": "uint256"
        }
      ],
      "stateMutability": "view",
      "type": "function"
    },
    {
      "inputs": [],
      "name": "snapshot",
      "outputs": [
        {
          "internalType": "uint256",
          "name": "snapshotId",
          "type": "uint256"
        }
      ],
      "stateMutability": "nonpayable",
      "type": "function"
    },
    {
      "inputs": [
        {
          "internalType": "address",
          "name": "operator",
          "type": "address"
        },
        {
          "internalType": "address",
          "name": "from",
          "type": "address"
        },
        {
          "internalType": "uint256",
          "name": "id",
          "type": "uint256"
        },
        {
          "internalType": "uint256",
          "name": "value",
          "type": "uint256"
        },
        {
          "internalType": "bytes",
          "name": "data",
          "type": "bytes"
        }
      ],
      "name": "onERC1155Received",
      "outputs": [
        {
          "internalType": "bytes4",
          "name": "",
          "type": "bytes4"
        }
      ],
      "stateMutability": "nonpayable",
      "type": "function"
    },
    {
      "inputs": [
        {
          "internalType": "address",
          "name": "operator",
          "type": "address"
        },
        {
          "internalType": "address",
          "name": "from",
          "type": "address"
        },
        {
          "internalType": "uint256[]",
          "name": "ids",
          "type": "uint256[]"
        },
        {
          "internalType": "uint256[]",
          "name": "values",
          "type": "uint256[]"
        },
        {
          "internalType": "bytes",
          "name": "data",
          "type": "bytes"
        }
      ],
      "name": "onERC1155BatchReceived",
      "outputs": [
        {
          "internalType": "bytes4",
          "name": "",
          "type": "bytes4"
        }
      ],
      "stateMutability": "nonpayable",
      "type": "function"
    }
  ],
  "bytecode": "0x608060405260016007556040518060400160405280600581526020017f435244475f000000000000000000000000000000000000000000000000000000815250600b90805190602001906200005692919062000c63565b506040518060400160405280600481526020017f4352445f00000000000000000000000000000000000000000000000000000000815250600c9080519060200190620000a492919062000c63565b506000600d60006101000a81548160ff021916908360ff1602179055506001600d60016101000a81548160ff021916908360ff160217905550348015620000ea57600080fd5b506040518060400160405280601d81526020017f68747470733a2f2f63726f77647265636f7264732e636f6d2f7b69647d0000008152506200013281620001ce60201b60201c565b506200018733600169d3c21bcecceda10000006040518060400160405280601881526020017f68747470733a2f2f63726f77647265636f7264732e636f6d0000000000000000815250620001ea60201b60201c565b33600a60006101000a81548173ffffffffffffffffffffffffffffffffffffffff021916908373ffffffffffffffffffffffffffffffffffffffff16021790555062001509565b8060029080519060200190620001e692919062000c63565b5050565b600073ffffffffffffffffffffffffffffffffffffffff168473ffffffffffffffffffffffffffffffffffffffff1614156200025d576040517f08c379a0000000000000000000000000000000000000000000000000000000008152600401620002549062000d9a565b60405180910390fd5b60006200026f620003af60201b60201c565b9050620002a8816000876200028a88620003b760201b60201c565b6200029b88620003b760201b60201c565b876200043860201b60201c565b8260008086815260200190815260200160002060008773ffffffffffffffffffffffffffffffffffffffff1673ffffffffffffffffffffffffffffffffffffffff168152602001908152602001600020600082825462000309919062000df5565b925050819055508473ffffffffffffffffffffffffffffffffffffffff16600073ffffffffffffffffffffffffffffffffffffffff168273ffffffffffffffffffffffffffffffffffffffff167fc3d58168c5ae7397731d063d5bbf3d657854427343f4c083240f7aacaa2d0f6287876040516200038992919062000e63565b60405180910390a4620003a8816000878787876200053f60201b60201c565b5050505050565b600033905090565b60606000600167ffffffffffffffff811115620003d957620003d862000e90565b5b604051908082528060200260200182016040528015620004085781602001602082028036833780820191505090505b509050828160008151811062000423576200042262000ebf565b5b60200260200101818152505080915050919050565b620004538686868686866200073960201b62001e071760201c565b600073ffffffffffffffffffffffffffffffffffffffff168573ffffffffffffffffffffffffffffffffffffffff161415620004b2576200049b8484620008da60201b60201c565b620004ac83620009ae60201b60201c565b62000537565b600073ffffffffffffffffffffffffffffffffffffffff168473ffffffffffffffffffffffffffffffffffffffff1614156200051157620004fa8584620008da60201b60201c565b6200050b83620009ae60201b60201c565b62000536565b620005238584620008da60201b60201c565b620005358484620008da60201b60201c565b5b5b505050505050565b6200056b8473ffffffffffffffffffffffffffffffffffffffff1662000a4360201b62001f811760201c565b1562000731578373ffffffffffffffffffffffffffffffffffffffff1663f23a6e6187878686866040518663ffffffff1660e01b8152600401620005b495949392919062000fd7565b6020604051808303816000875af1925050508015620005f357506040513d601f19601f82011682018060405250810190620005f09190620010a7565b60015b620006a55762000602620010e6565b806308c379a014156200066657506200061a62001141565b8062000627575062000668565b806040517f08c379a00000000000000000000000000000000000000000000000000000000081526004016200065d91906200122f565b60405180910390fd5b505b6040517f08c379a00000000000000000000000000000000000000000000000000000000081526004016200069c90620012c9565b60405180910390fd5b63f23a6e6160e01b7bffffffffffffffffffffffffffffffffffffffffffffffffffffffff1916817bffffffffffffffffffffffffffffffffffffffffffffffffffffffff1916146200072f576040517f08c379a0000000000000000000000000000000000000000000000000000000008152600401620007269062001361565b60405180910390fd5b505b505050505050565b6200075486868686868662000a6660201b62001fa41760201c565b600073ffffffffffffffffffffffffffffffffffffffff168573ffffffffffffffffffffffffffffffffffffffff161415620008135760005b83518110156200081157828181518110620007ad57620007ac62000ebf565b5b602002602001015160036000868481518110620007cf57620007ce62000ebf565b5b602002602001015181526020019081526020016000206000828254620007f6919062000df5565b9250508190555080620008099062001383565b90506200078d565b505b600073ffffffffffffffffffffffffffffffffffffffff168473ffffffffffffffffffffffffffffffffffffffff161415620008d25760005b8351811015620008d0578281815181106200086c576200086b62000ebf565b5b6020026020010151600360008684815181106200088e576200088d62000ebf565b5b602002602001015181526020019081526020016000206000828254620008b59190620013d1565b9250508190555080620008c89062001383565b90506200084c565b505b505050505050565b60005b8151811015620009a95762000993600460008573ffffffffffffffffffffffffffffffffffffffff1673ffffffffffffffffffffffffffffffffffffffff168152602001908152602001600020600084848151811062000942576200094162000ebf565b5b60200260200101518152602001908152602001600020620009878585858151811062000973576200097262000ebf565b5b602002602001015162000a6e60201b60201c565b62000b3a60201b60201c565b8080620009a09062001383565b915050620008dd565b505050565b60005b815181101562000a3f5762000a2960056000848481518110620009d957620009d862000ebf565b5b6020026020010151815260200190815260200160002062000a1d84848151811062000a095762000a0862000ebf565b5b602002602001015162000bc660201b60201c565b62000b3a60201b60201c565b808062000a369062001383565b915050620009b1565b5050565b6000808273ffffffffffffffffffffffffffffffffffffffff163b119050919050565b505050505050565b60008073ffffffffffffffffffffffffffffffffffffffff168373ffffffffffffffffffffffffffffffffffffffff16141562000ae2576040517f08c379a000000000000000000000000000000000000000000000000000000000815260040162000ad99062001482565b60405180910390fd5b60008083815260200190815260200160002060008473ffffffffffffffffffffffffffffffffffffffff1673ffffffffffffffffffffffffffffffffffffffff16815260200190815260200160002054905092915050565b600062000b4c62000be360201b60201c565b90508062000b638460000162000c0160201b60201c565b101562000bc15782600001819080600181540180825580915050600190039060005260206000200160009091909190915055826001018290806001815401808255809150506001900390600052602060002001600090919091909150555b505050565b600060036000838152602001908152602001600020549050919050565b600062000bfc600662000c5560201b62001fac1760201c565b905090565b6000808280549050141562000c1a576000905062000c50565b816001838054905062000c2e9190620013d1565b8154811062000c425762000c4162000ebf565b5b906000526020600020015490505b919050565b600081600001549050919050565b82805462000c7190620014d3565b90600052602060002090601f01602090048101928262000c95576000855562000ce1565b82601f1062000cb057805160ff191683800117855562000ce1565b8280016001018555821562000ce1579182015b8281111562000ce057825182559160200191906001019062000cc3565b5b50905062000cf0919062000cf4565b5090565b5b8082111562000d0f57600081600090555060010162000cf5565b5090565b600082825260208201905092915050565b7f455243313135353a206d696e7420746f20746865207a65726f2061646472657360008201527f7300000000000000000000000000000000000000000000000000000000000000602082015250565b600062000d8260218362000d13565b915062000d8f8262000d24565b604082019050919050565b6000602082019050818103600083015262000db58162000d73565b9050919050565b6000819050919050565b7f4e487b7100000000000000000000000000000000000000000000000000000000600052601160045260246000fd5b600062000e028262000dbc565b915062000e0f8362000dbc565b9250827fffffffffffffffffffffffffffffffffffffffffffffffffffffffffffffffff0382111562000e475762000e4662000dc6565b5b828201905092915050565b62000e5d8162000dbc565b82525050565b600060408201905062000e7a600083018562000e52565b62000e89602083018462000e52565b9392505050565b7f4e487b7100000000000000000000000000000000000000000000000000000000600052604160045260246000fd5b7f4e487b7100000000000000000000000000000000000000000000000000000000600052603260045260246000fd5b600073ffffffffffffffffffffffffffffffffffffffff82169050919050565b600062000f1b8262000eee565b9050919050565b62000f2d8162000f0e565b82525050565b600081519050919050565b600082825260208201905092915050565b60005b8381101562000f6f57808201518184015260208101905062000f52565b8381111562000f7f576000848401525b50505050565b6000601f19601f8301169050919050565b600062000fa38262000f33565b62000faf818562000f3e565b935062000fc181856020860162000f4f565b62000fcc8162000f85565b840191505092915050565b600060a08201905062000fee600083018862000f22565b62000ffd602083018762000f22565b6200100c604083018662000e52565b6200101b606083018562000e52565b81810360808301526200102f818462000f96565b90509695505050505050565b6000604051905090565b600080fd5b60007fffffffff0000000000000000000000000000000000000000000000000000000082169050919050565b62001081816200104a565b81146200108d57600080fd5b50565b600081519050620010a18162001076565b92915050565b600060208284031215620010c057620010bf62001045565b5b6000620010d08482850162001090565b91505092915050565b60008160e01c9050919050565b600060033d1115620011085760046000803e62001105600051620010d9565b90505b90565b620011168262000f85565b810181811067ffffffffffffffff8211171562001138576200113762000e90565b5b80604052505050565b600060443d10156200115357620011e0565b6200115d6200103b565b60043d036004823e80513d602482011167ffffffffffffffff8211171562001187575050620011e0565b808201805167ffffffffffffffff811115620011a75750505050620011e0565b80602083010160043d038501811115620011c6575050505050620011e0565b620011d7826020018501866200110b565b82955050505050505b90565b600081519050919050565b6000620011fb82620011e3565b62001207818562000d13565b93506200121981856020860162000f4f565b620012248162000f85565b840191505092915050565b600060208201905081810360008301526200124b8184620011ee565b905092915050565b7f455243313135353a207472616e7366657220746f206e6f6e204552433131353560008201527f526563656976657220696d706c656d656e746572000000000000000000000000602082015250565b6000620012b160348362000d13565b9150620012be8262001253565b604082019050919050565b60006020820190508181036000830152620012e481620012a2565b9050919050565b7f455243313135353a204552433131353552656365697665722072656a6563746560008201527f6420746f6b656e73000000000000000000000000000000000000000000000000602082015250565b60006200134960288362000d13565b91506200135682620012eb565b604082019050919050565b600060208201905081810360008301526200137c816200133a565b9050919050565b6000620013908262000dbc565b91507fffffffffffffffffffffffffffffffffffffffffffffffffffffffffffffffff821415620013c657620013c562000dc6565b5b600182019050919050565b6000620013de8262000dbc565b9150620013eb8362000dbc565b92508282101562001401576200140062000dc6565b5b828203905092915050565b7f455243313135353a2062616c616e636520717565727920666f7220746865207a60008201527f65726f2061646472657373000000000000000000000000000000000000000000602082015250565b60006200146a602b8362000d13565b915062001477826200140c565b604082019050919050565b600060208201905081810360008301526200149d816200145b565b9050919050565b7f4e487b7100000000000000000000000000000000000000000000000000000000600052602260045260246000fd5b60006002820490506001821680620014ec57607f821691505b60208210811415620015035762001502620014a4565b5b50919050565b6155b880620015196000396000f3fe6080604052600436106101b65760003560e01c80639711715a116100ec578063cceaf6251161008a578063e6acd9b811610064578063e6acd9b81461067f578063e985e9c5146106aa578063f23a6e61146106e7578063f242432a14610724576101b6565b8063cceaf625146105e9578063d6ca40a714610619578063dfe813eb14610656576101b6565b8063af670769116100c6578063af67076914610519578063ba19a67514610544578063bc197c811461056f578063bd85b039146105ac576101b6565b80639711715a1461049a578063a22cb465146104c5578063a77d38fa146104ee576101b6565b80634f558e79116101595780636d15dd2c116101335780636d15dd2c146103f55780638388f413146104255780638aa7a8b0146104415780638fbf353f1461047e576101b6565b80634f558e79146103525780636055c8551461038f578063626da068146103b8576101b6565b80630e89341c116101955780630e89341c146102725780632d4a0382146102af5780632eb2c2d6146102ec5780634e1273f414610315576101b6565b8062fdd58e146101bb57806301ffc9a7146101f8578063036c22ad14610235575b600080fd5b3480156101c757600080fd5b506101e260048036038101906101dd91906134c1565b61074d565b6040516101ef9190613510565b60405180910390f35b34801561020457600080fd5b5061021f600480360381019061021a9190613583565b610816565b60405161022c91906135cb565b60405180910390f35b34801561024157600080fd5b5061025c600480360381019061025791906135e6565b6108f8565b6040516102699190613510565b60405180910390f35b34801561027e57600080fd5b50610299600480360381019061029491906135e6565b610921565b6040516102a691906136ac565b60405180910390f35b3480156102bb57600080fd5b506102d660048036038101906102d191906135e6565b6109b5565b6040516102e39190613510565b60405180910390f35b3480156102f857600080fd5b50610313600480360381019061030e91906138cb565b610b8c565b005b34801561032157600080fd5b5061033c60048036038101906103379190613a5d565b610c2d565b6040516103499190613b93565b60405180910390f35b34801561035e57600080fd5b50610379600480360381019061037491906135e6565b610d46565b60405161038691906135cb565b60405180910390f35b34801561039b57600080fd5b506103b660048036038101906103b19190613bb5565b610d5a565b005b3480156103c457600080fd5b506103df60048036038101906103da9190613be2565b610e2e565b6040516103ec9190613510565b60405180910390f35b61040f600480360381019061040a9190613da4565b610eb1565b60405161041c9190613510565b60405180910390f35b61043f600480360381019061043a9190613ded565b611206565b005b34801561044d57600080fd5b5061046860048036038101906104639190613e68565b611382565b6040516104759190613510565b60405180910390f35b61049860048036038101906104939190613ea8565b6113c6565b005b3480156104a657600080fd5b506104af6115d0565b6040516104bc9190613510565b60405180910390f35b3480156104d157600080fd5b506104ec60048036038101906104e79190613f27565b6115df565b005b3480156104fa57600080fd5b506105036115f5565b6040516105109190613510565b60405180910390f35b34801561052557600080fd5b5061052e611604565b60405161053b9190613f76565b60405180910390f35b34801561055057600080fd5b5061055961162a565b6040516105669190613f76565b60405180910390f35b34801561057b57600080fd5b5061059660048036038101906105919190614042565b611650565b6040516105a3919061412d565b60405180910390f35b3480156105b857600080fd5b506105d360048036038101906105ce91906135e6565b611681565b6040516105e09190613510565b60405180910390f35b61060360048036038101906105fe9190613da4565b61169e565b6040516106109190613510565b60405180910390f35b34801561062557600080fd5b50610640600480360381019061063b91906135e6565b6119f3565b60405161064d9190613510565b60405180910390f35b34801561066257600080fd5b5061067d60048036038101906106789190613bb5565b611bca565b005b34801561068b57600080fd5b50610694611c9e565b6040516106a19190613510565b60405180910390f35b3480156106b657600080fd5b506106d160048036038101906106cc9190614148565b611ca3565b6040516106de91906135cb565b60405180910390f35b3480156106f357600080fd5b5061070e60048036038101906107099190614188565b611d37565b60405161071b919061412d565b60405180910390f35b34801561073057600080fd5b5061074b60048036038101906107469190614222565b611d66565b005b60008073ffffffffffffffffffffffffffffffffffffffff168373ffffffffffffffffffffffffffffffffffffffff1614156107be576040517f08c379a00000000000000000000000000000000000000000000000000000000081526004016107b59061432b565b60405180910390fd5b60008083815260200190815260200160002060008473ffffffffffffffffffffffffffffffffffffffff1673ffffffffffffffffffffffffffffffffffffffff16815260200190815260200160002054905092915050565b60007fd9b67a26000000000000000000000000000000000000000000000000000000007bffffffffffffffffffffffffffffffffffffffffffffffffffffffff1916827bffffffffffffffffffffffffffffffffffffffffffffffffffffffff191614806108e157507f0e89341c000000000000000000000000000000000000000000000000000000007bffffffffffffffffffffffffffffffffffffffffffffffffffffffff1916827bffffffffffffffffffffffffffffffffffffffffffffffffffffffff1916145b806108f157506108f082611fba565b5b9050919050565b60008061091661090784611681565b610911308661074d565b612024565b905080915050919050565b6060600280546109309061437a565b80601f016020809104026020016040519081016040528092919081815260200182805461095c9061437a565b80156109a95780601f1061097e576101008083540402835291602001916109a9565b820191906000526020600020905b81548152906001019060200180831161098c57829003601f168201915b50505050509050919050565b600080600f60008481526020019081526020016000206040518060c0016040529081600082015481526020016001820180546109f09061437a565b80601f0160208091040260200160405190810160405280929190818152602001828054610a1c9061437a565b8015610a695780601f10610a3e57610100808354040283529160200191610a69565b820191906000526020600020905b815481529060010190602001808311610a4c57829003601f168201915b50505050508152602001600282018054610a829061437a565b80601f0160208091040260200160405190810160405280929190818152602001828054610aae9061437a565b8015610afb5780601f10610ad057610100808354040283529160200191610afb565b820191906000526020600020905b815481529060010190602001808311610ade57829003601f168201915b50505050508152602001600382015481526020016004820160009054906101000a900460ff161515151581526020016005820154815250509050806080015115610b4c578060a00151915050610b87565b6040517f08c379a0000000000000000000000000000000000000000000000000000000008152600401610b7e906143f8565b60405180910390fd5b919050565b610b9461203a565b73ffffffffffffffffffffffffffffffffffffffff168573ffffffffffffffffffffffffffffffffffffffff161480610bda5750610bd985610bd461203a565b611ca3565b5b610c19576040517f08c379a0000000000000000000000000000000000000000000000000000000008152600401610c109061448a565b60405180910390fd5b610c268585858585612042565b5050505050565b60608151835114610c73576040517f08c379a0000000000000000000000000000000000000000000000000000000008152600401610c6a9061451c565b60405180910390fd5b6000835167ffffffffffffffff811115610c9057610c8f6136d3565b5b604051908082528060200260200182016040528015610cbe5781602001602082028036833780820191505090505b50905060005b8451811015610d3b57610d0b858281518110610ce357610ce261453c565b5b6020026020010151858381518110610cfe57610cfd61453c565b5b602002602001015161074d565b828281518110610d1e57610d1d61453c565b5b60200260200101818152505080610d349061459a565b9050610cc4565b508091505092915050565b600080610d5283611681565b119050919050565b600a60009054906101000a900473ffffffffffffffffffffffffffffffffffffffff1673ffffffffffffffffffffffffffffffffffffffff163373ffffffffffffffffffffffffffffffffffffffff1614610dea576040517f08c379a0000000000000000000000000000000000000000000000000000000008152600401610de190614655565b60405180910390fd5b80600960006101000a81548173ffffffffffffffffffffffffffffffffffffffff021916908373ffffffffffffffffffffffffffffffffffffffff16021790555050565b6000806000610e8c85600460008973ffffffffffffffffffffffffffffffffffffffff1673ffffffffffffffffffffffffffffffffffffffff1681526020019081526020016000206000878152602001908152602001600020612356565b9150915081610ea457610e9f868561074d565b610ea6565b805b925050509392505050565b600081806040015160028260200151610eca91906146a4565b11610f0a576040517f08c379a0000000000000000000000000000000000000000000000000000000008152600401610f0190614747565b60405180910390fd5b6000600860009054906101000a900473ffffffffffffffffffffffffffffffffffffffff16905060008173ffffffffffffffffffffffffffffffffffffffff1662fdd58e3385600001516040518363ffffffff1660e01b8152600401610f71929190614767565b602060405180830381865afa158015610f8e573d6000803e3d6000fd5b505050506040513d601f19601f82011682018060405250810190610fb291906147a5565b905060008111610ff7576040517f08c379a0000000000000000000000000000000000000000000000000000000008152600401610fee90614844565b60405180910390fd5b6000600c60405160200161100b9190614903565b6040516020818303038152906040529050808660600151604051602001611033929190614992565b60405160208183030381529060405286606001819052505060001515600f60008760000151815260200190815260200160002060040160009054906101000a900460ff161515146110b9576040517f08c379a00000000000000000000000000000000000000000000000000000000081526004016110b090614a28565b60405180910390fd5b60001515601186606001516040516110d19190614a48565b908152602001604051809103902060009054906101000a900460ff1615151461112f576040517f08c379a000000000000000000000000000000000000000000000000000000000815260040161112690614ad1565b60405180910390fd5b600760008154809291906111429061459a565b9190505550600060075490506111688682600d60009054906101000a900460ff1661244c565b600f6000886000015181526020019081526020016000206000820151816000015560208201518160010190805190602001906111a592919061333e565b5060408201518160020190805190602001906111c292919061333e565b506060820151816003015560808201518160040160006101000a81548160ff02191690831515021790555060a0820151816005015590505080945050505050919050565b600960009054906101000a900473ffffffffffffffffffffffffffffffffffffffff1673ffffffffffffffffffffffffffffffffffffffff163373ffffffffffffffffffffffffffffffffffffffff1614611296576040517f08c379a000000000000000000000000000000000000000000000000000000000815260040161128d90614655565b60405180910390fd5b6112c430600960009054906101000a900473ffffffffffffffffffffffffffffffffffffffff16600161254f565b6000821115611300576112ff3086600e6000888152602001908152602001600020600501548560405180602001604052806000815250611d66565b5b600081111561133c5761133b3086600f6000888152602001908152602001600020600501548460405180602001604052806000815250611d66565b5b7f95d0edb8d2174cb0f1294749b563fa9ac6c9e441ef6a0202f6e8e52028643dfd8585858585604051611373959493929190614af1565b60405180910390a15050505050565b60008060006113a38560056000878152602001908152602001600020612356565b91509150816113ba576113b584611681565b6113bc565b805b9250505092915050565b600960009054906101000a900473ffffffffffffffffffffffffffffffffffffffff1673ffffffffffffffffffffffffffffffffffffffff163373ffffffffffffffffffffffffffffffffffffffff1614611456576040517f08c379a000000000000000000000000000000000000000000000000000000000815260040161144d90614655565b60405180910390fd5b60011515600f600085815260200190815260200160002060040160009054906101000a900460ff16151514806114b3575060011515600e600085815260200190815260200160002060040160009054906101000a900460ff161515145b6114f2576040517f08c379a00000000000000000000000000000000000000000000000000000000081526004016114e990614b90565b60405180910390fd5b81600f600085815260200190815260200160002060050154148061152b575081600e600085815260200190815260200160002060050154145b61156a576040517f08c379a000000000000000000000000000000000000000000000000000000000815260040161156190614bfc565b60405180910390fd5b61158e308383604051806060016040528060238152602001615560602391396126bc565b7f81e0b881b9c6ff93955a4a996cc01472b2cdc1a1663af072fa5ca7db7f127de2838342846040516115c39493929190614c1c565b60405180910390a1505050565b60006115da612852565b905090565b6115f16115ea61203a565b838361254f565b5050565b60006115ff612852565b905090565b600960009054906101000a900473ffffffffffffffffffffffffffffffffffffffff1681565b600860009054906101000a900473ffffffffffffffffffffffffffffffffffffffff1681565b60007fbc197c819b3e337a6f9652dd10becd7eef83032af3b9d958d3d42f6694146621905098975050505050505050565b600060036000838152602001908152602001600020549050919050565b6000818060400151600282602001516116b791906146a4565b116116f7576040517f08c379a00000000000000000000000000000000000000000000000000000000081526004016116ee90614747565b60405180910390fd5b6000600860009054906101000a900473ffffffffffffffffffffffffffffffffffffffff16905060008173ffffffffffffffffffffffffffffffffffffffff1662fdd58e3385600001516040518363ffffffff1660e01b815260040161175e929190614767565b602060405180830381865afa15801561177b573d6000803e3d6000fd5b505050506040513d601f19601f8201168201806040525081019061179f91906147a5565b9050600081116117e4576040517f08c379a00000000000000000000000000000000000000000000000000000000081526004016117db90614844565b60405180910390fd5b6000600b6040516020016117f89190614903565b6040516020818303038152906040529050808660600151604051602001611820929190614992565b60405160208183030381529060405286606001819052505060001515600e60008760000151815260200190815260200160002060040160009054906101000a900460ff161515146118a6576040517f08c379a000000000000000000000000000000000000000000000000000000000815260040161189d90614a28565b60405180910390fd5b60001515601086606001516040516118be9190614a48565b908152602001604051809103902060009054906101000a900460ff1615151461191c576040517f08c379a000000000000000000000000000000000000000000000000000000000815260040161191390614ad1565b60405180910390fd5b6007600081548092919061192f9061459a565b9190505550600060075490506119558682600d60019054906101000a900460ff1661244c565b600e60008860000151815260200190815260200160002060008201518160000155602082015181600101908051906020019061199292919061333e565b5060408201518160020190805190602001906119af92919061333e565b506060820151816003015560808201518160040160006101000a81548160ff02191690831515021790555060a0820151816005015590505080945050505050919050565b600080600e60008481526020019081526020016000206040518060c001604052908160008201548152602001600182018054611a2e9061437a565b80601f0160208091040260200160405190810160405280929190818152602001828054611a5a9061437a565b8015611aa75780601f10611a7c57610100808354040283529160200191611aa7565b820191906000526020600020905b815481529060010190602001808311611a8a57829003601f168201915b50505050508152602001600282018054611ac09061437a565b80601f0160208091040260200160405190810160405280929190818152602001828054611aec9061437a565b8015611b395780601f10611b0e57610100808354040283529160200191611b39565b820191906000526020600020905b815481529060010190602001808311611b1c57829003601f168201915b50505050508152602001600382015481526020016004820160009054906101000a900460ff161515151581526020016005820154815250509050806080015115611b8a578060a00151915050611bc5565b6040517f08c379a0000000000000000000000000000000000000000000000000000000008152600401611bbc906143f8565b60405180910390fd5b919050565b600a60009054906101000a900473ffffffffffffffffffffffffffffffffffffffff1673ffffffffffffffffffffffffffffffffffffffff163373ffffffffffffffffffffffffffffffffffffffff1614611c5a576040517f08c379a0000000000000000000000000000000000000000000000000000000008152600401611c5190614655565b60405180910390fd5b80600860006101000a81548173ffffffffffffffffffffffffffffffffffffffff021916908373ffffffffffffffffffffffffffffffffffffffff16021790555050565b600181565b6000600160008473ffffffffffffffffffffffffffffffffffffffff1673ffffffffffffffffffffffffffffffffffffffff16815260200190815260200160002060008373ffffffffffffffffffffffffffffffffffffffff1673ffffffffffffffffffffffffffffffffffffffff16815260200190815260200160002060009054906101000a900460ff16905092915050565b60007ff23a6e612e1ff4830e658fe43f4e3cb4a5f8170bd5d9e69fb5d7a7fa9e4fdf9790509695505050505050565b611d6e61203a565b73ffffffffffffffffffffffffffffffffffffffff168573ffffffffffffffffffffffffffffffffffffffff161480611db45750611db385611dae61203a565b611ca3565b5b611df3576040517f08c379a0000000000000000000000000000000000000000000000000000000008152600401611dea90614cd3565b60405180910390fd5b611e0085858585856128a8565b5050505050565b611e15868686868686611fa4565b600073ffffffffffffffffffffffffffffffffffffffff168573ffffffffffffffffffffffffffffffffffffffff161415611ec75760005b8351811015611ec557828181518110611e6957611e6861453c565b5b602002602001015160036000868481518110611e8857611e8761453c565b5b602002602001015181526020019081526020016000206000828254611ead9190614cf3565b9250508190555080611ebe9061459a565b9050611e4d565b505b600073ffffffffffffffffffffffffffffffffffffffff168473ffffffffffffffffffffffffffffffffffffffff161415611f795760005b8351811015611f7757828181518110611f1b57611f1a61453c565b5b602002602001015160036000868481518110611f3a57611f3961453c565b5b602002602001015181526020019081526020016000206000828254611f5f9190614d49565b9250508190555080611f709061459a565b9050611eff565b505b505050505050565b6000808273ffffffffffffffffffffffffffffffffffffffff163b119050919050565b505050505050565b600081600001549050919050565b60007f01ffc9a7000000000000000000000000000000000000000000000000000000007bffffffffffffffffffffffffffffffffffffffffffffffffffffffff1916827bffffffffffffffffffffffffffffffffffffffffffffffffffffffff1916149050919050565b600081836120329190614d49565b905092915050565b600033905090565b8151835114612086576040517f08c379a000000000000000000000000000000000000000000000000000000000815260040161207d90614def565b60405180910390fd5b600073ffffffffffffffffffffffffffffffffffffffff168473ffffffffffffffffffffffffffffffffffffffff1614156120f6576040517f08c379a00000000000000000000000000000000000000000000000000000000081526004016120ed90614e81565b60405180910390fd5b600061210061203a565b9050612110818787878787612b2a565b60005b84518110156122c15760008582815181106121315761213061453c565b5b6020026020010151905060008583815181106121505761214f61453c565b5b60200260200101519050600080600084815260200190815260200160002060008b73ffffffffffffffffffffffffffffffffffffffff1673ffffffffffffffffffffffffffffffffffffffff168152602001908152602001600020549050818110156121f1576040517f08c379a00000000000000000000000000000000000000000000000000000000081526004016121e890614f13565b60405180910390fd5b81810360008085815260200190815260200160002060008c73ffffffffffffffffffffffffffffffffffffffff1673ffffffffffffffffffffffffffffffffffffffff168152602001908152602001600020819055508160008085815260200190815260200160002060008b73ffffffffffffffffffffffffffffffffffffffff1673ffffffffffffffffffffffffffffffffffffffff16815260200190815260200160002060008282546122a69190614cf3565b92505081905550505050806122ba9061459a565b9050612113565b508473ffffffffffffffffffffffffffffffffffffffff168673ffffffffffffffffffffffffffffffffffffffff168273ffffffffffffffffffffffffffffffffffffffff167f4a39dc06d4c0dbc64b70af90fd698a233a518aa5d07e595d983b8c0526c8f7fb8787604051612338929190614f33565b60405180910390a461234e818787878787612bf0565b505050505050565b6000806000841161239c576040517f08c379a000000000000000000000000000000000000000000000000000000000815260040161239390614fb6565b60405180910390fd5b6123a4612dc8565b8411156123e6576040517f08c379a00000000000000000000000000000000000000000000000000000000081526004016123dd90615022565b60405180910390fd5b60006123fe8585600001612dd990919063ffffffff16565b9050836000018054905081141561241c576000809250925050612445565b60018460010182815481106124345761243361453c565b5b906000526020600020015492509250505b9250929050565b6124546133c4565b60008460400151856020015161246a9190614d49565b9050600085604001519050612490308684604051806020016040528060008152506126bc565b6124ab338683604051806020016040528060008152506126bc565b60006040518060c001604052808860000151815260200188606001518152602001886080015181526020014281526020016001151581526020018781525090507f49debfc18817e7e3ec2948391bcc3a87349b3c716f7d470d223bfbf8928aa65a87600001518860600151896080015184606001518b602001518b8b60405161253a979695949392919061505e565b60405180910390a18093505050509392505050565b8173ffffffffffffffffffffffffffffffffffffffff168373ffffffffffffffffffffffffffffffffffffffff1614156125be576040517f08c379a00000000000000000000000000000000000000000000000000000000081526004016125b59061514d565b60405180910390fd5b80600160008573ffffffffffffffffffffffffffffffffffffffff1673ffffffffffffffffffffffffffffffffffffffff16815260200190815260200160002060008473ffffffffffffffffffffffffffffffffffffffff1673ffffffffffffffffffffffffffffffffffffffff16815260200190815260200160002060006101000a81548160ff0219169083151502179055508173ffffffffffffffffffffffffffffffffffffffff168373ffffffffffffffffffffffffffffffffffffffff167f17307eab39ab6107e8899845ad3d59bd9653f200f220920489ca2b5937696c31836040516126af91906135cb565b60405180910390a3505050565b600073ffffffffffffffffffffffffffffffffffffffff168473ffffffffffffffffffffffffffffffffffffffff16141561272c576040517f08c379a0000000000000000000000000000000000000000000000000000000008152600401612723906151df565b60405180910390fd5b600061273661203a565b90506127578160008761274888612eb3565b61275188612eb3565b87612b2a565b8260008086815260200190815260200160002060008773ffffffffffffffffffffffffffffffffffffffff1673ffffffffffffffffffffffffffffffffffffffff16815260200190815260200160002060008282546127b69190614cf3565b925050819055508473ffffffffffffffffffffffffffffffffffffffff16600073ffffffffffffffffffffffffffffffffffffffff168273ffffffffffffffffffffffffffffffffffffffff167fc3d58168c5ae7397731d063d5bbf3d657854427343f4c083240f7aacaa2d0f6287876040516128349291906151ff565b60405180910390a461284b81600087878787612f2d565b5050505050565b600061285e6006613105565b6000612868612dc8565b90507f8030e83b04d87bef53480e26263266d6ca66863aa8506aca6f2559d18aa1cb67816040516128999190613510565b60405180910390a18091505090565b600073ffffffffffffffffffffffffffffffffffffffff168473ffffffffffffffffffffffffffffffffffffffff161415612918576040517f08c379a000000000000000000000000000000000000000000000000000000000815260040161290f90614e81565b60405180910390fd5b600061292261203a565b905061294281878761293388612eb3565b61293c88612eb3565b87612b2a565b600080600086815260200190815260200160002060008873ffffffffffffffffffffffffffffffffffffffff1673ffffffffffffffffffffffffffffffffffffffff168152602001908152602001600020549050838110156129d9576040517f08c379a00000000000000000000000000000000000000000000000000000000081526004016129d090614f13565b60405180910390fd5b83810360008087815260200190815260200160002060008973ffffffffffffffffffffffffffffffffffffffff1673ffffffffffffffffffffffffffffffffffffffff168152602001908152602001600020819055508360008087815260200190815260200160002060008873ffffffffffffffffffffffffffffffffffffffff1673ffffffffffffffffffffffffffffffffffffffff1681526020019081526020016000206000828254612a8e9190614cf3565b925050819055508573ffffffffffffffffffffffffffffffffffffffff168773ffffffffffffffffffffffffffffffffffffffff168373ffffffffffffffffffffffffffffffffffffffff167fc3d58168c5ae7397731d063d5bbf3d657854427343f4c083240f7aacaa2d0f628888604051612b0b9291906151ff565b60405180910390a4612b21828888888888612f2d565b50505050505050565b612b38868686868686611e07565b600073ffffffffffffffffffffffffffffffffffffffff168573ffffffffffffffffffffffffffffffffffffffff161415612b8557612b77848461311b565b612b80836131d5565b612be8565b600073ffffffffffffffffffffffffffffffffffffffff168473ffffffffffffffffffffffffffffffffffffffff161415612bd257612bc4858461311b565b612bcd836131d5565b612be7565b612bdc858461311b565b612be6848461311b565b5b5b505050505050565b612c0f8473ffffffffffffffffffffffffffffffffffffffff16611f81565b15612dc0578373ffffffffffffffffffffffffffffffffffffffff1663bc197c8187878686866040518663ffffffff1660e01b8152600401612c55959493929190615272565b6020604051808303816000875af1925050508015612c9157506040513d601f19601f82011682018060405250810190612c8e91906152ef565b60015b612d3757612c9d615329565b806308c379a01415612cfa5750612cb261534b565b80612cbd5750612cfc565b806040517f08c379a0000000000000000000000000000000000000000000000000000000008152600401612cf191906136ac565b60405180910390fd5b505b6040517f08c379a0000000000000000000000000000000000000000000000000000000008152600401612d2e90615453565b60405180910390fd5b63bc197c8160e01b7bffffffffffffffffffffffffffffffffffffffffffffffffffffffff1916817bffffffffffffffffffffffffffffffffffffffffffffffffffffffff191614612dbe576040517f08c379a0000000000000000000000000000000000000000000000000000000008152600401612db5906154e5565b60405180910390fd5b505b505050505050565b6000612dd46006611fac565b905090565b60008083805490501415612df05760009050612ead565b600080848054905090505b80821015612e54576000612e0f8383613250565b905084868281548110612e2557612e2461453c565b5b90600052602060002001541115612e3e57809150612e4e565b600181612e4b9190614cf3565b92505b50612dfb565b600082118015612e8c57508385600184612e6e9190614d49565b81548110612e7f57612e7e61453c565b5b9060005260206000200154145b15612ea757600182612e9e9190614d49565b92505050612ead565b81925050505b92915050565b60606000600167ffffffffffffffff811115612ed257612ed16136d3565b5b604051908082528060200260200182016040528015612f005781602001602082028036833780820191505090505b5090508281600081518110612f1857612f1761453c565b5b60200260200101818152505080915050919050565b612f4c8473ffffffffffffffffffffffffffffffffffffffff16611f81565b156130fd578373ffffffffffffffffffffffffffffffffffffffff1663f23a6e6187878686866040518663ffffffff1660e01b8152600401612f92959493929190615505565b6020604051808303816000875af1925050508015612fce57506040513d601f19601f82011682018060405250810190612fcb91906152ef565b60015b61307457612fda615329565b806308c379a014156130375750612fef61534b565b80612ffa5750613039565b806040517f08c379a000000000000000000000000000000000000000000000000000000000815260040161302e91906136ac565b60405180910390fd5b505b6040517f08c379a000000000000000000000000000000000000000000000000000000000815260040161306b90615453565b60405180910390fd5b63f23a6e6160e01b7bffffffffffffffffffffffffffffffffffffffffffffffffffffffff1916817bffffffffffffffffffffffffffffffffffffffffffffffffffffffff1916146130fb576040517f08c379a00000000000000000000000000000000000000000000000000000000081526004016130f2906154e5565b60405180910390fd5b505b505050505050565b6001816000016000828254019250508190555050565b60005b81518110156131d0576131bd600460008573ffffffffffffffffffffffffffffffffffffffff1673ffffffffffffffffffffffffffffffffffffffff168152602001908152602001600020600084848151811061317e5761317d61453c565b5b602002602001015181526020019081526020016000206131b8858585815181106131ab576131aa61453c565b5b602002602001015161074d565b613276565b80806131c89061459a565b91505061311e565b505050565b60005b815181101561324c57613239600560008484815181106131fb576131fa61453c565b5b602002602001015181526020019081526020016000206132348484815181106132275761322661453c565b5b6020026020010151611681565b613276565b80806132449061459a565b9150506131d8565b5050565b6000600282841861326191906146a4565b82841661326e9190614cf3565b905092915050565b6000613280612dc8565b90508061328f846000016132f1565b10156132ec5782600001819080600181540180825580915050600190039060005260206000200160009091909190915055826001018290806001815401808255809150506001900390600052602060002001600090919091909150555b505050565b600080828054905014156133085760009050613339565b816001838054905061331a9190614d49565b8154811061332b5761332a61453c565b5b906000526020600020015490505b919050565b82805461334a9061437a565b90600052602060002090601f01602090048101928261336c57600085556133b3565b82601f1061338557805160ff19168380011785556133b3565b828001600101855582156133b3579182015b828111156133b2578251825591602001919060010190613397565b5b5090506133c091906133fc565b5090565b6040518060c0016040528060008152602001606081526020016060815260200160008152602001600015158152602001600081525090565b5b808211156134155760008160009055506001016133fd565b5090565b6000604051905090565b600080fd5b600080fd5b600073ffffffffffffffffffffffffffffffffffffffff82169050919050565b60006134588261342d565b9050919050565b6134688161344d565b811461347357600080fd5b50565b6000813590506134858161345f565b92915050565b6000819050919050565b61349e8161348b565b81146134a957600080fd5b50565b6000813590506134bb81613495565b92915050565b600080604083850312156134d8576134d7613423565b5b60006134e685828601613476565b92505060206134f7858286016134ac565b9150509250929050565b61350a8161348b565b82525050565b60006020820190506135256000830184613501565b92915050565b60007fffffffff0000000000000000000000000000000000000000000000000000000082169050919050565b6135608161352b565b811461356b57600080fd5b50565b60008135905061357d81613557565b92915050565b60006020828403121561359957613598613423565b5b60006135a78482850161356e565b91505092915050565b60008115159050919050565b6135c5816135b0565b82525050565b60006020820190506135e060008301846135bc565b92915050565b6000602082840312156135fc576135fb613423565b5b600061360a848285016134ac565b91505092915050565b600081519050919050565b600082825260208201905092915050565b60005b8381101561364d578082015181840152602081019050613632565b8381111561365c576000848401525b50505050565b6000601f19601f8301169050919050565b600061367e82613613565b613688818561361e565b935061369881856020860161362f565b6136a181613662565b840191505092915050565b600060208201905081810360008301526136c68184613673565b905092915050565b600080fd5b7f4e487b7100000000000000000000000000000000000000000000000000000000600052604160045260246000fd5b61370b82613662565b810181811067ffffffffffffffff8211171561372a576137296136d3565b5b80604052505050565b600061373d613419565b90506137498282613702565b919050565b600067ffffffffffffffff821115613769576137686136d3565b5b602082029050602081019050919050565b600080fd5b600061379261378d8461374e565b613733565b905080838252602082019050602084028301858111156137b5576137b461377a565b5b835b818110156137de57806137ca88826134ac565b8452602084019350506020810190506137b7565b5050509392505050565b600082601f8301126137fd576137fc6136ce565b5b813561380d84826020860161377f565b91505092915050565b600080fd5b600067ffffffffffffffff821115613836576138356136d3565b5b61383f82613662565b9050602081019050919050565b82818337600083830152505050565b600061386e6138698461381b565b613733565b90508281526020810184848401111561388a57613889613816565b5b61389584828561384c565b509392505050565b600082601f8301126138b2576138b16136ce565b5b81356138c284826020860161385b565b91505092915050565b600080600080600060a086880312156138e7576138e6613423565b5b60006138f588828901613476565b955050602061390688828901613476565b945050604086013567ffffffffffffffff81111561392757613926613428565b5b613933888289016137e8565b935050606086013567ffffffffffffffff81111561395457613953613428565b5b613960888289016137e8565b925050608086013567ffffffffffffffff81111561398157613980613428565b5b61398d8882890161389d565b9150509295509295909350565b600067ffffffffffffffff8211156139b5576139b46136d3565b5b602082029050602081019050919050565b60006139d96139d48461399a565b613733565b905080838252602082019050602084028301858111156139fc576139fb61377a565b5b835b81811015613a255780613a118882613476565b8452602084019350506020810190506139fe565b5050509392505050565b600082601f830112613a4457613a436136ce565b5b8135613a548482602086016139c6565b91505092915050565b60008060408385031215613a7457613a73613423565b5b600083013567ffffffffffffffff811115613a9257613a91613428565b5b613a9e85828601613a2f565b925050602083013567ffffffffffffffff811115613abf57613abe613428565b5b613acb858286016137e8565b9150509250929050565b600081519050919050565b600082825260208201905092915050565b6000819050602082019050919050565b613b0a8161348b565b82525050565b6000613b1c8383613b01565b60208301905092915050565b6000602082019050919050565b6000613b4082613ad5565b613b4a8185613ae0565b9350613b5583613af1565b8060005b83811015613b86578151613b6d8882613b10565b9750613b7883613b28565b925050600181019050613b59565b5085935050505092915050565b60006020820190508181036000830152613bad8184613b35565b905092915050565b600060208284031215613bcb57613bca613423565b5b6000613bd984828501613476565b91505092915050565b600080600060608486031215613bfb57613bfa613423565b5b6000613c0986828701613476565b9350506020613c1a868287016134ac565b9250506040613c2b868287016134ac565b9150509250925092565b600080fd5b600080fd5b600067ffffffffffffffff821115613c5a57613c596136d3565b5b613c6382613662565b9050602081019050919050565b6000613c83613c7e84613c3f565b613733565b905082815260208101848484011115613c9f57613c9e613816565b5b613caa84828561384c565b509392505050565b600082601f830112613cc757613cc66136ce565b5b8135613cd7848260208601613c70565b91505092915050565b600060a08284031215613cf657613cf5613c35565b5b613d0060a0613733565b90506000613d10848285016134ac565b6000830152506020613d24848285016134ac565b6020830152506040613d38848285016134ac565b604083015250606082013567ffffffffffffffff811115613d5c57613d5b613c3a565b5b613d6884828501613cb2565b606083015250608082013567ffffffffffffffff811115613d8c57613d8b613c3a565b5b613d9884828501613cb2565b60808301525092915050565b600060208284031215613dba57613db9613423565b5b600082013567ffffffffffffffff811115613dd857613dd7613428565b5b613de484828501613ce0565b91505092915050565b600080600080600060a08688031215613e0957613e08613423565b5b6000613e1788828901613476565b9550506020613e28888289016134ac565b9450506040613e39888289016134ac565b9350506060613e4a888289016134ac565b9250506080613e5b888289016134ac565b9150509295509295909350565b60008060408385031215613e7f57613e7e613423565b5b6000613e8d858286016134ac565b9250506020613e9e858286016134ac565b9150509250929050565b600080600060608486031215613ec157613ec0613423565b5b6000613ecf868287016134ac565b9350506020613ee0868287016134ac565b9250506040613ef1868287016134ac565b9150509250925092565b613f04816135b0565b8114613f0f57600080fd5b50565b600081359050613f2181613efb565b92915050565b60008060408385031215613f3e57613f3d613423565b5b6000613f4c85828601613476565b9250506020613f5d85828601613f12565b9150509250929050565b613f708161344d565b82525050565b6000602082019050613f8b6000830184613f67565b92915050565b600080fd5b60008083601f840112613fac57613fab6136ce565b5b8235905067ffffffffffffffff811115613fc957613fc8613f91565b5b602083019150836020820283011115613fe557613fe461377a565b5b9250929050565b60008083601f840112614002576140016136ce565b5b8235905067ffffffffffffffff81111561401f5761401e613f91565b5b60208301915083600182028301111561403b5761403a61377a565b5b9250929050565b60008060008060008060008060a0898b03121561406257614061613423565b5b60006140708b828c01613476565b98505060206140818b828c01613476565b975050604089013567ffffffffffffffff8111156140a2576140a1613428565b5b6140ae8b828c01613f96565b9650965050606089013567ffffffffffffffff8111156140d1576140d0613428565b5b6140dd8b828c01613f96565b9450945050608089013567ffffffffffffffff811115614100576140ff613428565b5b61410c8b828c01613fec565b92509250509295985092959890939650565b6141278161352b565b82525050565b6000602082019050614142600083018461411e565b92915050565b6000806040838503121561415f5761415e613423565b5b600061416d85828601613476565b925050602061417e85828601613476565b9150509250929050565b60008060008060008060a087890312156141a5576141a4613423565b5b60006141b389828a01613476565b96505060206141c489828a01613476565b95505060406141d589828a016134ac565b94505060606141e689828a016134ac565b935050608087013567ffffffffffffffff81111561420757614206613428565b5b61421389828a01613fec565b92509250509295509295509295565b600080600080600060a0868803121561423e5761423d613423565b5b600061424c88828901613476565b955050602061425d88828901613476565b945050604061426e888289016134ac565b935050606061427f888289016134ac565b925050608086013567ffffffffffffffff8111156142a05761429f613428565b5b6142ac8882890161389d565b9150509295509295909350565b7f455243313135353a2062616c616e636520717565727920666f7220746865207a60008201527f65726f2061646472657373000000000000000000000000000000000000000000602082015250565b6000614315602b8361361e565b9150614320826142b9565b604082019050919050565b6000602082019050818103600083015261434481614308565b9050919050565b7f4e487b7100000000000000000000000000000000000000000000000000000000600052602260045260246000fd5b6000600282049050600182168061439257607f821691505b602082108114156143a6576143a561434b565b5b50919050565b7f496e76616c6964207265636f7264206964000000000000000000000000000000600082015250565b60006143e260118361361e565b91506143ed826143ac565b602082019050919050565b60006020820190508181036000830152614411816143d5565b9050919050565b7f455243313135353a207472616e736665722063616c6c6572206973206e6f742060008201527f6f776e6572206e6f7220617070726f7665640000000000000000000000000000602082015250565b600061447460328361361e565b915061447f82614418565b604082019050919050565b600060208201905081810360008301526144a381614467565b9050919050565b7f455243313135353a206163636f756e747320616e6420696473206c656e67746860008201527f206d69736d617463680000000000000000000000000000000000000000000000602082015250565b600061450660298361361e565b9150614511826144aa565b604082019050919050565b60006020820190508181036000830152614535816144f9565b9050919050565b7f4e487b7100000000000000000000000000000000000000000000000000000000600052603260045260246000fd5b7f4e487b7100000000000000000000000000000000000000000000000000000000600052601160045260246000fd5b60006145a58261348b565b91507fffffffffffffffffffffffffffffffffffffffffffffffffffffffffffffffff8214156145d8576145d761456b565b5b600182019050919050565b7f596f7520617265206e6f7420617574686f72697a656420666f7220746869732060008201527f616374696f6e0000000000000000000000000000000000000000000000000000602082015250565b600061463f60268361361e565b915061464a826145e3565b604082019050919050565b6000602082019050818103600083015261466e81614632565b9050919050565b7f4e487b7100000000000000000000000000000000000000000000000000000000600052601260045260246000fd5b60006146af8261348b565b91506146ba8361348b565b9250826146ca576146c9614675565b5b828204905092915050565b7f54726561737572792073686f756c642068617665206174206c6561737420353060008201527f25206f662074686520746f74616c20737570706c790000000000000000000000602082015250565b600061473160358361361e565b915061473c826146d5565b604082019050919050565b6000602082019050818103600083015261476081614724565b9050919050565b600060408201905061477c6000830185613f67565b6147896020830184613501565b9392505050565b60008151905061479f81613495565b92915050565b6000602082840312156147bb576147ba613423565b5b60006147c984828501614790565b91505092915050565b7f596f7520617265206e6f7420746865206f776e6572206f66207468652072656360008201527f6f72640000000000000000000000000000000000000000000000000000000000602082015250565b600061482e60238361361e565b9150614839826147d2565b604082019050919050565b6000602082019050818103600083015261485d81614821565b9050919050565b600081905092915050565b60008190508160005260206000209050919050565b600081546148918161437a565b61489b8186614864565b945060018216600081146148b657600181146148c7576148fa565b60ff198316865281860193506148fa565b6148d08561486f565b60005b838110156148f2578154818901526001820191506020810190506148d3565b838801955050505b50505092915050565b600061490f8284614884565b915081905092915050565b600081519050919050565b600081905092915050565b600061493b8261491a565b6149458185614925565b935061495581856020860161362f565b80840191505092915050565b600061496c82613613565b6149768185614864565b935061498681856020860161362f565b80840191505092915050565b600061499e8285614930565b91506149aa8284614961565b91508190509392505050565b7f476f7665726e616e636520746f6b656e20666f72207468697320696420616c7260008201527f656164792070726573656e740000000000000000000000000000000000000000602082015250565b6000614a12602c8361361e565b9150614a1d826149b6565b604082019050919050565b60006020820190508181036000830152614a4181614a05565b9050919050565b6000614a548284614961565b915081905092915050565b7f476f7665726e616e636520746f6b656e207769746820746869732053594d424f60008201527f4c20616c72656164792070726573656e74000000000000000000000000000000602082015250565b6000614abb60318361361e565b9150614ac682614a5f565b604082019050919050565b60006020820190508181036000830152614aea81614aae565b9050919050565b600060a082019050614b066000830188613f67565b614b136020830187613501565b614b206040830186613501565b614b2d6060830185613501565b614b3a6080830184613501565b9695505050505050565b7f496e76616c6964207265636f7264200000000000000000000000000000000000600082015250565b6000614b7a600f8361361e565b9150614b8582614b44565b602082019050919050565b60006020820190508181036000830152614ba981614b6d565b9050919050565b7f496e76616c696420746f6b656e73000000000000000000000000000000000000600082015250565b6000614be6600e8361361e565b9150614bf182614bb0565b602082019050919050565b60006020820190508181036000830152614c1581614bd9565b9050919050565b6000608082019050614c316000830187613501565b614c3e6020830186613501565b614c4b6040830185613501565b614c586060830184613501565b95945050505050565b7f455243313135353a2063616c6c6572206973206e6f74206f776e6572206e6f7260008201527f20617070726f7665640000000000000000000000000000000000000000000000602082015250565b6000614cbd60298361361e565b9150614cc882614c61565b604082019050919050565b60006020820190508181036000830152614cec81614cb0565b9050919050565b6000614cfe8261348b565b9150614d098361348b565b9250827fffffffffffffffffffffffffffffffffffffffffffffffffffffffffffffffff03821115614d3e57614d3d61456b565b5b828201905092915050565b6000614d548261348b565b9150614d5f8361348b565b925082821015614d7257614d7161456b565b5b828203905092915050565b7f455243313135353a2069647320616e6420616d6f756e7473206c656e6774682060008201527f6d69736d61746368000000000000000000000000000000000000000000000000602082015250565b6000614dd960288361361e565b9150614de482614d7d565b604082019050919050565b60006020820190508181036000830152614e0881614dcc565b9050919050565b7f455243313135353a207472616e7366657220746f20746865207a65726f20616460008201527f6472657373000000000000000000000000000000000000000000000000000000602082015250565b6000614e6b60258361361e565b9150614e7682614e0f565b604082019050919050565b60006020820190508181036000830152614e9a81614e5e565b9050919050565b7f455243313135353a20696e73756666696369656e742062616c616e636520666f60008201527f72207472616e7366657200000000000000000000000000000000000000000000602082015250565b6000614efd602a8361361e565b9150614f0882614ea1565b604082019050919050565b60006020820190508181036000830152614f2c81614ef0565b9050919050565b60006040820190508181036000830152614f4d8185613b35565b90508181036020830152614f618184613b35565b90509392505050565b7f4552433230536e617073686f743a206964206973203000000000000000000000600082015250565b6000614fa060168361361e565b9150614fab82614f6a565b602082019050919050565b60006020820190508181036000830152614fcf81614f93565b9050919050565b7f4552433230536e617073686f743a206e6f6e6578697374656e74206964000000600082015250565b600061500c601d8361361e565b915061501782614fd6565b602082019050919050565b6000602082019050818103600083015261503b81614fff565b9050919050565b600060ff82169050919050565b61505881615042565b82525050565b600060e082019050615073600083018a613501565b81810360208301526150858189613673565b905081810360408301526150998188613673565b90506150a86060830187613501565b6150b56080830186613501565b6150c260a0830185613501565b6150cf60c083018461504f565b98975050505050505050565b7f455243313135353a2073657474696e6720617070726f76616c2073746174757360008201527f20666f722073656c660000000000000000000000000000000000000000000000602082015250565b600061513760298361361e565b9150615142826150db565b604082019050919050565b600060208201905081810360008301526151668161512a565b9050919050565b7f455243313135353a206d696e7420746f20746865207a65726f2061646472657360008201527f7300000000000000000000000000000000000000000000000000000000000000602082015250565b60006151c960218361361e565b91506151d48261516d565b604082019050919050565b600060208201905081810360008301526151f8816151bc565b9050919050565b60006040820190506152146000830185613501565b6152216020830184613501565b9392505050565b600082825260208201905092915050565b60006152448261491a565b61524e8185615228565b935061525e81856020860161362f565b61526781613662565b840191505092915050565b600060a0820190506152876000830188613f67565b6152946020830187613f67565b81810360408301526152a68186613b35565b905081810360608301526152ba8185613b35565b905081810360808301526152ce8184615239565b90509695505050505050565b6000815190506152e981613557565b92915050565b60006020828403121561530557615304613423565b5b6000615313848285016152da565b91505092915050565b60008160e01c9050919050565b600060033d11156153485760046000803e61534560005161531c565b90505b90565b600060443d101561535b576153de565b615363613419565b60043d036004823e80513d602482011167ffffffffffffffff8211171561538b5750506153de565b808201805167ffffffffffffffff8111156153a957505050506153de565b80602083010160043d0385018111156153c65750505050506153de565b6153d582602001850186613702565b82955050505050505b90565b7f455243313135353a207472616e7366657220746f206e6f6e204552433131353560008201527f526563656976657220696d706c656d656e746572000000000000000000000000602082015250565b600061543d60348361361e565b9150615448826153e1565b604082019050919050565b6000602082019050818103600083015261546c81615430565b9050919050565b7f455243313135353a204552433131353552656365697665722072656a6563746560008201527f6420746f6b656e73000000000000000000000000000000000000000000000000602082015250565b60006154cf60288361361e565b91506154da82615473565b604082019050919050565b600060208201905081810360008301526154fe816154c2565b9050919050565b600060a08201905061551a6000830188613f67565b6155276020830187613f67565b6155346040830186613501565b6155416060830185613501565b81810360808301526155538184615239565b9050969550505050505056fe546f6b656e206d696e746564207468726f75676820766f74696e672070726f63657373a264697066735822122033488ff50a7d1ae02735b4a938475f84c5907d06e3838fda1c28ad4d36578d0864736f6c634300080c0033",
  "immutableReferences": {},
  "source": "pragma solidity ^0.8.0;\n\nimport \"@openzeppelin/contracts/token/ERC1155/ERC1155.sol\";\nimport \"@openzeppelin/contracts/token/ERC1155/IERC1155Receiver.sol\";\nimport \"@openzeppelin/contracts/token/ERC1155/extensions/ERC1155Supply.sol\";\nimport \"@openzeppelin/contracts/utils/Counters.sol\";\nimport \"@openzeppelin/contracts/access/Ownable.sol\";\nimport \"./RecordsContract.sol\";\nimport \"./ERC1155/SnapshotERC1155.sol\";\nimport \"@openzeppelin/contracts/utils/math/SafeMath.sol\";\n\n// ERC 20 balance[adress] => 2 contracts // governance and comunity\n// ERC 721 blance[adress] => 1 contract // records\n// ERC 1155\n\ncontract TreasuryContract is IERC1155Receiver, SnapshotERC1155 {\n    uint256 public constant CRD = 1;\n    uint256 private LastTokenId = 1;\n    address public RECORDS_CONTRACT_ADDRESS;\n    address public CONTRIBUTION_VOTING_CONTRACT_ADDRESS;\n    address OWNER;\n    string private PREFIX_GOVERNANCE = \"CRDG_\";\n    string private PREFIX_COMMUNITY = \"CRD_\";\n    uint8 private TOKEN_TYPE_COMMUNITY = 0;\n    uint8 private TOKEN_TYPE_GOVERNANCE = 1;\n\n    struct Token {\n        uint256 recordId;\n        string symbol;\n        string image;\n        uint256 creationDate;\n        bool isPresent;\n        uint256 tokenId;\n    }\n\n    struct NewTokenData {\n        uint256 recordId;\n        uint256 totalSupply;\n        uint256 userBalance;\n        string symbol;\n        string image;\n    }\n\n    /**\n        @dev this is event which is created when a token transfer takes place\n        @param from This is the address of sender \n        @param to This is the address of reciver \n        @param transferDate This is the date of the transfer\n        @param tokenId This is the id of the token that is being transfered \n        @param amount This is the amount of token transfered \n        @param symbol This is the symbol of the token that were transfered\n     */\n    event TokenTransfer(\n        address from,\n        address to,\n        uint256 transferDate,\n        uint256 tokenId,\n        uint256 amount,\n        string symbol\n    );\n\n    /**\n        @dev this is event which is created when new governance token is created (NEW CREATION Not MINITING)\n        @param recordId This is the record Id to which this token belongs to \n        @param symbol This is the symbol of the governance token\n        @param image This is the image of the token \n        @param creationDate This is the creation date of the token \n        @param tokenAmount This is the amount of token that are created \n        @param tokenId This is the id of token that is newly created tokens \n        @param tokenType This is the type of the token that is created => For governance 1 and for copyright 0  \n      */\n    event NewTokenCreated(\n        uint256 recordId,\n        string symbol,\n        string image,\n        uint256 creationDate,\n        uint256 tokenAmount,\n        uint256 tokenId,\n        uint8 tokenType\n    );\n\n    /**\n        @dev this is event which is created when new governance token is minted after the voting is done\n        @param recordId This is the record Id to which this token belongs to \n        @param creationDate This is the creation date of the token \n        @param tokenAmount This is the amount of token that are created \n        @param tokenId This is the id of token that is newly created tokens \n      */\n    event TokenMinted(\n        uint256 recordId,\n        uint256 tokenId,\n        uint256 creationDate,\n        uint256 tokenAmount\n    );\n\n    /**\n        @dev this is event which is genrated when a contribution voting has came to an end and the contribution is accepted\n        @param to This the address of the winner or the owner of the contribution \n        @param recordId This is the id of the record to which this contribution relates to \n        @param contributionId This is the id of the contribution to which the record is related to \n        @param rewardGovernance The reward amount for governance tokens \n        @param rewardCommunity The reward amount for comunity tokens\n     */\n    event ContributionRewardTransfered(\n        address to,\n        uint256 recordId,\n        uint256 contributionId,\n        uint256 rewardGovernance,\n        uint256 rewardCommunity\n    );\n\n    mapping(uint256 => Token) govTokenMapping;\n    mapping(uint256 => Token) commTokenMapping;\n\n    mapping(string => bool) govTokenSym;\n    mapping(string => bool) commTokenSym;\n\n    // By default URI to crowdrecords domain\n    // 18 decimal points supported\n    constructor() ERC1155(\"https://crowdrecords.com/{id}\") {\n        _mint(msg.sender, CRD, 1000000 * 10**18, \"https://crowdrecords.com\");\n        OWNER = msg.sender;\n    }\n\n    /**\n     * @dev Modifier to check that the person who accesses a specific function is the owner of contract himself.\n     */\n    modifier ownerOnly() {\n        require(msg.sender == OWNER, \"You are not authorized for this action\");\n        _;\n    }\n\n    /**\n     * @dev Modifier to check if the sender is authorized to create tokens for this record.\n     */\n    modifier canCreateToken(NewTokenData memory newTokenData) {\n        require(\n            newTokenData.totalSupply / 2 > newTokenData.userBalance,\n            \"Treasury should have at least 50% of the total supply\"\n        );\n\n        RecordsContract recordsContract = RecordsContract(\n            RECORDS_CONTRACT_ADDRESS\n        );\n\n        uint256 balance = recordsContract.balanceOf(\n            msg.sender,\n            newTokenData.recordId\n        );\n\n        require(balance > 0, \"You are not the owner of the record\");\n        _;\n    }\n\n    /**\n     * @dev Modifier to check that if the sender is the voting contract or not.\n     */\n    modifier onlyContributionVotingContract() {\n        require(\n            msg.sender == CONTRIBUTION_VOTING_CONTRACT_ADDRESS,\n            \"You are not authorized for this action\"\n        );\n        _;\n    }\n\n    /**\n     * @dev This function sets the Records Contract address\n     */\n    function setRecordsContractAddress(address newRecordsContractAddress)\n        public\n        ownerOnly\n    {\n        RECORDS_CONTRACT_ADDRESS = newRecordsContractAddress;\n    }\n\n    /**\n     * @dev This function sets the Voting Contract address\n     */\n    function setContributionVotingContractAddress(\n        address newVotingContractAddress\n    ) public ownerOnly {\n        CONTRIBUTION_VOTING_CONTRACT_ADDRESS = newVotingContractAddress;\n    }\n\n    /**\n     * @dev This function creats new governance tokens for specified record\n     * @param newTokenData This contains all the parameters needed to create a new governance token that are\n     * - recordId This is the recordId that for new token\n     * - totalSupply This is the total supply of governance token\n     * - userBalance This is the amount of tokens that user wants to keep to himself\n     * - symbol This is the symbol of the gvernance token\n     * - image this is image of the gov token.\n     */\n    function createNewGovernanceToken(NewTokenData memory newTokenData)\n        external\n        payable\n        canCreateToken(newTokenData)\n        returns (uint256)\n    {\n        {\n            bytes memory preString = abi.encodePacked(PREFIX_GOVERNANCE);\n            newTokenData.symbol = string(\n                abi.encodePacked(preString, newTokenData.symbol)\n            );\n        }\n\n        require(\n            govTokenMapping[newTokenData.recordId].isPresent == false,\n            \"Governance token for this id already present\"\n        );\n\n        require(\n            govTokenSym[newTokenData.symbol] == false,\n            \"Governance token with this SYMBOL already present\"\n        );\n\n        LastTokenId++;\n        uint256 newTokenId = LastTokenId;\n\n        //Map the recordId with the\n        govTokenMapping[newTokenData.recordId] = createToken(\n            newTokenData,\n            newTokenId,\n            TOKEN_TYPE_GOVERNANCE\n        );\n\n        return newTokenId;\n    }\n\n    /**\n     * @dev This function creats new community tokens for specified record\n     * @param newTokenData This contains all the parameters needed to create a new community token that are\n     * - recordId This is the recordId that for new token\n     * - totalSupply This is the total supply of community token\n     * - userBalance This is the amount of tokens that user wants to keep to himself\n     * - symbol This is the symbol of the community token\n     * - image this is image of the gov token.\n     */\n    function createNewCommunityToken(NewTokenData memory newTokenData)\n        external\n        payable\n        canCreateToken(newTokenData)\n        returns (uint256)\n    {\n        {\n            bytes memory preString = abi.encodePacked(PREFIX_COMMUNITY);\n            newTokenData.symbol = string(\n                abi.encodePacked(preString, newTokenData.symbol)\n            );\n        }\n\n        require(\n            commTokenMapping[newTokenData.recordId].isPresent == false,\n            \"Governance token for this id already present\"\n        );\n\n        require(\n            commTokenSym[newTokenData.symbol] == false,\n            \"Governance token with this SYMBOL already present\"\n        );\n\n        LastTokenId++;\n        uint256 newTokenId = LastTokenId;\n\n        //Map the recordId with the\n        commTokenMapping[newTokenData.recordId] = createToken(\n            newTokenData,\n            newTokenId,\n            TOKEN_TYPE_COMMUNITY\n        );\n\n        return newTokenId;\n    }\n\n    /**\n     * @dev This function is an internal use only function whoes role is to create a new token of specified type\n     * @param newTokenData This contains all the parameters needed to create a new community token that are\n     * - recordId This is the recordId that for new token\n     * - totalSupply This is the total supply of community token\n     * - userBalance This is the amount of tokens that user wants to keep to himself\n     * - symbol This is the symbol of the community token\n     * - image this is image of the gov token.\n     * @param newTokenId This is the Id of the token to create\n     * @param tokenType This is the type of token that is to be created such as community or governance\n     */\n    function createToken(\n        NewTokenData memory newTokenData,\n        uint256 newTokenId,\n        uint8 tokenType\n    ) private returns (Token memory) {\n        //!Add check for the totalsupply > userBalance\n\n        uint256 treasuryAmount = (newTokenData.totalSupply -\n            newTokenData.userBalance);\n        uint256 userAmount = newTokenData.userBalance;\n\n        // Here minting of new tokens is done. And those are sent directly into the treasury\n        _mint(address(this), newTokenId, treasuryAmount, \"\");\n\n        // The user requested amount of tokens is genrated and send to his account\n        _mint(msg.sender, newTokenId, userAmount, \"\");\n\n        Token memory token = Token({\n            recordId: newTokenData.recordId,\n            symbol: newTokenData.symbol,\n            image: newTokenData.image,\n            creationDate: block.timestamp,\n            isPresent: true,\n            tokenId: newTokenId\n        });\n\n        emit NewTokenCreated({\n            recordId: newTokenData.recordId,\n            symbol: newTokenData.symbol,\n            image: newTokenData.image,\n            creationDate: token.creationDate,\n            tokenAmount: newTokenData.totalSupply,\n            tokenId: newTokenId,\n            tokenType: tokenType\n        });\n\n        return token;\n    }\n\n    /**\n     * @dev This function creats new community tokens for specified record\n     * @param recordId This is the id of the record to which the token belongs to\n     * @param tokenId This is the id of the which is to be minted\n     * @param tokenAmount This is the amount that is to be minted\n     */\n    function mintTokens(\n        uint256 recordId,\n        uint256 tokenId,\n        uint256 tokenAmount\n    ) external payable onlyContributionVotingContract {\n        require(\n            commTokenMapping[recordId].isPresent == true ||\n                govTokenMapping[recordId].isPresent == true,\n            \"Invalid record \"\n        );\n\n        require(\n            commTokenMapping[recordId].tokenId == tokenId ||\n                govTokenMapping[recordId].tokenId == tokenId,\n            \"Invalid tokens\"\n        );\n\n        // Here minting of new tokens is done. And those are sent directly into the treasury\n        _mint(\n            address(this),\n            tokenId,\n            tokenAmount,\n            \"Token minted through voting process\"\n        );\n\n        emit TokenMinted({\n            recordId: recordId,\n            tokenId: tokenId,\n            creationDate: block.timestamp,\n            tokenAmount: tokenAmount\n        });\n    }\n\n    /**\n     * @dev This function is called only by the voting contract once the voting ends\n     * @param to This is the recivers address\n     * @param recordId This is the recordId to which the contribution belongs to\n     * @param contributionId this is the contribution id to which the user has won\n     * @param rewardGovernance this is the amout of Governance token that needs to be transfered\n     * @param rewardCommunity this is the amout of comunity token that needs to be transfered\n     */\n    function transferRewardAmount(\n        address to,\n        uint256 recordId,\n        uint256 contributionId,\n        uint256 rewardGovernance,\n        uint256 rewardCommunity\n    ) external payable onlyContributionVotingContract {\n        _setApprovalForAll(\n            address(this),\n            CONTRIBUTION_VOTING_CONTRACT_ADDRESS,\n            true\n        );\n        if (rewardGovernance > 0) {\n            safeTransferFrom(\n                address(this),\n                to,\n                govTokenMapping[recordId].tokenId,\n                rewardGovernance,\n                \"\"\n            );\n        }\n\n        if (rewardCommunity > 0) {\n            safeTransferFrom(\n                address(this),\n                to,\n                commTokenMapping[recordId].tokenId,\n                rewardCommunity,\n                \"\"\n            );\n        }\n\n        emit ContributionRewardTransfered({\n            to: to,\n            recordId: recordId,\n            contributionId: contributionId,\n            rewardGovernance: rewardGovernance,\n            rewardCommunity: rewardCommunity\n        });\n    }\n\n    /**\n     * @dev This function gives you the community token id of the recordId that you pass\n     * @param recordId This is the Id of the token that you want to check\n     */\n    function getCommunityTokenId(uint256 recordId)\n        public\n        view\n        returns (uint256)\n    {\n        Token memory token = commTokenMapping[recordId];\n        if (token.isPresent) {\n            return token.tokenId;\n        } else {\n            revert(\"Invalid record id\");\n        }\n    }\n\n    /**\n     * @dev This function gives you the governance token id of the recordId that you pass\n     * @param recordId This is the Id of the token that you want to check\n     */\n    function getGovernanceTokenId(uint256 recordId)\n        public\n        view\n        returns (uint256)\n    {\n        Token memory token = govTokenMapping[recordId];\n        if (token.isPresent) {\n            return token.tokenId;\n        } else {\n            revert(\"Invalid record id\");\n        }\n    }\n\n    /**\n     * @dev This function returns the amount of total tokens that are in circulation\n     * @param tokenId This is the token whoes circulating supply you  want to find out\n     */\n    function totalCirculatingSupply(uint256 tokenId)\n        public\n        view\n        returns (uint256)\n    {\n        uint256 totalCirculatingBalance = SafeMath.sub(\n            totalSupply(tokenId),\n            balanceOf(address(this), tokenId)\n        );\n\n        return totalCirculatingBalance;\n    }\n\n    function snapshot() public returns (uint256 snapshotId) {\n        return _snapshot();\n    }\n\n    function onERC1155Received(\n        address operator,\n        address from,\n        uint256 id,\n        uint256 value,\n        bytes calldata data\n    ) external virtual override returns (bytes4) {\n        return\n            bytes4(\n                keccak256(\n                    \"onERC1155Received(address,address,uint256,uint256,bytes)\"\n                )\n            );\n    }\n\n    function onERC1155BatchReceived(\n        address operator,\n        address from,\n        uint256[] calldata ids,\n        uint256[] calldata values,\n        bytes calldata data\n    ) external virtual override returns (bytes4) {\n        return\n            bytes4(\n                keccak256(\n                    \"onERC1155BatchReceived(address,address,uint256[],uint256[],bytes)\"\n                )\n            );\n    }\n}\n",
  "sourcePath": "/Users/a1/Desktop/Office/projects/CrowdRecords/Contracts/contracts/TreasuryContract.sol",
  "compiler": {
    "name": "solc",
    "version": "0.8.12+commit.f00d7308.Emscripten.clang"
  },
  "schemaVersion": "3.4.6",
  "updatedAt": "2022-06-23T08:30:38.244Z",
  "devdoc": {
    "events": {
      "ContributionRewardTransfered(address,uint256,uint256,uint256,uint256)": {
        "details": "this is event which is genrated when a contribution voting has came to an end and the contribution is accepted",
        "params": {
          "contributionId": "This is the id of the contribution to which the record is related to ",
          "recordId": "This is the id of the record to which this contribution relates to ",
          "rewardCommunity": "The reward amount for comunity tokens",
          "rewardGovernance": "The reward amount for governance tokens ",
          "to": "This the address of the winner or the owner of the contribution "
        }
      },
      "NewTokenCreated(uint256,string,string,uint256,uint256,uint256,uint8)": {
        "details": "this is event which is created when new governance token is created (NEW CREATION Not MINITING)",
        "params": {
          "creationDate": "This is the creation date of the token ",
          "image": "This is the image of the token ",
          "recordId": "This is the record Id to which this token belongs to ",
          "symbol": "This is the symbol of the governance token",
          "tokenAmount": "This is the amount of token that are created ",
          "tokenId": "This is the id of token that is newly created tokens ",
          "tokenType": "This is the type of the token that is created => For governance 1 and for copyright 0  "
        }
      },
      "TokenMinted(uint256,uint256,uint256,uint256)": {
        "details": "this is event which is created when new governance token is minted after the voting is done",
        "params": {
          "creationDate": "This is the creation date of the token ",
          "recordId": "This is the record Id to which this token belongs to ",
          "tokenAmount": "This is the amount of token that are created ",
          "tokenId": "This is the id of token that is newly created tokens "
        }
      },
      "TokenTransfer(address,address,uint256,uint256,uint256,string)": {
        "details": "this is event which is created when a token transfer takes place",
        "params": {
          "amount": "This is the amount of token transfered ",
          "from": "This is the address of sender ",
          "symbol": "This is the symbol of the token that were transfered",
          "to": "This is the address of reciver ",
          "tokenId": "This is the id of the token that is being transfered ",
          "transferDate": "This is the date of the transfer"
        }
      }
    },
    "kind": "dev",
    "methods": {
      "balanceOf(address,uint256)": {
        "details": "See {IERC1155-balanceOf}. Requirements: - `account` cannot be the zero address."
      },
      "balanceOfAt(address,uint256,uint256)": {
        "details": "Retrieves the balance of `account` at the time `snapshotId` was created."
      },
      "balanceOfBatch(address[],uint256[])": {
        "details": "See {IERC1155-balanceOfBatch}. Requirements: - `accounts` and `ids` must have the same length."
      },
      "createNewCommunityToken((uint256,uint256,uint256,string,string))": {
        "details": "This function creats new community tokens for specified record",
        "params": {
          "newTokenData": "This contains all the parameters needed to create a new community token that are - recordId This is the recordId that for new token - totalSupply This is the total supply of community token - userBalance This is the amount of tokens that user wants to keep to himself - symbol This is the symbol of the community token - image this is image of the gov token."
        }
      },
      "createNewGovernanceToken((uint256,uint256,uint256,string,string))": {
        "details": "This function creats new governance tokens for specified record",
        "params": {
          "newTokenData": "This contains all the parameters needed to create a new governance token that are - recordId This is the recordId that for new token - totalSupply This is the total supply of governance token - userBalance This is the amount of tokens that user wants to keep to himself - symbol This is the symbol of the gvernance token - image this is image of the gov token."
        }
      },
      "exists(uint256)": {
        "details": "Indicates whether any token exist with a given id, or not."
      },
      "getCommunityTokenId(uint256)": {
        "details": "This function gives you the community token id of the recordId that you pass",
        "params": {
          "recordId": "This is the Id of the token that you want to check"
        }
      },
      "getGovernanceTokenId(uint256)": {
        "details": "This function gives you the governance token id of the recordId that you pass",
        "params": {
          "recordId": "This is the Id of the token that you want to check"
        }
      },
      "isApprovedForAll(address,address)": {
        "details": "See {IERC1155-isApprovedForAll}."
      },
      "mintTokens(uint256,uint256,uint256)": {
        "details": "This function creats new community tokens for specified record",
        "params": {
          "recordId": "This is the id of the record to which the token belongs to",
          "tokenAmount": "This is the amount that is to be minted",
          "tokenId": "This is the id of the which is to be minted"
        }
      },
      "onERC1155BatchReceived(address,address,uint256[],uint256[],bytes)": {
        "details": "Handles the receipt of a multiple ERC1155 token types. This function is called at the end of a `safeBatchTransferFrom` after the balances have been updated. NOTE: To accept the transfer(s), this must return `bytes4(keccak256(\"onERC1155BatchReceived(address,address,uint256[],uint256[],bytes)\"))` (i.e. 0xbc197c81, or its own function selector).",
        "params": {
          "data": "Additional data with no specified format",
          "from": "The address which previously owned the token",
          "ids": "An array containing ids of each token being transferred (order and length must match values array)",
          "operator": "The address which initiated the batch transfer (i.e. msg.sender)",
          "values": "An array containing amounts of each token being transferred (order and length must match ids array)"
        },
        "returns": {
          "_0": "`bytes4(keccak256(\"onERC1155BatchReceived(address,address,uint256[],uint256[],bytes)\"))` if transfer is allowed"
        }
      },
      "onERC1155Received(address,address,uint256,uint256,bytes)": {
        "details": "Handles the receipt of a single ERC1155 token type. This function is called at the end of a `safeTransferFrom` after the balance has been updated. NOTE: To accept the transfer, this must return `bytes4(keccak256(\"onERC1155Received(address,address,uint256,uint256,bytes)\"))` (i.e. 0xf23a6e61, or its own function selector).",
        "params": {
          "data": "Additional data with no specified format",
          "from": "The address which previously owned the token",
          "id": "The ID of the token being transferred",
          "operator": "The address which initiated the transfer (i.e. msg.sender)",
          "value": "The amount of tokens being transferred"
        },
        "returns": {
          "_0": "`bytes4(keccak256(\"onERC1155Received(address,address,uint256,uint256,bytes)\"))` if transfer is allowed"
        }
      },
      "safeBatchTransferFrom(address,address,uint256[],uint256[],bytes)": {
        "details": "See {IERC1155-safeBatchTransferFrom}."
      },
      "safeTransferFrom(address,address,uint256,uint256,bytes)": {
        "details": "See {IERC1155-safeTransferFrom}."
      },
      "setApprovalForAll(address,bool)": {
        "details": "See {IERC1155-setApprovalForAll}."
      },
      "setContributionVotingContractAddress(address)": {
        "details": "This function sets the Voting Contract address"
      },
      "setRecordsContractAddress(address)": {
        "details": "This function sets the Records Contract address"
      },
      "supportsInterface(bytes4)": {
        "details": "See {IERC165-supportsInterface}."
      },
      "totalCirculatingSupply(uint256)": {
        "details": "This function returns the amount of total tokens that are in circulation",
        "params": {
          "tokenId": "This is the token whoes circulating supply you  want to find out"
        }
      },
      "totalSupply(uint256)": {
        "details": "Total amount of tokens in with a given id."
      },
      "totalSupplyAt(uint256,uint256)": {
        "details": "Retrieves the total supply at the time `snapshotId` was created."
      },
      "transferRewardAmount(address,uint256,uint256,uint256,uint256)": {
        "details": "This function is called only by the voting contract once the voting ends",
        "params": {
          "contributionId": "this is the contribution id to which the user has won",
          "recordId": "This is the recordId to which the contribution belongs to",
          "rewardCommunity": "this is the amout of comunity token that needs to be transfered",
          "rewardGovernance": "this is the amout of Governance token that needs to be transfered",
          "to": "This is the recivers address"
        }
      },
      "uri(uint256)": {
        "details": "See {IERC1155MetadataURI-uri}. This implementation returns the same URI for *all* token types. It relies on the token type ID substitution mechanism https://eips.ethereum.org/EIPS/eip-1155#metadata[defined in the EIP]. Clients calling this function must replace the `\\{id\\}` substring with the actual token type ID."
      }
    },
    "version": 1
  },
  "userdoc": {
    "kind": "user",
    "methods": {},
    "version": 1
  }
}