{
  "contractName": "TreasuryContract",
  "abi": [
    {
      "inputs": [
        {
          "internalType": "address",
          "name": "owner",
          "type": "address"
        }
      ],
      "stateMutability": "nonpayable",
      "type": "constructor"
    },
    {
      "anonymous": false,
      "inputs": [
        {
          "indexed": true,
          "internalType": "address",
          "name": "account",
          "type": "address"
        },
        {
          "indexed": true,
          "internalType": "address",
          "name": "operator",
          "type": "address"
        },
        {
          "indexed": false,
          "internalType": "bool",
          "name": "approved",
          "type": "bool"
        }
      ],
      "name": "ApprovalForAll",
      "type": "event"
    },
    {
      "anonymous": false,
      "inputs": [
        {
          "indexed": false,
          "internalType": "address",
          "name": "to",
          "type": "address"
        },
        {
          "indexed": false,
          "internalType": "uint256",
          "name": "recordId",
          "type": "uint256"
        },
        {
          "indexed": false,
          "internalType": "uint256",
          "name": "contributionId",
          "type": "uint256"
        },
        {
          "indexed": false,
          "internalType": "uint256",
          "name": "rewardGovernance",
          "type": "uint256"
        },
        {
          "indexed": false,
          "internalType": "uint256",
          "name": "rewardCommunity",
          "type": "uint256"
        }
      ],
      "name": "ContributionRewardTransfered",
      "type": "event"
    },
    {
      "anonymous": false,
      "inputs": [
        {
          "indexed": false,
          "internalType": "uint256",
          "name": "recordId",
          "type": "uint256"
        },
        {
          "indexed": false,
          "internalType": "string",
          "name": "symbol",
          "type": "string"
        },
        {
          "indexed": false,
          "internalType": "string",
          "name": "image",
          "type": "string"
        },
        {
          "indexed": false,
          "internalType": "uint256",
          "name": "creationDate",
          "type": "uint256"
        },
        {
          "indexed": false,
          "internalType": "uint256",
          "name": "tokenAmount",
          "type": "uint256"
        },
        {
          "indexed": false,
          "internalType": "uint256",
          "name": "tokenId",
          "type": "uint256"
        },
        {
          "indexed": false,
          "internalType": "uint8",
          "name": "tokenType",
          "type": "uint8"
        }
      ],
      "name": "NewTokenCreated",
      "type": "event"
    },
    {
      "anonymous": false,
      "inputs": [
        {
          "indexed": false,
          "internalType": "uint256",
          "name": "id",
          "type": "uint256"
        }
      ],
      "name": "Snapshot",
      "type": "event"
    },
    {
      "anonymous": false,
      "inputs": [
        {
          "indexed": false,
          "internalType": "uint256",
          "name": "recordId",
          "type": "uint256"
        },
        {
          "indexed": false,
          "internalType": "uint256",
          "name": "tokenId",
          "type": "uint256"
        },
        {
          "indexed": false,
          "internalType": "uint256",
          "name": "creationDate",
          "type": "uint256"
        },
        {
          "indexed": false,
          "internalType": "uint256",
          "name": "tokenAmount",
          "type": "uint256"
        }
      ],
      "name": "TokenMinted",
      "type": "event"
    },
    {
      "anonymous": false,
      "inputs": [
        {
          "indexed": false,
          "internalType": "address",
          "name": "from",
          "type": "address"
        },
        {
          "indexed": false,
          "internalType": "address",
          "name": "to",
          "type": "address"
        },
        {
          "indexed": false,
          "internalType": "uint256",
          "name": "transferDate",
          "type": "uint256"
        },
        {
          "indexed": false,
          "internalType": "uint256",
          "name": "tokenId",
          "type": "uint256"
        },
        {
          "indexed": false,
          "internalType": "uint256",
          "name": "amount",
          "type": "uint256"
        },
        {
          "indexed": false,
          "internalType": "string",
          "name": "symbol",
          "type": "string"
        }
      ],
      "name": "TokenTransfer",
      "type": "event"
    },
    {
      "anonymous": false,
      "inputs": [
        {
          "indexed": true,
          "internalType": "address",
          "name": "operator",
          "type": "address"
        },
        {
          "indexed": true,
          "internalType": "address",
          "name": "from",
          "type": "address"
        },
        {
          "indexed": true,
          "internalType": "address",
          "name": "to",
          "type": "address"
        },
        {
          "indexed": false,
          "internalType": "uint256[]",
          "name": "ids",
          "type": "uint256[]"
        },
        {
          "indexed": false,
          "internalType": "uint256[]",
          "name": "values",
          "type": "uint256[]"
        }
      ],
      "name": "TransferBatch",
      "type": "event"
    },
    {
      "anonymous": false,
      "inputs": [
        {
          "indexed": true,
          "internalType": "address",
          "name": "operator",
          "type": "address"
        },
        {
          "indexed": true,
          "internalType": "address",
          "name": "from",
          "type": "address"
        },
        {
          "indexed": true,
          "internalType": "address",
          "name": "to",
          "type": "address"
        },
        {
          "indexed": false,
          "internalType": "uint256",
          "name": "id",
          "type": "uint256"
        },
        {
          "indexed": false,
          "internalType": "uint256",
          "name": "value",
          "type": "uint256"
        }
      ],
      "name": "TransferSingle",
      "type": "event"
    },
    {
      "anonymous": false,
      "inputs": [
        {
          "indexed": false,
          "internalType": "string",
          "name": "value",
          "type": "string"
        },
        {
          "indexed": true,
          "internalType": "uint256",
          "name": "id",
          "type": "uint256"
        }
      ],
      "name": "URI",
      "type": "event"
    },
    {
      "inputs": [],
      "name": "CONTRIBUTION_VOTING_CONTRACT_ADDRESS",
      "outputs": [
        {
          "internalType": "address",
          "name": "",
          "type": "address"
        }
      ],
      "stateMutability": "view",
      "type": "function",
      "constant": true
    },
    {
      "inputs": [],
      "name": "CRD",
      "outputs": [
        {
          "internalType": "uint256",
          "name": "",
          "type": "uint256"
        }
      ],
      "stateMutability": "view",
      "type": "function",
      "constant": true
    },
    {
      "inputs": [],
      "name": "DILUTION_CONTRACT_ADDRESS",
      "outputs": [
        {
          "internalType": "address",
          "name": "",
          "type": "address"
        }
      ],
      "stateMutability": "view",
      "type": "function",
      "constant": true
    },
    {
      "inputs": [],
      "name": "RECORDS_CONTRACT_ADDRESS",
      "outputs": [
        {
          "internalType": "address",
          "name": "",
          "type": "address"
        }
      ],
      "stateMutability": "view",
      "type": "function",
      "constant": true
    },
    {
      "inputs": [],
      "name": "VOTING_HUB_ADDRESS",
      "outputs": [
        {
          "internalType": "address",
          "name": "",
          "type": "address"
        }
      ],
      "stateMutability": "view",
      "type": "function",
      "constant": true
    },
    {
      "inputs": [
        {
          "internalType": "address",
          "name": "account",
          "type": "address"
        },
        {
          "internalType": "uint256",
          "name": "id",
          "type": "uint256"
        }
      ],
      "name": "balanceOf",
      "outputs": [
        {
          "internalType": "uint256",
          "name": "",
          "type": "uint256"
        }
      ],
      "stateMutability": "view",
      "type": "function",
      "constant": true
    },
    {
      "inputs": [
        {
          "internalType": "address",
          "name": "account",
          "type": "address"
        },
        {
          "internalType": "uint256",
          "name": "snapshotId",
          "type": "uint256"
        },
        {
          "internalType": "uint256",
          "name": "tokenId",
          "type": "uint256"
        }
      ],
      "name": "balanceOfAt",
      "outputs": [
        {
          "internalType": "uint256",
          "name": "",
          "type": "uint256"
        }
      ],
      "stateMutability": "view",
      "type": "function",
      "constant": true
    },
    {
      "inputs": [
        {
          "internalType": "address[]",
          "name": "accounts",
          "type": "address[]"
        },
        {
          "internalType": "uint256[]",
          "name": "ids",
          "type": "uint256[]"
        }
      ],
      "name": "balanceOfBatch",
      "outputs": [
        {
          "internalType": "uint256[]",
          "name": "",
          "type": "uint256[]"
        }
      ],
      "stateMutability": "view",
      "type": "function",
      "constant": true
    },
    {
      "inputs": [
        {
          "internalType": "uint256",
          "name": "id",
          "type": "uint256"
        }
      ],
      "name": "exists",
      "outputs": [
        {
          "internalType": "bool",
          "name": "",
          "type": "bool"
        }
      ],
      "stateMutability": "view",
      "type": "function",
      "constant": true
    },
    {
      "inputs": [
        {
          "internalType": "address",
          "name": "account",
          "type": "address"
        },
        {
          "internalType": "address",
          "name": "operator",
          "type": "address"
        }
      ],
      "name": "isApprovedForAll",
      "outputs": [
        {
          "internalType": "bool",
          "name": "",
          "type": "bool"
        }
      ],
      "stateMutability": "view",
      "type": "function",
      "constant": true
    },
    {
      "inputs": [
        {
          "internalType": "address",
          "name": "from",
          "type": "address"
        },
        {
          "internalType": "address",
          "name": "to",
          "type": "address"
        },
        {
          "internalType": "uint256[]",
          "name": "ids",
          "type": "uint256[]"
        },
        {
          "internalType": "uint256[]",
          "name": "amounts",
          "type": "uint256[]"
        },
        {
          "internalType": "bytes",
          "name": "data",
          "type": "bytes"
        }
      ],
      "name": "safeBatchTransferFrom",
      "outputs": [],
      "stateMutability": "nonpayable",
      "type": "function"
    },
    {
      "inputs": [
        {
          "internalType": "address",
          "name": "from",
          "type": "address"
        },
        {
          "internalType": "address",
          "name": "to",
          "type": "address"
        },
        {
          "internalType": "uint256",
          "name": "id",
          "type": "uint256"
        },
        {
          "internalType": "uint256",
          "name": "amount",
          "type": "uint256"
        },
        {
          "internalType": "bytes",
          "name": "data",
          "type": "bytes"
        }
      ],
      "name": "safeTransferFrom",
      "outputs": [],
      "stateMutability": "nonpayable",
      "type": "function"
    },
    {
      "inputs": [
        {
          "internalType": "address",
          "name": "operator",
          "type": "address"
        },
        {
          "internalType": "bool",
          "name": "approved",
          "type": "bool"
        }
      ],
      "name": "setApprovalForAll",
      "outputs": [],
      "stateMutability": "nonpayable",
      "type": "function"
    },
    {
      "inputs": [],
      "name": "snap",
      "outputs": [
        {
          "internalType": "uint256",
          "name": "",
          "type": "uint256"
        }
      ],
      "stateMutability": "nonpayable",
      "type": "function"
    },
    {
      "inputs": [
        {
          "internalType": "bytes4",
          "name": "interfaceId",
          "type": "bytes4"
        }
      ],
      "name": "supportsInterface",
      "outputs": [
        {
          "internalType": "bool",
          "name": "",
          "type": "bool"
        }
      ],
      "stateMutability": "view",
      "type": "function",
      "constant": true
    },
    {
      "inputs": [
        {
          "internalType": "uint256",
          "name": "id",
          "type": "uint256"
        }
      ],
      "name": "totalSupply",
      "outputs": [
        {
          "internalType": "uint256",
          "name": "",
          "type": "uint256"
        }
      ],
      "stateMutability": "view",
      "type": "function",
      "constant": true
    },
    {
      "inputs": [
        {
          "internalType": "uint256",
          "name": "snapshotId",
          "type": "uint256"
        },
        {
          "internalType": "uint256",
          "name": "tokenId",
          "type": "uint256"
        }
      ],
      "name": "totalSupplyAt",
      "outputs": [
        {
          "internalType": "uint256",
          "name": "",
          "type": "uint256"
        }
      ],
      "stateMutability": "view",
      "type": "function",
      "constant": true
    },
    {
      "inputs": [
        {
          "internalType": "uint256",
          "name": "",
          "type": "uint256"
        }
      ],
      "name": "uri",
      "outputs": [
        {
          "internalType": "string",
          "name": "",
          "type": "string"
        }
      ],
      "stateMutability": "view",
      "type": "function",
      "constant": true
    },
    {
      "inputs": [
        {
          "internalType": "address",
          "name": "ownerAddress",
          "type": "address"
        }
      ],
      "name": "setOwnerAddress",
      "outputs": [],
      "stateMutability": "nonpayable",
      "type": "function"
    },
    {
      "inputs": [
        {
          "internalType": "address",
          "name": "newRecordsContractAddress",
          "type": "address"
        }
      ],
      "name": "setRecordsContractAddress",
      "outputs": [],
      "stateMutability": "nonpayable",
      "type": "function"
    },
    {
      "inputs": [
        {
          "internalType": "address",
          "name": "newVotingHubContract",
          "type": "address"
        }
      ],
      "name": "setVotingHubContract",
      "outputs": [],
      "stateMutability": "nonpayable",
      "type": "function"
    },
    {
      "inputs": [
        {
          "internalType": "address",
          "name": "newDilutionContract",
          "type": "address"
        }
      ],
      "name": "setDilutionContract",
      "outputs": [],
      "stateMutability": "nonpayable",
      "type": "function"
    },
    {
      "inputs": [
        {
          "internalType": "address",
          "name": "newVotingContractAddress",
          "type": "address"
        }
      ],
      "name": "setContributionVotingContractAddress",
      "outputs": [],
      "stateMutability": "nonpayable",
      "type": "function"
    },
    {
      "inputs": [
        {
          "components": [
            {
              "internalType": "uint256",
              "name": "recordId",
              "type": "uint256"
            },
            {
              "internalType": "uint256",
              "name": "totalSupply",
              "type": "uint256"
            },
            {
              "internalType": "uint256",
              "name": "userBalance",
              "type": "uint256"
            },
            {
              "internalType": "string",
              "name": "symbol",
              "type": "string"
            },
            {
              "internalType": "string",
              "name": "image",
              "type": "string"
            }
          ],
          "internalType": "struct TreasuryContract.NewTokenData",
          "name": "newTokenData",
          "type": "tuple"
        }
      ],
      "name": "createNewGovernanceToken",
      "outputs": [
        {
          "internalType": "uint256",
          "name": "",
          "type": "uint256"
        }
      ],
      "stateMutability": "payable",
      "type": "function",
      "payable": true
    },
    {
      "inputs": [
        {
          "components": [
            {
              "internalType": "uint256",
              "name": "recordId",
              "type": "uint256"
            },
            {
              "internalType": "uint256",
              "name": "totalSupply",
              "type": "uint256"
            },
            {
              "internalType": "uint256",
              "name": "userBalance",
              "type": "uint256"
            },
            {
              "internalType": "string",
              "name": "symbol",
              "type": "string"
            },
            {
              "internalType": "string",
              "name": "image",
              "type": "string"
            }
          ],
          "internalType": "struct TreasuryContract.NewTokenData",
          "name": "newTokenData",
          "type": "tuple"
        }
      ],
      "name": "createNewCommunityToken",
      "outputs": [
        {
          "internalType": "uint256",
          "name": "",
          "type": "uint256"
        }
      ],
      "stateMutability": "payable",
      "type": "function",
      "payable": true
    },
    {
      "inputs": [
        {
          "internalType": "address",
          "name": "to",
          "type": "address"
        },
        {
          "internalType": "uint256",
          "name": "recordId",
          "type": "uint256"
        },
        {
          "internalType": "uint256",
          "name": "contributionId",
          "type": "uint256"
        },
        {
          "internalType": "uint256",
          "name": "rewardGovernance",
          "type": "uint256"
        },
        {
          "internalType": "uint256",
          "name": "rewardCommunity",
          "type": "uint256"
        }
      ],
      "name": "transferRewardAmount",
      "outputs": [],
      "stateMutability": "payable",
      "type": "function",
      "payable": true
    },
    {
      "inputs": [
        {
          "internalType": "uint256",
          "name": "recordId",
          "type": "uint256"
        }
      ],
      "name": "getCommunityTokenId",
      "outputs": [
        {
          "internalType": "uint256",
          "name": "",
          "type": "uint256"
        }
      ],
      "stateMutability": "view",
      "type": "function",
      "constant": true
    },
    {
      "inputs": [
        {
          "internalType": "uint256",
          "name": "recordId",
          "type": "uint256"
        }
      ],
      "name": "getGovernanceTokenId",
      "outputs": [
        {
          "internalType": "uint256",
          "name": "",
          "type": "uint256"
        }
      ],
      "stateMutability": "view",
      "type": "function",
      "constant": true
    },
    {
      "inputs": [
        {
          "internalType": "uint256",
          "name": "tokenId",
          "type": "uint256"
        }
      ],
      "name": "totalCirculatingSupply",
      "outputs": [
        {
          "internalType": "uint256",
          "name": "",
          "type": "uint256"
        }
      ],
      "stateMutability": "view",
      "type": "function",
      "constant": true
    },
    {
      "inputs": [],
      "name": "snapshot",
      "outputs": [
        {
          "internalType": "uint256",
          "name": "snapshotId",
          "type": "uint256"
        }
      ],
      "stateMutability": "nonpayable",
      "type": "function"
    },
    {
      "inputs": [
        {
          "internalType": "uint256",
          "name": "tokenId",
          "type": "uint256"
        },
        {
          "internalType": "uint256",
          "name": "amount",
          "type": "uint256"
        }
      ],
      "name": "mintTokens",
      "outputs": [],
      "stateMutability": "nonpayable",
      "type": "function"
    },
    {
      "inputs": [
        {
          "internalType": "uint256",
          "name": "recordId",
          "type": "uint256"
        },
        {
          "internalType": "uint256",
          "name": "tokenId",
          "type": "uint256"
        },
        {
          "internalType": "uint256",
          "name": "tokenAmount",
          "type": "uint256"
        }
      ],
      "name": "mintTokens",
      "outputs": [],
      "stateMutability": "payable",
      "type": "function",
      "payable": true
    },
    {
      "inputs": [
        {
          "internalType": "address",
          "name": "operator",
          "type": "address"
        },
        {
          "internalType": "address",
          "name": "from",
          "type": "address"
        },
        {
          "internalType": "uint256",
          "name": "id",
          "type": "uint256"
        },
        {
          "internalType": "uint256",
          "name": "value",
          "type": "uint256"
        },
        {
          "internalType": "bytes",
          "name": "data",
          "type": "bytes"
        }
      ],
      "name": "onERC1155Received",
      "outputs": [
        {
          "internalType": "bytes4",
          "name": "",
          "type": "bytes4"
        }
      ],
      "stateMutability": "nonpayable",
      "type": "function"
    },
    {
      "inputs": [
        {
          "internalType": "address",
          "name": "operator",
          "type": "address"
        },
        {
          "internalType": "address",
          "name": "from",
          "type": "address"
        },
        {
          "internalType": "uint256[]",
          "name": "ids",
          "type": "uint256[]"
        },
        {
          "internalType": "uint256[]",
          "name": "values",
          "type": "uint256[]"
        },
        {
          "internalType": "bytes",
          "name": "data",
          "type": "bytes"
        }
      ],
      "name": "onERC1155BatchReceived",
      "outputs": [
        {
          "internalType": "bytes4",
          "name": "",
          "type": "bytes4"
        }
      ],
      "stateMutability": "nonpayable",
      "type": "function"
    }
  ],
  "bytecode": "0x608060405260016007556040518060400160405280600581526020017f435244475f000000000000000000000000000000000000000000000000000000815250600d90805190602001906200005692919062000dff565b506040518060400160405280600481526020017f4352445f00000000000000000000000000000000000000000000000000000000815250600e9080519060200190620000a492919062000dff565b506000600f60006101000a81548160ff021916908360ff1602179055506001600f60016101000a81548160ff021916908360ff160217905550348015620000ea57600080fd5b506040516200739538038062007395833981810160405281019062000110919062000f23565b6040518060400160405280601d81526020017f68747470733a2f2f63726f77647265636f7264732e636f6d2f7b69647d0000008152506200015781620001f460201b60201c565b50620001ac81600169d3c21bcecceda10000006040518060400160405280601881526020017f68747470733a2f2f63726f77647265636f7264732e636f6d00000000000000008152506200021060201b60201c565b80600c60006101000a81548173ffffffffffffffffffffffffffffffffffffffff021916908373ffffffffffffffffffffffffffffffffffffffff1602179055505062001755565b80600290805190602001906200020c92919062000dff565b5050565b600073ffffffffffffffffffffffffffffffffffffffff168473ffffffffffffffffffffffffffffffffffffffff16141562000283576040517f08c379a00000000000000000000000000000000000000000000000000000000081526004016200027a9062000fdc565b60405180910390fd5b600062000295620003d560201b60201c565b9050620002ce81600087620002b088620003dd60201b60201c565b620002c188620003dd60201b60201c565b876200045e60201b60201c565b8260008086815260200190815260200160002060008773ffffffffffffffffffffffffffffffffffffffff1673ffffffffffffffffffffffffffffffffffffffff16815260200190815260200160002060008282546200032f919062001037565b925050819055508473ffffffffffffffffffffffffffffffffffffffff16600073ffffffffffffffffffffffffffffffffffffffff168273ffffffffffffffffffffffffffffffffffffffff167fc3d58168c5ae7397731d063d5bbf3d657854427343f4c083240f7aacaa2d0f628787604051620003af929190620010a5565b60405180910390a4620003ce81600087878787620005d460201b60201c565b5050505050565b600033905090565b60606000600167ffffffffffffffff811115620003ff57620003fe620010d2565b5b6040519080825280602002602001820160405280156200042e5781602001602082028036833780820191505090505b509050828160008151811062000449576200044862001101565b5b60200260200101818152505080915050919050565b600073ffffffffffffffffffffffffffffffffffffffff16600b60009054906101000a900473ffffffffffffffffffffffffffffffffffffffff1673ffffffffffffffffffffffffffffffffffffffff1614620005b1576000600b60009054906101000a900473ffffffffffffffffffffffffffffffffffffffff16905060005b8451811015620005ae578173ffffffffffffffffffffffffffffffffffffffff16631de841ba88888785815181106200051d576200051c62001101565b5b60200260200101518986815181106200053b576200053a62001101565b5b60200260200101516040518563ffffffff1660e01b815260040162000564949392919062001141565b600060405180830381600087803b1580156200057f57600080fd5b505af115801562000594573d6000803e3d6000fd5b505050508080620005a5906200118e565b915050620004df565b50505b620005cc868686868686620007ce60201b620022e01760201c565b505050505050565b620006008473ffffffffffffffffffffffffffffffffffffffff16620008d560201b620023a61760201c565b15620007c6578373ffffffffffffffffffffffffffffffffffffffff1663f23a6e6187878686866040518663ffffffff1660e01b81526004016200064995949392919062001280565b6020604051808303816000875af19250505080156200068857506040513d601f19601f8201168201806040525081019062000685919062001341565b60015b6200073a576200069762001380565b806308c379a01415620006fb5750620006af620013db565b80620006bc5750620006fd565b806040517f08c379a0000000000000000000000000000000000000000000000000000000008152600401620006f29190620014c9565b60405180910390fd5b505b6040517f08c379a0000000000000000000000000000000000000000000000000000000008152600401620007319062001563565b60405180910390fd5b63f23a6e6160e01b7bffffffffffffffffffffffffffffffffffffffffffffffffffffffff1916817bffffffffffffffffffffffffffffffffffffffffffffffffffffffff191614620007c4576040517f08c379a0000000000000000000000000000000000000000000000000000000008152600401620007bb90620015fb565b60405180910390fd5b505b505050505050565b600073ffffffffffffffffffffffffffffffffffffffff168573ffffffffffffffffffffffffffffffffffffffff1614156200082d57620008168484620008f860201b60201c565b6200082783620009cc60201b60201c565b620008b2565b600073ffffffffffffffffffffffffffffffffffffffff168473ffffffffffffffffffffffffffffffffffffffff1614156200088c57620008758584620008f860201b60201c565b6200088683620009cc60201b60201c565b620008b1565b6200089e8584620008f860201b60201c565b620008b08484620008f860201b60201c565b5b5b620008cd86868686868662000a6160201b620023c91760201c565b505050505050565b6000808273ffffffffffffffffffffffffffffffffffffffff163b119050919050565b60005b8151811015620009c757620009b1600460008573ffffffffffffffffffffffffffffffffffffffff1673ffffffffffffffffffffffffffffffffffffffff168152602001908152602001600020600084848151811062000960576200095f62001101565b5b60200260200101518152602001908152602001600020620009a58585858151811062000991576200099062001101565b5b602002602001015162000c0260201b60201c565b62000cce60201b60201c565b8080620009be906200118e565b915050620008fb565b505050565b60005b815181101562000a5d5762000a4760056000848481518110620009f757620009f662001101565b5b6020026020010151815260200190815260200160002062000a3b84848151811062000a275762000a2662001101565b5b602002602001015162000d5a60201b60201c565b62000cce60201b60201c565b808062000a54906200118e565b915050620009cf565b5050565b62000a7c86868686868662000d7760201b620025431760201c565b600073ffffffffffffffffffffffffffffffffffffffff168573ffffffffffffffffffffffffffffffffffffffff16141562000b3b5760005b835181101562000b395782818151811062000ad55762000ad462001101565b5b60200260200101516003600086848151811062000af75762000af662001101565b5b60200260200101518152602001908152602001600020600082825462000b1e919062001037565b925050819055508062000b31906200118e565b905062000ab5565b505b600073ffffffffffffffffffffffffffffffffffffffff168473ffffffffffffffffffffffffffffffffffffffff16141562000bfa5760005b835181101562000bf85782818151811062000b945762000b9362001101565b5b60200260200101516003600086848151811062000bb65762000bb562001101565b5b60200260200101518152602001908152602001600020600082825462000bdd91906200161d565b925050819055508062000bf0906200118e565b905062000b74565b505b505050505050565b60008073ffffffffffffffffffffffffffffffffffffffff168373ffffffffffffffffffffffffffffffffffffffff16141562000c76576040517f08c379a000000000000000000000000000000000000000000000000000000000815260040162000c6d90620016ce565b60405180910390fd5b60008083815260200190815260200160002060008473ffffffffffffffffffffffffffffffffffffffff1673ffffffffffffffffffffffffffffffffffffffff16815260200190815260200160002054905092915050565b600062000ce062000d7f60201b60201c565b90508062000cf78460000162000d9d60201b60201c565b101562000d555782600001819080600181540180825580915050600190039060005260206000200160009091909190915055826001018290806001815401808255809150506001900390600052602060002001600090919091909150555b505050565b600060036000838152602001908152602001600020549050919050565b505050505050565b600062000d98600662000df160201b6200254b1760201c565b905090565b6000808280549050141562000db6576000905062000dec565b816001838054905062000dca91906200161d565b8154811062000dde5762000ddd62001101565b5b906000526020600020015490505b919050565b600081600001549050919050565b82805462000e0d906200171f565b90600052602060002090601f01602090048101928262000e31576000855562000e7d565b82601f1062000e4c57805160ff191683800117855562000e7d565b8280016001018555821562000e7d579182015b8281111562000e7c57825182559160200191906001019062000e5f565b5b50905062000e8c919062000e90565b5090565b5b8082111562000eab57600081600090555060010162000e91565b5090565b6000604051905090565b600080fd5b600073ffffffffffffffffffffffffffffffffffffffff82169050919050565b600062000eeb8262000ebe565b9050919050565b62000efd8162000ede565b811462000f0957600080fd5b50565b60008151905062000f1d8162000ef2565b92915050565b60006020828403121562000f3c5762000f3b62000eb9565b5b600062000f4c8482850162000f0c565b91505092915050565b600082825260208201905092915050565b7f455243313135353a206d696e7420746f20746865207a65726f2061646472657360008201527f7300000000000000000000000000000000000000000000000000000000000000602082015250565b600062000fc460218362000f55565b915062000fd18262000f66565b604082019050919050565b6000602082019050818103600083015262000ff78162000fb5565b9050919050565b6000819050919050565b7f4e487b7100000000000000000000000000000000000000000000000000000000600052601160045260246000fd5b6000620010448262000ffe565b9150620010518362000ffe565b9250827fffffffffffffffffffffffffffffffffffffffffffffffffffffffffffffffff0382111562001089576200108862001008565b5b828201905092915050565b6200109f8162000ffe565b82525050565b6000604082019050620010bc600083018562001094565b620010cb602083018462001094565b9392505050565b7f4e487b7100000000000000000000000000000000000000000000000000000000600052604160045260246000fd5b7f4e487b7100000000000000000000000000000000000000000000000000000000600052603260045260246000fd5b6200113b8162000ede565b82525050565b600060808201905062001158600083018762001130565b62001167602083018662001130565b62001176604083018562001094565b62001185606083018462001094565b95945050505050565b60006200119b8262000ffe565b91507fffffffffffffffffffffffffffffffffffffffffffffffffffffffffffffffff821415620011d157620011d062001008565b5b600182019050919050565b600081519050919050565b600082825260208201905092915050565b60005b8381101562001218578082015181840152602081019050620011fb565b8381111562001228576000848401525b50505050565b6000601f19601f8301169050919050565b60006200124c82620011dc565b620012588185620011e7565b93506200126a818560208601620011f8565b62001275816200122e565b840191505092915050565b600060a08201905062001297600083018862001130565b620012a6602083018762001130565b620012b5604083018662001094565b620012c4606083018562001094565b8181036080830152620012d881846200123f565b90509695505050505050565b60007fffffffff0000000000000000000000000000000000000000000000000000000082169050919050565b6200131b81620012e4565b81146200132757600080fd5b50565b6000815190506200133b8162001310565b92915050565b6000602082840312156200135a576200135962000eb9565b5b60006200136a848285016200132a565b91505092915050565b60008160e01c9050919050565b600060033d1115620013a25760046000803e6200139f60005162001373565b90505b90565b620013b0826200122e565b810181811067ffffffffffffffff82111715620013d257620013d1620010d2565b5b80604052505050565b600060443d1015620013ed576200147a565b620013f762000eaf565b60043d036004823e80513d602482011167ffffffffffffffff82111715620014215750506200147a565b808201805167ffffffffffffffff8111156200144157505050506200147a565b80602083010160043d038501811115620014605750505050506200147a565b6200147182602001850186620013a5565b82955050505050505b90565b600081519050919050565b600062001495826200147d565b620014a1818562000f55565b9350620014b3818560208601620011f8565b620014be816200122e565b840191505092915050565b60006020820190508181036000830152620014e5818462001488565b905092915050565b7f455243313135353a207472616e7366657220746f206e6f6e204552433131353560008201527f526563656976657220696d706c656d656e746572000000000000000000000000602082015250565b60006200154b60348362000f55565b91506200155882620014ed565b604082019050919050565b600060208201905081810360008301526200157e816200153c565b9050919050565b7f455243313135353a204552433131353552656365697665722072656a6563746560008201527f6420746f6b656e73000000000000000000000000000000000000000000000000602082015250565b6000620015e360288362000f55565b9150620015f08262001585565b604082019050919050565b600060208201905081810360008301526200161681620015d4565b9050919050565b60006200162a8262000ffe565b9150620016378362000ffe565b9250828210156200164d576200164c62001008565b5b828203905092915050565b7f455243313135353a2062616c616e636520717565727920666f7220746865207a60008201527f65726f2061646472657373000000000000000000000000000000000000000000602082015250565b6000620016b6602b8362000f55565b9150620016c38262001658565b604082019050919050565b60006020820190508181036000830152620016e981620016a7565b9050919050565b7f4e487b7100000000000000000000000000000000000000000000000000000000600052602260045260246000fd5b600060028204905060018216806200173857607f821691505b602082108114156200174f576200174e620016f0565b5b50919050565b615c3080620017656000396000f3fe6080604052600436106101f85760003560e01c80638fbf353f1161010d578063bd85b039116100a0578063e6870f951161006f578063e6870f9514610790578063e6acd9b8146107bb578063e985e9c5146107e6578063f23a6e6114610823578063f242432a14610860576101f8565b8063bd85b039146106bd578063cceaf625146106fa578063d6ca40a71461072a578063dfe813eb14610767576101f8565b8063af670769116100dc578063af67076914610601578063b875e13a1461062c578063ba19a67514610655578063bc197c8114610680576101f8565b80638fbf353f146105665780639711715a14610582578063a22cb465146105ad578063a77d38fa146105d6576101f8565b806334a7c2e7116101905780636055c8551161015f5780636055c85514610477578063626da068146104a05780636d15dd2c146104dd5780638388f4131461050d5780638aa7a8b014610529576101f8565b806334a7c2e7146103a957806336868049146103d25780634e1273f4146103fd5780634f558e791461043a576101f8565b806321aa2ccf116101cc57806321aa2ccf146102f15780632d4a03821461031a5780632eb2c2d614610357578063331a6bf514610380576101f8565b8062fdd58e146101fd57806301ffc9a71461023a578063036c22ad146102775780630e89341c146102b4575b600080fd5b34801561020957600080fd5b50610224600480360381019061021f9190613af4565b610889565b6040516102319190613b43565b60405180910390f35b34801561024657600080fd5b50610261600480360381019061025c9190613bb6565b610952565b60405161026e9190613bfe565b60405180910390f35b34801561028357600080fd5b5061029e60048036038101906102999190613c19565b610a34565b6040516102ab9190613b43565b60405180910390f35b3480156102c057600080fd5b506102db60048036038101906102d69190613c19565b610a5d565b6040516102e89190613cdf565b60405180910390f35b3480156102fd57600080fd5b5061031860048036038101906103139190613d01565b610af1565b005b34801561032657600080fd5b50610341600480360381019061033c9190613c19565b610bc5565b60405161034e9190613b43565b60405180910390f35b34801561036357600080fd5b5061037e60048036038101906103799190613f2b565b610d9c565b005b34801561038c57600080fd5b506103a760048036038101906103a29190613d01565b610e3d565b005b3480156103b557600080fd5b506103d060048036038101906103cb9190613ffa565b610f11565b005b3480156103de57600080fd5b506103e7610fe6565b6040516103f49190614049565b60405180910390f35b34801561040957600080fd5b50610424600480360381019061041f9190614127565b61100c565b604051610431919061425d565b60405180910390f35b34801561044657600080fd5b50610461600480360381019061045c9190613c19565b611125565b60405161046e9190613bfe565b60405180910390f35b34801561048357600080fd5b5061049e60048036038101906104999190613d01565b611139565b005b3480156104ac57600080fd5b506104c760048036038101906104c2919061427f565b61120d565b6040516104d49190613b43565b60405180910390f35b6104f760048036038101906104f29190614441565b611290565b6040516105049190613b43565b60405180910390f35b6105276004803603810190610522919061448a565b6115e5565b005b34801561053557600080fd5b50610550600480360381019061054b9190613ffa565b611761565b60405161055d9190613b43565b60405180910390f35b610580600480360381019061057b9190614505565b6117a5565b005b34801561058e57600080fd5b506105976119af565b6040516105a49190613b43565b60405180910390f35b3480156105b957600080fd5b506105d460048036038101906105cf9190614584565b6119be565b005b3480156105e257600080fd5b506105eb6119d4565b6040516105f89190613b43565b60405180910390f35b34801561060d57600080fd5b506106166119e3565b6040516106239190614049565b60405180910390f35b34801561063857600080fd5b50610653600480360381019061064e9190613d01565b611a09565b005b34801561066157600080fd5b5061066a611add565b6040516106779190614049565b60405180910390f35b34801561068c57600080fd5b506106a760048036038101906106a29190614675565b611b03565b6040516106b49190614760565b60405180910390f35b3480156106c957600080fd5b506106e460048036038101906106df9190613c19565b611b34565b6040516106f19190613b43565b60405180910390f35b610714600480360381019061070f9190614441565b611b51565b6040516107219190613b43565b60405180910390f35b34801561073657600080fd5b50610751600480360381019061074c9190613c19565b611ea6565b60405161075e9190613b43565b60405180910390f35b34801561077357600080fd5b5061078e60048036038101906107899190613d01565b61207d565b005b34801561079c57600080fd5b506107a5612151565b6040516107b29190614049565b60405180910390f35b3480156107c757600080fd5b506107d0612177565b6040516107dd9190613b43565b60405180910390f35b3480156107f257600080fd5b5061080d6004803603810190610808919061477b565b61217c565b60405161081a9190613bfe565b60405180910390f35b34801561082f57600080fd5b5061084a600480360381019061084591906147bb565b612210565b6040516108579190614760565b60405180910390f35b34801561086c57600080fd5b5061088760048036038101906108829190614855565b61223f565b005b60008073ffffffffffffffffffffffffffffffffffffffff168373ffffffffffffffffffffffffffffffffffffffff1614156108fa576040517f08c379a00000000000000000000000000000000000000000000000000000000081526004016108f19061495e565b60405180910390fd5b60008083815260200190815260200160002060008473ffffffffffffffffffffffffffffffffffffffff1673ffffffffffffffffffffffffffffffffffffffff16815260200190815260200160002054905092915050565b60007fd9b67a26000000000000000000000000000000000000000000000000000000007bffffffffffffffffffffffffffffffffffffffffffffffffffffffff1916827bffffffffffffffffffffffffffffffffffffffffffffffffffffffff19161480610a1d57507f0e89341c000000000000000000000000000000000000000000000000000000007bffffffffffffffffffffffffffffffffffffffffffffffffffffffff1916827bffffffffffffffffffffffffffffffffffffffffffffffffffffffff1916145b80610a2d5750610a2c82612559565b5b9050919050565b600080610a52610a4384611b34565b610a4d3086610889565b6125c3565b905080915050919050565b606060028054610a6c906149ad565b80601f0160208091040260200160405190810160405280929190818152602001828054610a98906149ad565b8015610ae55780601f10610aba57610100808354040283529160200191610ae5565b820191906000526020600020905b815481529060010190602001808311610ac857829003601f168201915b50505050509050919050565b600c60009054906101000a900473ffffffffffffffffffffffffffffffffffffffff1673ffffffffffffffffffffffffffffffffffffffff163373ffffffffffffffffffffffffffffffffffffffff1614610b81576040517f08c379a0000000000000000000000000000000000000000000000000000000008152600401610b7890614a51565b60405180910390fd5b80600a60006101000a81548173ffffffffffffffffffffffffffffffffffffffff021916908373ffffffffffffffffffffffffffffffffffffffff16021790555050565b600080601160008481526020019081526020016000206040518060c001604052908160008201548152602001600182018054610c00906149ad565b80601f0160208091040260200160405190810160405280929190818152602001828054610c2c906149ad565b8015610c795780601f10610c4e57610100808354040283529160200191610c79565b820191906000526020600020905b815481529060010190602001808311610c5c57829003601f168201915b50505050508152602001600282018054610c92906149ad565b80601f0160208091040260200160405190810160405280929190818152602001828054610cbe906149ad565b8015610d0b5780601f10610ce057610100808354040283529160200191610d0b565b820191906000526020600020905b815481529060010190602001808311610cee57829003601f168201915b50505050508152602001600382015481526020016004820160009054906101000a900460ff161515151581526020016005820154815250509050806080015115610d5c578060a00151915050610d97565b6040517f08c379a0000000000000000000000000000000000000000000000000000000008152600401610d8e90614abd565b60405180910390fd5b919050565b610da46125d9565b73ffffffffffffffffffffffffffffffffffffffff168573ffffffffffffffffffffffffffffffffffffffff161480610dea5750610de985610de46125d9565b61217c565b5b610e29576040517f08c379a0000000000000000000000000000000000000000000000000000000008152600401610e2090614b4f565b60405180910390fd5b610e3685858585856125e1565b5050505050565b600c60009054906101000a900473ffffffffffffffffffffffffffffffffffffffff1673ffffffffffffffffffffffffffffffffffffffff163373ffffffffffffffffffffffffffffffffffffffff1614610ecd576040517f08c379a0000000000000000000000000000000000000000000000000000000008152600401610ec490614a51565b60405180910390fd5b80600c60006101000a81548173ffffffffffffffffffffffffffffffffffffffff021916908373ffffffffffffffffffffffffffffffffffffffff16021790555050565b600a60009054906101000a900473ffffffffffffffffffffffffffffffffffffffff1673ffffffffffffffffffffffffffffffffffffffff163373ffffffffffffffffffffffffffffffffffffffff1614610fa1576040517f08c379a0000000000000000000000000000000000000000000000000000000008152600401610f9890614a51565b60405180910390fd5b610fe23083836040518060400160405280601181526020017f4e657720746f6b656e73206d696e7465640000000000000000000000000000008152506128f5565b5050565b600b60009054906101000a900473ffffffffffffffffffffffffffffffffffffffff1681565b60608151835114611052576040517f08c379a000000000000000000000000000000000000000000000000000000000815260040161104990614be1565b60405180910390fd5b6000835167ffffffffffffffff81111561106f5761106e613d33565b5b60405190808252806020026020018201604052801561109d5781602001602082028036833780820191505090505b50905060005b845181101561111a576110ea8582815181106110c2576110c1614c01565b5b60200260200101518583815181106110dd576110dc614c01565b5b6020026020010151610889565b8282815181106110fd576110fc614c01565b5b6020026020010181815250508061111390614c5f565b90506110a3565b508091505092915050565b60008061113183611b34565b119050919050565b600c60009054906101000a900473ffffffffffffffffffffffffffffffffffffffff1673ffffffffffffffffffffffffffffffffffffffff163373ffffffffffffffffffffffffffffffffffffffff16146111c9576040517f08c379a00000000000000000000000000000000000000000000000000000000081526004016111c090614a51565b60405180910390fd5b80600960006101000a81548173ffffffffffffffffffffffffffffffffffffffff021916908373ffffffffffffffffffffffffffffffffffffffff16021790555050565b600080600061126b85600460008973ffffffffffffffffffffffffffffffffffffffff1673ffffffffffffffffffffffffffffffffffffffff1681526020019081526020016000206000878152602001908152602001600020612a8b565b91509150816112835761127e8685610889565b611285565b805b925050509392505050565b6000818060400151600282602001516112a99190614cd7565b116112e9576040517f08c379a00000000000000000000000000000000000000000000000000000000081526004016112e090614d7a565b60405180910390fd5b6000600860009054906101000a900473ffffffffffffffffffffffffffffffffffffffff16905060008173ffffffffffffffffffffffffffffffffffffffff1662fdd58e3385600001516040518363ffffffff1660e01b8152600401611350929190614d9a565b602060405180830381865afa15801561136d573d6000803e3d6000fd5b505050506040513d601f19601f820116820180604052508101906113919190614dd8565b9050600081116113d6576040517f08c379a00000000000000000000000000000000000000000000000000000000081526004016113cd90614e77565b60405180910390fd5b6000600e6040516020016113ea9190614f36565b6040516020818303038152906040529050808660600151604051602001611412929190614fc5565b60405160208183030381529060405286606001819052505060001515601160008760000151815260200190815260200160002060040160009054906101000a900460ff16151514611498576040517f08c379a000000000000000000000000000000000000000000000000000000000815260040161148f9061505b565b60405180910390fd5b60001515601386606001516040516114b0919061507b565b908152602001604051809103902060009054906101000a900460ff1615151461150e576040517f08c379a000000000000000000000000000000000000000000000000000000000815260040161150590615104565b60405180910390fd5b6007600081548092919061152190614c5f565b9190505550600060075490506115478682600f60009054906101000a900460ff16612b81565b6011600088600001518152602001908152602001600020600082015181600001556020820151816001019080519060200190611584929190613971565b5060408201518160020190805190602001906115a1929190613971565b506060820151816003015560808201518160040160006101000a81548160ff02191690831515021790555060a0820151816005015590505080945050505050919050565b600960009054906101000a900473ffffffffffffffffffffffffffffffffffffffff1673ffffffffffffffffffffffffffffffffffffffff163373ffffffffffffffffffffffffffffffffffffffff1614611675576040517f08c379a000000000000000000000000000000000000000000000000000000000815260040161166c90614a51565b60405180910390fd5b6116a330600960009054906101000a900473ffffffffffffffffffffffffffffffffffffffff166001612c84565b60008211156116df576116de30866010600088815260200190815260200160002060050154856040518060200160405280600081525061223f565b5b600081111561171b5761171a30866011600088815260200190815260200160002060050154846040518060200160405280600081525061223f565b5b7f95d0edb8d2174cb0f1294749b563fa9ac6c9e441ef6a0202f6e8e52028643dfd8585858585604051611752959493929190615124565b60405180910390a15050505050565b60008060006117828560056000878152602001908152602001600020612a8b565b91509150816117995761179484611b34565b61179b565b805b9250505092915050565b600960009054906101000a900473ffffffffffffffffffffffffffffffffffffffff1673ffffffffffffffffffffffffffffffffffffffff163373ffffffffffffffffffffffffffffffffffffffff1614611835576040517f08c379a000000000000000000000000000000000000000000000000000000000815260040161182c90614a51565b60405180910390fd5b600115156011600085815260200190815260200160002060040160009054906101000a900460ff16151514806118925750600115156010600085815260200190815260200160002060040160009054906101000a900460ff161515145b6118d1576040517f08c379a00000000000000000000000000000000000000000000000000000000081526004016118c8906151c3565b60405180910390fd5b816011600085815260200190815260200160002060050154148061190a5750816010600085815260200190815260200160002060050154145b611949576040517f08c379a00000000000000000000000000000000000000000000000000000000081526004016119409061522f565b60405180910390fd5b61196d308383604051806060016040528060238152602001615bd8602391396128f5565b7f81e0b881b9c6ff93955a4a996cc01472b2cdc1a1663af072fa5ca7db7f127de2838342846040516119a2949392919061524f565b60405180910390a1505050565b60006119b9612df1565b905090565b6119d06119c96125d9565b8383612c84565b5050565b60006119de612df1565b905090565b600960009054906101000a900473ffffffffffffffffffffffffffffffffffffffff1681565b600c60009054906101000a900473ffffffffffffffffffffffffffffffffffffffff1673ffffffffffffffffffffffffffffffffffffffff163373ffffffffffffffffffffffffffffffffffffffff1614611a99576040517f08c379a0000000000000000000000000000000000000000000000000000000008152600401611a9090614a51565b60405180910390fd5b80600b60006101000a81548173ffffffffffffffffffffffffffffffffffffffff021916908373ffffffffffffffffffffffffffffffffffffffff16021790555050565b600860009054906101000a900473ffffffffffffffffffffffffffffffffffffffff1681565b60007fbc197c819b3e337a6f9652dd10becd7eef83032af3b9d958d3d42f6694146621905098975050505050505050565b600060036000838152602001908152602001600020549050919050565b600081806040015160028260200151611b6a9190614cd7565b11611baa576040517f08c379a0000000000000000000000000000000000000000000000000000000008152600401611ba190614d7a565b60405180910390fd5b6000600860009054906101000a900473ffffffffffffffffffffffffffffffffffffffff16905060008173ffffffffffffffffffffffffffffffffffffffff1662fdd58e3385600001516040518363ffffffff1660e01b8152600401611c11929190614d9a565b602060405180830381865afa158015611c2e573d6000803e3d6000fd5b505050506040513d601f19601f82011682018060405250810190611c529190614dd8565b905060008111611c97576040517f08c379a0000000000000000000000000000000000000000000000000000000008152600401611c8e90614e77565b60405180910390fd5b6000600d604051602001611cab9190614f36565b6040516020818303038152906040529050808660600151604051602001611cd3929190614fc5565b60405160208183030381529060405286606001819052505060001515601060008760000151815260200190815260200160002060040160009054906101000a900460ff16151514611d59576040517f08c379a0000000000000000000000000000000000000000000000000000000008152600401611d509061505b565b60405180910390fd5b6000151560128660600151604051611d71919061507b565b908152602001604051809103902060009054906101000a900460ff16151514611dcf576040517f08c379a0000000000000000000000000000000000000000000000000000000008152600401611dc690615104565b60405180910390fd5b60076000815480929190611de290614c5f565b919050555060006007549050611e088682600f60019054906101000a900460ff16612b81565b6010600088600001518152602001908152602001600020600082015181600001556020820151816001019080519060200190611e45929190613971565b506040820151816002019080519060200190611e62929190613971565b506060820151816003015560808201518160040160006101000a81548160ff02191690831515021790555060a0820151816005015590505080945050505050919050565b600080601060008481526020019081526020016000206040518060c001604052908160008201548152602001600182018054611ee1906149ad565b80601f0160208091040260200160405190810160405280929190818152602001828054611f0d906149ad565b8015611f5a5780601f10611f2f57610100808354040283529160200191611f5a565b820191906000526020600020905b815481529060010190602001808311611f3d57829003601f168201915b50505050508152602001600282018054611f73906149ad565b80601f0160208091040260200160405190810160405280929190818152602001828054611f9f906149ad565b8015611fec5780601f10611fc157610100808354040283529160200191611fec565b820191906000526020600020905b815481529060010190602001808311611fcf57829003601f168201915b50505050508152602001600382015481526020016004820160009054906101000a900460ff16151515158152602001600582015481525050905080608001511561203d578060a00151915050612078565b6040517f08c379a000000000000000000000000000000000000000000000000000000000815260040161206f90614abd565b60405180910390fd5b919050565b600c60009054906101000a900473ffffffffffffffffffffffffffffffffffffffff1673ffffffffffffffffffffffffffffffffffffffff163373ffffffffffffffffffffffffffffffffffffffff161461210d576040517f08c379a000000000000000000000000000000000000000000000000000000000815260040161210490614a51565b60405180910390fd5b80600860006101000a81548173ffffffffffffffffffffffffffffffffffffffff021916908373ffffffffffffffffffffffffffffffffffffffff16021790555050565b600a60009054906101000a900473ffffffffffffffffffffffffffffffffffffffff1681565b600181565b6000600160008473ffffffffffffffffffffffffffffffffffffffff1673ffffffffffffffffffffffffffffffffffffffff16815260200190815260200160002060008373ffffffffffffffffffffffffffffffffffffffff1673ffffffffffffffffffffffffffffffffffffffff16815260200190815260200160002060009054906101000a900460ff16905092915050565b60007ff23a6e612e1ff4830e658fe43f4e3cb4a5f8170bd5d9e69fb5d7a7fa9e4fdf9790509695505050505050565b6122476125d9565b73ffffffffffffffffffffffffffffffffffffffff168573ffffffffffffffffffffffffffffffffffffffff16148061228d575061228c856122876125d9565b61217c565b5b6122cc576040517f08c379a00000000000000000000000000000000000000000000000000000000081526004016122c390615306565b60405180910390fd5b6122d98585858585612e47565b5050505050565b600073ffffffffffffffffffffffffffffffffffffffff168573ffffffffffffffffffffffffffffffffffffffff16141561232d5761231f84846130c9565b61232883613183565b612390565b600073ffffffffffffffffffffffffffffffffffffffff168473ffffffffffffffffffffffffffffffffffffffff16141561237a5761236c85846130c9565b61237583613183565b61238f565b61238485846130c9565b61238e84846130c9565b5b5b61239e8686868686866123c9565b505050505050565b6000808273ffffffffffffffffffffffffffffffffffffffff163b119050919050565b6123d7868686868686612543565b600073ffffffffffffffffffffffffffffffffffffffff168573ffffffffffffffffffffffffffffffffffffffff1614156124895760005b83518110156124875782818151811061242b5761242a614c01565b5b60200260200101516003600086848151811061244a57612449614c01565b5b60200260200101518152602001908152602001600020600082825461246f9190615326565b925050819055508061248090614c5f565b905061240f565b505b600073ffffffffffffffffffffffffffffffffffffffff168473ffffffffffffffffffffffffffffffffffffffff16141561253b5760005b8351811015612539578281815181106124dd576124dc614c01565b5b6020026020010151600360008684815181106124fc576124fb614c01565b5b602002602001015181526020019081526020016000206000828254612521919061537c565b925050819055508061253290614c5f565b90506124c1565b505b505050505050565b505050505050565b600081600001549050919050565b60007f01ffc9a7000000000000000000000000000000000000000000000000000000007bffffffffffffffffffffffffffffffffffffffffffffffffffffffff1916827bffffffffffffffffffffffffffffffffffffffffffffffffffffffff1916149050919050565b600081836125d1919061537c565b905092915050565b600033905090565b8151835114612625576040517f08c379a000000000000000000000000000000000000000000000000000000000815260040161261c90615422565b60405180910390fd5b600073ffffffffffffffffffffffffffffffffffffffff168473ffffffffffffffffffffffffffffffffffffffff161415612695576040517f08c379a000000000000000000000000000000000000000000000000000000000815260040161268c906154b4565b60405180910390fd5b600061269f6125d9565b90506126af8187878787876131fe565b60005b84518110156128605760008582815181106126d0576126cf614c01565b5b6020026020010151905060008583815181106126ef576126ee614c01565b5b60200260200101519050600080600084815260200190815260200160002060008b73ffffffffffffffffffffffffffffffffffffffff1673ffffffffffffffffffffffffffffffffffffffff16815260200190815260200160002054905081811015612790576040517f08c379a000000000000000000000000000000000000000000000000000000000815260040161278790615546565b60405180910390fd5b81810360008085815260200190815260200160002060008c73ffffffffffffffffffffffffffffffffffffffff1673ffffffffffffffffffffffffffffffffffffffff168152602001908152602001600020819055508160008085815260200190815260200160002060008b73ffffffffffffffffffffffffffffffffffffffff1673ffffffffffffffffffffffffffffffffffffffff16815260200190815260200160002060008282546128459190615326565b925050819055505050508061285990614c5f565b90506126b2565b508473ffffffffffffffffffffffffffffffffffffffff168673ffffffffffffffffffffffffffffffffffffffff168273ffffffffffffffffffffffffffffffffffffffff167f4a39dc06d4c0dbc64b70af90fd698a233a518aa5d07e595d983b8c0526c8f7fb87876040516128d7929190615566565b60405180910390a46128ed818787878787613358565b505050505050565b600073ffffffffffffffffffffffffffffffffffffffff168473ffffffffffffffffffffffffffffffffffffffff161415612965576040517f08c379a000000000000000000000000000000000000000000000000000000000815260040161295c9061560f565b60405180910390fd5b600061296f6125d9565b90506129908160008761298188613530565b61298a88613530565b876131fe565b8260008086815260200190815260200160002060008773ffffffffffffffffffffffffffffffffffffffff1673ffffffffffffffffffffffffffffffffffffffff16815260200190815260200160002060008282546129ef9190615326565b925050819055508473ffffffffffffffffffffffffffffffffffffffff16600073ffffffffffffffffffffffffffffffffffffffff168273ffffffffffffffffffffffffffffffffffffffff167fc3d58168c5ae7397731d063d5bbf3d657854427343f4c083240f7aacaa2d0f628787604051612a6d92919061562f565b60405180910390a4612a84816000878787876135aa565b5050505050565b60008060008411612ad1576040517f08c379a0000000000000000000000000000000000000000000000000000000008152600401612ac8906156a4565b60405180910390fd5b612ad9613782565b841115612b1b576040517f08c379a0000000000000000000000000000000000000000000000000000000008152600401612b1290615710565b60405180910390fd5b6000612b33858560000161379390919063ffffffff16565b90508360000180549050811415612b51576000809250925050612b7a565b6001846001018281548110612b6957612b68614c01565b5b906000526020600020015492509250505b9250929050565b612b896139f7565b600084604001518560200151612b9f919061537c565b9050600085604001519050612bc5308684604051806020016040528060008152506128f5565b612be0338683604051806020016040528060008152506128f5565b60006040518060c001604052808860000151815260200188606001518152602001886080015181526020014281526020016001151581526020018781525090507f49debfc18817e7e3ec2948391bcc3a87349b3c716f7d470d223bfbf8928aa65a87600001518860600151896080015184606001518b602001518b8b604051612c6f979695949392919061574c565b60405180910390a18093505050509392505050565b8173ffffffffffffffffffffffffffffffffffffffff168373ffffffffffffffffffffffffffffffffffffffff161415612cf3576040517f08c379a0000000000000000000000000000000000000000000000000000000008152600401612cea9061583b565b60405180910390fd5b80600160008573ffffffffffffffffffffffffffffffffffffffff1673ffffffffffffffffffffffffffffffffffffffff16815260200190815260200160002060008473ffffffffffffffffffffffffffffffffffffffff1673ffffffffffffffffffffffffffffffffffffffff16815260200190815260200160002060006101000a81548160ff0219169083151502179055508173ffffffffffffffffffffffffffffffffffffffff168373ffffffffffffffffffffffffffffffffffffffff167f17307eab39ab6107e8899845ad3d59bd9653f200f220920489ca2b5937696c3183604051612de49190613bfe565b60405180910390a3505050565b6000612dfd600661386d565b6000612e07613782565b90507f8030e83b04d87bef53480e26263266d6ca66863aa8506aca6f2559d18aa1cb6781604051612e389190613b43565b60405180910390a18091505090565b600073ffffffffffffffffffffffffffffffffffffffff168473ffffffffffffffffffffffffffffffffffffffff161415612eb7576040517f08c379a0000000000000000000000000000000000000000000000000000000008152600401612eae906154b4565b60405180910390fd5b6000612ec16125d9565b9050612ee1818787612ed288613530565b612edb88613530565b876131fe565b600080600086815260200190815260200160002060008873ffffffffffffffffffffffffffffffffffffffff1673ffffffffffffffffffffffffffffffffffffffff16815260200190815260200160002054905083811015612f78576040517f08c379a0000000000000000000000000000000000000000000000000000000008152600401612f6f90615546565b60405180910390fd5b83810360008087815260200190815260200160002060008973ffffffffffffffffffffffffffffffffffffffff1673ffffffffffffffffffffffffffffffffffffffff168152602001908152602001600020819055508360008087815260200190815260200160002060008873ffffffffffffffffffffffffffffffffffffffff1673ffffffffffffffffffffffffffffffffffffffff168152602001908152602001600020600082825461302d9190615326565b925050819055508573ffffffffffffffffffffffffffffffffffffffff168773ffffffffffffffffffffffffffffffffffffffff168373ffffffffffffffffffffffffffffffffffffffff167fc3d58168c5ae7397731d063d5bbf3d657854427343f4c083240f7aacaa2d0f6288886040516130aa92919061562f565b60405180910390a46130c08288888888886135aa565b50505050505050565b60005b815181101561317e5761316b600460008573ffffffffffffffffffffffffffffffffffffffff1673ffffffffffffffffffffffffffffffffffffffff168152602001908152602001600020600084848151811061312c5761312b614c01565b5b602002602001015181526020019081526020016000206131668585858151811061315957613158614c01565b5b6020026020010151610889565b613883565b808061317690614c5f565b9150506130cc565b505050565b60005b81518110156131fa576131e7600560008484815181106131a9576131a8614c01565b5b602002602001015181526020019081526020016000206131e28484815181106131d5576131d4614c01565b5b6020026020010151611b34565b613883565b80806131f290614c5f565b915050613186565b5050565b600073ffffffffffffffffffffffffffffffffffffffff16600b60009054906101000a900473ffffffffffffffffffffffffffffffffffffffff1673ffffffffffffffffffffffffffffffffffffffff1614613342576000600b60009054906101000a900473ffffffffffffffffffffffffffffffffffffffff16905060005b845181101561333f578173ffffffffffffffffffffffffffffffffffffffff16631de841ba88888785815181106132b8576132b7614c01565b5b60200260200101518986815181106132d3576132d2614c01565b5b60200260200101516040518563ffffffff1660e01b81526004016132fa949392919061585b565b600060405180830381600087803b15801561331457600080fd5b505af1158015613328573d6000803e3d6000fd5b50505050808061333790614c5f565b91505061327e565b50505b6133508686868686866122e0565b505050505050565b6133778473ffffffffffffffffffffffffffffffffffffffff166123a6565b15613528578373ffffffffffffffffffffffffffffffffffffffff1663bc197c8187878686866040518663ffffffff1660e01b81526004016133bd9594939291906158ea565b6020604051808303816000875af19250505080156133f957506040513d601f19601f820116820180604052508101906133f69190615967565b60015b61349f576134056159a1565b806308c379a01415613462575061341a6159c3565b806134255750613464565b806040517f08c379a00000000000000000000000000000000000000000000000000000000081526004016134599190613cdf565b60405180910390fd5b505b6040517f08c379a000000000000000000000000000000000000000000000000000000000815260040161349690615acb565b60405180910390fd5b63bc197c8160e01b7bffffffffffffffffffffffffffffffffffffffffffffffffffffffff1916817bffffffffffffffffffffffffffffffffffffffffffffffffffffffff191614613526576040517f08c379a000000000000000000000000000000000000000000000000000000000815260040161351d90615b5d565b60405180910390fd5b505b505050505050565b60606000600167ffffffffffffffff81111561354f5761354e613d33565b5b60405190808252806020026020018201604052801561357d5781602001602082028036833780820191505090505b509050828160008151811061359557613594614c01565b5b60200260200101818152505080915050919050565b6135c98473ffffffffffffffffffffffffffffffffffffffff166123a6565b1561377a578373ffffffffffffffffffffffffffffffffffffffff1663f23a6e6187878686866040518663ffffffff1660e01b815260040161360f959493929190615b7d565b6020604051808303816000875af192505050801561364b57506040513d601f19601f820116820180604052508101906136489190615967565b60015b6136f1576136576159a1565b806308c379a014156136b4575061366c6159c3565b8061367757506136b6565b806040517f08c379a00000000000000000000000000000000000000000000000000000000081526004016136ab9190613cdf565b60405180910390fd5b505b6040517f08c379a00000000000000000000000000000000000000000000000000000000081526004016136e890615acb565b60405180910390fd5b63f23a6e6160e01b7bffffffffffffffffffffffffffffffffffffffffffffffffffffffff1916817bffffffffffffffffffffffffffffffffffffffffffffffffffffffff191614613778576040517f08c379a000000000000000000000000000000000000000000000000000000000815260040161376f90615b5d565b60405180910390fd5b505b505050505050565b600061378e600661254b565b905090565b600080838054905014156137aa5760009050613867565b600080848054905090505b8082101561380e5760006137c983836138fe565b9050848682815481106137df576137de614c01565b5b906000526020600020015411156137f857809150613808565b6001816138059190615326565b92505b506137b5565b60008211801561384657508385600184613828919061537c565b8154811061383957613838614c01565b5b9060005260206000200154145b1561386157600182613858919061537c565b92505050613867565b81925050505b92915050565b6001816000016000828254019250508190555050565b600061388d613782565b90508061389c84600001613924565b10156138f95782600001819080600181540180825580915050600190039060005260206000200160009091909190915055826001018290806001815401808255809150506001900390600052602060002001600090919091909150555b505050565b6000600282841861390f9190614cd7565b82841661391c9190615326565b905092915050565b6000808280549050141561393b576000905061396c565b816001838054905061394d919061537c565b8154811061395e5761395d614c01565b5b906000526020600020015490505b919050565b82805461397d906149ad565b90600052602060002090601f01602090048101928261399f57600085556139e6565b82601f106139b857805160ff19168380011785556139e6565b828001600101855582156139e6579182015b828111156139e55782518255916020019190600101906139ca565b5b5090506139f39190613a2f565b5090565b6040518060c0016040528060008152602001606081526020016060815260200160008152602001600015158152602001600081525090565b5b80821115613a48576000816000905550600101613a30565b5090565b6000604051905090565b600080fd5b600080fd5b600073ffffffffffffffffffffffffffffffffffffffff82169050919050565b6000613a8b82613a60565b9050919050565b613a9b81613a80565b8114613aa657600080fd5b50565b600081359050613ab881613a92565b92915050565b6000819050919050565b613ad181613abe565b8114613adc57600080fd5b50565b600081359050613aee81613ac8565b92915050565b60008060408385031215613b0b57613b0a613a56565b5b6000613b1985828601613aa9565b9250506020613b2a85828601613adf565b9150509250929050565b613b3d81613abe565b82525050565b6000602082019050613b586000830184613b34565b92915050565b60007fffffffff0000000000000000000000000000000000000000000000000000000082169050919050565b613b9381613b5e565b8114613b9e57600080fd5b50565b600081359050613bb081613b8a565b92915050565b600060208284031215613bcc57613bcb613a56565b5b6000613bda84828501613ba1565b91505092915050565b60008115159050919050565b613bf881613be3565b82525050565b6000602082019050613c136000830184613bef565b92915050565b600060208284031215613c2f57613c2e613a56565b5b6000613c3d84828501613adf565b91505092915050565b600081519050919050565b600082825260208201905092915050565b60005b83811015613c80578082015181840152602081019050613c65565b83811115613c8f576000848401525b50505050565b6000601f19601f8301169050919050565b6000613cb182613c46565b613cbb8185613c51565b9350613ccb818560208601613c62565b613cd481613c95565b840191505092915050565b60006020820190508181036000830152613cf98184613ca6565b905092915050565b600060208284031215613d1757613d16613a56565b5b6000613d2584828501613aa9565b91505092915050565b600080fd5b7f4e487b7100000000000000000000000000000000000000000000000000000000600052604160045260246000fd5b613d6b82613c95565b810181811067ffffffffffffffff82111715613d8a57613d89613d33565b5b80604052505050565b6000613d9d613a4c565b9050613da98282613d62565b919050565b600067ffffffffffffffff821115613dc957613dc8613d33565b5b602082029050602081019050919050565b600080fd5b6000613df2613ded84613dae565b613d93565b90508083825260208201905060208402830185811115613e1557613e14613dda565b5b835b81811015613e3e5780613e2a8882613adf565b845260208401935050602081019050613e17565b5050509392505050565b600082601f830112613e5d57613e5c613d2e565b5b8135613e6d848260208601613ddf565b91505092915050565b600080fd5b600067ffffffffffffffff821115613e9657613e95613d33565b5b613e9f82613c95565b9050602081019050919050565b82818337600083830152505050565b6000613ece613ec984613e7b565b613d93565b905082815260208101848484011115613eea57613ee9613e76565b5b613ef5848285613eac565b509392505050565b600082601f830112613f1257613f11613d2e565b5b8135613f22848260208601613ebb565b91505092915050565b600080600080600060a08688031215613f4757613f46613a56565b5b6000613f5588828901613aa9565b9550506020613f6688828901613aa9565b945050604086013567ffffffffffffffff811115613f8757613f86613a5b565b5b613f9388828901613e48565b935050606086013567ffffffffffffffff811115613fb457613fb3613a5b565b5b613fc088828901613e48565b925050608086013567ffffffffffffffff811115613fe157613fe0613a5b565b5b613fed88828901613efd565b9150509295509295909350565b6000806040838503121561401157614010613a56565b5b600061401f85828601613adf565b925050602061403085828601613adf565b9150509250929050565b61404381613a80565b82525050565b600060208201905061405e600083018461403a565b92915050565b600067ffffffffffffffff82111561407f5761407e613d33565b5b602082029050602081019050919050565b60006140a361409e84614064565b613d93565b905080838252602082019050602084028301858111156140c6576140c5613dda565b5b835b818110156140ef57806140db8882613aa9565b8452602084019350506020810190506140c8565b5050509392505050565b600082601f83011261410e5761410d613d2e565b5b813561411e848260208601614090565b91505092915050565b6000806040838503121561413e5761413d613a56565b5b600083013567ffffffffffffffff81111561415c5761415b613a5b565b5b614168858286016140f9565b925050602083013567ffffffffffffffff81111561418957614188613a5b565b5b61419585828601613e48565b9150509250929050565b600081519050919050565b600082825260208201905092915050565b6000819050602082019050919050565b6141d481613abe565b82525050565b60006141e683836141cb565b60208301905092915050565b6000602082019050919050565b600061420a8261419f565b61421481856141aa565b935061421f836141bb565b8060005b8381101561425057815161423788826141da565b9750614242836141f2565b925050600181019050614223565b5085935050505092915050565b6000602082019050818103600083015261427781846141ff565b905092915050565b60008060006060848603121561429857614297613a56565b5b60006142a686828701613aa9565b93505060206142b786828701613adf565b92505060406142c886828701613adf565b9150509250925092565b600080fd5b600080fd5b600067ffffffffffffffff8211156142f7576142f6613d33565b5b61430082613c95565b9050602081019050919050565b600061432061431b846142dc565b613d93565b90508281526020810184848401111561433c5761433b613e76565b5b614347848285613eac565b509392505050565b600082601f83011261436457614363613d2e565b5b813561437484826020860161430d565b91505092915050565b600060a08284031215614393576143926142d2565b5b61439d60a0613d93565b905060006143ad84828501613adf565b60008301525060206143c184828501613adf565b60208301525060406143d584828501613adf565b604083015250606082013567ffffffffffffffff8111156143f9576143f86142d7565b5b6144058482850161434f565b606083015250608082013567ffffffffffffffff811115614429576144286142d7565b5b6144358482850161434f565b60808301525092915050565b60006020828403121561445757614456613a56565b5b600082013567ffffffffffffffff81111561447557614474613a5b565b5b6144818482850161437d565b91505092915050565b600080600080600060a086880312156144a6576144a5613a56565b5b60006144b488828901613aa9565b95505060206144c588828901613adf565b94505060406144d688828901613adf565b93505060606144e788828901613adf565b92505060806144f888828901613adf565b9150509295509295909350565b60008060006060848603121561451e5761451d613a56565b5b600061452c86828701613adf565b935050602061453d86828701613adf565b925050604061454e86828701613adf565b9150509250925092565b61456181613be3565b811461456c57600080fd5b50565b60008135905061457e81614558565b92915050565b6000806040838503121561459b5761459a613a56565b5b60006145a985828601613aa9565b92505060206145ba8582860161456f565b9150509250929050565b600080fd5b60008083601f8401126145df576145de613d2e565b5b8235905067ffffffffffffffff8111156145fc576145fb6145c4565b5b60208301915083602082028301111561461857614617613dda565b5b9250929050565b60008083601f84011261463557614634613d2e565b5b8235905067ffffffffffffffff811115614652576146516145c4565b5b60208301915083600182028301111561466e5761466d613dda565b5b9250929050565b60008060008060008060008060a0898b03121561469557614694613a56565b5b60006146a38b828c01613aa9565b98505060206146b48b828c01613aa9565b975050604089013567ffffffffffffffff8111156146d5576146d4613a5b565b5b6146e18b828c016145c9565b9650965050606089013567ffffffffffffffff81111561470457614703613a5b565b5b6147108b828c016145c9565b9450945050608089013567ffffffffffffffff81111561473357614732613a5b565b5b61473f8b828c0161461f565b92509250509295985092959890939650565b61475a81613b5e565b82525050565b60006020820190506147756000830184614751565b92915050565b6000806040838503121561479257614791613a56565b5b60006147a085828601613aa9565b92505060206147b185828601613aa9565b9150509250929050565b60008060008060008060a087890312156147d8576147d7613a56565b5b60006147e689828a01613aa9565b96505060206147f789828a01613aa9565b955050604061480889828a01613adf565b945050606061481989828a01613adf565b935050608087013567ffffffffffffffff81111561483a57614839613a5b565b5b61484689828a0161461f565b92509250509295509295509295565b600080600080600060a0868803121561487157614870613a56565b5b600061487f88828901613aa9565b955050602061489088828901613aa9565b94505060406148a188828901613adf565b93505060606148b288828901613adf565b925050608086013567ffffffffffffffff8111156148d3576148d2613a5b565b5b6148df88828901613efd565b9150509295509295909350565b7f455243313135353a2062616c616e636520717565727920666f7220746865207a60008201527f65726f2061646472657373000000000000000000000000000000000000000000602082015250565b6000614948602b83613c51565b9150614953826148ec565b604082019050919050565b600060208201905081810360008301526149778161493b565b9050919050565b7f4e487b7100000000000000000000000000000000000000000000000000000000600052602260045260246000fd5b600060028204905060018216806149c557607f821691505b602082108114156149d9576149d861497e565b5b50919050565b7f596f7520617265206e6f7420617574686f72697a656420666f7220746869732060008201527f616374696f6e0000000000000000000000000000000000000000000000000000602082015250565b6000614a3b602683613c51565b9150614a46826149df565b604082019050919050565b60006020820190508181036000830152614a6a81614a2e565b9050919050565b7f496e76616c6964207265636f7264206964000000000000000000000000000000600082015250565b6000614aa7601183613c51565b9150614ab282614a71565b602082019050919050565b60006020820190508181036000830152614ad681614a9a565b9050919050565b7f455243313135353a207472616e736665722063616c6c6572206973206e6f742060008201527f6f776e6572206e6f7220617070726f7665640000000000000000000000000000602082015250565b6000614b39603283613c51565b9150614b4482614add565b604082019050919050565b60006020820190508181036000830152614b6881614b2c565b9050919050565b7f455243313135353a206163636f756e747320616e6420696473206c656e67746860008201527f206d69736d617463680000000000000000000000000000000000000000000000602082015250565b6000614bcb602983613c51565b9150614bd682614b6f565b604082019050919050565b60006020820190508181036000830152614bfa81614bbe565b9050919050565b7f4e487b7100000000000000000000000000000000000000000000000000000000600052603260045260246000fd5b7f4e487b7100000000000000000000000000000000000000000000000000000000600052601160045260246000fd5b6000614c6a82613abe565b91507fffffffffffffffffffffffffffffffffffffffffffffffffffffffffffffffff821415614c9d57614c9c614c30565b5b600182019050919050565b7f4e487b7100000000000000000000000000000000000000000000000000000000600052601260045260246000fd5b6000614ce282613abe565b9150614ced83613abe565b925082614cfd57614cfc614ca8565b5b828204905092915050565b7f54726561737572792073686f756c642068617665206174206c6561737420353060008201527f25206f662074686520746f74616c20737570706c790000000000000000000000602082015250565b6000614d64603583613c51565b9150614d6f82614d08565b604082019050919050565b60006020820190508181036000830152614d9381614d57565b9050919050565b6000604082019050614daf600083018561403a565b614dbc6020830184613b34565b9392505050565b600081519050614dd281613ac8565b92915050565b600060208284031215614dee57614ded613a56565b5b6000614dfc84828501614dc3565b91505092915050565b7f596f7520617265206e6f7420746865206f776e6572206f66207468652072656360008201527f6f72640000000000000000000000000000000000000000000000000000000000602082015250565b6000614e61602383613c51565b9150614e6c82614e05565b604082019050919050565b60006020820190508181036000830152614e9081614e54565b9050919050565b600081905092915050565b60008190508160005260206000209050919050565b60008154614ec4816149ad565b614ece8186614e97565b94506001821660008114614ee95760018114614efa57614f2d565b60ff19831686528186019350614f2d565b614f0385614ea2565b60005b83811015614f2557815481890152600182019150602081019050614f06565b838801955050505b50505092915050565b6000614f428284614eb7565b915081905092915050565b600081519050919050565b600081905092915050565b6000614f6e82614f4d565b614f788185614f58565b9350614f88818560208601613c62565b80840191505092915050565b6000614f9f82613c46565b614fa98185614e97565b9350614fb9818560208601613c62565b80840191505092915050565b6000614fd18285614f63565b9150614fdd8284614f94565b91508190509392505050565b7f476f7665726e616e636520746f6b656e20666f72207468697320696420616c7260008201527f656164792070726573656e740000000000000000000000000000000000000000602082015250565b6000615045602c83613c51565b915061505082614fe9565b604082019050919050565b6000602082019050818103600083015261507481615038565b9050919050565b60006150878284614f94565b915081905092915050565b7f476f7665726e616e636520746f6b656e207769746820746869732053594d424f60008201527f4c20616c72656164792070726573656e74000000000000000000000000000000602082015250565b60006150ee603183613c51565b91506150f982615092565b604082019050919050565b6000602082019050818103600083015261511d816150e1565b9050919050565b600060a082019050615139600083018861403a565b6151466020830187613b34565b6151536040830186613b34565b6151606060830185613b34565b61516d6080830184613b34565b9695505050505050565b7f496e76616c6964207265636f7264200000000000000000000000000000000000600082015250565b60006151ad600f83613c51565b91506151b882615177565b602082019050919050565b600060208201905081810360008301526151dc816151a0565b9050919050565b7f496e76616c696420746f6b656e73000000000000000000000000000000000000600082015250565b6000615219600e83613c51565b9150615224826151e3565b602082019050919050565b600060208201905081810360008301526152488161520c565b9050919050565b60006080820190506152646000830187613b34565b6152716020830186613b34565b61527e6040830185613b34565b61528b6060830184613b34565b95945050505050565b7f455243313135353a2063616c6c6572206973206e6f74206f776e6572206e6f7260008201527f20617070726f7665640000000000000000000000000000000000000000000000602082015250565b60006152f0602983613c51565b91506152fb82615294565b604082019050919050565b6000602082019050818103600083015261531f816152e3565b9050919050565b600061533182613abe565b915061533c83613abe565b9250827fffffffffffffffffffffffffffffffffffffffffffffffffffffffffffffffff0382111561537157615370614c30565b5b828201905092915050565b600061538782613abe565b915061539283613abe565b9250828210156153a5576153a4614c30565b5b828203905092915050565b7f455243313135353a2069647320616e6420616d6f756e7473206c656e6774682060008201527f6d69736d61746368000000000000000000000000000000000000000000000000602082015250565b600061540c602883613c51565b9150615417826153b0565b604082019050919050565b6000602082019050818103600083015261543b816153ff565b9050919050565b7f455243313135353a207472616e7366657220746f20746865207a65726f20616460008201527f6472657373000000000000000000000000000000000000000000000000000000602082015250565b600061549e602583613c51565b91506154a982615442565b604082019050919050565b600060208201905081810360008301526154cd81615491565b9050919050565b7f455243313135353a20696e73756666696369656e742062616c616e636520666f60008201527f72207472616e7366657200000000000000000000000000000000000000000000602082015250565b6000615530602a83613c51565b915061553b826154d4565b604082019050919050565b6000602082019050818103600083015261555f81615523565b9050919050565b6000604082019050818103600083015261558081856141ff565b9050818103602083015261559481846141ff565b90509392505050565b7f455243313135353a206d696e7420746f20746865207a65726f2061646472657360008201527f7300000000000000000000000000000000000000000000000000000000000000602082015250565b60006155f9602183613c51565b91506156048261559d565b604082019050919050565b60006020820190508181036000830152615628816155ec565b9050919050565b60006040820190506156446000830185613b34565b6156516020830184613b34565b9392505050565b7f4552433230536e617073686f743a206964206973203000000000000000000000600082015250565b600061568e601683613c51565b915061569982615658565b602082019050919050565b600060208201905081810360008301526156bd81615681565b9050919050565b7f4552433230536e617073686f743a206e6f6e6578697374656e74206964000000600082015250565b60006156fa601d83613c51565b9150615705826156c4565b602082019050919050565b60006020820190508181036000830152615729816156ed565b9050919050565b600060ff82169050919050565b61574681615730565b82525050565b600060e082019050615761600083018a613b34565b81810360208301526157738189613ca6565b905081810360408301526157878188613ca6565b90506157966060830187613b34565b6157a36080830186613b34565b6157b060a0830185613b34565b6157bd60c083018461573d565b98975050505050505050565b7f455243313135353a2073657474696e6720617070726f76616c2073746174757360008201527f20666f722073656c660000000000000000000000000000000000000000000000602082015250565b6000615825602983613c51565b9150615830826157c9565b604082019050919050565b6000602082019050818103600083015261585481615818565b9050919050565b6000608082019050615870600083018761403a565b61587d602083018661403a565b61588a6040830185613b34565b6158976060830184613b34565b95945050505050565b600082825260208201905092915050565b60006158bc82614f4d565b6158c681856158a0565b93506158d6818560208601613c62565b6158df81613c95565b840191505092915050565b600060a0820190506158ff600083018861403a565b61590c602083018761403a565b818103604083015261591e81866141ff565b9050818103606083015261593281856141ff565b9050818103608083015261594681846158b1565b90509695505050505050565b60008151905061596181613b8a565b92915050565b60006020828403121561597d5761597c613a56565b5b600061598b84828501615952565b91505092915050565b60008160e01c9050919050565b600060033d11156159c05760046000803e6159bd600051615994565b90505b90565b600060443d10156159d357615a56565b6159db613a4c565b60043d036004823e80513d602482011167ffffffffffffffff82111715615a03575050615a56565b808201805167ffffffffffffffff811115615a215750505050615a56565b80602083010160043d038501811115615a3e575050505050615a56565b615a4d82602001850186613d62565b82955050505050505b90565b7f455243313135353a207472616e7366657220746f206e6f6e204552433131353560008201527f526563656976657220696d706c656d656e746572000000000000000000000000602082015250565b6000615ab5603483613c51565b9150615ac082615a59565b604082019050919050565b60006020820190508181036000830152615ae481615aa8565b9050919050565b7f455243313135353a204552433131353552656365697665722072656a6563746560008201527f6420746f6b656e73000000000000000000000000000000000000000000000000602082015250565b6000615b47602883613c51565b9150615b5282615aeb565b604082019050919050565b60006020820190508181036000830152615b7681615b3a565b9050919050565b600060a082019050615b92600083018861403a565b615b9f602083018761403a565b615bac6040830186613b34565b615bb96060830185613b34565b8181036080830152615bcb81846158b1565b9050969550505050505056fe546f6b656e206d696e746564207468726f75676820766f74696e672070726f63657373a2646970667358221220995f312fc2e52cf8f26aac6357f5d6ae5bd7801163ddfc1fc4084ea10913e10064736f6c634300080c0033",
  "immutableReferences": {},
  "source": "pragma solidity ^0.8.0;\n\nimport \"@openzeppelin/contracts/token/ERC1155/ERC1155.sol\";\nimport \"@openzeppelin/contracts/token/ERC1155/IERC1155Receiver.sol\";\nimport \"@openzeppelin/contracts/token/ERC1155/extensions/ERC1155Supply.sol\";\nimport \"@openzeppelin/contracts/utils/Counters.sol\";\nimport \"@openzeppelin/contracts/access/Ownable.sol\";\nimport \"./RecordsContract.sol\";\nimport \"./ERC1155/SnapshotERC1155.sol\";\nimport \"@openzeppelin/contracts/utils/math/SafeMath.sol\";\n\nimport \"./voting/VotingHubContract.sol\";\n\n// ERC 20 balance[adress] => 2 contracts // governance and comunity\n// ERC 721 blance[adress] => 1 contract // records\n// ERC 1155\n\ncontract TreasuryContract is IERC1155Receiver, SnapshotERC1155 {\n    uint256 public constant CRD = 1;\n    uint256 private LastTokenId = 1;\n    address public RECORDS_CONTRACT_ADDRESS;\n    address public CONTRIBUTION_VOTING_CONTRACT_ADDRESS;\n    address public DILUTION_CONTRACT_ADDRESS;\n    address public VOTING_HUB_ADDRESS;\n    address OWNER;\n    string private PREFIX_GOVERNANCE = \"CRDG_\";\n    string private PREFIX_COMMUNITY = \"CRD_\";\n    uint8 private TOKEN_TYPE_COMMUNITY = 0;\n    uint8 private TOKEN_TYPE_GOVERNANCE = 1;\n\n    struct Token {\n        uint256 recordId;\n        string symbol;\n        string image;\n        uint256 creationDate;\n        bool isPresent;\n        uint256 tokenId;\n    }\n\n    struct NewTokenData {\n        uint256 recordId;\n        uint256 totalSupply;\n        uint256 userBalance;\n        string symbol;\n        string image;\n    }\n\n    /**\n        @dev this is event which is created when a token transfer takes place\n        @param from This is the address of sender \n        @param to This is the address of reciver \n        @param transferDate This is the date of the transfer\n        @param tokenId This is the id of the token that is being transfered \n        @param amount This is the amount of token transfered \n        @param symbol This is the symbol of the token that were transfered\n     */\n    event TokenTransfer(\n        address from,\n        address to,\n        uint256 transferDate,\n        uint256 tokenId,\n        uint256 amount,\n        string symbol\n    );\n\n    /**\n        @dev this is event which is created when new governance token is created (NEW CREATION Not MINITING)\n        @param recordId This is the record Id to which this token belongs to \n        @param symbol This is the symbol of the governance token\n        @param image This is the image of the token \n        @param creationDate This is the creation date of the token \n        @param tokenAmount This is the amount of token that are created \n        @param tokenId This is the id of token that is newly created tokens \n        @param tokenType This is the type of the token that is created => For governance 1 and for copyright 0  \n      */\n    event NewTokenCreated(\n        uint256 recordId,\n        string symbol,\n        string image,\n        uint256 creationDate,\n        uint256 tokenAmount,\n        uint256 tokenId,\n        uint8 tokenType\n    );\n\n    /**\n        @dev this is event which is created when new governance token is minted after the voting is done\n        @param recordId This is the record Id to which this token belongs to \n        @param creationDate This is the creation date of the token \n        @param tokenAmount This is the amount of token that are created \n        @param tokenId This is the id of token that is newly created tokens \n      */\n    event TokenMinted(\n        uint256 recordId,\n        uint256 tokenId,\n        uint256 creationDate,\n        uint256 tokenAmount\n    );\n\n    /**\n        @dev this is event which is genrated when a contribution voting has came to an end and the contribution is accepted\n        @param to This the address of the winner or the owner of the contribution \n        @param recordId This is the id of the record to which this contribution relates to \n        @param contributionId This is the id of the contribution to which the record is related to \n        @param rewardGovernance The reward amount for governance tokens \n        @param rewardCommunity The reward amount for comunity tokens\n     */\n    event ContributionRewardTransfered(\n        address to,\n        uint256 recordId,\n        uint256 contributionId,\n        uint256 rewardGovernance,\n        uint256 rewardCommunity\n    );\n\n    mapping(uint256 => Token) govTokenMapping;\n    mapping(uint256 => Token) commTokenMapping;\n\n    mapping(string => bool) govTokenSym;\n    mapping(string => bool) commTokenSym;\n\n    // By default URI to crowdrecords domain\n    // 18 decimal points supported\n    constructor(address owner) ERC1155(\"https://crowdrecords.com/{id}\") {\n        _mint(owner, CRD, 1000000 * 10**18, \"https://crowdrecords.com\");\n        OWNER = owner;\n    }\n\n    /**\n     * @dev Modifier to check that the person who accesses a specific function is the owner of contract himself.\n     */\n    modifier ownerOnly() {\n        require(msg.sender == OWNER, \"You are not authorized for this action\");\n        _;\n    }\n\n    /**\n     * @dev Modifier to check if the sender is authorized to create tokens for this record.\n     */\n    modifier canCreateToken(NewTokenData memory newTokenData) {\n        require(\n            newTokenData.totalSupply / 2 > newTokenData.userBalance,\n            \"Treasury should have at least 50% of the total supply\"\n        );\n\n        RecordsContract recordsContract = RecordsContract(\n            RECORDS_CONTRACT_ADDRESS\n        );\n\n        uint256 balance = recordsContract.balanceOf(\n            msg.sender,\n            newTokenData.recordId\n        );\n\n        require(balance > 0, \"You are not the owner of the record\");\n        _;\n    }\n\n    /**\n     * @dev Modifier to check that if the sender is the voting contract or not.\n     */\n    modifier onlyContributionVotingContract() {\n        require(\n            msg.sender == CONTRIBUTION_VOTING_CONTRACT_ADDRESS,\n            \"You are not authorized for this action\"\n        );\n        _;\n    }\n\n    /**\n     * @dev Modifier to check that if the sender is the dilution contract or not.\n     */\n    modifier onlyDilutionContract() {\n        require(\n            msg.sender == DILUTION_CONTRACT_ADDRESS,\n            \"You are not authorized for this action\"\n        );\n        _;\n    }\n\n    /**\n     * @dev This function sets the Owners address\n     */\n    function setOwnerAddress(address ownerAddress)\n        public\n        ownerOnly\n    {\n        OWNER = ownerAddress;\n    }\n\n    /**\n     * @dev This function sets the Records Contract address\n     */\n    function setRecordsContractAddress(address newRecordsContractAddress)\n        public\n        ownerOnly\n    {\n        RECORDS_CONTRACT_ADDRESS = newRecordsContractAddress;\n    }\n\n    /**\n     * @dev This function sets the Records Contract address\n     */\n    function setVotingHubContract(address newVotingHubContract)\n        public\n        ownerOnly\n    {\n        VOTING_HUB_ADDRESS = newVotingHubContract;\n    }\n\n    /**\n     * @dev This function sets the dilution Contract address\n     */\n    function setDilutionContract(address newDilutionContract) public ownerOnly {\n        DILUTION_CONTRACT_ADDRESS = newDilutionContract;\n    }\n\n    /**\n     * @dev This function sets the Voting Contract address\n     */\n    function setContributionVotingContractAddress(\n        address newVotingContractAddress\n    ) public ownerOnly {\n        CONTRIBUTION_VOTING_CONTRACT_ADDRESS = newVotingContractAddress;\n    }\n\n    /**\n     * @dev This function creats new governance tokens for specified record\n     * @param newTokenData This contains all the parameters needed to create a new governance token that are\n     * - recordId This is the recordId that for new token\n     * - totalSupply This is the total supply of governance token\n     * - userBalance This is the amount of tokens that user wants to keep to himself\n     * - symbol This is the symbol of the gvernance token\n     * - image this is image of the gov token.\n     */\n    function createNewGovernanceToken(NewTokenData memory newTokenData)\n        external\n        payable\n        canCreateToken(newTokenData)\n        returns (uint256)\n    {\n        {\n            bytes memory preString = abi.encodePacked(PREFIX_GOVERNANCE);\n            newTokenData.symbol = string(\n                abi.encodePacked(preString, newTokenData.symbol)\n            );\n        }\n\n        require(\n            govTokenMapping[newTokenData.recordId].isPresent == false,\n            \"Governance token for this id already present\"\n        );\n\n        require(\n            govTokenSym[newTokenData.symbol] == false,\n            \"Governance token with this SYMBOL already present\"\n        );\n\n        LastTokenId++;\n        uint256 newTokenId = LastTokenId;\n\n        //Map the recordId with the\n        govTokenMapping[newTokenData.recordId] = createToken(\n            newTokenData,\n            newTokenId,\n            TOKEN_TYPE_GOVERNANCE\n        );\n\n        return newTokenId;\n    }\n\n    /**\n     * @dev This function creats new community tokens for specified record\n     * @param newTokenData This contains all the parameters needed to create a new community token that are\n     * - recordId This is the recordId that for new token\n     * - totalSupply This is the total supply of community token\n     * - userBalance This is the amount of tokens that user wants to keep to himself\n     * - symbol This is the symbol of the community token\n     * - image this is image of the gov token.\n     */\n    function createNewCommunityToken(NewTokenData memory newTokenData)\n        external\n        payable\n        canCreateToken(newTokenData)\n        returns (uint256)\n    {\n        {\n            bytes memory preString = abi.encodePacked(PREFIX_COMMUNITY);\n            newTokenData.symbol = string(\n                abi.encodePacked(preString, newTokenData.symbol)\n            );\n        }\n\n        require(\n            commTokenMapping[newTokenData.recordId].isPresent == false,\n            \"Governance token for this id already present\"\n        );\n\n        require(\n            commTokenSym[newTokenData.symbol] == false,\n            \"Governance token with this SYMBOL already present\"\n        );\n\n        LastTokenId++;\n        uint256 newTokenId = LastTokenId;\n\n        //Map the recordId with the\n        commTokenMapping[newTokenData.recordId] = createToken(\n            newTokenData,\n            newTokenId,\n            TOKEN_TYPE_COMMUNITY\n        );\n\n        return newTokenId;\n    }\n\n    /**\n     * @dev This function is an internal use only function whoes role is to create a new token of specified type\n     * @param newTokenData This contains all the parameters needed to create a new community token that are\n     * - recordId This is the recordId that for new token\n     * - totalSupply This is the total supply of community token\n     * - userBalance This is the amount of tokens that user wants to keep to himself\n     * - symbol This is the symbol of the community token\n     * - image this is image of the gov token.\n     * @param newTokenId This is the Id of the token to create\n     * @param tokenType This is the type of token that is to be created such as community or governance\n     */\n    function createToken(\n        NewTokenData memory newTokenData,\n        uint256 newTokenId,\n        uint8 tokenType\n    ) private returns (Token memory) {\n        //!Add check for the totalsupply > userBalance\n\n        uint256 treasuryAmount = (newTokenData.totalSupply -\n            newTokenData.userBalance);\n        uint256 userAmount = newTokenData.userBalance;\n\n        // Here minting of new tokens is done. And those are sent directly into the treasury\n        _mint(address(this), newTokenId, treasuryAmount, \"\");\n\n        // The user requested amount of tokens is genrated and send to his account\n        _mint(msg.sender, newTokenId, userAmount, \"\");\n\n        Token memory token = Token({\n            recordId: newTokenData.recordId,\n            symbol: newTokenData.symbol,\n            image: newTokenData.image,\n            creationDate: block.timestamp,\n            isPresent: true,\n            tokenId: newTokenId\n        });\n\n        emit NewTokenCreated({\n            recordId: newTokenData.recordId,\n            symbol: newTokenData.symbol,\n            image: newTokenData.image,\n            creationDate: token.creationDate,\n            tokenAmount: newTokenData.totalSupply,\n            tokenId: newTokenId,\n            tokenType: tokenType\n        });\n\n        return token;\n    }\n\n    /**\n     * @dev This function creats new community tokens for specified record\n     * @param recordId This is the id of the record to which the token belongs to\n     * @param tokenId This is the id of the which is to be minted\n     * @param tokenAmount This is the amount that is to be minted\n     */\n    function mintTokens(\n        uint256 recordId,\n        uint256 tokenId,\n        uint256 tokenAmount\n    ) external payable onlyContributionVotingContract {\n        require(\n            commTokenMapping[recordId].isPresent == true ||\n                govTokenMapping[recordId].isPresent == true,\n            \"Invalid record \"\n        );\n\n        require(\n            commTokenMapping[recordId].tokenId == tokenId ||\n                govTokenMapping[recordId].tokenId == tokenId,\n            \"Invalid tokens\"\n        );\n\n        // Here minting of new tokens is done. And those are sent directly into the treasury\n        _mint(\n            address(this),\n            tokenId,\n            tokenAmount,\n            \"Token minted through voting process\"\n        );\n\n        emit TokenMinted({\n            recordId: recordId,\n            tokenId: tokenId,\n            creationDate: block.timestamp,\n            tokenAmount: tokenAmount\n        });\n    }\n\n    /**\n     * @dev This function is called only by the voting contract once the voting ends\n     * @param to This is the recivers address\n     * @param recordId This is the recordId to which the contribution belongs to\n     * @param contributionId this is the contribution id to which the user has won\n     * @param rewardGovernance this is the amout of Governance token that needs to be transfered\n     * @param rewardCommunity this is the amout of comunity token that needs to be transfered\n     */\n    function transferRewardAmount(\n        address to,\n        uint256 recordId,\n        uint256 contributionId,\n        uint256 rewardGovernance,\n        uint256 rewardCommunity\n    ) external payable onlyContributionVotingContract {\n        _setApprovalForAll(\n            address(this),\n            CONTRIBUTION_VOTING_CONTRACT_ADDRESS,\n            true\n        );\n        if (rewardGovernance > 0) {\n            safeTransferFrom(\n                address(this),\n                to,\n                govTokenMapping[recordId].tokenId,\n                rewardGovernance,\n                \"\"\n            );\n        }\n\n        if (rewardCommunity > 0) {\n            safeTransferFrom(\n                address(this),\n                to,\n                commTokenMapping[recordId].tokenId,\n                rewardCommunity,\n                \"\"\n            );\n        }\n\n        emit ContributionRewardTransfered({\n            to: to,\n            recordId: recordId,\n            contributionId: contributionId,\n            rewardGovernance: rewardGovernance,\n            rewardCommunity: rewardCommunity\n        });\n    }\n\n    /**\n     * @dev This function gives you the community token id of the recordId that you pass\n     * @param recordId This is the Id of the token that you want to check\n     */\n    function getCommunityTokenId(uint256 recordId)\n        public\n        view\n        returns (uint256)\n    {\n        Token memory token = commTokenMapping[recordId];\n        if (token.isPresent) {\n            return token.tokenId;\n        } else {\n            revert(\"Invalid record id\");\n        }\n    }\n\n    /**\n     * @dev This function gives you the governance token id of the recordId that you pass\n     * @param recordId This is the Id of the token that you want to check\n     */\n    function getGovernanceTokenId(uint256 recordId)\n        public\n        view\n        returns (uint256)\n    {\n        Token memory token = govTokenMapping[recordId];\n        if (token.isPresent) {\n            return token.tokenId;\n        } else {\n            revert(\"Invalid record id\");\n        }\n    }\n\n    /**\n     * @dev This function returns the amount of total tokens that are in circulation\n     * @param tokenId This is the token whoes circulating supply you  want to find out\n     */\n    function totalCirculatingSupply(uint256 tokenId)\n        public\n        view\n        returns (uint256)\n    {\n        uint256 totalCirculatingBalance = SafeMath.sub(\n            totalSupply(tokenId),\n            balanceOf(address(this), tokenId)\n        );\n\n        return totalCirculatingBalance;\n    }\n\n    function snapshot() public returns (uint256 snapshotId) {\n        return _snapshot();\n    }\n\n    // Update balance and/or total supply snapshots before the values are modified. This is implemented\n    // in the _beforeTokenTransfer hook, which is executed for _mint, _burn, and _transfer operations.\n    function _beforeTokenTransfer(\n        address operator,\n        address from,\n        address to,\n        uint256[] memory ids,\n        uint256[] memory amounts,\n        bytes memory data\n    ) internal override {\n        //Below condition is needed as the _mint is called in the constructor\n        //and at that particular point in time the below address is not initialized thus leading to a revert\n        if (VOTING_HUB_ADDRESS != address(0)) {\n            VotingHubContract votingHubContract = VotingHubContract(\n                VOTING_HUB_ADDRESS\n            );\n\n            for (uint256 i = 0; i < ids.length; i++) {\n                votingHubContract.handleUserTokenTransfers(\n                    from,\n                    to,\n                    amounts[i],\n                    ids[i]\n                );\n            }\n        }\n\n        super._beforeTokenTransfer(operator, from, to, ids, amounts, data);\n    }\n\n    /**\n     * @dev this function is responsible for minting of new tokens for records\n     * @param tokenId Id this is the tokenId that is to minted\n     * @param amount the amount that is to be minted\n     */\n    function mintTokens(uint256 tokenId, uint256 amount)\n        public\n        onlyDilutionContract\n    {\n        _mint(address(this), tokenId, amount, \"New tokens minted\");\n    }\n\n    function onERC1155Received(\n        address operator,\n        address from,\n        uint256 id,\n        uint256 value,\n        bytes calldata data\n    ) external virtual override returns (bytes4) {\n        return\n            bytes4(\n                keccak256(\n                    \"onERC1155Received(address,address,uint256,uint256,bytes)\"\n                )\n            );\n    }\n\n    function onERC1155BatchReceived(\n        address operator,\n        address from,\n        uint256[] calldata ids,\n        uint256[] calldata values,\n        bytes calldata data\n    ) external virtual override returns (bytes4) {\n        return\n            bytes4(\n                keccak256(\n                    \"onERC1155BatchReceived(address,address,uint256[],uint256[],bytes)\"\n                )\n            );\n    }\n}\n",
  "sourcePath": "/Users/a1/Desktop/Office/projects/CrowdRecords/Contracts/contracts/TreasuryContract.sol",
  "compiler": {
    "name": "solc",
    "version": "0.8.12+commit.f00d7308.Emscripten.clang"
  },
  "schemaVersion": "3.4.6",
  "updatedAt": "2022-09-08T09:22:09.670Z",
  "networkType": "ethereum",
  "devdoc": {
    "events": {
      "ContributionRewardTransfered(address,uint256,uint256,uint256,uint256)": {
        "details": "this is event which is genrated when a contribution voting has came to an end and the contribution is accepted",
        "params": {
          "contributionId": "This is the id of the contribution to which the record is related to ",
          "recordId": "This is the id of the record to which this contribution relates to ",
          "rewardCommunity": "The reward amount for comunity tokens",
          "rewardGovernance": "The reward amount for governance tokens ",
          "to": "This the address of the winner or the owner of the contribution "
        }
      },
      "NewTokenCreated(uint256,string,string,uint256,uint256,uint256,uint8)": {
        "details": "this is event which is created when new governance token is created (NEW CREATION Not MINITING)",
        "params": {
          "creationDate": "This is the creation date of the token ",
          "image": "This is the image of the token ",
          "recordId": "This is the record Id to which this token belongs to ",
          "symbol": "This is the symbol of the governance token",
          "tokenAmount": "This is the amount of token that are created ",
          "tokenId": "This is the id of token that is newly created tokens ",
          "tokenType": "This is the type of the token that is created => For governance 1 and for copyright 0  "
        }
      },
      "TokenMinted(uint256,uint256,uint256,uint256)": {
        "details": "this is event which is created when new governance token is minted after the voting is done",
        "params": {
          "creationDate": "This is the creation date of the token ",
          "recordId": "This is the record Id to which this token belongs to ",
          "tokenAmount": "This is the amount of token that are created ",
          "tokenId": "This is the id of token that is newly created tokens "
        }
      },
      "TokenTransfer(address,address,uint256,uint256,uint256,string)": {
        "details": "this is event which is created when a token transfer takes place",
        "params": {
          "amount": "This is the amount of token transfered ",
          "from": "This is the address of sender ",
          "symbol": "This is the symbol of the token that were transfered",
          "to": "This is the address of reciver ",
          "tokenId": "This is the id of the token that is being transfered ",
          "transferDate": "This is the date of the transfer"
        }
      }
    },
    "kind": "dev",
    "methods": {
      "balanceOf(address,uint256)": {
        "details": "See {IERC1155-balanceOf}. Requirements: - `account` cannot be the zero address."
      },
      "balanceOfAt(address,uint256,uint256)": {
        "details": "Retrieves the balance of `account` at the time `snapshotId` was created."
      },
      "balanceOfBatch(address[],uint256[])": {
        "details": "See {IERC1155-balanceOfBatch}. Requirements: - `accounts` and `ids` must have the same length."
      },
      "createNewCommunityToken((uint256,uint256,uint256,string,string))": {
        "details": "This function creats new community tokens for specified record",
        "params": {
          "newTokenData": "This contains all the parameters needed to create a new community token that are - recordId This is the recordId that for new token - totalSupply This is the total supply of community token - userBalance This is the amount of tokens that user wants to keep to himself - symbol This is the symbol of the community token - image this is image of the gov token."
        }
      },
      "createNewGovernanceToken((uint256,uint256,uint256,string,string))": {
        "details": "This function creats new governance tokens for specified record",
        "params": {
          "newTokenData": "This contains all the parameters needed to create a new governance token that are - recordId This is the recordId that for new token - totalSupply This is the total supply of governance token - userBalance This is the amount of tokens that user wants to keep to himself - symbol This is the symbol of the gvernance token - image this is image of the gov token."
        }
      },
      "exists(uint256)": {
        "details": "Indicates whether any token exist with a given id, or not."
      },
      "getCommunityTokenId(uint256)": {
        "details": "This function gives you the community token id of the recordId that you pass",
        "params": {
          "recordId": "This is the Id of the token that you want to check"
        }
      },
      "getGovernanceTokenId(uint256)": {
        "details": "This function gives you the governance token id of the recordId that you pass",
        "params": {
          "recordId": "This is the Id of the token that you want to check"
        }
      },
      "isApprovedForAll(address,address)": {
        "details": "See {IERC1155-isApprovedForAll}."
      },
      "mintTokens(uint256,uint256)": {
        "details": "this function is responsible for minting of new tokens for records",
        "params": {
          "amount": "the amount that is to be minted",
          "tokenId": "Id this is the tokenId that is to minted"
        }
      },
      "mintTokens(uint256,uint256,uint256)": {
        "details": "This function creats new community tokens for specified record",
        "params": {
          "recordId": "This is the id of the record to which the token belongs to",
          "tokenAmount": "This is the amount that is to be minted",
          "tokenId": "This is the id of the which is to be minted"
        }
      },
      "onERC1155BatchReceived(address,address,uint256[],uint256[],bytes)": {
        "details": "Handles the receipt of a multiple ERC1155 token types. This function is called at the end of a `safeBatchTransferFrom` after the balances have been updated. NOTE: To accept the transfer(s), this must return `bytes4(keccak256(\"onERC1155BatchReceived(address,address,uint256[],uint256[],bytes)\"))` (i.e. 0xbc197c81, or its own function selector).",
        "params": {
          "data": "Additional data with no specified format",
          "from": "The address which previously owned the token",
          "ids": "An array containing ids of each token being transferred (order and length must match values array)",
          "operator": "The address which initiated the batch transfer (i.e. msg.sender)",
          "values": "An array containing amounts of each token being transferred (order and length must match ids array)"
        },
        "returns": {
          "_0": "`bytes4(keccak256(\"onERC1155BatchReceived(address,address,uint256[],uint256[],bytes)\"))` if transfer is allowed"
        }
      },
      "onERC1155Received(address,address,uint256,uint256,bytes)": {
        "details": "Handles the receipt of a single ERC1155 token type. This function is called at the end of a `safeTransferFrom` after the balance has been updated. NOTE: To accept the transfer, this must return `bytes4(keccak256(\"onERC1155Received(address,address,uint256,uint256,bytes)\"))` (i.e. 0xf23a6e61, or its own function selector).",
        "params": {
          "data": "Additional data with no specified format",
          "from": "The address which previously owned the token",
          "id": "The ID of the token being transferred",
          "operator": "The address which initiated the transfer (i.e. msg.sender)",
          "value": "The amount of tokens being transferred"
        },
        "returns": {
          "_0": "`bytes4(keccak256(\"onERC1155Received(address,address,uint256,uint256,bytes)\"))` if transfer is allowed"
        }
      },
      "safeBatchTransferFrom(address,address,uint256[],uint256[],bytes)": {
        "details": "See {IERC1155-safeBatchTransferFrom}."
      },
      "safeTransferFrom(address,address,uint256,uint256,bytes)": {
        "details": "See {IERC1155-safeTransferFrom}."
      },
      "setApprovalForAll(address,bool)": {
        "details": "See {IERC1155-setApprovalForAll}."
      },
      "setContributionVotingContractAddress(address)": {
        "details": "This function sets the Voting Contract address"
      },
      "setDilutionContract(address)": {
        "details": "This function sets the dilution Contract address"
      },
      "setOwnerAddress(address)": {
        "details": "This function sets the Owners address"
      },
      "setRecordsContractAddress(address)": {
        "details": "This function sets the Records Contract address"
      },
      "setVotingHubContract(address)": {
        "details": "This function sets the Records Contract address"
      },
      "supportsInterface(bytes4)": {
        "details": "See {IERC165-supportsInterface}."
      },
      "totalCirculatingSupply(uint256)": {
        "details": "This function returns the amount of total tokens that are in circulation",
        "params": {
          "tokenId": "This is the token whoes circulating supply you  want to find out"
        }
      },
      "totalSupply(uint256)": {
        "details": "Total amount of tokens in with a given id."
      },
      "totalSupplyAt(uint256,uint256)": {
        "details": "Retrieves the total supply at the time `snapshotId` was created."
      },
      "transferRewardAmount(address,uint256,uint256,uint256,uint256)": {
        "details": "This function is called only by the voting contract once the voting ends",
        "params": {
          "contributionId": "this is the contribution id to which the user has won",
          "recordId": "This is the recordId to which the contribution belongs to",
          "rewardCommunity": "this is the amout of comunity token that needs to be transfered",
          "rewardGovernance": "this is the amout of Governance token that needs to be transfered",
          "to": "This is the recivers address"
        }
      },
      "uri(uint256)": {
        "details": "See {IERC1155MetadataURI-uri}. This implementation returns the same URI for *all* token types. It relies on the token type ID substitution mechanism https://eips.ethereum.org/EIPS/eip-1155#metadata[defined in the EIP]. Clients calling this function must replace the `\\{id\\}` substring with the actual token type ID."
      }
    },
    "version": 1
  },
  "userdoc": {
    "kind": "user",
    "methods": {},
    "version": 1
  }
}