{
  "contractName": "TreasuryCoreContract",
  "abi": [
    {
      "inputs": [
        {
          "internalType": "address",
          "name": "owner",
          "type": "address"
        }
      ],
      "stateMutability": "nonpayable",
      "type": "constructor"
    },
    {
      "anonymous": false,
      "inputs": [
        {
          "indexed": true,
          "internalType": "address",
          "name": "account",
          "type": "address"
        },
        {
          "indexed": true,
          "internalType": "address",
          "name": "operator",
          "type": "address"
        },
        {
          "indexed": false,
          "internalType": "bool",
          "name": "approved",
          "type": "bool"
        }
      ],
      "name": "ApprovalForAll",
      "type": "event"
    },
    {
      "anonymous": false,
      "inputs": [
        {
          "indexed": false,
          "internalType": "address",
          "name": "to",
          "type": "address"
        },
        {
          "indexed": false,
          "internalType": "uint256",
          "name": "recordId",
          "type": "uint256"
        },
        {
          "indexed": false,
          "internalType": "uint256",
          "name": "contributionId",
          "type": "uint256"
        },
        {
          "indexed": false,
          "internalType": "uint256",
          "name": "rewardGovernance",
          "type": "uint256"
        },
        {
          "indexed": false,
          "internalType": "uint256",
          "name": "rewardCommunity",
          "type": "uint256"
        }
      ],
      "name": "ContributionRewardTransferred",
      "type": "event"
    },
    {
      "anonymous": false,
      "inputs": [
        {
          "indexed": false,
          "internalType": "uint256",
          "name": "recordId",
          "type": "uint256"
        },
        {
          "indexed": false,
          "internalType": "string",
          "name": "symbol",
          "type": "string"
        },
        {
          "indexed": false,
          "internalType": "string",
          "name": "image",
          "type": "string"
        },
        {
          "indexed": false,
          "internalType": "uint256",
          "name": "creationDate",
          "type": "uint256"
        },
        {
          "indexed": false,
          "internalType": "uint256",
          "name": "tokenAmount",
          "type": "uint256"
        },
        {
          "indexed": false,
          "internalType": "uint256",
          "name": "tokenId",
          "type": "uint256"
        },
        {
          "indexed": false,
          "internalType": "uint8",
          "name": "tokenType",
          "type": "uint8"
        }
      ],
      "name": "NewTokenCreated",
      "type": "event"
    },
    {
      "anonymous": false,
      "inputs": [
        {
          "indexed": false,
          "internalType": "uint256",
          "name": "id",
          "type": "uint256"
        }
      ],
      "name": "Snapshot",
      "type": "event"
    },
    {
      "anonymous": false,
      "inputs": [
        {
          "indexed": false,
          "internalType": "uint256",
          "name": "recordId",
          "type": "uint256"
        },
        {
          "indexed": false,
          "internalType": "uint256",
          "name": "tokenId",
          "type": "uint256"
        },
        {
          "indexed": false,
          "internalType": "uint256",
          "name": "creationDate",
          "type": "uint256"
        },
        {
          "indexed": false,
          "internalType": "uint256",
          "name": "tokenAmount",
          "type": "uint256"
        }
      ],
      "name": "TokenMinted",
      "type": "event"
    },
    {
      "anonymous": false,
      "inputs": [
        {
          "indexed": false,
          "internalType": "address",
          "name": "from",
          "type": "address"
        },
        {
          "indexed": false,
          "internalType": "address",
          "name": "to",
          "type": "address"
        },
        {
          "indexed": false,
          "internalType": "uint256",
          "name": "transferDate",
          "type": "uint256"
        },
        {
          "indexed": false,
          "internalType": "uint256",
          "name": "tokenId",
          "type": "uint256"
        },
        {
          "indexed": false,
          "internalType": "uint256",
          "name": "amount",
          "type": "uint256"
        },
        {
          "indexed": false,
          "internalType": "string",
          "name": "symbol",
          "type": "string"
        }
      ],
      "name": "TokenTransfer",
      "type": "event"
    },
    {
      "anonymous": false,
      "inputs": [
        {
          "indexed": true,
          "internalType": "address",
          "name": "operator",
          "type": "address"
        },
        {
          "indexed": true,
          "internalType": "address",
          "name": "from",
          "type": "address"
        },
        {
          "indexed": true,
          "internalType": "address",
          "name": "to",
          "type": "address"
        },
        {
          "indexed": false,
          "internalType": "uint256[]",
          "name": "ids",
          "type": "uint256[]"
        },
        {
          "indexed": false,
          "internalType": "uint256[]",
          "name": "values",
          "type": "uint256[]"
        }
      ],
      "name": "TransferBatch",
      "type": "event"
    },
    {
      "anonymous": false,
      "inputs": [
        {
          "indexed": true,
          "internalType": "address",
          "name": "operator",
          "type": "address"
        },
        {
          "indexed": true,
          "internalType": "address",
          "name": "from",
          "type": "address"
        },
        {
          "indexed": true,
          "internalType": "address",
          "name": "to",
          "type": "address"
        },
        {
          "indexed": false,
          "internalType": "uint256",
          "name": "id",
          "type": "uint256"
        },
        {
          "indexed": false,
          "internalType": "uint256",
          "name": "value",
          "type": "uint256"
        }
      ],
      "name": "TransferSingle",
      "type": "event"
    },
    {
      "anonymous": false,
      "inputs": [
        {
          "indexed": false,
          "internalType": "string",
          "name": "value",
          "type": "string"
        },
        {
          "indexed": true,
          "internalType": "uint256",
          "name": "id",
          "type": "uint256"
        }
      ],
      "name": "URI",
      "type": "event"
    },
    {
      "inputs": [],
      "name": "CRD",
      "outputs": [
        {
          "internalType": "uint256",
          "name": "",
          "type": "uint256"
        }
      ],
      "stateMutability": "view",
      "type": "function"
    },
    {
      "inputs": [],
      "name": "OWNER",
      "outputs": [
        {
          "internalType": "address",
          "name": "",
          "type": "address"
        }
      ],
      "stateMutability": "view",
      "type": "function"
    },
    {
      "inputs": [],
      "name": "TREASURY_CONTRACT_ADDRESS",
      "outputs": [
        {
          "internalType": "address",
          "name": "",
          "type": "address"
        }
      ],
      "stateMutability": "view",
      "type": "function"
    },
    {
      "inputs": [],
      "name": "VOTING_HUB_ADDRESS",
      "outputs": [
        {
          "internalType": "address",
          "name": "",
          "type": "address"
        }
      ],
      "stateMutability": "view",
      "type": "function"
    },
    {
      "inputs": [
        {
          "internalType": "address",
          "name": "account",
          "type": "address"
        },
        {
          "internalType": "uint256",
          "name": "id",
          "type": "uint256"
        }
      ],
      "name": "balanceOf",
      "outputs": [
        {
          "internalType": "uint256",
          "name": "",
          "type": "uint256"
        }
      ],
      "stateMutability": "view",
      "type": "function"
    },
    {
      "inputs": [
        {
          "internalType": "address",
          "name": "account",
          "type": "address"
        },
        {
          "internalType": "uint256",
          "name": "snapshotId",
          "type": "uint256"
        },
        {
          "internalType": "uint256",
          "name": "tokenId",
          "type": "uint256"
        }
      ],
      "name": "balanceOfAt",
      "outputs": [
        {
          "internalType": "uint256",
          "name": "",
          "type": "uint256"
        }
      ],
      "stateMutability": "view",
      "type": "function"
    },
    {
      "inputs": [
        {
          "internalType": "address[]",
          "name": "accounts",
          "type": "address[]"
        },
        {
          "internalType": "uint256[]",
          "name": "ids",
          "type": "uint256[]"
        }
      ],
      "name": "balanceOfBatch",
      "outputs": [
        {
          "internalType": "uint256[]",
          "name": "",
          "type": "uint256[]"
        }
      ],
      "stateMutability": "view",
      "type": "function"
    },
    {
      "inputs": [
        {
          "internalType": "uint256",
          "name": "",
          "type": "uint256"
        }
      ],
      "name": "commTokenMapping",
      "outputs": [
        {
          "internalType": "uint256",
          "name": "recordId",
          "type": "uint256"
        },
        {
          "internalType": "string",
          "name": "symbol",
          "type": "string"
        },
        {
          "internalType": "string",
          "name": "image",
          "type": "string"
        },
        {
          "internalType": "uint256",
          "name": "creationDate",
          "type": "uint256"
        },
        {
          "internalType": "bool",
          "name": "isPresent",
          "type": "bool"
        },
        {
          "internalType": "uint256",
          "name": "tokenId",
          "type": "uint256"
        }
      ],
      "stateMutability": "view",
      "type": "function"
    },
    {
      "inputs": [
        {
          "internalType": "string",
          "name": "",
          "type": "string"
        }
      ],
      "name": "commTokenSym",
      "outputs": [
        {
          "internalType": "bool",
          "name": "",
          "type": "bool"
        }
      ],
      "stateMutability": "view",
      "type": "function"
    },
    {
      "inputs": [
        {
          "internalType": "uint256",
          "name": "id",
          "type": "uint256"
        }
      ],
      "name": "exists",
      "outputs": [
        {
          "internalType": "bool",
          "name": "",
          "type": "bool"
        }
      ],
      "stateMutability": "view",
      "type": "function"
    },
    {
      "inputs": [
        {
          "internalType": "uint256",
          "name": "",
          "type": "uint256"
        }
      ],
      "name": "govTokenMapping",
      "outputs": [
        {
          "internalType": "uint256",
          "name": "recordId",
          "type": "uint256"
        },
        {
          "internalType": "string",
          "name": "symbol",
          "type": "string"
        },
        {
          "internalType": "string",
          "name": "image",
          "type": "string"
        },
        {
          "internalType": "uint256",
          "name": "creationDate",
          "type": "uint256"
        },
        {
          "internalType": "bool",
          "name": "isPresent",
          "type": "bool"
        },
        {
          "internalType": "uint256",
          "name": "tokenId",
          "type": "uint256"
        }
      ],
      "stateMutability": "view",
      "type": "function"
    },
    {
      "inputs": [
        {
          "internalType": "string",
          "name": "",
          "type": "string"
        }
      ],
      "name": "govTokenSym",
      "outputs": [
        {
          "internalType": "bool",
          "name": "",
          "type": "bool"
        }
      ],
      "stateMutability": "view",
      "type": "function"
    },
    {
      "inputs": [
        {
          "internalType": "address",
          "name": "account",
          "type": "address"
        },
        {
          "internalType": "address",
          "name": "operator",
          "type": "address"
        }
      ],
      "name": "isApprovedForAll",
      "outputs": [
        {
          "internalType": "bool",
          "name": "",
          "type": "bool"
        }
      ],
      "stateMutability": "view",
      "type": "function"
    },
    {
      "inputs": [
        {
          "internalType": "address",
          "name": "from",
          "type": "address"
        },
        {
          "internalType": "address",
          "name": "to",
          "type": "address"
        },
        {
          "internalType": "uint256[]",
          "name": "ids",
          "type": "uint256[]"
        },
        {
          "internalType": "uint256[]",
          "name": "amounts",
          "type": "uint256[]"
        },
        {
          "internalType": "bytes",
          "name": "data",
          "type": "bytes"
        }
      ],
      "name": "safeBatchTransferFrom",
      "outputs": [],
      "stateMutability": "nonpayable",
      "type": "function"
    },
    {
      "inputs": [
        {
          "internalType": "address",
          "name": "from",
          "type": "address"
        },
        {
          "internalType": "address",
          "name": "to",
          "type": "address"
        },
        {
          "internalType": "uint256",
          "name": "id",
          "type": "uint256"
        },
        {
          "internalType": "uint256",
          "name": "amount",
          "type": "uint256"
        },
        {
          "internalType": "bytes",
          "name": "data",
          "type": "bytes"
        }
      ],
      "name": "safeTransferFrom",
      "outputs": [],
      "stateMutability": "nonpayable",
      "type": "function"
    },
    {
      "inputs": [
        {
          "internalType": "address",
          "name": "operator",
          "type": "address"
        },
        {
          "internalType": "bool",
          "name": "approved",
          "type": "bool"
        }
      ],
      "name": "setApprovalForAll",
      "outputs": [],
      "stateMutability": "nonpayable",
      "type": "function"
    },
    {
      "inputs": [],
      "name": "snap",
      "outputs": [
        {
          "internalType": "uint256",
          "name": "",
          "type": "uint256"
        }
      ],
      "stateMutability": "nonpayable",
      "type": "function"
    },
    {
      "inputs": [
        {
          "internalType": "bytes4",
          "name": "interfaceId",
          "type": "bytes4"
        }
      ],
      "name": "supportsInterface",
      "outputs": [
        {
          "internalType": "bool",
          "name": "",
          "type": "bool"
        }
      ],
      "stateMutability": "view",
      "type": "function"
    },
    {
      "inputs": [
        {
          "internalType": "uint256",
          "name": "id",
          "type": "uint256"
        }
      ],
      "name": "totalSupply",
      "outputs": [
        {
          "internalType": "uint256",
          "name": "",
          "type": "uint256"
        }
      ],
      "stateMutability": "view",
      "type": "function"
    },
    {
      "inputs": [
        {
          "internalType": "uint256",
          "name": "snapshotId",
          "type": "uint256"
        },
        {
          "internalType": "uint256",
          "name": "tokenId",
          "type": "uint256"
        }
      ],
      "name": "totalSupplyAt",
      "outputs": [
        {
          "internalType": "uint256",
          "name": "",
          "type": "uint256"
        }
      ],
      "stateMutability": "view",
      "type": "function"
    },
    {
      "inputs": [
        {
          "internalType": "uint256",
          "name": "",
          "type": "uint256"
        }
      ],
      "name": "uri",
      "outputs": [
        {
          "internalType": "string",
          "name": "",
          "type": "string"
        }
      ],
      "stateMutability": "view",
      "type": "function"
    },
    {
      "inputs": [
        {
          "internalType": "address",
          "name": "newVotingHubContract",
          "type": "address"
        }
      ],
      "name": "setVotingHubContract",
      "outputs": [],
      "stateMutability": "nonpayable",
      "type": "function"
    },
    {
      "inputs": [
        {
          "internalType": "address",
          "name": "newTreasuryAddress",
          "type": "address"
        }
      ],
      "name": "setTreasuryContract",
      "outputs": [],
      "stateMutability": "nonpayable",
      "type": "function"
    },
    {
      "inputs": [
        {
          "components": [
            {
              "internalType": "uint256",
              "name": "recordId",
              "type": "uint256"
            },
            {
              "internalType": "uint256",
              "name": "totalSupply",
              "type": "uint256"
            },
            {
              "internalType": "uint256",
              "name": "userBalance",
              "type": "uint256"
            },
            {
              "internalType": "string",
              "name": "symbol",
              "type": "string"
            },
            {
              "internalType": "string",
              "name": "image",
              "type": "string"
            }
          ],
          "internalType": "struct TreasuryCoreContract.NewTokenData",
          "name": "newTokenData",
          "type": "tuple"
        },
        {
          "internalType": "address",
          "name": "userAddress",
          "type": "address"
        }
      ],
      "name": "createNewGovernanceToken",
      "outputs": [
        {
          "internalType": "uint256",
          "name": "",
          "type": "uint256"
        }
      ],
      "stateMutability": "nonpayable",
      "type": "function"
    },
    {
      "inputs": [
        {
          "components": [
            {
              "internalType": "uint256",
              "name": "recordId",
              "type": "uint256"
            },
            {
              "internalType": "uint256",
              "name": "totalSupply",
              "type": "uint256"
            },
            {
              "internalType": "uint256",
              "name": "userBalance",
              "type": "uint256"
            },
            {
              "internalType": "string",
              "name": "symbol",
              "type": "string"
            },
            {
              "internalType": "string",
              "name": "image",
              "type": "string"
            }
          ],
          "internalType": "struct TreasuryCoreContract.NewTokenData",
          "name": "newTokenData",
          "type": "tuple"
        },
        {
          "internalType": "address",
          "name": "userAddress",
          "type": "address"
        }
      ],
      "name": "createNewCommunityToken",
      "outputs": [
        {
          "internalType": "uint256",
          "name": "",
          "type": "uint256"
        }
      ],
      "stateMutability": "nonpayable",
      "type": "function"
    },
    {
      "inputs": [
        {
          "internalType": "uint256",
          "name": "recordId",
          "type": "uint256"
        },
        {
          "internalType": "uint256",
          "name": "tokenId",
          "type": "uint256"
        },
        {
          "internalType": "uint256",
          "name": "tokenAmount",
          "type": "uint256"
        }
      ],
      "name": "mintTokens",
      "outputs": [],
      "stateMutability": "nonpayable",
      "type": "function"
    },
    {
      "inputs": [
        {
          "internalType": "address",
          "name": "to",
          "type": "address"
        },
        {
          "internalType": "uint256",
          "name": "recordId",
          "type": "uint256"
        },
        {
          "internalType": "uint256",
          "name": "contributionId",
          "type": "uint256"
        },
        {
          "internalType": "uint256",
          "name": "rewardGovernance",
          "type": "uint256"
        },
        {
          "internalType": "uint256",
          "name": "rewardCommunity",
          "type": "uint256"
        }
      ],
      "name": "transferRewardAmount",
      "outputs": [],
      "stateMutability": "nonpayable",
      "type": "function"
    },
    {
      "inputs": [
        {
          "internalType": "string",
          "name": "governanceSymbol",
          "type": "string"
        },
        {
          "internalType": "string",
          "name": "communitySymbol",
          "type": "string"
        }
      ],
      "name": "setSymbolsAsUsed",
      "outputs": [],
      "stateMutability": "nonpayable",
      "type": "function"
    },
    {
      "inputs": [
        {
          "internalType": "string",
          "name": "governanceSymbol",
          "type": "string"
        },
        {
          "internalType": "string",
          "name": "communitySymbol",
          "type": "string"
        }
      ],
      "name": "setSymbolsAsAvailable",
      "outputs": [],
      "stateMutability": "nonpayable",
      "type": "function"
    },
    {
      "inputs": [
        {
          "internalType": "uint256",
          "name": "tokenId",
          "type": "uint256"
        },
        {
          "internalType": "uint256",
          "name": "amount",
          "type": "uint256"
        },
        {
          "internalType": "address",
          "name": "receiver",
          "type": "address"
        }
      ],
      "name": "transferRewardTokens",
      "outputs": [],
      "stateMutability": "nonpayable",
      "type": "function"
    },
    {
      "inputs": [],
      "name": "snapshot",
      "outputs": [
        {
          "internalType": "uint256",
          "name": "snapshotId",
          "type": "uint256"
        }
      ],
      "stateMutability": "nonpayable",
      "type": "function"
    },
    {
      "inputs": [
        {
          "internalType": "uint256",
          "name": "tokenId",
          "type": "uint256"
        },
        {
          "internalType": "uint256",
          "name": "amount",
          "type": "uint256"
        }
      ],
      "name": "mint",
      "outputs": [],
      "stateMutability": "nonpayable",
      "type": "function"
    },
    {
      "inputs": [
        {
          "internalType": "address",
          "name": "operator",
          "type": "address"
        },
        {
          "internalType": "address",
          "name": "from",
          "type": "address"
        },
        {
          "internalType": "uint256",
          "name": "id",
          "type": "uint256"
        },
        {
          "internalType": "uint256",
          "name": "value",
          "type": "uint256"
        },
        {
          "internalType": "bytes",
          "name": "data",
          "type": "bytes"
        }
      ],
      "name": "onERC1155Received",
      "outputs": [
        {
          "internalType": "bytes4",
          "name": "",
          "type": "bytes4"
        }
      ],
      "stateMutability": "nonpayable",
      "type": "function"
    },
    {
      "inputs": [
        {
          "internalType": "address",
          "name": "operator",
          "type": "address"
        },
        {
          "internalType": "address",
          "name": "from",
          "type": "address"
        },
        {
          "internalType": "uint256[]",
          "name": "ids",
          "type": "uint256[]"
        },
        {
          "internalType": "uint256[]",
          "name": "values",
          "type": "uint256[]"
        },
        {
          "internalType": "bytes",
          "name": "data",
          "type": "bytes"
        }
      ],
      "name": "onERC1155BatchReceived",
      "outputs": [
        {
          "internalType": "bytes4",
          "name": "",
          "type": "bytes4"
        }
      ],
      "stateMutability": "nonpayable",
      "type": "function"
    }
  ],
  "bytecode": "0x608060405260016007556040518060400160405280600581526020017f435244475f000000000000000000000000000000000000000000000000000000815250600b90805190602001906200005692919062000dff565b506040518060400160405280600481526020017f4352445f00000000000000000000000000000000000000000000000000000000815250600c9080519060200190620000a492919062000dff565b506000600d60006101000a81548160ff021916908360ff1602179055506001600d60016101000a81548160ff021916908360ff160217905550348015620000ea57600080fd5b5060405162006d6238038062006d62833981810160405281019062000110919062000f23565b6040518060400160405280601d81526020017f68747470733a2f2f63726f77647265636f7264732e636f6d2f7b69647d0000008152506200015781620001f460201b60201c565b5080600a60006101000a81548173ffffffffffffffffffffffffffffffffffffffff021916908373ffffffffffffffffffffffffffffffffffffffff160217905550620001ed81600169d3c21bcecceda10000006040518060400160405280601881526020017f68747470733a2f2f63726f77647265636f7264732e636f6d00000000000000008152506200021060201b60201c565b5062001755565b80600290805190602001906200020c92919062000dff565b5050565b600073ffffffffffffffffffffffffffffffffffffffff168473ffffffffffffffffffffffffffffffffffffffff16141562000283576040517f08c379a00000000000000000000000000000000000000000000000000000000081526004016200027a9062000fdc565b60405180910390fd5b600062000295620003d560201b60201c565b9050620002ce81600087620002b088620003dd60201b60201c565b620002c188620003dd60201b60201c565b876200045e60201b60201c565b8260008086815260200190815260200160002060008773ffffffffffffffffffffffffffffffffffffffff1673ffffffffffffffffffffffffffffffffffffffff16815260200190815260200160002060008282546200032f919062001037565b925050819055508473ffffffffffffffffffffffffffffffffffffffff16600073ffffffffffffffffffffffffffffffffffffffff168273ffffffffffffffffffffffffffffffffffffffff167fc3d58168c5ae7397731d063d5bbf3d657854427343f4c083240f7aacaa2d0f628787604051620003af929190620010a5565b60405180910390a4620003ce81600087878787620005d460201b60201c565b5050505050565b600033905090565b60606000600167ffffffffffffffff811115620003ff57620003fe620010d2565b5b6040519080825280602002602001820160405280156200042e5781602001602082028036833780820191505090505b509050828160008151811062000449576200044862001101565b5b60200260200101818152505080915050919050565b600073ffffffffffffffffffffffffffffffffffffffff16600860009054906101000a900473ffffffffffffffffffffffffffffffffffffffff1673ffffffffffffffffffffffffffffffffffffffff1614620005b1576000600860009054906101000a900473ffffffffffffffffffffffffffffffffffffffff16905060005b8451811015620005ae578173ffffffffffffffffffffffffffffffffffffffff16631de841ba88888785815181106200051d576200051c62001101565b5b60200260200101518986815181106200053b576200053a62001101565b5b60200260200101516040518563ffffffff1660e01b815260040162000564949392919062001141565b600060405180830381600087803b1580156200057f57600080fd5b505af115801562000594573d6000803e3d6000fd5b505050508080620005a5906200118e565b915050620004df565b50505b620005cc868686868686620007ce60201b62001e4b1760201c565b505050505050565b620006008473ffffffffffffffffffffffffffffffffffffffff16620008d560201b62001f111760201c565b15620007c6578373ffffffffffffffffffffffffffffffffffffffff1663f23a6e6187878686866040518663ffffffff1660e01b81526004016200064995949392919062001280565b6020604051808303816000875af19250505080156200068857506040513d601f19601f8201168201806040525081019062000685919062001341565b60015b6200073a576200069762001380565b806308c379a01415620006fb5750620006af620013db565b80620006bc5750620006fd565b806040517f08c379a0000000000000000000000000000000000000000000000000000000008152600401620006f29190620014c9565b60405180910390fd5b505b6040517f08c379a0000000000000000000000000000000000000000000000000000000008152600401620007319062001563565b60405180910390fd5b63f23a6e6160e01b7bffffffffffffffffffffffffffffffffffffffffffffffffffffffff1916817bffffffffffffffffffffffffffffffffffffffffffffffffffffffff191614620007c4576040517f08c379a0000000000000000000000000000000000000000000000000000000008152600401620007bb90620015fb565b60405180910390fd5b505b505050505050565b600073ffffffffffffffffffffffffffffffffffffffff168573ffffffffffffffffffffffffffffffffffffffff1614156200082d57620008168484620008f860201b60201c565b6200082783620009cc60201b60201c565b620008b2565b600073ffffffffffffffffffffffffffffffffffffffff168473ffffffffffffffffffffffffffffffffffffffff1614156200088c57620008758584620008f860201b60201c565b6200088683620009cc60201b60201c565b620008b1565b6200089e8584620008f860201b60201c565b620008b08484620008f860201b60201c565b5b5b620008cd86868686868662000a6160201b62001f341760201c565b505050505050565b6000808273ffffffffffffffffffffffffffffffffffffffff163b119050919050565b60005b8151811015620009c757620009b1600460008573ffffffffffffffffffffffffffffffffffffffff1673ffffffffffffffffffffffffffffffffffffffff168152602001908152602001600020600084848151811062000960576200095f62001101565b5b60200260200101518152602001908152602001600020620009a58585858151811062000991576200099062001101565b5b602002602001015162000c0260201b60201c565b62000cce60201b60201c565b8080620009be906200118e565b915050620008fb565b505050565b60005b815181101562000a5d5762000a4760056000848481518110620009f757620009f662001101565b5b6020026020010151815260200190815260200160002062000a3b84848151811062000a275762000a2662001101565b5b602002602001015162000d5a60201b60201c565b62000cce60201b60201c565b808062000a54906200118e565b915050620009cf565b5050565b62000a7c86868686868662000d7760201b620020ae1760201c565b600073ffffffffffffffffffffffffffffffffffffffff168573ffffffffffffffffffffffffffffffffffffffff16141562000b3b5760005b835181101562000b395782818151811062000ad55762000ad462001101565b5b60200260200101516003600086848151811062000af75762000af662001101565b5b60200260200101518152602001908152602001600020600082825462000b1e919062001037565b925050819055508062000b31906200118e565b905062000ab5565b505b600073ffffffffffffffffffffffffffffffffffffffff168473ffffffffffffffffffffffffffffffffffffffff16141562000bfa5760005b835181101562000bf85782818151811062000b945762000b9362001101565b5b60200260200101516003600086848151811062000bb65762000bb562001101565b5b60200260200101518152602001908152602001600020600082825462000bdd91906200161d565b925050819055508062000bf0906200118e565b905062000b74565b505b505050505050565b60008073ffffffffffffffffffffffffffffffffffffffff168373ffffffffffffffffffffffffffffffffffffffff16141562000c76576040517f08c379a000000000000000000000000000000000000000000000000000000000815260040162000c6d90620016ce565b60405180910390fd5b60008083815260200190815260200160002060008473ffffffffffffffffffffffffffffffffffffffff1673ffffffffffffffffffffffffffffffffffffffff16815260200190815260200160002054905092915050565b600062000ce062000d7f60201b60201c565b90508062000cf78460000162000d9d60201b60201c565b101562000d555782600001819080600181540180825580915050600190039060005260206000200160009091909190915055826001018290806001815401808255809150506001900390600052602060002001600090919091909150555b505050565b600060036000838152602001908152602001600020549050919050565b505050505050565b600062000d98600662000df160201b620020b61760201c565b905090565b6000808280549050141562000db6576000905062000dec565b816001838054905062000dca91906200161d565b8154811062000dde5762000ddd62001101565b5b906000526020600020015490505b919050565b600081600001549050919050565b82805462000e0d906200171f565b90600052602060002090601f01602090048101928262000e31576000855562000e7d565b82601f1062000e4c57805160ff191683800117855562000e7d565b8280016001018555821562000e7d579182015b8281111562000e7c57825182559160200191906001019062000e5f565b5b50905062000e8c919062000e90565b5090565b5b8082111562000eab57600081600090555060010162000e91565b5090565b6000604051905090565b600080fd5b600073ffffffffffffffffffffffffffffffffffffffff82169050919050565b600062000eeb8262000ebe565b9050919050565b62000efd8162000ede565b811462000f0957600080fd5b50565b60008151905062000f1d8162000ef2565b92915050565b60006020828403121562000f3c5762000f3b62000eb9565b5b600062000f4c8482850162000f0c565b91505092915050565b600082825260208201905092915050565b7f455243313135353a206d696e7420746f20746865207a65726f2061646472657360008201527f7300000000000000000000000000000000000000000000000000000000000000602082015250565b600062000fc460218362000f55565b915062000fd18262000f66565b604082019050919050565b6000602082019050818103600083015262000ff78162000fb5565b9050919050565b6000819050919050565b7f4e487b7100000000000000000000000000000000000000000000000000000000600052601160045260246000fd5b6000620010448262000ffe565b9150620010518362000ffe565b9250827fffffffffffffffffffffffffffffffffffffffffffffffffffffffffffffffff0382111562001089576200108862001008565b5b828201905092915050565b6200109f8162000ffe565b82525050565b6000604082019050620010bc600083018562001094565b620010cb602083018462001094565b9392505050565b7f4e487b7100000000000000000000000000000000000000000000000000000000600052604160045260246000fd5b7f4e487b7100000000000000000000000000000000000000000000000000000000600052603260045260246000fd5b6200113b8162000ede565b82525050565b600060808201905062001158600083018762001130565b62001167602083018662001130565b62001176604083018562001094565b62001185606083018462001094565b95945050505050565b60006200119b8262000ffe565b91507fffffffffffffffffffffffffffffffffffffffffffffffffffffffffffffffff821415620011d157620011d062001008565b5b600182019050919050565b600081519050919050565b600082825260208201905092915050565b60005b8381101562001218578082015181840152602081019050620011fb565b8381111562001228576000848401525b50505050565b6000601f19601f8301169050919050565b60006200124c82620011dc565b620012588185620011e7565b93506200126a818560208601620011f8565b62001275816200122e565b840191505092915050565b600060a08201905062001297600083018862001130565b620012a6602083018762001130565b620012b5604083018662001094565b620012c4606083018562001094565b8181036080830152620012d881846200123f565b90509695505050505050565b60007fffffffff0000000000000000000000000000000000000000000000000000000082169050919050565b6200131b81620012e4565b81146200132757600080fd5b50565b6000815190506200133b8162001310565b92915050565b6000602082840312156200135a576200135962000eb9565b5b60006200136a848285016200132a565b91505092915050565b60008160e01c9050919050565b600060033d1115620013a25760046000803e6200139f60005162001373565b90505b90565b620013b0826200122e565b810181811067ffffffffffffffff82111715620013d257620013d1620010d2565b5b80604052505050565b600060443d1015620013ed576200147a565b620013f762000eaf565b60043d036004823e80513d602482011167ffffffffffffffff82111715620014215750506200147a565b808201805167ffffffffffffffff8111156200144157505050506200147a565b80602083010160043d038501811115620014605750505050506200147a565b6200147182602001850186620013a5565b82955050505050505b90565b600081519050919050565b600062001495826200147d565b620014a1818562000f55565b9350620014b3818560208601620011f8565b620014be816200122e565b840191505092915050565b60006020820190508181036000830152620014e5818462001488565b905092915050565b7f455243313135353a207472616e7366657220746f206e6f6e204552433131353560008201527f526563656976657220696d706c656d656e746572000000000000000000000000602082015250565b60006200154b60348362000f55565b91506200155882620014ed565b604082019050919050565b600060208201905081810360008301526200157e816200153c565b9050919050565b7f455243313135353a204552433131353552656365697665722072656a6563746560008201527f6420746f6b656e73000000000000000000000000000000000000000000000000602082015250565b6000620015e360288362000f55565b9150620015f08262001585565b604082019050919050565b600060208201905081810360008301526200161681620015d4565b9050919050565b60006200162a8262000ffe565b9150620016378362000ffe565b9250828210156200164d576200164c62001008565b5b828203905092915050565b7f455243313135353a2062616c616e636520717565727920666f7220746865207a60008201527f65726f2061646472657373000000000000000000000000000000000000000000602082015250565b6000620016b6602b8362000f55565b9150620016c38262001658565b604082019050919050565b60006020820190508181036000830152620016e981620016a7565b9050919050565b7f4e487b7100000000000000000000000000000000000000000000000000000000600052602260045260246000fd5b600060028204905060018216806200173857607f821691505b602082108114156200174f576200174e620016f0565b5b50919050565b6155fd80620017656000396000f3fe608060405234801561001057600080fd5b50600436106102055760003560e01c80638aa7a8b01161011a578063bc197c81116100ad578063e985e9c51161007c578063e985e9c514610664578063ef890f7c14610694578063f23a6e61146106b0578063f242432a146106e0578063ff669dfb146106fc57610205565b8063bc197c81146105b6578063bd85b039146105e6578063e10fa0b214610616578063e6acd9b81461064657610205565b8063a77d38fa116100e9578063a77d38fa14610529578063acb3149314610547578063af94e4a914610565578063b875e13a1461059a57610205565b80638aa7a8b0146104a35780638fbf353f146104d35780639711715a146104ef578063a22cb4651461050d57610205565b8063368680491161019d57806361cbc3571161016c57806361cbc357146103d6578063626da068146103f25780638388f41314610422578063884c8ffe1461043e5780638958a5de1461047357610205565b8063368680491461033c5780634e1273f41461035a5780634f558e791461038a5780635f938ad2146103ba57610205565b80631644e0ff116101d95780631644e0ff146102b85780631b2ef1ca146102e85780631ed65110146103045780632eb2c2d61461032057610205565b8062fdd58e1461020a57806301ffc9a71461023a5780630e89341c1461026a578063117803e31461029a575b600080fd5b610224600480360381019061021f919061364a565b61072c565b6040516102319190613699565b60405180910390f35b610254600480360381019061024f919061370c565b6107f5565b6040516102619190613754565b60405180910390f35b610284600480360381019061027f919061376f565b6108d7565b6040516102919190613835565b60405180910390f35b6102a261096b565b6040516102af9190613866565b60405180910390f35b6102d260048036038101906102cd91906139b6565b610991565b6040516102df9190613754565b60405180910390f35b61030260048036038101906102fd91906139ff565b6109c7565b005b61031e60048036038101906103199190613a3f565b610a9c565b005b61033a60048036038101906103359190613bd5565b610b70565b005b610344610c11565b6040516103519190613866565b60405180910390f35b610374600480360381019061036f9190613d67565b610c37565b6040516103819190613e9d565b60405180910390f35b6103a4600480360381019061039f919061376f565b610d50565b6040516103b19190613754565b60405180910390f35b6103d460048036038101906103cf9190613ebf565b610d64565b005b6103f060048036038101906103eb9190613ebf565b610e66565b005b61040c60048036038101906104079190613f37565b610f68565b6040516104199190613699565b60405180910390f35b61043c60048036038101906104379190613f8a565b610feb565b005b6104586004803603810190610453919061376f565b611145565b60405161046a96959493929190614005565b60405180910390f35b61048d600480360381019061048891906139b6565b61129e565b60405161049a9190613754565b60405180910390f35b6104bd60048036038101906104b891906139ff565b6112d4565b6040516104ca9190613699565b60405180910390f35b6104ed60048036038101906104e89190614074565b611318565b005b6104f7611522565b6040516105049190613699565b60405180910390f35b610527600480360381019061052291906140f3565b6115c1565b005b6105316115d7565b60405161053e9190613699565b60405180910390f35b61054f6115e6565b60405161055c9190613866565b60405180910390f35b61057f600480360381019061057a919061376f565b61160c565b60405161059196959493929190614005565b60405180910390f35b6105b460048036038101906105af9190613a3f565b611765565b005b6105d060048036038101906105cb91906141e4565b611839565b6040516105dd91906142cf565b60405180910390f35b61060060048036038101906105fb919061376f565b61186a565b60405161060d9190613699565b60405180910390f35b610630600480360381019061062b91906143b8565b611887565b60405161063d9190613699565b60405180910390f35b61064e611a43565b60405161065b9190613699565b60405180910390f35b61067e60048036038101906106799190614414565b611a48565b60405161068b9190613754565b60405180910390f35b6106ae60048036038101906106a99190614454565b611adc565b005b6106ca60048036038101906106c591906144a7565b611bbf565b6040516106d791906142cf565b60405180910390f35b6106fa60048036038101906106f59190614541565b611bee565b005b610716600480360381019061071191906143b8565b611c8f565b6040516107239190613699565b60405180910390f35b60008073ffffffffffffffffffffffffffffffffffffffff168373ffffffffffffffffffffffffffffffffffffffff16141561079d576040517f08c379a00000000000000000000000000000000000000000000000000000000081526004016107949061464a565b60405180910390fd5b60008083815260200190815260200160002060008473ffffffffffffffffffffffffffffffffffffffff1673ffffffffffffffffffffffffffffffffffffffff16815260200190815260200160002054905092915050565b60007fd9b67a26000000000000000000000000000000000000000000000000000000007bffffffffffffffffffffffffffffffffffffffffffffffffffffffff1916827bffffffffffffffffffffffffffffffffffffffffffffffffffffffff191614806108c057507f0e89341c000000000000000000000000000000000000000000000000000000007bffffffffffffffffffffffffffffffffffffffffffffffffffffffff1916827bffffffffffffffffffffffffffffffffffffffffffffffffffffffff1916145b806108d057506108cf826120c4565b5b9050919050565b6060600280546108e690614699565b80601f016020809104026020016040519081016040528092919081815260200182805461091290614699565b801561095f5780601f106109345761010080835404028352916020019161095f565b820191906000526020600020905b81548152906001019060200180831161094257829003601f168201915b50505050509050919050565b600a60009054906101000a900473ffffffffffffffffffffffffffffffffffffffff1681565b6010818051602081018201805184825260208301602085012081835280955050505050506000915054906101000a900460ff1681565b600960009054906101000a900473ffffffffffffffffffffffffffffffffffffffff1673ffffffffffffffffffffffffffffffffffffffff163373ffffffffffffffffffffffffffffffffffffffff1614610a57576040517f08c379a0000000000000000000000000000000000000000000000000000000008152600401610a4e9061473d565b60405180910390fd5b610a983083836040518060400160405280601181526020017f4e657720746f6b656e73206d696e74656400000000000000000000000000000081525061212e565b5050565b600a60009054906101000a900473ffffffffffffffffffffffffffffffffffffffff1673ffffffffffffffffffffffffffffffffffffffff163373ffffffffffffffffffffffffffffffffffffffff1614610b2c576040517f08c379a0000000000000000000000000000000000000000000000000000000008152600401610b239061473d565b60405180910390fd5b80600960006101000a81548173ffffffffffffffffffffffffffffffffffffffff021916908373ffffffffffffffffffffffffffffffffffffffff16021790555050565b610b786122c4565b73ffffffffffffffffffffffffffffffffffffffff168573ffffffffffffffffffffffffffffffffffffffff161480610bbe5750610bbd85610bb86122c4565b611a48565b5b610bfd576040517f08c379a0000000000000000000000000000000000000000000000000000000008152600401610bf4906147cf565b60405180910390fd5b610c0a85858585856122cc565b5050505050565b600860009054906101000a900473ffffffffffffffffffffffffffffffffffffffff1681565b60608151835114610c7d576040517f08c379a0000000000000000000000000000000000000000000000000000000008152600401610c7490614861565b60405180910390fd5b6000835167ffffffffffffffff811115610c9a57610c9961388b565b5b604051908082528060200260200182016040528015610cc85781602001602082028036833780820191505090505b50905060005b8451811015610d4557610d15858281518110610ced57610cec614881565b5b6020026020010151858381518110610d0857610d07614881565b5b602002602001015161072c565b828281518110610d2857610d27614881565b5b60200260200101818152505080610d3e906148df565b9050610cce565b508091505092915050565b600080610d5c8361186a565b119050919050565b600960009054906101000a900473ffffffffffffffffffffffffffffffffffffffff1673ffffffffffffffffffffffffffffffffffffffff163373ffffffffffffffffffffffffffffffffffffffff1614610df4576040517f08c379a0000000000000000000000000000000000000000000000000000000008152600401610deb9061473d565b60405180910390fd5b6001601182604051610e069190614964565b908152602001604051809103902060006101000a81548160ff0219169083151502179055506001601083604051610e3d9190614964565b908152602001604051809103902060006101000a81548160ff0219169083151502179055505050565b600960009054906101000a900473ffffffffffffffffffffffffffffffffffffffff1673ffffffffffffffffffffffffffffffffffffffff163373ffffffffffffffffffffffffffffffffffffffff1614610ef6576040517f08c379a0000000000000000000000000000000000000000000000000000000008152600401610eed9061473d565b60405180910390fd5b6001601182604051610f089190614964565b908152602001604051809103902060006101000a81548160ff0219169083151502179055506001601083604051610f3f9190614964565b908152602001604051809103902060006101000a81548160ff0219169083151502179055505050565b6000806000610fc685600460008973ffffffffffffffffffffffffffffffffffffffff1673ffffffffffffffffffffffffffffffffffffffff16815260200190815260200160002060008781526020019081526020016000206125e0565b9150915081610fde57610fd9868561072c565b610fe0565b805b925050509392505050565b600960009054906101000a900473ffffffffffffffffffffffffffffffffffffffff1673ffffffffffffffffffffffffffffffffffffffff163373ffffffffffffffffffffffffffffffffffffffff161461107b576040517f08c379a00000000000000000000000000000000000000000000000000000000081526004016110729061473d565b60405180910390fd5b611087303360016126d6565b60008211156110c3576110c23086600e6000888152602001908152602001600020600501548560405180602001604052806000815250611bee565b5b60008111156110ff576110fe3086600f6000888152602001908152602001600020600501548460405180602001604052806000815250611bee565b5b7fe0357d4bc70490bf81b58d93d7d3a12a646c486a071200201fd882cdf74c88d9858585858560405161113695949392919061497b565b60405180910390a15050505050565b600e60205280600052604060002060009150905080600001549080600101805461116e90614699565b80601f016020809104026020016040519081016040528092919081815260200182805461119a90614699565b80156111e75780601f106111bc576101008083540402835291602001916111e7565b820191906000526020600020905b8154815290600101906020018083116111ca57829003601f168201915b5050505050908060020180546111fc90614699565b80601f016020809104026020016040519081016040528092919081815260200182805461122890614699565b80156112755780601f1061124a57610100808354040283529160200191611275565b820191906000526020600020905b81548152906001019060200180831161125857829003601f168201915b5050505050908060030154908060040160009054906101000a900460ff16908060050154905086565b6011818051602081018201805184825260208301602085012081835280955050505050506000915054906101000a900460ff1681565b60008060006112f585600560008781526020019081526020016000206125e0565b915091508161130c576113078461186a565b61130e565b805b9250505092915050565b600960009054906101000a900473ffffffffffffffffffffffffffffffffffffffff1673ffffffffffffffffffffffffffffffffffffffff163373ffffffffffffffffffffffffffffffffffffffff16146113a8576040517f08c379a000000000000000000000000000000000000000000000000000000000815260040161139f9061473d565b60405180910390fd5b60011515600f600085815260200190815260200160002060040160009054906101000a900460ff1615151480611405575060011515600e600085815260200190815260200160002060040160009054906101000a900460ff161515145b611444576040517f08c379a000000000000000000000000000000000000000000000000000000000815260040161143b90614a1a565b60405180910390fd5b81600f600085815260200190815260200160002060050154148061147d575081600e600085815260200190815260200160002060050154145b6114bc576040517f08c379a00000000000000000000000000000000000000000000000000000000081526004016114b390614a86565b60405180910390fd5b6114e03083836040518060600160405280602381526020016155a56023913961212e565b7f81e0b881b9c6ff93955a4a996cc01472b2cdc1a1663af072fa5ca7db7f127de2838342846040516115159493929190614aa6565b60405180910390a1505050565b6000600960009054906101000a900473ffffffffffffffffffffffffffffffffffffffff1673ffffffffffffffffffffffffffffffffffffffff163373ffffffffffffffffffffffffffffffffffffffff16146115b4576040517f08c379a00000000000000000000000000000000000000000000000000000000081526004016115ab9061473d565b60405180910390fd5b6115bc612843565b905090565b6115d36115cc6122c4565b83836126d6565b5050565b60006115e1612843565b905090565b600960009054906101000a900473ffffffffffffffffffffffffffffffffffffffff1681565b600f60205280600052604060002060009150905080600001549080600101805461163590614699565b80601f016020809104026020016040519081016040528092919081815260200182805461166190614699565b80156116ae5780601f10611683576101008083540402835291602001916116ae565b820191906000526020600020905b81548152906001019060200180831161169157829003601f168201915b5050505050908060020180546116c390614699565b80601f01602080910402602001604051908101604052809291908181526020018280546116ef90614699565b801561173c5780601f106117115761010080835404028352916020019161173c565b820191906000526020600020905b81548152906001019060200180831161171f57829003601f168201915b5050505050908060030154908060040160009054906101000a900460ff16908060050154905086565b600a60009054906101000a900473ffffffffffffffffffffffffffffffffffffffff1673ffffffffffffffffffffffffffffffffffffffff163373ffffffffffffffffffffffffffffffffffffffff16146117f5576040517f08c379a00000000000000000000000000000000000000000000000000000000081526004016117ec9061473d565b60405180910390fd5b80600860006101000a81548173ffffffffffffffffffffffffffffffffffffffff021916908373ffffffffffffffffffffffffffffffffffffffff16021790555050565b60007fbc197c819b3e337a6f9652dd10becd7eef83032af3b9d958d3d42f6694146621905098975050505050505050565b600060036000838152602001908152602001600020549050919050565b6000600960009054906101000a900473ffffffffffffffffffffffffffffffffffffffff1673ffffffffffffffffffffffffffffffffffffffff163373ffffffffffffffffffffffffffffffffffffffff1614611919576040517f08c379a00000000000000000000000000000000000000000000000000000000081526004016119109061473d565b60405180910390fd5b6000600b60405160200161192d9190614b7f565b6040516020818303038152906040529050808460600151604051602001611955929190614bdd565b60405160208183030381529060405284606001819052505060076000815480929190611980906148df565b9190505550600060075490506119a78482600d60019054906101000a900460ff1686612899565b600e6000866000015181526020019081526020016000206000820151816000015560208201518160010190805190602001906119e49291906134c7565b506040820151816002019080519060200190611a019291906134c7565b506060820151816003015560808201518160040160006101000a81548160ff02191690831515021790555060a082015181600501559050508091505092915050565b600181565b6000600160008473ffffffffffffffffffffffffffffffffffffffff1673ffffffffffffffffffffffffffffffffffffffff16815260200190815260200160002060008373ffffffffffffffffffffffffffffffffffffffff1673ffffffffffffffffffffffffffffffffffffffff16815260200190815260200160002060009054906101000a900460ff16905092915050565b600960009054906101000a900473ffffffffffffffffffffffffffffffffffffffff1673ffffffffffffffffffffffffffffffffffffffff163373ffffffffffffffffffffffffffffffffffffffff1614611b6c576040517f08c379a0000000000000000000000000000000000000000000000000000000008152600401611b639061473d565b60405180910390fd5b611b78303360016126d6565b611bba308285856040518060400160405280601581526020017f5245434f52445f544f4b454e5f5452414e534645520000000000000000000000815250611bee565b505050565b60007ff23a6e612e1ff4830e658fe43f4e3cb4a5f8170bd5d9e69fb5d7a7fa9e4fdf9790509695505050505050565b611bf66122c4565b73ffffffffffffffffffffffffffffffffffffffff168573ffffffffffffffffffffffffffffffffffffffff161480611c3c5750611c3b85611c366122c4565b611a48565b5b611c7b576040517f08c379a0000000000000000000000000000000000000000000000000000000008152600401611c7290614c73565b60405180910390fd5b611c88858585858561299d565b5050505050565b6000600960009054906101000a900473ffffffffffffffffffffffffffffffffffffffff1673ffffffffffffffffffffffffffffffffffffffff163373ffffffffffffffffffffffffffffffffffffffff1614611d21576040517f08c379a0000000000000000000000000000000000000000000000000000000008152600401611d189061473d565b60405180910390fd5b6000600c604051602001611d359190614b7f565b6040516020818303038152906040529050808460600151604051602001611d5d929190614bdd565b60405160208183030381529060405284606001819052505060076000815480929190611d88906148df565b919050555060006007549050611daf8482600d60009054906101000a900460ff1686612899565b600f600086600001518152602001908152602001600020600082015181600001556020820151816001019080519060200190611dec9291906134c7565b506040820151816002019080519060200190611e099291906134c7565b506060820151816003015560808201518160040160006101000a81548160ff02191690831515021790555060a082015181600501559050508091505092915050565b600073ffffffffffffffffffffffffffffffffffffffff168573ffffffffffffffffffffffffffffffffffffffff161415611e9857611e8a8484612c1f565b611e9383612cd9565b611efb565b600073ffffffffffffffffffffffffffffffffffffffff168473ffffffffffffffffffffffffffffffffffffffff161415611ee557611ed78584612c1f565b611ee083612cd9565b611efa565b611eef8584612c1f565b611ef98484612c1f565b5b5b611f09868686868686611f34565b505050505050565b6000808273ffffffffffffffffffffffffffffffffffffffff163b119050919050565b611f428686868686866120ae565b600073ffffffffffffffffffffffffffffffffffffffff168573ffffffffffffffffffffffffffffffffffffffff161415611ff45760005b8351811015611ff257828181518110611f9657611f95614881565b5b602002602001015160036000868481518110611fb557611fb4614881565b5b602002602001015181526020019081526020016000206000828254611fda9190614c93565b9250508190555080611feb906148df565b9050611f7a565b505b600073ffffffffffffffffffffffffffffffffffffffff168473ffffffffffffffffffffffffffffffffffffffff1614156120a65760005b83518110156120a45782818151811061204857612047614881565b5b60200260200101516003600086848151811061206757612066614881565b5b60200260200101518152602001908152602001600020600082825461208c9190614ce9565b925050819055508061209d906148df565b905061202c565b505b505050505050565b505050505050565b600081600001549050919050565b60007f01ffc9a7000000000000000000000000000000000000000000000000000000007bffffffffffffffffffffffffffffffffffffffffffffffffffffffff1916827bffffffffffffffffffffffffffffffffffffffffffffffffffffffff1916149050919050565b600073ffffffffffffffffffffffffffffffffffffffff168473ffffffffffffffffffffffffffffffffffffffff16141561219e576040517f08c379a000000000000000000000000000000000000000000000000000000000815260040161219590614d8f565b60405180910390fd5b60006121a86122c4565b90506121c9816000876121ba88612d54565b6121c388612d54565b87612dce565b8260008086815260200190815260200160002060008773ffffffffffffffffffffffffffffffffffffffff1673ffffffffffffffffffffffffffffffffffffffff16815260200190815260200160002060008282546122289190614c93565b925050819055508473ffffffffffffffffffffffffffffffffffffffff16600073ffffffffffffffffffffffffffffffffffffffff168273ffffffffffffffffffffffffffffffffffffffff167fc3d58168c5ae7397731d063d5bbf3d657854427343f4c083240f7aacaa2d0f6287876040516122a6929190614daf565b60405180910390a46122bd81600087878787612f28565b5050505050565b600033905090565b8151835114612310576040517f08c379a000000000000000000000000000000000000000000000000000000000815260040161230790614e4a565b60405180910390fd5b600073ffffffffffffffffffffffffffffffffffffffff168473ffffffffffffffffffffffffffffffffffffffff161415612380576040517f08c379a000000000000000000000000000000000000000000000000000000000815260040161237790614edc565b60405180910390fd5b600061238a6122c4565b905061239a818787878787612dce565b60005b845181101561254b5760008582815181106123bb576123ba614881565b5b6020026020010151905060008583815181106123da576123d9614881565b5b60200260200101519050600080600084815260200190815260200160002060008b73ffffffffffffffffffffffffffffffffffffffff1673ffffffffffffffffffffffffffffffffffffffff1681526020019081526020016000205490508181101561247b576040517f08c379a000000000000000000000000000000000000000000000000000000000815260040161247290614f6e565b60405180910390fd5b81810360008085815260200190815260200160002060008c73ffffffffffffffffffffffffffffffffffffffff1673ffffffffffffffffffffffffffffffffffffffff168152602001908152602001600020819055508160008085815260200190815260200160002060008b73ffffffffffffffffffffffffffffffffffffffff1673ffffffffffffffffffffffffffffffffffffffff16815260200190815260200160002060008282546125309190614c93565b9250508190555050505080612544906148df565b905061239d565b508473ffffffffffffffffffffffffffffffffffffffff168673ffffffffffffffffffffffffffffffffffffffff168273ffffffffffffffffffffffffffffffffffffffff167f4a39dc06d4c0dbc64b70af90fd698a233a518aa5d07e595d983b8c0526c8f7fb87876040516125c2929190614f8e565b60405180910390a46125d8818787878787613100565b505050505050565b60008060008411612626576040517f08c379a000000000000000000000000000000000000000000000000000000000815260040161261d90615011565b60405180910390fd5b61262e6132d8565b841115612670576040517f08c379a00000000000000000000000000000000000000000000000000000000081526004016126679061507d565b60405180910390fd5b600061268885856000016132e990919063ffffffff16565b905083600001805490508114156126a65760008092509250506126cf565b60018460010182815481106126be576126bd614881565b5b906000526020600020015492509250505b9250929050565b8173ffffffffffffffffffffffffffffffffffffffff168373ffffffffffffffffffffffffffffffffffffffff161415612745576040517f08c379a000000000000000000000000000000000000000000000000000000000815260040161273c9061510f565b60405180910390fd5b80600160008573ffffffffffffffffffffffffffffffffffffffff1673ffffffffffffffffffffffffffffffffffffffff16815260200190815260200160002060008473ffffffffffffffffffffffffffffffffffffffff1673ffffffffffffffffffffffffffffffffffffffff16815260200190815260200160002060006101000a81548160ff0219169083151502179055508173ffffffffffffffffffffffffffffffffffffffff168373ffffffffffffffffffffffffffffffffffffffff167f17307eab39ab6107e8899845ad3d59bd9653f200f220920489ca2b5937696c31836040516128369190613754565b60405180910390a3505050565b600061284f60066133c3565b60006128596132d8565b90507f8030e83b04d87bef53480e26263266d6ca66863aa8506aca6f2559d18aa1cb678160405161288a9190613699565b60405180910390a18091505090565b6128a161354d565b6000856040015186602001516128b79190614ce9565b90506000866040015190506128dd3087846040518060200160405280600081525061212e565b6128f88487836040518060200160405280600081525061212e565b60006040518060c001604052808960000151815260200189606001518152602001896080015181526020014281526020016001151581526020018881525090507f49debfc18817e7e3ec2948391bcc3a87349b3c716f7d470d223bfbf8928aa65a886000015189606001518a6080015184606001518c602001518c8c604051612987979695949392919061514b565b60405180910390a1809350505050949350505050565b600073ffffffffffffffffffffffffffffffffffffffff168473ffffffffffffffffffffffffffffffffffffffff161415612a0d576040517f08c379a0000000000000000000000000000000000000000000000000000000008152600401612a0490614edc565b60405180910390fd5b6000612a176122c4565b9050612a37818787612a2888612d54565b612a3188612d54565b87612dce565b600080600086815260200190815260200160002060008873ffffffffffffffffffffffffffffffffffffffff1673ffffffffffffffffffffffffffffffffffffffff16815260200190815260200160002054905083811015612ace576040517f08c379a0000000000000000000000000000000000000000000000000000000008152600401612ac590614f6e565b60405180910390fd5b83810360008087815260200190815260200160002060008973ffffffffffffffffffffffffffffffffffffffff1673ffffffffffffffffffffffffffffffffffffffff168152602001908152602001600020819055508360008087815260200190815260200160002060008873ffffffffffffffffffffffffffffffffffffffff1673ffffffffffffffffffffffffffffffffffffffff1681526020019081526020016000206000828254612b839190614c93565b925050819055508573ffffffffffffffffffffffffffffffffffffffff168773ffffffffffffffffffffffffffffffffffffffff168373ffffffffffffffffffffffffffffffffffffffff167fc3d58168c5ae7397731d063d5bbf3d657854427343f4c083240f7aacaa2d0f628888604051612c00929190614daf565b60405180910390a4612c16828888888888612f28565b50505050505050565b60005b8151811015612cd457612cc1600460008573ffffffffffffffffffffffffffffffffffffffff1673ffffffffffffffffffffffffffffffffffffffff1681526020019081526020016000206000848481518110612c8257612c81614881565b5b60200260200101518152602001908152602001600020612cbc85858581518110612caf57612cae614881565b5b602002602001015161072c565b6133d9565b8080612ccc906148df565b915050612c22565b505050565b60005b8151811015612d5057612d3d60056000848481518110612cff57612cfe614881565b5b60200260200101518152602001908152602001600020612d38848481518110612d2b57612d2a614881565b5b602002602001015161186a565b6133d9565b8080612d48906148df565b915050612cdc565b5050565b60606000600167ffffffffffffffff811115612d7357612d7261388b565b5b604051908082528060200260200182016040528015612da15781602001602082028036833780820191505090505b5090508281600081518110612db957612db8614881565b5b60200260200101818152505080915050919050565b600073ffffffffffffffffffffffffffffffffffffffff16600860009054906101000a900473ffffffffffffffffffffffffffffffffffffffff1673ffffffffffffffffffffffffffffffffffffffff1614612f12576000600860009054906101000a900473ffffffffffffffffffffffffffffffffffffffff16905060005b8451811015612f0f578173ffffffffffffffffffffffffffffffffffffffff16631de841ba8888878581518110612e8857612e87614881565b5b6020026020010151898681518110612ea357612ea2614881565b5b60200260200101516040518563ffffffff1660e01b8152600401612eca94939291906151c8565b600060405180830381600087803b158015612ee457600080fd5b505af1158015612ef8573d6000803e3d6000fd5b505050508080612f07906148df565b915050612e4e565b50505b612f20868686868686611e4b565b505050505050565b612f478473ffffffffffffffffffffffffffffffffffffffff16611f11565b156130f8578373ffffffffffffffffffffffffffffffffffffffff1663f23a6e6187878686866040518663ffffffff1660e01b8152600401612f8d959493929190615257565b6020604051808303816000875af1925050508015612fc957506040513d601f19601f82011682018060405250810190612fc691906152c6565b60015b61306f57612fd5615300565b806308c379a014156130325750612fea615322565b80612ff55750613034565b806040517f08c379a00000000000000000000000000000000000000000000000000000000081526004016130299190613835565b60405180910390fd5b505b6040517f08c379a00000000000000000000000000000000000000000000000000000000081526004016130669061542a565b60405180910390fd5b63f23a6e6160e01b7bffffffffffffffffffffffffffffffffffffffffffffffffffffffff1916817bffffffffffffffffffffffffffffffffffffffffffffffffffffffff1916146130f6576040517f08c379a00000000000000000000000000000000000000000000000000000000081526004016130ed906154bc565b60405180910390fd5b505b505050505050565b61311f8473ffffffffffffffffffffffffffffffffffffffff16611f11565b156132d0578373ffffffffffffffffffffffffffffffffffffffff1663bc197c8187878686866040518663ffffffff1660e01b81526004016131659594939291906154dc565b6020604051808303816000875af19250505080156131a157506040513d601f19601f8201168201806040525081019061319e91906152c6565b60015b613247576131ad615300565b806308c379a0141561320a57506131c2615322565b806131cd575061320c565b806040517f08c379a00000000000000000000000000000000000000000000000000000000081526004016132019190613835565b60405180910390fd5b505b6040517f08c379a000000000000000000000000000000000000000000000000000000000815260040161323e9061542a565b60405180910390fd5b63bc197c8160e01b7bffffffffffffffffffffffffffffffffffffffffffffffffffffffff1916817bffffffffffffffffffffffffffffffffffffffffffffffffffffffff1916146132ce576040517f08c379a00000000000000000000000000000000000000000000000000000000081526004016132c5906154bc565b60405180910390fd5b505b505050505050565b60006132e460066120b6565b905090565b6000808380549050141561330057600090506133bd565b600080848054905090505b8082101561336457600061331f8383613454565b90508486828154811061333557613334614881565b5b9060005260206000200154111561334e5780915061335e565b60018161335b9190614c93565b92505b5061330b565b60008211801561339c5750838560018461337e9190614ce9565b8154811061338f5761338e614881565b5b9060005260206000200154145b156133b7576001826133ae9190614ce9565b925050506133bd565b81925050505b92915050565b6001816000016000828254019250508190555050565b60006133e36132d8565b9050806133f28460000161347a565b101561344f5782600001819080600181540180825580915050600190039060005260206000200160009091909190915055826001018290806001815401808255809150506001900390600052602060002001600090919091909150555b505050565b600060028284186134659190615573565b8284166134729190614c93565b905092915050565b6000808280549050141561349157600090506134c2565b81600183805490506134a39190614ce9565b815481106134b4576134b3614881565b5b906000526020600020015490505b919050565b8280546134d390614699565b90600052602060002090601f0160209004810192826134f5576000855561353c565b82601f1061350e57805160ff191683800117855561353c565b8280016001018555821561353c579182015b8281111561353b578251825591602001919060010190613520565b5b5090506135499190613585565b5090565b6040518060c0016040528060008152602001606081526020016060815260200160008152602001600015158152602001600081525090565b5b8082111561359e576000816000905550600101613586565b5090565b6000604051905090565b600080fd5b600080fd5b600073ffffffffffffffffffffffffffffffffffffffff82169050919050565b60006135e1826135b6565b9050919050565b6135f1816135d6565b81146135fc57600080fd5b50565b60008135905061360e816135e8565b92915050565b6000819050919050565b61362781613614565b811461363257600080fd5b50565b6000813590506136448161361e565b92915050565b60008060408385031215613661576136606135ac565b5b600061366f858286016135ff565b925050602061368085828601613635565b9150509250929050565b61369381613614565b82525050565b60006020820190506136ae600083018461368a565b92915050565b60007fffffffff0000000000000000000000000000000000000000000000000000000082169050919050565b6136e9816136b4565b81146136f457600080fd5b50565b600081359050613706816136e0565b92915050565b600060208284031215613722576137216135ac565b5b6000613730848285016136f7565b91505092915050565b60008115159050919050565b61374e81613739565b82525050565b60006020820190506137696000830184613745565b92915050565b600060208284031215613785576137846135ac565b5b600061379384828501613635565b91505092915050565b600081519050919050565b600082825260208201905092915050565b60005b838110156137d65780820151818401526020810190506137bb565b838111156137e5576000848401525b50505050565b6000601f19601f8301169050919050565b60006138078261379c565b61381181856137a7565b93506138218185602086016137b8565b61382a816137eb565b840191505092915050565b6000602082019050818103600083015261384f81846137fc565b905092915050565b613860816135d6565b82525050565b600060208201905061387b6000830184613857565b92915050565b600080fd5b600080fd5b7f4e487b7100000000000000000000000000000000000000000000000000000000600052604160045260246000fd5b6138c3826137eb565b810181811067ffffffffffffffff821117156138e2576138e161388b565b5b80604052505050565b60006138f56135a2565b905061390182826138ba565b919050565b600067ffffffffffffffff8211156139215761392061388b565b5b61392a826137eb565b9050602081019050919050565b82818337600083830152505050565b600061395961395484613906565b6138eb565b90508281526020810184848401111561397557613974613886565b5b613980848285613937565b509392505050565b600082601f83011261399d5761399c613881565b5b81356139ad848260208601613946565b91505092915050565b6000602082840312156139cc576139cb6135ac565b5b600082013567ffffffffffffffff8111156139ea576139e96135b1565b5b6139f684828501613988565b91505092915050565b60008060408385031215613a1657613a156135ac565b5b6000613a2485828601613635565b9250506020613a3585828601613635565b9150509250929050565b600060208284031215613a5557613a546135ac565b5b6000613a63848285016135ff565b91505092915050565b600067ffffffffffffffff821115613a8757613a8661388b565b5b602082029050602081019050919050565b600080fd5b6000613ab0613aab84613a6c565b6138eb565b90508083825260208201905060208402830185811115613ad357613ad2613a98565b5b835b81811015613afc5780613ae88882613635565b845260208401935050602081019050613ad5565b5050509392505050565b600082601f830112613b1b57613b1a613881565b5b8135613b2b848260208601613a9d565b91505092915050565b600067ffffffffffffffff821115613b4f57613b4e61388b565b5b613b58826137eb565b9050602081019050919050565b6000613b78613b7384613b34565b6138eb565b905082815260208101848484011115613b9457613b93613886565b5b613b9f848285613937565b509392505050565b600082601f830112613bbc57613bbb613881565b5b8135613bcc848260208601613b65565b91505092915050565b600080600080600060a08688031215613bf157613bf06135ac565b5b6000613bff888289016135ff565b9550506020613c10888289016135ff565b945050604086013567ffffffffffffffff811115613c3157613c306135b1565b5b613c3d88828901613b06565b935050606086013567ffffffffffffffff811115613c5e57613c5d6135b1565b5b613c6a88828901613b06565b925050608086013567ffffffffffffffff811115613c8b57613c8a6135b1565b5b613c9788828901613ba7565b9150509295509295909350565b600067ffffffffffffffff821115613cbf57613cbe61388b565b5b602082029050602081019050919050565b6000613ce3613cde84613ca4565b6138eb565b90508083825260208201905060208402830185811115613d0657613d05613a98565b5b835b81811015613d2f5780613d1b88826135ff565b845260208401935050602081019050613d08565b5050509392505050565b600082601f830112613d4e57613d4d613881565b5b8135613d5e848260208601613cd0565b91505092915050565b60008060408385031215613d7e57613d7d6135ac565b5b600083013567ffffffffffffffff811115613d9c57613d9b6135b1565b5b613da885828601613d39565b925050602083013567ffffffffffffffff811115613dc957613dc86135b1565b5b613dd585828601613b06565b9150509250929050565b600081519050919050565b600082825260208201905092915050565b6000819050602082019050919050565b613e1481613614565b82525050565b6000613e268383613e0b565b60208301905092915050565b6000602082019050919050565b6000613e4a82613ddf565b613e548185613dea565b9350613e5f83613dfb565b8060005b83811015613e90578151613e778882613e1a565b9750613e8283613e32565b925050600181019050613e63565b5085935050505092915050565b60006020820190508181036000830152613eb78184613e3f565b905092915050565b60008060408385031215613ed657613ed56135ac565b5b600083013567ffffffffffffffff811115613ef457613ef36135b1565b5b613f0085828601613988565b925050602083013567ffffffffffffffff811115613f2157613f206135b1565b5b613f2d85828601613988565b9150509250929050565b600080600060608486031215613f5057613f4f6135ac565b5b6000613f5e868287016135ff565b9350506020613f6f86828701613635565b9250506040613f8086828701613635565b9150509250925092565b600080600080600060a08688031215613fa657613fa56135ac565b5b6000613fb4888289016135ff565b9550506020613fc588828901613635565b9450506040613fd688828901613635565b9350506060613fe788828901613635565b9250506080613ff888828901613635565b9150509295509295909350565b600060c08201905061401a600083018961368a565b818103602083015261402c81886137fc565b9050818103604083015261404081876137fc565b905061404f606083018661368a565b61405c6080830185613745565b61406960a083018461368a565b979650505050505050565b60008060006060848603121561408d5761408c6135ac565b5b600061409b86828701613635565b93505060206140ac86828701613635565b92505060406140bd86828701613635565b9150509250925092565b6140d081613739565b81146140db57600080fd5b50565b6000813590506140ed816140c7565b92915050565b6000806040838503121561410a576141096135ac565b5b6000614118858286016135ff565b9250506020614129858286016140de565b9150509250929050565b600080fd5b60008083601f84011261414e5761414d613881565b5b8235905067ffffffffffffffff81111561416b5761416a614133565b5b60208301915083602082028301111561418757614186613a98565b5b9250929050565b60008083601f8401126141a4576141a3613881565b5b8235905067ffffffffffffffff8111156141c1576141c0614133565b5b6020830191508360018202830111156141dd576141dc613a98565b5b9250929050565b60008060008060008060008060a0898b031215614204576142036135ac565b5b60006142128b828c016135ff565b98505060206142238b828c016135ff565b975050604089013567ffffffffffffffff811115614244576142436135b1565b5b6142508b828c01614138565b9650965050606089013567ffffffffffffffff811115614273576142726135b1565b5b61427f8b828c01614138565b9450945050608089013567ffffffffffffffff8111156142a2576142a16135b1565b5b6142ae8b828c0161418e565b92509250509295985092959890939650565b6142c9816136b4565b82525050565b60006020820190506142e460008301846142c0565b92915050565b600080fd5b600080fd5b600060a0828403121561430a576143096142ea565b5b61431460a06138eb565b9050600061432484828501613635565b600083015250602061433884828501613635565b602083015250604061434c84828501613635565b604083015250606082013567ffffffffffffffff8111156143705761436f6142ef565b5b61437c84828501613988565b606083015250608082013567ffffffffffffffff8111156143a05761439f6142ef565b5b6143ac84828501613988565b60808301525092915050565b600080604083850312156143cf576143ce6135ac565b5b600083013567ffffffffffffffff8111156143ed576143ec6135b1565b5b6143f9858286016142f4565b925050602061440a858286016135ff565b9150509250929050565b6000806040838503121561442b5761442a6135ac565b5b6000614439858286016135ff565b925050602061444a858286016135ff565b9150509250929050565b60008060006060848603121561446d5761446c6135ac565b5b600061447b86828701613635565b935050602061448c86828701613635565b925050604061449d868287016135ff565b9150509250925092565b60008060008060008060a087890312156144c4576144c36135ac565b5b60006144d289828a016135ff565b96505060206144e389828a016135ff565b95505060406144f489828a01613635565b945050606061450589828a01613635565b935050608087013567ffffffffffffffff811115614526576145256135b1565b5b61453289828a0161418e565b92509250509295509295509295565b600080600080600060a0868803121561455d5761455c6135ac565b5b600061456b888289016135ff565b955050602061457c888289016135ff565b945050604061458d88828901613635565b935050606061459e88828901613635565b925050608086013567ffffffffffffffff8111156145bf576145be6135b1565b5b6145cb88828901613ba7565b9150509295509295909350565b7f455243313135353a2062616c616e636520717565727920666f7220746865207a60008201527f65726f2061646472657373000000000000000000000000000000000000000000602082015250565b6000614634602b836137a7565b915061463f826145d8565b604082019050919050565b6000602082019050818103600083015261466381614627565b9050919050565b7f4e487b7100000000000000000000000000000000000000000000000000000000600052602260045260246000fd5b600060028204905060018216806146b157607f821691505b602082108114156146c5576146c461466a565b5b50919050565b7f554e415554484f52495a45443a2043414e4e4f545f504552464f524d5f41435460008201527f494f4e0000000000000000000000000000000000000000000000000000000000602082015250565b60006147276023836137a7565b9150614732826146cb565b604082019050919050565b600060208201905081810360008301526147568161471a565b9050919050565b7f455243313135353a207472616e736665722063616c6c6572206973206e6f742060008201527f6f776e6572206e6f7220617070726f7665640000000000000000000000000000602082015250565b60006147b96032836137a7565b91506147c48261475d565b604082019050919050565b600060208201905081810360008301526147e8816147ac565b9050919050565b7f455243313135353a206163636f756e747320616e6420696473206c656e67746860008201527f206d69736d617463680000000000000000000000000000000000000000000000602082015250565b600061484b6029836137a7565b9150614856826147ef565b604082019050919050565b6000602082019050818103600083015261487a8161483e565b9050919050565b7f4e487b7100000000000000000000000000000000000000000000000000000000600052603260045260246000fd5b7f4e487b7100000000000000000000000000000000000000000000000000000000600052601160045260246000fd5b60006148ea82613614565b91507fffffffffffffffffffffffffffffffffffffffffffffffffffffffffffffffff82141561491d5761491c6148b0565b5b600182019050919050565b600081905092915050565b600061493e8261379c565b6149488185614928565b93506149588185602086016137b8565b80840191505092915050565b60006149708284614933565b915081905092915050565b600060a0820190506149906000830188613857565b61499d602083018761368a565b6149aa604083018661368a565b6149b7606083018561368a565b6149c4608083018461368a565b9695505050505050565b7f494e56414c49443a2057524f4e475f5245434f52445f49440000000000000000600082015250565b6000614a046018836137a7565b9150614a0f826149ce565b602082019050919050565b60006020820190508181036000830152614a33816149f7565b9050919050565b7f494e56414c49443a2057524f4e475f544f4b454e5f4944000000000000000000600082015250565b6000614a706017836137a7565b9150614a7b82614a3a565b602082019050919050565b60006020820190508181036000830152614a9f81614a63565b9050919050565b6000608082019050614abb600083018761368a565b614ac8602083018661368a565b614ad5604083018561368a565b614ae2606083018461368a565b95945050505050565b60008190508160005260206000209050919050565b60008154614b0d81614699565b614b178186614928565b94506001821660008114614b325760018114614b4357614b76565b60ff19831686528186019350614b76565b614b4c85614aeb565b60005b83811015614b6e57815481890152600182019150602081019050614b4f565b838801955050505b50505092915050565b6000614b8b8284614b00565b915081905092915050565b600081519050919050565b600081905092915050565b6000614bb782614b96565b614bc18185614ba1565b9350614bd18185602086016137b8565b80840191505092915050565b6000614be98285614bac565b9150614bf58284614933565b91508190509392505050565b7f455243313135353a2063616c6c6572206973206e6f74206f776e6572206e6f7260008201527f20617070726f7665640000000000000000000000000000000000000000000000602082015250565b6000614c5d6029836137a7565b9150614c6882614c01565b604082019050919050565b60006020820190508181036000830152614c8c81614c50565b9050919050565b6000614c9e82613614565b9150614ca983613614565b9250827fffffffffffffffffffffffffffffffffffffffffffffffffffffffffffffffff03821115614cde57614cdd6148b0565b5b828201905092915050565b6000614cf482613614565b9150614cff83613614565b925082821015614d1257614d116148b0565b5b828203905092915050565b7f455243313135353a206d696e7420746f20746865207a65726f2061646472657360008201527f7300000000000000000000000000000000000000000000000000000000000000602082015250565b6000614d796021836137a7565b9150614d8482614d1d565b604082019050919050565b60006020820190508181036000830152614da881614d6c565b9050919050565b6000604082019050614dc4600083018561368a565b614dd1602083018461368a565b9392505050565b7f455243313135353a2069647320616e6420616d6f756e7473206c656e6774682060008201527f6d69736d61746368000000000000000000000000000000000000000000000000602082015250565b6000614e346028836137a7565b9150614e3f82614dd8565b604082019050919050565b60006020820190508181036000830152614e6381614e27565b9050919050565b7f455243313135353a207472616e7366657220746f20746865207a65726f20616460008201527f6472657373000000000000000000000000000000000000000000000000000000602082015250565b6000614ec66025836137a7565b9150614ed182614e6a565b604082019050919050565b60006020820190508181036000830152614ef581614eb9565b9050919050565b7f455243313135353a20696e73756666696369656e742062616c616e636520666f60008201527f72207472616e7366657200000000000000000000000000000000000000000000602082015250565b6000614f58602a836137a7565b9150614f6382614efc565b604082019050919050565b60006020820190508181036000830152614f8781614f4b565b9050919050565b60006040820190508181036000830152614fa88185613e3f565b90508181036020830152614fbc8184613e3f565b90509392505050565b7f4552433230536e617073686f743a206964206973203000000000000000000000600082015250565b6000614ffb6016836137a7565b915061500682614fc5565b602082019050919050565b6000602082019050818103600083015261502a81614fee565b9050919050565b7f4552433230536e617073686f743a206e6f6e6578697374656e74206964000000600082015250565b6000615067601d836137a7565b915061507282615031565b602082019050919050565b600060208201905081810360008301526150968161505a565b9050919050565b7f455243313135353a2073657474696e6720617070726f76616c2073746174757360008201527f20666f722073656c660000000000000000000000000000000000000000000000602082015250565b60006150f96029836137a7565b91506151048261509d565b604082019050919050565b60006020820190508181036000830152615128816150ec565b9050919050565b600060ff82169050919050565b6151458161512f565b82525050565b600060e082019050615160600083018a61368a565b818103602083015261517281896137fc565b9050818103604083015261518681886137fc565b9050615195606083018761368a565b6151a2608083018661368a565b6151af60a083018561368a565b6151bc60c083018461513c565b98975050505050505050565b60006080820190506151dd6000830187613857565b6151ea6020830186613857565b6151f7604083018561368a565b615204606083018461368a565b95945050505050565b600082825260208201905092915050565b600061522982614b96565b615233818561520d565b93506152438185602086016137b8565b61524c816137eb565b840191505092915050565b600060a08201905061526c6000830188613857565b6152796020830187613857565b615286604083018661368a565b615293606083018561368a565b81810360808301526152a5818461521e565b90509695505050505050565b6000815190506152c0816136e0565b92915050565b6000602082840312156152dc576152db6135ac565b5b60006152ea848285016152b1565b91505092915050565b60008160e01c9050919050565b600060033d111561531f5760046000803e61531c6000516152f3565b90505b90565b600060443d1015615332576153b5565b61533a6135a2565b60043d036004823e80513d602482011167ffffffffffffffff821117156153625750506153b5565b808201805167ffffffffffffffff81111561538057505050506153b5565b80602083010160043d03850181111561539d5750505050506153b5565b6153ac826020018501866138ba565b82955050505050505b90565b7f455243313135353a207472616e7366657220746f206e6f6e204552433131353560008201527f526563656976657220696d706c656d656e746572000000000000000000000000602082015250565b60006154146034836137a7565b915061541f826153b8565b604082019050919050565b6000602082019050818103600083015261544381615407565b9050919050565b7f455243313135353a204552433131353552656365697665722072656a6563746560008201527f6420746f6b656e73000000000000000000000000000000000000000000000000602082015250565b60006154a66028836137a7565b91506154b18261544a565b604082019050919050565b600060208201905081810360008301526154d581615499565b9050919050565b600060a0820190506154f16000830188613857565b6154fe6020830187613857565b81810360408301526155108186613e3f565b905081810360608301526155248185613e3f565b90508181036080830152615538818461521e565b90509695505050505050565b7f4e487b7100000000000000000000000000000000000000000000000000000000600052601260045260246000fd5b600061557e82613614565b915061558983613614565b92508261559957615598615544565b5b82820490509291505056fe546f6b656e206d696e746564207468726f75676820766f74696e672070726f63657373a2646970667358221220f324287663334914b70e76347958312577bdd8403fbac8566135514b5ea4e53964736f6c634300080c0033",
  "immutableReferences": {},
  "source": "pragma solidity ^0.8.0;\n\nimport \"@openzeppelin/contracts/token/ERC1155/ERC1155.sol\";\nimport \"@openzeppelin/contracts/token/ERC1155/IERC1155Receiver.sol\";\nimport \"@openzeppelin/contracts/token/ERC1155/extensions/ERC1155Supply.sol\";\nimport \"@openzeppelin/contracts/utils/Counters.sol\";\nimport \"@openzeppelin/contracts/access/Ownable.sol\";\nimport \"../interface/IRecords.sol\";\nimport \"../ERC1155/SnapshotERC1155.sol\";\nimport \"@openzeppelin/contracts/utils/math/SafeMath.sol\";\nimport \"../voting/VotingHubContract.sol\";\n\ncontract TreasuryCoreContract is IERC1155Receiver, SnapshotERC1155 {\n    uint256 public constant CRD = 1;\n    uint256 private LastTokenId = 1;\n    address public VOTING_HUB_ADDRESS;\n    address public TREASURY_CONTRACT_ADDRESS;\n    address public OWNER;\n    string private PREFIX_GOVERNANCE = \"CRDG_\";\n    string private PREFIX_COMMUNITY = \"CRD_\";\n    uint8 private TOKEN_TYPE_COMMUNITY = 0;\n    uint8 private TOKEN_TYPE_GOVERNANCE = 1;\n\n    /// @dev This structure will store information of tokens for each records\n    /// @param recordId This is the id of record to which a token belongs\n    /// @param symbol This is the symbol of a token\n    /// @param image This is the token image\n    /// @param creationDate This is the block number of creation date\n    /// @param isPresent This is to check if a token struct exists or not\n    /// @param tokenId This is the id of the token that is created\n    struct Token {\n        uint256 recordId;\n        string symbol;\n        string image;\n        uint256 creationDate;\n        bool isPresent;\n        uint256 tokenId;\n    }\n\n    /// @dev This structure will store information of the contribution\n    /// @param recordId This is the id of the record to which contribution belongs to\n    /// @param totalSupply Total supply of token\n    /// @param userBalance The amount of tokens that goes into creators wallet\n    /// @param symbol This is the symbol of the token\n    /// @param image This is the link of the image / icon of the token\n    struct NewTokenData {\n        uint256 recordId;\n        uint256 totalSupply;\n        uint256 userBalance;\n        string symbol;\n        string image;\n    }\n\n    /// @dev this is event which is created when a token transfer takes place\n    /// @param from This is the address of sender\n    /// @param to This is the address of receiver\n    /// @param transferDate This is the date of the transfer\n    /// @param tokenId This is the id of the token that is being transferred\n    /// @param amount This is the amount of token transferred\n    /// @param symbol This is the symbol of the token that were transferred\n    event TokenTransfer(\n        address from,\n        address to,\n        uint256 transferDate,\n        uint256 tokenId,\n        uint256 amount,\n        string symbol\n    );\n\n    /// @dev this is event which is created when new governance token is created (NEW CREATION Not MINTING)\n    /// @param recordId This is the record Id to which this token belongs to\n    /// @param symbol This is the symbol of the governance token\n    /// @param image This is the image of the token\n    /// @param creationDate This is the creation date of the token\n    /// @param tokenAmount This is the amount of token that are created\n    /// @param tokenId This is the id of token that is newly created tokens\n    /// @param tokenType This is the type of the token that is created => For governance 1 and for copyright 0\n    event NewTokenCreated(\n        uint256 recordId,\n        string symbol,\n        string image,\n        uint256 creationDate,\n        uint256 tokenAmount,\n        uint256 tokenId,\n        uint8 tokenType\n    );\n\n    /// @dev this is event which is created when new governance token is minted after the voting is done\n    /// @param recordId This is the record Id to which this token belongs to\n    /// @param creationDate This is the creation date of the token\n    /// @param tokenAmount This is the amount of token that are created\n    /// @param tokenId This is the id of token that is newly created tokens\n    event TokenMinted(\n        uint256 recordId,\n        uint256 tokenId,\n        uint256 creationDate,\n        uint256 tokenAmount\n    );\n\n    /// @dev this is event which is generated when a contribution voting has came to an\n    /// end and the contribution is accepted\n    /// @param to This the address of the winner or the owner of the contribution\n    /// @param recordId This is the id of the record to which this contribution relates to\n    /// @param contributionId This is the id of the contribution to which the record is related to\n    /// @param rewardGovernance The reward amount for governance tokens\n    /// @param rewardCommunity The reward amount for community tokens\n    event ContributionRewardTransferred(\n        address to,\n        uint256 recordId,\n        uint256 contributionId,\n        uint256 rewardGovernance,\n        uint256 rewardCommunity\n    );\n\n    mapping(uint256 => Token) public govTokenMapping;\n    mapping(uint256 => Token) public commTokenMapping;\n\n    mapping(string => bool) public govTokenSym;\n    mapping(string => bool) public commTokenSym;\n\n    // By default URI to crowdrecords domain\n    // 18 decimal points supported\n    constructor(address owner) ERC1155(\"https://crowdrecords.com/{id}\") {\n        OWNER = owner;\n        _mint(owner, CRD, 1000000 * 10**18, \"https://crowdrecords.com\");\n    }\n\n    /// @dev Modifier to check that the person who accesses a specific function is the owner of contract himself.\n    modifier ownerOnly() {\n        require(msg.sender == OWNER, \"UNAUTHORIZED: CANNOT_PERFORM_ACTION\");\n        _;\n    }\n\n    /// @dev Modifier to check that the person who accesses a specific function is the owner of contract himself.\n    modifier onlyTreasuryContract() {\n        require(\n            msg.sender == TREASURY_CONTRACT_ADDRESS,\n            \"UNAUTHORIZED: CANNOT_PERFORM_ACTION\"\n        );\n        _;\n    }\n\n    /// @dev This function sets the Records Contract address\n    /// @param newVotingHubContract This is the address of new voting hub contract\n    function setVotingHubContract(address newVotingHubContract)\n        public\n        ownerOnly\n    {\n        VOTING_HUB_ADDRESS = newVotingHubContract;\n    }\n\n    /// @dev This function sets the treasury Contract address\n    /// @param newTreasuryAddress This is the address of new voting hub contract\n    function setTreasuryContract(address newTreasuryAddress) public ownerOnly {\n        TREASURY_CONTRACT_ADDRESS = newTreasuryAddress;\n    }\n\n    /// @dev This function creates new governance tokens for specified record\n    /// @param newTokenData This contains all the parameters needed to create a new governance token that are\n    /// @param userAddress - This is the address of the user who is the creator of the token\n    function createNewGovernanceToken(\n        NewTokenData memory newTokenData,\n        address userAddress\n    ) external onlyTreasuryContract returns (uint256) {\n        {\n            bytes memory preString = abi.encodePacked(PREFIX_GOVERNANCE);\n            newTokenData.symbol = string(\n                abi.encodePacked(preString, newTokenData.symbol)\n            );\n        }\n\n        LastTokenId++;\n        uint256 newTokenId = LastTokenId;\n\n        //Map the recordId with the\n        govTokenMapping[newTokenData.recordId] = createToken(\n            newTokenData,\n            newTokenId,\n            TOKEN_TYPE_GOVERNANCE,\n            userAddress\n        );\n\n        return newTokenId;\n    }\n\n    /// @dev This function creats new community tokens for specified record\n    /// @param newTokenData This contains all the parameters needed to create a new community token that are\n    /// @param userAddress - This is the address of the user who is the creator of the token\n    function createNewCommunityToken(\n        NewTokenData memory newTokenData,\n        address userAddress\n    ) external onlyTreasuryContract returns (uint256) {\n        {\n            bytes memory preString = abi.encodePacked(PREFIX_COMMUNITY);\n            newTokenData.symbol = string(\n                abi.encodePacked(preString, newTokenData.symbol)\n            );\n        }\n\n        LastTokenId++;\n        uint256 newTokenId = LastTokenId;\n\n        //Map the recordId with the\n        commTokenMapping[newTokenData.recordId] = createToken(\n            newTokenData,\n            newTokenId,\n            TOKEN_TYPE_COMMUNITY,\n            userAddress\n        );\n\n        return newTokenId;\n    }\n\n    /// @dev This function is an internal use only function whoes role is to create a new token of specified type\n    /// @param newTokenData This contains all the parameters needed to create a new community token that are\n    /// @param newTokenId - This is the Id of the token to create\n    /// @param tokenType - This is the type of token that is to be created such as community or governance\n    /// @param userAddress - This is the address of the user who is the creator of the token\n    function createToken(\n        NewTokenData memory newTokenData,\n        uint256 newTokenId,\n        uint8 tokenType,\n        address userAddress\n    ) private returns (Token memory) {\n        uint256 treasuryAmount = (newTokenData.totalSupply -\n            newTokenData.userBalance);\n        uint256 userAmount = newTokenData.userBalance;\n\n        // Here minting of new tokens is done. And those are sent directly into the treasury\n        _mint(address(this), newTokenId, treasuryAmount, \"\");\n\n        // The user requested amount of tokens is generated and send to his account\n        _mint(userAddress, newTokenId, userAmount, \"\");\n\n        Token memory token = Token({\n            recordId: newTokenData.recordId,\n            symbol: newTokenData.symbol,\n            image: newTokenData.image,\n            creationDate: block.timestamp,\n            isPresent: true,\n            tokenId: newTokenId\n        });\n\n        emit NewTokenCreated({\n            recordId: newTokenData.recordId,\n            symbol: newTokenData.symbol,\n            image: newTokenData.image,\n            creationDate: token.creationDate,\n            tokenAmount: newTokenData.totalSupply,\n            tokenId: newTokenId,\n            tokenType: tokenType\n        });\n\n        return token;\n    }\n\n    /// @dev This function creats new community tokens for specified record\n    /// @param recordId This is the id of the record to which the token belongs to\n    /// @param tokenId This is the id of the which is to be minted\n    /// @param tokenAmount This is the amount that is to be minted\n    function mintTokens(\n        uint256 recordId,\n        uint256 tokenId,\n        uint256 tokenAmount\n    ) external onlyTreasuryContract {\n        require(\n            commTokenMapping[recordId].isPresent == true ||\n                govTokenMapping[recordId].isPresent == true,\n            \"INVALID: WRONG_RECORD_ID\"\n        );\n\n        require(\n            commTokenMapping[recordId].tokenId == tokenId ||\n                govTokenMapping[recordId].tokenId == tokenId,\n            \"INVALID: WRONG_TOKEN_ID\"\n        );\n\n        // Here minting of new tokens is done. And those are sent directly into the treasury\n        _mint(\n            address(this),\n            tokenId,\n            tokenAmount,\n            \"Token minted through voting process\"\n        );\n\n        emit TokenMinted({\n            recordId: recordId,\n            tokenId: tokenId,\n            creationDate: block.timestamp,\n            tokenAmount: tokenAmount\n        });\n    }\n\n    /// @dev This function is called only by the voting contract once the voting ends\n    /// @param to This is the receivers address\n    /// @param recordId This is the recordId to which the contribution belongs to\n    /// @param contributionId this is the contribution id to which the user has won\n    /// @param rewardGovernance this is the amount of Governance token that needs to be transferred\n    /// @param rewardCommunity this is the amount of community token that needs to be transferred\n    function transferRewardAmount(\n        address to,\n        uint256 recordId,\n        uint256 contributionId,\n        uint256 rewardGovernance,\n        uint256 rewardCommunity\n    ) external onlyTreasuryContract {\n        _setApprovalForAll(address(this), msg.sender, true);\n        if (rewardGovernance > 0) {\n            safeTransferFrom(\n                address(this),\n                to,\n                govTokenMapping[recordId].tokenId,\n                rewardGovernance,\n                \"\"\n            );\n        }\n\n        if (rewardCommunity > 0) {\n            safeTransferFrom(\n                address(this),\n                to,\n                commTokenMapping[recordId].tokenId,\n                rewardCommunity,\n                \"\"\n            );\n        }\n\n        emit ContributionRewardTransferred({\n            to: to,\n            recordId: recordId,\n            contributionId: contributionId,\n            rewardGovernance: rewardGovernance,\n            rewardCommunity: rewardCommunity\n        });\n    }\n\n    // Update balance and/or total supply snapshots before the values are modified. This is implemented\n    // in the _beforeTokenTransfer hook, which is executed for _mint, _burn, and _transfer operations.\n    function _beforeTokenTransfer(\n        address operator,\n        address from,\n        address to,\n        uint256[] memory ids,\n        uint256[] memory amounts,\n        bytes memory data\n    ) internal override {\n        //Below condition is needed as the _mint is called in the constructor\n        //and at that particular point in time the below address is not initialized thus leading to a revert\n        if (VOTING_HUB_ADDRESS != address(0)) {\n            VotingHubContract votingHubContract = VotingHubContract(\n                VOTING_HUB_ADDRESS\n            );\n\n            for (uint256 i = 0; i < ids.length; i++) {\n                votingHubContract.handleUserTokenTransfers(\n                    from,\n                    to,\n                    amounts[i],\n                    ids[i]\n                );\n            }\n        }\n\n        super._beforeTokenTransfer(operator, from, to, ids, amounts, data);\n    }\n\n    /// @dev This function sets the symbol name as used, this function is called from records\n    // contract to reserve symbol for new version creation\n    /// @param governanceSymbol Symbol for governance token\n    /// @param communitySymbol Symbol for community token\n    function setSymbolsAsUsed(\n        string memory governanceSymbol,\n        string memory communitySymbol\n    ) external onlyTreasuryContract {\n        commTokenSym[communitySymbol] = true;\n        govTokenSym[governanceSymbol] = true;\n    }\n\n    /// @dev This function sets the symbol name as available, this function is called from records\n    // contract to reserve symbol for new version creation\n    /// @param governanceSymbol Symbol for governance token\n    /// @param communitySymbol Symbol for community token\n    function setSymbolsAsAvailable(\n        string memory governanceSymbol,\n        string memory communitySymbol\n    ) external onlyTreasuryContract {\n        commTokenSym[communitySymbol] = true;\n        govTokenSym[governanceSymbol] = true;\n    }\n\n    /// @dev this function is responsible for minting of new tokens for records\n    /// @param tokenId Id this is the tokenId that is to minted\n    /// @param amount the amount that is to be minted\n    /// @param receiver Id this is the tokenId that is to minted\n    function transferRewardTokens(\n        uint256 tokenId,\n        uint256 amount,\n        address receiver\n    ) public onlyTreasuryContract {\n        _setApprovalForAll(address(this), msg.sender, true);\n        safeTransferFrom(\n            address(this),\n            receiver,\n            tokenId,\n            amount,\n            \"RECORD_TOKEN_TRANSFER\"\n        );\n    }\n\n    function snapshot()\n        external\n        onlyTreasuryContract\n        returns (uint256 snapshotId)\n    {\n        return _snapshot();\n    }\n\n    function mint(uint256 tokenId, uint256 amount)\n        external\n        onlyTreasuryContract\n    {\n        _mint(address(this), tokenId, amount, \"New tokens minted\");\n    }\n\n    function onERC1155Received(\n        address operator,\n        address from,\n        uint256 id,\n        uint256 value,\n        bytes calldata data\n    ) external virtual override returns (bytes4) {\n        return\n            bytes4(\n                keccak256(\n                    \"onERC1155Received(address,address,uint256,uint256,bytes)\"\n                )\n            );\n    }\n\n    function onERC1155BatchReceived(\n        address operator,\n        address from,\n        uint256[] calldata ids,\n        uint256[] calldata values,\n        bytes calldata data\n    ) external virtual override returns (bytes4) {\n        return\n            bytes4(\n                keccak256(\n                    \"onERC1155BatchReceived(address,address,uint256[],uint256[],bytes)\"\n                )\n            );\n    }\n}\n",
  "sourcePath": "/Users/a1/Desktop/Office/projects/CrowdRecords/Contracts/contracts/treasury/TreasuryCoreContract.sol",
  "compiler": {
    "name": "solc",
    "version": "0.8.12+commit.f00d7308.Emscripten.clang"
  },
  "schemaVersion": "3.4.6",
  "updatedAt": "2022-10-05T14:07:55.870Z",
  "devdoc": {
    "events": {
      "ContributionRewardTransferred(address,uint256,uint256,uint256,uint256)": {
        "details": "this is event which is generated when a contribution voting has came to an end and the contribution is accepted",
        "params": {
          "contributionId": "This is the id of the contribution to which the record is related to",
          "recordId": "This is the id of the record to which this contribution relates to",
          "rewardCommunity": "The reward amount for community tokens",
          "rewardGovernance": "The reward amount for governance tokens",
          "to": "This the address of the winner or the owner of the contribution"
        }
      },
      "NewTokenCreated(uint256,string,string,uint256,uint256,uint256,uint8)": {
        "details": "this is event which is created when new governance token is created (NEW CREATION Not MINTING)",
        "params": {
          "creationDate": "This is the creation date of the token",
          "image": "This is the image of the token",
          "recordId": "This is the record Id to which this token belongs to",
          "symbol": "This is the symbol of the governance token",
          "tokenAmount": "This is the amount of token that are created",
          "tokenId": "This is the id of token that is newly created tokens",
          "tokenType": "This is the type of the token that is created => For governance 1 and for copyright 0"
        }
      },
      "TokenMinted(uint256,uint256,uint256,uint256)": {
        "details": "this is event which is created when new governance token is minted after the voting is done",
        "params": {
          "creationDate": "This is the creation date of the token",
          "recordId": "This is the record Id to which this token belongs to",
          "tokenAmount": "This is the amount of token that are created",
          "tokenId": "This is the id of token that is newly created tokens"
        }
      },
      "TokenTransfer(address,address,uint256,uint256,uint256,string)": {
        "details": "this is event which is created when a token transfer takes place",
        "params": {
          "amount": "This is the amount of token transferred",
          "from": "This is the address of sender",
          "symbol": "This is the symbol of the token that were transferred",
          "to": "This is the address of receiver",
          "tokenId": "This is the id of the token that is being transferred",
          "transferDate": "This is the date of the transfer"
        }
      }
    },
    "kind": "dev",
    "methods": {
      "balanceOf(address,uint256)": {
        "details": "See {IERC1155-balanceOf}. Requirements: - `account` cannot be the zero address."
      },
      "balanceOfAt(address,uint256,uint256)": {
        "details": "Retrieves the balance of `account` at the time `snapshotId` was created."
      },
      "balanceOfBatch(address[],uint256[])": {
        "details": "See {IERC1155-balanceOfBatch}. Requirements: - `accounts` and `ids` must have the same length."
      },
      "createNewCommunityToken((uint256,uint256,uint256,string,string),address)": {
        "details": "This function creats new community tokens for specified record",
        "params": {
          "newTokenData": "This contains all the parameters needed to create a new community token that are",
          "userAddress": "- This is the address of the user who is the creator of the token"
        }
      },
      "createNewGovernanceToken((uint256,uint256,uint256,string,string),address)": {
        "details": "This function creates new governance tokens for specified record",
        "params": {
          "newTokenData": "This contains all the parameters needed to create a new governance token that are",
          "userAddress": "- This is the address of the user who is the creator of the token"
        }
      },
      "exists(uint256)": {
        "details": "Indicates whether any token exist with a given id, or not."
      },
      "isApprovedForAll(address,address)": {
        "details": "See {IERC1155-isApprovedForAll}."
      },
      "mintTokens(uint256,uint256,uint256)": {
        "details": "This function creats new community tokens for specified record",
        "params": {
          "recordId": "This is the id of the record to which the token belongs to",
          "tokenAmount": "This is the amount that is to be minted",
          "tokenId": "This is the id of the which is to be minted"
        }
      },
      "onERC1155BatchReceived(address,address,uint256[],uint256[],bytes)": {
        "details": "Handles the receipt of a multiple ERC1155 token types. This function is called at the end of a `safeBatchTransferFrom` after the balances have been updated. NOTE: To accept the transfer(s), this must return `bytes4(keccak256(\"onERC1155BatchReceived(address,address,uint256[],uint256[],bytes)\"))` (i.e. 0xbc197c81, or its own function selector).",
        "params": {
          "data": "Additional data with no specified format",
          "from": "The address which previously owned the token",
          "ids": "An array containing ids of each token being transferred (order and length must match values array)",
          "operator": "The address which initiated the batch transfer (i.e. msg.sender)",
          "values": "An array containing amounts of each token being transferred (order and length must match ids array)"
        },
        "returns": {
          "_0": "`bytes4(keccak256(\"onERC1155BatchReceived(address,address,uint256[],uint256[],bytes)\"))` if transfer is allowed"
        }
      },
      "onERC1155Received(address,address,uint256,uint256,bytes)": {
        "details": "Handles the receipt of a single ERC1155 token type. This function is called at the end of a `safeTransferFrom` after the balance has been updated. NOTE: To accept the transfer, this must return `bytes4(keccak256(\"onERC1155Received(address,address,uint256,uint256,bytes)\"))` (i.e. 0xf23a6e61, or its own function selector).",
        "params": {
          "data": "Additional data with no specified format",
          "from": "The address which previously owned the token",
          "id": "The ID of the token being transferred",
          "operator": "The address which initiated the transfer (i.e. msg.sender)",
          "value": "The amount of tokens being transferred"
        },
        "returns": {
          "_0": "`bytes4(keccak256(\"onERC1155Received(address,address,uint256,uint256,bytes)\"))` if transfer is allowed"
        }
      },
      "safeBatchTransferFrom(address,address,uint256[],uint256[],bytes)": {
        "details": "See {IERC1155-safeBatchTransferFrom}."
      },
      "safeTransferFrom(address,address,uint256,uint256,bytes)": {
        "details": "See {IERC1155-safeTransferFrom}."
      },
      "setApprovalForAll(address,bool)": {
        "details": "See {IERC1155-setApprovalForAll}."
      },
      "setSymbolsAsAvailable(string,string)": {
        "params": {
          "communitySymbol": "Symbol for community token",
          "governanceSymbol": "Symbol for governance token"
        }
      },
      "setSymbolsAsUsed(string,string)": {
        "params": {
          "communitySymbol": "Symbol for community token",
          "governanceSymbol": "Symbol for governance token"
        }
      },
      "setTreasuryContract(address)": {
        "details": "This function sets the treasury Contract address",
        "params": {
          "newTreasuryAddress": "This is the address of new voting hub contract"
        }
      },
      "setVotingHubContract(address)": {
        "details": "This function sets the Records Contract address",
        "params": {
          "newVotingHubContract": "This is the address of new voting hub contract"
        }
      },
      "supportsInterface(bytes4)": {
        "details": "See {IERC165-supportsInterface}."
      },
      "totalSupply(uint256)": {
        "details": "Total amount of tokens in with a given id."
      },
      "totalSupplyAt(uint256,uint256)": {
        "details": "Retrieves the total supply at the time `snapshotId` was created."
      },
      "transferRewardAmount(address,uint256,uint256,uint256,uint256)": {
        "details": "This function is called only by the voting contract once the voting ends",
        "params": {
          "contributionId": "this is the contribution id to which the user has won",
          "recordId": "This is the recordId to which the contribution belongs to",
          "rewardCommunity": "this is the amount of community token that needs to be transferred",
          "rewardGovernance": "this is the amount of Governance token that needs to be transferred",
          "to": "This is the receivers address"
        }
      },
      "transferRewardTokens(uint256,uint256,address)": {
        "details": "this function is responsible for minting of new tokens for records",
        "params": {
          "amount": "the amount that is to be minted",
          "receiver": "Id this is the tokenId that is to minted",
          "tokenId": "Id this is the tokenId that is to minted"
        }
      },
      "uri(uint256)": {
        "details": "See {IERC1155MetadataURI-uri}. This implementation returns the same URI for *all* token types. It relies on the token type ID substitution mechanism https://eips.ethereum.org/EIPS/eip-1155#metadata[defined in the EIP]. Clients calling this function must replace the `\\{id\\}` substring with the actual token type ID."
      }
    },
    "version": 1
  },
  "userdoc": {
    "kind": "user",
    "methods": {},
    "version": 1
  }
}