{
  "contractName": "TreasuryCoreContractMock",
  "abi": [
    {
      "inputs": [
        {
          "internalType": "address",
          "name": "owner",
          "type": "address"
        }
      ],
      "stateMutability": "nonpayable",
      "type": "constructor"
    },
    {
      "anonymous": false,
      "inputs": [
        {
          "indexed": true,
          "internalType": "address",
          "name": "account",
          "type": "address"
        },
        {
          "indexed": true,
          "internalType": "address",
          "name": "operator",
          "type": "address"
        },
        {
          "indexed": false,
          "internalType": "bool",
          "name": "approved",
          "type": "bool"
        }
      ],
      "name": "ApprovalForAll",
      "type": "event"
    },
    {
      "anonymous": false,
      "inputs": [
        {
          "indexed": false,
          "internalType": "address",
          "name": "to",
          "type": "address"
        },
        {
          "indexed": false,
          "internalType": "uint256",
          "name": "recordId",
          "type": "uint256"
        },
        {
          "indexed": false,
          "internalType": "uint256",
          "name": "contributionId",
          "type": "uint256"
        },
        {
          "indexed": false,
          "internalType": "uint256",
          "name": "rewardGovernance",
          "type": "uint256"
        },
        {
          "indexed": false,
          "internalType": "uint256",
          "name": "rewardCommunity",
          "type": "uint256"
        }
      ],
      "name": "ContributionRewardTransferred",
      "type": "event"
    },
    {
      "anonymous": false,
      "inputs": [
        {
          "indexed": false,
          "internalType": "uint8",
          "name": "version",
          "type": "uint8"
        }
      ],
      "name": "Initialized",
      "type": "event"
    },
    {
      "anonymous": false,
      "inputs": [
        {
          "indexed": false,
          "internalType": "uint256",
          "name": "recordId",
          "type": "uint256"
        },
        {
          "indexed": false,
          "internalType": "string",
          "name": "symbol",
          "type": "string"
        },
        {
          "indexed": false,
          "internalType": "string",
          "name": "image",
          "type": "string"
        },
        {
          "indexed": false,
          "internalType": "uint256",
          "name": "creationDate",
          "type": "uint256"
        },
        {
          "indexed": false,
          "internalType": "uint256",
          "name": "tokenAmount",
          "type": "uint256"
        },
        {
          "indexed": false,
          "internalType": "uint256",
          "name": "tokenId",
          "type": "uint256"
        },
        {
          "indexed": false,
          "internalType": "uint8",
          "name": "tokenType",
          "type": "uint8"
        }
      ],
      "name": "NewTokenCreated",
      "type": "event"
    },
    {
      "anonymous": false,
      "inputs": [
        {
          "indexed": false,
          "internalType": "uint256",
          "name": "id",
          "type": "uint256"
        }
      ],
      "name": "Snapshot",
      "type": "event"
    },
    {
      "anonymous": false,
      "inputs": [
        {
          "indexed": false,
          "internalType": "uint256",
          "name": "recordId",
          "type": "uint256"
        },
        {
          "indexed": false,
          "internalType": "uint256",
          "name": "tokenId",
          "type": "uint256"
        },
        {
          "indexed": false,
          "internalType": "uint256",
          "name": "creationDate",
          "type": "uint256"
        },
        {
          "indexed": false,
          "internalType": "uint256",
          "name": "tokenAmount",
          "type": "uint256"
        }
      ],
      "name": "TokenMinted",
      "type": "event"
    },
    {
      "anonymous": false,
      "inputs": [
        {
          "indexed": false,
          "internalType": "address",
          "name": "from",
          "type": "address"
        },
        {
          "indexed": false,
          "internalType": "address",
          "name": "to",
          "type": "address"
        },
        {
          "indexed": false,
          "internalType": "uint256",
          "name": "transferDate",
          "type": "uint256"
        },
        {
          "indexed": false,
          "internalType": "uint256",
          "name": "tokenId",
          "type": "uint256"
        },
        {
          "indexed": false,
          "internalType": "uint256",
          "name": "amount",
          "type": "uint256"
        },
        {
          "indexed": false,
          "internalType": "string",
          "name": "symbol",
          "type": "string"
        }
      ],
      "name": "TokenTransfer",
      "type": "event"
    },
    {
      "anonymous": false,
      "inputs": [
        {
          "indexed": true,
          "internalType": "address",
          "name": "operator",
          "type": "address"
        },
        {
          "indexed": true,
          "internalType": "address",
          "name": "from",
          "type": "address"
        },
        {
          "indexed": true,
          "internalType": "address",
          "name": "to",
          "type": "address"
        },
        {
          "indexed": false,
          "internalType": "uint256[]",
          "name": "ids",
          "type": "uint256[]"
        },
        {
          "indexed": false,
          "internalType": "uint256[]",
          "name": "values",
          "type": "uint256[]"
        }
      ],
      "name": "TransferBatch",
      "type": "event"
    },
    {
      "anonymous": false,
      "inputs": [
        {
          "indexed": true,
          "internalType": "address",
          "name": "operator",
          "type": "address"
        },
        {
          "indexed": true,
          "internalType": "address",
          "name": "from",
          "type": "address"
        },
        {
          "indexed": true,
          "internalType": "address",
          "name": "to",
          "type": "address"
        },
        {
          "indexed": false,
          "internalType": "uint256",
          "name": "id",
          "type": "uint256"
        },
        {
          "indexed": false,
          "internalType": "uint256",
          "name": "value",
          "type": "uint256"
        }
      ],
      "name": "TransferSingle",
      "type": "event"
    },
    {
      "anonymous": false,
      "inputs": [
        {
          "indexed": false,
          "internalType": "string",
          "name": "value",
          "type": "string"
        },
        {
          "indexed": true,
          "internalType": "uint256",
          "name": "id",
          "type": "uint256"
        }
      ],
      "name": "URI",
      "type": "event"
    },
    {
      "inputs": [],
      "name": "CONTROLLER_CONTRACT_ADDRESS",
      "outputs": [
        {
          "internalType": "address",
          "name": "",
          "type": "address"
        }
      ],
      "stateMutability": "view",
      "type": "function"
    },
    {
      "inputs": [],
      "name": "CRD",
      "outputs": [
        {
          "internalType": "uint256",
          "name": "",
          "type": "uint256"
        }
      ],
      "stateMutability": "view",
      "type": "function"
    },
    {
      "inputs": [],
      "name": "OWNER",
      "outputs": [
        {
          "internalType": "address",
          "name": "",
          "type": "address"
        }
      ],
      "stateMutability": "view",
      "type": "function"
    },
    {
      "inputs": [],
      "name": "TREASURY_CONTRACT_ADDRESS",
      "outputs": [
        {
          "internalType": "address",
          "name": "",
          "type": "address"
        }
      ],
      "stateMutability": "view",
      "type": "function"
    },
    {
      "inputs": [],
      "name": "VOTING_HUB_ADDRESS",
      "outputs": [
        {
          "internalType": "address",
          "name": "",
          "type": "address"
        }
      ],
      "stateMutability": "view",
      "type": "function"
    },
    {
      "inputs": [
        {
          "internalType": "address",
          "name": "account",
          "type": "address"
        },
        {
          "internalType": "uint256",
          "name": "id",
          "type": "uint256"
        }
      ],
      "name": "balanceOf",
      "outputs": [
        {
          "internalType": "uint256",
          "name": "",
          "type": "uint256"
        }
      ],
      "stateMutability": "view",
      "type": "function"
    },
    {
      "inputs": [
        {
          "internalType": "address",
          "name": "account",
          "type": "address"
        },
        {
          "internalType": "uint256",
          "name": "snapshotId",
          "type": "uint256"
        },
        {
          "internalType": "uint256",
          "name": "tokenId",
          "type": "uint256"
        }
      ],
      "name": "balanceOfAt",
      "outputs": [
        {
          "internalType": "uint256",
          "name": "",
          "type": "uint256"
        }
      ],
      "stateMutability": "view",
      "type": "function"
    },
    {
      "inputs": [
        {
          "internalType": "address[]",
          "name": "accounts",
          "type": "address[]"
        },
        {
          "internalType": "uint256[]",
          "name": "ids",
          "type": "uint256[]"
        }
      ],
      "name": "balanceOfBatch",
      "outputs": [
        {
          "internalType": "uint256[]",
          "name": "",
          "type": "uint256[]"
        }
      ],
      "stateMutability": "view",
      "type": "function"
    },
    {
      "inputs": [
        {
          "internalType": "uint256",
          "name": "",
          "type": "uint256"
        }
      ],
      "name": "commTokenMapping",
      "outputs": [
        {
          "internalType": "uint256",
          "name": "recordId",
          "type": "uint256"
        },
        {
          "internalType": "string",
          "name": "symbol",
          "type": "string"
        },
        {
          "internalType": "string",
          "name": "image",
          "type": "string"
        },
        {
          "internalType": "uint256",
          "name": "creationDate",
          "type": "uint256"
        },
        {
          "internalType": "bool",
          "name": "isPresent",
          "type": "bool"
        },
        {
          "internalType": "uint256",
          "name": "tokenId",
          "type": "uint256"
        }
      ],
      "stateMutability": "view",
      "type": "function"
    },
    {
      "inputs": [
        {
          "internalType": "string",
          "name": "",
          "type": "string"
        }
      ],
      "name": "commTokenSym",
      "outputs": [
        {
          "internalType": "bool",
          "name": "",
          "type": "bool"
        }
      ],
      "stateMutability": "view",
      "type": "function"
    },
    {
      "inputs": [
        {
          "components": [
            {
              "internalType": "uint256",
              "name": "recordId",
              "type": "uint256"
            },
            {
              "internalType": "uint256",
              "name": "totalSupply",
              "type": "uint256"
            },
            {
              "internalType": "uint256",
              "name": "userBalance",
              "type": "uint256"
            },
            {
              "internalType": "string",
              "name": "symbol",
              "type": "string"
            },
            {
              "internalType": "string",
              "name": "image",
              "type": "string"
            }
          ],
          "internalType": "struct TreasuryCoreContract.NewTokenData",
          "name": "newTokenData",
          "type": "tuple"
        },
        {
          "internalType": "address",
          "name": "userAddress",
          "type": "address"
        }
      ],
      "name": "createNewCommunityToken",
      "outputs": [
        {
          "internalType": "uint256",
          "name": "",
          "type": "uint256"
        }
      ],
      "stateMutability": "nonpayable",
      "type": "function"
    },
    {
      "inputs": [
        {
          "components": [
            {
              "internalType": "uint256",
              "name": "recordId",
              "type": "uint256"
            },
            {
              "internalType": "uint256",
              "name": "totalSupply",
              "type": "uint256"
            },
            {
              "internalType": "uint256",
              "name": "userBalance",
              "type": "uint256"
            },
            {
              "internalType": "string",
              "name": "symbol",
              "type": "string"
            },
            {
              "internalType": "string",
              "name": "image",
              "type": "string"
            }
          ],
          "internalType": "struct TreasuryCoreContract.NewTokenData",
          "name": "newTokenData",
          "type": "tuple"
        },
        {
          "internalType": "address",
          "name": "userAddress",
          "type": "address"
        }
      ],
      "name": "createNewGovernanceToken",
      "outputs": [
        {
          "internalType": "uint256",
          "name": "",
          "type": "uint256"
        }
      ],
      "stateMutability": "nonpayable",
      "type": "function"
    },
    {
      "inputs": [
        {
          "internalType": "uint256",
          "name": "id",
          "type": "uint256"
        }
      ],
      "name": "exists",
      "outputs": [
        {
          "internalType": "bool",
          "name": "",
          "type": "bool"
        }
      ],
      "stateMutability": "view",
      "type": "function"
    },
    {
      "inputs": [
        {
          "internalType": "uint256",
          "name": "",
          "type": "uint256"
        }
      ],
      "name": "govTokenMapping",
      "outputs": [
        {
          "internalType": "uint256",
          "name": "recordId",
          "type": "uint256"
        },
        {
          "internalType": "string",
          "name": "symbol",
          "type": "string"
        },
        {
          "internalType": "string",
          "name": "image",
          "type": "string"
        },
        {
          "internalType": "uint256",
          "name": "creationDate",
          "type": "uint256"
        },
        {
          "internalType": "bool",
          "name": "isPresent",
          "type": "bool"
        },
        {
          "internalType": "uint256",
          "name": "tokenId",
          "type": "uint256"
        }
      ],
      "stateMutability": "view",
      "type": "function"
    },
    {
      "inputs": [
        {
          "internalType": "string",
          "name": "",
          "type": "string"
        }
      ],
      "name": "govTokenSym",
      "outputs": [
        {
          "internalType": "bool",
          "name": "",
          "type": "bool"
        }
      ],
      "stateMutability": "view",
      "type": "function"
    },
    {
      "inputs": [
        {
          "internalType": "address",
          "name": "newVotingHubContract",
          "type": "address"
        },
        {
          "internalType": "address",
          "name": "newTreasuryAddress",
          "type": "address"
        },
        {
          "internalType": "address",
          "name": "crdTokenAddress",
          "type": "address"
        },
        {
          "internalType": "address",
          "name": "controllerContractAddress",
          "type": "address"
        }
      ],
      "name": "initialize",
      "outputs": [],
      "stateMutability": "nonpayable",
      "type": "function"
    },
    {
      "inputs": [
        {
          "internalType": "address",
          "name": "account",
          "type": "address"
        },
        {
          "internalType": "address",
          "name": "operator",
          "type": "address"
        }
      ],
      "name": "isApprovedForAll",
      "outputs": [
        {
          "internalType": "bool",
          "name": "",
          "type": "bool"
        }
      ],
      "stateMutability": "view",
      "type": "function"
    },
    {
      "inputs": [
        {
          "internalType": "string",
          "name": "governanceSymbol",
          "type": "string"
        },
        {
          "internalType": "string",
          "name": "communitySymbol",
          "type": "string"
        }
      ],
      "name": "isSymbolAvailable",
      "outputs": [],
      "stateMutability": "nonpayable",
      "type": "function"
    },
    {
      "inputs": [
        {
          "internalType": "uint256",
          "name": "tokenId",
          "type": "uint256"
        },
        {
          "internalType": "uint256",
          "name": "amount",
          "type": "uint256"
        }
      ],
      "name": "mint",
      "outputs": [],
      "stateMutability": "nonpayable",
      "type": "function"
    },
    {
      "inputs": [
        {
          "internalType": "address",
          "name": "operator",
          "type": "address"
        },
        {
          "internalType": "address",
          "name": "from",
          "type": "address"
        },
        {
          "internalType": "uint256[]",
          "name": "ids",
          "type": "uint256[]"
        },
        {
          "internalType": "uint256[]",
          "name": "values",
          "type": "uint256[]"
        },
        {
          "internalType": "bytes",
          "name": "data",
          "type": "bytes"
        }
      ],
      "name": "onERC1155BatchReceived",
      "outputs": [
        {
          "internalType": "bytes4",
          "name": "",
          "type": "bytes4"
        }
      ],
      "stateMutability": "nonpayable",
      "type": "function"
    },
    {
      "inputs": [
        {
          "internalType": "address",
          "name": "operator",
          "type": "address"
        },
        {
          "internalType": "address",
          "name": "from",
          "type": "address"
        },
        {
          "internalType": "uint256",
          "name": "id",
          "type": "uint256"
        },
        {
          "internalType": "uint256",
          "name": "value",
          "type": "uint256"
        },
        {
          "internalType": "bytes",
          "name": "data",
          "type": "bytes"
        }
      ],
      "name": "onERC1155Received",
      "outputs": [
        {
          "internalType": "bytes4",
          "name": "",
          "type": "bytes4"
        }
      ],
      "stateMutability": "nonpayable",
      "type": "function"
    },
    {
      "inputs": [
        {
          "internalType": "address",
          "name": "from",
          "type": "address"
        },
        {
          "internalType": "address",
          "name": "to",
          "type": "address"
        },
        {
          "internalType": "uint256[]",
          "name": "ids",
          "type": "uint256[]"
        },
        {
          "internalType": "uint256[]",
          "name": "amounts",
          "type": "uint256[]"
        },
        {
          "internalType": "bytes",
          "name": "data",
          "type": "bytes"
        }
      ],
      "name": "safeBatchTransferFrom",
      "outputs": [],
      "stateMutability": "nonpayable",
      "type": "function"
    },
    {
      "inputs": [
        {
          "internalType": "address",
          "name": "from",
          "type": "address"
        },
        {
          "internalType": "address",
          "name": "to",
          "type": "address"
        },
        {
          "internalType": "uint256",
          "name": "id",
          "type": "uint256"
        },
        {
          "internalType": "uint256",
          "name": "amount",
          "type": "uint256"
        },
        {
          "internalType": "bytes",
          "name": "data",
          "type": "bytes"
        }
      ],
      "name": "safeTransferFrom",
      "outputs": [],
      "stateMutability": "nonpayable",
      "type": "function"
    },
    {
      "inputs": [
        {
          "internalType": "address",
          "name": "operator",
          "type": "address"
        },
        {
          "internalType": "bool",
          "name": "approved",
          "type": "bool"
        }
      ],
      "name": "setApprovalForAll",
      "outputs": [],
      "stateMutability": "nonpayable",
      "type": "function"
    },
    {
      "inputs": [
        {
          "internalType": "string",
          "name": "governanceSymbol",
          "type": "string"
        },
        {
          "internalType": "string",
          "name": "communitySymbol",
          "type": "string"
        }
      ],
      "name": "setSymbolsAsAvailable",
      "outputs": [],
      "stateMutability": "nonpayable",
      "type": "function"
    },
    {
      "inputs": [
        {
          "internalType": "string",
          "name": "governanceSymbol",
          "type": "string"
        },
        {
          "internalType": "string",
          "name": "communitySymbol",
          "type": "string"
        }
      ],
      "name": "setSymbolsAsUsed",
      "outputs": [],
      "stateMutability": "nonpayable",
      "type": "function"
    },
    {
      "inputs": [],
      "name": "snapshot",
      "outputs": [
        {
          "internalType": "uint256",
          "name": "snapshotId",
          "type": "uint256"
        }
      ],
      "stateMutability": "nonpayable",
      "type": "function"
    },
    {
      "inputs": [
        {
          "internalType": "bytes4",
          "name": "interfaceId",
          "type": "bytes4"
        }
      ],
      "name": "supportsInterface",
      "outputs": [
        {
          "internalType": "bool",
          "name": "",
          "type": "bool"
        }
      ],
      "stateMutability": "view",
      "type": "function"
    },
    {
      "inputs": [
        {
          "internalType": "uint256",
          "name": "id",
          "type": "uint256"
        }
      ],
      "name": "totalSupply",
      "outputs": [
        {
          "internalType": "uint256",
          "name": "",
          "type": "uint256"
        }
      ],
      "stateMutability": "view",
      "type": "function"
    },
    {
      "inputs": [
        {
          "internalType": "uint256",
          "name": "snapshotId",
          "type": "uint256"
        },
        {
          "internalType": "uint256",
          "name": "tokenId",
          "type": "uint256"
        }
      ],
      "name": "totalSupplyAt",
      "outputs": [
        {
          "internalType": "uint256",
          "name": "",
          "type": "uint256"
        }
      ],
      "stateMutability": "view",
      "type": "function"
    },
    {
      "inputs": [
        {
          "internalType": "address",
          "name": "to",
          "type": "address"
        },
        {
          "internalType": "uint256",
          "name": "recordId",
          "type": "uint256"
        },
        {
          "internalType": "uint256",
          "name": "contributionId",
          "type": "uint256"
        },
        {
          "internalType": "uint256",
          "name": "rewardGovernance",
          "type": "uint256"
        },
        {
          "internalType": "uint256",
          "name": "rewardCommunity",
          "type": "uint256"
        }
      ],
      "name": "transferRewardAmount",
      "outputs": [],
      "stateMutability": "nonpayable",
      "type": "function"
    },
    {
      "inputs": [
        {
          "internalType": "uint256",
          "name": "tokenId",
          "type": "uint256"
        },
        {
          "internalType": "uint256",
          "name": "amount",
          "type": "uint256"
        },
        {
          "internalType": "address",
          "name": "receiver",
          "type": "address"
        }
      ],
      "name": "transferRewardTokens",
      "outputs": [],
      "stateMutability": "nonpayable",
      "type": "function"
    },
    {
      "inputs": [
        {
          "internalType": "uint256",
          "name": "",
          "type": "uint256"
        }
      ],
      "name": "uri",
      "outputs": [
        {
          "internalType": "string",
          "name": "",
          "type": "string"
        }
      ],
      "stateMutability": "view",
      "type": "function"
    },
    {
      "inputs": [
        {
          "internalType": "uint256",
          "name": "tokenId",
          "type": "uint256"
        },
        {
          "internalType": "uint256",
          "name": "tokenAmount",
          "type": "uint256"
        }
      ],
      "name": "mintTokens",
      "outputs": [],
      "stateMutability": "nonpayable",
      "type": "function"
    },
    {
      "inputs": [
        {
          "internalType": "uint256",
          "name": "recordId",
          "type": "uint256"
        },
        {
          "internalType": "uint256",
          "name": "tokenId",
          "type": "uint256"
        },
        {
          "internalType": "uint256",
          "name": "tokenAmount",
          "type": "uint256"
        }
      ],
      "name": "mintTokens",
      "outputs": [],
      "stateMutability": "nonpayable",
      "type": "function"
    },
    {
      "inputs": [
        {
          "internalType": "uint256",
          "name": "tokenId",
          "type": "uint256"
        },
        {
          "internalType": "uint256",
          "name": "tokenAmount",
          "type": "uint256"
        }
      ],
      "name": "mintTokensForMe",
      "outputs": [],
      "stateMutability": "nonpayable",
      "type": "function"
    }
  ],
  "bytecode": "0x600160085560c06040526005608081905264435244475f60d81b60a09081526200002d91600d91906200011d565b50604080518082019091526004808252634352445f60e01b60209092019182526200005b91600e916200011d565b50600f805461ffff19166101001790553480156200007857600080fd5b5060405162004849380380620048498339810160408190526200009b91620001c3565b60408051808201909152601d81527f68747470733a2f2f63726f77647265636f7264732e636f6d2f7b69647d00000060208201528190620000dc8162000104565b50600c80546001600160a01b0319166001600160a01b03929092169190911790555062000232565b8051620001199060029060208401906200011d565b5050565b8280546200012b90620001f5565b90600052602060002090601f0160209004810192826200014f57600085556200019a565b82601f106200016a57805160ff19168380011785556200019a565b828001600101855582156200019a579182015b828111156200019a5782518255916020019190600101906200017d565b50620001a8929150620001ac565b5090565b5b80821115620001a85760008155600101620001ad565b600060208284031215620001d657600080fd5b81516001600160a01b0381168114620001ee57600080fd5b9392505050565b600181811c908216806200020a57607f821691505b602082108114156200022c57634e487b7160e01b600052602260045260246000fd5b50919050565b61460780620002426000396000f3fe608060405234801561001057600080fd5b506004361061025b5760003560e01c80638958a5de11610145578063bd85b039116100bd578063ef890f7c1161008c578063f242432a11610071578063f242432a1461066e578063f8c8765e14610681578063ff669dfb1461069457600080fd5b8063ef890f7c14610622578063f23a6e611461063557600080fd5b8063bd85b0391461059e578063e10fa0b2146105be578063e6acd9b8146105d1578063e985e9c5146105d957600080fd5b80639b6a6f0d11610114578063acb31493116100f9578063acb31493146104ff578063af94e4a91461051f578063bc197c811461053257600080fd5b80639b6a6f0d146104cc578063a22cb465146104ec57600080fd5b80638958a5de146104705780638aa7a8b01461049e5780638fbf353f146104b15780639711715a146104c457600080fd5b80634e1273f4116101d8578063626da068116101a75780636e470f921161018c5780636e470f92146104255780638388f41314610438578063884c8ffe1461044b57600080fd5b8063626da068146103ff5780636c45f2f61461041257600080fd5b80634e1273f4146103975780634f558e79146103b75780635f938ad2146103d957806361cbc357146103ec57600080fd5b80631644e0ff1161022f5780632eb2c2d6116102145780632eb2c2d61461035157806334a7c2e714610364578063368680491461037757600080fd5b80631644e0ff1461030e5780631b2ef1ca1461033c57600080fd5b8062fdd58e1461026057806301ffc9a7146102865780630e89341c146102a9578063117803e3146102c9575b600080fd5b61027361026e3660046136ee565b6106a7565b6040519081526020015b60405180910390f35b610299610294366004613749565b610764565b604051901515815260200161027d565b6102bc6102b7366004613766565b610847565b60405161027d91906137f9565b600c546102e99073ffffffffffffffffffffffffffffffffffffffff1681565b60405173ffffffffffffffffffffffffffffffffffffffff909116815260200161027d565b61029961031c36600461393e565b805160208183018101805160128252928201919093012091525460ff1681565b61034f61034a36600461397b565b6108db565b005b61034f61035f366004613a32565b6109cc565b61034f61037236600461397b565b610a95565b6009546102e99073ffffffffffffffffffffffffffffffffffffffff1681565b6103aa6103a5366004613adc565b610ab9565b60405161027d9190613be2565b6102996103c5366004613766565b600090815260036020526040902054151590565b61034f6103e7366004613bf5565b610c11565b61034f6103fa366004613bf5565b610d5c565b61027361040d366004613c4f565b610e65565b61034f610420366004613bf5565b610ec8565b61034f61043336600461397b565b611083565b61034f610446366004613c82565b6110a7565b61045e610459366004613766565b611237565b60405161027d96959493929190613cc4565b61029961047e36600461393e565b805160208183018101805160138252928201919093012091525460ff1681565b6102736104ac36600461397b565b611382565b61034f6104bf366004613d0e565b6113c7565b610273611613565b600b546102e99073ffffffffffffffffffffffffffffffffffffffff1681565b61034f6104fa366004613d3a565b6116cb565b600a546102e99073ffffffffffffffffffffffffffffffffffffffff1681565b61045e61052d366004613766565b6116d6565b61056d610540366004613dfd565b7fbc197c819b3e337a6f9652dd10becd7eef83032af3b9d958d3d42f669414662198975050505050505050565b6040517fffffffff00000000000000000000000000000000000000000000000000000000909116815260200161027d565b6102736105ac366004613766565b60009081526003602052604090205490565b6102736105cc366004613eb8565b6116f8565b610273600181565b6102996105e7366004613f7d565b73ffffffffffffffffffffffffffffffffffffffff918216600090815260016020908152604080832093909416825291909152205460ff1690565b61034f610630366004613fa7565b611956565b61056d610643366004613fdc565b7ff23a6e612e1ff4830e658fe43f4e3cb4a5f8170bd5d9e69fb5d7a7fa9e4fdf979695505050505050565b61034f61067c366004614054565b611a50565b61034f61068f3660046140b9565b611b12565b6102736106a2366004613eb8565b611dd2565b6000600182141561075457600f546040517f70a0823100000000000000000000000000000000000000000000000000000000815273ffffffffffffffffffffffffffffffffffffffff858116600483015262010000909204909116906370a0823190602401602060405180830381865afa158015610729573d6000803e3d6000fd5b505050506040513d601f19601f8201168201806040525081019061074d919061410d565b905061075e565b61074d8383611fbb565b92915050565b60007fffffffff0000000000000000000000000000000000000000000000000000000082167fd9b67a260000000000000000000000000000000000000000000000000000000014806107f757507fffffffff0000000000000000000000000000000000000000000000000000000082167f0e89341c00000000000000000000000000000000000000000000000000000000145b8061075e57507f01ffc9a7000000000000000000000000000000000000000000000000000000007fffffffff0000000000000000000000000000000000000000000000000000000083161461075e565b60606002805461085690614126565b80601f016020809104026020016040519081016040528092919081815260200182805461088290614126565b80156108cf5780601f106108a4576101008083540402835291602001916108cf565b820191906000526020600020905b8154815290600101906020018083116108b257829003601f168201915b50505050509050919050565b600a5473ffffffffffffffffffffffffffffffffffffffff163314610987576040517f08c379a000000000000000000000000000000000000000000000000000000000815260206004820152602360248201527f554e415554484f52495a45443a2043414e4e4f545f504552464f524d5f41435460448201527f494f4e000000000000000000000000000000000000000000000000000000000060648201526084015b60405180910390fd5b6109c83083836040518060400160405280601181526020017f4e657720746f6b656e73206d696e746564000000000000000000000000000000815250612093565b5050565b73ffffffffffffffffffffffffffffffffffffffff85163314806109f557506109f585336105e7565b610a81576040517f08c379a000000000000000000000000000000000000000000000000000000000815260206004820152603260248201527f455243313135353a207472616e736665722063616c6c6572206973206e6f742060448201527f6f776e6572206e6f7220617070726f7665640000000000000000000000000000606482015260840161097e565b610a8e8585858585612200565b5050505050565b6109c83083836040518060600160405280602381526020016145af60239139612093565b60608151835114610b4c576040517f08c379a000000000000000000000000000000000000000000000000000000000815260206004820152602960248201527f455243313135353a206163636f756e747320616e6420696473206c656e67746860448201527f206d69736d617463680000000000000000000000000000000000000000000000606482015260840161097e565b6000835167ffffffffffffffff811115610b6857610b6861380c565b604051908082528060200260200182016040528015610b91578160200160208202803683370190505b50905060005b8451811015610c0957610bdc858281518110610bb557610bb561417a565b6020026020010151858381518110610bcf57610bcf61417a565b60200260200101516106a7565b828281518110610bee57610bee61417a565b6020908102919091010152610c02816141d8565b9050610b97565b509392505050565b600a5473ffffffffffffffffffffffffffffffffffffffff163314610cb8576040517f08c379a000000000000000000000000000000000000000000000000000000000815260206004820152602360248201527f554e415554484f52495a45443a2043414e4e4f545f504552464f524d5f41435460448201527f494f4e0000000000000000000000000000000000000000000000000000000000606482015260840161097e565b6000601382604051610cca9190614211565b90815260405190819003602001812080549215157fffffffffffffffffffffffffffffffffffffffffffffffffffffffffffffff0090931692909217909155600090601290610d1a908590614211565b90815260405190819003602001902080549115157fffffffffffffffffffffffffffffffffffffffffffffffffffffffffffffff009092169190911790555050565b600a5473ffffffffffffffffffffffffffffffffffffffff163314610e03576040517f08c379a000000000000000000000000000000000000000000000000000000000815260206004820152602360248201527f554e415554484f52495a45443a2043414e4e4f545f504552464f524d5f41435460448201527f494f4e0000000000000000000000000000000000000000000000000000000000606482015260840161097e565b6001601382604051610e159190614211565b90815260405190819003602001812080549215157fffffffffffffffffffffffffffffffffffffffffffffffffffffffffffffff0090931692909217909155600190601290610d1a908590614211565b73ffffffffffffffffffffffffffffffffffffffff83166000908152600460209081526040808320848452909152812081908190610ea4908690612548565b9150915081610ebc57610eb786856106a7565b610ebe565b805b9695505050505050565b600a5473ffffffffffffffffffffffffffffffffffffffff163314610f6f576040517f08c379a000000000000000000000000000000000000000000000000000000000815260206004820152602360248201527f554e415554484f52495a45443a2043414e4e4f545f504552464f524d5f41435460448201527f494f4e0000000000000000000000000000000000000000000000000000000000606482015260840161097e565b601381604051610f7f9190614211565b9081526040519081900360200190205460ff1615610ff9576040517f08c379a000000000000000000000000000000000000000000000000000000000815260206004820152600e60248201527f53594d424f4c5f435f54414b454e000000000000000000000000000000000000604482015260640161097e565b6012826040516110099190614211565b9081526040519081900360200190205460ff16156109c8576040517f08c379a000000000000000000000000000000000000000000000000000000000815260206004820152600e60248201527f53594d424f4c5f475f54414b454e000000000000000000000000000000000000604482015260640161097e565b6109c83383836040518060600160405280602381526020016145af60239139612093565b600a5473ffffffffffffffffffffffffffffffffffffffff16331461114e576040517f08c379a000000000000000000000000000000000000000000000000000000000815260206004820152602360248201527f554e415554484f52495a45443a2043414e4e4f545f504552464f524d5f41435460448201527f494f4e0000000000000000000000000000000000000000000000000000000000606482015260840161097e565b61115a3033600161267a565b811561119257611192308660106000888152602001908152602001600020600501548560405180602001604052806000815250611a50565b80156111ca576111ca308660116000888152602001908152602001600020600501548460405180602001604052806000815250611a50565b6040805173ffffffffffffffffffffffffffffffffffffffff871681526020810186905290810184905260608101839052608081018290527fe0357d4bc70490bf81b58d93d7d3a12a646c486a071200201fd882cdf74c88d99060a0015b60405180910390a15050505050565b6010602052600090815260409020805460018201805491929161125990614126565b80601f016020809104026020016040519081016040528092919081815260200182805461128590614126565b80156112d25780601f106112a7576101008083540402835291602001916112d2565b820191906000526020600020905b8154815290600101906020018083116112b557829003601f168201915b5050505050908060020180546112e790614126565b80601f016020809104026020016040519081016040528092919081815260200182805461131390614126565b80156113605780601f1061133557610100808354040283529160200191611360565b820191906000526020600020905b81548152906001019060200180831161134357829003601f168201915b50505050600383015460048401546005909401549293909260ff909116915086565b60008181526005602052604081208190819061139f908690612548565b91509150816113bc576000848152600360205260409020546113be565b805b95945050505050565b600a5473ffffffffffffffffffffffffffffffffffffffff16331461146e576040517f08c379a000000000000000000000000000000000000000000000000000000000815260206004820152602360248201527f554e415554484f52495a45443a2043414e4e4f545f504552464f524d5f41435460448201527f494f4e0000000000000000000000000000000000000000000000000000000000606482015260840161097e565b60008381526011602052604090206004015460ff161515600114806114a9575060008381526010602052604090206004015460ff1615156001145b61150f576040517f08c379a000000000000000000000000000000000000000000000000000000000815260206004820152601860248201527f494e56414c49443a2057524f4e475f5245434f52445f49440000000000000000604482015260640161097e565b60008381526011602052604090206005015482148061153e575060008381526010602052604090206005015482145b6115a4576040517f08c379a000000000000000000000000000000000000000000000000000000000815260206004820152601760248201527f494e56414c49443a2057524f4e475f544f4b454e5f4944000000000000000000604482015260640161097e565b6115c83083836040518060600160405280602381526020016145af60239139612093565b604080518481526020810184905242818301526060810183905290517f81e0b881b9c6ff93955a4a996cc01472b2cdc1a1663af072fa5ca7db7f127de29181900360800190a1505050565b600a5460009073ffffffffffffffffffffffffffffffffffffffff1633146116bd576040517f08c379a000000000000000000000000000000000000000000000000000000000815260206004820152602360248201527f554e415554484f52495a45443a2043414e4e4f545f504552464f524d5f41435460448201527f494f4e0000000000000000000000000000000000000000000000000000000000606482015260840161097e565b6116c56127ce565b90505b90565b6109c833838361267a565b6011602052600090815260409020805460018201805491929161125990614126565b600a5460009073ffffffffffffffffffffffffffffffffffffffff163314806117385750600b5473ffffffffffffffffffffffffffffffffffffffff1633145b6117c4576040517f08c379a000000000000000000000000000000000000000000000000000000000815260206004820152602360248201527f554e415554484f52495a45443a2043414e4e4f545f504552464f524d5f41435460448201527f494f4e0000000000000000000000000000000000000000000000000000000000606482015260840161097e565b6001601284606001516040516117da9190614211565b9081526040516020918190038201812080547fffffffffffffffffffffffffffffffffffffffffffffffffffffffffffffff00169315159390931790925560009161182891600d910161422d565b6040516020818303038152906040529050808460600151604051602001611850929190614300565b604080517fffffffffffffffffffffffffffffffffffffffffffffffffffffffffffffffe081840301815291905260608501525060088054906000611894836141d8565b9091555050600854600f546118b59085908390610100900460ff1686612828565b845160009081526010602090815260409091208251815582820151805191926118e692600185019290910190613631565b5060408201518051611902916002840191602090910190613631565b506060820151600382015560808201516004820180547fffffffffffffffffffffffffffffffffffffffffffffffffffffffffffffff001691151591909117905560a0909101516005909101559392505050565b600a5473ffffffffffffffffffffffffffffffffffffffff1633146119fd576040517f08c379a000000000000000000000000000000000000000000000000000000000815260206004820152602360248201527f554e415554484f52495a45443a2043414e4e4f545f504552464f524d5f41435460448201527f494f4e0000000000000000000000000000000000000000000000000000000000606482015260840161097e565b611a093033600161267a565b611a4b308285856040518060400160405280601581526020017f5245434f52445f544f4b454e5f5452414e534645520000000000000000000000815250611a50565b505050565b73ffffffffffffffffffffffffffffffffffffffff8516331480611a795750611a7985336105e7565b611b05576040517f08c379a000000000000000000000000000000000000000000000000000000000815260206004820152602960248201527f455243313135353a2063616c6c6572206973206e6f74206f776e6572206e6f7260448201527f20617070726f7665640000000000000000000000000000000000000000000000606482015260840161097e565b610a8e858585858561294f565b600754610100900460ff1615808015611b325750600754600160ff909116105b80611b4c5750303b158015611b4c575060075460ff166001145b611bd8576040517f08c379a000000000000000000000000000000000000000000000000000000000815260206004820152602e60248201527f496e697469616c697a61626c653a20636f6e747261637420697320616c72656160448201527f647920696e697469616c697a6564000000000000000000000000000000000000606482015260840161097e565b600780547fffffffffffffffffffffffffffffffffffffffffffffffffffffffffffffff001660011790558015611c3657600780547fffffffffffffffffffffffffffffffffffffffffffffffffffffffffffff00ff166101001790555b600c5473ffffffffffffffffffffffffffffffffffffffff163314611cdd576040517f08c379a000000000000000000000000000000000000000000000000000000000815260206004820152602360248201527f554e415554484f52495a45443a2043414e4e4f545f504552464f524d5f41435460448201527f494f4e0000000000000000000000000000000000000000000000000000000000606482015260840161097e565b6009805473ffffffffffffffffffffffffffffffffffffffff8088167fffffffffffffffffffffffff000000000000000000000000000000000000000092831617909255600a8054878416908316179055600b80548584169216919091179055600f805491851662010000027fffffffffffffffffffff0000000000000000000000000000000000000000ffff9092169190911790558015610a8e57600780547fffffffffffffffffffffffffffffffffffffffffffffffffffffffffffff00ff169055604051600181527f7f26b83ff96e1f2b6a682f133852f6798a09c465da95921460cefb384740249890602001611228565b600a5460009073ffffffffffffffffffffffffffffffffffffffff16331480611e125750600b5473ffffffffffffffffffffffffffffffffffffffff1633145b611e9e576040517f08c379a000000000000000000000000000000000000000000000000000000000815260206004820152602360248201527f554e415554484f52495a45443a2043414e4e4f545f504552464f524d5f41435460448201527f494f4e0000000000000000000000000000000000000000000000000000000000606482015260840161097e565b600160138460600151604051611eb49190614211565b9081526040516020918190038201812080547fffffffffffffffffffffffffffffffffffffffffffffffffffffffffffffff001693151593909317909255600091611f0291600e910161422d565b6040516020818303038152906040529050808460600151604051602001611f2a929190614300565b604080517fffffffffffffffffffffffffffffffffffffffffffffffffffffffffffffffe081840301815291905260608501525060088054906000611f6e836141d8565b9091555050600854600f54611f8a908590839060ff1686612828565b845160009081526011602090815260409091208251815582820151805191926118e692600185019290910190613631565b600073ffffffffffffffffffffffffffffffffffffffff8316612060576040517f08c379a000000000000000000000000000000000000000000000000000000000815260206004820152602b60248201527f455243313135353a2062616c616e636520717565727920666f7220746865207a60448201527f65726f2061646472657373000000000000000000000000000000000000000000606482015260840161097e565b5060009081526020818152604080832073ffffffffffffffffffffffffffffffffffffffff949094168352929052205490565b73ffffffffffffffffffffffffffffffffffffffff8416612136576040517f08c379a000000000000000000000000000000000000000000000000000000000815260206004820152602160248201527f455243313135353a206d696e7420746f20746865207a65726f2061646472657360448201527f7300000000000000000000000000000000000000000000000000000000000000606482015260840161097e565b336121568160008761214788612a05565b61215088612a05565b87612a50565b60008481526020818152604080832073ffffffffffffffffffffffffffffffffffffffff891684529091528120805485929061219390849061432f565b9091555050604080518581526020810185905273ffffffffffffffffffffffffffffffffffffffff80881692600092918516917fc3d58168c5ae7397731d063d5bbf3d657854427343f4c083240f7aacaa2d0f62910160405180910390a4610a8e81600087878787612b9d565b8151835114612291576040517f08c379a000000000000000000000000000000000000000000000000000000000815260206004820152602860248201527f455243313135353a2069647320616e6420616d6f756e7473206c656e6774682060448201527f6d69736d61746368000000000000000000000000000000000000000000000000606482015260840161097e565b73ffffffffffffffffffffffffffffffffffffffff8416612334576040517f08c379a000000000000000000000000000000000000000000000000000000000815260206004820152602560248201527f455243313135353a207472616e7366657220746f20746865207a65726f20616460448201527f6472657373000000000000000000000000000000000000000000000000000000606482015260840161097e565b33612343818787878787612a50565b60005b84518110156124b35760008582815181106123635761236361417a565b6020026020010151905060008583815181106123815761238161417a565b6020908102919091018101516000848152808352604080822073ffffffffffffffffffffffffffffffffffffffff8e16835290935291909120549091508181101561244e576040517f08c379a000000000000000000000000000000000000000000000000000000000815260206004820152602a60248201527f455243313135353a20696e73756666696369656e742062616c616e636520666f60448201527f72207472616e7366657200000000000000000000000000000000000000000000606482015260840161097e565b60008381526020818152604080832073ffffffffffffffffffffffffffffffffffffffff8e8116855292528083208585039055908b1682528120805484929061249890849061432f565b92505081905550505050806124ac906141d8565b9050612346565b508473ffffffffffffffffffffffffffffffffffffffff168673ffffffffffffffffffffffffffffffffffffffff168273ffffffffffffffffffffffffffffffffffffffff167f4a39dc06d4c0dbc64b70af90fd698a233a518aa5d07e595d983b8c0526c8f7fb878760405161252a929190614347565b60405180910390a4612540818787878787612e31565b505050505050565b600080600084116125b5576040517f08c379a000000000000000000000000000000000000000000000000000000000815260206004820152601660248201527f4552433230536e617073686f743a206964206973203000000000000000000000604482015260640161097e565b6125bd612fde565b841115612626576040517f08c379a000000000000000000000000000000000000000000000000000000000815260206004820152601d60248201527f4552433230536e617073686f743a206e6f6e6578697374656e74206964000000604482015260640161097e565b60006126328486612fe9565b845490915081141561264b576000809250925050612673565b60018460010182815481106126625761266261417a565b906000526020600020015492509250505b9250929050565b8173ffffffffffffffffffffffffffffffffffffffff168373ffffffffffffffffffffffffffffffffffffffff161415612736576040517f08c379a000000000000000000000000000000000000000000000000000000000815260206004820152602960248201527f455243313135353a2073657474696e6720617070726f76616c2073746174757360448201527f20666f722073656c660000000000000000000000000000000000000000000000606482015260840161097e565b73ffffffffffffffffffffffffffffffffffffffff83811660008181526001602090815260408083209487168084529482529182902080547fffffffffffffffffffffffffffffffffffffffffffffffffffffffffffffff001686151590811790915591519182527f17307eab39ab6107e8899845ad3d59bd9653f200f220920489ca2b5937696c31910160405180910390a3505050565b60006127de600680546001019055565b60006127e8612fde565b90507f8030e83b04d87bef53480e26263266d6ca66863aa8506aca6f2559d18aa1cb678160405161281b91815260200190565b60405180910390a1919050565b6128636040518060c0016040528060008152602001606081526020016060815260200160008152602001600015158152602001600081525090565b600085604001518660200151612879919061436c565b905060008660400151905061289f30878460405180602001604052806000815250612093565b6128ba84878360405180602001604052806000815250612093565b6040805160c081018252885181526060808a0180516020808501919091526080808d018051868801524294860185905260019186019190915260a085018c90528c5192519051918d0151955194957f49debfc18817e7e3ec2948391bcc3a87349b3c716f7d470d223bfbf8928aa65a9561293c9592939291908e908e90614383565b60405180910390a1979650505050505050565b60018314156129f857600f546040517f42842e0e00000000000000000000000000000000000000000000000000000000815273ffffffffffffffffffffffffffffffffffffffff878116600483015286811660248301526044820185905262010000909204909116906342842e0e90606401600060405180830381600087803b1580156129db57600080fd5b505af11580156129ef573d6000803e3d6000fd5b50505050610a8e565b610a8e85858585856130ac565b60408051600180825281830190925260609160009190602080830190803683370190505090508281600081518110612a3f57612a3f61417a565b602090810291909101015292915050565b60095473ffffffffffffffffffffffffffffffffffffffff1615612b8f5760095473ffffffffffffffffffffffffffffffffffffffff1660005b8451811015612b8c578173ffffffffffffffffffffffffffffffffffffffff16631de841ba8888878581518110612ac357612ac361417a565b6020026020010151898681518110612add57612add61417a565b60209081029190910101516040517fffffffff0000000000000000000000000000000000000000000000000000000060e087901b16815273ffffffffffffffffffffffffffffffffffffffff948516600482015293909216602484015260448301526064820152608401600060405180830381600087803b158015612b6157600080fd5b505af1158015612b75573d6000803e3d6000fd5b505050508080612b84906141d8565b915050612a8a565b50505b6125408686868686866132d4565b73ffffffffffffffffffffffffffffffffffffffff84163b15612540576040517ff23a6e6100000000000000000000000000000000000000000000000000000000815273ffffffffffffffffffffffffffffffffffffffff85169063f23a6e6190612c1490899089908890889088906004016143d8565b6020604051808303816000875af1925050508015612c6d575060408051601f3d9081017fffffffffffffffffffffffffffffffffffffffffffffffffffffffffffffffe0168201909252612c6a91810190614428565b60015b612d5757612c79614445565b806308c379a01415612ccd5750612c8e614460565b80612c995750612ccf565b806040517f08c379a000000000000000000000000000000000000000000000000000000000815260040161097e91906137f9565b505b6040517f08c379a000000000000000000000000000000000000000000000000000000000815260206004820152603460248201527f455243313135353a207472616e7366657220746f206e6f6e204552433131353560448201527f526563656976657220696d706c656d656e746572000000000000000000000000606482015260840161097e565b7fffffffff0000000000000000000000000000000000000000000000000000000081167ff23a6e610000000000000000000000000000000000000000000000000000000014612e28576040517f08c379a000000000000000000000000000000000000000000000000000000000815260206004820152602860248201527f455243313135353a204552433131353552656365697665722072656a6563746560448201527f6420746f6b656e73000000000000000000000000000000000000000000000000606482015260840161097e565b50505050505050565b73ffffffffffffffffffffffffffffffffffffffff84163b15612540576040517fbc197c8100000000000000000000000000000000000000000000000000000000815273ffffffffffffffffffffffffffffffffffffffff85169063bc197c8190612ea89089908990889088908890600401614508565b6020604051808303816000875af1925050508015612f01575060408051601f3d9081017fffffffffffffffffffffffffffffffffffffffffffffffffffffffffffffffe0168201909252612efe91810190614428565b60015b612f0d57612c79614445565b7fffffffff0000000000000000000000000000000000000000000000000000000081167fbc197c810000000000000000000000000000000000000000000000000000000014612e28576040517f08c379a000000000000000000000000000000000000000000000000000000000815260206004820152602860248201527f455243313135353a204552433131353552656365697665722072656a6563746560448201527f6420746f6b656e73000000000000000000000000000000000000000000000000606482015260840161097e565b60006116c560065490565b8154600090612ffa5750600061075e565b82546000905b80821015613056576000613014838361334e565b9050848682815481106130295761302961417a565b9060005260206000200154111561304257809150613050565b61304d81600161432f565b92505b50613000565b60008211801561308b5750838561306e60018561436c565b8154811061307e5761307e61417a565b9060005260206000200154145b156130a45761309b60018361436c565b9250505061075e565b50905061075e565b73ffffffffffffffffffffffffffffffffffffffff841661314f576040517f08c379a000000000000000000000000000000000000000000000000000000000815260206004820152602560248201527f455243313135353a207472616e7366657220746f20746865207a65726f20616460448201527f6472657373000000000000000000000000000000000000000000000000000000606482015260840161097e565b3361315f81878761214788612a05565b60008481526020818152604080832073ffffffffffffffffffffffffffffffffffffffff8a1684529091529020548381101561321d576040517f08c379a000000000000000000000000000000000000000000000000000000000815260206004820152602a60248201527f455243313135353a20696e73756666696369656e742062616c616e636520666f60448201527f72207472616e7366657200000000000000000000000000000000000000000000606482015260840161097e565b60008581526020818152604080832073ffffffffffffffffffffffffffffffffffffffff8b811685529252808320878503905590881682528120805486929061326790849061432f565b9091555050604080518681526020810186905273ffffffffffffffffffffffffffffffffffffffff808916928a821692918616917fc3d58168c5ae7397731d063d5bbf3d657854427343f4c083240f7aacaa2d0f62910160405180910390a4612e28828888888888612b9d565b73ffffffffffffffffffffffffffffffffffffffff8516613307576132f98484613370565b613302836133fd565b613340565b73ffffffffffffffffffffffffffffffffffffffff841661332c576132f98584613370565b6133368584613370565b6133408484613370565b612540868686868686613479565b600061335d6002848418614573565b6133699084841661432f565b9392505050565b60005b8151811015611a4b5773ffffffffffffffffffffffffffffffffffffffff8316600090815260046020526040812083516133eb92908590859081106133ba576133ba61417a565b602002602001015181526020019081526020016000206133e685858581518110610bcf57610bcf61417a565b61359f565b806133f5816141d8565b915050613373565b60005b81518110156109c857613467600560008484815181106134225761342261417a565b602002602001015181526020019081526020016000206133e684848151811061344d5761344d61417a565b602002602001015160009081526003602052604090205490565b80613471816141d8565b915050613400565b73ffffffffffffffffffffffffffffffffffffffff851661350d5760005b835181101561350b578281815181106134b2576134b261417a565b6020026020010151600360008684815181106134d0576134d061417a565b6020026020010151815260200190815260200160002060008282546134f5919061432f565b909155506135049050816141d8565b9050613497565b505b73ffffffffffffffffffffffffffffffffffffffff84166125405760005b8351811015612e28578281815181106135465761354661417a565b6020026020010151600360008684815181106135645761356461417a565b602002602001015181526020019081526020016000206000828254613589919061436c565b909155506135989050816141d8565b905061352b565b60006135a9612fde565b9050806135b5846135e9565b1015611a4b578254600180820185556000858152602080822090930193909355938401805494850181558252902090910155565b80546000906135fa57506000919050565b8154829061360a9060019061436c565b8154811061361a5761361a61417a565b90600052602060002001549050919050565b919050565b82805461363d90614126565b90600052602060002090601f01602090048101928261365f57600085556136a5565b82601f1061367857805160ff19168380011785556136a5565b828001600101855582156136a5579182015b828111156136a557825182559160200191906001019061368a565b506136b19291506136b5565b5090565b5b808211156136b157600081556001016136b6565b803573ffffffffffffffffffffffffffffffffffffffff8116811461362c57600080fd5b6000806040838503121561370157600080fd5b61370a836136ca565b946020939093013593505050565b7fffffffff000000000000000000000000000000000000000000000000000000008116811461374657600080fd5b50565b60006020828403121561375b57600080fd5b813561336981613718565b60006020828403121561377857600080fd5b5035919050565b60005b8381101561379a578181015183820152602001613782565b838111156137a9576000848401525b50505050565b600081518084526137c781602086016020860161377f565b601f017fffffffffffffffffffffffffffffffffffffffffffffffffffffffffffffffe0169290920160200192915050565b60208152600061336960208301846137af565b7f4e487b7100000000000000000000000000000000000000000000000000000000600052604160045260246000fd5b60a0810181811067ffffffffffffffff8211171561385b5761385b61380c565b60405250565b7fffffffffffffffffffffffffffffffffffffffffffffffffffffffffffffffe0601f830116810181811067ffffffffffffffff821117156138a5576138a561380c565b6040525050565b600082601f8301126138bd57600080fd5b813567ffffffffffffffff8111156138d7576138d761380c565b60405161390c60207fffffffffffffffffffffffffffffffffffffffffffffffffffffffffffffffe0601f8501160182613861565b81815284602083860101111561392157600080fd5b816020850160208301376000918101602001919091529392505050565b60006020828403121561395057600080fd5b813567ffffffffffffffff81111561396757600080fd5b613973848285016138ac565b949350505050565b6000806040838503121561398e57600080fd5b50508035926020909101359150565b600067ffffffffffffffff8211156139b7576139b761380c565b5060051b60200190565b600082601f8301126139d257600080fd5b813560206139df8261399d565b6040516139ec8282613861565b83815260059390931b8501820192828101915086841115613a0c57600080fd5b8286015b84811015613a275780358352918301918301613a10565b509695505050505050565b600080600080600060a08688031215613a4a57600080fd5b613a53866136ca565b9450613a61602087016136ca565b9350604086013567ffffffffffffffff80821115613a7e57600080fd5b613a8a89838a016139c1565b94506060880135915080821115613aa057600080fd5b613aac89838a016139c1565b93506080880135915080821115613ac257600080fd5b50613acf888289016138ac565b9150509295509295909350565b60008060408385031215613aef57600080fd5b823567ffffffffffffffff80821115613b0757600080fd5b818501915085601f830112613b1b57600080fd5b81356020613b288261399d565b604051613b358282613861565b83815260059390931b8501820192828101915089841115613b5557600080fd5b948201945b83861015613b7a57613b6b866136ca565b82529482019490820190613b5a565b96505086013592505080821115613b9057600080fd5b50613b9d858286016139c1565b9150509250929050565b600081518084526020808501945080840160005b83811015613bd757815187529582019590820190600101613bbb565b509495945050505050565b6020815260006133696020830184613ba7565b60008060408385031215613c0857600080fd5b823567ffffffffffffffff80821115613c2057600080fd5b613c2c868387016138ac565b93506020850135915080821115613c4257600080fd5b50613b9d858286016138ac565b600080600060608486031215613c6457600080fd5b613c6d846136ca565b95602085013595506040909401359392505050565b600080600080600060a08688031215613c9a57600080fd5b613ca3866136ca565b97602087013597506040870135966060810135965060800135945092505050565b86815260c060208201526000613cdd60c08301886137af565b8281036040840152613cef81886137af565b60608401969096525050911515608083015260a0909101529392505050565b600080600060608486031215613d2357600080fd5b505081359360208301359350604090920135919050565b60008060408385031215613d4d57600080fd5b613d56836136ca565b915060208301358015158114613d6b57600080fd5b809150509250929050565b60008083601f840112613d8857600080fd5b50813567ffffffffffffffff811115613da057600080fd5b6020830191508360208260051b850101111561267357600080fd5b60008083601f840112613dcd57600080fd5b50813567ffffffffffffffff811115613de557600080fd5b60208301915083602082850101111561267357600080fd5b60008060008060008060008060a0898b031215613e1957600080fd5b613e22896136ca565b9750613e3060208a016136ca565b9650604089013567ffffffffffffffff80821115613e4d57600080fd5b613e598c838d01613d76565b909850965060608b0135915080821115613e7257600080fd5b613e7e8c838d01613d76565b909650945060808b0135915080821115613e9757600080fd5b50613ea48b828c01613dbb565b999c989b5096995094979396929594505050565b60008060408385031215613ecb57600080fd5b823567ffffffffffffffff80821115613ee357600080fd5b9084019060a08287031215613ef757600080fd5b604051613f038161383b565b823581526020830135602082015260408301356040820152606083013582811115613f2d57600080fd5b613f39888286016138ac565b606083015250608083013582811115613f5157600080fd5b613f5d888286016138ac565b6080830152509350613f74915050602084016136ca565b90509250929050565b60008060408385031215613f9057600080fd5b613f99836136ca565b9150613f74602084016136ca565b600080600060608486031215613fbc57600080fd5b8335925060208401359150613fd3604085016136ca565b90509250925092565b60008060008060008060a08789031215613ff557600080fd5b613ffe876136ca565b955061400c602088016136ca565b94506040870135935060608701359250608087013567ffffffffffffffff81111561403657600080fd5b61404289828a01613dbb565b979a9699509497509295939492505050565b600080600080600060a0868803121561406c57600080fd5b614075866136ca565b9450614083602087016136ca565b93506040860135925060608601359150608086013567ffffffffffffffff8111156140ad57600080fd5b613acf888289016138ac565b600080600080608085870312156140cf57600080fd5b6140d8856136ca565b93506140e6602086016136ca565b92506140f4604086016136ca565b9150614102606086016136ca565b905092959194509250565b60006020828403121561411f57600080fd5b5051919050565b600181811c9082168061413a57607f821691505b60208210811415614174577f4e487b7100000000000000000000000000000000000000000000000000000000600052602260045260246000fd5b50919050565b7f4e487b7100000000000000000000000000000000000000000000000000000000600052603260045260246000fd5b7f4e487b7100000000000000000000000000000000000000000000000000000000600052601160045260246000fd5b60007fffffffffffffffffffffffffffffffffffffffffffffffffffffffffffffffff82141561420a5761420a6141a9565b5060010190565b6000825161422381846020870161377f565b9190910192915050565b600080835481600182811c91508083168061424957607f831692505b6020808410821415614282577f4e487b710000000000000000000000000000000000000000000000000000000086526022600452602486fd5b81801561429657600181146142c5576142f2565b7fffffffffffffffffffffffffffffffffffffffffffffffffffffffffffffff008616895284890196506142f2565b60008a81526020902060005b868110156142ea5781548b8201529085019083016142d1565b505084890196505b509498975050505050505050565b6000835161431281846020880161377f565b83519083019061432681836020880161377f565b01949350505050565b60008219821115614342576143426141a9565b500190565b60408152600061435a6040830185613ba7565b82810360208401526113be8185613ba7565b60008282101561437e5761437e6141a9565b500390565b87815260e06020820152600061439c60e08301896137af565b82810360408401526143ae81896137af565b9150508560608301528460808301528360a083015260ff831660c083015298975050505050505050565b600073ffffffffffffffffffffffffffffffffffffffff808816835280871660208401525084604083015283606083015260a0608083015261441d60a08301846137af565b979650505050505050565b60006020828403121561443a57600080fd5b815161336981613718565b600060033d11156116c85760046000803e5060005160e01c90565b600060443d101561446e5790565b6040517ffffffffffffffffffffffffffffffffffffffffffffffffffffffffffffffffc803d016004833e81513d67ffffffffffffffff81602484011181841117156144bc57505050505090565b82850191508151818111156144d45750505050505090565b843d87010160208285010111156144ee5750505050505090565b6144fd60208286010187613861565b509095945050505050565b600073ffffffffffffffffffffffffffffffffffffffff808816835280871660208401525060a0604083015261454160a0830186613ba7565b82810360608401526145538186613ba7565b9050828103608084015261456781856137af565b98975050505050505050565b6000826145a9577f4e487b7100000000000000000000000000000000000000000000000000000000600052601260045260246000fd5b50049056fe546f6b656e206d696e746564207468726f75676820766f74696e672070726f63657373a2646970667358221220ef0b48933299d7ab9c70a1cc73ab82a678592ababda745e41fed711afb5159e664736f6c634300080c0033",
  "immutableReferences": {},
  "source": "// SPDX-License-Identifier: MIT\n\npragma solidity ^0.8.0;\n\nimport \"../treasury/TreasuryCoreContract.sol\";\n\ncontract TreasuryCoreContractMock is TreasuryCoreContract {\n    constructor(address owner) TreasuryCoreContract(owner) {}\n\n    /// @dev This function is a mock function that will mint tokens of specific ids\n    // This function can be called to mimic dilution result\n    /// @param tokenId This is the id of the which is to be minted\n    /// @param tokenAmount This is the amount that is to be minted\n    function mintTokens(uint256 tokenId, uint256 tokenAmount) external {\n        // Here minting of new tokens is done. And those are sent directly into the treasury\n        _mint(\n            address(this),\n            tokenId,\n            tokenAmount,\n            \"Token minted through voting process\"\n        );\n    }\n\n    /// @dev This function is a mock function that will mint tokens of specific ids\n    // and send it to the calling user\n    /// @param tokenId This is the id of the which is to be minted\n    /// @param tokenAmount This is the amount that is to be minted\n    function mintTokensForMe(uint256 tokenId, uint256 tokenAmount) public {\n        // Here minting of new tokens is done. And those are sent directly into the treasury\n        _mint(\n            msg.sender,\n            tokenId,\n            tokenAmount,\n            \"Token minted through voting process\"\n        );\n    }\n}\n",
  "sourcePath": "/Users/a1/Desktop/Office/projects/CrowdRecords/Contracts/contracts/Mocks/TreasuryCoreContractMock.sol",
  "compiler": {
    "name": "solc",
    "version": "0.8.12+commit.f00d7308.Emscripten.clang"
  },
  "schemaVersion": "3.4.6",
  "updatedAt": "2023-05-19T09:50:44.189Z",
  "networkType": "ethereum",
  "devdoc": {
    "kind": "dev",
    "methods": {
      "balanceOf(address,uint256)": {
        "details": "this function is responsible to return the balance of a token Here it has been overridden so that any request for CRD token will be redirected to the ERC20 contract of CRD token",
        "params": {
          "account": "this is the address of the user whose balance you want to check",
          "id": "this is the id of the token that is to be transferred"
        },
        "returns": {
          "_0": "balance This is the balance of the user"
        }
      },
      "balanceOfAt(address,uint256,uint256)": {
        "details": "Retrieves the balance of `account` at the time `snapshotId` was created."
      },
      "balanceOfBatch(address[],uint256[])": {
        "details": "See {IERC1155-balanceOfBatch}. Requirements: - `accounts` and `ids` must have the same length."
      },
      "createNewCommunityToken((uint256,uint256,uint256,string,string),address)": {
        "details": "This function creates new community tokens for specified record",
        "params": {
          "newTokenData": "This contains all the parameters needed to create a new community token that are",
          "userAddress": "- This is the address of the user who is the creator of the token"
        }
      },
      "createNewGovernanceToken((uint256,uint256,uint256,string,string),address)": {
        "details": "This function creates new governance tokens for specified record",
        "params": {
          "newTokenData": "This contains all the parameters needed to create a new governance token that are",
          "userAddress": "- This is the address of the user who is the creator of the token"
        }
      },
      "exists(uint256)": {
        "details": "Indicates whether any token exist with a given id, or not."
      },
      "initialize(address,address,address,address)": {
        "details": "This is to set the address of the contracts",
        "params": {
          "controllerContractAddress": "This is the address of Controller contract",
          "crdTokenAddress": "This is the address of CRD token contract",
          "newTreasuryAddress": "This is the address of new voting hub contract",
          "newVotingHubContract": "This is the address of new voting hub contract"
        }
      },
      "isApprovedForAll(address,address)": {
        "details": "See {IERC1155-isApprovedForAll}."
      },
      "isSymbolAvailable(string,string)": {
        "details": "This function checks if symbol are available or not",
        "params": {
          "communitySymbol": "Symbol for community token",
          "governanceSymbol": "Symbol for governance token"
        }
      },
      "mintTokens(uint256,uint256)": {
        "params": {
          "tokenAmount": "This is the amount that is to be minted",
          "tokenId": "This is the id of the which is to be minted"
        }
      },
      "mintTokens(uint256,uint256,uint256)": {
        "details": "This function creats new community tokens for specified record",
        "params": {
          "recordId": "This is the id of the record to which the token belongs to",
          "tokenAmount": "This is the amount that is to be minted",
          "tokenId": "This is the id of the which is to be minted"
        }
      },
      "mintTokensForMe(uint256,uint256)": {
        "params": {
          "tokenAmount": "This is the amount that is to be minted",
          "tokenId": "This is the id of the which is to be minted"
        }
      },
      "onERC1155BatchReceived(address,address,uint256[],uint256[],bytes)": {
        "details": "Handles the receipt of a multiple ERC1155 token types. This function is called at the end of a `safeBatchTransferFrom` after the balances have been updated. NOTE: To accept the transfer(s), this must return `bytes4(keccak256(\"onERC1155BatchReceived(address,address,uint256[],uint256[],bytes)\"))` (i.e. 0xbc197c81, or its own function selector).",
        "params": {
          "data": "Additional data with no specified format",
          "from": "The address which previously owned the token",
          "ids": "An array containing ids of each token being transferred (order and length must match values array)",
          "operator": "The address which initiated the batch transfer (i.e. msg.sender)",
          "values": "An array containing amounts of each token being transferred (order and length must match ids array)"
        },
        "returns": {
          "_0": "`bytes4(keccak256(\"onERC1155BatchReceived(address,address,uint256[],uint256[],bytes)\"))` if transfer is allowed"
        }
      },
      "onERC1155Received(address,address,uint256,uint256,bytes)": {
        "details": "Handles the receipt of a single ERC1155 token type. This function is called at the end of a `safeTransferFrom` after the balance has been updated. NOTE: To accept the transfer, this must return `bytes4(keccak256(\"onERC1155Received(address,address,uint256,uint256,bytes)\"))` (i.e. 0xf23a6e61, or its own function selector).",
        "params": {
          "data": "Additional data with no specified format",
          "from": "The address which previously owned the token",
          "id": "The ID of the token being transferred",
          "operator": "The address which initiated the transfer (i.e. msg.sender)",
          "value": "The amount of tokens being transferred"
        },
        "returns": {
          "_0": "`bytes4(keccak256(\"onERC1155Received(address,address,uint256,uint256,bytes)\"))` if transfer is allowed"
        }
      },
      "safeBatchTransferFrom(address,address,uint256[],uint256[],bytes)": {
        "details": "See {IERC1155-safeBatchTransferFrom}."
      },
      "safeTransferFrom(address,address,uint256,uint256,bytes)": {
        "details": "See {IERC1155-safeTransferFrom}."
      },
      "setApprovalForAll(address,bool)": {
        "details": "See {IERC1155-setApprovalForAll}."
      },
      "setSymbolsAsAvailable(string,string)": {
        "params": {
          "communitySymbol": "Symbol for community token",
          "governanceSymbol": "Symbol for governance token"
        }
      },
      "setSymbolsAsUsed(string,string)": {
        "params": {
          "communitySymbol": "Symbol for community token",
          "governanceSymbol": "Symbol for governance token"
        }
      },
      "supportsInterface(bytes4)": {
        "details": "See {IERC165-supportsInterface}."
      },
      "totalSupply(uint256)": {
        "details": "Total amount of tokens in with a given id."
      },
      "totalSupplyAt(uint256,uint256)": {
        "details": "Retrieves the total supply at the time `snapshotId` was created."
      },
      "transferRewardAmount(address,uint256,uint256,uint256,uint256)": {
        "details": "This function is called only by the voting contract once the voting ends",
        "params": {
          "contributionId": "this is the contribution id to which the user has won",
          "recordId": "This is the recordId to which the contribution belongs to",
          "rewardCommunity": "this is the amount of community token that needs to be transferred",
          "rewardGovernance": "this is the amount of Governance token that needs to be transferred",
          "to": "This is the receivers address"
        }
      },
      "transferRewardTokens(uint256,uint256,address)": {
        "details": "this function is responsible for minting of new tokens for records",
        "params": {
          "amount": "the amount that is to be minted",
          "receiver": "Id this is the tokenId that is to minted",
          "tokenId": "Id this is the tokenId that is to minted"
        }
      },
      "uri(uint256)": {
        "details": "See {IERC1155MetadataURI-uri}. This implementation returns the same URI for *all* token types. It relies on the token type ID substitution mechanism https://eips.ethereum.org/EIPS/eip-1155#metadata[defined in the EIP]. Clients calling this function must replace the `\\{id\\}` substring with the actual token type ID."
      }
    },
    "version": 1
  },
  "userdoc": {
    "kind": "user",
    "methods": {},
    "version": 1
  }
}