{
  "contractName": "TreasuryCoreContract",
  "abi": [
    {
      "inputs": [
        {
          "internalType": "address",
          "name": "owner",
          "type": "address"
        }
      ],
      "stateMutability": "nonpayable",
      "type": "constructor"
    },
    {
      "anonymous": false,
      "inputs": [
        {
          "indexed": true,
          "internalType": "address",
          "name": "account",
          "type": "address"
        },
        {
          "indexed": true,
          "internalType": "address",
          "name": "operator",
          "type": "address"
        },
        {
          "indexed": false,
          "internalType": "bool",
          "name": "approved",
          "type": "bool"
        }
      ],
      "name": "ApprovalForAll",
      "type": "event"
    },
    {
      "anonymous": false,
      "inputs": [
        {
          "indexed": false,
          "internalType": "address",
          "name": "to",
          "type": "address"
        },
        {
          "indexed": false,
          "internalType": "uint256",
          "name": "recordId",
          "type": "uint256"
        },
        {
          "indexed": false,
          "internalType": "uint256",
          "name": "contributionId",
          "type": "uint256"
        },
        {
          "indexed": false,
          "internalType": "uint256",
          "name": "rewardGovernance",
          "type": "uint256"
        },
        {
          "indexed": false,
          "internalType": "uint256",
          "name": "rewardCommunity",
          "type": "uint256"
        }
      ],
      "name": "ContributionRewardTransferred",
      "type": "event"
    },
    {
      "anonymous": false,
      "inputs": [
        {
          "indexed": false,
          "internalType": "uint256",
          "name": "recordId",
          "type": "uint256"
        },
        {
          "indexed": false,
          "internalType": "string",
          "name": "symbol",
          "type": "string"
        },
        {
          "indexed": false,
          "internalType": "string",
          "name": "image",
          "type": "string"
        },
        {
          "indexed": false,
          "internalType": "uint256",
          "name": "creationDate",
          "type": "uint256"
        },
        {
          "indexed": false,
          "internalType": "uint256",
          "name": "tokenAmount",
          "type": "uint256"
        },
        {
          "indexed": false,
          "internalType": "uint256",
          "name": "tokenId",
          "type": "uint256"
        },
        {
          "indexed": false,
          "internalType": "uint8",
          "name": "tokenType",
          "type": "uint8"
        }
      ],
      "name": "NewTokenCreated",
      "type": "event"
    },
    {
      "anonymous": false,
      "inputs": [
        {
          "indexed": false,
          "internalType": "uint256",
          "name": "id",
          "type": "uint256"
        }
      ],
      "name": "Snapshot",
      "type": "event"
    },
    {
      "anonymous": false,
      "inputs": [
        {
          "indexed": false,
          "internalType": "uint256",
          "name": "recordId",
          "type": "uint256"
        },
        {
          "indexed": false,
          "internalType": "uint256",
          "name": "tokenId",
          "type": "uint256"
        },
        {
          "indexed": false,
          "internalType": "uint256",
          "name": "creationDate",
          "type": "uint256"
        },
        {
          "indexed": false,
          "internalType": "uint256",
          "name": "tokenAmount",
          "type": "uint256"
        }
      ],
      "name": "TokenMinted",
      "type": "event"
    },
    {
      "anonymous": false,
      "inputs": [
        {
          "indexed": false,
          "internalType": "address",
          "name": "from",
          "type": "address"
        },
        {
          "indexed": false,
          "internalType": "address",
          "name": "to",
          "type": "address"
        },
        {
          "indexed": false,
          "internalType": "uint256",
          "name": "transferDate",
          "type": "uint256"
        },
        {
          "indexed": false,
          "internalType": "uint256",
          "name": "tokenId",
          "type": "uint256"
        },
        {
          "indexed": false,
          "internalType": "uint256",
          "name": "amount",
          "type": "uint256"
        },
        {
          "indexed": false,
          "internalType": "string",
          "name": "symbol",
          "type": "string"
        }
      ],
      "name": "TokenTransfer",
      "type": "event"
    },
    {
      "anonymous": false,
      "inputs": [
        {
          "indexed": true,
          "internalType": "address",
          "name": "operator",
          "type": "address"
        },
        {
          "indexed": true,
          "internalType": "address",
          "name": "from",
          "type": "address"
        },
        {
          "indexed": true,
          "internalType": "address",
          "name": "to",
          "type": "address"
        },
        {
          "indexed": false,
          "internalType": "uint256[]",
          "name": "ids",
          "type": "uint256[]"
        },
        {
          "indexed": false,
          "internalType": "uint256[]",
          "name": "values",
          "type": "uint256[]"
        }
      ],
      "name": "TransferBatch",
      "type": "event"
    },
    {
      "anonymous": false,
      "inputs": [
        {
          "indexed": true,
          "internalType": "address",
          "name": "operator",
          "type": "address"
        },
        {
          "indexed": true,
          "internalType": "address",
          "name": "from",
          "type": "address"
        },
        {
          "indexed": true,
          "internalType": "address",
          "name": "to",
          "type": "address"
        },
        {
          "indexed": false,
          "internalType": "uint256",
          "name": "id",
          "type": "uint256"
        },
        {
          "indexed": false,
          "internalType": "uint256",
          "name": "value",
          "type": "uint256"
        }
      ],
      "name": "TransferSingle",
      "type": "event"
    },
    {
      "anonymous": false,
      "inputs": [
        {
          "indexed": false,
          "internalType": "string",
          "name": "value",
          "type": "string"
        },
        {
          "indexed": true,
          "internalType": "uint256",
          "name": "id",
          "type": "uint256"
        }
      ],
      "name": "URI",
      "type": "event"
    },
    {
      "inputs": [],
      "name": "CRD",
      "outputs": [
        {
          "internalType": "uint256",
          "name": "",
          "type": "uint256"
        }
      ],
      "stateMutability": "view",
      "type": "function",
      "constant": true
    },
    {
      "inputs": [],
      "name": "OWNER",
      "outputs": [
        {
          "internalType": "address",
          "name": "",
          "type": "address"
        }
      ],
      "stateMutability": "view",
      "type": "function",
      "constant": true
    },
    {
      "inputs": [],
      "name": "TREASURY_CONTRACT_ADDRESS",
      "outputs": [
        {
          "internalType": "address",
          "name": "",
          "type": "address"
        }
      ],
      "stateMutability": "view",
      "type": "function",
      "constant": true
    },
    {
      "inputs": [],
      "name": "VOTING_HUB_ADDRESS",
      "outputs": [
        {
          "internalType": "address",
          "name": "",
          "type": "address"
        }
      ],
      "stateMutability": "view",
      "type": "function",
      "constant": true
    },
    {
      "inputs": [
        {
          "internalType": "address",
          "name": "account",
          "type": "address"
        },
        {
          "internalType": "uint256",
          "name": "id",
          "type": "uint256"
        }
      ],
      "name": "balanceOf",
      "outputs": [
        {
          "internalType": "uint256",
          "name": "",
          "type": "uint256"
        }
      ],
      "stateMutability": "view",
      "type": "function",
      "constant": true
    },
    {
      "inputs": [
        {
          "internalType": "address",
          "name": "account",
          "type": "address"
        },
        {
          "internalType": "uint256",
          "name": "snapshotId",
          "type": "uint256"
        },
        {
          "internalType": "uint256",
          "name": "tokenId",
          "type": "uint256"
        }
      ],
      "name": "balanceOfAt",
      "outputs": [
        {
          "internalType": "uint256",
          "name": "",
          "type": "uint256"
        }
      ],
      "stateMutability": "view",
      "type": "function",
      "constant": true
    },
    {
      "inputs": [
        {
          "internalType": "address[]",
          "name": "accounts",
          "type": "address[]"
        },
        {
          "internalType": "uint256[]",
          "name": "ids",
          "type": "uint256[]"
        }
      ],
      "name": "balanceOfBatch",
      "outputs": [
        {
          "internalType": "uint256[]",
          "name": "",
          "type": "uint256[]"
        }
      ],
      "stateMutability": "view",
      "type": "function",
      "constant": true
    },
    {
      "inputs": [
        {
          "internalType": "uint256",
          "name": "",
          "type": "uint256"
        }
      ],
      "name": "commTokenMapping",
      "outputs": [
        {
          "internalType": "uint256",
          "name": "recordId",
          "type": "uint256"
        },
        {
          "internalType": "string",
          "name": "symbol",
          "type": "string"
        },
        {
          "internalType": "string",
          "name": "image",
          "type": "string"
        },
        {
          "internalType": "uint256",
          "name": "creationDate",
          "type": "uint256"
        },
        {
          "internalType": "bool",
          "name": "isPresent",
          "type": "bool"
        },
        {
          "internalType": "uint256",
          "name": "tokenId",
          "type": "uint256"
        }
      ],
      "stateMutability": "view",
      "type": "function",
      "constant": true
    },
    {
      "inputs": [
        {
          "internalType": "string",
          "name": "",
          "type": "string"
        }
      ],
      "name": "commTokenSym",
      "outputs": [
        {
          "internalType": "bool",
          "name": "",
          "type": "bool"
        }
      ],
      "stateMutability": "view",
      "type": "function",
      "constant": true
    },
    {
      "inputs": [
        {
          "internalType": "uint256",
          "name": "id",
          "type": "uint256"
        }
      ],
      "name": "exists",
      "outputs": [
        {
          "internalType": "bool",
          "name": "",
          "type": "bool"
        }
      ],
      "stateMutability": "view",
      "type": "function",
      "constant": true
    },
    {
      "inputs": [
        {
          "internalType": "uint256",
          "name": "",
          "type": "uint256"
        }
      ],
      "name": "govTokenMapping",
      "outputs": [
        {
          "internalType": "uint256",
          "name": "recordId",
          "type": "uint256"
        },
        {
          "internalType": "string",
          "name": "symbol",
          "type": "string"
        },
        {
          "internalType": "string",
          "name": "image",
          "type": "string"
        },
        {
          "internalType": "uint256",
          "name": "creationDate",
          "type": "uint256"
        },
        {
          "internalType": "bool",
          "name": "isPresent",
          "type": "bool"
        },
        {
          "internalType": "uint256",
          "name": "tokenId",
          "type": "uint256"
        }
      ],
      "stateMutability": "view",
      "type": "function",
      "constant": true
    },
    {
      "inputs": [
        {
          "internalType": "string",
          "name": "",
          "type": "string"
        }
      ],
      "name": "govTokenSym",
      "outputs": [
        {
          "internalType": "bool",
          "name": "",
          "type": "bool"
        }
      ],
      "stateMutability": "view",
      "type": "function",
      "constant": true
    },
    {
      "inputs": [
        {
          "internalType": "address",
          "name": "account",
          "type": "address"
        },
        {
          "internalType": "address",
          "name": "operator",
          "type": "address"
        }
      ],
      "name": "isApprovedForAll",
      "outputs": [
        {
          "internalType": "bool",
          "name": "",
          "type": "bool"
        }
      ],
      "stateMutability": "view",
      "type": "function",
      "constant": true
    },
    {
      "inputs": [
        {
          "internalType": "address",
          "name": "from",
          "type": "address"
        },
        {
          "internalType": "address",
          "name": "to",
          "type": "address"
        },
        {
          "internalType": "uint256[]",
          "name": "ids",
          "type": "uint256[]"
        },
        {
          "internalType": "uint256[]",
          "name": "amounts",
          "type": "uint256[]"
        },
        {
          "internalType": "bytes",
          "name": "data",
          "type": "bytes"
        }
      ],
      "name": "safeBatchTransferFrom",
      "outputs": [],
      "stateMutability": "nonpayable",
      "type": "function"
    },
    {
      "inputs": [
        {
          "internalType": "address",
          "name": "from",
          "type": "address"
        },
        {
          "internalType": "address",
          "name": "to",
          "type": "address"
        },
        {
          "internalType": "uint256",
          "name": "id",
          "type": "uint256"
        },
        {
          "internalType": "uint256",
          "name": "amount",
          "type": "uint256"
        },
        {
          "internalType": "bytes",
          "name": "data",
          "type": "bytes"
        }
      ],
      "name": "safeTransferFrom",
      "outputs": [],
      "stateMutability": "nonpayable",
      "type": "function"
    },
    {
      "inputs": [
        {
          "internalType": "address",
          "name": "operator",
          "type": "address"
        },
        {
          "internalType": "bool",
          "name": "approved",
          "type": "bool"
        }
      ],
      "name": "setApprovalForAll",
      "outputs": [],
      "stateMutability": "nonpayable",
      "type": "function"
    },
    {
      "inputs": [],
      "name": "snap",
      "outputs": [
        {
          "internalType": "uint256",
          "name": "",
          "type": "uint256"
        }
      ],
      "stateMutability": "nonpayable",
      "type": "function"
    },
    {
      "inputs": [
        {
          "internalType": "bytes4",
          "name": "interfaceId",
          "type": "bytes4"
        }
      ],
      "name": "supportsInterface",
      "outputs": [
        {
          "internalType": "bool",
          "name": "",
          "type": "bool"
        }
      ],
      "stateMutability": "view",
      "type": "function",
      "constant": true
    },
    {
      "inputs": [
        {
          "internalType": "uint256",
          "name": "id",
          "type": "uint256"
        }
      ],
      "name": "totalSupply",
      "outputs": [
        {
          "internalType": "uint256",
          "name": "",
          "type": "uint256"
        }
      ],
      "stateMutability": "view",
      "type": "function",
      "constant": true
    },
    {
      "inputs": [
        {
          "internalType": "uint256",
          "name": "snapshotId",
          "type": "uint256"
        },
        {
          "internalType": "uint256",
          "name": "tokenId",
          "type": "uint256"
        }
      ],
      "name": "totalSupplyAt",
      "outputs": [
        {
          "internalType": "uint256",
          "name": "",
          "type": "uint256"
        }
      ],
      "stateMutability": "view",
      "type": "function",
      "constant": true
    },
    {
      "inputs": [
        {
          "internalType": "uint256",
          "name": "",
          "type": "uint256"
        }
      ],
      "name": "uri",
      "outputs": [
        {
          "internalType": "string",
          "name": "",
          "type": "string"
        }
      ],
      "stateMutability": "view",
      "type": "function",
      "constant": true
    },
    {
      "inputs": [
        {
          "internalType": "address",
          "name": "newVotingHubContract",
          "type": "address"
        }
      ],
      "name": "setVotingHubContract",
      "outputs": [],
      "stateMutability": "nonpayable",
      "type": "function"
    },
    {
      "inputs": [
        {
          "internalType": "address",
          "name": "newTreasuryAddress",
          "type": "address"
        }
      ],
      "name": "setTreasuryContract",
      "outputs": [],
      "stateMutability": "nonpayable",
      "type": "function"
    },
    {
      "inputs": [
        {
          "components": [
            {
              "internalType": "uint256",
              "name": "recordId",
              "type": "uint256"
            },
            {
              "internalType": "uint256",
              "name": "totalSupply",
              "type": "uint256"
            },
            {
              "internalType": "uint256",
              "name": "userBalance",
              "type": "uint256"
            },
            {
              "internalType": "string",
              "name": "symbol",
              "type": "string"
            },
            {
              "internalType": "string",
              "name": "image",
              "type": "string"
            }
          ],
          "internalType": "struct TreasuryCoreContract.NewTokenData",
          "name": "newTokenData",
          "type": "tuple"
        }
      ],
      "name": "createNewGovernanceToken",
      "outputs": [
        {
          "internalType": "uint256",
          "name": "",
          "type": "uint256"
        }
      ],
      "stateMutability": "nonpayable",
      "type": "function"
    },
    {
      "inputs": [
        {
          "components": [
            {
              "internalType": "uint256",
              "name": "recordId",
              "type": "uint256"
            },
            {
              "internalType": "uint256",
              "name": "totalSupply",
              "type": "uint256"
            },
            {
              "internalType": "uint256",
              "name": "userBalance",
              "type": "uint256"
            },
            {
              "internalType": "string",
              "name": "symbol",
              "type": "string"
            },
            {
              "internalType": "string",
              "name": "image",
              "type": "string"
            }
          ],
          "internalType": "struct TreasuryCoreContract.NewTokenData",
          "name": "newTokenData",
          "type": "tuple"
        }
      ],
      "name": "createNewCommunityToken",
      "outputs": [
        {
          "internalType": "uint256",
          "name": "",
          "type": "uint256"
        }
      ],
      "stateMutability": "nonpayable",
      "type": "function"
    },
    {
      "inputs": [
        {
          "internalType": "uint256",
          "name": "recordId",
          "type": "uint256"
        },
        {
          "internalType": "uint256",
          "name": "tokenId",
          "type": "uint256"
        },
        {
          "internalType": "uint256",
          "name": "tokenAmount",
          "type": "uint256"
        }
      ],
      "name": "mintTokens",
      "outputs": [],
      "stateMutability": "nonpayable",
      "type": "function"
    },
    {
      "inputs": [
        {
          "internalType": "address",
          "name": "to",
          "type": "address"
        },
        {
          "internalType": "uint256",
          "name": "recordId",
          "type": "uint256"
        },
        {
          "internalType": "uint256",
          "name": "contributionId",
          "type": "uint256"
        },
        {
          "internalType": "uint256",
          "name": "rewardGovernance",
          "type": "uint256"
        },
        {
          "internalType": "uint256",
          "name": "rewardCommunity",
          "type": "uint256"
        },
        {
          "internalType": "address",
          "name": "contributionVotingContractAddress",
          "type": "address"
        }
      ],
      "name": "transferRewardAmount",
      "outputs": [],
      "stateMutability": "nonpayable",
      "type": "function"
    },
    {
      "inputs": [
        {
          "internalType": "string",
          "name": "governanceSymbol",
          "type": "string"
        },
        {
          "internalType": "string",
          "name": "communitySymbol",
          "type": "string"
        }
      ],
      "name": "setSymbolsAsUsed",
      "outputs": [],
      "stateMutability": "nonpayable",
      "type": "function"
    },
    {
      "inputs": [
        {
          "internalType": "string",
          "name": "governanceSymbol",
          "type": "string"
        },
        {
          "internalType": "string",
          "name": "communitySymbol",
          "type": "string"
        }
      ],
      "name": "setSymbolsAsAvailable",
      "outputs": [],
      "stateMutability": "nonpayable",
      "type": "function"
    },
    {
      "inputs": [],
      "name": "snapshot",
      "outputs": [
        {
          "internalType": "uint256",
          "name": "snapshotId",
          "type": "uint256"
        }
      ],
      "stateMutability": "nonpayable",
      "type": "function"
    },
    {
      "inputs": [
        {
          "internalType": "uint256",
          "name": "tokenId",
          "type": "uint256"
        },
        {
          "internalType": "uint256",
          "name": "amount",
          "type": "uint256"
        }
      ],
      "name": "mint",
      "outputs": [],
      "stateMutability": "nonpayable",
      "type": "function"
    },
    {
      "inputs": [
        {
          "internalType": "address",
          "name": "operator",
          "type": "address"
        },
        {
          "internalType": "address",
          "name": "from",
          "type": "address"
        },
        {
          "internalType": "uint256",
          "name": "id",
          "type": "uint256"
        },
        {
          "internalType": "uint256",
          "name": "value",
          "type": "uint256"
        },
        {
          "internalType": "bytes",
          "name": "data",
          "type": "bytes"
        }
      ],
      "name": "onERC1155Received",
      "outputs": [
        {
          "internalType": "bytes4",
          "name": "",
          "type": "bytes4"
        }
      ],
      "stateMutability": "nonpayable",
      "type": "function"
    },
    {
      "inputs": [
        {
          "internalType": "address",
          "name": "operator",
          "type": "address"
        },
        {
          "internalType": "address",
          "name": "from",
          "type": "address"
        },
        {
          "internalType": "uint256[]",
          "name": "ids",
          "type": "uint256[]"
        },
        {
          "internalType": "uint256[]",
          "name": "values",
          "type": "uint256[]"
        },
        {
          "internalType": "bytes",
          "name": "data",
          "type": "bytes"
        }
      ],
      "name": "onERC1155BatchReceived",
      "outputs": [
        {
          "internalType": "bytes4",
          "name": "",
          "type": "bytes4"
        }
      ],
      "stateMutability": "nonpayable",
      "type": "function"
    }
  ],
  "bytecode": "0x608060405260016007556040518060400160405280600581526020017f435244475f000000000000000000000000000000000000000000000000000000815250600b908051906020019062000056929190620001bc565b506040518060400160405280600481526020017f4352445f00000000000000000000000000000000000000000000000000000000815250600c9080519060200190620000a4929190620001bc565b506000600d60006101000a81548160ff021916908360ff1602179055506001600d60016101000a81548160ff021916908360ff160217905550348015620000ea57600080fd5b5060405162005ade38038062005ade8339818101604052810190620001109190620002d6565b6040518060400160405280601d81526020017f68747470733a2f2f63726f77647265636f7264732e636f6d2f7b69647d0000008152506200015781620001a060201b60201c565b5080600a60006101000a81548173ffffffffffffffffffffffffffffffffffffffff021916908373ffffffffffffffffffffffffffffffffffffffff160217905550506200036d565b8060029080519060200190620001b8929190620001bc565b5050565b828054620001ca9062000337565b90600052602060002090601f016020900481019282620001ee57600085556200023a565b82601f106200020957805160ff19168380011785556200023a565b828001600101855582156200023a579182015b82811115620002395782518255916020019190600101906200021c565b5b5090506200024991906200024d565b5090565b5b80821115620002685760008160009055506001016200024e565b5090565b600080fd5b600073ffffffffffffffffffffffffffffffffffffffff82169050919050565b60006200029e8262000271565b9050919050565b620002b08162000291565b8114620002bc57600080fd5b50565b600081519050620002d081620002a5565b92915050565b600060208284031215620002ef57620002ee6200026c565b5b6000620002ff84828501620002bf565b91505092915050565b7f4e487b7100000000000000000000000000000000000000000000000000000000600052602260045260246000fd5b600060028204905060018216806200035057607f821691505b6020821081141562000367576200036662000308565b5b50919050565b615761806200037d6000396000f3fe608060405234801561001057600080fd5b50600436106101fa5760003560e01c8063884c8ffe1161011a578063af94e4a9116100ad578063cceaf6251161007c578063cceaf6251461063b578063e6acd9b81461066b578063e985e9c514610689578063f23a6e61146106b9578063f242432a146106e9576101fa565b8063af94e4a91461058a578063b875e13a146105bf578063bc197c81146105db578063bd85b0391461060b576101fa565b80639711715a116100e95780639711715a14610514578063a22cb46514610532578063a77d38fa1461054e578063acb314931461056c576101fa565b8063884c8ffe146104635780638958a5de146104985780638aa7a8b0146104c85780638fbf353f146104f8576101fa565b8063368680491161019257806361cbc3571161016157806361cbc357146103cb578063626da068146103e7578063692a530e146104175780636d15dd2c14610433576101fa565b806336868049146103315780634e1273f41461034f5780634f558e791461037f5780635f938ad2146103af576101fa565b80631644e0ff116101ce5780631644e0ff146102ad5780631b2ef1ca146102dd5780631ed65110146102f95780632eb2c2d614610315576101fa565b8062fdd58e146101ff57806301ffc9a71461022f5780630e89341c1461025f578063117803e31461028f575b600080fd5b61021960048036038101906102149190613704565b610705565b6040516102269190613753565b60405180910390f35b610249600480360381019061024491906137c6565b6107ce565b604051610256919061380e565b60405180910390f35b61027960048036038101906102749190613829565b6108b0565b60405161028691906138ef565b60405180910390f35b610297610944565b6040516102a49190613920565b60405180910390f35b6102c760048036038101906102c29190613a70565b61096a565b6040516102d4919061380e565b60405180910390f35b6102f760048036038101906102f29190613ab9565b6109a0565b005b610313600480360381019061030e9190613af9565b610a75565b005b61032f600480360381019061032a9190613c8f565b610b49565b005b610339610bea565b6040516103469190613920565b60405180910390f35b61036960048036038101906103649190613e21565b610c10565b6040516103769190613f57565b60405180910390f35b61039960048036038101906103949190613829565b610d29565b6040516103a6919061380e565b60405180910390f35b6103c960048036038101906103c49190613f79565b610d3d565b005b6103e560048036038101906103e09190613f79565b610e3f565b005b61040160048036038101906103fc9190613ff1565b610f41565b60405161040e9190613753565b60405180910390f35b610431600480360381019061042c9190614044565b610fc4565b005b61044d6004803603810190610448919061419f565b61111f565b60405161045a9190613753565b60405180910390f35b61047d60048036038101906104789190613829565b6113bd565b60405161048f969594939291906141e8565b60405180910390f35b6104b260048036038101906104ad9190613a70565b611516565b6040516104bf919061380e565b60405180910390f35b6104e260048036038101906104dd9190613ab9565b61154c565b6040516104ef9190613753565b60405180910390f35b610512600480360381019061050d9190614257565b611590565b005b61051c61179a565b6040516105299190613753565b60405180910390f35b61054c600480360381019061054791906142d6565b611839565b005b61055661184f565b6040516105639190613753565b60405180910390f35b61057461185e565b6040516105819190613920565b60405180910390f35b6105a4600480360381019061059f9190613829565b611884565b6040516105b6969594939291906141e8565b60405180910390f35b6105d960048036038101906105d49190613af9565b6119dd565b005b6105f560048036038101906105f091906143c7565b611ab1565b60405161060291906144b2565b60405180910390f35b61062560048036038101906106209190613829565b611ae2565b6040516106329190613753565b60405180910390f35b6106556004803603810190610650919061419f565b611aff565b6040516106629190613753565b60405180910390f35b610673611d9d565b6040516106809190613753565b60405180910390f35b6106a3600480360381019061069e91906144cd565b611da2565b6040516106b0919061380e565b60405180910390f35b6106d360048036038101906106ce919061450d565b611e36565b6040516106e091906144b2565b60405180910390f35b61070360048036038101906106fe91906145a7565b611e65565b005b60008073ffffffffffffffffffffffffffffffffffffffff168373ffffffffffffffffffffffffffffffffffffffff161415610776576040517f08c379a000000000000000000000000000000000000000000000000000000000815260040161076d906146b0565b60405180910390fd5b60008083815260200190815260200160002060008473ffffffffffffffffffffffffffffffffffffffff1673ffffffffffffffffffffffffffffffffffffffff16815260200190815260200160002054905092915050565b60007fd9b67a26000000000000000000000000000000000000000000000000000000007bffffffffffffffffffffffffffffffffffffffffffffffffffffffff1916827bffffffffffffffffffffffffffffffffffffffffffffffffffffffff1916148061089957507f0e89341c000000000000000000000000000000000000000000000000000000007bffffffffffffffffffffffffffffffffffffffffffffffffffffffff1916827bffffffffffffffffffffffffffffffffffffffffffffffffffffffff1916145b806108a957506108a882611f06565b5b9050919050565b6060600280546108bf906146ff565b80601f01602080910402602001604051908101604052809291908181526020018280546108eb906146ff565b80156109385780601f1061090d57610100808354040283529160200191610938565b820191906000526020600020905b81548152906001019060200180831161091b57829003601f168201915b50505050509050919050565b600a60009054906101000a900473ffffffffffffffffffffffffffffffffffffffff1681565b6010818051602081018201805184825260208301602085012081835280955050505050506000915054906101000a900460ff1681565b600960009054906101000a900473ffffffffffffffffffffffffffffffffffffffff1673ffffffffffffffffffffffffffffffffffffffff163373ffffffffffffffffffffffffffffffffffffffff1614610a30576040517f08c379a0000000000000000000000000000000000000000000000000000000008152600401610a27906147a3565b60405180910390fd5b610a713083836040518060400160405280601181526020017f4e657720746f6b656e73206d696e746564000000000000000000000000000000815250611f70565b5050565b600a60009054906101000a900473ffffffffffffffffffffffffffffffffffffffff1673ffffffffffffffffffffffffffffffffffffffff163373ffffffffffffffffffffffffffffffffffffffff1614610b05576040517f08c379a0000000000000000000000000000000000000000000000000000000008152600401610afc906147a3565b60405180910390fd5b80600960006101000a81548173ffffffffffffffffffffffffffffffffffffffff021916908373ffffffffffffffffffffffffffffffffffffffff16021790555050565b610b51612106565b73ffffffffffffffffffffffffffffffffffffffff168573ffffffffffffffffffffffffffffffffffffffff161480610b975750610b9685610b91612106565b611da2565b5b610bd6576040517f08c379a0000000000000000000000000000000000000000000000000000000008152600401610bcd90614835565b60405180910390fd5b610be3858585858561210e565b5050505050565b600860009054906101000a900473ffffffffffffffffffffffffffffffffffffffff1681565b60608151835114610c56576040517f08c379a0000000000000000000000000000000000000000000000000000000008152600401610c4d906148c7565b60405180910390fd5b6000835167ffffffffffffffff811115610c7357610c72613945565b5b604051908082528060200260200182016040528015610ca15781602001602082028036833780820191505090505b50905060005b8451811015610d1e57610cee858281518110610cc657610cc56148e7565b5b6020026020010151858381518110610ce157610ce06148e7565b5b6020026020010151610705565b828281518110610d0157610d006148e7565b5b60200260200101818152505080610d1790614945565b9050610ca7565b508091505092915050565b600080610d3583611ae2565b119050919050565b600960009054906101000a900473ffffffffffffffffffffffffffffffffffffffff1673ffffffffffffffffffffffffffffffffffffffff163373ffffffffffffffffffffffffffffffffffffffff1614610dcd576040517f08c379a0000000000000000000000000000000000000000000000000000000008152600401610dc4906147a3565b60405180910390fd5b6001601182604051610ddf91906149ca565b908152602001604051809103902060006101000a81548160ff0219169083151502179055506001601083604051610e1691906149ca565b908152602001604051809103902060006101000a81548160ff0219169083151502179055505050565b600960009054906101000a900473ffffffffffffffffffffffffffffffffffffffff1673ffffffffffffffffffffffffffffffffffffffff163373ffffffffffffffffffffffffffffffffffffffff1614610ecf576040517f08c379a0000000000000000000000000000000000000000000000000000000008152600401610ec6906147a3565b60405180910390fd5b6001601182604051610ee191906149ca565b908152602001604051809103902060006101000a81548160ff0219169083151502179055506001601083604051610f1891906149ca565b908152602001604051809103902060006101000a81548160ff0219169083151502179055505050565b6000806000610f9f85600460008973ffffffffffffffffffffffffffffffffffffffff1673ffffffffffffffffffffffffffffffffffffffff1681526020019081526020016000206000878152602001908152602001600020612422565b9150915081610fb757610fb28685610705565b610fb9565b805b925050509392505050565b600960009054906101000a900473ffffffffffffffffffffffffffffffffffffffff1673ffffffffffffffffffffffffffffffffffffffff163373ffffffffffffffffffffffffffffffffffffffff1614611054576040517f08c379a000000000000000000000000000000000000000000000000000000000815260040161104b906147a3565b60405180910390fd5b61106030826001612518565b600083111561109c5761109b3087600e6000898152602001908152602001600020600501548660405180602001604052806000815250611e65565b5b60008211156110d8576110d73087600f6000898152602001908152602001600020600501548560405180602001604052806000815250611e65565b5b7fe0357d4bc70490bf81b58d93d7d3a12a646c486a071200201fd882cdf74c88d9868686868660405161110f9594939291906149e1565b60405180910390a1505050505050565b6000600960009054906101000a900473ffffffffffffffffffffffffffffffffffffffff1673ffffffffffffffffffffffffffffffffffffffff163373ffffffffffffffffffffffffffffffffffffffff16146111b1576040517f08c379a00000000000000000000000000000000000000000000000000000000081526004016111a8906147a3565b60405180910390fd5b6000600c6040516020016111c59190614ac8565b60405160208183030381529060405290508083606001516040516020016111ed929190614b26565b60405160208183030381529060405283606001819052505060001515600f60008460000151815260200190815260200160002060040160009054906101000a900460ff16151514611273576040517f08c379a000000000000000000000000000000000000000000000000000000000815260040161126a90614b96565b60405180910390fd5b600015156011836060015160405161128b91906149ca565b908152602001604051809103902060009054906101000a900460ff161515146112e9576040517f08c379a00000000000000000000000000000000000000000000000000000000081526004016112e090614c28565b60405180910390fd5b600760008154809291906112fc90614945565b9190505550600060075490506113228382600d60009054906101000a900460ff16612685565b600f60008560000151815260200190815260200160002060008201518160000155602082015181600101908051906020019061135f929190613581565b50604082015181600201908051906020019061137c929190613581565b506060820151816003015560808201518160040160006101000a81548160ff02191690831515021790555060a0820151816005015590505080915050919050565b600e6020528060005260406000206000915090508060000154908060010180546113e6906146ff565b80601f0160208091040260200160405190810160405280929190818152602001828054611412906146ff565b801561145f5780601f106114345761010080835404028352916020019161145f565b820191906000526020600020905b81548152906001019060200180831161144257829003601f168201915b505050505090806002018054611474906146ff565b80601f01602080910402602001604051908101604052809291908181526020018280546114a0906146ff565b80156114ed5780601f106114c2576101008083540402835291602001916114ed565b820191906000526020600020905b8154815290600101906020018083116114d057829003601f168201915b5050505050908060030154908060040160009054906101000a900460ff16908060050154905086565b6011818051602081018201805184825260208301602085012081835280955050505050506000915054906101000a900460ff1681565b600080600061156d8560056000878152602001908152602001600020612422565b91509150816115845761157f84611ae2565b611586565b805b9250505092915050565b600960009054906101000a900473ffffffffffffffffffffffffffffffffffffffff1673ffffffffffffffffffffffffffffffffffffffff163373ffffffffffffffffffffffffffffffffffffffff1614611620576040517f08c379a0000000000000000000000000000000000000000000000000000000008152600401611617906147a3565b60405180910390fd5b60011515600f600085815260200190815260200160002060040160009054906101000a900460ff161515148061167d575060011515600e600085815260200190815260200160002060040160009054906101000a900460ff161515145b6116bc576040517f08c379a00000000000000000000000000000000000000000000000000000000081526004016116b390614c94565b60405180910390fd5b81600f60008581526020019081526020016000206005015414806116f5575081600e600085815260200190815260200160002060050154145b611734576040517f08c379a000000000000000000000000000000000000000000000000000000000815260040161172b90614d00565b60405180910390fd5b61175830838360405180606001604052806023815260200161570960239139611f70565b7f81e0b881b9c6ff93955a4a996cc01472b2cdc1a1663af072fa5ca7db7f127de28383428460405161178d9493929190614d20565b60405180910390a1505050565b6000600960009054906101000a900473ffffffffffffffffffffffffffffffffffffffff1673ffffffffffffffffffffffffffffffffffffffff163373ffffffffffffffffffffffffffffffffffffffff161461182c576040517f08c379a0000000000000000000000000000000000000000000000000000000008152600401611823906147a3565b60405180910390fd5b611834612788565b905090565b61184b611844612106565b8383612518565b5050565b6000611859612788565b905090565b600960009054906101000a900473ffffffffffffffffffffffffffffffffffffffff1681565b600f6020528060005260406000206000915090508060000154908060010180546118ad906146ff565b80601f01602080910402602001604051908101604052809291908181526020018280546118d9906146ff565b80156119265780601f106118fb57610100808354040283529160200191611926565b820191906000526020600020905b81548152906001019060200180831161190957829003601f168201915b50505050509080600201805461193b906146ff565b80601f0160208091040260200160405190810160405280929190818152602001828054611967906146ff565b80156119b45780601f10611989576101008083540402835291602001916119b4565b820191906000526020600020905b81548152906001019060200180831161199757829003601f168201915b5050505050908060030154908060040160009054906101000a900460ff16908060050154905086565b600a60009054906101000a900473ffffffffffffffffffffffffffffffffffffffff1673ffffffffffffffffffffffffffffffffffffffff163373ffffffffffffffffffffffffffffffffffffffff1614611a6d576040517f08c379a0000000000000000000000000000000000000000000000000000000008152600401611a64906147a3565b60405180910390fd5b80600860006101000a81548173ffffffffffffffffffffffffffffffffffffffff021916908373ffffffffffffffffffffffffffffffffffffffff16021790555050565b60007fbc197c819b3e337a6f9652dd10becd7eef83032af3b9d958d3d42f6694146621905098975050505050505050565b600060036000838152602001908152602001600020549050919050565b6000600960009054906101000a900473ffffffffffffffffffffffffffffffffffffffff1673ffffffffffffffffffffffffffffffffffffffff163373ffffffffffffffffffffffffffffffffffffffff1614611b91576040517f08c379a0000000000000000000000000000000000000000000000000000000008152600401611b88906147a3565b60405180910390fd5b6000600b604051602001611ba59190614ac8565b6040516020818303038152906040529050808360600151604051602001611bcd929190614b26565b60405160208183030381529060405283606001819052505060001515600e60008460000151815260200190815260200160002060040160009054906101000a900460ff16151514611c53576040517f08c379a0000000000000000000000000000000000000000000000000000000008152600401611c4a90614b96565b60405180910390fd5b6000151560108360600151604051611c6b91906149ca565b908152602001604051809103902060009054906101000a900460ff16151514611cc9576040517f08c379a0000000000000000000000000000000000000000000000000000000008152600401611cc090614c28565b60405180910390fd5b60076000815480929190611cdc90614945565b919050555060006007549050611d028382600d60019054906101000a900460ff16612685565b600e600085600001518152602001908152602001600020600082015181600001556020820151816001019080519060200190611d3f929190613581565b506040820151816002019080519060200190611d5c929190613581565b506060820151816003015560808201518160040160006101000a81548160ff02191690831515021790555060a0820151816005015590505080915050919050565b600181565b6000600160008473ffffffffffffffffffffffffffffffffffffffff1673ffffffffffffffffffffffffffffffffffffffff16815260200190815260200160002060008373ffffffffffffffffffffffffffffffffffffffff1673ffffffffffffffffffffffffffffffffffffffff16815260200190815260200160002060009054906101000a900460ff16905092915050565b60007ff23a6e612e1ff4830e658fe43f4e3cb4a5f8170bd5d9e69fb5d7a7fa9e4fdf9790509695505050505050565b611e6d612106565b73ffffffffffffffffffffffffffffffffffffffff168573ffffffffffffffffffffffffffffffffffffffff161480611eb35750611eb285611ead612106565b611da2565b5b611ef2576040517f08c379a0000000000000000000000000000000000000000000000000000000008152600401611ee990614dd7565b60405180910390fd5b611eff85858585856127de565b5050505050565b60007f01ffc9a7000000000000000000000000000000000000000000000000000000007bffffffffffffffffffffffffffffffffffffffffffffffffffffffff1916827bffffffffffffffffffffffffffffffffffffffffffffffffffffffff1916149050919050565b600073ffffffffffffffffffffffffffffffffffffffff168473ffffffffffffffffffffffffffffffffffffffff161415611fe0576040517f08c379a0000000000000000000000000000000000000000000000000000000008152600401611fd790614e69565b60405180910390fd5b6000611fea612106565b905061200b81600087611ffc88612a60565b61200588612a60565b87612ada565b8260008086815260200190815260200160002060008773ffffffffffffffffffffffffffffffffffffffff1673ffffffffffffffffffffffffffffffffffffffff168152602001908152602001600020600082825461206a9190614e89565b925050819055508473ffffffffffffffffffffffffffffffffffffffff16600073ffffffffffffffffffffffffffffffffffffffff168273ffffffffffffffffffffffffffffffffffffffff167fc3d58168c5ae7397731d063d5bbf3d657854427343f4c083240f7aacaa2d0f6287876040516120e8929190614edf565b60405180910390a46120ff81600087878787612c34565b5050505050565b600033905090565b8151835114612152576040517f08c379a000000000000000000000000000000000000000000000000000000000815260040161214990614f7a565b60405180910390fd5b600073ffffffffffffffffffffffffffffffffffffffff168473ffffffffffffffffffffffffffffffffffffffff1614156121c2576040517f08c379a00000000000000000000000000000000000000000000000000000000081526004016121b99061500c565b60405180910390fd5b60006121cc612106565b90506121dc818787878787612ada565b60005b845181101561238d5760008582815181106121fd576121fc6148e7565b5b60200260200101519050600085838151811061221c5761221b6148e7565b5b60200260200101519050600080600084815260200190815260200160002060008b73ffffffffffffffffffffffffffffffffffffffff1673ffffffffffffffffffffffffffffffffffffffff168152602001908152602001600020549050818110156122bd576040517f08c379a00000000000000000000000000000000000000000000000000000000081526004016122b49061509e565b60405180910390fd5b81810360008085815260200190815260200160002060008c73ffffffffffffffffffffffffffffffffffffffff1673ffffffffffffffffffffffffffffffffffffffff168152602001908152602001600020819055508160008085815260200190815260200160002060008b73ffffffffffffffffffffffffffffffffffffffff1673ffffffffffffffffffffffffffffffffffffffff16815260200190815260200160002060008282546123729190614e89565b925050819055505050508061238690614945565b90506121df565b508473ffffffffffffffffffffffffffffffffffffffff168673ffffffffffffffffffffffffffffffffffffffff168273ffffffffffffffffffffffffffffffffffffffff167f4a39dc06d4c0dbc64b70af90fd698a233a518aa5d07e595d983b8c0526c8f7fb87876040516124049291906150be565b60405180910390a461241a818787878787612e0c565b505050505050565b60008060008411612468576040517f08c379a000000000000000000000000000000000000000000000000000000000815260040161245f90615141565b60405180910390fd5b612470612fe4565b8411156124b2576040517f08c379a00000000000000000000000000000000000000000000000000000000081526004016124a9906151ad565b60405180910390fd5b60006124ca8585600001612ff590919063ffffffff16565b905083600001805490508114156124e8576000809250925050612511565b6001846001018281548110612500576124ff6148e7565b5b906000526020600020015492509250505b9250929050565b8173ffffffffffffffffffffffffffffffffffffffff168373ffffffffffffffffffffffffffffffffffffffff161415612587576040517f08c379a000000000000000000000000000000000000000000000000000000000815260040161257e9061523f565b60405180910390fd5b80600160008573ffffffffffffffffffffffffffffffffffffffff1673ffffffffffffffffffffffffffffffffffffffff16815260200190815260200160002060008473ffffffffffffffffffffffffffffffffffffffff1673ffffffffffffffffffffffffffffffffffffffff16815260200190815260200160002060006101000a81548160ff0219169083151502179055508173ffffffffffffffffffffffffffffffffffffffff168373ffffffffffffffffffffffffffffffffffffffff167f17307eab39ab6107e8899845ad3d59bd9653f200f220920489ca2b5937696c3183604051612678919061380e565b60405180910390a3505050565b61268d613607565b6000846040015185602001516126a3919061525f565b90506000856040015190506126c930868460405180602001604052806000815250611f70565b6126e433868360405180602001604052806000815250611f70565b60006040518060c001604052808860000151815260200188606001518152602001886080015181526020014281526020016001151581526020018781525090507f49debfc18817e7e3ec2948391bcc3a87349b3c716f7d470d223bfbf8928aa65a87600001518860600151896080015184606001518b602001518b8b60405161277397969594939291906152af565b60405180910390a18093505050509392505050565b600061279460066130cf565b600061279e612fe4565b90507f8030e83b04d87bef53480e26263266d6ca66863aa8506aca6f2559d18aa1cb67816040516127cf9190613753565b60405180910390a18091505090565b600073ffffffffffffffffffffffffffffffffffffffff168473ffffffffffffffffffffffffffffffffffffffff16141561284e576040517f08c379a00000000000000000000000000000000000000000000000000000000081526004016128459061500c565b60405180910390fd5b6000612858612106565b905061287881878761286988612a60565b61287288612a60565b87612ada565b600080600086815260200190815260200160002060008873ffffffffffffffffffffffffffffffffffffffff1673ffffffffffffffffffffffffffffffffffffffff1681526020019081526020016000205490508381101561290f576040517f08c379a00000000000000000000000000000000000000000000000000000000081526004016129069061509e565b60405180910390fd5b83810360008087815260200190815260200160002060008973ffffffffffffffffffffffffffffffffffffffff1673ffffffffffffffffffffffffffffffffffffffff168152602001908152602001600020819055508360008087815260200190815260200160002060008873ffffffffffffffffffffffffffffffffffffffff1673ffffffffffffffffffffffffffffffffffffffff16815260200190815260200160002060008282546129c49190614e89565b925050819055508573ffffffffffffffffffffffffffffffffffffffff168773ffffffffffffffffffffffffffffffffffffffff168373ffffffffffffffffffffffffffffffffffffffff167fc3d58168c5ae7397731d063d5bbf3d657854427343f4c083240f7aacaa2d0f628888604051612a41929190614edf565b60405180910390a4612a57828888888888612c34565b50505050505050565b60606000600167ffffffffffffffff811115612a7f57612a7e613945565b5b604051908082528060200260200182016040528015612aad5781602001602082028036833780820191505090505b5090508281600081518110612ac557612ac46148e7565b5b60200260200101818152505080915050919050565b600073ffffffffffffffffffffffffffffffffffffffff16600860009054906101000a900473ffffffffffffffffffffffffffffffffffffffff1673ffffffffffffffffffffffffffffffffffffffff1614612c1e576000600860009054906101000a900473ffffffffffffffffffffffffffffffffffffffff16905060005b8451811015612c1b578173ffffffffffffffffffffffffffffffffffffffff16631de841ba8888878581518110612b9457612b936148e7565b5b6020026020010151898681518110612baf57612bae6148e7565b5b60200260200101516040518563ffffffff1660e01b8152600401612bd6949392919061532c565b600060405180830381600087803b158015612bf057600080fd5b505af1158015612c04573d6000803e3d6000fd5b505050508080612c1390614945565b915050612b5a565b50505b612c2c8686868686866130e5565b505050505050565b612c538473ffffffffffffffffffffffffffffffffffffffff166131ab565b15612e04578373ffffffffffffffffffffffffffffffffffffffff1663f23a6e6187878686866040518663ffffffff1660e01b8152600401612c999594939291906153bb565b6020604051808303816000875af1925050508015612cd557506040513d601f19601f82011682018060405250810190612cd2919061542a565b60015b612d7b57612ce1615464565b806308c379a01415612d3e5750612cf6615486565b80612d015750612d40565b806040517f08c379a0000000000000000000000000000000000000000000000000000000008152600401612d3591906138ef565b60405180910390fd5b505b6040517f08c379a0000000000000000000000000000000000000000000000000000000008152600401612d729061558e565b60405180910390fd5b63f23a6e6160e01b7bffffffffffffffffffffffffffffffffffffffffffffffffffffffff1916817bffffffffffffffffffffffffffffffffffffffffffffffffffffffff191614612e02576040517f08c379a0000000000000000000000000000000000000000000000000000000008152600401612df990615620565b60405180910390fd5b505b505050505050565b612e2b8473ffffffffffffffffffffffffffffffffffffffff166131ab565b15612fdc578373ffffffffffffffffffffffffffffffffffffffff1663bc197c8187878686866040518663ffffffff1660e01b8152600401612e71959493929190615640565b6020604051808303816000875af1925050508015612ead57506040513d601f19601f82011682018060405250810190612eaa919061542a565b60015b612f5357612eb9615464565b806308c379a01415612f165750612ece615486565b80612ed95750612f18565b806040517f08c379a0000000000000000000000000000000000000000000000000000000008152600401612f0d91906138ef565b60405180910390fd5b505b6040517f08c379a0000000000000000000000000000000000000000000000000000000008152600401612f4a9061558e565b60405180910390fd5b63bc197c8160e01b7bffffffffffffffffffffffffffffffffffffffffffffffffffffffff1916817bffffffffffffffffffffffffffffffffffffffffffffffffffffffff191614612fda576040517f08c379a0000000000000000000000000000000000000000000000000000000008152600401612fd190615620565b60405180910390fd5b505b505050505050565b6000612ff060066131ce565b905090565b6000808380549050141561300c57600090506130c9565b600080848054905090505b8082101561307057600061302b83836131dc565b905084868281548110613041576130406148e7565b5b9060005260206000200154111561305a5780915061306a565b6001816130679190614e89565b92505b50613017565b6000821180156130a85750838560018461308a919061525f565b8154811061309b5761309a6148e7565b5b9060005260206000200154145b156130c3576001826130ba919061525f565b925050506130c9565b81925050505b92915050565b6001816000016000828254019250508190555050565b600073ffffffffffffffffffffffffffffffffffffffff168573ffffffffffffffffffffffffffffffffffffffff161415613132576131248484613202565b61312d836132bc565b613195565b600073ffffffffffffffffffffffffffffffffffffffff168473ffffffffffffffffffffffffffffffffffffffff16141561317f576131718584613202565b61317a836132bc565b613194565b6131898584613202565b6131938484613202565b5b5b6131a3868686868686613337565b505050505050565b6000808273ffffffffffffffffffffffffffffffffffffffff163b119050919050565b600081600001549050919050565b600060028284186131ed91906156d7565b8284166131fa9190614e89565b905092915050565b60005b81518110156132b7576132a4600460008573ffffffffffffffffffffffffffffffffffffffff1673ffffffffffffffffffffffffffffffffffffffff1681526020019081526020016000206000848481518110613265576132646148e7565b5b6020026020010151815260200190815260200160002061329f85858581518110613292576132916148e7565b5b6020026020010151610705565b6134b1565b80806132af90614945565b915050613205565b505050565b60005b815181101561333357613320600560008484815181106132e2576132e16148e7565b5b6020026020010151815260200190815260200160002061331b84848151811061330e5761330d6148e7565b5b6020026020010151611ae2565b6134b1565b808061332b90614945565b9150506132bf565b5050565b61334586868686868661352c565b600073ffffffffffffffffffffffffffffffffffffffff168573ffffffffffffffffffffffffffffffffffffffff1614156133f75760005b83518110156133f557828181518110613399576133986148e7565b5b6020026020010151600360008684815181106133b8576133b76148e7565b5b6020026020010151815260200190815260200160002060008282546133dd9190614e89565b92505081905550806133ee90614945565b905061337d565b505b600073ffffffffffffffffffffffffffffffffffffffff168473ffffffffffffffffffffffffffffffffffffffff1614156134a95760005b83518110156134a75782818151811061344b5761344a6148e7565b5b60200260200101516003600086848151811061346a576134696148e7565b5b60200260200101518152602001908152602001600020600082825461348f919061525f565b92505081905550806134a090614945565b905061342f565b505b505050505050565b60006134bb612fe4565b9050806134ca84600001613534565b10156135275782600001819080600181540180825580915050600190039060005260206000200160009091909190915055826001018290806001815401808255809150506001900390600052602060002001600090919091909150555b505050565b505050505050565b6000808280549050141561354b576000905061357c565b816001838054905061355d919061525f565b8154811061356e5761356d6148e7565b5b906000526020600020015490505b919050565b82805461358d906146ff565b90600052602060002090601f0160209004810192826135af57600085556135f6565b82601f106135c857805160ff19168380011785556135f6565b828001600101855582156135f6579182015b828111156135f55782518255916020019190600101906135da565b5b509050613603919061363f565b5090565b6040518060c0016040528060008152602001606081526020016060815260200160008152602001600015158152602001600081525090565b5b80821115613658576000816000905550600101613640565b5090565b6000604051905090565b600080fd5b600080fd5b600073ffffffffffffffffffffffffffffffffffffffff82169050919050565b600061369b82613670565b9050919050565b6136ab81613690565b81146136b657600080fd5b50565b6000813590506136c8816136a2565b92915050565b6000819050919050565b6136e1816136ce565b81146136ec57600080fd5b50565b6000813590506136fe816136d8565b92915050565b6000806040838503121561371b5761371a613666565b5b6000613729858286016136b9565b925050602061373a858286016136ef565b9150509250929050565b61374d816136ce565b82525050565b60006020820190506137686000830184613744565b92915050565b60007fffffffff0000000000000000000000000000000000000000000000000000000082169050919050565b6137a38161376e565b81146137ae57600080fd5b50565b6000813590506137c08161379a565b92915050565b6000602082840312156137dc576137db613666565b5b60006137ea848285016137b1565b91505092915050565b60008115159050919050565b613808816137f3565b82525050565b600060208201905061382360008301846137ff565b92915050565b60006020828403121561383f5761383e613666565b5b600061384d848285016136ef565b91505092915050565b600081519050919050565b600082825260208201905092915050565b60005b83811015613890578082015181840152602081019050613875565b8381111561389f576000848401525b50505050565b6000601f19601f8301169050919050565b60006138c182613856565b6138cb8185613861565b93506138db818560208601613872565b6138e4816138a5565b840191505092915050565b6000602082019050818103600083015261390981846138b6565b905092915050565b61391a81613690565b82525050565b60006020820190506139356000830184613911565b92915050565b600080fd5b600080fd5b7f4e487b7100000000000000000000000000000000000000000000000000000000600052604160045260246000fd5b61397d826138a5565b810181811067ffffffffffffffff8211171561399c5761399b613945565b5b80604052505050565b60006139af61365c565b90506139bb8282613974565b919050565b600067ffffffffffffffff8211156139db576139da613945565b5b6139e4826138a5565b9050602081019050919050565b82818337600083830152505050565b6000613a13613a0e846139c0565b6139a5565b905082815260208101848484011115613a2f57613a2e613940565b5b613a3a8482856139f1565b509392505050565b600082601f830112613a5757613a5661393b565b5b8135613a67848260208601613a00565b91505092915050565b600060208284031215613a8657613a85613666565b5b600082013567ffffffffffffffff811115613aa457613aa361366b565b5b613ab084828501613a42565b91505092915050565b60008060408385031215613ad057613acf613666565b5b6000613ade858286016136ef565b9250506020613aef858286016136ef565b9150509250929050565b600060208284031215613b0f57613b0e613666565b5b6000613b1d848285016136b9565b91505092915050565b600067ffffffffffffffff821115613b4157613b40613945565b5b602082029050602081019050919050565b600080fd5b6000613b6a613b6584613b26565b6139a5565b90508083825260208201905060208402830185811115613b8d57613b8c613b52565b5b835b81811015613bb65780613ba288826136ef565b845260208401935050602081019050613b8f565b5050509392505050565b600082601f830112613bd557613bd461393b565b5b8135613be5848260208601613b57565b91505092915050565b600067ffffffffffffffff821115613c0957613c08613945565b5b613c12826138a5565b9050602081019050919050565b6000613c32613c2d84613bee565b6139a5565b905082815260208101848484011115613c4e57613c4d613940565b5b613c598482856139f1565b509392505050565b600082601f830112613c7657613c7561393b565b5b8135613c86848260208601613c1f565b91505092915050565b600080600080600060a08688031215613cab57613caa613666565b5b6000613cb9888289016136b9565b9550506020613cca888289016136b9565b945050604086013567ffffffffffffffff811115613ceb57613cea61366b565b5b613cf788828901613bc0565b935050606086013567ffffffffffffffff811115613d1857613d1761366b565b5b613d2488828901613bc0565b925050608086013567ffffffffffffffff811115613d4557613d4461366b565b5b613d5188828901613c61565b9150509295509295909350565b600067ffffffffffffffff821115613d7957613d78613945565b5b602082029050602081019050919050565b6000613d9d613d9884613d5e565b6139a5565b90508083825260208201905060208402830185811115613dc057613dbf613b52565b5b835b81811015613de95780613dd588826136b9565b845260208401935050602081019050613dc2565b5050509392505050565b600082601f830112613e0857613e0761393b565b5b8135613e18848260208601613d8a565b91505092915050565b60008060408385031215613e3857613e37613666565b5b600083013567ffffffffffffffff811115613e5657613e5561366b565b5b613e6285828601613df3565b925050602083013567ffffffffffffffff811115613e8357613e8261366b565b5b613e8f85828601613bc0565b9150509250929050565b600081519050919050565b600082825260208201905092915050565b6000819050602082019050919050565b613ece816136ce565b82525050565b6000613ee08383613ec5565b60208301905092915050565b6000602082019050919050565b6000613f0482613e99565b613f0e8185613ea4565b9350613f1983613eb5565b8060005b83811015613f4a578151613f318882613ed4565b9750613f3c83613eec565b925050600181019050613f1d565b5085935050505092915050565b60006020820190508181036000830152613f718184613ef9565b905092915050565b60008060408385031215613f9057613f8f613666565b5b600083013567ffffffffffffffff811115613fae57613fad61366b565b5b613fba85828601613a42565b925050602083013567ffffffffffffffff811115613fdb57613fda61366b565b5b613fe785828601613a42565b9150509250929050565b60008060006060848603121561400a57614009613666565b5b6000614018868287016136b9565b9350506020614029868287016136ef565b925050604061403a868287016136ef565b9150509250925092565b60008060008060008060c0878903121561406157614060613666565b5b600061406f89828a016136b9565b965050602061408089828a016136ef565b955050604061409189828a016136ef565b94505060606140a289828a016136ef565b93505060806140b389828a016136ef565b92505060a06140c489828a016136b9565b9150509295509295509295565b600080fd5b600080fd5b600060a082840312156140f1576140f06140d1565b5b6140fb60a06139a5565b9050600061410b848285016136ef565b600083015250602061411f848285016136ef565b6020830152506040614133848285016136ef565b604083015250606082013567ffffffffffffffff811115614157576141566140d6565b5b61416384828501613a42565b606083015250608082013567ffffffffffffffff811115614187576141866140d6565b5b61419384828501613a42565b60808301525092915050565b6000602082840312156141b5576141b4613666565b5b600082013567ffffffffffffffff8111156141d3576141d261366b565b5b6141df848285016140db565b91505092915050565b600060c0820190506141fd6000830189613744565b818103602083015261420f81886138b6565b9050818103604083015261422381876138b6565b90506142326060830186613744565b61423f60808301856137ff565b61424c60a0830184613744565b979650505050505050565b6000806000606084860312156142705761426f613666565b5b600061427e868287016136ef565b935050602061428f868287016136ef565b92505060406142a0868287016136ef565b9150509250925092565b6142b3816137f3565b81146142be57600080fd5b50565b6000813590506142d0816142aa565b92915050565b600080604083850312156142ed576142ec613666565b5b60006142fb858286016136b9565b925050602061430c858286016142c1565b9150509250929050565b600080fd5b60008083601f8401126143315761433061393b565b5b8235905067ffffffffffffffff81111561434e5761434d614316565b5b60208301915083602082028301111561436a57614369613b52565b5b9250929050565b60008083601f8401126143875761438661393b565b5b8235905067ffffffffffffffff8111156143a4576143a3614316565b5b6020830191508360018202830111156143c0576143bf613b52565b5b9250929050565b60008060008060008060008060a0898b0312156143e7576143e6613666565b5b60006143f58b828c016136b9565b98505060206144068b828c016136b9565b975050604089013567ffffffffffffffff8111156144275761442661366b565b5b6144338b828c0161431b565b9650965050606089013567ffffffffffffffff8111156144565761445561366b565b5b6144628b828c0161431b565b9450945050608089013567ffffffffffffffff8111156144855761448461366b565b5b6144918b828c01614371565b92509250509295985092959890939650565b6144ac8161376e565b82525050565b60006020820190506144c760008301846144a3565b92915050565b600080604083850312156144e4576144e3613666565b5b60006144f2858286016136b9565b9250506020614503858286016136b9565b9150509250929050565b60008060008060008060a0878903121561452a57614529613666565b5b600061453889828a016136b9565b965050602061454989828a016136b9565b955050604061455a89828a016136ef565b945050606061456b89828a016136ef565b935050608087013567ffffffffffffffff81111561458c5761458b61366b565b5b61459889828a01614371565b92509250509295509295509295565b600080600080600060a086880312156145c3576145c2613666565b5b60006145d1888289016136b9565b95505060206145e2888289016136b9565b94505060406145f3888289016136ef565b9350506060614604888289016136ef565b925050608086013567ffffffffffffffff8111156146255761462461366b565b5b61463188828901613c61565b9150509295509295909350565b7f455243313135353a2062616c616e636520717565727920666f7220746865207a60008201527f65726f2061646472657373000000000000000000000000000000000000000000602082015250565b600061469a602b83613861565b91506146a58261463e565b604082019050919050565b600060208201905081810360008301526146c98161468d565b9050919050565b7f4e487b7100000000000000000000000000000000000000000000000000000000600052602260045260246000fd5b6000600282049050600182168061471757607f821691505b6020821081141561472b5761472a6146d0565b5b50919050565b7f554e415554484f52495a45443a2043414e4e4f545f504552464f524d5f41435460008201527f494f4e0000000000000000000000000000000000000000000000000000000000602082015250565b600061478d602383613861565b915061479882614731565b604082019050919050565b600060208201905081810360008301526147bc81614780565b9050919050565b7f455243313135353a207472616e736665722063616c6c6572206973206e6f742060008201527f6f776e6572206e6f7220617070726f7665640000000000000000000000000000602082015250565b600061481f603283613861565b915061482a826147c3565b604082019050919050565b6000602082019050818103600083015261484e81614812565b9050919050565b7f455243313135353a206163636f756e747320616e6420696473206c656e67746860008201527f206d69736d617463680000000000000000000000000000000000000000000000602082015250565b60006148b1602983613861565b91506148bc82614855565b604082019050919050565b600060208201905081810360008301526148e0816148a4565b9050919050565b7f4e487b7100000000000000000000000000000000000000000000000000000000600052603260045260246000fd5b7f4e487b7100000000000000000000000000000000000000000000000000000000600052601160045260246000fd5b6000614950826136ce565b91507fffffffffffffffffffffffffffffffffffffffffffffffffffffffffffffffff82141561498357614982614916565b5b600182019050919050565b600081905092915050565b60006149a482613856565b6149ae818561498e565b93506149be818560208601613872565b80840191505092915050565b60006149d68284614999565b915081905092915050565b600060a0820190506149f66000830188613911565b614a036020830187613744565b614a106040830186613744565b614a1d6060830185613744565b614a2a6080830184613744565b9695505050505050565b60008190508160005260206000209050919050565b60008154614a56816146ff565b614a60818661498e565b94506001821660008114614a7b5760018114614a8c57614abf565b60ff19831686528186019350614abf565b614a9585614a34565b60005b83811015614ab757815481890152600182019150602081019050614a98565b838801955050505b50505092915050565b6000614ad48284614a49565b915081905092915050565b600081519050919050565b600081905092915050565b6000614b0082614adf565b614b0a8185614aea565b9350614b1a818560208601613872565b80840191505092915050565b6000614b328285614af5565b9150614b3e8284614999565b91508190509392505050565b7f494e56414c49443a20544f4b454e5f49445f414c52454144595f494e5f555345600082015250565b6000614b80602083613861565b9150614b8b82614b4a565b602082019050919050565b60006020820190508181036000830152614baf81614b73565b9050919050565b7f494e56414c49443a20544f4b454e5f53594d424f4c5f414c52454144595f494e60008201527f5f55534500000000000000000000000000000000000000000000000000000000602082015250565b6000614c12602483613861565b9150614c1d82614bb6565b604082019050919050565b60006020820190508181036000830152614c4181614c05565b9050919050565b7f494e56414c49443a2057524f4e475f5245434f52445f49440000000000000000600082015250565b6000614c7e601883613861565b9150614c8982614c48565b602082019050919050565b60006020820190508181036000830152614cad81614c71565b9050919050565b7f494e56414c49443a2057524f4e475f544f4b454e5f4944000000000000000000600082015250565b6000614cea601783613861565b9150614cf582614cb4565b602082019050919050565b60006020820190508181036000830152614d1981614cdd565b9050919050565b6000608082019050614d356000830187613744565b614d426020830186613744565b614d4f6040830185613744565b614d5c6060830184613744565b95945050505050565b7f455243313135353a2063616c6c6572206973206e6f74206f776e6572206e6f7260008201527f20617070726f7665640000000000000000000000000000000000000000000000602082015250565b6000614dc1602983613861565b9150614dcc82614d65565b604082019050919050565b60006020820190508181036000830152614df081614db4565b9050919050565b7f455243313135353a206d696e7420746f20746865207a65726f2061646472657360008201527f7300000000000000000000000000000000000000000000000000000000000000602082015250565b6000614e53602183613861565b9150614e5e82614df7565b604082019050919050565b60006020820190508181036000830152614e8281614e46565b9050919050565b6000614e94826136ce565b9150614e9f836136ce565b9250827fffffffffffffffffffffffffffffffffffffffffffffffffffffffffffffffff03821115614ed457614ed3614916565b5b828201905092915050565b6000604082019050614ef46000830185613744565b614f016020830184613744565b9392505050565b7f455243313135353a2069647320616e6420616d6f756e7473206c656e6774682060008201527f6d69736d61746368000000000000000000000000000000000000000000000000602082015250565b6000614f64602883613861565b9150614f6f82614f08565b604082019050919050565b60006020820190508181036000830152614f9381614f57565b9050919050565b7f455243313135353a207472616e7366657220746f20746865207a65726f20616460008201527f6472657373000000000000000000000000000000000000000000000000000000602082015250565b6000614ff6602583613861565b915061500182614f9a565b604082019050919050565b6000602082019050818103600083015261502581614fe9565b9050919050565b7f455243313135353a20696e73756666696369656e742062616c616e636520666f60008201527f72207472616e7366657200000000000000000000000000000000000000000000602082015250565b6000615088602a83613861565b91506150938261502c565b604082019050919050565b600060208201905081810360008301526150b78161507b565b9050919050565b600060408201905081810360008301526150d88185613ef9565b905081810360208301526150ec8184613ef9565b90509392505050565b7f4552433230536e617073686f743a206964206973203000000000000000000000600082015250565b600061512b601683613861565b9150615136826150f5565b602082019050919050565b6000602082019050818103600083015261515a8161511e565b9050919050565b7f4552433230536e617073686f743a206e6f6e6578697374656e74206964000000600082015250565b6000615197601d83613861565b91506151a282615161565b602082019050919050565b600060208201905081810360008301526151c68161518a565b9050919050565b7f455243313135353a2073657474696e6720617070726f76616c2073746174757360008201527f20666f722073656c660000000000000000000000000000000000000000000000602082015250565b6000615229602983613861565b9150615234826151cd565b604082019050919050565b600060208201905081810360008301526152588161521c565b9050919050565b600061526a826136ce565b9150615275836136ce565b92508282101561528857615287614916565b5b828203905092915050565b600060ff82169050919050565b6152a981615293565b82525050565b600060e0820190506152c4600083018a613744565b81810360208301526152d681896138b6565b905081810360408301526152ea81886138b6565b90506152f96060830187613744565b6153066080830186613744565b61531360a0830185613744565b61532060c08301846152a0565b98975050505050505050565b60006080820190506153416000830187613911565b61534e6020830186613911565b61535b6040830185613744565b6153686060830184613744565b95945050505050565b600082825260208201905092915050565b600061538d82614adf565b6153978185615371565b93506153a7818560208601613872565b6153b0816138a5565b840191505092915050565b600060a0820190506153d06000830188613911565b6153dd6020830187613911565b6153ea6040830186613744565b6153f76060830185613744565b81810360808301526154098184615382565b90509695505050505050565b6000815190506154248161379a565b92915050565b6000602082840312156154405761543f613666565b5b600061544e84828501615415565b91505092915050565b60008160e01c9050919050565b600060033d11156154835760046000803e615480600051615457565b90505b90565b600060443d101561549657615519565b61549e61365c565b60043d036004823e80513d602482011167ffffffffffffffff821117156154c6575050615519565b808201805167ffffffffffffffff8111156154e45750505050615519565b80602083010160043d038501811115615501575050505050615519565b61551082602001850186613974565b82955050505050505b90565b7f455243313135353a207472616e7366657220746f206e6f6e204552433131353560008201527f526563656976657220696d706c656d656e746572000000000000000000000000602082015250565b6000615578603483613861565b91506155838261551c565b604082019050919050565b600060208201905081810360008301526155a78161556b565b9050919050565b7f455243313135353a204552433131353552656365697665722072656a6563746560008201527f6420746f6b656e73000000000000000000000000000000000000000000000000602082015250565b600061560a602883613861565b9150615615826155ae565b604082019050919050565b60006020820190508181036000830152615639816155fd565b9050919050565b600060a0820190506156556000830188613911565b6156626020830187613911565b81810360408301526156748186613ef9565b905081810360608301526156888185613ef9565b9050818103608083015261569c8184615382565b90509695505050505050565b7f4e487b7100000000000000000000000000000000000000000000000000000000600052601260045260246000fd5b60006156e2826136ce565b91506156ed836136ce565b9250826156fd576156fc6156a8565b5b82820490509291505056fe546f6b656e206d696e746564207468726f75676820766f74696e672070726f63657373a2646970667358221220b9625af863d62b3c0fad656da0823d3dd9025d963d5c527da208abc0a06b418764736f6c634300080c0033",
  "immutableReferences": {},
  "source": "pragma solidity ^0.8.0;\n\nimport \"@openzeppelin/contracts/token/ERC1155/ERC1155.sol\";\nimport \"@openzeppelin/contracts/token/ERC1155/IERC1155Receiver.sol\";\nimport \"@openzeppelin/contracts/token/ERC1155/extensions/ERC1155Supply.sol\";\nimport \"@openzeppelin/contracts/utils/Counters.sol\";\nimport \"@openzeppelin/contracts/access/Ownable.sol\";\nimport \"../interface/IRecords.sol\";\nimport \"../ERC1155/SnapshotERC1155.sol\";\nimport \"@openzeppelin/contracts/utils/math/SafeMath.sol\";\nimport \"../voting/VotingHubContract.sol\";\n\ncontract TreasuryCoreContract is IERC1155Receiver, SnapshotERC1155 {\n    uint256 public constant CRD = 1;\n    uint256 private LastTokenId = 1;\n    address public VOTING_HUB_ADDRESS;\n    address public TREASURY_CONTRACT_ADDRESS;\n    address public OWNER;\n    string private PREFIX_GOVERNANCE = \"CRDG_\";\n    string private PREFIX_COMMUNITY = \"CRD_\";\n    uint8 private TOKEN_TYPE_COMMUNITY = 0;\n    uint8 private TOKEN_TYPE_GOVERNANCE = 1;\n\n    /// @dev This structure will store information of tokens for each records\n    /// @param recordId This is the id of record to which a token belongs\n    /// @param symbol This is the symbol of a token\n    /// @param image This is the token image\n    /// @param creationDate This is the block number of creation date\n    /// @param isPresent This is to check if a token struct exists or not\n    /// @param tokenId This is the id of the token that is created\n    struct Token {\n        uint256 recordId;\n        string symbol;\n        string image;\n        uint256 creationDate;\n        bool isPresent;\n        uint256 tokenId;\n    }\n\n    /// @dev This structure will store information of the contribution\n    /// @param recordId This is the id of the record to which contribution belongs to\n    /// @param totalSupply Total supply of token\n    /// @param userBalance The amount of tokens that goes into creators wallet\n    /// @param symbol This is the symbol of the token\n    /// @param image This is the link of the image / icon of the token\n    struct NewTokenData {\n        uint256 recordId;\n        uint256 totalSupply;\n        uint256 userBalance;\n        string symbol;\n        string image;\n    }\n\n    /// @dev this is event which is created when a token transfer takes place\n    /// @param from This is the address of sender\n    /// @param to This is the address of receiver\n    /// @param transferDate This is the date of the transfer\n    /// @param tokenId This is the id of the token that is being transferred\n    /// @param amount This is the amount of token transferred\n    /// @param symbol This is the symbol of the token that were transferred\n    event TokenTransfer(\n        address from,\n        address to,\n        uint256 transferDate,\n        uint256 tokenId,\n        uint256 amount,\n        string symbol\n    );\n\n    /// @dev this is event which is created when new governance token is created (NEW CREATION Not MINTING)\n    /// @param recordId This is the record Id to which this token belongs to\n    /// @param symbol This is the symbol of the governance token\n    /// @param image This is the image of the token\n    /// @param creationDate This is the creation date of the token\n    /// @param tokenAmount This is the amount of token that are created\n    /// @param tokenId This is the id of token that is newly created tokens\n    /// @param tokenType This is the type of the token that is created => For governance 1 and for copyright 0\n    event NewTokenCreated(\n        uint256 recordId,\n        string symbol,\n        string image,\n        uint256 creationDate,\n        uint256 tokenAmount,\n        uint256 tokenId,\n        uint8 tokenType\n    );\n\n    /// @dev this is event which is created when new governance token is minted after the voting is done\n    /// @param recordId This is the record Id to which this token belongs to\n    /// @param creationDate This is the creation date of the token\n    /// @param tokenAmount This is the amount of token that are created\n    /// @param tokenId This is the id of token that is newly created tokens\n    event TokenMinted(\n        uint256 recordId,\n        uint256 tokenId,\n        uint256 creationDate,\n        uint256 tokenAmount\n    );\n\n    /// @dev this is event which is generated when a contribution voting has came to an\n    /// end and the contribution is accepted\n    /// @param to This the address of the winner or the owner of the contribution\n    /// @param recordId This is the id of the record to which this contribution relates to\n    /// @param contributionId This is the id of the contribution to which the record is related to\n    /// @param rewardGovernance The reward amount for governance tokens\n    /// @param rewardCommunity The reward amount for community tokens\n    event ContributionRewardTransferred(\n        address to,\n        uint256 recordId,\n        uint256 contributionId,\n        uint256 rewardGovernance,\n        uint256 rewardCommunity\n    );\n\n    mapping(uint256 => Token) public govTokenMapping;\n    mapping(uint256 => Token) public commTokenMapping;\n\n    mapping(string => bool) public govTokenSym;\n    mapping(string => bool) public commTokenSym;\n\n    // By default URI to crowdrecords domain\n    // 18 decimal points supported\n    constructor(address owner) ERC1155(\"https://crowdrecords.com/{id}\") {\n        OWNER = owner;\n    }\n\n    /// @dev Modifier to check that the person who accesses a specific function is the owner of contract himself.\n    modifier ownerOnly() {\n        require(msg.sender == OWNER, \"UNAUTHORIZED: CANNOT_PERFORM_ACTION\");\n        _;\n    }\n\n    /// @dev Modifier to check that the person who accesses a specific function is the owner of contract himself.\n    modifier onlyTreasuryContract() {\n        require(\n            msg.sender == TREASURY_CONTRACT_ADDRESS,\n            \"UNAUTHORIZED: CANNOT_PERFORM_ACTION\"\n        );\n        _;\n    }\n\n    /// @dev This function sets the Records Contract address\n    /// @param newVotingHubContract This is the address of new voting hub contract\n    function setVotingHubContract(address newVotingHubContract)\n        public\n        ownerOnly\n    {\n        VOTING_HUB_ADDRESS = newVotingHubContract;\n    }\n\n    /// @dev This function sets the treasury Contract address\n    /// @param newTreasuryAddress This is the address of new voting hub contract\n    function setTreasuryContract(address newTreasuryAddress) public ownerOnly {\n        TREASURY_CONTRACT_ADDRESS = newTreasuryAddress;\n    }\n\n    /// @dev This function creates new governance tokens for specified record\n    /// @param newTokenData This contains all the parameters needed to create a new governance token that are\n    function createNewGovernanceToken(NewTokenData memory newTokenData)\n        external\n        onlyTreasuryContract\n        returns (uint256)\n    {\n        {\n            bytes memory preString = abi.encodePacked(PREFIX_GOVERNANCE);\n            newTokenData.symbol = string(\n                abi.encodePacked(preString, newTokenData.symbol)\n            );\n        }\n\n        require(\n            govTokenMapping[newTokenData.recordId].isPresent == false,\n            \"INVALID: TOKEN_ID_ALREADY_IN_USE\"\n        );\n\n        require(\n            govTokenSym[newTokenData.symbol] == false,\n            \"INVALID: TOKEN_SYMBOL_ALREADY_IN_USE\"\n        );\n\n        LastTokenId++;\n        uint256 newTokenId = LastTokenId;\n\n        //Map the recordId with the\n        govTokenMapping[newTokenData.recordId] = createToken(\n            newTokenData,\n            newTokenId,\n            TOKEN_TYPE_GOVERNANCE\n        );\n\n        return newTokenId;\n    }\n\n    /// @dev This function creats new community tokens for specified record\n    /// @param newTokenData This contains all the parameters needed to create a new community token that are\n    function createNewCommunityToken(NewTokenData memory newTokenData)\n        external\n        onlyTreasuryContract\n        returns (uint256)\n    {\n        {\n            bytes memory preString = abi.encodePacked(PREFIX_COMMUNITY);\n            newTokenData.symbol = string(\n                abi.encodePacked(preString, newTokenData.symbol)\n            );\n        }\n\n        require(\n            commTokenMapping[newTokenData.recordId].isPresent == false,\n            \"INVALID: TOKEN_ID_ALREADY_IN_USE\"\n        );\n\n        require(\n            commTokenSym[newTokenData.symbol] == false,\n            \"INVALID: TOKEN_SYMBOL_ALREADY_IN_USE\"\n        );\n\n        LastTokenId++;\n        uint256 newTokenId = LastTokenId;\n\n        //Map the recordId with the\n        commTokenMapping[newTokenData.recordId] = createToken(\n            newTokenData,\n            newTokenId,\n            TOKEN_TYPE_COMMUNITY\n        );\n\n        return newTokenId;\n    }\n\n    /// @dev This function is an internal use only function whoes role is to create a new token of specified type\n    /// @param newTokenData This contains all the parameters needed to create a new community token that are\n    /// @param newTokenId - This is the Id of the token to create\n    /// @param tokenType - This is the type of token that is to be created such as community or governance\n    function createToken(\n        NewTokenData memory newTokenData,\n        uint256 newTokenId,\n        uint8 tokenType\n    ) private returns (Token memory) {\n        //!Add check for the totalsupply > userBalance\n\n        uint256 treasuryAmount = (newTokenData.totalSupply -\n            newTokenData.userBalance);\n        uint256 userAmount = newTokenData.userBalance;\n\n        // Here minting of new tokens is done. And those are sent directly into the treasury\n        _mint(address(this), newTokenId, treasuryAmount, \"\");\n\n        // The user requested amount of tokens is genrated and send to his account\n        _mint(msg.sender, newTokenId, userAmount, \"\");\n\n        Token memory token = Token({\n            recordId: newTokenData.recordId,\n            symbol: newTokenData.symbol,\n            image: newTokenData.image,\n            creationDate: block.timestamp,\n            isPresent: true,\n            tokenId: newTokenId\n        });\n\n        emit NewTokenCreated({\n            recordId: newTokenData.recordId,\n            symbol: newTokenData.symbol,\n            image: newTokenData.image,\n            creationDate: token.creationDate,\n            tokenAmount: newTokenData.totalSupply,\n            tokenId: newTokenId,\n            tokenType: tokenType\n        });\n\n        return token;\n    }\n\n    /// @dev This function creats new community tokens for specified record\n    /// @param recordId This is the id of the record to which the token belongs to\n    /// @param tokenId This is the id of the which is to be minted\n    /// @param tokenAmount This is the amount that is to be minted\n    function mintTokens(\n        uint256 recordId,\n        uint256 tokenId,\n        uint256 tokenAmount\n    ) external onlyTreasuryContract {\n        require(\n            commTokenMapping[recordId].isPresent == true ||\n                govTokenMapping[recordId].isPresent == true,\n            \"INVALID: WRONG_RECORD_ID\"\n        );\n\n        require(\n            commTokenMapping[recordId].tokenId == tokenId ||\n                govTokenMapping[recordId].tokenId == tokenId,\n            \"INVALID: WRONG_TOKEN_ID\"\n        );\n\n        // Here minting of new tokens is done. And those are sent directly into the treasury\n        _mint(\n            address(this),\n            tokenId,\n            tokenAmount,\n            \"Token minted through voting process\"\n        );\n\n        emit TokenMinted({\n            recordId: recordId,\n            tokenId: tokenId,\n            creationDate: block.timestamp,\n            tokenAmount: tokenAmount\n        });\n    }\n\n    /// @dev This function is called only by the voting contract once the voting ends\n    /// @param to This is the receivers address\n    /// @param recordId This is the recordId to which the contribution belongs to\n    /// @param contributionId this is the contribution id to which the user has won\n    /// @param rewardGovernance this is the amount of Governance token that needs to be transferred\n    /// @param rewardCommunity this is the amount of community token that needs to be transferred\n    function transferRewardAmount(\n        address to,\n        uint256 recordId,\n        uint256 contributionId,\n        uint256 rewardGovernance,\n        uint256 rewardCommunity,\n        address contributionVotingContractAddress\n    ) external onlyTreasuryContract {\n        _setApprovalForAll(\n            address(this),\n            contributionVotingContractAddress,\n            true\n        );\n        if (rewardGovernance > 0) {\n            safeTransferFrom(\n                address(this),\n                to,\n                govTokenMapping[recordId].tokenId,\n                rewardGovernance,\n                \"\"\n            );\n        }\n\n        if (rewardCommunity > 0) {\n            safeTransferFrom(\n                address(this),\n                to,\n                commTokenMapping[recordId].tokenId,\n                rewardCommunity,\n                \"\"\n            );\n        }\n\n        emit ContributionRewardTransferred({\n            to: to,\n            recordId: recordId,\n            contributionId: contributionId,\n            rewardGovernance: rewardGovernance,\n            rewardCommunity: rewardCommunity\n        });\n    }\n\n    // Update balance and/or total supply snapshots before the values are modified. This is implemented\n    // in the _beforeTokenTransfer hook, which is executed for _mint, _burn, and _transfer operations.\n    function _beforeTokenTransfer(\n        address operator,\n        address from,\n        address to,\n        uint256[] memory ids,\n        uint256[] memory amounts,\n        bytes memory data\n    ) internal override {\n        //Below condition is needed as the _mint is called in the constructor\n        //and at that particular point in time the below address is not initialized thus leading to a revert\n        if (VOTING_HUB_ADDRESS != address(0)) {\n            VotingHubContract votingHubContract = VotingHubContract(\n                VOTING_HUB_ADDRESS\n            );\n\n            for (uint256 i = 0; i < ids.length; i++) {\n                votingHubContract.handleUserTokenTransfers(\n                    from,\n                    to,\n                    amounts[i],\n                    ids[i]\n                );\n            }\n        }\n\n        super._beforeTokenTransfer(operator, from, to, ids, amounts, data);\n    }\n\n    /// @dev This function sets the symbol name as used, this function is called from records\n    // contract to reserve symbol for new version creation\n    /// @param governanceSymbol Symbol for governance token\n    /// @param communitySymbol Symbol for community token\n    function setSymbolsAsUsed(\n        string memory governanceSymbol,\n        string memory communitySymbol\n    ) external onlyTreasuryContract {\n        commTokenSym[communitySymbol] = true;\n        govTokenSym[governanceSymbol] = true;\n    }\n\n    /// @dev This function sets the symbol name as available, this function is called from records\n    // contract to reserve symbol for new version creation\n    /// @param governanceSymbol Symbol for governance token\n    /// @param communitySymbol Symbol for community token\n    function setSymbolsAsAvailable(\n        string memory governanceSymbol,\n        string memory communitySymbol\n    ) external onlyTreasuryContract {\n        commTokenSym[communitySymbol] = true;\n        govTokenSym[governanceSymbol] = true;\n    }\n\n    function snapshot()\n        external\n        onlyTreasuryContract\n        returns (uint256 snapshotId)\n    {\n        return _snapshot();\n    }\n\n    function mint(uint256 tokenId, uint256 amount)\n        external\n        onlyTreasuryContract\n    {\n        _mint(address(this), tokenId, amount, \"New tokens minted\");\n    }\n\n    function onERC1155Received(\n        address operator,\n        address from,\n        uint256 id,\n        uint256 value,\n        bytes calldata data\n    ) external virtual override returns (bytes4) {\n        return\n            bytes4(\n                keccak256(\n                    \"onERC1155Received(address,address,uint256,uint256,bytes)\"\n                )\n            );\n    }\n\n    function onERC1155BatchReceived(\n        address operator,\n        address from,\n        uint256[] calldata ids,\n        uint256[] calldata values,\n        bytes calldata data\n    ) external virtual override returns (bytes4) {\n        return\n            bytes4(\n                keccak256(\n                    \"onERC1155BatchReceived(address,address,uint256[],uint256[],bytes)\"\n                )\n            );\n    }\n}\n",
  "sourcePath": "/Users/a1/Desktop/Office/projects/CrowdRecords/Contracts/contracts/treasury/TreasuryCoreContract.sol",
  "compiler": {
    "name": "solc",
    "version": "0.8.12+commit.f00d7308.Emscripten.clang"
  },
  "schemaVersion": "3.4.6",
  "updatedAt": "2022-09-19T09:06:34.879Z",
  "networkType": "ethereum",
  "devdoc": {
    "events": {
      "ContributionRewardTransferred(address,uint256,uint256,uint256,uint256)": {
        "details": "this is event which is generated when a contribution voting has came to an end and the contribution is accepted",
        "params": {
          "contributionId": "This is the id of the contribution to which the record is related to",
          "recordId": "This is the id of the record to which this contribution relates to",
          "rewardCommunity": "The reward amount for community tokens",
          "rewardGovernance": "The reward amount for governance tokens",
          "to": "This the address of the winner or the owner of the contribution"
        }
      },
      "NewTokenCreated(uint256,string,string,uint256,uint256,uint256,uint8)": {
        "details": "this is event which is created when new governance token is created (NEW CREATION Not MINTING)",
        "params": {
          "creationDate": "This is the creation date of the token",
          "image": "This is the image of the token",
          "recordId": "This is the record Id to which this token belongs to",
          "symbol": "This is the symbol of the governance token",
          "tokenAmount": "This is the amount of token that are created",
          "tokenId": "This is the id of token that is newly created tokens",
          "tokenType": "This is the type of the token that is created => For governance 1 and for copyright 0"
        }
      },
      "TokenMinted(uint256,uint256,uint256,uint256)": {
        "details": "this is event which is created when new governance token is minted after the voting is done",
        "params": {
          "creationDate": "This is the creation date of the token",
          "recordId": "This is the record Id to which this token belongs to",
          "tokenAmount": "This is the amount of token that are created",
          "tokenId": "This is the id of token that is newly created tokens"
        }
      },
      "TokenTransfer(address,address,uint256,uint256,uint256,string)": {
        "details": "this is event which is created when a token transfer takes place",
        "params": {
          "amount": "This is the amount of token transferred",
          "from": "This is the address of sender",
          "symbol": "This is the symbol of the token that were transferred",
          "to": "This is the address of receiver",
          "tokenId": "This is the id of the token that is being transferred",
          "transferDate": "This is the date of the transfer"
        }
      }
    },
    "kind": "dev",
    "methods": {
      "balanceOf(address,uint256)": {
        "details": "See {IERC1155-balanceOf}. Requirements: - `account` cannot be the zero address."
      },
      "balanceOfAt(address,uint256,uint256)": {
        "details": "Retrieves the balance of `account` at the time `snapshotId` was created."
      },
      "balanceOfBatch(address[],uint256[])": {
        "details": "See {IERC1155-balanceOfBatch}. Requirements: - `accounts` and `ids` must have the same length."
      },
      "createNewCommunityToken((uint256,uint256,uint256,string,string))": {
        "details": "This function creats new community tokens for specified record",
        "params": {
          "newTokenData": "This contains all the parameters needed to create a new community token that are"
        }
      },
      "createNewGovernanceToken((uint256,uint256,uint256,string,string))": {
        "details": "This function creates new governance tokens for specified record",
        "params": {
          "newTokenData": "This contains all the parameters needed to create a new governance token that are"
        }
      },
      "exists(uint256)": {
        "details": "Indicates whether any token exist with a given id, or not."
      },
      "isApprovedForAll(address,address)": {
        "details": "See {IERC1155-isApprovedForAll}."
      },
      "mintTokens(uint256,uint256,uint256)": {
        "details": "This function creats new community tokens for specified record",
        "params": {
          "recordId": "This is the id of the record to which the token belongs to",
          "tokenAmount": "This is the amount that is to be minted",
          "tokenId": "This is the id of the which is to be minted"
        }
      },
      "onERC1155BatchReceived(address,address,uint256[],uint256[],bytes)": {
        "details": "Handles the receipt of a multiple ERC1155 token types. This function is called at the end of a `safeBatchTransferFrom` after the balances have been updated. NOTE: To accept the transfer(s), this must return `bytes4(keccak256(\"onERC1155BatchReceived(address,address,uint256[],uint256[],bytes)\"))` (i.e. 0xbc197c81, or its own function selector).",
        "params": {
          "data": "Additional data with no specified format",
          "from": "The address which previously owned the token",
          "ids": "An array containing ids of each token being transferred (order and length must match values array)",
          "operator": "The address which initiated the batch transfer (i.e. msg.sender)",
          "values": "An array containing amounts of each token being transferred (order and length must match ids array)"
        },
        "returns": {
          "_0": "`bytes4(keccak256(\"onERC1155BatchReceived(address,address,uint256[],uint256[],bytes)\"))` if transfer is allowed"
        }
      },
      "onERC1155Received(address,address,uint256,uint256,bytes)": {
        "details": "Handles the receipt of a single ERC1155 token type. This function is called at the end of a `safeTransferFrom` after the balance has been updated. NOTE: To accept the transfer, this must return `bytes4(keccak256(\"onERC1155Received(address,address,uint256,uint256,bytes)\"))` (i.e. 0xf23a6e61, or its own function selector).",
        "params": {
          "data": "Additional data with no specified format",
          "from": "The address which previously owned the token",
          "id": "The ID of the token being transferred",
          "operator": "The address which initiated the transfer (i.e. msg.sender)",
          "value": "The amount of tokens being transferred"
        },
        "returns": {
          "_0": "`bytes4(keccak256(\"onERC1155Received(address,address,uint256,uint256,bytes)\"))` if transfer is allowed"
        }
      },
      "safeBatchTransferFrom(address,address,uint256[],uint256[],bytes)": {
        "details": "See {IERC1155-safeBatchTransferFrom}."
      },
      "safeTransferFrom(address,address,uint256,uint256,bytes)": {
        "details": "See {IERC1155-safeTransferFrom}."
      },
      "setApprovalForAll(address,bool)": {
        "details": "See {IERC1155-setApprovalForAll}."
      },
      "setSymbolsAsAvailable(string,string)": {
        "params": {
          "communitySymbol": "Symbol for community token",
          "governanceSymbol": "Symbol for governance token"
        }
      },
      "setSymbolsAsUsed(string,string)": {
        "params": {
          "communitySymbol": "Symbol for community token",
          "governanceSymbol": "Symbol for governance token"
        }
      },
      "setTreasuryContract(address)": {
        "details": "This function sets the treasury Contract address",
        "params": {
          "newTreasuryAddress": "This is the address of new voting hub contract"
        }
      },
      "setVotingHubContract(address)": {
        "details": "This function sets the Records Contract address",
        "params": {
          "newVotingHubContract": "This is the address of new voting hub contract"
        }
      },
      "supportsInterface(bytes4)": {
        "details": "See {IERC165-supportsInterface}."
      },
      "totalSupply(uint256)": {
        "details": "Total amount of tokens in with a given id."
      },
      "totalSupplyAt(uint256,uint256)": {
        "details": "Retrieves the total supply at the time `snapshotId` was created."
      },
      "transferRewardAmount(address,uint256,uint256,uint256,uint256,address)": {
        "details": "This function is called only by the voting contract once the voting ends",
        "params": {
          "contributionId": "this is the contribution id to which the user has won",
          "recordId": "This is the recordId to which the contribution belongs to",
          "rewardCommunity": "this is the amount of community token that needs to be transferred",
          "rewardGovernance": "this is the amount of Governance token that needs to be transferred",
          "to": "This is the receivers address"
        }
      },
      "uri(uint256)": {
        "details": "See {IERC1155MetadataURI-uri}. This implementation returns the same URI for *all* token types. It relies on the token type ID substitution mechanism https://eips.ethereum.org/EIPS/eip-1155#metadata[defined in the EIP]. Clients calling this function must replace the `\\{id\\}` substring with the actual token type ID."
      }
    },
    "version": 1
  },
  "userdoc": {
    "kind": "user",
    "methods": {},
    "version": 1
  }
}