{
  "contractName": "TreasuryCoreContract",
  "abi": [
    {
      "inputs": [
        {
          "internalType": "address",
          "name": "owner",
          "type": "address"
        }
      ],
      "stateMutability": "nonpayable",
      "type": "constructor"
    },
    {
      "anonymous": false,
      "inputs": [
        {
          "indexed": true,
          "internalType": "address",
          "name": "account",
          "type": "address"
        },
        {
          "indexed": true,
          "internalType": "address",
          "name": "operator",
          "type": "address"
        },
        {
          "indexed": false,
          "internalType": "bool",
          "name": "approved",
          "type": "bool"
        }
      ],
      "name": "ApprovalForAll",
      "type": "event"
    },
    {
      "anonymous": false,
      "inputs": [
        {
          "indexed": false,
          "internalType": "address",
          "name": "to",
          "type": "address"
        },
        {
          "indexed": false,
          "internalType": "uint256",
          "name": "recordId",
          "type": "uint256"
        },
        {
          "indexed": false,
          "internalType": "uint256",
          "name": "contributionId",
          "type": "uint256"
        },
        {
          "indexed": false,
          "internalType": "uint256",
          "name": "rewardGovernance",
          "type": "uint256"
        },
        {
          "indexed": false,
          "internalType": "uint256",
          "name": "rewardCommunity",
          "type": "uint256"
        }
      ],
      "name": "ContributionRewardTransferred",
      "type": "event"
    },
    {
      "anonymous": false,
      "inputs": [
        {
          "indexed": false,
          "internalType": "uint8",
          "name": "version",
          "type": "uint8"
        }
      ],
      "name": "Initialized",
      "type": "event"
    },
    {
      "anonymous": false,
      "inputs": [
        {
          "indexed": false,
          "internalType": "uint256",
          "name": "recordId",
          "type": "uint256"
        },
        {
          "indexed": false,
          "internalType": "string",
          "name": "symbol",
          "type": "string"
        },
        {
          "indexed": false,
          "internalType": "string",
          "name": "image",
          "type": "string"
        },
        {
          "indexed": false,
          "internalType": "uint256",
          "name": "creationDate",
          "type": "uint256"
        },
        {
          "indexed": false,
          "internalType": "uint256",
          "name": "tokenAmount",
          "type": "uint256"
        },
        {
          "indexed": false,
          "internalType": "uint256",
          "name": "tokenId",
          "type": "uint256"
        },
        {
          "indexed": false,
          "internalType": "uint8",
          "name": "tokenType",
          "type": "uint8"
        }
      ],
      "name": "NewTokenCreated",
      "type": "event"
    },
    {
      "anonymous": false,
      "inputs": [
        {
          "indexed": false,
          "internalType": "uint256",
          "name": "id",
          "type": "uint256"
        }
      ],
      "name": "Snapshot",
      "type": "event"
    },
    {
      "anonymous": false,
      "inputs": [
        {
          "indexed": false,
          "internalType": "uint256",
          "name": "recordId",
          "type": "uint256"
        },
        {
          "indexed": false,
          "internalType": "uint256",
          "name": "tokenId",
          "type": "uint256"
        },
        {
          "indexed": false,
          "internalType": "uint256",
          "name": "creationDate",
          "type": "uint256"
        },
        {
          "indexed": false,
          "internalType": "uint256",
          "name": "tokenAmount",
          "type": "uint256"
        }
      ],
      "name": "TokenMinted",
      "type": "event"
    },
    {
      "anonymous": false,
      "inputs": [
        {
          "indexed": false,
          "internalType": "address",
          "name": "from",
          "type": "address"
        },
        {
          "indexed": false,
          "internalType": "address",
          "name": "to",
          "type": "address"
        },
        {
          "indexed": false,
          "internalType": "uint256",
          "name": "transferDate",
          "type": "uint256"
        },
        {
          "indexed": false,
          "internalType": "uint256",
          "name": "tokenId",
          "type": "uint256"
        },
        {
          "indexed": false,
          "internalType": "uint256",
          "name": "amount",
          "type": "uint256"
        },
        {
          "indexed": false,
          "internalType": "string",
          "name": "symbol",
          "type": "string"
        }
      ],
      "name": "TokenTransfer",
      "type": "event"
    },
    {
      "anonymous": false,
      "inputs": [
        {
          "indexed": true,
          "internalType": "address",
          "name": "operator",
          "type": "address"
        },
        {
          "indexed": true,
          "internalType": "address",
          "name": "from",
          "type": "address"
        },
        {
          "indexed": true,
          "internalType": "address",
          "name": "to",
          "type": "address"
        },
        {
          "indexed": false,
          "internalType": "uint256[]",
          "name": "ids",
          "type": "uint256[]"
        },
        {
          "indexed": false,
          "internalType": "uint256[]",
          "name": "values",
          "type": "uint256[]"
        }
      ],
      "name": "TransferBatch",
      "type": "event"
    },
    {
      "anonymous": false,
      "inputs": [
        {
          "indexed": true,
          "internalType": "address",
          "name": "operator",
          "type": "address"
        },
        {
          "indexed": true,
          "internalType": "address",
          "name": "from",
          "type": "address"
        },
        {
          "indexed": true,
          "internalType": "address",
          "name": "to",
          "type": "address"
        },
        {
          "indexed": false,
          "internalType": "uint256",
          "name": "id",
          "type": "uint256"
        },
        {
          "indexed": false,
          "internalType": "uint256",
          "name": "value",
          "type": "uint256"
        }
      ],
      "name": "TransferSingle",
      "type": "event"
    },
    {
      "anonymous": false,
      "inputs": [
        {
          "indexed": false,
          "internalType": "string",
          "name": "value",
          "type": "string"
        },
        {
          "indexed": true,
          "internalType": "uint256",
          "name": "id",
          "type": "uint256"
        }
      ],
      "name": "URI",
      "type": "event"
    },
    {
      "inputs": [],
      "name": "CONTROLLER_CONTRACT_ADDRESS",
      "outputs": [
        {
          "internalType": "address",
          "name": "",
          "type": "address"
        }
      ],
      "stateMutability": "view",
      "type": "function"
    },
    {
      "inputs": [],
      "name": "CRD",
      "outputs": [
        {
          "internalType": "uint256",
          "name": "",
          "type": "uint256"
        }
      ],
      "stateMutability": "view",
      "type": "function"
    },
    {
      "inputs": [],
      "name": "OWNER",
      "outputs": [
        {
          "internalType": "address",
          "name": "",
          "type": "address"
        }
      ],
      "stateMutability": "view",
      "type": "function"
    },
    {
      "inputs": [],
      "name": "TREASURY_CONTRACT_ADDRESS",
      "outputs": [
        {
          "internalType": "address",
          "name": "",
          "type": "address"
        }
      ],
      "stateMutability": "view",
      "type": "function"
    },
    {
      "inputs": [],
      "name": "VOTING_HUB_ADDRESS",
      "outputs": [
        {
          "internalType": "address",
          "name": "",
          "type": "address"
        }
      ],
      "stateMutability": "view",
      "type": "function"
    },
    {
      "inputs": [
        {
          "internalType": "address",
          "name": "account",
          "type": "address"
        },
        {
          "internalType": "uint256",
          "name": "snapshotId",
          "type": "uint256"
        },
        {
          "internalType": "uint256",
          "name": "tokenId",
          "type": "uint256"
        }
      ],
      "name": "balanceOfAt",
      "outputs": [
        {
          "internalType": "uint256",
          "name": "",
          "type": "uint256"
        }
      ],
      "stateMutability": "view",
      "type": "function"
    },
    {
      "inputs": [
        {
          "internalType": "address[]",
          "name": "accounts",
          "type": "address[]"
        },
        {
          "internalType": "uint256[]",
          "name": "ids",
          "type": "uint256[]"
        }
      ],
      "name": "balanceOfBatch",
      "outputs": [
        {
          "internalType": "uint256[]",
          "name": "",
          "type": "uint256[]"
        }
      ],
      "stateMutability": "view",
      "type": "function"
    },
    {
      "inputs": [
        {
          "internalType": "uint256",
          "name": "",
          "type": "uint256"
        }
      ],
      "name": "commTokenMapping",
      "outputs": [
        {
          "internalType": "uint256",
          "name": "recordId",
          "type": "uint256"
        },
        {
          "internalType": "string",
          "name": "symbol",
          "type": "string"
        },
        {
          "internalType": "string",
          "name": "image",
          "type": "string"
        },
        {
          "internalType": "uint256",
          "name": "creationDate",
          "type": "uint256"
        },
        {
          "internalType": "bool",
          "name": "isPresent",
          "type": "bool"
        },
        {
          "internalType": "uint256",
          "name": "tokenId",
          "type": "uint256"
        }
      ],
      "stateMutability": "view",
      "type": "function"
    },
    {
      "inputs": [
        {
          "internalType": "string",
          "name": "",
          "type": "string"
        }
      ],
      "name": "commTokenSym",
      "outputs": [
        {
          "internalType": "bool",
          "name": "",
          "type": "bool"
        }
      ],
      "stateMutability": "view",
      "type": "function"
    },
    {
      "inputs": [
        {
          "internalType": "uint256",
          "name": "id",
          "type": "uint256"
        }
      ],
      "name": "exists",
      "outputs": [
        {
          "internalType": "bool",
          "name": "",
          "type": "bool"
        }
      ],
      "stateMutability": "view",
      "type": "function"
    },
    {
      "inputs": [
        {
          "internalType": "uint256",
          "name": "",
          "type": "uint256"
        }
      ],
      "name": "govTokenMapping",
      "outputs": [
        {
          "internalType": "uint256",
          "name": "recordId",
          "type": "uint256"
        },
        {
          "internalType": "string",
          "name": "symbol",
          "type": "string"
        },
        {
          "internalType": "string",
          "name": "image",
          "type": "string"
        },
        {
          "internalType": "uint256",
          "name": "creationDate",
          "type": "uint256"
        },
        {
          "internalType": "bool",
          "name": "isPresent",
          "type": "bool"
        },
        {
          "internalType": "uint256",
          "name": "tokenId",
          "type": "uint256"
        }
      ],
      "stateMutability": "view",
      "type": "function"
    },
    {
      "inputs": [
        {
          "internalType": "string",
          "name": "",
          "type": "string"
        }
      ],
      "name": "govTokenSym",
      "outputs": [
        {
          "internalType": "bool",
          "name": "",
          "type": "bool"
        }
      ],
      "stateMutability": "view",
      "type": "function"
    },
    {
      "inputs": [
        {
          "internalType": "address",
          "name": "account",
          "type": "address"
        },
        {
          "internalType": "address",
          "name": "operator",
          "type": "address"
        }
      ],
      "name": "isApprovedForAll",
      "outputs": [
        {
          "internalType": "bool",
          "name": "",
          "type": "bool"
        }
      ],
      "stateMutability": "view",
      "type": "function"
    },
    {
      "inputs": [
        {
          "internalType": "address",
          "name": "from",
          "type": "address"
        },
        {
          "internalType": "address",
          "name": "to",
          "type": "address"
        },
        {
          "internalType": "uint256[]",
          "name": "ids",
          "type": "uint256[]"
        },
        {
          "internalType": "uint256[]",
          "name": "amounts",
          "type": "uint256[]"
        },
        {
          "internalType": "bytes",
          "name": "data",
          "type": "bytes"
        }
      ],
      "name": "safeBatchTransferFrom",
      "outputs": [],
      "stateMutability": "nonpayable",
      "type": "function"
    },
    {
      "inputs": [
        {
          "internalType": "address",
          "name": "from",
          "type": "address"
        },
        {
          "internalType": "address",
          "name": "to",
          "type": "address"
        },
        {
          "internalType": "uint256",
          "name": "id",
          "type": "uint256"
        },
        {
          "internalType": "uint256",
          "name": "amount",
          "type": "uint256"
        },
        {
          "internalType": "bytes",
          "name": "data",
          "type": "bytes"
        }
      ],
      "name": "safeTransferFrom",
      "outputs": [],
      "stateMutability": "nonpayable",
      "type": "function"
    },
    {
      "inputs": [
        {
          "internalType": "address",
          "name": "operator",
          "type": "address"
        },
        {
          "internalType": "bool",
          "name": "approved",
          "type": "bool"
        }
      ],
      "name": "setApprovalForAll",
      "outputs": [],
      "stateMutability": "nonpayable",
      "type": "function"
    },
    {
      "inputs": [
        {
          "internalType": "bytes4",
          "name": "interfaceId",
          "type": "bytes4"
        }
      ],
      "name": "supportsInterface",
      "outputs": [
        {
          "internalType": "bool",
          "name": "",
          "type": "bool"
        }
      ],
      "stateMutability": "view",
      "type": "function"
    },
    {
      "inputs": [
        {
          "internalType": "uint256",
          "name": "id",
          "type": "uint256"
        }
      ],
      "name": "totalSupply",
      "outputs": [
        {
          "internalType": "uint256",
          "name": "",
          "type": "uint256"
        }
      ],
      "stateMutability": "view",
      "type": "function"
    },
    {
      "inputs": [
        {
          "internalType": "uint256",
          "name": "snapshotId",
          "type": "uint256"
        },
        {
          "internalType": "uint256",
          "name": "tokenId",
          "type": "uint256"
        }
      ],
      "name": "totalSupplyAt",
      "outputs": [
        {
          "internalType": "uint256",
          "name": "",
          "type": "uint256"
        }
      ],
      "stateMutability": "view",
      "type": "function"
    },
    {
      "inputs": [
        {
          "internalType": "uint256",
          "name": "",
          "type": "uint256"
        }
      ],
      "name": "uri",
      "outputs": [
        {
          "internalType": "string",
          "name": "",
          "type": "string"
        }
      ],
      "stateMutability": "view",
      "type": "function"
    },
    {
      "inputs": [
        {
          "internalType": "address",
          "name": "newVotingHubContract",
          "type": "address"
        },
        {
          "internalType": "address",
          "name": "newTreasuryAddress",
          "type": "address"
        },
        {
          "internalType": "address",
          "name": "crdTokenAddress",
          "type": "address"
        },
        {
          "internalType": "address",
          "name": "controllerContractAddress",
          "type": "address"
        }
      ],
      "name": "initialize",
      "outputs": [],
      "stateMutability": "nonpayable",
      "type": "function"
    },
    {
      "inputs": [
        {
          "components": [
            {
              "internalType": "uint256",
              "name": "recordId",
              "type": "uint256"
            },
            {
              "internalType": "uint256",
              "name": "totalSupply",
              "type": "uint256"
            },
            {
              "internalType": "uint256",
              "name": "userBalance",
              "type": "uint256"
            },
            {
              "internalType": "string",
              "name": "symbol",
              "type": "string"
            },
            {
              "internalType": "string",
              "name": "image",
              "type": "string"
            }
          ],
          "internalType": "struct TreasuryCoreContract.NewTokenData",
          "name": "newTokenData",
          "type": "tuple"
        },
        {
          "internalType": "address",
          "name": "userAddress",
          "type": "address"
        }
      ],
      "name": "createNewGovernanceToken",
      "outputs": [
        {
          "internalType": "uint256",
          "name": "",
          "type": "uint256"
        }
      ],
      "stateMutability": "nonpayable",
      "type": "function"
    },
    {
      "inputs": [
        {
          "components": [
            {
              "internalType": "uint256",
              "name": "recordId",
              "type": "uint256"
            },
            {
              "internalType": "uint256",
              "name": "totalSupply",
              "type": "uint256"
            },
            {
              "internalType": "uint256",
              "name": "userBalance",
              "type": "uint256"
            },
            {
              "internalType": "string",
              "name": "symbol",
              "type": "string"
            },
            {
              "internalType": "string",
              "name": "image",
              "type": "string"
            }
          ],
          "internalType": "struct TreasuryCoreContract.NewTokenData",
          "name": "newTokenData",
          "type": "tuple"
        },
        {
          "internalType": "address",
          "name": "userAddress",
          "type": "address"
        }
      ],
      "name": "createNewCommunityToken",
      "outputs": [
        {
          "internalType": "uint256",
          "name": "",
          "type": "uint256"
        }
      ],
      "stateMutability": "nonpayable",
      "type": "function"
    },
    {
      "inputs": [
        {
          "internalType": "uint256",
          "name": "recordId",
          "type": "uint256"
        },
        {
          "internalType": "uint256",
          "name": "tokenId",
          "type": "uint256"
        },
        {
          "internalType": "uint256",
          "name": "tokenAmount",
          "type": "uint256"
        }
      ],
      "name": "mintTokens",
      "outputs": [],
      "stateMutability": "nonpayable",
      "type": "function"
    },
    {
      "inputs": [
        {
          "internalType": "address",
          "name": "to",
          "type": "address"
        },
        {
          "internalType": "uint256",
          "name": "recordId",
          "type": "uint256"
        },
        {
          "internalType": "uint256",
          "name": "contributionId",
          "type": "uint256"
        },
        {
          "internalType": "uint256",
          "name": "rewardGovernance",
          "type": "uint256"
        },
        {
          "internalType": "uint256",
          "name": "rewardCommunity",
          "type": "uint256"
        }
      ],
      "name": "transferRewardAmount",
      "outputs": [],
      "stateMutability": "nonpayable",
      "type": "function"
    },
    {
      "inputs": [
        {
          "internalType": "string",
          "name": "governanceSymbol",
          "type": "string"
        },
        {
          "internalType": "string",
          "name": "communitySymbol",
          "type": "string"
        }
      ],
      "name": "setSymbolsAsUsed",
      "outputs": [],
      "stateMutability": "nonpayable",
      "type": "function"
    },
    {
      "inputs": [
        {
          "internalType": "string",
          "name": "governanceSymbol",
          "type": "string"
        },
        {
          "internalType": "string",
          "name": "communitySymbol",
          "type": "string"
        }
      ],
      "name": "setSymbolsAsAvailable",
      "outputs": [],
      "stateMutability": "nonpayable",
      "type": "function"
    },
    {
      "inputs": [
        {
          "internalType": "string",
          "name": "governanceSymbol",
          "type": "string"
        },
        {
          "internalType": "string",
          "name": "communitySymbol",
          "type": "string"
        }
      ],
      "name": "isSymbolAvailable",
      "outputs": [],
      "stateMutability": "nonpayable",
      "type": "function"
    },
    {
      "inputs": [
        {
          "internalType": "uint256",
          "name": "tokenId",
          "type": "uint256"
        },
        {
          "internalType": "uint256",
          "name": "amount",
          "type": "uint256"
        },
        {
          "internalType": "address",
          "name": "receiver",
          "type": "address"
        }
      ],
      "name": "transferRewardTokens",
      "outputs": [],
      "stateMutability": "nonpayable",
      "type": "function"
    },
    {
      "inputs": [
        {
          "internalType": "address",
          "name": "account",
          "type": "address"
        },
        {
          "internalType": "uint256",
          "name": "id",
          "type": "uint256"
        }
      ],
      "name": "balanceOf",
      "outputs": [
        {
          "internalType": "uint256",
          "name": "",
          "type": "uint256"
        }
      ],
      "stateMutability": "view",
      "type": "function"
    },
    {
      "inputs": [],
      "name": "snapshot",
      "outputs": [
        {
          "internalType": "uint256",
          "name": "snapshotId",
          "type": "uint256"
        }
      ],
      "stateMutability": "nonpayable",
      "type": "function"
    },
    {
      "inputs": [
        {
          "internalType": "uint256",
          "name": "tokenId",
          "type": "uint256"
        },
        {
          "internalType": "uint256",
          "name": "amount",
          "type": "uint256"
        }
      ],
      "name": "mint",
      "outputs": [],
      "stateMutability": "nonpayable",
      "type": "function"
    },
    {
      "inputs": [
        {
          "internalType": "address",
          "name": "operator",
          "type": "address"
        },
        {
          "internalType": "address",
          "name": "from",
          "type": "address"
        },
        {
          "internalType": "uint256",
          "name": "id",
          "type": "uint256"
        },
        {
          "internalType": "uint256",
          "name": "value",
          "type": "uint256"
        },
        {
          "internalType": "bytes",
          "name": "data",
          "type": "bytes"
        }
      ],
      "name": "onERC1155Received",
      "outputs": [
        {
          "internalType": "bytes4",
          "name": "",
          "type": "bytes4"
        }
      ],
      "stateMutability": "nonpayable",
      "type": "function"
    },
    {
      "inputs": [
        {
          "internalType": "address",
          "name": "operator",
          "type": "address"
        },
        {
          "internalType": "address",
          "name": "from",
          "type": "address"
        },
        {
          "internalType": "uint256[]",
          "name": "ids",
          "type": "uint256[]"
        },
        {
          "internalType": "uint256[]",
          "name": "values",
          "type": "uint256[]"
        },
        {
          "internalType": "bytes",
          "name": "data",
          "type": "bytes"
        }
      ],
      "name": "onERC1155BatchReceived",
      "outputs": [
        {
          "internalType": "bytes4",
          "name": "",
          "type": "bytes4"
        }
      ],
      "stateMutability": "nonpayable",
      "type": "function"
    }
  ],
  "bytecode": "0x600160085560c06040526005608081905264435244475f60d81b60a09081526200002d91600d91906200011a565b50604080518082019091526004808252634352445f60e01b60209092019182526200005b91600e916200011a565b50600f805461ffff19166101001790553480156200007857600080fd5b50604051620047d8380380620047d88339810160408190526200009b91620001c0565b60408051808201909152601d81527f68747470733a2f2f63726f77647265636f7264732e636f6d2f7b69647d0000006020820152620000da8162000101565b50600c80546001600160a01b0319166001600160a01b03929092169190911790556200022f565b8051620001169060029060208401906200011a565b5050565b8280546200012890620001f2565b90600052602060002090601f0160209004810192826200014c576000855562000197565b82601f106200016757805160ff191683800117855562000197565b8280016001018555821562000197579182015b82811115620001975782518255916020019190600101906200017a565b50620001a5929150620001a9565b5090565b5b80821115620001a55760008155600101620001aa565b600060208284031215620001d357600080fd5b81516001600160a01b0381168114620001eb57600080fd5b9392505050565b600181811c908216806200020757607f821691505b602082108114156200022957634e487b7160e01b600052602260045260246000fd5b50919050565b614599806200023f6000396000f3fe608060405234801561001057600080fd5b50600436106102255760003560e01c80638aa7a8b01161012a578063bd85b039116100bd578063ef890f7c1161008c578063f242432a11610071578063f242432a14610612578063f8c8765e14610625578063ff669dfb1461063857600080fd5b8063ef890f7c146105c6578063f23a6e61146105d957600080fd5b8063bd85b03914610542578063e10fa0b214610562578063e6acd9b814610575578063e985e9c51461057d57600080fd5b8063a22cb465116100f9578063a22cb46514610490578063acb31493146104a3578063af94e4a9146104c3578063bc197c81146104d657600080fd5b80638aa7a8b0146104425780638fbf353f146104555780639711715a146104685780639b6a6f0d1461047057600080fd5b80634e1273f4116101bd578063626da0681161018c5780638388f413116101715780638388f413146103dc578063884c8ffe146103ef5780638958a5de1461041457600080fd5b8063626da068146103b65780636c45f2f6146103c957600080fd5b80634e1273f41461034e5780634f558e791461036e5780635f938ad21461039057806361cbc357146103a357600080fd5b80631644e0ff116101f95780631644e0ff146102d85780631b2ef1ca146103065780632eb2c2d61461031b578063368680491461032e57600080fd5b8062fdd58e1461022a57806301ffc9a7146102505780630e89341c14610273578063117803e314610293575b600080fd5b61023d610238366004613680565b61064b565b6040519081526020015b60405180910390f35b61026361025e3660046136db565b610708565b6040519015158152602001610247565b6102866102813660046136f8565b6107eb565b604051610247919061378b565b600c546102b39073ffffffffffffffffffffffffffffffffffffffff1681565b60405173ffffffffffffffffffffffffffffffffffffffff9091168152602001610247565b6102636102e63660046138d0565b805160208183018101805160128252928201919093012091525460ff1681565b61031961031436600461390d565b61087f565b005b6103196103293660046139c4565b610970565b6009546102b39073ffffffffffffffffffffffffffffffffffffffff1681565b61036161035c366004613a6e565b610a39565b6040516102479190613b74565b61026361037c3660046136f8565b600090815260036020526040902054151590565b61031961039e366004613b87565b610b91565b6103196103b1366004613b87565b610cdc565b61023d6103c4366004613be1565b610de5565b6103196103d7366004613b87565b610e48565b6103196103ea366004613c14565b611003565b6104026103fd3660046136f8565b611193565b60405161024796959493929190613c56565b6102636104223660046138d0565b805160208183018101805160138252928201919093012091525460ff1681565b61023d61045036600461390d565b6112de565b610319610463366004613ca0565b611323565b61023d61156f565b600b546102b39073ffffffffffffffffffffffffffffffffffffffff1681565b61031961049e366004613ccc565b611627565b600a546102b39073ffffffffffffffffffffffffffffffffffffffff1681565b6104026104d13660046136f8565b611632565b6105116104e4366004613d8f565b7fbc197c819b3e337a6f9652dd10becd7eef83032af3b9d958d3d42f669414662198975050505050505050565b6040517fffffffff000000000000000000000000000000000000000000000000000000009091168152602001610247565b61023d6105503660046136f8565b60009081526003602052604090205490565b61023d610570366004613e4a565b611654565b61023d600181565b61026361058b366004613f0f565b73ffffffffffffffffffffffffffffffffffffffff918216600090815260016020908152604080832093909416825291909152205460ff1690565b6103196105d4366004613f39565b6118b8565b6105116105e7366004613f6e565b7ff23a6e612e1ff4830e658fe43f4e3cb4a5f8170bd5d9e69fb5d7a7fa9e4fdf979695505050505050565b610319610620366004613fe6565b6119b2565b61031961063336600461404b565b611a74565b61023d610646366004613e4a565b611d34565b600060018214156106f857600f546040517f70a0823100000000000000000000000000000000000000000000000000000000815273ffffffffffffffffffffffffffffffffffffffff858116600483015262010000909204909116906370a0823190602401602060405180830381865afa1580156106cd573d6000803e3d6000fd5b505050506040513d601f19601f820116820180604052508101906106f1919061409f565b9050610702565b6106f18383611f4d565b92915050565b60007fffffffff0000000000000000000000000000000000000000000000000000000082167fd9b67a2600000000000000000000000000000000000000000000000000000000148061079b57507fffffffff0000000000000000000000000000000000000000000000000000000082167f0e89341c00000000000000000000000000000000000000000000000000000000145b8061070257507f01ffc9a7000000000000000000000000000000000000000000000000000000007fffffffff00000000000000000000000000000000000000000000000000000000831614610702565b6060600280546107fa906140b8565b80601f0160208091040260200160405190810160405280929190818152602001828054610826906140b8565b80156108735780601f1061084857610100808354040283529160200191610873565b820191906000526020600020905b81548152906001019060200180831161085657829003601f168201915b50505050509050919050565b600a5473ffffffffffffffffffffffffffffffffffffffff16331461092b576040517f08c379a000000000000000000000000000000000000000000000000000000000815260206004820152602360248201527f554e415554484f52495a45443a2043414e4e4f545f504552464f524d5f41435460448201527f494f4e000000000000000000000000000000000000000000000000000000000060648201526084015b60405180910390fd5b61096c3083836040518060400160405280601181526020017f4e657720746f6b656e73206d696e746564000000000000000000000000000000815250612025565b5050565b73ffffffffffffffffffffffffffffffffffffffff85163314806109995750610999853361058b565b610a25576040517f08c379a000000000000000000000000000000000000000000000000000000000815260206004820152603260248201527f455243313135353a207472616e736665722063616c6c6572206973206e6f742060448201527f6f776e6572206e6f7220617070726f76656400000000000000000000000000006064820152608401610922565b610a328585858585612192565b5050505050565b60608151835114610acc576040517f08c379a000000000000000000000000000000000000000000000000000000000815260206004820152602960248201527f455243313135353a206163636f756e747320616e6420696473206c656e67746860448201527f206d69736d6174636800000000000000000000000000000000000000000000006064820152608401610922565b6000835167ffffffffffffffff811115610ae857610ae861379e565b604051908082528060200260200182016040528015610b11578160200160208202803683370190505b50905060005b8451811015610b8957610b5c858281518110610b3557610b3561410c565b6020026020010151858381518110610b4f57610b4f61410c565b602002602001015161064b565b828281518110610b6e57610b6e61410c565b6020908102919091010152610b828161416a565b9050610b17565b509392505050565b600a5473ffffffffffffffffffffffffffffffffffffffff163314610c38576040517f08c379a000000000000000000000000000000000000000000000000000000000815260206004820152602360248201527f554e415554484f52495a45443a2043414e4e4f545f504552464f524d5f41435460448201527f494f4e00000000000000000000000000000000000000000000000000000000006064820152608401610922565b6000601382604051610c4a91906141a3565b90815260405190819003602001812080549215157fffffffffffffffffffffffffffffffffffffffffffffffffffffffffffffff0090931692909217909155600090601290610c9a9085906141a3565b90815260405190819003602001902080549115157fffffffffffffffffffffffffffffffffffffffffffffffffffffffffffffff009092169190911790555050565b600a5473ffffffffffffffffffffffffffffffffffffffff163314610d83576040517f08c379a000000000000000000000000000000000000000000000000000000000815260206004820152602360248201527f554e415554484f52495a45443a2043414e4e4f545f504552464f524d5f41435460448201527f494f4e00000000000000000000000000000000000000000000000000000000006064820152608401610922565b6001601382604051610d9591906141a3565b90815260405190819003602001812080549215157fffffffffffffffffffffffffffffffffffffffffffffffffffffffffffffff0090931692909217909155600190601290610c9a9085906141a3565b73ffffffffffffffffffffffffffffffffffffffff83166000908152600460209081526040808320848452909152812081908190610e249086906124da565b9150915081610e3c57610e37868561064b565b610e3e565b805b9695505050505050565b600a5473ffffffffffffffffffffffffffffffffffffffff163314610eef576040517f08c379a000000000000000000000000000000000000000000000000000000000815260206004820152602360248201527f554e415554484f52495a45443a2043414e4e4f545f504552464f524d5f41435460448201527f494f4e00000000000000000000000000000000000000000000000000000000006064820152608401610922565b601381604051610eff91906141a3565b9081526040519081900360200190205460ff1615610f79576040517f08c379a000000000000000000000000000000000000000000000000000000000815260206004820152600e60248201527f53594d424f4c5f435f54414b454e0000000000000000000000000000000000006044820152606401610922565b601282604051610f8991906141a3565b9081526040519081900360200190205460ff161561096c576040517f08c379a000000000000000000000000000000000000000000000000000000000815260206004820152600e60248201527f53594d424f4c5f475f54414b454e0000000000000000000000000000000000006044820152606401610922565b600a5473ffffffffffffffffffffffffffffffffffffffff1633146110aa576040517f08c379a000000000000000000000000000000000000000000000000000000000815260206004820152602360248201527f554e415554484f52495a45443a2043414e4e4f545f504552464f524d5f41435460448201527f494f4e00000000000000000000000000000000000000000000000000000000006064820152608401610922565b6110b63033600161260c565b81156110ee576110ee3086601060008881526020019081526020016000206005015485604051806020016040528060008152506119b2565b8015611126576111263086601160008881526020019081526020016000206005015484604051806020016040528060008152506119b2565b6040805173ffffffffffffffffffffffffffffffffffffffff871681526020810186905290810184905260608101839052608081018290527fe0357d4bc70490bf81b58d93d7d3a12a646c486a071200201fd882cdf74c88d99060a0015b60405180910390a15050505050565b601060205260009081526040902080546001820180549192916111b5906140b8565b80601f01602080910402602001604051908101604052809291908181526020018280546111e1906140b8565b801561122e5780601f106112035761010080835404028352916020019161122e565b820191906000526020600020905b81548152906001019060200180831161121157829003601f168201915b505050505090806002018054611243906140b8565b80601f016020809104026020016040519081016040528092919081815260200182805461126f906140b8565b80156112bc5780601f10611291576101008083540402835291602001916112bc565b820191906000526020600020905b81548152906001019060200180831161129f57829003601f168201915b50505050600383015460048401546005909401549293909260ff909116915086565b6000818152600560205260408120819081906112fb9086906124da565b91509150816113185760008481526003602052604090205461131a565b805b95945050505050565b600a5473ffffffffffffffffffffffffffffffffffffffff1633146113ca576040517f08c379a000000000000000000000000000000000000000000000000000000000815260206004820152602360248201527f554e415554484f52495a45443a2043414e4e4f545f504552464f524d5f41435460448201527f494f4e00000000000000000000000000000000000000000000000000000000006064820152608401610922565b60008381526011602052604090206004015460ff16151560011480611405575060008381526010602052604090206004015460ff1615156001145b61146b576040517f08c379a000000000000000000000000000000000000000000000000000000000815260206004820152601860248201527f494e56414c49443a2057524f4e475f5245434f52445f494400000000000000006044820152606401610922565b60008381526011602052604090206005015482148061149a575060008381526010602052604090206005015482145b611500576040517f08c379a000000000000000000000000000000000000000000000000000000000815260206004820152601760248201527f494e56414c49443a2057524f4e475f544f4b454e5f49440000000000000000006044820152606401610922565b61152430838360405180606001604052806023815260200161454160239139612025565b604080518481526020810184905242818301526060810183905290517f81e0b881b9c6ff93955a4a996cc01472b2cdc1a1663af072fa5ca7db7f127de29181900360800190a1505050565b600a5460009073ffffffffffffffffffffffffffffffffffffffff163314611619576040517f08c379a000000000000000000000000000000000000000000000000000000000815260206004820152602360248201527f554e415554484f52495a45443a2043414e4e4f545f504552464f524d5f41435460448201527f494f4e00000000000000000000000000000000000000000000000000000000006064820152608401610922565b611621612760565b90505b90565b61096c33838361260c565b601160205260009081526040902080546001820180549192916111b5906140b8565b600a5460009073ffffffffffffffffffffffffffffffffffffffff163314806116945750600b5473ffffffffffffffffffffffffffffffffffffffff1633145b611720576040517f08c379a000000000000000000000000000000000000000000000000000000000815260206004820152602360248201527f554e415554484f52495a45443a2043414e4e4f545f504552464f524d5f41435460448201527f494f4e00000000000000000000000000000000000000000000000000000000006064820152608401610922565b6000600d60405160200161173491906141bf565b604051602081830303815290604052905080846060015160405160200161175c929190614292565b604080517fffffffffffffffffffffffffffffffffffffffffffffffffffffffffffffffe0818403018152919052606085015250600880549060006117a08361416a565b9091555050600854600f546117c19085908390610100900460ff16866127ba565b845160009081526010602090815260409091208251815582820151805191926117f2926001850192909101906135c3565b506040820151805161180e9160028401916020909101906135c3565b50606082810151600383015560808301516004830180547fffffffffffffffffffffffffffffffffffffffffffffffffffffffffffffff001691151591909117905560a09092015160059091015584015160405160019160129161187291906141a3565b90815260405190819003602001902080549115157fffffffffffffffffffffffffffffffffffffffffffffffffffffffffffffff00909216919091179055905092915050565b600a5473ffffffffffffffffffffffffffffffffffffffff16331461195f576040517f08c379a000000000000000000000000000000000000000000000000000000000815260206004820152602360248201527f554e415554484f52495a45443a2043414e4e4f545f504552464f524d5f41435460448201527f494f4e00000000000000000000000000000000000000000000000000000000006064820152608401610922565b61196b3033600161260c565b6119ad308285856040518060400160405280601581526020017f5245434f52445f544f4b454e5f5452414e5346455200000000000000000000008152506119b2565b505050565b73ffffffffffffffffffffffffffffffffffffffff85163314806119db57506119db853361058b565b611a67576040517f08c379a000000000000000000000000000000000000000000000000000000000815260206004820152602960248201527f455243313135353a2063616c6c6572206973206e6f74206f776e6572206e6f7260448201527f20617070726f76656400000000000000000000000000000000000000000000006064820152608401610922565b610a3285858585856128e1565b600754610100900460ff1615808015611a945750600754600160ff909116105b80611aae5750303b158015611aae575060075460ff166001145b611b3a576040517f08c379a000000000000000000000000000000000000000000000000000000000815260206004820152602e60248201527f496e697469616c697a61626c653a20636f6e747261637420697320616c72656160448201527f647920696e697469616c697a65640000000000000000000000000000000000006064820152608401610922565b600780547fffffffffffffffffffffffffffffffffffffffffffffffffffffffffffffff001660011790558015611b9857600780547fffffffffffffffffffffffffffffffffffffffffffffffffffffffffffff00ff166101001790555b600c5473ffffffffffffffffffffffffffffffffffffffff163314611c3f576040517f08c379a000000000000000000000000000000000000000000000000000000000815260206004820152602360248201527f554e415554484f52495a45443a2043414e4e4f545f504552464f524d5f41435460448201527f494f4e00000000000000000000000000000000000000000000000000000000006064820152608401610922565b6009805473ffffffffffffffffffffffffffffffffffffffff8088167fffffffffffffffffffffffff000000000000000000000000000000000000000092831617909255600a8054878416908316179055600b80548584169216919091179055600f805491851662010000027fffffffffffffffffffff0000000000000000000000000000000000000000ffff9092169190911790558015610a3257600780547fffffffffffffffffffffffffffffffffffffffffffffffffffffffffffff00ff169055604051600181527f7f26b83ff96e1f2b6a682f133852f6798a09c465da95921460cefb384740249890602001611184565b600a5460009073ffffffffffffffffffffffffffffffffffffffff16331480611d745750600b5473ffffffffffffffffffffffffffffffffffffffff1633145b611e00576040517f08c379a000000000000000000000000000000000000000000000000000000000815260206004820152602360248201527f554e415554484f52495a45443a2043414e4e4f545f504552464f524d5f41435460448201527f494f4e00000000000000000000000000000000000000000000000000000000006064820152608401610922565b6000600e604051602001611e1491906141bf565b6040516020818303038152906040529050808460600151604051602001611e3c929190614292565b604080517fffffffffffffffffffffffffffffffffffffffffffffffffffffffffffffffe081840301815291905260608501525060088054906000611e808361416a565b9091555050600854600f54611e9c908590839060ff16866127ba565b84516000908152601160209081526040909120825181558282015180519192611ecd926001850192909101906135c3565b5060408201518051611ee99160028401916020909101906135c3565b50606082810151600383015560808301516004830180547fffffffffffffffffffffffffffffffffffffffffffffffffffffffffffffff001691151591909117905560a09092015160059091015584015160405160019160139161187291906141a3565b600073ffffffffffffffffffffffffffffffffffffffff8316611ff2576040517f08c379a000000000000000000000000000000000000000000000000000000000815260206004820152602b60248201527f455243313135353a2062616c616e636520717565727920666f7220746865207a60448201527f65726f20616464726573730000000000000000000000000000000000000000006064820152608401610922565b5060009081526020818152604080832073ffffffffffffffffffffffffffffffffffffffff949094168352929052205490565b73ffffffffffffffffffffffffffffffffffffffff84166120c8576040517f08c379a000000000000000000000000000000000000000000000000000000000815260206004820152602160248201527f455243313135353a206d696e7420746f20746865207a65726f2061646472657360448201527f73000000000000000000000000000000000000000000000000000000000000006064820152608401610922565b336120e8816000876120d988612997565b6120e288612997565b876129e2565b60008481526020818152604080832073ffffffffffffffffffffffffffffffffffffffff89168452909152812080548592906121259084906142c1565b9091555050604080518581526020810185905273ffffffffffffffffffffffffffffffffffffffff80881692600092918516917fc3d58168c5ae7397731d063d5bbf3d657854427343f4c083240f7aacaa2d0f62910160405180910390a4610a3281600087878787612b2f565b8151835114612223576040517f08c379a000000000000000000000000000000000000000000000000000000000815260206004820152602860248201527f455243313135353a2069647320616e6420616d6f756e7473206c656e6774682060448201527f6d69736d617463680000000000000000000000000000000000000000000000006064820152608401610922565b73ffffffffffffffffffffffffffffffffffffffff84166122c6576040517f08c379a000000000000000000000000000000000000000000000000000000000815260206004820152602560248201527f455243313135353a207472616e7366657220746f20746865207a65726f20616460448201527f64726573730000000000000000000000000000000000000000000000000000006064820152608401610922565b336122d58187878787876129e2565b60005b84518110156124455760008582815181106122f5576122f561410c565b6020026020010151905060008583815181106123135761231361410c565b6020908102919091018101516000848152808352604080822073ffffffffffffffffffffffffffffffffffffffff8e1683529093529190912054909150818110156123e0576040517f08c379a000000000000000000000000000000000000000000000000000000000815260206004820152602a60248201527f455243313135353a20696e73756666696369656e742062616c616e636520666f60448201527f72207472616e73666572000000000000000000000000000000000000000000006064820152608401610922565b60008381526020818152604080832073ffffffffffffffffffffffffffffffffffffffff8e8116855292528083208585039055908b1682528120805484929061242a9084906142c1565b925050819055505050508061243e9061416a565b90506122d8565b508473ffffffffffffffffffffffffffffffffffffffff168673ffffffffffffffffffffffffffffffffffffffff168273ffffffffffffffffffffffffffffffffffffffff167f4a39dc06d4c0dbc64b70af90fd698a233a518aa5d07e595d983b8c0526c8f7fb87876040516124bc9291906142d9565b60405180910390a46124d2818787878787612dc3565b505050505050565b60008060008411612547576040517f08c379a000000000000000000000000000000000000000000000000000000000815260206004820152601660248201527f4552433230536e617073686f743a2069642069732030000000000000000000006044820152606401610922565b61254f612f70565b8411156125b8576040517f08c379a000000000000000000000000000000000000000000000000000000000815260206004820152601d60248201527f4552433230536e617073686f743a206e6f6e6578697374656e742069640000006044820152606401610922565b60006125c48486612f7b565b84549091508114156125dd576000809250925050612605565b60018460010182815481106125f4576125f461410c565b906000526020600020015492509250505b9250929050565b8173ffffffffffffffffffffffffffffffffffffffff168373ffffffffffffffffffffffffffffffffffffffff1614156126c8576040517f08c379a000000000000000000000000000000000000000000000000000000000815260206004820152602960248201527f455243313135353a2073657474696e6720617070726f76616c2073746174757360448201527f20666f722073656c6600000000000000000000000000000000000000000000006064820152608401610922565b73ffffffffffffffffffffffffffffffffffffffff83811660008181526001602090815260408083209487168084529482529182902080547fffffffffffffffffffffffffffffffffffffffffffffffffffffffffffffff001686151590811790915591519182527f17307eab39ab6107e8899845ad3d59bd9653f200f220920489ca2b5937696c31910160405180910390a3505050565b6000612770600680546001019055565b600061277a612f70565b90507f8030e83b04d87bef53480e26263266d6ca66863aa8506aca6f2559d18aa1cb67816040516127ad91815260200190565b60405180910390a1919050565b6127f56040518060c0016040528060008152602001606081526020016060815260200160008152602001600015158152602001600081525090565b60008560400151866020015161280b91906142fe565b905060008660400151905061283130878460405180602001604052806000815250612025565b61284c84878360405180602001604052806000815250612025565b6040805160c081018252885181526060808a0180516020808501919091526080808d018051868801524294860185905260019186019190915260a085018c90528c5192519051918d0151955194957f49debfc18817e7e3ec2948391bcc3a87349b3c716f7d470d223bfbf8928aa65a956128ce9592939291908e908e90614315565b60405180910390a1979650505050505050565b600183141561298a57600f546040517f42842e0e00000000000000000000000000000000000000000000000000000000815273ffffffffffffffffffffffffffffffffffffffff878116600483015286811660248301526044820185905262010000909204909116906342842e0e90606401600060405180830381600087803b15801561296d57600080fd5b505af1158015612981573d6000803e3d6000fd5b50505050610a32565b610a32858585858561303e565b604080516001808252818301909252606091600091906020808301908036833701905050905082816000815181106129d1576129d161410c565b602090810291909101015292915050565b60095473ffffffffffffffffffffffffffffffffffffffff1615612b215760095473ffffffffffffffffffffffffffffffffffffffff1660005b8451811015612b1e578173ffffffffffffffffffffffffffffffffffffffff16631de841ba8888878581518110612a5557612a5561410c565b6020026020010151898681518110612a6f57612a6f61410c565b60209081029190910101516040517fffffffff0000000000000000000000000000000000000000000000000000000060e087901b16815273ffffffffffffffffffffffffffffffffffffffff948516600482015293909216602484015260448301526064820152608401600060405180830381600087803b158015612af357600080fd5b505af1158015612b07573d6000803e3d6000fd5b505050508080612b169061416a565b915050612a1c565b50505b6124d2868686868686613266565b73ffffffffffffffffffffffffffffffffffffffff84163b156124d2576040517ff23a6e6100000000000000000000000000000000000000000000000000000000815273ffffffffffffffffffffffffffffffffffffffff85169063f23a6e6190612ba6908990899088908890889060040161436a565b6020604051808303816000875af1925050508015612bff575060408051601f3d9081017fffffffffffffffffffffffffffffffffffffffffffffffffffffffffffffffe0168201909252612bfc918101906143ba565b60015b612ce957612c0b6143d7565b806308c379a01415612c5f5750612c206143f2565b80612c2b5750612c61565b806040517f08c379a0000000000000000000000000000000000000000000000000000000008152600401610922919061378b565b505b6040517f08c379a000000000000000000000000000000000000000000000000000000000815260206004820152603460248201527f455243313135353a207472616e7366657220746f206e6f6e204552433131353560448201527f526563656976657220696d706c656d656e7465720000000000000000000000006064820152608401610922565b7fffffffff0000000000000000000000000000000000000000000000000000000081167ff23a6e610000000000000000000000000000000000000000000000000000000014612dba576040517f08c379a000000000000000000000000000000000000000000000000000000000815260206004820152602860248201527f455243313135353a204552433131353552656365697665722072656a6563746560448201527f6420746f6b656e730000000000000000000000000000000000000000000000006064820152608401610922565b50505050505050565b73ffffffffffffffffffffffffffffffffffffffff84163b156124d2576040517fbc197c8100000000000000000000000000000000000000000000000000000000815273ffffffffffffffffffffffffffffffffffffffff85169063bc197c8190612e3a908990899088908890889060040161449a565b6020604051808303816000875af1925050508015612e93575060408051601f3d9081017fffffffffffffffffffffffffffffffffffffffffffffffffffffffffffffffe0168201909252612e90918101906143ba565b60015b612e9f57612c0b6143d7565b7fffffffff0000000000000000000000000000000000000000000000000000000081167fbc197c810000000000000000000000000000000000000000000000000000000014612dba576040517f08c379a000000000000000000000000000000000000000000000000000000000815260206004820152602860248201527f455243313135353a204552433131353552656365697665722072656a6563746560448201527f6420746f6b656e730000000000000000000000000000000000000000000000006064820152608401610922565b600061162160065490565b8154600090612f8c57506000610702565b82546000905b80821015612fe8576000612fa683836132e0565b905084868281548110612fbb57612fbb61410c565b90600052602060002001541115612fd457809150612fe2565b612fdf8160016142c1565b92505b50612f92565b60008211801561301d575083856130006001856142fe565b815481106130105761301061410c565b9060005260206000200154145b156130365761302d6001836142fe565b92505050610702565b509050610702565b73ffffffffffffffffffffffffffffffffffffffff84166130e1576040517f08c379a000000000000000000000000000000000000000000000000000000000815260206004820152602560248201527f455243313135353a207472616e7366657220746f20746865207a65726f20616460448201527f64726573730000000000000000000000000000000000000000000000000000006064820152608401610922565b336130f18187876120d988612997565b60008481526020818152604080832073ffffffffffffffffffffffffffffffffffffffff8a168452909152902054838110156131af576040517f08c379a000000000000000000000000000000000000000000000000000000000815260206004820152602a60248201527f455243313135353a20696e73756666696369656e742062616c616e636520666f60448201527f72207472616e73666572000000000000000000000000000000000000000000006064820152608401610922565b60008581526020818152604080832073ffffffffffffffffffffffffffffffffffffffff8b81168552925280832087850390559088168252812080548692906131f99084906142c1565b9091555050604080518681526020810186905273ffffffffffffffffffffffffffffffffffffffff808916928a821692918616917fc3d58168c5ae7397731d063d5bbf3d657854427343f4c083240f7aacaa2d0f62910160405180910390a4612dba828888888888612b2f565b73ffffffffffffffffffffffffffffffffffffffff85166132995761328b8484613302565b6132948361338f565b6132d2565b73ffffffffffffffffffffffffffffffffffffffff84166132be5761328b8584613302565b6132c88584613302565b6132d28484613302565b6124d286868686868661340b565b60006132ef6002848418614505565b6132fb908484166142c1565b9392505050565b60005b81518110156119ad5773ffffffffffffffffffffffffffffffffffffffff83166000908152600460205260408120835161337d929085908590811061334c5761334c61410c565b6020026020010151815260200190815260200160002061337885858581518110610b4f57610b4f61410c565b613531565b806133878161416a565b915050613305565b60005b815181101561096c576133f9600560008484815181106133b4576133b461410c565b602002602001015181526020019081526020016000206133788484815181106133df576133df61410c565b602002602001015160009081526003602052604090205490565b806134038161416a565b915050613392565b73ffffffffffffffffffffffffffffffffffffffff851661349f5760005b835181101561349d578281815181106134445761344461410c565b6020026020010151600360008684815181106134625761346261410c565b60200260200101518152602001908152602001600020600082825461348791906142c1565b9091555061349690508161416a565b9050613429565b505b73ffffffffffffffffffffffffffffffffffffffff84166124d25760005b8351811015612dba578281815181106134d8576134d861410c565b6020026020010151600360008684815181106134f6576134f661410c565b60200260200101518152602001908152602001600020600082825461351b91906142fe565b9091555061352a90508161416a565b90506134bd565b600061353b612f70565b9050806135478461357b565b10156119ad578254600180820185556000858152602080822090930193909355938401805494850181558252902090910155565b805460009061358c57506000919050565b8154829061359c906001906142fe565b815481106135ac576135ac61410c565b90600052602060002001549050919050565b919050565b8280546135cf906140b8565b90600052602060002090601f0160209004810192826135f15760008555613637565b82601f1061360a57805160ff1916838001178555613637565b82800160010185558215613637579182015b8281111561363757825182559160200191906001019061361c565b50613643929150613647565b5090565b5b808211156136435760008155600101613648565b803573ffffffffffffffffffffffffffffffffffffffff811681146135be57600080fd5b6000806040838503121561369357600080fd5b61369c8361365c565b946020939093013593505050565b7fffffffff00000000000000000000000000000000000000000000000000000000811681146136d857600080fd5b50565b6000602082840312156136ed57600080fd5b81356132fb816136aa565b60006020828403121561370a57600080fd5b5035919050565b60005b8381101561372c578181015183820152602001613714565b8381111561373b576000848401525b50505050565b60008151808452613759816020860160208601613711565b601f017fffffffffffffffffffffffffffffffffffffffffffffffffffffffffffffffe0169290920160200192915050565b6020815260006132fb6020830184613741565b7f4e487b7100000000000000000000000000000000000000000000000000000000600052604160045260246000fd5b60a0810181811067ffffffffffffffff821117156137ed576137ed61379e565b60405250565b7fffffffffffffffffffffffffffffffffffffffffffffffffffffffffffffffe0601f830116810181811067ffffffffffffffff821117156138375761383761379e565b6040525050565b600082601f83011261384f57600080fd5b813567ffffffffffffffff8111156138695761386961379e565b60405161389e60207fffffffffffffffffffffffffffffffffffffffffffffffffffffffffffffffe0601f85011601826137f3565b8181528460208386010111156138b357600080fd5b816020850160208301376000918101602001919091529392505050565b6000602082840312156138e257600080fd5b813567ffffffffffffffff8111156138f957600080fd5b6139058482850161383e565b949350505050565b6000806040838503121561392057600080fd5b50508035926020909101359150565b600067ffffffffffffffff8211156139495761394961379e565b5060051b60200190565b600082601f83011261396457600080fd5b813560206139718261392f565b60405161397e82826137f3565b83815260059390931b850182019282810191508684111561399e57600080fd5b8286015b848110156139b957803583529183019183016139a2565b509695505050505050565b600080600080600060a086880312156139dc57600080fd5b6139e58661365c565b94506139f36020870161365c565b9350604086013567ffffffffffffffff80821115613a1057600080fd5b613a1c89838a01613953565b94506060880135915080821115613a3257600080fd5b613a3e89838a01613953565b93506080880135915080821115613a5457600080fd5b50613a618882890161383e565b9150509295509295909350565b60008060408385031215613a8157600080fd5b823567ffffffffffffffff80821115613a9957600080fd5b818501915085601f830112613aad57600080fd5b81356020613aba8261392f565b604051613ac782826137f3565b83815260059390931b8501820192828101915089841115613ae757600080fd5b948201945b83861015613b0c57613afd8661365c565b82529482019490820190613aec565b96505086013592505080821115613b2257600080fd5b50613b2f85828601613953565b9150509250929050565b600081518084526020808501945080840160005b83811015613b6957815187529582019590820190600101613b4d565b509495945050505050565b6020815260006132fb6020830184613b39565b60008060408385031215613b9a57600080fd5b823567ffffffffffffffff80821115613bb257600080fd5b613bbe8683870161383e565b93506020850135915080821115613bd457600080fd5b50613b2f8582860161383e565b600080600060608486031215613bf657600080fd5b613bff8461365c565b95602085013595506040909401359392505050565b600080600080600060a08688031215613c2c57600080fd5b613c358661365c565b97602087013597506040870135966060810135965060800135945092505050565b86815260c060208201526000613c6f60c0830188613741565b8281036040840152613c818188613741565b60608401969096525050911515608083015260a0909101529392505050565b600080600060608486031215613cb557600080fd5b505081359360208301359350604090920135919050565b60008060408385031215613cdf57600080fd5b613ce88361365c565b915060208301358015158114613cfd57600080fd5b809150509250929050565b60008083601f840112613d1a57600080fd5b50813567ffffffffffffffff811115613d3257600080fd5b6020830191508360208260051b850101111561260557600080fd5b60008083601f840112613d5f57600080fd5b50813567ffffffffffffffff811115613d7757600080fd5b60208301915083602082850101111561260557600080fd5b60008060008060008060008060a0898b031215613dab57600080fd5b613db48961365c565b9750613dc260208a0161365c565b9650604089013567ffffffffffffffff80821115613ddf57600080fd5b613deb8c838d01613d08565b909850965060608b0135915080821115613e0457600080fd5b613e108c838d01613d08565b909650945060808b0135915080821115613e2957600080fd5b50613e368b828c01613d4d565b999c989b5096995094979396929594505050565b60008060408385031215613e5d57600080fd5b823567ffffffffffffffff80821115613e7557600080fd5b9084019060a08287031215613e8957600080fd5b604051613e95816137cd565b823581526020830135602082015260408301356040820152606083013582811115613ebf57600080fd5b613ecb8882860161383e565b606083015250608083013582811115613ee357600080fd5b613eef8882860161383e565b6080830152509350613f069150506020840161365c565b90509250929050565b60008060408385031215613f2257600080fd5b613f2b8361365c565b9150613f066020840161365c565b600080600060608486031215613f4e57600080fd5b8335925060208401359150613f656040850161365c565b90509250925092565b60008060008060008060a08789031215613f8757600080fd5b613f908761365c565b9550613f9e6020880161365c565b94506040870135935060608701359250608087013567ffffffffffffffff811115613fc857600080fd5b613fd489828a01613d4d565b979a9699509497509295939492505050565b600080600080600060a08688031215613ffe57600080fd5b6140078661365c565b94506140156020870161365c565b93506040860135925060608601359150608086013567ffffffffffffffff81111561403f57600080fd5b613a618882890161383e565b6000806000806080858703121561406157600080fd5b61406a8561365c565b93506140786020860161365c565b92506140866040860161365c565b91506140946060860161365c565b905092959194509250565b6000602082840312156140b157600080fd5b5051919050565b600181811c908216806140cc57607f821691505b60208210811415614106577f4e487b7100000000000000000000000000000000000000000000000000000000600052602260045260246000fd5b50919050565b7f4e487b7100000000000000000000000000000000000000000000000000000000600052603260045260246000fd5b7f4e487b7100000000000000000000000000000000000000000000000000000000600052601160045260246000fd5b60007fffffffffffffffffffffffffffffffffffffffffffffffffffffffffffffffff82141561419c5761419c61413b565b5060010190565b600082516141b5818460208701613711565b9190910192915050565b600080835481600182811c9150808316806141db57607f831692505b6020808410821415614214577f4e487b710000000000000000000000000000000000000000000000000000000086526022600452602486fd5b818015614228576001811461425757614284565b7fffffffffffffffffffffffffffffffffffffffffffffffffffffffffffffff00861689528489019650614284565b60008a81526020902060005b8681101561427c5781548b820152908501908301614263565b505084890196505b509498975050505050505050565b600083516142a4818460208801613711565b8351908301906142b8818360208801613711565b01949350505050565b600082198211156142d4576142d461413b565b500190565b6040815260006142ec6040830185613b39565b828103602084015261131a8185613b39565b6000828210156143105761431061413b565b500390565b87815260e06020820152600061432e60e0830189613741565b82810360408401526143408189613741565b9150508560608301528460808301528360a083015260ff831660c083015298975050505050505050565b600073ffffffffffffffffffffffffffffffffffffffff808816835280871660208401525084604083015283606083015260a060808301526143af60a0830184613741565b979650505050505050565b6000602082840312156143cc57600080fd5b81516132fb816136aa565b600060033d11156116245760046000803e5060005160e01c90565b600060443d10156144005790565b6040517ffffffffffffffffffffffffffffffffffffffffffffffffffffffffffffffffc803d016004833e81513d67ffffffffffffffff816024840111818411171561444e57505050505090565b82850191508151818111156144665750505050505090565b843d87010160208285010111156144805750505050505090565b61448f602082860101876137f3565b509095945050505050565b600073ffffffffffffffffffffffffffffffffffffffff808816835280871660208401525060a060408301526144d360a0830186613b39565b82810360608401526144e58186613b39565b905082810360808401526144f98185613741565b98975050505050505050565b60008261453b577f4e487b7100000000000000000000000000000000000000000000000000000000600052601260045260246000fd5b50049056fe546f6b656e206d696e746564207468726f75676820766f74696e672070726f63657373a26469706673582212207eaf7de25f817485f10e8a810bf78cee837e89366576b8ceabc2f8cd3faab82064736f6c634300080c0033",
  "immutableReferences": {},
  "source": "pragma solidity ^0.8.0;\n\nimport \"@openzeppelin/contracts/token/ERC1155/ERC1155.sol\";\nimport \"@openzeppelin/contracts/token/ERC1155/IERC1155.sol\";\nimport \"@openzeppelin/contracts/token/ERC1155/IERC1155Receiver.sol\";\nimport \"@openzeppelin/contracts/token/ERC1155/extensions/ERC1155Supply.sol\";\nimport \"@openzeppelin/contracts/utils/Counters.sol\";\nimport \"@openzeppelin/contracts/access/Ownable.sol\";\nimport \"@openzeppelin/contracts-upgradeable/proxy/utils/Initializable.sol\";\nimport \"../interface/IRecords.sol\";\nimport \"../interface/IERC20.sol\";\nimport \"../ERC1155/SnapshotERC1155.sol\";\nimport \"@openzeppelin/contracts/utils/math/SafeMath.sol\";\nimport \"../voting/VotingHubContract.sol\";\n\ncontract TreasuryCoreContract is\n    IERC1155Receiver,\n    SnapshotERC1155,\n    Initializable\n{\n    uint256 public constant CRD = 1;\n    uint256 private LastTokenId = 1;\n    address public VOTING_HUB_ADDRESS;\n    address public TREASURY_CONTRACT_ADDRESS;\n    address public CONTROLLER_CONTRACT_ADDRESS;\n    address public OWNER;\n    string private PREFIX_GOVERNANCE = \"CRDG_\";\n    string private PREFIX_COMMUNITY = \"CRD_\";\n    uint8 private TOKEN_TYPE_COMMUNITY = 0;\n    uint8 private TOKEN_TYPE_GOVERNANCE = 1;\n    IERC20 private crdTokenContract;\n\n    /// @dev This structure will store information of tokens for each records\n    /// @param recordId This is the id of record to which a token belongs\n    /// @param symbol This is the symbol of a token\n    /// @param image This is the token image\n    /// @param creationDate This is the block number of creation date\n    /// @param isPresent This is to check if a token struct exists or not\n    /// @param tokenId This is the id of the token that is created\n    struct Token {\n        uint256 recordId;\n        string symbol;\n        string image;\n        uint256 creationDate;\n        bool isPresent;\n        uint256 tokenId;\n    }\n\n    /// @dev This structure will store information of the contribution\n    /// @param recordId This is the id of the record to which contribution belongs to\n    /// @param totalSupply Total supply of token\n    /// @param userBalance The amount of tokens that goes into creators wallet\n    /// @param symbol This is the symbol of the token\n    /// @param image This is the link of the image / icon of the token\n    struct NewTokenData {\n        uint256 recordId;\n        uint256 totalSupply;\n        uint256 userBalance;\n        string symbol;\n        string image;\n    }\n\n    /// @dev this is event which is created when a token transfer takes place\n    /// @param from This is the address of sender\n    /// @param to This is the address of receiver\n    /// @param transferDate This is the date of the transfer\n    /// @param tokenId This is the id of the token that is being transferred\n    /// @param amount This is the amount of token transferred\n    /// @param symbol This is the symbol of the token that were transferred\n    event TokenTransfer(\n        address from,\n        address to,\n        uint256 transferDate,\n        uint256 tokenId,\n        uint256 amount,\n        string symbol\n    );\n\n    /// @dev this is event which is created when new governance token is created (NEW CREATION Not MINTING)\n    /// @param recordId This is the record Id to which this token belongs to\n    /// @param symbol This is the symbol of the governance token\n    /// @param image This is the image of the token\n    /// @param creationDate This is the creation date of the token\n    /// @param tokenAmount This is the amount of token that are created\n    /// @param tokenId This is the id of token that is newly created tokens\n    /// @param tokenType This is the type of the token that is created => For governance 1 and for copyright 0\n    event NewTokenCreated(\n        uint256 recordId,\n        string symbol,\n        string image,\n        uint256 creationDate,\n        uint256 tokenAmount,\n        uint256 tokenId,\n        uint8 tokenType\n    );\n\n    /// @dev this is event which is created when new governance token is minted after the voting is done\n    /// @param recordId This is the record Id to which this token belongs to\n    /// @param creationDate This is the creation date of the token\n    /// @param tokenAmount This is the amount of token that are created\n    /// @param tokenId This is the id of token that is newly created tokens\n    event TokenMinted(\n        uint256 recordId,\n        uint256 tokenId,\n        uint256 creationDate,\n        uint256 tokenAmount\n    );\n\n    /// @dev this is event which is generated when a contribution voting has came to an\n    /// end and the contribution is accepted\n    /// @param to This the address of the winner or the owner of the contribution\n    /// @param recordId This is the id of the record to which this contribution relates to\n    /// @param contributionId This is the id of the contribution to which the record is related to\n    /// @param rewardGovernance The reward amount for governance tokens\n    /// @param rewardCommunity The reward amount for community tokens\n    event ContributionRewardTransferred(\n        address to,\n        uint256 recordId,\n        uint256 contributionId,\n        uint256 rewardGovernance,\n        uint256 rewardCommunity\n    );\n\n    mapping(uint256 => Token) public govTokenMapping;\n    mapping(uint256 => Token) public commTokenMapping;\n\n    // TokenSymbol => boolean, it denotes if a token name is taken or not,\n    // if it is true it means that the token name is already taken\n    mapping(string => bool) public govTokenSym;\n    mapping(string => bool) public commTokenSym;\n\n    // By default URI to crowdrecords domain\n    // 18 decimal points supported\n    constructor(address owner) ERC1155(\"https://crowdrecords.com/{id}\") {\n        OWNER = owner;\n    }\n\n    /// @dev Modifier to check that the person who accesses a specific function is the owner of contract himself.\n    modifier ownerOnly() {\n        require(msg.sender == OWNER, \"UNAUTHORIZED: CANNOT_PERFORM_ACTION\");\n        _;\n    }\n\n    /// @dev Modifier to check that the caller is the treasury contract\n    modifier onlyTreasuryContract() {\n        require(\n            msg.sender == TREASURY_CONTRACT_ADDRESS,\n            \"UNAUTHORIZED: CANNOT_PERFORM_ACTION\"\n        );\n        _;\n    }\n\n    /// @dev Modifier to check that the caller is the treasury contract or controller contract\n    modifier onlyTreasuryAndControllerContract() {\n        require(\n            msg.sender == TREASURY_CONTRACT_ADDRESS ||\n                msg.sender == CONTROLLER_CONTRACT_ADDRESS,\n            \"UNAUTHORIZED: CANNOT_PERFORM_ACTION\"\n        );\n        _;\n    }\n\n    /// @dev This is to set the address of the contracts\n    /// @param newVotingHubContract This is the address of new voting hub contract\n    /// @param newTreasuryAddress This is the address of new voting hub contract\n    /// @param crdTokenAddress This is the address of CRD token contract\n    /// @param controllerContractAddress This is the address of Controller contract\n    function initialize(\n        address newVotingHubContract,\n        address newTreasuryAddress,\n        address crdTokenAddress,\n        address controllerContractAddress\n    ) public initializer ownerOnly {\n        VOTING_HUB_ADDRESS = newVotingHubContract;\n        TREASURY_CONTRACT_ADDRESS = newTreasuryAddress;\n        CONTROLLER_CONTRACT_ADDRESS = controllerContractAddress;\n        crdTokenContract = IERC20(crdTokenAddress);\n    }\n\n    /// @dev This function creates new governance tokens for specified record\n    /// @param newTokenData This contains all the parameters needed to create a new governance token that are\n    /// @param userAddress - This is the address of the user who is the creator of the token\n    function createNewGovernanceToken(\n        NewTokenData memory newTokenData,\n        address userAddress\n    ) external onlyTreasuryAndControllerContract returns (uint256) {\n        {\n            bytes memory preString = abi.encodePacked(PREFIX_GOVERNANCE);\n            newTokenData.symbol = string(\n                abi.encodePacked(preString, newTokenData.symbol)\n            );\n        }\n\n        LastTokenId++;\n        uint256 newTokenId = LastTokenId;\n\n        //Map the recordId with the\n        govTokenMapping[newTokenData.recordId] = createToken(\n            newTokenData,\n            newTokenId,\n            TOKEN_TYPE_GOVERNANCE,\n            userAddress\n        );\n        govTokenSym[newTokenData.symbol] = true;\n\n        return newTokenId;\n    }\n\n    /// @dev This function creates new community tokens for specified record\n    /// @param newTokenData This contains all the parameters needed to create a new community token that are\n    /// @param userAddress - This is the address of the user who is the creator of the token\n    function createNewCommunityToken(\n        NewTokenData memory newTokenData,\n        address userAddress\n    ) external onlyTreasuryAndControllerContract returns (uint256) {\n        {\n            bytes memory preString = abi.encodePacked(PREFIX_COMMUNITY);\n            newTokenData.symbol = string(\n                abi.encodePacked(preString, newTokenData.symbol)\n            );\n        }\n\n        LastTokenId++;\n        uint256 newTokenId = LastTokenId;\n\n        //Map the recordId with the\n        commTokenMapping[newTokenData.recordId] = createToken(\n            newTokenData,\n            newTokenId,\n            TOKEN_TYPE_COMMUNITY,\n            userAddress\n        );\n        commTokenSym[newTokenData.symbol] = true;\n\n        return newTokenId;\n    }\n\n    /// @dev This function is an internal use only function whoes role is to create a new token of specified type\n    /// @param newTokenData This contains all the parameters needed to create a new community token that are\n    /// @param newTokenId - This is the Id of the token to create\n    /// @param tokenType - This is the type of token that is to be created such as community or governance\n    /// @param userAddress - This is the address of the user who is the creator of the token\n    function createToken(\n        NewTokenData memory newTokenData,\n        uint256 newTokenId,\n        uint8 tokenType,\n        address userAddress\n    ) private returns (Token memory) {\n        uint256 treasuryAmount = (newTokenData.totalSupply -\n            newTokenData.userBalance);\n        uint256 userAmount = newTokenData.userBalance;\n\n        // Here minting of new tokens is done. And those are sent directly into the treasury\n        _mint(address(this), newTokenId, treasuryAmount, \"\");\n\n        // The user requested amount of tokens is generated and send to his account\n        _mint(userAddress, newTokenId, userAmount, \"\");\n\n        Token memory token = Token({\n            recordId: newTokenData.recordId,\n            symbol: newTokenData.symbol,\n            image: newTokenData.image,\n            creationDate: block.timestamp,\n            isPresent: true,\n            tokenId: newTokenId\n        });\n\n        emit NewTokenCreated({\n            recordId: newTokenData.recordId,\n            symbol: newTokenData.symbol,\n            image: newTokenData.image,\n            creationDate: token.creationDate,\n            tokenAmount: newTokenData.totalSupply,\n            tokenId: newTokenId,\n            tokenType: tokenType\n        });\n\n        return token;\n    }\n\n    /// @dev This function creats new community tokens for specified record\n    /// @param recordId This is the id of the record to which the token belongs to\n    /// @param tokenId This is the id of the which is to be minted\n    /// @param tokenAmount This is the amount that is to be minted\n    function mintTokens(\n        uint256 recordId,\n        uint256 tokenId,\n        uint256 tokenAmount\n    ) external onlyTreasuryContract {\n        require(\n            commTokenMapping[recordId].isPresent == true ||\n                govTokenMapping[recordId].isPresent == true,\n            \"INVALID: WRONG_RECORD_ID\"\n        );\n\n        require(\n            commTokenMapping[recordId].tokenId == tokenId ||\n                govTokenMapping[recordId].tokenId == tokenId,\n            \"INVALID: WRONG_TOKEN_ID\"\n        );\n\n        // Here minting of new tokens is done. And those are sent directly into the treasury\n        _mint(\n            address(this),\n            tokenId,\n            tokenAmount,\n            \"Token minted through voting process\"\n        );\n\n        emit TokenMinted({\n            recordId: recordId,\n            tokenId: tokenId,\n            creationDate: block.timestamp,\n            tokenAmount: tokenAmount\n        });\n    }\n\n    /// @dev This function is called only by the voting contract once the voting ends\n    /// @param to This is the receivers address\n    /// @param recordId This is the recordId to which the contribution belongs to\n    /// @param contributionId this is the contribution id to which the user has won\n    /// @param rewardGovernance this is the amount of Governance token that needs to be transferred\n    /// @param rewardCommunity this is the amount of community token that needs to be transferred\n    function transferRewardAmount(\n        address to,\n        uint256 recordId,\n        uint256 contributionId,\n        uint256 rewardGovernance,\n        uint256 rewardCommunity\n    ) external onlyTreasuryContract {\n        _setApprovalForAll(address(this), msg.sender, true);\n        if (rewardGovernance > 0) {\n            safeTransferFrom(\n                address(this),\n                to,\n                govTokenMapping[recordId].tokenId,\n                rewardGovernance,\n                \"\"\n            );\n        }\n\n        if (rewardCommunity > 0) {\n            safeTransferFrom(\n                address(this),\n                to,\n                commTokenMapping[recordId].tokenId,\n                rewardCommunity,\n                \"\"\n            );\n        }\n\n        emit ContributionRewardTransferred({\n            to: to,\n            recordId: recordId,\n            contributionId: contributionId,\n            rewardGovernance: rewardGovernance,\n            rewardCommunity: rewardCommunity\n        });\n    }\n\n    // Update balance and/or total supply snapshots before the values are modified. This is implemented\n    // in the _beforeTokenTransfer hook, which is executed for _mint, _burn, and _transfer operations.\n    function _beforeTokenTransfer(\n        address operator,\n        address from,\n        address to,\n        uint256[] memory ids,\n        uint256[] memory amounts,\n        bytes memory data\n    ) internal override {\n        //Below condition is needed as the _mint is called in the constructor\n        //and at that particular point in time the below address is not initialized thus leading to a revert\n        if (VOTING_HUB_ADDRESS != address(0)) {\n            VotingHubContract votingHubContract = VotingHubContract(\n                VOTING_HUB_ADDRESS\n            );\n            for (uint256 i = 0; i < ids.length; i++) {\n                votingHubContract.handleUserTokenTransfers(\n                    from,\n                    to,\n                    amounts[i],\n                    ids[i]\n                );\n            }\n        }\n\n        super._beforeTokenTransfer(operator, from, to, ids, amounts, data);\n    }\n\n    /// @dev This function sets the symbol name as used, this function is called from records\n    // contract to reserve symbol for new version creation\n    /// @param governanceSymbol Symbol for governance token\n    /// @param communitySymbol Symbol for community token\n    function setSymbolsAsUsed(\n        string memory governanceSymbol,\n        string memory communitySymbol\n    ) external onlyTreasuryContract {\n        commTokenSym[communitySymbol] = true;\n        govTokenSym[governanceSymbol] = true;\n    }\n\n    /// @dev This function sets the symbol name as available, this function is called from records\n    // contract to reserve symbol for new version creation\n    /// @param governanceSymbol Symbol for governance token\n    /// @param communitySymbol Symbol for community token\n    function setSymbolsAsAvailable(\n        string memory governanceSymbol,\n        string memory communitySymbol\n    ) external onlyTreasuryContract {\n        commTokenSym[communitySymbol] = false;\n        govTokenSym[governanceSymbol] = false;\n    }\n\n    /// @dev This function checks if symbol are available or not\n    /// @param governanceSymbol Symbol for governance token\n    /// @param communitySymbol Symbol for community token\n    function isSymbolAvailable(\n        string memory governanceSymbol,\n        string memory communitySymbol\n    ) external onlyTreasuryContract {\n        require(!commTokenSym[communitySymbol], \"SYMBOL_C_TAKEN\");\n        require(!govTokenSym[governanceSymbol], \"SYMBOL_G_TAKEN\");\n    }\n\n    /// @dev this function is responsible for minting of new tokens for records\n    /// @param tokenId Id this is the tokenId that is to minted\n    /// @param amount the amount that is to be minted\n    /// @param receiver Id this is the tokenId that is to minted\n    function transferRewardTokens(\n        uint256 tokenId,\n        uint256 amount,\n        address receiver\n    ) public onlyTreasuryContract {\n        _setApprovalForAll(address(this), msg.sender, true);\n        safeTransferFrom(\n            address(this),\n            receiver,\n            tokenId,\n            amount,\n            \"RECORD_TOKEN_TRANSFER\"\n        );\n    }\n\n    /// @dev The safeTransferFrom method has been overriden so that whenever we\n    /// need to transfer the CRD token from one address to another that can be done\n    /// within the same function\n    /// @param from this is the address of the user from whose account the token is to be deducted\n    /// @param to this is the account of user where the token will be deposited\n    /// @param id this is the id of the token that is to be transferred\n    /// @param amount the amount of token to be transferred\n    /// @param data extra information for the transaction\n    function _safeTransferFrom(\n        address from,\n        address to,\n        uint256 id,\n        uint256 amount,\n        bytes memory data\n    ) internal virtual override {\n        if (id == CRD) {\n            crdTokenContract.safeTransferFrom(from, to, amount);\n        } else {\n            super._safeTransferFrom(from, to, id, amount, data);\n        }\n    }\n\n    /// @dev this function is responsible to return the balance of a token\n    /// Here it has been overridden so that any request for CRD token will be\n    /// redirected to the ERC20 contract of CRD token\n    /// @param account this is the address of the user whose balance you want to check\n    /// @param id this is the id of the token that is to be transferred\n    /// @return balance This is the balance of the user\n    function balanceOf(\n        address account,\n        uint256 id\n    ) public view virtual override returns (uint256) {\n        if (id == CRD) return crdTokenContract.balanceOf(account);\n        else return super.balanceOf(account, id);\n    }\n\n    function snapshot()\n        external\n        onlyTreasuryContract\n        returns (uint256 snapshotId)\n    {\n        return _snapshot();\n    }\n\n    function mint(\n        uint256 tokenId,\n        uint256 amount\n    ) external onlyTreasuryContract {\n        _mint(address(this), tokenId, amount, \"New tokens minted\");\n    }\n\n    function onERC1155Received(\n        address operator,\n        address from,\n        uint256 id,\n        uint256 value,\n        bytes calldata data\n    ) external virtual override returns (bytes4) {\n        return\n            bytes4(\n                keccak256(\n                    \"onERC1155Received(address,address,uint256,uint256,bytes)\"\n                )\n            );\n    }\n\n    function onERC1155BatchReceived(\n        address operator,\n        address from,\n        uint256[] calldata ids,\n        uint256[] calldata values,\n        bytes calldata data\n    ) external virtual override returns (bytes4) {\n        return\n            bytes4(\n                keccak256(\n                    \"onERC1155BatchReceived(address,address,uint256[],uint256[],bytes)\"\n                )\n            );\n    }\n}\n",
  "sourcePath": "/Users/a1/Desktop/Office/projects/CrowdRecords/Contracts/contracts/treasury/TreasuryCoreContract.sol",
  "compiler": {
    "name": "solc",
    "version": "0.8.12+commit.f00d7308.Emscripten.clang"
  },
  "schemaVersion": "3.4.6",
  "updatedAt": "2023-05-17T05:46:16.799Z",
  "networkType": "ethereum",
  "devdoc": {
    "events": {
      "ContributionRewardTransferred(address,uint256,uint256,uint256,uint256)": {
        "details": "this is event which is generated when a contribution voting has came to an end and the contribution is accepted",
        "params": {
          "contributionId": "This is the id of the contribution to which the record is related to",
          "recordId": "This is the id of the record to which this contribution relates to",
          "rewardCommunity": "The reward amount for community tokens",
          "rewardGovernance": "The reward amount for governance tokens",
          "to": "This the address of the winner or the owner of the contribution"
        }
      },
      "NewTokenCreated(uint256,string,string,uint256,uint256,uint256,uint8)": {
        "details": "this is event which is created when new governance token is created (NEW CREATION Not MINTING)",
        "params": {
          "creationDate": "This is the creation date of the token",
          "image": "This is the image of the token",
          "recordId": "This is the record Id to which this token belongs to",
          "symbol": "This is the symbol of the governance token",
          "tokenAmount": "This is the amount of token that are created",
          "tokenId": "This is the id of token that is newly created tokens",
          "tokenType": "This is the type of the token that is created => For governance 1 and for copyright 0"
        }
      },
      "TokenMinted(uint256,uint256,uint256,uint256)": {
        "details": "this is event which is created when new governance token is minted after the voting is done",
        "params": {
          "creationDate": "This is the creation date of the token",
          "recordId": "This is the record Id to which this token belongs to",
          "tokenAmount": "This is the amount of token that are created",
          "tokenId": "This is the id of token that is newly created tokens"
        }
      },
      "TokenTransfer(address,address,uint256,uint256,uint256,string)": {
        "details": "this is event which is created when a token transfer takes place",
        "params": {
          "amount": "This is the amount of token transferred",
          "from": "This is the address of sender",
          "symbol": "This is the symbol of the token that were transferred",
          "to": "This is the address of receiver",
          "tokenId": "This is the id of the token that is being transferred",
          "transferDate": "This is the date of the transfer"
        }
      }
    },
    "kind": "dev",
    "methods": {
      "balanceOf(address,uint256)": {
        "details": "this function is responsible to return the balance of a token Here it has been overridden so that any request for CRD token will be redirected to the ERC20 contract of CRD token",
        "params": {
          "account": "this is the address of the user whose balance you want to check",
          "id": "this is the id of the token that is to be transferred"
        },
        "returns": {
          "_0": "balance This is the balance of the user"
        }
      },
      "balanceOfAt(address,uint256,uint256)": {
        "details": "Retrieves the balance of `account` at the time `snapshotId` was created."
      },
      "balanceOfBatch(address[],uint256[])": {
        "details": "See {IERC1155-balanceOfBatch}. Requirements: - `accounts` and `ids` must have the same length."
      },
      "createNewCommunityToken((uint256,uint256,uint256,string,string),address)": {
        "details": "This function creates new community tokens for specified record",
        "params": {
          "newTokenData": "This contains all the parameters needed to create a new community token that are",
          "userAddress": "- This is the address of the user who is the creator of the token"
        }
      },
      "createNewGovernanceToken((uint256,uint256,uint256,string,string),address)": {
        "details": "This function creates new governance tokens for specified record",
        "params": {
          "newTokenData": "This contains all the parameters needed to create a new governance token that are",
          "userAddress": "- This is the address of the user who is the creator of the token"
        }
      },
      "exists(uint256)": {
        "details": "Indicates whether any token exist with a given id, or not."
      },
      "initialize(address,address,address,address)": {
        "details": "This is to set the address of the contracts",
        "params": {
          "controllerContractAddress": "This is the address of Controller contract",
          "crdTokenAddress": "This is the address of CRD token contract",
          "newTreasuryAddress": "This is the address of new voting hub contract",
          "newVotingHubContract": "This is the address of new voting hub contract"
        }
      },
      "isApprovedForAll(address,address)": {
        "details": "See {IERC1155-isApprovedForAll}."
      },
      "isSymbolAvailable(string,string)": {
        "details": "This function checks if symbol are available or not",
        "params": {
          "communitySymbol": "Symbol for community token",
          "governanceSymbol": "Symbol for governance token"
        }
      },
      "mintTokens(uint256,uint256,uint256)": {
        "details": "This function creats new community tokens for specified record",
        "params": {
          "recordId": "This is the id of the record to which the token belongs to",
          "tokenAmount": "This is the amount that is to be minted",
          "tokenId": "This is the id of the which is to be minted"
        }
      },
      "onERC1155BatchReceived(address,address,uint256[],uint256[],bytes)": {
        "details": "Handles the receipt of a multiple ERC1155 token types. This function is called at the end of a `safeBatchTransferFrom` after the balances have been updated. NOTE: To accept the transfer(s), this must return `bytes4(keccak256(\"onERC1155BatchReceived(address,address,uint256[],uint256[],bytes)\"))` (i.e. 0xbc197c81, or its own function selector).",
        "params": {
          "data": "Additional data with no specified format",
          "from": "The address which previously owned the token",
          "ids": "An array containing ids of each token being transferred (order and length must match values array)",
          "operator": "The address which initiated the batch transfer (i.e. msg.sender)",
          "values": "An array containing amounts of each token being transferred (order and length must match ids array)"
        },
        "returns": {
          "_0": "`bytes4(keccak256(\"onERC1155BatchReceived(address,address,uint256[],uint256[],bytes)\"))` if transfer is allowed"
        }
      },
      "onERC1155Received(address,address,uint256,uint256,bytes)": {
        "details": "Handles the receipt of a single ERC1155 token type. This function is called at the end of a `safeTransferFrom` after the balance has been updated. NOTE: To accept the transfer, this must return `bytes4(keccak256(\"onERC1155Received(address,address,uint256,uint256,bytes)\"))` (i.e. 0xf23a6e61, or its own function selector).",
        "params": {
          "data": "Additional data with no specified format",
          "from": "The address which previously owned the token",
          "id": "The ID of the token being transferred",
          "operator": "The address which initiated the transfer (i.e. msg.sender)",
          "value": "The amount of tokens being transferred"
        },
        "returns": {
          "_0": "`bytes4(keccak256(\"onERC1155Received(address,address,uint256,uint256,bytes)\"))` if transfer is allowed"
        }
      },
      "safeBatchTransferFrom(address,address,uint256[],uint256[],bytes)": {
        "details": "See {IERC1155-safeBatchTransferFrom}."
      },
      "safeTransferFrom(address,address,uint256,uint256,bytes)": {
        "details": "See {IERC1155-safeTransferFrom}."
      },
      "setApprovalForAll(address,bool)": {
        "details": "See {IERC1155-setApprovalForAll}."
      },
      "setSymbolsAsAvailable(string,string)": {
        "params": {
          "communitySymbol": "Symbol for community token",
          "governanceSymbol": "Symbol for governance token"
        }
      },
      "setSymbolsAsUsed(string,string)": {
        "params": {
          "communitySymbol": "Symbol for community token",
          "governanceSymbol": "Symbol for governance token"
        }
      },
      "supportsInterface(bytes4)": {
        "details": "See {IERC165-supportsInterface}."
      },
      "totalSupply(uint256)": {
        "details": "Total amount of tokens in with a given id."
      },
      "totalSupplyAt(uint256,uint256)": {
        "details": "Retrieves the total supply at the time `snapshotId` was created."
      },
      "transferRewardAmount(address,uint256,uint256,uint256,uint256)": {
        "details": "This function is called only by the voting contract once the voting ends",
        "params": {
          "contributionId": "this is the contribution id to which the user has won",
          "recordId": "This is the recordId to which the contribution belongs to",
          "rewardCommunity": "this is the amount of community token that needs to be transferred",
          "rewardGovernance": "this is the amount of Governance token that needs to be transferred",
          "to": "This is the receivers address"
        }
      },
      "transferRewardTokens(uint256,uint256,address)": {
        "details": "this function is responsible for minting of new tokens for records",
        "params": {
          "amount": "the amount that is to be minted",
          "receiver": "Id this is the tokenId that is to minted",
          "tokenId": "Id this is the tokenId that is to minted"
        }
      },
      "uri(uint256)": {
        "details": "See {IERC1155MetadataURI-uri}. This implementation returns the same URI for *all* token types. It relies on the token type ID substitution mechanism https://eips.ethereum.org/EIPS/eip-1155#metadata[defined in the EIP]. Clients calling this function must replace the `\\{id\\}` substring with the actual token type ID."
      }
    },
    "version": 1
  },
  "userdoc": {
    "kind": "user",
    "methods": {},
    "version": 1
  }
}