{
  "contractName": "TreasuryContract",
  "abi": [
    {
      "inputs": [
        {
          "internalType": "address",
          "name": "owner",
          "type": "address"
        }
      ],
      "stateMutability": "nonpayable",
      "type": "constructor"
    },
    {
      "inputs": [],
      "name": "CONTRIBUTION_VOTING_CONTRACT_ADDRESS",
      "outputs": [
        {
          "internalType": "address",
          "name": "",
          "type": "address"
        }
      ],
      "stateMutability": "view",
      "type": "function",
      "constant": true
    },
    {
      "inputs": [],
      "name": "CRD",
      "outputs": [
        {
          "internalType": "uint256",
          "name": "",
          "type": "uint256"
        }
      ],
      "stateMutability": "view",
      "type": "function",
      "constant": true
    },
    {
      "inputs": [],
      "name": "DILUTION_CONTRACT_ADDRESS",
      "outputs": [
        {
          "internalType": "address",
          "name": "",
          "type": "address"
        }
      ],
      "stateMutability": "view",
      "type": "function",
      "constant": true
    },
    {
      "inputs": [],
      "name": "OWNER",
      "outputs": [
        {
          "internalType": "address",
          "name": "",
          "type": "address"
        }
      ],
      "stateMutability": "view",
      "type": "function",
      "constant": true
    },
    {
      "inputs": [],
      "name": "RECORDS_CONTRACT_ADDRESS",
      "outputs": [
        {
          "internalType": "address",
          "name": "",
          "type": "address"
        }
      ],
      "stateMutability": "view",
      "type": "function",
      "constant": true
    },
    {
      "inputs": [],
      "name": "TREASURY_CORE_CONTRACT_ADDRESS",
      "outputs": [
        {
          "internalType": "address",
          "name": "",
          "type": "address"
        }
      ],
      "stateMutability": "view",
      "type": "function",
      "constant": true
    },
    {
      "inputs": [
        {
          "internalType": "address",
          "name": "ownerAddress",
          "type": "address"
        }
      ],
      "name": "setOwnerAddress",
      "outputs": [],
      "stateMutability": "nonpayable",
      "type": "function"
    },
    {
      "inputs": [
        {
          "internalType": "address",
          "name": "ownerAddress",
          "type": "address"
        }
      ],
      "name": "setCoreTreasuryAddress",
      "outputs": [],
      "stateMutability": "nonpayable",
      "type": "function"
    },
    {
      "inputs": [
        {
          "internalType": "address",
          "name": "newRecordsContractAddress",
          "type": "address"
        }
      ],
      "name": "setRecordsContractAddress",
      "outputs": [],
      "stateMutability": "nonpayable",
      "type": "function"
    },
    {
      "inputs": [
        {
          "internalType": "address",
          "name": "newDilutionContract",
          "type": "address"
        }
      ],
      "name": "setDilutionContract",
      "outputs": [],
      "stateMutability": "nonpayable",
      "type": "function"
    },
    {
      "inputs": [
        {
          "internalType": "address",
          "name": "newVotingContractAddress",
          "type": "address"
        }
      ],
      "name": "setContributionVotingContractAddress",
      "outputs": [],
      "stateMutability": "nonpayable",
      "type": "function"
    },
    {
      "inputs": [
        {
          "components": [
            {
              "internalType": "uint256",
              "name": "recordId",
              "type": "uint256"
            },
            {
              "internalType": "uint256",
              "name": "totalSupply",
              "type": "uint256"
            },
            {
              "internalType": "uint256",
              "name": "userBalance",
              "type": "uint256"
            },
            {
              "internalType": "string",
              "name": "symbol",
              "type": "string"
            },
            {
              "internalType": "string",
              "name": "image",
              "type": "string"
            }
          ],
          "internalType": "struct TreasuryCoreContract.NewTokenData",
          "name": "newTokenData",
          "type": "tuple"
        }
      ],
      "name": "createNewGovernanceToken",
      "outputs": [
        {
          "internalType": "uint256",
          "name": "",
          "type": "uint256"
        }
      ],
      "stateMutability": "payable",
      "type": "function",
      "payable": true
    },
    {
      "inputs": [
        {
          "components": [
            {
              "internalType": "uint256",
              "name": "recordId",
              "type": "uint256"
            },
            {
              "internalType": "uint256",
              "name": "totalSupply",
              "type": "uint256"
            },
            {
              "internalType": "uint256",
              "name": "userBalance",
              "type": "uint256"
            },
            {
              "internalType": "string",
              "name": "symbol",
              "type": "string"
            },
            {
              "internalType": "string",
              "name": "image",
              "type": "string"
            }
          ],
          "internalType": "struct TreasuryCoreContract.NewTokenData",
          "name": "newTokenData",
          "type": "tuple"
        }
      ],
      "name": "createNewCommunityToken",
      "outputs": [
        {
          "internalType": "uint256",
          "name": "",
          "type": "uint256"
        }
      ],
      "stateMutability": "payable",
      "type": "function",
      "payable": true
    },
    {
      "inputs": [
        {
          "internalType": "address",
          "name": "to",
          "type": "address"
        },
        {
          "internalType": "uint256",
          "name": "recordId",
          "type": "uint256"
        },
        {
          "internalType": "uint256",
          "name": "contributionId",
          "type": "uint256"
        },
        {
          "internalType": "uint256",
          "name": "rewardGovernance",
          "type": "uint256"
        },
        {
          "internalType": "uint256",
          "name": "rewardCommunity",
          "type": "uint256"
        }
      ],
      "name": "transferRewardAmount",
      "outputs": [],
      "stateMutability": "payable",
      "type": "function",
      "payable": true
    },
    {
      "inputs": [
        {
          "internalType": "uint256",
          "name": "recordId",
          "type": "uint256"
        }
      ],
      "name": "getCommunityTokenId",
      "outputs": [
        {
          "internalType": "uint256",
          "name": "",
          "type": "uint256"
        }
      ],
      "stateMutability": "view",
      "type": "function",
      "constant": true
    },
    {
      "inputs": [
        {
          "internalType": "uint256",
          "name": "recordId",
          "type": "uint256"
        }
      ],
      "name": "getGovernanceTokenId",
      "outputs": [
        {
          "internalType": "uint256",
          "name": "",
          "type": "uint256"
        }
      ],
      "stateMutability": "view",
      "type": "function",
      "constant": true
    },
    {
      "inputs": [
        {
          "internalType": "uint256",
          "name": "tokenId",
          "type": "uint256"
        }
      ],
      "name": "totalCirculatingSupply",
      "outputs": [
        {
          "internalType": "uint256",
          "name": "",
          "type": "uint256"
        }
      ],
      "stateMutability": "view",
      "type": "function",
      "constant": true
    },
    {
      "inputs": [
        {
          "internalType": "string",
          "name": "governanceSymbol",
          "type": "string"
        },
        {
          "internalType": "string",
          "name": "communitySymbol",
          "type": "string"
        }
      ],
      "name": "setSymbolsAsUsed",
      "outputs": [],
      "stateMutability": "nonpayable",
      "type": "function"
    },
    {
      "inputs": [
        {
          "internalType": "string",
          "name": "governanceSymbol",
          "type": "string"
        },
        {
          "internalType": "string",
          "name": "communitySymbol",
          "type": "string"
        }
      ],
      "name": "setSymbolsAsAvailable",
      "outputs": [],
      "stateMutability": "nonpayable",
      "type": "function"
    },
    {
      "inputs": [],
      "name": "snapshot",
      "outputs": [
        {
          "internalType": "uint256",
          "name": "snapshotId",
          "type": "uint256"
        }
      ],
      "stateMutability": "nonpayable",
      "type": "function"
    },
    {
      "inputs": [
        {
          "internalType": "uint256",
          "name": "tokenId",
          "type": "uint256"
        },
        {
          "internalType": "uint256",
          "name": "amount",
          "type": "uint256"
        }
      ],
      "name": "mintTokens",
      "outputs": [],
      "stateMutability": "nonpayable",
      "type": "function"
    },
    {
      "inputs": [
        {
          "internalType": "uint256",
          "name": "recordId",
          "type": "uint256"
        },
        {
          "internalType": "uint256",
          "name": "tokenId",
          "type": "uint256"
        },
        {
          "internalType": "uint256",
          "name": "tokenAmount",
          "type": "uint256"
        }
      ],
      "name": "mintTokens",
      "outputs": [],
      "stateMutability": "payable",
      "type": "function",
      "payable": true
    }
  ],
  "bytecode": "0x60806040523480156200001157600080fd5b50604051620028df380380620028df8339818101604052810190620000379190620000e8565b806000806101000a81548173ffffffffffffffffffffffffffffffffffffffff021916908373ffffffffffffffffffffffffffffffffffffffff160217905550506200011a565b600080fd5b600073ffffffffffffffffffffffffffffffffffffffff82169050919050565b6000620000b08262000083565b9050919050565b620000c281620000a3565b8114620000ce57600080fd5b50565b600081519050620000e281620000b7565b92915050565b6000602082840312156200010157620001006200007e565b5b60006200011184828501620000d1565b91505092915050565b6127b5806200012a6000396000f3fe6080604052600436106101355760003560e01c80636d15dd2c116100ab578063ba19a6751161006f578063ba19a675146103e7578063cceaf62514610412578063d6ca40a714610442578063dfe813eb1461047f578063e6870f95146104a8578063e6acd9b8146104d357610135565b80636d15dd2c146103295780638388f413146103595780638fbf353f146103755780639711715a14610391578063af670769146103bc57610135565b806334a7c2e7116100fd57806334a7c2e71461023157806338894e721461025a578063556bed3a146102835780635f938ad2146102ae5780636055c855146102d757806361cbc3571461030057610135565b8063036c22ad1461013a578063117803e31461017757806321aa2ccf146101a25780632d4a0382146101cb578063331a6bf514610208575b600080fd5b34801561014657600080fd5b50610161600480360381019061015c91906119cc565b6104fe565b60405161016e9190611a08565b60405180910390f35b34801561018357600080fd5b5061018c610631565b6040516101999190611a64565b60405180910390f35b3480156101ae57600080fd5b506101c960048036038101906101c49190611aab565b610655565b005b3480156101d757600080fd5b506101f260048036038101906101ed91906119cc565b610727565b6040516101ff9190611a08565b60405180910390f35b34801561021457600080fd5b5061022f600480360381019061022a9190611aab565b61082a565b005b34801561023d57600080fd5b5061025860048036038101906102539190611ad8565b6108fb565b005b34801561026657600080fd5b50610281600480360381019061027c9190611aab565b610a24565b005b34801561028f57600080fd5b50610298610af6565b6040516102a59190611a64565b60405180910390f35b3480156102ba57600080fd5b506102d560048036038101906102d09190611c5e565b610b1c565b005b3480156102e357600080fd5b506102fe60048036038101906102f99190611aab565b610c45565b005b34801561030c57600080fd5b5061032760048036038101906103229190611c5e565b610d17565b005b610343600480360381019061033e9190611da4565b610fc0565b6040516103509190611a08565b60405180910390f35b610373600480360381019061036e9190611ded565b6111df565b005b61038f600480360381019061038a9190611e68565b611335565b005b34801561039d57600080fd5b506103a6611461565b6040516103b39190611a08565b60405180910390f35b3480156103c857600080fd5b506103d1611500565b6040516103de9190611a64565b60405180910390f35b3480156103f357600080fd5b506103fc611526565b6040516104099190611a64565b60405180910390f35b61042c60048036038101906104279190611da4565b61154c565b6040516104399190611a08565b60405180910390f35b34801561044e57600080fd5b50610469600480360381019061046491906119cc565b61176c565b6040516104769190611a08565b60405180910390f35b34801561048b57600080fd5b506104a660048036038101906104a19190611aab565b61186f565b005b3480156104b457600080fd5b506104bd611941565b6040516104ca9190611a64565b60405180910390f35b3480156104df57600080fd5b506104e8611967565b6040516104f59190611a08565b60405180910390f35b600080600460009054906101000a900473ffffffffffffffffffffffffffffffffffffffff16905060006106258273ffffffffffffffffffffffffffffffffffffffff1663bd85b039866040518263ffffffff1660e01b81526004016105649190611a08565b602060405180830381865afa158015610581573d6000803e3d6000fd5b505050506040513d601f19601f820116820180604052508101906105a59190611ed0565b8373ffffffffffffffffffffffffffffffffffffffff1662fdd58e30886040518363ffffffff1660e01b81526004016105df929190611efd565b602060405180830381865afa1580156105fc573d6000803e3d6000fd5b505050506040513d601f19601f820116820180604052508101906106209190611ed0565b61196c565b90508092505050919050565b60008054906101000a900473ffffffffffffffffffffffffffffffffffffffff1681565b60008054906101000a900473ffffffffffffffffffffffffffffffffffffffff1673ffffffffffffffffffffffffffffffffffffffff163373ffffffffffffffffffffffffffffffffffffffff16146106e3576040517f08c379a00000000000000000000000000000000000000000000000000000000081526004016106da90611fa9565b60405180910390fd5b80600360006101000a81548173ffffffffffffffffffffffffffffffffffffffff021916908373ffffffffffffffffffffffffffffffffffffffff16021790555050565b600080600460009054906101000a900473ffffffffffffffffffffffffffffffffffffffff1690506000808273ffffffffffffffffffffffffffffffffffffffff1663af94e4a9866040518263ffffffff1660e01b815260040161078b9190611a08565b600060405180830381865afa1580156107a8573d6000803e3d6000fd5b505050506040513d6000823e3d601f19601f820116820180604052508101906107d191906120a4565b955095505050505081156107ea57809350505050610825565b6040517f08c379a000000000000000000000000000000000000000000000000000000000815260040161081c906121b5565b60405180910390fd5b919050565b60008054906101000a900473ffffffffffffffffffffffffffffffffffffffff1673ffffffffffffffffffffffffffffffffffffffff163373ffffffffffffffffffffffffffffffffffffffff16146108b8576040517f08c379a00000000000000000000000000000000000000000000000000000000081526004016108af90611fa9565b60405180910390fd5b806000806101000a81548173ffffffffffffffffffffffffffffffffffffffff021916908373ffffffffffffffffffffffffffffffffffffffff16021790555050565b600360009054906101000a900473ffffffffffffffffffffffffffffffffffffffff1673ffffffffffffffffffffffffffffffffffffffff163373ffffffffffffffffffffffffffffffffffffffff161461098b576040517f08c379a000000000000000000000000000000000000000000000000000000000815260040161098290611fa9565b60405180910390fd5b6000600460009054906101000a900473ffffffffffffffffffffffffffffffffffffffff1690508073ffffffffffffffffffffffffffffffffffffffff16631b2ef1ca84846040518363ffffffff1660e01b81526004016109ed9291906121d5565b600060405180830381600087803b158015610a0757600080fd5b505af1158015610a1b573d6000803e3d6000fd5b50505050505050565b60008054906101000a900473ffffffffffffffffffffffffffffffffffffffff1673ffffffffffffffffffffffffffffffffffffffff163373ffffffffffffffffffffffffffffffffffffffff1614610ab2576040517f08c379a0000000000000000000000000000000000000000000000000000000008152600401610aa990611fa9565b60405180910390fd5b80600460006101000a81548173ffffffffffffffffffffffffffffffffffffffff021916908373ffffffffffffffffffffffffffffffffffffffff16021790555050565b600460009054906101000a900473ffffffffffffffffffffffffffffffffffffffff1681565b600160009054906101000a900473ffffffffffffffffffffffffffffffffffffffff1673ffffffffffffffffffffffffffffffffffffffff163373ffffffffffffffffffffffffffffffffffffffff1614610bac576040517f08c379a0000000000000000000000000000000000000000000000000000000008152600401610ba390612270565b60405180910390fd5b6000600460009054906101000a900473ffffffffffffffffffffffffffffffffffffffff1690508073ffffffffffffffffffffffffffffffffffffffff16635f938ad284846040518363ffffffff1660e01b8152600401610c0e9291906122d4565b600060405180830381600087803b158015610c2857600080fd5b505af1158015610c3c573d6000803e3d6000fd5b50505050505050565b60008054906101000a900473ffffffffffffffffffffffffffffffffffffffff1673ffffffffffffffffffffffffffffffffffffffff163373ffffffffffffffffffffffffffffffffffffffff1614610cd3576040517f08c379a0000000000000000000000000000000000000000000000000000000008152600401610cca90611fa9565b60405180910390fd5b80600260006101000a81548173ffffffffffffffffffffffffffffffffffffffff021916908373ffffffffffffffffffffffffffffffffffffffff16021790555050565b600160009054906101000a900473ffffffffffffffffffffffffffffffffffffffff1673ffffffffffffffffffffffffffffffffffffffff163373ffffffffffffffffffffffffffffffffffffffff1614610da7576040517f08c379a0000000000000000000000000000000000000000000000000000000008152600401610d9e90612270565b60405180910390fd5b6000600460009054906101000a900473ffffffffffffffffffffffffffffffffffffffff169050600015158173ffffffffffffffffffffffffffffffffffffffff16631644e0ff856040518263ffffffff1660e01b8152600401610e0b919061230b565b602060405180830381865afa158015610e28573d6000803e3d6000fd5b505050506040513d601f19601f82011682018060405250810190610e4c919061232d565b151514610e8e576040517f08c379a0000000000000000000000000000000000000000000000000000000008152600401610e85906123cc565b60405180910390fd5b600015158173ffffffffffffffffffffffffffffffffffffffff16638958a5de846040518263ffffffff1660e01b8152600401610ecb919061230b565b602060405180830381865afa158015610ee8573d6000803e3d6000fd5b505050506040513d601f19601f82011682018060405250810190610f0c919061232d565b151514610f4e576040517f08c379a0000000000000000000000000000000000000000000000000000000008152600401610f45906123cc565b60405180910390fd5b8073ffffffffffffffffffffffffffffffffffffffff166361cbc35784846040518363ffffffff1660e01b8152600401610f899291906122d4565b600060405180830381600087803b158015610fa357600080fd5b505af1158015610fb7573d6000803e3d6000fd5b50505050505050565b600081806040015160028260200151610fd9919061244a565b11611019576040517f08c379a0000000000000000000000000000000000000000000000000000000008152600401611010906124ed565b60405180910390fd5b6000600160009054906101000a900473ffffffffffffffffffffffffffffffffffffffff16905060008173ffffffffffffffffffffffffffffffffffffffff16636352211e84600001516040518263ffffffff1660e01b815260040161107f9190611a08565b6020604051808303816000875af115801561109e573d6000803e3d6000fd5b505050506040513d601f19601f820116820180604052508101906110c29190612522565b90503373ffffffffffffffffffffffffffffffffffffffff168173ffffffffffffffffffffffffffffffffffffffff1614611132576040517f08c379a00000000000000000000000000000000000000000000000000000000081526004016111299061259b565b60405180910390fd5b6000600460009054906101000a900473ffffffffffffffffffffffffffffffffffffffff1690508073ffffffffffffffffffffffffffffffffffffffff16636d15dd2c876040518263ffffffff1660e01b81526004016111929190612691565b6020604051808303816000875af11580156111b1573d6000803e3d6000fd5b505050506040513d601f19601f820116820180604052508101906111d59190611ed0565b5050505050919050565b600260009054906101000a900473ffffffffffffffffffffffffffffffffffffffff1673ffffffffffffffffffffffffffffffffffffffff163373ffffffffffffffffffffffffffffffffffffffff161461126f576040517f08c379a000000000000000000000000000000000000000000000000000000000815260040161126690611fa9565b60405180910390fd5b6000600460009054906101000a900473ffffffffffffffffffffffffffffffffffffffff1690508073ffffffffffffffffffffffffffffffffffffffff1663692a530e8787878787600260009054906101000a900473ffffffffffffffffffffffffffffffffffffffff166040518763ffffffff1660e01b81526004016112fb969594939291906126b3565b600060405180830381600087803b15801561131557600080fd5b505af1158015611329573d6000803e3d6000fd5b50505050505050505050565b600260009054906101000a900473ffffffffffffffffffffffffffffffffffffffff1673ffffffffffffffffffffffffffffffffffffffff163373ffffffffffffffffffffffffffffffffffffffff16146113c5576040517f08c379a00000000000000000000000000000000000000000000000000000000081526004016113bc90611fa9565b60405180910390fd5b6000600460009054906101000a900473ffffffffffffffffffffffffffffffffffffffff1690508073ffffffffffffffffffffffffffffffffffffffff16638fbf353f8585856040518463ffffffff1660e01b815260040161142993929190612714565b600060405180830381600087803b15801561144357600080fd5b505af1158015611457573d6000803e3d6000fd5b5050505050505050565b600080600460009054906101000a900473ffffffffffffffffffffffffffffffffffffffff1690508073ffffffffffffffffffffffffffffffffffffffff16639711715a6040518163ffffffff1660e01b81526004016020604051808303816000875af11580156114d6573d6000803e3d6000fd5b505050506040513d601f19601f820116820180604052508101906114fa9190611ed0565b91505090565b600260009054906101000a900473ffffffffffffffffffffffffffffffffffffffff1681565b600160009054906101000a900473ffffffffffffffffffffffffffffffffffffffff1681565b600081806040015160028260200151611565919061244a565b116115a5576040517f08c379a000000000000000000000000000000000000000000000000000000000815260040161159c906124ed565b60405180910390fd5b6000600160009054906101000a900473ffffffffffffffffffffffffffffffffffffffff16905060008173ffffffffffffffffffffffffffffffffffffffff16636352211e84600001516040518263ffffffff1660e01b815260040161160b9190611a08565b6020604051808303816000875af115801561162a573d6000803e3d6000fd5b505050506040513d601f19601f8201168201806040525081019061164e9190612522565b90503373ffffffffffffffffffffffffffffffffffffffff168173ffffffffffffffffffffffffffffffffffffffff16146116be576040517f08c379a00000000000000000000000000000000000000000000000000000000081526004016116b59061259b565b60405180910390fd5b6000600460009054906101000a900473ffffffffffffffffffffffffffffffffffffffff1690508073ffffffffffffffffffffffffffffffffffffffff1663cceaf625876040518263ffffffff1660e01b815260040161171e9190612691565b6020604051808303816000875af115801561173d573d6000803e3d6000fd5b505050506040513d601f19601f820116820180604052508101906117619190611ed0565b945050505050919050565b600080600460009054906101000a900473ffffffffffffffffffffffffffffffffffffffff1690506000808273ffffffffffffffffffffffffffffffffffffffff1663884c8ffe866040518263ffffffff1660e01b81526004016117d09190611a08565b600060405180830381865afa1580156117ed573d6000803e3d6000fd5b505050506040513d6000823e3d601f19601f8201168201806040525081019061181691906120a4565b9550955050505050811561182f5780935050505061186a565b6040517f08c379a0000000000000000000000000000000000000000000000000000000008152600401611861906121b5565b60405180910390fd5b919050565b60008054906101000a900473ffffffffffffffffffffffffffffffffffffffff1673ffffffffffffffffffffffffffffffffffffffff163373ffffffffffffffffffffffffffffffffffffffff16146118fd576040517f08c379a00000000000000000000000000000000000000000000000000000000081526004016118f490611fa9565b60405180910390fd5b80600160006101000a81548173ffffffffffffffffffffffffffffffffffffffff021916908373ffffffffffffffffffffffffffffffffffffffff16021790555050565b600360009054906101000a900473ffffffffffffffffffffffffffffffffffffffff1681565b600181565b6000818361197a919061274b565b905092915050565b6000604051905090565b600080fd5b600080fd5b6000819050919050565b6119a981611996565b81146119b457600080fd5b50565b6000813590506119c6816119a0565b92915050565b6000602082840312156119e2576119e161198c565b5b60006119f0848285016119b7565b91505092915050565b611a0281611996565b82525050565b6000602082019050611a1d60008301846119f9565b92915050565b600073ffffffffffffffffffffffffffffffffffffffff82169050919050565b6000611a4e82611a23565b9050919050565b611a5e81611a43565b82525050565b6000602082019050611a796000830184611a55565b92915050565b611a8881611a43565b8114611a9357600080fd5b50565b600081359050611aa581611a7f565b92915050565b600060208284031215611ac157611ac061198c565b5b6000611acf84828501611a96565b91505092915050565b60008060408385031215611aef57611aee61198c565b5b6000611afd858286016119b7565b9250506020611b0e858286016119b7565b9150509250929050565b600080fd5b600080fd5b6000601f19601f8301169050919050565b7f4e487b7100000000000000000000000000000000000000000000000000000000600052604160045260246000fd5b611b6b82611b22565b810181811067ffffffffffffffff82111715611b8a57611b89611b33565b5b80604052505050565b6000611b9d611982565b9050611ba98282611b62565b919050565b600067ffffffffffffffff821115611bc957611bc8611b33565b5b611bd282611b22565b9050602081019050919050565b82818337600083830152505050565b6000611c01611bfc84611bae565b611b93565b905082815260208101848484011115611c1d57611c1c611b1d565b5b611c28848285611bdf565b509392505050565b600082601f830112611c4557611c44611b18565b5b8135611c55848260208601611bee565b91505092915050565b60008060408385031215611c7557611c7461198c565b5b600083013567ffffffffffffffff811115611c9357611c92611991565b5b611c9f85828601611c30565b925050602083013567ffffffffffffffff811115611cc057611cbf611991565b5b611ccc85828601611c30565b9150509250929050565b600080fd5b600080fd5b600060a08284031215611cf657611cf5611cd6565b5b611d0060a0611b93565b90506000611d10848285016119b7565b6000830152506020611d24848285016119b7565b6020830152506040611d38848285016119b7565b604083015250606082013567ffffffffffffffff811115611d5c57611d5b611cdb565b5b611d6884828501611c30565b606083015250608082013567ffffffffffffffff811115611d8c57611d8b611cdb565b5b611d9884828501611c30565b60808301525092915050565b600060208284031215611dba57611db961198c565b5b600082013567ffffffffffffffff811115611dd857611dd7611991565b5b611de484828501611ce0565b91505092915050565b600080600080600060a08688031215611e0957611e0861198c565b5b6000611e1788828901611a96565b9550506020611e28888289016119b7565b9450506040611e39888289016119b7565b9350506060611e4a888289016119b7565b9250506080611e5b888289016119b7565b9150509295509295909350565b600080600060608486031215611e8157611e8061198c565b5b6000611e8f868287016119b7565b9350506020611ea0868287016119b7565b9250506040611eb1868287016119b7565b9150509250925092565b600081519050611eca816119a0565b92915050565b600060208284031215611ee657611ee561198c565b5b6000611ef484828501611ebb565b91505092915050565b6000604082019050611f126000830185611a55565b611f1f60208301846119f9565b9392505050565b600082825260208201905092915050565b7f554e415554484f52495a45443a2043414e4e4f545f504552464f524d5f41435460008201527f494f4e0000000000000000000000000000000000000000000000000000000000602082015250565b6000611f93602383611f26565b9150611f9e82611f37565b604082019050919050565b60006020820190508181036000830152611fc281611f86565b9050919050565b60005b83811015611fe7578082015181840152602081019050611fcc565b83811115611ff6576000848401525b50505050565b600061200f61200a84611bae565b611b93565b90508281526020810184848401111561202b5761202a611b1d565b5b612036848285611fc9565b509392505050565b600082601f83011261205357612052611b18565b5b8151612063848260208601611ffc565b91505092915050565b60008115159050919050565b6120818161206c565b811461208c57600080fd5b50565b60008151905061209e81612078565b92915050565b60008060008060008060c087890312156120c1576120c061198c565b5b60006120cf89828a01611ebb565b965050602087015167ffffffffffffffff8111156120f0576120ef611991565b5b6120fc89828a0161203e565b955050604087015167ffffffffffffffff81111561211d5761211c611991565b5b61212989828a0161203e565b945050606061213a89828a01611ebb565b935050608061214b89828a0161208f565b92505060a061215c89828a01611ebb565b9150509295509295509295565b7f494e56414c49443a2057524f4e475f5245434f52445f49440000000000000000600082015250565b600061219f601883611f26565b91506121aa82612169565b602082019050919050565b600060208201905081810360008301526121ce81612192565b9050919050565b60006040820190506121ea60008301856119f9565b6121f760208301846119f9565b9392505050565b7f554e415554484f52495a45443a204f4e4c595f5245434f5244535f434f4e545260008201527f4143540000000000000000000000000000000000000000000000000000000000602082015250565b600061225a602383611f26565b9150612265826121fe565b604082019050919050565b600060208201905081810360008301526122898161224d565b9050919050565b600081519050919050565b60006122a682612290565b6122b08185611f26565b93506122c0818560208601611fc9565b6122c981611b22565b840191505092915050565b600060408201905081810360008301526122ee818561229b565b90508181036020830152612302818461229b565b90509392505050565b60006020820190508181036000830152612325818461229b565b905092915050565b6000602082840312156123435761234261198c565b5b60006123518482850161208f565b91505092915050565b7f494e56414c49443a20544f4b454e5f53594d424f4c5f414c52454144595f494e60008201527f5f55534500000000000000000000000000000000000000000000000000000000602082015250565b60006123b6602483611f26565b91506123c18261235a565b604082019050919050565b600060208201905081810360008301526123e5816123a9565b9050919050565b7f4e487b7100000000000000000000000000000000000000000000000000000000600052601260045260246000fd5b7f4e487b7100000000000000000000000000000000000000000000000000000000600052601160045260246000fd5b600061245582611996565b915061246083611996565b9250826124705761246f6123ec565b5b828204905092915050565b7f494e56414c49443a2054524541535552595f53484f554c445f484156455f353060008201527f255f4f465f535550504c59000000000000000000000000000000000000000000602082015250565b60006124d7602b83611f26565b91506124e28261247b565b604082019050919050565b60006020820190508181036000830152612506816124ca565b9050919050565b60008151905061251c81611a7f565b92915050565b6000602082840312156125385761253761198c565b5b60006125468482850161250d565b91505092915050565b7f494e56414c49443a204f4e4c595f5245434f52445f4f574e4552000000000000600082015250565b6000612585601a83611f26565b91506125908261254f565b602082019050919050565b600060208201905081810360008301526125b481612578565b9050919050565b6125c481611996565b82525050565b600082825260208201905092915050565b60006125e682612290565b6125f081856125ca565b9350612600818560208601611fc9565b61260981611b22565b840191505092915050565b600060a08301600083015161262c60008601826125bb565b50602083015161263f60208601826125bb565b50604083015161265260408601826125bb565b506060830151848203606086015261266a82826125db565b9150506080830151848203608086015261268482826125db565b9150508091505092915050565b600060208201905081810360008301526126ab8184612614565b905092915050565b600060c0820190506126c86000830189611a55565b6126d560208301886119f9565b6126e260408301876119f9565b6126ef60608301866119f9565b6126fc60808301856119f9565b61270960a0830184611a55565b979650505050505050565b600060608201905061272960008301866119f9565b61273660208301856119f9565b61274360408301846119f9565b949350505050565b600061275682611996565b915061276183611996565b9250828210156127745761277361241b565b5b82820390509291505056fea26469706673582212207038ef1b726e189c28a522459b6ed30f910adc62887f289b2fefef7a0f01d75d64736f6c634300080c0033",
  "immutableReferences": {},
  "source": "pragma solidity ^0.8.0;\n\nimport \"@openzeppelin/contracts/token/ERC1155/ERC1155.sol\";\nimport \"@openzeppelin/contracts/token/ERC1155/IERC1155Receiver.sol\";\nimport \"@openzeppelin/contracts/token/ERC1155/extensions/ERC1155Supply.sol\";\nimport \"@openzeppelin/contracts/utils/Counters.sol\";\nimport \"@openzeppelin/contracts/access/Ownable.sol\";\nimport \"../interface/IRecords.sol\";\nimport \"../ERC1155/SnapshotERC1155.sol\";\nimport \"@openzeppelin/contracts/utils/math/SafeMath.sol\";\nimport \"../voting/VotingHubContract.sol\";\nimport \"./TreasuryCoreContract.sol\";\n\ncontract TreasuryContract {\n    uint256 public constant CRD = 1;\n    address public OWNER;\n    address public RECORDS_CONTRACT_ADDRESS;\n    address public CONTRIBUTION_VOTING_CONTRACT_ADDRESS;\n    address public DILUTION_CONTRACT_ADDRESS;\n    address public TREASURY_CORE_CONTRACT_ADDRESS;\n\n    constructor(address owner) {\n        OWNER = owner;\n    }\n\n    /// @dev Modifier to check that the person who accesses a specific function is the owner of contract himself.\n    modifier ownerOnly() {\n        require(msg.sender == OWNER, \"UNAUTHORIZED: CANNOT_PERFORM_ACTION\");\n        _;\n    }\n\n    /// @dev Modifier to check that the calls are made by records contract only\n    modifier onlyRecordsContract() {\n        require(\n            msg.sender == RECORDS_CONTRACT_ADDRESS,\n            \"UNAUTHORIZED: ONLY_RECORDS_CONTRACT\"\n        );\n        _;\n    }\n\n    /// @dev Modifier to check that if the sender is the voting contract or not.\n    modifier onlyContributionVotingContract() {\n        require(\n            msg.sender == CONTRIBUTION_VOTING_CONTRACT_ADDRESS,\n            \"UNAUTHORIZED: CANNOT_PERFORM_ACTION\"\n        );\n        _;\n    }\n\n    /// @dev Modifier to check that if the sender is the dilution contract or not.\n    modifier onlyDilutionContract() {\n        require(\n            msg.sender == DILUTION_CONTRACT_ADDRESS,\n            \"UNAUTHORIZED: CANNOT_PERFORM_ACTION\"\n        );\n        _;\n    }\n\n    /// @dev Modifier to check if the sender is authorized to create tokens for this record.\n    /// @param newTokenData This is the NewTokenData structure that needs to be passed to create a new token,\n    /// here it is passed to check if the token can be created with respected data\n    modifier canCreateToken(\n        TreasuryCoreContract.NewTokenData memory newTokenData\n    ) {\n        require(\n            newTokenData.totalSupply / 2 > newTokenData.userBalance,\n            \"INVALID: TREASURY_SHOULD_HAVE_50%_OF_SUPPLY\"\n        );\n\n        IRecords recordsContract = IRecords(RECORDS_CONTRACT_ADDRESS);\n\n        address owner = recordsContract.ownerOf(newTokenData.recordId);\n\n        require(owner == msg.sender, \"INVALID: ONLY_RECORD_OWNER\");\n        _;\n    }\n\n    /// @dev This function sets the Owners address\n    /// @param ownerAddress This is the address of new owner of contract\n    function setOwnerAddress(address ownerAddress) public ownerOnly {\n        OWNER = ownerAddress;\n    }\n\n    /// @dev This function sets the core treasury contract address\n    /// @param ownerAddress This is the address of new core treasury contract\n    function setCoreTreasuryAddress(address ownerAddress) public ownerOnly {\n        TREASURY_CORE_CONTRACT_ADDRESS = ownerAddress;\n    }\n\n    /// @dev This function sets the Records Contract address\n    /// @param newRecordsContractAddress This is the address of new Records contract\n    function setRecordsContractAddress(address newRecordsContractAddress)\n        public\n        ownerOnly\n    {\n        RECORDS_CONTRACT_ADDRESS = newRecordsContractAddress;\n    }\n\n    /// @dev This function sets the dilution Contract address\n    /// @param newDilutionContract This is the address of new dilution contract\n    function setDilutionContract(address newDilutionContract) public ownerOnly {\n        DILUTION_CONTRACT_ADDRESS = newDilutionContract;\n    }\n\n    /// @dev This function sets the Voting Contract address\n    /// @param newVotingContractAddress This is the address of new voting contract\n    function setContributionVotingContractAddress(\n        address newVotingContractAddress\n    ) public ownerOnly {\n        CONTRIBUTION_VOTING_CONTRACT_ADDRESS = newVotingContractAddress;\n    }\n\n    /// @dev This function creates new governance tokens for specified record\n    /// @param newTokenData This contains all the parameters needed to create a new governance token that are\n    function createNewGovernanceToken(\n        TreasuryCoreContract.NewTokenData memory newTokenData\n    ) external payable canCreateToken(newTokenData) returns (uint256) {\n        TreasuryCoreContract treasuryCoreContract = TreasuryCoreContract(\n            TREASURY_CORE_CONTRACT_ADDRESS\n        );\n        return treasuryCoreContract.createNewGovernanceToken(newTokenData);\n    }\n\n    /// @dev This function creats new community tokens for specified record\n    /// @param newTokenData This contains all the parameters needed to create a new community token that are\n    function createNewCommunityToken(\n        TreasuryCoreContract.NewTokenData memory newTokenData\n    ) external payable canCreateToken(newTokenData) returns (uint256) {\n        TreasuryCoreContract treasuryCoreContract = TreasuryCoreContract(\n            TREASURY_CORE_CONTRACT_ADDRESS\n        );\n        treasuryCoreContract.createNewCommunityToken(newTokenData);\n    }\n\n    /// @dev This function creats new community tokens for specified record\n    /// @param recordId This is the id of the record to which the token belongs to\n    /// @param tokenId This is the id of the which is to be minted\n    /// @param tokenAmount This is the amount that is to be minted\n    function mintTokens(\n        uint256 recordId,\n        uint256 tokenId,\n        uint256 tokenAmount\n    ) external payable onlyContributionVotingContract {\n        // call super method\n        TreasuryCoreContract treasuryCoreContract = TreasuryCoreContract(\n            TREASURY_CORE_CONTRACT_ADDRESS\n        );\n        treasuryCoreContract.mintTokens(recordId, tokenId, tokenAmount);\n    }\n\n    /// @dev This function is called only by the voting contract once the voting ends\n    /// @param to This is the receivers address\n    /// @param recordId This is the recordId to which the contribution belongs to\n    /// @param contributionId this is the contribution id to which the user has won\n    /// @param rewardGovernance this is the amount of Governance token that needs to be transferred\n    /// @param rewardCommunity this is the amount of community token that needs to be transferred\n    function transferRewardAmount(\n        address to,\n        uint256 recordId,\n        uint256 contributionId,\n        uint256 rewardGovernance,\n        uint256 rewardCommunity\n    ) external payable onlyContributionVotingContract {\n        TreasuryCoreContract treasuryCoreContract = TreasuryCoreContract(\n            TREASURY_CORE_CONTRACT_ADDRESS\n        );\n        // call super method\n        treasuryCoreContract.transferRewardAmount(\n            to,\n            recordId,\n            contributionId,\n            rewardGovernance,\n            rewardCommunity,\n            CONTRIBUTION_VOTING_CONTRACT_ADDRESS\n        );\n    }\n\n    /// @dev This function gives you the community token id of the recordId that you pass\n    /// @param recordId This is the Id of the token that you want to check\n    function getCommunityTokenId(uint256 recordId)\n        public\n        view\n        returns (uint256)\n    {\n        TreasuryCoreContract treasuryCoreContract = TreasuryCoreContract(\n            TREASURY_CORE_CONTRACT_ADDRESS\n        );\n        (, , , , bool isPresent, uint256 tokenId) = treasuryCoreContract\n            .commTokenMapping(recordId);\n        if (isPresent) {\n            return tokenId;\n        } else {\n            revert(\"INVALID: WRONG_RECORD_ID\");\n        }\n    }\n\n    /// @dev This function gives you the governance token id of the recordId that you pass\n    /// @param recordId This is the Id of the token that you want to check\n    function getGovernanceTokenId(uint256 recordId)\n        public\n        view\n        returns (uint256)\n    {\n        TreasuryCoreContract treasuryCoreContract = TreasuryCoreContract(\n            TREASURY_CORE_CONTRACT_ADDRESS\n        );\n        (, , , , bool isPresent, uint256 tokenId) = treasuryCoreContract\n            .govTokenMapping(recordId);\n        if (isPresent) {\n            return tokenId;\n        } else {\n            revert(\"INVALID: WRONG_RECORD_ID\");\n        }\n    }\n\n    /// @dev This function returns the amount of total tokens that are in circulation\n    /// @param tokenId This is the token whose circulating supply you  want to find out\n    function totalCirculatingSupply(uint256 tokenId)\n        public\n        view\n        returns (uint256)\n    {\n        TreasuryCoreContract treasuryCoreContract = TreasuryCoreContract(\n            TREASURY_CORE_CONTRACT_ADDRESS\n        );\n        uint256 totalCirculatingBalance = SafeMath.sub(\n            treasuryCoreContract.totalSupply(tokenId),\n            treasuryCoreContract.balanceOf(address(this), tokenId)\n        );\n\n        return totalCirculatingBalance;\n    }\n\n    /// @dev This function sets the symbol name as used, this function is called from records\n    // contract to reserve symbol for new version creation\n    /// @param governanceSymbol Symbol for governance token\n    /// @param communitySymbol Symbol for community token\n    function setSymbolsAsUsed(\n        string memory governanceSymbol,\n        string memory communitySymbol\n    ) external onlyRecordsContract {\n        TreasuryCoreContract treasuryCoreContract = TreasuryCoreContract(\n            TREASURY_CORE_CONTRACT_ADDRESS\n        );\n        require(\n            treasuryCoreContract.govTokenSym(governanceSymbol) == false,\n            \"INVALID: TOKEN_SYMBOL_ALREADY_IN_USE\"\n        );\n\n        require(\n            treasuryCoreContract.commTokenSym(communitySymbol) == false,\n            \"INVALID: TOKEN_SYMBOL_ALREADY_IN_USE\"\n        );\n        treasuryCoreContract.setSymbolsAsUsed(\n            governanceSymbol,\n            communitySymbol\n        );\n    }\n\n    /// @dev This function sets the symbol name as available, this function is called from records\n    // contract to reserve symbol for new version creation\n    /// @param governanceSymbol Symbol for governance token\n    /// @param communitySymbol Symbol for community token\n    function setSymbolsAsAvailable(\n        string memory governanceSymbol,\n        string memory communitySymbol\n    ) external onlyRecordsContract {\n        TreasuryCoreContract treasuryCoreContract = TreasuryCoreContract(\n            TREASURY_CORE_CONTRACT_ADDRESS\n        );\n        treasuryCoreContract.setSymbolsAsAvailable(\n            governanceSymbol,\n            communitySymbol\n        );\n    }\n\n    function snapshot() public returns (uint256 snapshotId) {\n        TreasuryCoreContract treasuryCoreContract = TreasuryCoreContract(\n            TREASURY_CORE_CONTRACT_ADDRESS\n        );\n        return treasuryCoreContract.snapshot();\n    }\n\n    /// @dev this function is responsible for minting of new tokens for records\n    /// @param tokenId Id this is the tokenId that is to minted\n    /// @param amount the amount that is to be minted\n    function mintTokens(uint256 tokenId, uint256 amount)\n        public\n        onlyDilutionContract\n    {\n        TreasuryCoreContract treasuryCoreContract = TreasuryCoreContract(\n            TREASURY_CORE_CONTRACT_ADDRESS\n        );\n        treasuryCoreContract.mint(tokenId, amount);\n    }\n}\n",
  "sourcePath": "/Users/a1/Desktop/Office/projects/CrowdRecords/Contracts/contracts/treasury/TreasuryContract.sol",
  "compiler": {
    "name": "solc",
    "version": "0.8.12+commit.f00d7308.Emscripten.clang"
  },
  "schemaVersion": "3.4.6",
  "updatedAt": "2022-09-19T09:06:34.843Z",
  "networkType": "ethereum",
  "devdoc": {
    "kind": "dev",
    "methods": {
      "createNewCommunityToken((uint256,uint256,uint256,string,string))": {
        "details": "This function creats new community tokens for specified record",
        "params": {
          "newTokenData": "This contains all the parameters needed to create a new community token that are"
        }
      },
      "createNewGovernanceToken((uint256,uint256,uint256,string,string))": {
        "details": "This function creates new governance tokens for specified record",
        "params": {
          "newTokenData": "This contains all the parameters needed to create a new governance token that are"
        }
      },
      "getCommunityTokenId(uint256)": {
        "details": "This function gives you the community token id of the recordId that you pass",
        "params": {
          "recordId": "This is the Id of the token that you want to check"
        }
      },
      "getGovernanceTokenId(uint256)": {
        "details": "This function gives you the governance token id of the recordId that you pass",
        "params": {
          "recordId": "This is the Id of the token that you want to check"
        }
      },
      "mintTokens(uint256,uint256)": {
        "details": "this function is responsible for minting of new tokens for records",
        "params": {
          "amount": "the amount that is to be minted",
          "tokenId": "Id this is the tokenId that is to minted"
        }
      },
      "mintTokens(uint256,uint256,uint256)": {
        "details": "This function creats new community tokens for specified record",
        "params": {
          "recordId": "This is the id of the record to which the token belongs to",
          "tokenAmount": "This is the amount that is to be minted",
          "tokenId": "This is the id of the which is to be minted"
        }
      },
      "setContributionVotingContractAddress(address)": {
        "details": "This function sets the Voting Contract address",
        "params": {
          "newVotingContractAddress": "This is the address of new voting contract"
        }
      },
      "setCoreTreasuryAddress(address)": {
        "details": "This function sets the core treasury contract address",
        "params": {
          "ownerAddress": "This is the address of new core treasury contract"
        }
      },
      "setDilutionContract(address)": {
        "details": "This function sets the dilution Contract address",
        "params": {
          "newDilutionContract": "This is the address of new dilution contract"
        }
      },
      "setOwnerAddress(address)": {
        "details": "This function sets the Owners address",
        "params": {
          "ownerAddress": "This is the address of new owner of contract"
        }
      },
      "setRecordsContractAddress(address)": {
        "details": "This function sets the Records Contract address",
        "params": {
          "newRecordsContractAddress": "This is the address of new Records contract"
        }
      },
      "setSymbolsAsAvailable(string,string)": {
        "params": {
          "communitySymbol": "Symbol for community token",
          "governanceSymbol": "Symbol for governance token"
        }
      },
      "setSymbolsAsUsed(string,string)": {
        "params": {
          "communitySymbol": "Symbol for community token",
          "governanceSymbol": "Symbol for governance token"
        }
      },
      "totalCirculatingSupply(uint256)": {
        "details": "This function returns the amount of total tokens that are in circulation",
        "params": {
          "tokenId": "This is the token whose circulating supply you  want to find out"
        }
      },
      "transferRewardAmount(address,uint256,uint256,uint256,uint256)": {
        "details": "This function is called only by the voting contract once the voting ends",
        "params": {
          "contributionId": "this is the contribution id to which the user has won",
          "recordId": "This is the recordId to which the contribution belongs to",
          "rewardCommunity": "this is the amount of community token that needs to be transferred",
          "rewardGovernance": "this is the amount of Governance token that needs to be transferred",
          "to": "This is the receivers address"
        }
      }
    },
    "version": 1
  },
  "userdoc": {
    "kind": "user",
    "methods": {},
    "version": 1
  }
}