{
  "contractName": "VotingHubContract",
  "abi": [
    {
      "inputs": [
        {
          "internalType": "address",
          "name": "owner",
          "type": "address"
        }
      ],
      "stateMutability": "nonpayable",
      "type": "constructor"
    },
    {
      "inputs": [],
      "name": "OWNER",
      "outputs": [
        {
          "internalType": "address",
          "name": "",
          "type": "address"
        }
      ],
      "stateMutability": "view",
      "type": "function",
      "constant": true
    },
    {
      "inputs": [],
      "name": "TREASURY_CONTRACT_ADDRESS",
      "outputs": [
        {
          "internalType": "address",
          "name": "",
          "type": "address"
        }
      ],
      "stateMutability": "view",
      "type": "function",
      "constant": true
    },
    {
      "inputs": [
        {
          "internalType": "uint256",
          "name": "",
          "type": "uint256"
        }
      ],
      "name": "VOTING_CONTRACTS_ADDRESS",
      "outputs": [
        {
          "internalType": "address",
          "name": "",
          "type": "address"
        }
      ],
      "stateMutability": "view",
      "type": "function",
      "constant": true
    },
    {
      "inputs": [
        {
          "internalType": "address",
          "name": "owner",
          "type": "address"
        }
      ],
      "name": "setOwner",
      "outputs": [],
      "stateMutability": "nonpayable",
      "type": "function"
    },
    {
      "inputs": [
        {
          "internalType": "address",
          "name": "sender",
          "type": "address"
        },
        {
          "internalType": "address",
          "name": "receiver",
          "type": "address"
        },
        {
          "internalType": "uint256",
          "name": "amount",
          "type": "uint256"
        },
        {
          "internalType": "uint256",
          "name": "tokenId",
          "type": "uint256"
        }
      ],
      "name": "handleUserTokenTransfers",
      "outputs": [],
      "stateMutability": "nonpayable",
      "type": "function"
    },
    {
      "inputs": [
        {
          "internalType": "address",
          "name": "newTreasuryContractAddress",
          "type": "address"
        }
      ],
      "name": "setTreasuryContractAddress",
      "outputs": [],
      "stateMutability": "nonpayable",
      "type": "function"
    },
    {
      "inputs": [
        {
          "internalType": "address",
          "name": "contractAddress",
          "type": "address"
        }
      ],
      "name": "addVotingContract",
      "outputs": [],
      "stateMutability": "nonpayable",
      "type": "function"
    },
    {
      "inputs": [
        {
          "internalType": "uint256",
          "name": "index",
          "type": "uint256"
        }
      ],
      "name": "removeVotingContract",
      "outputs": [],
      "stateMutability": "nonpayable",
      "type": "function"
    }
  ],
  "bytecode": "0x608060405234801561001057600080fd5b506040516200107138038062001071833981810160405281019061003491906100de565b80600260006101000a81548173ffffffffffffffffffffffffffffffffffffffff021916908373ffffffffffffffffffffffffffffffffffffffff1602179055505061010b565b600080fd5b600073ffffffffffffffffffffffffffffffffffffffff82169050919050565b60006100ab82610080565b9050919050565b6100bb816100a0565b81146100c657600080fd5b50565b6000815190506100d8816100b2565b92915050565b6000602082840312156100f4576100f361007b565b5b6000610102848285016100c9565b91505092915050565b610f56806200011b6000396000f3fe608060405234801561001057600080fd5b50600436106100885760003560e01c80634cf2d48f1161005b5780634cf2d48f146100ff578063acb314931461011b578063c3bac9ea14610139578063e199a6f61461015557610088565b8063117803e31461008d57806313af4035146100ab5780631de841ba146100c757806320c7ad57146100e3575b600080fd5b610095610185565b6040516100a29190610a43565b60405180910390f35b6100c560048036038101906100c09190610a8f565b6101ab565b005b6100e160048036038101906100dc9190610af2565b61027f565b005b6100fd60048036038101906100f89190610a8f565b610606565b005b61011960048036038101906101149190610a8f565b6106fc565b005b6101236107d0565b6040516101309190610a43565b60405180910390f35b610153600480360381019061014e9190610b59565b6107f6565b005b61016f600480360381019061016a9190610b59565b6109c3565b60405161017c9190610a43565b60405180910390f35b600260009054906101000a900473ffffffffffffffffffffffffffffffffffffffff1681565b600260009054906101000a900473ffffffffffffffffffffffffffffffffffffffff1673ffffffffffffffffffffffffffffffffffffffff163373ffffffffffffffffffffffffffffffffffffffff161461023b576040517f08c379a000000000000000000000000000000000000000000000000000000000815260040161023290610be3565b60405180910390fd5b80600260006101000a81548173ffffffffffffffffffffffffffffffffffffffff021916908373ffffffffffffffffffffffffffffffffffffffff16021790555050565b600160009054906101000a900473ffffffffffffffffffffffffffffffffffffffff1673ffffffffffffffffffffffffffffffffffffffff163373ffffffffffffffffffffffffffffffffffffffff161461030f576040517f08c379a000000000000000000000000000000000000000000000000000000000815260040161030690610c75565b60405180910390fd5b6000600160009054906101000a900473ffffffffffffffffffffffffffffffffffffffff16905060005b6000805490508110156105fe57600080828154811061035b5761035a610c95565b5b9060005260206000200160009054906101000a900473ffffffffffffffffffffffffffffffffffffffff169050600073ffffffffffffffffffffffffffffffffffffffff168773ffffffffffffffffffffffffffffffffffffffff16146104b95760008373ffffffffffffffffffffffffffffffffffffffff1662fdd58e89876040518363ffffffff1660e01b81526004016103f8929190610cd3565b602060405180830381865afa158015610415573d6000803e3d6000fd5b505050506040513d601f19601f820116820180604052508101906104399190610d11565b90508173ffffffffffffffffffffffffffffffffffffffff1663abb7ed7f8987848a866104669190610d6d565b6040518563ffffffff1660e01b81526004016104859493929190610da1565b600060405180830381600087803b15801561049f57600080fd5b505af11580156104b3573d6000803e3d6000fd5b50505050505b600073ffffffffffffffffffffffffffffffffffffffff168673ffffffffffffffffffffffffffffffffffffffff16146105ea5760008373ffffffffffffffffffffffffffffffffffffffff1662fdd58e88876040518363ffffffff1660e01b8152600401610529929190610cd3565b602060405180830381865afa158015610546573d6000803e3d6000fd5b505050506040513d601f19601f8201168201806040525081019061056a9190610d11565b90508173ffffffffffffffffffffffffffffffffffffffff1663abb7ed7f8887848a866105979190610de6565b6040518563ffffffff1660e01b81526004016105b69493929190610da1565b600060405180830381600087803b1580156105d057600080fd5b505af11580156105e4573d6000803e3d6000fd5b50505050505b5080806105f690610e3c565b915050610339565b505050505050565b600260009054906101000a900473ffffffffffffffffffffffffffffffffffffffff1673ffffffffffffffffffffffffffffffffffffffff163373ffffffffffffffffffffffffffffffffffffffff1614610696576040517f08c379a000000000000000000000000000000000000000000000000000000000815260040161068d90610be3565b60405180910390fd5b6000819080600181540180825580915050600190039060005260206000200160009091909190916101000a81548173ffffffffffffffffffffffffffffffffffffffff021916908373ffffffffffffffffffffffffffffffffffffffff16021790555050565b600260009054906101000a900473ffffffffffffffffffffffffffffffffffffffff1673ffffffffffffffffffffffffffffffffffffffff163373ffffffffffffffffffffffffffffffffffffffff161461078c576040517f08c379a000000000000000000000000000000000000000000000000000000000815260040161078390610be3565b60405180910390fd5b80600160006101000a81548173ffffffffffffffffffffffffffffffffffffffff021916908373ffffffffffffffffffffffffffffffffffffffff16021790555050565b600160009054906101000a900473ffffffffffffffffffffffffffffffffffffffff1681565b600260009054906101000a900473ffffffffffffffffffffffffffffffffffffffff1673ffffffffffffffffffffffffffffffffffffffff163373ffffffffffffffffffffffffffffffffffffffff1614610886576040517f08c379a000000000000000000000000000000000000000000000000000000000815260040161087d90610be3565b60405180910390fd5b60008054905081106108cd576040517f08c379a00000000000000000000000000000000000000000000000000000000081526004016108c490610ed1565b60405180910390fd5b600060016000805490506108e19190610d6d565b815481106108f2576108f1610c95565b5b9060005260206000200160009054906101000a900473ffffffffffffffffffffffffffffffffffffffff166000828154811061093157610930610c95565b5b9060005260206000200160006101000a81548173ffffffffffffffffffffffffffffffffffffffff021916908373ffffffffffffffffffffffffffffffffffffffff160217905550600080548061098b5761098a610ef1565b5b6001900381819060005260206000200160006101000a81549073ffffffffffffffffffffffffffffffffffffffff0219169055905550565b600081815481106109d357600080fd5b906000526020600020016000915054906101000a900473ffffffffffffffffffffffffffffffffffffffff1681565b600073ffffffffffffffffffffffffffffffffffffffff82169050919050565b6000610a2d82610a02565b9050919050565b610a3d81610a22565b82525050565b6000602082019050610a586000830184610a34565b92915050565b600080fd5b610a6c81610a22565b8114610a7757600080fd5b50565b600081359050610a8981610a63565b92915050565b600060208284031215610aa557610aa4610a5e565b5b6000610ab384828501610a7a565b91505092915050565b6000819050919050565b610acf81610abc565b8114610ada57600080fd5b50565b600081359050610aec81610ac6565b92915050565b60008060008060808587031215610b0c57610b0b610a5e565b5b6000610b1a87828801610a7a565b9450506020610b2b87828801610a7a565b9350506040610b3c87828801610add565b9250506060610b4d87828801610add565b91505092959194509250565b600060208284031215610b6f57610b6e610a5e565b5b6000610b7d84828501610add565b91505092915050565b600082825260208201905092915050565b7f554e415554484f52495a45443a204c41434b535f5045524d495353494f4e0000600082015250565b6000610bcd601e83610b86565b9150610bd882610b97565b602082019050919050565b60006020820190508181036000830152610bfc81610bc0565b9050919050565b7f554e415554484f52495a45443a204f4e4c595f54524541535552595f434f4e5460008201527f5241435400000000000000000000000000000000000000000000000000000000602082015250565b6000610c5f602483610b86565b9150610c6a82610c03565b604082019050919050565b60006020820190508181036000830152610c8e81610c52565b9050919050565b7f4e487b7100000000000000000000000000000000000000000000000000000000600052603260045260246000fd5b610ccd81610abc565b82525050565b6000604082019050610ce86000830185610a34565b610cf56020830184610cc4565b9392505050565b600081519050610d0b81610ac6565b92915050565b600060208284031215610d2757610d26610a5e565b5b6000610d3584828501610cfc565b91505092915050565b7f4e487b7100000000000000000000000000000000000000000000000000000000600052601160045260246000fd5b6000610d7882610abc565b9150610d8383610abc565b925082821015610d9657610d95610d3e565b5b828203905092915050565b6000608082019050610db66000830187610a34565b610dc36020830186610cc4565b610dd06040830185610cc4565b610ddd6060830184610cc4565b95945050505050565b6000610df182610abc565b9150610dfc83610abc565b9250827fffffffffffffffffffffffffffffffffffffffffffffffffffffffffffffffff03821115610e3157610e30610d3e565b5b828201905092915050565b6000610e4782610abc565b91507fffffffffffffffffffffffffffffffffffffffffffffffffffffffffffffffff821415610e7a57610e79610d3e565b5b600182019050919050565b7f494e56414c49443a20494e434f52524543545f494e4445580000000000000000600082015250565b6000610ebb601883610b86565b9150610ec682610e85565b602082019050919050565b60006020820190508181036000830152610eea81610eae565b9050919050565b7f4e487b7100000000000000000000000000000000000000000000000000000000600052603160045260246000fdfea26469706673582212207ea71d307e81a9ec98ea5bbc293bb5cd372c4a152df4af99b861eda6ec7c168c64736f6c634300080c0033",
  "immutableReferences": {},
  "source": "// SPDX-License-Identifier: MIT\npragma solidity ^0.8.0;\n\nimport \"../interface/ITreasury.sol\";\nimport \"../interface/IBaseVoting.sol\";\n\ncontract VotingHubContract {\n    address[] public VOTING_CONTRACTS_ADDRESS;\n    address public TREASURY_CONTRACT_ADDRESS;\n    address public OWNER;\n\n    constructor(address owner) {\n        OWNER = owner;\n    }\n\n    /// @notice\n    /// @dev This modifier checks that only owner fo the contracts can call the functions\n    modifier _ownerOnly() {\n        require(msg.sender == OWNER, \"UNAUTHORIZED: LACKS_PERMISSION\");\n        _;\n    }\n\n    /// @notice\n    /// @dev This modifier checks that only treasury can call the functions\n    modifier _onlyTreasury() {\n        require(\n            msg.sender == TREASURY_CONTRACT_ADDRESS,\n            \"UNAUTHORIZED: ONLY_TREASURY_CONTRACT\"\n        );\n        _;\n    }\n\n    /// @notice This function is to set the owner address\n    /// @dev This function takes in the address of new owner and sets it to the contract\n    /// @param owner Takes the address of new owner as parameter\n    function setOwner(address owner) public _ownerOnly {\n        OWNER = owner;\n    }\n\n    /// @notice this\n    /// @dev This function will be called when either user is transferring the tokens to other account,\n    /// or is receiving tokens from other tokens.\n    /// @param sender address of the sender\n    /// @param receiver address of the receiver\n    /// @param amount the amount that is being transferred\n    /// @param tokenId the id of the token that is being transferred\n    function handleUserTokenTransfers(\n        address sender,\n        address receiver,\n        uint256 amount,\n        uint256 tokenId\n    ) public _onlyTreasury {\n        ITreasury iTreasury = ITreasury(TREASURY_CONTRACT_ADDRESS);\n        for (uint256 i = 0; i < VOTING_CONTRACTS_ADDRESS.length; i++) {\n            IBaseVoting iBaseVoting = IBaseVoting(VOTING_CONTRACTS_ADDRESS[i]);\n            if (sender != address(0)) {\n                uint256 bal = iTreasury.balanceOf(sender, tokenId);\n                iBaseVoting._handleUserTokenTransfers(\n                    sender,\n                    tokenId,\n                    bal,\n                    bal - amount\n                );\n            }\n            if (receiver != address(0)) {\n                uint256 bal = iTreasury.balanceOf(receiver, tokenId);\n                iBaseVoting._handleUserTokenTransfers(\n                    receiver,\n                    tokenId,\n                    bal,\n                    bal + amount\n                );\n            }\n        }\n    }\n\n    /// @notice\n    /// @dev This function sets the treasury Contract address\n    function setTreasuryContractAddress(address newTreasuryContractAddress)\n        public\n        _ownerOnly\n    {\n        TREASURY_CONTRACT_ADDRESS = newTreasuryContractAddress;\n    }\n\n    /// @notice\n    /// @dev This function will be called when either user is transferring the tokens to other account,\n    /// or is receiving tokens from other tokens.\n    /// @param contractAddress address of the voting contract\n    function addVotingContract(address contractAddress) public _ownerOnly {\n        VOTING_CONTRACTS_ADDRESS.push(contractAddress);\n    }\n\n    /// @notice\n    /// @dev This function will be called when either user is transferring the tokens to other account,\n    /// or is receiving tokens from other tokens.\n    /// @param index index of the contract to remove from the list\n    function removeVotingContract(uint256 index) public _ownerOnly {\n        require(\n            index < VOTING_CONTRACTS_ADDRESS.length,\n            \"INVALID: INCORRECT_INDEX\"\n        );\n        VOTING_CONTRACTS_ADDRESS[index] = VOTING_CONTRACTS_ADDRESS[\n            VOTING_CONTRACTS_ADDRESS.length - 1\n        ];\n        VOTING_CONTRACTS_ADDRESS.pop();\n    }\n}\n",
  "sourcePath": "/Users/a1/Desktop/Office/projects/CrowdRecords/Contracts/contracts/voting/VotingHubContract.sol",
  "compiler": {
    "name": "solc",
    "version": "0.8.12+commit.f00d7308.Emscripten.clang"
  },
  "schemaVersion": "3.4.6",
  "updatedAt": "2022-09-19T09:06:35.119Z",
  "networkType": "ethereum",
  "devdoc": {
    "kind": "dev",
    "methods": {
      "addVotingContract(address)": {
        "params": {
          "contractAddress": "address of the voting contract"
        }
      },
      "handleUserTokenTransfers(address,address,uint256,uint256)": {
        "details": "This function will be called when either user is transferring the tokens to other account, or is receiving tokens from other tokens.",
        "params": {
          "amount": "the amount that is being transferred",
          "receiver": "address of the receiver",
          "sender": "address of the sender",
          "tokenId": "the id of the token that is being transferred"
        }
      },
      "removeVotingContract(uint256)": {
        "params": {
          "index": "index of the contract to remove from the list"
        }
      },
      "setOwner(address)": {
        "details": "This function takes in the address of new owner and sets it to the contract",
        "params": {
          "owner": "Takes the address of new owner as parameter"
        }
      }
    },
    "version": 1
  },
  "userdoc": {
    "kind": "user",
    "methods": {
      "addVotingContract(address)": {
        "notice": "@dev This function will be called when either user is transferring the tokens to other account, or is receiving tokens from other tokens."
      },
      "handleUserTokenTransfers(address,address,uint256,uint256)": {
        "notice": "this"
      },
      "removeVotingContract(uint256)": {
        "notice": "@dev This function will be called when either user is transferring the tokens to other account, or is receiving tokens from other tokens."
      },
      "setOwner(address)": {
        "notice": "This function is to set the owner address"
      },
      "setTreasuryContractAddress(address)": {
        "notice": "@dev This function sets the treasury Contract address"
      }
    },
    "version": 1
  }
}