{
  "contractName": "VotingHubContract",
  "abi": [
    {
      "inputs": [
        {
          "internalType": "address",
          "name": "owner",
          "type": "address"
        }
      ],
      "stateMutability": "nonpayable",
      "type": "constructor"
    },
    {
      "inputs": [],
      "name": "TREASURY_CONTRACT_ADDRESS",
      "outputs": [
        {
          "internalType": "address",
          "name": "",
          "type": "address"
        }
      ],
      "stateMutability": "view",
      "type": "function",
      "constant": true
    },
    {
      "inputs": [
        {
          "internalType": "uint256",
          "name": "",
          "type": "uint256"
        }
      ],
      "name": "VOTING_CONTRACTS_ADDRESS",
      "outputs": [
        {
          "internalType": "address",
          "name": "",
          "type": "address"
        }
      ],
      "stateMutability": "view",
      "type": "function",
      "constant": true
    },
    {
      "inputs": [
        {
          "internalType": "address",
          "name": "owner",
          "type": "address"
        }
      ],
      "name": "setOwner",
      "outputs": [],
      "stateMutability": "nonpayable",
      "type": "function"
    },
    {
      "inputs": [
        {
          "internalType": "address",
          "name": "sender",
          "type": "address"
        },
        {
          "internalType": "address",
          "name": "receiver",
          "type": "address"
        },
        {
          "internalType": "uint256",
          "name": "amount",
          "type": "uint256"
        },
        {
          "internalType": "uint256",
          "name": "tokenId",
          "type": "uint256"
        }
      ],
      "name": "handleUserTokenTransfers",
      "outputs": [],
      "stateMutability": "nonpayable",
      "type": "function"
    },
    {
      "inputs": [
        {
          "internalType": "address",
          "name": "newTreasuryContractAddress",
          "type": "address"
        }
      ],
      "name": "setTreasuryContractAddress",
      "outputs": [],
      "stateMutability": "nonpayable",
      "type": "function"
    },
    {
      "inputs": [
        {
          "internalType": "address",
          "name": "contractAddress",
          "type": "address"
        }
      ],
      "name": "addVotingContract",
      "outputs": [],
      "stateMutability": "nonpayable",
      "type": "function"
    },
    {
      "inputs": [
        {
          "internalType": "uint256",
          "name": "index",
          "type": "uint256"
        }
      ],
      "name": "removeVotingContract",
      "outputs": [],
      "stateMutability": "nonpayable",
      "type": "function"
    }
  ],
  "bytecode": "0x608060405234801561001057600080fd5b5060405162000ffc38038062000ffc833981810160405281019061003491906100de565b80600260006101000a81548173ffffffffffffffffffffffffffffffffffffffff021916908373ffffffffffffffffffffffffffffffffffffffff1602179055505061010b565b600080fd5b600073ffffffffffffffffffffffffffffffffffffffff82169050919050565b60006100ab82610080565b9050919050565b6100bb816100a0565b81146100c657600080fd5b50565b6000815190506100d8816100b2565b92915050565b6000602082840312156100f4576100f361007b565b5b6000610102848285016100c9565b91505092915050565b610ee1806200011b6000396000f3fe608060405234801561001057600080fd5b506004361061007d5760003560e01c80634cf2d48f1161005b5780634cf2d48f146100d6578063acb31493146100f2578063c3bac9ea14610110578063e199a6f61461012c5761007d565b806313af4035146100825780631de841ba1461009e57806320c7ad57146100ba575b600080fd5b61009c60048036038101906100979190610a16565b61015c565b005b6100b860048036038101906100b39190610a79565b610230565b005b6100d460048036038101906100cf9190610a16565b6105b7565b005b6100f060048036038101906100eb9190610a16565b6106ad565b005b6100fa610781565b6040516101079190610aef565b60405180910390f35b61012a60048036038101906101259190610b0a565b6107a7565b005b61014660048036038101906101419190610b0a565b610974565b6040516101539190610aef565b60405180910390f35b600260009054906101000a900473ffffffffffffffffffffffffffffffffffffffff1673ffffffffffffffffffffffffffffffffffffffff163373ffffffffffffffffffffffffffffffffffffffff16146101ec576040517f08c379a00000000000000000000000000000000000000000000000000000000081526004016101e390610b94565b60405180910390fd5b80600260006101000a81548173ffffffffffffffffffffffffffffffffffffffff021916908373ffffffffffffffffffffffffffffffffffffffff16021790555050565b600160009054906101000a900473ffffffffffffffffffffffffffffffffffffffff1673ffffffffffffffffffffffffffffffffffffffff163373ffffffffffffffffffffffffffffffffffffffff16146102c0576040517f08c379a00000000000000000000000000000000000000000000000000000000081526004016102b790610c00565b60405180910390fd5b6000600160009054906101000a900473ffffffffffffffffffffffffffffffffffffffff16905060005b6000805490508110156105af57600080828154811061030c5761030b610c20565b5b9060005260206000200160009054906101000a900473ffffffffffffffffffffffffffffffffffffffff169050600073ffffffffffffffffffffffffffffffffffffffff168773ffffffffffffffffffffffffffffffffffffffff161461046a5760008373ffffffffffffffffffffffffffffffffffffffff1662fdd58e89876040518363ffffffff1660e01b81526004016103a9929190610c5e565b602060405180830381865afa1580156103c6573d6000803e3d6000fd5b505050506040513d601f19601f820116820180604052508101906103ea9190610c9c565b90508173ffffffffffffffffffffffffffffffffffffffff1663abb7ed7f8987848a866104179190610cf8565b6040518563ffffffff1660e01b81526004016104369493929190610d2c565b600060405180830381600087803b15801561045057600080fd5b505af1158015610464573d6000803e3d6000fd5b50505050505b600073ffffffffffffffffffffffffffffffffffffffff168673ffffffffffffffffffffffffffffffffffffffff161461059b5760008373ffffffffffffffffffffffffffffffffffffffff1662fdd58e88876040518363ffffffff1660e01b81526004016104da929190610c5e565b602060405180830381865afa1580156104f7573d6000803e3d6000fd5b505050506040513d601f19601f8201168201806040525081019061051b9190610c9c565b90508173ffffffffffffffffffffffffffffffffffffffff1663abb7ed7f8887848a866105489190610d71565b6040518563ffffffff1660e01b81526004016105679493929190610d2c565b600060405180830381600087803b15801561058157600080fd5b505af1158015610595573d6000803e3d6000fd5b50505050505b5080806105a790610dc7565b9150506102ea565b505050505050565b600260009054906101000a900473ffffffffffffffffffffffffffffffffffffffff1673ffffffffffffffffffffffffffffffffffffffff163373ffffffffffffffffffffffffffffffffffffffff1614610647576040517f08c379a000000000000000000000000000000000000000000000000000000000815260040161063e90610b94565b60405180910390fd5b6000819080600181540180825580915050600190039060005260206000200160009091909190916101000a81548173ffffffffffffffffffffffffffffffffffffffff021916908373ffffffffffffffffffffffffffffffffffffffff16021790555050565b600260009054906101000a900473ffffffffffffffffffffffffffffffffffffffff1673ffffffffffffffffffffffffffffffffffffffff163373ffffffffffffffffffffffffffffffffffffffff161461073d576040517f08c379a000000000000000000000000000000000000000000000000000000000815260040161073490610b94565b60405180910390fd5b80600160006101000a81548173ffffffffffffffffffffffffffffffffffffffff021916908373ffffffffffffffffffffffffffffffffffffffff16021790555050565b600160009054906101000a900473ffffffffffffffffffffffffffffffffffffffff1681565b600260009054906101000a900473ffffffffffffffffffffffffffffffffffffffff1673ffffffffffffffffffffffffffffffffffffffff163373ffffffffffffffffffffffffffffffffffffffff1614610837576040517f08c379a000000000000000000000000000000000000000000000000000000000815260040161082e90610b94565b60405180910390fd5b600080549050811061087e576040517f08c379a000000000000000000000000000000000000000000000000000000000815260040161087590610e5c565b60405180910390fd5b600060016000805490506108929190610cf8565b815481106108a3576108a2610c20565b5b9060005260206000200160009054906101000a900473ffffffffffffffffffffffffffffffffffffffff16600082815481106108e2576108e1610c20565b5b9060005260206000200160006101000a81548173ffffffffffffffffffffffffffffffffffffffff021916908373ffffffffffffffffffffffffffffffffffffffff160217905550600080548061093c5761093b610e7c565b5b6001900381819060005260206000200160006101000a81549073ffffffffffffffffffffffffffffffffffffffff0219169055905550565b6000818154811061098457600080fd5b906000526020600020016000915054906101000a900473ffffffffffffffffffffffffffffffffffffffff1681565b600080fd5b600073ffffffffffffffffffffffffffffffffffffffff82169050919050565b60006109e3826109b8565b9050919050565b6109f3816109d8565b81146109fe57600080fd5b50565b600081359050610a10816109ea565b92915050565b600060208284031215610a2c57610a2b6109b3565b5b6000610a3a84828501610a01565b91505092915050565b6000819050919050565b610a5681610a43565b8114610a6157600080fd5b50565b600081359050610a7381610a4d565b92915050565b60008060008060808587031215610a9357610a926109b3565b5b6000610aa187828801610a01565b9450506020610ab287828801610a01565b9350506040610ac387828801610a64565b9250506060610ad487828801610a64565b91505092959194509250565b610ae9816109d8565b82525050565b6000602082019050610b046000830184610ae0565b92915050565b600060208284031215610b2057610b1f6109b3565b5b6000610b2e84828501610a64565b91505092915050565b600082825260208201905092915050565b7f4f6e6c79206f776e65722063616e2063616c6c2069742e000000000000000000600082015250565b6000610b7e601783610b37565b9150610b8982610b48565b602082019050919050565b60006020820190508181036000830152610bad81610b71565b9050919050565b7f4f6e6c792074726561737572792063616e2063616c6c2069742e000000000000600082015250565b6000610bea601a83610b37565b9150610bf582610bb4565b602082019050919050565b60006020820190508181036000830152610c1981610bdd565b9050919050565b7f4e487b7100000000000000000000000000000000000000000000000000000000600052603260045260246000fd5b610c5881610a43565b82525050565b6000604082019050610c736000830185610ae0565b610c806020830184610c4f565b9392505050565b600081519050610c9681610a4d565b92915050565b600060208284031215610cb257610cb16109b3565b5b6000610cc084828501610c87565b91505092915050565b7f4e487b7100000000000000000000000000000000000000000000000000000000600052601160045260246000fd5b6000610d0382610a43565b9150610d0e83610a43565b925082821015610d2157610d20610cc9565b5b828203905092915050565b6000608082019050610d416000830187610ae0565b610d4e6020830186610c4f565b610d5b6040830185610c4f565b610d686060830184610c4f565b95945050505050565b6000610d7c82610a43565b9150610d8783610a43565b9250827fffffffffffffffffffffffffffffffffffffffffffffffffffffffffffffffff03821115610dbc57610dbb610cc9565b5b828201905092915050565b6000610dd282610a43565b91507fffffffffffffffffffffffffffffffffffffffffffffffffffffffffffffffff821415610e0557610e04610cc9565b5b600182019050919050565b7f496e76616c696420696e64657800000000000000000000000000000000000000600082015250565b6000610e46600d83610b37565b9150610e5182610e10565b602082019050919050565b60006020820190508181036000830152610e7581610e39565b9050919050565b7f4e487b7100000000000000000000000000000000000000000000000000000000600052603160045260246000fdfea264697066735822122054528f344fc72ea29ec3b541542aa0ff18a9abdd7b2230161be42050b6ccfd2f64736f6c634300080c0033",
  "immutableReferences": {},
  "source": "// SPDX-License-Identifier: MIT\npragma solidity ^0.8.0;\n\nimport \"../interface/ITreasury.sol\";\nimport \"../interface/IBaseVoting.sol\";\n\ncontract VotingHubContract {\n    address[] public VOTING_CONTRACTS_ADDRESS;\n    address public TREASURY_CONTRACT_ADDRESS;\n    address OWNER;\n\n    constructor(address owner) {\n        OWNER = owner;\n    }\n\n    /// @notice\n    /// @dev This modifier checks that only owner fo the contracts can call the functions\n    modifier _ownerOnly() {\n        require(msg.sender == OWNER, \"Only owner can call it.\");\n        _;\n    }\n\n    /// @notice\n    /// @dev This modifier checks that only treasury can call the functions\n    modifier _onlyTreasury() {\n        require(\n            msg.sender == TREASURY_CONTRACT_ADDRESS,\n            \"Only treasury can call it.\"\n        );\n        _;\n    }\n\n\n    /// @notice This function is to set the owner address\n    /// @dev This function takes in the address of new owner and sets it to the contract\n    /// @param owner Takes the address of new owner as parameter\n    function setOwner(address owner)public _ownerOnly{\n        OWNER = owner;\n    }\n\n    /// @notice this \n    /// @dev This function will be called when either user is transferring the tokens to other account,\n    /// or is receiving tokens from other tokens.\n    /// @param sender address of the sender\n    /// @param receiver address of the receiver\n    /// @param amount the amount that is being transferred\n    /// @param tokenId the id of the token that is being transferred\n    function handleUserTokenTransfers(\n        address sender,\n        address receiver,\n        uint256 amount,\n        uint256 tokenId\n    ) public _onlyTreasury {\n        ITreasury iTreasury = ITreasury(TREASURY_CONTRACT_ADDRESS);\n        for (uint256 i = 0; i < VOTING_CONTRACTS_ADDRESS.length; i++) {\n            IBaseVoting iBaseVoting = IBaseVoting(VOTING_CONTRACTS_ADDRESS[i]);\n            if (sender != address(0)) {\n                uint256 bal = iTreasury.balanceOf(sender, tokenId);\n                iBaseVoting._handleUserTokenTransfers(\n                    sender,\n                    tokenId,\n                    bal,\n                    bal - amount\n                );\n            }\n            if (receiver != address(0)) {\n                uint256 bal = iTreasury.balanceOf(receiver, tokenId);\n                iBaseVoting._handleUserTokenTransfers(\n                    receiver,\n                    tokenId,\n                    bal,\n                    bal + amount\n                );\n            }\n        }\n    }\n\n    /// @notice\n    /// @dev This function sets the treasury Contract address\n    function setTreasuryContractAddress(address newTreasuryContractAddress)\n        public\n        _ownerOnly\n    {\n        TREASURY_CONTRACT_ADDRESS = newTreasuryContractAddress;\n    }\n\n    /// @notice\n    /// @dev This function will be called when either user is transferring the tokens to other account,\n    /// or is receiving tokens from other tokens.\n    /// @param contractAddress address of the voting contract\n    function addVotingContract(address contractAddress) public _ownerOnly {\n        VOTING_CONTRACTS_ADDRESS.push(contractAddress);\n    }\n\n    /// @notice\n    /// @dev This function will be called when either user is transferring the tokens to other account,\n    /// or is receiving tokens from other tokens.\n    /// @param index index of the contract to remove from the list\n    function removeVotingContract(uint256 index) public _ownerOnly {\n        require(index < VOTING_CONTRACTS_ADDRESS.length, \"Invalid index\");\n        VOTING_CONTRACTS_ADDRESS[index] = VOTING_CONTRACTS_ADDRESS[\n            VOTING_CONTRACTS_ADDRESS.length - 1\n        ];\n        VOTING_CONTRACTS_ADDRESS.pop();\n    }\n}\n",
  "sourcePath": "/Users/a1/Desktop/Office/projects/CrowdRecords/Contracts/contracts/voting/VotingHubContract.sol",
  "compiler": {
    "name": "solc",
    "version": "0.8.12+commit.f00d7308.Emscripten.clang"
  },
  "schemaVersion": "3.4.6",
  "updatedAt": "2022-09-08T09:22:09.922Z",
  "networkType": "ethereum",
  "devdoc": {
    "kind": "dev",
    "methods": {
      "addVotingContract(address)": {
        "params": {
          "contractAddress": "address of the voting contract"
        }
      },
      "handleUserTokenTransfers(address,address,uint256,uint256)": {
        "details": "This function will be called when either user is transferring the tokens to other account, or is receiving tokens from other tokens.",
        "params": {
          "amount": "the amount that is being transferred",
          "receiver": "address of the receiver",
          "sender": "address of the sender",
          "tokenId": "the id of the token that is being transferred"
        }
      },
      "removeVotingContract(uint256)": {
        "params": {
          "index": "index of the contract to remove from the list"
        }
      },
      "setOwner(address)": {
        "details": "This function takes in the address of new owner and sets it to the contract",
        "params": {
          "owner": "Takes the address of new owner as parameter"
        }
      }
    },
    "version": 1
  },
  "userdoc": {
    "kind": "user",
    "methods": {
      "addVotingContract(address)": {
        "notice": "@dev This function will be called when either user is transferring the tokens to other account, or is receiving tokens from other tokens."
      },
      "handleUserTokenTransfers(address,address,uint256,uint256)": {
        "notice": "this "
      },
      "removeVotingContract(uint256)": {
        "notice": "@dev This function will be called when either user is transferring the tokens to other account, or is receiving tokens from other tokens."
      },
      "setOwner(address)": {
        "notice": "This function is to set the owner address"
      },
      "setTreasuryContractAddress(address)": {
        "notice": "@dev This function sets the treasury Contract address"
      }
    },
    "version": 1
  }
}