{
  "contractName": "VotingHubContract",
  "abi": [
    {
      "inputs": [
        {
          "internalType": "address",
          "name": "owner",
          "type": "address"
        }
      ],
      "stateMutability": "nonpayable",
      "type": "constructor"
    },
    {
      "inputs": [],
      "name": "OWNER",
      "outputs": [
        {
          "internalType": "address",
          "name": "",
          "type": "address"
        }
      ],
      "stateMutability": "view",
      "type": "function"
    },
    {
      "inputs": [],
      "name": "TREASURY_CORE_CONTRACT_ADDRESS",
      "outputs": [
        {
          "internalType": "address",
          "name": "",
          "type": "address"
        }
      ],
      "stateMutability": "view",
      "type": "function"
    },
    {
      "inputs": [
        {
          "internalType": "uint256",
          "name": "",
          "type": "uint256"
        }
      ],
      "name": "VOTING_CONTRACTS_ADDRESS",
      "outputs": [
        {
          "internalType": "address",
          "name": "",
          "type": "address"
        }
      ],
      "stateMutability": "view",
      "type": "function"
    },
    {
      "inputs": [
        {
          "internalType": "address",
          "name": "owner",
          "type": "address"
        }
      ],
      "name": "setOwner",
      "outputs": [],
      "stateMutability": "nonpayable",
      "type": "function"
    },
    {
      "inputs": [
        {
          "internalType": "address",
          "name": "sender",
          "type": "address"
        },
        {
          "internalType": "address",
          "name": "receiver",
          "type": "address"
        },
        {
          "internalType": "uint256",
          "name": "amount",
          "type": "uint256"
        },
        {
          "internalType": "uint256",
          "name": "tokenId",
          "type": "uint256"
        }
      ],
      "name": "handleUserTokenTransfers",
      "outputs": [],
      "stateMutability": "nonpayable",
      "type": "function"
    },
    {
      "inputs": [
        {
          "internalType": "address",
          "name": "newTreasuryContractAddress",
          "type": "address"
        }
      ],
      "name": "setTreasuryCoreContractAddress",
      "outputs": [],
      "stateMutability": "nonpayable",
      "type": "function"
    },
    {
      "inputs": [
        {
          "internalType": "address",
          "name": "contractAddress",
          "type": "address"
        }
      ],
      "name": "addVotingContract",
      "outputs": [],
      "stateMutability": "nonpayable",
      "type": "function"
    },
    {
      "inputs": [
        {
          "internalType": "uint256",
          "name": "index",
          "type": "uint256"
        }
      ],
      "name": "removeVotingContract",
      "outputs": [],
      "stateMutability": "nonpayable",
      "type": "function"
    }
  ],
  "bytecode": "0x608060405234801561001057600080fd5b50604051610d24380380610d2483398101604081905261002f91610054565b600280546001600160a01b0319166001600160a01b0392909216919091179055610084565b60006020828403121561006657600080fd5b81516001600160a01b038116811461007d57600080fd5b9392505050565b610c91806100936000396000f3fe608060405234801561001057600080fd5b50600436106100885760003560e01c8063556bed3a1161005b578063556bed3a14610111578063c3bac9ea14610131578063e199a6f614610144578063f3cb67851461015757600080fd5b8063117803e31461008d57806313af4035146100d65780631de841ba146100eb57806320c7ad57146100fe575b600080fd5b6002546100ad9073ffffffffffffffffffffffffffffffffffffffff1681565b60405173ffffffffffffffffffffffffffffffffffffffff909116815260200160405180910390f35b6100e96100e4366004610ad0565b61016a565b005b6100e96100f9366004610af2565b610237565b6100e961010c366004610ad0565b6106b8565b6001546100ad9073ffffffffffffffffffffffffffffffffffffffff1681565b6100e961013f366004610b34565b6107ad565b6100ad610152366004610b34565b6109a8565b6100e9610165366004610ad0565b6109df565b60025473ffffffffffffffffffffffffffffffffffffffff1633146101f0576040517f08c379a000000000000000000000000000000000000000000000000000000000815260206004820152601e60248201527f554e415554484f52495a45443a204c41434b535f5045524d495353494f4e000060448201526064015b60405180910390fd5b600280547fffffffffffffffffffffffff00000000000000000000000000000000000000001673ffffffffffffffffffffffffffffffffffffffff92909216919091179055565b60015473ffffffffffffffffffffffffffffffffffffffff1633146102de576040517f08c379a000000000000000000000000000000000000000000000000000000000815260206004820152602960248201527f554e415554484f52495a45443a204f4e4c595f54524541535552595f434f524560448201527f5f434f4e5452414354000000000000000000000000000000000000000000000060648201526084016101e7565b60015473ffffffffffffffffffffffffffffffffffffffff1660005b6000548110156106b057600080828154811061031857610318610b4d565b60009182526020909120015473ffffffffffffffffffffffffffffffffffffffff908116915087161561052b576040517efdd58e00000000000000000000000000000000000000000000000000000000815273ffffffffffffffffffffffffffffffffffffffff8881166004830152602482018690526000919085169062fdd58e90604401602060405180830381865afa1580156103ba573d6000803e3d6000fd5b505050506040513d601f19601f820116820180604052508101906103de9190610b7c565b905085811015610470576040517f08c379a000000000000000000000000000000000000000000000000000000000815260206004820152602a60248201527f455243313135353a20696e73756666696369656e742062616c616e636520666f60448201527f72207472616e736665720000000000000000000000000000000000000000000060648201526084016101e7565b73ffffffffffffffffffffffffffffffffffffffff821663abb7ed7f8987846104998b82610bc4565b6040517fffffffff0000000000000000000000000000000000000000000000000000000060e087901b16815273ffffffffffffffffffffffffffffffffffffffff9094166004850152602484019290925260448301526064820152608401600060405180830381600087803b15801561051157600080fd5b505af1158015610525573d6000803e3d6000fd5b50505050505b73ffffffffffffffffffffffffffffffffffffffff86161561069d576040517efdd58e00000000000000000000000000000000000000000000000000000000815273ffffffffffffffffffffffffffffffffffffffff8781166004830152602482018690526000919085169062fdd58e90604401602060405180830381865afa1580156105bc573d6000803e3d6000fd5b505050506040513d601f19601f820116820180604052508101906105e09190610b7c565b905073ffffffffffffffffffffffffffffffffffffffff821663abb7ed7f88878461060b8b82610bdb565b6040517fffffffff0000000000000000000000000000000000000000000000000000000060e087901b16815273ffffffffffffffffffffffffffffffffffffffff9094166004850152602484019290925260448301526064820152608401600060405180830381600087803b15801561068357600080fd5b505af1158015610697573d6000803e3d6000fd5b50505050505b50806106a881610bf3565b9150506102fa565b505050505050565b60025473ffffffffffffffffffffffffffffffffffffffff163314610739576040517f08c379a000000000000000000000000000000000000000000000000000000000815260206004820152601e60248201527f554e415554484f52495a45443a204c41434b535f5045524d495353494f4e000060448201526064016101e7565b600080546001810182559080527f290decd9548b62a8d60345a988386fc84ba6bc95484008f6362f93160ef3e5630180547fffffffffffffffffffffffff00000000000000000000000000000000000000001673ffffffffffffffffffffffffffffffffffffffff92909216919091179055565b60025473ffffffffffffffffffffffffffffffffffffffff16331461082e576040517f08c379a000000000000000000000000000000000000000000000000000000000815260206004820152601e60248201527f554e415554484f52495a45443a204c41434b535f5045524d495353494f4e000060448201526064016101e7565b6000548110610899576040517f08c379a000000000000000000000000000000000000000000000000000000000815260206004820152601860248201527f494e56414c49443a20494e434f52524543545f494e444558000000000000000060448201526064016101e7565b600080546108a990600190610bc4565b815481106108b9576108b9610b4d565b6000918252602082200154815473ffffffffffffffffffffffffffffffffffffffff9091169190839081106108f0576108f0610b4d565b6000918252602082200180547fffffffffffffffffffffffff00000000000000000000000000000000000000001673ffffffffffffffffffffffffffffffffffffffff939093169290921790915580548061094d5761094d610c2c565b60008281526020902081017fffffffffffffffffffffffffffffffffffffffffffffffffffffffffffffffff90810180547fffffffffffffffffffffffff000000000000000000000000000000000000000016905501905550565b600081815481106109b857600080fd5b60009182526020909120015473ffffffffffffffffffffffffffffffffffffffff16905081565b60025473ffffffffffffffffffffffffffffffffffffffff163314610a60576040517f08c379a000000000000000000000000000000000000000000000000000000000815260206004820152601e60248201527f554e415554484f52495a45443a204c41434b535f5045524d495353494f4e000060448201526064016101e7565b600180547fffffffffffffffffffffffff00000000000000000000000000000000000000001673ffffffffffffffffffffffffffffffffffffffff92909216919091179055565b803573ffffffffffffffffffffffffffffffffffffffff81168114610acb57600080fd5b919050565b600060208284031215610ae257600080fd5b610aeb82610aa7565b9392505050565b60008060008060808587031215610b0857600080fd5b610b1185610aa7565b9350610b1f60208601610aa7565b93969395505050506040820135916060013590565b600060208284031215610b4657600080fd5b5035919050565b7f4e487b7100000000000000000000000000000000000000000000000000000000600052603260045260246000fd5b600060208284031215610b8e57600080fd5b5051919050565b7f4e487b7100000000000000000000000000000000000000000000000000000000600052601160045260246000fd5b600082821015610bd657610bd6610b95565b500390565b60008219821115610bee57610bee610b95565b500190565b60007fffffffffffffffffffffffffffffffffffffffffffffffffffffffffffffffff821415610c2557610c25610b95565b5060010190565b7f4e487b7100000000000000000000000000000000000000000000000000000000600052603160045260246000fdfea2646970667358221220259b6fb92b8cde284a64c2f6b02185f46173954a5c1121b89de857811cdd714464736f6c634300080c0033",
  "immutableReferences": {},
  "source": "// SPDX-License-Identifier: MIT\npragma solidity ^0.8.0;\n\nimport \"../interface/ITreasuryCore.sol\";\nimport \"../interface/IBaseVoting.sol\";\n\ncontract VotingHubContract {\n    address[] public VOTING_CONTRACTS_ADDRESS;\n    address public TREASURY_CORE_CONTRACT_ADDRESS;\n    address public OWNER;\n\n    constructor(address owner) {\n        OWNER = owner;\n    }\n\n    /// @notice\n    /// @dev This modifier checks that only owner fo the contracts can call the functions\n    modifier _ownerOnly() {\n        require(msg.sender == OWNER, \"UNAUTHORIZED: LACKS_PERMISSION\");\n        _;\n    }\n\n    /// @notice\n    /// @dev This modifier checks that only treasury can call the functions\n    modifier _onlyTreasuryCore() {\n        require(\n            msg.sender == TREASURY_CORE_CONTRACT_ADDRESS,\n            \"UNAUTHORIZED: ONLY_TREASURY_CORE_CONTRACT\"\n        );\n        _;\n    }\n\n    /// @notice This function is to set the owner address\n    /// @dev This function takes in the address of new owner and sets it to the contract\n    /// @param owner Takes the address of new owner as parameter\n    function setOwner(address owner) public _ownerOnly {\n        OWNER = owner;\n    }\n\n    /// @notice this\n    /// @dev This function will be called when either user is transferring the tokens to other account,\n    /// or is receiving tokens from other tokens.\n    /// @param sender address of the sender\n    /// @param receiver address of the receiver\n    /// @param amount the amount that is being transferred\n    /// @param tokenId the id of the token that is being transferred\n    function handleUserTokenTransfers(\n        address sender,\n        address receiver,\n        uint256 amount,\n        uint256 tokenId\n    ) public _onlyTreasuryCore {\n        ITreasuryCore iTreasury = ITreasuryCore(TREASURY_CORE_CONTRACT_ADDRESS);\n        for (uint256 i = 0; i < VOTING_CONTRACTS_ADDRESS.length; i++) {\n            IBaseVoting iBaseVoting = IBaseVoting(VOTING_CONTRACTS_ADDRESS[i]);\n            if (sender != address(0)) {\n                uint256 bal = iTreasury.balanceOf(sender, tokenId);\n                require(\n                    bal >= amount,\n                    \"ERC1155: insufficient balance for transfer\"\n                );\n                iBaseVoting._handleUserTokenTransfers(\n                    sender,\n                    tokenId,\n                    bal,\n                    bal - amount\n                );\n            }\n            if (receiver != address(0)) {\n                uint256 bal = iTreasury.balanceOf(receiver, tokenId);\n                iBaseVoting._handleUserTokenTransfers(\n                    receiver,\n                    tokenId,\n                    bal,\n                    bal + amount\n                );\n            }\n        }\n    }\n\n    /// @notice\n    /// @dev This function sets the treasury Contract address\n    function setTreasuryCoreContractAddress(address newTreasuryContractAddress)\n        public\n        _ownerOnly\n    {\n        TREASURY_CORE_CONTRACT_ADDRESS = newTreasuryContractAddress;\n    }\n\n    /// @notice\n    /// @dev This function is to add a voting contract, the added contract will be notified when a token transfer occurs\n    /// @param contractAddress address of the voting contract\n    function addVotingContract(address contractAddress) public _ownerOnly {\n        VOTING_CONTRACTS_ADDRESS.push(contractAddress);\n    }\n\n    /// @notice\n    /// @dev This function removes address from voting contract array\n    /// @param index index of the contract to remove from the list\n    function removeVotingContract(uint256 index) public _ownerOnly {\n        require(\n            index < VOTING_CONTRACTS_ADDRESS.length,\n            \"INVALID: INCORRECT_INDEX\"\n        );\n        VOTING_CONTRACTS_ADDRESS[index] = VOTING_CONTRACTS_ADDRESS[\n            VOTING_CONTRACTS_ADDRESS.length - 1\n        ];\n        VOTING_CONTRACTS_ADDRESS.pop();\n    }\n}\n",
  "sourcePath": "/Users/a1/Desktop/Office/projects/CrowdRecords/Contracts/contracts/voting/VotingHubContract.sol",
  "compiler": {
    "name": "solc",
    "version": "0.8.12+commit.f00d7308.Emscripten.clang"
  },
  "schemaVersion": "3.4.6",
  "updatedAt": "2023-04-11T15:44:43.867Z",
  "devdoc": {
    "kind": "dev",
    "methods": {
      "addVotingContract(address)": {
        "params": {
          "contractAddress": "address of the voting contract"
        }
      },
      "handleUserTokenTransfers(address,address,uint256,uint256)": {
        "details": "This function will be called when either user is transferring the tokens to other account, or is receiving tokens from other tokens.",
        "params": {
          "amount": "the amount that is being transferred",
          "receiver": "address of the receiver",
          "sender": "address of the sender",
          "tokenId": "the id of the token that is being transferred"
        }
      },
      "removeVotingContract(uint256)": {
        "params": {
          "index": "index of the contract to remove from the list"
        }
      },
      "setOwner(address)": {
        "details": "This function takes in the address of new owner and sets it to the contract",
        "params": {
          "owner": "Takes the address of new owner as parameter"
        }
      }
    },
    "version": 1
  },
  "userdoc": {
    "kind": "user",
    "methods": {
      "addVotingContract(address)": {
        "notice": "@dev This function is to add a voting contract, the added contract will be notified when a token transfer occurs"
      },
      "handleUserTokenTransfers(address,address,uint256,uint256)": {
        "notice": "this"
      },
      "removeVotingContract(uint256)": {
        "notice": "@dev This function removes address from voting contract array"
      },
      "setOwner(address)": {
        "notice": "This function is to set the owner address"
      },
      "setTreasuryCoreContractAddress(address)": {
        "notice": "@dev This function sets the treasury Contract address"
      }
    },
    "version": 1
  }
}