{
  "contractName": "VotingHubContract",
  "abi": [
    {
      "inputs": [],
      "stateMutability": "nonpayable",
      "type": "constructor"
    },
    {
      "anonymous": false,
      "inputs": [
        {
          "indexed": false,
          "internalType": "address",
          "name": "contractAddress",
          "type": "address"
        }
      ],
      "name": "DEBUG3",
      "type": "event"
    },
    {
      "inputs": [],
      "name": "TREASURY_CONTRACT_ADDRESS",
      "outputs": [
        {
          "internalType": "address",
          "name": "",
          "type": "address"
        }
      ],
      "stateMutability": "view",
      "type": "function"
    },
    {
      "inputs": [
        {
          "internalType": "uint256",
          "name": "",
          "type": "uint256"
        }
      ],
      "name": "VOTING_CONTRACTS_ADDRESS",
      "outputs": [
        {
          "internalType": "address",
          "name": "",
          "type": "address"
        }
      ],
      "stateMutability": "view",
      "type": "function"
    },
    {
      "inputs": [
        {
          "internalType": "address",
          "name": "sender",
          "type": "address"
        },
        {
          "internalType": "address",
          "name": "receiver",
          "type": "address"
        },
        {
          "internalType": "uint256",
          "name": "amount",
          "type": "uint256"
        },
        {
          "internalType": "uint256",
          "name": "tokenId",
          "type": "uint256"
        }
      ],
      "name": "handleUserTokenTransfers",
      "outputs": [],
      "stateMutability": "nonpayable",
      "type": "function"
    },
    {
      "inputs": [
        {
          "internalType": "address",
          "name": "newTreasuryContractAddress",
          "type": "address"
        }
      ],
      "name": "setTreasuryContractAddress",
      "outputs": [],
      "stateMutability": "nonpayable",
      "type": "function"
    },
    {
      "inputs": [
        {
          "internalType": "address",
          "name": "contractAddress",
          "type": "address"
        }
      ],
      "name": "addVotingContract",
      "outputs": [],
      "stateMutability": "nonpayable",
      "type": "function"
    },
    {
      "inputs": [
        {
          "internalType": "uint256",
          "name": "index",
          "type": "uint256"
        }
      ],
      "name": "removeVotingContract",
      "outputs": [],
      "stateMutability": "nonpayable",
      "type": "function"
    }
  ],
  "bytecode": "0x608060405234801561001057600080fd5b5033600260006101000a81548173ffffffffffffffffffffffffffffffffffffffff021916908373ffffffffffffffffffffffffffffffffffffffff160217905550610e83806100616000396000f3fe608060405234801561001057600080fd5b50600436106100625760003560e01c80631de841ba1461006757806320c7ad57146100835780634cf2d48f1461009f578063acb31493146100bb578063c3bac9ea146100d9578063e199a6f6146100f5575b600080fd5b610081600480360381019061007c91906109ee565b610125565b005b61009d60048036038101906100989190610a55565b610559565b005b6100b960048036038101906100b49190610a55565b61064f565b005b6100c3610723565b6040516100d09190610a91565b60405180910390f35b6100f360048036038101906100ee9190610aac565b610749565b005b61010f600480360381019061010a9190610aac565b610916565b60405161011c9190610a91565b60405180910390f35b600160009054906101000a900473ffffffffffffffffffffffffffffffffffffffff1673ffffffffffffffffffffffffffffffffffffffff163373ffffffffffffffffffffffffffffffffffffffff16146101b5576040517f08c379a00000000000000000000000000000000000000000000000000000000081526004016101ac90610b36565b60405180910390fd5b7f5c0094913771cc860aab25522dd3c1458d9e74169eea36ddb17b44e7162b805360006040516101e59190610a91565b60405180910390a16000600160009054906101000a900473ffffffffffffffffffffffffffffffffffffffff16905060005b600080549050811015610551577f5c0094913771cc860aab25522dd3c1458d9e74169eea36ddb17b44e7162b80536000828154811061025957610258610b56565b5b9060005260206000200160009054906101000a900473ffffffffffffffffffffffffffffffffffffffff166040516102919190610a91565b60405180910390a160008082815481106102ae576102ad610b56565b5b9060005260206000200160009054906101000a900473ffffffffffffffffffffffffffffffffffffffff169050600073ffffffffffffffffffffffffffffffffffffffff168773ffffffffffffffffffffffffffffffffffffffff161461040c5760008373ffffffffffffffffffffffffffffffffffffffff1662fdd58e89876040518363ffffffff1660e01b815260040161034b929190610b94565b602060405180830381865afa158015610368573d6000803e3d6000fd5b505050506040513d601f19601f8201168201806040525081019061038c9190610bd2565b90508173ffffffffffffffffffffffffffffffffffffffff1663abb7ed7f8987848a866103b99190610c2e565b6040518563ffffffff1660e01b81526004016103d89493929190610c62565b600060405180830381600087803b1580156103f257600080fd5b505af1158015610406573d6000803e3d6000fd5b50505050505b600073ffffffffffffffffffffffffffffffffffffffff168673ffffffffffffffffffffffffffffffffffffffff161461053d5760008373ffffffffffffffffffffffffffffffffffffffff1662fdd58e88876040518363ffffffff1660e01b815260040161047c929190610b94565b602060405180830381865afa158015610499573d6000803e3d6000fd5b505050506040513d601f19601f820116820180604052508101906104bd9190610bd2565b90508173ffffffffffffffffffffffffffffffffffffffff1663abb7ed7f8887848a866104ea9190610ca7565b6040518563ffffffff1660e01b81526004016105099493929190610c62565b600060405180830381600087803b15801561052357600080fd5b505af1158015610537573d6000803e3d6000fd5b50505050505b50808061054990610cfd565b915050610217565b505050505050565b600260009054906101000a900473ffffffffffffffffffffffffffffffffffffffff1673ffffffffffffffffffffffffffffffffffffffff163373ffffffffffffffffffffffffffffffffffffffff16146105e9576040517f08c379a00000000000000000000000000000000000000000000000000000000081526004016105e090610d92565b60405180910390fd5b6000819080600181540180825580915050600190039060005260206000200160009091909190916101000a81548173ffffffffffffffffffffffffffffffffffffffff021916908373ffffffffffffffffffffffffffffffffffffffff16021790555050565b600260009054906101000a900473ffffffffffffffffffffffffffffffffffffffff1673ffffffffffffffffffffffffffffffffffffffff163373ffffffffffffffffffffffffffffffffffffffff16146106df576040517f08c379a00000000000000000000000000000000000000000000000000000000081526004016106d690610d92565b60405180910390fd5b80600160006101000a81548173ffffffffffffffffffffffffffffffffffffffff021916908373ffffffffffffffffffffffffffffffffffffffff16021790555050565b600160009054906101000a900473ffffffffffffffffffffffffffffffffffffffff1681565b600260009054906101000a900473ffffffffffffffffffffffffffffffffffffffff1673ffffffffffffffffffffffffffffffffffffffff163373ffffffffffffffffffffffffffffffffffffffff16146107d9576040517f08c379a00000000000000000000000000000000000000000000000000000000081526004016107d090610d92565b60405180910390fd5b6000805490508110610820576040517f08c379a000000000000000000000000000000000000000000000000000000000815260040161081790610dfe565b60405180910390fd5b600060016000805490506108349190610c2e565b8154811061084557610844610b56565b5b9060005260206000200160009054906101000a900473ffffffffffffffffffffffffffffffffffffffff166000828154811061088457610883610b56565b5b9060005260206000200160006101000a81548173ffffffffffffffffffffffffffffffffffffffff021916908373ffffffffffffffffffffffffffffffffffffffff16021790555060008054806108de576108dd610e1e565b5b6001900381819060005260206000200160006101000a81549073ffffffffffffffffffffffffffffffffffffffff0219169055905550565b6000818154811061092657600080fd5b906000526020600020016000915054906101000a900473ffffffffffffffffffffffffffffffffffffffff1681565b600080fd5b600073ffffffffffffffffffffffffffffffffffffffff82169050919050565b60006109858261095a565b9050919050565b6109958161097a565b81146109a057600080fd5b50565b6000813590506109b28161098c565b92915050565b6000819050919050565b6109cb816109b8565b81146109d657600080fd5b50565b6000813590506109e8816109c2565b92915050565b60008060008060808587031215610a0857610a07610955565b5b6000610a16878288016109a3565b9450506020610a27878288016109a3565b9350506040610a38878288016109d9565b9250506060610a49878288016109d9565b91505092959194509250565b600060208284031215610a6b57610a6a610955565b5b6000610a79848285016109a3565b91505092915050565b610a8b8161097a565b82525050565b6000602082019050610aa66000830184610a82565b92915050565b600060208284031215610ac257610ac1610955565b5b6000610ad0848285016109d9565b91505092915050565b600082825260208201905092915050565b7f4f6e6c792074726561737572792063616e2063616c6c2069742e000000000000600082015250565b6000610b20601a83610ad9565b9150610b2b82610aea565b602082019050919050565b60006020820190508181036000830152610b4f81610b13565b9050919050565b7f4e487b7100000000000000000000000000000000000000000000000000000000600052603260045260246000fd5b610b8e816109b8565b82525050565b6000604082019050610ba96000830185610a82565b610bb66020830184610b85565b9392505050565b600081519050610bcc816109c2565b92915050565b600060208284031215610be857610be7610955565b5b6000610bf684828501610bbd565b91505092915050565b7f4e487b7100000000000000000000000000000000000000000000000000000000600052601160045260246000fd5b6000610c39826109b8565b9150610c44836109b8565b925082821015610c5757610c56610bff565b5b828203905092915050565b6000608082019050610c776000830187610a82565b610c846020830186610b85565b610c916040830185610b85565b610c9e6060830184610b85565b95945050505050565b6000610cb2826109b8565b9150610cbd836109b8565b9250827fffffffffffffffffffffffffffffffffffffffffffffffffffffffffffffffff03821115610cf257610cf1610bff565b5b828201905092915050565b6000610d08826109b8565b91507fffffffffffffffffffffffffffffffffffffffffffffffffffffffffffffffff821415610d3b57610d3a610bff565b5b600182019050919050565b7f4f6e6c79206f776e65722063616e2063616c6c2069742e000000000000000000600082015250565b6000610d7c601783610ad9565b9150610d8782610d46565b602082019050919050565b60006020820190508181036000830152610dab81610d6f565b9050919050565b7f496e76616c696420696e64657800000000000000000000000000000000000000600082015250565b6000610de8600d83610ad9565b9150610df382610db2565b602082019050919050565b60006020820190508181036000830152610e1781610ddb565b9050919050565b7f4e487b7100000000000000000000000000000000000000000000000000000000600052603160045260246000fdfea2646970667358221220865fc87ea6ba334a0ab826324a1df16741b2cdbbe060d2aaef73013d9b3ffd5d64736f6c634300080c0033",
  "immutableReferences": {},
  "source": "// SPDX-License-Identifier: MIT\npragma solidity ^0.8.0;\n\nimport \"../interface/ITreasury.sol\";\nimport \"../interface/IBaseVoting.sol\";\n\ncontract VotingHubContract {\n    address[] public VOTING_CONTRACTS_ADDRESS;\n    address public TREASURY_CONTRACT_ADDRESS;\n    address OWNER;\n\n    constructor() {\n        OWNER = msg.sender;\n    }\n\n    //TODO Hub created now need to\n    // call this from treasury\n    //// function to add the voting contract address\n    //// function to remove the voting contract address\n    //// implement the methods in the child classes that would propagate the call to super methods\n    // need to verify if the balanceOf value called inside _handleUserTokenTransfers gets new value or the old value\n\n    /**\n     * @dev This modifier checks that only owner fo the contracts can call the functions\n     */\n    modifier _ownerOnly() {\n        require(msg.sender == OWNER, \"Only owner can call it.\");\n        _;\n    }\n\n    /**\n     * @dev This modifier checks that only treasury can call the functions\n     */\n    modifier _onlyTreasury() {\n        require(\n            msg.sender == TREASURY_CONTRACT_ADDRESS,\n            \"Only treasury can call it.\"\n        );\n        _;\n    }\n\n    event DEBUG3(address contractAddress);\n\n    /**\n     * @dev This function will be called when either user is transferring the tokens to other account,\n     or is receiving tokens from other tokens.\n     * @param sender address of the sender\n     * @param receiver address of the receiver\n     * @param amount the amount that is being transferred\n     * @param tokenId the id of the token that is being transferred\n     */\n    function handleUserTokenTransfers(\n        address sender,\n        address receiver,\n        uint256 amount,\n        uint256 tokenId\n    ) public _onlyTreasury {\n        emit DEBUG3(address(0));\n\n        ITreasury iTreasury = ITreasury(TREASURY_CONTRACT_ADDRESS);\n        for (uint256 i = 0; i < VOTING_CONTRACTS_ADDRESS.length; i++) {\n            emit DEBUG3(VOTING_CONTRACTS_ADDRESS[i]);\n            IBaseVoting iBaseVoting = IBaseVoting(VOTING_CONTRACTS_ADDRESS[i]);\n            if (sender != address(0)) {\n                uint256 bal = iTreasury.balanceOf(sender, tokenId);\n                iBaseVoting._handleUserTokenTransfers(\n                    sender,\n                    tokenId,\n                    bal,\n                    bal - amount\n                );\n            }\n            if (receiver != address(0)) {\n                uint256 bal = iTreasury.balanceOf(receiver, tokenId);\n                iBaseVoting._handleUserTokenTransfers(\n                    receiver,\n                    tokenId,\n                    bal,\n                    bal + amount\n                );\n            }\n        }\n    }\n\n    /**\n     * @dev This function sets the treasury Contract address\n     */\n    function setTreasuryContractAddress(address newTreasuryContractAddress)\n        public\n        _ownerOnly\n    {\n        TREASURY_CONTRACT_ADDRESS = newTreasuryContractAddress;\n    }\n\n    /**\n     * @dev This function will be called when either user is transferring the tokens to other account,\n     or is receiving tokens from other tokens.\n     * @param contractAddress address of the voting contract\n     */\n    function addVotingContract(address contractAddress) public _ownerOnly {\n        VOTING_CONTRACTS_ADDRESS.push(contractAddress);\n    }\n\n    /**\n     * @dev This function will be called when either user is transferring the tokens to other account,\n     or is receiving tokens from other tokens.\n     * @param index index of the contract to remove from the list\n     */\n    function removeVotingContract(uint256 index) public _ownerOnly {\n        require(index < VOTING_CONTRACTS_ADDRESS.length, \"Invalid index\");\n        VOTING_CONTRACTS_ADDRESS[index] = VOTING_CONTRACTS_ADDRESS[\n            VOTING_CONTRACTS_ADDRESS.length - 1\n        ];\n        VOTING_CONTRACTS_ADDRESS.pop();\n    }\n}\n",
  "sourcePath": "/Users/a1/Desktop/Office/projects/CrowdRecords/Contracts/contracts/voting/VotingHubContract.sol",
  "compiler": {
    "name": "solc",
    "version": "0.8.12+commit.f00d7308.Emscripten.clang"
  },
  "schemaVersion": "3.4.6",
  "updatedAt": "2022-08-08T09:15:00.094Z",
  "devdoc": {
    "kind": "dev",
    "methods": {
      "addVotingContract(address)": {
        "details": "This function will be called when either user is transferring the tokens to other account, or is receiving tokens from other tokens.",
        "params": {
          "contractAddress": "address of the voting contract"
        }
      },
      "handleUserTokenTransfers(address,address,uint256,uint256)": {
        "details": "This function will be called when either user is transferring the tokens to other account, or is receiving tokens from other tokens.",
        "params": {
          "amount": "the amount that is being transferred",
          "receiver": "address of the receiver",
          "sender": "address of the sender",
          "tokenId": "the id of the token that is being transferred"
        }
      },
      "removeVotingContract(uint256)": {
        "details": "This function will be called when either user is transferring the tokens to other account, or is receiving tokens from other tokens.",
        "params": {
          "index": "index of the contract to remove from the list"
        }
      },
      "setTreasuryContractAddress(address)": {
        "details": "This function sets the treasury Contract address"
      }
    },
    "version": 1
  },
  "userdoc": {
    "kind": "user",
    "methods": {},
    "version": 1
  }
}