{
  "contractName": "VotingHubContract",
  "abi": [
    {
      "inputs": [],
      "stateMutability": "nonpayable",
      "type": "constructor"
    },
    {
      "inputs": [],
      "name": "TREASURY_CONTRACT_ADDRESS",
      "outputs": [
        {
          "internalType": "address",
          "name": "",
          "type": "address"
        }
      ],
      "stateMutability": "view",
      "type": "function"
    },
    {
      "inputs": [
        {
          "internalType": "uint256",
          "name": "",
          "type": "uint256"
        }
      ],
      "name": "VOTING_CONTRACTS_ADDRESS",
      "outputs": [
        {
          "internalType": "address",
          "name": "",
          "type": "address"
        }
      ],
      "stateMutability": "view",
      "type": "function"
    },
    {
      "inputs": [
        {
          "internalType": "address",
          "name": "sender",
          "type": "address"
        },
        {
          "internalType": "address",
          "name": "receiver",
          "type": "address"
        },
        {
          "internalType": "uint256",
          "name": "amount",
          "type": "uint256"
        },
        {
          "internalType": "uint256",
          "name": "tokenId",
          "type": "uint256"
        }
      ],
      "name": "handleUserTokenTransfers",
      "outputs": [],
      "stateMutability": "nonpayable",
      "type": "function"
    },
    {
      "inputs": [
        {
          "internalType": "address",
          "name": "newTreasuryContractAddress",
          "type": "address"
        }
      ],
      "name": "setTreasuryContractAddress",
      "outputs": [],
      "stateMutability": "nonpayable",
      "type": "function"
    },
    {
      "inputs": [
        {
          "internalType": "address",
          "name": "contractAddress",
          "type": "address"
        }
      ],
      "name": "addVotingContract",
      "outputs": [],
      "stateMutability": "nonpayable",
      "type": "function"
    },
    {
      "inputs": [
        {
          "internalType": "uint256",
          "name": "index",
          "type": "uint256"
        }
      ],
      "name": "removeVotingContract",
      "outputs": [],
      "stateMutability": "nonpayable",
      "type": "function"
    }
  ],
  "bytecode": "0x608060405234801561001057600080fd5b5033600260006101000a81548173ffffffffffffffffffffffffffffffffffffffff021916908373ffffffffffffffffffffffffffffffffffffffff160217905550610dd6806100616000396000f3fe608060405234801561001057600080fd5b50600436106100625760003560e01c80631de841ba1461006757806320c7ad57146100835780634cf2d48f1461009f578063acb31493146100bb578063c3bac9ea146100d9578063e199a6f6146100f5575b600080fd5b610081600480360381019061007c9190610941565b610125565b005b61009d600480360381019061009891906109a8565b6104ac565b005b6100b960048036038101906100b491906109a8565b6105a2565b005b6100c3610676565b6040516100d091906109e4565b60405180910390f35b6100f360048036038101906100ee91906109ff565b61069c565b005b61010f600480360381019061010a91906109ff565b610869565b60405161011c91906109e4565b60405180910390f35b600160009054906101000a900473ffffffffffffffffffffffffffffffffffffffff1673ffffffffffffffffffffffffffffffffffffffff163373ffffffffffffffffffffffffffffffffffffffff16146101b5576040517f08c379a00000000000000000000000000000000000000000000000000000000081526004016101ac90610a89565b60405180910390fd5b6000600160009054906101000a900473ffffffffffffffffffffffffffffffffffffffff16905060005b6000805490508110156104a457600080828154811061020157610200610aa9565b5b9060005260206000200160009054906101000a900473ffffffffffffffffffffffffffffffffffffffff169050600073ffffffffffffffffffffffffffffffffffffffff168773ffffffffffffffffffffffffffffffffffffffff161461035f5760008373ffffffffffffffffffffffffffffffffffffffff1662fdd58e89876040518363ffffffff1660e01b815260040161029e929190610ae7565b602060405180830381865afa1580156102bb573d6000803e3d6000fd5b505050506040513d601f19601f820116820180604052508101906102df9190610b25565b90508173ffffffffffffffffffffffffffffffffffffffff1663abb7ed7f8987848a8661030c9190610b81565b6040518563ffffffff1660e01b815260040161032b9493929190610bb5565b600060405180830381600087803b15801561034557600080fd5b505af1158015610359573d6000803e3d6000fd5b50505050505b600073ffffffffffffffffffffffffffffffffffffffff168673ffffffffffffffffffffffffffffffffffffffff16146104905760008373ffffffffffffffffffffffffffffffffffffffff1662fdd58e88876040518363ffffffff1660e01b81526004016103cf929190610ae7565b602060405180830381865afa1580156103ec573d6000803e3d6000fd5b505050506040513d601f19601f820116820180604052508101906104109190610b25565b90508173ffffffffffffffffffffffffffffffffffffffff1663abb7ed7f8887848a8661043d9190610bfa565b6040518563ffffffff1660e01b815260040161045c9493929190610bb5565b600060405180830381600087803b15801561047657600080fd5b505af115801561048a573d6000803e3d6000fd5b50505050505b50808061049c90610c50565b9150506101df565b505050505050565b600260009054906101000a900473ffffffffffffffffffffffffffffffffffffffff1673ffffffffffffffffffffffffffffffffffffffff163373ffffffffffffffffffffffffffffffffffffffff161461053c576040517f08c379a000000000000000000000000000000000000000000000000000000000815260040161053390610ce5565b60405180910390fd5b6000819080600181540180825580915050600190039060005260206000200160009091909190916101000a81548173ffffffffffffffffffffffffffffffffffffffff021916908373ffffffffffffffffffffffffffffffffffffffff16021790555050565b600260009054906101000a900473ffffffffffffffffffffffffffffffffffffffff1673ffffffffffffffffffffffffffffffffffffffff163373ffffffffffffffffffffffffffffffffffffffff1614610632576040517f08c379a000000000000000000000000000000000000000000000000000000000815260040161062990610ce5565b60405180910390fd5b80600160006101000a81548173ffffffffffffffffffffffffffffffffffffffff021916908373ffffffffffffffffffffffffffffffffffffffff16021790555050565b600160009054906101000a900473ffffffffffffffffffffffffffffffffffffffff1681565b600260009054906101000a900473ffffffffffffffffffffffffffffffffffffffff1673ffffffffffffffffffffffffffffffffffffffff163373ffffffffffffffffffffffffffffffffffffffff161461072c576040517f08c379a000000000000000000000000000000000000000000000000000000000815260040161072390610ce5565b60405180910390fd5b6000805490508110610773576040517f08c379a000000000000000000000000000000000000000000000000000000000815260040161076a90610d51565b60405180910390fd5b600060016000805490506107879190610b81565b8154811061079857610797610aa9565b5b9060005260206000200160009054906101000a900473ffffffffffffffffffffffffffffffffffffffff16600082815481106107d7576107d6610aa9565b5b9060005260206000200160006101000a81548173ffffffffffffffffffffffffffffffffffffffff021916908373ffffffffffffffffffffffffffffffffffffffff160217905550600080548061083157610830610d71565b5b6001900381819060005260206000200160006101000a81549073ffffffffffffffffffffffffffffffffffffffff0219169055905550565b6000818154811061087957600080fd5b906000526020600020016000915054906101000a900473ffffffffffffffffffffffffffffffffffffffff1681565b600080fd5b600073ffffffffffffffffffffffffffffffffffffffff82169050919050565b60006108d8826108ad565b9050919050565b6108e8816108cd565b81146108f357600080fd5b50565b600081359050610905816108df565b92915050565b6000819050919050565b61091e8161090b565b811461092957600080fd5b50565b60008135905061093b81610915565b92915050565b6000806000806080858703121561095b5761095a6108a8565b5b6000610969878288016108f6565b945050602061097a878288016108f6565b935050604061098b8782880161092c565b925050606061099c8782880161092c565b91505092959194509250565b6000602082840312156109be576109bd6108a8565b5b60006109cc848285016108f6565b91505092915050565b6109de816108cd565b82525050565b60006020820190506109f960008301846109d5565b92915050565b600060208284031215610a1557610a146108a8565b5b6000610a238482850161092c565b91505092915050565b600082825260208201905092915050565b7f4f6e6c792074726561737572792063616e2063616c6c2069742e000000000000600082015250565b6000610a73601a83610a2c565b9150610a7e82610a3d565b602082019050919050565b60006020820190508181036000830152610aa281610a66565b9050919050565b7f4e487b7100000000000000000000000000000000000000000000000000000000600052603260045260246000fd5b610ae18161090b565b82525050565b6000604082019050610afc60008301856109d5565b610b096020830184610ad8565b9392505050565b600081519050610b1f81610915565b92915050565b600060208284031215610b3b57610b3a6108a8565b5b6000610b4984828501610b10565b91505092915050565b7f4e487b7100000000000000000000000000000000000000000000000000000000600052601160045260246000fd5b6000610b8c8261090b565b9150610b978361090b565b925082821015610baa57610ba9610b52565b5b828203905092915050565b6000608082019050610bca60008301876109d5565b610bd76020830186610ad8565b610be46040830185610ad8565b610bf16060830184610ad8565b95945050505050565b6000610c058261090b565b9150610c108361090b565b9250827fffffffffffffffffffffffffffffffffffffffffffffffffffffffffffffffff03821115610c4557610c44610b52565b5b828201905092915050565b6000610c5b8261090b565b91507fffffffffffffffffffffffffffffffffffffffffffffffffffffffffffffffff821415610c8e57610c8d610b52565b5b600182019050919050565b7f4f6e6c79206f776e65722063616e2063616c6c2069742e000000000000000000600082015250565b6000610ccf601783610a2c565b9150610cda82610c99565b602082019050919050565b60006020820190508181036000830152610cfe81610cc2565b9050919050565b7f496e76616c696420696e64657800000000000000000000000000000000000000600082015250565b6000610d3b600d83610a2c565b9150610d4682610d05565b602082019050919050565b60006020820190508181036000830152610d6a81610d2e565b9050919050565b7f4e487b7100000000000000000000000000000000000000000000000000000000600052603160045260246000fdfea264697066735822122060c5fc08fd70fd40e9d629e4b9e026474d0dd9c5ba073b5f9f0c3fd702c84cac64736f6c634300080c0033",
  "immutableReferences": {},
  "source": "// SPDX-License-Identifier: MIT\npragma solidity ^0.8.0;\n\nimport \"../interface/ITreasury.sol\";\nimport \"../interface/IBaseVoting.sol\";\n\ncontract VotingHubContract {\n    address[] public VOTING_CONTRACTS_ADDRESS;\n    address public TREASURY_CONTRACT_ADDRESS;\n    address OWNER;\n\n    constructor() {\n        OWNER = msg.sender;\n    }\n\n    //TODO Hub created now need to\n    // call this from treasury\n    //// function to add the voting contract address\n    //// function to remove the voting contract address\n    //// implement the methods in the child classes that would propagate the call to super methods\n    // need to verify if the balanceOf value called inside _handleUserTokenTransfers gets new value or the old value\n\n    /**\n     * @dev This modifier checks that only owner fo the contracts can call the functions\n     */\n    modifier _ownerOnly() {\n        require(msg.sender == OWNER, \"Only owner can call it.\");\n        _;\n    }\n\n    /**\n     * @dev This modifier checks that only treasury can call the functions\n     */\n    modifier _onlyTreasury() {\n        require(\n            msg.sender == TREASURY_CONTRACT_ADDRESS,\n            \"Only treasury can call it.\"\n        );\n        _;\n    }\n\n    /**\n     * @dev This function will be called when either user is transferring the tokens to other account,\n     or is receiving tokens from other tokens.\n     * @param sender address of the sender\n     * @param receiver address of the receiver\n     * @param amount the amount that is being transferred\n     * @param tokenId the id of the token that is being transferred\n     */\n    function handleUserTokenTransfers(\n        address sender,\n        address receiver,\n        uint256 amount,\n        uint256 tokenId\n    ) public _onlyTreasury {\n        ITreasury iTreasury = ITreasury(TREASURY_CONTRACT_ADDRESS);\n        for (uint256 i = 0; i < VOTING_CONTRACTS_ADDRESS.length; i++) {\n            IBaseVoting iBaseVoting = IBaseVoting(VOTING_CONTRACTS_ADDRESS[i]);\n            if (sender != address(0)) {\n                uint256 bal = iTreasury.balanceOf(sender, tokenId);\n                iBaseVoting._handleUserTokenTransfers(\n                    sender,\n                    tokenId,\n                    bal,\n                    bal - amount\n                );\n            }\n            if (receiver != address(0)) {\n                uint256 bal = iTreasury.balanceOf(receiver, tokenId);\n                iBaseVoting._handleUserTokenTransfers(\n                    receiver,\n                    tokenId,\n                    bal,\n                    bal + amount\n                );\n            }\n        }\n    }\n\n    /**\n     * @dev This function sets the treasury Contract address\n     */\n    function setTreasuryContractAddress(address newTreasuryContractAddress)\n        public\n        _ownerOnly\n    {\n        TREASURY_CONTRACT_ADDRESS = newTreasuryContractAddress;\n    }\n\n    /**\n     * @dev This function will be called when either user is transferring the tokens to other account,\n     or is receiving tokens from other tokens.\n     * @param contractAddress address of the voting contract\n     */\n    function addVotingContract(address contractAddress) public _ownerOnly {\n        VOTING_CONTRACTS_ADDRESS.push(contractAddress);\n    }\n\n    /**\n     * @dev This function will be called when either user is transferring the tokens to other account,\n     or is receiving tokens from other tokens.\n     * @param index index of the contract to remove from the list\n     */\n    function removeVotingContract(uint256 index) public _ownerOnly {\n        require(index < VOTING_CONTRACTS_ADDRESS.length, \"Invalid index\");\n        VOTING_CONTRACTS_ADDRESS[index] = VOTING_CONTRACTS_ADDRESS[\n            VOTING_CONTRACTS_ADDRESS.length - 1\n        ];\n        VOTING_CONTRACTS_ADDRESS.pop();\n    }\n}\n",
  "sourcePath": "/Users/a1/Desktop/Office/projects/CrowdRecords/Contracts/contracts/voting/VotingHubContract.sol",
  "compiler": {
    "name": "solc",
    "version": "0.8.12+commit.f00d7308.Emscripten.clang"
  },
  "schemaVersion": "3.4.6",
  "updatedAt": "2022-07-26T06:49:30.189Z",
  "devdoc": {
    "kind": "dev",
    "methods": {
      "addVotingContract(address)": {
        "details": "This function will be called when either user is transferring the tokens to other account, or is receiving tokens from other tokens.",
        "params": {
          "contractAddress": "address of the voting contract"
        }
      },
      "handleUserTokenTransfers(address,address,uint256,uint256)": {
        "details": "This function will be called when either user is transferring the tokens to other account, or is receiving tokens from other tokens.",
        "params": {
          "amount": "the amount that is being transferred",
          "receiver": "address of the receiver",
          "sender": "address of the sender",
          "tokenId": "the id of the token that is being transferred"
        }
      },
      "removeVotingContract(uint256)": {
        "details": "This function will be called when either user is transferring the tokens to other account, or is receiving tokens from other tokens.",
        "params": {
          "index": "index of the contract to remove from the list"
        }
      },
      "setTreasuryContractAddress(address)": {
        "details": "This function sets the treasury Contract address"
      }
    },
    "version": 1
  },
  "userdoc": {
    "kind": "user",
    "methods": {},
    "version": 1
  }
}