{
  "contractName": "VotingHubContract",
  "abi": [
    {
      "inputs": [
        {
          "internalType": "address",
          "name": "owner",
          "type": "address"
        }
      ],
      "stateMutability": "nonpayable",
      "type": "constructor"
    },
    {
      "inputs": [],
      "name": "OWNER",
      "outputs": [
        {
          "internalType": "address",
          "name": "",
          "type": "address"
        }
      ],
      "stateMutability": "view",
      "type": "function",
      "constant": true
    },
    {
      "inputs": [],
      "name": "TREASURY_CORE_CONTRACT_ADDRESS",
      "outputs": [
        {
          "internalType": "address",
          "name": "",
          "type": "address"
        }
      ],
      "stateMutability": "view",
      "type": "function",
      "constant": true
    },
    {
      "inputs": [
        {
          "internalType": "uint256",
          "name": "",
          "type": "uint256"
        }
      ],
      "name": "VOTING_CONTRACTS_ADDRESS",
      "outputs": [
        {
          "internalType": "address",
          "name": "",
          "type": "address"
        }
      ],
      "stateMutability": "view",
      "type": "function",
      "constant": true
    },
    {
      "inputs": [],
      "name": "iTreasury",
      "outputs": [
        {
          "internalType": "contract ITreasuryCore",
          "name": "",
          "type": "address"
        }
      ],
      "stateMutability": "view",
      "type": "function",
      "constant": true
    },
    {
      "inputs": [
        {
          "internalType": "address",
          "name": "owner",
          "type": "address"
        }
      ],
      "name": "setOwner",
      "outputs": [],
      "stateMutability": "nonpayable",
      "type": "function"
    },
    {
      "inputs": [
        {
          "internalType": "address",
          "name": "sender",
          "type": "address"
        },
        {
          "internalType": "address",
          "name": "receiver",
          "type": "address"
        },
        {
          "internalType": "uint256",
          "name": "amount",
          "type": "uint256"
        },
        {
          "internalType": "uint256",
          "name": "tokenId",
          "type": "uint256"
        }
      ],
      "name": "handleUserTokenTransfers",
      "outputs": [],
      "stateMutability": "nonpayable",
      "type": "function"
    },
    {
      "inputs": [
        {
          "internalType": "address",
          "name": "newTreasuryContractAddress",
          "type": "address"
        }
      ],
      "name": "setTreasuryCoreContractAddress",
      "outputs": [],
      "stateMutability": "nonpayable",
      "type": "function"
    },
    {
      "inputs": [
        {
          "internalType": "address",
          "name": "contractAddress",
          "type": "address"
        }
      ],
      "name": "addVotingContract",
      "outputs": [],
      "stateMutability": "nonpayable",
      "type": "function"
    },
    {
      "inputs": [
        {
          "internalType": "uint256",
          "name": "index",
          "type": "uint256"
        }
      ],
      "name": "removeVotingContract",
      "outputs": [],
      "stateMutability": "nonpayable",
      "type": "function"
    }
  ],
  "bytecode": "0x608060405234801561001057600080fd5b50604051610d51380380610d5183398101604081905261002f91610054565b600280546001600160a01b0319166001600160a01b0392909216919091179055610084565b60006020828403121561006657600080fd5b81516001600160a01b038116811461007d57600080fd5b9392505050565b610cbe806100936000396000f3fe608060405234801561001057600080fd5b50600436106100a35760003560e01c8063556bed3a11610076578063c3bac9ea1161005b578063c3bac9ea1461016c578063e199a6f61461017f578063f3cb67851461019257600080fd5b8063556bed3a1461012c57806375a098911461014c57600080fd5b8063117803e3146100a857806313af4035146100f15780631de841ba1461010657806320c7ad5714610119575b600080fd5b6002546100c89073ffffffffffffffffffffffffffffffffffffffff1681565b60405173ffffffffffffffffffffffffffffffffffffffff909116815260200160405180910390f35b6101046100ff366004610afd565b6101a5565b005b610104610114366004610b1f565b610272565b610104610127366004610afd565b6106db565b6001546100c89073ffffffffffffffffffffffffffffffffffffffff1681565b6003546100c89073ffffffffffffffffffffffffffffffffffffffff1681565b61010461017a366004610b61565b6107d0565b6100c861018d366004610b61565b6109cb565b6101046101a0366004610afd565b610a02565b60025473ffffffffffffffffffffffffffffffffffffffff16331461022b576040517f08c379a000000000000000000000000000000000000000000000000000000000815260206004820152601e60248201527f554e415554484f52495a45443a204c41434b535f5045524d495353494f4e000060448201526064015b60405180910390fd5b600280547fffffffffffffffffffffffff00000000000000000000000000000000000000001673ffffffffffffffffffffffffffffffffffffffff92909216919091179055565b60015473ffffffffffffffffffffffffffffffffffffffff163314610319576040517f08c379a000000000000000000000000000000000000000000000000000000000815260206004820152602960248201527f554e415554484f52495a45443a204f4e4c595f54524541535552595f434f524560448201527f5f434f4e545241435400000000000000000000000000000000000000000000006064820152608401610222565b60005b6000548110156106d457600080828154811061033a5761033a610b7a565b60009182526020909120015473ffffffffffffffffffffffffffffffffffffffff908116915086161561054e576003546040517efdd58e00000000000000000000000000000000000000000000000000000000815273ffffffffffffffffffffffffffffffffffffffff888116600483015260248201869052600092169062fdd58e90604401602060405180830381865afa1580156103dd573d6000803e3d6000fd5b505050506040513d601f19601f820116820180604052508101906104019190610ba9565b905084811015610493576040517f08c379a000000000000000000000000000000000000000000000000000000000815260206004820152602a60248201527f455243313135353a20696e73756666696369656e742062616c616e636520666f60448201527f72207472616e73666572000000000000000000000000000000000000000000006064820152608401610222565b73ffffffffffffffffffffffffffffffffffffffff821663abb7ed7f8886846104bc8a82610bf1565b6040517fffffffff0000000000000000000000000000000000000000000000000000000060e087901b16815273ffffffffffffffffffffffffffffffffffffffff9094166004850152602484019290925260448301526064820152608401600060405180830381600087803b15801561053457600080fd5b505af1158015610548573d6000803e3d6000fd5b50505050505b73ffffffffffffffffffffffffffffffffffffffff8516156106c1576003546040517efdd58e00000000000000000000000000000000000000000000000000000000815273ffffffffffffffffffffffffffffffffffffffff878116600483015260248201869052600092169062fdd58e90604401602060405180830381865afa1580156105e0573d6000803e3d6000fd5b505050506040513d601f19601f820116820180604052508101906106049190610ba9565b905073ffffffffffffffffffffffffffffffffffffffff821663abb7ed7f87868461062f8a82610c08565b6040517fffffffff0000000000000000000000000000000000000000000000000000000060e087901b16815273ffffffffffffffffffffffffffffffffffffffff9094166004850152602484019290925260448301526064820152608401600060405180830381600087803b1580156106a757600080fd5b505af11580156106bb573d6000803e3d6000fd5b50505050505b50806106cc81610c20565b91505061031c565b5050505050565b60025473ffffffffffffffffffffffffffffffffffffffff16331461075c576040517f08c379a000000000000000000000000000000000000000000000000000000000815260206004820152601e60248201527f554e415554484f52495a45443a204c41434b535f5045524d495353494f4e00006044820152606401610222565b600080546001810182559080527f290decd9548b62a8d60345a988386fc84ba6bc95484008f6362f93160ef3e5630180547fffffffffffffffffffffffff00000000000000000000000000000000000000001673ffffffffffffffffffffffffffffffffffffffff92909216919091179055565b60025473ffffffffffffffffffffffffffffffffffffffff163314610851576040517f08c379a000000000000000000000000000000000000000000000000000000000815260206004820152601e60248201527f554e415554484f52495a45443a204c41434b535f5045524d495353494f4e00006044820152606401610222565b60005481106108bc576040517f08c379a000000000000000000000000000000000000000000000000000000000815260206004820152601860248201527f494e56414c49443a20494e434f52524543545f494e44455800000000000000006044820152606401610222565b600080546108cc90600190610bf1565b815481106108dc576108dc610b7a565b6000918252602082200154815473ffffffffffffffffffffffffffffffffffffffff90911691908390811061091357610913610b7a565b6000918252602082200180547fffffffffffffffffffffffff00000000000000000000000000000000000000001673ffffffffffffffffffffffffffffffffffffffff939093169290921790915580548061097057610970610c59565b60008281526020902081017fffffffffffffffffffffffffffffffffffffffffffffffffffffffffffffffff90810180547fffffffffffffffffffffffff000000000000000000000000000000000000000016905501905550565b600081815481106109db57600080fd5b60009182526020909120015473ffffffffffffffffffffffffffffffffffffffff16905081565b60025473ffffffffffffffffffffffffffffffffffffffff163314610a83576040517f08c379a000000000000000000000000000000000000000000000000000000000815260206004820152601e60248201527f554e415554484f52495a45443a204c41434b535f5045524d495353494f4e00006044820152606401610222565b6001805473ffffffffffffffffffffffffffffffffffffffff9092167fffffffffffffffffffffffff0000000000000000000000000000000000000000928316811790915560038054909216179055565b803573ffffffffffffffffffffffffffffffffffffffff81168114610af857600080fd5b919050565b600060208284031215610b0f57600080fd5b610b1882610ad4565b9392505050565b60008060008060808587031215610b3557600080fd5b610b3e85610ad4565b9350610b4c60208601610ad4565b93969395505050506040820135916060013590565b600060208284031215610b7357600080fd5b5035919050565b7f4e487b7100000000000000000000000000000000000000000000000000000000600052603260045260246000fd5b600060208284031215610bbb57600080fd5b5051919050565b7f4e487b7100000000000000000000000000000000000000000000000000000000600052601160045260246000fd5b600082821015610c0357610c03610bc2565b500390565b60008219821115610c1b57610c1b610bc2565b500190565b60007fffffffffffffffffffffffffffffffffffffffffffffffffffffffffffffffff821415610c5257610c52610bc2565b5060010190565b7f4e487b7100000000000000000000000000000000000000000000000000000000600052603160045260246000fdfea26469706673582212204463ec7baecfe6fba1a92df299f4ff08a03825607c8c849d092ba64332aa7ca164736f6c634300080c0033",
  "immutableReferences": {},
  "source": "// SPDX-License-Identifier: MIT\npragma solidity ^0.8.0;\n\nimport \"../interface/ITreasuryCore.sol\";\nimport \"../interface/IBaseVoting.sol\";\n\ncontract VotingHubContract {\n    address[] public VOTING_CONTRACTS_ADDRESS;\n    address public TREASURY_CORE_CONTRACT_ADDRESS;\n    address public OWNER;\n    ITreasuryCore public iTreasury;\n\n    constructor(address owner) {\n        OWNER = owner;\n    }\n\n    /// @notice\n    /// @dev This modifier checks that only owner fo the contracts can call the functions\n    modifier _ownerOnly() {\n        require(msg.sender == OWNER, \"UNAUTHORIZED: LACKS_PERMISSION\");\n        _;\n    }\n\n    /// @notice\n    /// @dev This modifier checks that only treasury can call the functions\n    modifier _onlyTreasuryCore() {\n        require(\n            msg.sender == TREASURY_CORE_CONTRACT_ADDRESS,\n            \"UNAUTHORIZED: ONLY_TREASURY_CORE_CONTRACT\"\n        );\n        _;\n    }\n\n    /// @notice This function is to set the owner address\n    /// @dev This function takes in the address of new owner and sets it to the contract\n    /// @param owner Takes the address of new owner as parameter\n    function setOwner(address owner) public _ownerOnly {\n        OWNER = owner;\n    }\n\n    /// @notice this\n    /// @dev This function will be called when either user is transferring the tokens to other account,\n    /// or is receiving tokens from other tokens.\n    /// @param sender address of the sender\n    /// @param receiver address of the receiver\n    /// @param amount the amount that is being transferred\n    /// @param tokenId the id of the token that is being transferred\n    function handleUserTokenTransfers(\n        address sender,\n        address receiver,\n        uint256 amount,\n        uint256 tokenId\n    ) public _onlyTreasuryCore {\n        for (uint256 i = 0; i < VOTING_CONTRACTS_ADDRESS.length; i++) {\n            IBaseVoting iBaseVoting = IBaseVoting(VOTING_CONTRACTS_ADDRESS[i]);\n            if (sender != address(0)) {\n                uint256 bal = iTreasury.balanceOf(sender, tokenId);\n                require(\n                    bal >= amount,\n                    \"ERC1155: insufficient balance for transfer\"\n                );\n                iBaseVoting._handleUserTokenTransfers(\n                    sender,\n                    tokenId,\n                    bal,\n                    bal - amount\n                );\n            }\n            if (receiver != address(0)) {\n                uint256 bal = iTreasury.balanceOf(receiver, tokenId);\n                iBaseVoting._handleUserTokenTransfers(\n                    receiver,\n                    tokenId,\n                    bal,\n                    bal + amount\n                );\n            }\n        }\n    }\n\n    /// @notice\n    /// @dev This function sets the treasury Contract address\n    function setTreasuryCoreContractAddress(\n        address newTreasuryContractAddress\n    ) public _ownerOnly {\n        TREASURY_CORE_CONTRACT_ADDRESS = newTreasuryContractAddress;\n        iTreasury = ITreasuryCore(TREASURY_CORE_CONTRACT_ADDRESS);\n    }\n\n    /// @notice\n    /// @dev This function is to add a voting contract, the added contract will be notified when a token transfer occurs\n    /// @param contractAddress address of the voting contract\n    function addVotingContract(address contractAddress) public _ownerOnly {\n        VOTING_CONTRACTS_ADDRESS.push(contractAddress);\n    }\n\n    /// @notice\n    /// @dev This function removes address from voting contract array\n    /// @param index index of the contract to remove from the list\n    function removeVotingContract(uint256 index) public _ownerOnly {\n        require(\n            index < VOTING_CONTRACTS_ADDRESS.length,\n            \"INVALID: INCORRECT_INDEX\"\n        );\n        VOTING_CONTRACTS_ADDRESS[index] = VOTING_CONTRACTS_ADDRESS[\n            VOTING_CONTRACTS_ADDRESS.length - 1\n        ];\n        VOTING_CONTRACTS_ADDRESS.pop();\n    }\n}\n",
  "sourcePath": "/Users/a1/Desktop/Office/projects/CrowdRecords/Contracts/contracts/voting/VotingHubContract.sol",
  "compiler": {
    "name": "solc",
    "version": "0.8.12+commit.f00d7308.Emscripten.clang"
  },
  "schemaVersion": "3.4.6",
  "updatedAt": "2023-05-19T09:50:44.522Z",
  "networkType": "ethereum",
  "devdoc": {
    "kind": "dev",
    "methods": {
      "addVotingContract(address)": {
        "params": {
          "contractAddress": "address of the voting contract"
        }
      },
      "handleUserTokenTransfers(address,address,uint256,uint256)": {
        "details": "This function will be called when either user is transferring the tokens to other account, or is receiving tokens from other tokens.",
        "params": {
          "amount": "the amount that is being transferred",
          "receiver": "address of the receiver",
          "sender": "address of the sender",
          "tokenId": "the id of the token that is being transferred"
        }
      },
      "removeVotingContract(uint256)": {
        "params": {
          "index": "index of the contract to remove from the list"
        }
      },
      "setOwner(address)": {
        "details": "This function takes in the address of new owner and sets it to the contract",
        "params": {
          "owner": "Takes the address of new owner as parameter"
        }
      }
    },
    "version": 1
  },
  "userdoc": {
    "kind": "user",
    "methods": {
      "addVotingContract(address)": {
        "notice": "@dev This function is to add a voting contract, the added contract will be notified when a token transfer occurs"
      },
      "handleUserTokenTransfers(address,address,uint256,uint256)": {
        "notice": "this"
      },
      "removeVotingContract(uint256)": {
        "notice": "@dev This function removes address from voting contract array"
      },
      "setOwner(address)": {
        "notice": "This function is to set the owner address"
      },
      "setTreasuryCoreContractAddress(address)": {
        "notice": "@dev This function sets the treasury Contract address"
      }
    },
    "version": 1
  }
}