{
  "contractName": "VotingContract",
  "abi": [
    {
      "inputs": [],
      "stateMutability": "nonpayable",
      "type": "constructor"
    },
    {
      "anonymous": false,
      "inputs": [
        {
          "indexed": false,
          "internalType": "uint256",
          "name": "contributionId",
          "type": "uint256"
        },
        {
          "indexed": false,
          "internalType": "address",
          "name": "voterId",
          "type": "address"
        },
        {
          "indexed": false,
          "internalType": "uint256",
          "name": "newGovernanceReward",
          "type": "uint256"
        },
        {
          "indexed": false,
          "internalType": "uint256",
          "name": "newCommunityReward",
          "type": "uint256"
        },
        {
          "indexed": false,
          "internalType": "uint256",
          "name": "status",
          "type": "uint256"
        }
      ],
      "name": "counterOfferAction",
      "type": "event"
    },
    {
      "anonymous": false,
      "inputs": [
        {
          "indexed": false,
          "internalType": "uint256",
          "name": "contributionId",
          "type": "uint256"
        },
        {
          "indexed": false,
          "internalType": "address",
          "name": "voterId",
          "type": "address"
        },
        {
          "indexed": false,
          "internalType": "uint256",
          "name": "newGovernanceReward",
          "type": "uint256"
        },
        {
          "indexed": false,
          "internalType": "uint256",
          "name": "newCommunityReward",
          "type": "uint256"
        }
      ],
      "name": "counterOfferForContribution",
      "type": "event"
    },
    {
      "anonymous": false,
      "inputs": [
        {
          "indexed": false,
          "internalType": "uint256",
          "name": "contributionId",
          "type": "uint256"
        },
        {
          "indexed": false,
          "internalType": "address",
          "name": "owner",
          "type": "address"
        },
        {
          "indexed": false,
          "internalType": "uint256",
          "name": "governanceReward",
          "type": "uint256"
        },
        {
          "indexed": false,
          "internalType": "uint256",
          "name": "communityReward",
          "type": "uint256"
        },
        {
          "indexed": false,
          "internalType": "uint256",
          "name": "votingEndBlock",
          "type": "uint256"
        }
      ],
      "name": "createContributionBallot",
      "type": "event"
    },
    {
      "anonymous": false,
      "inputs": [
        {
          "indexed": false,
          "internalType": "uint256",
          "name": "contributionId",
          "type": "uint256"
        },
        {
          "indexed": false,
          "internalType": "address",
          "name": "voterId",
          "type": "address"
        },
        {
          "indexed": false,
          "internalType": "bool",
          "name": "vote",
          "type": "bool"
        }
      ],
      "name": "voteForContribution",
      "type": "event"
    },
    {
      "inputs": [],
      "name": "CONTRIBUTION_CONTRACT_ADDRESS",
      "outputs": [
        {
          "internalType": "address",
          "name": "",
          "type": "address"
        }
      ],
      "stateMutability": "view",
      "type": "function"
    },
    {
      "inputs": [
        {
          "internalType": "address",
          "name": "newContributionContractAddress",
          "type": "address"
        }
      ],
      "name": "setContributionContractAddress",
      "outputs": [],
      "stateMutability": "nonpayable",
      "type": "function"
    },
    {
      "inputs": [
        {
          "internalType": "uint256",
          "name": "contributionId",
          "type": "uint256"
        },
        {
          "internalType": "address",
          "name": "contributionCreator",
          "type": "address"
        },
        {
          "internalType": "uint256",
          "name": "govReward",
          "type": "uint256"
        },
        {
          "internalType": "uint256",
          "name": "commReward",
          "type": "uint256"
        }
      ],
      "name": "createContributionVotingBallot",
      "outputs": [
        {
          "components": [
            {
              "internalType": "address",
              "name": "owner",
              "type": "address"
            },
            {
              "internalType": "address[]",
              "name": "yes",
              "type": "address[]"
            },
            {
              "internalType": "address[]",
              "name": "no",
              "type": "address[]"
            },
            {
              "internalType": "uint256",
              "name": "communityReward",
              "type": "uint256"
            },
            {
              "internalType": "uint256",
              "name": "governanceReward",
              "type": "uint256"
            },
            {
              "internalType": "uint256",
              "name": "votingEndBlock",
              "type": "uint256"
            },
            {
              "internalType": "bool",
              "name": "isPresent",
              "type": "bool"
            }
          ],
          "internalType": "struct VotingContract.Ballot",
          "name": "ballot",
          "type": "tuple"
        }
      ],
      "stateMutability": "nonpayable",
      "type": "function"
    },
    {
      "inputs": [
        {
          "internalType": "uint256",
          "name": "contributionId",
          "type": "uint256"
        },
        {
          "internalType": "bool",
          "name": "vote",
          "type": "bool"
        }
      ],
      "name": "castVoteForContribution",
      "outputs": [],
      "stateMutability": "nonpayable",
      "type": "function"
    },
    {
      "inputs": [
        {
          "internalType": "uint256",
          "name": "contributionId",
          "type": "uint256"
        },
        {
          "internalType": "uint256",
          "name": "newCommunityReward",
          "type": "uint256"
        },
        {
          "internalType": "uint256",
          "name": "newGovernanceReward",
          "type": "uint256"
        }
      ],
      "name": "proposeCounterOffer",
      "outputs": [],
      "stateMutability": "nonpayable",
      "type": "function"
    },
    {
      "inputs": [
        {
          "internalType": "uint256",
          "name": "contributionId",
          "type": "uint256"
        },
        {
          "internalType": "address[]",
          "name": "counterOfferIds",
          "type": "address[]"
        },
        {
          "internalType": "bool",
          "name": "action",
          "type": "bool"
        }
      ],
      "name": "actionOnCounterOffer",
      "outputs": [],
      "stateMutability": "nonpayable",
      "type": "function"
    },
    {
      "inputs": [
        {
          "internalType": "uint256",
          "name": "contributionId",
          "type": "uint256"
        }
      ],
      "name": "contributionBallotResult",
      "outputs": [],
      "stateMutability": "nonpayable",
      "type": "function"
    }
  ],
  "bytecode": "0x6080604052601960005534801561001557600080fd5b5033600260006101000a81548173ffffffffffffffffffffffffffffffffffffffff021916908373ffffffffffffffffffffffffffffffffffffffff1602179055506122fe806100666000396000f3fe608060405234801561001057600080fd5b506004361061007d5760003560e01c806329c50b591161005b57806329c50b59146100ec57806348251f6714610108578063c679968a14610124578063c9d59143146101405761007d565b806307c505b714610082578063186b754c146100a0578063251686ed146100d0575b600080fd5b61008a61015c565b604051610097919061164b565b60405180910390f35b6100ba60048036038101906100b591906116dc565b610182565b6040516100c791906118ce565b60405180910390f35b6100ea60048036038101906100e5919061191c565b6104a4565b005b6101066004803603810190610101919061195c565b610855565b005b610122600480360381019061011d9190611989565b610929565b005b61013e600480360381019061013991906119b6565b610a94565b005b61015a60048036038101906101559190611b62565b610ef4565b005b600160009054906101000a900473ffffffffffffffffffffffffffffffffffffffff1681565b61018a61150e565b600015156006600087815260200190815260200160002060060160009054906101000a900460ff161515146101f4576040517f08c379a00000000000000000000000000000000000000000000000000000000081526004016101eb90611c2e565b60405180910390fd5b3373ffffffffffffffffffffffffffffffffffffffff16600160009054906101000a900473ffffffffffffffffffffffffffffffffffffffff1673ffffffffffffffffffffffffffffffffffffffff1614610284576040517f08c379a000000000000000000000000000000000000000000000000000000000815260040161027b90611cc0565b60405180910390fd5b60006040518060e001604052808673ffffffffffffffffffffffffffffffffffffffff168152602001600067ffffffffffffffff8111156102c8576102c7611a1f565b5b6040519080825280602002602001820160405280156102f65781602001602082028036833780820191505090505b508152602001600067ffffffffffffffff81111561031757610316611a1f565b5b6040519080825280602002602001820160405280156103455781602001602082028036833780820191505090505b508152602001848152602001858152602001600054436103659190611d0f565b8152602001600115158152509050806006600088815260200190815260200160002060008201518160000160006101000a81548173ffffffffffffffffffffffffffffffffffffffff021916908373ffffffffffffffffffffffffffffffffffffffff16021790555060208201518160010190805190602001906103ea929190611563565b506040820151816002019080519060200190610407929190611563565b50606082015181600301556080820151816004015560a0820151816005015560c08201518160060160006101000a81548160ff0219169083151502179055509050507fe719d3b0e032737ce05b8a76ffba8575e3ebd882972dac5e117988a4e195b783868260000151836080015184606001518560a00151604051610490959493929190611d74565b60405180910390a180915050949350505050565b81600115156006600083815260200190815260200160002060060160009054906101000a900460ff1615151461050f576040517f08c379a000000000000000000000000000000000000000000000000000000000815260040161050690611e13565b60405180910390fd5b43600660008381526020019081526020016000206005015411610567576040517f08c379a000000000000000000000000000000000000000000000000000000000815260040161055e90611e7f565b60405180910390fd5b600015156003600083815260200190815260200160002060003373ffffffffffffffffffffffffffffffffffffffff1673ffffffffffffffffffffffffffffffffffffffff16815260200190815260200160002060009054906101000a900460ff1615151461060b576040517f08c379a000000000000000000000000000000000000000000000000000000000815260040161060290611eeb565b60405180910390fd5b823373ffffffffffffffffffffffffffffffffffffffff166006600083815260200190815260200160002060000160009054906101000a900473ffffffffffffffffffffffffffffffffffffffff1673ffffffffffffffffffffffffffffffffffffffff1614156106b1576040517f08c379a00000000000000000000000000000000000000000000000000000000081526004016106a890611f57565b60405180910390fd5b82156107335760066000858152602001908152602001600020600101339080600181540180825580915050600190039060005260206000200160009091909190916101000a81548173ffffffffffffffffffffffffffffffffffffffff021916908373ffffffffffffffffffffffffffffffffffffffff1602179055506107ab565b60066000858152602001908152602001600020600201339080600181540180825580915050600190039060005260206000200160009091909190916101000a81548173ffffffffffffffffffffffffffffffffffffffff021916908373ffffffffffffffffffffffffffffffffffffffff1602179055505b60016003600086815260200190815260200160002060003373ffffffffffffffffffffffffffffffffffffffff1673ffffffffffffffffffffffffffffffffffffffff16815260200190815260200160002060006101000a81548160ff0219169083151502179055507f7042724a6f6b40faf9ef01f7b8f6295ec241a0e7cb0802f7105b9c27d831881f84338560405161084793929190611f86565b60405180910390a150505050565b600260009054906101000a900473ffffffffffffffffffffffffffffffffffffffff1673ffffffffffffffffffffffffffffffffffffffff163373ffffffffffffffffffffffffffffffffffffffff16146108e5576040517f08c379a00000000000000000000000000000000000000000000000000000000081526004016108dc9061202f565b60405180910390fd5b80600160006101000a81548173ffffffffffffffffffffffffffffffffffffffff021916908373ffffffffffffffffffffffffffffffffffffffff16021790555050565b80600115156006600083815260200190815260200160002060060160009054906101000a900460ff16151514610994576040517f08c379a000000000000000000000000000000000000000000000000000000000815260040161098b90611e13565b60405180910390fd5b436006600083815260200190815260200160002060050154116109ec576040517f08c379a00000000000000000000000000000000000000000000000000000000081526004016109e390611e7f565b60405180910390fd5b600015156003600083815260200190815260200160002060003373ffffffffffffffffffffffffffffffffffffffff1673ffffffffffffffffffffffffffffffffffffffff16815260200190815260200160002060009054906101000a900460ff16151514610a90576040517f08c379a0000000000000000000000000000000000000000000000000000000008152600401610a8790611eeb565b60405180910390fd5b5050565b82600115156006600083815260200190815260200160002060060160009054906101000a900460ff16151514610aff576040517f08c379a0000000000000000000000000000000000000000000000000000000008152600401610af690611e13565b60405180910390fd5b43600660008381526020019081526020016000206005015411610b57576040517f08c379a0000000000000000000000000000000000000000000000000000000008152600401610b4e90611e7f565b60405180910390fd5b600015156003600083815260200190815260200160002060003373ffffffffffffffffffffffffffffffffffffffff1673ffffffffffffffffffffffffffffffffffffffff16815260200190815260200160002060009054906101000a900460ff16151514610bfb576040517f08c379a0000000000000000000000000000000000000000000000000000000008152600401610bf290611eeb565b60405180910390fd5b833373ffffffffffffffffffffffffffffffffffffffff166006600083815260200190815260200160002060000160009054906101000a900473ffffffffffffffffffffffffffffffffffffffff1673ffffffffffffffffffffffffffffffffffffffff161415610ca1576040517f08c379a0000000000000000000000000000000000000000000000000000000008152600401610c9890611f57565b60405180910390fd5b600015156003600087815260200190815260200160002060003373ffffffffffffffffffffffffffffffffffffffff1673ffffffffffffffffffffffffffffffffffffffff16815260200190815260200160002060009054906101000a900460ff16151514610d45576040517f08c379a0000000000000000000000000000000000000000000000000000000008152600401610d3c906120c1565b60405180910390fd5b600060405180606001604052808681526020018581526020016001815250905060046000878152602001908152602001600020339080600181540180825580915050600190039060005260206000200160009091909190916101000a81548173ffffffffffffffffffffffffffffffffffffffff021916908373ffffffffffffffffffffffffffffffffffffffff160217905550806005600088815260200190815260200160002060003373ffffffffffffffffffffffffffffffffffffffff1673ffffffffffffffffffffffffffffffffffffffff1681526020019081526020016000206000820151816000015560208201518160010155604082015181600201559050506003600087815260200190815260200160002060003373ffffffffffffffffffffffffffffffffffffffff1673ffffffffffffffffffffffffffffffffffffffff16815260200190815260200160002060009054906101000a9050507fca3bef243b824258b456df78dcf2ebcee7b5d7edf69542ed3746ea5e68c94561863383602001518460000151604051610ee494939291906120e1565b60405180910390a1505050505050565b82600115156006600083815260200190815260200160002060060160009054906101000a900460ff16151514610f5f576040517f08c379a0000000000000000000000000000000000000000000000000000000008152600401610f5690611e13565b60405180910390fd5b43600660008381526020019081526020016000206005015411610fb7576040517f08c379a0000000000000000000000000000000000000000000000000000000008152600401610fae90611e7f565b60405180910390fd5b600015156003600083815260200190815260200160002060003373ffffffffffffffffffffffffffffffffffffffff1673ffffffffffffffffffffffffffffffffffffffff16815260200190815260200160002060009054906101000a900460ff1615151461105b576040517f08c379a000000000000000000000000000000000000000000000000000000000815260040161105290611eeb565b60405180910390fd5b833373ffffffffffffffffffffffffffffffffffffffff166006600083815260200190815260200160002060000160009054906101000a900473ffffffffffffffffffffffffffffffffffffffff1673ffffffffffffffffffffffffffffffffffffffff1614611100576040517f08c379a00000000000000000000000000000000000000000000000000000000081526004016110f790612198565b60405180910390fd5b60005b8451811015611506576001600560008881526020019081526020016000206000878481518110611136576111356121b8565b5b602002602001015173ffffffffffffffffffffffffffffffffffffffff1673ffffffffffffffffffffffffffffffffffffffff1681526020019081526020016000206002015414156114f35783156113ed5760006005600088815260200190815260200160002060008784815181106111b2576111b16121b8565b5b602002602001015173ffffffffffffffffffffffffffffffffffffffff1673ffffffffffffffffffffffffffffffffffffffff1681526020019081526020016000206001015490506000600560008981526020019081526020016000206000888581518110611224576112236121b8565b5b602002602001015173ffffffffffffffffffffffffffffffffffffffff1673ffffffffffffffffffffffffffffffffffffffff16815260200190815260200160002060000154905080600660008a81526020019081526020016000206003018190555081600660008a815260200190815260200160002060040181905550600660008981526020019081526020016000206001018784815181106112cb576112ca6121b8565b5b60200260200101519080600181540180825580915050600190039060005260206000200160009091909190916101000a81548173ffffffffffffffffffffffffffffffffffffffff021916908373ffffffffffffffffffffffffffffffffffffffff1602179055506002600560008a8152602001908152602001600020600089868151811061135d5761135c6121b8565b5b602002602001015173ffffffffffffffffffffffffffffffffffffffff1673ffffffffffffffffffffffffffffffffffffffff168152602001908152602001600020600201819055507fd992f385523dde33af41e13ab8ac788e6a9d7bf3278f3a70d16c150ff43115e58833848460026040516113de95949392919061222c565b60405180910390a150506114f2565b60066000878152602001908152602001600020600201858281518110611416576114156121b8565b5b60200260200101519080600181540180825580915050600190039060005260206000200160009091909190916101000a81548173ffffffffffffffffffffffffffffffffffffffff021916908373ffffffffffffffffffffffffffffffffffffffff16021790555060036005600088815260200190815260200160002060008784815181106114a8576114a76121b8565b5b602002602001015173ffffffffffffffffffffffffffffffffffffffff1673ffffffffffffffffffffffffffffffffffffffff168152602001908152602001600020600201819055505b5b80806114fe9061227f565b915050611103565b505050505050565b6040518060e00160405280600073ffffffffffffffffffffffffffffffffffffffff16815260200160608152602001606081526020016000815260200160008152602001600081526020016000151581525090565b8280548282559060005260206000209081019282156115dc579160200282015b828111156115db5782518260006101000a81548173ffffffffffffffffffffffffffffffffffffffff021916908373ffffffffffffffffffffffffffffffffffffffff16021790555091602001919060010190611583565b5b5090506115e991906115ed565b5090565b5b808211156116065760008160009055506001016115ee565b5090565b600073ffffffffffffffffffffffffffffffffffffffff82169050919050565b60006116358261160a565b9050919050565b6116458161162a565b82525050565b6000602082019050611660600083018461163c565b92915050565b6000604051905090565b600080fd5b600080fd5b6000819050919050565b61168d8161167a565b811461169857600080fd5b50565b6000813590506116aa81611684565b92915050565b6116b98161162a565b81146116c457600080fd5b50565b6000813590506116d6816116b0565b92915050565b600080600080608085870312156116f6576116f5611670565b5b60006117048782880161169b565b9450506020611715878288016116c7565b93505060406117268782880161169b565b92505060606117378782880161169b565b91505092959194509250565b61174c8161162a565b82525050565b600081519050919050565b600082825260208201905092915050565b6000819050602082019050919050565b600061178a8383611743565b60208301905092915050565b6000602082019050919050565b60006117ae82611752565b6117b8818561175d565b93506117c38361176e565b8060005b838110156117f45781516117db888261177e565b97506117e683611796565b9250506001810190506117c7565b5085935050505092915050565b61180a8161167a565b82525050565b60008115159050919050565b61182581611810565b82525050565b600060e0830160008301516118436000860182611743565b506020830151848203602086015261185b82826117a3565b9150506040830151848203604086015261187582826117a3565b915050606083015161188a6060860182611801565b50608083015161189d6080860182611801565b5060a08301516118b060a0860182611801565b5060c08301516118c360c086018261181c565b508091505092915050565b600060208201905081810360008301526118e8818461182b565b905092915050565b6118f981611810565b811461190457600080fd5b50565b600081359050611916816118f0565b92915050565b6000806040838503121561193357611932611670565b5b60006119418582860161169b565b925050602061195285828601611907565b9150509250929050565b60006020828403121561197257611971611670565b5b6000611980848285016116c7565b91505092915050565b60006020828403121561199f5761199e611670565b5b60006119ad8482850161169b565b91505092915050565b6000806000606084860312156119cf576119ce611670565b5b60006119dd8682870161169b565b93505060206119ee8682870161169b565b92505060406119ff8682870161169b565b9150509250925092565b600080fd5b6000601f19601f8301169050919050565b7f4e487b7100000000000000000000000000000000000000000000000000000000600052604160045260246000fd5b611a5782611a0e565b810181811067ffffffffffffffff82111715611a7657611a75611a1f565b5b80604052505050565b6000611a89611666565b9050611a958282611a4e565b919050565b600067ffffffffffffffff821115611ab557611ab4611a1f565b5b602082029050602081019050919050565b600080fd5b6000611ade611ad984611a9a565b611a7f565b90508083825260208201905060208402830185811115611b0157611b00611ac6565b5b835b81811015611b2a5780611b1688826116c7565b845260208401935050602081019050611b03565b5050509392505050565b600082601f830112611b4957611b48611a09565b5b8135611b59848260208601611acb565b91505092915050565b600080600060608486031215611b7b57611b7a611670565b5b6000611b898682870161169b565b935050602084013567ffffffffffffffff811115611baa57611ba9611675565b5b611bb686828701611b34565b9250506040611bc786828701611907565b9150509250925092565b600082825260208201905092915050565b7f566f74696e6720697320616c7265616479206372656174656400000000000000600082015250565b6000611c18601983611bd1565b9150611c2382611be2565b602082019050919050565b60006020820190508181036000830152611c4781611c0b565b9050919050565b7f596f7520617265206e6f7420617574686f72697a656420666f7220746869732060008201527f7265717565737400000000000000000000000000000000000000000000000000602082015250565b6000611caa602783611bd1565b9150611cb582611c4e565b604082019050919050565b60006020820190508181036000830152611cd981611c9d565b9050919050565b7f4e487b7100000000000000000000000000000000000000000000000000000000600052601160045260246000fd5b6000611d1a8261167a565b9150611d258361167a565b9250827fffffffffffffffffffffffffffffffffffffffffffffffffffffffffffffffff03821115611d5a57611d59611ce0565b5b828201905092915050565b611d6e8161167a565b82525050565b600060a082019050611d896000830188611d65565b611d96602083018761163c565b611da36040830186611d65565b611db06060830185611d65565b611dbd6080830184611d65565b9695505050505050565b7f4e6f2062616c6c6f74207769746820796f757220696420697320666f756e6400600082015250565b6000611dfd601f83611bd1565b9150611e0882611dc7565b602082019050919050565b60006020820190508181036000830152611e2c81611df0565b9050919050565b7f566f74696e672074696d65206973206f76657200000000000000000000000000600082015250565b6000611e69601383611bd1565b9150611e7482611e33565b602082019050919050565b60006020820190508181036000830152611e9881611e5c565b9050919050565b7f596f75206861766520616c726561647920766f74656400000000000000000000600082015250565b6000611ed5601683611bd1565b9150611ee082611e9f565b602082019050919050565b60006020820190508181036000830152611f0481611ec8565b9050919050565b7f596f752063616e6e6f7420766f74650000000000000000000000000000000000600082015250565b6000611f41600f83611bd1565b9150611f4c82611f0b565b602082019050919050565b60006020820190508181036000830152611f7081611f34565b9050919050565b611f8081611810565b82525050565b6000606082019050611f9b6000830186611d65565b611fa8602083018561163c565b611fb56040830184611f77565b949350505050565b7f596f7520617265206e6f7420617574686f72697a656420666f7220746869732060008201527f616374696f6e0000000000000000000000000000000000000000000000000000602082015250565b6000612019602683611bd1565b915061202482611fbd565b604082019050919050565b600060208201905081810360008301526120488161200c565b9050919050565b7f596f75206861766520616c726561647920766f746564206f7220676976656e2060008201527f6120636f756e746572206f666665720000000000000000000000000000000000602082015250565b60006120ab602f83611bd1565b91506120b68261204f565b604082019050919050565b600060208201905081810360008301526120da8161209e565b9050919050565b60006080820190506120f66000830187611d65565b612103602083018661163c565b6121106040830185611d65565b61211d6060830184611d65565b95945050505050565b7f596f752063616e6e6f74206465636964652077686963682070726f706f73616c60008201527f20746f2061636365707400000000000000000000000000000000000000000000602082015250565b6000612182602a83611bd1565b915061218d82612126565b604082019050919050565b600060208201905081810360008301526121b181612175565b9050919050565b7f4e487b7100000000000000000000000000000000000000000000000000000000600052603260045260246000fd5b6000819050919050565b6000819050919050565b600061221661221161220c846121e7565b6121f1565b61167a565b9050919050565b612226816121fb565b82525050565b600060a0820190506122416000830188611d65565b61224e602083018761163c565b61225b6040830186611d65565b6122686060830185611d65565b612275608083018461221d565b9695505050505050565b600061228a8261167a565b91507fffffffffffffffffffffffffffffffffffffffffffffffffffffffffffffffff8214156122bd576122bc611ce0565b5b60018201905091905056fea26469706673582212205e4c15677d662b59a901112ca8696ba616124158be92943f68f449621db4553d64736f6c634300080c0033",
  "immutableReferences": {},
  "source": "// SPDX-License-Identifier: MIT\npragma solidity ^0.8.0;\n\ncontract VotingContract {\n    uint256 VOTING_INTERVAL = 25;\n    address public CONTRIBUTION_CONTRACT_ADDRESS;\n    address OWNER;\n\n    /**\n        @dev this event will be genrated when a new contribution is created and it needs to go through the voting cycle\n        @param contributionId This is the id of the contribution that is linked to this ballot \n        @param owner This is the address of the owner of this ballot or the creator of the contribution\n        @param governanceReward This is the reward amount requested by the contributor\n        @param communityReward This is the reward amount requested by the contributor\n        @param votingEndBlock This is the block at which the voting ends \n     */\n    event createContributionBallot(\n        uint256 contributionId,\n        address owner,\n        uint256 governanceReward,\n        uint256 communityReward,\n        uint256 votingEndBlock\n    );\n\n    /**\n        @dev this is event which is created when a user votes for a contribution\n        @param contributionId This is the id of the contribution that is linked to this ballot \n        @param voterId This is the id of the voter who's vote it is\n        @param vote This is the state of the vote, wether it was positive or negative\n     */\n    event voteForContribution(\n        uint256 contributionId,\n        address voterId,\n        bool vote\n    );\n\n    /**\n        @dev this is event which is created when a user proposes counter offer\n        @param contributionId This is the id of the contribution that is linked to this ballot \n        @param voterId This is the id of the voter who's vote it is\n        @param newGovernanceReward This is the new reward amount counter offered by the voter\n        @param newCommunityReward This is the new reward amount counter offered by the voter\n     */\n    event counterOfferForContribution(\n        uint256 contributionId,\n        address voterId,\n        uint256 newGovernanceReward,\n        uint256 newCommunityReward\n    );\n\n    /**\n        @dev this is event which is created when the owner of the ballot takes action on a specific counter offer\n        @param contributionId This is the id of the contribution that is linked to this ballot \n        @param voterId This is the id of the voter who's vote it is\n        @param newGovernanceReward This is the new reward amount counter offered by the voter\n        @param newCommunityReward This is the new reward amount counter offered by the voter\n        @param status This is the status of the counter offer that is => either ACCEPTED = 2 | REJECTED = 3\n     */\n    event counterOfferAction(\n        uint256 contributionId,\n        address voterId,\n        uint256 newGovernanceReward,\n        uint256 newCommunityReward,\n        uint256 status\n    ); // status will be => either ACCEPTED = 2 | REJECTED = 3\n\n    // Voting structure containing yes and no addresses with reward amount\n    struct Ballot {\n        address owner;\n        address[] yes;\n        address[] no;\n        uint256 communityReward;\n        uint256 governanceReward;\n        uint256 votingEndBlock;\n        bool isPresent;\n    }\n\n    //CounterOffer also known as negotitaion\n    struct CounterOffer {\n        uint256 newCommunityReward;\n        uint256 newGovernanceReward;\n        uint256 status; //either ACCEPTED = 2 | PENDING = 1 | REJECTED = 3\n    }\n\n    mapping(uint256 => mapping(address => bool)) alreadyVotedContribution; // this one to check if the voting is already done or not.\n    mapping(uint256 => address[]) contributionCounterOfferList; //This contains all the keys of the mapping of the counterOfferMapping.\n    mapping(uint256 => mapping(address => CounterOffer)) contributionCounterOfferMap; //This contains all the counter offers for a voting.\n    mapping(uint256 => Ballot) contributionVoting;\n\n    mapping(uint256 => mapping(address => bool)) alreadyVotedPublisher; // this one to check if the voting is already done or not.\n    mapping(uint256 => Ballot) publisherVoting;\n\n    constructor() {\n        OWNER = msg.sender;\n    }\n\n    /**\n     * @dev Modifier to check that the person who accesses a specific function is the owner himself.\n     */\n    modifier ownerOnly() {\n        require(msg.sender == OWNER, \"You are not authorized for this action\");\n        _;\n    }\n\n    /**\n     * @dev Sets the contribution contract address so that the voting ballot for contritbution can be restricted only to a certain contract that is the contribution contract\n     */\n    function setContributionContractAddress(\n        address newContributionContractAddress\n    ) public ownerOnly {\n        CONTRIBUTION_CONTRACT_ADDRESS = newContributionContractAddress;\n    }\n\n    /**\n     * @dev This function will create a new contribution voting ballot\n     */\n    function createContributionVotingBallot(\n        uint256 contributionId,\n        address contributionCreator,\n        uint256 govReward,\n        uint256 commReward\n    ) public returns (Ballot memory ballot) {\n        require(\n            contributionVoting[contributionId].isPresent == false,\n            \"Voting is already created\"\n        );\n\n        require(\n            CONTRIBUTION_CONTRACT_ADDRESS == msg.sender,\n            \"You are not authorized for this request\"\n        );\n\n        Ballot memory ballot = Ballot({\n            yes: new address[](0),\n            no: new address[](0),\n            owner: contributionCreator,\n            governanceReward: govReward,\n            communityReward: commReward,\n            votingEndBlock: block.number + VOTING_INTERVAL,\n            isPresent: true\n        });\n\n        contributionVoting[contributionId] = ballot;\n        emit createContributionBallot(\n            contributionId,\n            ballot.owner,\n            ballot.governanceReward,\n            ballot.communityReward,\n            ballot.votingEndBlock\n        );\n        return ballot;\n    }\n\n    /**\n     * @dev This modifier checks if a ballot is open for voting or has the time expired\n     */\n    modifier checkIfBallotIsOpen(uint256 contributionId) {\n        require(\n            contributionVoting[contributionId].isPresent == true,\n            \"No ballot with your id is found\"\n        );\n\n        require(\n            contributionVoting[contributionId].votingEndBlock > block.number,\n            \"Voting time is over\"\n        );\n\n        require(\n            alreadyVotedContribution[contributionId][msg.sender] == false,\n            \"You have already voted\"\n        );\n        _;\n    }\n\n    /**\n     * @dev This modifier will check that the caller can be anybody apart from the owner of the ballot.\n     */\n    modifier checkIfNotOwnerOfBallot(uint256 contributionId) {\n        require(\n            contributionVoting[contributionId].owner != msg.sender,\n            \"You cannot vote\"\n        );\n        _;\n    }\n\n    /**\n     * @dev This modifier will check that the caller can only be owner of the ballot.\n     */\n    modifier onlyOwnerOfBallot(uint256 contributionId) {\n        require(\n            contributionVoting[contributionId].owner == msg.sender,\n            \"You cannot decide which proposal to accept\"\n        );\n        _;\n    }\n\n    /**\n     * @dev This function is called by any user to cast vote\n     * @param contributionId this is the id of the contribution for which user is voting\n     * @param vote this is the state of the vote, if true than it means the vote is in favour of the ballot\n     */\n    function castVoteForContribution(uint256 contributionId, bool vote)\n        public\n        checkIfBallotIsOpen(contributionId)\n        checkIfNotOwnerOfBallot(contributionId)\n    {\n        if (vote) {\n            contributionVoting[contributionId].yes.push(msg.sender);\n        } else {\n            contributionVoting[contributionId].no.push(msg.sender);\n        }\n\n        alreadyVotedContribution[contributionId][msg.sender] = true;\n\n        emit voteForContribution(contributionId, msg.sender, vote);\n    }\n\n    /**\n     * @dev This function is called by any user to cast vote\n     * @param contributionId this is the id of the contribution for which user is creating a counter offer\n     * @param newCommunityReward new comunity token amount as reward for the negotition\n     * @param newGovernanceReward new governance token amount as reward for the negotition\n     */\n    function proposeCounterOffer(\n        uint256 contributionId,\n        uint256 newCommunityReward,\n        uint256 newGovernanceReward\n    )\n        public\n        checkIfBallotIsOpen(contributionId)\n        checkIfNotOwnerOfBallot(contributionId)\n    {\n        //Check if counter offer exists or not\n        require(\n            alreadyVotedContribution[contributionId][msg.sender] == false,\n            \"You have already voted or given a counter offer\"\n        );\n\n        //Create counter offer object and push it into array\n        CounterOffer memory offer = CounterOffer({\n            newCommunityReward: newCommunityReward,\n            newGovernanceReward: newGovernanceReward,\n            status: 1\n        });\n\n        contributionCounterOfferList[contributionId].push(msg.sender);\n        contributionCounterOfferMap[contributionId][msg.sender] = offer;\n        alreadyVotedContribution[contributionId][msg.sender];\n\n        emit counterOfferForContribution(\n            contributionId,\n            msg.sender,\n            offer.newGovernanceReward,\n            offer.newCommunityReward\n        );\n    }\n\n    /**\n     * @dev This function is called by owner of the contribution to either accept or reject a counter offer\n     * @param contributionId this is the id of the contribution to which the counter offer belogs to\n     * @param counterOfferIds The id of counter offers in array to accept or reject multiple counter offers at once\n     * @param action this is the state of the vote, if true than it means that user accepts the counter offfer\n     */\n    function actionOnCounterOffer(\n        uint256 contributionId,\n        address[] memory counterOfferIds,\n        bool action\n    )\n        public\n        checkIfBallotIsOpen(contributionId)\n        onlyOwnerOfBallot(contributionId)\n    {\n        //only vote once check\n        for (uint256 i = 0; i < counterOfferIds.length; i++) {\n            if (\n                contributionCounterOfferMap[contributionId][counterOfferIds[i]]\n                    .status == 1\n            ) {\n                if (action) {\n                    uint256 newGovernanceReward = contributionCounterOfferMap[\n                        contributionId\n                    ][counterOfferIds[i]].newGovernanceReward;\n                    uint256 newCommunityReward = contributionCounterOfferMap[\n                        contributionId\n                    ][counterOfferIds[i]].newCommunityReward;\n\n                    //Set new reward for the contribution\n                    contributionVoting[contributionId]\n                        .communityReward = newCommunityReward;\n                    contributionVoting[contributionId]\n                        .governanceReward = newGovernanceReward;\n\n                    contributionVoting[contributionId].yes.push(\n                        counterOfferIds[i]\n                    ); //The counter offer ids are the addresses of the user who proposed the offer\n                    contributionCounterOfferMap[contributionId][\n                        counterOfferIds[i]\n                    ].status = 2;\n                    emit counterOfferAction(\n                        contributionId,\n                        msg.sender,\n                        newGovernanceReward,\n                        newCommunityReward,\n                        2\n                    );\n                } else {\n                    contributionVoting[contributionId].no.push(\n                        counterOfferIds[i]\n                    );\n                    //The counter offer ids are the addresses of the user who proposed the offer\n                    contributionCounterOfferMap[contributionId][\n                        counterOfferIds[i]\n                    ].status = 3;\n                }\n            }\n        }\n    }\n\n    function contributionBallotResult(uint256 contributionId)\n        public\n        checkIfBallotIsOpen(contributionId)\n    {\n        //Ballot result => when calculating balance create a function in recordContract that wil return balance of multiple address\n        //get the votes from voting map\n        //get the weightage of all the votes\n        //if yes is more\n        //initiate transfer of funds\n        //set contribution as accepted\n        //if no is more\n        //set contribution as rejected\n    }\n}\n",
  "sourcePath": "/Users/a1/Desktop/Office/projects/CrowdRecords/Contracts/contracts/VotingContract.sol",
  "compiler": {
    "name": "solc",
    "version": "0.8.12+commit.f00d7308.Emscripten.clang"
  },
  "schemaVersion": "3.4.6",
  "updatedAt": "2022-06-23T08:30:38.309Z",
  "devdoc": {
    "events": {
      "counterOfferAction(uint256,address,uint256,uint256,uint256)": {
        "details": "this is event which is created when the owner of the ballot takes action on a specific counter offer",
        "params": {
          "contributionId": "This is the id of the contribution that is linked to this ballot ",
          "newCommunityReward": "This is the new reward amount counter offered by the voter",
          "newGovernanceReward": "This is the new reward amount counter offered by the voter",
          "status": "This is the status of the counter offer that is => either ACCEPTED = 2 | REJECTED = 3",
          "voterId": "This is the id of the voter who's vote it is"
        }
      },
      "counterOfferForContribution(uint256,address,uint256,uint256)": {
        "details": "this is event which is created when a user proposes counter offer",
        "params": {
          "contributionId": "This is the id of the contribution that is linked to this ballot ",
          "newCommunityReward": "This is the new reward amount counter offered by the voter",
          "newGovernanceReward": "This is the new reward amount counter offered by the voter",
          "voterId": "This is the id of the voter who's vote it is"
        }
      },
      "createContributionBallot(uint256,address,uint256,uint256,uint256)": {
        "details": "this event will be genrated when a new contribution is created and it needs to go through the voting cycle",
        "params": {
          "communityReward": "This is the reward amount requested by the contributor",
          "contributionId": "This is the id of the contribution that is linked to this ballot ",
          "governanceReward": "This is the reward amount requested by the contributor",
          "owner": "This is the address of the owner of this ballot or the creator of the contribution",
          "votingEndBlock": "This is the block at which the voting ends "
        }
      },
      "voteForContribution(uint256,address,bool)": {
        "details": "this is event which is created when a user votes for a contribution",
        "params": {
          "contributionId": "This is the id of the contribution that is linked to this ballot ",
          "vote": "This is the state of the vote, wether it was positive or negative",
          "voterId": "This is the id of the voter who's vote it is"
        }
      }
    },
    "kind": "dev",
    "methods": {
      "actionOnCounterOffer(uint256,address[],bool)": {
        "details": "This function is called by owner of the contribution to either accept or reject a counter offer",
        "params": {
          "action": "this is the state of the vote, if true than it means that user accepts the counter offfer",
          "contributionId": "this is the id of the contribution to which the counter offer belogs to",
          "counterOfferIds": "The id of counter offers in array to accept or reject multiple counter offers at once"
        }
      },
      "castVoteForContribution(uint256,bool)": {
        "details": "This function is called by any user to cast vote",
        "params": {
          "contributionId": "this is the id of the contribution for which user is voting",
          "vote": "this is the state of the vote, if true than it means the vote is in favour of the ballot"
        }
      },
      "createContributionVotingBallot(uint256,address,uint256,uint256)": {
        "details": "This function will create a new contribution voting ballot"
      },
      "proposeCounterOffer(uint256,uint256,uint256)": {
        "details": "This function is called by any user to cast vote",
        "params": {
          "contributionId": "this is the id of the contribution for which user is creating a counter offer",
          "newCommunityReward": "new comunity token amount as reward for the negotition",
          "newGovernanceReward": "new governance token amount as reward for the negotition"
        }
      },
      "setContributionContractAddress(address)": {
        "details": "Sets the contribution contract address so that the voting ballot for contritbution can be restricted only to a certain contract that is the contribution contract"
      }
    },
    "version": 1
  },
  "userdoc": {
    "kind": "user",
    "methods": {},
    "version": 1
  }
}