{
  "contractName": "ContributionContract",
  "abi": [
    {
      "inputs": [
        {
          "internalType": "string",
          "name": "baseURI_",
          "type": "string"
        }
      ],
      "stateMutability": "nonpayable",
      "type": "constructor"
    },
    {
      "anonymous": false,
      "inputs": [
        {
          "indexed": true,
          "internalType": "address",
          "name": "owner",
          "type": "address"
        },
        {
          "indexed": true,
          "internalType": "address",
          "name": "approved",
          "type": "address"
        },
        {
          "indexed": true,
          "internalType": "uint256",
          "name": "tokenId",
          "type": "uint256"
        }
      ],
      "name": "Approval",
      "type": "event"
    },
    {
      "anonymous": false,
      "inputs": [
        {
          "indexed": true,
          "internalType": "address",
          "name": "owner",
          "type": "address"
        },
        {
          "indexed": true,
          "internalType": "address",
          "name": "operator",
          "type": "address"
        },
        {
          "indexed": false,
          "internalType": "bool",
          "name": "approved",
          "type": "bool"
        }
      ],
      "name": "ApprovalForAll",
      "type": "event"
    },
    {
      "anonymous": false,
      "inputs": [
        {
          "indexed": false,
          "internalType": "uint256",
          "name": "contributionId",
          "type": "uint256"
        },
        {
          "indexed": false,
          "internalType": "uint256[]",
          "name": "tracks",
          "type": "uint256[]"
        },
        {
          "indexed": false,
          "internalType": "uint256",
          "name": "createdAt",
          "type": "uint256"
        },
        {
          "indexed": false,
          "internalType": "string",
          "name": "previewFile",
          "type": "string"
        },
        {
          "indexed": false,
          "internalType": "string",
          "name": "previewFileHash",
          "type": "string"
        },
        {
          "indexed": false,
          "internalType": "uint256",
          "name": "recordId",
          "type": "uint256"
        },
        {
          "indexed": false,
          "internalType": "bool",
          "name": "seedContribution",
          "type": "bool"
        },
        {
          "indexed": false,
          "internalType": "bool",
          "name": "roughMix",
          "type": "bool"
        },
        {
          "indexed": false,
          "internalType": "uint256",
          "name": "status",
          "type": "uint256"
        },
        {
          "indexed": false,
          "internalType": "string",
          "name": "description",
          "type": "string"
        }
      ],
      "name": "ContributionCreate",
      "type": "event"
    },
    {
      "anonymous": false,
      "inputs": [
        {
          "indexed": true,
          "internalType": "address",
          "name": "from",
          "type": "address"
        },
        {
          "indexed": true,
          "internalType": "address",
          "name": "to",
          "type": "address"
        },
        {
          "indexed": true,
          "internalType": "uint256",
          "name": "tokenId",
          "type": "uint256"
        }
      ],
      "name": "Transfer",
      "type": "event"
    },
    {
      "inputs": [],
      "name": "VOTING_CONTRACT_ADDRESS",
      "outputs": [
        {
          "internalType": "address",
          "name": "",
          "type": "address"
        }
      ],
      "stateMutability": "view",
      "type": "function",
      "constant": true
    },
    {
      "inputs": [
        {
          "internalType": "address",
          "name": "to",
          "type": "address"
        },
        {
          "internalType": "uint256",
          "name": "tokenId",
          "type": "uint256"
        }
      ],
      "name": "approve",
      "outputs": [],
      "stateMutability": "nonpayable",
      "type": "function"
    },
    {
      "inputs": [
        {
          "internalType": "address",
          "name": "owner",
          "type": "address"
        }
      ],
      "name": "balanceOf",
      "outputs": [
        {
          "internalType": "uint256",
          "name": "",
          "type": "uint256"
        }
      ],
      "stateMutability": "view",
      "type": "function",
      "constant": true
    },
    {
      "inputs": [
        {
          "internalType": "uint256",
          "name": "tokenId",
          "type": "uint256"
        }
      ],
      "name": "getApproved",
      "outputs": [
        {
          "internalType": "address",
          "name": "",
          "type": "address"
        }
      ],
      "stateMutability": "view",
      "type": "function",
      "constant": true
    },
    {
      "inputs": [
        {
          "internalType": "address",
          "name": "owner",
          "type": "address"
        },
        {
          "internalType": "address",
          "name": "operator",
          "type": "address"
        }
      ],
      "name": "isApprovedForAll",
      "outputs": [
        {
          "internalType": "bool",
          "name": "",
          "type": "bool"
        }
      ],
      "stateMutability": "view",
      "type": "function",
      "constant": true
    },
    {
      "inputs": [],
      "name": "name",
      "outputs": [
        {
          "internalType": "string",
          "name": "",
          "type": "string"
        }
      ],
      "stateMutability": "view",
      "type": "function",
      "constant": true
    },
    {
      "inputs": [
        {
          "internalType": "uint256",
          "name": "tokenId",
          "type": "uint256"
        }
      ],
      "name": "ownerOf",
      "outputs": [
        {
          "internalType": "address",
          "name": "",
          "type": "address"
        }
      ],
      "stateMutability": "view",
      "type": "function",
      "constant": true
    },
    {
      "inputs": [
        {
          "internalType": "address",
          "name": "from",
          "type": "address"
        },
        {
          "internalType": "address",
          "name": "to",
          "type": "address"
        },
        {
          "internalType": "uint256",
          "name": "tokenId",
          "type": "uint256"
        }
      ],
      "name": "safeTransferFrom",
      "outputs": [],
      "stateMutability": "nonpayable",
      "type": "function"
    },
    {
      "inputs": [
        {
          "internalType": "address",
          "name": "from",
          "type": "address"
        },
        {
          "internalType": "address",
          "name": "to",
          "type": "address"
        },
        {
          "internalType": "uint256",
          "name": "tokenId",
          "type": "uint256"
        },
        {
          "internalType": "bytes",
          "name": "_data",
          "type": "bytes"
        }
      ],
      "name": "safeTransferFrom",
      "outputs": [],
      "stateMutability": "nonpayable",
      "type": "function"
    },
    {
      "inputs": [
        {
          "internalType": "address",
          "name": "operator",
          "type": "address"
        },
        {
          "internalType": "bool",
          "name": "approved",
          "type": "bool"
        }
      ],
      "name": "setApprovalForAll",
      "outputs": [],
      "stateMutability": "nonpayable",
      "type": "function"
    },
    {
      "inputs": [
        {
          "internalType": "bytes4",
          "name": "interfaceId",
          "type": "bytes4"
        }
      ],
      "name": "supportsInterface",
      "outputs": [
        {
          "internalType": "bool",
          "name": "",
          "type": "bool"
        }
      ],
      "stateMutability": "view",
      "type": "function",
      "constant": true
    },
    {
      "inputs": [],
      "name": "symbol",
      "outputs": [
        {
          "internalType": "string",
          "name": "",
          "type": "string"
        }
      ],
      "stateMutability": "view",
      "type": "function",
      "constant": true
    },
    {
      "inputs": [
        {
          "internalType": "uint256",
          "name": "tokenId",
          "type": "uint256"
        }
      ],
      "name": "tokenURI",
      "outputs": [
        {
          "internalType": "string",
          "name": "",
          "type": "string"
        }
      ],
      "stateMutability": "view",
      "type": "function",
      "constant": true
    },
    {
      "inputs": [
        {
          "internalType": "address",
          "name": "from",
          "type": "address"
        },
        {
          "internalType": "address",
          "name": "to",
          "type": "address"
        },
        {
          "internalType": "uint256",
          "name": "tokenId",
          "type": "uint256"
        }
      ],
      "name": "transferFrom",
      "outputs": [],
      "stateMutability": "nonpayable",
      "type": "function"
    },
    {
      "inputs": [
        {
          "internalType": "address",
          "name": "newVotingContractAddress",
          "type": "address"
        }
      ],
      "name": "setVotingContractAddress",
      "outputs": [],
      "stateMutability": "nonpayable",
      "type": "function"
    },
    {
      "inputs": [
        {
          "internalType": "uint256[]",
          "name": "tracks",
          "type": "uint256[]"
        },
        {
          "internalType": "string",
          "name": "previewFile",
          "type": "string"
        },
        {
          "internalType": "string",
          "name": "previewFileHash",
          "type": "string"
        },
        {
          "internalType": "uint256",
          "name": "recordId",
          "type": "uint256"
        },
        {
          "internalType": "bool",
          "name": "roughMix",
          "type": "bool"
        },
        {
          "internalType": "string",
          "name": "description",
          "type": "string"
        },
        {
          "internalType": "uint256",
          "name": "communityReward",
          "type": "uint256"
        },
        {
          "internalType": "uint256",
          "name": "governanceReward",
          "type": "uint256"
        }
      ],
      "name": "createNewContribution",
      "outputs": [
        {
          "internalType": "uint256",
          "name": "",
          "type": "uint256"
        }
      ],
      "stateMutability": "nonpayable",
      "type": "function"
    },
    {
      "inputs": [
        {
          "internalType": "uint256[]",
          "name": "tracks",
          "type": "uint256[]"
        },
        {
          "internalType": "string",
          "name": "previewFile",
          "type": "string"
        },
        {
          "internalType": "string",
          "name": "previewFileHash",
          "type": "string"
        },
        {
          "internalType": "string",
          "name": "description",
          "type": "string"
        }
      ],
      "name": "createSeedContribution",
      "outputs": [
        {
          "internalType": "uint256",
          "name": "",
          "type": "uint256"
        }
      ],
      "stateMutability": "nonpayable",
      "type": "function"
    }
  ],
  "bytecode": "0x60806040523480156200001157600080fd5b50604051620039f9380380620039f983398181016040528101906200003791906200036c565b6040518060400160405280600d81526020017f436f6e747269627574696f6e73000000000000000000000000000000000000008152506040518060400160405280600481526020017f43545242000000000000000000000000000000000000000000000000000000008152508160009080519060200190620000bb9291906200011f565b508060019080519060200190620000d49291906200011f565b50505033600760006101000a81548173ffffffffffffffffffffffffffffffffffffffff021916908373ffffffffffffffffffffffffffffffffffffffff1602179055505062000422565b8280546200012d90620003ec565b90600052602060002090601f0160209004810192826200015157600085556200019d565b82601f106200016c57805160ff19168380011785556200019d565b828001600101855582156200019d579182015b828111156200019c5782518255916020019190600101906200017f565b5b509050620001ac9190620001b0565b5090565b5b80821115620001cb576000816000905550600101620001b1565b5090565b6000604051905090565b600080fd5b600080fd5b600080fd5b600080fd5b6000601f19601f8301169050919050565b7f4e487b7100000000000000000000000000000000000000000000000000000000600052604160045260246000fd5b6200023882620001ed565b810181811067ffffffffffffffff821117156200025a5762000259620001fe565b5b80604052505050565b60006200026f620001cf565b90506200027d82826200022d565b919050565b600067ffffffffffffffff821115620002a0576200029f620001fe565b5b620002ab82620001ed565b9050602081019050919050565b60005b83811015620002d8578082015181840152602081019050620002bb565b83811115620002e8576000848401525b50505050565b600062000305620002ff8462000282565b62000263565b905082815260208101848484011115620003245762000323620001e8565b5b62000331848285620002b8565b509392505050565b600082601f830112620003515762000350620001e3565b5b815162000363848260208601620002ee565b91505092915050565b600060208284031215620003855762000384620001d9565b5b600082015167ffffffffffffffff811115620003a657620003a5620001de565b5b620003b48482850162000339565b91505092915050565b7f4e487b7100000000000000000000000000000000000000000000000000000000600052602260045260246000fd5b600060028204905060018216806200040557607f821691505b602082108114156200041c576200041b620003bd565b5b50919050565b6135c780620004326000396000f3fe608060405234801561001057600080fd5b506004361061010b5760003560e01c806365585fde116100a257806395d89b411161007157806395d89b41146102dc578063a22cb465146102fa578063b88d4fde14610316578063c87b56dd14610332578063e985e9c5146103625761010b565b806365585fde1461022e578063659d45eb1461025e57806370a082311461027c5780637ddba787146102ac5761010b565b806323b872dd116100de57806323b872dd146101aa57806342842e0e146101c657806362b08e70146101e25780636352211e146101fe5761010b565b806301ffc9a71461011057806306fdde0314610140578063081812fc1461015e578063095ea7b31461018e575b600080fd5b61012a60048036038101906101259190611d56565b610392565b6040516101379190611d9e565b60405180910390f35b610148610474565b6040516101559190611e52565b60405180910390f35b61017860048036038101906101739190611eaa565b610506565b6040516101859190611f18565b60405180910390f35b6101a860048036038101906101a39190611f5f565b61058b565b005b6101c460048036038101906101bf9190611f9f565b6106a3565b005b6101e060048036038101906101db9190611f9f565b610703565b005b6101fc60048036038101906101f79190611ff2565b610723565b005b61021860048036038101906102139190611eaa565b6107f7565b6040516102259190611f18565b60405180910390f35b61024860048036038101906102439190612248565b6108a9565b604051610255919061237d565b60405180910390f35b610266610b30565b6040516102739190611f18565b60405180910390f35b61029660048036038101906102919190611ff2565b610b56565b6040516102a3919061237d565b60405180910390f35b6102c660048036038101906102c19190612398565b610c0e565b6040516102d3919061237d565b60405180910390f35b6102e4610de5565b6040516102f19190611e52565b60405180910390f35b610314600480360381019061030f919061246f565b610e77565b005b610330600480360381019061032b9190612550565b610e8d565b005b61034c60048036038101906103479190611eaa565b610eef565b6040516103599190611e52565b60405180910390f35b61037c600480360381019061037791906125d3565b610f96565b6040516103899190611d9e565b60405180910390f35b60007f80ac58cd000000000000000000000000000000000000000000000000000000007bffffffffffffffffffffffffffffffffffffffffffffffffffffffff1916827bffffffffffffffffffffffffffffffffffffffffffffffffffffffff1916148061045d57507f5b5e139f000000000000000000000000000000000000000000000000000000007bffffffffffffffffffffffffffffffffffffffffffffffffffffffff1916827bffffffffffffffffffffffffffffffffffffffffffffffffffffffff1916145b8061046d575061046c8261102a565b5b9050919050565b60606000805461048390612642565b80601f01602080910402602001604051908101604052809291908181526020018280546104af90612642565b80156104fc5780601f106104d1576101008083540402835291602001916104fc565b820191906000526020600020905b8154815290600101906020018083116104df57829003601f168201915b5050505050905090565b600061051182611094565b610550576040517f08c379a0000000000000000000000000000000000000000000000000000000008152600401610547906126e6565b60405180910390fd5b6004600083815260200190815260200160002060009054906101000a900473ffffffffffffffffffffffffffffffffffffffff169050919050565b6000610596826107f7565b90508073ffffffffffffffffffffffffffffffffffffffff168373ffffffffffffffffffffffffffffffffffffffff161415610607576040517f08c379a00000000000000000000000000000000000000000000000000000000081526004016105fe90612778565b60405180910390fd5b8073ffffffffffffffffffffffffffffffffffffffff16610626611100565b73ffffffffffffffffffffffffffffffffffffffff16148061065557506106548161064f611100565b610f96565b5b610694576040517f08c379a000000000000000000000000000000000000000000000000000000000815260040161068b9061280a565b60405180910390fd5b61069e8383611108565b505050565b6106b46106ae611100565b826111c1565b6106f3576040517f08c379a00000000000000000000000000000000000000000000000000000000081526004016106ea9061289c565b60405180910390fd5b6106fe83838361129f565b505050565b61071e83838360405180602001604052806000815250610e8d565b505050565b600760009054906101000a900473ffffffffffffffffffffffffffffffffffffffff1673ffffffffffffffffffffffffffffffffffffffff163373ffffffffffffffffffffffffffffffffffffffff16146107b3576040517f08c379a00000000000000000000000000000000000000000000000000000000081526004016107aa9061292e565b60405180910390fd5b80600860006101000a81548173ffffffffffffffffffffffffffffffffffffffff021916908373ffffffffffffffffffffffffffffffffffffffff16021790555050565b6000806002600084815260200190815260200160002060009054906101000a900473ffffffffffffffffffffffffffffffffffffffff169050600073ffffffffffffffffffffffffffffffffffffffff168173ffffffffffffffffffffffffffffffffffffffff1614156108a0576040517f08c379a0000000000000000000000000000000000000000000000000000000008152600401610897906129c0565b60405180910390fd5b80915050919050565b60006108b56006611506565b60006108c1600661151c565b90506108cd338261152a565b6000600860009054906101000a900473ffffffffffffffffffffffffffffffffffffffff1690508073ffffffffffffffffffffffffffffffffffffffff1663186b754c833387896040518563ffffffff1660e01b815260040161093394939291906129e0565b6000604051808303816000875af1158015610952573d6000803e3d6000fd5b505050506040513d6000823e3d601f19601f8201168201806040525081019061097b9190612c1d565b5060006040518061012001604052808d81526020014281526020018c81526020018b81526020018a8152602001600015158152602001891515815260200160018152602001888152509050806009600085815260200190815260200160002060008201518160000190805190602001906109f6929190611bfa565b50602082015181600101556040820151816002019080519060200190610a1d929190611c47565b506060820151816003019080519060200190610a3a929190611c47565b506080820151816004015560a08201518160050160006101000a81548160ff02191690831515021790555060c08201518160050160016101000a81548160ff02191690831515021790555060e08201518160060155610100820151816007019080519060200190610aac929190611c47565b509050507f3cc51af550fd0e788afec620f4161242e495a240fd3dc1fb250465f5c9fc5a8783826000015183602001518460400151856060015186608001518760a001518860c001518960e001518a6101000151604051610b169a99989796959493929190612d24565b60405180910390a182935050505098975050505050505050565b600860009054906101000a900473ffffffffffffffffffffffffffffffffffffffff1681565b60008073ffffffffffffffffffffffffffffffffffffffff168273ffffffffffffffffffffffffffffffffffffffff161415610bc7576040517f08c379a0000000000000000000000000000000000000000000000000000000008152600401610bbe90612e4e565b60405180910390fd5b600360008373ffffffffffffffffffffffffffffffffffffffff1673ffffffffffffffffffffffffffffffffffffffff168152602001908152602001600020549050919050565b6000610c1a6006611506565b6000610c26600661151c565b9050610c32338261152a565b600080604051806101200160405280898152602001428152602001888152602001878152602001600081526020016001151581526020016000151581526020016002815260200186815250905080600960008581526020019081526020016000206000820151816000019080519060200190610caf929190611bfa565b50602082015181600101556040820151816002019080519060200190610cd6929190611c47565b506060820151816003019080519060200190610cf3929190611c47565b506080820151816004015560a08201518160050160006101000a81548160ff02191690831515021790555060c08201518160050160016101000a81548160ff02191690831515021790555060e08201518160060155610100820151816007019080519060200190610d65929190611c47565b509050507f3cc51af550fd0e788afec620f4161242e495a240fd3dc1fb250465f5c9fc5a8783826000015183602001518460400151856060015186608001518760a001518860c001518960e001518a6101000151604051610dcf9a99989796959493929190612d24565b60405180910390a1829350505050949350505050565b606060018054610df490612642565b80601f0160208091040260200160405190810160405280929190818152602001828054610e2090612642565b8015610e6d5780601f10610e4257610100808354040283529160200191610e6d565b820191906000526020600020905b815481529060010190602001808311610e5057829003601f168201915b5050505050905090565b610e89610e82611100565b8383611704565b5050565b610e9e610e98611100565b836111c1565b610edd576040517f08c379a0000000000000000000000000000000000000000000000000000000008152600401610ed49061289c565b60405180910390fd5b610ee984848484611871565b50505050565b6060610efa82611094565b610f39576040517f08c379a0000000000000000000000000000000000000000000000000000000008152600401610f3090612ee0565b60405180910390fd5b6000610f436118cd565b90506000815111610f635760405180602001604052806000815250610f8e565b80610f6d846118e4565b604051602001610f7e929190612f3c565b6040516020818303038152906040525b915050919050565b6000600560008473ffffffffffffffffffffffffffffffffffffffff1673ffffffffffffffffffffffffffffffffffffffff16815260200190815260200160002060008373ffffffffffffffffffffffffffffffffffffffff1673ffffffffffffffffffffffffffffffffffffffff16815260200190815260200160002060009054906101000a900460ff16905092915050565b60007f01ffc9a7000000000000000000000000000000000000000000000000000000007bffffffffffffffffffffffffffffffffffffffffffffffffffffffff1916827bffffffffffffffffffffffffffffffffffffffffffffffffffffffff1916149050919050565b60008073ffffffffffffffffffffffffffffffffffffffff166002600084815260200190815260200160002060009054906101000a900473ffffffffffffffffffffffffffffffffffffffff1673ffffffffffffffffffffffffffffffffffffffff1614159050919050565b600033905090565b816004600083815260200190815260200160002060006101000a81548173ffffffffffffffffffffffffffffffffffffffff021916908373ffffffffffffffffffffffffffffffffffffffff160217905550808273ffffffffffffffffffffffffffffffffffffffff1661117b836107f7565b73ffffffffffffffffffffffffffffffffffffffff167f8c5be1e5ebec7d5bd14f71427d1e84f3dd0314c0f7b2291e5b200ac8c7c3b92560405160405180910390a45050565b60006111cc82611094565b61120b576040517f08c379a000000000000000000000000000000000000000000000000000000000815260040161120290612fd2565b60405180910390fd5b6000611216836107f7565b90508073ffffffffffffffffffffffffffffffffffffffff168473ffffffffffffffffffffffffffffffffffffffff16148061128557508373ffffffffffffffffffffffffffffffffffffffff1661126d84610506565b73ffffffffffffffffffffffffffffffffffffffff16145b8061129657506112958185610f96565b5b91505092915050565b8273ffffffffffffffffffffffffffffffffffffffff166112bf826107f7565b73ffffffffffffffffffffffffffffffffffffffff1614611315576040517f08c379a000000000000000000000000000000000000000000000000000000000815260040161130c90613064565b60405180910390fd5b600073ffffffffffffffffffffffffffffffffffffffff168273ffffffffffffffffffffffffffffffffffffffff161415611385576040517f08c379a000000000000000000000000000000000000000000000000000000000815260040161137c906130f6565b60405180910390fd5b611390838383611a45565b61139b600082611108565b6001600360008573ffffffffffffffffffffffffffffffffffffffff1673ffffffffffffffffffffffffffffffffffffffff16815260200190815260200160002060008282546113eb9190613145565b925050819055506001600360008473ffffffffffffffffffffffffffffffffffffffff1673ffffffffffffffffffffffffffffffffffffffff16815260200190815260200160002060008282546114429190613179565b92505081905550816002600083815260200190815260200160002060006101000a81548173ffffffffffffffffffffffffffffffffffffffff021916908373ffffffffffffffffffffffffffffffffffffffff160217905550808273ffffffffffffffffffffffffffffffffffffffff168473ffffffffffffffffffffffffffffffffffffffff167fddf252ad1be2c89b69c2b068fc378daa952ba7f163c4a11628f55a4df523b3ef60405160405180910390a4611501838383611a4a565b505050565b6001816000016000828254019250508190555050565b600081600001549050919050565b600073ffffffffffffffffffffffffffffffffffffffff168273ffffffffffffffffffffffffffffffffffffffff16141561159a576040517f08c379a00000000000000000000000000000000000000000000000000000000081526004016115919061321b565b60405180910390fd5b6115a381611094565b156115e3576040517f08c379a00000000000000000000000000000000000000000000000000000000081526004016115da90613287565b60405180910390fd5b6115ef60008383611a45565b6001600360008473ffffffffffffffffffffffffffffffffffffffff1673ffffffffffffffffffffffffffffffffffffffff168152602001908152602001600020600082825461163f9190613179565b92505081905550816002600083815260200190815260200160002060006101000a81548173ffffffffffffffffffffffffffffffffffffffff021916908373ffffffffffffffffffffffffffffffffffffffff160217905550808273ffffffffffffffffffffffffffffffffffffffff16600073ffffffffffffffffffffffffffffffffffffffff167fddf252ad1be2c89b69c2b068fc378daa952ba7f163c4a11628f55a4df523b3ef60405160405180910390a461170060008383611a4a565b5050565b8173ffffffffffffffffffffffffffffffffffffffff168373ffffffffffffffffffffffffffffffffffffffff161415611773576040517f08c379a000000000000000000000000000000000000000000000000000000000815260040161176a906132f3565b60405180910390fd5b80600560008573ffffffffffffffffffffffffffffffffffffffff1673ffffffffffffffffffffffffffffffffffffffff16815260200190815260200160002060008473ffffffffffffffffffffffffffffffffffffffff1673ffffffffffffffffffffffffffffffffffffffff16815260200190815260200160002060006101000a81548160ff0219169083151502179055508173ffffffffffffffffffffffffffffffffffffffff168373ffffffffffffffffffffffffffffffffffffffff167f17307eab39ab6107e8899845ad3d59bd9653f200f220920489ca2b5937696c31836040516118649190611d9e565b60405180910390a3505050565b61187c84848461129f565b61188884848484611a4f565b6118c7576040517f08c379a00000000000000000000000000000000000000000000000000000000081526004016118be90613385565b60405180910390fd5b50505050565b606060405180602001604052806000815250905090565b6060600082141561192c576040518060400160405280600181526020017f30000000000000000000000000000000000000000000000000000000000000008152509050611a40565b600082905060005b6000821461195e578080611947906133a5565b915050600a82611957919061341d565b9150611934565b60008167ffffffffffffffff81111561197a57611979612024565b5b6040519080825280601f01601f1916602001820160405280156119ac5781602001600182028036833780820191505090505b5090505b60008514611a39576001826119c59190613145565b9150600a856119d4919061344e565b60306119e09190613179565b60f81b8183815181106119f6576119f561347f565b5b60200101907effffffffffffffffffffffffffffffffffffffffffffffffffffffffffffff1916908160001a905350600a85611a32919061341d565b94506119b0565b8093505050505b919050565b505050565b505050565b6000611a708473ffffffffffffffffffffffffffffffffffffffff16611bd7565b15611bca578373ffffffffffffffffffffffffffffffffffffffff1663150b7a02611a99611100565b8786866040518563ffffffff1660e01b8152600401611abb9493929190613503565b6020604051808303816000875af1925050508015611af757506040513d601f19601f82011682018060405250810190611af49190613564565b60015b611b7a573d8060008114611b27576040519150601f19603f3d011682016040523d82523d6000602084013e611b2c565b606091505b50600081511415611b72576040517f08c379a0000000000000000000000000000000000000000000000000000000008152600401611b6990613385565b60405180910390fd5b805181602001fd5b63150b7a0260e01b7bffffffffffffffffffffffffffffffffffffffffffffffffffffffff1916817bffffffffffffffffffffffffffffffffffffffffffffffffffffffff191614915050611bcf565b600190505b949350505050565b6000808273ffffffffffffffffffffffffffffffffffffffff163b119050919050565b828054828255906000526020600020908101928215611c36579160200282015b82811115611c35578251825591602001919060010190611c1a565b5b509050611c439190611ccd565b5090565b828054611c5390612642565b90600052602060002090601f016020900481019282611c755760008555611cbc565b82601f10611c8e57805160ff1916838001178555611cbc565b82800160010185558215611cbc579182015b82811115611cbb578251825591602001919060010190611ca0565b5b509050611cc99190611ccd565b5090565b5b80821115611ce6576000816000905550600101611cce565b5090565b6000604051905090565b600080fd5b600080fd5b60007fffffffff0000000000000000000000000000000000000000000000000000000082169050919050565b611d3381611cfe565b8114611d3e57600080fd5b50565b600081359050611d5081611d2a565b92915050565b600060208284031215611d6c57611d6b611cf4565b5b6000611d7a84828501611d41565b91505092915050565b60008115159050919050565b611d9881611d83565b82525050565b6000602082019050611db36000830184611d8f565b92915050565b600081519050919050565b600082825260208201905092915050565b60005b83811015611df3578082015181840152602081019050611dd8565b83811115611e02576000848401525b50505050565b6000601f19601f8301169050919050565b6000611e2482611db9565b611e2e8185611dc4565b9350611e3e818560208601611dd5565b611e4781611e08565b840191505092915050565b60006020820190508181036000830152611e6c8184611e19565b905092915050565b6000819050919050565b611e8781611e74565b8114611e9257600080fd5b50565b600081359050611ea481611e7e565b92915050565b600060208284031215611ec057611ebf611cf4565b5b6000611ece84828501611e95565b91505092915050565b600073ffffffffffffffffffffffffffffffffffffffff82169050919050565b6000611f0282611ed7565b9050919050565b611f1281611ef7565b82525050565b6000602082019050611f2d6000830184611f09565b92915050565b611f3c81611ef7565b8114611f4757600080fd5b50565b600081359050611f5981611f33565b92915050565b60008060408385031215611f7657611f75611cf4565b5b6000611f8485828601611f4a565b9250506020611f9585828601611e95565b9150509250929050565b600080600060608486031215611fb857611fb7611cf4565b5b6000611fc686828701611f4a565b9350506020611fd786828701611f4a565b9250506040611fe886828701611e95565b9150509250925092565b60006020828403121561200857612007611cf4565b5b600061201684828501611f4a565b91505092915050565b600080fd5b7f4e487b7100000000000000000000000000000000000000000000000000000000600052604160045260246000fd5b61205c82611e08565b810181811067ffffffffffffffff8211171561207b5761207a612024565b5b80604052505050565b600061208e611cea565b905061209a8282612053565b919050565b600067ffffffffffffffff8211156120ba576120b9612024565b5b602082029050602081019050919050565b600080fd5b60006120e36120de8461209f565b612084565b90508083825260208201905060208402830185811115612106576121056120cb565b5b835b8181101561212f578061211b8882611e95565b845260208401935050602081019050612108565b5050509392505050565b600082601f83011261214e5761214d61201f565b5b813561215e8482602086016120d0565b91505092915050565b600080fd5b600067ffffffffffffffff82111561218757612186612024565b5b61219082611e08565b9050602081019050919050565b82818337600083830152505050565b60006121bf6121ba8461216c565b612084565b9050828152602081018484840111156121db576121da612167565b5b6121e684828561219d565b509392505050565b600082601f8301126122035761220261201f565b5b81356122138482602086016121ac565b91505092915050565b61222581611d83565b811461223057600080fd5b50565b6000813590506122428161221c565b92915050565b600080600080600080600080610100898b03121561226957612268611cf4565b5b600089013567ffffffffffffffff81111561228757612286611cf9565b5b6122938b828c01612139565b985050602089013567ffffffffffffffff8111156122b4576122b3611cf9565b5b6122c08b828c016121ee565b975050604089013567ffffffffffffffff8111156122e1576122e0611cf9565b5b6122ed8b828c016121ee565b96505060606122fe8b828c01611e95565b955050608061230f8b828c01612233565b94505060a089013567ffffffffffffffff8111156123305761232f611cf9565b5b61233c8b828c016121ee565b93505060c061234d8b828c01611e95565b92505060e061235e8b828c01611e95565b9150509295985092959890939650565b61237781611e74565b82525050565b6000602082019050612392600083018461236e565b92915050565b600080600080608085870312156123b2576123b1611cf4565b5b600085013567ffffffffffffffff8111156123d0576123cf611cf9565b5b6123dc87828801612139565b945050602085013567ffffffffffffffff8111156123fd576123fc611cf9565b5b612409878288016121ee565b935050604085013567ffffffffffffffff81111561242a57612429611cf9565b5b612436878288016121ee565b925050606085013567ffffffffffffffff81111561245757612456611cf9565b5b612463878288016121ee565b91505092959194509250565b6000806040838503121561248657612485611cf4565b5b600061249485828601611f4a565b92505060206124a585828601612233565b9150509250929050565b600067ffffffffffffffff8211156124ca576124c9612024565b5b6124d382611e08565b9050602081019050919050565b60006124f36124ee846124af565b612084565b90508281526020810184848401111561250f5761250e612167565b5b61251a84828561219d565b509392505050565b600082601f8301126125375761253661201f565b5b81356125478482602086016124e0565b91505092915050565b6000806000806080858703121561256a57612569611cf4565b5b600061257887828801611f4a565b945050602061258987828801611f4a565b935050604061259a87828801611e95565b925050606085013567ffffffffffffffff8111156125bb576125ba611cf9565b5b6125c787828801612522565b91505092959194509250565b600080604083850312156125ea576125e9611cf4565b5b60006125f885828601611f4a565b925050602061260985828601611f4a565b9150509250929050565b7f4e487b7100000000000000000000000000000000000000000000000000000000600052602260045260246000fd5b6000600282049050600182168061265a57607f821691505b6020821081141561266e5761266d612613565b5b50919050565b7f4552433732313a20617070726f76656420717565727920666f72206e6f6e657860008201527f697374656e7420746f6b656e0000000000000000000000000000000000000000602082015250565b60006126d0602c83611dc4565b91506126db82612674565b604082019050919050565b600060208201905081810360008301526126ff816126c3565b9050919050565b7f4552433732313a20617070726f76616c20746f2063757272656e74206f776e6560008201527f7200000000000000000000000000000000000000000000000000000000000000602082015250565b6000612762602183611dc4565b915061276d82612706565b604082019050919050565b6000602082019050818103600083015261279181612755565b9050919050565b7f4552433732313a20617070726f76652063616c6c6572206973206e6f74206f7760008201527f6e6572206e6f7220617070726f76656420666f7220616c6c0000000000000000602082015250565b60006127f4603883611dc4565b91506127ff82612798565b604082019050919050565b60006020820190508181036000830152612823816127e7565b9050919050565b7f4552433732313a207472616e736665722063616c6c6572206973206e6f74206f60008201527f776e6572206e6f7220617070726f766564000000000000000000000000000000602082015250565b6000612886603183611dc4565b91506128918261282a565b604082019050919050565b600060208201905081810360008301526128b581612879565b9050919050565b7f596f7520617265206e6f7420617574686f72697a656420666f7220746869732060008201527f616374696f6e0000000000000000000000000000000000000000000000000000602082015250565b6000612918602683611dc4565b9150612923826128bc565b604082019050919050565b600060208201905081810360008301526129478161290b565b9050919050565b7f4552433732313a206f776e657220717565727920666f72206e6f6e657869737460008201527f656e7420746f6b656e0000000000000000000000000000000000000000000000602082015250565b60006129aa602983611dc4565b91506129b58261294e565b604082019050919050565b600060208201905081810360008301526129d98161299d565b9050919050565b60006080820190506129f5600083018761236e565b612a026020830186611f09565b612a0f604083018561236e565b612a1c606083018461236e565b95945050505050565b600080fd5b600080fd5b600081519050612a3e81611f33565b92915050565b600067ffffffffffffffff821115612a5f57612a5e612024565b5b602082029050602081019050919050565b6000612a83612a7e84612a44565b612084565b90508083825260208201905060208402830185811115612aa657612aa56120cb565b5b835b81811015612acf5780612abb8882612a2f565b845260208401935050602081019050612aa8565b5050509392505050565b600082601f830112612aee57612aed61201f565b5b8151612afe848260208601612a70565b91505092915050565b600081519050612b1681611e7e565b92915050565b600081519050612b2b8161221c565b92915050565b600060e08284031215612b4757612b46612a25565b5b612b5160e0612084565b90506000612b6184828501612a2f565b600083015250602082015167ffffffffffffffff811115612b8557612b84612a2a565b5b612b9184828501612ad9565b602083015250604082015167ffffffffffffffff811115612bb557612bb4612a2a565b5b612bc184828501612ad9565b6040830152506060612bd584828501612b07565b6060830152506080612be984828501612b07565b60808301525060a0612bfd84828501612b07565b60a08301525060c0612c1184828501612b1c565b60c08301525092915050565b600060208284031215612c3357612c32611cf4565b5b600082015167ffffffffffffffff811115612c5157612c50611cf9565b5b612c5d84828501612b31565b91505092915050565b600081519050919050565b600082825260208201905092915050565b6000819050602082019050919050565b612c9b81611e74565b82525050565b6000612cad8383612c92565b60208301905092915050565b6000602082019050919050565b6000612cd182612c66565b612cdb8185612c71565b9350612ce683612c82565b8060005b83811015612d17578151612cfe8882612ca1565b9750612d0983612cb9565b925050600181019050612cea565b5085935050505092915050565b600061014082019050612d3a600083018d61236e565b8181036020830152612d4c818c612cc6565b9050612d5b604083018b61236e565b8181036060830152612d6d818a611e19565b90508181036080830152612d818189611e19565b9050612d9060a083018861236e565b612d9d60c0830187611d8f565b612daa60e0830186611d8f565b612db861010083018561236e565b818103610120830152612dcb8184611e19565b90509b9a5050505050505050505050565b7f4552433732313a2062616c616e636520717565727920666f7220746865207a6560008201527f726f206164647265737300000000000000000000000000000000000000000000602082015250565b6000612e38602a83611dc4565b9150612e4382612ddc565b604082019050919050565b60006020820190508181036000830152612e6781612e2b565b9050919050565b7f4552433732314d657461646174613a2055524920717565727920666f72206e6f60008201527f6e6578697374656e7420746f6b656e0000000000000000000000000000000000602082015250565b6000612eca602f83611dc4565b9150612ed582612e6e565b604082019050919050565b60006020820190508181036000830152612ef981612ebd565b9050919050565b600081905092915050565b6000612f1682611db9565b612f208185612f00565b9350612f30818560208601611dd5565b80840191505092915050565b6000612f488285612f0b565b9150612f548284612f0b565b91508190509392505050565b7f4552433732313a206f70657261746f7220717565727920666f72206e6f6e657860008201527f697374656e7420746f6b656e0000000000000000000000000000000000000000602082015250565b6000612fbc602c83611dc4565b9150612fc782612f60565b604082019050919050565b60006020820190508181036000830152612feb81612faf565b9050919050565b7f4552433732313a207472616e736665722066726f6d20696e636f72726563742060008201527f6f776e6572000000000000000000000000000000000000000000000000000000602082015250565b600061304e602583611dc4565b915061305982612ff2565b604082019050919050565b6000602082019050818103600083015261307d81613041565b9050919050565b7f4552433732313a207472616e7366657220746f20746865207a65726f2061646460008201527f7265737300000000000000000000000000000000000000000000000000000000602082015250565b60006130e0602483611dc4565b91506130eb82613084565b604082019050919050565b6000602082019050818103600083015261310f816130d3565b9050919050565b7f4e487b7100000000000000000000000000000000000000000000000000000000600052601160045260246000fd5b600061315082611e74565b915061315b83611e74565b92508282101561316e5761316d613116565b5b828203905092915050565b600061318482611e74565b915061318f83611e74565b9250827fffffffffffffffffffffffffffffffffffffffffffffffffffffffffffffffff038211156131c4576131c3613116565b5b828201905092915050565b7f4552433732313a206d696e7420746f20746865207a65726f2061646472657373600082015250565b6000613205602083611dc4565b9150613210826131cf565b602082019050919050565b60006020820190508181036000830152613234816131f8565b9050919050565b7f4552433732313a20746f6b656e20616c7265616479206d696e74656400000000600082015250565b6000613271601c83611dc4565b915061327c8261323b565b602082019050919050565b600060208201905081810360008301526132a081613264565b9050919050565b7f4552433732313a20617070726f766520746f2063616c6c657200000000000000600082015250565b60006132dd601983611dc4565b91506132e8826132a7565b602082019050919050565b6000602082019050818103600083015261330c816132d0565b9050919050565b7f4552433732313a207472616e7366657220746f206e6f6e20455243373231526560008201527f63656976657220696d706c656d656e7465720000000000000000000000000000602082015250565b600061336f603283611dc4565b915061337a82613313565b604082019050919050565b6000602082019050818103600083015261339e81613362565b9050919050565b60006133b082611e74565b91507fffffffffffffffffffffffffffffffffffffffffffffffffffffffffffffffff8214156133e3576133e2613116565b5b600182019050919050565b7f4e487b7100000000000000000000000000000000000000000000000000000000600052601260045260246000fd5b600061342882611e74565b915061343383611e74565b925082613443576134426133ee565b5b828204905092915050565b600061345982611e74565b915061346483611e74565b925082613474576134736133ee565b5b828206905092915050565b7f4e487b7100000000000000000000000000000000000000000000000000000000600052603260045260246000fd5b600081519050919050565b600082825260208201905092915050565b60006134d5826134ae565b6134df81856134b9565b93506134ef818560208601611dd5565b6134f881611e08565b840191505092915050565b60006080820190506135186000830187611f09565b6135256020830186611f09565b613532604083018561236e565b818103606083015261354481846134ca565b905095945050505050565b60008151905061355e81611d2a565b92915050565b60006020828403121561357a57613579611cf4565b5b60006135888482850161354f565b9150509291505056fea26469706673582212208eb342c9713a8ef7797ef608282c13f94871ddee8eb18615a5d67f27f0cbcce464736f6c634300080c0033",
  "immutableReferences": {},
  "source": "pragma solidity ^0.8.0;\n\nimport \"@openzeppelin/contracts/token/ERC721/ERC721.sol\";\nimport \"@openzeppelin/contracts/utils/Counters.sol\";\nimport \"@openzeppelin/contracts/access/Ownable.sol\";\nimport \"./votingContract.sol\";\n\ncontract ContributionContract is ERC721 {\n    //----------------------Permanent Uri code---------------------//\n    /*  using Strings for uint256;\n\n    // Optional mapping for token URIs\n    mapping(uint256 => string) private _tokenURIs;\n\n    mapping(uint256 => bool) private _permanentURI;\n\n    // Base URI\n    string private _baseURIextended;\n\n    function _setContirbutionURI(uint256 tokenId, string memory _tokenURI)\n        internal\n        virtual\n    {\n        require(\n            _exists(tokenId),\n            \"ERC721Metadata: URI set of nonexistent token\"\n        );\n\n        require(\n            _permanentURI[tokenId] != true,\n            \"ERC721Metadata: Metadata is not editable now\"\n        );\n\n        _tokenURIs[tokenId] = _tokenURI;\n    }\n\n    function _lockContributionURI(uint256 tokenId) public virtual {\n        require(\n            _exists(tokenId),\n            \"ERC721Metadata: URI set of nonexistent token\"\n        );\n\n        require(\n            _permanentURI[tokenId] == false,\n            \"ERC721Metadata: Metadata is already set to not editable\"\n        );\n\n        _permanentURI[tokenId] = true;\n    }\n\n    function _baseURI() internal view virtual override returns (string memory) {\n        return _baseURIextended;\n    }\n\n    function _contributionURI(uint256 tokenId)\n        public\n        view\n        virtual\n        returns (string memory)\n    {\n        require(\n            _exists(tokenId),\n            \"ERC721Metadata: URI query for nonexistent token\"\n        );\n\n        string memory _tokenURI = _tokenURIs[tokenId];\n        string memory base = _baseURI();\n\n        // If there is no base URI, return the token URI.\n        if (bytes(base).length == 0) {\n            return _tokenURI;\n        }\n        // If both are set, concatenate the baseURI and tokenURI (via abi.encodePacked).\n        if (bytes(_tokenURI).length > 0) {\n            return string(abi.encodePacked(base, _tokenURI));\n        }\n        // If there is a baseURI but no tokenURI, concatenate the tokenID to the baseURI.\n        return string(abi.encodePacked(base, tokenId.toString()));\n    } */\n\n    //----------------------Contribution Related code---------------------//\n\n    using Counters for Counters.Counter;\n    Counters.Counter private _contributionIds;\n    address OWNER;\n    address public VOTING_CONTRACT_ADDRESS;\n\n    event ContributionCreate(\n        uint256 contributionId,\n        uint256[] tracks,\n        uint256 createdAt,\n        string previewFile,\n        string previewFileHash,\n        uint256 recordId,\n        bool seedContribution,\n        bool roughMix,\n        uint256 status,\n        string description\n    );\n\n    struct Contribution {\n        uint256[] tracks;\n        uint256 createdAt;\n        string previewFile;\n        string previewFileHash;\n        uint256 recordId;\n        bool seedContribution;\n        bool roughMix; // 1 if rough mix or else 0\n        uint256 status; // status (PENDING = 1 | ACCEPTED = 2| REJECTED = 3)\n        string description;\n    }\n\n    mapping(uint256 => Contribution) contributionData;\n\n    constructor(string memory baseURI_) ERC721(\"Contributions\", \"CTRB\") {\n        // _baseURIextended = baseURI_;\n        OWNER = msg.sender;\n    }\n\n    /**\n     * @dev Modifier to check that the person who accesses a specific function is the owner of contract himself.\n     */\n    modifier ownerOnly() {\n        require(msg.sender == OWNER, \"You are not authorized for this action\");\n        _;\n    }\n\n    /**\n     * @dev This function sets the Voting Contract address\n     */\n    function setVotingContractAddress(address newVotingContractAddress)\n        public\n        ownerOnly\n    {\n        VOTING_CONTRACT_ADDRESS = newVotingContractAddress;\n    }\n\n    /**\n     * @dev This function will be called by the user to create a new contribution\n     * @param tracks Id of tracks that are part of this contribution\n     * @param previewFile this is preview file of the contribution\n     * @param previewFileHash this is hash of the preview file\n     * @param recordId this is the id of the record to which contribution belongs to.\n     * @param roughMix this represents if a contribution is a roughMix or is a new contribution\n     * @param description this is the description of the new contriution that is created.\n     * @param communityReward this is the amount of community token that the contributor is requesting for his work contribution.\n     * @param governanceReward this is the amount of governance token that the contributor is requesting for his work contribution.\n     */\n    function createNewContribution(\n        // string memory uri,\n        uint256[] memory tracks,\n        string memory previewFile,\n        string memory previewFileHash,\n        uint256 recordId,\n        bool roughMix,\n        string memory description,\n        uint256 communityReward,\n        uint256 governanceReward\n    ) public returns (uint256) {\n        _contributionIds.increment();\n\n        uint256 contributionId = _contributionIds.current();\n        _mint(msg.sender, contributionId);\n\n        VotingContract votingContract = VotingContract(VOTING_CONTRACT_ADDRESS);\n        votingContract.createContributionVotingBallot(\n            contributionId,\n            msg.sender,\n            governanceReward,\n            communityReward\n        );\n\n        Contribution memory contribution = Contribution({\n            tracks: tracks,\n            createdAt: block.timestamp,\n            previewFile: previewFile,\n            previewFileHash: previewFileHash,\n            recordId: recordId,\n            roughMix: roughMix,\n            status: 1,\n            description: description,\n            seedContribution: false\n        });\n\n        contributionData[contributionId] = contribution;\n\n        emit ContributionCreate(\n            contributionId,\n            contribution.tracks,\n            contribution.createdAt,\n            contribution.previewFile,\n            contribution.previewFileHash,\n            contribution.recordId,\n            contribution.seedContribution,\n            contribution.roughMix,\n            contribution.status,\n            contribution.description\n        );\n\n        return contributionId;\n    }\n\n    /**\n     * @dev This function will be called by the user to create a new seed contribution as there will be not voting or anything like that\n     * @param tracks Id of tracks that are part of this contribution\n     * @param previewFile this is preview file of the contribution\n     * @param previewFileHash this is hash of the preview file\n     * @param description this is the description of the new contriution that is created.\n     */\n    function createSeedContribution(\n        // string memory uri,\n        uint256[] memory tracks,\n        string memory previewFile,\n        string memory previewFileHash,\n        string memory description\n    ) public returns (uint256) {\n        _contributionIds.increment();\n\n        uint256 contributionId = _contributionIds.current();\n        _mint(msg.sender, contributionId);\n\n        bool seedContribution;\n\n        Contribution memory contribution = Contribution({\n            tracks: tracks,\n            createdAt: block.timestamp,\n            previewFile: previewFile,\n            previewFileHash: previewFileHash,\n            recordId: 0,\n            roughMix: false,\n            status: 2,\n            description: description,\n            seedContribution: true\n        });\n\n        contributionData[contributionId] = contribution;\n\n        emit ContributionCreate(\n            contributionId,\n            contribution.tracks,\n            contribution.createdAt,\n            contribution.previewFile,\n            contribution.previewFileHash,\n            contribution.recordId,\n            contribution.seedContribution,\n            contribution.roughMix,\n            contribution.status,\n            contribution.description\n        );\n\n        return contributionId;\n    }\n}\n",
  "sourcePath": "/Users/a1/Desktop/Office/projects/CrowdRecords/Contracts/contracts/ContributionContract.sol",
  "compiler": {
    "name": "solc",
    "version": "0.8.12+commit.f00d7308.Emscripten.clang"
  },
  "schemaVersion": "3.4.6",
  "updatedAt": "2022-03-26T13:42:32.730Z",
  "networkType": "ethereum",
  "devdoc": {
    "kind": "dev",
    "methods": {
      "approve(address,uint256)": {
        "details": "See {IERC721-approve}."
      },
      "balanceOf(address)": {
        "details": "See {IERC721-balanceOf}."
      },
      "createNewContribution(uint256[],string,string,uint256,bool,string,uint256,uint256)": {
        "details": "This function will be called by the user to create a new contribution",
        "params": {
          "communityReward": "this is the amount of community token that the contributor is requesting for his work contribution.",
          "description": "this is the description of the new contriution that is created.",
          "governanceReward": "this is the amount of governance token that the contributor is requesting for his work contribution.",
          "previewFile": "this is preview file of the contribution",
          "previewFileHash": "this is hash of the preview file",
          "recordId": "this is the id of the record to which contribution belongs to.",
          "roughMix": "this represents if a contribution is a roughMix or is a new contribution",
          "tracks": "Id of tracks that are part of this contribution"
        }
      },
      "createSeedContribution(uint256[],string,string,string)": {
        "details": "This function will be called by the user to create a new seed contribution as there will be not voting or anything like that",
        "params": {
          "description": "this is the description of the new contriution that is created.",
          "previewFile": "this is preview file of the contribution",
          "previewFileHash": "this is hash of the preview file",
          "tracks": "Id of tracks that are part of this contribution"
        }
      },
      "getApproved(uint256)": {
        "details": "See {IERC721-getApproved}."
      },
      "isApprovedForAll(address,address)": {
        "details": "See {IERC721-isApprovedForAll}."
      },
      "name()": {
        "details": "See {IERC721Metadata-name}."
      },
      "ownerOf(uint256)": {
        "details": "See {IERC721-ownerOf}."
      },
      "safeTransferFrom(address,address,uint256)": {
        "details": "See {IERC721-safeTransferFrom}."
      },
      "safeTransferFrom(address,address,uint256,bytes)": {
        "details": "See {IERC721-safeTransferFrom}."
      },
      "setApprovalForAll(address,bool)": {
        "details": "See {IERC721-setApprovalForAll}."
      },
      "setVotingContractAddress(address)": {
        "details": "This function sets the Voting Contract address"
      },
      "supportsInterface(bytes4)": {
        "details": "See {IERC165-supportsInterface}."
      },
      "symbol()": {
        "details": "See {IERC721Metadata-symbol}."
      },
      "tokenURI(uint256)": {
        "details": "See {IERC721Metadata-tokenURI}."
      },
      "transferFrom(address,address,uint256)": {
        "details": "See {IERC721-transferFrom}."
      }
    },
    "version": 1
  },
  "userdoc": {
    "kind": "user",
    "methods": {},
    "version": 1
  }
}