{
  "contractName": "RecordsContract",
  "abi": [
    {
      "inputs": [],
      "stateMutability": "nonpayable",
      "type": "constructor"
    },
    {
      "anonymous": false,
      "inputs": [
        {
          "indexed": true,
          "internalType": "address",
          "name": "account",
          "type": "address"
        },
        {
          "indexed": true,
          "internalType": "address",
          "name": "operator",
          "type": "address"
        },
        {
          "indexed": false,
          "internalType": "bool",
          "name": "approved",
          "type": "bool"
        }
      ],
      "name": "ApprovalForAll",
      "type": "event"
    },
    {
      "anonymous": false,
      "inputs": [
        {
          "indexed": false,
          "internalType": "string",
          "name": "name",
          "type": "string"
        },
        {
          "indexed": false,
          "internalType": "string",
          "name": "symbol",
          "type": "string"
        },
        {
          "indexed": false,
          "internalType": "string",
          "name": "image",
          "type": "string"
        },
        {
          "indexed": false,
          "internalType": "uint256",
          "name": "seedId",
          "type": "uint256"
        },
        {
          "indexed": false,
          "internalType": "uint256",
          "name": "parentId",
          "type": "uint256"
        },
        {
          "indexed": false,
          "internalType": "string",
          "name": "recordCategory",
          "type": "string"
        },
        {
          "indexed": false,
          "internalType": "uint256",
          "name": "creationDate",
          "type": "uint256"
        }
      ],
      "name": "RecordCreated",
      "type": "event"
    },
    {
      "anonymous": false,
      "inputs": [
        {
          "indexed": true,
          "internalType": "address",
          "name": "operator",
          "type": "address"
        },
        {
          "indexed": true,
          "internalType": "address",
          "name": "from",
          "type": "address"
        },
        {
          "indexed": true,
          "internalType": "address",
          "name": "to",
          "type": "address"
        },
        {
          "indexed": false,
          "internalType": "uint256[]",
          "name": "ids",
          "type": "uint256[]"
        },
        {
          "indexed": false,
          "internalType": "uint256[]",
          "name": "values",
          "type": "uint256[]"
        }
      ],
      "name": "TransferBatch",
      "type": "event"
    },
    {
      "anonymous": false,
      "inputs": [
        {
          "indexed": true,
          "internalType": "address",
          "name": "operator",
          "type": "address"
        },
        {
          "indexed": true,
          "internalType": "address",
          "name": "from",
          "type": "address"
        },
        {
          "indexed": true,
          "internalType": "address",
          "name": "to",
          "type": "address"
        },
        {
          "indexed": false,
          "internalType": "uint256",
          "name": "id",
          "type": "uint256"
        },
        {
          "indexed": false,
          "internalType": "uint256",
          "name": "value",
          "type": "uint256"
        }
      ],
      "name": "TransferSingle",
      "type": "event"
    },
    {
      "anonymous": false,
      "inputs": [
        {
          "indexed": false,
          "internalType": "string",
          "name": "value",
          "type": "string"
        },
        {
          "indexed": true,
          "internalType": "uint256",
          "name": "id",
          "type": "uint256"
        }
      ],
      "name": "URI",
      "type": "event"
    },
    {
      "inputs": [
        {
          "internalType": "address",
          "name": "account",
          "type": "address"
        },
        {
          "internalType": "uint256",
          "name": "id",
          "type": "uint256"
        }
      ],
      "name": "balanceOf",
      "outputs": [
        {
          "internalType": "uint256",
          "name": "",
          "type": "uint256"
        }
      ],
      "stateMutability": "view",
      "type": "function",
      "constant": true
    },
    {
      "inputs": [
        {
          "internalType": "address[]",
          "name": "accounts",
          "type": "address[]"
        },
        {
          "internalType": "uint256[]",
          "name": "ids",
          "type": "uint256[]"
        }
      ],
      "name": "balanceOfBatch",
      "outputs": [
        {
          "internalType": "uint256[]",
          "name": "",
          "type": "uint256[]"
        }
      ],
      "stateMutability": "view",
      "type": "function",
      "constant": true
    },
    {
      "inputs": [
        {
          "internalType": "uint256",
          "name": "id",
          "type": "uint256"
        }
      ],
      "name": "exists",
      "outputs": [
        {
          "internalType": "bool",
          "name": "",
          "type": "bool"
        }
      ],
      "stateMutability": "view",
      "type": "function",
      "constant": true
    },
    {
      "inputs": [
        {
          "internalType": "address",
          "name": "account",
          "type": "address"
        },
        {
          "internalType": "address",
          "name": "operator",
          "type": "address"
        }
      ],
      "name": "isApprovedForAll",
      "outputs": [
        {
          "internalType": "bool",
          "name": "",
          "type": "bool"
        }
      ],
      "stateMutability": "view",
      "type": "function",
      "constant": true
    },
    {
      "inputs": [
        {
          "internalType": "address",
          "name": "from",
          "type": "address"
        },
        {
          "internalType": "address",
          "name": "to",
          "type": "address"
        },
        {
          "internalType": "uint256[]",
          "name": "ids",
          "type": "uint256[]"
        },
        {
          "internalType": "uint256[]",
          "name": "amounts",
          "type": "uint256[]"
        },
        {
          "internalType": "bytes",
          "name": "data",
          "type": "bytes"
        }
      ],
      "name": "safeBatchTransferFrom",
      "outputs": [],
      "stateMutability": "nonpayable",
      "type": "function"
    },
    {
      "inputs": [
        {
          "internalType": "address",
          "name": "from",
          "type": "address"
        },
        {
          "internalType": "address",
          "name": "to",
          "type": "address"
        },
        {
          "internalType": "uint256",
          "name": "id",
          "type": "uint256"
        },
        {
          "internalType": "uint256",
          "name": "amount",
          "type": "uint256"
        },
        {
          "internalType": "bytes",
          "name": "data",
          "type": "bytes"
        }
      ],
      "name": "safeTransferFrom",
      "outputs": [],
      "stateMutability": "nonpayable",
      "type": "function"
    },
    {
      "inputs": [
        {
          "internalType": "address",
          "name": "operator",
          "type": "address"
        },
        {
          "internalType": "bool",
          "name": "approved",
          "type": "bool"
        }
      ],
      "name": "setApprovalForAll",
      "outputs": [],
      "stateMutability": "nonpayable",
      "type": "function"
    },
    {
      "inputs": [
        {
          "internalType": "bytes4",
          "name": "interfaceId",
          "type": "bytes4"
        }
      ],
      "name": "supportsInterface",
      "outputs": [
        {
          "internalType": "bool",
          "name": "",
          "type": "bool"
        }
      ],
      "stateMutability": "view",
      "type": "function",
      "constant": true
    },
    {
      "inputs": [
        {
          "internalType": "uint256",
          "name": "id",
          "type": "uint256"
        }
      ],
      "name": "totalSupply",
      "outputs": [
        {
          "internalType": "uint256",
          "name": "",
          "type": "uint256"
        }
      ],
      "stateMutability": "view",
      "type": "function",
      "constant": true
    },
    {
      "inputs": [
        {
          "internalType": "uint256",
          "name": "",
          "type": "uint256"
        }
      ],
      "name": "uri",
      "outputs": [
        {
          "internalType": "string",
          "name": "",
          "type": "string"
        }
      ],
      "stateMutability": "view",
      "type": "function",
      "constant": true
    },
    {
      "inputs": [
        {
          "internalType": "uint256",
          "name": "tokenId",
          "type": "uint256"
        },
        {
          "internalType": "uint256",
          "name": "amount",
          "type": "uint256"
        },
        {
          "internalType": "address",
          "name": "reciver",
          "type": "address"
        }
      ],
      "name": "sendTo",
      "outputs": [],
      "stateMutability": "nonpayable",
      "type": "function"
    },
    {
      "inputs": [
        {
          "internalType": "uint256",
          "name": "senderTokenId",
          "type": "uint256"
        },
        {
          "internalType": "uint256",
          "name": "sendingAmount",
          "type": "uint256"
        },
        {
          "internalType": "uint256",
          "name": "recivingTokenId",
          "type": "uint256"
        },
        {
          "internalType": "uint256",
          "name": "recivingAmount",
          "type": "uint256"
        },
        {
          "internalType": "address",
          "name": "reciver",
          "type": "address"
        }
      ],
      "name": "exchangeTokens",
      "outputs": [],
      "stateMutability": "nonpayable",
      "type": "function"
    },
    {
      "inputs": [
        {
          "internalType": "string",
          "name": "symbol",
          "type": "string"
        },
        {
          "internalType": "string",
          "name": "name",
          "type": "string"
        },
        {
          "internalType": "string",
          "name": "image",
          "type": "string"
        },
        {
          "internalType": "string",
          "name": "recordCategory",
          "type": "string"
        },
        {
          "internalType": "uint256",
          "name": "seedId",
          "type": "uint256"
        }
      ],
      "name": "createNewRecord",
      "outputs": [
        {
          "internalType": "uint256",
          "name": "recordId",
          "type": "uint256"
        }
      ],
      "stateMutability": "nonpayable",
      "type": "function"
    }
  ],
  "bytecode": "0x608060405260006004553480156200001657600080fd5b506040518060400160405280601a81526020017f68747470733a2f2f736f6d657468696e672e636f6d2f7b69647d0000000000008152506200005e816200006560201b60201c565b5062000196565b80600290805190602001906200007d92919062000081565b5050565b8280546200008f9062000160565b90600052602060002090601f016020900481019282620000b35760008555620000ff565b82601f10620000ce57805160ff1916838001178555620000ff565b82800160010185558215620000ff579182015b82811115620000fe578251825591602001919060010190620000e1565b5b5090506200010e919062000112565b5090565b5b808211156200012d57600081600090555060010162000113565b5090565b7f4e487b7100000000000000000000000000000000000000000000000000000000600052602260045260246000fd5b600060028204905060018216806200017957607f821691505b6020821081141562000190576200018f62000131565b5b50919050565b6132f680620001a66000396000f3fe608060405234801561001057600080fd5b50600436106100ce5760003560e01c80634f558e791161008c578063bd85b03911610066578063bd85b03914610247578063cd3208a914610277578063e985e9c514610293578063f242432a146102c3576100ce565b80634f558e79146101cb578063a22cb465146101fb578063a39a73d314610217576100ce565b8062fdd58e146100d357806301ffc9a7146101035780630e89341c146101335780631424d8c3146101635780632eb2c2d61461017f5780634e1273f41461019b575b600080fd5b6100ed60048036038101906100e89190611bcf565b6102df565b6040516100fa9190611c1e565b60405180910390f35b61011d60048036038101906101189190611c91565b6103a8565b60405161012a9190611cd9565b60405180910390f35b61014d60048036038101906101489190611cf4565b61048a565b60405161015a9190611dba565b60405180910390f35b61017d60048036038101906101789190611ddc565b61051e565b005b6101996004803603810190610194919061202c565b61053f565b005b6101b560048036038101906101b091906121be565b6105e0565b6040516101c291906122f4565b60405180910390f35b6101e560048036038101906101e09190611cf4565b6106f9565b6040516101f29190611cd9565b60405180910390f35b61021560048036038101906102109190612342565b61070d565b005b610231600480360381019061022c9190612423565b610723565b60405161023e9190611c1e565b60405180910390f35b610261600480360381019061025c9190611cf4565b610937565b60405161026e9190611c1e565b60405180910390f35b610291600480360381019061028c919061250e565b610954565b005b6102ad60048036038101906102a89190612589565b610a75565b6040516102ba9190611cd9565b60405180910390f35b6102dd60048036038101906102d891906125c9565b610b09565b005b60008073ffffffffffffffffffffffffffffffffffffffff168373ffffffffffffffffffffffffffffffffffffffff161415610350576040517f08c379a0000000000000000000000000000000000000000000000000000000008152600401610347906126d2565b60405180910390fd5b60008083815260200190815260200160002060008473ffffffffffffffffffffffffffffffffffffffff1673ffffffffffffffffffffffffffffffffffffffff16815260200190815260200160002054905092915050565b60007fd9b67a26000000000000000000000000000000000000000000000000000000007bffffffffffffffffffffffffffffffffffffffffffffffffffffffff1916827bffffffffffffffffffffffffffffffffffffffffffffffffffffffff1916148061047357507f0e89341c000000000000000000000000000000000000000000000000000000007bffffffffffffffffffffffffffffffffffffffffffffffffffffffff1916827bffffffffffffffffffffffffffffffffffffffffffffffffffffffff1916145b80610483575061048282610baa565b5b9050919050565b60606002805461049990612721565b80601f01602080910402602001604051908101604052809291908181526020018280546104c590612721565b80156105125780601f106104e757610100808354040283529160200191610512565b820191906000526020600020905b8154815290600101906020018083116104f557829003601f168201915b50505050509050919050565b61053a3382858560405180602001604052806000815250610b09565b505050565b610547610c14565b73ffffffffffffffffffffffffffffffffffffffff168573ffffffffffffffffffffffffffffffffffffffff16148061058d575061058c85610587610c14565b610a75565b5b6105cc576040517f08c379a00000000000000000000000000000000000000000000000000000000081526004016105c3906127c5565b60405180910390fd5b6105d98585858585610c1c565b5050505050565b60608151835114610626576040517f08c379a000000000000000000000000000000000000000000000000000000000815260040161061d90612857565b60405180910390fd5b6000835167ffffffffffffffff81111561064357610642611e34565b5b6040519080825280602002602001820160405280156106715781602001602082028036833780820191505090505b50905060005b84518110156106ee576106be85828151811061069657610695612877565b5b60200260200101518583815181106106b1576106b0612877565b5b60200260200101516102df565b8282815181106106d1576106d0612877565b5b602002602001018181525050806106e7906128d5565b9050610677565b508091505092915050565b60008061070583610937565b119050919050565b61071f610718610c14565b8383610f30565b5050565b6000801515600587604051610738919061295a565b908152602001604051809103902060009054906101000a900460ff16151514610796576040517f08c379a000000000000000000000000000000000000000000000000000000000815260040161078d906129bd565b60405180910390fd5b6000600460008154809291906107ab906128d5565b9190505590506107cd338260016040518060200160405280600081525061109d565b60006040518060e00160405280888152602001898152602001878152602001858152602001600081526020018681526020014281525090506001600589604051610817919061295a565b908152602001604051809103902060006101000a81548160ff0219169083151502179055508060066000848152602001908152602001600020600082015181600001908051906020019061086c929190611a84565b506020820151816001019080519060200190610889929190611a84565b5060408201518160020190805190602001906108a6929190611a84565b50606082015181600301556080820151816004015560a08201518160050190805190602001906108d7929190611a84565b5060c082015181600601559050507f4b65306b68b35aa1c056b1942c08534a02c6f4e87a2df754aee6d27501d51bbd8789888760008a426040516109219796959493929190612a22565b60405180910390a1819250505095945050505050565b600060036000838152602001908152602001600020549050919050565b8161095f82856102df565b1161099f576040517f08c379a000000000000000000000000000000000000000000000000000000000815260040161099690612af9565b60405180910390fd5b836109aa33876102df565b116109ea576040517f08c379a00000000000000000000000000000000000000000000000000000000081526004016109e190612af9565b60405180910390fd5b610a2c338287876040518060400160405280600181526020017f3000000000000000000000000000000000000000000000000000000000000000815250610b09565b610a6e813385856040518060400160405280600181526020017f3000000000000000000000000000000000000000000000000000000000000000815250610b09565b5050505050565b6000600160008473ffffffffffffffffffffffffffffffffffffffff1673ffffffffffffffffffffffffffffffffffffffff16815260200190815260200160002060008373ffffffffffffffffffffffffffffffffffffffff1673ffffffffffffffffffffffffffffffffffffffff16815260200190815260200160002060009054906101000a900460ff16905092915050565b610b11610c14565b73ffffffffffffffffffffffffffffffffffffffff168573ffffffffffffffffffffffffffffffffffffffff161480610b575750610b5685610b51610c14565b610a75565b5b610b96576040517f08c379a0000000000000000000000000000000000000000000000000000000008152600401610b8d90612b8b565b60405180910390fd5b610ba38585858585611233565b5050505050565b60007f01ffc9a7000000000000000000000000000000000000000000000000000000007bffffffffffffffffffffffffffffffffffffffffffffffffffffffff1916827bffffffffffffffffffffffffffffffffffffffffffffffffffffffff1916149050919050565b600033905090565b8151835114610c60576040517f08c379a0000000000000000000000000000000000000000000000000000000008152600401610c5790612c1d565b60405180910390fd5b600073ffffffffffffffffffffffffffffffffffffffff168473ffffffffffffffffffffffffffffffffffffffff161415610cd0576040517f08c379a0000000000000000000000000000000000000000000000000000000008152600401610cc790612caf565b60405180910390fd5b6000610cda610c14565b9050610cea8187878787876114b5565b60005b8451811015610e9b576000858281518110610d0b57610d0a612877565b5b602002602001015190506000858381518110610d2a57610d29612877565b5b60200260200101519050600080600084815260200190815260200160002060008b73ffffffffffffffffffffffffffffffffffffffff1673ffffffffffffffffffffffffffffffffffffffff16815260200190815260200160002054905081811015610dcb576040517f08c379a0000000000000000000000000000000000000000000000000000000008152600401610dc290612d41565b60405180910390fd5b81810360008085815260200190815260200160002060008c73ffffffffffffffffffffffffffffffffffffffff1673ffffffffffffffffffffffffffffffffffffffff168152602001908152602001600020819055508160008085815260200190815260200160002060008b73ffffffffffffffffffffffffffffffffffffffff1673ffffffffffffffffffffffffffffffffffffffff1681526020019081526020016000206000828254610e809190612d61565b9250508190555050505080610e94906128d5565b9050610ced565b508473ffffffffffffffffffffffffffffffffffffffff168673ffffffffffffffffffffffffffffffffffffffff168273ffffffffffffffffffffffffffffffffffffffff167f4a39dc06d4c0dbc64b70af90fd698a233a518aa5d07e595d983b8c0526c8f7fb8787604051610f12929190612db7565b60405180910390a4610f2881878787878761162f565b505050505050565b8173ffffffffffffffffffffffffffffffffffffffff168373ffffffffffffffffffffffffffffffffffffffff161415610f9f576040517f08c379a0000000000000000000000000000000000000000000000000000000008152600401610f9690612e60565b60405180910390fd5b80600160008573ffffffffffffffffffffffffffffffffffffffff1673ffffffffffffffffffffffffffffffffffffffff16815260200190815260200160002060008473ffffffffffffffffffffffffffffffffffffffff1673ffffffffffffffffffffffffffffffffffffffff16815260200190815260200160002060006101000a81548160ff0219169083151502179055508173ffffffffffffffffffffffffffffffffffffffff168373ffffffffffffffffffffffffffffffffffffffff167f17307eab39ab6107e8899845ad3d59bd9653f200f220920489ca2b5937696c31836040516110909190611cd9565b60405180910390a3505050565b600073ffffffffffffffffffffffffffffffffffffffff168473ffffffffffffffffffffffffffffffffffffffff16141561110d576040517f08c379a000000000000000000000000000000000000000000000000000000000815260040161110490612ef2565b60405180910390fd5b6000611117610c14565b90506111388160008761112988611807565b61113288611807565b876114b5565b8260008086815260200190815260200160002060008773ffffffffffffffffffffffffffffffffffffffff1673ffffffffffffffffffffffffffffffffffffffff16815260200190815260200160002060008282546111979190612d61565b925050819055508473ffffffffffffffffffffffffffffffffffffffff16600073ffffffffffffffffffffffffffffffffffffffff168273ffffffffffffffffffffffffffffffffffffffff167fc3d58168c5ae7397731d063d5bbf3d657854427343f4c083240f7aacaa2d0f628787604051611215929190612f12565b60405180910390a461122c81600087878787611881565b5050505050565b600073ffffffffffffffffffffffffffffffffffffffff168473ffffffffffffffffffffffffffffffffffffffff1614156112a3576040517f08c379a000000000000000000000000000000000000000000000000000000000815260040161129a90612caf565b60405180910390fd5b60006112ad610c14565b90506112cd8187876112be88611807565b6112c788611807565b876114b5565b600080600086815260200190815260200160002060008873ffffffffffffffffffffffffffffffffffffffff1673ffffffffffffffffffffffffffffffffffffffff16815260200190815260200160002054905083811015611364576040517f08c379a000000000000000000000000000000000000000000000000000000000815260040161135b90612d41565b60405180910390fd5b83810360008087815260200190815260200160002060008973ffffffffffffffffffffffffffffffffffffffff1673ffffffffffffffffffffffffffffffffffffffff168152602001908152602001600020819055508360008087815260200190815260200160002060008873ffffffffffffffffffffffffffffffffffffffff1673ffffffffffffffffffffffffffffffffffffffff16815260200190815260200160002060008282546114199190612d61565b925050819055508573ffffffffffffffffffffffffffffffffffffffff168773ffffffffffffffffffffffffffffffffffffffff168373ffffffffffffffffffffffffffffffffffffffff167fc3d58168c5ae7397731d063d5bbf3d657854427343f4c083240f7aacaa2d0f628888604051611496929190612f12565b60405180910390a46114ac828888888888611881565b50505050505050565b6114c3868686868686611a59565b600073ffffffffffffffffffffffffffffffffffffffff168573ffffffffffffffffffffffffffffffffffffffff1614156115755760005b83518110156115735782818151811061151757611516612877565b5b60200260200101516003600086848151811061153657611535612877565b5b60200260200101518152602001908152602001600020600082825461155b9190612d61565b925050819055508061156c906128d5565b90506114fb565b505b600073ffffffffffffffffffffffffffffffffffffffff168473ffffffffffffffffffffffffffffffffffffffff1614156116275760005b8351811015611625578281815181106115c9576115c8612877565b5b6020026020010151600360008684815181106115e8576115e7612877565b5b60200260200101518152602001908152602001600020600082825461160d9190612f3b565b925050819055508061161e906128d5565b90506115ad565b505b505050505050565b61164e8473ffffffffffffffffffffffffffffffffffffffff16611a61565b156117ff578373ffffffffffffffffffffffffffffffffffffffff1663bc197c8187878686866040518663ffffffff1660e01b8152600401611694959493929190612fd3565b6020604051808303816000875af19250505080156116d057506040513d601f19601f820116820180604052508101906116cd9190613050565b60015b611776576116dc61308a565b806308c379a0141561173957506116f16130ac565b806116fc575061173b565b806040517f08c379a00000000000000000000000000000000000000000000000000000000081526004016117309190611dba565b60405180910390fd5b505b6040517f08c379a000000000000000000000000000000000000000000000000000000000815260040161176d906131b4565b60405180910390fd5b63bc197c8160e01b7bffffffffffffffffffffffffffffffffffffffffffffffffffffffff1916817bffffffffffffffffffffffffffffffffffffffffffffffffffffffff1916146117fd576040517f08c379a00000000000000000000000000000000000000000000000000000000081526004016117f490613246565b60405180910390fd5b505b505050505050565b60606000600167ffffffffffffffff81111561182657611825611e34565b5b6040519080825280602002602001820160405280156118545781602001602082028036833780820191505090505b509050828160008151811061186c5761186b612877565b5b60200260200101818152505080915050919050565b6118a08473ffffffffffffffffffffffffffffffffffffffff16611a61565b15611a51578373ffffffffffffffffffffffffffffffffffffffff1663f23a6e6187878686866040518663ffffffff1660e01b81526004016118e6959493929190613266565b6020604051808303816000875af192505050801561192257506040513d601f19601f8201168201806040525081019061191f9190613050565b60015b6119c85761192e61308a565b806308c379a0141561198b57506119436130ac565b8061194e575061198d565b806040517f08c379a00000000000000000000000000000000000000000000000000000000081526004016119829190611dba565b60405180910390fd5b505b6040517f08c379a00000000000000000000000000000000000000000000000000000000081526004016119bf906131b4565b60405180910390fd5b63f23a6e6160e01b7bffffffffffffffffffffffffffffffffffffffffffffffffffffffff1916817bffffffffffffffffffffffffffffffffffffffffffffffffffffffff191614611a4f576040517f08c379a0000000000000000000000000000000000000000000000000000000008152600401611a4690613246565b60405180910390fd5b505b505050505050565b505050505050565b6000808273ffffffffffffffffffffffffffffffffffffffff163b119050919050565b828054611a9090612721565b90600052602060002090601f016020900481019282611ab25760008555611af9565b82601f10611acb57805160ff1916838001178555611af9565b82800160010185558215611af9579182015b82811115611af8578251825591602001919060010190611add565b5b509050611b069190611b0a565b5090565b5b80821115611b23576000816000905550600101611b0b565b5090565b6000604051905090565b600080fd5b600080fd5b600073ffffffffffffffffffffffffffffffffffffffff82169050919050565b6000611b6682611b3b565b9050919050565b611b7681611b5b565b8114611b8157600080fd5b50565b600081359050611b9381611b6d565b92915050565b6000819050919050565b611bac81611b99565b8114611bb757600080fd5b50565b600081359050611bc981611ba3565b92915050565b60008060408385031215611be657611be5611b31565b5b6000611bf485828601611b84565b9250506020611c0585828601611bba565b9150509250929050565b611c1881611b99565b82525050565b6000602082019050611c336000830184611c0f565b92915050565b60007fffffffff0000000000000000000000000000000000000000000000000000000082169050919050565b611c6e81611c39565b8114611c7957600080fd5b50565b600081359050611c8b81611c65565b92915050565b600060208284031215611ca757611ca6611b31565b5b6000611cb584828501611c7c565b91505092915050565b60008115159050919050565b611cd381611cbe565b82525050565b6000602082019050611cee6000830184611cca565b92915050565b600060208284031215611d0a57611d09611b31565b5b6000611d1884828501611bba565b91505092915050565b600081519050919050565b600082825260208201905092915050565b60005b83811015611d5b578082015181840152602081019050611d40565b83811115611d6a576000848401525b50505050565b6000601f19601f8301169050919050565b6000611d8c82611d21565b611d968185611d2c565b9350611da6818560208601611d3d565b611daf81611d70565b840191505092915050565b60006020820190508181036000830152611dd48184611d81565b905092915050565b600080600060608486031215611df557611df4611b31565b5b6000611e0386828701611bba565b9350506020611e1486828701611bba565b9250506040611e2586828701611b84565b9150509250925092565b600080fd5b7f4e487b7100000000000000000000000000000000000000000000000000000000600052604160045260246000fd5b611e6c82611d70565b810181811067ffffffffffffffff82111715611e8b57611e8a611e34565b5b80604052505050565b6000611e9e611b27565b9050611eaa8282611e63565b919050565b600067ffffffffffffffff821115611eca57611ec9611e34565b5b602082029050602081019050919050565b600080fd5b6000611ef3611eee84611eaf565b611e94565b90508083825260208201905060208402830185811115611f1657611f15611edb565b5b835b81811015611f3f5780611f2b8882611bba565b845260208401935050602081019050611f18565b5050509392505050565b600082601f830112611f5e57611f5d611e2f565b5b8135611f6e848260208601611ee0565b91505092915050565b600080fd5b600067ffffffffffffffff821115611f9757611f96611e34565b5b611fa082611d70565b9050602081019050919050565b82818337600083830152505050565b6000611fcf611fca84611f7c565b611e94565b905082815260208101848484011115611feb57611fea611f77565b5b611ff6848285611fad565b509392505050565b600082601f83011261201357612012611e2f565b5b8135612023848260208601611fbc565b91505092915050565b600080600080600060a0868803121561204857612047611b31565b5b600061205688828901611b84565b955050602061206788828901611b84565b945050604086013567ffffffffffffffff81111561208857612087611b36565b5b61209488828901611f49565b935050606086013567ffffffffffffffff8111156120b5576120b4611b36565b5b6120c188828901611f49565b925050608086013567ffffffffffffffff8111156120e2576120e1611b36565b5b6120ee88828901611ffe565b9150509295509295909350565b600067ffffffffffffffff82111561211657612115611e34565b5b602082029050602081019050919050565b600061213a612135846120fb565b611e94565b9050808382526020820190506020840283018581111561215d5761215c611edb565b5b835b8181101561218657806121728882611b84565b84526020840193505060208101905061215f565b5050509392505050565b600082601f8301126121a5576121a4611e2f565b5b81356121b5848260208601612127565b91505092915050565b600080604083850312156121d5576121d4611b31565b5b600083013567ffffffffffffffff8111156121f3576121f2611b36565b5b6121ff85828601612190565b925050602083013567ffffffffffffffff8111156122205761221f611b36565b5b61222c85828601611f49565b9150509250929050565b600081519050919050565b600082825260208201905092915050565b6000819050602082019050919050565b61226b81611b99565b82525050565b600061227d8383612262565b60208301905092915050565b6000602082019050919050565b60006122a182612236565b6122ab8185612241565b93506122b683612252565b8060005b838110156122e75781516122ce8882612271565b97506122d983612289565b9250506001810190506122ba565b5085935050505092915050565b6000602082019050818103600083015261230e8184612296565b905092915050565b61231f81611cbe565b811461232a57600080fd5b50565b60008135905061233c81612316565b92915050565b6000806040838503121561235957612358611b31565b5b600061236785828601611b84565b92505060206123788582860161232d565b9150509250929050565b600067ffffffffffffffff82111561239d5761239c611e34565b5b6123a682611d70565b9050602081019050919050565b60006123c66123c184612382565b611e94565b9050828152602081018484840111156123e2576123e1611f77565b5b6123ed848285611fad565b509392505050565b600082601f83011261240a57612409611e2f565b5b813561241a8482602086016123b3565b91505092915050565b600080600080600060a0868803121561243f5761243e611b31565b5b600086013567ffffffffffffffff81111561245d5761245c611b36565b5b612469888289016123f5565b955050602086013567ffffffffffffffff81111561248a57612489611b36565b5b612496888289016123f5565b945050604086013567ffffffffffffffff8111156124b7576124b6611b36565b5b6124c3888289016123f5565b935050606086013567ffffffffffffffff8111156124e4576124e3611b36565b5b6124f0888289016123f5565b925050608061250188828901611bba565b9150509295509295909350565b600080600080600060a0868803121561252a57612529611b31565b5b600061253888828901611bba565b955050602061254988828901611bba565b945050604061255a88828901611bba565b935050606061256b88828901611bba565b925050608061257c88828901611b84565b9150509295509295909350565b600080604083850312156125a05761259f611b31565b5b60006125ae85828601611b84565b92505060206125bf85828601611b84565b9150509250929050565b600080600080600060a086880312156125e5576125e4611b31565b5b60006125f388828901611b84565b955050602061260488828901611b84565b945050604061261588828901611bba565b935050606061262688828901611bba565b925050608086013567ffffffffffffffff81111561264757612646611b36565b5b61265388828901611ffe565b9150509295509295909350565b7f455243313135353a2062616c616e636520717565727920666f7220746865207a60008201527f65726f2061646472657373000000000000000000000000000000000000000000602082015250565b60006126bc602b83611d2c565b91506126c782612660565b604082019050919050565b600060208201905081810360008301526126eb816126af565b9050919050565b7f4e487b7100000000000000000000000000000000000000000000000000000000600052602260045260246000fd5b6000600282049050600182168061273957607f821691505b6020821081141561274d5761274c6126f2565b5b50919050565b7f455243313135353a207472616e736665722063616c6c6572206973206e6f742060008201527f6f776e6572206e6f7220617070726f7665640000000000000000000000000000602082015250565b60006127af603283611d2c565b91506127ba82612753565b604082019050919050565b600060208201905081810360008301526127de816127a2565b9050919050565b7f455243313135353a206163636f756e747320616e6420696473206c656e67746860008201527f206d69736d617463680000000000000000000000000000000000000000000000602082015250565b6000612841602983611d2c565b915061284c826127e5565b604082019050919050565b6000602082019050818103600083015261287081612834565b9050919050565b7f4e487b7100000000000000000000000000000000000000000000000000000000600052603260045260246000fd5b7f4e487b7100000000000000000000000000000000000000000000000000000000600052601160045260246000fd5b60006128e082611b99565b91507fffffffffffffffffffffffffffffffffffffffffffffffffffffffffffffffff821415612913576129126128a6565b5b600182019050919050565b600081905092915050565b600061293482611d21565b61293e818561291e565b935061294e818560208601611d3d565b80840191505092915050565b60006129668284612929565b915081905092915050565b7f53594d424f4c5f414c52454144595f494e5f5553450000000000000000000000600082015250565b60006129a7601583611d2c565b91506129b282612971565b602082019050919050565b600060208201905081810360008301526129d68161299a565b9050919050565b6000819050919050565b6000819050919050565b6000612a0c612a07612a02846129dd565b6129e7565b611b99565b9050919050565b612a1c816129f1565b82525050565b600060e0820190508181036000830152612a3c818a611d81565b90508181036020830152612a508189611d81565b90508181036040830152612a648188611d81565b9050612a736060830187611c0f565b612a806080830186612a13565b81810360a0830152612a928185611d81565b9050612aa160c0830184611c0f565b98975050505050505050565b7f696e73756666696369616e742062616c616e6365000000000000000000000000600082015250565b6000612ae3601483611d2c565b9150612aee82612aad565b602082019050919050565b60006020820190508181036000830152612b1281612ad6565b9050919050565b7f455243313135353a2063616c6c6572206973206e6f74206f776e6572206e6f7260008201527f20617070726f7665640000000000000000000000000000000000000000000000602082015250565b6000612b75602983611d2c565b9150612b8082612b19565b604082019050919050565b60006020820190508181036000830152612ba481612b68565b9050919050565b7f455243313135353a2069647320616e6420616d6f756e7473206c656e6774682060008201527f6d69736d61746368000000000000000000000000000000000000000000000000602082015250565b6000612c07602883611d2c565b9150612c1282612bab565b604082019050919050565b60006020820190508181036000830152612c3681612bfa565b9050919050565b7f455243313135353a207472616e7366657220746f20746865207a65726f20616460008201527f6472657373000000000000000000000000000000000000000000000000000000602082015250565b6000612c99602583611d2c565b9150612ca482612c3d565b604082019050919050565b60006020820190508181036000830152612cc881612c8c565b9050919050565b7f455243313135353a20696e73756666696369656e742062616c616e636520666f60008201527f72207472616e7366657200000000000000000000000000000000000000000000602082015250565b6000612d2b602a83611d2c565b9150612d3682612ccf565b604082019050919050565b60006020820190508181036000830152612d5a81612d1e565b9050919050565b6000612d6c82611b99565b9150612d7783611b99565b9250827fffffffffffffffffffffffffffffffffffffffffffffffffffffffffffffffff03821115612dac57612dab6128a6565b5b828201905092915050565b60006040820190508181036000830152612dd18185612296565b90508181036020830152612de58184612296565b90509392505050565b7f455243313135353a2073657474696e6720617070726f76616c2073746174757360008201527f20666f722073656c660000000000000000000000000000000000000000000000602082015250565b6000612e4a602983611d2c565b9150612e5582612dee565b604082019050919050565b60006020820190508181036000830152612e7981612e3d565b9050919050565b7f455243313135353a206d696e7420746f20746865207a65726f2061646472657360008201527f7300000000000000000000000000000000000000000000000000000000000000602082015250565b6000612edc602183611d2c565b9150612ee782612e80565b604082019050919050565b60006020820190508181036000830152612f0b81612ecf565b9050919050565b6000604082019050612f276000830185611c0f565b612f346020830184611c0f565b9392505050565b6000612f4682611b99565b9150612f5183611b99565b925082821015612f6457612f636128a6565b5b828203905092915050565b612f7881611b5b565b82525050565b600081519050919050565b600082825260208201905092915050565b6000612fa582612f7e565b612faf8185612f89565b9350612fbf818560208601611d3d565b612fc881611d70565b840191505092915050565b600060a082019050612fe86000830188612f6f565b612ff56020830187612f6f565b81810360408301526130078186612296565b9050818103606083015261301b8185612296565b9050818103608083015261302f8184612f9a565b90509695505050505050565b60008151905061304a81611c65565b92915050565b60006020828403121561306657613065611b31565b5b60006130748482850161303b565b91505092915050565b60008160e01c9050919050565b600060033d11156130a95760046000803e6130a660005161307d565b90505b90565b600060443d10156130bc5761313f565b6130c4611b27565b60043d036004823e80513d602482011167ffffffffffffffff821117156130ec57505061313f565b808201805167ffffffffffffffff81111561310a575050505061313f565b80602083010160043d03850181111561312757505050505061313f565b61313682602001850186611e63565b82955050505050505b90565b7f455243313135353a207472616e7366657220746f206e6f6e204552433131353560008201527f526563656976657220696d706c656d656e746572000000000000000000000000602082015250565b600061319e603483611d2c565b91506131a982613142565b604082019050919050565b600060208201905081810360008301526131cd81613191565b9050919050565b7f455243313135353a204552433131353552656365697665722072656a6563746560008201527f6420746f6b656e73000000000000000000000000000000000000000000000000602082015250565b6000613230602883611d2c565b915061323b826131d4565b604082019050919050565b6000602082019050818103600083015261325f81613223565b9050919050565b600060a08201905061327b6000830188612f6f565b6132886020830187612f6f565b6132956040830186611c0f565b6132a26060830185611c0f565b81810360808301526132b48184612f9a565b9050969550505050505056fea2646970667358221220b3d8cccb5901b6961076112f45239b62b0ec1aa2d61a7ffff5a2e3c3491693dc64736f6c634300080c0033",
  "immutableReferences": {},
  "source": "pragma solidity ^0.8.0;\n\nimport \"@openzeppelin/contracts/token/ERC1155/ERC1155.sol\";\nimport \"@openzeppelin/contracts/token/ERC1155/extensions/ERC1155Supply.sol\";\nimport \"@openzeppelin/contracts/utils/Counters.sol\";\nimport \"@openzeppelin/contracts/access/Ownable.sol\";\n\n// ERC 20 balance[adress] => 2 contracts // governance and comunity\n// ERC 721 blance[adress] => 1 contract // records\n// ERC 1155\n\ncontract RecordsContract is ERC1155Supply {\n    //----------------------Permanent Uri code---------------------//\n\n    /*  // Optional mapping for token URIs\n    mapping(uint256 => string) private _tokenURIs;\n\n    mapping(uint256 => bool) private _permanentURI;\n\n    function _setTokenURI(uint256 tokenId, string memory _tokenURI)\n        internal\n        virtual\n    {\n        require(\n            exists(tokenId),\n            \"ERC721Metadata: URI set of nonexistent token\"\n        );\n\n        require(\n            _permanentURI[tokenId] != true,\n            \"ERC721Metadata: Metadata is not editable now\"\n        );\n\n        _tokenURIs[tokenId] = _tokenURI;\n    }\n\n    function _lockTokenURI(uint256 tokenId) private {\n        require(\n            exists(tokenId),\n            \"ERC721Metadata: URI set of nonexistent token\"\n        );\n\n        require(\n            _permanentURI[tokenId] == false,\n            \"ERC721Metadata: Metadata is already set to not editable\"\n        );\n\n        _permanentURI[tokenId] = true;\n    }\n\n    function _tokenURI(uint256 tokenId)\n        public\n        view\n        virtual\n        returns (string memory)\n    {\n        require(\n            exists(tokenId),\n            \"ERC721Metadata: URI query for nonexistent token\"\n        );\n\n        return _tokenURIs[tokenId];\n    } */\n\n    //----------------------Records Related code---------------------//\n\n    uint256 newTokenId = 0;\n\n    mapping(string => bool) recordTokenSymbol;\n    mapping(uint256 => RecordToken) recordData;\n\n    struct RecordToken {\n        string name;\n        string symbol;\n        string image;\n        uint256 seedId;\n        uint256 parentId;\n        string recordCategory;\n        uint256 creationDate;\n        // uint256 communityToken;\n        // uint256 governanceToken;\n    }\n\n    event RecordCreated(\n        string name,\n        string symbol,\n        string image,\n        uint256 seedId,\n        uint256 parentId,\n        string recordCategory,\n        uint256 creationDate\n    );\n\n    constructor() ERC1155(\"https://something.com/{id}\") {}\n\n    function sendTo(\n        uint256 tokenId,\n        uint256 amount,\n        address reciver\n    ) public {\n        safeTransferFrom(msg.sender, reciver, tokenId, amount, \"\");\n    }\n\n    function exchangeTokens(\n        uint256 senderTokenId,\n        uint256 sendingAmount,\n        uint256 recivingTokenId,\n        uint256 recivingAmount,\n        address reciver\n    ) public {\n        require(\n            balanceOf(reciver, recivingTokenId) > recivingAmount,\n            \"insufficiant balance\"\n        );\n        require(\n            balanceOf(msg.sender, senderTokenId) > sendingAmount,\n            \"insufficiant balance\"\n        );\n\n        safeTransferFrom(\n            msg.sender,\n            reciver,\n            senderTokenId,\n            sendingAmount,\n            \"0\"\n        );\n        safeTransferFrom(\n            reciver,\n            msg.sender,\n            recivingTokenId,\n            recivingAmount,\n            \"0\"\n        );\n    }\n\n    /**\n     * @dev This function creats new record\n     * @param name This is the total supply of governance token\n     * @param symbol This is the total supply of community token\n     * @param image This is the total supply of community token\n     * @param seedId this is hash of the preview file\n     * @param recordCategory this is hash of the preview file\n     */\n    function createNewRecord(\n        string memory symbol,\n        string memory name,\n        string memory image,\n        string memory recordCategory,\n        uint256 seedId\n    ) public returns (uint256 recordId) {\n        require(recordTokenSymbol[symbol] == false, \"SYMBOL_ALREADY_IN_USE\");\n\n        uint256 recordId = newTokenId++;\n        _mint(msg.sender, recordId, 1, \"\");\n\n        RecordToken memory recordToken = RecordToken({\n            name: name,\n            symbol: symbol,\n            image: image,\n            seedId: seedId,\n            parentId: 0,\n            recordCategory: recordCategory,\n            creationDate: block.timestamp\n        });\n\n        recordTokenSymbol[symbol] = true;\n        recordData[recordId] = recordToken;\n\n        emit RecordCreated({\n            name: name,\n            symbol: symbol,\n            image: image,\n            seedId: seedId,\n            parentId: 0,\n            recordCategory: recordCategory,\n            creationDate: block.timestamp\n        });\n\n        return (recordId);\n    }\n}\n",
  "sourcePath": "/Users/a1/Desktop/Office/projects/CrowdRecords/Contracts/contracts/RecordsContract.sol",
  "compiler": {
    "name": "solc",
    "version": "0.8.12+commit.f00d7308.Emscripten.clang"
  },
  "schemaVersion": "3.4.6",
  "updatedAt": "2022-03-26T13:42:32.751Z",
  "networkType": "ethereum",
  "devdoc": {
    "kind": "dev",
    "methods": {
      "balanceOf(address,uint256)": {
        "details": "See {IERC1155-balanceOf}. Requirements: - `account` cannot be the zero address."
      },
      "balanceOfBatch(address[],uint256[])": {
        "details": "See {IERC1155-balanceOfBatch}. Requirements: - `accounts` and `ids` must have the same length."
      },
      "createNewRecord(string,string,string,string,uint256)": {
        "details": "This function creats new record",
        "params": {
          "image": "This is the total supply of community token",
          "name": "This is the total supply of governance token",
          "recordCategory": "this is hash of the preview file",
          "seedId": "this is hash of the preview file",
          "symbol": "This is the total supply of community token"
        }
      },
      "exists(uint256)": {
        "details": "Indicates whether any token exist with a given id, or not."
      },
      "isApprovedForAll(address,address)": {
        "details": "See {IERC1155-isApprovedForAll}."
      },
      "safeBatchTransferFrom(address,address,uint256[],uint256[],bytes)": {
        "details": "See {IERC1155-safeBatchTransferFrom}."
      },
      "safeTransferFrom(address,address,uint256,uint256,bytes)": {
        "details": "See {IERC1155-safeTransferFrom}."
      },
      "setApprovalForAll(address,bool)": {
        "details": "See {IERC1155-setApprovalForAll}."
      },
      "supportsInterface(bytes4)": {
        "details": "See {IERC165-supportsInterface}."
      },
      "totalSupply(uint256)": {
        "details": "Total amount of tokens in with a given id."
      },
      "uri(uint256)": {
        "details": "See {IERC1155MetadataURI-uri}. This implementation returns the same URI for *all* token types. It relies on the token type ID substitution mechanism https://eips.ethereum.org/EIPS/eip-1155#metadata[defined in the EIP]. Clients calling this function must replace the `\\{id\\}` substring with the actual token type ID."
      }
    },
    "version": 1
  },
  "userdoc": {
    "kind": "user",
    "methods": {},
    "version": 1
  }
}