{
  "contractName": "TracksContract",
  "abi": [
    {
      "inputs": [
        {
          "internalType": "string",
          "name": "baseURI_",
          "type": "string"
        }
      ],
      "stateMutability": "nonpayable",
      "type": "constructor"
    },
    {
      "anonymous": false,
      "inputs": [
        {
          "indexed": true,
          "internalType": "address",
          "name": "owner",
          "type": "address"
        },
        {
          "indexed": true,
          "internalType": "address",
          "name": "approved",
          "type": "address"
        },
        {
          "indexed": true,
          "internalType": "uint256",
          "name": "tokenId",
          "type": "uint256"
        }
      ],
      "name": "Approval",
      "type": "event"
    },
    {
      "anonymous": false,
      "inputs": [
        {
          "indexed": true,
          "internalType": "address",
          "name": "owner",
          "type": "address"
        },
        {
          "indexed": true,
          "internalType": "address",
          "name": "operator",
          "type": "address"
        },
        {
          "indexed": false,
          "internalType": "bool",
          "name": "approved",
          "type": "bool"
        }
      ],
      "name": "ApprovalForAll",
      "type": "event"
    },
    {
      "anonymous": false,
      "inputs": [
        {
          "indexed": true,
          "internalType": "address",
          "name": "from",
          "type": "address"
        },
        {
          "indexed": true,
          "internalType": "address",
          "name": "to",
          "type": "address"
        },
        {
          "indexed": true,
          "internalType": "uint256",
          "name": "tokenId",
          "type": "uint256"
        }
      ],
      "name": "Transfer",
      "type": "event"
    },
    {
      "inputs": [
        {
          "internalType": "address",
          "name": "to",
          "type": "address"
        },
        {
          "internalType": "uint256",
          "name": "tokenId",
          "type": "uint256"
        }
      ],
      "name": "approve",
      "outputs": [],
      "stateMutability": "nonpayable",
      "type": "function"
    },
    {
      "inputs": [
        {
          "internalType": "address",
          "name": "owner",
          "type": "address"
        }
      ],
      "name": "balanceOf",
      "outputs": [
        {
          "internalType": "uint256",
          "name": "",
          "type": "uint256"
        }
      ],
      "stateMutability": "view",
      "type": "function",
      "constant": true
    },
    {
      "inputs": [
        {
          "internalType": "uint256",
          "name": "tokenId",
          "type": "uint256"
        }
      ],
      "name": "getApproved",
      "outputs": [
        {
          "internalType": "address",
          "name": "",
          "type": "address"
        }
      ],
      "stateMutability": "view",
      "type": "function",
      "constant": true
    },
    {
      "inputs": [
        {
          "internalType": "address",
          "name": "owner",
          "type": "address"
        },
        {
          "internalType": "address",
          "name": "operator",
          "type": "address"
        }
      ],
      "name": "isApprovedForAll",
      "outputs": [
        {
          "internalType": "bool",
          "name": "",
          "type": "bool"
        }
      ],
      "stateMutability": "view",
      "type": "function",
      "constant": true
    },
    {
      "inputs": [],
      "name": "name",
      "outputs": [
        {
          "internalType": "string",
          "name": "",
          "type": "string"
        }
      ],
      "stateMutability": "view",
      "type": "function",
      "constant": true
    },
    {
      "inputs": [
        {
          "internalType": "uint256",
          "name": "tokenId",
          "type": "uint256"
        }
      ],
      "name": "ownerOf",
      "outputs": [
        {
          "internalType": "address",
          "name": "",
          "type": "address"
        }
      ],
      "stateMutability": "view",
      "type": "function",
      "constant": true
    },
    {
      "inputs": [
        {
          "internalType": "address",
          "name": "from",
          "type": "address"
        },
        {
          "internalType": "address",
          "name": "to",
          "type": "address"
        },
        {
          "internalType": "uint256",
          "name": "tokenId",
          "type": "uint256"
        }
      ],
      "name": "safeTransferFrom",
      "outputs": [],
      "stateMutability": "nonpayable",
      "type": "function"
    },
    {
      "inputs": [
        {
          "internalType": "address",
          "name": "from",
          "type": "address"
        },
        {
          "internalType": "address",
          "name": "to",
          "type": "address"
        },
        {
          "internalType": "uint256",
          "name": "tokenId",
          "type": "uint256"
        },
        {
          "internalType": "bytes",
          "name": "_data",
          "type": "bytes"
        }
      ],
      "name": "safeTransferFrom",
      "outputs": [],
      "stateMutability": "nonpayable",
      "type": "function"
    },
    {
      "inputs": [
        {
          "internalType": "address",
          "name": "operator",
          "type": "address"
        },
        {
          "internalType": "bool",
          "name": "approved",
          "type": "bool"
        }
      ],
      "name": "setApprovalForAll",
      "outputs": [],
      "stateMutability": "nonpayable",
      "type": "function"
    },
    {
      "inputs": [
        {
          "internalType": "bytes4",
          "name": "interfaceId",
          "type": "bytes4"
        }
      ],
      "name": "supportsInterface",
      "outputs": [
        {
          "internalType": "bool",
          "name": "",
          "type": "bool"
        }
      ],
      "stateMutability": "view",
      "type": "function",
      "constant": true
    },
    {
      "inputs": [],
      "name": "symbol",
      "outputs": [
        {
          "internalType": "string",
          "name": "",
          "type": "string"
        }
      ],
      "stateMutability": "view",
      "type": "function",
      "constant": true
    },
    {
      "inputs": [
        {
          "internalType": "address",
          "name": "from",
          "type": "address"
        },
        {
          "internalType": "address",
          "name": "to",
          "type": "address"
        },
        {
          "internalType": "uint256",
          "name": "tokenId",
          "type": "uint256"
        }
      ],
      "name": "transferFrom",
      "outputs": [],
      "stateMutability": "nonpayable",
      "type": "function"
    },
    {
      "inputs": [
        {
          "internalType": "uint256",
          "name": "tokenId",
          "type": "uint256"
        }
      ],
      "name": "_lockTokenURI",
      "outputs": [],
      "stateMutability": "nonpayable",
      "type": "function"
    },
    {
      "inputs": [
        {
          "internalType": "uint256",
          "name": "tokenId",
          "type": "uint256"
        }
      ],
      "name": "tokenURI",
      "outputs": [
        {
          "internalType": "string",
          "name": "",
          "type": "string"
        }
      ],
      "stateMutability": "view",
      "type": "function",
      "constant": true
    },
    {
      "inputs": [
        {
          "internalType": "string",
          "name": "uri",
          "type": "string"
        }
      ],
      "name": "createNewTrack",
      "outputs": [
        {
          "internalType": "uint256",
          "name": "",
          "type": "uint256"
        }
      ],
      "stateMutability": "nonpayable",
      "type": "function"
    }
  ],
  "bytecode": "0x60806040523480156200001157600080fd5b50604051620031e1380380620031e1833981810160405281019062000037919062000344565b6040518060400160405280600681526020017f547261636b7300000000000000000000000000000000000000000000000000008152506040518060400160405280600481526020017f54524b53000000000000000000000000000000000000000000000000000000008152508160009080519060200190620000bb929190620000f7565b508060019080519060200190620000d4929190620000f7565b5050508060089080519060200190620000ef929190620000f7565b5050620003fa565b8280546200010590620003c4565b90600052602060002090601f01602090048101928262000129576000855562000175565b82601f106200014457805160ff191683800117855562000175565b8280016001018555821562000175579182015b828111156200017457825182559160200191906001019062000157565b5b50905062000184919062000188565b5090565b5b80821115620001a357600081600090555060010162000189565b5090565b6000604051905090565b600080fd5b600080fd5b600080fd5b600080fd5b6000601f19601f8301169050919050565b7f4e487b7100000000000000000000000000000000000000000000000000000000600052604160045260246000fd5b6200021082620001c5565b810181811067ffffffffffffffff82111715620002325762000231620001d6565b5b80604052505050565b600062000247620001a7565b905062000255828262000205565b919050565b600067ffffffffffffffff821115620002785762000277620001d6565b5b6200028382620001c5565b9050602081019050919050565b60005b83811015620002b057808201518184015260208101905062000293565b83811115620002c0576000848401525b50505050565b6000620002dd620002d7846200025a565b6200023b565b905082815260208101848484011115620002fc57620002fb620001c0565b5b6200030984828562000290565b509392505050565b600082601f830112620003295762000328620001bb565b5b81516200033b848260208601620002c6565b91505092915050565b6000602082840312156200035d576200035c620001b1565b5b600082015167ffffffffffffffff8111156200037e576200037d620001b6565b5b6200038c8482850162000311565b91505092915050565b7f4e487b7100000000000000000000000000000000000000000000000000000000600052602260045260246000fd5b60006002820490506001821680620003dd57607f821691505b60208210811415620003f457620003f362000395565b5b50919050565b612dd7806200040a6000396000f3fe608060405234801561001057600080fd5b50600436106100f55760003560e01c806370a0823111610097578063c87b56dd11610066578063c87b56dd14610282578063d7d02d67146102b2578063e985e9c5146102e2578063fab4d1c014610312576100f5565b806370a08231146101fc57806395d89b411461022c578063a22cb4651461024a578063b88d4fde14610266576100f5565b8063095ea7b3116100d3578063095ea7b31461017857806323b872dd1461019457806342842e0e146101b05780636352211e146101cc576100f5565b806301ffc9a7146100fa57806306fdde031461012a578063081812fc14610148575b600080fd5b610114600480360381019061010f9190611aba565b61032e565b6040516101219190611b02565b60405180910390f35b610132610410565b60405161013f9190611bb6565b60405180910390f35b610162600480360381019061015d9190611c0e565b6104a2565b60405161016f9190611c7c565b60405180910390f35b610192600480360381019061018d9190611cc3565b610527565b005b6101ae60048036038101906101a99190611d03565b61063f565b005b6101ca60048036038101906101c59190611d03565b61069f565b005b6101e660048036038101906101e19190611c0e565b6106bf565b6040516101f39190611c7c565b60405180910390f35b61021660048036038101906102119190611d56565b610771565b6040516102239190611d92565b60405180910390f35b610234610829565b6040516102419190611bb6565b60405180910390f35b610264600480360381019061025f9190611dd9565b6108bb565b005b610280600480360381019061027b9190611f4e565b6108d1565b005b61029c60048036038101906102979190611c0e565b610933565b6040516102a99190611bb6565b60405180910390f35b6102cc60048036038101906102c79190612072565b610aa6565b6040516102d99190611d92565b60405180910390f35b6102fc60048036038101906102f791906120bb565b610b12565b6040516103099190611b02565b60405180910390f35b61032c60048036038101906103279190611c0e565b610ba6565b005b60007f80ac58cd000000000000000000000000000000000000000000000000000000007bffffffffffffffffffffffffffffffffffffffffffffffffffffffff1916827bffffffffffffffffffffffffffffffffffffffffffffffffffffffff191614806103f957507f5b5e139f000000000000000000000000000000000000000000000000000000007bffffffffffffffffffffffffffffffffffffffffffffffffffffffff1916827bffffffffffffffffffffffffffffffffffffffffffffffffffffffff1916145b80610409575061040882610c84565b5b9050919050565b60606000805461041f9061212a565b80601f016020809104026020016040519081016040528092919081815260200182805461044b9061212a565b80156104985780601f1061046d57610100808354040283529160200191610498565b820191906000526020600020905b81548152906001019060200180831161047b57829003601f168201915b5050505050905090565b60006104ad82610cee565b6104ec576040517f08c379a00000000000000000000000000000000000000000000000000000000081526004016104e3906121ce565b60405180910390fd5b6004600083815260200190815260200160002060009054906101000a900473ffffffffffffffffffffffffffffffffffffffff169050919050565b6000610532826106bf565b90508073ffffffffffffffffffffffffffffffffffffffff168373ffffffffffffffffffffffffffffffffffffffff1614156105a3576040517f08c379a000000000000000000000000000000000000000000000000000000000815260040161059a90612260565b60405180910390fd5b8073ffffffffffffffffffffffffffffffffffffffff166105c2610d5a565b73ffffffffffffffffffffffffffffffffffffffff1614806105f157506105f0816105eb610d5a565b610b12565b5b610630576040517f08c379a0000000000000000000000000000000000000000000000000000000008152600401610627906122f2565b60405180910390fd5b61063a8383610d62565b505050565b61065061064a610d5a565b82610e1b565b61068f576040517f08c379a000000000000000000000000000000000000000000000000000000000815260040161068690612384565b60405180910390fd5b61069a838383610ef9565b505050565b6106ba838383604051806020016040528060008152506108d1565b505050565b6000806002600084815260200190815260200160002060009054906101000a900473ffffffffffffffffffffffffffffffffffffffff169050600073ffffffffffffffffffffffffffffffffffffffff168173ffffffffffffffffffffffffffffffffffffffff161415610768576040517f08c379a000000000000000000000000000000000000000000000000000000000815260040161075f90612416565b60405180910390fd5b80915050919050565b60008073ffffffffffffffffffffffffffffffffffffffff168273ffffffffffffffffffffffffffffffffffffffff1614156107e2576040517f08c379a00000000000000000000000000000000000000000000000000000000081526004016107d9906124a8565b60405180910390fd5b600360008373ffffffffffffffffffffffffffffffffffffffff1673ffffffffffffffffffffffffffffffffffffffff168152602001908152602001600020549050919050565b6060600180546108389061212a565b80601f01602080910402602001604051908101604052809291908181526020018280546108649061212a565b80156108b15780601f10610886576101008083540402835291602001916108b1565b820191906000526020600020905b81548152906001019060200180831161089457829003601f168201915b5050505050905090565b6108cd6108c6610d5a565b8383611160565b5050565b6108e26108dc610d5a565b83610e1b565b610921576040517f08c379a000000000000000000000000000000000000000000000000000000000815260040161091890612384565b60405180910390fd5b61092d848484846112cd565b50505050565b606061093e82610cee565b61097d576040517f08c379a00000000000000000000000000000000000000000000000000000000081526004016109749061253a565b60405180910390fd5b600060066000848152602001908152602001600020805461099d9061212a565b80601f01602080910402602001604051908101604052809291908181526020018280546109c99061212a565b8015610a165780601f106109eb57610100808354040283529160200191610a16565b820191906000526020600020905b8154815290600101906020018083116109f957829003601f168201915b505050505090506000610a27611329565b9050600081511415610a3d578192505050610aa1565b600082511115610a72578082604051602001610a5a929190612596565b60405160208183030381529060405292505050610aa1565b80610a7c856113bb565b604051602001610a8d929190612596565b604051602081830303815290604052925050505b919050565b6000610ab2600961151c565b6000610abe6009611532565b9050610aca3382611540565b60006007600083815260200190815260200160002060006101000a81548160ff021916908315150217905550610b00818461171a565b610b0981610ba6565b80915050919050565b6000600560008473ffffffffffffffffffffffffffffffffffffffff1673ffffffffffffffffffffffffffffffffffffffff16815260200190815260200160002060008373ffffffffffffffffffffffffffffffffffffffff1673ffffffffffffffffffffffffffffffffffffffff16815260200190815260200160002060009054906101000a900460ff16905092915050565b610baf81610cee565b610bee576040517f08c379a0000000000000000000000000000000000000000000000000000000008152600401610be59061262c565b60405180910390fd5b600015156007600083815260200190815260200160002060009054906101000a900460ff16151514610c55576040517f08c379a0000000000000000000000000000000000000000000000000000000008152600401610c4c906126be565b60405180910390fd5b60016007600083815260200190815260200160002060006101000a81548160ff02191690831515021790555050565b60007f01ffc9a7000000000000000000000000000000000000000000000000000000007bffffffffffffffffffffffffffffffffffffffffffffffffffffffff1916827bffffffffffffffffffffffffffffffffffffffffffffffffffffffff1916149050919050565b60008073ffffffffffffffffffffffffffffffffffffffff166002600084815260200190815260200160002060009054906101000a900473ffffffffffffffffffffffffffffffffffffffff1673ffffffffffffffffffffffffffffffffffffffff1614159050919050565b600033905090565b816004600083815260200190815260200160002060006101000a81548173ffffffffffffffffffffffffffffffffffffffff021916908373ffffffffffffffffffffffffffffffffffffffff160217905550808273ffffffffffffffffffffffffffffffffffffffff16610dd5836106bf565b73ffffffffffffffffffffffffffffffffffffffff167f8c5be1e5ebec7d5bd14f71427d1e84f3dd0314c0f7b2291e5b200ac8c7c3b92560405160405180910390a45050565b6000610e2682610cee565b610e65576040517f08c379a0000000000000000000000000000000000000000000000000000000008152600401610e5c90612750565b60405180910390fd5b6000610e70836106bf565b90508073ffffffffffffffffffffffffffffffffffffffff168473ffffffffffffffffffffffffffffffffffffffff161480610edf57508373ffffffffffffffffffffffffffffffffffffffff16610ec7846104a2565b73ffffffffffffffffffffffffffffffffffffffff16145b80610ef05750610eef8185610b12565b5b91505092915050565b8273ffffffffffffffffffffffffffffffffffffffff16610f19826106bf565b73ffffffffffffffffffffffffffffffffffffffff1614610f6f576040517f08c379a0000000000000000000000000000000000000000000000000000000008152600401610f66906127e2565b60405180910390fd5b600073ffffffffffffffffffffffffffffffffffffffff168273ffffffffffffffffffffffffffffffffffffffff161415610fdf576040517f08c379a0000000000000000000000000000000000000000000000000000000008152600401610fd690612874565b60405180910390fd5b610fea8383836117f6565b610ff5600082610d62565b6001600360008573ffffffffffffffffffffffffffffffffffffffff1673ffffffffffffffffffffffffffffffffffffffff168152602001908152602001600020600082825461104591906128c3565b925050819055506001600360008473ffffffffffffffffffffffffffffffffffffffff1673ffffffffffffffffffffffffffffffffffffffff168152602001908152602001600020600082825461109c91906128f7565b92505081905550816002600083815260200190815260200160002060006101000a81548173ffffffffffffffffffffffffffffffffffffffff021916908373ffffffffffffffffffffffffffffffffffffffff160217905550808273ffffffffffffffffffffffffffffffffffffffff168473ffffffffffffffffffffffffffffffffffffffff167fddf252ad1be2c89b69c2b068fc378daa952ba7f163c4a11628f55a4df523b3ef60405160405180910390a461115b8383836117fb565b505050565b8173ffffffffffffffffffffffffffffffffffffffff168373ffffffffffffffffffffffffffffffffffffffff1614156111cf576040517f08c379a00000000000000000000000000000000000000000000000000000000081526004016111c690612999565b60405180910390fd5b80600560008573ffffffffffffffffffffffffffffffffffffffff1673ffffffffffffffffffffffffffffffffffffffff16815260200190815260200160002060008473ffffffffffffffffffffffffffffffffffffffff1673ffffffffffffffffffffffffffffffffffffffff16815260200190815260200160002060006101000a81548160ff0219169083151502179055508173ffffffffffffffffffffffffffffffffffffffff168373ffffffffffffffffffffffffffffffffffffffff167f17307eab39ab6107e8899845ad3d59bd9653f200f220920489ca2b5937696c31836040516112c09190611b02565b60405180910390a3505050565b6112d8848484610ef9565b6112e484848484611800565b611323576040517f08c379a000000000000000000000000000000000000000000000000000000000815260040161131a90612a2b565b60405180910390fd5b50505050565b6060600880546113389061212a565b80601f01602080910402602001604051908101604052809291908181526020018280546113649061212a565b80156113b15780601f10611386576101008083540402835291602001916113b1565b820191906000526020600020905b81548152906001019060200180831161139457829003601f168201915b5050505050905090565b60606000821415611403576040518060400160405280600181526020017f30000000000000000000000000000000000000000000000000000000000000008152509050611517565b600082905060005b6000821461143557808061141e90612a4b565b915050600a8261142e9190612ac3565b915061140b565b60008167ffffffffffffffff81111561145157611450611e23565b5b6040519080825280601f01601f1916602001820160405280156114835781602001600182028036833780820191505090505b5090505b600085146115105760018261149c91906128c3565b9150600a856114ab9190612af4565b60306114b791906128f7565b60f81b8183815181106114cd576114cc612b25565b5b60200101907effffffffffffffffffffffffffffffffffffffffffffffffffffffffffffff1916908160001a905350600a856115099190612ac3565b9450611487565b8093505050505b919050565b6001816000016000828254019250508190555050565b600081600001549050919050565b600073ffffffffffffffffffffffffffffffffffffffff168273ffffffffffffffffffffffffffffffffffffffff1614156115b0576040517f08c379a00000000000000000000000000000000000000000000000000000000081526004016115a790612ba0565b60405180910390fd5b6115b981610cee565b156115f9576040517f08c379a00000000000000000000000000000000000000000000000000000000081526004016115f090612c0c565b60405180910390fd5b611605600083836117f6565b6001600360008473ffffffffffffffffffffffffffffffffffffffff1673ffffffffffffffffffffffffffffffffffffffff168152602001908152602001600020600082825461165591906128f7565b92505081905550816002600083815260200190815260200160002060006101000a81548173ffffffffffffffffffffffffffffffffffffffff021916908373ffffffffffffffffffffffffffffffffffffffff160217905550808273ffffffffffffffffffffffffffffffffffffffff16600073ffffffffffffffffffffffffffffffffffffffff167fddf252ad1be2c89b69c2b068fc378daa952ba7f163c4a11628f55a4df523b3ef60405160405180910390a4611716600083836117fb565b5050565b61172382610cee565b611762576040517f08c379a00000000000000000000000000000000000000000000000000000000081526004016117599061262c565b60405180910390fd5b600115156007600084815260200190815260200160002060009054906101000a900460ff16151514156117ca576040517f08c379a00000000000000000000000000000000000000000000000000000000081526004016117c190612c9e565b60405180910390fd5b806006600084815260200190815260200160002090805190602001906117f19291906119ab565b505050565b505050565b505050565b60006118218473ffffffffffffffffffffffffffffffffffffffff16611988565b1561197b578373ffffffffffffffffffffffffffffffffffffffff1663150b7a0261184a610d5a565b8786866040518563ffffffff1660e01b815260040161186c9493929190612d13565b6020604051808303816000875af19250505080156118a857506040513d601f19601f820116820180604052508101906118a59190612d74565b60015b61192b573d80600081146118d8576040519150601f19603f3d011682016040523d82523d6000602084013e6118dd565b606091505b50600081511415611923576040517f08c379a000000000000000000000000000000000000000000000000000000000815260040161191a90612a2b565b60405180910390fd5b805181602001fd5b63150b7a0260e01b7bffffffffffffffffffffffffffffffffffffffffffffffffffffffff1916817bffffffffffffffffffffffffffffffffffffffffffffffffffffffff191614915050611980565b600190505b949350505050565b6000808273ffffffffffffffffffffffffffffffffffffffff163b119050919050565b8280546119b79061212a565b90600052602060002090601f0160209004810192826119d95760008555611a20565b82601f106119f257805160ff1916838001178555611a20565b82800160010185558215611a20579182015b82811115611a1f578251825591602001919060010190611a04565b5b509050611a2d9190611a31565b5090565b5b80821115611a4a576000816000905550600101611a32565b5090565b6000604051905090565b600080fd5b600080fd5b60007fffffffff0000000000000000000000000000000000000000000000000000000082169050919050565b611a9781611a62565b8114611aa257600080fd5b50565b600081359050611ab481611a8e565b92915050565b600060208284031215611ad057611acf611a58565b5b6000611ade84828501611aa5565b91505092915050565b60008115159050919050565b611afc81611ae7565b82525050565b6000602082019050611b176000830184611af3565b92915050565b600081519050919050565b600082825260208201905092915050565b60005b83811015611b57578082015181840152602081019050611b3c565b83811115611b66576000848401525b50505050565b6000601f19601f8301169050919050565b6000611b8882611b1d565b611b928185611b28565b9350611ba2818560208601611b39565b611bab81611b6c565b840191505092915050565b60006020820190508181036000830152611bd08184611b7d565b905092915050565b6000819050919050565b611beb81611bd8565b8114611bf657600080fd5b50565b600081359050611c0881611be2565b92915050565b600060208284031215611c2457611c23611a58565b5b6000611c3284828501611bf9565b91505092915050565b600073ffffffffffffffffffffffffffffffffffffffff82169050919050565b6000611c6682611c3b565b9050919050565b611c7681611c5b565b82525050565b6000602082019050611c916000830184611c6d565b92915050565b611ca081611c5b565b8114611cab57600080fd5b50565b600081359050611cbd81611c97565b92915050565b60008060408385031215611cda57611cd9611a58565b5b6000611ce885828601611cae565b9250506020611cf985828601611bf9565b9150509250929050565b600080600060608486031215611d1c57611d1b611a58565b5b6000611d2a86828701611cae565b9350506020611d3b86828701611cae565b9250506040611d4c86828701611bf9565b9150509250925092565b600060208284031215611d6c57611d6b611a58565b5b6000611d7a84828501611cae565b91505092915050565b611d8c81611bd8565b82525050565b6000602082019050611da76000830184611d83565b92915050565b611db681611ae7565b8114611dc157600080fd5b50565b600081359050611dd381611dad565b92915050565b60008060408385031215611df057611def611a58565b5b6000611dfe85828601611cae565b9250506020611e0f85828601611dc4565b9150509250929050565b600080fd5b600080fd5b7f4e487b7100000000000000000000000000000000000000000000000000000000600052604160045260246000fd5b611e5b82611b6c565b810181811067ffffffffffffffff82111715611e7a57611e79611e23565b5b80604052505050565b6000611e8d611a4e565b9050611e998282611e52565b919050565b600067ffffffffffffffff821115611eb957611eb8611e23565b5b611ec282611b6c565b9050602081019050919050565b82818337600083830152505050565b6000611ef1611eec84611e9e565b611e83565b905082815260208101848484011115611f0d57611f0c611e1e565b5b611f18848285611ecf565b509392505050565b600082601f830112611f3557611f34611e19565b5b8135611f45848260208601611ede565b91505092915050565b60008060008060808587031215611f6857611f67611a58565b5b6000611f7687828801611cae565b9450506020611f8787828801611cae565b9350506040611f9887828801611bf9565b925050606085013567ffffffffffffffff811115611fb957611fb8611a5d565b5b611fc587828801611f20565b91505092959194509250565b600067ffffffffffffffff821115611fec57611feb611e23565b5b611ff582611b6c565b9050602081019050919050565b600061201561201084611fd1565b611e83565b90508281526020810184848401111561203157612030611e1e565b5b61203c848285611ecf565b509392505050565b600082601f83011261205957612058611e19565b5b8135612069848260208601612002565b91505092915050565b60006020828403121561208857612087611a58565b5b600082013567ffffffffffffffff8111156120a6576120a5611a5d565b5b6120b284828501612044565b91505092915050565b600080604083850312156120d2576120d1611a58565b5b60006120e085828601611cae565b92505060206120f185828601611cae565b9150509250929050565b7f4e487b7100000000000000000000000000000000000000000000000000000000600052602260045260246000fd5b6000600282049050600182168061214257607f821691505b60208210811415612156576121556120fb565b5b50919050565b7f4552433732313a20617070726f76656420717565727920666f72206e6f6e657860008201527f697374656e7420746f6b656e0000000000000000000000000000000000000000602082015250565b60006121b8602c83611b28565b91506121c38261215c565b604082019050919050565b600060208201905081810360008301526121e7816121ab565b9050919050565b7f4552433732313a20617070726f76616c20746f2063757272656e74206f776e6560008201527f7200000000000000000000000000000000000000000000000000000000000000602082015250565b600061224a602183611b28565b9150612255826121ee565b604082019050919050565b600060208201905081810360008301526122798161223d565b9050919050565b7f4552433732313a20617070726f76652063616c6c6572206973206e6f74206f7760008201527f6e6572206e6f7220617070726f76656420666f7220616c6c0000000000000000602082015250565b60006122dc603883611b28565b91506122e782612280565b604082019050919050565b6000602082019050818103600083015261230b816122cf565b9050919050565b7f4552433732313a207472616e736665722063616c6c6572206973206e6f74206f60008201527f776e6572206e6f7220617070726f766564000000000000000000000000000000602082015250565b600061236e603183611b28565b915061237982612312565b604082019050919050565b6000602082019050818103600083015261239d81612361565b9050919050565b7f4552433732313a206f776e657220717565727920666f72206e6f6e657869737460008201527f656e7420746f6b656e0000000000000000000000000000000000000000000000602082015250565b6000612400602983611b28565b915061240b826123a4565b604082019050919050565b6000602082019050818103600083015261242f816123f3565b9050919050565b7f4552433732313a2062616c616e636520717565727920666f7220746865207a6560008201527f726f206164647265737300000000000000000000000000000000000000000000602082015250565b6000612492602a83611b28565b915061249d82612436565b604082019050919050565b600060208201905081810360008301526124c181612485565b9050919050565b7f4552433732314d657461646174613a2055524920717565727920666f72206e6f60008201527f6e6578697374656e7420746f6b656e0000000000000000000000000000000000602082015250565b6000612524602f83611b28565b915061252f826124c8565b604082019050919050565b6000602082019050818103600083015261255381612517565b9050919050565b600081905092915050565b600061257082611b1d565b61257a818561255a565b935061258a818560208601611b39565b80840191505092915050565b60006125a28285612565565b91506125ae8284612565565b91508190509392505050565b7f4552433732314d657461646174613a2055524920736574206f66206e6f6e657860008201527f697374656e7420746f6b656e0000000000000000000000000000000000000000602082015250565b6000612616602c83611b28565b9150612621826125ba565b604082019050919050565b6000602082019050818103600083015261264581612609565b9050919050565b7f4552433732314d657461646174613a204d6574616461746120697320616c726560008201527f6164792073657420746f206e6f74206564697461626c65000000000000000000602082015250565b60006126a8603783611b28565b91506126b38261264c565b604082019050919050565b600060208201905081810360008301526126d78161269b565b9050919050565b7f4552433732313a206f70657261746f7220717565727920666f72206e6f6e657860008201527f697374656e7420746f6b656e0000000000000000000000000000000000000000602082015250565b600061273a602c83611b28565b9150612745826126de565b604082019050919050565b600060208201905081810360008301526127698161272d565b9050919050565b7f4552433732313a207472616e736665722066726f6d20696e636f72726563742060008201527f6f776e6572000000000000000000000000000000000000000000000000000000602082015250565b60006127cc602583611b28565b91506127d782612770565b604082019050919050565b600060208201905081810360008301526127fb816127bf565b9050919050565b7f4552433732313a207472616e7366657220746f20746865207a65726f2061646460008201527f7265737300000000000000000000000000000000000000000000000000000000602082015250565b600061285e602483611b28565b915061286982612802565b604082019050919050565b6000602082019050818103600083015261288d81612851565b9050919050565b7f4e487b7100000000000000000000000000000000000000000000000000000000600052601160045260246000fd5b60006128ce82611bd8565b91506128d983611bd8565b9250828210156128ec576128eb612894565b5b828203905092915050565b600061290282611bd8565b915061290d83611bd8565b9250827fffffffffffffffffffffffffffffffffffffffffffffffffffffffffffffffff0382111561294257612941612894565b5b828201905092915050565b7f4552433732313a20617070726f766520746f2063616c6c657200000000000000600082015250565b6000612983601983611b28565b915061298e8261294d565b602082019050919050565b600060208201905081810360008301526129b281612976565b9050919050565b7f4552433732313a207472616e7366657220746f206e6f6e20455243373231526560008201527f63656976657220696d706c656d656e7465720000000000000000000000000000602082015250565b6000612a15603283611b28565b9150612a20826129b9565b604082019050919050565b60006020820190508181036000830152612a4481612a08565b9050919050565b6000612a5682611bd8565b91507fffffffffffffffffffffffffffffffffffffffffffffffffffffffffffffffff821415612a8957612a88612894565b5b600182019050919050565b7f4e487b7100000000000000000000000000000000000000000000000000000000600052601260045260246000fd5b6000612ace82611bd8565b9150612ad983611bd8565b925082612ae957612ae8612a94565b5b828204905092915050565b6000612aff82611bd8565b9150612b0a83611bd8565b925082612b1a57612b19612a94565b5b828206905092915050565b7f4e487b7100000000000000000000000000000000000000000000000000000000600052603260045260246000fd5b7f4552433732313a206d696e7420746f20746865207a65726f2061646472657373600082015250565b6000612b8a602083611b28565b9150612b9582612b54565b602082019050919050565b60006020820190508181036000830152612bb981612b7d565b9050919050565b7f4552433732313a20746f6b656e20616c7265616479206d696e74656400000000600082015250565b6000612bf6601c83611b28565b9150612c0182612bc0565b602082019050919050565b60006020820190508181036000830152612c2581612be9565b9050919050565b7f4552433732314d657461646174613a204d65746164617461206973206e6f742060008201527f6564697461626c65206e6f770000000000000000000000000000000000000000602082015250565b6000612c88602c83611b28565b9150612c9382612c2c565b604082019050919050565b60006020820190508181036000830152612cb781612c7b565b9050919050565b600081519050919050565b600082825260208201905092915050565b6000612ce582612cbe565b612cef8185612cc9565b9350612cff818560208601611b39565b612d0881611b6c565b840191505092915050565b6000608082019050612d286000830187611c6d565b612d356020830186611c6d565b612d426040830185611d83565b8181036060830152612d548184612cda565b905095945050505050565b600081519050612d6e81611a8e565b92915050565b600060208284031215612d8a57612d89611a58565b5b6000612d9884828501612d5f565b9150509291505056fea264697066735822122038a9bd9bf4353d4c26eaa7b6d26c2ad2415b65ba4f9353e94480461255effed264736f6c634300080c0033",
  "immutableReferences": {},
  "source": "pragma solidity ^0.8.0;\n\nimport \"@openzeppelin/contracts/token/ERC721/ERC721.sol\";\nimport \"@openzeppelin/contracts/utils/Counters.sol\";\nimport \"@openzeppelin/contracts/access/Ownable.sol\";\n\ncontract TracksContract is ERC721 {\n    //----------------------Permanent Uri code---------------------//\n    using Strings for uint256;\n\n    // Optional mapping for token URIs\n    mapping(uint256 => string) private _tokenURIs;\n\n    mapping(uint256 => bool) private _permanentURI;\n\n    // Base URI\n    string private _baseURIextended;\n\n    function _setTokenURI(uint256 tokenId, string memory _tokenURI)\n        internal\n        virtual\n    {\n        require(\n            _exists(tokenId),\n            \"ERC721Metadata: URI set of nonexistent token\"\n        );\n\n        require(\n            _permanentURI[tokenId] != true,\n            \"ERC721Metadata: Metadata is not editable now\"\n        );\n\n        _tokenURIs[tokenId] = _tokenURI;\n    }\n\n    function _lockTokenURI(uint256 tokenId) public virtual {\n        require(\n            _exists(tokenId),\n            \"ERC721Metadata: URI set of nonexistent token\"\n        );\n\n        require(\n            _permanentURI[tokenId] == false,\n            \"ERC721Metadata: Metadata is already set to not editable\"\n        );\n\n        _permanentURI[tokenId] = true;\n    }\n\n    function _baseURI() internal view virtual override returns (string memory) {\n        return _baseURIextended;\n    }\n\n    function tokenURI(uint256 tokenId)\n        public\n        view\n        virtual\n        override\n        returns (string memory)\n    {\n        require(\n            _exists(tokenId),\n            \"ERC721Metadata: URI query for nonexistent token\"\n        );\n\n        string memory _tokenURI = _tokenURIs[tokenId];\n        string memory base = _baseURI();\n\n        // If there is no base URI, return the token URI.\n        if (bytes(base).length == 0) {\n            return _tokenURI;\n        }\n        // If both are set, concatenate the baseURI and tokenURI (via abi.encodePacked).\n        if (bytes(_tokenURI).length > 0) {\n            return string(abi.encodePacked(base, _tokenURI));\n        }\n        // If there is a baseURI but no tokenURI, concatenate the tokenID to the baseURI.\n        return string(abi.encodePacked(base, tokenId.toString()));\n    }\n\n    //----------------------Tracks Related code---------------------//\n    using Counters for Counters.Counter;\n    Counters.Counter private _tokenIds;\n\n    //Keep the baseURI empty if you want to have different URIs without any structure\n    constructor(string memory baseURI_) ERC721(\"Tracks\", \"TRKS\") {\n        _baseURIextended = baseURI_;\n    }\n\n    // /**\n    //  * @dev This function will be called by the user to create a new contribution\n    //  * @param filehash Id of tracks that are part of this contribution\n    //  * @param fileLink this is preview file of the contribution\n    //  * @param category this is hash of the preview file\n    //  */\n    function createNewTrack(string memory uri) public returns (uint256) {\n        _tokenIds.increment();\n\n        uint256 newTrackId = _tokenIds.current();\n        _mint(msg.sender, newTrackId);\n        _permanentURI[newTrackId] = false;\n        _setTokenURI(newTrackId, uri);\n        _lockTokenURI(newTrackId);\n        return newTrackId;\n    }\n}\n",
  "sourcePath": "/Users/a1/Desktop/Office/projects/CrowdRecords/Contracts/contracts/TracksContract.sol",
  "compiler": {
    "name": "solc",
    "version": "0.8.12+commit.f00d7308.Emscripten.clang"
  },
  "schemaVersion": "3.4.6",
  "updatedAt": "2022-03-26T13:42:32.778Z",
  "networkType": "ethereum",
  "devdoc": {
    "kind": "dev",
    "methods": {
      "approve(address,uint256)": {
        "details": "See {IERC721-approve}."
      },
      "balanceOf(address)": {
        "details": "See {IERC721-balanceOf}."
      },
      "getApproved(uint256)": {
        "details": "See {IERC721-getApproved}."
      },
      "isApprovedForAll(address,address)": {
        "details": "See {IERC721-isApprovedForAll}."
      },
      "name()": {
        "details": "See {IERC721Metadata-name}."
      },
      "ownerOf(uint256)": {
        "details": "See {IERC721-ownerOf}."
      },
      "safeTransferFrom(address,address,uint256)": {
        "details": "See {IERC721-safeTransferFrom}."
      },
      "safeTransferFrom(address,address,uint256,bytes)": {
        "details": "See {IERC721-safeTransferFrom}."
      },
      "setApprovalForAll(address,bool)": {
        "details": "See {IERC721-setApprovalForAll}."
      },
      "supportsInterface(bytes4)": {
        "details": "See {IERC165-supportsInterface}."
      },
      "symbol()": {
        "details": "See {IERC721Metadata-symbol}."
      },
      "tokenURI(uint256)": {
        "details": "See {IERC721Metadata-tokenURI}."
      },
      "transferFrom(address,address,uint256)": {
        "details": "See {IERC721-transferFrom}."
      }
    },
    "version": 1
  },
  "userdoc": {
    "kind": "user",
    "methods": {},
    "version": 1
  }
}