{
  "contractName": "TreasuryContract",
  "abi": [
    {
      "inputs": [],
      "stateMutability": "nonpayable",
      "type": "constructor"
    },
    {
      "anonymous": false,
      "inputs": [
        {
          "indexed": true,
          "internalType": "address",
          "name": "account",
          "type": "address"
        },
        {
          "indexed": true,
          "internalType": "address",
          "name": "operator",
          "type": "address"
        },
        {
          "indexed": false,
          "internalType": "bool",
          "name": "approved",
          "type": "bool"
        }
      ],
      "name": "ApprovalForAll",
      "type": "event"
    },
    {
      "anonymous": false,
      "inputs": [
        {
          "indexed": false,
          "internalType": "uint256",
          "name": "recordId",
          "type": "uint256"
        },
        {
          "indexed": false,
          "internalType": "string",
          "name": "name",
          "type": "string"
        },
        {
          "indexed": false,
          "internalType": "string",
          "name": "symbol",
          "type": "string"
        },
        {
          "indexed": false,
          "internalType": "string",
          "name": "image",
          "type": "string"
        },
        {
          "indexed": false,
          "internalType": "uint256",
          "name": "creationDate",
          "type": "uint256"
        },
        {
          "indexed": false,
          "internalType": "uint256",
          "name": "tokenId",
          "type": "uint256"
        }
      ],
      "name": "NewCommunityTokenCreated",
      "type": "event"
    },
    {
      "anonymous": false,
      "inputs": [
        {
          "indexed": false,
          "internalType": "uint256",
          "name": "recordId",
          "type": "uint256"
        },
        {
          "indexed": false,
          "internalType": "string",
          "name": "name",
          "type": "string"
        },
        {
          "indexed": false,
          "internalType": "string",
          "name": "symbol",
          "type": "string"
        },
        {
          "indexed": false,
          "internalType": "string",
          "name": "image",
          "type": "string"
        },
        {
          "indexed": false,
          "internalType": "uint256",
          "name": "creationDate",
          "type": "uint256"
        },
        {
          "indexed": false,
          "internalType": "uint256",
          "name": "tokenId",
          "type": "uint256"
        }
      ],
      "name": "NewGovernanceTokenCreated",
      "type": "event"
    },
    {
      "anonymous": false,
      "inputs": [
        {
          "indexed": false,
          "internalType": "address",
          "name": "from",
          "type": "address"
        },
        {
          "indexed": false,
          "internalType": "address",
          "name": "to",
          "type": "address"
        },
        {
          "indexed": false,
          "internalType": "uint256",
          "name": "transferDate",
          "type": "uint256"
        },
        {
          "indexed": false,
          "internalType": "uint256",
          "name": "tokenId",
          "type": "uint256"
        },
        {
          "indexed": false,
          "internalType": "uint256",
          "name": "amount",
          "type": "uint256"
        },
        {
          "indexed": false,
          "internalType": "string",
          "name": "symbol",
          "type": "string"
        }
      ],
      "name": "TokenTransfer",
      "type": "event"
    },
    {
      "anonymous": false,
      "inputs": [
        {
          "indexed": true,
          "internalType": "address",
          "name": "operator",
          "type": "address"
        },
        {
          "indexed": true,
          "internalType": "address",
          "name": "from",
          "type": "address"
        },
        {
          "indexed": true,
          "internalType": "address",
          "name": "to",
          "type": "address"
        },
        {
          "indexed": false,
          "internalType": "uint256[]",
          "name": "ids",
          "type": "uint256[]"
        },
        {
          "indexed": false,
          "internalType": "uint256[]",
          "name": "values",
          "type": "uint256[]"
        }
      ],
      "name": "TransferBatch",
      "type": "event"
    },
    {
      "anonymous": false,
      "inputs": [
        {
          "indexed": true,
          "internalType": "address",
          "name": "operator",
          "type": "address"
        },
        {
          "indexed": true,
          "internalType": "address",
          "name": "from",
          "type": "address"
        },
        {
          "indexed": true,
          "internalType": "address",
          "name": "to",
          "type": "address"
        },
        {
          "indexed": false,
          "internalType": "uint256",
          "name": "id",
          "type": "uint256"
        },
        {
          "indexed": false,
          "internalType": "uint256",
          "name": "value",
          "type": "uint256"
        }
      ],
      "name": "TransferSingle",
      "type": "event"
    },
    {
      "anonymous": false,
      "inputs": [
        {
          "indexed": false,
          "internalType": "string",
          "name": "value",
          "type": "string"
        },
        {
          "indexed": true,
          "internalType": "uint256",
          "name": "id",
          "type": "uint256"
        }
      ],
      "name": "URI",
      "type": "event"
    },
    {
      "inputs": [],
      "name": "CRD",
      "outputs": [
        {
          "internalType": "uint256",
          "name": "",
          "type": "uint256"
        }
      ],
      "stateMutability": "view",
      "type": "function"
    },
    {
      "inputs": [],
      "name": "RECORDS_CONTRACT_ADDRESS",
      "outputs": [
        {
          "internalType": "address",
          "name": "",
          "type": "address"
        }
      ],
      "stateMutability": "view",
      "type": "function"
    },
    {
      "inputs": [
        {
          "internalType": "address",
          "name": "account",
          "type": "address"
        },
        {
          "internalType": "uint256",
          "name": "id",
          "type": "uint256"
        }
      ],
      "name": "balanceOf",
      "outputs": [
        {
          "internalType": "uint256",
          "name": "",
          "type": "uint256"
        }
      ],
      "stateMutability": "view",
      "type": "function"
    },
    {
      "inputs": [
        {
          "internalType": "address[]",
          "name": "accounts",
          "type": "address[]"
        },
        {
          "internalType": "uint256[]",
          "name": "ids",
          "type": "uint256[]"
        }
      ],
      "name": "balanceOfBatch",
      "outputs": [
        {
          "internalType": "uint256[]",
          "name": "",
          "type": "uint256[]"
        }
      ],
      "stateMutability": "view",
      "type": "function"
    },
    {
      "inputs": [
        {
          "internalType": "uint256",
          "name": "id",
          "type": "uint256"
        }
      ],
      "name": "exists",
      "outputs": [
        {
          "internalType": "bool",
          "name": "",
          "type": "bool"
        }
      ],
      "stateMutability": "view",
      "type": "function"
    },
    {
      "inputs": [
        {
          "internalType": "address",
          "name": "account",
          "type": "address"
        },
        {
          "internalType": "address",
          "name": "operator",
          "type": "address"
        }
      ],
      "name": "isApprovedForAll",
      "outputs": [
        {
          "internalType": "bool",
          "name": "",
          "type": "bool"
        }
      ],
      "stateMutability": "view",
      "type": "function"
    },
    {
      "inputs": [
        {
          "internalType": "address",
          "name": "from",
          "type": "address"
        },
        {
          "internalType": "address",
          "name": "to",
          "type": "address"
        },
        {
          "internalType": "uint256[]",
          "name": "ids",
          "type": "uint256[]"
        },
        {
          "internalType": "uint256[]",
          "name": "amounts",
          "type": "uint256[]"
        },
        {
          "internalType": "bytes",
          "name": "data",
          "type": "bytes"
        }
      ],
      "name": "safeBatchTransferFrom",
      "outputs": [],
      "stateMutability": "nonpayable",
      "type": "function"
    },
    {
      "inputs": [
        {
          "internalType": "address",
          "name": "from",
          "type": "address"
        },
        {
          "internalType": "address",
          "name": "to",
          "type": "address"
        },
        {
          "internalType": "uint256",
          "name": "id",
          "type": "uint256"
        },
        {
          "internalType": "uint256",
          "name": "amount",
          "type": "uint256"
        },
        {
          "internalType": "bytes",
          "name": "data",
          "type": "bytes"
        }
      ],
      "name": "safeTransferFrom",
      "outputs": [],
      "stateMutability": "nonpayable",
      "type": "function"
    },
    {
      "inputs": [
        {
          "internalType": "address",
          "name": "operator",
          "type": "address"
        },
        {
          "internalType": "bool",
          "name": "approved",
          "type": "bool"
        }
      ],
      "name": "setApprovalForAll",
      "outputs": [],
      "stateMutability": "nonpayable",
      "type": "function"
    },
    {
      "inputs": [
        {
          "internalType": "bytes4",
          "name": "interfaceId",
          "type": "bytes4"
        }
      ],
      "name": "supportsInterface",
      "outputs": [
        {
          "internalType": "bool",
          "name": "",
          "type": "bool"
        }
      ],
      "stateMutability": "view",
      "type": "function"
    },
    {
      "inputs": [
        {
          "internalType": "uint256",
          "name": "id",
          "type": "uint256"
        }
      ],
      "name": "totalSupply",
      "outputs": [
        {
          "internalType": "uint256",
          "name": "",
          "type": "uint256"
        }
      ],
      "stateMutability": "view",
      "type": "function"
    },
    {
      "inputs": [
        {
          "internalType": "uint256",
          "name": "",
          "type": "uint256"
        }
      ],
      "name": "uri",
      "outputs": [
        {
          "internalType": "string",
          "name": "",
          "type": "string"
        }
      ],
      "stateMutability": "view",
      "type": "function"
    },
    {
      "inputs": [
        {
          "internalType": "address",
          "name": "newRecordsContractAddress",
          "type": "address"
        }
      ],
      "name": "setRecordsContractAddress",
      "outputs": [],
      "stateMutability": "nonpayable",
      "type": "function"
    },
    {
      "inputs": [
        {
          "internalType": "uint256",
          "name": "recordId",
          "type": "uint256"
        },
        {
          "internalType": "uint256",
          "name": "totalSupply",
          "type": "uint256"
        },
        {
          "internalType": "uint256",
          "name": "userBalance",
          "type": "uint256"
        },
        {
          "internalType": "string",
          "name": "symbol",
          "type": "string"
        },
        {
          "internalType": "string",
          "name": "image",
          "type": "string"
        }
      ],
      "name": "createNewGovernanceToken",
      "outputs": [
        {
          "internalType": "uint256",
          "name": "",
          "type": "uint256"
        }
      ],
      "stateMutability": "nonpayable",
      "type": "function"
    }
  ],
  "bytecode": "0x608060405260016004553480156200001657600080fd5b506040518060400160405280601d81526020017f68747470733a2f2f63726f77647265636f7264732e636f6d2f7b69647d0000008152506200005e81620000f460201b60201c565b50620000ad336001633b9aca006040518060400160405280601881526020017f68747470733a2f2f63726f77647265636f7264732e636f6d00000000000000008152506200011060201b60201c565b33600660006101000a81548173ffffffffffffffffffffffffffffffffffffffff021916908373ffffffffffffffffffffffffffffffffffffffff16021790555062000f32565b80600290805190602001906200010c92919062000724565b5050565b600073ffffffffffffffffffffffffffffffffffffffff168473ffffffffffffffffffffffffffffffffffffffff16141562000183576040517f08c379a00000000000000000000000000000000000000000000000000000000081526004016200017a906200085b565b60405180910390fd5b600062000195620002d560201b60201c565b9050620001ce81600087620001b088620002dd60201b60201c565b620001c188620002dd60201b60201c565b876200035e60201b60201c565b8260008086815260200190815260200160002060008773ffffffffffffffffffffffffffffffffffffffff1673ffffffffffffffffffffffffffffffffffffffff16815260200190815260200160002060008282546200022f9190620008b6565b925050819055508473ffffffffffffffffffffffffffffffffffffffff16600073ffffffffffffffffffffffffffffffffffffffff168273ffffffffffffffffffffffffffffffffffffffff167fc3d58168c5ae7397731d063d5bbf3d657854427343f4c083240f7aacaa2d0f628787604051620002af92919062000924565b60405180910390a4620002ce81600087878787620004ff60201b60201c565b5050505050565b600033905090565b60606000600167ffffffffffffffff811115620002ff57620002fe62000951565b5b6040519080825280602002602001820160405280156200032e5781602001602082028036833780820191505090505b509050828160008151811062000349576200034862000980565b5b60200260200101818152505080915050919050565b62000379868686868686620006f960201b62000d0f1760201c565b600073ffffffffffffffffffffffffffffffffffffffff168573ffffffffffffffffffffffffffffffffffffffff161415620004385760005b83518110156200043657828181518110620003d257620003d162000980565b5b602002602001015160036000868481518110620003f457620003f362000980565b5b6020026020010151815260200190815260200160002060008282546200041b9190620008b6565b92505081905550806200042e90620009af565b9050620003b2565b505b600073ffffffffffffffffffffffffffffffffffffffff168473ffffffffffffffffffffffffffffffffffffffff161415620004f75760005b8351811015620004f55782818151811062000491576200049062000980565b5b602002602001015160036000868481518110620004b357620004b262000980565b5b602002602001015181526020019081526020016000206000828254620004da9190620009fd565b9250508190555080620004ed90620009af565b905062000471565b505b505050505050565b6200052b8473ffffffffffffffffffffffffffffffffffffffff166200070160201b62000d171760201c565b15620006f1578373ffffffffffffffffffffffffffffffffffffffff1663f23a6e6187878686866040518663ffffffff1660e01b81526004016200057495949392919062000b21565b6020604051808303816000875af1925050508015620005b357506040513d601f19601f82011682018060405250810190620005b0919062000bf1565b60015b6200066557620005c262000c30565b806308c379a01415620006265750620005da62000c8b565b80620005e7575062000628565b806040517f08c379a00000000000000000000000000000000000000000000000000000000081526004016200061d919062000d79565b60405180910390fd5b505b6040517f08c379a00000000000000000000000000000000000000000000000000000000081526004016200065c9062000e13565b60405180910390fd5b63f23a6e6160e01b7bffffffffffffffffffffffffffffffffffffffffffffffffffffffff1916817bffffffffffffffffffffffffffffffffffffffffffffffffffffffff191614620006ef576040517f08c379a0000000000000000000000000000000000000000000000000000000008152600401620006e69062000eab565b60405180910390fd5b505b505050505050565b505050505050565b6000808273ffffffffffffffffffffffffffffffffffffffff163b119050919050565b828054620007329062000efc565b90600052602060002090601f016020900481019282620007565760008555620007a2565b82601f106200077157805160ff1916838001178555620007a2565b82800160010185558215620007a2579182015b82811115620007a157825182559160200191906001019062000784565b5b509050620007b19190620007b5565b5090565b5b80821115620007d0576000816000905550600101620007b6565b5090565b600082825260208201905092915050565b7f455243313135353a206d696e7420746f20746865207a65726f2061646472657360008201527f7300000000000000000000000000000000000000000000000000000000000000602082015250565b600062000843602183620007d4565b91506200085082620007e5565b604082019050919050565b60006020820190508181036000830152620008768162000834565b9050919050565b6000819050919050565b7f4e487b7100000000000000000000000000000000000000000000000000000000600052601160045260246000fd5b6000620008c3826200087d565b9150620008d0836200087d565b9250827fffffffffffffffffffffffffffffffffffffffffffffffffffffffffffffffff0382111562000908576200090762000887565b5b828201905092915050565b6200091e816200087d565b82525050565b60006040820190506200093b600083018562000913565b6200094a602083018462000913565b9392505050565b7f4e487b7100000000000000000000000000000000000000000000000000000000600052604160045260246000fd5b7f4e487b7100000000000000000000000000000000000000000000000000000000600052603260045260246000fd5b6000620009bc826200087d565b91507fffffffffffffffffffffffffffffffffffffffffffffffffffffffffffffffff821415620009f257620009f162000887565b5b600182019050919050565b600062000a0a826200087d565b915062000a17836200087d565b92508282101562000a2d5762000a2c62000887565b5b828203905092915050565b600073ffffffffffffffffffffffffffffffffffffffff82169050919050565b600062000a658262000a38565b9050919050565b62000a778162000a58565b82525050565b600081519050919050565b600082825260208201905092915050565b60005b8381101562000ab957808201518184015260208101905062000a9c565b8381111562000ac9576000848401525b50505050565b6000601f19601f8301169050919050565b600062000aed8262000a7d565b62000af9818562000a88565b935062000b0b81856020860162000a99565b62000b168162000acf565b840191505092915050565b600060a08201905062000b38600083018862000a6c565b62000b47602083018762000a6c565b62000b56604083018662000913565b62000b65606083018562000913565b818103608083015262000b79818462000ae0565b90509695505050505050565b6000604051905090565b600080fd5b60007fffffffff0000000000000000000000000000000000000000000000000000000082169050919050565b62000bcb8162000b94565b811462000bd757600080fd5b50565b60008151905062000beb8162000bc0565b92915050565b60006020828403121562000c0a5762000c0962000b8f565b5b600062000c1a8482850162000bda565b91505092915050565b60008160e01c9050919050565b600060033d111562000c525760046000803e62000c4f60005162000c23565b90505b90565b62000c608262000acf565b810181811067ffffffffffffffff8211171562000c825762000c8162000951565b5b80604052505050565b600060443d101562000c9d5762000d2a565b62000ca762000b85565b60043d036004823e80513d602482011167ffffffffffffffff8211171562000cd157505062000d2a565b808201805167ffffffffffffffff81111562000cf1575050505062000d2a565b80602083010160043d03850181111562000d1057505050505062000d2a565b62000d218260200185018662000c55565b82955050505050505b90565b600081519050919050565b600062000d458262000d2d565b62000d518185620007d4565b935062000d6381856020860162000a99565b62000d6e8162000acf565b840191505092915050565b6000602082019050818103600083015262000d95818462000d38565b905092915050565b7f455243313135353a207472616e7366657220746f206e6f6e204552433131353560008201527f526563656976657220696d706c656d656e746572000000000000000000000000602082015250565b600062000dfb603483620007d4565b915062000e088262000d9d565b604082019050919050565b6000602082019050818103600083015262000e2e8162000dec565b9050919050565b7f455243313135353a204552433131353552656365697665722072656a6563746560008201527f6420746f6b656e73000000000000000000000000000000000000000000000000602082015250565b600062000e93602883620007d4565b915062000ea08262000e35565b604082019050919050565b6000602082019050818103600083015262000ec68162000e84565b9050919050565b7f4e487b7100000000000000000000000000000000000000000000000000000000600052602260045260246000fd5b6000600282049050600182168062000f1557607f821691505b6020821081141562000f2c5762000f2b62000ecd565b5b50919050565b6135b98062000f426000396000f3fe608060405234801561001057600080fd5b50600436106100e95760003560e01c8063a54a017a1161008c578063dfe813eb11610066578063dfe813eb14610294578063e6acd9b8146102b0578063e985e9c5146102ce578063f242432a146102fe576100e9565b8063a54a017a14610216578063ba19a67514610246578063bd85b03914610264576100e9565b80632eb2c2d6116100c85780632eb2c2d61461017e5780634e1273f41461019a5780634f558e79146101ca578063a22cb465146101fa576100e9565b8062fdd58e146100ee57806301ffc9a71461011e5780630e89341c1461014e575b600080fd5b61010860048036038101906101039190611c91565b61031a565b6040516101159190611ce0565b60405180910390f35b61013860048036038101906101339190611d53565b6103e3565b6040516101459190611d9b565b60405180910390f35b61016860048036038101906101639190611db6565b6104c5565b6040516101759190611e7c565b60405180910390f35b6101986004803603810190610193919061209b565b610559565b005b6101b460048036038101906101af919061222d565b6105fa565b6040516101c19190612363565b60405180910390f35b6101e460048036038101906101df9190611db6565b610713565b6040516101f19190611d9b565b60405180910390f35b610214600480360381019061020f91906123b1565b610727565b005b610230600480360381019061022b9190612492565b61073d565b60405161023d9190611ce0565b60405180910390f35b61024e610abe565b60405161025b9190612554565b60405180910390f35b61027e60048036038101906102799190611db6565b610ae4565b60405161028b9190611ce0565b60405180910390f35b6102ae60048036038101906102a9919061256f565b610b01565b005b6102b8610bd5565b6040516102c59190611ce0565b60405180910390f35b6102e860048036038101906102e3919061259c565b610bda565b6040516102f59190611d9b565b60405180910390f35b610318600480360381019061031391906125dc565b610c6e565b005b60008073ffffffffffffffffffffffffffffffffffffffff168373ffffffffffffffffffffffffffffffffffffffff16141561038b576040517f08c379a0000000000000000000000000000000000000000000000000000000008152600401610382906126e5565b60405180910390fd5b60008083815260200190815260200160002060008473ffffffffffffffffffffffffffffffffffffffff1673ffffffffffffffffffffffffffffffffffffffff16815260200190815260200160002054905092915050565b60007fd9b67a26000000000000000000000000000000000000000000000000000000007bffffffffffffffffffffffffffffffffffffffffffffffffffffffff1916827bffffffffffffffffffffffffffffffffffffffffffffffffffffffff191614806104ae57507f0e89341c000000000000000000000000000000000000000000000000000000007bffffffffffffffffffffffffffffffffffffffffffffffffffffffff1916827bffffffffffffffffffffffffffffffffffffffffffffffffffffffff1916145b806104be57506104bd82610d3a565b5b9050919050565b6060600280546104d490612734565b80601f016020809104026020016040519081016040528092919081815260200182805461050090612734565b801561054d5780601f106105225761010080835404028352916020019161054d565b820191906000526020600020905b81548152906001019060200180831161053057829003601f168201915b50505050509050919050565b610561610da4565b73ffffffffffffffffffffffffffffffffffffffff168573ffffffffffffffffffffffffffffffffffffffff1614806105a757506105a6856105a1610da4565b610bda565b5b6105e6576040517f08c379a00000000000000000000000000000000000000000000000000000000081526004016105dd906127d8565b60405180910390fd5b6105f38585858585610dac565b5050505050565b60608151835114610640576040517f08c379a00000000000000000000000000000000000000000000000000000000081526004016106379061286a565b60405180910390fd5b6000835167ffffffffffffffff81111561065d5761065c611ea3565b5b60405190808252806020026020018201604052801561068b5781602001602082028036833780820191505090505b50905060005b8451811015610708576106d88582815181106106b0576106af61288a565b5b60200260200101518583815181106106cb576106ca61288a565b5b602002602001015161031a565b8282815181106106eb576106ea61288a565b5b60200260200101818152505080610701906128e8565b9050610691565b508091505092915050565b60008061071f83610ae4565b119050919050565b610739610732610da4565b83836110c0565b5050565b60008015156007600088815260200190815260200160002060040160009054906101000a900460ff161515146107a8576040517f08c379a000000000000000000000000000000000000000000000000000000000815260040161079f906129a3565b60405180910390fd5b600015156009846040516107bc91906129ff565b908152602001604051809103902060009054906101000a900460ff1615151461081a576040517f08c379a000000000000000000000000000000000000000000000000000000000815260040161081190612a88565b60405180910390fd5b836002866108289190612ad7565b11610868576040517f08c379a000000000000000000000000000000000000000000000000000000000815260040161085f90612b7a565b60405180910390fd5b6000600560009054906101000a900473ffffffffffffffffffffffffffffffffffffffff16905060008173ffffffffffffffffffffffffffffffffffffffff1662fdd58e338a6040518363ffffffff1660e01b81526004016108cb929190612b9a565b602060405180830381865afa1580156108e8573d6000803e3d6000fd5b505050506040513d601f19601f8201168201806040525081019061090c9190612bd8565b905060008111610951576040517f08c379a000000000000000000000000000000000000000000000000000000000815260040161094890612c77565b60405180910390fd5b60046000815480929190610964906128e8565b9190505550600060045490506109a53082633b9aca008b6109859190612c97565b8a6109909190612cf1565b6040518060200160405280600081525061122d565b7fe8759ef2f3b149474717ad4733600f7038cb0b4e968cf9f67e8162b2080dbef730304284633b9aca008d6109da9190612c97565b8c6109e59190612cf1565b8b6040516109f896959493929190612d25565b60405180910390a1610a2a3382633b9aca008a610a159190612c97565b6040518060200160405280600081525061122d565b7fe8759ef2f3b149474717ad4733600f7038cb0b4e968cf9f67e8162b2080dbef730334284633b9aca008c610a5f9190612c97565b8b604051610a7296959493929190612d25565b60405180910390a160006040518060c001604052808b81526020018881526020018781526020014281526020016001151581526020018381525090508194505050505095945050505050565b600560009054906101000a900473ffffffffffffffffffffffffffffffffffffffff1681565b600060036000838152602001908152602001600020549050919050565b600660009054906101000a900473ffffffffffffffffffffffffffffffffffffffff1673ffffffffffffffffffffffffffffffffffffffff163373ffffffffffffffffffffffffffffffffffffffff1614610b91576040517f08c379a0000000000000000000000000000000000000000000000000000000008152600401610b8890612dff565b60405180910390fd5b80600560006101000a81548173ffffffffffffffffffffffffffffffffffffffff021916908373ffffffffffffffffffffffffffffffffffffffff16021790555050565b600181565b6000600160008473ffffffffffffffffffffffffffffffffffffffff1673ffffffffffffffffffffffffffffffffffffffff16815260200190815260200160002060008373ffffffffffffffffffffffffffffffffffffffff1673ffffffffffffffffffffffffffffffffffffffff16815260200190815260200160002060009054906101000a900460ff16905092915050565b610c76610da4565b73ffffffffffffffffffffffffffffffffffffffff168573ffffffffffffffffffffffffffffffffffffffff161480610cbc5750610cbb85610cb6610da4565b610bda565b5b610cfb576040517f08c379a0000000000000000000000000000000000000000000000000000000008152600401610cf290612e91565b60405180910390fd5b610d0885858585856113c3565b5050505050565b505050505050565b6000808273ffffffffffffffffffffffffffffffffffffffff163b119050919050565b60007f01ffc9a7000000000000000000000000000000000000000000000000000000007bffffffffffffffffffffffffffffffffffffffffffffffffffffffff1916827bffffffffffffffffffffffffffffffffffffffffffffffffffffffff1916149050919050565b600033905090565b8151835114610df0576040517f08c379a0000000000000000000000000000000000000000000000000000000008152600401610de790612f23565b60405180910390fd5b600073ffffffffffffffffffffffffffffffffffffffff168473ffffffffffffffffffffffffffffffffffffffff161415610e60576040517f08c379a0000000000000000000000000000000000000000000000000000000008152600401610e5790612fb5565b60405180910390fd5b6000610e6a610da4565b9050610e7a818787878787611645565b60005b845181101561102b576000858281518110610e9b57610e9a61288a565b5b602002602001015190506000858381518110610eba57610eb961288a565b5b60200260200101519050600080600084815260200190815260200160002060008b73ffffffffffffffffffffffffffffffffffffffff1673ffffffffffffffffffffffffffffffffffffffff16815260200190815260200160002054905081811015610f5b576040517f08c379a0000000000000000000000000000000000000000000000000000000008152600401610f5290613047565b60405180910390fd5b81810360008085815260200190815260200160002060008c73ffffffffffffffffffffffffffffffffffffffff1673ffffffffffffffffffffffffffffffffffffffff168152602001908152602001600020819055508160008085815260200190815260200160002060008b73ffffffffffffffffffffffffffffffffffffffff1673ffffffffffffffffffffffffffffffffffffffff16815260200190815260200160002060008282546110109190613067565b9250508190555050505080611024906128e8565b9050610e7d565b508473ffffffffffffffffffffffffffffffffffffffff168673ffffffffffffffffffffffffffffffffffffffff168273ffffffffffffffffffffffffffffffffffffffff167f4a39dc06d4c0dbc64b70af90fd698a233a518aa5d07e595d983b8c0526c8f7fb87876040516110a29291906130bd565b60405180910390a46110b88187878787876117bf565b505050505050565b8173ffffffffffffffffffffffffffffffffffffffff168373ffffffffffffffffffffffffffffffffffffffff16141561112f576040517f08c379a000000000000000000000000000000000000000000000000000000000815260040161112690613166565b60405180910390fd5b80600160008573ffffffffffffffffffffffffffffffffffffffff1673ffffffffffffffffffffffffffffffffffffffff16815260200190815260200160002060008473ffffffffffffffffffffffffffffffffffffffff1673ffffffffffffffffffffffffffffffffffffffff16815260200190815260200160002060006101000a81548160ff0219169083151502179055508173ffffffffffffffffffffffffffffffffffffffff168373ffffffffffffffffffffffffffffffffffffffff167f17307eab39ab6107e8899845ad3d59bd9653f200f220920489ca2b5937696c31836040516112209190611d9b565b60405180910390a3505050565b600073ffffffffffffffffffffffffffffffffffffffff168473ffffffffffffffffffffffffffffffffffffffff16141561129d576040517f08c379a0000000000000000000000000000000000000000000000000000000008152600401611294906131f8565b60405180910390fd5b60006112a7610da4565b90506112c8816000876112b988611997565b6112c288611997565b87611645565b8260008086815260200190815260200160002060008773ffffffffffffffffffffffffffffffffffffffff1673ffffffffffffffffffffffffffffffffffffffff16815260200190815260200160002060008282546113279190613067565b925050819055508473ffffffffffffffffffffffffffffffffffffffff16600073ffffffffffffffffffffffffffffffffffffffff168273ffffffffffffffffffffffffffffffffffffffff167fc3d58168c5ae7397731d063d5bbf3d657854427343f4c083240f7aacaa2d0f6287876040516113a5929190613218565b60405180910390a46113bc81600087878787611a11565b5050505050565b600073ffffffffffffffffffffffffffffffffffffffff168473ffffffffffffffffffffffffffffffffffffffff161415611433576040517f08c379a000000000000000000000000000000000000000000000000000000000815260040161142a90612fb5565b60405180910390fd5b600061143d610da4565b905061145d81878761144e88611997565b61145788611997565b87611645565b600080600086815260200190815260200160002060008873ffffffffffffffffffffffffffffffffffffffff1673ffffffffffffffffffffffffffffffffffffffff168152602001908152602001600020549050838110156114f4576040517f08c379a00000000000000000000000000000000000000000000000000000000081526004016114eb90613047565b60405180910390fd5b83810360008087815260200190815260200160002060008973ffffffffffffffffffffffffffffffffffffffff1673ffffffffffffffffffffffffffffffffffffffff168152602001908152602001600020819055508360008087815260200190815260200160002060008873ffffffffffffffffffffffffffffffffffffffff1673ffffffffffffffffffffffffffffffffffffffff16815260200190815260200160002060008282546115a99190613067565b925050819055508573ffffffffffffffffffffffffffffffffffffffff168773ffffffffffffffffffffffffffffffffffffffff168373ffffffffffffffffffffffffffffffffffffffff167fc3d58168c5ae7397731d063d5bbf3d657854427343f4c083240f7aacaa2d0f628888604051611626929190613218565b60405180910390a461163c828888888888611a11565b50505050505050565b611653868686868686610d0f565b600073ffffffffffffffffffffffffffffffffffffffff168573ffffffffffffffffffffffffffffffffffffffff1614156117055760005b8351811015611703578281815181106116a7576116a661288a565b5b6020026020010151600360008684815181106116c6576116c561288a565b5b6020026020010151815260200190815260200160002060008282546116eb9190613067565b92505081905550806116fc906128e8565b905061168b565b505b600073ffffffffffffffffffffffffffffffffffffffff168473ffffffffffffffffffffffffffffffffffffffff1614156117b75760005b83518110156117b5578281815181106117595761175861288a565b5b6020026020010151600360008684815181106117785761177761288a565b5b60200260200101518152602001908152602001600020600082825461179d9190612cf1565b92505081905550806117ae906128e8565b905061173d565b505b505050505050565b6117de8473ffffffffffffffffffffffffffffffffffffffff16610d17565b1561198f578373ffffffffffffffffffffffffffffffffffffffff1663bc197c8187878686866040518663ffffffff1660e01b8152600401611824959493929190613296565b6020604051808303816000875af192505050801561186057506040513d601f19601f8201168201806040525081019061185d9190613313565b60015b6119065761186c61334d565b806308c379a014156118c9575061188161336f565b8061188c57506118cb565b806040517f08c379a00000000000000000000000000000000000000000000000000000000081526004016118c09190611e7c565b60405180910390fd5b505b6040517f08c379a00000000000000000000000000000000000000000000000000000000081526004016118fd90613477565b60405180910390fd5b63bc197c8160e01b7bffffffffffffffffffffffffffffffffffffffffffffffffffffffff1916817bffffffffffffffffffffffffffffffffffffffffffffffffffffffff19161461198d576040517f08c379a000000000000000000000000000000000000000000000000000000000815260040161198490613509565b60405180910390fd5b505b505050505050565b60606000600167ffffffffffffffff8111156119b6576119b5611ea3565b5b6040519080825280602002602001820160405280156119e45781602001602082028036833780820191505090505b50905082816000815181106119fc576119fb61288a565b5b60200260200101818152505080915050919050565b611a308473ffffffffffffffffffffffffffffffffffffffff16610d17565b15611be1578373ffffffffffffffffffffffffffffffffffffffff1663f23a6e6187878686866040518663ffffffff1660e01b8152600401611a76959493929190613529565b6020604051808303816000875af1925050508015611ab257506040513d601f19601f82011682018060405250810190611aaf9190613313565b60015b611b5857611abe61334d565b806308c379a01415611b1b5750611ad361336f565b80611ade5750611b1d565b806040517f08c379a0000000000000000000000000000000000000000000000000000000008152600401611b129190611e7c565b60405180910390fd5b505b6040517f08c379a0000000000000000000000000000000000000000000000000000000008152600401611b4f90613477565b60405180910390fd5b63f23a6e6160e01b7bffffffffffffffffffffffffffffffffffffffffffffffffffffffff1916817bffffffffffffffffffffffffffffffffffffffffffffffffffffffff191614611bdf576040517f08c379a0000000000000000000000000000000000000000000000000000000008152600401611bd690613509565b60405180910390fd5b505b505050505050565b6000604051905090565b600080fd5b600080fd5b600073ffffffffffffffffffffffffffffffffffffffff82169050919050565b6000611c2882611bfd565b9050919050565b611c3881611c1d565b8114611c4357600080fd5b50565b600081359050611c5581611c2f565b92915050565b6000819050919050565b611c6e81611c5b565b8114611c7957600080fd5b50565b600081359050611c8b81611c65565b92915050565b60008060408385031215611ca857611ca7611bf3565b5b6000611cb685828601611c46565b9250506020611cc785828601611c7c565b9150509250929050565b611cda81611c5b565b82525050565b6000602082019050611cf56000830184611cd1565b92915050565b60007fffffffff0000000000000000000000000000000000000000000000000000000082169050919050565b611d3081611cfb565b8114611d3b57600080fd5b50565b600081359050611d4d81611d27565b92915050565b600060208284031215611d6957611d68611bf3565b5b6000611d7784828501611d3e565b91505092915050565b60008115159050919050565b611d9581611d80565b82525050565b6000602082019050611db06000830184611d8c565b92915050565b600060208284031215611dcc57611dcb611bf3565b5b6000611dda84828501611c7c565b91505092915050565b600081519050919050565b600082825260208201905092915050565b60005b83811015611e1d578082015181840152602081019050611e02565b83811115611e2c576000848401525b50505050565b6000601f19601f8301169050919050565b6000611e4e82611de3565b611e588185611dee565b9350611e68818560208601611dff565b611e7181611e32565b840191505092915050565b60006020820190508181036000830152611e968184611e43565b905092915050565b600080fd5b7f4e487b7100000000000000000000000000000000000000000000000000000000600052604160045260246000fd5b611edb82611e32565b810181811067ffffffffffffffff82111715611efa57611ef9611ea3565b5b80604052505050565b6000611f0d611be9565b9050611f198282611ed2565b919050565b600067ffffffffffffffff821115611f3957611f38611ea3565b5b602082029050602081019050919050565b600080fd5b6000611f62611f5d84611f1e565b611f03565b90508083825260208201905060208402830185811115611f8557611f84611f4a565b5b835b81811015611fae5780611f9a8882611c7c565b845260208401935050602081019050611f87565b5050509392505050565b600082601f830112611fcd57611fcc611e9e565b5b8135611fdd848260208601611f4f565b91505092915050565b600080fd5b600067ffffffffffffffff82111561200657612005611ea3565b5b61200f82611e32565b9050602081019050919050565b82818337600083830152505050565b600061203e61203984611feb565b611f03565b90508281526020810184848401111561205a57612059611fe6565b5b61206584828561201c565b509392505050565b600082601f83011261208257612081611e9e565b5b813561209284826020860161202b565b91505092915050565b600080600080600060a086880312156120b7576120b6611bf3565b5b60006120c588828901611c46565b95505060206120d688828901611c46565b945050604086013567ffffffffffffffff8111156120f7576120f6611bf8565b5b61210388828901611fb8565b935050606086013567ffffffffffffffff81111561212457612123611bf8565b5b61213088828901611fb8565b925050608086013567ffffffffffffffff81111561215157612150611bf8565b5b61215d8882890161206d565b9150509295509295909350565b600067ffffffffffffffff82111561218557612184611ea3565b5b602082029050602081019050919050565b60006121a96121a48461216a565b611f03565b905080838252602082019050602084028301858111156121cc576121cb611f4a565b5b835b818110156121f557806121e18882611c46565b8452602084019350506020810190506121ce565b5050509392505050565b600082601f83011261221457612213611e9e565b5b8135612224848260208601612196565b91505092915050565b6000806040838503121561224457612243611bf3565b5b600083013567ffffffffffffffff81111561226257612261611bf8565b5b61226e858286016121ff565b925050602083013567ffffffffffffffff81111561228f5761228e611bf8565b5b61229b85828601611fb8565b9150509250929050565b600081519050919050565b600082825260208201905092915050565b6000819050602082019050919050565b6122da81611c5b565b82525050565b60006122ec83836122d1565b60208301905092915050565b6000602082019050919050565b6000612310826122a5565b61231a81856122b0565b9350612325836122c1565b8060005b8381101561235657815161233d88826122e0565b9750612348836122f8565b925050600181019050612329565b5085935050505092915050565b6000602082019050818103600083015261237d8184612305565b905092915050565b61238e81611d80565b811461239957600080fd5b50565b6000813590506123ab81612385565b92915050565b600080604083850312156123c8576123c7611bf3565b5b60006123d685828601611c46565b92505060206123e78582860161239c565b9150509250929050565b600067ffffffffffffffff82111561240c5761240b611ea3565b5b61241582611e32565b9050602081019050919050565b6000612435612430846123f1565b611f03565b90508281526020810184848401111561245157612450611fe6565b5b61245c84828561201c565b509392505050565b600082601f83011261247957612478611e9e565b5b8135612489848260208601612422565b91505092915050565b600080600080600060a086880312156124ae576124ad611bf3565b5b60006124bc88828901611c7c565b95505060206124cd88828901611c7c565b94505060406124de88828901611c7c565b935050606086013567ffffffffffffffff8111156124ff576124fe611bf8565b5b61250b88828901612464565b925050608086013567ffffffffffffffff81111561252c5761252b611bf8565b5b61253888828901612464565b9150509295509295909350565b61254e81611c1d565b82525050565b60006020820190506125696000830184612545565b92915050565b60006020828403121561258557612584611bf3565b5b600061259384828501611c46565b91505092915050565b600080604083850312156125b3576125b2611bf3565b5b60006125c185828601611c46565b92505060206125d285828601611c46565b9150509250929050565b600080600080600060a086880312156125f8576125f7611bf3565b5b600061260688828901611c46565b955050602061261788828901611c46565b945050604061262888828901611c7c565b935050606061263988828901611c7c565b925050608086013567ffffffffffffffff81111561265a57612659611bf8565b5b6126668882890161206d565b9150509295509295909350565b7f455243313135353a2062616c616e636520717565727920666f7220746865207a60008201527f65726f2061646472657373000000000000000000000000000000000000000000602082015250565b60006126cf602b83611dee565b91506126da82612673565b604082019050919050565b600060208201905081810360008301526126fe816126c2565b9050919050565b7f4e487b7100000000000000000000000000000000000000000000000000000000600052602260045260246000fd5b6000600282049050600182168061274c57607f821691505b602082108114156127605761275f612705565b5b50919050565b7f455243313135353a207472616e736665722063616c6c6572206973206e6f742060008201527f6f776e6572206e6f7220617070726f7665640000000000000000000000000000602082015250565b60006127c2603283611dee565b91506127cd82612766565b604082019050919050565b600060208201905081810360008301526127f1816127b5565b9050919050565b7f455243313135353a206163636f756e747320616e6420696473206c656e67746860008201527f206d69736d617463680000000000000000000000000000000000000000000000602082015250565b6000612854602983611dee565b915061285f826127f8565b604082019050919050565b6000602082019050818103600083015261288381612847565b9050919050565b7f4e487b7100000000000000000000000000000000000000000000000000000000600052603260045260246000fd5b7f4e487b7100000000000000000000000000000000000000000000000000000000600052601160045260246000fd5b60006128f382611c5b565b91507fffffffffffffffffffffffffffffffffffffffffffffffffffffffffffffffff821415612926576129256128b9565b5b600182019050919050565b7f476f7665726e616e636520746f6b656e20666f72207468697320696420616c7260008201527f656164792070726573656e740000000000000000000000000000000000000000602082015250565b600061298d602c83611dee565b915061299882612931565b604082019050919050565b600060208201905081810360008301526129bc81612980565b9050919050565b600081905092915050565b60006129d982611de3565b6129e381856129c3565b93506129f3818560208601611dff565b80840191505092915050565b6000612a0b82846129ce565b915081905092915050565b7f476f7665726e616e636520746f6b656e207769746820746869732053594d424f60008201527f4c20616c72656164792070726573656e74000000000000000000000000000000602082015250565b6000612a72603183611dee565b9150612a7d82612a16565b604082019050919050565b60006020820190508181036000830152612aa181612a65565b9050919050565b7f4e487b7100000000000000000000000000000000000000000000000000000000600052601260045260246000fd5b6000612ae282611c5b565b9150612aed83611c5b565b925082612afd57612afc612aa8565b5b828204905092915050565b7f54726561737572792073686f756c642068617665206174206c6561737420353060008201527f25206f662074686520746f74616c20737570706c790000000000000000000000602082015250565b6000612b64603583611dee565b9150612b6f82612b08565b604082019050919050565b60006020820190508181036000830152612b9381612b57565b9050919050565b6000604082019050612baf6000830185612545565b612bbc6020830184611cd1565b9392505050565b600081519050612bd281611c65565b92915050565b600060208284031215612bee57612bed611bf3565b5b6000612bfc84828501612bc3565b91505092915050565b7f596f7520617265206e6f7420746865206f776e6572206f66207468652072656360008201527f6f72640000000000000000000000000000000000000000000000000000000000602082015250565b6000612c61602383611dee565b9150612c6c82612c05565b604082019050919050565b60006020820190508181036000830152612c9081612c54565b9050919050565b6000612ca282611c5b565b9150612cad83611c5b565b9250817fffffffffffffffffffffffffffffffffffffffffffffffffffffffffffffffff0483118215151615612ce657612ce56128b9565b5b828202905092915050565b6000612cfc82611c5b565b9150612d0783611c5b565b925082821015612d1a57612d196128b9565b5b828203905092915050565b600060c082019050612d3a6000830189612545565b612d476020830188612545565b612d546040830187611cd1565b612d616060830186611cd1565b612d6e6080830185611cd1565b81810360a0830152612d808184611e43565b9050979650505050505050565b7f596f7520617265206e6f7420617574686f72697a656420666f7220746869732060008201527f616374696f6e0000000000000000000000000000000000000000000000000000602082015250565b6000612de9602683611dee565b9150612df482612d8d565b604082019050919050565b60006020820190508181036000830152612e1881612ddc565b9050919050565b7f455243313135353a2063616c6c6572206973206e6f74206f776e6572206e6f7260008201527f20617070726f7665640000000000000000000000000000000000000000000000602082015250565b6000612e7b602983611dee565b9150612e8682612e1f565b604082019050919050565b60006020820190508181036000830152612eaa81612e6e565b9050919050565b7f455243313135353a2069647320616e6420616d6f756e7473206c656e6774682060008201527f6d69736d61746368000000000000000000000000000000000000000000000000602082015250565b6000612f0d602883611dee565b9150612f1882612eb1565b604082019050919050565b60006020820190508181036000830152612f3c81612f00565b9050919050565b7f455243313135353a207472616e7366657220746f20746865207a65726f20616460008201527f6472657373000000000000000000000000000000000000000000000000000000602082015250565b6000612f9f602583611dee565b9150612faa82612f43565b604082019050919050565b60006020820190508181036000830152612fce81612f92565b9050919050565b7f455243313135353a20696e73756666696369656e742062616c616e636520666f60008201527f72207472616e7366657200000000000000000000000000000000000000000000602082015250565b6000613031602a83611dee565b915061303c82612fd5565b604082019050919050565b6000602082019050818103600083015261306081613024565b9050919050565b600061307282611c5b565b915061307d83611c5b565b9250827fffffffffffffffffffffffffffffffffffffffffffffffffffffffffffffffff038211156130b2576130b16128b9565b5b828201905092915050565b600060408201905081810360008301526130d78185612305565b905081810360208301526130eb8184612305565b90509392505050565b7f455243313135353a2073657474696e6720617070726f76616c2073746174757360008201527f20666f722073656c660000000000000000000000000000000000000000000000602082015250565b6000613150602983611dee565b915061315b826130f4565b604082019050919050565b6000602082019050818103600083015261317f81613143565b9050919050565b7f455243313135353a206d696e7420746f20746865207a65726f2061646472657360008201527f7300000000000000000000000000000000000000000000000000000000000000602082015250565b60006131e2602183611dee565b91506131ed82613186565b604082019050919050565b60006020820190508181036000830152613211816131d5565b9050919050565b600060408201905061322d6000830185611cd1565b61323a6020830184611cd1565b9392505050565b600081519050919050565b600082825260208201905092915050565b600061326882613241565b613272818561324c565b9350613282818560208601611dff565b61328b81611e32565b840191505092915050565b600060a0820190506132ab6000830188612545565b6132b86020830187612545565b81810360408301526132ca8186612305565b905081810360608301526132de8185612305565b905081810360808301526132f2818461325d565b90509695505050505050565b60008151905061330d81611d27565b92915050565b60006020828403121561332957613328611bf3565b5b6000613337848285016132fe565b91505092915050565b60008160e01c9050919050565b600060033d111561336c5760046000803e613369600051613340565b90505b90565b600060443d101561337f57613402565b613387611be9565b60043d036004823e80513d602482011167ffffffffffffffff821117156133af575050613402565b808201805167ffffffffffffffff8111156133cd5750505050613402565b80602083010160043d0385018111156133ea575050505050613402565b6133f982602001850186611ed2565b82955050505050505b90565b7f455243313135353a207472616e7366657220746f206e6f6e204552433131353560008201527f526563656976657220696d706c656d656e746572000000000000000000000000602082015250565b6000613461603483611dee565b915061346c82613405565b604082019050919050565b6000602082019050818103600083015261349081613454565b9050919050565b7f455243313135353a204552433131353552656365697665722072656a6563746560008201527f6420746f6b656e73000000000000000000000000000000000000000000000000602082015250565b60006134f3602883611dee565b91506134fe82613497565b604082019050919050565b60006020820190508181036000830152613522816134e6565b9050919050565b600060a08201905061353e6000830188612545565b61354b6020830187612545565b6135586040830186611cd1565b6135656060830185611cd1565b8181036080830152613577818461325d565b9050969550505050505056fea2646970667358221220f1491c8618fbef22fae254ad5c301fcf08b1e406c15beec937c6aaaea29546c664736f6c634300080c0033",
  "immutableReferences": {},
  "source": "pragma solidity ^0.8.0;\n\nimport \"@openzeppelin/contracts/token/ERC1155/ERC1155.sol\";\nimport \"@openzeppelin/contracts/token/ERC1155/extensions/ERC1155Supply.sol\";\nimport \"@openzeppelin/contracts/utils/Counters.sol\";\nimport \"@openzeppelin/contracts/access/Ownable.sol\";\nimport \"./RecordsContract.sol\";\n\n// ERC 20 balance[adress] => 2 contracts // governance and comunity\n// ERC 721 blance[adress] => 1 contract // records\n// ERC 1155\n\ncontract TreasuryContract is ERC1155Supply {\n    uint256 public constant CRD = 1;\n    uint256 private LastTokenId = 1;\n    address public RECORDS_CONTRACT_ADDRESS;\n    address OWNER;\n\n    struct Token {\n        uint256 recordId;\n        string symbol;\n        string image;\n        uint256 creationDate;\n        bool isPresent;\n        uint256 tokenId;\n    }\n\n    event TokenTransfer(\n        address from,\n        address to,\n        uint256 transferDate,\n        uint256 tokenId,\n        uint256 amount,\n        string symbol\n    );\n    event NewGovernanceTokenCreated(\n        uint256 recordId,\n        string name,\n        string symbol,\n        string image,\n        uint256 creationDate,\n        uint256 tokenId\n    );\n    event NewCommunityTokenCreated(\n        uint256 recordId,\n        string name,\n        string symbol,\n        string image,\n        uint256 creationDate,\n        uint256 tokenId\n    );\n\n    mapping(uint256 => Token) govTokenMapping;\n    mapping(uint256 => Token) commTokenMapping;\n\n    mapping(string => bool) govTokenSym;\n    mapping(string => bool) commTokenSym;\n\n    // By default URI to crowdrecords domain\n    // 9 decimal points supported\n    constructor() ERC1155(\"https://crowdrecords.com/{id}\") {\n        _mint(msg.sender, CRD, 10**9, \"https://crowdrecords.com\");\n        OWNER = msg.sender;\n    }\n\n    /**\n     * @dev Modifier to check that the person who accesses a specific function is the owner of contract himself.\n     */\n    modifier ownerOnly() {\n        require(msg.sender == OWNER, \"You are not authorized for this action\");\n        _;\n    }\n\n    /**\n     * @dev This function sets the Voting Contract address\n     */\n    function setRecordsContractAddress(address newRecordsContractAddress)\n        public\n        ownerOnly\n    {\n        RECORDS_CONTRACT_ADDRESS = newRecordsContractAddress;\n    }\n\n    /**\n     * @dev This function creats new governance tokens for specified record\n     * @param recordId This is the recordId that for new token\n     * @param totalSupply This is the total supply of governance token\n     * @param userBalance This is the amount of tokens that user wants to keep to himself\n     * @param symbol This is the symbol of the gvernance token\n     * @param image this is image of the gov token.\n     */\n    function createNewGovernanceToken(\n        uint256 recordId,\n        uint256 totalSupply,\n        uint256 userBalance,\n        string memory symbol,\n        string memory image\n    ) public returns (uint256) {\n        require(\n            govTokenMapping[recordId].isPresent == false,\n            \"Governance token for this id already present\"\n        );\n\n        require(\n            govTokenSym[symbol] == false,\n            \"Governance token with this SYMBOL already present\"\n        );\n\n        require(\n            totalSupply / 2 > userBalance,\n            \"Treasury should have at least 50% of the total supply\"\n        );\n\n        RecordsContract recordsContract = RecordsContract(\n            RECORDS_CONTRACT_ADDRESS\n        );\n\n        uint256 balance = recordsContract.balanceOf(msg.sender, recordId);\n\n        require(balance > 0, \"You are not the owner of the record\");\n\n        LastTokenId++;\n        uint256 newTokenId = LastTokenId;\n\n        _mint(address(this), newTokenId, userBalance - totalSupply * 10**9, \"\");\n        emit TokenTransfer({\n            from: address(this),\n            to: address(this),\n            transferDate: block.timestamp,\n            tokenId: newTokenId,\n            amount: userBalance - totalSupply * 10**9,\n            symbol: symbol\n        });\n\n        _mint(msg.sender, newTokenId, userBalance * 10**9, \"\");\n        emit TokenTransfer({\n            from: address(this),\n            to: msg.sender,\n            transferDate: block.timestamp,\n            tokenId: newTokenId,\n            amount: userBalance * 10**9,\n            symbol: symbol\n        });\n\n        Token memory token = Token({\n            recordId: recordId,\n            symbol: symbol,\n            image: image,\n            creationDate: block.timestamp,\n            isPresent: true,\n            tokenId: newTokenId\n        });\n\n        return newTokenId;\n    }\n}\n",
  "sourcePath": "/Users/a1/Desktop/Office/projects/CrowdRecords/Contracts/contracts/TreasuryContract.sol",
  "compiler": {
    "name": "solc",
    "version": "0.8.12+commit.f00d7308.Emscripten.clang"
  },
  "schemaVersion": "3.4.6",
  "updatedAt": "2022-03-28T11:56:10.194Z",
  "devdoc": {
    "kind": "dev",
    "methods": {
      "balanceOf(address,uint256)": {
        "details": "See {IERC1155-balanceOf}. Requirements: - `account` cannot be the zero address."
      },
      "balanceOfBatch(address[],uint256[])": {
        "details": "See {IERC1155-balanceOfBatch}. Requirements: - `accounts` and `ids` must have the same length."
      },
      "createNewGovernanceToken(uint256,uint256,uint256,string,string)": {
        "details": "This function creats new governance tokens for specified record",
        "params": {
          "image": "this is image of the gov token.",
          "recordId": "This is the recordId that for new token",
          "symbol": "This is the symbol of the gvernance token",
          "totalSupply": "This is the total supply of governance token",
          "userBalance": "This is the amount of tokens that user wants to keep to himself"
        }
      },
      "exists(uint256)": {
        "details": "Indicates whether any token exist with a given id, or not."
      },
      "isApprovedForAll(address,address)": {
        "details": "See {IERC1155-isApprovedForAll}."
      },
      "safeBatchTransferFrom(address,address,uint256[],uint256[],bytes)": {
        "details": "See {IERC1155-safeBatchTransferFrom}."
      },
      "safeTransferFrom(address,address,uint256,uint256,bytes)": {
        "details": "See {IERC1155-safeTransferFrom}."
      },
      "setApprovalForAll(address,bool)": {
        "details": "See {IERC1155-setApprovalForAll}."
      },
      "setRecordsContractAddress(address)": {
        "details": "This function sets the Voting Contract address"
      },
      "supportsInterface(bytes4)": {
        "details": "See {IERC165-supportsInterface}."
      },
      "totalSupply(uint256)": {
        "details": "Total amount of tokens in with a given id."
      },
      "uri(uint256)": {
        "details": "See {IERC1155MetadataURI-uri}. This implementation returns the same URI for *all* token types. It relies on the token type ID substitution mechanism https://eips.ethereum.org/EIPS/eip-1155#metadata[defined in the EIP]. Clients calling this function must replace the `\\{id\\}` substring with the actual token type ID."
      }
    },
    "version": 1
  },
  "userdoc": {
    "kind": "user",
    "methods": {},
    "version": 1
  }
}