{
  "contractName": "TreasuryContract",
  "abi": [
    {
      "inputs": [],
      "stateMutability": "nonpayable",
      "type": "constructor"
    },
    {
      "anonymous": false,
      "inputs": [
        {
          "indexed": true,
          "internalType": "address",
          "name": "account",
          "type": "address"
        },
        {
          "indexed": true,
          "internalType": "address",
          "name": "operator",
          "type": "address"
        },
        {
          "indexed": false,
          "internalType": "bool",
          "name": "approved",
          "type": "bool"
        }
      ],
      "name": "ApprovalForAll",
      "type": "event"
    },
    {
      "anonymous": false,
      "inputs": [
        {
          "indexed": false,
          "internalType": "uint256",
          "name": "recordId",
          "type": "uint256"
        },
        {
          "indexed": false,
          "internalType": "string",
          "name": "name",
          "type": "string"
        },
        {
          "indexed": false,
          "internalType": "string",
          "name": "symbol",
          "type": "string"
        },
        {
          "indexed": false,
          "internalType": "string",
          "name": "image",
          "type": "string"
        },
        {
          "indexed": false,
          "internalType": "uint256",
          "name": "creationDate",
          "type": "uint256"
        },
        {
          "indexed": false,
          "internalType": "uint256",
          "name": "tokenId",
          "type": "uint256"
        }
      ],
      "name": "NewCommunityTokenCreated",
      "type": "event"
    },
    {
      "anonymous": false,
      "inputs": [
        {
          "indexed": false,
          "internalType": "uint256",
          "name": "recordId",
          "type": "uint256"
        },
        {
          "indexed": false,
          "internalType": "string",
          "name": "name",
          "type": "string"
        },
        {
          "indexed": false,
          "internalType": "string",
          "name": "symbol",
          "type": "string"
        },
        {
          "indexed": false,
          "internalType": "string",
          "name": "image",
          "type": "string"
        },
        {
          "indexed": false,
          "internalType": "uint256",
          "name": "creationDate",
          "type": "uint256"
        },
        {
          "indexed": false,
          "internalType": "uint256",
          "name": "tokenId",
          "type": "uint256"
        }
      ],
      "name": "NewGovernanceTokenCreated",
      "type": "event"
    },
    {
      "anonymous": false,
      "inputs": [
        {
          "indexed": false,
          "internalType": "address",
          "name": "from",
          "type": "address"
        },
        {
          "indexed": false,
          "internalType": "address",
          "name": "to",
          "type": "address"
        },
        {
          "indexed": false,
          "internalType": "uint256",
          "name": "transferDate",
          "type": "uint256"
        },
        {
          "indexed": false,
          "internalType": "uint256",
          "name": "tokenId",
          "type": "uint256"
        },
        {
          "indexed": false,
          "internalType": "uint256",
          "name": "amount",
          "type": "uint256"
        },
        {
          "indexed": false,
          "internalType": "string",
          "name": "symbol",
          "type": "string"
        }
      ],
      "name": "TokenTransfer",
      "type": "event"
    },
    {
      "anonymous": false,
      "inputs": [
        {
          "indexed": true,
          "internalType": "address",
          "name": "operator",
          "type": "address"
        },
        {
          "indexed": true,
          "internalType": "address",
          "name": "from",
          "type": "address"
        },
        {
          "indexed": true,
          "internalType": "address",
          "name": "to",
          "type": "address"
        },
        {
          "indexed": false,
          "internalType": "uint256[]",
          "name": "ids",
          "type": "uint256[]"
        },
        {
          "indexed": false,
          "internalType": "uint256[]",
          "name": "values",
          "type": "uint256[]"
        }
      ],
      "name": "TransferBatch",
      "type": "event"
    },
    {
      "anonymous": false,
      "inputs": [
        {
          "indexed": true,
          "internalType": "address",
          "name": "operator",
          "type": "address"
        },
        {
          "indexed": true,
          "internalType": "address",
          "name": "from",
          "type": "address"
        },
        {
          "indexed": true,
          "internalType": "address",
          "name": "to",
          "type": "address"
        },
        {
          "indexed": false,
          "internalType": "uint256",
          "name": "id",
          "type": "uint256"
        },
        {
          "indexed": false,
          "internalType": "uint256",
          "name": "value",
          "type": "uint256"
        }
      ],
      "name": "TransferSingle",
      "type": "event"
    },
    {
      "anonymous": false,
      "inputs": [
        {
          "indexed": false,
          "internalType": "string",
          "name": "value",
          "type": "string"
        },
        {
          "indexed": true,
          "internalType": "uint256",
          "name": "id",
          "type": "uint256"
        }
      ],
      "name": "URI",
      "type": "event"
    },
    {
      "inputs": [],
      "name": "CRD",
      "outputs": [
        {
          "internalType": "uint256",
          "name": "",
          "type": "uint256"
        }
      ],
      "stateMutability": "view",
      "type": "function",
      "constant": true
    },
    {
      "inputs": [
        {
          "internalType": "address",
          "name": "account",
          "type": "address"
        },
        {
          "internalType": "uint256",
          "name": "id",
          "type": "uint256"
        }
      ],
      "name": "balanceOf",
      "outputs": [
        {
          "internalType": "uint256",
          "name": "",
          "type": "uint256"
        }
      ],
      "stateMutability": "view",
      "type": "function",
      "constant": true
    },
    {
      "inputs": [
        {
          "internalType": "address[]",
          "name": "accounts",
          "type": "address[]"
        },
        {
          "internalType": "uint256[]",
          "name": "ids",
          "type": "uint256[]"
        }
      ],
      "name": "balanceOfBatch",
      "outputs": [
        {
          "internalType": "uint256[]",
          "name": "",
          "type": "uint256[]"
        }
      ],
      "stateMutability": "view",
      "type": "function",
      "constant": true
    },
    {
      "inputs": [
        {
          "internalType": "uint256",
          "name": "id",
          "type": "uint256"
        }
      ],
      "name": "exists",
      "outputs": [
        {
          "internalType": "bool",
          "name": "",
          "type": "bool"
        }
      ],
      "stateMutability": "view",
      "type": "function",
      "constant": true
    },
    {
      "inputs": [
        {
          "internalType": "address",
          "name": "account",
          "type": "address"
        },
        {
          "internalType": "address",
          "name": "operator",
          "type": "address"
        }
      ],
      "name": "isApprovedForAll",
      "outputs": [
        {
          "internalType": "bool",
          "name": "",
          "type": "bool"
        }
      ],
      "stateMutability": "view",
      "type": "function",
      "constant": true
    },
    {
      "inputs": [
        {
          "internalType": "address",
          "name": "from",
          "type": "address"
        },
        {
          "internalType": "address",
          "name": "to",
          "type": "address"
        },
        {
          "internalType": "uint256[]",
          "name": "ids",
          "type": "uint256[]"
        },
        {
          "internalType": "uint256[]",
          "name": "amounts",
          "type": "uint256[]"
        },
        {
          "internalType": "bytes",
          "name": "data",
          "type": "bytes"
        }
      ],
      "name": "safeBatchTransferFrom",
      "outputs": [],
      "stateMutability": "nonpayable",
      "type": "function"
    },
    {
      "inputs": [
        {
          "internalType": "address",
          "name": "from",
          "type": "address"
        },
        {
          "internalType": "address",
          "name": "to",
          "type": "address"
        },
        {
          "internalType": "uint256",
          "name": "id",
          "type": "uint256"
        },
        {
          "internalType": "uint256",
          "name": "amount",
          "type": "uint256"
        },
        {
          "internalType": "bytes",
          "name": "data",
          "type": "bytes"
        }
      ],
      "name": "safeTransferFrom",
      "outputs": [],
      "stateMutability": "nonpayable",
      "type": "function"
    },
    {
      "inputs": [
        {
          "internalType": "address",
          "name": "operator",
          "type": "address"
        },
        {
          "internalType": "bool",
          "name": "approved",
          "type": "bool"
        }
      ],
      "name": "setApprovalForAll",
      "outputs": [],
      "stateMutability": "nonpayable",
      "type": "function"
    },
    {
      "inputs": [
        {
          "internalType": "bytes4",
          "name": "interfaceId",
          "type": "bytes4"
        }
      ],
      "name": "supportsInterface",
      "outputs": [
        {
          "internalType": "bool",
          "name": "",
          "type": "bool"
        }
      ],
      "stateMutability": "view",
      "type": "function",
      "constant": true
    },
    {
      "inputs": [
        {
          "internalType": "uint256",
          "name": "id",
          "type": "uint256"
        }
      ],
      "name": "totalSupply",
      "outputs": [
        {
          "internalType": "uint256",
          "name": "",
          "type": "uint256"
        }
      ],
      "stateMutability": "view",
      "type": "function",
      "constant": true
    },
    {
      "inputs": [
        {
          "internalType": "uint256",
          "name": "",
          "type": "uint256"
        }
      ],
      "name": "uri",
      "outputs": [
        {
          "internalType": "string",
          "name": "",
          "type": "string"
        }
      ],
      "stateMutability": "view",
      "type": "function",
      "constant": true
    },
    {
      "inputs": [
        {
          "internalType": "address",
          "name": "newRecordsContractAddress",
          "type": "address"
        }
      ],
      "name": "setRecordsContractAddress",
      "outputs": [],
      "stateMutability": "nonpayable",
      "type": "function"
    },
    {
      "inputs": [
        {
          "internalType": "uint256",
          "name": "recordId",
          "type": "uint256"
        },
        {
          "internalType": "uint256",
          "name": "totalSupply",
          "type": "uint256"
        },
        {
          "internalType": "uint256",
          "name": "userBalance",
          "type": "uint256"
        },
        {
          "internalType": "string",
          "name": "symbol",
          "type": "string"
        },
        {
          "internalType": "string",
          "name": "image",
          "type": "string"
        }
      ],
      "name": "createNewGovernanceToken",
      "outputs": [
        {
          "internalType": "uint256",
          "name": "",
          "type": "uint256"
        }
      ],
      "stateMutability": "nonpayable",
      "type": "function"
    }
  ],
  "bytecode": "0x608060405260016004553480156200001657600080fd5b506040518060400160405280601d81526020017f68747470733a2f2f63726f77647265636f7264732e636f6d2f7b69647d0000008152506200005e81620000f460201b60201c565b50620000ad336001633b9aca006040518060400160405280601881526020017f68747470733a2f2f63726f77647265636f7264732e636f6d00000000000000008152506200011060201b60201c565b33600660006101000a81548173ffffffffffffffffffffffffffffffffffffffff021916908373ffffffffffffffffffffffffffffffffffffffff16021790555062000f32565b80600290805190602001906200010c92919062000724565b5050565b600073ffffffffffffffffffffffffffffffffffffffff168473ffffffffffffffffffffffffffffffffffffffff16141562000183576040517f08c379a00000000000000000000000000000000000000000000000000000000081526004016200017a906200085b565b60405180910390fd5b600062000195620002d560201b60201c565b9050620001ce81600087620001b088620002dd60201b60201c565b620001c188620002dd60201b60201c565b876200035e60201b60201c565b8260008086815260200190815260200160002060008773ffffffffffffffffffffffffffffffffffffffff1673ffffffffffffffffffffffffffffffffffffffff16815260200190815260200160002060008282546200022f9190620008b6565b925050819055508473ffffffffffffffffffffffffffffffffffffffff16600073ffffffffffffffffffffffffffffffffffffffff168273ffffffffffffffffffffffffffffffffffffffff167fc3d58168c5ae7397731d063d5bbf3d657854427343f4c083240f7aacaa2d0f628787604051620002af92919062000924565b60405180910390a4620002ce81600087878787620004ff60201b60201c565b5050505050565b600033905090565b60606000600167ffffffffffffffff811115620002ff57620002fe62000951565b5b6040519080825280602002602001820160405280156200032e5781602001602082028036833780820191505090505b509050828160008151811062000349576200034862000980565b5b60200260200101818152505080915050919050565b62000379868686868686620006f960201b62000cb01760201c565b600073ffffffffffffffffffffffffffffffffffffffff168573ffffffffffffffffffffffffffffffffffffffff161415620004385760005b83518110156200043657828181518110620003d257620003d162000980565b5b602002602001015160036000868481518110620003f457620003f362000980565b5b6020026020010151815260200190815260200160002060008282546200041b9190620008b6565b92505081905550806200042e90620009af565b9050620003b2565b505b600073ffffffffffffffffffffffffffffffffffffffff168473ffffffffffffffffffffffffffffffffffffffff161415620004f75760005b8351811015620004f55782818151811062000491576200049062000980565b5b602002602001015160036000868481518110620004b357620004b262000980565b5b602002602001015181526020019081526020016000206000828254620004da9190620009fd565b9250508190555080620004ed90620009af565b905062000471565b505b505050505050565b6200052b8473ffffffffffffffffffffffffffffffffffffffff166200070160201b62000cb81760201c565b15620006f1578373ffffffffffffffffffffffffffffffffffffffff1663f23a6e6187878686866040518663ffffffff1660e01b81526004016200057495949392919062000b21565b6020604051808303816000875af1925050508015620005b357506040513d601f19601f82011682018060405250810190620005b0919062000bf1565b60015b6200066557620005c262000c30565b806308c379a01415620006265750620005da62000c8b565b80620005e7575062000628565b806040517f08c379a00000000000000000000000000000000000000000000000000000000081526004016200061d919062000d79565b60405180910390fd5b505b6040517f08c379a00000000000000000000000000000000000000000000000000000000081526004016200065c9062000e13565b60405180910390fd5b63f23a6e6160e01b7bffffffffffffffffffffffffffffffffffffffffffffffffffffffff1916817bffffffffffffffffffffffffffffffffffffffffffffffffffffffff191614620006ef576040517f08c379a0000000000000000000000000000000000000000000000000000000008152600401620006e69062000eab565b60405180910390fd5b505b505050505050565b505050505050565b6000808273ffffffffffffffffffffffffffffffffffffffff163b119050919050565b828054620007329062000efc565b90600052602060002090601f016020900481019282620007565760008555620007a2565b82601f106200077157805160ff1916838001178555620007a2565b82800160010185558215620007a2579182015b82811115620007a157825182559160200191906001019062000784565b5b509050620007b19190620007b5565b5090565b5b80821115620007d0576000816000905550600101620007b6565b5090565b600082825260208201905092915050565b7f455243313135353a206d696e7420746f20746865207a65726f2061646472657360008201527f7300000000000000000000000000000000000000000000000000000000000000602082015250565b600062000843602183620007d4565b91506200085082620007e5565b604082019050919050565b60006020820190508181036000830152620008768162000834565b9050919050565b6000819050919050565b7f4e487b7100000000000000000000000000000000000000000000000000000000600052601160045260246000fd5b6000620008c3826200087d565b9150620008d0836200087d565b9250827fffffffffffffffffffffffffffffffffffffffffffffffffffffffffffffffff0382111562000908576200090762000887565b5b828201905092915050565b6200091e816200087d565b82525050565b60006040820190506200093b600083018562000913565b6200094a602083018462000913565b9392505050565b7f4e487b7100000000000000000000000000000000000000000000000000000000600052604160045260246000fd5b7f4e487b7100000000000000000000000000000000000000000000000000000000600052603260045260246000fd5b6000620009bc826200087d565b91507fffffffffffffffffffffffffffffffffffffffffffffffffffffffffffffffff821415620009f257620009f162000887565b5b600182019050919050565b600062000a0a826200087d565b915062000a17836200087d565b92508282101562000a2d5762000a2c62000887565b5b828203905092915050565b600073ffffffffffffffffffffffffffffffffffffffff82169050919050565b600062000a658262000a38565b9050919050565b62000a778162000a58565b82525050565b600081519050919050565b600082825260208201905092915050565b60005b8381101562000ab957808201518184015260208101905062000a9c565b8381111562000ac9576000848401525b50505050565b6000601f19601f8301169050919050565b600062000aed8262000a7d565b62000af9818562000a88565b935062000b0b81856020860162000a99565b62000b168162000acf565b840191505092915050565b600060a08201905062000b38600083018862000a6c565b62000b47602083018762000a6c565b62000b56604083018662000913565b62000b65606083018562000913565b818103608083015262000b79818462000ae0565b90509695505050505050565b6000604051905090565b600080fd5b60007fffffffff0000000000000000000000000000000000000000000000000000000082169050919050565b62000bcb8162000b94565b811462000bd757600080fd5b50565b60008151905062000beb8162000bc0565b92915050565b60006020828403121562000c0a5762000c0962000b8f565b5b600062000c1a8482850162000bda565b91505092915050565b60008160e01c9050919050565b600060033d111562000c525760046000803e62000c4f60005162000c23565b90505b90565b62000c608262000acf565b810181811067ffffffffffffffff8211171562000c825762000c8162000951565b5b80604052505050565b600060443d101562000c9d5762000d2a565b62000ca762000b85565b60043d036004823e80513d602482011167ffffffffffffffff8211171562000cd157505062000d2a565b808201805167ffffffffffffffff81111562000cf1575050505062000d2a565b80602083010160043d03850181111562000d1057505050505062000d2a565b62000d218260200185018662000c55565b82955050505050505b90565b600081519050919050565b600062000d458262000d2d565b62000d518185620007d4565b935062000d6381856020860162000a99565b62000d6e8162000acf565b840191505092915050565b6000602082019050818103600083015262000d95818462000d38565b905092915050565b7f455243313135353a207472616e7366657220746f206e6f6e204552433131353560008201527f526563656976657220696d706c656d656e746572000000000000000000000000602082015250565b600062000dfb603483620007d4565b915062000e088262000d9d565b604082019050919050565b6000602082019050818103600083015262000e2e8162000dec565b9050919050565b7f455243313135353a204552433131353552656365697665722072656a6563746560008201527f6420746f6b656e73000000000000000000000000000000000000000000000000602082015250565b600062000e93602883620007d4565b915062000ea08262000e35565b604082019050919050565b6000602082019050818103600083015262000ec68162000e84565b9050919050565b7f4e487b7100000000000000000000000000000000000000000000000000000000600052602260045260246000fd5b6000600282049050600182168062000f1557607f821691505b6020821081141562000f2c5762000f2b62000ecd565b5b50919050565b61353f8062000f426000396000f3fe608060405234801561001057600080fd5b50600436106100ce5760003560e01c8063a22cb4651161008c578063dfe813eb11610066578063dfe813eb1461025b578063e6acd9b814610277578063e985e9c514610295578063f242432a146102c5576100ce565b8063a22cb465146101df578063a54a017a146101fb578063bd85b0391461022b576100ce565b8062fdd58e146100d357806301ffc9a7146101035780630e89341c146101335780632eb2c2d6146101635780634e1273f41461017f5780634f558e79146101af575b600080fd5b6100ed60048036038101906100e89190611c32565b6102e1565b6040516100fa9190611c81565b60405180910390f35b61011d60048036038101906101189190611cf4565b6103aa565b60405161012a9190611d3c565b60405180910390f35b61014d60048036038101906101489190611d57565b61048c565b60405161015a9190611e1d565b60405180910390f35b61017d6004803603810190610178919061203c565b610520565b005b610199600480360381019061019491906121ce565b6105c1565b6040516101a69190612304565b60405180910390f35b6101c960048036038101906101c49190611d57565b6106da565b6040516101d69190611d3c565b60405180910390f35b6101f960048036038101906101f49190612352565b6106ee565b005b61021560048036038101906102109190612433565b610704565b6040516102229190611c81565b60405180910390f35b61024560048036038101906102409190611d57565b610a85565b6040516102529190611c81565b60405180910390f35b610275600480360381019061027091906124e6565b610aa2565b005b61027f610b76565b60405161028c9190611c81565b60405180910390f35b6102af60048036038101906102aa9190612513565b610b7b565b6040516102bc9190611d3c565b60405180910390f35b6102df60048036038101906102da9190612553565b610c0f565b005b60008073ffffffffffffffffffffffffffffffffffffffff168373ffffffffffffffffffffffffffffffffffffffff161415610352576040517f08c379a00000000000000000000000000000000000000000000000000000000081526004016103499061265c565b60405180910390fd5b60008083815260200190815260200160002060008473ffffffffffffffffffffffffffffffffffffffff1673ffffffffffffffffffffffffffffffffffffffff16815260200190815260200160002054905092915050565b60007fd9b67a26000000000000000000000000000000000000000000000000000000007bffffffffffffffffffffffffffffffffffffffffffffffffffffffff1916827bffffffffffffffffffffffffffffffffffffffffffffffffffffffff1916148061047557507f0e89341c000000000000000000000000000000000000000000000000000000007bffffffffffffffffffffffffffffffffffffffffffffffffffffffff1916827bffffffffffffffffffffffffffffffffffffffffffffffffffffffff1916145b80610485575061048482610cdb565b5b9050919050565b60606002805461049b906126ab565b80601f01602080910402602001604051908101604052809291908181526020018280546104c7906126ab565b80156105145780601f106104e957610100808354040283529160200191610514565b820191906000526020600020905b8154815290600101906020018083116104f757829003601f168201915b50505050509050919050565b610528610d45565b73ffffffffffffffffffffffffffffffffffffffff168573ffffffffffffffffffffffffffffffffffffffff16148061056e575061056d85610568610d45565b610b7b565b5b6105ad576040517f08c379a00000000000000000000000000000000000000000000000000000000081526004016105a49061274f565b60405180910390fd5b6105ba8585858585610d4d565b5050505050565b60608151835114610607576040517f08c379a00000000000000000000000000000000000000000000000000000000081526004016105fe906127e1565b60405180910390fd5b6000835167ffffffffffffffff81111561062457610623611e44565b5b6040519080825280602002602001820160405280156106525781602001602082028036833780820191505090505b50905060005b84518110156106cf5761069f85828151811061067757610676612801565b5b602002602001015185838151811061069257610691612801565b5b60200260200101516102e1565b8282815181106106b2576106b1612801565b5b602002602001018181525050806106c89061285f565b9050610658565b508091505092915050565b6000806106e683610a85565b119050919050565b6107006106f9610d45565b8383611061565b5050565b60008015156007600088815260200190815260200160002060040160009054906101000a900460ff1615151461076f576040517f08c379a00000000000000000000000000000000000000000000000000000000081526004016107669061291a565b60405180910390fd5b600015156009846040516107839190612976565b908152602001604051809103902060009054906101000a900460ff161515146107e1576040517f08c379a00000000000000000000000000000000000000000000000000000000081526004016107d8906129ff565b60405180910390fd5b836002866107ef9190612a4e565b1161082f576040517f08c379a000000000000000000000000000000000000000000000000000000000815260040161082690612af1565b60405180910390fd5b6000600560009054906101000a900473ffffffffffffffffffffffffffffffffffffffff16905060008173ffffffffffffffffffffffffffffffffffffffff1662fdd58e338a6040518363ffffffff1660e01b8152600401610892929190612b20565b602060405180830381865afa1580156108af573d6000803e3d6000fd5b505050506040513d601f19601f820116820180604052508101906108d39190612b5e565b905060008111610918576040517f08c379a000000000000000000000000000000000000000000000000000000000815260040161090f90612bfd565b60405180910390fd5b6004600081548092919061092b9061285f565b91905055506000600454905061096c3082633b9aca008b61094c9190612c1d565b8a6109579190612c77565b604051806020016040528060008152506111ce565b7fe8759ef2f3b149474717ad4733600f7038cb0b4e968cf9f67e8162b2080dbef730304284633b9aca008d6109a19190612c1d565b8c6109ac9190612c77565b8b6040516109bf96959493929190612cab565b60405180910390a16109f13382633b9aca008a6109dc9190612c1d565b604051806020016040528060008152506111ce565b7fe8759ef2f3b149474717ad4733600f7038cb0b4e968cf9f67e8162b2080dbef730334284633b9aca008c610a269190612c1d565b8b604051610a3996959493929190612cab565b60405180910390a160006040518060c001604052808b81526020018881526020018781526020014281526020016001151581526020018381525090508194505050505095945050505050565b600060036000838152602001908152602001600020549050919050565b600660009054906101000a900473ffffffffffffffffffffffffffffffffffffffff1673ffffffffffffffffffffffffffffffffffffffff163373ffffffffffffffffffffffffffffffffffffffff1614610b32576040517f08c379a0000000000000000000000000000000000000000000000000000000008152600401610b2990612d85565b60405180910390fd5b80600560006101000a81548173ffffffffffffffffffffffffffffffffffffffff021916908373ffffffffffffffffffffffffffffffffffffffff16021790555050565b600181565b6000600160008473ffffffffffffffffffffffffffffffffffffffff1673ffffffffffffffffffffffffffffffffffffffff16815260200190815260200160002060008373ffffffffffffffffffffffffffffffffffffffff1673ffffffffffffffffffffffffffffffffffffffff16815260200190815260200160002060009054906101000a900460ff16905092915050565b610c17610d45565b73ffffffffffffffffffffffffffffffffffffffff168573ffffffffffffffffffffffffffffffffffffffff161480610c5d5750610c5c85610c57610d45565b610b7b565b5b610c9c576040517f08c379a0000000000000000000000000000000000000000000000000000000008152600401610c9390612e17565b60405180910390fd5b610ca98585858585611364565b5050505050565b505050505050565b6000808273ffffffffffffffffffffffffffffffffffffffff163b119050919050565b60007f01ffc9a7000000000000000000000000000000000000000000000000000000007bffffffffffffffffffffffffffffffffffffffffffffffffffffffff1916827bffffffffffffffffffffffffffffffffffffffffffffffffffffffff1916149050919050565b600033905090565b8151835114610d91576040517f08c379a0000000000000000000000000000000000000000000000000000000008152600401610d8890612ea9565b60405180910390fd5b600073ffffffffffffffffffffffffffffffffffffffff168473ffffffffffffffffffffffffffffffffffffffff161415610e01576040517f08c379a0000000000000000000000000000000000000000000000000000000008152600401610df890612f3b565b60405180910390fd5b6000610e0b610d45565b9050610e1b8187878787876115e6565b60005b8451811015610fcc576000858281518110610e3c57610e3b612801565b5b602002602001015190506000858381518110610e5b57610e5a612801565b5b60200260200101519050600080600084815260200190815260200160002060008b73ffffffffffffffffffffffffffffffffffffffff1673ffffffffffffffffffffffffffffffffffffffff16815260200190815260200160002054905081811015610efc576040517f08c379a0000000000000000000000000000000000000000000000000000000008152600401610ef390612fcd565b60405180910390fd5b81810360008085815260200190815260200160002060008c73ffffffffffffffffffffffffffffffffffffffff1673ffffffffffffffffffffffffffffffffffffffff168152602001908152602001600020819055508160008085815260200190815260200160002060008b73ffffffffffffffffffffffffffffffffffffffff1673ffffffffffffffffffffffffffffffffffffffff1681526020019081526020016000206000828254610fb19190612fed565b9250508190555050505080610fc59061285f565b9050610e1e565b508473ffffffffffffffffffffffffffffffffffffffff168673ffffffffffffffffffffffffffffffffffffffff168273ffffffffffffffffffffffffffffffffffffffff167f4a39dc06d4c0dbc64b70af90fd698a233a518aa5d07e595d983b8c0526c8f7fb8787604051611043929190613043565b60405180910390a4611059818787878787611760565b505050505050565b8173ffffffffffffffffffffffffffffffffffffffff168373ffffffffffffffffffffffffffffffffffffffff1614156110d0576040517f08c379a00000000000000000000000000000000000000000000000000000000081526004016110c7906130ec565b60405180910390fd5b80600160008573ffffffffffffffffffffffffffffffffffffffff1673ffffffffffffffffffffffffffffffffffffffff16815260200190815260200160002060008473ffffffffffffffffffffffffffffffffffffffff1673ffffffffffffffffffffffffffffffffffffffff16815260200190815260200160002060006101000a81548160ff0219169083151502179055508173ffffffffffffffffffffffffffffffffffffffff168373ffffffffffffffffffffffffffffffffffffffff167f17307eab39ab6107e8899845ad3d59bd9653f200f220920489ca2b5937696c31836040516111c19190611d3c565b60405180910390a3505050565b600073ffffffffffffffffffffffffffffffffffffffff168473ffffffffffffffffffffffffffffffffffffffff16141561123e576040517f08c379a00000000000000000000000000000000000000000000000000000000081526004016112359061317e565b60405180910390fd5b6000611248610d45565b90506112698160008761125a88611938565b61126388611938565b876115e6565b8260008086815260200190815260200160002060008773ffffffffffffffffffffffffffffffffffffffff1673ffffffffffffffffffffffffffffffffffffffff16815260200190815260200160002060008282546112c89190612fed565b925050819055508473ffffffffffffffffffffffffffffffffffffffff16600073ffffffffffffffffffffffffffffffffffffffff168273ffffffffffffffffffffffffffffffffffffffff167fc3d58168c5ae7397731d063d5bbf3d657854427343f4c083240f7aacaa2d0f62878760405161134692919061319e565b60405180910390a461135d816000878787876119b2565b5050505050565b600073ffffffffffffffffffffffffffffffffffffffff168473ffffffffffffffffffffffffffffffffffffffff1614156113d4576040517f08c379a00000000000000000000000000000000000000000000000000000000081526004016113cb90612f3b565b60405180910390fd5b60006113de610d45565b90506113fe8187876113ef88611938565b6113f888611938565b876115e6565b600080600086815260200190815260200160002060008873ffffffffffffffffffffffffffffffffffffffff1673ffffffffffffffffffffffffffffffffffffffff16815260200190815260200160002054905083811015611495576040517f08c379a000000000000000000000000000000000000000000000000000000000815260040161148c90612fcd565b60405180910390fd5b83810360008087815260200190815260200160002060008973ffffffffffffffffffffffffffffffffffffffff1673ffffffffffffffffffffffffffffffffffffffff168152602001908152602001600020819055508360008087815260200190815260200160002060008873ffffffffffffffffffffffffffffffffffffffff1673ffffffffffffffffffffffffffffffffffffffff168152602001908152602001600020600082825461154a9190612fed565b925050819055508573ffffffffffffffffffffffffffffffffffffffff168773ffffffffffffffffffffffffffffffffffffffff168373ffffffffffffffffffffffffffffffffffffffff167fc3d58168c5ae7397731d063d5bbf3d657854427343f4c083240f7aacaa2d0f6288886040516115c792919061319e565b60405180910390a46115dd8288888888886119b2565b50505050505050565b6115f4868686868686610cb0565b600073ffffffffffffffffffffffffffffffffffffffff168573ffffffffffffffffffffffffffffffffffffffff1614156116a65760005b83518110156116a45782818151811061164857611647612801565b5b60200260200101516003600086848151811061166757611666612801565b5b60200260200101518152602001908152602001600020600082825461168c9190612fed565b925050819055508061169d9061285f565b905061162c565b505b600073ffffffffffffffffffffffffffffffffffffffff168473ffffffffffffffffffffffffffffffffffffffff1614156117585760005b8351811015611756578281815181106116fa576116f9612801565b5b60200260200101516003600086848151811061171957611718612801565b5b60200260200101518152602001908152602001600020600082825461173e9190612c77565b925050819055508061174f9061285f565b90506116de565b505b505050505050565b61177f8473ffffffffffffffffffffffffffffffffffffffff16610cb8565b15611930578373ffffffffffffffffffffffffffffffffffffffff1663bc197c8187878686866040518663ffffffff1660e01b81526004016117c595949392919061321c565b6020604051808303816000875af192505050801561180157506040513d601f19601f820116820180604052508101906117fe9190613299565b60015b6118a75761180d6132d3565b806308c379a0141561186a57506118226132f5565b8061182d575061186c565b806040517f08c379a00000000000000000000000000000000000000000000000000000000081526004016118619190611e1d565b60405180910390fd5b505b6040517f08c379a000000000000000000000000000000000000000000000000000000000815260040161189e906133fd565b60405180910390fd5b63bc197c8160e01b7bffffffffffffffffffffffffffffffffffffffffffffffffffffffff1916817bffffffffffffffffffffffffffffffffffffffffffffffffffffffff19161461192e576040517f08c379a00000000000000000000000000000000000000000000000000000000081526004016119259061348f565b60405180910390fd5b505b505050505050565b60606000600167ffffffffffffffff81111561195757611956611e44565b5b6040519080825280602002602001820160405280156119855781602001602082028036833780820191505090505b509050828160008151811061199d5761199c612801565b5b60200260200101818152505080915050919050565b6119d18473ffffffffffffffffffffffffffffffffffffffff16610cb8565b15611b82578373ffffffffffffffffffffffffffffffffffffffff1663f23a6e6187878686866040518663ffffffff1660e01b8152600401611a179594939291906134af565b6020604051808303816000875af1925050508015611a5357506040513d601f19601f82011682018060405250810190611a509190613299565b60015b611af957611a5f6132d3565b806308c379a01415611abc5750611a746132f5565b80611a7f5750611abe565b806040517f08c379a0000000000000000000000000000000000000000000000000000000008152600401611ab39190611e1d565b60405180910390fd5b505b6040517f08c379a0000000000000000000000000000000000000000000000000000000008152600401611af0906133fd565b60405180910390fd5b63f23a6e6160e01b7bffffffffffffffffffffffffffffffffffffffffffffffffffffffff1916817bffffffffffffffffffffffffffffffffffffffffffffffffffffffff191614611b80576040517f08c379a0000000000000000000000000000000000000000000000000000000008152600401611b779061348f565b60405180910390fd5b505b505050505050565b6000604051905090565b600080fd5b600080fd5b600073ffffffffffffffffffffffffffffffffffffffff82169050919050565b6000611bc982611b9e565b9050919050565b611bd981611bbe565b8114611be457600080fd5b50565b600081359050611bf681611bd0565b92915050565b6000819050919050565b611c0f81611bfc565b8114611c1a57600080fd5b50565b600081359050611c2c81611c06565b92915050565b60008060408385031215611c4957611c48611b94565b5b6000611c5785828601611be7565b9250506020611c6885828601611c1d565b9150509250929050565b611c7b81611bfc565b82525050565b6000602082019050611c966000830184611c72565b92915050565b60007fffffffff0000000000000000000000000000000000000000000000000000000082169050919050565b611cd181611c9c565b8114611cdc57600080fd5b50565b600081359050611cee81611cc8565b92915050565b600060208284031215611d0a57611d09611b94565b5b6000611d1884828501611cdf565b91505092915050565b60008115159050919050565b611d3681611d21565b82525050565b6000602082019050611d516000830184611d2d565b92915050565b600060208284031215611d6d57611d6c611b94565b5b6000611d7b84828501611c1d565b91505092915050565b600081519050919050565b600082825260208201905092915050565b60005b83811015611dbe578082015181840152602081019050611da3565b83811115611dcd576000848401525b50505050565b6000601f19601f8301169050919050565b6000611def82611d84565b611df98185611d8f565b9350611e09818560208601611da0565b611e1281611dd3565b840191505092915050565b60006020820190508181036000830152611e378184611de4565b905092915050565b600080fd5b7f4e487b7100000000000000000000000000000000000000000000000000000000600052604160045260246000fd5b611e7c82611dd3565b810181811067ffffffffffffffff82111715611e9b57611e9a611e44565b5b80604052505050565b6000611eae611b8a565b9050611eba8282611e73565b919050565b600067ffffffffffffffff821115611eda57611ed9611e44565b5b602082029050602081019050919050565b600080fd5b6000611f03611efe84611ebf565b611ea4565b90508083825260208201905060208402830185811115611f2657611f25611eeb565b5b835b81811015611f4f5780611f3b8882611c1d565b845260208401935050602081019050611f28565b5050509392505050565b600082601f830112611f6e57611f6d611e3f565b5b8135611f7e848260208601611ef0565b91505092915050565b600080fd5b600067ffffffffffffffff821115611fa757611fa6611e44565b5b611fb082611dd3565b9050602081019050919050565b82818337600083830152505050565b6000611fdf611fda84611f8c565b611ea4565b905082815260208101848484011115611ffb57611ffa611f87565b5b612006848285611fbd565b509392505050565b600082601f83011261202357612022611e3f565b5b8135612033848260208601611fcc565b91505092915050565b600080600080600060a0868803121561205857612057611b94565b5b600061206688828901611be7565b955050602061207788828901611be7565b945050604086013567ffffffffffffffff81111561209857612097611b99565b5b6120a488828901611f59565b935050606086013567ffffffffffffffff8111156120c5576120c4611b99565b5b6120d188828901611f59565b925050608086013567ffffffffffffffff8111156120f2576120f1611b99565b5b6120fe8882890161200e565b9150509295509295909350565b600067ffffffffffffffff82111561212657612125611e44565b5b602082029050602081019050919050565b600061214a6121458461210b565b611ea4565b9050808382526020820190506020840283018581111561216d5761216c611eeb565b5b835b8181101561219657806121828882611be7565b84526020840193505060208101905061216f565b5050509392505050565b600082601f8301126121b5576121b4611e3f565b5b81356121c5848260208601612137565b91505092915050565b600080604083850312156121e5576121e4611b94565b5b600083013567ffffffffffffffff81111561220357612202611b99565b5b61220f858286016121a0565b925050602083013567ffffffffffffffff8111156122305761222f611b99565b5b61223c85828601611f59565b9150509250929050565b600081519050919050565b600082825260208201905092915050565b6000819050602082019050919050565b61227b81611bfc565b82525050565b600061228d8383612272565b60208301905092915050565b6000602082019050919050565b60006122b182612246565b6122bb8185612251565b93506122c683612262565b8060005b838110156122f75781516122de8882612281565b97506122e983612299565b9250506001810190506122ca565b5085935050505092915050565b6000602082019050818103600083015261231e81846122a6565b905092915050565b61232f81611d21565b811461233a57600080fd5b50565b60008135905061234c81612326565b92915050565b6000806040838503121561236957612368611b94565b5b600061237785828601611be7565b92505060206123888582860161233d565b9150509250929050565b600067ffffffffffffffff8211156123ad576123ac611e44565b5b6123b682611dd3565b9050602081019050919050565b60006123d66123d184612392565b611ea4565b9050828152602081018484840111156123f2576123f1611f87565b5b6123fd848285611fbd565b509392505050565b600082601f83011261241a57612419611e3f565b5b813561242a8482602086016123c3565b91505092915050565b600080600080600060a0868803121561244f5761244e611b94565b5b600061245d88828901611c1d565b955050602061246e88828901611c1d565b945050604061247f88828901611c1d565b935050606086013567ffffffffffffffff8111156124a05761249f611b99565b5b6124ac88828901612405565b925050608086013567ffffffffffffffff8111156124cd576124cc611b99565b5b6124d988828901612405565b9150509295509295909350565b6000602082840312156124fc576124fb611b94565b5b600061250a84828501611be7565b91505092915050565b6000806040838503121561252a57612529611b94565b5b600061253885828601611be7565b925050602061254985828601611be7565b9150509250929050565b600080600080600060a0868803121561256f5761256e611b94565b5b600061257d88828901611be7565b955050602061258e88828901611be7565b945050604061259f88828901611c1d565b93505060606125b088828901611c1d565b925050608086013567ffffffffffffffff8111156125d1576125d0611b99565b5b6125dd8882890161200e565b9150509295509295909350565b7f455243313135353a2062616c616e636520717565727920666f7220746865207a60008201527f65726f2061646472657373000000000000000000000000000000000000000000602082015250565b6000612646602b83611d8f565b9150612651826125ea565b604082019050919050565b6000602082019050818103600083015261267581612639565b9050919050565b7f4e487b7100000000000000000000000000000000000000000000000000000000600052602260045260246000fd5b600060028204905060018216806126c357607f821691505b602082108114156126d7576126d661267c565b5b50919050565b7f455243313135353a207472616e736665722063616c6c6572206973206e6f742060008201527f6f776e6572206e6f7220617070726f7665640000000000000000000000000000602082015250565b6000612739603283611d8f565b9150612744826126dd565b604082019050919050565b600060208201905081810360008301526127688161272c565b9050919050565b7f455243313135353a206163636f756e747320616e6420696473206c656e67746860008201527f206d69736d617463680000000000000000000000000000000000000000000000602082015250565b60006127cb602983611d8f565b91506127d68261276f565b604082019050919050565b600060208201905081810360008301526127fa816127be565b9050919050565b7f4e487b7100000000000000000000000000000000000000000000000000000000600052603260045260246000fd5b7f4e487b7100000000000000000000000000000000000000000000000000000000600052601160045260246000fd5b600061286a82611bfc565b91507fffffffffffffffffffffffffffffffffffffffffffffffffffffffffffffffff82141561289d5761289c612830565b5b600182019050919050565b7f476f7665726e616e636520746f6b656e20666f72207468697320696420616c7260008201527f656164792070726573656e740000000000000000000000000000000000000000602082015250565b6000612904602c83611d8f565b915061290f826128a8565b604082019050919050565b60006020820190508181036000830152612933816128f7565b9050919050565b600081905092915050565b600061295082611d84565b61295a818561293a565b935061296a818560208601611da0565b80840191505092915050565b60006129828284612945565b915081905092915050565b7f476f7665726e616e636520746f6b656e207769746820746869732053594d424f60008201527f4c20616c72656164792070726573656e74000000000000000000000000000000602082015250565b60006129e9603183611d8f565b91506129f48261298d565b604082019050919050565b60006020820190508181036000830152612a18816129dc565b9050919050565b7f4e487b7100000000000000000000000000000000000000000000000000000000600052601260045260246000fd5b6000612a5982611bfc565b9150612a6483611bfc565b925082612a7457612a73612a1f565b5b828204905092915050565b7f54726561737572792073686f756c642068617665206174206c6561737420353060008201527f25206f662074686520746f74616c20737570706c790000000000000000000000602082015250565b6000612adb603583611d8f565b9150612ae682612a7f565b604082019050919050565b60006020820190508181036000830152612b0a81612ace565b9050919050565b612b1a81611bbe565b82525050565b6000604082019050612b356000830185612b11565b612b426020830184611c72565b9392505050565b600081519050612b5881611c06565b92915050565b600060208284031215612b7457612b73611b94565b5b6000612b8284828501612b49565b91505092915050565b7f596f7520617265206e6f7420746865206f776e6572206f66207468652072656360008201527f6f72640000000000000000000000000000000000000000000000000000000000602082015250565b6000612be7602383611d8f565b9150612bf282612b8b565b604082019050919050565b60006020820190508181036000830152612c1681612bda565b9050919050565b6000612c2882611bfc565b9150612c3383611bfc565b9250817fffffffffffffffffffffffffffffffffffffffffffffffffffffffffffffffff0483118215151615612c6c57612c6b612830565b5b828202905092915050565b6000612c8282611bfc565b9150612c8d83611bfc565b925082821015612ca057612c9f612830565b5b828203905092915050565b600060c082019050612cc06000830189612b11565b612ccd6020830188612b11565b612cda6040830187611c72565b612ce76060830186611c72565b612cf46080830185611c72565b81810360a0830152612d068184611de4565b9050979650505050505050565b7f596f7520617265206e6f7420617574686f72697a656420666f7220746869732060008201527f616374696f6e0000000000000000000000000000000000000000000000000000602082015250565b6000612d6f602683611d8f565b9150612d7a82612d13565b604082019050919050565b60006020820190508181036000830152612d9e81612d62565b9050919050565b7f455243313135353a2063616c6c6572206973206e6f74206f776e6572206e6f7260008201527f20617070726f7665640000000000000000000000000000000000000000000000602082015250565b6000612e01602983611d8f565b9150612e0c82612da5565b604082019050919050565b60006020820190508181036000830152612e3081612df4565b9050919050565b7f455243313135353a2069647320616e6420616d6f756e7473206c656e6774682060008201527f6d69736d61746368000000000000000000000000000000000000000000000000602082015250565b6000612e93602883611d8f565b9150612e9e82612e37565b604082019050919050565b60006020820190508181036000830152612ec281612e86565b9050919050565b7f455243313135353a207472616e7366657220746f20746865207a65726f20616460008201527f6472657373000000000000000000000000000000000000000000000000000000602082015250565b6000612f25602583611d8f565b9150612f3082612ec9565b604082019050919050565b60006020820190508181036000830152612f5481612f18565b9050919050565b7f455243313135353a20696e73756666696369656e742062616c616e636520666f60008201527f72207472616e7366657200000000000000000000000000000000000000000000602082015250565b6000612fb7602a83611d8f565b9150612fc282612f5b565b604082019050919050565b60006020820190508181036000830152612fe681612faa565b9050919050565b6000612ff882611bfc565b915061300383611bfc565b9250827fffffffffffffffffffffffffffffffffffffffffffffffffffffffffffffffff0382111561303857613037612830565b5b828201905092915050565b6000604082019050818103600083015261305d81856122a6565b9050818103602083015261307181846122a6565b90509392505050565b7f455243313135353a2073657474696e6720617070726f76616c2073746174757360008201527f20666f722073656c660000000000000000000000000000000000000000000000602082015250565b60006130d6602983611d8f565b91506130e18261307a565b604082019050919050565b60006020820190508181036000830152613105816130c9565b9050919050565b7f455243313135353a206d696e7420746f20746865207a65726f2061646472657360008201527f7300000000000000000000000000000000000000000000000000000000000000602082015250565b6000613168602183611d8f565b91506131738261310c565b604082019050919050565b600060208201905081810360008301526131978161315b565b9050919050565b60006040820190506131b36000830185611c72565b6131c06020830184611c72565b9392505050565b600081519050919050565b600082825260208201905092915050565b60006131ee826131c7565b6131f881856131d2565b9350613208818560208601611da0565b61321181611dd3565b840191505092915050565b600060a0820190506132316000830188612b11565b61323e6020830187612b11565b818103604083015261325081866122a6565b9050818103606083015261326481856122a6565b9050818103608083015261327881846131e3565b90509695505050505050565b60008151905061329381611cc8565b92915050565b6000602082840312156132af576132ae611b94565b5b60006132bd84828501613284565b91505092915050565b60008160e01c9050919050565b600060033d11156132f25760046000803e6132ef6000516132c6565b90505b90565b600060443d101561330557613388565b61330d611b8a565b60043d036004823e80513d602482011167ffffffffffffffff82111715613335575050613388565b808201805167ffffffffffffffff8111156133535750505050613388565b80602083010160043d038501811115613370575050505050613388565b61337f82602001850186611e73565b82955050505050505b90565b7f455243313135353a207472616e7366657220746f206e6f6e204552433131353560008201527f526563656976657220696d706c656d656e746572000000000000000000000000602082015250565b60006133e7603483611d8f565b91506133f28261338b565b604082019050919050565b60006020820190508181036000830152613416816133da565b9050919050565b7f455243313135353a204552433131353552656365697665722072656a6563746560008201527f6420746f6b656e73000000000000000000000000000000000000000000000000602082015250565b6000613479602883611d8f565b91506134848261341d565b604082019050919050565b600060208201905081810360008301526134a88161346c565b9050919050565b600060a0820190506134c46000830188612b11565b6134d16020830187612b11565b6134de6040830186611c72565b6134eb6060830185611c72565b81810360808301526134fd81846131e3565b9050969550505050505056fea264697066735822122013f548b4f8283cfa217256ced1175004a41e0af20aa1cd5f45e59da8a2ae6ac164736f6c634300080c0033",
  "immutableReferences": {},
  "source": "pragma solidity ^0.8.0;\n\nimport \"@openzeppelin/contracts/token/ERC1155/ERC1155.sol\";\nimport \"@openzeppelin/contracts/token/ERC1155/extensions/ERC1155Supply.sol\";\nimport \"@openzeppelin/contracts/utils/Counters.sol\";\nimport \"@openzeppelin/contracts/access/Ownable.sol\";\nimport \"./RecordsContract.sol\";\n\n// ERC 20 balance[adress] => 2 contracts // governance and comunity\n// ERC 721 blance[adress] => 1 contract // records\n// ERC 1155\n\ncontract TreasuryContract is ERC1155Supply {\n    uint256 public constant CRD = 1;\n    uint256 private LastTokenId = 1;\n    address RECORDS_CONTRACT_ADDRESS;\n    address OWNER;\n\n    struct Token {\n        uint256 recordId;\n        string symbol;\n        string image;\n        uint256 creationDate;\n        bool isPresent;\n        uint256 tokenId;\n    }\n\n    event TokenTransfer(\n        address from,\n        address to,\n        uint256 transferDate,\n        uint256 tokenId,\n        uint256 amount,\n        string symbol\n    );\n    event NewGovernanceTokenCreated(\n        uint256 recordId,\n        string name,\n        string symbol,\n        string image,\n        uint256 creationDate,\n        uint256 tokenId\n    );\n    event NewCommunityTokenCreated(\n        uint256 recordId,\n        string name,\n        string symbol,\n        string image,\n        uint256 creationDate,\n        uint256 tokenId\n    );\n\n    mapping(uint256 => Token) govTokenMapping;\n    mapping(uint256 => Token) commTokenMapping;\n\n    mapping(string => bool) govTokenSym;\n    mapping(string => bool) commTokenSym;\n\n    // By default URI to crowdrecords domain\n    // 9 decimal points supported\n    constructor() ERC1155(\"https://crowdrecords.com/{id}\") {\n        _mint(msg.sender, CRD, 10**9, \"https://crowdrecords.com\");\n        OWNER = msg.sender;\n    }\n\n    /**\n     * @dev Modifier to check that the person who accesses a specific function is the owner of contract himself.\n     */\n    modifier ownerOnly() {\n        require(msg.sender == OWNER, \"You are not authorized for this action\");\n        _;\n    }\n\n    /**\n     * @dev This function sets the Voting Contract address\n     */\n    function setRecordsContractAddress(address newRecordsContractAddress)\n        public\n        ownerOnly\n    {\n        RECORDS_CONTRACT_ADDRESS = newRecordsContractAddress;\n    }\n\n    /**\n     * @dev This function creats new governance tokens for specified record\n     * @param recordId This is the recordId that for new token\n     * @param totalSupply This is the total supply of governance token\n     * @param userBalance This is the amount of tokens that user wants to keep to himself\n     * @param symbol This is the symbol of the gvernance token\n     * @param image this is image of the gov token.\n     */\n    function createNewGovernanceToken(\n        uint256 recordId,\n        uint256 totalSupply,\n        uint256 userBalance,\n        string memory symbol,\n        string memory image\n    ) public returns (uint256) {\n        require(\n            govTokenMapping[recordId].isPresent == false,\n            \"Governance token for this id already present\"\n        );\n\n        require(\n            govTokenSym[symbol] == false,\n            \"Governance token with this SYMBOL already present\"\n        );\n\n        require(\n            totalSupply / 2 > userBalance,\n            \"Treasury should have at least 50% of the total supply\"\n        );\n\n        RecordsContract recordsContract = RecordsContract(\n            RECORDS_CONTRACT_ADDRESS\n        );\n\n        uint256 balance = recordsContract.balanceOf(msg.sender, recordId);\n\n        require(balance > 0, \"You are not the owner of the record\");\n\n        LastTokenId++;\n        uint256 newTokenId = LastTokenId;\n\n        _mint(address(this), newTokenId, userBalance - totalSupply * 10**9, \"\");\n        emit TokenTransfer({\n            from: address(this),\n            to: address(this),\n            transferDate: block.timestamp,\n            tokenId: newTokenId,\n            amount: userBalance - totalSupply * 10**9,\n            symbol: symbol\n        });\n\n        _mint(msg.sender, newTokenId, userBalance * 10**9, \"\");\n        emit TokenTransfer({\n            from: address(this),\n            to: msg.sender,\n            transferDate: block.timestamp,\n            tokenId: newTokenId,\n            amount: userBalance * 10**9,\n            symbol: symbol\n        });\n\n        Token memory token = Token({\n            recordId: recordId,\n            symbol: symbol,\n            image: image,\n            creationDate: block.timestamp,\n            isPresent: true,\n            tokenId: newTokenId\n        });\n\n        return newTokenId;\n    }\n}\n",
  "sourcePath": "/Users/a1/Desktop/Office/projects/CrowdRecords/Contracts/contracts/TreasuryContract.sol",
  "compiler": {
    "name": "solc",
    "version": "0.8.12+commit.f00d7308.Emscripten.clang"
  },
  "schemaVersion": "3.4.6",
  "updatedAt": "2022-03-26T13:42:32.795Z",
  "networkType": "ethereum",
  "devdoc": {
    "kind": "dev",
    "methods": {
      "balanceOf(address,uint256)": {
        "details": "See {IERC1155-balanceOf}. Requirements: - `account` cannot be the zero address."
      },
      "balanceOfBatch(address[],uint256[])": {
        "details": "See {IERC1155-balanceOfBatch}. Requirements: - `accounts` and `ids` must have the same length."
      },
      "createNewGovernanceToken(uint256,uint256,uint256,string,string)": {
        "details": "This function creats new governance tokens for specified record",
        "params": {
          "image": "this is image of the gov token.",
          "recordId": "This is the recordId that for new token",
          "symbol": "This is the symbol of the gvernance token",
          "totalSupply": "This is the total supply of governance token",
          "userBalance": "This is the amount of tokens that user wants to keep to himself"
        }
      },
      "exists(uint256)": {
        "details": "Indicates whether any token exist with a given id, or not."
      },
      "isApprovedForAll(address,address)": {
        "details": "See {IERC1155-isApprovedForAll}."
      },
      "safeBatchTransferFrom(address,address,uint256[],uint256[],bytes)": {
        "details": "See {IERC1155-safeBatchTransferFrom}."
      },
      "safeTransferFrom(address,address,uint256,uint256,bytes)": {
        "details": "See {IERC1155-safeTransferFrom}."
      },
      "setApprovalForAll(address,bool)": {
        "details": "See {IERC1155-setApprovalForAll}."
      },
      "setRecordsContractAddress(address)": {
        "details": "This function sets the Voting Contract address"
      },
      "supportsInterface(bytes4)": {
        "details": "See {IERC165-supportsInterface}."
      },
      "totalSupply(uint256)": {
        "details": "Total amount of tokens in with a given id."
      },
      "uri(uint256)": {
        "details": "See {IERC1155MetadataURI-uri}. This implementation returns the same URI for *all* token types. It relies on the token type ID substitution mechanism https://eips.ethereum.org/EIPS/eip-1155#metadata[defined in the EIP]. Clients calling this function must replace the `\\{id\\}` substring with the actual token type ID."
      }
    },
    "version": 1
  },
  "userdoc": {
    "kind": "user",
    "methods": {},
    "version": 1
  }
}