{
  "contractName": "VotingContract",
  "abi": [
    {
      "inputs": [],
      "stateMutability": "nonpayable",
      "type": "constructor"
    },
    {
      "anonymous": false,
      "inputs": [
        {
          "indexed": false,
          "internalType": "uint256",
          "name": "contributionId",
          "type": "uint256"
        },
        {
          "indexed": false,
          "internalType": "address",
          "name": "voterId",
          "type": "address"
        },
        {
          "indexed": false,
          "internalType": "uint256",
          "name": "newGovernanceReward",
          "type": "uint256"
        },
        {
          "indexed": false,
          "internalType": "uint256",
          "name": "newCommunityReward",
          "type": "uint256"
        },
        {
          "indexed": false,
          "internalType": "uint256",
          "name": "status",
          "type": "uint256"
        }
      ],
      "name": "counterOfferAction",
      "type": "event"
    },
    {
      "anonymous": false,
      "inputs": [
        {
          "indexed": false,
          "internalType": "uint256",
          "name": "contributionId",
          "type": "uint256"
        },
        {
          "indexed": false,
          "internalType": "address",
          "name": "voterId",
          "type": "address"
        },
        {
          "indexed": false,
          "internalType": "uint256",
          "name": "newGovernanceReward",
          "type": "uint256"
        },
        {
          "indexed": false,
          "internalType": "uint256",
          "name": "newCommunityReward",
          "type": "uint256"
        }
      ],
      "name": "counterOfferForContribution",
      "type": "event"
    },
    {
      "anonymous": false,
      "inputs": [
        {
          "indexed": false,
          "internalType": "uint256",
          "name": "contributionId",
          "type": "uint256"
        },
        {
          "indexed": false,
          "internalType": "address",
          "name": "owner",
          "type": "address"
        },
        {
          "indexed": false,
          "internalType": "uint256",
          "name": "governanceReward",
          "type": "uint256"
        },
        {
          "indexed": false,
          "internalType": "uint256",
          "name": "communityReward",
          "type": "uint256"
        },
        {
          "indexed": false,
          "internalType": "uint256",
          "name": "votingEndBlock",
          "type": "uint256"
        }
      ],
      "name": "createContributionBallot",
      "type": "event"
    },
    {
      "anonymous": false,
      "inputs": [
        {
          "indexed": false,
          "internalType": "uint256",
          "name": "contributionId",
          "type": "uint256"
        },
        {
          "indexed": false,
          "internalType": "address",
          "name": "voterId",
          "type": "address"
        },
        {
          "indexed": false,
          "internalType": "bool",
          "name": "vote",
          "type": "bool"
        }
      ],
      "name": "voteForContribution",
      "type": "event"
    },
    {
      "inputs": [
        {
          "internalType": "address",
          "name": "newContributionContractAddress",
          "type": "address"
        }
      ],
      "name": "setContributionContractAddress",
      "outputs": [],
      "stateMutability": "nonpayable",
      "type": "function"
    },
    {
      "inputs": [
        {
          "internalType": "uint256",
          "name": "contributionId",
          "type": "uint256"
        },
        {
          "internalType": "address",
          "name": "contributionCreator",
          "type": "address"
        },
        {
          "internalType": "uint256",
          "name": "govReward",
          "type": "uint256"
        },
        {
          "internalType": "uint256",
          "name": "commReward",
          "type": "uint256"
        }
      ],
      "name": "createContributionVotingBallot",
      "outputs": [
        {
          "components": [
            {
              "internalType": "address",
              "name": "owner",
              "type": "address"
            },
            {
              "internalType": "address[]",
              "name": "yes",
              "type": "address[]"
            },
            {
              "internalType": "address[]",
              "name": "no",
              "type": "address[]"
            },
            {
              "internalType": "uint256",
              "name": "communityReward",
              "type": "uint256"
            },
            {
              "internalType": "uint256",
              "name": "governanceReward",
              "type": "uint256"
            },
            {
              "internalType": "uint256",
              "name": "votingEndBlock",
              "type": "uint256"
            },
            {
              "internalType": "bool",
              "name": "isPresent",
              "type": "bool"
            }
          ],
          "internalType": "struct VotingContract.Ballot",
          "name": "ballot",
          "type": "tuple"
        }
      ],
      "stateMutability": "nonpayable",
      "type": "function"
    },
    {
      "inputs": [
        {
          "internalType": "uint256",
          "name": "contributionId",
          "type": "uint256"
        },
        {
          "internalType": "bool",
          "name": "vote",
          "type": "bool"
        }
      ],
      "name": "castVoteForContribution",
      "outputs": [],
      "stateMutability": "nonpayable",
      "type": "function"
    },
    {
      "inputs": [
        {
          "internalType": "uint256",
          "name": "contributionId",
          "type": "uint256"
        },
        {
          "internalType": "uint256",
          "name": "newCommunityReward",
          "type": "uint256"
        },
        {
          "internalType": "uint256",
          "name": "newGovernanceReward",
          "type": "uint256"
        }
      ],
      "name": "proposeCounterOffer",
      "outputs": [],
      "stateMutability": "nonpayable",
      "type": "function"
    },
    {
      "inputs": [
        {
          "internalType": "uint256",
          "name": "contributionId",
          "type": "uint256"
        },
        {
          "internalType": "address[]",
          "name": "counterOfferIds",
          "type": "address[]"
        },
        {
          "internalType": "bool",
          "name": "action",
          "type": "bool"
        }
      ],
      "name": "actionOnCounterOffer",
      "outputs": [],
      "stateMutability": "nonpayable",
      "type": "function"
    },
    {
      "inputs": [
        {
          "internalType": "uint256",
          "name": "contributionId",
          "type": "uint256"
        }
      ],
      "name": "contributionBallotResult",
      "outputs": [],
      "stateMutability": "nonpayable",
      "type": "function"
    }
  ],
  "bytecode": "0x6080604052601960005534801561001557600080fd5b5033600260006101000a81548173ffffffffffffffffffffffffffffffffffffffff021916908373ffffffffffffffffffffffffffffffffffffffff160217905550612284806100666000396000f3fe608060405234801561001057600080fd5b50600436106100625760003560e01c8063186b754c14610067578063251686ed1461009757806329c50b59146100b357806348251f67146100cf578063c679968a146100eb578063c9d5914314610107575b600080fd5b610081600480360381019061007c9190611653565b610123565b60405161008e9190611845565b60405180910390f35b6100b160048036038101906100ac9190611893565b610445565b005b6100cd60048036038101906100c891906118d3565b6107f6565b005b6100e960048036038101906100e49190611900565b6108ca565b005b6101056004803603810190610100919061192d565b610a35565b005b610121600480360381019061011c9190611ad9565b610e95565b005b61012b6114af565b600015156006600087815260200190815260200160002060060160009054906101000a900460ff16151514610195576040517f08c379a000000000000000000000000000000000000000000000000000000000815260040161018c90611ba5565b60405180910390fd5b3373ffffffffffffffffffffffffffffffffffffffff16600160009054906101000a900473ffffffffffffffffffffffffffffffffffffffff1673ffffffffffffffffffffffffffffffffffffffff1614610225576040517f08c379a000000000000000000000000000000000000000000000000000000000815260040161021c90611c37565b60405180910390fd5b60006040518060e001604052808673ffffffffffffffffffffffffffffffffffffffff168152602001600067ffffffffffffffff81111561026957610268611996565b5b6040519080825280602002602001820160405280156102975781602001602082028036833780820191505090505b508152602001600067ffffffffffffffff8111156102b8576102b7611996565b5b6040519080825280602002602001820160405280156102e65781602001602082028036833780820191505090505b508152602001848152602001858152602001600054436103069190611c86565b8152602001600115158152509050806006600088815260200190815260200160002060008201518160000160006101000a81548173ffffffffffffffffffffffffffffffffffffffff021916908373ffffffffffffffffffffffffffffffffffffffff160217905550602082015181600101908051906020019061038b929190611504565b5060408201518160020190805190602001906103a8929190611504565b50606082015181600301556080820151816004015560a0820151816005015560c08201518160060160006101000a81548160ff0219169083151502179055509050507fe719d3b0e032737ce05b8a76ffba8575e3ebd882972dac5e117988a4e195b783868260000151836080015184606001518560a00151604051610431959493929190611cfa565b60405180910390a180915050949350505050565b81600115156006600083815260200190815260200160002060060160009054906101000a900460ff161515146104b0576040517f08c379a00000000000000000000000000000000000000000000000000000000081526004016104a790611d99565b60405180910390fd5b43600660008381526020019081526020016000206005015411610508576040517f08c379a00000000000000000000000000000000000000000000000000000000081526004016104ff90611e05565b60405180910390fd5b600015156003600083815260200190815260200160002060003373ffffffffffffffffffffffffffffffffffffffff1673ffffffffffffffffffffffffffffffffffffffff16815260200190815260200160002060009054906101000a900460ff161515146105ac576040517f08c379a00000000000000000000000000000000000000000000000000000000081526004016105a390611e71565b60405180910390fd5b823373ffffffffffffffffffffffffffffffffffffffff166006600083815260200190815260200160002060000160009054906101000a900473ffffffffffffffffffffffffffffffffffffffff1673ffffffffffffffffffffffffffffffffffffffff161415610652576040517f08c379a000000000000000000000000000000000000000000000000000000000815260040161064990611edd565b60405180910390fd5b82156106d45760066000858152602001908152602001600020600101339080600181540180825580915050600190039060005260206000200160009091909190916101000a81548173ffffffffffffffffffffffffffffffffffffffff021916908373ffffffffffffffffffffffffffffffffffffffff16021790555061074c565b60066000858152602001908152602001600020600201339080600181540180825580915050600190039060005260206000200160009091909190916101000a81548173ffffffffffffffffffffffffffffffffffffffff021916908373ffffffffffffffffffffffffffffffffffffffff1602179055505b60016003600086815260200190815260200160002060003373ffffffffffffffffffffffffffffffffffffffff1673ffffffffffffffffffffffffffffffffffffffff16815260200190815260200160002060006101000a81548160ff0219169083151502179055507f7042724a6f6b40faf9ef01f7b8f6295ec241a0e7cb0802f7105b9c27d831881f8433856040516107e893929190611f0c565b60405180910390a150505050565b600260009054906101000a900473ffffffffffffffffffffffffffffffffffffffff1673ffffffffffffffffffffffffffffffffffffffff163373ffffffffffffffffffffffffffffffffffffffff1614610886576040517f08c379a000000000000000000000000000000000000000000000000000000000815260040161087d90611fb5565b60405180910390fd5b80600160006101000a81548173ffffffffffffffffffffffffffffffffffffffff021916908373ffffffffffffffffffffffffffffffffffffffff16021790555050565b80600115156006600083815260200190815260200160002060060160009054906101000a900460ff16151514610935576040517f08c379a000000000000000000000000000000000000000000000000000000000815260040161092c90611d99565b60405180910390fd5b4360066000838152602001908152602001600020600501541161098d576040517f08c379a000000000000000000000000000000000000000000000000000000000815260040161098490611e05565b60405180910390fd5b600015156003600083815260200190815260200160002060003373ffffffffffffffffffffffffffffffffffffffff1673ffffffffffffffffffffffffffffffffffffffff16815260200190815260200160002060009054906101000a900460ff16151514610a31576040517f08c379a0000000000000000000000000000000000000000000000000000000008152600401610a2890611e71565b60405180910390fd5b5050565b82600115156006600083815260200190815260200160002060060160009054906101000a900460ff16151514610aa0576040517f08c379a0000000000000000000000000000000000000000000000000000000008152600401610a9790611d99565b60405180910390fd5b43600660008381526020019081526020016000206005015411610af8576040517f08c379a0000000000000000000000000000000000000000000000000000000008152600401610aef90611e05565b60405180910390fd5b600015156003600083815260200190815260200160002060003373ffffffffffffffffffffffffffffffffffffffff1673ffffffffffffffffffffffffffffffffffffffff16815260200190815260200160002060009054906101000a900460ff16151514610b9c576040517f08c379a0000000000000000000000000000000000000000000000000000000008152600401610b9390611e71565b60405180910390fd5b833373ffffffffffffffffffffffffffffffffffffffff166006600083815260200190815260200160002060000160009054906101000a900473ffffffffffffffffffffffffffffffffffffffff1673ffffffffffffffffffffffffffffffffffffffff161415610c42576040517f08c379a0000000000000000000000000000000000000000000000000000000008152600401610c3990611edd565b60405180910390fd5b600015156003600087815260200190815260200160002060003373ffffffffffffffffffffffffffffffffffffffff1673ffffffffffffffffffffffffffffffffffffffff16815260200190815260200160002060009054906101000a900460ff16151514610ce6576040517f08c379a0000000000000000000000000000000000000000000000000000000008152600401610cdd90612047565b60405180910390fd5b600060405180606001604052808681526020018581526020016001815250905060046000878152602001908152602001600020339080600181540180825580915050600190039060005260206000200160009091909190916101000a81548173ffffffffffffffffffffffffffffffffffffffff021916908373ffffffffffffffffffffffffffffffffffffffff160217905550806005600088815260200190815260200160002060003373ffffffffffffffffffffffffffffffffffffffff1673ffffffffffffffffffffffffffffffffffffffff1681526020019081526020016000206000820151816000015560208201518160010155604082015181600201559050506003600087815260200190815260200160002060003373ffffffffffffffffffffffffffffffffffffffff1673ffffffffffffffffffffffffffffffffffffffff16815260200190815260200160002060009054906101000a9050507fca3bef243b824258b456df78dcf2ebcee7b5d7edf69542ed3746ea5e68c94561863383602001518460000151604051610e859493929190612067565b60405180910390a1505050505050565b82600115156006600083815260200190815260200160002060060160009054906101000a900460ff16151514610f00576040517f08c379a0000000000000000000000000000000000000000000000000000000008152600401610ef790611d99565b60405180910390fd5b43600660008381526020019081526020016000206005015411610f58576040517f08c379a0000000000000000000000000000000000000000000000000000000008152600401610f4f90611e05565b60405180910390fd5b600015156003600083815260200190815260200160002060003373ffffffffffffffffffffffffffffffffffffffff1673ffffffffffffffffffffffffffffffffffffffff16815260200190815260200160002060009054906101000a900460ff16151514610ffc576040517f08c379a0000000000000000000000000000000000000000000000000000000008152600401610ff390611e71565b60405180910390fd5b833373ffffffffffffffffffffffffffffffffffffffff166006600083815260200190815260200160002060000160009054906101000a900473ffffffffffffffffffffffffffffffffffffffff1673ffffffffffffffffffffffffffffffffffffffff16146110a1576040517f08c379a00000000000000000000000000000000000000000000000000000000081526004016110989061211e565b60405180910390fd5b60005b84518110156114a75760016005600088815260200190815260200160002060008784815181106110d7576110d661213e565b5b602002602001015173ffffffffffffffffffffffffffffffffffffffff1673ffffffffffffffffffffffffffffffffffffffff16815260200190815260200160002060020154141561149457831561138e5760006005600088815260200190815260200160002060008784815181106111535761115261213e565b5b602002602001015173ffffffffffffffffffffffffffffffffffffffff1673ffffffffffffffffffffffffffffffffffffffff16815260200190815260200160002060010154905060006005600089815260200190815260200160002060008885815181106111c5576111c461213e565b5b602002602001015173ffffffffffffffffffffffffffffffffffffffff1673ffffffffffffffffffffffffffffffffffffffff16815260200190815260200160002060000154905080600660008a81526020019081526020016000206003018190555081600660008a8152602001908152602001600020600401819055506006600089815260200190815260200160002060010187848151811061126c5761126b61213e565b5b60200260200101519080600181540180825580915050600190039060005260206000200160009091909190916101000a81548173ffffffffffffffffffffffffffffffffffffffff021916908373ffffffffffffffffffffffffffffffffffffffff1602179055506002600560008a815260200190815260200160002060008986815181106112fe576112fd61213e565b5b602002602001015173ffffffffffffffffffffffffffffffffffffffff1673ffffffffffffffffffffffffffffffffffffffff168152602001908152602001600020600201819055507fd992f385523dde33af41e13ab8ac788e6a9d7bf3278f3a70d16c150ff43115e588338484600260405161137f9594939291906121b2565b60405180910390a15050611493565b600660008781526020019081526020016000206002018582815181106113b7576113b661213e565b5b60200260200101519080600181540180825580915050600190039060005260206000200160009091909190916101000a81548173ffffffffffffffffffffffffffffffffffffffff021916908373ffffffffffffffffffffffffffffffffffffffff16021790555060036005600088815260200190815260200160002060008784815181106114495761144861213e565b5b602002602001015173ffffffffffffffffffffffffffffffffffffffff1673ffffffffffffffffffffffffffffffffffffffff168152602001908152602001600020600201819055505b5b808061149f90612205565b9150506110a4565b505050505050565b6040518060e00160405280600073ffffffffffffffffffffffffffffffffffffffff16815260200160608152602001606081526020016000815260200160008152602001600081526020016000151581525090565b82805482825590600052602060002090810192821561157d579160200282015b8281111561157c5782518260006101000a81548173ffffffffffffffffffffffffffffffffffffffff021916908373ffffffffffffffffffffffffffffffffffffffff16021790555091602001919060010190611524565b5b50905061158a919061158e565b5090565b5b808211156115a757600081600090555060010161158f565b5090565b6000604051905090565b600080fd5b600080fd5b6000819050919050565b6115d2816115bf565b81146115dd57600080fd5b50565b6000813590506115ef816115c9565b92915050565b600073ffffffffffffffffffffffffffffffffffffffff82169050919050565b6000611620826115f5565b9050919050565b61163081611615565b811461163b57600080fd5b50565b60008135905061164d81611627565b92915050565b6000806000806080858703121561166d5761166c6115b5565b5b600061167b878288016115e0565b945050602061168c8782880161163e565b935050604061169d878288016115e0565b92505060606116ae878288016115e0565b91505092959194509250565b6116c381611615565b82525050565b600081519050919050565b600082825260208201905092915050565b6000819050602082019050919050565b600061170183836116ba565b60208301905092915050565b6000602082019050919050565b6000611725826116c9565b61172f81856116d4565b935061173a836116e5565b8060005b8381101561176b57815161175288826116f5565b975061175d8361170d565b92505060018101905061173e565b5085935050505092915050565b611781816115bf565b82525050565b60008115159050919050565b61179c81611787565b82525050565b600060e0830160008301516117ba60008601826116ba565b50602083015184820360208601526117d2828261171a565b915050604083015184820360408601526117ec828261171a565b91505060608301516118016060860182611778565b5060808301516118146080860182611778565b5060a083015161182760a0860182611778565b5060c083015161183a60c0860182611793565b508091505092915050565b6000602082019050818103600083015261185f81846117a2565b905092915050565b61187081611787565b811461187b57600080fd5b50565b60008135905061188d81611867565b92915050565b600080604083850312156118aa576118a96115b5565b5b60006118b8858286016115e0565b92505060206118c98582860161187e565b9150509250929050565b6000602082840312156118e9576118e86115b5565b5b60006118f78482850161163e565b91505092915050565b600060208284031215611916576119156115b5565b5b6000611924848285016115e0565b91505092915050565b600080600060608486031215611946576119456115b5565b5b6000611954868287016115e0565b9350506020611965868287016115e0565b9250506040611976868287016115e0565b9150509250925092565b600080fd5b6000601f19601f8301169050919050565b7f4e487b7100000000000000000000000000000000000000000000000000000000600052604160045260246000fd5b6119ce82611985565b810181811067ffffffffffffffff821117156119ed576119ec611996565b5b80604052505050565b6000611a006115ab565b9050611a0c82826119c5565b919050565b600067ffffffffffffffff821115611a2c57611a2b611996565b5b602082029050602081019050919050565b600080fd5b6000611a55611a5084611a11565b6119f6565b90508083825260208201905060208402830185811115611a7857611a77611a3d565b5b835b81811015611aa15780611a8d888261163e565b845260208401935050602081019050611a7a565b5050509392505050565b600082601f830112611ac057611abf611980565b5b8135611ad0848260208601611a42565b91505092915050565b600080600060608486031215611af257611af16115b5565b5b6000611b00868287016115e0565b935050602084013567ffffffffffffffff811115611b2157611b206115ba565b5b611b2d86828701611aab565b9250506040611b3e8682870161187e565b9150509250925092565b600082825260208201905092915050565b7f566f74696e6720697320616c7265616479206372656174656400000000000000600082015250565b6000611b8f601983611b48565b9150611b9a82611b59565b602082019050919050565b60006020820190508181036000830152611bbe81611b82565b9050919050565b7f596f7520617265206e6f7420617574686f72697a656420666f7220746869732060008201527f7265717565737400000000000000000000000000000000000000000000000000602082015250565b6000611c21602783611b48565b9150611c2c82611bc5565b604082019050919050565b60006020820190508181036000830152611c5081611c14565b9050919050565b7f4e487b7100000000000000000000000000000000000000000000000000000000600052601160045260246000fd5b6000611c91826115bf565b9150611c9c836115bf565b9250827fffffffffffffffffffffffffffffffffffffffffffffffffffffffffffffffff03821115611cd157611cd0611c57565b5b828201905092915050565b611ce5816115bf565b82525050565b611cf481611615565b82525050565b600060a082019050611d0f6000830188611cdc565b611d1c6020830187611ceb565b611d296040830186611cdc565b611d366060830185611cdc565b611d436080830184611cdc565b9695505050505050565b7f4e6f2062616c6c6f74207769746820796f757220696420697320666f756e6400600082015250565b6000611d83601f83611b48565b9150611d8e82611d4d565b602082019050919050565b60006020820190508181036000830152611db281611d76565b9050919050565b7f566f74696e672074696d65206973206f76657200000000000000000000000000600082015250565b6000611def601383611b48565b9150611dfa82611db9565b602082019050919050565b60006020820190508181036000830152611e1e81611de2565b9050919050565b7f596f75206861766520616c726561647920766f74656400000000000000000000600082015250565b6000611e5b601683611b48565b9150611e6682611e25565b602082019050919050565b60006020820190508181036000830152611e8a81611e4e565b9050919050565b7f596f752063616e6e6f7420766f74650000000000000000000000000000000000600082015250565b6000611ec7600f83611b48565b9150611ed282611e91565b602082019050919050565b60006020820190508181036000830152611ef681611eba565b9050919050565b611f0681611787565b82525050565b6000606082019050611f216000830186611cdc565b611f2e6020830185611ceb565b611f3b6040830184611efd565b949350505050565b7f596f7520617265206e6f7420617574686f72697a656420666f7220746869732060008201527f616374696f6e0000000000000000000000000000000000000000000000000000602082015250565b6000611f9f602683611b48565b9150611faa82611f43565b604082019050919050565b60006020820190508181036000830152611fce81611f92565b9050919050565b7f596f75206861766520616c726561647920766f746564206f7220676976656e2060008201527f6120636f756e746572206f666665720000000000000000000000000000000000602082015250565b6000612031602f83611b48565b915061203c82611fd5565b604082019050919050565b6000602082019050818103600083015261206081612024565b9050919050565b600060808201905061207c6000830187611cdc565b6120896020830186611ceb565b6120966040830185611cdc565b6120a36060830184611cdc565b95945050505050565b7f596f752063616e6e6f74206465636964652077686963682070726f706f73616c60008201527f20746f2061636365707400000000000000000000000000000000000000000000602082015250565b6000612108602a83611b48565b9150612113826120ac565b604082019050919050565b60006020820190508181036000830152612137816120fb565b9050919050565b7f4e487b7100000000000000000000000000000000000000000000000000000000600052603260045260246000fd5b6000819050919050565b6000819050919050565b600061219c6121976121928461216d565b612177565b6115bf565b9050919050565b6121ac81612181565b82525050565b600060a0820190506121c76000830188611cdc565b6121d46020830187611ceb565b6121e16040830186611cdc565b6121ee6060830185611cdc565b6121fb60808301846121a3565b9695505050505050565b6000612210826115bf565b91507fffffffffffffffffffffffffffffffffffffffffffffffffffffffffffffffff82141561224357612242611c57565b5b60018201905091905056fea2646970667358221220e37aa23e4f05bbceb31124b2bd5628c9f1e9a979f04ca8ab27fd7c998bd83e8f64736f6c634300080c0033",
  "immutableReferences": {},
  "source": "// SPDX-License-Identifier: MIT\npragma solidity ^0.8.0;\n\ncontract VotingContract {\n    uint256 VOTING_INTERVAL = 25;\n    address CONTRIBUTION_CONTRACT_ADDRESS;\n    address OWNER;\n\n    event createContributionBallot(\n        uint256 contributionId,\n        address owner,\n        uint256 governanceReward,\n        uint256 communityReward,\n        uint256 votingEndBlock\n    );\n\n    event voteForContribution(\n        uint256 contributionId,\n        address voterId,\n        bool vote\n    );\n\n    event counterOfferForContribution(\n        uint256 contributionId,\n        address voterId,\n        uint256 newGovernanceReward,\n        uint256 newCommunityReward\n    );\n\n    event counterOfferAction(\n        uint256 contributionId,\n        address voterId,\n        uint256 newGovernanceReward,\n        uint256 newCommunityReward,\n        uint256 status\n    ); // status will be => either ACCEPTED = 2 | REJECTED = 3\n\n    // Voting structure containing yes and no addresses with reward amount\n    struct Ballot {\n        address owner;\n        address[] yes;\n        address[] no;\n        uint256 communityReward;\n        uint256 governanceReward;\n        uint256 votingEndBlock;\n        bool isPresent;\n    }\n\n    //CounterOffer also known as negotitaion\n    struct CounterOffer {\n        uint256 newCommunityReward;\n        uint256 newGovernanceReward;\n        uint256 status; //either ACCEPTED = 2 | PENDING = 1 | REJECTED = 3\n    }\n\n    mapping(uint256 => mapping(address => bool)) alreadyVotedContribution; // this one to check if the voting is already done or not.\n    mapping(uint256 => address[]) contributionCounterOfferList; //This contains all the keys of the mapping of the counterOfferMapping.\n    mapping(uint256 => mapping(address => CounterOffer)) contributionCounterOfferMap; //This contains all the counter offers for a voting.\n    mapping(uint256 => Ballot) contributionVoting;\n\n    mapping(uint256 => mapping(address => bool)) alreadyVotedPublisher; // this one to check if the voting is already done or not.\n    mapping(uint256 => Ballot) publisherVoting;\n\n    constructor() {\n        OWNER = msg.sender;\n    }\n\n    /**\n     * @dev Modifier to check that the person who accesses a specific function is the owner himself.\n     */\n    modifier ownerOnly() {\n        require(msg.sender == OWNER, \"You are not authorized for this action\");\n        _;\n    }\n\n    /**\n     * @dev Sets the contribution contract address so that the voting ballot for contritbution can be restricted only to a certain contract that is the contribution contract\n     */\n    function setContributionContractAddress(\n        address newContributionContractAddress\n    ) public ownerOnly {\n        CONTRIBUTION_CONTRACT_ADDRESS = newContributionContractAddress;\n    }\n\n    /**\n     * @dev This function will create a new contribution voting ballot\n     */\n    function createContributionVotingBallot(\n        uint256 contributionId,\n        address contributionCreator,\n        uint256 govReward,\n        uint256 commReward\n    ) public returns (Ballot memory ballot) {\n        require(\n            contributionVoting[contributionId].isPresent == false,\n            \"Voting is already created\"\n        );\n\n        require(\n            CONTRIBUTION_CONTRACT_ADDRESS == msg.sender,\n            \"You are not authorized for this request\"\n        );\n\n        Ballot memory ballot = Ballot({\n            yes: new address[](0),\n            no: new address[](0),\n            owner: contributionCreator,\n            governanceReward: govReward,\n            communityReward: commReward,\n            votingEndBlock: block.number + VOTING_INTERVAL,\n            isPresent: true\n        });\n\n        contributionVoting[contributionId] = ballot;\n        emit createContributionBallot(\n            contributionId,\n            ballot.owner,\n            ballot.governanceReward,\n            ballot.communityReward,\n            ballot.votingEndBlock\n        );\n        return ballot;\n    }\n\n    /**\n     * @dev This modifier checks if a ballot is open for voting or has the time expired\n     */\n    modifier checkIfBallotIsOpen(uint256 contributionId) {\n        require(\n            contributionVoting[contributionId].isPresent == true,\n            \"No ballot with your id is found\"\n        );\n\n        require(\n            contributionVoting[contributionId].votingEndBlock > block.number,\n            \"Voting time is over\"\n        );\n\n        require(\n            alreadyVotedContribution[contributionId][msg.sender] == false,\n            \"You have already voted\"\n        );\n        _;\n    }\n\n    /**\n     * @dev This modifier will check that the caller can be anybody apart from the owner of the ballot.\n     */\n    modifier checkIfNotOwnerOfBallot(uint256 contributionId) {\n        require(\n            contributionVoting[contributionId].owner != msg.sender,\n            \"You cannot vote\"\n        );\n        _;\n    }\n\n    /**\n     * @dev This modifier will check that the caller can only be owner of the ballot.\n     */\n    modifier onlyOwnerOfBallot(uint256 contributionId) {\n        require(\n            contributionVoting[contributionId].owner == msg.sender,\n            \"You cannot decide which proposal to accept\"\n        );\n        _;\n    }\n\n    /**\n     * @dev This function is called by any user to cast vote\n     * @param contributionId this is the id of the contribution for which user is voting\n     * @param vote this is the state of the vote, if true than it means the vote is in favour of the ballot\n     */\n    function castVoteForContribution(uint256 contributionId, bool vote)\n        public\n        checkIfBallotIsOpen(contributionId)\n        checkIfNotOwnerOfBallot(contributionId)\n    {\n        if (vote) {\n            contributionVoting[contributionId].yes.push(msg.sender);\n        } else {\n            contributionVoting[contributionId].no.push(msg.sender);\n        }\n\n        alreadyVotedContribution[contributionId][msg.sender] = true;\n\n        emit voteForContribution(contributionId, msg.sender, vote);\n    }\n\n    /**\n     * @dev This function is called by any user to cast vote\n     * @param contributionId this is the id of the contribution for which user is creating a counter offer\n     * @param newCommunityReward new comunity token amount as reward for the negotition\n     * @param newGovernanceReward new governance token amount as reward for the negotition\n     */\n    function proposeCounterOffer(\n        uint256 contributionId,\n        uint256 newCommunityReward,\n        uint256 newGovernanceReward\n    )\n        public\n        checkIfBallotIsOpen(contributionId)\n        checkIfNotOwnerOfBallot(contributionId)\n    {\n        //Check if counter offer exists or not\n        require(\n            alreadyVotedContribution[contributionId][msg.sender] == false,\n            \"You have already voted or given a counter offer\"\n        );\n\n        //Create counter offer object and push it into array\n        CounterOffer memory offer = CounterOffer({\n            newCommunityReward: newCommunityReward,\n            newGovernanceReward: newGovernanceReward,\n            status: 1\n        });\n\n        contributionCounterOfferList[contributionId].push(msg.sender);\n        contributionCounterOfferMap[contributionId][msg.sender] = offer;\n        alreadyVotedContribution[contributionId][msg.sender];\n\n        emit counterOfferForContribution(\n            contributionId,\n            msg.sender,\n            offer.newGovernanceReward,\n            offer.newCommunityReward\n        );\n    }\n\n    /**\n     * @dev This function is called by owner of the contribution to either accept or reject a counter offer\n     * @param contributionId this is the id of the contribution to which the counter offer belogs to\n     * @param counterOfferIds The id of counter offers in array to accept or reject multiple counter offers at once\n     * @param action this is the state of the vote, if true than it means that user accepts the counter offfer\n     */\n    function actionOnCounterOffer(\n        uint256 contributionId,\n        address[] memory counterOfferIds,\n        bool action\n    )\n        public\n        checkIfBallotIsOpen(contributionId)\n        onlyOwnerOfBallot(contributionId)\n    {\n        //only vote once check\n        for (uint256 i = 0; i < counterOfferIds.length; i++) {\n            if (\n                contributionCounterOfferMap[contributionId][counterOfferIds[i]]\n                    .status == 1\n            ) {\n                if (action) {\n                    uint256 newGovernanceReward = contributionCounterOfferMap[\n                        contributionId\n                    ][counterOfferIds[i]].newGovernanceReward;\n                    uint256 newCommunityReward = contributionCounterOfferMap[\n                        contributionId\n                    ][counterOfferIds[i]].newCommunityReward;\n\n                    //Set new reward for the contribution\n                    contributionVoting[contributionId]\n                        .communityReward = newCommunityReward;\n                    contributionVoting[contributionId]\n                        .governanceReward = newGovernanceReward;\n\n                    contributionVoting[contributionId].yes.push(\n                        counterOfferIds[i]\n                    ); //The counter offer ids are the addresses of the user who proposed the offer\n                    contributionCounterOfferMap[contributionId][\n                        counterOfferIds[i]\n                    ].status = 2;\n                    emit counterOfferAction(\n                        contributionId,\n                        msg.sender,\n                        newGovernanceReward,\n                        newCommunityReward,\n                        2\n                    );\n                } else {\n                    contributionVoting[contributionId].no.push(\n                        counterOfferIds[i]\n                    );\n                    //The counter offer ids are the addresses of the user who proposed the offer\n                    contributionCounterOfferMap[contributionId][\n                        counterOfferIds[i]\n                    ].status = 3;\n                }\n            }\n        }\n    }\n\n    function contributionBallotResult(uint256 contributionId)\n        public\n        checkIfBallotIsOpen(contributionId)\n    {\n        //Ballot result => when calculating balance create a function in recordContract that wil return balance of multiple address\n        //get the votes from voting map\n        //get the weightage of all the votes\n        //if yes is more\n        //initiate transfer of funds\n        //set contribution as accepted\n        //if no is more\n        //set contribution as rejected\n    }\n}\n",
  "sourcePath": "/Users/a1/Desktop/Office/projects/CrowdRecords/Contracts/contracts/VotingContract.sol",
  "compiler": {
    "name": "solc",
    "version": "0.8.12+commit.f00d7308.Emscripten.clang"
  },
  "schemaVersion": "3.4.6",
  "updatedAt": "2022-03-26T13:42:32.813Z",
  "networkType": "ethereum",
  "devdoc": {
    "kind": "dev",
    "methods": {
      "actionOnCounterOffer(uint256,address[],bool)": {
        "details": "This function is called by owner of the contribution to either accept or reject a counter offer",
        "params": {
          "action": "this is the state of the vote, if true than it means that user accepts the counter offfer",
          "contributionId": "this is the id of the contribution to which the counter offer belogs to",
          "counterOfferIds": "The id of counter offers in array to accept or reject multiple counter offers at once"
        }
      },
      "castVoteForContribution(uint256,bool)": {
        "details": "This function is called by any user to cast vote",
        "params": {
          "contributionId": "this is the id of the contribution for which user is voting",
          "vote": "this is the state of the vote, if true than it means the vote is in favour of the ballot"
        }
      },
      "createContributionVotingBallot(uint256,address,uint256,uint256)": {
        "details": "This function will create a new contribution voting ballot"
      },
      "proposeCounterOffer(uint256,uint256,uint256)": {
        "details": "This function is called by any user to cast vote",
        "params": {
          "contributionId": "this is the id of the contribution for which user is creating a counter offer",
          "newCommunityReward": "new comunity token amount as reward for the negotition",
          "newGovernanceReward": "new governance token amount as reward for the negotition"
        }
      },
      "setContributionContractAddress(address)": {
        "details": "Sets the contribution contract address so that the voting ballot for contritbution can be restricted only to a certain contract that is the contribution contract"
      }
    },
    "version": 1
  },
  "userdoc": {
    "kind": "user",
    "methods": {},
    "version": 1
  }
}